{"abi":[{"type":"function","name":"computeBalance","inputs":[{"name":"balancesLiveScaled18","type":"uint256[]","internalType":"uint256[]"},{"name":"tokenInIndex","type":"uint256","internalType":"uint256"},{"name":"invariantRatio","type":"uint256","internalType":"uint256"}],"outputs":[{"name":"newBalance","type":"uint256","internalType":"uint256"}],"stateMutability":"pure"},{"type":"function","name":"computeInvariant","inputs":[{"name":"balancesLiveScaled18","type":"uint256[]","internalType":"uint256[]"},{"name":"rounding","type":"uint8","internalType":"enum Rounding"}],"outputs":[{"name":"invariant","type":"uint256","internalType":"uint256"}],"stateMutability":"pure"},{"type":"function","name":"facetFuncs","inputs":[],"outputs":[{"name":"funcs","type":"bytes4[]","internalType":"bytes4[]"}],"stateMutability":"pure"},{"type":"function","name":"facetInterfaces","inputs":[],"outputs":[{"name":"interfaces","type":"bytes4[]","internalType":"bytes4[]"}],"stateMutability":"pure"},{"type":"function","name":"facetMetadata","inputs":[],"outputs":[{"name":"name_","type":"string","internalType":"string"},{"name":"interfaces","type":"bytes4[]","internalType":"bytes4[]"},{"name":"functions","type":"bytes4[]","internalType":"bytes4[]"}],"stateMutability":"pure"},{"type":"function","name":"facetName","inputs":[],"outputs":[{"name":"name","type":"string","internalType":"string"}],"stateMutability":"pure"},{"type":"function","name":"onSwap","inputs":[{"name":"params","type":"tuple","internalType":"struct PoolSwapParams","components":[{"name":"kind","type":"uint8","internalType":"enum SwapKind"},{"name":"amountGivenScaled18","type":"uint256","internalType":"uint256"},{"name":"balancesScaled18","type":"uint256[]","internalType":"uint256[]"},{"name":"indexIn","type":"uint256","internalType":"uint256"},{"name":"indexOut","type":"uint256","internalType":"uint256"},{"name":"router","type":"address","internalType":"address"},{"name":"userData","type":"bytes","internalType":"bytes"}]}],"outputs":[{"name":"amountCalculatedScaled18","type":"uint256","internalType":"uint256"}],"stateMutability":"pure"},{"type":"error","name":"ZeroDivision","inputs":[]}],"bytecode":{"object":"0x6080604052348015600e575f5ffd5b506108fa8061001c5f395ff3fe608060405234801561000f575f5ffd5b506004361061006b575f3560e01c806316a0b3e01461006f5780632ea8082614610095578063574a4cff146100aa5780635b6f4d01146100b257806372c98186146100c7578063984de9e8146100da578063f10d7a75146100ed575b5f5ffd5b61008261007d3660046105f9565b610104565b6040519081526020015b60405180910390f35b61009d610168565b60405161008c9190610686565b61009d6101c0565b6100ba610269565b60405161008c91906106c6565b6100826100d53660046106d8565b610289565b6100826100e836600461071d565b610361565b6100f5610414565b60405161008c9392919061076b565b5f808315610112575f610115565b60015b60ff1690505f6101308461012a886001610361565b9061043c565b905061015e61013f82806107b7565b878481518110610151576101516107ce565b6020026020010151610466565b9695505050505050565b60408051600180825281830190925260609160208083019080368337019050509050637e126dc760e11b815f815181106101a4576101a46107ce565b6001600160e01b03199092166020928302919091019091015290565b6040805160038082526080820190925260609160208201838036833701905050905063984de9e860e01b815f815181106101fc576101fc6107ce565b6001600160e01b031990921660209283029190910190910152805162b5059f60e51b9082906001908110610232576102326107ce565b6001600160e01b0319909216602092830291909101909101528051633964c0c360e11b90829060029081106101a4576101a46107ce565b60606040518060600160405260228152806020016108a360229139905090565b5f8061029860408401846107e2565b84606001358181106102ac576102ac6107ce565b9050602002013590505f8380604001906102c691906107e2565b85608001358181106102da576102da6107ce565b602002919091013591505f90506102f46020860186610842565b60018111156103055761030561082e565b03610335576020840135610319818461085d565b61032382846107b7565b61032d9190610870565b93505061035a565b602084013561035661034782856107b7565b610351838561088f565b610466565b9350505b5050919050565b670de0b6b3a76400005f5b83518110156103f55760018360018111156103895761038961082e565b146103bf576103ba8482815181106103a3576103a36107ce565b60200260200101518361049890919063ffffffff16565b6103eb565b6103eb8482815181106103d4576103d46107ce565b60200260200101518361043c90919063ffffffff16565b915060010161036c565b506103ff816104c4565b61040d90633b9aca006107b7565b9392505050565b6060806060610421610269565b925061042b610168565b91506104356101c0565b9050909192565b5f8061044883856107b7565b905061045c670de0b6b3a764000082610870565b9150505b92915050565b5f815f0361048757604051630a0c22c760e01b815260040160405180910390fd5b508115155f19909201046001010290565b5f806104a483856107b7565b90506001670de0b6b3a76400006001830304018115150291505092915050565b5f610460826001600160881b03811160071b81811c6001600160481b031060061b1781811c64ffffffffff1060051b1781811c62ffffff1060041b1781811c620100000160b5600192831c1b0260121c80830401811c80830401811c80830401811c80830401811c80830401811c80830401811c80830401901c908190048111900390565b634e487b7160e01b5f52604160045260245ffd5b5f82601f83011261056c575f5ffd5b81356001600160401b0381111561058557610585610549565b604051600582901b90603f8201601f191681016001600160401b03811182821017156105b3576105b3610549565b6040529182526020818501810192908101868411156105d0575f5ffd5b6020860192505b838310156105ef5782358152602092830192016105d7565b5095945050505050565b5f5f5f6060848603121561060b575f5ffd5b83356001600160401b03811115610620575f5ffd5b61062c8682870161055d565b9660208601359650604090950135949350505050565b5f8151808452602084019350602083015f5b8281101561067c5781516001600160e01b031916865260209586019590910190600101610654565b5093949350505050565b602081525f61040d6020830184610642565b5f81518084528060208401602086015e5f602082860101526020601f19601f83011685010191505092915050565b602081525f61040d6020830184610698565b5f602082840312156106e8575f5ffd5b81356001600160401b038111156106fd575f5ffd5b820160e0818503121561040d575f5ffd5b6002811061071a575f5ffd5b50565b5f5f6040838503121561072e575f5ffd5b82356001600160401b03811115610743575f5ffd5b61074f8582860161055d565b92505060208301356107608161070e565b809150509250929050565b606081525f61077d6060830186610698565b828103602084015261078f8186610642565b9050828103604084015261015e8185610642565b634e487b7160e01b5f52601160045260245ffd5b8082028115828204841417610460576104606107a3565b634e487b7160e01b5f52603260045260245ffd5b5f5f8335601e198436030181126107f7575f5ffd5b8301803591506001600160401b03821115610810575f5ffd5b6020019150600581901b3603821315610827575f5ffd5b9250929050565b634e487b7160e01b5f52602160045260245ffd5b5f60208284031215610852575f5ffd5b813561040d8161070e565b80820180821115610460576104606107a3565b5f8261088a57634e487b7160e01b5f52601260045260245ffd5b500490565b81810381811115610460576104606107a356fe42616c616e6365725633436f6e7374616e7450726f64756374506f6f6c4661636574a26469706673582212201777e242b4e3b350457036eb136b04471675830e7d84847cfdc2ffcc816c632264736f6c634300081e0033","linkReferences":{}},"methodIdentifiers":{"computeBalance(uint256[],uint256,uint256)":"16a0b3e0","computeInvariant(uint256[],uint8)":"984de9e8","facetFuncs()":"574a4cff","facetInterfaces()":"2ea80826","facetMetadata()":"f10d7a75","facetName()":"5b6f4d01","onSwap((uint8,uint256,uint256[],uint256,uint256,address,bytes))":"72c98186"},"id":862}