{"abi":[{"type":"function","name":"computeBalance","inputs":[{"name":"balancesLiveScaled18","type":"uint256[]","internalType":"uint256[]"},{"name":"tokenInIndex","type":"uint256","internalType":"uint256"},{"name":"invariantRatio","type":"uint256","internalType":"uint256"}],"outputs":[{"name":"newBalance","type":"uint256","internalType":"uint256"}],"stateMutability":"view"},{"type":"function","name":"computeInvariant","inputs":[{"name":"balancesLiveScaled18","type":"uint256[]","internalType":"uint256[]"},{"name":"rounding","type":"uint8","internalType":"enum Rounding"}],"outputs":[{"name":"invariant","type":"uint256","internalType":"uint256"}],"stateMutability":"view"},{"type":"function","name":"getNormalizedWeights","inputs":[],"outputs":[{"name":"weights","type":"uint256[]","internalType":"uint256[]"}],"stateMutability":"view"},{"type":"function","name":"onSwap","inputs":[{"name":"params","type":"tuple","internalType":"struct PoolSwapParams","components":[{"name":"kind","type":"uint8","internalType":"enum SwapKind"},{"name":"amountGivenScaled18","type":"uint256","internalType":"uint256"},{"name":"balancesScaled18","type":"uint256[]","internalType":"uint256[]"},{"name":"indexIn","type":"uint256","internalType":"uint256"},{"name":"indexOut","type":"uint256","internalType":"uint256"},{"name":"router","type":"address","internalType":"address"},{"name":"userData","type":"bytes","internalType":"bytes"}]}],"outputs":[{"name":"amountCalculatedScaled18","type":"uint256","internalType":"uint256"}],"stateMutability":"view"},{"type":"error","name":"BaseOutOfBounds","inputs":[]},{"type":"error","name":"ExponentOutOfBounds","inputs":[]},{"type":"error","name":"InvalidExponent","inputs":[]},{"type":"error","name":"MaxInRatio","inputs":[]},{"type":"error","name":"MaxOutRatio","inputs":[]},{"type":"error","name":"ProductOutOfBounds","inputs":[]},{"type":"error","name":"ZeroDivision","inputs":[]},{"type":"error","name":"ZeroInvariant","inputs":[]}],"bytecode":{"object":"0x6080604052348015600e575f5ffd5b506114b38061001c5f395ff3fe608060405234801561000f575f5ffd5b506004361061004a575f3560e01c806316a0b3e01461004e57806372c9818614610074578063984de9e814610087578063f89f27ed1461009a575b5f5ffd5b61006161005c366004611238565b6100af565b6040519081526020015b60405180910390f35b610061610082366004611281565b610101565b6100616100953660046112c6565b610213565b6100a261025d565b60405161006b9190611314565b5f5f6100b961026c565b90506100f88585815181106100d0576100d0611356565b60200260200101518286815181106100ea576100ea611356565b602002602001015185610297565b95945050505050565b5f5f61010b61026c565b90505f61011b604085018561136a565b856060013581811061012f5761012f611356565b9050602002013590505f848060400190610149919061136a565b866080013581811061015d5761015d611356565b9050602002013590505f8386606001358151811061017d5761017d611356565b602002602001015190505f8487608001358151811061019e5761019e611356565b602002602001015190505f60018111156101ba576101ba6113b6565b6101c760208901896113ca565b60018111156101d8576101d86113b6565b036101f5576101ee848385848b602001356102ef565b9550610209565b610206848385848b6020013561037e565b95505b5050505050919050565b5f5f61021d61026c565b90506001836001811115610233576102336113b6565b03610249576102428185610401565b9150610256565b6102538185610495565b91505b5092915050565b606061026761026c565b905090565b60606102677f0b1f699f9a8cb016dcd6d3f4119ffc688f82df3a97972f71dfa812f53cb486a3610502565b5f61117e670de0b6b3a764000083116102b25761055b6102b6565b61057b5b90505f6102d96102d2670de0b6b3a7640000878563ffffffff16565b8590610596565b90506102e58682610649565b9695505050505050565b5f61030286670429d069189e0000610675565b8211156103225760405163340a453360e01b815260040160405180910390fd5b5f61032d83886113f9565b90505f61033a888361057b565b90505f610347888761055b565b90505f6103548383610596565b9050610370670de0b6b3a7640000828103908310028990610675565b9a9950505050505050505050565b5f61039184670429d069189e0000610675565b8211156103b1576040516364590b9f60e01b815260040160405180910390fd5b5f6103c66103bf848761140c565b869061057b565b90505f6103d3858861057b565b90505f6103e08383610596565b90505f6103f5670de0b6b3a76400008361140c565b90506103708a82610649565b670de0b6b3a76400005f5b835181101561046e5761046461045d85838151811061042d5761042d611356565b602002602001015185848151811061044757610447611356565b602002602001015161069590919063ffffffff16565b8390610675565b915060010161040c565b50805f0361048f57604051632654368960e01b815260040160405180910390fd5b92915050565b670de0b6b3a76400005f5b835181101561046e576104f86104f18583815181106104c1576104c1611356565b60200260200101518584815181106104db576104db611356565b602002602001015161059690919063ffffffff16565b8390610649565b91506001016104a0565b6060815f0180548060200260200160405190810160405280929190818152602001828054801561054f57602002820191905f5260205f20905b81548152602001906001019080831161053b575b50505050509050919050565b5f8061056f670de0b6b3a76400008561141f565b9050610253838261144a565b5f61058f83670de0b6b3a764000084610741565b9392505050565b5f670de0b6b3a764000082036105ad57508161048f565b6105c0670de0b6b3a7640000600261141f565b82036105d7576105d08384610649565b905061048f565b6105ea670de0b6b3a7640000600461141f565b820361060f575f6105fb8485610649565b90506106078182610649565b91505061048f565b5f61061a8484610786565b90505f61062982612710610649565b6106349060016113f9565b905061064081836113f9565b9250505061048f565b5f80610655838561141f565b90506001670de0b6b3a76400006001830304018115150291505092915050565b5f80610681838561141f565b9050610253670de0b6b3a76400008261144a565b5f670de0b6b3a764000082036106ac57508161048f565b6106bf670de0b6b3a7640000600261141f565b82036106cf576105d08384610675565b6106e2670de0b6b3a7640000600461141f565b82036106ff575f6106f38485610675565b90506106078182610675565b5f61070a8484610786565b90505f61071982612710610649565b6107249060016113f9565b905080821015610738575f9250505061048f565b9003905061048f565b5f815f0361076257604051630a0c22c760e01b815260040160405180910390fd5b5f61076d848661141f565b9050600183600183030401811515029150509392505050565b5f815f0361079d5750670de0b6b3a764000061048f565b825f036107ab57505f61048f565b60ff83901c156107cd576040516211380f60e51b815260040160405180910390fd5b826107e568056bc75e2d63100000600160fe1b61144a565b83106108045760405163d831731160e01b815260040160405180910390fd5b825f670c7d713b49da0000831380156108245750670f43fc2c04ee000083125b1561085a575f610833846108bc565b9050670de0b6b3a764000080820784020583670de0b6b3a764000083050201915050610868565b81610864846109d9565b0290505b670de0b6b3a76400009005680238fd42c5cf03ffff198112801590610896575068070c1cc73b00c800008113155b6108b35760405163a2f9f7e360e01b815260040160405180910390fd5b6102e581610d83565b670de0b6b3a7640000025f806a0c097ce7bc90715b34b9f160241b808401906ec097ce7bc90715b34b9f0fffffffff19850102816108fc576108fc611436565b0590505f6a0c097ce7bc90715b34b9f160241b82800205905081806a0c097ce7bc90715b34b9f160241b81840205915060038205016a0c097ce7bc90715b34b9f160241b82840205915060058205016a0c097ce7bc90715b34b9f160241b82840205915060078205016a0c097ce7bc90715b34b9f160241b82840205915060098205016a0c097ce7bc90715b34b9f160241b828402059150600b8205016a0c097ce7bc90715b34b9f160241b828402059150600d8205016a0c097ce7bc90715b34b9f160241b828402059150600f82050160020295945050505050565b5f80670de0b6b3a7640000831215610a1057826a0c097ce7bc90715b34b9f160241b81610a0857610a08611436565b059250600190505b5f775803bcc5cb9634ba4cfb2213f784019318ed4dcb6017880f60361b8412610a5a5772195e54c5dd42177f53a27172fa9ec63026282760241b840593506806f05b59d3b2000000015b6f8bcc0026baae9e45e470190267a230cf60191b8412610a91576b1425982cf597cd205cef7380840593506803782dace9d9000000015b606493840293026e01855144814a7ff805980ff00840008412610ad9576e01855144814a7ff805980ff008400068056bc75e2d63100000850205935068ad78ebc5ac62000000015b6b02df0ab5a80a22c61ab5a7008412610b14576b02df0ab5a80a22c61ab5a70068056bc75e2d6310000085020593506856bc75e2d631000000015b693f1fce3da636ea5cf8508412610b4b57693f1fce3da636ea5cf85068056bc75e2d631000008502059350682b5e3af16b18800000015b690127fa27722cc06cc5e28412610b8257690127fa27722cc06cc5e268056bc75e2d6310000085020593506815af1d78b58c400000015b68280e60114edb805d038412610bb75768280e60114edb805d0368056bc75e2d631000008502059350680ad78ebc5ac6200000015b680ebc5fb417461211108412610be257680ebc5fb4174612111068056bc75e2d631000009485020593015b6808f00f760a4b2db55d8412610c17576808f00f760a4b2db55d68056bc75e2d6310000085020593506802b5e3af16b1880000015b6806f5f17757889379378412610c4c576806f5f177578893793768056bc75e2d63100000850205935068015af1d78b58c40000015b6806248f33704b2866038412610c80576806248f33704b28660368056bc75e2d63100000850205935067ad78ebc5ac620000015b6805c548670b9510e7ac8412610cb4576805c548670b9510e7ac68056bc75e2d6310000085020593506756bc75e2d6310000015b5f68056bc75e2d63100000850168056bc75e2d631000008087030281610cdc57610cdc611436565b0590505f68056bc75e2d63100000828002059050818068056bc75e2d63100000818402059150600382050168056bc75e2d63100000828402059150600582050168056bc75e2d63100000828402059150600782050168056bc75e2d63100000828402059150600982050168056bc75e2d63100000828402059150600b8205016002025f606486830105905086610d725780610d76565b805f035b9998505050505050505050565b5f680238fd42c5cf03ffff198212158015610da7575068070c1cc73b00c800008213155b610dc45760405163d4794efd60e01b815260040160405180910390fd5b5f80831215610dd757825f039250600190505b5f6806f05b59d3b20000008412610e1457506806f05b59d3b1ffffff199092019172195e54c5dd42177f53a27172fa9ec63026282760241b610e4a565b6803782dace9d90000008412610e4657506803782dace9d8ffffff19909201916b1425982cf597cd205cef7380610e4a565b5060015b6064939093029268056bc75e2d6310000068ad78ebc5ac620000008512610e9a5768ad78ebc5ac61ffffff199094019368056bc75e2d631000006e01855144814a7ff805980ff008400082020590505b6856bc75e2d6310000008512610ed6576856bc75e2d630ffffff199094019368056bc75e2d631000006b02df0ab5a80a22c61ab5a70082020590505b682b5e3af16b188000008512610f1057682b5e3af16b187fffff199094019368056bc75e2d63100000693f1fce3da636ea5cf85082020590505b6815af1d78b58c4000008512610f4a576815af1d78b58c3fffff199094019368056bc75e2d63100000690127fa27722cc06cc5e282020590505b680ad78ebc5ac62000008512610f8357680ad78ebc5ac61fffff199094019368056bc75e2d6310000068280e60114edb805d0382020590505b68056bc75e2d631000008512610fbc5768056bc75e2d630fffff199094019368056bc75e2d63100000680ebc5fb4174612111082020590505b6802b5e3af16b18800008512610ff5576802b5e3af16b187ffff199094019368056bc75e2d631000006808f00f760a4b2db55d82020590505b68015af1d78b58c40000851261102e5768015af1d78b58c3ffff199094019368056bc75e2d631000006806f5f177578893793782020590505b68056bc75e2d631000008581019086906002908280020505918201919050600368056bc75e2d631000008883020505918201919050600468056bc75e2d631000008883020505918201919050600568056bc75e2d631000008883020505918201919050600668056bc75e2d631000008883020505918201919050600768056bc75e2d631000008883020505918201919050600868056bc75e2d631000008883020505918201919050600968056bc75e2d631000008883020505918201919050600a68056bc75e2d631000008883020505918201919050600b68056bc75e2d631000008883020505918201919050600c68056bc75e2d6310000088830205059182019190505f606468056bc75e2d63100000858502058602059050856111535780611172565b806a0c097ce7bc90715b34b9f160241b8161117057611170611436565b055b98975050505050505050565b611186611469565b565b634e487b7160e01b5f52604160045260245ffd5b5f82601f8301126111ab575f5ffd5b81356001600160401b038111156111c4576111c4611188565b604051600582901b90603f8201601f191681016001600160401b03811182821017156111f2576111f2611188565b60405291825260208185018101929081018684111561120f575f5ffd5b6020860192505b8383101561122e578235815260209283019201611216565b5095945050505050565b5f5f5f6060848603121561124a575f5ffd5b83356001600160401b0381111561125f575f5ffd5b61126b8682870161119c565b9660208601359650604090950135949350505050565b5f60208284031215611291575f5ffd5b81356001600160401b038111156112a6575f5ffd5b820160e0818503121561058f575f5ffd5b600281106112c3575f5ffd5b50565b5f5f604083850312156112d7575f5ffd5b82356001600160401b038111156112ec575f5ffd5b6112f88582860161119c565b9250506020830135611309816112b7565b809150509250929050565b602080825282518282018190525f918401906040840190835b8181101561134b57835183526020938401939092019160010161132d565b509095945050505050565b634e487b7160e01b5f52603260045260245ffd5b5f5f8335601e1984360301811261137f575f5ffd5b8301803591506001600160401b03821115611398575f5ffd5b6020019150600581901b36038213156113af575f5ffd5b9250929050565b634e487b7160e01b5f52602160045260245ffd5b5f602082840312156113da575f5ffd5b813561058f816112b7565b634e487b7160e01b5f52601160045260245ffd5b8082018082111561048f5761048f6113e5565b8181038181111561048f5761048f6113e5565b808202811582820484141761048f5761048f6113e5565b634e487b7160e01b5f52601260045260245ffd5b5f8261146457634e487b7160e01b5f52601260045260245ffd5b500490565b634e487b7160e01b5f52605160045260245ffdfea26469706673582212205a26839991253bd25ce67c8a24ff645d745ac5a29dc89057755f1f6efc9da61c64736f6c634300081e0033","linkReferences":{}},"methodIdentifiers":{"computeBalance(uint256[],uint256,uint256)":"16a0b3e0","computeInvariant(uint256[],uint8)":"984de9e8","getNormalizedWeights()":"f89f27ed","onSwap((uint8,uint256,uint256[],uint256,uint256,address,bytes))":"72c98186"},"id":884}