{"abi":[{"type":"function","name":"DOMAIN_SEPARATOR","inputs":[],"outputs":[{"name":"","type":"bytes32","internalType":"bytes32"}],"stateMutability":"view"},{"type":"function","name":"allowance","inputs":[{"name":"owner","type":"address","internalType":"address"},{"name":"spender","type":"address","internalType":"address"}],"outputs":[{"name":"","type":"uint256","internalType":"uint256"}],"stateMutability":"view"},{"type":"function","name":"approve","inputs":[{"name":"spender","type":"address","internalType":"address"},{"name":"amount","type":"uint256","internalType":"uint256"}],"outputs":[{"name":"result","type":"bool","internalType":"bool"}],"stateMutability":"nonpayable"},{"type":"function","name":"balanceOf","inputs":[{"name":"account","type":"address","internalType":"address"}],"outputs":[{"name":"balance","type":"uint256","internalType":"uint256"}],"stateMutability":"view"},{"type":"function","name":"decimals","inputs":[],"outputs":[{"name":"","type":"uint8","internalType":"uint8"}],"stateMutability":"view"},{"type":"function","name":"decreaseAllowance","inputs":[{"name":"spender","type":"address","internalType":"address"},{"name":"subtractedValue","type":"uint256","internalType":"uint256"}],"outputs":[{"name":"","type":"bool","internalType":"bool"}],"stateMutability":"nonpayable"},{"type":"function","name":"eip712Domain","inputs":[],"outputs":[{"name":"fields","type":"bytes1","internalType":"bytes1"},{"name":"name","type":"string","internalType":"string"},{"name":"version","type":"string","internalType":"string"},{"name":"chainId","type":"uint256","internalType":"uint256"},{"name":"verifyingContract","type":"address","internalType":"address"},{"name":"salt","type":"bytes32","internalType":"bytes32"},{"name":"extensions","type":"uint256[]","internalType":"uint256[]"}],"stateMutability":"view"},{"type":"function","name":"increaseAllowance","inputs":[{"name":"spender","type":"address","internalType":"address"},{"name":"addedValue","type":"uint256","internalType":"uint256"}],"outputs":[{"name":"","type":"bool","internalType":"bool"}],"stateMutability":"nonpayable"},{"type":"function","name":"name","inputs":[],"outputs":[{"name":"","type":"string","internalType":"string"}],"stateMutability":"view"},{"type":"function","name":"nonces","inputs":[{"name":"owner","type":"address","internalType":"address"}],"outputs":[{"name":"","type":"uint256","internalType":"uint256"}],"stateMutability":"view"},{"type":"function","name":"permit","inputs":[{"name":"owner","type":"address","internalType":"address"},{"name":"spender","type":"address","internalType":"address"},{"name":"value","type":"uint256","internalType":"uint256"},{"name":"deadline","type":"uint256","internalType":"uint256"},{"name":"v","type":"uint8","internalType":"uint8"},{"name":"r","type":"bytes32","internalType":"bytes32"},{"name":"s","type":"bytes32","internalType":"bytes32"}],"outputs":[],"stateMutability":"nonpayable"},{"type":"function","name":"symbol","inputs":[],"outputs":[{"name":"tokenSymbol","type":"string","internalType":"string"}],"stateMutability":"view"},{"type":"function","name":"totalSupply","inputs":[],"outputs":[{"name":"supply","type":"uint256","internalType":"uint256"}],"stateMutability":"view"},{"type":"function","name":"transfer","inputs":[{"name":"recipient","type":"address","internalType":"address"},{"name":"amount","type":"uint256","internalType":"uint256"}],"outputs":[{"name":"result","type":"bool","internalType":"bool"}],"stateMutability":"nonpayable"},{"type":"function","name":"transferFrom","inputs":[{"name":"sender","type":"address","internalType":"address"},{"name":"recipient","type":"address","internalType":"address"},{"name":"amount","type":"uint256","internalType":"uint256"}],"outputs":[{"name":"result","type":"bool","internalType":"bool"}],"stateMutability":"nonpayable"},{"type":"event","name":"Approval","inputs":[{"name":"owner","type":"address","indexed":true,"internalType":"address"},{"name":"spender","type":"address","indexed":true,"internalType":"address"},{"name":"value","type":"uint256","indexed":false,"internalType":"uint256"}],"anonymous":false},{"type":"event","name":"EIP712DomainChanged","inputs":[],"anonymous":false},{"type":"event","name":"Transfer","inputs":[{"name":"from","type":"address","indexed":true,"internalType":"address"},{"name":"to","type":"address","indexed":true,"internalType":"address"},{"name":"value","type":"uint256","indexed":false,"internalType":"uint256"}],"anonymous":false},{"type":"error","name":"ECDSAInvalidSignature","inputs":[]},{"type":"error","name":"ECDSAInvalidSignatureLength","inputs":[{"name":"length","type":"uint256","internalType":"uint256"}]},{"type":"error","name":"ECDSAInvalidSignatureS","inputs":[{"name":"s","type":"bytes32","internalType":"bytes32"}]},{"type":"error","name":"ERC20InsufficientAllowance","inputs":[{"name":"spender","type":"address","internalType":"address"},{"name":"allowance","type":"uint256","internalType":"uint256"},{"name":"needed","type":"uint256","internalType":"uint256"}]},{"type":"error","name":"ERC20InsufficientBalance","inputs":[{"name":"sender","type":"address","internalType":"address"},{"name":"balance","type":"uint256","internalType":"uint256"},{"name":"needed","type":"uint256","internalType":"uint256"}]},{"type":"error","name":"ERC20InvalidApprover","inputs":[{"name":"approver","type":"address","internalType":"address"}]},{"type":"error","name":"ERC20InvalidReceiver","inputs":[{"name":"receiver","type":"address","internalType":"address"}]},{"type":"error","name":"ERC20InvalidSender","inputs":[{"name":"sender","type":"address","internalType":"address"}]},{"type":"error","name":"ERC20InvalidSpender","inputs":[{"name":"spender","type":"address","internalType":"address"}]},{"type":"error","name":"ERC2612ExpiredSignature","inputs":[{"name":"deadline","type":"uint256","internalType":"uint256"}]},{"type":"error","name":"ERC2612InvalidSigner","inputs":[{"name":"signer","type":"address","internalType":"address"},{"name":"owner","type":"address","internalType":"address"}]},{"type":"error","name":"InvalidAccountNonce","inputs":[{"name":"account","type":"address","internalType":"address"},{"name":"currentNonce","type":"uint256","internalType":"uint256"}]},{"type":"error","name":"InvalidShortString","inputs":[]}],"bytecode":{"object":"0x6080604052348015600e575f5ffd5b506120ab8061001c5f395ff3fe608060405234801561000f575f5ffd5b50600436106100f3575f3560e01c806370a0823111610095578063a457c2d711610064578063a457c2d7146102a1578063a9059cbb146102d1578063d505accf14610301578063dd62ed3e1461031d576100f3565b806370a08231146101ff5780637ecebe001461022f57806384b0196e1461025f57806395d89b4114610283576100f3565b806323b872dd116100d157806323b872dd14610163578063313ce567146101935780633644e515146101b157806339509351146101cf576100f3565b806306fdde03146100f7578063095ea7b31461011557806318160ddd14610145575b5f5ffd5b6100ff61034d565b60405161010c91906118c1565b60405180910390f35b61012f600480360381019061012a9190611972565b6103e5565b60405161013c91906119ca565b60405180910390f35b61014d610460565b60405161015a91906119f2565b60405180910390f35b61017d60048036038101906101789190611a0b565b610472565b60405161018a91906119ca565b60405180910390f35b61019b6104ef565b6040516101a89190611a76565b60405180910390f35b6101b961050d565b6040516101c69190611aa7565b60405180910390f35b6101e960048036038101906101e49190611972565b61051b565b6040516101f691906119ca565b60405180910390f35b61021960048036038101906102149190611ac0565b610531565b60405161022691906119f2565b60405180910390f35b61024960048036038101906102449190611ac0565b610580565b60405161025691906119f2565b60405180910390f35b6102676105ce565b60405161027a9796959493929190611beb565b60405180910390f35b61028b610673565b60405161029891906118c1565b60405180910390f35b6102bb60048036038101906102b69190611972565b61070c565b6040516102c891906119ca565b60405180910390f35b6102eb60048036038101906102e69190611972565b610722565b6040516102f891906119ca565b60405180910390f35b61031b60048036038101906103169190611cc1565b61079d565b005b61033760048036038101906103329190611d5e565b6108e2565b60405161034491906119f2565b60405180910390f35b606061035761096d565b5f01805461036490611dc9565b80601f016020809104026020016040519081016040528092919081815260200182805461039090611dc9565b80156103db5780601f106103b2576101008083540402835291602001916103db565b820191905f5260205f20905b8154815290600101906020018083116103be57829003601f168201915b5050505050905090565b5f6103f1338484610a74565b8273ffffffffffffffffffffffffffffffffffffffff163373ffffffffffffffffffffffffffffffffffffffff167f8c5be1e5ebec7d5bd14f71427d1e84f3dd0314c0f7b2291e5b200ac8c7c3b9258460405161044e91906119f2565b60405180910390a36001905092915050565b5f61046961096d565b60030154905090565b5f61047f33858585610bdf565b8273ffffffffffffffffffffffffffffffffffffffff168473ffffffffffffffffffffffffffffffffffffffff167fddf252ad1be2c89b69c2b068fc378daa952ba7f163c4a11628f55a4df523b3ef846040516104dc91906119f2565b60405180910390a3600190509392505050565b5f6104f861096d565b6002015f9054906101000a900460ff16905090565b5f610516610bfe565b905090565b5f610527338484610c93565b6001905092915050565b5f61053a61096d565b6004015f8373ffffffffffffffffffffffffffffffffffffffff1673ffffffffffffffffffffffffffffffffffffffff1681526020019081526020015f20549050919050565b5f610589610d2f565b5f015f8373ffffffffffffffffffffffffffffffffffffffff1673ffffffffffffffffffffffffffffffffffffffff1681526020019081526020015f20549050919050565b5f6060805f5f5f60606105df610e36565b6105e7610e65565b46305f5f1b5f67ffffffffffffffff81111561060657610605611df9565b5b6040519080825280602002602001820160405280156106345781602001602082028036833780820191505090505b507f0f00000000000000000000000000000000000000000000000000000000000000959493929190965096509650965096509650965090919293949596565b606061067d61096d565b600101805461068b90611dc9565b80601f01602080910402602001604051908101604052809291908181526020018280546106b790611dc9565b80156107025780601f106106d957610100808354040283529160200191610702565b820191905f5260205f20905b8154815290600101906020018083116106e557829003601f168201915b5050505050905090565b5f610718338484610e94565b6001905092915050565b5f61072e338484610f30565b8273ffffffffffffffffffffffffffffffffffffffff163373ffffffffffffffffffffffffffffffffffffffff167fddf252ad1be2c89b69c2b068fc378daa952ba7f163c4a11628f55a4df523b3ef8460405161078b91906119f2565b60405180910390a36001905092915050565b834211156107e257836040517f627913020000000000000000000000000000000000000000000000000000000081526004016107d991906119f2565b60405180910390fd5b5f7f6e71edae12b1b97f4d1f60370fef10105fa2faae0126114a169c64845d6126c98888886108108c610fb9565b8960405160200161082696959493929190611e26565b6040516020818303038152906040528051906020012090505f61084882611014565b90505f6108578287878761102d565b90508973ffffffffffffffffffffffffffffffffffffffff168173ffffffffffffffffffffffffffffffffffffffff16146108cb57808a6040517f4b800e460000000000000000000000000000000000000000000000000000000081526004016108c2929190611e85565b60405180910390fd5b6108d68a8a8a610a74565b50505050505050505050565b5f6108eb61096d565b6005015f8473ffffffffffffffffffffffffffffffffffffffff1673ffffffffffffffffffffffffffffffffffffffff1681526020019081526020015f205f8373ffffffffffffffffffffffffffffffffffffffff1673ffffffffffffffffffffffffffffffffffffffff1681526020019081526020015f2054905092915050565b5f610a6f7f942e8b22000000000000000000000000000000000000000000000000000000007bffffffffffffffffffffffffffffffffffffffffffffffffffffffff191660016040518060400160405260098152806020017f45524332305265706f00000000000000000000000000000000000000000000008152506040516020016109f991906118c1565b60405160208183030381529060405280519060200120604051602001610a1f9190611aa7565b604051602081830303815290604052805190602001205f1c610a419190611ed9565b5f1b604051602001610a54929190611f0c565b6040516020818303038152906040528051906020012061105b565b905090565b5f73ffffffffffffffffffffffffffffffffffffffff168373ffffffffffffffffffffffffffffffffffffffff1603610ae457826040517fec442f05000000000000000000000000000000000000000000000000000000008152600401610adb9190611f33565b60405180910390fd5b5f73ffffffffffffffffffffffffffffffffffffffff168273ffffffffffffffffffffffffffffffffffffffff1603610b5457816040517fec442f05000000000000000000000000000000000000000000000000000000008152600401610b4b9190611f33565b60405180910390fd5b80610b5d61096d565b6005015f8573ffffffffffffffffffffffffffffffffffffffff1673ffffffffffffffffffffffffffffffffffffffff1681526020019081526020015f205f8473ffffffffffffffffffffffffffffffffffffffff1673ffffffffffffffffffffffffffffffffffffffff1681526020019081526020015f2081905550505050565b8281610beb8282611064565b610bf6858585610f30565b505050505050565b5f610c076110fe565b6002015f9054906101000a900473ffffffffffffffffffffffffffffffffffffffff1673ffffffffffffffffffffffffffffffffffffffff163073ffffffffffffffffffffffffffffffffffffffff16148015610c6e5750610c676110fe565b6001015446145b15610c8557610c7b6110fe565b5f01549050610c90565b610c8d611205565b90505b90565b610d2a838383610ca161096d565b6005015f8873ffffffffffffffffffffffffffffffffffffffff1673ffffffffffffffffffffffffffffffffffffffff1681526020019081526020015f205f8773ffffffffffffffffffffffffffffffffffffffff1673ffffffffffffffffffffffffffffffffffffffff1681526020019081526020015f2054610d259190611f4c565b610a74565b505050565b5f610e317f9d8ff7da000000000000000000000000000000000000000000000000000000007bffffffffffffffffffffffffffffffffffffffffffffffffffffffff1916600160405180604001604052600b8152806020017f455243323631325265706f000000000000000000000000000000000000000000815250604051602001610dbb91906118c1565b60405160208183030381529060405280519060200120604051602001610de19190611aa7565b604051602081830303815290604052805190602001205f1c610e039190611ed9565b5f1b604051602001610e16929190611f0c565b60405160208183030381529060405280519060200120611270565b905090565b6060610e60610e436110fe565b600701610e4e6110fe565b6005015461127990919063ffffffff16565b905090565b6060610e8f610e726110fe565b600801610e7d6110fe565b6006015461127990919063ffffffff16565b905090565b610f2b838383610ea261096d565b6005015f8873ffffffffffffffffffffffffffffffffffffffff1673ffffffffffffffffffffffffffffffffffffffff1681526020019081526020015f205f8773ffffffffffffffffffffffffffffffffffffffff1673ffffffffffffffffffffffffffffffffffffffff1681526020019081526020015f2054610f269190611ed9565b610a74565b505050565b5f73ffffffffffffffffffffffffffffffffffffffff163373ffffffffffffffffffffffffffffffffffffffff1603610fa057336040517f94280d62000000000000000000000000000000000000000000000000000000008152600401610f979190611f33565b60405180910390fd5b610faa8382611326565b610fb48282611414565b505050565b5f610fc2610d2f565b5f015f8373ffffffffffffffffffffffffffffffffffffffff1673ffffffffffffffffffffffffffffffffffffffff1681526020019081526020015f205f815480929190600101919050559050919050565b5f611026611020610bfe565b83611474565b9050919050565b5f5f5f5f61103d888888886114b4565b92509250925061104d828261159b565b829350505050949350505050565b5f819050919050565b3373ffffffffffffffffffffffffffffffffffffffff168273ffffffffffffffffffffffffffffffffffffffff16146110fa575f6110a283336116fd565b9050818110156110ed578281836040517ffb8f41b20000000000000000000000000000000000000000000000000000000081526004016110e493929190611f7f565b60405180910390fd5b6110f8833384610e94565b505b5050565b5f6112007f84b0196e000000000000000000000000000000000000000000000000000000007bffffffffffffffffffffffffffffffffffffffffffffffffffffffff1916600160405180604001604052600a8152806020017f4549503731325265706f0000000000000000000000000000000000000000000081525060405160200161118a91906118c1565b604051602081830303815290604052805190602001206040516020016111b09190611aa7565b604051602081830303815290604052805190602001205f1c6111d29190611ed9565b5f1b6040516020016111e5929190611f0c565b60405160208183030381529060405280519060200120611788565b905090565b5f7f8b73c3c69bb8fe3d512ecc4cf759cc79239f7b179b0ffacaa9a75d522b39400f61122f6110fe565b6003015461123b6110fe565b600401544630604051602001611255959493929190611fb4565b60405160208183030381529060405280519060200120905090565b5f819050919050565b606060ff5f1b83146112955761128e83611791565b9050611320565b8180546112a190611dc9565b80601f01602080910402602001604051908101604052809291908181526020018280546112cd90611dc9565b80156113185780601f106112ef57610100808354040283529160200191611318565b820191905f5260205f20905b8154815290600101906020018083116112fb57829003601f168201915b505050505090505b92915050565b5f61132f61096d565b6004015f8473ffffffffffffffffffffffffffffffffffffffff1673ffffffffffffffffffffffffffffffffffffffff1681526020019081526020015f20549050818110156113b9578281836040517fe450d38c0000000000000000000000000000000000000000000000000000000081526004016113b093929190611f7f565b60405180910390fd5b81816113c59190611ed9565b6113cd61096d565b6004015f8573ffffffffffffffffffffffffffffffffffffffff1673ffffffffffffffffffffffffffffffffffffffff1681526020019081526020015f2081905550505050565b8061141d61096d565b6004015f8473ffffffffffffffffffffffffffffffffffffffff1673ffffffffffffffffffffffffffffffffffffffff1681526020019081526020015f205f8282546114699190611f4c565b925050819055505050565b5f6040517f190100000000000000000000000000000000000000000000000000000000000081528360028201528260228201526042812091505092915050565b5f5f5f7f7fffffffffffffffffffffffffffffff5d576e7357a4501ddfe92f46681b20a0845f1c11156114f0575f600385925092509250611591565b5f6001888888886040515f81526020016040526040516115139493929190612005565b6020604051602081039080840390855afa158015611533573d5f5f3e3d5ffd5b5050506020604051035190505f73ffffffffffffffffffffffffffffffffffffffff168173ffffffffffffffffffffffffffffffffffffffff1603611584575f60015f5f1b93509350935050611591565b805f5f5f1b935093509350505b9450945094915050565b5f60038111156115ae576115ad612048565b5b8260038111156115c1576115c0612048565b5b03156116f957600160038111156115db576115da612048565b5b8260038111156115ee576115ed612048565b5b03611625576040517ff645eedf00000000000000000000000000000000000000000000000000000000815260040160405180910390fd5b6002600381111561163957611638612048565b5b82600381111561164c5761164b612048565b5b0361169057805f1c6040517ffce698f700000000000000000000000000000000000000000000000000000000815260040161168791906119f2565b60405180910390fd5b6003808111156116a3576116a2612048565b5b8260038111156116b6576116b5612048565b5b036116f857806040517fd78bce0c0000000000000000000000000000000000000000000000000000000081526004016116ef9190611aa7565b60405180910390fd5b5b5050565b5f61170661096d565b6005015f8473ffffffffffffffffffffffffffffffffffffffff1673ffffffffffffffffffffffffffffffffffffffff1681526020019081526020015f205f8373ffffffffffffffffffffffffffffffffffffffff1673ffffffffffffffffffffffffffffffffffffffff1681526020019081526020015f2054905092915050565b5f819050919050565b60605f61179d83611803565b90505f602067ffffffffffffffff8111156117bb576117ba611df9565b5b6040519080825280601f01601f1916602001820160405280156117ed5781602001600182028036833780820191505090505b5090508181528360208201528092505050919050565b5f5f60ff835f1c169050601f811115611848576040517fb3512b0c00000000000000000000000000000000000000000000000000000000815260040160405180910390fd5b80915050919050565b5f81519050919050565b5f82825260208201905092915050565b8281835e5f83830152505050565b5f601f19601f8301169050919050565b5f61189382611851565b61189d818561185b565b93506118ad81856020860161186b565b6118b681611879565b840191505092915050565b5f6020820190508181035f8301526118d98184611889565b905092915050565b5f5ffd5b5f73ffffffffffffffffffffffffffffffffffffffff82169050919050565b5f61190e826118e5565b9050919050565b61191e81611904565b8114611928575f5ffd5b50565b5f8135905061193981611915565b92915050565b5f819050919050565b6119518161193f565b811461195b575f5ffd5b50565b5f8135905061196c81611948565b92915050565b5f5f60408385031215611988576119876118e1565b5b5f6119958582860161192b565b92505060206119a68582860161195e565b9150509250929050565b5f8115159050919050565b6119c4816119b0565b82525050565b5f6020820190506119dd5f8301846119bb565b92915050565b6119ec8161193f565b82525050565b5f602082019050611a055f8301846119e3565b92915050565b5f5f5f60608486031215611a2257611a216118e1565b5b5f611a2f8682870161192b565b9350506020611a408682870161192b565b9250506040611a518682870161195e565b9150509250925092565b5f60ff82169050919050565b611a7081611a5b565b82525050565b5f602082019050611a895f830184611a67565b92915050565b5f819050919050565b611aa181611a8f565b82525050565b5f602082019050611aba5f830184611a98565b92915050565b5f60208284031215611ad557611ad46118e1565b5b5f611ae28482850161192b565b91505092915050565b5f7fff0000000000000000000000000000000000000000000000000000000000000082169050919050565b611b1f81611aeb565b82525050565b611b2e81611904565b82525050565b5f81519050919050565b5f82825260208201905092915050565b5f819050602082019050919050565b611b668161193f565b82525050565b5f611b778383611b5d565b60208301905092915050565b5f602082019050919050565b5f611b9982611b34565b611ba38185611b3e565b9350611bae83611b4e565b805f5b83811015611bde578151611bc58882611b6c565b9750611bd083611b83565b925050600181019050611bb1565b5085935050505092915050565b5f60e082019050611bfe5f83018a611b16565b8181036020830152611c108189611889565b90508181036040830152611c248188611889565b9050611c3360608301876119e3565b611c406080830186611b25565b611c4d60a0830185611a98565b81810360c0830152611c5f8184611b8f565b905098975050505050505050565b611c7681611a5b565b8114611c80575f5ffd5b50565b5f81359050611c9181611c6d565b92915050565b611ca081611a8f565b8114611caa575f5ffd5b50565b5f81359050611cbb81611c97565b92915050565b5f5f5f5f5f5f5f60e0888a031215611cdc57611cdb6118e1565b5b5f611ce98a828b0161192b565b9750506020611cfa8a828b0161192b565b9650506040611d0b8a828b0161195e565b9550506060611d1c8a828b0161195e565b9450506080611d2d8a828b01611c83565b93505060a0611d3e8a828b01611cad565b92505060c0611d4f8a828b01611cad565b91505092959891949750929550565b5f5f60408385031215611d7457611d736118e1565b5b5f611d818582860161192b565b9250506020611d928582860161192b565b9150509250929050565b7f4e487b71000000000000000000000000000000000000000000000000000000005f52602260045260245ffd5b5f6002820490506001821680611de057607f821691505b602082108103611df357611df2611d9c565b5b50919050565b7f4e487b71000000000000000000000000000000000000000000000000000000005f52604160045260245ffd5b5f60c082019050611e395f830189611a98565b611e466020830188611b25565b611e536040830187611b25565b611e6060608301866119e3565b611e6d60808301856119e3565b611e7a60a08301846119e3565b979650505050505050565b5f604082019050611e985f830185611b25565b611ea56020830184611b25565b9392505050565b7f4e487b71000000000000000000000000000000000000000000000000000000005f52601160045260245ffd5b5f611ee38261193f565b9150611eee8361193f565b9250828203905081811115611f0657611f05611eac565b5b92915050565b5f604082019050611f1f5f830185611a98565b611f2c6020830184611a98565b9392505050565b5f602082019050611f465f830184611b25565b92915050565b5f611f568261193f565b9150611f618361193f565b9250828201905080821115611f7957611f78611eac565b5b92915050565b5f606082019050611f925f830186611b25565b611f9f60208301856119e3565b611fac60408301846119e3565b949350505050565b5f60a082019050611fc75f830188611a98565b611fd46020830187611a98565b611fe16040830186611a98565b611fee60608301856119e3565b611ffb6080830184611b25565b9695505050505050565b5f6080820190506120185f830187611a98565b6120256020830186611a67565b6120326040830185611a98565b61203f6060830184611a98565b95945050505050565b7f4e487b71000000000000000000000000000000000000000000000000000000005f52602160045260245ffdfea26469706673582212205068f5cdec9e4ef56f4809b80413dccd7413916408362b030f0edf72b114aa6664736f6c634300081c0033","linkReferences":{}},"methodIdentifiers":{"DOMAIN_SEPARATOR()":"3644e515","allowance(address,address)":"dd62ed3e","approve(address,uint256)":"095ea7b3","balanceOf(address)":"70a08231","decimals()":"313ce567","decreaseAllowance(address,uint256)":"a457c2d7","eip712Domain()":"84b0196e","increaseAllowance(address,uint256)":"39509351","name()":"06fdde03","nonces(address)":"7ecebe00","permit(address,address,uint256,uint256,uint8,bytes32,bytes32)":"d505accf","symbol()":"95d89b41","totalSupply()":"18160ddd","transfer(address,uint256)":"a9059cbb","transferFrom(address,address,uint256)":"23b872dd"},"id":48}