{"abi":[{"type":"constructor","inputs":[{"name":"_token0","type":"address","internalType":"address"},{"name":"_token1","type":"address","internalType":"address"},{"name":"fee_","type":"uint24","internalType":"uint24"},{"name":"tickSpacing_","type":"int24","internalType":"int24"}],"stateMutability":"nonpayable"},{"type":"function","name":"addLiquidity","inputs":[{"name":"tickLower","type":"int24","internalType":"int24"},{"name":"tickUpper","type":"int24","internalType":"int24"},{"name":"amount","type":"uint128","internalType":"uint128"}],"outputs":[],"stateMutability":"nonpayable"},{"type":"function","name":"burn","inputs":[{"name":"","type":"int24","internalType":"int24"},{"name":"","type":"int24","internalType":"int24"},{"name":"","type":"uint128","internalType":"uint128"},{"name":"","type":"address","internalType":"address"}],"outputs":[{"name":"","type":"uint256","internalType":"uint256"},{"name":"","type":"uint256","internalType":"uint256"}],"stateMutability":"pure"},{"type":"function","name":"burn","inputs":[{"name":"","type":"int24","internalType":"int24"},{"name":"","type":"int24","internalType":"int24"},{"name":"","type":"uint128","internalType":"uint128"}],"outputs":[{"name":"","type":"uint256","internalType":"uint256"},{"name":"","type":"uint256","internalType":"uint256"}],"stateMutability":"pure"},{"type":"function","name":"collect","inputs":[{"name":"","type":"address","internalType":"address"},{"name":"","type":"int24","internalType":"int24"},{"name":"","type":"int24","internalType":"int24"},{"name":"","type":"uint128","internalType":"uint128"},{"name":"","type":"uint128","internalType":"uint128"},{"name":"","type":"address","internalType":"address"}],"outputs":[{"name":"","type":"uint128","internalType":"uint128"},{"name":"","type":"uint128","internalType":"uint128"}],"stateMutability":"pure"},{"type":"function","name":"collect","inputs":[{"name":"","type":"address","internalType":"address"},{"name":"","type":"int24","internalType":"int24"},{"name":"","type":"int24","internalType":"int24"},{"name":"","type":"uint128","internalType":"uint128"},{"name":"","type":"uint128","internalType":"uint128"}],"outputs":[{"name":"","type":"uint128","internalType":"uint128"},{"name":"","type":"uint128","internalType":"uint128"}],"stateMutability":"pure"},{"type":"function","name":"collectFees","inputs":[],"outputs":[{"name":"","type":"uint128","internalType":"uint128"},{"name":"","type":"uint128","internalType":"uint128"}],"stateMutability":"pure"},{"type":"function","name":"factory","inputs":[],"outputs":[{"name":"","type":"address","internalType":"address"}],"stateMutability":"view"},{"type":"function","name":"factoryRegistry","inputs":[],"outputs":[{"name":"","type":"address","internalType":"address"}],"stateMutability":"pure"},{"type":"function","name":"fee","inputs":[],"outputs":[{"name":"","type":"uint24","internalType":"uint24"}],"stateMutability":"view"},{"type":"function","name":"feeGrowthGlobal0X128","inputs":[],"outputs":[{"name":"","type":"uint256","internalType":"uint256"}],"stateMutability":"view"},{"type":"function","name":"feeGrowthGlobal1X128","inputs":[],"outputs":[{"name":"","type":"uint256","internalType":"uint256"}],"stateMutability":"view"},{"type":"function","name":"flash","inputs":[{"name":"","type":"address","internalType":"address"},{"name":"","type":"uint256","internalType":"uint256"},{"name":"","type":"uint256","internalType":"uint256"},{"name":"","type":"bytes","internalType":"bytes"}],"outputs":[],"stateMutability":"pure"},{"type":"function","name":"gauge","inputs":[],"outputs":[{"name":"","type":"address","internalType":"address"}],"stateMutability":"pure"},{"type":"function","name":"gaugeFees","inputs":[],"outputs":[{"name":"","type":"uint128","internalType":"uint128"},{"name":"","type":"uint128","internalType":"uint128"}],"stateMutability":"pure"},{"type":"function","name":"getRewardGrowthInside","inputs":[{"name":"","type":"int24","internalType":"int24"},{"name":"","type":"int24","internalType":"int24"},{"name":"","type":"uint256","internalType":"uint256"}],"outputs":[{"name":"","type":"uint256","internalType":"uint256"}],"stateMutability":"pure"},{"type":"function","name":"increaseObservationCardinalityNext","inputs":[{"name":"","type":"uint16","internalType":"uint16"}],"outputs":[],"stateMutability":"pure"},{"type":"function","name":"initialize","inputs":[{"name":"","type":"address","internalType":"address"},{"name":"","type":"address","internalType":"address"},{"name":"","type":"address","internalType":"address"},{"name":"","type":"int24","internalType":"int24"},{"name":"","type":"address","internalType":"address"},{"name":"sqrtPriceX96_","type":"uint160","internalType":"uint160"}],"outputs":[],"stateMutability":"nonpayable"},{"type":"function","name":"initialize","inputs":[{"name":"sqrtPriceX96_","type":"uint160","internalType":"uint160"}],"outputs":[],"stateMutability":"nonpayable"},{"type":"function","name":"lastUpdated","inputs":[],"outputs":[{"name":"","type":"uint32","internalType":"uint32"}],"stateMutability":"pure"},{"type":"function","name":"liquidity","inputs":[],"outputs":[{"name":"","type":"uint128","internalType":"uint128"}],"stateMutability":"view"},{"type":"function","name":"maxLiquidityPerTick","inputs":[],"outputs":[{"name":"","type":"uint128","internalType":"uint128"}],"stateMutability":"pure"},{"type":"function","name":"mint","inputs":[{"name":"","type":"address","internalType":"address"},{"name":"","type":"int24","internalType":"int24"},{"name":"","type":"int24","internalType":"int24"},{"name":"","type":"uint128","internalType":"uint128"},{"name":"","type":"bytes","internalType":"bytes"}],"outputs":[{"name":"","type":"uint256","internalType":"uint256"},{"name":"","type":"uint256","internalType":"uint256"}],"stateMutability":"pure"},{"type":"function","name":"nft","inputs":[],"outputs":[{"name":"","type":"address","internalType":"address"}],"stateMutability":"pure"},{"type":"function","name":"observations","inputs":[{"name":"","type":"uint256","internalType":"uint256"}],"outputs":[{"name":"","type":"uint32","internalType":"uint32"},{"name":"","type":"int56","internalType":"int56"},{"name":"","type":"uint160","internalType":"uint160"},{"name":"","type":"bool","internalType":"bool"}],"stateMutability":"pure"},{"type":"function","name":"observe","inputs":[{"name":"","type":"uint32[]","internalType":"uint32[]"}],"outputs":[{"name":"","type":"int56[]","internalType":"int56[]"},{"name":"","type":"uint160[]","internalType":"uint160[]"}],"stateMutability":"pure"},{"type":"function","name":"periodFinish","inputs":[],"outputs":[{"name":"","type":"uint256","internalType":"uint256"}],"stateMutability":"pure"},{"type":"function","name":"positions","inputs":[{"name":"","type":"bytes32","internalType":"bytes32"}],"outputs":[{"name":"","type":"uint128","internalType":"uint128"},{"name":"","type":"uint256","internalType":"uint256"},{"name":"","type":"uint256","internalType":"uint256"},{"name":"","type":"uint128","internalType":"uint128"},{"name":"","type":"uint128","internalType":"uint128"}],"stateMutability":"pure"},{"type":"function","name":"rewardGrowthGlobalX128","inputs":[],"outputs":[{"name":"","type":"uint256","internalType":"uint256"}],"stateMutability":"view"},{"type":"function","name":"rewardRate","inputs":[],"outputs":[{"name":"","type":"uint256","internalType":"uint256"}],"stateMutability":"pure"},{"type":"function","name":"rewardReserve","inputs":[],"outputs":[{"name":"","type":"uint256","internalType":"uint256"}],"stateMutability":"pure"},{"type":"function","name":"rollover","inputs":[],"outputs":[{"name":"","type":"uint256","internalType":"uint256"}],"stateMutability":"pure"},{"type":"function","name":"setGaugeAndPositionManager","inputs":[{"name":"","type":"address","internalType":"address"},{"name":"","type":"address","internalType":"address"}],"outputs":[],"stateMutability":"pure"},{"type":"function","name":"setState","inputs":[{"name":"sqrtPriceX96_","type":"uint160","internalType":"uint160"},{"name":"tick_","type":"int24","internalType":"int24"},{"name":"liquidity_","type":"uint128","internalType":"uint128"}],"outputs":[],"stateMutability":"nonpayable"},{"type":"function","name":"setUnstakedFee","inputs":[{"name":"unstakedFee_","type":"uint24","internalType":"uint24"}],"outputs":[],"stateMutability":"nonpayable"},{"type":"function","name":"slot0","inputs":[],"outputs":[{"name":"sqrtPriceX96","type":"uint160","internalType":"uint160"},{"name":"tick","type":"int24","internalType":"int24"},{"name":"observationIndex","type":"uint16","internalType":"uint16"},{"name":"observationCardinality","type":"uint16","internalType":"uint16"},{"name":"observationCardinalityNext","type":"uint16","internalType":"uint16"},{"name":"unlocked","type":"bool","internalType":"bool"}],"stateMutability":"view"},{"type":"function","name":"snapshotCumulativesInside","inputs":[{"name":"","type":"int24","internalType":"int24"},{"name":"","type":"int24","internalType":"int24"}],"outputs":[{"name":"","type":"int56","internalType":"int56"},{"name":"","type":"uint160","internalType":"uint160"},{"name":"","type":"uint32","internalType":"uint32"}],"stateMutability":"pure"},{"type":"function","name":"stake","inputs":[{"name":"","type":"int128","internalType":"int128"},{"name":"","type":"int24","internalType":"int24"},{"name":"","type":"int24","internalType":"int24"},{"name":"","type":"bool","internalType":"bool"}],"outputs":[],"stateMutability":"pure"},{"type":"function","name":"stakedLiquidity","inputs":[],"outputs":[{"name":"","type":"uint128","internalType":"uint128"}],"stateMutability":"view"},{"type":"function","name":"swap","inputs":[{"name":"","type":"address","internalType":"address"},{"name":"zeroForOne","type":"bool","internalType":"bool"},{"name":"amountSpecified","type":"int256","internalType":"int256"},{"name":"sqrtPriceLimitX96","type":"uint160","internalType":"uint160"},{"name":"","type":"bytes","internalType":"bytes"}],"outputs":[{"name":"amount0","type":"int256","internalType":"int256"},{"name":"amount1","type":"int256","internalType":"int256"}],"stateMutability":"nonpayable"},{"type":"function","name":"syncReward","inputs":[{"name":"","type":"uint256","internalType":"uint256"},{"name":"","type":"uint256","internalType":"uint256"},{"name":"","type":"uint256","internalType":"uint256"}],"outputs":[],"stateMutability":"pure"},{"type":"function","name":"tickBitmap","inputs":[{"name":"wordPosition","type":"int16","internalType":"int16"}],"outputs":[{"name":"","type":"uint256","internalType":"uint256"}],"stateMutability":"view"},{"type":"function","name":"tickSpacing","inputs":[],"outputs":[{"name":"","type":"int24","internalType":"int24"}],"stateMutability":"view"},{"type":"function","name":"ticks","inputs":[{"name":"tick","type":"int24","internalType":"int24"}],"outputs":[{"name":"liquidityGross","type":"uint128","internalType":"uint128"},{"name":"liquidityNet","type":"int128","internalType":"int128"},{"name":"stakedLiquidityNet","type":"int128","internalType":"int128"},{"name":"feeGrowthOutside0X128","type":"uint256","internalType":"uint256"},{"name":"feeGrowthOutside1X128","type":"uint256","internalType":"uint256"},{"name":"rewardGrowthOutsideX128","type":"uint256","internalType":"uint256"},{"name":"tickCumulativeOutside","type":"int56","internalType":"int56"},{"name":"secondsPerLiquidityOutsideX128","type":"uint160","internalType":"uint160"},{"name":"secondsOutside","type":"uint32","internalType":"uint32"},{"name":"initialized","type":"bool","internalType":"bool"}],"stateMutability":"view"},{"type":"function","name":"token0","inputs":[],"outputs":[{"name":"","type":"address","internalType":"address"}],"stateMutability":"view"},{"type":"function","name":"token1","inputs":[],"outputs":[{"name":"","type":"address","internalType":"address"}],"stateMutability":"view"},{"type":"function","name":"unstakedFee","inputs":[],"outputs":[{"name":"","type":"uint24","internalType":"uint24"}],"stateMutability":"view"},{"type":"function","name":"updateRewardsGrowthGlobal","inputs":[],"outputs":[],"stateMutability":"pure"}],"bytecode":{"object":"0x608060405234801561000f575f5ffd5b506040516126db3803806126db83398101604081905261002e916100c7565b5f80546001600160a01b039586166001600160a01b0319918216179091556001805462ffffff938416600160d01b0262ffffff60d01b1994909516600160a01b026001600160b81b0319909116959096169490941794909417161790556002805490911690556003805460ff60e81b1916600160e81b17905561012a565b80516001600160a01b03811681146100c2575f5ffd5b919050565b5f5f5f5f608085870312156100da575f5ffd5b6100e3856100ac565b93506100f1602086016100ac565b9250604085015162ffffff81168114610108575f5ffd5b8092505060608501518060020b811461011f575f5ffd5b939692955090935050565b6125a4806101375f395ff3fe608060405234801561000f575f5ffd5b5060043610610223575f3560e01c80630dfe168114610227578063128acb08146102565780631a6865021461027e5780631b410960146102a35780631f7c3568146102a55780632071d884146102b7578063252c09d7146102ca578063293833ba1461031d5780632b85b7301461034057806331338374146103a457806332148f67146103bf5780633850c7bd146103d05780633ab04b201461043d5780633bf0c9fb146104555780633c8a7d8d1461045b578063461413191461046e57806347ccca0214610455578063490e6cbc146104855780634ed6210f146104985780634f1eb3d8146104a6578063514ea4bf146104c05780635339c2961461051157806357806ada1461053357806360a73f9b1461053c5780636f89244c1461054f57806370cf754a146105685780637b0a47ee14610570578063883bdbfd146105765780638969796914610597578063a16368c9146105aa578063a34123a7146105bd578063a38807f2146105d5578063a6f19c8414610455578063b056b49a14610570578063b64cc67b1461061b578063c45a01551461063f578063c87965721461031d578063cab64bcd14610570578063d0b06f5d14610652578063d0c93a7c14610660578063d21220a714610687578063ddca3f431461069a578063ebe2b12b14610570578063f3058399146106ae578063f30dba93146106b7578063f637731d146107b3578063fd08216c146107c6575b5f5ffd5b5f54610239906001600160a01b031681565b6040516001600160a01b0390911681526020015b60405180910390f35b610269610264366004611cb5565b6107f8565b6040805192835260208301919091520161024d565b6004546001600160801b03165b6040516001600160801b03909116815260200161024d565b005b6102a36102b3366004611d32565b5050565b6102a36102c5366004611d7a565b610927565b6102e36102d8366004611df6565b5f8080809193509193565b6040805163ffffffff909516855260069390930b60208501526001600160a01b03909116918301919091521515606082015260800161024d565b5f805b604080516001600160801b0393841681529290911660208301520161024d565b6102a361034e366004611e23565b6003805462ffffff909316600160a01b026001600160b81b03199093166001600160a01b039094169390931791909117909155600480546001600160801b039092166001600160801b0319909216919091179055565b6103206103b2366004611e65565b5f80965096945050505050565b6102a36103cd366004611ebd565b50565b600354604080516001600160a01b0383168152600160a01b830460020b6020820152600160b81b830461ffff90811692820192909252600160c81b830482166060820152600160d81b83049091166080820152600160e81b90910460ff16151560a082015260c00161024d565b600454600160801b90046001600160801b031661028b565b5f610239565b610269610469366004611ede565b610938565b61047760065481565b60405190815260200161024d565b6102a3610493366004611f28565b610980565b6102a3610493366004611f8c565b6103206104b4366004611fe4565b5f809550959350505050565b6104db6104ce366004611df6565b505f908190819081908190565b604080516001600160801b039687168152602081019590955284019290925283166060830152909116608082015260a00161024d565b61047761051f366004612047565b60010b5f9081526009602052604090205490565b61047760075481565b6102a361054a366004612067565b505050565b61026961055d366004612090565b5f8094509492505050565b61028b6109ba565b5f610477565b6105896105843660046120e3565b6109d2565b60405161024d929190612152565b6102a36105a53660046121de565b6109f0565b6104776105b83660046121f9565b610b2c565b6102696105cb3660046121de565b5f80935093915050565b6105ed6105e3366004612233565b5f80809250925092565b6040805160069490940b84526001600160a01b03909216602084015263ffffffff169082015260600161024d565b600154600160b81b900462ffffff165b60405162ffffff909116815260200161024d565b600254610239906001600160a01b031681565b6040515f815260200161024d565b60015461067490600160d01b900460020b81565b60405160029190910b815260200161024d565b600154610239906001600160a01b031681565b600154600160a01b900462ffffff1661062b565b61047760055481565b6107456106c5366004612264565b600290810b5f9081526008602052604090208054600182015492820154600383015460048401546005909401546001600160801b03841696600160801b909404600f90810b96900b949293919291600682900b91600160381b81046001600160a01b031691600160d81b820463ffffffff1691600160f81b900460ff1690565b604080516001600160801b03909b168b52600f998a0b60208c01529790980b968901969096526060880194909452608087019290925260a086015260060b60c08501526001600160a01b031660e084015263ffffffff1661010083015215156101208201526101400161024d565b6102a36107c136600461227d565b610b35565b6102a36107d4366004612298565b6001805462ffffff909216600160b81b0262ffffff60b81b19909216919091179055565b6003545f9081906001600160a01b0316810361084d5760405162461bcd60e51b815260206004820152600f60248201526e139bdd081a5b9a5d1a585b1a5e9959608a1b60448201526064015b60405180910390fd5b6003546004546001545f9283928392839261088d926001600160a01b03909116918c916001600160801b0316908e90600160a01b900462ffffff16610b3e565b600380546001600160a01b0319166001600160a01b038616179055929650909450925090506108bb84610d53565b6003805462ffffff92909216600160a01b0262ffffff60a01b199092169190911790558a15610900576108ee81846122ce565b95506108f9826122e1565b9450610918565b610909826122e1565b955061091581846122ce565b94505b50505050965096945050505050565b61093081611086565b505050505050565b60405162461bcd60e51b8152602060048201526019602482015278557365206164644c697175696469747920666f72206d6f636b60381b60448201525f908190606401610844565b60405162461bcd60e51b815260206004820152600f60248201526e139bdd081a5b5c1b195b595b9d1959608a1b6044820152606401610844565b5f6109cd60026001600160801b0361230f565b905090565b604080515f80825260208201908152818301909252905b9250929050565b8160020b8360020b12610a355760405162461bcd60e51b815260206004820152600d60248201526c496e76616c69642072616e676560981b6044820152606401610844565b620d89e719600284900b12801590610a5f5750610a55620d89e71961233d565b60020b8260020b13155b610a9b5760405162461bcd60e51b815260206004820152600d60248201526c4f7574206f6620626f756e647360981b6044820152606401610844565b610aa783826001611142565b610ab282825f611142565b600354600284810b600160a01b909204900b12801590610ae15750600354600283810b600160a01b909204900b125b1561054a57600480548291905f90610b039084906001600160801b031661235d565b92506101000a8154816001600160801b0302191690836001600160801b03160217905550505050565b5f5b9392505050565b6103cd81611086565b5f8080806001600160a01b03808916908a161015818712801590610bc8575f610b7c89610b6e8a620f424061237c565b62ffffff16620f42406112c2565b905082610b9557610b908c8c8c600161137c565b610ba2565b610ba28b8d8c6001611404565b9550858110610bb3578a9650610bc2565b610bbf8c8b83866114c7565b96505b50610c1a565b81610bde57610bd98b8b8b5f611404565b610bea565b610bea8a8c8b5f61137c565b935083610bf6896122e1565b10610c0357899550610c1a565b610c178b8a610c118b6122e1565b8561150f565b95505b6001600160a01b038a8116908716148215610c7c57808015610c395750815b610c4f57610c4a878d8c6001611404565b610c51565b855b9550808015610c5e575081155b610c7357610c6e878d8c5f61137c565b610c75565b845b9450610cc5565b808015610c865750815b610c9c57610c978c888c600161137c565b610c9e565b855b9550808015610cab575081155b610cc057610cbb8c888c5f611404565b610cc2565b845b94505b81158015610cda5750610cd7896122e1565b85115b15610ceb57610ce8896122e1565b94505b818015610d0a57508a6001600160a01b0316876001600160a01b031614155b15610d2057610d19868a612397565b9350610d44565b610d418662ffffff8a16610d378b620f424061237c565b62ffffff16611555565b93505b50505095509550955095915050565b5f6401000276a36001600160a01b03831610801590610d8e575073fffd8963efd1fc6a506488495d951d5263988d266001600160a01b038316105b610dbe5760405162461bcd60e51b81526020600482015260016024820152602960f91b6044820152606401610844565b600160201b600160c01b03602083901b166001600160801b03811160071b81811c6001600160401b03811160061b90811c63ffffffff811160051b90811c61ffff811160041b90811c60ff8111600390811b91821c600f811160021b90811c918211600190811b92831c97908811961790941790921717909117171760808110610e5757610e4d607f82612397565b83901c9150610e68565b610e6281607f612397565b83901b91505b5f6040610e766080846123aa565b901b9050828302607f1c92508260801c80603f1b8217915083811c935050828302607f1c92508260801c80603e1b8217915083811c935050828302607f1c92508260801c80603d1b8217915083811c935050828302607f1c92508260801c80603c1b8217915083811c935050828302607f1c92508260801c80603b1b8217915083811c935050828302607f1c92508260801c80603a1b8217915083811c935050828302607f1c92508260801c8060391b8217915083811c935050828302607f1c92508260801c8060381b8217915083811c935050828302607f1c92508260801c8060371b8217915083811c935050828302607f1c92508260801c8060361b8217915083811c935050828302607f1c92508260801c8060351b8217915083811c935050828302607f1c92508260801c8060341b8217915083811c935050828302607f1c92508260801c8060331b8217915083811c935050828302607f1c92508260801c8060321b82179150505f81693627a301d71055774c85610ff891906123d0565b90505f60806110176f028f6481ab7f045a5af012a19d003aaa846123aa565b901d90505f6080611038846fdb2df09e81959a81455e260799a0632f6123ff565b901d90508060020b8260020b1461107757886001600160a01b031661105c8261159a565b6001600160a01b031611156110715781611079565b80611079565b815b9998505050505050505050565b6003546001600160a01b0316156110d55760405162461bcd60e51b8152602060048201526013602482015272105b1c9958591e481a5b9a5d1a585b1a5e9959606a1b6044820152606401610844565b600380546001600160a01b0319166001600160a01b0383161790556110f981610d53565b6003805461ffff60d81b1961ffff60c81b1962ffffff94909416600160a01b029390931666ffff0000ffffff60a01b1990911617600160c81b1791909116600160d81b17905550565b600283900b5f9081526008602052604081208054909184918391906111719084906001600160801b031661235d565b92506101000a8154816001600160801b0302191690836001600160801b0316021790555081156111e5578054839082906010906111b9908490600160801b9004600f0b612426565b92506101000a8154816001600160801b030219169083600f0b6001600160801b0316021790555061122b565b805483908290601090611203908490600160801b9004600f0b612453565b92506101000a8154816001600160801b030219169083600f0b6001600160801b031602179055505b6005810154600160f81b900460ff16158015611250575080546001600160801b031615155b1561127a576005810180546001600160f81b0316600160f81b179055611275846119a0565b6112bc565b6005810154600160f81b900460ff16801561129d575080546001600160801b0316155b156112bc576005810180546001600160f81b031690556112bc846119a0565b50505050565b5f80805f19858709858702925082811083820303915050805f036112f6575f84116112eb575f5ffd5b508290049050610b2e565b808411611301575f5ffd5b5f84868809600186198101871696879004965f8181038290049092018684119095038581029684900391909104959095179493919250611342876003612480565b6002908118888102820302808902820302808902820302808902820302808902820302978802900390960293909302979650505050505050565b5f836001600160a01b0316856001600160a01b0316111561139b579293925b816113cf576113ca6001600160801b0384166113b78787612497565b6001600160a01b0316600160601b6112c2565b6113f9565b6113f96001600160801b0384166113e68787612497565b6001600160a01b0316600160601b611555565b90505b949350505050565b5f836001600160a01b0316856001600160a01b03161115611423579293925b600160601b600160e01b03606084901b165f61143f8787612497565b6001600160a01b031690505f876001600160a01b03161161145e575f5ffd5b8361149057866001600160a01b03166114818383896001600160a01b03166112c2565b61148b91906124b6565b6114bc565b6114bc6114a78383896001600160a01b0316611555565b886001600160a01b0316808204910615150190565b979650505050505050565b5f5f856001600160a01b0316116114dc575f5ffd5b5f846001600160801b0316116114f0575f5ffd5b81611502576113ca8585856001611a33565b6113f98585856001611b16565b5f5f856001600160a01b031611611524575f5ffd5b5f846001600160801b031611611538575f5ffd5b81611549576113ca8585855f611b16565b6113f98585855f611a33565b5f6115618484846112c2565b90505f8280611572576115726122fb565b8486091115610b2e575f198110611587575f5ffd5b80611591816124c9565b95945050505050565b5f5f5f8360020b126115af578260020b6115bc565b8260020b6115bc906122e1565b90506115cb620d89e71961233d565b60020b8111156116015760405162461bcd60e51b81526020600482015260016024820152601560fa1b6044820152606401610844565b5f816001165f0361161657600160801b611628565b6ffffcb933bd6fad37aa2d162d1a5940015b6001600160881b03169050600282161561165d576080611658826ffff97272373d413259a46990580e213a612480565b901c90505b6004821615611687576080611682826ffff2e50f5f656932ef12357cf3c7fdcc612480565b901c90505b60088216156116b15760806116ac826fffe5caca7e10e4e61c3624eaa0941cd0612480565b901c90505b60108216156116db5760806116d6826fffcb9843d60f6159c9db58835c926644612480565b901c90505b6020821615611705576080611700826fff973b41fa98c081472e6896dfb254c0612480565b901c90505b604082161561172f57608061172a826fff2ea16466c96a3843ec78b326b52861612480565b901c90505b6080821615611759576080611754826ffe5dee046a99a2a811c461f1969c3053612480565b901c90505b61010082161561178457608061177f826ffcbe86c7900a88aedcffc83b479aa3a4612480565b901c90505b6102008216156117af5760806117aa826ff987a7253ac413176f2b074cf7815e54612480565b901c90505b6104008216156117da5760806117d5826ff3392b0822b70005940c7a398e4b70f3612480565b901c90505b610800821615611805576080611800826fe7159475a2c29b7443b29c7fa6e889d9612480565b901c90505b61100082161561183057608061182b826fd097f3bdfd2022b8845ad8f792aa5825612480565b901c90505b61200082161561185b576080611856826fa9f746462d870fdf8a65dc1f90e061e5612480565b901c90505b614000821615611886576080611881826f70d869a156d2a1b890bb3df62baf32f7612480565b901c90505b6180008216156118b15760806118ac826f31be135f97d08fd981231505542fcfa6612480565b901c90505b620100008216156118dd5760806118d8826f09aa508b5b7a84e1c677de54f3e99bc9612480565b901c90505b62020000821615611908576080611903826e5d6af8dedb81196699c329225ee604612480565b901c90505b6204000082161561193257608061192d826d2216e584f5fa1ea926041bedfe98612480565b901c90505b6208000082161561195a576080611955826b048a170391f7dc42444e8fa2612480565b901c90505b5f8460020b131561197357611970815f196124b6565b90505b611981600160201b826124e1565b1561198d57600161198f565b5f5b6113fc9060ff16602083901c6122ce565b6001545f906119b990600160d01b900460020b836124f4565b90505f8260020b1280156119e557506001546119df90600160d01b900460020b8361252c565b60020b15155b156119f857806119f48161254d565b9150505b600281900b60081d5f611a0d6101008461252c565b600192830b5f908152600960205260409020805460ff9092169390931b18909155505050565b5f8115611aa3575f6001600160a01b03841115611a6757611a6284600160601b876001600160801b03166112c2565b611a7e565b611a7e6001600160801b038616606086901b6124b6565b9050611a9b611a966001600160a01b03881683611c26565b611c3b565b9150506113fc565b5f6001600160a01b03841115611ad057611acb84600160601b876001600160801b0316611555565b611aed565b611aed606085901b6001600160801b038716808204910615150190565b905080866001600160a01b031611611b03575f5ffd5b611a9b816001600160a01b038816612397565b5f825f03611b255750836113fc565b600160601b600160e01b03606085901b168215611bcc575f6001600160a01b03871685611b528282612480565b9250611b5e90836124b6565b03611b97575f611b6e82846122ce565b9050828110611b9557611b8b83896001600160a01b031683611555565b93505050506113fc565b505b611bc382611bb887611bb26001600160a01b038c16846124b6565b90611c26565b808204910615150190565b925050506113fc565b5f6001600160a01b03871685611be28282612480565b9250611bee90836124b6565b148015611bfa57508082115b611c02575f5ffd5b5f611c0d8284612397565b9050611b8b611a96848a6001600160a01b031684611555565b81810182811015611c35575f5ffd5b92915050565b806001600160a01b0381168114611c50575f5ffd5b919050565b6001600160a01b03811681146103cd575f5ffd5b80358015158114611c50575f5ffd5b5f5f83601f840112611c88575f5ffd5b5081356001600160401b03811115611c9e575f5ffd5b6020830191508360208285010111156109e9575f5ffd5b5f5f5f5f5f5f60a08789031215611cca575f5ffd5b8635611cd581611c55565b9550611ce360208801611c69565b9450604087013593506060870135611cfa81611c55565b925060808701356001600160401b03811115611d14575f5ffd5b611d2089828a01611c78565b979a9699509497509295939492505050565b5f5f60408385031215611d43575f5ffd5b8235611d4e81611c55565b91506020830135611d5e81611c55565b809150509250929050565b8035600281900b8114611c50575f5ffd5b5f5f5f5f5f5f60c08789031215611d8f575f5ffd5b8635611d9a81611c55565b95506020870135611daa81611c55565b94506040870135611dba81611c55565b9350611dc860608801611d69565b92506080870135611dd881611c55565b915060a0870135611de881611c55565b809150509295509295509295565b5f60208284031215611e06575f5ffd5b5035919050565b80356001600160801b0381168114611c50575f5ffd5b5f5f5f60608486031215611e35575f5ffd5b8335611e4081611c55565b9250611e4e60208501611d69565b9150611e5c60408501611e0d565b90509250925092565b5f5f5f5f5f5f60c08789031215611e7a575f5ffd5b8635611e8581611c55565b9550611e9360208801611d69565b9450611ea160408801611d69565b9350611eaf60608801611e0d565b9250611dd860808801611e0d565b5f60208284031215611ecd575f5ffd5b813561ffff81168114610b2e575f5ffd5b5f5f5f5f5f5f60a08789031215611ef3575f5ffd5b8635611efe81611c55565b9550611f0c60208801611d69565b9450611f1a60408801611d69565b9350611cfa60608801611e0d565b5f5f5f5f5f60808688031215611f3c575f5ffd5b8535611f4781611c55565b9450602086013593506040860135925060608601356001600160401b03811115611f6f575f5ffd5b611f7b88828901611c78565b969995985093965092949392505050565b5f5f5f5f60808587031215611f9f575f5ffd5b843580600f0b8114611faf575f5ffd5b9350611fbd60208601611d69565b9250611fcb60408601611d69565b9150611fd960608601611c69565b905092959194509250565b5f5f5f5f5f60a08688031215611ff8575f5ffd5b853561200381611c55565b945061201160208701611d69565b935061201f60408701611d69565b925061202d60608701611e0d565b915061203b60808701611e0d565b90509295509295909350565b5f60208284031215612057575f5ffd5b81358060010b8114610b2e575f5ffd5b5f5f5f60608486031215612079575f5ffd5b505081359360208301359350604090920135919050565b5f5f5f5f608085870312156120a3575f5ffd5b6120ac85611d69565b93506120ba60208601611d69565b92506120c860408601611e0d565b915060608501356120d881611c55565b939692955090935050565b5f5f602083850312156120f4575f5ffd5b82356001600160401b03811115612109575f5ffd5b8301601f81018513612119575f5ffd5b80356001600160401b0381111561212e575f5ffd5b8560208260051b8401011115612142575f5ffd5b6020919091019590945092505050565b604080825283519082018190525f9060208501906060840190835b8181101561218e57835160060b83526020938401939092019160010161216d565b5050838103602080860191909152855180835291810192508501905f5b818110156121d25782516001600160a01b03168452602093840193909201916001016121ab565b50919695505050505050565b5f5f5f606084860312156121f0575f5ffd5b611e4084611d69565b5f5f5f6060848603121561220b575f5ffd5b61221484611d69565b925061222260208501611d69565b929592945050506040919091013590565b5f5f60408385031215612244575f5ffd5b61224d83611d69565b915061225b60208401611d69565b90509250929050565b5f60208284031215612274575f5ffd5b610b2e82611d69565b5f6020828403121561228d575f5ffd5b8135610b2e81611c55565b5f602082840312156122a8575f5ffd5b813562ffffff81168114610b2e575f5ffd5b634e487b7160e01b5f52601160045260245ffd5b80820180821115611c3557611c356122ba565b5f600160ff1b82016122f5576122f56122ba565b505f0390565b634e487b7160e01b5f52601260045260245ffd5b5f6001600160801b03831680612327576123276122fb565b6001600160801b03929092169190910492915050565b5f8160020b627fffff198103612355576123556122ba565b5f0392915050565b6001600160801b038181168382160190811115611c3557611c356122ba565b62ffffff8281168282160390811115611c3557611c356122ba565b81810381811115611c3557611c356122ba565b8181035f8312801583831316838312821617156123c9576123c96122ba565b5092915050565b8082025f8212600160ff1b841416156123eb576123eb6122ba565b8181058314821517611c3557611c356122ba565b8082018281125f83128015821682158216171561241e5761241e6122ba565b505092915050565b600f81810b9083900b0160016001607f1b03811360016001607f1b031982121715611c3557611c356122ba565b600f82810b9082900b0360016001607f1b0319811260016001607f1b0382131715611c3557611c356122ba565b8082028115828204841417611c3557611c356122ba565b6001600160a01b038281168282160390811115611c3557611c356122ba565b5f826124c4576124c46122fb565b500490565b5f600182016124da576124da6122ba565b5060010190565b5f826124ef576124ef6122fb565b500690565b5f8160020b8360020b8061250a5761250a6122fb565b627fffff1982145f1982141615612523576125236122ba565b90059392505050565b5f8260020b8061253e5761253e6122fb565b808360020b0791505092915050565b5f8160020b627fffff198103612565576125656122ba565b5f19019291505056fea2646970667358221220ed150424fa6d04bf0017f5293b5ecdd297788160c6d52199f3a076392f97b9c564736f6c634300081e0033","linkReferences":{}},"methodIdentifiers":{"addLiquidity(int24,int24,uint128)":"89697969","burn(int24,int24,uint128)":"a34123a7","burn(int24,int24,uint128,address)":"6f89244c","collect(address,int24,int24,uint128,uint128)":"4f1eb3d8","collect(address,int24,int24,uint128,uint128,address)":"31338374","collectFees()":"c8796572","factory()":"c45a0155","factoryRegistry()":"3bf0c9fb","fee()":"ddca3f43","feeGrowthGlobal0X128()":"f3058399","feeGrowthGlobal1X128()":"46141319","flash(address,uint256,uint256,bytes)":"490e6cbc","gauge()":"a6f19c84","gaugeFees()":"293833ba","getRewardGrowthInside(int24,int24,uint256)":"a16368c9","increaseObservationCardinalityNext(uint16)":"32148f67","initialize(address,address,address,int24,address,uint160)":"2071d884","initialize(uint160)":"f637731d","lastUpdated()":"d0b06f5d","liquidity()":"1a686502","maxLiquidityPerTick()":"70cf754a","mint(address,int24,int24,uint128,bytes)":"3c8a7d8d","nft()":"47ccca02","observations(uint256)":"252c09d7","observe(uint32[])":"883bdbfd","periodFinish()":"ebe2b12b","positions(bytes32)":"514ea4bf","rewardGrowthGlobalX128()":"57806ada","rewardRate()":"7b0a47ee","rewardReserve()":"cab64bcd","rollover()":"b056b49a","setGaugeAndPositionManager(address,address)":"1f7c3568","setState(uint160,int24,uint128)":"2b85b730","setUnstakedFee(uint24)":"fd08216c","slot0()":"3850c7bd","snapshotCumulativesInside(int24,int24)":"a38807f2","stake(int128,int24,int24,bool)":"4ed6210f","stakedLiquidity()":"3ab04b20","swap(address,bool,int256,uint160,bytes)":"128acb08","syncReward(uint256,uint256,uint256)":"60a73f9b","tickBitmap(int16)":"5339c296","tickSpacing()":"d0c93a7c","ticks(int24)":"f30dba93","token0()":"0dfe1681","token1()":"d21220a7","unstakedFee()":"b64cc67b","updateRewardsGrowthGlobal()":"1b410960"},"id":11}