{"abi":[{"type":"function","name":"facetFuncs","inputs":[],"outputs":[{"name":"facetFuncs_","type":"bytes4[]","internalType":"bytes4[]"}],"stateMutability":"pure"},{"type":"function","name":"facetInterfaces","inputs":[],"outputs":[{"name":"facetInterfaces_","type":"bytes4[]","internalType":"bytes4[]"}],"stateMutability":"pure"},{"type":"function","name":"facetMetadata","inputs":[],"outputs":[{"name":"name","type":"string","internalType":"string"},{"name":"interfaces","type":"bytes4[]","internalType":"bytes4[]"},{"name":"functions","type":"bytes4[]","internalType":"bytes4[]"}],"stateMutability":"pure"},{"type":"function","name":"facetName","inputs":[],"outputs":[{"name":"name","type":"string","internalType":"string"}],"stateMutability":"pure"},{"type":"function","name":"globalOperatorOf","inputs":[{"name":"owner","type":"address","internalType":"address"}],"outputs":[{"name":"","type":"address","internalType":"address"}],"stateMutability":"view"},{"type":"function","name":"ownedIds","inputs":[{"name":"owner","type":"address","internalType":"address"}],"outputs":[{"name":"","type":"uint256[]","internalType":"uint256[]"}],"stateMutability":"view"},{"type":"function","name":"safeTransferFrom","inputs":[{"name":"from","type":"address","internalType":"address"},{"name":"to","type":"address","internalType":"address"},{"name":"tokenId","type":"uint256","internalType":"uint256"}],"outputs":[],"stateMutability":"nonpayable"},{"type":"function","name":"safeTransferFrom","inputs":[{"name":"from","type":"address","internalType":"address"},{"name":"to","type":"address","internalType":"address"},{"name":"tokenId","type":"uint256","internalType":"uint256"},{"name":"data","type":"bytes","internalType":"bytes"}],"outputs":[],"stateMutability":"nonpayable"},{"type":"function","name":"tokenIds","inputs":[],"outputs":[{"name":"","type":"uint256[]","internalType":"uint256[]"}],"stateMutability":"view"},{"type":"function","name":"transferFrom","inputs":[{"name":"from","type":"address","internalType":"address"},{"name":"to","type":"address","internalType":"address"},{"name":"tokenId","type":"uint256","internalType":"uint256"}],"outputs":[],"stateMutability":"nonpayable"},{"type":"event","name":"Transfer","inputs":[{"name":"from","type":"address","indexed":true,"internalType":"address"},{"name":"to","type":"address","indexed":true,"internalType":"address"},{"name":"id","type":"uint256","indexed":true,"internalType":"uint256"}],"anonymous":false},{"type":"error","name":"ERC721IncorrectOwner","inputs":[{"name":"sender","type":"address","internalType":"address"},{"name":"tokenId","type":"uint256","internalType":"uint256"},{"name":"owner","type":"address","internalType":"address"}]},{"type":"error","name":"ERC721InsufficientApproval","inputs":[{"name":"operator","type":"address","internalType":"address"},{"name":"tokenId","type":"uint256","internalType":"uint256"}]},{"type":"error","name":"ERC721InvalidOwner","inputs":[{"name":"owner","type":"address","internalType":"address"}]},{"type":"error","name":"ERC721InvalidReceiver","inputs":[{"name":"receiver","type":"address","internalType":"address"}]},{"type":"error","name":"ERC721NonexistentToken","inputs":[{"name":"tokenId","type":"uint256","internalType":"uint256"}]}],"bytecode":{"object":"0x6080604052348015600e575f5ffd5b50610e9c8061001c5f395ff3fe608060405234801561000f575f5ffd5b506004361061008c575f3560e01c806323b872dd146100905780632ea80826146100a557806342842e0e146100c3578063574a4cff146100d65780635b6f4d01146100de578063714cff56146100f3578063a4005f5e14610108578063b88d4fde1461011b578063e01ed7c81461012e578063f10d7a751461014e575b5f5ffd5b6100a361009e366004610b6a565b610165565b005b6100ad610175565b6040516100ba9190610be8565b60405180910390f35b6100a36100d1366004610b6a565b6101cc565b6100ad6101d7565b6100e6610366565b6040516100ba9190610c28565b6100fb610395565b6040516100ba9190610c3a565b6100fb610116366004610c7c565b6103f1565b6100a3610129366004610c95565b610450565b61014161013c366004610c7c565b610498565b6040516100ba9190610d28565b6101566104a8565b6040516100ba93929190610d3c565b6101708383836104d0565b505050565b6040805160018082528183019092526060916020808301908036833701905050905062d549df60e61b815f815181106101b0576101b0610d7e565b6001600160e01b03199092166020928302919091019091015290565b6101708383836104f3565b60408051600780825261010082019092526060916020820160e08036833701905050905063714cff5660e01b815f8151811061021557610215610d7e565b6001600160e01b03199092166020928302919091019091015280516352002faf60e11b908290600190811061024c5761024c610d7e565b6001600160e01b0319909216602092830291909101909101528051631c03daf960e31b908290600390811061028357610283610d7e565b60200260200101906001600160e01b03191690816001600160e01b031916815250507fb88d4fde60196325a28bb7f99a2582e0b46de55b18761e960c14ad7a32099465816004815181106102d9576102d9610d7e565b60200260200101906001600160e01b03191690816001600160e01b031916815250507f42842e0eb38857a7775b4e7364b2775df7325074d088e7fb39590cd6281184ed8160058151811061032f5761032f610d7e565b6001600160e01b03199092166020928302919091019091015280516323b872dd60e01b90829060069081106101b0576101b0610d7e565b604080518082019091526015815274115490cdcc8c515b9d5b595c985d1959119858d95d605a1b602082015290565b606061039f610525565b8054806020026020016040519081016040528092919081815260200182805480156103e757602002820191905f5260205f20905b8154815260200190600101908083116103d3575b5050505050905090565b60606103fc8261053b565b80548060200260200160405190810160405280929190818152602001828054801561044457602002820191905f5260205f20905b815481526020019060010190808311610430575b50505050509050919050565b61049185858585858080601f0160208091040260200160405190810160405280939291908181526020018383808284375f9201919091525061054d92505050565b5050505050565b5f6104a282610579565b92915050565b60608060606104b5610366565b92506104bf610175565b91506104c96101d7565b9050909192565b5f6104d96105a7565b90505f6104e46105ff565b90506104918282878787610632565b5f6104fc6105a7565b90505f6105076105ff565b9050610491828287878760405180602001604052805f815250610685565b5f6105366105316105a7565b6106e2565b905090565b5f6104a26105476105a7565b836106ec565b5f6105566105a7565b90505f6105616105ff565b9050610571828288888888610685565b505050505050565b5f6104a26105856105a7565b6001600160a01b038085165f9081526004929092016020526040909120541690565b5f6105366040516020016105e690602080825260179082015276195a5c0b995c98cb8dcc8c4b995b9d5b5b595c985d1959604a1b604082015260600190565b6040516020818303038152906040528051906020012090565b5f6105366040516020016105e6906020808252600b908201526a6569702e6572632e37323160a81b604082015260600190565b61063e84848484610710565b6001600160a01b0383165f9081526003860160205260409020610661908261094b565b506001600160a01b0382165f90815260038601602052604090206105719082610a1b565b6106928585858585610a73565b6001600160a01b0384165f90815260038701602052604090206106b5908361094b565b506001600160a01b0383165f90815260038701602052604090206106d99083610a1b565b50505050505050565b5f600182016104a2565b6001600160a01b0381165f90815260038301602052604081206001015b9392505050565b6001600160a01b03831661074257826040516322718ad960e21b81526004016107399190610d28565b60405180910390fd5b6001600160a01b03821661076b57816040516322718ad960e21b81526004016107399190610d28565b5f81815260018501602052604090205461079b57604051637e27328960e01b815260048101829052602401610739565b5f8181526004850160205260409020546001600160a01b0390811690841681146107f2576040516364283d7b60e01b81526001600160a01b0380861660048301526024820184905282166044820152606401610739565b6001600160a01b038416331480159061082357505f8281526006860160205260409020546001600160a01b03163314155b801561085457506001600160a01b0384165f908152600786016020908152604080832033845290915290205460ff16155b1561087b5760405163177e802f60e01b815233600482015260248101839052604401610739565b5f828152600686016020908152604080832080546001600160a01b031990811690915560048901835281842080546001600160a01b0389811691909316179055871683526005880190915281208054916108d483610da6565b90915550506001600160a01b0383165f90815260058601602052604081208054916108fe83610dbb565b919050555081836001600160a01b0316856001600160a01b03167fddf252ad1be2c89b69c2b068fc378daa952ba7f163c4a11628f55a4df523b3ef60405160405180910390a45050505050565b5f818152602083905260408120548015610a11575f61096b600183610dd3565b600180870180549293505f92909161098291610dd3565b8154811061099257610992610d7e565b905f5260205f2001549050808660010183815481106109b3576109b3610d7e565b5f918252602090912001556109c9826001610de6565b5f82815260208890526040902055600186018054806109ea576109ea610df9565b5f828152602080822083015f19908101839055909201909255868252879052604081205550505b5060019392505050565b5f81815260208390526040812054610a6a576001808401805491820181555f818152602080822090930185905590548482529185905260409020556002830154821115610a6a57600283018290555b50600192915050565b6001600160a01b0383163b15610b4357604051630a85bd0160e11b81526001600160a01b0384169063150b7a0290610ab5903390889087908790600401610e0d565b6020604051808303815f875af1925050508015610aef575060408051601f3d908101601f19168201909252610aec91810190610e3f565b60015b610b0e5782604051633250574960e11b81526004016107399190610d28565b6001600160e01b03198116630a85bd0160e11b14610b415783604051633250574960e11b81526004016107399190610d28565b505b61049185858585610710565b80356001600160a01b0381168114610b65575f5ffd5b919050565b5f5f5f60608486031215610b7c575f5ffd5b610b8584610b4f565b9250610b9360208501610b4f565b929592945050506040919091013590565b5f8151808452602084019350602083015f5b82811015610bde5781516001600160e01b031916865260209586019590910190600101610bb6565b5093949350505050565b602081525f6107096020830184610ba4565b5f81518084528060208401602086015e5f602082860101526020601f19601f83011685010191505092915050565b602081525f6107096020830184610bfa565b602080825282518282018190525f918401906040840190835b81811015610c71578351835260209384019390920191600101610c53565b509095945050505050565b5f60208284031215610c8c575f5ffd5b61070982610b4f565b5f5f5f5f5f60808688031215610ca9575f5ffd5b610cb286610b4f565b9450610cc060208701610b4f565b93506040860135925060608601356001600160401b03811115610ce1575f5ffd5b8601601f81018813610cf1575f5ffd5b80356001600160401b03811115610d06575f5ffd5b886020828401011115610d17575f5ffd5b959894975092955050506020019190565b6001600160a01b0391909116815260200190565b606081525f610d4e6060830186610bfa565b8281036020840152610d608186610ba4565b90508281036040840152610d748185610ba4565b9695505050505050565b634e487b7160e01b5f52603260045260245ffd5b634e487b7160e01b5f52601160045260245ffd5b5f81610db457610db4610d92565b505f190190565b5f60018201610dcc57610dcc610d92565b5060010190565b818103818111156104a2576104a2610d92565b808201808211156104a2576104a2610d92565b634e487b7160e01b5f52603160045260245ffd5b6001600160a01b03858116825284166020820152604081018390526080606082018190525f90610d7490830184610bfa565b5f60208284031215610e4f575f5ffd5b81516001600160e01b031981168114610709575f5ffdfea2646970667358221220997286530792bbae588a7acb0141c25a86748834aabc8e2d6c208b88e53234a664736f6c634300081e0033","linkReferences":{}},"methodIdentifiers":{"facetFuncs()":"574a4cff","facetInterfaces()":"2ea80826","facetMetadata()":"f10d7a75","facetName()":"5b6f4d01","globalOperatorOf(address)":"e01ed7c8","ownedIds(address)":"a4005f5e","safeTransferFrom(address,address,uint256)":"42842e0e","safeTransferFrom(address,address,uint256,bytes)":"b88d4fde","tokenIds()":"714cff56","transferFrom(address,address,uint256)":"23b872dd"},"id":1346}