{"abi":[{"type":"function","name":"exp","inputs":[{"name":"x","type":"int256","internalType":"int256"}],"outputs":[{"name":"","type":"int256","internalType":"int256"}],"stateMutability":"pure"},{"type":"function","name":"ln","inputs":[{"name":"a","type":"int256","internalType":"int256"}],"outputs":[{"name":"","type":"int256","internalType":"int256"}],"stateMutability":"pure"},{"type":"function","name":"log","inputs":[{"name":"arg","type":"int256","internalType":"int256"},{"name":"base","type":"int256","internalType":"int256"}],"outputs":[{"name":"","type":"int256","internalType":"int256"}],"stateMutability":"pure"},{"type":"function","name":"pow","inputs":[{"name":"x","type":"uint256","internalType":"uint256"},{"name":"y","type":"uint256","internalType":"uint256"}],"outputs":[{"name":"","type":"uint256","internalType":"uint256"}],"stateMutability":"pure"},{"type":"error","name":"BaseOutOfBounds","inputs":[]},{"type":"error","name":"ExponentOutOfBounds","inputs":[]},{"type":"error","name":"InvalidExponent","inputs":[]},{"type":"error","name":"OutOfBounds","inputs":[]},{"type":"error","name":"ProductOutOfBounds","inputs":[]}],"bytecode":{"object":"0x6080604052348015600e575f5ffd5b50610d2f8061001c5f395ff3fe608060405234801561000f575f5ffd5b506004361061004a575f3560e01c80632e4c697f1461004e5780636f9a4c4e146100735780638e6f235314610086578063e46751e314610099575b5f5ffd5b61006161005c366004610c2e565b6100ac565b60405190815260200160405180910390f35b610061610081366004610c2e565b6100c0565b610061610094366004610c4e565b6100cb565b6100616100a7366004610c4e565b6100d5565b5f6100b783836100df565b90505b92915050565b5f6100b7838361021f565b5f6100ba826102d7565b5f6100ba8261036c565b5f815f036100f65750670de0b6b3a76400006100ba565b825f0361010457505f6100ba565b60ff83901c15610126576040516211380f60e51b815260040160405180910390fd5b8261013e68056bc75e2d63100000600160fe1b610c8d565b831061015d5760405163d831731160e01b815260040160405180910390fd5b825f670c7d713b49da00008313801561017d5750670f43fc2c04ee000083125b156101b3575f61018c84610767565b9050670de0b6b3a764000080820784020583670de0b6b3a7640000830502019150506101c1565b816101bd84610884565b0290505b670de0b6b3a76400009005680238fd42c5cf03ffff1981128015906101ef575068070c1cc73b00c800008113155b61020c5760405163a2f9f7e360e01b815260040160405180910390fd5b6102158161036c565b9695505050505050565b5f80670c7d713b49da00008313801561023f5750670f43fc2c04ee000083125b156102545761024d83610767565b905061026a565b670de0b6b3a764000061026684610884565b0290505b5f670c7d713b49da0000851380156102895750670f43fc2c04ee000085125b1561029e5761029785610767565b90506102b4565b670de0b6b3a76400006102b086610884565b0290505b81670de0b6b3a76400008202816102cd576102cd610c65565b0595945050505050565b5f5f82136102f857604051632d0483c560e21b815260040160405180910390fd5b8161031367016345785d8a0000670de0b6b3a7640000610cac565b1280156103385750610335670de0b6b3a764000067016345785d8a0000610cd2565b82125b1561036357670de0b6b3a764000061034f83610767565b8161035c5761035c610c65565b0592915050565b6100ba82610884565b5f680238fd42c5cf03ffff198212158015610390575068070c1cc73b00c800008213155b6103ad5760405163d4794efd60e01b815260040160405180910390fd5b5f808312156103c057825f039250600190505b5f6806f05b59d3b200000084126103fd57506806f05b59d3b1ffffff199092019172195e54c5dd42177f53a27172fa9ec63026282760241b610433565b6803782dace9d9000000841261042f57506803782dace9d8ffffff19909201916b1425982cf597cd205cef7380610433565b5060015b6064939093029268056bc75e2d6310000068ad78ebc5ac6200000085126104835768ad78ebc5ac61ffffff199094019368056bc75e2d631000006e01855144814a7ff805980ff008400082020590505b6856bc75e2d63100000085126104bf576856bc75e2d630ffffff199094019368056bc75e2d631000006b02df0ab5a80a22c61ab5a70082020590505b682b5e3af16b1880000085126104f957682b5e3af16b187fffff199094019368056bc75e2d63100000693f1fce3da636ea5cf85082020590505b6815af1d78b58c4000008512610533576815af1d78b58c3fffff199094019368056bc75e2d63100000690127fa27722cc06cc5e282020590505b680ad78ebc5ac6200000851261056c57680ad78ebc5ac61fffff199094019368056bc75e2d6310000068280e60114edb805d0382020590505b68056bc75e2d6310000085126105a55768056bc75e2d630fffff199094019368056bc75e2d63100000680ebc5fb4174612111082020590505b6802b5e3af16b188000085126105de576802b5e3af16b187ffff199094019368056bc75e2d631000006808f00f760a4b2db55d82020590505b68015af1d78b58c4000085126106175768015af1d78b58c3ffff199094019368056bc75e2d631000006806f5f177578893793782020590505b68056bc75e2d631000008581019086906002908280020505918201919050600368056bc75e2d631000008883020505918201919050600468056bc75e2d631000008883020505918201919050600568056bc75e2d631000008883020505918201919050600668056bc75e2d631000008883020505918201919050600768056bc75e2d631000008883020505918201919050600868056bc75e2d631000008883020505918201919050600968056bc75e2d631000008883020505918201919050600a68056bc75e2d631000008883020505918201919050600b68056bc75e2d631000008883020505918201919050600c68056bc75e2d6310000088830205059182019190505f606468056bc75e2d631000008585020586020590508561073c578061075b565b806a0c097ce7bc90715b34b9f160241b8161075957610759610c65565b055b98975050505050505050565b670de0b6b3a7640000025f806a0c097ce7bc90715b34b9f160241b808401906ec097ce7bc90715b34b9f0fffffffff19850102816107a7576107a7610c65565b0590505f6a0c097ce7bc90715b34b9f160241b82800205905081806a0c097ce7bc90715b34b9f160241b81840205915060038205016a0c097ce7bc90715b34b9f160241b82840205915060058205016a0c097ce7bc90715b34b9f160241b82840205915060078205016a0c097ce7bc90715b34b9f160241b82840205915060098205016a0c097ce7bc90715b34b9f160241b828402059150600b8205016a0c097ce7bc90715b34b9f160241b828402059150600d8205016a0c097ce7bc90715b34b9f160241b828402059150600f82050160020295945050505050565b5f80670de0b6b3a76400008312156108bb57826a0c097ce7bc90715b34b9f160241b816108b3576108b3610c65565b059250600190505b5f775803bcc5cb9634ba4cfb2213f784019318ed4dcb6017880f60361b84126109055772195e54c5dd42177f53a27172fa9ec63026282760241b840593506806f05b59d3b2000000015b6f8bcc0026baae9e45e470190267a230cf60191b841261093c576b1425982cf597cd205cef7380840593506803782dace9d9000000015b606493840293026e01855144814a7ff805980ff00840008412610984576e01855144814a7ff805980ff008400068056bc75e2d63100000850205935068ad78ebc5ac62000000015b6b02df0ab5a80a22c61ab5a70084126109bf576b02df0ab5a80a22c61ab5a70068056bc75e2d6310000085020593506856bc75e2d631000000015b693f1fce3da636ea5cf85084126109f657693f1fce3da636ea5cf85068056bc75e2d631000008502059350682b5e3af16b18800000015b690127fa27722cc06cc5e28412610a2d57690127fa27722cc06cc5e268056bc75e2d6310000085020593506815af1d78b58c400000015b68280e60114edb805d038412610a625768280e60114edb805d0368056bc75e2d631000008502059350680ad78ebc5ac6200000015b680ebc5fb417461211108412610a8d57680ebc5fb4174612111068056bc75e2d631000009485020593015b6808f00f760a4b2db55d8412610ac2576808f00f760a4b2db55d68056bc75e2d6310000085020593506802b5e3af16b1880000015b6806f5f17757889379378412610af7576806f5f177578893793768056bc75e2d63100000850205935068015af1d78b58c40000015b6806248f33704b2866038412610b2b576806248f33704b28660368056bc75e2d63100000850205935067ad78ebc5ac620000015b6805c548670b9510e7ac8412610b5f576805c548670b9510e7ac68056bc75e2d6310000085020593506756bc75e2d6310000015b5f68056bc75e2d63100000850168056bc75e2d631000008087030281610b8757610b87610c65565b0590505f68056bc75e2d63100000828002059050818068056bc75e2d63100000818402059150600382050168056bc75e2d63100000828402059150600582050168056bc75e2d63100000828402059150600782050168056bc75e2d63100000828402059150600982050168056bc75e2d63100000828402059150600b8205016002025f606486830105905086610c1d5780610c21565b805f035b9998505050505050505050565b5f5f60408385031215610c3f575f5ffd5b50508035926020909101359150565b5f60208284031215610c5e575f5ffd5b5035919050565b634e487b7160e01b5f52601260045260245ffd5b634e487b7160e01b5f52601160045260245ffd5b5f82610ca757634e487b7160e01b5f52601260045260245ffd5b500490565b8181035f831280158383131683831282161715610ccb57610ccb610c79565b5092915050565b8082018281125f831280158216821582161715610cf157610cf1610c79565b50509291505056fea2646970667358221220f5288766cdea1ef5c1dbbf8c5ba06f4d4864c35992eea009fe624e91cf2d76db64736f6c634300081e0033","linkReferences":{}},"methodIdentifiers":{"exp(int256)":"e46751e3","ln(int256)":"8e6f2353","log(int256,int256)":"6f9a4c4e","pow(uint256,uint256)":"2e4c697f"},"id":279}