{"abi":[{"type":"constructor","inputs":[{"name":"vaultExtension","type":"address","internalType":"contract IVaultExtension"},{"name":"authorizer","type":"address","internalType":"contract IAuthorizer"},{"name":"protocolFeeController","type":"address","internalType":"contract IProtocolFeeController"}],"stateMutability":"nonpayable"},{"type":"fallback","stateMutability":"payable"},{"type":"receive","stateMutability":"payable"},{"type":"function","name":"accountDelta","inputs":[{"name":"token","type":"address","internalType":"contract IERC20"},{"name":"delta","type":"int256","internalType":"int256"}],"outputs":[],"stateMutability":"nonpayable"},{"type":"function","name":"addLiquidity","inputs":[{"name":"params","type":"tuple","internalType":"struct AddLiquidityParams","components":[{"name":"pool","type":"address","internalType":"address"},{"name":"to","type":"address","internalType":"address"},{"name":"maxAmountsIn","type":"uint256[]","internalType":"uint256[]"},{"name":"minBptAmountOut","type":"uint256","internalType":"uint256"},{"name":"kind","type":"uint8","internalType":"enum AddLiquidityKind"},{"name":"userData","type":"bytes","internalType":"bytes"}]}],"outputs":[{"name":"amountsIn","type":"uint256[]","internalType":"uint256[]"},{"name":"bptAmountOut","type":"uint256","internalType":"uint256"},{"name":"returnData","type":"bytes","internalType":"bytes"}],"stateMutability":"nonpayable"},{"type":"function","name":"buildTokenConfig","inputs":[{"name":"tokens","type":"address[]","internalType":"contract IERC20[]"}],"outputs":[{"name":"tokenConfig","type":"tuple[]","internalType":"struct TokenConfig[]","components":[{"name":"token","type":"address","internalType":"contract IERC20"},{"name":"tokenType","type":"uint8","internalType":"enum TokenType"},{"name":"rateProvider","type":"address","internalType":"contract IRateProvider"},{"name":"paysYieldFees","type":"bool","internalType":"bool"}]}],"stateMutability":"view"},{"type":"function","name":"buildTokenConfig","inputs":[{"name":"tokens","type":"address[]","internalType":"contract IERC20[]"},{"name":"rateProviders","type":"address[]","internalType":"contract IRateProvider[]"}],"outputs":[{"name":"tokenConfig","type":"tuple[]","internalType":"struct TokenConfig[]","components":[{"name":"token","type":"address","internalType":"contract IERC20"},{"name":"tokenType","type":"uint8","internalType":"enum TokenType"},{"name":"rateProvider","type":"address","internalType":"contract IRateProvider"},{"name":"paysYieldFees","type":"bool","internalType":"bool"}]}],"stateMutability":"view"},{"type":"function","name":"buildTokenConfig","inputs":[{"name":"tokens","type":"address[]","internalType":"contract IERC20[]"},{"name":"tokenTypes","type":"uint8[]","internalType":"enum TokenType[]"},{"name":"rateProviders","type":"address[]","internalType":"contract IRateProvider[]"},{"name":"yieldFeeFlags","type":"bool[]","internalType":"bool[]"}],"outputs":[{"name":"tokenConfig","type":"tuple[]","internalType":"struct TokenConfig[]","components":[{"name":"token","type":"address","internalType":"contract IERC20"},{"name":"tokenType","type":"uint8","internalType":"enum TokenType"},{"name":"rateProvider","type":"address","internalType":"contract IRateProvider"},{"name":"paysYieldFees","type":"bool","internalType":"bool"}]}],"stateMutability":"view"},{"type":"function","name":"buildTokenConfig","inputs":[{"name":"tokens","type":"address[]","internalType":"contract IERC20[]"},{"name":"rateProviders","type":"address[]","internalType":"contract IRateProvider[]"},{"name":"yieldFeeFlags","type":"bool[]","internalType":"bool[]"}],"outputs":[{"name":"tokenConfig","type":"tuple[]","internalType":"struct TokenConfig[]","components":[{"name":"token","type":"address","internalType":"contract IERC20"},{"name":"tokenType","type":"uint8","internalType":"enum TokenType"},{"name":"rateProvider","type":"address","internalType":"contract IRateProvider"},{"name":"paysYieldFees","type":"bool","internalType":"bool"}]}],"stateMutability":"view"},{"type":"function","name":"burnERC20","inputs":[{"name":"token","type":"address","internalType":"address"},{"name":"from","type":"address","internalType":"address"},{"name":"amount","type":"uint256","internalType":"uint256"}],"outputs":[],"stateMutability":"nonpayable"},{"type":"function","name":"computeYieldFeesDue","inputs":[{"name":"poolData","type":"tuple","internalType":"struct PoolData","components":[{"name":"poolConfigBits","type":"bytes32","internalType":"PoolConfigBits"},{"name":"tokens","type":"address[]","internalType":"contract IERC20[]"},{"name":"tokenInfo","type":"tuple[]","internalType":"struct TokenInfo[]","components":[{"name":"tokenType","type":"uint8","internalType":"enum TokenType"},{"name":"rateProvider","type":"address","internalType":"contract IRateProvider"},{"name":"paysYieldFees","type":"bool","internalType":"bool"}]},{"name":"balancesRaw","type":"uint256[]","internalType":"uint256[]"},{"name":"balancesLiveScaled18","type":"uint256[]","internalType":"uint256[]"},{"name":"tokenRates","type":"uint256[]","internalType":"uint256[]"},{"name":"decimalScalingFactors","type":"uint256[]","internalType":"uint256[]"}]},{"name":"lastLiveBalance","type":"uint256","internalType":"uint256"},{"name":"tokenIndex","type":"uint256","internalType":"uint256"},{"name":"aggregateYieldFeePercentage","type":"uint256","internalType":"uint256"}],"outputs":[{"name":"","type":"uint256","internalType":"uint256"}],"stateMutability":"pure"},{"type":"function","name":"ensurePoolNotPaused","inputs":[{"name":"pool","type":"address","internalType":"address"}],"outputs":[],"stateMutability":"view"},{"type":"function","name":"ensureUnpausedAndGetVaultState","inputs":[{"name":"pool","type":"address","internalType":"address"}],"outputs":[{"name":"vaultState","type":"tuple","internalType":"struct VaultState","components":[{"name":"isQueryDisabled","type":"bool","internalType":"bool"},{"name":"isVaultPaused","type":"bool","internalType":"bool"},{"name":"areBuffersPaused","type":"bool","internalType":"bool"}]}],"stateMutability":"view"},{"type":"function","name":"ensureValidSwapAmount","inputs":[{"name":"tradeAmount","type":"uint256","internalType":"uint256"}],"outputs":[],"stateMutability":"view"},{"type":"function","name":"ensureValidTradeAmount","inputs":[{"name":"tradeAmount","type":"uint256","internalType":"uint256"}],"outputs":[],"stateMutability":"view"},{"type":"function","name":"erc4626BufferWrapOrUnwrap","inputs":[{"name":"params","type":"tuple","internalType":"struct BufferWrapOrUnwrapParams","components":[{"name":"kind","type":"uint8","internalType":"enum SwapKind"},{"name":"direction","type":"uint8","internalType":"enum WrappingDirection"},{"name":"wrappedToken","type":"address","internalType":"contract IERC4626"},{"name":"amountGivenRaw","type":"uint256","internalType":"uint256"},{"name":"limitRaw","type":"uint256","internalType":"uint256"}]}],"outputs":[{"name":"amountCalculatedRaw","type":"uint256","internalType":"uint256"},{"name":"amountInRaw","type":"uint256","internalType":"uint256"},{"name":"amountOutRaw","type":"uint256","internalType":"uint256"}],"stateMutability":"nonpayable"},{"type":"function","name":"forceLock","inputs":[],"outputs":[],"stateMutability":"nonpayable"},{"type":"function","name":"forceUnlock","inputs":[],"outputs":[],"stateMutability":"nonpayable"},{"type":"function","name":"getBufferTokenBalancesBytes","inputs":[{"name":"wrappedToken","type":"address","internalType":"contract IERC4626"}],"outputs":[{"name":"","type":"bytes32","internalType":"bytes32"}],"stateMutability":"view"},{"type":"function","name":"getLastLiveBalances","inputs":[{"name":"pool","type":"address","internalType":"address"}],"outputs":[{"name":"lastBalancesLiveScaled18","type":"uint256[]","internalType":"uint256[]"}],"stateMutability":"view"},{"type":"function","name":"getPoolFactoryMock","inputs":[],"outputs":[{"name":"","type":"address","internalType":"address"}],"stateMutability":"view"},{"type":"function","name":"getPoolTokenCountAndIndexOfToken","inputs":[{"name":"pool","type":"address","internalType":"address"},{"name":"token","type":"address","internalType":"contract IERC20"}],"outputs":[{"name":"","type":"uint256","internalType":"uint256"},{"name":"","type":"uint256","internalType":"uint256"}],"stateMutability":"view"},{"type":"function","name":"getRawBalances","inputs":[{"name":"pool","type":"address","internalType":"address"}],"outputs":[{"name":"balancesRaw","type":"uint256[]","internalType":"uint256[]"}],"stateMutability":"view"},{"type":"function","name":"getVaultExtension","inputs":[],"outputs":[{"name":"","type":"address","internalType":"address"}],"stateMutability":"view"},{"type":"function","name":"guardedCheckEntered","inputs":[],"outputs":[],"stateMutability":"nonpayable"},{"type":"function","name":"internalGetBufferUnderlyingImbalance","inputs":[{"name":"wrappedToken","type":"address","internalType":"contract IERC4626"}],"outputs":[{"name":"","type":"int256","internalType":"int256"}],"stateMutability":"view"},{"type":"function","name":"internalGetBufferWrappedImbalance","inputs":[{"name":"wrappedToken","type":"address","internalType":"contract IERC4626"}],"outputs":[{"name":"","type":"int256","internalType":"int256"}],"stateMutability":"view"},{"type":"function","name":"loadPoolDataUpdatingBalancesAndYieldFees","inputs":[{"name":"pool","type":"address","internalType":"address"},{"name":"roundingDirection","type":"uint8","internalType":"enum Rounding"}],"outputs":[{"name":"","type":"tuple","internalType":"struct PoolData","components":[{"name":"poolConfigBits","type":"bytes32","internalType":"PoolConfigBits"},{"name":"tokens","type":"address[]","internalType":"contract IERC20[]"},{"name":"tokenInfo","type":"tuple[]","internalType":"struct TokenInfo[]","components":[{"name":"tokenType","type":"uint8","internalType":"enum TokenType"},{"name":"rateProvider","type":"address","internalType":"contract IRateProvider"},{"name":"paysYieldFees","type":"bool","internalType":"bool"}]},{"name":"balancesRaw","type":"uint256[]","internalType":"uint256[]"},{"name":"balancesLiveScaled18","type":"uint256[]","internalType":"uint256[]"},{"name":"tokenRates","type":"uint256[]","internalType":"uint256[]"},{"name":"decimalScalingFactors","type":"uint256[]","internalType":"uint256[]"}]}],"stateMutability":"nonpayable"},{"type":"function","name":"loadPoolDataUpdatingBalancesAndYieldFeesReentrancy","inputs":[{"name":"pool","type":"address","internalType":"address"},{"name":"roundingDirection","type":"uint8","internalType":"enum Rounding"}],"outputs":[{"name":"","type":"tuple","internalType":"struct PoolData","components":[{"name":"poolConfigBits","type":"bytes32","internalType":"PoolConfigBits"},{"name":"tokens","type":"address[]","internalType":"contract IERC20[]"},{"name":"tokenInfo","type":"tuple[]","internalType":"struct TokenInfo[]","components":[{"name":"tokenType","type":"uint8","internalType":"enum TokenType"},{"name":"rateProvider","type":"address","internalType":"contract IRateProvider"},{"name":"paysYieldFees","type":"bool","internalType":"bool"}]},{"name":"balancesRaw","type":"uint256[]","internalType":"uint256[]"},{"name":"balancesLiveScaled18","type":"uint256[]","internalType":"uint256[]"},{"name":"tokenRates","type":"uint256[]","internalType":"uint256[]"},{"name":"decimalScalingFactors","type":"uint256[]","internalType":"uint256[]"}]}],"stateMutability":"nonpayable"},{"type":"function","name":"manualAddLiquidity","inputs":[{"name":"poolData","type":"tuple","internalType":"struct PoolData","components":[{"name":"poolConfigBits","type":"bytes32","internalType":"PoolConfigBits"},{"name":"tokens","type":"address[]","internalType":"contract IERC20[]"},{"name":"tokenInfo","type":"tuple[]","internalType":"struct TokenInfo[]","components":[{"name":"tokenType","type":"uint8","internalType":"enum TokenType"},{"name":"rateProvider","type":"address","internalType":"contract IRateProvider"},{"name":"paysYieldFees","type":"bool","internalType":"bool"}]},{"name":"balancesRaw","type":"uint256[]","internalType":"uint256[]"},{"name":"balancesLiveScaled18","type":"uint256[]","internalType":"uint256[]"},{"name":"tokenRates","type":"uint256[]","internalType":"uint256[]"},{"name":"decimalScalingFactors","type":"uint256[]","internalType":"uint256[]"}]},{"name":"params","type":"tuple","internalType":"struct AddLiquidityParams","components":[{"name":"pool","type":"address","internalType":"address"},{"name":"to","type":"address","internalType":"address"},{"name":"maxAmountsIn","type":"uint256[]","internalType":"uint256[]"},{"name":"minBptAmountOut","type":"uint256","internalType":"uint256"},{"name":"kind","type":"uint8","internalType":"enum AddLiquidityKind"},{"name":"userData","type":"bytes","internalType":"bytes"}]},{"name":"maxAmountsInScaled18","type":"uint256[]","internalType":"uint256[]"}],"outputs":[{"name":"updatedPoolData","type":"tuple","internalType":"struct PoolData","components":[{"name":"poolConfigBits","type":"bytes32","internalType":"PoolConfigBits"},{"name":"tokens","type":"address[]","internalType":"contract IERC20[]"},{"name":"tokenInfo","type":"tuple[]","internalType":"struct TokenInfo[]","components":[{"name":"tokenType","type":"uint8","internalType":"enum TokenType"},{"name":"rateProvider","type":"address","internalType":"contract IRateProvider"},{"name":"paysYieldFees","type":"bool","internalType":"bool"}]},{"name":"balancesRaw","type":"uint256[]","internalType":"uint256[]"},{"name":"balancesLiveScaled18","type":"uint256[]","internalType":"uint256[]"},{"name":"tokenRates","type":"uint256[]","internalType":"uint256[]"},{"name":"decimalScalingFactors","type":"uint256[]","internalType":"uint256[]"}]},{"name":"amountsInRaw","type":"uint256[]","internalType":"uint256[]"},{"name":"amountsInScaled18","type":"uint256[]","internalType":"uint256[]"},{"name":"bptAmountOut","type":"uint256","internalType":"uint256"},{"name":"returnData","type":"bytes","internalType":"bytes"}],"stateMutability":"nonpayable"},{"type":"function","name":"manualBuildPoolSwapParams","inputs":[{"name":"vaultSwapParams","type":"tuple","internalType":"struct VaultSwapParams","components":[{"name":"kind","type":"uint8","internalType":"enum SwapKind"},{"name":"pool","type":"address","internalType":"address"},{"name":"tokenIn","type":"address","internalType":"contract IERC20"},{"name":"tokenOut","type":"address","internalType":"contract IERC20"},{"name":"amountGivenRaw","type":"uint256","internalType":"uint256"},{"name":"limitRaw","type":"uint256","internalType":"uint256"},{"name":"userData","type":"bytes","internalType":"bytes"}]},{"name":"state","type":"tuple","internalType":"struct SwapState","components":[{"name":"indexIn","type":"uint256","internalType":"uint256"},{"name":"indexOut","type":"uint256","internalType":"uint256"},{"name":"amountGivenScaled18","type":"uint256","internalType":"uint256"},{"name":"swapFeePercentage","type":"uint256","internalType":"uint256"}]},{"name":"poolData","type":"tuple","internalType":"struct PoolData","components":[{"name":"poolConfigBits","type":"bytes32","internalType":"PoolConfigBits"},{"name":"tokens","type":"address[]","internalType":"contract IERC20[]"},{"name":"tokenInfo","type":"tuple[]","internalType":"struct TokenInfo[]","components":[{"name":"tokenType","type":"uint8","internalType":"enum TokenType"},{"name":"rateProvider","type":"address","internalType":"contract IRateProvider"},{"name":"paysYieldFees","type":"bool","internalType":"bool"}]},{"name":"balancesRaw","type":"uint256[]","internalType":"uint256[]"},{"name":"balancesLiveScaled18","type":"uint256[]","internalType":"uint256[]"},{"name":"tokenRates","type":"uint256[]","internalType":"uint256[]"},{"name":"decimalScalingFactors","type":"uint256[]","internalType":"uint256[]"}]}],"outputs":[{"name":"","type":"tuple","internalType":"struct PoolSwapParams","components":[{"name":"kind","type":"uint8","internalType":"enum SwapKind"},{"name":"amountGivenScaled18","type":"uint256","internalType":"uint256"},{"name":"balancesScaled18","type":"uint256[]","internalType":"uint256[]"},{"name":"indexIn","type":"uint256","internalType":"uint256"},{"name":"indexOut","type":"uint256","internalType":"uint256"},{"name":"router","type":"address","internalType":"address"},{"name":"userData","type":"bytes","internalType":"bytes"}]}],"stateMutability":"view"},{"type":"function","name":"manualComputeAmountGivenScaled18","inputs":[{"name":"vaultSwapParams","type":"tuple","internalType":"struct VaultSwapParams","components":[{"name":"kind","type":"uint8","internalType":"enum SwapKind"},{"name":"pool","type":"address","internalType":"address"},{"name":"tokenIn","type":"address","internalType":"contract IERC20"},{"name":"tokenOut","type":"address","internalType":"contract IERC20"},{"name":"amountGivenRaw","type":"uint256","internalType":"uint256"},{"name":"limitRaw","type":"uint256","internalType":"uint256"},{"name":"userData","type":"bytes","internalType":"bytes"}]},{"name":"poolData","type":"tuple","internalType":"struct PoolData","components":[{"name":"poolConfigBits","type":"bytes32","internalType":"PoolConfigBits"},{"name":"tokens","type":"address[]","internalType":"contract IERC20[]"},{"name":"tokenInfo","type":"tuple[]","internalType":"struct TokenInfo[]","components":[{"name":"tokenType","type":"uint8","internalType":"enum TokenType"},{"name":"rateProvider","type":"address","internalType":"contract IRateProvider"},{"name":"paysYieldFees","type":"bool","internalType":"bool"}]},{"name":"balancesRaw","type":"uint256[]","internalType":"uint256[]"},{"name":"balancesLiveScaled18","type":"uint256[]","internalType":"uint256[]"},{"name":"tokenRates","type":"uint256[]","internalType":"uint256[]"},{"name":"decimalScalingFactors","type":"uint256[]","internalType":"uint256[]"}]},{"name":"swapState","type":"tuple","internalType":"struct SwapState","components":[{"name":"indexIn","type":"uint256","internalType":"uint256"},{"name":"indexOut","type":"uint256","internalType":"uint256"},{"name":"amountGivenScaled18","type":"uint256","internalType":"uint256"},{"name":"swapFeePercentage","type":"uint256","internalType":"uint256"}]}],"outputs":[{"name":"","type":"uint256","internalType":"uint256"}],"stateMutability":"pure"},{"type":"function","name":"manualComputeAndChargeAggregateSwapFees","inputs":[{"name":"poolData","type":"tuple","internalType":"struct PoolData","components":[{"name":"poolConfigBits","type":"bytes32","internalType":"PoolConfigBits"},{"name":"tokens","type":"address[]","internalType":"contract IERC20[]"},{"name":"tokenInfo","type":"tuple[]","internalType":"struct TokenInfo[]","components":[{"name":"tokenType","type":"uint8","internalType":"enum TokenType"},{"name":"rateProvider","type":"address","internalType":"contract IRateProvider"},{"name":"paysYieldFees","type":"bool","internalType":"bool"}]},{"name":"balancesRaw","type":"uint256[]","internalType":"uint256[]"},{"name":"balancesLiveScaled18","type":"uint256[]","internalType":"uint256[]"},{"name":"tokenRates","type":"uint256[]","internalType":"uint256[]"},{"name":"decimalScalingFactors","type":"uint256[]","internalType":"uint256[]"}]},{"name":"totalSwapFeeAmountScaled18","type":"uint256","internalType":"uint256"},{"name":"pool","type":"address","internalType":"address"},{"name":"token","type":"address","internalType":"contract IERC20"},{"name":"index","type":"uint256","internalType":"uint256"}],"outputs":[{"name":"totalSwapFeeAmountRaw","type":"uint256","internalType":"uint256"},{"name":"aggregateSwapFeeAmountRaw","type":"uint256","internalType":"uint256"}],"stateMutability":"nonpayable"},{"type":"function","name":"manualErc4626BufferWrapOrUnwrapReentrancy","inputs":[{"name":"params","type":"tuple","internalType":"struct BufferWrapOrUnwrapParams","components":[{"name":"kind","type":"uint8","internalType":"enum SwapKind"},{"name":"direction","type":"uint8","internalType":"enum WrappingDirection"},{"name":"wrappedToken","type":"address","internalType":"contract IERC4626"},{"name":"amountGivenRaw","type":"uint256","internalType":"uint256"},{"name":"limitRaw","type":"uint256","internalType":"uint256"}]}],"outputs":[{"name":"amountCalculatedRaw","type":"uint256","internalType":"uint256"},{"name":"amountInRaw","type":"uint256","internalType":"uint256"},{"name":"amountOutRaw","type":"uint256","internalType":"uint256"}],"stateMutability":"nonpayable"},{"type":"function","name":"manualFindTokenIndex","inputs":[{"name":"tokens","type":"address[]","internalType":"contract IERC20[]"},{"name":"token","type":"address","internalType":"contract IERC20"}],"outputs":[{"name":"index","type":"uint256","internalType":"uint256"}],"stateMutability":"pure"},{"type":"function","name":"manualGetAddLiquidityCalledFlagBySession","inputs":[{"name":"pool","type":"address","internalType":"address"},{"name":"sessionId","type":"uint256","internalType":"uint256"}],"outputs":[{"name":"","type":"bool","internalType":"bool"}],"stateMutability":"view"},{"type":"function","name":"manualGetAggregateSwapFeeAmount","inputs":[{"name":"pool","type":"address","internalType":"address"},{"name":"token","type":"address","internalType":"contract IERC20"}],"outputs":[{"name":"","type":"uint256","internalType":"uint256"}],"stateMutability":"view"},{"type":"function","name":"manualGetAggregateYieldFeeAmount","inputs":[{"name":"pool","type":"address","internalType":"address"},{"name":"token","type":"address","internalType":"contract IERC20"}],"outputs":[{"name":"","type":"uint256","internalType":"uint256"}],"stateMutability":"view"},{"type":"function","name":"manualGetCurrentUnlockSessionId","inputs":[],"outputs":[{"name":"","type":"uint256","internalType":"uint256"}],"stateMutability":"view"},{"type":"function","name":"manualGetIsUnlocked","inputs":[],"outputs":[{"name":"slot","type":"bytes32","internalType":"StorageSlotExtension.BooleanSlotType"}],"stateMutability":"view"},{"type":"function","name":"manualGetNonzeroDeltaCount","inputs":[],"outputs":[{"name":"slot","type":"bytes32","internalType":"StorageSlotExtension.Uint256SlotType"}],"stateMutability":"view"},{"type":"function","name":"manualGetPoolConfigBits","inputs":[{"name":"pool","type":"address","internalType":"address"}],"outputs":[{"name":"","type":"bytes32","internalType":"PoolConfigBits"}],"stateMutability":"view"},{"type":"function","name":"manualGetTokenDeltas","inputs":[],"outputs":[{"name":"slot","type":"bytes32","internalType":"TokenDeltaMappingSlotType"}],"stateMutability":"view"},{"type":"function","name":"manualInternalSwap","inputs":[{"name":"vaultSwapParams","type":"tuple","internalType":"struct VaultSwapParams","components":[{"name":"kind","type":"uint8","internalType":"enum SwapKind"},{"name":"pool","type":"address","internalType":"address"},{"name":"tokenIn","type":"address","internalType":"contract IERC20"},{"name":"tokenOut","type":"address","internalType":"contract IERC20"},{"name":"amountGivenRaw","type":"uint256","internalType":"uint256"},{"name":"limitRaw","type":"uint256","internalType":"uint256"},{"name":"userData","type":"bytes","internalType":"bytes"}]},{"name":"state","type":"tuple","internalType":"struct SwapState","components":[{"name":"indexIn","type":"uint256","internalType":"uint256"},{"name":"indexOut","type":"uint256","internalType":"uint256"},{"name":"amountGivenScaled18","type":"uint256","internalType":"uint256"},{"name":"swapFeePercentage","type":"uint256","internalType":"uint256"}]},{"name":"poolData","type":"tuple","internalType":"struct PoolData","components":[{"name":"poolConfigBits","type":"bytes32","internalType":"PoolConfigBits"},{"name":"tokens","type":"address[]","internalType":"contract IERC20[]"},{"name":"tokenInfo","type":"tuple[]","internalType":"struct TokenInfo[]","components":[{"name":"tokenType","type":"uint8","internalType":"enum TokenType"},{"name":"rateProvider","type":"address","internalType":"contract IRateProvider"},{"name":"paysYieldFees","type":"bool","internalType":"bool"}]},{"name":"balancesRaw","type":"uint256[]","internalType":"uint256[]"},{"name":"balancesLiveScaled18","type":"uint256[]","internalType":"uint256[]"},{"name":"tokenRates","type":"uint256[]","internalType":"uint256[]"},{"name":"decimalScalingFactors","type":"uint256[]","internalType":"uint256[]"}]}],"outputs":[{"name":"amountCalculatedRaw","type":"uint256","internalType":"uint256"},{"name":"amountCalculatedScaled18","type":"uint256","internalType":"uint256"},{"name":"amountIn","type":"uint256","internalType":"uint256"},{"name":"amountOut","type":"uint256","internalType":"uint256"},{"name":"","type":"tuple","internalType":"struct VaultSwapParams","components":[{"name":"kind","type":"uint8","internalType":"enum SwapKind"},{"name":"pool","type":"address","internalType":"address"},{"name":"tokenIn","type":"address","internalType":"contract IERC20"},{"name":"tokenOut","type":"address","internalType":"contract IERC20"},{"name":"amountGivenRaw","type":"uint256","internalType":"uint256"},{"name":"limitRaw","type":"uint256","internalType":"uint256"},{"name":"userData","type":"bytes","internalType":"bytes"}]},{"name":"","type":"tuple","internalType":"struct SwapState","components":[{"name":"indexIn","type":"uint256","internalType":"uint256"},{"name":"indexOut","type":"uint256","internalType":"uint256"},{"name":"amountGivenScaled18","type":"uint256","internalType":"uint256"},{"name":"swapFeePercentage","type":"uint256","internalType":"uint256"}]},{"name":"","type":"tuple","internalType":"struct PoolData","components":[{"name":"poolConfigBits","type":"bytes32","internalType":"PoolConfigBits"},{"name":"tokens","type":"address[]","internalType":"contract IERC20[]"},{"name":"tokenInfo","type":"tuple[]","internalType":"struct TokenInfo[]","components":[{"name":"tokenType","type":"uint8","internalType":"enum TokenType"},{"name":"rateProvider","type":"address","internalType":"contract IRateProvider"},{"name":"paysYieldFees","type":"bool","internalType":"bool"}]},{"name":"balancesRaw","type":"uint256[]","internalType":"uint256[]"},{"name":"balancesLiveScaled18","type":"uint256[]","internalType":"uint256[]"},{"name":"tokenRates","type":"uint256[]","internalType":"uint256[]"},{"name":"decimalScalingFactors","type":"uint256[]","internalType":"uint256[]"}]}],"stateMutability":"nonpayable"},{"type":"function","name":"manualLoadSwapState","inputs":[{"name":"vaultSwapParams","type":"tuple","internalType":"struct VaultSwapParams","components":[{"name":"kind","type":"uint8","internalType":"enum SwapKind"},{"name":"pool","type":"address","internalType":"address"},{"name":"tokenIn","type":"address","internalType":"contract IERC20"},{"name":"tokenOut","type":"address","internalType":"contract IERC20"},{"name":"amountGivenRaw","type":"uint256","internalType":"uint256"},{"name":"limitRaw","type":"uint256","internalType":"uint256"},{"name":"userData","type":"bytes","internalType":"bytes"}]},{"name":"poolData","type":"tuple","internalType":"struct PoolData","components":[{"name":"poolConfigBits","type":"bytes32","internalType":"PoolConfigBits"},{"name":"tokens","type":"address[]","internalType":"contract IERC20[]"},{"name":"tokenInfo","type":"tuple[]","internalType":"struct TokenInfo[]","components":[{"name":"tokenType","type":"uint8","internalType":"enum TokenType"},{"name":"rateProvider","type":"address","internalType":"contract IRateProvider"},{"name":"paysYieldFees","type":"bool","internalType":"bool"}]},{"name":"balancesRaw","type":"uint256[]","internalType":"uint256[]"},{"name":"balancesLiveScaled18","type":"uint256[]","internalType":"uint256[]"},{"name":"tokenRates","type":"uint256[]","internalType":"uint256[]"},{"name":"decimalScalingFactors","type":"uint256[]","internalType":"uint256[]"}]}],"outputs":[{"name":"swapState","type":"tuple","internalType":"struct SwapState","components":[{"name":"indexIn","type":"uint256","internalType":"uint256"},{"name":"indexOut","type":"uint256","internalType":"uint256"},{"name":"amountGivenScaled18","type":"uint256","internalType":"uint256"},{"name":"swapFeePercentage","type":"uint256","internalType":"uint256"}]}],"stateMutability":"pure"},{"type":"function","name":"manualReentrancyAddLiquidity","inputs":[{"name":"poolData","type":"tuple","internalType":"struct PoolData","components":[{"name":"poolConfigBits","type":"bytes32","internalType":"PoolConfigBits"},{"name":"tokens","type":"address[]","internalType":"contract IERC20[]"},{"name":"tokenInfo","type":"tuple[]","internalType":"struct TokenInfo[]","components":[{"name":"tokenType","type":"uint8","internalType":"enum TokenType"},{"name":"rateProvider","type":"address","internalType":"contract IRateProvider"},{"name":"paysYieldFees","type":"bool","internalType":"bool"}]},{"name":"balancesRaw","type":"uint256[]","internalType":"uint256[]"},{"name":"balancesLiveScaled18","type":"uint256[]","internalType":"uint256[]"},{"name":"tokenRates","type":"uint256[]","internalType":"uint256[]"},{"name":"decimalScalingFactors","type":"uint256[]","internalType":"uint256[]"}]},{"name":"params","type":"tuple","internalType":"struct AddLiquidityParams","components":[{"name":"pool","type":"address","internalType":"address"},{"name":"to","type":"address","internalType":"address"},{"name":"maxAmountsIn","type":"uint256[]","internalType":"uint256[]"},{"name":"minBptAmountOut","type":"uint256","internalType":"uint256"},{"name":"kind","type":"uint8","internalType":"enum AddLiquidityKind"},{"name":"userData","type":"bytes","internalType":"bytes"}]},{"name":"maxAmountsInScaled18","type":"uint256[]","internalType":"uint256[]"}],"outputs":[],"stateMutability":"nonpayable"},{"type":"function","name":"manualReentrancyRemoveLiquidity","inputs":[{"name":"poolData","type":"tuple","internalType":"struct PoolData","components":[{"name":"poolConfigBits","type":"bytes32","internalType":"PoolConfigBits"},{"name":"tokens","type":"address[]","internalType":"contract IERC20[]"},{"name":"tokenInfo","type":"tuple[]","internalType":"struct TokenInfo[]","components":[{"name":"tokenType","type":"uint8","internalType":"enum TokenType"},{"name":"rateProvider","type":"address","internalType":"contract IRateProvider"},{"name":"paysYieldFees","type":"bool","internalType":"bool"}]},{"name":"balancesRaw","type":"uint256[]","internalType":"uint256[]"},{"name":"balancesLiveScaled18","type":"uint256[]","internalType":"uint256[]"},{"name":"tokenRates","type":"uint256[]","internalType":"uint256[]"},{"name":"decimalScalingFactors","type":"uint256[]","internalType":"uint256[]"}]},{"name":"params","type":"tuple","internalType":"struct RemoveLiquidityParams","components":[{"name":"pool","type":"address","internalType":"address"},{"name":"from","type":"address","internalType":"address"},{"name":"maxBptAmountIn","type":"uint256","internalType":"uint256"},{"name":"minAmountsOut","type":"uint256[]","internalType":"uint256[]"},{"name":"kind","type":"uint8","internalType":"enum RemoveLiquidityKind"},{"name":"userData","type":"bytes","internalType":"bytes"}]},{"name":"minAmountsOutScaled18","type":"uint256[]","internalType":"uint256[]"}],"outputs":[],"stateMutability":"nonpayable"},{"type":"function","name":"manualReentrancySwap","inputs":[{"name":"vaultSwapParams","type":"tuple","internalType":"struct VaultSwapParams","components":[{"name":"kind","type":"uint8","internalType":"enum SwapKind"},{"name":"pool","type":"address","internalType":"address"},{"name":"tokenIn","type":"address","internalType":"contract IERC20"},{"name":"tokenOut","type":"address","internalType":"contract IERC20"},{"name":"amountGivenRaw","type":"uint256","internalType":"uint256"},{"name":"limitRaw","type":"uint256","internalType":"uint256"},{"name":"userData","type":"bytes","internalType":"bytes"}]},{"name":"state","type":"tuple","internalType":"struct SwapState","components":[{"name":"indexIn","type":"uint256","internalType":"uint256"},{"name":"indexOut","type":"uint256","internalType":"uint256"},{"name":"amountGivenScaled18","type":"uint256","internalType":"uint256"},{"name":"swapFeePercentage","type":"uint256","internalType":"uint256"}]},{"name":"poolData","type":"tuple","internalType":"struct PoolData","components":[{"name":"poolConfigBits","type":"bytes32","internalType":"PoolConfigBits"},{"name":"tokens","type":"address[]","internalType":"contract IERC20[]"},{"name":"tokenInfo","type":"tuple[]","internalType":"struct TokenInfo[]","components":[{"name":"tokenType","type":"uint8","internalType":"enum TokenType"},{"name":"rateProvider","type":"address","internalType":"contract IRateProvider"},{"name":"paysYieldFees","type":"bool","internalType":"bool"}]},{"name":"balancesRaw","type":"uint256[]","internalType":"uint256[]"},{"name":"balancesLiveScaled18","type":"uint256[]","internalType":"uint256[]"},{"name":"tokenRates","type":"uint256[]","internalType":"uint256[]"},{"name":"decimalScalingFactors","type":"uint256[]","internalType":"uint256[]"}]}],"outputs":[],"stateMutability":"nonpayable"},{"type":"function","name":"manualRegisterPool","inputs":[{"name":"pool","type":"address","internalType":"address"},{"name":"tokens","type":"address[]","internalType":"contract IERC20[]"}],"outputs":[],"stateMutability":"nonpayable"},{"type":"function","name":"manualRegisterPoolAtTimestamp","inputs":[{"name":"pool","type":"address","internalType":"address"},{"name":"tokens","type":"address[]","internalType":"contract IERC20[]"},{"name":"timestamp","type":"uint32","internalType":"uint32"},{"name":"roleAccounts","type":"tuple","internalType":"struct PoolRoleAccounts","components":[{"name":"pauseManager","type":"address","internalType":"address"},{"name":"swapFeeManager","type":"address","internalType":"address"},{"name":"poolCreator","type":"address","internalType":"address"}]}],"outputs":[],"stateMutability":"nonpayable"},{"type":"function","name":"manualRegisterPoolPassThruTokens","inputs":[{"name":"pool","type":"address","internalType":"address"},{"name":"tokens","type":"address[]","internalType":"contract IERC20[]"}],"outputs":[],"stateMutability":"nonpayable"},{"type":"function","name":"manualRegisterPoolWithSwapFee","inputs":[{"name":"pool","type":"address","internalType":"address"},{"name":"tokens","type":"address[]","internalType":"contract IERC20[]"},{"name":"swapFeePercentage","type":"uint256","internalType":"uint256"}],"outputs":[],"stateMutability":"nonpayable"},{"type":"function","name":"manualRemoveLiquidity","inputs":[{"name":"poolData","type":"tuple","internalType":"struct PoolData","components":[{"name":"poolConfigBits","type":"bytes32","internalType":"PoolConfigBits"},{"name":"tokens","type":"address[]","internalType":"contract IERC20[]"},{"name":"tokenInfo","type":"tuple[]","internalType":"struct TokenInfo[]","components":[{"name":"tokenType","type":"uint8","internalType":"enum TokenType"},{"name":"rateProvider","type":"address","internalType":"contract IRateProvider"},{"name":"paysYieldFees","type":"bool","internalType":"bool"}]},{"name":"balancesRaw","type":"uint256[]","internalType":"uint256[]"},{"name":"balancesLiveScaled18","type":"uint256[]","internalType":"uint256[]"},{"name":"tokenRates","type":"uint256[]","internalType":"uint256[]"},{"name":"decimalScalingFactors","type":"uint256[]","internalType":"uint256[]"}]},{"name":"params","type":"tuple","internalType":"struct RemoveLiquidityParams","components":[{"name":"pool","type":"address","internalType":"address"},{"name":"from","type":"address","internalType":"address"},{"name":"maxBptAmountIn","type":"uint256","internalType":"uint256"},{"name":"minAmountsOut","type":"uint256[]","internalType":"uint256[]"},{"name":"kind","type":"uint8","internalType":"enum RemoveLiquidityKind"},{"name":"userData","type":"bytes","internalType":"bytes"}]},{"name":"minAmountsOutScaled18","type":"uint256[]","internalType":"uint256[]"}],"outputs":[{"name":"updatedPoolData","type":"tuple","internalType":"struct PoolData","components":[{"name":"poolConfigBits","type":"bytes32","internalType":"PoolConfigBits"},{"name":"tokens","type":"address[]","internalType":"contract IERC20[]"},{"name":"tokenInfo","type":"tuple[]","internalType":"struct TokenInfo[]","components":[{"name":"tokenType","type":"uint8","internalType":"enum TokenType"},{"name":"rateProvider","type":"address","internalType":"contract IRateProvider"},{"name":"paysYieldFees","type":"bool","internalType":"bool"}]},{"name":"balancesRaw","type":"uint256[]","internalType":"uint256[]"},{"name":"balancesLiveScaled18","type":"uint256[]","internalType":"uint256[]"},{"name":"tokenRates","type":"uint256[]","internalType":"uint256[]"},{"name":"decimalScalingFactors","type":"uint256[]","internalType":"uint256[]"}]},{"name":"bptAmountIn","type":"uint256","internalType":"uint256"},{"name":"amountsOutRaw","type":"uint256[]","internalType":"uint256[]"},{"name":"amountsOutScaled18","type":"uint256[]","internalType":"uint256[]"},{"name":"returnData","type":"bytes","internalType":"bytes"}],"stateMutability":"nonpayable"},{"type":"function","name":"manualSendToReentrancy","inputs":[{"name":"token","type":"address","internalType":"contract IERC20"},{"name":"to","type":"address","internalType":"address"},{"name":"amount","type":"uint256","internalType":"uint256"}],"outputs":[],"stateMutability":"nonpayable"},{"type":"function","name":"manualSetAccountDelta","inputs":[{"name":"token","type":"address","internalType":"contract IERC20"},{"name":"delta","type":"int256","internalType":"int256"}],"outputs":[],"stateMutability":"nonpayable"},{"type":"function","name":"manualSetAddLiquidityCalledFlag","inputs":[{"name":"pool","type":"address","internalType":"address"},{"name":"flag","type":"bool","internalType":"bool"}],"outputs":[],"stateMutability":"nonpayable"},{"type":"function","name":"manualSetAggregateSwapFeeAmount","inputs":[{"name":"pool","type":"address","internalType":"address"},{"name":"token","type":"address","internalType":"contract IERC20"},{"name":"value","type":"uint256","internalType":"uint256"}],"outputs":[],"stateMutability":"nonpayable"},{"type":"function","name":"manualSetAggregateSwapFeePercentage","inputs":[{"name":"pool","type":"address","internalType":"address"},{"name":"value","type":"uint256","internalType":"uint256"}],"outputs":[],"stateMutability":"nonpayable"},{"type":"function","name":"manualSetAggregateYieldFeeAmount","inputs":[{"name":"pool","type":"address","internalType":"address"},{"name":"token","type":"address","internalType":"contract IERC20"},{"name":"value","type":"uint256","internalType":"uint256"}],"outputs":[],"stateMutability":"nonpayable"},{"type":"function","name":"manualSetAggregateYieldFeePercentage","inputs":[{"name":"pool","type":"address","internalType":"address"},{"name":"value","type":"uint256","internalType":"uint256"}],"outputs":[],"stateMutability":"nonpayable"},{"type":"function","name":"manualSetBufferAsset","inputs":[{"name":"wrappedToken","type":"address","internalType":"contract IERC4626"},{"name":"underlyingToken","type":"address","internalType":"address"}],"outputs":[],"stateMutability":"nonpayable"},{"type":"function","name":"manualSetBufferBalances","inputs":[{"name":"wrappedToken","type":"address","internalType":"contract IERC4626"},{"name":"underlyingAmount","type":"uint256","internalType":"uint256"},{"name":"wrappedAmount","type":"uint256","internalType":"uint256"}],"outputs":[],"stateMutability":"nonpayable"},{"type":"function","name":"manualSetBufferOwnerShares","inputs":[{"name":"wrappedToken","type":"address","internalType":"contract IERC4626"},{"name":"owner","type":"address","internalType":"address"},{"name":"shares","type":"uint256","internalType":"uint256"}],"outputs":[],"stateMutability":"nonpayable"},{"type":"function","name":"manualSetBufferTotalShares","inputs":[{"name":"wrappedToken","type":"address","internalType":"contract IERC4626"},{"name":"shares","type":"uint256","internalType":"uint256"}],"outputs":[],"stateMutability":"nonpayable"},{"type":"function","name":"manualSetHooksConfig","inputs":[{"name":"pool","type":"address","internalType":"address"},{"name":"hooksConfig","type":"tuple","internalType":"struct HooksConfig","components":[{"name":"enableHookAdjustedAmounts","type":"bool","internalType":"bool"},{"name":"shouldCallBeforeInitialize","type":"bool","internalType":"bool"},{"name":"shouldCallAfterInitialize","type":"bool","internalType":"bool"},{"name":"shouldCallComputeDynamicSwapFee","type":"bool","internalType":"bool"},{"name":"shouldCallBeforeSwap","type":"bool","internalType":"bool"},{"name":"shouldCallAfterSwap","type":"bool","internalType":"bool"},{"name":"shouldCallBeforeAddLiquidity","type":"bool","internalType":"bool"},{"name":"shouldCallAfterAddLiquidity","type":"bool","internalType":"bool"},{"name":"shouldCallBeforeRemoveLiquidity","type":"bool","internalType":"bool"},{"name":"shouldCallAfterRemoveLiquidity","type":"bool","internalType":"bool"},{"name":"hooksContract","type":"address","internalType":"address"}]}],"outputs":[],"stateMutability":"nonpayable"},{"type":"function","name":"manualSetInitializedPool","inputs":[{"name":"pool","type":"address","internalType":"address"},{"name":"isPoolInitialized","type":"bool","internalType":"bool"}],"outputs":[],"stateMutability":"nonpayable"},{"type":"function","name":"manualSetNonZeroDeltaCount","inputs":[{"name":"deltaCount","type":"uint256","internalType":"uint256"}],"outputs":[],"stateMutability":"nonpayable"},{"type":"function","name":"manualSetPoolBalances","inputs":[{"name":"pool","type":"address","internalType":"address"},{"name":"tokenBalanceRaw","type":"uint256[]","internalType":"uint256[]"},{"name":"tokenBalanceLiveScaled18","type":"uint256[]","internalType":"uint256[]"}],"outputs":[],"stateMutability":"nonpayable"},{"type":"function","name":"manualSetPoolConfig","inputs":[{"name":"pool","type":"address","internalType":"address"},{"name":"config","type":"tuple","internalType":"struct PoolConfig","components":[{"name":"liquidityManagement","type":"tuple","internalType":"struct LiquidityManagement","components":[{"name":"disableUnbalancedLiquidity","type":"bool","internalType":"bool"},{"name":"enableAddLiquidityCustom","type":"bool","internalType":"bool"},{"name":"enableRemoveLiquidityCustom","type":"bool","internalType":"bool"},{"name":"enableDonation","type":"bool","internalType":"bool"}]},{"name":"staticSwapFeePercentage","type":"uint256","internalType":"uint256"},{"name":"aggregateSwapFeePercentage","type":"uint256","internalType":"uint256"},{"name":"aggregateYieldFeePercentage","type":"uint256","internalType":"uint256"},{"name":"tokenDecimalDiffs","type":"uint40","internalType":"uint40"},{"name":"pauseWindowEndTime","type":"uint32","internalType":"uint32"},{"name":"isPoolRegistered","type":"bool","internalType":"bool"},{"name":"isPoolInitialized","type":"bool","internalType":"bool"},{"name":"isPoolPaused","type":"bool","internalType":"bool"},{"name":"isPoolInRecoveryMode","type":"bool","internalType":"bool"}]}],"outputs":[],"stateMutability":"nonpayable"},{"type":"function","name":"manualSetPoolConfigBits","inputs":[{"name":"pool","type":"address","internalType":"address"},{"name":"config","type":"bytes32","internalType":"PoolConfigBits"}],"outputs":[],"stateMutability":"nonpayable"},{"type":"function","name":"manualSetPoolCreator","inputs":[{"name":"pool","type":"address","internalType":"address"},{"name":"newPoolCreator","type":"address","internalType":"address"}],"outputs":[],"stateMutability":"nonpayable"},{"type":"function","name":"manualSetPoolPauseWindowEndTime","inputs":[{"name":"pool","type":"address","internalType":"address"},{"name":"pauseWindowEndTime","type":"uint32","internalType":"uint32"}],"outputs":[],"stateMutability":"nonpayable"},{"type":"function","name":"manualSetPoolPaused","inputs":[{"name":"pool","type":"address","internalType":"address"},{"name":"isPoolPaused","type":"bool","internalType":"bool"}],"outputs":[],"stateMutability":"nonpayable"},{"type":"function","name":"manualSetPoolRegistered","inputs":[{"name":"pool","type":"address","internalType":"address"},{"name":"status","type":"bool","internalType":"bool"}],"outputs":[],"stateMutability":"nonpayable"},{"type":"function","name":"manualSetPoolTokenInfo","inputs":[{"name":"pool","type":"address","internalType":"address"},{"name":"tokens","type":"address[]","internalType":"contract IERC20[]"},{"name":"tokenInfo","type":"tuple[]","internalType":"struct TokenInfo[]","components":[{"name":"tokenType","type":"uint8","internalType":"enum TokenType"},{"name":"rateProvider","type":"address","internalType":"contract IRateProvider"},{"name":"paysYieldFees","type":"bool","internalType":"bool"}]}],"outputs":[],"stateMutability":"nonpayable"},{"type":"function","name":"manualSetPoolTokenInfo","inputs":[{"name":"pool","type":"address","internalType":"address"},{"name":"tokenConfig","type":"tuple[]","internalType":"struct TokenConfig[]","components":[{"name":"token","type":"address","internalType":"contract IERC20"},{"name":"tokenType","type":"uint8","internalType":"enum TokenType"},{"name":"rateProvider","type":"address","internalType":"contract IRateProvider"},{"name":"paysYieldFees","type":"bool","internalType":"bool"}]}],"outputs":[],"stateMutability":"nonpayable"},{"type":"function","name":"manualSetPoolTokens","inputs":[{"name":"pool","type":"address","internalType":"address"},{"name":"tokens","type":"address[]","internalType":"contract IERC20[]"}],"outputs":[],"stateMutability":"nonpayable"},{"type":"function","name":"manualSetPoolTokensAndBalances","inputs":[{"name":"pool","type":"address","internalType":"address"},{"name":"tokens","type":"address[]","internalType":"contract IERC20[]"},{"name":"tokenBalanceRaw","type":"uint256[]","internalType":"uint256[]"},{"name":"tokenBalanceLiveScaled18","type":"uint256[]","internalType":"uint256[]"}],"outputs":[],"stateMutability":"nonpayable"},{"type":"function","name":"manualSetReservesOf","inputs":[{"name":"token","type":"address","internalType":"contract IERC20"},{"name":"reserves","type":"uint256","internalType":"uint256"}],"outputs":[],"stateMutability":"nonpayable"},{"type":"function","name":"manualSetStaticSwapFeePercentage","inputs":[{"name":"pool","type":"address","internalType":"address"},{"name":"value","type":"uint256","internalType":"uint256"}],"outputs":[],"stateMutability":"nonpayable"},{"type":"function","name":"manualSetVaultPaused","inputs":[{"name":"isVaultPaused","type":"bool","internalType":"bool"}],"outputs":[],"stateMutability":"nonpayable"},{"type":"function","name":"manualSetVaultState","inputs":[{"name":"isVaultPaused","type":"bool","internalType":"bool"},{"name":"isQueryDisabled","type":"bool","internalType":"bool"}],"outputs":[],"stateMutability":"nonpayable"},{"type":"function","name":"manualSettleReentrancy","inputs":[{"name":"token","type":"address","internalType":"contract IERC20"}],"outputs":[{"name":"paid","type":"uint256","internalType":"uint256"}],"stateMutability":"nonpayable"},{"type":"function","name":"manualSettleUnwrap","inputs":[{"name":"underlyingToken","type":"address","internalType":"contract IERC20"},{"name":"wrappedToken","type":"address","internalType":"contract IERC20"},{"name":"underlyingHint","type":"uint256","internalType":"uint256"},{"name":"wrappedHint","type":"uint256","internalType":"uint256"}],"outputs":[],"stateMutability":"nonpayable"},{"type":"function","name":"manualSettleWrap","inputs":[{"name":"underlyingToken","type":"address","internalType":"contract IERC20"},{"name":"wrappedToken","type":"address","internalType":"contract IERC20"},{"name":"underlyingHint","type":"uint256","internalType":"uint256"},{"name":"wrappedHint","type":"uint256","internalType":"uint256"}],"outputs":[],"stateMutability":"nonpayable"},{"type":"function","name":"manualTransfer","inputs":[{"name":"token","type":"address","internalType":"contract IERC20"},{"name":"to","type":"address","internalType":"address"},{"name":"amount","type":"uint256","internalType":"uint256"}],"outputs":[],"stateMutability":"nonpayable"},{"type":"function","name":"manualUnsafeSetStaticSwapFeePercentage","inputs":[{"name":"pool","type":"address","internalType":"address"},{"name":"value","type":"uint256","internalType":"uint256"}],"outputs":[],"stateMutability":"nonpayable"},{"type":"function","name":"manualUpdateAggregateSwapFeePercentage","inputs":[{"name":"pool","type":"address","internalType":"address"},{"name":"newAggregateSwapFeePercentage","type":"uint256","internalType":"uint256"}],"outputs":[],"stateMutability":"nonpayable"},{"type":"function","name":"manualUpdatePoolDataLiveBalancesAndRates","inputs":[{"name":"pool","type":"address","internalType":"address"},{"name":"poolData","type":"tuple","internalType":"struct PoolData","components":[{"name":"poolConfigBits","type":"bytes32","internalType":"PoolConfigBits"},{"name":"tokens","type":"address[]","internalType":"contract IERC20[]"},{"name":"tokenInfo","type":"tuple[]","internalType":"struct TokenInfo[]","components":[{"name":"tokenType","type":"uint8","internalType":"enum TokenType"},{"name":"rateProvider","type":"address","internalType":"contract IRateProvider"},{"name":"paysYieldFees","type":"bool","internalType":"bool"}]},{"name":"balancesRaw","type":"uint256[]","internalType":"uint256[]"},{"name":"balancesLiveScaled18","type":"uint256[]","internalType":"uint256[]"},{"name":"tokenRates","type":"uint256[]","internalType":"uint256[]"},{"name":"decimalScalingFactors","type":"uint256[]","internalType":"uint256[]"}]},{"name":"roundingDirection","type":"uint8","internalType":"enum Rounding"}],"outputs":[{"name":"","type":"tuple","internalType":"struct PoolData","components":[{"name":"poolConfigBits","type":"bytes32","internalType":"PoolConfigBits"},{"name":"tokens","type":"address[]","internalType":"contract IERC20[]"},{"name":"tokenInfo","type":"tuple[]","internalType":"struct TokenInfo[]","components":[{"name":"tokenType","type":"uint8","internalType":"enum TokenType"},{"name":"rateProvider","type":"address","internalType":"contract IRateProvider"},{"name":"paysYieldFees","type":"bool","internalType":"bool"}]},{"name":"balancesRaw","type":"uint256[]","internalType":"uint256[]"},{"name":"balancesLiveScaled18","type":"uint256[]","internalType":"uint256[]"},{"name":"tokenRates","type":"uint256[]","internalType":"uint256[]"},{"name":"decimalScalingFactors","type":"uint256[]","internalType":"uint256[]"}]}],"stateMutability":"view"},{"type":"function","name":"manualWritePoolBalancesToStorage","inputs":[{"name":"pool","type":"address","internalType":"address"},{"name":"poolData","type":"tuple","internalType":"struct PoolData","components":[{"name":"poolConfigBits","type":"bytes32","internalType":"PoolConfigBits"},{"name":"tokens","type":"address[]","internalType":"contract IERC20[]"},{"name":"tokenInfo","type":"tuple[]","internalType":"struct TokenInfo[]","components":[{"name":"tokenType","type":"uint8","internalType":"enum TokenType"},{"name":"rateProvider","type":"address","internalType":"contract IRateProvider"},{"name":"paysYieldFees","type":"bool","internalType":"bool"}]},{"name":"balancesRaw","type":"uint256[]","internalType":"uint256[]"},{"name":"balancesLiveScaled18","type":"uint256[]","internalType":"uint256[]"},{"name":"tokenRates","type":"uint256[]","internalType":"uint256[]"},{"name":"decimalScalingFactors","type":"uint256[]","internalType":"uint256[]"}]}],"outputs":[],"stateMutability":"nonpayable"},{"type":"function","name":"mintERC20","inputs":[{"name":"token","type":"address","internalType":"address"},{"name":"to","type":"address","internalType":"address"},{"name":"amount","type":"uint256","internalType":"uint256"}],"outputs":[],"stateMutability":"nonpayable"},{"type":"function","name":"mockIsUnlocked","inputs":[],"outputs":[],"stateMutability":"view"},{"type":"function","name":"mockWithInitializedPool","inputs":[{"name":"pool","type":"address","internalType":"address"}],"outputs":[],"stateMutability":"view"},{"type":"function","name":"previewDeposit","inputs":[{"name":"wrapper","type":"address","internalType":"contract IERC4626"},{"name":"amountInUnderlying","type":"uint256","internalType":"uint256"}],"outputs":[{"name":"amountOutWrapped","type":"uint256","internalType":"uint256"}],"stateMutability":"nonpayable"},{"type":"function","name":"previewMint","inputs":[{"name":"wrapper","type":"address","internalType":"contract IERC4626"},{"name":"amountOutWrapped","type":"uint256","internalType":"uint256"}],"outputs":[{"name":"amountInUnderlying","type":"uint256","internalType":"uint256"}],"stateMutability":"nonpayable"},{"type":"function","name":"previewRedeem","inputs":[{"name":"wrapper","type":"address","internalType":"contract IERC4626"},{"name":"amountInWrapped","type":"uint256","internalType":"uint256"}],"outputs":[{"name":"amountOutUnderlying","type":"uint256","internalType":"uint256"}],"stateMutability":"nonpayable"},{"type":"function","name":"previewWithdraw","inputs":[{"name":"wrapper","type":"address","internalType":"contract IERC4626"},{"name":"amountOutUnderlying","type":"uint256","internalType":"uint256"}],"outputs":[{"name":"amountInWrapped","type":"uint256","internalType":"uint256"}],"stateMutability":"nonpayable"},{"type":"function","name":"recoveryModeExit","inputs":[{"name":"pool","type":"address","internalType":"address"}],"outputs":[],"stateMutability":"view"},{"type":"function","name":"reentrancyGuardEntered","inputs":[],"outputs":[{"name":"","type":"bool","internalType":"bool"}],"stateMutability":"view"},{"type":"function","name":"removeLiquidity","inputs":[{"name":"params","type":"tuple","internalType":"struct RemoveLiquidityParams","components":[{"name":"pool","type":"address","internalType":"address"},{"name":"from","type":"address","internalType":"address"},{"name":"maxBptAmountIn","type":"uint256","internalType":"uint256"},{"name":"minAmountsOut","type":"uint256[]","internalType":"uint256[]"},{"name":"kind","type":"uint8","internalType":"enum RemoveLiquidityKind"},{"name":"userData","type":"bytes","internalType":"bytes"}]}],"outputs":[{"name":"bptAmountIn","type":"uint256","internalType":"uint256"},{"name":"amountsOut","type":"uint256[]","internalType":"uint256[]"},{"name":"returnData","type":"bytes","internalType":"bytes"}],"stateMutability":"nonpayable"},{"type":"function","name":"sendTo","inputs":[{"name":"token","type":"address","internalType":"contract IERC20"},{"name":"to","type":"address","internalType":"address"},{"name":"amount","type":"uint256","internalType":"uint256"}],"outputs":[],"stateMutability":"nonpayable"},{"type":"function","name":"settle","inputs":[{"name":"token","type":"address","internalType":"contract IERC20"},{"name":"amountHint","type":"uint256","internalType":"uint256"}],"outputs":[{"name":"credit","type":"uint256","internalType":"uint256"}],"stateMutability":"nonpayable"},{"type":"function","name":"supplyCredit","inputs":[{"name":"token","type":"address","internalType":"contract IERC20"},{"name":"credit","type":"uint256","internalType":"uint256"}],"outputs":[],"stateMutability":"nonpayable"},{"type":"function","name":"swap","inputs":[{"name":"vaultSwapParams","type":"tuple","internalType":"struct VaultSwapParams","components":[{"name":"kind","type":"uint8","internalType":"enum SwapKind"},{"name":"pool","type":"address","internalType":"address"},{"name":"tokenIn","type":"address","internalType":"contract IERC20"},{"name":"tokenOut","type":"address","internalType":"contract IERC20"},{"name":"amountGivenRaw","type":"uint256","internalType":"uint256"},{"name":"limitRaw","type":"uint256","internalType":"uint256"},{"name":"userData","type":"bytes","internalType":"bytes"}]}],"outputs":[{"name":"amountCalculated","type":"uint256","internalType":"uint256"},{"name":"amountIn","type":"uint256","internalType":"uint256"},{"name":"amountOut","type":"uint256","internalType":"uint256"}],"stateMutability":"nonpayable"},{"type":"function","name":"takeDebt","inputs":[{"name":"token","type":"address","internalType":"contract IERC20"},{"name":"debt","type":"uint256","internalType":"uint256"}],"outputs":[],"stateMutability":"nonpayable"},{"type":"function","name":"transfer","inputs":[{"name":"owner","type":"address","internalType":"address"},{"name":"to","type":"address","internalType":"address"},{"name":"amount","type":"uint256","internalType":"uint256"}],"outputs":[{"name":"","type":"bool","internalType":"bool"}],"stateMutability":"nonpayable"},{"type":"function","name":"transferFrom","inputs":[{"name":"spender","type":"address","internalType":"address"},{"name":"from","type":"address","internalType":"address"},{"name":"to","type":"address","internalType":"address"},{"name":"amount","type":"uint256","internalType":"uint256"}],"outputs":[{"name":"","type":"bool","internalType":"bool"}],"stateMutability":"nonpayable"},{"type":"function","name":"unguardedCheckNotEntered","inputs":[],"outputs":[],"stateMutability":"view"},{"type":"function","name":"unlock","inputs":[{"name":"data","type":"bytes","internalType":"bytes"}],"outputs":[{"name":"result","type":"bytes","internalType":"bytes"}],"stateMutability":"nonpayable"},{"type":"function","name":"updateLiveTokenBalanceInPoolData","inputs":[{"name":"poolData","type":"tuple","internalType":"struct PoolData","components":[{"name":"poolConfigBits","type":"bytes32","internalType":"PoolConfigBits"},{"name":"tokens","type":"address[]","internalType":"contract IERC20[]"},{"name":"tokenInfo","type":"tuple[]","internalType":"struct TokenInfo[]","components":[{"name":"tokenType","type":"uint8","internalType":"enum TokenType"},{"name":"rateProvider","type":"address","internalType":"contract IRateProvider"},{"name":"paysYieldFees","type":"bool","internalType":"bool"}]},{"name":"balancesRaw","type":"uint256[]","internalType":"uint256[]"},{"name":"balancesLiveScaled18","type":"uint256[]","internalType":"uint256[]"},{"name":"tokenRates","type":"uint256[]","internalType":"uint256[]"},{"name":"decimalScalingFactors","type":"uint256[]","internalType":"uint256[]"}]},{"name":"newRawBalance","type":"uint256","internalType":"uint256"},{"name":"roundingDirection","type":"uint8","internalType":"enum Rounding"},{"name":"tokenIndex","type":"uint256","internalType":"uint256"}],"outputs":[{"name":"","type":"tuple","internalType":"struct PoolData","components":[{"name":"poolConfigBits","type":"bytes32","internalType":"PoolConfigBits"},{"name":"tokens","type":"address[]","internalType":"contract IERC20[]"},{"name":"tokenInfo","type":"tuple[]","internalType":"struct TokenInfo[]","components":[{"name":"tokenType","type":"uint8","internalType":"enum TokenType"},{"name":"rateProvider","type":"address","internalType":"contract IRateProvider"},{"name":"paysYieldFees","type":"bool","internalType":"bool"}]},{"name":"balancesRaw","type":"uint256[]","internalType":"uint256[]"},{"name":"balancesLiveScaled18","type":"uint256[]","internalType":"uint256[]"},{"name":"tokenRates","type":"uint256[]","internalType":"uint256[]"},{"name":"decimalScalingFactors","type":"uint256[]","internalType":"uint256[]"}]}],"stateMutability":"pure"},{"type":"event","name":"AggregateSwapFeePercentageChanged","inputs":[{"name":"pool","type":"address","indexed":true,"internalType":"address"},{"name":"aggregateSwapFeePercentage","type":"uint256","indexed":false,"internalType":"uint256"}],"anonymous":false},{"type":"event","name":"AggregateYieldFeePercentageChanged","inputs":[{"name":"pool","type":"address","indexed":true,"internalType":"address"},{"name":"aggregateYieldFeePercentage","type":"uint256","indexed":false,"internalType":"uint256"}],"anonymous":false},{"type":"event","name":"Approval","inputs":[{"name":"pool","type":"address","indexed":true,"internalType":"address"},{"name":"owner","type":"address","indexed":true,"internalType":"address"},{"name":"spender","type":"address","indexed":true,"internalType":"address"},{"name":"value","type":"uint256","indexed":false,"internalType":"uint256"}],"anonymous":false},{"type":"event","name":"AuthorizerChanged","inputs":[{"name":"newAuthorizer","type":"address","indexed":true,"internalType":"contract IAuthorizer"}],"anonymous":false},{"type":"event","name":"BufferSharesBurned","inputs":[{"name":"wrappedToken","type":"address","indexed":true,"internalType":"contract IERC4626"},{"name":"from","type":"address","indexed":true,"internalType":"address"},{"name":"burnedShares","type":"uint256","indexed":false,"internalType":"uint256"}],"anonymous":false},{"type":"event","name":"BufferSharesMinted","inputs":[{"name":"wrappedToken","type":"address","indexed":true,"internalType":"contract IERC4626"},{"name":"to","type":"address","indexed":true,"internalType":"address"},{"name":"issuedShares","type":"uint256","indexed":false,"internalType":"uint256"}],"anonymous":false},{"type":"event","name":"LiquidityAdded","inputs":[{"name":"pool","type":"address","indexed":true,"internalType":"address"},{"name":"liquidityProvider","type":"address","indexed":true,"internalType":"address"},{"name":"kind","type":"uint8","indexed":true,"internalType":"enum AddLiquidityKind"},{"name":"totalSupply","type":"uint256","indexed":false,"internalType":"uint256"},{"name":"amountsAddedRaw","type":"uint256[]","indexed":false,"internalType":"uint256[]"},{"name":"swapFeeAmountsRaw","type":"uint256[]","indexed":false,"internalType":"uint256[]"}],"anonymous":false},{"type":"event","name":"LiquidityAddedToBuffer","inputs":[{"name":"wrappedToken","type":"address","indexed":true,"internalType":"contract IERC4626"},{"name":"amountUnderlying","type":"uint256","indexed":false,"internalType":"uint256"},{"name":"amountWrapped","type":"uint256","indexed":false,"internalType":"uint256"},{"name":"bufferBalances","type":"bytes32","indexed":false,"internalType":"bytes32"}],"anonymous":false},{"type":"event","name":"LiquidityRemoved","inputs":[{"name":"pool","type":"address","indexed":true,"internalType":"address"},{"name":"liquidityProvider","type":"address","indexed":true,"internalType":"address"},{"name":"kind","type":"uint8","indexed":true,"internalType":"enum RemoveLiquidityKind"},{"name":"totalSupply","type":"uint256","indexed":false,"internalType":"uint256"},{"name":"amountsRemovedRaw","type":"uint256[]","indexed":false,"internalType":"uint256[]"},{"name":"swapFeeAmountsRaw","type":"uint256[]","indexed":false,"internalType":"uint256[]"}],"anonymous":false},{"type":"event","name":"LiquidityRemovedFromBuffer","inputs":[{"name":"wrappedToken","type":"address","indexed":true,"internalType":"contract IERC4626"},{"name":"amountUnderlying","type":"uint256","indexed":false,"internalType":"uint256"},{"name":"amountWrapped","type":"uint256","indexed":false,"internalType":"uint256"},{"name":"bufferBalances","type":"bytes32","indexed":false,"internalType":"bytes32"}],"anonymous":false},{"type":"event","name":"PoolInitialized","inputs":[{"name":"pool","type":"address","indexed":true,"internalType":"address"}],"anonymous":false},{"type":"event","name":"PoolPausedStateChanged","inputs":[{"name":"pool","type":"address","indexed":true,"internalType":"address"},{"name":"paused","type":"bool","indexed":false,"internalType":"bool"}],"anonymous":false},{"type":"event","name":"PoolRecoveryModeStateChanged","inputs":[{"name":"pool","type":"address","indexed":true,"internalType":"address"},{"name":"recoveryMode","type":"bool","indexed":false,"internalType":"bool"}],"anonymous":false},{"type":"event","name":"PoolRegistered","inputs":[{"name":"pool","type":"address","indexed":true,"internalType":"address"},{"name":"factory","type":"address","indexed":true,"internalType":"address"},{"name":"tokenConfig","type":"tuple[]","indexed":false,"internalType":"struct TokenConfig[]","components":[{"name":"token","type":"address","internalType":"contract IERC20"},{"name":"tokenType","type":"uint8","internalType":"enum TokenType"},{"name":"rateProvider","type":"address","internalType":"contract IRateProvider"},{"name":"paysYieldFees","type":"bool","internalType":"bool"}]},{"name":"swapFeePercentage","type":"uint256","indexed":false,"internalType":"uint256"},{"name":"pauseWindowEndTime","type":"uint32","indexed":false,"internalType":"uint32"},{"name":"roleAccounts","type":"tuple","indexed":false,"internalType":"struct PoolRoleAccounts","components":[{"name":"pauseManager","type":"address","internalType":"address"},{"name":"swapFeeManager","type":"address","internalType":"address"},{"name":"poolCreator","type":"address","internalType":"address"}]},{"name":"hooksConfig","type":"tuple","indexed":false,"internalType":"struct HooksConfig","components":[{"name":"enableHookAdjustedAmounts","type":"bool","internalType":"bool"},{"name":"shouldCallBeforeInitialize","type":"bool","internalType":"bool"},{"name":"shouldCallAfterInitialize","type":"bool","internalType":"bool"},{"name":"shouldCallComputeDynamicSwapFee","type":"bool","internalType":"bool"},{"name":"shouldCallBeforeSwap","type":"bool","internalType":"bool"},{"name":"shouldCallAfterSwap","type":"bool","internalType":"bool"},{"name":"shouldCallBeforeAddLiquidity","type":"bool","internalType":"bool"},{"name":"shouldCallAfterAddLiquidity","type":"bool","internalType":"bool"},{"name":"shouldCallBeforeRemoveLiquidity","type":"bool","internalType":"bool"},{"name":"shouldCallAfterRemoveLiquidity","type":"bool","internalType":"bool"},{"name":"hooksContract","type":"address","internalType":"address"}]},{"name":"liquidityManagement","type":"tuple","indexed":false,"internalType":"struct LiquidityManagement","components":[{"name":"disableUnbalancedLiquidity","type":"bool","internalType":"bool"},{"name":"enableAddLiquidityCustom","type":"bool","internalType":"bool"},{"name":"enableRemoveLiquidityCustom","type":"bool","internalType":"bool"},{"name":"enableDonation","type":"bool","internalType":"bool"}]}],"anonymous":false},{"type":"event","name":"ProtocolFeeControllerChanged","inputs":[{"name":"newProtocolFeeController","type":"address","indexed":true,"internalType":"contract IProtocolFeeController"}],"anonymous":false},{"type":"event","name":"Swap","inputs":[{"name":"pool","type":"address","indexed":true,"internalType":"address"},{"name":"tokenIn","type":"address","indexed":true,"internalType":"contract IERC20"},{"name":"tokenOut","type":"address","indexed":true,"internalType":"contract IERC20"},{"name":"amountIn","type":"uint256","indexed":false,"internalType":"uint256"},{"name":"amountOut","type":"uint256","indexed":false,"internalType":"uint256"},{"name":"swapFeePercentage","type":"uint256","indexed":false,"internalType":"uint256"},{"name":"swapFeeAmount","type":"uint256","indexed":false,"internalType":"uint256"}],"anonymous":false},{"type":"event","name":"SwapFeePercentageChanged","inputs":[{"name":"pool","type":"address","indexed":true,"internalType":"address"},{"name":"swapFeePercentage","type":"uint256","indexed":false,"internalType":"uint256"}],"anonymous":false},{"type":"event","name":"Transfer","inputs":[{"name":"pool","type":"address","indexed":true,"internalType":"address"},{"name":"from","type":"address","indexed":true,"internalType":"address"},{"name":"to","type":"address","indexed":true,"internalType":"address"},{"name":"value","type":"uint256","indexed":false,"internalType":"uint256"}],"anonymous":false},{"type":"event","name":"Unwrap","inputs":[{"name":"wrappedToken","type":"address","indexed":true,"internalType":"contract IERC4626"},{"name":"burnedShares","type":"uint256","indexed":false,"internalType":"uint256"},{"name":"withdrawnUnderlying","type":"uint256","indexed":false,"internalType":"uint256"},{"name":"bufferBalances","type":"bytes32","indexed":false,"internalType":"bytes32"}],"anonymous":false},{"type":"event","name":"VaultAuxiliary","inputs":[{"name":"pool","type":"address","indexed":true,"internalType":"address"},{"name":"eventKey","type":"bytes32","indexed":true,"internalType":"bytes32"},{"name":"eventData","type":"bytes","indexed":false,"internalType":"bytes"}],"anonymous":false},{"type":"event","name":"VaultBuffersPausedStateChanged","inputs":[{"name":"paused","type":"bool","indexed":false,"internalType":"bool"}],"anonymous":false},{"type":"event","name":"VaultPausedStateChanged","inputs":[{"name":"paused","type":"bool","indexed":false,"internalType":"bool"}],"anonymous":false},{"type":"event","name":"VaultQueriesDisabled","inputs":[],"anonymous":false},{"type":"event","name":"VaultQueriesEnabled","inputs":[],"anonymous":false},{"type":"event","name":"Wrap","inputs":[{"name":"wrappedToken","type":"address","indexed":true,"internalType":"contract IERC4626"},{"name":"depositedUnderlying","type":"uint256","indexed":false,"internalType":"uint256"},{"name":"mintedShares","type":"uint256","indexed":false,"internalType":"uint256"},{"name":"bufferBalances","type":"bytes32","indexed":false,"internalType":"bytes32"}],"anonymous":false},{"type":"error","name":"AddressEmptyCode","inputs":[{"name":"target","type":"address","internalType":"address"}]},{"type":"error","name":"AfterAddLiquidityHookFailed","inputs":[]},{"type":"error","name":"AfterInitializeHookFailed","inputs":[]},{"type":"error","name":"AfterRemoveLiquidityHookFailed","inputs":[]},{"type":"error","name":"AfterSwapHookFailed","inputs":[]},{"type":"error","name":"AllZeroInputs","inputs":[]},{"type":"error","name":"AmountGivenZero","inputs":[]},{"type":"error","name":"AmountInAboveMax","inputs":[{"name":"tokenIn","type":"address","internalType":"contract IERC20"},{"name":"amountIn","type":"uint256","internalType":"uint256"},{"name":"maxAmountIn","type":"uint256","internalType":"uint256"}]},{"type":"error","name":"AmountOutBelowMin","inputs":[{"name":"tokenOut","type":"address","internalType":"contract IERC20"},{"name":"amountOut","type":"uint256","internalType":"uint256"},{"name":"minAmountOut","type":"uint256","internalType":"uint256"}]},{"type":"error","name":"BalanceNotSettled","inputs":[]},{"type":"error","name":"BalanceOverflow","inputs":[]},{"type":"error","name":"BeforeAddLiquidityHookFailed","inputs":[]},{"type":"error","name":"BeforeInitializeHookFailed","inputs":[]},{"type":"error","name":"BeforeRemoveLiquidityHookFailed","inputs":[]},{"type":"error","name":"BeforeSwapHookFailed","inputs":[]},{"type":"error","name":"BptAmountInAboveMax","inputs":[{"name":"amountIn","type":"uint256","internalType":"uint256"},{"name":"maxAmountIn","type":"uint256","internalType":"uint256"}]},{"type":"error","name":"BptAmountOutBelowMin","inputs":[{"name":"amountOut","type":"uint256","internalType":"uint256"},{"name":"minAmountOut","type":"uint256","internalType":"uint256"}]},{"type":"error","name":"BufferAlreadyInitialized","inputs":[{"name":"wrappedToken","type":"address","internalType":"contract IERC4626"}]},{"type":"error","name":"BufferNotInitialized","inputs":[{"name":"wrappedToken","type":"address","internalType":"contract IERC4626"}]},{"type":"error","name":"BufferSharesInvalidOwner","inputs":[]},{"type":"error","name":"BufferSharesInvalidReceiver","inputs":[]},{"type":"error","name":"BufferTotalSupplyTooLow","inputs":[{"name":"totalSupply","type":"uint256","internalType":"uint256"}]},{"type":"error","name":"CannotReceiveEth","inputs":[]},{"type":"error","name":"CannotSwapSameToken","inputs":[]},{"type":"error","name":"CodecOverflow","inputs":[]},{"type":"error","name":"DoesNotSupportAddLiquidityCustom","inputs":[]},{"type":"error","name":"DoesNotSupportDonation","inputs":[]},{"type":"error","name":"DoesNotSupportRemoveLiquidityCustom","inputs":[]},{"type":"error","name":"DoesNotSupportUnbalancedLiquidity","inputs":[]},{"type":"error","name":"DynamicSwapFeeHookFailed","inputs":[]},{"type":"error","name":"ERC20InsufficientAllowance","inputs":[{"name":"spender","type":"address","internalType":"address"},{"name":"allowance","type":"uint256","internalType":"uint256"},{"name":"needed","type":"uint256","internalType":"uint256"}]},{"type":"error","name":"ERC20InsufficientBalance","inputs":[{"name":"sender","type":"address","internalType":"address"},{"name":"balance","type":"uint256","internalType":"uint256"},{"name":"needed","type":"uint256","internalType":"uint256"}]},{"type":"error","name":"ERC20InvalidApprover","inputs":[{"name":"approver","type":"address","internalType":"address"}]},{"type":"error","name":"ERC20InvalidReceiver","inputs":[{"name":"receiver","type":"address","internalType":"address"}]},{"type":"error","name":"ERC20InvalidSender","inputs":[{"name":"sender","type":"address","internalType":"address"}]},{"type":"error","name":"ERC20InvalidSpender","inputs":[{"name":"spender","type":"address","internalType":"address"}]},{"type":"error","name":"FailedCall","inputs":[]},{"type":"error","name":"FeePrecisionTooHigh","inputs":[]},{"type":"error","name":"HookAdjustedAmountInAboveMax","inputs":[{"name":"tokenIn","type":"address","internalType":"contract IERC20"},{"name":"amountIn","type":"uint256","internalType":"uint256"},{"name":"maxAmountIn","type":"uint256","internalType":"uint256"}]},{"type":"error","name":"HookAdjustedAmountOutBelowMin","inputs":[{"name":"tokenOut","type":"address","internalType":"contract IERC20"},{"name":"amountOut","type":"uint256","internalType":"uint256"},{"name":"minAmountOut","type":"uint256","internalType":"uint256"}]},{"type":"error","name":"HookAdjustedSwapLimit","inputs":[{"name":"amount","type":"uint256","internalType":"uint256"},{"name":"limit","type":"uint256","internalType":"uint256"}]},{"type":"error","name":"HookRegistrationFailed","inputs":[{"name":"poolHooksContract","type":"address","internalType":"address"},{"name":"pool","type":"address","internalType":"address"},{"name":"poolFactory","type":"address","internalType":"address"}]},{"type":"error","name":"InputLengthMismatch","inputs":[]},{"type":"error","name":"InsufficientBalance","inputs":[{"name":"balance","type":"uint256","internalType":"uint256"},{"name":"needed","type":"uint256","internalType":"uint256"}]},{"type":"error","name":"InvalidAddLiquidityKind","inputs":[]},{"type":"error","name":"InvalidRemoveLiquidityKind","inputs":[]},{"type":"error","name":"InvalidToken","inputs":[]},{"type":"error","name":"InvalidTokenConfiguration","inputs":[]},{"type":"error","name":"InvalidTokenDecimals","inputs":[]},{"type":"error","name":"InvalidTokenType","inputs":[]},{"type":"error","name":"InvalidUnderlyingToken","inputs":[{"name":"wrappedToken","type":"address","internalType":"contract IERC4626"}]},{"type":"error","name":"InvariantRatioAboveMax","inputs":[{"name":"invariantRatio","type":"uint256","internalType":"uint256"},{"name":"maxInvariantRatio","type":"uint256","internalType":"uint256"}]},{"type":"error","name":"InvariantRatioBelowMin","inputs":[{"name":"invariantRatio","type":"uint256","internalType":"uint256"},{"name":"minInvariantRatio","type":"uint256","internalType":"uint256"}]},{"type":"error","name":"IssuedSharesBelowMin","inputs":[{"name":"issuedShares","type":"uint256","internalType":"uint256"},{"name":"minIssuedShares","type":"uint256","internalType":"uint256"}]},{"type":"error","name":"MaxTokens","inputs":[]},{"type":"error","name":"MinTokens","inputs":[]},{"type":"error","name":"MultipleNonZeroInputs","inputs":[]},{"type":"error","name":"NotEnoughBufferShares","inputs":[]},{"type":"error","name":"NotEnoughUnderlying","inputs":[{"name":"wrappedToken","type":"address","internalType":"contract IERC4626"},{"name":"expectedUnderlyingAmount","type":"uint256","internalType":"uint256"},{"name":"actualUnderlyingAmount","type":"uint256","internalType":"uint256"}]},{"type":"error","name":"NotEnoughWrapped","inputs":[{"name":"wrappedToken","type":"address","internalType":"contract IERC4626"},{"name":"expectedWrappedAmount","type":"uint256","internalType":"uint256"},{"name":"actualWrappedAmount","type":"uint256","internalType":"uint256"}]},{"type":"error","name":"NotStaticCall","inputs":[]},{"type":"error","name":"NotVaultDelegateCall","inputs":[]},{"type":"error","name":"OutOfBounds","inputs":[]},{"type":"error","name":"PauseBufferPeriodDurationTooLarge","inputs":[]},{"type":"error","name":"PercentageAboveMax","inputs":[]},{"type":"error","name":"PoolAlreadyInitialized","inputs":[{"name":"pool","type":"address","internalType":"address"}]},{"type":"error","name":"PoolAlreadyRegistered","inputs":[{"name":"pool","type":"address","internalType":"address"}]},{"type":"error","name":"PoolInRecoveryMode","inputs":[{"name":"pool","type":"address","internalType":"address"}]},{"type":"error","name":"PoolNotInRecoveryMode","inputs":[{"name":"pool","type":"address","internalType":"address"}]},{"type":"error","name":"PoolNotInitialized","inputs":[{"name":"pool","type":"address","internalType":"address"}]},{"type":"error","name":"PoolNotPaused","inputs":[{"name":"pool","type":"address","internalType":"address"}]},{"type":"error","name":"PoolNotRegistered","inputs":[{"name":"pool","type":"address","internalType":"address"}]},{"type":"error","name":"PoolPauseWindowExpired","inputs":[{"name":"pool","type":"address","internalType":"address"}]},{"type":"error","name":"PoolPaused","inputs":[{"name":"pool","type":"address","internalType":"address"}]},{"type":"error","name":"PoolTotalSupplyTooLow","inputs":[{"name":"totalSupply","type":"uint256","internalType":"uint256"}]},{"type":"error","name":"ProtocolFeesExceedTotalCollected","inputs":[]},{"type":"error","name":"QueriesDisabled","inputs":[]},{"type":"error","name":"QueriesDisabledPermanently","inputs":[]},{"type":"error","name":"QuoteResultSpoofed","inputs":[]},{"type":"error","name":"ReentrancyGuardReentrantCall","inputs":[]},{"type":"error","name":"RouterNotTrusted","inputs":[]},{"type":"error","name":"SenderIsNotVault","inputs":[{"name":"sender","type":"address","internalType":"address"}]},{"type":"error","name":"SwapFeePercentageTooHigh","inputs":[]},{"type":"error","name":"SwapFeePercentageTooLow","inputs":[]},{"type":"error","name":"SwapLimit","inputs":[{"name":"amount","type":"uint256","internalType":"uint256"},{"name":"limit","type":"uint256","internalType":"uint256"}]},{"type":"error","name":"TokenAlreadyRegistered","inputs":[{"name":"token","type":"address","internalType":"contract IERC20"}]},{"type":"error","name":"TokenNotRegistered","inputs":[{"name":"token","type":"address","internalType":"contract IERC20"}]},{"type":"error","name":"TokensMismatch","inputs":[{"name":"pool","type":"address","internalType":"address"},{"name":"expectedToken","type":"address","internalType":"address"},{"name":"actualToken","type":"address","internalType":"address"}]},{"type":"error","name":"TradeAmountTooSmall","inputs":[]},{"type":"error","name":"VaultBuffersArePaused","inputs":[]},{"type":"error","name":"VaultIsNotUnlocked","inputs":[]},{"type":"error","name":"VaultNotPaused","inputs":[]},{"type":"error","name":"VaultPauseWindowDurationTooLarge","inputs":[]},{"type":"error","name":"VaultPauseWindowExpired","inputs":[]},{"type":"error","name":"VaultPaused","inputs":[]},{"type":"error","name":"WrapAmountTooSmall","inputs":[{"name":"wrappedToken","type":"address","internalType":"contract IERC4626"}]},{"type":"error","name":"WrongProtocolFeeControllerDeployment","inputs":[]},{"type":"error","name":"WrongUnderlyingToken","inputs":[{"name":"wrappedToken","type":"address","internalType":"contract IERC4626"},{"name":"underlyingToken","type":"address","internalType":"address"}]},{"type":"error","name":"WrongVaultAdminDeployment","inputs":[]},{"type":"error","name":"WrongVaultExtensionDeployment","inputs":[]},{"type":"error","name":"ZeroDivision","inputs":[]}],"bytecode":{"object":"0x610260604052600a610220908152691a5cd55b9b1bd8dad95960b21b6102405261002890610610565b60c0526040805180820190915260118152701b9bdb96995c9bd1195b1d1850dbdd5b9d607a1b602082015261005c90610610565b60e05260408051808201909152600b81526a746f6b656e44656c74617360a81b602082015261008a90610610565b61010052604080518082019091526012815271185919131a5c5d5a591a5d1e50d85b1b195960721b60208201526100c090610610565b610120526040805180820190915260098152681cd95cdcda5bdb925960ba1b60208201526100ed90610610565b610140523480156100fc575f5ffd5b50604051620114343803806201143483398101604081905261011d916106ec565b828282306001600160a01b0316836001600160a01b031663fbfa77cf6040518163ffffffff1660e01b8152600401602060405180830381865afa158015610166573d5f5f3e3d5ffd5b505050506040513d601f19601f8201168201806040525081019061018a9190610736565b6001600160a01b0316146101b1576040516301ab9d9d60e41b815260040160405180910390fd5b306001600160a01b0316816001600160a01b031663fbfa77cf6040518163ffffffff1660e01b8152600401602060405180830381865afa1580156101f7573d5f5f3e3d5ffd5b505050506040513d601f19601f8201168201806040525081019061021b9190610736565b6001600160a01b03161461024257604051631bbe95c760e01b815260040160405180910390fd5b6001600160a01b038381166101c0819052600a80546001600160a01b0319169284169290921790915560408051634546891d60e11b81529051638a8d123a916004808201926020929091908290030181865afa1580156102a4573d5f5f3e3d5ffd5b505050506040513d601f19601f820116820180604052508101906102c89190610758565b63ffffffff166101608163ffffffff1681525050826001600160a01b03166320c1fb7a6040518163ffffffff1660e01b8152600401602060405180830381865afa158015610318573d5f5f3e3d5ffd5b505050506040513d601f19601f8201168201806040525081019061033c9190610758565b63ffffffff166101a08163ffffffff1681525050826001600160a01b031663cd51c12f6040518163ffffffff1660e01b8152600401602060405180830381865afa15801561038c573d5f5f3e3d5ffd5b505050506040513d601f19601f820116820180604052508101906103b09190610758565b63ffffffff166101808163ffffffff1681525050826001600160a01b031663e2cb0ba06040518163ffffffff1660e01b8152600401602060405180830381865afa158015610400573d5f5f3e3d5ffd5b505050506040513d601f19601f82011682018060405250810190610424919061077b565b60808181525050826001600160a01b03166353956aa26040518163ffffffff1660e01b8152600401602060405180830381865afa158015610467573d5f5f3e3d5ffd5b505050506040513d601f19601f8201168201806040525081019061048b919061077b565b60a0525060098054610100600160a81b0319166101006001600160a01b039384160217905560408051634546891d60e11b815290515f935091861691638a8d123a916004808201926020929091908290030181865afa1580156104f0573d5f5f3e3d5ffd5b505050506040513d601f19601f820116820180604052508101906105149190610758565b90505f846001600160a01b03166320c1fb7a6040518163ffffffff1660e01b8152600401602060405180830381865afa158015610553573d5f5f3e3d5ffd5b505050506040513d601f19601f820116820180604052508101906105779190610758565b90503061058482846107a6565b604051610590906106b9565b6001600160a01b03909216825263ffffffff166020820152604001604051809103905ff0801580156105c4573d5f5f3e3d5ffd5b506001600160a01b03166101e0526040516105de906106c7565b604051809103905ff0801580156105f7573d5f5f3e3d5ffd5b506001600160a01b0316610200525061083a9350505050565b5f61064560405180604001604052600c8152806020016b5661756c7453746f7261676560a01b8152508361064b60201b60201c565b92915050565b5f60ff5f1b19600184846040516020016106669291906107d9565b604051602081830303815290604052805190602001205f1c6106889190610827565b60405160200161069a91815260200190565b6040516020818303038152906040528051906020012016905092915050565b613a3a806200d29983390190565b6107618062010cd383390190565b6001600160a01b03811681146106e9575f5ffd5b50565b5f5f5f606084860312156106fe575f5ffd5b8351610709816106d5565b602085015190935061071a816106d5565b604085015190925061072b816106d5565b809150509250925092565b5f60208284031215610746575f5ffd5b8151610751816106d5565b9392505050565b5f60208284031215610768575f5ffd5b815163ffffffff81168114610751575f5ffd5b5f6020828403121561078b575f5ffd5b5051919050565b634e487b7160e01b5f52601160045260245ffd5b63ffffffff828116828216039081111561064557610645610792565b5f81518060208401855e5f93019283525090919050565b7f62616c616e6365722d6c6162732e76332e73746f726167652e0000000000000081525f61080a60198301856107c2565b601760f91b815261081e60018201856107c2565b95945050505050565b8181038181111561064557610645610792565b60805160a05160c05160e05161010051610120516101405161016051610180516101a0516101c0516101e0516102005161c9a3620008f65f395f8181611c0c01528181612aba01528181612ce80152613baf01525f8181610d4701528181611417015281816119aa015281816120b20152612e1301525f613ca301525f61976901525f617b2601525f50505f616da701525f6163a501525f614d2701525f61475001525f616d6f01525f61649801525f617733015261c9a35ff3fe6080604052600436106104ae575f3560e01c8062d7aadb146104f557806302e1a4aa146105145780630362a5131461053357806306bf83b1146105525780630790de461461058457806308bade29146105b45780630c87409b146105d35780630ee4cdd8146105f25780630f619655146106115780630f682ba01461063057806310c1dc411461065c578063155075e61461067b57806315afd4091461068f57806315dacbea146106ae57806316a573c2146106dd578063195aaef91461070957806319a24bcb146107285780631c4e1e23146107545780631d27af68146107735780631f4475c5146107925780631f495f79146107a657806321457897146107c557806324e7176b146107f357806325b6a8441461081f5780632606a4de1461085157806328121e27146108705780632b7662781461088f5780632bfb780c146108ae5780632cbbf198146108dc5780632d1c3beb146108fb57806332333ce61461091a578063352339ee1461093957806336918d6e14610958578063370bc8da146109775780633cb5b2af146109965780633cce2585146109cb5780633e262ba3146109ea578063420f4a4514610a0957806343583be514610a2857806344ea876314610a475780634594871a14610a6657806347c07e8814610a9257806348c8949114610ab15780634af29ec414610add578063557dba6814610b0b5780635c1c1c8114610b3f5780635e3e00fa14610b5e5780635eeae6eb14610b7d5780635f70f54214610b9c578063608256f714610bbb57806362691e5f14610bda578063692407ae14610bf95780636d4908c414610c185780637004b0f114610c2c5780637965c96714610c4b57806379a2c0ac14610c5f57806380047e2614610ca957806381e4b7e914610cc857806382ea174914610cdc578063851c65a314610cfb57806387a530f814610d1a57806387a76c5914610d395780638f5aeb4b14610d74578063920af06614610d9357806396e74a2714610db2578063a03b23ef14610dd1578063a408f31214610df0578063a40f959214610e04578063aa01edb314610e23578063ab62c2b614610e42578063ac00485514610e89578063ae63932914610ea8578063b1740c2d14610ec7578063b246949914610ee6578063b4eb0bf914610efa578063b6f680f414610f19578063b8caceee14610f38578063b8f82b2614610f4c578063b9a8effa14610f6b578063bb14e46614610f7f578063bbc6f1dc14610f9e578063be6b4d2a14610fbd578063beabacc814610fea578063c1fdcd6214611009578063c9c1661b14611028578063cbde2b6814611047578063cbe52ae314611066578063cecc95a714611085578063cfcc220914611099578063d01a3269146110b8578063d0643b8c146110d7578063d1f810a5146110f6578063d2c725e014611115578063d64bc25d14611129578063d86c3fef1461115e578063d8f4cf3c1461117d578063dab505791461119c578063dc4402ed146111bb578063df138458146111da578063e2ddce111461120f578063e460a8a91461122e578063e594868914611275578063e5b08ffb14611294578063ebfeb0a1146112c8578063eeda9991146112e7578063f132009714611306578063ff44deab14611336576104cc565b366104cc57604051637911c44b60e11b815260040160405180910390fd5b34156104eb57604051637911c44b60e11b815260040160405180910390fd5b6104f361137b565b005b348015610500575f5ffd5b506104f361050f36600461a075565b61138d565b34801561051f575f5ffd5b506104f361052e36600461a0b3565b611401565b34801561053e575f5ffd5b506104f361054d36600461a284565b61140d565b34801561055d575f5ffd5b5061057161056c36600461a6ca565b6114ad565b6040519081526020015b60405180910390f35b34801561058f575f5ffd5b506105a361059e36600461a7f6565b6114c3565b60405161057b95949392919061aa46565b3480156105bf575f5ffd5b506105716105ce36600461aa98565b611598565b3480156105de575f5ffd5b506104f36105ed36600461aae7565b6115ae565b3480156105fd575f5ffd5b506104f361060c36600461ab1a565b6115ef565b34801561061c575f5ffd5b506104f361062b36600461ab4c565b611619565b34801561063b575f5ffd5b5061064f61064a36600461ab98565b611627565b60405161057b919061abcf565b348015610667575f5ffd5b506104f361067636600461abe1565b611642565b348015610686575f5ffd5b50610571611668565b34801561069a575f5ffd5b506105716106a936600461ac0d565b611676565b3480156106b9575f5ffd5b506106cd6106c836600461ac37565b61174a565b604051901515815260200161057b565b3480156106e8575f5ffd5b506106fc6106f736600461ac85565b61176e565b60405161057b919061ad6d565b348015610714575f5ffd5b506104f361072336600461ac0d565b611781565b348015610733575f5ffd5b5061074761074236600461a0b3565b61178b565b60405161057b919061ad7f565b34801561075f575f5ffd5b506104f361076e36600461ad91565b611844565b34801561077e575f5ffd5b506104f361078d36600461a075565b611970565b34801561079d575f5ffd5b50610571611980565b3480156107b1575f5ffd5b506104f36107c036600461add4565b611989565b3480156107d0575f5ffd5b506107e46107df36600461aead565b6119fc565b60405161057b9392919061aede565b3480156107fe575f5ffd5b5061081261080d36600461af08565b611b46565b60405161057b919061afae565b34801561082a575f5ffd5b5061083e61083936600461ac85565b611c82565b60405161057b979695949392919061afe6565b34801561085c575f5ffd5b5061057161086b36600461a0b3565b611d01565b34801561087b575f5ffd5b506104f361088a36600461b0ac565b611d23565b34801561089a575f5ffd5b506104f36108a936600461ac0d565b611d42565b3480156108b9575f5ffd5b506108cd6108c836600461b106565b611d64565b60405161057b9392919061b137565b3480156108e7575f5ffd5b506104f36108f636600461b14d565b611f74565b348015610906575f5ffd5b5061057161091536600461a0b3565b611f7d565b348015610925575f5ffd5b506104f361093436600461b164565b611ffa565b348015610944575f5ffd5b506104f361095336600461b1a6565b61210b565b348015610963575f5ffd5b5061057161097236600461b1c2565b61212d565b348015610982575f5ffd5b506108cd61099136600461b1ee565b61215d565b3480156109a1575f5ffd5b506104f36109b036600461ac0d565b6001600160a01b039091165f908152600d6020526040902055565b3480156109d6575f5ffd5b506107476109e536600461a0b3565b6121e0565b3480156109f5575f5ffd5b506104f3610a0436600461ac0d565b61228b565b348015610a14575f5ffd5b506106cd610a2336600461ac0d565b612295565b348015610a33575f5ffd5b506108cd610a4236600461b1ee565b6122aa565b348015610a52575f5ffd5b506104f3610a6136600461a075565b6124f1565b348015610a71575f5ffd5b50610a85610a8036600461b275565b612550565b60405161057b919061b2c2565b348015610a9d575f5ffd5b506104f3610aac36600461a075565b612562565b348015610abc575f5ffd5b50610ad0610acb36600461b2d0565b61256d565b60405161057b919061b33c565b348015610ae8575f5ffd5b50610afc610af736600461b34e565b612635565b60405161057b9392919061b37f565b348015610b16575f5ffd5b50610571610b2536600461a0b3565b6001600160a01b03165f9081526020819052604090205490565b348015610b4a575f5ffd5b506104f3610b5936600461b418565b61279e565b348015610b69575f5ffd5b506104f3610b7836600461b1a6565b6128f4565b348015610b88575f5ffd5b506104f3610b9736600461b14d565b612916565b348015610ba7575f5ffd5b50610812610bb636600461b4f9565b612922565b348015610bc6575f5ffd5b50610812610bd536600461b5aa565b612b30565b348015610be5575f5ffd5b506104f3610bf436600461a0b3565b612d5e565b348015610c04575f5ffd5b506104f3610c1336600461b6bf565b612d68565b348015610c23575f5ffd5b506104f3612d7b565b348015610c37575f5ffd5b506104f3610c4636600461a075565b612d87565b348015610c56575f5ffd5b506104f3612db6565b348015610c6a575f5ffd5b506104f3610c7936600461b1c2565b6001600160a01b039182165f90815260016020526040902060020180546001600160a01b03191691909216179055565b348015610cb4575f5ffd5b506104f3610cc336600461ac0d565b612dc3565b348015610cd3575f5ffd5b50610571612dcd565b348015610ce7575f5ffd5b506104f3610cf636600461b164565b612dd9565b348015610d06575f5ffd5b506104f3610d1536600461b164565b612e01565b348015610d25575f5ffd5b506104f3610d3436600461a0b3565b612ea6565b348015610d44575f5ffd5b507f00000000000000000000000000000000000000000000000000000000000000005b60405161057b919061b6da565b348015610d7f575f5ffd5b50610571610d8e36600461b1c2565b612eb0565b348015610d9e575f5ffd5b506104f3610dad36600461ac0d565b612edf565b348015610dbd575f5ffd5b506104f3610dcc36600461ac85565b612f01565b348015610ddc575f5ffd5b506104f3610deb36600461ac0d565b612f30565b348015610dfb575f5ffd5b506104f3612f52565b348015610e0f575f5ffd5b50610571610e1e36600461a0b3565b612f72565b348015610e2e575f5ffd5b5061064f610e3d36600461b6ee565b612f94565b348015610e4d575f5ffd5b506104f3610e5c36600461b1c2565b6001600160a01b039182165f908152600e6020526040902080546001600160a01b03191691909216179055565b348015610e94575f5ffd5b506104f3610ea336600461b73a565b612fb2565b348015610eb3575f5ffd5b506104f3610ec236600461a075565b612fbe565b348015610ed2575f5ffd5b506104f3610ee136600461ac0d565b613021565b348015610ef1575f5ffd5b5061057161302b565b348015610f05575f5ffd5b506104f3610f1436600461b14d565b613034565b348015610f24575f5ffd5b506104f3610f3336600461b73a565b61303d565b348015610f43575f5ffd5b506104f3613049565b348015610f57575f5ffd5b50610571610f6636600461ac0d565b613051565b348015610f76575f5ffd5b50610d67613153565b348015610f8a575f5ffd5b506104f3610f9936600461b77d565b61315c565b348015610fa9575f5ffd5b50610571610fb836600461ac0d565b613248565b348015610fc8575f5ffd5b50610fdc610fd736600461b7e7565b6132cd565b60405161057b92919061b855565b348015610ff5575f5ffd5b506106cd61100436600461a075565b6132eb565b348015611014575f5ffd5b506104f361102336600461b863565b613302565b348015611033575f5ffd5b50610fdc61104236600461b1c2565b61344f565b348015611052575f5ffd5b506104f361106136600461b1a6565b6134e3565b348015611071575f5ffd5b5061057161108036600461ac0d565b613505565b348015611090575f5ffd5b506104f36135d3565b3480156110a4575f5ffd5b506104f36110b336600461ac0d565b6135e4565b3480156110c3575f5ffd5b506104f36110d236600461a075565b613606565b3480156110e2575f5ffd5b506104f36110f136600461ac0d565b61365e565b348015611101575f5ffd5b5061057161111036600461ac0d565b613672565b348015611120575f5ffd5b506106cd6136c2565b348015611134575f5ffd5b506104f361114336600461ac0d565b6001600160a01b039091165f90815260086020526040902055565b348015611169575f5ffd5b5061064f61117836600461b968565b6136cb565b348015611188575f5ffd5b506104f361119736600461b9c7565b6136fe565b3480156111a7575f5ffd5b506104f36111b636600461ba59565b6137d0565b3480156111c6575f5ffd5b5061064f6111d536600461ab98565b613931565b3480156111e5575f5ffd5b506104f36111f436600461ac0d565b6001600160a01b039091165f90815260208190526040902055565b34801561121a575f5ffd5b506104f361122936600461b1a6565b613956565b348015611239575f5ffd5b5061124d61124836600461a0b3565b61396e565b604080518251151581526020808401511515908201529181015115159082015260600161057b565b348015611280575f5ffd5b5061081261128f36600461bb5c565b6139d6565b34801561129f575f5ffd5b506105716112ae36600461a0b3565b6001600160a01b03165f908152600b602052604090205490565b3480156112d3575f5ffd5b506105716112e236600461bbdd565b613c25565b3480156112f2575f5ffd5b506104f361130136600461a7f6565b613c30565b348015611311575f5ffd5b5061132561132036600461b0ac565b613c43565b60405161057b95949392919061bc20565b348015611341575f5ffd5b506104f361135036600461a075565b6001600160a01b039283165f908152600c602090815260408083209490951682529290925291902055565b61138b611386613ca1565b613cc5565b565b60405163a9059cbb60e01b81526001600160a01b0384169063a9059cbb906113bb908590859060040161bc72565b6020604051808303815f875af11580156113d7573d5f5f3e3d5ffd5b505050506040513d601f19601f820116820180604052508101906113fb919061bc8b565b50505050565b61140a81613ce3565b50565b611415613d0c565b7f00000000000000000000000000000000000000000000000000000000000000006001600160a01b0316630e0677ab8561144e86611b46565b85855f611459613d32565b6040518763ffffffff1660e01b815260040161147a9695949392919061bcfb565b5f604051808303815f87803b158015611491575f5ffd5b505af11580156114a3573d5f5f3e3d5ffd5b5050505050505050565b5f6114b9848484613d55565b90505b9392505050565b6114cb619e98565b6060805f60605f876040516020016114e3919061bd66565b604051602081830303815290604052805190602001209050611506898989613e28565b6040519398509196509450925061152190899060200161bd66565b60405160208183030381529060405280519060200120811461158a5760405162461bcd60e51b815260206004820152601d60248201527f496e70757420706172616d65746572732068617665206368616e67656400000060448201526064015b60405180910390fd5b509697929691955093509150565b5f6115a585858585614450565b95945050505050565b6001600160a01b0382165f908152602081905260409020546115d090826144e3565b6001600160a01b039092165f9081526020819052604090209190915550565b6115f982826145ef565b6001600160a01b039093165f908152600b60205260409020929092555050565b6116238282614633565b5050565b61162f619e98565b61163983836146a6565b90505b92915050565b6116618161165b8460075461472390919063ffffffff16565b90614741565b6007555050565b5f61167161474e565b905090565b5f61167f614772565b6116876147b0565b6001600160a01b0383165f818152600860205260408082205490516370a0823160e01b81529092906370a08231906116c390309060040161b6da565b602060405180830381865afa1580156116de573d5f5f3e3d5ffd5b505050506040513d601f19601f82011682018060405250810190611702919061bddd565b6001600160a01b0386165f9081526008602052604090208190559050611728828261be08565b925083831115611736578392505b61174085846147dc565b505061163c6147f7565b5f6117573385878561480e565b61176333858585614860565b506001949350505050565b611776619ed4565b6114b98484846149be565b6116238282614a32565b6001600160a01b0381165f90815260056020908152604080832060039092529091205460609190806001600160401b038111156117ca576117ca61a0ce565b6040519080825280602002602001820160405280156117f3578160200160208202803683370190505b5092505f5b8181101561183c575f8181526020849052604090205461181790614ba6565b8482815181106118295761182961be1b565b60209081029190910101526001016117f8565b505050919050565b6001600160a01b0383165f908152600360209081526040808320805482518185028101850190935280835291929091908301828280156118ab57602002820191905f5260205f20905b81546001600160a01b0316815260019091019060200180831161188d575b5050505050905082518151146118d35760405162461bcd60e51b81526004016115819061be2f565b81518151146118f45760405162461bcd60e51b81526004016115819061be2f565b6001600160a01b0384165f908152600560205260408120905b82518110156119685761195285828151811061192b5761192b61be1b565b60200260200101518583815181106119455761194561be1b565b60200260200101516145ef565b5f8281526020849052604090205560010161190d565b505050505050565b61197b838383614bb2565b505050565b5f611671614d25565b611991613d0c565b5f61199a613d32565b6001815290506001600160a01b037f00000000000000000000000000000000000000000000000000000000000000001663ed05beaf856119d986611b46565b855f866040518663ffffffff1660e01b815260040161147a95949392919061be70565b5f606080611a086147b0565b8351611a1381614d49565b8451611a1e90614d71565b5f611a2d865f015160016146a6565b9050611a43816020015151876060015151614d79565b60c081015160a082015160608801515f92611a5d92614d99565b9050611a6b825f0151614e8b565b15611adf5786516001600160a01b039081165f90815260026020526040902054611a9d91839133918b91879116614f4b565b86516001600160a01b03165f908152600560205260409020611ac29083906001614ff6565b60c082015160a08301516060890151611adc929091614d99565b90505b6060611aec83898461507e565b8651939a509198509096509150611b029061574d565b15611b3b5787516001600160a01b039081165f908152600260205260409020548451911690611b379033848a8c8e8a88615767565b9650505b505050509193909250565b606081516001600160401b03811115611b6157611b6161a0ce565b604051908082528060200260200182016040528015611b9a57816020015b611b87619f16565b815260200190600190039081611b7f5790505b5090505f5b8251811015611bf457828181518110611bba57611bba61be1b565b6020026020010151828281518110611bd457611bd461be1b565b60209081029190910101516001600160a01b039091169052600101611b9f565b5060405163bb4ad7d560e01b81526001600160a01b037f0000000000000000000000000000000000000000000000000000000000000000169063bb4ad7d590611c4190849060040161afae565b5f60405180830381865afa158015611c5b573d5f5f3e3d5ffd5b505050506040513d5f823e601f3d908101601f1916820160405261163c919081019061beb9565b6040805160e0810182525f8082526020820181905291810182905260608082018390526080820183905260a0820183905260c0820152819081908190611cc6619f3e565b611cce619e98565b5f611cda8b8b8b6149be565b9050611ce88b8b8b84615917565b929e919d909c929b909a50919850909650945050505050565b6001600160a01b0381165f908152600b60205260408120546114bc8184615d99565b611d2b614772565b611d3683838361507e565b5050505061197b6147f7565b6001600160a01b0382165f908152602081905260409020546115d09082615e52565b5f5f5f611d6f6147b0565b8360200151611d7d81614d49565b611d8a8560200151614d71565b84608001515f03611dae576040516357a456b760e01b815260040160405180910390fd5b84606001516001600160a01b031685604001516001600160a01b031603611de85760405163a54b181d60e01b815260040160405180910390fd5b5f611df8866020015160016146a6565b90505f611e058783615f64565b90505f611e138883856149be565b9050611e21835f0151615fbf565b15611e9a576020808901516001600160a01b038082165f9081526002909352604090922054611e539284929116615fce565b6020808901516001600160a01b03165f908152600590915260409020611e7c9084906001614ff6565b611e87888484613d55565b6040830152611e978883856149be565b90505b8251611ea59061605d565b15611ee35760208089015160608401516001600160a01b038083165f9081526002909452604090932054611edd93859392911661606c565b60608301525b5f611ef089848685615917565b8751939b5090995097509150611f0590616137565b15611f43576020808a01516001600160a01b039081165f90815260029092526040909120548551911690611f3f90838b338e898b88616146565b9850505b5f89516001811115611f5757611f5761a8c7565b03611f6457879550611f68565b8796505b50505050509193909250565b61140a81616387565b5f611f86614772565b6040516315afd40960e01b815230906315afd40990611fab9085905f9060040161bc72565b6020604051808303815f875af1158015611fc7573d5f5f3e3d5ffd5b505050506040513d601f19601f82011682018060405250810190611feb919061bddd565b9050611ff56147f7565b919050565b5f81516001600160401b038111156120145761201461a0ce565b60405190808252806020026020018201604052801561204d57816020015b61203a619f16565b8152602001906001900390816120325790505b509050612058619f62565b5f5b83518110156120af578381815181106120755761207561be1b565b602002602001015183828151811061208f5761208f61be1b565b60209081029190910101516001600160a01b03909116905260010161205a565b507f00000000000000000000000000000000000000000000000000000000000000006001600160a01b031663d396a6668584845f6120eb613d32565b6040518663ffffffff1660e01b815260040161147a95949392919061bf9d565b6001600160a01b0382165f908152602081905260409020546115d09082614741565b6001600160a01b038083165f90815260066020908152604080832093851683529290529081205461163990614ba6565b5f5f5f612168614772565b6040516343583be560e01b815230906343583be59061218b90879060040161bfec565b6060604051808303815f875af11580156121a7573d5f5f3e3d5ffd5b505050506040513d601f19601f820116820180604052508101906121cb919061c03f565b9250925092506121d96147f7565b9193909250565b6001600160a01b0381165f90815260056020908152604080832060039092529091205460609190806001600160401b0381111561221f5761221f61a0ce565b604051908082528060200260200182016040528015612248578160200160208202803683370190505b5092505f5b8181101561183c575f8181526020849052604090205460801c8482815181106122785761227861be1b565b602090810291909101015260010161224d565b6116238282616396565b5f61163982846122a36163a3565b91906163c7565b5f5f5f6122b56147b0565b6122bd6163e5565b83604001516122cb8161640e565b6122d3614772565b5f85604001516001600160a01b03166338d52e0f6040518163ffffffff1660e01b8152600401602060405180830381865afa158015612314573d5f5f3e3d5ffd5b505050506040513d601f19601f82011682018060405250810190612338919061c06a565b9050612348866040015182616447565b61235a86604001518760600151616496565b6001866020015160018111156123725761237261a8c7565b036123e8575f61238f875f01518389604001518a606001516164d9565b6040808b0151905193985091965092506001600160a01b0316907feeb740c90bf2b18c9532eb7d473137767036d893dff3e009f32718f821b2a4c0906123da9088908890869061b137565b60405180910390a250612455565b5f612400875f01518389604001518a6060015161686b565b6040808b0151905193985091965092506001600160a01b0316907f3771d13c67011e31e12031c54bb59b0bf544a80b81d280a3711e172aa8b7f47b9061244b9088908890869061b137565b60405180910390a2505b5f865160018111156124695761246961a8c7565b036124a257856080015183101561249a57608086015160405163e2ea151b60e01b815261158191859160040161b855565b8294506124d2565b85608001518411156124ce57608086015160405163e2ea151b60e01b815261158191869160040161b855565b8394505b6124e0866040015186616496565b506124e96147f7565b509193909250565b6001600160a01b038084165f908152600660209081526040808320938616835292905220546125209082616c6c565b6001600160a01b039384165f90815260066020908152604080832095909616825293909352929091209190915550565b612558619f3e565b6116398383615f64565b61197b838383616c7b565b60605f61257f61257b616d6d565b5c90565b90508015155f0361259d5761259d6001612597616d6d565b90616d91565b6125de84848080601f0160208091040260200160405190810160405280939291908181526020018383808284375f920191909152503393925050616d989050565b91508015155f0361262e576125f461257b61474e565b15612612576040516320f1d86d60e01b815260040160405180910390fd5b61261e5f612597616d6d565b61262e612629616da5565b616dc9565b5092915050565b60605f60606126426147b0565b835161264d81614d49565b845161265890614d71565b61267a61266661257b616da5565b865160016126726163a3565b929190616ddf565b5f612688865f01515f6146a6565b905061269e816020015151876040015151614d79565b60c081015160a082015160408801515f926126b892616df4565b90506126c6825f0151616edc565b156127395786516001600160a01b039081165f908152600260205260409020546126f891339184918b91879116616eeb565b86516001600160a01b03165f90815260056020526040812061271c91849190614ff6565b60c082015160a08301516040890151612736929091616df4565b90505b6060612746838984613e28565b8651939a509098509650915061275b90616f96565b15611b3b5787516001600160a01b039081165f9081526002602052604090205484519116906127909033848b8b8e8a88616fa5565b975050505050509193909250565b6001600160a01b0382165f9081526020819052604090205460c08201516127c6908290614741565b90506127df8260e001518261714490919063ffffffff16565b90506127f98261012001518261716690919063ffffffff16565b90506128138261010001518261718c90919063ffffffff16565b905061282c826020015182615e5290919063ffffffff16565b905061283c81836040015161719c565b905061285582606001518261729190919063ffffffff16565b905061286e8260800151826173b090919063ffffffff16565b90506128878260a00151826144e390919063ffffffff16565b8251519091506128989082906174b1565b8251602001519091506128ac9082906174cc565b8251604001519091506128c09082906174e7565b8251606001519091506128d4908290617502565b6001600160a01b039093165f908152602081905260409020929092555050565b6001600160a01b0382165f908152602081905260409020546115d09082617144565b61140a8161259761474e565b606082516001600160401b0381111561293d5761293d61a0ce565b60405190808252806020026020018201604052801561297657816020015b612963619f16565b81526020019060019003908161295b5790505b5090505f5b8351811015612aa2578381815181106129965761299661be1b565b60200260200101518282815181106129b0576129b061be1b565b60209081029190910101516001600160a01b03909116905282518390829081106129dc576129dc61be1b565b60200260200101518282815181106129f6576129f661be1b565b6020026020010151604001906001600160a01b031690816001600160a01b0316815250505f6001600160a01b0316838281518110612a3657612a3661be1b565b60200260200101516001600160a01b031614612a53576001612a55565b5f5b828281518110612a6757612a6761be1b565b6020026020010151602001906001811115612a8457612a8461a8c7565b90816001811115612a9757612a9761a8c7565b90525060010161297b565b5060405163bb4ad7d560e01b81526001600160a01b037f0000000000000000000000000000000000000000000000000000000000000000169063bb4ad7d590612aef90849060040161afae565b5f60405180830381865afa158015612b09573d5f5f3e3d5ffd5b505050506040513d5f823e601f3d908101601f19168201604052611639919081019061beb9565b606084516001600160401b03811115612b4b57612b4b61a0ce565b604051908082528060200260200182016040528015612b8457816020015b612b71619f16565b815260200190600190039081612b695790505b5090505f5b8551811015612cd057858181518110612ba457612ba461be1b565b6020026020010151828281518110612bbe57612bbe61be1b565b60209081029190910101516001600160a01b0390911690528451859082908110612bea57612bea61be1b565b6020026020010151828281518110612c0457612c0461be1b565b6020026020010151602001906001811115612c2157612c2161a8c7565b90816001811115612c3457612c3461a8c7565b81525050838181518110612c4a57612c4a61be1b565b6020026020010151828281518110612c6457612c6461be1b565b6020026020010151604001906001600160a01b031690816001600160a01b031681525050828181518110612c9a57612c9a61be1b565b6020026020010151828281518110612cb457612cb461be1b565b6020908102919091010151901515606090910152600101612b89565b5060405163bb4ad7d560e01b81526001600160a01b037f0000000000000000000000000000000000000000000000000000000000000000169063bb4ad7d590612d1d90849060040161afae565b5f60405180830381865afa158015612d37573d5f5f3e3d5ffd5b505050506040513d5f823e601f3d908101601f191682016040526115a5919081019061beb9565b8061162381614d49565b600754612d759082614723565b60075550565b61138b5f612597616d6d565b6001600160a01b038084165f90815260066020908152604080832093861683529290522054612520908261751d565b61138b6001612597616d6d565b6116238282617530565b5f61167161257b616da5565b6001600160a01b0382165f908152600360209081526040909120825161197b92840190619f81565b612e09613d0c565b612e11619f62565b7f00000000000000000000000000000000000000000000000000000000000000006001600160a01b031663d396a66684612e4a85611b46565b845f612e54613d32565b6040518663ffffffff1660e01b8152600401612e7495949392919061bf9d565b5f604051808303815f87803b158015612e8b575f5ffd5b505af1158015612e9d573d5f5f3e3d5ffd5b50505050505050565b8061162381617598565b6001600160a01b038281165f90815260066020908152604080832093851683529290529081205460801c611639565b6001600160a01b0382165f908152602081905260409020546115d09082617291565b612f09614772565b5f612f158484846149be565b9050612f2384848484615917565b505050505061197b6147f7565b6001600160a01b0382165f908152602081905260409020546115d0908261719c565b612f5a614772565b612f626136c2565b612f6a575f5ffd5b61138b6147f7565b6001600160a01b0381165f908152600b60205260408120546114bc81846175c0565b612f9c619e98565b612fa8858585856175fd565b5093949350505050565b6113fb848484846176ce565b612fc6614772565b612fce6147b0565b612fd88382616396565b6001600160a01b0383165f9081526008602052604081208054839290612fff90849061be08565b9091555061301990506001600160a01b0384168383617726565b61197b6147f7565b61162382826147dc565b5f611671616d6d565b61140a81617731565b6113fb84848484617772565b61138b6147b0565b5f8115806130d357506001600160a01b03831663ef8b30f761307460018561be08565b6040518263ffffffff1660e01b815260040161309291815260200190565b602060405180830381865afa1580156130ad573d5f5f3e3d5ffd5b505050506040513d601f19601f820116820180604052508101906130d1919061bddd565b155b156130df57505f61163c565b61314a5f846001600160a01b03166338d52e0f6040518163ffffffff1660e01b8152600401602060405180830381865afa15801561311f573d5f5f3e3d5ffd5b505050506040513d601f19601f82011682018060405250810190613143919061c06a565b858561686b565b50949350505050565b5f611671613ca1565b5f5b82518110156113fb578181815181106131795761317961be1b565b602002602001015160045f866001600160a01b03166001600160a01b031681526020019081526020015f205f8584815181106131b7576131b761be1b565b6020908102919091018101516001600160a01b031682528101919091526040015f2081518154829060ff1916600183818111156131f6576131f661a8c7565b0217905550602082015181546040909301511515600160a81b0260ff60a81b196001600160a01b039092166101000291909116610100600160b01b03199093169290921791909117905560010161315e565b5f815f0361325757505f61163c565b6132c36001846001600160a01b03166338d52e0f6040518163ffffffff1660e01b8152600401602060405180830381865afa158015613298573d5f5f3e3d5ffd5b505050506040513d601f19601f820116820180604052508101906132bc919061c06a565b85856164d9565b5090949350505050565b5f5f6132dc87878787876177bc565b915091505b9550959350505050565b5f6132f833858585614860565b5060019392505050565b6001600160a01b0382165f9081526020819052604090205481516133279082906178d9565b90506133408260200151826178ff90919063ffffffff16565b905061335982604001518261790f90919063ffffffff16565b905061337282606001518261792a90919063ffffffff16565b905061338b82608001518261794590919063ffffffff16565b90506133a48260a001518261796090919063ffffffff16565b90506133bd8260c001518261797b90919063ffffffff16565b90506133d68260e001518261799690919063ffffffff16565b90506133f0826101000151826179b190919063ffffffff16565b905061340a826101200151826179cc90919063ffffffff16565b6001600160a01b039384165f9081526020818152604080832093909355610140949094015160029094522080546001600160a01b031916929093169190911790915550565b5f5f8361345b816179e7565b6001600160a01b0385165f908152600360209081526040808320805482518185028101850190935280835291929091908301828280156134c257602002820191905f5260205f20905b81546001600160a01b031681526001909101906020018083116134a4575b505050505090505f6134d48287617a0f565b91519791965090945050505050565b6001600160a01b0382165f908152602081905260409020546115d0908261718c565b5f81158061358757506001600160a01b038316634cdad50661352860018561be08565b6040518263ffffffff1660e01b815260040161354691815260200190565b602060405180830381865afa158015613561573d5f5f3e3d5ffd5b505050506040513d601f19601f82011682018060405250810190613585919061bddd565b155b1561359357505f61163c565b61314a5f846001600160a01b03166338d52e0f6040518163ffffffff1660e01b8152600401602060405180830381865afa158015613298573d5f5f3e3d5ffd5b6135db6136c2565b1561138b575f5ffd5b6001600160a01b0382165f908152602081905260409020546115d09082617a78565b61360e614772565b60405163ae63932960e01b8152309063ae639329906136359086908690869060040161c085565b5f604051808303815f87803b15801561364c575f5ffd5b505af1158015611d36573d5f5f3e3d5ffd5b611623828261366b614d25565b9190617ab1565b5f815f0361368157505f61163c565b6132c36001846001600160a01b03166338d52e0f6040518163ffffffff1660e01b8152600401602060405180830381865afa15801561311f573d5f5f3e3d5ffd5b5f611671617ac2565b6136d3619e98565b6001600160a01b0384165f9081526005602052604090206136f690849084614ff6565b509092915050565b815183511461371f5760405162461bcd60e51b81526004016115819061be2f565b80518351146137405760405162461bcd60e51b81526004016115819061be2f565b6001600160a01b0384165f908152600560205260408120905b84518110156137a7576137918482815181106137775761377761be1b565b60200260200101518483815181106119455761194561be1b565b5f82815260208490526040902055600101613759565b506001600160a01b0385165f908152600360209081526040909120855161196892870190619f81565b5f5b815181101561197b5760405180606001604052808383815181106137f8576137f861be1b565b60200260200101516020015160018111156138155761381561a8c7565b815260200183838151811061382c5761382c61be1b565b6020026020010151604001516001600160a01b031681526020018383815181106138585761385861be1b565b602002602001015160600151151581525060045f856001600160a01b03166001600160a01b031681526020019081526020015f205f84848151811061389f5761389f61be1b565b602090810291909101810151516001600160a01b031682528101919091526040015f2081518154829060ff1916600183818111156138df576138df61a8c7565b0217905550602082015181546040909301511515600160a81b0260ff60a81b196001600160a01b039092166101000291909116610100600160b01b0319909316929092179190911790556001016137d2565b613939619e98565b613941614772565b61394b83836146a6565b90505b61163c6147f7565b61162361396461257b616da5565b83836126726163a3565b604080516060810182525f808252602082018190529181019190915261399382614d71565b6007546040805160608101909152806139ab83617ad4565b151581526020016139bb83617ade565b151581526020016139cb83617af6565b151590529392505050565b606083516001600160401b038111156139f1576139f161a0ce565b604051908082528060200260200182016040528015613a2a57816020015b613a17619f16565b815260200190600190039081613a0f5790505b5090505f5b8451811015613b9757848181518110613a4a57613a4a61be1b565b6020026020010151828281518110613a6457613a6461be1b565b60209081029190910101516001600160a01b0390911690528351849082908110613a9057613a9061be1b565b6020026020010151828281518110613aaa57613aaa61be1b565b6020026020010151604001906001600160a01b031690816001600160a01b0316815250505f6001600160a01b0316848281518110613aea57613aea61be1b565b60200260200101516001600160a01b031614613b07576001613b09565b5f5b828281518110613b1b57613b1b61be1b565b6020026020010151602001906001811115613b3857613b3861a8c7565b90816001811115613b4b57613b4b61a8c7565b81525050828181518110613b6157613b6161be1b565b6020026020010151828281518110613b7b57613b7b61be1b565b6020908102919091010151901515606090910152600101613a2f565b5060405163bb4ad7d560e01b81526001600160a01b037f0000000000000000000000000000000000000000000000000000000000000000169063bb4ad7d590613be490849060040161afae565b5f60405180830381865afa158015613bfe573d5f5f3e3d5ffd5b505050506040513d5f823e601f3d908101601f191682016040526114b9919081019061beb9565b5f6116398383617a0f565b613c38614772565b611d36838383613e28565b613c4b619e98565b5f60608060605f87604051602001613c63919061c0b9565b604051602081830303815290604052805190602001209050613c8689898961507e565b6040519398509196509450925061152190899060200161c0b9565b7f000000000000000000000000000000000000000000000000000000000000000090565b365f5f375f5f365f845af43d5f5f3e808015613cdf573d5ff35b3d5ffd5b613cec81617b10565b1561140a578060405163d971f59760e01b8152600401611581919061b6da565b613d14617b23565b1561138b576040516336a7e2cd60e21b815260040160405180910390fd5b613d3a619fe4565b613d42619fe4565b6001602082018190526040820152919050565b5f8084516001811115613d6a57613d6a61a8c7565b14613dcf57613dca8360c00151836020015181518110613d8c57613d8c61be1b565b6020026020010151613dbe8560a00151856020015181518110613db157613db161be1b565b6020026020010151617b60565b60808701519190617b8c565b6114b9565b6114b98360c00151835f015181518110613deb57613deb61be1b565b60200260200101518460a00151845f015181518110613e0c57613e0c61be1b565b60200260200101518660800151617ba19092919063ffffffff16565b6060805f6060613e36614772565b613e3e61a00a565b6020880151518082526001600160401b03811115613e5e57613e5e61a0ce565b604051908082528060200260200182016040528015613e87578160200160208202803683370190505b50945060605f88608001516004811115613ea357613ea361a8c7565b03613f1657606088015182519094506001600160401b03811115613ec957613ec961a0ce565b604051908082528060200260200182016040528015613ef2578160200160208202803683370190505b509050613f0f8960800151613f098a5f0151617bb6565b86617bd0565b9450614161565b600388608001516004811115613f2e57613f2e61a8c7565b03613f8e578851613f3e90617c75565b86516001600160401b03811115613f5757613f5761a0ce565b604051908082528060200260200182016040528015613f80578160200160208202803683370190505b5090505f9350869450614161565b600188608001516004811115613fa657613fa661a8c7565b03613ff8578851613fb690617c9f565b869450613fc7886040015187617cc9565b613fee896080015188613fdc8b5f0151617bb6565b8c51613fe790617cea565b8c51617dd0565b9094509050614161565b6002886080015160048111156140105761401061a8c7565b0361408e57885161402090617c9f565b8760600151935061403087618184565b6040830181905260808a015189518997506140639290879061405190617bb6565b8d5161405c90617cea565b8d51618204565b868460400151815181106140795761407961be1b565b60200260200101819350828152505050614161565b6004886080015160048111156140a6576140a661a8c7565b036141485788516140b6906183a7565b8751606089015160808b015160a08b015160405163e4c4366360e01b81526001600160a01b039094169363e4c43663936140f69333938e9360040161c116565b5f604051808303815f875af1158015614111573d5f5f3e3d5ffd5b505050506040513d5f823e601f3d908101601f19168201604052614138919081019061c1f9565b9297509095509093509050614161565b604051636c02b39560e01b815260040160405180910390fd5b876060015184101561418d576060880151604051638d261d5d60e01b815261158191869160040161b855565b61419684616387565b5f5b82518110156143a7575f5f8783815181106141b5576141b561be1b565b602002602001015190506141c881616387565b8883815181106141da576141da61be1b565b60200260200101515f0361425d576142378c60c0015184815181106142015761420161be1b565b60200260200101518d60a00151858151811061421f5761421f61be1b565b6020026020010151836183d19092919063ffffffff16565b91508189848151811061424c5761424c61be1b565b60200260200101818152505061427a565b88838151811061426f5761426f61be1b565b602002602001015191505b505f8b6020015183815181106142925761429261be1b565b602002602001015190508a6040015183815181106142b2576142b261be1b565b60200260200101518211156142fd5780828c6040015185815181106142d9576142d961be1b565b60200260200101516040516323b6a17960e21b81526004016115819392919061c286565b6143078183616396565b6143308c85858151811061431d5761431d61be1b565b60200260200101518d5f015184876177bc565b8585815181106143425761434261be1b565b60200260200101876020018281525082815250505061439d838660200151848f6060015187815181106143775761437761be1b565b6020026020010151614389919061c2a7565b614393919061be08565b8e919060016183e5565b5050600101614198565b5087516143b4908a614633565b6143c6885f0151896020015186616c7b565b876080015160048111156143dc576143dc61a8c7565b88602001516001600160a01b0316895f01516001600160a01b03167fa26a52d8d53702bba7f137907b8e1f99ff87f6d450144270ca25e72481cca8716144248c5f0151617bb6565b8a866040516144359392919061c2ba565b60405180910390a450506144476147f7565b93509350935093565b5f5f856080015184815181106144685761446861be1b565b602002602001015190508481111561314a575f61448786830385618491565b90506144d88760c0015186815181106144a2576144a261be1b565b60200260200101518860a0015187815181106144c0576144c061be1b565b6020026020010151836184bd9092919063ffffffff16565b979650505050505050565b5f61163963ffffffff83166028601880806144ff87600161c2e4565b61450a90600161c2e4565b61451590600161c2e4565b61452090600161c2e4565b61452b90600161c2e4565b61453690600161c2e4565b61454190600161c2e4565b61454c90600161c2e4565b61455790600161c2e4565b61456290600161c2e4565b61456d90600161c2e4565b61457890600161c2e4565b61458390600161c2e4565b61458e90600161c2e4565b61459990600161c2e4565b6145a490600161c2e4565b6145af90600161c2e4565b6145ba90600161c2e4565b60ff166145c7919061c2a7565b6145d1919061c2a7565b6145db919061c2a7565b6145e5919061c2a7565b85919060206184d1565b5f6001600160801b0383118061460b57506001600160801b0382115b15614629576040516389560ca160e01b815260040160405180910390fd5b61163983836184f2565b6001600160a01b0382165f908152600560205260408120905b8260600151518110156113fb57614690836060015182815181106146725761467261be1b565b6020026020010151846080015183815181106119455761194561be1b565b5f8281526020849052604090205560010161464c565b6146ae619e98565b6146b6614772565b6001600160a01b0383165f90815260056020908152604080832083835281842054600484528285206003909452919093206146f693859390929187618501565b6001600160a01b0383165f908152600560209081526040808320600690925290912061394e9183916188a2565b5f6116398261473383600161c2a7565b6001811b19861691901b1790565b5f60011983168217611639565b7f000000000000000000000000000000000000000000000000000000000000000090565b61477a617ac2565b1561479857604051633ee5aeb560e01b815260040160405180910390fd5b61138b60015f51602061c94e5f395f51905f52612597565b6147bb61257b616d6d565b15155f0361138b5760405163604dd39b60e11b815260040160405180910390fd5b611623826147e9836189e7565b6147f29061c2fd565b617530565b61138b5f5f51602061c94e5f395f51905f52612597565b5f61481a8585856189f1565b90505f198114614859578082111561484b57828183604051637dc7a0d960e11b81526004016115819392919061c286565b614859858585858503618a48565b5050505050565b6001600160a01b0383166148895782604051634b637e8f60e11b8152600401611581919061b6da565b6001600160a01b0382166148b2578160405163ec442f0560e01b8152600401611581919061b6da565b6001600160a01b038085165f908152600f6020908152604080832093871683529290522054808211156148fe5783818360405163391434e360e21b81526004016115819392919061c286565b6001600160a01b038581165f818152600f6020908152604080832089861680855290835281842088880390559488168084529281902080548801905551868152919392915f51602061c92e5f395f51905f52910160405180910390a46040516323de665160e01b81526001600160a01b038616906323de66519061498a9087908790879060040161c085565b5f604051808303815f87803b1580156149a1575f5ffd5b505af11580156149b3573d5f5f3e3d5ffd5b505050505050505050565b6149c6619ed4565b6040518060e00160405280855f015160018111156149e6576149e661a8c7565b81526020018460400151815260200183608001518152602001845f0151815260200184602001518152602001336001600160a01b031681526020018560c0015181525090509392505050565b816001600160a01b031663ce20ece76040518163ffffffff1660e01b8152600401602060405180830381865afa158015614a6e573d5f5f3e3d5ffd5b505050506040513d601f19601f82011682018060405250810190614a92919061bddd565b811015614ab2576040516317f640d160e31b815260040160405180910390fd5b816001600160a01b031663654cf15d6040518163ffffffff1660e01b8152600401602060405180830381865afa158015614aee573d5f5f3e3d5ffd5b505050506040513d601f19601f82011682018060405250810190614b12919061bddd565b811115614b3257604051637f47834b60e01b815260040160405180910390fd5b6001600160a01b0382165f90815260208190526040902054614b549082615e52565b6001600160a01b0383165f8181526020818152604091829020939093555183815290917f89d41522342fabac1471ca6073a5623e5caf367b03ca6e9a001478d0cf8be4a1910160405180910390a25050565b6001600160801b031690565b6001600160a01b038216614bdb5781604051634b637e8f60e11b8152600401611581919061b6da565b6001600160a01b038084165f908152600f602090815260408083209386168352929052205480821115614c275782818360405163391434e360e21b81526004016115819392919061c286565b6001600160a01b038085165f818152600f6020908152604080832094881683529381528382208686039055918152601190915290812054614c6990849061be08565b9050614c7481618b77565b6001600160a01b0385165f81815260116020526040808220849055516323de665160e01b81526323de665191614cb191889190889060040161c085565b5f604051808303815f87803b158015614cc8575f5ffd5b505af1925050508015614cd9575060015b505f6001600160a01b0316846001600160a01b0316866001600160a01b03165f51602061c92e5f395f51905f5286604051614d1691815260200190565b60405180910390a45050505050565b7f000000000000000000000000000000000000000000000000000000000000000090565b614d5281618b9e565b61140a5780604051634bdace1360e01b8152600401611581919061b6da565b611401613d0c565b8082146116235760405163aaad13f760e01b815260040160405180910390fd5b60605f84519050614dad8185518551618bbf565b5f816001600160401b03811115614dc657614dc661a0ce565b604051908082528060200260200182016040528015614def578160200160208202803683370190505b5090505f5b82811015614e8157614e5c868281518110614e1157614e1161be1b565b6020026020010151868381518110614e2b57614e2b61be1b565b6020026020010151898481518110614e4557614e4561be1b565b6020026020010151617b8c9092919063ffffffff16565b828281518110614e6e57614e6e61be1b565b6020908102919091010152600101614df4565b5095945050505050565b5f61163c614e9a82600161c2e4565b614ea590600161c2e4565b614eb090600161c2e4565b614ebb90600161c2e4565b614ec690600161c2e4565b614ed190600161c2e4565b614edc90600161c2e4565b614ee790600161c2e4565b614ef290600161c2e4565b614efd90600161c2e4565b614f0890600161c2e4565b614f1390600161c2e4565b614f1e90600161c2e4565b614f2990600161c2e4565b614f3490600161c2e4565b614f3f90600161c2e4565b839060ff161c60011690565b82516080808501516040808701519286015160a088015191516302e97e7d60e61b81526001600160a01b0387169563ba5f9f4095614f95958c959294909391928e9260040161c317565b6020604051808303815f875af1158015614fb1573d5f5f3e3d5ffd5b505050506040513d601f19601f82011682018060405250810190614fd5919061bc8b565b15155f0361485957604051631557c43360e11b815260040160405180910390fd5b6020830151515f805b828110156119685761502d866040015182815181106150205761502061be1b565b6020026020010151618bec565b8660a0015182815181106150435761504361be1b565b602002602001018181525050845f8281526020019081526020015f20549150615076868261507085614ba6565b876183e5565b600101614fff565b5f606080606061508c614772565b61509461a00a565b6020880151518082526001600160401b038111156150b4576150b461a0ce565b6040519080825280602002602001820160405280156150dd578160200160208202803683370190505b50935060605f886080015160038111156150f9576150f961a8c7565b0361523b57604088015182519096506001600160401b0381111561511f5761511f61a0ce565b604051908082528060200260200182016040528015615148578160200160208202803683370190505b509050615165896080015161515f8a5f0151617bb6565b88618cb5565b935061517f61517561257b616da5565b89516122a36163a3565b15615236575f6151918a5f0151617cea565b90505f5b8351811015615233576151ca828783815181106151b4576151b461be1b565b602002602001015161849190919063ffffffff16565b8382815181106151dc576151dc61be1b565b6020026020010181815250508281815181106151fa576151fa61be1b565b60200260200101518682815181106152145761521461be1b565b60200260200101818151615228919061be08565b905250600101615195565b50505b61547f565b6001886080015160038111156152535761525361a8c7565b036152d557885161526390617c9f565b8760400151955086935061527a8860600151618184565b6040830181905260808a015189516152aa9290899061529890617bb6565b8d516152a390617cea565b8d51618d5c565b858460400151815181106152c0576152c061be1b565b6020026020010181935082815250505061547f565b6002886080015160038111156152ed576152ed61a8c7565b036153a95788516152fd90617c9f565b86935061530d8860600151618184565b6040830181905260608901518051909190811061532c5761532c61be1b565b60200260200101518583604001518151811061534a5761534a61be1b565b60200260200101818152505061539f89608001518360400151868560400151815181106153795761537961be1b565b602002602001015161538d8c5f0151617bb6565b8d5161539890617cea565b8d51618ed5565b909650905061547f565b6003886080015160038111156153c1576153c161a8c7565b036154665788516153d190619246565b87516040808a015160808c015160a08c01519251632ada38a360e21b81526001600160a01b039094169363ab68e28c9361541493339390928e929060040161c379565b5f604051808303815f875af115801561542f573d5f5f3e3d5ffd5b505050506040513d5f823e601f3d908101601f19168201604052615456919081019061c3b1565b929850909550909350905061547f565b60405163137a9a3960e01b815260040160405180910390fd5b87604001518611156154ac578588604001516040516331d38e0b60e01b815260040161158192919061b855565b6154b586616387565b5f5b825181101561568d575f5f8683815181106154d4576154d461be1b565b602002602001015190506154e781616387565b8783815181106154f9576154f961be1b565b60200260200101515f036155645761553e8c60c0015184815181106155205761552061be1b565b60200260200101518d60a0015185815181106144c0576144c061be1b565b9150818884815181106155535761555361be1b565b602002602001018181525050615581565b8783815181106155765761557661be1b565b602002602001015191505b505f8b6020015183815181106155995761559961be1b565b602002602001015190508a6060015183815181106155b9576155b961be1b565b60200260200101518210156156045780828c6060015185815181106155e0576155e061be1b565b60200260200101516040516317bc2f2360e11b81526004016115819392919061c286565b61560e81836147dc565b6156248c85858151811061431d5761431d61be1b565b8585815181106156365761563661be1b565b60208981019384529081029190910101919091525161568390849061565b908561c2a7565b8e6060015186815181106156715761567161be1b565b6020026020010151614393919061be08565b50506001016154b7565b50875161569a908a614633565b6156ad885f01518960200151338961480e565b6156b5619270565b156156cc576156cc885f015189602001518861928b565b6156de885f0151896020015188614bb2565b876080015160038111156156f4576156f461a8c7565b88602001516001600160a01b0316895f01516001600160a01b03167ffbe5b0d79fb94f1e81c0a92bf86ae9d3a19e9d1bf6202c0d3e75120f65d5d8a561573c8c5f0151617bb6565b89866040516144359392919061c2ba565b5f61163c61575c82600161c2e4565b614e9a90600161c2e4565b60605f5f836001600160a01b0316632754888d8b885f015189608001518b8e8e8c608001518e60a001516040518963ffffffff1660e01b81526004016157b498979695949392919061c40a565b5f604051808303815f875af11580156157cf573d5f5f3e3d5ffd5b505050506040513d5f823e601f3d908101601f191682016040526157f6919081019061c491565b909250905081158061580a57508751815114155b15615828576040516303a6723b60e31b815260040160405180910390fd5b6158318b6192ec565b15155f0361584357879250505061590b565b5f5b815181101561590657866060015181815181106158645761586461be1b565b602002602001015182828151811061587e5761587e61be1b565b602002602001015110156158fe57856020015181815181106158a2576158a261be1b565b60200260200101518282815181106158bc576158bc61be1b565b6020026020010151886060015183815181106158da576158da61be1b565b6020026020010151604051633ef629c960e21b81526004016115819392919061c286565b600101615845565b509150505b98975050505050505050565b5f5f5f5f615923614772565b61594460405180606001604052805f81526020015f81526020015f81525090565b5f895160018111156159585761595861a8c7565b03615988576060880151602087015161597091618491565b80825260208701805161598490839061be08565b9052505b6159958660200151617731565b88602001516001600160a01b03166372c98186876040518263ffffffff1660e01b81526004016159c5919061ad6d565b6020604051808303815f875af11580156159e1573d5f5f3e3d5ffd5b505050506040513d601f19601f82011682018060405250810190615a05919061bddd565b9350615a1084617731565b5f89516001811115615a2457615a2461a8c7565b03615abf578760400151866020018181525050615a818760c00151896020015181518110615a5457615a5461be1b565b6020026020010151615a798960a001518b6020015181518110613db157613db161be1b565b8691906184bd565b60808a015160a08b01519196509350859250821015615aba5760a089015160405163e2ea151b60e01b815261158191849160040161b855565b615b76565b6060880151615ad990615ad1816192fb565b86919061930d565b808252615ae6908561c2a7565b9350615b3d8760c00151895f015181518110615b0457615b0461be1b565b60200260200101518860a001518a5f015181518110615b2557615b2561be1b565b6020026020010151866183d19092919063ffffffff16565b60808a015160a08b01519196508694509250831115615b765760a089015160405163e2ea151b60e01b815261158191859160040161b855565b615b84896040015184616396565b615b928960600151836147dc565b615bad87825f01518b602001518c604001518c5f01516177bc565b604083018190526020830191909152885160608901518051615c029391879184908110615bdc57615bdc61be1b565b6020026020010151615bee919061c2a7565b615bf8919061be08565b89919060016183e5565b615c3788602001518389606001518b6020015181518110615c2557615c2561be1b565b6020026020010151615bf8919061be08565b6020808a01516001600160a01b03165f908152600590915260409020606088015189518151615c919291908110615c7057615c7061be1b565b602002602001015189608001518b5f0151815181106119455761194561be1b565b815f8b5f015181526020019081526020015f2081905550615ce788606001518a6020015181518110615cc557615cc561be1b565b602002602001015189608001518b60200151815181106119455761194561be1b565b815f8b6020015181526020019081526020015f208190555089606001516001600160a01b03168a604001516001600160a01b03168b602001516001600160a01b03167f0874b2d545cb271cdbda4e093020c452328b24af12382ed62c4d00f5c26709db87878e606001518860200151604051615d7c949392919093845260208401929092526040830152606082015260800190565b60405180910390a45050615d8e6147f7565b945094509450949050565b5f5f615dac615da785614ba6565b6189e7565b90505f80615dba8660801c90565b1115615e3c57615e39846001600160a01b031663b3d7f6b9615ddc8860801c90565b6040518263ffffffff1660e01b8152600401615dfa91815260200190565b602060405180830381865afa158015615e15573d5f5f3e3d5ffd5b505050506040513d601f19601f82011682018060405250810190615da7919061bddd565b90505b6002615e48828461c4d4565b6115a5919061c507565b5f670de0b5cad2bef000821115615e7c576040516301d1b96560e61b815260040160405180910390fd5b615e8b64174876e8008361c533565b915061163982615e9c5f600161c2e4565b615ea790600161c2e4565b615eb290600161c2e4565b615ebd90600161c2e4565b615ec890600161c2e4565b615ed390600161c2e4565b615ede90600161c2e4565b615ee990600161c2e4565b615ef490600161c2e4565b615eff90600161c2e4565b615f0a90600161c2e4565b615f1590600161c2e4565b615f2090600161c2e4565b615f2b90600161c2e4565b615f3690600161c2e4565b615f4190600161c2e4565b615f4c90600161c2e4565b615f5790600161c2e4565b85919060ff1660186184d1565b615f6c619f3e565b615f7e82602001518460400151617a0f565b815260208201516060840151615f949190617a0f565b6020820152615fa4838383613d55565b60408201528151615fb490617cea565b606082015292915050565b5f61163c614ec682600161c2e4565b604051635211fa7760e01b81526001600160a01b03821690635211fa7790615ffc908690869060040161c546565b6020604051808303815f875af1158015616018573d5f5f3e3d5ffd5b505050506040513d601f19601f8201168201806040525081019061603c919061bc8b565b15155f0361197b5760405163e91e17e760e01b815260040160405180910390fd5b5f61163c614ed182600161c2e4565b5f5f5f836001600160a01b031663a0e8f5ac8888886040518463ffffffff1660e01b815260040161609f9392919061c56f565b6040805180830381865afa1580156160b9573d5f5f3e3d5ffd5b505050506040513d601f19601f820116820180604052508101906160dd919061c59c565b90925090508115155f03616104576040516314fe5db560e21b815260040160405180910390fd5b670de0b5cad2bef00081111561612d576040516301d1b96560e61b815260040160405180910390fd5b9695505050505050565b5f61163c614ebb82600161c2e4565b5f8080808751600181111561615d5761615d61a8c7565b1461616d57898660400151616174565b85604001518a5b915091505f5f856001600160a01b03166318b6eb556040518061018001604052808c5f015160018111156161aa576161aa61a8c7565b81526020018c604001516001600160a01b031681526020018c606001516001600160a01b031681526020018781526020018681526020018a608001518c5f0151815181106161fa576161fa61be1b565b602002602001015181526020018a608001518c60200151815181106162215761622161be1b565b602002602001015181526020018f81526020018e81526020018d6001600160a01b031681526020018c602001516001600160a01b031681526020018c60c001518152506040518263ffffffff1660e01b8152600401616280919061c5c8565b60408051808303815f875af115801561629b573d5f5f3e3d5ffd5b505050506040513d601f19601f820116820180604052508101906162bf919061c59c565b90925090508115155f036162e657604051630568a77b60e21b815260040160405180910390fd5b6162ef8d6192ec565b15155f03616303578a94505050505061590b565b5f895160018111156163175761631761a8c7565b14801561632757508860a0015181105b8061635257506001895160018111156163425761634261a8c7565b14801561635257508860a0015181115b156163775760a089015160405163cc0e4a9960e01b815261158191839160040161b855565b9c9b505050505050505050505050565b801561140a5761140a81617731565b611623826147f2836189e7565b7f000000000000000000000000000000000000000000000000000000000000000090565b5f6114b961257b6163e2846163dc8888619352565b90619352565b90565b6163f0600754617af6565b1561138b57604051630f27df0960e01b815260040160405180910390fd5b6001600160a01b038181165f908152600e60205260409020541661140a57806040516385f4129960e01b8152600401611581919061b6da565b6001600160a01b038281165f908152600e6020526040902054811690821614611623576040516336b18d0960e01b81526001600160a01b03808416600483015282166024820152604401611581565b7f000000000000000000000000000000000000000000000000000000000000000081101561162357816040516318fe738560e01b8152600401611581919061b6da565b5f8080808760018111156164ef576164ef61a8c7565b03616581578360016001600160a01b038716634cdad506616510838561be08565b6040518263ffffffff1660e01b815260040161652e91815260200190565b602060405180830381865afa158015616549573d5f5f3e3d5ffd5b505050506040513d601f19601f8201168201806040525081019061656d919061bddd565b616577919061be08565b9093509150616609565b6001600160a01b038516630a28a47761659b86600161c2a7565b6040518263ffffffff1660e01b81526004016165b991815260200190565b602060405180830381865afa1580156165d4573d5f5f3e3d5ffd5b505050506040513d601f19601f820116820180604052508101906165f8919061bddd565b61660390600161c2a7565b92508391505b506001600160a01b0384165f908152600b602052604090205461662a619270565b616861578161663882614ba6565b1061668c575f8261664883614ba6565b039050616669818561665a8560801c90565b616664919061c2a7565b6145ef565b6001600160a01b0387165f908152600b60205260409020819055915061684d9050565b5f80808960018111156166a1576166a161a8c7565b03616745575f6166b184896175c0565b90506166ca816166c0886189e7565b615da7919061c685565b604051635d043b2960e11b81529092506001600160a01b0389169063ba087652906166fd9085903090819060040161c6ac565b6020604051808303815f875af1158015616719573d5f5f3e3d5ffd5b505050506040513d601f19601f8201168201806040525081019061673d919061bddd565b9250506167e0565b5f6167508489615d99565b90506167698161675f876189e7565b615da7919061c4d4565b604051632d182be560e21b81529093506001600160a01b0389169063b460af949061679c9086903090819060040161c6ac565b6020604051808303815f875af11580156167b8573d5f5f3e3d5ffd5b505050506040513d601f19601f820116820180604052508101906167dc919061bddd565b9150505b6167ec88888484617772565b61682e84836167fa86614ba6565b616804919061c2a7565b61680e919061be08565b828761681a8760801c90565b616824919061c2a7565b616664919061be08565b6001600160a01b0388165f908152600b60205260409020819055925050505b6168578584616396565b61686186836147dc565b9450945094915050565b5f8080808760018111156168815761688161a8c7565b03616913578360016001600160a01b03871663ef8b30f76168a2838561be08565b6040518263ffffffff1660e01b81526004016168c091815260200190565b602060405180830381865afa1580156168db573d5f5f3e3d5ffd5b505050506040513d601f19601f820116820180604052508101906168ff919061bddd565b616909919061be08565b909350915061699b565b6001600160a01b03851663b3d7f6b961692d86600161c2a7565b6040518263ffffffff1660e01b815260040161694b91815260200190565b602060405180830381865afa158015616966573d5f5f3e3d5ffd5b505050506040513d601f19601f8201168201806040525081019061698a919061bddd565b61699590600161c2a7565b92508391505b506001600160a01b0384165f908152600b60205260409020546169bc619270565b61686157816169cb8260801c90565b10616a1f575f826169dc8360801c90565b0390506169fc846169ec84614ba6565b6169f6919061c2a7565b826145ef565b6001600160a01b0387165f908152600b602052604090208190559150616c589050565b5f8080896001811115616a3457616a3461a8c7565b03616adf575f616a448489615d99565b9050616a53816166c0886189e7565b9250616a696001600160a01b038a168985619363565b604051636e553f6560e01b81526001600160a01b03891690636e553f6590616a97908690309060040161c6cb565b6020604051808303815f875af1158015616ab3573d5f5f3e3d5ffd5b505050506040513d601f19601f82011682018060405250810190616ad7919061bddd565b915050616beb565b5f616aea84896175c0565b9050616af98161675f876189e7565b60405163b3d7f6b960e01b8152600481018290529092506001600160a01b0389169063b3d7f6b990602401602060405180830381865afa158015616b3f573d5f5f3e3d5ffd5b505050506040513d601f19601f82011682018060405250810190616b63919061bddd565b9250616b796001600160a01b038a168985619363565b6040516394bf804d60e01b81526001600160a01b038916906394bf804d90616ba7908590309060040161c6cb565b6020604051808303815f875af1158015616bc3573d5f5f3e3d5ffd5b505050506040513d601f19601f82011682018060405250810190616be7919061bddd565b9250505b616bff6001600160a01b038916885f619363565b616c0b888884846176ce565b616c398286616c1986614ba6565b616c23919061c2a7565b616c2d919061be08565b858361681a8760801c90565b6001600160a01b0388165f908152600b60205260409020819055925050505b616c628684616396565b61686185836147dc565b5f611639826166648560801c90565b6001600160a01b038216616ca4578160405163ec442f0560e01b8152600401611581919061b6da565b6001600160a01b0383165f90815260116020526040812054616cc790839061c2a7565b6001600160a01b038086165f908152600f602090815260408083209388168352929052208054840190559050616cfc81618b77565b6001600160a01b038481165f81815260116020908152604080832086905551868152938716939192915f51602061c92e5f395f51905f52910160405180910390a46040516323de665160e01b81526001600160a01b038516906323de66519061147a905f908790879060040161c085565b7f000000000000000000000000000000000000000000000000000000000000000090565b80825d5050565b606061163983835f61936e565b7f000000000000000000000000000000000000000000000000000000000000000090565b61140a616dd8825c600161c2a7565b8290616d91565b6113fb816125976163e2856163dc8989619352565b60605f84519050616e088185518551618bbf565b5f816001600160401b03811115616e2157616e2161a0ce565b604051908082528060200260200182016040528015616e4a578160200160208202803683370190505b5090505f5b82811015614e8157616eb7868281518110616e6c57616e6c61be1b565b6020026020010151868381518110616e8657616e8661be1b565b6020026020010151898481518110616ea057616ea061be1b565b6020026020010151617ba19092919063ffffffff16565b828281518110616ec957616ec961be1b565b6020908102919091010152600101616e4f565b5f61163c614eb082600161c2e4565b825160808085015160608601519185015160a08701516040516345421ec760e01b81526001600160a01b038716956345421ec795616f35958d95929490938d93919060040161c6e2565b6020604051808303815f875af1158015616f51573d5f5f3e3d5ffd5b505050506040513d601f19601f82011682018060405250810190616f75919061bc8b565b15155f03614859576040516305975b2960e11b815260040160405180910390fd5b5f61163c614ea582600161c2e4565b60605f5f836001600160a01b031663976907cc8b885f015189608001518d8d8d8c608001518e60a001516040518963ffffffff1660e01b8152600401616ff298979695949392919061c730565b5f604051808303815f875af115801561700d573d5f5f3e3d5ffd5b505050506040513d5f823e601f3d908101601f19168201604052617034919081019061c491565b909250905081158061704857508751815114155b156170665760405163e124916560e01b815260040160405180910390fd5b61706f8b6192ec565b15155f0361708157879250505061590b565b5f5b815181101561590657866040015181815181106170a2576170a261be1b565b60200260200101518282815181106170bc576170bc61be1b565b6020026020010151111561713c57856020015181815181106170e0576170e061be1b565b60200260200101518282815181106170fa576170fa61be1b565b6020026020010151886040015183815181106171185761711861be1b565b602002602001015160405163677d1d7d60e11b81526004016115819392919061c286565b600101617083565b5f6116398261715483600161c2e4565b60ff1690811b600190911b1985161790565b5f6116398261717683600161c2e4565b61718190600161c2e4565b61715490600161c2e4565b5f6116398261718183600161c2e4565b5f6171ac64174876e8008361c533565b91506116398260186171bf5f600161c2e4565b6171ca90600161c2e4565b6171d590600161c2e4565b6171e090600161c2e4565b6171eb90600161c2e4565b6171f690600161c2e4565b61720190600161c2e4565b61720c90600161c2e4565b61721790600161c2e4565b61722290600161c2e4565b61722d90600161c2e4565b61723890600161c2e4565b61724390600161c2e4565b61724e90600161c2e4565b61725990600161c2e4565b61726490600161c2e4565b61726f90600161c2e4565b61727a90600161c2e4565b60ff16617287919061c2a7565b85919060186184d1565b5f670de0b5cad2bef0008211156172bb576040516301d1b96560e61b815260040160405180910390fd5b6172ca64174876e8008361c533565b9150611639826018806172de5f600161c2e4565b6172e990600161c2e4565b6172f490600161c2e4565b6172ff90600161c2e4565b61730a90600161c2e4565b61731590600161c2e4565b61732090600161c2e4565b61732b90600161c2e4565b61733690600161c2e4565b61734190600161c2e4565b61734c90600161c2e4565b61735790600161c2e4565b61736290600161c2e4565b61736d90600161c2e4565b61737890600161c2e4565b61738390600161c2e4565b61738e90600161c2e4565b61739990600161c2e4565b60ff166173a6919061c2a7565b617287919061c2a7565b5f61163964ffffffffff8316601880806173cb86600161c2e4565b6173d690600161c2e4565b6173e190600161c2e4565b6173ec90600161c2e4565b6173f790600161c2e4565b61740290600161c2e4565b61740d90600161c2e4565b61741890600161c2e4565b61742390600161c2e4565b61742e90600161c2e4565b61743990600161c2e4565b61744490600161c2e4565b61744f90600161c2e4565b61745a90600161c2e4565b61746590600161c2e4565b61747090600161c2e4565b61747b90600161c2e4565b61748690600161c2e4565b60ff16617493919061c2a7565b61749d919061c2a7565b6174a7919061c2a7565b85919060286184d1565b5f611639826174c183600161c2e4565b61717690600161c2e4565b5f611639826174dc83600161c2e4565b6174c190600161c2e4565b5f611639826174f783600161c2e4565b6174dc90600161c2e4565b5f6116398261751283600161c2e4565b6174f790600161c2e4565b5f61163961752a84614ba6565b836145ef565b805f0361753b575050565b5f61754e83617548614d25565b906193ff565b90505f61755b838361c685565b9050805f036175795761757461756f61474e565b619410565b61758b565b815f0361758b5761758b61262961474e565b6113fb848261366b614d25565b6175a18161941f565b61140a578060405163ef029adf60e01b8152600401611581919061b6da565b5f5f6175cf615da78560801c90565b90505f806175dc86614ba6565b1115615e3c57615e39846001600160a01b0316630a28a477615ddc88614ba6565b5f83856060015183815181106176155761761561be1b565b602090810291909101015261a0285f8460018111156176365761763661a8c7565b1461764357617ba1617647565b617b8c5b9050617692858760c0015185815181106176635761766361be1b565b60200260200101518860a0015186815181106176815761768161be1b565b60200260200101518463ffffffff16565b866080015184815181106176a8576176a861be1b565b60200260200101818152505061612d858760c0015185815181106176635761766361be1b565b6001600160a01b0384165f908152600860205260408120546176f190849061be08565b6001600160a01b0385165f908152600860205260408120549192509061771890849061c2a7565b905061196886868484619440565b61197b8383836195a0565b7f000000000000000000000000000000000000000000000000000000000000000081101561140a576040516303da9a2360e31b815260040160405180910390fd5b6001600160a01b0384165f9081526008602052604081205461779590849061c2a7565b6001600160a01b0385165f908152600860205260408120549192509061771890849061be08565b5f8085156132e1576178138760c0015184815181106177dd576177dd61be1b565b60200260200101518860a0015185815181106177fb576177fb61be1b565b6020026020010151886184bd9092919063ffffffff16565b9150617821875f01516195ea565b15155f036132e1575f617836885f01516195f9565b905061784283826196e1565b91508282111561786557604051634c69ac5d60e01b815260040160405180910390fd5b6001600160a01b038087165f908152600660209081526040808320938916835292905220546178a88361789783614ba6565b6178a1919061c2a7565b8290616c6c565b6001600160a01b038089165f908152600660209081526040808320938b168352929052205550509550959350505050565b5f611639826178e983600161c2e4565b6178f490600161c2e4565b61751290600161c2e4565b5f611639826178f483600161c2e4565b5f6116398261791f83600161c2e4565b6178e990600161c2e4565b5f6116398261793a83600161c2e4565b61791f90600161c2e4565b5f6116398261795583600161c2e4565b61793a90600161c2e4565b5f6116398261797083600161c2e4565b61795590600161c2e4565b5f6116398261798b83600161c2e4565b61797090600161c2e4565b5f611639826179a683600161c2e4565b61798b90600161c2e4565b5f611639826179c183600161c2e4565b6179a690600161c2e4565b5f611639826179dc83600161c2e4565b6179c190600161c2e4565b6179f081619709565b61140a57806040516327946f5760e21b8152600401611581919061b6da565b5f805b8351811015617a5c57826001600160a01b0316848281518110617a3757617a3761be1b565b60200260200101516001600160a01b031603617a5457905061163c565b600101617a12565b508160405163ddef98d760e01b8152600401611581919061b6da565b5f670de0b5cad2bef000821115617aa2576040516301d1b96560e61b815260040160405180910390fd5b6171ac64174876e8008361c533565b61197b816125976163e28686619352565b5f51602061c94e5f395f51905f525c90565b5f6001821661163c565b5f61163c617aed82600161c2a7565b83901c60011690565b5f61163c617b0582600161c2a7565b617aed90600161c2a7565b5f5f617b1b8361972a565b509392505050565b5f7f000000000000000000000000000000000000000000000000000000000000000063ffffffff1642111580156116715750611671600754617ade565b5f670de0b6b3a764000080830402808314617b8557617b8083600161c2a7565b6114bc565b5090919050565b5f6114b982617b9b858761c794565b90618491565b5f6114b982617bb0858761c794565b906196e1565b6001600160a01b03165f9081526011602052604090205490565b606083516001600160401b03811115617beb57617beb61a0ce565b604051908082528060200260200182016040528015617c14578160200160208202803683370190505b5090505f5b8451811015617b1b57617c508385878481518110617c3957617c3961be1b565b602002602001015161930d9092919063ffffffff16565b828281518110617c6257617c6261be1b565b6020908102919091010152600101617c19565b617c7e816197a3565b15155f0361140a5760405163efe0265d60e01b815260040160405180910390fd5b617ca8816197b2565b15155f0361140a5760405163353d5de760e21b815260040160405180910390fd5b81518151617cd8908290614d79565b6020810260208401602084015e505050565b5f64174876e800617dc6617cff83600161c2e4565b617d0a90600161c2e4565b617d1590600161c2e4565b617d2090600161c2e4565b617d2b90600161c2e4565b617d3690600161c2e4565b617d4190600161c2e4565b617d4c90600161c2e4565b617d5790600161c2e4565b617d6290600161c2e4565b617d6d90600161c2e4565b617d7890600161c2e4565b617d8390600161c2e4565b617d8e90600161c2e4565b617d9990600161c2e4565b617da490600161c2e4565b617daf90600161c2e4565b617dba90600161c2e4565b849060ff1660186197c8565b61163c919061c794565b84515f9060609082816001600160401b03811115617df057617df061a0ce565b604051908082528060200260200182016040528015617e19578160200160208202803683370190505b509050816001600160401b03811115617e3457617e3461a0ce565b604051908082528060200260200182016040528015617e5d578160200160208202803683370190505b5092505f5b82811015617ed9576001898281518110617e7e57617e7e61be1b565b60200260200101518b8381518110617e9857617e9861be1b565b6020026020010151617eaa919061c2a7565b617eb4919061be08565b828281518110617ec657617ec661be1b565b6020908102919091010152600101617e62565b50604051631309bd3d60e31b81525f906001600160a01b0387169063984de9e890617f0a908d90859060040161c7ab565b602060405180830381865afa158015617f25573d5f5f3e3d5ffd5b505050506040513d601f19601f82011682018060405250810190617f49919061bddd565b90505f617fc482886001600160a01b031663984de9e88660016040518363ffffffff1660e01b8152600401617f7f92919061c7ab565b602060405180830381865afa158015617f9a573d5f5f3e3d5ffd5b505050506040513d601f19601f82011682018060405250810190617fbe919061bddd565b906197d6565b9050617fd087826197f6565b5f5b848110156180e1575f6180078d8381518110617ff057617ff061be1b565b6020026020010151846196e190919063ffffffff16565b90508085838151811061801c5761801c61be1b565b602002602001015111156180d8575f8186848151811061803e5761803e61be1b565b602002602001015103905061805c8b8261849190919063ffffffff16565b88848151811061806e5761806e61be1b565b60200260200101818152505087838151811061808c5761808c61be1b565b60200260200101518684815181106180a6576180a661be1b565b60200260200101516180b8919061be08565b8684815181106180ca576180ca61be1b565b602002602001018181525050505b50600101617fd2565b50604051631309bd3d60e31b81525f906001600160a01b0389169063984de9e89061811390879060019060040161c7ab565b602060405180830381865afa15801561812e573d5f5f3e3d5ffd5b505050506040513d601f19601f82011682018060405250810190618152919061bddd565b90508261815f818361be08565b618169908c61c794565b618173919061c533565b965050505050509550959350505050565b8051805f5b818110156181dd578381815181106181a3576181a361be1b565b60200260200101515f146181d5578183146181d157604051636b8c3be560e01b815260040160405180910390fd5b8092505b600101618189565b508082106181fe57604051631f91af7760e21b815260040160405180910390fd5b50919050565b5f606081618212868861c2a7565b90505f61821f828861987e565b905061822b85826197f6565b60405162b5059f60e51b81525f906001600160a01b038716906316a0b3e09061825c908e908e90879060040161c7d5565b602060405180830381865afa158015618277573d5f5f3e3d5ffd5b505050506040513d601f19601f8201168201806040525081019061829b919061bddd565b90505f8b8b815181106182b0576182b061be1b565b6020026020010151826182c3919061be08565b90505f898d8d815181106182d9576182d961be1b565b6020026020010151866182ec919061c794565b6182f6919061c533565b90505f618303828561be08565b90505f8161831a6183138d6192fb565b849061987e565b618324919061be08565b90508e516001600160401b0381111561833f5761833f61a0ce565b604051908082528060200260200182016040528015618368578160200160208202803683370190505b50975080888f8151811061837e5761837e61be1b565b6020908102919091010152618393818561c2a7565b985050505050505050965096945050505050565b6183b081619892565b15155f0361140a5760405163121db02f60e21b815260040160405180910390fd5b5f6114b9846183e0848661c794565b61987e565b81846060015184815181106183fc576183fc61be1b565b602090810291909101015261a0285f82600181111561841d5761841d61a8c7565b1461842a57617ba161842e565b617b8c5b9050618468838660c00151868151811061844a5761844a61be1b565b60200260200101518760a0015187815181106176815761768161be1b565b8560800151858151811061847e5761847e61be1b565b6020026020010181815250505050505050565b5f8061849d838561c794565b90506001670de0b6b3a76400006001830304018115150291505092915050565b5f6114b9846184cc848661c794565b6197d6565b5f6184dd8484846198a1565b506001901b5f1901811b1992909216911b1790565b5f61163983608084901b61c2a7565b815484875260408051602080840282018101909252828152908490839083018282801561855557602002820191905f5260205f20905b81546001600160a01b03168152600190910190602001808311618537575b50505050508760200181905250806001600160401b0381111561857a5761857a61a0ce565b6040519080825280602002602001820160405280156185b357816020015b6185a061a030565b8152602001906001900390816185985790505b506040880152806001600160401b038111156185d1576185d161a0ce565b6040519080825280602002602001820160405280156185fa578160200160208202803683370190505b506060880152806001600160401b038111156186185761861861a0ce565b604051908082528060200260200182016040528015618641578160200160208202803683370190505b50608088015286516186539082619927565b60c0880152806001600160401b038111156186705761867061a0ce565b604051908082528060200260200182016040528015618699578160200160208202803683370190505b5060a088015286515f906186ac906199d6565b80156186c257505f6186c0895f01516199e5565b115b80156186d6575087516186d4906195ea565b155b90505f5b828110156149b3575f865f8b6020015184815181106186fb576186fb61be1b565b6020908102919091018101516001600160a01b0316825281019190915260409081015f208151606081019092528054829060ff1660018111156187405761874061a8c7565b60018111156187515761875161a8c7565b8152905461010081046001600160a01b0316602080840191909152600160a81b90910460ff1615156040928301525f858152908c905281902054908c015180519293509091839190859081106187a9576187a961be1b565b60200260200101819052506187bd82618bec565b8b60a0015184815181106187d3576187d361be1b565b6020026020010181815250506187f38b846187ed84614ba6565b896183e5565b8315155f0361880357505061889a565b5f8260400151801561882757506001835160018111156188255761882561a8c7565b145b90508015618896575f61883c8d5f01516199e5565b90505f8d6060015186815181106188555761885561be1b565b602002602001015190505f6188758f61886e8760801c90565b8986614450565b90508015618892576188928f8861888c848661be08565b8d6183e5565b5050505b5050505b6001016186da565b6060830151515f5b81811015614859575f856020015182815181106188c9576188c961be1b565b602002602001015190505f855f8481526020019081526020015f205490505f6188f182614ba6565b9050876060015184815181106189095761890961be1b565b6020026020010151811115618994576001600160a01b0383165f908152602087905260409020546060890151805161897a91908790811061894c5761894c61be1b565b60200260200101518361895f919061be08565b6189698360801c90565b618973919061c2a7565b829061751d565b6001600160a01b0385165f90815260208990526040902055505b6189cb886060015185815181106189ad576189ad61be1b565b6020026020010151896080015186815181106119455761194561be1b565b5f858152602089905260409020555050600190910190506188aa565b5f61163c82619acf565b5f816001600160a01b0316836001600160a01b031603618a1357505f196114bc565b506001600160a01b038084165f90815260106020908152604080832086851684528252808320938516835292905220546114bc565b6001600160a01b038316618a71578260405163e602df0560e01b8152600401611581919061b6da565b6001600160a01b038216618a9a5781604051634a1406b160e11b8152600401611581919061b6da565b6001600160a01b038085165f8181526010602090815260408083208886168452825280832094871683529390528290208390559051630ad0fe5760e31b8152635687f2b890618af19086908690869060040161c085565b5f604051808303815f87803b158015618b08575f5ffd5b505af1925050508015618b19575060015b50816001600160a01b0316836001600160a01b0316856001600160a01b03167fa0175360a15bca328baf7ea85c7b784d58b222a50d0ce760b10dba336d226a6184604051618b6991815260200190565b60405180910390a450505050565b620f424081101561140a576040516334e3483f60e21b815260048101829052602401611581565b6001600160a01b0381165f908152602081905260408120546114bc816199d6565b8183141580618bce5750808214155b1561197b5760405163aaad13f760e01b815260040160405180910390fd5b80515f9081816001811115618c0357618c0361a8c7565b03618c1857670de0b6b3a764000091506181fe565b6001816001811115618c2c57618c2c61a8c7565b03618c9c5782602001516001600160a01b031663679aefce6040518163ffffffff1660e01b8152600401602060405180830381865afa158015618c71573d5f5f3e3d5ffd5b505050506040513d601f19601f82011682018060405250810190618c95919061bddd565b91506181fe565b604051636fa2831960e11b815260040160405180910390fd5b606083516001600160401b03811115618cd057618cd061a0ce565b604051908082528060200260200182016040528015618cf9578160200160208202803683370190505b5090505f5b8451811015617b1b578383868381518110618d1b57618d1b61be1b565b6020026020010151618d2d919061c794565b618d37919061c533565b828281518110618d4957618d4961be1b565b6020908102919091010152600101618cfe565b5f606081618d6a878761be08565b90505f618d77828861987e565b9050618d838582619ae3565b60405162b5059f60e51b81525f906001600160a01b038716906316a0b3e090618db4908e908e90879060040161c7d5565b602060405180830381865afa158015618dcf573d5f5f3e3d5ffd5b505050506040513d601f19601f82011682018060405250810190618df3919061bddd565b90505f818c8c81518110618e0957618e0961be1b565b6020026020010151618e1b919061be08565b90505f618e4c8d8d81518110618e3357618e3361be1b565b60200260200101518b8761930d9092919063ffffffff16565b90505f618e59848361be08565b90505f618e66828c618491565b90508e516001600160401b03811115618e8157618e8161a0ce565b604051908082528060200260200182016040528015618eaa578160200160208202803683370190505b50975080888f81518110618ec057618ec061be1b565b6020908102919091010152618393818561be08565b85515f9060609082816001600160401b03811115618ef557618ef561a0ce565b604051908082528060200260200182016040528015618f1e578160200160208202803683370190505b5090505f5b82811015618f765760018b8281518110618f3f57618f3f61be1b565b6020026020010151618f51919061be08565b828281518110618f6357618f6361be1b565b6020908102919091010152600101618f23565b5087818a81518110618f8a57618f8a61be1b565b6020026020010151618f9c919061be08565b818a81518110618fae57618fae61be1b565b6020908102919091010152604051631309bd3d60e31b81525f906001600160a01b0387169063984de9e890618fe9908e90859060040161c7ab565b602060405180830381865afa158015619004573d5f5f3e3d5ffd5b505050506040513d601f19601f82011682018060405250810190619028919061bddd565b90505f6190a282886001600160a01b031663984de9e8865f6040518363ffffffff1660e01b815260040161905d92919061c7ab565b602060405180830381865afa158015619078573d5f5f3e3d5ffd5b505050506040513d601f19601f8201168201806040525081019061909c919061bddd565b9061987e565b90506190ae8782619ae3565b5f838c815181106190c1576190c161be1b565b60200260200101516190f58e8e815181106190de576190de61be1b565b60200260200101518461849190919063ffffffff16565b6190ff919061be08565b90505f8161910f6183138c6192fb565b619119919061be08565b905080858e8151811061912e5761912e61be1b565b6020026020010151619140919061be08565b858e815181106191525761915261be1b565b6020908102919091010152604051631309bd3d60e31b81525f906001600160a01b038b169063984de9e89061918e90899060019060040161c7ab565b602060405180830381865afa1580156191a9573d5f5f3e3d5ffd5b505050506040513d601f19601f820116820180604052508101906191cd919061bddd565b9050866001600160401b038111156191e7576191e761a0ce565b604051908082528060200260200182016040528015619210578160200160208202803683370190505b50975081888f815181106192265761922661be1b565b602090810291909101015261839361923e828761be08565b8d908761930d565b61924f81619b6b565b15155f0361140a5760405163033c2a5760e61b815260040160405180910390fd5b5f321580156116715750619285600754617ad4565b15905090565b32155f036192ac576040516333fc255960e11b815260040160405180910390fd5b6001600160a01b038084165f908152600f60209081526040808320938616835292905290812080548392906192e290849061c2a7565b9091555050505050565b5f61163c614ee782600161c2e4565b670de0b6b3a764000081810391100290565b5f815f0361932e57604051630a0c22c760e01b815260040160405180910390fd5b5f619339848661c794565b9050600183600183030401811515029150509392505050565b5f9081526020919091526040902090565b61197b838383619b7a565b60608147101561939557478260405163cf47918160e01b815260040161158192919061b855565b5f5f856001600160a01b031684866040516193b0919061c7f9565b5f6040518083038185875af1925050503d805f81146193ea576040519150601f19603f3d011682016040523d82523d5f602084013e6193ef565b606091505b509150915061612d868383619bfa565b5f61163961257b6163e28585619352565b61140a616dd86001835c61be08565b6001600160a01b0381165f9081526020819052604081205461163c906195ea565b6040516370a0823160e01b81525f906001600160a01b038616906370a082319061946e90309060040161b6da565b602060405180830381865afa158015619489573d5f5f3e3d5ffd5b505050506040513d601f19601f820116820180604052508101906194ad919061bddd565b9050828110156194d657838382604051631c6a537560e01b81526004016115819392919061c286565b6001600160a01b038086165f90815260086020526040808220849055516370a0823160e01b815290918616906370a082319061951690309060040161b6da565b602060405180830381865afa158015619531573d5f5f3e3d5ffd5b505050506040513d601f19601f82011682018060405250810190619555919061bddd565b90508281101561957e57848382604051631149424d60e01b81526004016115819392919061c286565b6001600160a01b039094165f9081526008602052604090209390935550505050565b816014528060345263a9059cbb60601b5f5260205f604460105f875af18060015f5114166195e057803d853b1517106195e0576390b8ec185f526004601cfd5b505f603452505050565b5f61163c614f2982600161c2e4565b5f64174876e800617dc6601861961084600161c2e4565b61961b90600161c2e4565b61962690600161c2e4565b61963190600161c2e4565b61963c90600161c2e4565b61964790600161c2e4565b61965290600161c2e4565b61965d90600161c2e4565b61966890600161c2e4565b61967390600161c2e4565b61967e90600161c2e4565b61968990600161c2e4565b61969490600161c2e4565b61969f90600161c2e4565b6196aa90600161c2e4565b6196b590600161c2e4565b6196c090600161c2e4565b6196cb90600161c2e4565b60ff166196d8919061c2a7565b849060186197c8565b5f806196ed838561c794565b9050619701670de0b6b3a76400008261c533565b949350505050565b6001600160a01b0381165f908152602081905260408120546114bc81617ad4565b6001600160a01b0381165f9081526020819052604081205481908161974e82619c48565b90505f61975a83619c57565b9050818015619798575061978e7f00000000000000000000000000000000000000000000000000000000000000008261c80f565b63ffffffff164211155b969095509350505050565b5f61163c614efd82600161c2e4565b5f6197c1614f1e82600161c2e4565b1592915050565b6001901b5f190191901c1690565b5f806197ea670de0b6b3a76400008561c794565b9050619701838261c533565b5f826001600160a01b031663273c1adf6040518163ffffffff1660e01b8152600401602060405180830381865afa158015619833573d5f5f3e3d5ffd5b505050506040513d601f19601f82011682018060405250810190619857919061bddd565b90508082111561197b578181604051630fa2583760e21b815260040161158192919061b855565b5f61163983670de0b6b3a76400008461930d565b5f61163c614f1382600161c2e4565b61010082106198c357604051632d0483c560e21b815260040160405180910390fd5b600181101580156198e957506198e560ff6198e08461010061be08565b619d5b565b8111155b61990657604051632d0483c560e21b815260040160405180910390fd5b82811c1561197b5760405163e4337c0560e01b815260040160405180910390fd5b60605f826001600160401b038111156199425761994261a0ce565b60405190808252806020026020018201604052801561996b578160200160208202803683370190505b5090505f61997885619d6a565b64ffffffffff1690505f5b848110156132c3575f6199a361999a60058461c794565b849060056197c8565b90506199b081600a61c90e565b8483815181106199c2576199c261be1b565b602090810291909101015250600101619983565b5f61163c614f3f82600161c2e4565b5f64174876e800617dc66018806199fd85600161c2e4565b619a0890600161c2e4565b619a1390600161c2e4565b619a1e90600161c2e4565b619a2990600161c2e4565b619a3490600161c2e4565b619a3f90600161c2e4565b619a4a90600161c2e4565b619a5590600161c2e4565b619a6090600161c2e4565b619a6b90600161c2e4565b619a7690600161c2e4565b619a8190600161c2e4565b619a8c90600161c2e4565b619a9790600161c2e4565b619aa290600161c2e4565b619aad90600161c2e4565b619ab890600161c2e4565b60ff16619ac5919061c2a7565b6196d8919061c2a7565b5f5f8212619adb575090565b611ff5619e62565b5f826001600160a01b031663b677fa566040518163ffffffff1660e01b8152600401602060405180830381865afa158015619b20573d5f5f3e3d5ffd5b505050506040513d601f19601f82011682018060405250810190619b44919061bddd565b90508082101561197b57818160405163718e4adf60e11b815260040161158192919061b855565b5f61163c614f0882600161c2e4565b816014528060345263095ea7b360601b5f5260205f604460105f875af18060015f5114166195e057803d853b1517106195e0575f60345263095ea7b360601b5f525f38604460105f885af1508160345260205f604460105f885af190508060015f5114166195e057803d853b1517106195e057633e3f8f735f526004601cfd5b606082619c0a57617b8082619e6f565b8151158015619c2157506001600160a01b0384163b155b15619c415783604051639996b31560e01b8152600401611581919061b6da565b50806114bc565b5f61163c614f3482600161c2e4565b5f61163c602860188080619c6c86600161c2e4565b619c7790600161c2e4565b619c8290600161c2e4565b619c8d90600161c2e4565b619c9890600161c2e4565b619ca390600161c2e4565b619cae90600161c2e4565b619cb990600161c2e4565b619cc490600161c2e4565b619ccf90600161c2e4565b619cda90600161c2e4565b619ce590600161c2e4565b619cf090600161c2e4565b619cfb90600161c2e4565b619d0690600161c2e4565b619d1190600161c2e4565b619d1c90600161c2e4565b619d2790600161c2e4565b60ff16619d34919061c2a7565b619d3e919061c2a7565b619d48919061c2a7565b619d52919061c2a7565b839060206197c8565b5f818311828418028318611639565b5f61163c60188080619d7d85600161c2e4565b619d8890600161c2e4565b619d9390600161c2e4565b619d9e90600161c2e4565b619da990600161c2e4565b619db490600161c2e4565b619dbf90600161c2e4565b619dca90600161c2e4565b619dd590600161c2e4565b619de090600161c2e4565b619deb90600161c2e4565b619df690600161c2e4565b619e0190600161c2e4565b619e0c90600161c2e4565b619e1790600161c2e4565b619e2290600161c2e4565b619e2d90600161c2e4565b619e3890600161c2e4565b60ff16619e45919061c2a7565b619e4f919061c2a7565b619e59919061c2a7565b839060286197c8565b6335278d125f526004601cfd5b805115619e7f5780518082602001fd5b60405163d6bda27560e01b815260040160405180910390fd5b6040518060e001604052805f81526020016060815260200160608152602001606081526020016060815260200160608152602001606081525090565b6040805160e08101909152805f81526020015f8152602001606081526020015f81526020015f81526020015f6001600160a01b03168152602001606081525090565b60408051608081019091525f80825260208201905b81525f6020820181905260409091015290565b60405180608001604052805f81526020015f81526020015f81526020015f81525090565b604080516060810182525f808252602082018190529181019190915290565b828054828255905f5260205f20908101928215619fd4579160200282015b82811115619fd457825182546001600160a01b0319166001600160a01b03909116178255602090920191600190910190619f9f565b50619fe092915061a042565b5090565b604080516080810182525f80825260208201819052918101829052606081019190915290565b60405180606001604052805f81526020015f81526020015f81525090565b61138b61c919565b6040805160608101909152805f619f2b565b5b80821115619fe0575f815560010161a043565b6001600160a01b038116811461140a575f5ffd5b8035611ff58161a056565b5f5f5f6060848603121561a087575f5ffd5b833561a0928161a056565b9250602084013561a0a28161a056565b929592945050506040919091013590565b5f6020828403121561a0c3575f5ffd5b81356114bc8161a056565b634e487b7160e01b5f52604160045260245ffd5b604051606081016001600160401b038111828210171561a1045761a10461a0ce565b60405290565b60405160e081016001600160401b038111828210171561a1045761a10461a0ce565b604051608081016001600160401b038111828210171561a1045761a10461a0ce565b60405160c081016001600160401b038111828210171561a1045761a10461a0ce565b60405161014081016001600160401b038111828210171561a1045761a10461a0ce565b60405161016081016001600160401b038111828210171561a1045761a10461a0ce565b604051601f8201601f191681016001600160401b038111828210171561a1de5761a1de61a0ce565b604052919050565b5f6001600160401b0382111561a1fe5761a1fe61a0ce565b5060051b60200190565b5f82601f83011261a217575f5ffd5b813561a22a61a2258261a1e6565b61a1b6565b8082825260208201915060208360051b86010192508583111561a24b575f5ffd5b602085015b83811015614e8157803561a2638161a056565b83526020928301920161a250565b803563ffffffff81168114611ff5575f5ffd5b5f5f5f5f84860360c081121561a298575f5ffd5b853561a2a38161a056565b945060208601356001600160401b0381111561a2bd575f5ffd5b61a2c98882890161a208565b94505061a2d86040870161a271565b92506060605f198201121561a2eb575f5ffd5b5061a2f461a0e2565b606086013561a3028161a056565b8152608086013561a3128161a056565b602082015260a086013561a3258161a056565b6040820152939692955090935050565b6002811061140a575f5ffd5b8035611ff58161a335565b5f6001600160401b0382111561a3645761a36461a0ce565b50601f01601f191660200190565b5f82601f83011261a381575f5ffd5b813561a38f61a2258261a34c565b81815284602083860101111561a3a3575f5ffd5b816020850160208301375f918101602001919091529392505050565b5f60e0828403121561a3cf575f5ffd5b61a3d761a10a565b905061a3e28261a341565b815261a3f06020830161a06a565b602082015261a4016040830161a06a565b604082015261a4126060830161a06a565b60608201526080828101359082015260a0808301359082015260c08201356001600160401b0381111561a443575f5ffd5b61a44f8482850161a372565b60c08301525092915050565b801515811461140a575f5ffd5b8035611ff58161a45b565b5f82601f83011261a482575f5ffd5b813561a49061a2258261a1e6565b8082825260208201915060206060840286010192508583111561a4b1575f5ffd5b602085015b83811015614e81576060818803121561a4cd575f5ffd5b61a4d561a0e2565b813561a4e08161a335565b8152602082013561a4f08161a056565b6020820152604082013561a5038161a45b565b6040820152835260209092019160600161a4b6565b5f82601f83011261a527575f5ffd5b813561a53561a2258261a1e6565b8082825260208201915060208360051b86010192508583111561a556575f5ffd5b602085015b83811015614e8157803583526020928301920161a55b565b5f60e0828403121561a583575f5ffd5b61a58b61a10a565b82358152905060208201356001600160401b0381111561a5a9575f5ffd5b61a5b58482850161a208565b60208301525060408201356001600160401b0381111561a5d3575f5ffd5b61a5df8482850161a473565b60408301525060608201356001600160401b0381111561a5fd575f5ffd5b61a6098482850161a518565b60608301525060808201356001600160401b0381111561a627575f5ffd5b61a6338482850161a518565b60808301525060a08201356001600160401b0381111561a651575f5ffd5b61a65d8482850161a518565b60a08301525060c08201356001600160401b0381111561a67b575f5ffd5b61a44f8482850161a518565b5f6080828403121561a697575f5ffd5b61a69f61a12c565b8235815260208084013590820152604080840135908201526060928301359281019290925250919050565b5f5f5f60c0848603121561a6dc575f5ffd5b83356001600160401b0381111561a6f1575f5ffd5b61a6fd8682870161a3bf565b93505060208401356001600160401b0381111561a718575f5ffd5b61a7248682870161a573565b92505061a734856040860161a687565b90509250925092565b803560058110611ff5575f5ffd5b5f60c0828403121561a75b575f5ffd5b61a76361a14e565b905061a76e8261a06a565b815261a77c6020830161a06a565b602082015260408201356001600160401b0381111561a799575f5ffd5b61a7a58482850161a518565b6040830152506060828101359082015261a7c16080830161a73d565b608082015260a08201356001600160401b0381111561a7de575f5ffd5b61a7ea8482850161a372565b60a08301525092915050565b5f5f5f6060848603121561a808575f5ffd5b83356001600160401b0381111561a81d575f5ffd5b61a8298682870161a573565b93505060208401356001600160401b0381111561a844575f5ffd5b61a8508682870161a74b565b92505060408401356001600160401b0381111561a86b575f5ffd5b61a8778682870161a518565b9150509250925092565b6001600160a01b03169052565b5f8151808452602084019350602083015f5b82811015612fa85781516001600160a01b031686526020958601959091019060010161a8a0565b634e487b7160e01b5f52602160045260245ffd5b6002811061140a5761140a61a8c7565b5f8151808452602084019350602083015f5b82811015612fa8578151805161a9128161a8db565b87526020818101516001600160a01b031681890152604091820151151591880191909152606090960195919091019060010161a8fd565b5f8151808452602084019350602083015f5b82811015612fa857815186526020958601959091019060010161a95b565b805182525f602082015160e0602085015261a99760e085018261a88e565b90506040830151848203604086015261a9b0828261a8eb565b9150506060830151848203606086015261a9ca828261a949565b9150506080830151848203608086015261a9e4828261a949565b91505060a083015184820360a086015261a9fe828261a949565b91505060c083015184820360c08601526115a5828261a949565b5f81518084528060208401602086015e5f602082860101526020601f19601f83011685010191505092915050565b60a081525f61aa5860a083018861a979565b828103602084015261aa6a818861a949565b9050828103604084015261aa7e818761a949565b9050846060840152828103608084015261590b818561aa18565b5f5f5f5f6080858703121561aaab575f5ffd5b84356001600160401b0381111561aac0575f5ffd5b61aacc8782880161a573565b97602087013597506040870135966060013595509350505050565b5f5f6040838503121561aaf8575f5ffd5b823561ab038161a056565b915061ab116020840161a271565b90509250929050565b5f5f5f6060848603121561ab2c575f5ffd5b833561ab378161a056565b95602085013595506040909401359392505050565b5f5f6040838503121561ab5d575f5ffd5b823561ab688161a056565b915060208301356001600160401b0381111561ab82575f5ffd5b61ab8e8582860161a573565b9150509250929050565b5f5f6040838503121561aba9575f5ffd5b823561abb48161a056565b9150602083013561abc48161a335565b809150509250929050565b602081525f611639602083018461a979565b5f5f6040838503121561abf2575f5ffd5b823561abfd8161a45b565b9150602083013561abc48161a45b565b5f5f6040838503121561ac1e575f5ffd5b823561ac298161a056565b946020939093013593505050565b5f5f5f5f6080858703121561ac4a575f5ffd5b843561ac558161a056565b9350602085013561ac658161a056565b9250604085013561ac758161a056565b9396929550929360600135925050565b5f5f5f60c0848603121561ac97575f5ffd5b83356001600160401b0381111561acac575f5ffd5b61acb88682870161a3bf565b93505061acc8856020860161a687565b915060a08401356001600160401b0381111561ace2575f5ffd5b61a8778682870161a573565b61acf78161a8db565b9052565b5f815161ad078161a8db565b8084525060208201516020840152604082015160e0604085015261ad2e60e085018261a949565b9050606083015160608501526080830151608085015260018060a01b0360a08401511660a085015260c083015184820360c08601526115a5828261aa18565b602081525f611639602083018461acfb565b602081525f611639602083018461a949565b5f5f5f6060848603121561ada3575f5ffd5b833561adae8161a056565b925060208401356001600160401b0381111561adc8575f5ffd5b61a8508682870161a518565b5f5f5f6060848603121561ade6575f5ffd5b833561adf18161a056565b925060208401356001600160401b0381111561ae0b575f5ffd5b61ae178682870161a208565b93969395505050506040919091013590565b803560048110611ff5575f5ffd5b5f60c0828403121561ae47575f5ffd5b61ae4f61a14e565b905061ae5a8261a06a565b815261ae686020830161a06a565b60208201526040828101359082015260608201356001600160401b0381111561ae8f575f5ffd5b61ae9b8482850161a518565b60608301525061a7c16080830161ae29565b5f6020828403121561aebd575f5ffd5b81356001600160401b0381111561aed2575f5ffd5b6197018482850161ae37565b838152606060208201525f61aef6606083018561a949565b828103604084015261612d818561aa18565b5f6020828403121561af18575f5ffd5b81356001600160401b0381111561af2d575f5ffd5b6197018482850161a208565b5f8151808452602084019350602083015f5b82811015612fa857815180516001600160a01b03168752602081015161af708161a8db565b6020888101919091526040828101516001600160a01b031690890152606091820151151591880191909152608090960195919091019060010161af4b565b602081525f611639602083018461af39565b805182526020810151602083015260408101516040830152606081015160608301525050565b87815286602082015285604082015284606082015261014060808201525f845161b00f8161a8db565b61014083015260208501516001600160a01b03908116610160840152604086015116610180830152606085015161b04a6101a084018261a881565b5060808501516101c083015260a08501516101e083015260c085015160e061020084015261b07c61022084018261aa18565b905061b08b60a084018661afc0565b82810361012084015261b09e818561a979565b9a9950505050505050505050565b5f5f5f6060848603121561b0be575f5ffd5b83356001600160401b0381111561b0d3575f5ffd5b61b0df8682870161a573565b93505060208401356001600160401b0381111561b0fa575f5ffd5b61a8508682870161ae37565b5f6020828403121561b116575f5ffd5b81356001600160401b0381111561b12b575f5ffd5b6197018482850161a3bf565b9283526020830191909152604082015260600190565b5f6020828403121561b15d575f5ffd5b5035919050565b5f5f6040838503121561b175575f5ffd5b823561b1808161a056565b915060208301356001600160401b0381111561b19a575f5ffd5b61ab8e8582860161a208565b5f5f6040838503121561b1b7575f5ffd5b823561abfd8161a056565b5f5f6040838503121561b1d3575f5ffd5b823561b1de8161a056565b9150602083013561abc48161a056565b5f60a082840312801561b1ff575f5ffd5b5060405160a081016001600160401b038111828210171561b2225761b22261a0ce565b604052823561b2308161a335565b8152602083013561b2408161a335565b6020820152604083013561b2538161a056565b6040820152606083810135908201526080928301359281019290925250919050565b5f5f6040838503121561b286575f5ffd5b82356001600160401b0381111561b29b575f5ffd5b61b2a78582860161a3bf565b92505060208301356001600160401b0381111561ab82575f5ffd5b6080810161163c828461afc0565b5f5f6020838503121561b2e1575f5ffd5b82356001600160401b0381111561b2f6575f5ffd5b8301601f8101851361b306575f5ffd5b80356001600160401b0381111561b31b575f5ffd5b85602082840101111561b32c575f5ffd5b6020919091019590945092505050565b602081525f611639602083018461aa18565b5f6020828403121561b35e575f5ffd5b81356001600160401b0381111561b373575f5ffd5b6197018482850161a74b565b606081525f61b391606083018661a949565b846020840152828103604084015261612d818561aa18565b5f6080828403121561b3b9575f5ffd5b61b3c161a12c565b9050813561b3ce8161a45b565b8152602082013561b3de8161a45b565b6020820152604082013561b3f18161a45b565b60408201526060820135615fb48161a45b565b803564ffffffffff81168114611ff5575f5ffd5b5f5f8284036101c081121561b42b575f5ffd5b833561b4368161a056565b92506101a0601f198201121561b44a575f5ffd5b5061b45361a170565b61b460856020860161b3a9565b815260a0840135602082015260c0840135604082015260e0840135606082015261b48d610100850161b404565b608082015261b49f610120850161a271565b60a082015261b4b1610140850161a468565b60c082015261b4c3610160850161a468565b60e082015261b4d5610180850161a468565b61010082015261b4e86101a0850161a468565b610120820152809150509250929050565b5f5f6040838503121561b50a575f5ffd5b82356001600160401b0381111561b51f575f5ffd5b61b52b8582860161a208565b92505060208301356001600160401b0381111561b19a575f5ffd5b5f82601f83011261b555575f5ffd5b813561b56361a2258261a1e6565b8082825260208201915060208360051b86010192508583111561b584575f5ffd5b602085015b83811015614e8157803561b59c8161a45b565b83526020928301920161b589565b5f5f5f5f6080858703121561b5bd575f5ffd5b84356001600160401b0381111561b5d2575f5ffd5b61b5de8782880161a208565b94505060208501356001600160401b0381111561b5f9575f5ffd5b8501601f8101871361b609575f5ffd5b803561b61761a2258261a1e6565b8082825260208201915060208360051b85010192508983111561b638575f5ffd5b6020840193505b8284101561b66357833561b6528161a335565b82526020938401939091019061b63f565b955050505060408501356001600160401b0381111561b680575f5ffd5b61b68c8782880161a208565b92505060608501356001600160401b0381111561b6a7575f5ffd5b61b6b38782880161b546565b91505092959194509250565b5f6020828403121561b6cf575f5ffd5b81356114bc8161a45b565b6001600160a01b0391909116815260200190565b5f5f5f5f6080858703121561b701575f5ffd5b84356001600160401b0381111561b716575f5ffd5b61b7228782880161a573565b94505060208501359250604085013561ac758161a335565b5f5f5f5f6080858703121561b74d575f5ffd5b843561b7588161a056565b9350602085013561b7688161a056565b93969395505050506040820135916060013590565b5f5f5f6060848603121561b78f575f5ffd5b833561b79a8161a056565b925060208401356001600160401b0381111561b7b4575f5ffd5b61b7c08682870161a208565b92505060408401356001600160401b0381111561b7db575f5ffd5b61a8778682870161a473565b5f5f5f5f5f60a0868803121561b7fb575f5ffd5b85356001600160401b0381111561b810575f5ffd5b61b81c8882890161a573565b95505060208601359350604086013561b8348161a056565b9250606086013561b8448161a056565b949793965091946080013592915050565b918252602082015260400190565b5f5f82840361018081121561b876575f5ffd5b833561b8818161a056565b9250610160601f198201121561b895575f5ffd5b5061b89e61a193565b61b8aa6020850161a468565b815261b8b86040850161a468565b602082015261b8c96060850161a468565b604082015261b8da6080850161a468565b606082015261b8eb60a0850161a468565b608082015261b8fc60c0850161a468565b60a082015261b90d60e0850161a468565b60c082015261b91f610100850161a468565b60e082015261b931610120850161a468565b61010082015261b944610140850161a468565b61012082015261b957610160850161a06a565b610140820152809150509250929050565b5f5f5f6060848603121561b97a575f5ffd5b833561b9858161a056565b925060208401356001600160401b0381111561b99f575f5ffd5b61b9ab8682870161a573565b925050604084013561b9bc8161a335565b809150509250925092565b5f5f5f5f6080858703121561b9da575f5ffd5b843561b9e58161a056565b935060208501356001600160401b0381111561b9ff575f5ffd5b61ba0b8782880161a208565b93505060408501356001600160401b0381111561ba26575f5ffd5b61ba328782880161a518565b92505060608501356001600160401b0381111561ba4d575f5ffd5b61b6b38782880161a518565b5f5f6040838503121561ba6a575f5ffd5b823561ba758161a056565b915060208301356001600160401b0381111561ba8f575f5ffd5b8301601f8101851361ba9f575f5ffd5b803561baad61a2258261a1e6565b8082825260208201915060208360071b85010192508783111561bace575f5ffd5b6020840193505b8284101561bb4e576080848903121561baec575f5ffd5b61baf461a12c565b843561baff8161a056565b8152602085013561bb0f8161a335565b6020820152604085013561bb228161a056565b6040820152606085013561bb358161a45b565b606082015282526080939093019260209091019061bad5565b809450505050509250929050565b5f5f5f6060848603121561bb6e575f5ffd5b83356001600160401b0381111561bb83575f5ffd5b61bb8f8682870161a208565b93505060208401356001600160401b0381111561bbaa575f5ffd5b61bbb68682870161a208565b92505060408401356001600160401b0381111561bbd1575f5ffd5b61a8778682870161b546565b5f5f6040838503121561bbee575f5ffd5b82356001600160401b0381111561bc03575f5ffd5b61bc0f8582860161a208565b925050602083013561abc48161a056565b60a081525f61bc3260a083018861a979565b866020840152828103604084015261bc4a818761a949565b9050828103606084015261bc5e818661a949565b9050828103608084015261590b818561aa18565b6001600160a01b03929092168252602082015260400190565b5f6020828403121561bc9b575f5ffd5b81516114bc8161a45b565b80516001600160a01b03908116835260208083015182169084015260409182015116910152565b8051151582526020810151151560208301526040810151151560408301526060810151151560608301525050565b6001600160a01b0387168152610160602082018190525f9061bd1f9083018861af39565b905063ffffffff8616604083015261bd3a606083018661bca6565b6001600160a01b03841660c08301526144d860e083018461bccd565b6005811061acf75761acf761a8c7565b602080825282516001600160a01b0390811683830152908301511660408083019190915282015160c060608301525f9061bda360e084018261a949565b905060608401516080840152608084015161bdc160a085018261bd56565b5060a0840151838203601f190160c08501526115a5828261aa18565b5f6020828403121561bded575f5ffd5b5051919050565b634e487b7160e01b5f52601160045260245ffd5b8181038181111561163c5761163c61bdf4565b634e487b7160e01b5f52603260045260245ffd5b60208082526021908201527f5661756c744d6f636b3a20544f4b454e535f4c454e4754485f4d49534d4154436040820152600960fb1b606082015260800190565b6001600160a01b0386168152610100602082018190525f9061be949083018761af39565b604083018690526001600160a01b0385166060840152905061612d608083018461bccd565b5f6020828403121561bec9575f5ffd5b81516001600160401b0381111561bede575f5ffd5b8201601f8101841361beee575f5ffd5b805161befc61a2258261a1e6565b8082825260208201915060208360071b85010192508683111561bf1d575f5ffd5b6020840193505b8284101561612d576080848803121561bf3b575f5ffd5b61bf4361a12c565b845161bf4e8161a056565b8152602085015161bf5e8161a335565b6020820152604085015161bf718161a056565b6040820152606085015161bf848161a45b565b606082015282526080939093019260209091019061bf24565b6001600160a01b0386168152610140602082018190525f9061bfc19083018761af39565b905061bfd0604083018661bca6565b6001600160a01b03841660a083015261612d60c083018461bccd565b815160a082019061bffc8161a8db565b8252602083015161c00c8161a8db565b60208301526040838101516001600160a01b03169083015260608084015190830152608092830151929091019190915290565b5f5f5f6060848603121561c051575f5ffd5b5050815160208301516040909301519094929350919050565b5f6020828403121561c07a575f5ffd5b81516114bc8161a056565b6001600160a01b039384168152919092166020820152604081019190915260600190565b6004811061acf75761acf761a8c7565b6020815260018060a01b03825116602082015260018060a01b036020830151166040820152604082015160608201525f606083015160c0608084015261c10260e084018261a949565b9050608084015161bdc160a085018261c0a9565b6001600160a01b038616815260a0602082018190525f9061c1399083018761a949565b856040840152828103606084015261bc5e818661a949565b5f82601f83011261c160575f5ffd5b815161c16e61a2258261a1e6565b8082825260208201915060208360051b86010192508583111561c18f575f5ffd5b602085015b83811015614e8157805183526020928301920161c194565b5f82601f83011261c1bb575f5ffd5b815161c1c961a2258261a34c565b81815284602083860101111561c1dd575f5ffd5b8160208501602083015e5f918101602001919091529392505050565b5f5f5f5f6080858703121561c20c575f5ffd5b84516001600160401b0381111561c221575f5ffd5b61c22d8782880161c151565b60208701516040880151919650945090506001600160401b0381111561c251575f5ffd5b61c25d8782880161c151565b606087015190935090506001600160401b0381111561c27a575f5ffd5b61b6b38782880161c1ac565b6001600160a01b039390931683526020830191909152604082015260600190565b8082018082111561163c5761163c61bdf4565b838152606060208201525f61c2d2606083018561a949565b828103604084015261612d818561a949565b60ff818116838216019081111561163c5761163c61bdf4565b5f600160ff1b820161c3115761c31161bdf4565b505f0390565b6001600160a01b0388811682528716602082015261c338604082018761c0a9565b84606082015260e060808201525f61c35360e083018661a949565b82810360a084015261c365818661a949565b905082810360c084015261b09e818561aa18565b60018060a01b038616815284602082015260a060408201525f61c39f60a083018661a949565b828103606084015261bc5e818661a949565b5f5f5f5f6080858703121561c3c4575f5ffd5b845160208601519094506001600160401b0381111561c3e1575f5ffd5b61c3ed8782880161c151565b604087015190945090506001600160401b0381111561c251575f5ffd5b6001600160a01b0389811682528816602082015261c42b604082018861c0a9565b85606082015261010060808201525f61c44861010083018761a949565b82810360a084015261c45a818761a949565b905082810360c084015261c46e818661a949565b905082810360e084015261c482818561aa18565b9b9a5050505050505050505050565b5f5f6040838503121561c4a2575f5ffd5b825161c4ad8161a45b565b60208401519092506001600160401b0381111561c4c8575f5ffd5b61ab8e8582860161c151565b8181035f83128015838313168383128216171561262e5761262e61bdf4565b634e487b7160e01b5f52601260045260245ffd5b5f8261c5155761c51561c4f3565b600160ff1b82145f198414161561c52e5761c52e61bdf4565b500590565b5f8261c5415761c54161c4f3565b500490565b604081525f61c558604083018561acfb565b905060018060a01b03831660208301529392505050565b606081525f61c581606083018661acfb565b6001600160a01b039490941660208301525060400152919050565b5f5f6040838503121561c5ad575f5ffd5b825161c5b88161a45b565b6020939093015192949293505050565b6020815261c5da60208201835161acee565b5f602083015161c5ed604084018261a881565b50604083015161c600606084018261a881565b5060608301516080830152608083015160a083015260a083015160c083015260c083015160e083015260e083015161010083015261010083015161012083015261012083015161c65461014084018261a881565b5061014083015161c66961016084018261a881565b50610160830151610180808401526197016101a084018261aa18565b8082018281125f83128015821682158216171561c6a45761c6a461bdf4565b505092915050565b9283526001600160a01b03918216602084015216604082015260600190565b9182526001600160a01b0316602082015260400190565b6001600160a01b0388811682528716602082015261c703604082018761bd56565b60e060608201525f61c71860e083018761a949565b85608084015282810360a084015261c365818661a949565b6001600160a01b0389811682528816602082015261c751604082018861bd56565b61010060608201525f61c76861010083018861a949565b828103608084015261c77a818861a949565b90508560a084015282810360c084015261c46e818661a949565b808202811582820484141761163c5761163c61bdf4565b604081525f61c7bd604083018561a949565b905061c7c88361a8db565b8260208301529392505050565b606081525f61c7e7606083018661a949565b60208301949094525060400152919050565b5f82518060208501845e5f920191825250919050565b63ffffffff818116838216019081111561163c5761163c61bdf4565b6001815b600184111561c8665780850481111561c84a5761c84a61bdf4565b600184161561c85857908102905b60019390931c92800261c82f565b935093915050565b5f8261c87c5750600161163c565b8161c88857505f61163c565b816001811461c89e576002811461c8a85761c8c4565b600191505061163c565b60ff84111561c8b95761c8b961bdf4565b50506001821b61163c565b5060208310610133831016604e8410600b841016171561c8e7575081810a61163c565b61c8f35f19848461c82b565b805f190482111561c9065761c90661bdf4565b029392505050565b5f611639838361c86e565b634e487b7160e01b5f52605160045260245ffdfed1398bee19313d6bf672ccb116e51f4a1a947e91c757907f51fbb5b5e56c698f9b779b17422d0df92223018b32b4d1fa46e071723d6817e2486d003becc55f00a26469706673582212202f7aeb4ecd797ba3e77ddc752ed3e4b0d370a62b1be8afd0f6cc9f6146d7509564736f6c634300081e0033610120604052348015610010575f5ffd5b50604051613a3a380380613a3a83398101604081905261002f916100ca565b3060808190528190839081906001600160a01b03821661006257604051630647140b60e51b815260040160405180910390fd5b506001600160a01b031660a052505f61008163ffffffff831642610115565b905063ffffffff8111156100a8576040516368755a1160e01b815260040160405180910390fd5b63ffffffff91821660c0521660e052506001600160a01b03166101005261013a565b5f5f604083850312156100db575f5ffd5b82516001600160a01b03811681146100f1575f5ffd5b602084015190925063ffffffff8116811461010a575f5ffd5b809150509250929050565b8082018082111561013457634e487b7160e01b5f52601160045260245ffd5b92915050565b60805160a05160c05160e0516101005161387d6101bd5f395f818161033a015281816103bc01528181610535015281816105a4015281816106460152818161079c01528181610898015261095901525f81816102bb015281816108fa015261092d01525f61020a01525f81816107420152610ae401525f6106df015261387d5ff3fe608060405234801561000f575f5ffd5b5060043610610110575f3560e01c80630e0677ab14610114578063206db1ef146101295780632f2770db1461013c57806344f6fec71461014457806353a72f7e146101745780635ea81a32146101945780636634b753146101a7578063673a2a1f146101e2578063675d6050146101ea5780636c57f5a9146101fd57806378da80cb146102085780637a0b2e8d1461023f578063851c1bb3146102525780638d928af8146102735780638eec5d701461027b578063a7a4b71114610283578063aaabadc514610296578063d396a6661461029e578063db035ebc146102b1578063e9d56e19146102b9578063ed05beaf146102df578063ed38c8ec146102f2575b5f5ffd5b610127610122366004610e38565b610323565b005b610127610137366004610ec8565b6103b2565b610127610455565b610157610152366004610f7f565b61049b565b6040516001600160a01b0390911681526020015b60405180910390f35b610187610182366004610fd3565b61050e565b60405161016b9190610ff3565b6101576101a236600461105c565b610531565b6101d26101b53660046110bf565b6001600160a01b03165f9081526020819052604090205460ff1690565b604051901515815260200161016b565b61018761050e565b6101276101f83660046110da565b61059a565b60015460ff166101d2565b7f00000000000000000000000000000000000000000000000000000000000000005b60405163ffffffff909116815260200161016b565b61012761024d36600461111c565b61063c565b6102656102603660046111ba565b6106dc565b60405190815260200161016b565b610157610740565b610265610769565b6101276102913660046111e1565b610782565b61015761082e565b6101276102ac366004611251565b610896565b61022a6108f7565b7f000000000000000000000000000000000000000000000000000000000000000061022a565b6101276102ed3660046112d2565b61094f565b6101276103003660046110bf565b6001600160a01b03165f908152602081905260409020805460ff19166001179055565b60405163eeec802f60e01b81526001600160a01b037f0000000000000000000000000000000000000000000000000000000000000000169063eeec802f9061037d90899089905f908a9082908b908b908b906004016113f8565b5f604051808303815f87803b158015610394575f5ffd5b505af11580156103a6573d5f5f3e3d5ffd5b50505050505050505050565b6103ba610bd9565b7f00000000000000000000000000000000000000000000000000000000000000006001600160a01b031663eeec802f85855f6103f46108f7565b5f87896103ff6109b8565b6040518963ffffffff1660e01b81526004016104229897969594939291906114b9565b5f604051808303815f87803b158015610439575f5ffd5b505af115801561044b573d5f5f3e3d5ffd5b5050505050505050565b61045d6109db565b610465610a1c565b6001805460ff1916811790556040517f432acbfd662dbb5d8b378384a67159b47ca9d0f1b79f97cf64cf8585fa362d50905f90a1565b5f5f604051806020016104ad90610bf8565b601f1982820381018352601f9091011660408190526104d19190869060200161156c565b60408051601f19818403018152919052805160208201209091505f6104f585610a42565b9050610502818330610a65565b93505050505b92915050565b606060405162461bcd60e51b815260040161052890611588565b60405180910390fd5b5f5f7f0000000000000000000000000000000000000000000000000000000000000000848460405161056290610bf8565b61056e939291906115df565b604051809103905ff080158015610587573d5f5f3e3d5ffd5b50905061059381610a8e565b9392505050565b6105a2610bd9565b7f00000000000000000000000000000000000000000000000000000000000000006001600160a01b031663eeec802f84845f6105dc6108f7565b5f875f6105e76109b8565b6040518963ffffffff1660e01b815260040161060a9897969594939291906114b9565b5f604051808303815f87803b158015610621575f5ffd5b505af1158015610633573d5f5f3e3d5ffd5b50505050505050565b6001600160a01b037f00000000000000000000000000000000000000000000000000000000000000001663eeec802f888888610678894261161e565b8888886106836109b8565b6040518963ffffffff1660e01b81526004016106a69897969594939291906114b9565b5f604051808303815f87803b1580156106bd575f5ffd5b505af11580156106cf573d5f5f3e3d5ffd5b5050505050505050505050565b5f7f0000000000000000000000000000000000000000000000000000000000000000826040516020016107239291909182526001600160e01b031916602082015260240190565b604051602081830303815290604052805190602001209050919050565b7f000000000000000000000000000000000000000000000000000000000000000090565b905090565b5f60405162461bcd60e51b815260040161052890611588565b61078a610bd9565b6001600160a01b0380831660408301527f00000000000000000000000000000000000000000000000000000000000000001663eeec802f86865f6107cc6108f7565b5f878a6107d76109b8565b6040518963ffffffff1660e01b81526004016107fa9897969594939291906114b9565b5f604051808303815f87803b158015610811575f5ffd5b505af1158015610823573d5f5f3e3d5ffd5b505050505050505050565b5f610837610740565b6001600160a01b031663aaabadc56040518163ffffffff1660e01b8152600401602060405180830381865afa158015610872573d5f5f3e3d5ffd5b505050506040513d601f19601f820116820180604052508101906107649190611646565b7f00000000000000000000000000000000000000000000000000000000000000006001600160a01b031663eeec802f86865f6108d06108f7565b5f8989896040518963ffffffff1660e01b81526004016107fa9897969594939291906113f8565b5f7f000000000000000000000000000000000000000000000000000000000000000063ffffffff16421061092a57505f90565b507f000000000000000000000000000000000000000000000000000000000000000090565b610957610bd9565b7f00000000000000000000000000000000000000000000000000000000000000006001600160a01b031663eeec802f8787876109916108f7565b5f878a8a6040518963ffffffff1660e01b815260040161037d9897969594939291906113f8565b6109c0610c05565b6109c8610c05565b6001602082018190526040820152919050565b5f6109f05f356001600160e01b0319166106dc565b90506109fc8133610ae1565b610a19576040516323dada5360e01b815260040160405180910390fd5b50565b60015460ff1615610a4057604051633ac4266d60e11b815260040160405180910390fd5b565b604080513360208201524691810191909152606081018290525f90608001610723565b5f604051836040820152846020820152828152600b8101905060ff815360559020949350505050565b610a96610a1c565b6001600160a01b0381165f81815260208190526040808220805460ff19166001179055517f83a48fbcfc991335314e74d0496aab6a1987e992ddc85dddbcc4d6dd6ef2e9fc9190a250565b5f7f00000000000000000000000000000000000000000000000000000000000000006001600160a01b031663aaabadc56040518163ffffffff1660e01b8152600401602060405180830381865afa158015610b3e573d5f5f3e3d5ffd5b505050506040513d601f19601f82011682018060405250810190610b629190611646565b6040516326f8aa2160e21b8152600481018590526001600160a01b0384811660248301523060448301529190911690639be2a88490606401602060405180830381865afa158015610bb5573d5f5f3e3d5ffd5b505050506040513d601f19601f820116820180604052508101906105939190611661565b604080516060810182525f808252602082018190529181019190915290565b6121cb8061167d83390190565b604080516080810182525f80825260208201819052918101829052606081019190915290565b6001600160a01b0381168114610a19575f5ffd5b634e487b7160e01b5f52604160045260245ffd5b604051608081016001600160401b0381118282101715610c7557610c75610c3f565b60405290565b604051601f8201601f191681016001600160401b0381118282101715610ca357610ca3610c3f565b604052919050565b8015158114610a19575f5ffd5b5f82601f830112610cc7575f5ffd5b81356001600160401b03811115610ce057610ce0610c3f565b610cef60208260051b01610c7b565b8082825260208201915060208360071b860101925085831115610d10575f5ffd5b602085015b83811015610d8d5760808188031215610d2c575f5ffd5b610d34610c53565b8135610d3f81610c2b565b8152602082013560028110610d52575f5ffd5b60208201526040820135610d6581610c2b565b60408201526060820135610d7881610cab565b60608201528352602090920191608001610d15565b5095945050505050565b803563ffffffff81168114610daa575f5ffd5b919050565b5f60608284031215610dbf575f5ffd5b604051606081016001600160401b0381118282101715610de157610de1610c3f565b6040529050808235610df281610c2b565b81526020830135610e0281610c2b565b60208201526040830135610e1581610c2b565b6040919091015292915050565b5f60808284031215610e32575f5ffd5b50919050565b5f5f5f5f5f5f6101608789031215610e4e575f5ffd5b8635610e5981610c2b565b955060208701356001600160401b03811115610e73575f5ffd5b610e7f89828a01610cb8565b955050610e8e60408801610d97565b9350610e9d8860608901610daf565b925060c0870135610ead81610c2b565b9150610ebc8860e08901610e22565b90509295509295509295565b5f5f5f60608486031215610eda575f5ffd5b8335610ee581610c2b565b925060208401356001600160401b03811115610eff575f5ffd5b610f0b86828701610cb8565b9250506040840135610f1c81610c2b565b809150509250925092565b5f806001600160401b03841115610f4057610f40610c3f565b50601f8301601f1916602001610f5581610c7b565b915050828152838383011115610f69575f5ffd5b828260208301375f602084830101529392505050565b5f5f60408385031215610f90575f5ffd5b82356001600160401b03811115610fa5575f5ffd5b8301601f81018513610fb5575f5ffd5b610fc485823560208401610f27565b95602094909401359450505050565b5f5f60408385031215610fe4575f5ffd5b50508035926020909101359150565b602080825282518282018190525f918401906040840190835b818110156110335783516001600160a01b031683526020938401939092019160010161100c565b509095945050505050565b5f82601f83011261104d575f5ffd5b61059383833560208501610f27565b5f5f6040838503121561106d575f5ffd5b82356001600160401b03811115611082575f5ffd5b61108e8582860161103e565b92505060208301356001600160401b038111156110a9575f5ffd5b6110b58582860161103e565b9150509250929050565b5f602082840312156110cf575f5ffd5b813561059381610c2b565b5f5f604083850312156110eb575f5ffd5b82356110f681610c2b565b915060208301356001600160401b03811115611110575f5ffd5b6110b585828601610cb8565b5f5f5f5f5f5f5f610120888a031215611133575f5ffd5b873561113e81610c2b565b965060208801356001600160401b03811115611158575f5ffd5b6111648a828b01610cb8565b9650506040880135945061117a60608901610d97565b9350608088013561118a81610cab565b92506111998960a08a01610daf565b91506101008801356111aa81610c2b565b8091505092959891949750929550565b5f602082840312156111ca575f5ffd5b81356001600160e01b031981168114610593575f5ffd5b5f5f5f5f608085870312156111f4575f5ffd5b84356111ff81610c2b565b935060208501356001600160401b03811115611219575f5ffd5b61122587828801610cb8565b935050604085013561123681610c2b565b9150606085013561124681610c2b565b939692955090935050565b5f5f5f5f5f6101408688031215611266575f5ffd5b853561127181610c2b565b945060208601356001600160401b0381111561128b575f5ffd5b61129788828901610cb8565b9450506112a78760408801610daf565b925060a08601356112b781610c2b565b91506112c68760c08801610e22565b90509295509295909350565b5f5f5f5f5f61010086880312156112e7575f5ffd5b85356112f281610c2b565b945060208601356001600160401b0381111561130c575f5ffd5b61131888828901610cb8565b94505060408601359250606086013561133081610c2b565b91506112c68760808801610e22565b5f8151808452602084019350602083015f5b828110156113c757815180516001600160a01b0316875260208101516002811061138957634e487b7160e01b5f52602160045260245ffd5b6020888101919091526040828101516001600160a01b0316908901526060918201511515918801919091526080909601959190910190600101611351565b5093949350505050565b80516001600160a01b03908116835260208083015182169084015260409182015116910152565b6001600160a01b03891681526101a0602082018190525f9061141c9083018a61133f565b905087604083015263ffffffff87166060830152851515608083015261144560a08301866113d1565b6001600160a01b038416610100830152823561146081610cab565b1515610120830152602083013561147681610cab565b1515610140830152604083013561148c81610cab565b151561016083015260608301356114a281610cab565b801515610180840152509998505050505050505050565b6001600160a01b03891681526101a0602082018190525f906114dd9083018a61133f565b905087604083015263ffffffff87166060830152851515608083015261150660a08301866113d1565b6001600160a01b03939093166101008201528151151561012082015260208201511515610140820152604082015115156101608201526060909101511515610180909101529695505050505050565b5f81518060208401855e5f93019283525090919050565b5f61158061157a8386611555565b84611555565b949350505050565b6020808252600f908201526e139bdd081a5b5c1b195b595b9d1959608a1b604082015260600190565b5f81518084528060208401602086015e5f602082860101526020601f19601f83011685010191505092915050565b6001600160a01b03841681526060602082018190525f90611602908301856115b1565b828103604084015261161481856115b1565b9695505050505050565b63ffffffff818116838216019081111561050857634e487b7160e01b5f52601160045260245ffd5b5f60208284031215611656575f5ffd5b815161059381610c2b565b5f60208284031215611671575f5ffd5b815161059381610cab56fe60e0604052670de0b6b3a764000060055534801561001b575f5ffd5b506040516121cb3803806121cb83398101604081905261003a91610156565b8282828282604051806040016040528060018152602001603160f81b815250815f9081610067919061025c565b506001610074828261025c565b508151602092830120608052805191012060a0526001600160a01b031660c05260036100a0838261025c565b5060046100ad828261025c565b50505050505050610316565b634e487b7160e01b5f52604160045260245ffd5b5f82601f8301126100dc575f5ffd5b81516001600160401b038111156100f5576100f56100b9565b604051601f8201601f19908116603f011681016001600160401b0381118282101715610123576101236100b9565b60405281815283820160200185101561013a575f5ffd5b8160208501602083015e5f918101602001919091529392505050565b5f5f5f60608486031215610168575f5ffd5b83516001600160a01b038116811461017e575f5ffd5b60208501519093506001600160401b03811115610199575f5ffd5b6101a5868287016100cd565b604086015190935090506001600160401b038111156101c2575f5ffd5b6101ce868287016100cd565b9150509250925092565b600181811c908216806101ec57607f821691505b60208210810361020a57634e487b7160e01b5f52602260045260245ffd5b50919050565b601f82111561025757805f5260205f20601f840160051c810160208510156102355750805b601f840160051c820191505b81811015610254575f8155600101610241565b50505b505050565b81516001600160401b03811115610275576102756100b9565b6102898161028384546101d8565b84610210565b6020601f8211600181146102bb575f83156102a45750848201515b5f19600385901b1c1916600184901b178455610254565b5f84815260208120601f198516915b828110156102ea57878501518255602094850194600190920191016102ca565b508482101561030757868401515f19600387901b60f8161c191681555b50505050600190811b01905550565b60805160a05160c051611e376103945f395f81816104fb015281816105ea0152818161069901528181610784015281816108940152818161097a01528181610a5d01528181610aeb01528181610b8b01528181610c2601528181610dbd01528181610e720152610f3801525f610fd201525f610faa0152611e375ff3fe608060405234801561000f575f5ffd5b506004361061019f575f3560e01c806301ffc9a7146101a357806306fdde03146101dc578063095ea7b3146101f157806316a0b3e01461020457806318160ddd1461022557806323b872dd1461022d57806323de665114610240578063273c1adf1461025557806330adf81f1461026a578063313ce5671461027e578063360c340f1461028d5780633644e515146102a25780634cfe8d1a146102aa5780635687f2b8146102bd578063627cdcb9146102d0578063641579a6146102d8578063654cf15d146102eb578063679aefce146102f957806370a082311461030157806372c98186146103145780637ecebe001461032757806381fa807c1461033a57806384b0196e146103575780638d928af81461037257806395d89b4114610387578063984de9e81461038f578063a9059cbb146103a2578063ab68e28c146103b5578063abb1dc44146103d8578063b0e2e403146103f0578063b677fa5614610403578063ce20ece714610403578063d505accf14610409578063dd62ed3e1461041c578063e4c436631461042f575b5f5ffd5b6101c76101b136600461112e565b6001600160e01b0319166301ffc9a760e01b1490565b60405190151581526020015b60405180910390f35b6101e4610452565b6040516101d39190611183565b6101c76101ff3660046111a9565b6104e2565b6102176102123660046112ee565b610580565b6040519081526020016101d3565b6102176105d1565b6101c761023b366004611337565b610663565b61025361024e366004611337565b610710565b005b6b1d6329f1c35ca4bfabb9f56160281b610217565b6102175f516020611de25f395f51905f5281565b604051601281526020016101d3565b61029561076a565b6040516101d391906113af565b610217610800565b6102536102b83660046113c1565b600655565b6102536102cb366004611337565b610809565b610253610856565b6102536102e63660046113c1565b600555565b670de0b6b3a7640000610217565b610217610862565b61021761030f3660046113d8565b61087b565b6102176103223660046113f3565b61090a565b6102176103353660046113d8565b610958565b610342610975565b604080519283526020830191909152016101d3565b61035f610a19565b6040516101d39796959493929190611429565b61037a610a5b565b6040516101d39190611498565b6101e4610a7f565b61021761039d3660046114b8565b610a8e565b6101c76103b03660046111a9565b610ad2565b6103c86103c3366004611571565b610b24565b6040516101d39493929190611618565b6103e0610b83565b6040516101d39493929190611675565b6102536103fe3660046113c1565b610c24565b5f610217565b610253610417366004611761565b610cc1565b61021761042a3660046117d2565b610e43565b61044261043d3660046117fe565b610ee4565b6040516101d39493929190611865565b6060600380546104619061188f565b80601f016020809104026020016040519081016040528092919081815260200182805461048d9061188f565b80156104d85780601f106104af576101008083540402835291602001916104d8565b820191905f5260205f20905b8154815290600101906020018083116104bb57829003601f168201915b5050505050905090565b60405163e1f21c6760e01b81525f906001600160a01b037f0000000000000000000000000000000000000000000000000000000000000000169063e1f21c6790610534903390879087906004016118c1565b6020604051808303815f875af1158015610550573d5f5f3e3d5ffd5b505050506040513d601f19601f8201168201806040525081019061057491906118f9565b50600190505b92915050565b5f5f61058d856001610a8e565b90508061059a8185610f05565b8686815181106105ac576105ac611912565b60200260200101516105be919061193a565b6105c8919061194d565b95945050505050565b6040516339370aa960e21b81525f906001600160a01b037f0000000000000000000000000000000000000000000000000000000000000000169063e4dc2aa49061061f903090600401611498565b602060405180830381865afa15801561063a573d5f5f3e3d5ffd5b505050506040513d601f19601f8201168201806040525081019061065e9190611960565b905090565b604051630aed65f560e11b81523360048201526001600160a01b0384811660248301528381166044830152606482018390525f917f0000000000000000000000000000000000000000000000000000000000000000909116906315dacbea906084016020604051808303815f875af11580156106e1573d5f5f3e3d5ffd5b505050506040513d601f19601f8201168201806040525081019061070591906118f9565b506001949350505050565b610718610f2d565b816001600160a01b0316836001600160a01b03167fddf252ad1be2c89b69c2b068fc378daa952ba7f163c4a11628f55a4df523b3ef8360405161075d91815260200190565b60405180910390a3505050565b604051633f1b0def60e11b81526060906001600160a01b037f00000000000000000000000000000000000000000000000000000000000000001690637e361bde906107b9903090600401611498565b5f60405180830381865afa1580156107d3573d5f5f3e3d5ffd5b505050506040513d5f823e601f3d908101601f191682016040526107fa91908101906119d2565b50919050565b5f61065e610f7a565b610811610f2d565b816001600160a01b0316836001600160a01b03167f8c5be1e5ebec7d5bd14f71427d1e84f3dd0314c0f7b2291e5b200ac8c7c3b9258360405161075d91815260200190565b61085f33611022565b50565b5f6006545f14610873575060065490565b61065e611044565b604051633de222bb60e21b81525f906001600160a01b037f0000000000000000000000000000000000000000000000000000000000000000169063f7888aec906108cb9030908690600401611a37565b602060405180830381865afa1580156108e6573d5f5f3e3d5ffd5b505050506040513d601f19601f8201168201806040525081019061057a9190611960565b5f806109196020840184611a51565b600181111561092a5761092a611661565b146109465760055461094190602084013590611078565b61057a565b60055461057a90602084013590610f05565b6001600160a01b0381165f9081526002602052604081205461057a565b5f5f5f7f00000000000000000000000000000000000000000000000000000000000000006001600160a01b031663f29486a1306040518263ffffffff1660e01b81526004016109c49190611498565b6101a060405180830381865afa1580156109e0573d5f5f3e3d5ffd5b505050506040513d601f19601f82011682018060405250810190610a049190611b10565b90508060400151925080606001519150509091565b5f6060805f5f5f6060610a2a611098565b610a326110a6565b604080515f80825260208201909252600f60f81b9b939a50919850469750309650945092509050565b7f000000000000000000000000000000000000000000000000000000000000000090565b6060600480546104619061188f565b5f80805b8451811015610aca57848181518110610aad57610aad611912565b602002602001015182610ac0919061193a565b9150600101610a92565b509392505050565b6040516317d5759960e31b81525f906001600160a01b037f0000000000000000000000000000000000000000000000000000000000000000169063beabacc890610534903390879087906004016118c1565b5f6060806060878788516001600160401b03811115610b4557610b456111d3565b604051908082528060200260200182016040528015610b6e578160200160208202803683370190505b50919b909a5090985094965093945050505050565b6060806060807f00000000000000000000000000000000000000000000000000000000000000006001600160a01b03166367e0e076306040518263ffffffff1660e01b8152600401610bd59190611498565b5f60405180830381865afa158015610bef573d5f5f3e3d5ffd5b505050506040513d5f823e601f3d908101601f19168201604052610c169190810190611c6c565b935093509350935090919293565b7f00000000000000000000000000000000000000000000000000000000000000006001600160a01b031663c808824782604051602001610c6691815260200190565b6040516020818303038152906040526040518263ffffffff1660e01b8152600401610c919190611d87565b5f604051808303815f87803b158015610ca8575f5ffd5b505af1158015610cba573d5f5f3e3d5ffd5b5050505050565b83421115610cea5760405163313c898160e11b8152600481018590526024015b60405180910390fd5b5f5f516020611de25f395f51905f52888888610d058c611022565b6040805160208101969096526001600160a01b0394851690860152929091166060840152608083015260a082015260c0810186905260e0016040516020818303038152906040528051906020012090505f610d5f826110b5565b90505f610d6e828787876110e1565b9050896001600160a01b0316816001600160a01b031614610da657808a6040516325c0072360e11b8152600401610ce1929190611a37565b60405163e1f21c6760e01b81526001600160a01b037f0000000000000000000000000000000000000000000000000000000000000000169063e1f21c6790610df6908d908d908d906004016118c1565b6020604051808303815f875af1158015610e12573d5f5f3e3d5ffd5b505050506040513d601f19601f82011682018060405250810190610e3691906118f9565b5050505050505050505050565b60405163927da10560e01b81523060048201526001600160a01b03838116602483015282811660448301525f917f00000000000000000000000000000000000000000000000000000000000000009091169063927da10590606401602060405180830381865afa158015610eb9573d5f5f3e3d5ffd5b505050506040513d601f19601f82011682018060405250810190610edd9190611960565b9392505050565b60605f606080878789516001600160401b03811115610b4557610b456111d3565b5f80610f118385611dab565b9050610f25670de0b6b3a764000082611dc2565b949350505050565b336001600160a01b037f00000000000000000000000000000000000000000000000000000000000000001614610f78573360405163089676d560e01b8152600401610ce19190611498565b565b5f61065e604080517f8b73c3c69bb8fe3d512ecc4cf759cc79239f7b179b0ffacaa9a75d522b39400f60208201527f0000000000000000000000000000000000000000000000000000000000000000918101919091527f000000000000000000000000000000000000000000000000000000000000000060608201524660808201523060a08201525f9060c00160405160208183030381529060405280519060200120905090565b6001600160a01b03165f90815260026020526040902080546001810190915590565b5f61104d610a5b565b6001600160a01b0316634f037ee7306040518263ffffffff1660e01b815260040161061f9190611498565b5f8061108c670de0b6b3a764000085611dab565b9050610f258382611dc2565b60605f80546104619061188f565b6060600180546104619061188f565b5f61057a6110c1610f7a565b8360405161190160f01b8152600281019290925260228201526042902090565b5f6105c8858585855f604051855f5260ff851660205283604052826060526020600160805f60015afa5191503d61111f57638baa579f5f526004601cfd5b5f606052604052949350505050565b5f6020828403121561113e575f5ffd5b81356001600160e01b031981168114610edd575f5ffd5b5f81518084528060208401602086015e5f602082860101526020601f19601f83011685010191505092915050565b602081525f610edd6020830184611155565b6001600160a01b038116811461085f575f5ffd5b5f5f604083850312156111ba575f5ffd5b82356111c581611195565b946020939093013593505050565b634e487b7160e01b5f52604160045260245ffd5b60405161014081016001600160401b038111828210171561120a5761120a6111d3565b60405290565b604051606081016001600160401b038111828210171561120a5761120a6111d3565b604051601f8201601f191681016001600160401b038111828210171561125a5761125a6111d3565b604052919050565b5f6001600160401b0382111561127a5761127a6111d3565b5060051b60200190565b5f82601f830112611293575f5ffd5b81356112a66112a182611262565b611232565b8082825260208201915060208360051b8601019250858311156112c7575f5ffd5b602085015b838110156112e45780358352602092830192016112cc565b5095945050505050565b5f5f5f60608486031215611300575f5ffd5b83356001600160401b03811115611315575f5ffd5b61132186828701611284565b9660208601359650604090950135949350505050565b5f5f5f60608486031215611349575f5ffd5b833561135481611195565b9250602084013561136481611195565b929592945050506040919091013590565b5f8151808452602084019350602083015f5b828110156113a5578151865260209586019590910190600101611387565b5093949350505050565b602081525f610edd6020830184611375565b5f602082840312156113d1575f5ffd5b5035919050565b5f602082840312156113e8575f5ffd5b8135610edd81611195565b5f60208284031215611403575f5ffd5b81356001600160401b03811115611418575f5ffd5b820160e08185031215610edd575f5ffd5b60ff60f81b8816815260e060208201525f61144760e0830189611155565b82810360408401526114598189611155565b606084018890526001600160a01b038716608085015260a0840186905283810360c0850152905061148a8185611375565b9a9950505050505050505050565b6001600160a01b0391909116815260200190565b6002811061085f575f5ffd5b5f5f604083850312156114c9575f5ffd5b82356001600160401b038111156114de575f5ffd5b6114ea85828601611284565b92505060208301356114fb816114ac565b809150509250929050565b5f82601f830112611515575f5ffd5b81356001600160401b0381111561152e5761152e6111d3565b611541601f8201601f1916602001611232565b818152846020838601011115611555575f5ffd5b816020850160208301375f918101602001919091529392505050565b5f5f5f5f5f60a08688031215611585575f5ffd5b853561159081611195565b94506020860135935060408601356001600160401b038111156115b1575f5ffd5b6115bd88828901611284565b93505060608601356001600160401b038111156115d8575f5ffd5b6115e488828901611284565b92505060808601356001600160401b038111156115ff575f5ffd5b61160b88828901611506565b9150509295509295909350565b848152608060208201525f6116306080830186611375565b82810360408401526116428186611375565b905082810360608401526116568185611155565b979650505050505050565b634e487b7160e01b5f52602160045260245ffd5b608080825285519082018190525f90602087019060a0840190835b818110156116b75783516001600160a01b0316835260209384019390920191600101611690565b505083810360208501528091505f87518083526020830193506020890192505f5b8181101561173757835180516002811061170057634e487b7160e01b5f52602160045260245ffd5b86526020818101516001600160a01b03168188015260409182015115159187019190915260609095019493909301926001016116d8565b50505050828103604084015261174d8186611375565b905082810360608401526116568185611375565b5f5f5f5f5f5f5f60e0888a031215611777575f5ffd5b873561178281611195565b9650602088013561179281611195565b95506040880135945060608801359350608088013560ff811681146117b5575f5ffd5b9699959850939692959460a0840135945060c09093013592915050565b5f5f604083850312156117e3575f5ffd5b82356117ee81611195565b915060208301356114fb81611195565b5f5f5f5f5f60a08688031215611812575f5ffd5b853561181d81611195565b945060208601356001600160401b03811115611837575f5ffd5b61184388828901611284565b9450506040860135925060608601356001600160401b038111156115d8575f5ffd5b608081525f6118776080830187611375565b85602084015282810360408401526116428186611375565b600181811c908216806118a357607f821691505b6020821081036107fa57634e487b7160e01b5f52602260045260245ffd5b6001600160a01b039384168152919092166020820152604081019190915260600190565b805180151581146118f4575f5ffd5b919050565b5f60208284031215611909575f5ffd5b610edd826118e5565b634e487b7160e01b5f52603260045260245ffd5b634e487b7160e01b5f52601160045260245ffd5b8082018082111561057a5761057a611926565b8181038181111561057a5761057a611926565b5f60208284031215611970575f5ffd5b5051919050565b5f82601f830112611986575f5ffd5b81516119946112a182611262565b8082825260208201915060208360051b8601019250858311156119b5575f5ffd5b602085015b838110156112e45780518352602092830192016119ba565b5f5f604083850312156119e3575f5ffd5b82516001600160401b038111156119f8575f5ffd5b611a0485828601611977565b602085015190935090506001600160401b03811115611a21575f5ffd5b611a2d85828601611977565b9150509250929050565b6001600160a01b0392831681529116602082015260400190565b5f60208284031215611a61575f5ffd5b8135610edd816114ac565b5f60808284031215611a7c575f5ffd5b604051608081016001600160401b0381118282101715611a9e57611a9e6111d3565b604052905080611aad836118e5565b8152611abb602084016118e5565b6020820152611acc604084016118e5565b6040820152611add606084016118e5565b60608201525092915050565b805164ffffffffff811681146118f4575f5ffd5b805163ffffffff811681146118f4575f5ffd5b5f6101a0828403128015611b22575f5ffd5b50611b2b6111e7565b611b358484611a6c565b81526080830151602082015260a0830151604082015260c08301516060820152611b6160e08401611ae9565b6080820152611b736101008401611afd565b60a0820152611b8561012084016118e5565b60c0820152611b9761014084016118e5565b60e0820152611ba961016084016118e5565b610100820152611bbc61018084016118e5565b6101208201529392505050565b5f82601f830112611bd8575f5ffd5b8151611be66112a182611262565b80828252602082019150602060608402860101925085831115611c07575f5ffd5b602085015b838110156112e45760608188031215611c23575f5ffd5b611c2b611210565b8151611c36816114ac565b81526020820151611c4681611195565b6020820152611c57604083016118e5565b60408201528352602090920191606001611c0c565b5f5f5f5f60808587031215611c7f575f5ffd5b84516001600160401b03811115611c94575f5ffd5b8501601f81018713611ca4575f5ffd5b8051611cb26112a182611262565b8082825260208201915060208360051b850101925089831115611cd3575f5ffd5b6020840193505b82841015611cfe578351611ced81611195565b825260209384019390910190611cda565b6020890151909750925050506001600160401b03811115611d1d575f5ffd5b611d2987828801611bc9565b604087015190945090506001600160401b03811115611d46575f5ffd5b611d5287828801611977565b606087015190935090506001600160401b03811115611d6f575f5ffd5b611d7b87828801611977565b91505092959194509250565b6815195cdd115d995b9d60ba1b8152604060208201525f610edd6040830184611155565b808202811582820484141761057a5761057a611926565b5f82611ddc57634e487b7160e01b5f52601260045260245ffd5b50049056fe6e71edae12b1b97f4d1f60370fef10105fa2faae0126114a169c64845d6126c9a2646970667358221220a40d617a8badedd814acc9ae020dbf170346645785f39e4b0b4e65cee489d3b264736f6c634300081e0033a26469706673582212200884699349577f76a09b2fd9e8c3e77cc84d86b608bc02a481f6e3da2375ee6c64736f6c634300081e00336080604052348015600e575f5ffd5b506107458061001c5f395ff3fe608060405234801561000f575f5ffd5b506004361061003f575f3560e01c8063136deb1c14610043578063a3aef0b81461006c578063bb4ad7d514610081575b5f5ffd5b61005661005136600461045e565b6100a1565b60405161006391906104fc565b60405180910390f35b61007f61007a36600461045e565b6100b2565b005b61009461008f366004610547565b6100be565b6040516100639190610632565b60606100ac826101f2565b92915050565b6100bb81610324565b50565b60605f5b600183516100d091906106d5565b8110156101eb575f5b60018285516100e891906106d5565b6100f291906106d5565b8110156101e257836101058260016106e8565b81518110610115576101156106fb565b60200260200101515f01516001600160a01b031684828151811061013b5761013b6106fb565b60200260200101515f01516001600160a01b031611156101da57836101618260016106e8565b81518110610171576101716106fb565b602002602001015184828151811061018b5761018b6106fb565b60200260200101518583815181106101a5576101a56106fb565b60200260200101868460016101ba91906106e8565b815181106101ca576101ca6106fb565b6020026020010182905282905250505b6001016100d9565b506001016100c2565b5090919050565b60605f5b6001835161020491906106d5565b8110156101eb575f5b600182855161021c91906106d5565b61022691906106d5565b81101561031b57836102398260016106e8565b81518110610249576102496106fb565b60200260200101516001600160a01b031684828151811061026c5761026c6106fb565b60200260200101516001600160a01b03161115610313578361028f8260016106e8565b8151811061029f5761029f6106fb565b60200260200101518482815181106102b9576102b96106fb565b60200260200101518583815181106102d3576102d36106fb565b60200260200101868460016102e891906106e8565b815181106102f8576102f86106fb565b6001600160a01b039384166020918202929092010152911690525b60010161020d565b506001016101f6565b6002815110156103315750565b5f815f81518110610344576103446106fb565b602002602001015190505f600190505b82518110156103b7575f838281518110610370576103706106fb565b60200260200101519050806001600160a01b0316836001600160a01b031611156103ad57604051636e8f194760e01b815260040160405180910390fd5b9150600101610354565b505050565b634e487b7160e01b5f52604160045260245ffd5b604051608081016001600160401b03811182821017156103f2576103f26103bc565b60405290565b604051601f8201601f191681016001600160401b0381118282101715610420576104206103bc565b604052919050565b5f6001600160401b03821115610440576104406103bc565b5060051b60200190565b6001600160a01b03811681146100bb575f5ffd5b5f6020828403121561046e575f5ffd5b81356001600160401b03811115610483575f5ffd5b8201601f81018413610493575f5ffd5b80356104a66104a182610428565b6103f8565b8082825260208201915060208360051b8501019250868311156104c7575f5ffd5b6020840193505b828410156104f25783356104e18161044a565b8252602093840193909101906104ce565b9695505050505050565b602080825282518282018190525f918401906040840190835b8181101561053c5783516001600160a01b0316835260209384019390920191600101610515565b509095945050505050565b5f60208284031215610557575f5ffd5b81356001600160401b0381111561056c575f5ffd5b8201601f8101841361057c575f5ffd5b803561058a6104a182610428565b8082825260208201915060208360071b8501019250868311156105ab575f5ffd5b6020840193505b828410156104f257608084880312156105c9575f5ffd5b6105d16103d0565b84356105dc8161044a565b81526020850135600281106105ef575f5ffd5b602082015260408501356106028161044a565b604082015260608501358015158114610619575f5ffd5b60608201528252608093909301926020909101906105b2565b602080825282518282018190525f918401906040840190835b8181101561053c57835180516001600160a01b0316845260208101516002811061068357634e487b7160e01b5f52602160045260245ffd5b6020858101919091526040828101516001600160a01b031690860152606091820151151591850191909152939093019260809092019160010161064b565b634e487b7160e01b5f52601160045260245ffd5b818103818111156100ac576100ac6106c1565b808201808211156100ac576100ac6106c1565b634e487b7160e01b5f52603260045260245ffdfea2646970667358221220071ad516432728e0c5bad63e83b83507238ce60b0e72398cdcb5996198afa59864736f6c634300081e0033","linkReferences":{}},"methodIdentifiers":{"accountDelta(address,int256)":"80047e26","addLiquidity((address,address,uint256[],uint256,uint8,bytes))":"4af29ec4","buildTokenConfig(address[])":"24e7176b","buildTokenConfig(address[],address[])":"5f70f542","buildTokenConfig(address[],address[],bool[])":"e5948689","buildTokenConfig(address[],uint8[],address[],bool[])":"608256f7","burnERC20(address,address,uint256)":"1d27af68","computeYieldFeesDue((bytes32,address[],(uint8,address,bool)[],uint256[],uint256[],uint256[],uint256[]),uint256,uint256,uint256)":"08bade29","ensurePoolNotPaused(address)":"02e1a4aa","ensureUnpausedAndGetVaultState(address)":"e460a8a9","ensureValidSwapAmount(uint256)":"b4eb0bf9","ensureValidTradeAmount(uint256)":"2cbbf198","erc4626BufferWrapOrUnwrap((uint8,uint8,address,uint256,uint256))":"43583be5","forceLock()":"6d4908c4","forceUnlock()":"7965c967","getBufferTokenBalancesBytes(address)":"e5b08ffb","getLastLiveBalances(address)":"3cce2585","getPoolFactoryMock()":"87a76c59","getPoolTokenCountAndIndexOfToken(address,address)":"c9c1661b","getRawBalances(address)":"19a24bcb","getVaultExtension()":"b9a8effa","guardedCheckEntered()":"a408f312","internalGetBufferUnderlyingImbalance(address)":"2606a4de","internalGetBufferWrappedImbalance(address)":"a40f9592","loadPoolDataUpdatingBalancesAndYieldFees(address,uint8)":"0f682ba0","loadPoolDataUpdatingBalancesAndYieldFeesReentrancy(address,uint8)":"dc4402ed","manualAddLiquidity((bytes32,address[],(uint8,address,bool)[],uint256[],uint256[],uint256[],uint256[]),(address,address,uint256[],uint256,uint8,bytes),uint256[])":"0790de46","manualBuildPoolSwapParams((uint8,address,address,address,uint256,uint256,bytes),(uint256,uint256,uint256,uint256),(bytes32,address[],(uint8,address,bool)[],uint256[],uint256[],uint256[],uint256[]))":"16a573c2","manualComputeAmountGivenScaled18((uint8,address,address,address,uint256,uint256,bytes),(bytes32,address[],(uint8,address,bool)[],uint256[],uint256[],uint256[],uint256[]),(uint256,uint256,uint256,uint256))":"06bf83b1","manualComputeAndChargeAggregateSwapFees((bytes32,address[],(uint8,address,bool)[],uint256[],uint256[],uint256[],uint256[]),uint256,address,address,uint256)":"be6b4d2a","manualErc4626BufferWrapOrUnwrapReentrancy((uint8,uint8,address,uint256,uint256))":"370bc8da","manualFindTokenIndex(address[],address)":"ebfeb0a1","manualGetAddLiquidityCalledFlagBySession(address,uint256)":"420f4a45","manualGetAggregateSwapFeeAmount(address,address)":"36918d6e","manualGetAggregateYieldFeeAmount(address,address)":"8f5aeb4b","manualGetCurrentUnlockSessionId()":"81e4b7e9","manualGetIsUnlocked()":"b2469499","manualGetNonzeroDeltaCount()":"155075e6","manualGetPoolConfigBits(address)":"557dba68","manualGetTokenDeltas()":"1f4475c5","manualInternalSwap((uint8,address,address,address,uint256,uint256,bytes),(uint256,uint256,uint256,uint256),(bytes32,address[],(uint8,address,bool)[],uint256[],uint256[],uint256[],uint256[]))":"25b6a844","manualLoadSwapState((uint8,address,address,address,uint256,uint256,bytes),(bytes32,address[],(uint8,address,bool)[],uint256[],uint256[],uint256[],uint256[]))":"4594871a","manualReentrancyAddLiquidity((bytes32,address[],(uint8,address,bool)[],uint256[],uint256[],uint256[],uint256[]),(address,address,uint256[],uint256,uint8,bytes),uint256[])":"eeda9991","manualReentrancyRemoveLiquidity((bytes32,address[],(uint8,address,bool)[],uint256[],uint256[],uint256[],uint256[]),(address,address,uint256,uint256[],uint8,bytes),uint256[])":"28121e27","manualReentrancySwap((uint8,address,address,address,uint256,uint256,bytes),(uint256,uint256,uint256,uint256),(bytes32,address[],(uint8,address,bool)[],uint256[],uint256[],uint256[],uint256[]))":"96e74a27","manualRegisterPool(address,address[])":"851c65a3","manualRegisterPoolAtTimestamp(address,address[],uint32,(address,address,address))":"0362a513","manualRegisterPoolPassThruTokens(address,address[])":"32333ce6","manualRegisterPoolWithSwapFee(address,address[],uint256)":"1f495f79","manualRemoveLiquidity((bytes32,address[],(uint8,address,bool)[],uint256[],uint256[],uint256[],uint256[]),(address,address,uint256,uint256[],uint8,bytes),uint256[])":"f1320097","manualSendToReentrancy(address,address,uint256)":"d01a3269","manualSetAccountDelta(address,int256)":"d0643b8c","manualSetAddLiquidityCalledFlag(address,bool)":"e2ddce11","manualSetAggregateSwapFeeAmount(address,address,uint256)":"44ea8763","manualSetAggregateSwapFeePercentage(address,uint256)":"cfcc2209","manualSetAggregateYieldFeeAmount(address,address,uint256)":"7004b0f1","manualSetAggregateYieldFeePercentage(address,uint256)":"920af066","manualSetBufferAsset(address,address)":"ab62c2b6","manualSetBufferBalances(address,uint256,uint256)":"0ee4cdd8","manualSetBufferOwnerShares(address,address,uint256)":"ff44deab","manualSetBufferTotalShares(address,uint256)":"3cb5b2af","manualSetHooksConfig(address,(bool,bool,bool,bool,bool,bool,bool,bool,bool,bool,address))":"c1fdcd62","manualSetInitializedPool(address,bool)":"5e3e00fa","manualSetNonZeroDeltaCount(uint256)":"5eeae6eb","manualSetPoolBalances(address,uint256[],uint256[])":"1c4e1e23","manualSetPoolConfig(address,((bool,bool,bool,bool),uint256,uint256,uint256,uint40,uint32,bool,bool,bool,bool))":"5c1c1c81","manualSetPoolConfigBits(address,bytes32)":"df138458","manualSetPoolCreator(address,address)":"79a2c0ac","manualSetPoolPauseWindowEndTime(address,uint32)":"0c87409b","manualSetPoolPaused(address,bool)":"cbde2b68","manualSetPoolRegistered(address,bool)":"352339ee","manualSetPoolTokenInfo(address,(address,uint8,address,bool)[])":"dab50579","manualSetPoolTokenInfo(address,address[],(uint8,address,bool)[])":"bb14e466","manualSetPoolTokens(address,address[])":"82ea1749","manualSetPoolTokensAndBalances(address,address[],uint256[],uint256[])":"d8f4cf3c","manualSetReservesOf(address,uint256)":"d64bc25d","manualSetStaticSwapFeePercentage(address,uint256)":"195aaef9","manualSetVaultPaused(bool)":"692407ae","manualSetVaultState(bool,bool)":"10c1dc41","manualSettleReentrancy(address)":"2d1c3beb","manualSettleUnwrap(address,address,uint256,uint256)":"b6f680f4","manualSettleWrap(address,address,uint256,uint256)":"ac004855","manualTransfer(address,address,uint256)":"00d7aadb","manualUnsafeSetStaticSwapFeePercentage(address,uint256)":"2b766278","manualUpdateAggregateSwapFeePercentage(address,uint256)":"a03b23ef","manualUpdatePoolDataLiveBalancesAndRates(address,(bytes32,address[],(uint8,address,bool)[],uint256[],uint256[],uint256[],uint256[]),uint8)":"d86c3fef","manualWritePoolBalancesToStorage(address,(bytes32,address[],(uint8,address,bool)[],uint256[],uint256[],uint256[],uint256[]))":"0f619655","mintERC20(address,address,uint256)":"47c07e88","mockIsUnlocked()":"b8caceee","mockWithInitializedPool(address)":"62691e5f","previewDeposit(address,uint256)":"b8f82b26","previewMint(address,uint256)":"d1f810a5","previewRedeem(address,uint256)":"cbe52ae3","previewWithdraw(address,uint256)":"bbc6f1dc","recoveryModeExit(address)":"87a530f8","reentrancyGuardEntered()":"d2c725e0","removeLiquidity((address,address,uint256,uint256[],uint8,bytes))":"21457897","sendTo(address,address,uint256)":"ae639329","settle(address,uint256)":"15afd409","supplyCredit(address,uint256)":"b1740c2d","swap((uint8,address,address,address,uint256,uint256,bytes))":"2bfb780c","takeDebt(address,uint256)":"3e262ba3","transfer(address,address,uint256)":"beabacc8","transferFrom(address,address,address,uint256)":"15dacbea","unguardedCheckNotEntered()":"cecc95a7","unlock(bytes)":"48c89491","updateLiveTokenBalanceInPoolData((bytes32,address[],(uint8,address,bool)[],uint256[],uint256[],uint256[],uint256[]),uint256,uint8,uint256)":"aa01edb3"},"id":390}