{"abi":[{"type":"function","name":"_setSVGBasicInfo","inputs":[{"name":"s","type":"tuple","internalType":"struct NFTSVG.SVGParams","components":[{"name":"quoteToken","type":"string","internalType":"string"},{"name":"baseToken","type":"string","internalType":"string"},{"name":"poolAddress","type":"address","internalType":"address"},{"name":"quoteTokenSymbol","type":"string","internalType":"string"},{"name":"baseTokenSymbol","type":"string","internalType":"string"},{"name":"feeTier","type":"string","internalType":"string"},{"name":"tickLower","type":"int24","internalType":"int24"},{"name":"tickUpper","type":"int24","internalType":"int24"},{"name":"tickSpacing","type":"int24","internalType":"int24"},{"name":"overRange","type":"int8","internalType":"int8"},{"name":"tokenId","type":"uint256","internalType":"uint256"},{"name":"color0","type":"string","internalType":"string"},{"name":"color1","type":"string","internalType":"string"},{"name":"color2","type":"string","internalType":"string"},{"name":"color3","type":"string","internalType":"string"},{"name":"x1","type":"string","internalType":"string"},{"name":"y1","type":"string","internalType":"string"},{"name":"x2","type":"string","internalType":"string"},{"name":"y2","type":"string","internalType":"string"},{"name":"x3","type":"string","internalType":"string"},{"name":"y3","type":"string","internalType":"string"}]},{"name":"p","type":"tuple","internalType":"struct NFTDescriptor.ConstructTokenURIParams","components":[{"name":"tokenId","type":"uint256","internalType":"uint256"},{"name":"quoteTokenAddress","type":"address","internalType":"address"},{"name":"baseTokenAddress","type":"address","internalType":"address"},{"name":"quoteTokenSymbol","type":"string","internalType":"string"},{"name":"baseTokenSymbol","type":"string","internalType":"string"},{"name":"quoteTokenDecimals","type":"uint8","internalType":"uint8"},{"name":"baseTokenDecimals","type":"uint8","internalType":"uint8"},{"name":"flipRatio","type":"bool","internalType":"bool"},{"name":"tickLower","type":"int24","internalType":"int24"},{"name":"tickUpper","type":"int24","internalType":"int24"},{"name":"tickCurrent","type":"int24","internalType":"int24"},{"name":"tickSpacing","type":"int24","internalType":"int24"},{"name":"fee","type":"uint24","internalType":"uint24"},{"name":"poolAddress","type":"address","internalType":"address"}]}],"outputs":[],"stateMutability":"pure"},{"type":"function","name":"_setSVGCircleCoords","inputs":[{"name":"s","type":"tuple","internalType":"struct NFTSVG.SVGParams","components":[{"name":"quoteToken","type":"string","internalType":"string"},{"name":"baseToken","type":"string","internalType":"string"},{"name":"poolAddress","type":"address","internalType":"address"},{"name":"quoteTokenSymbol","type":"string","internalType":"string"},{"name":"baseTokenSymbol","type":"string","internalType":"string"},{"name":"feeTier","type":"string","internalType":"string"},{"name":"tickLower","type":"int24","internalType":"int24"},{"name":"tickUpper","type":"int24","internalType":"int24"},{"name":"tickSpacing","type":"int24","internalType":"int24"},{"name":"overRange","type":"int8","internalType":"int8"},{"name":"tokenId","type":"uint256","internalType":"uint256"},{"name":"color0","type":"string","internalType":"string"},{"name":"color1","type":"string","internalType":"string"},{"name":"color2","type":"string","internalType":"string"},{"name":"color3","type":"string","internalType":"string"},{"name":"x1","type":"string","internalType":"string"},{"name":"y1","type":"string","internalType":"string"},{"name":"x2","type":"string","internalType":"string"},{"name":"y2","type":"string","internalType":"string"},{"name":"x3","type":"string","internalType":"string"},{"name":"y3","type":"string","internalType":"string"}]},{"name":"quote","type":"address","internalType":"address"},{"name":"base","type":"address","internalType":"address"},{"name":"tid","type":"uint256","internalType":"uint256"}],"outputs":[],"stateMutability":"pure"},{"type":"function","name":"_setSVGColors","inputs":[{"name":"s","type":"tuple","internalType":"struct NFTSVG.SVGParams","components":[{"name":"quoteToken","type":"string","internalType":"string"},{"name":"baseToken","type":"string","internalType":"string"},{"name":"poolAddress","type":"address","internalType":"address"},{"name":"quoteTokenSymbol","type":"string","internalType":"string"},{"name":"baseTokenSymbol","type":"string","internalType":"string"},{"name":"feeTier","type":"string","internalType":"string"},{"name":"tickLower","type":"int24","internalType":"int24"},{"name":"tickUpper","type":"int24","internalType":"int24"},{"name":"tickSpacing","type":"int24","internalType":"int24"},{"name":"overRange","type":"int8","internalType":"int8"},{"name":"tokenId","type":"uint256","internalType":"uint256"},{"name":"color0","type":"string","internalType":"string"},{"name":"color1","type":"string","internalType":"string"},{"name":"color2","type":"string","internalType":"string"},{"name":"color3","type":"string","internalType":"string"},{"name":"x1","type":"string","internalType":"string"},{"name":"y1","type":"string","internalType":"string"},{"name":"x2","type":"string","internalType":"string"},{"name":"y2","type":"string","internalType":"string"},{"name":"x3","type":"string","internalType":"string"},{"name":"y3","type":"string","internalType":"string"}]},{"name":"quote","type":"address","internalType":"address"},{"name":"base","type":"address","internalType":"address"}],"outputs":[],"stateMutability":"pure"},{"type":"function","name":"_setSVGTickInfo","inputs":[{"name":"s","type":"tuple","internalType":"struct NFTSVG.SVGParams","components":[{"name":"quoteToken","type":"string","internalType":"string"},{"name":"baseToken","type":"string","internalType":"string"},{"name":"poolAddress","type":"address","internalType":"address"},{"name":"quoteTokenSymbol","type":"string","internalType":"string"},{"name":"baseTokenSymbol","type":"string","internalType":"string"},{"name":"feeTier","type":"string","internalType":"string"},{"name":"tickLower","type":"int24","internalType":"int24"},{"name":"tickUpper","type":"int24","internalType":"int24"},{"name":"tickSpacing","type":"int24","internalType":"int24"},{"name":"overRange","type":"int8","internalType":"int8"},{"name":"tokenId","type":"uint256","internalType":"uint256"},{"name":"color0","type":"string","internalType":"string"},{"name":"color1","type":"string","internalType":"string"},{"name":"color2","type":"string","internalType":"string"},{"name":"color3","type":"string","internalType":"string"},{"name":"x1","type":"string","internalType":"string"},{"name":"y1","type":"string","internalType":"string"},{"name":"x2","type":"string","internalType":"string"},{"name":"y2","type":"string","internalType":"string"},{"name":"x3","type":"string","internalType":"string"},{"name":"y3","type":"string","internalType":"string"}]},{"name":"p","type":"tuple","internalType":"struct NFTDescriptor.ConstructTokenURIParams","components":[{"name":"tokenId","type":"uint256","internalType":"uint256"},{"name":"quoteTokenAddress","type":"address","internalType":"address"},{"name":"baseTokenAddress","type":"address","internalType":"address"},{"name":"quoteTokenSymbol","type":"string","internalType":"string"},{"name":"baseTokenSymbol","type":"string","internalType":"string"},{"name":"quoteTokenDecimals","type":"uint8","internalType":"uint8"},{"name":"baseTokenDecimals","type":"uint8","internalType":"uint8"},{"name":"flipRatio","type":"bool","internalType":"bool"},{"name":"tickLower","type":"int24","internalType":"int24"},{"name":"tickUpper","type":"int24","internalType":"int24"},{"name":"tickCurrent","type":"int24","internalType":"int24"},{"name":"tickSpacing","type":"int24","internalType":"int24"},{"name":"fee","type":"uint24","internalType":"uint24"},{"name":"poolAddress","type":"address","internalType":"address"}]}],"outputs":[],"stateMutability":"pure"},{"type":"function","name":"constructTokenURI","inputs":[{"name":"params","type":"tuple","internalType":"struct NFTDescriptor.ConstructTokenURIParams","components":[{"name":"tokenId","type":"uint256","internalType":"uint256"},{"name":"quoteTokenAddress","type":"address","internalType":"address"},{"name":"baseTokenAddress","type":"address","internalType":"address"},{"name":"quoteTokenSymbol","type":"string","internalType":"string"},{"name":"baseTokenSymbol","type":"string","internalType":"string"},{"name":"quoteTokenDecimals","type":"uint8","internalType":"uint8"},{"name":"baseTokenDecimals","type":"uint8","internalType":"uint8"},{"name":"flipRatio","type":"bool","internalType":"bool"},{"name":"tickLower","type":"int24","internalType":"int24"},{"name":"tickUpper","type":"int24","internalType":"int24"},{"name":"tickCurrent","type":"int24","internalType":"int24"},{"name":"tickSpacing","type":"int24","internalType":"int24"},{"name":"fee","type":"uint24","internalType":"uint24"},{"name":"poolAddress","type":"address","internalType":"address"}]}],"outputs":[{"name":"","type":"string","internalType":"string"}],"stateMutability":"pure"}],"bytecode":{"object":"0x612cc1610034600b8282823980515f1a607314602857634e487b7160e01b5f525f60045260245ffd5b305f52607381538281f3fe7300000000000000000000000000000000000000003014608060405260043610610060575f3560e01c806398dba82914610064578063b02e483d14610079578063c49917d71461008c578063d069c481146100b5578063f1c024f3146100c8575b5f5ffd5b6100776100723660046121ed565b6100db565b005b6100776100873660046121ed565b610131565b61009f61009a366004612250565b610196565b6040516100ac91906122af565b60405180910390f35b6100776100c33660046122c1565b61033c565b6100776100d6366004612322565b6103ed565b6101008082018051600290810b60c086015261012084018051820b60e087015261016085015190910b9285019290925251905161014083015161011f929190610447565b5f0b6101208301525161014090910152565b61013e816020015161047e565b8252604081015161014e9061047e565b60208301526101a08101516001600160a01b03166040830152606080820151908301526080808201519083015261018081015161018a9061049a565b8260a001819052505050565b6060806060805f6101ab86610180015161049a565b90506101b78682610713565b93506101e96101c9876060015161081f565b6101d6886080015161081f565b6101e4896101a0015161047e565b6109a7565b92506102276101fa875f0151610a20565b610207886080015161081f565b610214896020015161047e565b6102218a6040015161047e565b85610a2b565b91505060605f8460405160200161023e9190612392565b60405160208183030381529060405290505f84846040516020016102639291906123d1565b60405160208183030381529060405290505f6040516020016102b8907f222c2022696d616765223a2022646174613a696d6167652f7376672b786d6c3b81526618985cd94d8d0b60ca1b602082015260270190565b60405160208183030381529060405290505f6102db6102d68b610b87565b610cf0565b9050838383836040516020016102f494939291906123e5565b60405160208183030381529060405294505050505061031281610cf0565b604051602001610322919061241a565b604051602081830303815290604052945050505050919050565b6001600160a01b0380841690831661036661035983601086610cfd565b5f60ff6010610112610d20565b6101e087015261038861037b82601086610cfd565b5f60ff60646101e4610d20565b61020087015261039d61035983602086610cfd565b6102208701526103b261037b82602086610cfd565b6102408701526103c761035983603086610cfd565b6102608701526103dc61037b82603086610cfd565b866102800181905250505050505050565b6001600160a01b03808316908216610406826088610d71565b610160860152610417816088610d71565b610180860152610427825f610d71565b6101a0860152610437815f610d71565b856101c001819052505050505050565b5f8360020b8260020b121561045e57505f19610477565b8260020b8260020b131561047457506001610477565b505f5b9392505050565b6060610494826001600160a01b03166014610d80565b92915050565b60608162ffffff165f036104c6575050604080518082019091526002815261302560f01b602082015290565b815f805b62ffffff8316156105335760ff8116156104f057806104e88161245f565b915050610513565b6104fb600a84612491565b62ffffff1615610513578061050f8161245f565b9150505b8161051d816124b6565b925061052c9050600a846124ce565b92506104ca565b61053b611bec565b5f60058410610639575f600461055460ff8616876124f3565b1015610561576001610563565b5f5b60ff169050610573600185612506565b60ff166105816005876124f3565b106105ae57610591600185612506565b60ff1661059f6005876124f3565b6105a991906124f3565b6105b0565b5f5b60ff8516608085018190529092506001906105cc90849061251f565b6105d691906124f3565b60ff1660a0840152608083015181906105f190600190612506565b60ff166105fe919061251f565b60ff908116604085015281906106169086168461251f565b61062190600161251f565b61062b919061251f565b60ff166020840152506106ae565b6106448460056124f3565b60026080840181905290915060019061065d908361251f565b61066791906124f3565b60ff90811660a084015261067d9084168261251f565b61068890600261251f565b60ff166020830181905261069e90600290612506565b60ff166040830152600160c08301525b6106bb60ff8416856124f3565b6106c690600a612615565b6106d59062ffffff8916612620565b8252600160e0830152600484116106ec575f6106f7565b6106f76004856124f3565b60ff16606083015261070882610d8c565b979650505050505050565b60605f61074f8460e001511561072e57846101200151610735565b8461010001515b8561016001518660c001518760a001518860e00151610fd5565b90505f61078b8560e001511561076a57856101000151610771565b8561012001515b8661016001518760c001518860a001518960e00151610fd5565b90505f8461079c876060015161081f565b6040516020016107ad929190612633565b60405160208183030381529060405290505f6107cc876080015161081f565b84846040516020016107e09392919061267a565b604051602081830303815290604052905081816040516020016108049291906123d1565b60405160208183030381529060405294505050505092915050565b6060815f805b825181101561086f57828181518110610840576108406126b2565b01602001516001600160f81b031916601160f91b036108675781610863816124b6565b9250505b600101610825565b50801561099f575f818351610884919061251f565b6001600160401b0381111561089b5761089b611c2f565b6040519080825280601f01601f1916602001820160405280156108c5576020820181803683370190505b5090505f805b8451811015610994578481815181106108e6576108e66126b2565b01602001516001600160f81b031916601160f91b0361093857601760fa1b838361090f816124b6565b945081518110610921576109216126b2565b60200101906001600160f81b03191690815f1a9053505b84818151811061094a5761094a6126b2565b01602001516001600160f81b0319168383610964816124b6565b945081518110610976576109766126b2565b60200101906001600160f81b03191690815f1a9053506001016108cb565b509095945050505050565b509192915050565b60605f84846040516020016109bd9291906126c6565b60405160208183030381529060405290505f83866040516020016109e2929190612746565b60405160208183030381529060405290508181604051602001610a069291906123d1565b604051602081830303815290604052925050509392505050565b6060610494826110fc565b60605f8486604051602001610a419291906127c8565b60405160208183030381529060405290505f848489604051602001610a6893929190612817565b60408051808303601f19018152828252632e372e3760e11b60208401527fe29aa0efb88f20444953434c41494d45523a204475652064696c6967656e636560248401527f20697320696d7065726174697665207768656e20617373657373696e6720746860448401527f6973204e46542e204d616b65207375726520746f6b656e20616464726573736560648401527f73206d617463682074686520657870656374656420746f6b656e732c2061732060848401527f746f6b656e2073796d626f6c73206d617920626520696d6974617465642e000060a4840152815160a281850301815260c28401909252925090610b699084908490849060e201612862565b60405160208183030381529060405293505050505b95945050505050565b6060610c3a604051806102a0016040528060608152602001606081526020015f6001600160a01b031681526020016060815260200160608152602001606081526020015f60020b81526020015f60020b81526020015f60020b81526020015f5f0b81526020015f8152602001606081526020016060815260200160608152602001606081526020016060815260200160608152602001606081526020016060815260200160608152602001606081525090565b610c448184610131565b610c4e81846100db565b610c6181846020015185604001516103ed565b610c788184602001518560400151865f015161033c565b6040516379fbdba160e11b815273__$5fb30af30341ce00bd3cc1465f5108246d$__9063f3f7b74290610caf908490600401612873565b5f60405180830381865af4158015610cc9573d5f5f3e3d5ffd5b505050506040513d5f823e601f3d908101601f191682016040526104779190810190612ac6565b6060610494825f5f61113e565b5f60ff610d0e8386861c8316612b3a565b610d189190612b51565b949350505050565b6060610d6783610d3087876124f3565b610d3a86866124f3565b610d44898b6124f3565b610d4e9190612b3a565b610d589190612620565b610d62919061251f565b610a20565b9695505050505050565b606061047783831c6003611230565b606061047783836112f2565b60605f826020015160ff166001600160401b03811115610dae57610dae611c2f565b6040519080825280601f01601f191660200182016040528015610dd8576020820181803683370190505b5090508260e0015115610e2057602560f81b8160018351610df991906124f3565b81518110610e0957610e096126b2565b60200101906001600160f81b03191690815f1a9053505b8260c0015115610e8657600360fc1b815f81518110610e4157610e416126b2565b60200101906001600160f81b03191690815f1a905350601760f91b81600181518110610e6f57610e6f6126b2565b60200101906001600160f81b03191690815f1a9053505b608083015160ff165b60a0840151610ea29060ff16600161251f565b811015610ede57603060f81b828281518110610ec057610ec06126b2565b60200101906001600160f81b03191690815f1a905350600101610e8f565b505b825115610494575f836060015160ff16118015610f0a5750826060015160ff16836040015160ff16145b15610f5a57601760f91b81846040018051809190610f2790612b64565b60ff1660ff1681525060ff1681518110610f4357610f436126b2565b60200101906001600160f81b03191690815f1a9053505b8251610f6890600a90612b51565b610f7390603061251f565b60f81b81846040018051809190610f8990612b64565b60ff1660ff1681525060ff1681518110610fa557610fa56126b2565b60200101906001600160f81b03191690815f1a905350600a835f01818151610fcd9190612620565b905250610ee0565b606084610fe681620d89e719612b7f565b610ff09190612bb7565b60020b8660020b03611047578115611023576040518060400160405280600381526020016209a82b60eb1b815250611040565b6040518060400160405280600381526020016226a4a760e91b8152505b9050610b7e565b8480611056620d89e719612bdd565b6110609190612b7f565b61106a9190612bb7565b60020b8660020b036110bd57811561109d576040518060400160405280600381526020016226a4a760e91b815250611040565b5060408051808201909152600381526209a82b60eb1b6020820152610b7e565b5f6110c787611318565b905082156110e9576110e66001600160a01b038216600160c01b612bfd565b90505b6110f4818686611722565b915050610b7e565b60606080604051019050602081016040525f8152805f19835b928101926030600a8206018453600a900480611115575050819003601f19909101908152919050565b606083518015611228576003600282010460021b60405192507f4142434445464748494a4b4c4d4e4f505152535455565758595a616263646566601f526106708515027f6768696a6b6c6d6e6f707172737475767778797a303132333435363738392d5f18603f526020830181810183886020010180515f82525b60038a0199508951603f8160121c16515f53603f81600c1c1651600153603f8160061c1651600253603f811651600353505f5184526004840193508284106111b9579052602001604052613d3d60f01b60038406600204808303919091525f8615159091029182900352900382525b509392505050565b60605f61123e836002612b3a565b6001600160401b0381111561125557611255611c2f565b6040519080825280601f01601f19166020018201604052801561127f576020820181803683370190505b5080519091505b8015611228576f181899199a1a9b1b9c1cb0b131b232b360811b85600f16601081106112b4576112b46126b2565b1a60f81b8260018303815181106112cd576112cd6126b2565b60200101906001600160f81b03191690815f1a90535060049490941c935f1901611286565b60606112fe83836118f4565b805161307882526002016001199091019081529392505050565b5f5f5f8360020b1261132d578260020b61133a565b8260020b61133a90612c2b565b9050611349620d89e719612bdd565b60020b8111156113835760405162461bcd60e51b81526020600482015260016024820152601560fa1b604482015260640160405180910390fd5b5f816001165f0361139857600160801b6113aa565b6ffffcb933bd6fad37aa2d162d1a5940015b6001600160881b0316905060028216156113df5760806113da826ffff97272373d413259a46990580e213a612b3a565b901c90505b6004821615611409576080611404826ffff2e50f5f656932ef12357cf3c7fdcc612b3a565b901c90505b600882161561143357608061142e826fffe5caca7e10e4e61c3624eaa0941cd0612b3a565b901c90505b601082161561145d576080611458826fffcb9843d60f6159c9db58835c926644612b3a565b901c90505b6020821615611487576080611482826fff973b41fa98c081472e6896dfb254c0612b3a565b901c90505b60408216156114b15760806114ac826fff2ea16466c96a3843ec78b326b52861612b3a565b901c90505b60808216156114db5760806114d6826ffe5dee046a99a2a811c461f1969c3053612b3a565b901c90505b610100821615611506576080611501826ffcbe86c7900a88aedcffc83b479aa3a4612b3a565b901c90505b61020082161561153157608061152c826ff987a7253ac413176f2b074cf7815e54612b3a565b901c90505b61040082161561155c576080611557826ff3392b0822b70005940c7a398e4b70f3612b3a565b901c90505b610800821615611587576080611582826fe7159475a2c29b7443b29c7fa6e889d9612b3a565b901c90505b6110008216156115b25760806115ad826fd097f3bdfd2022b8845ad8f792aa5825612b3a565b901c90505b6120008216156115dd5760806115d8826fa9f746462d870fdf8a65dc1f90e061e5612b3a565b901c90505b614000821615611608576080611603826f70d869a156d2a1b890bb3df62baf32f7612b3a565b901c90505b61800082161561163357608061162e826f31be135f97d08fd981231505542fcfa6612b3a565b901c90505b6201000082161561165f57608061165a826f09aa508b5b7a84e1c677de54f3e99bc9612b3a565b901c90505b6202000082161561168a576080611685826e5d6af8dedb81196699c329225ee604612b3a565b901c90505b620400008216156116b45760806116af826d2216e584f5fa1ea926041bedfe98612b3a565b901c90505b620800008216156116dc5760806116d7826b048a170391f7dc42444e8fa2612b3a565b901c90505b5f8460020b13156116f5576116f2815f19612620565b90505b611703600160201b82612b51565b1561170f576001611711565b5f5b610d189060ff16602083901c61251f565b60605f61173085858561197a565b90505f6117428283600160401b611a8e565b9050600160601b8210801561177757611770826c47bf19673df52e37f2410011d1602c1b600160801b611a8e565b915061178c565b61178982620186a0600160801b611a8e565b91505b815f5b81156117b5578061179f8161245f565b91506117ae9050600a83612620565b915061178f565b6117c0600182612506565b90505f5f6117ce8684611b48565b9150915080156117e657826117e28161245f565b9350505b6117ee611bec565b8515611855576117ff84602b612506565b61180a906007612c45565b60ff1660208201526002608082015261182484602b612506565b61182f906001612c45565b60ff1660a0820152602081015161184890600190612506565b60ff1660408201526118ca565b60098460ff161061189c5761186b600485612506565b60ff16602082018190526005608083015261188890600190612506565b60ff1660a0820152600460408201526118ca565b600660208201526005604082018190526118b69085612506565b6118c1906001612c45565b60ff1660608201525b82815285151560c08201525f60e08201526118e481610d8c565b9c9b505050505050505050505050565b6060601f1960428360011b0116604051019050602081016040525f8152806f30313233343536373839616263646566600f528283018203600119855b600f811651948201946001860153600f8160041c1651855360081c84830361193057801561196557632194895a5f526004601cfd5b505050819003601f1990910190815292915050565b5f8061199461198f60ff808616908716612c5e565b611bd1565b90505f811180156119a6575060128111155b15611a7b578260ff168460ff161115611a1e576119c4600282612620565b6119cf90600a612615565b6119e2906001600160a01b038716612b3a565b91506119ef600282612b51565b600103611a1957611a16827003298b075b4b6a5240945790619b37fd4a600160801b611a8e565b91505b611228565b611a29600282612620565b611a3490600a612615565b611a47906001600160a01b038716612620565b9150611a54600282612b51565b600103611a1957611a1682600160801b7003298b075b4b6a5240945790619b37fd4a611a8e565b50506001600160a01b0390921692915050565b5f80805f19858709858702925082811083820303915050805f03611ac2575f8411611ab7575f5ffd5b508290049050610477565b808411611acd575f5ffd5b5f84868809600186198101871696879004965f8181038290049092018684119095038581029684900391909104959095179493919250611b0e876003612b3a565b6002908118888102820302808902820302808902820302808902820302808902820302978802900390960293909302979650505050505050565b5f5f5f60058460ff161115611b7a57611b62600585612506565b611b6d90600a612c7d565b611b779086612620565b94505b5f6004611b88600a88612b51565b119050611b96600a87612620565b95508015611bac57611ba986600161251f565b95505b85620186a003611bc857611bc1600a87612620565b9550600191505b50939492505050565b5f5f821215611be857611be382612c2b565b610494565b5090565b60408051610100810182525f80825260208201819052918101829052606081018290526080810182905260a0810182905260c0810182905260e081019190915290565b634e487b7160e01b5f52604160045260245ffd5b6040516102a081016001600160401b0381118282101715611c6657611c66611c2f565b60405290565b6040516101c081016001600160401b0381118282101715611c6657611c66611c2f565b604051601f8201601f191681016001600160401b0381118282101715611cb757611cb7611c2f565b604052919050565b5f6001600160401b03821115611cd757611cd7611c2f565b50601f01601f191660200190565b5f82601f830112611cf4575f5ffd5b8135611d07611d0282611cbf565b611c8f565b818152846020838601011115611d1b575f5ffd5b816020850160208301375f918101602001919091529392505050565b80356001600160a01b0381168114611d4d575f5ffd5b919050565b8035600281900b8114611d4d575f5ffd5b80355f81900b8114611d4d575f5ffd5b5f6102a08284031215611d84575f5ffd5b611d8c611c43565b905081356001600160401b03811115611da3575f5ffd5b611daf84828501611ce5565b82525060208201356001600160401b03811115611dca575f5ffd5b611dd684828501611ce5565b602083015250611de860408301611d37565b604082015260608201356001600160401b03811115611e05575f5ffd5b611e1184828501611ce5565b60608301525060808201356001600160401b03811115611e2f575f5ffd5b611e3b84828501611ce5565b60808301525060a08201356001600160401b03811115611e59575f5ffd5b611e6584828501611ce5565b60a083015250611e7760c08301611d52565b60c0820152611e8860e08301611d52565b60e0820152611e9a6101008301611d52565b610100820152611ead6101208301611d63565b61012082015261014082810135908201526101608201356001600160401b03811115611ed7575f5ffd5b611ee384828501611ce5565b610160830152506101808201356001600160401b03811115611f03575f5ffd5b611f0f84828501611ce5565b610180830152506101a08201356001600160401b03811115611f2f575f5ffd5b611f3b84828501611ce5565b6101a0830152506101c08201356001600160401b03811115611f5b575f5ffd5b611f6784828501611ce5565b6101c0830152506101e08201356001600160401b03811115611f87575f5ffd5b611f9384828501611ce5565b6101e0830152506102008201356001600160401b03811115611fb3575f5ffd5b611fbf84828501611ce5565b610200830152506102208201356001600160401b03811115611fdf575f5ffd5b611feb84828501611ce5565b610220830152506102408201356001600160401b0381111561200b575f5ffd5b61201784828501611ce5565b610240830152506102608201356001600160401b03811115612037575f5ffd5b61204384828501611ce5565b610260830152506102808201356001600160401b03811115612063575f5ffd5b61206f84828501611ce5565b6102808301525092915050565b803560ff81168114611d4d575f5ffd5b80358015158114611d4d575f5ffd5b803562ffffff81168114611d4d575f5ffd5b5f6101c082840312156120be575f5ffd5b6120c6611c6c565b8235815290506120d860208301611d37565b60208201526120e960408301611d37565b604082015260608201356001600160401b03811115612106575f5ffd5b61211284828501611ce5565b60608301525060808201356001600160401b03811115612130575f5ffd5b61213c84828501611ce5565b60808301525061214e60a0830161207c565b60a082015261215f60c0830161207c565b60c082015261217060e0830161208c565b60e08201526121826101008301611d52565b6101008201526121956101208301611d52565b6101208201526121a86101408301611d52565b6101408201526121bb6101608301611d52565b6101608201526121ce610180830161209b565b6101808201526121e16101a08301611d37565b6101a082015292915050565b5f5f604083850312156121fe575f5ffd5b82356001600160401b03811115612213575f5ffd5b61221f85828601611d73565b92505060208301356001600160401b0381111561223a575f5ffd5b612246858286016120ad565b9150509250929050565b5f60208284031215612260575f5ffd5b81356001600160401b03811115612275575f5ffd5b610d18848285016120ad565b5f81518084528060208401602086015e5f602082860101526020601f19601f83011685010191505092915050565b602081525f6104776020830184612281565b5f5f5f5f608085870312156122d4575f5ffd5b84356001600160401b038111156122e9575f5ffd5b6122f587828801611d73565b94505061230460208601611d37565b925061231260408601611d37565b9396929550929360600135925050565b5f5f5f60608486031215612334575f5ffd5b83356001600160401b03811115612349575f5ffd5b61235586828701611d73565b93505061236460208501611d37565b915061237260408501611d37565b90509250925092565b5f81518060208401855e5f93019283525090919050565b683d913730b6b2911d1160b91b81525f6123af600983018461237b565b71111610113232b9b1b934b83a34b7b7111d1160711b81526012019392505050565b5f610d186123df838661237b565b8461237b565b5f6124056123df6123ff6123f9858a61237b565b8861237b565b8661237b565b61227d60f01b81526002019695505050505050565b7f646174613a6170706c69636174696f6e2f6a736f6e3b6261736536342c00000081525f610477601d83018461237b565b634e487b7160e01b5f52601160045260245ffd5b5f60ff821660ff81036124745761247461244b565b60010192915050565b634e487b7160e01b5f52601260045260245ffd5b5f62ffffff8316806124a5576124a561247d565b8062ffffff84160691505092915050565b5f600182016124c7576124c761244b565b5060010190565b5f62ffffff8316806124e2576124e261247d565b8062ffffff84160491505092915050565b818103818111156104945761049461244b565b60ff82811682821603908111156104945761049461244b565b808201808211156104945761049461244b565b6001815b600184111561256d578085048111156125515761255161244b565b600184161561255f57908102905b60019390931c928002612536565b935093915050565b5f8261258357506001610494565b8161258f57505f610494565b81600181146125a557600281146125af576125cb565b6001915050610494565b60ff8411156125c0576125c061244b565b50506001821b610494565b5060208310610133831016604e8410600b84101617156125ee575081810a610494565b6125fa5f198484612532565b805f190482111561260d5761260d61244b565b029392505050565b5f6104778383612575565b5f8261262e5761262e61247d565b500490565b6902ab734b9bbb0b81016960b51b81525f612651600a83018561237b565b6201016960ed1b8152612667600382018561237b565b602f60f81b815260010195945050505050565b5f612685828661237b565b6201016960ed1b815261269b600382018661237b565b9050611e1f60f11b8152610d67600282018561237b565b634e487b7160e01b5f52603260045260245ffd5b7f54686973204e465420726570726573656e74732061206c69717569646974792081527803837b9b4ba34b7b71034b71030902ab734b9bbb0b8102b199603d1b60208201525f612719603983018561237b565b602d60f81b815261272d600182018561237b565b660103837b7b617160cd1b815260070195945050505050565b7f546865206f776e6572206f662074686973204e46542063616e206d6f646966798152791037b9103932b232b2b6903a3432903837b9b4ba34b7b7172e3760311b60208201526f02e372837b7b61020b2323932b9b99d160851b603a8201525f6127b3604a83018561237b565b612e3760f11b8152610b7e600282018561237b565b6901020b2323932b9b99d160b51b81525f6127e6600a83018561237b565b612e3760f11b81526127fb600282018561237b565b6901020b2323932b9b99d160b51b8152600a0195945050505050565b5f612822828661237b565b6b02e372332b2902a34b2b91d160a51b8152612841600c82018661237b565b90506b02e372a37b5b2b71024a21d160a51b8152610d67600c82018561237b565b5f610b7e6123df6123ff848861237b565b602081525f82516102a060208401526128906102c0840182612281565b90506020840151601f198483030160408501526128ad8282612281565b91505060408401516128ca60608501826001600160a01b03169052565b506060840151838203601f190160808501526128e68282612281565b9150506080840151601f198483030160a08501526129048282612281565b91505060a0840151601f198483030160c08501526129228282612281565b91505060c084015161293960e085018260020b9052565b5060e084015161294f61010085018260020b9052565b5061010084015161296661012085018260020b9052565b5061012084015161297c6101408501825f0b9052565b50610140840151610160840152610160840151601f19848303016101808501526129a68282612281565b915050610180840151601f19848303016101a08501526129c68282612281565b9150506101a0840151601f19848303016101c08501526129e68282612281565b9150506101c0840151601f19848303016101e0850152612a068282612281565b9150506101e0840151601f1984830301610200850152612a268282612281565b915050610200840151601f1984830301610220850152612a468282612281565b915050610220840151601f1984830301610240850152612a668282612281565b915050610240840151601f1984830301610260850152612a868282612281565b915050610260840151601f1984830301610280850152612aa68282612281565b915050610280840151601f19848303016102a0850152610b7e8282612281565b5f60208284031215612ad6575f5ffd5b81516001600160401b03811115612aeb575f5ffd5b8201601f81018413612afb575f5ffd5b8051612b09611d0282611cbf565b818152856020838501011115612b1d575f5ffd5b8160208401602083015e5f91810160200191909152949350505050565b80820281158282048414176104945761049461244b565b5f82612b5f57612b5f61247d565b500690565b5f60ff821680612b7657612b7661244b565b5f190192915050565b5f8160020b8360020b80612b9557612b9561247d565b627fffff1982145f1982141615612bae57612bae61244b565b90059392505050565b5f8260020b8260020b028060020b9150808214612bd657612bd661244b565b5092915050565b5f8160020b627fffff198103612bf557612bf561244b565b5f0392915050565b5f6001600160c81b03831680612c1557612c1561247d565b6001600160c81b03929092169190910492915050565b5f600160ff1b8201612c3f57612c3f61244b565b505f0390565b60ff81811683821601908111156104945761049461244b565b8181035f831280158383131683831282161715612bd657612bd661244b565b5f61047760ff84168361257556fea26469706673582212202b60f5a9927c0bbcabdc01051d71315da46322720335748b03d177fbd161f7ca64736f6c634300081e0033","linkReferences":{"contracts/protocols/dexes/uniswap/v3/periphery/libraries/NFTSVG.sol":{"NFTSVG":[{"start":3259,"length":20}]}}},"methodIdentifiers":{"_setSVGBasicInfo(NFTSVG.SVGParams,NFTDescriptor.ConstructTokenURIParams)":"b02e483d","_setSVGCircleCoords(NFTSVG.SVGParams,address,address,uint256)":"d069c481","_setSVGColors(NFTSVG.SVGParams,address,address)":"f1c024f3","_setSVGTickInfo(NFTSVG.SVGParams,NFTDescriptor.ConstructTokenURIParams)":"98dba829","constructTokenURI(NFTDescriptor.ConstructTokenURIParams)":"c49917d7"},"id":1104}