{"abi":[{"type":"constructor","inputs":[{"name":"_implementation","type":"address","internalType":"address"}],"stateMutability":"nonpayable"},{"type":"function","name":"MAX_FEE","inputs":[],"outputs":[{"name":"","type":"uint256","internalType":"uint256"}],"stateMutability":"view"},{"type":"function","name":"ZERO_FEE_INDICATOR","inputs":[],"outputs":[{"name":"","type":"uint256","internalType":"uint256"}],"stateMutability":"view"},{"type":"function","name":"allPools","inputs":[{"name":"","type":"uint256","internalType":"uint256"}],"outputs":[{"name":"","type":"address","internalType":"address"}],"stateMutability":"view"},{"type":"function","name":"allPoolsLength","inputs":[],"outputs":[{"name":"","type":"uint256","internalType":"uint256"}],"stateMutability":"view"},{"type":"function","name":"createPool","inputs":[{"name":"tokenA","type":"address","internalType":"address"},{"name":"tokenB","type":"address","internalType":"address"},{"name":"stable","type":"bool","internalType":"bool"}],"outputs":[{"name":"pool","type":"address","internalType":"address"}],"stateMutability":"nonpayable"},{"type":"function","name":"createPool","inputs":[{"name":"tokenA","type":"address","internalType":"address"},{"name":"tokenB","type":"address","internalType":"address"},{"name":"fee","type":"uint24","internalType":"uint24"}],"outputs":[{"name":"pool","type":"address","internalType":"address"}],"stateMutability":"nonpayable"},{"type":"function","name":"customFee","inputs":[{"name":"","type":"address","internalType":"address"}],"outputs":[{"name":"","type":"uint256","internalType":"uint256"}],"stateMutability":"view"},{"type":"function","name":"feeManager","inputs":[],"outputs":[{"name":"","type":"address","internalType":"address"}],"stateMutability":"view"},{"type":"function","name":"getFee","inputs":[{"name":"pool","type":"address","internalType":"address"},{"name":"_stable","type":"bool","internalType":"bool"}],"outputs":[{"name":"","type":"uint256","internalType":"uint256"}],"stateMutability":"view"},{"type":"function","name":"getPool","inputs":[{"name":"tokenA","type":"address","internalType":"address"},{"name":"tokenB","type":"address","internalType":"address"},{"name":"fee","type":"uint24","internalType":"uint24"}],"outputs":[{"name":"","type":"address","internalType":"address"}],"stateMutability":"view"},{"type":"function","name":"getPool","inputs":[{"name":"tokenA","type":"address","internalType":"address"},{"name":"tokenB","type":"address","internalType":"address"},{"name":"stable","type":"bool","internalType":"bool"}],"outputs":[{"name":"","type":"address","internalType":"address"}],"stateMutability":"view"},{"type":"function","name":"implementation","inputs":[],"outputs":[{"name":"","type":"address","internalType":"address"}],"stateMutability":"view"},{"type":"function","name":"isPaused","inputs":[],"outputs":[{"name":"","type":"bool","internalType":"bool"}],"stateMutability":"view"},{"type":"function","name":"isPool","inputs":[{"name":"pool","type":"address","internalType":"address"}],"outputs":[{"name":"","type":"bool","internalType":"bool"}],"stateMutability":"view"},{"type":"function","name":"pauser","inputs":[],"outputs":[{"name":"","type":"address","internalType":"address"}],"stateMutability":"view"},{"type":"function","name":"setCustomFee","inputs":[{"name":"pool","type":"address","internalType":"address"},{"name":"fee","type":"uint256","internalType":"uint256"}],"outputs":[],"stateMutability":"nonpayable"},{"type":"function","name":"setFee","inputs":[{"name":"_stable","type":"bool","internalType":"bool"},{"name":"_fee","type":"uint256","internalType":"uint256"}],"outputs":[],"stateMutability":"nonpayable"},{"type":"function","name":"setFeeManager","inputs":[{"name":"_feeManager","type":"address","internalType":"address"}],"outputs":[],"stateMutability":"nonpayable"},{"type":"function","name":"setPauseState","inputs":[{"name":"_state","type":"bool","internalType":"bool"}],"outputs":[],"stateMutability":"nonpayable"},{"type":"function","name":"setPauser","inputs":[{"name":"_pauser","type":"address","internalType":"address"}],"outputs":[],"stateMutability":"nonpayable"},{"type":"function","name":"setVoter","inputs":[{"name":"_voter","type":"address","internalType":"address"}],"outputs":[],"stateMutability":"nonpayable"},{"type":"function","name":"stableFee","inputs":[],"outputs":[{"name":"","type":"uint256","internalType":"uint256"}],"stateMutability":"view"},{"type":"function","name":"volatileFee","inputs":[],"outputs":[{"name":"","type":"uint256","internalType":"uint256"}],"stateMutability":"view"},{"type":"function","name":"voter","inputs":[],"outputs":[{"name":"","type":"address","internalType":"address"}],"stateMutability":"view"},{"type":"event","name":"PoolCreated","inputs":[{"name":"token0","type":"address","indexed":true,"internalType":"address"},{"name":"token1","type":"address","indexed":true,"internalType":"address"},{"name":"stable","type":"bool","indexed":true,"internalType":"bool"},{"name":"pool","type":"address","indexed":false,"internalType":"address"},{"name":"","type":"uint256","indexed":false,"internalType":"uint256"}],"anonymous":false},{"type":"event","name":"SetCustomFee","inputs":[{"name":"pool","type":"address","indexed":true,"internalType":"address"},{"name":"fee","type":"uint256","indexed":false,"internalType":"uint256"}],"anonymous":false},{"type":"event","name":"SetFeeManager","inputs":[{"name":"feeManager","type":"address","indexed":false,"internalType":"address"}],"anonymous":false},{"type":"event","name":"SetPauseState","inputs":[{"name":"state","type":"bool","indexed":false,"internalType":"bool"}],"anonymous":false},{"type":"event","name":"SetPauser","inputs":[{"name":"pauser","type":"address","indexed":false,"internalType":"address"}],"anonymous":false},{"type":"event","name":"SetVoter","inputs":[{"name":"voter","type":"address","indexed":false,"internalType":"address"}],"anonymous":false},{"type":"error","name":"ERC1167FailedCreateClone","inputs":[]},{"type":"error","name":"FeeInvalid","inputs":[]},{"type":"error","name":"FeeTooHigh","inputs":[]},{"type":"error","name":"InvalidPool","inputs":[]},{"type":"error","name":"NotFeeManager","inputs":[]},{"type":"error","name":"NotPauser","inputs":[]},{"type":"error","name":"NotVoter","inputs":[]},{"type":"error","name":"PoolAlreadyExists","inputs":[]},{"type":"error","name":"SameAddress","inputs":[]},{"type":"error","name":"ZeroAddress","inputs":[]},{"type":"error","name":"ZeroFee","inputs":[]}],"bytecode":{"object":"0x60a060405234801561000f575f5ffd5b50604051610e24380380610e2483398101604081905261002e9161008a565b6001600160a01b031660805260048054336001600160a01b031991821681179092555f80546003805490931684179092556001600160a81b031990911661010090920260ff19169190911790556005600155601e6002556100b7565b5f6020828403121561009a575f5ffd5b81516001600160a01b03811681146100b0575f5ffd5b9392505050565b608051610d4e6100d65f395f818161024f01526105c10152610d4e5ff3fe608060405234801561000f575f5ffd5b5060043610610126575f3560e01c80631698ee821461012a5780632d88af4a1461015357806336bf95a01461016857806338c55d461461017b57806340bbd7751461019257806341d1de971461019b57806346c96aac146101ae578063472d35b9146101c15780634bc2a657146101d45780634d419abc146101e75780635084ed03146102065780635b16ebb71461020f5780635c60da1b1461024a57806379bc57d5146102715780639fd0506d146102b4578063a1671295146102cb578063b187bd26146102de578063bc063e1a146102ea578063cc56b2c5146102f3578063cdb88ad114610306578063d0fb020314610319578063d49466a81461032c578063e1f76b441461033f578063efde4e6414610352575b5f5ffd5b61013d610138366004610bae565b61035a565b60405161014a9190610bf9565b60405180910390f35b610166610161366004610c0d565b6103e8565b005b61013d610176366004610c35565b610498565b6101846101a481565b60405190815260200161014a565b61018460015481565b61013d6101a9366004610c75565b610750565b60045461013d906001600160a01b031681565b6101666101cf366004610c0d565b610778565b6101666101e2366004610c0d565b610815565b6101846101f5366004610c0d565b60086020525f908152604090205481565b61018460025481565b61023a61021d366004610c0d565b6001600160a01b03165f9081526007602052604090205460ff1690565b604051901515815260200161014a565b61013d7f000000000000000000000000000000000000000000000000000000000000000081565b61013d61027f366004610c35565b6001600160a01b039283165f908152600560209081526040808320948616835293815283822092151582529190915220541690565b5f5461013d9061010090046001600160a01b031681565b61013d6102d9366004610bae565b61088b565b5f5461023a9060ff1681565b61018461012c81565b610184610301366004610c8c565b6108d0565b610166610314366004610cbd565b61091f565b60035461013d906001600160a01b031681565b61016661033a366004610cd6565b61098e565b61016661034d366004610cfe565b610a79565b600654610184565b5f60018262ffffff16116103de578162ffffff166001146103a9576001600160a01b038085165f90815260056020908152604080832087851684528252808320838052909152902054166103e0565b6001600160a01b038085165f9081526005602090815260408083208785168452825280832060018452909152902054166103e0565b5f5b949350505050565b5f5461010090046001600160a01b031633146104175760405163492f678160e01b815260040160405180910390fd5b6001600160a01b03811661043e5760405163d92e233d60e01b815260040160405180910390fd5b5f8054610100600160a81b0319166101006001600160a01b038416021790556040517fe02efb9e8f0fc21546730ab32d594f62d586e1bbb15bb5045edd0b1878a77b359061048d908390610bf9565b60405180910390a150565b5f826001600160a01b0316846001600160a01b0316036104cb5760405163367558c360e01b815260040160405180910390fd5b5f5f846001600160a01b0316866001600160a01b0316106104ed5784866104f0565b85855b90925090506001600160a01b03821661051c5760405163d92e233d60e01b815260040160405180910390fd5b6001600160a01b038281165f908152600560209081526040808320858516845282528083208815158452909152902054161561056b57604051630188c99160e11b815260040160405180910390fd5b6040516001600160601b0319606084811b8216602084015283901b16603482015284151560f81b60488201525f906105ba90604901604051602081830303815290604052805160209091012090565b90506105e67f000000000000000000000000000000000000000000000000000000000000000082610af9565b604051631c9776b560e31b81526001600160a01b038581166004830152848116602483015287151560448301529195509085169063e4bbb5a8906064015f604051808303815f87803b15801561063a575f5ffd5b505af115801561064c573d5f5f3e3d5ffd5b505050506001600160a01b038381165f8181526005602081815260408084208887168086529083528185208c15158087529084528286208054988d166001600160a01b0319998a16811790915582875294845282862087875284528286208187528452828620805489168617905560068054600181810183557ff652222313e28459528d920b65115c16c04f3efc82aaedc97be59f3f377c0d3f9091018054909a1687179099558587526007855295839020805460ff191690981790975593548151938452918301919091529192917f2128d88d14c80cb081c1252a5acff7a264671bf199ce226b53788fb26065005e910160405180910390a45050509392505050565b6006818154811061075f575f80fd5b5f918252602090912001546001600160a01b0316905081565b6003546001600160a01b031633146107a35760405163f5d267eb60e01b815260040160405180910390fd5b6001600160a01b0381166107ca5760405163d92e233d60e01b815260040160405180910390fd5b600380546001600160a01b0319166001600160a01b0383161790556040517f5d0517e3a4eabea892d9750138cd21d4a6cf3b935b43d0598df7055f463819b29061048d908390610bf9565b6004546001600160a01b031633146108405760405163c18384c160e01b815260040160405180910390fd5b600480546001600160a01b0319166001600160a01b0383161790556040517fc6ff127433b785c51da9ae4088ee184c909b1a55b9afd82ae6c64224d3bc15d29061048d908390610bf9565b5f60018262ffffff1611156108b3576040516352dadcf960e01b815260040160405180910390fd5b600162ffffff8316146108c7858583610498565b95945050505050565b6001600160a01b0382165f908152600860205260408120546101a4811461091357805f0361090d578261090557600254610915565b600154610915565b80610915565b5f5b9150505b92915050565b5f5461010090046001600160a01b0316331461094e5760405163492f678160e01b815260040160405180910390fd5b5f805460ff19168215159081179091556040519081527f0d76538efc408318a051137c2720a9e82902acdbd46b802d488b74ca3a09a1169060200161048d565b6003546001600160a01b031633146109b95760405163f5d267eb60e01b815260040160405180910390fd5b61012c811180156109cc57506101a48114155b156109ea5760405163cd4e616760e01b815260040160405180910390fd5b6001600160a01b0382165f9081526007602052604090205460ff16610a215760405162820f3560e61b815260040160405180910390fd5b6001600160a01b0382165f8181526008602052604090819020839055517fae468ce586f9a87660fdffc1448cee942042c16ae2f02046b134b5224f31936b90610a6d9084815260200190565b60405180910390a25050565b6003546001600160a01b03163314610aa45760405163f5d267eb60e01b815260040160405180910390fd5b61012c811115610ac75760405163cd4e616760e01b815260040160405180910390fd5b805f03610ae75760405163af13986d60e01b815260040160405180910390fd5b8115610af35760015550565b60025550565b5f610b048383610b2d565b90506001600160a01b038116610919576040516330be1a3d60e21b815260040160405180910390fd5b5f610b395f8484610b40565b9392505050565b5f6c5af43d3d93803e602a57fd5bf36021528260145273602c3d8160093d39f33d3d3d3d363d3d37363d735f52816035600c86f5905080610b885763301164255f526004601cfd5b5f6021529392505050565b80356001600160a01b0381168114610ba9575f5ffd5b919050565b5f5f5f60608486031215610bc0575f5ffd5b610bc984610b93565b9250610bd760208501610b93565b9150604084013562ffffff81168114610bee575f5ffd5b809150509250925092565b6001600160a01b0391909116815260200190565b5f60208284031215610c1d575f5ffd5b610b3982610b93565b80358015158114610ba9575f5ffd5b5f5f5f60608486031215610c47575f5ffd5b610c5084610b93565b9250610c5e60208501610b93565b9150610c6c60408501610c26565b90509250925092565b5f60208284031215610c85575f5ffd5b5035919050565b5f5f60408385031215610c9d575f5ffd5b610ca683610b93565b9150610cb460208401610c26565b90509250929050565b5f60208284031215610ccd575f5ffd5b610b3982610c26565b5f5f60408385031215610ce7575f5ffd5b610cf083610b93565b946020939093013593505050565b5f5f60408385031215610d0f575f5ffd5b610cf083610c2656fea264697066735822122015a6e462ce046a3638e598cfade9a9415538457b27c3bd5fc21e3d088c07264664736f6c634300081e0033","linkReferences":{}},"methodIdentifiers":{"MAX_FEE()":"bc063e1a","ZERO_FEE_INDICATOR()":"38c55d46","allPools(uint256)":"41d1de97","allPoolsLength()":"efde4e64","createPool(address,address,bool)":"36bf95a0","createPool(address,address,uint24)":"a1671295","customFee(address)":"4d419abc","feeManager()":"d0fb0203","getFee(address,bool)":"cc56b2c5","getPool(address,address,bool)":"79bc57d5","getPool(address,address,uint24)":"1698ee82","implementation()":"5c60da1b","isPaused()":"b187bd26","isPool(address)":"5b16ebb7","pauser()":"9fd0506d","setCustomFee(address,uint256)":"d49466a8","setFee(bool,uint256)":"e1f76b44","setFeeManager(address)":"472d35b9","setPauseState(bool)":"cdb88ad1","setPauser(address)":"2d88af4a","setVoter(address)":"4bc2a657","stableFee()":"40bbd775","volatileFee()":"5084ed03","voter()":"46c96aac"},"id":825}