{"abi":[{"type":"function","name":"diamondCut","inputs":[{"name":"diamondCut_","type":"tuple[]","internalType":"struct IDiamond.FacetCut[]","components":[{"name":"facetAddress","type":"address","internalType":"address"},{"name":"action","type":"uint8","internalType":"enum IDiamond.FacetCutAction"},{"name":"functionSelectors","type":"bytes4[]","internalType":"bytes4[]"}]},{"name":"initTarget","type":"address","internalType":"address"},{"name":"initCalldata","type":"bytes","internalType":"bytes"}],"outputs":[],"stateMutability":"nonpayable"},{"type":"function","name":"facetFuncs","inputs":[],"outputs":[{"name":"funcs","type":"bytes4[]","internalType":"bytes4[]"}],"stateMutability":"pure"},{"type":"function","name":"facetInterfaces","inputs":[],"outputs":[{"name":"interfaces","type":"bytes4[]","internalType":"bytes4[]"}],"stateMutability":"pure"},{"type":"function","name":"facetMetadata","inputs":[],"outputs":[{"name":"name","type":"string","internalType":"string"},{"name":"interfaces","type":"bytes4[]","internalType":"bytes4[]"},{"name":"functions","type":"bytes4[]","internalType":"bytes4[]"}],"stateMutability":"pure"},{"type":"function","name":"facetName","inputs":[],"outputs":[{"name":"name","type":"string","internalType":"string"}],"stateMutability":"pure"},{"type":"event","name":"DiamondCut","inputs":[{"name":"_diamondCut","type":"tuple[]","indexed":false,"internalType":"struct IDiamond.FacetCut[]","components":[{"name":"facetAddress","type":"address","internalType":"address"},{"name":"action","type":"uint8","internalType":"enum IDiamond.FacetCutAction"},{"name":"functionSelectors","type":"bytes4[]","internalType":"bytes4[]"}]},{"name":"_init","type":"address","indexed":false,"internalType":"address"},{"name":"_calldata","type":"bytes","indexed":false,"internalType":"bytes"}],"anonymous":false},{"type":"event","name":"DiamondDelegateCall","inputs":[{"name":"_delegate","type":"address","indexed":true,"internalType":"address"},{"name":"_functionCall","type":"bytes","indexed":false,"internalType":"bytes"}],"anonymous":false},{"type":"event","name":"DiamondFunctionRemoved","inputs":[{"name":"_selector","type":"bytes4","indexed":true,"internalType":"bytes4"},{"name":"_oldFacet","type":"address","indexed":true,"internalType":"address"}],"anonymous":false},{"type":"error","name":"AddressEmptyCode","inputs":[{"name":"target","type":"address","internalType":"address"}]},{"type":"error","name":"FacetAlreadyPresent","inputs":[{"name":"facet","type":"address","internalType":"address"}]},{"type":"error","name":"FailedCall","inputs":[]},{"type":"error","name":"FunctionAlreadyPresent","inputs":[{"name":"functionSelector","type":"bytes4","internalType":"bytes4"}]},{"type":"error","name":"FunctionNotPresent","inputs":[{"name":"functionSelector","type":"bytes4","internalType":"bytes4"}]},{"type":"error","name":"NotOwner","inputs":[{"name":"caller","type":"address","internalType":"address"}]},{"type":"error","name":"SelectorFacetMismatch","inputs":[{"name":"functionSelector","type":"bytes4","internalType":"bytes4"},{"name":"expectedFacet","type":"address","internalType":"address"},{"name":"actualFacet","type":"address","internalType":"address"}]}],"bytecode":{"object":"0x6080604052348015600e575f5ffd5b5061133b8061001c5f395ff3fe608060405234801561000f575f5ffd5b5060043610610055575f3560e01c80631f931c1c146100595780632ea808261461006e578063574a4cff1461008c5780635b6f4d0114610094578063f10d7a75146100a9575b5f5ffd5b61006c610067366004610ebc565b6100c0565b005b6100766100d8565b60405161008391906110bc565b60405180910390f35b61007661012f565b61009c61016b565b60405161008391906110fc565b6100b1610194565b6040516100839392919061110e565b6100c86101bc565b6100d38383836101e7565b505050565b60408051600280825260608083018452926020830190803683370190505090506307e4c70760e21b8160018151811061011357610113611150565b6001600160e01b03199092166020928302919091019091015290565b60408051600180825281830190925260609160208083019080368337019050509050631f931c1c60e01b815f8151811061011357610113611150565b60408051808201909152600f81526e111a585b5bdb9910dd5d119858d95d608a1b602082015290565b60608060606101a161016b565b92506101ab6100d8565b91506101b561012f565b9050909192565b6101e57f552e522d4f9b6a3d443b47299f900b7b1bce2dacca532b0186b605495413451d6101ff565b565b6100d36101f2610237565b848484610284565b905090565b80546001600160a01b03163314610234573360405163245aecd360e01b815260040161022b9190611164565b60405180910390fd5b50565b5f6101fa60405160200161026b906020808252600c908201526b6569702e6572632e3235333560a01b604082015260600190565b6040516020818303038152906040528051906020012090565b61028e8484610342565b5f81511180156102a657506001600160a01b03821615155b15610301576102be6001600160a01b03831682610378565b50816001600160a01b03167ffb4514022f0c20335bef459c51d3b7d7ec4a30ac3ab8ccc1b3f83422c51ff3fc826040516102f891906110fc565b60405180910390a25b7f8faa70878671ccd212d20771b795c50af8fd3ff6cf27f4bde57e5d4de0aeb6738383836040516103349392919061118c565b60405180910390a150505050565b5f5b81518110156100d3576103708383838151811061036357610363611150565b602002602001015161038d565b600101610344565b60606103848383610418565b90505b92915050565b80516001600160a01b03166103a0575050565b5f816020015160028111156103b7576103b7611178565b036103c6576103c6828261048a565b6001816020015160028111156103de576103de611178565b036103ed576103ed82826105c7565b60028160200151600281111561040557610405611178565b0361041457610414828261081f565b5050565b60605f5f846001600160a01b031684604051610434919061128c565b5f60405180830381855af49150503d805f811461046c576040519150601f19603f3d011682016040523d82523d5f602084013e610471565b606091505b50915091506104818583836109b5565b95945050505050565b5f5b816040015151811015610590575f6001600160a01b0316836002015f846040015184815181106104be576104be611150565b6020908102919091018101516001600160e01b03191682528101919091526040015f20546001600160a01b031614610528578160400151818151811061050657610506611150565b602002602001015160405163c33ebb5960e01b815260040161022b91906112a2565b815f0151836002015f8460400151848151811061054757610547611150565b6020908102919091018101516001600160e01b03191682528101919091526040015f2080546001600160a01b0319166001600160a01b039290921691909117905560010161048c565b5060408082015182516001600160a01b03165f90815260038501602052919091206105ba91610a0b565b80516100d3908390610a41565b5f5b816040015151811015610590575f6001600160a01b0316836002015f846040015184815181106105fb576105fb611150565b6020908102919091018101516001600160e01b03191682528101919091526040015f20546001600160a01b031603610665578160400151818151811061064357610643611150565b6020026020010151604051631310a10960e11b815260040161022b91906112a2565b815f01516001600160a01b0316836002015f8460400151848151811061068d5761068d611150565b6020908102919091018101516001600160e01b03191682528101919091526040015f20546001600160a01b0316036106db5781516040516386bba0cb60e01b815261022b9190600401611164565b5f836002015f846040015184815181106106f7576106f7611150565b60200260200101516001600160e01b0319166001600160e01b03191681526020019081526020015f205f9054906101000a90046001600160a01b031690506107898360400151838151811061074e5761074e611150565b6020026020010151856003015f846001600160a01b03166001600160a01b031681526020019081526020015f20610aaa90919063ffffffff16565b6001600160a01b0381165f9081526003850160205260409020600101545f036107b6576107b68482610be7565b825f0151846002015f856040015185815181106107d5576107d5611150565b6020908102919091018101516001600160e01b03191682528101919091526040015f2080546001600160a01b0319166001600160a01b0392909216919091179055506001016105c9565b5f5b816040015151811015610983575f8260400151828151811061084557610845611150565b6020908102919091018101516001600160e01b031981165f908152600287019092526040909120549091506001600160a01b0316806108995781604051631310a10960e11b815260040161022b91906112a2565b83516001600160a01b038281169116146108ec578351604051632377a52b60e21b81526001600160e01b0319841660048201526001600160a01b039182166024820152908216604482015260640161022b565b6001600160e01b031982165f908152600286016020908152604080832080546001600160a01b031916905586516001600160a01b031683526003880190915290206109379083610aaa565b83516040516001600160a01b03909116906001600160e01b03198416907fa24c9d3a0f634225f6932b85d43ff7a2dcb0b8778ad4caedbc13c840f5e4fd6d905f90a35050600101610821565b5080516001600160a01b03165f9081526003830160205260409020600101545f03610414578051610414908390610be7565b6060826109ca576109c582610d05565b610a04565b81511580156109e157506001600160a01b0384163b155b15610a015783604051639996b31560e01b815260040161022b9190611164565b50805b9392505050565b5f5b81518110156100d357610a3983838381518110610a2c57610a2c611150565b6020026020010151610d2e565b600101610a0d565b6001600160a01b0381165f90815260208390526040812054610aa1576001838101805491820181555f818152602080822090930180546001600160a01b0319166001600160a01b0387169081179091559154918152918590526040909120555b50600192915050565b6001600160e01b031981165f9081526020839052604090205480156100d3575f610ad56001836112cb565b600180860180549293505f929091610aec916112cb565b81548110610afc57610afc611150565b905f5260205f2090600891828204019190066004029054906101000a900460e01b905080856001018381548110610b3557610b35611150565b905f5260205f2090600891828204019190066004026101000a81548163ffffffff021916908360e01c0217905550816001610b7091906112de565b6001600160e01b031982165f9081526020879052604090205560018501805480610b9c57610b9c6112f1565b5f828152602080822060085f1990940193840401805463ffffffff600460078716026101000a0219169055919092556001600160e01b03198616825286905260408120555050505050565b6001600160a01b0381165f9081526020839052604090205480156100d3575f610c116001836112cb565b600180860180549293505f929091610c28916112cb565b81548110610c3857610c38611150565b5f918252602090912001546001860180546001600160a01b039092169250829184908110610c6857610c68611150565b5f91825260209091200180546001600160a01b0319166001600160a01b0392909216919091179055610c9b8260016112de565b6001600160a01b0382165f9081526020879052604090205560018501805480610cc657610cc66112f1565b5f828152602080822083015f1990810180546001600160a01b03191690559092019092556001600160a01b038616825286905260408120555050505050565b805115610d155780518082602001fd5b60405163d6bda27560e01b815260040160405180910390fd5b6001600160e01b031981165f90815260208390526040902054610414576001828101805491820181555f81815260208082206008850401805463ffffffff60079096166004026101000a958602191660e087901c959095029490941790935590546001600160e01b03199093168152929052604090912055565b634e487b7160e01b5f52604160045260245ffd5b604051606081016001600160401b0381118282101715610dde57610dde610da8565b60405290565b604051601f8201601f191681016001600160401b0381118282101715610e0c57610e0c610da8565b604052919050565b5f6001600160401b03821115610e2c57610e2c610da8565b5060051b60200190565b80356001600160a01b0381168114610e4c575f5ffd5b919050565b5f82601f830112610e60575f5ffd5b81356001600160401b03811115610e7957610e79610da8565b610e8c601f8201601f1916602001610de4565b818152846020838601011115610ea0575f5ffd5b816020850160208301375f918101602001919091529392505050565b5f5f5f60608486031215610ece575f5ffd5b83356001600160401b03811115610ee3575f5ffd5b8401601f81018613610ef3575f5ffd5b8035610f06610f0182610e14565b610de4565b8082825260208201915060208360051b850101925088831115610f27575f5ffd5b602084015b838110156110355780356001600160401b03811115610f49575f5ffd5b85016060818c03601f19011215610f5e575f5ffd5b610f66610dbc565b610f7260208301610e36565b8152604082013560038110610f85575f5ffd5b602082015260608201356001600160401b03811115610fa2575f5ffd5b6020818401019250508b601f830112610fb9575f5ffd5b8135610fc7610f0182610e14565b8082825260208201915060208360051b86010192508e831115610fe8575f5ffd5b6020850194505b8285101561101f5784356001600160e01b03198116811461100e575f5ffd5b825260209485019490910190610fef565b6040840152505084525060209283019201610f2c565b5095506110489250505060208501610e36565b915060408401356001600160401b03811115611062575f5ffd5b61106e86828701610e51565b9150509250925092565b5f8151808452602084019350602083015f5b828110156110b25781516001600160e01b03191686526020958601959091019060010161108a565b5093949350505050565b602081525f6103846020830184611078565b5f81518084528060208401602086015e5f602082860101526020601f19601f83011685010191505092915050565b602081525f61038460208301846110ce565b606081525f61112060608301866110ce565b82810360208401526111328186611078565b905082810360408401526111468185611078565b9695505050505050565b634e487b7160e01b5f52603260045260245ffd5b6001600160a01b0391909116815260200190565b634e487b7160e01b5f52602160045260245ffd5b5f606082016060835280865180835260808501915060808160051b8601019250602088015f5b8281101561126757868503607f19018452815180516001600160a01b0316865260208101516060870190600381106111f857634e487b7160e01b5f52602160045260245ffd5b8060208901525060408201519150606060408801528082518083526080890191506020840193505f92505b8083101561124f5783516001600160e01b03191682526020938401936001939093019290910190611223565b509650505060209384019391909101906001016111b2565b5050506001600160a01b038616602085015250828103604084015261114681856110ce565b5f82518060208501845e5f920191825250919050565b6001600160e01b031991909116815260200190565b634e487b7160e01b5f52601160045260245ffd5b81810381811115610387576103876112b7565b80820180821115610387576103876112b7565b634e487b7160e01b5f52603160045260245ffdfea26469706673582212209b319e8c4fb1e95d04dddb25733e842337c55e4f0097fa88bb7bd128ec63e06464736f6c634300081e0033","linkReferences":{}},"methodIdentifiers":{"diamondCut((address,uint8,bytes4[])[],address,bytes)":"1f931c1c","facetFuncs()":"574a4cff","facetInterfaces()":"2ea80826","facetMetadata()":"f10d7a75","facetName()":"5b6f4d01"},"id":662}