{"abi":[{"type":"function","name":"diamondCut","inputs":[{"name":"diamondCut_","type":"tuple[]","internalType":"struct IDiamond.FacetCut[]","components":[{"name":"facetAddress","type":"address","internalType":"address"},{"name":"action","type":"uint8","internalType":"enum IDiamond.FacetCutAction"},{"name":"functionSelectors","type":"bytes4[]","internalType":"bytes4[]"}]},{"name":"initTarget","type":"address","internalType":"address"},{"name":"initCalldata","type":"bytes","internalType":"bytes"}],"outputs":[],"stateMutability":"nonpayable"},{"type":"function","name":"facetFuncs","inputs":[],"outputs":[{"name":"funcs","type":"bytes4[]","internalType":"bytes4[]"}],"stateMutability":"pure"},{"type":"function","name":"facetInterfaces","inputs":[],"outputs":[{"name":"interfaces","type":"bytes4[]","internalType":"bytes4[]"}],"stateMutability":"pure"},{"type":"function","name":"facetMetadata","inputs":[],"outputs":[{"name":"name","type":"string","internalType":"string"},{"name":"interfaces","type":"bytes4[]","internalType":"bytes4[]"},{"name":"functions","type":"bytes4[]","internalType":"bytes4[]"}],"stateMutability":"pure"},{"type":"function","name":"facetName","inputs":[],"outputs":[{"name":"name","type":"string","internalType":"string"}],"stateMutability":"pure"},{"type":"event","name":"DiamondCut","inputs":[{"name":"_diamondCut","type":"tuple[]","indexed":false,"internalType":"struct IDiamond.FacetCut[]","components":[{"name":"facetAddress","type":"address","internalType":"address"},{"name":"action","type":"uint8","internalType":"enum IDiamond.FacetCutAction"},{"name":"functionSelectors","type":"bytes4[]","internalType":"bytes4[]"}]},{"name":"_init","type":"address","indexed":false,"internalType":"address"},{"name":"_calldata","type":"bytes","indexed":false,"internalType":"bytes"}],"anonymous":false},{"type":"event","name":"DiamondDelegateCall","inputs":[{"name":"_delegate","type":"address","indexed":true,"internalType":"address"},{"name":"_functionCall","type":"bytes","indexed":false,"internalType":"bytes"}],"anonymous":false},{"type":"event","name":"DiamondFunctionRemoved","inputs":[{"name":"_selector","type":"bytes4","indexed":true,"internalType":"bytes4"},{"name":"_oldFacet","type":"address","indexed":true,"internalType":"address"}],"anonymous":false},{"type":"error","name":"AddressEmptyCode","inputs":[{"name":"target","type":"address","internalType":"address"}]},{"type":"error","name":"FacetAlreadyPresent","inputs":[{"name":"facet","type":"address","internalType":"address"}]},{"type":"error","name":"FailedCall","inputs":[]},{"type":"error","name":"FunctionAlreadyPresent","inputs":[{"name":"functionSelector","type":"bytes4","internalType":"bytes4"}]},{"type":"error","name":"FunctionNotPresent","inputs":[{"name":"functionSelector","type":"bytes4","internalType":"bytes4"}]},{"type":"error","name":"NotOwner","inputs":[{"name":"caller","type":"address","internalType":"address"}]},{"type":"error","name":"SelectorFacetMismatch","inputs":[{"name":"functionSelector","type":"bytes4","internalType":"bytes4"},{"name":"expectedFacet","type":"address","internalType":"address"},{"name":"actualFacet","type":"address","internalType":"address"}]}],"bytecode":{"object":"0x6080604052348015600e575f5ffd5b506113328061001c5f395ff3fe608060405234801561000f575f5ffd5b5060043610610055575f3560e01c80631f931c1c146100595780632ea808261461006e578063574a4cff1461008c5780635b6f4d0114610094578063f10d7a75146100a9575b5f5ffd5b61006c610067366004610eb3565b6100c0565b005b6100766100d8565b60405161008391906110b3565b60405180910390f35b61007661012f565b61009c61016b565b60405161008391906110f3565b6100b1610194565b60405161008393929190611105565b6100c86101bc565b6100d38383836101e7565b505050565b60408051600280825260608083018452926020830190803683370190505090506307e4c70760e21b8160018151811061011357610113611147565b6001600160e01b03199092166020928302919091019091015290565b60408051600180825281830190925260609160208083019080368337019050509050631f931c1c60e01b815f8151811061011357610113611147565b60408051808201909152600f81526e111a585b5bdb9910dd5d119858d95d608a1b602082015290565b60608060606101a161016b565b92506101ab6100d8565b91506101b561012f565b9050909192565b6101e57f552e522d4f9b6a3d443b47299f900b7b1bce2dacca532b0186b605495413451d6101ff565b565b6100d36101f2610237565b848484610284565b905090565b80546001600160a01b03163314610234573360405163245aecd360e01b815260040161022b919061115b565b60405180910390fd5b50565b5f6101fa60405160200161026b906020808252600c908201526b6569702e6572632e3235333560a01b604082015260600190565b6040516020818303038152906040528051906020012090565b61028e8484610342565b5f81511180156102a657506001600160a01b03821615155b15610301576102be6001600160a01b03831682610378565b50816001600160a01b03167ffb4514022f0c20335bef459c51d3b7d7ec4a30ac3ab8ccc1b3f83422c51ff3fc826040516102f891906110f3565b60405180910390a25b7f8faa70878671ccd212d20771b795c50af8fd3ff6cf27f4bde57e5d4de0aeb67383838360405161033493929190611183565b60405180910390a150505050565b5f5b81518110156100d3576103708383838151811061036357610363611147565b602002602001015161038d565b600101610344565b60606103848383610418565b90505b92915050565b80516001600160a01b03166103a0575050565b5f816020015160028111156103b7576103b761116f565b036103c6576103c6828261048a565b6001816020015160028111156103de576103de61116f565b036103ed576103ed82826105c7565b6002816020015160028111156104055761040561116f565b0361041457610414828261081f565b5050565b60605f5f846001600160a01b0316846040516104349190611283565b5f60405180830381855af49150503d805f811461046c576040519150601f19603f3d011682016040523d82523d5f602084013e610471565b606091505b50915091506104818583836109ac565b95945050505050565b5f5b816040015151811015610590575f6001600160a01b0316836002015f846040015184815181106104be576104be611147565b6020908102919091018101516001600160e01b03191682528101919091526040015f20546001600160a01b031614610528578160400151818151811061050657610506611147565b602002602001015160405163c33ebb5960e01b815260040161022b9190611299565b815f0151836002015f8460400151848151811061054757610547611147565b6020908102919091018101516001600160e01b03191682528101919091526040015f2080546001600160a01b0319166001600160a01b039290921691909117905560010161048c565b5060408082015182516001600160a01b03165f90815260038501602052919091206105ba91610a02565b80516100d3908390610a38565b5f5b816040015151811015610590575f6001600160a01b0316836002015f846040015184815181106105fb576105fb611147565b6020908102919091018101516001600160e01b03191682528101919091526040015f20546001600160a01b031603610665578160400151818151811061064357610643611147565b6020026020010151604051631310a10960e11b815260040161022b9190611299565b815f01516001600160a01b0316836002015f8460400151848151811061068d5761068d611147565b6020908102919091018101516001600160e01b03191682528101919091526040015f20546001600160a01b0316036106db5781516040516386bba0cb60e01b815261022b919060040161115b565b5f836002015f846040015184815181106106f7576106f7611147565b60200260200101516001600160e01b0319166001600160e01b03191681526020019081526020015f205f9054906101000a90046001600160a01b031690506107898360400151838151811061074e5761074e611147565b6020026020010151856003015f846001600160a01b03166001600160a01b031681526020019081526020015f20610aa190919063ffffffff16565b6001600160a01b0381165f9081526003850160205260409020600101545f036107b6576107b68482610bde565b825f0151846002015f856040015185815181106107d5576107d5611147565b6020908102919091018101516001600160e01b03191682528101919091526040015f2080546001600160a01b0319166001600160a01b0392909216919091179055506001016105c9565b5f5b8160400151518110156100d3575f8260400151828151811061084557610845611147565b6020908102919091018101516001600160e01b031981165f908152600287019092526040909120549091506001600160a01b0316806108995781604051631310a10960e11b815260040161022b9190611299565b83516001600160a01b038281169116146108ec578351604051632377a52b60e21b81526001600160e01b0319841660048201526001600160a01b039182166024820152908216604482015260640161022b565b6001600160e01b031982165f908152600286016020908152604080832080546001600160a01b03191690556001600160a01b03841683526003880190915290206109369083610aa1565b6001600160a01b0381165f9081526003860160205260409020600101545f03610963576109638582610bde565b6040516001600160a01b038216906001600160e01b03198416907fa24c9d3a0f634225f6932b85d43ff7a2dcb0b8778ad4caedbc13c840f5e4fd6d905f90a35050600101610821565b6060826109c1576109bc82610cfc565b6109fb565b81511580156109d857506001600160a01b0384163b155b156109f85783604051639996b31560e01b815260040161022b919061115b565b50805b9392505050565b5f5b81518110156100d357610a3083838381518110610a2357610a23611147565b6020026020010151610d25565b600101610a04565b6001600160a01b0381165f90815260208390526040812054610a98576001838101805491820181555f818152602080822090930180546001600160a01b0319166001600160a01b0387169081179091559154918152918590526040909120555b50600192915050565b6001600160e01b031981165f9081526020839052604090205480156100d3575f610acc6001836112c2565b600180860180549293505f929091610ae3916112c2565b81548110610af357610af3611147565b905f5260205f2090600891828204019190066004029054906101000a900460e01b905080856001018381548110610b2c57610b2c611147565b905f5260205f2090600891828204019190066004026101000a81548163ffffffff021916908360e01c0217905550816001610b6791906112d5565b6001600160e01b031982165f9081526020879052604090205560018501805480610b9357610b936112e8565b5f828152602080822060085f1990940193840401805463ffffffff600460078716026101000a0219169055919092556001600160e01b03198616825286905260408120555050505050565b6001600160a01b0381165f9081526020839052604090205480156100d3575f610c086001836112c2565b600180860180549293505f929091610c1f916112c2565b81548110610c2f57610c2f611147565b5f918252602090912001546001860180546001600160a01b039092169250829184908110610c5f57610c5f611147565b5f91825260209091200180546001600160a01b0319166001600160a01b0392909216919091179055610c928260016112d5565b6001600160a01b0382165f9081526020879052604090205560018501805480610cbd57610cbd6112e8565b5f828152602080822083015f1990810180546001600160a01b03191690559092019092556001600160a01b038616825286905260408120555050505050565b805115610d0c5780518082602001fd5b60405163d6bda27560e01b815260040160405180910390fd5b6001600160e01b031981165f90815260208390526040902054610414576001828101805491820181555f81815260208082206008850401805463ffffffff60079096166004026101000a958602191660e087901c959095029490941790935590546001600160e01b03199093168152929052604090912055565b634e487b7160e01b5f52604160045260245ffd5b604051606081016001600160401b0381118282101715610dd557610dd5610d9f565b60405290565b604051601f8201601f191681016001600160401b0381118282101715610e0357610e03610d9f565b604052919050565b5f6001600160401b03821115610e2357610e23610d9f565b5060051b60200190565b80356001600160a01b0381168114610e43575f5ffd5b919050565b5f82601f830112610e57575f5ffd5b81356001600160401b03811115610e7057610e70610d9f565b610e83601f8201601f1916602001610ddb565b818152846020838601011115610e97575f5ffd5b816020850160208301375f918101602001919091529392505050565b5f5f5f60608486031215610ec5575f5ffd5b83356001600160401b03811115610eda575f5ffd5b8401601f81018613610eea575f5ffd5b8035610efd610ef882610e0b565b610ddb565b8082825260208201915060208360051b850101925088831115610f1e575f5ffd5b602084015b8381101561102c5780356001600160401b03811115610f40575f5ffd5b85016060818c03601f19011215610f55575f5ffd5b610f5d610db3565b610f6960208301610e2d565b8152604082013560038110610f7c575f5ffd5b602082015260608201356001600160401b03811115610f99575f5ffd5b6020818401019250508b601f830112610fb0575f5ffd5b8135610fbe610ef882610e0b565b8082825260208201915060208360051b86010192508e831115610fdf575f5ffd5b6020850194505b828510156110165784356001600160e01b031981168114611005575f5ffd5b825260209485019490910190610fe6565b6040840152505084525060209283019201610f23565b50955061103f9250505060208501610e2d565b915060408401356001600160401b03811115611059575f5ffd5b61106586828701610e48565b9150509250925092565b5f8151808452602084019350602083015f5b828110156110a95781516001600160e01b031916865260209586019590910190600101611081565b5093949350505050565b602081525f610384602083018461106f565b5f81518084528060208401602086015e5f602082860101526020601f19601f83011685010191505092915050565b602081525f61038460208301846110c5565b606081525f61111760608301866110c5565b8281036020840152611129818661106f565b9050828103604084015261113d818561106f565b9695505050505050565b634e487b7160e01b5f52603260045260245ffd5b6001600160a01b0391909116815260200190565b634e487b7160e01b5f52602160045260245ffd5b5f606082016060835280865180835260808501915060808160051b8601019250602088015f5b8281101561125e57868503607f19018452815180516001600160a01b0316865260208101516060870190600381106111ef57634e487b7160e01b5f52602160045260245ffd5b8060208901525060408201519150606060408801528082518083526080890191506020840193505f92505b808310156112465783516001600160e01b0319168252602093840193600193909301929091019061121a565b509650505060209384019391909101906001016111a9565b5050506001600160a01b038616602085015250828103604084015261113d81856110c5565b5f82518060208501845e5f920191825250919050565b6001600160e01b031991909116815260200190565b634e487b7160e01b5f52601160045260245ffd5b81810381811115610387576103876112ae565b80820180821115610387576103876112ae565b634e487b7160e01b5f52603160045260245ffdfea26469706673582212201d5dca4b2ad66cd526127c560af46face9236dfab4ff6cea817aa6376717807764736f6c634300081e0033","linkReferences":{}},"methodIdentifiers":{"diamondCut((address,uint8,bytes4[])[],address,bytes)":"1f931c1c","facetFuncs()":"574a4cff","facetInterfaces()":"2ea80826","facetMetadata()":"f10d7a75","facetName()":"5b6f4d01"},"id":180}