{"abi":[{"type":"function","name":"facetFuncs","inputs":[],"outputs":[{"name":"funcs","type":"bytes4[]","internalType":"bytes4[]"}],"stateMutability":"pure"},{"type":"function","name":"facetInterfaces","inputs":[],"outputs":[{"name":"interfaces","type":"bytes4[]","internalType":"bytes4[]"}],"stateMutability":"pure"},{"type":"function","name":"facetMetadata","inputs":[],"outputs":[{"name":"name","type":"string","internalType":"string"},{"name":"interfaces","type":"bytes4[]","internalType":"bytes4[]"},{"name":"functions","type":"bytes4[]","internalType":"bytes4[]"}],"stateMutability":"pure"},{"type":"function","name":"facetName","inputs":[],"outputs":[{"name":"name","type":"string","internalType":"string"}],"stateMutability":"pure"},{"type":"function","name":"getMessage","inputs":[],"outputs":[{"name":"","type":"string","internalType":"string"}],"stateMutability":"view"},{"type":"function","name":"setMessage","inputs":[{"name":"message","type":"string","internalType":"string"}],"outputs":[{"name":"","type":"bool","internalType":"bool"}],"stateMutability":"nonpayable"},{"type":"event","name":"NewMessage","inputs":[{"name":"oldMessage","type":"string","indexed":false,"internalType":"string"},{"name":"newMessage","type":"string","indexed":false,"internalType":"string"}],"anonymous":false}],"bytecode":{"object":"0x6080604052348015600e575f5ffd5b506106978061001c5f395ff3fe608060405234801561000f575f5ffd5b5060043610610060575f3560e01c80632ea8082614610064578063368b877214610082578063574a4cff146100a55780635b6f4d01146100ad578063ce6d41de146100c2578063f10d7a75146100ca575b5f5ffd5b61006c6100e1565b6040516100799190610384565b60405180910390f35b6100956100903660046103b1565b610139565b6040519015158152602001610079565b61006c610199565b6100b561020a565b604051610079919061048f565b6100b5610230565b6100d261023f565b604051610079939291906104a1565b60408051600180825281830190925260609160208083019080368337019050509050633e39b1ab60e21b815f8151811061011d5761011d6104e3565b6001600160e01b03199092166020928302919091019091015290565b5f5f610143610267565b90507f33f9897216838d3426adfbb9dcb455323ae7e170a584880d835bc7327ad6137d61016f8261028b565b8460405161017e9291906104f7565b60405180910390a1610190818461031e565b50600192915050565b604080516002808252606080830184529260208301908036833701905050905063ce6d41de60e01b815f815181106101d3576101d36104e3565b6001600160e01b0319909216602092830291909101909101528051631b45c3b960e11b908290600190811061011d5761011d6104e3565b60408051808201909152600c81526b11dc99595d195c919858d95d60a21b602082015290565b606061023a61032e565b905090565b606080606061024c61020a565b92506102566100e1565b9150610260610199565b9050909192565b7fd32bbaeef0dc4ce0a1707655450e5e93886dfad6f521b6fb7c9b8f3a455fa26590565b6060815f01805461029b90610524565b80601f01602080910402602001604051908101604052809291908181526020018280546102c790610524565b80156103125780601f106102e957610100808354040283529160200191610312565b820191905f5260205f20905b8154815290600101906020018083116102f557829003601f168201915b50505050509050919050565b8161032982826105a7565b505050565b606061023a61033b610267565b61028b565b5f8151808452602084019350602083015f5b8281101561037a5781516001600160e01b031916865260209586019590910190600101610352565b5093949350505050565b602081525f6103966020830184610340565b9392505050565b634e487b7160e01b5f52604160045260245ffd5b5f602082840312156103c1575f5ffd5b81356001600160401b038111156103d6575f5ffd5b8201601f810184136103e6575f5ffd5b80356001600160401b038111156103ff576103ff61039d565b604051601f8201601f19908116603f011681016001600160401b038111828210171561042d5761042d61039d565b604052818152828201602001861015610444575f5ffd5b816020840160208301375f91810160200191909152949350505050565b5f81518084528060208401602086015e5f602082860101526020601f19601f83011685010191505092915050565b602081525f6103966020830184610461565b606081525f6104b36060830186610461565b82810360208401526104c58186610340565b905082810360408401526104d98185610340565b9695505050505050565b634e487b7160e01b5f52603260045260245ffd5b604081525f6105096040830185610461565b828103602084015261051b8185610461565b95945050505050565b600181811c9082168061053857607f821691505b60208210810361055657634e487b7160e01b5f52602260045260245ffd5b50919050565b601f82111561032957805f5260205f20601f840160051c810160208510156105815750805b601f840160051c820191505b818110156105a0575f815560010161058d565b5050505050565b81516001600160401b038111156105c0576105c061039d565b6105d4816105ce8454610524565b8461055c565b6020601f821160018114610606575f83156105ef5750848201515b5f19600385901b1c1916600184901b1784556105a0565b5f84815260208120601f198516915b828110156106355787850151825560209485019460019092019101610615565b508482101561065257868401515f19600387901b60f8161c191681555b50505050600190811b0190555056fea2646970667358221220a085ca2e9a97d5ac8ca7321d971884d653e793cb8c3338bf66389da8e215ef1864736f6c634300081e0033","linkReferences":{}},"methodIdentifiers":{"facetFuncs()":"574a4cff","facetInterfaces()":"2ea80826","facetMetadata()":"f10d7a75","facetName()":"5b6f4d01","getMessage()":"ce6d41de","setMessage(string)":"368b8772"},"id":1297}