{"abi":[{"type":"constructor","inputs":[{"name":"_weights","type":"uint256[]","internalType":"uint256[]"}],"stateMutability":"nonpayable"},{"type":"function","name":"computeAddLiquiditySingleTokenExactOut","inputs":[{"name":"currentBalances","type":"uint256[]","internalType":"uint256[]"},{"name":"tokenInIndex","type":"uint256","internalType":"uint256"},{"name":"exactBptAmountOut","type":"uint256","internalType":"uint256"},{"name":"totalSupply","type":"uint256","internalType":"uint256"},{"name":"swapFeePercentage","type":"uint256","internalType":"uint256"}],"outputs":[{"name":"amountInWithFee","type":"uint256","internalType":"uint256"},{"name":"swapFeeAmounts","type":"uint256[]","internalType":"uint256[]"}],"stateMutability":"view"},{"type":"function","name":"computeAddLiquidityUnbalanced","inputs":[{"name":"currentBalances","type":"uint256[]","internalType":"uint256[]"},{"name":"exactAmounts","type":"uint256[]","internalType":"uint256[]"},{"name":"totalSupply","type":"uint256","internalType":"uint256"},{"name":"swapFeePercentage","type":"uint256","internalType":"uint256"}],"outputs":[{"name":"bptAmountOut","type":"uint256","internalType":"uint256"},{"name":"swapFeeAmounts","type":"uint256[]","internalType":"uint256[]"}],"stateMutability":"view"},{"type":"function","name":"computeBalance","inputs":[{"name":"balancesLiveScaled18","type":"uint256[]","internalType":"uint256[]"},{"name":"tokenInIndex","type":"uint256","internalType":"uint256"},{"name":"invariantRatio","type":"uint256","internalType":"uint256"}],"outputs":[{"name":"newBalance","type":"uint256","internalType":"uint256"}],"stateMutability":"view"},{"type":"function","name":"computeInvariant","inputs":[{"name":"balancesLiveScaled18","type":"uint256[]","internalType":"uint256[]"},{"name":"rounding","type":"uint8","internalType":"enum Rounding"}],"outputs":[{"name":"","type":"uint256","internalType":"uint256"}],"stateMutability":"view"},{"type":"function","name":"computeProportionalAmountsIn","inputs":[{"name":"balances","type":"uint256[]","internalType":"uint256[]"},{"name":"bptTotalSupply","type":"uint256","internalType":"uint256"},{"name":"bptAmountOut","type":"uint256","internalType":"uint256"}],"outputs":[{"name":"","type":"uint256[]","internalType":"uint256[]"}],"stateMutability":"pure"},{"type":"function","name":"computeProportionalAmountsOut","inputs":[{"name":"balances","type":"uint256[]","internalType":"uint256[]"},{"name":"bptTotalSupply","type":"uint256","internalType":"uint256"},{"name":"bptAmountIn","type":"uint256","internalType":"uint256"}],"outputs":[{"name":"","type":"uint256[]","internalType":"uint256[]"}],"stateMutability":"pure"},{"type":"function","name":"computeRemoveLiquiditySingleTokenExactIn","inputs":[{"name":"currentBalances","type":"uint256[]","internalType":"uint256[]"},{"name":"tokenOutIndex","type":"uint256","internalType":"uint256"},{"name":"exactBptAmountIn","type":"uint256","internalType":"uint256"},{"name":"totalSupply","type":"uint256","internalType":"uint256"},{"name":"swapFeePercentage","type":"uint256","internalType":"uint256"}],"outputs":[{"name":"amountOutWithFee","type":"uint256","internalType":"uint256"},{"name":"swapFeeAmounts","type":"uint256[]","internalType":"uint256[]"}],"stateMutability":"view"},{"type":"function","name":"computeRemoveLiquiditySingleTokenExactOut","inputs":[{"name":"currentBalances","type":"uint256[]","internalType":"uint256[]"},{"name":"tokenOutIndex","type":"uint256","internalType":"uint256"},{"name":"exactAmountOut","type":"uint256","internalType":"uint256"},{"name":"totalSupply","type":"uint256","internalType":"uint256"},{"name":"swapFeePercentage","type":"uint256","internalType":"uint256"}],"outputs":[{"name":"bptAmountIn","type":"uint256","internalType":"uint256"},{"name":"swapFeeAmounts","type":"uint256[]","internalType":"uint256[]"}],"stateMutability":"view"},{"type":"function","name":"getMaximumInvariantRatio","inputs":[],"outputs":[{"name":"","type":"uint256","internalType":"uint256"}],"stateMutability":"pure"},{"type":"function","name":"getMaximumSwapFeePercentage","inputs":[],"outputs":[{"name":"","type":"uint256","internalType":"uint256"}],"stateMutability":"pure"},{"type":"function","name":"getMinimumInvariantRatio","inputs":[],"outputs":[{"name":"","type":"uint256","internalType":"uint256"}],"stateMutability":"pure"},{"type":"function","name":"getMinimumSwapFeePercentage","inputs":[],"outputs":[{"name":"","type":"uint256","internalType":"uint256"}],"stateMutability":"pure"},{"type":"function","name":"onSwap","inputs":[{"name":"","type":"tuple","internalType":"struct PoolSwapParams","components":[{"name":"kind","type":"uint8","internalType":"enum SwapKind"},{"name":"amountGivenScaled18","type":"uint256","internalType":"uint256"},{"name":"balancesScaled18","type":"uint256[]","internalType":"uint256[]"},{"name":"indexIn","type":"uint256","internalType":"uint256"},{"name":"indexOut","type":"uint256","internalType":"uint256"},{"name":"router","type":"address","internalType":"address"},{"name":"userData","type":"bytes","internalType":"bytes"}]}],"outputs":[{"name":"","type":"uint256","internalType":"uint256"}],"stateMutability":"pure"},{"type":"function","name":"weights","inputs":[{"name":"","type":"uint256","internalType":"uint256"}],"outputs":[{"name":"","type":"uint256","internalType":"uint256"}],"stateMutability":"view"},{"type":"error","name":"BaseOutOfBounds","inputs":[]},{"type":"error","name":"ExponentOutOfBounds","inputs":[]},{"type":"error","name":"InvalidExponent","inputs":[]},{"type":"error","name":"InvariantRatioAboveMax","inputs":[{"name":"invariantRatio","type":"uint256","internalType":"uint256"},{"name":"maxInvariantRatio","type":"uint256","internalType":"uint256"}]},{"type":"error","name":"InvariantRatioBelowMin","inputs":[{"name":"invariantRatio","type":"uint256","internalType":"uint256"},{"name":"minInvariantRatio","type":"uint256","internalType":"uint256"}]},{"type":"error","name":"ProductOutOfBounds","inputs":[]},{"type":"error","name":"ZeroDivision","inputs":[]},{"type":"error","name":"ZeroInvariant","inputs":[]}],"bytecode":{"object":"0x608060405234801561000f575f5ffd5b506040516123c03803806123c083398101604081905261002e916100b8565b8051610040905f906020840190610047565b505061017f565b828054828255905f5260205f20908101928215610080579160200282015b82811115610080578251825591602001919060010190610065565b5061008c929150610090565b5090565b5b8082111561008c575f8155600101610091565b634e487b7160e01b5f52604160045260245ffd5b5f602082840312156100c8575f5ffd5b81516001600160401b038111156100dd575f5ffd5b8201601f810184136100ed575f5ffd5b80516001600160401b03811115610106576101066100a4565b604051600582901b90603f8201601f191681016001600160401b0381118282101715610134576101346100a4565b604052918252602081840181019290810187841115610151575f5ffd5b6020850194505b8385101561017457845180825260209586019590935001610158565b509695505050505050565b6122348061018c5f395ff3fe608060405234801561000f575f5ffd5b50600436106100b8575f3560e01c806316a0b3e0146100bc578063273c1adf146100e25780633ab05915146100f2578063654cf15d1461011357806372c981861461012157806385d5261a14610134578063984de9e8146101475780639a87ffbf1461015a578063b5f163ff1461016d578063b677fa5614610180578063c548e4d814610186578063ce20ece714610180578063d9c7cc7a146101a6578063da317980146101b9575b5f5ffd5b6100cf6100ca366004611eb2565b6101cc565b6040519081526020015b60405180910390f35b69d3c21bcecceda10000006100cf565b610105610100366004611efb565b610213565b6040516100d9929190611f8c565b670de0b6b3a76400006100cf565b6100cf61012f366004611fa4565b610232565b610105610142366004611efb565b610273565b6100cf610155366004611fda565b610284565b610105610168366004611efb565b610359565b6100cf61017b36600461202b565b61036a565b5f6100cf565b610199610194366004611eb2565b610388565b6040516100d99190612042565b6101056101b4366004612054565b610395565b6101996101c7366004611eb2565b6103b2565b5f61020b8484815181106101e2576101e26120c6565b60200260200101515f85815481106101fc576101fc6120c6565b905f5260205f200154846103bf565b949350505050565b5f6060610224878787878730610417565b915091509550959350505050565b60405162461bcd60e51b815260206004820152600f60248201526e139bdd081a5b5c1b195b595b9d1959608a1b60448201525f906064015b60405180910390fd5b5f60606102248787878787306105a4565b5f6001826001811115610299576102996120da565b036102fc576102f55f8054806020026020016040519081016040528092919081815260200182805480156102ea57602002820191905f5260205f20905b8154815260200190600101908083116102d6575b50505050508461073b565b9050610353565b6102f55f80548060200260200160405190810160405280929190818152602001828054801561034857602002820191905f5260205f20905b815481526020019060010190808311610334575b5050505050846107c9565b92915050565b5f6060610224878787878730610836565b5f8181548110610378575f80fd5b5f91825260209091200154905081565b606061020b848484610bb3565b5f60606103a58686868630610c60565b9150915094509492505050565b606061020b848484611014565b5f611df8670de0b6b3a764000083116103da576110bb6103de565b6110db5b90505f6104016103fa670de0b6b3a7640000878563ffffffff16565b85906110f6565b905061040d86826111a2565b9695505050505050565b5f6060816104258787612102565b90505f61043282886110db565b905061043e85826111ce565b60405162b5059f60e51b81525f906001600160a01b038716906316a0b3e09061046f908e908e908790600401612115565b602060405180830381865afa15801561048a573d5f5f3e3d5ffd5b505050506040513d601f19601f820116820180604052508101906104ae9190612139565b90505f818c8c815181106104c4576104c46120c6565b60200260200101516104d69190612102565b90505f6105078d8d815181106104ee576104ee6120c6565b60200260200101518b876112619092919063ffffffff16565b90505f6105148483612102565b90505f610521828c6111a2565b90508e516001600160401b0381111561053c5761053c611e02565b604051908082528060200260200182016040528015610565578160200160208202803683370190505b50975080888f8151811061057b5761057b6120c6565b60209081029190910101526105908185612102565b985050505050505050965096945050505050565b5f6060816105b28688612150565b90505f6105bf82886110db565b90506105cb85826112a6565b60405162b5059f60e51b81525f906001600160a01b038716906316a0b3e0906105fc908e908e908790600401612115565b602060405180830381865afa158015610617573d5f5f3e3d5ffd5b505050506040513d601f19601f8201168201806040525081019061063b9190612139565b90505f8b8b81518110610650576106506120c6565b6020026020010151826106639190612102565b90505f898d8d81518110610679576106796120c6565b60200260200101518661068c9190612163565b610696919061218e565b90505f6106a38285612102565b90505f816106c2670de0b6b3a76400008d8103908e10025b84906110db565b6106cc9190612102565b90508e516001600160401b038111156106e7576106e7611e02565b604051908082528060200260200182016040528015610710578160200160208202803683370190505b50975080888f81518110610726576107266120c6565b60209081029190910101526105908185612150565b670de0b6b3a76400005f5b83518110156107a85761079e610797858381518110610767576107676120c6565b6020026020010151858481518110610781576107816120c6565b602002602001015161133490919063ffffffff16565b83906113e0565b9150600101610746565b50805f0361035357604051632654368960e01b815260040160405180910390fd5b670de0b6b3a76400005f5b83518110156107a85761082c6108258583815181106107f5576107f56120c6565b602002602001015185848151811061080f5761080f6120c6565b60200260200101516110f690919063ffffffff16565b83906111a2565b91506001016107d4565b85515f9060609082816001600160401b0381111561085657610856611e02565b60405190808252806020026020018201604052801561087f578160200160208202803683370190505b5090505f5b828110156108d75760018b82815181106108a0576108a06120c6565b60200260200101516108b29190612102565b8282815181106108c4576108c46120c6565b6020908102919091010152600101610884565b5087818a815181106108eb576108eb6120c6565b60200260200101516108fd9190612102565b818a8151811061090f5761090f6120c6565b6020908102919091010152604051631309bd3d60e31b81525f906001600160a01b0387169063984de9e89061094a908e9085906004016121ad565b602060405180830381865afa158015610965573d5f5f3e3d5ffd5b505050506040513d601f19601f820116820180604052508101906109899190612139565b90505f610a0382886001600160a01b031663984de9e8865f6040518363ffffffff1660e01b81526004016109be9291906121ad565b602060405180830381865afa1580156109d9573d5f5f3e3d5ffd5b505050506040513d601f19601f820116820180604052508101906109fd9190612139565b906110db565b9050610a0f87826111ce565b5f838c81518110610a2257610a226120c6565b6020026020010151610a568e8e81518110610a3f57610a3f6120c6565b6020026020010151846111a290919063ffffffff16565b610a609190612102565b90505f81610a7c670de0b6b3a76400008c8103908d10026106bb565b610a869190612102565b905080858e81518110610a9b57610a9b6120c6565b6020026020010151610aad9190612102565b858e81518110610abf57610abf6120c6565b6020908102919091010152604051631309bd3d60e31b81525f906001600160a01b038b169063984de9e890610afb9089906001906004016121ad565b602060405180830381865afa158015610b16573d5f5f3e3d5ffd5b505050506040513d601f19601f82011682018060405250810190610b3a9190612139565b9050866001600160401b03811115610b5457610b54611e02565b604051908082528060200260200182016040528015610b7d578160200160208202803683370190505b50975081888f81518110610b9357610b936120c6565b6020908102919091010152610590610bab8287612102565b8d9087611261565b606083516001600160401b03811115610bce57610bce611e02565b604051908082528060200260200182016040528015610bf7578160200160208202803683370190505b5090505f5b8451811015610c5857610c338385878481518110610c1c57610c1c6120c6565b60200260200101516112619092919063ffffffff16565b828281518110610c4557610c456120c6565b6020908102919091010152600101610bfc565b509392505050565b84515f9060609082816001600160401b03811115610c8057610c80611e02565b604051908082528060200260200182016040528015610ca9578160200160208202803683370190505b509050816001600160401b03811115610cc457610cc4611e02565b604051908082528060200260200182016040528015610ced578160200160208202803683370190505b5092505f5b82811015610d69576001898281518110610d0e57610d0e6120c6565b60200260200101518b8381518110610d2857610d286120c6565b6020026020010151610d3a9190612150565b610d449190612102565b828281518110610d5657610d566120c6565b6020908102919091010152600101610cf2565b50604051631309bd3d60e31b81525f906001600160a01b0387169063984de9e890610d9a908d9085906004016121ad565b602060405180830381865afa158015610db5573d5f5f3e3d5ffd5b505050506040513d601f19601f82011682018060405250810190610dd99190612139565b90505f610e5482886001600160a01b031663984de9e88660016040518363ffffffff1660e01b8152600401610e0f9291906121ad565b602060405180830381865afa158015610e2a573d5f5f3e3d5ffd5b505050506040513d601f19601f82011682018060405250810190610e4e9190612139565b906110bb565b9050610e6087826112a6565b5f5b84811015610f71575f610e978d8381518110610e8057610e806120c6565b6020026020010151846113e090919063ffffffff16565b905080858381518110610eac57610eac6120c6565b60200260200101511115610f68575f81868481518110610ece57610ece6120c6565b6020026020010151039050610eec8b826111a290919063ffffffff16565b888481518110610efe57610efe6120c6565b602002602001018181525050878381518110610f1c57610f1c6120c6565b6020026020010151868481518110610f3657610f366120c6565b6020026020010151610f489190612102565b868481518110610f5a57610f5a6120c6565b602002602001018181525050505b50600101610e62565b50604051631309bd3d60e31b81525f906001600160a01b0389169063984de9e890610fa39087906001906004016121ad565b602060405180830381865afa158015610fbe573d5f5f3e3d5ffd5b505050506040513d601f19601f82011682018060405250810190610fe29190612139565b905082610fef8183612102565b610ff9908c612163565b611003919061218e565b965050505050509550959350505050565b606083516001600160401b0381111561102f5761102f611e02565b604051908082528060200260200182016040528015611058578160200160208202803683370190505b5090505f5b8451811015610c5857838386838151811061107a5761107a6120c6565b602002602001015161108c9190612163565b611096919061218e565b8282815181106110a8576110a86120c6565b602090810291909101015260010161105d565b5f806110cf670de0b6b3a764000085612163565b905061020b838261218e565b5f6110ef83670de0b6b3a764000084611261565b9392505050565b5f670de0b6b3a7640000820361110d575081610353565b611120670de0b6b3a76400006002612163565b8203611130576102f583846111a2565b611143670de0b6b3a76400006004612163565b8203611168575f61115484856111a2565b905061116081826111a2565b915050610353565b5f6111738484611400565b90505f611182826127106111a2565b61118d906001612150565b90506111998183612150565b92505050610353565b5f806111ae8385612163565b90506001670de0b6b3a76400006001830304018115150291505092915050565b5f826001600160a01b031663b677fa566040518163ffffffff1660e01b8152600401602060405180830381865afa15801561120b573d5f5f3e3d5ffd5b505050506040513d601f19601f8201168201806040525081019061122f9190612139565b90508082101561125c5760405163718e4adf60e11b8152600481018390526024810182905260440161026a565b505050565b5f815f0361128257604051630a0c22c760e01b815260040160405180910390fd5b5f61128d8486612163565b9050600183600183030401811515029150509392505050565b5f826001600160a01b031663273c1adf6040518163ffffffff1660e01b8152600401602060405180830381865afa1580156112e3573d5f5f3e3d5ffd5b505050506040513d601f19601f820116820180604052508101906113079190612139565b90508082111561125c57604051630fa2583760e21b8152600481018390526024810182905260440161026a565b5f670de0b6b3a7640000820361134b575081610353565b61135e670de0b6b3a76400006002612163565b820361136e576102f583846113e0565b611381670de0b6b3a76400006004612163565b820361139e575f61139284856113e0565b905061116081826113e0565b5f6113a98484611400565b90505f6113b8826127106111a2565b6113c3906001612150565b9050808210156113d7575f92505050610353565b90039050610353565b5f806113ec8385612163565b905061020b670de0b6b3a76400008261218e565b5f815f036114175750670de0b6b3a7640000610353565b825f0361142557505f610353565b60ff83901c15611447576040516211380f60e51b815260040160405180910390fd5b8261145f68056bc75e2d63100000600160fe1b61218e565b831061147e5760405163d831731160e01b815260040160405180910390fd5b825f670c7d713b49da00008313801561149e5750670f43fc2c04ee000083125b156114d4575f6114ad84611536565b9050670de0b6b3a764000080820784020583670de0b6b3a7640000830502019150506114e2565b816114de84611653565b0290505b670de0b6b3a76400009005680238fd42c5cf03ffff198112801590611510575068070c1cc73b00c800008113155b61152d5760405163a2f9f7e360e01b815260040160405180910390fd5b61040d816119fd565b670de0b6b3a7640000025f806a0c097ce7bc90715b34b9f160241b808401906ec097ce7bc90715b34b9f0fffffffff19850102816115765761157661217a565b0590505f6a0c097ce7bc90715b34b9f160241b82800205905081806a0c097ce7bc90715b34b9f160241b81840205915060038205016a0c097ce7bc90715b34b9f160241b82840205915060058205016a0c097ce7bc90715b34b9f160241b82840205915060078205016a0c097ce7bc90715b34b9f160241b82840205915060098205016a0c097ce7bc90715b34b9f160241b828402059150600b8205016a0c097ce7bc90715b34b9f160241b828402059150600d8205016a0c097ce7bc90715b34b9f160241b828402059150600f82050160020295945050505050565b5f80670de0b6b3a764000083121561168a57826a0c097ce7bc90715b34b9f160241b816116825761168261217a565b059250600190505b5f775803bcc5cb9634ba4cfb2213f784019318ed4dcb6017880f60361b84126116d45772195e54c5dd42177f53a27172fa9ec63026282760241b840593506806f05b59d3b2000000015b6f8bcc0026baae9e45e470190267a230cf60191b841261170b576b1425982cf597cd205cef7380840593506803782dace9d9000000015b606493840293026e01855144814a7ff805980ff00840008412611753576e01855144814a7ff805980ff008400068056bc75e2d63100000850205935068ad78ebc5ac62000000015b6b02df0ab5a80a22c61ab5a700841261178e576b02df0ab5a80a22c61ab5a70068056bc75e2d6310000085020593506856bc75e2d631000000015b693f1fce3da636ea5cf85084126117c557693f1fce3da636ea5cf85068056bc75e2d631000008502059350682b5e3af16b18800000015b690127fa27722cc06cc5e284126117fc57690127fa27722cc06cc5e268056bc75e2d6310000085020593506815af1d78b58c400000015b68280e60114edb805d0384126118315768280e60114edb805d0368056bc75e2d631000008502059350680ad78ebc5ac6200000015b680ebc5fb41746121110841261185c57680ebc5fb4174612111068056bc75e2d631000009485020593015b6808f00f760a4b2db55d8412611891576808f00f760a4b2db55d68056bc75e2d6310000085020593506802b5e3af16b1880000015b6806f5f177578893793784126118c6576806f5f177578893793768056bc75e2d63100000850205935068015af1d78b58c40000015b6806248f33704b28660384126118fa576806248f33704b28660368056bc75e2d63100000850205935067ad78ebc5ac620000015b6805c548670b9510e7ac841261192e576805c548670b9510e7ac68056bc75e2d6310000085020593506756bc75e2d6310000015b5f68056bc75e2d63100000850168056bc75e2d6310000080870302816119565761195661217a565b0590505f68056bc75e2d63100000828002059050818068056bc75e2d63100000818402059150600382050168056bc75e2d63100000828402059150600582050168056bc75e2d63100000828402059150600782050168056bc75e2d63100000828402059150600982050168056bc75e2d63100000828402059150600b8205016002025f6064868301059050866119ec57806119f0565b805f035b9998505050505050505050565b5f680238fd42c5cf03ffff198212158015611a21575068070c1cc73b00c800008213155b611a3e5760405163d4794efd60e01b815260040160405180910390fd5b5f80831215611a5157825f039250600190505b5f6806f05b59d3b20000008412611a8e57506806f05b59d3b1ffffff199092019172195e54c5dd42177f53a27172fa9ec63026282760241b611ac4565b6803782dace9d90000008412611ac057506803782dace9d8ffffff19909201916b1425982cf597cd205cef7380611ac4565b5060015b6064939093029268056bc75e2d6310000068ad78ebc5ac620000008512611b145768ad78ebc5ac61ffffff199094019368056bc75e2d631000006e01855144814a7ff805980ff008400082020590505b6856bc75e2d6310000008512611b50576856bc75e2d630ffffff199094019368056bc75e2d631000006b02df0ab5a80a22c61ab5a70082020590505b682b5e3af16b188000008512611b8a57682b5e3af16b187fffff199094019368056bc75e2d63100000693f1fce3da636ea5cf85082020590505b6815af1d78b58c4000008512611bc4576815af1d78b58c3fffff199094019368056bc75e2d63100000690127fa27722cc06cc5e282020590505b680ad78ebc5ac62000008512611bfd57680ad78ebc5ac61fffff199094019368056bc75e2d6310000068280e60114edb805d0382020590505b68056bc75e2d631000008512611c365768056bc75e2d630fffff199094019368056bc75e2d63100000680ebc5fb4174612111082020590505b6802b5e3af16b18800008512611c6f576802b5e3af16b187ffff199094019368056bc75e2d631000006808f00f760a4b2db55d82020590505b68015af1d78b58c400008512611ca85768015af1d78b58c3ffff199094019368056bc75e2d631000006806f5f177578893793782020590505b68056bc75e2d631000008581019086906002908280020505918201919050600368056bc75e2d631000008883020505918201919050600468056bc75e2d631000008883020505918201919050600568056bc75e2d631000008883020505918201919050600668056bc75e2d631000008883020505918201919050600768056bc75e2d631000008883020505918201919050600868056bc75e2d631000008883020505918201919050600968056bc75e2d631000008883020505918201919050600a68056bc75e2d631000008883020505918201919050600b68056bc75e2d631000008883020505918201919050600c68056bc75e2d6310000088830205059182019190505f606468056bc75e2d6310000085850205860205905085611dcd5780611dec565b806a0c097ce7bc90715b34b9f160241b81611dea57611dea61217a565b055b98975050505050505050565b611e006121ea565b565b634e487b7160e01b5f52604160045260245ffd5b5f82601f830112611e25575f5ffd5b81356001600160401b03811115611e3e57611e3e611e02565b604051600582901b90603f8201601f191681016001600160401b0381118282101715611e6c57611e6c611e02565b604052918252602081850181019290810186841115611e89575f5ffd5b6020860192505b83831015611ea8578235815260209283019201611e90565b5095945050505050565b5f5f5f60608486031215611ec4575f5ffd5b83356001600160401b03811115611ed9575f5ffd5b611ee586828701611e16565b9660208601359650604090950135949350505050565b5f5f5f5f5f60a08688031215611f0f575f5ffd5b85356001600160401b03811115611f24575f5ffd5b611f3088828901611e16565b9860208801359850604088013597606081013597506080013595509350505050565b5f8151808452602084019350602083015f5b82811015611f82578151865260209586019590910190600101611f64565b5093949350505050565b828152604060208201525f61020b6040830184611f52565b5f60208284031215611fb4575f5ffd5b81356001600160401b03811115611fc9575f5ffd5b820160e081850312156110ef575f5ffd5b5f5f60408385031215611feb575f5ffd5b82356001600160401b03811115612000575f5ffd5b61200c85828601611e16565b925050602083013560028110612020575f5ffd5b809150509250929050565b5f6020828403121561203b575f5ffd5b5035919050565b602081525f6110ef6020830184611f52565b5f5f5f5f60808587031215612067575f5ffd5b84356001600160401b0381111561207c575f5ffd5b61208887828801611e16565b94505060208501356001600160401b038111156120a3575f5ffd5b6120af87828801611e16565b949794965050505060408301359260600135919050565b634e487b7160e01b5f52603260045260245ffd5b634e487b7160e01b5f52602160045260245ffd5b634e487b7160e01b5f52601160045260245ffd5b81810381811115610353576103536120ee565b606081525f6121276060830186611f52565b60208301949094525060400152919050565b5f60208284031215612149575f5ffd5b5051919050565b80820180821115610353576103536120ee565b8082028115828204841417610353576103536120ee565b634e487b7160e01b5f52601260045260245ffd5b5f826121a857634e487b7160e01b5f52601260045260245ffd5b500490565b604081525f6121bf6040830185611f52565b9050600283106121dd57634e487b7160e01b5f52602160045260245ffd5b8260208301529392505050565b634e487b7160e01b5f52605160045260245ffdfea2646970667358221220c4ea1ed515737a589f131b58f250ae4fbb0a9f5cde9bf6d63524adfd52e199e064736f6c634300081e0033","linkReferences":{}},"methodIdentifiers":{"computeAddLiquiditySingleTokenExactOut(uint256[],uint256,uint256,uint256,uint256)":"85d5261a","computeAddLiquidityUnbalanced(uint256[],uint256[],uint256,uint256)":"d9c7cc7a","computeBalance(uint256[],uint256,uint256)":"16a0b3e0","computeInvariant(uint256[],uint8)":"984de9e8","computeProportionalAmountsIn(uint256[],uint256,uint256)":"c548e4d8","computeProportionalAmountsOut(uint256[],uint256,uint256)":"da317980","computeRemoveLiquiditySingleTokenExactIn(uint256[],uint256,uint256,uint256,uint256)":"3ab05915","computeRemoveLiquiditySingleTokenExactOut(uint256[],uint256,uint256,uint256,uint256)":"9a87ffbf","getMaximumInvariantRatio()":"273c1adf","getMaximumSwapFeePercentage()":"654cf15d","getMinimumInvariantRatio()":"b677fa56","getMinimumSwapFeePercentage()":"ce20ece7","onSwap((uint8,uint256,uint256[],uint256,uint256,address,bytes))":"72c98186","weights(uint256)":"b5f163ff"},"id":209}