{"abi":[{"type":"function","name":"ensureSortedTokens","inputs":[{"name":"tokens","type":"address[]","internalType":"contract IERC20[]"}],"outputs":[],"stateMutability":"pure"},{"type":"function","name":"sortTokenConfig","inputs":[{"name":"tokenConfig","type":"tuple[]","internalType":"struct TokenConfig[]","components":[{"name":"token","type":"address","internalType":"contract IERC20"},{"name":"tokenType","type":"uint8","internalType":"enum TokenType"},{"name":"rateProvider","type":"address","internalType":"contract IRateProvider"},{"name":"paysYieldFees","type":"bool","internalType":"bool"}]}],"outputs":[{"name":"","type":"tuple[]","internalType":"struct TokenConfig[]","components":[{"name":"token","type":"address","internalType":"contract IERC20"},{"name":"tokenType","type":"uint8","internalType":"enum TokenType"},{"name":"rateProvider","type":"address","internalType":"contract IRateProvider"},{"name":"paysYieldFees","type":"bool","internalType":"bool"}]}],"stateMutability":"pure"},{"type":"function","name":"sortTokens","inputs":[{"name":"tokens","type":"address[]","internalType":"contract IERC20[]"}],"outputs":[{"name":"","type":"address[]","internalType":"contract IERC20[]"}],"stateMutability":"pure"},{"type":"error","name":"TokensNotSorted","inputs":[]}],"bytecode":{"object":"0x6080604052348015600e575f5ffd5b506107458061001c5f395ff3fe608060405234801561000f575f5ffd5b506004361061003f575f3560e01c8063136deb1c14610043578063a3aef0b81461006c578063bb4ad7d514610081575b5f5ffd5b61005661005136600461045e565b6100a1565b60405161006391906104fc565b60405180910390f35b61007f61007a36600461045e565b6100b2565b005b61009461008f366004610547565b6100be565b6040516100639190610632565b60606100ac826101f2565b92915050565b6100bb81610324565b50565b60605f5b600183516100d091906106d5565b8110156101eb575f5b60018285516100e891906106d5565b6100f291906106d5565b8110156101e257836101058260016106e8565b81518110610115576101156106fb565b60200260200101515f01516001600160a01b031684828151811061013b5761013b6106fb565b60200260200101515f01516001600160a01b031611156101da57836101618260016106e8565b81518110610171576101716106fb565b602002602001015184828151811061018b5761018b6106fb565b60200260200101518583815181106101a5576101a56106fb565b60200260200101868460016101ba91906106e8565b815181106101ca576101ca6106fb565b6020026020010182905282905250505b6001016100d9565b506001016100c2565b5090919050565b60605f5b6001835161020491906106d5565b8110156101eb575f5b600182855161021c91906106d5565b61022691906106d5565b81101561031b57836102398260016106e8565b81518110610249576102496106fb565b60200260200101516001600160a01b031684828151811061026c5761026c6106fb565b60200260200101516001600160a01b03161115610313578361028f8260016106e8565b8151811061029f5761029f6106fb565b60200260200101518482815181106102b9576102b96106fb565b60200260200101518583815181106102d3576102d36106fb565b60200260200101868460016102e891906106e8565b815181106102f8576102f86106fb565b6001600160a01b039384166020918202929092010152911690525b60010161020d565b506001016101f6565b6002815110156103315750565b5f815f81518110610344576103446106fb565b602002602001015190505f600190505b82518110156103b7575f838281518110610370576103706106fb565b60200260200101519050806001600160a01b0316836001600160a01b031611156103ad57604051636e8f194760e01b815260040160405180910390fd5b9150600101610354565b505050565b634e487b7160e01b5f52604160045260245ffd5b604051608081016001600160401b03811182821017156103f2576103f26103bc565b60405290565b604051601f8201601f191681016001600160401b0381118282101715610420576104206103bc565b604052919050565b5f6001600160401b03821115610440576104406103bc565b5060051b60200190565b6001600160a01b03811681146100bb575f5ffd5b5f6020828403121561046e575f5ffd5b81356001600160401b03811115610483575f5ffd5b8201601f81018413610493575f5ffd5b80356104a66104a182610428565b6103f8565b8082825260208201915060208360051b8501019250868311156104c7575f5ffd5b6020840193505b828410156104f25783356104e18161044a565b8252602093840193909101906104ce565b9695505050505050565b602080825282518282018190525f918401906040840190835b8181101561053c5783516001600160a01b0316835260209384019390920191600101610515565b509095945050505050565b5f60208284031215610557575f5ffd5b81356001600160401b0381111561056c575f5ffd5b8201601f8101841361057c575f5ffd5b803561058a6104a182610428565b8082825260208201915060208360071b8501019250868311156105ab575f5ffd5b6020840193505b828410156104f257608084880312156105c9575f5ffd5b6105d16103d0565b84356105dc8161044a565b81526020850135600281106105ef575f5ffd5b602082015260408501356106028161044a565b604082015260608501358015158114610619575f5ffd5b60608201528252608093909301926020909101906105b2565b602080825282518282018190525f918401906040840190835b8181101561053c57835180516001600160a01b0316845260208101516002811061068357634e487b7160e01b5f52602160045260245ffd5b6020858101919091526040828101516001600160a01b031690860152606091820151151591850191909152939093019260809092019160010161064b565b634e487b7160e01b5f52601160045260245ffd5b818103818111156100ac576100ac6106c1565b808201808211156100ac576100ac6106c1565b634e487b7160e01b5f52603260045260245ffdfea26469706673582212203c8a1ea844af8e6d33eee29620881fa951444cb70e69c067a63e7252b6a8efbf64736f6c634300081e0033","linkReferences":{}},"methodIdentifiers":{"ensureSortedTokens(address[])":"a3aef0b8","sortTokenConfig((address,uint8,address,bool)[])":"bb4ad7d5","sortTokens(address[])":"136deb1c"},"id":947}