{"abi":[{"type":"function","name":"acceptOwnershipTransfer","inputs":[],"outputs":[],"stateMutability":"nonpayable"},{"type":"function","name":"cancelPendingOwnershipTransfer","inputs":[],"outputs":[],"stateMutability":"nonpayable"},{"type":"function","name":"confirmOwnershipTransfer","inputs":[{"name":"pendingOwner_","type":"address","internalType":"address"}],"outputs":[],"stateMutability":"nonpayable"},{"type":"function","name":"getOwnershipTransferBuffer","inputs":[],"outputs":[{"name":"","type":"uint256","internalType":"uint256"}],"stateMutability":"view"},{"type":"function","name":"initiateOwnershipTransfer","inputs":[{"name":"pendingOwner_","type":"address","internalType":"address"}],"outputs":[],"stateMutability":"nonpayable"},{"type":"function","name":"owner","inputs":[],"outputs":[{"name":"","type":"address","internalType":"address"}],"stateMutability":"view"},{"type":"function","name":"pendingOwner","inputs":[],"outputs":[{"name":"","type":"address","internalType":"address"}],"stateMutability":"view"},{"type":"function","name":"preConfirmedOwner","inputs":[],"outputs":[{"name":"","type":"address","internalType":"address"}],"stateMutability":"view"},{"type":"event","name":"OwnershipTransferConfirmed","inputs":[{"name":"prevOwner","type":"address","indexed":true,"internalType":"address"},{"name":"newOwner","type":"address","indexed":true,"internalType":"address"}],"anonymous":false},{"type":"event","name":"OwnershipTransferInitiated","inputs":[{"name":"prevOwner","type":"address","indexed":true,"internalType":"address"},{"name":"newOwner","type":"address","indexed":true,"internalType":"address"}],"anonymous":false},{"type":"event","name":"OwnershipTransferred","inputs":[{"name":"prevOwner","type":"address","indexed":true,"internalType":"address"},{"name":"newOwner","type":"address","indexed":true,"internalType":"address"}],"anonymous":false},{"type":"error","name":"BufferPeriodNotElapsed","inputs":[{"name":"currentTime","type":"uint256","internalType":"uint256"},{"name":"bufferEndTime","type":"uint256","internalType":"uint256"}]},{"type":"error","name":"NotOwner","inputs":[{"name":"caller","type":"address","internalType":"address"}]},{"type":"error","name":"NotPending","inputs":[{"name":"caller","type":"address","internalType":"address"}]}],"bytecode":{"object":"0x6080604052348015600e575f5ffd5b506105338061001c5f395ff3fe608060405234801561000f575f5ffd5b5060043610610076575f3560e01c80630f9f25301461007a5780631af1b0c4146100955780633c213957146100aa578063737293e2146100bf5780638da5cb5b146100c7578063b842e87f146100cf578063c0b6f561146100d7578063e30c3978146100ea575b5f5ffd5b6100826100f2565b6040519081526020015b60405180910390f35b61009d610100565b60405161008c9190610497565b6100bd6100b83660046104ab565b610109565b005b6100bd610115565b61009d61011f565b6100bd610128565b6100bd6100e53660046104ab565b610130565b61009d610139565b5f6100fb610142565b905090565b5f6100fb610155565b61011281610166565b50565b61011d610177565b565b5f6100fb610187565b61011d6101a0565b610112816101b0565b5f6100fb6101c1565b5f6100fb61014e6101dd565b6002015490565b5f6100fb6101616101dd565b610201565b6101126101716101dd565b8261022e565b61011d6101826101dd565b610320565b5f6100fb6101936101dd565b546001600160a01b031690565b61011d6101ab6101dd565b610369565b6101126101bb6101dd565b82610403565b5f6100fb6101cd6101dd565b600101546001600160a01b031690565b7f552e522d4f9b6a3d443b47299f900b7b1bce2dacca532b0186b605495413451d90565b60018101545f90600160a01b900460ff1661021d57505f919050565b50600101546001600160a01b031690565b81546001600160a01b0316338114610264573360405163245aecd360e01b815260040161025b9190610497565b60405180910390fd5b826003015442101561029857600383015460405163d64ede7360e01b8152426004820152602481019190915260440161025b565b60018301546001600160a01b0390811690831681146102cc578260405163a7fa19b160e01b815260040161025b9190610497565b60018401805460ff60a01b198116600160a01b179091556040516001600160a01b03918216918416907f646fe5eeb20d96ea45a9caafcb508854a2fb5660885ced7772e12a633c974571905f90a350505050565b80546001600160a01b031633811461034d573360405163245aecd360e01b815260040161025b9190610497565b506001810180546001600160a81b03191690555f600390910155565b60018101546001600160a01b0316338114610399573360405163a7fa19b160e01b815260040161025b9190610497565b81546001600160a01b038281166001600160a01b03198316811785556001850180546001600160a81b03191690555f600386018190556040519290931692909183917f8be0079c531659141344cd1fd0a4f28419497f9722a3daafe3b4186f6b6457e091a3505050565b81546001600160a01b0316338114610430573360405163245aecd360e01b815260040161025b9190610497565b600283015461043f90426104d8565b60038401556001830180546001600160a01b0319166001600160a01b0384811691821790925560405190918316907fb150023a879fd806e3599b6ca8ee3b60f0e360ab3846d128d67ebce1a391639a905f90a3505050565b6001600160a01b0391909116815260200190565b5f602082840312156104bb575f5ffd5b81356001600160a01b03811681146104d1575f5ffd5b9392505050565b808201808211156104f757634e487b7160e01b5f52601160045260245ffd5b9291505056fea2646970667358221220e8705375face43115b12ef03a9a1290351179c1e0609309d1282144a5a822b7c64736f6c634300081e0033","linkReferences":{}},"methodIdentifiers":{"acceptOwnershipTransfer()":"b842e87f","cancelPendingOwnershipTransfer()":"737293e2","confirmOwnershipTransfer(address)":"3c213957","getOwnershipTransferBuffer()":"0f9f2530","initiateOwnershipTransfer(address)":"c0b6f561","owner()":"8da5cb5b","pendingOwner()":"e30c3978","preConfirmedOwner()":"1af1b0c4"},"id":9}