{"abi":[{"type":"function","name":"addLiquidity","inputs":[{"name":"params","type":"tuple","internalType":"struct AddLiquidityParams","components":[{"name":"pool","type":"address","internalType":"address"},{"name":"to","type":"address","internalType":"address"},{"name":"maxAmountsIn","type":"uint256[]","internalType":"uint256[]"},{"name":"minBptAmountOut","type":"uint256","internalType":"uint256"},{"name":"kind","type":"uint8","internalType":"enum AddLiquidityKind"},{"name":"userData","type":"bytes","internalType":"bytes"}]}],"outputs":[{"name":"amountsIn","type":"uint256[]","internalType":"uint256[]"},{"name":"bptAmountOut","type":"uint256","internalType":"uint256"},{"name":"returnData","type":"bytes","internalType":"bytes"}],"stateMutability":"nonpayable"},{"type":"function","name":"facetFuncs","inputs":[],"outputs":[{"name":"funcs","type":"bytes4[]","internalType":"bytes4[]"}],"stateMutability":"pure"},{"type":"function","name":"facetInterfaces","inputs":[],"outputs":[{"name":"interfaces","type":"bytes4[]","internalType":"bytes4[]"}],"stateMutability":"pure"},{"type":"function","name":"facetMetadata","inputs":[],"outputs":[{"name":"name_","type":"string","internalType":"string"},{"name":"interfaces","type":"bytes4[]","internalType":"bytes4[]"},{"name":"functions","type":"bytes4[]","internalType":"bytes4[]"}],"stateMutability":"pure"},{"type":"function","name":"facetName","inputs":[],"outputs":[{"name":"name","type":"string","internalType":"string"}],"stateMutability":"pure"},{"type":"function","name":"removeLiquidity","inputs":[{"name":"params","type":"tuple","internalType":"struct RemoveLiquidityParams","components":[{"name":"pool","type":"address","internalType":"address"},{"name":"from","type":"address","internalType":"address"},{"name":"maxBptAmountIn","type":"uint256","internalType":"uint256"},{"name":"minAmountsOut","type":"uint256[]","internalType":"uint256[]"},{"name":"kind","type":"uint8","internalType":"enum RemoveLiquidityKind"},{"name":"userData","type":"bytes","internalType":"bytes"}]}],"outputs":[{"name":"bptAmountIn","type":"uint256","internalType":"uint256"},{"name":"amountsOut","type":"uint256[]","internalType":"uint256[]"},{"name":"returnData","type":"bytes","internalType":"bytes"}],"stateMutability":"nonpayable"},{"type":"event","name":"AggregateSwapFeePercentageChanged","inputs":[{"name":"pool","type":"address","indexed":true,"internalType":"address"},{"name":"aggregateSwapFeePercentage","type":"uint256","indexed":false,"internalType":"uint256"}],"anonymous":false},{"type":"event","name":"AggregateYieldFeePercentageChanged","inputs":[{"name":"pool","type":"address","indexed":true,"internalType":"address"},{"name":"aggregateYieldFeePercentage","type":"uint256","indexed":false,"internalType":"uint256"}],"anonymous":false},{"type":"event","name":"Approval","inputs":[{"name":"pool","type":"address","indexed":true,"internalType":"address"},{"name":"owner","type":"address","indexed":true,"internalType":"address"},{"name":"spender","type":"address","indexed":true,"internalType":"address"},{"name":"value","type":"uint256","indexed":false,"internalType":"uint256"}],"anonymous":false},{"type":"event","name":"AuthorizerChanged","inputs":[{"name":"newAuthorizer","type":"address","indexed":true,"internalType":"contract IAuthorizer"}],"anonymous":false},{"type":"event","name":"BufferSharesBurned","inputs":[{"name":"wrappedToken","type":"address","indexed":true,"internalType":"contract IERC4626"},{"name":"from","type":"address","indexed":true,"internalType":"address"},{"name":"burnedShares","type":"uint256","indexed":false,"internalType":"uint256"}],"anonymous":false},{"type":"event","name":"BufferSharesMinted","inputs":[{"name":"wrappedToken","type":"address","indexed":true,"internalType":"contract IERC4626"},{"name":"to","type":"address","indexed":true,"internalType":"address"},{"name":"issuedShares","type":"uint256","indexed":false,"internalType":"uint256"}],"anonymous":false},{"type":"event","name":"LiquidityAdded","inputs":[{"name":"pool","type":"address","indexed":true,"internalType":"address"},{"name":"liquidityProvider","type":"address","indexed":true,"internalType":"address"},{"name":"kind","type":"uint8","indexed":true,"internalType":"enum AddLiquidityKind"},{"name":"totalSupply","type":"uint256","indexed":false,"internalType":"uint256"},{"name":"amountsAddedRaw","type":"uint256[]","indexed":false,"internalType":"uint256[]"},{"name":"swapFeeAmountsRaw","type":"uint256[]","indexed":false,"internalType":"uint256[]"}],"anonymous":false},{"type":"event","name":"LiquidityAddedToBuffer","inputs":[{"name":"wrappedToken","type":"address","indexed":true,"internalType":"contract IERC4626"},{"name":"amountUnderlying","type":"uint256","indexed":false,"internalType":"uint256"},{"name":"amountWrapped","type":"uint256","indexed":false,"internalType":"uint256"},{"name":"bufferBalances","type":"bytes32","indexed":false,"internalType":"bytes32"}],"anonymous":false},{"type":"event","name":"LiquidityRemoved","inputs":[{"name":"pool","type":"address","indexed":true,"internalType":"address"},{"name":"liquidityProvider","type":"address","indexed":true,"internalType":"address"},{"name":"kind","type":"uint8","indexed":true,"internalType":"enum RemoveLiquidityKind"},{"name":"totalSupply","type":"uint256","indexed":false,"internalType":"uint256"},{"name":"amountsRemovedRaw","type":"uint256[]","indexed":false,"internalType":"uint256[]"},{"name":"swapFeeAmountsRaw","type":"uint256[]","indexed":false,"internalType":"uint256[]"}],"anonymous":false},{"type":"event","name":"LiquidityRemovedFromBuffer","inputs":[{"name":"wrappedToken","type":"address","indexed":true,"internalType":"contract IERC4626"},{"name":"amountUnderlying","type":"uint256","indexed":false,"internalType":"uint256"},{"name":"amountWrapped","type":"uint256","indexed":false,"internalType":"uint256"},{"name":"bufferBalances","type":"bytes32","indexed":false,"internalType":"bytes32"}],"anonymous":false},{"type":"event","name":"PoolInitialized","inputs":[{"name":"pool","type":"address","indexed":true,"internalType":"address"}],"anonymous":false},{"type":"event","name":"PoolPausedStateChanged","inputs":[{"name":"pool","type":"address","indexed":true,"internalType":"address"},{"name":"paused","type":"bool","indexed":false,"internalType":"bool"}],"anonymous":false},{"type":"event","name":"PoolRecoveryModeStateChanged","inputs":[{"name":"pool","type":"address","indexed":true,"internalType":"address"},{"name":"recoveryMode","type":"bool","indexed":false,"internalType":"bool"}],"anonymous":false},{"type":"event","name":"PoolRegistered","inputs":[{"name":"pool","type":"address","indexed":true,"internalType":"address"},{"name":"factory","type":"address","indexed":true,"internalType":"address"},{"name":"tokenConfig","type":"tuple[]","indexed":false,"internalType":"struct TokenConfig[]","components":[{"name":"token","type":"address","internalType":"contract IERC20"},{"name":"tokenType","type":"uint8","internalType":"enum TokenType"},{"name":"rateProvider","type":"address","internalType":"contract IRateProvider"},{"name":"paysYieldFees","type":"bool","internalType":"bool"}]},{"name":"swapFeePercentage","type":"uint256","indexed":false,"internalType":"uint256"},{"name":"pauseWindowEndTime","type":"uint32","indexed":false,"internalType":"uint32"},{"name":"roleAccounts","type":"tuple","indexed":false,"internalType":"struct PoolRoleAccounts","components":[{"name":"pauseManager","type":"address","internalType":"address"},{"name":"swapFeeManager","type":"address","internalType":"address"},{"name":"poolCreator","type":"address","internalType":"address"}]},{"name":"hooksConfig","type":"tuple","indexed":false,"internalType":"struct HooksConfig","components":[{"name":"enableHookAdjustedAmounts","type":"bool","internalType":"bool"},{"name":"shouldCallBeforeInitialize","type":"bool","internalType":"bool"},{"name":"shouldCallAfterInitialize","type":"bool","internalType":"bool"},{"name":"shouldCallComputeDynamicSwapFee","type":"bool","internalType":"bool"},{"name":"shouldCallBeforeSwap","type":"bool","internalType":"bool"},{"name":"shouldCallAfterSwap","type":"bool","internalType":"bool"},{"name":"shouldCallBeforeAddLiquidity","type":"bool","internalType":"bool"},{"name":"shouldCallAfterAddLiquidity","type":"bool","internalType":"bool"},{"name":"shouldCallBeforeRemoveLiquidity","type":"bool","internalType":"bool"},{"name":"shouldCallAfterRemoveLiquidity","type":"bool","internalType":"bool"},{"name":"hooksContract","type":"address","internalType":"address"}]},{"name":"liquidityManagement","type":"tuple","indexed":false,"internalType":"struct LiquidityManagement","components":[{"name":"disableUnbalancedLiquidity","type":"bool","internalType":"bool"},{"name":"enableAddLiquidityCustom","type":"bool","internalType":"bool"},{"name":"enableRemoveLiquidityCustom","type":"bool","internalType":"bool"},{"name":"enableDonation","type":"bool","internalType":"bool"}]}],"anonymous":false},{"type":"event","name":"ProtocolFeeControllerChanged","inputs":[{"name":"newProtocolFeeController","type":"address","indexed":true,"internalType":"contract IProtocolFeeController"}],"anonymous":false},{"type":"event","name":"Swap","inputs":[{"name":"pool","type":"address","indexed":true,"internalType":"address"},{"name":"tokenIn","type":"address","indexed":true,"internalType":"contract IERC20"},{"name":"tokenOut","type":"address","indexed":true,"internalType":"contract IERC20"},{"name":"amountIn","type":"uint256","indexed":false,"internalType":"uint256"},{"name":"amountOut","type":"uint256","indexed":false,"internalType":"uint256"},{"name":"swapFeePercentage","type":"uint256","indexed":false,"internalType":"uint256"},{"name":"swapFeeAmount","type":"uint256","indexed":false,"internalType":"uint256"}],"anonymous":false},{"type":"event","name":"SwapFeePercentageChanged","inputs":[{"name":"pool","type":"address","indexed":true,"internalType":"address"},{"name":"swapFeePercentage","type":"uint256","indexed":false,"internalType":"uint256"}],"anonymous":false},{"type":"event","name":"Transfer","inputs":[{"name":"pool","type":"address","indexed":true,"internalType":"address"},{"name":"from","type":"address","indexed":true,"internalType":"address"},{"name":"to","type":"address","indexed":true,"internalType":"address"},{"name":"value","type":"uint256","indexed":false,"internalType":"uint256"}],"anonymous":false},{"type":"event","name":"Unwrap","inputs":[{"name":"wrappedToken","type":"address","indexed":true,"internalType":"contract IERC4626"},{"name":"burnedShares","type":"uint256","indexed":false,"internalType":"uint256"},{"name":"withdrawnUnderlying","type":"uint256","indexed":false,"internalType":"uint256"},{"name":"bufferBalances","type":"bytes32","indexed":false,"internalType":"bytes32"}],"anonymous":false},{"type":"event","name":"VaultAuxiliary","inputs":[{"name":"pool","type":"address","indexed":true,"internalType":"address"},{"name":"eventKey","type":"bytes32","indexed":true,"internalType":"bytes32"},{"name":"eventData","type":"bytes","indexed":false,"internalType":"bytes"}],"anonymous":false},{"type":"event","name":"VaultBuffersPausedStateChanged","inputs":[{"name":"paused","type":"bool","indexed":false,"internalType":"bool"}],"anonymous":false},{"type":"event","name":"VaultPausedStateChanged","inputs":[{"name":"paused","type":"bool","indexed":false,"internalType":"bool"}],"anonymous":false},{"type":"event","name":"VaultQueriesDisabled","inputs":[],"anonymous":false},{"type":"event","name":"VaultQueriesEnabled","inputs":[],"anonymous":false},{"type":"event","name":"Wrap","inputs":[{"name":"wrappedToken","type":"address","indexed":true,"internalType":"contract IERC4626"},{"name":"depositedUnderlying","type":"uint256","indexed":false,"internalType":"uint256"},{"name":"mintedShares","type":"uint256","indexed":false,"internalType":"uint256"},{"name":"bufferBalances","type":"bytes32","indexed":false,"internalType":"bytes32"}],"anonymous":false},{"type":"error","name":"AfterAddLiquidityHookFailed","inputs":[]},{"type":"error","name":"AfterInitializeHookFailed","inputs":[]},{"type":"error","name":"AfterRemoveLiquidityHookFailed","inputs":[]},{"type":"error","name":"AfterSwapHookFailed","inputs":[]},{"type":"error","name":"AllZeroInputs","inputs":[]},{"type":"error","name":"AmountGivenZero","inputs":[]},{"type":"error","name":"AmountInAboveMax","inputs":[{"name":"tokenIn","type":"address","internalType":"contract IERC20"},{"name":"amountIn","type":"uint256","internalType":"uint256"},{"name":"maxAmountIn","type":"uint256","internalType":"uint256"}]},{"type":"error","name":"AmountOutBelowMin","inputs":[{"name":"tokenOut","type":"address","internalType":"contract IERC20"},{"name":"amountOut","type":"uint256","internalType":"uint256"},{"name":"minAmountOut","type":"uint256","internalType":"uint256"}]},{"type":"error","name":"BalanceNotSettled","inputs":[]},{"type":"error","name":"BalanceOverflow","inputs":[]},{"type":"error","name":"BeforeAddLiquidityHookFailed","inputs":[]},{"type":"error","name":"BeforeInitializeHookFailed","inputs":[]},{"type":"error","name":"BeforeRemoveLiquidityHookFailed","inputs":[]},{"type":"error","name":"BeforeSwapHookFailed","inputs":[]},{"type":"error","name":"BptAmountInAboveMax","inputs":[{"name":"amountIn","type":"uint256","internalType":"uint256"},{"name":"maxAmountIn","type":"uint256","internalType":"uint256"}]},{"type":"error","name":"BptAmountOutBelowMin","inputs":[{"name":"amountOut","type":"uint256","internalType":"uint256"},{"name":"minAmountOut","type":"uint256","internalType":"uint256"}]},{"type":"error","name":"BufferAlreadyInitialized","inputs":[{"name":"wrappedToken","type":"address","internalType":"contract IERC4626"}]},{"type":"error","name":"BufferNotInitialized","inputs":[{"name":"wrappedToken","type":"address","internalType":"contract IERC4626"}]},{"type":"error","name":"BufferSharesInvalidOwner","inputs":[]},{"type":"error","name":"BufferSharesInvalidReceiver","inputs":[]},{"type":"error","name":"BufferTotalSupplyTooLow","inputs":[{"name":"totalSupply","type":"uint256","internalType":"uint256"}]},{"type":"error","name":"CannotReceiveEth","inputs":[]},{"type":"error","name":"CannotSwapSameToken","inputs":[]},{"type":"error","name":"DoesNotSupportAddLiquidityCustom","inputs":[]},{"type":"error","name":"DoesNotSupportDonation","inputs":[]},{"type":"error","name":"DoesNotSupportRemoveLiquidityCustom","inputs":[]},{"type":"error","name":"DoesNotSupportUnbalancedLiquidity","inputs":[]},{"type":"error","name":"DynamicSwapFeeHookFailed","inputs":[]},{"type":"error","name":"ERC20InsufficientAllowance","inputs":[{"name":"spender","type":"address","internalType":"address"},{"name":"allowance","type":"uint256","internalType":"uint256"},{"name":"needed","type":"uint256","internalType":"uint256"}]},{"type":"error","name":"ERC20InsufficientBalance","inputs":[{"name":"sender","type":"address","internalType":"address"},{"name":"balance","type":"uint256","internalType":"uint256"},{"name":"needed","type":"uint256","internalType":"uint256"}]},{"type":"error","name":"ERC20InvalidApprover","inputs":[{"name":"approver","type":"address","internalType":"address"}]},{"type":"error","name":"ERC20InvalidReceiver","inputs":[{"name":"receiver","type":"address","internalType":"address"}]},{"type":"error","name":"ERC20InvalidSender","inputs":[{"name":"sender","type":"address","internalType":"address"}]},{"type":"error","name":"ERC20InvalidSpender","inputs":[{"name":"spender","type":"address","internalType":"address"}]},{"type":"error","name":"FeePrecisionTooHigh","inputs":[]},{"type":"error","name":"HookAdjustedAmountInAboveMax","inputs":[{"name":"tokenIn","type":"address","internalType":"contract IERC20"},{"name":"amountIn","type":"uint256","internalType":"uint256"},{"name":"maxAmountIn","type":"uint256","internalType":"uint256"}]},{"type":"error","name":"HookAdjustedAmountOutBelowMin","inputs":[{"name":"tokenOut","type":"address","internalType":"contract IERC20"},{"name":"amountOut","type":"uint256","internalType":"uint256"},{"name":"minAmountOut","type":"uint256","internalType":"uint256"}]},{"type":"error","name":"HookAdjustedSwapLimit","inputs":[{"name":"amount","type":"uint256","internalType":"uint256"},{"name":"limit","type":"uint256","internalType":"uint256"}]},{"type":"error","name":"HookRegistrationFailed","inputs":[{"name":"poolHooksContract","type":"address","internalType":"address"},{"name":"pool","type":"address","internalType":"address"},{"name":"poolFactory","type":"address","internalType":"address"}]},{"type":"error","name":"InputLengthMismatch","inputs":[]},{"type":"error","name":"InvalidAddLiquidityKind","inputs":[]},{"type":"error","name":"InvalidRemoveLiquidityKind","inputs":[]},{"type":"error","name":"InvalidToken","inputs":[]},{"type":"error","name":"InvalidTokenConfiguration","inputs":[]},{"type":"error","name":"InvalidTokenDecimals","inputs":[]},{"type":"error","name":"InvalidTokenType","inputs":[]},{"type":"error","name":"InvalidUnderlyingToken","inputs":[{"name":"wrappedToken","type":"address","internalType":"contract IERC4626"}]},{"type":"error","name":"InvariantRatioAboveMax","inputs":[{"name":"invariantRatio","type":"uint256","internalType":"uint256"},{"name":"maxInvariantRatio","type":"uint256","internalType":"uint256"}]},{"type":"error","name":"InvariantRatioBelowMin","inputs":[{"name":"invariantRatio","type":"uint256","internalType":"uint256"},{"name":"minInvariantRatio","type":"uint256","internalType":"uint256"}]},{"type":"error","name":"IssuedSharesBelowMin","inputs":[{"name":"issuedShares","type":"uint256","internalType":"uint256"},{"name":"minIssuedShares","type":"uint256","internalType":"uint256"}]},{"type":"error","name":"MaxTokens","inputs":[]},{"type":"error","name":"MinTokens","inputs":[]},{"type":"error","name":"MultipleNonZeroInputs","inputs":[]},{"type":"error","name":"NotEnoughBufferShares","inputs":[]},{"type":"error","name":"NotEnoughUnderlying","inputs":[{"name":"wrappedToken","type":"address","internalType":"contract IERC4626"},{"name":"expectedUnderlyingAmount","type":"uint256","internalType":"uint256"},{"name":"actualUnderlyingAmount","type":"uint256","internalType":"uint256"}]},{"type":"error","name":"NotEnoughWrapped","inputs":[{"name":"wrappedToken","type":"address","internalType":"contract IERC4626"},{"name":"expectedWrappedAmount","type":"uint256","internalType":"uint256"},{"name":"actualWrappedAmount","type":"uint256","internalType":"uint256"}]},{"type":"error","name":"NotStaticCall","inputs":[]},{"type":"error","name":"NotVaultDelegateCall","inputs":[]},{"type":"error","name":"PauseBufferPeriodDurationTooLarge","inputs":[]},{"type":"error","name":"PercentageAboveMax","inputs":[]},{"type":"error","name":"PoolAlreadyInitialized","inputs":[{"name":"pool","type":"address","internalType":"address"}]},{"type":"error","name":"PoolAlreadyRegistered","inputs":[{"name":"pool","type":"address","internalType":"address"}]},{"type":"error","name":"PoolInRecoveryMode","inputs":[{"name":"pool","type":"address","internalType":"address"}]},{"type":"error","name":"PoolNotInRecoveryMode","inputs":[{"name":"pool","type":"address","internalType":"address"}]},{"type":"error","name":"PoolNotInitialized","inputs":[{"name":"pool","type":"address","internalType":"address"}]},{"type":"error","name":"PoolNotPaused","inputs":[{"name":"pool","type":"address","internalType":"address"}]},{"type":"error","name":"PoolNotRegistered","inputs":[{"name":"pool","type":"address","internalType":"address"}]},{"type":"error","name":"PoolPauseWindowExpired","inputs":[{"name":"pool","type":"address","internalType":"address"}]},{"type":"error","name":"PoolPaused","inputs":[{"name":"pool","type":"address","internalType":"address"}]},{"type":"error","name":"PoolTotalSupplyTooLow","inputs":[{"name":"totalSupply","type":"uint256","internalType":"uint256"}]},{"type":"error","name":"ProtocolFeesExceedTotalCollected","inputs":[]},{"type":"error","name":"QueriesDisabled","inputs":[]},{"type":"error","name":"QueriesDisabledPermanently","inputs":[]},{"type":"error","name":"QuoteResultSpoofed","inputs":[]},{"type":"error","name":"ReentrancyGuardReentrantCall","inputs":[]},{"type":"error","name":"RouterNotTrusted","inputs":[]},{"type":"error","name":"SenderIsNotVault","inputs":[{"name":"sender","type":"address","internalType":"address"}]},{"type":"error","name":"SwapFeePercentageTooHigh","inputs":[]},{"type":"error","name":"SwapFeePercentageTooLow","inputs":[]},{"type":"error","name":"SwapLimit","inputs":[{"name":"amount","type":"uint256","internalType":"uint256"},{"name":"limit","type":"uint256","internalType":"uint256"}]},{"type":"error","name":"TokenAlreadyRegistered","inputs":[{"name":"token","type":"address","internalType":"contract IERC20"}]},{"type":"error","name":"TokenNotRegistered","inputs":[{"name":"token","type":"address","internalType":"contract IERC20"}]},{"type":"error","name":"TokensMismatch","inputs":[{"name":"pool","type":"address","internalType":"address"},{"name":"expectedToken","type":"address","internalType":"address"},{"name":"actualToken","type":"address","internalType":"address"}]},{"type":"error","name":"TradeAmountTooSmall","inputs":[]},{"type":"error","name":"VaultBuffersArePaused","inputs":[]},{"type":"error","name":"VaultIsNotUnlocked","inputs":[]},{"type":"error","name":"VaultNotPaused","inputs":[]},{"type":"error","name":"VaultPauseWindowDurationTooLarge","inputs":[]},{"type":"error","name":"VaultPauseWindowExpired","inputs":[]},{"type":"error","name":"VaultPaused","inputs":[]},{"type":"error","name":"WrapAmountTooSmall","inputs":[{"name":"wrappedToken","type":"address","internalType":"contract IERC4626"}]},{"type":"error","name":"WrongProtocolFeeControllerDeployment","inputs":[]},{"type":"error","name":"WrongUnderlyingToken","inputs":[{"name":"wrappedToken","type":"address","internalType":"contract IERC4626"},{"name":"underlyingToken","type":"address","internalType":"address"}]},{"type":"error","name":"WrongVaultAdminDeployment","inputs":[]},{"type":"error","name":"WrongVaultExtensionDeployment","inputs":[]},{"type":"error","name":"ZeroDivision","inputs":[]}],"bytecode":{"object":"0x6080604052348015600e575f5ffd5b506150d98061001c5f395ff3fe608060405234801561000f575f5ffd5b5060043610610060575f3560e01c806321457897146100645780632ea808261461008f5780634af29ec4146100a4578063574a4cff146100c65780635b6f4d01146100ce578063f10d7a75146100e3575b5f5ffd5b610077610072366004614620565b6100fa565b60405161008693929190614759565b60405180910390f35b610097610256565b60405161008691906147c7565b6100b76100b23660046147e7565b6102ae565b60405161008693929190614881565b61009761042d565b6100d661049e565b60405161008691906148ab565b6100eb6104cb565b604051610086939291906148bd565b5f6060806101066104f3565b835161011181610538565b845161011c9061056c565b5f61012561057d565b90505f610136875f015160016105a6565b905061014c816020015151886060015151610681565b60c081015160a082015160608901515f92610166926106a5565b9050610174825f0151610797565b156101ec5787516001600160a01b039081165f9081526005850160205260409020546101a891839133918c91879116610857565b87516001600160a01b03165f90815260088401602052604090206101cf9083906001610909565b60c082015160a083015160608a01516101e99290916106a5565b90505b60606101f9838a84610999565b8651939b50919950909750915061020f906110bf565b1561024a5788516001600160a01b039081165f90815260058601602052604090205484519116906102469033848b8d8f8a886110d9565b9750505b50505050509193909250565b60408051600180825281830190925260609160208083019080368337019050509050630561131960e31b815f81518110610292576102926148f5565b6001600160e01b03199092166020928302919091019091015290565b60605f60606102bb6104f3565b83516102c681610538565b84516102d19061056c565b6102f76102e36102df611289565b5c90565b865160016102ef6112ad565b9291906112d1565b5f61030061057d565b90505f610310875f01515f6105a6565b9050610326816020015151886040015151610681565b60c081015160a082015160408901515f92610340926112fb565b905061034e825f01516113e3565b156103c55787516001600160a01b039081165f90815260058501602052604090205461038291339184918c918791166113f2565b87516001600160a01b03165f90815260088401602052604081206103a891849190610909565b60c082015160a083015160408a01516103c29290916112fb565b90505b60606103d2838a8461149d565b8651939b50909950975091506103e790611a8d565b1561024a5788516001600160a01b039081165f908152600586016020526040902054845191169061041e9033848c8c8f8a88611a9c565b98505050505050509193909250565b6040805160028082526060808301845292602083019080368337019050509050634af29ec460e01b815f81518110610467576104676148f5565b6001600160e01b0319909216602092830291909101909101528051632145789760e01b9082906001908110610292576102926148f5565b60408051808201909152601381527215985d5b1d131a5c5d5a591a5d1e519858d95d606a1b602082015290565b60608060606104d861049e565b92506104e2610256565b91506104ec61042d565b9050909192565b7f1369d017453f080f2416efe5ae39c8a4b4655ea0634227aaab0afdb9a9f93f005c15155f036105365760405163604dd39b60e11b815260040160405180910390fd5b565b61054181611c3b565b6105695780604051634bdace1360e01b81526004016105609190614909565b60405180910390fd5b50565b610574611c4d565b61056981611c73565b7f867cc37b1d81c6898e0381d9834d1320e6a009ceb8f1f455820783856710c6b590565b905090565b6105e56040518060e001604052805f81526020016060815260200160608152602001606081526020016060815260200160608152602001606081525090565b6105ed611c9c565b5f6105f661057d565b6001600160a01b0385165f9081526008820160209081526040808320600385018352818420546007860184528285206006870190945291909320939450610641938693929088611ce1565b6001600160a01b0384165f90815260088201602090815260408083206009850190925290912061067291849161209d565b5061067b6121ef565b92915050565b8082146106a15760405163aaad13f760e01b815260040160405180910390fd5b5050565b60605f845190506106b98185518551612206565b5f816001600160401b038111156106d2576106d261449b565b6040519080825280602002602001820160405280156106fb578160200160208202803683370190505b5090505f5b8281101561078d5761076886828151811061071d5761071d6148f5565b6020026020010151868381518110610737576107376148f5565b6020026020010151898481518110610751576107516148f5565b60200260200101516122389092919063ffffffff16565b82828151811061077a5761077a6148f5565b6020908102919091010152600101610700565b5095945050505050565b5f61067b6107a6826001614931565b6107b1906001614931565b6107bc906001614931565b6107c7906001614931565b6107d2906001614931565b6107dd906001614931565b6107e8906001614931565b6107f3906001614931565b6107fe906001614931565b610809906001614931565b610814906001614931565b61081f906001614931565b61082a906001614931565b610835906001614931565b610840906001614931565b61084b906001614931565b839060ff161c60011690565b82516080808501516040808701519286015160a088015191516302e97e7d60e61b81526001600160a01b0387169563ba5f9f40956108a1958c959294909391928e92600401614972565b6020604051808303815f875af11580156108bd573d5f5f3e3d5ffd5b505050506040513d601f19601f820116820180604052508101906108e191906149f1565b15155f0361090257604051631557c43360e11b815260040160405180910390fd5b5050505050565b6020830151515f805b828110156109915761094086604001518281518110610933576109336148f5565b6020026020010151612255565b8660a001518281518110610956576109566148f5565b602002602001018181525050845f8281526020019081526020015f20549150610989868261098385612324565b87612330565b600101610912565b505050505050565b5f60608060606109a7611c9c565b6109af614475565b6020880151518082526001600160401b038111156109cf576109cf61449b565b6040519080825280602002602001820160405280156109f8578160200160208202803683370190505b50935060605f88608001516003811115610a1457610a1461494a565b03610b5d57604088015182519096506001600160401b03811115610a3a57610a3a61449b565b604051908082528060200260200182016040528015610a63578160200160208202803683370190505b509050610a808960800151610a7a8a5f01516123ed565b88612418565b9350610aa1610a906102df611289565b8951610a9a6112ad565b91906124c7565b15610b58575f610ab38a5f01516124dc565b90505f5b8351811015610b5557610aec82878381518110610ad657610ad66148f5565b60200260200101516125c290919063ffffffff16565b838281518110610afe57610afe6148f5565b602002602001018181525050828181518110610b1c57610b1c6148f5565b6020026020010151868281518110610b3657610b366148f5565b60200260200101818151610b4a9190614a0a565b905250600101610ab7565b50505b610da1565b600188608001516003811115610b7557610b7561494a565b03610bf7578851610b85906125ee565b87604001519550869350610b9c8860600151612618565b6040830181905260808a01518951610bcc92908990610bba906123ed565b8d51610bc5906124dc565b8d51612692565b85846040015181518110610be257610be26148f5565b60200260200101819350828152505050610da1565b600288608001516003811115610c0f57610c0f61494a565b03610ccb578851610c1f906125ee565b869350610c2f8860600151612618565b60408301819052606089015180519091908110610c4e57610c4e6148f5565b602002602001015185836040015181518110610c6c57610c6c6148f5565b602002602001018181525050610cc18960800151836040015186856040015181518110610c9b57610c9b6148f5565b6020026020010151610caf8c5f01516123ed565b8d51610cba906124dc565b8d5161281f565b9096509050610da1565b600388608001516003811115610ce357610ce361494a565b03610d88578851610cf390612b9f565b87516040808a015160808c015160a08c01519251632ada38a360e21b81526001600160a01b039094169363ab68e28c93610d3693339390928e9290600401614a1d565b5f604051808303815f875af1158015610d51573d5f5f3e3d5ffd5b505050506040513d5f823e601f3d908101601f19168201604052610d789190810190614b11565b9298509095509093509050610da1565b60405163137a9a3960e01b815260040160405180910390fd5b8760400151861115610dce578588604001516040516331d38e0b60e01b8152600401610560929190614bab565b610dd786612bc9565b5f5b8251811015610fe4575f5f868381518110610df657610df66148f5565b60200260200101519050610e0981612bc9565b878381518110610e1b57610e1b6148f5565b60200260200101515f03610e9e57610e788c60c001518481518110610e4257610e426148f5565b60200260200101518d60a001518581518110610e6057610e606148f5565b602002602001015183612bfc9092919063ffffffff16565b915081888481518110610e8d57610e8d6148f5565b602002602001018181525050610ebb565b878381518110610eb057610eb06148f5565b602002602001015191505b505f8b602001518381518110610ed357610ed36148f5565b602002602001015190508a606001518381518110610ef357610ef36148f5565b6020026020010151821015610f3e5780828c606001518581518110610f1a57610f1a6148f5565b60200260200101516040516317bc2f2360e11b815260040161056093929190614bb9565b610f488183612c10565b610f718c858581518110610f5e57610f5e6148f5565b60200260200101518d5f01518487612c2b565b858581518110610f8357610f836148f5565b602089810193845290810291909101019190915251610fda908490610fa89085614bda565b8e606001518681518110610fbe57610fbe6148f5565b6020026020010151610fd09190614a0a565b8e91906001612330565b5050600101610dd9565b508751610ff1908a612d16565b611004885f015189602001513389612d7e565b61100c612d92565b1561102357611023885f0151896020015188612db2565b611035885f0151896020015188612dc5565b8760800151600381111561104b5761104b61494a565b88602001516001600160a01b0316895f01516001600160a01b03167ffbe5b0d79fb94f1e81c0a92bf86ae9d3a19e9d1bf6202c0d3e75120f65d5d8a56110938c5f01516123ed565b89866040516110a493929190614bed565b60405180910390a450506110b66121ef565b93509350935093565b5f61067b6110ce826001614931565b6107a6906001614931565b60605f5f836001600160a01b0316632754888d8b885f015189608001518b8e8e8c608001518e60a001516040518963ffffffff1660e01b8152600401611126989796959493929190614c17565b5f604051808303815f875af1158015611141573d5f5f3e3d5ffd5b505050506040513d5f823e601f3d908101601f191682016040526111689190810190614c9e565b909250905081158061117c57508751815114155b1561119a576040516303a6723b60e31b815260040160405180910390fd5b6111a38b612dd8565b15155f036111b557879250505061127d565b5f5b815181101561127857866060015181815181106111d6576111d66148f5565b60200260200101518282815181106111f0576111f06148f5565b602002602001015110156112705785602001518181518110611214576112146148f5565b602002602001015182828151811061122e5761122e6148f5565b60200260200101518860600151838151811061124c5761124c6148f5565b6020026020010151604051633ef629c960e21b815260040161056093929190614bb9565b6001016111b7565b509150505b98975050505050505050565b7fa33ab5ae38c334f99ce8d4a88c1634397ed0415a9df15c29dfd3914852f2990090565b7f3db93ac236d7287d4b8c711cce6b3cca52815a3bd1fc0fcef99ab26afea5d20090565b6112f5816112ef6112ec856112e68989612de7565b90612de7565b90565b90612df8565b50505050565b60605f8451905061130f8185518551612206565b5f816001600160401b038111156113285761132861449b565b604051908082528060200260200182016040528015611351578160200160208202803683370190505b5090505f5b8281101561078d576113be868281518110611373576113736148f5565b602002602001015186838151811061138d5761138d6148f5565b60200260200101518984815181106113a7576113a76148f5565b6020026020010151612dff9092919063ffffffff16565b8282815181106113d0576113d06148f5565b6020908102919091010152600101611356565b5f61067b6107bc826001614931565b825160808085015160608601519185015160a08701516040516345421ec760e01b81526001600160a01b038716956345421ec79561143c958d95929490938d939190600401614cf9565b6020604051808303815f875af1158015611458573d5f5f3e3d5ffd5b505050506040513d601f19601f8201168201806040525081019061147c91906149f1565b15155f03610902576040516305975b2960e11b815260040160405180910390fd5b6060805f60606114ab611c9c565b6114b3614475565b6020880151518082526001600160401b038111156114d3576114d361449b565b6040519080825280602002602001820160405280156114fc578160200160208202803683370190505b50945060605f886080015160048111156115185761151861494a565b0361158b57606088015182519094506001600160401b0381111561153e5761153e61449b565b604051908082528060200260200182016040528015611567578160200160208202803683370190505b509050611584896080015161157e8a5f01516123ed565b86612e14565b94506117d6565b6003886080015160048111156115a3576115a361494a565b036116035788516115b390612eb9565b86516001600160401b038111156115cc576115cc61449b565b6040519080825280602002602001820160405280156115f5578160200160208202803683370190505b5090505f93508694506117d6565b60018860800151600481111561161b5761161b61494a565b0361166d57885161162b906125ee565b86945061163c886040015187612ee3565b6116638960800151886116518b5f01516123ed565b8c5161165c906124dc565b8c51612f04565b90945090506117d6565b6002886080015160048111156116855761168561494a565b03611703578851611695906125ee565b876060015193506116a587612618565b6040830181905260808a015189518997506116d8929087906116c6906123ed565b8d516116d1906124dc565b8d516132b8565b868460400151815181106116ee576116ee6148f5565b602002602001018193508281525050506117d6565b60048860800151600481111561171b5761171b61494a565b036117bd57885161172b9061344c565b8751606089015160808b015160a08b015160405163e4c4366360e01b81526001600160a01b039094169363e4c436639361176b9333938e93600401614d47565b5f604051808303815f875af1158015611786573d5f5f3e3d5ffd5b505050506040513d5f823e601f3d908101601f191682016040526117ad9190810190614d82565b92975090955090935090506117d6565b604051636c02b39560e01b815260040160405180910390fd5b8760600151841015611802576060880151604051638d261d5d60e01b8152610560918691600401614bab565b61180b84612bc9565b5f5b82518110156119ff575f5f87838151811061182a5761182a6148f5565b6020026020010151905061183d81612bc9565b88838151811061184f5761184f6148f5565b60200260200101515f036118d2576118ac8c60c001518481518110611876576118766148f5565b60200260200101518d60a001518581518110611894576118946148f5565b6020026020010151836134769092919063ffffffff16565b9150818984815181106118c1576118c16148f5565b6020026020010181815250506118ef565b8883815181106118e4576118e46148f5565b602002602001015191505b505f8b602001518381518110611907576119076148f5565b602002602001015190508a604001518381518110611927576119276148f5565b60200260200101518211156119725780828c60400151858151811061194e5761194e6148f5565b60200260200101516040516323b6a17960e21b815260040161056093929190614bb9565b61197c818361348a565b6119928c858581518110610f5e57610f5e6148f5565b8585815181106119a4576119a46148f5565b6020026020010187602001828152508281525050506119f5838660200151848f6060015187815181106119d9576119d96148f5565b60200260200101516119eb9190614bda565b610fd09190614a0a565b505060010161180d565b508751611a0c908a612d16565b611a1e885f0151896020015186613497565b87608001516004811115611a3457611a3461494a565b88602001516001600160a01b0316895f01516001600160a01b03167fa26a52d8d53702bba7f137907b8e1f99ff87f6d450144270ca25e72481cca871611a7c8c5f01516123ed565b8a866040516110a493929190614bed565b5f61067b6107b1826001614931565b60605f5f836001600160a01b031663976907cc8b885f015189608001518d8d8d8c608001518e60a001516040518963ffffffff1660e01b8152600401611ae9989796959493929190614dda565b5f604051808303815f875af1158015611b04573d5f5f3e3d5ffd5b505050506040513d5f823e601f3d908101601f19168201604052611b2b9190810190614c9e565b9092509050811580611b3f57508751815114155b15611b5d5760405163e124916560e01b815260040160405180910390fd5b611b668b612dd8565b15155f03611b7857879250505061127d565b5f5b81518110156112785786604001518181518110611b9957611b996148f5565b6020026020010151828281518110611bb357611bb36148f5565b60200260200101511115611c335785602001518181518110611bd757611bd76148f5565b6020026020010151828281518110611bf157611bf16148f5565b602002602001015188604001518381518110611c0f57611c0f6148f5565b602002602001015160405163677d1d7d60e11b815260040161056093929190614bb9565b600101611b7a565b5f61067b611c48836134aa565b6134d5565b611c556134e4565b15610536576040516336a7e2cd60e21b815260040160405180910390fd5b611c7c8161350d565b15610569578060405163d971f59760e01b81526004016105609190614909565b5f5160206150845f395f51905f525c15611cc957604051633ee5aeb560e01b815260040160405180910390fd5b61053660015f5160206150845f395f51905f526112ef565b8154848752604080516020808402820181019092528281529084908390830182828015611d3557602002820191905f5260205f20905b81546001600160a01b03168152600190910190602001808311611d17575b50505050508760200181905250806001600160401b03811115611d5a57611d5a61449b565b604051908082528060200260200182016040528015611da357816020015b604080516060810182525f80825260208083018290529282015282525f19909201910181611d785790505b506040880152806001600160401b03811115611dc157611dc161449b565b604051908082528060200260200182016040528015611dea578160200160208202803683370190505b506060880152806001600160401b03811115611e0857611e0861449b565b604051908082528060200260200182016040528015611e31578160200160208202803683370190505b5060808801528651611e439082613518565b60c0880152806001600160401b03811115611e6057611e6061449b565b604051908082528060200260200182016040528015611e89578160200160208202803683370190505b5060a088015286515f90611e9c906134d5565b8015611eb257505f611eb0895f01516135d1565b115b8015611ec657508751611ec4906136c4565b155b90505f5b82811015612092575f865f8b602001518481518110611eeb57611eeb6148f5565b6020908102919091018101516001600160a01b0316825281019190915260409081015f208151606081019092528054829060ff166001811115611f3057611f3061494a565b6001811115611f4157611f4161494a565b8152905461010081046001600160a01b0316602080840191909152600160a81b90910460ff1615156040928301525f858152908c905281902054908c01518051929350909183919085908110611f9957611f996148f5565b6020026020010181905250611fad82612255565b8b60a001518481518110611fc357611fc36148f5565b602002602001018181525050611fe38b84611fdd84612324565b89612330565b8315155f03611ff357505061208a565b5f8260400151801561201757506001835160018111156120155761201561494a565b145b90508015612086575f61202c8d5f01516135d1565b90505f8d606001518681518110612045576120456148f5565b602002602001015190505f6120658f61205e8760801c90565b89866136d3565b90508015612082576120828f8861207c8486614a0a565b8d612330565b5050505b5050505b600101611eca565b505050505050505050565b6060830151515f5b81811015610902575f856020015182815181106120c4576120c46148f5565b602002602001015190505f855f8481526020019081526020015f205490505f6120ec82612324565b905087606001518481518110612104576121046148f5565b602002602001015181111561218f576001600160a01b0383165f9081526020879052604090205460608901518051612175919087908110612147576121476148f5565b60200260200101518361215a9190614a0a565b6121648360801c90565b61216e9190614bda565b8290613750565b6001600160a01b0385165f90815260208990526040902055505b6121d3886060015185815181106121a8576121a86148f5565b6020026020010151896080015186815181106121c6576121c66148f5565b602002602001015161376a565b5f858152602089905260409020555050600190910190506120a5565b6105365f5f5160206150845f395f51905f526112ef565b81831415806122155750808214155b156122335760405163aaad13f760e01b815260040160405180910390fd5b505050565b5f61224d826122478587614e3e565b906125c2565b949350505050565b80515f908181600181111561226c5761226c61494a565b0361228157670de0b6b3a7640000915061231e565b60018160018111156122955761229561494a565b036123055782602001516001600160a01b031663679aefce6040518163ffffffff1660e01b8152600401602060405180830381865afa1580156122da573d5f5f3e3d5ffd5b505050506040513d601f19601f820116820180604052508101906122fe9190614e55565b915061231e565b604051636fa2831960e11b815260040160405180910390fd5b50919050565b6001600160801b031690565b8184606001518481518110612347576123476148f5565b60209081029190910101526144935f8260018111156123685761236861494a565b1461237557612dff612379565b6122385b90506123c4838660c001518681518110612395576123956148f5565b60200260200101518760a0015187815181106123b3576123b36148f5565b60200260200101518463ffffffff16565b856080015185815181106123da576123da6148f5565b6020026020010181815250505050505050565b5f61067b6123f96137ae565b836001600160a01b03165f908152600291909101602052604090205490565b606083516001600160401b038111156124335761243361449b565b60405190808252806020026020018201604052801561245c578160200160208202803683370190505b5090505f5b84518110156124bf57838386838151811061247e5761247e6148f5565b60200260200101516124909190614e3e565b61249a9190614e6c565b8282815181106124ac576124ac6148f5565b6020908102919091010152600101612461565b509392505050565b5f61224d6102df6112ec846112e68888612de7565b5f64174876e8006125b86124f1836001614931565b6124fc906001614931565b612507906001614931565b612512906001614931565b61251d906001614931565b612528906001614931565b612533906001614931565b61253e906001614931565b612549906001614931565b612554906001614931565b61255f906001614931565b61256a906001614931565b612575906001614931565b612580906001614931565b61258b906001614931565b612596906001614931565b6125a1906001614931565b6125ac906001614931565b849060ff1660186137d2565b61067b9190614e3e565b5f806125ce8385614e3e565b90506001670de0b6b3a76400006001830304018115150291505092915050565b6125f7816137e0565b15155f036105695760405163353d5de760e21b815260040160405180910390fd5b8051805f5b8181101561267157838181518110612637576126376148f5565b60200260200101515f146126695781831461266557604051636b8c3be560e01b815260040160405180910390fd5b8092505b60010161261d565b5080821061231e57604051631f91af7760e21b815260040160405180910390fd5b5f6060816126a08787614a0a565b90505f6126ad82886137f6565b90506126b9858261380a565b60405162b5059f60e51b81525f906001600160a01b038716906316a0b3e0906126ea908e908e908790600401614e8b565b602060405180830381865afa158015612705573d5f5f3e3d5ffd5b505050506040513d601f19601f820116820180604052508101906127299190614e55565b90505f818c8c8151811061273f5761273f6148f5565b60200260200101516127519190614a0a565b90505f6127828d8d81518110612769576127696148f5565b60200260200101518b876138929092919063ffffffff16565b90505f61278f8483614a0a565b90505f61279c828c6125c2565b90508e516001600160401b038111156127b7576127b761449b565b6040519080825280602002602001820160405280156127e0578160200160208202803683370190505b50975080888f815181106127f6576127f66148f5565b602090810291909101015261280b8185614a0a565b985050505050505050965096945050505050565b85515f9060609082816001600160401b0381111561283f5761283f61449b565b604051908082528060200260200182016040528015612868578160200160208202803683370190505b5090505f5b828110156128c05760018b8281518110612889576128896148f5565b602002602001015161289b9190614a0a565b8282815181106128ad576128ad6148f5565b602090810291909101015260010161286d565b5087818a815181106128d4576128d46148f5565b60200260200101516128e69190614a0a565b818a815181106128f8576128f86148f5565b6020908102919091010152604051631309bd3d60e31b81525f906001600160a01b0387169063984de9e890612933908e908590600401614eaf565b602060405180830381865afa15801561294e573d5f5f3e3d5ffd5b505050506040513d601f19601f820116820180604052508101906129729190614e55565b90505f6129ec82886001600160a01b031663984de9e8865f6040518363ffffffff1660e01b81526004016129a7929190614eaf565b602060405180830381865afa1580156129c2573d5f5f3e3d5ffd5b505050506040513d601f19601f820116820180604052508101906129e69190614e55565b906137f6565b90506129f8878261380a565b5f838c81518110612a0b57612a0b6148f5565b6020026020010151612a3f8e8e81518110612a2857612a286148f5565b6020026020010151846125c290919063ffffffff16565b612a499190614a0a565b90505f81612a68670de0b6b3a76400008c8103908d10025b84906137f6565b612a729190614a0a565b905080858e81518110612a8757612a876148f5565b6020026020010151612a999190614a0a565b858e81518110612aab57612aab6148f5565b6020908102919091010152604051631309bd3d60e31b81525f906001600160a01b038b169063984de9e890612ae7908990600190600401614eaf565b602060405180830381865afa158015612b02573d5f5f3e3d5ffd5b505050506040513d601f19601f82011682018060405250810190612b269190614e55565b9050866001600160401b03811115612b4057612b4061449b565b604051908082528060200260200182016040528015612b69578160200160208202803683370190505b50975081888f81518110612b7f57612b7f6148f5565b602090810291909101015261280b612b978287614a0a565b8d9087613892565b612ba8816138d7565b15155f036105695760405163033c2a5760e61b815260040160405180910390fd5b8015801590612bde5750612bdb6138e6565b81105b15610569576040516303da9a2360e31b815260040160405180910390fd5b5f61224d84612c0b8486614e3e565b6138f6565b6106a182612c1d83613916565b612c2690614ee0565b613920565b5f808515612d0c57612c828760c001518481518110612c4c57612c4c6148f5565b60200260200101518860a001518581518110612c6a57612c6a6148f5565b602002602001015188612bfc9092919063ffffffff16565b9150612c90875f01516136c4565b15155f03612d0c575f612ca5885f0151613994565b9050612cb18382613a73565b915082821115612cd457604051634c69ac5d60e01b815260040160405180910390fd5b5f612cdf8787613a93565b9050612d098787612d0486612cf386612324565b612cfd9190614bda565b8590613acc565b613ae0565b50505b9550959350505050565b5f612d2083613b19565b90505f5b8260600151518110156112f557612d6883606001518281518110612d4a57612d4a6148f5565b6020026020010151846080015183815181106121c6576121c66148f5565b5f82815260208490526040902055600101612d24565b6112f5612d896137ae565b85858585613b43565b5f321580156105a15750612dac612da7613b90565b613ba3565b15905090565b612233612dbd6137ae565b848484613bad565b612233612dd06137ae565b848484613c0d565b5f61067b6107f3826001614931565b5f9081526020919091526040902090565b80825d5050565b5f61224d82612e0e8587614e3e565b90613a73565b606083516001600160401b03811115612e2f57612e2f61449b565b604051908082528060200260200182016040528015612e58578160200160208202803683370190505b5090505f5b84518110156124bf57612e948385878481518110612e7d57612e7d6148f5565b60200260200101516138929092919063ffffffff16565b828281518110612ea657612ea66148f5565b6020908102919091010152600101612e5d565b612ec281613d81565b15155f036105695760405163efe0265d60e01b815260040160405180910390fd5b81518151612ef2908290610681565b6020810260208401602084015e505050565b84515f9060609082816001600160401b03811115612f2457612f2461449b565b604051908082528060200260200182016040528015612f4d578160200160208202803683370190505b509050816001600160401b03811115612f6857612f6861449b565b604051908082528060200260200182016040528015612f91578160200160208202803683370190505b5092505f5b8281101561300d576001898281518110612fb257612fb26148f5565b60200260200101518b8381518110612fcc57612fcc6148f5565b6020026020010151612fde9190614bda565b612fe89190614a0a565b828281518110612ffa57612ffa6148f5565b6020908102919091010152600101612f96565b50604051631309bd3d60e31b81525f906001600160a01b0387169063984de9e89061303e908d908590600401614eaf565b602060405180830381865afa158015613059573d5f5f3e3d5ffd5b505050506040513d601f19601f8201168201806040525081019061307d9190614e55565b90505f6130f882886001600160a01b031663984de9e88660016040518363ffffffff1660e01b81526004016130b3929190614eaf565b602060405180830381865afa1580156130ce573d5f5f3e3d5ffd5b505050506040513d601f19601f820116820180604052508101906130f29190614e55565b906138f6565b90506131048782613d90565b5f5b84811015613215575f61313b8d8381518110613124576131246148f5565b602002602001015184613a7390919063ffffffff16565b905080858381518110613150576131506148f5565b6020026020010151111561320c575f81868481518110613172576131726148f5565b60200260200101510390506131908b826125c290919063ffffffff16565b8884815181106131a2576131a26148f5565b6020026020010181815250508783815181106131c0576131c06148f5565b60200260200101518684815181106131da576131da6148f5565b60200260200101516131ec9190614a0a565b8684815181106131fe576131fe6148f5565b602002602001018181525050505b50600101613106565b50604051631309bd3d60e31b81525f906001600160a01b0389169063984de9e890613247908790600190600401614eaf565b602060405180830381865afa158015613262573d5f5f3e3d5ffd5b505050506040513d601f19601f820116820180604052508101906132869190614e55565b9050826132938183614a0a565b61329d908c614e3e565b6132a79190614e6c565b965050505050509550959350505050565b5f6060816132c68688614bda565b90505f6132d382886137f6565b90506132df8582613d90565b60405162b5059f60e51b81525f906001600160a01b038716906316a0b3e090613310908e908e908790600401614e8b565b602060405180830381865afa15801561332b573d5f5f3e3d5ffd5b505050506040513d601f19601f8201168201806040525081019061334f9190614e55565b90505f8b8b81518110613364576133646148f5565b6020026020010151826133779190614a0a565b90505f898d8d8151811061338d5761338d6148f5565b6020026020010151866133a09190614e3e565b6133aa9190614e6c565b90505f6133b78285614a0a565b90505f816133d3670de0b6b3a76400008d8103908e1002612a61565b6133dd9190614a0a565b90508e516001600160401b038111156133f8576133f861449b565b604051908082528060200260200182016040528015613421578160200160208202803683370190505b50975080888f81518110613437576134376148f5565b602090810291909101015261280b8185614bda565b61345581613e18565b15155f036105695760405163121db02f60e21b815260040160405180910390fd5b5f61224d846134858486614e3e565b6137f6565b6106a182612c2683613916565b6122336134a26137ae565b848484613e27565b5f61067b6134b661057d565b836001600160a01b03165f908152600391909101602052604090205490565b5f61067b61084b826001614931565b5f6134ed613f44565b63ffffffff1642111580156105a157506105a1613508613b90565b613f64565b5f5f6124bf83613f7c565b60605f826001600160401b038111156135335761353361449b565b60405190808252806020026020018201604052801561355c578160200160208202803683370190505b5090505f61356985613fd1565b64ffffffffff1690505f5b848110156135c7575f61359461358b600584614e3e565b849060056137d2565b90506135a181600a614fdd565b8483815181106135b3576135b36148f5565b602090810291909101015250600101613574565b5090949350505050565b5f64174876e8006125b86018806135e9856001614931565b6135f4906001614931565b6135ff906001614931565b61360a906001614931565b613615906001614931565b613620906001614931565b61362b906001614931565b613636906001614931565b613641906001614931565b61364c906001614931565b613657906001614931565b613662906001614931565b61366d906001614931565b613678906001614931565b613683906001614931565b61368e906001614931565b613699906001614931565b6136a4906001614931565b60ff166136b19190614bda565b6136bb9190614bda565b849060186137d2565b5f61067b610835826001614931565b5f5f856080015184815181106136eb576136eb6148f5565b6020026020010151905084811115613747575f61370a868303856125c2565b90506137438760c001518681518110613725576137256148f5565b60200260200101518860a001518781518110610e6057610e606148f5565b9250505b50949350505050565b5f61376361375d84612324565b8361376a565b9392505050565b5f6001600160801b0383118061378657506001600160801b0382115b156137a4576040516389560ca160e01b815260040160405180910390fd5b61376383836140c9565b7fee3617e7dec9b55ea0e350adee8432cb30b3be6aa699fe3c87313b503dbc6c1f90565b6001901b5f190191901c1690565b5f6137ef61082a826001614931565b1592915050565b5f61376383670de0b6b3a764000084613892565b5f826001600160a01b031663b677fa566040518163ffffffff1660e01b8152600401602060405180830381865afa158015613847573d5f5f3e3d5ffd5b505050506040513d601f19601f8201168201806040525081019061386b9190614e55565b90508082101561223357818160405163718e4adf60e11b8152600401610560929190614bab565b5f815f036138b357604051630a0c22c760e01b815260040160405180910390fd5b5f6138be8486614e3e565b9050600183600183030401811515029150509392505050565b5f61067b610814826001614931565b5f6105a16138f261057d565b5490565b5f8061390a670de0b6b3a764000085614e3e565b905061224d8382614e6c565b5f61067b826140d8565b805f0361392b575050565b5f61393e836139386140f1565b90614115565b90505f61394b8383614fe8565b9050805f036139695761396461395f614126565b61414a565b613980565b815f036139805761398061397b614126565b614160565b6112f5848261398d6140f1565b919061416f565b5f64174876e8006125b860186139ab846001614931565b6139b6906001614931565b6139c1906001614931565b6139cc906001614931565b6139d7906001614931565b6139e2906001614931565b6139ed906001614931565b6139f8906001614931565b613a03906001614931565b613a0e906001614931565b613a19906001614931565b613a24906001614931565b613a2f906001614931565b613a3a906001614931565b613a45906001614931565b613a50906001614931565b613a5b906001614931565b613a66906001614931565b60ff166136bb9190614bda565b5f80613a7f8385614e3e565b905061224d670de0b6b3a764000082614e6c565b5f613763613a9f61057d565b6001600160a01b038086165f90815260099290920160209081526040808420928716845291905290205490565b5f61376382613adb8560801c90565b61376a565b612233613aeb61057d565b6001600160a01b038086165f9081526009929092016020908152604080842092871684529190529020829055565b5f61067b613b2561057d565b836001600160a01b03165f9081526008919091016020526040902090565b5f613b5086868686614180565b90505f1981146109915780821115613b8157828183604051637dc7a0d960e11b815260040161056093929190614bb9565b610991868686868686036141dc565b5f6105a1613b9c61057d565b600a015490565b5f6001821661067b565b32155f03613bce576040516333fc255960e11b815260040160405180910390fd5b6001600160a01b038084165f9081526020868152604080832093861683529290529081208054839290613c02908490614bda565b909155505050505050565b6001600160a01b038216613c365781604051634b637e8f60e11b81526004016105609190614909565b6001600160a01b038084165f908152602086815260408083209386168352929052205480821115613c805782818360405163391434e360e21b815260040161056093929190614bb9565b6001600160a01b038085165f81815260208881526040808320948816835293815283822086860390559181526002880190915290812054613cc2908490614a0a565b9050613ccd8161430e565b6001600160a01b0385165f818152600288016020526040808220849055516323de665160e01b81526323de665191613d0c91889190889060040161500f565b5f604051808303815f87803b158015613d23575f5ffd5b505af1925050508015613d34575060015b505f6001600160a01b0316846001600160a01b0316866001600160a01b03165f5160206150645f395f51905f5286604051613d7191815260200190565b60405180910390a4505050505050565b5f61067b610809826001614931565b5f826001600160a01b031663273c1adf6040518163ffffffff1660e01b8152600401602060405180830381865afa158015613dcd573d5f5f3e3d5ffd5b505050506040513d601f19601f82011682018060405250810190613df19190614e55565b905080821115612233578181604051630fa2583760e21b8152600401610560929190614bab565b5f61067b61081f826001614931565b6001600160a01b038216613e50578160405163ec442f0560e01b81526004016105609190614909565b6001600160a01b0383165f908152600285016020526040812054613e75908390614bda565b6001600160a01b038086165f908152602088815260408083209388168352929052208054840190559050613ea88161430e565b6001600160a01b038481165f818152600288016020908152604080832086905551868152938716939192915f5160206150645f395f51905f52910160405180910390a46040516323de665160e01b81526001600160a01b038516906323de665190613f1b905f908790879060040161500f565b5f604051808303815f87803b158015613f32575f5ffd5b505af1158015612092573d5f5f3e3d5ffd5b5f6105a1613f5061057d565b60020154600160201b900463ffffffff1690565b5f61067b613f73826001614bda565b83901c60011690565b5f5f5f613f88846134aa565b90505f613f9482614335565b90505f613fa083614344565b9050818015613fc65750613fb2614448565b613fbc9082615033565b63ffffffff164211155b969095509350505050565b5f61067b60188080613fe4856001614931565b613fef906001614931565b613ffa906001614931565b614005906001614931565b614010906001614931565b61401b906001614931565b614026906001614931565b614031906001614931565b61403c906001614931565b614047906001614931565b614052906001614931565b61405d906001614931565b614068906001614931565b614073906001614931565b61407e906001614931565b614089906001614931565b614094906001614931565b61409f906001614931565b60ff166140ac9190614bda565b6140b69190614bda565b6140c09190614bda565b839060286137d2565b5f61376383608084901b614bda565b5f5f82126140e4575090565b6140ec614468565b919050565b7ff74f46243717369ff9f20877dfc1ba8491e6be48bfe7acc5b65f5ac68f585c0090565b5f6137636102df6112ec8585612de7565b7fbcbf50c510014a975eac30806436734486f167c41af035c1645353d475d5710090565b6105696141596001835c614a0a565b8290612df8565b610569614159825c6001614bda565b612233816112ef6112ec8686612de7565b5f816001600160a01b0316836001600160a01b0316036141a257505f1961224d565b506001600160a01b038084165f90815260018601602090815260408083208685168452825280832093851683529290522054949350505050565b6001600160a01b038316614205578260405163e602df0560e01b81526004016105609190614909565b6001600160a01b03821661422e5781604051634a1406b160e11b81526004016105609190614909565b6001600160a01b038085165f81815260018801602090815260408083208886168452825280832094871683529390528290208390559051630ad0fe5760e31b8152635687f2b8906142879086908690869060040161500f565b5f604051808303815f87803b15801561429e575f5ffd5b505af19250505080156142af575060015b50816001600160a01b0316836001600160a01b0316856001600160a01b03167fa0175360a15bca328baf7ea85c7b784d58b222a50d0ce760b10dba336d226a61846040516142ff91815260200190565b60405180910390a45050505050565b620f4240811015610569576040516334e3483f60e21b815260048101829052602401610560565b5f61067b610840826001614931565b5f61067b602860188080614359866001614931565b614364906001614931565b61436f906001614931565b61437a906001614931565b614385906001614931565b614390906001614931565b61439b906001614931565b6143a6906001614931565b6143b1906001614931565b6143bc906001614931565b6143c7906001614931565b6143d2906001614931565b6143dd906001614931565b6143e8906001614931565b6143f3906001614931565b6143fe906001614931565b614409906001614931565b614414906001614931565b60ff166144219190614bda565b61442b9190614bda565b6144359190614bda565b61443f9190614bda565b839060206137d2565b5f6105a161445461057d565b60020154600160401b900463ffffffff1690565b6335278d125f526004601cfd5b60405180606001604052805f81526020015f81526020015f81525090565b61053661504f565b634e487b7160e01b5f52604160045260245ffd5b60405160c081016001600160401b03811182821017156144d1576144d161449b565b60405290565b604051601f8201601f191681016001600160401b03811182821017156144ff576144ff61449b565b604052919050565b80356001600160a01b03811681146140ec575f5ffd5b5f6001600160401b038211156145355761453561449b565b5060051b60200190565b5f82601f83011261454e575f5ffd5b813561456161455c8261451d565b6144d7565b8082825260208201915060208360051b860101925085831115614582575f5ffd5b602085015b8381101561078d578035835260209283019201614587565b8035600481106140ec575f5ffd5b5f6001600160401b038211156145c5576145c561449b565b50601f01601f191660200190565b5f82601f8301126145e2575f5ffd5b81356145f061455c826145ad565b818152846020838601011115614604575f5ffd5b816020850160208301375f918101602001919091529392505050565b5f60208284031215614630575f5ffd5b81356001600160401b03811115614645575f5ffd5b820160c08185031215614656575f5ffd5b61465e6144af565b61466782614507565b815261467560208301614507565b60208201526040828101359082015260608201356001600160401b0381111561469c575f5ffd5b6146a88682850161453f565b6060830152506146ba6080830161459f565b608082015260a08201356001600160401b038111156146d7575f5ffd5b6146e3868285016145d3565b60a083015250949350505050565b5f8151808452602084019350602083015f5b82811015614721578151865260209586019590910190600101614703565b5093949350505050565b5f81518084528060208401602086015e5f602082860101526020601f19601f83011685010191505092915050565b838152606060208201525f61477160608301856146f1565b8281036040840152614783818561472b565b9695505050505050565b5f8151808452602084019350602083015f5b828110156147215781516001600160e01b03191686526020958601959091019060010161479f565b602081525f613763602083018461478d565b8035600581106140ec575f5ffd5b5f602082840312156147f7575f5ffd5b81356001600160401b0381111561480c575f5ffd5b820160c0818503121561481d575f5ffd5b6148256144af565b61482e82614507565b815261483c60208301614507565b602082015260408201356001600160401b03811115614859575f5ffd5b6148658682850161453f565b604083015250606082810135908201526146ba608083016147d9565b606081525f61489360608301866146f1565b8460208401528281036040840152614783818561472b565b602081525f613763602083018461472b565b606081525f6148cf606083018661472b565b82810360208401526148e1818661478d565b90508281036040840152614783818561478d565b634e487b7160e01b5f52603260045260245ffd5b6001600160a01b0391909116815260200190565b634e487b7160e01b5f52601160045260245ffd5b60ff818116838216019081111561067b5761067b61491d565b634e487b7160e01b5f52602160045260245ffd5b6004811061496e5761496e61494a565b9052565b6001600160a01b03888116825287166020820152614993604082018761495e565b84606082015260e060808201525f6149ae60e08301866146f1565b82810360a08401526149c081866146f1565b905082810360c08401526149d4818561472b565b9a9950505050505050505050565b805180151581146140ec575f5ffd5b5f60208284031215614a01575f5ffd5b613763826149e2565b8181038181111561067b5761067b61491d565b60018060a01b038616815284602082015260a060408201525f614a4360a08301866146f1565b8281036060840152614a5581866146f1565b9050828103608084015261127d818561472b565b5f82601f830112614a78575f5ffd5b8151614a8661455c8261451d565b8082825260208201915060208360051b860101925085831115614aa7575f5ffd5b602085015b8381101561078d578051835260209283019201614aac565b5f82601f830112614ad3575f5ffd5b8151614ae161455c826145ad565b818152846020838601011115614af5575f5ffd5b8160208501602083015e5f918101602001919091529392505050565b5f5f5f5f60808587031215614b24575f5ffd5b845160208601519094506001600160401b03811115614b41575f5ffd5b614b4d87828801614a69565b604087015190945090506001600160401b03811115614b6a575f5ffd5b614b7687828801614a69565b606087015190935090506001600160401b03811115614b93575f5ffd5b614b9f87828801614ac4565b91505092959194509250565b918252602082015260400190565b6001600160a01b039390931683526020830191909152604082015260600190565b8082018082111561067b5761067b61491d565b838152606060208201525f614c0560608301856146f1565b828103604084015261478381856146f1565b6001600160a01b03898116825288166020820152614c38604082018861495e565b85606082015261010060808201525f614c556101008301876146f1565b82810360a0840152614c6781876146f1565b905082810360c0840152614c7b81866146f1565b905082810360e0840152614c8f818561472b565b9b9a5050505050505050505050565b5f5f60408385031215614caf575f5ffd5b614cb8836149e2565b60208401519092506001600160401b03811115614cd3575f5ffd5b614cdf85828601614a69565b9150509250929050565b6005811061496e5761496e61494a565b6001600160a01b03888116825287166020820152614d1a6040820187614ce9565b60e060608201525f614d2f60e08301876146f1565b85608084015282810360a08401526149c081866146f1565b6001600160a01b038616815260a0602082018190525f90614d6a908301876146f1565b8560408401528281036060840152614a5581866146f1565b5f5f5f5f60808587031215614d95575f5ffd5b84516001600160401b03811115614daa575f5ffd5b614db687828801614a69565b60208701516040880151919650945090506001600160401b03811115614b6a575f5ffd5b6001600160a01b03898116825288166020820152614dfb6040820188614ce9565b61010060608201525f614e126101008301886146f1565b8281036080840152614e2481886146f1565b90508560a084015282810360c0840152614c7b81866146f1565b808202811582820484141761067b5761067b61491d565b5f60208284031215614e65575f5ffd5b5051919050565b5f82614e8657634e487b7160e01b5f52601260045260245ffd5b500490565b606081525f614e9d60608301866146f1565b60208301949094525060400152919050565b604081525f614ec160408301856146f1565b905060028310614ed357614ed361494a565b8260208301529392505050565b5f600160ff1b8201614ef457614ef461491d565b505f0390565b6001815b6001841115614f3557808504811115614f1957614f1961491d565b6001841615614f2757908102905b60019390931c928002614efe565b935093915050565b5f82614f4b5750600161067b565b81614f5757505f61067b565b8160018114614f6d5760028114614f7757614f93565b600191505061067b565b60ff841115614f8857614f8861491d565b50506001821b61067b565b5060208310610133831016604e8410600b8410161715614fb6575081810a61067b565b614fc25f198484614efa565b805f1904821115614fd557614fd561491d565b029392505050565b5f6137638383614f3d565b8082018281125f8312801582168215821617156150075761500761491d565b505092915050565b6001600160a01b039384168152919092166020820152604081019190915260600190565b63ffffffff818116838216019081111561067b5761067b61491d565b634e487b7160e01b5f52605160045260245ffdfed1398bee19313d6bf672ccb116e51f4a1a947e91c757907f51fbb5b5e56c698f9b779b17422d0df92223018b32b4d1fa46e071723d6817e2486d003becc55f00a2646970667358221220f280fa4cd854714ca716d8839d3556042c615963c1bc0d998aff2dd191adbc0364736f6c634300081e0033","linkReferences":{}},"methodIdentifiers":{"addLiquidity((address,address,uint256[],uint256,uint8,bytes))":"4af29ec4","facetFuncs()":"574a4cff","facetInterfaces()":"2ea80826","facetMetadata()":"f10d7a75","facetName()":"5b6f4d01","removeLiquidity((address,address,uint256,uint256[],uint8,bytes))":"21457897"},"id":991}