{"abi":[{"type":"constructor","inputs":[{"name":"params","type":"tuple","internalType":"struct WeightedPool.NewPoolParams","components":[{"name":"name","type":"string","internalType":"string"},{"name":"symbol","type":"string","internalType":"string"},{"name":"numTokens","type":"uint256","internalType":"uint256"},{"name":"normalizedWeights","type":"uint256[]","internalType":"uint256[]"},{"name":"version","type":"string","internalType":"string"},{"name":"minTokenBalances","type":"uint256[]","internalType":"uint256[]"}]},{"name":"vault","type":"address","internalType":"contract IVault"}],"stateMutability":"nonpayable"},{"type":"function","name":"DOMAIN_SEPARATOR","inputs":[],"outputs":[{"name":"","type":"bytes32","internalType":"bytes32"}],"stateMutability":"view"},{"type":"function","name":"PERMIT_TYPEHASH","inputs":[],"outputs":[{"name":"","type":"bytes32","internalType":"bytes32"}],"stateMutability":"view"},{"type":"function","name":"allowance","inputs":[{"name":"owner","type":"address","internalType":"address"},{"name":"spender","type":"address","internalType":"address"}],"outputs":[{"name":"","type":"uint256","internalType":"uint256"}],"stateMutability":"view"},{"type":"function","name":"approve","inputs":[{"name":"spender","type":"address","internalType":"address"},{"name":"amount","type":"uint256","internalType":"uint256"}],"outputs":[{"name":"","type":"bool","internalType":"bool"}],"stateMutability":"nonpayable"},{"type":"function","name":"balanceOf","inputs":[{"name":"account","type":"address","internalType":"address"}],"outputs":[{"name":"","type":"uint256","internalType":"uint256"}],"stateMutability":"view"},{"type":"function","name":"computeBalance","inputs":[{"name":"balancesLiveScaled18","type":"uint256[]","internalType":"uint256[]"},{"name":"tokenInIndex","type":"uint256","internalType":"uint256"},{"name":"invariantRatio","type":"uint256","internalType":"uint256"}],"outputs":[{"name":"newBalance","type":"uint256","internalType":"uint256"}],"stateMutability":"view"},{"type":"function","name":"computeInvariant","inputs":[{"name":"balancesLiveScaled18","type":"uint256[]","internalType":"uint256[]"},{"name":"rounding","type":"uint8","internalType":"enum Rounding"}],"outputs":[{"name":"","type":"uint256","internalType":"uint256"}],"stateMutability":"view"},{"type":"function","name":"decimals","inputs":[],"outputs":[{"name":"","type":"uint8","internalType":"uint8"}],"stateMutability":"pure"},{"type":"function","name":"eip712Domain","inputs":[],"outputs":[{"name":"fields","type":"bytes1","internalType":"bytes1"},{"name":"name","type":"string","internalType":"string"},{"name":"version","type":"string","internalType":"string"},{"name":"chainId","type":"uint256","internalType":"uint256"},{"name":"verifyingContract","type":"address","internalType":"address"},{"name":"salt","type":"bytes32","internalType":"bytes32"},{"name":"extensions","type":"uint256[]","internalType":"uint256[]"}],"stateMutability":"view"},{"type":"function","name":"emitApproval","inputs":[{"name":"owner","type":"address","internalType":"address"},{"name":"spender","type":"address","internalType":"address"},{"name":"amount","type":"uint256","internalType":"uint256"}],"outputs":[],"stateMutability":"nonpayable"},{"type":"function","name":"emitTransfer","inputs":[{"name":"from","type":"address","internalType":"address"},{"name":"to","type":"address","internalType":"address"},{"name":"amount","type":"uint256","internalType":"uint256"}],"outputs":[],"stateMutability":"nonpayable"},{"type":"function","name":"getAggregateFeePercentages","inputs":[],"outputs":[{"name":"aggregateSwapFeePercentage","type":"uint256","internalType":"uint256"},{"name":"aggregateYieldFeePercentage","type":"uint256","internalType":"uint256"}],"stateMutability":"view"},{"type":"function","name":"getCurrentLiveBalances","inputs":[],"outputs":[{"name":"balancesLiveScaled18","type":"uint256[]","internalType":"uint256[]"}],"stateMutability":"view"},{"type":"function","name":"getMaximumInvariantRatio","inputs":[],"outputs":[{"name":"","type":"uint256","internalType":"uint256"}],"stateMutability":"pure"},{"type":"function","name":"getMaximumSwapFeePercentage","inputs":[],"outputs":[{"name":"","type":"uint256","internalType":"uint256"}],"stateMutability":"pure"},{"type":"function","name":"getMinTokenBalances","inputs":[],"outputs":[{"name":"minTokenBalances","type":"uint256[]","internalType":"uint256[]"}],"stateMutability":"view"},{"type":"function","name":"getMinimumInvariantRatio","inputs":[],"outputs":[{"name":"","type":"uint256","internalType":"uint256"}],"stateMutability":"pure"},{"type":"function","name":"getMinimumSwapFeePercentage","inputs":[],"outputs":[{"name":"","type":"uint256","internalType":"uint256"}],"stateMutability":"pure"},{"type":"function","name":"getNormalizedWeights","inputs":[],"outputs":[{"name":"","type":"uint256[]","internalType":"uint256[]"}],"stateMutability":"view"},{"type":"function","name":"getRate","inputs":[],"outputs":[{"name":"","type":"uint256","internalType":"uint256"}],"stateMutability":"pure"},{"type":"function","name":"getStaticSwapFeePercentage","inputs":[],"outputs":[{"name":"","type":"uint256","internalType":"uint256"}],"stateMutability":"view"},{"type":"function","name":"getTokenInfo","inputs":[],"outputs":[{"name":"tokens","type":"address[]","internalType":"contract IERC20[]"},{"name":"tokenInfo","type":"tuple[]","internalType":"struct TokenInfo[]","components":[{"name":"tokenType","type":"uint8","internalType":"enum TokenType"},{"name":"rateProvider","type":"address","internalType":"contract IRateProvider"},{"name":"paysYieldFees","type":"bool","internalType":"bool"}]},{"name":"balancesRaw","type":"uint256[]","internalType":"uint256[]"},{"name":"lastBalancesLiveScaled18","type":"uint256[]","internalType":"uint256[]"}],"stateMutability":"view"},{"type":"function","name":"getTokens","inputs":[],"outputs":[{"name":"tokens","type":"address[]","internalType":"contract IERC20[]"}],"stateMutability":"view"},{"type":"function","name":"getVault","inputs":[],"outputs":[{"name":"","type":"address","internalType":"contract IVault"}],"stateMutability":"view"},{"type":"function","name":"getWeightedPoolDynamicData","inputs":[],"outputs":[{"name":"data","type":"tuple","internalType":"struct WeightedPoolDynamicData","components":[{"name":"balancesLiveScaled18","type":"uint256[]","internalType":"uint256[]"},{"name":"tokenRates","type":"uint256[]","internalType":"uint256[]"},{"name":"staticSwapFeePercentage","type":"uint256","internalType":"uint256"},{"name":"totalSupply","type":"uint256","internalType":"uint256"},{"name":"isPoolInitialized","type":"bool","internalType":"bool"},{"name":"isPoolPaused","type":"bool","internalType":"bool"},{"name":"isPoolInRecoveryMode","type":"bool","internalType":"bool"}]}],"stateMutability":"view"},{"type":"function","name":"getWeightedPoolImmutableData","inputs":[],"outputs":[{"name":"data","type":"tuple","internalType":"struct WeightedPoolImmutableData","components":[{"name":"tokens","type":"address[]","internalType":"contract IERC20[]"},{"name":"decimalScalingFactors","type":"uint256[]","internalType":"uint256[]"},{"name":"normalizedWeights","type":"uint256[]","internalType":"uint256[]"},{"name":"minTokenBalances","type":"uint256[]","internalType":"uint256[]"}]}],"stateMutability":"view"},{"type":"function","name":"incrementNonce","inputs":[],"outputs":[],"stateMutability":"nonpayable"},{"type":"function","name":"name","inputs":[],"outputs":[{"name":"","type":"string","internalType":"string"}],"stateMutability":"view"},{"type":"function","name":"nonces","inputs":[{"name":"owner","type":"address","internalType":"address"}],"outputs":[{"name":"","type":"uint256","internalType":"uint256"}],"stateMutability":"view"},{"type":"function","name":"onSwap","inputs":[{"name":"request","type":"tuple","internalType":"struct PoolSwapParams","components":[{"name":"kind","type":"uint8","internalType":"enum SwapKind"},{"name":"amountGivenScaled18","type":"uint256","internalType":"uint256"},{"name":"balancesScaled18","type":"uint256[]","internalType":"uint256[]"},{"name":"indexIn","type":"uint256","internalType":"uint256"},{"name":"indexOut","type":"uint256","internalType":"uint256"},{"name":"router","type":"address","internalType":"address"},{"name":"userData","type":"bytes","internalType":"bytes"}]}],"outputs":[{"name":"calculatedAmountScaled18","type":"uint256","internalType":"uint256"}],"stateMutability":"view"},{"type":"function","name":"permit","inputs":[{"name":"owner","type":"address","internalType":"address"},{"name":"spender","type":"address","internalType":"address"},{"name":"amount","type":"uint256","internalType":"uint256"},{"name":"deadline","type":"uint256","internalType":"uint256"},{"name":"v","type":"uint8","internalType":"uint8"},{"name":"r","type":"bytes32","internalType":"bytes32"},{"name":"s","type":"bytes32","internalType":"bytes32"}],"outputs":[],"stateMutability":"nonpayable"},{"type":"function","name":"setNormalizedWeight","inputs":[{"name":"tokenIndex","type":"uint256","internalType":"uint256"},{"name":"newWeight","type":"uint256","internalType":"uint256"}],"outputs":[],"stateMutability":"nonpayable"},{"type":"function","name":"setNormalizedWeights","inputs":[{"name":"newWeights","type":"uint256[2]","internalType":"uint256[2]"}],"outputs":[],"stateMutability":"nonpayable"},{"type":"function","name":"supportsInterface","inputs":[{"name":"interfaceId","type":"bytes4","internalType":"bytes4"}],"outputs":[{"name":"","type":"bool","internalType":"bool"}],"stateMutability":"view"},{"type":"function","name":"symbol","inputs":[],"outputs":[{"name":"","type":"string","internalType":"string"}],"stateMutability":"view"},{"type":"function","name":"totalSupply","inputs":[],"outputs":[{"name":"","type":"uint256","internalType":"uint256"}],"stateMutability":"view"},{"type":"function","name":"transfer","inputs":[{"name":"to","type":"address","internalType":"address"},{"name":"amount","type":"uint256","internalType":"uint256"}],"outputs":[{"name":"","type":"bool","internalType":"bool"}],"stateMutability":"nonpayable"},{"type":"function","name":"transferFrom","inputs":[{"name":"from","type":"address","internalType":"address"},{"name":"to","type":"address","internalType":"address"},{"name":"amount","type":"uint256","internalType":"uint256"}],"outputs":[{"name":"","type":"bool","internalType":"bool"}],"stateMutability":"nonpayable"},{"type":"function","name":"version","inputs":[],"outputs":[{"name":"","type":"string","internalType":"string"}],"stateMutability":"view"},{"type":"event","name":"Approval","inputs":[{"name":"owner","type":"address","indexed":true,"internalType":"address"},{"name":"spender","type":"address","indexed":true,"internalType":"address"},{"name":"amount","type":"uint256","indexed":false,"internalType":"uint256"}],"anonymous":false},{"type":"event","name":"EIP712DomainChanged","inputs":[],"anonymous":false},{"type":"event","name":"Transfer","inputs":[{"name":"from","type":"address","indexed":true,"internalType":"address"},{"name":"to","type":"address","indexed":true,"internalType":"address"},{"name":"amount","type":"uint256","indexed":false,"internalType":"uint256"}],"anonymous":false},{"type":"error","name":"BaseOutOfBounds","inputs":[]},{"type":"error","name":"ERC2612ExpiredSignature","inputs":[{"name":"deadline","type":"uint256","internalType":"uint256"}]},{"type":"error","name":"ERC2612InvalidSigner","inputs":[{"name":"signer","type":"address","internalType":"address"},{"name":"owner","type":"address","internalType":"address"}]},{"type":"error","name":"ExponentOutOfBounds","inputs":[]},{"type":"error","name":"InputLengthMismatch","inputs":[]},{"type":"error","name":"InvalidAccountNonce","inputs":[{"name":"account","type":"address","internalType":"address"},{"name":"currentNonce","type":"uint256","internalType":"uint256"}]},{"type":"error","name":"InvalidExponent","inputs":[]},{"type":"error","name":"InvalidMinTokenBalance","inputs":[]},{"type":"error","name":"InvalidToken","inputs":[]},{"type":"error","name":"MaxInRatio","inputs":[]},{"type":"error","name":"MaxOutRatio","inputs":[]},{"type":"error","name":"MinWeight","inputs":[]},{"type":"error","name":"NormalizedWeightInvariant","inputs":[]},{"type":"error","name":"ProductOutOfBounds","inputs":[]},{"type":"error","name":"SenderIsNotVault","inputs":[{"name":"sender","type":"address","internalType":"address"}]},{"type":"error","name":"TokenBalanceBelowMin","inputs":[{"name":"tokenIndex","type":"uint256","internalType":"uint256"},{"name":"actualBalance","type":"uint256","internalType":"uint256"},{"name":"minBalance","type":"uint256","internalType":"uint256"}]},{"type":"error","name":"WeightedPoolBptRateUnsupported","inputs":[]},{"type":"error","name":"ZeroDivision","inputs":[]},{"type":"error","name":"ZeroInvariant","inputs":[]}],"bytecode":{"object":"0x610320604052348015610010575f5ffd5b5060405161482738038061482783398101604081905261002f91610564565b818181608001518182845f015185602001518282604051806040016040528060018152602001603160f81b815250815f908161006b9190610716565b5060016100788282610716565b508151602092830120608052805191012060a0526001600160a01b031660c05260036100a48382610716565b5060046100b18282610716565b505050506001600160a01b031660e0526100ca81610366565b5060408201516101008190526060830151516100e69190610376565b5f805b610100518160ff161015610285575f84606001518260ff1681518110610111576101116107d0565b60200260200101519050662386f26fc100008110156101435760405163bd39358360e01b815260040160405180910390fd5b61014d81846107f8565b92505f8560a001518360ff1681518110610169576101696107d0565b60200260200101519050620f424081101561019757604051633bdab6b560e21b815260040160405180910390fd5b8260ff165f036101b257610120829052610220819052610272565b8260ff166001036101ce57610140829052610240819052610272565b8260ff166002036101ea57610160829052610260819052610272565b8260ff1660030361020657610180829052610280819052610272565b8260ff16600403610222576101a08290526102a0819052610272565b8260ff1660050361023e576101c08290526102c0819052610272565b8260ff1660060361025a576101e08290526102e0819052610272565b8260ff16600703610272576102008290526103008190525b50508061027e90610811565b90506100e9565b50670de0b6b3a764000081146102ae57604051631ce788a760e11b815260040160405180910390fd5b50505081604001516001600160401b038111156102cd576102cd6103f3565b6040519080825280602002602001820160405280156102f6578160200160208202803683370190505b50805161030b91600691602090910190610396565b505f5b826040015181101561035e5782606001518181518110610330576103306107d0565b60200260200101516006828154811061034b5761034b6107d0565b5f9182526020909120015560010161030e565b50505061082f565b60056103728282610716565b5050565b8082146103725760405163aaad13f760e01b815260040160405180910390fd5b828054828255905f5260205f209081019282156103cf579160200282015b828111156103cf5782518255916020019190600101906103b4565b506103db9291506103df565b5090565b5b808211156103db575f81556001016103e0565b634e487b7160e01b5f52604160045260245ffd5b60405160c081016001600160401b0381118282101715610429576104296103f3565b60405290565b604051601f8201601f191681016001600160401b0381118282101715610457576104576103f3565b604052919050565b5f82601f83011261046e575f5ffd5b81516001600160401b03811115610487576104876103f3565b61049a601f8201601f191660200161042f565b8181528460208386010111156104ae575f5ffd5b8160208501602083015e5f918101602001919091529392505050565b5f82601f8301126104d9575f5ffd5b81516001600160401b038111156104f2576104f26103f3565b8060051b6105026020820161042f565b9182526020818501810192908101908684111561051d575f5ffd5b6020860192505b8383101561053f578251825260209283019290910190610524565b9695505050505050565b80516001600160a01b038116811461055f575f5ffd5b919050565b5f5f60408385031215610575575f5ffd5b82516001600160401b0381111561058a575f5ffd5b830160c0818603121561059b575f5ffd5b6105a3610407565b81516001600160401b038111156105b8575f5ffd5b6105c48782850161045f565b82525060208201516001600160401b038111156105df575f5ffd5b6105eb8782850161045f565b6020830152506040828101519082015260608201516001600160401b03811115610613575f5ffd5b61061f878285016104ca565b60608301525060808201516001600160401b0381111561063d575f5ffd5b6106498782850161045f565b60808301525060a08201516001600160401b03811115610667575f5ffd5b610673878285016104ca565b60a0830152509250610689905060208401610549565b90509250929050565b600181811c908216806106a657607f821691505b6020821081036106c457634e487b7160e01b5f52602260045260245ffd5b50919050565b601f82111561071157805f5260205f20601f840160051c810160208510156106ef5750805b601f840160051c820191505b8181101561070e575f81556001016106fb565b50505b505050565b81516001600160401b0381111561072f5761072f6103f3565b6107438161073d8454610692565b846106ca565b6020601f821160018114610775575f831561075e5750848201515b5f19600385901b1c1916600184901b17845561070e565b5f84815260208120601f198516915b828110156107a45787850151825560209485019460019092019101610784565b50848210156107c157868401515f19600387901b60f8161c191681555b50505050600190811b01905550565b634e487b7160e01b5f52603260045260245ffd5b634e487b7160e01b5f52601160045260245ffd5b8082018082111561080b5761080b6107e4565b92915050565b5f60ff821660ff8103610826576108266107e4565b60010192915050565b60805160a05160c05160e05161010051610120516101405161016051610180516101a0516101c0516101e05161020051610220516102405161026051610280516102a0516102c0516102e05161030051613e09610a1e5f395f81816116cc01528181611b3c0152818161214801526121a701525f81816116a501528181611af3015281816120a3015261210201525f818161167601528181611aaa01528181611ffe015261205d01525f818161164701528181611a6101528181611f590152611fb801525f818161161801528181611a1801528181611eb40152611f1301525f81816115e9015281816119c501528181611e0f0152611e6e01525f81816115ba0152818161197c01528181611d6a0152611dc901525f818161158b0152818161193d01528181611cd40152611d2d01525f50505f50505f50505f50505f50505f50505f50505f50505f50505f8181610c5101528181610dfd01528181610e7b01528181610f2e015261127401525f81816103a1015281816105530152818161064c01528181610729015281816108f20152818161098101528181610ab401528181610daa01528181610ffc0152818161108b0152818161111e015281816111bd015281816113a00152818161145f01528181611723015261186701525f6117bd01525f6117950152613e095ff3fe608060405234801561000f575f5ffd5b50600436106101cb575f3560e01c806301ffc9a7146101cf57806306fdde0314610208578063095ea7b31461021d57806316a0b3e01461023057806318160ddd1461025157806319f32ccd1461025957806323b872dd1461026e57806323de665114610281578063273c1adf1461029457806330adf81f146102a2578063313ce567146102b65780633644e515146102c55780633f3353de146102cd57806353b79bd7146102e057806354fd4d50146102f55780635687f2b8146102fd578063627cdcb914610310578063654cf15d14610318578063679aefce1461032657806370a082311461032e57806372c98186146103415780637ecebe001461035457806381fa807c1461036757806384b0196e146103845780638d928af81461039f57806395d89b41146103cd578063984de9e8146103d5578063a9059cbb146103e8578063aa6ca808146103fb578063abb1dc4414610410578063b156aa0a14610428578063b677fa561461043d578063c0bc6f331461044b578063ce20ece714610460578063d335b0cf1461046c578063d505accf14610474578063d67f280b14610487578063dd62ed3e1461048f578063f89f27ed146104a2575b5f5ffd5b6101f36101dd366004612f88565b6001600160e01b0319166301ffc9a760e01b1490565b60405190151581526020015b60405180910390f35b6102106104aa565b6040516101ff9190612fdd565b6101f361022b36600461300e565b61053a565b61024361023e366004613175565b6105d8565b6040519081526020016101ff565b610243610633565b61026c6102673660046131be565b6106c5565b005b6101f361027c3660046131de565b6106f3565b61026c61028f3660046131de565b6107a0565b6729a2241af62c0000610243565b6102435f516020613db45f395f51905f5281565b604051601281526020016101ff565b6102436107fa565b61026c6102db36600461321c565b610803565b6102e86108b0565b6040516101ff91906132d1565b610210610a1a565b61026c61030b3660046131de565b610a29565b61026c610a76565b67016345785d8a0000610243565b610243610a82565b61024361033c36600461337d565b610a9b565b61024361034f36600461341a565b610b2a565b61024361036236600461337d565b610c2f565b61036f610c4c565b604080519283526020830191909152016101ff565b61038c610cf0565b6040516101ff97969594939291906134ee565b7f00000000000000000000000000000000000000000000000000000000000000006040516101ff919061354f565b610210610d32565b6102436103e3366004613563565b610d41565b6101f36103f636600461300e565b610d91565b610403610de3565b6040516101ff91906135ea565b610418610e73565b6040516101ff9493929190613610565b610430610f14565b6040516101ff91906136d1565b6709b6e64a8ec60000610243565b610453610fa4565b6040516101ff91906136e3565b6509184e72a000610243565b61024361125b565b61026c610482366004613761565b6112a9565b610430611426565b61024361049d3660046137d2565b611430565b6104306114d1565b6060600380546104b9906137fe565b80601f01602080910402602001604051908101604052809291908181526020018280546104e5906137fe565b80156105305780601f1061050757610100808354040283529160200191610530565b820191905f5260205f20905b81548152906001019060200180831161051357829003601f168201915b5050505050905090565b60405163e1f21c6760e01b81525f906001600160a01b037f0000000000000000000000000000000000000000000000000000000000000000169063e1f21c679061058c90339087908790600401613836565b6020604051808303815f875af11580156105a8573d5f5f3e3d5ffd5b505050506040513d601f19601f820116820180604052508101906105cc9190613869565b50600190505b92915050565b5f5f8484815181106105ec576105ec613882565b6020026020010151905061060981610603866114db565b85611528565b91508181116106215761061c8482611580565b61062b565b61062b8483611580565b509392505050565b6040516339370aa960e21b81525f906001600160a01b037f0000000000000000000000000000000000000000000000000000000000000000169063e4dc2aa49061068190309060040161354f565b602060405180830381865afa15801561069c573d5f5f3e3d5ffd5b505050506040513d601f19601f820116820180604052508101906106c09190613896565b905090565b6006548210156106ef5780600683815481106106e3576106e3613882565b5f918252602090912001555b5050565b604051630aed65f560e11b81523360048201526001600160a01b0384811660248301528381166044830152606482018390525f917f0000000000000000000000000000000000000000000000000000000000000000909116906315dacbea906084016020604051808303815f875af1158015610771573d5f5f3e3d5ffd5b505050506040513d601f19601f820116820180604052508101906107959190613869565b506001949350505050565b6107a8611718565b816001600160a01b0316836001600160a01b03167fddf252ad1be2c89b69c2b068fc378daa952ba7f163c4a11628f55a4df523b3ef836040516107ed91815260200190565b60405180910390a3505050565b5f6106c0611765565b60208101518151670de0b6b3a76400009161081d916138c1565b146108675760405162461bcd60e51b81526020600482015260156024820152745765696768747320646f6e277420746f74616c203160581b60448201526064015b60405180910390fd5b8051600680545f9061087b5761087b613882565b5f91825260209091200155806001602002015160066001815481106108a2576108a2613882565b5f9182526020909120015550565b6108db6040518060800160405280606081526020016060815260200160608152602001606081525090565b60405163ca4f280360e01b81526001600160a01b037f0000000000000000000000000000000000000000000000000000000000000000169063ca4f28039061092790309060040161354f565b5f60405180830381865afa158015610941573d5f5f3e3d5ffd5b505050506040513d5f823e601f3d908101601f191682016040526109689190810190613938565b8152604051633f1b0def60e11b81526001600160a01b037f00000000000000000000000000000000000000000000000000000000000000001690637e361bde906109b690309060040161354f565b5f60405180830381865afa1580156109d0573d5f5f3e3d5ffd5b505050506040513d5f823e601f3d908101601f191682016040526109f791908101906139c4565b506020820152610a0561180d565b6040820152610a12611862565b606082015290565b6060600580546104b9906137fe565b610a31611718565b816001600160a01b0316836001600160a01b03167f8c5be1e5ebec7d5bd14f71427d1e84f3dd0314c0f7b2291e5b200ac8c7c3b925836040516107ed91815260200190565b610a7f33611b7f565b50565b5f60405162c73cd160e51b815260040160405180910390fd5b604051633de222bb60e21b81525f906001600160a01b037f0000000000000000000000000000000000000000000000000000000000000000169063f7888aec90610aeb9030908690600401613a29565b602060405180830381865afa158015610b06573d5f5f3e3d5ffd5b505050506040513d601f19601f820116820180604052508101906105d29190613896565b5f5f8260400151836060015181518110610b4657610b46613882565b60200260200101516001610b5a91906138c1565b90505f8360400151846080015181518110610b7757610b77613882565b602002602001015190505f610b90856060015184611580565b5f85516001811115610ba457610ba46135fc565b03610bdc57610bd283610bba87606001516114db565b84610bc889608001516114db565b8960200151611ba1565b9350839050610c0f565b610c0583610bed87606001516114db565b84610bfb89608001516114db565b8960200151611c30565b9350846020015190505b6080850151610c2790610c228385613a43565b611580565b505050919050565b6001600160a01b0381165f908152600260205260408120546105d2565b5f5f5f7f00000000000000000000000000000000000000000000000000000000000000006001600160a01b031663f29486a1306040518263ffffffff1660e01b8152600401610c9b919061354f565b6101a060405180830381865afa158015610cb7573d5f5f3e3d5ffd5b505050506040513d601f19601f82011682018060405250810190610cdb9190613afa565b90508060400151925080606001519150509091565b5f6060805f5f5f6060610d01611cb3565b610d09611cc1565b604080515f80825260208201909252600f60f81b9b939a50919850469750309650945092509050565b6060600480546104b9906137fe565b5f610d4b83611cd0565b612f805f836001811115610d6157610d616135fc565b14610d6e576121e2610d72565b6122705b9050610d89610d7f61180d565b858363ffffffff16565b949350505050565b6040516317d5759960e31b81525f906001600160a01b037f0000000000000000000000000000000000000000000000000000000000000000169063beabacc89061058c90339087908790600401613836565b60405163ca4f280360e01b81526060906001600160a01b037f0000000000000000000000000000000000000000000000000000000000000000169063ca4f280390610e3290309060040161354f565b5f60405180830381865afa158015610e4c573d5f5f3e3d5ffd5b505050506040513d5f823e601f3d908101601f191682016040526106c09190810190613938565b6060806060807f00000000000000000000000000000000000000000000000000000000000000006001600160a01b03166367e0e076306040518263ffffffff1660e01b8152600401610ec5919061354f565b5f60405180830381865afa158015610edf573d5f5f3e3d5ffd5b505050506040513d5f823e601f3d908101601f19168201604052610f069190810190613bb3565b935093509350935090919293565b6040516329ae7ec560e11b81526060906001600160a01b037f0000000000000000000000000000000000000000000000000000000000000000169063535cfd8a90610f6390309060040161354f565b5f60405180830381865afa158015610f7d573d5f5f3e3d5ffd5b505050506040513d5f823e601f3d908101601f191682016040526106c09190810190613d0e565b610fe56040518060e0016040528060608152602001606081526020015f81526020015f81526020015f151581526020015f151581526020015f151581525090565b6040516329ae7ec560e11b81526001600160a01b037f0000000000000000000000000000000000000000000000000000000000000000169063535cfd8a9061103190309060040161354f565b5f60405180830381865afa15801561104b573d5f5f3e3d5ffd5b505050506040513d5f823e601f3d908101601f191682016040526110729190810190613d0e565b8152604051633f1b0def60e11b81526001600160a01b037f00000000000000000000000000000000000000000000000000000000000000001690637e361bde906110c090309060040161354f565b5f60405180830381865afa1580156110da573d5f5f3e3d5ffd5b505050506040513d5f823e601f3d908101601f1916820160405261110191908101906139c4565b60208301525060405163b45090f960e01b81526001600160a01b037f0000000000000000000000000000000000000000000000000000000000000000169063b45090f99061115390309060040161354f565b602060405180830381865afa15801561116e573d5f5f3e3d5ffd5b505050506040513d601f19601f820116820180604052508101906111929190613896565b604082015261119f610633565b606082015260405163f29486a160e01b81525f906001600160a01b037f0000000000000000000000000000000000000000000000000000000000000000169063f29486a1906111f290309060040161354f565b6101a060405180830381865afa15801561120e573d5f5f3e3d5ffd5b505050506040513d601f19601f820116820180604052508101906112329190613afa565b60e081015115156080840152610100810151151560a08401526101200151151560c08301525090565b60405163b45090f960e01b81525f906001600160a01b037f0000000000000000000000000000000000000000000000000000000000000000169063b45090f99061068190309060040161354f565b834211156112cd5760405163313c898160e11b81526004810185905260240161085e565b5f5f516020613db45f395f51905f528888886112e88c611b7f565b6040805160208101969096526001600160a01b0394851690860152929091166060840152608083015260a082015260c0810186905260e0016040516020818303038152906040528051906020012090505f611342826122dd565b90505f61135182878787612309565b9050896001600160a01b0316816001600160a01b03161461138957808a6040516325c0072360e11b815260040161085e929190613a29565b60405163e1f21c6760e01b81526001600160a01b037f0000000000000000000000000000000000000000000000000000000000000000169063e1f21c67906113d9908d908d908d90600401613836565b6020604051808303815f875af11580156113f5573d5f5f3e3d5ffd5b505050506040513d601f19601f820116820180604052508101906114199190613869565b5050505050505050505050565b60606106c0611862565b60405163927da10560e01b81523060048201526001600160a01b03838116602483015282811660448301525f917f00000000000000000000000000000000000000000000000000000000000000009091169063927da10590606401602060405180830381865afa1580156114a6573d5f5f3e3d5ffd5b505050506040513d601f19601f820116820180604052508101906114ca9190613896565b9392505050565b60606106c061180d565b6006545f9082101561150a57600682815481106114fa576114fa613882565b905f5260205f2001549050919050565b60405163c1ab6dc160e01b815260040160405180910390fd5b919050565b5f612f80670de0b6b3a764000083116115435761231f611547565b61233f5b90505f61156a611563670de0b6b3a7640000878563ffffffff16565b8590612353565b90506115768682612406565b9695505050505050565b5f825f036115af57507f00000000000000000000000000000000000000000000000000000000000000006116ec565b826001036115de57507f00000000000000000000000000000000000000000000000000000000000000006116ec565b8260020361160d57507f00000000000000000000000000000000000000000000000000000000000000006116ec565b8260030361163c57507f00000000000000000000000000000000000000000000000000000000000000006116ec565b8260040361166b57507f00000000000000000000000000000000000000000000000000000000000000006116ec565b8260050361169a57507f00000000000000000000000000000000000000000000000000000000000000006116ec565b826006036116c957507f00000000000000000000000000000000000000000000000000000000000000006116ec565b507f00000000000000000000000000000000000000000000000000000000000000005b808210156117135782828260405163d63c023360e01b815260040161085e93929190613d3f565b505050565b336001600160a01b037f00000000000000000000000000000000000000000000000000000000000000001614611763573360405163089676d560e01b815260040161085e919061354f565b565b5f6106c0604080517f8b73c3c69bb8fe3d512ecc4cf759cc79239f7b179b0ffacaa9a75d522b39400f60208201527f0000000000000000000000000000000000000000000000000000000000000000918101919091527f000000000000000000000000000000000000000000000000000000000000000060608201524660808201523060a08201525f9060c00160405160208183030381529060405280519060200120905090565b6060600680548060200260200160405190810160405280929190818152602001828054801561053057602002820191905f5260205f20905b815481526020019060010190808311611845575050505050905090565b60605f7f00000000000000000000000000000000000000000000000000000000000000006001600160a01b031663ca4f2803306040518263ffffffff1660e01b81526004016118b1919061354f565b5f60405180830381865afa1580156118cb573d5f5f3e3d5ffd5b505050506040513d5f823e601f3d908101601f191682016040526118f29190810190613938565b8051909150806001600160401b0381111561190f5761190f613038565b604051908082528060200260200182016040528015611938578160200160208202803683370190505b5092507f0000000000000000000000000000000000000000000000000000000000000000835f8151811061196e5761196e613882565b6020026020010181815250507f0000000000000000000000000000000000000000000000000000000000000000836001815181106119ae576119ae613882565b6020026020010181815250506002811115611a08577f0000000000000000000000000000000000000000000000000000000000000000836002815181106119f7576119f7613882565b602002602001018181525050611a0d565b505090565b6003811115611a08577f000000000000000000000000000000000000000000000000000000000000000083600381518110611a4a57611a4a613882565b6020026020010181815250506004811115611a08577f000000000000000000000000000000000000000000000000000000000000000083600481518110611a9357611a93613882565b6020026020010181815250506005811115611a08577f000000000000000000000000000000000000000000000000000000000000000083600581518110611adc57611adc613882565b6020026020010181815250506006811115611a08577f000000000000000000000000000000000000000000000000000000000000000083600681518110611b2557611b25613882565b6020026020010181815250506007811115611a08577f000000000000000000000000000000000000000000000000000000000000000083600781518110611b6e57611b6e613882565b602002602001018181525050505090565b6001600160a01b03165f90815260026020526040902080546001810190915590565b5f611bb486670429d069189e0000612432565b821115611bd45760405163340a453360e01b815260040160405180910390fd5b5f611bdf83886138c1565b90505f611bec888361233f565b90505f611bf9888761231f565b90505f611c068383612353565b9050611c22670de0b6b3a7640000828103908310028990612432565b9a9950505050505050505050565b5f611c4384670429d069189e0000612432565b821115611c63576040516364590b9f60e01b815260040160405180910390fd5b5f611c78611c718487613a43565b869061233f565b90505f611c85858861233f565b90505f611c928383612353565b90505f611ca7670de0b6b3a764000083613a43565b9050611c228a82612406565b60605f80546104b9906137fe565b6060600180546104b9906137fe565b80517f0000000000000000000000000000000000000000000000000000000000000000825f83611d0257611d02613882565b60200260200101511015611d68575f825f81518110611d2357611d23613882565b60200260200101517f000000000000000000000000000000000000000000000000000000000000000060405163d63c023360e01b815260040161085e93929190613d3f565b7f000000000000000000000000000000000000000000000000000000000000000082600181518110611d9c57611d9c613882565b60200260200101511015611e0457600182600181518110611dbf57611dbf613882565b60200260200101517f000000000000000000000000000000000000000000000000000000000000000060405163d63c023360e01b815260040161085e93929190613d3f565b60028111156106ef577f000000000000000000000000000000000000000000000000000000000000000082600281518110611e4157611e41613882565b60200260200101511015611ea957600282600281518110611e6457611e64613882565b60200260200101517f000000000000000000000000000000000000000000000000000000000000000060405163d63c023360e01b815260040161085e93929190613d3f565b60038111156106ef577f000000000000000000000000000000000000000000000000000000000000000082600381518110611ee657611ee6613882565b60200260200101511015611f4e57600382600381518110611f0957611f09613882565b60200260200101517f000000000000000000000000000000000000000000000000000000000000000060405163d63c023360e01b815260040161085e93929190613d3f565b60048111156106ef577f000000000000000000000000000000000000000000000000000000000000000082600481518110611f8b57611f8b613882565b60200260200101511015611ff357600482600481518110611fae57611fae613882565b60200260200101517f000000000000000000000000000000000000000000000000000000000000000060405163d63c023360e01b815260040161085e93929190613d3f565b60058111156106ef577f00000000000000000000000000000000000000000000000000000000000000008260058151811061203057612030613882565b602002602001015110156120985760058260058151811061205357612053613882565b60200260200101517f000000000000000000000000000000000000000000000000000000000000000060405163d63c023360e01b815260040161085e93929190613d3f565b60068111156106ef577f0000000000000000000000000000000000000000000000000000000000000000826006815181106120d5576120d5613882565b6020026020010151101561213d576006826006815181106120f8576120f8613882565b60200260200101517f000000000000000000000000000000000000000000000000000000000000000060405163d63c023360e01b815260040161085e93929190613d3f565b60078111156106ef577f00000000000000000000000000000000000000000000000000000000000000008260078151811061217a5761217a613882565b602002602001015110156106ef5760078260078151811061219d5761219d613882565b60200260200101517f000000000000000000000000000000000000000000000000000000000000000060405163d63c023360e01b815260040161085e93929190613d3f565b670de0b6b3a76400005f5b835181101561224f5761224561223e85838151811061220e5761220e613882565b602002602001015185848151811061222857612228613882565b602002602001015161245290919063ffffffff16565b8390612432565b91506001016121ed565b50805f036105d257604051632654368960e01b815260040160405180910390fd5b670de0b6b3a76400005f5b835181101561224f576122d36122cc85838151811061229c5761229c613882565b60200260200101518584815181106122b6576122b6613882565b602002602001015161235390919063ffffffff16565b8390612406565b915060010161227b565b5f6105d26122e9611765565b8360405161190160f01b8152600281019290925260228201526042902090565b5f612316858585856124fe565b95945050505050565b5f80612333670de0b6b3a764000085613d55565b9050610d898382613d80565b5f6114ca83670de0b6b3a764000084612543565b5f670de0b6b3a7640000820361236a5750816105d2565b61237d670de0b6b3a76400006002613d55565b82036123945761238d8384612406565b90506105d2565b6123a7670de0b6b3a76400006004613d55565b82036123cc575f6123b88485612406565b90506123c48182612406565b9150506105d2565b5f6123d78484612588565b90505f6123e682612710612406565b6123f19060016138c1565b90506123fd81836138c1565b925050506105d2565b5f806124128385613d55565b90506001670de0b6b3a76400006001830304018115150291505092915050565b5f8061243e8385613d55565b9050610d89670de0b6b3a764000082613d80565b5f670de0b6b3a764000082036124695750816105d2565b61247c670de0b6b3a76400006002613d55565b820361248c5761238d8384612432565b61249f670de0b6b3a76400006004613d55565b82036124bc575f6124b08485612432565b90506123c48182612432565b5f6124c78484612588565b90505f6124d682612710612406565b6124e19060016138c1565b9050808210156124f5575f925050506105d2565b900390506105d2565b5f604051855f5260ff851660205283604052826060526020600160805f60015afa5191503d61253457638baa579f5f526004601cfd5b5f606052604052949350505050565b5f815f0361256457604051630a0c22c760e01b815260040160405180910390fd5b5f61256f8486613d55565b9050600183600183030401811515029150509392505050565b5f815f0361259f5750670de0b6b3a76400006105d2565b825f036125ad57505f6105d2565b60ff83901c156125cf576040516211380f60e51b815260040160405180910390fd5b826125e768056bc75e2d63100000600160fe1b613d80565b83106126065760405163d831731160e01b815260040160405180910390fd5b825f670c7d713b49da0000831380156126265750670f43fc2c04ee000083125b1561265c575f612635846126be565b9050670de0b6b3a764000080820784020583670de0b6b3a76400008305020191505061266a565b81612666846127db565b0290505b670de0b6b3a76400009005680238fd42c5cf03ffff198112801590612698575068070c1cc73b00c800008113155b6126b55760405163a2f9f7e360e01b815260040160405180910390fd5b61157681612b85565b670de0b6b3a7640000025f806a0c097ce7bc90715b34b9f160241b808401906ec097ce7bc90715b34b9f0fffffffff19850102816126fe576126fe613d6c565b0590505f6a0c097ce7bc90715b34b9f160241b82800205905081806a0c097ce7bc90715b34b9f160241b81840205915060038205016a0c097ce7bc90715b34b9f160241b82840205915060058205016a0c097ce7bc90715b34b9f160241b82840205915060078205016a0c097ce7bc90715b34b9f160241b82840205915060098205016a0c097ce7bc90715b34b9f160241b828402059150600b8205016a0c097ce7bc90715b34b9f160241b828402059150600d8205016a0c097ce7bc90715b34b9f160241b828402059150600f82050160020295945050505050565b5f80670de0b6b3a764000083121561281257826a0c097ce7bc90715b34b9f160241b8161280a5761280a613d6c565b059250600190505b5f775803bcc5cb9634ba4cfb2213f784019318ed4dcb6017880f60361b841261285c5772195e54c5dd42177f53a27172fa9ec63026282760241b840593506806f05b59d3b2000000015b6f8bcc0026baae9e45e470190267a230cf60191b8412612893576b1425982cf597cd205cef7380840593506803782dace9d9000000015b606493840293026e01855144814a7ff805980ff008400084126128db576e01855144814a7ff805980ff008400068056bc75e2d63100000850205935068ad78ebc5ac62000000015b6b02df0ab5a80a22c61ab5a7008412612916576b02df0ab5a80a22c61ab5a70068056bc75e2d6310000085020593506856bc75e2d631000000015b693f1fce3da636ea5cf850841261294d57693f1fce3da636ea5cf85068056bc75e2d631000008502059350682b5e3af16b18800000015b690127fa27722cc06cc5e2841261298457690127fa27722cc06cc5e268056bc75e2d6310000085020593506815af1d78b58c400000015b68280e60114edb805d0384126129b95768280e60114edb805d0368056bc75e2d631000008502059350680ad78ebc5ac6200000015b680ebc5fb4174612111084126129e457680ebc5fb4174612111068056bc75e2d631000009485020593015b6808f00f760a4b2db55d8412612a19576808f00f760a4b2db55d68056bc75e2d6310000085020593506802b5e3af16b1880000015b6806f5f17757889379378412612a4e576806f5f177578893793768056bc75e2d63100000850205935068015af1d78b58c40000015b6806248f33704b2866038412612a82576806248f33704b28660368056bc75e2d63100000850205935067ad78ebc5ac620000015b6805c548670b9510e7ac8412612ab6576805c548670b9510e7ac68056bc75e2d6310000085020593506756bc75e2d6310000015b5f68056bc75e2d63100000850168056bc75e2d631000008087030281612ade57612ade613d6c565b0590505f68056bc75e2d63100000828002059050818068056bc75e2d63100000818402059150600382050168056bc75e2d63100000828402059150600582050168056bc75e2d63100000828402059150600782050168056bc75e2d63100000828402059150600982050168056bc75e2d63100000828402059150600b8205016002025f606486830105905086612b745780612b78565b805f035b9998505050505050505050565b5f680238fd42c5cf03ffff198212158015612ba9575068070c1cc73b00c800008213155b612bc65760405163d4794efd60e01b815260040160405180910390fd5b5f80831215612bd957825f039250600190505b5f6806f05b59d3b20000008412612c1657506806f05b59d3b1ffffff199092019172195e54c5dd42177f53a27172fa9ec63026282760241b612c4c565b6803782dace9d90000008412612c4857506803782dace9d8ffffff19909201916b1425982cf597cd205cef7380612c4c565b5060015b6064939093029268056bc75e2d6310000068ad78ebc5ac620000008512612c9c5768ad78ebc5ac61ffffff199094019368056bc75e2d631000006e01855144814a7ff805980ff008400082020590505b6856bc75e2d6310000008512612cd8576856bc75e2d630ffffff199094019368056bc75e2d631000006b02df0ab5a80a22c61ab5a70082020590505b682b5e3af16b188000008512612d1257682b5e3af16b187fffff199094019368056bc75e2d63100000693f1fce3da636ea5cf85082020590505b6815af1d78b58c4000008512612d4c576815af1d78b58c3fffff199094019368056bc75e2d63100000690127fa27722cc06cc5e282020590505b680ad78ebc5ac62000008512612d8557680ad78ebc5ac61fffff199094019368056bc75e2d6310000068280e60114edb805d0382020590505b68056bc75e2d631000008512612dbe5768056bc75e2d630fffff199094019368056bc75e2d63100000680ebc5fb4174612111082020590505b6802b5e3af16b18800008512612df7576802b5e3af16b187ffff199094019368056bc75e2d631000006808f00f760a4b2db55d82020590505b68015af1d78b58c400008512612e305768015af1d78b58c3ffff199094019368056bc75e2d631000006806f5f177578893793782020590505b68056bc75e2d631000008581019086906002908280020505918201919050600368056bc75e2d631000008883020505918201919050600468056bc75e2d631000008883020505918201919050600568056bc75e2d631000008883020505918201919050600668056bc75e2d631000008883020505918201919050600768056bc75e2d631000008883020505918201919050600868056bc75e2d631000008883020505918201919050600968056bc75e2d631000008883020505918201919050600a68056bc75e2d631000008883020505918201919050600b68056bc75e2d631000008883020505918201919050600c68056bc75e2d6310000088830205059182019190505f606468056bc75e2d6310000085850205860205905085612f555780612f74565b806a0c097ce7bc90715b34b9f160241b81612f7257612f72613d6c565b055b98975050505050505050565b611763613d9f565b5f60208284031215612f98575f5ffd5b81356001600160e01b0319811681146114ca575f5ffd5b5f81518084528060208401602086015e5f602082860101526020601f19601f83011685010191505092915050565b602081525f6114ca6020830184612faf565b6001600160a01b0381168114610a7f575f5ffd5b803561152381612fef565b5f5f6040838503121561301f575f5ffd5b823561302a81612fef565b946020939093013593505050565b634e487b7160e01b5f52604160045260245ffd5b60405160e081016001600160401b038111828210171561306e5761306e613038565b60405290565b60405161014081016001600160401b038111828210171561306e5761306e613038565b604051606081016001600160401b038111828210171561306e5761306e613038565b604051601f8201601f191681016001600160401b03811182821017156130e1576130e1613038565b604052919050565b5f6001600160401b0382111561310157613101613038565b5060051b60200190565b5f82601f83011261311a575f5ffd5b813561312d613128826130e9565b6130b9565b8082825260208201915060208360051b86010192508583111561314e575f5ffd5b602085015b8381101561316b578035835260209283019201613153565b5095945050505050565b5f5f5f60608486031215613187575f5ffd5b83356001600160401b0381111561319c575f5ffd5b6131a88682870161310b565b9660208601359650604090950135949350505050565b5f5f604083850312156131cf575f5ffd5b50508035926020909101359150565b5f5f5f606084860312156131f0575f5ffd5b83356131fb81612fef565b9250602084013561320b81612fef565b929592945050506040919091013590565b5f6040828403121561322c575f5ffd5b82601f83011261323a575f5ffd5b604080519081016001600160401b038111828210171561325c5761325c613038565b8060405250806040840185811115613272575f5ffd5b845b8181101561328c578035835260209283019201613274565b509195945050505050565b5f8151808452602084019350602083015f5b828110156132c75781518652602095860195909101906001016132a9565b5093949350505050565b60208082528251608083830152805160a084018190525f929190910190829060c08501905b808310156133225783516001600160a01b031682526020820191506020840193506001830192506132f6565b506020860151858203601f1901604087015292506133408184613297565b925050506040840151601f1984830301606085015261335f8282613297565b9150506060840151601f198483030160808501526123168282613297565b5f6020828403121561338d575f5ffd5b81356114ca81612fef565b60028110610a7f575f5ffd5b803561152381613398565b5f82601f8301126133be575f5ffd5b81356001600160401b038111156133d7576133d7613038565b6133ea601f8201601f19166020016130b9565b8181528460208386010111156133fe575f5ffd5b816020850160208301375f918101602001919091529392505050565b5f6020828403121561342a575f5ffd5b81356001600160401b0381111561343f575f5ffd5b820160e08185031215613450575f5ffd5b61345861304c565b613461826133a4565b81526020828101359082015260408201356001600160401b03811115613485575f5ffd5b6134918682850161310b565b60408301525060608281013590820152608080830135908201526134b760a08301613003565b60a082015260c08201356001600160401b038111156134d4575f5ffd5b6134e0868285016133af565b60c083015250949350505050565b60ff60f81b8816815260e060208201525f61350c60e0830189612faf565b828103604084015261351e8189612faf565b606084018890526001600160a01b038716608085015260a0840186905283810360c08501529050611c228185613297565b6001600160a01b0391909116815260200190565b5f5f60408385031215613574575f5ffd5b82356001600160401b03811115613589575f5ffd5b6135958582860161310b565b92505060208301356135a681613398565b809150509250929050565b5f8151808452602084019350602083015f5b828110156132c75781516001600160a01b03168652602095860195909101906001016135c3565b602081525f6114ca60208301846135b1565b634e487b7160e01b5f52602160045260245ffd5b608081525f61362260808301876135b1565b82810360208401528086518083526020830191506020880192505f5b8181101561369d57835180516002811061366657634e487b7160e01b5f52602160045260245ffd5b84526020818101516001600160a01b031681860152604091820151151591850191909152939093019260609092019160010161363e565b505083810360408501526136b18187613297565b91505082810360608401526136c68185613297565b979650505050505050565b602081525f6114ca6020830184613297565b602081525f825160e060208401526136ff610100840182613297565b90506020840151601f1984830301604085015261371c8282613297565b91505060408401516060840152606084015160808401526080840151151560a084015260a0840151151560c084015260c0840151151560e08401528091505092915050565b5f5f5f5f5f5f5f60e0888a031215613777575f5ffd5b873561378281612fef565b9650602088013561379281612fef565b95506040880135945060608801359350608088013560ff811681146137b5575f5ffd5b9699959850939692959460a0840135945060c09093013592915050565b5f5f604083850312156137e3575f5ffd5b82356137ee81612fef565b915060208301356135a681612fef565b600181811c9082168061381257607f821691505b60208210810361383057634e487b7160e01b5f52602260045260245ffd5b50919050565b6001600160a01b039384168152919092166020820152604081019190915260600190565b80518015158114611523575f5ffd5b5f60208284031215613879575f5ffd5b6114ca8261385a565b634e487b7160e01b5f52603260045260245ffd5b5f602082840312156138a6575f5ffd5b5051919050565b634e487b7160e01b5f52601160045260245ffd5b808201808211156105d2576105d26138ad565b5f82601f8301126138e3575f5ffd5b81516138f1613128826130e9565b8082825260208201915060208360051b860101925085831115613912575f5ffd5b602085015b8381101561316b57805161392a81612fef565b835260209283019201613917565b5f60208284031215613948575f5ffd5b81516001600160401b0381111561395d575f5ffd5b610d89848285016138d4565b5f82601f830112613978575f5ffd5b8151613986613128826130e9565b8082825260208201915060208360051b8601019250858311156139a7575f5ffd5b602085015b8381101561316b5780518352602092830192016139ac565b5f5f604083850312156139d5575f5ffd5b82516001600160401b038111156139ea575f5ffd5b6139f685828601613969565b602085015190935090506001600160401b03811115613a13575f5ffd5b613a1f85828601613969565b9150509250929050565b6001600160a01b0392831681529116602082015260400190565b818103818111156105d2576105d26138ad565b5f60808284031215613a66575f5ffd5b604051608081016001600160401b0381118282101715613a8857613a88613038565b604052905080613a978361385a565b8152613aa56020840161385a565b6020820152613ab66040840161385a565b6040820152613ac76060840161385a565b60608201525092915050565b805164ffffffffff81168114611523575f5ffd5b805163ffffffff81168114611523575f5ffd5b5f6101a0828403128015613b0c575f5ffd5b50613b15613074565b613b1f8484613a56565b81526080830151602082015260a0830151604082015260c08301516060820152613b4b60e08401613ad3565b6080820152613b5d6101008401613ae7565b60a0820152613b6f610120840161385a565b60c0820152613b81610140840161385a565b60e0820152613b93610160840161385a565b610100820152613ba6610180840161385a565b6101208201529392505050565b5f5f5f5f60808587031215613bc6575f5ffd5b84516001600160401b03811115613bdb575f5ffd5b613be7878288016138d4565b602087015190955090506001600160401b03811115613c04575f5ffd5b8501601f81018713613c14575f5ffd5b8051613c22613128826130e9565b80828252602082019150602060608402850101925089831115613c43575f5ffd5b6020840193505b82841015613cae576060848b031215613c61575f5ffd5b613c69613097565b8451613c7481613398565b81526020850151613c8481612fef565b6020820152613c956040860161385a565b6040820152825260609390930192602090910190613c4a565b6040890151909650925050506001600160401b03811115613ccd575f5ffd5b613cd987828801613969565b606087015190935090506001600160401b03811115613cf6575f5ffd5b613d0287828801613969565b91505092959194509250565b5f60208284031215613d1e575f5ffd5b81516001600160401b03811115613d33575f5ffd5b610d8984828501613969565b9283526020830191909152604082015260600190565b80820281158282048414176105d2576105d26138ad565b634e487b7160e01b5f52601260045260245ffd5b5f82613d9a57634e487b7160e01b5f52601260045260245ffd5b500490565b634e487b7160e01b5f52605160045260245ffdfe6e71edae12b1b97f4d1f60370fef10105fa2faae0126114a169c64845d6126c9a2646970667358221220aa7b5dc4d57ec4dea25d6131d5ba73ea7252cf8084731f492fc6fea5478fbb4064736f6c634300081e0033","linkReferences":{}},"methodIdentifiers":{"DOMAIN_SEPARATOR()":"3644e515","PERMIT_TYPEHASH()":"30adf81f","allowance(address,address)":"dd62ed3e","approve(address,uint256)":"095ea7b3","balanceOf(address)":"70a08231","computeBalance(uint256[],uint256,uint256)":"16a0b3e0","computeInvariant(uint256[],uint8)":"984de9e8","decimals()":"313ce567","eip712Domain()":"84b0196e","emitApproval(address,address,uint256)":"5687f2b8","emitTransfer(address,address,uint256)":"23de6651","getAggregateFeePercentages()":"81fa807c","getCurrentLiveBalances()":"b156aa0a","getMaximumInvariantRatio()":"273c1adf","getMaximumSwapFeePercentage()":"654cf15d","getMinTokenBalances()":"d67f280b","getMinimumInvariantRatio()":"b677fa56","getMinimumSwapFeePercentage()":"ce20ece7","getNormalizedWeights()":"f89f27ed","getRate()":"679aefce","getStaticSwapFeePercentage()":"d335b0cf","getTokenInfo()":"abb1dc44","getTokens()":"aa6ca808","getVault()":"8d928af8","getWeightedPoolDynamicData()":"c0bc6f33","getWeightedPoolImmutableData()":"53b79bd7","incrementNonce()":"627cdcb9","name()":"06fdde03","nonces(address)":"7ecebe00","onSwap((uint8,uint256,uint256[],uint256,uint256,address,bytes))":"72c98186","permit(address,address,uint256,uint256,uint8,bytes32,bytes32)":"d505accf","setNormalizedWeight(uint256,uint256)":"19f32ccd","setNormalizedWeights(uint256[2])":"3f3353de","supportsInterface(bytes4)":"01ffc9a7","symbol()":"95d89b41","totalSupply()":"18160ddd","transfer(address,uint256)":"a9059cbb","transferFrom(address,address,uint256)":"23b872dd","version()":"54fd4d50"},"id":211}