{"abi":[{"type":"constructor","inputs":[{"name":"vault","type":"address","internalType":"contract IVault"},{"name":"weth","type":"address","internalType":"contract IWETH"},{"name":"permit2","type":"address","internalType":"contract IPermit2"}],"stateMutability":"nonpayable"},{"type":"receive","stateMutability":"payable"},{"type":"function","name":"assertETHBalance","inputs":[],"outputs":[],"stateMutability":"payable"},{"type":"function","name":"call","inputs":[{"name":"to","type":"address","internalType":"address"},{"name":"data","type":"bytes","internalType":"bytes"}],"outputs":[{"name":"","type":"bytes","internalType":"bytes"}],"stateMutability":"nonpayable"},{"type":"function","name":"emitSender","inputs":[],"outputs":[],"stateMutability":"nonpayable"},{"type":"function","name":"getPermit2","inputs":[],"outputs":[{"name":"","type":"address","internalType":"contract IPermit2"}],"stateMutability":"view"},{"type":"function","name":"getSender","inputs":[],"outputs":[{"name":"","type":"address","internalType":"address"}],"stateMutability":"view"},{"type":"function","name":"getVault","inputs":[],"outputs":[{"name":"","type":"address","internalType":"contract IVault"}],"stateMutability":"view"},{"type":"function","name":"getWeth","inputs":[],"outputs":[{"name":"","type":"address","internalType":"contract IWETH"}],"stateMutability":"view"},{"type":"function","name":"manualGetSenderSlot","inputs":[],"outputs":[{"name":"","type":"bytes32","internalType":"StorageSlotExtension.AddressSlotType"}],"stateMutability":"view"},{"type":"function","name":"manualMulticallVoid","inputs":[],"outputs":[],"stateMutability":"nonpayable"},{"type":"function","name":"manualPermitBatchReentrancy","inputs":[{"name":"permitBatch","type":"tuple[]","internalType":"struct IRouterCommon.PermitApproval[]","components":[{"name":"token","type":"address","internalType":"address"},{"name":"owner","type":"address","internalType":"address"},{"name":"spender","type":"address","internalType":"address"},{"name":"amount","type":"uint256","internalType":"uint256"},{"name":"nonce","type":"uint256","internalType":"uint256"},{"name":"deadline","type":"uint256","internalType":"uint256"}]},{"name":"permitSignatures","type":"bytes[]","internalType":"bytes[]"},{"name":"permit2Batch","type":"tuple","internalType":"struct IAllowanceTransfer.PermitBatch","components":[{"name":"details","type":"tuple[]","internalType":"struct IAllowanceTransfer.PermitDetails[]","components":[{"name":"token","type":"address","internalType":"address"},{"name":"amount","type":"uint160","internalType":"uint160"},{"name":"expiration","type":"uint48","internalType":"uint48"},{"name":"nonce","type":"uint48","internalType":"uint48"}]},{"name":"spender","type":"address","internalType":"address"},{"name":"sigDeadline","type":"uint256","internalType":"uint256"}]},{"name":"permit2Signature","type":"bytes","internalType":"bytes"}],"outputs":[],"stateMutability":"nonpayable"},{"type":"function","name":"manualReturnETH","inputs":[],"outputs":[],"stateMutability":"payable"},{"type":"function","name":"mockSendTokenOut","inputs":[{"name":"sender","type":"address","internalType":"address"},{"name":"tokenOut","type":"address","internalType":"contract IERC20"},{"name":"amountOut","type":"uint256","internalType":"uint256"},{"name":"wethIsEth","type":"bool","internalType":"bool"}],"outputs":[],"stateMutability":"nonpayable"},{"type":"function","name":"mockTakeTokenIn","inputs":[{"name":"sender","type":"address","internalType":"address"},{"name":"tokenIn","type":"address","internalType":"contract IERC20"},{"name":"amountIn","type":"uint256","internalType":"uint256"},{"name":"wethIsEth","type":"bool","internalType":"bool"}],"outputs":[],"stateMutability":"nonpayable"},{"type":"function","name":"multicall","inputs":[{"name":"data","type":"bytes[]","internalType":"bytes[]"}],"outputs":[{"name":"results","type":"bytes[]","internalType":"bytes[]"}],"stateMutability":"payable"},{"type":"function","name":"permitBatchAndCall","inputs":[{"name":"permitBatch","type":"tuple[]","internalType":"struct IRouterCommon.PermitApproval[]","components":[{"name":"token","type":"address","internalType":"address"},{"name":"owner","type":"address","internalType":"address"},{"name":"spender","type":"address","internalType":"address"},{"name":"amount","type":"uint256","internalType":"uint256"},{"name":"nonce","type":"uint256","internalType":"uint256"},{"name":"deadline","type":"uint256","internalType":"uint256"}]},{"name":"permitSignatures","type":"bytes[]","internalType":"bytes[]"},{"name":"permit2Batch","type":"tuple","internalType":"struct IAllowanceTransfer.PermitBatch","components":[{"name":"details","type":"tuple[]","internalType":"struct IAllowanceTransfer.PermitDetails[]","components":[{"name":"token","type":"address","internalType":"address"},{"name":"amount","type":"uint160","internalType":"uint160"},{"name":"expiration","type":"uint48","internalType":"uint48"},{"name":"nonce","type":"uint48","internalType":"uint48"}]},{"name":"spender","type":"address","internalType":"address"},{"name":"sigDeadline","type":"uint256","internalType":"uint256"}]},{"name":"permit2Signature","type":"bytes","internalType":"bytes"},{"name":"multicallData","type":"bytes[]","internalType":"bytes[]"}],"outputs":[{"name":"","type":"bytes[]","internalType":"bytes[]"}],"stateMutability":"payable"},{"type":"function","name":"sendExtraEth","inputs":[{"name":"recipient","type":"address","internalType":"address"},{"name":"amount","type":"uint256","internalType":"uint256"}],"outputs":[],"stateMutability":"payable"},{"type":"function","name":"version","inputs":[],"outputs":[{"name":"","type":"string","internalType":"string"}],"stateMutability":"view"},{"type":"event","name":"CurrentSenderMock","inputs":[{"name":"sender","type":"address","indexed":false,"internalType":"address"}],"anonymous":false},{"type":"error","name":"AddressEmptyCode","inputs":[{"name":"target","type":"address","internalType":"address"}]},{"type":"error","name":"ErrorSelectorNotFound","inputs":[]},{"type":"error","name":"EthTransfer","inputs":[]},{"type":"error","name":"FailedCall","inputs":[]},{"type":"error","name":"InputLengthMismatch","inputs":[]},{"type":"error","name":"InsufficientBalance","inputs":[{"name":"balance","type":"uint256","internalType":"uint256"},{"name":"needed","type":"uint256","internalType":"uint256"}]},{"type":"error","name":"InsufficientEth","inputs":[]},{"type":"error","name":"OperationNotSupported","inputs":[]},{"type":"error","name":"ReentrancyGuardReentrantCall","inputs":[]},{"type":"error","name":"SwapDeadline","inputs":[]}],"bytecode":{"object":"0x600b6101409081526a14d95b99195c91dd585c9960aa1b610160526101c060405260066101809081526539b2b73232b960d11b6101a052610040919061013b565b608052604080518082018252600c81526b2937baba32b921b7b6b6b7b760a11b602080830191909152825180840190935260118352701a5cd4995d1d5c9b915d1a131bd8dad959607a1b908301526100979161013b565b60c0523480156100a5575f5ffd5b5060405161229b38038061229b8339810160408190526100c4916101d0565b60408051808201909152601481527f4d6f636b20526f75746572436f6d6d6f6e20763100000000000000000000000060208201526001600160a01b03841660a05283908390839080610115816101aa565b50506001600160a01b0391821660e052166101008190521561012052506103f092505050565b5f60ff5f1b1960018484604051602001610156929190610231565b604051602081830303815290604052805190602001205f1c610178919061027f565b60405160200161018a91815260200190565b604051602081830303815290604052805190602001201690505b92915050565b5f6101b58282610336565b5050565b6001600160a01b03811681146101cd575f5ffd5b50565b5f5f5f606084860312156101e2575f5ffd5b83516101ed816101b9565b60208501519093506101fe816101b9565b604085015190925061020f816101b9565b809150509250925092565b5f81518060208401855e5f93019283525090919050565b7f62616c616e6365722d6c6162732e76332e73746f726167652e0000000000000081525f610262601983018561021a565b601760f91b8152610276600182018561021a565b95945050505050565b818103818111156101a457634e487b7160e01b5f52601160045260245ffd5b634e487b7160e01b5f52604160045260245ffd5b600181811c908216806102c657607f821691505b6020821081036102e457634e487b7160e01b5f52602260045260245ffd5b50919050565b601f82111561033157805f5260205f20601f840160051c8101602085101561030f5750805b601f840160051c820191505b8181101561032e575f815560010161031b565b50505b505050565b81516001600160401b0381111561034f5761034f61029e565b6103638161035d84546102b2565b846102ea565b6020601f821160018114610395575f831561037e5750848201515b5f19600385901b1c1916600184901b17845561032e565b5f84815260208120601f198516915b828110156103c457878501518255602094850194600190920191016103a4565b50848210156103e157868401515f19600387901b60f8161c191681555b50505050600190811b01905550565b60805160a05160c05160e0516101005161012051611e0a6104915f395f818161032101526107cc01525f81816101c201528181610b750152610f3301525f818160e00152818161013201528181610c9701528181610cd501528181610ea70152610ee501525f610e0201525f818161027e01528181610cf601528181610d3801528181610f0601528181610f63015261100b01525f610c650152611e0a5ff3fe6080604052600436106100d0575f3560e01c8063107c279f1461012457806319c6989f146101685780631b8b921d146101885780631bbf2e23146101b4578063200216aa146101e657806320fcbaf6146101fa5780632f7e457c1461020257806354fd4d50146102165780635e01eb5a1461022a5780636dd66a631461023e5780638497145f1461025d5780638d928af8146102705780639efbffc2146102a2578063a162d14a146102aa578063ac9650d8146102c9578063ad16ff59146102dc578063f430f49d146102fb575f5ffd5b3661012057336001600160a01b037f0000000000000000000000000000000000000000000000000000000000000000161461011e576040516302a06efb60e11b815260040160405180910390fd5b005b5f5ffd5b34801561012f575f5ffd5b507f00000000000000000000000000000000000000000000000000000000000000005b60405161015f9190611481565b60405180910390f35b61017b610176366004611569565b61031d565b60405161015f919061168c565b348015610193575f5ffd5b506101a76101a2366004611713565b610385565b60405161015f9190611763565b3480156101bf575f5ffd5b507f0000000000000000000000000000000000000000000000000000000000000000610152565b3480156101f1575f5ffd5b5061011e610458565b61011e61057f565b34801561020d575f5ffd5b5061011e61058a565b348015610221575f5ffd5b506101a761061e565b348015610235575f5ffd5b506101526106ad565b348015610249575f5ffd5b5061011e610258366004611775565b6106c2565b61011e61026b3660046117c9565b6106d4565b34801561027b575f5ffd5b507f0000000000000000000000000000000000000000000000000000000000000000610152565b61011e61070c565b3480156102b5575f5ffd5b5061011e6102c43660046117f3565b610758565b61017b6102d73660046118b8565b610780565b3480156102e7575f5ffd5b5061011e6102f6366004611775565b61091c565b348015610306575f5ffd5b5061030f610928565b60405190815260200161015f565b60607f00000000000000000000000000000000000000000000000000000000000000001561035e576040516329a270f560e01b815260040160405180910390fd5b61036d8a8a8a8a8a8a8a610931565b6103778383610780565b9a9950505050505050505050565b6060335f61039282610be5565b90505f5f876001600160a01b031687876040516103b09291906118f6565b5f604051808303815f865af19150503d805f81146103e9576040519150601f19603f3d011682016040523d82523d5f602084013e6103ee565b606091505b5091509150816104435760405162461bcd60e51b815260206004820152601b60248201527a141bdbdb10dbdb5b5bdb935bd8dace8818d85b1b0819985a5b1959602a1b60448201526064015b60405180910390fd5b93505061044f81610c19565b50509392505050565b60408051600481526024810182526020810180516001600160e01b0316632f00f5ad60e11b17905290515f918291309161049191611905565b5f604051808303815f865af19150503d805f81146104ca576040519150601f19603f3d011682016040523d82523d5f602084013e6104cf565b606091505b5091509150816105315760405162461bcd60e51b815260206004820152602760248201527f526f75746572436f6d6d6f6e4d6f636b3a206661696c65642067657453656e64604482015266195c8818d85b1b60ca1b606482015260840161043a565b7fc6cb5b11c33e4bfca5f9a9a36238832ab4219e59bf915713f6aa8fd7ab118b5781806020019051810190610566919061191b565b6040516105739190611481565b60405180910390a15050565b61058833610c2b565b565b604080515f80825260208201909252309163ac9650d891906105bc565b60608152602001906001900390816105a75790505b506040518263ffffffff1660e01b81526004016105d9919061168c565b5f604051808303815f875af11580156105f4573d5f5f3e3d5ffd5b505050506040513d5f823e601f3d908101601f1916820160405261061b919081019061197a565b50565b60605f805461062c90611a9e565b80601f016020809104026020016040519081016040528092919081815260200182805461065890611a9e565b80156106a35780601f1061067a576101008083540402835291602001916106a3565b820191905f5260205f20905b81548152906001019060200180831161068657829003601f168201915b5050505050905090565b5f6106bd6106b9610c63565b5c90565b905090565b6106ce84848484610c87565b50505050565b6040516001600160a01b0383169082156108fc029083905f818181858888f19350505050158015610707573d5f5f3e3d5ffd5b505050565b33316105885760405162461bcd60e51b815260206004820152601b60248201527a042616c616e6365206d757374206265206d6f7265207468656e203602c1b604482015260640161043a565b610760610da4565b61076f87878787878787610931565b610777610de9565b50505050505050565b60605f61078c33610be5565b90506107996106b9610e00565b156107b757604051633ee5aeb560e01b815260040160405180910390fd5b6107ca60016107c4610e00565b90610e24565b7f000000000000000000000000000000000000000000000000000000000000000015610809576040516329a270f560e01b815260040160405180910390fd5b826001600160401b0381111561082157610821611936565b60405190808252806020026020018201604052801561085457816020015b606081526020019060019003908161083f5790505b5091505f5b838110156108e7576108c23086868481811061087757610877611ad0565b90506020028101906108899190611ae4565b8080601f0160208091040260200160405190810160405280939291908181526020018383808284375f92019190915250610e2b92505050565b8382815181106108d4576108d4611ad0565b6020908102919091010152600101610859565b506108f45f6107c4610e00565b5f6109006106b9610c63565b905061090b82610c19565b61091481610c2b565b505092915050565b6106ce84848484610e9d565b5f6106bd610c63565b610939610da4565b610943868561108b565b5f5b86811015610b4a575f86868381811061096057610960611ad0565b90506020028101906109729190611ae4565b8080601f0160208091040260200160405190810160405280939291908181526020018383808284375f9201829052509394506109b392508491506110ab9050565b90505f8a8a858181106109c8576109c8611ad0565b905060c002018036038101906109de9190611b26565b8051602080830151606084015160a08501516040808901518951958a0151915163d505accf60e01b81526001600160a01b0395861660048201523060248201526044810194909452606484019290925260ff909116608483015260a482019390935260c481019290925292935091169063d505accf9060e4015f604051808303815f87803b158015610a6e575f5ffd5b505af1925050508015610a7f575060015b610b3c573d808015610aac576040519150601f19603f3d011682016040523d82523d5f602084013e610ab1565b606091505b50606082015182516020840151604051636eb1769f60e11b81526001600160a01b03918216600482015230602482015291169063dd62ed3e90604401602060405180830381865afa158015610b08573d5f5f3e3d5ffd5b505050506040513d601f19601f82011682018060405250810190610b2c9190611bb7565b14610b3a57610b3a816110fa565b505b505050806001019050610945565b505f610b568480611bce565b9050111561076f57604051632a2d80d160e01b81526001600160a01b037f00000000000000000000000000000000000000000000000000000000000000001690632a2d80d190610bb0903390879087908790600401611c50565b5f604051808303815f87803b158015610bc7575f5ffd5b505af1158015610bd9573d5f5f3e3d5ffd5b50505050610777610de9565b5f5f610bf26106b9610c63565b90506001600160a01b038116610c1357610c0e836107c4610c63565b600191505b50919050565b801561061b5761061b5f6107c4610c63565b475f819003610c38575050565b610c436106b9610e00565b15610c4c575050565b610c5f6001600160a01b03831682611123565b5050565b7f000000000000000000000000000000000000000000000000000000000000000090565b81156106ce57808015610ccb57507f00000000000000000000000000000000000000000000000000000000000000006001600160a01b0316836001600160a01b0316145b15610d2157610d1c7f00000000000000000000000000000000000000000000000000000000000000007f000000000000000000000000000000000000000000000000000000000000000086856111bd565b6106ce565b60405163ae63932960e01b81526001600160a01b037f0000000000000000000000000000000000000000000000000000000000000000169063ae63932990610d7190869088908790600401611d77565b5f604051808303815f87803b158015610d88575f5ffd5b505af1158015610d9a573d5f5f3e3d5ffd5b5050505050505050565b5f516020611db55f395f51905f525c15610dd157604051633ee5aeb560e01b815260040160405180910390fd5b61058860015f516020611db55f395f51905f526107c4565b6105885f5f516020611db55f395f51905f526107c4565b7f000000000000000000000000000000000000000000000000000000000000000090565b80825d5050565b60605f5f846001600160a01b031684604051610e479190611905565b5f60405180830381855af49150503d805f8114610e7f576040519150601f19603f3d011682016040523d82523d5f602084013e610e84565b606091505b5091509150610e94858383611283565b95945050505050565b808015610edb57507f00000000000000000000000000000000000000000000000000000000000000006001600160a01b0316836001600160a01b0316145b15610f2b57610d1c7f00000000000000000000000000000000000000000000000000000000000000007f0000000000000000000000000000000000000000000000000000000000000000846112d9565b81156106ce577f00000000000000000000000000000000000000000000000000000000000000006001600160a01b03166336c78516857f0000000000000000000000000000000000000000000000000000000000000000610f8b866113ce565b6040516001600160e01b031960e086901b1681526001600160a01b03938416600482015291831660248301528216604482015290861660648201526084015f604051808303815f87803b158015610fe0575f5ffd5b505af1158015610ff2573d5f5f3e3d5ffd5b50506040516315afd40960e01b81526001600160a01b037f00000000000000000000000000000000000000000000000000000000000000001692506315afd40991506110449086908690600401611d9b565b6020604051808303815f875af1158015611060573d5f5f3e3d5ffd5b505050506040513d601f19601f820116820180604052508101906110849190611bb7565b5050505050565b808214610c5f5760405163aaad13f760e01b815260040160405180910390fd5b6110cf60405180606001604052805f81526020015f81526020015f60ff1681525090565b602082810151604080850151606090950151918452918301939093525f9290921a9181019190915290565b80511561110a5780518082602001fd5b60405163a728568960e01b815260040160405180910390fd5b8047101561114d5760405163cf47918160e01b81524760048201526024810182905260440161043a565b5f826001600160a01b0316826040515f6040518083038185875af1925050503d805f8114611196576040519150601f19603f3d011682016040523d82523d5f602084013e61119b565b606091505b50509050806107075760405163d6bda27560e01b815260040160405180910390fd5b60405163ae63932960e01b81526001600160a01b0384169063ae639329906111ed90879030908690600401611d77565b5f604051808303815f87803b158015611204575f5ffd5b505af1158015611216573d5f5f3e3d5ffd5b5050604051632e1a7d4d60e01b8152600481018490526001600160a01b0387169250632e1a7d4d91506024015f604051808303815f87803b158015611259575f5ffd5b505af115801561126b573d5f5f3e3d5ffd5b506106ce925050506001600160a01b03831682611123565b60608261129857611293826113de565b6112d2565b81511580156112af57506001600160a01b0384163b155b156112cf5783604051639996b31560e01b815260040161043a9190611481565b50805b9392505050565b804710156112fa5760405163500d4efb60e11b815260040160405180910390fd5b826001600160a01b031663d0e30db0826040518263ffffffff1660e01b81526004015f604051808303818588803b158015611333575f5ffd5b505af1158015611345573d5f5f3e3d5ffd5b50611360935050506001600160a01b03851690508383611407565b6040516315afd40960e01b81526001600160a01b038316906315afd4099061138e9086908590600401611d9b565b6020604051808303815f875af11580156113aa573d5f5f3e3d5ffd5b505050506040513d601f19601f820116820180604052508101906106ce9190611bb7565b5f6113d882611412565b92915050565b8051156113ee5780518082602001fd5b60405163d6bda27560e01b815260040160405180910390fd5b61070783838361142a565b5f600160a01b821061142657611426611474565b5090565b816014528060345263a9059cbb60601b5f5260205f604460105f875af18060015f51141661146a57803d853b15171061146a576390b8ec185f526004601cfd5b505f603452505050565b6335278d125f526004601cfd5b6001600160a01b0391909116815260200190565b5f5f83601f8401126114a5575f5ffd5b5081356001600160401b038111156114bb575f5ffd5b60208301915083602060c0830285010111156114d5575f5ffd5b9250929050565b5f5f83601f8401126114ec575f5ffd5b5081356001600160401b03811115611502575f5ffd5b6020830191508360208260051b85010111156114d5575f5ffd5b5f60608284031215610c13575f5ffd5b5f5f83601f84011261153c575f5ffd5b5081356001600160401b03811115611552575f5ffd5b6020830191508360208285010111156114d5575f5ffd5b5f5f5f5f5f5f5f5f5f60a08a8c031215611581575f5ffd5b89356001600160401b03811115611596575f5ffd5b6115a28c828d01611495565b909a5098505060208a01356001600160401b038111156115c0575f5ffd5b6115cc8c828d016114dc565b90985096505060408a01356001600160401b038111156115ea575f5ffd5b6115f68c828d0161151c565b95505060608a01356001600160401b03811115611611575f5ffd5b61161d8c828d0161152c565b90955093505060808a01356001600160401b0381111561163b575f5ffd5b6116478c828d016114dc565b915080935050809150509295985092959850929598565b5f81518084528060208401602086015e5f602082860101526020601f19601f83011685010191505092915050565b5f602082016020835280845180835260408501915060408160051b8601019250602086015f5b828110156116e357603f198786030184526116ce85835161165e565b945060209384019391909101906001016116b2565b50929695505050505050565b6001600160a01b038116811461061b575f5ffd5b803561170e816116ef565b919050565b5f5f5f60408486031215611725575f5ffd5b8335611730816116ef565b925060208401356001600160401b0381111561174a575f5ffd5b6117568682870161152c565b9497909650939450505050565b602081525f6112d2602083018461165e565b5f5f5f5f60808587031215611788575f5ffd5b8435611793816116ef565b935060208501356117a3816116ef565b925060408501359150606085013580151581146117be575f5ffd5b939692955090935050565b5f5f604083850312156117da575f5ffd5b82356117e5816116ef565b946020939093013593505050565b5f5f5f5f5f5f5f6080888a031215611809575f5ffd5b87356001600160401b0381111561181e575f5ffd5b61182a8a828b01611495565b90985096505060208801356001600160401b03811115611848575f5ffd5b6118548a828b016114dc565b90965094505060408801356001600160401b03811115611872575f5ffd5b61187e8a828b0161151c565b93505060608801356001600160401b03811115611899575f5ffd5b6118a58a828b0161152c565b989b979a50959850939692959293505050565b5f5f602083850312156118c9575f5ffd5b82356001600160401b038111156118de575f5ffd5b6118ea858286016114dc565b90969095509350505050565b818382375f9101908152919050565b5f82518060208501845e5f920191825250919050565b5f6020828403121561192b575f5ffd5b81516112d2816116ef565b634e487b7160e01b5f52604160045260245ffd5b604051601f8201601f191681016001600160401b038111828210171561197257611972611936565b604052919050565b5f6020828403121561198a575f5ffd5b81516001600160401b0381111561199f575f5ffd5b8201601f810184136119af575f5ffd5b80516001600160401b038111156119c8576119c8611936565b8060051b6119d86020820161194a565b918252602081840181019290810190878411156119f3575f5ffd5b6020850192505b83831015611a935782516001600160401b03811115611a17575f5ffd5b8501603f81018913611a27575f5ffd5b60208101516001600160401b03811115611a4357611a43611936565b611a56601f8201601f191660200161194a565b8181526040838301018b1015611a6a575f5ffd5b8160408401602083015e5f602083830101528085525050506020820191506020830192506119fa565b979650505050505050565b600181811c90821680611ab257607f821691505b602082108103610c1357634e487b7160e01b5f52602260045260245ffd5b634e487b7160e01b5f52603260045260245ffd5b5f5f8335601e19843603018112611af9575f5ffd5b8301803591506001600160401b03821115611b12575f5ffd5b6020019150368190038213156114d5575f5ffd5b5f60c0828403128015611b37575f5ffd5b5060405160c081016001600160401b0381118282101715611b5a57611b5a611936565b6040528235611b68816116ef565b81526020830135611b78816116ef565b60208201526040830135611b8b816116ef565b6040820152606083810135908201526080808401359082015260a0928301359281019290925250919050565b5f60208284031215611bc7575f5ffd5b5051919050565b5f5f8335601e19843603018112611be3575f5ffd5b8301803591506001600160401b03821115611bfc575f5ffd5b6020019150600781901b36038213156114d5575f5ffd5b803565ffffffffffff8116811461170e575f5ffd5b81835281816020850137505f828201602090810191909152601f909101601f19169091010190565b6001600160a01b0385168152606060208201525f60c08201853536879003601e19018112611c7c575f5ffd5b86016020810190356001600160401b03811115611c97575f5ffd5b8060071b3603821315611ca8575f5ffd5b60608581015291829052905f9060e085015b81831015611d39578335611ccd816116ef565b6001600160a01b031681526020840135611ce6816116ef565b6001600160a01b0316602082015265ffffffffffff611d0760408601611c13565b16604082015265ffffffffffff611d2060608601611c13565b1660608201526080938401936001939093019201611cba565b611d4560208a01611703565b6001600160a01b0316608087015260408981013560a0880181905287830391880191909152935061037781888a611c28565b6001600160a01b039384168152919092166020820152604081019190915260600190565b6001600160a01b0392909216825260208201526040019056fe9b779b17422d0df92223018b32b4d1fa46e071723d6817e2486d003becc55f00a26469706673582212208daa713dec39c94cd6a5c2d873b15c403d950643a61531c37daecf75995b609864736f6c634300081e0033","linkReferences":{}},"methodIdentifiers":{"assertETHBalance()":"9efbffc2","call(address,bytes)":"1b8b921d","emitSender()":"200216aa","getPermit2()":"1bbf2e23","getSender()":"5e01eb5a","getVault()":"8d928af8","getWeth()":"107c279f","manualGetSenderSlot()":"f430f49d","manualMulticallVoid()":"2f7e457c","manualPermitBatchReentrancy((address,address,address,uint256,uint256,uint256)[],bytes[],((address,uint160,uint48,uint48)[],address,uint256),bytes)":"a162d14a","manualReturnETH()":"20fcbaf6","mockSendTokenOut(address,address,uint256,bool)":"6dd66a63","mockTakeTokenIn(address,address,uint256,bool)":"ad16ff59","multicall(bytes[])":"ac9650d8","permitBatchAndCall((address,address,address,uint256,uint256,uint256)[],bytes[],((address,uint160,uint48,uint48)[],address,uint256),bytes,bytes[])":"19c6989f","sendExtraEth(address,uint256)":"8497145f","version()":"54fd4d50"},"id":385}