{"abi":[{"type":"constructor","inputs":[{"name":"vault","type":"address","internalType":"contract IVault"},{"name":"weth","type":"address","internalType":"contract IWETH"},{"name":"permit2","type":"address","internalType":"contract IPermit2"},{"name":"routerVersion","type":"string","internalType":"string"}],"stateMutability":"nonpayable"},{"type":"receive","stateMutability":"payable"},{"type":"function","name":"addLiquidityHook","inputs":[{"name":"params","type":"tuple","internalType":"struct MinimalRouter.ExtendedAddLiquidityHookParams","components":[{"name":"sender","type":"address","internalType":"address"},{"name":"receiver","type":"address","internalType":"address"},{"name":"pool","type":"address","internalType":"address"},{"name":"maxAmountsIn","type":"uint256[]","internalType":"uint256[]"},{"name":"minBptAmountOut","type":"uint256","internalType":"uint256"},{"name":"kind","type":"uint8","internalType":"enum AddLiquidityKind"},{"name":"wethIsEth","type":"bool","internalType":"bool"},{"name":"userData","type":"bytes","internalType":"bytes"}]}],"outputs":[{"name":"amountsIn","type":"uint256[]","internalType":"uint256[]"},{"name":"bptAmountOut","type":"uint256","internalType":"uint256"},{"name":"returnData","type":"bytes","internalType":"bytes"}],"stateMutability":"nonpayable"},{"type":"function","name":"addLiquidityProportional","inputs":[{"name":"pool","type":"address","internalType":"address"},{"name":"maxAmountsIn","type":"uint256[]","internalType":"uint256[]"},{"name":"exactBptAmountOut","type":"uint256","internalType":"uint256"},{"name":"wethIsEth","type":"bool","internalType":"bool"},{"name":"userData","type":"bytes","internalType":"bytes"}],"outputs":[{"name":"amountsIn","type":"uint256[]","internalType":"uint256[]"}],"stateMutability":"payable"},{"type":"function","name":"getPermit2","inputs":[],"outputs":[{"name":"","type":"address","internalType":"contract IPermit2"}],"stateMutability":"view"},{"type":"function","name":"getSender","inputs":[],"outputs":[{"name":"","type":"address","internalType":"address"}],"stateMutability":"view"},{"type":"function","name":"getVault","inputs":[],"outputs":[{"name":"","type":"address","internalType":"contract IVault"}],"stateMutability":"view"},{"type":"function","name":"getWeth","inputs":[],"outputs":[{"name":"","type":"address","internalType":"contract IWETH"}],"stateMutability":"view"},{"type":"function","name":"multicall","inputs":[{"name":"data","type":"bytes[]","internalType":"bytes[]"}],"outputs":[{"name":"results","type":"bytes[]","internalType":"bytes[]"}],"stateMutability":"payable"},{"type":"function","name":"permitBatchAndCall","inputs":[{"name":"permitBatch","type":"tuple[]","internalType":"struct IRouterCommon.PermitApproval[]","components":[{"name":"token","type":"address","internalType":"address"},{"name":"owner","type":"address","internalType":"address"},{"name":"spender","type":"address","internalType":"address"},{"name":"amount","type":"uint256","internalType":"uint256"},{"name":"nonce","type":"uint256","internalType":"uint256"},{"name":"deadline","type":"uint256","internalType":"uint256"}]},{"name":"permitSignatures","type":"bytes[]","internalType":"bytes[]"},{"name":"permit2Batch","type":"tuple","internalType":"struct IAllowanceTransfer.PermitBatch","components":[{"name":"details","type":"tuple[]","internalType":"struct IAllowanceTransfer.PermitDetails[]","components":[{"name":"token","type":"address","internalType":"address"},{"name":"amount","type":"uint160","internalType":"uint160"},{"name":"expiration","type":"uint48","internalType":"uint48"},{"name":"nonce","type":"uint48","internalType":"uint48"}]},{"name":"spender","type":"address","internalType":"address"},{"name":"sigDeadline","type":"uint256","internalType":"uint256"}]},{"name":"permit2Signature","type":"bytes","internalType":"bytes"},{"name":"multicallData","type":"bytes[]","internalType":"bytes[]"}],"outputs":[{"name":"","type":"bytes[]","internalType":"bytes[]"}],"stateMutability":"payable"},{"type":"function","name":"removeLiquidityHook","inputs":[{"name":"params","type":"tuple","internalType":"struct MinimalRouter.ExtendedRemoveLiquidityHookParams","components":[{"name":"sender","type":"address","internalType":"address"},{"name":"receiver","type":"address","internalType":"address"},{"name":"pool","type":"address","internalType":"address"},{"name":"minAmountsOut","type":"uint256[]","internalType":"uint256[]"},{"name":"maxBptAmountIn","type":"uint256","internalType":"uint256"},{"name":"kind","type":"uint8","internalType":"enum RemoveLiquidityKind"},{"name":"wethIsEth","type":"bool","internalType":"bool"},{"name":"userData","type":"bytes","internalType":"bytes"}]}],"outputs":[{"name":"bptAmountIn","type":"uint256","internalType":"uint256"},{"name":"amountsOut","type":"uint256[]","internalType":"uint256[]"},{"name":"returnData","type":"bytes","internalType":"bytes"}],"stateMutability":"nonpayable"},{"type":"function","name":"removeLiquidityProportional","inputs":[{"name":"pool","type":"address","internalType":"address"},{"name":"exactBptAmountIn","type":"uint256","internalType":"uint256"},{"name":"minAmountsOut","type":"uint256[]","internalType":"uint256[]"},{"name":"wethIsEth","type":"bool","internalType":"bool"},{"name":"userData","type":"bytes","internalType":"bytes"}],"outputs":[{"name":"amountsOut","type":"uint256[]","internalType":"uint256[]"}],"stateMutability":"nonpayable"},{"type":"function","name":"version","inputs":[],"outputs":[{"name":"","type":"string","internalType":"string"}],"stateMutability":"view"},{"type":"error","name":"AddressEmptyCode","inputs":[{"name":"target","type":"address","internalType":"address"}]},{"type":"error","name":"ErrorSelectorNotFound","inputs":[]},{"type":"error","name":"EthTransfer","inputs":[]},{"type":"error","name":"FailedCall","inputs":[]},{"type":"error","name":"InputLengthMismatch","inputs":[]},{"type":"error","name":"InsufficientBalance","inputs":[{"name":"balance","type":"uint256","internalType":"uint256"},{"name":"needed","type":"uint256","internalType":"uint256"}]},{"type":"error","name":"InsufficientEth","inputs":[]},{"type":"error","name":"OperationNotSupported","inputs":[]},{"type":"error","name":"ReentrancyGuardReentrantCall","inputs":[]},{"type":"error","name":"SenderIsNotVault","inputs":[{"name":"sender","type":"address","internalType":"address"}]},{"type":"error","name":"SwapDeadline","inputs":[]}],"bytecode":{"object":"0x600b6101409081526a14d95b99195c91dd585c9960aa1b610160526101c060405260066101809081526539b2b73232b960d11b6101a0526100409190610106565b608052604080518082018252600c81526b2937baba32b921b7b6b6b7b760a11b602080830191909152825180840190935260118352701a5cd4995d1d5c9b915d1a131bd8dad959607a1b9083015261009791610106565b60c0523480156100a5575f5ffd5b50604051612d5d380380612d5d8339810160408190526100c4916101af565b6001600160a01b03841660a05283838383806100df81610175565b50506001600160a01b0391821660e0521661010081905215610120525061045b9350505050565b5f60ff5f1b19600184846040516020016101219291906102b0565b604051602081830303815290604052805190602001205f1c61014391906102fe565b60405160200161015591815260200190565b604051602081830303815290604052805190602001201690505b92915050565b5f61018082826103a1565b5050565b6001600160a01b0381168114610198575f5ffd5b50565b634e487b7160e01b5f52604160045260245ffd5b5f5f5f5f608085870312156101c2575f5ffd5b84516101cd81610184565b60208601519094506101de81610184565b60408601519093506101ef81610184565b60608601519092506001600160401b0381111561020a575f5ffd5b8501601f8101871361021a575f5ffd5b80516001600160401b038111156102335761023361019b565b604051601f8201601f19908116603f011681016001600160401b03811182821017156102615761026161019b565b604052818152828201602001891015610278575f5ffd5b8160208401602083015e5f6020838301015280935050505092959194509250565b5f81518060208401855e5f93019283525090919050565b7f62616c616e6365722d6c6162732e76332e73746f726167652e0000000000000081525f6102e16019830185610299565b601760f91b81526102f56001820185610299565b95945050505050565b8181038181111561016f57634e487b7160e01b5f52601160045260245ffd5b600181811c9082168061033157607f821691505b60208210810361034f57634e487b7160e01b5f52602260045260245ffd5b50919050565b601f82111561039c57805f5260205f20601f840160051c8101602085101561037a5750805b601f840160051c820191505b81811015610399575f8155600101610386565b50505b505050565b81516001600160401b038111156103ba576103ba61019b565b6103ce816103c8845461031d565b84610355565b6020601f821160018114610400575f83156103e95750848201515b5f19600385901b1c1916600184901b178455610399565b5f84815260208120601f198516915b8281101561042f578785015182556020948501946001909201910161040f565b508482101561044c57868401515f19600387901b60f8161c191681555b50505050600190811b01905550565b60805160a05160c05160e051610100516101205161283161052c5f395f8181610291015261081601525f818161015401528181610cbd015261108201525f8181609e0152818160f00152818161066c015281816106e301528181610c210152610c6701525f61157f01525f8181610228015281816103ca0152818161056a015281816106aa0152818161071a0152818161097d01528181610b2101528181610c8901528181610cf101528181610d9901528181611100015281816112c701526113f701525f61125301526128315ff3fe60806040526004361061008e575f3560e01c8063107c279f146100e257806319c6989f146101265780631bbf2e2314610146578063516827501461017857806354fd4d50146101a45780635e01eb5a146101c55780636274a830146101d9578063724dba33146102075780638d928af81461021a578063ac9650d81461024c578063e41535c21461025f575f5ffd5b366100de57336001600160a01b037f000000000000000000000000000000000000000000000000000000000000000016146100dc576040516302a06efb60e11b815260040160405180910390fd5b005b5f5ffd5b3480156100ed575f5ffd5b507f00000000000000000000000000000000000000000000000000000000000000005b60405161011d919061199c565b60405180910390f35b610139610134366004611a84565b61028d565b60405161011d9190611ba7565b348015610151575f5ffd5b507f0000000000000000000000000000000000000000000000000000000000000000610110565b348015610183575f5ffd5b50610197610192366004611d80565b6102f5565b60405161011d9190611e48565b3480156101af575f5ffd5b506101b8610310565b60405161011d9190611e5a565b3480156101d0575f5ffd5b5061011061039f565b3480156101e4575f5ffd5b506101f86101f3366004611e8a565b6103b4565b60405161011d93929190611ec3565b610197610215366004611eed565b6107b9565b348015610225575f5ffd5b507f0000000000000000000000000000000000000000000000000000000000000000610110565b61013961025a366004611f48565b6107ca565b34801561026a575f5ffd5b5061027e610279366004611e8a565b610966565b60405161011d93929190611f86565b60607f0000000000000000000000000000000000000000000000000000000000000000156102ce576040516329a270f560e01b815260040160405180910390fd5b6102dd8a8a8a8a8a8a8a610e3e565b6102e783836107ca565b9a9950505050505050505050565b6060610306863333888888886110fc565b9695505050505050565b60605f805461031e90611fb0565b80601f016020809104026020016040519081016040528092919081815260200182805461034a90611fb0565b80156103955780601f1061036c57610100808354040283529160200191610395565b820191905f5260205f20905b81548152906001019060200180831161037857829003601f168201915b5050505050905090565b5f6103af6103ab611251565b5c90565b905090565b5f6060806103c0611275565b6103c86112bc565b7f00000000000000000000000000000000000000000000000000000000000000006001600160a01b031663214578976040518060c001604052808760400160208101906104159190611fe2565b6001600160a01b0316815260209081019061043290890189611fe2565b6001600160a01b03168152608088013560208201526040016104576060890189611ffd565b808060200260200160405190810160405280939291908181526020018383602002808284375f9201919091525050509082525060200161049d60c0890160a08a01612042565b60038111156104ae576104ae612060565b81526020016104c060e0890189612074565b8080601f0160208091040260200160405190810160405280939291908181526020018383808284375f9201919091525050509152506040516001600160e01b031960e084901b16815261051691906004016120ca565b5f604051808303815f875af1158015610531573d5f5f3e3d5ffd5b505050506040513d5f823e601f3d908101601f1916820160405261055891908101906121eb565b919450925090505f6001600160a01b037f00000000000000000000000000000000000000000000000000000000000000001663ca4f280361059f6060880160408901611fe2565b6040518263ffffffff1660e01b81526004016105bb919061199c565b5f60405180830381865afa1580156105d5573d5f5f3e3d5ffd5b505050506040513d5f823e601f3d908101601f191682016040526105fc9190810190612259565b90505f5b81518110156107a8575f84828151811061061c5761061c6122e8565b60200260200101519050805f0361063357506107a0565b5f838381518110610646576106466122e8565b602002602001015190508760c001602081019061066391906122fc565b80156106a057507f00000000000000000000000000000000000000000000000000000000000000006001600160a01b0316816001600160a01b0316145b156107105761070b7f00000000000000000000000000000000000000000000000000000000000000006106d960408b0160208c01611fe2565b6001600160a01b037f000000000000000000000000000000000000000000000000000000000000000016919085611310565b61079d565b6001600160a01b037f00000000000000000000000000000000000000000000000000000000000000001663ae6393298261075060408c0160208d01611fe2565b856040518463ffffffff1660e01b815260040161076f93929190612315565b5f604051808303815f87803b158015610786575f5ffd5b505af1158015610798573d5f5f3e3d5ffd5b505050505b50505b600101610600565b50506107b26113dc565b9193909250565b6060610306863333888888886113f3565b60605f6107d633611549565b90506107e36103ab61157d565b1561080157604051633ee5aeb560e01b815260040160405180910390fd5b610814600161080e61157d565b906115a1565b7f000000000000000000000000000000000000000000000000000000000000000015610853576040516329a270f560e01b815260040160405180910390fd5b826001600160401b0381111561086b5761086b611c2e565b60405190808252806020026020018201604052801561089e57816020015b60608152602001906001900390816108895790505b5091505f5b838110156109315761090c308686848181106108c1576108c16122e8565b90506020028101906108d39190612074565b8080601f0160208091040260200160405190810160405280939291908181526020018383808284375f920191909152506115a892505050565b83828151811061091e5761091e6122e8565b60209081029190910101526001016108a3565b5061093e5f61080e61157d565b5f61094a6103ab611251565b90506109558261161a565b61095e8161162f565b505092915050565b60605f6060610973611275565b61097b6112bc565b7f00000000000000000000000000000000000000000000000000000000000000006001600160a01b0316634af29ec46040518060c001604052808760400160208101906109c89190611fe2565b6001600160a01b031681526020018760200160208101906109e99190611fe2565b6001600160a01b03168152602001610a046060890189611ffd565b808060200260200160405190810160405280939291908181526020018383602002808284375f9201919091525050509082525060808801356020820152604001610a5460c0890160a08a01612339565b6004811115610a6557610a65612060565b8152602001610a7760e0890189612074565b8080601f0160208091040260200160405190810160405280939291908181526020018383808284375f9201919091525050509152506040516001600160e01b031960e084901b168152610acd9190600401612367565b5f604051808303815f875af1158015610ae8573d5f5f3e3d5ffd5b505050506040513d5f823e601f3d908101601f19168201604052610b0f91908101906123c2565b919450925090505f6001600160a01b037f00000000000000000000000000000000000000000000000000000000000000001663ca4f2803610b566060880160408901611fe2565b6040518263ffffffff1660e01b8152600401610b72919061199c565b5f60405180830381865afa158015610b8c573d5f5f3e3d5ffd5b505050506040513d5f823e601f3d908101601f19168201604052610bb39190810190612259565b90505f5b8151811015610e1f575f828281518110610bd357610bd36122e8565b602002602001015190505f868381518110610bf057610bf06122e8565b60200260200101519050805f03610c08575050610e17565b610c1860e0890160c08a016122fc565b8015610c5557507f00000000000000000000000000000000000000000000000000000000000000006001600160a01b0316826001600160a01b0316145b15610cb357610cae6001600160a01b037f0000000000000000000000000000000000000000000000000000000000000000167f000000000000000000000000000000000000000000000000000000000000000083611667565b610e14565b6001600160a01b037f0000000000000000000000000000000000000000000000000000000000000000166336c78516610cef60208b018b611fe2565b7f0000000000000000000000000000000000000000000000000000000000000000610d198561175c565b6040516001600160e01b031960e086901b1681526001600160a01b03938416600482015291831660248301528216604482015290851660648201526084015f604051808303815f87803b158015610d6e575f5ffd5b505af1158015610d80573d5f5f3e3d5ffd5b50506040516315afd40960e01b81526001600160a01b037f00000000000000000000000000000000000000000000000000000000000000001692506315afd4099150610dd29085908590600401612419565b6020604051808303815f875af1158015610dee573d5f5f3e3d5ffd5b505050506040513d601f19601f82011682018060405250810190610e129190612432565b505b50505b600101610bb7565b50610e35610e306020870187611fe2565b61162f565b506107b26113dc565b610e46611275565b610e50868561176c565b5f5b86811015611057575f868683818110610e6d57610e6d6122e8565b9050602002810190610e7f9190612074565b8080601f0160208091040260200160405190810160405280939291908181526020018383808284375f920182905250939450610ec0925084915061178c9050565b90505f8a8a85818110610ed557610ed56122e8565b905060c00201803603810190610eeb9190612449565b8051602080830151606084015160a08501516040808901518951958a0151915163d505accf60e01b81526001600160a01b0395861660048201523060248201526044810194909452606484019290925260ff909116608483015260a482019390935260c481019290925292935091169063d505accf9060e4015f604051808303815f87803b158015610f7b575f5ffd5b505af1925050508015610f8c575060015b611049573d808015610fb9576040519150601f19603f3d011682016040523d82523d5f602084013e610fbe565b606091505b50606082015182516020840151604051636eb1769f60e11b81526001600160a01b03918216600482015230602482015291169063dd62ed3e90604401602060405180830381865afa158015611015573d5f5f3e3d5ffd5b505050506040513d601f19601f820116820180604052508101906110399190612432565b1461104757611047816117db565b505b505050806001019050610e52565b505f61106384806124da565b905011156110eb57604051632a2d80d160e01b81526001600160a01b037f00000000000000000000000000000000000000000000000000000000000000001690632a2d80d1906110bd90339087908790879060040161255c565b5f604051808303815f87803b1580156110d4575f5ffd5b505af11580156110e6573d5f5f3e3d5ffd5b505050505b6110f36113dc565b50505050505050565b60607f00000000000000000000000000000000000000000000000000000000000000006001600160a01b03166348c894916040518061010001604052808a6001600160a01b03168152602001896001600160a01b031681526020018b6001600160a01b031681526020018781526020018881526020015f600381111561118457611184612060565b81526020018615158152602001858152506040516024016111a59190612683565b60408051601f198184030181529181526020820180516001600160e01b03166306274a8360e41b179052516001600160e01b031960e084901b1681526111ee9190600401611e5a565b5f604051808303815f875af1158015611209573d5f5f3e3d5ffd5b505050506040513d5f823e601f3d908101601f191682016040526112309190810190612721565b80602001905181019061124391906121eb565b509998505050505050505050565b7f000000000000000000000000000000000000000000000000000000000000000090565b5f5160206127dc5f395f51905f525c156112a257604051633ee5aeb560e01b815260040160405180910390fd5b6112ba60015f5160206127dc5f395f51905f5261080e565b565b336001600160a01b037f000000000000000000000000000000000000000000000000000000000000000016146112ba573360405163089676d560e01b8152600401611307919061199c565b60405180910390fd5b60405163ae63932960e01b81526001600160a01b0384169063ae6393299061134090879030908690600401612315565b5f604051808303815f87803b158015611357575f5ffd5b505af1158015611369573d5f5f3e3d5ffd5b5050604051632e1a7d4d60e01b8152600481018490526001600160a01b0387169250632e1a7d4d91506024015f604051808303815f87803b1580156113ac575f5ffd5b505af11580156113be573d5f5f3e3d5ffd5b506113d6925050506001600160a01b03831682611804565b50505050565b6112ba5f5f5160206127dc5f395f51905f5261080e565b60607f00000000000000000000000000000000000000000000000000000000000000006001600160a01b03166348c894916040518061010001604052808a6001600160a01b03168152602001896001600160a01b031681526020018b6001600160a01b031681526020018881526020018781526020015f600481111561147b5761147b612060565b815260200186151581526020018581525060405160240161149c9190612752565b60408051601f198184030181529181526020820180516001600160e01b031663720a9ae160e11b179052516001600160e01b031960e084901b1681526114e59190600401611e5a565b5f604051808303815f875af1158015611500573d5f5f3e3d5ffd5b505050506040513d5f823e601f3d908101601f191682016040526115279190810190612721565b80602001905181019061153a91906123c2565b50909998505050505050505050565b5f5f6115566103ab611251565b90506001600160a01b038116611577576115728361080e611251565b600191505b50919050565b7f000000000000000000000000000000000000000000000000000000000000000090565b80825d5050565b60605f5f846001600160a01b0316846040516115c491906127c5565b5f60405180830381855af49150503d805f81146115fc576040519150601f19603f3d011682016040523d82523d5f602084013e611601565b606091505b50915091506116118583836118a3565b95945050505050565b801561162c5761162c5f61080e611251565b50565b475f81900361163c575050565b6116476103ab61157d565b15611650575050565b6116636001600160a01b03831682611804565b5050565b804710156116885760405163500d4efb60e11b815260040160405180910390fd5b826001600160a01b031663d0e30db0826040518263ffffffff1660e01b81526004015f604051808303818588803b1580156116c1575f5ffd5b505af11580156116d3573d5f5f3e3d5ffd5b506116ee935050506001600160a01b038516905083836118f9565b6040516315afd40960e01b81526001600160a01b038316906315afd4099061171c9086908590600401612419565b6020604051808303815f875af1158015611738573d5f5f3e3d5ffd5b505050506040513d601f19601f820116820180604052508101906113d69190612432565b5f61176682611904565b92915050565b8082146116635760405163aaad13f760e01b815260040160405180910390fd5b6117b060405180606001604052805f81526020015f81526020015f60ff1681525090565b602082810151604080850151606090950151918452918301939093525f9290921a9181019190915290565b8051156117eb5780518082602001fd5b60405163a728568960e01b815260040160405180910390fd5b8047101561182e5760405163cf47918160e01b815247600482015260248101829052604401611307565b5f826001600160a01b0316826040515f6040518083038185875af1925050503d805f8114611877576040519150601f19603f3d011682016040523d82523d5f602084013e61187c565b606091505b505090508061189e5760405163d6bda27560e01b815260040160405180910390fd5b505050565b6060826118b8576118b38261191c565b6118f2565b81511580156118cf57506001600160a01b0384163b155b156118ef5783604051639996b31560e01b8152600401611307919061199c565b50805b9392505050565b61189e838383611945565b5f600160a01b82106119185761191861198f565b5090565b80511561192c5780518082602001fd5b60405163d6bda27560e01b815260040160405180910390fd5b816014528060345263a9059cbb60601b5f5260205f604460105f875af18060015f51141661198557803d853b151710611985576390b8ec185f526004601cfd5b505f603452505050565b6335278d125f526004601cfd5b6001600160a01b0391909116815260200190565b5f5f83601f8401126119c0575f5ffd5b5081356001600160401b038111156119d6575f5ffd5b60208301915083602060c0830285010111156119f0575f5ffd5b9250929050565b5f5f83601f840112611a07575f5ffd5b5081356001600160401b03811115611a1d575f5ffd5b6020830191508360208260051b85010111156119f0575f5ffd5b5f60608284031215611577575f5ffd5b5f5f83601f840112611a57575f5ffd5b5081356001600160401b03811115611a6d575f5ffd5b6020830191508360208285010111156119f0575f5ffd5b5f5f5f5f5f5f5f5f5f60a08a8c031215611a9c575f5ffd5b89356001600160401b03811115611ab1575f5ffd5b611abd8c828d016119b0565b909a5098505060208a01356001600160401b03811115611adb575f5ffd5b611ae78c828d016119f7565b90985096505060408a01356001600160401b03811115611b05575f5ffd5b611b118c828d01611a37565b95505060608a01356001600160401b03811115611b2c575f5ffd5b611b388c828d01611a47565b90955093505060808a01356001600160401b03811115611b56575f5ffd5b611b628c828d016119f7565b915080935050809150509295985092959850929598565b5f81518084528060208401602086015e5f602082860101526020601f19601f83011685010191505092915050565b5f602082016020835280845180835260408501915060408160051b8601019250602086015f5b82811015611bfe57603f19878603018452611be9858351611b79565b94506020938401939190910190600101611bcd565b50929695505050505050565b6001600160a01b038116811461162c575f5ffd5b8035611c2981611c0a565b919050565b634e487b7160e01b5f52604160045260245ffd5b604051601f8201601f191681016001600160401b0381118282101715611c6a57611c6a611c2e565b604052919050565b5f6001600160401b03821115611c8a57611c8a611c2e565b5060051b60200190565b5f82601f830112611ca3575f5ffd5b8135611cb6611cb182611c72565b611c42565b8082825260208201915060208360051b860101925085831115611cd7575f5ffd5b602085015b83811015611cf4578035835260209283019201611cdc565b5095945050505050565b80358015158114611c29575f5ffd5b5f6001600160401b03821115611d2557611d25611c2e565b50601f01601f191660200190565b5f82601f830112611d42575f5ffd5b8135611d50611cb182611d0d565b818152846020838601011115611d64575f5ffd5b816020850160208301375f918101602001919091529392505050565b5f5f5f5f5f60a08688031215611d94575f5ffd5b8535611d9f81611c0a565b94506020860135935060408601356001600160401b03811115611dc0575f5ffd5b611dcc88828901611c94565b935050611ddb60608701611cfe565b915060808601356001600160401b03811115611df5575f5ffd5b611e0188828901611d33565b9150509295509295909350565b5f8151808452602084019350602083015f5b82811015611e3e578151865260209586019590910190600101611e20565b5093949350505050565b602081525f6118f26020830184611e0e565b602081525f6118f26020830184611b79565b6001600160a01b03169052565b5f6101008284031215611577575f5ffd5b5f60208284031215611e9a575f5ffd5b81356001600160401b03811115611eaf575f5ffd5b611ebb84828501611e79565b949350505050565b838152606060208201525f611edb6060830185611e0e565b82810360408401526103068185611b79565b5f5f5f5f5f60a08688031215611f01575f5ffd5b8535611f0c81611c0a565b945060208601356001600160401b03811115611f26575f5ffd5b611f3288828901611c94565b94505060408601359250611ddb60608701611cfe565b5f5f60208385031215611f59575f5ffd5b82356001600160401b03811115611f6e575f5ffd5b611f7a858286016119f7565b90969095509350505050565b606081525f611f986060830186611e0e565b84602084015282810360408401526103068185611b79565b600181811c90821680611fc457607f821691505b60208210810361157757634e487b7160e01b5f52602260045260245ffd5b5f60208284031215611ff2575f5ffd5b81356118f281611c0a565b5f5f8335601e19843603018112612012575f5ffd5b8301803591506001600160401b0382111561202b575f5ffd5b6020019150600581901b36038213156119f0575f5ffd5b5f60208284031215612052575f5ffd5b8135600481106118f2575f5ffd5b634e487b7160e01b5f52602160045260245ffd5b5f5f8335601e19843603018112612089575f5ffd5b8301803591506001600160401b038211156120a2575f5ffd5b6020019150368190038213156119f0575f5ffd5b600481106120c6576120c6612060565b9052565b6020815260018060a01b03825116602082015260018060a01b036020830151166040820152604082015160608201525f606083015160c0608084015261211360e0840182611e0e565b9050608084015161212760a08501826120b6565b5060a0840151838203601f190160c08501526116118282611b79565b5f82601f830112612152575f5ffd5b8151612160611cb182611c72565b8082825260208201915060208360051b860101925085831115612181575f5ffd5b602085015b83811015611cf4578051835260209283019201612186565b5f82601f8301126121ad575f5ffd5b81516121bb611cb182611d0d565b8181528460208386010111156121cf575f5ffd5b8160208501602083015e5f918101602001919091529392505050565b5f5f5f606084860312156121fd575f5ffd5b835160208501519093506001600160401b0381111561221a575f5ffd5b61222686828701612143565b604086015190935090506001600160401b03811115612243575f5ffd5b61224f8682870161219e565b9150509250925092565b5f60208284031215612269575f5ffd5b81516001600160401b0381111561227e575f5ffd5b8201601f8101841361228e575f5ffd5b805161229c611cb182611c72565b8082825260208201915060208360051b8501019250868311156122bd575f5ffd5b6020840193505b828410156103065783516122d781611c0a565b8252602093840193909101906122c4565b634e487b7160e01b5f52603260045260245ffd5b5f6020828403121561230c575f5ffd5b6118f282611cfe565b6001600160a01b039384168152919092166020820152604081019190915260600190565b5f60208284031215612349575f5ffd5b8135600581106118f2575f5ffd5b600581106120c6576120c6612060565b602080825282516001600160a01b0390811683830152908301511660408083019190915282015160c060608301525f906123a460e0840182611e0e565b905060608401516080840152608084015161212760a0850182612357565b5f5f5f606084860312156123d4575f5ffd5b83516001600160401b038111156123e9575f5ffd5b6123f586828701612143565b60208601516040870151919550935090506001600160401b03811115612243575f5ffd5b6001600160a01b03929092168252602082015260400190565b5f60208284031215612442575f5ffd5b5051919050565b5f60c082840312801561245a575f5ffd5b5060405160c081016001600160401b038111828210171561247d5761247d611c2e565b604052823561248b81611c0a565b8152602083013561249b81611c0a565b602082015260408301356124ae81611c0a565b6040820152606083810135908201526080808401359082015260a0928301359281019290925250919050565b5f5f8335601e198436030181126124ef575f5ffd5b8301803591506001600160401b03821115612508575f5ffd5b6020019150600781901b36038213156119f0575f5ffd5b803565ffffffffffff81168114611c29575f5ffd5b81835281816020850137505f828201602090810191909152601f909101601f19169091010190565b6001600160a01b0385168152606060208201525f60c08201853536879003601e19018112612588575f5ffd5b86016020810190356001600160401b038111156125a3575f5ffd5b8060071b36038213156125b4575f5ffd5b60608581015291829052905f9060e085015b818310156126455783356125d981611c0a565b6001600160a01b0316815260208401356125f281611c0a565b6001600160a01b0316602082015265ffffffffffff6126136040860161251f565b16604082015265ffffffffffff61262c6060860161251f565b16606082015260809384019360019390930192016125c6565b61265160208a01611c1e565b93506126606080870185611e6c565b5f9350604089013593508360a087015285810360408701526102e781888a612534565b602080825282516001600160a01b0316828201528201515f906126a96040840182611e6c565b5060408301516126bc6060840182611e6c565b50606083015161010060808401526126d8610120840182611e0e565b9050608084015160a084015260a08401516126f660c08501826120b6565b5060c084015180151560e08501525060e0840151838203601f19016101008501526116118282611b79565b5f60208284031215612731575f5ffd5b81516001600160401b03811115612746575f5ffd5b611ebb8482850161219e565b602080825282516001600160a01b0316828201528201515f906127786040840182611e6c565b50604083015161278b6060840182611e6c565b50606083015161010060808401526127a7610120840182611e0e565b9050608084015160a084015260a08401516126f660c0850182612357565b5f82518060208501845e5f92019182525091905056fe9b779b17422d0df92223018b32b4d1fa46e071723d6817e2486d003becc55f00a2646970667358221220ea0ce4cfdb3324c5e933bcdc688b914197bff8fe8c08e4cacbafb6298aa4f5ae64736f6c634300081e0033","linkReferences":{}},"methodIdentifiers":{"addLiquidityHook((address,address,address,uint256[],uint256,uint8,bool,bytes))":"e41535c2","addLiquidityProportional(address,uint256[],uint256,bool,bytes)":"724dba33","getPermit2()":"1bbf2e23","getSender()":"5e01eb5a","getVault()":"8d928af8","getWeth()":"107c279f","multicall(bytes[])":"ac9650d8","permitBatchAndCall((address,address,address,uint256,uint256,uint256)[],bytes[],((address,uint160,uint48,uint48)[],address,uint256),bytes,bytes[])":"19c6989f","removeLiquidityHook((address,address,address,uint256[],uint256,uint8,bool,bytes))":"6274a830","removeLiquidityProportional(address,uint256,uint256[],bool,bytes)":"51682750","version()":"54fd4d50"},"id":856}