{"abi":[{"type":"constructor","inputs":[{"name":"vault","type":"address","internalType":"contract IVault"},{"name":"pauseWindowDuration","type":"uint32","internalType":"uint32"},{"name":"creationCode","type":"bytes","internalType":"bytes"}],"stateMutability":"nonpayable"},{"type":"function","name":"disable","inputs":[],"outputs":[],"stateMutability":"nonpayable"},{"type":"function","name":"getActionId","inputs":[{"name":"selector","type":"bytes4","internalType":"bytes4"}],"outputs":[{"name":"","type":"bytes32","internalType":"bytes32"}],"stateMutability":"view"},{"type":"function","name":"getAuthorizer","inputs":[],"outputs":[{"name":"","type":"address","internalType":"contract IAuthorizer"}],"stateMutability":"view"},{"type":"function","name":"getCreationCode","inputs":[],"outputs":[{"name":"","type":"bytes","internalType":"bytes"}],"stateMutability":"view"},{"type":"function","name":"getCreationCodeContracts","inputs":[],"outputs":[{"name":"contractA","type":"address","internalType":"address"},{"name":"contractB","type":"address","internalType":"address"}],"stateMutability":"view"},{"type":"function","name":"getDefaultLiquidityManagement","inputs":[],"outputs":[{"name":"liquidityManagement","type":"tuple","internalType":"struct LiquidityManagement","components":[{"name":"disableUnbalancedLiquidity","type":"bool","internalType":"bool"},{"name":"enableAddLiquidityCustom","type":"bool","internalType":"bool"},{"name":"enableRemoveLiquidityCustom","type":"bool","internalType":"bool"},{"name":"enableDonation","type":"bool","internalType":"bool"}]}],"stateMutability":"pure"},{"type":"function","name":"getDefaultPoolHooksContract","inputs":[],"outputs":[{"name":"","type":"address","internalType":"address"}],"stateMutability":"pure"},{"type":"function","name":"getDeploymentAddress","inputs":[{"name":"constructorArgs","type":"bytes","internalType":"bytes"},{"name":"salt","type":"bytes32","internalType":"bytes32"}],"outputs":[{"name":"","type":"address","internalType":"address"}],"stateMutability":"view"},{"type":"function","name":"getNewPoolPauseWindowEndTime","inputs":[],"outputs":[{"name":"","type":"uint32","internalType":"uint32"}],"stateMutability":"view"},{"type":"function","name":"getOriginalPauseWindowEndTime","inputs":[],"outputs":[{"name":"","type":"uint32","internalType":"uint32"}],"stateMutability":"view"},{"type":"function","name":"getPauseWindowDuration","inputs":[],"outputs":[{"name":"","type":"uint32","internalType":"uint32"}],"stateMutability":"view"},{"type":"function","name":"getPoolCount","inputs":[],"outputs":[{"name":"","type":"uint256","internalType":"uint256"}],"stateMutability":"view"},{"type":"function","name":"getPools","inputs":[],"outputs":[{"name":"","type":"address[]","internalType":"address[]"}],"stateMutability":"view"},{"type":"function","name":"getPoolsInRange","inputs":[{"name":"start","type":"uint256","internalType":"uint256"},{"name":"count","type":"uint256","internalType":"uint256"}],"outputs":[{"name":"pools","type":"address[]","internalType":"address[]"}],"stateMutability":"view"},{"type":"function","name":"getVault","inputs":[],"outputs":[{"name":"","type":"address","internalType":"contract IVault"}],"stateMutability":"view"},{"type":"function","name":"isDisabled","inputs":[],"outputs":[{"name":"","type":"bool","internalType":"bool"}],"stateMutability":"view"},{"type":"function","name":"isPoolFromFactory","inputs":[{"name":"pool","type":"address","internalType":"address"}],"outputs":[{"name":"","type":"bool","internalType":"bool"}],"stateMutability":"view"},{"type":"function","name":"manualCreate","inputs":[{"name":"name","type":"string","internalType":"string"},{"name":"symbol","type":"string","internalType":"string"},{"name":"salt","type":"bytes32","internalType":"bytes32"}],"outputs":[{"name":"","type":"address","internalType":"address"}],"stateMutability":"nonpayable"},{"type":"function","name":"manualEnsureEnabled","inputs":[],"outputs":[],"stateMutability":"view"},{"type":"function","name":"manualRegisterPoolWithFactory","inputs":[{"name":"pool","type":"address","internalType":"address"}],"outputs":[],"stateMutability":"nonpayable"},{"type":"function","name":"manualRegisterPoolWithVault","inputs":[{"name":"pool","type":"address","internalType":"address"},{"name":"tokens","type":"tuple[]","internalType":"struct TokenConfig[]","components":[{"name":"token","type":"address","internalType":"contract IERC20"},{"name":"tokenType","type":"uint8","internalType":"enum TokenType"},{"name":"rateProvider","type":"address","internalType":"contract IRateProvider"},{"name":"paysYieldFees","type":"bool","internalType":"bool"}]},{"name":"swapFeePercentage","type":"uint256","internalType":"uint256"},{"name":"protocolFeeExempt","type":"bool","internalType":"bool"},{"name":"roleAccounts","type":"tuple","internalType":"struct PoolRoleAccounts","components":[{"name":"pauseManager","type":"address","internalType":"address"},{"name":"swapFeeManager","type":"address","internalType":"address"},{"name":"poolCreator","type":"address","internalType":"address"}]},{"name":"poolHooksContract","type":"address","internalType":"address"},{"name":"liquidityManagement","type":"tuple","internalType":"struct LiquidityManagement","components":[{"name":"disableUnbalancedLiquidity","type":"bool","internalType":"bool"},{"name":"enableAddLiquidityCustom","type":"bool","internalType":"bool"},{"name":"enableRemoveLiquidityCustom","type":"bool","internalType":"bool"},{"name":"enableDonation","type":"bool","internalType":"bool"}]}],"outputs":[],"stateMutability":"nonpayable"},{"type":"event","name":"FactoryDisabled","inputs":[],"anonymous":false},{"type":"event","name":"PoolCreated","inputs":[{"name":"pool","type":"address","indexed":true,"internalType":"address"}],"anonymous":false},{"type":"error","name":"CodeDeploymentFailed","inputs":[]},{"type":"error","name":"Create2EmptyBytecode","inputs":[]},{"type":"error","name":"Create2FailedDeployment","inputs":[]},{"type":"error","name":"Create2InsufficientBalance","inputs":[{"name":"balance","type":"uint256","internalType":"uint256"},{"name":"needed","type":"uint256","internalType":"uint256"}]},{"type":"error","name":"Disabled","inputs":[]},{"type":"error","name":"IndexOutOfBounds","inputs":[]},{"type":"error","name":"PoolPauseWindowDurationOverflow","inputs":[]},{"type":"error","name":"SenderNotAllowed","inputs":[]},{"type":"error","name":"StandardPoolWithCreator","inputs":[]},{"type":"error","name":"VaultNotSet","inputs":[]}],"bytecode":{"object":"0x610180604052348015610010575f5ffd5b5060405161167038038061167083398101604081905261002f916101e9565b828282818380306001600160a01b03165f1b80855f815190505f60028261005691906102e6565b60a081905290505f6100688284610305565b60e08190528285529050835f61007e8282610145565b6001600160a01b0316608052508483018051838252600191906100a18284610145565b6001600160a01b0390811660c0529690935291909152505050610100929092525082166100e157604051630647140b60e51b815260040160405180910390fd5b506001600160a01b031661012052505f61010163ffffffff83164261031e565b905063ffffffff811115610128576040516368755a1160e01b815260040160405180910390fd5b63ffffffff91821661014052166101605250610331945050505050565b5f5f82610172577f602038038060206000396000f3fefefefefefefefefefefefefefefefefefefe610194565b7f60fe600053602038038060206001396001016000f3fefefefefefefefefefefe5b9050835181855260208101855ff090855291506001600160a01b0382166101ce5760405163fef8220760e01b815260040160405180910390fd5b5092915050565b634e487b7160e01b5f52604160045260245ffd5b5f5f5f606084860312156101fb575f5ffd5b83516001600160a01b0381168114610211575f5ffd5b602085015190935063ffffffff8116811461022a575f5ffd5b60408501519092506001600160401b03811115610245575f5ffd5b8401601f81018613610255575f5ffd5b80516001600160401b0381111561026e5761026e6101d5565b604051601f8201601f19908116603f011681016001600160401b038111828210171561029c5761029c6101d5565b6040528181528282016020018810156102b3575f5ffd5b8160208401602083015e5f602083830101528093505050509250925092565b634e487b7160e01b5f52601160045260245ffd5b5f8261030057634e487b7160e01b5f52601260045260245ffd5b500490565b81810381811115610318576103186102d2565b92915050565b80820180821115610318576103186102d2565b60805160a05160c05160e051610100516101205161014051610160516112c16103af5f395f81816102fb01528181610647015261067a01525f61026801525f81816105a4015261099c01525f61054101525f61074201525f8181610159015261072101525f61070001525f818161013401526106df01526112c15ff3fe608060405234801561000f575f5ffd5b5060043610610104575f3560e01c8062c194db14610108578063174481fa14610126578063193ad50f146101845780632f2770db146101b0578063384a7345146101ba57806344f6fec7146101cd57806353a72f7e146101f85780636634b75314610218578063673a2a1f146102535780636c57f5a91461025b57806378da80cb14610266578063851c1bb31461029d5780638d928af8146102be5780638eec5d70146102c6578063900c91ab146102ce57806391133d9c146102e1578063aaabadc5146102e9578063db035ebc146102f1578063e9d56e19146102f9578063ec8880611461031f578063fe98d3b714610325575b5f5ffd5b610110610338565b60405161011d9190610b8e565b60405180910390f35b604080516001600160a01b037f0000000000000000000000000000000000000000000000000000000000000000811682527f00000000000000000000000000000000000000000000000000000000000000001660208201520161011d565b604080516080810182525f808252602082018190528183018190526060820152905161011d9190610bce565b6101b8610356565b005b6101b86101c8366004610d5d565b61039d565b6101e06101db366004610f20565b6103b5565b6040516001600160a01b03909116815260200161011d565b61020b610206366004610f74565b6103d6565b60405161011d9190610f94565b610243610226366004610fdf565b6001600160a01b03165f9081526020819052604090205460ff1690565b604051901515815260200161011d565b61020b6104de565b60025460ff16610243565b7f00000000000000000000000000000000000000000000000000000000000000005b60405163ffffffff909116815260200161011d565b6102b06102ab366004610ffa565b61053e565b60405190815260200161011d565b6101e06105a2565b6001546102b0565b6101b86102dc366004610fdf565b6105c6565b6101b86105d2565b6101e06105dc565b610288610644565b7f0000000000000000000000000000000000000000000000000000000000000000610288565b5f6101e0565b6101e061033336600461103f565b61069c565b606061035160405180602001604052805f8152506106db565b905090565b61035e6107bd565b6103666107fb565b6002805460ff191660011790556040517f432acbfd662dbb5d8b378384a67159b47ca9d0f1b79f97cf64cf8585fa362d50905f90a1565b6103ac8787878787878761081f565b50505050505050565b5f5f6103c08361089d565b90506103cc84826108c0565b9150505b92915050565b6001546060908084106103fc57604051634e23d03560e01b815260040160405180910390fd5b5f61040784866110bf565b90508181111561041e5761041b85836110d2565b93505b836001600160401b0381111561043657610436610c00565b60405190808252806020026020018201604052801561045f578160200160208202803683370190505b5092505f5b848110156104d557600161047882886110bf565b81548110610488576104886110e5565b905f5260205f20015f9054906101000a90046001600160a01b03168482815181106104b5576104b56110e5565b6001600160a01b0390921660209283029190910190910152600101610464565b50505092915050565b6060600180548060200260200160405190810160405280929190818152602001828054801561053457602002820191905f5260205f20905b81546001600160a01b03168152600190910190602001808311610516575b5050505050905090565b5f7f0000000000000000000000000000000000000000000000000000000000000000826040516020016105859291909182526001600160e01b031916602082015260240190565b604051602081830303815290604052805190602001209050919050565b7f000000000000000000000000000000000000000000000000000000000000000090565b6105cf816108de565b50565b6105da6107fb565b565b5f6105e56105a2565b6001600160a01b031663aaabadc56040518163ffffffff1660e01b8152600401602060405180830381865afa158015610620573d5f5f3e3d5ffd5b505050506040513d601f19601f8201168201806040525081019061035191906110f9565b5f7f000000000000000000000000000000000000000000000000000000000000000063ffffffff16421061067757505f90565b507f000000000000000000000000000000000000000000000000000000000000000090565b5f6106d16106a86105a2565b85856040516020016106bc93929190611114565b60405160208183030381529060405283610970565b90505b9392505050565b60607f00000000000000000000000000000000000000000000000000000000000000007f00000000000000000000000000000000000000000000000000000000000000007f00000000000000000000000000000000000000000000000000000000000000007f00000000000000000000000000000000000000000000000000000000000000005f61076c82856110bf565b87519091505f61077c82846110bf565b9050604051975060208101880160405280885260208801865f828a3c846001888301883c50602089810190898501018382825e505050505050505050919050565b5f6107d25f356001600160e01b03191661053e565b90506107de8133610999565b6105cf576040516323dada5360e01b815260040160405180910390fd5b60025460ff16156105da57604051633ac4266d60e11b815260040160405180910390fd5b6108276105a2565b6001600160a01b031663eeec802f888888610840610644565b898989896040518963ffffffff1660e01b8152600401610867989796959493929190611153565b5f604051808303815f87803b15801561087e575f5ffd5b505af1158015610890573d5f5f3e3d5ffd5b5050505050505050505050565b604080513360208201524691810191909152606081018290525f90608001610585565b5f5f6108cb846106db565b90506103cc838280519060200120610a91565b6108e66107fb565b6001600160a01b0381165f81815260208190526040808220805460ff19166001908117909155805480820182559083527fb10e2d527612073b26eecdfd717e6a320cf44b4afac2b0732d9fcbe2b7fa0cf60180546001600160a01b03191684179055517f83a48fbcfc991335314e74d0496aab6a1987e992ddc85dddbcc4d6dd6ef2e9fc9190a250565b5f5f61097b8361089d565b90506109878482610a9d565b9150610992826108de565b5092915050565b5f7f00000000000000000000000000000000000000000000000000000000000000006001600160a01b031663aaabadc56040518163ffffffff1660e01b8152600401602060405180830381865afa1580156109f6573d5f5f3e3d5ffd5b505050506040513d601f19601f82011682018060405250810190610a1a91906110f9565b6040516326f8aa2160e21b8152600481018590526001600160a01b0384811660248301523060448301529190911690639be2a88490606401602060405180830381865afa158015610a6d573d5f5f3e3d5ffd5b505050506040513d601f19601f820116820180604052508101906106d49190611270565b5f6106d4838330610ab5565b5f5f610aa8846106db565b90506103cc5f8483610ade565b5f604051836040820152846020820152828152600b8101905060ff815360559020949350505050565b5f83471015610b0d5760405163392efb2b60e21b81524760048201526024810185905260440160405180910390fd5b81515f03610b2e57604051631328927760e21b815260040160405180910390fd5b8282516020840186f590506001600160a01b0381166106d457604051633a0ba96160e11b815260040160405180910390fd5b5f81518084528060208401602086015e5f602082860101526020601f19601f83011685010191505092915050565b602081525f6106d46020830184610b60565b8051151582526020810151151560208301526040810151151560408301526060810151151560608301525050565b608081016103d08284610ba0565b6001600160a01b03811681146105cf575f5ffd5b8035610bfb81610bdc565b919050565b634e487b7160e01b5f52604160045260245ffd5b604051608081016001600160401b0381118282101715610c3657610c36610c00565b60405290565b604051601f8201601f191681016001600160401b0381118282101715610c6457610c64610c00565b604052919050565b80151581146105cf575f5ffd5b8035610bfb81610c6c565b5f60608284031215610c94575f5ffd5b604051606081016001600160401b0381118282101715610cb657610cb6610c00565b6040529050808235610cc781610bdc565b81526020830135610cd781610bdc565b60208201526040830135610cea81610bdc565b6040919091015292915050565b5f60808284031215610d07575f5ffd5b610d0f610c14565b90508135610d1c81610c6c565b81526020820135610d2c81610c6c565b60208201526040820135610d3f81610c6c565b60408201526060820135610d5281610c6c565b606082015292915050565b5f5f5f5f5f5f5f610180888a031215610d74575f5ffd5b8735610d7f81610bdc565b965060208801356001600160401b03811115610d99575f5ffd5b8801601f81018a13610da9575f5ffd5b80356001600160401b03811115610dc257610dc2610c00565b610dd160208260051b01610c3c565b8082825260208201915060208360071b85010192508c831115610df2575f5ffd5b6020840193505b82841015610e75576080848e031215610e10575f5ffd5b610e18610c14565b8435610e2381610bdc565b8152602085013560028110610e36575f5ffd5b60208201526040850135610e4981610bdc565b60408201526060850135610e5c81610c6c565b6060820152825260809390930192602090910190610df9565b985050505060408801359450610e8d60608901610c79565b9350610e9c8960808a01610c84565b9250610eaa60e08901610bf0565b9150610eba896101008a01610cf7565b905092959891949750929550565b5f806001600160401b03841115610ee157610ee1610c00565b50601f8301601f1916602001610ef681610c3c565b915050828152838383011115610f0a575f5ffd5b828260208301375f602084830101529392505050565b5f5f60408385031215610f31575f5ffd5b82356001600160401b03811115610f46575f5ffd5b8301601f81018513610f56575f5ffd5b610f6585823560208401610ec8565b95602094909401359450505050565b5f5f60408385031215610f85575f5ffd5b50508035926020909101359150565b602080825282518282018190525f918401906040840190835b81811015610fd45783516001600160a01b0316835260209384019390920191600101610fad565b509095945050505050565b5f60208284031215610fef575f5ffd5b81356106d481610bdc565b5f6020828403121561100a575f5ffd5b81356001600160e01b0319811681146106d4575f5ffd5b5f82601f830112611030575f5ffd5b6106d483833560208501610ec8565b5f5f5f60608486031215611051575f5ffd5b83356001600160401b03811115611066575f5ffd5b61107286828701611021565b93505060208401356001600160401b0381111561108d575f5ffd5b61109986828701611021565b93969395505050506040919091013590565b634e487b7160e01b5f52601160045260245ffd5b808201808211156103d0576103d06110ab565b818103818111156103d0576103d06110ab565b634e487b7160e01b5f52603260045260245ffd5b5f60208284031215611109575f5ffd5b81516106d481610bdc565b6001600160a01b03841681526060602082018190525f9061113790830185610b60565b82810360408401526111498185610b60565b9695505050505050565b6001600160a01b03891681526101a0602080830182905289519183018290525f91908a01906101c0840190835b818110156111f657835180516001600160a01b031684526020810151600281106111b857634e487b7160e01b5f52602160045260245ffd5b6020858101919091526040828101516001600160a01b0316908601526060918201511515918501919091529390930192608090920191600101611180565b5050604084018a905263ffffffff8916606085015291506112149050565b851515608083015284516001600160a01b0390811660a08401526020860151811660c084015260408601511660e08301526001600160a01b038416610100830152611263610120830184610ba0565b9998505050505050505050565b5f60208284031215611280575f5ffd5b81516106d481610c6c56fea264697066735822122023052caef8d7c1a91f41bd44f5afb22a8c464ad9b952762f4117e3bcbd587c2f64736f6c634300081e0033","linkReferences":{}},"methodIdentifiers":{"disable()":"2f2770db","getActionId(bytes4)":"851c1bb3","getAuthorizer()":"aaabadc5","getCreationCode()":"00c194db","getCreationCodeContracts()":"174481fa","getDefaultLiquidityManagement()":"193ad50f","getDefaultPoolHooksContract()":"ec888061","getDeploymentAddress(bytes,bytes32)":"44f6fec7","getNewPoolPauseWindowEndTime()":"db035ebc","getOriginalPauseWindowEndTime()":"e9d56e19","getPauseWindowDuration()":"78da80cb","getPoolCount()":"8eec5d70","getPools()":"673a2a1f","getPoolsInRange(uint256,uint256)":"53a72f7e","getVault()":"8d928af8","isDisabled()":"6c57f5a9","isPoolFromFactory(address)":"6634b753","manualCreate(string,string,bytes32)":"fe98d3b7","manualEnsureEnabled()":"91133d9c","manualRegisterPoolWithFactory(address)":"900c91ab","manualRegisterPoolWithVault(address,(address,uint8,address,bool)[],uint256,bool,(address,address,address),address,(bool,bool,bool,bool))":"384a7345"},"id":190}