{"abi":[{"type":"function","name":"computeBalance","inputs":[{"name":"","type":"uint256[]","internalType":"uint256[]"},{"name":"","type":"uint256","internalType":"uint256"},{"name":"","type":"uint256","internalType":"uint256"}],"outputs":[{"name":"","type":"uint256","internalType":"uint256"}],"stateMutability":"pure"},{"type":"function","name":"computeInvariant","inputs":[{"name":"balancesLiveScaled18","type":"uint256[]","internalType":"uint256[]"},{"name":"rounding","type":"uint8","internalType":"enum Rounding"}],"outputs":[{"name":"invariant","type":"uint256","internalType":"uint256"}],"stateMutability":"view"},{"type":"function","name":"getGradualWeightUpdateParams","inputs":[],"outputs":[{"name":"startTime","type":"uint256","internalType":"uint256"},{"name":"endTime","type":"uint256","internalType":"uint256"},{"name":"startWeights","type":"uint256[]","internalType":"uint256[]"},{"name":"endWeights","type":"uint256[]","internalType":"uint256[]"}],"stateMutability":"view"},{"type":"function","name":"getNormalizedWeights","inputs":[],"outputs":[{"name":"weights","type":"uint256[]","internalType":"uint256[]"}],"stateMutability":"view"},{"type":"function","name":"getTokenIndices","inputs":[],"outputs":[{"name":"projectTokenIndex","type":"uint256","internalType":"uint256"},{"name":"reserveTokenIndex","type":"uint256","internalType":"uint256"}],"stateMutability":"view"},{"type":"function","name":"initialize","inputs":[{"name":"projectTokenIndex_","type":"uint256","internalType":"uint256"},{"name":"reserveTokenIndex_","type":"uint256","internalType":"uint256"},{"name":"projectTokenStartWeight_","type":"uint256","internalType":"uint256"},{"name":"projectTokenEndWeight_","type":"uint256","internalType":"uint256"},{"name":"startTime_","type":"uint256","internalType":"uint256"},{"name":"endTime_","type":"uint256","internalType":"uint256"},{"name":"blockProjectTokenSwapsIn_","type":"bool","internalType":"bool"}],"outputs":[],"stateMutability":"nonpayable"},{"type":"function","name":"initializeSeedless","inputs":[{"name":"projectTokenIndex_","type":"uint256","internalType":"uint256"},{"name":"reserveTokenIndex_","type":"uint256","internalType":"uint256"},{"name":"projectTokenStartWeight_","type":"uint256","internalType":"uint256"},{"name":"projectTokenEndWeight_","type":"uint256","internalType":"uint256"},{"name":"startTime_","type":"uint256","internalType":"uint256"},{"name":"endTime_","type":"uint256","internalType":"uint256"},{"name":"blockProjectTokenSwapsIn_","type":"bool","internalType":"bool"},{"name":"reserveTokenVirtualBalanceScaled18_","type":"uint256","internalType":"uint256"}],"outputs":[],"stateMutability":"nonpayable"},{"type":"function","name":"isProjectTokenSwapInBlocked","inputs":[],"outputs":[{"name":"","type":"bool","internalType":"bool"}],"stateMutability":"view"},{"type":"function","name":"isSwapEnabled","inputs":[],"outputs":[{"name":"","type":"bool","internalType":"bool"}],"stateMutability":"view"},{"type":"function","name":"onSwap","inputs":[{"name":"params","type":"tuple","internalType":"struct PoolSwapParams","components":[{"name":"kind","type":"uint8","internalType":"enum SwapKind"},{"name":"amountGivenScaled18","type":"uint256","internalType":"uint256"},{"name":"balancesScaled18","type":"uint256[]","internalType":"uint256[]"},{"name":"indexIn","type":"uint256","internalType":"uint256"},{"name":"indexOut","type":"uint256","internalType":"uint256"},{"name":"router","type":"address","internalType":"address"},{"name":"userData","type":"bytes","internalType":"bytes"}]}],"outputs":[{"name":"amountCalculatedScaled18","type":"uint256","internalType":"uint256"}],"stateMutability":"view"},{"type":"error","name":"BaseOutOfBounds","inputs":[]},{"type":"error","name":"ExponentOutOfBounds","inputs":[]},{"type":"error","name":"InsufficientRealReserveBalance","inputs":[{"name":"requested","type":"uint256","internalType":"uint256"},{"name":"available","type":"uint256","internalType":"uint256"}]},{"type":"error","name":"InvalidExponent","inputs":[]},{"type":"error","name":"InvalidTimeRange","inputs":[]},{"type":"error","name":"InvalidWeights","inputs":[]},{"type":"error","name":"MaxInRatio","inputs":[]},{"type":"error","name":"MaxOutRatio","inputs":[]},{"type":"error","name":"ProductOutOfBounds","inputs":[]},{"type":"error","name":"SwapOfProjectTokenIn","inputs":[]},{"type":"error","name":"SwapsDisabled","inputs":[]},{"type":"error","name":"ZeroDivision","inputs":[]},{"type":"error","name":"ZeroInvariant","inputs":[]}],"bytecode":{"object":"0x6080604052348015600e575f5ffd5b50611c958061001c5f395ff3fe608060405234801561000f575f5ffd5b506004361061008c575f3560e01c8063022b27091461009057806316a0b3e0146100a557806321fa70e4146100cb578063351a964d146100de57806372c98186146100f65780637beed2201461010957806395146efb14610121578063984de9e814610129578063ae3ecc641461013c578063f89f27ed14610159575b5f5ffd5b6100a361009e36600461187f565b61016e565b005b6100b86100b3366004611992565b610191565b6040519081526020015b60405180910390f35b6100a36100d93660046119db565b6101dd565b6100e66101f7565b60405190151581526020016100c2565b6100b8610104366004611a32565b610205565b610111610439565b6040516100c29493929190611aa2565b6100e6610454565b6100b8610137366004611aec565b61045d565b610144610568565b604080519283526020830191909152016100c2565b610161610582565b6040516100c29190611b3a565b6101878888888888888888670de0b6b3a764000061058c565b5050505050505050565b60405162461bcd60e51b815260206004820152601a6024820152792621281d103ab739bab83837b93a32b21037b832b930ba34b7b760311b60448201525f906064015b60405180910390fd5b6101ee878787878787875f5f61058c565b50505050505050565b5f6102006105b0565b905090565b5f61020e6105b0565b61022b5760405163fdf7984560e01b815260040160405180910390fd5b5f6102346105c1565b905061023e6105d1565b801561024e575080836080013514155b1561026c57604051630934a1c560e11b815260040160405180910390fd5b5f6102756105e7565b90505f6102806106af565b90505f61028b6106c2565b90505f61029b6040880188611b4c565b88606001358181106102af576102af611b98565b9050602002013590505f8780604001906102c99190611b4c565b89608001358181106102dd576102dd611b98565b9050602002013590505f84111561031e5782886060013503610306576103038483611bc0565b91505b8288608001350361031e5761031b8482611bc0565b90505b5f8589606001358151811061033557610335611b98565b602002602001015190505f868a608001358151811061035657610356611b98565b602002602001015190505f600181111561037257610372611bd3565b61037f60208c018c611be7565b600181111561039057610390611bd3565b036103ad576103a6848385848e602001356106d5565b98506103c1565b6103be848385848e60200135610764565b98505b5f861180156103d35750848a60800135145b1561042c575f6103e660408c018c611b4c565b878181106103f6576103f6611b98565b905060200201359050808a111561042a57604051633715344960e01b8152600481018b9052602481018290526044016101d4565b505b5050505050505050919050565b5f5f6060806104466107e7565b935093509350935090919293565b5f6102006105d1565b5f5f6104676105e7565b90505f6104726106af565b90508015610529575f6104836106c2565b90505f86828151811061049857610498611b98565b60200260200101519050828783815181106104b5576104b5611b98565b602002602001018181516104c99190611bc0565b90525060018660018111156104e0576104e0611bd3565b036104f6576104ef84886107fc565b9450610503565b6105008488610890565b94505b8087838151811061051657610516611b98565b6020026020010181815250505050610560565b600184600181111561053d5761053d611bd3565b036105535761054c82866107fc565b9250610560565b61055d8286610890565b92505b505092915050565b5f5f6105726105c1565b915061057c6106c2565b90509091565b60606102006105e7565b6105a56105976108fd565b8a8a8a8a8a8a8a8a8a610921565b505050505050505050565b5f6102006105bc6108fd565b610a26565b5f6102006105cd6108fd565b5490565b5f6102006105dd6108fd565b6008015460ff1690565b60605f6105f2610a41565b90505f6105fd610a54565b90505f6106086105c1565b90505f6106136106c2565b90505f610630610621610a67565b610629610a7a565b8787610a8d565b90505f61064582670de0b6b3a7640000611c02565b60408051600280825260608201835292935091906020830190803683370190505096508187858151811061067b5761067b611b98565b6020026020010181815250508087848151811061069a5761069a611b98565b60200260200101818152505050505050505090565b5f6102006106bb6108fd565b6009015490565b5f6102006106ce6108fd565b6001015490565b5f6106e886670429d069189e0000610ab0565b8211156107085760405163340a453360e01b815260040160405180910390fd5b5f6107138388611bc0565b90505f6107208883610ad8565b90505f61072d8887610af3565b90505f61073a8383610b13565b9050610756670de0b6b3a7640000828103908310028990610ab0565b9a9950505050505050505050565b5f61077784670429d069189e0000610ab0565b821115610797576040516364590b9f60e01b815260040160405180910390fd5b5f6107ac6107a58487611c02565b8690610ad8565b90505f6107b98588610ad8565b90505f6107c68383610b13565b90505f6107db670de0b6b3a764000083611c02565b90506107568a82610bc6565b5f5f6060806104466107f76108fd565b610bf2565b670de0b6b3a76400005f5b83518110156108695761085f61085885838151811061082857610828611b98565b602002602001015185848151811061084257610842611b98565b6020026020010151610ce390919063ffffffff16565b8390610ab0565b9150600101610807565b50805f0361088a57604051632654368960e01b815260040160405180910390fd5b92915050565b670de0b6b3a76400005f5b8351811015610869576108f36108ec8583815181106108bc576108bc611b98565b60200260200101518584815181106108d6576108d6611b98565b6020026020010151610b1390919063ffffffff16565b8390610bc6565b915060010161089b565b7fd53c3e2fdabe48bf711f58c7df0c133f4da87092dfb6b9b0387c9021e3acd3ff90565b8385106109415760405163536a71af60e01b815260040160405180910390fd5b5f61095488670de0b6b3a7640000611c02565b90505f61096988670de0b6b3a7640000611c02565b9050662386f26fc10000808a108061098057508089105b1561099e5760405163108cef9d60e31b815260040160405180910390fd5b808310806109ab57508082105b156109c95760405163108cef9d60e31b815260040160405180910390fd5b50998b5560018b019890985560028a01969096556003890194909455600488019590955560058701959095556006860155600785019390935560088401805460ff1916921515929092179091556009830191909155600a90910155565b5f8160060154421015801561088a5750506007015442111590565b5f610200610a4d6108fd565b6006015490565b5f610200610a606108fd565b6007015490565b5f610200610a736108fd565b6002015490565b5f610200610a866108fd565b6003015490565b5f5f610a998484610d8f565b9050610aa6868683610dc5565b9695505050505050565b5f80610abc8385611c15565b9050610ad0670de0b6b3a764000082611c40565b949350505050565b5f610aec83670de0b6b3a764000084610e2e565b9392505050565b5f80610b07670de0b6b3a764000085611c15565b9050610ad08382611c40565b5f670de0b6b3a76400008203610b2a57508161088a565b610b3d670de0b6b3a76400006002611c15565b8203610b5457610b4d8384610bc6565b905061088a565b610b67670de0b6b3a76400006004611c15565b8203610b8c575f610b788485610bc6565b9050610b848182610bc6565b91505061088a565b5f610b978484610e73565b90505f610ba682612710610bc6565b610bb1906001611bc0565b9050610bbd8183611bc0565b9250505061088a565b5f80610bd28385611c15565b90506001670de0b6b3a76400006001830304018115150291505092915050565b60068101546007820154604080516002808252606080830184529283929190602083019080368337019050509150846002015482865f015481518110610c3a57610c3a611b98565b602002602001018181525050846004015482866001015481518110610c6157610c61611b98565b60209081029190910101526040805160028082526060820190925290816020016020820280368337019050509050846003015481865f015481518110610ca957610ca9611b98565b602002602001018181525050846005015481866001015481518110610cd057610cd0611b98565b6020026020010181815250509193509193565b5f670de0b6b3a76400008203610cfa57508161088a565b610d0d670de0b6b3a76400006002611c15565b8203610d1d57610b4d8384610ab0565b610d30670de0b6b3a76400006004611c15565b8203610d4d575f610d418485610ab0565b9050610b848182610ab0565b5f610d588484610e73565b90505f610d6782612710610bc6565b610d72906001611bc0565b905080821015610d86575f9250505061088a565b9003905061088a565b5f814210610da65750670de0b6b3a764000061088a565b824211610db457505f61088a565b8282034284900361055d8183610af3565b5f670de0b6b3a764000082101580610ddc57508284145b15610de8575081610aec565b815f03610df6575082610aec565b82841115610e16575f610e0b83858703610ab0565b85039150610aec9050565b5f610e2383868603610ab0565b85019150610aec9050565b5f815f03610e4f57604051630a0c22c760e01b815260040160405180910390fd5b5f610e5a8486611c15565b9050600183600183030401811515029150509392505050565b5f815f03610e8a5750670de0b6b3a764000061088a565b825f03610e9857505f61088a565b60ff83901c15610eba576040516211380f60e51b815260040160405180910390fd5b82610ed268056bc75e2d63100000600160fe1b611c40565b8310610ef15760405163d831731160e01b815260040160405180910390fd5b825f670c7d713b49da000083138015610f115750670f43fc2c04ee000083125b15610f47575f610f2084610fa9565b9050670de0b6b3a764000080820784020583670de0b6b3a764000083050201915050610f55565b81610f51846110c6565b0290505b670de0b6b3a76400009005680238fd42c5cf03ffff198112801590610f83575068070c1cc73b00c800008113155b610fa05760405163a2f9f7e360e01b815260040160405180910390fd5b610aa681611470565b670de0b6b3a7640000025f806a0c097ce7bc90715b34b9f160241b808401906ec097ce7bc90715b34b9f0fffffffff1985010281610fe957610fe9611c2c565b0590505f6a0c097ce7bc90715b34b9f160241b82800205905081806a0c097ce7bc90715b34b9f160241b81840205915060038205016a0c097ce7bc90715b34b9f160241b82840205915060058205016a0c097ce7bc90715b34b9f160241b82840205915060078205016a0c097ce7bc90715b34b9f160241b82840205915060098205016a0c097ce7bc90715b34b9f160241b828402059150600b8205016a0c097ce7bc90715b34b9f160241b828402059150600d8205016a0c097ce7bc90715b34b9f160241b828402059150600f82050160020295945050505050565b5f80670de0b6b3a76400008312156110fd57826a0c097ce7bc90715b34b9f160241b816110f5576110f5611c2c565b059250600190505b5f775803bcc5cb9634ba4cfb2213f784019318ed4dcb6017880f60361b84126111475772195e54c5dd42177f53a27172fa9ec63026282760241b840593506806f05b59d3b2000000015b6f8bcc0026baae9e45e470190267a230cf60191b841261117e576b1425982cf597cd205cef7380840593506803782dace9d9000000015b606493840293026e01855144814a7ff805980ff008400084126111c6576e01855144814a7ff805980ff008400068056bc75e2d63100000850205935068ad78ebc5ac62000000015b6b02df0ab5a80a22c61ab5a7008412611201576b02df0ab5a80a22c61ab5a70068056bc75e2d6310000085020593506856bc75e2d631000000015b693f1fce3da636ea5cf850841261123857693f1fce3da636ea5cf85068056bc75e2d631000008502059350682b5e3af16b18800000015b690127fa27722cc06cc5e2841261126f57690127fa27722cc06cc5e268056bc75e2d6310000085020593506815af1d78b58c400000015b68280e60114edb805d0384126112a45768280e60114edb805d0368056bc75e2d631000008502059350680ad78ebc5ac6200000015b680ebc5fb4174612111084126112cf57680ebc5fb4174612111068056bc75e2d631000009485020593015b6808f00f760a4b2db55d8412611304576808f00f760a4b2db55d68056bc75e2d6310000085020593506802b5e3af16b1880000015b6806f5f17757889379378412611339576806f5f177578893793768056bc75e2d63100000850205935068015af1d78b58c40000015b6806248f33704b286603841261136d576806248f33704b28660368056bc75e2d63100000850205935067ad78ebc5ac620000015b6805c548670b9510e7ac84126113a1576805c548670b9510e7ac68056bc75e2d6310000085020593506756bc75e2d6310000015b5f68056bc75e2d63100000850168056bc75e2d6310000080870302816113c9576113c9611c2c565b0590505f68056bc75e2d63100000828002059050818068056bc75e2d63100000818402059150600382050168056bc75e2d63100000828402059150600582050168056bc75e2d63100000828402059150600782050168056bc75e2d63100000828402059150600982050168056bc75e2d63100000828402059150600b8205016002025f60648683010590508661145f5780611463565b805f035b9998505050505050505050565b5f680238fd42c5cf03ffff198212158015611494575068070c1cc73b00c800008213155b6114b15760405163d4794efd60e01b815260040160405180910390fd5b5f808312156114c457825f039250600190505b5f6806f05b59d3b2000000841261150157506806f05b59d3b1ffffff199092019172195e54c5dd42177f53a27172fa9ec63026282760241b611537565b6803782dace9d9000000841261153357506803782dace9d8ffffff19909201916b1425982cf597cd205cef7380611537565b5060015b6064939093029268056bc75e2d6310000068ad78ebc5ac6200000085126115875768ad78ebc5ac61ffffff199094019368056bc75e2d631000006e01855144814a7ff805980ff008400082020590505b6856bc75e2d63100000085126115c3576856bc75e2d630ffffff199094019368056bc75e2d631000006b02df0ab5a80a22c61ab5a70082020590505b682b5e3af16b1880000085126115fd57682b5e3af16b187fffff199094019368056bc75e2d63100000693f1fce3da636ea5cf85082020590505b6815af1d78b58c4000008512611637576815af1d78b58c3fffff199094019368056bc75e2d63100000690127fa27722cc06cc5e282020590505b680ad78ebc5ac6200000851261167057680ad78ebc5ac61fffff199094019368056bc75e2d6310000068280e60114edb805d0382020590505b68056bc75e2d6310000085126116a95768056bc75e2d630fffff199094019368056bc75e2d63100000680ebc5fb4174612111082020590505b6802b5e3af16b188000085126116e2576802b5e3af16b187ffff199094019368056bc75e2d631000006808f00f760a4b2db55d82020590505b68015af1d78b58c40000851261171b5768015af1d78b58c3ffff199094019368056bc75e2d631000006806f5f177578893793782020590505b68056bc75e2d631000008581019086906002908280020505918201919050600368056bc75e2d631000008883020505918201919050600468056bc75e2d631000008883020505918201919050600568056bc75e2d631000008883020505918201919050600668056bc75e2d631000008883020505918201919050600768056bc75e2d631000008883020505918201919050600868056bc75e2d631000008883020505918201919050600968056bc75e2d631000008883020505918201919050600a68056bc75e2d631000008883020505918201919050600b68056bc75e2d631000008883020505918201919050600c68056bc75e2d6310000088830205059182019190505f606468056bc75e2d6310000085850205860205905085611840578061185f565b806a0c097ce7bc90715b34b9f160241b8161185d5761185d611c2c565b055b98975050505050505050565b8035801515811461187a575f5ffd5b919050565b5f5f5f5f5f5f5f5f610100898b031215611897575f5ffd5b883597506020890135965060408901359550606089013594506080890135935060a089013592506118ca60c08a0161186b565b979a969950949793969295919450919260e001359150565b634e487b7160e01b5f52604160045260245ffd5b5f82601f830112611905575f5ffd5b81356001600160401b0381111561191e5761191e6118e2565b604051600582901b90603f8201601f191681016001600160401b038111828210171561194c5761194c6118e2565b604052918252602081850181019290810186841115611969575f5ffd5b6020860192505b83831015611988578235815260209283019201611970565b5095945050505050565b5f5f5f606084860312156119a4575f5ffd5b83356001600160401b038111156119b9575f5ffd5b6119c5868287016118f6565b9660208601359650604090950135949350505050565b5f5f5f5f5f5f5f60e0888a0312156119f1575f5ffd5b873596506020880135955060408801359450606088013593506080880135925060a08801359150611a2460c0890161186b565b905092959891949750929550565b5f60208284031215611a42575f5ffd5b81356001600160401b03811115611a57575f5ffd5b820160e08185031215610aec575f5ffd5b5f8151808452602084019350602083015f5b82811015611a98578151865260209586019590910190600101611a7a565b5093949350505050565b848152836020820152608060408201525f611ac06080830185611a68565b8281036060840152611ad28185611a68565b979650505050505050565b60028110611ae9575f5ffd5b50565b5f5f60408385031215611afd575f5ffd5b82356001600160401b03811115611b12575f5ffd5b611b1e858286016118f6565b9250506020830135611b2f81611add565b809150509250929050565b602081525f610aec6020830184611a68565b5f5f8335601e19843603018112611b61575f5ffd5b8301803591506001600160401b03821115611b7a575f5ffd5b6020019150600581901b3603821315611b91575f5ffd5b9250929050565b634e487b7160e01b5f52603260045260245ffd5b634e487b7160e01b5f52601160045260245ffd5b8082018082111561088a5761088a611bac565b634e487b7160e01b5f52602160045260245ffd5b5f60208284031215611bf7575f5ffd5b8135610aec81611add565b8181038181111561088a5761088a611bac565b808202811582820484141761088a5761088a611bac565b634e487b7160e01b5f52601260045260245ffd5b5f82611c5a57634e487b7160e01b5f52601260045260245ffd5b50049056fea26469706673582212203807e3181eff8ffc98c01580e0fc96d8a48fab8961bf4435801dd26b1918bc2d64736f6c634300081e0033","linkReferences":{}},"methodIdentifiers":{"computeBalance(uint256[],uint256,uint256)":"16a0b3e0","computeInvariant(uint256[],uint8)":"984de9e8","getGradualWeightUpdateParams()":"7beed220","getNormalizedWeights()":"f89f27ed","getTokenIndices()":"ae3ecc64","initialize(uint256,uint256,uint256,uint256,uint256,uint256,bool)":"21fa70e4","initializeSeedless(uint256,uint256,uint256,uint256,uint256,uint256,bool,uint256)":"022b2709","isProjectTokenSwapInBlocked()":"95146efb","isSwapEnabled()":"351a964d","onSwap((uint8,uint256,uint256[],uint256,uint256,address,bytes))":"72c98186"},"id":891}