{"abi":[{"type":"constructor","inputs":[{"name":"_factory","type":"address","internalType":"address"},{"name":"_WETH9","type":"address","internalType":"address"},{"name":"_tokenDescriptor_","type":"address","internalType":"address"}],"stateMutability":"nonpayable"},{"type":"receive","stateMutability":"payable"},{"type":"function","name":"DOMAIN_SEPARATOR","inputs":[],"outputs":[{"name":"","type":"bytes32","internalType":"bytes32"}],"stateMutability":"view"},{"type":"function","name":"PERMIT_TYPEHASH","inputs":[],"outputs":[{"name":"","type":"bytes32","internalType":"bytes32"}],"stateMutability":"view"},{"type":"function","name":"WETH9","inputs":[],"outputs":[{"name":"","type":"address","internalType":"address"}],"stateMutability":"view"},{"type":"function","name":"approve","inputs":[{"name":"to","type":"address","internalType":"address"},{"name":"tokenId","type":"uint256","internalType":"uint256"}],"outputs":[],"stateMutability":"payable"},{"type":"function","name":"balanceOf","inputs":[{"name":"owner","type":"address","internalType":"address"}],"outputs":[{"name":"","type":"uint256","internalType":"uint256"}],"stateMutability":"view"},{"type":"function","name":"burn","inputs":[{"name":"tokenId","type":"uint256","internalType":"uint256"}],"outputs":[],"stateMutability":"payable"},{"type":"function","name":"collect","inputs":[{"name":"params","type":"tuple","internalType":"struct INonfungiblePositionManager.CollectParams","components":[{"name":"tokenId","type":"uint256","internalType":"uint256"},{"name":"recipient","type":"address","internalType":"address"},{"name":"amount0Max","type":"uint128","internalType":"uint128"},{"name":"amount1Max","type":"uint128","internalType":"uint128"}]}],"outputs":[{"name":"amount0","type":"uint256","internalType":"uint256"},{"name":"amount1","type":"uint256","internalType":"uint256"}],"stateMutability":"payable"},{"type":"function","name":"createAndInitializePoolIfNecessary","inputs":[{"name":"token0","type":"address","internalType":"address"},{"name":"token1","type":"address","internalType":"address"},{"name":"fee","type":"uint24","internalType":"uint24"},{"name":"sqrtPriceX96","type":"uint160","internalType":"uint160"}],"outputs":[{"name":"pool","type":"address","internalType":"address"}],"stateMutability":"payable"},{"type":"function","name":"decreaseLiquidity","inputs":[{"name":"params","type":"tuple","internalType":"struct INonfungiblePositionManager.DecreaseLiquidityParams","components":[{"name":"tokenId","type":"uint256","internalType":"uint256"},{"name":"liquidity","type":"uint128","internalType":"uint128"},{"name":"amount0Min","type":"uint256","internalType":"uint256"},{"name":"amount1Min","type":"uint256","internalType":"uint256"},{"name":"deadline","type":"uint256","internalType":"uint256"}]}],"outputs":[{"name":"amount0","type":"uint256","internalType":"uint256"},{"name":"amount1","type":"uint256","internalType":"uint256"}],"stateMutability":"payable"},{"type":"function","name":"factory","inputs":[],"outputs":[{"name":"","type":"address","internalType":"address"}],"stateMutability":"view"},{"type":"function","name":"getApproved","inputs":[{"name":"tokenId","type":"uint256","internalType":"uint256"}],"outputs":[{"name":"","type":"address","internalType":"address"}],"stateMutability":"view"},{"type":"function","name":"increaseLiquidity","inputs":[{"name":"params","type":"tuple","internalType":"struct INonfungiblePositionManager.IncreaseLiquidityParams","components":[{"name":"tokenId","type":"uint256","internalType":"uint256"},{"name":"amount0Desired","type":"uint256","internalType":"uint256"},{"name":"amount1Desired","type":"uint256","internalType":"uint256"},{"name":"amount0Min","type":"uint256","internalType":"uint256"},{"name":"amount1Min","type":"uint256","internalType":"uint256"},{"name":"deadline","type":"uint256","internalType":"uint256"}]}],"outputs":[{"name":"liquidity","type":"uint128","internalType":"uint128"},{"name":"amount0","type":"uint256","internalType":"uint256"},{"name":"amount1","type":"uint256","internalType":"uint256"}],"stateMutability":"payable"},{"type":"function","name":"isApprovedForAll","inputs":[{"name":"owner","type":"address","internalType":"address"},{"name":"operator","type":"address","internalType":"address"}],"outputs":[{"name":"","type":"bool","internalType":"bool"}],"stateMutability":"view"},{"type":"function","name":"mint","inputs":[{"name":"params","type":"tuple","internalType":"struct INonfungiblePositionManager.MintParams","components":[{"name":"token0","type":"address","internalType":"address"},{"name":"token1","type":"address","internalType":"address"},{"name":"fee","type":"uint24","internalType":"uint24"},{"name":"tickLower","type":"int24","internalType":"int24"},{"name":"tickUpper","type":"int24","internalType":"int24"},{"name":"amount0Desired","type":"uint256","internalType":"uint256"},{"name":"amount1Desired","type":"uint256","internalType":"uint256"},{"name":"amount0Min","type":"uint256","internalType":"uint256"},{"name":"amount1Min","type":"uint256","internalType":"uint256"},{"name":"recipient","type":"address","internalType":"address"},{"name":"deadline","type":"uint256","internalType":"uint256"}]}],"outputs":[{"name":"tokenId","type":"uint256","internalType":"uint256"},{"name":"liquidity","type":"uint128","internalType":"uint128"},{"name":"amount0","type":"uint256","internalType":"uint256"},{"name":"amount1","type":"uint256","internalType":"uint256"}],"stateMutability":"payable"},{"type":"function","name":"multicall","inputs":[{"name":"data","type":"bytes[]","internalType":"bytes[]"}],"outputs":[{"name":"results","type":"bytes[]","internalType":"bytes[]"}],"stateMutability":"payable"},{"type":"function","name":"name","inputs":[],"outputs":[{"name":"","type":"string","internalType":"string"}],"stateMutability":"view"},{"type":"function","name":"ownerOf","inputs":[{"name":"tokenId","type":"uint256","internalType":"uint256"}],"outputs":[{"name":"","type":"address","internalType":"address"}],"stateMutability":"view"},{"type":"function","name":"permit","inputs":[{"name":"spender","type":"address","internalType":"address"},{"name":"tokenId","type":"uint256","internalType":"uint256"},{"name":"deadline","type":"uint256","internalType":"uint256"},{"name":"v","type":"uint8","internalType":"uint8"},{"name":"r","type":"bytes32","internalType":"bytes32"},{"name":"s","type":"bytes32","internalType":"bytes32"}],"outputs":[],"stateMutability":"payable"},{"type":"function","name":"positions","inputs":[{"name":"tokenId","type":"uint256","internalType":"uint256"}],"outputs":[{"name":"nonce","type":"uint96","internalType":"uint96"},{"name":"operator","type":"address","internalType":"address"},{"name":"token0","type":"address","internalType":"address"},{"name":"token1","type":"address","internalType":"address"},{"name":"fee","type":"uint24","internalType":"uint24"},{"name":"tickLower","type":"int24","internalType":"int24"},{"name":"tickUpper","type":"int24","internalType":"int24"},{"name":"liquidity","type":"uint128","internalType":"uint128"},{"name":"feeGrowthInside0LastX128","type":"uint256","internalType":"uint256"},{"name":"feeGrowthInside1LastX128","type":"uint256","internalType":"uint256"},{"name":"tokensOwed0","type":"uint128","internalType":"uint128"},{"name":"tokensOwed1","type":"uint128","internalType":"uint128"}],"stateMutability":"view"},{"type":"function","name":"refundETH","inputs":[],"outputs":[],"stateMutability":"payable"},{"type":"function","name":"safeTransferFrom","inputs":[{"name":"from","type":"address","internalType":"address"},{"name":"to","type":"address","internalType":"address"},{"name":"tokenId","type":"uint256","internalType":"uint256"}],"outputs":[],"stateMutability":"payable"},{"type":"function","name":"safeTransferFrom","inputs":[{"name":"from","type":"address","internalType":"address"},{"name":"to","type":"address","internalType":"address"},{"name":"tokenId","type":"uint256","internalType":"uint256"},{"name":"data","type":"bytes","internalType":"bytes"}],"outputs":[],"stateMutability":"payable"},{"type":"function","name":"selfPermit","inputs":[{"name":"token","type":"address","internalType":"address"},{"name":"value","type":"uint256","internalType":"uint256"},{"name":"deadline","type":"uint256","internalType":"uint256"},{"name":"v","type":"uint8","internalType":"uint8"},{"name":"r","type":"bytes32","internalType":"bytes32"},{"name":"s","type":"bytes32","internalType":"bytes32"}],"outputs":[],"stateMutability":"payable"},{"type":"function","name":"selfPermitAllowed","inputs":[{"name":"token","type":"address","internalType":"address"},{"name":"nonce","type":"uint256","internalType":"uint256"},{"name":"expiry","type":"uint256","internalType":"uint256"},{"name":"v","type":"uint8","internalType":"uint8"},{"name":"r","type":"bytes32","internalType":"bytes32"},{"name":"s","type":"bytes32","internalType":"bytes32"}],"outputs":[],"stateMutability":"payable"},{"type":"function","name":"selfPermitAllowedIfNecessary","inputs":[{"name":"token","type":"address","internalType":"address"},{"name":"nonce","type":"uint256","internalType":"uint256"},{"name":"expiry","type":"uint256","internalType":"uint256"},{"name":"v","type":"uint8","internalType":"uint8"},{"name":"r","type":"bytes32","internalType":"bytes32"},{"name":"s","type":"bytes32","internalType":"bytes32"}],"outputs":[],"stateMutability":"payable"},{"type":"function","name":"selfPermitIfNecessary","inputs":[{"name":"token","type":"address","internalType":"address"},{"name":"value","type":"uint256","internalType":"uint256"},{"name":"deadline","type":"uint256","internalType":"uint256"},{"name":"v","type":"uint8","internalType":"uint8"},{"name":"r","type":"bytes32","internalType":"bytes32"},{"name":"s","type":"bytes32","internalType":"bytes32"}],"outputs":[],"stateMutability":"payable"},{"type":"function","name":"setApprovalForAll","inputs":[{"name":"operator","type":"address","internalType":"address"},{"name":"approved","type":"bool","internalType":"bool"}],"outputs":[],"stateMutability":"nonpayable"},{"type":"function","name":"supportsInterface","inputs":[{"name":"interfaceId","type":"bytes4","internalType":"bytes4"}],"outputs":[{"name":"","type":"bool","internalType":"bool"}],"stateMutability":"view"},{"type":"function","name":"sweepToken","inputs":[{"name":"token","type":"address","internalType":"address"},{"name":"amountMinimum","type":"uint256","internalType":"uint256"},{"name":"recipient","type":"address","internalType":"address"}],"outputs":[],"stateMutability":"payable"},{"type":"function","name":"symbol","inputs":[],"outputs":[{"name":"","type":"string","internalType":"string"}],"stateMutability":"view"},{"type":"function","name":"tokenByIndex","inputs":[{"name":"index","type":"uint256","internalType":"uint256"}],"outputs":[{"name":"","type":"uint256","internalType":"uint256"}],"stateMutability":"view"},{"type":"function","name":"tokenOfOwnerByIndex","inputs":[{"name":"owner","type":"address","internalType":"address"},{"name":"index","type":"uint256","internalType":"uint256"}],"outputs":[{"name":"","type":"uint256","internalType":"uint256"}],"stateMutability":"view"},{"type":"function","name":"tokenURI","inputs":[{"name":"tokenId","type":"uint256","internalType":"uint256"}],"outputs":[{"name":"","type":"string","internalType":"string"}],"stateMutability":"view"},{"type":"function","name":"totalSupply","inputs":[],"outputs":[{"name":"","type":"uint256","internalType":"uint256"}],"stateMutability":"view"},{"type":"function","name":"transferFrom","inputs":[{"name":"from","type":"address","internalType":"address"},{"name":"to","type":"address","internalType":"address"},{"name":"tokenId","type":"uint256","internalType":"uint256"}],"outputs":[],"stateMutability":"payable"},{"type":"function","name":"uniswapV3MintCallback","inputs":[{"name":"amount0Owed","type":"uint256","internalType":"uint256"},{"name":"amount1Owed","type":"uint256","internalType":"uint256"},{"name":"data","type":"bytes","internalType":"bytes"}],"outputs":[],"stateMutability":"nonpayable"},{"type":"function","name":"unwrapWETH9","inputs":[{"name":"amountMinimum","type":"uint256","internalType":"uint256"},{"name":"recipient","type":"address","internalType":"address"}],"outputs":[],"stateMutability":"payable"},{"type":"event","name":"Approval","inputs":[{"name":"owner","type":"address","indexed":true,"internalType":"address"},{"name":"account","type":"address","indexed":true,"internalType":"address"},{"name":"id","type":"uint256","indexed":true,"internalType":"uint256"}],"anonymous":false},{"type":"event","name":"ApprovalForAll","inputs":[{"name":"owner","type":"address","indexed":true,"internalType":"address"},{"name":"operator","type":"address","indexed":true,"internalType":"address"},{"name":"isApproved","type":"bool","indexed":false,"internalType":"bool"}],"anonymous":false},{"type":"event","name":"Collect","inputs":[{"name":"tokenId","type":"uint256","indexed":true,"internalType":"uint256"},{"name":"recipient","type":"address","indexed":false,"internalType":"address"},{"name":"amount0","type":"uint256","indexed":false,"internalType":"uint256"},{"name":"amount1","type":"uint256","indexed":false,"internalType":"uint256"}],"anonymous":false},{"type":"event","name":"DecreaseLiquidity","inputs":[{"name":"tokenId","type":"uint256","indexed":true,"internalType":"uint256"},{"name":"liquidity","type":"uint128","indexed":false,"internalType":"uint128"},{"name":"amount0","type":"uint256","indexed":false,"internalType":"uint256"},{"name":"amount1","type":"uint256","indexed":false,"internalType":"uint256"}],"anonymous":false},{"type":"event","name":"IncreaseLiquidity","inputs":[{"name":"tokenId","type":"uint256","indexed":true,"internalType":"uint256"},{"name":"liquidity","type":"uint128","indexed":false,"internalType":"uint128"},{"name":"amount0","type":"uint256","indexed":false,"internalType":"uint256"},{"name":"amount1","type":"uint256","indexed":false,"internalType":"uint256"}],"anonymous":false},{"type":"event","name":"Transfer","inputs":[{"name":"from","type":"address","indexed":true,"internalType":"address"},{"name":"to","type":"address","indexed":true,"internalType":"address"},{"name":"id","type":"uint256","indexed":true,"internalType":"uint256"}],"anonymous":false},{"type":"error","name":"AccountBalanceOverflow","inputs":[]},{"type":"error","name":"BalanceQueryForZeroAddress","inputs":[]},{"type":"error","name":"ERC721EnumerableForbiddenBatchMint","inputs":[]},{"type":"error","name":"ERC721OutOfBoundsIndex","inputs":[{"name":"owner","type":"address","internalType":"address"},{"name":"index","type":"uint256","internalType":"uint256"}]},{"type":"error","name":"NotOwnerNorApproved","inputs":[]},{"type":"error","name":"TokenAlreadyExists","inputs":[]},{"type":"error","name":"TokenDoesNotExist","inputs":[]},{"type":"error","name":"TransferFromIncorrectOwner","inputs":[]},{"type":"error","name":"TransferToNonERC721ReceiverImplementer","inputs":[]},{"type":"error","name":"TransferToZeroAddress","inputs":[]}],"bytecode":{"object":"0x61012060405276010000000000000000000000000000000000000000000160095534801561002b575f5ffd5b5060405161b0fb38038061b0fb83398101604081905261004a91610131565b82826040518060400160405280601b81526020017f556e697377617020563320506f736974696f6e73204e46542d563100000000008152506040518060400160405280600a815260200169554e492d56332d504f5360b01b815250604051806040016040528060018152602001603160f81b8152508282815f90816100cf9190610209565b5060016100dc8282610209565b5050835160209485012060805250805192019190912060a052506001600160a01b0391821660c052811660e0521661010052506102c39050565b80516001600160a01b038116811461012c575f5ffd5b919050565b5f5f5f60608486031215610143575f5ffd5b61014c84610116565b925061015a60208501610116565b915061016860408501610116565b90509250925092565b634e487b7160e01b5f52604160045260245ffd5b600181811c9082168061019957607f821691505b6020821081036101b757634e487b7160e01b5f52602260045260245ffd5b50919050565b601f82111561020457805f5260205f20601f840160051c810160208510156101e25750805b601f840160051c820191505b81811015610201575f81556001016101ee565b50505b505050565b81516001600160401b0381111561022257610222610171565b610236816102308454610185565b846101bd565b6020601f821160018114610268575f83156102515750848201515b5f19600385901b1c1916600184901b178455610201565b5f84815260208120601f198516915b828110156102975787850151825560209485019460019092019101610277565b50848210156102b457868401515f19600387901b60f8161c191681555b50505050600190811b01905550565b60805160a05160c05160e0516101005161ada76103545f395f61215f01525f81816101bc015281816103fe0152818161133a01528181611411015281816131d50152818161321b015261329d01525f818161059f015281816107e201528181610b5101528181610bf0015281816121eb015281816124920152612cc301525f61112801525f611107015261ada75ff3fe6080604052600436106101ac575f3560e01c806301ffc9a71461022057806306fdde0314610254578063081812fc14610275578063095ea7b3146102a15780630c49ccbe146102b457806312210e8a146102dc57806313ead562146102e457806318160ddd146102f7578063219f5d171461031957806323b872dd1461033b5780632f745c591461034e57806330adf81f1461036d5780633644e5151461038d57806342842e0e146103a157806342966c68146103b45780634659a494146103c757806349404b7c146103da5780634aa4a4fc146103ed5780634f6ccce7146104205780636352211e1461043f57806370a082311461045e5780637ac2ff7b1461047d578063883164561461049057806395d89b41146104cb57806399fbab88146104df578063a22cb46514610516578063a4a78f0c14610535578063ac9650d814610548578063b88d4fde14610568578063c2e3140a1461057b578063c45a01551461058e578063c87b56dd146105c1578063d3487997146105e0578063df2ab5bb146105ff578063e985e9c514610612578063f3995c6714610631578063fc6f786514610644575f5ffd5b3661021c57336001600160a01b037f0000000000000000000000000000000000000000000000000000000000000000161461021a5760405162461bcd60e51b81526020600482015260096024820152684e6f7420574554483960b81b60448201526064015b60405180910390fd5b005b5f5ffd5b34801561022b575f5ffd5b5061023f61023a366004614143565b610657565b60405190151581526020015b60405180910390f35b34801561025f575f5ffd5b50610268610667565b60405161024b919061418c565b348015610280575f5ffd5b5061029461028f36600461419e565b610676565b60405161024b91906141b5565b61021a6102af3660046141dd565b6106a3565b6102c76102c2366004614207565b6106b1565b6040805192835260208301919091520161024b565b61021a610b0a565b6102946102f2366004614232565b610b1c565b348015610302575f5ffd5b5061030b610da7565b60405190815260200161024b565b61032c610327366004614289565b610db1565b60405161024b939291906142a7565b61021a6103493660046142c8565b6110c1565b348015610359575f5ffd5b5061030b6103683660046141dd565b6110d1565b348015610378575f5ffd5b5061030b5f51602061ad325f395f51905f5281565b348015610398575f5ffd5b5061030b6110e3565b61021a6103af3660046142c8565b611188565b61021a6103c236600461419e565b611193565b61021a6103d5366004614314565b611291565b61021a6103e836600461436c565b611321565b3480156103f8575f5ffd5b506102947f000000000000000000000000000000000000000000000000000000000000000081565b34801561042b575f5ffd5b5061030b61043a36600461419e565b61147a565b34801561044a575f5ffd5b5061029461045936600461419e565b611484565b348015610469575f5ffd5b5061030b61047836600461439a565b61148e565b61021a61048b366004614314565b611498565b6104a361049e3660046143b5565b6117d3565b604080519485526001600160801b03909316602085015291830152606082015260800161024b565b3480156104d6575f5ffd5b50610268611ca3565b3480156104ea575f5ffd5b506104fe6104f936600461419e565b611cad565b60405161024b9c9b9a999897969594939291906143c7565b348015610521575f5ffd5b5061021a610530366004614475565b611ed2565b61021a610543366004614314565b611edc565b61055b6105563660046144a1565b611f68565b60405161024b9190614510565b61021a6105763660046145b7565b6120ae565b61021a610589366004614314565b6120c2565b348015610599575f5ffd5b506102947f000000000000000000000000000000000000000000000000000000000000000081565b3480156105cc575f5ffd5b506102686105db36600461419e565b612145565b3480156105eb575f5ffd5b5061021a6105fa366004614624565b6121d7565b61021a61060d366004614672565b61224b565b34801561061d575f5ffd5b5061023f61062c3660046146b1565b612310565b61021a61063f366004614314565b61231b565b6102c76106523660046146dd565b612372565b5f6106618261283e565b92915050565b606061067161287f565b905090565b5f6106808261290e565b50505f90815260086020526040902054600160601b90046001600160a01b031690565b6106ad8282612942565b5050565b5f808235816106bf8261294c565b90506106cc813384612973565b6106e85760405162461bcd60e51b8152600401610211906146ee565b60808501358042111561070d5760405162461bcd60e51b815260040161021190614714565b5f61071e6040880160208901614755565b6001600160801b031611610730575f5ffd5b85355f9081526008602090815260409182902060018101549092600160801b9091046001600160801b03169161076a918a01908a01614755565b6001600160801b0316816001600160801b03161015610787575f5ffd5b6001828101546001600160501b03165f908152600760209081526040808320815160608101835281546001600160a01b039081168252919095015490811692850192909252600160a01b90910462ffffff16908301526108077f0000000000000000000000000000000000000000000000000000000000000000836129ee565b9050806001600160a01b031663a34123a785600101600a9054906101000a900460020b86600101600d9054906101000a900460020b8d602001602081019061084f9190614755565b6040518463ffffffff1660e01b815260040161086d93929190614770565b60408051808303815f875af1158015610888573d5f5f3e3d5ffd5b505050506040513d601f19601f820116820180604052508101906108ac9190614796565b909950975060408a013589108015906108c9575089606001358810155b6108e55760405162461bcd60e51b8152600401610211906147b8565b60018401545f9061090d903090600160501b8104600290810b91600160681b9004900b612ad4565b90505f5f836001600160a01b031663514ea4bf846040518263ffffffff1660e01b815260040161093f91815260200190565b60a060405180830381865afa15801561095a573d5f5f3e3d5ffd5b505050506040513d601f19601f8201168201806040525081019061097e91906147e6565b505092509250506109ac8760020154836109989190614858565b876001600160801b0316600160801b612b21565b6109b6908d61486b565b6004880180545f906109d29084906001600160801b031661486b565b92506101000a8154816001600160801b0302191690836001600160801b03160217905550610a098760030154826109989190614858565b610a13908c61486b565b600488018054601090610a37908490600160801b90046001600160801b031661486b565b82546001600160801b039182166101009390930a9283029190920219909116179055506002870182905560038701819055610a7860408e0160208f01614755565b610a82908761488a565b8760010160106101000a8154816001600160801b0302191690836001600160801b031602179055508c5f01357f26f6a048ee9138f2c0ce266f322cb99228e8d619ae2bff30c67f8dcf9d2377b48e6020016020810190610ae29190614755565b8e8e604051610af3939291906142a7565b60405180910390a250505050505050505050915091565b4715610b1a57610b1a3347612bdb565b565b5f836001600160a01b0316856001600160a01b031610610b3a575f5ffd5b604051630b4c774160e11b81526001600160a01b037f00000000000000000000000000000000000000000000000000000000000000001690631698ee8290610b8a908890889088906004016148a9565b602060405180830381865afa158015610ba5573d5f5f3e3d5ffd5b505050506040513d601f19601f82011682018060405250810190610bc991906148d1565b90506001600160a01b038116610cca5760405163a167129560e01b81526001600160a01b037f0000000000000000000000000000000000000000000000000000000000000000169063a167129590610c29908890889088906004016148a9565b6020604051808303815f875af1158015610c45573d5f5f3e3d5ffd5b505050506040513d601f19601f82011682018060405250810190610c6991906148d1565b60405163f637731d60e01b81529091506001600160a01b0382169063f637731d90610c989085906004016141b5565b5f604051808303815f87803b158015610caf575f5ffd5b505af1158015610cc1573d5f5f3e3d5ffd5b50505050610d9f565b5f816001600160a01b0316633850c7bd6040518163ffffffff1660e01b815260040160e060405180830381865afa158015610d07573d5f5f3e3d5ffd5b505050506040513d601f19601f82011682018060405250810190610d2b919061490b565b5050505050509050806001600160a01b03165f03610d9d5760405163f637731d60e01b81526001600160a01b0383169063f637731d90610d6f9086906004016141b5565b5f604051808303815f87803b158015610d86575f5ffd5b505af1158015610d98573d5f5f3e3d5ffd5b505050505b505b949350505050565b5f61067160045490565b5f808060a084013580421115610dd95760405162461bcd60e51b815260040161021190614714565b84355f9081526008602090815260408083206001808201546001600160501b03811686526007855283862084516060808201875282546001600160a01b039081168352929094015480831682890190815262ffffff600160a01b9092048216838901908152885161014081018a528451861681529151909416818a0152925116828701523082850152600160501b8304600290810b608080850191909152600160681b909404900b60a0830152958c013560c0820152938b013560e0850152908a01356101008401528901356101208301529290610eb690612c7a565b6001870154939a50919850965091505f90610ee8903090600160501b8104600290810b91600160681b9004900b612ad4565b90505f5f836001600160a01b031663514ea4bf846040518263ffffffff1660e01b8152600401610f1a91815260200190565b60a060405180830381865afa158015610f35573d5f5f3e3d5ffd5b505050506040513d601f19601f82011682018060405250810190610f5991906147e6565b50509250925050610f90866002015483610f739190614858565b60018801546001600160801b03600160801b918290041690612b21565b6004870180545f90610fac9084906001600160801b031661486b565b92506101000a8154816001600160801b0302191690836001600160801b03160217905550610fe3866003015482610f739190614858565b600487018054601090611007908490600160801b90046001600160801b031661486b565b92506101000a8154816001600160801b0302191690836001600160801b03160217905550818660020181905550808660030181905550898660010160108282829054906101000a90046001600160801b0316611063919061486b565b92506101000a8154816001600160801b0302191690836001600160801b031602179055508a5f01355f51602061ad125f395f51905f528b8b8b6040516110ab939291906142a7565b60405180910390a2505050505050509193909250565b6110cc838383612ec6565b505050565b5f6110dc8383612ed1565b9392505050565b5f7f8b73c3c69bb8fe3d512ecc4cf759cc79239f7b179b0ffacaa9a75d522b39400f7f00000000000000000000000000000000000000000000000000000000000000007f000000000000000000000000000000000000000000000000000000000000000046604080516020810195909552840192909252606083015260808201523060a082015260c00160405160208183030381529060405280519060200120905090565b6110cc838383612f26565b805f61119e8261294c565b90506111ab813384612973565b6111c75760405162461bcd60e51b8152600401610211906146ee565b5f8381526008602052604090206001810154600160801b90046001600160801b0316158015611201575060048101546001600160801b0316155b801561121f57506004810154600160801b90046001600160801b0316155b6112595760405162461bcd60e51b815260206004820152600b60248201526a139bdd0818db19585c995960aa1b6044820152606401610211565b5f8481526008602052604081208181556001810182905560028101829055600381018290556004015561128b84612f31565b50505050565b6040516323f2ebc360e21b815233600482015230602482015260448101869052606481018590526001608482015260ff841660a482015260c4810183905260e481018290526001600160a01b03871690638fcbaf0c90610104015b5f604051808303815f87803b158015611303575f5ffd5b505af1158015611315573d5f5f3e3d5ffd5b50505050505050505050565b6040516370a0823160e01b81525f906001600160a01b037f000000000000000000000000000000000000000000000000000000000000000016906370a082319061136f9030906004016141b5565b602060405180830381865afa15801561138a573d5f5f3e3d5ffd5b505050506040513d601f19601f820116820180604052508101906113ae9190614998565b9050828110156113f55760405162461bcd60e51b8152602060048201526012602482015271496e73756666696369656e7420574554483960701b6044820152606401610211565b80156110cc57604051632e1a7d4d60e01b8152600481018290527f00000000000000000000000000000000000000000000000000000000000000006001600160a01b031690632e1a7d4d906024015f604051808303815f87803b15801561145a575f5ffd5b505af115801561146c573d5f5f3e3d5ffd5b505050506110cc8282612bdb565b5f61066182612f3e565b5f61066182612f8d565b5f61066182612f97565b834211156114d95760405162461bcd60e51b815260206004820152600e60248201526d14195c9b5a5d08195e1c1a5c995960921b6044820152606401610211565b5f6114e26110e3565b5f51602061ad325f395f51905f5288886114fb81612fa1565b6040805160208101959095526001600160a01b03909316928401929092526060830152608082015260a0810187905260c0016040516020818303038152906040528051906020012060405160200161156a92919061190160f01b81526002810192909252602282015260420190565b6040516020818303038152906040528051906020012090505f61158c87611484565b9050806001600160a01b0316886001600160a01b0316036115ff5760405162461bcd60e51b815260206004820152602760248201527f4552433732315065726d69743a20617070726f76616c20746f2063757272656e6044820152663a1037bbb732b960c91b6064820152608401610211565b6001600160a01b0381163b156116e357604080516020810186905280820185905260f887901b6001600160f81b0319166060820152815160418183030181526061820192839052630b135d3f60e11b9092526001600160a01b03831691631626ba7e916116709186916065016149af565b602060405180830381865afa15801561168b573d5f5f3e3d5ffd5b505050506040513d601f19601f820116820180604052508101906116af91906149c7565b6001600160e01b031916631626ba7e60e01b146116de5760405162461bcd60e51b8152600401610211906149e2565b6117be565b604080515f8082526020820180845285905260ff881692820192909252606081018690526080810185905260019060a0016020604051602081039080840390855afa158015611734573d5f5f3e3d5ffd5b5050604051601f1901519150506001600160a01b03811661178b5760405162461bcd60e51b8152602060048201526011602482015270496e76616c6964207369676e617475726560781b6044820152606401610211565b816001600160a01b0316816001600160a01b0316146117bc5760405162461bcd60e51b8152600401610211906149e2565b505b6117c988885f612ff8565b5050505050505050565b5f808080610140850135804211156117fd5760405162461bcd60e51b815260040161021190614714565b6040805161014081019091525f906118c8908061181d60208b018b61439a565b6001600160a01b0316815260200189602001602081019061183e919061439a565b6001600160a01b0316815260200161185c60608b0160408c01614a08565b62ffffff16815230602082015260400161187c60808b0160608c01614a21565b60020b815260200161189460a08b0160808c01614a21565b60020b81526020018960a0013581526020018960c0013581526020018960e001358152602001896101000135815250612c7a565b929750909550935090506119346118e761014089016101208a0161439a565b600980546001600160b01b0316905f6118ff83614a3c565b91906101000a8154816001600160b01b0302191690836001600160b01b031602179055506001600160b01b0316975087613003565b5f61195e3061194960808b0160608c01614a21565b61195960a08c0160808d01614a21565b612ad4565b90505f5f836001600160a01b031663514ea4bf846040518263ffffffff1660e01b815260040161199091815260200190565b60a060405180830381865afa1580156119ab573d5f5f3e3d5ffd5b505050506040513d601f19601f820116820180604052508101906119cf91906147e6565b505092509250505f611a468560405180606001604052808e5f0160208101906119f8919061439a565b6001600160a01b031681526020018e6020016020810190611a19919061439a565b6001600160a01b031681526020018e6040016020810190611a3a9190614a08565b62ffffff169052613097565b90506040518061014001604052805f6001600160601b031681526020015f6001600160a01b03168152602001826001600160501b031681526020018c6060016020810190611a949190614a21565b60020b8152602001611aac60a08e0160808f01614a21565b60020b81526020018a6001600160801b031681526020018481526020018381526020015f6001600160801b031681526020015f6001600160801b031681525060085f8c81526020019081526020015f205f820151815f015f6101000a8154816001600160601b0302191690836001600160601b031602179055506020820151815f01600c6101000a8154816001600160a01b0302191690836001600160a01b031602179055506040820151816001015f6101000a8154816001600160501b0302191690836001600160501b03160217905550606082015181600101600a6101000a81548162ffffff021916908360020b62ffffff160217905550608082015181600101600d6101000a81548162ffffff021916908360020b62ffffff16021790555060a08201518160010160106101000a8154816001600160801b0302191690836001600160801b0316021790555060c0820151816002015560e08201518160030155610100820151816004015f6101000a8154816001600160801b0302191690836001600160801b031602179055506101208201518160040160106101000a8154816001600160801b0302191690836001600160801b03160217905550905050895f51602061ad125f395f51905f528a8a8a604051611c8e939291906142a7565b60405180910390a25050505050509193509193565b606061067161318c565b5f81815260086020908152604080832081516101408101835281546001600160601b03811682526001600160a01b03600160601b909104169381019390935260018101546001600160501b038116928401839052600160501b8104600290810b6060860152600160681b8204810b60808601526001600160801b03600160801b92839004811660a08701529083015460c0860152600383015460e0860152600490920154808316610100860152041661012083015282918291829182918291829182918291829182918291908203611dba5760405162461bcd60e51b815260206004820152601060248201526f125b9d985b1a59081d1bdad95b88125160821b6044820152606401610211565b5f60075f83604001516001600160501b03166001600160501b031681526020019081526020015f206040518060600160405290815f82015f9054906101000a90046001600160a01b03166001600160a01b03166001600160a01b03168152602001600182015f9054906101000a90046001600160a01b03166001600160a01b03166001600160a01b031681526020016001820160149054906101000a900462ffffff1662ffffff1662ffffff16815250509050815f01518260200151825f015183602001518460400151866060015187608001518860a001518960c001518a60e001518b61010001518c61012001519d509d509d509d509d509d509d509d509d509d509d509d50505091939597999b5091939597999b565b6106ad828261319b565b604051636eb1769f60e11b81525f19906001600160a01b0388169063dd62ed3e90611f0d9033903090600401614a67565b602060405180830381865afa158015611f28573d5f5f3e3d5ffd5b505050506040513d601f19601f82011682018060405250810190611f4c9190614998565b1015611f6057611f60868686868686611291565b505050505050565b6060816001600160401b03811115611f8257611f82614a81565b604051908082528060200260200182016040528015611fb557816020015b6060815260200190600190039081611fa05790505b5090505f5b828110156120a7575f8030868685818110611fd757611fd7614a95565b9050602002810190611fe99190614aa9565b604051611ff7929190614aeb565b5f60405180830381855af49150503d805f811461202f576040519150601f19603f3d011682016040523d82523d5f602084013e612034565b606091505b50915091508161207f5760448151101561204c575f5ffd5b600481019050808060200190518101906120669190614b52565b60405162461bcd60e51b8152600401610211919061418c565b8084848151811061209257612092614a95565b60209081029190910101525050600101611fba565b5092915050565b6120bb85858585856131a5565b5050505050565b604051636eb1769f60e11b815285906001600160a01b0388169063dd62ed3e906120f29033903090600401614a67565b602060405180830381865afa15801561210d573d5f5f3e3d5ffd5b505050506040513d601f19601f820116820180604052508101906121319190614998565b1015611f6057611f6086868686868661231b565b60405163e9dc637560e01b81526060906001600160a01b037f0000000000000000000000000000000000000000000000000000000000000000169063e9dc6375906121969030908690600401614be4565b5f60405180830381865afa1580156121b0573d5f5f3e3d5ffd5b505050506040513d5f823e601f3d908101601f191682016040526106619190810190614b52565b5f6121e482840184614bfd565b90506122137f0000000000000000000000000000000000000000000000000000000000000000825f01516131b2565b50841561222e57805151602082015161222e919033886131d3565b83156120bb576120bb815f015160200151826020015133876131d3565b6040516370a0823160e01b81525f906001600160a01b038516906370a08231906122799030906004016141b5565b602060405180830381865afa158015612294573d5f5f3e3d5ffd5b505050506040513d601f19601f820116820180604052508101906122b89190614998565b9050828110156122ff5760405162461bcd60e51b815260206004820152601260248201527124b739bab33334b1b4b2b73a103a37b5b2b760711b6044820152606401610211565b801561128b5761128b848383613349565b5f6110dc8383613447565b60405163d505accf60e01b8152336004820152306024820152604481018690526064810185905260ff8416608482015260a4810183905260c481018290526001600160a01b0387169063d505accf9060e4016112ec565b5f808235816123808261294c565b905061238d813384612973565b6123a95760405162461bcd60e51b8152600401610211906146ee565b5f6123ba6060870160408801614755565b6001600160801b031611806123e657505f6123db6080870160608801614755565b6001600160801b0316115b6123ee575f5ffd5b5f80612400604088016020890161439a565b6001600160a01b0316146124235761241e604087016020880161439a565b612425565b305b86355f9081526008602090815260408083206001808201546001600160501b0316855260078452828520835160608101855281546001600160a01b039081168252919092015490811694820194909452600160a01b90930462ffffff1691830191909152929350906124b77f0000000000000000000000000000000000000000000000000000000000000000836129ee565b600484015460018501549192506001600160801b0380821692600160801b928390048216929004161561267657600185015460405163a34123a760e01b81526001600160a01b0385169163a34123a79161252d91600160501b8104600290810b92600160681b909204900b905f90600401614770565b60408051808303815f875af1158015612548573d5f5f3e3d5ffd5b505050506040513d601f19601f8201168201806040525081019061256c9190614796565b505060018501545f9081906001600160a01b0386169063514ea4bf906125a9903090600160501b8104600290810b91600160681b9004900b612ad4565b6040518263ffffffff1660e01b81526004016125c791815260200190565b60a060405180830381865afa1580156125e2573d5f5f3e3d5ffd5b505050506040513d601f19601f8201168201806040525081019061260691906147e6565b5050925092505061263d8760020154836126209190614858565b60018901546001600160801b03600160801b918290041690612b21565b612647908561486b565b935061265c8760030154826126209190614858565b612666908461486b565b6002880192909255600387015590505b5f5f836001600160801b03168d60400160208101906126959190614755565b6001600160801b0316116126b8576126b360608e0160408f01614755565b6126ba565b835b836001600160801b03168e60600160208101906126d79190614755565b6001600160801b0316116126fd578d60600160208101906126f89190614755565b6126ff565b835b60018901546040516309e3d67b60e31b81526001600160a01b038c81166004830152600160501b8304600290810b6024840152600160681b90930490920b60448201526001600160801b03808516606483015283166084820152929450909250861690634f1eb3d89060a40160408051808303815f875af1158015612786573d5f5f3e3d5ffd5b505050506040513d601f19601f820116820180604052508101906127aa9190614c9e565b6001600160801b039182169d50169a506127c4828561488a565b6127ce828561488a565b6001600160801b03918216908216600160801b026001600160801b031916176004890155604080516001600160a01b038b1681528483166020820152918316908201528d35907f40d0efd1a53d60ecbf40971b9daf7dc90178c3aadc7aab1765632738fa8b8f0190606001610af3565b5f63780e9d6360e01b6001600160e01b0319831614806106615750610661826301ffc9a760e09190911c9081146380ac58cd821417635b5e139f9091141790565b60605f805461288d90614ccb565b80601f01602080910402602001604051908101604052809291908181526020018280546128b990614ccb565b80156129045780601f106128db57610100808354040283529160200191612904565b820191905f5260205f20905b8154815290600101906020018083116128e757829003601f168201915b5050505050905090565b5f5f6129198361294c565b90506001600160a01b0381166106615760405163677510db60e11b815260040160405180910390fd5b6106ad8282613466565b5f818152673ec412a9852d173d60c11b601c5260209020810101546001600160a01b031690565b5f6001600160a01b03831615801590610d9f5750826001600160a01b0316846001600160a01b031614806129ac57506129ac8484612310565b80610d9f57505f828152673ec412a9852d173d60c11b601c526020902082018201600101546001600160a01b038416906001600160a01b031614949350505050565b5f81602001516001600160a01b0316825f01516001600160a01b031610612a13575f5ffd5b82825f015183602001518460400151604051602001612a34939291906148a9565b6040516020818303038152906040528051906020012060405180602001612a5a90614121565b6020820181038252601f19601f8201166040525080519060200120604051602001612ab5939291906001600160f81b0319815260609390931b6001600160601b03191660018401526015830191909152603582015260550190565b60408051601f1981840301815291905280516020909101209392505050565b6040516001600160601b0319606085901b16602082015260e883811b603483015282901b60378201525f90603a016040516020818303038152906040528051906020012090509392505050565b5f80805f19858709858702925082811083820303915050805f03612b55575f8411612b4a575f5ffd5b5082900490506110dc565b808411612b60575f5ffd5b5f84868809600186198101871696879004965f8181038290049092018684119095038581029684900391909104959095179493919250612ba1876003614d03565b6002908118888102820302808902820302808902820302808902820302808902820302978802900390960293909302979650505050505050565b604080515f808252602082019092526001600160a01b038416908390604051612c049190614d1a565b5f6040518083038185875af1925050503d805f8114612c3e576040519150601f19603f3d011682016040523d82523d5f602084013e612c43565b606091505b50509050806110cc5760405162461bcd60e51b815260206004820152600360248201526253544560e81b6044820152606401610211565b5f5f5f5f5f6040518060600160405280875f01516001600160a01b0316815260200187602001516001600160a01b03168152602001876040015162ffffff168152509050612ce87f0000000000000000000000000000000000000000000000000000000000000000826129ee565b91505f826001600160a01b0316633850c7bd6040518163ffffffff1660e01b815260040160e060405180830381865afa158015612d27573d5f5f3e3d5ffd5b505050506040513d601f19601f82011682018060405250810190612d4b919061490b565b50505050505090505f612d618860800151613471565b90505f612d718960a00151613471565b9050612d888383838c60c001518d60e00151613877565b9750505050816001600160a01b0316633c8a7d8d876060015188608001518960a00151896040518060400160405280888152602001336001600160a01b0316815250604051602001612e159190815180516001600160a01b03908116835260208083015182168185015260409283015162ffffff1692840192909252920151909116606082015260800190565b6040516020818303038152906040526040518663ffffffff1660e01b8152600401612e44959493929190614d30565b60408051808303815f875af1158015612e5f573d5f5f3e3d5ffd5b505050506040513d601f19601f82011682018060405250810190612e839190614796565b61010088015191955093508410801590612ea257508561012001518310155b612ebe5760405162461bcd60e51b8152600401610211906147b8565b509193509193565b6110cc838383613938565b5f612edb8361148e565b8210612efe57828260405163295f44f760e21b8152600401610211929190614be4565b506001600160a01b03919091165f908152600260209081526040808320938352929052205490565b6110cc838383613a29565b612f3b5f82613a55565b50565b5f612f47610da7565b8210612f6a575f8260405163295f44f760e21b8152600401610211929190614be4565b60048281548110612f7d57612f7d614a95565b905f5260205f2001549050919050565b5f61066182613b13565b5f61066182613b36565b5f81815260086020526040812080546001600160601b03169082612fc483614d7f565b91906101000a8154816001600160601b0302191690836001600160601b031602179055506001600160601b03169050919050565b6110cc818484613b6e565b61300e5f8383613c08565b8160601b60601c9150805f52673ec412a9852d173d60c11b601c5260205f208101810180548060601b156130495763c991cbb15f526004601cfd5b831790555f829052601c600c20805460010163ffffffff8116840261307d5767ea553b3401336cea841560021b526004601cfd5b905580825f5f51602061ad525f395f51905f528138a45050565b6001600160a01b0382165f908152600660205260408120546001600160501b0316908190036106615760098054600160b01b90046001600160501b03169060166130e083614da1565b82546101009290920a6001600160501b038181021990931691831602179091556001600160a01b039485165f90815260066020908152604080832080546001600160501b03191694861694851790559282526007815290829020855181546001600160a01b031916908816178155908501516001919091018054959092015195166001600160b81b031990941693909317600160a01b62ffffff90951694909402939093179091555090565b60606001805461288d90614ccb565b6106ad8282613cbf565b6120bb8585858585613d11565b5f6131bd83836129ee565b9050336001600160a01b03821614610661575f5ffd5b7f00000000000000000000000000000000000000000000000000000000000000006001600160a01b0316846001600160a01b03161480156132145750804710155b1561331d577f00000000000000000000000000000000000000000000000000000000000000006001600160a01b031663d0e30db0826040518263ffffffff1660e01b81526004015f604051808303818588803b158015613272575f5ffd5b505af1158015613284573d5f5f3e3d5ffd5b505060405163a9059cbb60e01b81526001600160a01b037f000000000000000000000000000000000000000000000000000000000000000016935063a9059cbb92506132d7915085908590600401614be4565b6020604051808303815f875af11580156132f3573d5f5f3e3d5ffd5b505050506040513d601f19601f820116820180604052508101906133179190614dc3565b5061128b565b306001600160a01b0384160361333d57613338848383613349565b61128b565b61128b84848484613d64565b5f5f846001600160a01b031663a9059cbb60e01b8585604051602401613370929190614be4565b60408051601f198184030181529181526020820180516001600160e01b03166001600160e01b03199094169390931790925290516133ae9190614d1a565b5f604051808303815f865af19150503d805f81146133e7576040519150601f19603f3d011682016040523d82523d5f602084013e6133ec565b606091505b50915091508180156134165750805115806134165750808060200190518101906134169190614dc3565b6120bb5760405162461bcd60e51b815260206004820152600260248201526114d560f21b6044820152606401610211565b5f6110dc8383601c5263052d173d60211b6008525f526030600c205490565b6106ad338383613b6e565b5f5f5f8360020b12613486578260020b613493565b8260020b61349390614dde565b90506134a2620d89e719614df8565b60020b8111156134d85760405162461bcd60e51b81526020600482015260016024820152601560fa1b6044820152606401610211565b5f816001165f036134ed57600160801b6134ff565b6ffffcb933bd6fad37aa2d162d1a5940015b6001600160881b03169050600282161561353457608061352f826ffff97272373d413259a46990580e213a614d03565b901c90505b600482161561355e576080613559826ffff2e50f5f656932ef12357cf3c7fdcc614d03565b901c90505b6008821615613588576080613583826fffe5caca7e10e4e61c3624eaa0941cd0614d03565b901c90505b60108216156135b25760806135ad826fffcb9843d60f6159c9db58835c926644614d03565b901c90505b60208216156135dc5760806135d7826fff973b41fa98c081472e6896dfb254c0614d03565b901c90505b6040821615613606576080613601826fff2ea16466c96a3843ec78b326b52861614d03565b901c90505b608082161561363057608061362b826ffe5dee046a99a2a811c461f1969c3053614d03565b901c90505b61010082161561365b576080613656826ffcbe86c7900a88aedcffc83b479aa3a4614d03565b901c90505b610200821615613686576080613681826ff987a7253ac413176f2b074cf7815e54614d03565b901c90505b6104008216156136b15760806136ac826ff3392b0822b70005940c7a398e4b70f3614d03565b901c90505b6108008216156136dc5760806136d7826fe7159475a2c29b7443b29c7fa6e889d9614d03565b901c90505b611000821615613707576080613702826fd097f3bdfd2022b8845ad8f792aa5825614d03565b901c90505b61200082161561373257608061372d826fa9f746462d870fdf8a65dc1f90e061e5614d03565b901c90505b61400082161561375d576080613758826f70d869a156d2a1b890bb3df62baf32f7614d03565b901c90505b618000821615613788576080613783826f31be135f97d08fd981231505542fcfa6614d03565b901c90505b620100008216156137b45760806137af826f09aa508b5b7a84e1c677de54f3e99bc9614d03565b901c90505b620200008216156137df5760806137da826e5d6af8dedb81196699c329225ee604614d03565b901c90505b62040000821615613809576080613804826d2216e584f5fa1ea926041bedfe98614d03565b901c90505b6208000082161561383157608061382c826b048a170391f7dc42444e8fa2614d03565b901c90505b5f8460020b131561384a57613847815f19614e2c565b90505b613858600160201b82614e3f565b15613864576001613866565b5f5b610d9f9060ff16602083901c614e52565b5f836001600160a01b0316856001600160a01b03161115613896579293925b846001600160a01b0316866001600160a01b0316116138c1576138ba858585613e61565b905061392f565b836001600160a01b0316866001600160a01b03161015613921575f6138e7878686613e61565b90505f6138f5878986613ec9565b9050806001600160801b0316826001600160801b0316106139165780613918565b815b9250505061392f565b61392c858584613ec9565b90505b95945050505050565b613943838383613c08565b5f818152673ec412a9852d173d60c11b3317601c52602090208101810180546001600160a01b0394851694938416938116919082861483026139945767ceea21b6a1148100831560021b526004601cfd5b855f5281600101549250823314863314176139c0576030600c20546139c057634b6e7f185f526004601cfd5b82156139cd575f82600101555b85851818905550601c600c81812080545f190190555f84905220805460010163ffffffff81168402613a0e5767ea553b3401336cea841560021b526004601cfd5b90558082845f51602061ad525f395f51905f525f38a4505050565b613a348383836110c1565b813b156110cc576110cc83838360405180602001604052805f815250613efe565b5f613a5f82611484565b9050613a6c815f84613c08565b505f8181526001600160a01b03928316673ec412a9852d173d60c11b8117601c526020909120820182018054919382169182613aaf5763ceea21b65f526004601cfd5b825f52816001015480861484871417861517613adc576030600c2054613adc57634b6e7f185f526004601cfd5b8015613ae9575f83600101555b5082189055601c600c2080545f19019055815f825f51602061ad525f395f51905f528238a4505050565b5f613b1d8261294c565b905080613b315763ceea21b65f526004601cfd5b919050565b5f81613b4957638f4eb6045f526004601cfd5b673ec412a9852d173d60c11b601c52815f5263ffffffff601c600c2054169050919050565b5f1960601c82811692508381169350815f5283673ec412a9852d173d60c11b17601c5260205f208201820180548216915081613bb15763ceea21b65f526004601cfd5b818514851517613bd557815f526030600c2054613bd557634b6e7f185f526004601cfd5b6001018390558183827f8c5be1e5ebec7d5bd14f71427d1e84f3dd0314c0f7b2291e5b200ac8c7c3b9255f38a450505050565b6001600160a01b038316613c6257613c5d81600480545f838152600560205260408120829055600182018355919091527f8a35acfbc15ff81a39ae7d344fd709f28e8600b4aa8c65c6b64bfe7fe36bd19b0155565b613c85565b816001600160a01b0316836001600160a01b031614613c8557613c858382613f7f565b6001600160a01b038216613c9c576110cc81614018565b826001600160a01b0316826001600160a01b0316146110cc576110cc82826140ca565b801515905081601c5263052d173d60211b600852335f52806030600c2055805f528160601b60601c337f17307eab39ab6107e8899845ad3d59bd9653f200f220920489ca2b5937696c3160205fa35050565b613d1c8585856110c1565b833b156120bb576120bb85858585858080601f0160208091040260200160405190810160405280939291908181526020018383808284375f92019190915250613efe92505050565b604080516001600160a01b0385811660248301528481166044830152606480830185905283518084039091018152608490920183526020820180516001600160e01b03166323b872dd60e01b17905291515f92839290881691613dc79190614d1a565b5f604051808303815f865af19150503d805f8114613e00576040519150601f19603f3d011682016040523d82523d5f602084013e613e05565b606091505b5091509150818015613e2f575080511580613e2f575080806020019051810190613e2f9190614dc3565b611f605760405162461bcd60e51b815260206004820152600360248201526229aa2360e91b6044820152606401610211565b5f826001600160a01b0316846001600160a01b03161115613e80579192915b5f613ea2856001600160a01b0316856001600160a01b0316600160601b612b21565b905061392f613ec48483613eb68989614e65565b6001600160a01b0316612b21565b61410c565b5f826001600160a01b0316846001600160a01b03161115613ee8579192915b610d9f613ec483600160601b613eb68888614e65565b60405163150b7a028082523360208301528560601b60601c604083015283606083015260808083015282518060a08401528015613f45578060c08401826020870160045afa505b60208360a48301601c86015f8a5af1613f66573d15613f66573d5f843e3d83fd5b508060e01b825114611f605763d1a57ed65f526004601cfd5b5f6001613f8b8461148e565b613f959190614858565b5f83815260036020526040902054909150808214613fe6576001600160a01b0384165f9081526002602090815260408083208584528252808320548484528184208190558352600390915290208190555b505f9182526003602090815260408084208490556001600160a01b039094168352600281528383209183525290812055565b6004545f9061402990600190614858565b5f83815260056020526040902054909150808214614093575f6004838154811061405557614055614a95565b905f5260205f2001549050806004838154811061407457614074614a95565b5f91825260208083209091019290925591825260059052604090208190555b5f8381526005602052604081205560048054806140b2576140b2614e84565b600190038181905f5260205f20015f90559055505050565b5f6140d48361148e565b6001600160a01b039093165f908152600260209081526040808320868452825280832085905593825260039052919091209190915550565b806001600160801b0381168114613b31575f5ffd5b615e7980614e9983390190565b6001600160e01b031981168114612f3b575f5ffd5b5f60208284031215614153575f5ffd5b81356110dc8161412e565b5f81518084528060208401602086015e5f602082860101526020601f19601f83011685010191505092915050565b602081525f6110dc602083018461415e565b5f602082840312156141ae575f5ffd5b5035919050565b6001600160a01b0391909116815260200190565b6001600160a01b0381168114612f3b575f5ffd5b5f5f604083850312156141ee575f5ffd5b82356141f9816141c9565b946020939093013593505050565b5f60a0828403128015614218575f5ffd5b509092915050565b803562ffffff81168114613b31575f5ffd5b5f5f5f5f60808587031215614245575f5ffd5b8435614250816141c9565b93506020850135614260816141c9565b925061426e60408601614220565b9150606085013561427e816141c9565b939692955090935050565b5f60c0828403128015614218575f5ffd5b6001600160801b03169052565b6001600160801b039390931683526020830191909152604082015260600190565b5f5f5f606084860312156142da575f5ffd5b83356142e5816141c9565b925060208401356142f5816141c9565b929592945050506040919091013590565b60ff81168114612f3b575f5ffd5b5f5f5f5f5f5f60c08789031215614329575f5ffd5b8635614334816141c9565b95506020870135945060408701359350606087013561435281614306565b9598949750929560808101359460a0909101359350915050565b5f5f6040838503121561437d575f5ffd5b82359150602083013561438f816141c9565b809150509250929050565b5f602082840312156143aa575f5ffd5b81356110dc816141c9565b5f610160828403128015614218575f5ffd5b6001600160601b038d1681526001600160a01b038c811660208301528b811660408301528a16606082015262ffffff89166080820152610180810161441160a083018a60020b9052565b61442060c083018960020b9052565b61442d60e083018861429a565b856101008301528461012083015261444961014083018561429a565b61445761016083018461429a565b9d9c50505050505050505050505050565b8015158114612f3b575f5ffd5b5f5f60408385031215614486575f5ffd5b8235614491816141c9565b9150602083013561438f81614468565b5f5f602083850312156144b2575f5ffd5b82356001600160401b038111156144c7575f5ffd5b8301601f810185136144d7575f5ffd5b80356001600160401b038111156144ec575f5ffd5b8560208260051b8401011115614500575f5ffd5b6020919091019590945092505050565b5f602082016020835280845180835260408501915060408160051b8601019250602086015f5b8281101561456757603f1987860301845261455285835161415e565b94506020938401939190910190600101614536565b50929695505050505050565b5f5f83601f840112614583575f5ffd5b5081356001600160401b03811115614599575f5ffd5b6020830191508360208285010111156145b0575f5ffd5b9250929050565b5f5f5f5f5f608086880312156145cb575f5ffd5b85356145d6816141c9565b945060208601356145e6816141c9565b93506040860135925060608601356001600160401b03811115614607575f5ffd5b61461388828901614573565b969995985093965092949392505050565b5f5f5f5f60608587031215614637575f5ffd5b843593506020850135925060408501356001600160401b0381111561465a575f5ffd5b61466687828801614573565b95989497509550505050565b5f5f5f60608486031215614684575f5ffd5b833561468f816141c9565b92506020840135915060408401356146a6816141c9565b809150509250925092565b5f5f604083850312156146c2575f5ffd5b82356146cd816141c9565b9150602083013561438f816141c9565b5f6080828403128015614218575f5ffd5b6020808252600c908201526b139bdd08185c1c1c9bdd995960a21b604082015260600190565b602080825260139082015272151c985b9cd858dd1a5bdb881d1bdbc81bdb19606a1b604082015260600190565b6001600160801b0381168114612f3b575f5ffd5b5f60208284031215614765575f5ffd5b81356110dc81614741565b600293840b81529190920b60208201526001600160801b03909116604082015260600190565b5f5f604083850312156147a7575f5ffd5b505080516020909101519092909150565b602080825260149082015273507269636520736c69707061676520636865636b60601b604082015260600190565b5f5f5f5f5f60a086880312156147fa575f5ffd5b855161480581614741565b602087015160408801516060890151929750909550935061482581614741565b608087015190925061483681614741565b809150509295509295909350565b634e487b7160e01b5f52601160045260245ffd5b8181038181111561066157610661614844565b6001600160801b03818116838216019081111561066157610661614844565b6001600160801b03828116828216039081111561066157610661614844565b6001600160a01b03938416815291909216602082015262ffffff909116604082015260600190565b5f602082840312156148e1575f5ffd5b81516110dc816141c9565b8060020b8114612f3b575f5ffd5b805161ffff81168114613b31575f5ffd5b5f5f5f5f5f5f5f60e0888a031215614921575f5ffd5b875161492c816141c9565b602089015190975061493d816148ec565b955061494b604089016148fa565b9450614959606089016148fa565b9350614967608089016148fa565b925060a088015161497781614306565b60c089015190925061498881614468565b8091505092959891949750929550565b5f602082840312156149a8575f5ffd5b5051919050565b828152604060208201525f610d9f604083018461415e565b5f602082840312156149d7575f5ffd5b81516110dc8161412e565b6020808252600c908201526b155b985d5d1a1bdc9a5e995960a21b604082015260600190565b5f60208284031215614a18575f5ffd5b6110dc82614220565b5f60208284031215614a31575f5ffd5b81356110dc816148ec565b5f6001600160b01b0382166002600160b01b03198101614a5e57614a5e614844565b60010192915050565b6001600160a01b0392831681529116602082015260400190565b634e487b7160e01b5f52604160045260245ffd5b634e487b7160e01b5f52603260045260245ffd5b5f5f8335601e19843603018112614abe575f5ffd5b8301803591506001600160401b03821115614ad7575f5ffd5b6020019150368190038213156145b0575f5ffd5b818382375f9101908152919050565b604051606081016001600160401b0381118282101715614b1c57614b1c614a81565b60405290565b604051601f8201601f191681016001600160401b0381118282101715614b4a57614b4a614a81565b604052919050565b5f60208284031215614b62575f5ffd5b81516001600160401b03811115614b77575f5ffd5b8201601f81018413614b87575f5ffd5b80516001600160401b03811115614ba057614ba0614a81565b614bb3601f8201601f1916602001614b22565b818152856020838501011115614bc7575f5ffd5b8160208401602083015e5f91810160200191909152949350505050565b6001600160a01b03929092168252602082015260400190565b5f818303608081128015614c0f575f5ffd5b50604080519081016001600160401b0381118282101715614c3257614c32614a81565b6040526060821215614c42575f5ffd5b614c4a614afa565b91508335614c57816141c9565b82526020840135614c67816141c9565b6020830152614c7860408501614220565b6040830152908152606083013590614c8f826141c9565b60208101919091529392505050565b5f5f60408385031215614caf575f5ffd5b8251614cba81614741565b602084015190925061438f81614741565b600181811c90821680614cdf57607f821691505b602082108103614cfd57634e487b7160e01b5f52602260045260245ffd5b50919050565b808202811582820484141761066157610661614844565b5f82518060208501845e5f920191825250919050565b6001600160a01b0386168152600285810b602083015284900b60408201526001600160801b038316606082015260a0608082018190525f90614d749083018461415e565b979650505050505050565b5f6001600160601b0382166002600160601b03198101614a5e57614a5e614844565b5f6001600160501b0382166002600160501b03198101614a5e57614a5e614844565b5f60208284031215614dd3575f5ffd5b81516110dc81614468565b5f600160ff1b8201614df257614df2614844565b505f0390565b5f8160020b627fffff198103614e1057614e10614844565b5f0392915050565b634e487b7160e01b5f52601260045260245ffd5b5f82614e3a57614e3a614e18565b500490565b5f82614e4d57614e4d614e18565b500690565b8082018082111561066157610661614844565b6001600160a01b03828116828216039081111561066157610661614844565b634e487b7160e01b5f52603160045260245ffdfe610160604052348015610010575f5ffd5b503060805260408051630890357360e41b815290515f91339163890357309160048082019260a0929091908290030181865afa158015610052573d5f5f3e3d5ffd5b505050506040513d601f19601f820116820180604052508101906100769190610163565b62ffffff909116610100526001600160a01b0391821660e05291811660c0529190911660a052600281900b6101205290506100b0816100c3565b6001600160801b031661014052506102f2565b5f80826100d481620d89e719610200565b6100de9190610238565b90505f83806100f0620d89e71961025e565b6100fa9190610200565b6101049190610238565b90505f84610112848461027e565b61011c9190610200565b6101279060016102a9565b905061013f62ffffff82166001600160801b036102c4565b95945050505050565b80516001600160a01b038116811461015e575f5ffd5b919050565b5f5f5f5f5f60a08688031215610177575f5ffd5b61018086610148565b945061018e60208701610148565b935061019c60408701610148565b9250606086015162ffffff811681146101b3575f5ffd5b8092505060808601518060020b81146101ca575f5ffd5b809150509295509295909350565b634e487b7160e01b5f52601260045260245ffd5b634e487b7160e01b5f52601160045260245ffd5b5f8160020b8360020b80610216576102166101d8565b627fffff1982145f198214161561022f5761022f6101ec565b90059392505050565b5f8260020b8260020b028060020b9150808214610257576102576101ec565b5092915050565b5f8160020b627fffff198103610276576102766101ec565b5f0392915050565b600282810b9082900b03627fffff198112627fffff821317156102a3576102a36101ec565b92915050565b62ffffff81811683821601908111156102a3576102a36101ec565b5f6001600160801b038316806102dc576102dc6101d8565b6001600160801b03929092169190910492915050565b60805160a05160c05160e051610100516101205161014051615aaa6103cf5f395f81816103f6015281816145a001526145d701525f81816104df015281816109670152818161460b015261463d01525f818161054001528181610a650152818161167801526116ae01525f8181610519015281816110720152818161172f01528181611be2015281816120c501526138e301525f818161014501528181611145015281816116fe01528181611b550152818161200e01526137dc01525f81816104b801528181611cde0152611ea701525f6126dc0152615aaa5ff3fe608060405234801561000f575f5ffd5b506004361061013c575f3560e01c80630dfe168114610140578063128acb081461017d5780631a686502146101a55780631ad8b03b146101d0578063252c09d7146101fc57806332148f67146102495780633850c7bd1461025e5780633c8a7d8d146103025780634614131914610315578063490e6cbc1461032c5780634f1eb3d81461033f578063514ea4bf146103525780635339c296146103d257806370cf754a146103f15780638206a4d11461041857806385b667291461042b578063883bdbfd1461043e578063a34123a71461045f578063a38807f214610472578063c45a0155146104b3578063d0c93a7c146104da578063d21220a714610514578063ddca3f431461053b578063f305839914610576578063f30dba931461057f578063f637731d14610652575b5f5ffd5b6101677f000000000000000000000000000000000000000000000000000000000000000081565b60405161017491906150ad565b60405180910390f35b61019061018b366004615122565b610665565b60408051928352602083019190915201610174565b6004546101b8906001600160801b031681565b6040516001600160801b039091168152602001610174565b6003546101ee906001600160801b0380821691600160801b90041682565b6040516101749291906151a1565b61020f61020a3660046151bb565b61129d565b6040805163ffffffff909516855260069390930b60208501526001600160a01b039091169183019190915215156060820152608001610174565b61025c6102573660046151d2565b6112e1565b005b5f546102b1906001600160a01b03811690600160a01b810460020b9061ffff600160b81b8204811691600160c81b8104821691600160d81b8204169060ff600160e81b8204811691600160f01b90041687565b604080516001600160a01b03909816885260029690960b602088015261ffff94851695870195909552918316606086015291909116608084015260ff1660a0830152151560c082015260e001610174565b61019061031036600461521a565b6113ba565b61031e60025481565b604051908152602001610174565b61025c61033a366004615264565b6115f8565b6101ee61034d3660046152c8565b611a4a565b61039c6103603660046151bb565b60076020525f908152604090208054600182015460028301546003909301546001600160801b0392831693919281811691600160801b90041685565b604080516001600160801b039687168152602081019590955284019290925283166060830152909116608082015260a001610174565b61031e6103e036600461532b565b60066020525f908152604090205481565b6101b87f000000000000000000000000000000000000000000000000000000000000000081565b61025c61042636600461535b565b611c90565b6101ee61043936600461538c565b611e56565b61045161044c3660046153ce565b61215d565b60405161017492919061543d565b61019061046d3660046154c9565b6121e3565b6104856104803660046154f2565b612364565b6040805160069490940b84526001600160a01b03909216602084015263ffffffff1690820152606001610174565b6101677f000000000000000000000000000000000000000000000000000000000000000081565b6105017f000000000000000000000000000000000000000000000000000000000000000081565b60405160029190910b8152602001610174565b6101677f000000000000000000000000000000000000000000000000000000000000000081565b6105627f000000000000000000000000000000000000000000000000000000000000000081565b60405162ffffff9091168152602001610174565b61031e60015481565b6105f661058d36600461551a565b60056020525f908152604090208054600182015460028301546003909301546001600160801b03831693600160801b909304600f0b9290600681900b90600160381b81046001600160a01b031690600160d81b810463ffffffff1690600160f81b900460ff1688565b604080516001600160801b039099168952600f9790970b602089015295870194909452606086019290925260060b60808501526001600160a01b031660a084015263ffffffff1660c0830152151560e082015261010001610174565b61025c610660366004615533565b61259a565b5f5f61066f6126d1565b855f036106a85760405162461bcd60e51b8152602060048201526002602482015261415360f01b60448201526064015b60405180910390fd5b6040805160e0810182525f546001600160a01b0381168252600160a01b810460020b602083015261ffff600160b81b8204811693830193909352600160c81b810483166060830152600160d81b8104909216608082015260ff600160e81b8304811660a0830152600160f01b909204909116151560c0820181905261073f5760405162461bcd60e51b815260040161069f9061554e565b8761078957805f01516001600160a01b0316866001600160a01b0316118015610784575073fffd8963efd1fc6a506488495d951d5263988d266001600160a01b038716105b6107ba565b805f01516001600160a01b0316866001600160a01b03161080156107ba57506401000276a36001600160a01b038716115b6107ec5760405162461bcd60e51b815260206004820152600360248201526214d41360ea1b604482015260640161069f565b5f805460ff60f01b191681556040805160c08101909152808a61081a5760048460a0015160ff16901c61082b565b60108460a0015161082b919061557f565b60ff1681526004546001600160801b031660208201526040014263ffffffff1681526020015f60060b81526020015f6001600160a01b031681526020015f151581525090505f5f891390505f6040518060e001604052808b81526020015f8152602001855f01516001600160a01b03168152602001856020015160020b81526020018c6108ba576002546108be565b6001545b81526020015f6001600160801b0316815260200184602001516001600160801b031681525090505b80511580159061090c5750886001600160a01b031681604001516001600160a01b031614155b15610e24576040805160e0810182525f80825260208201819052918101829052606081018290526080810182905260a0810182905260c081019190915260408201516001600160a01b03168152606082015161098c906006907f00000000000000000000000000000000000000000000000000000000000000008f612707565b1515604083015260020b60208201819052620d89e71913156109b757620d89e71960208201526109eb565b6109c4620d89e7196155b4565b60020b816020015160020b13156109eb576109e2620d89e7196155b4565b60020b60208201525b6109f881602001516128bc565b6001600160a01b031660608201526040820151610a89908d610a32578b6001600160a01b031683606001516001600160a01b031611610a4c565b8b6001600160a01b031683606001516001600160a01b0316105b610a5a578260600151610a5c565b8b5b60c085015185517f0000000000000000000000000000000000000000000000000000000000000000612cca565b60c085015260a084015260808301526001600160a01b031660408301528215610b0157610ac88160c001518260800151610ac391906155d4565b612edf565b82518390610ad79083906155e7565b90525060a0810151610af790610aec90612edf565b602084015190612ef3565b6020830152610b4d565b610b0e8160a00151612edf565b82518390610b1d90839061560d565b90525060c08101516080820151610b4791610b3c91610ac391906155d4565b602084015190612f0d565b60208301525b835160ff1615610ba7575f845f015160ff168260c00151610b6e9190615634565b9050808260c001818151610b829190615647565b90525060a083018051829190610b9990839061565a565b6001600160801b0316905250505b60c08201516001600160801b031615610bef57610bda8160c00151600160801b8460c001516001600160801b0316612f21565b82608001818151610beb91906155d4565b9052505b80606001516001600160a01b031682604001516001600160a01b031603610de857806040015115610dbb578360a00151610c7357610c5584604001515f8760200151886040015188602001518a606001516008612fdd909695949392919063ffffffff16565b6001600160a01b0316608086015260060b6060850152600160a08501525b5f610d8982602001518e610c8957600154610c8f565b84608001515b8f610c9e578560800151610ca2565b6002545b608089015160608a01516040808c0151600296870b5f908152600560205291909120600181018054909603909555948401805490930390925560038301805463ffffffff600160d81b66ffffffffffffff196001600160a01b03600160381b8086048216909703169095029485166001600160d81b031984161766ffffffffffffff600160381b600160d81b03198516871760060b9097039690961695861781900482169097031690950266ffffffffffffff63ffffffff60d81b0119929092166001600160f81b031990951694909417919091171790915554600160801b9004600f0b90565b90508c15610d9d57610d9a81615679565b90505b610dab8360c0015182613189565b6001600160801b031660c0840152505b8b610dca578060200151610ddb565b60018160200151610ddb9190615692565b60020b6060830152610e1e565b805f01516001600160a01b031682604001516001600160a01b031614610e1e57610e15826040015161322a565b60020b60608301525b506108e6565b836020015160020b816060015160020b14610eec575f5f610e7186604001518660400151886020015188602001518a606001518b60800151600861355d909695949392919063ffffffff16565b604085015160608601515f805463ffffffff60b81b1916600160c81b61ffff9586160261ffff60b81b191617600160b81b9590941694909402929092176001600160b81b031916600160a01b62ffffff909316929092026001600160a01b031916919091176001600160a01b0390911617905550610f109050565b60408101515f80546001600160a01b0319166001600160a01b039092169190911790555b8060c001516001600160801b031683602001516001600160801b031614610f565760c0810151600480546001600160801b0319166001600160801b039092169190911790555b8a15610fc057608081015160015560a08101516001600160801b031615610fbb5760a0810151600380545f90610f969084906001600160801b031661565a565b92506101000a8154816001600160801b0302191690836001600160801b031602179055505b611027565b608081015160025560a08101516001600160801b0316156110275760a081015160038054601090611002908490600160801b90046001600160801b031661565a565b92506101000a8154816001600160801b0302191690836001600160801b031602179055505b8115158b1515146110485760208101518151611043908c6155e7565b61105a565b8051611054908b6155e7565b81602001515b90965094508a15611138575f8512156110a0576110a07f00000000000000000000000000000000000000000000000000000000000000008d61109b886156b7565b6136dc565b5f6110a96137d7565b60405163fa461e3360e01b8152909150339063fa461e33906110d5908a908a908e908e906004016156f9565b5f604051808303815f87803b1580156110ec575f5ffd5b505af11580156110fe573d5f5f3e3d5ffd5b5050505061110a6137d7565b61111482896138cf565b11156111325760405162461bcd60e51b815260040161069f90615722565b50611202565b5f86121561116e5761116e7f00000000000000000000000000000000000000000000000000000000000000008d61109b896156b7565b5f6111776138de565b60405163fa461e3360e01b8152909150339063fa461e33906111a3908a908a908e908e906004016156f9565b5f604051808303815f87803b1580156111ba575f5ffd5b505af11580156111cc573d5f5f3e3d5ffd5b505050506111d86138de565b6111e282886138cf565b11156112005760405162461bcd60e51b815260040161069f90615722565b505b60408082015160c083015160608085015184518b8152602081018b90526001600160a01b03948516958101959095526001600160801b039092169084015260020b60808301528d169033907fc42079f94a6350d7e6235f29174924f928cc2ac818eb64fed8004e115fbcca679060a00160405180910390a350505f805460ff60f01b1916600160f01b17905550919890975095505050505050565b60088161ffff81106112ad575f80fd5b015463ffffffff81169150600160201b810460060b90600160581b81046001600160a01b031690600160f81b900460ff1684565b5f54600160f01b900460ff166113095760405162461bcd60e51b815260040161069f9061554e565b5f805460ff60f01b1916905561131d6126d1565b5f8054600160d81b900461ffff169061133860088385613924565b5f805461ffff808416600160d81b810261ffff60d81b19909316929092179092559192508316146113a3576040805161ffff8085168252831660208201527fac49e518f90a358f652e4400164f05a5d8f7e35e7747279bc3a93dbf584e125a91015b60405180910390a15b50505f805460ff60f01b1916600160f01b17905550565b5f80548190600160f01b900460ff166113e55760405162461bcd60e51b815260040161069f9061554e565b5f805460ff60f01b191690556001600160801b038516611403575f5ffd5b5f5f61145060405180608001604052808c6001600160a01b031681526020018b60020b81526020018a60020b81526020016114468a6001600160801b03166139b3565b600f0b90526139c8565b92509250508193508092505f5f5f8611156114705761146d6137d7565b91505b84156114815761147e6138de565b90505b60405163d348799760e01b8152339063d3487997906114aa90899089908d908d906004016156f9565b5f604051808303815f87803b1580156114c1575f5ffd5b505af11580156114d3573d5f5f3e3d5ffd5b505050505f861115611524576114e76137d7565b6114f183886138cf565b11156115245760405162461bcd60e51b815260206004820152600260248201526104d360f41b604482015260640161069f565b841561156f576115326138de565b61153c82876138cf565b111561156f5760405162461bcd60e51b81526020600482015260026024820152614d3160f01b604482015260640161069f565b604080513381526001600160801b038b1660208201529081018790526060810186905260028b810b91908d900b906001600160a01b038f16907f7a53080ba414158be7ec69b987b5fb7d07dee101fe85488f0853ae16239d0bde9060800160405180910390a450505f805460ff60f01b1916600160f01b17905550919890975095505050505050565b5f54600160f01b900460ff166116205760405162461bcd60e51b815260040161069f9061554e565b5f805460ff60f01b191690556116346126d1565b6004546001600160801b0316806116715760405162461bcd60e51b81526020600482015260016024820152601360fa1b604482015260640161069f565b5f6116a5867f000000000000000000000000000000000000000000000000000000000000000062ffffff16620f4240613bf8565b90505f6116db867f000000000000000000000000000000000000000000000000000000000000000062ffffff16620f4240613bf8565b90505f6116e66137d7565b90505f6116f16138de565b90508815611724576117247f00000000000000000000000000000000000000000000000000000000000000008b8b6136dc565b8715611755576117557f00000000000000000000000000000000000000000000000000000000000000008b8a6136dc565b604051630e9cbafb60e41b8152339063e9cbafb09061177e90879087908c908c906004016156f9565b5f604051808303815f87803b158015611795575f5ffd5b505af11580156117a7573d5f5f3e3d5ffd5b505050505f6117b46137d7565b90505f6117bf6138de565b9050816117cc85886138cf565b11156117ff5760405162461bcd60e51b8152602060048201526002602482015261046360f41b604482015260640161069f565b8061180a84876138cf565b111561183d5760405162461bcd60e51b8152602060048201526002602482015261463160f01b604482015260640161069f565b5f6118488584615647565b90505f6118558584615647565b90508115611922575f805461187690601090600160e81b900460ff1661557f565b90505f60ff8216156118945761188f60ff831685615634565b611896565b5f5b90506001600160801b038116156118e957600380548291905f906118c49084906001600160801b031661565a565b92506101000a8154816001600160801b0302191690836001600160801b031602179055505b61190a6118f68286615647565b600160801b8d6001600160801b0316612f21565b60015f82825461191a91906155d4565b909155505050505b80156119d3575f8054600160e81b900460041c600f169081156119515761194c60ff831684615634565b611953565b5f5b90506001600160801b038116156119ae5760038054829190601090611989908490600160801b90046001600160801b031661565a565b92506101000a8154816001600160801b0302191690836001600160801b031602179055505b6119bb6118f68285615647565b60025f8282546119cb91906155d4565b909155505050505b604080518e8152602081018e9052908101839052606081018290526001600160a01b038f169033907fbdbdb71d7860376ba52b25a5028beea23581364a40522f6bcfb86bb1f2dca6339060800160405180910390a350505f805460ff60f01b1916600160f01b179055505050505050505050505050565b5f80548190600160f01b900460ff16611a755760405162461bcd60e51b815260040161069f9061554e565b5f805460ff60f01b19168155611a8e6007338989613c3d565b60038101549091506001600160801b0390811690861611611aaf5784611abe565b60038101546001600160801b03165b60038201549093506001600160801b03600160801b909104811690851611611ae65783611afc565b6003810154600160801b90046001600160801b03165b91506001600160801b03831615611b84576003810180548491905f90611b2c9084906001600160801b031661573f565b92506101000a8154816001600160801b0302191690836001600160801b03160217905550611b847f000000000000000000000000000000000000000000000000000000000000000089856001600160801b03166136dc565b6001600160801b03821615611c1157818160030160108282829054906101000a90046001600160801b0316611bb9919061573f565b92506101000a8154816001600160801b0302191690836001600160801b03160217905550611c117f000000000000000000000000000000000000000000000000000000000000000089846001600160801b03166136dc565b604080516001600160a01b038a1681526001600160801b0385811660208301528416818301529051600288810b92908a900b9133917f70935338e69775456a85ddef226c395fb668b63fa0115f5f20610b388e6ca9c0919081900360600190a4505f805460ff60f01b1916600160f01b17905590969095509350505050565b5f54600160f01b900460ff16611cb85760405162461bcd60e51b815260040161069f9061554e565b5f805460ff60f01b1916905560408051638da5cb5b60e01b815290516001600160a01b037f00000000000000000000000000000000000000000000000000000000000000001691638da5cb5b9160048083019260209291908290030181865afa158015611d27573d5f5f3e3d5ffd5b505050506040513d601f19601f82011682018060405250810190611d4b919061575e565b6001600160a01b0316336001600160a01b031614611d67575f5ffd5b60ff82161580611d8a575060048260ff1610158015611d8a5750600a8260ff1611155b8015611db4575060ff81161580611db4575060048160ff1610158015611db45750600a8160ff1611155b611dbc575f5ffd5b5f54600160e81b900460ff16611dda600483901b610ff01684615779565b5f805460ff92909216600160e81b0260ff60e81b199092169190911790557f973d8d92bb299f4af6ce49b52a8adb85ae46b9f214c4c4fc06ac77401237b133611e2460108361557f565b6040805160ff9283168152600f600486901c16602082015286831691810191909152908416606082015260800161139a565b5f80548190600160f01b900460ff16611e815760405162461bcd60e51b815260040161069f9061554e565b5f805460ff60f01b1916905560408051638da5cb5b60e01b815290516001600160a01b037f00000000000000000000000000000000000000000000000000000000000000001691638da5cb5b9160048083019260209291908290030181865afa158015611ef0573d5f5f3e3d5ffd5b505050506040513d601f19601f82011682018060405250810190611f14919061575e565b6001600160a01b0316336001600160a01b031614611f30575f5ffd5b6003546001600160801b0390811690851611611f4c5783611f59565b6003546001600160801b03165b6003549092506001600160801b03600160801b909104811690841611611f7f5782611f93565b600354600160801b90046001600160801b03165b90506001600160801b0382161561203d576003546001600160801b0390811690831603611fc85781611fc481615792565b9250505b600380548391905f90611fe59084906001600160801b031661573f565b92506101000a8154816001600160801b0302191690836001600160801b0316021790555061203d7f000000000000000000000000000000000000000000000000000000000000000086846001600160801b03166136dc565b6001600160801b038116156120f4576003546001600160801b03600160801b909104811690821603612077578061207381615792565b9150505b6003805482919060109061209c908490600160801b90046001600160801b031661573f565b92506101000a8154816001600160801b0302191690836001600160801b031602179055506120f47f000000000000000000000000000000000000000000000000000000000000000086836001600160801b03166136dc565b846001600160a01b0316336001600160a01b03167f596b573906218d3411850b26a6b437d6c4522fdb43d2d2386263f86d50b8b15184846040516121399291906151a1565b60405180910390a35f805460ff60f01b1916600160f01b1790559094909350915050565b6060806121686126d1565b6121d7428585808060200260200160405190810160405280939291908181526020018383602002808284375f92018290525054600454600896959450600160a01b820460020b935061ffff600160b81b8304811693506001600160801b0390911691600160c81b900416613c94565b915091505b9250929050565b5f80548190600160f01b900460ff1661220e5760405162461bcd60e51b815260040161069f9061554e565b5f805460ff60f01b1916815560408051608081018252338152600288810b602083015287900b918101919091528190819061226290606081016122596001600160801b038a166139b3565b61144690615679565b92509250925081612272906156b7565b945061227d816156b7565b93505f85118061228c57505f84115b156122ee5760038301546122aa9086906001600160801b031661565a565b60038401546122ca908690600160801b90046001600160801b031661565a565b6001600160801b039182169116600160801b026001600160801b0319161760038401555b604080516001600160801b038816815260208101879052908101859052600288810b91908a900b9033907f0c396cd989a39f4459b5fa1aed6a9a8dcdbc45908acfd67e028cd568da98982c9060600160405180910390a450505f805460ff60f01b1916600160f01b179055509094909350915050565b5f5f5f61236f6126d1565b6123798585613dda565b600285810b5f908152600560205260408082209287900b825281206003830154600681900b93600160381b82046001600160a01b0316928492600160d81b810463ffffffff169284929091600160f81b900460ff16806123d7575f5ffd5b6003820154600681900b9850600160381b81046001600160a01b03169650600160d81b810463ffffffff169450600160f81b900460ff1680612417575f5ffd5b50506040805160e0810182525f546001600160a01b0381168252600160a01b8104600290810b6020840181905261ffff600160b81b8404811695850195909552600160c81b830485166060850152600160d81b8304909416608084015260ff600160e81b8304811660a0850152600160f01b909204909116151560c08301529093508e900b131590506124d4576124ae86886157b3565b6124b885876157e0565b6124c284866157ff565b99509950995050505050505050612593565b8a60020b816020015160020b12156125755760208101516040820151600454606084015142935f93849361251c9360089388938793919290916001600160801b031690612fdd565b90925090508861252c8b846157b3565b61253691906157b3565b876125418a846157e0565b61254b91906157e0565b8661255689876157ff565b61256091906157ff565b9c509c509c5050505050505050505050612593565b61257f87876157b3565b61258986866157e0565b6124c285856157ff565b9250925092565b5f546001600160a01b0316156125d75760405162461bcd60e51b8152602060048201526002602482015261414960f01b604482015260640161069f565b5f6125e18261322a565b604080516080808201835263ffffffff42168083525f602080850182905284860182905260016060958601819052600160f81b909317600855855160e0810187526001600160a01b038a16808252600289900b82840181905282890185905296820185905294810184905260a0810183905260c00183905281546001600160b81b0319168417600160a01b62ffffff89160217600160b81b600160f81b0319166501000001000160c81b1790915584519283528201929092528251939450909283927f98636036cb66a9c19a37435efc1e90142190214e8abeb821bdba3f2990dd4c95928290030190a150505050565b306001600160a01b037f00000000000000000000000000000000000000000000000000000000000000001614612705575f5ffd5b565b5f8080612714858761581b565b90505f8660020b128015612733575061272d8587615853565b60020b15155b15612746578061274281615874565b9150505b83156127f0575f5f61275783613e9f565b90925090505f600160ff831681901b906127719082615647565b61277b91906155d4565b600184900b5f90815260208c9052604090205481168015159650909150856127ba57886127ab60ff851687615692565b6127b5919061588c565b6127e5565b886127c482613ebb565b6127ce90856158ab565b6127db9060ff1687615692565b6127e5919061588c565b9650505050506128b2565b5f806128056128008460016158c4565b613e9f565b90925090505f61281c600160ff841681901b615647565b600184900b5f90815260208c905260409020549019908116801515965090915085612874578861284d8460ff6158ab565b60ff1661285b8760016158c4565b61286591906158c4565b61286f919061588c565b6128ab565b888361287f83613fa3565b61288991906158ab565b60ff166128978760016158c4565b6128a191906158c4565b6128ab919061588c565b9650505050505b5094509492505050565b5f5f5f8360020b126128d1578260020b6128de565b8260020b6128de906156b7565b90506128ed620d89e7196155b4565b60020b8111156129235760405162461bcd60e51b81526020600482015260016024820152601560fa1b604482015260640161069f565b5f816001165f0361293857600160801b61294a565b6ffffcb933bd6fad37aa2d162d1a5940015b6001600160881b03169050600282161561297f57608061297a826ffff97272373d413259a46990580e213a6158e9565b901c90505b60048216156129a95760806129a4826ffff2e50f5f656932ef12357cf3c7fdcc6158e9565b901c90505b60088216156129d35760806129ce826fffe5caca7e10e4e61c3624eaa0941cd06158e9565b901c90505b60108216156129fd5760806129f8826fffcb9843d60f6159c9db58835c9266446158e9565b901c90505b6020821615612a27576080612a22826fff973b41fa98c081472e6896dfb254c06158e9565b901c90505b6040821615612a51576080612a4c826fff2ea16466c96a3843ec78b326b528616158e9565b901c90505b6080821615612a7b576080612a76826ffe5dee046a99a2a811c461f1969c30536158e9565b901c90505b610100821615612aa6576080612aa1826ffcbe86c7900a88aedcffc83b479aa3a46158e9565b901c90505b610200821615612ad1576080612acc826ff987a7253ac413176f2b074cf7815e546158e9565b901c90505b610400821615612afc576080612af7826ff3392b0822b70005940c7a398e4b70f36158e9565b901c90505b610800821615612b27576080612b22826fe7159475a2c29b7443b29c7fa6e889d96158e9565b901c90505b611000821615612b52576080612b4d826fd097f3bdfd2022b8845ad8f792aa58256158e9565b901c90505b612000821615612b7d576080612b78826fa9f746462d870fdf8a65dc1f90e061e56158e9565b901c90505b614000821615612ba8576080612ba3826f70d869a156d2a1b890bb3df62baf32f76158e9565b901c90505b618000821615612bd3576080612bce826f31be135f97d08fd981231505542fcfa66158e9565b901c90505b62010000821615612bff576080612bfa826f09aa508b5b7a84e1c677de54f3e99bc96158e9565b901c90505b62020000821615612c2a576080612c25826e5d6af8dedb81196699c329225ee6046158e9565b901c90505b62040000821615612c54576080612c4f826d2216e584f5fa1ea926041bedfe986158e9565b901c90505b62080000821615612c7c576080612c77826b048a170391f7dc42444e8fa26158e9565b901c90505b5f8460020b1315612c9557612c92815f19615634565b90505b612ca3600160201b82615900565b15612caf576001612cb1565b5f5b612cc29060ff16602083901c6155d4565b949350505050565b5f8080806001600160a01b03808916908a161015818712801590612d54575f612d0889612cfa8a620f4240615913565b62ffffff16620f4240612f21565b905082612d2157612d1c8c8c8c60016140cb565b612d2e565b612d2e8b8d8c6001614148565b9550858110612d3f578a9650612d4e565b612d4b8c8b838661420b565b96505b50612da6565b81612d6a57612d658b8b8b5f614148565b612d76565b612d768a8c8b5f6140cb565b935083612d82896156b7565b10612d8f57899550612da6565b612da38b8a612d9d8b6156b7565b85614253565b95505b6001600160a01b038a8116908716148215612e0857808015612dc55750815b612ddb57612dd6878d8c6001614148565b612ddd565b855b9550808015612dea575081155b612dff57612dfa878d8c5f6140cb565b612e01565b845b9450612e51565b808015612e125750815b612e2857612e238c888c60016140cb565b612e2a565b855b9550808015612e37575081155b612e4c57612e478c888c5f614148565b612e4e565b845b94505b81158015612e665750612e63896156b7565b85115b15612e7757612e74896156b7565b94505b818015612e9657508a6001600160a01b0316876001600160a01b031614155b15612eac57612ea5868a615647565b9350612ed0565b612ecd8662ffffff8a16612ec38b620f4240615913565b62ffffff16613bf8565b93505b50505095509550955095915050565b5f600160ff1b8210612eef575f5ffd5b5090565b808203828113155f83121514612f07575f5ffd5b92915050565b818101828112155f83121514612f07575f5ffd5b5f80805f19858709858702925082811083820303915050805f03612f55575f8411612f4a575f5ffd5b508290049050612fd6565b808411612f60575f5ffd5b5f84868809600186198101871696879004965f8181038290049092018684119095038581029684900391909104959095179493919250612fa18760036158e9565b600290811888810282030280890282030280890282030280890282030280890282030280890290910302949094029450505050505b9392505050565b5f5f8663ffffffff165f03613083575f898661ffff1661ffff81106130045761300461592e565b60408051608081018252919092015463ffffffff808216808452600160201b830460060b6020850152600160581b83046001600160a01b031694840194909452600160f81b90910460ff16151560608301529092508a161461306f5761306c818a8988614299565b90505b80602001518160400151925092505061317d565b8688035f806130978c8c858c8c8c8c61433f565b91509150815f015163ffffffff168363ffffffff16036130c757816020015182604001519450945050505061317d565b805f015163ffffffff168363ffffffff16036130f357806020015181604001519450945050505061317d565b5f825f0151825f01510390505f835f0151850390508063ffffffff168263ffffffff1660060b856020015185602001510360060b816131345761313461556b565b05028460200151018263ffffffff168263ffffffff1686604001518660400151036001600160a01b0316028161316c5761316c61556b565b048560400151019650965050505050505b97509795505050505050565b5f5f82600f0b12156131de57508181016001600160801b03808416908216106131d95760405162461bcd60e51b81526020600482015260026024820152614c5360f01b604482015260640161069f565b612f07565b8183019050826001600160801b0316816001600160801b03161015612f075760405162461bcd60e51b81526020600482015260026024820152614c4160f01b604482015260640161069f565b5f6401000276a36001600160a01b03831610801590613265575073fffd8963efd1fc6a506488495d951d5263988d266001600160a01b038316105b6132955760405162461bcd60e51b81526020600482015260016024820152602960f91b604482015260640161069f565b600160201b600160c01b03602083901b166001600160801b03811160071b81811c6001600160401b03811160061b90811c63ffffffff811160051b90811c61ffff811160041b90811c60ff8111600390811b91821c600f811160021b90811c918211600190811b92831c9790881196179094179092171790911717176080811061332e57613324607f82615647565b83901c915061333f565b61333981607f615647565b83901b91505b5f604061334d6080846155e7565b901b9050828302607f1c92508260801c80603f1b8217915083811c935050828302607f1c92508260801c80603e1b8217915083811c935050828302607f1c92508260801c80603d1b8217915083811c935050828302607f1c92508260801c80603c1b8217915083811c935050828302607f1c92508260801c80603b1b8217915083811c935050828302607f1c92508260801c80603a1b8217915083811c935050828302607f1c92508260801c8060391b8217915083811c935050828302607f1c92508260801c8060381b8217915083811c935050828302607f1c92508260801c8060371b8217915083811c935050828302607f1c92508260801c8060361b8217915083811c935050828302607f1c92508260801c8060351b8217915083811c935050828302607f1c92508260801c8060341b8217915083811c935050828302607f1c92508260801c8060331b8217915083811c935050828302607f1c92508260801c8060321b82179150505f81693627a301d71055774c856134cf9190615942565b90505f60806134ee6f028f6481ab7f045a5af012a19d003aaa846155e7565b901d90505f608061350f846fdb2df09e81959a81455e260799a0632f61560d565b901d90508060020b8260020b1461354e57886001600160a01b0316613533826128bc565b6001600160a01b031611156135485781613550565b80613550565b815b9998505050505050505050565b5f5f5f898961ffff1661ffff81106135775761357761592e565b60408051608081018252919092015463ffffffff808216808452600160201b830460060b6020850152600160581b83046001600160a01b031694840194909452600160f81b90910460ff1615156060830152909250891690036135e0578885925092505061317d565b8461ffff168461ffff1611801561360857506135fd600186615971565b61ffff168961ffff16145b1561361557839150613619565b8491505b816136258a600161598b565b61362f91906159a5565b925061363d81898989614299565b8a8461ffff1661ffff81106136545761365461592e565b825191018054602084015160408501516060909501511515600160f81b026001600160f81b036001600160a01b03909616600160581b02959095166001600160581b0366ffffffffffffff909216600160201b026001600160581b031990931663ffffffff909516949094179190911716919091179190911790555097509795505050505050565b604080516001600160a01b038481166024830152604480830185905283518084039091018152606490920183526020820180516001600160e01b031663a9059cbb60e01b17905291515f9283929087169161373791906159c8565b5f604051808303815f865af19150503d805f8114613770576040519150601f19603f3d011682016040523d82523d5f602084013e613775565b606091505b509150915081801561379f57508051158061379f57508080602001905181019061379f91906159de565b6137d05760405162461bcd60e51b81526020600482015260026024820152612a2360f11b604482015260640161069f565b5050505050565b5f5f5f7f00000000000000000000000000000000000000000000000000000000000000006001600160a01b03166370a0823160e01b3060405160240161381d91906150ad565b60408051601f198184030181529181526020820180516001600160e01b03166001600160e01b031990941693909317909252905161385b91906159c8565b5f60405180830381855afa9150503d805f8114613893576040519150601f19603f3d011682016040523d82523d5f602084013e613898565b606091505b50915091508180156138ac57506020815110155b6138b4575f5ffd5b808060200190518101906138c891906159f9565b9250505090565b81810182811015612f07575f5ffd5b5f5f5f7f00000000000000000000000000000000000000000000000000000000000000006001600160a01b03166370a0823160e01b3060405160240161381d91906150ad565b5f5f8361ffff16116139485760405162461bcd60e51b815260040161069f90615a10565b8261ffff168261ffff161161395e575081612fd6565b825b8261ffff168161ffff1610156139aa576001858261ffff1661ffff81106139895761398961592e565b01805463ffffffff191663ffffffff92909216919091179055600101613960565b50909392505050565b80600f81900b81146139c3575f5ffd5b919050565b5f5f5f6139d36126d1565b6139e584602001518560400151613dda565b6040805160e0810182525f546001600160a01b0381168252600160a01b810460020b602080840182905261ffff600160b81b8404811685870152600160c81b84048116606080870191909152600160d81b8504909116608086015260ff600160e81b8504811660a0870152600160f01b909404909316151560c085015288519089015194890151928901519394613a829491939092909190614522565b93508460600151600f0b5f14613bf057846020015160020b816020015160020b1215613ad657613acf613ab886602001516128bc565b613ac587604001516128bc565b87606001516146c3565b9250613bf0565b846040015160020b816020015160020b1215613bc65760045460408201516001600160801b0390911690613b219042602085015160608601516080870151600894939291879161355d565b5f805463ffffffff60b81b1916600160c81b61ffff9384160261ffff60b81b191617600160b81b939092169290920217905581516040870151613b729190613b68906128bc565b88606001516146c3565b9350613b90613b8487602001516128bc565b83516060890151614703565b9250613ba0818760600151613189565b600480546001600160801b0319166001600160801b039290921691909117905550613bf0565b613bed613bd686602001516128bc565b613be387604001516128bc565b8760600151614703565b91505b509193909250565b5f613c04848484612f21565b90505f8280613c1557613c1561556b565b8486091115612fd6575f198110613c2a575f5ffd5b80613c3481615a2b565b95945050505050565b6040805160609490941b6001600160601b03191660208086019190915260e893841b60348601529190921b60378401528151601a818503018152603a90930182528251928101929092205f90815292909152902090565b6060805f8361ffff1611613cba5760405162461bcd60e51b815260040161069f90615a10565b86516001600160401b03811115613cd357613cd3615a43565b604051908082528060200260200182016040528015613cfc578160200160208202803683370190505b50915086516001600160401b03811115613d1857613d18615a43565b604051908082528060200260200182016040528015613d41578160200160208202803683370190505b5090505f5b8751811015613dcd57613d778a8a8a8481518110613d6657613d6661592e565b60200260200101518a8a8a8a612fdd565b848381518110613d8957613d8961592e565b60200260200101848481518110613da257613da261592e565b6001600160a01b039093166020938402919091019092019190915260069190910b9052600101613d46565b5097509795505050505050565b8060020b8260020b12613e155760405162461bcd60e51b8152602060048201526003602482015262544c5560e81b604482015260640161069f565b620d89e719600283900b1215613e535760405162461bcd60e51b8152602060048201526003602482015262544c4d60e81b604482015260640161069f565b613e60620d89e7196155b4565b60020b8160020b1315613e9b5760405162461bcd60e51b815260206004820152600360248201526254554d60e81b604482015260640161069f565b5050565b600281900b60081d5f613eb461010084615853565b9050915091565b5f5f8211613ec7575f5ffd5b600160801b8210613ee557608091821c91613ee29082615779565b90505b600160401b8210613f0357604091821c91613f009082615779565b90505b600160201b8210613f2157602091821c91613f1e9082615779565b90505b620100008210613f3e57601091821c91613f3b9082615779565b90505b6101008210613f5a57600891821c91613f579082615779565b90505b60108210613f7557600491821c91613f729082615779565b90505b60048210613f9057600291821c91613f8d9082615779565b90505b600282106139c357612f07600182615779565b5f5f8211613faf575f5ffd5b5060ff6001600160801b03821615613fd357613fcc6080826158ab565b9050613fdb565b608082901c91505b6001600160401b03821615613ffc57613ff56040826158ab565b9050614004565b604082901c91505b63ffffffff8216156140225761401b6020826158ab565b905061402a565b602082901c91505b61ffff8216156140465761403f6010826158ab565b905061404e565b601082901c91505b60ff821615614069576140626008826158ab565b9050614071565b600882901c91505b600f82161561408c576140856004826158ab565b9050614094565b600482901c91505b60038216156140af576140a86002826158ab565b90506140b7565b600282901c91505b60018216156139c357612f076001826158ab565b5f836001600160a01b0316856001600160a01b031611156140ea579293925b8161411e576141196001600160801b03841661410687876157e0565b6001600160a01b0316600160601b612f21565b613c34565b613c346001600160801b03841661413587876157e0565b6001600160a01b0316600160601b613bf8565b5f836001600160a01b0316856001600160a01b03161115614167579293925b600160601b600160e01b03606084901b165f61418387876157e0565b6001600160a01b031690505f876001600160a01b0316116141a2575f5ffd5b836141d457866001600160a01b03166141c58383896001600160a01b0316612f21565b6141cf9190615634565b614200565b6142006141eb8383896001600160a01b0316613bf8565b886001600160a01b0316808204910615150190565b979650505050505050565b5f5f856001600160a01b031611614220575f5ffd5b5f846001600160801b031611614234575f5ffd5b81614246576141198585856001614735565b613c348585856001614818565b5f5f856001600160a01b031611614268575f5ffd5b5f846001600160801b03161161427c575f5ffd5b8161428d576141198585855f614818565b613c348585855f614735565b6142a1615087565b5f855f01518503905060405180608001604052808663ffffffff1681526020018263ffffffff168660020b0288602001510160060b81526020015f856001600160801b0316116142f25760016142f4565b845b6001600160801b031663ffffffff60801b608085901b16816143185761431861556b565b048860400151016001600160a01b0316815260200160011515815250915050949350505050565b614347615087565b61434f615087565b888561ffff1661ffff81106143665761436661592e565b60408051608081018252919092015463ffffffff8116808352600160201b820460060b6020840152600160581b82046001600160a01b031693830193909352600160f81b900460ff161515606082015292506143c490899089614928565b156143f057815163ffffffff88811691161461317d57816143e783898988614299565b9150915061317d565b88836143fd87600161598b565b61440791906159a5565b61ffff1661ffff811061441c5761441c61592e565b60408051608081018252929091015463ffffffff81168352600160201b810460060b60208401526001600160a01b03600160581b8204169183019190915260ff600160f81b909104161515606082018190529092506144c557604080516080810182528a5463ffffffff81168252600160201b810460060b6020830152600160581b81046001600160a01b031692820192909252600160f81b90910460ff161515606082015291505b6144d388835f015189614928565b6145055760405162461bcd60e51b815260206004820152600360248201526213d31160ea1b604482015260640161069f565b61451289898988876149f4565b9150915097509795505050505050565b5f6145306007878787613c3d565b600154600254919250905f80600f87900b15614665575f8054600454429291829161458b9160089186918591600160a01b820460020b9161ffff600160b81b82048116926001600160801b031691600160c81b900416612fdd565b90925090506145c460058d8b8d8b8b87898b5f7f0000000000000000000000000000000000000000000000000000000000000000614bcf565b94506145fb60058c8b8d8b8b87898b60017f0000000000000000000000000000000000000000000000000000000000000000614bcf565b9350841561462f5761462f60068d7f0000000000000000000000000000000000000000000000000000000000000000614d74565b83156146615761466160068c7f0000000000000000000000000000000000000000000000000000000000000000614d74565b5050505b5f8061467660058c8c8b8a8a614dc4565b9092509050614687878a8484614e69565b5f89600f0b12156146b45783156146a3576146a360058c615049565b82156146b4576146b460058b615049565b50505050505095945050505050565b5f5f82600f0b126146e3576146de610ac38585856001614148565b612cc2565b6146fa610ac385856146f486615679565b5f614148565b612cc2906156b7565b5f5f82600f0b1261471e576146de610ac385858560016140cb565b6146fa610ac3858561472f86615679565b5f6140cb565b5f81156147a5575f6001600160a01b038411156147695761476484600160601b876001600160801b0316612f21565b614780565b6147806001600160801b038616606086901b615634565b905061479d6147986001600160a01b038816836138cf565b615072565b915050612cc2565b5f6001600160a01b038411156147d2576147cd84600160601b876001600160801b0316613bf8565b6147ef565b6147ef606085901b6001600160801b038716808204910615150190565b905080866001600160a01b031611614805575f5ffd5b61479d816001600160a01b038816615647565b5f825f03614827575083612cc2565b600160601b600160e01b03606085901b1682156148ce575f6001600160a01b0387168561485482826158e9565b92506148609083615634565b03614899575f61487082846155d4565b90508281106148975761488d83896001600160a01b031683613bf8565b9350505050612cc2565b505b6148c5826148ba876148b46001600160a01b038c1684615634565b906138cf565b808204910615150190565b92505050612cc2565b5f6001600160a01b038716856148e482826158e9565b92506148f09083615634565b1480156148fc57508082115b614904575f5ffd5b5f61490f8284615647565b905061488d614798848a6001600160a01b031684613bf8565b5f8363ffffffff168363ffffffff161115801561495157508363ffffffff168263ffffffff1611155b1561496d578163ffffffff168363ffffffff1611159050612fd6565b5f8463ffffffff168463ffffffff161161499a5761499563ffffffff8516600160201b615a57565b6149a2565b8363ffffffff165b64ffffffffff1690505f8563ffffffff168463ffffffff16116149d8576149d363ffffffff8516600160201b615a57565b6149e0565b8363ffffffff165b64ffffffffff169091111595945050505050565b6149fc615087565b614a04615087565b5f83614a1186600161598b565b614a1b91906159a5565b61ffff1690505f60018561ffff1683614a3491906155d4565b614a3e9190615647565b90505f5b6002614a4e83856155d4565b614a589190615634565b905089614a6961ffff881683615900565b61ffff8110614a7a57614a7a61592e565b60408051608081018252929091015463ffffffff81168352600160201b810460060b60208401526001600160a01b03600160581b8204169183019190915260ff600160f81b90910416151560608201819052909550614ae557614ade8160016155d4565b9250614a42565b8961ffff8716614af68360016155d4565b614b009190615900565b61ffff8110614b1157614b1161592e565b60408051608081018252929091015463ffffffff81168352600160201b810460060b60208401526001600160a01b03600160581b8204169183019190915260ff600160f81b909104161515606082015285519094505f90614b74908b908b614928565b9050808015614b8c5750614b8c8a8a875f0151614928565b15614b975750614bc2565b80614bae57614ba7600183615647565b9250614bbc565b614bb98260016155d4565b93505b50614a42565b5050509550959350505050565b60028a900b5f90815260208c90526040812080546001600160801b031682614bf7828d613189565b9050846001600160801b0316816001600160801b03161115614c405760405162461bcd60e51b81526020600482015260026024820152614c4f60f01b604482015260640161069f565b6001600160801b03818116159083168015919091141594505f03614ce3578c60020b8e60020b13614ccb57600183018b9055600283018a905560038301805466ffffffffffffff8a166001600160f81b0319909116600160381b6001600160a01b038d160266ffffffffffffff63ffffffff60d81b0119161717600160d81b63ffffffff8a16021790555b6003830180546001600160f81b0316600160f81b1790555b82546001600160801b0319166001600160801b03821617835585614d2a578254614d2590614d2090600160801b9004600f90810b908f900b612f0d565b6139b3565b614d49565b8254614d4990614d2090600160801b9004600f90810b908f900b612ef3565b83546001600160801b03918216600160801b0291161790925550909c9b505050505050505050505050565b614d7e8183615853565b60020b15614d8a575f5ffd5b5f80614d99612800848661581b565b600191820b5f9081526020979097526040909620805460ff9097169190911b90951890945550505050565b600285810b5f8181526020899052604080822088850b83529082209193849391929184918291908a900b12614e0457505060018201546002830154614e17565b8360010154880391508360020154870390505b5f5f8b60020b8b60020b1215614e3857505060018301546002840154614e4b565b84600101548a0391508460020154890390505b92909803979097039b96909503949094039850939650505050505050565b6040805160a08101825285546001600160801b0390811682526001870154602083015260028701549282019290925260038601548083166060830152600160801b900490911660808201525f600f85900b8103614f045781516001600160801b0316614efc5760405162461bcd60e51b815260206004820152600260248201526104e560f41b604482015260640161069f565b508051614f13565b8151614f109086613189565b90505b5f5f614f3684602001518703855f01516001600160801b0316600160801b612f21565b9150614f5984604001518603855f01516001600160801b0316600160801b612f21565b905086600f0b5f14614f7f5787546001600160801b0319166001600160801b0384161788555b60018801869055600288018590556001600160801b038216151580614fac57505f816001600160801b0316115b1561503f576003880180548391905f90614fd09084906001600160801b031661565a565b92506101000a8154816001600160801b0302191690836001600160801b03160217905550808860030160108282829054906101000a90046001600160801b031661501a919061565a565b92506101000a8154816001600160801b0302191690836001600160801b031602179055505b5050505050505050565b600290810b5f908152602092909252604082208281556001810183905590810182905560030155565b806001600160a01b03811681146139c3575f5ffd5b604080516080810182525f80825260208201819052918101829052606081019190915290565b6001600160a01b0391909116815260200190565b6001600160a01b03811681146150d5575f5ffd5b50565b80151581146150d5575f5ffd5b5f5f83601f8401126150f5575f5ffd5b5081356001600160401b0381111561510b575f5ffd5b6020830191508360208285010111156121dc575f5ffd5b5f5f5f5f5f5f60a08789031215615137575f5ffd5b8635615142816150c1565b95506020870135615152816150d8565b9450604087013593506060870135615169816150c1565b925060808701356001600160401b03811115615183575f5ffd5b61518f89828a016150e5565b979a9699509497509295939492505050565b6001600160801b0392831681529116602082015260400190565b5f602082840312156151cb575f5ffd5b5035919050565b5f602082840312156151e2575f5ffd5b813561ffff81168114612fd6575f5ffd5b8035600281900b81146139c3575f5ffd5b80356001600160801b03811681146139c3575f5ffd5b5f5f5f5f5f5f60a0878903121561522f575f5ffd5b863561523a816150c1565b9550615248602088016151f3565b9450615256604088016151f3565b935061516960608801615204565b5f5f5f5f5f60808688031215615278575f5ffd5b8535615283816150c1565b9450602086013593506040860135925060608601356001600160401b038111156152ab575f5ffd5b6152b7888289016150e5565b969995985093965092949392505050565b5f5f5f5f5f60a086880312156152dc575f5ffd5b85356152e7816150c1565b94506152f5602087016151f3565b9350615303604087016151f3565b925061531160608701615204565b915061531f60808701615204565b90509295509295909350565b5f6020828403121561533b575f5ffd5b81358060010b8114612fd6575f5ffd5b803560ff811681146139c3575f5ffd5b5f5f6040838503121561536c575f5ffd5b6153758361534b565b91506153836020840161534b565b90509250929050565b5f5f5f6060848603121561539e575f5ffd5b83356153a9816150c1565b92506153b760208501615204565b91506153c560408501615204565b90509250925092565b5f5f602083850312156153df575f5ffd5b82356001600160401b038111156153f4575f5ffd5b8301601f81018513615404575f5ffd5b80356001600160401b03811115615419575f5ffd5b8560208260051b840101111561542d575f5ffd5b6020919091019590945092505050565b604080825283519082018190525f9060208501906060840190835b8181101561547957835160060b835260209384019390920191600101615458565b5050838103602080860191909152855180835291810192508501905f5b818110156154bd5782516001600160a01b0316845260209384019390920191600101615496565b50919695505050505050565b5f5f5f606084860312156154db575f5ffd5b6154e4846151f3565b92506153b7602085016151f3565b5f5f60408385031215615503575f5ffd5b61550c836151f3565b9150615383602084016151f3565b5f6020828403121561552a575f5ffd5b612fd6826151f3565b5f60208284031215615543575f5ffd5b8135612fd6816150c1565b6020808252600390820152624c4f4b60e81b604082015260600190565b634e487b7160e01b5f52601260045260245ffd5b5f60ff8316806155915761559161556b565b8060ff84160691505092915050565b634e487b7160e01b5f52601160045260245ffd5b5f8160020b627fffff1981036155cc576155cc6155a0565b5f0392915050565b80820180821115612f0757612f076155a0565b8181035f831280158383131683831282161715615606576156066155a0565b5092915050565b8082018281125f83128015821682158216171561562c5761562c6155a0565b505092915050565b5f826156425761564261556b565b500490565b81810381811115612f0757612f076155a0565b6001600160801b038181168382160190811115612f0757612f076155a0565b5f600f82900b6001607f1b81016155cc576155cc6155a0565b600282810b9082900b03627fffff198112627fffff82131715612f0757612f076155a0565b5f600160ff1b82016156cb576156cb6155a0565b505f0390565b81835281816020850137505f828201602090810191909152601f909101601f19169091010190565b848152836020820152606060408201525f6157186060830184866156d1565b9695505050505050565b60208082526003908201526249494160e81b604082015260600190565b6001600160801b038281168282160390811115612f0757612f076155a0565b5f6020828403121561576e575f5ffd5b8151612fd6816150c1565b60ff8181168382160190811115612f0757612f076155a0565b5f6001600160801b038216806157aa576157aa6155a0565b5f190192915050565b600682810b9082900b03667fffffffffffff198112667fffffffffffff82131715612f0757612f076155a0565b6001600160a01b038281168282160390811115612f0757612f076155a0565b63ffffffff8281168282160390811115612f0757612f076155a0565b5f8160020b8360020b806158315761583161556b565b627fffff1982145f198214161561584a5761584a6155a0565b90059392505050565b5f8260020b806158655761586561556b565b808360020b0791505092915050565b5f8160020b627fffff1981036157aa576157aa6155a0565b5f8260020b8260020b028060020b9150808214615606576156066155a0565b60ff8281168282160390811115612f0757612f076155a0565b600281810b9083900b01627fffff8113627fffff1982121715612f0757612f076155a0565b8082028115828204841417612f0757612f076155a0565b5f8261590e5761590e61556b565b500690565b62ffffff8281168282160390811115612f0757612f076155a0565b634e487b7160e01b5f52603260045260245ffd5b8082025f8212600160ff1b8414161561595d5761595d6155a0565b8181058314821517612f0757612f076155a0565b61ffff8281168282160390811115612f0757612f076155a0565b61ffff8181168382160190811115612f0757612f076155a0565b5f61ffff8316806159b8576159b861556b565b8061ffff84160691505092915050565b5f82518060208501845e5f920191825250919050565b5f602082840312156159ee575f5ffd5b8151612fd6816150d8565b5f60208284031215615a09575f5ffd5b5051919050565b6020808252600190820152604960f81b604082015260600190565b5f60018201615a3c57615a3c6155a0565b5060010190565b634e487b7160e01b5f52604160045260245ffd5b64ffffffffff8181168382160190811115612f0757612f076155a056fea2646970667358221220658a7fd0bd9f88054f71e4f6a99071326c5accabb96549928b7e74faf9741afb64736f6c634300081e00333067048beee31b25b2f1681f88dac838c8bba36af25bfb2b7cf7473a5847e35f49ecf333e5b8c95c40fdafc95c1ad136e8914a8fb55e9dc8bb01eaa83a2df9adddf252ad1be2c89b69c2b068fc378daa952ba7f163c4a11628f55a4df523b3efa2646970667358221220659084360c725d3dcef71d372b4aa1da98a13acf18369cdab833c4022b565d2264736f6c634300081e0033","linkReferences":{}},"methodIdentifiers":{"DOMAIN_SEPARATOR()":"3644e515","PERMIT_TYPEHASH()":"30adf81f","WETH9()":"4aa4a4fc","approve(address,uint256)":"095ea7b3","balanceOf(address)":"70a08231","burn(uint256)":"42966c68","collect((uint256,address,uint128,uint128))":"fc6f7865","createAndInitializePoolIfNecessary(address,address,uint24,uint160)":"13ead562","decreaseLiquidity((uint256,uint128,uint256,uint256,uint256))":"0c49ccbe","factory()":"c45a0155","getApproved(uint256)":"081812fc","increaseLiquidity((uint256,uint256,uint256,uint256,uint256,uint256))":"219f5d17","isApprovedForAll(address,address)":"e985e9c5","mint((address,address,uint24,int24,int24,uint256,uint256,uint256,uint256,address,uint256))":"88316456","multicall(bytes[])":"ac9650d8","name()":"06fdde03","ownerOf(uint256)":"6352211e","permit(address,uint256,uint256,uint8,bytes32,bytes32)":"7ac2ff7b","positions(uint256)":"99fbab88","refundETH()":"12210e8a","safeTransferFrom(address,address,uint256)":"42842e0e","safeTransferFrom(address,address,uint256,bytes)":"b88d4fde","selfPermit(address,uint256,uint256,uint8,bytes32,bytes32)":"f3995c67","selfPermitAllowed(address,uint256,uint256,uint8,bytes32,bytes32)":"4659a494","selfPermitAllowedIfNecessary(address,uint256,uint256,uint8,bytes32,bytes32)":"a4a78f0c","selfPermitIfNecessary(address,uint256,uint256,uint8,bytes32,bytes32)":"c2e3140a","setApprovalForAll(address,bool)":"a22cb465","supportsInterface(bytes4)":"01ffc9a7","sweepToken(address,uint256,address)":"df2ab5bb","symbol()":"95d89b41","tokenByIndex(uint256)":"4f6ccce7","tokenOfOwnerByIndex(address,uint256)":"2f745c59","tokenURI(uint256)":"c87b56dd","totalSupply()":"18160ddd","transferFrom(address,address,uint256)":"23b872dd","uniswapV3MintCallback(uint256,uint256,bytes)":"d3487997","unwrapWETH9(uint256,address)":"49404b7c"},"id":1062}