{"abi":[{"type":"function","name":"at","inputs":[{"name":"index","type":"uint256","internalType":"uint256"}],"outputs":[{"name":"key","type":"address","internalType":"contract IERC20"},{"name":"value","type":"bytes32","internalType":"bytes32"}],"stateMutability":"view"},{"type":"function","name":"contains","inputs":[{"name":"key","type":"address","internalType":"contract IERC20"}],"outputs":[{"name":"","type":"bool","internalType":"bool"}],"stateMutability":"view"},{"type":"function","name":"get","inputs":[{"name":"key","type":"address","internalType":"contract IERC20"}],"outputs":[{"name":"","type":"bytes32","internalType":"bytes32"}],"stateMutability":"view"},{"type":"function","name":"indexOf","inputs":[{"name":"key","type":"address","internalType":"contract IERC20"}],"outputs":[{"name":"","type":"uint256","internalType":"uint256"}],"stateMutability":"view"},{"type":"function","name":"length","inputs":[],"outputs":[{"name":"","type":"uint256","internalType":"uint256"}],"stateMutability":"view"},{"type":"function","name":"remove","inputs":[{"name":"key","type":"address","internalType":"contract IERC20"}],"outputs":[{"name":"","type":"bool","internalType":"bool"}],"stateMutability":"nonpayable"},{"type":"function","name":"set","inputs":[{"name":"key","type":"address","internalType":"contract IERC20"},{"name":"value","type":"bytes32","internalType":"bytes32"}],"outputs":[{"name":"","type":"bool","internalType":"bool"}],"stateMutability":"nonpayable"},{"type":"function","name":"unchecked_at","inputs":[{"name":"index","type":"uint256","internalType":"uint256"}],"outputs":[{"name":"key","type":"address","internalType":"contract IERC20"},{"name":"value","type":"bytes32","internalType":"bytes32"}],"stateMutability":"view"},{"type":"function","name":"unchecked_indexOf","inputs":[{"name":"key","type":"address","internalType":"contract IERC20"}],"outputs":[{"name":"","type":"uint256","internalType":"uint256"}],"stateMutability":"view"},{"type":"function","name":"unchecked_setAt","inputs":[{"name":"index","type":"uint256","internalType":"uint256"},{"name":"value","type":"bytes32","internalType":"bytes32"}],"outputs":[],"stateMutability":"nonpayable"},{"type":"function","name":"unchecked_valueAt","inputs":[{"name":"index","type":"uint256","internalType":"uint256"}],"outputs":[{"name":"value","type":"bytes32","internalType":"bytes32"}],"stateMutability":"view"},{"type":"error","name":"IndexOutOfBounds","inputs":[]},{"type":"error","name":"KeyNotFound","inputs":[]}],"bytecode":{"object":"0x6080604052348015600e575f5ffd5b506105a48061001c5f395ff3fe608060405234801561000f575f5ffd5b5060043610610097575f3560e01c80630127190b1461009b5780631f7b6d32146100c157806329092d0e146100c85780633e7b8e71146100eb57806354996d5d146100fe5780635dbe47e814610124578063adcd29d914610137578063c2bc2efc1461014a578063c65d26831461015d578063e0886f901461018f578063fd6aad25146101a2575b5f5ffd5b6100ae6100a93660046104f6565b6101b5565b6040519081526020015b60405180910390f35b5f546100ae565b6100db6100d63660046104f6565b6101c6565b60405190151581526020016100b8565b6100db6100f936600461050f565b6101d1565b61012261010c366004610537565b5f91825260016020819052604090922090910155565b005b6100db6101323660046104f6565b6101e4565b6100ae610145366004610557565b610203565b6100ae6101583660046104f6565b61020e565b61017061016b366004610557565b610219565b604080516001600160a01b0390931683526020830191909152016100b8565b61017061019d366004610557565b61022e565b6100ae6101b03660046104f6565b61023a565b5f6101c08183610245565b92915050565b5f6101c08183610263565b5f6101dd818484610335565b9392505050565b6001600160a01b0381165f9081526002602052604081205415156101c0565b5f6101c081836103e2565b5f6101c081836103f7565b5f806102258184610446565b91509150915091565b5f806102258184610469565b5f6101c081836104a3565b6001600160a01b03165f908152600291909101602052604090205490565b6001600160a01b0381165f908152600283016020526040812054801561032c5783545f1980830191018082146102e3575f818152600180880160209081526040808420868552818520815481546001600160a01b0319166001600160a01b0391821617825582860154919095015554909216835260028901905290208390555b5f81815260018088016020908152604080842080546001600160a01b031916815583018490559389556001600160a01b03881683526002890190529181205592506101c0915050565b5f9150506101c0565b6001600160a01b0382165f9081526002840160205260408120548082036103c257505082546040805180820182526001600160a01b0385811680835260208084018781525f8781526001808c018452878220965187546001600160a01b031916961695909517865590519484019490945594820180895590835260028801909452919020919091556101dd565b5f19015f9081526001808601602052604082200183905590509392505050565b5f908152600191820160205260409020015490565b6001600160a01b0381165f908152600283016020526040812054808203610431576040516317cfd1e760e21b815260040160405180910390fd5b61043e84600183036103e2565b949350505050565b5f90815260019182016020526040902080549101546001600160a01b0390911691565b5f5f835f0154831061048e57604051634e23d03560e01b815260040160405180910390fd5b6104988484610446565b915091509250929050565b5f5f6104af8484610245565b9050805f036104d1576040516317cfd1e760e21b815260040160405180910390fd5b5f19019392505050565b80356001600160a01b03811681146104f1575f5ffd5b919050565b5f60208284031215610506575f5ffd5b6101dd826104db565b5f5f60408385031215610520575f5ffd5b610529836104db565b946020939093013593505050565b5f5f60408385031215610548575f5ffd5b50508035926020909101359150565b5f60208284031215610567575f5ffd5b503591905056fea264697066735822122000e47fa77c7966803ff0d2629bf25ebec816ef7041816aeca1e1aeb0da08c26f64736f6c634300081e0033","linkReferences":{}},"methodIdentifiers":{"at(uint256)":"e0886f90","contains(address)":"5dbe47e8","get(address)":"c2bc2efc","indexOf(address)":"fd6aad25","length()":"1f7b6d32","remove(address)":"29092d0e","set(address,bytes32)":"3e7b8e71","unchecked_at(uint256)":"c65d2683","unchecked_indexOf(address)":"0127190b","unchecked_setAt(uint256,bytes32)":"54996d5d","unchecked_valueAt(uint256)":"adcd29d9"},"id":276}