{"abi":[{"type":"constructor","inputs":[{"name":"vault","type":"address","internalType":"contract IVault"},{"name":"trustedContractRegistry","type":"address","internalType":"contract IBalancerContractRegistry"}],"stateMutability":"nonpayable"},{"type":"function","name":"getActionId","inputs":[{"name":"selector","type":"bytes4","internalType":"bytes4"}],"outputs":[{"name":"","type":"bytes32","internalType":"bytes32"}],"stateMutability":"view"},{"type":"function","name":"getAuthorizer","inputs":[],"outputs":[{"name":"","type":"address","internalType":"contract IAuthorizer"}],"stateMutability":"view"},{"type":"function","name":"getBalancerContractRegistry","inputs":[],"outputs":[{"name":"","type":"address","internalType":"contract IBalancerContractRegistry"}],"stateMutability":"view"},{"type":"function","name":"getFactorySpecificProtocolFeePercentages","inputs":[{"name":"factory","type":"address","internalType":"address"}],"outputs":[{"name":"protocolSwapFeePercentage","type":"uint256","internalType":"uint256"},{"name":"protocolYieldFeePercentage","type":"uint256","internalType":"uint256"}],"stateMutability":"view"},{"type":"function","name":"getProtocolFeeController","inputs":[],"outputs":[{"name":"","type":"address","internalType":"contract IProtocolFeeController"}],"stateMutability":"view"},{"type":"function","name":"getVault","inputs":[],"outputs":[{"name":"","type":"address","internalType":"contract IVault"}],"stateMutability":"view"},{"type":"function","name":"setFactorySpecificProtocolFeePercentages","inputs":[{"name":"factory","type":"address","internalType":"address"},{"name":"protocolSwapFeePercentage","type":"uint256","internalType":"uint256"},{"name":"protocolYieldFeePercentage","type":"uint256","internalType":"uint256"}],"outputs":[],"stateMutability":"nonpayable"},{"type":"function","name":"setProtocolFeePercentagesForPools","inputs":[{"name":"factory","type":"address","internalType":"address"},{"name":"pools","type":"address[]","internalType":"address[]"}],"outputs":[],"stateMutability":"nonpayable"},{"type":"event","name":"FactorySpecificProtocolFeePercentagesSet","inputs":[{"name":"factory","type":"address","indexed":true,"internalType":"address"},{"name":"protocolSwapFeePercentage","type":"uint256","indexed":false,"internalType":"uint256"},{"name":"protocolYieldFeePercentage","type":"uint256","indexed":false,"internalType":"uint256"}],"anonymous":false},{"type":"error","name":"FactoryFeesNotSet","inputs":[{"name":"factory","type":"address","internalType":"address"}]},{"type":"error","name":"FeePrecisionTooHigh","inputs":[]},{"type":"error","name":"PoolNotFromFactory","inputs":[{"name":"pool","type":"address","internalType":"address"},{"name":"factory","type":"address","internalType":"address"}]},{"type":"error","name":"ProtocolSwapFeePercentageTooHigh","inputs":[]},{"type":"error","name":"ProtocolYieldFeePercentageTooHigh","inputs":[]},{"type":"error","name":"SenderNotAllowed","inputs":[]},{"type":"error","name":"UnknownFactory","inputs":[{"name":"factory","type":"address","internalType":"address"}]},{"type":"error","name":"VaultNotSet","inputs":[]},{"type":"error","name":"WrongProtocolFeeControllerDeployment","inputs":[]}],"bytecode":{"object":"0x610140604052348015610010575f5ffd5b50604051610e4c380380610e4c83398101604081905261002f916101e2565b306080819052829081906001600160a01b03821661006057604051630647140b60e51b815260040160405180910390fd5b816001600160a01b031660a0816001600160a01b0316815250505050505f826001600160a01b03166385f2dbd46040518163ffffffff1660e01b8152600401602060405180830381865afa1580156100ba573d5f5f3e3d5ffd5b505050506040513d601f19601f820116820180604052508101906100de919061021a565b6001600160a01b0380821660e081905290841660c052604080516313b968ab60e11b815290519293509091632772d156916004808201926020929091908290030181865afa158015610132573d5f5f3e3d5ffd5b505050506040513d601f19601f82011682018060405250810190610156919061023c565b6101008181525050806001600160a01b0316635e32e4e86040518163ffffffff1660e01b8152600401602060405180830381865afa15801561019a573d5f5f3e3d5ffd5b505050506040513d601f19601f820116820180604052508101906101be919061023c565b6101205250610253915050565b6001600160a01b03811681146101df575f5ffd5b50565b5f5f604083850312156101f3575f5ffd5b82516101fe816101cb565b602084015190925061020f816101cb565b809150509250929050565b5f6020828403121561022a575f5ffd5b8151610235816101cb565b9392505050565b5f6020828403121561024c575f5ffd5b5051919050565b60805160a05160c05160e0516101005161012051610b976102b55f395f61019f01525f61015e01525f818160c9015281816106de015261075701525f818161010801526101f501525f81816104f701526107c501525f6104940152610b975ff3fe608060405234801561000f575f5ffd5b5060043610610075575f3560e01c806285968914610079578063344b12d51461008e578063851c1bb3146100a157806385f2dbd4146100c75780638d928af8146100f6578063aaabadc5146100fe578063deb27a7a14610106578063f2c24ec81461012c575b5f5ffd5b61008c610087366004610905565b610154565b005b61008c61009c36600461094b565b61038b565b6100b46100af366004610a2a565b610491565b6040519081526020015b60405180910390f35b7f00000000000000000000000000000000000000000000000000000000000000005b6040516100be9190610a51565b6100e96104f5565b6100e961051e565b7f00000000000000000000000000000000000000000000000000000000000000006100e9565b61013f61013a366004610a65565b610586565b604080519283526020830191909152016100be565b61015c6105b0565b7f000000000000000000000000000000000000000000000000000000000000000082111561019d57604051637e6eb7fb60e01b815260040160405180910390fd5b7f00000000000000000000000000000000000000000000000000000000000000008111156101de576040516353c24f4760e11b815260040160405180910390fd5b604051632b89cce960e21b81526001600160a01b037f0000000000000000000000000000000000000000000000000000000000000000169063ae2733a49061022d906001908790600401610a80565b602060405180830381865afa158015610248573d5f5f3e3d5ffd5b505050506040513d601f19601f8201168201806040525081019061026c9190610ab8565b15155f0361029857826040516330a91ce160e21b815260040161028f9190610a51565b60405180910390fd5b6102a1826105f1565b6102aa816105f1565b60405180606001604052806102be8461062a565b6001600160401b031681526020016102d58361062a565b6001600160401b03908116825260016020928301526001600160a01b0386165f8181528084526040908190208551815495870151968301511515600160801b0260ff60801b19978616600160401b026001600160801b0319909716919095161794909417949094169190911790915590517f2c3f7d4fd7252aea844c55450b24cac1853ac3a3293a3d0616193b7d854cf0f09061037e9085908590918252602082015260400190565b60405180910390a2505050565b5f6103958361063a565b90505f5b825181101561048b575f8382815181106103b5576103b5610ad7565b60200260200101519050846001600160a01b0316636634b753826040518263ffffffff1660e01b81526004016103eb9190610a51565b602060405180830381865afa158015610406573d5f5f3e3d5ffd5b505050506040513d601f19601f8201168201806040525081019061042a9190610ab8565b15155f0361045e5760405163f400ce6360e01b81526001600160a01b0380831660048301528616602482015260440161028f565b61048281845f01516001600160401b031685602001516001600160401b03166106c7565b50600101610399565b50505050565b5f7f0000000000000000000000000000000000000000000000000000000000000000826040516020016104d89291909182526001600160e01b031916602082015260240190565b604051602081830303815290604052805190602001209050919050565b7f000000000000000000000000000000000000000000000000000000000000000090565b905090565b5f6105276104f5565b6001600160a01b031663aaabadc56040518163ffffffff1660e01b8152600401602060405180830381865afa158015610562573d5f5f3e3d5ffd5b505050506040513d601f19601f820116820180604052508101906105199190610aeb565b5f5f5f6105928461063a565b80516020909101516001600160401b03918216969116945092505050565b5f6105c55f356001600160e01b031916610491565b90506105d181336107c2565b6105ee576040516323dada5360e01b815260040160405180910390fd5b50565b8064174876e8006106028183610b06565b61060c9190610b25565b146105ee5760405163419fd9e760e11b815260040160405180910390fd5b5f610634826108c1565b92915050565b60408051606080820183525f80835260208084018290529284018190526001600160a01b038516815280835283812084519283018552546001600160401b038082168452600160401b82041693830193909352600160801b90920460ff1615159281018390529190036106c257816040516352c4e04f60e11b815260040161028f9190610a51565b919050565b60405163fd267f3960e01b81526001600160a01b037f0000000000000000000000000000000000000000000000000000000000000000169063fd267f39906107159086908690600401610b48565b5f604051808303815f87803b15801561072c575f5ffd5b505af115801561073e573d5f5f3e3d5ffd5b50506040516355d519ab60e11b81526001600160a01b037f000000000000000000000000000000000000000000000000000000000000000016925063abaa335691506107909086908590600401610b48565b5f604051808303815f87803b1580156107a7575f5ffd5b505af11580156107b9573d5f5f3e3d5ffd5b50505050505050565b5f7f00000000000000000000000000000000000000000000000000000000000000006001600160a01b031663aaabadc56040518163ffffffff1660e01b8152600401602060405180830381865afa15801561081f573d5f5f3e3d5ffd5b505050506040513d601f19601f820116820180604052508101906108439190610aeb565b6040516326f8aa2160e21b8152600481018590526001600160a01b0384811660248301523060448301529190911690639be2a88490606401602060405180830381865afa158015610896573d5f5f3e3d5ffd5b505050506040513d601f19601f820116820180604052508101906108ba9190610ab8565b9392505050565b5f600160401b82106108d5576108d56108d9565b5090565b6335278d125f526004601cfd5b6001600160a01b03811681146105ee575f5ffd5b80356106c2816108e6565b5f5f5f60608486031215610917575f5ffd5b8335610922816108e6565b95602085013595506040909401359392505050565b634e487b7160e01b5f52604160045260245ffd5b5f5f6040838503121561095c575f5ffd5b8235610967816108e6565b915060208301356001600160401b03811115610981575f5ffd5b8301601f81018513610991575f5ffd5b80356001600160401b038111156109aa576109aa610937565b604051600582901b90603f8201601f191681016001600160401b03811182821017156109d8576109d8610937565b6040529182526020818401810192908101888411156109f5575f5ffd5b6020850194505b83851015610a1b57610a0d856108fa565b8152602094850194016109fc565b50809450505050509250929050565b5f60208284031215610a3a575f5ffd5b81356001600160e01b0319811681146108ba575f5ffd5b6001600160a01b0391909116815260200190565b5f60208284031215610a75575f5ffd5b81356108ba816108e6565b6040810160058410610aa057634e487b7160e01b5f52602160045260245ffd5b9281526001600160a01b039190911660209091015290565b5f60208284031215610ac8575f5ffd5b815180151581146108ba575f5ffd5b634e487b7160e01b5f52603260045260245ffd5b5f60208284031215610afb575f5ffd5b81516108ba816108e6565b5f82610b2057634e487b7160e01b5f52601260045260245ffd5b500490565b808202811582820484141761063457634e487b7160e01b5f52601160045260245ffd5b6001600160a01b0392909216825260208201526040019056fea264697066735822122050f7f4593a6a662a021e002697ec6ae937906ca84e8f4c69471f45cc7026ba3464736f6c634300081e0033","linkReferences":{}},"methodIdentifiers":{"getActionId(bytes4)":"851c1bb3","getAuthorizer()":"aaabadc5","getBalancerContractRegistry()":"deb27a7a","getFactorySpecificProtocolFeePercentages(address)":"f2c24ec8","getProtocolFeeController()":"85f2dbd4","getVault()":"8d928af8","setFactorySpecificProtocolFeePercentages(address,uint256,uint256)":"00859689","setProtocolFeePercentagesForPools(address,address[])":"344b12d5"},"id":315}