{"abi":[{"type":"function","name":"computeAddLiquiditySingleTokenExactOut","inputs":[{"name":"currentBalances","type":"uint256[]","internalType":"uint256[]"},{"name":"tokenInIndex","type":"uint256","internalType":"uint256"},{"name":"exactBptAmountOut","type":"uint256","internalType":"uint256"},{"name":"totalSupply","type":"uint256","internalType":"uint256"},{"name":"swapFeePercentage","type":"uint256","internalType":"uint256"}],"outputs":[{"name":"amountInWithFee","type":"uint256","internalType":"uint256"},{"name":"swapFeeAmounts","type":"uint256[]","internalType":"uint256[]"}],"stateMutability":"view"},{"type":"function","name":"computeAddLiquidityUnbalanced","inputs":[{"name":"currentBalances","type":"uint256[]","internalType":"uint256[]"},{"name":"exactAmounts","type":"uint256[]","internalType":"uint256[]"},{"name":"totalSupply","type":"uint256","internalType":"uint256"},{"name":"swapFeePercentage","type":"uint256","internalType":"uint256"}],"outputs":[{"name":"bptAmountOut","type":"uint256","internalType":"uint256"},{"name":"swapFeeAmounts","type":"uint256[]","internalType":"uint256[]"}],"stateMutability":"view"},{"type":"function","name":"computeBalance","inputs":[{"name":"balances","type":"uint256[]","internalType":"uint256[]"},{"name":"tokenInIndex","type":"uint256","internalType":"uint256"},{"name":"invariantRatio","type":"uint256","internalType":"uint256"}],"outputs":[{"name":"newBalance","type":"uint256","internalType":"uint256"}],"stateMutability":"pure"},{"type":"function","name":"computeInvariant","inputs":[{"name":"balances","type":"uint256[]","internalType":"uint256[]"},{"name":"","type":"uint8","internalType":"enum Rounding"}],"outputs":[{"name":"","type":"uint256","internalType":"uint256"}],"stateMutability":"pure"},{"type":"function","name":"computeProportionalAmountsIn","inputs":[{"name":"balances","type":"uint256[]","internalType":"uint256[]"},{"name":"bptTotalSupply","type":"uint256","internalType":"uint256"},{"name":"bptAmountOut","type":"uint256","internalType":"uint256"}],"outputs":[{"name":"","type":"uint256[]","internalType":"uint256[]"}],"stateMutability":"pure"},{"type":"function","name":"computeProportionalAmountsOut","inputs":[{"name":"balances","type":"uint256[]","internalType":"uint256[]"},{"name":"bptTotalSupply","type":"uint256","internalType":"uint256"},{"name":"bptAmountIn","type":"uint256","internalType":"uint256"}],"outputs":[{"name":"","type":"uint256[]","internalType":"uint256[]"}],"stateMutability":"pure"},{"type":"function","name":"computeRemoveLiquiditySingleTokenExactIn","inputs":[{"name":"currentBalances","type":"uint256[]","internalType":"uint256[]"},{"name":"tokenOutIndex","type":"uint256","internalType":"uint256"},{"name":"exactBptAmountIn","type":"uint256","internalType":"uint256"},{"name":"totalSupply","type":"uint256","internalType":"uint256"},{"name":"swapFeePercentage","type":"uint256","internalType":"uint256"}],"outputs":[{"name":"amountOutWithFee","type":"uint256","internalType":"uint256"},{"name":"swapFeeAmounts","type":"uint256[]","internalType":"uint256[]"}],"stateMutability":"view"},{"type":"function","name":"computeRemoveLiquiditySingleTokenExactOut","inputs":[{"name":"currentBalances","type":"uint256[]","internalType":"uint256[]"},{"name":"tokenOutIndex","type":"uint256","internalType":"uint256"},{"name":"exactAmountOut","type":"uint256","internalType":"uint256"},{"name":"totalSupply","type":"uint256","internalType":"uint256"},{"name":"swapFeePercentage","type":"uint256","internalType":"uint256"}],"outputs":[{"name":"bptAmountIn","type":"uint256","internalType":"uint256"},{"name":"swapFeeAmounts","type":"uint256[]","internalType":"uint256[]"}],"stateMutability":"view"},{"type":"function","name":"getMaximumInvariantRatio","inputs":[],"outputs":[{"name":"","type":"uint256","internalType":"uint256"}],"stateMutability":"pure"},{"type":"function","name":"getMaximumSwapFeePercentage","inputs":[],"outputs":[{"name":"","type":"uint256","internalType":"uint256"}],"stateMutability":"pure"},{"type":"function","name":"getMinimumInvariantRatio","inputs":[],"outputs":[{"name":"","type":"uint256","internalType":"uint256"}],"stateMutability":"pure"},{"type":"function","name":"getMinimumSwapFeePercentage","inputs":[],"outputs":[{"name":"","type":"uint256","internalType":"uint256"}],"stateMutability":"pure"},{"type":"function","name":"onSwap","inputs":[{"name":"","type":"tuple","internalType":"struct PoolSwapParams","components":[{"name":"kind","type":"uint8","internalType":"enum SwapKind"},{"name":"amountGivenScaled18","type":"uint256","internalType":"uint256"},{"name":"balancesScaled18","type":"uint256[]","internalType":"uint256[]"},{"name":"indexIn","type":"uint256","internalType":"uint256"},{"name":"indexOut","type":"uint256","internalType":"uint256"},{"name":"router","type":"address","internalType":"address"},{"name":"userData","type":"bytes","internalType":"bytes"}]}],"outputs":[{"name":"","type":"uint256","internalType":"uint256"}],"stateMutability":"pure"},{"type":"error","name":"InvariantRatioAboveMax","inputs":[{"name":"invariantRatio","type":"uint256","internalType":"uint256"},{"name":"maxInvariantRatio","type":"uint256","internalType":"uint256"}]},{"type":"error","name":"InvariantRatioBelowMin","inputs":[{"name":"invariantRatio","type":"uint256","internalType":"uint256"},{"name":"minInvariantRatio","type":"uint256","internalType":"uint256"}]},{"type":"error","name":"ZeroDivision","inputs":[]}],"bytecode":{"object":"0x6080604052348015600e575f5ffd5b5061147b8061001c5f395ff3fe608060405234801561000f575f5ffd5b50600436106100ad575f3560e01c806316a0b3e0146100b1578063273c1adf146100d75780633ab05915146100e7578063654cf15d1461010857806372c981861461011657806385d5261a14610129578063984de9e81461013c5780639a87ffbf1461014f578063b677fa5614610162578063c548e4d814610168578063ce20ece714610162578063d9c7cc7a14610188578063da3179801461019b575b5f5ffd5b6100c46100bf36600461114c565b6101ae565b6040519081526020015b60405180910390f35b69d3c21bcecceda10000006100c4565b6100fa6100f5366004611195565b6101ff565b6040516100ce929190611226565b670de0b6b3a76400006100c4565b6100c461012436600461123e565b61021e565b6100fa610137366004611195565b61025f565b6100c461014a366004611274565b610270565b6100fa61015d366004611195565b6102b6565b5f6100c4565b61017b61017636600461114c565b6102c7565b6040516100ce91906112c5565b6100fa6101963660046112d7565b6102dc565b61017b6101a936600461114c565b6102f9565b5f5f6101bb856001610270565b9050806101c88185610306565b8686815181106101da576101da611349565b60200260200101516101ec9190611371565b6101f69190611384565b95945050505050565b5f6060610210878787878730610326565b915091509550959350505050565b60405162461bcd60e51b815260206004820152600f60248201526e139bdd081a5b5c1b195b595b9d1959608a1b60448201525f906064015b60405180910390fd5b5f60606102108787878787306104b3565b5f80805b84518110156102ac5784818151811061028f5761028f611349565b6020026020010151826102a29190611371565b9150600101610274565b5090505b92915050565b5f606061021087878787873061064a565b60606102d48484846109c7565b949350505050565b5f60606102ec8686868630610a74565b9150915094509492505050565b60606102d4848484610e28565b5f806103128385611397565b90506102d4670de0b6b3a7640000826113ae565b5f6060816103348787611384565b90505f6103418288610ecf565b905061034d8582610eea565b60405162b5059f60e51b81525f906001600160a01b038716906316a0b3e09061037e908e908e9087906004016113cd565b602060405180830381865afa158015610399573d5f5f3e3d5ffd5b505050506040513d601f19601f820116820180604052508101906103bd91906113f1565b90505f818c8c815181106103d3576103d3611349565b60200260200101516103e59190611384565b90505f6104168d8d815181106103fd576103fd611349565b60200260200101518b87610f7d9092919063ffffffff16565b90505f6104238483611384565b90505f610430828c610fc2565b90508e516001600160401b0381111561044b5761044b61109c565b604051908082528060200260200182016040528015610474578160200160208202803683370190505b50975080888f8151811061048a5761048a611349565b602090810291909101015261049f8185611384565b985050505050505050965096945050505050565b5f6060816104c18688611371565b90505f6104ce8288610ecf565b90506104da8582610fee565b60405162b5059f60e51b81525f906001600160a01b038716906316a0b3e09061050b908e908e9087906004016113cd565b602060405180830381865afa158015610526573d5f5f3e3d5ffd5b505050506040513d601f19601f8201168201806040525081019061054a91906113f1565b90505f8b8b8151811061055f5761055f611349565b6020026020010151826105729190611384565b90505f898d8d8151811061058857610588611349565b60200260200101518661059b9190611397565b6105a591906113ae565b90505f6105b28285611384565b90505f816105d1670de0b6b3a76400008d8103908e10025b8490610ecf565b6105db9190611384565b90508e516001600160401b038111156105f6576105f661109c565b60405190808252806020026020018201604052801561061f578160200160208202803683370190505b50975080888f8151811061063557610635611349565b602090810291909101015261049f8185611371565b85515f9060609082816001600160401b0381111561066a5761066a61109c565b604051908082528060200260200182016040528015610693578160200160208202803683370190505b5090505f5b828110156106eb5760018b82815181106106b4576106b4611349565b60200260200101516106c69190611384565b8282815181106106d8576106d8611349565b6020908102919091010152600101610698565b5087818a815181106106ff576106ff611349565b60200260200101516107119190611384565b818a8151811061072357610723611349565b6020908102919091010152604051631309bd3d60e31b81525f906001600160a01b0387169063984de9e89061075e908e908590600401611408565b602060405180830381865afa158015610779573d5f5f3e3d5ffd5b505050506040513d601f19601f8201168201806040525081019061079d91906113f1565b90505f61081782886001600160a01b031663984de9e8865f6040518363ffffffff1660e01b81526004016107d2929190611408565b602060405180830381865afa1580156107ed573d5f5f3e3d5ffd5b505050506040513d601f19601f8201168201806040525081019061081191906113f1565b90610ecf565b90506108238782610eea565b5f838c8151811061083657610836611349565b602002602001015161086a8e8e8151811061085357610853611349565b602002602001015184610fc290919063ffffffff16565b6108749190611384565b90505f81610890670de0b6b3a76400008c8103908d10026105ca565b61089a9190611384565b905080858e815181106108af576108af611349565b60200260200101516108c19190611384565b858e815181106108d3576108d3611349565b6020908102919091010152604051631309bd3d60e31b81525f906001600160a01b038b169063984de9e89061090f908990600190600401611408565b602060405180830381865afa15801561092a573d5f5f3e3d5ffd5b505050506040513d601f19601f8201168201806040525081019061094e91906113f1565b9050866001600160401b038111156109685761096861109c565b604051908082528060200260200182016040528015610991578160200160208202803683370190505b50975081888f815181106109a7576109a7611349565b602090810291909101015261049f6109bf8287611384565b8d9087610f7d565b606083516001600160401b038111156109e2576109e261109c565b604051908082528060200260200182016040528015610a0b578160200160208202803683370190505b5090505f5b8451811015610a6c57610a478385878481518110610a3057610a30611349565b6020026020010151610f7d9092919063ffffffff16565b828281518110610a5957610a59611349565b6020908102919091010152600101610a10565b509392505050565b84515f9060609082816001600160401b03811115610a9457610a9461109c565b604051908082528060200260200182016040528015610abd578160200160208202803683370190505b509050816001600160401b03811115610ad857610ad861109c565b604051908082528060200260200182016040528015610b01578160200160208202803683370190505b5092505f5b82811015610b7d576001898281518110610b2257610b22611349565b60200260200101518b8381518110610b3c57610b3c611349565b6020026020010151610b4e9190611371565b610b589190611384565b828281518110610b6a57610b6a611349565b6020908102919091010152600101610b06565b50604051631309bd3d60e31b81525f906001600160a01b0387169063984de9e890610bae908d908590600401611408565b602060405180830381865afa158015610bc9573d5f5f3e3d5ffd5b505050506040513d601f19601f82011682018060405250810190610bed91906113f1565b90505f610c6882886001600160a01b031663984de9e88660016040518363ffffffff1660e01b8152600401610c23929190611408565b602060405180830381865afa158015610c3e573d5f5f3e3d5ffd5b505050506040513d601f19601f82011682018060405250810190610c6291906113f1565b9061107c565b9050610c748782610fee565b5f5b84811015610d85575f610cab8d8381518110610c9457610c94611349565b60200260200101518461030690919063ffffffff16565b905080858381518110610cc057610cc0611349565b60200260200101511115610d7c575f81868481518110610ce257610ce2611349565b6020026020010151039050610d008b82610fc290919063ffffffff16565b888481518110610d1257610d12611349565b602002602001018181525050878381518110610d3057610d30611349565b6020026020010151868481518110610d4a57610d4a611349565b6020026020010151610d5c9190611384565b868481518110610d6e57610d6e611349565b602002602001018181525050505b50600101610c76565b50604051631309bd3d60e31b81525f906001600160a01b0389169063984de9e890610db7908790600190600401611408565b602060405180830381865afa158015610dd2573d5f5f3e3d5ffd5b505050506040513d601f19601f82011682018060405250810190610df691906113f1565b905082610e038183611384565b610e0d908c611397565b610e1791906113ae565b965050505050509550959350505050565b606083516001600160401b03811115610e4357610e4361109c565b604051908082528060200260200182016040528015610e6c578160200160208202803683370190505b5090505f5b8451811015610a6c578383868381518110610e8e57610e8e611349565b6020026020010151610ea09190611397565b610eaa91906113ae565b828281518110610ebc57610ebc611349565b6020908102919091010152600101610e71565b5f610ee383670de0b6b3a764000084610f7d565b9392505050565b5f826001600160a01b031663b677fa566040518163ffffffff1660e01b8152600401602060405180830381865afa158015610f27573d5f5f3e3d5ffd5b505050506040513d601f19601f82011682018060405250810190610f4b91906113f1565b905080821015610f785760405163718e4adf60e11b81526004810183905260248101829052604401610256565b505050565b5f815f03610f9e57604051630a0c22c760e01b815260040160405180910390fd5b5f610fa98486611397565b9050600183600183030401811515029150509392505050565b5f80610fce8385611397565b90506001670de0b6b3a76400006001830304018115150291505092915050565b5f826001600160a01b031663273c1adf6040518163ffffffff1660e01b8152600401602060405180830381865afa15801561102b573d5f5f3e3d5ffd5b505050506040513d601f19601f8201168201806040525081019061104f91906113f1565b905080821115610f7857604051630fa2583760e21b81526004810183905260248101829052604401610256565b5f80611090670de0b6b3a764000085611397565b90506102d483826113ae565b634e487b7160e01b5f52604160045260245ffd5b5f82601f8301126110bf575f5ffd5b81356001600160401b038111156110d8576110d861109c565b604051600582901b90603f8201601f191681016001600160401b03811182821017156111065761110661109c565b604052918252602081850181019290810186841115611123575f5ffd5b6020860192505b8383101561114257823581526020928301920161112a565b5095945050505050565b5f5f5f6060848603121561115e575f5ffd5b83356001600160401b03811115611173575f5ffd5b61117f868287016110b0565b9660208601359650604090950135949350505050565b5f5f5f5f5f60a086880312156111a9575f5ffd5b85356001600160401b038111156111be575f5ffd5b6111ca888289016110b0565b9860208801359850604088013597606081013597506080013595509350505050565b5f8151808452602084019350602083015f5b8281101561121c5781518652602095860195909101906001016111fe565b5093949350505050565b828152604060208201525f6102d460408301846111ec565b5f6020828403121561124e575f5ffd5b81356001600160401b03811115611263575f5ffd5b820160e08185031215610ee3575f5ffd5b5f5f60408385031215611285575f5ffd5b82356001600160401b0381111561129a575f5ffd5b6112a6858286016110b0565b9250506020830135600281106112ba575f5ffd5b809150509250929050565b602081525f610ee360208301846111ec565b5f5f5f5f608085870312156112ea575f5ffd5b84356001600160401b038111156112ff575f5ffd5b61130b878288016110b0565b94505060208501356001600160401b03811115611326575f5ffd5b611332878288016110b0565b949794965050505060408301359260600135919050565b634e487b7160e01b5f52603260045260245ffd5b634e487b7160e01b5f52601160045260245ffd5b808201808211156102b0576102b061135d565b818103818111156102b0576102b061135d565b80820281158282048414176102b0576102b061135d565b5f826113c857634e487b7160e01b5f52601260045260245ffd5b500490565b606081525f6113df60608301866111ec565b60208301949094525060400152919050565b5f60208284031215611401575f5ffd5b5051919050565b604081525f61141a60408301856111ec565b90506002831061143857634e487b7160e01b5f52602160045260245ffd5b826020830152939250505056fea26469706673582212202c1b484db10004c4406c45b1eb32adb4bf6d58ebdf2f6398fc93c4c4d179c27664736f6c634300081e0033","linkReferences":{}},"methodIdentifiers":{"computeAddLiquiditySingleTokenExactOut(uint256[],uint256,uint256,uint256,uint256)":"85d5261a","computeAddLiquidityUnbalanced(uint256[],uint256[],uint256,uint256)":"d9c7cc7a","computeBalance(uint256[],uint256,uint256)":"16a0b3e0","computeInvariant(uint256[],uint8)":"984de9e8","computeProportionalAmountsIn(uint256[],uint256,uint256)":"c548e4d8","computeProportionalAmountsOut(uint256[],uint256,uint256)":"da317980","computeRemoveLiquiditySingleTokenExactIn(uint256[],uint256,uint256,uint256,uint256)":"3ab05915","computeRemoveLiquiditySingleTokenExactOut(uint256[],uint256,uint256,uint256,uint256)":"9a87ffbf","getMaximumInvariantRatio()":"273c1adf","getMaximumSwapFeePercentage()":"654cf15d","getMinimumInvariantRatio()":"b677fa56","getMinimumSwapFeePercentage()":"ce20ece7","onSwap((uint8,uint256,uint256[],uint256,uint256,address,bytes))":"72c98186"},"id":376}