{"abi":[{"type":"function","name":"getActionId","inputs":[{"name":"selector","type":"bytes4","internalType":"bytes4"}],"outputs":[{"name":"","type":"bytes32","internalType":"bytes32"}],"stateMutability":"view"},{"type":"error","name":"SenderNotAllowed","inputs":[]}],"bytecode":{"object":"0x6080604052348015600e575f5ffd5b506101228061001c5f395ff3fe6080604052348015600e575f5ffd5b50600436106026575f3560e01c8063851c1bb314602a575b5f5ffd5b6039603536600460c7565b604b565b60405190815260200160405180910390f35b5f6053826059565b92915050565b5f60537f82340927aad1ca6b5f8bb0037567f287e1bec629ab302d4e1debbc0d7543b1f8835f60c06088845490565b6040805160208101929092526001600160e01b0319851690820152604401604051602081830303815290604052805160209091012090565b9392505050565b5f6020828403121560d6575f5ffd5b81356001600160e01b03198116811460c0575f5ffdfea2646970667358221220523637f47227b794c6ab78da9d0bbfd0d20bda5c90ed6150dea307ae2257f01364736f6c634300081e0033","linkReferences":{}},"methodIdentifiers":{"getActionId(bytes4)":"851c1bb3"},"id":971}