{"abi":[{"type":"function","name":"add","inputs":[{"name":"member","type":"address","internalType":"address"}],"outputs":[{"name":"","type":"bool","internalType":"bool"}],"stateMutability":"nonpayable"},{"type":"function","name":"at","inputs":[{"name":"index","type":"uint256","internalType":"uint256"}],"outputs":[{"name":"member","type":"address","internalType":"address"}],"stateMutability":"view"},{"type":"function","name":"contains","inputs":[{"name":"key","type":"address","internalType":"address"}],"outputs":[{"name":"","type":"bool","internalType":"bool"}],"stateMutability":"view"},{"type":"function","name":"indexOf","inputs":[{"name":"member","type":"address","internalType":"address"}],"outputs":[{"name":"","type":"uint256","internalType":"uint256"}],"stateMutability":"view"},{"type":"function","name":"length","inputs":[],"outputs":[{"name":"","type":"uint256","internalType":"uint256"}],"stateMutability":"view"},{"type":"function","name":"remove","inputs":[{"name":"member","type":"address","internalType":"address"}],"outputs":[{"name":"","type":"bool","internalType":"bool"}],"stateMutability":"nonpayable"},{"type":"function","name":"unchecked_indexOf","inputs":[{"name":"member","type":"address","internalType":"address"}],"outputs":[{"name":"","type":"uint256","internalType":"uint256"}],"stateMutability":"view"},{"type":"error","name":"ElementNotFound","inputs":[]},{"type":"error","name":"IndexOutOfBounds","inputs":[]}],"bytecode":{"object":"0x6080604052348015600e575f5ffd5b506104758061001c5f395ff3fe608060405234801561000f575f5ffd5b506004361061006b575f3560e01c80630127190b1461006f5780630a3b0a4f146100955780631f7b6d32146100b857806329092d0e146100bf5780635dbe47e8146100d2578063e0886f90146100e5578063fd6aad2514610110575b5f5ffd5b61008261007d3660046103da565b610123565b6040519081526020015b60405180910390f35b6100a86100a33660046103da565b610134565b604051901515815260200161008c565b5f54610082565b6100a86100cd3660046103da565b61013f565b6100a86100e03660046103da565b61014a565b6100f86100f3366004610400565b610155565b6040516001600160a01b03909116815260200161008c565b61008261011e3660046103da565b610160565b5f61012e818361016b565b92915050565b5f61012e818361019e565b5f61012e81836101fe565b5f61012e8183610312565b5f61012e8183610332565b5f61012e8183610366565b6001600160a01b0381165f90815260018301602052604081205480156101945760018103610196565b5f5b949350505050565b5f6101a98383610312565b6101f757508154600180820184555f848152602080822090930180546001600160a01b0319166001600160a01b0386169081179091558554908252828601909352604090209190915561012e565b505f61012e565b6001600160a01b0381165f90815260018301602052604081205480156103095783545f1980830191018082146102ad575f865f01828154811061024357610243610417565b5f9182526020909120015487546001600160a01b039091169150819088908590811061027157610271610417565b5f91825260208083209190910180546001600160a01b0319166001600160a01b0394851617905592909116815260018801909152604090208390555b85548690806102be576102be61042b565b5f828152602080822083015f1990810180546001600160a01b03191690559092019092556001600160a01b038716825260018881019091526040822091909155935061012e92505050565b5f91505061012e565b6001600160a01b03165f9081526001919091016020526040902054151590565b81545f90821061035557604051634e23d03560e01b815260040160405180910390fd5b61035f83836103aa565b9392505050565b6001600160a01b0381165f9081526001830160205260408120548082036103a057604051633357a9c960e11b815260040160405180910390fd5b5f19019392505050565b5f825f0182815481106103bf576103bf610417565b5f918252602090912001546001600160a01b03169392505050565b5f602082840312156103ea575f5ffd5b81356001600160a01b038116811461035f575f5ffd5b5f60208284031215610410575f5ffd5b5035919050565b634e487b7160e01b5f52603260045260245ffd5b634e487b7160e01b5f52603160045260245ffdfea2646970667358221220042fcc061948e8edc98583f74748fcdd8a2d6f4f45e7e4068ee2e67a19242ed364736f6c634300081e0033","linkReferences":{}},"methodIdentifiers":{"add(address)":"0a3b0a4f","at(uint256)":"e0886f90","contains(address)":"5dbe47e8","indexOf(address)":"fd6aad25","length()":"1f7b6d32","remove(address)":"29092d0e","unchecked_indexOf(address)":"0127190b"},"id":277}