{"abi":[{"type":"function","name":"approve","inputs":[{"name":"","type":"address","internalType":"address"},{"name":"","type":"uint256","internalType":"uint256"}],"outputs":[{"name":"","type":"bool","internalType":"bool"}],"stateMutability":"nonpayable"},{"type":"function","name":"balanceOf","inputs":[{"name":"","type":"address","internalType":"address"}],"outputs":[{"name":"","type":"uint256","internalType":"uint256"}],"stateMutability":"pure"},{"type":"function","name":"deposit","inputs":[],"outputs":[],"stateMutability":"payable"},{"type":"function","name":"transfer","inputs":[{"name":"","type":"address","internalType":"address"},{"name":"","type":"uint256","internalType":"uint256"}],"outputs":[{"name":"","type":"bool","internalType":"bool"}],"stateMutability":"nonpayable"},{"type":"function","name":"transferFrom","inputs":[{"name":"","type":"address","internalType":"address"},{"name":"","type":"address","internalType":"address"},{"name":"","type":"uint256","internalType":"uint256"}],"outputs":[{"name":"","type":"bool","internalType":"bool"}],"stateMutability":"nonpayable"},{"type":"function","name":"withdraw","inputs":[{"name":"","type":"uint256","internalType":"uint256"}],"outputs":[],"stateMutability":"nonpayable"}],"bytecode":{"object":"0x6080604052348015600e575f5ffd5b506101e88061001c5f395ff3fe608060405260043610610054575f3560e01c8063095ea7b31461005857806323b872dd1461008f5780632e1a7d4d146100b257806370a08231146100d1578063a9059cbb14610058578063d0e30db0146100cf575b5f5ffd5b348015610063575f5ffd5b5061007a610072366004610119565b600192915050565b60405190151581526020015b60405180910390f35b34801561009a575f5ffd5b5061007a6100a9366004610141565b60019392505050565b3480156100bd575f5ffd5b506100cf6100cc36600461017b565b50565b005b3480156100dc575f5ffd5b506100f06100eb366004610192565b505f90565b604051908152602001610086565b80356001600160a01b0381168114610114575f5ffd5b919050565b5f5f6040838503121561012a575f5ffd5b610133836100fe565b946020939093013593505050565b5f5f5f60608486031215610153575f5ffd5b61015c846100fe565b925061016a602085016100fe565b929592945050506040919091013590565b5f6020828403121561018b575f5ffd5b5035919050565b5f602082840312156101a2575f5ffd5b6101ab826100fe565b939250505056fea26469706673582212200bae42fba23790b3820f6ac37821f605bbfa90b2dd62c38b140235d69e603f1464736f6c634300081e0033","linkReferences":{}},"methodIdentifiers":{"approve(address,uint256)":"095ea7b3","balanceOf(address)":"70a08231","deposit()":"d0e30db0","transfer(address,uint256)":"a9059cbb","transferFrom(address,address,uint256)":"23b872dd","withdraw(uint256)":"2e1a7d4d"},"id":234}