{"abi":[{"type":"constructor","inputs":[{"name":"vault","type":"address","internalType":"contract IVault"},{"name":"pauseWindowDuration","type":"uint32","internalType":"uint32"}],"stateMutability":"nonpayable"},{"type":"function","name":"createPool","inputs":[{"name":"name","type":"string","internalType":"string"},{"name":"symbol","type":"string","internalType":"string"}],"outputs":[{"name":"","type":"address","internalType":"address"}],"stateMutability":"nonpayable"},{"type":"function","name":"disable","inputs":[],"outputs":[],"stateMutability":"nonpayable"},{"type":"function","name":"getActionId","inputs":[{"name":"selector","type":"bytes4","internalType":"bytes4"}],"outputs":[{"name":"","type":"bytes32","internalType":"bytes32"}],"stateMutability":"view"},{"type":"function","name":"getAuthorizer","inputs":[],"outputs":[{"name":"","type":"address","internalType":"contract IAuthorizer"}],"stateMutability":"view"},{"type":"function","name":"getDeploymentAddress","inputs":[{"name":"constructorArgs","type":"bytes","internalType":"bytes"},{"name":"salt","type":"bytes32","internalType":"bytes32"}],"outputs":[{"name":"deployAddress","type":"address","internalType":"address"}],"stateMutability":"view"},{"type":"function","name":"getNewPoolPauseWindowEndTime","inputs":[],"outputs":[{"name":"","type":"uint32","internalType":"uint32"}],"stateMutability":"view"},{"type":"function","name":"getOriginalPauseWindowEndTime","inputs":[],"outputs":[{"name":"","type":"uint32","internalType":"uint32"}],"stateMutability":"view"},{"type":"function","name":"getPauseWindowDuration","inputs":[],"outputs":[{"name":"","type":"uint32","internalType":"uint32"}],"stateMutability":"view"},{"type":"function","name":"getPoolCount","inputs":[],"outputs":[{"name":"","type":"uint256","internalType":"uint256"}],"stateMutability":"pure"},{"type":"function","name":"getPools","inputs":[],"outputs":[{"name":"","type":"address[]","internalType":"address[]"}],"stateMutability":"pure"},{"type":"function","name":"getPoolsInRange","inputs":[{"name":"","type":"uint256","internalType":"uint256"},{"name":"","type":"uint256","internalType":"uint256"}],"outputs":[{"name":"","type":"address[]","internalType":"address[]"}],"stateMutability":"pure"},{"type":"function","name":"getVault","inputs":[],"outputs":[{"name":"","type":"address","internalType":"contract IVault"}],"stateMutability":"view"},{"type":"function","name":"isDisabled","inputs":[],"outputs":[{"name":"","type":"bool","internalType":"bool"}],"stateMutability":"view"},{"type":"function","name":"isPoolFromFactory","inputs":[{"name":"pool","type":"address","internalType":"address"}],"outputs":[{"name":"","type":"bool","internalType":"bool"}],"stateMutability":"view"},{"type":"function","name":"manualSetPoolFromFactory","inputs":[{"name":"pool","type":"address","internalType":"address"}],"outputs":[],"stateMutability":"nonpayable"},{"type":"function","name":"registerGeneralTestPool","inputs":[{"name":"pool","type":"address","internalType":"address"},{"name":"tokenConfig","type":"tuple[]","internalType":"struct TokenConfig[]","components":[{"name":"token","type":"address","internalType":"contract IERC20"},{"name":"tokenType","type":"uint8","internalType":"enum TokenType"},{"name":"rateProvider","type":"address","internalType":"contract IRateProvider"},{"name":"paysYieldFees","type":"bool","internalType":"bool"}]},{"name":"swapFee","type":"uint256","internalType":"uint256"},{"name":"pauseWindowDuration","type":"uint32","internalType":"uint32"},{"name":"protocolFeeExempt","type":"bool","internalType":"bool"},{"name":"roleAccounts","type":"tuple","internalType":"struct PoolRoleAccounts","components":[{"name":"pauseManager","type":"address","internalType":"address"},{"name":"swapFeeManager","type":"address","internalType":"address"},{"name":"poolCreator","type":"address","internalType":"address"}]},{"name":"poolHooksContract","type":"address","internalType":"address"}],"outputs":[],"stateMutability":"nonpayable"},{"type":"function","name":"registerPool","inputs":[{"name":"pool","type":"address","internalType":"address"},{"name":"tokenConfig","type":"tuple[]","internalType":"struct TokenConfig[]","components":[{"name":"token","type":"address","internalType":"contract IERC20"},{"name":"tokenType","type":"uint8","internalType":"enum TokenType"},{"name":"rateProvider","type":"address","internalType":"contract IRateProvider"},{"name":"paysYieldFees","type":"bool","internalType":"bool"}]},{"name":"roleAccounts","type":"tuple","internalType":"struct PoolRoleAccounts","components":[{"name":"pauseManager","type":"address","internalType":"address"},{"name":"swapFeeManager","type":"address","internalType":"address"},{"name":"poolCreator","type":"address","internalType":"address"}]},{"name":"poolHooksContract","type":"address","internalType":"address"},{"name":"liquidityManagement","type":"tuple","internalType":"struct LiquidityManagement","components":[{"name":"disableUnbalancedLiquidity","type":"bool","internalType":"bool"},{"name":"enableAddLiquidityCustom","type":"bool","internalType":"bool"},{"name":"enableRemoveLiquidityCustom","type":"bool","internalType":"bool"},{"name":"enableDonation","type":"bool","internalType":"bool"}]}],"outputs":[],"stateMutability":"nonpayable"},{"type":"function","name":"registerPoolAtTimestamp","inputs":[{"name":"pool","type":"address","internalType":"address"},{"name":"tokenConfig","type":"tuple[]","internalType":"struct TokenConfig[]","components":[{"name":"token","type":"address","internalType":"contract IERC20"},{"name":"tokenType","type":"uint8","internalType":"enum TokenType"},{"name":"rateProvider","type":"address","internalType":"contract IRateProvider"},{"name":"paysYieldFees","type":"bool","internalType":"bool"}]},{"name":"timestamp","type":"uint32","internalType":"uint32"},{"name":"roleAccounts","type":"tuple","internalType":"struct PoolRoleAccounts","components":[{"name":"pauseManager","type":"address","internalType":"address"},{"name":"swapFeeManager","type":"address","internalType":"address"},{"name":"poolCreator","type":"address","internalType":"address"}]},{"name":"poolHooksContract","type":"address","internalType":"address"},{"name":"liquidityManagement","type":"tuple","internalType":"struct LiquidityManagement","components":[{"name":"disableUnbalancedLiquidity","type":"bool","internalType":"bool"},{"name":"enableAddLiquidityCustom","type":"bool","internalType":"bool"},{"name":"enableRemoveLiquidityCustom","type":"bool","internalType":"bool"},{"name":"enableDonation","type":"bool","internalType":"bool"}]}],"outputs":[],"stateMutability":"nonpayable"},{"type":"function","name":"registerPoolWithHook","inputs":[{"name":"pool","type":"address","internalType":"address"},{"name":"tokenConfig","type":"tuple[]","internalType":"struct TokenConfig[]","components":[{"name":"token","type":"address","internalType":"contract IERC20"},{"name":"tokenType","type":"uint8","internalType":"enum TokenType"},{"name":"rateProvider","type":"address","internalType":"contract IRateProvider"},{"name":"paysYieldFees","type":"bool","internalType":"bool"}]},{"name":"poolHooksContract","type":"address","internalType":"address"}],"outputs":[],"stateMutability":"nonpayable"},{"type":"function","name":"registerPoolWithSwapFee","inputs":[{"name":"pool","type":"address","internalType":"address"},{"name":"tokenConfig","type":"tuple[]","internalType":"struct TokenConfig[]","components":[{"name":"token","type":"address","internalType":"contract IERC20"},{"name":"tokenType","type":"uint8","internalType":"enum TokenType"},{"name":"rateProvider","type":"address","internalType":"contract IRateProvider"},{"name":"paysYieldFees","type":"bool","internalType":"bool"}]},{"name":"swapFeePercentage","type":"uint256","internalType":"uint256"},{"name":"poolHooksContract","type":"address","internalType":"address"},{"name":"liquidityManagement","type":"tuple","internalType":"struct LiquidityManagement","components":[{"name":"disableUnbalancedLiquidity","type":"bool","internalType":"bool"},{"name":"enableAddLiquidityCustom","type":"bool","internalType":"bool"},{"name":"enableRemoveLiquidityCustom","type":"bool","internalType":"bool"},{"name":"enableDonation","type":"bool","internalType":"bool"}]}],"outputs":[],"stateMutability":"nonpayable"},{"type":"function","name":"registerTestPool","inputs":[{"name":"pool","type":"address","internalType":"address"},{"name":"tokenConfig","type":"tuple[]","internalType":"struct TokenConfig[]","components":[{"name":"token","type":"address","internalType":"contract IERC20"},{"name":"tokenType","type":"uint8","internalType":"enum TokenType"},{"name":"rateProvider","type":"address","internalType":"contract IRateProvider"},{"name":"paysYieldFees","type":"bool","internalType":"bool"}]}],"outputs":[],"stateMutability":"nonpayable"},{"type":"function","name":"registerTestPool","inputs":[{"name":"pool","type":"address","internalType":"address"},{"name":"tokenConfig","type":"tuple[]","internalType":"struct TokenConfig[]","components":[{"name":"token","type":"address","internalType":"contract IERC20"},{"name":"tokenType","type":"uint8","internalType":"enum TokenType"},{"name":"rateProvider","type":"address","internalType":"contract IRateProvider"},{"name":"paysYieldFees","type":"bool","internalType":"bool"}]},{"name":"poolHooksContract","type":"address","internalType":"address"},{"name":"poolCreator","type":"address","internalType":"address"}],"outputs":[],"stateMutability":"nonpayable"},{"type":"event","name":"FactoryDisabled","inputs":[],"anonymous":false},{"type":"event","name":"PoolCreated","inputs":[{"name":"pool","type":"address","indexed":true,"internalType":"address"}],"anonymous":false},{"type":"error","name":"Disabled","inputs":[]},{"type":"error","name":"IndexOutOfBounds","inputs":[]},{"type":"error","name":"PoolPauseWindowDurationOverflow","inputs":[]},{"type":"error","name":"SenderNotAllowed","inputs":[]},{"type":"error","name":"VaultNotSet","inputs":[]}],"bytecode":{"object":"0x610120604052348015610010575f5ffd5b50604051613a3a380380613a3a83398101604081905261002f916100ca565b3060808190528190839081906001600160a01b03821661006257604051630647140b60e51b815260040160405180910390fd5b506001600160a01b031660a052505f61008163ffffffff831642610115565b905063ffffffff8111156100a8576040516368755a1160e01b815260040160405180910390fd5b63ffffffff91821660c0521660e052506001600160a01b03166101005261013a565b5f5f604083850312156100db575f5ffd5b82516001600160a01b03811681146100f1575f5ffd5b602084015190925063ffffffff8116811461010a575f5ffd5b809150509250929050565b8082018082111561013457634e487b7160e01b5f52601160045260245ffd5b92915050565b60805160a05160c05160e0516101005161387d6101bd5f395f818161033a015281816103bc01528181610535015281816105a4015281816106460152818161079c01528181610898015261095901525f81816102bb015281816108fa015261092d01525f61020a01525f81816107420152610ae401525f6106df015261387d5ff3fe608060405234801561000f575f5ffd5b5060043610610110575f3560e01c80630e0677ab14610114578063206db1ef146101295780632f2770db1461013c57806344f6fec71461014457806353a72f7e146101745780635ea81a32146101945780636634b753146101a7578063673a2a1f146101e2578063675d6050146101ea5780636c57f5a9146101fd57806378da80cb146102085780637a0b2e8d1461023f578063851c1bb3146102525780638d928af8146102735780638eec5d701461027b578063a7a4b71114610283578063aaabadc514610296578063d396a6661461029e578063db035ebc146102b1578063e9d56e19146102b9578063ed05beaf146102df578063ed38c8ec146102f2575b5f5ffd5b610127610122366004610e38565b610323565b005b610127610137366004610ec8565b6103b2565b610127610455565b610157610152366004610f7f565b61049b565b6040516001600160a01b0390911681526020015b60405180910390f35b610187610182366004610fd3565b61050e565b60405161016b9190610ff3565b6101576101a236600461105c565b610531565b6101d26101b53660046110bf565b6001600160a01b03165f9081526020819052604090205460ff1690565b604051901515815260200161016b565b61018761050e565b6101276101f83660046110da565b61059a565b60015460ff166101d2565b7f00000000000000000000000000000000000000000000000000000000000000005b60405163ffffffff909116815260200161016b565b61012761024d36600461111c565b61063c565b6102656102603660046111ba565b6106dc565b60405190815260200161016b565b610157610740565b610265610769565b6101276102913660046111e1565b610782565b61015761082e565b6101276102ac366004611251565b610896565b61022a6108f7565b7f000000000000000000000000000000000000000000000000000000000000000061022a565b6101276102ed3660046112d2565b61094f565b6101276103003660046110bf565b6001600160a01b03165f908152602081905260409020805460ff19166001179055565b60405163eeec802f60e01b81526001600160a01b037f0000000000000000000000000000000000000000000000000000000000000000169063eeec802f9061037d90899089905f908a9082908b908b908b906004016113f8565b5f604051808303815f87803b158015610394575f5ffd5b505af11580156103a6573d5f5f3e3d5ffd5b50505050505050505050565b6103ba610bd9565b7f00000000000000000000000000000000000000000000000000000000000000006001600160a01b031663eeec802f85855f6103f46108f7565b5f87896103ff6109b8565b6040518963ffffffff1660e01b81526004016104229897969594939291906114b9565b5f604051808303815f87803b158015610439575f5ffd5b505af115801561044b573d5f5f3e3d5ffd5b5050505050505050565b61045d6109db565b610465610a1c565b6001805460ff1916811790556040517f432acbfd662dbb5d8b378384a67159b47ca9d0f1b79f97cf64cf8585fa362d50905f90a1565b5f5f604051806020016104ad90610bf8565b601f1982820381018352601f9091011660408190526104d19190869060200161156c565b60408051601f19818403018152919052805160208201209091505f6104f585610a42565b9050610502818330610a65565b93505050505b92915050565b606060405162461bcd60e51b815260040161052890611588565b60405180910390fd5b5f5f7f0000000000000000000000000000000000000000000000000000000000000000848460405161056290610bf8565b61056e939291906115df565b604051809103905ff080158015610587573d5f5f3e3d5ffd5b50905061059381610a8e565b9392505050565b6105a2610bd9565b7f00000000000000000000000000000000000000000000000000000000000000006001600160a01b031663eeec802f84845f6105dc6108f7565b5f875f6105e76109b8565b6040518963ffffffff1660e01b815260040161060a9897969594939291906114b9565b5f604051808303815f87803b158015610621575f5ffd5b505af1158015610633573d5f5f3e3d5ffd5b50505050505050565b6001600160a01b037f00000000000000000000000000000000000000000000000000000000000000001663eeec802f888888610678894261161e565b8888886106836109b8565b6040518963ffffffff1660e01b81526004016106a69897969594939291906114b9565b5f604051808303815f87803b1580156106bd575f5ffd5b505af11580156106cf573d5f5f3e3d5ffd5b5050505050505050505050565b5f7f0000000000000000000000000000000000000000000000000000000000000000826040516020016107239291909182526001600160e01b031916602082015260240190565b604051602081830303815290604052805190602001209050919050565b7f000000000000000000000000000000000000000000000000000000000000000090565b905090565b5f60405162461bcd60e51b815260040161052890611588565b61078a610bd9565b6001600160a01b0380831660408301527f00000000000000000000000000000000000000000000000000000000000000001663eeec802f86865f6107cc6108f7565b5f878a6107d76109b8565b6040518963ffffffff1660e01b81526004016107fa9897969594939291906114b9565b5f604051808303815f87803b158015610811575f5ffd5b505af1158015610823573d5f5f3e3d5ffd5b505050505050505050565b5f610837610740565b6001600160a01b031663aaabadc56040518163ffffffff1660e01b8152600401602060405180830381865afa158015610872573d5f5f3e3d5ffd5b505050506040513d601f19601f820116820180604052508101906107649190611646565b7f00000000000000000000000000000000000000000000000000000000000000006001600160a01b031663eeec802f86865f6108d06108f7565b5f8989896040518963ffffffff1660e01b81526004016107fa9897969594939291906113f8565b5f7f000000000000000000000000000000000000000000000000000000000000000063ffffffff16421061092a57505f90565b507f000000000000000000000000000000000000000000000000000000000000000090565b610957610bd9565b7f00000000000000000000000000000000000000000000000000000000000000006001600160a01b031663eeec802f8787876109916108f7565b5f878a8a6040518963ffffffff1660e01b815260040161037d9897969594939291906113f8565b6109c0610c05565b6109c8610c05565b6001602082018190526040820152919050565b5f6109f05f356001600160e01b0319166106dc565b90506109fc8133610ae1565b610a19576040516323dada5360e01b815260040160405180910390fd5b50565b60015460ff1615610a4057604051633ac4266d60e11b815260040160405180910390fd5b565b604080513360208201524691810191909152606081018290525f90608001610723565b5f604051836040820152846020820152828152600b8101905060ff815360559020949350505050565b610a96610a1c565b6001600160a01b0381165f81815260208190526040808220805460ff19166001179055517f83a48fbcfc991335314e74d0496aab6a1987e992ddc85dddbcc4d6dd6ef2e9fc9190a250565b5f7f00000000000000000000000000000000000000000000000000000000000000006001600160a01b031663aaabadc56040518163ffffffff1660e01b8152600401602060405180830381865afa158015610b3e573d5f5f3e3d5ffd5b505050506040513d601f19601f82011682018060405250810190610b629190611646565b6040516326f8aa2160e21b8152600481018590526001600160a01b0384811660248301523060448301529190911690639be2a88490606401602060405180830381865afa158015610bb5573d5f5f3e3d5ffd5b505050506040513d601f19601f820116820180604052508101906105939190611661565b604080516060810182525f808252602082018190529181019190915290565b6121cb8061167d83390190565b604080516080810182525f80825260208201819052918101829052606081019190915290565b6001600160a01b0381168114610a19575f5ffd5b634e487b7160e01b5f52604160045260245ffd5b604051608081016001600160401b0381118282101715610c7557610c75610c3f565b60405290565b604051601f8201601f191681016001600160401b0381118282101715610ca357610ca3610c3f565b604052919050565b8015158114610a19575f5ffd5b5f82601f830112610cc7575f5ffd5b81356001600160401b03811115610ce057610ce0610c3f565b610cef60208260051b01610c7b565b8082825260208201915060208360071b860101925085831115610d10575f5ffd5b602085015b83811015610d8d5760808188031215610d2c575f5ffd5b610d34610c53565b8135610d3f81610c2b565b8152602082013560028110610d52575f5ffd5b60208201526040820135610d6581610c2b565b60408201526060820135610d7881610cab565b60608201528352602090920191608001610d15565b5095945050505050565b803563ffffffff81168114610daa575f5ffd5b919050565b5f60608284031215610dbf575f5ffd5b604051606081016001600160401b0381118282101715610de157610de1610c3f565b6040529050808235610df281610c2b565b81526020830135610e0281610c2b565b60208201526040830135610e1581610c2b565b6040919091015292915050565b5f60808284031215610e32575f5ffd5b50919050565b5f5f5f5f5f5f6101608789031215610e4e575f5ffd5b8635610e5981610c2b565b955060208701356001600160401b03811115610e73575f5ffd5b610e7f89828a01610cb8565b955050610e8e60408801610d97565b9350610e9d8860608901610daf565b925060c0870135610ead81610c2b565b9150610ebc8860e08901610e22565b90509295509295509295565b5f5f5f60608486031215610eda575f5ffd5b8335610ee581610c2b565b925060208401356001600160401b03811115610eff575f5ffd5b610f0b86828701610cb8565b9250506040840135610f1c81610c2b565b809150509250925092565b5f806001600160401b03841115610f4057610f40610c3f565b50601f8301601f1916602001610f5581610c7b565b915050828152838383011115610f69575f5ffd5b828260208301375f602084830101529392505050565b5f5f60408385031215610f90575f5ffd5b82356001600160401b03811115610fa5575f5ffd5b8301601f81018513610fb5575f5ffd5b610fc485823560208401610f27565b95602094909401359450505050565b5f5f60408385031215610fe4575f5ffd5b50508035926020909101359150565b602080825282518282018190525f918401906040840190835b818110156110335783516001600160a01b031683526020938401939092019160010161100c565b509095945050505050565b5f82601f83011261104d575f5ffd5b61059383833560208501610f27565b5f5f6040838503121561106d575f5ffd5b82356001600160401b03811115611082575f5ffd5b61108e8582860161103e565b92505060208301356001600160401b038111156110a9575f5ffd5b6110b58582860161103e565b9150509250929050565b5f602082840312156110cf575f5ffd5b813561059381610c2b565b5f5f604083850312156110eb575f5ffd5b82356110f681610c2b565b915060208301356001600160401b03811115611110575f5ffd5b6110b585828601610cb8565b5f5f5f5f5f5f5f610120888a031215611133575f5ffd5b873561113e81610c2b565b965060208801356001600160401b03811115611158575f5ffd5b6111648a828b01610cb8565b9650506040880135945061117a60608901610d97565b9350608088013561118a81610cab565b92506111998960a08a01610daf565b91506101008801356111aa81610c2b565b8091505092959891949750929550565b5f602082840312156111ca575f5ffd5b81356001600160e01b031981168114610593575f5ffd5b5f5f5f5f608085870312156111f4575f5ffd5b84356111ff81610c2b565b935060208501356001600160401b03811115611219575f5ffd5b61122587828801610cb8565b935050604085013561123681610c2b565b9150606085013561124681610c2b565b939692955090935050565b5f5f5f5f5f6101408688031215611266575f5ffd5b853561127181610c2b565b945060208601356001600160401b0381111561128b575f5ffd5b61129788828901610cb8565b9450506112a78760408801610daf565b925060a08601356112b781610c2b565b91506112c68760c08801610e22565b90509295509295909350565b5f5f5f5f5f61010086880312156112e7575f5ffd5b85356112f281610c2b565b945060208601356001600160401b0381111561130c575f5ffd5b61131888828901610cb8565b94505060408601359250606086013561133081610c2b565b91506112c68760808801610e22565b5f8151808452602084019350602083015f5b828110156113c757815180516001600160a01b0316875260208101516002811061138957634e487b7160e01b5f52602160045260245ffd5b6020888101919091526040828101516001600160a01b0316908901526060918201511515918801919091526080909601959190910190600101611351565b5093949350505050565b80516001600160a01b03908116835260208083015182169084015260409182015116910152565b6001600160a01b03891681526101a0602082018190525f9061141c9083018a61133f565b905087604083015263ffffffff87166060830152851515608083015261144560a08301866113d1565b6001600160a01b038416610100830152823561146081610cab565b1515610120830152602083013561147681610cab565b1515610140830152604083013561148c81610cab565b151561016083015260608301356114a281610cab565b801515610180840152509998505050505050505050565b6001600160a01b03891681526101a0602082018190525f906114dd9083018a61133f565b905087604083015263ffffffff87166060830152851515608083015261150660a08301866113d1565b6001600160a01b03939093166101008201528151151561012082015260208201511515610140820152604082015115156101608201526060909101511515610180909101529695505050505050565b5f81518060208401855e5f93019283525090919050565b5f61158061157a8386611555565b84611555565b949350505050565b6020808252600f908201526e139bdd081a5b5c1b195b595b9d1959608a1b604082015260600190565b5f81518084528060208401602086015e5f602082860101526020601f19601f83011685010191505092915050565b6001600160a01b03841681526060602082018190525f90611602908301856115b1565b828103604084015261161481856115b1565b9695505050505050565b63ffffffff818116838216019081111561050857634e487b7160e01b5f52601160045260245ffd5b5f60208284031215611656575f5ffd5b815161059381610c2b565b5f60208284031215611671575f5ffd5b815161059381610cab56fe60e0604052670de0b6b3a764000060055534801561001b575f5ffd5b506040516121cb3803806121cb83398101604081905261003a91610156565b8282828282604051806040016040528060018152602001603160f81b815250815f9081610067919061025c565b506001610074828261025c565b508151602092830120608052805191012060a0526001600160a01b031660c05260036100a0838261025c565b5060046100ad828261025c565b50505050505050610316565b634e487b7160e01b5f52604160045260245ffd5b5f82601f8301126100dc575f5ffd5b81516001600160401b038111156100f5576100f56100b9565b604051601f8201601f19908116603f011681016001600160401b0381118282101715610123576101236100b9565b60405281815283820160200185101561013a575f5ffd5b8160208501602083015e5f918101602001919091529392505050565b5f5f5f60608486031215610168575f5ffd5b83516001600160a01b038116811461017e575f5ffd5b60208501519093506001600160401b03811115610199575f5ffd5b6101a5868287016100cd565b604086015190935090506001600160401b038111156101c2575f5ffd5b6101ce868287016100cd565b9150509250925092565b600181811c908216806101ec57607f821691505b60208210810361020a57634e487b7160e01b5f52602260045260245ffd5b50919050565b601f82111561025757805f5260205f20601f840160051c810160208510156102355750805b601f840160051c820191505b81811015610254575f8155600101610241565b50505b505050565b81516001600160401b03811115610275576102756100b9565b6102898161028384546101d8565b84610210565b6020601f8211600181146102bb575f83156102a45750848201515b5f19600385901b1c1916600184901b178455610254565b5f84815260208120601f198516915b828110156102ea57878501518255602094850194600190920191016102ca565b508482101561030757868401515f19600387901b60f8161c191681555b50505050600190811b01905550565b60805160a05160c051611e376103945f395f81816104fb015281816105ea0152818161069901528181610784015281816108940152818161097a01528181610a5d01528181610aeb01528181610b8b01528181610c2601528181610dbd01528181610e720152610f3801525f610fd201525f610faa0152611e375ff3fe608060405234801561000f575f5ffd5b506004361061019f575f3560e01c806301ffc9a7146101a357806306fdde03146101dc578063095ea7b3146101f157806316a0b3e01461020457806318160ddd1461022557806323b872dd1461022d57806323de665114610240578063273c1adf1461025557806330adf81f1461026a578063313ce5671461027e578063360c340f1461028d5780633644e515146102a25780634cfe8d1a146102aa5780635687f2b8146102bd578063627cdcb9146102d0578063641579a6146102d8578063654cf15d146102eb578063679aefce146102f957806370a082311461030157806372c98186146103145780637ecebe001461032757806381fa807c1461033a57806384b0196e146103575780638d928af81461037257806395d89b4114610387578063984de9e81461038f578063a9059cbb146103a2578063ab68e28c146103b5578063abb1dc44146103d8578063b0e2e403146103f0578063b677fa5614610403578063ce20ece714610403578063d505accf14610409578063dd62ed3e1461041c578063e4c436631461042f575b5f5ffd5b6101c76101b136600461112e565b6001600160e01b0319166301ffc9a760e01b1490565b60405190151581526020015b60405180910390f35b6101e4610452565b6040516101d39190611183565b6101c76101ff3660046111a9565b6104e2565b6102176102123660046112ee565b610580565b6040519081526020016101d3565b6102176105d1565b6101c761023b366004611337565b610663565b61025361024e366004611337565b610710565b005b6b1d6329f1c35ca4bfabb9f56160281b610217565b6102175f516020611de25f395f51905f5281565b604051601281526020016101d3565b61029561076a565b6040516101d391906113af565b610217610800565b6102536102b83660046113c1565b600655565b6102536102cb366004611337565b610809565b610253610856565b6102536102e63660046113c1565b600555565b670de0b6b3a7640000610217565b610217610862565b61021761030f3660046113d8565b61087b565b6102176103223660046113f3565b61090a565b6102176103353660046113d8565b610958565b610342610975565b604080519283526020830191909152016101d3565b61035f610a19565b6040516101d39796959493929190611429565b61037a610a5b565b6040516101d39190611498565b6101e4610a7f565b61021761039d3660046114b8565b610a8e565b6101c76103b03660046111a9565b610ad2565b6103c86103c3366004611571565b610b24565b6040516101d39493929190611618565b6103e0610b83565b6040516101d39493929190611675565b6102536103fe3660046113c1565b610c24565b5f610217565b610253610417366004611761565b610cc1565b61021761042a3660046117d2565b610e43565b61044261043d3660046117fe565b610ee4565b6040516101d39493929190611865565b6060600380546104619061188f565b80601f016020809104026020016040519081016040528092919081815260200182805461048d9061188f565b80156104d85780601f106104af576101008083540402835291602001916104d8565b820191905f5260205f20905b8154815290600101906020018083116104bb57829003601f168201915b5050505050905090565b60405163e1f21c6760e01b81525f906001600160a01b037f0000000000000000000000000000000000000000000000000000000000000000169063e1f21c6790610534903390879087906004016118c1565b6020604051808303815f875af1158015610550573d5f5f3e3d5ffd5b505050506040513d601f19601f8201168201806040525081019061057491906118f9565b50600190505b92915050565b5f5f61058d856001610a8e565b90508061059a8185610f05565b8686815181106105ac576105ac611912565b60200260200101516105be919061193a565b6105c8919061194d565b95945050505050565b6040516339370aa960e21b81525f906001600160a01b037f0000000000000000000000000000000000000000000000000000000000000000169063e4dc2aa49061061f903090600401611498565b602060405180830381865afa15801561063a573d5f5f3e3d5ffd5b505050506040513d601f19601f8201168201806040525081019061065e9190611960565b905090565b604051630aed65f560e11b81523360048201526001600160a01b0384811660248301528381166044830152606482018390525f917f0000000000000000000000000000000000000000000000000000000000000000909116906315dacbea906084016020604051808303815f875af11580156106e1573d5f5f3e3d5ffd5b505050506040513d601f19601f8201168201806040525081019061070591906118f9565b506001949350505050565b610718610f2d565b816001600160a01b0316836001600160a01b03167fddf252ad1be2c89b69c2b068fc378daa952ba7f163c4a11628f55a4df523b3ef8360405161075d91815260200190565b60405180910390a3505050565b604051633f1b0def60e11b81526060906001600160a01b037f00000000000000000000000000000000000000000000000000000000000000001690637e361bde906107b9903090600401611498565b5f60405180830381865afa1580156107d3573d5f5f3e3d5ffd5b505050506040513d5f823e601f3d908101601f191682016040526107fa91908101906119d2565b50919050565b5f61065e610f7a565b610811610f2d565b816001600160a01b0316836001600160a01b03167f8c5be1e5ebec7d5bd14f71427d1e84f3dd0314c0f7b2291e5b200ac8c7c3b9258360405161075d91815260200190565b61085f33611022565b50565b5f6006545f14610873575060065490565b61065e611044565b604051633de222bb60e21b81525f906001600160a01b037f0000000000000000000000000000000000000000000000000000000000000000169063f7888aec906108cb9030908690600401611a37565b602060405180830381865afa1580156108e6573d5f5f3e3d5ffd5b505050506040513d601f19601f8201168201806040525081019061057a9190611960565b5f806109196020840184611a51565b600181111561092a5761092a611661565b146109465760055461094190602084013590611078565b61057a565b60055461057a90602084013590610f05565b6001600160a01b0381165f9081526002602052604081205461057a565b5f5f5f7f00000000000000000000000000000000000000000000000000000000000000006001600160a01b031663f29486a1306040518263ffffffff1660e01b81526004016109c49190611498565b6101a060405180830381865afa1580156109e0573d5f5f3e3d5ffd5b505050506040513d601f19601f82011682018060405250810190610a049190611b10565b90508060400151925080606001519150509091565b5f6060805f5f5f6060610a2a611098565b610a326110a6565b604080515f80825260208201909252600f60f81b9b939a50919850469750309650945092509050565b7f000000000000000000000000000000000000000000000000000000000000000090565b6060600480546104619061188f565b5f80805b8451811015610aca57848181518110610aad57610aad611912565b602002602001015182610ac0919061193a565b9150600101610a92565b509392505050565b6040516317d5759960e31b81525f906001600160a01b037f0000000000000000000000000000000000000000000000000000000000000000169063beabacc890610534903390879087906004016118c1565b5f6060806060878788516001600160401b03811115610b4557610b456111d3565b604051908082528060200260200182016040528015610b6e578160200160208202803683370190505b50919b909a5090985094965093945050505050565b6060806060807f00000000000000000000000000000000000000000000000000000000000000006001600160a01b03166367e0e076306040518263ffffffff1660e01b8152600401610bd59190611498565b5f60405180830381865afa158015610bef573d5f5f3e3d5ffd5b505050506040513d5f823e601f3d908101601f19168201604052610c169190810190611c6c565b935093509350935090919293565b7f00000000000000000000000000000000000000000000000000000000000000006001600160a01b031663c808824782604051602001610c6691815260200190565b6040516020818303038152906040526040518263ffffffff1660e01b8152600401610c919190611d87565b5f604051808303815f87803b158015610ca8575f5ffd5b505af1158015610cba573d5f5f3e3d5ffd5b5050505050565b83421115610cea5760405163313c898160e11b8152600481018590526024015b60405180910390fd5b5f5f516020611de25f395f51905f52888888610d058c611022565b6040805160208101969096526001600160a01b0394851690860152929091166060840152608083015260a082015260c0810186905260e0016040516020818303038152906040528051906020012090505f610d5f826110b5565b90505f610d6e828787876110e1565b9050896001600160a01b0316816001600160a01b031614610da657808a6040516325c0072360e11b8152600401610ce1929190611a37565b60405163e1f21c6760e01b81526001600160a01b037f0000000000000000000000000000000000000000000000000000000000000000169063e1f21c6790610df6908d908d908d906004016118c1565b6020604051808303815f875af1158015610e12573d5f5f3e3d5ffd5b505050506040513d601f19601f82011682018060405250810190610e3691906118f9565b5050505050505050505050565b60405163927da10560e01b81523060048201526001600160a01b03838116602483015282811660448301525f917f00000000000000000000000000000000000000000000000000000000000000009091169063927da10590606401602060405180830381865afa158015610eb9573d5f5f3e3d5ffd5b505050506040513d601f19601f82011682018060405250810190610edd9190611960565b9392505050565b60605f606080878789516001600160401b03811115610b4557610b456111d3565b5f80610f118385611dab565b9050610f25670de0b6b3a764000082611dc2565b949350505050565b336001600160a01b037f00000000000000000000000000000000000000000000000000000000000000001614610f78573360405163089676d560e01b8152600401610ce19190611498565b565b5f61065e604080517f8b73c3c69bb8fe3d512ecc4cf759cc79239f7b179b0ffacaa9a75d522b39400f60208201527f0000000000000000000000000000000000000000000000000000000000000000918101919091527f000000000000000000000000000000000000000000000000000000000000000060608201524660808201523060a08201525f9060c00160405160208183030381529060405280519060200120905090565b6001600160a01b03165f90815260026020526040902080546001810190915590565b5f61104d610a5b565b6001600160a01b0316634f037ee7306040518263ffffffff1660e01b815260040161061f9190611498565b5f8061108c670de0b6b3a764000085611dab565b9050610f258382611dc2565b60605f80546104619061188f565b6060600180546104619061188f565b5f61057a6110c1610f7a565b8360405161190160f01b8152600281019290925260228201526042902090565b5f6105c8858585855f604051855f5260ff851660205283604052826060526020600160805f60015afa5191503d61111f57638baa579f5f526004601cfd5b5f606052604052949350505050565b5f6020828403121561113e575f5ffd5b81356001600160e01b031981168114610edd575f5ffd5b5f81518084528060208401602086015e5f602082860101526020601f19601f83011685010191505092915050565b602081525f610edd6020830184611155565b6001600160a01b038116811461085f575f5ffd5b5f5f604083850312156111ba575f5ffd5b82356111c581611195565b946020939093013593505050565b634e487b7160e01b5f52604160045260245ffd5b60405161014081016001600160401b038111828210171561120a5761120a6111d3565b60405290565b604051606081016001600160401b038111828210171561120a5761120a6111d3565b604051601f8201601f191681016001600160401b038111828210171561125a5761125a6111d3565b604052919050565b5f6001600160401b0382111561127a5761127a6111d3565b5060051b60200190565b5f82601f830112611293575f5ffd5b81356112a66112a182611262565b611232565b8082825260208201915060208360051b8601019250858311156112c7575f5ffd5b602085015b838110156112e45780358352602092830192016112cc565b5095945050505050565b5f5f5f60608486031215611300575f5ffd5b83356001600160401b03811115611315575f5ffd5b61132186828701611284565b9660208601359650604090950135949350505050565b5f5f5f60608486031215611349575f5ffd5b833561135481611195565b9250602084013561136481611195565b929592945050506040919091013590565b5f8151808452602084019350602083015f5b828110156113a5578151865260209586019590910190600101611387565b5093949350505050565b602081525f610edd6020830184611375565b5f602082840312156113d1575f5ffd5b5035919050565b5f602082840312156113e8575f5ffd5b8135610edd81611195565b5f60208284031215611403575f5ffd5b81356001600160401b03811115611418575f5ffd5b820160e08185031215610edd575f5ffd5b60ff60f81b8816815260e060208201525f61144760e0830189611155565b82810360408401526114598189611155565b606084018890526001600160a01b038716608085015260a0840186905283810360c0850152905061148a8185611375565b9a9950505050505050505050565b6001600160a01b0391909116815260200190565b6002811061085f575f5ffd5b5f5f604083850312156114c9575f5ffd5b82356001600160401b038111156114de575f5ffd5b6114ea85828601611284565b92505060208301356114fb816114ac565b809150509250929050565b5f82601f830112611515575f5ffd5b81356001600160401b0381111561152e5761152e6111d3565b611541601f8201601f1916602001611232565b818152846020838601011115611555575f5ffd5b816020850160208301375f918101602001919091529392505050565b5f5f5f5f5f60a08688031215611585575f5ffd5b853561159081611195565b94506020860135935060408601356001600160401b038111156115b1575f5ffd5b6115bd88828901611284565b93505060608601356001600160401b038111156115d8575f5ffd5b6115e488828901611284565b92505060808601356001600160401b038111156115ff575f5ffd5b61160b88828901611506565b9150509295509295909350565b848152608060208201525f6116306080830186611375565b82810360408401526116428186611375565b905082810360608401526116568185611155565b979650505050505050565b634e487b7160e01b5f52602160045260245ffd5b608080825285519082018190525f90602087019060a0840190835b818110156116b75783516001600160a01b0316835260209384019390920191600101611690565b505083810360208501528091505f87518083526020830193506020890192505f5b8181101561173757835180516002811061170057634e487b7160e01b5f52602160045260245ffd5b86526020818101516001600160a01b03168188015260409182015115159187019190915260609095019493909301926001016116d8565b50505050828103604084015261174d8186611375565b905082810360608401526116568185611375565b5f5f5f5f5f5f5f60e0888a031215611777575f5ffd5b873561178281611195565b9650602088013561179281611195565b95506040880135945060608801359350608088013560ff811681146117b5575f5ffd5b9699959850939692959460a0840135945060c09093013592915050565b5f5f604083850312156117e3575f5ffd5b82356117ee81611195565b915060208301356114fb81611195565b5f5f5f5f5f60a08688031215611812575f5ffd5b853561181d81611195565b945060208601356001600160401b03811115611837575f5ffd5b61184388828901611284565b9450506040860135925060608601356001600160401b038111156115d8575f5ffd5b608081525f6118776080830187611375565b85602084015282810360408401526116428186611375565b600181811c908216806118a357607f821691505b6020821081036107fa57634e487b7160e01b5f52602260045260245ffd5b6001600160a01b039384168152919092166020820152604081019190915260600190565b805180151581146118f4575f5ffd5b919050565b5f60208284031215611909575f5ffd5b610edd826118e5565b634e487b7160e01b5f52603260045260245ffd5b634e487b7160e01b5f52601160045260245ffd5b8082018082111561057a5761057a611926565b8181038181111561057a5761057a611926565b5f60208284031215611970575f5ffd5b5051919050565b5f82601f830112611986575f5ffd5b81516119946112a182611262565b8082825260208201915060208360051b8601019250858311156119b5575f5ffd5b602085015b838110156112e45780518352602092830192016119ba565b5f5f604083850312156119e3575f5ffd5b82516001600160401b038111156119f8575f5ffd5b611a0485828601611977565b602085015190935090506001600160401b03811115611a21575f5ffd5b611a2d85828601611977565b9150509250929050565b6001600160a01b0392831681529116602082015260400190565b5f60208284031215611a61575f5ffd5b8135610edd816114ac565b5f60808284031215611a7c575f5ffd5b604051608081016001600160401b0381118282101715611a9e57611a9e6111d3565b604052905080611aad836118e5565b8152611abb602084016118e5565b6020820152611acc604084016118e5565b6040820152611add606084016118e5565b60608201525092915050565b805164ffffffffff811681146118f4575f5ffd5b805163ffffffff811681146118f4575f5ffd5b5f6101a0828403128015611b22575f5ffd5b50611b2b6111e7565b611b358484611a6c565b81526080830151602082015260a0830151604082015260c08301516060820152611b6160e08401611ae9565b6080820152611b736101008401611afd565b60a0820152611b8561012084016118e5565b60c0820152611b9761014084016118e5565b60e0820152611ba961016084016118e5565b610100820152611bbc61018084016118e5565b6101208201529392505050565b5f82601f830112611bd8575f5ffd5b8151611be66112a182611262565b80828252602082019150602060608402860101925085831115611c07575f5ffd5b602085015b838110156112e45760608188031215611c23575f5ffd5b611c2b611210565b8151611c36816114ac565b81526020820151611c4681611195565b6020820152611c57604083016118e5565b60408201528352602090920191606001611c0c565b5f5f5f5f60808587031215611c7f575f5ffd5b84516001600160401b03811115611c94575f5ffd5b8501601f81018713611ca4575f5ffd5b8051611cb26112a182611262565b8082825260208201915060208360051b850101925089831115611cd3575f5ffd5b6020840193505b82841015611cfe578351611ced81611195565b825260209384019390910190611cda565b6020890151909750925050506001600160401b03811115611d1d575f5ffd5b611d2987828801611bc9565b604087015190945090506001600160401b03811115611d46575f5ffd5b611d5287828801611977565b606087015190935090506001600160401b03811115611d6f575f5ffd5b611d7b87828801611977565b91505092959194509250565b6815195cdd115d995b9d60ba1b8152604060208201525f610edd6040830184611155565b808202811582820484141761057a5761057a611926565b5f82611ddc57634e487b7160e01b5f52601260045260245ffd5b50049056fe6e71edae12b1b97f4d1f60370fef10105fa2faae0126114a169c64845d6126c9a2646970667358221220a40d617a8badedd814acc9ae020dbf170346645785f39e4b0b4e65cee489d3b264736f6c634300081e0033a26469706673582212200884699349577f76a09b2fd9e8c3e77cc84d86b608bc02a481f6e3da2375ee6c64736f6c634300081e0033","linkReferences":{}},"methodIdentifiers":{"createPool(string,string)":"5ea81a32","disable()":"2f2770db","getActionId(bytes4)":"851c1bb3","getAuthorizer()":"aaabadc5","getDeploymentAddress(bytes,bytes32)":"44f6fec7","getNewPoolPauseWindowEndTime()":"db035ebc","getOriginalPauseWindowEndTime()":"e9d56e19","getPauseWindowDuration()":"78da80cb","getPoolCount()":"8eec5d70","getPools()":"673a2a1f","getPoolsInRange(uint256,uint256)":"53a72f7e","getVault()":"8d928af8","isDisabled()":"6c57f5a9","isPoolFromFactory(address)":"6634b753","manualSetPoolFromFactory(address)":"ed38c8ec","registerGeneralTestPool(address,(address,uint8,address,bool)[],uint256,uint32,bool,(address,address,address),address)":"7a0b2e8d","registerPool(address,(address,uint8,address,bool)[],(address,address,address),address,(bool,bool,bool,bool))":"d396a666","registerPoolAtTimestamp(address,(address,uint8,address,bool)[],uint32,(address,address,address),address,(bool,bool,bool,bool))":"0e0677ab","registerPoolWithHook(address,(address,uint8,address,bool)[],address)":"206db1ef","registerPoolWithSwapFee(address,(address,uint8,address,bool)[],uint256,address,(bool,bool,bool,bool))":"ed05beaf","registerTestPool(address,(address,uint8,address,bool)[])":"675d6050","registerTestPool(address,(address,uint8,address,bool)[],address,address)":"a7a4b711"},"id":379}