{"abi":[{"type":"constructor","inputs":[{"name":"owner_","type":"address","internalType":"address"}],"stateMutability":"nonpayable"},{"type":"function","name":"acceptOwnershipTransfer","inputs":[],"outputs":[],"stateMutability":"nonpayable"},{"type":"function","name":"addCreator","inputs":[{"name":"token","type":"address","internalType":"address"},{"name":"creator","type":"address","internalType":"address"}],"outputs":[{"name":"","type":"bool","internalType":"bool"}],"stateMutability":"nonpayable"},{"type":"function","name":"cancelPendingOwnershipTransfer","inputs":[],"outputs":[],"stateMutability":"nonpayable"},{"type":"function","name":"confirmOwnershipTransfer","inputs":[{"name":"pendingOwner_","type":"address","internalType":"address"}],"outputs":[],"stateMutability":"nonpayable"},{"type":"function","name":"creatorByToken","inputs":[{"name":"token","type":"address","internalType":"address"}],"outputs":[{"name":"creator","type":"address","internalType":"address"}],"stateMutability":"view"},{"type":"function","name":"getOwnershipTransferBuffer","inputs":[],"outputs":[{"name":"","type":"uint256","internalType":"uint256"}],"stateMutability":"view"},{"type":"function","name":"initiateOwnershipTransfer","inputs":[{"name":"pendingOwner_","type":"address","internalType":"address"}],"outputs":[],"stateMutability":"nonpayable"},{"type":"function","name":"isOperator","inputs":[{"name":"query","type":"address","internalType":"address"}],"outputs":[{"name":"","type":"bool","internalType":"bool"}],"stateMutability":"view"},{"type":"function","name":"isOperatorFor","inputs":[{"name":"func","type":"bytes4","internalType":"bytes4"},{"name":"query","type":"address","internalType":"address"}],"outputs":[{"name":"","type":"bool","internalType":"bool"}],"stateMutability":"view"},{"type":"function","name":"owner","inputs":[],"outputs":[{"name":"","type":"address","internalType":"address"}],"stateMutability":"view"},{"type":"function","name":"pendingOwner","inputs":[],"outputs":[{"name":"","type":"address","internalType":"address"}],"stateMutability":"view"},{"type":"function","name":"preConfirmedOwner","inputs":[],"outputs":[{"name":"","type":"address","internalType":"address"}],"stateMutability":"view"},{"type":"function","name":"setOperator","inputs":[{"name":"operator","type":"address","internalType":"address"},{"name":"status","type":"bool","internalType":"bool"}],"outputs":[{"name":"","type":"bool","internalType":"bool"}],"stateMutability":"nonpayable"},{"type":"function","name":"setOperatorFor","inputs":[{"name":"func","type":"bytes4","internalType":"bytes4"},{"name":"newOperator","type":"address","internalType":"address"},{"name":"approval","type":"bool","internalType":"bool"}],"outputs":[{"name":"","type":"bool","internalType":"bool"}],"stateMutability":"nonpayable"},{"type":"event","name":"NewFunctionOperatorStatus","inputs":[{"name":"operator","type":"address","indexed":false,"internalType":"address"},{"name":"func","type":"bytes4","indexed":false,"internalType":"bytes4"},{"name":"status","type":"bool","indexed":false,"internalType":"bool"}],"anonymous":false},{"type":"event","name":"NewGlobalOperatorStatus","inputs":[{"name":"operator","type":"address","indexed":false,"internalType":"address"},{"name":"status","type":"bool","indexed":false,"internalType":"bool"}],"anonymous":false},{"type":"event","name":"OwnershipTransferConfirmed","inputs":[{"name":"prevOwner","type":"address","indexed":true,"internalType":"address"},{"name":"newOwner","type":"address","indexed":true,"internalType":"address"}],"anonymous":false},{"type":"event","name":"OwnershipTransferInitiated","inputs":[{"name":"prevOwner","type":"address","indexed":true,"internalType":"address"},{"name":"newOwner","type":"address","indexed":true,"internalType":"address"}],"anonymous":false},{"type":"event","name":"OwnershipTransferred","inputs":[{"name":"prevOwner","type":"address","indexed":true,"internalType":"address"},{"name":"newOwner","type":"address","indexed":true,"internalType":"address"}],"anonymous":false},{"type":"error","name":"BufferPeriodNotElapsed","inputs":[{"name":"currentTime","type":"uint256","internalType":"uint256"},{"name":"bufferEndTime","type":"uint256","internalType":"uint256"}]},{"type":"error","name":"NotOperator","inputs":[{"name":"caller","type":"address","internalType":"address"}]},{"type":"error","name":"NotOwner","inputs":[{"name":"caller","type":"address","internalType":"address"}]},{"type":"error","name":"NotPending","inputs":[{"name":"caller","type":"address","internalType":"address"}]}],"bytecode":{"object":"0x6080604052348015600e575f5ffd5b50604051610ada380380610ada833981016040819052602b916081565b60348160016039565b5060ac565b607d7f552e522d4f9b6a3d443b47299f900b7b1bce2dacca532b0186b605495413451d80546001600160a01b0319166001600160a01b038516178155600201829055565b5050565b5f602082840312156090575f5ffd5b81516001600160a01b038116811460a5575f5ffd5b9392505050565b610a21806100b95f395ff3fe608060405234801561000f575f5ffd5b50600436106100b8575f3560e01c8063025bfb43146100bc5780630f9f2530146100fa5780631af1b0c4146101105780633c21395714610118578063558a72971461012d5780636a1f22b9146101505780636d70f7ae14610163578063737293e214610176578063755dbe7c1461017e5780638da5cb5b14610191578063b842e87f14610199578063c0b6f561146101a1578063e30c3978146101b4578063ea562a25146101bc575b5f5ffd5b6100e46100ca3660046108c6565b5f602081905290815260409020546001600160a01b031681565b6040516100f191906108df565b60405180910390f35b6101026101cf565b6040519081526020016100f1565b6100e46101dd565b61012b6101263660046108c6565b6101e6565b005b61014061013b366004610902565b6101f2565b60405190151581526020016100f1565b61014061015e366004610933565b61020f565b6101406101713660046108c6565b610249565b61012b610253565b61014061018c366004610972565b61025d565b6100e461027b565b61012b610284565b61012b6101af3660046108c6565b61028c565b6100e4610295565b6101406101ca3660046109b2565b61029e565b5f6101d86102b0565b905090565b5f6101d86102c3565b6101ef816102d4565b50565b5f6101fb6102e5565b61020583836102f5565b5060015b92915050565b5f61021861030b565b506001600160a01b039182165f90815260208190526040902080546001600160a01b03191691909216179055600190565b5f6102098261031b565b61025b61032d565b565b5f6102666102e5565b61027184848461033d565b5060019392505050565b5f6101d8610355565b61025b61036e565b6101ef8161037e565b5f6101d861038f565b5f6102a983836103ab565b9392505050565b5f6101d86102bc6103be565b6002015490565b5f6101d86102cf6103be565b6103e2565b6101ef6102df6103be565b8261040f565b61025b6102f06103be565b610501565b61030761030061052d565b8383610583565b5050565b61025b61031661052d565b6105ec565b5f61020961032761052d565b83610652565b61025b6103386103be565b610670565b61035061034861052d565b8484846106b9565b505050565b5f6101d86103616103be565b546001600160a01b031690565b61025b6103796103be565b610744565b6101ef6103896103be565b826107de565b5f6101d861039b6103be565b600101546001600160a01b031690565b5f6102a96103b761052d565b8484610872565b7f552e522d4f9b6a3d443b47299f900b7b1bce2dacca532b0186b605495413451d90565b60018101545f90600160a01b900460ff166103fe57505f919050565b50600101546001600160a01b031690565b81546001600160a01b0316338114610445573360405163245aecd360e01b815260040161043c91906108df565b60405180910390fd5b826003015442101561047957600383015460405163d64ede7360e01b8152426004820152602481019190915260440161043c565b60018301546001600160a01b0390811690831681146104ad578260405163a7fa19b160e01b815260040161043c91906108df565b60018401805460ff60a01b198116600160a01b179091556040516001600160a01b03918216918416907f646fe5eeb20d96ea45a9caafcb508854a2fb5660885ced7772e12a633c974571905f90a350505050565b80546001600160a01b031633146101ef573360405163245aecd360e01b815260040161043c91906108df565b5f6101d860405160200161056a906020808252601590820152746372616e652e6163636573732e6f70657261626c6560581b604082015260600190565b6040516020818303038152906040528051906020012090565b61058b6102e5565b6001600160a01b0382165f8181526020858152604091829020805460ff19168515159081179091558251938452908301527f26ba28058a3c072a70c8fd315037fe9b3957237cef5c61a9652a8da41c673daa910160405180910390a1505050565b336105f5610355565b6001600160a01b03161415801561061357506106118133610652565b155b80156106325750610630815f356001600160e01b03191633610872565b155b156101ef5733604051633b63649d60e11b815260040161043c91906108df565b6001600160a01b03165f908152602091909152604090205460ff1690565b80546001600160a01b031633811461069d573360405163245aecd360e01b815260040161043c91906108df565b506001810180546001600160a81b03191690555f600390910155565b6106c16102e5565b6001600160e01b031983165f81815260018601602090815260408083206001600160a01b03871680855290835292819020805486151560ff1990911681179091558151938452918301939093528183015290517ff071216dc06459e77b915d1883909d92f41239172000b60261dfdc03518895699181900360600190a150505050565b60018101546001600160a01b0316338114610774573360405163a7fa19b160e01b815260040161043c91906108df565b81546001600160a01b038281166001600160a01b03198316811785556001850180546001600160a81b03191690555f600386018190556040519290931692909183917f8be0079c531659141344cd1fd0a4f28419497f9722a3daafe3b4186f6b6457e091a3505050565b81546001600160a01b031633811461080b573360405163245aecd360e01b815260040161043c91906108df565b600283015461081a90426109cc565b60038401556001830180546001600160a01b0319166001600160a01b0384811691821790925560405190918316907fb150023a879fd806e3599b6ca8ee3b60f0e360ab3846d128d67ebce1a391639a905f90a3505050565b6001600160e01b031982165f90815260018401602090815260408083206001600160a01b038516845290915290205460ff169392505050565b80356001600160a01b03811681146108c1575f5ffd5b919050565b5f602082840312156108d6575f5ffd5b6102a9826108ab565b6001600160a01b0391909116815260200190565b803580151581146108c1575f5ffd5b5f5f60408385031215610913575f5ffd5b61091c836108ab565b915061092a602084016108f3565b90509250929050565b5f5f60408385031215610944575f5ffd5b61094d836108ab565b915061092a602084016108ab565b80356001600160e01b0319811681146108c1575f5ffd5b5f5f5f60608486031215610984575f5ffd5b61098d8461095b565b925061099b602085016108ab565b91506109a9604085016108f3565b90509250925092565b5f5f604083850312156109c3575f5ffd5b61094d8361095b565b8082018082111561020957634e487b7160e01b5f52601160045260245ffdfea26469706673582212205e4c87666d14918b0b40bf01004ce74c11d3dbd0a4bc2808201b93dca11bf41c64736f6c634300081e0033","linkReferences":{}},"methodIdentifiers":{"acceptOwnershipTransfer()":"b842e87f","addCreator(address,address)":"6a1f22b9","cancelPendingOwnershipTransfer()":"737293e2","confirmOwnershipTransfer(address)":"3c213957","creatorByToken(address)":"025bfb43","getOwnershipTransferBuffer()":"0f9f2530","initiateOwnershipTransfer(address)":"c0b6f561","isOperator(address)":"6d70f7ae","isOperatorFor(bytes4,address)":"ea562a25","owner()":"8da5cb5b","pendingOwner()":"e30c3978","preConfirmedOwner()":"1af1b0c4","setOperator(address,bool)":"558a7297","setOperatorFor(bytes4,address,bool)":"755dbe7c"},"id":1239}