{"abi":[{"type":"function","name":"getNewPoolPauseWindowEndTime","inputs":[],"outputs":[{"name":"","type":"uint32","internalType":"uint32"}],"stateMutability":"view"},{"type":"function","name":"getOriginalPauseWindowEndTime","inputs":[],"outputs":[{"name":"","type":"uint32","internalType":"uint32"}],"stateMutability":"view"},{"type":"function","name":"getPauseWindowDuration","inputs":[],"outputs":[{"name":"","type":"uint32","internalType":"uint32"}],"stateMutability":"view"}],"bytecode":{"object":"0x6080604052348015600e575f5ffd5b5061016d8061001c5f395ff3fe608060405234801561000f575f5ffd5b506004361061003f575f3560e01c806378da80cb14610043578063db035ebc14610064578063e9d56e191461006c575b5f5ffd5b61004b610074565b60405163ffffffff909116815260200160405180910390f35b61004b610082565b61004b61008b565b5f61007d610094565b905090565b5f61007d6100af565b5f61007d6100c0565b5f61007d6100a06100dd565b54610100900463ffffffff1690565b5f61007d6100bb6100dd565b610101565b5f61007d6100cc6100dd565b54600160281b900463ffffffff1690565b7f083b184f81c44d1555bdab2b99aeea4d11b107caca4883125bcb0b412d1f813290565b5f5f610119835463ffffffff600160281b9091041690565b90508063ffffffff16421061012e575f610130565b805b939250505056fea2646970667358221220f63ca87a228c9bf0390509b09d2ad4a9814575847500a43337f5b241880f534564736f6c634300081e0033","linkReferences":{}},"methodIdentifiers":{"getNewPoolPauseWindowEndTime()":"db035ebc","getOriginalPauseWindowEndTime()":"e9d56e19","getPauseWindowDuration()":"78da80cb"},"id":880}