{"abi":[{"type":"constructor","inputs":[{"name":"params","type":"tuple","internalType":"struct IGyroECLPPool.GyroECLPPoolParams","components":[{"name":"name","type":"string","internalType":"string"},{"name":"symbol","type":"string","internalType":"string"},{"name":"eclpParams","type":"tuple","internalType":"struct IGyroECLPPool.EclpParams","components":[{"name":"alpha","type":"int256","internalType":"int256"},{"name":"beta","type":"int256","internalType":"int256"},{"name":"c","type":"int256","internalType":"int256"},{"name":"s","type":"int256","internalType":"int256"},{"name":"lambda","type":"int256","internalType":"int256"}]},{"name":"derivedEclpParams","type":"tuple","internalType":"struct IGyroECLPPool.DerivedEclpParams","components":[{"name":"tauAlpha","type":"tuple","internalType":"struct IGyroECLPPool.Vector2","components":[{"name":"x","type":"int256","internalType":"int256"},{"name":"y","type":"int256","internalType":"int256"}]},{"name":"tauBeta","type":"tuple","internalType":"struct IGyroECLPPool.Vector2","components":[{"name":"x","type":"int256","internalType":"int256"},{"name":"y","type":"int256","internalType":"int256"}]},{"name":"u","type":"int256","internalType":"int256"},{"name":"v","type":"int256","internalType":"int256"},{"name":"w","type":"int256","internalType":"int256"},{"name":"z","type":"int256","internalType":"int256"},{"name":"dSq","type":"int256","internalType":"int256"}]},{"name":"version","type":"string","internalType":"string"}]},{"name":"vault","type":"address","internalType":"contract IVault"}],"stateMutability":"nonpayable"},{"type":"function","name":"DOMAIN_SEPARATOR","inputs":[],"outputs":[{"name":"","type":"bytes32","internalType":"bytes32"}],"stateMutability":"view"},{"type":"function","name":"PERMIT_TYPEHASH","inputs":[],"outputs":[{"name":"","type":"bytes32","internalType":"bytes32"}],"stateMutability":"view"},{"type":"function","name":"allowance","inputs":[{"name":"owner","type":"address","internalType":"address"},{"name":"spender","type":"address","internalType":"address"}],"outputs":[{"name":"","type":"uint256","internalType":"uint256"}],"stateMutability":"view"},{"type":"function","name":"approve","inputs":[{"name":"spender","type":"address","internalType":"address"},{"name":"amount","type":"uint256","internalType":"uint256"}],"outputs":[{"name":"","type":"bool","internalType":"bool"}],"stateMutability":"nonpayable"},{"type":"function","name":"balanceOf","inputs":[{"name":"account","type":"address","internalType":"address"}],"outputs":[{"name":"","type":"uint256","internalType":"uint256"}],"stateMutability":"view"},{"type":"function","name":"computeBalance","inputs":[{"name":"balancesLiveScaled18","type":"uint256[]","internalType":"uint256[]"},{"name":"tokenInIndex","type":"uint256","internalType":"uint256"},{"name":"invariantRatio","type":"uint256","internalType":"uint256"}],"outputs":[{"name":"","type":"uint256","internalType":"uint256"}],"stateMutability":"view"},{"type":"function","name":"computeInvariant","inputs":[{"name":"balancesLiveScaled18","type":"uint256[]","internalType":"uint256[]"},{"name":"rounding","type":"uint8","internalType":"enum Rounding"}],"outputs":[{"name":"","type":"uint256","internalType":"uint256"}],"stateMutability":"view"},{"type":"function","name":"decimals","inputs":[],"outputs":[{"name":"","type":"uint8","internalType":"uint8"}],"stateMutability":"pure"},{"type":"function","name":"eip712Domain","inputs":[],"outputs":[{"name":"fields","type":"bytes1","internalType":"bytes1"},{"name":"name","type":"string","internalType":"string"},{"name":"version","type":"string","internalType":"string"},{"name":"chainId","type":"uint256","internalType":"uint256"},{"name":"verifyingContract","type":"address","internalType":"address"},{"name":"salt","type":"bytes32","internalType":"bytes32"},{"name":"extensions","type":"uint256[]","internalType":"uint256[]"}],"stateMutability":"view"},{"type":"function","name":"emitApproval","inputs":[{"name":"owner","type":"address","internalType":"address"},{"name":"spender","type":"address","internalType":"address"},{"name":"amount","type":"uint256","internalType":"uint256"}],"outputs":[],"stateMutability":"nonpayable"},{"type":"function","name":"emitTransfer","inputs":[{"name":"from","type":"address","internalType":"address"},{"name":"to","type":"address","internalType":"address"},{"name":"amount","type":"uint256","internalType":"uint256"}],"outputs":[],"stateMutability":"nonpayable"},{"type":"function","name":"getAggregateFeePercentages","inputs":[],"outputs":[{"name":"aggregateSwapFeePercentage","type":"uint256","internalType":"uint256"},{"name":"aggregateYieldFeePercentage","type":"uint256","internalType":"uint256"}],"stateMutability":"view"},{"type":"function","name":"getCurrentLiveBalances","inputs":[],"outputs":[{"name":"balancesLiveScaled18","type":"uint256[]","internalType":"uint256[]"}],"stateMutability":"view"},{"type":"function","name":"getECLPParams","inputs":[],"outputs":[{"name":"params","type":"tuple","internalType":"struct IGyroECLPPool.EclpParams","components":[{"name":"alpha","type":"int256","internalType":"int256"},{"name":"beta","type":"int256","internalType":"int256"},{"name":"c","type":"int256","internalType":"int256"},{"name":"s","type":"int256","internalType":"int256"},{"name":"lambda","type":"int256","internalType":"int256"}]},{"name":"d","type":"tuple","internalType":"struct IGyroECLPPool.DerivedEclpParams","components":[{"name":"tauAlpha","type":"tuple","internalType":"struct IGyroECLPPool.Vector2","components":[{"name":"x","type":"int256","internalType":"int256"},{"name":"y","type":"int256","internalType":"int256"}]},{"name":"tauBeta","type":"tuple","internalType":"struct IGyroECLPPool.Vector2","components":[{"name":"x","type":"int256","internalType":"int256"},{"name":"y","type":"int256","internalType":"int256"}]},{"name":"u","type":"int256","internalType":"int256"},{"name":"v","type":"int256","internalType":"int256"},{"name":"w","type":"int256","internalType":"int256"},{"name":"z","type":"int256","internalType":"int256"},{"name":"dSq","type":"int256","internalType":"int256"}]}],"stateMutability":"view"},{"type":"function","name":"getGyroECLPPoolDynamicData","inputs":[],"outputs":[{"name":"data","type":"tuple","internalType":"struct GyroECLPPoolDynamicData","components":[{"name":"balancesLiveScaled18","type":"uint256[]","internalType":"uint256[]"},{"name":"tokenRates","type":"uint256[]","internalType":"uint256[]"},{"name":"staticSwapFeePercentage","type":"uint256","internalType":"uint256"},{"name":"totalSupply","type":"uint256","internalType":"uint256"},{"name":"bptRate","type":"uint256","internalType":"uint256"},{"name":"isPoolInitialized","type":"bool","internalType":"bool"},{"name":"isPoolPaused","type":"bool","internalType":"bool"},{"name":"isPoolInRecoveryMode","type":"bool","internalType":"bool"}]}],"stateMutability":"view"},{"type":"function","name":"getGyroECLPPoolImmutableData","inputs":[],"outputs":[{"name":"data","type":"tuple","internalType":"struct GyroECLPPoolImmutableData","components":[{"name":"tokens","type":"address[]","internalType":"contract IERC20[]"},{"name":"decimalScalingFactors","type":"uint256[]","internalType":"uint256[]"},{"name":"paramsAlpha","type":"int256","internalType":"int256"},{"name":"paramsBeta","type":"int256","internalType":"int256"},{"name":"paramsC","type":"int256","internalType":"int256"},{"name":"paramsS","type":"int256","internalType":"int256"},{"name":"paramsLambda","type":"int256","internalType":"int256"},{"name":"tauAlphaX","type":"int256","internalType":"int256"},{"name":"tauAlphaY","type":"int256","internalType":"int256"},{"name":"tauBetaX","type":"int256","internalType":"int256"},{"name":"tauBetaY","type":"int256","internalType":"int256"},{"name":"u","type":"int256","internalType":"int256"},{"name":"v","type":"int256","internalType":"int256"},{"name":"w","type":"int256","internalType":"int256"},{"name":"z","type":"int256","internalType":"int256"},{"name":"dSq","type":"int256","internalType":"int256"}]}],"stateMutability":"view"},{"type":"function","name":"getMaximumInvariantRatio","inputs":[],"outputs":[{"name":"","type":"uint256","internalType":"uint256"}],"stateMutability":"pure"},{"type":"function","name":"getMaximumSwapFeePercentage","inputs":[],"outputs":[{"name":"","type":"uint256","internalType":"uint256"}],"stateMutability":"pure"},{"type":"function","name":"getMinimumInvariantRatio","inputs":[],"outputs":[{"name":"","type":"uint256","internalType":"uint256"}],"stateMutability":"pure"},{"type":"function","name":"getMinimumSwapFeePercentage","inputs":[],"outputs":[{"name":"","type":"uint256","internalType":"uint256"}],"stateMutability":"pure"},{"type":"function","name":"getRate","inputs":[],"outputs":[{"name":"","type":"uint256","internalType":"uint256"}],"stateMutability":"view"},{"type":"function","name":"getStaticSwapFeePercentage","inputs":[],"outputs":[{"name":"","type":"uint256","internalType":"uint256"}],"stateMutability":"view"},{"type":"function","name":"getTokenInfo","inputs":[],"outputs":[{"name":"tokens","type":"address[]","internalType":"contract IERC20[]"},{"name":"tokenInfo","type":"tuple[]","internalType":"struct TokenInfo[]","components":[{"name":"tokenType","type":"uint8","internalType":"enum TokenType"},{"name":"rateProvider","type":"address","internalType":"contract IRateProvider"},{"name":"paysYieldFees","type":"bool","internalType":"bool"}]},{"name":"balancesRaw","type":"uint256[]","internalType":"uint256[]"},{"name":"lastBalancesLiveScaled18","type":"uint256[]","internalType":"uint256[]"}],"stateMutability":"view"},{"type":"function","name":"getTokens","inputs":[],"outputs":[{"name":"tokens","type":"address[]","internalType":"contract IERC20[]"}],"stateMutability":"view"},{"type":"function","name":"getVault","inputs":[],"outputs":[{"name":"","type":"address","internalType":"contract IVault"}],"stateMutability":"view"},{"type":"function","name":"incrementNonce","inputs":[],"outputs":[],"stateMutability":"nonpayable"},{"type":"function","name":"name","inputs":[],"outputs":[{"name":"","type":"string","internalType":"string"}],"stateMutability":"view"},{"type":"function","name":"nonces","inputs":[{"name":"owner","type":"address","internalType":"address"}],"outputs":[{"name":"","type":"uint256","internalType":"uint256"}],"stateMutability":"view"},{"type":"function","name":"onSwap","inputs":[{"name":"request","type":"tuple","internalType":"struct PoolSwapParams","components":[{"name":"kind","type":"uint8","internalType":"enum SwapKind"},{"name":"amountGivenScaled18","type":"uint256","internalType":"uint256"},{"name":"balancesScaled18","type":"uint256[]","internalType":"uint256[]"},{"name":"indexIn","type":"uint256","internalType":"uint256"},{"name":"indexOut","type":"uint256","internalType":"uint256"},{"name":"router","type":"address","internalType":"address"},{"name":"userData","type":"bytes","internalType":"bytes"}]}],"outputs":[{"name":"","type":"uint256","internalType":"uint256"}],"stateMutability":"view"},{"type":"function","name":"permit","inputs":[{"name":"owner","type":"address","internalType":"address"},{"name":"spender","type":"address","internalType":"address"},{"name":"amount","type":"uint256","internalType":"uint256"},{"name":"deadline","type":"uint256","internalType":"uint256"},{"name":"v","type":"uint8","internalType":"uint8"},{"name":"r","type":"bytes32","internalType":"bytes32"},{"name":"s","type":"bytes32","internalType":"bytes32"}],"outputs":[],"stateMutability":"nonpayable"},{"type":"function","name":"supportsInterface","inputs":[{"name":"interfaceId","type":"bytes4","internalType":"bytes4"}],"outputs":[{"name":"","type":"bool","internalType":"bool"}],"stateMutability":"view"},{"type":"function","name":"symbol","inputs":[],"outputs":[{"name":"","type":"string","internalType":"string"}],"stateMutability":"view"},{"type":"function","name":"totalSupply","inputs":[],"outputs":[{"name":"","type":"uint256","internalType":"uint256"}],"stateMutability":"view"},{"type":"function","name":"transfer","inputs":[{"name":"to","type":"address","internalType":"address"},{"name":"amount","type":"uint256","internalType":"uint256"}],"outputs":[{"name":"","type":"bool","internalType":"bool"}],"stateMutability":"nonpayable"},{"type":"function","name":"transferFrom","inputs":[{"name":"from","type":"address","internalType":"address"},{"name":"to","type":"address","internalType":"address"},{"name":"amount","type":"uint256","internalType":"uint256"}],"outputs":[{"name":"","type":"bool","internalType":"bool"}],"stateMutability":"nonpayable"},{"type":"function","name":"version","inputs":[],"outputs":[{"name":"","type":"string","internalType":"string"}],"stateMutability":"view"},{"type":"event","name":"Approval","inputs":[{"name":"owner","type":"address","indexed":true,"internalType":"address"},{"name":"spender","type":"address","indexed":true,"internalType":"address"},{"name":"amount","type":"uint256","indexed":false,"internalType":"uint256"}],"anonymous":false},{"type":"event","name":"ECLPDerivedParamsValidated","inputs":[{"name":"derivedParamsValidated","type":"bool","indexed":false,"internalType":"bool"}],"anonymous":false},{"type":"event","name":"ECLPParamsValidated","inputs":[{"name":"paramsValidated","type":"bool","indexed":false,"internalType":"bool"}],"anonymous":false},{"type":"event","name":"EIP712DomainChanged","inputs":[],"anonymous":false},{"type":"event","name":"Transfer","inputs":[{"name":"from","type":"address","indexed":true,"internalType":"address"},{"name":"to","type":"address","indexed":true,"internalType":"address"},{"name":"amount","type":"uint256","indexed":false,"internalType":"uint256"}],"anonymous":false},{"type":"error","name":"AssetBoundsExceeded","inputs":[]},{"type":"error","name":"DerivedDsqWrong","inputs":[]},{"type":"error","name":"DerivedTauAlphaNotNormalized","inputs":[]},{"type":"error","name":"DerivedTauAlphaYWrong","inputs":[]},{"type":"error","name":"DerivedTauBetaNotNormalized","inputs":[]},{"type":"error","name":"DerivedTauBetaYWrong","inputs":[]},{"type":"error","name":"DerivedTauXWrong","inputs":[]},{"type":"error","name":"DerivedUWrong","inputs":[]},{"type":"error","name":"DerivedVWrong","inputs":[]},{"type":"error","name":"DerivedWWrong","inputs":[]},{"type":"error","name":"DerivedZWrong","inputs":[]},{"type":"error","name":"ERC2612ExpiredSignature","inputs":[{"name":"deadline","type":"uint256","internalType":"uint256"}]},{"type":"error","name":"ERC2612InvalidSigner","inputs":[{"name":"signer","type":"address","internalType":"address"},{"name":"owner","type":"address","internalType":"address"}]},{"type":"error","name":"InvalidAccountNonce","inputs":[{"name":"account","type":"address","internalType":"address"},{"name":"currentNonce","type":"uint256","internalType":"uint256"}]},{"type":"error","name":"InvariantDenominatorWrong","inputs":[]},{"type":"error","name":"MaxAssetsExceeded","inputs":[]},{"type":"error","name":"MaxInvariantExceeded","inputs":[]},{"type":"error","name":"MulOverflow","inputs":[]},{"type":"error","name":"RotationVectorCWrong","inputs":[]},{"type":"error","name":"RotationVectorNotNormalized","inputs":[]},{"type":"error","name":"RotationVectorSWrong","inputs":[]},{"type":"error","name":"SenderIsNotVault","inputs":[{"name":"sender","type":"address","internalType":"address"}]},{"type":"error","name":"StretchingFactorWrong","inputs":[]},{"type":"error","name":"ZeroDivision","inputs":[]}],"bytecode":{"object":"0x6102c0604052348015610010575f5ffd5b5060405161594538038061594583398101604081905261002f91610c54565b81608001518182845f015185602001518282604051806040016040528060018152602001603160f81b815250815f90816100699190610dcd565b5060016100768282610dcd565b508151602092830120608052805191012060a0526001600160a01b031660c05260036100a28382610dcd565b5060046100af8282610dcd565b505050506001600160a01b031660e0526100c8816101fa565b5060408201516100d79061020a565b604051600181527ff468331437e1ec2fec64fc27f23a28b085a09e90f385338d4b58cb63860797779060200160405180910390a16101238260400151836060015161034260201b60201c565b604051600181527f614fd1489cdee8181582fbbc1933d6870cd06c6f22d314b97a650ffa547c6ccd9060200160405180910390a150604080820151805160208083015183850151606080860151608096870151610180526101605261014091909152610120919091526101009290925293810151805180519086015182870151805197015195830151938301519483015160a084015160c0909401516102a05261028093909352610260929092526102409390935261022091909152610200929092526101e0929092526101c0526101a052610f69565b60056102068282610dcd565b5050565b80606001515f1315801561022a5750670de0b6b3a7640000816060015113155b61024757604051632a561e9d60e21b815260040160405180910390fd5b80604001515f131580156102675750670de0b6b3a7640000816040015113155b610284576040516332c31cd560e11b815260040160405180910390fd5b604080518082018252606083015181529082015160208201525f6102a88280610687565b9050806102bf6103e8670de0b6b3a7640000610e9b565b131580156102e057506102dc6103e8670de0b6b3a7640000610ec1565b8113155b6102fd57604051635136c61760e11b815260040160405180910390fd5b82608001515f1315801561032057506a52b7d2dcc80cd2e4000000836080015113155b61033d57604051633befd18960e11b815260040160405180910390fd5b505050565b8051602001515f1261036757604051633b04cd8b60e21b815260040160405180910390fd5b5f8160200151602001511361038f5760405163fa40768d60e01b815260040160405180910390fd5b805151602082015151136103b65760405163080e38b560e31b815260040160405180910390fd5b80515f906103c490806106bb565b9050806103eb69152d02c7e14af68000006f4b3b4ca85a86c47a098a224000000000610e9b565b1315801561041c575061041869152d02c7e14af68000006f4b3b4ca85a86c47a098a224000000000610ec1565b8113155b610439576040516360cb724b60e11b815260040160405180910390fd5b602082015161044890806106bb565b90508061046f69152d02c7e14af68000006f4b3b4ca85a86c47a098a224000000000610e9b565b131580156104a0575061049c69152d02c7e14af68000006f4b3b4ca85a86c47a098a224000000000610ec1565b8113155b6104bd576040516304b77ae160e31b815260040160405180910390fd5b6f4b3b4ca85a86c47a098a224000000000826040015113156104f257604051633e1352d160e21b815260040160405180910390fd5b6f4b3b4ca85a86c47a098a224000000000826060015113156105275760405163cfb498d560e01b815260040160405180910390fd5b6f4b3b4ca85a86c47a098a2240000000008260800151131561055c576040516341a2359b60e11b815260040160405180910390fd5b6f4b3b4ca85a86c47a098a2240000000008260a001511315610591576040516312e3e41160e01b815260040160405180910390fd5b60c08201516105ba69152d02c7e14af68000006f4b3b4ca85a86c47a098a224000000000610e9b565b131580156105ef57506105e769152d02c7e14af68000006f4b3b4ca85a86c47a098a224000000000610ec1565b8260c0015113155b61060c57604051630fb154af60e41b815260040160405180910390fd5b5f61064c6f4b3b4ca85a86c47a098a22400000000061062b86866106de565b6106359190610e9b565b6f4b3b4ca85a86c47a098a224000000000906107e4565b90507172cb5bd86321e38cb6ce6682e800000000008113156106815760405163d1c1799360e01b815260040160405180910390fd5b50505050565b602080820151908301515f9161069d9190610830565b825184516106aa91610830565b6106b49190610ec1565b9392505050565b602080820151908301515f916106d1919061088a565b825184516106aa9161088a565b60c08101515f9081906106fb906106f581806108e4565b906108e4565b905061072e6107238261071d8660600151876040015160026106f59190610ee8565b906107e4565b608086015190610900565b915061076e846080015161076886608001516107688561071d896040015160016107589190610ec1565b60408b01516106f5906001610ec1565b90610900565b6107789083610ec1565b606084015190925061079090829061071d90806108e4565b61079a9083610ec1565b60a0840151608080870151908601519294505f926107b791610981565b6107c19190610ec1565b90506107d18261071d83806108e4565b6107db9084610ec1565b95945050505050565b5f815f0361080557604051630a0c22c760e01b815260040160405180910390fd5b816108206f4b3b4ca85a86c47a098a22400000000085610ee8565b6106b49190610f17565b92915050565b5f8061083c8385610ee8565b90508315806108535750826108518583610f17565b145b6108705760405163066f361360e11b815260040160405180910390fd5b610882670de0b6b3a764000082610f17565b949350505050565b5f806108968385610ee8565b90508315806108ad5750826108ab8583610f17565b145b6108ca5760405163066f361360e11b815260040160405180910390fd5b6108826f4b3b4ca85a86c47a098a22400000000082610f17565b5f6f4b3b4ca85a86c47a098a2240000000006108208385610ee8565b5f8061090c8385610ee8565b90505f81131561094757670de0b6b3a764000061092a600183610e9b565b6109349190610f17565b61093f906001610ec1565b91505061082a565b5f811215610978576001670de0b6b3a76400006109648383610ec1565b61096e9190610f17565b61093f9190610e9b565b505f9392505050565b5f815f036109a257604051630a0c22c760e01b815260040160405180910390fd5b825f036109b057505f61082a565b5f8212156109cf576109c182610f4f565b91506109cc83610f4f565b92505b5f831315610a12578160016109ec670de0b6b3a764000086610ee8565b6109f69190610e9b565b610a009190610f17565b610a0b906001610ec1565b905061082a565b600182610a27670de0b6b3a764000086610ee8565b610a32906001610ec1565b610a3c9190610f17565b6106b49190610e9b565b634e487b7160e01b5f52604160045260245ffd5b60405160a081016001600160401b0381118282101715610a7c57610a7c610a46565b60405290565b5f82601f830112610a91575f5ffd5b81516001600160401b03811115610aaa57610aaa610a46565b604051601f8201601f19908116603f011681016001600160401b0381118282101715610ad857610ad8610a46565b604052818152838201602001851015610aef575f5ffd5b8160208501602083015e5f918101602001919091529392505050565b5f60a08284031215610b1b575f5ffd5b610b23610a5a565b825181526020808401519082015260408084015190820152606080840151908201526080928301519281019290925250919050565b5f60408284031215610b68575f5ffd5b604080519081016001600160401b0381118282101715610b8a57610b8a610a46565b604052825181526020928301519281019290925250919050565b5f6101208284031215610bb5575f5ffd5b60405160e081016001600160401b0381118282101715610bd757610bd7610a46565b604052905080610be78484610b58565b8152610bf68460408501610b58565b6020820152608083810151604083015260a080850151606084015260c0808601519284019290925260e08501519083015261010090930151920191909152919050565b80516001600160a01b0381168114610c4f575f5ffd5b919050565b5f5f60408385031215610c65575f5ffd5b82516001600160401b03811115610c7a575f5ffd5b83016102208186031215610c8c575f5ffd5b610c94610a5a565b81516001600160401b03811115610ca9575f5ffd5b610cb587828501610a82565b82525060208201516001600160401b03811115610cd0575f5ffd5b610cdc87828501610a82565b602083015250610cef8660408401610b0b565b6040820152610d018660e08401610ba4565b60608201526102008201516001600160401b03811115610d1f575f5ffd5b610d2b87828501610a82565b6080830152509250610d41905060208401610c39565b90509250929050565b600181811c90821680610d5e57607f821691505b602082108103610d7c57634e487b7160e01b5f52602260045260245ffd5b50919050565b601f82111561033d57805f5260205f20601f840160051c81016020851015610da75750805b601f840160051c820191505b81811015610dc6575f8155600101610db3565b5050505050565b81516001600160401b03811115610de657610de6610a46565b610dfa81610df48454610d4a565b84610d82565b6020601f821160018114610e2c575f8315610e155750848201515b5f19600385901b1c1916600184901b178455610dc6565b5f84815260208120601f198516915b82811015610e5b5787850151825560209485019460019092019101610e3b565b5084821015610e7857868401515f19600387901b60f8161c191681555b50505050600190811b01905550565b634e487b7160e01b5f52601160045260245ffd5b8181035f831280158383131683831282161715610eba57610eba610e87565b5092915050565b8082018281125f831280158216821582161715610ee057610ee0610e87565b505092915050565b8082025f8212600160ff1b84141615610f0357610f03610e87565b818105831482151761082a5761082a610e87565b5f82610f3157634e487b7160e01b5f52601260045260245ffd5b600160ff1b82145f1984141615610f4a57610f4a610e87565b500590565b5f600160ff1b8201610f6357610f63610e87565b505f0390565b60805160a05160c05160e05161010051610120516101405161016051610180516101a0516101c0516101e05161020051610220516102405161026051610280516102a05161483d6111085f395f81816116a401526118e301525f818161167d015261190901525f8181611656015261192f01525f818161162f015261195701525f8181611608015261197c01525f81816115e1015261185001525f81816115ba015261187501525f8181611593015261189801525f818161156d01526118c001525f8181611547015261177f01525f818161152101526117a901525f81816114fb01526117d301525f81816114d501526117fd01525f81816114af015261182701525f8181610dc301528181610fa201528181611020015281816110d3015261116201525f81816105800152818161073c015281816107eb0152818161091b015281816109aa01528181610a3d01528181610ae901528181610c4701528181610ea601528181610f4f01528181611293015281816113a201528181611431015281816116fb0152611d3101525f611dcb01525f611da3015261483d5ff3fe608060405234801561000f575f5ffd5b50600436106101aa575f3560e01c806301ffc9a7146101ae57806306fdde03146101e7578063095ea7b3146101fc57806316a0b3e01461020f57806318160ddd1461023057806323b872dd1461023857806323de66511461024b578063273c1adf146102605780632aa881f81461026e57806330adf81f14610283578063313ce567146102975780633644e515146102a657806354fd4d50146102ae5780635687f2b8146102b6578063627cdcb9146102c9578063654cf15d146102d1578063679aefce146102df57806370a08231146102e757806372c98186146102fa5780637be219a21461030d5780637ecebe00146103ab57806381fa807c146103be57806384b0196e146103db5780638d928af8146103f657806395d89b411461040b578063984de9e814610413578063a9059cbb14610426578063aa6ca80814610439578063abb1dc441461044e578063b156aa0a14610466578063b677fa561461047b578063ce20ece714610489578063d335b0cf14610494578063d505accf1461049c578063dd292ce4146104af578063dd62ed3e146104c4575b5f5ffd5b6101d26101bc366004613956565b6001600160e01b0319166301ffc9a760e01b1490565b60405190151581526020015b60405180910390f35b6101ef6104d7565b6040516101de91906139ab565b6101d261020a3660046139dc565b610567565b61022261021d366004613b43565b610605565b6040519081526020016101de565b610222610723565b6101d2610246366004613b8c565b6107b5565b61025e610259366004613b8c565b610862565b005b674563918244f40000610222565b6102766108bc565b6040516101de9190613c04565b6102225f5160206147e85f395f51905f5281565b604051601281526020016101de565b610222610b89565b6101ef610b92565b61025e6102c4366004613b8c565b610ba1565b61025e610bee565b670de0b6b3a7640000610222565b610222610bfa565b6102226102f5366004613c95565b610c2e565b610222610308366004613d32565b610cbd565b610315610d81565b604080518351815260208085015181830152848301518284015260608086015181840152608095860151868401528451805160a0808601919091529083015160c08086019190915283870151805160e0870152909301516101008501529385015161012084015284015161014083015293830151610160820152908201516101808201529101516101a08201526101c0016101de565b6102226103b9366004613c95565b610da1565b6103c6610dbe565b604080519283526020830191909152016101de565b6103e3610e62565b6040516101de9796959493929190613e06565b6103fe610ea4565b6040516101de9190613e75565b6101ef610ec8565b610222610421366004613e89565b610ed7565b6101d26104343660046139dc565b610f36565b610441610f88565b6040516101de9190613f10565b610456611018565b6040516101de9493929190613f36565b61046e6110b9565b6040516101de9190613fec565b670853a0d2313c0000610222565b64e8d4a51000610222565b610222611149565b61025e6104aa366004613ffe565b611197565b6104b7611319565b6040516101de919061406f565b6102226104d2366004614153565b6116cc565b6060600380546104e69061417f565b80601f01602080910402602001604051908101604052809291908181526020018280546105129061417f565b801561055d5780601f106105345761010080835404028352916020019161055d565b820191905f5260205f20905b81548152906001019060200180831161054057829003601f168201915b5050505050905090565b60405163e1f21c6760e01b81525f906001600160a01b037f0000000000000000000000000000000000000000000000000000000000000000169063e1f21c67906105b9903390879087906004016141b7565b6020604051808303815f875af11580156105d5573d5f5f3e3d5ffd5b505050506040513d601f19601f820116820180604052508101906105f991906141ea565b50600190505b92915050565b5f5f5f61061061176d565b9150915061061c6138aa565b5f5f6106298986866119a3565b91509150604051806040016040528061065961064e8a610653868861064e9190614217565b611c0e565b90611c18565b815260200161067061064e8a61065382878961423e565b905280519093506ab48e51940c76a45816e51f60251b12156106a55760405163dc10196f60e01b815260040160405180910390fd5b50505f865f036106e8576106dd6106d5896001815181106106c8576106c8614264565b6020026020010151611c0e565b858585611c44565b5090915061070e9050565b610708610700895f815181106106c8576106c8614264565b858585611ccd565b50909150505b61071781611c0e565b98975050505050505050565b6040516339370aa960e21b81525f906001600160a01b037f0000000000000000000000000000000000000000000000000000000000000000169063e4dc2aa490610771903090600401613e75565b602060405180830381865afa15801561078c573d5f5f3e3d5ffd5b505050506040513d601f19601f820116820180604052508101906107b09190614278565b905090565b604051630aed65f560e11b81523360048201526001600160a01b0384811660248301528381166044830152606482018390525f917f0000000000000000000000000000000000000000000000000000000000000000909116906315dacbea906084016020604051808303815f875af1158015610833573d5f5f3e3d5ffd5b505050506040513d601f19601f8201168201806040525081019061085791906141ea565b506001949350505050565b61086a611d26565b816001600160a01b0316836001600160a01b03167fddf252ad1be2c89b69c2b068fc378daa952ba7f163c4a11628f55a4df523b3ef836040516108af91815260200190565b60405180910390a3505050565b61090460405180610100016040528060608152602001606081526020015f81526020015f81526020015f81526020015f151581526020015f151581526020015f151581525090565b6040516329ae7ec560e11b81526001600160a01b037f0000000000000000000000000000000000000000000000000000000000000000169063535cfd8a90610950903090600401613e75565b5f60405180830381865afa15801561096a573d5f5f3e3d5ffd5b505050506040513d5f823e601f3d908101601f1916820160405261099191908101906142ea565b8152604051633f1b0def60e11b81526001600160a01b037f00000000000000000000000000000000000000000000000000000000000000001690637e361bde906109df903090600401613e75565b5f60405180830381865afa1580156109f9573d5f5f3e3d5ffd5b505050506040513d5f823e601f3d908101601f19168201604052610a20919081019061431b565b60208301525060405163b45090f960e01b81526001600160a01b037f0000000000000000000000000000000000000000000000000000000000000000169063b45090f990610a72903090600401613e75565b602060405180830381865afa158015610a8d573d5f5f3e3d5ffd5b505050506040513d601f19601f82011682018060405250810190610ab19190614278565b6040820152610abe610723565b6060820152610acb610bfa565b608082015260405163f29486a160e01b81525f906001600160a01b037f0000000000000000000000000000000000000000000000000000000000000000169063f29486a190610b1e903090600401613e75565b6101a060405180830381865afa158015610b3a573d5f5f3e3d5ffd5b505050506040513d601f19601f82011682018060405250810190610b5e9190614424565b60e080820151151560a0850152610100820151151560c0850152610120909101511515908301525090565b5f6107b0611d73565b6060600580546104e69061417f565b610ba9611d26565b816001600160a01b0316836001600160a01b03167f8c5be1e5ebec7d5bd14f71427d1e84f3dd0314c0f7b2291e5b200ac8c7c3b925836040516108af91815260200190565b610bf733611e1b565b50565b5f610c03610ea4565b6001600160a01b0316634f037ee7306040518263ffffffff1660e01b81526004016107719190613e75565b604051633de222bb60e21b81525f906001600160a01b037f0000000000000000000000000000000000000000000000000000000000000000169063f7888aec90610c7e90309086906004016144dd565b602060405180830381865afa158015610c99573d5f5f3e3d5ffd5b505050506040513d601f19601f820116820180604052508101906105ff9190614278565b5f610cc6611d26565b6060820151155f80610cd661176d565b91509150610ce26138aa565b5f5f610cf3886040015186866119a3565b915091506040518060400160405280826002610d0f91906144f7565b610d199085614217565b8152602001929092525090505f86516001811115610d3957610d39613f22565b03610d65575f610d558760400151886020015187878787611e3d565b50909650610d7c95505050505050565b5f610d558760400151886020015187878787611efd565b919050565b610d896138c2565b610d916138ec565b610d9961176d565b915091509091565b6001600160a01b0381165f908152600260205260408120546105ff565b5f5f5f7f00000000000000000000000000000000000000000000000000000000000000006001600160a01b031663f29486a1306040518263ffffffff1660e01b8152600401610e0d9190613e75565b6101a060405180830381865afa158015610e29573d5f5f3e3d5ffd5b505050506040513d601f19601f82011682018060405250810190610e4d9190614424565b90508060400151925080606001519150509091565b5f6060805f5f5f6060610e73611fe7565b610e7b611ff5565b604080515f80825260208201909252600f60f81b9b939a50919850469750309650945092509050565b7f000000000000000000000000000000000000000000000000000000000000000090565b6060600480546104e69061417f565b5f5f5f610ee261176d565b915091505f5f610ef38785856119a3565b90925090506001866001811115610f0c57610f0c613f22565b03610f2957610f1e61064e828461423e565b9450505050506105ff565b610f1e61064e8284614217565b6040516317d5759960e31b81525f906001600160a01b037f0000000000000000000000000000000000000000000000000000000000000000169063beabacc8906105b9903390879087906004016141b7565b60405163ca4f280360e01b81526060906001600160a01b037f0000000000000000000000000000000000000000000000000000000000000000169063ca4f280390610fd7903090600401613e75565b5f60405180830381865afa158015610ff1573d5f5f3e3d5ffd5b505050506040513d5f823e601f3d908101601f191682016040526107b0919081019061458a565b6060806060807f00000000000000000000000000000000000000000000000000000000000000006001600160a01b03166367e0e076306040518263ffffffff1660e01b815260040161106a9190613e75565b5f60405180830381865afa158015611084573d5f5f3e3d5ffd5b505050506040513d5f823e601f3d908101601f191682016040526110ab91908101906145bb565b935093509350935090919293565b6040516329ae7ec560e11b81526060906001600160a01b037f0000000000000000000000000000000000000000000000000000000000000000169063535cfd8a90611108903090600401613e75565b5f60405180830381865afa158015611122573d5f5f3e3d5ffd5b505050506040513d5f823e601f3d908101601f191682016040526107b091908101906142ea565b60405163b45090f960e01b81525f906001600160a01b037f0000000000000000000000000000000000000000000000000000000000000000169063b45090f990610771903090600401613e75565b834211156111c05760405163313c898160e11b8152600481018590526024015b60405180910390fd5b5f5f5160206147e85f395f51905f528888886111db8c611e1b565b6040805160208101969096526001600160a01b0394851690860152929091166060840152608083015260a082015260c0810186905260e0016040516020818303038152906040528051906020012090505f61123582612004565b90505f61124482878787612030565b9050896001600160a01b0316816001600160a01b03161461127c57808a6040516325c0072360e11b81526004016111b79291906144dd565b60405163e1f21c6760e01b81526001600160a01b037f0000000000000000000000000000000000000000000000000000000000000000169063e1f21c67906112cc908d908d908d906004016141b7565b6020604051808303815f875af11580156112e8573d5f5f3e3d5ffd5b505050506040513d601f19601f8201168201806040525081019061130c91906141ea565b5050505050505050505050565b61138b60405180610200016040528060608152602001606081526020015f81526020015f81526020015f81526020015f81526020015f81526020015f81526020015f81526020015f81526020015f81526020015f81526020015f81526020015f81526020015f81526020015f81525090565b60405163ca4f280360e01b81526001600160a01b037f0000000000000000000000000000000000000000000000000000000000000000169063ca4f2803906113d7903090600401613e75565b5f60405180830381865afa1580156113f1573d5f5f3e3d5ffd5b505050506040513d5f823e601f3d908101601f19168201604052611418919081019061458a565b8152604051633f1b0def60e11b81526001600160a01b037f00000000000000000000000000000000000000000000000000000000000000001690637e361bde90611466903090600401613e75565b5f60405180830381865afa158015611480573d5f5f3e3d5ffd5b505050506040513d5f823e601f3d908101601f191682016040526114a7919081019061431b565b5060208201527f000000000000000000000000000000000000000000000000000000000000000060408201527f000000000000000000000000000000000000000000000000000000000000000060608201527f000000000000000000000000000000000000000000000000000000000000000060808201527f000000000000000000000000000000000000000000000000000000000000000060a08201527f000000000000000000000000000000000000000000000000000000000000000060c08201527f000000000000000000000000000000000000000000000000000000000000000060e08201527f00000000000000000000000000000000000000000000000000000000000000006101008201527f00000000000000000000000000000000000000000000000000000000000000006101208201527f00000000000000000000000000000000000000000000000000000000000000006101408201527f00000000000000000000000000000000000000000000000000000000000000006101608201527f00000000000000000000000000000000000000000000000000000000000000006101808201527f00000000000000000000000000000000000000000000000000000000000000006101a08201527f00000000000000000000000000000000000000000000000000000000000000006101c08201527f00000000000000000000000000000000000000000000000000000000000000006101e082015290565b60405163927da10560e01b81523060048201526001600160a01b03838116602483015282811660448301525f917f00000000000000000000000000000000000000000000000000000000000000009091169063927da10590606401602060405180830381865afa158015611742573d5f5f3e3d5ffd5b505050506040513d601f19601f820116820180604052508101906117669190614278565b9392505050565b6117756138c2565b61177d6138ec565b7f00000000000000000000000000000000000000000000000000000000000000006080808401919091527f00000000000000000000000000000000000000000000000000000000000000006060808501919091527f00000000000000000000000000000000000000000000000000000000000000006040808601919091527f00000000000000000000000000000000000000000000000000000000000000006020808701919091527f000000000000000000000000000000000000000000000000000000000000000086528451858201517f0000000000000000000000000000000000000000000000000000000000000000818401527f000000000000000000000000000000000000000000000000000000000000000090527f0000000000000000000000000000000000000000000000000000000000000000918101919091527f000000000000000000000000000000000000000000000000000000000000000090527f000000000000000000000000000000000000000000000000000000000000000060c08501527f000000000000000000000000000000000000000000000000000000000000000060a08501527f0000000000000000000000000000000000000000000000000000000000000000928401929092527f0000000000000000000000000000000000000000000000000000000000000000908301527f0000000000000000000000000000000000000000000000000000000000000000908201529091565b5f5f5f5f6119bc875f815181106106c8576106c8614264565b6119d2886001815181106106c8576106c8614264565b9092509050697b426fab61f00de3639960221b6119ef8284614217565b1315611a0e57604051632da2a5e560e01b815260040160405180910390fd5b5f611a1b83838989612046565b90505f5f611a2b85858b8b6121a2565b915091505f821315611a5d57611a56611a458360026144f7565b611a50836001614217565b90612241565b9050611a87565b5f8113611a6e57633b9aca00611a84565b611a8461064e611a7d83611c0e565b6005612306565b90505b806b012ced32a16a1b11e826288960261b611ab0611aa58789614217565b60808d01519061251a565b611aba919061472a565b611ac49190614217565b611acf906001614217565b611ada9060146144f7565b90505f611b1a6b012ced32a16a1b11e826288960261b611afa8c8c61259b565b611b04919061423e565b6b012ced32a16a1b11e826288960261b90612698565b90505f611b3c8284611b2c8789614217565b611b36919061423e565b906126dd565b9050611b4883836127ab565b60808c01519093506b012ced32a16a1b11e826288960261b906a0c097ce7bc90715b34b9f160241b90611b7b90806144f7565b611b85919061472a565b611b8f83856127ab565b611b9991906144f7565b611ba49060286144f7565b611bae919061472a565b611bb89084614217565b611bc3906001614217565b92506ab48e51940c76a45816e51f60251b611bde8483614217565b1315611bfd5760405163dc10196f60e01b815260040160405180910390fd5b9b919a509098505050505050505050565b5f6105ff82612842565b5f80611c248385614756565b90506001670de0b6b3a76400006001830304018115150291505092915050565b5f5f5f611c52868686612856565b9150611c5f86868661290d565b90505f6040518060400160405280838152602001848152509050611cc087608001518989604001518a60600151898660405180604001604052808e5f01515f0151611ca99061476d565b81528e5160209081015191015260c08e01516129a7565b9350509450945094915050565b5f5f5f611cdb868686612856565b9150611ce886868661290d565b90505f6040518060400160405280848152602001838152509050611cc087608001518989606001518a6040015189868c602001518d60c001516129a7565b336001600160a01b037f00000000000000000000000000000000000000000000000000000000000000001614611d71573360405163089676d560e01b81526004016111b79190613e75565b565b5f6107b0604080517f8b73c3c69bb8fe3d512ecc4cf759cc79239f7b179b0ffacaa9a75d522b39400f60208201527f0000000000000000000000000000000000000000000000000000000000000000918101919091527f000000000000000000000000000000000000000000000000000000000000000060608201524660808201523060a08201525f9060c00160405160208183030381529060405280519060200120905090565b6001600160a01b03165f90815260026020526040902080546001810190915590565b5f5f5f6139305f5f8915611e5b5750611ccd91505f90506001611e67565b50611c449150600190505f5b5f611e938c8e8560ff1681518110611e8157611e81614264565b602002602001015161064e9190614787565b9050611ea28a8a8a8487612c71565b5f611eb3828c8c8c8963ffffffff16565b90985096509050611ec381611c0e565b8e8460ff1681518110611ed857611ed8614264565b6020026020010151611eea919061479a565b9750505050505096509650969350505050565b5f5f5f6139305f5f8915611f1b5750611c4491505f90506001611f27565b50611ccd9150600190505f5b8b8160ff1681518110611f3c57611f3c614264565b60200260200101518b1115611f64576040516301dd20c360e11b815260040160405180910390fd5b5f611f908c8e8460ff1681518110611f7e57611f7e614264565b602002602001015161064e919061479a565b90505f611fa3828c8c8c8963ffffffff16565b90985096509050611fb78b8b8b8488612c71565b8d8460ff1681518110611fcc57611fcc614264565b6020026020010151611fdd82611c0e565b611eea919061479a565b60605f80546104e69061417f565b6060600180546104e69061417f565b5f6105ff612010611d73565b8360405161190160f01b8152600281019290925260228201526042902090565b5f61203d85858585612d1a565b95945050505050565b60c08101515f9081906120599080612d5f565b90505f61209e8261209887608001518760a001516120888a608001518a60800151612d7a90919063ffffffff16565b6120929190614217565b90612d7a565b90612698565b90506120cb816120bb876060015189612dae90919063ffffffff16565b6040880151611b2c908b90612dae565b92505f6120f386604001516120ed88608001518a612dae90919063ffffffff16565b90612dae565b61211287606001516120ed89608001518c612dae90919063ffffffff16565b61211c9190614217565b905061213f61213884876040015161269890919063ffffffff16565b82906126dd565b6121499085614217565b9350612162866040015188612dae90919063ffffffff16565b6060870151612172908a90612dae565b61217c9190614217565b905061219861213884876060015161269890919063ffffffff16565b6107179085614217565b5f5f6121b086868686612dc2565b6121bc87878787612f0f565b6121c69190614217565b91506121d486868686613055565b6121de9083614217565b91506b012ced32a16a1b11e826288960261b6121fa868061251a565b612204888061251a565b61220e9190614217565b612218919061472a565b90505f8213612227575f612236565b61223661064e611a7d84611c0e565b915094509492505050565b5f815f0361226257604051630a0c22c760e01b815260040160405180910390fd5b825f0361227057505f6105ff565b5f82121561228f576122818261476d565b915061228c8361476d565b92505b5f8313156122d2578160016122ac670de0b6b3a7640000866144f7565b6122b6919061423e565b6122c0919061472a565b6122cb906001614217565b90506105ff565b6001826122e7670de0b6b3a7640000866144f7565b6122f2906001614217565b6122fc919061472a565b611766919061423e565b5f825f0361231557505f6105ff565b5f61231f84613188565b9050600281612336670de0b6b3a764000087614756565b61234091906147ad565b61234a9083614787565b61235491906147ad565b905060028161236b670de0b6b3a764000087614756565b61237591906147ad565b61237f9083614787565b61238991906147ad565b90506002816123a0670de0b6b3a764000087614756565b6123aa91906147ad565b6123b49083614787565b6123be91906147ad565b90506002816123d5670de0b6b3a764000087614756565b6123df91906147ad565b6123e99083614787565b6123f391906147ad565b905060028161240a670de0b6b3a764000087614756565b61241491906147ad565b61241e9083614787565b61242891906147ad565b905060028161243f670de0b6b3a764000087614756565b61244991906147ad565b6124539083614787565b61245d91906147ad565b9050600281612474670de0b6b3a764000087614756565b61247e91906147ad565b6124889083614787565b61249291906147ad565b90505f61249f8280613363565b90506124ab8285611c18565b6124b59086614787565b81111580156124d757506124c98285611c18565b6124d3908661479a565b8110155b6125125760405162461bcd60e51b815260206004820152600c60248201526b17dcdc5c9d0811905253115160a21b60448201526064016111b7565b509392505050565b5f8061252683856144f7565b90505f81131561256157670de0b6b3a764000061254460018361423e565b61254e919061472a565b612559906001614217565b9150506105ff565b5f811215612592576001670de0b6b3a764000061257e8383614217565b612588919061472a565b612559919061423e565b505f9392505050565b60c08101515f9081906125b8906125b28180612d5f565b90612d5f565b90506125e56125da826120988660600151876040015160026125b291906144f7565b60808601519061251a565b9150612625846080015161261f866080015161261f856120988960400151600161260f9190614217565b60408b01516125b2906001614217565b9061251a565b61262f9083614217565b60608401519092506126479082906120989080612d5f565b6126519083614217565b91505f8360a001516126748660800151866080015161224190919063ffffffff16565b61267e9190614217565b905061268e826120988380612d5f565b61203d9084614217565b5f815f036126b957604051630a0c22c760e01b815260040160405180910390fd5b816126d36b012ced32a16a1b11e826288960261b856144f7565b611766919061472a565b5f806126f1678ac7230489e800008461472a565b90505f612706678ac7230489e80000856147c0565b90505f61271383876144f7565b90505f61272083886144f7565b90505f821215801561273257505f8112155b612779576001678ac7230489e8000061274b818461472a565b6127559085614217565b612760906001614217565b61276a919061472a565b612774919061423e565b6127a0565b678ac7230489e8000061278c818361472a565b6127969084614217565b6127a0919061472a565b979650505050505050565b5f806127bf678ac7230489e800008461472a565b90505f6127d4678ac7230489e80000856147c0565b90505f6127e183876144f7565b90505f6127ee83886144f7565b90505f821315801561280057505f8113155b61277957678ac7230489e800006001612819828461472a565b6128239085614217565b61282d919061423e565b612837919061472a565b612774906001614217565b5f5f821261284e575090565b610d7c61338b565b60c08201516020830151515f91829161286e91612698565b90505f84602001515f0151136128b0576128ab816128a587604001516120ed89608001518860200151612dae90919063ffffffff16565b906127ab565b6128cf565b6040850151608086015184516128cf9284926128a59261261f9161251a565b91506129036128f38560c0015186602001516020015161269890919063ffffffff16565b606087015185516128a59161251a565b61203d9083614217565b60c08201518251515f91829161292291612698565b8451519091505f1361295557612950816128a587606001516120ed896080015188602001516120ed9061476d565b61297c565b61297c6129618261476d565b6060870151608088015186516128a5929161261f919061251a565b60c08501518551602001519193506129039161299791612698565b604087015185516128a59161251a565b5f6129b06138aa565b6129cd8a6120926b012ced32a16a1b11e826288960261b82612d7a565b6129e6906b012ced32a16a1b11e826288960261b61423e565b8152612a058a611a506b012ced32a16a1b11e826288960261b82612241565b612a1e906b012ced32a16a1b11e826288960261b61423e565b6020820152612a2b613938565b85515f90612a39908c61423e565b90505f811315612a6f576020830151612a6590612a569087612698565b6128a58b6120ed8e818761476d565b6020830152612a9f565b8251612a9990612a7f9087612698565b612a8a906001614217565b6128a58b61261f8e818761476d565b60208301525b612aa76138aa565b612ac6866120988d6120ed8f8960200151612dae90919063ffffffff16565b81528351612ad4908c61251a565b6020820152612af6612ae7876001614217565b6020830151612098908e61251a565b612b01906001614217565b60208201526040805180820190915281518190612b2d906b012ced32a16a1b11e826288960261b61423e565b815260200182602001516b012ced32a16a1b11e826288960261b612b51919061423e565b90529050612b648c8a8f8e8e8c8c613398565b612b6d9061476d565b6040840152602080820151908a0151612b8b9190611b369080612dae565b8360400151612b9a9190614217565b604084018190525f12612bad575f612bc0565b612bc061064e611a7d8560400151611c0e565b6040840181905260208401515f91612bd79161423e565b1315612c2c57612c25612c0682602001516b012ced32a16a1b11e826288960261b61269890919063ffffffff16565b612c11906001614217565b846040015185602001516128a5919061423e565b8352612c4f565b8051612c4c90612c11906b012ced32a16a1b11e826288960261b90612698565b83525b60208801518351612c609190614217565b9d9c50505050505050505050505050565b8060ff165f03612cc9575f612c8786868661367e565b9050697b426fab61f00de3639960221b8313158015612ca65750808313155b612cc3576040516301dd20c360e11b815260040160405180910390fd5b50612d13565b5f612cd5868686613736565b9050697b426fab61f00de3639960221b8313158015612cf45750808313155b612d11576040516301dd20c360e11b815260040160405180910390fd5b505b5050505050565b5f604051855f5260ff851660205283604052826060526020600160805f60015afa5191503d612d5057638baa579f5f526004601cfd5b5f606052604052949350505050565b5f6b012ced32a16a1b11e826288960261b6126d383856144f7565b5f815f03612d9b57604051630a0c22c760e01b815260040160405180910390fd5b816126d3670de0b6b3a7640000856144f7565b5f670de0b6b3a76400006126d383856144f7565b5f5f612dfe84606001516120ed86604001516002612de091906144f7565b612dea898061251a565b612df48b80612dae565b6120ed919061423e565b90505f612e16612e0f8860026144f7565b8790612dae565b6060860151909150612e2c906120ed8382612dae565b6040860151612e3f906120ed8482612dae565b612e499084614217565b612e53919061423e565b91505f612e818660800151612092886080015161209289606001518a60800151612d5f90919063ffffffff16565b604086015160a0870151612e9491612d5f565b612e9e9190614217565b9050612ed68660800151612ec387606001518860a00151612d5f90919063ffffffff16565b6040880151608089015161208891612d5f565b612ee09082614217565b60c0860151909150612f0390612efc906125b281818180612d5f565b8290612698565b905061071783826126dd565b60608201515f908190612f289061261f8181898061251a565b6040850151612f3d9061261f81818b8061251a565b612f479190614217565b9050612f6f84606001516120ed86604001516002612f6591906144f7565b6120ed8a8a612dae565b612f79908261423e565b608085015160608501519192505f91612f9b9190612092908290829080612d5f565b612fbc86608001516120928760600151886040015160026125b291906144f7565b6040860151612fcb9080612d5f565b612fd59190614217565b612fdf9190614217565b60c0850151909150612ffb90612efc906125b281818180612d5f565b905061300a81611b368461476d565b925061304b6130358560c001516b012ced32a16a1b11e826288960261b61269890919063ffffffff16565b6080870151611b3690612092818160098961423e565b6127a09084614217565b60408201515f90819061306e9061261f8181898061251a565b60608501516130839061261f81818b8061251a565b61308d9190614217565b90506130b5846040015161261f866060015160026130ab91906144f7565b61261f8a8a61251a565b6130bf9082614217565b608080860151908501519192505f916130e19190612092908290829080612d5f565b60a08501516130f09080612d5f565b6130fa9190614217565b905061311d856080015161209286608001518760a0015160026125b291906144f7565b6131279082614217565b60c085015190915061314390612efc906125b281818180612d5f565b905061315281611b368461476d565b925061304b61317d8560c001516b012ced32a16a1b11e826288960261b61269890919063ffffffff16565b611b3660098561423e565b5f670de0b6b3a764000082106131c157670de0b6b3a76400006131b36131ae82856147ad565b6137d5565b6001901b6105ff9190614756565b600a82116131d4575063bc7c871c919050565b606482116131e857506402540be400919050565b6103e882116131fd575064075cdd4719919050565b6127108211613212575064174876e800919050565b620186a0821161322857506449a0a4c700919050565b620f4240821161323e575064e8d4a51000919050565b62989680821161325557506502e0466fc608919050565b6305f5e100821161326d57506509184e72a000919050565b633b9aca0082116132855750651cc2c05dbc53919050565b6402540be400821161329e5750655af3107a4000919050565b64174876e80082116132b8575066011f9b83a95b45919050565b64e8d4a5100082116132d2575066038d7ea4c68000919050565b6509184e72a00082116132ed5750660b3c13249d90bb919050565b655af3107a400082116133085750662386f26fc10000919050565b66038d7ea4c6800082116133245750667058bf6e27a751919050565b662386f26fc100008211613341575067016345785d8a0000919050565b67016345785d8a0000821161335f5750670463777a4d8c892d919050565b5090565b5f8061336f8385614756565b9050613383670de0b6b3a7640000826147ad565b949350505050565b6335278d125f526004601cfd5b5f5f60405180604001604052806133b88586612d5f90919063ffffffff16565b815289516020909101906133cc908061251a565b905290506133d8613938565b8151602086015186515f926133f292909161209891612d5f565b90505f8113156134385761341561340a8960026144f7565b60208501519061251a565b8252613431613425826007614217565b83516128a5908a61251a565b825261346b565b6134556134468960026144f7565b60208c01516120ed9080612dae565b8083526134689082906128a5908a612dae565b82525b85515f13156134c65785516134bc906134849087612698565b61348d9061476d565b613498906003614217565b6128a56134a68a60026144f7565b61261f8f8f5f015161251a90919063ffffffff16565b60208301526134fc565b85516134f6906134d69087612698565b6128a56134e48a60026144f7565b6120ed8f8f602001516120ed9061476d565b60208301525b6020820151825161350d9190614217565b82528251602087015161352591906120989080612d5f565b613530906007614217565b6020840151909150613542908961251a565b602083018190526135599082906128a5908b61251a565b602080840191909152860151613581906135739087612698565b6128a56134e48b60026144f7565b60408301526135908b8061251a565b826040015183602001516135a49190614217565b6135ae9190614217565b602083018190525f126135cf5760208201516135ca908a612d7a565b6135de565b60208201516135de908a612241565b6020830181905282516135f19190614217565b8083525f1261360b578151613606908a612d7a565b613617565b8151613617908a612241565b82528251865161362c91906120989080612d5f565b613637906007614217565b90505f6136558861261f8a876020015161251a90919063ffffffff16565b835190915061366482846127ab565b61366e9190614217565b9c9b505050505050505050505050565b60c08201518251516020840151515f92839261369e92612098919061423e565b90505f6136c48560c00151865f015160200151876020015160200151612098919061423e565b90506136ed82611b3688604001516120ed8a608001518960200151612dae90919063ffffffff16565b9250613722815f831361370f576060880151865161370a9161251a565b611b36565b60608801516020870151611b3691612dae565b61372c9084614217565b9695505050505050565b60c08201518251516020840151515f92839261375692612098919061423e565b90505f61377c8560c00151866020015160200151875f015160200151612098919061423e565b90506137a582611b3688606001516120ed8a608001518960200151612dae90919063ffffffff16565b9250613722815f83136137c2576040880151865161370a9161251a565b60408801516020870151611b3691612dae565b5f600160801b82106137f65760809190911c906137f3604082614787565b90505b600160401b82106138165760409190911c90613813602082614787565b90505b600160201b82106138365760209190911c90613833601082614787565b90505b6201000082106138555760109190911c90613852600882614787565b90505b61010082106138735760089190911c90613870600482614787565b90505b601082106138905760049190911c9061388d600282614787565b90505b60048210610d7c5760029190911c906105ff600182614787565b60405180604001604052805f81526020015f81525090565b6040518060a001604052805f81526020015f81526020015f81526020015f81526020015f81525090565b6040518060e001604052806138ff6138aa565b815260200161390c6138aa565b81526020015f81526020015f81526020015f81526020015f81526020015f81525090565b611d716147d3565b60405180606001604052805f81526020015f81526020015f81525090565b5f60208284031215613966575f5ffd5b81356001600160e01b031981168114611766575f5ffd5b5f81518084528060208401602086015e5f602082860101526020601f19601f83011685010191505092915050565b602081525f611766602083018461397d565b6001600160a01b0381168114610bf7575f5ffd5b8035610d7c816139bd565b5f5f604083850312156139ed575f5ffd5b82356139f8816139bd565b946020939093013593505050565b634e487b7160e01b5f52604160045260245ffd5b60405160e081016001600160401b0381118282101715613a3c57613a3c613a06565b60405290565b60405161014081016001600160401b0381118282101715613a3c57613a3c613a06565b604051606081016001600160401b0381118282101715613a3c57613a3c613a06565b604051601f8201601f191681016001600160401b0381118282101715613aaf57613aaf613a06565b604052919050565b5f6001600160401b03821115613acf57613acf613a06565b5060051b60200190565b5f82601f830112613ae8575f5ffd5b8135613afb613af682613ab7565b613a87565b8082825260208201915060208360051b860101925085831115613b1c575f5ffd5b602085015b83811015613b39578035835260209283019201613b21565b5095945050505050565b5f5f5f60608486031215613b55575f5ffd5b83356001600160401b03811115613b6a575f5ffd5b613b7686828701613ad9565b9660208601359650604090950135949350505050565b5f5f5f60608486031215613b9e575f5ffd5b8335613ba9816139bd565b92506020840135613bb9816139bd565b929592945050506040919091013590565b5f8151808452602084019350602083015f5b82811015613bfa578151865260209586019590910190600101613bdc565b5093949350505050565b602081525f82516101006020840152613c21610120840182613bca565b90506020840151601f19848303016040850152613c3e8282613bca565b9150506040840151606084015260608401516080840152608084015160a084015260a0840151151560c084015260c0840151613c7e60e085018215159052565b5060e0840151801515610100850152509392505050565b5f60208284031215613ca5575f5ffd5b8135611766816139bd565b60028110610bf7575f5ffd5b8035610d7c81613cb0565b5f82601f830112613cd6575f5ffd5b81356001600160401b03811115613cef57613cef613a06565b613d02601f8201601f1916602001613a87565b818152846020838601011115613d16575f5ffd5b816020850160208301375f918101602001919091529392505050565b5f60208284031215613d42575f5ffd5b81356001600160401b03811115613d57575f5ffd5b820160e08185031215613d68575f5ffd5b613d70613a1a565b613d7982613cbc565b81526020828101359082015260408201356001600160401b03811115613d9d575f5ffd5b613da986828501613ad9565b6040830152506060828101359082015260808083013590820152613dcf60a083016139d1565b60a082015260c08201356001600160401b03811115613dec575f5ffd5b613df886828501613cc7565b60c083015250949350505050565b60ff60f81b8816815260e060208201525f613e2460e083018961397d565b8281036040840152613e36818961397d565b606084018890526001600160a01b038716608085015260a0840186905283810360c08501529050613e678185613bca565b9a9950505050505050505050565b6001600160a01b0391909116815260200190565b5f5f60408385031215613e9a575f5ffd5b82356001600160401b03811115613eaf575f5ffd5b613ebb85828601613ad9565b9250506020830135613ecc81613cb0565b809150509250929050565b5f8151808452602084019350602083015f5b82811015613bfa5781516001600160a01b0316865260209586019590910190600101613ee9565b602081525f6117666020830184613ed7565b634e487b7160e01b5f52602160045260245ffd5b608081525f613f486080830187613ed7565b82810360208401528086518083526020830191506020880192505f5b81811015613fc3578351805160028110613f8c57634e487b7160e01b5f52602160045260245ffd5b84526020818101516001600160a01b0316818601526040918201511515918501919091529390930192606090920191600101613f64565b50508381036040850152613fd78187613bca565b91505082810360608401526127a08185613bca565b602081525f6117666020830184613bca565b5f5f5f5f5f5f5f60e0888a031215614014575f5ffd5b873561401f816139bd565b9650602088013561402f816139bd565b95506040880135945060608801359350608088013560ff81168114614052575f5ffd5b9699959850939692959460a0840135945060c09093013592915050565b602081525f8251610200602084015261408c610220840182613ed7565b90506020840151601f198483030160408501526140a98282613bca565b9150506040840151606084015260608401516080840152608084015160a084015260a084015160c084015260c084015160e084015260e08401516101008401526101008401516101208401526101208401516101408401526101408401516101608401526101608401516101808401526101808401516101a08401526101a08401516101c08401526101c08401516101e08401526101e08401516102008401528091505092915050565b5f5f60408385031215614164575f5ffd5b823561416f816139bd565b91506020830135613ecc816139bd565b600181811c9082168061419357607f821691505b6020821081036141b157634e487b7160e01b5f52602260045260245ffd5b50919050565b6001600160a01b039384168152919092166020820152604081019190915260600190565b80518015158114610d7c575f5ffd5b5f602082840312156141fa575f5ffd5b611766826141db565b634e487b7160e01b5f52601160045260245ffd5b8082018281125f83128015821682158216171561423657614236614203565b505092915050565b8181035f83128015838313168383128216171561425d5761425d614203565b5092915050565b634e487b7160e01b5f52603260045260245ffd5b5f60208284031215614288575f5ffd5b5051919050565b5f82601f83011261429e575f5ffd5b81516142ac613af682613ab7565b8082825260208201915060208360051b8601019250858311156142cd575f5ffd5b602085015b83811015613b395780518352602092830192016142d2565b5f602082840312156142fa575f5ffd5b81516001600160401b0381111561430f575f5ffd5b6133838482850161428f565b5f5f6040838503121561432c575f5ffd5b82516001600160401b03811115614341575f5ffd5b61434d8582860161428f565b602085015190935090506001600160401b0381111561436a575f5ffd5b6143768582860161428f565b9150509250929050565b5f60808284031215614390575f5ffd5b604051608081016001600160401b03811182821017156143b2576143b2613a06565b6040529050806143c1836141db565b81526143cf602084016141db565b60208201526143e0604084016141db565b60408201526143f1606084016141db565b60608201525092915050565b805164ffffffffff81168114610d7c575f5ffd5b805163ffffffff81168114610d7c575f5ffd5b5f6101a0828403128015614436575f5ffd5b5061443f613a42565b6144498484614380565b81526080830151602082015260a0830151604082015260c0830151606082015261447560e084016143fd565b60808201526144876101008401614411565b60a082015261449961012084016141db565b60c08201526144ab61014084016141db565b60e08201526144bd61016084016141db565b6101008201526144d061018084016141db565b6101208201529392505050565b6001600160a01b0392831681529116602082015260400190565b8082025f8212600160ff1b8414161561451257614512614203565b81810583148215176105ff576105ff614203565b5f82601f830112614535575f5ffd5b8151614543613af682613ab7565b8082825260208201915060208360051b860101925085831115614564575f5ffd5b602085015b83811015613b3957805161457c816139bd565b835260209283019201614569565b5f6020828403121561459a575f5ffd5b81516001600160401b038111156145af575f5ffd5b61338384828501614526565b5f5f5f5f608085870312156145ce575f5ffd5b84516001600160401b038111156145e3575f5ffd5b6145ef87828801614526565b602087015190955090506001600160401b0381111561460c575f5ffd5b8501601f8101871361461c575f5ffd5b805161462a613af682613ab7565b8082825260208201915060206060840285010192508983111561464b575f5ffd5b6020840193505b828410156146b6576060848b031215614669575f5ffd5b614671613a65565b845161467c81613cb0565b8152602085015161468c816139bd565b602082015261469d604086016141db565b6040820152825260609390930192602090910190614652565b6040890151909650925050506001600160401b038111156146d5575f5ffd5b6146e18782880161428f565b606087015190935090506001600160401b038111156146fe575f5ffd5b61470a8782880161428f565b91505092959194509250565b634e487b7160e01b5f52601260045260245ffd5b5f8261473857614738614716565b600160ff1b82145f198414161561475157614751614203565b500590565b80820281158282048414176105ff576105ff614203565b5f600160ff1b820161478157614781614203565b505f0390565b808201808211156105ff576105ff614203565b818103818111156105ff576105ff614203565b5f826147bb576147bb614716565b500490565b5f826147ce576147ce614716565b500790565b634e487b7160e01b5f52605160045260245ffdfe6e71edae12b1b97f4d1f60370fef10105fa2faae0126114a169c64845d6126c9a2646970667358221220d8c77ef350c7d3f10514eb77259876409c27e87ff7ab3b8e3a4ffcceb7d13c0664736f6c634300081e0033","linkReferences":{}},"methodIdentifiers":{"DOMAIN_SEPARATOR()":"3644e515","PERMIT_TYPEHASH()":"30adf81f","allowance(address,address)":"dd62ed3e","approve(address,uint256)":"095ea7b3","balanceOf(address)":"70a08231","computeBalance(uint256[],uint256,uint256)":"16a0b3e0","computeInvariant(uint256[],uint8)":"984de9e8","decimals()":"313ce567","eip712Domain()":"84b0196e","emitApproval(address,address,uint256)":"5687f2b8","emitTransfer(address,address,uint256)":"23de6651","getAggregateFeePercentages()":"81fa807c","getCurrentLiveBalances()":"b156aa0a","getECLPParams()":"7be219a2","getGyroECLPPoolDynamicData()":"2aa881f8","getGyroECLPPoolImmutableData()":"dd292ce4","getMaximumInvariantRatio()":"273c1adf","getMaximumSwapFeePercentage()":"654cf15d","getMinimumInvariantRatio()":"b677fa56","getMinimumSwapFeePercentage()":"ce20ece7","getRate()":"679aefce","getStaticSwapFeePercentage()":"d335b0cf","getTokenInfo()":"abb1dc44","getTokens()":"aa6ca808","getVault()":"8d928af8","incrementNonce()":"627cdcb9","name()":"06fdde03","nonces(address)":"7ecebe00","onSwap((uint8,uint256,uint256[],uint256,uint256,address,bytes))":"72c98186","permit(address,address,uint256,uint256,uint8,bytes32,bytes32)":"d505accf","supportsInterface(bytes4)":"01ffc9a7","symbol()":"95d89b41","totalSupply()":"18160ddd","transfer(address,uint256)":"a9059cbb","transferFrom(address,address,uint256)":"23b872dd","version()":"54fd4d50"},"id":123}