{"abi":[{"type":"constructor","inputs":[{"name":"_forwarder","type":"address","internalType":"address"},{"name":"_ve","type":"address","internalType":"contract IVotes"},{"name":"_minter","type":"address","internalType":"address"}],"stateMutability":"nonpayable"},{"type":"receive","stateMutability":"payable"},{"type":"function","name":"BALLOT_TYPEHASH","inputs":[],"outputs":[{"name":"","type":"bytes32","internalType":"bytes32"}],"stateMutability":"view"},{"type":"function","name":"CLOCK_MODE","inputs":[],"outputs":[{"name":"","type":"string","internalType":"string"}],"stateMutability":"view"},{"type":"function","name":"COUNTING_MODE","inputs":[],"outputs":[{"name":"","type":"string","internalType":"string"}],"stateMutability":"pure"},{"type":"function","name":"EXTENDED_BALLOT_TYPEHASH","inputs":[],"outputs":[{"name":"","type":"bytes32","internalType":"bytes32"}],"stateMutability":"view"},{"type":"function","name":"castVote","inputs":[{"name":"proposalId","type":"uint256","internalType":"uint256"},{"name":"tokenId","type":"uint256","internalType":"uint256"},{"name":"support","type":"uint8","internalType":"uint8"}],"outputs":[{"name":"","type":"uint256","internalType":"uint256"}],"stateMutability":"nonpayable"},{"type":"function","name":"castVoteBySig","inputs":[{"name":"proposalId","type":"uint256","internalType":"uint256"},{"name":"tokenId","type":"uint256","internalType":"uint256"},{"name":"support","type":"uint8","internalType":"uint8"},{"name":"v","type":"uint8","internalType":"uint8"},{"name":"r","type":"bytes32","internalType":"bytes32"},{"name":"s","type":"bytes32","internalType":"bytes32"}],"outputs":[{"name":"","type":"uint256","internalType":"uint256"}],"stateMutability":"nonpayable"},{"type":"function","name":"castVoteWithReason","inputs":[{"name":"proposalId","type":"uint256","internalType":"uint256"},{"name":"tokenId","type":"uint256","internalType":"uint256"},{"name":"support","type":"uint8","internalType":"uint8"},{"name":"reason","type":"string","internalType":"string"}],"outputs":[{"name":"","type":"uint256","internalType":"uint256"}],"stateMutability":"nonpayable"},{"type":"function","name":"castVoteWithReasonAndParams","inputs":[{"name":"proposalId","type":"uint256","internalType":"uint256"},{"name":"tokenId","type":"uint256","internalType":"uint256"},{"name":"support","type":"uint8","internalType":"uint8"},{"name":"reason","type":"string","internalType":"string"},{"name":"params","type":"bytes","internalType":"bytes"}],"outputs":[{"name":"","type":"uint256","internalType":"uint256"}],"stateMutability":"nonpayable"},{"type":"function","name":"castVoteWithReasonAndParamsBySig","inputs":[{"name":"proposalId","type":"uint256","internalType":"uint256"},{"name":"tokenId","type":"uint256","internalType":"uint256"},{"name":"support","type":"uint8","internalType":"uint8"},{"name":"reason","type":"string","internalType":"string"},{"name":"params","type":"bytes","internalType":"bytes"},{"name":"v","type":"uint8","internalType":"uint8"},{"name":"r","type":"bytes32","internalType":"bytes32"},{"name":"s","type":"bytes32","internalType":"bytes32"}],"outputs":[{"name":"","type":"uint256","internalType":"uint256"}],"stateMutability":"nonpayable"},{"type":"function","name":"clock","inputs":[],"outputs":[{"name":"","type":"uint48","internalType":"uint48"}],"stateMutability":"view"},{"type":"function","name":"eip712Domain","inputs":[],"outputs":[{"name":"fields","type":"bytes1","internalType":"bytes1"},{"name":"name","type":"string","internalType":"string"},{"name":"version","type":"string","internalType":"string"},{"name":"chainId","type":"uint256","internalType":"uint256"},{"name":"verifyingContract","type":"address","internalType":"address"},{"name":"salt","type":"bytes32","internalType":"bytes32"},{"name":"extensions","type":"uint256[]","internalType":"uint256[]"}],"stateMutability":"view"},{"type":"function","name":"execute","inputs":[{"name":"targets","type":"address[]","internalType":"address[]"},{"name":"values","type":"uint256[]","internalType":"uint256[]"},{"name":"calldatas","type":"bytes[]","internalType":"bytes[]"},{"name":"descriptionHash","type":"bytes32","internalType":"bytes32"}],"outputs":[{"name":"","type":"uint256","internalType":"uint256"}],"stateMutability":"payable"},{"type":"function","name":"getVotes","inputs":[{"name":"account","type":"address","internalType":"address"},{"name":"tokenId","type":"uint256","internalType":"uint256"},{"name":"timepoint","type":"uint256","internalType":"uint256"}],"outputs":[{"name":"","type":"uint256","internalType":"uint256"}],"stateMutability":"view"},{"type":"function","name":"getVotesWithParams","inputs":[{"name":"account","type":"address","internalType":"address"},{"name":"tokenId","type":"uint256","internalType":"uint256"},{"name":"timepoint","type":"uint256","internalType":"uint256"},{"name":"params","type":"bytes","internalType":"bytes"}],"outputs":[{"name":"","type":"uint256","internalType":"uint256"}],"stateMutability":"view"},{"type":"function","name":"hasVoted","inputs":[{"name":"proposalId","type":"uint256","internalType":"uint256"},{"name":"tokenId","type":"uint256","internalType":"uint256"}],"outputs":[{"name":"","type":"bool","internalType":"bool"}],"stateMutability":"view"},{"type":"function","name":"hashProposal","inputs":[{"name":"targets","type":"address[]","internalType":"address[]"},{"name":"values","type":"uint256[]","internalType":"uint256[]"},{"name":"calldatas","type":"bytes[]","internalType":"bytes[]"},{"name":"epochStart","type":"bytes32","internalType":"bytes32"}],"outputs":[{"name":"","type":"uint256","internalType":"uint256"}],"stateMutability":"pure"},{"type":"function","name":"isTrustedForwarder","inputs":[{"name":"forwarder","type":"address","internalType":"address"}],"outputs":[{"name":"","type":"bool","internalType":"bool"}],"stateMutability":"view"},{"type":"function","name":"minter","inputs":[],"outputs":[{"name":"","type":"address","internalType":"address"}],"stateMutability":"view"},{"type":"function","name":"name","inputs":[],"outputs":[{"name":"","type":"string","internalType":"string"}],"stateMutability":"view"},{"type":"function","name":"onERC1155BatchReceived","inputs":[{"name":"","type":"address","internalType":"address"},{"name":"","type":"address","internalType":"address"},{"name":"","type":"uint256[]","internalType":"uint256[]"},{"name":"","type":"uint256[]","internalType":"uint256[]"},{"name":"","type":"bytes","internalType":"bytes"}],"outputs":[{"name":"","type":"bytes4","internalType":"bytes4"}],"stateMutability":"nonpayable"},{"type":"function","name":"onERC1155Received","inputs":[{"name":"","type":"address","internalType":"address"},{"name":"","type":"address","internalType":"address"},{"name":"","type":"uint256","internalType":"uint256"},{"name":"","type":"uint256","internalType":"uint256"},{"name":"","type":"bytes","internalType":"bytes"}],"outputs":[{"name":"","type":"bytes4","internalType":"bytes4"}],"stateMutability":"nonpayable"},{"type":"function","name":"onERC721Received","inputs":[{"name":"","type":"address","internalType":"address"},{"name":"","type":"address","internalType":"address"},{"name":"","type":"uint256","internalType":"uint256"},{"name":"","type":"bytes","internalType":"bytes"}],"outputs":[{"name":"","type":"bytes4","internalType":"bytes4"}],"stateMutability":"nonpayable"},{"type":"function","name":"proposalDeadline","inputs":[{"name":"proposalId","type":"uint256","internalType":"uint256"}],"outputs":[{"name":"","type":"uint256","internalType":"uint256"}],"stateMutability":"view"},{"type":"function","name":"proposalSnapshot","inputs":[{"name":"proposalId","type":"uint256","internalType":"uint256"}],"outputs":[{"name":"","type":"uint256","internalType":"uint256"}],"stateMutability":"view"},{"type":"function","name":"proposalThreshold","inputs":[],"outputs":[{"name":"","type":"uint256","internalType":"uint256"}],"stateMutability":"view"},{"type":"function","name":"proposalVotes","inputs":[{"name":"proposalId","type":"uint256","internalType":"uint256"}],"outputs":[{"name":"againstVotes","type":"uint256","internalType":"uint256"},{"name":"forVotes","type":"uint256","internalType":"uint256"},{"name":"abstainVotes","type":"uint256","internalType":"uint256"}],"stateMutability":"view"},{"type":"function","name":"propose","inputs":[{"name":"tokenId","type":"uint256","internalType":"uint256"},{"name":"targets","type":"address[]","internalType":"address[]"},{"name":"values","type":"uint256[]","internalType":"uint256[]"},{"name":"calldatas","type":"bytes[]","internalType":"bytes[]"},{"name":"","type":"string","internalType":"string"}],"outputs":[{"name":"","type":"uint256","internalType":"uint256"}],"stateMutability":"nonpayable"},{"type":"function","name":"quorum","inputs":[{"name":"","type":"uint256","internalType":"uint256"}],"outputs":[{"name":"","type":"uint256","internalType":"uint256"}],"stateMutability":"pure"},{"type":"function","name":"result","inputs":[],"outputs":[{"name":"","type":"uint8","internalType":"enum IGovernor.ProposalState"}],"stateMutability":"view"},{"type":"function","name":"state","inputs":[{"name":"proposalId","type":"uint256","internalType":"uint256"}],"outputs":[{"name":"","type":"uint8","internalType":"enum IGovernor.ProposalState"}],"stateMutability":"view"},{"type":"function","name":"supportsInterface","inputs":[{"name":"interfaceId","type":"bytes4","internalType":"bytes4"}],"outputs":[{"name":"","type":"bool","internalType":"bool"}],"stateMutability":"view"},{"type":"function","name":"token","inputs":[],"outputs":[{"name":"","type":"address","internalType":"contract IVotes"}],"stateMutability":"view"},{"type":"function","name":"trustedForwarder","inputs":[],"outputs":[{"name":"","type":"address","internalType":"address"}],"stateMutability":"view"},{"type":"function","name":"version","inputs":[],"outputs":[{"name":"","type":"string","internalType":"string"}],"stateMutability":"view"},{"type":"function","name":"votingDelay","inputs":[],"outputs":[{"name":"","type":"uint256","internalType":"uint256"}],"stateMutability":"pure"},{"type":"function","name":"votingPeriod","inputs":[],"outputs":[{"name":"","type":"uint256","internalType":"uint256"}],"stateMutability":"pure"},{"type":"event","name":"EIP712DomainChanged","inputs":[],"anonymous":false},{"type":"event","name":"ProposalCanceled","inputs":[{"name":"proposalId","type":"uint256","indexed":false,"internalType":"uint256"}],"anonymous":false},{"type":"event","name":"ProposalCreated","inputs":[{"name":"proposalId","type":"uint256","indexed":false,"internalType":"uint256"},{"name":"proposer","type":"address","indexed":false,"internalType":"address"},{"name":"targets","type":"address[]","indexed":false,"internalType":"address[]"},{"name":"values","type":"uint256[]","indexed":false,"internalType":"uint256[]"},{"name":"signatures","type":"string[]","indexed":false,"internalType":"string[]"},{"name":"calldatas","type":"bytes[]","indexed":false,"internalType":"bytes[]"},{"name":"voteStart","type":"uint256","indexed":false,"internalType":"uint256"},{"name":"voteEnd","type":"uint256","indexed":false,"internalType":"uint256"},{"name":"description","type":"string","indexed":false,"internalType":"string"}],"anonymous":false},{"type":"event","name":"ProposalExecuted","inputs":[{"name":"proposalId","type":"uint256","indexed":false,"internalType":"uint256"}],"anonymous":false},{"type":"event","name":"VoteCast","inputs":[{"name":"voter","type":"address","indexed":true,"internalType":"address"},{"name":"tokenId","type":"uint256","indexed":true,"internalType":"uint256"},{"name":"proposalId","type":"uint256","indexed":false,"internalType":"uint256"},{"name":"support","type":"uint8","indexed":false,"internalType":"uint8"},{"name":"weight","type":"uint256","indexed":false,"internalType":"uint256"},{"name":"reason","type":"string","indexed":false,"internalType":"string"}],"anonymous":false},{"type":"event","name":"VoteCastWithParams","inputs":[{"name":"voter","type":"address","indexed":true,"internalType":"address"},{"name":"tokenId","type":"uint256","indexed":true,"internalType":"uint256"},{"name":"proposalId","type":"uint256","indexed":false,"internalType":"uint256"},{"name":"support","type":"uint8","indexed":false,"internalType":"uint8"},{"name":"weight","type":"uint256","indexed":false,"internalType":"uint256"},{"name":"reason","type":"string","indexed":false,"internalType":"string"},{"name":"params","type":"bytes","indexed":false,"internalType":"bytes"}],"anonymous":false},{"type":"error","name":"FailedCall","inputs":[]}],"bytecode":{"object":"0x610100604052348015610010575f5ffd5b50604051612dda380380612dda83398101604081905261002f9161010e565b81836040518060400160405280600e81526020016d22b837b1b41023b7bb32b93737b960911b81525083816100686100dc60201b60201c565b6001600160a01b0385166080525f61008083826101f0565b50600161008d82826101f0565b50815160209283012060a052805191012060c05260026100ad83826101f0565b50600380546001600160a01b0319166001600160a01b039283161790559290921660e052506102aa9350505050565b6040805180820190915260018152603160f81b602082015290565b6001600160a01b038116811461010b575f5ffd5b50565b5f5f5f60608486031215610120575f5ffd5b835161012b816100f7565b602085015190935061013c816100f7565b604085015190925061014d816100f7565b809150509250925092565b634e487b7160e01b5f52604160045260245ffd5b600181811c9082168061018057607f821691505b60208210810361019e57634e487b7160e01b5f52602260045260245ffd5b50919050565b601f8211156101eb57805f5260205f20601f840160051c810160208510156101c95750805b601f840160051c820191505b818110156101e8575f81556001016101d5565b50505b505050565b81516001600160401b0381111561020957610209610158565b61021d81610217845461016c565b846101a4565b6020601f82116001811461024f575f83156102385750848201515b5f19600385901b1c1916600184901b1784556101e8565b5f84815260208120601f198516915b8281101561027e578785015182556020948501946001909201910161025e565b508482101561029b57868401515f19600387901b60f8161c191681555b50505050600190811b01905550565b60805160a05160c05160e051612ae86102f25f395f81816106ca01528181610ff30152818161113c01526114d401525f611b9f01525f611b7701525f6110d50152612ae85ff3fe6080604052600436106101a1575f3560e01c806301ffc9a7146101ac57806302a251a3146101e057806306fdde03146101ff57806307546172146102205780630f8a88361461025757806311fd26f414610276578063150b7a02146102955780632656227d146102d85780632d63f693146102eb5780632fe3e2611461030a5780633932abb11461032a5780633e4f49e61461033e5780634bf5d7e91461036a578063544ffc9c1461037e57806354fd4d50146103d1578063572b6c05146103fa57806364390ff11461041957806365372147146104565780637da0a8771461046f57806384b0196e1461048357806391ddadf4146104aa578063b58131b0146104d5578063bc197c81146104e7578063be443ad014610512578063c01f9e3714610531578063c2e863e414610550578063c59057e41461056f578063cf781d451461058e578063dd4e2ba5146105ad578063dea112a6146105f2578063deaaa7cc14610611578063f23a6e6114610631578063f8ce560a1461065c578063f945970a1461067b578063fa25f3771461069a578063fc0c546a146106b9575f5ffd5b366101a857005b5f5ffd5b3480156101b7575f5ffd5b506101cb6101c6366004611ce0565b6106ec565b60405190151581526020015b60405180910390f35b3480156101eb575f5ffd5b5062093a805b6040519081526020016101d7565b34801561020a575f5ffd5b50610213610758565b6040516101d79190611d3c565b34801561022b575f5ffd5b5060035461023f906001600160a01b031681565b6040516001600160a01b0390911681526020016101d7565b348015610262575f5ffd5b506101f1610271366004611f8e565b6107e8565b348015610281575f5ffd5b506101f161029036600461205f565b610d30565b3480156102a0575f5ffd5b506102bf6102af36600461208f565b630a85bd0160e11b949350505050565b6040516001600160e01b031990911681526020016101d7565b6101f16102e63660046120f2565b610d58565b3480156102f6575f5ffd5b506101f1610305366004612185565b610eda565b348015610315575f5ffd5b506101f15f516020612a935f395f51905f5281565b348015610335575f5ffd5b506103846101f1565b348015610349575f5ffd5b5061035d610358366004612185565b610ef4565b6040516101d791906121b0565b348015610375575f5ffd5b50610213610fef565b348015610389575f5ffd5b506103b6610398366004612185565b5f908152600860205260409020805460018201546002909201549092565b604080519384526020840192909252908201526060016101d7565b3480156103dc575f5ffd5b506040805180820190915260018152603160f81b6020820152610213565b348015610405575f5ffd5b506101cb6104143660046121d6565b6110af565b348015610424575f5ffd5b506101cb6104333660046121ef565b5f9182526008602090815260408084209284526003909201905290205460ff1690565b348015610461575f5ffd5b5060055461035d9060ff1681565b34801561047a575f5ffd5b5061023f6110d3565b34801561048e575f5ffd5b506104976110f7565b6040516101d79796959493929190612249565b3480156104b5575f5ffd5b506104be611139565b60405165ffffffffffff90911681526020016101d7565b3480156104e0575f5ffd5b505f6101f1565b3480156104f2575f5ffd5b506102bf6105013660046122b8565b63bc197c8160e01b95945050505050565b34801561051d575f5ffd5b506101f161052c3660046123ab565b6111c6565b34801561053c575f5ffd5b506101f161054b366004612185565b611222565b34801561055b575f5ffd5b506101f161056a366004612434565b61123f565b34801561057a575f5ffd5b506101f16105893660046120f2565b611298565b348015610599575f5ffd5b506101f16105a8366004612496565b6112d1565b3480156105b8575f5ffd5b506040805180820190915260208082527f737570706f72743d627261766f2671756f72756d3d666f722c6162737461696e90820152610213565b3480156105fd575f5ffd5b506101f161060c3660046124da565b6112e7565b34801561061c575f5ffd5b506101f15f516020612a735f395f51905f5281565b34801561063c575f5ffd5b506102bf61064b36600461250c565b63f23a6e6160e01b95945050505050565b348015610667575f5ffd5b506101f1610676366004612185565b505f90565b348015610686575f5ffd5b506101f161069536600461255f565b61130e565b3480156106a5575f5ffd5b506101f16106b436600461260e565b6113f3565b3480156106c4575f5ffd5b5061023f7f000000000000000000000000000000000000000000000000000000000000000081565b5f6001600160e01b0319821663e0c7633360e01b148061071c57506001600160e01b03198216631a2fb4eb60e21b145b8061073757506001600160e01b03198216630271189760e51b145b8061075257506301ffc9a760e01b6001600160e01b03198316145b92915050565b60606002805461076790612662565b80601f016020809104026020016040519081016040528092919081815260200182805461079390612662565b80156107de5780601f106107b5576101008083540402835291602001916107de565b820191905f5260205f20905b8154815290600101906020018083116107c157829003601f168201915b5050505050905090565b5f5f6107f261144a565b90505f6107fd611139565b65ffffffffffff1690505f610818838a6102906001866126ae565b101561088b5760405162461bcd60e51b815260206004820152603760248201527f476f7665726e6f7253696d706c653a2070726f706f73657220766f7465732062604482015276195b1bddc81c1c9bdc1bdcd85b081d1a1c995cda1bdb19604a1b60648201526084015b60405180910390fd5b86516001146108ec5760405162461bcd60e51b815260206004820152602760248201527f476f7665726e6f7253696d706c653a206f6e6c79206f6e652074617267657420604482015266185b1b1bddd95960ca1b6064820152608401610882565b60035487516001600160a01b039091169088905f9061090d5761090d6126c1565b60200260200101516001600160a01b0316146109775760405162461bcd60e51b815260206004820152602360248201527f476f7665726e6f7253696d706c653a206f6e6c79206d696e74657220616c6c6f6044820152621dd95960ea1b6064820152608401610882565b84516001146109da5760405162461bcd60e51b815260206004820152602960248201527f476f7665726e6f7253696d706c653a206f6e6c79206f6e652063616c6c6461746044820152681848185b1b1bddd95960ba1b6064820152608401610882565b8451634804532160e11b9086905f906109f5576109f56126c1565b6020026020010151610a06906126d5565b6001600160e01b03191614610a685760405162461bcd60e51b815260206004820152602260248201527f476f7665726e6f7253696d706c653a206f6e6c79206e7564676520616c6c6f77604482015261195960f21b6064820152608401610882565b5f610a784262093a808106900390565b610a859062093a80612713565b90505f610a9489898985611298565b90505f895111610ae65760405162461bcd60e51b815260206004820152601e60248201527f476f7665726e6f7253696d706c653a20656d7074792070726f706f73616c00006044820152606401610882565b5f81815260046020526040902054600160401b90046001600160a01b031615610b615760405162461bcd60e51b815260206004820152602760248201527f476f7665726e6f7253696d706c653a2070726f706f73616c20616c72656164796044820152662065786973747360c81b6064820152608401610882565b5f610b6e61038485612713565b90505f610b7e62093a8083612713565b90506040518060e00160405280610b9484611490565b6001600160401b031681526001600160a01b03881660208201525f6040820152606001610bc083611490565b6001600160401b0390811682525f60208084018290526040808501839052606094850183905288835260048252918290208551815492870151878501519186166001600160e01b031990941693909317600160401b6001600160a01b039094168402176001600160e01b0316600160e01b60e09290921c91909102178155938501516080860151908416921c0217600183015560a08301516002909201805460c09094015161ffff1990941692151561ff00191692909217610100931515939093029290921790558b517f7d84a6263ae0d98d3329bd7b46bb4e8d6f98cd35a7adb45c274c8b7fd5ebd5e091859189918f918f91811115610cc357610cc3611d4e565b604051908082528060200260200182016040528015610cf657816020015b6060815260200190600190039081610ce15790505b508e8888610d038d61149a565b604051610d18999897969594939291906127b9565b60405180910390a150909a9950505050505050505050565b5f610d50848484610d4b60408051602081019091525f815290565b6114a5565b949350505050565b5f5f610d694262093a808106900390565b90505f610d7887878785611298565b90505f610d8482610ef4565b90506004816007811115610d9a57610d9a61219c565b1480610db757506003816007811115610db557610db561219c565b145b80610dd357506006816007811115610dd157610dd161219c565b145b610e2f5760405162461bcd60e51b815260206004820152602760248201527f476f7665726e6f7253696d706c653a2070726f706f73616c206e6f742073756360448201526618d95cdcd99d5b60ca1b6064820152608401610882565b5f8281526004602052604090819020600201805460ff19166001179055517f712ae1383f79ac853f8d882153778e0260ef8f03b504e2866e0593e04d2b291f90610e7c9084815260200190565b60405180910390a16005805482919060ff19166001836007811115610ea357610ea361219c565b0217905550610eb5828989898961153f565b610ec282898989896115c4565b610ecf828989898961153f565b509695505050505050565b5f908152600460205260409020546001600160401b031690565b5f818152600460205260408120600281015460ff1615610f175750600792915050565b6002810154610100900460ff1615610f325750600292915050565b5f610f3c84610eda565b9050805f03610f995760405162461bcd60e51b815260206004820152602360248201527f476f7665726e6f7253696d706c653a20756e6b6e6f776e2070726f706f73616c604482015262081a5960ea1b6064820152608401610882565b5f610fa2611139565b65ffffffffffff169050808210610fbd57505f949350505050565b5f610fc786611222565b9050818110610fdc5750600195945050505050565b610fe586611692565b9695505050505050565b60607f00000000000000000000000000000000000000000000000000000000000000006001600160a01b0316634bf5d7e96040518163ffffffff1660e01b81526004015f60405180830381865afa92505050801561106e57506040513d5f823e601f3d908101601f1916820160405261106b9190810190612894565b60015b6110aa575060408051808201909152601d81527f6d6f64653d626c6f636b6e756d6265722666726f6d3d64656661756c74000000602082015290565b919050565b5f6110b86110d3565b6001600160a01b0316826001600160a01b0316149050919050565b7f000000000000000000000000000000000000000000000000000000000000000090565b5f6060805f5f5f60606111086116f5565b611110611703565b604080515f80825260208201909252600f60f81b9b939a50919850469750309650945092509050565b5f7f00000000000000000000000000000000000000000000000000000000000000006001600160a01b03166391ddadf46040518163ffffffff1660e01b8152600401602060405180830381865afa9250505080156111b4575060408051601f3d908101601f191682019092526111b191810190612908565b60015b6110aa576111c143611712565b905090565b5f5f6111d061144a565b90506112168882898989898080601f0160208091040260200160405190810160405280939291908181526020018383808284375f920191909152508b925061171c915050565b98975050505050505050565b5f908152600460205260409020600101546001600160401b031690565b5f5f61124961144a565b905061128d8782888888888080601f0160208091040260200160405190810160405280939291908181526020018383808284375f9201919091525061187992505050565b979650505050505050565b5f848484846040516020016112b0949392919061292d565b60408051601f19818403018152919052805160209091012095945050505050565b5f6112de858585856114a5565b95945050505050565b5f5f6112f161144a565b90506112de8582868660405180602001604052805f815250611879565b5f5f61139e6113965f516020612a935f395f51905f528d8c8c8c604051611336929190612977565b60405180910390208b8051906020012060405160200161137b959493929190948552602085019390935260ff9190911660408401526060830152608082015260a00190565b6040516020818303038152906040528051906020012061189b565b8686866118c7565b90506113e48b828c8c8c8c8080601f0160208091040260200160405190810160405280939291908181526020018383808284375f920191909152508e925061171c915050565b9b9a5050505050505050505050565b604080515f516020612a735f395f51905f52602082015290810187905260ff851660608201525f90819061142d906113969060800161137b565b90506112168882898960405180602001604052805f815250611879565b5f3660148082108015906114625750611462336110af565b156114885761147536828403815f612986565b61147e916129ad565b60601c9250505090565b339250505090565b5f610752826118d4565b6060610752826118ec565b604051634d6fb77560e01b81526001600160a01b03858116600483015260248201859052604482018490525f917f000000000000000000000000000000000000000000000000000000000000000090911690634d6fb77590606401602060405180830381865afa15801561151b573d5f5f3e3d5ffd5b505050506040513d601f19601f820116820180604052508101906112de91906129e5565b6115bd565b818110156115ba57306001600160a01b0316868281518110611568576115686126c1565b60200260200101516001600160a01b0316036115b2576115b2848281518110611593576115936126c1565b602002602001015180519060200120600661192e90919063ffffffff16565b600101611544565b50505b5050505050565b83515f5b818110156115ba575f5f8783815181106115e4576115e46126c1565b60200260200101516001600160a01b0316878481518110611607576116076126c1565b6020026020010151878581518110611621576116216126c1565b602002602001015160405161163691906129fc565b5f6040518083038185875af1925050503d805f8114611670576040519150601f19603f3d011682016040523d82523d5f602084013e611675565b606091505b5091509150611684828261194f565b5050508060010190506115c8565b5f81815260086020526040812080546001820154600283015481831180156116b957508083115b156116ca5750600395945050505050565b82821180156116d857508082115b156116e95750600495945050505050565b50600695945050505050565b60605f805461076790612662565b60606001805461076790612662565b5f6107528261196b565b5f868152600460205260408120600161173489610ef4565b60078111156117455761174561219c565b146117a45760405162461bcd60e51b815260206004820152602960248201527f476f7665726e6f7253696d706c653a20766f7465206e6f742063757272656e746044820152686c792061637469766560b81b6064820152608401610882565b80545f906117bf90899089906001600160401b0316876114a5565b90506117ce898888848861197f565b83515f036118235786886001600160a01b03167f02ecdb7f59712b7ae7cb6851cce1c64e98f94e5b51ec63809112c054622b25548b89858a6040516118169493929190612a12565b60405180910390a3611216565b86886001600160a01b03167f7dcdc52e34b09364e599a32b0e3ccb5b730a7b952ddbdf4f237ea785da228ce78b89858a8a604051611865959493929190612a39565b60405180910390a398975050505050505050565b5f610fe5868686868661189660408051602081019091525f815290565b61171c565b5f6107526118a7611b47565b8360405161190160f01b8152600281019290925260228201526042902090565b5f6112de85858585611bef565b5f600160401b82106118e8576118e8611c34565b5090565b60606080604051019050602081016040525f8152805f19835b928101926030600a8206018453600a900480611905575050819003601f19909101908152919050565b5f6119398383611c41565b90508061194a5761194a6041611ca6565b505050565b6060826119645761195f82611cb7565b610752565b5080610752565b5f600160301b82106118e8576118e8611c34565b5f858152600860209081526040808320878452600381019092529091205460ff16156119fd5760405162461bcd60e51b815260206004820152602760248201527f476f7665726e6f72566f74696e6753696d706c653a20766f746520616c726561604482015266191e4818d85cdd60ca1b6064820152608401610882565b5f8311611a5d5760405162461bcd60e51b815260206004820152602860248201527f476f7665726e6f72566f74696e6753696d706c653a207a65726f20766f74696e60448201526719c81dd95a59da1d60c21b6064820152608401610882565b5f8581526003820160205260409020805460ff1916600117905560ff8416611a9c5782815f015f828254611a919190612713565b90915550611b3f9050565b5f1960ff851601611aba5782816001015f828254611a919190612713565b60011960ff851601611ad95782816002015f828254611a919190612713565b60405162461bcd60e51b815260206004820152603560248201527f476f7665726e6f72566f74696e6753696d706c653a20696e76616c69642076616044820152746c756520666f7220656e756d20566f74655479706560581b6064820152608401610882565b505050505050565b5f6111c1604080517f8b73c3c69bb8fe3d512ecc4cf759cc79239f7b179b0ffacaa9a75d522b39400f60208201527f0000000000000000000000000000000000000000000000000000000000000000918101919091527f000000000000000000000000000000000000000000000000000000000000000060608201524660808201523060a08201525f9060c00160405160208183030381529060405280519060200120905090565b5f604051855f5260ff851660205283604052826060526020600160805f60015afa5191503d611c2557638baa579f5f526004601cfd5b5f606052604052949350505050565b6335278d125f526004601cfd5b81545f906001600160801b03600160801b820481169181166001830190911603611c6e575f915050610752565b6001600160801b038181165f908152600186810160205260409091209490945584549184018116600160801b02911617909255919050565b634e487b715f52806020526024601cfd5b805115611cc75780518082602001fd5b60405163d6bda27560e01b815260040160405180910390fd5b5f60208284031215611cf0575f5ffd5b81356001600160e01b031981168114611d07575f5ffd5b9392505050565b5f81518084528060208401602086015e5f602082860101526020601f19601f83011685010191505092915050565b602081525f611d076020830184611d0e565b634e487b7160e01b5f52604160045260245ffd5b604051601f8201601f191681016001600160401b0381118282101715611d8a57611d8a611d4e565b604052919050565b5f6001600160401b03821115611daa57611daa611d4e565b5060051b60200190565b80356001600160a01b03811681146110aa575f5ffd5b5f82601f830112611dd9575f5ffd5b8135611dec611de782611d92565b611d62565b8082825260208201915060208360051b860101925085831115611e0d575f5ffd5b602085015b83811015611e3157611e2381611db4565b835260209283019201611e12565b5095945050505050565b5f82601f830112611e4a575f5ffd5b8135611e58611de782611d92565b8082825260208201915060208360051b860101925085831115611e79575f5ffd5b602085015b83811015611e31578035835260209283019201611e7e565b5f6001600160401b03821115611eae57611eae611d4e565b50601f01601f191660200190565b5f611ec9611de784611e96565b9050828152838383011115611edc575f5ffd5b828260208301375f602084830101529392505050565b5f82601f830112611f01575f5ffd5b611d0783833560208501611ebc565b5f82601f830112611f1f575f5ffd5b8135611f2d611de782611d92565b8082825260208201915060208360051b860101925085831115611f4e575f5ffd5b602085015b83811015611e315780356001600160401b03811115611f70575f5ffd5b611f7f886020838a0101611ef2565b84525060209283019201611f53565b5f5f5f5f5f60a08688031215611fa2575f5ffd5b8535945060208601356001600160401b03811115611fbe575f5ffd5b611fca88828901611dca565b94505060408601356001600160401b03811115611fe5575f5ffd5b611ff188828901611e3b565b93505060608601356001600160401b0381111561200c575f5ffd5b61201888828901611f10565b92505060808601356001600160401b03811115612033575f5ffd5b8601601f81018813612043575f5ffd5b61205288823560208401611ebc565b9150509295509295909350565b5f5f5f60608486031215612071575f5ffd5b61207a84611db4565b95602085013595506040909401359392505050565b5f5f5f5f608085870312156120a2575f5ffd5b6120ab85611db4565b93506120b960208601611db4565b92506040850135915060608501356001600160401b038111156120da575f5ffd5b6120e687828801611ef2565b91505092959194509250565b5f5f5f5f60808587031215612105575f5ffd5b84356001600160401b0381111561211a575f5ffd5b61212687828801611dca565b94505060208501356001600160401b03811115612141575f5ffd5b61214d87828801611e3b565b93505060408501356001600160401b03811115612168575f5ffd5b61217487828801611f10565b949793965093946060013593505050565b5f60208284031215612195575f5ffd5b5035919050565b634e487b7160e01b5f52602160045260245ffd5b60208101600883106121d057634e487b7160e01b5f52602160045260245ffd5b91905290565b5f602082840312156121e6575f5ffd5b611d0782611db4565b5f5f60408385031215612200575f5ffd5b50508035926020909101359150565b5f8151808452602084019350602083015f5b8281101561223f578151865260209586019590910190600101612221565b5093949350505050565b60ff60f81b8816815260e060208201525f61226760e0830189611d0e565b82810360408401526122798189611d0e565b606084018890526001600160a01b038716608085015260a0840186905283810360c085015290506122aa818561220f565b9a9950505050505050505050565b5f5f5f5f5f60a086880312156122cc575f5ffd5b6122d586611db4565b94506122e360208701611db4565b935060408601356001600160401b038111156122fd575f5ffd5b61230988828901611e3b565b93505060608601356001600160401b03811115612324575f5ffd5b61233088828901611e3b565b92505060808601356001600160401b0381111561234b575f5ffd5b61205288828901611ef2565b803560ff811681146110aa575f5ffd5b5f5f83601f840112612377575f5ffd5b5081356001600160401b0381111561238d575f5ffd5b6020830191508360208285010111156123a4575f5ffd5b9250929050565b5f5f5f5f5f5f60a087890312156123c0575f5ffd5b86359550602087013594506123d760408801612357565b935060608701356001600160401b038111156123f1575f5ffd5b6123fd89828a01612367565b90945092505060808701356001600160401b0381111561241b575f5ffd5b61242789828a01611ef2565b9150509295509295509295565b5f5f5f5f5f60808688031215612448575f5ffd5b853594506020860135935061245f60408701612357565b925060608601356001600160401b03811115612479575f5ffd5b61248588828901612367565b969995985093965092949392505050565b5f5f5f5f608085870312156124a9575f5ffd5b6124b285611db4565b9350602085013592506040850135915060608501356001600160401b038111156120da575f5ffd5b5f5f5f606084860312156124ec575f5ffd5b833592506020840135915061250360408501612357565b90509250925092565b5f5f5f5f5f60a08688031215612520575f5ffd5b61252986611db4565b945061253760208701611db4565b9350604086013592506060860135915060808601356001600160401b0381111561234b575f5ffd5b5f5f5f5f5f5f5f5f5f6101008a8c031215612578575f5ffd5b8935985060208a0135975061258f60408b01612357565b965060608a01356001600160401b038111156125a9575f5ffd5b6125b58c828d01612367565b90975095505060808a01356001600160401b038111156125d3575f5ffd5b6125df8c828d01611ef2565b9450506125ee60a08b01612357565b989b979a50959894979396929550929360c0810135935060e00135919050565b5f5f5f5f5f5f60c08789031215612623575f5ffd5b863595506020870135945061263a60408801612357565b935061264860608801612357565b9598949750929560808101359460a0909101359350915050565b600181811c9082168061267657607f821691505b60208210810361269457634e487b7160e01b5f52602260045260245ffd5b50919050565b634e487b7160e01b5f52601160045260245ffd5b818103818111156107525761075261269a565b634e487b7160e01b5f52603260045260245ffd5b805160208201516001600160e01b031981169190600482101561270c576001600160e01b0319600483900360031b81901b82161692505b5050919050565b808201808211156107525761075261269a565b5f8151808452602084019350602083015f5b8281101561223f5781516001600160a01b0316865260209586019590910190600101612738565b5f82825180855260208501945060208160051b830101602085015f5b838110156127ad57601f19858403018852612797838351611d0e565b602098890198909350919091019060010161277b565b50909695505050505050565b8981526001600160a01b0389166020820152610120604082018190525f906127e39083018a612726565b82810360608401526127f5818a61220f565b9050828103608084015280885180835260208301915060208160051b84010160208b015f5b8381101561284c57601f19868403018552612836838351611d0e565b602095860195909350919091019060010161281a565b505085810360a0870152612860818b61275f565b93505050508560c08401528460e08401528281036101008401526128848185611d0e565b9c9b505050505050505050505050565b5f602082840312156128a4575f5ffd5b81516001600160401b038111156128b9575f5ffd5b8201601f810184136128c9575f5ffd5b80516128d7611de782611e96565b8181528560208385010111156128eb575f5ffd5b8160208401602083015e5f91810160200191909152949350505050565b5f60208284031215612918575f5ffd5b815165ffffffffffff81168114611d07575f5ffd5b608081525f61293f6080830187612726565b8281036020840152612951818761220f565b90508281036040840152612965818661275f565b91505082606083015295945050505050565b818382375f9101908152919050565b5f5f85851115612994575f5ffd5b838611156129a0575f5ffd5b5050820193919092039150565b80356001600160601b031981169060148410156129de576001600160601b0319601485900360031b81901b82161691505b5092915050565b5f602082840312156129f5575f5ffd5b5051919050565b5f82518060208501845e5f920191825250919050565b84815260ff84166020820152826040820152608060608201525f610fe56080830184611d0e565b85815260ff8516602082015283604082015260a060608201525f612a6060a0830185611d0e565b82810360808401526112168185611d0e56fe150214d74d59b7d1e90c73fc22ef3d991dd0a76b046543d4d80ab92d2a50328fb3b3f3b703cd84ce352197dcff232b1b5d3cfb2025ce47cf04742d0651f1af88a26469706673582212202a8e30ae1282caab78391800cbf02a3bf0f0243ec4feb92515d165f9e3ed61fc64736f6c634300081e0033","linkReferences":{}},"methodIdentifiers":{"BALLOT_TYPEHASH()":"deaaa7cc","CLOCK_MODE()":"4bf5d7e9","COUNTING_MODE()":"dd4e2ba5","EXTENDED_BALLOT_TYPEHASH()":"2fe3e261","castVote(uint256,uint256,uint8)":"dea112a6","castVoteBySig(uint256,uint256,uint8,uint8,bytes32,bytes32)":"fa25f377","castVoteWithReason(uint256,uint256,uint8,string)":"c2e863e4","castVoteWithReasonAndParams(uint256,uint256,uint8,string,bytes)":"be443ad0","castVoteWithReasonAndParamsBySig(uint256,uint256,uint8,string,bytes,uint8,bytes32,bytes32)":"f945970a","clock()":"91ddadf4","eip712Domain()":"84b0196e","execute(address[],uint256[],bytes[],bytes32)":"2656227d","getVotes(address,uint256,uint256)":"11fd26f4","getVotesWithParams(address,uint256,uint256,bytes)":"cf781d45","hasVoted(uint256,uint256)":"64390ff1","hashProposal(address[],uint256[],bytes[],bytes32)":"c59057e4","isTrustedForwarder(address)":"572b6c05","minter()":"07546172","name()":"06fdde03","onERC1155BatchReceived(address,address,uint256[],uint256[],bytes)":"bc197c81","onERC1155Received(address,address,uint256,uint256,bytes)":"f23a6e61","onERC721Received(address,address,uint256,bytes)":"150b7a02","proposalDeadline(uint256)":"c01f9e37","proposalSnapshot(uint256)":"2d63f693","proposalThreshold()":"b58131b0","proposalVotes(uint256)":"544ffc9c","propose(uint256,address[],uint256[],bytes[],string)":"0f8a8836","quorum(uint256)":"f8ce560a","result()":"65372147","state(uint256)":"3e4f49e6","supportsInterface(bytes4)":"01ffc9a7","token()":"fc0c546a","trustedForwarder()":"7da0a877","version()":"54fd4d50","votingDelay()":"3932abb1","votingPeriod()":"02a251a3"},"id":807}