{"abi":[{"type":"function","name":"allowance","inputs":[{"name":"pool","type":"address","internalType":"address"},{"name":"owner","type":"address","internalType":"address"},{"name":"spender","type":"address","internalType":"address"}],"outputs":[{"name":"","type":"uint256","internalType":"uint256"}],"stateMutability":"view"},{"type":"function","name":"balanceOf","inputs":[{"name":"pool","type":"address","internalType":"address"},{"name":"account","type":"address","internalType":"address"}],"outputs":[{"name":"","type":"uint256","internalType":"uint256"}],"stateMutability":"view"},{"type":"function","name":"getPoolMinimumTotalSupply","inputs":[],"outputs":[{"name":"","type":"uint256","internalType":"uint256"}],"stateMutability":"pure"},{"type":"function","name":"manualApprove","inputs":[{"name":"pool","type":"address","internalType":"address"},{"name":"owner","type":"address","internalType":"address"},{"name":"spender","type":"address","internalType":"address"},{"name":"amount","type":"uint256","internalType":"uint256"}],"outputs":[],"stateMutability":"nonpayable"},{"type":"function","name":"manualBurn","inputs":[{"name":"pool","type":"address","internalType":"address"},{"name":"from","type":"address","internalType":"address"},{"name":"amount","type":"uint256","internalType":"uint256"}],"outputs":[],"stateMutability":"nonpayable"},{"type":"function","name":"manualEnsureMinimumTotalSupply","inputs":[{"name":"newTotalSupply","type":"uint256","internalType":"uint256"}],"outputs":[],"stateMutability":"pure"},{"type":"function","name":"manualMint","inputs":[{"name":"pool","type":"address","internalType":"address"},{"name":"to","type":"address","internalType":"address"},{"name":"amount","type":"uint256","internalType":"uint256"}],"outputs":[],"stateMutability":"nonpayable"},{"type":"function","name":"manualMintMinimumSupplyReserve","inputs":[{"name":"pool","type":"address","internalType":"address"}],"outputs":[],"stateMutability":"nonpayable"},{"type":"function","name":"manualQueryModeBalanceIncrease","inputs":[{"name":"pool","type":"address","internalType":"address"},{"name":"to","type":"address","internalType":"address"},{"name":"amount","type":"uint256","internalType":"uint256"}],"outputs":[],"stateMutability":"nonpayable"},{"type":"function","name":"manualSpendAllowance","inputs":[{"name":"pool","type":"address","internalType":"address"},{"name":"owner","type":"address","internalType":"address"},{"name":"spender","type":"address","internalType":"address"},{"name":"amount","type":"uint256","internalType":"uint256"}],"outputs":[],"stateMutability":"nonpayable"},{"type":"function","name":"manualTransfer","inputs":[{"name":"pool","type":"address","internalType":"address"},{"name":"from","type":"address","internalType":"address"},{"name":"to","type":"address","internalType":"address"},{"name":"amount","type":"uint256","internalType":"uint256"}],"outputs":[],"stateMutability":"nonpayable"},{"type":"function","name":"totalSupply","inputs":[{"name":"pool","type":"address","internalType":"address"}],"outputs":[{"name":"","type":"uint256","internalType":"uint256"}],"stateMutability":"view"},{"type":"event","name":"Approval","inputs":[{"name":"pool","type":"address","indexed":true,"internalType":"address"},{"name":"owner","type":"address","indexed":true,"internalType":"address"},{"name":"spender","type":"address","indexed":true,"internalType":"address"},{"name":"value","type":"uint256","indexed":false,"internalType":"uint256"}],"anonymous":false},{"type":"event","name":"Transfer","inputs":[{"name":"pool","type":"address","indexed":true,"internalType":"address"},{"name":"from","type":"address","indexed":true,"internalType":"address"},{"name":"to","type":"address","indexed":true,"internalType":"address"},{"name":"value","type":"uint256","indexed":false,"internalType":"uint256"}],"anonymous":false},{"type":"error","name":"ERC20InsufficientAllowance","inputs":[{"name":"spender","type":"address","internalType":"address"},{"name":"allowance","type":"uint256","internalType":"uint256"},{"name":"needed","type":"uint256","internalType":"uint256"}]},{"type":"error","name":"ERC20InsufficientBalance","inputs":[{"name":"sender","type":"address","internalType":"address"},{"name":"balance","type":"uint256","internalType":"uint256"},{"name":"needed","type":"uint256","internalType":"uint256"}]},{"type":"error","name":"ERC20InvalidApprover","inputs":[{"name":"approver","type":"address","internalType":"address"}]},{"type":"error","name":"ERC20InvalidReceiver","inputs":[{"name":"receiver","type":"address","internalType":"address"}]},{"type":"error","name":"ERC20InvalidSender","inputs":[{"name":"sender","type":"address","internalType":"address"}]},{"type":"error","name":"ERC20InvalidSpender","inputs":[{"name":"spender","type":"address","internalType":"address"}]},{"type":"error","name":"NotStaticCall","inputs":[]},{"type":"error","name":"PoolTotalSupplyTooLow","inputs":[{"name":"totalSupply","type":"uint256","internalType":"uint256"}]}],"bytecode":{"object":"0x6080604052348015600e575f5ffd5b50610ba58061001c5f395ff3fe608060405234801561000f575f5ffd5b50600436106100a2575f3560e01c80631744ee24146100a657806324822fc0146100bb5780633f5b0578146100ce578063517cbc13146100e1578063927da105146100f4578063a554d0c714610119578063ad4fb0af1461012c578063ba8f83911461013f578063d0965a6b14610152578063e4dc2aa41461015b578063f7888aec1461016e578063fad565fa146101a4575b5f5ffd5b6100b96100b4366004610999565b6101b7565b005b6100b96100c9366004610999565b6101c7565b6100b96100dc3660046109d3565b6101d2565b6100b96100ef3660046109ea565b6101de565b610107610102366004610a03565b6101e7565b60405190815260200160405180910390f35b6100b9610127366004610a43565b6101fd565b6100b961013a366004610a43565b61020f565b6100b961014d366004610999565b61021b565b620f4240610107565b6101076101693660046109ea565b610226565b61010761017c366004610a8b565b6001600160a01b039182165f9081526020818152604080832093909416825291909152205490565b6100b96101b2366004610a43565b610245565b6101c2838383610251565b505050565b6101c28383836103c9565b6101db816104ec565b50565b6101db81610513565b5f6101f38484846105f4565b90505b9392505050565b6102098484848461064b565b50505050565b610209848484846107a5565b6101c28383836107f0565b6001600160a01b0381165f908152600260205260408120545b92915050565b6102098484848461084f565b6001600160a01b0382166102835781604051634b637e8f60e11b815260040161027a9190610abc565b60405180910390fd5b6001600160a01b038084165f9081526020818152604080832093861683529290522054808211156102cd5782818360405163391434e360e21b815260040161027a93929190610ad0565b6001600160a01b038085165f818152602081815260408083209488168352938152838220868603905591815260029091529081205461030d908490610b05565b9050610318816104ec565b6001600160a01b0385165f81815260026020526040808220849055516323de665160e01b81526323de665191610355918891908890600401610b18565b5f604051808303815f87803b15801561036c575f5ffd5b505af192505050801561037d575060015b505f6001600160a01b0316846001600160a01b0316866001600160a01b03165f516020610b505f395f51905f52866040516103ba91815260200190565b60405180910390a45050505050565b6001600160a01b0382166103f2578160405163ec442f0560e01b815260040161027a9190610abc565b6001600160a01b0383165f90815260026020526040812054610415908390610b3c565b6001600160a01b038086165f908152602081815260408083209388168352929052208054840190559050610448816104ec565b6001600160a01b038481165f81815260026020908152604080832086905551868152938716939192915f516020610b505f395f51905f52910160405180910390a46040516323de665160e01b81526001600160a01b038516906323de6651906104b9905f9087908790600401610b18565b5f604051808303815f87803b1580156104d0575f5ffd5b505af11580156104e2573d5f5f3e3d5ffd5b5050505050505050565b620f42408110156101db576040516334e3483f60e21b81526004810182905260240161027a565b6001600160a01b0381165f9081526002602052604081208054620f4240929061053d908490610b3c565b90915550506001600160a01b0381165f8181526020818152604080832083805282528083208054620f424090810190915590519081529192839290915f516020610b505f395f51905f52910160405180910390a46040516323de665160e01b81526001600160a01b038216906323de6651906105c4905f908190620f424090600401610b18565b5f604051808303815f87803b1580156105db575f5ffd5b505af11580156105ed573d5f5f3e3d5ffd5b5050505050565b5f816001600160a01b0316836001600160a01b03160361061657505f196101f6565b506001600160a01b038084165f90815260016020908152604080832086851684528252808320938516835292905220546101f6565b6001600160a01b0383166106745782604051634b637e8f60e11b815260040161027a9190610abc565b6001600160a01b03821661069d578160405163ec442f0560e01b815260040161027a9190610abc565b6001600160a01b038085165f9081526020818152604080832093871683529290522054808211156106e75783818360405163391434e360e21b815260040161027a93929190610ad0565b6001600160a01b038581165f8181526020818152604080832089861680855290835281842088880390559488168084529281902080548801905551868152919392915f516020610b505f395f51905f52910160405180910390a46040516323de665160e01b81526001600160a01b038616906323de66519061077190879087908790600401610b18565b5f604051808303815f87803b158015610788575f5ffd5b505af115801561079a573d5f5f3e3d5ffd5b505050505050505050565b5f6107b18585856105f4565b90505f1981146105ed57808211156107e257828183604051637dc7a0d960e11b815260040161027a93929190610ad0565b6105ed85858585850361084f565b32155f03610811576040516333fc255960e11b815260040160405180910390fd5b6001600160a01b038084165f9081526020818152604080832093861683529290529081208054839290610845908490610b3c565b9091555050505050565b6001600160a01b038316610878578260405163e602df0560e01b815260040161027a9190610abc565b6001600160a01b0382166108a15781604051634a1406b160e11b815260040161027a9190610abc565b6001600160a01b038085165f8181526001602090815260408083208886168452825280832094871683529390528290208390559051630ad0fe5760e31b8152635687f2b8906108f890869086908690600401610b18565b5f604051808303815f87803b15801561090f575f5ffd5b505af1925050508015610920575060015b50816001600160a01b0316836001600160a01b0316856001600160a01b03167fa0175360a15bca328baf7ea85c7b784d58b222a50d0ce760b10dba336d226a618460405161097091815260200190565b60405180910390a450505050565b80356001600160a01b0381168114610994575f5ffd5b919050565b5f5f5f606084860312156109ab575f5ffd5b6109b48461097e565b92506109c26020850161097e565b929592945050506040919091013590565b5f602082840312156109e3575f5ffd5b5035919050565b5f602082840312156109fa575f5ffd5b6101f68261097e565b5f5f5f60608486031215610a15575f5ffd5b610a1e8461097e565b9250610a2c6020850161097e565b9150610a3a6040850161097e565b90509250925092565b5f5f5f5f60808587031215610a56575f5ffd5b610a5f8561097e565b9350610a6d6020860161097e565b9250610a7b6040860161097e565b9396929550929360600135925050565b5f5f60408385031215610a9c575f5ffd5b610aa58361097e565b9150610ab36020840161097e565b90509250929050565b6001600160a01b0391909116815260200190565b6001600160a01b039390931683526020830191909152604082015260600190565b634e487b7160e01b5f52601160045260245ffd5b8181038181111561023f5761023f610af1565b6001600160a01b039384168152919092166020820152604081019190915260600190565b8082018082111561023f5761023f610af156fed1398bee19313d6bf672ccb116e51f4a1a947e91c757907f51fbb5b5e56c698fa2646970667358221220e1c634e7935af05b07061fa493ecb8b5dbfb34e564578b5a0f1da95d2ad32b7a64736f6c634300081e0033","linkReferences":{}},"methodIdentifiers":{"allowance(address,address,address)":"927da105","balanceOf(address,address)":"f7888aec","getPoolMinimumTotalSupply()":"d0965a6b","manualApprove(address,address,address,uint256)":"fad565fa","manualBurn(address,address,uint256)":"1744ee24","manualEnsureMinimumTotalSupply(uint256)":"3f5b0578","manualMint(address,address,uint256)":"24822fc0","manualMintMinimumSupplyReserve(address)":"517cbc13","manualQueryModeBalanceIncrease(address,address,uint256)":"ba8f8391","manualSpendAllowance(address,address,address,uint256)":"ad4fb0af","manualTransfer(address,address,address,uint256)":"a554d0c7","totalSupply(address)":"e4dc2aa4"},"id":372}