{"abi":[{"type":"constructor","inputs":[{"name":"params","type":"tuple","internalType":"struct WeightedPool.NewPoolParams","components":[{"name":"name","type":"string","internalType":"string"},{"name":"symbol","type":"string","internalType":"string"},{"name":"numTokens","type":"uint256","internalType":"uint256"},{"name":"normalizedWeights","type":"uint256[]","internalType":"uint256[]"},{"name":"version","type":"string","internalType":"string"},{"name":"minTokenBalances","type":"uint256[]","internalType":"uint256[]"}]},{"name":"vault","type":"address","internalType":"contract IVault"},{"name":"trustedCowRouter","type":"address","internalType":"address"}],"stateMutability":"nonpayable"},{"type":"function","name":"DOMAIN_SEPARATOR","inputs":[],"outputs":[{"name":"","type":"bytes32","internalType":"bytes32"}],"stateMutability":"view"},{"type":"function","name":"PERMIT_TYPEHASH","inputs":[],"outputs":[{"name":"","type":"bytes32","internalType":"bytes32"}],"stateMutability":"view"},{"type":"function","name":"allowance","inputs":[{"name":"owner","type":"address","internalType":"address"},{"name":"spender","type":"address","internalType":"address"}],"outputs":[{"name":"","type":"uint256","internalType":"uint256"}],"stateMutability":"view"},{"type":"function","name":"approve","inputs":[{"name":"spender","type":"address","internalType":"address"},{"name":"amount","type":"uint256","internalType":"uint256"}],"outputs":[{"name":"","type":"bool","internalType":"bool"}],"stateMutability":"nonpayable"},{"type":"function","name":"balanceOf","inputs":[{"name":"account","type":"address","internalType":"address"}],"outputs":[{"name":"","type":"uint256","internalType":"uint256"}],"stateMutability":"view"},{"type":"function","name":"computeBalance","inputs":[{"name":"balancesLiveScaled18","type":"uint256[]","internalType":"uint256[]"},{"name":"tokenInIndex","type":"uint256","internalType":"uint256"},{"name":"invariantRatio","type":"uint256","internalType":"uint256"}],"outputs":[{"name":"newBalance","type":"uint256","internalType":"uint256"}],"stateMutability":"view"},{"type":"function","name":"computeInvariant","inputs":[{"name":"balancesLiveScaled18","type":"uint256[]","internalType":"uint256[]"},{"name":"rounding","type":"uint8","internalType":"enum Rounding"}],"outputs":[{"name":"","type":"uint256","internalType":"uint256"}],"stateMutability":"view"},{"type":"function","name":"decimals","inputs":[],"outputs":[{"name":"","type":"uint8","internalType":"uint8"}],"stateMutability":"pure"},{"type":"function","name":"eip712Domain","inputs":[],"outputs":[{"name":"fields","type":"bytes1","internalType":"bytes1"},{"name":"name","type":"string","internalType":"string"},{"name":"version","type":"string","internalType":"string"},{"name":"chainId","type":"uint256","internalType":"uint256"},{"name":"verifyingContract","type":"address","internalType":"address"},{"name":"salt","type":"bytes32","internalType":"bytes32"},{"name":"extensions","type":"uint256[]","internalType":"uint256[]"}],"stateMutability":"view"},{"type":"function","name":"emitApproval","inputs":[{"name":"owner","type":"address","internalType":"address"},{"name":"spender","type":"address","internalType":"address"},{"name":"amount","type":"uint256","internalType":"uint256"}],"outputs":[],"stateMutability":"nonpayable"},{"type":"function","name":"emitTransfer","inputs":[{"name":"from","type":"address","internalType":"address"},{"name":"to","type":"address","internalType":"address"},{"name":"amount","type":"uint256","internalType":"uint256"}],"outputs":[],"stateMutability":"nonpayable"},{"type":"function","name":"getAggregateFeePercentages","inputs":[],"outputs":[{"name":"aggregateSwapFeePercentage","type":"uint256","internalType":"uint256"},{"name":"aggregateYieldFeePercentage","type":"uint256","internalType":"uint256"}],"stateMutability":"view"},{"type":"function","name":"getCowPoolDynamicData","inputs":[],"outputs":[{"name":"data","type":"tuple","internalType":"struct ICowPool.CoWPoolDynamicData","components":[{"name":"balancesLiveScaled18","type":"uint256[]","internalType":"uint256[]"},{"name":"tokenRates","type":"uint256[]","internalType":"uint256[]"},{"name":"staticSwapFeePercentage","type":"uint256","internalType":"uint256"},{"name":"totalSupply","type":"uint256","internalType":"uint256"},{"name":"trustedCowRouter","type":"address","internalType":"address"},{"name":"isPoolInitialized","type":"bool","internalType":"bool"},{"name":"isPoolPaused","type":"bool","internalType":"bool"},{"name":"isPoolInRecoveryMode","type":"bool","internalType":"bool"}]}],"stateMutability":"view"},{"type":"function","name":"getCowPoolImmutableData","inputs":[],"outputs":[{"name":"data","type":"tuple","internalType":"struct ICowPool.CoWPoolImmutableData","components":[{"name":"tokens","type":"address[]","internalType":"contract IERC20[]"},{"name":"decimalScalingFactors","type":"uint256[]","internalType":"uint256[]"},{"name":"normalizedWeights","type":"uint256[]","internalType":"uint256[]"}]}],"stateMutability":"view"},{"type":"function","name":"getCurrentLiveBalances","inputs":[],"outputs":[{"name":"balancesLiveScaled18","type":"uint256[]","internalType":"uint256[]"}],"stateMutability":"view"},{"type":"function","name":"getHookFlags","inputs":[],"outputs":[{"name":"hookFlags","type":"tuple","internalType":"struct HookFlags","components":[{"name":"enableHookAdjustedAmounts","type":"bool","internalType":"bool"},{"name":"shouldCallBeforeInitialize","type":"bool","internalType":"bool"},{"name":"shouldCallAfterInitialize","type":"bool","internalType":"bool"},{"name":"shouldCallComputeDynamicSwapFee","type":"bool","internalType":"bool"},{"name":"shouldCallBeforeSwap","type":"bool","internalType":"bool"},{"name":"shouldCallAfterSwap","type":"bool","internalType":"bool"},{"name":"shouldCallBeforeAddLiquidity","type":"bool","internalType":"bool"},{"name":"shouldCallAfterAddLiquidity","type":"bool","internalType":"bool"},{"name":"shouldCallBeforeRemoveLiquidity","type":"bool","internalType":"bool"},{"name":"shouldCallAfterRemoveLiquidity","type":"bool","internalType":"bool"}]}],"stateMutability":"pure"},{"type":"function","name":"getMaximumInvariantRatio","inputs":[],"outputs":[{"name":"","type":"uint256","internalType":"uint256"}],"stateMutability":"pure"},{"type":"function","name":"getMaximumSwapFeePercentage","inputs":[],"outputs":[{"name":"","type":"uint256","internalType":"uint256"}],"stateMutability":"pure"},{"type":"function","name":"getMinTokenBalances","inputs":[],"outputs":[{"name":"minTokenBalances","type":"uint256[]","internalType":"uint256[]"}],"stateMutability":"view"},{"type":"function","name":"getMinimumInvariantRatio","inputs":[],"outputs":[{"name":"","type":"uint256","internalType":"uint256"}],"stateMutability":"pure"},{"type":"function","name":"getMinimumSwapFeePercentage","inputs":[],"outputs":[{"name":"","type":"uint256","internalType":"uint256"}],"stateMutability":"pure"},{"type":"function","name":"getNormalizedWeights","inputs":[],"outputs":[{"name":"","type":"uint256[]","internalType":"uint256[]"}],"stateMutability":"view"},{"type":"function","name":"getRate","inputs":[],"outputs":[{"name":"","type":"uint256","internalType":"uint256"}],"stateMutability":"pure"},{"type":"function","name":"getStaticSwapFeePercentage","inputs":[],"outputs":[{"name":"","type":"uint256","internalType":"uint256"}],"stateMutability":"view"},{"type":"function","name":"getTokenInfo","inputs":[],"outputs":[{"name":"tokens","type":"address[]","internalType":"contract IERC20[]"},{"name":"tokenInfo","type":"tuple[]","internalType":"struct TokenInfo[]","components":[{"name":"tokenType","type":"uint8","internalType":"enum TokenType"},{"name":"rateProvider","type":"address","internalType":"contract IRateProvider"},{"name":"paysYieldFees","type":"bool","internalType":"bool"}]},{"name":"balancesRaw","type":"uint256[]","internalType":"uint256[]"},{"name":"lastBalancesLiveScaled18","type":"uint256[]","internalType":"uint256[]"}],"stateMutability":"view"},{"type":"function","name":"getTokens","inputs":[],"outputs":[{"name":"tokens","type":"address[]","internalType":"contract IERC20[]"}],"stateMutability":"view"},{"type":"function","name":"getTrustedCowRouter","inputs":[],"outputs":[{"name":"","type":"address","internalType":"address"}],"stateMutability":"view"},{"type":"function","name":"getVault","inputs":[],"outputs":[{"name":"","type":"address","internalType":"contract IVault"}],"stateMutability":"view"},{"type":"function","name":"getWeightedPoolDynamicData","inputs":[],"outputs":[{"name":"data","type":"tuple","internalType":"struct WeightedPoolDynamicData","components":[{"name":"balancesLiveScaled18","type":"uint256[]","internalType":"uint256[]"},{"name":"tokenRates","type":"uint256[]","internalType":"uint256[]"},{"name":"staticSwapFeePercentage","type":"uint256","internalType":"uint256"},{"name":"totalSupply","type":"uint256","internalType":"uint256"},{"name":"isPoolInitialized","type":"bool","internalType":"bool"},{"name":"isPoolPaused","type":"bool","internalType":"bool"},{"name":"isPoolInRecoveryMode","type":"bool","internalType":"bool"}]}],"stateMutability":"view"},{"type":"function","name":"getWeightedPoolImmutableData","inputs":[],"outputs":[{"name":"data","type":"tuple","internalType":"struct WeightedPoolImmutableData","components":[{"name":"tokens","type":"address[]","internalType":"contract IERC20[]"},{"name":"decimalScalingFactors","type":"uint256[]","internalType":"uint256[]"},{"name":"normalizedWeights","type":"uint256[]","internalType":"uint256[]"},{"name":"minTokenBalances","type":"uint256[]","internalType":"uint256[]"}]}],"stateMutability":"view"},{"type":"function","name":"incrementNonce","inputs":[],"outputs":[],"stateMutability":"nonpayable"},{"type":"function","name":"name","inputs":[],"outputs":[{"name":"","type":"string","internalType":"string"}],"stateMutability":"view"},{"type":"function","name":"nonces","inputs":[{"name":"owner","type":"address","internalType":"address"}],"outputs":[{"name":"","type":"uint256","internalType":"uint256"}],"stateMutability":"view"},{"type":"function","name":"onAfterAddLiquidity","inputs":[{"name":"","type":"address","internalType":"address"},{"name":"","type":"address","internalType":"address"},{"name":"","type":"uint8","internalType":"enum AddLiquidityKind"},{"name":"","type":"uint256[]","internalType":"uint256[]"},{"name":"amountsInRaw","type":"uint256[]","internalType":"uint256[]"},{"name":"","type":"uint256","internalType":"uint256"},{"name":"","type":"uint256[]","internalType":"uint256[]"},{"name":"","type":"bytes","internalType":"bytes"}],"outputs":[{"name":"","type":"bool","internalType":"bool"},{"name":"","type":"uint256[]","internalType":"uint256[]"}],"stateMutability":"nonpayable"},{"type":"function","name":"onAfterInitialize","inputs":[{"name":"","type":"uint256[]","internalType":"uint256[]"},{"name":"","type":"uint256","internalType":"uint256"},{"name":"","type":"bytes","internalType":"bytes"}],"outputs":[{"name":"","type":"bool","internalType":"bool"}],"stateMutability":"nonpayable"},{"type":"function","name":"onAfterRemoveLiquidity","inputs":[{"name":"","type":"address","internalType":"address"},{"name":"","type":"address","internalType":"address"},{"name":"","type":"uint8","internalType":"enum RemoveLiquidityKind"},{"name":"","type":"uint256","internalType":"uint256"},{"name":"","type":"uint256[]","internalType":"uint256[]"},{"name":"amountsOutRaw","type":"uint256[]","internalType":"uint256[]"},{"name":"","type":"uint256[]","internalType":"uint256[]"},{"name":"","type":"bytes","internalType":"bytes"}],"outputs":[{"name":"","type":"bool","internalType":"bool"},{"name":"","type":"uint256[]","internalType":"uint256[]"}],"stateMutability":"nonpayable"},{"type":"function","name":"onAfterSwap","inputs":[{"name":"","type":"tuple","internalType":"struct AfterSwapParams","components":[{"name":"kind","type":"uint8","internalType":"enum SwapKind"},{"name":"tokenIn","type":"address","internalType":"contract IERC20"},{"name":"tokenOut","type":"address","internalType":"contract IERC20"},{"name":"amountInScaled18","type":"uint256","internalType":"uint256"},{"name":"amountOutScaled18","type":"uint256","internalType":"uint256"},{"name":"tokenInBalanceScaled18","type":"uint256","internalType":"uint256"},{"name":"tokenOutBalanceScaled18","type":"uint256","internalType":"uint256"},{"name":"amountCalculatedScaled18","type":"uint256","internalType":"uint256"},{"name":"amountCalculatedRaw","type":"uint256","internalType":"uint256"},{"name":"router","type":"address","internalType":"address"},{"name":"pool","type":"address","internalType":"address"},{"name":"userData","type":"bytes","internalType":"bytes"}]}],"outputs":[{"name":"","type":"bool","internalType":"bool"},{"name":"","type":"uint256","internalType":"uint256"}],"stateMutability":"nonpayable"},{"type":"function","name":"onBeforeAddLiquidity","inputs":[{"name":"router","type":"address","internalType":"address"},{"name":"","type":"address","internalType":"address"},{"name":"kind","type":"uint8","internalType":"enum AddLiquidityKind"},{"name":"","type":"uint256[]","internalType":"uint256[]"},{"name":"","type":"uint256","internalType":"uint256"},{"name":"","type":"uint256[]","internalType":"uint256[]"},{"name":"","type":"bytes","internalType":"bytes"}],"outputs":[{"name":"success","type":"bool","internalType":"bool"}],"stateMutability":"view"},{"type":"function","name":"onBeforeInitialize","inputs":[{"name":"","type":"uint256[]","internalType":"uint256[]"},{"name":"","type":"bytes","internalType":"bytes"}],"outputs":[{"name":"","type":"bool","internalType":"bool"}],"stateMutability":"nonpayable"},{"type":"function","name":"onBeforeRemoveLiquidity","inputs":[{"name":"","type":"address","internalType":"address"},{"name":"","type":"address","internalType":"address"},{"name":"","type":"uint8","internalType":"enum RemoveLiquidityKind"},{"name":"","type":"uint256","internalType":"uint256"},{"name":"","type":"uint256[]","internalType":"uint256[]"},{"name":"","type":"uint256[]","internalType":"uint256[]"},{"name":"","type":"bytes","internalType":"bytes"}],"outputs":[{"name":"","type":"bool","internalType":"bool"}],"stateMutability":"nonpayable"},{"type":"function","name":"onBeforeSwap","inputs":[{"name":"params","type":"tuple","internalType":"struct PoolSwapParams","components":[{"name":"kind","type":"uint8","internalType":"enum SwapKind"},{"name":"amountGivenScaled18","type":"uint256","internalType":"uint256"},{"name":"balancesScaled18","type":"uint256[]","internalType":"uint256[]"},{"name":"indexIn","type":"uint256","internalType":"uint256"},{"name":"indexOut","type":"uint256","internalType":"uint256"},{"name":"router","type":"address","internalType":"address"},{"name":"userData","type":"bytes","internalType":"bytes"}]},{"name":"","type":"address","internalType":"address"}],"outputs":[{"name":"","type":"bool","internalType":"bool"}],"stateMutability":"view"},{"type":"function","name":"onComputeDynamicSwapFeePercentage","inputs":[{"name":"","type":"tuple","internalType":"struct PoolSwapParams","components":[{"name":"kind","type":"uint8","internalType":"enum SwapKind"},{"name":"amountGivenScaled18","type":"uint256","internalType":"uint256"},{"name":"balancesScaled18","type":"uint256[]","internalType":"uint256[]"},{"name":"indexIn","type":"uint256","internalType":"uint256"},{"name":"indexOut","type":"uint256","internalType":"uint256"},{"name":"router","type":"address","internalType":"address"},{"name":"userData","type":"bytes","internalType":"bytes"}]},{"name":"","type":"address","internalType":"address"},{"name":"","type":"uint256","internalType":"uint256"}],"outputs":[{"name":"","type":"bool","internalType":"bool"},{"name":"","type":"uint256","internalType":"uint256"}],"stateMutability":"view"},{"type":"function","name":"onRegister","inputs":[{"name":"factory","type":"address","internalType":"address"},{"name":"pool","type":"address","internalType":"address"},{"name":"","type":"tuple[]","internalType":"struct TokenConfig[]","components":[{"name":"token","type":"address","internalType":"contract IERC20"},{"name":"tokenType","type":"uint8","internalType":"enum TokenType"},{"name":"rateProvider","type":"address","internalType":"contract IRateProvider"},{"name":"paysYieldFees","type":"bool","internalType":"bool"}]},{"name":"liquidityManagement","type":"tuple","internalType":"struct LiquidityManagement","components":[{"name":"disableUnbalancedLiquidity","type":"bool","internalType":"bool"},{"name":"enableAddLiquidityCustom","type":"bool","internalType":"bool"},{"name":"enableRemoveLiquidityCustom","type":"bool","internalType":"bool"},{"name":"enableDonation","type":"bool","internalType":"bool"}]}],"outputs":[{"name":"","type":"bool","internalType":"bool"}],"stateMutability":"view"},{"type":"function","name":"onSwap","inputs":[{"name":"request","type":"tuple","internalType":"struct PoolSwapParams","components":[{"name":"kind","type":"uint8","internalType":"enum SwapKind"},{"name":"amountGivenScaled18","type":"uint256","internalType":"uint256"},{"name":"balancesScaled18","type":"uint256[]","internalType":"uint256[]"},{"name":"indexIn","type":"uint256","internalType":"uint256"},{"name":"indexOut","type":"uint256","internalType":"uint256"},{"name":"router","type":"address","internalType":"address"},{"name":"userData","type":"bytes","internalType":"bytes"}]}],"outputs":[{"name":"calculatedAmountScaled18","type":"uint256","internalType":"uint256"}],"stateMutability":"view"},{"type":"function","name":"permit","inputs":[{"name":"owner","type":"address","internalType":"address"},{"name":"spender","type":"address","internalType":"address"},{"name":"amount","type":"uint256","internalType":"uint256"},{"name":"deadline","type":"uint256","internalType":"uint256"},{"name":"v","type":"uint8","internalType":"uint8"},{"name":"r","type":"bytes32","internalType":"bytes32"},{"name":"s","type":"bytes32","internalType":"bytes32"}],"outputs":[],"stateMutability":"nonpayable"},{"type":"function","name":"refreshTrustedCowRouter","inputs":[],"outputs":[],"stateMutability":"nonpayable"},{"type":"function","name":"supportsInterface","inputs":[{"name":"interfaceId","type":"bytes4","internalType":"bytes4"}],"outputs":[{"name":"","type":"bool","internalType":"bool"}],"stateMutability":"view"},{"type":"function","name":"symbol","inputs":[],"outputs":[{"name":"","type":"string","internalType":"string"}],"stateMutability":"view"},{"type":"function","name":"totalSupply","inputs":[],"outputs":[{"name":"","type":"uint256","internalType":"uint256"}],"stateMutability":"view"},{"type":"function","name":"transfer","inputs":[{"name":"to","type":"address","internalType":"address"},{"name":"amount","type":"uint256","internalType":"uint256"}],"outputs":[{"name":"","type":"bool","internalType":"bool"}],"stateMutability":"nonpayable"},{"type":"function","name":"transferFrom","inputs":[{"name":"from","type":"address","internalType":"address"},{"name":"to","type":"address","internalType":"address"},{"name":"amount","type":"uint256","internalType":"uint256"}],"outputs":[{"name":"","type":"bool","internalType":"bool"}],"stateMutability":"nonpayable"},{"type":"function","name":"version","inputs":[],"outputs":[{"name":"","type":"string","internalType":"string"}],"stateMutability":"view"},{"type":"event","name":"Approval","inputs":[{"name":"owner","type":"address","indexed":true,"internalType":"address"},{"name":"spender","type":"address","indexed":true,"internalType":"address"},{"name":"amount","type":"uint256","indexed":false,"internalType":"uint256"}],"anonymous":false},{"type":"event","name":"CowTrustedRouterChanged","inputs":[{"name":"newTrustedCowRouter","type":"address","indexed":false,"internalType":"address"}],"anonymous":false},{"type":"event","name":"EIP712DomainChanged","inputs":[],"anonymous":false},{"type":"event","name":"Transfer","inputs":[{"name":"from","type":"address","indexed":true,"internalType":"address"},{"name":"to","type":"address","indexed":true,"internalType":"address"},{"name":"amount","type":"uint256","indexed":false,"internalType":"uint256"}],"anonymous":false},{"type":"error","name":"BaseOutOfBounds","inputs":[]},{"type":"error","name":"ERC2612ExpiredSignature","inputs":[{"name":"deadline","type":"uint256","internalType":"uint256"}]},{"type":"error","name":"ERC2612InvalidSigner","inputs":[{"name":"signer","type":"address","internalType":"address"},{"name":"owner","type":"address","internalType":"address"}]},{"type":"error","name":"ExponentOutOfBounds","inputs":[]},{"type":"error","name":"InputLengthMismatch","inputs":[]},{"type":"error","name":"InvalidAccountNonce","inputs":[{"name":"account","type":"address","internalType":"address"},{"name":"currentNonce","type":"uint256","internalType":"uint256"}]},{"type":"error","name":"InvalidExponent","inputs":[]},{"type":"error","name":"InvalidMinTokenBalance","inputs":[]},{"type":"error","name":"InvalidToken","inputs":[]},{"type":"error","name":"MaxInRatio","inputs":[]},{"type":"error","name":"MaxOutRatio","inputs":[]},{"type":"error","name":"MinWeight","inputs":[]},{"type":"error","name":"NormalizedWeightInvariant","inputs":[]},{"type":"error","name":"ProductOutOfBounds","inputs":[]},{"type":"error","name":"SenderIsNotVault","inputs":[{"name":"sender","type":"address","internalType":"address"}]},{"type":"error","name":"TokenBalanceBelowMin","inputs":[{"name":"tokenIndex","type":"uint256","internalType":"uint256"},{"name":"actualBalance","type":"uint256","internalType":"uint256"},{"name":"minBalance","type":"uint256","internalType":"uint256"}]},{"type":"error","name":"WeightedPoolBptRateUnsupported","inputs":[]},{"type":"error","name":"ZeroDivision","inputs":[]},{"type":"error","name":"ZeroInvariant","inputs":[]}],"bytecode":{"object":"0x610320604052348015610010575f5ffd5b506040516159b43803806159b483398101604081905261002f916104c9565b828281608001518182845f015185602001518282604051806040016040528060018152602001603160f81b815250815f908161006b919061068a565b506001610078828261068a565b508151602092830120608052805191012060a0526001600160a01b031660c05260036100a4838261068a565b5060046100b1828261068a565b505050506001600160a01b031660e0526100ca816102d4565b5060408201516101008190526060830151516100e691906102e4565b5f805b610100518160ff161015610285575f84606001518260ff168151811061011157610111610744565b60200260200101519050662386f26fc100008110156101435760405163bd39358360e01b815260040160405180910390fd5b61014d818461076c565b92505f8560a001518360ff168151811061016957610169610744565b60200260200101519050620f424081101561019757604051633bdab6b560e21b815260040160405180910390fd5b8260ff165f036101b257610120829052610220819052610272565b8260ff166001036101ce57610140829052610240819052610272565b8260ff166002036101ea57610160829052610260819052610272565b8260ff1660030361020657610180829052610280819052610272565b8260ff16600403610222576101a08290526102a0819052610272565b8260ff1660050361023e576101c08290526102c0819052610272565b8260ff1660060361025a576101e08290526102e0819052610272565b8260ff16600703610272576102008290526103008190525b50508061027e90610785565b90506100e9565b50670de0b6b3a764000081146102ae57604051631ce788a760e11b815260040160405180910390fd5b5050600780546001600160a01b03191633179055506102cc81610304565b5050506107a3565b60056102e0828261068a565b5050565b8082146102e05760405163aaad13f760e01b815260040160405180910390fd5b600680546001600160a01b0319166001600160a01b0383169081179091556040519081527fa2bffbf2e11d4267aadd6e35608a40b95ee2f64f9470dfad8bce6e8c79df24a29060200160405180910390a150565b634e487b7160e01b5f52604160045260245ffd5b60405160c081016001600160401b038111828210171561038e5761038e610358565b60405290565b604051601f8201601f191681016001600160401b03811182821017156103bc576103bc610358565b604052919050565b5f82601f8301126103d3575f5ffd5b81516001600160401b038111156103ec576103ec610358565b6103ff601f8201601f1916602001610394565b818152846020838601011115610413575f5ffd5b8160208501602083015e5f918101602001919091529392505050565b5f82601f83011261043e575f5ffd5b81516001600160401b0381111561045757610457610358565b8060051b61046760208201610394565b91825260208185018101929081019086841115610482575f5ffd5b6020860192505b838310156104a4578251825260209283019290910190610489565b9695505050505050565b80516001600160a01b03811681146104c4575f5ffd5b919050565b5f5f5f606084860312156104db575f5ffd5b83516001600160401b038111156104f0575f5ffd5b840160c08187031215610501575f5ffd5b61050961036c565b81516001600160401b0381111561051e575f5ffd5b61052a888285016103c4565b82525060208201516001600160401b03811115610545575f5ffd5b610551888285016103c4565b6020830152506040828101519082015260608201516001600160401b03811115610579575f5ffd5b6105858882850161042f565b60608301525060808201516001600160401b038111156105a3575f5ffd5b6105af888285016103c4565b60808301525060a08201516001600160401b038111156105cd575f5ffd5b6105d98882850161042f565b60a08301525093506105ef9050602085016104ae565b91506105fd604085016104ae565b90509250925092565b600181811c9082168061061a57607f821691505b60208210810361063857634e487b7160e01b5f52602260045260245ffd5b50919050565b601f82111561068557805f5260205f20601f840160051c810160208510156106635750805b601f840160051c820191505b81811015610682575f815560010161066f565b50505b505050565b81516001600160401b038111156106a3576106a3610358565b6106b7816106b18454610606565b8461063e565b6020601f8211600181146106e9575f83156106d25750848201515b5f19600385901b1c1916600184901b178455610682565b5f84815260208120601f198516915b8281101561071857878501518255602094850194600190920191016106f8565b508482101561073557868401515f19600387901b60f8161c191681555b50505050600190811b01905550565b634e487b7160e01b5f52603260045260245ffd5b634e487b7160e01b5f52601160045260245ffd5b8082018082111561077f5761077f610758565b92915050565b5f60ff821660ff810361079a5761079a610758565b60010192915050565b60805160a05160c05160e05161010051610120516101405161016051610180516101a0516101c0516101e05161020051610220516102405161026051610280516102a0516102c0516102e05161030051614fa5610a0f5f395f8181611ea90152818161256b01528181612b800152612bdf01525f8181611e820152818161252201528181612adb0152612b3a01525f8181611e53015281816124d901528181612a360152612a9501525f8181611e24015281816124900152818161299101526129f001525f8181611df501528181612447015281816128ec015261294b01525f8181611dc6015281816123f40152818161283e015261289d01525f8181611d97015281816123ab0152818161279901526127f801525f8181611d680152818161236c01528181612703015261275c01525f8181611cc3015261224f01525f8181611c94015261220601525f8181611c6501526121bd01525f8181611c36015261217401525f8181611c07015261212b01525f8181611bd801526120d901525f8181611ba9015261209001525f8181611b7a015261205101525f611fec01525f8181610fac01528181611158015281816111d6015281816112fd015261190301525f81816104f401528181610763015281816108c20152818161097101528181610af701528181610b8601528181610cb601528181610d4501528181610e0f01528181611105015281816113bf01528181611456015281816114e9015281816115930152818161168b0152818161171a015281816117ad0152818161184c01528181611a3401528181611af301528181611f00015261229601525f611f9801525f611f700152614fa55ff3fe608060405234801561000f575f5ffd5b506004361061025a575f3560e01c806301ffc9a71461025e57806306fdde0314610297578063095ea7b3146102ac5780630b89f182146102bf57806316a0b3e0146102d257806318160ddd146102f357806318b6eb55146102fb5780631c149e281461032757806323b872dd1461033c57806323de66511461034f578063273c1adf146103645780632754888d1461037257806330adf81f1461039d578063313ce567146103b15780633644e515146103c057806338be241d146103c857806345421ec7146103de5780635211fa77146103f157806353b79bd714610404578063548e96151461041957806354fd4d50146104335780635687f2b81461043b5780635fd482e21461044e578063627cdcb914610463578063654cf15d1461046b578063679aefce1461047957806370a082311461048157806372c98186146104945780637ecebe00146104a757806381fa807c146104ba57806384b0196e146104d75780638d928af8146104f257806395d89b4114610518578063976907cc14610520578063984de9e81461053d578063a0e8f5ac14610550578063a9059cbb14610568578063aa6ca8081461057b578063abb1dc4414610590578063b0959b15146105a8578063b156aa0a146105b0578063b677fa56146105c5578063ba5f9f40146105d3578063beb5c1e1146105ed578063c0bc6f3314610602578063ce20ece714610617578063d335b0cf14610623578063d505accf1461062b578063d67f280b1461063e578063d77153a714610646578063dd62ed3e1461069f578063f89f27ed146106b2575b5f5ffd5b61028261026c366004613a0d565b6001600160e01b0319166301ffc9a760e01b1490565b60405190151581526020015b60405180910390f35b61029f6106ba565b60405161028e9190613a62565b6102826102ba366004613a93565b61074a565b6102826102cd366004613bec565b6107e8565b6102e56102e0366004613d7c565b61084e565b60405190815260200161028e565b6102e56108a9565b610310610309366004613dc5565b505f908190565b60408051921515835260208301919091520161028e565b610282610335366004613e67565b5f92915050565b61028261034a366004613eca565b61093b565b61036261035d366004613eca565b6109e8565b005b6729a2241af62c00006102e5565b61038f610380366004613f16565b5f839850989650505050505050565b60405161028e92919061403f565b6102e55f516020614f505f395f51905f5281565b6040516012815260200161028e565b6102e5610a42565b6102826103d6366004614059565b5f9392505050565b6102826103ec3660046140d2565b610a4b565b6102826103ff3660046141a9565b610a86565b61040c610ab5565b60405161028e9190614230565b6006546001600160a01b03165b60405161028e91906142a4565b61029f610c1f565b610362610449366004613eca565b610c2e565b610456610c7b565b60405161028e91906142b8565b610362610dd1565b67016345785d8a00006102e5565b6102e5610ddd565b6102e561048f36600461430e565b610df6565b6102e56104a2366004614329565b610e85565b6102e56104b536600461430e565b610f8a565b6104c2610fa7565b6040805192835260208301919091520161028e565b6104df61104b565b60405161028e97969594939291906143fd565b7f0000000000000000000000000000000000000000000000000000000000000000610426565b61029f61108d565b61038f61052e36600461445e565b5f849850989650505050505050565b6102e561054b36600461450a565b61109c565b61031061055e36600461454d565b5f80935093915050565b610282610576366004613a93565b6110ec565b61058361113e565b60405161028e9190614591565b6105986111ce565b60405161028e94939291906145b7565b61036261126f565b6105b86112e3565b60405161028e9190614678565b6709b6e64a8ec600006102e5565b6102826105e136600461468a565b5f979650505050505050565b6105f5611373565b60405161028e919061470f565b61060a611633565b60405161028e91906147a7565b6509184e72a0006102e5565b6102e56118ea565b610362610639366004614825565b611938565b6105b8611aba565b60408051610140810182525f808252602082018190528183018190526060820181905260a0820181905260e08201819052610100820181905261012082015260016080820181905260c0820152905161028e9190614896565b6102e56106ad36600461495f565b611ac4565b6105b8611b65565b6060600380546106c99061498b565b80601f01602080910402602001604051908101604052809291908181526020018280546106f59061498b565b80156107405780601f1061071757610100808354040283529160200191610740565b820191905f5260205f20905b81548152906001019060200180831161072357829003601f168201915b5050505050905090565b60405163e1f21c6760e01b81525f906001600160a01b037f0000000000000000000000000000000000000000000000000000000000000000169063e1f21c679061079c903390879087906004016149bd565b6020604051808303815f875af11580156107b8573d5f5f3e3d5ffd5b505050506040513d601f19601f820116820180604052508101906107dc91906149ec565b50600190505b92915050565b5f6001600160a01b0384163014801561080e57506007546001600160a01b038681169116145b801561082b57506108256080830160608401614a07565b15156001145b8015610845575061083f6020830183614a07565b15156001145b95945050505050565b5f5f84848151811061086257610862614a22565b6020026020010151905061087f8161087986611b6f565b85611d05565b9150818111610897576108928482611d5d565b6108a1565b6108a18483611d5d565b509392505050565b6040516339370aa960e21b81525f906001600160a01b037f0000000000000000000000000000000000000000000000000000000000000000169063e4dc2aa4906108f79030906004016142a4565b602060405180830381865afa158015610912573d5f5f3e3d5ffd5b505050506040513d601f19601f820116820180604052508101906109369190614a36565b905090565b604051630aed65f560e11b81523360048201526001600160a01b0384811660248301528381166044830152606482018390525f917f0000000000000000000000000000000000000000000000000000000000000000909116906315dacbea906084016020604051808303815f875af11580156109b9573d5f5f3e3d5ffd5b505050506040513d601f19601f820116820180604052508101906109dd91906149ec565b506001949350505050565b6109f0611ef5565b816001600160a01b0316836001600160a01b03167fddf252ad1be2c89b69c2b068fc378daa952ba7f163c4a11628f55a4df523b3ef83604051610a3591815260200190565b60405180910390a3505050565b5f610936611f40565b5f6003866004811115610a6057610a606145a3565b141580610a7a57506006546001600160a01b038981169116145b98975050505050505050565b6006545f906001600160a01b0316610aa460c0850160a0860161430e565b6001600160a01b0316149392505050565b610ae06040518060800160405280606081526020016060815260200160608152602001606081525090565b60405163ca4f280360e01b81526001600160a01b037f0000000000000000000000000000000000000000000000000000000000000000169063ca4f280390610b2c9030906004016142a4565b5f60405180830381865afa158015610b46573d5f5f3e3d5ffd5b505050506040513d5f823e601f3d908101601f19168201604052610b6d9190810190614ab1565b8152604051633f1b0def60e11b81526001600160a01b037f00000000000000000000000000000000000000000000000000000000000000001690637e361bde90610bbb9030906004016142a4565b5f60405180830381865afa158015610bd5573d5f5f3e3d5ffd5b505050506040513d5f823e601f3d908101601f19168201604052610bfc9190810190614b3d565b506020820152610c0a611fe8565b6040820152610c17612291565b606082015290565b6060600580546106c99061498b565b610c36611ef5565b816001600160a01b0316836001600160a01b03167f8c5be1e5ebec7d5bd14f71427d1e84f3dd0314c0f7b2291e5b200ac8c7c3b92583604051610a3591815260200190565b610c9f60405180606001604052806060815260200160608152602001606081525090565b60405163ca4f280360e01b81526001600160a01b037f0000000000000000000000000000000000000000000000000000000000000000169063ca4f280390610ceb9030906004016142a4565b5f60405180830381865afa158015610d05573d5f5f3e3d5ffd5b505050506040513d5f823e601f3d908101601f19168201604052610d2c9190810190614ab1565b8152604051633f1b0def60e11b81526001600160a01b037f00000000000000000000000000000000000000000000000000000000000000001690637e361bde90610d7a9030906004016142a4565b5f60405180830381865afa158015610d94573d5f5f3e3d5ffd5b505050506040513d5f823e601f3d908101601f19168201604052610dbb9190810190614b3d565b506020820152610dc9611fe8565b604082015290565b610dda336125ae565b50565b5f60405162c73cd160e51b815260040160405180910390fd5b604051633de222bb60e21b81525f906001600160a01b037f0000000000000000000000000000000000000000000000000000000000000000169063f7888aec90610e469030908690600401614b98565b602060405180830381865afa158015610e61573d5f5f3e3d5ffd5b505050506040513d601f19601f820116820180604052508101906107e29190614a36565b5f5f8260400151836060015181518110610ea157610ea1614a22565b60200260200101516001610eb59190614bc6565b90505f8360400151846080015181518110610ed257610ed2614a22565b602002602001015190505f610eeb856060015184611d5d565b5f85516001811115610eff57610eff6145a3565b03610f3757610f2d83610f158760600151611b6f565b84610f238960800151611b6f565b89602001516125d0565b9350839050610f6a565b610f6083610f488760600151611b6f565b84610f568960800151611b6f565b896020015161265f565b9350846020015190505b6080850151610f8290610f7d8385614bd9565b611d5d565b505050919050565b6001600160a01b0381165f908152600260205260408120546107e2565b5f5f5f7f00000000000000000000000000000000000000000000000000000000000000006001600160a01b031663f29486a1306040518263ffffffff1660e01b8152600401610ff691906142a4565b6101a060405180830381865afa158015611012573d5f5f3e3d5ffd5b505050506040513d601f19601f820116820180604052508101906110369190614c79565b90508060400151925080606001519150509091565b5f6060805f5f5f606061105c6126e2565b6110646126f0565b604080515f80825260208201909252600f60f81b9b939a50919850469750309650945092509050565b6060600480546106c99061498b565b5f6110a6836126ff565b613a055f8360018111156110bc576110bc6145a3565b146110c957612c1a6110cd565b612ca85b90506110e46110da611fe8565b858363ffffffff16565b949350505050565b6040516317d5759960e31b81525f906001600160a01b037f0000000000000000000000000000000000000000000000000000000000000000169063beabacc89061079c903390879087906004016149bd565b60405163ca4f280360e01b81526060906001600160a01b037f0000000000000000000000000000000000000000000000000000000000000000169063ca4f28039061118d9030906004016142a4565b5f60405180830381865afa1580156111a7573d5f5f3e3d5ffd5b505050506040513d5f823e601f3d908101601f191682016040526109369190810190614ab1565b6060806060807f00000000000000000000000000000000000000000000000000000000000000006001600160a01b03166367e0e076306040518263ffffffff1660e01b815260040161122091906142a4565b5f60405180830381865afa15801561123a573d5f5f3e3d5ffd5b505050506040513d5f823e601f3d908101601f191682016040526112619190810190614d32565b935093509350935090919293565b6007546040805163548e961560e01b815290516112e1926001600160a01b03169163548e96159160048083019260209291908290030181865afa1580156112b8573d5f5f3e3d5ffd5b505050506040513d601f19601f820116820180604052508101906112dc9190614e8f565b612d15565b565b6040516329ae7ec560e11b81526060906001600160a01b037f0000000000000000000000000000000000000000000000000000000000000000169063535cfd8a906113329030906004016142a4565b5f60405180830381865afa15801561134c573d5f5f3e3d5ffd5b505050506040513d5f823e601f3d908101601f191682016040526109369190810190614eaa565b60408051610100810182526060808252602082018190525f8284018190529082018190526080820181905260a0820181905260c0820181905260e082015290516329ae7ec560e11b81527f00000000000000000000000000000000000000000000000000000000000000006001600160a01b03169063535cfd8a906113fc9030906004016142a4565b5f60405180830381865afa158015611416573d5f5f3e3d5ffd5b505050506040513d5f823e601f3d908101601f1916820160405261143d9190810190614eaa565b8152604051633f1b0def60e11b81526001600160a01b037f00000000000000000000000000000000000000000000000000000000000000001690637e361bde9061148b9030906004016142a4565b5f60405180830381865afa1580156114a5573d5f5f3e3d5ffd5b505050506040513d5f823e601f3d908101601f191682016040526114cc9190810190614b3d565b60208301525060405163b45090f960e01b81526001600160a01b037f0000000000000000000000000000000000000000000000000000000000000000169063b45090f99061151e9030906004016142a4565b602060405180830381865afa158015611539573d5f5f3e3d5ffd5b505050506040513d601f19601f8201168201806040525081019061155d9190614a36565b604082015261156a6108a9565b60608201526006546001600160a01b03908116608083015260405163f29486a160e01b81525f917f0000000000000000000000000000000000000000000000000000000000000000169063f29486a1906115c89030906004016142a4565b6101a060405180830381865afa1580156115e4573d5f5f3e3d5ffd5b505050506040513d601f19601f820116820180604052508101906116089190614c79565b60e080820151151560a0850152610100820151151560c0850152610120909101511515908301525090565b6116746040518060e0016040528060608152602001606081526020015f81526020015f81526020015f151581526020015f151581526020015f151581525090565b6040516329ae7ec560e11b81526001600160a01b037f0000000000000000000000000000000000000000000000000000000000000000169063535cfd8a906116c09030906004016142a4565b5f60405180830381865afa1580156116da573d5f5f3e3d5ffd5b505050506040513d5f823e601f3d908101601f191682016040526117019190810190614eaa565b8152604051633f1b0def60e11b81526001600160a01b037f00000000000000000000000000000000000000000000000000000000000000001690637e361bde9061174f9030906004016142a4565b5f60405180830381865afa158015611769573d5f5f3e3d5ffd5b505050506040513d5f823e601f3d908101601f191682016040526117909190810190614b3d565b60208301525060405163b45090f960e01b81526001600160a01b037f0000000000000000000000000000000000000000000000000000000000000000169063b45090f9906117e29030906004016142a4565b602060405180830381865afa1580156117fd573d5f5f3e3d5ffd5b505050506040513d601f19601f820116820180604052508101906118219190614a36565b604082015261182e6108a9565b606082015260405163f29486a160e01b81525f906001600160a01b037f0000000000000000000000000000000000000000000000000000000000000000169063f29486a1906118819030906004016142a4565b6101a060405180830381865afa15801561189d573d5f5f3e3d5ffd5b505050506040513d601f19601f820116820180604052508101906118c19190614c79565b60e081015115156080840152610100810151151560a08401526101200151151560c08301525090565b60405163b45090f960e01b81525f906001600160a01b037f0000000000000000000000000000000000000000000000000000000000000000169063b45090f9906108f79030906004016142a4565b834211156119615760405163313c898160e11b8152600481018590526024015b60405180910390fd5b5f5f516020614f505f395f51905f5288888861197c8c6125ae565b6040805160208101969096526001600160a01b0394851690860152929091166060840152608083015260a082015260c0810186905260e0016040516020818303038152906040528051906020012090505f6119d682612d6c565b90505f6119e582878787612d98565b9050896001600160a01b0316816001600160a01b031614611a1d57808a6040516325c0072360e11b8152600401611958929190614b98565b60405163e1f21c6760e01b81526001600160a01b037f0000000000000000000000000000000000000000000000000000000000000000169063e1f21c6790611a6d908d908d908d906004016149bd565b6020604051808303815f875af1158015611a89573d5f5f3e3d5ffd5b505050506040513d601f19601f82011682018060405250810190611aad91906149ec565b5050505050505050505050565b6060610936612291565b60405163927da10560e01b81523060048201526001600160a01b03838116602483015282811660448301525f917f00000000000000000000000000000000000000000000000000000000000000009091169063927da10590606401602060405180830381865afa158015611b3a573d5f5f3e3d5ffd5b505050506040513d601f19601f82011682018060405250810190611b5e9190614a36565b9392505050565b6060610936611fe8565b5f815f03611b9e57507f0000000000000000000000000000000000000000000000000000000000000000919050565b81600103611bcd57507f0000000000000000000000000000000000000000000000000000000000000000919050565b81600203611bfc57507f0000000000000000000000000000000000000000000000000000000000000000919050565b81600303611c2b57507f0000000000000000000000000000000000000000000000000000000000000000919050565b81600403611c5a57507f0000000000000000000000000000000000000000000000000000000000000000919050565b81600503611c8957507f0000000000000000000000000000000000000000000000000000000000000000919050565b81600603611cb857507f0000000000000000000000000000000000000000000000000000000000000000919050565b81600703611ce757507f0000000000000000000000000000000000000000000000000000000000000000919050565b60405163c1ab6dc160e01b815260040160405180910390fd5b919050565b5f613a05670de0b6b3a76400008311611d2057612da5611d24565b612dc55b90505f611d47611d40670de0b6b3a7640000878563ffffffff16565b8590612dd9565b9050611d538682612e8c565b9695505050505050565b5f825f03611d8c57507f0000000000000000000000000000000000000000000000000000000000000000611ec9565b82600103611dbb57507f0000000000000000000000000000000000000000000000000000000000000000611ec9565b82600203611dea57507f0000000000000000000000000000000000000000000000000000000000000000611ec9565b82600303611e1957507f0000000000000000000000000000000000000000000000000000000000000000611ec9565b82600403611e4857507f0000000000000000000000000000000000000000000000000000000000000000611ec9565b82600503611e7757507f0000000000000000000000000000000000000000000000000000000000000000611ec9565b82600603611ea657507f0000000000000000000000000000000000000000000000000000000000000000611ec9565b507f00000000000000000000000000000000000000000000000000000000000000005b80821015611ef05782828260405163d63c023360e01b815260040161195893929190614edb565b505050565b336001600160a01b037f000000000000000000000000000000000000000000000000000000000000000016146112e1573360405163089676d560e01b815260040161195891906142a4565b5f610936604080517f8b73c3c69bb8fe3d512ecc4cf759cc79239f7b179b0ffacaa9a75d522b39400f60208201527f0000000000000000000000000000000000000000000000000000000000000000918101919091527f000000000000000000000000000000000000000000000000000000000000000060608201524660808201523060a08201525f9060c00160405160208183030381529060405280519060200120905090565b60607f0000000000000000000000000000000000000000000000000000000000000000806001600160401b0381111561202357612023613abd565b60405190808252806020026020018201604052801561204c578160200160208202803683370190505b5091507f0000000000000000000000000000000000000000000000000000000000000000825f8151811061208257612082614a22565b6020026020010181815250507f0000000000000000000000000000000000000000000000000000000000000000826001815181106120c2576120c2614a22565b602002602001018181525050600281111561211c577f00000000000000000000000000000000000000000000000000000000000000008260028151811061210b5761210b614a22565b602002602001018181525050612120565b5090565b600381111561211c577f00000000000000000000000000000000000000000000000000000000000000008260038151811061215d5761215d614a22565b602002602001018181525050600481111561211c577f0000000000000000000000000000000000000000000000000000000000000000826004815181106121a6576121a6614a22565b602002602001018181525050600581111561211c577f0000000000000000000000000000000000000000000000000000000000000000826005815181106121ef576121ef614a22565b602002602001018181525050600681111561211c577f00000000000000000000000000000000000000000000000000000000000000008260068151811061223857612238614a22565b602002602001018181525050600781111561211c577f00000000000000000000000000000000000000000000000000000000000000008260078151811061228157612281614a22565b6020026020010181815250505090565b60605f7f00000000000000000000000000000000000000000000000000000000000000006001600160a01b031663ca4f2803306040518263ffffffff1660e01b81526004016122e091906142a4565b5f60405180830381865afa1580156122fa573d5f5f3e3d5ffd5b505050506040513d5f823e601f3d908101601f191682016040526123219190810190614ab1565b8051909150806001600160401b0381111561233e5761233e613abd565b604051908082528060200260200182016040528015612367578160200160208202803683370190505b5092507f0000000000000000000000000000000000000000000000000000000000000000835f8151811061239d5761239d614a22565b6020026020010181815250507f0000000000000000000000000000000000000000000000000000000000000000836001815181106123dd576123dd614a22565b6020026020010181815250506002811115612437577f00000000000000000000000000000000000000000000000000000000000000008360028151811061242657612426614a22565b60200260200101818152505061243c565b505090565b6003811115612437577f00000000000000000000000000000000000000000000000000000000000000008360038151811061247957612479614a22565b6020026020010181815250506004811115612437577f0000000000000000000000000000000000000000000000000000000000000000836004815181106124c2576124c2614a22565b6020026020010181815250506005811115612437577f00000000000000000000000000000000000000000000000000000000000000008360058151811061250b5761250b614a22565b6020026020010181815250506006811115612437577f00000000000000000000000000000000000000000000000000000000000000008360068151811061255457612554614a22565b6020026020010181815250506007811115612437577f00000000000000000000000000000000000000000000000000000000000000008360078151811061259d5761259d614a22565b602002602001018181525050505090565b6001600160a01b03165f90815260026020526040902080546001810190915590565b5f6125e386670429d069189e0000612eb8565b8211156126035760405163340a453360e01b815260040160405180910390fd5b5f61260e8388614bc6565b90505f61261b8883612dc5565b90505f6126288887612da5565b90505f6126358383612dd9565b9050612651670de0b6b3a7640000828103908310028990612eb8565b9a9950505050505050505050565b5f61267284670429d069189e0000612eb8565b821115612692576040516364590b9f60e01b815260040160405180910390fd5b5f6126a76126a08487614bd9565b8690612dc5565b90505f6126b48588612dc5565b90505f6126c18383612dd9565b90505f6126d6670de0b6b3a764000083614bd9565b90506126518a82612e8c565b60605f80546106c99061498b565b6060600180546106c99061498b565b80517f0000000000000000000000000000000000000000000000000000000000000000825f8361273157612731614a22565b60200260200101511015612797575f825f8151811061275257612752614a22565b60200260200101517f000000000000000000000000000000000000000000000000000000000000000060405163d63c023360e01b815260040161195893929190614edb565b7f0000000000000000000000000000000000000000000000000000000000000000826001815181106127cb576127cb614a22565b60200260200101511015612833576001826001815181106127ee576127ee614a22565b60200260200101517f000000000000000000000000000000000000000000000000000000000000000060405163d63c023360e01b815260040161195893929190614edb565b60028111156128dd577f00000000000000000000000000000000000000000000000000000000000000008260028151811061287057612870614a22565b602002602001015110156128d85760028260028151811061289357612893614a22565b60200260200101517f000000000000000000000000000000000000000000000000000000000000000060405163d63c023360e01b815260040161195893929190614edb565b6128e1565b5050565b60038111156128dd577f00000000000000000000000000000000000000000000000000000000000000008260038151811061291e5761291e614a22565b602002602001015110156129865760038260038151811061294157612941614a22565b60200260200101517f000000000000000000000000000000000000000000000000000000000000000060405163d63c023360e01b815260040161195893929190614edb565b60048111156128dd577f0000000000000000000000000000000000000000000000000000000000000000826004815181106129c3576129c3614a22565b60200260200101511015612a2b576004826004815181106129e6576129e6614a22565b60200260200101517f000000000000000000000000000000000000000000000000000000000000000060405163d63c023360e01b815260040161195893929190614edb565b60058111156128dd577f000000000000000000000000000000000000000000000000000000000000000082600581518110612a6857612a68614a22565b60200260200101511015612ad057600582600581518110612a8b57612a8b614a22565b60200260200101517f000000000000000000000000000000000000000000000000000000000000000060405163d63c023360e01b815260040161195893929190614edb565b60068111156128dd577f000000000000000000000000000000000000000000000000000000000000000082600681518110612b0d57612b0d614a22565b60200260200101511015612b7557600682600681518110612b3057612b30614a22565b60200260200101517f000000000000000000000000000000000000000000000000000000000000000060405163d63c023360e01b815260040161195893929190614edb565b60078111156128dd577f000000000000000000000000000000000000000000000000000000000000000082600781518110612bb257612bb2614a22565b602002602001015110156128dd57600782600781518110612bd557612bd5614a22565b60200260200101517f000000000000000000000000000000000000000000000000000000000000000060405163d63c023360e01b815260040161195893929190614edb565b670de0b6b3a76400005f5b8351811015612c8757612c7d612c76858381518110612c4657612c46614a22565b6020026020010151858481518110612c6057612c60614a22565b6020026020010151612ed890919063ffffffff16565b8390612eb8565b9150600101612c25565b50805f036107e257604051632654368960e01b815260040160405180910390fd5b670de0b6b3a76400005f5b8351811015612c8757612d0b612d04858381518110612cd457612cd4614a22565b6020026020010151858481518110612cee57612cee614a22565b6020026020010151612dd990919063ffffffff16565b8390612e8c565b9150600101612cb3565b600680546001600160a01b0319166001600160a01b0383169081179091556040517fa2bffbf2e11d4267aadd6e35608a40b95ee2f64f9470dfad8bce6e8c79df24a291612d61916142a4565b60405180910390a150565b5f6107e2612d78611f40565b8360405161190160f01b8152600281019290925260228201526042902090565b5f61084585858585612f84565b5f80612db9670de0b6b3a764000085614ef1565b90506110e48382614f1c565b5f611b5e83670de0b6b3a764000084612fc9565b5f670de0b6b3a76400008203612df05750816107e2565b612e03670de0b6b3a76400006002614ef1565b8203612e1a57612e138384612e8c565b90506107e2565b612e2d670de0b6b3a76400006004614ef1565b8203612e52575f612e3e8485612e8c565b9050612e4a8182612e8c565b9150506107e2565b5f612e5d848461300e565b90505f612e6c82612710612e8c565b612e77906001614bc6565b9050612e838183614bc6565b925050506107e2565b5f80612e988385614ef1565b90506001670de0b6b3a76400006001830304018115150291505092915050565b5f80612ec48385614ef1565b90506110e4670de0b6b3a764000082614f1c565b5f670de0b6b3a76400008203612eef5750816107e2565b612f02670de0b6b3a76400006002614ef1565b8203612f1257612e138384612eb8565b612f25670de0b6b3a76400006004614ef1565b8203612f42575f612f368485612eb8565b9050612e4a8182612eb8565b5f612f4d848461300e565b90505f612f5c82612710612e8c565b612f67906001614bc6565b905080821015612f7b575f925050506107e2565b900390506107e2565b5f604051855f5260ff851660205283604052826060526020600160805f60015afa5191503d612fba57638baa579f5f526004601cfd5b5f606052604052949350505050565b5f815f03612fea57604051630a0c22c760e01b815260040160405180910390fd5b5f612ff58486614ef1565b9050600183600183030401811515029150509392505050565b5f815f036130255750670de0b6b3a76400006107e2565b825f0361303357505f6107e2565b60ff83901c15613055576040516211380f60e51b815260040160405180910390fd5b8261306d68056bc75e2d63100000600160fe1b614f1c565b831061308c5760405163d831731160e01b815260040160405180910390fd5b825f670c7d713b49da0000831380156130ac5750670f43fc2c04ee000083125b156130e2575f6130bb84613144565b9050670de0b6b3a764000080820784020583670de0b6b3a7640000830502019150506130f0565b816130ec84613261565b0290505b670de0b6b3a76400009005680238fd42c5cf03ffff19811280159061311e575068070c1cc73b00c800008113155b61313b5760405163a2f9f7e360e01b815260040160405180910390fd5b611d538161360b565b670de0b6b3a7640000025f806a0c097ce7bc90715b34b9f160241b808401906ec097ce7bc90715b34b9f0fffffffff198501028161318457613184614f08565b0590505f6a0c097ce7bc90715b34b9f160241b82800205905081806a0c097ce7bc90715b34b9f160241b81840205915060038205016a0c097ce7bc90715b34b9f160241b82840205915060058205016a0c097ce7bc90715b34b9f160241b82840205915060078205016a0c097ce7bc90715b34b9f160241b82840205915060098205016a0c097ce7bc90715b34b9f160241b828402059150600b8205016a0c097ce7bc90715b34b9f160241b828402059150600d8205016a0c097ce7bc90715b34b9f160241b828402059150600f82050160020295945050505050565b5f80670de0b6b3a764000083121561329857826a0c097ce7bc90715b34b9f160241b8161329057613290614f08565b059250600190505b5f775803bcc5cb9634ba4cfb2213f784019318ed4dcb6017880f60361b84126132e25772195e54c5dd42177f53a27172fa9ec63026282760241b840593506806f05b59d3b2000000015b6f8bcc0026baae9e45e470190267a230cf60191b8412613319576b1425982cf597cd205cef7380840593506803782dace9d9000000015b606493840293026e01855144814a7ff805980ff00840008412613361576e01855144814a7ff805980ff008400068056bc75e2d63100000850205935068ad78ebc5ac62000000015b6b02df0ab5a80a22c61ab5a700841261339c576b02df0ab5a80a22c61ab5a70068056bc75e2d6310000085020593506856bc75e2d631000000015b693f1fce3da636ea5cf85084126133d357693f1fce3da636ea5cf85068056bc75e2d631000008502059350682b5e3af16b18800000015b690127fa27722cc06cc5e2841261340a57690127fa27722cc06cc5e268056bc75e2d6310000085020593506815af1d78b58c400000015b68280e60114edb805d03841261343f5768280e60114edb805d0368056bc75e2d631000008502059350680ad78ebc5ac6200000015b680ebc5fb41746121110841261346a57680ebc5fb4174612111068056bc75e2d631000009485020593015b6808f00f760a4b2db55d841261349f576808f00f760a4b2db55d68056bc75e2d6310000085020593506802b5e3af16b1880000015b6806f5f177578893793784126134d4576806f5f177578893793768056bc75e2d63100000850205935068015af1d78b58c40000015b6806248f33704b2866038412613508576806248f33704b28660368056bc75e2d63100000850205935067ad78ebc5ac620000015b6805c548670b9510e7ac841261353c576805c548670b9510e7ac68056bc75e2d6310000085020593506756bc75e2d6310000015b5f68056bc75e2d63100000850168056bc75e2d63100000808703028161356457613564614f08565b0590505f68056bc75e2d63100000828002059050818068056bc75e2d63100000818402059150600382050168056bc75e2d63100000828402059150600582050168056bc75e2d63100000828402059150600782050168056bc75e2d63100000828402059150600982050168056bc75e2d63100000828402059150600b8205016002025f6064868301059050866135fa57806135fe565b805f035b9998505050505050505050565b5f680238fd42c5cf03ffff19821215801561362f575068070c1cc73b00c800008213155b61364c5760405163d4794efd60e01b815260040160405180910390fd5b5f8083121561365f57825f039250600190505b5f6806f05b59d3b2000000841261369c57506806f05b59d3b1ffffff199092019172195e54c5dd42177f53a27172fa9ec63026282760241b6136d2565b6803782dace9d900000084126136ce57506803782dace9d8ffffff19909201916b1425982cf597cd205cef73806136d2565b5060015b6064939093029268056bc75e2d6310000068ad78ebc5ac6200000085126137225768ad78ebc5ac61ffffff199094019368056bc75e2d631000006e01855144814a7ff805980ff008400082020590505b6856bc75e2d631000000851261375e576856bc75e2d630ffffff199094019368056bc75e2d631000006b02df0ab5a80a22c61ab5a70082020590505b682b5e3af16b18800000851261379857682b5e3af16b187fffff199094019368056bc75e2d63100000693f1fce3da636ea5cf85082020590505b6815af1d78b58c40000085126137d2576815af1d78b58c3fffff199094019368056bc75e2d63100000690127fa27722cc06cc5e282020590505b680ad78ebc5ac6200000851261380b57680ad78ebc5ac61fffff199094019368056bc75e2d6310000068280e60114edb805d0382020590505b68056bc75e2d6310000085126138445768056bc75e2d630fffff199094019368056bc75e2d63100000680ebc5fb4174612111082020590505b6802b5e3af16b1880000851261387d576802b5e3af16b187ffff199094019368056bc75e2d631000006808f00f760a4b2db55d82020590505b68015af1d78b58c4000085126138b65768015af1d78b58c3ffff199094019368056bc75e2d631000006806f5f177578893793782020590505b68056bc75e2d631000008581019086906002908280020505918201919050600368056bc75e2d631000008883020505918201919050600468056bc75e2d631000008883020505918201919050600568056bc75e2d631000008883020505918201919050600668056bc75e2d631000008883020505918201919050600768056bc75e2d631000008883020505918201919050600868056bc75e2d631000008883020505918201919050600968056bc75e2d631000008883020505918201919050600a68056bc75e2d631000008883020505918201919050600b68056bc75e2d631000008883020505918201919050600c68056bc75e2d6310000088830205059182019190505f606468056bc75e2d63100000858502058602059050856139db5780610a7a565b806a0c097ce7bc90715b34b9f160241b816139f8576139f8614f08565b0598975050505050505050565b6112e1614f3b565b5f60208284031215613a1d575f5ffd5b81356001600160e01b031981168114611b5e575f5ffd5b5f81518084528060208401602086015e5f602082860101526020601f19601f83011685010191505092915050565b602081525f611b5e6020830184613a34565b6001600160a01b0381168114610dda575f5ffd5b8035611d0081613a74565b5f5f60408385031215613aa4575f5ffd5b8235613aaf81613a74565b946020939093013593505050565b634e487b7160e01b5f52604160045260245ffd5b604051608081016001600160401b0381118282101715613af357613af3613abd565b60405290565b60405160e081016001600160401b0381118282101715613af357613af3613abd565b60405161014081016001600160401b0381118282101715613af357613af3613abd565b604051606081016001600160401b0381118282101715613af357613af3613abd565b604051601f8201601f191681016001600160401b0381118282101715613b8857613b88613abd565b604052919050565b5f6001600160401b03821115613ba857613ba8613abd565b5060051b60200190565b60028110610dda575f5ffd5b8035611d0081613bb2565b8015158114610dda575f5ffd5b5f60808284031215613be6575f5ffd5b50919050565b5f5f5f5f60e08587031215613bff575f5ffd5b8435613c0a81613a74565b93506020850135613c1a81613a74565b925060408501356001600160401b03811115613c34575f5ffd5b8501601f81018713613c44575f5ffd5b8035613c57613c5282613b90565b613b60565b8082825260208201915060208360071b850101925089831115613c78575f5ffd5b6020840193505b82841015613cf8576080848b031215613c96575f5ffd5b613c9e613ad1565b8435613ca981613a74565b81526020850135613cb981613bb2565b60208201526040850135613ccc81613a74565b60408201526060850135613cdf81613bc9565b6060820152825260809390930192602090910190613c7f565b80955050505050613d0c8660608701613bd6565b905092959194509250565b5f82601f830112613d26575f5ffd5b8135613d34613c5282613b90565b8082825260208201915060208360051b860101925085831115613d55575f5ffd5b602085015b83811015613d72578035835260209283019201613d5a565b5095945050505050565b5f5f5f60608486031215613d8e575f5ffd5b83356001600160401b03811115613da3575f5ffd5b613daf86828701613d17565b9660208601359650604090950135949350505050565b5f60208284031215613dd5575f5ffd5b81356001600160401b03811115613dea575f5ffd5b82016101808185031215611b5e575f5ffd5b5f82601f830112613e0b575f5ffd5b81356001600160401b03811115613e2457613e24613abd565b613e37601f8201601f1916602001613b60565b818152846020838601011115613e4b575f5ffd5b816020850160208301375f918101602001919091529392505050565b5f5f60408385031215613e78575f5ffd5b82356001600160401b03811115613e8d575f5ffd5b613e9985828601613d17565b92505060208301356001600160401b03811115613eb4575f5ffd5b613ec085828601613dfc565b9150509250929050565b5f5f5f60608486031215613edc575f5ffd5b8335613ee781613a74565b92506020840135613ef781613a74565b929592945050506040919091013590565b803560048110611d00575f5ffd5b5f5f5f5f5f5f5f5f610100898b031215613f2e575f5ffd5b613f3789613a88565b9750613f4560208a01613a88565b9650613f5360408a01613f08565b95506060890135945060808901356001600160401b03811115613f74575f5ffd5b613f808b828c01613d17565b94505060a08901356001600160401b03811115613f9b575f5ffd5b613fa78b828c01613d17565b93505060c08901356001600160401b03811115613fc2575f5ffd5b613fce8b828c01613d17565b92505060e08901356001600160401b03811115613fe9575f5ffd5b613ff58b828c01613dfc565b9150509295985092959890939650565b5f8151808452602084019350602083015f5b82811015614035578151865260209586019590910190600101614017565b5093949350505050565b8215158152604060208201525f6110e46040830184614005565b5f5f5f6060848603121561406b575f5ffd5b83356001600160401b03811115614080575f5ffd5b61408c86828701613d17565b9350506020840135915060408401356001600160401b038111156140ae575f5ffd5b6140ba86828701613dfc565b9150509250925092565b803560058110611d00575f5ffd5b5f5f5f5f5f5f5f60e0888a0312156140e8575f5ffd5b87356140f381613a74565b965061410160208901613a88565b955061410f604089016140c4565b945060608801356001600160401b03811115614129575f5ffd5b6141358a828b01613d17565b9450506080880135925060a08801356001600160401b03811115614157575f5ffd5b6141638a828b01613d17565b92505060c08801356001600160401b0381111561417e575f5ffd5b61418a8a828b01613dfc565b91505092959891949750929550565b5f60e08284031215613be6575f5ffd5b5f5f604083850312156141ba575f5ffd5b82356001600160401b038111156141cf575f5ffd5b6141db85828601614199565b92505060208301356141ec81613a74565b809150509250929050565b5f8151808452602084019350602083015f5b828110156140355781516001600160a01b0316865260209586019590910190600101614209565b602081525f82516080602084015261424b60a08401826141f7565b90506020840151601f198483030160408501526142688282614005565b9150506040840151601f198483030160608501526142868282614005565b9150506060840151601f198483030160808501526108458282614005565b6001600160a01b0391909116815260200190565b602081525f8251606060208401526142d360808401826141f7565b90506020840151601f198483030160408501526142f08282614005565b9150506040840151601f198483030160608501526108458282614005565b5f6020828403121561431e575f5ffd5b8135611b5e81613a74565b5f60208284031215614339575f5ffd5b81356001600160401b0381111561434e575f5ffd5b820160e0818503121561435f575f5ffd5b614367613af9565b61437082613bbe565b81526020828101359082015260408201356001600160401b03811115614394575f5ffd5b6143a086828501613d17565b60408301525060608281013590820152608080830135908201526143c660a08301613a88565b60a082015260c08201356001600160401b038111156143e3575f5ffd5b6143ef86828501613dfc565b60c083015250949350505050565b60ff60f81b8816815260e060208201525f61441b60e0830189613a34565b828103604084015261442d8189613a34565b606084018890526001600160a01b038716608085015260a0840186905283810360c085015290506126518185614005565b5f5f5f5f5f5f5f5f610100898b031215614476575f5ffd5b61447f89613a88565b975061448d60208a01613a88565b965061449b60408a016140c4565b955060608901356001600160401b038111156144b5575f5ffd5b6144c18b828c01613d17565b95505060808901356001600160401b038111156144dc575f5ffd5b6144e88b828c01613d17565b94505060a0890135925060c08901356001600160401b03811115613fc2575f5ffd5b5f5f6040838503121561451b575f5ffd5b82356001600160401b03811115614530575f5ffd5b61453c85828601613d17565b92505060208301356141ec81613bb2565b5f5f5f6060848603121561455f575f5ffd5b83356001600160401b03811115614574575f5ffd5b61458086828701614199565b9350506020840135613ef781613a74565b602081525f611b5e60208301846141f7565b634e487b7160e01b5f52602160045260245ffd5b608081525f6145c960808301876141f7565b82810360208401528086518083526020830191506020880192505f5b8181101561464457835180516002811061460d57634e487b7160e01b5f52602160045260245ffd5b84526020818101516001600160a01b03168186015260409182015115159185019190915293909301926060909201916001016145e5565b505083810360408501526146588187614005565b915050828103606084015261466d8185614005565b979650505050505050565b602081525f611b5e6020830184614005565b5f5f5f5f5f5f5f60e0888a0312156146a0575f5ffd5b87356146ab81613a74565b96506146b960208901613a88565b95506146c760408901613f08565b94506060880135935060808801356001600160401b038111156146e8575f5ffd5b6146f48a828b01613d17565b93505060a08801356001600160401b03811115614157575f5ffd5b602081525f8251610100602084015261472c610120840182614005565b90506020840151601f198483030160408501526147498282614005565b915050604084015160608401526060840151608084015260018060a01b0360808501511660a084015260a084015161478560c085018215159052565b5060c084015180151560e08501525060e08401518015156101008501526108a1565b602081525f825160e060208401526147c3610100840182614005565b90506020840151601f198483030160408501526147e08282614005565b91505060408401516060840152606084015160808401526080840151151560a084015260a0840151151560c084015260c0840151151560e08401528091505092915050565b5f5f5f5f5f5f5f60e0888a03121561483b575f5ffd5b873561484681613a74565b9650602088013561485681613a74565b95506040880135945060608801359350608088013560ff81168114614879575f5ffd5b9699959850939692959460a0840135945060c09093013592915050565b815115158152610140810160208301516148b4602084018215159052565b5060408301516148c8604084018215159052565b5060608301516148dc606084018215159052565b5060808301516148f0608084018215159052565b5060a083015161490460a084018215159052565b5060c083015161491860c084018215159052565b5060e083015161492c60e084018215159052565b5061010083015161494261010084018215159052565b5061012083015161495861012084018215159052565b5092915050565b5f5f60408385031215614970575f5ffd5b823561497b81613a74565b915060208301356141ec81613a74565b600181811c9082168061499f57607f821691505b602082108103613be657634e487b7160e01b5f52602260045260245ffd5b6001600160a01b039384168152919092166020820152604081019190915260600190565b8051611d0081613bc9565b5f602082840312156149fc575f5ffd5b8151611b5e81613bc9565b5f60208284031215614a17575f5ffd5b8135611b5e81613bc9565b634e487b7160e01b5f52603260045260245ffd5b5f60208284031215614a46575f5ffd5b5051919050565b5f82601f830112614a5c575f5ffd5b8151614a6a613c5282613b90565b8082825260208201915060208360051b860101925085831115614a8b575f5ffd5b602085015b83811015613d72578051614aa381613a74565b835260209283019201614a90565b5f60208284031215614ac1575f5ffd5b81516001600160401b03811115614ad6575f5ffd5b6110e484828501614a4d565b5f82601f830112614af1575f5ffd5b8151614aff613c5282613b90565b8082825260208201915060208360051b860101925085831115614b20575f5ffd5b602085015b83811015613d72578051835260209283019201614b25565b5f5f60408385031215614b4e575f5ffd5b82516001600160401b03811115614b63575f5ffd5b614b6f85828601614ae2565b602085015190935090506001600160401b03811115614b8c575f5ffd5b613ec085828601614ae2565b6001600160a01b0392831681529116602082015260400190565b634e487b7160e01b5f52601160045260245ffd5b808201808211156107e2576107e2614bb2565b818103818111156107e2576107e2614bb2565b5f60808284031215614bfc575f5ffd5b614c04613ad1565b90508151614c1181613bc9565b81526020820151614c2181613bc9565b60208201526040820151614c3481613bc9565b60408201526060820151614c4781613bc9565b606082015292915050565b805164ffffffffff81168114611d00575f5ffd5b805163ffffffff81168114611d00575f5ffd5b5f6101a0828403128015614c8b575f5ffd5b50614c94613b1b565b614c9e8484614bec565b81526080830151602082015260a0830151604082015260c08301516060820152614cca60e08401614c52565b6080820152614cdc6101008401614c66565b60a0820152614cee61012084016149e1565b60c0820152614d0061014084016149e1565b60e0820152614d1261016084016149e1565b610100820152614d2561018084016149e1565b6101208201529392505050565b5f5f5f5f60808587031215614d45575f5ffd5b84516001600160401b03811115614d5a575f5ffd5b614d6687828801614a4d565b602087015190955090506001600160401b03811115614d83575f5ffd5b8501601f81018713614d93575f5ffd5b8051614da1613c5282613b90565b80828252602082019150602060608402850101925089831115614dc2575f5ffd5b6020840193505b82841015614e2f576060848b031215614de0575f5ffd5b614de8613b3e565b8451614df381613bb2565b81526020850151614e0381613a74565b60208201526040850151614e1681613bc9565b6040820152825260609390930192602090910190614dc9565b6040890151909650925050506001600160401b03811115614e4e575f5ffd5b614e5a87828801614ae2565b606087015190935090506001600160401b03811115614e77575f5ffd5b614e8387828801614ae2565b91505092959194509250565b5f60208284031215614e9f575f5ffd5b8151611b5e81613a74565b5f60208284031215614eba575f5ffd5b81516001600160401b03811115614ecf575f5ffd5b6110e484828501614ae2565b9283526020830191909152604082015260600190565b80820281158282048414176107e2576107e2614bb2565b634e487b7160e01b5f52601260045260245ffd5b5f82614f3657634e487b7160e01b5f52601260045260245ffd5b500490565b634e487b7160e01b5f52605160045260245ffdfe6e71edae12b1b97f4d1f60370fef10105fa2faae0126114a169c64845d6126c9a2646970667358221220bd4962255156d1fdcf638be142d14fdb71f064eb3b7b4fc05114564a5687c01c64736f6c634300081e0033","linkReferences":{}},"methodIdentifiers":{"DOMAIN_SEPARATOR()":"3644e515","PERMIT_TYPEHASH()":"30adf81f","allowance(address,address)":"dd62ed3e","approve(address,uint256)":"095ea7b3","balanceOf(address)":"70a08231","computeBalance(uint256[],uint256,uint256)":"16a0b3e0","computeInvariant(uint256[],uint8)":"984de9e8","decimals()":"313ce567","eip712Domain()":"84b0196e","emitApproval(address,address,uint256)":"5687f2b8","emitTransfer(address,address,uint256)":"23de6651","getAggregateFeePercentages()":"81fa807c","getCowPoolDynamicData()":"beb5c1e1","getCowPoolImmutableData()":"5fd482e2","getCurrentLiveBalances()":"b156aa0a","getHookFlags()":"d77153a7","getMaximumInvariantRatio()":"273c1adf","getMaximumSwapFeePercentage()":"654cf15d","getMinTokenBalances()":"d67f280b","getMinimumInvariantRatio()":"b677fa56","getMinimumSwapFeePercentage()":"ce20ece7","getNormalizedWeights()":"f89f27ed","getRate()":"679aefce","getStaticSwapFeePercentage()":"d335b0cf","getTokenInfo()":"abb1dc44","getTokens()":"aa6ca808","getTrustedCowRouter()":"548e9615","getVault()":"8d928af8","getWeightedPoolDynamicData()":"c0bc6f33","getWeightedPoolImmutableData()":"53b79bd7","incrementNonce()":"627cdcb9","name()":"06fdde03","nonces(address)":"7ecebe00","onAfterAddLiquidity(address,address,uint8,uint256[],uint256[],uint256,uint256[],bytes)":"976907cc","onAfterInitialize(uint256[],uint256,bytes)":"38be241d","onAfterRemoveLiquidity(address,address,uint8,uint256,uint256[],uint256[],uint256[],bytes)":"2754888d","onAfterSwap((uint8,address,address,uint256,uint256,uint256,uint256,uint256,uint256,address,address,bytes))":"18b6eb55","onBeforeAddLiquidity(address,address,uint8,uint256[],uint256,uint256[],bytes)":"45421ec7","onBeforeInitialize(uint256[],bytes)":"1c149e28","onBeforeRemoveLiquidity(address,address,uint8,uint256,uint256[],uint256[],bytes)":"ba5f9f40","onBeforeSwap((uint8,uint256,uint256[],uint256,uint256,address,bytes),address)":"5211fa77","onComputeDynamicSwapFeePercentage((uint8,uint256,uint256[],uint256,uint256,address,bytes),address,uint256)":"a0e8f5ac","onRegister(address,address,(address,uint8,address,bool)[],(bool,bool,bool,bool))":"0b89f182","onSwap((uint8,uint256,uint256[],uint256,uint256,address,bytes))":"72c98186","permit(address,address,uint256,uint256,uint8,bytes32,bytes32)":"d505accf","refreshTrustedCowRouter()":"b0959b15","supportsInterface(bytes4)":"01ffc9a7","symbol()":"95d89b41","totalSupply()":"18160ddd","transfer(address,uint256)":"a9059cbb","transferFrom(address,address,uint256)":"23b872dd","version()":"54fd4d50"},"id":113}