{"abi":[{"type":"constructor","inputs":[{"name":"vault","type":"address","internalType":"contract IVault"},{"name":"weth","type":"address","internalType":"contract IWETH"},{"name":"permit2","type":"address","internalType":"contract IPermit2"},{"name":"routerVersion","type":"string","internalType":"string"}],"stateMutability":"nonpayable"},{"type":"receive","stateMutability":"payable"},{"type":"function","name":"addLiquidityERC4626PoolProportionalHook","inputs":[{"name":"params","type":"tuple","internalType":"struct AddLiquidityHookParams","components":[{"name":"sender","type":"address","internalType":"address"},{"name":"pool","type":"address","internalType":"address"},{"name":"maxAmountsIn","type":"uint256[]","internalType":"uint256[]"},{"name":"minBptAmountOut","type":"uint256","internalType":"uint256"},{"name":"kind","type":"uint8","internalType":"enum AddLiquidityKind"},{"name":"wethIsEth","type":"bool","internalType":"bool"},{"name":"userData","type":"bytes","internalType":"bytes"}]},{"name":"wrapUnderlying","type":"bool[]","internalType":"bool[]"}],"outputs":[{"name":"amountsIn","type":"uint256[]","internalType":"uint256[]"}],"stateMutability":"nonpayable"},{"type":"function","name":"addLiquidityERC4626PoolUnbalancedHook","inputs":[{"name":"params","type":"tuple","internalType":"struct AddLiquidityHookParams","components":[{"name":"sender","type":"address","internalType":"address"},{"name":"pool","type":"address","internalType":"address"},{"name":"maxAmountsIn","type":"uint256[]","internalType":"uint256[]"},{"name":"minBptAmountOut","type":"uint256","internalType":"uint256"},{"name":"kind","type":"uint8","internalType":"enum AddLiquidityKind"},{"name":"wethIsEth","type":"bool","internalType":"bool"},{"name":"userData","type":"bytes","internalType":"bytes"}]},{"name":"wrapUnderlying","type":"bool[]","internalType":"bool[]"}],"outputs":[{"name":"bptAmountOut","type":"uint256","internalType":"uint256"}],"stateMutability":"nonpayable"},{"type":"function","name":"addLiquidityProportionalToERC4626Pool","inputs":[{"name":"pool","type":"address","internalType":"address"},{"name":"wrapUnderlying","type":"bool[]","internalType":"bool[]"},{"name":"maxAmountsIn","type":"uint256[]","internalType":"uint256[]"},{"name":"exactBptAmountOut","type":"uint256","internalType":"uint256"},{"name":"wethIsEth","type":"bool","internalType":"bool"},{"name":"userData","type":"bytes","internalType":"bytes"}],"outputs":[{"name":"","type":"uint256[]","internalType":"uint256[]"}],"stateMutability":"payable"},{"type":"function","name":"addLiquidityUnbalancedNestedPool","inputs":[{"name":"parentPool","type":"address","internalType":"address"},{"name":"tokensIn","type":"address[]","internalType":"address[]"},{"name":"exactAmountsIn","type":"uint256[]","internalType":"uint256[]"},{"name":"tokensToWrap","type":"address[]","internalType":"address[]"},{"name":"minBptAmountOut","type":"uint256","internalType":"uint256"},{"name":"wethIsEth","type":"bool","internalType":"bool"},{"name":"userData","type":"bytes","internalType":"bytes"}],"outputs":[{"name":"","type":"uint256","internalType":"uint256"}],"stateMutability":"payable"},{"type":"function","name":"addLiquidityUnbalancedNestedPoolHook","inputs":[{"name":"params","type":"tuple","internalType":"struct AddLiquidityHookParams","components":[{"name":"sender","type":"address","internalType":"address"},{"name":"pool","type":"address","internalType":"address"},{"name":"maxAmountsIn","type":"uint256[]","internalType":"uint256[]"},{"name":"minBptAmountOut","type":"uint256","internalType":"uint256"},{"name":"kind","type":"uint8","internalType":"enum AddLiquidityKind"},{"name":"wethIsEth","type":"bool","internalType":"bool"},{"name":"userData","type":"bytes","internalType":"bytes"}]},{"name":"tokensIn","type":"address[]","internalType":"address[]"},{"name":"tokensToWrap","type":"address[]","internalType":"address[]"}],"outputs":[{"name":"exactBptAmountOut","type":"uint256","internalType":"uint256"}],"stateMutability":"nonpayable"},{"type":"function","name":"addLiquidityUnbalancedToERC4626Pool","inputs":[{"name":"pool","type":"address","internalType":"address"},{"name":"wrapUnderlying","type":"bool[]","internalType":"bool[]"},{"name":"exactAmountsIn","type":"uint256[]","internalType":"uint256[]"},{"name":"minBptAmountOut","type":"uint256","internalType":"uint256"},{"name":"wethIsEth","type":"bool","internalType":"bool"},{"name":"userData","type":"bytes","internalType":"bytes"}],"outputs":[{"name":"bptAmountOut","type":"uint256","internalType":"uint256"}],"stateMutability":"payable"},{"type":"function","name":"getPermit2","inputs":[],"outputs":[{"name":"","type":"address","internalType":"contract IPermit2"}],"stateMutability":"view"},{"type":"function","name":"getSender","inputs":[],"outputs":[{"name":"","type":"address","internalType":"address"}],"stateMutability":"view"},{"type":"function","name":"getVault","inputs":[],"outputs":[{"name":"","type":"address","internalType":"contract IVault"}],"stateMutability":"view"},{"type":"function","name":"getWeth","inputs":[],"outputs":[{"name":"","type":"address","internalType":"contract IWETH"}],"stateMutability":"view"},{"type":"function","name":"multicall","inputs":[{"name":"data","type":"bytes[]","internalType":"bytes[]"}],"outputs":[{"name":"results","type":"bytes[]","internalType":"bytes[]"}],"stateMutability":"payable"},{"type":"function","name":"permitBatchAndCall","inputs":[{"name":"permitBatch","type":"tuple[]","internalType":"struct IRouterCommon.PermitApproval[]","components":[{"name":"token","type":"address","internalType":"address"},{"name":"owner","type":"address","internalType":"address"},{"name":"spender","type":"address","internalType":"address"},{"name":"amount","type":"uint256","internalType":"uint256"},{"name":"nonce","type":"uint256","internalType":"uint256"},{"name":"deadline","type":"uint256","internalType":"uint256"}]},{"name":"permitSignatures","type":"bytes[]","internalType":"bytes[]"},{"name":"permit2Batch","type":"tuple","internalType":"struct IAllowanceTransfer.PermitBatch","components":[{"name":"details","type":"tuple[]","internalType":"struct IAllowanceTransfer.PermitDetails[]","components":[{"name":"token","type":"address","internalType":"address"},{"name":"amount","type":"uint160","internalType":"uint160"},{"name":"expiration","type":"uint48","internalType":"uint48"},{"name":"nonce","type":"uint48","internalType":"uint48"}]},{"name":"spender","type":"address","internalType":"address"},{"name":"sigDeadline","type":"uint256","internalType":"uint256"}]},{"name":"permit2Signature","type":"bytes","internalType":"bytes"},{"name":"multicallData","type":"bytes[]","internalType":"bytes[]"}],"outputs":[{"name":"","type":"bytes[]","internalType":"bytes[]"}],"stateMutability":"payable"},{"type":"function","name":"queryAddLiquidityProportionalToERC4626Pool","inputs":[{"name":"pool","type":"address","internalType":"address"},{"name":"wrapUnderlying","type":"bool[]","internalType":"bool[]"},{"name":"exactBptAmountOut","type":"uint256","internalType":"uint256"},{"name":"sender","type":"address","internalType":"address"},{"name":"userData","type":"bytes","internalType":"bytes"}],"outputs":[{"name":"","type":"uint256[]","internalType":"uint256[]"}],"stateMutability":"nonpayable"},{"type":"function","name":"queryAddLiquidityUnbalancedNestedPool","inputs":[{"name":"parentPool","type":"address","internalType":"address"},{"name":"tokensIn","type":"address[]","internalType":"address[]"},{"name":"exactAmountsIn","type":"uint256[]","internalType":"uint256[]"},{"name":"tokensToWrap","type":"address[]","internalType":"address[]"},{"name":"sender","type":"address","internalType":"address"},{"name":"userData","type":"bytes","internalType":"bytes"}],"outputs":[{"name":"","type":"uint256","internalType":"uint256"}],"stateMutability":"nonpayable"},{"type":"function","name":"queryAddLiquidityUnbalancedToERC4626Pool","inputs":[{"name":"pool","type":"address","internalType":"address"},{"name":"wrapUnderlying","type":"bool[]","internalType":"bool[]"},{"name":"exactAmountsIn","type":"uint256[]","internalType":"uint256[]"},{"name":"sender","type":"address","internalType":"address"},{"name":"userData","type":"bytes","internalType":"bytes"}],"outputs":[{"name":"bptAmountOut","type":"uint256","internalType":"uint256"}],"stateMutability":"nonpayable"},{"type":"function","name":"queryRemoveLiquidityProportionalFromERC4626Pool","inputs":[{"name":"pool","type":"address","internalType":"address"},{"name":"unwrapWrapped","type":"bool[]","internalType":"bool[]"},{"name":"exactBptAmountIn","type":"uint256","internalType":"uint256"},{"name":"sender","type":"address","internalType":"address"},{"name":"userData","type":"bytes","internalType":"bytes"}],"outputs":[{"name":"","type":"uint256[]","internalType":"uint256[]"}],"stateMutability":"nonpayable"},{"type":"function","name":"queryRemoveLiquidityProportionalNestedPool","inputs":[{"name":"parentPool","type":"address","internalType":"address"},{"name":"exactBptAmountIn","type":"uint256","internalType":"uint256"},{"name":"tokensOut","type":"address[]","internalType":"address[]"},{"name":"tokensToUnwrap","type":"address[]","internalType":"address[]"},{"name":"sender","type":"address","internalType":"address"},{"name":"userData","type":"bytes","internalType":"bytes"}],"outputs":[{"name":"amountsOut","type":"uint256[]","internalType":"uint256[]"}],"stateMutability":"nonpayable"},{"type":"function","name":"removeLiquidityERC4626PoolProportionalHook","inputs":[{"name":"params","type":"tuple","internalType":"struct RemoveLiquidityHookParams","components":[{"name":"sender","type":"address","internalType":"address"},{"name":"pool","type":"address","internalType":"address"},{"name":"minAmountsOut","type":"uint256[]","internalType":"uint256[]"},{"name":"maxBptAmountIn","type":"uint256","internalType":"uint256"},{"name":"kind","type":"uint8","internalType":"enum RemoveLiquidityKind"},{"name":"wethIsEth","type":"bool","internalType":"bool"},{"name":"userData","type":"bytes","internalType":"bytes"}]},{"name":"unwrapWrapped","type":"bool[]","internalType":"bool[]"}],"outputs":[{"name":"amountsOut","type":"uint256[]","internalType":"uint256[]"}],"stateMutability":"nonpayable"},{"type":"function","name":"removeLiquidityProportionalFromERC4626Pool","inputs":[{"name":"pool","type":"address","internalType":"address"},{"name":"unwrapWrapped","type":"bool[]","internalType":"bool[]"},{"name":"exactBptAmountIn","type":"uint256","internalType":"uint256"},{"name":"minAmountsOut","type":"uint256[]","internalType":"uint256[]"},{"name":"wethIsEth","type":"bool","internalType":"bool"},{"name":"userData","type":"bytes","internalType":"bytes"}],"outputs":[{"name":"","type":"uint256[]","internalType":"uint256[]"}],"stateMutability":"payable"},{"type":"function","name":"removeLiquidityProportionalNestedPool","inputs":[{"name":"parentPool","type":"address","internalType":"address"},{"name":"exactBptAmountIn","type":"uint256","internalType":"uint256"},{"name":"tokensOut","type":"address[]","internalType":"address[]"},{"name":"minAmountsOut","type":"uint256[]","internalType":"uint256[]"},{"name":"tokensToUnwrap","type":"address[]","internalType":"address[]"},{"name":"wethIsEth","type":"bool","internalType":"bool"},{"name":"userData","type":"bytes","internalType":"bytes"}],"outputs":[{"name":"amountsOut","type":"uint256[]","internalType":"uint256[]"}],"stateMutability":"payable"},{"type":"function","name":"removeLiquidityProportionalNestedPoolHook","inputs":[{"name":"params","type":"tuple","internalType":"struct RemoveLiquidityHookParams","components":[{"name":"sender","type":"address","internalType":"address"},{"name":"pool","type":"address","internalType":"address"},{"name":"minAmountsOut","type":"uint256[]","internalType":"uint256[]"},{"name":"maxBptAmountIn","type":"uint256","internalType":"uint256"},{"name":"kind","type":"uint8","internalType":"enum RemoveLiquidityKind"},{"name":"wethIsEth","type":"bool","internalType":"bool"},{"name":"userData","type":"bytes","internalType":"bytes"}]},{"name":"tokensOut","type":"address[]","internalType":"address[]"},{"name":"tokensToUnwrap","type":"address[]","internalType":"address[]"}],"outputs":[{"name":"amountsOut","type":"uint256[]","internalType":"uint256[]"}],"stateMutability":"nonpayable"},{"type":"function","name":"version","inputs":[],"outputs":[{"name":"","type":"string","internalType":"string"}],"stateMutability":"view"},{"type":"error","name":"AddressEmptyCode","inputs":[{"name":"target","type":"address","internalType":"address"}]},{"type":"error","name":"AmountInAboveMax","inputs":[{"name":"tokenIn","type":"address","internalType":"contract IERC20"},{"name":"amountIn","type":"uint256","internalType":"uint256"},{"name":"maxAmountIn","type":"uint256","internalType":"uint256"}]},{"type":"error","name":"AmountOutBelowMin","inputs":[{"name":"tokenOut","type":"address","internalType":"contract IERC20"},{"name":"amountOut","type":"uint256","internalType":"uint256"},{"name":"minAmountOut","type":"uint256","internalType":"uint256"}]},{"type":"error","name":"BufferNotInitialized","inputs":[{"name":"wrappedToken","type":"address","internalType":"contract IERC4626"}]},{"type":"error","name":"DuplicateTokenIn","inputs":[{"name":"duplicateToken","type":"address","internalType":"address"}]},{"type":"error","name":"ElementNotFound","inputs":[]},{"type":"error","name":"ErrorSelectorNotFound","inputs":[]},{"type":"error","name":"EthTransfer","inputs":[]},{"type":"error","name":"FailedCall","inputs":[]},{"type":"error","name":"InputLengthMismatch","inputs":[]},{"type":"error","name":"InsufficientBalance","inputs":[{"name":"balance","type":"uint256","internalType":"uint256"},{"name":"needed","type":"uint256","internalType":"uint256"}]},{"type":"error","name":"InsufficientEth","inputs":[]},{"type":"error","name":"InvalidAddLiquidityKind","inputs":[]},{"type":"error","name":"InvalidTokenType","inputs":[]},{"type":"error","name":"OperationNotSupported","inputs":[]},{"type":"error","name":"ReentrancyGuardReentrantCall","inputs":[]},{"type":"error","name":"SenderIsNotVault","inputs":[{"name":"sender","type":"address","internalType":"address"}]},{"type":"error","name":"SwapDeadline","inputs":[]},{"type":"error","name":"TransientIndexOutOfBounds","inputs":[]},{"type":"error","name":"WrongTokensOut","inputs":[{"name":"actualTokensOut","type":"address[]","internalType":"address[]"},{"name":"expectedTokensOut","type":"address[]","internalType":"address[]"}]}],"bytecode":{"object":"0x600b6102009081526a14d95b99195c91dd585c9960aa1b6102205261028060405260066102409081526539b2b73232b960d11b610260526100409190610290565b608052604080518082018252600c81526b2937baba32b921b7b6b6b7b760a11b602080830191909152825180840190935260118352701a5cd4995d1d5c9b915d1a131bd8dad959607a1b9083015261009791610290565b60c05260408051808201909152601381527f63757272656e7453776170546f6b656e73496e0000000000000000000000000060208201526100d7906102ff565b6101405260408051808201909152601481527f63757272656e7453776170546f6b656e734f75740000000000000000000000006020820152610118906102ff565b6101605260408051808201909152601981527f63757272656e7453776170546f6b656e496e416d6f756e7473000000000000006020820152610159906102ff565b6101805260408051808201909152601a81527f63757272656e7453776170546f6b656e4f7574416d6f756e7473000000000000602082015261019a906102ff565b6101a05260408051808201909152601381527f736574746c6564546f6b656e416d6f756e74730000000000000000000000000060208201526101db906102ff565b6101c052604080518082019091526011815270383937b1b2b9b9b2b22a37b5b2b739a4b760791b6020820152610210906102ff565b6101e05234801561021f575f5ffd5b50604051616ef7380380616ef783398101604081905261023e91610373565b6001600160a01b03841660a0528383838383838383838383838061026181610339565b50506001600160a01b0391821660e0521661010081905215610120525061061f9b505050505050505050505050565b5f60ff5f1b19600184846040516020016102ab929190610474565b604051602081830303815290604052805190602001205f1c6102cd91906104c2565b6040516020016102df91815260200190565b604051602081830303815290604052805190602001201690505b92915050565b5f6102f9604051806040016040526011815280602001702130ba31b42937baba32b921b7b6b6b7b760791b8152508361029060201b60201c565b5f6103448282610565565b5050565b6001600160a01b038116811461035c575f5ffd5b50565b634e487b7160e01b5f52604160045260245ffd5b5f5f5f5f60808587031215610386575f5ffd5b845161039181610348565b60208601519094506103a281610348565b60408601519093506103b381610348565b60608601519092506001600160401b038111156103ce575f5ffd5b8501601f810187136103de575f5ffd5b80516001600160401b038111156103f7576103f761035f565b604051601f8201601f19908116603f011681016001600160401b03811182821017156104255761042561035f565b60405281815282820160200189101561043c575f5ffd5b8160208401602083015e5f6020838301015280935050505092959194509250565b5f81518060208401855e5f93019283525090919050565b7f62616c616e6365722d6c6162732e76332e73746f726167652e0000000000000081525f6104a5601983018561045d565b601760f91b81526104b9600182018561045d565b95945050505050565b818103818111156102f957634e487b7160e01b5f52601160045260245ffd5b600181811c908216806104f557607f821691505b60208210810361051357634e487b7160e01b5f52602260045260245ffd5b50919050565b601f82111561056057805f5260205f20601f840160051c8101602085101561053e5750805b601f840160051c820191505b8181101561055d575f815560010161054a565b50505b505050565b81516001600160401b0381111561057e5761057e61035f565b6105928161058c84546104e1565b84610519565b6020601f8211600181146105c4575f83156105ad5750848201515b5f19600385901b1c1916600184901b17845561055d565b5f84815260208120601f198516915b828110156105f357878501518255602094850194600190920191016105d3565b508482101561061057868401515f19600387901b60f8161c191681555b50505050600190811b01905550565b60805160a05160c05160e05161010051610120516101405161016051610180516101a0516101c0516101e0516166a66108515f395f613a4b01525f50505f6136bf01525f613afc01525f6135b501525f613b3101525f818161081201528181611eca0152613ee401525f818161021a01528181612e6a0152614b8101525f81816101170152818161016901528181613f14015281816140030152818161404101528181614af50152614b3301525f613d8d01525f818161032f0152818161042b015281816106450152818161099301528181610a6a01528181610b7f01528181610c3801528181610cd701528181610dcb01528181610ee801528181610f6601528181610fe301528181611073015281816111500152818161165c015281816116fb015281816117ba01528181611a2b01528181611b3101528181611db80152818161202a0152818161218c0152818161228b0152818161237c015281816124c2015281816125b401528181612653015281816127d90152818161281e015281816129ac01528181612a9401528181612f0801528181612ff0015281816132f0015281816133880152818161342a015281816134fe01528181613820015281816138ca01528181613b9f01528181613f75015281816140620152818161409f01528181614222015281816144c8015281816146db0152818161472401528181614849015281816148d4015281816149a601528181614b5401528181614bb10152614c5901525f613a2701526166a65ff3fe608060405260043610610107575f3560e01c8063107c279f1461015b578063175f31c61461019f57806319aceff3146101c057806319c6989f146101ec5780631bbf2e231461020c57806327bfb13a1461023e5780633121edfc1461025d57806347cd1d021461027c5780634c97a8781461029b57806354fd4d50146102ba5780635e01eb5a146102db578063698cc74b146102ef5780636c1fb3201461030e5780638d928af814610321578063a5bb0bd114610353578063ac9650d814610372578063c1da024c14610385578063c9b8ddb214610398578063d2b1b903146103b7578063d8a7f9fe146103d6578063e3c3e64f146103e9578063f921696e146103fc575f5ffd5b3661015757336001600160a01b037f00000000000000000000000000000000000000000000000000000000000000001614610155576040516302a06efb60e11b815260040160405180910390fd5b005b5f5ffd5b348015610166575f5ffd5b507f00000000000000000000000000000000000000000000000000000000000000005b6040516101969190614fea565b60405180910390f35b6101b26101ad3660046151d7565b61041b565b604051908152602001610196565b3480156101cb575f5ffd5b506101df6101da36600461530c565b61057b565b60405161019691906153ad565b6101ff6101fa36600461544c565b61080e565b604051610196919061556f565b348015610217575f5ffd5b507f0000000000000000000000000000000000000000000000000000000000000000610189565b348015610249575f5ffd5b506101b261025836600461530c565b610876565b348015610268575f5ffd5b506101b26102773660046155d2565b610a49565b348015610287575f5ffd5b506101df6102963660046156a6565b610b62565b3480156102a6575f5ffd5b506101df6102b536600461530c565b611624565b3480156102c5575f5ffd5b506102ce611955565b6040516101969190615731565b3480156102e6575f5ffd5b506101896119e4565b3480156102fa575f5ffd5b506101df6103093660046157a7565b6119f9565b6101df61031c366004615837565b611b20565b34801561032c575f5ffd5b507f0000000000000000000000000000000000000000000000000000000000000000610189565b34801561035e575f5ffd5b506101b261036d3660046156a6565b611c68565b6101ff6103803660046158e0565b611e7e565b6101b261039336600461591e565b61201a565b3480156103a3575f5ffd5b506101b26103b23660046159a3565b61216b565b3480156103c2575f5ffd5b506101df6103d1366004615a20565b61226a565b6101df6103e4366004615aa5565b61236b565b6101df6103f736600461591e565b6124b1565b348015610407575f5ffd5b506101df6104163660046157a7565b6125a2565b5f335f6104278261273e565b90507f00000000000000000000000000000000000000000000000000000000000000006001600160a01b03166348c894916040518060e00160405280336001600160a01b031681526020018d6001600160a01b031681526020018b8152602001898152602001600160048111156104a0576104a0615b2a565b81526020018815158152602001878152508b8a6040516024016104c593929190615c05565b60408051601f198184030181529181526020820180516001600160e01b031663a5bb0bd160e01b179052516001600160e01b031960e084901b16815261050e9190600401615731565b5f604051808303815f875af1158015610529573d5f5f3e3d5ffd5b505050506040513d5f823e601f3d908101601f191682016040526105509190810190615c94565b8060200190518101906105639190615ccd565b925061056e81612772565b5050979650505050505050565b6060610585612787565b61058d6127ce565b5f806105b76105a26040880160208901615ce4565b6105af6040890189615cff565b905086612819565b915091505f816001600160401b038111156105d4576105d4615022565b6040519080825280602002602001820160405280156105fd578160200160208202803683370190505b5090505f5b82811015610639576001600160801b03801682828151811061062657610626615d44565b6020908102919091010152600101610602565b505f6001600160a01b037f000000000000000000000000000000000000000000000000000000000000000016634af29ec46106818a8561067c6020830183615ce4565b6128c2565b6040518263ffffffff1660e01b815260040161069d9190615d58565b5f604051808303815f875af11580156106b8573d5f5f3e3d5ffd5b505050506040513d5f823e601f3d908101601f191682016040526106df9190810190615e2a565b50509050826001600160401b038111156106fb576106fb615022565b604051908082528060200260200182016040528015610724578160200160208202803683370190505b50945032155f5b848110156107e4576107bf8a8388848151811061074a5761074a615d44565b602002602001015186858151811061076457610764615d44565b60200260200101518d8d8781811061077e5761077e615d44565b90506020020160208101906107939190615e8d565b8f80604001906107a39190615cff565b888181106107b3576107b3615d44565b90506020020135612988565b8782815181106107d1576107d1615d44565b602090810291909101015260010161072b565b506107fa6107f560208b018b615ce4565b612bd7565b5050505050610807612c0f565b9392505050565b60607f00000000000000000000000000000000000000000000000000000000000000001561084f576040516329a270f560e01b815260040160405180910390fd5b61085e8a8a8a8a8a8a8a612c26565b6108688383611e7e565b9a9950505050505050505050565b5f61087f612787565b6108876127ce565b5f8061089c6105a26040880160208901615ce4565b915091505f816001600160401b038111156108b9576108b9615022565b6040519080825280602002602001820160405280156108e2578160200160208202803683370190505b50905032155f5b8381101561098857610963898387848151811061090857610908615d44565b60200260200101518c80604001906109209190615cff565b8681811061093057610930615d44565b905060200201358c8c8781811061094957610949615d44565b905060200201602081019061095e9190615e8d565b612ee4565b83828151811061097557610975615d44565b60209081029190910101526001016108e9565b506001600160a01b037f000000000000000000000000000000000000000000000000000000000000000016634af29ec46109ca8a8561067c6020830183615ce4565b6040518263ffffffff1660e01b81526004016109e69190615d58565b5f604051808303815f875af1158015610a01573d5f5f3e3d5ffd5b505050506040513d5f823e601f3d908101601f19168201604052610a289190810190615e2a565b509550610a3d90506107f560208a018a615ce4565b50505050610807612c0f565b5f825f610a558261273e565b90505f610a668a895f6001896130d2565b90507f00000000000000000000000000000000000000000000000000000000000000006001600160a01b031663edfa3568828b8a604051602401610aac93929190615c05565b60408051601f198184030181529181526020820180516001600160e01b031663a5bb0bd160e01b179052516001600160e01b031960e084901b168152610af59190600401615731565b5f604051808303815f875af1158015610b10573d5f5f3e3d5ffd5b505050506040513d5f823e601f3d908101601f19168201604052610b379190810190615c94565b806020019051810190610b4a9190615ccd565b935050610b5681612772565b50509695505050505050565b6060610b6c612787565b610b746127ce565b5f6001600160a01b037f00000000000000000000000000000000000000000000000000000000000000001663ca4f2803610bb46040880160208901615ce4565b6040518263ffffffff1660e01b8152600401610bd09190614fea565b5f60405180830381865afa158015610bea573d5f5f3e3d5ffd5b505050506040513d5f823e601f3d908101601f19168201604052610c119190810190615ea8565b9050610c2c610c236040870187615cff565b905085516131a4565b60606001600160a01b037f00000000000000000000000000000000000000000000000000000000000000001663be7d628a610c6d6040890160208a01615ce4565b6040518263ffffffff1660e01b8152600401610c899190614fea565b602060405180830381865afa158015610ca4573d5f5f3e3d5ffd5b505050506040513d601f19601f82011682018060405250810190610cc89190615f37565b15610dc9576001600160a01b037f00000000000000000000000000000000000000000000000000000000000000001663a07d6040610d0c6040890160208a01615ce4565b610d1960208a018a615ce4565b896060013586516001600160401b03811115610d3757610d37615022565b604051908082528060200260200182016040528015610d60578160200160208202803683370190505b506040518563ffffffff1660e01b8152600401610d809493929190615f52565b5f604051808303815f875af1158015610d9b573d5f5f3e3d5ffd5b505050506040513d5f823e601f3d908101601f19168201604052610dc29190810190615f84565b9050610e66565b7f00000000000000000000000000000000000000000000000000000000000000006001600160a01b03166321457897610e038885516131c4565b6040518263ffffffff1660e01b8152600401610e1f9190615fc5565b5f604051808303815f875af1158015610e3a573d5f5f3e3d5ffd5b505050506040513d5f823e601f3d908101601f19168201604052610e619190810190616022565b509150505b5f5b825181101561139e575f838281518110610e8457610e84615d44565b602002602001015190505f838381518110610ea157610ea1615d44565b602002602001015190505f610eb683896132d7565b90506001816002811115610ecc57610ecc615b2a565b036113615760405163ae63932960e01b81526001600160a01b037f0000000000000000000000000000000000000000000000000000000000000000169063ae63932990610f219086903090879060040161607a565b5f604051808303815f87803b158015610f38575f5ffd5b505af1158015610f4a573d5f5f3e3d5ffd5b505060405163ca4f280360e01b81525f92506001600160a01b037f000000000000000000000000000000000000000000000000000000000000000016915063ca4f280390610f9c908790600401614fea565b5f60405180830381865afa158015610fb6573d5f5f3e3d5ffd5b505050506040513d5f823e601f3d908101601f19168201604052610fdd9190810190615ea8565b905060607f00000000000000000000000000000000000000000000000000000000000000006001600160a01b031663be7d628a866040518263ffffffff1660e01b815260040161102d9190614fea565b602060405180830381865afa158015611048573d5f5f3e3d5ffd5b505050506040513d601f19601f8201168201806040525081019061106c9190615f37565b1561114e577f00000000000000000000000000000000000000000000000000000000000000006001600160a01b031663a07d604086308786516001600160401b038111156110bc576110bc615022565b6040519080825280602002602001820160405280156110e5578160200160208202803683370190505b506040518563ffffffff1660e01b81526004016111059493929190615f52565b5f604051808303815f875af1158015611120573d5f5f3e3d5ffd5b505050506040513d5f823e601f3d908101601f191682016040526111479190810190615f84565b90506112ca565b7f00000000000000000000000000000000000000000000000000000000000000006001600160a01b031663214578976040518060c00160405280886001600160a01b03168152602001306001600160a01b0316815260200187815260200185516001600160401b038111156111c5576111c5615022565b6040519080825280602002602001820160405280156111ee578160200160208202803683370190505b5081526020018f6080016020810190611207919061609e565b600381111561121857611218615b2a565b81526020018f8060c0019061122d91906160bc565b8080601f0160208091040260200160405190810160405280939291908181526020018383808284375f9201919091525050509152506040516001600160e01b031960e084901b1681526112839190600401615fc5565b5f604051808303815f875af115801561129e573d5f5f3e3d5ffd5b505050506040513d5f823e601f3d908101601f191682016040526112c59190810190616022565b509150505b5f5b8251811015611359575f8382815181106112e8576112e8615d44565b602002602001015190505f83838151811061130557611305615d44565b602002602001015190505f61131a838f6132d7565b9050600281600281111561133057611330615b2a565b036113445761133f8383613427565b61134e565b61134e8383613592565b5050506001016112cc565b505050611393565b600281600281111561137557611375615b2a565b03611389576113848383613427565b611393565b6113938383613592565b505050600101610e68565b508451806113b26113ad6135b3565b6135d7565b146113ec576113c76113c26135b3565b6135e1565b8660405163252b8a0360e21b81526004016113e39291906160fe565b60405180910390fd5b806001600160401b0381111561140457611404615022565b60405190808252806020026020018201604052801561142d578160200160208202803683370190505b5093505f816001600160401b0381111561144957611449615022565b604051908082528060200260200182016040528015611472578160200160208202803683370190505b5090505f5b828110156115f6575f88828151811061149257611492615d44565b602002602001015190505f6114af826114a96135b3565b90613682565b90508381815181106114c3576114c3615d44565b6020026020010151156114f7576114db6113c26135b3565b8a60405163252b8a0360e21b81526004016113e39291906160fe565b600184828151811061150b5761150b615d44565b9115156020928302919091019091015261152d826115276136bd565b906136e1565b88848151811061153f5761153f615d44565b602090810291909101015261155760408c018c615cff565b8481811061156757611567615d44565b9050602002013588848151811061158057611580615d44565b602002602001015110156115ec57818884815181106115a1576115a1615d44565b60200260200101518c80604001906115b99190615cff565b868181106115c9576115c9615d44565b905060200201356040516317bc2f2360e11b81526004016113e393929190616122565b5050600101611477565b5032155f03610a3d57610a3d61160f60208a018a615ce4565b61161f60c08b0160a08c01615e8d565b6136f5565b606061162e612787565b6116366127ce565b5f8061164b6105a26040880160208901615ce4565b909250905060606001600160a01b037f00000000000000000000000000000000000000000000000000000000000000001663be7d628a61169160408a0160208b01615ce4565b6040518263ffffffff1660e01b81526004016116ad9190614fea565b602060405180830381865afa1580156116c8573d5f5f3e3d5ffd5b505050506040513d601f19601f820116820180604052508101906116ec9190615f37565b156117b8576001600160a01b037f00000000000000000000000000000000000000000000000000000000000000001663a07d604061173060408a0160208b01615ce4565b61173d60208b018b615ce4565b60608b013561174f60408d018d615cff565b6040518663ffffffff1660e01b815260040161176f959493929190616143565b5f604051808303815f875af115801561178a573d5f5f3e3d5ffd5b505050506040513d5f823e601f3d908101601f191682016040526117b19190810190615f84565b9050611854565b7f00000000000000000000000000000000000000000000000000000000000000006001600160a01b031663214578976117f189856131c4565b6040518263ffffffff1660e01b815260040161180d9190615fc5565b5f604051808303815f875af1158015611828573d5f5f3e3d5ffd5b505050506040513d5f823e601f3d908101601f1916820160405261184f9190810190616022565b509150505b816001600160401b0381111561186c5761186c615022565b604051908082528060200260200182016040528015611895578160200160208202803683370190505b50935032155f5b838110156107fa5761193089838784815181106118bb576118bb615d44565b60200260200101518685815181106118d5576118d5615d44565b60200260200101518c8c878181106118ef576118ef615d44565b90506020020160208101906119049190615e8d565b8e80604001906119149190615cff565b8881811061192457611924615d44565b905060200201356137fd565b86828151811061194257611942615d44565b602090810291909101015260010161189c565b60605f80546119639061619c565b80601f016020809104026020016040519081016040528092919081815260200182805461198f9061619c565b80156119da5780601f106119b1576101008083540402835291602001916119da565b820191905f5260205f20905b8154815290600101906020018083116119bd57829003601f168201915b5050505050905090565b5f6119f46119f0613a25565b5c90565b905090565b6060825f611a068261273e565b604080515f8082526020820190925291925090611a27908a90895f896130d2565b90507f00000000000000000000000000000000000000000000000000000000000000006001600160a01b031663edfa3568828a604051602401611a6b929190616200565b60408051601f198184030181529181526020820180516001600160e01b03166319aceff360e01b179052516001600160e01b031960e084901b168152611ab49190600401615731565b5f604051808303815f875af1158015611acf573d5f5f3e3d5ffd5b505050506040513d5f823e601f3d908101601f19168201604052611af69190810190615c94565b806020019051810190611b099190615f84565b935050611b1581612772565b505095945050505050565b6060335f611b2d8261273e565b90507f00000000000000000000000000000000000000000000000000000000000000006001600160a01b03166348c894916040518060e00160405280336001600160a01b031681526020018d6001600160a01b031681526020018a81526020018c81526020015f6003811115611ba557611ba5615b2a565b81526020018815158152602001878152508a89604051602401611bca9392919061627a565b60408051601f198184030181529181526020820180516001600160e01b03166323e68e8160e11b179052516001600160e01b031960e084901b168152611c139190600401615731565b5f604051808303815f875af1158015611c2e573d5f5f3e3d5ffd5b505050506040513d5f823e601f3d908101601f19168201604052611c559190810190615c94565b8060200190518101906105639190615f84565b5f611c71612787565b611c796127ce565b611c92611c896040860186615cff565b905084516131a4565b5f611c9e6113c2613a49565b80519091505b8015611cf057611cdf82611cb96001846162a0565b81518110611cc957611cc9615d44565b6020026020010151611cd9613a49565b90613a6d565b50611ce9816162b3565b9050611ca4565b505f5b8451811015611d9c575f611d0a6040880188615cff565b83818110611d1a57611d1a615d44565b9050602002013590505f811115611d93575f868381518110611d3e57611d3e615d44565b60200260200101519050611d5c8183611d55613afa565b9190613b1e565b611d6e81611d68613b2f565b90613b53565b15155f03611d91578060405163030502a760e51b81526004016113e39190614fea565b505b50600101611cf3565b5032155f80611dac888488613b91565b915091508015611e65577f00000000000000000000000000000000000000000000000000000000000000006001600160a01b0316634af29ec4611e028a8587611dfc5761067c60208e018e615ce4565b306128c2565b6040518263ffffffff1660e01b8152600401611e1e9190615d58565b5f604051808303815f875af1158015611e39573d5f5f3e3d5ffd5b505050506040513d5f823e601f3d908101601f19168201604052611e609190810190615e2a565b509550505b8215155f03610a3d57610a3d61160f60208a018a615ce4565b60605f611e8a3361273e565b9050611e976119f0613d8b565b15611eb557604051633ee5aeb560e01b815260040160405180910390fd5b611ec86001611ec2613d8b565b90613daf565b7f000000000000000000000000000000000000000000000000000000000000000015611f07576040516329a270f560e01b815260040160405180910390fd5b826001600160401b03811115611f1f57611f1f615022565b604051908082528060200260200182016040528015611f5257816020015b6060815260200190600190039081611f3d5790505b5091505f5b83811015611fe557611fc030868684818110611f7557611f75615d44565b9050602002810190611f8791906160bc565b8080601f0160208091040260200160405190810160405280939291908181526020018383808284375f92019190915250613db692505050565b838281518110611fd257611fd2615d44565b6020908102919091010152600101611f57565b50611ff25f611ec2613d8b565b5f611ffe6119f0613a25565b905061200982612772565b61201281612bd7565b505092915050565b5f335f6120268261273e565b90507f00000000000000000000000000000000000000000000000000000000000000006001600160a01b03166348c894916040518060e00160405280336001600160a01b031681526020018c6001600160a01b031681526020018a81526020018981526020016001600481111561209f5761209f615b2a565b81526020018815158152602001878152508a6040516024016120c2929190616200565b60408051601f198184030181529181526020820180516001600160e01b03166313dfd89d60e11b179052516001600160e01b031960e084901b16815261210b9190600401615731565b5f604051808303815f875af1158015612126573d5f5f3e3d5ffd5b505050506040513d5f823e601f3d908101601f1916820160405261214d9190810190615c94565b8060200190518101906121609190615ccd565b9250610b5681612772565b5f825f6121778261273e565b90505f61218889885f6001896130d2565b90507f00000000000000000000000000000000000000000000000000000000000000006001600160a01b031663edfa3568828a6040516024016121cc929190616200565b60408051601f198184030181529181526020820180516001600160e01b03166313dfd89d60e11b179052516001600160e01b031960e084901b1681526122159190600401615731565b5f604051808303815f875af1158015612230573d5f5f3e3d5ffd5b505050506040513d5f823e601f3d908101601f191682016040526122579190810190615c94565b806020019051810190611b099190615ccd565b6060825f6122778261273e565b90505f6122878a8a8a5188613e28565b90507f00000000000000000000000000000000000000000000000000000000000000006001600160a01b031663edfa3568828a8a6040516024016122cd9392919061627a565b60408051601f198184030181529181526020820180516001600160e01b03166323e68e8160e11b179052516001600160e01b031960e084901b1681526123169190600401615731565b5f604051808303815f875af1158015612331573d5f5f3e3d5ffd5b505050506040513d5f823e601f3d908101601f191682016040526123589190810190615c94565b806020019051810190610b4a9190615f84565b6060335f6123788261273e565b90507f00000000000000000000000000000000000000000000000000000000000000006001600160a01b03166348c894916040518060e00160405280336001600160a01b031681526020018c6001600160a01b031681526020018981526020018a81526020015f60038111156123f0576123f0615b2a565b81526020018815158152602001878152508a6040516024016124139291906162c8565b60408051601f198184030181529181526020820180516001600160e01b0316630992f50f60e31b179052516001600160e01b031960e084901b16815261245c9190600401615731565b5f604051808303815f875af1158015612477573d5f5f3e3d5ffd5b505050506040513d5f823e601f3d908101601f1916820160405261249e9190810190615c94565b8060200190518101906121609190615f84565b6060335f6124be8261273e565b90507f00000000000000000000000000000000000000000000000000000000000000006001600160a01b03166348c894916040518060e00160405280336001600160a01b031681526020018c6001600160a01b031681526020018a81526020018981526020015f600481111561253657612536615b2a565b81526020018815158152602001878152508a604051602401612559929190616200565b60408051601f198184030181529181526020820180516001600160e01b03166319aceff360e01b179052516001600160e01b031960e084901b16815261245c9190600401615731565b6060825f6125af8261273e565b90505f7f00000000000000000000000000000000000000000000000000000000000000006001600160a01b031663ca4f28038a6040518263ffffffff1660e01b81526004016125fe9190614fea565b5f60405180830381865afa158015612618573d5f5f3e3d5ffd5b505050506040513d5f823e601f3d908101601f1916820160405261263f9190810190615ea8565b90505f61264f8a89845189613e28565b90507f00000000000000000000000000000000000000000000000000000000000000006001600160a01b031663edfa3568828b6040516024016126939291906162c8565b60408051601f198184030181529181526020820180516001600160e01b0316630992f50f60e31b179052516001600160e01b031960e084901b1681526126dc9190600401615731565b5f604051808303815f875af11580156126f7573d5f5f3e3d5ffd5b505050506040513d5f823e601f3d908101601f1916820160405261271e9190810190615c94565b8060200190518101906127319190615f84565b94505050611b1581612772565b5f5f61274b6119f0613a25565b90506001600160a01b03811661276c5761276783611ec2613a25565b600191505b50919050565b8015612784576127845f611ec2613a25565b50565b5f5160206166515f395f51905f525c156127b457604051633ee5aeb560e01b815260040160405180910390fd5b6127cc60015f5160206166515f395f51905f52611ec2565b565b336001600160a01b037f000000000000000000000000000000000000000000000000000000000000000016146127cc573360405163089676d560e01b81526004016113e39190614fea565b60605f7f00000000000000000000000000000000000000000000000000000000000000006001600160a01b031663ca4f2803866040518263ffffffff1660e01b81526004016128689190614fea565b5f60405180830381865afa158015612882573d5f5f3e3d5ffd5b505050506040513d5f823e601f3d908101601f191682016040526128a99190810190615ea8565b9150815190506128ba818585613eb5565b935093915050565b6128ca614f1c565b6040518060c001604052808560200160208101906128e89190615ce4565b6001600160a01b03168152602001836001600160a01b031681526020018481526020018560600135815260200185608001602081019061292891906162da565b600481111561293957612939615b2a565b815260200161294b60c08701876160bc565b8080601f0160208091040260200160405190810160405280939291908181526020018383808284375f920191909152505050915250949350505050565b5f5f836129955785612a20565b60405163257dd7ad60e11b81526001600160a01b037f00000000000000000000000000000000000000000000000000000000000000001690634afbaf5a906129e1908990600401614fea565b602060405180830381865afa1580156129fc573d5f5f3e3d5ffd5b505050506040513d601f19601f82011682018060405250810190612a2091906162f8565b9050838015612a3657506001600160a01b038116155b15612a5657856040516385f4129960e01b81526004016113e39190614fea565b8615155f03612a8657612a86612a6f60208a018a615ce4565b612a7f60c08b0160a08c01615e8d565b8386613ee2565b8415612b6c578315612b68577f00000000000000000000000000000000000000000000000000000000000000006001600160a01b03166343583be56040518060a00160405280600180811115612ade57612ade615b2a565b81526020015f8152602001896001600160a01b03168152602001888152602001868152506040518263ffffffff1660e01b8152600401612b1e9190616323565b6060604051808303815f875af1158015612b3a573d5f5f3e3d5ffd5b505050506040513d601f19601f82011682018060405250810190612b5e9190616376565b509250612b6c9050565b8491505b82821115612b93578082846040516323b6a17960e21b81526004016113e393929190616122565b8615155f03612bcc57612bcc612bac60208a018a615ce4565b82612bb785876162a0565b612bc760c08d0160a08e01615e8d565b613ff3565b509695505050505050565b475f819003612be4575050565b612bef6119f0613d8b565b15612bf8575050565b612c0b6001600160a01b0383168261410b565b5050565b6127cc5f5f5160206166515f395f51905f52611ec2565b612c2e612787565b612c3886856131a4565b5f5b86811015612e3f575f868683818110612c5557612c55615d44565b9050602002810190612c6791906160bc565b8080601f0160208091040260200160405190810160405280939291908181526020018383808284375f920182905250939450612ca892508491506141a59050565b90505f8a8a85818110612cbd57612cbd615d44565b905060c00201803603810190612cd391906163a1565b8051602080830151606084015160a08501516040808901518951958a0151915163d505accf60e01b81526001600160a01b0395861660048201523060248201526044810194909452606484019290925260ff909116608483015260a482019390935260c481019290925292935091169063d505accf9060e4015f604051808303815f87803b158015612d63575f5ffd5b505af1925050508015612d74575060015b612e31573d808015612da1576040519150601f19603f3d011682016040523d82523d5f602084013e612da6565b606091505b50606082015182516020840151604051636eb1769f60e11b81526001600160a01b03918216600482015230602482015291169063dd62ed3e90604401602060405180830381865afa158015612dfd573d5f5f3e3d5ffd5b505050506040513d601f19601f82011682018060405250810190612e219190615ccd565b14612e2f57612e2f816141f4565b505b505050806001019050612c3a565b505f612e4b8480616432565b90501115612ed357604051632a2d80d160e01b81526001600160a01b037f00000000000000000000000000000000000000000000000000000000000000001690632a2d80d190612ea59033908790879087906004016164b4565b5f604051808303815f87803b158015612ebc575f5ffd5b505af1158015612ece573d5f5f3e3d5ffd5b505050505b612edb612c0f565b50505050505050565b5f5f82612ef15784612f7c565b60405163257dd7ad60e11b81526001600160a01b037f00000000000000000000000000000000000000000000000000000000000000001690634afbaf5a90612f3d908890600401614fea565b602060405180830381865afa158015612f58573d5f5f3e3d5ffd5b505050506040513d601f19601f82011682018060405250810190612f7c91906162f8565b9050828015612f9257506001600160a01b038116155b15612fb257846040516385f4129960e01b81526004016113e39190614fea565b8515155f03612fe257612fe2612fcb6020890189615ce4565b612fdb60c08a0160a08b01615e8d565b8387613ee2565b82156130c45783156130bf577f00000000000000000000000000000000000000000000000000000000000000006001600160a01b03166343583be56040518060a001604052805f600181111561303a5761303a615b2a565b81526020015f8152602001886001600160a01b031681526020018781526020015f8152506040518263ffffffff1660e01b815260040161307a9190616323565b6060604051808303815f875af1158015613096573d5f5f3e3d5ffd5b505050506040513d601f19601f820116820180604052508101906130ba9190616376565b935050505b6130c8565b8391505b5095945050505050565b6130da614f53565b60605f808560048111156130f0576130f0615b2a565b03613108576130fe8861421d565b9150859050613142565b600185600481111561311c5761311c615b2a565b0361312957869150613142565b604051636c02b39560e01b815260040160405180910390fd5b6040518060e00160405280306001600160a01b03168152602001896001600160a01b0316815260200183815260200182815260200186600481111561318957613189615b2a565b81525f60208201526040018590529250505095945050505050565b808214612c0b5760405163aaad13f760e01b815260040160405180910390fd5b6131cc614f90565b6040518060c001604052808460200160208101906131ea9190615ce4565b6001600160a01b0316815260209081019061320790860186615ce4565b6001600160a01b0316815260200184606001358152602001836001600160401b0381111561323757613237615022565b604051908082528060200260200182016040528015613260578160200160208202803683370190505b50815260200161327660a086016080870161609e565b600381111561328757613287615b2a565b815260200161329960c08601866160bc565b8080601f0160208091040260200160405190810160405280939291908181526020018383808284375f92019190915250505091525090505b92915050565b60405163c673bdaf60e01b81525f906001600160a01b037f0000000000000000000000000000000000000000000000000000000000000000169063c673bdaf90613325908690600401614fea565b602060405180830381865afa158015613340573d5f5f3e3d5ffd5b505050506040513d601f19601f820116820180604052508101906133649190615f37565b15613371575060016132d1565b604051636844846b60e01b81526001600160a01b037f00000000000000000000000000000000000000000000000000000000000000001690636844846b906133bd908690600401614fea565b602060405180830381865afa1580156133d8573d5f5f3e3d5ffd5b505050506040513d601f19601f820116820180604052508101906133fc9190615f37565b1561341f5761340b838361432d565b613415575f613418565b60025b90506132d1565b505f92915050565b5f7f00000000000000000000000000000000000000000000000000000000000000006001600160a01b03166343583be56040518060a001604052805f600181111561347457613474615b2a565b815260200160018152602001866001600160a01b031681526020018581526020015f8152506040518263ffffffff1660e01b81526004016134b59190616323565b6060604051808303815f875af11580156134d1573d5f5f3e3d5ffd5b505050506040513d601f19601f820116820180604052508101906134f59190616376565b9250505061358d7f00000000000000000000000000000000000000000000000000000000000000006001600160a01b0316634afbaf5a856040518263ffffffff1660e01b81526004016135489190614fea565b602060405180830381865afa158015613563573d5f5f3e3d5ffd5b505050506040513d601f19601f8201168201806040525081019061358791906162f8565b82613592565b505050565b61359e82611d686135b3565b50612c0b82826135ac6136bd565b919061438a565b7f000000000000000000000000000000000000000000000000000000000000000090565b5f6132d1826143af565b60605f6135ed836143af565b9050806001600160401b0381111561360757613607615022565b604051908082528060200260200182016040528015613630578160200160208202803683370190505b5091505f5b8181101561367b5761364981855b906143b7565b83828151811061365b5761365b615d44565b6001600160a01b0390921660209283029190910190910152600101613635565b5050919050565b5f806136918360018601611527565b9050805f036136b357604051633357a9c960e11b815260040160405180910390fd5b5f19019392505050565b7f000000000000000000000000000000000000000000000000000000000000000090565b5f6108076119f06136f285856143d5565b90565b5f6137016113ad613b2f565b90505f61370f6113ad6135b3565b90505f61371d6001846165db565b90505b5f8112613784575f61373a82613734613b2f565b906143e6565b90505f61374982611527613afa565b905061375787878484613ee2565b613764825f611d55613afa565b61377082611cd9613b2f565b5050508061377d906165fa565b9050613720565b505f6137916001836165db565b90505b5f81126137ed575f6137a8826137346135b3565b90506137c186826137bb846115276136bd565b88613ff3565b6137ce815f611d556136bd565b6137da81611cd96135b3565b5050806137e6906165fa565b9050613794565b506137f784612bd7565b50505050565b5f5f83156139ce5760405163257dd7ad60e11b815286905f906001600160a01b037f00000000000000000000000000000000000000000000000000000000000000001690634afbaf5a90613855908590600401614fea565b602060405180830381865afa158015613870573d5f5f3e3d5ffd5b505050506040513d601f19601f8201168201806040525081019061389491906162f8565b92508290506001600160a01b0381166138c257816040516385f4129960e01b81526004016113e39190614fea565b86156139c7577f00000000000000000000000000000000000000000000000000000000000000006001600160a01b03166343583be56040518060a001604052805f600181111561391457613914615b2a565b815260200160018152602001856001600160a01b031681526020018a8152602001888152506040518263ffffffff1660e01b81526004016139559190616323565b6060604051808303815f875af1158015613971573d5f5f3e3d5ffd5b505050506040513d601f19601f820116820180604052508101906139959190616376565b955050508815155f036139c7576139c76139b260208c018c615ce4565b82868d60a0016020810190612bc79190615e8d565b50506139fe565b50839050848615155f036139fe576139fe6139ec60208a018a615ce4565b8284612bc760c08d0160a08e01615e8d565b82821015612bcc578082846040516317bc2f2360e11b81526004016113e393929190616122565b7f000000000000000000000000000000000000000000000000000000000000000090565b7f000000000000000000000000000000000000000000000000000000000000000090565b5f80613a7c8360018601611527565b90508015613aea575f1981015f6001613a94876143af565b039050808214613ac6575f613aa987836143f1565b9050613ab6878483614415565b613ac4818560018a01611d55565b505b613acf86614439565b50613ade855f60018901611d55565b600193505050506132d1565b5f9150506132d1565b5092915050565b7f000000000000000000000000000000000000000000000000000000000000000090565b61358d81611ec26136f286866143d5565b7f000000000000000000000000000000000000000000000000000000000000000090565b5f613b5e838361447a565b613b8a57613b6c8383614491565b613b8282613b79856143af565b60018601611d55565b5060016132d1565b505f6132d1565b60605f806001600160a01b037f00000000000000000000000000000000000000000000000000000000000000001663ca4f2803613bd46040890160208a01615ce4565b6040518263ffffffff1660e01b8152600401613bf09190614fea565b5f60405180830381865afa158015613c0a573d5f5f3e3d5ffd5b505050506040513d5f823e601f3d908101601f19168201604052613c319190810190615ea8565b8051909150806001600160401b03811115613c4e57613c4e615022565b604051908082528060200260200182016040528015613c77578160200160208202803683370190505b5093505f5b81811015613d80575f838281518110613c9757613c97615d44565b602002602001015190505f613cac82896132d7565b90505f613cbb83611527613afa565b90506001826002811115613cd157613cd1615b2a565b03613ce957613ce28b8b858c6144c4565b9050613d3e565b6002826002811115613cfd57613cfd615b2a565b03613d0d57613ce28b8b856148d0565b5f826002811115613d2057613d20615b2a565b14613d3e5760405163a1e9dd9d60e01b815260040160405180910390fd5b8015613d75576001965080888581518110613d5b57613d5b615d44565b602002602001018181525050613d7383611d68613a49565b505b505050600101613c7c565b505050935093915050565b7f000000000000000000000000000000000000000000000000000000000000000090565b80825d5050565b60605f5f846001600160a01b031684604051613dd2919061660e565b5f60405180830381855af49150503d805f8114613e0a576040519150601f19603f3d011682016040523d82523d5f602084013e613e0f565b606091505b5091509150613e1f858383614a98565b95945050505050565b613e30614fbc565b6040805160e0810182523081526001600160a01b0387166020820152908101846001600160401b03811115613e6757613e67615022565b604051908082528060200260200182016040528015613e90578160200160208202803683370190505b508152602081018690526040015f81525f602082015260400192909252509392505050565b8183141580613ec45750808214155b1561358d5760405163aaad13f760e01b815260040160405180910390fd5b7f00000000000000000000000000000000000000000000000000000000000000001580613f485750828015613f4857507f00000000000000000000000000000000000000000000000000000000000000006001600160a01b0316826001600160a01b0316145b15613f5e57613f5984838386614aeb565b6137f7565b6040516315afd40960e01b81526001600160a01b037f000000000000000000000000000000000000000000000000000000000000000016906315afd40990613fac9085908590600401616624565b6020604051808303815f875af1158015613fc8573d5f5f3e3d5ffd5b505050506040513d601f19601f82011682018060405250810190613fec9190615ccd565b5050505050565b81156137f75780801561403757507f00000000000000000000000000000000000000000000000000000000000000006001600160a01b0316836001600160a01b0316145b1561408857613f597f00000000000000000000000000000000000000000000000000000000000000007f00000000000000000000000000000000000000000000000000000000000000008685614c92565b60405163ae63932960e01b81526001600160a01b037f0000000000000000000000000000000000000000000000000000000000000000169063ae639329906140d89086908890879060040161607a565b5f604051808303815f87803b1580156140ef575f5ffd5b505af1158015614101573d5f5f3e3d5ffd5b5050505050505050565b804710156141355760405163cf47918160e01b8152476004820152602481018290526044016113e3565b5f826001600160a01b0316826040515f6040518083038185875af1925050503d805f811461417e576040519150601f19603f3d011682016040523d82523d5f602084013e614183565b606091505b505090508061358d5760405163d6bda27560e01b815260040160405180910390fd5b6141c960405180606001604052805f81526020015f81526020015f60ff1681525090565b602082810151604080850151606090950151918452918301939093525f9290921a9181019190915290565b8051156142045780518082602001fd5b60405163a728568960e01b815260040160405180910390fd5b60605f7f00000000000000000000000000000000000000000000000000000000000000006001600160a01b031663ca4f2803846040518263ffffffff1660e01b815260040161426c9190614fea565b5f60405180830381865afa158015614286573d5f5f3e3d5ffd5b505050506040513d5f823e601f3d908101601f191682016040526142ad9190810190615ea8565b519050806001600160401b038111156142c8576142c8615022565b6040519080825280602002602001820160405280156142f1578160200160208202803683370190505b5091505f5b8181101561367b576001600160801b03801683828151811061431a5761431a615d44565b60209081029190910101526001016142f6565b80515f90815b8181101561438057846001600160a01b031684828151811061435757614357615d44565b60200260200101516001600160a01b031603614378576001925050506132d1565b600101614333565b505f949350505050565b61358d8161439885856136e1565b6143a2919061663d565b611ec26136f286866143d5565b5f815c6132d1565b5f6108076119f06136f2846143d1875f9081526020902090565b0190565b5f9081526020919091526040902090565b5f6108078284613643565b5f6143fc8383614d58565b6108076119f06136f2846143d1875f9081526020902090565b61441f8383614d58565b61358d81611ec26136f2856143d1885f9081526020902090565b5f806144476001845c6162a0565b90506144538184611ec2565b5f61446a6136f2836143d1875f9081526020902090565b9050805c925061367b815f613daf565b5f6144888260018501611527565b15159392505050565b5f825c90506144b082611ec26136f2846143d1885f9081526020902090565b61358d6144be82600161663d565b84611ec2565b5f5f7f00000000000000000000000000000000000000000000000000000000000000006001600160a01b031663ca4f2803856040518263ffffffff1660e01b81526004016145129190614fea565b5f60405180830381865afa15801561452c573d5f5f3e3d5ffd5b505050506040513d5f823e601f3d908101601f191682016040526145539190810190615ea8565b80519091505f816001600160401b0381111561457157614571615022565b60405190808252806020026020018201604052801561459a578160200160208202803683370190505b5090505f805b838110156146d1575f8582815181106145bb576145bb615d44565b602002602001015190505f6145d0828a6132d7565b90505f6145df83611527613afa565b905060028260028111156145f5576145f5615b2a565b0361460c576146058d8d856148d0565b905061465d565b5f82600281111561461f5761461f615b2a565b1415801561463f5750600182600281111561463c5761463c615b2a565b14155b1561465d5760405163a1e9dd9d60e01b815260040160405180910390fd5b80156146c6576146758361466f613a49565b9061447a565b15614695578260405163030502a760e51b81526004016113e39190614fea565b60019450808685815181106146ac576146ac615d44565b6020026020010181815250506146c483611d68613a49565b505b5050506001016145a0565b5080156148c4575f7f00000000000000000000000000000000000000000000000000000000000000006001600160a01b0316634af29ec46040518060c001604052808b6001600160a01b031681526020017f00000000000000000000000000000000000000000000000000000000000000006001600160a01b031681526020018681526020015f81526020018d608001602081019061477091906162da565b600481111561478157614781615b2a565b815260200161479360c08f018f6160bc565b8080601f0160208091040260200160405190810160405280939291908181526020018383808284375f9201919091525050509152506040516001600160e01b031960e084901b1681526147e99190600401615d58565b5f604051808303815f875af1158015614804573d5f5f3e3d5ffd5b505050506040513d5f823e601f3d908101601f1916820160405261482b9190810190615e2a565b506040516315afd40960e01b81529097508792506001600160a01b037f00000000000000000000000000000000000000000000000000000000000000001691506315afd40990614881908b908590600401616624565b6020604051808303815f875af115801561489d573d5f5f3e3d5ffd5b505050506040513d601f19601f820116820180604052508101906148c19190615ccd565b50505b50505050949350505050565b5f5f7f00000000000000000000000000000000000000000000000000000000000000006001600160a01b0316634afbaf5a846040518263ffffffff1660e01b815260040161491e9190614fea565b602060405180830381865afa158015614939573d5f5f3e3d5ffd5b505050506040513d601f19601f8201168201806040525081019061495d91906162f8565b90505f61496c82611527613afa565b90508015614a75578415155f036149a4576149a461498d6020880188615ce4565b61499d60c0890160a08a01615e8d565b8484613ee2565b7f00000000000000000000000000000000000000000000000000000000000000006001600160a01b03166343583be56040518060a001604052805f60018111156149f0576149f0615b2a565b81526020015f8152602001876001600160a01b031681526020018481526020015f8152506040518263ffffffff1660e01b8152600401614a309190616323565b6060604051808303815f875af1158015614a4c573d5f5f3e3d5ffd5b505050506040513d601f19601f82011682018060405250810190614a709190616376565b945050505b614a8182611cd9613b2f565b50614a8f825f611d55613afa565b50509392505050565b606082614aad57614aa882614d7a565b610807565b8151158015614ac457506001600160a01b0384163b155b15614ae45783604051639996b31560e01b81526004016113e39190614fea565b5080610807565b808015614b2957507f00000000000000000000000000000000000000000000000000000000000000006001600160a01b0316836001600160a01b0316145b15614b7957613f597f00000000000000000000000000000000000000000000000000000000000000007f000000000000000000000000000000000000000000000000000000000000000084614da3565b81156137f7577f00000000000000000000000000000000000000000000000000000000000000006001600160a01b03166336c78516857f0000000000000000000000000000000000000000000000000000000000000000614bd986614e98565b6040516001600160e01b031960e086901b1681526001600160a01b03938416600482015291831660248301528216604482015290861660648201526084015f604051808303815f87803b158015614c2e575f5ffd5b505af1158015614c40573d5f5f3e3d5ffd5b50506040516315afd40960e01b81526001600160a01b037f00000000000000000000000000000000000000000000000000000000000000001692506315afd4099150613fac9086908690600401616624565b60405163ae63932960e01b81526001600160a01b0384169063ae63932990614cc29087903090869060040161607a565b5f604051808303815f87803b158015614cd9575f5ffd5b505af1158015614ceb573d5f5f3e3d5ffd5b5050604051632e1a7d4d60e01b8152600481018490526001600160a01b0387169250632e1a7d4d91506024015f604051808303815f87803b158015614d2e575f5ffd5b505af1158015614d40573d5f5f3e3d5ffd5b506137f7925050506001600160a01b0383168261410b565b815c80821061358d576040516303d2b83960e21b815260040160405180910390fd5b805115614d8a5780518082602001fd5b60405163d6bda27560e01b815260040160405180910390fd5b80471015614dc45760405163500d4efb60e11b815260040160405180910390fd5b826001600160a01b031663d0e30db0826040518263ffffffff1660e01b81526004015f604051808303818588803b158015614dfd575f5ffd5b505af1158015614e0f573d5f5f3e3d5ffd5b50614e2a935050506001600160a01b03851690508383614ea2565b6040516315afd40960e01b81526001600160a01b038316906315afd40990614e589086908590600401616624565b6020604051808303815f875af1158015614e74573d5f5f3e3d5ffd5b505050506040513d601f19601f820116820180604052508101906137f79190615ccd565b5f6132d182614ead565b61358d838383614ec5565b5f600160a01b8210614ec157614ec1614f0f565b5090565b816014528060345263a9059cbb60601b5f5260205f604460105f875af18060015f511416614f0557803d853b151710614f05576390b8ec185f526004601cfd5b505f603452505050565b6335278d125f526004601cfd5b6040805160c0810182525f8082526020820181905260609282018390529181018290529060808201905b8152602001606081525090565b6040805160e0810182525f8082526020820181905260609282018390529181018290529060808201905b81525f6020820152606060409091015290565b6040805160c0810182525f80825260208201819052918101829052606080820152906080820190614f46565b6040805160e0810182525f808252602082018190526060928201839052918101829052906080820190614f7d565b6001600160a01b0391909116815260200190565b6001600160a01b0381168114612784575f5ffd5b803561501d81614ffe565b919050565b634e487b7160e01b5f52604160045260245ffd5b604051601f8201601f191681016001600160401b038111828210171561505e5761505e615022565b604052919050565b5f6001600160401b0382111561507e5761507e615022565b5060051b60200190565b5f82601f830112615097575f5ffd5b81356150aa6150a582615066565b615036565b8082825260208201915060208360051b8601019250858311156150cb575f5ffd5b602085015b838110156130c85780356150e381614ffe565b8352602092830192016150d0565b5f82601f830112615100575f5ffd5b813561510e6150a582615066565b8082825260208201915060208360051b86010192508583111561512f575f5ffd5b602085015b838110156130c8578035835260209283019201615134565b8015158114612784575f5ffd5b803561501d8161514c565b5f6001600160401b0382111561517c5761517c615022565b50601f01601f191660200190565b5f82601f830112615199575f5ffd5b81356151a76150a582615164565b8181528460208386010111156151bb575f5ffd5b816020850160208301375f918101602001919091529392505050565b5f5f5f5f5f5f5f60e0888a0312156151ed575f5ffd5b6151f688615012565b965060208801356001600160401b03811115615210575f5ffd5b61521c8a828b01615088565b96505060408801356001600160401b03811115615237575f5ffd5b6152438a828b016150f1565b95505060608801356001600160401b0381111561525e575f5ffd5b61526a8a828b01615088565b9450506080880135925061528060a08901615159565b915060c08801356001600160401b0381111561529a575f5ffd5b6152a68a828b0161518a565b91505092959891949750929550565b5f60e0828403121561276c575f5ffd5b5f5f83601f8401126152d5575f5ffd5b5081356001600160401b038111156152eb575f5ffd5b6020830191508360208260051b8501011115615305575f5ffd5b9250929050565b5f5f5f6040848603121561531e575f5ffd5b83356001600160401b03811115615333575f5ffd5b61533f868287016152b5565b93505060208401356001600160401b0381111561535a575f5ffd5b615366868287016152c5565b9497909650939450505050565b5f8151808452602084019350602083015f5b828110156153a3578151865260209586019590910190600101615385565b5093949350505050565b602081525f6108076020830184615373565b5f5f83601f8401126153cf575f5ffd5b5081356001600160401b038111156153e5575f5ffd5b60208301915083602060c083028501011115615305575f5ffd5b5f6060828403121561276c575f5ffd5b5f5f83601f84011261541f575f5ffd5b5081356001600160401b03811115615435575f5ffd5b602083019150836020828501011115615305575f5ffd5b5f5f5f5f5f5f5f5f5f60a08a8c031215615464575f5ffd5b89356001600160401b03811115615479575f5ffd5b6154858c828d016153bf565b909a5098505060208a01356001600160401b038111156154a3575f5ffd5b6154af8c828d016152c5565b90985096505060408a01356001600160401b038111156154cd575f5ffd5b6154d98c828d016153ff565b95505060608a01356001600160401b038111156154f4575f5ffd5b6155008c828d0161540f565b90955093505060808a01356001600160401b0381111561551e575f5ffd5b61552a8c828d016152c5565b915080935050809150509295985092959850929598565b5f81518084528060208401602086015e5f602082860101526020601f19601f83011685010191505092915050565b5f602082016020835280845180835260408501915060408160051b8601019250602086015f5b828110156155c657603f198786030184526155b1858351615541565b94506020938401939190910190600101615595565b50929695505050505050565b5f5f5f5f5f5f60c087890312156155e7575f5ffd5b6155f087615012565b955060208701356001600160401b0381111561560a575f5ffd5b61561689828a01615088565b95505060408701356001600160401b03811115615631575f5ffd5b61563d89828a016150f1565b94505060608701356001600160401b03811115615658575f5ffd5b61566489828a01615088565b93505061567360808801615012565b915060a08701356001600160401b0381111561568d575f5ffd5b61569989828a0161518a565b9150509295509295509295565b5f5f5f606084860312156156b8575f5ffd5b83356001600160401b038111156156cd575f5ffd5b6156d9868287016152b5565b93505060208401356001600160401b038111156156f4575f5ffd5b61570086828701615088565b92505060408401356001600160401b0381111561571b575f5ffd5b61572786828701615088565b9150509250925092565b602081525f6108076020830184615541565b5f82601f830112615752575f5ffd5b81356157606150a582615066565b8082825260208201915060208360051b860101925085831115615781575f5ffd5b602085015b838110156130c85780356157998161514c565b835260209283019201615786565b5f5f5f5f5f60a086880312156157bb575f5ffd5b85356157c681614ffe565b945060208601356001600160401b038111156157e0575f5ffd5b6157ec88828901615743565b94505060408601359250606086013561580481614ffe565b915060808601356001600160401b0381111561581e575f5ffd5b61582a8882890161518a565b9150509295509295909350565b5f5f5f5f5f5f5f60e0888a03121561584d575f5ffd5b61585688615012565b96506020880135955060408801356001600160401b03811115615877575f5ffd5b6158838a828b01615088565b95505060608801356001600160401b0381111561589e575f5ffd5b6158aa8a828b016150f1565b94505060808801356001600160401b038111156158c5575f5ffd5b6158d18a828b01615088565b93505061528060a08901615159565b5f5f602083850312156158f1575f5ffd5b82356001600160401b03811115615906575f5ffd5b615912858286016152c5565b90969095509350505050565b5f5f5f5f5f5f60c08789031215615933575f5ffd5b863561593e81614ffe565b955060208701356001600160401b03811115615958575f5ffd5b61596489828a01615743565b95505060408701356001600160401b0381111561597f575f5ffd5b61598b89828a016150f1565b9450506060870135925060808701356156738161514c565b5f5f5f5f5f60a086880312156159b7575f5ffd5b85356159c281614ffe565b945060208601356001600160401b038111156159dc575f5ffd5b6159e888828901615743565b94505060408601356001600160401b03811115615a03575f5ffd5b615a0f888289016150f1565b935050606086013561580481614ffe565b5f5f5f5f5f5f60c08789031215615a35575f5ffd5b8635615a4081614ffe565b95506020870135945060408701356001600160401b03811115615a61575f5ffd5b615a6d89828a01615088565b94505060608701356001600160401b03811115615a88575f5ffd5b615a9489828a01615088565b935050608087013561567381614ffe565b5f5f5f5f5f5f60c08789031215615aba575f5ffd5b8635615ac581614ffe565b955060208701356001600160401b03811115615adf575f5ffd5b615aeb89828a01615743565b9550506040870135935060608701356001600160401b03811115615b0d575f5ffd5b615b1989828a016150f1565b93505060808701356156738161514c565b634e487b7160e01b5f52602160045260245ffd5b60058110615b4e57615b4e615b2a565b9052565b60018060a01b03815116825260018060a01b0360208201511660208301525f604082015160e06040850152615b8a60e0850182615373565b9050606083015160608501526080830151615ba86080860182615b3e565b5060a0830151151560a085015260c083015184820360c0860152613e1f8282615541565b5f8151808452602084019350602083015f5b828110156153a35781516001600160a01b0316865260209586019590910190600101615bde565b606081525f615c176060830186615b52565b8281036020840152615c298186615bcc565b90508281036040840152615c3d8185615bcc565b9695505050505050565b5f82601f830112615c56575f5ffd5b8151615c646150a582615164565b818152846020838601011115615c78575f5ffd5b8160208501602083015e5f918101602001919091529392505050565b5f60208284031215615ca4575f5ffd5b81516001600160401b03811115615cb9575f5ffd5b615cc584828501615c47565b949350505050565b5f60208284031215615cdd575f5ffd5b5051919050565b5f60208284031215615cf4575f5ffd5b813561080781614ffe565b5f5f8335601e19843603018112615d14575f5ffd5b8301803591506001600160401b03821115615d2d575f5ffd5b6020019150600581901b3603821315615305575f5ffd5b634e487b7160e01b5f52603260045260245ffd5b602080825282516001600160a01b0390811683830152908301511660408083019190915282015160c060608301525f90615d9560e0840182615373565b9050606084015160808401526080840151615db360a0850182615b3e565b5060a0840151838203601f190160c0850152613e1f8282615541565b5f82601f830112615dde575f5ffd5b8151615dec6150a582615066565b8082825260208201915060208360051b860101925085831115615e0d575f5ffd5b602085015b838110156130c8578051835260209283019201615e12565b5f5f5f60608486031215615e3c575f5ffd5b83516001600160401b03811115615e51575f5ffd5b615e5d86828701615dcf565b60208601516040870151919550935090506001600160401b03811115615e81575f5ffd5b61572786828701615c47565b5f60208284031215615e9d575f5ffd5b81356108078161514c565b5f60208284031215615eb8575f5ffd5b81516001600160401b03811115615ecd575f5ffd5b8201601f81018413615edd575f5ffd5b8051615eeb6150a582615066565b8082825260208201915060208360051b850101925086831115615f0c575f5ffd5b6020840193505b82841015615c3d578351615f2681614ffe565b825260209384019390910190615f13565b5f60208284031215615f47575f5ffd5b81516108078161514c565b6001600160a01b03858116825284166020820152604081018390526080606082018190525f90615c3d90830184615373565b5f60208284031215615f94575f5ffd5b81516001600160401b03811115615fa9575f5ffd5b615cc584828501615dcf565b60048110615b4e57615b4e615b2a565b6020815260018060a01b03825116602082015260018060a01b036020830151166040820152604082015160608201525f606083015160c0608084015261600e60e0840182615373565b90506080840151615db360a0850182615fb5565b5f5f5f60608486031215616034575f5ffd5b835160208501519093506001600160401b03811115616051575f5ffd5b61605d86828701615dcf565b604086015190935090506001600160401b03811115615e81575f5ffd5b6001600160a01b039384168152919092166020820152604081019190915260600190565b5f602082840312156160ae575f5ffd5b813560048110610807575f5ffd5b5f5f8335601e198436030181126160d1575f5ffd5b8301803591506001600160401b038211156160ea575f5ffd5b602001915036819003821315615305575f5ffd5b604081525f6161106040830185615bcc565b8281036020840152613e1f8185615bcc565b6001600160a01b039390931683526020830191909152604082015260600190565b6001600160a01b038681168252851660208201526040810184905260806060820181905281018290525f6001600160fb1b03831115616180575f5ffd5b8260051b808560a08501379190910160a0019695505050505050565b600181811c908216806161b057607f821691505b60208210810361276c57634e487b7160e01b5f52602260045260245ffd5b5f8151808452602084019350602083015f5b828110156153a357815115158652602095860195909101906001016161e0565b604081525f6162126040830185615b52565b8281036020840152613e1f81856161ce565b60018060a01b03815116825260018060a01b0360208201511660208301525f604082015160e0604085015261625c60e0850182615373565b9050606083015160608501526080830151615ba86080860182615fb5565b606081525f615c176060830186616224565b634e487b7160e01b5f52601160045260245ffd5b818103818111156132d1576132d161628c565b5f816162c1576162c161628c565b505f190190565b604081525f6162126040830185616224565b5f602082840312156162ea575f5ffd5b813560058110610807575f5ffd5b5f60208284031215616308575f5ffd5b815161080781614ffe565b6002811061278457612784615b2a565b815160a082019061633381616313565b8252602083015161634381616313565b60208301526040838101516001600160a01b03169083015260608084015190830152608092830151929091019190915290565b5f5f5f60608486031215616388575f5ffd5b5050815160208301516040909301519094929350919050565b5f60c08284031280156163b2575f5ffd5b5060405160c081016001600160401b03811182821017156163d5576163d5615022565b60405282356163e381614ffe565b815260208301356163f381614ffe565b6020820152604083013561640681614ffe565b6040820152606083810135908201526080808401359082015260a0928301359281019290925250919050565b5f5f8335601e19843603018112616447575f5ffd5b8301803591506001600160401b03821115616460575f5ffd5b6020019150600781901b3603821315615305575f5ffd5b803565ffffffffffff8116811461501d575f5ffd5b81835281816020850137505f828201602090810191909152601f909101601f19169091010190565b6001600160a01b0385168152606060208201525f60c08201853536879003601e190181126164e0575f5ffd5b86016020810190356001600160401b038111156164fb575f5ffd5b8060071b360382131561650c575f5ffd5b60608581015291829052905f9060e085015b8183101561659d57833561653181614ffe565b6001600160a01b03168152602084013561654a81614ffe565b6001600160a01b0316602082015265ffffffffffff61656b60408601616477565b16604082015265ffffffffffff61658460608601616477565b166060820152608093840193600193909301920161651e565b6165a960208a01615012565b6001600160a01b0316608087015260408981013560a0880181905287830391880191909152935061086881888a61648c565b8181035f831280158383131683831282161715613af357613af361628c565b5f600160ff1b82016162c1576162c161628c565b5f82518060208501845e5f920191825250919050565b6001600160a01b03929092168252602082015260400190565b808201808211156132d1576132d161628c56fe9b779b17422d0df92223018b32b4d1fa46e071723d6817e2486d003becc55f00a2646970667358221220e2b3ddc489745ce5a9397866313e8e44c7f3822d793ccb2c03d0266ee3196f0564736f6c634300081e0033","linkReferences":{}},"methodIdentifiers":{"addLiquidityERC4626PoolProportionalHook((address,address,uint256[],uint256,uint8,bool,bytes),bool[])":"19aceff3","addLiquidityERC4626PoolUnbalancedHook((address,address,uint256[],uint256,uint8,bool,bytes),bool[])":"27bfb13a","addLiquidityProportionalToERC4626Pool(address,bool[],uint256[],uint256,bool,bytes)":"e3c3e64f","addLiquidityUnbalancedNestedPool(address,address[],uint256[],address[],uint256,bool,bytes)":"175f31c6","addLiquidityUnbalancedNestedPoolHook((address,address,uint256[],uint256,uint8,bool,bytes),address[],address[])":"a5bb0bd1","addLiquidityUnbalancedToERC4626Pool(address,bool[],uint256[],uint256,bool,bytes)":"c1da024c","getPermit2()":"1bbf2e23","getSender()":"5e01eb5a","getVault()":"8d928af8","getWeth()":"107c279f","multicall(bytes[])":"ac9650d8","permitBatchAndCall((address,address,address,uint256,uint256,uint256)[],bytes[],((address,uint160,uint48,uint48)[],address,uint256),bytes,bytes[])":"19c6989f","queryAddLiquidityProportionalToERC4626Pool(address,bool[],uint256,address,bytes)":"698cc74b","queryAddLiquidityUnbalancedNestedPool(address,address[],uint256[],address[],address,bytes)":"3121edfc","queryAddLiquidityUnbalancedToERC4626Pool(address,bool[],uint256[],address,bytes)":"c9b8ddb2","queryRemoveLiquidityProportionalFromERC4626Pool(address,bool[],uint256,address,bytes)":"f921696e","queryRemoveLiquidityProportionalNestedPool(address,uint256,address[],address[],address,bytes)":"d2b1b903","removeLiquidityERC4626PoolProportionalHook((address,address,uint256[],uint256,uint8,bool,bytes),bool[])":"4c97a878","removeLiquidityProportionalFromERC4626Pool(address,bool[],uint256,uint256[],bool,bytes)":"d8a7f9fe","removeLiquidityProportionalNestedPool(address,uint256,address[],uint256[],address[],bool,bytes)":"6c1fb320","removeLiquidityProportionalNestedPoolHook((address,address,uint256[],uint256,uint8,bool,bytes),address[],address[])":"47cd1d02","version()":"54fd4d50"},"id":334}