{"abi":[{"type":"constructor","inputs":[{"name":"vault","type":"address","internalType":"contract IVault"}],"stateMutability":"nonpayable"},{"type":"function","name":"getAggregateFeePercentages","inputs":[],"outputs":[{"name":"aggregateSwapFeePercentage","type":"uint256","internalType":"uint256"},{"name":"aggregateYieldFeePercentage","type":"uint256","internalType":"uint256"}],"stateMutability":"view"},{"type":"function","name":"getCurrentLiveBalances","inputs":[],"outputs":[{"name":"balancesLiveScaled18","type":"uint256[]","internalType":"uint256[]"}],"stateMutability":"view"},{"type":"function","name":"getStaticSwapFeePercentage","inputs":[],"outputs":[{"name":"","type":"uint256","internalType":"uint256"}],"stateMutability":"view"},{"type":"function","name":"getTokenInfo","inputs":[],"outputs":[{"name":"tokens","type":"address[]","internalType":"contract IERC20[]"},{"name":"tokenInfo","type":"tuple[]","internalType":"struct TokenInfo[]","components":[{"name":"tokenType","type":"uint8","internalType":"enum TokenType"},{"name":"rateProvider","type":"address","internalType":"contract IRateProvider"},{"name":"paysYieldFees","type":"bool","internalType":"bool"}]},{"name":"balancesRaw","type":"uint256[]","internalType":"uint256[]"},{"name":"lastBalancesLiveScaled18","type":"uint256[]","internalType":"uint256[]"}],"stateMutability":"view"},{"type":"function","name":"getTokens","inputs":[],"outputs":[{"name":"tokens","type":"address[]","internalType":"contract IERC20[]"}],"stateMutability":"view"}],"bytecode":{"object":"0x60a060405234801561000f575f5ffd5b50604051610af8380380610af883398101604081905261002e9161003f565b6001600160a01b031660805261006c565b5f6020828403121561004f575f5ffd5b81516001600160a01b0381168114610065575f5ffd5b9392505050565b608051610a5961009f5f395f818160d80152818161019101528181610214015281816102c701526103560152610a595ff3fe608060405234801561000f575f5ffd5b5060043610610055575f3560e01c806381fa807c14610059578063aa6ca8081461007b578063abb1dc4414610090578063b156aa0a146100a8578063d335b0cf146100bd575b5f5ffd5b6100616100d3565b604080519283526020830191909152015b60405180910390f35b610083610177565b604051610072919061040d565b61009861020c565b6040516100729493929190610456565b6100b06102ad565b6040516100729190610517565b6100c561033d565b604051908152602001610072565b5f5f5f7f00000000000000000000000000000000000000000000000000000000000000006001600160a01b031663f29486a1306040518263ffffffff1660e01b81526004016101229190610529565b6101a060405180830381865afa15801561013e573d5f5f3e3d5ffd5b505050506040513d601f19601f820116820180604052508101906101629190610684565b90508060400151925080606001519150509091565b60405163ca4f280360e01b81526060906001600160a01b037f0000000000000000000000000000000000000000000000000000000000000000169063ca4f2803906101c6903090600401610529565b5f60405180830381865afa1580156101e0573d5f5f3e3d5ffd5b505050506040513d5f823e601f3d908101601f1916820160405261020791908101906107e9565b905090565b6060806060807f00000000000000000000000000000000000000000000000000000000000000006001600160a01b03166367e0e076306040518263ffffffff1660e01b815260040161025e9190610529565b5f60405180830381865afa158015610278573d5f5f3e3d5ffd5b505050506040513d5f823e601f3d908101601f1916820160405261029f919081019061087d565b935093509350935090919293565b6040516329ae7ec560e11b81526060906001600160a01b037f0000000000000000000000000000000000000000000000000000000000000000169063535cfd8a906102fc903090600401610529565b5f60405180830381865afa158015610316573d5f5f3e3d5ffd5b505050506040513d5f823e601f3d908101601f1916820160405261020791908101906109db565b60405163b45090f960e01b81525f906001600160a01b037f0000000000000000000000000000000000000000000000000000000000000000169063b45090f99061038b903090600401610529565b602060405180830381865afa1580156103a6573d5f5f3e3d5ffd5b505050506040513d601f19601f820116820180604052508101906102079190610a0c565b5f8151808452602084019350602083015f5b828110156104035781516001600160a01b03168652602095860195909101906001016103dc565b5093949350505050565b602081525f61041f60208301846103ca565b9392505050565b5f8151808452602084019350602083015f5b82811015610403578151865260209586019590910190600101610438565b608081525f61046860808301876103ca565b82810360208401528086518083526020830191506020880192505f5b818110156104e35783518051600281106104ac57634e487b7160e01b5f52602160045260245ffd5b84526020818101516001600160a01b0316818601526040918201511515918501919091529390930192606090920191600101610484565b505083810360408501526104f78187610426565b915050828103606084015261050c8185610426565b979650505050505050565b602081525f61041f6020830184610426565b6001600160a01b0391909116815260200190565b634e487b7160e01b5f52604160045260245ffd5b60405161014081016001600160401b03811182821017156105745761057461053d565b60405290565b604051606081016001600160401b03811182821017156105745761057461053d565b604051601f8201601f191681016001600160401b03811182821017156105c4576105c461053d565b604052919050565b805180151581146105db575f5ffd5b919050565b5f608082840312156105f0575f5ffd5b604051608081016001600160401b03811182821017156106125761061261053d565b604052905080610621836105cc565b815261062f602084016105cc565b6020820152610640604084016105cc565b6040820152610651606084016105cc565b60608201525092915050565b805164ffffffffff811681146105db575f5ffd5b805163ffffffff811681146105db575f5ffd5b5f6101a0828403128015610696575f5ffd5b5061069f610551565b6106a984846105e0565b81526080830151602082015260a0830151604082015260c083015160608201526106d560e0840161065d565b60808201526106e76101008401610671565b60a08201526106f961012084016105cc565b60c082015261070b61014084016105cc565b60e082015261071d61016084016105cc565b61010082015261073061018084016105cc565b6101208201529392505050565b5f6001600160401b038211156107555761075561053d565b5060051b60200190565b6001600160a01b0381168114610773575f5ffd5b50565b5f82601f830112610785575f5ffd5b81516107986107938261073d565b61059c565b8082825260208201915060208360051b8601019250858311156107b9575f5ffd5b602085015b838110156107df5780516107d18161075f565b8352602092830192016107be565b5095945050505050565b5f602082840312156107f9575f5ffd5b81516001600160401b0381111561080e575f5ffd5b61081a84828501610776565b949350505050565b5f82601f830112610831575f5ffd5b815161083f6107938261073d565b8082825260208201915060208360051b860101925085831115610860575f5ffd5b602085015b838110156107df578051835260209283019201610865565b5f5f5f5f60808587031215610890575f5ffd5b84516001600160401b038111156108a5575f5ffd5b6108b187828801610776565b602087015190955090506001600160401b038111156108ce575f5ffd5b8501601f810187136108de575f5ffd5b80516108ec6107938261073d565b8082825260208201915060206060840285010192508983111561090d575f5ffd5b6020840193505b8284101561097b576060848b03121561092b575f5ffd5b61093361057a565b845160028110610941575f5ffd5b815260208501516109518161075f565b6020820152610962604086016105cc565b6040820152825260609390930192602090910190610914565b6040890151909650925050506001600160401b0381111561099a575f5ffd5b6109a687828801610822565b606087015190935090506001600160401b038111156109c3575f5ffd5b6109cf87828801610822565b91505092959194509250565b5f602082840312156109eb575f5ffd5b81516001600160401b03811115610a00575f5ffd5b61081a84828501610822565b5f60208284031215610a1c575f5ffd5b505191905056fea2646970667358221220e4c54113c5c055eaca485f5efec1d949ee3075708f05158971340b5747d56e0b64736f6c634300081e0033","linkReferences":{}},"methodIdentifiers":{"getAggregateFeePercentages()":"81fa807c","getCurrentLiveBalances()":"b156aa0a","getStaticSwapFeePercentage()":"d335b0cf","getTokenInfo()":"abb1dc44","getTokens()":"aa6ca808"},"id":189}