{"abi":[{"type":"function","name":"facetFuncs","inputs":[],"outputs":[{"name":"funcs","type":"bytes4[]","internalType":"bytes4[]"}],"stateMutability":"pure"},{"type":"function","name":"facetInterfaces","inputs":[],"outputs":[{"name":"interfaces","type":"bytes4[]","internalType":"bytes4[]"}],"stateMutability":"pure"},{"type":"function","name":"facetMetadata","inputs":[],"outputs":[{"name":"name","type":"string","internalType":"string"},{"name":"interfaces","type":"bytes4[]","internalType":"bytes4[]"},{"name":"functions","type":"bytes4[]","internalType":"bytes4[]"}],"stateMutability":"pure"},{"type":"function","name":"facetName","inputs":[],"outputs":[{"name":"name","type":"string","internalType":"string"}],"stateMutability":"pure"},{"type":"function","name":"weth","inputs":[],"outputs":[{"name":"","type":"address","internalType":"contract IWETH"}],"stateMutability":"view"}],"bytecode":{"object":"0x6080604052348015600e575f5ffd5b506103678061001c5f395ff3fe608060405234801561000f575f5ffd5b5060043610610055575f3560e01c80632ea80826146100595780633fc8cef314610077578063574a4cff146100975780635b6f4d011461009f578063f10d7a75146100b4575b5f5ffd5b6100616100cb565b60405161006e9190610282565b60405180910390f35b61007f610123565b6040516001600160a01b03909116815260200161006e565b610061610131565b6100a761016d565b60405161006e91906102c9565b6100bc610195565b60405161006e939291906102db565b60408051600180825281830190925260609160208083019080368337019050509050633fc8cef360e01b815f815181106101075761010761031d565b6001600160e01b03199092166020928302919091019091015290565b5f61012c6101bd565b905090565b60408051600180825281830190925260609160208083019080368337019050509050633fc8cef360e01b815f815181106101075761010761031d565b60408051808201909152600e81526d15d15512105dd85c99519858d95d60921b602082015290565b60608060606101a261016d565b92506101ac6100cb565b91506101b6610131565b9050909192565b5f61012c6101c96101d6565b546001600160a01b031690565b5f61012c6040516020016102259060208082526021908201527f70726f746f636f6c732e746f6b656e732e77726170706572732e776574682e766040820152603960f81b606082015260800190565b6040516020818303038152906040528051906020012090565b5f8151808452602084019350602083015f5b828110156102785781516001600160e01b031916865260209586019590910190600101610250565b5093949350505050565b602081525f610294602083018461023e565b9392505050565b5f81518084528060208401602086015e5f602082860101526020601f19601f83011685010191505092915050565b602081525f610294602083018461029b565b606081525f6102ed606083018661029b565b82810360208401526102ff818661023e565b90508281036040840152610313818561023e565b9695505050505050565b634e487b7160e01b5f52603260045260245ffdfea264697066735822122003ec7140c57f45c49251c1f2cd6e0393b7a691fd957c8481a4b30659c9b9326764736f6c634300081e0033","linkReferences":{}},"methodIdentifiers":{"facetFuncs()":"574a4cff","facetInterfaces()":"2ea80826","facetMetadata()":"f10d7a75","facetName()":"5b6f4d01","weth()":"3fc8cef3"},"id":1243}