{"abi":[{"type":"function","name":"diamondPackageCallbackFactory","inputs":[],"outputs":[{"name":"diamondPackageCallbackFactory_","type":"address","internalType":"contract IDiamondPackageCallBackFactory"}],"stateMutability":"view"},{"type":"function","name":"facetFuncs","inputs":[],"outputs":[{"name":"funcs","type":"bytes4[]","internalType":"bytes4[]"}],"stateMutability":"pure"},{"type":"function","name":"facetInterfaces","inputs":[],"outputs":[{"name":"interfaces","type":"bytes4[]","internalType":"bytes4[]"}],"stateMutability":"pure"},{"type":"function","name":"facetMetadata","inputs":[],"outputs":[{"name":"name","type":"string","internalType":"string"},{"name":"interfaces","type":"bytes4[]","internalType":"bytes4[]"},{"name":"functions","type":"bytes4[]","internalType":"bytes4[]"}],"stateMutability":"pure"},{"type":"function","name":"facetName","inputs":[],"outputs":[{"name":"name","type":"string","internalType":"string"}],"stateMutability":"pure"}],"bytecode":{"object":"0x6080604052348015600e575f5ffd5b506103278061001c5f395ff3fe608060405234801561000f575f5ffd5b5060043610610055575f3560e01c80632ea8082614610059578063574a4cff146100775780635b6f4d011461007f578063f10d7a7514610094578063fdeea402146100ab575b5f5ffd5b6100616100cb565b60405161006e9190610242565b60405180910390f35b610061610123565b61008761015f565b60405161006e9190610289565b61009c610196565b60405161006e9392919061029b565b6100b36101be565b6040516001600160a01b03909116815260200161006e565b60408051600180825281830190925260609160208083019080368337019050509050637ef7520160e11b815f81518110610107576101076102dd565b6001600160e01b03199092166020928302919091019091015290565b6040805160018082528183019092526060916020808301908036833701905050905063fdeea40260e01b815f81518110610107576101076102dd565b60408051808201909152601f81527f4469616d6f6e645061636b616765466163746f72794177617265466163657400602082015290565b60608060606101a361015f565b92506101ad6100cb565b91506101b7610123565b9050909192565b5f6101c76101cc565b905090565b5f6101c77f8db3adff379d58918387b2480008d1d97fd7a0b6fbc7e87dfe779fff766bb34b546001600160a01b031690565b5f8151808452602084019350602083015f5b828110156102385781516001600160e01b031916865260209586019590910190600101610210565b5093949350505050565b602081525f61025460208301846101fe565b9392505050565b5f81518084528060208401602086015e5f602082860101526020601f19601f83011685010191505092915050565b602081525f610254602083018461025b565b606081525f6102ad606083018661025b565b82810360208401526102bf81866101fe565b905082810360408401526102d381856101fe565b9695505050505050565b634e487b7160e01b5f52603260045260245ffdfea26469706673582212209b4a1e682a1e024a4613ca6c17b44e84e3e421d8a51fd50d3b05f89b2e568fb164736f6c634300081e0033","linkReferences":{}},"methodIdentifiers":{"diamondPackageCallbackFactory()":"fdeea402","facetFuncs()":"574a4cff","facetInterfaces()":"2ea80826","facetMetadata()":"f10d7a75","facetName()":"5b6f4d01"},"id":543}