{"abi":[{"type":"constructor","inputs":[{"name":"vault_","type":"address","internalType":"contract IVault"},{"name":"defaultMaxSurgeFeePercentage_","type":"uint256","internalType":"uint256"},{"name":"defaultSurgeThresholdPercentage_","type":"uint256","internalType":"uint256"},{"name":"version_","type":"string","internalType":"string"}],"stateMutability":"nonpayable"},{"type":"function","name":"MAX_IMBALANCE_SLOPE","inputs":[],"outputs":[{"name":"","type":"uint128","internalType":"uint128"}],"stateMutability":"view"},{"type":"function","name":"MIN_IMBALANCE_SLOPE","inputs":[],"outputs":[{"name":"","type":"uint128","internalType":"uint128"}],"stateMutability":"view"},{"type":"function","name":"computeSwapSurgeFeePercentage","inputs":[{"name":"params","type":"tuple","internalType":"struct PoolSwapParams","components":[{"name":"kind","type":"uint8","internalType":"enum SwapKind"},{"name":"amountGivenScaled18","type":"uint256","internalType":"uint256"},{"name":"balancesScaled18","type":"uint256[]","internalType":"uint256[]"},{"name":"indexIn","type":"uint256","internalType":"uint256"},{"name":"indexOut","type":"uint256","internalType":"uint256"},{"name":"router","type":"address","internalType":"address"},{"name":"userData","type":"bytes","internalType":"bytes"}]},{"name":"pool","type":"address","internalType":"address"},{"name":"staticSwapFeePercentage","type":"uint256","internalType":"uint256"}],"outputs":[{"name":"surgeFeePercentage","type":"uint256","internalType":"uint256"}],"stateMutability":"view"},{"type":"function","name":"getActionId","inputs":[{"name":"selector","type":"bytes4","internalType":"bytes4"}],"outputs":[{"name":"","type":"bytes32","internalType":"bytes32"}],"stateMutability":"view"},{"type":"function","name":"getAuthorizer","inputs":[],"outputs":[{"name":"","type":"address","internalType":"contract IAuthorizer"}],"stateMutability":"view"},{"type":"function","name":"getDefaultMaxSurgeFeePercentage","inputs":[],"outputs":[{"name":"","type":"uint256","internalType":"uint256"}],"stateMutability":"view"},{"type":"function","name":"getDefaultSurgeThresholdPercentage","inputs":[],"outputs":[{"name":"","type":"uint256","internalType":"uint256"}],"stateMutability":"view"},{"type":"function","name":"getHookFlags","inputs":[],"outputs":[{"name":"hookFlags","type":"tuple","internalType":"struct HookFlags","components":[{"name":"enableHookAdjustedAmounts","type":"bool","internalType":"bool"},{"name":"shouldCallBeforeInitialize","type":"bool","internalType":"bool"},{"name":"shouldCallAfterInitialize","type":"bool","internalType":"bool"},{"name":"shouldCallComputeDynamicSwapFee","type":"bool","internalType":"bool"},{"name":"shouldCallBeforeSwap","type":"bool","internalType":"bool"},{"name":"shouldCallAfterSwap","type":"bool","internalType":"bool"},{"name":"shouldCallBeforeAddLiquidity","type":"bool","internalType":"bool"},{"name":"shouldCallAfterAddLiquidity","type":"bool","internalType":"bool"},{"name":"shouldCallBeforeRemoveLiquidity","type":"bool","internalType":"bool"},{"name":"shouldCallAfterRemoveLiquidity","type":"bool","internalType":"bool"}]}],"stateMutability":"pure"},{"type":"function","name":"getImbalanceSlopes","inputs":[{"name":"pool","type":"address","internalType":"address"}],"outputs":[{"name":"","type":"uint256","internalType":"uint256"},{"name":"","type":"uint256","internalType":"uint256"}],"stateMutability":"view"},{"type":"function","name":"getMaxSurgeFeePercentage","inputs":[{"name":"pool","type":"address","internalType":"address"}],"outputs":[{"name":"","type":"uint256","internalType":"uint256"}],"stateMutability":"view"},{"type":"function","name":"getSurgeThresholdPercentage","inputs":[{"name":"pool","type":"address","internalType":"address"}],"outputs":[{"name":"","type":"uint256","internalType":"uint256"}],"stateMutability":"view"},{"type":"function","name":"getVault","inputs":[],"outputs":[{"name":"","type":"address","internalType":"contract IVault"}],"stateMutability":"view"},{"type":"function","name":"isSurgingSwap","inputs":[{"name":"params","type":"tuple","internalType":"struct PoolSwapParams","components":[{"name":"kind","type":"uint8","internalType":"enum SwapKind"},{"name":"amountGivenScaled18","type":"uint256","internalType":"uint256"},{"name":"balancesScaled18","type":"uint256[]","internalType":"uint256[]"},{"name":"indexIn","type":"uint256","internalType":"uint256"},{"name":"indexOut","type":"uint256","internalType":"uint256"},{"name":"router","type":"address","internalType":"address"},{"name":"userData","type":"bytes","internalType":"bytes"}]},{"name":"pool","type":"address","internalType":"address"},{"name":"staticSwapFeePercentage","type":"uint256","internalType":"uint256"}],"outputs":[{"name":"isSurging","type":"bool","internalType":"bool"}],"stateMutability":"view"},{"type":"function","name":"onAfterAddLiquidity","inputs":[{"name":"","type":"address","internalType":"address"},{"name":"pool","type":"address","internalType":"address"},{"name":"kind","type":"uint8","internalType":"enum AddLiquidityKind"},{"name":"amountsInScaled18","type":"uint256[]","internalType":"uint256[]"},{"name":"amountsInRaw","type":"uint256[]","internalType":"uint256[]"},{"name":"","type":"uint256","internalType":"uint256"},{"name":"balancesScaled18","type":"uint256[]","internalType":"uint256[]"},{"name":"","type":"bytes","internalType":"bytes"}],"outputs":[{"name":"success","type":"bool","internalType":"bool"},{"name":"hookAdjustedAmountsInRaw","type":"uint256[]","internalType":"uint256[]"}],"stateMutability":"view"},{"type":"function","name":"onAfterInitialize","inputs":[{"name":"","type":"uint256[]","internalType":"uint256[]"},{"name":"","type":"uint256","internalType":"uint256"},{"name":"","type":"bytes","internalType":"bytes"}],"outputs":[{"name":"","type":"bool","internalType":"bool"}],"stateMutability":"nonpayable"},{"type":"function","name":"onAfterRemoveLiquidity","inputs":[{"name":"","type":"address","internalType":"address"},{"name":"pool","type":"address","internalType":"address"},{"name":"kind","type":"uint8","internalType":"enum RemoveLiquidityKind"},{"name":"","type":"uint256","internalType":"uint256"},{"name":"amountsOutScaled18","type":"uint256[]","internalType":"uint256[]"},{"name":"amountsOutRaw","type":"uint256[]","internalType":"uint256[]"},{"name":"balancesScaled18","type":"uint256[]","internalType":"uint256[]"},{"name":"","type":"bytes","internalType":"bytes"}],"outputs":[{"name":"success","type":"bool","internalType":"bool"},{"name":"hookAdjustedAmountsOutRaw","type":"uint256[]","internalType":"uint256[]"}],"stateMutability":"view"},{"type":"function","name":"onAfterSwap","inputs":[{"name":"","type":"tuple","internalType":"struct AfterSwapParams","components":[{"name":"kind","type":"uint8","internalType":"enum SwapKind"},{"name":"tokenIn","type":"address","internalType":"contract IERC20"},{"name":"tokenOut","type":"address","internalType":"contract IERC20"},{"name":"amountInScaled18","type":"uint256","internalType":"uint256"},{"name":"amountOutScaled18","type":"uint256","internalType":"uint256"},{"name":"tokenInBalanceScaled18","type":"uint256","internalType":"uint256"},{"name":"tokenOutBalanceScaled18","type":"uint256","internalType":"uint256"},{"name":"amountCalculatedScaled18","type":"uint256","internalType":"uint256"},{"name":"amountCalculatedRaw","type":"uint256","internalType":"uint256"},{"name":"router","type":"address","internalType":"address"},{"name":"pool","type":"address","internalType":"address"},{"name":"userData","type":"bytes","internalType":"bytes"}]}],"outputs":[{"name":"","type":"bool","internalType":"bool"},{"name":"","type":"uint256","internalType":"uint256"}],"stateMutability":"nonpayable"},{"type":"function","name":"onBeforeAddLiquidity","inputs":[{"name":"","type":"address","internalType":"address"},{"name":"","type":"address","internalType":"address"},{"name":"","type":"uint8","internalType":"enum AddLiquidityKind"},{"name":"","type":"uint256[]","internalType":"uint256[]"},{"name":"","type":"uint256","internalType":"uint256"},{"name":"","type":"uint256[]","internalType":"uint256[]"},{"name":"","type":"bytes","internalType":"bytes"}],"outputs":[{"name":"","type":"bool","internalType":"bool"}],"stateMutability":"nonpayable"},{"type":"function","name":"onBeforeInitialize","inputs":[{"name":"","type":"uint256[]","internalType":"uint256[]"},{"name":"","type":"bytes","internalType":"bytes"}],"outputs":[{"name":"","type":"bool","internalType":"bool"}],"stateMutability":"nonpayable"},{"type":"function","name":"onBeforeRemoveLiquidity","inputs":[{"name":"","type":"address","internalType":"address"},{"name":"","type":"address","internalType":"address"},{"name":"","type":"uint8","internalType":"enum RemoveLiquidityKind"},{"name":"","type":"uint256","internalType":"uint256"},{"name":"","type":"uint256[]","internalType":"uint256[]"},{"name":"","type":"uint256[]","internalType":"uint256[]"},{"name":"","type":"bytes","internalType":"bytes"}],"outputs":[{"name":"","type":"bool","internalType":"bool"}],"stateMutability":"nonpayable"},{"type":"function","name":"onBeforeSwap","inputs":[{"name":"","type":"tuple","internalType":"struct PoolSwapParams","components":[{"name":"kind","type":"uint8","internalType":"enum SwapKind"},{"name":"amountGivenScaled18","type":"uint256","internalType":"uint256"},{"name":"balancesScaled18","type":"uint256[]","internalType":"uint256[]"},{"name":"indexIn","type":"uint256","internalType":"uint256"},{"name":"indexOut","type":"uint256","internalType":"uint256"},{"name":"router","type":"address","internalType":"address"},{"name":"userData","type":"bytes","internalType":"bytes"}]},{"name":"","type":"address","internalType":"address"}],"outputs":[{"name":"","type":"bool","internalType":"bool"}],"stateMutability":"nonpayable"},{"type":"function","name":"onComputeDynamicSwapFeePercentage","inputs":[{"name":"params","type":"tuple","internalType":"struct PoolSwapParams","components":[{"name":"kind","type":"uint8","internalType":"enum SwapKind"},{"name":"amountGivenScaled18","type":"uint256","internalType":"uint256"},{"name":"balancesScaled18","type":"uint256[]","internalType":"uint256[]"},{"name":"indexIn","type":"uint256","internalType":"uint256"},{"name":"indexOut","type":"uint256","internalType":"uint256"},{"name":"router","type":"address","internalType":"address"},{"name":"userData","type":"bytes","internalType":"bytes"}]},{"name":"pool","type":"address","internalType":"address"},{"name":"staticSwapFeePercentage","type":"uint256","internalType":"uint256"}],"outputs":[{"name":"","type":"bool","internalType":"bool"},{"name":"","type":"uint256","internalType":"uint256"}],"stateMutability":"view"},{"type":"function","name":"onRegister","inputs":[{"name":"factory","type":"address","internalType":"address"},{"name":"pool","type":"address","internalType":"address"},{"name":"tokenConfig","type":"tuple[]","internalType":"struct TokenConfig[]","components":[{"name":"token","type":"address","internalType":"contract IERC20"},{"name":"tokenType","type":"uint8","internalType":"enum TokenType"},{"name":"rateProvider","type":"address","internalType":"contract IRateProvider"},{"name":"paysYieldFees","type":"bool","internalType":"bool"}]},{"name":"liquidityManagement","type":"tuple","internalType":"struct LiquidityManagement","components":[{"name":"disableUnbalancedLiquidity","type":"bool","internalType":"bool"},{"name":"enableAddLiquidityCustom","type":"bool","internalType":"bool"},{"name":"enableRemoveLiquidityCustom","type":"bool","internalType":"bool"},{"name":"enableDonation","type":"bool","internalType":"bool"}]}],"outputs":[{"name":"success","type":"bool","internalType":"bool"}],"stateMutability":"nonpayable"},{"type":"function","name":"setImbalanceSlopeAbovePeak","inputs":[{"name":"pool","type":"address","internalType":"address"},{"name":"newImbalanceSlopeAbovePeak","type":"uint256","internalType":"uint256"}],"outputs":[],"stateMutability":"nonpayable"},{"type":"function","name":"setImbalanceSlopeBelowPeak","inputs":[{"name":"pool","type":"address","internalType":"address"},{"name":"newImbalanceSlopeBelowPeak","type":"uint256","internalType":"uint256"}],"outputs":[],"stateMutability":"nonpayable"},{"type":"function","name":"setMaxSurgeFeePercentage","inputs":[{"name":"pool","type":"address","internalType":"address"},{"name":"newMaxSurgeSurgeFeePercentage","type":"uint256","internalType":"uint256"}],"outputs":[],"stateMutability":"nonpayable"},{"type":"function","name":"setSurgeThresholdPercentage","inputs":[{"name":"pool","type":"address","internalType":"address"},{"name":"newSurgeThresholdPercentage","type":"uint256","internalType":"uint256"}],"outputs":[],"stateMutability":"nonpayable"},{"type":"function","name":"version","inputs":[],"outputs":[{"name":"","type":"string","internalType":"string"}],"stateMutability":"view"},{"type":"event","name":"ECLPSurgeHookRegistered","inputs":[{"name":"pool","type":"address","indexed":true,"internalType":"address"},{"name":"factory","type":"address","indexed":true,"internalType":"address"}],"anonymous":false},{"type":"event","name":"ImbalanceSlopeAbovePeakChanged","inputs":[{"name":"pool","type":"address","indexed":true,"internalType":"address"},{"name":"newImbalanceSlopeAbovePeak","type":"uint128","indexed":false,"internalType":"uint128"}],"anonymous":false},{"type":"event","name":"ImbalanceSlopeBelowPeakChanged","inputs":[{"name":"pool","type":"address","indexed":true,"internalType":"address"},{"name":"newImbalanceSlopeBelowPeak","type":"uint128","indexed":false,"internalType":"uint128"}],"anonymous":false},{"type":"event","name":"MaxSurgeFeePercentageChanged","inputs":[{"name":"pool","type":"address","indexed":true,"internalType":"address"},{"name":"newMaxSurgeFeePercentage","type":"uint256","indexed":false,"internalType":"uint256"}],"anonymous":false},{"type":"event","name":"ThresholdSurgePercentageChanged","inputs":[{"name":"pool","type":"address","indexed":true,"internalType":"address"},{"name":"newSurgeThresholdPercentage","type":"uint256","indexed":false,"internalType":"uint256"}],"anonymous":false},{"type":"error","name":"AssetBoundsExceeded","inputs":[]},{"type":"error","name":"DivInterval","inputs":[]},{"type":"error","name":"InputLengthMismatch","inputs":[]},{"type":"error","name":"InvalidImbalanceSlope","inputs":[]},{"type":"error","name":"InvalidPercentage","inputs":[]},{"type":"error","name":"InvalidRotationAngle","inputs":[]},{"type":"error","name":"MaxAssetsExceeded","inputs":[]},{"type":"error","name":"MaxInvariantExceeded","inputs":[]},{"type":"error","name":"MulOverflow","inputs":[]},{"type":"error","name":"SenderIsNotVault","inputs":[{"name":"sender","type":"address","internalType":"address"}]},{"type":"error","name":"SenderNotAllowed","inputs":[]},{"type":"error","name":"VaultNotSet","inputs":[]},{"type":"error","name":"ZeroDivision","inputs":[]}],"bytecode":{"object":"0x610120604052348015610010575f5ffd5b50604051614b8a380380614b8a83398101604081905261002f916100fe565b6001600160a01b03841660808190523060a0819052859185918591859182918691829161006f57604051630647140b60e51b815260040160405180910390fd5b506001600160a01b031660c05250610086816100af565b50610090836100be565b610099826100be565b5060e091909152610100525061031e9350505050565b5f6100ba8282610264565b5050565b670de0b6b3a76400008111156100e757604051631f3b85d360e01b815260040160405180910390fd5b50565b634e487b7160e01b5f52604160045260245ffd5b5f5f5f5f60808587031215610111575f5ffd5b84516001600160a01b0381168114610127575f5ffd5b60208601516040870151606088015192965090945092506001600160401b03811115610151575f5ffd5b8501601f81018713610161575f5ffd5b80516001600160401b0381111561017a5761017a6100ea565b604051601f8201601f19908116603f011681016001600160401b03811182821017156101a8576101a86100ea565b6040528181528282016020018910156101bf575f5ffd5b8160208401602083015e5f6020838301015280935050505092959194509250565b600181811c908216806101f457607f821691505b60208210810361021257634e487b7160e01b5f52602260045260245ffd5b50919050565b601f82111561025f57805f5260205f20601f840160051c8101602085101561023d5750805b601f840160051c820191505b8181101561025c575f8155600101610249565b50505b505050565b81516001600160401b0381111561027d5761027d6100ea565b6102918161028b84546101e0565b84610218565b6020601f8211600181146102c3575f83156102ac5750848201515b5f19600385901b1c1916600184901b17845561025c565b5f84815260208120601f198516915b828110156102f257878501518255602094850194600190920191016102d2565b508482101561030f57868401515f19600387901b60f8161c191681555b50505050600190811b01905550565b60805160a05160c05160e051610100516147fe61038c5f395f81816103070152610dfc01525f818161038c0152610dd201525f81816105ec015281816107ff01528181610946015281816109ed01528181610af601526115ca01525f610a9301525f610d7801526147fe5ff3fe608060405234801561000f575f5ffd5b5060043610610152575f3560e01c80630b89f1821461015657806318b6eb551461017e5780631a4a64be146101aa5780631c149e28146101f05780631fcb3b55146102035780632754888d1461021857806338be241d146102395780633a61bdea1461024c57806345421ec71461025f5780634e493cfd146102795780635211fa771461028c57806354fd4d501461029a57806359f00466146102af5780636073d344146102c2578063851c1bb3146102d5578063872aabd5146102e85780638bc694ad146103055780638d928af81461032b578063976907cc14610340578063a0e8f5ac14610353578063aaabadc514610366578063ba5f9f401461036e578063bcf5a6c31461037c578063c17ef2cc1461038a578063c88511a2146103b0578063d77153a7146103c3578063e23816021461041c578063f253345f1461044d575b5f5ffd5b610169610164366004613ab0565b6104b4565b60405190151581526020015b60405180910390f35b61019361018c366004613bdb565b505f908190565b604080519215158352602083019190915201610175565b6101e26101b8366004613c12565b6001600160a01b03165f90815260016020526040902054600160401b90046001600160401b031690565b604051908152602001610175565b6101696101fe366004613cf3565b6105e0565b610216610211366004613d56565b6105e8565b005b61022b610226366004613d8e565b610695565b604051610175929190613e7d565b610169610247366004613ecc565b610792565b61016961025a366004613f47565b61079b565b61016961026d366004613faa565b5f979650505050505050565b610216610287366004613d56565b6107f1565b6101696101fe366004614071565b6102a26108a9565b60405161017591906140bf565b6102166102bd366004613d56565b610938565b6102166102d0366004613d56565b6109e9565b6101e26102e33660046140f4565b610a90565b6102f868056bc75e2d6310000081565b604051610175919061411b565b7f00000000000000000000000000000000000000000000000000000000000000006101e2565b610333610af4565b604051610175919061412f565b61022b61034e366004614143565b610b1d565b610193610361366004613f47565b610c17565b610333610c32565b61016961026d3660046141ef565b6102f8662386f26fc1000081565b7f00000000000000000000000000000000000000000000000000000000000000006101e2565b6101e26103be366004613f47565b610c9a565b60408051610140810182525f808252602082018190528183018190526080820181905260a0820181905260c0820181905261010082015260016060820181905260e0820181905261012082015290516101759190614274565b6101e261042a366004613c12565b6001600160a01b03165f908152600160205260409020546001600160401b031690565b61049f61045b366004613c12565b6001600160a01b03165f908152600260209081526040918290208251808401909352546001600160801b03808216808552600160801b909204169290910182905291565b60408051928352602083019190915201610175565b5f6104bd610d6d565b5f846001600160a01b0316637be219a26040518163ffffffff1660e01b81526004016101c060405180830381865afa1580156104fb573d5f5f3e3d5ffd5b505050506040513d601f19601f8201168201806040525081019061051f9190614389565b5090506706f05b59d3b200008160600151128061054757506706f05b59d3b200008160400151125b1561056557604051634988ec1560e01b815260040160405180910390fd5b61057186868686610dc3565b915061058585670de0b6b3a7640000610e2b565b61059785670de0b6b3a7640000610eaf565b856001600160a01b0316856001600160a01b03167f2240922c3e668d008789313de57a4bc99efe8593cc329b9b787d908f6df2fa0160405160405180910390a350949350505050565b5f5b92915050565b815f7f00000000000000000000000000000000000000000000000000000000000000006001600160a01b031663e9ddeb26836040518263ffffffff1660e01b8152600401610636919061412f565b606060405180830381865afa158015610651573d5f5f3e3d5ffd5b505050506040513d601f19601f82011682018060405250810190610675919061445a565b6020015190506106858282610f25565b61068f8484610eaf565b50505050565b5f6060818860038111156106ab576106ab6144cb565b036106bb57506001905083610785565b5f84516001600160401b038111156106d5576106d56139a4565b6040519080825280602002602001820160405280156106fe578160200160208202803683370190505b5090505f5b855181101561076f5787818151811061071e5761071e6144df565b6020026020010151868281518110610738576107386144df565b602002602001015161074a9190614507565b82828151811061075c5761075c6144df565b6020908102919091010152600101610703565b505f61077c8b8388610f9f565b15935086925050505b9850989650505050505050565b5f5b9392505050565b6001600160a01b0382165f9081526001602090815260408083208151808301909252546001600160401b038082168352600160401b90910416918101919091526107e7858585846110d4565b5095945050505050565b806107fb81611414565b825f7f00000000000000000000000000000000000000000000000000000000000000006001600160a01b031663e9ddeb26836040518263ffffffff1660e01b8152600401610849919061412f565b606060405180830381865afa158015610864573d5f5f3e3d5ffd5b505050506040513d601f19601f82011682018060405250810190610888919061445a565b6020015190506108988282610f25565b6108a28585611440565b5050505050565b60605f80546108b79061451a565b80601f01602080910402602001604051908101604052809291908181526020018280546108e39061451a565b801561092e5780601f106109055761010080835404028352916020019161092e565b820191905f5260205f20905b81548152906001019060200180831161091157829003601f168201915b5050505050905090565b8061094281611414565b825f7f00000000000000000000000000000000000000000000000000000000000000006001600160a01b031663e9ddeb26836040518263ffffffff1660e01b8152600401610990919061412f565b606060405180830381865afa1580156109ab573d5f5f3e3d5ffd5b505050506040513d601f19601f820116820180604052508101906109cf919061445a565b6020015190506109df8282610f25565b6108a285856114c9565b815f7f00000000000000000000000000000000000000000000000000000000000000006001600160a01b031663e9ddeb26836040518263ffffffff1660e01b8152600401610a37919061412f565b606060405180830381865afa158015610a52573d5f5f3e3d5ffd5b505050506040513d601f19601f82011682018060405250810190610a76919061445a565b602001519050610a868282610f25565b61068f8484610e2b565b5f7f000000000000000000000000000000000000000000000000000000000000000082604051602001610ad79291909182526001600160e01b031916602082015260240190565b604051602081830303815290604052805190602001209050919050565b7f000000000000000000000000000000000000000000000000000000000000000090565b905090565b5f606081886004811115610b3357610b336144cb565b03610b4357506001905084610785565b5f84516001600160401b03811115610b5d57610b5d6139a4565b604051908082528060200260200182016040528015610b86578160200160208202803683370190505b5090505f5b8551811015610bf757888181518110610ba657610ba66144df565b6020026020010151868281518110610bc057610bc06144df565b6020026020010151610bd2919061454c565b828281518110610be457610be46144df565b6020908102919091010152600101610b8b565b505f610c048b8388610f9f565b159c979b50969950505050505050505050565b5f5f6001610c26868686610c9a565b91509150935093915050565b5f610c3b610af4565b6001600160a01b031663aaabadc56040518163ffffffff1660e01b8152600401602060405180830381865afa158015610c76573d5f5f3e3d5ffd5b505050506040513d601f19601f82011682018060405250810190610b18919061455f565b6001600160a01b0382165f9081526001602090815260408083208151808301909252546001600160401b038082168352600160401b90910416918101919091528180610ce8878787866110d4565b915091508115610d5f578251610d4e90610d2f906001600160401b0316670de0b6b3a76400008181039110028551610d29906001600160401b03168561454c565b9061153a565b8685602001516001600160401b0316610d48919061454c565b90611562565b610d589086614507565b9350610d63565b8493505b5050509392505050565b336001600160a01b037f00000000000000000000000000000000000000000000000000000000000000001614610dc1573360405163089676d560e01b8152600401610db8919061412f565b60405180910390fd5b565b5f610dcc610d6d565b610df6847f0000000000000000000000000000000000000000000000000000000000000000611440565b610e20847f00000000000000000000000000000000000000000000000000000000000000006114c9565b506001949350505050565b610e3481611582565b5f610e3e826115bd565b6001600160a01b0384165f818152600260205260409081902080546001600160801b0319166001600160801b03851617905551919250907fd30dbf6837456f1a37dae88165ddc54d6d55a21a3beeeac374f1cea2b084486090610ea290849061411b565b60405180910390a2505050565b610eb881611582565b5f610ec2826115bd565b6001600160a01b0384165f818152600260205260409081902080546001600160801b03808616600160801b02911617905551919250907f36ce2b1370e60ee748c7c060518fde097600a382a243bbfe2f7a168be6b6a72990610ea290849061411b565b6001600160a01b038116610f7657610f51610f4a5f356001600160e01b031916610a90565b33846115c7565b15155f03610f72576040516323dada5360e01b815260040160405180910390fd5b5050565b336001600160a01b03821614610f72576040516323dada5360e01b815260040160405180910390fd5b6001600160a01b0383165f8181526001602090815260408083208151808301835290546001600160401b038082168352600160401b9091041681840152848452600283528184208251808401845290546001600160801b038082168352600160801b90910416938101939093528151633df10cd160e11b81529151939490938592839291637be219a2916004808201926101c0929091908290030181865afa15801561104d573d5f5f3e3d5ffd5b505050506040513d601f19601f820116820180604052508101906110719190614389565b915091505f5f6110828985856116c1565b915091505f6110948a8685858a61172d565b90506110a18986866116c1565b90935091505f6110b48a8786868b61172d565b90506110c4885f01518383611841565b9c9b505050505050505050505050565b5f5f8383602001516001600160401b031610156110f557505f90508061140b565b5f5f866001600160a01b0316637be219a26040518163ffffffff1660e01b81526004016101c060405180830381865afa158015611134573d5f5f3e3d5ffd5b505050506040513d601f19601f820116820180604052508101906111589190614389565b915091505f5f5f6111738b61116c9061457a565b868661186e565b919450925090505f61118860408d018d614626565b90506001600160401b038111156111a1576111a16139a4565b6040519080825280602002602001820160405280156111ca578160200160208202803683370190505b5090506112156111dd60408e018e614626565b808060200260200160405190810160405280939291908181526020018383602002808284375f92019190915250859250611923915050565b5f61122360208e018e614672565b6001811115611234576112346144cb565b036112a1578b60200135818d6060013581518110611254576112546144df565b602002602001018181516112689190614507565b90525080518490829060808f0135908110611285576112856144df565b60200260200101818151611299919061454c565b905250611305565b83818d60600135815181106112b8576112b86144df565b602002602001018181516112cc9190614507565b905250805160208d013590829060808f01359081106112ed576112ed6144df565b60200260200101818151611301919061454c565b9052505b5f60025f8d6001600160a01b03166001600160a01b031681526020019081526020015f206040518060400160405290815f82015f9054906101000a90046001600160801b03166001600160801b03166001600160801b031681526020015f820160109054906101000a90046001600160801b03166001600160801b03166001600160801b03168152505090505f6113e18e80604001906113a59190614626565b808060200260200160405190810160405280939291908181526020018383602002808284375f920191909152508c92508991508890508661172d565b90506113f0838987878661172d565b98506114008b5f0151828b611841565b995050505050505050505b94509492505050565b670de0b6b3a764000081111561143d57604051631f3b85d360e01b815260040160405180910390fd5b50565b61144981611944565b6001600160a01b0383165f818152600160205260409081902080546001600160401b0394909416600160401b02600160401b600160801b03199094169390931790925590517fcc7585f1dd40a0def67658a884745a1eca326ed902fe084d36e9e04084212032906114bd9084815260200190565b60405180910390a25050565b6114d281611944565b6001600160a01b0383165f8181526001602090815260409182902080546001600160401b0319166001600160401b0395909516949094179093555183815290917f3b64afdb883fd4fa590572fb2db0b4d199d8ffb9703f5d32f4d87d1d468c026c91016114bd565b5f8061154e670de0b6b3a76400008561468d565b905061155a83826146b8565b949350505050565b5f8061156e838561468d565b905061155a670de0b6b3a7640000826146b8565b68056bc75e2d6310000081118061159f5750662386f26fc1000081105b1561143d5760405163450a9fed60e01b815260040160405180910390fd5b5f6105e28261194e565b5f7f00000000000000000000000000000000000000000000000000000000000000006001600160a01b031663aaabadc56040518163ffffffff1660e01b8152600401602060405180830381865afa158015611624573d5f5f3e3d5ffd5b505050506040513d601f19601f82011682018060405250810190611648919061455f565b6040516326f8aa2160e21b8152600481018690526001600160a01b03858116602483015284811660448301529190911690639be2a88490606401602060405180830381865afa15801561169d573d5f5f3e3d5ffd5b505050506040513d601f19601f8201168201806040525081019061155a91906146cb565b5f5f6116cb613947565b5f5f6116d8888888611966565b9150915060405180604001604052808260026116f491906146e6565b6116fe9085614715565b81526020018390529250611713878785611bde565b9450611720878785611ca1565b9350505050935093915050565b5f5f61173b87878787611d3b565b90505f61176161175c88604001518960600151611ea790919063ffffffff16565b611f26565b905061176d8188611f30565b9050808203611780575f92505050611838565b808210156117cd57865161179390611f26565b61179d908261454c565b84516001600160801b03166117b2848461454c565b6117bc919061468d565b6117c691906146b8565b9250611814565b806117db8860200151611f26565b6117e5919061454c565b60208501516001600160801b03166117fd838561454c565b611807919061468d565b61181191906146b8565b92505b670de0b6b3a764000083116118295782611833565b670de0b6b3a76400005b925050505b95945050505050565b5f815f0361185057505f610794565b828211801561155a5750506001600160401b03909216909111919050565b5f5f5f5f86606001515f1490505f5f61188c89604001518989611966565b915091505f60405180604001604052808360026118a991906146e6565b6118b39086614715565b815260200184905290505f8a5160018111156118d1576118d16144cb565b036118f8576118ec8a604001518b60200151868c8c86611f7e565b91985096509450611916565b61190e8a604001518b60200151868c8c8661203e565b919850965094505b5050505093509350939050565b81518151611932908290612128565b6020810260208401602084015e505050565b5f6105e282612148565b5f600160801b821061196257611962612158565b5090565b5f5f5f5f61198c875f8151811061197f5761197f6144df565b6020026020010151611f26565b6119a28860018151811061197f5761197f6144df565b9092509050697b426fab61f00de3639960221b6119bf8284614715565b13156119de57604051632da2a5e560e01b815260040160405180910390fd5b5f6119eb83838989612165565b90505f5f6119fb85858b8b6122c7565b915091505f821315611a2d57611a26611a158360026146e6565b611a20836001614715565b90612366565b9050611a57565b5f8113611a3e57633b9aca00611a54565b611a5461175c611a4d83611f26565b6005612424565b90505b806b012ced32a16a1b11e826288960261b611a80611a758789614715565b60808d015190612638565b611a8a919061473c565b611a949190614715565b611a9f906001614715565b611aaa9060146146e6565b90505f611aea6b012ced32a16a1b11e826288960261b611aca8c8c6126b9565b611ad49190614768565b6b012ced32a16a1b11e826288960261b906127b0565b90505f611b0c8284611afc8789614715565b611b069190614768565b906127f5565b9050611b1883836128c3565b60808c01519093506b012ced32a16a1b11e826288960261b906a0c097ce7bc90715b34b9f160241b90611b4b90806146e6565b611b55919061473c565b611b5f83856128c3565b611b6991906146e6565b611b749060286146e6565b611b7e919061473c565b611b889084614715565b611b93906001614715565b92506ab48e51940c76a45816e51f60251b611bae8483614715565b1315611bcd5760405163dc10196f60e01b815260040160405180910390fd5b9b919a509098505050505050505050565b60c08201516020830151515f918291611bf6916127b0565b90505f84602001515f015113611c3e57611c3981611c338760400151611c2d8960800151886020015161295a90919063ffffffff16565b9061295a565b906128c3565b611c63565b604085015160808601518451611c63928492611c3392611c5d91612638565b90612638565b9150611c97611c878560c001518660200151602001516127b090919063ffffffff16565b60608701518551611c3391612638565b6118389083614715565b60c08201518251515f918291611cb6916127b0565b8451519091505f13611ce957611ce481611c338760600151611c2d89608001518860200151611c2d90614787565b611d10565b611d10611cf582614787565b606087015160808801518651611c339291611c5d9190612638565b60c0850151855160200151919350611c9791611d2b916127b0565b60408701518551611c3391612638565b5f5f83865f81518110611d5057611d506144df565b6020026020010151611d629190614768565b90505f8387600181518110611d7957611d796144df565b6020026020010151611d8b9190614768565b90505f8660800151876060015183611da391906146e6565b6040890151611db290866146e6565b611dbc9190614768565b611dc6919061473c565b90505f670de0b6b3a7640000886040015184611de291906146e6565b60608a0151611df190876146e6565b611dfb9190614715565b611e05919061473c565b90505f8860800151896040015184611e1d91906146e6565b611e27919061473c565b60608a0151611e3790849061296e565b611e419190614715565b90505f89608001518a6060015185611e5991906146e6565b611e63919061473c565b60408b0151611e7390859061296e565b611e7d9190614768565b9050611e8c61175c8383611ea7565b9650611e98878b611f30565b9b9a5050505050505050505050565b5f815f03611ec857604051630a0c22c760e01b815260040160405180910390fd5b825f03611ed657505f6105e2565b5f611ee9670de0b6b3a7640000856146e6565b9050670de0b6b3a7640000611efe858361473c565b14611f1c5760405163e03f5d5760e01b815260040160405180910390fd5b61155a838261473c565b5f6105e2826129c0565b5f611f3d825f0151611f26565b831015611f56578151611f4f90611f26565b90506105e2565b611f638260200151611f26565b831115611f7757611f4f8260200151611f26565b5090919050565b5f5f5f61395f5f5f8915611f9c57506129d991505f90506001611fa8565b50612a3f9150600190505f5b5f611fd48c8e8560ff1681518110611fc257611fc26144df565b602002602001015161175c9190614507565b9050611fe38a8a8a8487612abb565b5f611ff4828c8c8c8963ffffffff16565b9098509650905061200481611f26565b8e8460ff1681518110612019576120196144df565b602002602001015161202b919061454c565b9750505050505096509650969350505050565b5f5f5f61395f5f5f891561205c5750612a3f91505f90506001612068565b506129d99150600190505f5b8b8160ff168151811061207d5761207d6144df565b60200260200101518b11156120a5576040516301dd20c360e11b815260040160405180910390fd5b5f6120d18c8e8460ff16815181106120bf576120bf6144df565b602002602001015161175c919061454c565b90505f6120e4828c8c8c8963ffffffff16565b909850965090506120f88b8b8b8488612abb565b8d8460ff168151811061210d5761210d6144df565b602002602001015161211e82611f26565b61202b919061454c565b808214610f725760405163aaad13f760e01b815260040160405180910390fd5b5f600160401b8210611962576119625b6335278d125f526004601cfd5b60c08101515f9081906121789080612b63565b90505f6121bd826121b787608001518760a001516121a78a608001518a60800151612b7e90919063ffffffff16565b6121b19190614715565b90612b7e565b906127b0565b90506121ea816121da87606001518961295a90919063ffffffff16565b6040880151611afc908b9061295a565b92505f61220c8660400151611c2d88608001518a61295a90919063ffffffff16565b61222b8760600151611c2d89608001518c61295a90919063ffffffff16565b6122359190614715565b90506122586122518487604001516127b090919063ffffffff16565b82906127f5565b6122629085614715565b935061227b86604001518861295a90919063ffffffff16565b606087015161228b908a9061295a565b6122959190614715565b90506122b16122518487606001516127b090919063ffffffff16565b6122bb9085614715565b98975050505050505050565b5f5f6122d586868686612bb2565b6122e187878787612cff565b6122eb9190614715565b91506122f986868686612e45565b6123039083614715565b91506b012ced32a16a1b11e826288960261b61231f8680612638565b6123298880612638565b6123339190614715565b61233d919061473c565b90505f821361234c575f61235b565b61235b61175c611a4d84611f26565b915094509492505050565b5f815f0361238757604051630a0c22c760e01b815260040160405180910390fd5b825f0361239557505f6105e2565b5f8212156123b4576123a682614787565b91506123b183614787565b92505b5f8313156123f0578160016123d1670de0b6b3a7640000866146e6565b6123db9190614768565b6123e5919061473c565b611f4f906001614715565b600182612405670de0b6b3a7640000866146e6565b612410906001614715565b61241a919061473c565b6107949190614768565b5f825f0361243357505f6105e2565b5f61243d84612f78565b9050600281612454670de0b6b3a76400008761468d565b61245e91906146b8565b6124689083614507565b61247291906146b8565b9050600281612489670de0b6b3a76400008761468d565b61249391906146b8565b61249d9083614507565b6124a791906146b8565b90506002816124be670de0b6b3a76400008761468d565b6124c891906146b8565b6124d29083614507565b6124dc91906146b8565b90506002816124f3670de0b6b3a76400008761468d565b6124fd91906146b8565b6125079083614507565b61251191906146b8565b9050600281612528670de0b6b3a76400008761468d565b61253291906146b8565b61253c9083614507565b61254691906146b8565b905060028161255d670de0b6b3a76400008761468d565b61256791906146b8565b6125719083614507565b61257b91906146b8565b9050600281612592670de0b6b3a76400008761468d565b61259c91906146b8565b6125a69083614507565b6125b091906146b8565b90505f6125bd8280611562565b90506125c9828561314f565b6125d39086614507565b81111580156125f557506125e7828561314f565b6125f1908661454c565b8110155b6126305760405162461bcd60e51b815260206004820152600c60248201526b17dcdc5c9d0811905253115160a21b6044820152606401610db8565b509392505050565b5f8061264483856146e6565b90505f81131561267f57670de0b6b3a7640000612662600183614768565b61266c919061473c565b612677906001614715565b9150506105e2565b5f8112156126b0576001670de0b6b3a764000061269c8383614715565b6126a6919061473c565b6126779190614768565b505f9392505050565b60c08101515f9081906126d6906126d08180612b63565b90612b63565b90506127036126f8826121b78660600151876040015160026126d091906146e6565b608086015190612638565b915061273d8460800151611c5d8660800151611c5d856121b78960400151600161272d9190614715565b60408b01516126d0906001614715565b6127479083614715565b606084015190925061275f9082906121b79080612b63565b6127699083614715565b91505f8360a0015161278c8660800151866080015161236690919063ffffffff16565b6127969190614715565b90506127a6826121b78380612b63565b6118389084614715565b5f815f036127d157604051630a0c22c760e01b815260040160405180910390fd5b816127eb6b012ced32a16a1b11e826288960261b856146e6565b610794919061473c565b5f80612809678ac7230489e800008461473c565b90505f61281e678ac7230489e80000856147a1565b90505f61282b83876146e6565b90505f61283883886146e6565b90505f821215801561284a57505f8112155b612891576001678ac7230489e80000612863818461473c565b61286d9085614715565b612878906001614715565b612882919061473c565b61288c9190614768565b6128b8565b678ac7230489e800006128a4818361473c565b6128ae9084614715565b6128b8919061473c565b979650505050505050565b5f806128d7678ac7230489e800008461473c565b90505f6128ec678ac7230489e80000856147a1565b90505f6128f983876146e6565b90505f61290683886146e6565b90505f821315801561291857505f8113155b61289157678ac7230489e800006001612931828461473c565b61293b9085614715565b6129459190614768565b61294f919061473c565b61288c906001614715565b5f670de0b6b3a76400006127eb83856146e6565b5f8061297a83856146e6565b905083158061299157508261298f858361473c565b145b6129ae5760405163066f361360e11b815260040160405180910390fd5b61155a670de0b6b3a76400008261473c565b5f5f82126129cc575090565b6129d4612158565b919050565b5f5f5f6129e7868686611bde565b91506129f4868686611ca1565b90505f6040518060400160405280848152602001838152509050612a3287608001518989606001518a6040015189868c602001518d60c0015161317b565b9350509450945094915050565b5f5f5f612a4d868686611bde565b9150612a5a868686611ca1565b90505f6040518060400160405280838152602001848152509050612a3287608001518989604001518a60600151898660405180604001604052808e5f01515f0151612aa490614787565b81528e5160209081015191015260c08e015161317b565b8060ff165f03612b13575f612ad1868686613445565b9050697b426fab61f00de3639960221b8313158015612af05750808313155b612b0d576040516301dd20c360e11b815260040160405180910390fd5b506108a2565b5f612b1f8686866134fd565b9050697b426fab61f00de3639960221b8313158015612b3e5750808313155b612b5b576040516301dd20c360e11b815260040160405180910390fd5b505050505050565b5f6b012ced32a16a1b11e826288960261b6127eb83856146e6565b5f815f03612b9f57604051630a0c22c760e01b815260040160405180910390fd5b816127eb670de0b6b3a7640000856146e6565b5f5f612bee8460600151611c2d86604001516002612bd091906146e6565b612bda8980612638565b612be48b8061295a565b611c2d9190614768565b90505f612c06612bff8860026146e6565b879061295a565b6060860151909150612c1c90611c2d838261295a565b6040860151612c2f90611c2d848261295a565b612c399084614715565b612c439190614768565b91505f612c7186608001516121b188608001516121b189606001518a60800151612b6390919063ffffffff16565b604086015160a0870151612c8491612b63565b612c8e9190614715565b9050612cc68660800151612cb387606001518860a00151612b6390919063ffffffff16565b604088015160808901516121a791612b63565b612cd09082614715565b60c0860151909150612cf390612cec906126d081818180612b63565b82906127b0565b90506122bb83826127f5565b60608201515f908190612d1890611c5d81818980612638565b6040850151612d2d90611c5d81818b80612638565b612d379190614715565b9050612d5f8460600151611c2d86604001516002612d5591906146e6565b611c2d8a8a61295a565b612d699082614768565b608085015160608501519192505f91612d8b91906121b1908290829080612b63565b612dac86608001516121b18760600151886040015160026126d091906146e6565b6040860151612dbb9080612b63565b612dc59190614715565b612dcf9190614715565b60c0850151909150612deb90612cec906126d081818180612b63565b9050612dfa81611b0684614787565b9250612e3b612e258560c001516b012ced32a16a1b11e826288960261b6127b090919063ffffffff16565b6080870151611b06906121b18181600989614768565b6128b89084614715565b60408201515f908190612e5e90611c5d81818980612638565b6060850151612e7390611c5d81818b80612638565b612e7d9190614715565b9050612ea58460400151611c5d86606001516002612e9b91906146e6565b611c5d8a8a612638565b612eaf9082614715565b608080860151908501519192505f91612ed191906121b1908290829080612b63565b60a0850151612ee09080612b63565b612eea9190614715565b9050612f0d85608001516121b186608001518760a0015160026126d091906146e6565b612f179082614715565b60c0850151909150612f3390612cec906126d081818180612b63565b9050612f4281611b0684614787565b9250612e3b612f6d8560c001516b012ced32a16a1b11e826288960261b6127b090919063ffffffff16565b611b06600985614768565b5f670de0b6b3a76400008210612fb157670de0b6b3a7640000612fa3612f9e82856146b8565b61359c565b6001901b6105e2919061468d565b600a8211612fc4575063bc7c871c919050565b60648211612fd857506402540be400919050565b6103e88211612fed575064075cdd4719919050565b6127108211613002575064174876e800919050565b620186a0821161301857506449a0a4c700919050565b620f4240821161302e575064e8d4a51000919050565b62989680821161304557506502e0466fc608919050565b6305f5e100821161305d57506509184e72a000919050565b633b9aca0082116130755750651cc2c05dbc53919050565b6402540be400821161308e5750655af3107a4000919050565b64174876e80082116130a8575066011f9b83a95b45919050565b64e8d4a5100082116130c2575066038d7ea4c68000919050565b6509184e72a00082116130dd5750660b3c13249d90bb919050565b655af3107a400082116130f85750662386f26fc10000919050565b66038d7ea4c6800082116131145750667058bf6e27a751919050565b662386f26fc100008211613131575067016345785d8a0000919050565b67016345785d8a000082116119625750670463777a4d8c892d919050565b5f8061315b838561468d565b90506001670de0b6b3a76400006001830304018115150291505092915050565b5f613184613947565b6131a18a6121b16b012ced32a16a1b11e826288960261b82612b7e565b6131ba906b012ced32a16a1b11e826288960261b614768565b81526131d98a611a206b012ced32a16a1b11e826288960261b82612366565b6131f2906b012ced32a16a1b11e826288960261b614768565b60208201526131ff613967565b85515f9061320d908c614768565b90505f8113156132435760208301516132399061322a90876127b0565b611c338b611c2d8e8187614787565b6020830152613273565b825161326d9061325390876127b0565b61325e906001614715565b611c338b611c5d8e8187614787565b60208301525b61327b613947565b61329a866121b78d611c2d8f896020015161295a90919063ffffffff16565b815283516132a8908c612638565b60208201526132ca6132bb876001614715565b60208301516121b7908e612638565b6132d5906001614715565b60208201526040805180820190915281518190613301906b012ced32a16a1b11e826288960261b614768565b815260200182602001516b012ced32a16a1b11e826288960261b6133259190614768565b905290506133388c8a8f8e8e8c8c613671565b61334190614787565b6040840152602080820151908a015161335f9190611b06908061295a565b836040015161336e9190614715565b604084018190525f12613381575f613394565b61339461175c611a4d8560400151611f26565b6040840181905260208401515f916133ab91614768565b1315613400576133f96133da82602001516b012ced32a16a1b11e826288960261b6127b090919063ffffffff16565b6133e5906001614715565b84604001518560200151611c339190614768565b8352613423565b8051613420906133e5906b012ced32a16a1b11e826288960261b906127b0565b83525b602088015183516134349190614715565b9d9c50505050505050505050505050565b60c08201518251516020840151515f928392613465926121b79190614768565b90505f61348b8560c00151865f0151602001518760200151602001516121b79190614768565b90506134b482611b068860400151611c2d8a60800151896020015161295a90919063ffffffff16565b92506134e9815f83136134d657606088015186516134d191612638565b611b06565b60608801516020870151611b069161295a565b6134f39084614715565b9695505050505050565b60c08201518251516020840151515f92839261351d926121b79190614768565b90505f6135438560c00151866020015160200151875f0151602001516121b79190614768565b905061356c82611b068860600151611c2d8a60800151896020015161295a90919063ffffffff16565b92506134e9815f831361358957604088015186516134d191612638565b60408801516020870151611b069161295a565b5f600160801b82106135bd5760809190911c906135ba604082614507565b90505b600160401b82106135dd5760409190911c906135da602082614507565b90505b600160201b82106135fd5760209190911c906135fa601082614507565b90505b62010000821061361c5760109190911c90613619600882614507565b90505b610100821061363a5760089190911c90613637600482614507565b90505b601082106136575760049190911c90613654600282614507565b90505b600482106129d45760029190911c906105e2600182614507565b5f5f60405180604001604052806136918586612b6390919063ffffffff16565b815289516020909101906136a59080612638565b905290506136b1613967565b8151602086015186515f926136cb9290916121b791612b63565b90505f811315613711576136ee6136e38960026146e6565b602085015190612638565b825261370a6136fe826007614715565b8351611c33908a612638565b8252613744565b61372e61371f8960026146e6565b60208c0151611c2d908061295a565b808352613741908290611c33908a61295a565b82525b85515f131561379f5785516137959061375d90876127b0565b61376690614787565b613771906003614715565b611c3361377f8a60026146e6565b611c5d8f8f5f015161263890919063ffffffff16565b60208301526137d5565b85516137cf906137af90876127b0565b611c336137bd8a60026146e6565b611c2d8f8f60200151611c2d90614787565b60208301525b602082015182516137e69190614715565b8252825160208701516137fe91906121b79080612b63565b613809906007614715565b602084015190915061381b9089612638565b60208301819052613832908290611c33908b612638565b60208084019190915286015161385a9061384c90876127b0565b611c336137bd8b60026146e6565b60408301526138698b80612638565b8260400151836020015161387d9190614715565b6138879190614715565b602083018190525f126138a85760208201516138a3908a612b7e565b6138b7565b60208201516138b7908a612366565b6020830181905282516138ca9190614715565b8083525f126138e45781516138df908a612b7e565b6138f0565b81516138f0908a612366565b82528251865161390591906121b79080612b63565b613910906007614715565b90505f61392e88611c5d8a876020015161263890919063ffffffff16565b835190915061393d82846128c3565b6110c49190614715565b60405180604001604052805f81526020015f81525090565b610dc16147b4565b60405180606001604052805f81526020015f81526020015f81525090565b6001600160a01b038116811461143d575f5ffd5b80356129d481613985565b634e487b7160e01b5f52604160045260245ffd5b604051608081016001600160401b03811182821017156139da576139da6139a4565b60405290565b60405160a081016001600160401b03811182821017156139da576139da6139a4565b60405160e081016001600160401b03811182821017156139da576139da6139a4565b604051601f8201601f191681016001600160401b0381118282101715613a4c57613a4c6139a4565b604052919050565b5f6001600160401b03821115613a6c57613a6c6139a4565b5060051b60200190565b6002811061143d575f5ffd5b80356129d481613a76565b801515811461143d575f5ffd5b5f60808284031215613aaa575f5ffd5b50919050565b5f5f5f5f60e08587031215613ac3575f5ffd5b8435613ace81613985565b93506020850135613ade81613985565b925060408501356001600160401b03811115613af8575f5ffd5b8501601f81018713613b08575f5ffd5b8035613b1b613b1682613a54565b613a24565b8082825260208201915060208360071b850101925089831115613b3c575f5ffd5b6020840193505b82841015613bbc576080848b031215613b5a575f5ffd5b613b626139b8565b8435613b6d81613985565b81526020850135613b7d81613a76565b60208201526040850135613b9081613985565b60408201526060850135613ba381613a8d565b6060820152825260809390930192602090910190613b43565b80955050505050613bd08660608701613a9a565b905092959194509250565b5f60208284031215613beb575f5ffd5b81356001600160401b03811115613c00575f5ffd5b82016101808185031215610794575f5ffd5b5f60208284031215613c22575f5ffd5b813561079481613985565b5f82601f830112613c3c575f5ffd5b8135613c4a613b1682613a54565b8082825260208201915060208360051b860101925085831115613c6b575f5ffd5b602085015b838110156107e7578035835260209283019201613c70565b5f82601f830112613c97575f5ffd5b81356001600160401b03811115613cb057613cb06139a4565b613cc3601f8201601f1916602001613a24565b818152846020838601011115613cd7575f5ffd5b816020850160208301375f918101602001919091529392505050565b5f5f60408385031215613d04575f5ffd5b82356001600160401b03811115613d19575f5ffd5b613d2585828601613c2d565b92505060208301356001600160401b03811115613d40575f5ffd5b613d4c85828601613c88565b9150509250929050565b5f5f60408385031215613d67575f5ffd5b8235613d7281613985565b946020939093013593505050565b8035600481106129d4575f5ffd5b5f5f5f5f5f5f5f5f610100898b031215613da6575f5ffd5b613daf89613999565b9750613dbd60208a01613999565b9650613dcb60408a01613d80565b95506060890135945060808901356001600160401b03811115613dec575f5ffd5b613df88b828c01613c2d565b94505060a08901356001600160401b03811115613e13575f5ffd5b613e1f8b828c01613c2d565b93505060c08901356001600160401b03811115613e3a575f5ffd5b613e468b828c01613c2d565b92505060e08901356001600160401b03811115613e61575f5ffd5b613e6d8b828c01613c88565b9150509295985092959890939650565b5f604082018415158352604060208401528084518083526060850191506020860192505f5b81811015613ec0578351835260209384019390920191600101613ea2565b50909695505050505050565b5f5f5f60608486031215613ede575f5ffd5b83356001600160401b03811115613ef3575f5ffd5b613eff86828701613c2d565b9350506020840135915060408401356001600160401b03811115613f21575f5ffd5b613f2d86828701613c88565b9150509250925092565b5f60e08284031215613aaa575f5ffd5b5f5f5f60608486031215613f59575f5ffd5b83356001600160401b03811115613f6e575f5ffd5b613f7a86828701613f37565b9350506020840135613f8b81613985565b929592945050506040919091013590565b8035600581106129d4575f5ffd5b5f5f5f5f5f5f5f60e0888a031215613fc0575f5ffd5b8735613fcb81613985565b9650613fd960208901613999565b9550613fe760408901613f9c565b945060608801356001600160401b03811115614001575f5ffd5b61400d8a828b01613c2d565b9450506080880135925060a08801356001600160401b0381111561402f575f5ffd5b61403b8a828b01613c2d565b92505060c08801356001600160401b03811115614056575f5ffd5b6140628a828b01613c88565b91505092959891949750929550565b5f5f60408385031215614082575f5ffd5b82356001600160401b03811115614097575f5ffd5b6140a385828601613f37565b92505060208301356140b481613985565b809150509250929050565b602081525f82518060208401528060208501604085015e5f604082850101526040601f19601f83011684010191505092915050565b5f60208284031215614104575f5ffd5b81356001600160e01b031981168114610794575f5ffd5b6001600160801b0391909116815260200190565b6001600160a01b0391909116815260200190565b5f5f5f5f5f5f5f5f610100898b03121561415b575f5ffd5b61416489613999565b975061417260208a01613999565b965061418060408a01613f9c565b955060608901356001600160401b0381111561419a575f5ffd5b6141a68b828c01613c2d565b95505060808901356001600160401b038111156141c1575f5ffd5b6141cd8b828c01613c2d565b94505060a0890135925060c08901356001600160401b03811115613e3a575f5ffd5b5f5f5f5f5f5f5f60e0888a031215614205575f5ffd5b873561421081613985565b965061421e60208901613999565b955061422c60408901613d80565b94506060880135935060808801356001600160401b0381111561424d575f5ffd5b6142598a828b01613c2d565b93505060a08801356001600160401b0381111561402f575f5ffd5b81511515815261014081016020830151614292602084018215159052565b5060408301516142a6604084018215159052565b5060608301516142ba606084018215159052565b5060808301516142ce608084018215159052565b5060a08301516142e260a084018215159052565b5060c08301516142f660c084018215159052565b5060e083015161430a60e084018215159052565b5061010083015161432061010084018215159052565b5061012083015161433661012084018215159052565b5092915050565b5f6040828403121561434d575f5ffd5b604080519081016001600160401b038111828210171561436f5761436f6139a4565b604052825181526020928301519281019290925250919050565b5f5f8284036101c081121561439c575f5ffd5b60a08112156143a9575f5ffd5b6143b16139e0565b84518152602080860151908201526040808601519082015260608086015190820152608080860151908201529250610120609f19820112156143f1575f5ffd5b506143fa613a02565b6144078560a0860161433d565b81526144168560e0860161433d565b602082015261012084015160408201526101408401516060820152610160840151608082015261018084015160a08201526101a09093015160c08401525092909150565b5f606082840312801561446b575f5ffd5b50604051606081016001600160401b038111828210171561448e5761448e6139a4565b604052825161449c81613985565b815260208301516144ac81613985565b602082015260408301516144bf81613985565b60408201529392505050565b634e487b7160e01b5f52602160045260245ffd5b634e487b7160e01b5f52603260045260245ffd5b634e487b7160e01b5f52601160045260245ffd5b808201808211156105e2576105e26144f3565b600181811c9082168061452e57607f821691505b602082108103613aaa57634e487b7160e01b5f52602260045260245ffd5b818103818111156105e2576105e26144f3565b5f6020828403121561456f575f5ffd5b815161079481613985565b5f60e0823603121561458a575f5ffd5b614592613a02565b61459b83613a82565b81526020838101359082015260408301356001600160401b038111156145bf575f5ffd5b6145cb36828601613c2d565b60408301525060608381013590820152608080840135908201526145f160a08401613999565b60a082015260c08301356001600160401b0381111561460e575f5ffd5b61461a36828601613c88565b60c08301525092915050565b5f5f8335601e1984360301811261463b575f5ffd5b8301803591506001600160401b03821115614654575f5ffd5b6020019150600581901b360382131561466b575f5ffd5b9250929050565b5f60208284031215614682575f5ffd5b813561079481613a76565b80820281158282048414176105e2576105e26144f3565b634e487b7160e01b5f52601260045260245ffd5b5f826146c6576146c66146a4565b500490565b5f602082840312156146db575f5ffd5b815161079481613a8d565b8082025f8212600160ff1b84141615614701576147016144f3565b81810583148215176105e2576105e26144f3565b8082018281125f831280158216821582161715614734576147346144f3565b505092915050565b5f8261474a5761474a6146a4565b600160ff1b82145f1984141615614763576147636144f3565b500590565b8181035f831280158383131683831282161715614336576143366144f3565b5f600160ff1b820161479b5761479b6144f3565b505f0390565b5f826147af576147af6146a4565b500790565b634e487b7160e01b5f52605160045260245ffdfea2646970667358221220e6983a05dc05e8de672b719f81195530aaa590810148b969d99c2b89df7af79764736f6c634300081e0033","linkReferences":{}},"methodIdentifiers":{"MAX_IMBALANCE_SLOPE()":"872aabd5","MIN_IMBALANCE_SLOPE()":"bcf5a6c3","computeSwapSurgeFeePercentage((uint8,uint256,uint256[],uint256,uint256,address,bytes),address,uint256)":"c88511a2","getActionId(bytes4)":"851c1bb3","getAuthorizer()":"aaabadc5","getDefaultMaxSurgeFeePercentage()":"c17ef2cc","getDefaultSurgeThresholdPercentage()":"8bc694ad","getHookFlags()":"d77153a7","getImbalanceSlopes(address)":"f253345f","getMaxSurgeFeePercentage(address)":"1a4a64be","getSurgeThresholdPercentage(address)":"e2381602","getVault()":"8d928af8","isSurgingSwap((uint8,uint256,uint256[],uint256,uint256,address,bytes),address,uint256)":"3a61bdea","onAfterAddLiquidity(address,address,uint8,uint256[],uint256[],uint256,uint256[],bytes)":"976907cc","onAfterInitialize(uint256[],uint256,bytes)":"38be241d","onAfterRemoveLiquidity(address,address,uint8,uint256,uint256[],uint256[],uint256[],bytes)":"2754888d","onAfterSwap((uint8,address,address,uint256,uint256,uint256,uint256,uint256,uint256,address,address,bytes))":"18b6eb55","onBeforeAddLiquidity(address,address,uint8,uint256[],uint256,uint256[],bytes)":"45421ec7","onBeforeInitialize(uint256[],bytes)":"1c149e28","onBeforeRemoveLiquidity(address,address,uint8,uint256,uint256[],uint256[],bytes)":"ba5f9f40","onBeforeSwap((uint8,uint256,uint256[],uint256,uint256,address,bytes),address)":"5211fa77","onComputeDynamicSwapFeePercentage((uint8,uint256,uint256[],uint256,uint256,address,bytes),address,uint256)":"a0e8f5ac","onRegister(address,address,(address,uint8,address,bool)[],(bool,bool,bool,bool))":"0b89f182","setImbalanceSlopeAbovePeak(address,uint256)":"1fcb3b55","setImbalanceSlopeBelowPeak(address,uint256)":"6073d344","setMaxSurgeFeePercentage(address,uint256)":"4e493cfd","setSurgeThresholdPercentage(address,uint256)":"59f00466","version()":"54fd4d50"},"id":853}