{"abi":[{"type":"constructor","inputs":[{"name":"vault","type":"address","internalType":"contract IVault"},{"name":"router","type":"address","internalType":"contract IRouter"}],"stateMutability":"nonpayable"},{"type":"function","name":"calculateAddLiquidityUnbalancedPriceImpact","inputs":[{"name":"pool","type":"address","internalType":"address"},{"name":"exactAmountsIn","type":"uint256[]","internalType":"uint256[]"},{"name":"sender","type":"address","internalType":"address"}],"outputs":[{"name":"priceImpact","type":"uint256","internalType":"uint256"}],"stateMutability":"nonpayable"},{"type":"function","name":"callAndRevertHook","inputs":[{"name":"target","type":"address","internalType":"address"},{"name":"data","type":"bytes","internalType":"bytes"}],"outputs":[],"stateMutability":"nonpayable"},{"type":"function","name":"maxNegativeIndex","inputs":[{"name":"array","type":"int256[]","internalType":"int256[]"}],"outputs":[{"name":"","type":"uint256","internalType":"uint256"}],"stateMutability":"pure"},{"type":"function","name":"minPositiveIndex","inputs":[{"name":"array","type":"int256[]","internalType":"int256[]"}],"outputs":[{"name":"","type":"uint256","internalType":"uint256"}],"stateMutability":"pure"},{"type":"function","name":"queryAddLiquidityUnbalancedForTokenDeltas","inputs":[{"name":"pool","type":"address","internalType":"address"},{"name":"tokenIndex","type":"uint256","internalType":"uint256"},{"name":"deltas","type":"int256[]","internalType":"int256[]"},{"name":"sender","type":"address","internalType":"address"}],"outputs":[{"name":"deltaBPT","type":"int256","internalType":"int256"}],"stateMutability":"nonpayable"},{"type":"function","name":"zeroOutDeltas","inputs":[{"name":"pool","type":"address","internalType":"address"},{"name":"deltas","type":"int256[]","internalType":"int256[]"},{"name":"deltaBPTs","type":"int256[]","internalType":"int256[]"},{"name":"sender","type":"address","internalType":"address"}],"outputs":[{"name":"","type":"uint256","internalType":"uint256"}],"stateMutability":"nonpayable"},{"type":"error","name":"AddressEmptyCode","inputs":[{"name":"target","type":"address","internalType":"address"}]},{"type":"error","name":"ErrorSelectorNotFound","inputs":[]},{"type":"error","name":"FailedCall","inputs":[]},{"type":"error","name":"QuoteResultSpoofed","inputs":[]},{"type":"error","name":"Result","inputs":[{"name":"result","type":"bytes","internalType":"bytes"}]}],"bytecode":{"object":"0x60c060405234801561000f575f5ffd5b5060405161143338038061143383398101604081905261002e9161005c565b6001600160a01b039182166080521660a052610094565b6001600160a01b0381168114610059575f5ffd5b50565b5f5f6040838503121561006d575f5ffd5b825161007881610045565b602084015190925061008981610045565b809150509250929050565b60805160a0516113696100ca5f395f818161076c0152818161082901528181610a230152610a8601525f61050901526113695ff3fe608060405234801561000f575f5ffd5b5060043610610060575f3560e01c806301ef39ee146100645780630d4277d1146100895780633b064ca31461009c57806348406a54146100af578063a7699638146100c2578063e3a50d82146100d7575b5f5ffd5b610077610072366004610d07565b6100ea565b60405190815260200160405180910390f35b610077610097366004610d07565b6100fa565b6100776100aa366004610d57565b610104565b6100776100bd366004610dde565b61011c565b6100d56100d0366004610eb7565b6102f9565b005b6100776100e5366004610f3e565b6103d9565b5f6100f4826103e6565b92915050565b5f6100f48261046b565b5f610111858585856104ec565b90505b949350505050565b5f5f610129858585610766565b90505f6101378683866107f2565b90505f85516001600160401b0381111561015357610153610c37565b60405190808252806020026020018201604052801561017c578160200160208202803683370190505b5090505f5b86518110156101f0576101ac87828151811061019f5761019f610f7d565b602002602001015161086d565b6101c184838151811061019f5761019f610f7d565b6101cb9190610fa5565b8282815181106101dd576101dd610f7d565b6020908102919091010152600101610181565b505f86516001600160401b0381111561020b5761020b610c37565b604051908082528060200260200182016040528015610234578160200160208202803683370190505b5090505f5b87518110156102735761024e8982858a610877565b82828151811061026057610260610f7d565b6020908102919091010152600101610239565b505f6102818984848a6104ec565b90505f6102af84838151811061029957610299610f7d565b60200260200101516102aa90610fcb565b61086d565b905060026102df8a84815181106102c8576102c8610f7d565b60200260200101518361095290919063ffffffff16565b6102e99190610fe5565b96505050505050505b9392505050565b5f5f836001600160a01b0316836040516103139190611004565b5f604051808303815f865af19150503d805f811461034c576040519150601f19603f3d011682016040523d82523d5f602084013e610351565b606091505b5091509150811561038c57610367338383610972565b5080604051630b56c9f760e31b81526004016103839190611048565b60405180910390fd5b5f610396826109c5565b90506314a9360960e31b6001600160e01b03198216016103c9576040516328f9554160e01b815260040160405180910390fd5b6103d2826109f1565b5050505050565b5f61011185858585610877565b5f600160ff1b815b8351811015610464575f84828151811061040a5761040a610f7d565b602002602001015112801561043757508184828151811061042d5761042d610f7d565b6020026020010151135b1561045c5783818151811061044e5761044e610f7d565b602002602001015191508092505b6001016103ee565b5050919050565b5f6001600160ff1b03815b8351811015610464575f84828151811061049257610492610f7d565b60200260200101511380156104bf5750818482815181106104b5576104b5610f7d565b6020026020010151125b156104e4578381815181106104d6576104d6610f7d565b602002602001015191508092505b600101610476565b60405163ca4f280360e01b81525f90819081906001600160a01b037f0000000000000000000000000000000000000000000000000000000000000000169063ca4f28039061053e908a9060040161105a565b5f60405180830381865afa158015610558573d5f5f3e3d5ffd5b505050506040513d5f823e601f3d908101601f1916820160405261057f919081019061106e565b90505f5b6001875161059191906110fd565b81101561075a575f6105a28761046b565b90506105ad876103e6565b93505f5f5f8987815181106105c4576105c4610f7d565b60200260200101516105d590610fcb565b8a85815181106105e7576105e7610f7d565b602002602001015112156106555783925086915061064e8c87858151811061061157610611610f7d565b602002602001015188858151811061062b5761062b610f7d565b60200260200101516106488f888151811061019f5761019f610f7d565b8d610a1d565b90506106b1565b8692508391506106ae8c87848151811061067157610671610f7d565b602002602001015188868151811061068b5761068b610f7d565b60200260200101516106a88f888151811061029957610299610f7d565b8d610a80565b90505b5f8b84815181106106c4576106c4610f7d565b6020026020010181815250505f8a84815181106106e3576106e3610f7d565b6020026020010181815250506106f88161086d565b8b838151811061070a5761070a610f7d565b6020026020010181815161071e9190611110565b90525061072d8c838d8c610877565b8a838151811061073f5761073f610f7d565b60209081029190910101525050600190920191506105839050565b50909695505050505050565b5f6107df7f000000000000000000000000000000000000000000000000000000000000000063da001f7d60e01b8686866040516024016107a893929190611137565b60408051601f198184030181529190526020810180516001600160e01b03166001600160e01b031990931692909217909152610ac6565b80602001905181019061011491906111aa565b6040516001600160a01b0380851660248301526044820184905282166064820152608060848201525f60a482015260609061085a907f0000000000000000000000000000000000000000000000000000000000000000906301ee211160e31b9060c4016107a8565b80602001905181019061011491906111c1565b5f6100f482610b97565b5f5f83516001600160401b0381111561089257610892610c37565b6040519080825280602002602001820160405280156108bb578160200160208202803683370190505b5090505f8486815181106108d1576108d1610f7d565b60200260200101519050805f036108ec575f92505050610114565b5f8113610901576108fc81610fcb565b610903565b805b82878151811061091557610915610f7d565b6020026020010181815250505f61092d888487610766565b90505f82136109445761093f81610fcb565b610946565b805b98975050505050505050565b5f80610966670de0b6b3a764000085611247565b90506101148382610fe5565b6060826109875761098282610bb0565b6102f2565b815115801561099e57506001600160a01b0384163b155b156109be5783604051639996b31560e01b8152600401610383919061105a565b50806102f2565b5f6004825110156109e95760405163a728568960e01b815260040160405180910390fd5b506020015190565b805115610a015780518082602001fd5b60405163a728568960e01b815260040160405180910390fd5b50565b5f610a637f0000000000000000000000000000000000000000000000000000000000000000633ebc54e560e01b88888888886040516024016107a895949392919061125e565b806020019051810190610a7691906111aa565b9695505050505050565b5f610a637f000000000000000000000000000000000000000000000000000000000000000063175d440860e01b88888888886040516024016107a895949392919061125e565b6040516314ed32c760e31b8152606090309063a769963890610aee908690869060040161129c565b5f604051808303815f87803b158015610b05575f5ffd5b505af1925050508015610b16575060015b610b5a573d808015610b43576040519150601f19603f3d011682016040523d82523d5f602084013e610b48565b606091505b50610b5281610bd9565b9150506100f4565b60405162461bcd60e51b8152602060048201526012602482015271556e6578706563746564207375636365737360701b6044820152606401610383565b5f5f8212610ba3575090565b610bab610c2a565b919050565b805115610bc05780518082602001fd5b60405163d6bda27560e01b815260040160405180910390fd5b60605f610be5836109c5565b90506001600160e01b03198116630b56c9f760e31b14610c0857610c08836109f1565b82516003198101600485019081529361011490828101602001906024016112bf565b6335278d125f526004601cfd5b634e487b7160e01b5f52604160045260245ffd5b604051601f8201601f191681016001600160401b0381118282101715610c7357610c73610c37565b604052919050565b5f6001600160401b03821115610c9357610c93610c37565b5060051b60200190565b5f82601f830112610cac575f5ffd5b8135610cbf610cba82610c7b565b610c4b565b8082825260208201915060208360051b860101925085831115610ce0575f5ffd5b602085015b83811015610cfd578035835260209283019201610ce5565b5095945050505050565b5f60208284031215610d17575f5ffd5b81356001600160401b03811115610d2c575f5ffd5b61011484828501610c9d565b6001600160a01b0381168114610a1a575f5ffd5b8035610bab81610d38565b5f5f5f5f60808587031215610d6a575f5ffd5b8435610d7581610d38565b935060208501356001600160401b03811115610d8f575f5ffd5b610d9b87828801610c9d565b93505060408501356001600160401b03811115610db6575f5ffd5b610dc287828801610c9d565b9250506060850135610dd381610d38565b939692955090935050565b5f5f5f60608486031215610df0575f5ffd5b8335610dfb81610d38565b925060208401356001600160401b03811115610e15575f5ffd5b8401601f81018613610e25575f5ffd5b8035610e33610cba82610c7b565b8082825260208201915060208360051b850101925088831115610e54575f5ffd5b6020840193505b82841015610e76578335825260209384019390910190610e5b565b9450610e889250505060408501610d4c565b90509250925092565b5f6001600160401b03821115610ea957610ea9610c37565b50601f01601f191660200190565b5f5f60408385031215610ec8575f5ffd5b8235610ed381610d38565b915060208301356001600160401b03811115610eed575f5ffd5b8301601f81018513610efd575f5ffd5b8035610f0b610cba82610e91565b818152866020838501011115610f1f575f5ffd5b816020840160208301375f602083830101528093505050509250929050565b5f5f5f5f60808587031215610f51575f5ffd5b8435610f5c81610d38565b93506020850135925060408501356001600160401b03811115610db6575f5ffd5b634e487b7160e01b5f52603260045260245ffd5b634e487b7160e01b5f52601160045260245ffd5b8181035f831280158383131683831282161715610fc457610fc4610f91565b5092915050565b5f600160ff1b8201610fdf57610fdf610f91565b505f0390565b5f82610fff57634e487b7160e01b5f52601260045260245ffd5b500490565b5f82518060208501845e5f920191825250919050565b5f81518084528060208401602086015e5f602082860101526020601f19601f83011685010191505092915050565b602081525f6102f2602083018461101a565b6001600160a01b0391909116815260200190565b5f6020828403121561107e575f5ffd5b81516001600160401b03811115611093575f5ffd5b8201601f810184136110a3575f5ffd5b80516110b1610cba82610c7b565b8082825260208201915060208360051b8501019250868311156110d2575f5ffd5b6020840193505b82841015610a765783516110ec81610d38565b8252602093840193909101906110d9565b818103818111156100f4576100f4610f91565b8082018281125f83128015821682158216171561112f5761112f610f91565b505092915050565b6001600160a01b03841681526080602080830182905284519183018290525f919085019060a0840190835b81811015611180578351835260209384019390920191600101611162565b50506001600160a01b0394909416604084015250508082036060909101525f815260200192915050565b5f602082840312156111ba575f5ffd5b5051919050565b5f602082840312156111d1575f5ffd5b81516001600160401b038111156111e6575f5ffd5b8201601f810184136111f6575f5ffd5b8051611204610cba82610c7b565b8082825260208201915060208360051b850101925086831115611225575f5ffd5b6020840193505b82841015610a7657835182526020938401939091019061122c565b80820281158282048414176100f4576100f4610f91565b6001600160a01b039586168152938516602085015291841660408401526060830152909116608082015260c060a082018190525f9082015260e00190565b6001600160a01b03831681526040602082018190525f906101149083018461101a565b5f602082840312156112cf575f5ffd5b81516001600160401b038111156112e4575f5ffd5b8201601f810184136112f4575f5ffd5b8051611302610cba82610e91565b818152856020838501011115611316575f5ffd5b8160208401602083015e5f9181016020019190915294935050505056fea2646970667358221220b53bcc773da8f852e66301f719efb4205c67e41d5c6a296fa09f37c2b8d9cd5264736f6c634300081e0033","linkReferences":{}},"methodIdentifiers":{"calculateAddLiquidityUnbalancedPriceImpact(address,uint256[],address)":"48406a54","callAndRevertHook(address,bytes)":"a7699638","maxNegativeIndex(int256[])":"01ef39ee","minPositiveIndex(int256[])":"0d4277d1","queryAddLiquidityUnbalancedForTokenDeltas(address,uint256,int256[],address)":"e3a50d82","zeroOutDeltas(address,int256[],int256[],address)":"3b064ca3"},"id":321}