{"abi":[{"type":"function","name":"facetFuncs","inputs":[],"outputs":[{"name":"funcs","type":"bytes4[]","internalType":"bytes4[]"}],"stateMutability":"pure"},{"type":"function","name":"facetInterfaces","inputs":[],"outputs":[{"name":"interfaces","type":"bytes4[]","internalType":"bytes4[]"}],"stateMutability":"pure"},{"type":"function","name":"facetMetadata","inputs":[],"outputs":[{"name":"name_","type":"string","internalType":"string"},{"name":"interfaces","type":"bytes4[]","internalType":"bytes4[]"},{"name":"functions","type":"bytes4[]","internalType":"bytes4[]"}],"stateMutability":"pure"},{"type":"function","name":"facetName","inputs":[],"outputs":[{"name":"name","type":"string","internalType":"string"}],"stateMutability":"pure"},{"type":"function","name":"removeLiquidityRecovery","inputs":[{"name":"pool","type":"address","internalType":"address"},{"name":"from","type":"address","internalType":"address"},{"name":"exactBptAmountIn","type":"uint256","internalType":"uint256"},{"name":"minAmountsOut","type":"uint256[]","internalType":"uint256[]"}],"outputs":[{"name":"amountsOutRaw","type":"uint256[]","internalType":"uint256[]"}],"stateMutability":"nonpayable"},{"type":"event","name":"AggregateSwapFeePercentageChanged","inputs":[{"name":"pool","type":"address","indexed":true,"internalType":"address"},{"name":"aggregateSwapFeePercentage","type":"uint256","indexed":false,"internalType":"uint256"}],"anonymous":false},{"type":"event","name":"AggregateYieldFeePercentageChanged","inputs":[{"name":"pool","type":"address","indexed":true,"internalType":"address"},{"name":"aggregateYieldFeePercentage","type":"uint256","indexed":false,"internalType":"uint256"}],"anonymous":false},{"type":"event","name":"Approval","inputs":[{"name":"pool","type":"address","indexed":true,"internalType":"address"},{"name":"owner","type":"address","indexed":true,"internalType":"address"},{"name":"spender","type":"address","indexed":true,"internalType":"address"},{"name":"value","type":"uint256","indexed":false,"internalType":"uint256"}],"anonymous":false},{"type":"event","name":"AuthorizerChanged","inputs":[{"name":"newAuthorizer","type":"address","indexed":true,"internalType":"contract IAuthorizer"}],"anonymous":false},{"type":"event","name":"BufferSharesBurned","inputs":[{"name":"wrappedToken","type":"address","indexed":true,"internalType":"contract IERC4626"},{"name":"from","type":"address","indexed":true,"internalType":"address"},{"name":"burnedShares","type":"uint256","indexed":false,"internalType":"uint256"}],"anonymous":false},{"type":"event","name":"BufferSharesMinted","inputs":[{"name":"wrappedToken","type":"address","indexed":true,"internalType":"contract IERC4626"},{"name":"to","type":"address","indexed":true,"internalType":"address"},{"name":"issuedShares","type":"uint256","indexed":false,"internalType":"uint256"}],"anonymous":false},{"type":"event","name":"LiquidityAdded","inputs":[{"name":"pool","type":"address","indexed":true,"internalType":"address"},{"name":"liquidityProvider","type":"address","indexed":true,"internalType":"address"},{"name":"kind","type":"uint8","indexed":true,"internalType":"enum AddLiquidityKind"},{"name":"totalSupply","type":"uint256","indexed":false,"internalType":"uint256"},{"name":"amountsAddedRaw","type":"uint256[]","indexed":false,"internalType":"uint256[]"},{"name":"swapFeeAmountsRaw","type":"uint256[]","indexed":false,"internalType":"uint256[]"}],"anonymous":false},{"type":"event","name":"LiquidityAddedToBuffer","inputs":[{"name":"wrappedToken","type":"address","indexed":true,"internalType":"contract IERC4626"},{"name":"amountUnderlying","type":"uint256","indexed":false,"internalType":"uint256"},{"name":"amountWrapped","type":"uint256","indexed":false,"internalType":"uint256"},{"name":"bufferBalances","type":"bytes32","indexed":false,"internalType":"bytes32"}],"anonymous":false},{"type":"event","name":"LiquidityRemoved","inputs":[{"name":"pool","type":"address","indexed":true,"internalType":"address"},{"name":"liquidityProvider","type":"address","indexed":true,"internalType":"address"},{"name":"kind","type":"uint8","indexed":true,"internalType":"enum RemoveLiquidityKind"},{"name":"totalSupply","type":"uint256","indexed":false,"internalType":"uint256"},{"name":"amountsRemovedRaw","type":"uint256[]","indexed":false,"internalType":"uint256[]"},{"name":"swapFeeAmountsRaw","type":"uint256[]","indexed":false,"internalType":"uint256[]"}],"anonymous":false},{"type":"event","name":"LiquidityRemovedFromBuffer","inputs":[{"name":"wrappedToken","type":"address","indexed":true,"internalType":"contract IERC4626"},{"name":"amountUnderlying","type":"uint256","indexed":false,"internalType":"uint256"},{"name":"amountWrapped","type":"uint256","indexed":false,"internalType":"uint256"},{"name":"bufferBalances","type":"bytes32","indexed":false,"internalType":"bytes32"}],"anonymous":false},{"type":"event","name":"PoolInitialized","inputs":[{"name":"pool","type":"address","indexed":true,"internalType":"address"}],"anonymous":false},{"type":"event","name":"PoolPausedStateChanged","inputs":[{"name":"pool","type":"address","indexed":true,"internalType":"address"},{"name":"paused","type":"bool","indexed":false,"internalType":"bool"}],"anonymous":false},{"type":"event","name":"PoolRecoveryModeStateChanged","inputs":[{"name":"pool","type":"address","indexed":true,"internalType":"address"},{"name":"recoveryMode","type":"bool","indexed":false,"internalType":"bool"}],"anonymous":false},{"type":"event","name":"PoolRegistered","inputs":[{"name":"pool","type":"address","indexed":true,"internalType":"address"},{"name":"factory","type":"address","indexed":true,"internalType":"address"},{"name":"tokenConfig","type":"tuple[]","indexed":false,"internalType":"struct TokenConfig[]","components":[{"name":"token","type":"address","internalType":"contract IERC20"},{"name":"tokenType","type":"uint8","internalType":"enum TokenType"},{"name":"rateProvider","type":"address","internalType":"contract IRateProvider"},{"name":"paysYieldFees","type":"bool","internalType":"bool"}]},{"name":"swapFeePercentage","type":"uint256","indexed":false,"internalType":"uint256"},{"name":"pauseWindowEndTime","type":"uint32","indexed":false,"internalType":"uint32"},{"name":"roleAccounts","type":"tuple","indexed":false,"internalType":"struct PoolRoleAccounts","components":[{"name":"pauseManager","type":"address","internalType":"address"},{"name":"swapFeeManager","type":"address","internalType":"address"},{"name":"poolCreator","type":"address","internalType":"address"}]},{"name":"hooksConfig","type":"tuple","indexed":false,"internalType":"struct HooksConfig","components":[{"name":"enableHookAdjustedAmounts","type":"bool","internalType":"bool"},{"name":"shouldCallBeforeInitialize","type":"bool","internalType":"bool"},{"name":"shouldCallAfterInitialize","type":"bool","internalType":"bool"},{"name":"shouldCallComputeDynamicSwapFee","type":"bool","internalType":"bool"},{"name":"shouldCallBeforeSwap","type":"bool","internalType":"bool"},{"name":"shouldCallAfterSwap","type":"bool","internalType":"bool"},{"name":"shouldCallBeforeAddLiquidity","type":"bool","internalType":"bool"},{"name":"shouldCallAfterAddLiquidity","type":"bool","internalType":"bool"},{"name":"shouldCallBeforeRemoveLiquidity","type":"bool","internalType":"bool"},{"name":"shouldCallAfterRemoveLiquidity","type":"bool","internalType":"bool"},{"name":"hooksContract","type":"address","internalType":"address"}]},{"name":"liquidityManagement","type":"tuple","indexed":false,"internalType":"struct LiquidityManagement","components":[{"name":"disableUnbalancedLiquidity","type":"bool","internalType":"bool"},{"name":"enableAddLiquidityCustom","type":"bool","internalType":"bool"},{"name":"enableRemoveLiquidityCustom","type":"bool","internalType":"bool"},{"name":"enableDonation","type":"bool","internalType":"bool"}]}],"anonymous":false},{"type":"event","name":"ProtocolFeeControllerChanged","inputs":[{"name":"newProtocolFeeController","type":"address","indexed":true,"internalType":"contract IProtocolFeeController"}],"anonymous":false},{"type":"event","name":"Swap","inputs":[{"name":"pool","type":"address","indexed":true,"internalType":"address"},{"name":"tokenIn","type":"address","indexed":true,"internalType":"contract IERC20"},{"name":"tokenOut","type":"address","indexed":true,"internalType":"contract IERC20"},{"name":"amountIn","type":"uint256","indexed":false,"internalType":"uint256"},{"name":"amountOut","type":"uint256","indexed":false,"internalType":"uint256"},{"name":"swapFeePercentage","type":"uint256","indexed":false,"internalType":"uint256"},{"name":"swapFeeAmount","type":"uint256","indexed":false,"internalType":"uint256"}],"anonymous":false},{"type":"event","name":"SwapFeePercentageChanged","inputs":[{"name":"pool","type":"address","indexed":true,"internalType":"address"},{"name":"swapFeePercentage","type":"uint256","indexed":false,"internalType":"uint256"}],"anonymous":false},{"type":"event","name":"Transfer","inputs":[{"name":"pool","type":"address","indexed":true,"internalType":"address"},{"name":"from","type":"address","indexed":true,"internalType":"address"},{"name":"to","type":"address","indexed":true,"internalType":"address"},{"name":"value","type":"uint256","indexed":false,"internalType":"uint256"}],"anonymous":false},{"type":"event","name":"Unwrap","inputs":[{"name":"wrappedToken","type":"address","indexed":true,"internalType":"contract IERC4626"},{"name":"burnedShares","type":"uint256","indexed":false,"internalType":"uint256"},{"name":"withdrawnUnderlying","type":"uint256","indexed":false,"internalType":"uint256"},{"name":"bufferBalances","type":"bytes32","indexed":false,"internalType":"bytes32"}],"anonymous":false},{"type":"event","name":"VaultAuxiliary","inputs":[{"name":"pool","type":"address","indexed":true,"internalType":"address"},{"name":"eventKey","type":"bytes32","indexed":true,"internalType":"bytes32"},{"name":"eventData","type":"bytes","indexed":false,"internalType":"bytes"}],"anonymous":false},{"type":"event","name":"VaultBuffersPausedStateChanged","inputs":[{"name":"paused","type":"bool","indexed":false,"internalType":"bool"}],"anonymous":false},{"type":"event","name":"VaultPausedStateChanged","inputs":[{"name":"paused","type":"bool","indexed":false,"internalType":"bool"}],"anonymous":false},{"type":"event","name":"VaultQueriesDisabled","inputs":[],"anonymous":false},{"type":"event","name":"VaultQueriesEnabled","inputs":[],"anonymous":false},{"type":"event","name":"Wrap","inputs":[{"name":"wrappedToken","type":"address","indexed":true,"internalType":"contract IERC4626"},{"name":"depositedUnderlying","type":"uint256","indexed":false,"internalType":"uint256"},{"name":"mintedShares","type":"uint256","indexed":false,"internalType":"uint256"},{"name":"bufferBalances","type":"bytes32","indexed":false,"internalType":"bytes32"}],"anonymous":false},{"type":"error","name":"AfterAddLiquidityHookFailed","inputs":[]},{"type":"error","name":"AfterInitializeHookFailed","inputs":[]},{"type":"error","name":"AfterRemoveLiquidityHookFailed","inputs":[]},{"type":"error","name":"AfterSwapHookFailed","inputs":[]},{"type":"error","name":"AmountGivenZero","inputs":[]},{"type":"error","name":"AmountInAboveMax","inputs":[{"name":"tokenIn","type":"address","internalType":"contract IERC20"},{"name":"amountIn","type":"uint256","internalType":"uint256"},{"name":"maxAmountIn","type":"uint256","internalType":"uint256"}]},{"type":"error","name":"AmountOutBelowMin","inputs":[{"name":"tokenOut","type":"address","internalType":"contract IERC20"},{"name":"amountOut","type":"uint256","internalType":"uint256"},{"name":"minAmountOut","type":"uint256","internalType":"uint256"}]},{"type":"error","name":"BalanceNotSettled","inputs":[]},{"type":"error","name":"BalanceOverflow","inputs":[]},{"type":"error","name":"BeforeAddLiquidityHookFailed","inputs":[]},{"type":"error","name":"BeforeInitializeHookFailed","inputs":[]},{"type":"error","name":"BeforeRemoveLiquidityHookFailed","inputs":[]},{"type":"error","name":"BeforeSwapHookFailed","inputs":[]},{"type":"error","name":"BptAmountInAboveMax","inputs":[{"name":"amountIn","type":"uint256","internalType":"uint256"},{"name":"maxAmountIn","type":"uint256","internalType":"uint256"}]},{"type":"error","name":"BptAmountOutBelowMin","inputs":[{"name":"amountOut","type":"uint256","internalType":"uint256"},{"name":"minAmountOut","type":"uint256","internalType":"uint256"}]},{"type":"error","name":"BufferAlreadyInitialized","inputs":[{"name":"wrappedToken","type":"address","internalType":"contract IERC4626"}]},{"type":"error","name":"BufferNotInitialized","inputs":[{"name":"wrappedToken","type":"address","internalType":"contract IERC4626"}]},{"type":"error","name":"BufferSharesInvalidOwner","inputs":[]},{"type":"error","name":"BufferSharesInvalidReceiver","inputs":[]},{"type":"error","name":"BufferTotalSupplyTooLow","inputs":[{"name":"totalSupply","type":"uint256","internalType":"uint256"}]},{"type":"error","name":"CannotReceiveEth","inputs":[]},{"type":"error","name":"CannotSwapSameToken","inputs":[]},{"type":"error","name":"DoesNotSupportAddLiquidityCustom","inputs":[]},{"type":"error","name":"DoesNotSupportDonation","inputs":[]},{"type":"error","name":"DoesNotSupportRemoveLiquidityCustom","inputs":[]},{"type":"error","name":"DoesNotSupportUnbalancedLiquidity","inputs":[]},{"type":"error","name":"DynamicSwapFeeHookFailed","inputs":[]},{"type":"error","name":"ERC20InsufficientAllowance","inputs":[{"name":"spender","type":"address","internalType":"address"},{"name":"allowance","type":"uint256","internalType":"uint256"},{"name":"needed","type":"uint256","internalType":"uint256"}]},{"type":"error","name":"ERC20InsufficientBalance","inputs":[{"name":"sender","type":"address","internalType":"address"},{"name":"balance","type":"uint256","internalType":"uint256"},{"name":"needed","type":"uint256","internalType":"uint256"}]},{"type":"error","name":"ERC20InvalidApprover","inputs":[{"name":"approver","type":"address","internalType":"address"}]},{"type":"error","name":"ERC20InvalidSender","inputs":[{"name":"sender","type":"address","internalType":"address"}]},{"type":"error","name":"ERC20InvalidSpender","inputs":[{"name":"spender","type":"address","internalType":"address"}]},{"type":"error","name":"FeePrecisionTooHigh","inputs":[]},{"type":"error","name":"HookAdjustedAmountInAboveMax","inputs":[{"name":"tokenIn","type":"address","internalType":"contract IERC20"},{"name":"amountIn","type":"uint256","internalType":"uint256"},{"name":"maxAmountIn","type":"uint256","internalType":"uint256"}]},{"type":"error","name":"HookAdjustedAmountOutBelowMin","inputs":[{"name":"tokenOut","type":"address","internalType":"contract IERC20"},{"name":"amountOut","type":"uint256","internalType":"uint256"},{"name":"minAmountOut","type":"uint256","internalType":"uint256"}]},{"type":"error","name":"HookAdjustedSwapLimit","inputs":[{"name":"amount","type":"uint256","internalType":"uint256"},{"name":"limit","type":"uint256","internalType":"uint256"}]},{"type":"error","name":"HookRegistrationFailed","inputs":[{"name":"poolHooksContract","type":"address","internalType":"address"},{"name":"pool","type":"address","internalType":"address"},{"name":"poolFactory","type":"address","internalType":"address"}]},{"type":"error","name":"InvalidAddLiquidityKind","inputs":[]},{"type":"error","name":"InvalidRemoveLiquidityKind","inputs":[]},{"type":"error","name":"InvalidToken","inputs":[]},{"type":"error","name":"InvalidTokenConfiguration","inputs":[]},{"type":"error","name":"InvalidTokenDecimals","inputs":[]},{"type":"error","name":"InvalidTokenType","inputs":[]},{"type":"error","name":"InvalidUnderlyingToken","inputs":[{"name":"wrappedToken","type":"address","internalType":"contract IERC4626"}]},{"type":"error","name":"IssuedSharesBelowMin","inputs":[{"name":"issuedShares","type":"uint256","internalType":"uint256"},{"name":"minIssuedShares","type":"uint256","internalType":"uint256"}]},{"type":"error","name":"MaxTokens","inputs":[]},{"type":"error","name":"MinTokens","inputs":[]},{"type":"error","name":"NotEnoughBufferShares","inputs":[]},{"type":"error","name":"NotEnoughUnderlying","inputs":[{"name":"wrappedToken","type":"address","internalType":"contract IERC4626"},{"name":"expectedUnderlyingAmount","type":"uint256","internalType":"uint256"},{"name":"actualUnderlyingAmount","type":"uint256","internalType":"uint256"}]},{"type":"error","name":"NotEnoughWrapped","inputs":[{"name":"wrappedToken","type":"address","internalType":"contract IERC4626"},{"name":"expectedWrappedAmount","type":"uint256","internalType":"uint256"},{"name":"actualWrappedAmount","type":"uint256","internalType":"uint256"}]},{"type":"error","name":"NotStaticCall","inputs":[]},{"type":"error","name":"NotVaultDelegateCall","inputs":[]},{"type":"error","name":"PauseBufferPeriodDurationTooLarge","inputs":[]},{"type":"error","name":"PercentageAboveMax","inputs":[]},{"type":"error","name":"PoolAlreadyInitialized","inputs":[{"name":"pool","type":"address","internalType":"address"}]},{"type":"error","name":"PoolAlreadyRegistered","inputs":[{"name":"pool","type":"address","internalType":"address"}]},{"type":"error","name":"PoolInRecoveryMode","inputs":[{"name":"pool","type":"address","internalType":"address"}]},{"type":"error","name":"PoolNotInRecoveryMode","inputs":[{"name":"pool","type":"address","internalType":"address"}]},{"type":"error","name":"PoolNotInitialized","inputs":[{"name":"pool","type":"address","internalType":"address"}]},{"type":"error","name":"PoolNotPaused","inputs":[{"name":"pool","type":"address","internalType":"address"}]},{"type":"error","name":"PoolNotRegistered","inputs":[{"name":"pool","type":"address","internalType":"address"}]},{"type":"error","name":"PoolPauseWindowExpired","inputs":[{"name":"pool","type":"address","internalType":"address"}]},{"type":"error","name":"PoolPaused","inputs":[{"name":"pool","type":"address","internalType":"address"}]},{"type":"error","name":"PoolTotalSupplyTooLow","inputs":[{"name":"totalSupply","type":"uint256","internalType":"uint256"}]},{"type":"error","name":"ProtocolFeesExceedTotalCollected","inputs":[]},{"type":"error","name":"QueriesDisabled","inputs":[]},{"type":"error","name":"QueriesDisabledPermanently","inputs":[]},{"type":"error","name":"QuoteResultSpoofed","inputs":[]},{"type":"error","name":"ReentrancyGuardReentrantCall","inputs":[]},{"type":"error","name":"RouterNotTrusted","inputs":[]},{"type":"error","name":"SenderIsNotVault","inputs":[{"name":"sender","type":"address","internalType":"address"}]},{"type":"error","name":"SwapFeePercentageTooHigh","inputs":[]},{"type":"error","name":"SwapFeePercentageTooLow","inputs":[]},{"type":"error","name":"SwapLimit","inputs":[{"name":"amount","type":"uint256","internalType":"uint256"},{"name":"limit","type":"uint256","internalType":"uint256"}]},{"type":"error","name":"TokenAlreadyRegistered","inputs":[{"name":"token","type":"address","internalType":"contract IERC20"}]},{"type":"error","name":"TokenNotRegistered","inputs":[{"name":"token","type":"address","internalType":"contract IERC20"}]},{"type":"error","name":"TokensMismatch","inputs":[{"name":"pool","type":"address","internalType":"address"},{"name":"expectedToken","type":"address","internalType":"address"},{"name":"actualToken","type":"address","internalType":"address"}]},{"type":"error","name":"TradeAmountTooSmall","inputs":[]},{"type":"error","name":"VaultBuffersArePaused","inputs":[]},{"type":"error","name":"VaultIsNotUnlocked","inputs":[]},{"type":"error","name":"VaultNotPaused","inputs":[]},{"type":"error","name":"VaultPauseWindowDurationTooLarge","inputs":[]},{"type":"error","name":"VaultPauseWindowExpired","inputs":[]},{"type":"error","name":"VaultPaused","inputs":[]},{"type":"error","name":"WrapAmountTooSmall","inputs":[{"name":"wrappedToken","type":"address","internalType":"contract IERC4626"}]},{"type":"error","name":"WrongProtocolFeeControllerDeployment","inputs":[]},{"type":"error","name":"WrongUnderlyingToken","inputs":[{"name":"wrappedToken","type":"address","internalType":"contract IERC4626"},{"name":"underlyingToken","type":"address","internalType":"address"}]},{"type":"error","name":"WrongVaultAdminDeployment","inputs":[]},{"type":"error","name":"WrongVaultExtensionDeployment","inputs":[]}],"bytecode":{"object":"0x6080604052348015600e575f5ffd5b5061152b8061001c5f395ff3fe608060405234801561000f575f5ffd5b5060043610610055575f3560e01c80632ea8082614610059578063574a4cff146100775780635b6f4d011461007f578063a07d604014610094578063f10d7a75146100b4575b5f5ffd5b6100616100cb565b60405161006e9190611183565b60405180910390f35b610061610123565b61008761015f565b60405161006e91906111c3565b6100a76100a23660046111ff565b61018b565b60405161006e9190611320565b6100bc6106e8565b60405161006e93929190611332565b604080516001808252818301909252606091602080830190803683370190505090506302a95e6b60e51b815f8151811061010757610107611374565b6001600160e01b03199092166020928302919091019091015290565b6040805160018082528183019092526060916020808301908036833701905050905063a07d604060e01b815f8151811061010757610107611374565b60408051808201909152601281527115985d5b1d149958dbdd995c9e519858d95d60721b602082015290565b6060610195610710565b61019d610755565b846101a78161079c565b856101b1816107c7565b5f6101ba6107ef565b6001600160a01b0389165f8181526008830160209081526040808320815160c0810183526060808252818501869052818401869052808201819052608082015260a08101859052948452600686018352928190208054825181850281018501909352808352959650929490929183018282801561025e57602002820191905f5260205f20905b81546001600160a01b03168152600190910190602001808311610240575b505050828452505051604082018190526001600160401b03811115610285576102856111eb565b6040519080825280602002602001820160405280156102ae578160200160208202803683370190505b5060808201525f5b8160400151811015610302575f818152602084905260409020546001600160801b0316826080015182815181106102ef576102ef611374565b60209081029190910101526001016102b6565b5061031a81608001516103148c610818565b8a610849565b955080604001516001600160401b03811115610338576103386111eb565b604051908082528060200260200182016040528015610361578160200160208202803683370190505b5060608201526103bd7fa33ab5ae38c334f99ce8d4a88c1634397ed0415a9df15c29dfd3914852f299005c610395565b5c90565b7f3db93ac236d7287d4b8c711cce6b3cca52815a3bd1fc0fcef99ab26afea5d200908c6108f8565b15801560a08301526103f2576001600160a01b038a165f9081526003840160205260409020546103ec90610916565b60208201525b5f5b81604001518110156105e1578160a00151156104a45761043a826020015188838151811061042457610424611374565b60200260200101516109fe90919063ffffffff16565b8260600151828151811061045057610450611374565b6020026020010181815250508160600151818151811061047257610472611374565b602002602001015187828151811061048c5761048c611374565b602002602001018181516104a0919061139c565b9052505b8781815181106104b6576104b6611374565b60200260200101518782815181106104d0576104d0611374565b602002602001015110156105535781518051829081106104f2576104f2611374565b602002602001015187828151811061050c5761050c611374565b602002602001015189838151811061052657610526611374565b60200260200101516040516317bc2f2360e11b815260040161054a939291906113af565b60405180910390fd5b610592825f0151828151811061056b5761056b611374565b602002602001015188838151811061058557610585611374565b6020026020010151610a2a565b8681815181106105a4576105a4611374565b6020026020010151826080015182815181106105c2576105c2611374565b602002602001018181516105d6919061139c565b9052506001016103f4565b505f5b8160400151811015610648575f818152602084905260409020546080830151805161063191908490811061061a5761061a611374565b602002602001015182610a4990919063ffffffff16565b5f83815260208690526040902055506001016105e4565b506106558a8a338b610a64565b61065d610a7e565b1561066d5761066d8a8a8a610a9e565b6106788a8a8a610ab6565b5f896001600160a01b03168b6001600160a01b03167ffbe5b0d79fb94f1e81c0a92bf86ae9d3a19e9d1bf6202c0d3e75120f65d5d8a56106b78e610818565b60608601516040516106cb92918d916113d0565b60405180910390a450505050506106e0610ac9565b949350505050565b60608060606106f561015f565b92506106ff6100cb565b9150610709610123565b9050909192565b7f1369d017453f080f2416efe5ae39c8a4b4655ea0634227aaab0afdb9a9f93f005c15155f036107535760405163604dd39b60e11b815260040160405180910390fd5b565b5f5160206114d65f395f51905f525c1561078257604051633ee5aeb560e01b815260040160405180910390fd5b61075360015f5160206114d65f395f51905f525b90610ae0565b6107a581610ae7565b6107c45780604051634bdace1360e01b815260040161054a91906113fa565b50565b6107d081610af9565b6107c4578060405163ef029adf60e01b815260040161054a91906113fa565b7f867cc37b1d81c6898e0381d9834d1320e6a009ceb8f1f455820783856710c6b590565b905090565b5f610843610824610b0b565b836001600160a01b03165f908152600291909101602052604090205490565b92915050565b606083516001600160401b03811115610864576108646111eb565b60405190808252806020026020018201604052801561088d578160200160208202803683370190505b5090505f5b84518110156108f05783838683815181106108af576108af611374565b60200260200101516108c1919061140e565b6108cb9190611425565b8282815181106108dd576108dd611374565b6020908102919091010152600101610892565b509392505050565b5f6106e06103916109138461090d8888610b2f565b90610b2f565b90565b5f64174876e8006109f461092b836001611444565b610936906001611444565b610941906001611444565b61094c906001611444565b610957906001611444565b610962906001611444565b61096d906001611444565b610978906001611444565b610983906001611444565b61098e906001611444565b610999906001611444565b6109a4906001611444565b6109af906001611444565b6109ba906001611444565b6109c5906001611444565b6109d0906001611444565b6109db906001611444565b6109e6906001611444565b60ff1684901c62ffffff1690565b610843919061140e565b5f80610a0a838561140e565b90506001670de0b6b3a76400006001830304018115150291505092915050565b610a4582610a3783610b40565b610a409061145d565b610b4a565b5050565b5f610a5d82610a588560801c90565b610bbe565b9392505050565b610a78610a6f610b0b565b85858585610c02565b50505050565b5f321580156108135750610a98610a93610c57565b610c6a565b15905090565b610ab1610aa9610b0b565b848484610c74565b505050565b610ab1610ac1610b0b565b848484610cd4565b6107535f5f5160206114d65f395f51905f52610796565b80825d5050565b5f610843610af483610e5b565b610e86565b5f610843610b0683610e5b565b610ea1565b7fee3617e7dec9b55ea0e350adee8432cb30b3be6aa699fe3c87313b503dbc6c1f90565b5f9081526020919091526040902090565b5f61084382610ec6565b805f03610b55575050565b5f610b6883610b62610edf565b90610f03565b90505f610b758383611477565b9050805f03610b9357610b8e610b89610f14565b610f38565b610baa565b815f03610baa57610baa610ba5610f14565b610f4e565b610a788482610bb7610edf565b9190610f5d565b5f6001600160801b03831180610bda57506001600160801b0382115b15610bf8576040516389560ca160e01b815260040160405180910390fd5b610a5d8383610f6e565b5f610c0f86868686610f7d565b90505f198114610c4f5780821115610c4057828183604051637dc7a0d960e11b815260040161054a939291906113af565b610c4f86868686868603610fd9565b505050505050565b5f610813610c636107ef565b600a015490565b5f60018216610843565b32155f03610c95576040516333fc255960e11b815260040160405180910390fd5b6001600160a01b038084165f9081526020868152604080832093861683529290529081208054839290610cc990849061149e565b909155505050505050565b6001600160a01b038216610cfd5781604051634b637e8f60e11b815260040161054a91906113fa565b6001600160a01b038084165f908152602086815260408083209386168352929052205480821115610d475782818360405163391434e360e21b815260040161054a939291906113af565b6001600160a01b038085165f81815260208881526040808320948816835293815283822086860390559181526002880190915290812054610d8990849061139c565b9050610d948161110b565b6001600160a01b0385165f818152600288016020526040808220849055516323de665160e01b81526323de665191610dd39188919088906004016114b1565b5f604051808303815f87803b158015610dea575f5ffd5b505af1925050508015610dfb575060015b505f6001600160a01b0316846001600160a01b0316866001600160a01b03167fd1398bee19313d6bf672ccb116e51f4a1a947e91c757907f51fbb5b5e56c698f86604051610e4b91815260200190565b60405180910390a4505050505050565b5f610843610e676107ef565b836001600160a01b03165f908152600391909101602052604090205490565b5f610843610e95826001611444565b839060ff161c60011690565b5f610843610eb0826001611444565b610ebb906001611444565b610e95906001611444565b5f5f8212610ed2575090565b610eda611132565b919050565b7ff74f46243717369ff9f20877dfc1ba8491e6be48bfe7acc5b65f5ac68f585c0090565b5f610a5d6103916109138585610b2f565b7fbcbf50c510014a975eac30806436734486f167c41af035c1645353d475d5710090565b6107c4610f476001835c61139c565b8290610ae0565b6107c4610f47825c600161149e565b610ab1816107966109138686610b2f565b5f610a5d83608084901b61149e565b5f816001600160a01b0316836001600160a01b031603610f9f57505f196106e0565b506001600160a01b038084165f90815260018601602090815260408083208685168452825280832093851683529290522054949350505050565b6001600160a01b038316611002578260405163e602df0560e01b815260040161054a91906113fa565b6001600160a01b03821661102b5781604051634a1406b160e11b815260040161054a91906113fa565b6001600160a01b038085165f81815260018801602090815260408083208886168452825280832094871683529390528290208390559051630ad0fe5760e31b8152635687f2b890611084908690869086906004016114b1565b5f604051808303815f87803b15801561109b575f5ffd5b505af19250505080156110ac575060015b50816001600160a01b0316836001600160a01b0316856001600160a01b03167fa0175360a15bca328baf7ea85c7b784d58b222a50d0ce760b10dba336d226a61846040516110fc91815260200190565b60405180910390a45050505050565b620f42408110156107c4576040516334e3483f60e21b81526004810182905260240161054a565b6335278d125f526004601cfd5b5f8151808452602084019350602083015f5b828110156111795781516001600160e01b031916865260209586019590910190600101611151565b5093949350505050565b602081525f610a5d602083018461113f565b5f81518084528060208401602086015e5f602082860101526020601f19601f83011685010191505092915050565b602081525f610a5d6020830184611195565b80356001600160a01b0381168114610eda575f5ffd5b634e487b7160e01b5f52604160045260245ffd5b5f5f5f5f60808587031215611212575f5ffd5b61121b856111d5565b9350611229602086016111d5565b92506040850135915060608501356001600160401b0381111561124a575f5ffd5b8501601f8101871361125a575f5ffd5b80356001600160401b03811115611273576112736111eb565b604051600582901b90603f8201601f191681016001600160401b03811182821017156112a1576112a16111eb565b60405291825260208184018101929081018a8411156112be575f5ffd5b6020850194505b838510156112e1578435808252602095860195909350016112c5565b50969995985093965050505050565b5f8151808452602084019350602083015f5b82811015611179578151865260209586019590910190600101611302565b602081525f610a5d60208301846112f0565b606081525f6113446060830186611195565b8281036020840152611356818661113f565b9050828103604084015261136a818561113f565b9695505050505050565b634e487b7160e01b5f52603260045260245ffd5b634e487b7160e01b5f52601160045260245ffd5b8181038181111561084357610843611388565b6001600160a01b039390931683526020830191909152604082015260600190565b838152606060208201525f6113e860608301856112f0565b828103604084015261136a81856112f0565b6001600160a01b0391909116815260200190565b808202811582820484141761084357610843611388565b5f8261143f57634e487b7160e01b5f52601260045260245ffd5b500490565b60ff818116838216019081111561084357610843611388565b5f600160ff1b820161147157611471611388565b505f0390565b8082018281125f83128015821682158216171561149657611496611388565b505092915050565b8082018082111561084357610843611388565b6001600160a01b03938416815291909216602082015260408101919091526060019056fe9b779b17422d0df92223018b32b4d1fa46e071723d6817e2486d003becc55f00a2646970667358221220c2f9977676c19a776f28a52918e63ab6638e790d3ab637812e9494b5db58e20b64736f6c634300081e0033","linkReferences":{}},"methodIdentifiers":{"facetFuncs()":"574a4cff","facetInterfaces()":"2ea80826","facetMetadata()":"f10d7a75","facetName()":"5b6f4d01","removeLiquidityRecovery(address,address,uint256,uint256[])":"a07d6040"},"id":994}