{"abi":[{"type":"function","name":"asset","inputs":[],"outputs":[{"name":"","type":"address","internalType":"address"}],"stateMutability":"view"},{"type":"function","name":"convertToAssets","inputs":[{"name":"shares","type":"uint256","internalType":"uint256"}],"outputs":[{"name":"assets","type":"uint256","internalType":"uint256"}],"stateMutability":"view"},{"type":"function","name":"convertToShares","inputs":[{"name":"assets","type":"uint256","internalType":"uint256"}],"outputs":[{"name":"shares","type":"uint256","internalType":"uint256"}],"stateMutability":"view"},{"type":"function","name":"deposit","inputs":[{"name":"assets","type":"uint256","internalType":"uint256"},{"name":"receiver","type":"address","internalType":"address"}],"outputs":[{"name":"shares","type":"uint256","internalType":"uint256"}],"stateMutability":"nonpayable"},{"type":"function","name":"facetFuncs","inputs":[],"outputs":[{"name":"funcs","type":"bytes4[]","internalType":"bytes4[]"}],"stateMutability":"pure"},{"type":"function","name":"facetInterfaces","inputs":[],"outputs":[{"name":"interfaces","type":"bytes4[]","internalType":"bytes4[]"}],"stateMutability":"pure"},{"type":"function","name":"facetMetadata","inputs":[],"outputs":[{"name":"name_","type":"string","internalType":"string"},{"name":"interfaces","type":"bytes4[]","internalType":"bytes4[]"},{"name":"functions","type":"bytes4[]","internalType":"bytes4[]"}],"stateMutability":"pure"},{"type":"function","name":"facetName","inputs":[],"outputs":[{"name":"name","type":"string","internalType":"string"}],"stateMutability":"pure"},{"type":"function","name":"maxDeposit","inputs":[{"name":"","type":"address","internalType":"address"}],"outputs":[{"name":"maxDeposit_","type":"uint256","internalType":"uint256"}],"stateMutability":"pure"},{"type":"function","name":"maxMint","inputs":[{"name":"","type":"address","internalType":"address"}],"outputs":[{"name":"maxMint_","type":"uint256","internalType":"uint256"}],"stateMutability":"pure"},{"type":"function","name":"maxRedeem","inputs":[{"name":"account","type":"address","internalType":"address"}],"outputs":[{"name":"maxRedeem_","type":"uint256","internalType":"uint256"}],"stateMutability":"view"},{"type":"function","name":"maxWithdraw","inputs":[{"name":"account","type":"address","internalType":"address"}],"outputs":[{"name":"maxWithdraw_","type":"uint256","internalType":"uint256"}],"stateMutability":"view"},{"type":"function","name":"mint","inputs":[{"name":"shares","type":"uint256","internalType":"uint256"},{"name":"receiver","type":"address","internalType":"address"}],"outputs":[{"name":"assets","type":"uint256","internalType":"uint256"}],"stateMutability":"nonpayable"},{"type":"function","name":"previewDeposit","inputs":[{"name":"assets","type":"uint256","internalType":"uint256"}],"outputs":[{"name":"shares","type":"uint256","internalType":"uint256"}],"stateMutability":"view"},{"type":"function","name":"previewMint","inputs":[{"name":"shares","type":"uint256","internalType":"uint256"}],"outputs":[{"name":"assets","type":"uint256","internalType":"uint256"}],"stateMutability":"view"},{"type":"function","name":"previewRedeem","inputs":[{"name":"shares","type":"uint256","internalType":"uint256"}],"outputs":[{"name":"assets","type":"uint256","internalType":"uint256"}],"stateMutability":"view"},{"type":"function","name":"previewWithdraw","inputs":[{"name":"assets","type":"uint256","internalType":"uint256"}],"outputs":[{"name":"shares","type":"uint256","internalType":"uint256"}],"stateMutability":"view"},{"type":"function","name":"redeem","inputs":[{"name":"shares","type":"uint256","internalType":"uint256"},{"name":"receiver","type":"address","internalType":"address"},{"name":"owner","type":"address","internalType":"address"}],"outputs":[{"name":"assets","type":"uint256","internalType":"uint256"}],"stateMutability":"nonpayable"},{"type":"function","name":"totalAssets","inputs":[],"outputs":[{"name":"","type":"uint256","internalType":"uint256"}],"stateMutability":"view"},{"type":"function","name":"withdraw","inputs":[{"name":"assets","type":"uint256","internalType":"uint256"},{"name":"receiver","type":"address","internalType":"address"},{"name":"owner","type":"address","internalType":"address"}],"outputs":[{"name":"shares","type":"uint256","internalType":"uint256"}],"stateMutability":"nonpayable"},{"type":"event","name":"Approval","inputs":[{"name":"owner","type":"address","indexed":true,"internalType":"address"},{"name":"spender","type":"address","indexed":true,"internalType":"address"},{"name":"amount","type":"uint256","indexed":false,"internalType":"uint256"}],"anonymous":false},{"type":"event","name":"Deposit","inputs":[{"name":"sender","type":"address","indexed":true,"internalType":"address"},{"name":"owner","type":"address","indexed":true,"internalType":"address"},{"name":"assets","type":"uint256","indexed":false,"internalType":"uint256"},{"name":"shares","type":"uint256","indexed":false,"internalType":"uint256"}],"anonymous":false},{"type":"event","name":"Transfer","inputs":[{"name":"from","type":"address","indexed":true,"internalType":"address"},{"name":"to","type":"address","indexed":true,"internalType":"address"},{"name":"amount","type":"uint256","indexed":false,"internalType":"uint256"}],"anonymous":false},{"type":"event","name":"Withdraw","inputs":[{"name":"sender","type":"address","indexed":true,"internalType":"address"},{"name":"receiver","type":"address","indexed":true,"internalType":"address"},{"name":"owner","type":"address","indexed":true,"internalType":"address"},{"name":"assets","type":"uint256","indexed":false,"internalType":"uint256"},{"name":"shares","type":"uint256","indexed":false,"internalType":"uint256"}],"anonymous":false},{"type":"error","name":"ERC20InsufficientAllowance","inputs":[{"name":"spender","type":"address","internalType":"address"},{"name":"allowance","type":"uint256","internalType":"uint256"},{"name":"needed","type":"uint256","internalType":"uint256"}]},{"type":"error","name":"ERC20InvalidSpender","inputs":[{"name":"spender","type":"address","internalType":"address"}]},{"type":"error","name":"ERC4626TransferNotReceived","inputs":[{"name":"expected","type":"uint256","internalType":"uint256"},{"name":"actual","type":"uint256","internalType":"uint256"}]},{"type":"error","name":"IsLocked","inputs":[]}],"bytecode":{"object":"0x6080604052348015600e575f5ffd5b506119748061001c5f395ff3fe608060405234801561000f575f5ffd5b50600436106100fa575f3560e01c806301e1d114146100fe57806307a2d13a146101195780630a28a4771461012c5780632ea808261461013f57806338d52e0f14610154578063402d267d146101695780634cdad5061461017d578063574a4cff146101905780635b6f4d01146101985780636e553f65146101ad57806394bf804d146101c0578063b3d7f6b9146101d3578063b460af94146101e6578063ba087652146101f9578063c63d75b614610169578063c6e6f5921461020c578063ce96cb771461021f578063d905777e14610232578063ef8b30f714610245578063f10d7a7514610258575b5f5ffd5b61010661026f565b6040519081526020015b60405180910390f35b610106610127366004611564565b61027d565b61010661013a366004611564565b6102bf565b6101476102f1565b60405161011091906115bf565b61015c610349565b60405161011091906115d1565b610106610177366004611600565b505f1990565b61010661018b366004611564565b610352565b610147610377565b6101a06106ee565b6040516101109190611647565b6101066101bb366004611659565b610714565b6101066101ce366004611659565b6107d3565b6101066101e1366004611564565b61088a565b6101066101f4366004611683565b6108af565b610106610207366004611683565b610a3d565b61010661021a366004611564565b610bae565b61010661022d366004611600565b610be2565b610106610240366004611600565b610c13565b610106610253366004611564565b610c1d565b610260610c42565b604051610110939291906116bc565b5f610278610c6a565b905090565b5f5f610287610c7c565b90505f610295826001015490565b90505f6102a0610ca0565b90506102b68583836102b187610cb3565b610cc1565b95945050505050565b5f5f6102c9610c6a565b90505f6102d4610ca0565b90506102e98483836102e4610ccf565b610ce8565b949350505050565b6040805160018082528183019092526060916020808301908036833701905050905063043eff2d60e51b815f8151811061032d5761032d6116f4565b6001600160e01b03199092166020928302919091019091015290565b5f610278610cf7565b5f5f61035c610c6a565b90505f610367610ca0565b90506102e98483836102b1610ccf565b604080516010808252610220820190925260609160208201610200803683370190505090506338d52e0f60e01b815f815181106103b6576103b66116f4565b6001600160e01b03199092166020928302919091019091015280516278744560e21b90829060019081106103ec576103ec6116f4565b6001600160e01b03199092166020928302919091019091015280516363737ac960e11b9082906002908110610423576104236116f4565b6001600160e01b03199092166020928302919091019091015280516303d1689d60e11b908290600390811061045a5761045a6116f4565b6001600160e01b031990921660209283029190910190910152805163402d267d60e01b9082906004908110610491576104916116f4565b6001600160e01b031990921660209283029190910190910152805163ef8b30f760e01b90829060059081106104c8576104c86116f4565b6001600160e01b0319909216602092830291909101909101528051636e553f6560e01b90829060069081106104ff576104ff6116f4565b6001600160e01b031990921660209283029190910190910152805163631ebadb60e11b9082906007908110610536576105366116f4565b6001600160e01b031990921660209283029190910190910152805163b3d7f6b960e01b908290600890811061056d5761056d6116f4565b6001600160e01b03199092166020928302919091019091015280516394bf804d60e01b90829060099081106105a4576105a46116f4565b6001600160e01b031990921660209283029190910190910152805163ce96cb7760e01b908290600a9081106105db576105db6116f4565b6001600160e01b0319909216602092830291909101909101528051630a28a47760e01b908290600b908110610612576106126116f4565b6001600160e01b0319909216602092830291909101909101528051632d182be560e21b908290600c908110610649576106496116f4565b6001600160e01b0319909216602092830291909101909101528051636c82bbbf60e11b908290600d908110610680576106806116f4565b6001600160e01b031990921660209283029190910190910152805163266d6a8360e11b908290600e9081106106b7576106b76116f4565b6001600160e01b0319909216602092830291909101909101528051635d043b2960e11b908290600f90811061032d5761032d6116f4565b60408051808201909152600c81526b115490cd0d8c8d919858d95d60a21b602082015290565b5f61071d610d0f565b610725610d37565b5f61072e610c7c565b90505f61073c826001015490565b90505f61074a838388610d6d565b90505f610755610fbb565b90505f610763826003015490565b905061077983858361077489610cb3565b610fed565b9550610786828888610ffb565b866001600160a01b0316336001600160a01b03165f51602061191f5f395f51905f5285896040516107b8929190611708565b60405180910390a350505050506107cd611076565b92915050565b5f6107dc610d0f565b6107e4610d37565b5f6107ed610c7c565b90505f6107fb826001015490565b90505f610806610fbb565b90505f610814826003015490565b905061082a87848361082588610cb3565b61108c565b9450610837848487610d6d565b9450610844828789610ffb565b856001600160a01b0316336001600160a01b03165f51602061191f5f395f51905f52878a604051610876929190611708565b60405180910390a3505050506107cd611076565b5f5f610894610c6a565b90505f61089f610ca0565b90506102e9848383610825610ccf565b5f6108b8610d0f565b6108c0610d37565b5f6108c9610c7c565b90505f6108d7826001015490565b90505f6108e2610fbb565b90505f6108f0826003015490565b9050610900888483610774610ccf565b9450336001600160a01b038716148061092157506001600160a01b03861630145b156109365761093182878761109b565b61094d565b6109428287338861110d565b61094d82878761109b565b5f610957856111b3565b905061096d6001600160a01b038216898b6111c0565b506040516370a0823160e01b81525f906001600160a01b038316906370a082319061099c9030906004016115d1565b602060405180830381865afa1580156109b7573d5f5f3e3d5ffd5b505050506040513d601f19601f820116820180604052508101906109db9190611716565b600187018190559050876001600160a01b0316896001600160a01b0316336001600160a01b03165f5160206118df5f395f51905f528d8b604051610a20929190611708565b60405180910390a4505050505050610a36611076565b9392505050565b5f610a46610d0f565b610a4e610d37565b5f610a57610c7c565b90505f610a62610fbb565b90505f610a70836001015490565b90505f610a7e836003015490565b9050610a8e8883836102b1610ccf565b9450336001600160a01b0387161480610aaf57506001600160a01b03861630145b15610ac457610abf83878a61109b565b610adb565b610ad08387338b61110d565b610adb83878a61109b565b5f610ae5856111b3565b9050610afb6001600160a01b03821689886111c0565b506040516370a0823160e01b81525f906001600160a01b038316906370a0823190610b2a9030906004016115d1565b602060405180830381865afa158015610b45573d5f5f3e3d5ffd5b505050506040513d601f19601f82011682018060405250810190610b699190611716565b600187018190559050876001600160a01b0316896001600160a01b0316336001600160a01b03165f5160206118df5f395f51905f528a8e604051610a20929190611708565b5f5f610bb8610c7c565b90505f610bc6826001015490565b90505f610bd1610ca0565b90506102b685838361077487610cb3565b5f5f610bec610c6a565b90505f610bf7610ca0565b90505f610c03856111df565b90506102b68184846102b1610ccf565b5f6107cd826111df565b5f5f610c27610c6a565b90505f610c32610ca0565b90506102e9848383610774610ccf565b6060806060610c4f6106ee565b9250610c596102f1565b9150610c63610377565b9050909192565b5f610c73610c7c565b60010154905090565b7f14ce67821cd930247cda3561a8613121cef312aab4c97bcc298f53c085bd93e090565b5f610278610cac610fbb565b6003015490565b54600160a81b900460ff1690565b5f6102b6858585855f61120a565b5f610cd8610c7c565b54600160a81b900460ff16919050565b5f6102b6858585856001611241565b5f610d00610c7c565b546001600160a01b0316919050565b610d17611265565b15610d355760405163caa30f5560e01b815260040160405180910390fd5b565b610d356001610d67604051602001610d4e9061172d565b6040516020818303038152906040528051906020012090565b9061127f565b5f5f610d78856111b3565b90505f816001600160a01b03166370a08231306040518263ffffffff1660e01b8152600401610da791906115d1565b602060405180830381865afa158015610dc2573d5f5f3e3d5ffd5b505050506040513d601f19601f82011682018060405250810190610de69190611716565b9050610df28582611772565b9250838314610f7e57604051636eb1769f60e11b81523360048201523060248201525f906001600160a01b0384169063dd62ed3e90604401602060405180830381865afa158015610e45573d5f5f3e3d5ffd5b505050506040513d601f19601f82011682018060405250810190610e699190611716565b905084811015610eec57610e7b611286565b604051631b63c28b60e11b81523360048201523060248201526001600160a01b038781166044830152858116606483015291909116906336c78516906084015f604051808303815f87803b158015610ed1575f5ffd5b505af1158015610ee3573d5f5f3e3d5ffd5b50505050610f03565b610f016001600160a01b038416333088611297565b505b6040516370a0823160e01b81526001600160a01b038416906370a0823190610f2f9030906004016115d1565b602060405180830381865afa158015610f4a573d5f5f3e3d5ffd5b505050506040513d601f19601f82011682018060405250810190610f6e9190611716565b9150610f7a8683611772565b9350505b838314610fab578383604051630a1665cf60e31b8152600401610fa2929190611708565b60405180910390fd5b6001860181905550509392505050565b5f610278604051602001610d4e906020808252600a908201526906569702e6572632e32360b41b604082015260600190565b5f6102b6858585855f611241565b6001600160a01b0382165f90815260048401602052604081208054839290611024908490611785565b9250508190555080836003015f82825461103e9190611785565b90915550506040518181526001600160a01b038316905f905f5160206118ff5f395f51905f52906020015b60405180910390a3505050565b610d355f610d67604051602001610d4e9061172d565b5f6102b685858585600161120a565b6001600160a01b0382165f908152600484016020526040812080548392906110c4908490611772565b9250508190555080836003015f8282546110de9190611772565b90915550506040518181525f906001600160a01b038416905f5160206118ff5f395f51905f5290602001611069565b6001600160a01b0382166111365781604051634a1406b160e11b8152600401610fa291906115d1565b6001600160a01b038381165f9081526005860160209081526040808320938616835292905220548181101561119757604051637dc7a0d960e11b81526001600160a01b03841660048201526024810182905260448101839052606401610fa2565b6111ac8585856111a78686611772565b6112b8565b5050505050565b546001600160a01b031690565b5f6111d56001600160a01b0385168484611344565b5060019392505050565b5f6107cd6111eb610fbb565b836001600160a01b03165f908152600491909101602052604090205490565b5f611237611219866001611785565b61122485600a61187b565b61122e9087611785565b88919085611354565b9695505050505050565b5f61123761125084600a61187b565b61125a9086611785565b61122e876001611785565b5f61027861127b604051602001610d4e9061172d565b5c90565b80825d5050565b5f610278611292611361565b6111b3565b5f6112ad6001600160a01b0386168585856113a6565b506001949350505050565b6001600160a01b0382166112e15781604051634a1406b160e11b8152600401610fa291906115d1565b6001600160a01b038381165f81815260058701602090815260408083209487168084529482529182902085905590518481527f8c5be1e5ebec7d5bd14f71427d1e84f3dd0314c0f7b2291e5b200ac8c7c3b925910160405180910390a350505050565b61134f8383836113b8565b505050565b5f6102b685858585611402565b5f610278604051602001610d4e906020808252601d908201527f70726f746f636f6c732e7574696c732e7065726d6974322e6177617265000000604082015260600190565b6113b284848484611445565b50505050565b816014528060345263a9059cbb60601b5f5260205f604460105f875af18060015f5114166113f857803d853b1517106113f8576390b8ec185f526004601cfd5b505f603452505050565b5f5f61140f86868661149e565b905061141a836114aa565b801561143557505f848061143057611430611889565b868809115b156102b657611237600182611785565b60405181606052826040528360601b602c526323b872dd60601b600c5260205f6064601c5f895af18060015f51141661149057803d873b15171061149057637939f4245f526004601cfd5b505f60605260405250505050565b5f6102e98484846114d6565b5f60028260038111156114bf576114bf61189d565b6114c991906118b1565b60ff166001149050919050565b8282028183858304148515170261155d575f198385098181108201900382848609835f0384168285116115105763ae47f7025f526004601cfd5b93849004938382119092035f839003839004600101029203041760026003830281188084028203028084028203028084028203028084028203028084028203028084029091030202610a36565b0492915050565b5f60208284031215611574575f5ffd5b5035919050565b5f8151808452602084019350602083015f5b828110156115b55781516001600160e01b03191686526020958601959091019060010161158d565b5093949350505050565b602081525f610a36602083018461157b565b6001600160a01b0391909116815260200190565b80356001600160a01b03811681146115fb575f5ffd5b919050565b5f60208284031215611610575f5ffd5b610a36826115e5565b5f81518084528060208401602086015e5f602082860101526020601f19601f83011685010191505092915050565b602081525f610a366020830184611619565b5f5f6040838503121561166a575f5ffd5b8235915061167a602084016115e5565b90509250929050565b5f5f5f60608486031215611695575f5ffd5b833592506116a5602085016115e5565b91506116b3604085016115e5565b90509250925092565b606081525f6116ce6060830186611619565b82810360208401526116e0818661157b565b90508281036040840152611237818561157b565b634e487b7160e01b5f52603260045260245ffd5b918252602082015260400190565b5f60208284031215611726575f5ffd5b5051919050565b6020808252601790820152766372616e652e6163636573732e7265656e7472616e637960481b604082015260600190565b634e487b7160e01b5f52601160045260245ffd5b818103818111156107cd576107cd61175e565b808201808211156107cd576107cd61175e565b6001815b60018411156117d3578085048111156117b7576117b761175e565b60018416156117c557908102905b60019390931c92800261179c565b935093915050565b5f826117e9575060016107cd565b816117f557505f6107cd565b816001811461180b576002811461181557611831565b60019150506107cd565b60ff8411156118265761182661175e565b50506001821b6107cd565b5060208310610133831016604e8410600b8410161715611854575081810a6107cd565b6118605f198484611798565b805f19048211156118735761187361175e565b029392505050565b5f610a3660ff8416836117db565b634e487b7160e01b5f52601260045260245ffd5b634e487b7160e01b5f52602160045260245ffd5b5f60ff8316806118cf57634e487b7160e01b5f52601260045260245ffd5b8060ff8416069150509291505056fefbde797d201c681b91056529119e0b02407c7bb96a4a2c75c01fc9667232c8dbddf252ad1be2c89b69c2b068fc378daa952ba7f163c4a11628f55a4df523b3efdcbc1c05240f31ff3ad067ef1ee35ce4997762752e3a095284754544f4c709d7a2646970667358221220cd0936e2008ed4f3758402f71060a1ff0977c1b46f3132fa92462cb5af39d69764736f6c634300081e0033","linkReferences":{}},"methodIdentifiers":{"asset()":"38d52e0f","convertToAssets(uint256)":"07a2d13a","convertToShares(uint256)":"c6e6f592","deposit(uint256,address)":"6e553f65","facetFuncs()":"574a4cff","facetInterfaces()":"2ea80826","facetMetadata()":"f10d7a75","facetName()":"5b6f4d01","maxDeposit(address)":"402d267d","maxMint(address)":"c63d75b6","maxRedeem(address)":"d905777e","maxWithdraw(address)":"ce96cb77","mint(uint256,address)":"94bf804d","previewDeposit(uint256)":"ef8b30f7","previewMint(uint256)":"b3d7f6b9","previewRedeem(uint256)":"4cdad506","previewWithdraw(uint256)":"0a28a477","redeem(uint256,address,address)":"ba087652","totalAssets()":"01e1d114","withdraw(uint256,address,address)":"b460af94"},"id":1335}