{"abi":[{"type":"function","name":"isLocked","inputs":[],"outputs":[{"name":"","type":"bool","internalType":"bool"}],"stateMutability":"view"},{"type":"error","name":"IsLocked","inputs":[]}],"bytecode":{"object":"0x6080604052348015600e575f5ffd5b506103408061001c5f395ff3fe608060405234801561000f575f5ffd5b5060043610610029575f3560e01c8063a4e2d6341461002d575b5f5ffd5b61003561004b565b60405161004291906101a0565b60405180910390f35b5f610054610059565b905090565b5f610062610076565b5f015f9054906101000a900460ff16905090565b5f6101787fa4e2d634000000000000000000000000000000000000000000000000000000007bffffffffffffffffffffffffffffffffffffffffffffffffffffffff191660016040518060400160405260128152806020017f5265656e7472616e63794c6f636b5265706f00000000000000000000000000008152506040516020016101029190610229565b604051602081830303815290604052805190602001206040516020016101289190610261565b604051602081830303815290604052805190602001205f1c61014a91906102b0565b5f1b60405160200161015d9291906102e3565b6040516020818303038152906040528051906020012061017d565b905090565b5f819050919050565b5f8115159050919050565b61019a81610186565b82525050565b5f6020820190506101b35f830184610191565b92915050565b5f81519050919050565b5f82825260208201905092915050565b8281835e5f83830152505050565b5f601f19601f8301169050919050565b5f6101fb826101b9565b61020581856101c3565b93506102158185602086016101d3565b61021e816101e1565b840191505092915050565b5f6020820190508181035f83015261024181846101f1565b905092915050565b5f819050919050565b61025b81610249565b82525050565b5f6020820190506102745f830184610252565b92915050565b5f819050919050565b7f4e487b71000000000000000000000000000000000000000000000000000000005f52601160045260245ffd5b5f6102ba8261027a565b91506102c58361027a565b92508282039050818111156102dd576102dc610283565b5b92915050565b5f6040820190506102f65f830185610252565b6103036020830184610252565b939250505056fea2646970667358221220c3b496176379da5c8ed29043db7f00b2ca6b32cded122b9898088f1e8e2d976464736f6c634300081c0033","linkReferences":{}},"methodIdentifiers":{"isLocked()":"a4e2d634"},"id":22}