{"abi":[{"type":"function","name":"isLocked","inputs":[],"outputs":[{"name":"","type":"bool","internalType":"bool"}],"stateMutability":"view"},{"type":"error","name":"IsLocked","inputs":[]}],"bytecode":{"object":"0x6080604052348015600e575f5ffd5b5060e28061001b5f395ff3fe6080604052348015600e575f5ffd5b50600436106026575f3560e01c8063a4e2d63414602a575b5f5ffd5b60306044565b604051901515815260200160405180910390f35b5f604b6050565b905090565b5f604b60a8604051602001608f906020808252601790820152766372616e652e6163636573732e7265656e7472616e637960481b604082015260600190565b6040516020818303038152906040528051906020012090565b5c9056fea26469706673582212209c9f939ecb65e21144a3eee6f704798c72801c7a64a40992e8f5c28a8409c25164736f6c634300081e0033","linkReferences":{}},"methodIdentifiers":{"isLocked()":"a4e2d634"},"id":22}