{"abi":[{"type":"constructor","inputs":[{"name":"vat_","type":"address","internalType":"address"}],"stateMutability":"nonpayable"},{"type":"function","name":"Pie","inputs":[],"outputs":[{"name":"","type":"uint256","internalType":"uint256"}],"stateMutability":"view"},{"type":"function","name":"cage","inputs":[],"outputs":[],"stateMutability":"nonpayable"},{"type":"function","name":"chi","inputs":[],"outputs":[{"name":"","type":"uint256","internalType":"uint256"}],"stateMutability":"view"},{"type":"function","name":"deny","inputs":[{"name":"guy","type":"address","internalType":"address"}],"outputs":[],"stateMutability":"nonpayable"},{"type":"function","name":"drip","inputs":[],"outputs":[{"name":"tmp","type":"uint256","internalType":"uint256"}],"stateMutability":"nonpayable"},{"type":"function","name":"dsr","inputs":[],"outputs":[{"name":"","type":"uint256","internalType":"uint256"}],"stateMutability":"view"},{"type":"function","name":"exit","inputs":[{"name":"wad","type":"uint256","internalType":"uint256"}],"outputs":[],"stateMutability":"nonpayable"},{"type":"function","name":"file","inputs":[{"name":"what","type":"bytes32","internalType":"bytes32"},{"name":"data","type":"uint256","internalType":"uint256"}],"outputs":[],"stateMutability":"nonpayable"},{"type":"function","name":"file","inputs":[{"name":"what","type":"bytes32","internalType":"bytes32"},{"name":"addr","type":"address","internalType":"address"}],"outputs":[],"stateMutability":"nonpayable"},{"type":"function","name":"join","inputs":[{"name":"wad","type":"uint256","internalType":"uint256"}],"outputs":[],"stateMutability":"nonpayable"},{"type":"function","name":"live","inputs":[],"outputs":[{"name":"","type":"uint256","internalType":"uint256"}],"stateMutability":"view"},{"type":"function","name":"pie","inputs":[{"name":"","type":"address","internalType":"address"}],"outputs":[{"name":"","type":"uint256","internalType":"uint256"}],"stateMutability":"view"},{"type":"function","name":"rely","inputs":[{"name":"guy","type":"address","internalType":"address"}],"outputs":[],"stateMutability":"nonpayable"},{"type":"function","name":"rho","inputs":[],"outputs":[{"name":"","type":"uint256","internalType":"uint256"}],"stateMutability":"view"},{"type":"function","name":"vat","inputs":[],"outputs":[{"name":"","type":"address","internalType":"contract VatLike"}],"stateMutability":"view"},{"type":"function","name":"vow","inputs":[],"outputs":[{"name":"","type":"address","internalType":"address"}],"stateMutability":"view"},{"type":"function","name":"wards","inputs":[{"name":"","type":"address","internalType":"address"}],"outputs":[{"name":"","type":"uint256","internalType":"uint256"}],"stateMutability":"view"}],"bytecode":{"object":"0x6080604052348015600e575f5ffd5b506040516109f23803806109f2833981016040819052602b916080565b335f908152602081905260409020600190819055600580546001600160a01b0319166001600160a01b0393909316929092179091556b033b2e3c9fd0803ce800000060038190556004554260075560085560ab565b5f60208284031215608f575f5ffd5b81516001600160a01b038116811460a4575f5ffd5b9392505050565b61093a806100b85f395ff3fe608060405234801561000f575f5ffd5b50600436106100d9575f3560e01c8063049878f3146100dd5780630bebac86146100f257806320aba08b1461012457806329ae81141461012d5780632c69ed581461014057806336569e7714610149578063487bf08214610174578063626cb3c51461017d57806365fae35e1461019057806369245009146101a35780637f8661a1146101ab578063957aa58c146101be5780639c52a7f1146101c75780639f678cca146101da578063bf353dbb146101e2578063c92aecc414610201578063d4e8be831461020a575b5f5ffd5b6100f06100eb3660046107a0565b61021d565b005b6101116101003660046107d2565b60016020525f908152604090205481565b6040519081526020015b60405180910390f35b61011160075481565b6100f061013b3660046107eb565b6102f3565b61011160025481565b60055461015c906001600160a01b031681565b6040516001600160a01b03909116815260200161011b565b61011160035481565b60065461015c906001600160a01b031681565b6100f061019e3660046107d2565b6103dc565b6100f0610426565b6100f06101b93660046107a0565b610469565b61011160085481565b6100f06101d53660046107d2565b6104c7565b61011161050e565b6101116101f03660046107d2565b5f6020819052908152604090205481565b61011160045481565b6100f061021836600461080b565b610618565b60075442146102475760405162461bcd60e51b815260040161023e90610835565b60405180910390fd5b335f908152600160205260409020546102609082610674565b335f9081526001602052604090205560025461027c9082610674565b6002556005546004546001600160a01b039091169063bb35783b90339030906102a59086610689565b6040518463ffffffff1660e01b81526004016102c393929190610862565b5f604051808303815f87803b1580156102da575f5ffd5b505af11580156102ec573d5f5f3e3d5ffd5b5050505050565b335f908152602081905260409020546001146103215760405162461bcd60e51b815260040161023e90610886565b6008546001146103625760405162461bcd60e51b815260206004820152600c60248201526b506f742f6e6f742d6c69766560a01b604482015260640161023e565b60075442146103835760405162461bcd60e51b815260040161023e90610835565b81623239b960e91b036103965760035550565b60405162461bcd60e51b815260206004820152601b60248201527a506f742f66696c652d756e7265636f676e697a65642d706172616d60281b604482015260640161023e565b335f9081526020819052604090205460011461040a5760405162461bcd60e51b815260040161023e90610886565b6001600160a01b03165f90815260208190526040902060019055565b335f908152602081905260409020546001146104545760405162461bcd60e51b815260040161023e90610886565b5f600855676765c793fa10079d601b1b600355565b335f9081526001602052604090205461048290826106b1565b335f9081526001602052604090205560025461049e90826106b1565b6002556005546004546001600160a01b039091169063bb35783b90309033906102a59086610689565b335f908152602081905260409020546001146104f55760405162461bcd60e51b815260040161023e90610886565b6001600160a01b03165f90815260208190526040812055565b5f6007544210156105535760405162461bcd60e51b815260206004820152600f60248201526e506f742f696e76616c69642d6e6f7760881b604482015260640161023e565b61058361057b6003546007544261056a91906108b2565b676765c793fa10079d601b1b6106c0565b600454610778565b90505f610592826004546106b1565b6004839055426007556005546006546002549293506001600160a01b039182169263f24e23eb929091169030906105c99086610689565b6040518463ffffffff1660e01b81526004016105e793929190610862565b5f604051808303815f87803b1580156105fe575f5ffd5b505af1158015610610573d5f5f3e3d5ffd5b505050505090565b335f908152602081905260409020546001146106465760405162461bcd60e51b815260040161023e90610886565b8162766f7760e81b0361039657600680546001600160a01b0383166001600160a01b03199091161790555050565b80820182811015610683575f5ffd5b92915050565b5f8115806106a9575050808202828282816106a6576106a66108d1565b04145b610683575f5ffd5b80820382811115610683575f5ffd5b5f83801561075b576001841680156106da578592506106de565b8392505b50600283046002850494505b8415610755578586028687820414610700575f5ffd5b8181018181101561070f575f5ffd5b859004965050600185161561074a578583028387820414158715151615610734575f5ffd5b81810181811015610743575f5ffd5b8590049350505b6002850494506106ea565b50610770565b83801561076a575f925061076e565b8392505b505b509392505050565b5f676765c793fa10079d601b1b61078f8484610689565b61079991906108e5565b9392505050565b5f602082840312156107b0575f5ffd5b5035919050565b80356001600160a01b03811681146107cd575f5ffd5b919050565b5f602082840312156107e2575f5ffd5b610799826107b7565b5f5f604083850312156107fc575f5ffd5b50508035926020909101359150565b5f5f6040838503121561081c575f5ffd5b8235915061082c602084016107b7565b90509250929050565b602080825260139082015272141bdd0bdc9a1bcb5b9bdd0b5d5c19185d1959606a1b604082015260600190565b6001600160a01b039384168152919092166020820152604081019190915260600190565b602080825260129082015271141bdd0bdb9bdd0b585d5d1a1bdc9a5e995960721b604082015260600190565b8181038181111561068357634e487b7160e01b5f52601160045260245ffd5b634e487b7160e01b5f52601260045260245ffd5b5f826108ff57634e487b7160e01b5f52601260045260245ffd5b50049056fea2646970667358221220a21151890d4df9965a871a33472e1380d878319f56ab176fcf15b025f819813564736f6c634300081e0033","linkReferences":{}},"methodIdentifiers":{"Pie()":"2c69ed58","cage()":"69245009","chi()":"c92aecc4","deny(address)":"9c52a7f1","drip()":"9f678cca","dsr()":"487bf082","exit(uint256)":"7f8661a1","file(bytes32,address)":"d4e8be83","file(bytes32,uint256)":"29ae8114","join(uint256)":"049878f3","live()":"957aa58c","pie(address)":"0bebac86","rely(address)":"65fae35e","rho()":"20aba08b","vat()":"36569e77","vow()":"626cb3c5","wards(address)":"bf353dbb"},"id":692}