{"abi":[{"type":"function","name":"upgradeDiamond","inputs":[{"name":"_addFunctions","type":"tuple[]","internalType":"struct IERC8109Update.FacetFunctions[]","components":[{"name":"facet","type":"address","internalType":"address"},{"name":"selectors","type":"bytes4[]","internalType":"bytes4[]"}]},{"name":"_replaceFunctions","type":"tuple[]","internalType":"struct IERC8109Update.FacetFunctions[]","components":[{"name":"facet","type":"address","internalType":"address"},{"name":"selectors","type":"bytes4[]","internalType":"bytes4[]"}]},{"name":"_removeFunctions","type":"bytes4[]","internalType":"bytes4[]"},{"name":"_delegate","type":"address","internalType":"address"},{"name":"_functionCall","type":"bytes","internalType":"bytes"},{"name":"_tag","type":"bytes32","internalType":"bytes32"},{"name":"_metadata","type":"bytes","internalType":"bytes"}],"outputs":[],"stateMutability":"nonpayable"},{"type":"event","name":"DiamondDelegateCall","inputs":[{"name":"_delegate","type":"address","indexed":true,"internalType":"address"},{"name":"_functionCall","type":"bytes","indexed":false,"internalType":"bytes"}],"anonymous":false},{"type":"event","name":"DiamondFunctionAdded","inputs":[{"name":"_selector","type":"bytes4","indexed":true,"internalType":"bytes4"},{"name":"_facet","type":"address","indexed":true,"internalType":"address"}],"anonymous":false},{"type":"event","name":"DiamondFunctionRemoved","inputs":[{"name":"_selector","type":"bytes4","indexed":true,"internalType":"bytes4"},{"name":"_oldFacet","type":"address","indexed":true,"internalType":"address"}],"anonymous":false},{"type":"event","name":"DiamondFunctionReplaced","inputs":[{"name":"_selector","type":"bytes4","indexed":true,"internalType":"bytes4"},{"name":"_oldFacet","type":"address","indexed":true,"internalType":"address"},{"name":"_newFacet","type":"address","indexed":true,"internalType":"address"}],"anonymous":false},{"type":"event","name":"DiamondMetadata","inputs":[{"name":"_tag","type":"bytes32","indexed":true,"internalType":"bytes32"},{"name":"_data","type":"bytes","indexed":false,"internalType":"bytes"}],"anonymous":false},{"type":"error","name":"AddressEmptyCode","inputs":[{"name":"target","type":"address","internalType":"address"}]},{"type":"error","name":"CannotAddFunctionToDiamondThatAlreadyExists","inputs":[{"name":"_selector","type":"bytes4","internalType":"bytes4"}]},{"type":"error","name":"CannotRemoveFunctionThatDoesNotExist","inputs":[{"name":"_selector","type":"bytes4","internalType":"bytes4"}]},{"type":"error","name":"CannotReplaceFunctionThatDoesNotExist","inputs":[{"name":"_selector","type":"bytes4","internalType":"bytes4"}]},{"type":"error","name":"CannotReplaceFunctionWithTheSameFacet","inputs":[{"name":"_selector","type":"bytes4","internalType":"bytes4"}]},{"type":"error","name":"DelegateCallReverted","inputs":[{"name":"_delegate","type":"address","internalType":"address"},{"name":"_functionCall","type":"bytes","internalType":"bytes"}]},{"type":"error","name":"FailedCall","inputs":[]},{"type":"error","name":"NoBytecodeAtAddress","inputs":[{"name":"_contractAddress","type":"address","internalType":"address"}]},{"type":"error","name":"NoSelectorsProvidedForFacet","inputs":[{"name":"_facet","type":"address","internalType":"address"}]}],"bytecode":{"object":"0x6080604052348015600e575f5ffd5b506111218061001c5f395ff3fe608060405234801561000f575f5ffd5b5060043610610029575f3560e01c80638274760b1461002d575b5f5ffd5b61004061003b366004610d56565b610042565b005b6100fb61004f8c8e610efd565b6100598b8d610efd565b8a8a808060200260200160405190810160405280939291908181526020018383602002808284375f9201919091525050604080516020601f8d018190048102820181019092528b81528d935091508b908b90819084018382808284375f9201919091525050604080516020601f8c018190048102820181019092528a81528c935091508a908a90819084018382808284375f9201919091525061010992505050565b505050505050505050505050565b610120610114610129565b8888888888888861017b565b50505050505050565b5f61017660405160200161015d906020808252600c908201526b6569702e6572632e3235333560a01b604082015260600190565b6040516020818303038152906040528051906020012090565b905090565b5f5b87518110156101b1576101a98989838151811061019c5761019c611029565b60200260200101516102bc565b60010161017d565b505f5b86518110156101e8576101e0898883815181106101d3576101d3611029565b602002602001015161048b565b6001016101b4565b506101f388866106ef565b5f835111801561020b57506001600160a01b03841615155b15610266576102236001600160a01b03851684610868565b50836001600160a01b03167ffb4514022f0c20335bef459c51d3b7d7ec4a30ac3ab8ccc1b3f83422c51ff3fc8460405161025d919061103d565b60405180910390a25b8115158061027457505f8151115b156102b257817fe554490be3732d6c1d73f1f31f5728456ac9b5bd3bee232399e7a8e48d8243fb826040516102a9919061103d565b60405180910390a25b5050505050505050565b5f5b816020015151811015610486575f836002015f846020015184815181106102e7576102e7611029565b6020908102919091018101516001600160e01b03191682528101919091526040015f20546001600160a01b03169050801561035d578260200151828151811061033257610332611029565b602002602001015160405163ebbf5d0760e01b81526004016103549190611072565b60405180910390fd5b825f0151846002015f8560200151858151811061037c5761037c611029565b60200260200101516001600160e01b0319166001600160e01b03191681526020019081526020015f205f6101000a8154816001600160a01b0302191690836001600160a01b0316021790555061040e836020015183815181106103e1576103e1611029565b60209081029190910181015185516001600160a01b03165f9081526003880190925260409091209061087d565b825161041b9085906108f9565b50825f01516001600160a01b03168360200151838151811061043f5761043f611029565b60200260200101516001600160e01b0319167f8ebe71df07c7735e3354de642e0e78bd4883f86387fd862933fb2bda80a33ac460405160405180910390a3506001016102be565b505050565b5f5b816020015151811015610486575f836002015f846020015184815181106104b6576104b6611029565b6020908102919091018101516001600160e01b03191682528101919091526040015f20546001600160a01b0316905080610522578260200151828151811061050057610500611029565b6020026020010151604051632e6effa160e11b81526004016103549190611072565b825f01516001600160a01b0316816001600160a01b031603610576578260200151828151811061055457610554611029565b6020026020010151604051633c9bf29560e01b81526004016103549190611072565b6105ca8360200151838151811061058f5761058f611029565b6020026020010151856003015f846001600160a01b03166001600160a01b031681526020019081526020015f2061096290919063ffffffff16565b825f0151846002015f856020015185815181106105e9576105e9611029565b60200260200101516001600160e01b0319166001600160e01b03191681526020019081526020015f205f6101000a8154816001600160a01b0302191690836001600160a01b0316021790555061064e836020015183815181106103e1576103e1611029565b6001600160a01b0381165f9081526003850160205260409020600101545f0361067b5761067b8482610a9f565b825f01516001600160a01b0316816001600160a01b0316846020015184815181106106a8576106a8611029565b60200260200101516001600160e01b0319167f7b4ab0df34c3bd1da54befe627195f88272a902f9af7967462c3effff05e184460405160405180910390a45060010161048d565b5f5b8151811015610486575f836002015f84848151811061071257610712611029565b6020908102919091018101516001600160e01b03191682528101919091526040015f20546001600160a01b031690508061077a5782828151811061075857610758611029565b6020026020010151604051637a08a22d60e01b81526004016103549190611072565b61078f83838151811061058f5761058f611029565b836002015f8484815181106107a6576107a6611029565b6020908102919091018101516001600160e01b03191682528181019290925260409081015f90812080546001600160a01b03191690556001600160a01b0384168152600387019092529020600101545f03610805576108058482610a9f565b806001600160a01b031683838151811061082157610821611029565b60200260200101516001600160e01b0319167fa24c9d3a0f634225f6932b85d43ff7a2dcb0b8778ad4caedbc13c840f5e4fd6d60405160405180910390a3506001016106f1565b60606108748383610bbd565b90505b92915050565b6001600160e01b031981165f908152602083905260409020546108f5576001828101805491820181555f81815260208082206008850401805463ffffffff60079096166004026101000a958602191660e087901c959095029490941790935590546001600160e01b0319841682529184905260409020555b5050565b6001600160a01b0381165f90815260208390526040812054610959576001838101805491820181555f818152602080822090930180546001600160a01b0319166001600160a01b0387169081179091559154918152918590526040909120555b50600192915050565b6001600160e01b031981165f908152602083905260409020548015610486575f61098d60018361109b565b600180860180549293505f9290916109a49161109b565b815481106109b4576109b4611029565b905f5260205f2090600891828204019190066004029054906101000a900460e01b9050808560010183815481106109ed576109ed611029565b905f5260205f2090600891828204019190066004026101000a81548163ffffffff021916908360e01c0217905550816001610a2891906110ae565b6001600160e01b031982165f9081526020879052604090205560018501805480610a5457610a546110c1565b5f828152602080822060085f1990940193840401805463ffffffff600460078716026101000a0219169055919092556001600160e01b03198616825286905260408120555050505050565b6001600160a01b0381165f908152602083905260409020548015610486575f610ac960018361109b565b600180860180549293505f929091610ae09161109b565b81548110610af057610af0611029565b5f918252602090912001546001860180546001600160a01b039092169250829184908110610b2057610b20611029565b5f91825260209091200180546001600160a01b0319166001600160a01b0392909216919091179055610b538260016110ae565b6001600160a01b0382165f9081526020879052604090205560018501805480610b7e57610b7e6110c1565b5f828152602080822083015f1990810180546001600160a01b03191690559092019092556001600160a01b038616825286905260408120555050505050565b60605f5f846001600160a01b031684604051610bd991906110d5565b5f60405180830381855af49150503d805f8114610c11576040519150601f19603f3d011682016040523d82523d5f602084013e610c16565b606091505b5091509150610c26858383610c2f565b95945050505050565b606082610c4457610c3f82610c8e565b610c87565b8151158015610c5b57506001600160a01b0384163b155b15610c8457604051639996b31560e01b81526001600160a01b0385166004820152602401610354565b50805b9392505050565b805115610c9e5780518082602001fd5b60405163d6bda27560e01b815260040160405180910390fd5b5f5f83601f840112610cc7575f5ffd5b5081356001600160401b03811115610cdd575f5ffd5b6020830191508360208260051b8501011115610cf7575f5ffd5b9250929050565b80356001600160a01b0381168114610d14575f5ffd5b919050565b5f5f83601f840112610d29575f5ffd5b5081356001600160401b03811115610d3f575f5ffd5b602083019150836020828501011115610cf7575f5ffd5b5f5f5f5f5f5f5f5f5f5f5f5f60e08d8f031215610d71575f5ffd5b6001600160401b038d351115610d85575f5ffd5b610d928e8e358f01610cb7565b909c509a506001600160401b0360208e01351115610dae575f5ffd5b610dbe8e60208f01358f01610cb7565b909a5098506001600160401b0360408e01351115610dda575f5ffd5b610dea8e60408f01358f01610cb7565b9098509650610dfb60608e01610cfe565b95506001600160401b0360808e01351115610e14575f5ffd5b610e248e60808f01358f01610d19565b909550935060a08d013592506001600160401b0360c08e01351115610e47575f5ffd5b610e578e60c08f01358f01610d19565b81935080925050509295989b509295989b509295989b565b634e487b7160e01b5f52604160045260245ffd5b604080519081016001600160401b0381118282101715610ea557610ea5610e6f565b60405290565b604051601f8201601f191681016001600160401b0381118282101715610ed357610ed3610e6f565b604052919050565b5f6001600160401b03821115610ef357610ef3610e6f565b5060051b60200190565b5f610f0f610f0a84610edb565b610eab565b8381526020810190600585901b840136811115610f2a575f5ffd5b845b8181101561101e5780356001600160401b03811115610f49575f5ffd5b86016040368290031215610f5b575f5ffd5b610f63610e83565b610f6c82610cfe565b815260208201356001600160401b03811115610f86575f5ffd5b919091019036601f830112610f99575f5ffd5b8135610fa7610f0a82610edb565b8082825260208201915060208360051b860101925036831115610fc8575f5ffd5b6020850194505b82851015610fff5784356001600160e01b031981168114610fee575f5ffd5b825260209485019490910190610fcf565b8060208501525050508086525050602084019350602081019050610f2c565b509095945050505050565b634e487b7160e01b5f52603260045260245ffd5b602081525f82518060208401528060208501604085015e5f604082850101526040601f19601f83011684010191505092915050565b6001600160e01b031991909116815260200190565b634e487b7160e01b5f52601160045260245ffd5b8181038181111561087757610877611087565b8082018082111561087757610877611087565b634e487b7160e01b5f52603160045260245ffd5b5f82518060208501845e5f92019182525091905056fea2646970667358221220f2db001a4f1fa8b6aad7ad55544eb66f020f0140c8e9985b040ad971395136b964736f6c634300081e0033","linkReferences":{}},"methodIdentifiers":{"upgradeDiamond((address,bytes4[])[],(address,bytes4[])[],bytes4[],address,bytes,bytes32,bytes)":"8274760b"},"id":192}