{"abi":[{"type":"constructor","inputs":[{"name":"vat_","type":"address","internalType":"address"},{"name":"gem_","type":"address","internalType":"address"}],"stateMutability":"nonpayable"},{"type":"function","name":"beg","inputs":[],"outputs":[{"name":"","type":"uint256","internalType":"uint256"}],"stateMutability":"view"},{"type":"function","name":"bids","inputs":[{"name":"","type":"uint256","internalType":"uint256"}],"outputs":[{"name":"bid","type":"uint256","internalType":"uint256"},{"name":"lot","type":"uint256","internalType":"uint256"},{"name":"guy","type":"address","internalType":"address"},{"name":"tic","type":"uint48","internalType":"uint48"},{"name":"end","type":"uint48","internalType":"uint48"}],"stateMutability":"view"},{"type":"function","name":"cage","inputs":[],"outputs":[],"stateMutability":"nonpayable"},{"type":"function","name":"deal","inputs":[{"name":"id","type":"uint256","internalType":"uint256"}],"outputs":[],"stateMutability":"nonpayable"},{"type":"function","name":"dent","inputs":[{"name":"id","type":"uint256","internalType":"uint256"},{"name":"lot","type":"uint256","internalType":"uint256"},{"name":"bid","type":"uint256","internalType":"uint256"}],"outputs":[],"stateMutability":"nonpayable"},{"type":"function","name":"deny","inputs":[{"name":"usr","type":"address","internalType":"address"}],"outputs":[],"stateMutability":"nonpayable"},{"type":"function","name":"file","inputs":[{"name":"what","type":"bytes32","internalType":"bytes32"},{"name":"data","type":"uint256","internalType":"uint256"}],"outputs":[],"stateMutability":"nonpayable"},{"type":"function","name":"gem","inputs":[],"outputs":[{"name":"","type":"address","internalType":"contract GemLike"}],"stateMutability":"view"},{"type":"function","name":"kick","inputs":[{"name":"gal","type":"address","internalType":"address"},{"name":"lot","type":"uint256","internalType":"uint256"},{"name":"bid","type":"uint256","internalType":"uint256"}],"outputs":[{"name":"id","type":"uint256","internalType":"uint256"}],"stateMutability":"nonpayable"},{"type":"function","name":"kicks","inputs":[],"outputs":[{"name":"","type":"uint256","internalType":"uint256"}],"stateMutability":"view"},{"type":"function","name":"live","inputs":[],"outputs":[{"name":"","type":"uint256","internalType":"uint256"}],"stateMutability":"view"},{"type":"function","name":"pad","inputs":[],"outputs":[{"name":"","type":"uint256","internalType":"uint256"}],"stateMutability":"view"},{"type":"function","name":"rely","inputs":[{"name":"usr","type":"address","internalType":"address"}],"outputs":[],"stateMutability":"nonpayable"},{"type":"function","name":"tau","inputs":[],"outputs":[{"name":"","type":"uint48","internalType":"uint48"}],"stateMutability":"view"},{"type":"function","name":"tick","inputs":[{"name":"id","type":"uint256","internalType":"uint256"}],"outputs":[],"stateMutability":"nonpayable"},{"type":"function","name":"ttl","inputs":[],"outputs":[{"name":"","type":"uint48","internalType":"uint48"}],"stateMutability":"view"},{"type":"function","name":"vat","inputs":[],"outputs":[{"name":"","type":"address","internalType":"contract VatLike"}],"stateMutability":"view"},{"type":"function","name":"vow","inputs":[],"outputs":[{"name":"","type":"address","internalType":"address"}],"stateMutability":"view"},{"type":"function","name":"wards","inputs":[{"name":"","type":"address","internalType":"address"}],"outputs":[{"name":"","type":"uint256","internalType":"uint256"}],"stateMutability":"view"},{"type":"function","name":"yank","inputs":[{"name":"id","type":"uint256","internalType":"uint256"}],"outputs":[],"stateMutability":"nonpayable"},{"type":"event","name":"Kick","inputs":[{"name":"id","type":"uint256","indexed":false,"internalType":"uint256"},{"name":"lot","type":"uint256","indexed":false,"internalType":"uint256"},{"name":"bid","type":"uint256","indexed":false,"internalType":"uint256"},{"name":"gal","type":"address","indexed":true,"internalType":"address"}],"anonymous":false}],"bytecode":{"object":"0x6080604052670e92596fd62900006004556714d1120d7b160000600555600680546001600160601b0319166802a300000000002a301790555f600755348015610046575f5ffd5b5060405161120c38038061120c833981016040819052610065916100cc565b335f908152602081905260409020600190819055600280546001600160a01b039485166001600160a01b03199182161790915560038054939094169216919091179091556008556100fd565b80516001600160a01b03811681146100c7575f5ffd5b919050565b5f5f604083850312156100dd575f5ffd5b6100e6836100b1565b91506100f4602084016100b1565b90509250929050565b6111028061010a5f395ff3fe608060405234801561000f575f5ffd5b50600436106100fa575f3560e01c806326e027f1146100fe57806329ae81141461011357806336569e77146101265780634423c5f1146101565780634e8b1dd5146101e55780635ff3a3821461020e578063626cb3c51461022157806365fae35e1461023457806369245009146102475780637bd2bea71461024f5780637d780d82146102625780639361266c14610279578063957aa58c146102825780639c52a7f11461028b578063b7e9cd241461029e578063bf353dbb146102b1578063c959c42b146102d0578063cfc4af55146102e3578063cfdd3302146102fc578063fc7b6aee14610305575b5f5ffd5b61011161010c366004610ede565b610318565b005b610111610121366004610ef5565b61042f565b600254610139906001600160a01b031681565b6040516001600160a01b0390911681526020015b60405180910390f35b6101a7610164366004610ede565b600160208190525f91825260409091208054918101546002909101546001600160a01b0381169065ffffffffffff600160a01b8204811691600160d01b90041685565b6040805195865260208601949094526001600160a01b039092169284019290925265ffffffffffff918216606084015216608082015260a00161014d565b6006546101f79065ffffffffffff1681565b60405165ffffffffffff909116815260200161014d565b61011161021c366004610f15565b610528565b600954610139906001600160a01b031681565b610111610242366004610f59565b6109e6565b610111610a30565b600354610139906001600160a01b031681565b61026b60045481565b60405190815260200161014d565b61026b60055481565b61026b60085481565b610111610299366004610f59565b610a76565b61026b6102ac366004610f79565b610abd565b61026b6102bf366004610f59565b5f6020819052908152604090205481565b6101116102de366004610ede565b610c37565b6006546101f790600160301b900465ffffffffffff1681565b61026b60075481565b610111610313366004610ede565b610d3d565b600854156103625760405162461bcd60e51b8152602060048201526012602482015271466c6f707065722f7374696c6c2d6c69766560701b60448201526064015b60405180910390fd5b5f818152600160205260409020600201546001600160a01b03166103985760405162461bcd60e51b815260040161035990610fa9565b600280546009545f8481526001602052604090819020938401549354905163f24e23eb60e01b81526001600160a01b039384169463f24e23eb946103e494811693911691600401610fd6565b5f604051808303815f87803b1580156103fb575f5ffd5b505af115801561040d573d5f5f3e3d5ffd5b5050505f91825250600160208190526040822082815590810182905560020155565b335f9081526020819052604090205460011461045d5760405162461bcd60e51b815260040161035990610ffa565b816262656760e81b036104705760045550565b81621c185960ea1b036104835760055550565b81621d1d1b60ea1b036104ad576006805465ffffffffffff191665ffffffffffff83161790555050565b816274617560e81b036104e0576006805465ffffffffffff60301b1916600160301b65ffffffffffff8416021790555050565b60405162461bcd60e51b815260206004820152601f60248201527f466c6f707065722f66696c652d756e7265636f676e697a65642d706172616d006044820152606401610359565b60085460011461054a5760405162461bcd60e51b81526004016103599061102a565b5f838152600160205260409020600201546001600160a01b03166105805760405162461bcd60e51b815260040161035990610fa9565b5f8381526001602052604090206002015442600160a01b90910465ffffffffffff1611806105cb57505f83815260016020526040902060020154600160a01b900465ffffffffffff16155b6106165760405162461bcd60e51b815260206004820152601c60248201527b466c6f707065722f616c72656164792d66696e69736865642d74696360201b6044820152606401610359565b5f8381526001602052604090206002015442600160d01b90910465ffffffffffff16116106845760405162461bcd60e51b815260206004820152601c60248201527b119b1bdc1c195c8bd85b1c9958591e4b599a5b9a5cda19590b595b9960221b6044820152606401610359565b5f8381526001602052604090205481146106db5760405162461bcd60e51b8152602060048201526018602482015277119b1bdc1c195c8bdb9bdd0b5b585d18da1a5b99cb589a5960421b6044820152606401610359565b5f838152600160208190526040909120015482106107335760405162461bcd60e51b8152602060048201526015602482015274233637b83832b917b637ba16b737ba16b637bbb2b960591b6044820152606401610359565b5f838152600160208190526040909120015461075790670de0b6b3a7640000610e7f565b61076360045484610e7f565b11156107b15760405162461bcd60e51b815260206004820152601d60248201527f466c6f707065722f696e73756666696369656e742d64656372656173650000006044820152606401610359565b5f838152600160205260409020600201546001600160a01b0316331461097f57600280545f858152600160205260409081902090920154915163bb35783b60e01b81526001600160a01b039182169263bb35783b9261081a923392909116908690600401610fd6565b5f604051808303815f87803b158015610831575f5ffd5b505af1158015610843573d5f5f3e3d5ffd5b5050505f84815260016020526040812060020154600160a01b900465ffffffffffff169003905061095e575f838152600160209081526040808320600201548151630a874acf60e21b815291516001600160a01b0390911692632a1d2b3c9260048082019391829003018187875af11580156108c1573d5f5f3e3d5ffd5b505050506040513d601f19601f820116820180604052508101906108e59190611054565b5f858152600160205260409020600201549091506001600160a01b0316632506855a6109118484610ead565b6040518263ffffffff1660e01b815260040161092f91815260200190565b5f604051808303815f87803b158015610946575f5ffd5b505af1158015610958573d5f5f3e3d5ffd5b50505050505b5f83815260016020526040902060020180546001600160a01b031916331790555b5f838152600160208190526040909120018290556006546109a990429065ffffffffffff16610ec4565b5f93845260016020526040909320600201805465ffffffffffff94909416600160a01b0265ffffffffffff60a01b19909416939093179092555050565b335f90815260208190526040902054600114610a145760405162461bcd60e51b815260040161035990610ffa565b6001600160a01b03165f90815260208190526040902060019055565b335f90815260208190526040902054600114610a5e5760405162461bcd60e51b815260040161035990610ffa565b5f600855600980546001600160a01b03191633179055565b335f90815260208190526040902054600114610aa45760405162461bcd60e51b815260040161035990610ffa565b6001600160a01b03165f90815260208190526040812055565b335f90815260208190526040812054600114610aeb5760405162461bcd60e51b815260040161035990610ffa565b600854600114610b0d5760405162461bcd60e51b81526004016103599061102a565b5f1960075410610b525760405162461bcd60e51b815260206004820152601060248201526f466c6f707065722f6f766572666c6f7760801b6044820152606401610359565b50600780546001908101918290555f82815260208290526040902083815590810184905560020180546001600160a01b0319166001600160a01b038616179055600654610baf904290600160301b900465ffffffffffff16610ec4565b5f82815260016020908152604091829020600201805465ffffffffffff94909416600160d01b026001600160d01b0390941693909317909255805183815291820185905281018390526001600160a01b038516907f7e8881001566f9f89aedb9c5dc3d856a2b81e5235a8196413ed484be91cc0df69060600160405180910390a29392505050565b600854600114610c595760405162461bcd60e51b81526004016103599061102a565b5f81815260016020526040902060020154600160a01b900465ffffffffffff1615801590610ccf57505f8181526001602052604090206002015442600160a01b90910465ffffffffffff161080610ccf57505f8181526001602052604090206002015442600160d01b90910465ffffffffffff16105b610ceb5760405162461bcd60e51b81526004016103599061106b565b6003545f82815260016020819052604091829020600281015491015491516340c10f1960e01b81526001600160a01b0391821660048201526024810192909252909116906340c10f19906044016103e4565b5f8181526001602052604090206002015442600160d01b90910465ffffffffffff1610610d7c5760405162461bcd60e51b81526004016103599061106b565b5f81815260016020526040902060020154600160a01b900465ffffffffffff1615610de65760405162461bcd60e51b815260206004820152601a602482015279119b1bdc1c195c8bd89a590b585b1c9958591e4b5c1b1858d95960321b6044820152606401610359565b670de0b6b3a7640000610e0f60055460015f8581526020019081526020015f2060010154610e7f565b610e1991906110ad565b5f8281526001602081905260409091200155600654610e48904290600160301b900465ffffffffffff16610ec4565b5f91825260016020526040909120600201805465ffffffffffff92909216600160d01b026001600160d01b03909216919091179055565b5f811580610e9f57505080820282828281610e9c57610e9c611099565b04145b610ea7575f5ffd5b92915050565b5f81831115610ebd575080610ea7565b5090919050565b80820165ffffffffffff8084169082161015610ea7575f5ffd5b5f60208284031215610eee575f5ffd5b5035919050565b5f5f60408385031215610f06575f5ffd5b50508035926020909101359150565b5f5f5f60608486031215610f27575f5ffd5b505081359360208301359350604090920135919050565b80356001600160a01b0381168114610f54575f5ffd5b919050565b5f60208284031215610f69575f5ffd5b610f7282610f3e565b9392505050565b5f5f5f60608486031215610f8b575f5ffd5b610f9484610f3e565b95602085013595506040909401359392505050565b602080825260139082015272119b1bdc1c195c8bd9dd5e4b5b9bdd0b5cd95d606a1b604082015260600190565b6001600160a01b039384168152919092166020820152604081019190915260600190565b602080825260169082015275119b1bdc1c195c8bdb9bdd0b585d5d1a1bdc9a5e995960521b604082015260600190565b60208082526010908201526f466c6f707065722f6e6f742d6c69766560801b604082015260600190565b5f60208284031215611064575f5ffd5b5051919050565b602080825260149082015273119b1bdc1c195c8bdb9bdd0b599a5b9a5cda195960621b604082015260600190565b634e487b7160e01b5f52601260045260245ffd5b5f826110c757634e487b7160e01b5f52601260045260245ffd5b50049056fea2646970667358221220f6daed018178740ade86c9baf2a2d4a5b18553f4f014a34d44709b3011bdbb5c64736f6c634300081e0033","linkReferences":{}},"methodIdentifiers":{"beg()":"7d780d82","bids(uint256)":"4423c5f1","cage()":"69245009","deal(uint256)":"c959c42b","dent(uint256,uint256,uint256)":"5ff3a382","deny(address)":"9c52a7f1","file(bytes32,uint256)":"29ae8114","gem()":"7bd2bea7","kick(address,uint256,uint256)":"b7e9cd24","kicks()":"cfdd3302","live()":"957aa58c","pad()":"9361266c","rely(address)":"65fae35e","tau()":"cfc4af55","tick(uint256)":"fc7b6aee","ttl()":"4e8b1dd5","vat()":"36569e77","vow()":"626cb3c5","wards(address)":"bf353dbb","yank(uint256)":"26e027f1"},"id":689}