{"abi":[{"type":"constructor","inputs":[{"name":"_DOMAIN_SEPARATOR","type":"bytes32","internalType":"bytes32"}],"stateMutability":"nonpayable"},{"type":"function","name":"DELEGATION_TYPEHASH","inputs":[],"outputs":[{"name":"","type":"bytes32","internalType":"bytes32"}],"stateMutability":"view"},{"type":"function","name":"getTypedDataHash","inputs":[{"name":"_delegation","type":"tuple","internalType":"struct SigUtils.Delegation","components":[{"name":"delegator","type":"uint256","internalType":"uint256"},{"name":"delegatee","type":"uint256","internalType":"uint256"},{"name":"nonce","type":"uint256","internalType":"uint256"},{"name":"deadline","type":"uint256","internalType":"uint256"}]}],"outputs":[{"name":"","type":"bytes32","internalType":"bytes32"}],"stateMutability":"view"}],"bytecode":{"object":"0x6080604052348015600e575f5ffd5b50604051610230380380610230833981016040819052602b916031565b5f556047565b5f602082840312156040575f5ffd5b5051919050565b6101dc806100545f395ff3fe608060405234801561000f575f5ffd5b5060043610610034575f3560e01c806340c51ea814610038578063e7a324dc1461005d575b5f5ffd5b61004b610046366004610118565b610071565b60405190815260200160405180910390f35b61004b5f5160206101875f395f51905f5281565b5f6100b95f54610080846100bf565b60405161190160f01b6020820152602281019290925260428201526062015b604051602081830303815290604052805160209091012090565b92915050565b5f6100b95f5160206101875f395f51905f525f1b835f015184602001518560400151866060015160405160200161009f959493929190948552602085019390935260408401919091526060830152608082015260a00190565b5f6080828403128015610129575f5ffd5b50604051608081016001600160401b038111828210171561015857634e487b7160e01b5f52604160045260245ffd5b604090815283358252602080850135908301528381013590820152606092830135928101929092525091905056fe9947d5709c1682eaa3946b2d84115c9c0d1c946b149d76e69b457458b42ea29ea264697066735822122096df856953d2be740089a5134d1eb72b42f635aefd689197f75afc9053524b2964736f6c634300081e0033","linkReferences":{}},"methodIdentifiers":{"DELEGATION_TYPEHASH()":"e7a324dc","getTypedDataHash((uint256,uint256,uint256,uint256))":"40c51ea8"},"id":848}