{"abi":[{"type":"function","name":"DOMAIN_SEPARATOR","inputs":[],"outputs":[{"name":"","type":"bytes32","internalType":"bytes32"}],"stateMutability":"view"},{"type":"function","name":"nonces","inputs":[{"name":"owner","type":"address","internalType":"address"}],"outputs":[{"name":"","type":"uint256","internalType":"uint256"}],"stateMutability":"view"},{"type":"function","name":"permit","inputs":[{"name":"owner","type":"address","internalType":"address"},{"name":"spender","type":"address","internalType":"address"},{"name":"value","type":"uint256","internalType":"uint256"},{"name":"deadline","type":"uint256","internalType":"uint256"},{"name":"v","type":"uint8","internalType":"uint8"},{"name":"r","type":"bytes32","internalType":"bytes32"},{"name":"s","type":"bytes32","internalType":"bytes32"}],"outputs":[],"stateMutability":"nonpayable"},{"type":"event","name":"Approval","inputs":[{"name":"owner","type":"address","indexed":true,"internalType":"address"},{"name":"spender","type":"address","indexed":true,"internalType":"address"},{"name":"amount","type":"uint256","indexed":false,"internalType":"uint256"}],"anonymous":false},{"type":"error","name":"ERC20InvalidSpender","inputs":[{"name":"spender","type":"address","internalType":"address"}]},{"type":"error","name":"ERC2612ExpiredSignature","inputs":[{"name":"deadline","type":"uint256","internalType":"uint256"}]},{"type":"error","name":"ERC2612InvalidSigner","inputs":[{"name":"signer","type":"address","internalType":"address"},{"name":"owner","type":"address","internalType":"address"}]},{"type":"error","name":"InvalidAccountNonce","inputs":[{"name":"account","type":"address","internalType":"address"},{"name":"currentNonce","type":"uint256","internalType":"uint256"}]}],"bytecode":{"object":"0x6080604052348015600e575f5ffd5b506105978061001c5f395ff3fe608060405234801561000f575f5ffd5b506004361061003f575f3560e01c80633644e515146100435780637ecebe001461005d578063d505accf14610070575b5f5ffd5b61004b610085565b60405190815260200160405180910390f35b61004b61006b3660046104db565b610093565b61008361007e3660046104f4565b6100a3565b005b5f61008e6101c9565b905090565b5f61009d826101da565b92915050565b834211156100cc5760405163313c898160e11b8152600481018590526024015b60405180910390fd5b5f6101507f6e71edae12b1b97f4d1f60370fef10105fa2faae0126114a169c64845d6126c98989896100fd8d610202565b6040805160208101969096526001600160a01b0394851690860152929091166060840152608083015260a082015260c0810187905260e0015b604051602081830303815290604052805160209091012090565b90505f61015c82610232565b90505f61016b82878787610244565b9050896001600160a01b0316816001600160a01b0316146101b2576040516325c0072360e11b81526001600160a01b0380831660048301528b1660248201526044016100c3565b6101bd8a8a8a61025a565b50505050505050505050565b5f61008e6101d5610272565b6102be565b5f61009d6101e66102f7565b836001600160a01b03165f908152602091909152604090205490565b5f61009d61020e6102f7565b836001600160a01b03165f9081526020919091526040902080546001810190915590565b5f61009d61023e610272565b8361032b565b5f6102518585858561035f565b95945050505050565b61026d6102656103a4565b8484846103d6565b505050565b5f61008e6040516020016102a5906020808252600b908201526a32b4b81732b4b8171b989960a91b604082015260600190565b6040516020818303038152906040528051906020012090565b60028101545f906001600160a01b0316301480156102df5750816001015446145b156102e957505490565b61009d8261046b565b919050565b5f61008e6040516020016102a5906020808252600c908201526b32b4b81732b93197191b189960a11b604082015260600190565b5f610358610338846102be565b8360405161190160f01b8152600281019290925260228201526042902090565b9392505050565b5f604051855f5260ff851660205283604052826060526020600160805f60015afa5191503d61039557638baa579f5f526004601cfd5b5f606052604052949350505050565b5f61008e6040516020016102a5906020808252600a908201526906569702e6572632e32360b41b604082015260600190565b6001600160a01b03821661040857604051634a1406b160e11b81526001600160a01b03831660048201526024016100c3565b6001600160a01b038381165f81815260058701602090815260408083209487168084529482529182902085905590518481527f8c5be1e5ebec7d5bd14f71427d1e84f3dd0314c0f7b2291e5b200ac8c7c3b925910160405180910390a350505050565b60038101546004820154604080517f8b73c3c69bb8fe3d512ecc4cf759cc79239f7b179b0ffacaa9a75d522b39400f60208201529081019290925260608201524660808201523060a08201525f9061009d9060c001610136565b80356001600160a01b03811681146102f2575f5ffd5b5f602082840312156104eb575f5ffd5b610358826104c5565b5f5f5f5f5f5f5f60e0888a03121561050a575f5ffd5b610513886104c5565b9650610521602089016104c5565b95506040880135945060608801359350608088013560ff81168114610544575f5ffd5b9699959850939692959460a0840135945060c0909301359291505056fea26469706673582212209c5619fc96e18f52c9642102b8294b9786a2e955127390668fa25e374c1d3c2c64736f6c634300081e0033","linkReferences":{}},"methodIdentifiers":{"DOMAIN_SEPARATOR()":"3644e515","nonces(address)":"7ecebe00","permit(address,address,uint256,uint256,uint8,bytes32,bytes32)":"d505accf"},"id":1334}