{"abi":[{"type":"function","name":"getAllChainOwners","inputs":[],"outputs":[{"name":"","type":"address[]","internalType":"address[]"}],"stateMutability":"view"},{"type":"function","name":"getApy","inputs":[],"outputs":[{"name":"","type":"uint64","internalType":"uint64"}],"stateMutability":"view"},{"type":"function","name":"getBrotliCompressionLevel","inputs":[],"outputs":[{"name":"","type":"uint64","internalType":"uint64"}],"stateMutability":"view"},{"type":"function","name":"getInfraFeeAccount","inputs":[],"outputs":[{"name":"","type":"address","internalType":"address"}],"stateMutability":"view"},{"type":"function","name":"getNetworkFeeAccount","inputs":[],"outputs":[{"name":"","type":"address","internalType":"address"}],"stateMutability":"view"},{"type":"function","name":"getScheduledUpgrade","inputs":[],"outputs":[{"name":"arbosVersion","type":"uint64","internalType":"uint64"},{"name":"scheduledForTimestamp","type":"uint64","internalType":"uint64"}],"stateMutability":"view"},{"type":"function","name":"getShareCount","inputs":[],"outputs":[{"name":"","type":"uint256","internalType":"uint256"}],"stateMutability":"view"},{"type":"function","name":"getSharePrice","inputs":[],"outputs":[{"name":"","type":"uint64","internalType":"uint64"}],"stateMutability":"view"},{"type":"function","name":"isChainOwner","inputs":[{"name":"addr","type":"address","internalType":"address"}],"outputs":[{"name":"","type":"bool","internalType":"bool"}],"stateMutability":"view"},{"type":"function","name":"rectifyChainOwner","inputs":[{"name":"ownerToRectify","type":"address","internalType":"address"}],"outputs":[],"stateMutability":"nonpayable"},{"type":"function","name":"setAllChainOwners","inputs":[{"name":"newAllOwners","type":"address[]","internalType":"address[]"}],"outputs":[{"name":"","type":"bool","internalType":"bool"}],"stateMutability":"nonpayable"},{"type":"function","name":"setApy","inputs":[{"name":"newApy","type":"uint64","internalType":"uint64"}],"outputs":[{"name":"","type":"bool","internalType":"bool"}],"stateMutability":"nonpayable"},{"type":"function","name":"setChainOwner","inputs":[{"name":"newOwner","type":"address","internalType":"address"}],"outputs":[{"name":"","type":"bool","internalType":"bool"}],"stateMutability":"nonpayable"},{"type":"function","name":"setCompressionLvl","inputs":[{"name":"lvl","type":"uint64","internalType":"uint64"}],"outputs":[{"name":"","type":"bool","internalType":"bool"}],"stateMutability":"nonpayable"},{"type":"function","name":"setInfraFreeAAccount","inputs":[{"name":"newAccount","type":"address","internalType":"address"}],"outputs":[{"name":"","type":"bool","internalType":"bool"}],"stateMutability":"nonpayable"},{"type":"function","name":"setNetworkFeeAccount","inputs":[{"name":"newAccount","type":"address","internalType":"address"}],"outputs":[{"name":"","type":"bool","internalType":"bool"}],"stateMutability":"nonpayable"},{"type":"function","name":"setShareCount","inputs":[{"name":"newCount","type":"uint256","internalType":"uint256"}],"outputs":[{"name":"","type":"bool","internalType":"bool"}],"stateMutability":"nonpayable"},{"type":"function","name":"setSharePrice","inputs":[{"name":"newSharePrice","type":"uint64","internalType":"uint64"}],"outputs":[{"name":"","type":"bool","internalType":"bool"}],"stateMutability":"nonpayable"},{"type":"function","name":"setVersionAndTime","inputs":[{"name":"arbosVersion","type":"uint64","internalType":"uint64"},{"name":"scheduledForTimestamp","type":"uint64","internalType":"uint64"}],"outputs":[{"name":"","type":"bool","internalType":"bool"}],"stateMutability":"nonpayable"},{"type":"event","name":"ChainOwnerRectified","inputs":[{"name":"rectifiedOwner","type":"address","indexed":false,"internalType":"address"}],"anonymous":false}],"bytecode":{"object":"0x6080604052348015600e575f5ffd5b506107518061001c5f395ff3fe608060405234801561000f575f5ffd5b50600436106100ef575f3560e01c80630b53125d146100f35780631c0b915b1461013b5780631fb922e01461014c57806322d499c7146101715780632590f6231461018957806326ef7f68146101bb5780632d9125e9146101dc5780633d1865c8146101f6578063516b4e0f146102295780635b1dac601461023e5780636618a365146102565780636fe863731461029457806381ef944c146102a9578063cb71b0e3146102d3578063cc725a6e146102e6578063d18fb87b14610323578063eb9e40bc14610360578063ee95a82414610376578063fcdde2b414610387575b5f5ffd5b610126610101366004610533565b600480546001600160a01b0319166001600160a01b0392909216919091179055600190565b60405190151581526020015b60405180910390f35b600654604051908152602001610132565b6007546001600160401b03165b6040516001600160401b039091168152602001610132565b600454600160a01b90046001600160401b0316610159565b610126610197366004610533565b5f80546001600160a01b0319166001600160a01b0392909216919091179055600190565b6101266101c9366004610533565b5f546001600160a01b0391821691161490565b6003546001600160a01b03165b6040516101329190610553565b61012661020436600461057d565b600780546001600160401b0319166001600160401b0392909216919091179055600190565b6102316103ba565b6040516101329190610596565b600554600160801b90046001600160401b0316610159565b6101266102643660046105e1565b600580546001600160401b03838116600160401b026001600160801b031990921690851617179055600192915050565b6102a76102a2366004610533565b61041a565b005b600554604080516001600160401b038084168252600160401b909304909216602083015201610132565b6101266102e1366004610626565b610454565b6101266102f436600461057d565b600480546001600160401b03909216600160a01b02600160a01b600160e01b0319909216919091179055600190565b61012661033136600461057d565b600580546001600160401b03909216600160801b02600160801b600160c01b0319909216919091179055600190565b61012661036e3660046106f0565b600655600190565b6004546001600160a01b03166101e9565b610126610395366004610533565b600380546001600160a01b0319166001600160a01b0392909216919091179055600190565b6060600280548060200260200160405190810160405280929190818152602001828054801561041057602002820191905f5260205f20905b81546001600160a01b031681526001909101906020018083116103f2575b5050505050905090565b7f14c7c9cb05f84448a0f2fc5775a4048a7210cb040a35fd84cd45b2b863d04d82816040516104499190610553565b60405180910390a150565b5f610460600183610469565b50600192915050565b5f805b82518110156104aa576104a183828151811061048a5761048a610707565b6020026020010151856104b490919063ffffffff16565b5060010161046c565b5060019392505050565b6001600160a01b0381165f9081526020839052604081205461046057506001828101805480830182555f828152602080822090920180546001600160a01b0319166001600160a01b0396909616958617905591549382529390935260409092205590565b80356001600160a01b038116811461052e575f5ffd5b919050565b5f60208284031215610543575f5ffd5b61054c82610518565b9392505050565b6001600160a01b0391909116815260200190565b80356001600160401b038116811461052e575f5ffd5b5f6020828403121561058d575f5ffd5b61054c82610567565b602080825282518282018190525f918401906040840190835b818110156105d65783516001600160a01b03168352602093840193909201916001016105af565b509095945050505050565b5f5f604083850312156105f2575f5ffd5b6105fb83610567565b915061060960208401610567565b90509250929050565b634e487b7160e01b5f52604160045260245ffd5b5f60208284031215610636575f5ffd5b81356001600160401b0381111561064b575f5ffd5b8201601f8101841361065b575f5ffd5b80356001600160401b0381111561067457610674610612565b604051600582901b90603f8201601f191681016001600160401b03811182821017156106a2576106a2610612565b6040529182526020818401810192908101878411156106bf575f5ffd5b6020850194505b838510156106e5576106d785610518565b8152602094850194016106c6565b509695505050505050565b5f60208284031215610700575f5ffd5b5035919050565b634e487b7160e01b5f52603260045260245ffdfea26469706673582212201c861d8c38a8abcd0011826e34a5d7a4bafe576630c1dbf6f275966ab0082eb664736f6c634300081e0033","linkReferences":{}},"methodIdentifiers":{"getAllChainOwners()":"516b4e0f","getApy()":"1fb922e0","getBrotliCompressionLevel()":"22d499c7","getInfraFeeAccount()":"ee95a824","getNetworkFeeAccount()":"2d9125e9","getScheduledUpgrade()":"81ef944c","getShareCount()":"1c0b915b","getSharePrice()":"5b1dac60","isChainOwner(address)":"26ef7f68","rectifyChainOwner(address)":"6fe86373","setAllChainOwners(address[])":"cb71b0e3","setApy(uint64)":"3d1865c8","setChainOwner(address)":"2590f623","setCompressionLvl(uint64)":"cc725a6e","setInfraFreeAAccount(address)":"0b53125d","setNetworkFeeAccount(address)":"fcdde2b4","setShareCount(uint256)":"eb9e40bc","setSharePrice(uint64)":"d18fb87b","setVersionAndTime(uint64,uint64)":"6618a365"},"id":1407}