{"abi":[{"type":"function","name":"approve","inputs":[{"name":"to","type":"address","internalType":"address"},{"name":"tokenId","type":"uint256","internalType":"uint256"}],"outputs":[],"stateMutability":"payable"},{"type":"function","name":"balanceOf","inputs":[{"name":"owner","type":"address","internalType":"address"}],"outputs":[{"name":"","type":"uint256","internalType":"uint256"}],"stateMutability":"view"},{"type":"function","name":"facetFuncs","inputs":[],"outputs":[{"name":"funcs","type":"bytes4[]","internalType":"bytes4[]"}],"stateMutability":"pure"},{"type":"function","name":"facetInterfaces","inputs":[],"outputs":[{"name":"interfaces","type":"bytes4[]","internalType":"bytes4[]"}],"stateMutability":"pure"},{"type":"function","name":"facetMetadata","inputs":[],"outputs":[{"name":"name","type":"string","internalType":"string"},{"name":"interfaces","type":"bytes4[]","internalType":"bytes4[]"},{"name":"functions","type":"bytes4[]","internalType":"bytes4[]"}],"stateMutability":"pure"},{"type":"function","name":"facetName","inputs":[],"outputs":[{"name":"name","type":"string","internalType":"string"}],"stateMutability":"pure"},{"type":"function","name":"getApproved","inputs":[{"name":"tokenId","type":"uint256","internalType":"uint256"}],"outputs":[{"name":"","type":"address","internalType":"address"}],"stateMutability":"view"},{"type":"function","name":"isApprovedForAll","inputs":[{"name":"owner","type":"address","internalType":"address"},{"name":"operator","type":"address","internalType":"address"}],"outputs":[{"name":"","type":"bool","internalType":"bool"}],"stateMutability":"view"},{"type":"function","name":"ownerOf","inputs":[{"name":"tokenId","type":"uint256","internalType":"uint256"}],"outputs":[{"name":"","type":"address","internalType":"address"}],"stateMutability":"view"},{"type":"function","name":"safeTransferFrom","inputs":[{"name":"from","type":"address","internalType":"address"},{"name":"to","type":"address","internalType":"address"},{"name":"tokenId","type":"uint256","internalType":"uint256"}],"outputs":[],"stateMutability":"payable"},{"type":"function","name":"safeTransferFrom","inputs":[{"name":"from","type":"address","internalType":"address"},{"name":"to","type":"address","internalType":"address"},{"name":"tokenId","type":"uint256","internalType":"uint256"},{"name":"data","type":"bytes","internalType":"bytes"}],"outputs":[],"stateMutability":"payable"},{"type":"function","name":"setApprovalForAll","inputs":[{"name":"operator","type":"address","internalType":"address"},{"name":"approved","type":"bool","internalType":"bool"}],"outputs":[],"stateMutability":"nonpayable"},{"type":"function","name":"transferFrom","inputs":[{"name":"from","type":"address","internalType":"address"},{"name":"to","type":"address","internalType":"address"},{"name":"tokenId","type":"uint256","internalType":"uint256"}],"outputs":[],"stateMutability":"payable"},{"type":"event","name":"Approval","inputs":[{"name":"owner","type":"address","indexed":true,"internalType":"address"},{"name":"account","type":"address","indexed":true,"internalType":"address"},{"name":"id","type":"uint256","indexed":true,"internalType":"uint256"}],"anonymous":false},{"type":"event","name":"ApprovalForAll","inputs":[{"name":"owner","type":"address","indexed":true,"internalType":"address"},{"name":"operator","type":"address","indexed":true,"internalType":"address"},{"name":"isApproved","type":"bool","indexed":false,"internalType":"bool"}],"anonymous":false},{"type":"event","name":"Transfer","inputs":[{"name":"from","type":"address","indexed":true,"internalType":"address"},{"name":"to","type":"address","indexed":true,"internalType":"address"},{"name":"id","type":"uint256","indexed":true,"internalType":"uint256"}],"anonymous":false},{"type":"error","name":"ERC721IncorrectOwner","inputs":[{"name":"sender","type":"address","internalType":"address"},{"name":"tokenId","type":"uint256","internalType":"uint256"},{"name":"owner","type":"address","internalType":"address"}]},{"type":"error","name":"ERC721InsufficientApproval","inputs":[{"name":"operator","type":"address","internalType":"address"},{"name":"tokenId","type":"uint256","internalType":"uint256"}]},{"type":"error","name":"ERC721InvalidOperator","inputs":[{"name":"operator","type":"address","internalType":"address"}]},{"type":"error","name":"ERC721InvalidOwner","inputs":[{"name":"owner","type":"address","internalType":"address"}]},{"type":"error","name":"ERC721InvalidReceiver","inputs":[{"name":"receiver","type":"address","internalType":"address"}]},{"type":"error","name":"ERC721NonexistentToken","inputs":[{"name":"tokenId","type":"uint256","internalType":"uint256"}]}],"bytecode":{"object":"0x6080604052348015600e575f5ffd5b50610f458061001c5f395ff3fe6080604052600436106100a1575f3560e01c8063081812fc146100a5578063095ea7b3146100da57806323b872dd146100ef5780632ea808261461010257806342842e0e14610123578063574a4cff146101365780635b6f4d011461014a5780636352211e1461016b57806370a082311461018a578063a22cb465146101b7578063b88d4fde146101d6578063e985e9c5146101e9578063f10d7a7514610218575b5f5ffd5b3480156100b0575f5ffd5b506100c46100bf366004610ba8565b61023b565b6040516100d19190610bbf565b60405180910390f35b6100ed6100e8366004610bee565b61024b565b005b6100ed6100fd366004610c16565b610259565b34801561010d575f5ffd5b50610116610269565b6040516100d19190610c94565b6100ed610131366004610c16565b6102c1565b348015610141575f5ffd5b506101166102cc565b348015610155575f5ffd5b5061015e610501565b6040516100d19190610cd4565b348015610176575f5ffd5b506100c4610185366004610ba8565b610526565b348015610195575f5ffd5b506101a96101a4366004610ce6565b610530565b6040519081526020016100d1565b3480156101c2575f5ffd5b506100ed6101d1366004610cff565b61053a565b6100ed6101e4366004610d38565b610544565b3480156101f4575f5ffd5b50610208610203366004610dcb565b61058c565b60405190151581526020016100d1565b348015610223575f5ffd5b5061022c61059e565b6040516100d193929190610dfc565b5f610245826105c6565b92915050565b61025582826105f0565b5050565b610264838383610602565b505050565b604080516001808252818301909252606091602080830190803683370190505090506380ac58cd60e01b815f815181106102a5576102a5610e3e565b6001600160e01b03199092166020928302919091019091015290565b610264838383610615565b604080516009808252610140820190925260609160208201610120803683370190505090506370a0823160e01b815f8151811061030b5761030b610e3e565b6001600160e01b03199092166020928302919091019091015280516331a9108f60e11b908290600190811061034257610342610e3e565b60200260200101906001600160e01b03191690816001600160e01b031916815250507fb88d4fde60196325a28bb7f99a2582e0b46de55b18761e960c14ad7a320994658160028151811061039857610398610e3e565b60200260200101906001600160e01b03191690816001600160e01b031916815250507f42842e0eb38857a7775b4e7364b2775df7325074d088e7fb39590cd6281184ed816003815181106103ee576103ee610e3e565b6001600160e01b03199092166020928302919091019091015280516323b872dd60e01b908290600490811061042557610425610e3e565b6001600160e01b031990921660209283029190910190910152805163095ea7b360e01b908290600590811061045c5761045c610e3e565b6001600160e01b031990921660209283029190910190910152805163a22cb46560e01b908290600690811061049357610493610e3e565b6001600160e01b031990921660209283029190910190910152805163020604bf60e21b90829060079081106104ca576104ca610e3e565b6001600160e01b031990921660209283029190910190910152805163e985e9c560e01b90829060089081106102a5576102a5610e3e565b60408051808201909152600b81526a115490cdcc8c519858d95d60aa1b602082015290565b5f61024582610637565b5f61024582610649565b6102558282610674565b61058585858585858080601f0160208091040260200160405190810160405280939291908181526020018383808284375f9201919091525061068692505050565b5050505050565b5f61059783836106a0565b9392505050565b60608060606105ab610501565b92506105b5610269565b91506105bf6102cc565b9050909192565b5f6102456105d26106dc565b5f84815260069190910160205260409020546001600160a01b031690565b6102556105fb6106dc565b838361072d565b61026461060d6106dc565b8484846107f9565b6102646106206106dc565b84848460405180602001604052805f815250610a17565b5f6102456106436106dc565b83610af3565b5f6102456106556106dc565b836001600160a01b03165f908152600591909101602052604090205490565b61025561067f6106dc565b8383610b11565b61069a6106916106dc565b85858585610a17565b50505050565b5f6105976106ac6106dc565b6001600160a01b038086165f90815260079290920160209081526040808420928716845291905290205460ff1690565b5f61072860405160200161070f906020808252600b908201526a6569702e6572632e37323160a81b604082015260600190565b6040516020818303038152906040528051906020012090565b905090565b6001600160a01b03821661075f5781604051630b61174360e31b81526004016107569190610bbf565b60405180910390fd5b5f61076a8483610af3565b90506001600160a01b038116331461079b573382826040516364283d7b60e01b815260040161075693929190610e52565b5f82815260068501602052604080822080546001600160a01b0319166001600160a01b0387811691821790925591518593918516917f8c5be1e5ebec7d5bd14f71427d1e84f3dd0314c0f7b2291e5b200ac8c7c3b92591a450505050565b6001600160a01b03831661082257826040516322718ad960e21b81526004016107569190610bbf565b6001600160a01b03821661084b57816040516322718ad960e21b81526004016107569190610bbf565b5f81815260018501602052604090205461087b57604051637e27328960e01b815260048101829052602401610756565b5f8181526004850160205260409020546001600160a01b0390811690841681146108be578382826040516364283d7b60e01b815260040161075693929190610e52565b6001600160a01b03841633148015906108ef57505f8281526006860160205260409020546001600160a01b03163314155b801561092057506001600160a01b0384165f908152600786016020908152604080832033845290915290205460ff16155b156109475760405163177e802f60e01b815233600482015260248101839052604401610756565b5f828152600686016020908152604080832080546001600160a01b031990811690915560048901835281842080546001600160a01b0389811691909316179055871683526005880190915281208054916109a083610e89565b90915550506001600160a01b0383165f90815260058601602052604081208054916109ca83610e9e565b919050555081836001600160a01b0316856001600160a01b03167fddf252ad1be2c89b69c2b068fc378daa952ba7f163c4a11628f55a4df523b3ef60405160405180910390a45050505050565b6001600160a01b0383163b15610ae757604051630a85bd0160e11b81526001600160a01b0384169063150b7a0290610a59903390889087908790600401610eb6565b6020604051808303815f875af1925050508015610a93575060408051601f3d908101601f19168201909252610a9091810190610ee8565b60015b610ab25782604051633250574960e11b81526004016107569190610bbf565b6001600160e01b03198116630a85bd0160e11b14610ae55783604051633250574960e11b81526004016107569190610bbf565b505b610585858585856107f9565b5f90815260049190910160205260409020546001600160a01b031690565b6001600160a01b038216610b3a5781604051630b61174360e31b81526004016107569190610bbf565b335f81815260078501602090815260408083206001600160a01b03871680855290835292819020805460ff191686151590811790915590519081529192917f17307eab39ab6107e8899845ad3d59bd9653f200f220920489ca2b5937696c31910160405180910390a3505050565b5f60208284031215610bb8575f5ffd5b5035919050565b6001600160a01b0391909116815260200190565b80356001600160a01b0381168114610be9575f5ffd5b919050565b5f5f60408385031215610bff575f5ffd5b610c0883610bd3565b946020939093013593505050565b5f5f5f60608486031215610c28575f5ffd5b610c3184610bd3565b9250610c3f60208501610bd3565b929592945050506040919091013590565b5f8151808452602084019350602083015f5b82811015610c8a5781516001600160e01b031916865260209586019590910190600101610c62565b5093949350505050565b602081525f6105976020830184610c50565b5f81518084528060208401602086015e5f602082860101526020601f19601f83011685010191505092915050565b602081525f6105976020830184610ca6565b5f60208284031215610cf6575f5ffd5b61059782610bd3565b5f5f60408385031215610d10575f5ffd5b610d1983610bd3565b915060208301358015158114610d2d575f5ffd5b809150509250929050565b5f5f5f5f5f60808688031215610d4c575f5ffd5b610d5586610bd3565b9450610d6360208701610bd3565b93506040860135925060608601356001600160401b03811115610d84575f5ffd5b8601601f81018813610d94575f5ffd5b80356001600160401b03811115610da9575f5ffd5b886020828401011115610dba575f5ffd5b959894975092955050506020019190565b5f5f60408385031215610ddc575f5ffd5b610de583610bd3565b9150610df360208401610bd3565b90509250929050565b606081525f610e0e6060830186610ca6565b8281036020840152610e208186610c50565b90508281036040840152610e348185610c50565b9695505050505050565b634e487b7160e01b5f52603260045260245ffd5b6001600160a01b0393841681526020810192909252909116604082015260600190565b634e487b7160e01b5f52601160045260245ffd5b5f81610e9757610e97610e75565b505f190190565b5f60018201610eaf57610eaf610e75565b5060010190565b6001600160a01b03858116825284166020820152604081018390526080606082018190525f90610e3490830184610ca6565b5f60208284031215610ef8575f5ffd5b81516001600160e01b031981168114610597575f5ffdfea26469706673582212203c0f2bf6742999257e621b84ef13982b6843ed390a0537f5874bcf7c36401dba64736f6c634300081e0033","linkReferences":{}},"methodIdentifiers":{"approve(address,uint256)":"095ea7b3","balanceOf(address)":"70a08231","facetFuncs()":"574a4cff","facetInterfaces()":"2ea80826","facetMetadata()":"f10d7a75","facetName()":"5b6f4d01","getApproved(uint256)":"081812fc","isApprovedForAll(address,address)":"e985e9c5","ownerOf(uint256)":"6352211e","safeTransferFrom(address,address,uint256)":"42842e0e","safeTransferFrom(address,address,uint256,bytes)":"b88d4fde","setApprovalForAll(address,bool)":"a22cb465","transferFrom(address,address,uint256)":"23b872dd"},"id":1348}