{"abi":[{"type":"function","name":"isValidIndex","inputs":[{"name":"length","type":"uint256","internalType":"uint256"},{"name":"index","type":"uint256","internalType":"uint256"}],"outputs":[{"name":"isValid","type":"bool","internalType":"bool"}],"stateMutability":"pure"},{"type":"error","name":"IndexOutOfBounds","inputs":[{"name":"length","type":"uint256","internalType":"uint256"},{"name":"invalidIndex","type":"uint256","internalType":"uint256"}]}],"bytecode":{"object":"0x6101e161004d600b8282823980515f1a6073146041577f4e487b71000000000000000000000000000000000000000000000000000000005f525f60045260245ffd5b305f52607381538281f3fe7300000000000000000000000000000000000000003014608060405260043610610034575f3560e01c806365e8faf614610038575b5f5ffd5b610052600480360381019061004d9190610104565b610068565b60405161005f919061015c565b60405180910390f35b5f610073838361007b565b905092915050565b5f818310156100c35782826040517f63a056dd0000000000000000000000000000000000000000000000000000000081526004016100ba929190610184565b60405180910390fd5b6001905092915050565b5f5ffd5b5f819050919050565b6100e3816100d1565b81146100ed575f5ffd5b50565b5f813590506100fe816100da565b92915050565b5f5f6040838503121561011a576101196100cd565b5b5f610127858286016100f0565b9250506020610138858286016100f0565b9150509250929050565b5f8115159050919050565b61015681610142565b82525050565b5f60208201905061016f5f83018461014d565b92915050565b61017e816100d1565b82525050565b5f6040820190506101975f830185610175565b6101a46020830184610175565b939250505056fea2646970667358221220d0805266f68fddb50ac676c5314e08a5198ef40db53844a59b32a98b80b6f34464736f6c634300081c0033","linkReferences":{}},"methodIdentifiers":{"isValidIndex(uint256,uint256)":"65e8faf6"},"id":50}