{"abi":[{"type":"constructor","inputs":[{"name":"pkgInit","type":"tuple","internalType":"struct IERC20PermitMintBurnLockedOwnableDFPkg.PkgInit","components":[{"name":"erc20Facet","type":"address","internalType":"contract IFacet"},{"name":"erc5267Facet","type":"address","internalType":"contract IFacet"},{"name":"erc2612Facet","type":"address","internalType":"contract IFacet"},{"name":"erc20MintBurnOwnableFacet","type":"address","internalType":"contract IFacet"},{"name":"diamondFactory","type":"address","internalType":"contract IDiamondPackageCallBackFactory"}]}],"stateMutability":"nonpayable"},{"type":"function","name":"ERC20_MINT_BURN_OWNABLE_FACET","inputs":[],"outputs":[{"name":"","type":"address","internalType":"contract IFacet"}],"stateMutability":"view"},{"type":"function","name":"calcSalt","inputs":[{"name":"pkgArgs","type":"bytes","internalType":"bytes"}],"outputs":[{"name":"salt","type":"bytes32","internalType":"bytes32"}],"stateMutability":"pure"},{"type":"function","name":"deployToken","inputs":[{"name":"name","type":"string","internalType":"string"},{"name":"symbol","type":"string","internalType":"string"},{"name":"decimals","type":"uint8","internalType":"uint8"},{"name":"owner","type":"address","internalType":"address"},{"name":"optionalSalt","type":"bytes32","internalType":"bytes32"}],"outputs":[{"name":"tokenAddress","type":"address","internalType":"address"}],"stateMutability":"nonpayable"},{"type":"function","name":"diamondConfig","inputs":[],"outputs":[{"name":"config","type":"tuple","internalType":"struct IDiamondFactoryPackage.DiamondConfig","components":[{"name":"facetCuts","type":"tuple[]","internalType":"struct IDiamond.FacetCut[]","components":[{"name":"facetAddress","type":"address","internalType":"address"},{"name":"action","type":"uint8","internalType":"enum IDiamond.FacetCutAction"},{"name":"functionSelectors","type":"bytes4[]","internalType":"bytes4[]"}]},{"name":"interfaces","type":"bytes4[]","internalType":"bytes4[]"}]}],"stateMutability":"view"},{"type":"function","name":"facetAddresses","inputs":[],"outputs":[{"name":"facetAddresses_","type":"address[]","internalType":"address[]"}],"stateMutability":"view"},{"type":"function","name":"facetCuts","inputs":[],"outputs":[{"name":"facetCuts_","type":"tuple[]","internalType":"struct IDiamond.FacetCut[]","components":[{"name":"facetAddress","type":"address","internalType":"address"},{"name":"action","type":"uint8","internalType":"enum IDiamond.FacetCutAction"},{"name":"functionSelectors","type":"bytes4[]","internalType":"bytes4[]"}]}],"stateMutability":"view"},{"type":"function","name":"facetInterfaces","inputs":[],"outputs":[{"name":"interfaces","type":"bytes4[]","internalType":"bytes4[]"}],"stateMutability":"pure"},{"type":"function","name":"initAccount","inputs":[{"name":"initArgs","type":"bytes","internalType":"bytes"}],"outputs":[],"stateMutability":"nonpayable"},{"type":"function","name":"packageMetadata","inputs":[],"outputs":[{"name":"name_","type":"string","internalType":"string"},{"name":"interfaces","type":"bytes4[]","internalType":"bytes4[]"},{"name":"facets","type":"address[]","internalType":"address[]"}],"stateMutability":"view"},{"type":"function","name":"packageName","inputs":[],"outputs":[{"name":"name_","type":"string","internalType":"string"}],"stateMutability":"pure"},{"type":"function","name":"postDeploy","inputs":[{"name":"","type":"address","internalType":"address"}],"outputs":[{"name":"","type":"bool","internalType":"bool"}],"stateMutability":"nonpayable"},{"type":"function","name":"processArgs","inputs":[{"name":"pkgArgs","type":"bytes","internalType":"bytes"}],"outputs":[{"name":"processedPkgArgs","type":"bytes","internalType":"bytes"}],"stateMutability":"pure"},{"type":"function","name":"updatePkg","inputs":[{"name":"","type":"address","internalType":"address"},{"name":"","type":"bytes","internalType":"bytes"}],"outputs":[{"name":"","type":"bool","internalType":"bool"}],"stateMutability":"nonpayable"},{"type":"error","name":"StringTooLong","inputs":[{"name":"str","type":"string","internalType":"string"}]}],"bytecode":{"object":"0x610120604052348015610010575f5ffd5b5060405161189038038061189083398101604081905261002f91610088565b80516001600160a01b0390811660809081526020830151821660a0526040830151821660c0526060830151821660e052909101511661010052610121565b80516001600160a01b0381168114610083575f5ffd5b919050565b5f60a0828403128015610099575f5ffd5b5060405160a081016001600160401b03811182821017156100c857634e487b7160e01b5f52604160045260245ffd5b6040526100d48361006d565b81526100e26020840161006d565b60208201526100f36040840161006d565b60408201526101046060840161006d565b60608201526101156080840161006d565b60808201529392505050565b60805160a05160c05160e051610100516116f361019d5f395f6105a901525f8181610180015281816104ae015281816109b101526109f701525f818161045a015281816108bd015261090301525f8181610406015281816107c9015261080f01525f81816103b3015281816106eb015261071c01526116f35ff3fe608060405234801561000f575f5ffd5b50600436106100ad575f3560e01c80632ea80826146100b157806352ef6b2c146100cf57806365d375b3146100e457806370068fcf146100f9578063870d48381461011d57806387c3adb31461013257806388b79b401461015057806397560f041461017b578063a4b3ad35146101a2578063a9089235146101b7578063abc8b346146101ca578063d82be56e146101d2578063f45469e7146101f3575b5f5ffd5b6100b961020a565b6040516100c69190610e01565b60405180910390f35b6100d761038e565b6040516100c69190610e53565b6100ec610503565b6040516100c69190610e79565b61010d610107366004610f62565b50600190565b60405190151581526020016100c6565b61013061012b366004611063565b61053e565b005b610143610140366004611063565b90565b6040516100c691906110ca565b61016361015e3660046110ea565b6105a6565b6040516001600160a01b0390911681526020016100c6565b6101637f000000000000000000000000000000000000000000000000000000000000000081565b6101aa610690565b6040516100c69190611178565b61010d6101c5366004611223565b610a9b565b610143610aa4565b6101e56101e0366004611063565b610ac4565b6040519081526020016100c6565b6101fb610af3565b6040516100c69392919061126f565b60408051600680825260e082019092526060916020820160c0803683370190505090506336372b0760e01b815f81518110610247576102476112a7565b60200260200101906001600160e01b03191690816001600160e01b0319168152505063a219a02560e01b81600181518110610284576102846112a7565b6001600160e01b0319909216602092830291909101909101528051634a17459160e11b90829060029081106102bb576102bb6112a7565b60200260200101906001600160e01b03191690816001600160e01b03191681525050634ec7fbed60e11b816003815181106102f8576102f86112a7565b60200260200101906001600160e01b03191690816001600160e01b031916815250506342580cb760e11b81600481518110610335576103356112a7565b60200260200101906001600160e01b03191690816001600160e01b0319168152505063dd0390b560e01b81600581518110610372576103726112a7565b6001600160e01b03199092166020928302919091019091015290565b60408051600480825260a08201909252606091602082016080803683370190505090507f0000000000000000000000000000000000000000000000000000000000000000815f815181106103e4576103e46112a7565b60200260200101906001600160a01b031690816001600160a01b0316815250507f000000000000000000000000000000000000000000000000000000000000000081600181518110610438576104386112a7565b60200260200101906001600160a01b031690816001600160a01b0316815250507f00000000000000000000000000000000000000000000000000000000000000008160028151811061048c5761048c6112a7565b60200260200101906001600160a01b031690816001600160a01b0316815250507f0000000000000000000000000000000000000000000000000000000000000000816003815181106104e0576104e06112a7565b60200260200101906001600160a01b031690816001600160a01b03168152505090565b6040805180820190915260608082526020820152604051806040016040528061052a610690565b815260200161053761020a565b9052919050565b5f818060200190518101906105539190611308565b905061056b815f015182602001518360400151610b1b565b610591815f0151604051806040016040528060018152602001603160f81b815250610b33565b6105a2816060015162015180610b45565b5050565b5f7f00000000000000000000000000000000000000000000000000000000000000006001600160a01b031663e97fac05306040518060a001604052808a81526020018981526020018860ff168152602001876001600160a01b031681526020018681525060405160200161061a91906113ce565b6040516020818303038152906040526040518363ffffffff1660e01b815260040161064692919061143c565b6020604051808303815f875af1158015610662573d5f5f3e3d5ffd5b505050506040513d601f19601f82011682018060405250810190610686919061145f565b9695505050505050565b60408051600480825260a08201909252606091816020015b60408051606080820183525f8083526020830152918101919091528152602001906001900390816106a85790505060408051606081019091526001600160a01b037f0000000000000000000000000000000000000000000000000000000000000000168152909150602081015f81526020017f00000000000000000000000000000000000000000000000000000000000000006001600160a01b031663574a4cff6040518163ffffffff1660e01b81526004015f60405180830381865afa158015610775573d5f5f3e3d5ffd5b505050506040513d5f823e601f3d908101601f1916820160405261079c919081019061147a565b815250815f815181106107b1576107b16112a7565b602002602001018190525060405180606001604052807f00000000000000000000000000000000000000000000000000000000000000006001600160a01b031681526020015f600281111561080857610808610e65565b81526020017f00000000000000000000000000000000000000000000000000000000000000006001600160a01b031663574a4cff6040518163ffffffff1660e01b81526004015f60405180830381865afa158015610868573d5f5f3e3d5ffd5b505050506040513d5f823e601f3d908101601f1916820160405261088f919081019061147a565b815250816001815181106108a5576108a56112a7565b602002602001018190525060405180606001604052807f00000000000000000000000000000000000000000000000000000000000000006001600160a01b031681526020015f60028111156108fc576108fc610e65565b81526020017f00000000000000000000000000000000000000000000000000000000000000006001600160a01b031663574a4cff6040518163ffffffff1660e01b81526004015f60405180830381865afa15801561095c573d5f5f3e3d5ffd5b505050506040513d5f823e601f3d908101601f19168201604052610983919081019061147a565b81525081600281518110610999576109996112a7565b602002602001018190525060405180606001604052807f00000000000000000000000000000000000000000000000000000000000000006001600160a01b031681526020015f60028111156109f0576109f0610e65565b81526020017f00000000000000000000000000000000000000000000000000000000000000006001600160a01b031663574a4cff6040518163ffffffff1660e01b81526004015f60405180830381865afa158015610a50573d5f5f3e3d5ffd5b505050506040513d5f823e601f3d908101601f19168201604052610a77919081019061147a565b81525081600381518110610a8d57610a8d6112a7565b602002602001018190525090565b60015b92915050565b606060405180606001604052602581528060200161169960259139905090565b5f81604051602001610ad691906110ca565b604051602081830303815290604052805190602001209050919050565b6060806060610b00610aa4565b9250610b0a61020a565b9150610b1461038e565b9050909192565b610b2e610b26610b8a565b848484610bda565b505050565b6105a2610b3e610c11565b8383610c44565b6105a27f552e522d4f9b6a3d443b47299f900b7b1bce2dacca532b0186b605495413451d80546001600160a01b0319166001600160a01b038516178155600201829055565b5f610bd5604051602001610bbc906020808252600a908201526906569702e6572632e32360b41b604082015260600190565b6040516020818303038152906040528051906020012090565b905090565b83610be584826115bb565b5060018401610bf483826115bb565b50600293909301805460ff191660ff909416939093179092555050565b5f610bd5604051602001610bbc906020808252600b908201526a32b4b81732b4b8171b989960a91b604082015260600190565b610c518260078501610cab565b6005840155610c638160088501610cab565b6006840155815160208084019190912060038501558151908201206004840155466001840155610c9283610d08565b8355505060020180546001600160a01b03191630179055565b5f602083511015610cc657610cbf83610d77565b9050610a9e565b825160018160011b178355825f5260205f20602085015f5b83811015610cfa5781810151600582901c840155602001610cde565b5060ff9350610a9e92505050565b60038101546004820154604080517f8b73c3c69bb8fe3d512ecc4cf759cc79239f7b179b0ffacaa9a75d522b39400f60208201529081019290925260608201524660808201523060a08201525f90610a9e9060c001604051602081830303815290604052805160209091012090565b5f5f829050601f81511115610daa578260405163305a27a960e01b8152600401610da191906110ca565b60405180910390fd5b8051610db582611675565b179392505050565b5f8151808452602084019350602083015f5b82811015610df75781516001600160e01b031916865260209586019590910190600101610dcf565b5093949350505050565b602081525f610e136020830184610dbd565b9392505050565b5f8151808452602084019350602083015f5b82811015610df75781516001600160a01b0316865260209586019590910190600101610e2c565b602081525f610e136020830184610e1a565b634e487b7160e01b5f52602160045260245ffd5b602081525f6060820183516040602085015281815180845260808601915060808160051b87010193506020830192505f5b81811015610f2357868503607f19018352835180516001600160a01b03168652602081015160038110610eeb57634e487b7160e01b5f52602160045260245ffd5b806020880152506040810151905060606040870152610f0d6060870182610dbd565b9550506020938401939290920191600101610eaa565b505050506020840151838203601f19016040850152610f428282610dbd565b95945050505050565b6001600160a01b0381168114610f5f575f5ffd5b50565b5f60208284031215610f72575f5ffd5b8135610e1381610f4b565b634e487b7160e01b5f52604160045260245ffd5b60405160a081016001600160401b0381118282101715610fb357610fb3610f7d565b60405290565b604051601f8201601f191681016001600160401b0381118282101715610fe157610fe1610f7d565b604052919050565b5f6001600160401b0382111561100157611001610f7d565b50601f01601f191660200190565b5f82601f83011261101e575f5ffd5b8135602083015f61103661103184610fe9565b610fb9565b9050828152858383011115611049575f5ffd5b828260208301375f92810160200192909252509392505050565b5f60208284031215611073575f5ffd5b81356001600160401b03811115611088575f5ffd5b6110948482850161100f565b949350505050565b5f81518084528060208401602086015e5f602082860101526020601f19601f83011685010191505092915050565b602081525f610e13602083018461109c565b60ff81168114610f5f575f5ffd5b5f5f5f5f5f60a086880312156110fe575f5ffd5b85356001600160401b03811115611113575f5ffd5b61111f8882890161100f565b95505060208601356001600160401b0381111561113a575f5ffd5b6111468882890161100f565b9450506040860135611157816110dc565b9250606086013561116781610f4b565b949793965091946080013592915050565b5f602082016020835280845180835260408501915060408160051b8601019250602086015f5b8281101561121757868503603f19018452815180516001600160a01b031686526020810151600381106111df57634e487b7160e01b5f52602160045260245ffd5b8060208801525060408101519050606060408701526112016060870182610dbd565b955050602093840193919091019060010161119e565b50929695505050505050565b5f5f60408385031215611234575f5ffd5b823561123f81610f4b565b915060208301356001600160401b03811115611259575f5ffd5b6112658582860161100f565b9150509250929050565b606081525f611281606083018661109c565b82810360208401526112938186610dbd565b905082810360408401526106868185610e1a565b634e487b7160e01b5f52603260045260245ffd5b5f82601f8301126112ca575f5ffd5b81516112d861103182610fe9565b8181528460208386010111156112ec575f5ffd5b8160208501602083015e5f918101602001919091529392505050565b5f60208284031215611318575f5ffd5b81516001600160401b0381111561132d575f5ffd5b820160a0818503121561133e575f5ffd5b611346610f91565b81516001600160401b0381111561135b575f5ffd5b611367868285016112bb565b82525060208201516001600160401b03811115611382575f5ffd5b61138e868285016112bb565b60208301525060408201516113a2816110dc565b604082015260608201516113b581610f4b565b6060820152608091820151918101919091529392505050565b602081525f825160a060208401526113e960c084018261109c565b90506020840151601f19848303016040850152611406828261109c565b91505060ff604085015116606084015260018060a01b036060850151166080840152608084015160a08401528091505092915050565b6001600160a01b03831681526040602082018190525f906110949083018461109c565b5f6020828403121561146f575f5ffd5b8151610e1381610f4b565b5f6020828403121561148a575f5ffd5b81516001600160401b0381111561149f575f5ffd5b8201601f810184136114af575f5ffd5b80516001600160401b038111156114c8576114c8610f7d565b8060051b6114d860208201610fb9565b918252602081840181019290810190878411156114f3575f5ffd5b6020850194505b8385101561152d57845192506001600160e01b03198316831461151b575f5ffd5b828252602094850194909101906114fa565b979650505050505050565b600181811c9082168061154c57607f821691505b60208210810361156a57634e487b7160e01b5f52602260045260245ffd5b50919050565b601f821115610b2e57805f5260205f20601f840160051c810160208510156115955750805b601f840160051c820191505b818110156115b4575f81556001016115a1565b5050505050565b81516001600160401b038111156115d4576115d4610f7d565b6115e8816115e28454611538565b84611570565b6020601f82116001811461161a575f83156116035750848201515b5f19600385901b1c1916600184901b1784556115b4565b5f84815260208120601f198516915b828110156116495787850151825560209485019460019092019101611629565b508482101561166657868401515f19600387901b60f8161c191681555b50505050600190811b01905550565b8051602080830151919081101561156a575f1960209190910360031b1b1691905056fe45524332305065726d69744d696e744275726e4c6f636b65644f776e61626c654446506b67a2646970667358221220020f9b96e3ae15545a6086267ac808d33da123378afa21722112b642ea8afcb964736f6c634300081e0033","linkReferences":{}},"methodIdentifiers":{"ERC20_MINT_BURN_OWNABLE_FACET()":"97560f04","calcSalt(bytes)":"d82be56e","deployToken(string,string,uint8,address,bytes32)":"88b79b40","diamondConfig()":"65d375b3","facetAddresses()":"52ef6b2c","facetCuts()":"a4b3ad35","facetInterfaces()":"2ea80826","initAccount(bytes)":"870d4838","packageMetadata()":"f45469e7","packageName()":"abc8b346","postDeploy(address)":"70068fcf","processArgs(bytes)":"87c3adb3","updatePkg(address,bytes)":"a9089235"},"id":1319}