{"abi":[{"type":"function","name":"DOMAIN_SEPARATOR","inputs":[],"outputs":[{"name":"","type":"bytes32","internalType":"bytes32"}],"stateMutability":"view"},{"type":"function","name":"allowance","inputs":[{"name":"owner","type":"address","internalType":"address"},{"name":"spender","type":"address","internalType":"address"}],"outputs":[{"name":"","type":"uint256","internalType":"uint256"}],"stateMutability":"view"},{"type":"function","name":"approve","inputs":[{"name":"spender","type":"address","internalType":"address"},{"name":"amount","type":"uint256","internalType":"uint256"}],"outputs":[{"name":"","type":"bool","internalType":"bool"}],"stateMutability":"nonpayable"},{"type":"function","name":"balanceOf","inputs":[{"name":"account","type":"address","internalType":"address"}],"outputs":[{"name":"","type":"uint256","internalType":"uint256"}],"stateMutability":"view"},{"type":"function","name":"decimals","inputs":[],"outputs":[{"name":"","type":"uint8","internalType":"uint8"}],"stateMutability":"view"},{"type":"function","name":"eip712Domain","inputs":[],"outputs":[{"name":"fields","type":"bytes1","internalType":"bytes1"},{"name":"name_","type":"string","internalType":"string"},{"name":"version","type":"string","internalType":"string"},{"name":"chainId","type":"uint256","internalType":"uint256"},{"name":"verifyingContract","type":"address","internalType":"address"},{"name":"salt","type":"bytes32","internalType":"bytes32"},{"name":"extensions","type":"uint256[]","internalType":"uint256[]"}],"stateMutability":"view"},{"type":"function","name":"emitApproval","inputs":[{"name":"owner","type":"address","internalType":"address"},{"name":"spender","type":"address","internalType":"address"},{"name":"amount","type":"uint256","internalType":"uint256"}],"outputs":[],"stateMutability":"nonpayable"},{"type":"function","name":"emitTransfer","inputs":[{"name":"from","type":"address","internalType":"address"},{"name":"to","type":"address","internalType":"address"},{"name":"amount","type":"uint256","internalType":"uint256"}],"outputs":[],"stateMutability":"nonpayable"},{"type":"function","name":"facetFuncs","inputs":[],"outputs":[{"name":"funcs","type":"bytes4[]","internalType":"bytes4[]"}],"stateMutability":"pure"},{"type":"function","name":"facetInterfaces","inputs":[],"outputs":[{"name":"interfaces","type":"bytes4[]","internalType":"bytes4[]"}],"stateMutability":"pure"},{"type":"function","name":"facetMetadata","inputs":[],"outputs":[{"name":"name_","type":"string","internalType":"string"},{"name":"interfaces","type":"bytes4[]","internalType":"bytes4[]"},{"name":"functions","type":"bytes4[]","internalType":"bytes4[]"}],"stateMutability":"pure"},{"type":"function","name":"facetName","inputs":[],"outputs":[{"name":"name_","type":"string","internalType":"string"}],"stateMutability":"pure"},{"type":"function","name":"getRate","inputs":[],"outputs":[{"name":"","type":"uint256","internalType":"uint256"}],"stateMutability":"view"},{"type":"function","name":"name","inputs":[],"outputs":[{"name":"","type":"string","internalType":"string"}],"stateMutability":"view"},{"type":"function","name":"nonces","inputs":[{"name":"owner","type":"address","internalType":"address"}],"outputs":[{"name":"","type":"uint256","internalType":"uint256"}],"stateMutability":"view"},{"type":"function","name":"permit","inputs":[{"name":"owner","type":"address","internalType":"address"},{"name":"spender","type":"address","internalType":"address"},{"name":"amount","type":"uint256","internalType":"uint256"},{"name":"deadline","type":"uint256","internalType":"uint256"},{"name":"v","type":"uint8","internalType":"uint8"},{"name":"r","type":"bytes32","internalType":"bytes32"},{"name":"s","type":"bytes32","internalType":"bytes32"}],"outputs":[],"stateMutability":"nonpayable"},{"type":"function","name":"symbol","inputs":[],"outputs":[{"name":"","type":"string","internalType":"string"}],"stateMutability":"view"},{"type":"function","name":"totalSupply","inputs":[],"outputs":[{"name":"","type":"uint256","internalType":"uint256"}],"stateMutability":"view"},{"type":"function","name":"transfer","inputs":[{"name":"recipient","type":"address","internalType":"address"},{"name":"amount","type":"uint256","internalType":"uint256"}],"outputs":[{"name":"result","type":"bool","internalType":"bool"}],"stateMutability":"nonpayable"},{"type":"function","name":"transferFrom","inputs":[{"name":"sender","type":"address","internalType":"address"},{"name":"recipient","type":"address","internalType":"address"},{"name":"amount","type":"uint256","internalType":"uint256"}],"outputs":[{"name":"result","type":"bool","internalType":"bool"}],"stateMutability":"nonpayable"},{"type":"event","name":"Approval","inputs":[{"name":"owner","type":"address","indexed":true,"internalType":"address"},{"name":"spender","type":"address","indexed":true,"internalType":"address"},{"name":"amount","type":"uint256","indexed":false,"internalType":"uint256"}],"anonymous":false},{"type":"event","name":"Transfer","inputs":[{"name":"from","type":"address","indexed":true,"internalType":"address"},{"name":"to","type":"address","indexed":true,"internalType":"address"},{"name":"amount","type":"uint256","indexed":false,"internalType":"uint256"}],"anonymous":false},{"type":"error","name":"ERC2612ExpiredSignature","inputs":[{"name":"deadline","type":"uint256","internalType":"uint256"}]},{"type":"error","name":"ERC2612InvalidSigner","inputs":[{"name":"signer","type":"address","internalType":"address"},{"name":"owner","type":"address","internalType":"address"}]},{"type":"error","name":"InvalidAccountNonce","inputs":[{"name":"account","type":"address","internalType":"address"},{"name":"currentNonce","type":"uint256","internalType":"uint256"}]},{"type":"error","name":"InvalidShortString","inputs":[]},{"type":"error","name":"NotBalancerV3Vault","inputs":[{"name":"caller","type":"address","internalType":"address"}]}],"bytecode":{"object":"0x6080604052348015600e575f5ffd5b506115f88061001c5f395ff3fe608060405234801561000f575f5ffd5b50600436106100fa575f3560e01c806306fdde03146100fe578063095ea7b31461011c57806318160ddd1461013f57806323b872dd1461015557806323de6651146101685780632ea808261461017d578063313ce567146101925780633644e515146101a15780635687f2b8146101a9578063574a4cff146101bc5780635b6f4d01146101c4578063679aefce146101cc57806370a08231146101d45780637ecebe00146101e757806384b0196e146101fa57806395d89b4114610215578063a9059cbb1461021d578063d505accf14610230578063dd62ed3e14610243578063f10d7a7514610256575b5f5ffd5b61010661026d565b604051610113919061127f565b60405180910390f35b61012f61012a3660046112a7565b61027c565b6040519015158152602001610113565b610147610300565b604051908152602001610113565b61012f6101633660046112cf565b610373565b61017b6101763660046112cf565b610407565b005b610185610461565b604051610113919061134d565b60405160128152602001610113565b610147610623565b61017b6101b73660046112cf565b61062c565b610185610679565b6101066109f0565b610147610a22565b6101476101e236600461135f565b610a56565b6101476101f536600461135f565b610acb565b610202610ad5565b6040516101139796959493929190611378565b610106610b25565b61012f61022b3660046112a7565b610b2f565b61017b61023e36600461140e565b610b67565b61014761025136600461147b565b610ceb565b61025e610d73565b604051610113939291906114ac565b6060610277610d9b565b905090565b5f610285610dad565b6001600160a01b031663e1f21c673385856040518463ffffffff1660e01b81526004016102b4939291906114ee565b6020604051808303815f875af11580156102d0573d5f5f3e3d5ffd5b505050506040513d601f19601f820116820180604052508101906102f49190611512565b50600190505b92915050565b5f610309610dad565b6001600160a01b031663e4dc2aa4306040518263ffffffff1660e01b81526004016103349190611531565b602060405180830381865afa15801561034f573d5f5f3e3d5ffd5b505050506040513d601f19601f820116820180604052508101906102779190611545565b5f61037c610dad565b604051630aed65f560e11b81523360048201526001600160a01b03868116602483015285811660448301526064820185905291909116906315dacbea906084016020604051808303815f875af11580156103d8573d5f5f3e3d5ffd5b505050506040513d601f19601f820116820180604052508101906103fc9190611512565b506001949350505050565b61040f610ddf565b816001600160a01b0316836001600160a01b03167fddf252ad1be2c89b69c2b068fc378daa952ba7f163c4a11628f55a4df523b3ef8360405161045491815260200190565b60405180910390a3505050565b60408051600780825261010082019092526060916020820160e0803683370190505090506336372b0760e01b815f8151811061049f5761049f61155c565b60200260200101906001600160e01b03191690816001600160e01b0319168152505063a219a02560e01b816001815181106104dc576104dc61155c565b6001600160e01b0319909216602092830291909101909101528051634a17459160e11b90829060029081106105135761051361155c565b60200260200101906001600160e01b03191690816001600160e01b03191681525050634ec7fbed60e11b816003815181106105505761055061155c565b60200260200101906001600160e01b03191690816001600160e01b031916815250506342580cb760e11b8160048151811061058d5761058d61155c565b60200260200101906001600160e01b03191690816001600160e01b031916815250506333cd77e760e11b816005815181106105ca576105ca61155c565b60200260200101906001600160e01b03191690816001600160e01b0319168152505063755994e960e01b816006815181106106075761060761155c565b6001600160e01b03199092166020928302919091019091015290565b5f610277610e1c565b610634610ddf565b816001600160a01b0316836001600160a01b03167f8c5be1e5ebec7d5bd14f71427d1e84f3dd0314c0f7b2291e5b200ac8c7c3b9258360405161045491815260200190565b604080516010808252610220820190925260609160208201610200803683370190505090506306fdde0360e01b815f815181106106b8576106b861155c565b6001600160e01b03199092166020928302919091019091015280516395d89b4160e01b90829060019081106106ef576106ef61155c565b6001600160e01b031990921660209283029190910190910152805163313ce56760e01b90829060029081106107265761072661155c565b6001600160e01b03199092166020928302919091019091015280516318160ddd60e01b908290600390811061075d5761075d61155c565b6001600160e01b03199092166020928302919091019091015280516370a0823160e01b90829060049081106107945761079461155c565b6001600160e01b0319909216602092830291909101909101528051636eb1769f60e11b90829060059081106107cb576107cb61155c565b6001600160e01b031990921660209283029190910190910152805163095ea7b360e01b90829060069081106108025761080261155c565b6001600160e01b031990921660209283029190910190910152805163a9059cbb60e01b90829060079081106108395761083961155c565b6001600160e01b03199092166020928302919091019091015280516323b872dd60e01b90829060089081106108705761087061155c565b6001600160e01b03199092166020928302919091019091015280516342580cb760e11b90829060099081106108a7576108a761155c565b6001600160e01b031990921660209283029190910190910152805163d505accf60e01b908290600a9081106108de576108de61155c565b6001600160e01b0319909216602092830291909101909101528051623f675f60e91b908290600b9081106109145761091461155c565b6001600160e01b0319909216602092830291909101909101528051633644e51560e01b908290600c90811061094b5761094b61155c565b6001600160e01b03199092166020928302919091019091015280516333cd77e760e11b908290600d9081106109825761098261155c565b6001600160e01b03199092166020928302919091019091015280516323de665160e01b908290600e9081106109b9576109b961155c565b6001600160e01b0319909216602092830291909101909101528051630ad0fe5760e31b908290600f9081106106075761060761155c565b60408051808201909152601881527710985b185b98d95c958cd41bdbdb151bdad95b919858d95d60421b602082015290565b5f610a2b610dad565b6001600160a01b0316634f037ee7306040518263ffffffff1660e01b81526004016103349190611531565b5f610a5f610dad565b6001600160a01b031663f7888aec30846040518363ffffffff1660e01b8152600401610a8c929190611570565b602060405180830381865afa158015610aa7573d5f5f3e3d5ffd5b505050506040513d601f19601f820116820180604052508101906102fa9190611545565b5f6102fa82610e2d565b5f6060805f5f5f60605f610ae7610e55565b9050610af281610ea1565b610afb82610eb6565b604080515f80825260208201909252600f60f81b9c939b5091995046985030975095509350915050565b6060610277610ecb565b5f610b38610dad565b6001600160a01b031663beabacc83385856040518463ffffffff1660e01b81526004016102b4939291906114ee565b83421115610b905760405163313c898160e11b8152600481018590526024015b60405180910390fd5b5f610c147f6e71edae12b1b97f4d1f60370fef10105fa2faae0126114a169c64845d6126c9898989610bc18d610edd565b6040805160208101969096526001600160a01b0394851690860152929091166060840152608083015260a082015260c0810187905260e0015b604051602081830303815290604052805160209091012090565b90505f610c2082610f0d565b90505f610c2f82878787610f1f565b9050896001600160a01b0316816001600160a01b031614610c6757808a6040516325c0072360e11b8152600401610b87929190611570565b610c6f610dad565b6001600160a01b031663e1f21c678b8b8b6040518463ffffffff1660e01b8152600401610c9e939291906114ee565b6020604051808303815f875af1158015610cba573d5f5f3e3d5ffd5b505050506040513d601f19601f82011682018060405250810190610cde9190611512565b5050505050505050505050565b5f610cf4610dad565b60405163927da10560e01b81523060048201526001600160a01b0385811660248301528481166044830152919091169063927da10590606401602060405180830381865afa158015610d48573d5f5f3e3d5ffd5b505050506040513d601f19601f82011682018060405250810190610d6c9190611545565b9392505050565b6060806060610d806109f0565b9250610d8a610461565b9150610d94610679565b9050909192565b6060610277610da8610f35565b610f67565b5f6102777f392e49ca1983749c4549242b814e6592e6c2354a2bb55242596ce0ad2e7b1001546001600160a01b031690565b610de7610dad565b6001600160a01b0316336001600160a01b031614610e1a57336040516373ea3fad60e11b8152600401610b879190611531565b565b5f610277610e28610e55565b610ffa565b5f6102fa610e39611033565b836001600160a01b03165f908152602091909152604090205490565b5f610277604051602001610e88906020808252600b908201526a32b4b81732b4b8171b989960a91b604082015260600190565b6040516020818303038152906040528051906020012090565b60058101546060906102fa9060078401611067565b60068101546060906102fa9060088401611067565b6060610277610ed8610f35565b611110565b5f6102fa610ee9611033565b836001600160a01b03165f9081526020919091526040902080546001810190915590565b5f6102fa610f19610e55565b83611121565b5f610f2c8585858561114e565b95945050505050565b5f610277604051602001610e88906020808252600a908201526906569702e6572632e32360b41b604082015260600190565b6060815f018054610f779061158a565b80601f0160208091040260200160405190810160405280929190818152602001828054610fa39061158a565b8015610fee5780601f10610fc557610100808354040283529160200191610fee565b820191905f5260205f20905b815481529060010190602001808311610fd157829003601f168201915b50505050509050919050565b60028101545f906001600160a01b03163014801561101b5750816001015446145b1561102557505490565b6102fa82611193565b919050565b5f610277604051602001610e88906020808252600c908201526b32b4b81732b93197191b189960a11b604082015260600190565b606060ff83146110815761107a836111ed565b90506102fa565b81805461108d9061158a565b80601f01602080910402602001604051908101604052809291908181526020018280546110b99061158a565b80156111045780601f106110db57610100808354040283529160200191611104565b820191905f5260205f20905b8154815290600101906020018083116110e757829003601f168201915b505050505090506102fa565b6060816001018054610f779061158a565b5f610d6c61112e84610ffa565b8360405161190160f01b8152600281019290925260228201526042902090565b5f604051855f5260ff851660205283604052826060526020600160805f60015afa5191503d61118457638baa579f5f526004601cfd5b5f606052604052949350505050565b60038101546004820154604080517f8b73c3c69bb8fe3d512ecc4cf759cc79239f7b179b0ffacaa9a75d522b39400f60208201529081019290925260608201524660808201523060a08201525f906102fa9060c001610bfa565b60605f6111f98361122a565b6040805160208082528183019092529192505f91906020820181803683375050509182525060208101929092525090565b5f60ff8216601f8111156102fa57604051632cd44ac360e21b815260040160405180910390fd5b5f81518084528060208401602086015e5f602082860101526020601f19601f83011685010191505092915050565b602081525f610d6c6020830184611251565b80356001600160a01b038116811461102e575f5ffd5b5f5f604083850312156112b8575f5ffd5b6112c183611291565b946020939093013593505050565b5f5f5f606084860312156112e1575f5ffd5b6112ea84611291565b92506112f860208501611291565b929592945050506040919091013590565b5f8151808452602084019350602083015f5b828110156113435781516001600160e01b03191686526020958601959091019060010161131b565b5093949350505050565b602081525f610d6c6020830184611309565b5f6020828403121561136f575f5ffd5b610d6c82611291565b60ff60f81b8816815260e060208201525f61139660e0830189611251565b82810360408401526113a88189611251565b606084018890526001600160a01b038716608085015260a0840186905283810360c0850152845180825260208087019350909101905f5b818110156113fd5783518352602093840193909201916001016113df565b50909b9a5050505050505050505050565b5f5f5f5f5f5f5f60e0888a031215611424575f5ffd5b61142d88611291565b965061143b60208901611291565b95506040880135945060608801359350608088013560ff8116811461145e575f5ffd5b9699959850939692959460a0840135945060c09093013592915050565b5f5f6040838503121561148c575f5ffd5b61149583611291565b91506114a360208401611291565b90509250929050565b606081525f6114be6060830186611251565b82810360208401526114d08186611309565b905082810360408401526114e48185611309565b9695505050505050565b6001600160a01b039384168152919092166020820152604081019190915260600190565b5f60208284031215611522575f5ffd5b81518015158114610d6c575f5ffd5b6001600160a01b0391909116815260200190565b5f60208284031215611555575f5ffd5b5051919050565b634e487b7160e01b5f52603260045260245ffd5b6001600160a01b0392831681529116602082015260400190565b600181811c9082168061159e57607f821691505b6020821081036115bc57634e487b7160e01b5f52602260045260245ffd5b5091905056fea26469706673582212203cd0e874b994d93ec33f9ef7ffa891fa29ee7009b7984cd437cac638b1771d4c64736f6c634300081e0033","linkReferences":{}},"methodIdentifiers":{"DOMAIN_SEPARATOR()":"3644e515","allowance(address,address)":"dd62ed3e","approve(address,uint256)":"095ea7b3","balanceOf(address)":"70a08231","decimals()":"313ce567","eip712Domain()":"84b0196e","emitApproval(address,address,uint256)":"5687f2b8","emitTransfer(address,address,uint256)":"23de6651","facetFuncs()":"574a4cff","facetInterfaces()":"2ea80826","facetMetadata()":"f10d7a75","facetName()":"5b6f4d01","getRate()":"679aefce","name()":"06fdde03","nonces(address)":"7ecebe00","permit(address,address,uint256,uint256,uint8,bytes32,bytes32)":"d505accf","symbol()":"95d89b41","totalSupply()":"18160ddd","transfer(address,uint256)":"a9059cbb","transferFrom(address,address,uint256)":"23b872dd"},"id":979}