{"abi":[{"type":"constructor","inputs":[],"stateMutability":"nonpayable"},{"type":"function","name":"DOMAIN_SEPARATOR","inputs":[],"outputs":[{"name":"result","type":"bytes32","internalType":"bytes32"}],"stateMutability":"view"},{"type":"function","name":"allowance","inputs":[{"name":"owner_","type":"address","internalType":"address"},{"name":"spender","type":"address","internalType":"address"}],"outputs":[{"name":"","type":"uint256","internalType":"uint256"}],"stateMutability":"view"},{"type":"function","name":"approve","inputs":[{"name":"spender","type":"address","internalType":"address"},{"name":"value","type":"uint256","internalType":"uint256"}],"outputs":[{"name":"","type":"bool","internalType":"bool"}],"stateMutability":"nonpayable"},{"type":"function","name":"balanceOf","inputs":[{"name":"account","type":"address","internalType":"address"}],"outputs":[{"name":"","type":"uint256","internalType":"uint256"}],"stateMutability":"view"},{"type":"function","name":"decimals","inputs":[],"outputs":[{"name":"","type":"uint8","internalType":"uint8"}],"stateMutability":"view"},{"type":"function","name":"mint","inputs":[{"name":"account","type":"address","internalType":"address"},{"name":"amount","type":"uint256","internalType":"uint256"}],"outputs":[{"name":"","type":"bool","internalType":"bool"}],"stateMutability":"nonpayable"},{"type":"function","name":"minter","inputs":[],"outputs":[{"name":"","type":"address","internalType":"address"}],"stateMutability":"view"},{"type":"function","name":"name","inputs":[],"outputs":[{"name":"","type":"string","internalType":"string"}],"stateMutability":"view"},{"type":"function","name":"nonces","inputs":[{"name":"owner","type":"address","internalType":"address"}],"outputs":[{"name":"result","type":"uint256","internalType":"uint256"}],"stateMutability":"view"},{"type":"function","name":"permit","inputs":[{"name":"owner","type":"address","internalType":"address"},{"name":"spender","type":"address","internalType":"address"},{"name":"value","type":"uint256","internalType":"uint256"},{"name":"deadline","type":"uint256","internalType":"uint256"},{"name":"v","type":"uint8","internalType":"uint8"},{"name":"r","type":"bytes32","internalType":"bytes32"},{"name":"s","type":"bytes32","internalType":"bytes32"}],"outputs":[],"stateMutability":"nonpayable"},{"type":"function","name":"setMinter","inputs":[{"name":"_minter","type":"address","internalType":"address"}],"outputs":[],"stateMutability":"nonpayable"},{"type":"function","name":"symbol","inputs":[],"outputs":[{"name":"","type":"string","internalType":"string"}],"stateMutability":"view"},{"type":"function","name":"totalSupply","inputs":[],"outputs":[{"name":"","type":"uint256","internalType":"uint256"}],"stateMutability":"view"},{"type":"function","name":"transfer","inputs":[{"name":"to","type":"address","internalType":"address"},{"name":"value","type":"uint256","internalType":"uint256"}],"outputs":[{"name":"","type":"bool","internalType":"bool"}],"stateMutability":"nonpayable"},{"type":"function","name":"transferFrom","inputs":[{"name":"from","type":"address","internalType":"address"},{"name":"to","type":"address","internalType":"address"},{"name":"value","type":"uint256","internalType":"uint256"}],"outputs":[{"name":"","type":"bool","internalType":"bool"}],"stateMutability":"nonpayable"},{"type":"event","name":"Approval","inputs":[{"name":"owner","type":"address","indexed":true,"internalType":"address"},{"name":"spender","type":"address","indexed":true,"internalType":"address"},{"name":"amount","type":"uint256","indexed":false,"internalType":"uint256"}],"anonymous":false},{"type":"event","name":"Transfer","inputs":[{"name":"from","type":"address","indexed":true,"internalType":"address"},{"name":"to","type":"address","indexed":true,"internalType":"address"},{"name":"amount","type":"uint256","indexed":false,"internalType":"uint256"}],"anonymous":false},{"type":"error","name":"AllowanceOverflow","inputs":[]},{"type":"error","name":"AllowanceUnderflow","inputs":[]},{"type":"error","name":"InsufficientAllowance","inputs":[]},{"type":"error","name":"InsufficientBalance","inputs":[]},{"type":"error","name":"InvalidPermit","inputs":[]},{"type":"error","name":"NotMinter","inputs":[]},{"type":"error","name":"NotOwner","inputs":[]},{"type":"error","name":"Permit2AllowanceIsFixedAtInfinity","inputs":[]},{"type":"error","name":"PermitExpired","inputs":[]},{"type":"error","name":"TotalSupplyOverflow","inputs":[]}],"bytecode":{"object":"0x608060405234801561000f575f5ffd5b50604051806040016040528060098152602001684165726f64726f6d6560b81b815250604051806040016040528060048152602001634145524f60e01b815250815f908161005d919061012c565b50600161006a828261012c565b505060028054336001600160a01b03199182168117909255600380549091169091179055506101e6565b634e487b7160e01b5f52604160045260245ffd5b600181811c908216806100bc57607f821691505b6020821081036100da57634e487b7160e01b5f52602260045260245ffd5b50919050565b601f82111561012757805f5260205f20601f840160051c810160208510156101055750805b601f840160051c820191505b81811015610124575f8155600101610111565b50505b505050565b81516001600160401b0381111561014557610145610094565b6101598161015384546100a8565b846100e0565b6020601f82116001811461018b575f83156101745750848201515b5f19600385901b1c1916600184901b178455610124565b5f84815260208120601f198516915b828110156101ba578785015182556020948501946001909201910161019a565b50848210156101d757868401515f19600387901b60f8161c191681555b50505050600190811b01905550565b610a54806101f35f395ff3fe608060405234801561000f575f5ffd5b50600436106100c3575f3560e01c806306fdde03146100c757806307546172146100e5578063095ea7b31461011057806318160ddd1461013357806323b872dd14610149578063313ce5671461015c5780633644e5151461016b57806340c10f191461017357806370a08231146101865780637ecebe001461019957806395d89b41146101be578063a9059cbb146101c6578063d505accf146101d9578063dd62ed3e146101ee578063fca3b5aa14610201575b5f5ffd5b6100cf610214565b6040516100dc919061081d565b60405180910390f35b6002546100f8906001600160a01b031681565b6040516001600160a01b0390911681526020016100dc565b61012361011e36600461086d565b6102a3565b60405190151581526020016100dc565b61013b6102b7565b6040519081526020016100dc565b610123610157366004610895565b6102c5565b604051601281526020016100dc565b61013b6102d9565b61012361018136600461086d565b61032a565b61013b6101943660046108cf565b61036a565b61013b6101a73660046108cf565b6338377508600c9081525f91909152602090205490565b6100cf610374565b6101236101d436600461086d565b610383565b6101ec6101e73660046108e8565b61038e565b005b61013b6101fc366004610955565b610506565b6101ec61020f3660046108cf565b610511565b60605f805461022290610986565b80601f016020809104026020016040519081016040528092919081815260200182805461024e90610986565b80156102995780601f1061027057610100808354040283529160200191610299565b820191905f5260205f20905b81548152906001019060200180831161027c57829003601f168201915b5050505050905090565b5f6102ae838361055e565b90505b92915050565b5f6102c0610569565b905090565b5f6102d184848461057b565b949350505050565b5f806102e3610214565b8051906020012090505f6102f5610587565b604080515f5160206109ff5f395f51905f52815260208101949094528301525046606082015230608082015260a09020919050565b6002545f906001600160a01b0316331461035757604051633e34a41b60e21b815260040160405180910390fd5b61036183836105ab565b50600192915050565b5f6102b1826105b9565b60606001805461022290610986565b5f6102ae83836105d2565b6001600160a01b0386166e22d473030f116ddee9f6b43ac78ba318851915176103be57633f68539a5f526004601cfd5b5f6103c7610214565b8051906020012090505f6103d9610587565b9050854211156103f057631a15a3cc5f526004601cfd5b6040518960601b60601c99508860601b60601c985065383775081901600e52895f526020600c2080545f5160206109ff5f395f51905f52835284602084015283604084015246606084015230608084015260a08320602e527f6e71edae12b1b97f4d1f60370fef10105fa2faae0126114a169c64845d6126c983528b60208401528a60408401528960608401528060808401528860a084015260c08320604e526042602c205f528760ff16602052866040528560605260208060805f60015afa8c3d51146104c55763ddafbaef5f526004601cfd5b0190556303faf4f960a51b89176040526034602c20889055888a5f5160206109df5f395f51905f52602060608501a360405250505f60605250505050505050565b5f6102ae83836105dd565b6002546001600160a01b0316331461053c57604051633e34a41b60e21b815260040160405180910390fd5b600280546001600160a01b0319166001600160a01b0392909216919091179055565b5f6102ae83836105e8565b5f6102c06805345cdf77eb68f44c5490565b5f6102d1848484610654565b7fc89efdaa54c0f20c7adf612882df0950f5a951637e0307cdcb4c672f298b8bc690565b6105b58282610710565b5050565b6387a211a2600c9081525f8281526020909120546102b1565b5f6102ae8383610779565b5f6102ae83836107d9565b5f6001600160a01b0383166e22d473030f116ddee9f6b43ac78ba3188219151761061957633f68539a5f526004601cfd5b82602052637f5e9f20600c52335f52816034600c2055815f52602c5160601c335f5160206109df5f395f51905f5260205fa350600192915050565b5f8360601b6e22d473030f116ddee9f6b43ac78ba333146106a95733602052637f5e9f208117600c526034600c2080548019156106a657808511156106a0576313be252b5f526004601cfd5b84810382555b50505b6387a211a28117600c526020600c208054808511156106cf5763f4d678b85f526004601cfd5b84810382555050835f526020600c208381540181555082602052600c5160601c8160601c5f5160206109bf5f395f51905f52602080a3505060019392505050565b6805345cdf77eb68f44c54818101818110156107335763e5cfe9575f526004601cfd5b806805345cdf77eb68f44c5550506387a211a2600c52815f526020600c208181540181555080602052600c5160601c5f5f5160206109bf5f395f51905f52602080a35050565b5f6387a211a2600c52335f526020600c208054808411156107a15763f4d678b85f526004601cfd5b83810382555050825f526020600c208281540181555081602052600c5160601c335f5160206109bf5f395f51905f52602080a3610361565b5f6e22d473030f116ddee9f6b43ac78ba2196001600160a01b0383160161080257505f196102b1565b50602052637f5e9f20600c9081525f91909152603490205490565b602081525f82518060208401528060208501604085015e5f604082850101526040601f19601f83011684010191505092915050565b80356001600160a01b0381168114610868575f5ffd5b919050565b5f5f6040838503121561087e575f5ffd5b61088783610852565b946020939093013593505050565b5f5f5f606084860312156108a7575f5ffd5b6108b084610852565b92506108be60208501610852565b929592945050506040919091013590565b5f602082840312156108df575f5ffd5b6102ae82610852565b5f5f5f5f5f5f5f60e0888a0312156108fe575f5ffd5b61090788610852565b965061091560208901610852565b95506040880135945060608801359350608088013560ff81168114610938575f5ffd5b9699959850939692959460a0840135945060c09093013592915050565b5f5f60408385031215610966575f5ffd5b61096f83610852565b915061097d60208401610852565b90509250929050565b600181811c9082168061099a57607f821691505b6020821081036109b857634e487b7160e01b5f52602260045260245ffd5b5091905056feddf252ad1be2c89b69c2b068fc378daa952ba7f163c4a11628f55a4df523b3ef8c5be1e5ebec7d5bd14f71427d1e84f3dd0314c0f7b2291e5b200ac8c7c3b9258b73c3c69bb8fe3d512ecc4cf759cc79239f7b179b0ffacaa9a75d522b39400fa26469706673582212200f5fce2c7409319dad9f5dd32c5412ea3ea0f064516bcb56e42f1268d780edc564736f6c634300081e0033","linkReferences":{}},"methodIdentifiers":{"DOMAIN_SEPARATOR()":"3644e515","allowance(address,address)":"dd62ed3e","approve(address,uint256)":"095ea7b3","balanceOf(address)":"70a08231","decimals()":"313ce567","mint(address,uint256)":"40c10f19","minter()":"07546172","name()":"06fdde03","nonces(address)":"7ecebe00","permit(address,address,uint256,uint256,uint8,bytes32,bytes32)":"d505accf","setMinter(address)":"fca3b5aa","symbol()":"95d89b41","totalSupply()":"18160ddd","transfer(address,uint256)":"a9059cbb","transferFrom(address,address,uint256)":"23b872dd"},"id":805}