{"abi":[{"type":"constructor","inputs":[{"name":"vat_","type":"address","internalType":"address"}],"stateMutability":"nonpayable"},{"type":"function","name":"cage","inputs":[],"outputs":[],"stateMutability":"nonpayable"},{"type":"function","name":"deny","inputs":[{"name":"guy","type":"address","internalType":"address"}],"outputs":[],"stateMutability":"nonpayable"},{"type":"function","name":"file","inputs":[{"name":"ilk","type":"bytes32","internalType":"bytes32"},{"name":"what","type":"bytes32","internalType":"bytes32"},{"name":"data","type":"uint256","internalType":"uint256"}],"outputs":[],"stateMutability":"nonpayable"},{"type":"function","name":"file","inputs":[{"name":"what","type":"bytes32","internalType":"bytes32"},{"name":"data","type":"uint256","internalType":"uint256"}],"outputs":[],"stateMutability":"nonpayable"},{"type":"function","name":"file","inputs":[{"name":"ilk","type":"bytes32","internalType":"bytes32"},{"name":"what","type":"bytes32","internalType":"bytes32"},{"name":"pip_","type":"address","internalType":"address"}],"outputs":[],"stateMutability":"nonpayable"},{"type":"function","name":"ilks","inputs":[{"name":"","type":"bytes32","internalType":"bytes32"}],"outputs":[{"name":"pip","type":"address","internalType":"contract PipLike"},{"name":"mat","type":"uint256","internalType":"uint256"}],"stateMutability":"view"},{"type":"function","name":"live","inputs":[],"outputs":[{"name":"","type":"uint256","internalType":"uint256"}],"stateMutability":"view"},{"type":"function","name":"par","inputs":[],"outputs":[{"name":"","type":"uint256","internalType":"uint256"}],"stateMutability":"view"},{"type":"function","name":"poke","inputs":[{"name":"ilk","type":"bytes32","internalType":"bytes32"}],"outputs":[],"stateMutability":"nonpayable"},{"type":"function","name":"rely","inputs":[{"name":"guy","type":"address","internalType":"address"}],"outputs":[],"stateMutability":"nonpayable"},{"type":"function","name":"vat","inputs":[],"outputs":[{"name":"","type":"address","internalType":"contract VatLike"}],"stateMutability":"view"},{"type":"function","name":"wards","inputs":[{"name":"","type":"address","internalType":"address"}],"outputs":[{"name":"","type":"uint256","internalType":"uint256"}],"stateMutability":"view"},{"type":"event","name":"Poke","inputs":[{"name":"ilk","type":"bytes32","indexed":false,"internalType":"bytes32"},{"name":"val","type":"bytes32","indexed":false,"internalType":"bytes32"},{"name":"spot","type":"uint256","indexed":false,"internalType":"uint256"}],"anonymous":false}],"bytecode":{"object":"0x6080604052348015600e575f5ffd5b50604051610888380380610888833981016040819052602b916077565b335f908152602081905260409020600190819055600280546001600160a01b0319166001600160a01b0393909316929092179091556b033b2e3c9fd0803ce800000060035560045560a2565b5f602082840312156086575f5ffd5b81516001600160a01b0381168114609b575f5ffd5b9392505050565b6107d9806100af5f395ff3fe608060405234801561000f575f5ffd5b50600436106100a2575f3560e01c80631504460f146100a65780631a0b287e146100bb57806329ae8114146100ce57806336569e77146100e1578063495d32cb1461011157806365fae35e14610128578063692450091461013b578063957aa58c146101435780639c52a7f11461014c578063bf353dbb1461015f578063d9638d361461017e578063ebecb39d146101cf575b5f5ffd5b6100b96100b436600461061e565b6101e2565b005b6100b96100c9366004610635565b61034f565b6100b96100dc36600461065e565b610416565b6002546100f4906001600160a01b031681565b6040516001600160a01b0390911681526020015b60405180910390f35b61011a60035481565b604051908152602001610108565b6100b9610136366004610699565b610479565b6100b96104c3565b61011a60045481565b6100b961015a366004610699565b6104f7565b61011a61016d366004610699565b5f6020819052908152604090205481565b6101b061018c36600461061e565b600160208190525f918252604090912080549101546001600160a01b039091169082565b604080516001600160a01b039093168352602083019190915201610108565b6100b96101dd3660046106b2565b61053e565b5f818152600160205260408082205481516359e02dd760e01b8152825184936001600160a01b03909316926359e02dd79260048082019391829003018187875af1158015610232573d5f5f3e3d5ffd5b505050506040513d601f19601f8201168201806040525081019061025691906106e4565b915091505f81610266575f610299565b61029961028261027a85633b9aca006105c8565b6003546105f6565b5f86815260016020819052604090912001546105f6565b600254604051630d05943f60e11b815260048101879052631cdc1bdd60e21b6024820152604481018390529192506001600160a01b031690631a0b287e906064015f604051808303815f87803b1580156102f1575f5ffd5b505af1158015610303573d5f5f3e3d5ffd5b505060408051878152602081018790529081018490527fdfd7467e425a8107cfd368d159957692c25085aacbcf5228ce08f10f2146486e9250606001905060405180910390a150505050565b335f908152602081905260409020546001146103865760405162461bcd60e51b815260040161037d90610716565b60405180910390fd5b6004546001146103a85760405162461bcd60e51b815260040161037d90610746565b81621b585d60ea1b036103ce575f83815260016020819052604090912001819055505050565b60405162461bcd60e51b815260206004820152601f60248201527f53706f747465722f66696c652d756e7265636f676e697a65642d706172616d00604482015260640161037d565b335f908152602081905260409020546001146104445760405162461bcd60e51b815260040161037d90610716565b6004546001146104665760405162461bcd60e51b815260040161037d90610746565b81623830b960e91b036103ce5760035550565b335f908152602081905260409020546001146104a75760405162461bcd60e51b815260040161037d90610716565b6001600160a01b03165f90815260208190526040902060019055565b335f908152602081905260409020546001146104f15760405162461bcd60e51b815260040161037d90610716565b5f600455565b335f908152602081905260409020546001146105255760405162461bcd60e51b815260040161037d90610716565b6001600160a01b03165f90815260208190526040812055565b335f9081526020819052604090205460011461056c5760405162461bcd60e51b815260040161037d90610716565b60045460011461058e5760405162461bcd60e51b815260040161037d90610746565b816207069760ec1b036103ce575f83815260016020526040902080546001600160a01b0383166001600160a01b0319909116179055505050565b5f8115806105e8575050808202828282816105e5576105e5610770565b04145b6105f0575f5ffd5b92915050565b5f8161060d84676765c793fa10079d601b1b6105c8565b6106179190610784565b9392505050565b5f6020828403121561062e575f5ffd5b5035919050565b5f5f5f60608486031215610647575f5ffd5b505081359360208301359350604090920135919050565b5f5f6040838503121561066f575f5ffd5b50508035926020909101359150565b80356001600160a01b0381168114610694575f5ffd5b919050565b5f602082840312156106a9575f5ffd5b6106178261067e565b5f5f5f606084860312156106c4575f5ffd5b83359250602084013591506106db6040850161067e565b90509250925092565b5f5f604083850312156106f5575f5ffd5b825191506020830151801515811461070b575f5ffd5b809150509250929050565b60208082526016908201527514dc1bdd1d195c8bdb9bdd0b585d5d1a1bdc9a5e995960521b604082015260600190565b60208082526010908201526f53706f747465722f6e6f742d6c69766560801b604082015260600190565b634e487b7160e01b5f52601260045260245ffd5b5f8261079e57634e487b7160e01b5f52601260045260245ffd5b50049056fea2646970667358221220ad4c282f2be511b9aef65ed1a9e63399b675737665bf1bd1467f7e20c92ef53264736f6c634300081e0033","linkReferences":{}},"methodIdentifiers":{"cage()":"69245009","deny(address)":"9c52a7f1","file(bytes32,bytes32,address)":"ebecb39d","file(bytes32,bytes32,uint256)":"1a0b287e","file(bytes32,uint256)":"29ae8114","ilks(bytes32)":"d9638d36","live()":"957aa58c","par()":"495d32cb","poke(bytes32)":"1504460f","rely(address)":"65fae35e","vat()":"36569e77","wards(address)":"bf353dbb"},"id":693}