{"abi":[{"type":"constructor","inputs":[{"name":"contractRegistry","type":"address","internalType":"contract BalancerContractRegistry"},{"name":"version","type":"string","internalType":"string"}],"stateMutability":"nonpayable"},{"type":"function","name":"allowance","inputs":[{"name":"owner","type":"address","internalType":"address"},{"name":"spender","type":"address","internalType":"address"},{"name":"id","type":"uint256","internalType":"uint256"}],"outputs":[{"name":"","type":"uint256","internalType":"uint256"}],"stateMutability":"view"},{"type":"function","name":"approve","inputs":[{"name":"spender","type":"address","internalType":"address"},{"name":"id","type":"uint256","internalType":"uint256"},{"name":"amount","type":"uint256","internalType":"uint256"}],"outputs":[{"name":"","type":"bool","internalType":"bool"}],"stateMutability":"nonpayable"},{"type":"function","name":"balanceOf","inputs":[{"name":"owner","type":"address","internalType":"address"},{"name":"id","type":"uint256","internalType":"uint256"}],"outputs":[{"name":"","type":"uint256","internalType":"uint256"}],"stateMutability":"view"},{"type":"function","name":"decimals","inputs":[{"name":"id","type":"uint256","internalType":"uint256"}],"outputs":[{"name":"","type":"uint8","internalType":"uint8"}],"stateMutability":"view"},{"type":"function","name":"getId","inputs":[{"name":"token","type":"address","internalType":"address"}],"outputs":[{"name":"","type":"uint256","internalType":"uint256"}],"stateMutability":"pure"},{"type":"function","name":"getUnlockTimestamp","inputs":[{"name":"id","type":"uint256","internalType":"uint256"}],"outputs":[{"name":"","type":"uint256","internalType":"uint256"}],"stateMutability":"view"},{"type":"function","name":"isOperator","inputs":[{"name":"owner","type":"address","internalType":"address"},{"name":"spender","type":"address","internalType":"address"}],"outputs":[{"name":"","type":"bool","internalType":"bool"}],"stateMutability":"view"},{"type":"function","name":"manualComputeExactAmountsIn","inputs":[{"name":"lbp","type":"address","internalType":"contract ILBPool"},{"name":"bptPercentageToMigrate","type":"uint256","internalType":"uint256"},{"name":"migrationWeightProjectToken","type":"uint256","internalType":"uint256"},{"name":"migrationWeightReserveToken","type":"uint256","internalType":"uint256"},{"name":"removeAmountsOut","type":"uint256[]","internalType":"uint256[]"}],"outputs":[{"name":"exactAmountsIn","type":"uint256[]","internalType":"uint256[]"}],"stateMutability":"view"},{"type":"function","name":"manualLockBPT","inputs":[{"name":"token","type":"address","internalType":"contract IERC20"},{"name":"owner","type":"address","internalType":"address"},{"name":"amount","type":"uint256","internalType":"uint256"},{"name":"duration","type":"uint256","internalType":"uint256"}],"outputs":[],"stateMutability":"nonpayable"},{"type":"function","name":"migrateLiquidity","inputs":[{"name":"lbp","type":"address","internalType":"contract ILBPool"},{"name":"excessReceiver","type":"address","internalType":"address"},{"name":"params","type":"tuple","internalType":"struct ILBPMigrationRouter.WeightedPoolParams","components":[{"name":"name","type":"string","internalType":"string"},{"name":"symbol","type":"string","internalType":"string"},{"name":"roleAccounts","type":"tuple","internalType":"struct PoolRoleAccounts","components":[{"name":"pauseManager","type":"address","internalType":"address"},{"name":"swapFeeManager","type":"address","internalType":"address"},{"name":"poolCreator","type":"address","internalType":"address"}]},{"name":"swapFeePercentage","type":"uint256","internalType":"uint256"},{"name":"poolHooksContract","type":"address","internalType":"address"},{"name":"enableDonation","type":"bool","internalType":"bool"},{"name":"disableUnbalancedLiquidity","type":"bool","internalType":"bool"},{"name":"salt","type":"bytes32","internalType":"bytes32"}]}],"outputs":[{"name":"","type":"address","internalType":"contract IWeightedPool"},{"name":"","type":"uint256[]","internalType":"uint256[]"},{"name":"","type":"uint256","internalType":"uint256"}],"stateMutability":"nonpayable"},{"type":"function","name":"migrateLiquidityHook","inputs":[{"name":"params","type":"tuple","internalType":"struct ILBPMigrationRouter.MigrationHookParams","components":[{"name":"lbp","type":"address","internalType":"contract ILBPool"},{"name":"weightedPool","type":"address","internalType":"contract IWeightedPool"},{"name":"tokens","type":"address[]","internalType":"contract IERC20[]"},{"name":"sender","type":"address","internalType":"address"},{"name":"excessReceiver","type":"address","internalType":"address"},{"name":"lockDurationAfterMigration","type":"uint256","internalType":"uint256"},{"name":"bptPercentageToMigrate","type":"uint256","internalType":"uint256"},{"name":"migrationWeightProjectToken","type":"uint256","internalType":"uint256"},{"name":"migrationWeightReserveToken","type":"uint256","internalType":"uint256"}]}],"outputs":[{"name":"exactAmountsIn","type":"uint256[]","internalType":"uint256[]"},{"name":"bptAmountOut","type":"uint256","internalType":"uint256"}],"stateMutability":"nonpayable"},{"type":"function","name":"multicall","inputs":[{"name":"data","type":"bytes[]","internalType":"bytes[]"}],"outputs":[{"name":"results","type":"bytes[]","internalType":"bytes[]"}],"stateMutability":"nonpayable"},{"type":"function","name":"name","inputs":[{"name":"id","type":"uint256","internalType":"uint256"}],"outputs":[{"name":"","type":"string","internalType":"string"}],"stateMutability":"view"},{"type":"function","name":"queryMigrateLiquidity","inputs":[{"name":"lbp","type":"address","internalType":"contract ILBPool"},{"name":"sender","type":"address","internalType":"address"},{"name":"excessReceiver","type":"address","internalType":"address"},{"name":"params","type":"tuple","internalType":"struct ILBPMigrationRouter.WeightedPoolParams","components":[{"name":"name","type":"string","internalType":"string"},{"name":"symbol","type":"string","internalType":"string"},{"name":"roleAccounts","type":"tuple","internalType":"struct PoolRoleAccounts","components":[{"name":"pauseManager","type":"address","internalType":"address"},{"name":"swapFeeManager","type":"address","internalType":"address"},{"name":"poolCreator","type":"address","internalType":"address"}]},{"name":"swapFeePercentage","type":"uint256","internalType":"uint256"},{"name":"poolHooksContract","type":"address","internalType":"address"},{"name":"enableDonation","type":"bool","internalType":"bool"},{"name":"disableUnbalancedLiquidity","type":"bool","internalType":"bool"},{"name":"salt","type":"bytes32","internalType":"bytes32"}]}],"outputs":[{"name":"exactAmountsIn","type":"uint256[]","internalType":"uint256[]"},{"name":"bptAmountOut","type":"uint256","internalType":"uint256"}],"stateMutability":"nonpayable"},{"type":"function","name":"setOperator","inputs":[{"name":"spender","type":"address","internalType":"address"},{"name":"approved","type":"bool","internalType":"bool"}],"outputs":[{"name":"","type":"bool","internalType":"bool"}],"stateMutability":"nonpayable"},{"type":"function","name":"supportsInterface","inputs":[{"name":"interfaceId","type":"bytes4","internalType":"bytes4"}],"outputs":[{"name":"","type":"bool","internalType":"bool"}],"stateMutability":"view"},{"type":"function","name":"symbol","inputs":[{"name":"id","type":"uint256","internalType":"uint256"}],"outputs":[{"name":"","type":"string","internalType":"string"}],"stateMutability":"view"},{"type":"function","name":"transfer","inputs":[{"name":"receiver","type":"address","internalType":"address"},{"name":"id","type":"uint256","internalType":"uint256"},{"name":"amount","type":"uint256","internalType":"uint256"}],"outputs":[{"name":"","type":"bool","internalType":"bool"}],"stateMutability":"nonpayable"},{"type":"function","name":"transferFrom","inputs":[{"name":"sender","type":"address","internalType":"address"},{"name":"receiver","type":"address","internalType":"address"},{"name":"id","type":"uint256","internalType":"uint256"},{"name":"amount","type":"uint256","internalType":"uint256"}],"outputs":[{"name":"","type":"bool","internalType":"bool"}],"stateMutability":"nonpayable"},{"type":"function","name":"version","inputs":[],"outputs":[{"name":"","type":"string","internalType":"string"}],"stateMutability":"view"},{"type":"function","name":"withdrawBPT","inputs":[{"name":"bptAddress","type":"address","internalType":"address"}],"outputs":[],"stateMutability":"nonpayable"},{"type":"event","name":"Approval","inputs":[{"name":"owner","type":"address","indexed":true,"internalType":"address"},{"name":"spender","type":"address","indexed":true,"internalType":"address"},{"name":"id","type":"uint256","indexed":true,"internalType":"uint256"},{"name":"amount","type":"uint256","indexed":false,"internalType":"uint256"}],"anonymous":false},{"type":"event","name":"BPTTimelockSet","inputs":[{"name":"bptAddress","type":"address","indexed":true,"internalType":"contract IERC20"},{"name":"unlockTimestamp","type":"uint256","indexed":false,"internalType":"uint256"}],"anonymous":false},{"type":"event","name":"ERC6909DecimalsUpdated","inputs":[{"name":"id","type":"uint256","indexed":true,"internalType":"uint256"},{"name":"newDecimals","type":"uint8","indexed":false,"internalType":"uint8"}],"anonymous":false},{"type":"event","name":"ERC6909NameUpdated","inputs":[{"name":"id","type":"uint256","indexed":true,"internalType":"uint256"},{"name":"newName","type":"string","indexed":false,"internalType":"string"}],"anonymous":false},{"type":"event","name":"ERC6909SymbolUpdated","inputs":[{"name":"id","type":"uint256","indexed":true,"internalType":"uint256"},{"name":"newSymbol","type":"string","indexed":false,"internalType":"string"}],"anonymous":false},{"type":"event","name":"OperatorSet","inputs":[{"name":"owner","type":"address","indexed":true,"internalType":"address"},{"name":"spender","type":"address","indexed":true,"internalType":"address"},{"name":"approved","type":"bool","indexed":false,"internalType":"bool"}],"anonymous":false},{"type":"event","name":"PoolMigrated","inputs":[{"name":"lbp","type":"address","indexed":true,"internalType":"contract ILBPool"},{"name":"weightedPool","type":"address","indexed":false,"internalType":"contract IWeightedPool"},{"name":"exactAmountsIn","type":"uint256[]","indexed":false,"internalType":"uint256[]"},{"name":"bptAmountOut","type":"uint256","indexed":false,"internalType":"uint256"}],"anonymous":false},{"type":"event","name":"Transfer","inputs":[{"name":"caller","type":"address","indexed":false,"internalType":"address"},{"name":"sender","type":"address","indexed":true,"internalType":"address"},{"name":"receiver","type":"address","indexed":true,"internalType":"address"},{"name":"id","type":"uint256","indexed":true,"internalType":"uint256"},{"name":"amount","type":"uint256","indexed":false,"internalType":"uint256"}],"anonymous":false},{"type":"error","name":"AddressEmptyCode","inputs":[{"name":"target","type":"address","internalType":"address"}]},{"type":"error","name":"BPTStillLocked","inputs":[{"name":"unlockTimestamp","type":"uint256","internalType":"uint256"}]},{"type":"error","name":"ERC6909InsufficientAllowance","inputs":[{"name":"spender","type":"address","internalType":"address"},{"name":"allowance","type":"uint256","internalType":"uint256"},{"name":"needed","type":"uint256","internalType":"uint256"},{"name":"id","type":"uint256","internalType":"uint256"}]},{"type":"error","name":"ERC6909InsufficientBalance","inputs":[{"name":"sender","type":"address","internalType":"address"},{"name":"balance","type":"uint256","internalType":"uint256"},{"name":"needed","type":"uint256","internalType":"uint256"},{"name":"id","type":"uint256","internalType":"uint256"}]},{"type":"error","name":"ERC6909InvalidApprover","inputs":[{"name":"approver","type":"address","internalType":"address"}]},{"type":"error","name":"ERC6909InvalidReceiver","inputs":[{"name":"receiver","type":"address","internalType":"address"}]},{"type":"error","name":"ERC6909InvalidSender","inputs":[{"name":"sender","type":"address","internalType":"address"}]},{"type":"error","name":"ERC6909InvalidSpender","inputs":[{"name":"spender","type":"address","internalType":"address"}]},{"type":"error","name":"FailedCall","inputs":[]},{"type":"error","name":"IncorrectMigrationRouter","inputs":[{"name":"expectedRouter","type":"address","internalType":"address"},{"name":"actualRouter","type":"address","internalType":"address"}]},{"type":"error","name":"NoLockedBPT","inputs":[]},{"type":"error","name":"NoRegisteredWeightedPoolFactory","inputs":[]},{"type":"error","name":"ReentrancyGuardReentrantCall","inputs":[]},{"type":"error","name":"SenderIsNotLBPOwner","inputs":[]},{"type":"error","name":"SenderIsNotVault","inputs":[{"name":"sender","type":"address","internalType":"address"}]}],"bytecode":{"object":"0x60c060405234801561000f575f5ffd5b506040516137a93803806137a983398101604081905261002e91610189565b8181816001600160a01b0316638d928af86040518163ffffffff1660e01b8152600401602060405180830381865afa15801561006c573d5f5f3e3d5ffd5b505050506040513d601f19601f82011682018060405250810190610090919061024d565b8161009a8161014f565b506001600160a01b039081166080526040516341d8c0bb60e01b81525f918291908516906341d8c0bb906100d39060019060040161026f565b6040805180830381865afa1580156100ed573d5f5f3e3d5ffd5b505050506040513d601f19601f8201168201806040525081019061011191906102ba565b90925090508015155f0361013857604051630336c49960e51b815260040160405180910390fd5b506001600160a01b031660a0525061043492505050565b5f61015a828261037a565b5050565b6001600160a01b0381168114610172575f5ffd5b50565b634e487b7160e01b5f52604160045260245ffd5b5f5f6040838503121561019a575f5ffd5b82516101a58161015e565b60208401519092506001600160401b038111156101c0575f5ffd5b8301601f810185136101d0575f5ffd5b80516001600160401b038111156101e9576101e9610175565b604051601f8201601f19908116603f011681016001600160401b038111828210171561021757610217610175565b60405281815282820160200187101561022e575f5ffd5b8160208401602083015e5f602083830101528093505050509250929050565b5f6020828403121561025d575f5ffd5b81516102688161015e565b9392505050565b5f6005831061028c57634e487b7160e01b5f52602160045260245ffd5b50908152604060208201819052600c908201526b15d95a59da1d1959141bdbdb60a21b606082015260800190565b5f5f604083850312156102cb575f5ffd5b82516102d68161015e565b602084015190925080151581146102eb575f5ffd5b809150509250929050565b600181811c9082168061030a57607f821691505b60208210810361032857634e487b7160e01b5f52602260045260245ffd5b50919050565b601f82111561037557805f5260205f20601f840160051c810160208510156103535750805b601f840160051c820191505b81811015610372575f815560010161035f565b50505b505050565b81516001600160401b0381111561039357610393610175565b6103a7816103a184546102f6565b8461032e565b6020601f8211600181146103d9575f83156103c25750848201515b5f19600385901b1c1916600184901b178455610372565b5f84815260208120601f198516915b8281101561040857878501518255602094850194600190920191016103e8565b508482101561042557868401515f19600387901b60f8161c191681555b50505050600190811b01905550565b60805160a05161332a61047f5f395f610e3d01525f8181610469015281816106500152818161073d01528181610f8001528181611068015281816111650152611299015261332a5ff3fe608060405234801561000f575f5ffd5b5060043610610103575f3560e01c8062ad800c14610107578062fdd58e1461013057806301ffc9a714610151578063095bcdb61461017457806320ad0ff81461018757806324901c0b146101a85780633f47e662146101bb578063426a8493146101f25780634e41a1fb1461020557806354fd4d5014610218578063558a729714610220578063598af9e7146102335780635e7a6a7d1461024657806365f68c89146102685780638a34711d1461027b578063ac9650d81461029a578063b6363cf2146102ba578063dc450d4f146102cd578063ddf19e57146102e2578063ec80e230146102f5578063fe99049a14610315575b5f5ffd5b61011a610115366004611e88565b610328565b6040516101279190611ecd565b60405180910390f35b61014361013e366004611f0d565b6103c7565b604051908152602001610127565b61016461015f366004611f37565b6103f1565b6040519015158152602001610127565b610164610182366004611f5e565b610425565b61019a610195366004612211565b61043c565b6040516101279291906122bb565b61019a6101b636600461236c565b61045b565b6101e06101c9366004611e88565b5f9081526004602052604090206002015460ff1690565b60405160ff9091168152602001610127565b610164610200366004611f5e565b610825565b61011a610213366004611e88565b610832565b61011a610851565b61016461022e366004612446565b6108e0565b61014361024136600461247d565b6108f5565b6102596102543660046124bb565b610926565b60405161012793929190612525565b610143610276366004612558565b6109e5565b610143610289366004611e88565b5f9081526005602052604090205490565b6102ad6102a8366004612573565b6109f1565b60405161012791906125e2565b6101646102c8366004612645565b610ad6565b6102e06102db366004612558565b610b03565b005b6102e06102f0366004612671565b610ba5565b6103086103033660046126b4565b610bb1565b6040516101279190612774565b610164610323366004612671565b610bca565b5f81815260046020526040902080546060919061034490612786565b80601f016020809104026020016040519081016040528092919081815260200182805461037090612786565b80156103bb5780601f10610392576101008083540402835291602001916103bb565b820191905f5260205f20905b81548152906001019060200180831161039e57829003601f168201915b50505050509050919050565b6001600160a01b0382165f9081526001602090815260408083208484529091529020545b92915050565b5f6001600160e01b03198216630f632fb360e01b14806103eb57506301ffc9a760e01b6001600160e01b03198316146103eb565b5f61043233858585610c15565b5060019392505050565b60605f61044d868686866001610c73565b909890975095505050505050565b60605f61046661115a565b5f7f00000000000000000000000000000000000000000000000000000000000000006001600160a01b031663214578976040518060c00160405280875f01516001600160a01b0316815260200187606001516001600160a01b03168152602001875f01516001600160a01b03166370a0823189606001516040518263ffffffff1660e01b81526004016104f991906127be565b602060405180830381865afa158015610514573d5f5f3e3d5ffd5b505050506040513d601f19601f8201168201806040525081019061053891906127d2565b815260408051600280825260608201835260209384019391929091830190803683370190505081526020015f815260200160405180602001604052805f8152508152506040518263ffffffff1660e01b81526004016105979190612811565b5f604051808303815f875af11580156105b2573d5f5f3e3d5ffd5b505050506040513d5f823e601f3d908101601f191682016040526105d99190810190612968565b509150506105fa845f01518560c001518660e00151876101000151856111a7565b92505f5b600281101561070f575f84828151811061061a5761061a6129cc565b6020026020010151838381518110610634576106346129cc565b602002602001015161064691906129f4565b90508015610706577f00000000000000000000000000000000000000000000000000000000000000006001600160a01b031663ae63932987604001518481518110610693576106936129cc565b602090810291909101015160808901516040516001600160e01b031960e085901b1681526001600160a01b03928316600482015291166024820152604481018490526064015f604051808303815f87803b1580156106ef575f5ffd5b505af1158015610701573d5f5f3e3d5ffd5b505050505b506001016105fe565b50602080850151604080870151815193840182525f80855291516305d4515f60e51b81526001600160a01b037f0000000000000000000000000000000000000000000000000000000000000000169463ba8a2be094610779949093309390928b9291600401612a40565b6020604051808303815f875af1158015610795573d5f5f3e3d5ffd5b505050506040513d601f19601f820116820180604052508101906107b991906127d2565b91506107d384602001518560600151848760a0015161161d565b835f01516001600160a01b03167f4d4f6b7510c8285aa70a0e40c3f7180bc41fb9686bdf5816157e1f999d6ef60c8560200151858560405161081793929190612525565b60405180910390a250915091565b5f6104323385858561181e565b5f81815260046020526040902060010180546060919061034490612786565b60605f805461085f90612786565b80601f016020809104026020016040519081016040528092919081815260200182805461088b90612786565b80156108d65780601f106108ad576101008083540402835291602001916108d6565b820191905f5260205f20905b8154815290600101906020018083116108b957829003601f168201915b5050505050905090565b5f6108ec3384846118dd565b50600192915050565b6001600160a01b039283165f9081526003602090815260408083209490951682529283528381209181529152205490565b5f60605f855f816001600160a01b0316638da5cb5b6040518163ffffffff1660e01b8152600401602060405180830381865afa158015610968573d5f5f3e3d5ffd5b505050506040513d601f19601f8201168201806040525081019061098c9190612aaf565b9050336001600160a01b038216146109b75760405163751bd60360e11b815260040160405180910390fd5b506109c061199b565b6109cd873388885f610c73565b9350935093506109db6119e2565b5093509350939050565b6001600160a01b031690565b604080515f815260208101909152606090826001600160401b03811115610a1a57610a1a611f90565b604051908082528060200260200182016040528015610a4d57816020015b6060815260200190600190039081610a385790505b5091505f5b83811015610ace57610aa930868684818110610a7057610a706129cc565b9050602002810190610a829190612aca565b85604051602001610a9593929190612b2a565b6040516020818303038152906040526119f9565b838281518110610abb57610abb6129cc565b6020908102919091010152600101610a52565b505092915050565b6001600160a01b039182165f90815260026020908152604080832093909416825291909152205460ff1690565b5f610b0d826109e5565b90505f610b1a33836103c7565b9050805f03610b3b5760405162e39db160e01b815260040160405180910390fd5b5f8281526005602052604090205442811115610b7257604051630c0912d360e31b8152600481018290526024015b60405180910390fd5b5f83815260056020526040812055610b8b338484611a90565b610b9f6001600160a01b0385163384611aca565b50505050565b610b9f8484848461161d565b6060610bc086868686866111a7565b9695505050505050565b5f336001600160a01b0386168114801590610bec5750610bea8682610ad6565b155b15610bfd57610bfd86828686611ad5565b610c0986868686610c15565b50600195945050505050565b6001600160a01b038416610c3e575f6040516301486a4160e71b8152600401610b6991906127be565b6001600160a01b038316610c67575f604051630b8bbd6160e41b8152600401610b6991906127be565b610b9f84848484611b4e565b5f60605f5f886001600160a01b0316630ca898486040518163ffffffff1660e01b81526004015f60405180830381865afa158015610cb3573d5f5f3e3d5ffd5b505050506040513d5f823e601f3d908101601f19168201604052610cda9190810190612bae565b6101408101519091506001600160a01b03163014610d2357610140810151604051630a9bbdff60e21b81526001600160a01b039091166004820152306024820152604401610b69565b6040805160028082526060820183525f92602083019080368337019050509050816101a0015181836080015181518110610d5f57610d5f6129cc565b602002602001018181525050816101c00151818360a0015181518110610d8757610d876129cc565b6020908102919091010152604080516002808252606082019092525f91816020015b604080516080810182525f8082526020808301829052928201819052606082015282525f19909201910181610da95790505090505f5b6002811015610e36578351805182908110610dfc57610dfc6129cc565b6020026020010151828281518110610e1657610e166129cc565b60209081029190910101516001600160a01b039091169052600101610ddf565b505f8890507f00000000000000000000000000000000000000000000000000000000000000006001600160a01b031663fed4cdda825f0151836020015185878660400151876060015188608001518960a001518a60c001518b60e001516040518b63ffffffff1660e01b8152600401610eb89a99989796959493929190612d1e565b6020604051808303815f875af1158015610ed4573d5f5f3e3d5ffd5b505050506040513d601f19601f82011682018060405250810190610ef89190612aaf565b96505f6040518061012001604052808e6001600160a01b03168152602001896001600160a01b03168152602001865f015181526020018d6001600160a01b031681526020018c6001600160a01b0316815260200186610160015181526020018661018001518152602001866101a001518152602001866101c0015181525090508815611066577f00000000000000000000000000000000000000000000000000000000000000006001600160a01b031663edfa356882604051602401610fbe9190612e47565b60408051601f198184030181529181526020820180516001600160e01b03166324901c0b60e01b179052516001600160e01b031960e084901b1681526110079190600401611ecd565b5f604051808303815f875af1158015611022573d5f5f3e3d5ffd5b505050506040513d5f823e601f3d908101601f191682016040526110499190810190612ee5565b80602001905181019061105c9190612f16565b909750955061114a565b7f00000000000000000000000000000000000000000000000000000000000000006001600160a01b03166348c89491826040516024016110a69190612e47565b60408051601f198184030181529181526020820180516001600160e01b03166324901c0b60e01b179052516001600160e01b031960e084901b1681526110ef9190600401611ecd565b5f604051808303815f875af115801561110a573d5f5f3e3d5ffd5b505050506040513d5f823e601f3d908101601f191682016040526111319190810190612ee5565b8060200190518101906111449190612f16565b90975095505b5050505050955095509592505050565b336001600160a01b037f000000000000000000000000000000000000000000000000000000000000000016146111a5573360405163089676d560e01b8152600401610b6991906127be565b565b60408051600280825260608083018452926020830190803683370190505090505f866001600160a01b031663e565c29e6040518163ffffffff1660e01b81526004015f60405180830381865afa158015611203573d5f5f3e3d5ffd5b505050506040513d5f823e601f3d908101601f1916820160405261122a9190810190612f59565b60e0015190505f876001600160a01b0316630ca898486040518163ffffffff1660e01b81526004015f60405180830381865afa15801561126c573d5f5f3e3d5ffd5b505050506040513d5f823e601f3d908101601f191682016040526112939190810190612bae565b90505f5f7f00000000000000000000000000000000000000000000000000000000000000006001600160a01b0316637e361bde8b6040518263ffffffff1660e01b81526004016112e391906127be565b5f60405180830381865afa1580156112fd573d5f5f3e3d5ffd5b505050506040513d5f823e601f3d908101601f191682016040526113249190810190613046565b915091505f61139583856080015181518110611342576113426129cc565b602002602001015183866080015181518110611360576113606129cc565b60200260200101518987608001518151811061137e5761137e6129cc565b6020026020010151611c6e9092919063ffffffff16565b90505f6113ed848660a00151815181106113b1576113b16129cc565b6020026020010151848760a00151815181106113cf576113cf6129cc565b60200260200101518a8860a001518151811061137e5761137e6129cc565b90505f8c6001600160a01b031663f898f16e6040518163ffffffff1660e01b81526004016040805180830381865afa15801561142b573d5f5f3e3d5ffd5b505050506040513d601f19601f8201168201806040525081019061144f91906130ab565b91505f905061145e82846130cd565b90505f6114bc8989608001518151811061147a5761147a6129cc565b6020026020010151838b8b60a0015181518110611499576114996129cc565b6020026020010151886114ac91906130e0565b6114b691906130f7565b90611c85565b90505f6114e86114d58f84611ca590919063ffffffff16565b6114b68f89611ca590919063ffffffff16565b9050848111156115165750838c6115098f61150384866130e0565b90611ca5565b61151391906130f7565b95505b5f8f9050611573898b6080015181518110611533576115336129cc565b6020026020010151898c6080015181518110611551576115516129cc565b602002602001015161156c848b611ca590919063ffffffff16565b9190611cc5565b8c8b6080015181518110611589576115896129cc565b6020026020010181815250506115e7898b60a00151815181106115ae576115ae6129cc565b6020026020010151898c60a00151815181106115cc576115cc6129cc565b602002602001015161156c8486611ca590919063ffffffff16565b8c8b60a00151815181106115fd576115fd6129cc565b602002602001018181525050505050505050505050505095945050505050565b5f611627856109e5565b90505f61163483426130cd565b90505f8690506116c483826001600160a01b03166306fdde036040518163ffffffff1660e01b81526004015f60405180830381865afa158015611679573d5f5f3e3d5ffd5b505050506040513d5f823e601f3d908101601f191682016040526116a09190810190613116565b6040516020016116b0919061315a565b604051602081830303815290604052611cd9565b61174e83826001600160a01b03166395d89b416040518163ffffffff1660e01b81526004015f60405180830381865afa158015611703573d5f5f3e3d5ffd5b505050506040513d5f823e601f3d908101601f1916820160405261172a9190810190613116565b60405160200161173a9190613175565b604051602081830303815290604052611d2d565b6117b783826001600160a01b031663313ce5676040518163ffffffff1660e01b8152600401602060405180830381865afa15801561178e573d5f5f3e3d5ffd5b505050506040513d601f19601f820116820180604052508101906117b29190613190565b611d78565b5f8381526005602052604090208290556117d2868487611dcb565b866001600160a01b03167f59c2e937deb745424f6fd4b177dca843e536a9f09d159b1e73f2516cc91962c28360405161180d91815260200190565b60405180910390a250505050505050565b6001600160a01b038416611847575f60405163198ecd5360e31b8152600401610b6991906127be565b6001600160a01b038316611870575f604051636f65f46560e01b8152600401610b6991906127be565b6001600160a01b038481165f8181526003602090815260408083209488168084529482528083208784528252918290208590559051848152859392917fb3fd5071835887567a0671151121894ddccc2842f1d10bedad13e0d17cace9a7910160405180910390a450505050565b6001600160a01b038316611906575f60405163198ecd5360e31b8152600401610b6991906127be565b6001600160a01b03821661192f575f604051636f65f46560e01b8152600401610b6991906127be565b6001600160a01b038381165f81815260026020908152604080832094871680845294825291829020805460ff191686151590811790915591519182527fceb576d9f15e4e200fdb5096d64d5dfd667e16def20c1eefd14256d8e3faa267910160405180910390a3505050565b5f5160206132d55f395f51905f525c156119c857604051633ee5aeb560e01b815260040160405180910390fd5b6111a560015f5160206132d55f395f51905f525b90611e00565b6111a55f5f5160206132d55f395f51905f526119dc565b60605f611a068484611e07565b9050808015611a2757505f3d1180611a2757505f846001600160a01b03163b115b15611a3c57611a34611e1a565b9150506103eb565b8015611a5d5783604051639996b31560e01b8152600401610b6991906127be565b3d15611a7057611a6b611e33565b611a89565b60405163d6bda27560e01b815260040160405180910390fd5b5092915050565b6001600160a01b038316611ab9575f6040516301486a4160e71b8152600401610b6991906127be565b611ac5835f8484611b4e565b505050565b611ac5838383611e3e565b5f611ae18585856108f5565b90505f19811015611b475781811015611b155783818385604051632c51fead60e11b8152600401610b6994939291906131b0565b6001600160a01b038086165f908152600360209081526040808320938816835292815282822086835290522082820390555b5050505050565b336001600160a01b03851615611bd3576001600160a01b0385165f90815260016020908152604080832086845290915290205482811015611baa57858184866040516302c6d3fb60e61b8152600401610b6994939291906131b0565b6001600160a01b0386165f90815260016020908152604080832087845290915290209083900390555b6001600160a01b03841615611c1a576001600160a01b0384165f90815260016020908152604080832086845290915281208054849290611c149084906130cd565b90915550505b604080516001600160a01b03838116825260208201859052859281881692918916917f1b3d7edb2e9c0b0e7c525b20aaaef0f5940d2ed71663c7d39266ecafac728859910160405180910390a45050505050565b5f611c7d8261150385876130e0565b949350505050565b5f80611c99670de0b6b3a7640000856130e0565b9050611c7d83826130f7565b5f80611cb183856130e0565b9050611c7d670de0b6b3a7640000826130f7565b5f611c7d84611cd484866130e0565b611c85565b5f828152600460205260409020611cf0828261321a565b50817f6846707b16f55a3623d38bf118700af63d0784698270a53ce28b116dbaa8b79482604051611d219190611ecd565b60405180910390a25050565b5f828152600460205260409020600101611d47828261321a565b50817f8fabcb7b4fbdde605303a7339bc80fb6956cd01a42e9cdf2d15d0f2fdd3b06fa82604051611d219190611ecd565b5f82815260046020908152604091829020600201805460ff191660ff8516908117909155915191825283917fc7435874568017e6134c851002a405d733521c0f4c63f9f25f3a32a4d595b7299101611d21565b6001600160a01b038316611df4575f604051630b8bbd6160e41b8152600401610b6991906127be565b611ac55f848484611b4e565b80825d5050565b5f5f5f835160208501865af49392505050565b6040513d81523d5f602083013e3d602001810160405290565b6040513d5f823e3d81fd5b816014528060345263a9059cbb60601b5f5260205f604460105f875af18060015f511416611e7e57803d853b151710611e7e576390b8ec185f526004601cfd5b505f603452505050565b5f60208284031215611e98575f5ffd5b5035919050565b5f81518084528060208401602086015e5f602082860101526020601f19601f83011685010191505092915050565b602081525f611edf6020830184611e9f565b9392505050565b6001600160a01b0381168114611efa575f5ffd5b50565b8035611f0881611ee6565b919050565b5f5f60408385031215611f1e575f5ffd5b8235611f2981611ee6565b946020939093013593505050565b5f60208284031215611f47575f5ffd5b81356001600160e01b031981168114611edf575f5ffd5b5f5f5f60608486031215611f70575f5ffd5b8335611f7b81611ee6565b95602085013595506040909401359392505050565b634e487b7160e01b5f52604160045260245ffd5b60405161010081016001600160401b0381118282101715611fc757611fc7611f90565b60405290565b60405161012081016001600160401b0381118282101715611fc757611fc7611f90565b6040516101e081016001600160401b0381118282101715611fc757611fc7611f90565b604051601f8201601f191681016001600160401b038111828210171561203b5761203b611f90565b604052919050565b5f6001600160401b0382111561205b5761205b611f90565b50601f01601f191660200190565b5f82601f830112612078575f5ffd5b813561208b61208682612043565b612013565b81815284602083860101111561209f575f5ffd5b816020850160208301375f918101602001919091529392505050565b5f606082840312156120cb575f5ffd5b604051606081016001600160401b03811182821017156120ed576120ed611f90565b60405290508082356120fe81611ee6565b8152602083013561210e81611ee6565b6020820152604083013561212181611ee6565b6040919091015292915050565b8015158114611efa575f5ffd5b8035611f088161212e565b5f6101408284031215612157575f5ffd5b61215f611fa4565b905081356001600160401b03811115612176575f5ffd5b61218284828501612069565b82525060208201356001600160401b0381111561219d575f5ffd5b6121a984828501612069565b6020830152506121bc83604084016120bb565b604082015260a082013560608201526121d760c08301611efd565b60808201526121e860e0830161213b565b60a08201526121fa610100830161213b565b60c0820152610120919091013560e0820152919050565b5f5f5f5f60808587031215612224575f5ffd5b843561222f81611ee6565b9350602085013561223f81611ee6565b9250604085013561224f81611ee6565b915060608501356001600160401b03811115612269575f5ffd5b61227587828801612146565b91505092959194509250565b5f8151808452602084019350602083015f5b828110156122b1578151865260209586019590910190600101612293565b5093949350505050565b604081525f6122cd6040830185612281565b90508260208301529392505050565b5f6001600160401b038211156122f4576122f4611f90565b5060051b60200190565b5f82601f83011261230d575f5ffd5b813561231b612086826122dc565b8082825260208201915060208360051b86010192508583111561233c575f5ffd5b602085015b8381101561236257803561235481611ee6565b835260209283019201612341565b5095945050505050565b5f6020828403121561237c575f5ffd5b81356001600160401b03811115612391575f5ffd5b820161012081850312156123a3575f5ffd5b6123ab611fcd565b6123b482611efd565b81526123c260208301611efd565b602082015260408201356001600160401b038111156123df575f5ffd5b6123eb868285016122fe565b6040830152506123fd60608301611efd565b606082015261240e60808301611efd565b608082015260a0828101359082015260c0808301359082015260e0808301359082015261010091820135918101919091529392505050565b5f5f60408385031215612457575f5ffd5b823561246281611ee6565b915060208301356124728161212e565b809150509250929050565b5f5f5f6060848603121561248f575f5ffd5b833561249a81611ee6565b925060208401356124aa81611ee6565b929592945050506040919091013590565b5f5f5f606084860312156124cd575f5ffd5b83356124d881611ee6565b925060208401356124e881611ee6565b915060408401356001600160401b03811115612502575f5ffd5b61250e86828701612146565b9150509250925092565b6001600160a01b03169052565b6001600160a01b03841681526060602082018190525f9061254890830185612281565b9050826040830152949350505050565b5f60208284031215612568575f5ffd5b8135611edf81611ee6565b5f5f60208385031215612584575f5ffd5b82356001600160401b03811115612599575f5ffd5b8301601f810185136125a9575f5ffd5b80356001600160401b038111156125be575f5ffd5b8560208260051b84010111156125d2575f5ffd5b6020919091019590945092505050565b5f602082016020835280845180835260408501915060408160051b8601019250602086015f5b8281101561263957603f19878603018452612624858351611e9f565b94506020938401939190910190600101612608565b50929695505050505050565b5f5f60408385031215612656575f5ffd5b823561266181611ee6565b9150602083013561247281611ee6565b5f5f5f5f60808587031215612684575f5ffd5b843561268f81611ee6565b9350602085013561269f81611ee6565b93969395505050506040820135916060013590565b5f5f5f5f5f60a086880312156126c8575f5ffd5b85356126d381611ee6565b945060208601359350604086013592506060860135915060808601356001600160401b03811115612702575f5ffd5b8601601f81018813612712575f5ffd5b8035612720612086826122dc565b8082825260208201915060208360051b85010192508a831115612741575f5ffd5b6020840193505b82841015612763578335825260209384019390910190612748565b809450505050509295509295909350565b602081525f611edf6020830184612281565b600181811c9082168061279a57607f821691505b6020821081036127b857634e487b7160e01b5f52602260045260245ffd5b50919050565b6001600160a01b0391909116815260200190565b5f602082840312156127e2575f5ffd5b5051919050565b634e487b7160e01b5f52602160045260245ffd5b6004811061280d5761280d6127e9565b9052565b602080825282516001600160a01b0390811683830152838201511660408084019190915283015160608084019190915283015160c06080840152805160e084018190525f92919091019082906101008501905b808310156128875783518252602082019150602084019350600183019250612864565b506080860151925061289c60a08601846127fd565b60a0860151858203601f190160c08701529250610bc08184611e9f565b5f82601f8301126128c8575f5ffd5b81516128d6612086826122dc565b8082825260208201915060208360051b8601019250858311156128f7575f5ffd5b602085015b838110156123625780518352602092830192016128fc565b5f61292161208684612043565b9050828152838383011115612934575f5ffd5b8282602083015e5f602084830101529392505050565b5f82601f830112612959575f5ffd5b611edf83835160208501612914565b5f5f5f6060848603121561297a575f5ffd5b835160208501519093506001600160401b03811115612997575f5ffd5b6129a3868287016128b9565b604086015190935090506001600160401b038111156129c0575f5ffd5b61250e8682870161294a565b634e487b7160e01b5f52603260045260245ffd5b634e487b7160e01b5f52601160045260245ffd5b818103818111156103eb576103eb6129e0565b5f8151808452602084019350602083015f5b828110156122b15781516001600160a01b0316865260209586019590910190600101612a19565b6001600160a01b0387811682528616602082015260c0604082018190525f90612a6b90830187612a07565b8281036060840152612a7d8187612281565b905084608084015282810360a0840152612a978185611e9f565b9998505050505050505050565b8051611f0881611ee6565b5f60208284031215612abf575f5ffd5b8151611edf81611ee6565b5f5f8335601e19843603018112612adf575f5ffd5b8301803591506001600160401b03821115612af8575f5ffd5b602001915036819003821315612b0c575f5ffd5b9250929050565b5f81518060208401855e5f93019283525090919050565b828482375f8382015f8152610bc08185612b13565b5f82601f830112612b4e575f5ffd5b8151612b5c612086826122dc565b8082825260208201915060208360051b860101925085831115612b7d575f5ffd5b602085015b83811015612362578051612b9581611ee6565b835260209283019201612b82565b8051611f088161212e565b5f60208284031215612bbe575f5ffd5b81516001600160401b03811115612bd3575f5ffd5b82016101e08185031215612be5575f5ffd5b612bed611ff0565b81516001600160401b03811115612c02575f5ffd5b612c0e86828501612b3f565b82525060208201516001600160401b03811115612c29575f5ffd5b612c35868285016128b9565b60208301525060408281015190820152606080830151908201526080808301519082015260a08083015190820152612c6f60c08301612ba3565b60c082015260e08201516001600160401b03811115612c8c575f5ffd5b612c98868285016128b9565b60e0830152506101008201516001600160401b03811115612cb7575f5ffd5b612cc3868285016128b9565b610100830152506101208281015190820152612ce26101408301612aa4565b610140820152610160828101519082015261018080830151908201526101a080830151908201526101c091820151918101919091529392505050565b61018081525f612d3261018083018d611e9f565b8281036020840152612d44818d611e9f565b83810360408501528b518082526020808e019350909101905f5b81811015612dc857835180516001600160a01b03168452602081015160028110612d8a57612d8a6127e9565b6020858101919091526040828101516001600160a01b0316908601526060918201511515918501919091529390930192608090920191600101612d5e565b50508381036060850152612ddc818c612281565b8a516001600160a01b03908116608087015260208c0151811660a087015260408c01511660c08601529250612e0f915050565b8660e0830152612e23610100830187612518565b93151561012082015291151561014083015261016090910152979650505050505050565b60208152612e59602082018351612518565b5f6020830151612e6c6040840182612518565b5060408301516101206060840152612e88610140840182612a07565b90506060840151612e9c6080850182612518565b506080840151612eaf60a0850182612518565b5060a084015160c084015260c084015160e084015260e08401516101008401526101008401516101208401528091505092915050565b5f60208284031215612ef5575f5ffd5b81516001600160401b03811115612f0a575f5ffd5b611c7d8482850161294a565b5f5f60408385031215612f27575f5ffd5b82516001600160401b03811115612f3c575f5ffd5b612f48858286016128b9565b602094909401519395939450505050565b5f60208284031215612f69575f5ffd5b81516001600160401b03811115612f7e575f5ffd5b82016101008185031215612f90575f5ffd5b612f98611fa4565b81516001600160401b03811115612fad575f5ffd5b612fb9868285016128b9565b8252506020828101519082015260408083015190820152612fdc60608301612ba3565b6060820152612fed60808301612ba3565b6080820152612ffe60a08301612ba3565b60a082015261300f60c08301612ba3565b60c082015260e08201516001600160401b0381111561302c575f5ffd5b613038868285016128b9565b60e083015250949350505050565b5f5f60408385031215613057575f5ffd5b82516001600160401b0381111561306c575f5ffd5b613078858286016128b9565b602085015190935090506001600160401b03811115613095575f5ffd5b6130a1858286016128b9565b9150509250929050565b5f5f604083850312156130bc575f5ffd5b505080516020909101519092909150565b808201808211156103eb576103eb6129e0565b80820281158282048414176103eb576103eb6129e0565b5f8261311157634e487b7160e01b5f52601260045260245ffd5b500490565b5f60208284031215613126575f5ffd5b81516001600160401b0381111561313b575f5ffd5b8201601f8101841361314b575f5ffd5b611c7d84825160208401612914565b6602637b1b5b2b2160cd1b81525f611edf6007830184612b13565b664c4f434b45442d60c81b81525f611edf6007830184612b13565b5f602082840312156131a0575f5ffd5b815160ff81168114611edf575f5ffd5b6001600160a01b0394909416845260208401929092526040830152606082015260800190565b601f821115611ac557805f5260205f20601f840160051c810160208510156131fb5750805b601f840160051c820191505b81811015611b47575f8155600101613207565b81516001600160401b0381111561323357613233611f90565b613247816132418454612786565b846131d6565b6020601f821160018114613279575f83156132625750848201515b5f19600385901b1c1916600184901b178455611b47565b5f84815260208120601f198516915b828110156132a85787850151825560209485019460019092019101613288565b50848210156132c557868401515f19600387901b60f8161c191681555b50505050600190811b0190555056fe9b779b17422d0df92223018b32b4d1fa46e071723d6817e2486d003becc55f00a2646970667358221220e731368bf15002af8825ac311f44f933e53b20cd4418a43fd336b58a7fefa8e764736f6c634300081e0033","linkReferences":{}},"methodIdentifiers":{"allowance(address,address,uint256)":"598af9e7","approve(address,uint256,uint256)":"426a8493","balanceOf(address,uint256)":"00fdd58e","decimals(uint256)":"3f47e662","getId(address)":"65f68c89","getUnlockTimestamp(uint256)":"8a34711d","isOperator(address,address)":"b6363cf2","manualComputeExactAmountsIn(address,uint256,uint256,uint256,uint256[])":"ec80e230","manualLockBPT(address,address,uint256,uint256)":"ddf19e57","migrateLiquidity(address,address,(string,string,(address,address,address),uint256,address,bool,bool,bytes32))":"5e7a6a7d","migrateLiquidityHook((address,address,address[],address,address,uint256,uint256,uint256,uint256))":"24901c0b","multicall(bytes[])":"ac9650d8","name(uint256)":"00ad800c","queryMigrateLiquidity(address,address,address,(string,string,(address,address,address),uint256,address,bool,bool,bytes32))":"20ad0ff8","setOperator(address,bool)":"558a7297","supportsInterface(bytes4)":"01ffc9a7","symbol(uint256)":"4e41a1fb","transfer(address,uint256,uint256)":"095bcdb6","transferFrom(address,address,uint256,uint256)":"fe99049a","version()":"54fd4d50","withdrawBPT(address)":"dc450d4f"},"id":208}