{"abi":[{"type":"function","name":"facetAddress","inputs":[{"name":"_functionSelector","type":"bytes4","internalType":"bytes4"}],"outputs":[{"name":"facetAddress_","type":"address","internalType":"address"}],"stateMutability":"view"},{"type":"function","name":"facetAddresses","inputs":[],"outputs":[{"name":"facetAddresses_","type":"address[]","internalType":"address[]"}],"stateMutability":"view"},{"type":"function","name":"facetFuncs","inputs":[],"outputs":[{"name":"funcs","type":"bytes4[]","internalType":"bytes4[]"}],"stateMutability":"pure"},{"type":"function","name":"facetFunctionSelectors","inputs":[{"name":"_facet","type":"address","internalType":"address"}],"outputs":[{"name":"facetFunctionSelectors_","type":"bytes4[]","internalType":"bytes4[]"}],"stateMutability":"view"},{"type":"function","name":"facetInterfaces","inputs":[],"outputs":[{"name":"interfaces","type":"bytes4[]","internalType":"bytes4[]"}],"stateMutability":"pure"},{"type":"function","name":"facetMetadata","inputs":[],"outputs":[{"name":"name","type":"string","internalType":"string"},{"name":"interfaces","type":"bytes4[]","internalType":"bytes4[]"},{"name":"functions","type":"bytes4[]","internalType":"bytes4[]"}],"stateMutability":"pure"},{"type":"function","name":"facetName","inputs":[],"outputs":[{"name":"name","type":"string","internalType":"string"}],"stateMutability":"pure"},{"type":"function","name":"facets","inputs":[],"outputs":[{"name":"facets_","type":"tuple[]","internalType":"struct IDiamondLoupe.Facet[]","components":[{"name":"facetAddress","type":"address","internalType":"address"},{"name":"functionSelectors","type":"bytes4[]","internalType":"bytes4[]"}]}],"stateMutability":"view"},{"type":"error","name":"FacetAlreadyPresent","inputs":[{"name":"facet","type":"address","internalType":"address"}]},{"type":"error","name":"FacetNotPresent","inputs":[{"name":"facet","type":"address","internalType":"address"}]},{"type":"error","name":"FunctionAlreadyPresent","inputs":[{"name":"functionSelector","type":"bytes4","internalType":"bytes4"}]},{"type":"error","name":"FunctionNotPresent","inputs":[{"name":"functionSelector","type":"bytes4","internalType":"bytes4"}]},{"type":"error","name":"IndexOutOfBounds","inputs":[{"name":"length","type":"uint256","internalType":"uint256"},{"name":"invalidIndex","type":"uint256","internalType":"uint256"},{"name":"errorCode","type":"uint256","internalType":"uint256"}]},{"type":"error","name":"SelectorFacetMismatch","inputs":[{"name":"functionSelector","type":"bytes4","internalType":"bytes4"},{"name":"expectedFacet","type":"address","internalType":"address"},{"name":"actualFacet","type":"address","internalType":"address"}]}],"bytecode":{"object":"0x6080604052348015600e575f5ffd5b506108c68061001c5f395ff3fe608060405234801561000f575f5ffd5b5060043610610076575f3560e01c80632ea808261461007a57806352ef6b2c14610098578063574a4cff146100ad5780635b6f4d01146100b55780637a0ed627146100ca578063adfca15e146100df578063cdffacc6146100f2578063f10d7a751461011d575b5f5ffd5b610082610134565b60405161008f9190610685565b60405180910390f35b6100a061018c565b60405161008f9190610697565b61008261019b565b6100bd61027d565b60405161008f9190610710565b6100d26102a8565b60405161008f9190610722565b6100826100ed3660046107d9565b6102b2565b6101056101003660046107ff565b6102c3565b6040516001600160a01b03909116815260200161008f565b6101256102cd565b60405161008f93929190610826565b604080516001808252818301909252606091602080830190803683370190505090506348e2b09360e01b815f815181106101705761017061087c565b6001600160e01b03199092166020928302919091019091015290565b60606101966102f5565b905090565b60408051600480825260a0820190925260609160208201608080368337019050509050637a0ed62760e01b815f815181106101d8576101d861087c565b6001600160e01b03199092166020928302919091019091015280516356fe50af60e11b908290600190811061020f5761020f61087c565b6001600160e01b03199092166020928302919091019091015280516314bbdacb60e21b90829060029081106102465761024661087c565b6001600160e01b03199092166020928302919091019091015280516366ffd66360e11b90829060039081106101705761017061087c565b604080518082019091526011815270111a585b5bdb99131bdd5c19519858d95d607a1b602082015290565b6060610196610307565b60606102bd82610319565b92915050565b5f6102bd8261032c565b60608060606102da61027d565b92506102e4610134565b91506102ee61019b565b9050909192565b6060610196610302610361565b6103ae565b6060610196610314610361565b610412565b60606102bd610326610361565b83610510565b5f6102bd610338610361565b836001600160e01b0319165f90815260029190910160205260409020546001600160a01b031690565b5f610196604051602001610395906020808252600c908201526b6569702e6572632e3235333560a01b604082015260600190565b6040516020818303038152906040528051906020012090565b60606001820180548060200260200160405190810160405280929190818152602001828054801561040657602002820191905f5260205f20905b81546001600160a01b031681526001909101906020018083116103e8575b50505050509050919050565b60605f610420836001015490565b9050806001600160401b0381111561043a5761043a610868565b60405190808252806020026020018201604052801561047f57816020015b604080518082019091525f8152606060208201528152602001906001900390816104585790505b5091505f5b81811015610509575f610497858361053c565b90506040518060400160405280826001600160a01b031681526020016104e0876003015f856001600160a01b03166001600160a01b031681526020019081526020015f2061057e565b8152508483815181106104f5576104f561087c565b602090810291909101015250600101610484565b5050919050565b6001600160a01b0381165f90815260038301602052604090206060906105359061057e565b9392505050565b60018201545f9061054d9083610602565b508260010182815481106105635761056361087c565b5f918252602090912001546001600160a01b03169392505050565b60608160010180548060200260200160405190810160405280929190818152602001828054801561040657602002820191905f5260205f20905f905b82829054906101000a900460e01b6001600160e01b031916815260200190600401906020826003010492830192600103820291508084116105ba575094979650505050505050565b5f81831161063857604051635400feb960e01b815260048101849052602481018390526032604482015260640160405180910390fd5b50600192915050565b5f8151808452602084019350602083015f5b8281101561067b5781516001600160e01b031916865260209586019590910190600101610653565b5093949350505050565b602081525f6105356020830184610641565b602080825282518282018190525f918401906040840190835b818110156106d75783516001600160a01b03168352602093840193909201916001016106b0565b509095945050505050565b5f81518084528060208401602086015e5f602082860101526020601f19601f83011685010191505092915050565b602081525f61053560208301846106e2565b5f602082016020835280845180835260408501915060408160051b8601019250602086015f5b828110156107cd57868503603f19018452815180516001600160a01b03168652602090810151604082880181905281519088018190529101905f9060608801905b808310156107b55783516001600160e01b03191682526020938401936001939093019290910190610789565b50965050506020938401939190910190600101610748565b50929695505050505050565b5f602082840312156107e9575f5ffd5b81356001600160a01b0381168114610535575f5ffd5b5f6020828403121561080f575f5ffd5b81356001600160e01b031981168114610535575f5ffd5b606081525f61083860608301866106e2565b828103602084015261084a8186610641565b9050828103604084015261085e8185610641565b9695505050505050565b634e487b7160e01b5f52604160045260245ffd5b634e487b7160e01b5f52603260045260245ffdfea26469706673582212206960fd56d9b2e010c468d4cfb47d1c555f8843f735ce444815a27ff5b447b96864736f6c634300081e0033","linkReferences":{}},"methodIdentifiers":{"facetAddress(bytes4)":"cdffacc6","facetAddresses()":"52ef6b2c","facetFuncs()":"574a4cff","facetFunctionSelectors(address)":"adfca15e","facetInterfaces()":"2ea80826","facetMetadata()":"f10d7a75","facetName()":"5b6f4d01","facets()":"7a0ed627"},"id":666}