{"abi":[{"type":"constructor","inputs":[{"name":"name","type":"string","internalType":"string"},{"name":"symbol","type":"string","internalType":"string"},{"name":"decimals_","type":"uint8","internalType":"uint8"}],"stateMutability":"nonpayable"},{"type":"function","name":"DOMAIN_SEPARATOR","inputs":[],"outputs":[{"name":"result","type":"bytes32","internalType":"bytes32"}],"stateMutability":"view"},{"type":"function","name":"allowance","inputs":[{"name":"owner","type":"address","internalType":"address"},{"name":"spender","type":"address","internalType":"address"}],"outputs":[{"name":"","type":"uint256","internalType":"uint256"}],"stateMutability":"view"},{"type":"function","name":"approve","inputs":[{"name":"spender","type":"address","internalType":"address"},{"name":"value","type":"uint256","internalType":"uint256"}],"outputs":[{"name":"","type":"bool","internalType":"bool"}],"stateMutability":"nonpayable"},{"type":"function","name":"balanceOf","inputs":[{"name":"account","type":"address","internalType":"address"}],"outputs":[{"name":"","type":"uint256","internalType":"uint256"}],"stateMutability":"view"},{"type":"function","name":"burn","inputs":[{"name":"sender","type":"address","internalType":"address"},{"name":"amount","type":"uint256","internalType":"uint256"}],"outputs":[],"stateMutability":"nonpayable"},{"type":"function","name":"decimals","inputs":[],"outputs":[{"name":"","type":"uint8","internalType":"uint8"}],"stateMutability":"view"},{"type":"function","name":"getRate","inputs":[],"outputs":[{"name":"","type":"uint256","internalType":"uint256"}],"stateMutability":"view"},{"type":"function","name":"mint","inputs":[{"name":"recipient","type":"address","internalType":"address"},{"name":"amount","type":"uint256","internalType":"uint256"}],"outputs":[],"stateMutability":"nonpayable"},{"type":"function","name":"name","inputs":[],"outputs":[{"name":"","type":"string","internalType":"string"}],"stateMutability":"view"},{"type":"function","name":"nonces","inputs":[{"name":"owner","type":"address","internalType":"address"}],"outputs":[{"name":"result","type":"uint256","internalType":"uint256"}],"stateMutability":"view"},{"type":"function","name":"permit","inputs":[{"name":"owner","type":"address","internalType":"address"},{"name":"spender","type":"address","internalType":"address"},{"name":"value","type":"uint256","internalType":"uint256"},{"name":"deadline","type":"uint256","internalType":"uint256"},{"name":"v","type":"uint8","internalType":"uint8"},{"name":"r","type":"bytes32","internalType":"bytes32"},{"name":"s","type":"bytes32","internalType":"bytes32"}],"outputs":[],"stateMutability":"nonpayable"},{"type":"function","name":"setRate","inputs":[{"name":"newRate","type":"uint256","internalType":"uint256"}],"outputs":[],"stateMutability":"nonpayable"},{"type":"function","name":"symbol","inputs":[],"outputs":[{"name":"","type":"string","internalType":"string"}],"stateMutability":"view"},{"type":"function","name":"totalSupply","inputs":[],"outputs":[{"name":"","type":"uint256","internalType":"uint256"}],"stateMutability":"view"},{"type":"function","name":"transfer","inputs":[{"name":"to","type":"address","internalType":"address"},{"name":"value","type":"uint256","internalType":"uint256"}],"outputs":[{"name":"","type":"bool","internalType":"bool"}],"stateMutability":"nonpayable"},{"type":"function","name":"transferFrom","inputs":[{"name":"from","type":"address","internalType":"address"},{"name":"to","type":"address","internalType":"address"},{"name":"value","type":"uint256","internalType":"uint256"}],"outputs":[{"name":"","type":"bool","internalType":"bool"}],"stateMutability":"nonpayable"},{"type":"event","name":"Approval","inputs":[{"name":"owner","type":"address","indexed":true,"internalType":"address"},{"name":"spender","type":"address","indexed":true,"internalType":"address"},{"name":"amount","type":"uint256","indexed":false,"internalType":"uint256"}],"anonymous":false},{"type":"event","name":"Transfer","inputs":[{"name":"from","type":"address","indexed":true,"internalType":"address"},{"name":"to","type":"address","indexed":true,"internalType":"address"},{"name":"amount","type":"uint256","indexed":false,"internalType":"uint256"}],"anonymous":false},{"type":"error","name":"AllowanceOverflow","inputs":[]},{"type":"error","name":"AllowanceUnderflow","inputs":[]},{"type":"error","name":"InsufficientAllowance","inputs":[]},{"type":"error","name":"InsufficientBalance","inputs":[]},{"type":"error","name":"InvalidPermit","inputs":[]},{"type":"error","name":"Permit2AllowanceIsFixedAtInfinity","inputs":[]},{"type":"error","name":"PermitExpired","inputs":[]},{"type":"error","name":"TotalSupplyOverflow","inputs":[]},{"type":"error","name":"ZeroTransfer","inputs":[]}],"bytecode":{"object":"0x60a060405234801561000f575f5ffd5b50604051610d70380380610d7083398101604081905261002e91610108565b82828282825f61003e8382610209565b50600161004b8282610209565b50505060ff166080525050670de0b6b3a7640000600255506102c3915050565b634e487b7160e01b5f52604160045260245ffd5b5f82601f83011261008e575f5ffd5b81516001600160401b038111156100a7576100a761006b565b604051601f8201601f19908116603f011681016001600160401b03811182821017156100d5576100d561006b565b6040528181528382016020018510156100ec575f5ffd5b8160208501602083015e5f918101602001919091529392505050565b5f5f5f6060848603121561011a575f5ffd5b83516001600160401b0381111561012f575f5ffd5b61013b8682870161007f565b602086015190945090506001600160401b03811115610158575f5ffd5b6101648682870161007f565b925050604084015160ff8116811461017a575f5ffd5b809150509250925092565b600181811c9082168061019957607f821691505b6020821081036101b757634e487b7160e01b5f52602260045260245ffd5b50919050565b601f82111561020457805f5260205f20601f840160051c810160208510156101e25750805b601f840160051c820191505b81811015610201575f81556001016101ee565b50505b505050565b81516001600160401b038111156102225761022261006b565b610236816102308454610185565b846101bd565b6020601f821160018114610268575f83156102515750848201515b5f19600385901b1c1916600184901b178455610201565b5f84815260208120601f198516915b828110156102975787850151825560209485019460019092019101610277565b50848210156102b457868401515f19600387901b60f8161c191681555b50505050600190811b01905550565b608051610a956102db5f395f6101430152610a955ff3fe608060405234801561000f575f5ffd5b50600436106100ce575f3560e01c806306fdde03146100d2578063095ea7b3146100f057806318160ddd1461011357806323b872dd14610129578063313ce5671461013c57806334fcf4371461016d5780633644e5151461018257806340c10f191461018a578063679aefce1461019d57806370a08231146101a55780637ecebe00146101b857806395d89b41146101dd5780639dc29fac146101e5578063a9059cbb146101f8578063d505accf1461020b578063dd62ed3e1461021e575b5f5ffd5b6100da610231565b6040516100e79190610847565b60405180910390f35b6101036100fe366004610897565b6102c0565b60405190151581526020016100e7565b61011b6102d4565b6040519081526020016100e7565b6101036101373660046108bf565b6102eb565b60405160ff7f00000000000000000000000000000000000000000000000000000000000000001681526020016100e7565b61018061017b3660046108f9565b600255565b005b61011b61031f565b610180610198366004610897565b610370565b60025461011b565b61011b6101b3366004610910565b61037e565b61011b6101c6366004610910565b6338377508600c9081525f91909152602090205490565b6100da610397565b6101806101f3366004610897565b6103a6565b610103610206366004610897565b6103b0565b610180610219366004610929565b6103db565b61011b61022c366004610996565b610553565b60605f805461023f906109c7565b80601f016020809104026020016040519081016040528092919081815260200182805461026b906109c7565b80156102b65780601f1061028d576101008083540402835291602001916102b6565b820191905f5260205f20905b81548152906001019060200180831161029957829003601f168201915b5050505050905090565b5f6102cb838361055e565b90505b92915050565b5f6102e66805345cdf77eb68f44c5490565b905090565b5f815f0361030c576040516310cadee360e01b815260040160405180910390fd5b6103178484846105ca565b949350505050565b5f80610329610231565b8051906020012090505f61033b6105d6565b604080515f516020610a405f395f51905f52815260208101949094528301525046606082015230608082015260a09020919050565b61037a82826105fa565b5050565b6387a211a2600c9081525f8281526020909120546102ce565b60606001805461023f906109c7565b61037a8282610604565b5f815f036103d1576040516310cadee360e01b815260040160405180910390fd5b6102cb838361060e565b6001600160a01b0386166e22d473030f116ddee9f6b43ac78ba3188519151761040b57633f68539a5f526004601cfd5b5f610414610231565b8051906020012090505f6104266105d6565b90508542111561043d57631a15a3cc5f526004601cfd5b6040518960601b60601c99508860601b60601c985065383775081901600e52895f526020600c2080545f516020610a405f395f51905f52835284602084015283604084015246606084015230608084015260a08320602e527f6e71edae12b1b97f4d1f60370fef10105fa2faae0126114a169c64845d6126c983528b60208401528a60408401528960608401528060808401528860a084015260c08320604e526042602c205f528760ff16602052866040528560605260208060805f60015afa8c3d51146105125763ddafbaef5f526004601cfd5b0190556303faf4f960a51b89176040526034602c20889055888a5f516020610a205f395f51905f52602060608501a360405250505f60605250505050505050565b5f6102cb8383610619565b5f6001600160a01b0383166e22d473030f116ddee9f6b43ac78ba3188219151761058f57633f68539a5f526004601cfd5b82602052637f5e9f20600c52335f52816034600c2055815f52602c5160601c335f516020610a205f395f51905f5260205fa350600192915050565b5f61031784848461065d565b7fc89efdaa54c0f20c7adf612882df0950f5a951637e0307cdcb4c672f298b8bc690565b61037a8282610719565b61037a8282610782565b5f6102cb83836107e3565b5f6e22d473030f116ddee9f6b43ac78ba2196001600160a01b0383160161064257505f196102ce565b50602052637f5e9f20600c9081525f91909152603490205490565b5f8360601b6e22d473030f116ddee9f6b43ac78ba333146106b25733602052637f5e9f208117600c526034600c2080548019156106af57808511156106a9576313be252b5f526004601cfd5b84810382555b50505b6387a211a28117600c526020600c208054808511156106d85763f4d678b85f526004601cfd5b84810382555050835f526020600c208381540181555082602052600c5160601c8160601c5f516020610a005f395f51905f52602080a3505060019392505050565b6805345cdf77eb68f44c548181018181101561073c5763e5cfe9575f526004601cfd5b806805345cdf77eb68f44c5550506387a211a2600c52815f526020600c208181540181555080602052600c5160601c5f5f516020610a005f395f51905f52602080a35050565b6387a211a2600c52815f526020600c208054808311156107a95763f4d678b85f526004601cfd5b82900390556805345cdf77eb68f44c805482900390555f8181526001600160a01b0383165f516020610a005f395f51905f52602083a35050565b5f6387a211a2600c52335f526020600c2080548084111561080b5763f4d678b85f526004601cfd5b83810382555050825f526020600c208281540181555081602052600c5160601c335f516020610a005f395f51905f52602080a350600192915050565b602081525f82518060208401528060208501604085015e5f604082850101526040601f19601f83011684010191505092915050565b80356001600160a01b0381168114610892575f5ffd5b919050565b5f5f604083850312156108a8575f5ffd5b6108b18361087c565b946020939093013593505050565b5f5f5f606084860312156108d1575f5ffd5b6108da8461087c565b92506108e86020850161087c565b929592945050506040919091013590565b5f60208284031215610909575f5ffd5b5035919050565b5f60208284031215610920575f5ffd5b6102cb8261087c565b5f5f5f5f5f5f5f60e0888a03121561093f575f5ffd5b6109488861087c565b96506109566020890161087c565b95506040880135945060608801359350608088013560ff81168114610979575f5ffd5b9699959850939692959460a0840135945060c09093013592915050565b5f5f604083850312156109a7575f5ffd5b6109b08361087c565b91506109be6020840161087c565b90509250929050565b600181811c908216806109db57607f821691505b6020821081036109f957634e487b7160e01b5f52602260045260245ffd5b5091905056feddf252ad1be2c89b69c2b068fc378daa952ba7f163c4a11628f55a4df523b3ef8c5be1e5ebec7d5bd14f71427d1e84f3dd0314c0f7b2291e5b200ac8c7c3b9258b73c3c69bb8fe3d512ecc4cf759cc79239f7b179b0ffacaa9a75d522b39400fa264697066735822122086b8313140e6e685235b2fe149d916a086727888deb6851874cdda2934e3928964736f6c634300081e0033","linkReferences":{}},"methodIdentifiers":{"DOMAIN_SEPARATOR()":"3644e515","allowance(address,address)":"dd62ed3e","approve(address,uint256)":"095ea7b3","balanceOf(address)":"70a08231","burn(address,uint256)":"9dc29fac","decimals()":"313ce567","getRate()":"679aefce","mint(address,uint256)":"40c10f19","name()":"06fdde03","nonces(address)":"7ecebe00","permit(address,address,uint256,uint256,uint8,bytes32,bytes32)":"d505accf","setRate(uint256)":"34fcf437","symbol()":"95d89b41","totalSupply()":"18160ddd","transfer(address,uint256)":"a9059cbb","transferFrom(address,address,uint256)":"23b872dd"},"id":274}