{"abi":[{"type":"function","name":"facetFuncs","inputs":[],"outputs":[{"name":"funcs","type":"bytes4[]","internalType":"bytes4[]"}],"stateMutability":"pure"},{"type":"function","name":"facetInterfaces","inputs":[],"outputs":[{"name":"interfaces","type":"bytes4[]","internalType":"bytes4[]"}],"stateMutability":"pure"},{"type":"function","name":"facetMetadata","inputs":[],"outputs":[{"name":"name","type":"string","internalType":"string"},{"name":"interfaces","type":"bytes4[]","internalType":"bytes4[]"},{"name":"functions","type":"bytes4[]","internalType":"bytes4[]"}],"stateMutability":"pure"},{"type":"function","name":"facetName","inputs":[],"outputs":[{"name":"name","type":"string","internalType":"string"}],"stateMutability":"pure"},{"type":"function","name":"isOperator","inputs":[{"name":"query","type":"address","internalType":"address"}],"outputs":[{"name":"","type":"bool","internalType":"bool"}],"stateMutability":"view"},{"type":"function","name":"isOperatorFor","inputs":[{"name":"func","type":"bytes4","internalType":"bytes4"},{"name":"query","type":"address","internalType":"address"}],"outputs":[{"name":"","type":"bool","internalType":"bool"}],"stateMutability":"view"},{"type":"function","name":"setOperator","inputs":[{"name":"operator","type":"address","internalType":"address"},{"name":"status","type":"bool","internalType":"bool"}],"outputs":[{"name":"","type":"bool","internalType":"bool"}],"stateMutability":"nonpayable"},{"type":"function","name":"setOperatorFor","inputs":[{"name":"func","type":"bytes4","internalType":"bytes4"},{"name":"newOperator","type":"address","internalType":"address"},{"name":"approval","type":"bool","internalType":"bool"}],"outputs":[{"name":"","type":"bool","internalType":"bool"}],"stateMutability":"nonpayable"},{"type":"event","name":"NewFunctionOperatorStatus","inputs":[{"name":"operator","type":"address","indexed":false,"internalType":"address"},{"name":"func","type":"bytes4","indexed":false,"internalType":"bytes4"},{"name":"status","type":"bool","indexed":false,"internalType":"bool"}],"anonymous":false},{"type":"event","name":"NewGlobalOperatorStatus","inputs":[{"name":"operator","type":"address","indexed":false,"internalType":"address"},{"name":"status","type":"bool","indexed":false,"internalType":"bool"}],"anonymous":false},{"type":"error","name":"NotOperator","inputs":[{"name":"caller","type":"address","internalType":"address"}]},{"type":"error","name":"NotOwner","inputs":[{"name":"caller","type":"address","internalType":"address"}]}],"bytecode":{"object":"0x6080604052348015600e575f5ffd5b5061076b8061001c5f395ff3fe608060405234801561000f575f5ffd5b5060043610610076575f3560e01c80632ea808261461007a578063558a729714610098578063574a4cff146100bb5780635b6f4d01146100c35780636d70f7ae146100d8578063755dbe7c146100eb578063ea562a25146100fe578063f10d7a7514610111575b5f5ffd5b610082610128565b60405161008f919061059a565b60405180910390f35b6100ab6100a63660046105d6565b610180565b604051901515815260200161008f565b61008261019c565b6100cb61027e565b60405161008f9190610635565b6100ab6100e6366004610647565b6102a5565b6100ab6100f9366004610677565b6102b5565b6100ab61010c3660046106b7565b6102d3565b6101196102e5565b60405161008f939291906106df565b6040805160018082528183019092526060916020808301908036833701905050905063053f888b60e51b815f8151811061016457610164610721565b6001600160e01b03199092166020928302919091019091015290565b5f61018961030d565b6101938383610338565b50600192915050565b60408051600480825260a0820190925260609160208201608080368337019050509050636d70f7ae60e01b815f815181106101d9576101d9610721565b6001600160e01b031990921660209283029190910190910152805163ea562a2560e01b908290600190811061021057610210610721565b6001600160e01b031990921660209283029190910190910152805163558a729760e01b908290600290811061024757610247610721565b6001600160e01b0319909216602092830291909101909101528051631d576f9f60e21b908290600390811061016457610164610721565b60408051808201909152600d81526c13dc195c98589b19519858d95d609a1b602082015290565b5f6102af8261034e565b92915050565b5f6102be61030d565b6102c9848484610379565b5060019392505050565b5f6102de8383610391565b9392505050565b60608060606102f261027e565b92506102fc610128565b915061030661019c565b9050909192565b6103367f552e522d4f9b6a3d443b47299f900b7b1bce2dacca532b0186b605495413451d6103d9565b565b61034a61034361040c565b8383610462565b5050565b5f6102af61035a61040c565b836001600160a01b03165f908152602091909152604090205460ff1690565b61038c61038461040c565b8484846104cb565b505050565b5f6102de61039d61040c565b6001600160e01b031985165f908152600191909101602090815260408083206001600160a01b038716845290915290205460ff1690565b905090565b80546001600160a01b031633146104095760405163245aecd360e01b815233600482015260240160405180910390fd5b50565b5f6103d4604051602001610449906020808252601590820152746372616e652e6163636573732e6f70657261626c6560581b604082015260600190565b6040516020818303038152906040528051906020012090565b61046a61030d565b6001600160a01b0382165f8181526020858152604091829020805460ff19168515159081179091558251938452908301527f26ba28058a3c072a70c8fd315037fe9b3957237cef5c61a9652a8da41c673daa910160405180910390a1505050565b6104d361030d565b6001600160e01b031983165f81815260018601602090815260408083206001600160a01b03871680855290835292819020805486151560ff1990911681179091558151938452918301939093528183015290517ff071216dc06459e77b915d1883909d92f41239172000b60261dfdc03518895699181900360600190a150505050565b5f8151808452602084019350602083015f5b828110156105905781516001600160e01b031916865260209586019590910190600101610568565b5093949350505050565b602081525f6102de6020830184610556565b80356001600160a01b03811681146105c2575f5ffd5b919050565b803580151581146105c2575f5ffd5b5f5f604083850312156105e7575f5ffd5b6105f0836105ac565b91506105fe602084016105c7565b90509250929050565b5f81518084528060208401602086015e5f602082860101526020601f19601f83011685010191505092915050565b602081525f6102de6020830184610607565b5f60208284031215610657575f5ffd5b6102de826105ac565b80356001600160e01b0319811681146105c2575f5ffd5b5f5f5f60608486031215610689575f5ffd5b61069284610660565b92506106a0602085016105ac565b91506106ae604085016105c7565b90509250925092565b5f5f604083850312156106c8575f5ffd5b6106d183610660565b91506105fe602084016105ac565b606081525f6106f16060830186610607565b82810360208401526107038186610556565b905082810360408401526107178185610556565b9695505050505050565b634e487b7160e01b5f52603260045260245ffdfea26469706673582212200d60d173b645775cbe676f205c7f51b67894732c93b412549e35a767b4985d3b64736f6c634300081e0033","linkReferences":{}},"methodIdentifiers":{"facetFuncs()":"574a4cff","facetInterfaces()":"2ea80826","facetMetadata()":"f10d7a75","facetName()":"5b6f4d01","isOperator(address)":"6d70f7ae","isOperatorFor(bytes4,address)":"ea562a25","setOperator(address,bool)":"558a7297","setOperatorFor(bytes4,address,bool)":"755dbe7c"},"id":14}