{"abi":[{"type":"constructor","inputs":[{"name":"_forwarder","type":"address","internalType":"address"},{"name":"_voter","type":"address","internalType":"address"}],"stateMutability":"nonpayable"},{"type":"function","name":"DURATION","inputs":[],"outputs":[{"name":"","type":"uint256","internalType":"uint256"}],"stateMutability":"view"},{"type":"function","name":"_deposit","inputs":[{"name":"amount","type":"uint256","internalType":"uint256"},{"name":"tokenId","type":"uint256","internalType":"uint256"}],"outputs":[],"stateMutability":"nonpayable"},{"type":"function","name":"_withdraw","inputs":[{"name":"amount","type":"uint256","internalType":"uint256"},{"name":"tokenId","type":"uint256","internalType":"uint256"}],"outputs":[],"stateMutability":"nonpayable"},{"type":"function","name":"authorized","inputs":[],"outputs":[{"name":"","type":"address","internalType":"address"}],"stateMutability":"view"},{"type":"function","name":"balanceOf","inputs":[{"name":"","type":"uint256","internalType":"uint256"}],"outputs":[{"name":"","type":"uint256","internalType":"uint256"}],"stateMutability":"view"},{"type":"function","name":"checkpoints","inputs":[{"name":"","type":"uint256","internalType":"uint256"},{"name":"","type":"uint256","internalType":"uint256"}],"outputs":[{"name":"timestamp","type":"uint256","internalType":"uint256"},{"name":"balanceOf","type":"uint256","internalType":"uint256"}],"stateMutability":"view"},{"type":"function","name":"earned","inputs":[{"name":"token","type":"address","internalType":"address"},{"name":"tokenId","type":"uint256","internalType":"uint256"}],"outputs":[{"name":"","type":"uint256","internalType":"uint256"}],"stateMutability":"view"},{"type":"function","name":"getPriorBalanceIndex","inputs":[{"name":"tokenId","type":"uint256","internalType":"uint256"},{"name":"timestamp","type":"uint256","internalType":"uint256"}],"outputs":[{"name":"","type":"uint256","internalType":"uint256"}],"stateMutability":"view"},{"type":"function","name":"getPriorSupplyIndex","inputs":[{"name":"timestamp","type":"uint256","internalType":"uint256"}],"outputs":[{"name":"","type":"uint256","internalType":"uint256"}],"stateMutability":"view"},{"type":"function","name":"getReward","inputs":[{"name":"tokenId","type":"uint256","internalType":"uint256"},{"name":"tokens","type":"address[]","internalType":"address[]"}],"outputs":[],"stateMutability":"nonpayable"},{"type":"function","name":"isReward","inputs":[{"name":"","type":"address","internalType":"address"}],"outputs":[{"name":"","type":"bool","internalType":"bool"}],"stateMutability":"view"},{"type":"function","name":"isTrustedForwarder","inputs":[{"name":"forwarder","type":"address","internalType":"address"}],"outputs":[{"name":"","type":"bool","internalType":"bool"}],"stateMutability":"view"},{"type":"function","name":"lastEarn","inputs":[{"name":"","type":"address","internalType":"address"},{"name":"","type":"uint256","internalType":"uint256"}],"outputs":[{"name":"","type":"uint256","internalType":"uint256"}],"stateMutability":"view"},{"type":"function","name":"notifyRewardAmount","inputs":[{"name":"token","type":"address","internalType":"address"},{"name":"amount","type":"uint256","internalType":"uint256"}],"outputs":[],"stateMutability":"nonpayable"},{"type":"function","name":"numCheckpoints","inputs":[{"name":"","type":"uint256","internalType":"uint256"}],"outputs":[{"name":"","type":"uint256","internalType":"uint256"}],"stateMutability":"view"},{"type":"function","name":"rewards","inputs":[{"name":"","type":"uint256","internalType":"uint256"}],"outputs":[{"name":"","type":"address","internalType":"address"}],"stateMutability":"view"},{"type":"function","name":"rewardsListLength","inputs":[],"outputs":[{"name":"","type":"uint256","internalType":"uint256"}],"stateMutability":"view"},{"type":"function","name":"supplyCheckpoints","inputs":[{"name":"","type":"uint256","internalType":"uint256"}],"outputs":[{"name":"timestamp","type":"uint256","internalType":"uint256"},{"name":"supply","type":"uint256","internalType":"uint256"}],"stateMutability":"view"},{"type":"function","name":"supplyNumCheckpoints","inputs":[],"outputs":[{"name":"","type":"uint256","internalType":"uint256"}],"stateMutability":"view"},{"type":"function","name":"tokenRewardsPerEpoch","inputs":[{"name":"","type":"address","internalType":"address"},{"name":"","type":"uint256","internalType":"uint256"}],"outputs":[{"name":"","type":"uint256","internalType":"uint256"}],"stateMutability":"view"},{"type":"function","name":"totalSupply","inputs":[],"outputs":[{"name":"","type":"uint256","internalType":"uint256"}],"stateMutability":"view"},{"type":"function","name":"trustedForwarder","inputs":[],"outputs":[{"name":"","type":"address","internalType":"address"}],"stateMutability":"view"},{"type":"function","name":"ve","inputs":[],"outputs":[{"name":"","type":"address","internalType":"address"}],"stateMutability":"view"},{"type":"function","name":"voter","inputs":[],"outputs":[{"name":"","type":"address","internalType":"address"}],"stateMutability":"view"},{"type":"event","name":"ClaimRewards","inputs":[{"name":"from","type":"address","indexed":true,"internalType":"address"},{"name":"reward","type":"address","indexed":true,"internalType":"address"},{"name":"amount","type":"uint256","indexed":false,"internalType":"uint256"}],"anonymous":false},{"type":"event","name":"Deposit","inputs":[{"name":"from","type":"address","indexed":true,"internalType":"address"},{"name":"tokenId","type":"uint256","indexed":true,"internalType":"uint256"},{"name":"amount","type":"uint256","indexed":false,"internalType":"uint256"}],"anonymous":false},{"type":"event","name":"NotifyReward","inputs":[{"name":"from","type":"address","indexed":true,"internalType":"address"},{"name":"reward","type":"address","indexed":true,"internalType":"address"},{"name":"epoch","type":"uint256","indexed":true,"internalType":"uint256"},{"name":"amount","type":"uint256","indexed":false,"internalType":"uint256"}],"anonymous":false},{"type":"event","name":"Withdraw","inputs":[{"name":"from","type":"address","indexed":true,"internalType":"address"},{"name":"tokenId","type":"uint256","indexed":true,"internalType":"uint256"},{"name":"amount","type":"uint256","indexed":false,"internalType":"uint256"}],"anonymous":false},{"type":"error","name":"InvalidReward","inputs":[]},{"type":"error","name":"NotAuthorized","inputs":[]},{"type":"error","name":"NotEscrowToken","inputs":[]},{"type":"error","name":"NotGauge","inputs":[]},{"type":"error","name":"NotSingleToken","inputs":[]},{"type":"error","name":"NotVotingEscrow","inputs":[]},{"type":"error","name":"NotWhitelisted","inputs":[]},{"type":"error","name":"Reentrancy","inputs":[]},{"type":"error","name":"ZeroAmount","inputs":[]}],"bytecode":{"object":"0x60e060405234801561000f575f5ffd5b5060405161171938038061171983398101604081905261002e91610221565b6001600160a01b03808316608052811660a081905260408051630fc2838b60e11b81529051849284928492849291631f8507169160048083019260209291908290030181865afa158015610084573d5f5f3e3d5ffd5b505050506040513d601f19601f820116820180604052508101906100a89190610252565b6001600160a01b031660c0816001600160a01b03168152505050505f816001600160a01b0316631f8507166040518163ffffffff1660e01b8152600401602060405180830381865afa158015610100573d5f5f3e3d5ffd5b505050506040513d601f19601f820116820180604052508101906101249190610252565b90505f816001600160a01b031663fc0c546a6040518163ffffffff1660e01b8152600401602060405180830381865afa158015610163573d5f5f3e3d5ffd5b505050506040513d601f19601f820116820180604052508101906101879190610252565b6005805460018181019092557f036b6384b5eca791c62761152d0c79bb0604c104a5fb6f4eb0703f3154bb3db00180546001600160a01b039384166001600160a01b031991821681179092555f918252600660205260408220805460ff1916909317909255805494909216931692909217909155506102729350505050565b80516001600160a01b038116811461021c575f5ffd5b919050565b5f5f60408385031215610232575f5ffd5b61023b83610206565b915061024960208401610206565b90509250929050565b5f60208284031215610262575f5ffd5b61026b82610206565b9392505050565b60805160a05160c0516114616102b85f395f81816101550152818161094f015281816109a101528181610b990152610c0d01525f6101b901525f6106e001526114615ff3fe608060405234801561000f575f5ffd5b5060043610610126575f3560e01c806318160ddd1461012a5780631be05289146101465780631f850716146101505780633e491d471461018f578063456cb7c6146101a257806346c96aac146101b457806349dcc204146101db5780634d5ce038146102215780635058979314610253578063572b6c051461027257806376f4be36146102855780637da0a8771461029857806392777b29146102a05780639cc7f708146102ca5780639e2bf22c146102e9578063a28d4c9c146102fe578063b66503cf14610311578063e688639614610324578063e8111a121461032c578063f25e55a514610335578063f301af421461035f578063f320772314610372578063f5f8d36514610385578063f7412baf14610398575b5f5ffd5b61013360015481565b6040519081526020015b60405180910390f35b61013362093a8081565b6101777f000000000000000000000000000000000000000000000000000000000000000081565b6040516001600160a01b03909116815260200161013d565b61013361019d3660046111c7565b6103be565b5f54610177906001600160a01b031681565b6101777f000000000000000000000000000000000000000000000000000000000000000081565b61020c6101e93660046111f1565b600760209081525f92835260408084209091529082529020805460019091015482565b6040805192835260208301919091520161013d565b61024361022f366004611211565b60066020525f908152604090205460ff1681565b604051901515815260200161013d565b61013361026136600461122c565b60086020525f908152604090205481565b610243610280366004611211565b610590565b61013361029336600461122c565b6105b4565b6101776106de565b6101336102ae3660046111c7565b600360209081525f928352604080842090915290825290205481565b6101336102d836600461122c565b60026020525f908152604090205481565b6102fc6102f73660046111f1565b610702565b005b61013361030c3660046111f1565b6107dd565b6102fc61031f3660046111c7565b610918565b600554610133565b610133600a5481565b6101336103433660046111c7565b600460209081525f928352604080842090915290825290205481565b61017761036d36600461122c565b610a6c565b6102fc6103803660046111f1565b610a94565b6102fc610393366004611257565b610b62565b61020c6103a636600461122c565b60096020525f90815260409020805460019091015482565b5f8181526008602052604081205481036103d957505f61058a565b6001600160a01b0383165f90815260046020908152604080832085845290915281205460019062093a80810690038261041286836107dd565b5f8781526007602090815260408083208484528252808320815180830190925280548083526001909101549282019290925262093a80808306909203868118908710029095189492935061046b85428381069003611341565b6104759190611354565b90508015610581575f5b8181101561057f576104a489600161049a62093a8089611373565b61030c9190611341565b5f8a815260076020908152604080832084845282528083208151808301909252805482526001908101549282019290925292965091945061051c91600991906104fe906104f462093a808b611373565b6102939190611341565b81526020019081526020015f20600101546001818118908210021890565b6001600160a01b038b165f9081526003602090815260408083208984528252909120549085015191975087916105529190611386565b61055c9190611354565b6105669088611373565b965061057562093a8086611373565b945060010161047f565b505b50939450505050505b92915050565b5f6105996106de565b6001600160a01b0316826001600160a01b0316149050919050565b600a545f908082036105c857505f92915050565b8260095f6105d7600185611341565b81526020019081526020015f205f0154116105fe576105f7600182611341565b9392505050565b5f805260096020527fec8156718a8372b1db44bb411437d0870f3e3790d4a08526d024ce1b0b668f6b5483101561063757505f92915050565b5f80610644600184611341565b90505b818111156106d6575f600261065c8484611341565b6106669190611354565b6106709083611341565b5f818152600960209081526040918290208251808401909352805480845260019091015491830191909152919250908790036106b0575095945050505050565b80518711156106c1578193506106cf565b6106cc600183611341565b92505b5050610647565b509392505050565b7f000000000000000000000000000000000000000000000000000000000000000090565b5f61070b610ce0565b5f549091506001600160a01b0380831691161461073b5760405163ea8e4eb560e01b815260040160405180910390fd5b8260015f82825461074c9190611341565b90915550505f828152600260205260408120805485929061076e908490611341565b90915550505f8281526002602052604090205461078c908390610d26565b610794610e28565b81816001600160a01b03167ff279e6a1f5e320cca91135676d9cb6e44ca8a08c0b88342bcdb1144f6511b568856040516107d091815260200190565b60405180910390a3505050565b5f828152600860205260408120548082036107fb575f91505061058a565b5f8481526007602052604081208491610815600185611341565b81526020019081526020015f205f01541161083d57610835600182611341565b91505061058a565b5f848152600760209081526040808320838052909152902054831015610866575f91505061058a565b5f80610873600184611341565b90505b8181111561090f575f600261088b8484611341565b6108959190611354565b61089f9083611341565b5f8881526007602090815260408083208484528252918290208251808401909352805480845260019091015491830191909152919250908790036108e95750935061058a92505050565b80518711156108fa57819350610908565b610905600183611341565b92505b5050610876565b50949350505050565b3068929eee149b4bd2126854036109365763ab143c065f526004601cfd5b3068929eee149b4bd21268555f61094b610ce0565b90507f00000000000000000000000000000000000000000000000000000000000000006001600160a01b0316816001600160a01b03161461099f576040516306b746df60e51b815260040160405180910390fd5b7f00000000000000000000000000000000000000000000000000000000000000006001600160a01b031663fc0c546a6040518163ffffffff1660e01b8152600401602060405180830381865afa1580156109fb573d5f5f3e3d5ffd5b505050506040513d601f19601f82011682018060405250810190610a1f919061139d565b6001600160a01b0316836001600160a01b031614610a5057604051630b9eb1c560e41b815260040160405180910390fd5b610a5b818484610edf565b503868929eee149b4bd21268555050565b60058181548110610a7b575f80fd5b5f918252602090912001546001600160a01b0316905081565b5f610a9d610ce0565b5f549091506001600160a01b03808316911614610acd5760405163ea8e4eb560e01b815260040160405180910390fd5b8260015f828254610ade9190611373565b90915550505f8281526002602052604081208054859290610b00908490611373565b90915550505f82815260026020526040902054610b1e908390610d26565b610b26610e28565b81816001600160a01b03167f90890809c654f11d6e72a28fa60149770a0d11ec6c92319d6ceb2bb0a4ea1a15856040516107d091815260200190565b3068929eee149b4bd212685403610b805763ab143c065f526004601cfd5b3068929eee149b4bd21268555f610b95610ce0565b90507f00000000000000000000000000000000000000000000000000000000000000006001600160a01b0316816001600160a01b031614610be9576040516306b746df60e51b815260040160405180910390fd5b8151600114610c0b5760405163801f099f60e01b815260040160405180910390fd5b7f00000000000000000000000000000000000000000000000000000000000000006001600160a01b031663fc0c546a6040518163ffffffff1660e01b8152600401602060405180830381865afa158015610c67573d5f5f3e3d5ffd5b505050506040513d601f19601f82011682018060405250810190610c8b919061139d565b6001600160a01b0316825f81518110610ca657610ca66113b8565b60200260200101516001600160a01b031614610cd557604051630b9eb1c560e41b815260040160405180910390fd5b610a5b818484610fb6565b5f366014808210801590610cf85750610cf833610590565b15610d1e57610d0b36828403815f6113cc565b610d14916113f3565b60601c9250505090565b339250505090565b5f82815260086020526040902054428115801590610d80575062093a80810681035f858152600760205260408120610d7e91610d63600187611341565b81526020019081526020015f205f015462093a808106900390565b145b15610dd45760408051808201825282815260208082018690525f87815260079091529182209091610db2600186611341565b81526020808201929092526040015f2082518155910151600190910155610e22565b60408051808201825282815260208082018681525f88815260078352848120878252909252929020905181559051600191820155610e13908390611373565b5f858152600860205260409020555b50505050565b600a54428115801590610e51575062093a8081068103610e4f60095f610d63600187611341565b145b15610e9e57604051806040016040528082815260200160015481525060095f600185610e7d9190611341565b81526020808201929092526040015f20825181559101516001909101555050565b6040805180820182528281526001805460208084019182525f87815260099091529390932091518255915190820155610ed8908390611373565b600a555050565b805f03610eff57604051631f2a200560e01b815260040160405180910390fd5b610f146001600160a01b0383168430846110e1565b5f610f244262093a808106900390565b6001600160a01b0384165f908152600360209081526040808320848452909152812080549293508492909190610f5b908490611373565b9250508190555080836001600160a01b0316856001600160a01b03167f52977ea98a2220a03ee9ba5cb003ada08d394ea10155483c95dc2dc77a7eb24b85604051610fa891815260200190565b60405180910390a450505050565b80515f5b818110156110da575f610fe6848381518110610fd857610fd86113b8565b6020026020010151866103be565b90504260045f868581518110610ffe57610ffe6113b8565b6020908102919091018101516001600160a01b031682528181019290925260409081015f908120898252909252902055801561106b5761106b868286858151811061104b5761104b6113b8565b60200260200101516001600160a01b03166110ed9092919063ffffffff16565b83828151811061107d5761107d6113b8565b60200260200101516001600160a01b0316866001600160a01b03167f9aa05b3d70a9e3e2f004f039648839560576334fb45c81f91b6db03ad9e2efc9836040516110c991815260200190565b60405180910390a350600101610fba565b5050505050565b610e22848484846110fd565b6110f8838383611156565b505050565b60405181606052826040528360601b602c526323b872dd60601b600c5260205f6064601c5f895af18060015f51141661114857803d873b15171061114857637939f4245f526004601cfd5b505f60605260405250505050565b816014528060345263a9059cbb60601b5f5260205f604460105f875af18060015f51141661119657803d853b151710611196576390b8ec185f526004601cfd5b505f603452505050565b6001600160a01b03811681146111b4575f5ffd5b50565b80356111c2816111a0565b919050565b5f5f604083850312156111d8575f5ffd5b82356111e3816111a0565b946020939093013593505050565b5f5f60408385031215611202575f5ffd5b50508035926020909101359150565b5f60208284031215611221575f5ffd5b81356105f7816111a0565b5f6020828403121561123c575f5ffd5b5035919050565b634e487b7160e01b5f52604160045260245ffd5b5f5f60408385031215611268575f5ffd5b8235915060208301356001600160401b03811115611284575f5ffd5b8301601f81018513611294575f5ffd5b80356001600160401b038111156112ad576112ad611243565b604051600582901b90603f8201601f191681016001600160401b03811182821017156112db576112db611243565b6040529182526020818401810192908101888411156112f8575f5ffd5b6020850194505b8385101561131e57611310856111b7565b8152602094850194016112ff565b50809450505050509250929050565b634e487b7160e01b5f52601160045260245ffd5b8181038181111561058a5761058a61132d565b5f8261136e57634e487b7160e01b5f52601260045260245ffd5b500490565b8082018082111561058a5761058a61132d565b808202811582820484141761058a5761058a61132d565b5f602082840312156113ad575f5ffd5b81516105f7816111a0565b634e487b7160e01b5f52603260045260245ffd5b5f5f858511156113da575f5ffd5b838611156113e6575f5ffd5b5050820193919092039150565b80356001600160601b03198116906014841015611424576001600160601b0319601485900360031b81901b82161691505b509291505056fea2646970667358221220697b5b266d4e88513ccd8eb809209a6aee794b787380a9b362cf1c70e6a7744c64736f6c634300081e0033","linkReferences":{}},"methodIdentifiers":{"DURATION()":"1be05289","_deposit(uint256,uint256)":"f3207723","_withdraw(uint256,uint256)":"9e2bf22c","authorized()":"456cb7c6","balanceOf(uint256)":"9cc7f708","checkpoints(uint256,uint256)":"49dcc204","earned(address,uint256)":"3e491d47","getPriorBalanceIndex(uint256,uint256)":"a28d4c9c","getPriorSupplyIndex(uint256)":"76f4be36","getReward(uint256,address[])":"f5f8d365","isReward(address)":"4d5ce038","isTrustedForwarder(address)":"572b6c05","lastEarn(address,uint256)":"f25e55a5","notifyRewardAmount(address,uint256)":"b66503cf","numCheckpoints(uint256)":"50589793","rewards(uint256)":"f301af42","rewardsListLength()":"e6886396","supplyCheckpoints(uint256)":"f7412baf","supplyNumCheckpoints()":"e8111a12","tokenRewardsPerEpoch(address,uint256)":"92777b29","totalSupply()":"18160ddd","trustedForwarder()":"7da0a877","ve()":"1f850716","voter()":"46c96aac"},"id":844}