{"abi":[{"type":"function","name":"donate","inputs":[{"name":"pool","type":"address","internalType":"address"},{"name":"donationAmounts","type":"uint256[]","internalType":"uint256[]"},{"name":"userData","type":"bytes","internalType":"bytes"}],"outputs":[],"stateMutability":"nonpayable"},{"type":"function","name":"donateHook","inputs":[{"name":"params","type":"tuple","internalType":"struct ICowRouter.DonateHookParams","components":[{"name":"pool","type":"address","internalType":"address"},{"name":"sender","type":"address","internalType":"address"},{"name":"donationAmounts","type":"uint256[]","internalType":"uint256[]"},{"name":"userData","type":"bytes","internalType":"bytes"}]}],"outputs":[],"stateMutability":"nonpayable"},{"type":"function","name":"getCollectedProtocolFees","inputs":[{"name":"token","type":"address","internalType":"contract IERC20"}],"outputs":[{"name":"fees","type":"uint256","internalType":"uint256"}],"stateMutability":"view"},{"type":"function","name":"getFeeSweeper","inputs":[],"outputs":[{"name":"feeSweeper","type":"address","internalType":"address"}],"stateMutability":"view"},{"type":"function","name":"getMaxProtocolFeePercentage","inputs":[],"outputs":[{"name":"","type":"uint256","internalType":"uint256"}],"stateMutability":"pure"},{"type":"function","name":"getProtocolFeePercentage","inputs":[],"outputs":[{"name":"protocolFeePercentage","type":"uint256","internalType":"uint256"}],"stateMutability":"view"},{"type":"function","name":"setFeeSweeper","inputs":[{"name":"newFeeSweeper","type":"address","internalType":"address"}],"outputs":[],"stateMutability":"nonpayable"},{"type":"function","name":"setProtocolFeePercentage","inputs":[{"name":"newProtocolFeePercentage","type":"uint256","internalType":"uint256"}],"outputs":[],"stateMutability":"nonpayable"},{"type":"function","name":"swapAndDonateSurplusHook","inputs":[{"name":"swapAndDonateParams","type":"tuple","internalType":"struct ICowRouter.SwapAndDonateHookParams","components":[{"name":"pool","type":"address","internalType":"address"},{"name":"sender","type":"address","internalType":"address"},{"name":"swapKind","type":"uint8","internalType":"enum SwapKind"},{"name":"swapTokenIn","type":"address","internalType":"contract IERC20"},{"name":"swapTokenOut","type":"address","internalType":"contract IERC20"},{"name":"swapAmountGiven","type":"uint256","internalType":"uint256"},{"name":"swapLimit","type":"uint256","internalType":"uint256"},{"name":"swapDeadline","type":"uint256","internalType":"uint256"},{"name":"donationAmounts","type":"uint256[]","internalType":"uint256[]"},{"name":"transferAmountHints","type":"uint256[]","internalType":"uint256[]"},{"name":"userData","type":"bytes","internalType":"bytes"}]}],"outputs":[{"name":"swapAmountIn","type":"uint256","internalType":"uint256"},{"name":"swapAmountOut","type":"uint256","internalType":"uint256"}],"stateMutability":"nonpayable"},{"type":"function","name":"swapExactInAndDonateSurplus","inputs":[{"name":"pool","type":"address","internalType":"address"},{"name":"swapTokenIn","type":"address","internalType":"contract IERC20"},{"name":"swapTokenOut","type":"address","internalType":"contract IERC20"},{"name":"swapExactAmountIn","type":"uint256","internalType":"uint256"},{"name":"swapMinAmountOut","type":"uint256","internalType":"uint256"},{"name":"swapDeadline","type":"uint256","internalType":"uint256"},{"name":"donationAmounts","type":"uint256[]","internalType":"uint256[]"},{"name":"transferAmountHints","type":"uint256[]","internalType":"uint256[]"},{"name":"userData","type":"bytes","internalType":"bytes"}],"outputs":[{"name":"exactAmountOut","type":"uint256","internalType":"uint256"}],"stateMutability":"nonpayable"},{"type":"function","name":"swapExactOutAndDonateSurplus","inputs":[{"name":"pool","type":"address","internalType":"address"},{"name":"swapTokenIn","type":"address","internalType":"contract IERC20"},{"name":"swapTokenOut","type":"address","internalType":"contract IERC20"},{"name":"swapMaxAmountIn","type":"uint256","internalType":"uint256"},{"name":"swapExactAmountOut","type":"uint256","internalType":"uint256"},{"name":"swapDeadline","type":"uint256","internalType":"uint256"},{"name":"donationAmounts","type":"uint256[]","internalType":"uint256[]"},{"name":"transferAmountHints","type":"uint256[]","internalType":"uint256[]"},{"name":"userData","type":"bytes","internalType":"bytes"}],"outputs":[{"name":"exactAmountIn","type":"uint256","internalType":"uint256"}],"stateMutability":"nonpayable"},{"type":"function","name":"withdrawCollectedProtocolFees","inputs":[{"name":"token","type":"address","internalType":"contract IERC20"}],"outputs":[],"stateMutability":"nonpayable"},{"type":"event","name":"CoWDonation","inputs":[{"name":"pool","type":"address","indexed":false,"internalType":"address"},{"name":"donationAfterFees","type":"uint256[]","indexed":false,"internalType":"uint256[]"},{"name":"protocolFeeAmounts","type":"uint256[]","indexed":false,"internalType":"uint256[]"},{"name":"userData","type":"bytes","indexed":false,"internalType":"bytes"}],"anonymous":false},{"type":"event","name":"CoWSwapAndDonation","inputs":[{"name":"pool","type":"address","indexed":false,"internalType":"address"},{"name":"swapTokenIn","type":"address","indexed":false,"internalType":"contract IERC20"},{"name":"swapTokenOut","type":"address","indexed":false,"internalType":"contract IERC20"},{"name":"swapAmountIn","type":"uint256","indexed":false,"internalType":"uint256"},{"name":"swapAmountOut","type":"uint256","indexed":false,"internalType":"uint256"},{"name":"donationAfterFees","type":"uint256[]","indexed":false,"internalType":"uint256[]"},{"name":"protocolFeeAmounts","type":"uint256[]","indexed":false,"internalType":"uint256[]"},{"name":"userData","type":"bytes","indexed":false,"internalType":"bytes"}],"anonymous":false},{"type":"event","name":"FeeSweeperChanged","inputs":[{"name":"newFeeSweeper","type":"address","indexed":false,"internalType":"address"}],"anonymous":false},{"type":"event","name":"ProtocolFeePercentageChanged","inputs":[{"name":"newProtocolFeePercentage","type":"uint256","indexed":false,"internalType":"uint256"}],"anonymous":false},{"type":"event","name":"ProtocolFeesWithdrawn","inputs":[{"name":"token","type":"address","indexed":false,"internalType":"contract IERC20"},{"name":"feeSweeper","type":"address","indexed":false,"internalType":"address"},{"name":"amountWithdrawn","type":"uint256","indexed":false,"internalType":"uint256"}],"anonymous":false},{"type":"error","name":"InsufficientFunds","inputs":[{"name":"token","type":"address","internalType":"contract IERC20"},{"name":"senderCredits","type":"uint256","internalType":"uint256"},{"name":"senderDebits","type":"uint256","internalType":"uint256"}]},{"type":"error","name":"InvalidFeeSweeper","inputs":[]},{"type":"error","name":"InvalidFeeSweeper","inputs":[]},{"type":"error","name":"NotBalancerV3Vault","inputs":[{"name":"caller","type":"address","internalType":"address"}]},{"type":"error","name":"ProtocolFeePercentageAboveLimit","inputs":[{"name":"newProtocolFeePercentage","type":"uint256","internalType":"uint256"},{"name":"maxProtocolFeePercentage","type":"uint256","internalType":"uint256"}]},{"type":"error","name":"ProtocolFeePercentageAboveLimit","inputs":[{"name":"newProtocolFeePercentage","type":"uint256","internalType":"uint256"},{"name":"maxProtocolFeePercentage","type":"uint256","internalType":"uint256"}]},{"type":"error","name":"SenderNotAllowed","inputs":[]},{"type":"error","name":"SwapDeadline","inputs":[]}],"bytecode":{"object":"0x6080604052348015600e575f5ffd5b506122998061001c5f395ff3fe608060405234801561000f575f5ffd5b50600436106100a2575f3560e01c8063393cda9e146100a65780633c902945146100bb5780634c65a5b3146100e1578063591b7655146100f45780635a28ac20146101075780635c6e74c71461011a57806369f10de41461012f5780636abe431a14610142578063706d9f78146101555780637aaa14aa1461015d5780637c2559991461016b578063d8a5e93614610193575b5f5ffd5b6100b96100b4366004611541565b6101a6565b005b6100ce6100c936600461170c565b6101bd565b6040519081526020015b60405180910390f35b6100ce6100ef366004611541565b610303565b6100ce61010236600461170c565b610313565b6100b96101153660046117e4565b61045a565b610122610554565b6040516100d89190611865565b6100b961013d366004611879565b610562565b6100b9610150366004611541565b6106af565b6100ce610720565b6706f05b59d3b200006100ce565b61017e61017936600461194a565b610729565b604080519283526020830191909152016100d8565b6100b96101a1366004611a82565b610a77565b306101b081610a8a565b6101b982610ac9565b5050565b5f306101c881610a8a565b5f6101d1610add565b60408051610160810182526001600160a01b038f81168252336020830152929350918316916348c894919181015f81526020018e6001600160a01b031681526020018d6001600160a01b031681526020018c81526020018b81526020018a8152602001898152602001888152602001878152506040516024016102549190611b29565b60408051601f198184030181529181526020820180516001600160e01b0316637c25599960e01b179052516001600160e01b031960e084901b16815261029d9190600401611c0c565b5f604051808303815f875af11580156102b8573d5f5f3e3d5ffd5b505050506040513d5f823e601f3d908101601f191682016040526102df9190810190611c6b565b8060200190518101906102f29190611c9c565b9d9c50505050505050505050505050565b5f61030d82610b10565b92915050565b5f3061031e81610a8a565b5f610327610add565b60408051610160810182526001600160a01b038f81168252336020830152929350918316916348c89491918101600181526020018e6001600160a01b031681526020018d6001600160a01b031681526020018b81526020018c81526020018a8152602001898152602001888152602001878152506040516024016103ab9190611b29565b60408051601f198184030181529181526020820180516001600160e01b0316637c25599960e01b179052516001600160e01b031960e084901b1681526103f49190600401611c0c565b5f604051808303815f875af115801561040f573d5f5f3e3d5ffd5b505050506040513d5f823e601f3d908101601f191682016040526104369190810190611c6b565b8060200190518101906104499190611c9c565b509c9b505050505050505050505050565b3061046481610a8a565b5f61046d610add565b9050806001600160a01b03166348c894916040518060800160405280886001600160a01b03168152602001336001600160a01b03168152602001878152602001868152506040516024016104c19190611cbe565b60408051601f198184030181529181526020820180516001600160e01b0316631a7c437960e21b179052516001600160e01b031960e084901b16815261050a9190600401611c0c565b5f604051808303815f875af1158015610525573d5f5f3e3d5ffd5b505050506040513d5f823e601f3d908101601f1916820160405261054c9190810190611c6b565b505050505050565b5f61055d610b3b565b905090565b61056a610b47565b5f610573610add565b82516040516333f0703b60e11b81529192505f916001600160a01b038416916367e0e076916105a59190600401611865565b5f60405180830381865afa1580156105bf573d5f5f3e3d5ffd5b505050506040513d5f823e601f3d908101601f191682016040526105e69190810190611e25565b50505090505f5f61060584865f01518588604001518960600151610b8d565b91509150610665848660200151858860400151858a60400151516001600160401b038111156106365761063661155c565b60405190808252806020026020018201604052801561065f578160200160208202803683370190505b50610db9565b845160608601516040517fc56206447dc4bc6b8f64bed42b94c55ae291564fe0ed7676f387f8c23887aa32926106a092909186918691611f40565b60405180910390a15050505050565b5f6106b982610f97565b905080156101b9575f6106ca610b3b565b90506106e06001600160a01b0384168284610fa9565b7f8fc241308ffc17817e6a8c6a52a8f7cd4931dfca0c539fd35a630311c7e4c57b83828460405161071393929190611f94565b60405180910390a1505050565b5f61055d610fb9565b5f5f610733610b47565b5f61073c610add565b84516040516333f0703b60e11b81529192505f916001600160a01b038416916367e0e0769161076e9190600401611865565b5f60405180830381865afa158015610788573d5f5f3e3d5ffd5b505050506040513d5f823e601f3d908101601f191682016040526107af9190810190611e25565b50505090508460e001514211156107d957604051630e08b8af60e41b815260040160405180910390fd5b5f856040015160018111156107f0576107f0611a99565b036108e8578460a001519350816001600160a01b0316632bfb780c6040518060e001604052805f600181111561082857610828611a99565b8152602001885f01516001600160a01b0316815260200188606001516001600160a01b0316815260200188608001516001600160a01b031681526020018860a0015181526020018860c0015181526020018861014001518152506040518263ffffffff1660e01b815260040161089e9190611fb8565b6060604051808303815f875af11580156108ba573d5f5f3e3d5ffd5b505050506040513d601f19601f820116820180604052508101906108de919061202e565b94506109d6915050565b8460a001519250816001600160a01b0316632bfb780c6040518060e0016040528060018081111561091b5761091b611a99565b8152602001885f01516001600160a01b0316815260200188606001516001600160a01b0316815260200188608001516001600160a01b031681526020018860a0015181526020018860c0015181526020018861014001518152506040518263ffffffff1660e01b81526004016109919190611fb8565b6060604051808303815f875af11580156109ad573d5f5f3e3d5ffd5b505050506040513d601f19601f820116820180604052508101906109d1919061202e565b509450505b5f5f6109f284885f0151858a61010001518b6101400151610b8d565b91509150610a19848860200151858a606001518b608001518b8b8e61012001518a8a610fcc565b7fff733223050308d0c920d58ee93cc7f1e4adab80ffcd6c88a28c7bfa7769dbe3875f015188606001518960800151898987878e6101400151604051610a66989796959493929190612059565b60405180910390a150505050915091565b30610a8181610a8a565b6101b9826111a2565b5f610a9f5f356001600160e01b0319166111b3565b9050610aac8133846111de565b6101b9576040516323dada5360e01b815260040160405180910390fd5b610ada610ad46112c7565b826112eb565b50565b5f61055d7f392e49ca1983749c4549242b814e6592e6c2354a2bb55242596ce0ad2e7b10015b546001600160a01b031690565b5f61030d610b1c6112c7565b836001600160a01b03165f908152600291909101602052604090205490565b5f61055d610b036112c7565b610b4f610add565b6001600160a01b0316336001600160a01b031614610b8b57336040516373ea3fad60e11b8152600401610b829190611865565b60405180910390fd5b565b60608083516001600160401b03811115610ba957610ba961155c565b604051908082528060200260200182016040528015610bd2578160200160208202803683370190505b50915083516001600160401b03811115610bee57610bee61155c565b604051908082528060200260200182016040528015610c17578160200160208202803683370190505b5090505f5f610c24610fb9565b90505f5b8651811015610d07575f888281518110610c4457610c446120d0565b602002602001015190505f888381518110610c6157610c616120d0565b602002602001015190505f610c7f858361136690919063ffffffff16565b9050610c8b8382611392565b80878581518110610c9e57610c9e6120d0565b6020908102919091010152610cb381836120f8565b888581518110610cc557610cc56120d0565b602002602001018181525050878481518110610ce357610ce36120d0565b602002602001015186610cf6919061210b565b95505060019092019150610c289050565b508115610dad576040805160c0810182526001600160a01b038a811682523060208301528183018790525f60608301526003608083015260a0820188905291516312bca7b160e21b8152918b1691634af29ec491610d679160040161211e565b5f604051808303815f875af1158015610d82573d5f5f3e3d5ffd5b505050506040513d5f823e601f3d908101601f19168201604052610da9919081019061219e565b5050505b50509550959350505050565b5f5b8451811015610f8e575f858281518110610dd757610dd76120d0565b602002602001015190505f858381518110610df457610df46120d0565b602002602001015190505f811115610e78576040516315afd40960e01b81526001600160a01b038381166004830152602482018390528a16906315afd409906044016020604051808303815f875af1158015610e52573d5f5f3e3d5ffd5b505050506040513d601f19601f82011682018060405250810190610e769190612201565b505b5f858481518110610e8b57610e8b6120d0565b602002602001015190505f811115610efb5760405163ae63932960e01b81526001600160a01b038b169063ae63932990610ecd90869030908690600401611f94565b5f604051808303815f87803b158015610ee4575f5ffd5b505af1158015610ef6573d5f5f3e3d5ffd5b505050505b5f858581518110610f0e57610f0e6120d0565b602002602001015190505f811115610f7e5760405163ae63932960e01b81526001600160a01b038c169063ae63932990610f509087908e908690600401611f94565b5f604051808303815f87803b158015610f67575f5ffd5b505af1158015610f79573d5f5f3e3d5ffd5b505050505b505060019092019150610dbb9050565b50505050505050565b5f61030d610fa36112c7565b836113a4565b610fb48383836113e4565b505050565b5f61055d610fc56112c7565b6001015490565b5f88516001600160401b03811115610fe657610fe661155c565b60405190808252806020026020018201604052801561100f578160200160208202803683370190505b5090505f5b8951811015611186575f858281518110611030576110306120d0565b602002602001015190505f84838151811061104d5761104d6120d0565b6020026020010151868481518110611067576110676120d0565b6020026020010151611079919061210b565b90508a6001600160a01b03168c8481518110611097576110976120d0565b60200260200101516001600160a01b0316036110be576110b7898261210b565b90506110fd565b896001600160a01b03168c84815181106110da576110da6120d0565b60200260200101516001600160a01b0316036110fd576110fa888361210b565b91505b80821015611155578b8381518110611117576111176120d0565b6020908102919091010151604051632e2a182f60e11b81526001600160a01b0390911660048201526024810183905260448101829052606401610b82565b61115f81836120f8565b848481518110611171576111716120d0565b60209081029190910101525050600101611014565b506111958b8b8b878686610db9565b5050505050505050505050565b610ada6111ad6112c7565b8261142e565b5f61030d7f82340927aad1ca6b5f8bb0037567f287e1bec629ab302d4e1debbc0d7543b1f88361149f565b5f6111e7610add565b6001600160a01b031663aaabadc56040518163ffffffff1660e01b8152600401602060405180830381865afa158015611222573d5f5f3e3d5ffd5b505050506040513d601f19601f820116820180604052508101906112469190612218565b6040516326f8aa2160e21b8152600481018690526001600160a01b03858116602483015284811660448301529190911690639be2a88490606401602060405180830381865afa15801561129b573d5f5f3e3d5ffd5b505050506040513d601f19601f820116820180604052508101906112bf9190612233565b949350505050565b7f4686cee39c0edfd2fa0e5ee9fd4e399a203dac433a6e69091c8fa60bc3f755a290565b6001600160a01b038116611312576040516302d1ccf160e11b815260040160405180910390fd5b81546001600160a01b0319166001600160a01b0382161782556040517e8c8c9cbd834aa4bc9856555e4a6af6df7553b18a704a068adb69ea00a81d4d9061135a908390611865565b60405180910390a15050565b5f80611372838561224c565b90506001670de0b6b3a76400006001830304018115150291505092915050565b6101b961139d6112c7565b83836114ea565b6001600160a01b0381165f908152600283016020526040902054801561030d576001600160a01b0382165f90815260028401602052604081205592915050565b816014528060345263a9059cbb60601b5f5260205f604460105f875af18060015f51141661142457803d853b151710611424576390b8ec185f526004601cfd5b505f603452505050565b6706f05b59d3b200008111156114685760405163e76c2b2360e01b8152600481018290526706f05b59d3b200006024820152604401610b82565b600182018190556040518181527ff7887aa0e0216e820fdbb5a4442586a79fefd45648f0adc2bc91dcf6ed7172449060200161135a565b5f6114e36114ab845490565b6040805160208101929092526001600160e01b0319851690820152604401604051602081830303815290604052805160209091012090565b9392505050565b6001600160a01b0382165f9081526002840160205260408120805483929061151390849061210b565b9091555050505050565b6001600160a01b0381168114610ada575f5ffd5b803561153c8161151d565b919050565b5f60208284031215611551575f5ffd5b81356114e38161151d565b634e487b7160e01b5f52604160045260245ffd5b604051608081016001600160401b03811182821017156115925761159261155c565b60405290565b60405161016081016001600160401b03811182821017156115925761159261155c565b604051606081016001600160401b03811182821017156115925761159261155c565b604051601f8201601f191681016001600160401b03811182821017156116055761160561155c565b604052919050565b5f6001600160401b038211156116255761162561155c565b5060051b60200190565b5f82601f83011261163e575f5ffd5b813561165161164c8261160d565b6115dd565b8082825260208201915060208360051b860101925085831115611672575f5ffd5b602085015b8381101561168f578035835260209283019201611677565b5095945050505050565b5f6001600160401b038211156116b1576116b161155c565b50601f01601f191660200190565b5f82601f8301126116ce575f5ffd5b81356116dc61164c82611699565b8181528460208386010111156116f0575f5ffd5b816020850160208301375f918101602001919091529392505050565b5f5f5f5f5f5f5f5f5f6101208a8c031215611725575f5ffd5b61172e8a611531565b985061173c60208b01611531565b975061174a60408b01611531565b965060608a0135955060808a0135945060a08a0135935060c08a01356001600160401b03811115611779575f5ffd5b6117858c828d0161162f565b93505060e08a01356001600160401b038111156117a0575f5ffd5b6117ac8c828d0161162f565b9250506101008a01356001600160401b038111156117c8575f5ffd5b6117d48c828d016116bf565b9150509295985092959850929598565b5f5f5f606084860312156117f6575f5ffd5b83356118018161151d565b925060208401356001600160401b0381111561181b575f5ffd5b6118278682870161162f565b92505060408401356001600160401b03811115611842575f5ffd5b61184e868287016116bf565b9150509250925092565b6001600160a01b03169052565b6001600160a01b0391909116815260200190565b5f60208284031215611889575f5ffd5b81356001600160401b0381111561189e575f5ffd5b8201608081850312156118af575f5ffd5b6118b7611570565b81356118c28161151d565b815260208201356118d28161151d565b602082015260408201356001600160401b038111156118ef575f5ffd5b6118fb8682850161162f565b60408301525060608201356001600160401b03811115611919575f5ffd5b611925868285016116bf565b606083015250949350505050565b60028110610ada575f5ffd5b803561153c81611933565b5f6020828403121561195a575f5ffd5b81356001600160401b0381111561196f575f5ffd5b82016101608185031215611981575f5ffd5b611989611598565b61199282611531565b81526119a060208301611531565b60208201526119b16040830161193f565b60408201526119c260608301611531565b60608201526119d360808301611531565b608082015260a0828101359082015260c0808301359082015260e080830135908201526101008201356001600160401b03811115611a0f575f5ffd5b611a1b8682850161162f565b610100830152506101208201356001600160401b03811115611a3b575f5ffd5b611a478682850161162f565b610120830152506101408201356001600160401b03811115611a67575f5ffd5b611a73868285016116bf565b61014083015250949350505050565b5f60208284031215611a92575f5ffd5b5035919050565b634e487b7160e01b5f52602160045260245ffd5b60028110611abd57611abd611a99565b9052565b5f8151808452602084019350602083015f5b82811015611af1578151865260209586019590910190600101611ad3565b5093949350505050565b5f81518084528060208401602086015e5f602082860101526020601f19601f83011685010191505092915050565b60208152611b3b602082018351611858565b5f6020830151611b4e6040840182611858565b506040830151611b616060840182611aad565b506060830151611b746080840182611858565b506080830151611b8760a0840182611858565b5060a083015160c083015260c083015160e083015260e0830151610100830152610100830151610160610120840152611bc4610180840182611ac1565b9050610120840151601f1984830301610140850152611be38282611ac1565b915050610140840151601f1984830301610160850152611c038282611afb565b95945050505050565b602081525f6114e36020830184611afb565b5f82601f830112611c2d575f5ffd5b8151611c3b61164c82611699565b818152846020838601011115611c4f575f5ffd5b8160208501602083015e5f918101602001919091529392505050565b5f60208284031215611c7b575f5ffd5b81516001600160401b03811115611c90575f5ffd5b6112bf84828501611c1e565b5f5f60408385031215611cad575f5ffd5b505080516020909101519092909150565b602080825282516001600160a01b03908116838301529083015116604080830191909152820151608060608301525f90611cfb60a0840182611ac1565b90506060840151601f19848303016080850152611c038282611afb565b8051801515811461153c575f5ffd5b5f82601f830112611d36575f5ffd5b8151611d4461164c8261160d565b80828252602082019150602060608402860101925085831115611d65575f5ffd5b602085015b8381101561168f5760608188031215611d81575f5ffd5b611d896115bb565b8151611d9481611933565b81526020820151611da48161151d565b6020820152611db560408301611d18565b60408201528352602090920191606001611d6a565b5f82601f830112611dd9575f5ffd5b8151611de761164c8261160d565b8082825260208201915060208360051b860101925085831115611e08575f5ffd5b602085015b8381101561168f578051835260209283019201611e0d565b5f5f5f5f60808587031215611e38575f5ffd5b84516001600160401b03811115611e4d575f5ffd5b8501601f81018713611e5d575f5ffd5b8051611e6b61164c8261160d565b8082825260208201915060208360051b850101925089831115611e8c575f5ffd5b6020840193505b82841015611eb7578351611ea68161151d565b825260209384019390910190611e93565b6020890151909750925050506001600160401b03811115611ed6575f5ffd5b611ee287828801611d27565b604087015190945090506001600160401b03811115611eff575f5ffd5b611f0b87828801611dca565b606087015190935090506001600160401b03811115611f28575f5ffd5b611f3487828801611dca565b91505092959194509250565b6001600160a01b03851681526080602082018190525f90611f6390830186611ac1565b8281036040840152611f758186611ac1565b90508281036060840152611f898185611afb565b979650505050505050565b6001600160a01b039384168152919092166020820152604081019190915260600190565b60208152611fca602082018351611aad565b60018060a01b03602083015116604082015260018060a01b03604083015116606082015260018060a01b036060830151166080820152608082015160a082015260a082015160c08201525f60c083015160e0808401526112bf610100840182611afb565b5f5f5f60608486031215612040575f5ffd5b5050815160208301516040909301519094929350919050565b6001600160a01b038981168252888116602083015287166040820152606081018690526080810185905261010060a082018190525f9061209b90830186611ac1565b82810360c08401526120ad8186611ac1565b905082810360e08401526120c18185611afb565b9b9a5050505050505050505050565b634e487b7160e01b5f52603260045260245ffd5b634e487b7160e01b5f52601160045260245ffd5b8181038181111561030d5761030d6120e4565b8082018082111561030d5761030d6120e4565b602080825282516001600160a01b0390811683830152908301511660408083019190915282015160c060608301525f9061215b60e0840182611ac1565b90506060840151608084015260808401516005811061217c5761217c611a99565b8060a08501525060a0840151601f198483030160c0850152611c038282611afb565b5f5f5f606084860312156121b0575f5ffd5b83516001600160401b038111156121c5575f5ffd5b6121d186828701611dca565b60208601516040870151919550935090506001600160401b038111156121f5575f5ffd5b61184e86828701611c1e565b5f60208284031215612211575f5ffd5b5051919050565b5f60208284031215612228575f5ffd5b81516114e38161151d565b5f60208284031215612243575f5ffd5b6114e382611d18565b808202811582820484141761030d5761030d6120e456fea2646970667358221220c3aa8a6914fc4664d861de928fd21b6807871ab4aa01a5b4386cb6f06845a8d364736f6c634300081e0033","linkReferences":{}},"methodIdentifiers":{"donate(address,uint256[],bytes)":"5a28ac20","donateHook((address,address,uint256[],bytes))":"69f10de4","getCollectedProtocolFees(address)":"4c65a5b3","getFeeSweeper()":"5c6e74c7","getMaxProtocolFeePercentage()":"7aaa14aa","getProtocolFeePercentage()":"706d9f78","setFeeSweeper(address)":"393cda9e","setProtocolFeePercentage(uint256)":"d8a5e936","swapAndDonateSurplusHook((address,address,uint8,address,address,uint256,uint256,uint256,uint256[],uint256[],bytes))":"7c255999","swapExactInAndDonateSurplus(address,address,address,uint256,uint256,uint256,uint256[],uint256[],bytes)":"3c902945","swapExactOutAndDonateSurplus(address,address,address,uint256,uint256,uint256,uint256[],uint256[],bytes)":"591b7655","withdrawCollectedProtocolFees(address)":"6abe431a"},"id":900}