{"abi":[{"type":"function","name":"allowance","inputs":[{"name":"owner","type":"address","internalType":"address"},{"name":"spender","type":"address","internalType":"address"},{"name":"id","type":"uint256","internalType":"uint256"}],"outputs":[{"name":"","type":"uint256","internalType":"uint256"}],"stateMutability":"view"},{"type":"function","name":"approve","inputs":[{"name":"spender","type":"address","internalType":"address"},{"name":"id","type":"uint256","internalType":"uint256"},{"name":"amount","type":"uint256","internalType":"uint256"}],"outputs":[{"name":"","type":"bool","internalType":"bool"}],"stateMutability":"nonpayable"},{"type":"function","name":"balanceOf","inputs":[{"name":"owner","type":"address","internalType":"address"},{"name":"id","type":"uint256","internalType":"uint256"}],"outputs":[{"name":"","type":"uint256","internalType":"uint256"}],"stateMutability":"view"},{"type":"function","name":"decimals","inputs":[{"name":"id","type":"uint256","internalType":"uint256"}],"outputs":[{"name":"","type":"uint8","internalType":"uint8"}],"stateMutability":"view"},{"type":"function","name":"getId","inputs":[{"name":"token","type":"address","internalType":"address"}],"outputs":[{"name":"","type":"uint256","internalType":"uint256"}],"stateMutability":"pure"},{"type":"function","name":"getUnlockTimestamp","inputs":[{"name":"id","type":"uint256","internalType":"uint256"}],"outputs":[{"name":"","type":"uint256","internalType":"uint256"}],"stateMutability":"view"},{"type":"function","name":"isOperator","inputs":[{"name":"owner","type":"address","internalType":"address"},{"name":"spender","type":"address","internalType":"address"}],"outputs":[{"name":"","type":"bool","internalType":"bool"}],"stateMutability":"view"},{"type":"function","name":"multicall","inputs":[{"name":"data","type":"bytes[]","internalType":"bytes[]"}],"outputs":[{"name":"results","type":"bytes[]","internalType":"bytes[]"}],"stateMutability":"nonpayable"},{"type":"function","name":"name","inputs":[{"name":"id","type":"uint256","internalType":"uint256"}],"outputs":[{"name":"","type":"string","internalType":"string"}],"stateMutability":"view"},{"type":"function","name":"setOperator","inputs":[{"name":"spender","type":"address","internalType":"address"},{"name":"approved","type":"bool","internalType":"bool"}],"outputs":[{"name":"","type":"bool","internalType":"bool"}],"stateMutability":"nonpayable"},{"type":"function","name":"supportsInterface","inputs":[{"name":"interfaceId","type":"bytes4","internalType":"bytes4"}],"outputs":[{"name":"","type":"bool","internalType":"bool"}],"stateMutability":"view"},{"type":"function","name":"symbol","inputs":[{"name":"id","type":"uint256","internalType":"uint256"}],"outputs":[{"name":"","type":"string","internalType":"string"}],"stateMutability":"view"},{"type":"function","name":"transfer","inputs":[{"name":"receiver","type":"address","internalType":"address"},{"name":"id","type":"uint256","internalType":"uint256"},{"name":"amount","type":"uint256","internalType":"uint256"}],"outputs":[{"name":"","type":"bool","internalType":"bool"}],"stateMutability":"nonpayable"},{"type":"function","name":"transferFrom","inputs":[{"name":"sender","type":"address","internalType":"address"},{"name":"receiver","type":"address","internalType":"address"},{"name":"id","type":"uint256","internalType":"uint256"},{"name":"amount","type":"uint256","internalType":"uint256"}],"outputs":[{"name":"","type":"bool","internalType":"bool"}],"stateMutability":"nonpayable"},{"type":"function","name":"withdrawBPT","inputs":[{"name":"bptAddress","type":"address","internalType":"address"}],"outputs":[],"stateMutability":"nonpayable"},{"type":"event","name":"Approval","inputs":[{"name":"owner","type":"address","indexed":true,"internalType":"address"},{"name":"spender","type":"address","indexed":true,"internalType":"address"},{"name":"id","type":"uint256","indexed":true,"internalType":"uint256"},{"name":"amount","type":"uint256","indexed":false,"internalType":"uint256"}],"anonymous":false},{"type":"event","name":"BPTTimelockSet","inputs":[{"name":"bptAddress","type":"address","indexed":true,"internalType":"contract IERC20"},{"name":"unlockTimestamp","type":"uint256","indexed":false,"internalType":"uint256"}],"anonymous":false},{"type":"event","name":"ERC6909DecimalsUpdated","inputs":[{"name":"id","type":"uint256","indexed":true,"internalType":"uint256"},{"name":"newDecimals","type":"uint8","indexed":false,"internalType":"uint8"}],"anonymous":false},{"type":"event","name":"ERC6909NameUpdated","inputs":[{"name":"id","type":"uint256","indexed":true,"internalType":"uint256"},{"name":"newName","type":"string","indexed":false,"internalType":"string"}],"anonymous":false},{"type":"event","name":"ERC6909SymbolUpdated","inputs":[{"name":"id","type":"uint256","indexed":true,"internalType":"uint256"},{"name":"newSymbol","type":"string","indexed":false,"internalType":"string"}],"anonymous":false},{"type":"event","name":"OperatorSet","inputs":[{"name":"owner","type":"address","indexed":true,"internalType":"address"},{"name":"spender","type":"address","indexed":true,"internalType":"address"},{"name":"approved","type":"bool","indexed":false,"internalType":"bool"}],"anonymous":false},{"type":"event","name":"Transfer","inputs":[{"name":"caller","type":"address","indexed":false,"internalType":"address"},{"name":"sender","type":"address","indexed":true,"internalType":"address"},{"name":"receiver","type":"address","indexed":true,"internalType":"address"},{"name":"id","type":"uint256","indexed":true,"internalType":"uint256"},{"name":"amount","type":"uint256","indexed":false,"internalType":"uint256"}],"anonymous":false},{"type":"error","name":"AddressEmptyCode","inputs":[{"name":"target","type":"address","internalType":"address"}]},{"type":"error","name":"BPTStillLocked","inputs":[{"name":"unlockTimestamp","type":"uint256","internalType":"uint256"}]},{"type":"error","name":"ERC6909InsufficientAllowance","inputs":[{"name":"spender","type":"address","internalType":"address"},{"name":"allowance","type":"uint256","internalType":"uint256"},{"name":"needed","type":"uint256","internalType":"uint256"},{"name":"id","type":"uint256","internalType":"uint256"}]},{"type":"error","name":"ERC6909InsufficientBalance","inputs":[{"name":"sender","type":"address","internalType":"address"},{"name":"balance","type":"uint256","internalType":"uint256"},{"name":"needed","type":"uint256","internalType":"uint256"},{"name":"id","type":"uint256","internalType":"uint256"}]},{"type":"error","name":"ERC6909InvalidApprover","inputs":[{"name":"approver","type":"address","internalType":"address"}]},{"type":"error","name":"ERC6909InvalidReceiver","inputs":[{"name":"receiver","type":"address","internalType":"address"}]},{"type":"error","name":"ERC6909InvalidSender","inputs":[{"name":"sender","type":"address","internalType":"address"}]},{"type":"error","name":"ERC6909InvalidSpender","inputs":[{"name":"spender","type":"address","internalType":"address"}]},{"type":"error","name":"FailedCall","inputs":[]},{"type":"error","name":"NoLockedBPT","inputs":[]}],"bytecode":{"object":"0x6080604052348015600e575f5ffd5b50610ed88061001c5f395ff3fe608060405234801561000f575f5ffd5b50600436106100c1575f3560e01c8062ad800c146100c5578062fdd58e146100ee57806301ffc9a71461010f578063095bcdb6146101325780633f47e66214610145578063426a84931461017c5780634e41a1fb1461018f578063558a7297146101a2578063598af9e7146101b557806365f68c89146101c85780638a34711d146101db578063ac9650d8146101fa578063b6363cf21461021a578063dc450d4f1461022d578063fe99049a14610242575b5f5ffd5b6100d86100d3366004610aaf565b610255565b6040516100e59190610af4565b60405180910390f35b6101016100fc366004610b28565b6102f4565b6040519081526020016100e5565b61012261011d366004610b50565b61031c565b60405190151581526020016100e5565b610122610140366004610b77565b610350565b61016a610153366004610aaf565b5f9081526003602052604090206002015460ff1690565b60405160ff90911681526020016100e5565b61012261018a366004610b77565b610367565b6100d861019d366004610aaf565b610374565b6101226101b0366004610ba7565b610393565b6101016101c3366004610be0565b6103a8565b6101016101d6366004610c1a565b6103d9565b6101016101e9366004610aaf565b5f9081526004602052604090205490565b61020d610208366004610c33565b6103e5565b6040516100e59190610ca2565b610122610228366004610d05565b6104ca565b61024061023b366004610c1a565b6104f7565b005b610122610250366004610d36565b610599565b5f81815260036020526040902080546060919061027190610d75565b80601f016020809104026020016040519081016040528092919081815260200182805461029d90610d75565b80156102e85780601f106102bf576101008083540402835291602001916102e8565b820191905f5260205f20905b8154815290600101906020018083116102cb57829003601f168201915b50505050509050919050565b6001600160a01b0382165f908152602081815260408083208484529091529020545b92915050565b5f6001600160e01b03198216630f632fb360e01b148061031657506301ffc9a760e01b6001600160e01b0319831614610316565b5f61035d338585856105e4565b5060019392505050565b5f61035d33858585610642565b5f81815260036020526040902060010180546060919061027190610d75565b5f61039f338484610701565b50600192915050565b6001600160a01b039283165f9081526002602090815260408083209490951682529283528381209181529152205490565b6001600160a01b031690565b604080515f815260208101909152606090826001600160401b0381111561040e5761040e610dc1565b60405190808252806020026020018201604052801561044157816020015b606081526020019060019003908161042c5790505b5091505f5b838110156104c25761049d3086868481811061046457610464610dd5565b90506020028101906104769190610de9565b8560405160200161048993929190610e32565b6040516020818303038152906040526107bf565b8382815181106104af576104af610dd5565b6020908102919091010152600101610446565b505092915050565b6001600160a01b039182165f90815260016020908152604080832093909416825291909152205460ff1690565b5f610501826103d9565b90505f61050e33836102f4565b9050805f0361052f5760405162e39db160e01b815260040160405180910390fd5b5f828152600460205260409020544281111561056657604051630c0912d360e31b8152600481018290526024015b60405180910390fd5b5f8381526004602052604081205561057f338484610856565b6105936001600160a01b0385163384610890565b50505050565b5f336001600160a01b03861681148015906105bb57506105b986826104ca565b155b156105cc576105cc8682868661089b565b6105d8868686866105e4565b50600195945050505050565b6001600160a01b03841661060d575f6040516301486a4160e71b815260040161055d9190610e55565b6001600160a01b038316610636575f604051630b8bbd6160e41b815260040161055d9190610e55565b61059384848484610914565b6001600160a01b03841661066b575f60405163198ecd5360e31b815260040161055d9190610e55565b6001600160a01b038316610694575f604051636f65f46560e01b815260040161055d9190610e55565b6001600160a01b038481165f8181526002602090815260408083209488168084529482528083208784528252918290208590559051848152859392917fb3fd5071835887567a0671151121894ddccc2842f1d10bedad13e0d17cace9a7910160405180910390a450505050565b6001600160a01b03831661072a575f60405163198ecd5360e31b815260040161055d9190610e55565b6001600160a01b038216610753575f604051636f65f46560e01b815260040161055d9190610e55565b6001600160a01b038381165f81815260016020908152604080832094871680845294825291829020805460ff191686151590811790915591519182527fceb576d9f15e4e200fdb5096d64d5dfd667e16def20c1eefd14256d8e3faa267910160405180910390a3505050565b60605f6107cc8484610a2e565b90508080156107ed57505f3d11806107ed57505f846001600160a01b03163b115b15610802576107fa610a41565b915050610316565b80156108235783604051639996b31560e01b815260040161055d9190610e55565b3d1561083657610831610a5a565b61084f565b60405163d6bda27560e01b815260040160405180910390fd5b5092915050565b6001600160a01b03831661087f575f6040516301486a4160e71b815260040161055d9190610e55565b61088b835f8484610914565b505050565b61088b838383610a65565b5f6108a78585856103a8565b90505f1981101561090d57818110156108db5783818385604051632c51fead60e11b815260040161055d9493929190610e69565b6001600160a01b038086165f908152600260209081526040808320938816835292815282822086835290522082820390555b5050505050565b336001600160a01b03851615610995576001600160a01b0385165f908152602081815260408083208684529091529020548281101561096e57858184866040516302c6d3fb60e61b815260040161055d9493929190610e69565b6001600160a01b0386165f9081526020818152604080832087845290915290209083900390555b6001600160a01b038416156109da576001600160a01b0384165f90815260208181526040808320868452909152812080548492906109d4908490610e8f565b90915550505b604080516001600160a01b03838116825260208201859052859281881692918916917f1b3d7edb2e9c0b0e7c525b20aaaef0f5940d2ed71663c7d39266ecafac728859910160405180910390a45050505050565b5f5f5f835160208501865af49392505050565b6040513d81523d5f602083013e3d602001810160405290565b6040513d5f823e3d81fd5b816014528060345263a9059cbb60601b5f5260205f604460105f875af18060015f511416610aa557803d853b151710610aa5576390b8ec185f526004601cfd5b505f603452505050565b5f60208284031215610abf575f5ffd5b5035919050565b5f81518084528060208401602086015e5f602082860101526020601f19601f83011685010191505092915050565b602081525f610b066020830184610ac6565b9392505050565b80356001600160a01b0381168114610b23575f5ffd5b919050565b5f5f60408385031215610b39575f5ffd5b610b4283610b0d565b946020939093013593505050565b5f60208284031215610b60575f5ffd5b81356001600160e01b031981168114610b06575f5ffd5b5f5f5f60608486031215610b89575f5ffd5b610b9284610b0d565b95602085013595506040909401359392505050565b5f5f60408385031215610bb8575f5ffd5b610bc183610b0d565b915060208301358015158114610bd5575f5ffd5b809150509250929050565b5f5f5f60608486031215610bf2575f5ffd5b610bfb84610b0d565b9250610c0960208501610b0d565b929592945050506040919091013590565b5f60208284031215610c2a575f5ffd5b610b0682610b0d565b5f5f60208385031215610c44575f5ffd5b82356001600160401b03811115610c59575f5ffd5b8301601f81018513610c69575f5ffd5b80356001600160401b03811115610c7e575f5ffd5b8560208260051b8401011115610c92575f5ffd5b6020919091019590945092505050565b5f602082016020835280845180835260408501915060408160051b8601019250602086015f5b82811015610cf957603f19878603018452610ce4858351610ac6565b94506020938401939190910190600101610cc8565b50929695505050505050565b5f5f60408385031215610d16575f5ffd5b610d1f83610b0d565b9150610d2d60208401610b0d565b90509250929050565b5f5f5f5f60808587031215610d49575f5ffd5b610d5285610b0d565b9350610d6060208601610b0d565b93969395505050506040820135916060013590565b600181811c90821680610d8957607f821691505b602082108103610da757634e487b7160e01b5f52602260045260245ffd5b50919050565b634e487b7160e01b5f52601160045260245ffd5b634e487b7160e01b5f52604160045260245ffd5b634e487b7160e01b5f52603260045260245ffd5b5f5f8335601e19843603018112610dfe575f5ffd5b8301803591506001600160401b03821115610e17575f5ffd5b602001915036819003821315610e2b575f5ffd5b9250929050565b828482375f8382015f815283518060208601835e5f910190815295945050505050565b6001600160a01b0391909116815260200190565b6001600160a01b0394909416845260208401929092526040830152606082015260800190565b8082018082111561031657610316610dad56fea2646970667358221220f7e67f054f663381a2486cae0637008c4bfe45ec214afb11b13a2282a5fa8c9764736f6c634300081e0033","linkReferences":{}},"methodIdentifiers":{"allowance(address,address,uint256)":"598af9e7","approve(address,uint256,uint256)":"426a8493","balanceOf(address,uint256)":"00fdd58e","decimals(uint256)":"3f47e662","getId(address)":"65f68c89","getUnlockTimestamp(uint256)":"8a34711d","isOperator(address,address)":"b6363cf2","multicall(bytes[])":"ac9650d8","name(uint256)":"00ad800c","setOperator(address,bool)":"558a7297","supportsInterface(bytes4)":"01ffc9a7","symbol(uint256)":"4e41a1fb","transfer(address,uint256,uint256)":"095bcdb6","transferFrom(address,address,uint256,uint256)":"fe99049a","withdrawBPT(address)":"dc450d4f"},"id":196}