{"abi":[{"type":"constructor","inputs":[{"name":"vault","type":"address","internalType":"contract IVault"},{"name":"router","type":"address","internalType":"contract IRouter"}],"stateMutability":"nonpayable"},{"type":"function","name":"calculateAddLiquidityUnbalancedPriceImpact","inputs":[{"name":"pool","type":"address","internalType":"address"},{"name":"exactAmountsIn","type":"uint256[]","internalType":"uint256[]"},{"name":"sender","type":"address","internalType":"address"}],"outputs":[{"name":"priceImpact","type":"uint256","internalType":"uint256"}],"stateMutability":"nonpayable"},{"type":"function","name":"callAndRevertHook","inputs":[{"name":"target","type":"address","internalType":"address"},{"name":"data","type":"bytes","internalType":"bytes"}],"outputs":[],"stateMutability":"nonpayable"},{"type":"error","name":"AddressEmptyCode","inputs":[{"name":"target","type":"address","internalType":"address"}]},{"type":"error","name":"ErrorSelectorNotFound","inputs":[]},{"type":"error","name":"FailedCall","inputs":[]},{"type":"error","name":"QuoteResultSpoofed","inputs":[]},{"type":"error","name":"Result","inputs":[{"name":"result","type":"bytes","internalType":"bytes"}]}],"bytecode":{"object":"0x60c060405234801561000f575f5ffd5b5060405161122e38038061122e83398101604081905261002e9161005c565b6001600160a01b039182166080521660a052610094565b6001600160a01b0381168114610059575f5ffd5b50565b5f5f6040838503121561006d575f5ffd5b825161007881610045565b602084015190925061008981610045565b809150509250929050565b60805160a0516111646100ca5f395f8181610335015281816103fa01528181610a640152610ac701525f61054601526111645ff3fe608060405234801561000f575f5ffd5b5060043610610034575f3560e01c806348406a5414610038578063a76996381461005d575b5f5ffd5b61004b610046366004610c13565b610072565b60405190815260200160405180910390f35b61007061006b366004610cf1565b61024f565b005b5f5f61007f85858561032f565b90505f61008d8683866103c3565b90505f85516001600160401b038111156100a9576100a9610bad565b6040519080825280602002602001820160405280156100d2578160200160208202803683370190505b5090505f5b8651811015610146576101028782815181106100f5576100f5610d78565b602002602001015161043e565b6101178483815181106100f5576100f5610d78565b6101219190610da0565b82828151811061013357610133610d78565b60209081029190910101526001016100d7565b505f86516001600160401b0381111561016157610161610bad565b60405190808252806020026020018201604052801561018a578160200160208202803683370190505b5090505f5b87518110156101c9576101a48982858a61044e565b8282815181106101b6576101b6610d78565b602090810291909101015260010161018f565b505f6101d78984848a610529565b90505f6102058483815181106101ef576101ef610d78565b602002602001015161020090610dc6565b61043e565b905060026102358a848151811061021e5761021e610d78565b6020026020010151836107a390919063ffffffff16565b61023f9190610de0565b96505050505050505b9392505050565b5f5f836001600160a01b0316836040516102699190610dff565b5f604051808303815f865af19150503d805f81146102a2576040519150601f19603f3d011682016040523d82523d5f602084013e6102a7565b606091505b509150915081156102e2576102bd3383836107c3565b5080604051630b56c9f760e31b81526004016102d99190610e43565b60405180910390fd5b5f6102ec82610816565b90506314a9360960e31b6001600160e01b031982160161031f576040516328f9554160e01b815260040160405180910390fd5b61032882610842565b5050505050565b5f6103a87f000000000000000000000000000000000000000000000000000000000000000063da001f7d60e01b86868660405160240161037193929190610e55565b60408051601f198184030181529190526020810180516001600160e01b03166001600160e01b03199093169290921790915261086e565b8060200190518101906103bb9190610ec8565b949350505050565b6040516001600160a01b0380851660248301526044820184905282166064820152608060848201525f60a482015260609061042b907f0000000000000000000000000000000000000000000000000000000000000000906301ee211160e31b9060c401610371565b8060200190518101906103bb9190610edf565b5f6104488261093f565b92915050565b5f5f83516001600160401b0381111561046957610469610bad565b604051908082528060200260200182016040528015610492578160200160208202803683370190505b5090505f8486815181106104a8576104a8610d78565b60200260200101519050805f036104c3575f925050506103bb565b5f81136104d8576104d381610dc6565b6104da565b805b8287815181106104ec576104ec610d78565b6020026020010181815250505f61050488848761032f565b90505f821361051b5761051681610dc6565b61051d565b805b98975050505050505050565b60405163ca4f280360e01b81525f90819081906001600160a01b037f0000000000000000000000000000000000000000000000000000000000000000169063ca4f28039061057b908a90600401610f65565b5f60405180830381865afa158015610595573d5f5f3e3d5ffd5b505050506040513d5f823e601f3d908101601f191682016040526105bc9190810190610f79565b90505f5b600187516105ce9190611008565b811015610797575f6105df87610958565b90506105ea876109e0565b93505f5f5f89878151811061060157610601610d78565b602002602001015161061290610dc6565b8a858151811061062457610624610d78565b602002602001015112156106925783925086915061068b8c87858151811061064e5761064e610d78565b602002602001015188858151811061066857610668610d78565b60200260200101516106858f88815181106100f5576100f5610d78565b8d610a5e565b90506106ee565b8692508391506106eb8c8784815181106106ae576106ae610d78565b60200260200101518886815181106106c8576106c8610d78565b60200260200101516106e58f88815181106101ef576101ef610d78565b8d610ac1565b90505b5f8b848151811061070157610701610d78565b6020026020010181815250505f8a848151811061072057610720610d78565b6020026020010181815250506107358161043e565b8b838151811061074757610747610d78565b6020026020010181815161075b919061101b565b90525061076a8c838d8c61044e565b8a838151811061077c5761077c610d78565b60209081029190910101525050600190920191506105c09050565b50909695505050505050565b5f806107b7670de0b6b3a764000085611042565b90506103bb8382610de0565b6060826107d8576107d382610b07565b610248565b81511580156107ef57506001600160a01b0384163b155b1561080f5783604051639996b31560e01b81526004016102d99190610f65565b5080610248565b5f60048251101561083a5760405163a728568960e01b815260040160405180910390fd5b506020015190565b8051156108525780518082602001fd5b60405163a728568960e01b815260040160405180910390fd5b50565b6040516314ed32c760e31b8152606090309063a7699638906108969086908690600401611059565b5f604051808303815f87803b1580156108ad575f5ffd5b505af19250505080156108be575060015b610902573d8080156108eb576040519150601f19603f3d011682016040523d82523d5f602084013e6108f0565b606091505b506108fa81610b30565b915050610448565b60405162461bcd60e51b8152602060048201526012602482015271556e6578706563746564207375636365737360701b60448201526064016102d9565b5f5f821261094b575090565b610953610b81565b919050565b5f6001600160ff1b03815b83518110156109d9575f84828151811061097f5761097f610d78565b60200260200101511380156109ac5750818482815181106109a2576109a2610d78565b6020026020010151125b156109d1578381815181106109c3576109c3610d78565b602002602001015191508092505b600101610963565b5050919050565b5f600160ff1b815b83518110156109d9575f848281518110610a0457610a04610d78565b6020026020010151128015610a31575081848281518110610a2757610a27610d78565b6020026020010151135b15610a5657838181518110610a4857610a48610d78565b602002602001015191508092505b6001016109e8565b5f610aa47f0000000000000000000000000000000000000000000000000000000000000000633ebc54e560e01b888888888860405160240161037195949392919061107c565b806020019051810190610ab79190610ec8565b9695505050505050565b5f610aa47f000000000000000000000000000000000000000000000000000000000000000063175d440860e01b888888888860405160240161037195949392919061107c565b805115610b175780518082602001fd5b60405163d6bda27560e01b815260040160405180910390fd5b60605f610b3c83610816565b90506001600160e01b03198116630b56c9f760e31b14610b5f57610b5f83610842565b8251600319810160048501908152936103bb90828101602001906024016110ba565b6335278d125f526004601cfd5b6001600160a01b038116811461086b575f5ffd5b803561095381610b8e565b634e487b7160e01b5f52604160045260245ffd5b604051601f8201601f191681016001600160401b0381118282101715610be957610be9610bad565b604052919050565b5f6001600160401b03821115610c0957610c09610bad565b5060051b60200190565b5f5f5f60608486031215610c25575f5ffd5b8335610c3081610b8e565b925060208401356001600160401b03811115610c4a575f5ffd5b8401601f81018613610c5a575f5ffd5b8035610c6d610c6882610bf1565b610bc1565b8082825260208201915060208360051b850101925088831115610c8e575f5ffd5b6020840193505b82841015610cb0578335825260209384019390910190610c95565b9450610cc29250505060408501610ba2565b90509250925092565b5f6001600160401b03821115610ce357610ce3610bad565b50601f01601f191660200190565b5f5f60408385031215610d02575f5ffd5b8235610d0d81610b8e565b915060208301356001600160401b03811115610d27575f5ffd5b8301601f81018513610d37575f5ffd5b8035610d45610c6882610ccb565b818152866020838501011115610d59575f5ffd5b816020840160208301375f602083830101528093505050509250929050565b634e487b7160e01b5f52603260045260245ffd5b634e487b7160e01b5f52601160045260245ffd5b8181035f831280158383131683831282161715610dbf57610dbf610d8c565b5092915050565b5f600160ff1b8201610dda57610dda610d8c565b505f0390565b5f82610dfa57634e487b7160e01b5f52601260045260245ffd5b500490565b5f82518060208501845e5f920191825250919050565b5f81518084528060208401602086015e5f602082860101526020601f19601f83011685010191505092915050565b602081525f6102486020830184610e15565b6001600160a01b03841681526080602080830182905284519183018290525f919085019060a0840190835b81811015610e9e578351835260209384019390920191600101610e80565b50506001600160a01b0394909416604084015250508082036060909101525f815260200192915050565b5f60208284031215610ed8575f5ffd5b5051919050565b5f60208284031215610eef575f5ffd5b81516001600160401b03811115610f04575f5ffd5b8201601f81018413610f14575f5ffd5b8051610f22610c6882610bf1565b8082825260208201915060208360051b850101925086831115610f43575f5ffd5b6020840193505b82841015610ab7578351825260209384019390910190610f4a565b6001600160a01b0391909116815260200190565b5f60208284031215610f89575f5ffd5b81516001600160401b03811115610f9e575f5ffd5b8201601f81018413610fae575f5ffd5b8051610fbc610c6882610bf1565b8082825260208201915060208360051b850101925086831115610fdd575f5ffd5b6020840193505b82841015610ab7578351610ff781610b8e565b825260209384019390910190610fe4565b8181038181111561044857610448610d8c565b8082018281125f83128015821682158216171561103a5761103a610d8c565b505092915050565b808202811582820484141761044857610448610d8c565b6001600160a01b03831681526040602082018190525f906103bb90830184610e15565b6001600160a01b039586168152938516602085015291841660408401526060830152909116608082015260c060a082018190525f9082015260e00190565b5f602082840312156110ca575f5ffd5b81516001600160401b038111156110df575f5ffd5b8201601f810184136110ef575f5ffd5b80516110fd610c6882610ccb565b818152856020838501011115611111575f5ffd5b8160208401602083015e5f9181016020019190915294935050505056fea2646970667358221220f317a9499eaa534905af4f8d4fe2f4a46dc54701d881629eff94ea316c70015764736f6c634300081e0033","linkReferences":{}},"methodIdentifiers":{"calculateAddLiquidityUnbalancedPriceImpact(address,uint256[],address)":"48406a54","callAndRevertHook(address,bytes)":"a7699638"},"id":313}