{"abi":[{"type":"constructor","inputs":[{"name":"pkgInit","type":"tuple","internalType":"struct IBalancerV3WeightedPoolDFPkg.PkgInit","components":[{"name":"balancerV3VaultAwareFacet","type":"address","internalType":"contract IFacet"},{"name":"betterBalancerV3PoolTokenFacet","type":"address","internalType":"contract IFacet"},{"name":"defaultPoolInfoFacet","type":"address","internalType":"contract IFacet"},{"name":"standardSwapFeePercentageBoundsFacet","type":"address","internalType":"contract IFacet"},{"name":"unbalancedLiquidityInvariantRatioBoundsFacet","type":"address","internalType":"contract IFacet"},{"name":"balancerV3AuthenticationFacet","type":"address","internalType":"contract IFacet"},{"name":"balancerV3WeightedPoolFacet","type":"address","internalType":"contract IFacet"},{"name":"balancerV3Vault","type":"address","internalType":"contract IVault"},{"name":"diamondFactory","type":"address","internalType":"contract IDiamondPackageCallBackFactory"},{"name":"poolFeeManager","type":"address","internalType":"address"}]}],"stateMutability":"nonpayable"},{"type":"function","name":"BALANCER_V3_AUTHENTICATION_FACET","inputs":[],"outputs":[{"name":"","type":"address","internalType":"contract IFacet"}],"stateMutability":"view"},{"type":"function","name":"BALANCER_V3_VAULT","inputs":[],"outputs":[{"name":"","type":"address","internalType":"contract IVault"}],"stateMutability":"view"},{"type":"function","name":"BALANCER_V3_VAULT_AWARE_FACET","inputs":[],"outputs":[{"name":"","type":"address","internalType":"contract IFacet"}],"stateMutability":"view"},{"type":"function","name":"BALANCER_V3_WEIGHTED_POOL_FACET","inputs":[],"outputs":[{"name":"","type":"address","internalType":"contract IFacet"}],"stateMutability":"view"},{"type":"function","name":"BETTER_BALANCER_V3_POOL_TOKEN_FACET","inputs":[],"outputs":[{"name":"","type":"address","internalType":"contract IFacet"}],"stateMutability":"view"},{"type":"function","name":"DEFAULT_POOL_INFO_FACET","inputs":[],"outputs":[{"name":"","type":"address","internalType":"contract IFacet"}],"stateMutability":"view"},{"type":"function","name":"DIAMOND_PACKAGE_FACTORY","inputs":[],"outputs":[{"name":"","type":"address","internalType":"contract IDiamondPackageCallBackFactory"}],"stateMutability":"view"},{"type":"function","name":"calcSalt","inputs":[{"name":"pkgArgs","type":"bytes","internalType":"bytes"}],"outputs":[{"name":"salt","type":"bytes32","internalType":"bytes32"}],"stateMutability":"pure"},{"type":"function","name":"deployPool","inputs":[{"name":"tokenConfigs_","type":"tuple[]","internalType":"struct TokenConfig[]","components":[{"name":"token","type":"address","internalType":"contract IERC20"},{"name":"tokenType","type":"uint8","internalType":"enum TokenType"},{"name":"rateProvider","type":"address","internalType":"contract IRateProvider"},{"name":"paysYieldFees","type":"bool","internalType":"bool"}]},{"name":"normalizedWeights_","type":"uint256[]","internalType":"uint256[]"},{"name":"hooksContract","type":"address","internalType":"address"}],"outputs":[{"name":"vault","type":"address","internalType":"address"}],"stateMutability":"nonpayable"},{"type":"function","name":"diamondConfig","inputs":[],"outputs":[{"name":"config","type":"tuple","internalType":"struct IDiamondFactoryPackage.DiamondConfig","components":[{"name":"facetCuts","type":"tuple[]","internalType":"struct IDiamond.FacetCut[]","components":[{"name":"facetAddress","type":"address","internalType":"address"},{"name":"action","type":"uint8","internalType":"enum IDiamond.FacetCutAction"},{"name":"functionSelectors","type":"bytes4[]","internalType":"bytes4[]"}]},{"name":"interfaces","type":"bytes4[]","internalType":"bytes4[]"}]}],"stateMutability":"view"},{"type":"function","name":"disable","inputs":[],"outputs":[],"stateMutability":"nonpayable"},{"type":"function","name":"facetAddresses","inputs":[],"outputs":[{"name":"facetAddresses_","type":"address[]","internalType":"address[]"}],"stateMutability":"view"},{"type":"function","name":"facetCuts","inputs":[],"outputs":[{"name":"facetCuts_","type":"tuple[]","internalType":"struct IDiamond.FacetCut[]","components":[{"name":"facetAddress","type":"address","internalType":"address"},{"name":"action","type":"uint8","internalType":"enum IDiamond.FacetCutAction"},{"name":"functionSelectors","type":"bytes4[]","internalType":"bytes4[]"}]}],"stateMutability":"view"},{"type":"function","name":"facetInterfaces","inputs":[],"outputs":[{"name":"interfaces","type":"bytes4[]","internalType":"bytes4[]"}],"stateMutability":"pure"},{"type":"function","name":"getActionId","inputs":[{"name":"selector","type":"bytes4","internalType":"bytes4"}],"outputs":[{"name":"","type":"bytes32","internalType":"bytes32"}],"stateMutability":"view"},{"type":"function","name":"getDeploymentAddress","inputs":[{"name":"constructorArgs","type":"bytes","internalType":"bytes"},{"name":"","type":"bytes32","internalType":"bytes32"}],"outputs":[{"name":"","type":"address","internalType":"address"}],"stateMutability":"view"},{"type":"function","name":"getNewPoolPauseWindowEndTime","inputs":[],"outputs":[{"name":"","type":"uint32","internalType":"uint32"}],"stateMutability":"view"},{"type":"function","name":"getOriginalPauseWindowEndTime","inputs":[],"outputs":[{"name":"","type":"uint32","internalType":"uint32"}],"stateMutability":"view"},{"type":"function","name":"getPauseWindowDuration","inputs":[],"outputs":[{"name":"","type":"uint32","internalType":"uint32"}],"stateMutability":"view"},{"type":"function","name":"getPoolCount","inputs":[],"outputs":[{"name":"","type":"uint256","internalType":"uint256"}],"stateMutability":"view"},{"type":"function","name":"getPools","inputs":[],"outputs":[{"name":"","type":"address[]","internalType":"address[]"}],"stateMutability":"view"},{"type":"function","name":"getPoolsInRange","inputs":[{"name":"start","type":"uint256","internalType":"uint256"},{"name":"count","type":"uint256","internalType":"uint256"}],"outputs":[{"name":"","type":"address[]","internalType":"address[]"}],"stateMutability":"view"},{"type":"function","name":"initAccount","inputs":[{"name":"initArgs","type":"bytes","internalType":"bytes"}],"outputs":[],"stateMutability":"nonpayable"},{"type":"function","name":"isDisabled","inputs":[],"outputs":[{"name":"","type":"bool","internalType":"bool"}],"stateMutability":"view"},{"type":"function","name":"isPoolFromFactory","inputs":[{"name":"pool","type":"address","internalType":"address"}],"outputs":[{"name":"","type":"bool","internalType":"bool"}],"stateMutability":"view"},{"type":"function","name":"packageMetadata","inputs":[],"outputs":[{"name":"name_","type":"string","internalType":"string"},{"name":"interfaces","type":"bytes4[]","internalType":"bytes4[]"},{"name":"facets","type":"address[]","internalType":"address[]"}],"stateMutability":"view"},{"type":"function","name":"packageName","inputs":[],"outputs":[{"name":"name_","type":"string","internalType":"string"}],"stateMutability":"pure"},{"type":"function","name":"postDeploy","inputs":[{"name":"proxy","type":"address","internalType":"address"}],"outputs":[{"name":"","type":"bool","internalType":"bool"}],"stateMutability":"nonpayable"},{"type":"function","name":"processArgs","inputs":[{"name":"pkgArgs","type":"bytes","internalType":"bytes"}],"outputs":[{"name":"processedPkgArgs","type":"bytes","internalType":"bytes"}],"stateMutability":"pure"},{"type":"function","name":"tokenConfigs","inputs":[{"name":"pool","type":"address","internalType":"address"}],"outputs":[{"name":"","type":"tuple[]","internalType":"struct TokenConfig[]","components":[{"name":"token","type":"address","internalType":"contract IERC20"},{"name":"tokenType","type":"uint8","internalType":"enum TokenType"},{"name":"rateProvider","type":"address","internalType":"contract IRateProvider"},{"name":"paysYieldFees","type":"bool","internalType":"bool"}]}],"stateMutability":"view"},{"type":"function","name":"updatePkg","inputs":[{"name":"expectedProxy","type":"address","internalType":"address"},{"name":"pkgArgs","type":"bytes","internalType":"bytes"}],"outputs":[{"name":"","type":"bool","internalType":"bool"}],"stateMutability":"nonpayable"},{"type":"event","name":"FactoryDisabled","inputs":[],"anonymous":false},{"type":"event","name":"PoolCreated","inputs":[{"name":"pool","type":"address","indexed":true,"internalType":"address"}],"anonymous":false},{"type":"error","name":"Disabled","inputs":[]},{"type":"error","name":"IndexOutOfBounds","inputs":[]},{"type":"error","name":"IndexOutOfBounds","inputs":[{"name":"length","type":"uint256","internalType":"uint256"},{"name":"invalidIndex","type":"uint256","internalType":"uint256"},{"name":"errorCode","type":"uint256","internalType":"uint256"}]},{"type":"error","name":"InvalidPageSize","inputs":[{"name":"start","type":"uint256","internalType":"uint256"},{"name":"end","type":"uint256","internalType":"uint256"}]},{"type":"error","name":"InvalidTokensLength","inputs":[{"name":"maxLength","type":"uint256","internalType":"uint256"},{"name":"minLength","type":"uint256","internalType":"uint256"},{"name":"providedLength","type":"uint256","internalType":"uint256"}]},{"type":"error","name":"InvalidWeightsLength","inputs":[]},{"type":"error","name":"PoolPauseWindowDurationOverflow","inputs":[]},{"type":"error","name":"SenderNotAllowed","inputs":[]},{"type":"error","name":"StringTooLong","inputs":[{"name":"str","type":"string","internalType":"string"}]},{"type":"error","name":"WeightsMustSumToOne","inputs":[]},{"type":"error","name":"WeightsTokensMismatch","inputs":[{"name":"tokensLength","type":"uint256","internalType":"uint256"},{"name":"weightsLength","type":"uint256","internalType":"uint256"}]},{"type":"error","name":"ZeroWeight","inputs":[]}],"bytecode":{"object":"0x610160604052348015610010575f5ffd5b50604051613a0a380380613a0a83398101604081905261002f9161020b565b60e0808201516001600160a01b0390811660805261010080840151821660a09081528451831660c090815260208601518416909452604085015183169091528301518116610120908152918301511661014052810151610094906301e13380906100ca565b604080513060208201526100c49101604051602081830303815290604052805190602001206100f960201b60201c565b50610303565b6100f57f083b184f81c44d1555bdab2b99aeea4d11b107caca4883125bcb0b412d1f81328383610125565b5050565b6101227f82340927aad1ca6b5f8bb0037567f287e1bec629ab302d4e1debbc0d7543b1f8829055565b50565b5f61013083426102d5565b905063ffffffff8082161115610159576040516368755a1160e01b815260040160405180910390fd5b8354610100600160481b0319166501000000000063ffffffff9283160264ffffffff00191617610100939091169290920291909117600160481b600160e81b03191669010000000000000000006001600160a01b039290921691909102179055565b60405161014081016001600160401b03811182821017156101ea57634e487b7160e01b5f52604160045260245ffd5b60405290565b80516001600160a01b0381168114610206575f5ffd5b919050565b5f61014082840312801561021d575f5ffd5b506102266101bb565b61022f836101f0565b815261023d602084016101f0565b602082015261024e604084016101f0565b604082015261025f606084016101f0565b6060820152610270608084016101f0565b608082015261028160a084016101f0565b60a082015261029260c084016101f0565b60c08201526102a360e084016101f0565b60e08201526102b561010084016101f0565b6101008201526102c861012084016101f0565b6101208201529392505050565b63ffffffff81811683821601908111156102fd57634e487b7160e01b5f52601160045260245ffd5b92915050565b60805160a05160c05160e05161010051610120516101405161363f6103cb5f395f8181610267015281816109bd015281816110ff015261114501525f8181610430015281816109690152818161100b015261105101525f818161032e0152818161091501528181610f170152610f5d01525f8181610355015281816108c101528181610e230152610e6901525f81816103070152818161086e01528181610d450152610d7601525f81816103cb015281816107cc015261136901525f610391015261363f5ff3fe608060405234801561000f575f5ffd5b5060043610610173575f3560e01c80631b69dc5f146101775780632ea80826146101a05780632f2770db146101b557806344f6fec7146101bf57806352ef6b2c146101df57806353a72f7e146101f457806365d375b3146102075780636634b7531461021c578063673a2a1f1461023f5780636c57f5a91461024757806370068fcf1461024f57806378c39a6e1461026257806378da80cb14610289578063851c1bb3146102a6578063870d4838146102c757806387c3adb3146102da5780638eec5d70146102fa57806390d8c70514610302578063a2bebeb214610329578063a378544d14610350578063a4b3ad3514610377578063a4c01bbb1461038c578063a9089235146103b3578063ab6046ed146103c6578063abc8b346146103ed578063d82be56e146103f5578063db035ebc14610408578063e537bf6014610410578063e9d56e1914610423578063f07033251461042b578063f45469e714610452575b5f5ffd5b61018a610185366004612873565b610469565b6040516101979190612931565b60405180910390f35b6101a861047a565b604051610197919061297d565b6101bd61076e565b005b6101d26101cd366004612a95565b6107b3565b6040516101979190612ae3565b6101e7610849565b6040516101979190612b30565b6101e7610202366004612b42565b610a12565b61020f610a1e565b6040516101979190612bf8565b61022f61022a366004612873565b610a59565b6040519015158152602001610197565b6101e7610a63565b61022f610a72565b61022f61025d366004612873565b610a7b565b6101d27f000000000000000000000000000000000000000000000000000000000000000081565b610291610af1565b60405163ffffffff9091168152602001610197565b6102b96102b4366004612c4e565b610afa565b604051908152602001610197565b6101bd6102d5366004612c69565b610b04565b6102ed6102e8366004612c69565b610c84565b6040516101979190612cc8565b6102b9610ce1565b6101d27f000000000000000000000000000000000000000000000000000000000000000081565b6101d27f000000000000000000000000000000000000000000000000000000000000000081565b6101d27f000000000000000000000000000000000000000000000000000000000000000081565b61037f610cea565b6040516101979190612cda565b6101d27f000000000000000000000000000000000000000000000000000000000000000081565b61022f6103c1366004612cec565b6111e9565b6101d27f000000000000000000000000000000000000000000000000000000000000000081565b6102ed611226565b6102b9610403366004612c69565b61125b565b61029161135d565b6101d261041e366004612d78565b611366565b6102916114c2565b6101d27f000000000000000000000000000000000000000000000000000000000000000081565b61045a6114cb565b60405161019793929190612e24565b6060610474826114f3565b92915050565b60408051600c8082526101a0820190925260609160208201610180803683370190505090506336372b0760e01b815f815181106104b9576104b9612e5c565b60200260200101906001600160e01b03191690816001600160e01b0319168152505063a219a02560e01b816001815181106104f6576104f6612e5c565b6001600160e01b0319909216602092830291909101909101528051634a17459160e11b908290600290811061052d5761052d612e5c565b60200260200101906001600160e01b03191690816001600160e01b03191681525050634ec7fbed60e11b8160038151811061056a5761056a612e5c565b60200260200101906001600160e01b03191690816001600160e01b031916815250506342580cb760e11b816004815181106105a7576105a7612e5c565b60200260200101906001600160e01b03191690816001600160e01b03191681525050634b12c34f60e01b816005815181106105e4576105e4612e5c565b60200260200101906001600160e01b03191690816001600160e01b0319168152505063e244eef560e01b8160068151811061062157610621612e5c565b60200260200101906001600160e01b03191690816001600160e01b03191681525050637e126dc760e11b8160078151811061065e5761065e612e5c565b60200260200101906001600160e01b03191690816001600160e01b031916815250506355b60edd60e11b8160088151811061069b5761069b612e5c565b60200260200101906001600160e01b03191690816001600160e01b0319168152505063914be08960e01b816009815181106106d8576106d8612e5c565b60200260200101906001600160e01b03191690816001600160e01b0319168152505063755994e960e01b81600a8151811061071557610715612e5c565b60200260200101906001600160e01b03191690816001600160e01b0319168152505063f89f27ed60e01b81600b8151811061075257610752612e5c565b6001600160e01b03199092166020928302919091019091015290565b3061077881611506565b610780611549565b610788611571565b6040517f432acbfd662dbb5d8b378384a67159b47ca9d0f1b79f97cf64cf8585fa362d50905f90a150565b60405163033a41d760e41b81525f906001600160a01b037f000000000000000000000000000000000000000000000000000000000000000016906333a41d70906108039030908790600401612e70565b602060405180830381865afa15801561081e573d5f5f3e3d5ffd5b505050506040513d601f19601f820116820180604052508101906108429190612e9e565b9392505050565b60408051600580825260c082019092526060916020820160a0803683370190505090507f0000000000000000000000000000000000000000000000000000000000000000815f8151811061089f5761089f612e5c565b60200260200101906001600160a01b031690816001600160a01b0316815250507f0000000000000000000000000000000000000000000000000000000000000000816001815181106108f3576108f3612e5c565b60200260200101906001600160a01b031690816001600160a01b0316815250507f00000000000000000000000000000000000000000000000000000000000000008160028151811061094757610947612e5c565b60200260200101906001600160a01b031690816001600160a01b0316815250507f00000000000000000000000000000000000000000000000000000000000000008160038151811061099b5761099b612e5c565b60200260200101906001600160a01b031690816001600160a01b0316815250507f0000000000000000000000000000000000000000000000000000000000000000816004815181106109ef576109ef612e5c565b60200260200101906001600160a01b031690816001600160a01b03168152505090565b60606108428383611589565b60408051808201909152606080825260208201526040518060400160405280610a45610cea565b8152602001610a5261047a565b9052919050565b5f6104748261159d565b6060610a6d6115af565b905090565b5f610a6d6115c1565b5f610ae982610a89846114f3565b66b1a2bc2ec500005f610a9a6115d4565b610aa388611621565b60408051608080820183525f808352602080840182905283850182905260609384018290528451928301855281835282018190529281019290925260019082015261164f565b506001919050565b5f610a6d6116d6565b5f610474826116f1565b5f81806020019051810190610b199190612f59565b90505f815f0151516001600160401b03811115610b3857610b3861298f565b604051908082528060200260200182016040528015610b61578160200160208202803683370190505b5090505f5b825151811015610bc1578251805182908110610b8457610b84612e5c565b60200260200101515f0151828281518110610ba157610ba1612e5c565b6001600160a01b0390921660209283029190910190910152600101610b66565b505f610bcc82611703565b9050610bf5816040518060400160405280600381526020016210941560ea1b8152506012611953565b610c1881604051806040016040528060018152602001603160f81b81525061196b565b610c42670853a0d2313c0000674563918244f4000064e8d4a5100067016345785d8a00008661197d565b610c4f83602001516119b2565b610c7e30604051602001610c639190612ae3565b604051602081830303815290604052805190602001206119df565b50505050565b60605f82806020019051810190610c9b9190612f59565b60208101518151919250610caf91906119ef565b602080840191909152908252604051610cca918391016130b3565b604051602081830303815290604052915050919050565b5f610a6d611bfd565b60408051600580825260c08201909252606091816020015b60408051606080820183525f808352602083015291810191909152815260200190600190039081610d025790505060408051606081019091526001600160a01b037f0000000000000000000000000000000000000000000000000000000000000000168152909150602081015f81526020017f00000000000000000000000000000000000000000000000000000000000000006001600160a01b031663574a4cff6040518163ffffffff1660e01b81526004015f60405180830381865afa158015610dcf573d5f5f3e3d5ffd5b505050506040513d5f823e601f3d908101601f19168201604052610df6919081019061315b565b815250815f81518110610e0b57610e0b612e5c565b602002602001018190525060405180606001604052807f00000000000000000000000000000000000000000000000000000000000000006001600160a01b031681526020015f6002811115610e6257610e6261288e565b81526020017f00000000000000000000000000000000000000000000000000000000000000006001600160a01b031663574a4cff6040518163ffffffff1660e01b81526004015f60405180830381865afa158015610ec2573d5f5f3e3d5ffd5b505050506040513d5f823e601f3d908101601f19168201604052610ee9919081019061315b565b81525081600181518110610eff57610eff612e5c565b602002602001018190525060405180606001604052807f00000000000000000000000000000000000000000000000000000000000000006001600160a01b031681526020015f6002811115610f5657610f5661288e565b81526020017f00000000000000000000000000000000000000000000000000000000000000006001600160a01b031663574a4cff6040518163ffffffff1660e01b81526004015f60405180830381865afa158015610fb6573d5f5f3e3d5ffd5b505050506040513d5f823e601f3d908101601f19168201604052610fdd919081019061315b565b81525081600281518110610ff357610ff3612e5c565b602002602001018190525060405180606001604052807f00000000000000000000000000000000000000000000000000000000000000006001600160a01b031681526020015f600281111561104a5761104a61288e565b81526020017f00000000000000000000000000000000000000000000000000000000000000006001600160a01b031663574a4cff6040518163ffffffff1660e01b81526004015f60405180830381865afa1580156110aa573d5f5f3e3d5ffd5b505050506040513d5f823e601f3d908101601f191682016040526110d1919081019061315b565b815250816003815181106110e7576110e7612e5c565b602002602001018190525060405180606001604052807f00000000000000000000000000000000000000000000000000000000000000006001600160a01b031681526020015f600281111561113e5761113e61288e565b81526020017f00000000000000000000000000000000000000000000000000000000000000006001600160a01b031663574a4cff6040518163ffffffff1660e01b81526004015f60405180830381865afa15801561119e573d5f5f3e3d5ffd5b505050506040513d5f823e601f3d908101601f191682016040526111c5919081019061315b565b815250816004815181106111db576111db612e5c565b602002602001018190525090565b5f5f828060200190518101906111ff9190612f59565b905061120e84825f0151611c0e565b61121c848260400151611c20565b5060019392505050565b60408051808201909152601b81527a42616c616e63657256335765696768746564506f6f6c4446506b6760281b602082015290565b5f5f828060200190518101906112719190612f59565b80515190915060028110806112865750600881115b156112b557600860028260405163d484b2bd60e01b81526004016112ac939291906131ea565b60405180910390fd5b80826020015151146112eb576020820151516040516307e9b3f360e21b81526112ac918391600401918252602082015260400190565b602082015182516112fb916119ef565b602080850191909152908352604051611316918491016130b3565b60405160208183030381529060405293506113558460405160200161133b9190612cc8565b604051602081830303815290604052805160209091012090565b949350505050565b5f610a6d611c5f565b5f7f00000000000000000000000000000000000000000000000000000000000000006001600160a01b031663e97fac053060405180606001604052808a8a808060200260200160405190810160405280939291908181526020015f905b828210156113ef576113e060808302860136819003810190613200565b815260200190600101906113c3565b505050505081526020018888808060200260200160405190810160405280939291908181526020018383602002808284375f920191909152505050908252506001600160a01b03871660209182015260405161144c9291016130b3565b6040516020818303038152906040526040518363ffffffff1660e01b8152600401611478929190612e70565b6020604051808303815f875af1158015611494573d5f5f3e3d5ffd5b505050506040513d601f19601f820116820180604052508101906114b89190612e9e565b9695505050505050565b5f610a6d611c70565b60608060606114d8611226565b92506114e261047a565b91506114ec610849565b9050909192565b6060610474611500611c8d565b83611cb1565b5f61151b5f356001600160e01b0319166116f1565b9050611528813384611e3e565b611545576040516323dada5360e01b815260040160405180910390fd5b5050565b6115516115c1565b1561156f57604051633ac4266d60e11b815260040160405180910390fd5b565b61156f61157c611c8d565b805460ff19166001179055565b6060610842611596611c8d565b8484611f1f565b5f6104746115a9611c8d565b83611f2f565b6060610a6d6115bc611c8d565b611f3d565b5f610a6d6115cd611c8d565b5460ff1690565b604080516060810182525f80825260208201819052918101829052906115f8611fa1565b604080516060810182526001600160a01b03909216808352602083018190529082015292915050565b5f61047461162d611c8d565b6001600160a01b038085165f9081526007929092016020526040909120541690565b61165887611fc1565b611660611fd2565b6001600160a01b031663eeec802f88888861167961135d565b898989896040518963ffffffff1660e01b81526004016116a0989796959493929190613267565b5f604051808303815f87803b1580156116b7575f5ffd5b505af11580156116c9573d5f5f3e3d5ffd5b5050505050505050505050565b5f610a6d6116e2611c8d565b54610100900463ffffffff1690565b5f6104746116fd612004565b83612028565b6060815160020361182c57815f8151811061172057611720612e5c565b60200260200101516001600160a01b03166306fdde036040518163ffffffff1660e01b81526004015f60405180830381865afa158015611762573d5f5f3e3d5ffd5b505050506040513d5f823e601f3d908101601f19168201604052611789919081019061331d565b8260018151811061179c5761179c612e5c565b60200260200101516001600160a01b03166306fdde036040518163ffffffff1660e01b81526004015f60405180830381865afa1580156117de573d5f5f3e3d5ffd5b505050506040513d5f823e601f3d908101601f19168201604052611805919081019061331d565b6040516020016118169291906133a8565b6040516020818303038152906040529050919050565b60408051808201909152601081526f084ac66aecad2ced0e8cac840decc40560831b60208201525f5b835181101561193c578184828151811061187157611871612e5c565b60200260200101516001600160a01b03166306fdde036040518163ffffffff1660e01b81526004015f60405180830381865afa1580156118b3573d5f5f3e3d5ffd5b505050506040513d5f823e601f3d908101601f191682016040526118da919081019061331d565b6040516020016118eb9291906133f5565b60405160208183030381529060405291506001845161190a919061341d565b81101561193457816040516020016119229190613430565b60405160208183030381529060405291505b600101611855565b5080604051602001610cca919061344e565b919050565b61196661195e612057565b8484846120a2565b505050565b6115456119766120d9565b838361210c565b6119ab7fad058ae2c4fd2dc635a6531cef09fdcc7264c09c1ee65b9e398137189754ce718686868686612173565b5050505050565b6119dc7f0b1f699f9a8cb016dcd6d3f4119ffc688f82df3a97972f71dfa812f53cb486a3826121a1565b50565b6119dc6119ea612004565b829055565b6060808251845114611a355760405162461bcd60e51b815260206004820152600f60248201526e098cadccee8d040dad2e6dac2e8c6d608b1b60448201526064016112ac565b50829050815f60015b8351811015611bf3575f9150815b818551611a59919061341d565b811015611bde57848181518110611a7257611a72612e5c565b60200260200101515f01516001600160a01b031685826001611a94919061346a565b81518110611aa457611aa4612e5c565b60200260200101515f01516001600160a01b03161015611bd6575f858281518110611ad157611ad1612e5c565b6020026020010151905085826001611ae9919061346a565b81518110611af957611af9612e5c565b6020026020010151868381518110611b1357611b13612e5c565b60209081029190910101528086611b2b84600161346a565b81518110611b3b57611b3b612e5c565b60200260200101819052505f858381518110611b5957611b59612e5c565b6020026020010151905085836001611b71919061346a565b81518110611b8157611b81612e5c565b6020026020010151868481518110611b9b57611b9b612e5c565b60209081029190910101528086611bb385600161346a565b81518110611bc357611bc3612e5c565b6020026020010181815250506001945050505b600101611a4c565b5081611beb575050611bf6565b600101611a3e565b50505b9250929050565b5f610a6d611c09611c8d565b612273565b611545611c19611c8d565b838361227f565b611545611c2b611c8d565b6001600160a01b038085165f908152600792909201602052604090912080546001600160a01b031916918416919091179055565b5f610a6d611c6b611c8d565b612497565b5f610a6d611c7c611c8d565b54600160281b900463ffffffff1690565b7f083b184f81c44d1555bdab2b99aeea4d11b107caca4883125bcb0b412d1f813290565b6001600160a01b0381165f908152600383016020526040902060010154606090806001600160401b03811115611ce957611ce961298f565b604051908082528060200260200182016040528015611d3957816020015b604080516080810182525f8082526020808301829052928201819052606082015282525f19909201910181611d075790505b5091505f5b81811015611e36576001600160a01b0384165f9081526003860160205260408120611d6990836124c4565b604080516080810182526001600160a01b038084168083529089165f90815260048b0160209081528482209282529182529290922054929350919082019060ff166001811115611dbb57611dbb61288e565b81526001600160a01b038088165f81815260058b0160209081526040808320888616808552908352818420549095168287015292825260068c01815282822093825292909252908190205460ff1615159101528451859084908110611e2257611e22612e5c565b602090810291909101015250600101611d3e565b505092915050565b5f611e47611fd2565b6001600160a01b031663aaabadc56040518163ffffffff1660e01b8152600401602060405180830381865afa158015611e82573d5f5f3e3d5ffd5b505050506040513d601f19601f82011682018060405250810190611ea69190612e9e565b6040516326f8aa2160e21b8152600481018690526001600160a01b03858116602483015284811660448301529190911690639be2a88490606401602060405180830381865afa158015611efb573d5f5f3e3d5ffd5b505050506040513d601f19601f82011682018060405250810190611355919061347d565b6060611355600185018484612506565b5f6108426001840183612614565b606060028201805480602002602001604051908101604052809291908181526020018280548015611f9557602002820191905f5260205f20905b81546001600160a01b03168152600190910190602001808311611f77575b50505050509050919050565b5f610a6d611fad611c8d565b54600160481b90046001600160a01b031690565b6119dc611fcc611c8d565b82612631565b5f610a6d7f392e49ca1983749c4549242b814e6592e6c2354a2bb55242596ce0ad2e7b1001546001600160a01b031690565b7f82340927aad1ca6b5f8bb0037567f287e1bec629ab302d4e1debbc0d7543b1f890565b5f610842612034845490565b6040805160208101929092526001600160e01b031985169082015260440161133b565b5f610a6d604051602001612089906020808252600a908201526906569702e6572632e32360b41b604082015260600190565b6040516020818303038152906040528051906020012090565b836120ad8482613514565b50600184016120bc8382613514565b50600293909301805460ff191660ff909416939093179092555050565b5f610a6d604051602001612089906020808252600b908201526a32b4b81732b4b8171b989960a91b604082015260600190565b612119826007850161263e565b600584015561212b816008850161263e565b600684015581516020808401919091206003850155815190820120600484015546600184015561215a8361269b565b8355505060020180546001600160a01b03191630179055565b84865560018601849055600286018390556003860182905561219860048701826126f5565b50505050505050565b6002815110156121c45760405163f846d15360e01b815260040160405180910390fd5b5f805b8251811015612238578281815181106121e2576121e2612e5c565b60200260200101515f03612209576040516319a2a9bd60e01b815260040160405180910390fd5b82818151811061221b5761221b612e5c565b60200260200101518261222e919061346a565b91506001016121c7565b50670de0b6b3a764000081146122615760405163e6d31c7960e01b815260040160405180910390fd5b8151610c7e90849060208501906127f7565b60028101545f90610474565b5f5b8151811015610c7e576122cc82828151811061229f5761229f612e5c565b602090810291909101810151516001600160a01b0386165f90815260038801909252604090912090612736565b508181815181106122df576122df612e5c565b602002602001015160400151846005015f856001600160a01b03166001600160a01b031681526020019081526020015f205f84848151811061232357612323612e5c565b60200260200101515f01516001600160a01b03166001600160a01b031681526020019081526020015f205f6101000a8154816001600160a01b0302191690836001600160a01b0316021790555081818151811061238257612382612e5c565b602002602001015160200151846004015f856001600160a01b03166001600160a01b031681526020019081526020015f205f8484815181106123c6576123c6612e5c565b602090810291909101810151516001600160a01b031682528101919091526040015f20805460ff1916600183818111156124025761240261288e565b021790555081818151811061241957612419612e5c565b602002602001015160600151846006015f856001600160a01b03166001600160a01b031681526020019081526020015f205f84848151811061245d5761245d612e5c565b602090810291909101810151516001600160a01b031682528101919091526040015f20805460ff1916911515919091179055600101612281565b5f5f6124af835463ffffffff600160281b9091041690565b90508063ffffffff164210610474575f610842565b60018201545f906124d59083612792565b508260010182815481106124eb576124eb612e5c565b5f918252602090912001546001600160a01b03169392505050565b6060828210156125335760405163dc78128f60e01b815260048101849052602481018390526044016112ac565b5f61253f856001015490565b905061254b8185612792565b506125568184612792565b505f612562858561341d565b61256d90600161346a565b9050806001600160401b038111156125875761258761298f565b6040519080825280602002602001820160405280156125b0578160200160208202803683370190505b5092505f855b858111612609576125c788826124c4565b8583815181106125d9576125d9612e5c565b6001600160a01b039092166020928302919091019091015260019091019080612601816135ce565b9150506125b6565b505050509392505050565b6001600160a01b03165f9081526020919091526040902054151590565b6119666001830182612736565b5f60208351101561265957612652836127ba565b9050610474565b825160018160011b178355825f5260205f20602085015f5b8381101561268d5781810151600582901c840155602001612671565b5060ff935061047492505050565b60038101546004820154604080517f8b73c3c69bb8fe3d512ecc4cf759cc79239f7b179b0ffacaa9a75d522b39400f60208201529081019290925260608201524660808201523060a08201525f906104749060c00161133b565b5f805b825181101561121c5761272d83828151811061271657612716612e5c565b60200260200101518561273690919063ffffffff16565b506001016126f8565b5f6127418383612614565b612789576001838101805491820181555f818152602080822090930180546001600160a01b0319166001600160a01b0387169081179091559154918152918590526040909120555b50600192915050565b5f8183116127895782826032604051635400feb960e01b81526004016112ac939291906131ea565b5f5f829050601f815111156127e4578260405163305a27a960e01b81526004016112ac9190612cc8565b80516127ef826135e6565b179392505050565b828054828255905f5260205f20908101928215612830579160200282015b82811115612830578251825591602001919060010190612815565b5061283c929150612840565b5090565b5b8082111561283c575f8155600101612841565b6001600160a01b03811681146119dc575f5ffd5b803561194e81612854565b5f60208284031215612883575f5ffd5b813561084281612854565b634e487b7160e01b5f52602160045260245ffd5b80516001600160a01b0316825260208101515f90600281106128c6576128c661288e565b6020840152506040818101516001600160a01b03169083015260609081015115159082015260800190565b5f8151808452602084019350602083015f5b82811015612927576129168683516128a2565b955060209190910190600101612903565b5093949350505050565b602081525f61084260208301846128f1565b5f8151808452602084019350602083015f5b828110156129275781516001600160e01b031916865260209586019590910190600101612955565b602081525f6108426020830184612943565b634e487b7160e01b5f52604160045260245ffd5b604051606081016001600160401b03811182821017156129c5576129c561298f565b60405290565b604051608081016001600160401b03811182821017156129c5576129c561298f565b604051601f8201601f191681016001600160401b0381118282101715612a1557612a1561298f565b604052919050565b5f6001600160401b03821115612a3557612a3561298f565b50601f01601f191660200190565b5f82601f830112612a52575f5ffd5b8135612a65612a6082612a1d565b6129ed565b818152846020838601011115612a79575f5ffd5b816020850160208301375f918101602001919091529392505050565b5f5f60408385031215612aa6575f5ffd5b82356001600160401b03811115612abb575f5ffd5b612ac785828601612a43565b95602094909401359450505050565b6001600160a01b03169052565b6001600160a01b0391909116815260200190565b5f8151808452602084019350602083015f5b828110156129275781516001600160a01b0316865260209586019590910190600101612b09565b602081525f6108426020830184612af7565b5f5f60408385031215612b53575f5ffd5b50508035926020909101359150565b5f82825180855260208501945060208160051b830101602085015f5b83811015612bec57848303601f19018852815180516001600160a01b03168452602081015160038110612bb357612bb361288e565b806020860152506040810151905060606040850152612bd56060850182612943565b6020998a0199909450929092019150600101612b7e565b50909695505050505050565b602081525f825160406020840152612c136060840182612b62565b90506020840151601f19848303016040850152612c308282612943565b95945050505050565b6001600160e01b0319811681146119dc575f5ffd5b5f60208284031215612c5e575f5ffd5b813561084281612c39565b5f60208284031215612c79575f5ffd5b81356001600160401b03811115612c8e575f5ffd5b61135584828501612a43565b5f81518084528060208401602086015e5f602082860101526020601f19601f83011685010191505092915050565b602081525f6108426020830184612c9a565b602081525f6108426020830184612b62565b5f5f60408385031215612cfd575f5ffd5b8235612d0881612854565b915060208301356001600160401b03811115612d22575f5ffd5b612d2e85828601612a43565b9150509250929050565b5f5f83601f840112612d48575f5ffd5b5081356001600160401b03811115612d5e575f5ffd5b6020830191508360208260051b8501011115611bf6575f5ffd5b5f5f5f5f5f60608688031215612d8c575f5ffd5b85356001600160401b03811115612da1575f5ffd5b8601601f81018813612db1575f5ffd5b80356001600160401b03811115612dc6575f5ffd5b8860208260071b8401011115612dda575f5ffd5b6020918201965094508601356001600160401b03811115612df9575f5ffd5b612e0588828901612d38565b9094509250612e18905060408701612868565b90509295509295909350565b606081525f612e366060830186612c9a565b8281036020840152612e488186612943565b905082810360408401526114b88185612af7565b634e487b7160e01b5f52603260045260245ffd5b6001600160a01b03831681526040602082018190525f9061135590830184612c9a565b805161194e81612854565b5f60208284031215612eae575f5ffd5b815161084281612854565b5f6001600160401b03821115612ed157612ed161298f565b5060051b60200190565b600281106119dc575f5ffd5b80151581146119dc575f5ffd5b5f82601f830112612f03575f5ffd5b8151612f11612a6082612eb9565b8082825260208201915060208360051b860101925085831115612f32575f5ffd5b602085015b83811015612f4f578051835260209283019201612f37565b5095945050505050565b5f60208284031215612f69575f5ffd5b81516001600160401b03811115612f7e575f5ffd5b820160608185031215612f8f575f5ffd5b612f976129a3565b81516001600160401b03811115612fac575f5ffd5b8201601f81018613612fbc575f5ffd5b8051612fca612a6082612eb9565b8082825260208201915060208360071b850101925088831115612feb575f5ffd5b6020840193505b8284101561306b576080848a031215613009575f5ffd5b6130116129cb565b845161301c81612854565b8152602085015161302c81612edb565b6020820152604085015161303f81612854565b6040820152606085015161305281612ee7565b6060820152825260809390930192602090910190612ff2565b845250505060208201516001600160401b03811115613088575f5ffd5b61309486828501612ef4565b6020830152506130a660408301612e93565b6040820152949350505050565b602080825282516060838301528051608084018190525f929190910190829060a08501905b808310156130fe576130eb8285516128a2565b91506020840193506001830192506130d8565b50602086810151868303601f1901604088015280518084529082019450910191505f905b808210156131455783518352602083019250602084019350600182019150613122565b5050604085015191506113556060850183612ad6565b5f6020828403121561316b575f5ffd5b81516001600160401b03811115613180575f5ffd5b8201601f81018413613190575f5ffd5b805161319e612a6082612eb9565b8082825260208201915060208360051b8501019250868311156131bf575f5ffd5b6020840193505b828410156114b85783516131d981612c39565b8252602093840193909101906131c6565b9283526020830191909152604082015260600190565b5f6080828403128015613211575f5ffd5b5061321a6129cb565b823561322581612854565b8152602083013561323581612edb565b6020820152604083013561324881612854565b6040820152606083013561325b81612ee7565b60608201529392505050565b6001600160a01b03891681526101a0602082018190525f9061328b9083018a6128f1565b60408381018a905263ffffffff89166060850152871515608085015286516001600160a01b0390811660a08601526020880151811660c0860152908701511660e084015290506132df610100830185612ad6565b825115156101208301526020830151151561014083015260408301511515610160830152606083015115156101808301529998505050505050505050565b5f6020828403121561332d575f5ffd5b81516001600160401b03811115613342575f5ffd5b8201601f81018413613352575f5ffd5b8051613360612a6082612a1d565b818152856020838501011115613374575f5ffd5b8160208401602083015e5f91810160200191909152949350505050565b5f81518060208401855e5f93019283525090919050565b6f084ac66aecad2ced0e8cac840decc40560831b81525f6133cc6010830185613391565b6201017960ed1b81526133e26003820185613391565b602960f81b815260010195945050505050565b5f6113556134038386613391565b84613391565b634e487b7160e01b5f52601160045260245ffd5b8181038181111561047457610474613409565b5f61343b8284613391565b6201017960ed1b81526003019392505050565b5f6134598284613391565b602960f81b81526001019392505050565b8082018082111561047457610474613409565b5f6020828403121561348d575f5ffd5b815161084281612ee7565b600181811c908216806134ac57607f821691505b6020821081036134ca57634e487b7160e01b5f52602260045260245ffd5b50919050565b601f82111561196657805f5260205f20601f840160051c810160208510156134f55750805b601f840160051c820191505b818110156119ab575f8155600101613501565b81516001600160401b0381111561352d5761352d61298f565b6135418161353b8454613498565b846134d0565b6020601f821160018114613573575f831561355c5750848201515b5f19600385901b1c1916600184901b1784556119ab565b5f84815260208120601f198516915b828110156135a25787850151825560209485019460019092019101613582565b50848210156135bf57868401515f19600387901b60f8161c191681555b50505050600190811b01905550565b5f600182016135df576135df613409565b5060010190565b805160208083015191908110156134ca575f1960209190910360031b1b1691905056fea26469706673582212204f854ea602fb3ff117e027d92f72793e1175bce1fc88ae60fcce1123051ffdbd64736f6c634300081e0033","linkReferences":{}},"methodIdentifiers":{"BALANCER_V3_AUTHENTICATION_FACET()":"f0703325","BALANCER_V3_VAULT()":"a4c01bbb","BALANCER_V3_VAULT_AWARE_FACET()":"90d8c705","BALANCER_V3_WEIGHTED_POOL_FACET()":"78c39a6e","BETTER_BALANCER_V3_POOL_TOKEN_FACET()":"a378544d","DEFAULT_POOL_INFO_FACET()":"a2bebeb2","DIAMOND_PACKAGE_FACTORY()":"ab6046ed","calcSalt(bytes)":"d82be56e","deployPool((address,uint8,address,bool)[],uint256[],address)":"e537bf60","diamondConfig()":"65d375b3","disable()":"2f2770db","facetAddresses()":"52ef6b2c","facetCuts()":"a4b3ad35","facetInterfaces()":"2ea80826","getActionId(bytes4)":"851c1bb3","getDeploymentAddress(bytes,bytes32)":"44f6fec7","getNewPoolPauseWindowEndTime()":"db035ebc","getOriginalPauseWindowEndTime()":"e9d56e19","getPauseWindowDuration()":"78da80cb","getPoolCount()":"8eec5d70","getPools()":"673a2a1f","getPoolsInRange(uint256,uint256)":"53a72f7e","initAccount(bytes)":"870d4838","isDisabled()":"6c57f5a9","isPoolFromFactory(address)":"6634b753","packageMetadata()":"f45469e7","packageName()":"abc8b346","postDeploy(address)":"70068fcf","processArgs(bytes)":"87c3adb3","tokenConfigs(address)":"1b69dc5f","updatePkg(address,bytes)":"a9089235"},"id":881}