{"abi":[{"type":"constructor","inputs":[{"name":"_WETH9","type":"address","internalType":"address"},{"name":"_nativeCurrencyLabelBytes","type":"bytes32","internalType":"bytes32"}],"stateMutability":"nonpayable"},{"type":"function","name":"WETH9","inputs":[],"outputs":[{"name":"","type":"address","internalType":"address"}],"stateMutability":"view"},{"type":"function","name":"flipRatio","inputs":[{"name":"token0","type":"address","internalType":"address"},{"name":"token1","type":"address","internalType":"address"},{"name":"chainId","type":"uint256","internalType":"uint256"}],"outputs":[{"name":"","type":"bool","internalType":"bool"}],"stateMutability":"view"},{"type":"function","name":"nativeCurrencyLabel","inputs":[],"outputs":[{"name":"","type":"string","internalType":"string"}],"stateMutability":"view"},{"type":"function","name":"nativeCurrencyLabelBytes","inputs":[],"outputs":[{"name":"","type":"bytes32","internalType":"bytes32"}],"stateMutability":"view"},{"type":"function","name":"tokenRatioPriority","inputs":[{"name":"token","type":"address","internalType":"address"},{"name":"chainId","type":"uint256","internalType":"uint256"}],"outputs":[{"name":"","type":"int256","internalType":"int256"}],"stateMutability":"view"},{"type":"function","name":"tokenURI","inputs":[{"name":"positionManager","type":"address","internalType":"contract INonfungiblePositionManager"},{"name":"tokenId","type":"uint256","internalType":"uint256"}],"outputs":[{"name":"","type":"string","internalType":"string"}],"stateMutability":"view"}],"bytecode":{"object":"0x60c060405234801561000f575f5ffd5b5060405161732338038061732383398101604081905261002e91610044565b6001600160a01b0390911660805260a05261007b565b5f5f60408385031215610055575f5ffd5b82516001600160a01b038116811461006b575f5ffd5b6020939093015192949293505050565b60805160a0516172666100bd5f395f818160f1015281816102aa015261035401525f818160690152818161015c015281816105c7015261061b01526172665ff3fe608060405234801561000f575f5ffd5b5060043610610060575f3560e01c80634aa4a4fc146100645780637e5af771146100a85780639d7b0ea8146100cb578063a18246e2146100ec578063b7af3cdc14610113578063e9dc637514610128575b5f5ffd5b61008b7f000000000000000000000000000000000000000000000000000000000000000081565b6040516001600160a01b0390911681526020015b60405180910390f35b6100bb6100b6366004610df8565b61013b565b604051901515815260200161009f565b6100de6100d9366004610e36565b610159565b60405190815260200161009f565b6100de7f000000000000000000000000000000000000000000000000000000000000000081565b61011b610299565b60405161009f9190610e8e565b61011b610136366004610e36565b6103bf565b5f6101468383610159565b6101508584610159565b13949350505050565b5f7f00000000000000000000000000000000000000000000000000000000000000006001600160a01b0316836001600160a01b03160361019c5750606319610293565b816001036102905773a0b86991c6218b36c1d19d4a2e9eb0ce3606eb47196001600160a01b038416016101d2575061012c610293565b73dac17f958d2ee523a2206206994597c13d831ec6196001600160a01b038416016101ff575060c8610293565b736b175474e89094c44da98b954eedeac495271d0e196001600160a01b0384160161022c57506064610293565b738daebade922df735c38c80c7ebd708af50815fa9196001600160a01b0384160161025a575060c719610293565b732260fac5e5542a773aa44fbcfedf7c193bc2c598196001600160a01b03841601610289575061012b19610293565b505f610293565b505f5b92915050565b60605f5b6020811080156102eb57507f000000000000000000000000000000000000000000000000000000000000000081602081106102da576102da610ea0565b1a60f81b6001600160f81b03191615155b1561030257806102fa81610ec8565b91505061029d565b5f816001600160401b0381111561031b5761031b610ee0565b6040519080825280601f01601f191660200182016040528015610345576020820181803683370190505b5090505f5b828110156103b8577f0000000000000000000000000000000000000000000000000000000000000000816020811061038457610384610ea0565b1a60f81b82828151811061039a5761039a610ea0565b60200101906001600160f81b03191690815f1a90535060010161034a565b5092915050565b60605f5f5f5f5f876001600160a01b03166399fbab88886040518263ffffffff1660e01b81526004016103f491815260200190565b61018060405180830381865afa158015610410573d5f5f3e3d5ffd5b505050506040513d601f19601f820116820180604052508101906104349190610f38565b50505050509650965096509650965050505f6104e0896001600160a01b031663c45a01556040518163ffffffff1660e01b8152600401602060405180830381865afa158015610485573d5f5f3e3d5ffd5b505050506040513d601f19601f820116820180604052508101906104a9919061100d565b6040518060600160405280896001600160a01b03168152602001886001600160a01b031681526020018762ffffff1681525061084e565b90505f6104ee87874661013b565b90505f81156104fd57876104ff565b865b90505f821561050e5787610510565b885b90505f846001600160a01b0316633850c7bd6040518163ffffffff1660e01b815260040160e060405180830381865afa15801561054f573d5f5f3e3d5ffd5b505050506040513d601f19601f820116820180604052508101906105739190611049565b505050505091505073__$9846fe85dfaa8a2520a043359961a27e70$__63c49917d7604051806101c001604052808f8152602001866001600160a01b03168152602001856001600160a01b031681526020017f00000000000000000000000000000000000000000000000000000000000000006001600160a01b0316876001600160a01b03161461060c576106078761094e565b610614565b610614610299565b81526020017f00000000000000000000000000000000000000000000000000000000000000006001600160a01b0316866001600160a01b0316146106605761065b8661094e565b610668565b610668610299565b8152602001866001600160a01b031663313ce5676040518163ffffffff1660e01b8152600401602060405180830381865afa1580156106a9573d5f5f3e3d5ffd5b505050506040513d601f19601f820116820180604052508101906106cd91906110d4565b60ff168152602001856001600160a01b031663313ce5676040518163ffffffff1660e01b8152600401602060405180830381865afa158015610711573d5f5f3e3d5ffd5b505050506040513d601f19601f8201168201806040525081019061073591906110d4565b60ff16815260200187151581526020018a60020b81526020018960020b81526020018460020b8152602001886001600160a01b031663d0c93a7c6040518163ffffffff1660e01b8152600401602060405180830381865afa15801561079c573d5f5f3e3d5ffd5b505050506040513d601f19601f820116820180604052508101906107c091906110ed565b60020b81526020018b62ffffff168152602001886001600160a01b03168152506040518263ffffffff1660e01b81526004016107fc9190611106565b5f60405180830381865af4158015610816573d5f5f3e3d5ffd5b505050506040513d5f823e601f3d908101601f1916820160405261083d9190810190611231565b9d9c50505050505050505050505050565b5f81602001516001600160a01b0316825f01516001600160a01b031610610873575f5ffd5b815160208084015160408086015181516001600160a01b0395861694810194909452939091169082015262ffffff9091166060820152839060800160405160208183030381529060405280519060200120604051806020016108d490610dc7565b6020820181038252601f19601f820116604052508051906020012060405160200161092f939291906001600160f81b0319815260609390931b6001600160601b03191660018401526015830191909152603582015260550190565b60408051601f1981840301815291905280516020909101209392505050565b60605f610962836395d89b4160e01b61097c565b905080515f036102935761097583610aa1565b9392505050565b60408051600481526024810182526020810180516001600160e01b03166001600160e01b0319851617905290516060915f9182916001600160a01b038716916109c591906112e1565b5f60405180830381855afa9150503d805f81146109fd576040519150601f19603f3d011682016040523d82523d5f602084013e610a02565b606091505b5091509150811580610a1357508051155b15610a305760405180602001604052805f81525092505050610293565b8051602003610a63575f81806020019051810190610a4e91906112f7565b9050610a5981610aae565b9350505050610293565b604081511115610a8a5780806020019051810190610a819190611231565b92505050610293565b505060408051602081019091525f81529392505050565b6060610293826006610bee565b6040805160208082528183019092526060915f91906020820181803683370190505090505f805b6020811015610b47575f858260208110610af157610af1610ea0565b1a60f81b90506001600160f81b0319811615610b3e5780848481518110610b1a57610b1a610ea0565b60200101906001600160f81b03191690815f1a90535082610b3a81610ec8565b9350505b50600101610ad5565b505f816001600160401b03811115610b6157610b61610ee0565b6040519080825280601f01601f191660200182016040528015610b8b576020820181803683370190505b5090505f5b82811015610be557838181518110610baa57610baa610ea0565b602001015160f81c60f81b828281518110610bc757610bc7610ea0565b60200101906001600160f81b03191690815f1a905350600101610b90565b50949350505050565b6060610bfb600283611322565b158015610c0757505f82115b8015610c14575060288211155b610c645760405162461bcd60e51b815260206004820152601e60248201527f41646472657373537472696e675574696c3a20494e56414c49445f4c454e0000604482015260640160405180910390fd5b5f826001600160401b03811115610c7d57610c7d610ee0565b6040519080825280601f01601f191660200182016040528015610ca7576020820181803683370190505b5090506001600160a01b0384165f5b610cc1600286611335565b811015610d8c575f610cd4826013611348565b610cdf90600861135b565b83901c9050600f600482901c165f610cfa60f0841684611372565b9050610d0582610d96565b86610d1186600261135b565b81518110610d2157610d21610ea0565b60200101906001600160f81b03191690815f1a905350610d4081610d96565b86610d4c86600261135b565b610d5790600161138b565b81518110610d6757610d67610ea0565b60200101906001600160f81b03191690815f1a9053505060019092019150610cb69050565b5090949350505050565b5f600a8260ff161015610db757610dae82603061139e565b60f81b92915050565b610dae82603761139e565b919050565b615e79806113b883390190565b6001600160a01b03169052565b6001600160a01b0381168114610df5575f5ffd5b50565b5f5f5f60608486031215610e0a575f5ffd5b8335610e1581610de1565b92506020840135610e2581610de1565b929592945050506040919091013590565b5f5f60408385031215610e47575f5ffd5b8235610e5281610de1565b946020939093013593505050565b5f81518084528060208401602086015e5f602082860101526020601f19601f83011685010191505092915050565b602081525f6109756020830184610e60565b634e487b7160e01b5f52603260045260245ffd5b634e487b7160e01b5f52601160045260245ffd5b5f60018201610ed957610ed9610eb4565b5060010190565b634e487b7160e01b5f52604160045260245ffd5b8051610dc281610de1565b805162ffffff81168114610dc2575f5ffd5b8051600281900b8114610dc2575f5ffd5b80516001600160801b0381168114610dc2575f5ffd5b5f5f5f5f5f5f5f5f5f5f5f5f6101808d8f031215610f54575f5ffd5b8c516001600160601b0381168114610f6a575f5ffd5b9b50610f7860208e01610ef4565b9a50610f8660408e01610ef4565b9950610f9460608e01610ef4565b9850610fa260808e01610eff565b9750610fb060a08e01610f11565b9650610fbe60c08e01610f11565b9550610fcc60e08e01610f22565b6101008e01516101208f015191965094509250610fec6101408e01610f22565b9150610ffb6101608e01610f22565b90509295989b509295989b509295989b565b5f6020828403121561101d575f5ffd5b815161097581610de1565b805161ffff81168114610dc2575f5ffd5b805160ff81168114610dc2575f5ffd5b5f5f5f5f5f5f5f60e0888a03121561105f575f5ffd5b875161106a81610de1565b965061107860208901610f11565b955061108660408901611028565b945061109460608901611028565b93506110a260808901611028565b92506110b060a08901611039565b915060c088015180151581146110c4575f5ffd5b8091505092959891949750929550565b5f602082840312156110e4575f5ffd5b61097582611039565b5f602082840312156110fd575f5ffd5b61097582610f11565b60208152815160208201525f60208301516111246040840182610dd4565b5060408301516111376060840182610dd4565b5060608301516101c060808401526111536101e0840182610e60565b90506080840151601f198483030160a08501526111708282610e60565b91505060a084015161118760c085018260ff169052565b5060c084015160ff811660e08501525060e0840151801515610100850152506101008401516111bc61012085018260020b9052565b506101208401516111d361014085018260020b9052565b506101408401516111ea61016085018260020b9052565b5061016084015161120161018085018260020b9052565b5061018084015162ffffff81166101a0850152506101a08401516112296101c0850182610dd4565b509392505050565b5f60208284031215611241575f5ffd5b81516001600160401b03811115611256575f5ffd5b8201601f81018413611266575f5ffd5b80516001600160401b0381111561127f5761127f610ee0565b604051601f8201601f19908116603f011681016001600160401b03811182821017156112ad576112ad610ee0565b6040528181528282016020018610156112c4575f5ffd5b8160208401602083015e5f91810160200191909152949350505050565b5f82518060208501845e5f920191825250919050565b5f60208284031215611307575f5ffd5b5051919050565b634e487b7160e01b5f52601260045260245ffd5b5f826113305761133061130e565b500690565b5f826113435761134361130e565b500490565b8181038181111561029357610293610eb4565b808202811582820484141761029357610293610eb4565b60ff828116828216039081111561029357610293610eb4565b8082018082111561029357610293610eb4565b60ff818116838216019081111561029357610293610eb456fe610160604052348015610010575f5ffd5b503060805260408051630890357360e41b815290515f91339163890357309160048082019260a0929091908290030181865afa158015610052573d5f5f3e3d5ffd5b505050506040513d601f19601f820116820180604052508101906100769190610163565b62ffffff909116610100526001600160a01b0391821660e05291811660c0529190911660a052600281900b6101205290506100b0816100c3565b6001600160801b031661014052506102f2565b5f80826100d481620d89e719610200565b6100de9190610238565b90505f83806100f0620d89e71961025e565b6100fa9190610200565b6101049190610238565b90505f84610112848461027e565b61011c9190610200565b6101279060016102a9565b905061013f62ffffff82166001600160801b036102c4565b95945050505050565b80516001600160a01b038116811461015e575f5ffd5b919050565b5f5f5f5f5f60a08688031215610177575f5ffd5b61018086610148565b945061018e60208701610148565b935061019c60408701610148565b9250606086015162ffffff811681146101b3575f5ffd5b8092505060808601518060020b81146101ca575f5ffd5b809150509295509295909350565b634e487b7160e01b5f52601260045260245ffd5b634e487b7160e01b5f52601160045260245ffd5b5f8160020b8360020b80610216576102166101d8565b627fffff1982145f198214161561022f5761022f6101ec565b90059392505050565b5f8260020b8260020b028060020b9150808214610257576102576101ec565b5092915050565b5f8160020b627fffff198103610276576102766101ec565b5f0392915050565b600282810b9082900b03627fffff198112627fffff821317156102a3576102a36101ec565b92915050565b62ffffff81811683821601908111156102a3576102a36101ec565b5f6001600160801b038316806102dc576102dc6101d8565b6001600160801b03929092169190910492915050565b60805160a05160c05160e051610100516101205161014051615aaa6103cf5f395f81816103f6015281816145a001526145d701525f81816104df015281816109670152818161460b015261463d01525f818161054001528181610a650152818161167801526116ae01525f8181610519015281816110720152818161172f01528181611be2015281816120c501526138e301525f818161014501528181611145015281816116fe01528181611b550152818161200e01526137dc01525f81816104b801528181611cde0152611ea701525f6126dc0152615aaa5ff3fe608060405234801561000f575f5ffd5b506004361061013c575f3560e01c80630dfe168114610140578063128acb081461017d5780631a686502146101a55780631ad8b03b146101d0578063252c09d7146101fc57806332148f67146102495780633850c7bd1461025e5780633c8a7d8d146103025780634614131914610315578063490e6cbc1461032c5780634f1eb3d81461033f578063514ea4bf146103525780635339c296146103d257806370cf754a146103f15780638206a4d11461041857806385b667291461042b578063883bdbfd1461043e578063a34123a71461045f578063a38807f214610472578063c45a0155146104b3578063d0c93a7c146104da578063d21220a714610514578063ddca3f431461053b578063f305839914610576578063f30dba931461057f578063f637731d14610652575b5f5ffd5b6101677f000000000000000000000000000000000000000000000000000000000000000081565b60405161017491906150ad565b60405180910390f35b61019061018b366004615122565b610665565b60408051928352602083019190915201610174565b6004546101b8906001600160801b031681565b6040516001600160801b039091168152602001610174565b6003546101ee906001600160801b0380821691600160801b90041682565b6040516101749291906151a1565b61020f61020a3660046151bb565b61129d565b6040805163ffffffff909516855260069390930b60208501526001600160a01b039091169183019190915215156060820152608001610174565b61025c6102573660046151d2565b6112e1565b005b5f546102b1906001600160a01b03811690600160a01b810460020b9061ffff600160b81b8204811691600160c81b8104821691600160d81b8204169060ff600160e81b8204811691600160f01b90041687565b604080516001600160a01b03909816885260029690960b602088015261ffff94851695870195909552918316606086015291909116608084015260ff1660a0830152151560c082015260e001610174565b61019061031036600461521a565b6113ba565b61031e60025481565b604051908152602001610174565b61025c61033a366004615264565b6115f8565b6101ee61034d3660046152c8565b611a4a565b61039c6103603660046151bb565b60076020525f908152604090208054600182015460028301546003909301546001600160801b0392831693919281811691600160801b90041685565b604080516001600160801b039687168152602081019590955284019290925283166060830152909116608082015260a001610174565b61031e6103e036600461532b565b60066020525f908152604090205481565b6101b87f000000000000000000000000000000000000000000000000000000000000000081565b61025c61042636600461535b565b611c90565b6101ee61043936600461538c565b611e56565b61045161044c3660046153ce565b61215d565b60405161017492919061543d565b61019061046d3660046154c9565b6121e3565b6104856104803660046154f2565b612364565b6040805160069490940b84526001600160a01b03909216602084015263ffffffff1690820152606001610174565b6101677f000000000000000000000000000000000000000000000000000000000000000081565b6105017f000000000000000000000000000000000000000000000000000000000000000081565b60405160029190910b8152602001610174565b6101677f000000000000000000000000000000000000000000000000000000000000000081565b6105627f000000000000000000000000000000000000000000000000000000000000000081565b60405162ffffff9091168152602001610174565b61031e60015481565b6105f661058d36600461551a565b60056020525f908152604090208054600182015460028301546003909301546001600160801b03831693600160801b909304600f0b9290600681900b90600160381b81046001600160a01b031690600160d81b810463ffffffff1690600160f81b900460ff1688565b604080516001600160801b039099168952600f9790970b602089015295870194909452606086019290925260060b60808501526001600160a01b031660a084015263ffffffff1660c0830152151560e082015261010001610174565b61025c610660366004615533565b61259a565b5f5f61066f6126d1565b855f036106a85760405162461bcd60e51b8152602060048201526002602482015261415360f01b60448201526064015b60405180910390fd5b6040805160e0810182525f546001600160a01b0381168252600160a01b810460020b602083015261ffff600160b81b8204811693830193909352600160c81b810483166060830152600160d81b8104909216608082015260ff600160e81b8304811660a0830152600160f01b909204909116151560c0820181905261073f5760405162461bcd60e51b815260040161069f9061554e565b8761078957805f01516001600160a01b0316866001600160a01b0316118015610784575073fffd8963efd1fc6a506488495d951d5263988d266001600160a01b038716105b6107ba565b805f01516001600160a01b0316866001600160a01b03161080156107ba57506401000276a36001600160a01b038716115b6107ec5760405162461bcd60e51b815260206004820152600360248201526214d41360ea1b604482015260640161069f565b5f805460ff60f01b191681556040805160c08101909152808a61081a5760048460a0015160ff16901c61082b565b60108460a0015161082b919061557f565b60ff1681526004546001600160801b031660208201526040014263ffffffff1681526020015f60060b81526020015f6001600160a01b031681526020015f151581525090505f5f891390505f6040518060e001604052808b81526020015f8152602001855f01516001600160a01b03168152602001856020015160020b81526020018c6108ba576002546108be565b6001545b81526020015f6001600160801b0316815260200184602001516001600160801b031681525090505b80511580159061090c5750886001600160a01b031681604001516001600160a01b031614155b15610e24576040805160e0810182525f80825260208201819052918101829052606081018290526080810182905260a0810182905260c081019190915260408201516001600160a01b03168152606082015161098c906006907f00000000000000000000000000000000000000000000000000000000000000008f612707565b1515604083015260020b60208201819052620d89e71913156109b757620d89e71960208201526109eb565b6109c4620d89e7196155b4565b60020b816020015160020b13156109eb576109e2620d89e7196155b4565b60020b60208201525b6109f881602001516128bc565b6001600160a01b031660608201526040820151610a89908d610a32578b6001600160a01b031683606001516001600160a01b031611610a4c565b8b6001600160a01b031683606001516001600160a01b0316105b610a5a578260600151610a5c565b8b5b60c085015185517f0000000000000000000000000000000000000000000000000000000000000000612cca565b60c085015260a084015260808301526001600160a01b031660408301528215610b0157610ac88160c001518260800151610ac391906155d4565b612edf565b82518390610ad79083906155e7565b90525060a0810151610af790610aec90612edf565b602084015190612ef3565b6020830152610b4d565b610b0e8160a00151612edf565b82518390610b1d90839061560d565b90525060c08101516080820151610b4791610b3c91610ac391906155d4565b602084015190612f0d565b60208301525b835160ff1615610ba7575f845f015160ff168260c00151610b6e9190615634565b9050808260c001818151610b829190615647565b90525060a083018051829190610b9990839061565a565b6001600160801b0316905250505b60c08201516001600160801b031615610bef57610bda8160c00151600160801b8460c001516001600160801b0316612f21565b82608001818151610beb91906155d4565b9052505b80606001516001600160a01b031682604001516001600160a01b031603610de857806040015115610dbb578360a00151610c7357610c5584604001515f8760200151886040015188602001518a606001516008612fdd909695949392919063ffffffff16565b6001600160a01b0316608086015260060b6060850152600160a08501525b5f610d8982602001518e610c8957600154610c8f565b84608001515b8f610c9e578560800151610ca2565b6002545b608089015160608a01516040808c0151600296870b5f908152600560205291909120600181018054909603909555948401805490930390925560038301805463ffffffff600160d81b66ffffffffffffff196001600160a01b03600160381b8086048216909703169095029485166001600160d81b031984161766ffffffffffffff600160381b600160d81b03198516871760060b9097039690961695861781900482169097031690950266ffffffffffffff63ffffffff60d81b0119929092166001600160f81b031990951694909417919091171790915554600160801b9004600f0b90565b90508c15610d9d57610d9a81615679565b90505b610dab8360c0015182613189565b6001600160801b031660c0840152505b8b610dca578060200151610ddb565b60018160200151610ddb9190615692565b60020b6060830152610e1e565b805f01516001600160a01b031682604001516001600160a01b031614610e1e57610e15826040015161322a565b60020b60608301525b506108e6565b836020015160020b816060015160020b14610eec575f5f610e7186604001518660400151886020015188602001518a606001518b60800151600861355d909695949392919063ffffffff16565b604085015160608601515f805463ffffffff60b81b1916600160c81b61ffff9586160261ffff60b81b191617600160b81b9590941694909402929092176001600160b81b031916600160a01b62ffffff909316929092026001600160a01b031916919091176001600160a01b0390911617905550610f109050565b60408101515f80546001600160a01b0319166001600160a01b039092169190911790555b8060c001516001600160801b031683602001516001600160801b031614610f565760c0810151600480546001600160801b0319166001600160801b039092169190911790555b8a15610fc057608081015160015560a08101516001600160801b031615610fbb5760a0810151600380545f90610f969084906001600160801b031661565a565b92506101000a8154816001600160801b0302191690836001600160801b031602179055505b611027565b608081015160025560a08101516001600160801b0316156110275760a081015160038054601090611002908490600160801b90046001600160801b031661565a565b92506101000a8154816001600160801b0302191690836001600160801b031602179055505b8115158b1515146110485760208101518151611043908c6155e7565b61105a565b8051611054908b6155e7565b81602001515b90965094508a15611138575f8512156110a0576110a07f00000000000000000000000000000000000000000000000000000000000000008d61109b886156b7565b6136dc565b5f6110a96137d7565b60405163fa461e3360e01b8152909150339063fa461e33906110d5908a908a908e908e906004016156f9565b5f604051808303815f87803b1580156110ec575f5ffd5b505af11580156110fe573d5f5f3e3d5ffd5b5050505061110a6137d7565b61111482896138cf565b11156111325760405162461bcd60e51b815260040161069f90615722565b50611202565b5f86121561116e5761116e7f00000000000000000000000000000000000000000000000000000000000000008d61109b896156b7565b5f6111776138de565b60405163fa461e3360e01b8152909150339063fa461e33906111a3908a908a908e908e906004016156f9565b5f604051808303815f87803b1580156111ba575f5ffd5b505af11580156111cc573d5f5f3e3d5ffd5b505050506111d86138de565b6111e282886138cf565b11156112005760405162461bcd60e51b815260040161069f90615722565b505b60408082015160c083015160608085015184518b8152602081018b90526001600160a01b03948516958101959095526001600160801b039092169084015260020b60808301528d169033907fc42079f94a6350d7e6235f29174924f928cc2ac818eb64fed8004e115fbcca679060a00160405180910390a350505f805460ff60f01b1916600160f01b17905550919890975095505050505050565b60088161ffff81106112ad575f80fd5b015463ffffffff81169150600160201b810460060b90600160581b81046001600160a01b031690600160f81b900460ff1684565b5f54600160f01b900460ff166113095760405162461bcd60e51b815260040161069f9061554e565b5f805460ff60f01b1916905561131d6126d1565b5f8054600160d81b900461ffff169061133860088385613924565b5f805461ffff808416600160d81b810261ffff60d81b19909316929092179092559192508316146113a3576040805161ffff8085168252831660208201527fac49e518f90a358f652e4400164f05a5d8f7e35e7747279bc3a93dbf584e125a91015b60405180910390a15b50505f805460ff60f01b1916600160f01b17905550565b5f80548190600160f01b900460ff166113e55760405162461bcd60e51b815260040161069f9061554e565b5f805460ff60f01b191690556001600160801b038516611403575f5ffd5b5f5f61145060405180608001604052808c6001600160a01b031681526020018b60020b81526020018a60020b81526020016114468a6001600160801b03166139b3565b600f0b90526139c8565b92509250508193508092505f5f5f8611156114705761146d6137d7565b91505b84156114815761147e6138de565b90505b60405163d348799760e01b8152339063d3487997906114aa90899089908d908d906004016156f9565b5f604051808303815f87803b1580156114c1575f5ffd5b505af11580156114d3573d5f5f3e3d5ffd5b505050505f861115611524576114e76137d7565b6114f183886138cf565b11156115245760405162461bcd60e51b815260206004820152600260248201526104d360f41b604482015260640161069f565b841561156f576115326138de565b61153c82876138cf565b111561156f5760405162461bcd60e51b81526020600482015260026024820152614d3160f01b604482015260640161069f565b604080513381526001600160801b038b1660208201529081018790526060810186905260028b810b91908d900b906001600160a01b038f16907f7a53080ba414158be7ec69b987b5fb7d07dee101fe85488f0853ae16239d0bde9060800160405180910390a450505f805460ff60f01b1916600160f01b17905550919890975095505050505050565b5f54600160f01b900460ff166116205760405162461bcd60e51b815260040161069f9061554e565b5f805460ff60f01b191690556116346126d1565b6004546001600160801b0316806116715760405162461bcd60e51b81526020600482015260016024820152601360fa1b604482015260640161069f565b5f6116a5867f000000000000000000000000000000000000000000000000000000000000000062ffffff16620f4240613bf8565b90505f6116db867f000000000000000000000000000000000000000000000000000000000000000062ffffff16620f4240613bf8565b90505f6116e66137d7565b90505f6116f16138de565b90508815611724576117247f00000000000000000000000000000000000000000000000000000000000000008b8b6136dc565b8715611755576117557f00000000000000000000000000000000000000000000000000000000000000008b8a6136dc565b604051630e9cbafb60e41b8152339063e9cbafb09061177e90879087908c908c906004016156f9565b5f604051808303815f87803b158015611795575f5ffd5b505af11580156117a7573d5f5f3e3d5ffd5b505050505f6117b46137d7565b90505f6117bf6138de565b9050816117cc85886138cf565b11156117ff5760405162461bcd60e51b8152602060048201526002602482015261046360f41b604482015260640161069f565b8061180a84876138cf565b111561183d5760405162461bcd60e51b8152602060048201526002602482015261463160f01b604482015260640161069f565b5f6118488584615647565b90505f6118558584615647565b90508115611922575f805461187690601090600160e81b900460ff1661557f565b90505f60ff8216156118945761188f60ff831685615634565b611896565b5f5b90506001600160801b038116156118e957600380548291905f906118c49084906001600160801b031661565a565b92506101000a8154816001600160801b0302191690836001600160801b031602179055505b61190a6118f68286615647565b600160801b8d6001600160801b0316612f21565b60015f82825461191a91906155d4565b909155505050505b80156119d3575f8054600160e81b900460041c600f169081156119515761194c60ff831684615634565b611953565b5f5b90506001600160801b038116156119ae5760038054829190601090611989908490600160801b90046001600160801b031661565a565b92506101000a8154816001600160801b0302191690836001600160801b031602179055505b6119bb6118f68285615647565b60025f8282546119cb91906155d4565b909155505050505b604080518e8152602081018e9052908101839052606081018290526001600160a01b038f169033907fbdbdb71d7860376ba52b25a5028beea23581364a40522f6bcfb86bb1f2dca6339060800160405180910390a350505f805460ff60f01b1916600160f01b179055505050505050505050505050565b5f80548190600160f01b900460ff16611a755760405162461bcd60e51b815260040161069f9061554e565b5f805460ff60f01b19168155611a8e6007338989613c3d565b60038101549091506001600160801b0390811690861611611aaf5784611abe565b60038101546001600160801b03165b60038201549093506001600160801b03600160801b909104811690851611611ae65783611afc565b6003810154600160801b90046001600160801b03165b91506001600160801b03831615611b84576003810180548491905f90611b2c9084906001600160801b031661573f565b92506101000a8154816001600160801b0302191690836001600160801b03160217905550611b847f000000000000000000000000000000000000000000000000000000000000000089856001600160801b03166136dc565b6001600160801b03821615611c1157818160030160108282829054906101000a90046001600160801b0316611bb9919061573f565b92506101000a8154816001600160801b0302191690836001600160801b03160217905550611c117f000000000000000000000000000000000000000000000000000000000000000089846001600160801b03166136dc565b604080516001600160a01b038a1681526001600160801b0385811660208301528416818301529051600288810b92908a900b9133917f70935338e69775456a85ddef226c395fb668b63fa0115f5f20610b388e6ca9c0919081900360600190a4505f805460ff60f01b1916600160f01b17905590969095509350505050565b5f54600160f01b900460ff16611cb85760405162461bcd60e51b815260040161069f9061554e565b5f805460ff60f01b1916905560408051638da5cb5b60e01b815290516001600160a01b037f00000000000000000000000000000000000000000000000000000000000000001691638da5cb5b9160048083019260209291908290030181865afa158015611d27573d5f5f3e3d5ffd5b505050506040513d601f19601f82011682018060405250810190611d4b919061575e565b6001600160a01b0316336001600160a01b031614611d67575f5ffd5b60ff82161580611d8a575060048260ff1610158015611d8a5750600a8260ff1611155b8015611db4575060ff81161580611db4575060048160ff1610158015611db45750600a8160ff1611155b611dbc575f5ffd5b5f54600160e81b900460ff16611dda600483901b610ff01684615779565b5f805460ff92909216600160e81b0260ff60e81b199092169190911790557f973d8d92bb299f4af6ce49b52a8adb85ae46b9f214c4c4fc06ac77401237b133611e2460108361557f565b6040805160ff9283168152600f600486901c16602082015286831691810191909152908416606082015260800161139a565b5f80548190600160f01b900460ff16611e815760405162461bcd60e51b815260040161069f9061554e565b5f805460ff60f01b1916905560408051638da5cb5b60e01b815290516001600160a01b037f00000000000000000000000000000000000000000000000000000000000000001691638da5cb5b9160048083019260209291908290030181865afa158015611ef0573d5f5f3e3d5ffd5b505050506040513d601f19601f82011682018060405250810190611f14919061575e565b6001600160a01b0316336001600160a01b031614611f30575f5ffd5b6003546001600160801b0390811690851611611f4c5783611f59565b6003546001600160801b03165b6003549092506001600160801b03600160801b909104811690841611611f7f5782611f93565b600354600160801b90046001600160801b03165b90506001600160801b0382161561203d576003546001600160801b0390811690831603611fc85781611fc481615792565b9250505b600380548391905f90611fe59084906001600160801b031661573f565b92506101000a8154816001600160801b0302191690836001600160801b0316021790555061203d7f000000000000000000000000000000000000000000000000000000000000000086846001600160801b03166136dc565b6001600160801b038116156120f4576003546001600160801b03600160801b909104811690821603612077578061207381615792565b9150505b6003805482919060109061209c908490600160801b90046001600160801b031661573f565b92506101000a8154816001600160801b0302191690836001600160801b031602179055506120f47f000000000000000000000000000000000000000000000000000000000000000086836001600160801b03166136dc565b846001600160a01b0316336001600160a01b03167f596b573906218d3411850b26a6b437d6c4522fdb43d2d2386263f86d50b8b15184846040516121399291906151a1565b60405180910390a35f805460ff60f01b1916600160f01b1790559094909350915050565b6060806121686126d1565b6121d7428585808060200260200160405190810160405280939291908181526020018383602002808284375f92018290525054600454600896959450600160a01b820460020b935061ffff600160b81b8304811693506001600160801b0390911691600160c81b900416613c94565b915091505b9250929050565b5f80548190600160f01b900460ff1661220e5760405162461bcd60e51b815260040161069f9061554e565b5f805460ff60f01b1916815560408051608081018252338152600288810b602083015287900b918101919091528190819061226290606081016122596001600160801b038a166139b3565b61144690615679565b92509250925081612272906156b7565b945061227d816156b7565b93505f85118061228c57505f84115b156122ee5760038301546122aa9086906001600160801b031661565a565b60038401546122ca908690600160801b90046001600160801b031661565a565b6001600160801b039182169116600160801b026001600160801b0319161760038401555b604080516001600160801b038816815260208101879052908101859052600288810b91908a900b9033907f0c396cd989a39f4459b5fa1aed6a9a8dcdbc45908acfd67e028cd568da98982c9060600160405180910390a450505f805460ff60f01b1916600160f01b179055509094909350915050565b5f5f5f61236f6126d1565b6123798585613dda565b600285810b5f908152600560205260408082209287900b825281206003830154600681900b93600160381b82046001600160a01b0316928492600160d81b810463ffffffff169284929091600160f81b900460ff16806123d7575f5ffd5b6003820154600681900b9850600160381b81046001600160a01b03169650600160d81b810463ffffffff169450600160f81b900460ff1680612417575f5ffd5b50506040805160e0810182525f546001600160a01b0381168252600160a01b8104600290810b6020840181905261ffff600160b81b8404811695850195909552600160c81b830485166060850152600160d81b8304909416608084015260ff600160e81b8304811660a0850152600160f01b909204909116151560c08301529093508e900b131590506124d4576124ae86886157b3565b6124b885876157e0565b6124c284866157ff565b99509950995050505050505050612593565b8a60020b816020015160020b12156125755760208101516040820151600454606084015142935f93849361251c9360089388938793919290916001600160801b031690612fdd565b90925090508861252c8b846157b3565b61253691906157b3565b876125418a846157e0565b61254b91906157e0565b8661255689876157ff565b61256091906157ff565b9c509c509c5050505050505050505050612593565b61257f87876157b3565b61258986866157e0565b6124c285856157ff565b9250925092565b5f546001600160a01b0316156125d75760405162461bcd60e51b8152602060048201526002602482015261414960f01b604482015260640161069f565b5f6125e18261322a565b604080516080808201835263ffffffff42168083525f602080850182905284860182905260016060958601819052600160f81b909317600855855160e0810187526001600160a01b038a16808252600289900b82840181905282890185905296820185905294810184905260a0810183905260c00183905281546001600160b81b0319168417600160a01b62ffffff89160217600160b81b600160f81b0319166501000001000160c81b1790915584519283528201929092528251939450909283927f98636036cb66a9c19a37435efc1e90142190214e8abeb821bdba3f2990dd4c95928290030190a150505050565b306001600160a01b037f00000000000000000000000000000000000000000000000000000000000000001614612705575f5ffd5b565b5f8080612714858761581b565b90505f8660020b128015612733575061272d8587615853565b60020b15155b15612746578061274281615874565b9150505b83156127f0575f5f61275783613e9f565b90925090505f600160ff831681901b906127719082615647565b61277b91906155d4565b600184900b5f90815260208c9052604090205481168015159650909150856127ba57886127ab60ff851687615692565b6127b5919061588c565b6127e5565b886127c482613ebb565b6127ce90856158ab565b6127db9060ff1687615692565b6127e5919061588c565b9650505050506128b2565b5f806128056128008460016158c4565b613e9f565b90925090505f61281c600160ff841681901b615647565b600184900b5f90815260208c905260409020549019908116801515965090915085612874578861284d8460ff6158ab565b60ff1661285b8760016158c4565b61286591906158c4565b61286f919061588c565b6128ab565b888361287f83613fa3565b61288991906158ab565b60ff166128978760016158c4565b6128a191906158c4565b6128ab919061588c565b9650505050505b5094509492505050565b5f5f5f8360020b126128d1578260020b6128de565b8260020b6128de906156b7565b90506128ed620d89e7196155b4565b60020b8111156129235760405162461bcd60e51b81526020600482015260016024820152601560fa1b604482015260640161069f565b5f816001165f0361293857600160801b61294a565b6ffffcb933bd6fad37aa2d162d1a5940015b6001600160881b03169050600282161561297f57608061297a826ffff97272373d413259a46990580e213a6158e9565b901c90505b60048216156129a95760806129a4826ffff2e50f5f656932ef12357cf3c7fdcc6158e9565b901c90505b60088216156129d35760806129ce826fffe5caca7e10e4e61c3624eaa0941cd06158e9565b901c90505b60108216156129fd5760806129f8826fffcb9843d60f6159c9db58835c9266446158e9565b901c90505b6020821615612a27576080612a22826fff973b41fa98c081472e6896dfb254c06158e9565b901c90505b6040821615612a51576080612a4c826fff2ea16466c96a3843ec78b326b528616158e9565b901c90505b6080821615612a7b576080612a76826ffe5dee046a99a2a811c461f1969c30536158e9565b901c90505b610100821615612aa6576080612aa1826ffcbe86c7900a88aedcffc83b479aa3a46158e9565b901c90505b610200821615612ad1576080612acc826ff987a7253ac413176f2b074cf7815e546158e9565b901c90505b610400821615612afc576080612af7826ff3392b0822b70005940c7a398e4b70f36158e9565b901c90505b610800821615612b27576080612b22826fe7159475a2c29b7443b29c7fa6e889d96158e9565b901c90505b611000821615612b52576080612b4d826fd097f3bdfd2022b8845ad8f792aa58256158e9565b901c90505b612000821615612b7d576080612b78826fa9f746462d870fdf8a65dc1f90e061e56158e9565b901c90505b614000821615612ba8576080612ba3826f70d869a156d2a1b890bb3df62baf32f76158e9565b901c90505b618000821615612bd3576080612bce826f31be135f97d08fd981231505542fcfa66158e9565b901c90505b62010000821615612bff576080612bfa826f09aa508b5b7a84e1c677de54f3e99bc96158e9565b901c90505b62020000821615612c2a576080612c25826e5d6af8dedb81196699c329225ee6046158e9565b901c90505b62040000821615612c54576080612c4f826d2216e584f5fa1ea926041bedfe986158e9565b901c90505b62080000821615612c7c576080612c77826b048a170391f7dc42444e8fa26158e9565b901c90505b5f8460020b1315612c9557612c92815f19615634565b90505b612ca3600160201b82615900565b15612caf576001612cb1565b5f5b612cc29060ff16602083901c6155d4565b949350505050565b5f8080806001600160a01b03808916908a161015818712801590612d54575f612d0889612cfa8a620f4240615913565b62ffffff16620f4240612f21565b905082612d2157612d1c8c8c8c60016140cb565b612d2e565b612d2e8b8d8c6001614148565b9550858110612d3f578a9650612d4e565b612d4b8c8b838661420b565b96505b50612da6565b81612d6a57612d658b8b8b5f614148565b612d76565b612d768a8c8b5f6140cb565b935083612d82896156b7565b10612d8f57899550612da6565b612da38b8a612d9d8b6156b7565b85614253565b95505b6001600160a01b038a8116908716148215612e0857808015612dc55750815b612ddb57612dd6878d8c6001614148565b612ddd565b855b9550808015612dea575081155b612dff57612dfa878d8c5f6140cb565b612e01565b845b9450612e51565b808015612e125750815b612e2857612e238c888c60016140cb565b612e2a565b855b9550808015612e37575081155b612e4c57612e478c888c5f614148565b612e4e565b845b94505b81158015612e665750612e63896156b7565b85115b15612e7757612e74896156b7565b94505b818015612e9657508a6001600160a01b0316876001600160a01b031614155b15612eac57612ea5868a615647565b9350612ed0565b612ecd8662ffffff8a16612ec38b620f4240615913565b62ffffff16613bf8565b93505b50505095509550955095915050565b5f600160ff1b8210612eef575f5ffd5b5090565b808203828113155f83121514612f07575f5ffd5b92915050565b818101828112155f83121514612f07575f5ffd5b5f80805f19858709858702925082811083820303915050805f03612f55575f8411612f4a575f5ffd5b508290049050612fd6565b808411612f60575f5ffd5b5f84868809600186198101871696879004965f8181038290049092018684119095038581029684900391909104959095179493919250612fa18760036158e9565b600290811888810282030280890282030280890282030280890282030280890282030280890290910302949094029450505050505b9392505050565b5f5f8663ffffffff165f03613083575f898661ffff1661ffff81106130045761300461592e565b60408051608081018252919092015463ffffffff808216808452600160201b830460060b6020850152600160581b83046001600160a01b031694840194909452600160f81b90910460ff16151560608301529092508a161461306f5761306c818a8988614299565b90505b80602001518160400151925092505061317d565b8688035f806130978c8c858c8c8c8c61433f565b91509150815f015163ffffffff168363ffffffff16036130c757816020015182604001519450945050505061317d565b805f015163ffffffff168363ffffffff16036130f357806020015181604001519450945050505061317d565b5f825f0151825f01510390505f835f0151850390508063ffffffff168263ffffffff1660060b856020015185602001510360060b816131345761313461556b565b05028460200151018263ffffffff168263ffffffff1686604001518660400151036001600160a01b0316028161316c5761316c61556b565b048560400151019650965050505050505b97509795505050505050565b5f5f82600f0b12156131de57508181016001600160801b03808416908216106131d95760405162461bcd60e51b81526020600482015260026024820152614c5360f01b604482015260640161069f565b612f07565b8183019050826001600160801b0316816001600160801b03161015612f075760405162461bcd60e51b81526020600482015260026024820152614c4160f01b604482015260640161069f565b5f6401000276a36001600160a01b03831610801590613265575073fffd8963efd1fc6a506488495d951d5263988d266001600160a01b038316105b6132955760405162461bcd60e51b81526020600482015260016024820152602960f91b604482015260640161069f565b600160201b600160c01b03602083901b166001600160801b03811160071b81811c6001600160401b03811160061b90811c63ffffffff811160051b90811c61ffff811160041b90811c60ff8111600390811b91821c600f811160021b90811c918211600190811b92831c9790881196179094179092171790911717176080811061332e57613324607f82615647565b83901c915061333f565b61333981607f615647565b83901b91505b5f604061334d6080846155e7565b901b9050828302607f1c92508260801c80603f1b8217915083811c935050828302607f1c92508260801c80603e1b8217915083811c935050828302607f1c92508260801c80603d1b8217915083811c935050828302607f1c92508260801c80603c1b8217915083811c935050828302607f1c92508260801c80603b1b8217915083811c935050828302607f1c92508260801c80603a1b8217915083811c935050828302607f1c92508260801c8060391b8217915083811c935050828302607f1c92508260801c8060381b8217915083811c935050828302607f1c92508260801c8060371b8217915083811c935050828302607f1c92508260801c8060361b8217915083811c935050828302607f1c92508260801c8060351b8217915083811c935050828302607f1c92508260801c8060341b8217915083811c935050828302607f1c92508260801c8060331b8217915083811c935050828302607f1c92508260801c8060321b82179150505f81693627a301d71055774c856134cf9190615942565b90505f60806134ee6f028f6481ab7f045a5af012a19d003aaa846155e7565b901d90505f608061350f846fdb2df09e81959a81455e260799a0632f61560d565b901d90508060020b8260020b1461354e57886001600160a01b0316613533826128bc565b6001600160a01b031611156135485781613550565b80613550565b815b9998505050505050505050565b5f5f5f898961ffff1661ffff81106135775761357761592e565b60408051608081018252919092015463ffffffff808216808452600160201b830460060b6020850152600160581b83046001600160a01b031694840194909452600160f81b90910460ff1615156060830152909250891690036135e0578885925092505061317d565b8461ffff168461ffff1611801561360857506135fd600186615971565b61ffff168961ffff16145b1561361557839150613619565b8491505b816136258a600161598b565b61362f91906159a5565b925061363d81898989614299565b8a8461ffff1661ffff81106136545761365461592e565b825191018054602084015160408501516060909501511515600160f81b026001600160f81b036001600160a01b03909616600160581b02959095166001600160581b0366ffffffffffffff909216600160201b026001600160581b031990931663ffffffff909516949094179190911716919091179190911790555097509795505050505050565b604080516001600160a01b038481166024830152604480830185905283518084039091018152606490920183526020820180516001600160e01b031663a9059cbb60e01b17905291515f9283929087169161373791906159c8565b5f604051808303815f865af19150503d805f8114613770576040519150601f19603f3d011682016040523d82523d5f602084013e613775565b606091505b509150915081801561379f57508051158061379f57508080602001905181019061379f91906159de565b6137d05760405162461bcd60e51b81526020600482015260026024820152612a2360f11b604482015260640161069f565b5050505050565b5f5f5f7f00000000000000000000000000000000000000000000000000000000000000006001600160a01b03166370a0823160e01b3060405160240161381d91906150ad565b60408051601f198184030181529181526020820180516001600160e01b03166001600160e01b031990941693909317909252905161385b91906159c8565b5f60405180830381855afa9150503d805f8114613893576040519150601f19603f3d011682016040523d82523d5f602084013e613898565b606091505b50915091508180156138ac57506020815110155b6138b4575f5ffd5b808060200190518101906138c891906159f9565b9250505090565b81810182811015612f07575f5ffd5b5f5f5f7f00000000000000000000000000000000000000000000000000000000000000006001600160a01b03166370a0823160e01b3060405160240161381d91906150ad565b5f5f8361ffff16116139485760405162461bcd60e51b815260040161069f90615a10565b8261ffff168261ffff161161395e575081612fd6565b825b8261ffff168161ffff1610156139aa576001858261ffff1661ffff81106139895761398961592e565b01805463ffffffff191663ffffffff92909216919091179055600101613960565b50909392505050565b80600f81900b81146139c3575f5ffd5b919050565b5f5f5f6139d36126d1565b6139e584602001518560400151613dda565b6040805160e0810182525f546001600160a01b0381168252600160a01b810460020b602080840182905261ffff600160b81b8404811685870152600160c81b84048116606080870191909152600160d81b8504909116608086015260ff600160e81b8504811660a0870152600160f01b909404909316151560c085015288519089015194890151928901519394613a829491939092909190614522565b93508460600151600f0b5f14613bf057846020015160020b816020015160020b1215613ad657613acf613ab886602001516128bc565b613ac587604001516128bc565b87606001516146c3565b9250613bf0565b846040015160020b816020015160020b1215613bc65760045460408201516001600160801b0390911690613b219042602085015160608601516080870151600894939291879161355d565b5f805463ffffffff60b81b1916600160c81b61ffff9384160261ffff60b81b191617600160b81b939092169290920217905581516040870151613b729190613b68906128bc565b88606001516146c3565b9350613b90613b8487602001516128bc565b83516060890151614703565b9250613ba0818760600151613189565b600480546001600160801b0319166001600160801b039290921691909117905550613bf0565b613bed613bd686602001516128bc565b613be387604001516128bc565b8760600151614703565b91505b509193909250565b5f613c04848484612f21565b90505f8280613c1557613c1561556b565b8486091115612fd6575f198110613c2a575f5ffd5b80613c3481615a2b565b95945050505050565b6040805160609490941b6001600160601b03191660208086019190915260e893841b60348601529190921b60378401528151601a818503018152603a90930182528251928101929092205f90815292909152902090565b6060805f8361ffff1611613cba5760405162461bcd60e51b815260040161069f90615a10565b86516001600160401b03811115613cd357613cd3615a43565b604051908082528060200260200182016040528015613cfc578160200160208202803683370190505b50915086516001600160401b03811115613d1857613d18615a43565b604051908082528060200260200182016040528015613d41578160200160208202803683370190505b5090505f5b8751811015613dcd57613d778a8a8a8481518110613d6657613d6661592e565b60200260200101518a8a8a8a612fdd565b848381518110613d8957613d8961592e565b60200260200101848481518110613da257613da261592e565b6001600160a01b039093166020938402919091019092019190915260069190910b9052600101613d46565b5097509795505050505050565b8060020b8260020b12613e155760405162461bcd60e51b8152602060048201526003602482015262544c5560e81b604482015260640161069f565b620d89e719600283900b1215613e535760405162461bcd60e51b8152602060048201526003602482015262544c4d60e81b604482015260640161069f565b613e60620d89e7196155b4565b60020b8160020b1315613e9b5760405162461bcd60e51b815260206004820152600360248201526254554d60e81b604482015260640161069f565b5050565b600281900b60081d5f613eb461010084615853565b9050915091565b5f5f8211613ec7575f5ffd5b600160801b8210613ee557608091821c91613ee29082615779565b90505b600160401b8210613f0357604091821c91613f009082615779565b90505b600160201b8210613f2157602091821c91613f1e9082615779565b90505b620100008210613f3e57601091821c91613f3b9082615779565b90505b6101008210613f5a57600891821c91613f579082615779565b90505b60108210613f7557600491821c91613f729082615779565b90505b60048210613f9057600291821c91613f8d9082615779565b90505b600282106139c357612f07600182615779565b5f5f8211613faf575f5ffd5b5060ff6001600160801b03821615613fd357613fcc6080826158ab565b9050613fdb565b608082901c91505b6001600160401b03821615613ffc57613ff56040826158ab565b9050614004565b604082901c91505b63ffffffff8216156140225761401b6020826158ab565b905061402a565b602082901c91505b61ffff8216156140465761403f6010826158ab565b905061404e565b601082901c91505b60ff821615614069576140626008826158ab565b9050614071565b600882901c91505b600f82161561408c576140856004826158ab565b9050614094565b600482901c91505b60038216156140af576140a86002826158ab565b90506140b7565b600282901c91505b60018216156139c357612f076001826158ab565b5f836001600160a01b0316856001600160a01b031611156140ea579293925b8161411e576141196001600160801b03841661410687876157e0565b6001600160a01b0316600160601b612f21565b613c34565b613c346001600160801b03841661413587876157e0565b6001600160a01b0316600160601b613bf8565b5f836001600160a01b0316856001600160a01b03161115614167579293925b600160601b600160e01b03606084901b165f61418387876157e0565b6001600160a01b031690505f876001600160a01b0316116141a2575f5ffd5b836141d457866001600160a01b03166141c58383896001600160a01b0316612f21565b6141cf9190615634565b614200565b6142006141eb8383896001600160a01b0316613bf8565b886001600160a01b0316808204910615150190565b979650505050505050565b5f5f856001600160a01b031611614220575f5ffd5b5f846001600160801b031611614234575f5ffd5b81614246576141198585856001614735565b613c348585856001614818565b5f5f856001600160a01b031611614268575f5ffd5b5f846001600160801b03161161427c575f5ffd5b8161428d576141198585855f614818565b613c348585855f614735565b6142a1615087565b5f855f01518503905060405180608001604052808663ffffffff1681526020018263ffffffff168660020b0288602001510160060b81526020015f856001600160801b0316116142f25760016142f4565b845b6001600160801b031663ffffffff60801b608085901b16816143185761431861556b565b048860400151016001600160a01b0316815260200160011515815250915050949350505050565b614347615087565b61434f615087565b888561ffff1661ffff81106143665761436661592e565b60408051608081018252919092015463ffffffff8116808352600160201b820460060b6020840152600160581b82046001600160a01b031693830193909352600160f81b900460ff161515606082015292506143c490899089614928565b156143f057815163ffffffff88811691161461317d57816143e783898988614299565b9150915061317d565b88836143fd87600161598b565b61440791906159a5565b61ffff1661ffff811061441c5761441c61592e565b60408051608081018252929091015463ffffffff81168352600160201b810460060b60208401526001600160a01b03600160581b8204169183019190915260ff600160f81b909104161515606082018190529092506144c557604080516080810182528a5463ffffffff81168252600160201b810460060b6020830152600160581b81046001600160a01b031692820192909252600160f81b90910460ff161515606082015291505b6144d388835f015189614928565b6145055760405162461bcd60e51b815260206004820152600360248201526213d31160ea1b604482015260640161069f565b61451289898988876149f4565b9150915097509795505050505050565b5f6145306007878787613c3d565b600154600254919250905f80600f87900b15614665575f8054600454429291829161458b9160089186918591600160a01b820460020b9161ffff600160b81b82048116926001600160801b031691600160c81b900416612fdd565b90925090506145c460058d8b8d8b8b87898b5f7f0000000000000000000000000000000000000000000000000000000000000000614bcf565b94506145fb60058c8b8d8b8b87898b60017f0000000000000000000000000000000000000000000000000000000000000000614bcf565b9350841561462f5761462f60068d7f0000000000000000000000000000000000000000000000000000000000000000614d74565b83156146615761466160068c7f0000000000000000000000000000000000000000000000000000000000000000614d74565b5050505b5f8061467660058c8c8b8a8a614dc4565b9092509050614687878a8484614e69565b5f89600f0b12156146b45783156146a3576146a360058c615049565b82156146b4576146b460058b615049565b50505050505095945050505050565b5f5f82600f0b126146e3576146de610ac38585856001614148565b612cc2565b6146fa610ac385856146f486615679565b5f614148565b612cc2906156b7565b5f5f82600f0b1261471e576146de610ac385858560016140cb565b6146fa610ac3858561472f86615679565b5f6140cb565b5f81156147a5575f6001600160a01b038411156147695761476484600160601b876001600160801b0316612f21565b614780565b6147806001600160801b038616606086901b615634565b905061479d6147986001600160a01b038816836138cf565b615072565b915050612cc2565b5f6001600160a01b038411156147d2576147cd84600160601b876001600160801b0316613bf8565b6147ef565b6147ef606085901b6001600160801b038716808204910615150190565b905080866001600160a01b031611614805575f5ffd5b61479d816001600160a01b038816615647565b5f825f03614827575083612cc2565b600160601b600160e01b03606085901b1682156148ce575f6001600160a01b0387168561485482826158e9565b92506148609083615634565b03614899575f61487082846155d4565b90508281106148975761488d83896001600160a01b031683613bf8565b9350505050612cc2565b505b6148c5826148ba876148b46001600160a01b038c1684615634565b906138cf565b808204910615150190565b92505050612cc2565b5f6001600160a01b038716856148e482826158e9565b92506148f09083615634565b1480156148fc57508082115b614904575f5ffd5b5f61490f8284615647565b905061488d614798848a6001600160a01b031684613bf8565b5f8363ffffffff168363ffffffff161115801561495157508363ffffffff168263ffffffff1611155b1561496d578163ffffffff168363ffffffff1611159050612fd6565b5f8463ffffffff168463ffffffff161161499a5761499563ffffffff8516600160201b615a57565b6149a2565b8363ffffffff165b64ffffffffff1690505f8563ffffffff168463ffffffff16116149d8576149d363ffffffff8516600160201b615a57565b6149e0565b8363ffffffff165b64ffffffffff169091111595945050505050565b6149fc615087565b614a04615087565b5f83614a1186600161598b565b614a1b91906159a5565b61ffff1690505f60018561ffff1683614a3491906155d4565b614a3e9190615647565b90505f5b6002614a4e83856155d4565b614a589190615634565b905089614a6961ffff881683615900565b61ffff8110614a7a57614a7a61592e565b60408051608081018252929091015463ffffffff81168352600160201b810460060b60208401526001600160a01b03600160581b8204169183019190915260ff600160f81b90910416151560608201819052909550614ae557614ade8160016155d4565b9250614a42565b8961ffff8716614af68360016155d4565b614b009190615900565b61ffff8110614b1157614b1161592e565b60408051608081018252929091015463ffffffff81168352600160201b810460060b60208401526001600160a01b03600160581b8204169183019190915260ff600160f81b909104161515606082015285519094505f90614b74908b908b614928565b9050808015614b8c5750614b8c8a8a875f0151614928565b15614b975750614bc2565b80614bae57614ba7600183615647565b9250614bbc565b614bb98260016155d4565b93505b50614a42565b5050509550959350505050565b60028a900b5f90815260208c90526040812080546001600160801b031682614bf7828d613189565b9050846001600160801b0316816001600160801b03161115614c405760405162461bcd60e51b81526020600482015260026024820152614c4f60f01b604482015260640161069f565b6001600160801b03818116159083168015919091141594505f03614ce3578c60020b8e60020b13614ccb57600183018b9055600283018a905560038301805466ffffffffffffff8a166001600160f81b0319909116600160381b6001600160a01b038d160266ffffffffffffff63ffffffff60d81b0119161717600160d81b63ffffffff8a16021790555b6003830180546001600160f81b0316600160f81b1790555b82546001600160801b0319166001600160801b03821617835585614d2a578254614d2590614d2090600160801b9004600f90810b908f900b612f0d565b6139b3565b614d49565b8254614d4990614d2090600160801b9004600f90810b908f900b612ef3565b83546001600160801b03918216600160801b0291161790925550909c9b505050505050505050505050565b614d7e8183615853565b60020b15614d8a575f5ffd5b5f80614d99612800848661581b565b600191820b5f9081526020979097526040909620805460ff9097169190911b90951890945550505050565b600285810b5f8181526020899052604080822088850b83529082209193849391929184918291908a900b12614e0457505060018201546002830154614e17565b8360010154880391508360020154870390505b5f5f8b60020b8b60020b1215614e3857505060018301546002840154614e4b565b84600101548a0391508460020154890390505b92909803979097039b96909503949094039850939650505050505050565b6040805160a08101825285546001600160801b0390811682526001870154602083015260028701549282019290925260038601548083166060830152600160801b900490911660808201525f600f85900b8103614f045781516001600160801b0316614efc5760405162461bcd60e51b815260206004820152600260248201526104e560f41b604482015260640161069f565b508051614f13565b8151614f109086613189565b90505b5f5f614f3684602001518703855f01516001600160801b0316600160801b612f21565b9150614f5984604001518603855f01516001600160801b0316600160801b612f21565b905086600f0b5f14614f7f5787546001600160801b0319166001600160801b0384161788555b60018801869055600288018590556001600160801b038216151580614fac57505f816001600160801b0316115b1561503f576003880180548391905f90614fd09084906001600160801b031661565a565b92506101000a8154816001600160801b0302191690836001600160801b03160217905550808860030160108282829054906101000a90046001600160801b031661501a919061565a565b92506101000a8154816001600160801b0302191690836001600160801b031602179055505b5050505050505050565b600290810b5f908152602092909252604082208281556001810183905590810182905560030155565b806001600160a01b03811681146139c3575f5ffd5b604080516080810182525f80825260208201819052918101829052606081019190915290565b6001600160a01b0391909116815260200190565b6001600160a01b03811681146150d5575f5ffd5b50565b80151581146150d5575f5ffd5b5f5f83601f8401126150f5575f5ffd5b5081356001600160401b0381111561510b575f5ffd5b6020830191508360208285010111156121dc575f5ffd5b5f5f5f5f5f5f60a08789031215615137575f5ffd5b8635615142816150c1565b95506020870135615152816150d8565b9450604087013593506060870135615169816150c1565b925060808701356001600160401b03811115615183575f5ffd5b61518f89828a016150e5565b979a9699509497509295939492505050565b6001600160801b0392831681529116602082015260400190565b5f602082840312156151cb575f5ffd5b5035919050565b5f602082840312156151e2575f5ffd5b813561ffff81168114612fd6575f5ffd5b8035600281900b81146139c3575f5ffd5b80356001600160801b03811681146139c3575f5ffd5b5f5f5f5f5f5f60a0878903121561522f575f5ffd5b863561523a816150c1565b9550615248602088016151f3565b9450615256604088016151f3565b935061516960608801615204565b5f5f5f5f5f60808688031215615278575f5ffd5b8535615283816150c1565b9450602086013593506040860135925060608601356001600160401b038111156152ab575f5ffd5b6152b7888289016150e5565b969995985093965092949392505050565b5f5f5f5f5f60a086880312156152dc575f5ffd5b85356152e7816150c1565b94506152f5602087016151f3565b9350615303604087016151f3565b925061531160608701615204565b915061531f60808701615204565b90509295509295909350565b5f6020828403121561533b575f5ffd5b81358060010b8114612fd6575f5ffd5b803560ff811681146139c3575f5ffd5b5f5f6040838503121561536c575f5ffd5b6153758361534b565b91506153836020840161534b565b90509250929050565b5f5f5f6060848603121561539e575f5ffd5b83356153a9816150c1565b92506153b760208501615204565b91506153c560408501615204565b90509250925092565b5f5f602083850312156153df575f5ffd5b82356001600160401b038111156153f4575f5ffd5b8301601f81018513615404575f5ffd5b80356001600160401b03811115615419575f5ffd5b8560208260051b840101111561542d575f5ffd5b6020919091019590945092505050565b604080825283519082018190525f9060208501906060840190835b8181101561547957835160060b835260209384019390920191600101615458565b5050838103602080860191909152855180835291810192508501905f5b818110156154bd5782516001600160a01b0316845260209384019390920191600101615496565b50919695505050505050565b5f5f5f606084860312156154db575f5ffd5b6154e4846151f3565b92506153b7602085016151f3565b5f5f60408385031215615503575f5ffd5b61550c836151f3565b9150615383602084016151f3565b5f6020828403121561552a575f5ffd5b612fd6826151f3565b5f60208284031215615543575f5ffd5b8135612fd6816150c1565b6020808252600390820152624c4f4b60e81b604082015260600190565b634e487b7160e01b5f52601260045260245ffd5b5f60ff8316806155915761559161556b565b8060ff84160691505092915050565b634e487b7160e01b5f52601160045260245ffd5b5f8160020b627fffff1981036155cc576155cc6155a0565b5f0392915050565b80820180821115612f0757612f076155a0565b8181035f831280158383131683831282161715615606576156066155a0565b5092915050565b8082018281125f83128015821682158216171561562c5761562c6155a0565b505092915050565b5f826156425761564261556b565b500490565b81810381811115612f0757612f076155a0565b6001600160801b038181168382160190811115612f0757612f076155a0565b5f600f82900b6001607f1b81016155cc576155cc6155a0565b600282810b9082900b03627fffff198112627fffff82131715612f0757612f076155a0565b5f600160ff1b82016156cb576156cb6155a0565b505f0390565b81835281816020850137505f828201602090810191909152601f909101601f19169091010190565b848152836020820152606060408201525f6157186060830184866156d1565b9695505050505050565b60208082526003908201526249494160e81b604082015260600190565b6001600160801b038281168282160390811115612f0757612f076155a0565b5f6020828403121561576e575f5ffd5b8151612fd6816150c1565b60ff8181168382160190811115612f0757612f076155a0565b5f6001600160801b038216806157aa576157aa6155a0565b5f190192915050565b600682810b9082900b03667fffffffffffff198112667fffffffffffff82131715612f0757612f076155a0565b6001600160a01b038281168282160390811115612f0757612f076155a0565b63ffffffff8281168282160390811115612f0757612f076155a0565b5f8160020b8360020b806158315761583161556b565b627fffff1982145f198214161561584a5761584a6155a0565b90059392505050565b5f8260020b806158655761586561556b565b808360020b0791505092915050565b5f8160020b627fffff1981036157aa576157aa6155a0565b5f8260020b8260020b028060020b9150808214615606576156066155a0565b60ff8281168282160390811115612f0757612f076155a0565b600281810b9083900b01627fffff8113627fffff1982121715612f0757612f076155a0565b8082028115828204841417612f0757612f076155a0565b5f8261590e5761590e61556b565b500690565b62ffffff8281168282160390811115612f0757612f076155a0565b634e487b7160e01b5f52603260045260245ffd5b8082025f8212600160ff1b8414161561595d5761595d6155a0565b8181058314821517612f0757612f076155a0565b61ffff8281168282160390811115612f0757612f076155a0565b61ffff8181168382160190811115612f0757612f076155a0565b5f61ffff8316806159b8576159b861556b565b8061ffff84160691505092915050565b5f82518060208501845e5f920191825250919050565b5f602082840312156159ee575f5ffd5b8151612fd6816150d8565b5f60208284031215615a09575f5ffd5b5051919050565b6020808252600190820152604960f81b604082015260600190565b5f60018201615a3c57615a3c6155a0565b5060010190565b634e487b7160e01b5f52604160045260245ffd5b64ffffffffff8181168382160190811115612f0757612f076155a056fea2646970667358221220658a7fd0bd9f88054f71e4f6a99071326c5accabb96549928b7e74faf9741afb64736f6c634300081e0033a2646970667358221220d2815f7172edc286665d8fff192cbd6c3b59ea7cf1f3042c72babd4c1f69ebf264736f6c634300081e0033","linkReferences":{"contracts/protocols/dexes/uniswap/v3/periphery/libraries/NFTDescriptor.sol":{"NFTDescriptor":[{"start":1594,"length":20}]}}},"methodIdentifiers":{"WETH9()":"4aa4a4fc","flipRatio(address,address,uint256)":"7e5af771","nativeCurrencyLabel()":"b7af3cdc","nativeCurrencyLabelBytes()":"a18246e2","tokenRatioPriority(address,uint256)":"9d7b0ea8","tokenURI(address,uint256)":"e9dc6375"},"id":1063}