{"abi":[{"type":"receive","stateMutability":"payable"},{"type":"function","name":"addLiquidityToBuffer","inputs":[{"name":"wrappedToken","type":"address","internalType":"contract IERC4626"},{"name":"maxAmountUnderlyingIn","type":"uint256","internalType":"uint256"},{"name":"maxAmountWrappedIn","type":"uint256","internalType":"uint256"},{"name":"exactSharesToIssue","type":"uint256","internalType":"uint256"}],"outputs":[{"name":"amountUnderlyingIn","type":"uint256","internalType":"uint256"},{"name":"amountWrappedIn","type":"uint256","internalType":"uint256"}],"stateMutability":"nonpayable"},{"type":"function","name":"addLiquidityToBufferHook","inputs":[{"name":"wrappedToken","type":"address","internalType":"contract IERC4626"},{"name":"maxAmountUnderlyingIn","type":"uint256","internalType":"uint256"},{"name":"maxAmountWrappedIn","type":"uint256","internalType":"uint256"},{"name":"exactSharesToIssue","type":"uint256","internalType":"uint256"},{"name":"sharesOwner","type":"address","internalType":"address"}],"outputs":[{"name":"amountUnderlyingIn","type":"uint256","internalType":"uint256"},{"name":"amountWrappedIn","type":"uint256","internalType":"uint256"}],"stateMutability":"nonpayable"},{"type":"function","name":"facetFuncs","inputs":[],"outputs":[{"name":"funcs","type":"bytes4[]","internalType":"bytes4[]"}],"stateMutability":"pure"},{"type":"function","name":"facetInterfaces","inputs":[],"outputs":[{"name":"interfaces","type":"bytes4[]","internalType":"bytes4[]"}],"stateMutability":"pure"},{"type":"function","name":"facetMetadata","inputs":[],"outputs":[{"name":"name_","type":"string","internalType":"string"},{"name":"interfaces","type":"bytes4[]","internalType":"bytes4[]"},{"name":"functions","type":"bytes4[]","internalType":"bytes4[]"}],"stateMutability":"pure"},{"type":"function","name":"facetName","inputs":[],"outputs":[{"name":"name","type":"string","internalType":"string"}],"stateMutability":"pure"},{"type":"function","name":"getSender","inputs":[],"outputs":[{"name":"","type":"address","internalType":"address"}],"stateMutability":"view"},{"type":"function","name":"initializeBuffer","inputs":[{"name":"wrappedToken","type":"address","internalType":"contract IERC4626"},{"name":"exactAmountUnderlyingIn","type":"uint256","internalType":"uint256"},{"name":"exactAmountWrappedIn","type":"uint256","internalType":"uint256"},{"name":"minIssuedShares","type":"uint256","internalType":"uint256"}],"outputs":[{"name":"issuedShares","type":"uint256","internalType":"uint256"}],"stateMutability":"nonpayable"},{"type":"function","name":"initializeBufferHook","inputs":[{"name":"wrappedToken","type":"address","internalType":"contract IERC4626"},{"name":"exactAmountUnderlyingIn","type":"uint256","internalType":"uint256"},{"name":"exactAmountWrappedIn","type":"uint256","internalType":"uint256"},{"name":"minIssuedShares","type":"uint256","internalType":"uint256"},{"name":"sharesOwner","type":"address","internalType":"address"}],"outputs":[{"name":"issuedShares","type":"uint256","internalType":"uint256"}],"stateMutability":"nonpayable"},{"type":"function","name":"queryAddLiquidityToBuffer","inputs":[{"name":"wrappedToken","type":"address","internalType":"contract IERC4626"},{"name":"exactSharesToIssue","type":"uint256","internalType":"uint256"}],"outputs":[{"name":"amountUnderlyingIn","type":"uint256","internalType":"uint256"},{"name":"amountWrappedIn","type":"uint256","internalType":"uint256"}],"stateMutability":"nonpayable"},{"type":"function","name":"queryAddLiquidityToBufferHook","inputs":[{"name":"wrappedToken","type":"address","internalType":"contract IERC4626"},{"name":"exactSharesToIssue","type":"uint256","internalType":"uint256"}],"outputs":[{"name":"amountUnderlyingIn","type":"uint256","internalType":"uint256"},{"name":"amountWrappedIn","type":"uint256","internalType":"uint256"}],"stateMutability":"nonpayable"},{"type":"function","name":"queryInitializeBuffer","inputs":[{"name":"wrappedToken","type":"address","internalType":"contract IERC4626"},{"name":"exactAmountUnderlyingIn","type":"uint256","internalType":"uint256"},{"name":"exactAmountWrappedIn","type":"uint256","internalType":"uint256"}],"outputs":[{"name":"issuedShares","type":"uint256","internalType":"uint256"}],"stateMutability":"nonpayable"},{"type":"function","name":"queryInitializeBufferHook","inputs":[{"name":"wrappedToken","type":"address","internalType":"contract IERC4626"},{"name":"exactAmountUnderlyingIn","type":"uint256","internalType":"uint256"},{"name":"exactAmountWrappedIn","type":"uint256","internalType":"uint256"}],"outputs":[{"name":"issuedShares","type":"uint256","internalType":"uint256"}],"stateMutability":"nonpayable"},{"type":"function","name":"queryRemoveLiquidityFromBuffer","inputs":[{"name":"wrappedToken","type":"address","internalType":"contract IERC4626"},{"name":"exactSharesToRemove","type":"uint256","internalType":"uint256"}],"outputs":[{"name":"removedUnderlyingBalanceOut","type":"uint256","internalType":"uint256"},{"name":"removedWrappedBalanceOut","type":"uint256","internalType":"uint256"}],"stateMutability":"nonpayable"},{"type":"function","name":"queryRemoveLiquidityFromBufferHook","inputs":[{"name":"wrappedToken","type":"address","internalType":"contract IERC4626"},{"name":"exactSharesToRemove","type":"uint256","internalType":"uint256"}],"outputs":[{"name":"removedUnderlyingBalanceOut","type":"uint256","internalType":"uint256"},{"name":"removedWrappedBalanceOut","type":"uint256","internalType":"uint256"}],"stateMutability":"nonpayable"},{"type":"error","name":"EthTransfer","inputs":[]},{"type":"error","name":"InsufficientEth","inputs":[]},{"type":"error","name":"InsufficientPayment","inputs":[{"name":"token","type":"address","internalType":"contract IERC20"}]},{"type":"error","name":"ReentrancyGuardReentrantCall","inputs":[]},{"type":"error","name":"SenderIsNotVault","inputs":[{"name":"sender","type":"address","internalType":"address"}]},{"type":"error","name":"SwapDeadline","inputs":[]}],"bytecode":{"object":"0x6080604052348015600e575f5ffd5b506115e28061001c5f395ff3fe6080604052600436106100ba575f3560e01c806313f7bb4d146100fe5780632ea8082614610137578063400f230d146101585780634fe56ed614610177578063502383f414610196578063574a4cff146101b55780635b6f4d01146101c95780635e01eb5a146101ea578063662727cc14610225578063a390260414610244578063b365a3c214610271578063d96af07014610290578063d9f70869146102af578063e0fefe35146102ce578063f10d7a75146102ed575f5ffd5b366100fa576100c7610310565b6001600160a01b0316336001600160a01b0316146100f8576040516302a06efb60e11b815260040160405180910390fd5b005b5f5ffd5b348015610109575f5ffd5b5061011d610118366004611230565b61032e565b604080519283526020830191909152015b60405180910390f35b348015610142575f5ffd5b5061014b610416565b60405161012e919061129e565b348015610163575f5ffd5b5061011d610172366004611230565b61046e565b348015610182575f5ffd5b5061011d6101913660046112b0565b61052b565b3480156101a1575f5ffd5b5061011d6101b0366004611302565b610667565b3480156101c0575f5ffd5b5061014b610756565b3480156101d4575f5ffd5b506101dd610984565b60405161012e9190611368565b3480156101f5575f5ffd5b507f6c17b98ed641627be1f588a5e81d97edc6ddd1b560dfba5b46c2aa2c8ddd0d005c60405161012e919061137a565b348015610230575f5ffd5b5061011d61023f366004611230565b6109af565b34801561024f575f5ffd5b5061026361025e36600461138e565b6109ea565b60405190815260200161012e565b34801561027c575f5ffd5b5061026361028b366004611302565b610a92565b34801561029b575f5ffd5b5061011d6102aa366004611230565b610b7c565b3480156102ba575f5ffd5b506102636102c93660046112b0565b610c2b565b3480156102d9575f5ffd5b506102636102e836600461138e565b610d62565b3480156102f8575f5ffd5b50610301610e35565b60405161012e939291906113c0565b5f61032961031c610e5d565b546001600160a01b031690565b905090565b5f5f5f610339610e81565b6001600160a01b031663edfa3568306001600160a01b031663d96af07088886040516024016103699291906113f8565b60408051808303601f1901815291815260208201805160e094851b6001600160e01b03909116179052519184901b6001600160e01b03191682526103b1925090600401611368565b5f604051808303815f875af11580156103cc573d5f5f3e3d5ffd5b505050506040513d5f823e601f3d908101601f191682016040526103f39190810190611425565b90508080602001905181019061040991906114d5565b92509250505b9250929050565b60408051600180825281830190925260609160208083019080368337019050509050633b34214160e11b815f81518110610452576104526114f7565b6001600160e01b03199092166020928302919091019091015290565b5f5f610478610e9d565b6104826001610ed1565b61048a610ee6565b610492610e81565b604051637154958d60e11b81526001600160a01b0386811660048301526001600160801b0360248301819052604483015260648201869052306084830152919091169063e2a92b1a9060a40160408051808303815f875af11580156104f9573d5f5f3e3d5ffd5b505050506040513d601f19601f8201168201806040525081019061051d91906114d5565b909250905061040f5f610ed1565b5f5f610535610e9d565b61053f6001610ed1565b610547610ee6565b5f610550610e81565b604051637154958d60e11b81529091506001600160a01b0382169063e2a92b1a90610587908b908b908b908b908b9060040161150b565b60408051808303815f875af11580156105a2573d5f5f3e3d5ffd5b505050506040513d601f19601f820116820180604052508101906105c691906114d5565b60405163257dd7ad60e11b815291945092505f906001600160a01b03831690634afbaf5a906105f9908c9060040161137a565b602060405180830381865afa158015610614573d5f5f3e3d5ffd5b505050506040513d601f19601f82011682018060405250810190610638919061153b565b90506106468582865f610f2c565b610652858a855f610f2c565b505061065d5f610ed1565b9550959350505050565b5f5f5f610672610e81565b6001600160a01b03166348c89491306001600160a01b0316634fe56ed68a8a8a8a336040516024016106a895949392919061150b565b60408051808303601f1901815291815260208201805160e094851b6001600160e01b03909116179052519184901b6001600160e01b03191682526106f0925090600401611368565b5f604051808303815f875af115801561070b573d5f5f3e3d5ffd5b505050506040513d5f823e601f3d908101601f191682016040526107329190810190611425565b90508080602001905181019061074891906114d5565b925092505094509492505050565b60408051600a8082526101608201909252606091602082016101408036833701905050905063b365a3c260e01b815f81518110610795576107956114f7565b6001600160e01b0319909216602092830291909101909101528051631408e0fd60e21b90829060019081106107cc576107cc6114f7565b6001600160e01b031990921660209283029190910190910152805163e0fefe3560e01b9082906002908110610803576108036114f7565b6001600160e01b0319909216602092830291909101909101528051631989c9f360e21b908290600390811061083a5761083a6114f7565b6001600160e01b03199092166020928302919091019091015280516313f7bb4d60e01b9082906004908110610871576108716114f7565b6001600160e01b031990921660209283029190910190910152805163d9f7086960e01b90829060059081106108a8576108a86114f7565b6001600160e01b03199092166020928302919091019091015280516327f2b76b60e11b90829060069081106108df576108df6114f7565b6001600160e01b03199092166020928302919091019091015280516328e4098160e21b9082906007908110610916576109166114f7565b6001600160e01b031990921660209283029190910190910152805163400f230d60e01b908290600890811061094d5761094d6114f7565b6001600160e01b0319909216602092830291909101909101528051630d96af0760e41b9082906009908110610452576104526114f7565b604080518082019091526011815270109d5999995c949bdd5d195c919858d95d607a1b602082015290565b5f5f5f6109ba610e81565b6001600160a01b031663edfa3568306001600160a01b031663400f230d88886040516024016103699291906113f8565b5f6109f3610e9d565b6109fd6001610ed1565b610a05610ee6565b610a0d610e81565b6001600160a01b031663653eb3b08585855f306040518663ffffffff1660e01b8152600401610a4095949392919061150b565b6020604051808303815f875af1158015610a5c573d5f5f3e3d5ffd5b505050506040513d601f19601f82011682018060405250810190610a809190611556565b9050610a8b5f610ed1565b9392505050565b5f5f610a9c610e81565b6001600160a01b03166348c89491306001600160a01b031663d9f708698989898933604051602401610ad295949392919061150b565b60408051808303601f1901815291815260208201805160e094851b6001600160e01b03909116179052519184901b6001600160e01b0319168252610b1a925090600401611368565b5f604051808303815f875af1158015610b35573d5f5f3e3d5ffd5b505050506040513d5f823e601f3d908101601f19168201604052610b5c9190810190611425565b905080806020019051810190610b729190611556565b9695505050505050565b5f5f610b86610e9d565b610b906001610ed1565b610b98610ee6565b610ba0610e81565b604051633af1e55760e21b81526001600160a01b038681166004830152602482018690525f604483018190526064830152919091169063ebc7955c9060840160408051808303815f875af1158015610bfa573d5f5f3e3d5ffd5b505050506040513d601f19601f82011682018060405250810190610c1e91906114d5565b9150915061040f5f610ed1565b5f610c34610e9d565b610c3e6001610ed1565b610c46610ee6565b5f610c4f610e81565b604051630653eb3b60e41b81529091506001600160a01b0382169063653eb3b090610c86908a908a908a908a908a9060040161150b565b6020604051808303815f875af1158015610ca2573d5f5f3e3d5ffd5b505050506040513d601f19601f82011682018060405250810190610cc69190611556565b91505f816001600160a01b0316634afbaf5a896040518263ffffffff1660e01b8152600401610cf5919061137a565b602060405180830381865afa158015610d10573d5f5f3e3d5ffd5b505050506040513d601f19601f82011682018060405250810190610d34919061153b565b9050610d428482895f610f2c565b610d4e8489885f610f2c565b5050610d595f610ed1565b95945050505050565b5f5f610d6c610e81565b604080516001600160a01b03888116602483015260448201889052606480830188905283518084039091018152608490920183526020820180516001600160e01b03166328e4098160e21b1790529151631dbf46ad60e31b8152929091169163edfa356891610ddd91600401611368565b5f604051808303815f875af1158015610df8573d5f5f3e3d5ffd5b505050506040513d5f823e601f3d908101601f19168201604052610e1f9190810190611425565b905080806020019051810190610d599190611556565b6060806060610e42610984565b9250610e4c610416565b9150610e56610756565b9050909192565b7f0e5e42310baee45bff0964e63930bd3ef41981ccc7a033d2803019558bd2313e90565b5f610329610e8d610e5d565b600201546001600160a01b031690565b5f51602061158d5f395f51905f52805c908115610ecd57604051633ee5aeb560e01b815260040160405180910390fd5b5050565b5f51602061158d5f395f51905f5281815d5050565b610eee610e81565b6001600160a01b0316336001600160a01b031614610f2a573360405163089676d560e01b8152600401610f21919061137a565b60405180910390fd5b565b5f610f35610310565b90505f610f40610e81565b90505f610f4b6111c8565b9050838015610f6b5750826001600160a01b0316866001600160a01b0316145b156110c45784471015610f915760405163500d4efb60e11b815260040160405180910390fd5b826001600160a01b031663d0e30db0866040518263ffffffff1660e01b81526004015f604051808303818588803b158015610fca575f5ffd5b505af1158015610fdc573d5f5f3e3d5ffd5b505060405163a9059cbb60e01b81526001600160a01b038716935063a9059cbb925061100f9150859089906004016113f8565b6020604051808303815f875af115801561102b573d5f5f3e3d5ffd5b505050506040513d601f19601f8201168201806040525081019061104f919061156d565b506040516315afd40960e01b81526001600160a01b038316906315afd4099061107e90899089906004016113f8565b6020604051808303815f875af115801561109a573d5f5f3e3d5ffd5b505050506040513d601f19601f820116820180604052508101906110be9190611556565b506111bf565b84156111bf57806001600160a01b03166336c7851688846110e4896111e4565b6040516001600160e01b031960e086901b1681526001600160a01b03938416600482015291831660248301528216604482015290891660648201526084015f604051808303815f87803b158015611139575f5ffd5b505af115801561114b573d5f5f3e3d5ffd5b50506040516315afd40960e01b81526001600160a01b03851692506315afd409915061117d90899089906004016113f8565b6020604051808303815f875af1158015611199573d5f5f3e3d5ffd5b505050506040513d601f19601f820116820180604052508101906111bd9190611556565b505b50505050505050565b5f6103296111d4610e5d565b600101546001600160a01b031690565b5f6111ee826111f4565b92915050565b5f600160a01b82106112085761120861120c565b5090565b6335278d125f526004601cfd5b6001600160a01b038116811461122d575f5ffd5b50565b5f5f60408385031215611241575f5ffd5b823561124c81611219565b946020939093013593505050565b5f8151808452602084019350602083015f5b828110156112945781516001600160e01b03191686526020958601959091019060010161126c565b5093949350505050565b602081525f610a8b602083018461125a565b5f5f5f5f5f60a086880312156112c4575f5ffd5b85356112cf81611219565b945060208601359350604086013592506060860135915060808601356112f481611219565b809150509295509295909350565b5f5f5f5f60808587031215611315575f5ffd5b843561132081611219565b966020860135965060408601359560600135945092505050565b5f81518084528060208401602086015e5f602082860101526020601f19601f83011685010191505092915050565b602081525f610a8b602083018461133a565b6001600160a01b0391909116815260200190565b5f5f5f606084860312156113a0575f5ffd5b83356113ab81611219565b95602085013595506040909401359392505050565b606081525f6113d2606083018661133a565b82810360208401526113e4818661125a565b90508281036040840152610b72818561125a565b6001600160a01b03929092168252602082015260400190565b634e487b7160e01b5f52604160045260245ffd5b5f60208284031215611435575f5ffd5b81516001600160401b0381111561144a575f5ffd5b8201601f8101841361145a575f5ffd5b80516001600160401b0381111561147357611473611411565b604051601f8201601f19908116603f011681016001600160401b03811182821017156114a1576114a1611411565b6040528181528282016020018610156114b8575f5ffd5b8160208401602083015e5f91810160200191909152949350505050565b5f5f604083850312156114e6575f5ffd5b505080516020909101519092909150565b634e487b7160e01b5f52603260045260245ffd5b6001600160a01b039586168152602081019490945260408401929092526060830152909116608082015260a00190565b5f6020828403121561154b575f5ffd5b8151610a8b81611219565b5f60208284031215611566575f5ffd5b5051919050565b5f6020828403121561157d575f5ffd5b81518015158114610a8b575f5ffdfe85e416c3b4a964332bebb95fdf9a73cb8ded00cbd75143ad03246e01399c4247a2646970667358221220e83e98a21c7ce7801b25b65dd362282f5180ab4c9eba8ce18afbb8adff45631e64736f6c634300081e0033","linkReferences":{}},"methodIdentifiers":{"addLiquidityToBuffer(address,uint256,uint256,uint256)":"502383f4","addLiquidityToBufferHook(address,uint256,uint256,uint256,address)":"4fe56ed6","facetFuncs()":"574a4cff","facetInterfaces()":"2ea80826","facetMetadata()":"f10d7a75","facetName()":"5b6f4d01","getSender()":"5e01eb5a","initializeBuffer(address,uint256,uint256,uint256)":"b365a3c2","initializeBufferHook(address,uint256,uint256,uint256,address)":"d9f70869","queryAddLiquidityToBuffer(address,uint256)":"662727cc","queryAddLiquidityToBufferHook(address,uint256)":"400f230d","queryInitializeBuffer(address,uint256,uint256)":"e0fefe35","queryInitializeBufferHook(address,uint256,uint256)":"a3902604","queryRemoveLiquidityFromBuffer(address,uint256)":"13f7bb4d","queryRemoveLiquidityFromBufferHook(address,uint256)":"d96af070"},"id":928}