{"abi":[{"type":"constructor","inputs":[{"name":"vault","type":"address","internalType":"contract IVault"},{"name":"initialOwner","type":"address","internalType":"address"}],"stateMutability":"nonpayable"},{"type":"function","name":"acceptOwnership","inputs":[],"outputs":[],"stateMutability":"nonpayable"},{"type":"function","name":"addPoolsToSet","inputs":[{"name":"poolSetId","type":"uint256","internalType":"uint256"},{"name":"newPools","type":"address[]","internalType":"address[]"}],"outputs":[],"stateMutability":"nonpayable"},{"type":"function","name":"cancelOwnershipHandover","inputs":[],"outputs":[],"stateMutability":"payable"},{"type":"function","name":"completeOwnershipHandover","inputs":[{"name":"pendingOwner","type":"address","internalType":"address"}],"outputs":[],"stateMutability":"payable"},{"type":"function","name":"createPoolSet","inputs":[{"name":"initialManager","type":"address","internalType":"address"},{"name":"newPools","type":"address[]","internalType":"address[]"}],"outputs":[{"name":"poolSetId","type":"uint256","internalType":"uint256"}],"stateMutability":"nonpayable"},{"type":"function","name":"createPoolSet","inputs":[{"name":"initialManager","type":"address","internalType":"address"}],"outputs":[{"name":"","type":"uint256","internalType":"uint256"}],"stateMutability":"nonpayable"},{"type":"function","name":"destroyPoolSet","inputs":[{"name":"poolSetId","type":"uint256","internalType":"uint256"}],"outputs":[],"stateMutability":"nonpayable"},{"type":"function","name":"forceTransferOwnership","inputs":[{"name":"newOwner","type":"address","internalType":"address"}],"outputs":[],"stateMutability":"nonpayable"},{"type":"function","name":"getActionId","inputs":[{"name":"selector","type":"bytes4","internalType":"bytes4"}],"outputs":[{"name":"","type":"bytes32","internalType":"bytes32"}],"stateMutability":"view"},{"type":"function","name":"getAllPoolsInSet","inputs":[{"name":"poolSetId","type":"uint256","internalType":"uint256"}],"outputs":[{"name":"pools","type":"address[]","internalType":"address[]"}],"stateMutability":"view"},{"type":"function","name":"getAuthorizer","inputs":[],"outputs":[{"name":"","type":"address","internalType":"contract IAuthorizer"}],"stateMutability":"view"},{"type":"function","name":"getManagerForPoolSet","inputs":[{"name":"poolSetId","type":"uint256","internalType":"uint256"}],"outputs":[{"name":"","type":"address","internalType":"address"}],"stateMutability":"view"},{"type":"function","name":"getNextPoolSetId","inputs":[],"outputs":[{"name":"","type":"uint256","internalType":"uint256"}],"stateMutability":"view"},{"type":"function","name":"getPoolCountForSet","inputs":[{"name":"poolSetId","type":"uint256","internalType":"uint256"}],"outputs":[{"name":"","type":"uint256","internalType":"uint256"}],"stateMutability":"view"},{"type":"function","name":"getPoolSetIdForCaller","inputs":[],"outputs":[{"name":"","type":"uint256","internalType":"uint256"}],"stateMutability":"view"},{"type":"function","name":"getPoolSetIdForManager","inputs":[{"name":"manager","type":"address","internalType":"address"}],"outputs":[{"name":"","type":"uint256","internalType":"uint256"}],"stateMutability":"view"},{"type":"function","name":"getPoolsInSet","inputs":[{"name":"poolSetId","type":"uint256","internalType":"uint256"},{"name":"from","type":"uint256","internalType":"uint256"},{"name":"to","type":"uint256","internalType":"uint256"}],"outputs":[{"name":"pools","type":"address[]","internalType":"address[]"}],"stateMutability":"view"},{"type":"function","name":"isPoolInSet","inputs":[{"name":"pool","type":"address","internalType":"address"},{"name":"poolSetId","type":"uint256","internalType":"uint256"}],"outputs":[{"name":"","type":"bool","internalType":"bool"}],"stateMutability":"view"},{"type":"function","name":"isValidPoolSetId","inputs":[{"name":"poolSetId","type":"uint256","internalType":"uint256"}],"outputs":[{"name":"","type":"bool","internalType":"bool"}],"stateMutability":"view"},{"type":"function","name":"owner","inputs":[],"outputs":[{"name":"","type":"address","internalType":"address"}],"stateMutability":"view"},{"type":"function","name":"ownershipHandoverExpiresAt","inputs":[{"name":"pendingOwner","type":"address","internalType":"address"}],"outputs":[{"name":"result","type":"uint256","internalType":"uint256"}],"stateMutability":"view"},{"type":"function","name":"pendingOwner","inputs":[],"outputs":[{"name":"","type":"address","internalType":"address"}],"stateMutability":"view"},{"type":"function","name":"removePoolsFromSet","inputs":[{"name":"poolSetId","type":"uint256","internalType":"uint256"},{"name":"pools","type":"address[]","internalType":"address[]"}],"outputs":[],"stateMutability":"nonpayable"},{"type":"function","name":"renounceOwnership","inputs":[],"outputs":[],"stateMutability":"payable"},{"type":"function","name":"requestOwnershipHandover","inputs":[],"outputs":[],"stateMutability":"payable"},{"type":"function","name":"setProtocolSwapFeePercentage","inputs":[{"name":"pool","type":"address","internalType":"address"},{"name":"newProtocolSwapFeePercentage","type":"uint256","internalType":"uint256"}],"outputs":[],"stateMutability":"nonpayable"},{"type":"function","name":"setProtocolYieldFeePercentage","inputs":[{"name":"pool","type":"address","internalType":"address"},{"name":"newProtocolYieldFeePercentage","type":"uint256","internalType":"uint256"}],"outputs":[],"stateMutability":"nonpayable"},{"type":"function","name":"transferOwnership","inputs":[{"name":"newOwner","type":"address","internalType":"address"}],"outputs":[],"stateMutability":"payable"},{"type":"function","name":"transferPoolSetOwnership","inputs":[{"name":"newManager","type":"address","internalType":"address"}],"outputs":[],"stateMutability":"nonpayable"},{"type":"function","name":"vault","inputs":[],"outputs":[{"name":"","type":"address","internalType":"contract IVault"}],"stateMutability":"view"},{"type":"event","name":"OwnershipHandoverCanceled","inputs":[{"name":"pendingOwner","type":"address","indexed":true,"internalType":"address"}],"anonymous":false},{"type":"event","name":"OwnershipHandoverRequested","inputs":[{"name":"pendingOwner","type":"address","indexed":true,"internalType":"address"}],"anonymous":false},{"type":"event","name":"OwnershipTransferStarted","inputs":[{"name":"previousOwner","type":"address","indexed":true,"internalType":"address"},{"name":"newOwner","type":"address","indexed":true,"internalType":"address"}],"anonymous":false},{"type":"event","name":"OwnershipTransferred","inputs":[{"name":"oldOwner","type":"address","indexed":true,"internalType":"address"},{"name":"newOwner","type":"address","indexed":true,"internalType":"address"}],"anonymous":false},{"type":"event","name":"PoolAddedToSet","inputs":[{"name":"pool","type":"address","indexed":true,"internalType":"address"},{"name":"poolSetId","type":"uint256","indexed":true,"internalType":"uint256"}],"anonymous":false},{"type":"event","name":"PoolRemovedFromSet","inputs":[{"name":"pool","type":"address","indexed":true,"internalType":"address"},{"name":"poolSetId","type":"uint256","indexed":true,"internalType":"uint256"}],"anonymous":false},{"type":"event","name":"PoolSetCreated","inputs":[{"name":"poolSetId","type":"uint256","indexed":true,"internalType":"uint256"},{"name":"initialManager","type":"address","indexed":true,"internalType":"address"}],"anonymous":false},{"type":"event","name":"PoolSetDestroyed","inputs":[{"name":"poolSetId","type":"uint256","indexed":true,"internalType":"uint256"},{"name":"manager","type":"address","indexed":true,"internalType":"address"}],"anonymous":false},{"type":"event","name":"PoolSetOwnershipTransferred","inputs":[{"name":"poolSetId","type":"uint256","indexed":true,"internalType":"uint256"},{"name":"oldManager","type":"address","indexed":true,"internalType":"address"},{"name":"newManager","type":"address","indexed":true,"internalType":"address"}],"anonymous":false},{"type":"error","name":"AlreadyInitialized","inputs":[]},{"type":"error","name":"IndexOutOfBounds","inputs":[{"name":"poolSetId","type":"uint256","internalType":"uint256"}]},{"type":"error","name":"InvalidPoolSetId","inputs":[{"name":"poolSetId","type":"uint256","internalType":"uint256"}]},{"type":"error","name":"InvalidPoolSetManager","inputs":[]},{"type":"error","name":"NewOwnerIsZeroAddress","inputs":[]},{"type":"error","name":"NoHandoverRequest","inputs":[]},{"type":"error","name":"OwnableInvalidOwner","inputs":[{"name":"owner","type":"address","internalType":"address"}]},{"type":"error","name":"OwnableUnauthorizedAccount","inputs":[{"name":"account","type":"address","internalType":"address"}]},{"type":"error","name":"PoolAlreadyInSet","inputs":[{"name":"pool","type":"address","internalType":"address"},{"name":"poolSetId","type":"uint256","internalType":"uint256"}]},{"type":"error","name":"PoolNotInSet","inputs":[{"name":"pool","type":"address","internalType":"address"},{"name":"poolSetId","type":"uint256","internalType":"uint256"}]},{"type":"error","name":"PoolNotRegistered","inputs":[{"name":"pool","type":"address","internalType":"address"}]},{"type":"error","name":"PoolSetManagerNotUnique","inputs":[{"name":"poolSetManager","type":"address","internalType":"address"}]},{"type":"error","name":"SenderIsNotPoolSetManager","inputs":[]},{"type":"error","name":"SenderNotAllowed","inputs":[]},{"type":"error","name":"Unauthorized","inputs":[]},{"type":"error","name":"VaultNotSet","inputs":[]}],"bytecode":{"object":"0x60c060405260018055348015610013575f5ffd5b5060405161192038038061192083398101604081905261003291610100565b8181818130816001600160a01b03811661006557604051631e4fbdf760e01b81525f600482015260240160405180910390fd5b61006e816100b0565b506080526001600160a01b03821661009957604051630647140b60e51b815260040160405180910390fd5b506001600160a01b031660a0525061013892505050565b6001600160a01b0316638b78c6d819819055805f7f8be0079c531659141344cd1fd0a4f28419497f9722a3daafe3b4186f6b6457e08180a35b50565b6001600160a01b03811681146100e9575f5ffd5b5f5f60408385031215610111575f5ffd5b825161011c816100ec565b602084015190925061012d816100ec565b809150509250929050565b60805160a0516117ab6101755f395f81816104a301528181610a9a01528181610bfd015281816110c0015261117001525f6108b901526117ab5ff3fe60806040526004361061015c575f3560e01c8063182551da14610160578063255dae411461019457806325692962146101ca57806325c427ed146101d45780632da55a1d146102165780633700f987146102355780633e035f9b1461025457806354d1f13d1461027357806362d534621461027b578063715018a61461029a57806379ba5097146102a25780637c1ec460146102b6578063851c1bb3146102d55780638c60ebd0146102f45780638da5cb5b1461032057806394fc405814610341578063a89b112814610360578063aaabadc51461037f578063abaa335614610393578063c482e822146103b2578063ce998aba146103c6578063e30c3978146103e6578063e909c19b146103fa578063ebf3a8d014610419578063f04e283e14610438578063f167a1e61461044b578063f2fde38b1461047f578063fbfa77cf14610492578063fd267f39146104c5578063fee81cf4146104e4575b5f5ffd5b34801561016b575f5ffd5b5061017f61017a366004611460565b610515565b60405190151581526020015b60405180910390f35b34801561019f575f5ffd5b5061017f6101ae36600461148a565b5f908152600260205260409020546001600160a01b0316151590565b6101d2610541565b005b3480156101df575f5ffd5b506102086101ee3660046114a1565b6001600160a01b03165f9081526003602052604090205490565b60405190815260200161018b565b348015610221575f5ffd5b506101d2610230366004611573565b61058d565b348015610240575f5ffd5b506101d261024f3660046114a1565b61064b565b34801561025f575f5ffd5b5061020861026e3660046115b6565b6106d5565b6101d2610705565b348015610286575f5ffd5b5061020861029536600461148a565b61073e565b6101d2610766565b3480156102ad575f5ffd5b506101d2610779565b3480156102c1575f5ffd5b506101d26102d036600461148a565b6107b8565b3480156102e0575f5ffd5b506102086102ef3660046115ec565b6108b6565b3480156102ff575f5ffd5b5061031361030e366004611613565b61091a565b60405161018b919061163c565b34801561032b575f5ffd5b50610334610a2a565b60405161018b9190611687565b34801561034c575f5ffd5b5061031361035b36600461148a565b610a3d565b34801561036b575f5ffd5b506101d261037a3660046114a1565b610a5f565b34801561038a575f5ffd5b50610334610a97565b34801561039e575f5ffd5b506101d26103ad366004611460565b610b18565b3480156103bd575f5ffd5b50600154610208565b3480156103d1575f5ffd5b50335f90815260036020526040902054610208565b3480156103f1575f5ffd5b50610334610b96565b348015610405575f5ffd5b506102086104143660046114a1565b610ba4565b348015610424575f5ffd5b506101d2610433366004611573565b610bc0565b6101d26104463660046114a1565b610d23565b348015610456575f5ffd5b5061033461046536600461148a565b5f908152600260205260409020546001600160a01b031690565b6101d261048d3660046114a1565b610d5d565b34801561049d575f5ffd5b506103347f000000000000000000000000000000000000000000000000000000000000000081565b3480156104d0575f5ffd5b506101d26104df366004611460565b610dc2565b3480156104ef575f5ffd5b506102086104fe3660046114a1565b63389a75e1600c9081525f91909152602090205490565b5f8161052081610e0d565b5f8381526004602052604090206105379085610e4f565b91505b5092915050565b5f6202a3006001600160401b03164201905063389a75e1600c52335f52806020600c2055337fdbf36a107da19e49527a7176a1babf963b4b0ff8cde35ee35d6cd8f1f9ac7e1d5f5fa250565b610595610e6c565b8161059f81610e0d565b81515f5b81811015610644575f8482815181106105be576105be61169b565b602002602001015190506105eb8160045f8981526020019081526020015f20610eaa90919063ffffffff16565b15155f0361061957808660405163400a2eb960e11b81526004016106109291906116af565b60405180910390fd5b60405186906001600160a01b038316905f5160206117565f395f51905f52905f90a3506001016105a3565b5050505050565b8061065581610ebe565b5f61065e610f1d565b5f81815260026020908152604080832080546001600160a01b0319166001600160a01b038916908117909155338085526003909352818420849055808452818420859055905193945092909184917f8a5583d08cb82be0e3e26d52a1941f10fe2fdd1bb7cc5e085a0ba35b3d7972059190a4505050565b5f6106de610e6c565b826106e881610ebe565b6106f184610f50565b83519092501561053a5761053a8284610bc0565b63389a75e1600c52335f525f6020600c2055337ffa7b8eab7da67f412cc9575ed43464468f9bfbae89d1675917346ca6d8fe3c925f5fa2565b5f8161074981610e0d565b5f83815260046020526040902061075f90610fcd565b9392505050565b61076e610fd6565b6107775f611011565b565b3380610783610b96565b6001600160a01b0316146107ac578060405163118cdaa760e01b81526004016106109190611687565b6107b58161104e565b50565b6107c0610e6c565b806107ca81610e0d565b5f828152600460205260408120906107e182610fcd565b90505b801561082f575f19015f6107f88383611066565b905084816001600160a01b03165f5160206117565f395f51905f5260405160405180910390a36108288382610eaa565b50506107e4565b5f848152600460205260408120908181610849828261140e565b5050505f85815260026020908152604080832080546001600160a01b031981169091556001600160a01b0316808452600390925280832083905551909250829187917f79baa5e19a392c29299f3a0871dfaa49cb3bcce18826d5d6df199c9e0846a6c09190a35050505050565b5f7f0000000000000000000000000000000000000000000000000000000000000000826040516020016108fd9291909182526001600160e01b031916602082015260240190565b604051602081830303815290604052805190602001209050919050565b60608361092681610e0d565b5f85815260046020526040812061093c90610fcd565b90508385118061094b57508084115b806109565750808510155b156109775760405163112517f360e21b815260048101879052602401610610565b61098185856116dc565b6001600160401b03811115610998576109986114bc565b6040519080825280602002602001820160405280156109c1578160200160208202803683370190505b509250845b84811015610a20575f8781526004602052604090206109e59082611066565b846109f088846116dc565b81518110610a0057610a0061169b565b6001600160a01b03909216602092830291909101909101526001016109c6565b5050509392505050565b5f610a38638b78c6d8195490565b905090565b606081610a4981610e0d565b5f83815260046020526040902061075f90611071565b610a67610e6c565b610a6f610a2a565b6001600160a01b031633036107ac576040516323dada5360e01b815260040160405180910390fd5b5f7f00000000000000000000000000000000000000000000000000000000000000006001600160a01b031663aaabadc56040518163ffffffff1660e01b8152600401602060405180830381865afa158015610af4573d5f5f3e3d5ffd5b505050506040513d601f19601f82011682018060405250810190610a3891906116ef565b815f610b22610f1d565b9050610b2e818361107d565b610b366110bd565b6001600160a01b031663abaa335685856040518363ffffffff1660e01b8152600401610b639291906116af565b5f604051808303815f87803b158015610b7a575f5ffd5b505af1158015610b8c573d5f5f3e3d5ffd5b5050505050505050565b5f546001600160a01b031690565b5f610bad610e6c565b81610bb781610ebe565b61075f83610f50565b610bc8610e6c565b81610bd281610e0d565b81515f5b81811015610644575f848281518110610bf157610bf161169b565b602002602001015190507f00000000000000000000000000000000000000000000000000000000000000006001600160a01b031663c673bdaf826040518263ffffffff1660e01b8152600401610c479190611687565b602060405180830381865afa158015610c62573d5f5f3e3d5ffd5b505050506040513d601f19601f82011682018060405250810190610c86919061170a565b15155f03610ca957806040516327946f5760e21b81526004016106109190611687565b5f868152600460205260409020610cc0908261111a565b15155f03610ce5578086604051635a17aa8d60e01b81526004016106109291906116af565b60405186906001600160a01b038316907f5cda7ebcbcc755c3ef1c6cf035a6e26bf48b6421f72f932756d942c896287b69905f90a350600101610bd6565b610d2b610fd6565b63389a75e1600c52805f526020600c208054421115610d5157636f5e88185f526004601cfd5b5f90556107b581611011565b610d65610fd6565b5f80546001600160a01b0319166001600160a01b038316908117909155610d8a610a2a565b6001600160a01b03167f38d16b8cac22d99fc7c124b9cd0de2d3fa1faef420bfe791d8c362d765e2270060405160405180910390a350565b815f610dcc610f1d565b9050610dd8818361107d565b610de06110bd565b6001600160a01b031663fd267f3985856040518363ffffffff1660e01b8152600401610b639291906116af565b801580610e2e57505f818152600260205260409020546001600160a01b0316155b156107b5576040516398592ddb60e01b815260048101829052602401610610565b5f610e63836001600160a01b03841661112e565b90505b92915050565b5f610e815f356001600160e01b0319166108b6565b9050610e8d8133611145565b6107b5576040516323dada5360e01b815260040160405180910390fd5b5f610e63836001600160a01b038416611265565b6001600160a01b038116610ee5576040516316f292b760e11b815260040160405180910390fd5b6001600160a01b0381165f90815260036020526040902054156107b5578060405163161ad54b60e11b81526004016106109190611687565b335f9081526003602052604081205490819003610f4d57604051632f3023dd60e21b815260040160405180910390fd5b90565b600180545f9182610f6083611729565b909155505f81815260026020908152604080832080546001600160a01b0319166001600160a01b0388169081179091558084526003909252808320849055519293509183917fdc91443db112ae1beb8fab12e3fa2dedea028e9eb6a8e92776a1aa2343007be291a3919050565b5f610e66825490565b610fde610a2a565b6001600160a01b0316336001600160a01b031614610777573360405163118cdaa760e01b81526004016106109190611687565b638b78c6d81980546001600160a01b039092169182907f8be0079c531659141344cd1fd0a4f28419497f9722a3daafe3b4186f6b6457e05f80a355565b5f80546001600160a01b03191690556107b581611011565b5f610e638383611348565b60605f61075f8361136e565b5f8281526004602052604090206110949082610e4f565b15155f036110b957808260405163400a2eb960e11b81526004016106109291906116af565b5050565b5f7f00000000000000000000000000000000000000000000000000000000000000006001600160a01b03166385f2dbd46040518163ffffffff1660e01b8152600401602060405180830381865afa158015610af4573d5f5f3e3d5ffd5b5f610e63836001600160a01b0384166113c7565b5f9081526001919091016020526040902054151590565b5f61114e610a2a565b6001600160a01b0316826001600160a01b03160361116e57506001610e66565b7f00000000000000000000000000000000000000000000000000000000000000006001600160a01b031663aaabadc56040518163ffffffff1660e01b8152600401602060405180830381865afa1580156111ca573d5f5f3e3d5ffd5b505050506040513d601f19601f820116820180604052508101906111ee91906116ef565b6040516326f8aa2160e21b8152600481018590526001600160a01b0384811660248301523060448301529190911690639be2a88490606401602060405180830381865afa158015611241573d5f5f3e3d5ffd5b505050506040513d601f19601f82011682018060405250810190610e63919061170a565b5f818152600183016020526040812054801561133f575f6112876001836116dc565b85549091505f9061129a906001906116dc565b90508082146112f9575f865f0182815481106112b8576112b861169b565b905f5260205f200154905080875f0184815481106112d8576112d861169b565b5f918252602080832090910192909255918252600188019052604090208390555b855486908061130a5761130a611741565b600190038181905f5260205f20015f90559055856001015f8681526020019081526020015f205f905560019350505050610e66565b5f915050610e66565b5f825f01828154811061135d5761135d61169b565b905f5260205f200154905092915050565b6060815f018054806020026020016040519081016040528092919081815260200182805480156113bb57602002820191905f5260205f20905b8154815260200190600101908083116113a7575b50505050509050919050565b5f6113d2838361112e565b61140757508154600181810184555f848152602080822090930184905584548482528286019093526040902091909155610e66565b505f610e66565b5080545f8255905f5260205f20908101906107b591905b80821115611438575f8155600101611425565b5090565b6001600160a01b03811681146107b5575f5ffd5b803561145b8161143c565b919050565b5f5f60408385031215611471575f5ffd5b823561147c8161143c565b946020939093013593505050565b5f6020828403121561149a575f5ffd5b5035919050565b5f602082840312156114b1575f5ffd5b813561075f8161143c565b634e487b7160e01b5f52604160045260245ffd5b5f82601f8301126114df575f5ffd5b81356001600160401b038111156114f8576114f86114bc565b604051600582901b90603f8201601f191681016001600160401b0381118282101715611526576115266114bc565b604052918252602081850181019290810186841115611543575f5ffd5b6020860192505b838310156115695761155b83611450565b81526020928301920161154a565b5095945050505050565b5f5f60408385031215611584575f5ffd5b8235915060208301356001600160401b038111156115a0575f5ffd5b6115ac858286016114d0565b9150509250929050565b5f5f604083850312156115c7575f5ffd5b82356115d28161143c565b915060208301356001600160401b038111156115a0575f5ffd5b5f602082840312156115fc575f5ffd5b81356001600160e01b03198116811461075f575f5ffd5b5f5f5f60608486031215611625575f5ffd5b505081359360208301359350604090920135919050565b602080825282518282018190525f918401906040840190835b8181101561167c5783516001600160a01b0316835260209384019390920191600101611655565b509095945050505050565b6001600160a01b0391909116815260200190565b634e487b7160e01b5f52603260045260245ffd5b6001600160a01b03929092168252602082015260400190565b634e487b7160e01b5f52601160045260245ffd5b81810381811115610e6657610e666116c8565b5f602082840312156116ff575f5ffd5b815161075f8161143c565b5f6020828403121561171a575f5ffd5b8151801515811461075f575f5ffd5b5f6001820161173a5761173a6116c8565b5060010190565b634e487b7160e01b5f52603160045260245ffdfee632b6be71c5c7f5d98ba00da8b648a72422f750973138bc6474de6fe711b66ea2646970667358221220b28fe7c3ec9b0778fa039e30a2312b6821cba6b2aea38aca9ba19cb34c6b8ad564736f6c634300081e0033","linkReferences":{}},"methodIdentifiers":{"acceptOwnership()":"79ba5097","addPoolsToSet(uint256,address[])":"ebf3a8d0","cancelOwnershipHandover()":"54d1f13d","completeOwnershipHandover(address)":"f04e283e","createPoolSet(address)":"e909c19b","createPoolSet(address,address[])":"3e035f9b","destroyPoolSet(uint256)":"7c1ec460","forceTransferOwnership(address)":"a89b1128","getActionId(bytes4)":"851c1bb3","getAllPoolsInSet(uint256)":"94fc4058","getAuthorizer()":"aaabadc5","getManagerForPoolSet(uint256)":"f167a1e6","getNextPoolSetId()":"c482e822","getPoolCountForSet(uint256)":"62d53462","getPoolSetIdForCaller()":"ce998aba","getPoolSetIdForManager(address)":"25c427ed","getPoolsInSet(uint256,uint256,uint256)":"8c60ebd0","isPoolInSet(address,uint256)":"182551da","isValidPoolSetId(uint256)":"255dae41","owner()":"8da5cb5b","ownershipHandoverExpiresAt(address)":"fee81cf4","pendingOwner()":"e30c3978","removePoolsFromSet(uint256,address[])":"2da55a1d","renounceOwnership()":"715018a6","requestOwnershipHandover()":"25692962","setProtocolSwapFeePercentage(address,uint256)":"fd267f39","setProtocolYieldFeePercentage(address,uint256)":"abaa3356","transferOwnership(address)":"f2fde38b","transferPoolSetOwnership(address)":"3700f987","vault()":"fbfa77cf"},"id":314}