{"abi":[{"type":"function","name":"getPopulatedTicksInWord","inputs":[{"name":"pool","type":"address","internalType":"address"},{"name":"tickBitmapIndex","type":"int16","internalType":"int16"}],"outputs":[{"name":"populatedTicks","type":"tuple[]","internalType":"struct ITickLens.PopulatedTick[]","components":[{"name":"tick","type":"int24","internalType":"int24"},{"name":"liquidityNet","type":"int128","internalType":"int128"},{"name":"liquidityGross","type":"uint128","internalType":"uint128"}]}],"stateMutability":"view"}],"bytecode":{"object":"0x6080604052348015600e575f5ffd5b506105988061001c5f395ff3fe608060405234801561000f575f5ffd5b5060043610610029575f3560e01c8063351fb4781461002d575b5f5ffd5b61004061003b3660046102ed565b610056565b60405161004d919061032a565b60405180910390f35b60405163299ce14b60e11b8152600182900b60048201526060905f906001600160a01b03851690635339c29690602401602060405180830381865afa1580156100a1573d5f5f3e3d5ffd5b505050506040513d601f19601f820116820180604052508101906100c59190610394565b90505f805b6101008110156100f5576001811b8316156100ed57816100e9816103bf565b9250505b6001016100ca565b505f856001600160a01b031663d0c93a7c6040518163ffffffff1660e01b8152600401602060405180830381865afa158015610133573d5f5f3e3d5ffd5b505050506040513d601f19601f8201168201806040525081019061015791906103d7565b9050816001600160401b03811115610171576101716103fe565b6040519080825280602002602001820160405280156101ba57816020015b604080516060810182525f80825260208083018290529282015282525f1990920191018161018f5790505b5093505f5b6101008110156102cc576001811b8416156102c4575f826101e78360088a901b60020b610412565b6101f1919061043d565b60405163f30dba9360e01b8152600282900b60048201529091505f9081906001600160a01b038b169063f30dba939060240161010060405180830381865afa15801561023f573d5f5f3e3d5ffd5b505050506040513d601f19601f820116820180604052508101906102639190610495565b5050505050509150915060405180606001604052808460020b815260200182600f0b8152602001836001600160801b031681525088876102a290610539565b975087815181106102b5576102b561054e565b60200260200101819052505050505b6001016101bf565b5050505092915050565b6001600160a01b03811681146102ea575f5ffd5b50565b5f5f604083850312156102fe575f5ffd5b8235610309816102d6565b91506020830135600181900b811461031f575f5ffd5b809150509250929050565b602080825282518282018190525f918401906040840190835b81811015610389578351805160020b8452602080820151600f0b818601526040918201516001600160801b03169185019190915290930192606090920191600101610343565b509095945050505050565b5f602082840312156103a4575f5ffd5b5051919050565b634e487b7160e01b5f52601160045260245ffd5b5f600182016103d0576103d06103ab565b5060010190565b5f602082840312156103e7575f5ffd5b81518060020b81146103f7575f5ffd5b9392505050565b634e487b7160e01b5f52604160045260245ffd5b600281810b9083900b01627fffff8113627fffff1982121715610437576104376103ab565b92915050565b5f8260020b8260020b028060020b915080821461045c5761045c6103ab565b5092915050565b805161046e816102d6565b919050565b805163ffffffff8116811461046e575f5ffd5b8051801515811461046e575f5ffd5b5f5f5f5f5f5f5f5f610100898b0312156104ad575f5ffd5b88516001600160801b03811681146104c3575f5ffd5b80985050602089015180600f0b81146104da575f5ffd5b60408a015160608b015160808c01519299509097509550600681900b8114610500575f5ffd5b935061050e60a08a01610463565b925061051c60c08a01610473565b915061052a60e08a01610486565b90509295985092959890939650565b5f81610547576105476103ab565b505f190190565b634e487b7160e01b5f52603260045260245ffdfea2646970667358221220d8311263db3b3cb0ac78636513531be012d60e6a7afee8de13122aaae8be591564736f6c634300081e0033","linkReferences":{}},"methodIdentifiers":{"getPopulatedTicksInWord(address,int16)":"351fb478"},"id":1096}