{"abi":[{"type":"constructor","inputs":[{"name":"pkgInit","type":"tuple","internalType":"struct IBalancerV3RouterDFPkg.PkgInit","components":[{"name":"routerSwapFacet","type":"address","internalType":"contract IFacet"},{"name":"routerAddLiquidityFacet","type":"address","internalType":"contract IFacet"},{"name":"routerRemoveLiquidityFacet","type":"address","internalType":"contract IFacet"},{"name":"routerInitializeFacet","type":"address","internalType":"contract IFacet"},{"name":"routerCommonFacet","type":"address","internalType":"contract IFacet"},{"name":"batchSwapFacet","type":"address","internalType":"contract IFacet"},{"name":"bufferRouterFacet","type":"address","internalType":"contract IFacet"},{"name":"compositeLiquidityERC4626Facet","type":"address","internalType":"contract IFacet"},{"name":"compositeLiquidityNestedFacet","type":"address","internalType":"contract IFacet"},{"name":"diamondFactory","type":"address","internalType":"contract IDiamondPackageCallBackFactory"}]}],"stateMutability":"nonpayable"},{"type":"function","name":"BATCH_SWAP_FACET","inputs":[],"outputs":[{"name":"","type":"address","internalType":"contract IFacet"}],"stateMutability":"view"},{"type":"function","name":"BUFFER_ROUTER_FACET","inputs":[],"outputs":[{"name":"","type":"address","internalType":"contract IFacet"}],"stateMutability":"view"},{"type":"function","name":"COMPOSITE_LIQUIDITY_ERC4626_FACET","inputs":[],"outputs":[{"name":"","type":"address","internalType":"contract IFacet"}],"stateMutability":"view"},{"type":"function","name":"COMPOSITE_LIQUIDITY_NESTED_FACET","inputs":[],"outputs":[{"name":"","type":"address","internalType":"contract IFacet"}],"stateMutability":"view"},{"type":"function","name":"DIAMOND_PACKAGE_FACTORY","inputs":[],"outputs":[{"name":"","type":"address","internalType":"contract IDiamondPackageCallBackFactory"}],"stateMutability":"view"},{"type":"function","name":"ROUTER_ADD_LIQUIDITY_FACET","inputs":[],"outputs":[{"name":"","type":"address","internalType":"contract IFacet"}],"stateMutability":"view"},{"type":"function","name":"ROUTER_COMMON_FACET","inputs":[],"outputs":[{"name":"","type":"address","internalType":"contract IFacet"}],"stateMutability":"view"},{"type":"function","name":"ROUTER_INITIALIZE_FACET","inputs":[],"outputs":[{"name":"","type":"address","internalType":"contract IFacet"}],"stateMutability":"view"},{"type":"function","name":"ROUTER_REMOVE_LIQUIDITY_FACET","inputs":[],"outputs":[{"name":"","type":"address","internalType":"contract IFacet"}],"stateMutability":"view"},{"type":"function","name":"ROUTER_SWAP_FACET","inputs":[],"outputs":[{"name":"","type":"address","internalType":"contract IFacet"}],"stateMutability":"view"},{"type":"function","name":"calcSalt","inputs":[{"name":"pkgArgs","type":"bytes","internalType":"bytes"}],"outputs":[{"name":"salt","type":"bytes32","internalType":"bytes32"}],"stateMutability":"pure"},{"type":"function","name":"deployRouter","inputs":[{"name":"vault","type":"address","internalType":"contract IVault"},{"name":"weth","type":"address","internalType":"contract IWETH"},{"name":"permit2","type":"address","internalType":"contract IPermit2"},{"name":"routerVersion","type":"string","internalType":"string"}],"outputs":[{"name":"router","type":"address","internalType":"address"}],"stateMutability":"nonpayable"},{"type":"function","name":"diamondConfig","inputs":[],"outputs":[{"name":"config","type":"tuple","internalType":"struct IDiamondFactoryPackage.DiamondConfig","components":[{"name":"facetCuts","type":"tuple[]","internalType":"struct IDiamond.FacetCut[]","components":[{"name":"facetAddress","type":"address","internalType":"address"},{"name":"action","type":"uint8","internalType":"enum IDiamond.FacetCutAction"},{"name":"functionSelectors","type":"bytes4[]","internalType":"bytes4[]"}]},{"name":"interfaces","type":"bytes4[]","internalType":"bytes4[]"}]}],"stateMutability":"view"},{"type":"function","name":"facetAddresses","inputs":[],"outputs":[{"name":"facetAddresses_","type":"address[]","internalType":"address[]"}],"stateMutability":"view"},{"type":"function","name":"facetCuts","inputs":[],"outputs":[{"name":"facetCuts_","type":"tuple[]","internalType":"struct IDiamond.FacetCut[]","components":[{"name":"facetAddress","type":"address","internalType":"address"},{"name":"action","type":"uint8","internalType":"enum IDiamond.FacetCutAction"},{"name":"functionSelectors","type":"bytes4[]","internalType":"bytes4[]"}]}],"stateMutability":"view"},{"type":"function","name":"facetInterfaces","inputs":[],"outputs":[{"name":"interfaces","type":"bytes4[]","internalType":"bytes4[]"}],"stateMutability":"pure"},{"type":"function","name":"initAccount","inputs":[{"name":"initArgs","type":"bytes","internalType":"bytes"}],"outputs":[],"stateMutability":"nonpayable"},{"type":"function","name":"packageMetadata","inputs":[],"outputs":[{"name":"name_","type":"string","internalType":"string"},{"name":"interfaces","type":"bytes4[]","internalType":"bytes4[]"},{"name":"facets","type":"address[]","internalType":"address[]"}],"stateMutability":"view"},{"type":"function","name":"packageName","inputs":[],"outputs":[{"name":"name_","type":"string","internalType":"string"}],"stateMutability":"pure"},{"type":"function","name":"postDeploy","inputs":[{"name":"","type":"address","internalType":"address"}],"outputs":[{"name":"","type":"bool","internalType":"bool"}],"stateMutability":"pure"},{"type":"function","name":"processArgs","inputs":[{"name":"pkgArgs","type":"bytes","internalType":"bytes"}],"outputs":[{"name":"processedPkgArgs","type":"bytes","internalType":"bytes"}],"stateMutability":"pure"},{"type":"function","name":"updatePkg","inputs":[{"name":"","type":"address","internalType":"address"},{"name":"","type":"bytes","internalType":"bytes"}],"outputs":[{"name":"","type":"bool","internalType":"bool"}],"stateMutability":"nonpayable"}],"bytecode":{"object":"0x6101c0604052348015610010575f5ffd5b50604051611f23380380611f2383398101604081905261002f916100f7565b610120808201516001600160a01b0390811660809081528351821660a09081526020850151831660c09081526040860151841660e0908152606087015185166101009081529387015185169095529085015183166101405284015182166101605291830151811661018052910151166101a0526101c1565b60405161014081016001600160401b03811182821017156100d657634e487b7160e01b5f52604160045260245ffd5b60405290565b80516001600160a01b03811681146100f2575f5ffd5b919050565b5f610140828403128015610109575f5ffd5b506101126100a7565b61011b836100dc565b8152610129602084016100dc565b602082015261013a604084016100dc565b604082015261014b606084016100dc565b606082015261015c608084016100dc565b608082015261016d60a084016100dc565b60a082015261017e60c084016100dc565b60c082015261018f60e084016100dc565b60e08201526101a161010084016100dc565b6101008201526101b461012084016100dc565b6101208201529392505050565b60805160a05160c05160e05161010051610120516101405161016051610180516101a051611c2f6102f45f395f818161011901528181610909015281816111b501526111fb01525f81816103ae015281816108b5015281816110c1015261110701525f81816103220152818161086101528181610fcd015261101301525f818161027b0152818161080d01528181610ed90152610f1f01525f818161022d015281816107b901528181610de50152610e2b01525f81816102fb0152818161076501528181610cf10152610d3701525f81816103700152818161071101528181610bfd0152610c4301525f8181610185015281816106bd01528181610b090152610b4f01525f81816102540152818161066a01528181610a2b0152610a5c01525f81816102cc01526103d30152611c2f5ff3fe608060405234801561000f575f5ffd5b5060043610610110575f3560e01c806303abde54146101145780631a96c006146101585780632ea808261461016b578063413cf0191461018057806352ef6b2c146101a757806365d375b3146101bc57806370068fcf146101d1578063870d4838146101f557806387c3adb31461020a578063a30d31e614610228578063a37195bd1461024f578063a3f1c1a714610276578063a4b3ad351461029d578063a9089235146102b2578063ab6046ed146102c7578063abc8b346146102ee578063b84268b8146102f6578063be8e1be11461031d578063d82be56e14610344578063f340362d1461036b578063f45469e714610392578063f58d59f9146103a9575b5f5ffd5b61013b7f000000000000000000000000000000000000000000000000000000000000000081565b6040516001600160a01b0390911681526020015b60405180910390f35b61013b610166366004611433565b6103d0565b6101736104f6565b60405161014f9190611517565b61013b7f000000000000000000000000000000000000000000000000000000000000000081565b6101af610643565b60405161014f9190611569565b6101c461095e565b60405161014f9190611631565b6101e56101df366004611672565b50600190565b604051901515815260200161014f565b610208610203366004611771565b610999565b005b61021b610218366004611771565b90565b60405161014f91906117d8565b61013b7f000000000000000000000000000000000000000000000000000000000000000081565b61013b7f000000000000000000000000000000000000000000000000000000000000000081565b61013b7f000000000000000000000000000000000000000000000000000000000000000081565b6102a56109cf565b60405161014f91906117ea565b6101e56102c03660046117fc565b5f92915050565b61013b7f000000000000000000000000000000000000000000000000000000000000000081565b61021b61129f565b61013b7f000000000000000000000000000000000000000000000000000000000000000081565b61013b7f000000000000000000000000000000000000000000000000000000000000000081565b61035d610352366004611771565b805160209091012090565b60405190815260200161014f565b61013b7f000000000000000000000000000000000000000000000000000000000000000081565b61039a6112ce565b60405161014f93929190611848565b61013b7f000000000000000000000000000000000000000000000000000000000000000081565b5f7f00000000000000000000000000000000000000000000000000000000000000006001600160a01b031663e97fac053060405180608001604052808a6001600160a01b03168152602001896001600160a01b03168152602001886001600160a01b0316815260200187878080601f0160208091040260200160405190810160405280939291908181526020018383808284375f9201919091525050509152506040516104809190602001611880565b6040516020818303038152906040526040518363ffffffff1660e01b81526004016104ac9291906118ca565b6020604051808303815f875af11580156104c8573d5f5f3e3d5ffd5b505050506040513d601f19601f820116820180604052508101906104ec91906118ed565b9695505050505050565b60408051600580825260c082019092526060916020820160a080368337019050509050637a1dbb1f60e01b815f8151811061053357610533611908565b60200260200101906001600160e01b03191690816001600160e01b031916815250506333014b0360e01b8160018151811061057057610570611908565b60200260200101906001600160e01b03191690816001600160e01b0319168152505063a6deee5360e01b816002815181106105ad576105ad611908565b60200260200101906001600160e01b03191690816001600160e01b03191681525050633b7bb87360e01b816003815181106105ea576105ea611908565b60200260200101906001600160e01b03191690816001600160e01b03191681525050633b34214160e11b8160048151811061062757610627611908565b6001600160e01b03199092166020928302919091019091015290565b604080516009808252610140820190925260609160208201610120803683370190505090507f0000000000000000000000000000000000000000000000000000000000000000815f8151811061069b5761069b611908565b60200260200101906001600160a01b031690816001600160a01b0316815250507f0000000000000000000000000000000000000000000000000000000000000000816001815181106106ef576106ef611908565b60200260200101906001600160a01b031690816001600160a01b0316815250507f00000000000000000000000000000000000000000000000000000000000000008160028151811061074357610743611908565b60200260200101906001600160a01b031690816001600160a01b0316815250507f00000000000000000000000000000000000000000000000000000000000000008160038151811061079757610797611908565b60200260200101906001600160a01b031690816001600160a01b0316815250507f0000000000000000000000000000000000000000000000000000000000000000816004815181106107eb576107eb611908565b60200260200101906001600160a01b031690816001600160a01b0316815250507f00000000000000000000000000000000000000000000000000000000000000008160058151811061083f5761083f611908565b60200260200101906001600160a01b031690816001600160a01b0316815250507f00000000000000000000000000000000000000000000000000000000000000008160068151811061089357610893611908565b60200260200101906001600160a01b031690816001600160a01b0316815250507f0000000000000000000000000000000000000000000000000000000000000000816007815181106108e7576108e7611908565b60200260200101906001600160a01b031690816001600160a01b0316815250507f00000000000000000000000000000000000000000000000000000000000000008160088151811061093b5761093b611908565b60200260200101906001600160a01b031690816001600160a01b03168152505090565b604080518082019091526060808252602082015260405180604001604052806109856109cf565b81526020016109926104f6565b9052919050565b5f818060200190518101906109ae919061191c565b90506109cb815f01518260200151836040015184606001516112f6565b5050565b6040805160098082526101408201909252606091816020015b60408051606080820183525f8083526020830152918101919091528152602001906001900390816109e85790505060408051606081019091526001600160a01b037f0000000000000000000000000000000000000000000000000000000000000000168152909150602081015f81526020017f00000000000000000000000000000000000000000000000000000000000000006001600160a01b031663574a4cff6040518163ffffffff1660e01b81526004015f60405180830381865afa158015610ab5573d5f5f3e3d5ffd5b505050506040513d5f823e601f3d908101601f19168201604052610adc91908101906119fd565b815250815f81518110610af157610af1611908565b602002602001018190525060405180606001604052807f00000000000000000000000000000000000000000000000000000000000000006001600160a01b031681526020015f6002811115610b4857610b4861157b565b81526020017f00000000000000000000000000000000000000000000000000000000000000006001600160a01b031663574a4cff6040518163ffffffff1660e01b81526004015f60405180830381865afa158015610ba8573d5f5f3e3d5ffd5b505050506040513d5f823e601f3d908101601f19168201604052610bcf91908101906119fd565b81525081600181518110610be557610be5611908565b602002602001018190525060405180606001604052807f00000000000000000000000000000000000000000000000000000000000000006001600160a01b031681526020015f6002811115610c3c57610c3c61157b565b81526020017f00000000000000000000000000000000000000000000000000000000000000006001600160a01b031663574a4cff6040518163ffffffff1660e01b81526004015f60405180830381865afa158015610c9c573d5f5f3e3d5ffd5b505050506040513d5f823e601f3d908101601f19168201604052610cc391908101906119fd565b81525081600281518110610cd957610cd9611908565b602002602001018190525060405180606001604052807f00000000000000000000000000000000000000000000000000000000000000006001600160a01b031681526020015f6002811115610d3057610d3061157b565b81526020017f00000000000000000000000000000000000000000000000000000000000000006001600160a01b031663574a4cff6040518163ffffffff1660e01b81526004015f60405180830381865afa158015610d90573d5f5f3e3d5ffd5b505050506040513d5f823e601f3d908101601f19168201604052610db791908101906119fd565b81525081600381518110610dcd57610dcd611908565b602002602001018190525060405180606001604052807f00000000000000000000000000000000000000000000000000000000000000006001600160a01b031681526020015f6002811115610e2457610e2461157b565b81526020017f00000000000000000000000000000000000000000000000000000000000000006001600160a01b031663574a4cff6040518163ffffffff1660e01b81526004015f60405180830381865afa158015610e84573d5f5f3e3d5ffd5b505050506040513d5f823e601f3d908101601f19168201604052610eab91908101906119fd565b81525081600481518110610ec157610ec1611908565b602002602001018190525060405180606001604052807f00000000000000000000000000000000000000000000000000000000000000006001600160a01b031681526020015f6002811115610f1857610f1861157b565b81526020017f00000000000000000000000000000000000000000000000000000000000000006001600160a01b031663574a4cff6040518163ffffffff1660e01b81526004015f60405180830381865afa158015610f78573d5f5f3e3d5ffd5b505050506040513d5f823e601f3d908101601f19168201604052610f9f91908101906119fd565b81525081600581518110610fb557610fb5611908565b602002602001018190525060405180606001604052807f00000000000000000000000000000000000000000000000000000000000000006001600160a01b031681526020015f600281111561100c5761100c61157b565b81526020017f00000000000000000000000000000000000000000000000000000000000000006001600160a01b031663574a4cff6040518163ffffffff1660e01b81526004015f60405180830381865afa15801561106c573d5f5f3e3d5ffd5b505050506040513d5f823e601f3d908101601f1916820160405261109391908101906119fd565b815250816006815181106110a9576110a9611908565b602002602001018190525060405180606001604052807f00000000000000000000000000000000000000000000000000000000000000006001600160a01b031681526020015f60028111156111005761110061157b565b81526020017f00000000000000000000000000000000000000000000000000000000000000006001600160a01b031663574a4cff6040518163ffffffff1660e01b81526004015f60405180830381865afa158015611160573d5f5f3e3d5ffd5b505050506040513d5f823e601f3d908101601f1916820160405261118791908101906119fd565b8152508160078151811061119d5761119d611908565b602002602001018190525060405180606001604052807f00000000000000000000000000000000000000000000000000000000000000006001600160a01b031681526020015f60028111156111f4576111f461157b565b81526020017f00000000000000000000000000000000000000000000000000000000000000006001600160a01b031663574a4cff6040518163ffffffff1660e01b81526004015f60405180830381865afa158015611254573d5f5f3e3d5ffd5b505050506040513d5f823e601f3d908101601f1916820160405261127b91908101906119fd565b8152508160088151811061129157611291611908565b602002602001018190525090565b60408051808201909152601581527442616c616e6365725633526f757465724446506b6760581b602082015290565b60608060606112db61129f565b92506112e56104f6565b91506112ef610643565b9050909192565b6113237f0e5e42310baee45bff0964e63930bd3ef41981ccc7a033d2803019558bd2313e85858585611329565b50505050565b6002850154600160a81b900460ff16156113a25760405162461bcd60e51b815260206004820152603060248201527f42616c616e6365725633526f7574657253746f726167655265706f3a20616c7260448201526f1958591e481a5b9a5d1a585b1a5e995960821b606482015260840160405180910390fd5b60028501805486546001600160a01b038681166001600160a01b0319928316178955600189018054878316931683179055600160a01b9115919091026001600160a81b031990921690871617179055600385016113ff8282611b3f565b5050506002909201805460ff60a81b1916600160a81b1790555050565b6001600160a01b0381168114611430575f5ffd5b50565b5f5f5f5f5f60808688031215611447575f5ffd5b85356114528161141c565b945060208601356114628161141c565b935060408601356114728161141c565b925060608601356001600160401b0381111561148c575f5ffd5b8601601f8101881361149c575f5ffd5b80356001600160401b038111156114b1575f5ffd5b8860208284010111156114c2575f5ffd5b959894975092955050506020019190565b5f8151808452602084019350602083015f5b8281101561150d5781516001600160e01b0319168652602095860195909101906001016114e5565b5093949350505050565b602081525f61152960208301846114d3565b9392505050565b5f8151808452602084019350602083015f5b8281101561150d5781516001600160a01b0316865260209586019590910190600101611542565b602081525f6115296020830184611530565b634e487b7160e01b5f52602160045260245ffd5b5f82825180855260208501945060208160051b830101602085015f5b8381101561162557848303601f19018852815180516001600160a01b031684526020810151600381106115ec57634e487b7160e01b5f52602160045260245ffd5b80602086015250604081015190506060604085015261160e60608501826114d3565b6020998a01999094509290920191506001016115ab565b50909695505050505050565b602081525f82516040602084015261164c606084018261158f565b90506020840151601f1984830301604085015261166982826114d3565b95945050505050565b5f60208284031215611682575f5ffd5b81356115298161141c565b634e487b7160e01b5f52604160045260245ffd5b604051608081016001600160401b03811182821017156116c3576116c361168d565b60405290565b604051601f8201601f191681016001600160401b03811182821017156116f1576116f161168d565b604052919050565b5f6001600160401b038211156117115761171161168d565b50601f01601f191660200190565b5f82601f83011261172e575f5ffd5b813561174161173c826116f9565b6116c9565b818152846020838601011115611755575f5ffd5b816020850160208301375f918101602001919091529392505050565b5f60208284031215611781575f5ffd5b81356001600160401b03811115611796575f5ffd5b6117a28482850161171f565b949350505050565b5f81518084528060208401602086015e5f602082860101526020601f19601f83011685010191505092915050565b602081525f61152960208301846117aa565b602081525f611529602083018461158f565b5f5f6040838503121561180d575f5ffd5b82356118188161141c565b915060208301356001600160401b03811115611832575f5ffd5b61183e8582860161171f565b9150509250929050565b606081525f61185a60608301866117aa565b828103602084015261186c81866114d3565b905082810360408401526104ec8185611530565b602080825282516001600160a01b0390811683830152908301518116604080840191909152830151166060808301919091528201516080808301525f906117a260a08401826117aa565b6001600160a01b03831681526040602082018190525f906117a2908301846117aa565b5f602082840312156118fd575f5ffd5b81516115298161141c565b634e487b7160e01b5f52603260045260245ffd5b5f6020828403121561192c575f5ffd5b81516001600160401b03811115611941575f5ffd5b820160808185031215611952575f5ffd5b61195a6116a1565b81516119658161141c565b815260208201516119758161141c565b602082015260408201516119888161141c565b604082015260608201516001600160401b038111156119a5575f5ffd5b80830192505084601f8301126119b9575f5ffd5b81516119c761173c826116f9565b8181528660208386010111156119db575f5ffd5b8160208501602083015e5f918101602001919091526060820152949350505050565b5f60208284031215611a0d575f5ffd5b81516001600160401b03811115611a22575f5ffd5b8201601f81018413611a32575f5ffd5b80516001600160401b03811115611a4b57611a4b61168d565b8060051b611a5b602082016116c9565b91825260208184018101929081019087841115611a76575f5ffd5b6020850194505b83851015611ab057845192506001600160e01b031983168314611a9e575f5ffd5b82825260209485019490910190611a7d565b979650505050505050565b600181811c90821680611acf57607f821691505b602082108103611aed57634e487b7160e01b5f52602260045260245ffd5b50919050565b601f821115611b3a57805f5260205f20601f840160051c81016020851015611b185750805b601f840160051c820191505b81811015611b37575f8155600101611b24565b50505b505050565b81516001600160401b03811115611b5857611b5861168d565b611b6c81611b668454611abb565b84611af3565b6020601f821160018114611b9e575f8315611b875750848201515b5f19600385901b1c1916600184901b178455611b37565b5f84815260208120601f198516915b82811015611bcd5787850151825560209485019460019092019101611bad565b5084821015611bea57868401515f19600387901b60f8161c191681555b50505050600190811b0190555056fea2646970667358221220b957e57ea6cec39ba2494b462f78dd57c1e50c08545a460b987ff3cadbd2937e64736f6c634300081e0033","linkReferences":{}},"methodIdentifiers":{"BATCH_SWAP_FACET()":"a3f1c1a7","BUFFER_ROUTER_FACET()":"be8e1be1","COMPOSITE_LIQUIDITY_ERC4626_FACET()":"f58d59f9","COMPOSITE_LIQUIDITY_NESTED_FACET()":"03abde54","DIAMOND_PACKAGE_FACTORY()":"ab6046ed","ROUTER_ADD_LIQUIDITY_FACET()":"413cf019","ROUTER_COMMON_FACET()":"a30d31e6","ROUTER_INITIALIZE_FACET()":"b84268b8","ROUTER_REMOVE_LIQUIDITY_FACET()":"f340362d","ROUTER_SWAP_FACET()":"a37195bd","calcSalt(bytes)":"d82be56e","deployRouter(address,address,address,string)":"1a96c006","diamondConfig()":"65d375b3","facetAddresses()":"52ef6b2c","facetCuts()":"a4b3ad35","facetInterfaces()":"2ea80826","initAccount(bytes)":"870d4838","packageMetadata()":"f45469e7","packageName()":"abc8b346","postDeploy(address)":"70068fcf","processArgs(bytes)":"87c3adb3","updatePkg(address,bytes)":"a9089235"},"id":922}