{"abi":[{"type":"constructor","inputs":[{"name":"vat_","type":"address","internalType":"address"},{"name":"spotter_","type":"address","internalType":"address"},{"name":"dog_","type":"address","internalType":"address"},{"name":"ilk_","type":"bytes32","internalType":"bytes32"}],"stateMutability":"nonpayable"},{"type":"function","name":"active","inputs":[{"name":"","type":"uint256","internalType":"uint256"}],"outputs":[{"name":"","type":"uint256","internalType":"uint256"}],"stateMutability":"view"},{"type":"function","name":"buf","inputs":[],"outputs":[{"name":"","type":"uint256","internalType":"uint256"}],"stateMutability":"view"},{"type":"function","name":"calc","inputs":[],"outputs":[{"name":"","type":"address","internalType":"contract AbacusLike"}],"stateMutability":"view"},{"type":"function","name":"chip","inputs":[],"outputs":[{"name":"","type":"uint64","internalType":"uint64"}],"stateMutability":"view"},{"type":"function","name":"chost","inputs":[],"outputs":[{"name":"","type":"uint256","internalType":"uint256"}],"stateMutability":"view"},{"type":"function","name":"count","inputs":[],"outputs":[{"name":"","type":"uint256","internalType":"uint256"}],"stateMutability":"view"},{"type":"function","name":"cusp","inputs":[],"outputs":[{"name":"","type":"uint256","internalType":"uint256"}],"stateMutability":"view"},{"type":"function","name":"deny","inputs":[{"name":"usr","type":"address","internalType":"address"}],"outputs":[],"stateMutability":"nonpayable"},{"type":"function","name":"dog","inputs":[],"outputs":[{"name":"","type":"address","internalType":"contract DogLike"}],"stateMutability":"view"},{"type":"function","name":"file","inputs":[{"name":"what","type":"bytes32","internalType":"bytes32"},{"name":"data","type":"uint256","internalType":"uint256"}],"outputs":[],"stateMutability":"nonpayable"},{"type":"function","name":"file","inputs":[{"name":"what","type":"bytes32","internalType":"bytes32"},{"name":"data","type":"address","internalType":"address"}],"outputs":[],"stateMutability":"nonpayable"},{"type":"function","name":"getStatus","inputs":[{"name":"id","type":"uint256","internalType":"uint256"}],"outputs":[{"name":"needsRedo","type":"bool","internalType":"bool"},{"name":"price","type":"uint256","internalType":"uint256"},{"name":"lot","type":"uint256","internalType":"uint256"},{"name":"tab","type":"uint256","internalType":"uint256"}],"stateMutability":"view"},{"type":"function","name":"ilk","inputs":[],"outputs":[{"name":"","type":"bytes32","internalType":"bytes32"}],"stateMutability":"view"},{"type":"function","name":"kick","inputs":[{"name":"tab","type":"uint256","internalType":"uint256"},{"name":"lot","type":"uint256","internalType":"uint256"},{"name":"usr","type":"address","internalType":"address"},{"name":"kpr","type":"address","internalType":"address"}],"outputs":[{"name":"id","type":"uint256","internalType":"uint256"}],"stateMutability":"nonpayable"},{"type":"function","name":"kicks","inputs":[],"outputs":[{"name":"","type":"uint256","internalType":"uint256"}],"stateMutability":"view"},{"type":"function","name":"list","inputs":[],"outputs":[{"name":"","type":"uint256[]","internalType":"uint256[]"}],"stateMutability":"view"},{"type":"function","name":"redo","inputs":[{"name":"id","type":"uint256","internalType":"uint256"},{"name":"kpr","type":"address","internalType":"address"}],"outputs":[],"stateMutability":"nonpayable"},{"type":"function","name":"rely","inputs":[{"name":"usr","type":"address","internalType":"address"}],"outputs":[],"stateMutability":"nonpayable"},{"type":"function","name":"sales","inputs":[{"name":"","type":"uint256","internalType":"uint256"}],"outputs":[{"name":"pos","type":"uint256","internalType":"uint256"},{"name":"tab","type":"uint256","internalType":"uint256"},{"name":"lot","type":"uint256","internalType":"uint256"},{"name":"usr","type":"address","internalType":"address"},{"name":"tic","type":"uint96","internalType":"uint96"},{"name":"top","type":"uint256","internalType":"uint256"}],"stateMutability":"view"},{"type":"function","name":"spotter","inputs":[],"outputs":[{"name":"","type":"address","internalType":"contract SpotterLike"}],"stateMutability":"view"},{"type":"function","name":"stopped","inputs":[],"outputs":[{"name":"","type":"uint256","internalType":"uint256"}],"stateMutability":"view"},{"type":"function","name":"tail","inputs":[],"outputs":[{"name":"","type":"uint256","internalType":"uint256"}],"stateMutability":"view"},{"type":"function","name":"take","inputs":[{"name":"id","type":"uint256","internalType":"uint256"},{"name":"amt","type":"uint256","internalType":"uint256"},{"name":"max","type":"uint256","internalType":"uint256"},{"name":"who","type":"address","internalType":"address"},{"name":"data","type":"bytes","internalType":"bytes"}],"outputs":[],"stateMutability":"nonpayable"},{"type":"function","name":"tip","inputs":[],"outputs":[{"name":"","type":"uint192","internalType":"uint192"}],"stateMutability":"view"},{"type":"function","name":"upchost","inputs":[],"outputs":[],"stateMutability":"nonpayable"},{"type":"function","name":"vat","inputs":[],"outputs":[{"name":"","type":"address","internalType":"contract VatLike"}],"stateMutability":"view"},{"type":"function","name":"vow","inputs":[],"outputs":[{"name":"","type":"address","internalType":"address"}],"stateMutability":"view"},{"type":"function","name":"wards","inputs":[{"name":"","type":"address","internalType":"address"}],"outputs":[{"name":"","type":"uint256","internalType":"uint256"}],"stateMutability":"view"},{"type":"function","name":"yank","inputs":[{"name":"id","type":"uint256","internalType":"uint256"}],"outputs":[],"stateMutability":"nonpayable"},{"type":"event","name":"Deny","inputs":[{"name":"usr","type":"address","indexed":true,"internalType":"address"}],"anonymous":false},{"type":"event","name":"File","inputs":[{"name":"what","type":"bytes32","indexed":true,"internalType":"bytes32"},{"name":"data","type":"uint256","indexed":false,"internalType":"uint256"}],"anonymous":false},{"type":"event","name":"File","inputs":[{"name":"what","type":"bytes32","indexed":true,"internalType":"bytes32"},{"name":"data","type":"address","indexed":false,"internalType":"address"}],"anonymous":false},{"type":"event","name":"Kick","inputs":[{"name":"id","type":"uint256","indexed":true,"internalType":"uint256"},{"name":"top","type":"uint256","indexed":false,"internalType":"uint256"},{"name":"tab","type":"uint256","indexed":false,"internalType":"uint256"},{"name":"lot","type":"uint256","indexed":false,"internalType":"uint256"},{"name":"usr","type":"address","indexed":true,"internalType":"address"},{"name":"kpr","type":"address","indexed":true,"internalType":"address"},{"name":"coin","type":"uint256","indexed":false,"internalType":"uint256"}],"anonymous":false},{"type":"event","name":"Redo","inputs":[{"name":"id","type":"uint256","indexed":true,"internalType":"uint256"},{"name":"top","type":"uint256","indexed":false,"internalType":"uint256"},{"name":"tab","type":"uint256","indexed":false,"internalType":"uint256"},{"name":"lot","type":"uint256","indexed":false,"internalType":"uint256"},{"name":"usr","type":"address","indexed":true,"internalType":"address"},{"name":"kpr","type":"address","indexed":true,"internalType":"address"},{"name":"coin","type":"uint256","indexed":false,"internalType":"uint256"}],"anonymous":false},{"type":"event","name":"Rely","inputs":[{"name":"usr","type":"address","indexed":true,"internalType":"address"}],"anonymous":false},{"type":"event","name":"Take","inputs":[{"name":"id","type":"uint256","indexed":true,"internalType":"uint256"},{"name":"max","type":"uint256","indexed":false,"internalType":"uint256"},{"name":"price","type":"uint256","indexed":false,"internalType":"uint256"},{"name":"owe","type":"uint256","indexed":false,"internalType":"uint256"},{"name":"tab","type":"uint256","indexed":false,"internalType":"uint256"},{"name":"lot","type":"uint256","indexed":false,"internalType":"uint256"},{"name":"usr","type":"address","indexed":true,"internalType":"address"}],"anonymous":false},{"type":"event","name":"Yank","inputs":[{"name":"id","type":"uint256","indexed":false,"internalType":"uint256"}],"anonymous":false}],"bytecode":{"object":"0x60c06040525f600e55348015610013575f5ffd5b506040516123b63803806123b6833981016040819052610032916100da565b6001600160a01b0384811660a052600380546001600160a01b0319908116868416179091556001805490911691841691909117815560808290526b033b2e3c9fd0803ce8000000600555335f8181526020819052604080822093909355915190917fdd0e34038ac38b2a1ce960229778ac48a8719bc900b6c4f8d0475c6e8b385a6091a250505050610122565b80516001600160a01b03811681146100d5575f5ffd5b919050565b5f5f5f5f608085870312156100ed575f5ffd5b6100f6856100bf565b9350610104602086016100bf565b9250610112604086016100bf565b6060959095015193969295505050565b60805160a0516122036101b35f395f81816102260152818161049e0152818161075201528181610d1101528181610dc701528181610e9b01528181610fcf015281816113af01526117fb01525f81816104160152818161047601528181610522015281816106be0152818161078001528181610d4001528181610f1301528181610ffc0152611afd01526122035ff3fe608060405234801561000f575f5ffd5b506004361061015d575f3560e01c806306661abd146101615780630cbb5862146101785780630f560cd71461018257806313d8c8401461019757806315232515146101a057806326e027f1146101a95780632755cd2d146101bc57806329ae8114146101ee5780632e77468d1461020157806336569e771461022157806349ed5931146102485780635c622a0e14610251578063626cb3c51461028657806365fae35e1461029957806375f12b21146102ac5780638033d581146102b557806381a794cb146102c8578063898eb267146102db57806396f1b6be146102ee5780639c52a7f114610301578063b5f522f714610314578063b61500e4146103ab578063ba2cdc75146103d6578063bf353dbb146103df578063c3b3ad7f146103fe578063c5ce281e14610411578063cfdd330214610438578063d4e8be8314610441578063d843416d14610454575b5f5ffd5b600b545b6040519081526020015b60405180910390f35b610180610467565b005b61018a6105b1565b60405161016f9190611d06565b61016560065481565b61016560055481565b6101806101b7366004611d48565b610607565b6008546101d690600160401b90046001600160c01b031681565b6040516001600160c01b03909116815260200161016f565b6101806101fc366004611d5f565b61081d565b600354610214906001600160a01b031681565b60405161016f9190611d7f565b6102147f000000000000000000000000000000000000000000000000000000000000000081565b61016560075481565b61026461025f366004611d48565b6109bd565b604080519415158552602085019390935291830152606082015260800161016f565b600254610214906001600160a01b031681565b6101806102a7366004611daa565b610a47565b610165600e5481565b6101656102c3366004611d48565b610ab9565b6101806102d6366004611dc5565b610ad8565b6101656102e9366004611e5f565b6110ea565b600454610214906001600160a01b031681565b61018061030f366004611daa565b61147b565b61036c610322366004611d48565b600c6020525f9081526040902080546001820154600283015460038401546004909401549293919290916001600160a01b03811691600160a01b9091046001600160601b03169086565b604080519687526020870195909552938501929092526001600160a01b031660608401526001600160601b0316608083015260a082015260c00161016f565b6008546103be906001600160401b031681565b6040516001600160401b03909116815260200161016f565b61016560095481565b6101656103ed366004611daa565b5f6020819052908152604090205481565b600154610214906001600160a01b031681565b6101657f000000000000000000000000000000000000000000000000000000000000000081565b610165600a5481565b61018061044f366004611ea6565b6114ec565b610180610462366004611ea6565b611625565b604051636cb1c69b60e11b81527f000000000000000000000000000000000000000000000000000000000000000060048201525f907f00000000000000000000000000000000000000000000000000000000000000006001600160a01b03169063d9638d369060240160a0604051808303815f875af11580156104ec573d5f5f3e3d5ffd5b505050506040513d601f19601f820116820180604052508101906105109190611ed4565b600154604051631af24ca760e31b81527f000000000000000000000000000000000000000000000000000000000000000060048201529196506105ab95508694506001600160a01b0316925063d792653891506024016020604051808303815f875af1158015610582573d5f5f3e3d5ffd5b505050506040513d601f19601f820116820180604052508101906105a69190611f10565b6118f2565b60095550565b6060600b8054806020026020016040519081016040528092919081815260200182805480156105fd57602002820191905f5260205f20905b8154815260200190600101908083116105e9575b5050505050905090565b335f9081526020819052604090205460011461063e5760405162461bcd60e51b815260040161063590611f27565b60405180910390fd5b600d541561065e5760405162461bcd60e51b815260040161063590611f57565b6001600d555f818152600c60205260409020600301546001600160a01b03166106995760405162461bcd60e51b815260040161063590611f86565b600180545f838152600c60205260409081902090920154915163321c64fd60e21b81527f0000000000000000000000000000000000000000000000000000000000000000600482015260248101929092526001600160a01b03169063c87193f4906044015f604051808303815f87803b158015610714575f5ffd5b505af1158015610726573d5f5f3e3d5ffd5b5050505f828152600c602052604090819020600201549051633088df1760e11b81526001600160a01b037f0000000000000000000000000000000000000000000000000000000000000000169250636111be2e916107ad917f0000000000000000000000000000000000000000000000000000000000000000913091339190600401611fbb565b5f604051808303815f87803b1580156107c4575f5ffd5b505af11580156107d6573d5f5f3e3d5ffd5b505050506107e381611917565b6040518181527f2c5d2826eb5903b8fc201cf48094b858f42f61c7eaac9aaf43ebed490138144e9060200160405180910390a1505f600d55565b335f9081526020819052604090205460011461084b5760405162461bcd60e51b815260040161063590611f27565b600d541561086b5760405162461bcd60e51b815260040161063590611f57565b6001600d5562313ab360e91b82900361088857600581905561097b565b81631d185a5b60e21b036108a057600681905561097b565b81630637573760e41b036108b857600781905561097b565b81630636869760e41b036108e657600880546001600160401b0319166001600160401b03831617905561097b565b816207469760ec1b0361091857600880546001600160401b0316600160401b6001600160c01b0384160217905561097b565b81661cdd1bdc1c195960ca1b0361093357600e81905561097b565b60405162461bcd60e51b815260206004820152601f60248201527f436c69707065722f66696c652d756e7265636f676e697a65642d706172616d006044820152606401610635565b817fe986e40cc8c151830d4f61050f4fb2e4add8567caad2d5f5496f9158e91fe4c7826040516109ad91815260200190565b60405180910390a250505f600d55565b5f818152600c6020526040812060038101546004909101548291829182916001600160a01b03811691600160a01b9091046001600160601b0316908390610a059083906119e4565b965090506001600160a01b03831615801590610a1e5750805b5f988952600c602052604090982060028101546001909101549899969890975095945050505050565b335f90815260208190526040902054600114610a755760405162461bcd60e51b815260040161063590611f27565b6001600160a01b0381165f8181526020819052604080822060019055517fdd0e34038ac38b2a1ce960229778ac48a8719bc900b6c4f8d0475c6e8b385a609190a250565b600b8181548110610ac8575f80fd5b5f91825260209091200154905081565b600d5415610af85760405162461bcd60e51b815260040161063590611f57565b6001600d55600e546003908111610b215760405162461bcd60e51b815260040161063590611fe0565b5f878152600c60205260409020600301546001600160a01b03811690600160a01b90046001600160601b031681610b6a5760405162461bcd60e51b815260040161063590611f86565b5f898152600c60205260408120600401548190610b889084906119e4565b925090508015610bd05760405162461bcd60e51b815260206004820152601360248201527210db1a5c1c195c8bdb9959591ccb5c995cd95d606a1b6044820152606401610635565b5080881015610c195760405162461bcd60e51b8152602060048201526015602482015274436c69707065722f746f6f2d657870656e7369766560581b6044820152606401610635565b5f8a8152600c602052604081206002810154600190910154909180610c3e848e611aa7565b9050610c4a8186611abd565b915082821115610c6857829150610c61858361203b565b9050610cf7565b8282108015610c7657508381105b15610cf75760095480610c89848661205a565b1015610cf557808411610cdc5760405162461bcd60e51b815260206004820152601b60248201527a436c69707065722f6e6f2d7061727469616c2d707572636861736560281b6044820152606401610635565b610ce6818561205a565b9250610cf2868461203b565b91505b505b610d01828461205a565b9250610d0d818561205a565b93507f00000000000000000000000000000000000000000000000000000000000000006001600160a01b0316636111be2e7f0000000000000000000000000000000000000000000000000000000000000000308e856040518563ffffffff1660e01b8152600401610d819493929190611fbb565b5f604051808303815f87803b158015610d98575f5ffd5b505af1158015610daa573d5f5f3e3d5ffd5b50506001546001600160a01b03169150508915801590610dfc57507f00000000000000000000000000000000000000000000000000000000000000006001600160a01b03168c6001600160a01b031614155b8015610e1a5750806001600160a01b03168c6001600160a01b031614155b15610e81578b6001600160a01b0316638452c10e3385858f8f6040518663ffffffff1660e01b8152600401610e5395949392919061206d565b5f604051808303815f87803b158015610e6a575f5ffd5b505af1158015610e7c573d5f5f3e3d5ffd5b505050505b60025460405163bb35783b60e01b81526001600160a01b037f000000000000000000000000000000000000000000000000000000000000000081169263bb35783b92610ed5923392169088906004016120b8565b5f604051808303815f87803b158015610eec575f5ffd5b505af1158015610efe573d5f5f3e3d5ffd5b50505050806001600160a01b031663c87193f47f0000000000000000000000000000000000000000000000000000000000000000875f14610f3f5785610f49565b610f4986886120dc565b6040516001600160e01b031960e085901b168152600481019290925260248201526044015f604051808303815f87803b158015610f84575f5ffd5b505af1158015610f96573d5f5f3e3d5ffd5b505050505050825f03610fb157610fac8d611917565b61107b565b815f0361106057604051633088df1760e11b81526001600160a01b037f00000000000000000000000000000000000000000000000000000000000000001690636111be2e9061102a907f00000000000000000000000000000000000000000000000000000000000000009030908b908990600401611fbb565b5f604051808303815f87803b158015611041575f5ffd5b505af1158015611053573d5f5f3e3d5ffd5b50505050610fac8d611917565b5f8d8152600c60205260409020600181018390556002018390555b604080518c81526020810186905290810182905260608101839052608081018490526001600160a01b038716908e907f05e309fd6ce72f2ab888a20056bb4210df08daed86f21f95053deb19964d86b19060a00160405180910390a350505f600d555050505050505050505050565b335f908152602081905260408120546001146111185760405162461bcd60e51b815260040161063590611f27565b600d54156111385760405162461bcd60e51b815260040161063590611f57565b6001600d819055600e5481116111605760405162461bcd60e51b815260040161063590611fe0565b5f86116111a25760405162461bcd60e51b815260206004820152601060248201526f21b634b83832b917bd32b93796ba30b160811b6044820152606401610635565b5f85116111e45760405162461bcd60e51b815260206004820152601060248201526f10db1a5c1c195c8bde995c9bcb5b1bdd60821b6044820152606401610635565b6001600160a01b03841661122d5760405162461bcd60e51b815260206004820152601060248201526f21b634b83832b917bd32b93796bab9b960811b6044820152606401610635565b600a5f815461123b906120ef565b91829055509150816112825760405162461bcd60e51b815260206004820152601060248201526f436c69707065722f6f766572666c6f7760801b6044820152606401610635565b600b8054600181810183555f8390527f0175b7a638427703f0dbe7bb9bbf987a2551717b34e79f33b5b1008d1fa01db990910184905590546112c4919061205a565b5f838152600c6020526040812091825560018201889055600282018790556001600160601b034216600160a01b026001600160a01b03871617600390920191909155611319611311611aeb565b600554611cba565b90505f811161133a5760405162461bcd60e51b815260040161063590612107565b5f838152600c602052604081206004018290556008546001600160c01b03600160401b820416916001600160401b03909116908215158061137a57505f82115b15611417576113928361138d8c856118f2565b611cd1565b60025460405163f24e23eb60e01b81529192506001600160a01b037f000000000000000000000000000000000000000000000000000000000000000081169263f24e23eb926113e99216908b9086906004016120b8565b5f604051808303815f87803b158015611400575f5ffd5b505af1158015611412573d5f5f3e3d5ffd5b505050505b866001600160a01b0316886001600160a01b0316877f7c5bfdc0a5e8192f6cd4972f382cec69116862fb62e6abff8003874c58e064b8878e8e876040516114619493929190612137565b60405180910390a450505f600d5550919695505050505050565b335f908152602081905260409020546001146114a95760405162461bcd60e51b815260040161063590611f27565b6001600160a01b0381165f81815260208190526040808220829055517f184450df2e323acec0ed3b5c7531b81f9b4cdef7914dfd4c0a4317416bb5251b9190a250565b335f9081526020819052604090205460011461151a5760405162461bcd60e51b815260040161063590611f27565b600d541561153a5760405162461bcd60e51b815260040161063590611f57565b6001600d556639b837ba3a32b960c91b82900361157157600380546001600160a01b0319166001600160a01b0383161790556115f5565b8162646f6760e81b0361159e57600180546001600160a01b0319166001600160a01b0383161790556115f5565b8162766f7760e81b036115cb57600280546001600160a01b0319166001600160a01b0383161790556115f5565b816363616c6360e01b0361093357600480546001600160a01b0319166001600160a01b0383161790555b817f8fef588b5fc1afbf5b2f06c1a435d513f208da2e6704c3d8f0e0ec91167066ba826040516109ad9190611d7f565b600d54156116455760405162461bcd60e51b815260040161063590611f57565b6001600d55600e54600290811161166e5760405162461bcd60e51b815260040161063590611fe0565b5f838152600c6020526040902060038101546004909101546001600160a01b03821691600160a01b90046001600160601b031690826116bf5760405162461bcd60e51b815260040161063590611f86565b5f6116ca83836119e4565b509050806117115760405162461bcd60e51b815260206004820152601460248201527310db1a5c1c195c8bd8d85b9b9bdd0b5c995cd95d60621b6044820152606401610635565b5f878152600c6020526040812060018101546002820154600390920180546001600160a01b0316600160a01b426001600160601b03160217905591611754611aeb565b905061176281600554611cba565b94505f85116117835760405162461bcd60e51b815260040161063590612107565b5f8a8152600c602052604081206004018690556008546001600160c01b03600160401b820416916001600160401b0390911690821515806117c357505f82115b1561188d576009548087108015906117e45750806117e18787611abd565b10155b1561188b576117f78461138d89866118f2565b91507f00000000000000000000000000000000000000000000000000000000000000006001600160a01b031663f24e23eb60025f9054906101000a90046001600160a01b03168f856040518463ffffffff1660e01b815260040161185d939291906120b8565b5f604051808303815f87803b158015611874575f5ffd5b505af1158015611886573d5f5f3e3d5ffd5b505050505b505b8b6001600160a01b03168a6001600160a01b03168e7f275de7ecdd375b5e8049319f8b350686131c219dd4dc450a08e9cf83b03c865f8b8a8a876040516118d79493929190612137565b60405180910390a450505f600d555050505050505050505050565b5f670de0b6b3a76400006119068484611abd565b611910919061203b565b9392505050565b600b80545f919061192a9060019061205a565b8154811061193a5761193a612152565b905f5260205f200154905080821461198f575f828152600c6020526040902054600b80548391908390811061197157611971612152565b5f918252602080832090910192909255838152600c90915260409020555b600b8054806119a0576119a0612166565b5f828152602080822083015f19908101839055909201909255928152600c909252506040812081815560018101829055600281018290556003810182905560040155565b6004545f9081906001600160a01b031663487a239584611a0d426001600160601b038916611ce0565b6040516001600160e01b031960e085901b16815260048101929092526024820152604401602060405180830381865afa158015611a4c573d5f5f3e3d5ffd5b505050506040513d601f19601f82011682018060405250810190611a709190611f10565b9050600654611a8842866001600160601b0316611ce0565b1180611a9e5750600754611a9c8285611cef565b105b91509250929050565b5f81831115611ab65781611910565b5090919050565b5f811580611add57505080820282828281611ada57611ada612013565b04145b611ae5575f5ffd5b92915050565b600354604051636cb1c69b60e11b81527f000000000000000000000000000000000000000000000000000000000000000060048201525f9182916001600160a01b039091169063d9638d369060240160408051808303815f875af1158015611b55573d5f5f3e3d5ffd5b505050506040513d601f19601f82011682018060405250810190611b79919061217a565b5090505f5f826001600160a01b03166359e02dd76040518163ffffffff1660e01b815260040160408051808303815f875af1158015611bba573d5f5f3e3d5ffd5b505050506040513d601f19601f82011682018060405250810190611bde91906121a6565b9150915080611c275760405162461bcd60e51b8152602060048201526015602482015274436c69707065722f696e76616c69642d707269636560581b6044820152606401610635565b611cb2611c3883633b9aca00611abd565b60035f9054906101000a90046001600160a01b03166001600160a01b031663495d32cb6040518163ffffffff1660e01b81526004016020604051808303815f875af1158015611c89573d5f5f3e3d5ffd5b505050506040513d601f19601f82011682018060405250810190611cad9190611f10565b611cef565b935050505090565b5f676765c793fa10079d601b1b6119068484611abd565b80820182811015611ae5575f5ffd5b80820382811115611ae5575f5ffd5b5f8161190684676765c793fa10079d601b1b611abd565b602080825282518282018190525f918401906040840190835b81811015611d3d578351835260209384019390920191600101611d1f565b509095945050505050565b5f60208284031215611d58575f5ffd5b5035919050565b5f5f60408385031215611d70575f5ffd5b50508035926020909101359150565b6001600160a01b0391909116815260200190565b6001600160a01b0381168114611da7575f5ffd5b50565b5f60208284031215611dba575f5ffd5b813561191081611d93565b5f5f5f5f5f5f60a08789031215611dda575f5ffd5b8635955060208701359450604087013593506060870135611dfa81611d93565b925060808701356001600160401b03811115611e14575f5ffd5b8701601f81018913611e24575f5ffd5b80356001600160401b03811115611e39575f5ffd5b896020828401011115611e4a575f5ffd5b60208201935080925050509295509295509295565b5f5f5f5f60808587031215611e72575f5ffd5b84359350602085013592506040850135611e8b81611d93565b91506060850135611e9b81611d93565b939692955090935050565b5f5f60408385031215611eb7575f5ffd5b823591506020830135611ec981611d93565b809150509250929050565b5f5f5f5f5f60a08688031215611ee8575f5ffd5b5050835160208501516040860151606087015160809097015192989197509594509092509050565b5f60208284031215611f20575f5ffd5b5051919050565b60208082526016908201527510db1a5c1c195c8bdb9bdd0b585d5d1a1bdc9a5e995960521b604082015260600190565b60208082526015908201527410db1a5c1c195c8bdcde5cdd195b4b5b1bd8dad959605a1b604082015260600190565b6020808252601b908201527a21b634b83832b917b737ba16b93ab73734b73396b0bab1ba34b7b760291b604082015260600190565b9384526001600160a01b03928316602085015291166040830152606082015260800190565b60208082526019908201527810db1a5c1c195c8bdcdd1bdc1c19590b5a5b98dbdc9c9958dd603a1b604082015260600190565b634e487b7160e01b5f52601260045260245ffd5b634e487b7160e01b5f52601160045260245ffd5b5f8261205557634e487b7160e01b5f52601260045260245ffd5b500490565b81810381811115611ae557611ae5612027565b60018060a01b038616815284602082015283604082015260806060820152816080820152818360a08301375f81830160a090810191909152601f909201601f19160101949350505050565b6001600160a01b039384168152919092166020820152604081019190915260600190565b80820180821115611ae557611ae5612027565b5f6001820161210057612100612027565b5060010190565b602080825260169082015275436c69707065722f7a65726f2d746f702d707269636560501b604082015260600190565b93845260208401929092526040830152606082015260800190565b634e487b7160e01b5f52603260045260245ffd5b634e487b7160e01b5f52603160045260245ffd5b5f5f6040838503121561218b575f5ffd5b825161219681611d93565b6020939093015192949293505050565b5f5f604083850312156121b7575f5ffd5b8251915060208301518015158114611ec9575f5ffdfea26469706673582212209026bf251c9958bbd8ab7df1b3072b10396a191d8bea73539ab32b17b17b5af464736f6c634300081e0033","linkReferences":{}},"methodIdentifiers":{"active(uint256)":"8033d581","buf()":"15232515","calc()":"96f1b6be","chip()":"b61500e4","chost()":"ba2cdc75","count()":"06661abd","cusp()":"49ed5931","deny(address)":"9c52a7f1","dog()":"c3b3ad7f","file(bytes32,address)":"d4e8be83","file(bytes32,uint256)":"29ae8114","getStatus(uint256)":"5c622a0e","ilk()":"c5ce281e","kick(uint256,uint256,address,address)":"898eb267","kicks()":"cfdd3302","list()":"0f560cd7","redo(uint256,address)":"d843416d","rely(address)":"65fae35e","sales(uint256)":"b5f522f7","spotter()":"2e77468d","stopped()":"75f12b21","tail()":"13d8c840","take(uint256,uint256,uint256,address,bytes)":"81a794cb","tip()":"2755cd2d","upchost()":"0cbb5862","vat()":"36569e77","vow()":"626cb3c5","wards(address)":"bf353dbb","yank(uint256)":"26e027f1"},"id":683}