{"abi":[{"type":"function","name":"computeBalance","inputs":[{"name":"balancesLiveScaled18","type":"uint256[]","internalType":"uint256[]"},{"name":"tokenInIndex","type":"uint256","internalType":"uint256"},{"name":"invariantRatio","type":"uint256","internalType":"uint256"}],"outputs":[{"name":"newBalance","type":"uint256","internalType":"uint256"}],"stateMutability":"view"},{"type":"function","name":"computeInvariant","inputs":[{"name":"balancesLiveScaled18","type":"uint256[]","internalType":"uint256[]"},{"name":"rounding","type":"uint8","internalType":"enum Rounding"}],"outputs":[{"name":"invariant","type":"uint256","internalType":"uint256"}],"stateMutability":"view"},{"type":"function","name":"get2CLPParams","inputs":[],"outputs":[{"name":"sqrtAlpha","type":"uint256","internalType":"uint256"},{"name":"sqrtBeta","type":"uint256","internalType":"uint256"}],"stateMutability":"view"},{"type":"function","name":"getMaximumInvariantRatio","inputs":[],"outputs":[{"name":"","type":"uint256","internalType":"uint256"}],"stateMutability":"pure"},{"type":"function","name":"getMaximumSwapFeePercentage","inputs":[],"outputs":[{"name":"","type":"uint256","internalType":"uint256"}],"stateMutability":"pure"},{"type":"function","name":"getMinimumInvariantRatio","inputs":[],"outputs":[{"name":"","type":"uint256","internalType":"uint256"}],"stateMutability":"pure"},{"type":"function","name":"getMinimumSwapFeePercentage","inputs":[],"outputs":[{"name":"","type":"uint256","internalType":"uint256"}],"stateMutability":"pure"},{"type":"function","name":"onSwap","inputs":[{"name":"params","type":"tuple","internalType":"struct PoolSwapParams","components":[{"name":"kind","type":"uint8","internalType":"enum SwapKind"},{"name":"amountGivenScaled18","type":"uint256","internalType":"uint256"},{"name":"balancesScaled18","type":"uint256[]","internalType":"uint256[]"},{"name":"indexIn","type":"uint256","internalType":"uint256"},{"name":"indexOut","type":"uint256","internalType":"uint256"},{"name":"router","type":"address","internalType":"address"},{"name":"userData","type":"bytes","internalType":"bytes"}]}],"outputs":[{"name":"amountCalculatedScaled18","type":"uint256","internalType":"uint256"}],"stateMutability":"view"},{"type":"error","name":"AssetBoundsExceeded","inputs":[]},{"type":"error","name":"SqrtParamsWrong","inputs":[]},{"type":"error","name":"ZeroDivision","inputs":[]}],"bytecode":{"object":"0x6080604052348015600e575f5ffd5b506111438061001c5f395ff3fe608060405234801561000f575f5ffd5b5060043610610076575f3560e01c806316a0b3e01461007a578063273c1adf146100a0578063654cf15d146100a757806372c98186146100b5578063984de9e8146100c8578063b677fa56146100db578063ce20ece7146100e1578063f3808f84146100ec575b5f5ffd5b61008d610088366004610f1e565b610109565b6040519081526020015b60405180910390f35b5f1961008d565b670de0b6b3a764000061008d565b61008d6100c3366004610f67565b6101e6565b61008d6100d6366004610fac565b6102b2565b5f61008d565b64e8d4a5100061008d565b6100f46102d6565b60408051928352602083019190915201610097565b5f5f5f6101146102e8565b915091505f6101258784845f610335565b90506101318186610368565b90505f61013e828061100e565b90505f61014b8385610394565b90505f61015884876103be565b9050885f036101a357816101928b60018151811061017857610178611025565b60200260200101518361018b9190611039565b85906103de565b61019c919061104c565b96506101d9565b806101cc8b5f815181106101b9576101b9611025565b60200260200101518461018b9190611039565b6101d6919061104c565b96505b5050505050509392505050565b5f606082013515816101fb604085018561105f565b856060013581811061020f5761020f611025565b9050602002013590505f848060400190610229919061105f565b866080013581811061023d5761023d611025565b9050602002013590505f5f610253848487610410565b90925090505f61026660208901896110bf565b6001811115610277576102776110ab565b036102945761028d8484896020013585856104f9565b95506102a8565b6102a5848489602001358585610556565b95505b5050505050919050565b5f5f5f6102bd6102e8565b915091506102cd85838387610335565b95945050505050565b5f5f6102e06102e8565b915091509091565b7f0e608ce83d5ad53eaabbef5644dd88ffe25c904c499deca068a8868b93a5bb23547f0e608ce83d5ad53eaabbef5644dd88ffe25c904c499deca068a8868b93a5bb24545f9182916102e0565b5f5f5f5f5f610346898989896105bb565b935093509350935061035b848484848a610813565b9998505050505050505050565b5f80610374838561100e565b90506001670de0b6b3a76400006001830304018115150291505092915050565b5f806103a8670de0b6b3a76400008561100e565b90506103b483826110da565b9150505b92915050565b5f806103ca838561100e565b90506103b4670de0b6b3a7640000826110da565b5f815f036103ff57604051630a0c22c760e01b815260040160405180910390fd5b508115155f19909201046001010290565b6040805160028082526060820183525f92839283929091602083019080368337019050509050836104415784610443565b855b815f8151811061045557610455611025565b6020026020010181815250508361046c578561046e565b845b8160018151811061048157610481611025565b6020026020010181815250505f5f6104976102e8565b915091505f6104a98484846001610335565b905086156104d1576104bc81835f6108ce565b95506104ca81846001610909565b94506104ed565b6104dc81845f610909565b95506104ea818360016108ce565b94505b50505050935093915050565b5f806105058488611039565b90505f6105128488611039565b90506105316105218784611039565b61052b83896103be565b90610394565b92505050848111156102cd576040516301dd20c360e11b815260040160405180910390fd5b5f84841115610578576040516301dd20c360e11b815260040160405180910390fd5b5f6105838488611039565b90505f6105908488611039565b90506105af61059f878361104c565b6105a98489610368565b90610937565b98975050505050505050565b5f808080610e6460018660018111156105d6576105d66110ab565b146105e3576109376105e7565b6103945b9050610e646001876001811115610600576106006110ab565b1461060d57610368610611565b6103be5b9050610e64600188600181111561062a5761062a6110ab565b14610637576103be61063b565b6103685b905061064b8a8a8563ffffffff16565b61065d90670de0b6b3a764000061104c565b96505f6106888c60018151811061067657610676611025565b60200260200101518b8663ffffffff16565b90505f6106b28d5f815181106106a0576106a0611025565b60200260200101518d8663ffffffff16565b90506106be8183611039565b97506107018d5f815181106106d5576106d5611025565b60200260200101518e6001815181106106f0576106f0611025565b60200260200101518663ffffffff16565b9550505061074e61074461073a8d5f8151811061072057610720611025565b60200260200101518e5f815181106106f0576106f0611025565b8c8563ffffffff16565b8b8463ffffffff16565b94505f6107b76107a26107988e5f8151811061076c5761076c611025565b60200260200101518f60018151811061078757610787611025565b60200260200101518763ffffffff16565b8d8663ffffffff16565b6107ad90600261100e565b8b8663ffffffff16565b90505f6107ea6107d38e60018151811061076c5761076c611025565b6107e18d8e8763ffffffff16565b8763ffffffff16565b9050806107f78389611039565b6108019190611039565b96505050505050945094509450949050565b5f610e64600183600181111561082b5761082b6110ab565b146108385761036861083c565b6103be5b9050610e646001846001811115610855576108556110ab565b1461086257610937610866565b6103945b90505f61087489600261100e565b90505f6108856107ad88600461100e565b90505f610892828a611039565b90505f6108a0826005610952565b90505f6108ad828d611039565b90506108bd81868863ffffffff16565b9d9c50505050505050505050505050565b5f60018260018111156108e3576108e36110ab565b146108f7576108f28484610937565b610901565b6109018484610394565b949350505050565b5f600182600181111561091e5761091e6110ab565b1461092d576108f28484610368565b61090184846103be565b5f61094b83670de0b6b3a764000084610b6a565b9392505050565b5f825f0361096157505f6103b8565b5f61096b84610baf565b9050600281610982670de0b6b3a76400008761100e565b61098c91906110da565b6109969083611039565b6109a091906110da565b90506002816109b7670de0b6b3a76400008761100e565b6109c191906110da565b6109cb9083611039565b6109d591906110da565b90506002816109ec670de0b6b3a76400008761100e565b6109f691906110da565b610a009083611039565b610a0a91906110da565b9050600281610a21670de0b6b3a76400008761100e565b610a2b91906110da565b610a359083611039565b610a3f91906110da565b9050600281610a56670de0b6b3a76400008761100e565b610a6091906110da565b610a6a9083611039565b610a7491906110da565b9050600281610a8b670de0b6b3a76400008761100e565b610a9591906110da565b610a9f9083611039565b610aa991906110da565b9050600281610ac0670de0b6b3a76400008761100e565b610aca91906110da565b610ad49083611039565b610ade91906110da565b90505f610aeb82806103be565b9050610af78285610368565b610b019086611039565b8111158015610b235750610b158285610368565b610b1f908661104c565b8110155b610b625760405162461bcd60e51b815260206004820152600c60248201526b17dcdc5c9d0811905253115160a21b604482015260640160405180910390fd5b509392505050565b5f815f03610b8b57604051630a0c22c760e01b815260040160405180910390fd5b5f610b96848661100e565b9050600183600183030401811515029150509392505050565b5f670de0b6b3a76400008210610be857670de0b6b3a7640000610bda610bd582856110da565b610d8f565b6001901b6103b8919061100e565b600a8211610bfb575063bc7c871c919050565b60648211610c0f57506402540be400919050565b6103e88211610c24575064075cdd4719919050565b6127108211610c39575064174876e800919050565b620186a08211610c4f57506449a0a4c700919050565b620f42408211610c65575064e8d4a51000919050565b629896808211610c7c57506502e0466fc608919050565b6305f5e1008211610c9457506509184e72a000919050565b633b9aca008211610cac5750651cc2c05dbc53919050565b6402540be4008211610cc55750655af3107a4000919050565b64174876e8008211610cdf575066011f9b83a95b45919050565b64e8d4a510008211610cf9575066038d7ea4c68000919050565b6509184e72a0008211610d145750660b3c13249d90bb919050565b655af3107a40008211610d2f5750662386f26fc10000919050565b66038d7ea4c680008211610d4b5750667058bf6e27a751919050565b662386f26fc100008211610d68575067016345785d8a0000919050565b67016345785d8a00008211610d865750670463777a4d8c892d919050565b5090565b919050565b5f600160801b8210610db05760809190911c90610dad604082611039565b90505b600160401b8210610dd05760409190911c90610dcd602082611039565b90505b600160201b8210610df05760209190911c90610ded601082611039565b90505b620100008210610e0f5760109190911c90610e0c600882611039565b90505b6101008210610e2d5760089190911c90610e2a600482611039565b90505b60108210610e4a5760049190911c90610e47600282611039565b90505b60048210610d8a5760029190911c906103b8600182611039565b610e6c6110f9565b565b634e487b7160e01b5f52604160045260245ffd5b5f82601f830112610e91575f5ffd5b81356001600160401b03811115610eaa57610eaa610e6e565b604051600582901b90603f8201601f191681016001600160401b0381118282101715610ed857610ed8610e6e565b604052918252602081850181019290810186841115610ef5575f5ffd5b6020860192505b83831015610f14578235815260209283019201610efc565b5095945050505050565b5f5f5f60608486031215610f30575f5ffd5b83356001600160401b03811115610f45575f5ffd5b610f5186828701610e82565b9660208601359650604090950135949350505050565b5f60208284031215610f77575f5ffd5b81356001600160401b03811115610f8c575f5ffd5b820160e0818503121561094b575f5ffd5b60028110610fa9575f5ffd5b50565b5f5f60408385031215610fbd575f5ffd5b82356001600160401b03811115610fd2575f5ffd5b610fde85828601610e82565b9250506020830135610fef81610f9d565b809150509250929050565b634e487b7160e01b5f52601160045260245ffd5b80820281158282048414176103b8576103b8610ffa565b634e487b7160e01b5f52603260045260245ffd5b808201808211156103b8576103b8610ffa565b818103818111156103b8576103b8610ffa565b5f5f8335601e19843603018112611074575f5ffd5b8301803591506001600160401b0382111561108d575f5ffd5b6020019150600581901b36038213156110a4575f5ffd5b9250929050565b634e487b7160e01b5f52602160045260245ffd5b5f602082840312156110cf575f5ffd5b813561094b81610f9d565b5f826110f457634e487b7160e01b5f52601260045260245ffd5b500490565b634e487b7160e01b5f52605160045260245ffdfea26469706673582212202d9223858e9604bee3fe055c49fa593819ba83a8be7a060e3f0bc46950e7171f64736f6c634300081e0033","linkReferences":{}},"methodIdentifiers":{"computeBalance(uint256[],uint256,uint256)":"16a0b3e0","computeInvariant(uint256[],uint8)":"984de9e8","get2CLPParams()":"f3808f84","getMaximumInvariantRatio()":"273c1adf","getMaximumSwapFeePercentage()":"654cf15d","getMinimumInvariantRatio()":"b677fa56","getMinimumSwapFeePercentage()":"ce20ece7","onSwap((uint8,uint256,uint256[],uint256,uint256,address,bytes))":"72c98186"},"id":867}