{"abi":[{"type":"function","name":"absSub","inputs":[{"name":"a","type":"uint256","internalType":"uint256"},{"name":"b","type":"uint256","internalType":"uint256"}],"outputs":[{"name":"","type":"uint256","internalType":"uint256"}],"stateMutability":"pure"},{"type":"function","name":"calculateImbalance","inputs":[{"name":"balancesScaled18","type":"uint256[]","internalType":"uint256[]"}],"outputs":[{"name":"","type":"uint256","internalType":"uint256"}],"stateMutability":"pure"},{"type":"function","name":"findMedian","inputs":[{"name":"sortedBalancesScaled18","type":"uint256[]","internalType":"uint256[]"}],"outputs":[{"name":"","type":"uint256","internalType":"uint256"}],"stateMutability":"pure"}],"bytecode":{"object":"0x6080604052348015600e575f5ffd5b506104cb8061001c5f395ff3fe608060405234801561000f575f5ffd5b506004361061003f575f3560e01c80633a238841146100435780633bbca58714610068578063a8ca698b1461007b575b5f5ffd5b61005661005136600461030f565b61008e565b60405190815260200160405180910390f35b61005661007636600461030f565b61009e565b6100566100893660046103d6565b6100a8565b5f610098826100ba565b92915050565b5f6100988261016d565b5f6100b383836101f9565b9392505050565b5f5f6100c58361020f565b90505f600282516100d6919061041e565b9050600282516100e69190610431565b5f0361014a57600282828151811061010057610100610444565b6020026020010151836001846101169190610458565b8151811061012657610126610444565b6020026020010151610138919061046b565b610142919061041e565b949350505050565b81818151811061015c5761015c610444565b602002602001015192505050919050565b5f5f610178836100ba565b90505f80805b85518110156101e55785818151811061019957610199610444565b6020026020010151836101ac919061046b565b92506101d18682815181106101c3576101c3610444565b6020026020010151856101f9565b6101db908361046b565b915060010161017e565b506101f08183610224565b95945050505050565b5f818311610209578282036100b3565b50900390565b606061021d82610244610248565b5090919050565b5f80610238670de0b6b3a76400008561047e565b9050610142838261041e565b1190565b606061021d6020840161025a85610260565b84610277565b5f81516020026102708360200190565b0192915050565b6040838303101561028757505050565b5f610290845190565b905083602081015b848110156102d2576102b56102ab825190565b848663ffffffff16565b156102ca576020919091018051825182528252905b602001610298565b5084518151865281526102e6858285610277565b6102f4816020018585610277565b5050505050565b634e487b7160e01b5f52604160045260245ffd5b5f6020828403121561031f575f5ffd5b81356001600160401b03811115610334575f5ffd5b8201601f81018413610344575f5ffd5b80356001600160401b0381111561035d5761035d6102fb565b604051600582901b90603f8201601f191681016001600160401b038111828210171561038b5761038b6102fb565b6040529182526020818401810192908101878411156103a8575f5ffd5b6020850194505b838510156103cb578435808252602095860195909350016103af565b509695505050505050565b5f5f604083850312156103e7575f5ffd5b50508035926020909101359150565b634e487b7160e01b5f52601260045260245ffd5b634e487b7160e01b5f52601160045260245ffd5b5f8261042c5761042c6103f6565b500490565b5f8261043f5761043f6103f6565b500690565b634e487b7160e01b5f52603260045260245ffd5b818103818111156100985761009861040a565b808201808211156100985761009861040a565b80820281158282048414176100985761009861040a56fea26469706673582212204b2ed8ef985fd14f1a1560460131cc111abdf8eff0e99f597ba35c2e6ec536e264736f6c634300081e0033","linkReferences":{}},"methodIdentifiers":{"absSub(uint256,uint256)":"a8ca698b","calculateImbalance(uint256[])":"3bbca587","findMedian(uint256[])":"3a238841"},"id":146}