{"abi":[{"type":"function","name":"facetFuncs","inputs":[],"outputs":[{"name":"funcs","type":"bytes4[]","internalType":"bytes4[]"}],"stateMutability":"pure"},{"type":"function","name":"facetInterfaces","inputs":[],"outputs":[{"name":"interfaces","type":"bytes4[]","internalType":"bytes4[]"}],"stateMutability":"pure"},{"type":"function","name":"facetMetadata","inputs":[],"outputs":[{"name":"name_","type":"string","internalType":"string"},{"name":"interfaces","type":"bytes4[]","internalType":"bytes4[]"},{"name":"functions","type":"bytes4[]","internalType":"bytes4[]"}],"stateMutability":"pure"},{"type":"function","name":"facetName","inputs":[],"outputs":[{"name":"name","type":"string","internalType":"string"}],"stateMutability":"pure"},{"type":"function","name":"mintToken","inputs":[{"name":"token","type":"address","internalType":"contract IERC20MintBurn"},{"name":"amount","type":"uint256","internalType":"uint256"},{"name":"recipient","type":"address","internalType":"address"}],"outputs":[{"name":"","type":"bool","internalType":"bool"}],"stateMutability":"nonpayable"},{"type":"error","name":"MinimumMintInternalNotMet","inputs":[{"name":"lastMintTimestamp","type":"uint256","internalType":"uint256"},{"name":"currentTimestamp","type":"uint256","internalType":"uint256"},{"name":"minMintInterval","type":"uint256","internalType":"uint256"}]}],"bytecode":{"object":"0x6080604052348015600e575f5ffd5b5061050c8061001c5f395ff3fe608060405234801561000f575f5ffd5b5060043610610055575f3560e01c80632ea8082614610059578063574a4cff146100775780635b6f4d011461007f5780636dfada8614610094578063f10d7a75146100b7575b5f5ffd5b6100616100ce565b60405161006e9190610393565b60405180910390f35b610061610126565b610087610162565b60405161006e91906103da565b6100a76100a2366004610403565b610192565b604051901515815260200161006e565b6100bf6102a8565b60405161006e93929190610442565b604080516001808252818301909252606091602080830190803683370190505090506336fd6d4360e11b815f8151811061010a5761010a610484565b6001600160e01b03199092166020928302919091019091015290565b60408051600180825281830190925260609160208083019080368337019050509050636dfada8660e01b815f8151811061010a5761010a610484565b604080518082019091526016815275115490cc8c135a5b9d195c919858d85919519858d95d60521b602082015290565b5f5f61019c6102d0565b90505f6101a9828761032e565b90505f6101b7836001015490565b90506101c38183610498565b4210156101f6576040516252d0a960e71b8152600481018390524260248201526044810182905260640160405180910390fd5b5f6101ff845490565b90508087111561020d578096505b6001600160a01b0386165f90815260028501602052604090204290556040516340c10f1960e01b81526001600160a01b038781166004830152602482018990528916906340c10f19906044016020604051808303815f875af1158015610275573d5f5f3e3d5ffd5b505050506040513d601f19601f8201168201806040525081019061029991906104b7565b50600198975050505050505050565b60608060606102b5610162565b92506102bf6100ce565b91506102c9610126565b9050909192565b5f610329604051602001610310906020808252601890820152776569702e6572632e32302e6d696e7465722e66616361646560401b604082015260600190565b6040516020818303038152906040528051906020012090565b905090565b6001600160a01b0381165f9081526002830160205260409020545b92915050565b5f8151808452602084019350602083015f5b828110156103895781516001600160e01b031916865260209586019590910190600101610361565b5093949350505050565b602081525f6103a5602083018461034f565b9392505050565b5f81518084528060208401602086015e5f602082860101526020601f19601f83011685010191505092915050565b602081525f6103a560208301846103ac565b6001600160a01b0381168114610400575f5ffd5b50565b5f5f5f60608486031215610415575f5ffd5b8335610420816103ec565b9250602084013591506040840135610437816103ec565b809150509250925092565b606081525f61045460608301866103ac565b8281036020840152610466818661034f565b9050828103604084015261047a818561034f565b9695505050505050565b634e487b7160e01b5f52603260045260245ffd5b8082018082111561034957634e487b7160e01b5f52601160045260245ffd5b5f602082840312156104c7575f5ffd5b815180151581146103a5575f5ffdfea26469706673582212201da4faedeb1ce98ba061efde8ce3d5779109803558e2af4206518781d4dea20064736f6c634300081e0033","linkReferences":{}},"methodIdentifiers":{"facetFuncs()":"574a4cff","facetInterfaces()":"2ea80826","facetMetadata()":"f10d7a75","facetName()":"5b6f4d01","mintToken(address,uint256,address)":"6dfada86"},"id":1313}