{"abi":[{"type":"constructor","inputs":[],"stateMutability":"nonpayable"},{"type":"function","name":"DOMAIN_SEPARATOR","inputs":[],"outputs":[{"name":"","type":"bytes32","internalType":"bytes32"}],"stateMutability":"view"},{"type":"function","name":"PERMIT_TYPEHASH","inputs":[],"outputs":[{"name":"","type":"bytes32","internalType":"bytes32"}],"stateMutability":"view"},{"type":"function","name":"allowance","inputs":[{"name":"","type":"address","internalType":"address"},{"name":"","type":"address","internalType":"address"}],"outputs":[{"name":"","type":"uint256","internalType":"uint256"}],"stateMutability":"view"},{"type":"function","name":"approve","inputs":[{"name":"spender","type":"address","internalType":"address"},{"name":"value","type":"uint256","internalType":"uint256"}],"outputs":[{"name":"","type":"bool","internalType":"bool"}],"stateMutability":"nonpayable"},{"type":"function","name":"balanceOf","inputs":[{"name":"","type":"address","internalType":"address"}],"outputs":[{"name":"","type":"uint256","internalType":"uint256"}],"stateMutability":"view"},{"type":"function","name":"decimals","inputs":[],"outputs":[{"name":"","type":"uint8","internalType":"uint8"}],"stateMutability":"view"},{"type":"function","name":"eip712Domain","inputs":[],"outputs":[{"name":"fields","type":"bytes1","internalType":"bytes1"},{"name":"name","type":"string","internalType":"string"},{"name":"version","type":"string","internalType":"string"},{"name":"chainId","type":"uint256","internalType":"uint256"},{"name":"verifyingContract","type":"address","internalType":"address"},{"name":"salt","type":"bytes32","internalType":"bytes32"},{"name":"extensions","type":"uint256[]","internalType":"uint256[]"}],"stateMutability":"view"},{"type":"function","name":"name","inputs":[],"outputs":[{"name":"","type":"string","internalType":"string"}],"stateMutability":"view"},{"type":"function","name":"nonces","inputs":[{"name":"","type":"address","internalType":"address"}],"outputs":[{"name":"","type":"uint256","internalType":"uint256"}],"stateMutability":"view"},{"type":"function","name":"permit","inputs":[{"name":"owner","type":"address","internalType":"address"},{"name":"spender","type":"address","internalType":"address"},{"name":"value","type":"uint256","internalType":"uint256"},{"name":"deadline","type":"uint256","internalType":"uint256"},{"name":"v","type":"uint8","internalType":"uint8"},{"name":"r","type":"bytes32","internalType":"bytes32"},{"name":"s","type":"bytes32","internalType":"bytes32"}],"outputs":[],"stateMutability":"nonpayable"},{"type":"function","name":"symbol","inputs":[],"outputs":[{"name":"","type":"string","internalType":"string"}],"stateMutability":"view"},{"type":"function","name":"totalSupply","inputs":[],"outputs":[{"name":"","type":"uint256","internalType":"uint256"}],"stateMutability":"view"},{"type":"function","name":"transfer","inputs":[{"name":"to","type":"address","internalType":"address"},{"name":"value","type":"uint256","internalType":"uint256"}],"outputs":[{"name":"","type":"bool","internalType":"bool"}],"stateMutability":"nonpayable"},{"type":"function","name":"transferFrom","inputs":[{"name":"from","type":"address","internalType":"address"},{"name":"to","type":"address","internalType":"address"},{"name":"value","type":"uint256","internalType":"uint256"}],"outputs":[{"name":"","type":"bool","internalType":"bool"}],"stateMutability":"nonpayable"},{"type":"event","name":"Approval","inputs":[{"name":"owner","type":"address","indexed":true,"internalType":"address"},{"name":"spender","type":"address","indexed":true,"internalType":"address"},{"name":"amount","type":"uint256","indexed":false,"internalType":"uint256"}],"anonymous":false},{"type":"event","name":"EIP712DomainChanged","inputs":[],"anonymous":false},{"type":"event","name":"Transfer","inputs":[{"name":"from","type":"address","indexed":true,"internalType":"address"},{"name":"to","type":"address","indexed":true,"internalType":"address"},{"name":"amount","type":"uint256","indexed":false,"internalType":"uint256"}],"anonymous":false},{"type":"error","name":"ERC20InsufficientAllowance","inputs":[{"name":"spender","type":"address","internalType":"address"},{"name":"allowance","type":"uint256","internalType":"uint256"},{"name":"needed","type":"uint256","internalType":"uint256"}]},{"type":"error","name":"ERC20InsufficientBalance","inputs":[{"name":"sender","type":"address","internalType":"address"},{"name":"balance","type":"uint256","internalType":"uint256"},{"name":"needed","type":"uint256","internalType":"uint256"}]},{"type":"error","name":"ERC20InvalidApprover","inputs":[{"name":"approver","type":"address","internalType":"address"}]},{"type":"error","name":"ERC20InvalidReceiver","inputs":[{"name":"receiver","type":"address","internalType":"address"}]},{"type":"error","name":"ERC20InvalidSender","inputs":[{"name":"sender","type":"address","internalType":"address"}]},{"type":"error","name":"ERC20InvalidSpender","inputs":[{"name":"spender","type":"address","internalType":"address"}]},{"type":"error","name":"ERC2612ExpiredSignature","inputs":[{"name":"deadline","type":"uint256","internalType":"uint256"}]},{"type":"error","name":"ERC2612InvalidSigner","inputs":[{"name":"signer","type":"address","internalType":"address"},{"name":"owner","type":"address","internalType":"address"}]},{"type":"error","name":"InvalidAccountNonce","inputs":[{"name":"account","type":"address","internalType":"address"},{"name":"currentNonce","type":"uint256","internalType":"uint256"}]},{"type":"error","name":"InvalidShortString","inputs":[]}],"bytecode":{"object":"0x608060405234801561000f575f5ffd5b505f46905061003b604051806080016040528060528152602001610cb360529139805160209091012090565b604080518082018252600a815269043616d656c6f74204c560b41b6020918201528151808301835260018152603160f81b908201528151808201939093527fd76c82bc6723d724b871e570045a7319276e62ab33aa5923ccca28a79bbf7411838301527fc89efdaa54c0f20c7adf612882df0950f5a951637e0307cdcb4c672f298b8bc6606084015260808301939093523060a0808401919091528151808403909101815260c090920190528051910120600355610bb7806100fc5f395ff3fe608060405234801561000f575f5ffd5b50600436106100b8575f3560e01c806306fdde03146100bc578063095ea7b3146100fb57806318160ddd1461011e57806323b872dd1461013457806330adf81f14610147578063313ce5671461015b5780633644e5151461017557806370a082311461017e5780637ecebe001461019d57806384b0196e146101bc57806395d89b41146101d7578063a9059cbb146101fd578063d505accf14610210578063dd62ed3e14610225575b5f5ffd5b6100e56040518060400160405280600a815260200169043616d656c6f74204c560b41b81525081565b6040516100f291906108d4565b60405180910390f35b61010e610109366004610908565b61024f565b60405190151581526020016100f2565b6101265f5481565b6040519081526020016100f2565b61010e610142366004610930565b610265565b6101265f516020610b425f395f51905f5281565b610163601281565b60405160ff90911681526020016100f2565b61012660035481565b61012661018c36600461096a565b60016020525f908152604090205481565b6101266101ab36600461096a565b60046020525f908152604090205481565b6101c461031c565b6040516100f29796959493929190610983565b6100e5604051806040016040528060078152602001660434d4c542d4c560cc1b81525081565b61010e61020b366004610908565b61036c565b61022361021e366004610a19565b610378565b005b610126610233366004610a86565b600260209081525f928352604080842090915290825290205481565b5f61025b338484610584565b5060015b92915050565b6001600160a01b0383165f9081526002602090815260408083203384529091528120545f1914610307576001600160a01b0384165f9081526002602090815260408083203384529091528120546102bc90846105d2565b6001600160a01b0386165f81815260026020908152604080832033808552908352928190208590555184815293945090925f516020610b625f395f51905f52910160405180910390a3505b610312848484610627565b5060019392505050565b5f6060805f5f5f60605f61032e6106ca565b90506103398161071b565b61034282610730565b604080515f80825260208201909252600f60f81b9c939b5091995046985030975095509350915050565b5f61025b338484610627565b428410156103c25760405162461bcd60e51b8152602060048201526012602482015271155b9a5cddd85c158c8e881156141254915160721b60448201526064015b60405180910390fd5b6003546001600160a01b0388165f908152600460205260408120805491926104989290915f516020610b425f395f51905f52918c918c918c918861040583610acb565b909155506040805160208101969096526001600160a01b0394851690860152929091166060840152608083015260a082015260c0810188905260e0016040516020818303038152906040528051906020012060405160200161047e92919061190160f01b81526002810192909252602282015260420190565b604051602081830303815290604052805160209091012090565b604080515f8082526020820180845284905260ff88169282019290925260608101869052608081018590529192509060019060a0016020604051602081039080840390855afa1580156104ed573d5f5f3e3d5ffd5b5050604051601f1901519150506001600160a01b038116158015906105235750886001600160a01b0316816001600160a01b0316145b61056e5760405162461bcd60e51b815260206004820152601c60248201527b556e697377617056323a20494e56414c49445f5349474e415455524560201b60448201526064016103b9565b610579898989610584565b505050505050505050565b6001600160a01b038381165f8181526002602090815260408083209487168084529482529182902085905590518481525f516020610b625f395f51905f5291015b60405180910390a3505050565b5f826105de8382610ae3565b915081111561025f5760405162461bcd60e51b815260206004820152601560248201527464732d6d6174682d7375622d756e646572666c6f7760581b60448201526064016103b9565b6001600160a01b0383165f9081526001602052604090205461064990826105d2565b6001600160a01b038085165f9081526001602052604080822093909355908416815220546106779082610745565b6001600160a01b038084165f8181526001602052604090819020939093559151908516907fddf252ad1be2c89b69c2b068fc378daa952ba7f163c4a11628f55a4df523b3ef906105c59085815260200190565b5f6107166040516020016106fd906020808252600b908201526a32b4b81732b4b8171b989960a91b604082015260600190565b6040516020818303038152906040528051906020012090565b905090565b600581015460609061025f9060078401610799565b600681015460609061025f9060088401610799565b5f826107518382610af6565b915081101561025f5760405162461bcd60e51b815260206004820152601460248201527364732d6d6174682d6164642d6f766572666c6f7760601b60448201526064016103b9565b606060ff83146107b3576107ac83610842565b905061025f565b8180546107bf90610b09565b80601f01602080910402602001604051908101604052809291908181526020018280546107eb90610b09565b80156108365780601f1061080d57610100808354040283529160200191610836565b820191905f5260205f20905b81548152906001019060200180831161081957829003601f168201915b5050505050905061025f565b60605f61084e8361087f565b6040805160208082528183019092529192505f91906020820181803683375050509182525060208101929092525090565b5f60ff8216601f81111561025f57604051632cd44ac360e21b815260040160405180910390fd5b5f81518084528060208401602086015e5f602082860101526020601f19601f83011685010191505092915050565b602081525f6108e660208301846108a6565b9392505050565b80356001600160a01b0381168114610903575f5ffd5b919050565b5f5f60408385031215610919575f5ffd5b610922836108ed565b946020939093013593505050565b5f5f5f60608486031215610942575f5ffd5b61094b846108ed565b9250610959602085016108ed565b929592945050506040919091013590565b5f6020828403121561097a575f5ffd5b6108e6826108ed565b60ff60f81b8816815260e060208201525f6109a160e08301896108a6565b82810360408401526109b381896108a6565b606084018890526001600160a01b038716608085015260a0840186905283810360c0850152845180825260208087019350909101905f5b81811015610a085783518352602093840193909201916001016109ea565b50909b9a5050505050505050505050565b5f5f5f5f5f5f5f60e0888a031215610a2f575f5ffd5b610a38886108ed565b9650610a46602089016108ed565b95506040880135945060608801359350608088013560ff81168114610a69575f5ffd5b9699959850939692959460a0840135945060c09093013592915050565b5f5f60408385031215610a97575f5ffd5b610aa0836108ed565b9150610aae602084016108ed565b90509250929050565b634e487b7160e01b5f52601160045260245ffd5b5f60018201610adc57610adc610ab7565b5060010190565b8181038181111561025f5761025f610ab7565b8082018082111561025f5761025f610ab7565b600181811c90821680610b1d57607f821691505b602082108103610b3b57634e487b7160e01b5f52602260045260245ffd5b5091905056fe6e71edae12b1b97f4d1f60370fef10105fa2faae0126114a169c64845d6126c98c5be1e5ebec7d5bd14f71427d1e84f3dd0314c0f7b2291e5b200ac8c7c3b925a2646970667358221220ad09e48e80406e20a161fd92fa252953eb970a6a07bb3225f9bdf7841a99577964736f6c634300081e0033454950373132446f6d61696e28737472696e67206e616d652c737472696e672076657273696f6e2c75696e7432353620636861696e49642c6164647265737320766572696679696e67436f6e747261637429","linkReferences":{}},"methodIdentifiers":{"DOMAIN_SEPARATOR()":"3644e515","PERMIT_TYPEHASH()":"30adf81f","allowance(address,address)":"dd62ed3e","approve(address,uint256)":"095ea7b3","balanceOf(address)":"70a08231","decimals()":"313ce567","eip712Domain()":"84b0196e","name()":"06fdde03","nonces(address)":"7ecebe00","permit(address,address,uint256,uint256,uint8,bytes32,bytes32)":"d505accf","symbol()":"95d89b41","totalSupply()":"18160ddd","transfer(address,uint256)":"a9059cbb","transferFrom(address,address,uint256)":"23b872dd"},"id":1004}