{"abi":[{"type":"constructor","inputs":[],"stateMutability":"nonpayable"},{"type":"function","name":"DOMAIN_SEPARATOR","inputs":[],"outputs":[{"name":"","type":"bytes32","internalType":"bytes32"}],"stateMutability":"view"},{"type":"function","name":"PERMIT_TYPEHASH","inputs":[],"outputs":[{"name":"","type":"bytes32","internalType":"bytes32"}],"stateMutability":"view"},{"type":"function","name":"allowance","inputs":[{"name":"","type":"address","internalType":"address"},{"name":"","type":"address","internalType":"address"}],"outputs":[{"name":"","type":"uint256","internalType":"uint256"}],"stateMutability":"view"},{"type":"function","name":"approve","inputs":[{"name":"spender","type":"address","internalType":"address"},{"name":"value","type":"uint256","internalType":"uint256"}],"outputs":[{"name":"","type":"bool","internalType":"bool"}],"stateMutability":"nonpayable"},{"type":"function","name":"balanceOf","inputs":[{"name":"","type":"address","internalType":"address"}],"outputs":[{"name":"","type":"uint256","internalType":"uint256"}],"stateMutability":"view"},{"type":"function","name":"decimals","inputs":[],"outputs":[{"name":"","type":"uint8","internalType":"uint8"}],"stateMutability":"view"},{"type":"function","name":"eip712Domain","inputs":[],"outputs":[{"name":"fields","type":"bytes1","internalType":"bytes1"},{"name":"name","type":"string","internalType":"string"},{"name":"version","type":"string","internalType":"string"},{"name":"chainId","type":"uint256","internalType":"uint256"},{"name":"verifyingContract","type":"address","internalType":"address"},{"name":"salt","type":"bytes32","internalType":"bytes32"},{"name":"extensions","type":"uint256[]","internalType":"uint256[]"}],"stateMutability":"view"},{"type":"function","name":"name","inputs":[],"outputs":[{"name":"","type":"string","internalType":"string"}],"stateMutability":"view"},{"type":"function","name":"nonces","inputs":[{"name":"","type":"address","internalType":"address"}],"outputs":[{"name":"","type":"uint256","internalType":"uint256"}],"stateMutability":"view"},{"type":"function","name":"permit","inputs":[{"name":"owner","type":"address","internalType":"address"},{"name":"spender","type":"address","internalType":"address"},{"name":"value","type":"uint256","internalType":"uint256"},{"name":"deadline","type":"uint256","internalType":"uint256"},{"name":"v","type":"uint8","internalType":"uint8"},{"name":"r","type":"bytes32","internalType":"bytes32"},{"name":"s","type":"bytes32","internalType":"bytes32"}],"outputs":[],"stateMutability":"nonpayable"},{"type":"function","name":"symbol","inputs":[],"outputs":[{"name":"","type":"string","internalType":"string"}],"stateMutability":"view"},{"type":"function","name":"totalSupply","inputs":[],"outputs":[{"name":"","type":"uint256","internalType":"uint256"}],"stateMutability":"view"},{"type":"function","name":"transfer","inputs":[{"name":"to","type":"address","internalType":"address"},{"name":"value","type":"uint256","internalType":"uint256"}],"outputs":[{"name":"","type":"bool","internalType":"bool"}],"stateMutability":"nonpayable"},{"type":"function","name":"transferFrom","inputs":[{"name":"from","type":"address","internalType":"address"},{"name":"to","type":"address","internalType":"address"},{"name":"value","type":"uint256","internalType":"uint256"}],"outputs":[{"name":"","type":"bool","internalType":"bool"}],"stateMutability":"nonpayable"},{"type":"event","name":"Approval","inputs":[{"name":"owner","type":"address","indexed":true,"internalType":"address"},{"name":"spender","type":"address","indexed":true,"internalType":"address"},{"name":"value","type":"uint256","indexed":false,"internalType":"uint256"}],"anonymous":false},{"type":"event","name":"EIP712DomainChanged","inputs":[],"anonymous":false},{"type":"event","name":"Transfer","inputs":[{"name":"from","type":"address","indexed":true,"internalType":"address"},{"name":"to","type":"address","indexed":true,"internalType":"address"},{"name":"value","type":"uint256","indexed":false,"internalType":"uint256"}],"anonymous":false},{"type":"error","name":"ERC20InsufficientAllowance","inputs":[{"name":"spender","type":"address","internalType":"address"},{"name":"allowance","type":"uint256","internalType":"uint256"},{"name":"needed","type":"uint256","internalType":"uint256"}]},{"type":"error","name":"ERC20InsufficientBalance","inputs":[{"name":"sender","type":"address","internalType":"address"},{"name":"balance","type":"uint256","internalType":"uint256"},{"name":"needed","type":"uint256","internalType":"uint256"}]},{"type":"error","name":"ERC20InvalidApprover","inputs":[{"name":"approver","type":"address","internalType":"address"}]},{"type":"error","name":"ERC20InvalidReceiver","inputs":[{"name":"receiver","type":"address","internalType":"address"}]},{"type":"error","name":"ERC20InvalidSender","inputs":[{"name":"sender","type":"address","internalType":"address"}]},{"type":"error","name":"ERC20InvalidSpender","inputs":[{"name":"spender","type":"address","internalType":"address"}]},{"type":"error","name":"InvalidShortString","inputs":[]}],"bytecode":{"object":"0x608060405234801561000f575f5ffd5b505f4690507f8b73c3c69bb8fe3d512ecc4cf759cc79239f7b179b0ffacaa9a75d522b39400f6040518060400160405280600a81526020017f43616d656c6f74204c5000000000000000000000000000000000000000000000815250805190602001206040518060400160405280600181526020017f31000000000000000000000000000000000000000000000000000000000000008152508051906020012083306040516020016100c5959493929190610156565b60405160208183030381529060405280519060200120600381905550506101a7565b5f819050919050565b6100f9816100e7565b82525050565b5f819050919050565b610111816100ff565b82525050565b5f73ffffffffffffffffffffffffffffffffffffffff82169050919050565b5f61014082610117565b9050919050565b61015081610136565b82525050565b5f60a0820190506101695f8301886100f0565b61017660208301876100f0565b61018360408301866100f0565b6101906060830185610108565b61019d6080830184610147565b9695505050505050565b6118ff806101b45f395ff3fe608060405234801561000f575f5ffd5b50600436106100e8575f3560e01c806370a082311161008a57806395d89b411161006457806395d89b4114610266578063a9059cbb14610284578063d505accf146102b4578063dd62ed3e146102d0576100e8565b806370a08231146101e25780637ecebe001461021257806384b0196e14610242576100e8565b806323b872dd116100c657806323b872dd1461015857806330adf81f14610188578063313ce567146101a65780633644e515146101c4576100e8565b806306fdde03146100ec578063095ea7b31461010a57806318160ddd1461013a575b5f5ffd5b6100f4610300565b6040516101019190610f77565b60405180910390f35b610124600480360381019061011f9190611028565b610339565b6040516101319190611080565b60405180910390f35b61014261034f565b60405161014f91906110a8565b60405180910390f35b610172600480360381019061016d91906110c1565b610354565b60405161017f9190611080565b60405180910390f35b61019061057c565b60405161019d9190611129565b60405180910390f35b6101ae6105a2565b6040516101bb919061115d565b60405180910390f35b6101cc6105a7565b6040516101d99190611129565b60405180910390f35b6101fc60048036038101906101f79190611176565b6105ad565b60405161020991906110a8565b60405180910390f35b61022c60048036038101906102279190611176565b6105c2565b60405161023991906110a8565b60405180910390f35b61024a6105d7565b60405161025d97969594939291906112a1565b60405180910390f35b61026e61067c565b60405161027b9190610f77565b60405180910390f35b61029e60048036038101906102999190611028565b6106b5565b6040516102ab9190611080565b60405180910390f35b6102ce60048036038101906102c99190611377565b6106cb565b005b6102ea60048036038101906102e59190611414565b6108e9565b6040516102f791906110a8565b60405180910390f35b6040518060400160405280600a81526020017f43616d656c6f74204c500000000000000000000000000000000000000000000081525081565b5f610345338484610909565b6001905092915050565b5f5481565b5f7fffffffffffffffffffffffffffffffffffffffffffffffffffffffffffffffff60025f8673ffffffffffffffffffffffffffffffffffffffff1673ffffffffffffffffffffffffffffffffffffffff1681526020019081526020015f205f3373ffffffffffffffffffffffffffffffffffffffff1673ffffffffffffffffffffffffffffffffffffffff1681526020019081526020015f205414610566575f6104808360025f8873ffffffffffffffffffffffffffffffffffffffff1673ffffffffffffffffffffffffffffffffffffffff1681526020019081526020015f205f3373ffffffffffffffffffffffffffffffffffffffff1673ffffffffffffffffffffffffffffffffffffffff1681526020019081526020015f20546109f090919063ffffffff16565b90508060025f8773ffffffffffffffffffffffffffffffffffffffff1673ffffffffffffffffffffffffffffffffffffffff1681526020019081526020015f205f3373ffffffffffffffffffffffffffffffffffffffff1673ffffffffffffffffffffffffffffffffffffffff1681526020019081526020015f20819055503373ffffffffffffffffffffffffffffffffffffffff168573ffffffffffffffffffffffffffffffffffffffff167f8c5be1e5ebec7d5bd14f71427d1e84f3dd0314c0f7b2291e5b200ac8c7c3b9258360405161055c91906110a8565b60405180910390a3505b610571848484610a48565b600190509392505050565b7f6e71edae12b1b97f4d1f60370fef10105fa2faae0126114a169c64845d6126c95f1b81565b601281565b60035481565b6001602052805f5260405f205f915090505481565b6004602052805f5260405f205f915090505481565b5f6060805f5f5f60606105e8610bd4565b6105f0610c03565b46305f5f1b5f67ffffffffffffffff81111561060f5761060e611452565b5b60405190808252806020026020018201604052801561063d5781602001602082028036833780820191505090505b507f0f00000000000000000000000000000000000000000000000000000000000000959493929190965096509650965096509650965090919293949596565b6040518060400160405280600781526020017f434d4c542d4c500000000000000000000000000000000000000000000000000081525081565b5f6106c1338484610a48565b6001905092915050565b4284101561070e576040517f08c379a0000000000000000000000000000000000000000000000000000000008152600401610705906114c9565b60405180910390fd5b5f6003547f6e71edae12b1b97f4d1f60370fef10105fa2faae0126114a169c64845d6126c95f1b89898960045f8e73ffffffffffffffffffffffffffffffffffffffff1673ffffffffffffffffffffffffffffffffffffffff1681526020019081526020015f205f81548092919061078590611514565b919050558a60405160200161079f9695949392919061155b565b604051602081830303815290604052805190602001206040516020016107c692919061162e565b6040516020818303038152906040528051906020012090505f6001828686866040515f81526020016040526040516108019493929190611664565b6020604051602081039080840390855afa158015610821573d5f5f3e3d5ffd5b5050506020604051035190505f73ffffffffffffffffffffffffffffffffffffffff168173ffffffffffffffffffffffffffffffffffffffff161415801561089457508873ffffffffffffffffffffffffffffffffffffffff168173ffffffffffffffffffffffffffffffffffffffff16145b6108d3576040517f08c379a00000000000000000000000000000000000000000000000000000000081526004016108ca906116f1565b60405180910390fd5b6108de898989610909565b505050505050505050565b6002602052815f5260405f20602052805f5260405f205f91509150505481565b8060025f8573ffffffffffffffffffffffffffffffffffffffff1673ffffffffffffffffffffffffffffffffffffffff1681526020019081526020015f205f8473ffffffffffffffffffffffffffffffffffffffff1673ffffffffffffffffffffffffffffffffffffffff1681526020019081526020015f20819055508173ffffffffffffffffffffffffffffffffffffffff168373ffffffffffffffffffffffffffffffffffffffff167f8c5be1e5ebec7d5bd14f71427d1e84f3dd0314c0f7b2291e5b200ac8c7c3b925836040516109e391906110a8565b60405180910390a3505050565b5f8282846109fe919061170f565b9150811115610a42576040517f08c379a0000000000000000000000000000000000000000000000000000000008152600401610a399061178c565b60405180910390fd5b92915050565b610a988160015f8673ffffffffffffffffffffffffffffffffffffffff1673ffffffffffffffffffffffffffffffffffffffff1681526020019081526020015f20546109f090919063ffffffff16565b60015f8573ffffffffffffffffffffffffffffffffffffffff1673ffffffffffffffffffffffffffffffffffffffff1681526020019081526020015f2081905550610b298160015f8573ffffffffffffffffffffffffffffffffffffffff1673ffffffffffffffffffffffffffffffffffffffff1681526020019081526020015f2054610c3290919063ffffffff16565b60015f8473ffffffffffffffffffffffffffffffffffffffff1673ffffffffffffffffffffffffffffffffffffffff1681526020019081526020015f20819055508173ffffffffffffffffffffffffffffffffffffffff168373ffffffffffffffffffffffffffffffffffffffff167fddf252ad1be2c89b69c2b068fc378daa952ba7f163c4a11628f55a4df523b3ef83604051610bc791906110a8565b60405180910390a3505050565b6060610bfe610be1610c8a565b600701610bec610c8a565b60050154610d9190919063ffffffff16565b905090565b6060610c2d610c10610c8a565b600801610c1b610c8a565b60060154610d9190919063ffffffff16565b905090565b5f828284610c4091906117aa565b9150811015610c84576040517f08c379a0000000000000000000000000000000000000000000000000000000008152600401610c7b90611827565b60405180910390fd5b92915050565b5f610d8c7f84b0196e000000000000000000000000000000000000000000000000000000007bffffffffffffffffffffffffffffffffffffffffffffffffffffffff1916600160405180604001604052600a8152806020017f4549503731325265706f00000000000000000000000000000000000000000000815250604051602001610d169190610f77565b60405160208183030381529060405280519060200120604051602001610d3c9190611129565b604051602081830303815290604052805190602001205f1c610d5e919061170f565b5f1b604051602001610d71929190611845565b60405160208183030381529060405280519060200120610e3e565b905090565b606060ff5f1b8314610dad57610da683610e47565b9050610e38565b818054610db990611899565b80601f0160208091040260200160405190810160405280929190818152602001828054610de590611899565b8015610e305780601f10610e0757610100808354040283529160200191610e30565b820191905f5260205f20905b815481529060010190602001808311610e1357829003601f168201915b505050505090505b92915050565b5f819050919050565b60605f610e5383610eb9565b90505f602067ffffffffffffffff811115610e7157610e70611452565b5b6040519080825280601f01601f191660200182016040528015610ea35781602001600182028036833780820191505090505b5090508181528360208201528092505050919050565b5f5f60ff835f1c169050601f811115610efe576040517fb3512b0c00000000000000000000000000000000000000000000000000000000815260040160405180910390fd5b80915050919050565b5f81519050919050565b5f82825260208201905092915050565b8281835e5f83830152505050565b5f601f19601f8301169050919050565b5f610f4982610f07565b610f538185610f11565b9350610f63818560208601610f21565b610f6c81610f2f565b840191505092915050565b5f6020820190508181035f830152610f8f8184610f3f565b905092915050565b5f5ffd5b5f73ffffffffffffffffffffffffffffffffffffffff82169050919050565b5f610fc482610f9b565b9050919050565b610fd481610fba565b8114610fde575f5ffd5b50565b5f81359050610fef81610fcb565b92915050565b5f819050919050565b61100781610ff5565b8114611011575f5ffd5b50565b5f8135905061102281610ffe565b92915050565b5f5f6040838503121561103e5761103d610f97565b5b5f61104b85828601610fe1565b925050602061105c85828601611014565b9150509250929050565b5f8115159050919050565b61107a81611066565b82525050565b5f6020820190506110935f830184611071565b92915050565b6110a281610ff5565b82525050565b5f6020820190506110bb5f830184611099565b92915050565b5f5f5f606084860312156110d8576110d7610f97565b5b5f6110e586828701610fe1565b93505060206110f686828701610fe1565b925050604061110786828701611014565b9150509250925092565b5f819050919050565b61112381611111565b82525050565b5f60208201905061113c5f83018461111a565b92915050565b5f60ff82169050919050565b61115781611142565b82525050565b5f6020820190506111705f83018461114e565b92915050565b5f6020828403121561118b5761118a610f97565b5b5f61119884828501610fe1565b91505092915050565b5f7fff0000000000000000000000000000000000000000000000000000000000000082169050919050565b6111d5816111a1565b82525050565b6111e481610fba565b82525050565b5f81519050919050565b5f82825260208201905092915050565b5f819050602082019050919050565b61121c81610ff5565b82525050565b5f61122d8383611213565b60208301905092915050565b5f602082019050919050565b5f61124f826111ea565b61125981856111f4565b935061126483611204565b805f5b8381101561129457815161127b8882611222565b975061128683611239565b925050600181019050611267565b5085935050505092915050565b5f60e0820190506112b45f83018a6111cc565b81810360208301526112c68189610f3f565b905081810360408301526112da8188610f3f565b90506112e96060830187611099565b6112f660808301866111db565b61130360a083018561111a565b81810360c08301526113158184611245565b905098975050505050505050565b61132c81611142565b8114611336575f5ffd5b50565b5f8135905061134781611323565b92915050565b61135681611111565b8114611360575f5ffd5b50565b5f813590506113718161134d565b92915050565b5f5f5f5f5f5f5f60e0888a03121561139257611391610f97565b5b5f61139f8a828b01610fe1565b97505060206113b08a828b01610fe1565b96505060406113c18a828b01611014565b95505060606113d28a828b01611014565b94505060806113e38a828b01611339565b93505060a06113f48a828b01611363565b92505060c06114058a828b01611363565b91505092959891949750929550565b5f5f6040838503121561142a57611429610f97565b5b5f61143785828601610fe1565b925050602061144885828601610fe1565b9150509250929050565b7f4e487b71000000000000000000000000000000000000000000000000000000005f52604160045260245ffd5b7f556e697377617056323a204558504952454400000000000000000000000000005f82015250565b5f6114b3601283610f11565b91506114be8261147f565b602082019050919050565b5f6020820190508181035f8301526114e0816114a7565b9050919050565b7f4e487b71000000000000000000000000000000000000000000000000000000005f52601160045260245ffd5b5f61151e82610ff5565b91507fffffffffffffffffffffffffffffffffffffffffffffffffffffffffffffffff82036115505761154f6114e7565b5b600182019050919050565b5f60c08201905061156e5f83018961111a565b61157b60208301886111db565b61158860408301876111db565b6115956060830186611099565b6115a26080830185611099565b6115af60a0830184611099565b979650505050505050565b5f81905092915050565b7f19010000000000000000000000000000000000000000000000000000000000005f82015250565b5f6115f86002836115ba565b9150611603826115c4565b600282019050919050565b5f819050919050565b61162861162382611111565b61160e565b82525050565b5f611638826115ec565b91506116448285611617565b6020820191506116548284611617565b6020820191508190509392505050565b5f6080820190506116775f83018761111a565b611684602083018661114e565b611691604083018561111a565b61169e606083018461111a565b95945050505050565b7f556e697377617056323a20494e56414c49445f5349474e4154555245000000005f82015250565b5f6116db601c83610f11565b91506116e6826116a7565b602082019050919050565b5f6020820190508181035f830152611708816116cf565b9050919050565b5f61171982610ff5565b915061172483610ff5565b925082820390508181111561173c5761173b6114e7565b5b92915050565b7f64732d6d6174682d7375622d756e646572666c6f7700000000000000000000005f82015250565b5f611776601583610f11565b915061178182611742565b602082019050919050565b5f6020820190508181035f8301526117a38161176a565b9050919050565b5f6117b482610ff5565b91506117bf83610ff5565b92508282019050808211156117d7576117d66114e7565b5b92915050565b7f64732d6d6174682d6164642d6f766572666c6f770000000000000000000000005f82015250565b5f611811601483610f11565b915061181c826117dd565b602082019050919050565b5f6020820190508181035f83015261183e81611805565b9050919050565b5f6040820190506118585f83018561111a565b611865602083018461111a565b9392505050565b7f4e487b71000000000000000000000000000000000000000000000000000000005f52602260045260245ffd5b5f60028204905060018216806118b057607f821691505b6020821081036118c3576118c261186c565b5b5091905056fea2646970667358221220ab63415a7e6488e5ad69e66cc1af50d669215e0d764b8e1ec3fe7dd9ea3c00b664736f6c634300081c0033","linkReferences":{}},"methodIdentifiers":{"DOMAIN_SEPARATOR()":"3644e515","PERMIT_TYPEHASH()":"30adf81f","allowance(address,address)":"dd62ed3e","approve(address,uint256)":"095ea7b3","balanceOf(address)":"70a08231","decimals()":"313ce567","eip712Domain()":"84b0196e","name()":"06fdde03","nonces(address)":"7ecebe00","permit(address,address,uint256,uint256,uint8,bytes32,bytes32)":"d505accf","symbol()":"95d89b41","totalSupply()":"18160ddd","transfer(address,uint256)":"a9059cbb","transferFrom(address,address,uint256)":"23b872dd"},"id":11}