{"abi":[{"type":"constructor","inputs":[{"name":"vault","type":"address","internalType":"contract IVault"},{"name":"router","type":"address","internalType":"address"}],"stateMutability":"nonpayable"},{"type":"function","name":"LUCKY_NUMBER","inputs":[],"outputs":[{"name":"","type":"uint8","internalType":"uint8"}],"stateMutability":"view"},{"type":"function","name":"MAX_NUMBER","inputs":[],"outputs":[{"name":"","type":"uint8","internalType":"uint8"}],"stateMutability":"view"},{"type":"function","name":"cancelOwnershipHandover","inputs":[],"outputs":[],"stateMutability":"payable"},{"type":"function","name":"completeOwnershipHandover","inputs":[{"name":"pendingOwner","type":"address","internalType":"address"}],"outputs":[],"stateMutability":"payable"},{"type":"function","name":"getHookFlags","inputs":[],"outputs":[{"name":"","type":"tuple","internalType":"struct HookFlags","components":[{"name":"enableHookAdjustedAmounts","type":"bool","internalType":"bool"},{"name":"shouldCallBeforeInitialize","type":"bool","internalType":"bool"},{"name":"shouldCallAfterInitialize","type":"bool","internalType":"bool"},{"name":"shouldCallComputeDynamicSwapFee","type":"bool","internalType":"bool"},{"name":"shouldCallBeforeSwap","type":"bool","internalType":"bool"},{"name":"shouldCallAfterSwap","type":"bool","internalType":"bool"},{"name":"shouldCallBeforeAddLiquidity","type":"bool","internalType":"bool"},{"name":"shouldCallAfterAddLiquidity","type":"bool","internalType":"bool"},{"name":"shouldCallBeforeRemoveLiquidity","type":"bool","internalType":"bool"},{"name":"shouldCallAfterRemoveLiquidity","type":"bool","internalType":"bool"}]}],"stateMutability":"pure"},{"type":"function","name":"getRandomNumber","inputs":[],"outputs":[{"name":"","type":"uint8","internalType":"uint8"}],"stateMutability":"view"},{"type":"function","name":"hookSwapFeePercentage","inputs":[],"outputs":[{"name":"","type":"uint64","internalType":"uint64"}],"stateMutability":"view"},{"type":"function","name":"onAfterAddLiquidity","inputs":[{"name":"","type":"address","internalType":"address"},{"name":"","type":"address","internalType":"address"},{"name":"","type":"uint8","internalType":"enum AddLiquidityKind"},{"name":"","type":"uint256[]","internalType":"uint256[]"},{"name":"amountsInRaw","type":"uint256[]","internalType":"uint256[]"},{"name":"","type":"uint256","internalType":"uint256"},{"name":"","type":"uint256[]","internalType":"uint256[]"},{"name":"","type":"bytes","internalType":"bytes"}],"outputs":[{"name":"","type":"bool","internalType":"bool"},{"name":"","type":"uint256[]","internalType":"uint256[]"}],"stateMutability":"nonpayable"},{"type":"function","name":"onAfterInitialize","inputs":[{"name":"","type":"uint256[]","internalType":"uint256[]"},{"name":"","type":"uint256","internalType":"uint256"},{"name":"","type":"bytes","internalType":"bytes"}],"outputs":[{"name":"","type":"bool","internalType":"bool"}],"stateMutability":"nonpayable"},{"type":"function","name":"onAfterRemoveLiquidity","inputs":[{"name":"","type":"address","internalType":"address"},{"name":"","type":"address","internalType":"address"},{"name":"","type":"uint8","internalType":"enum RemoveLiquidityKind"},{"name":"","type":"uint256","internalType":"uint256"},{"name":"","type":"uint256[]","internalType":"uint256[]"},{"name":"amountsOutRaw","type":"uint256[]","internalType":"uint256[]"},{"name":"","type":"uint256[]","internalType":"uint256[]"},{"name":"","type":"bytes","internalType":"bytes"}],"outputs":[{"name":"","type":"bool","internalType":"bool"},{"name":"","type":"uint256[]","internalType":"uint256[]"}],"stateMutability":"nonpayable"},{"type":"function","name":"onAfterSwap","inputs":[{"name":"params","type":"tuple","internalType":"struct AfterSwapParams","components":[{"name":"kind","type":"uint8","internalType":"enum SwapKind"},{"name":"tokenIn","type":"address","internalType":"contract IERC20"},{"name":"tokenOut","type":"address","internalType":"contract IERC20"},{"name":"amountInScaled18","type":"uint256","internalType":"uint256"},{"name":"amountOutScaled18","type":"uint256","internalType":"uint256"},{"name":"tokenInBalanceScaled18","type":"uint256","internalType":"uint256"},{"name":"tokenOutBalanceScaled18","type":"uint256","internalType":"uint256"},{"name":"amountCalculatedScaled18","type":"uint256","internalType":"uint256"},{"name":"amountCalculatedRaw","type":"uint256","internalType":"uint256"},{"name":"router","type":"address","internalType":"address"},{"name":"pool","type":"address","internalType":"address"},{"name":"userData","type":"bytes","internalType":"bytes"}]}],"outputs":[{"name":"success","type":"bool","internalType":"bool"},{"name":"hookAdjustedAmountCalculatedRaw","type":"uint256","internalType":"uint256"}],"stateMutability":"nonpayable"},{"type":"function","name":"onBeforeAddLiquidity","inputs":[{"name":"","type":"address","internalType":"address"},{"name":"","type":"address","internalType":"address"},{"name":"","type":"uint8","internalType":"enum AddLiquidityKind"},{"name":"","type":"uint256[]","internalType":"uint256[]"},{"name":"","type":"uint256","internalType":"uint256"},{"name":"","type":"uint256[]","internalType":"uint256[]"},{"name":"","type":"bytes","internalType":"bytes"}],"outputs":[{"name":"","type":"bool","internalType":"bool"}],"stateMutability":"nonpayable"},{"type":"function","name":"onBeforeInitialize","inputs":[{"name":"","type":"uint256[]","internalType":"uint256[]"},{"name":"","type":"bytes","internalType":"bytes"}],"outputs":[{"name":"","type":"bool","internalType":"bool"}],"stateMutability":"nonpayable"},{"type":"function","name":"onBeforeRemoveLiquidity","inputs":[{"name":"","type":"address","internalType":"address"},{"name":"","type":"address","internalType":"address"},{"name":"","type":"uint8","internalType":"enum RemoveLiquidityKind"},{"name":"","type":"uint256","internalType":"uint256"},{"name":"","type":"uint256[]","internalType":"uint256[]"},{"name":"","type":"uint256[]","internalType":"uint256[]"},{"name":"","type":"bytes","internalType":"bytes"}],"outputs":[{"name":"","type":"bool","internalType":"bool"}],"stateMutability":"nonpayable"},{"type":"function","name":"onBeforeSwap","inputs":[{"name":"","type":"tuple","internalType":"struct PoolSwapParams","components":[{"name":"kind","type":"uint8","internalType":"enum SwapKind"},{"name":"amountGivenScaled18","type":"uint256","internalType":"uint256"},{"name":"balancesScaled18","type":"uint256[]","internalType":"uint256[]"},{"name":"indexIn","type":"uint256","internalType":"uint256"},{"name":"indexOut","type":"uint256","internalType":"uint256"},{"name":"router","type":"address","internalType":"address"},{"name":"userData","type":"bytes","internalType":"bytes"}]},{"name":"","type":"address","internalType":"address"}],"outputs":[{"name":"","type":"bool","internalType":"bool"}],"stateMutability":"nonpayable"},{"type":"function","name":"onComputeDynamicSwapFeePercentage","inputs":[{"name":"","type":"tuple","internalType":"struct PoolSwapParams","components":[{"name":"kind","type":"uint8","internalType":"enum SwapKind"},{"name":"amountGivenScaled18","type":"uint256","internalType":"uint256"},{"name":"balancesScaled18","type":"uint256[]","internalType":"uint256[]"},{"name":"indexIn","type":"uint256","internalType":"uint256"},{"name":"indexOut","type":"uint256","internalType":"uint256"},{"name":"router","type":"address","internalType":"address"},{"name":"userData","type":"bytes","internalType":"bytes"}]},{"name":"","type":"address","internalType":"address"},{"name":"","type":"uint256","internalType":"uint256"}],"outputs":[{"name":"","type":"bool","internalType":"bool"},{"name":"","type":"uint256","internalType":"uint256"}],"stateMutability":"view"},{"type":"function","name":"onRegister","inputs":[{"name":"","type":"address","internalType":"address"},{"name":"pool","type":"address","internalType":"address"},{"name":"","type":"tuple[]","internalType":"struct TokenConfig[]","components":[{"name":"token","type":"address","internalType":"contract IERC20"},{"name":"tokenType","type":"uint8","internalType":"enum TokenType"},{"name":"rateProvider","type":"address","internalType":"contract IRateProvider"},{"name":"paysYieldFees","type":"bool","internalType":"bool"}]},{"name":"","type":"tuple","internalType":"struct LiquidityManagement","components":[{"name":"disableUnbalancedLiquidity","type":"bool","internalType":"bool"},{"name":"enableAddLiquidityCustom","type":"bool","internalType":"bool"},{"name":"enableRemoveLiquidityCustom","type":"bool","internalType":"bool"},{"name":"enableDonation","type":"bool","internalType":"bool"}]}],"outputs":[{"name":"","type":"bool","internalType":"bool"}],"stateMutability":"nonpayable"},{"type":"function","name":"owner","inputs":[],"outputs":[{"name":"","type":"address","internalType":"address"}],"stateMutability":"view"},{"type":"function","name":"ownershipHandoverExpiresAt","inputs":[{"name":"pendingOwner","type":"address","internalType":"address"}],"outputs":[{"name":"result","type":"uint256","internalType":"uint256"}],"stateMutability":"view"},{"type":"function","name":"renounceOwnership","inputs":[],"outputs":[],"stateMutability":"payable"},{"type":"function","name":"requestOwnershipHandover","inputs":[],"outputs":[],"stateMutability":"payable"},{"type":"function","name":"setHookSwapFeePercentage","inputs":[{"name":"swapFeePercentage","type":"uint64","internalType":"uint64"}],"outputs":[],"stateMutability":"nonpayable"},{"type":"function","name":"transferOwnership","inputs":[{"name":"newOwner","type":"address","internalType":"address"}],"outputs":[],"stateMutability":"payable"},{"type":"event","name":"HookSwapFeePercentageChanged","inputs":[{"name":"hooksContract","type":"address","indexed":true,"internalType":"address"},{"name":"hookFeePercentage","type":"uint256","indexed":false,"internalType":"uint256"}],"anonymous":false},{"type":"event","name":"LotteryFeeCollected","inputs":[{"name":"hooksContract","type":"address","indexed":true,"internalType":"address"},{"name":"token","type":"address","indexed":true,"internalType":"contract IERC20"},{"name":"feeAmount","type":"uint256","indexed":false,"internalType":"uint256"}],"anonymous":false},{"type":"event","name":"LotteryHookExampleRegistered","inputs":[{"name":"hooksContract","type":"address","indexed":true,"internalType":"address"},{"name":"pool","type":"address","indexed":true,"internalType":"address"}],"anonymous":false},{"type":"event","name":"LotteryWinningsPaid","inputs":[{"name":"hooksContract","type":"address","indexed":true,"internalType":"address"},{"name":"winner","type":"address","indexed":true,"internalType":"address"},{"name":"token","type":"address","indexed":true,"internalType":"contract IERC20"},{"name":"amountWon","type":"uint256","indexed":false,"internalType":"uint256"}],"anonymous":false},{"type":"event","name":"OwnershipHandoverCanceled","inputs":[{"name":"pendingOwner","type":"address","indexed":true,"internalType":"address"}],"anonymous":false},{"type":"event","name":"OwnershipHandoverRequested","inputs":[{"name":"pendingOwner","type":"address","indexed":true,"internalType":"address"}],"anonymous":false},{"type":"event","name":"OwnershipTransferred","inputs":[{"name":"oldOwner","type":"address","indexed":true,"internalType":"address"},{"name":"newOwner","type":"address","indexed":true,"internalType":"address"}],"anonymous":false},{"type":"error","name":"AlreadyInitialized","inputs":[]},{"type":"error","name":"IndexOutOfBounds","inputs":[]},{"type":"error","name":"NewOwnerIsZeroAddress","inputs":[]},{"type":"error","name":"NoHandoverRequest","inputs":[]},{"type":"error","name":"OwnableInvalidOwner","inputs":[{"name":"owner","type":"address","internalType":"address"}]},{"type":"error","name":"OwnableUnauthorizedAccount","inputs":[{"name":"account","type":"address","internalType":"address"}]},{"type":"error","name":"SenderIsNotVault","inputs":[{"name":"sender","type":"address","internalType":"address"}]},{"type":"error","name":"Unauthorized","inputs":[]}],"bytecode":{"object":"0x60c06040525f600455348015610013575f5ffd5b50604051611912380380611912833981016040819052610032916100d0565b6001600160a01b038216608052338061006457604051631e4fbdf760e01b81525f600482015260240160405180910390fd5b61006d81610080565b506001600160a01b031660a05250610108565b6001600160a01b0316638b78c6d819819055805f7f8be0079c531659141344cd1fd0a4f28419497f9722a3daafe3b4186f6b6457e08180a35b50565b6001600160a01b03811681146100b9575f5ffd5b5f5f604083850312156100e1575f5ffd5b82516100ec816100bc565b60208401519092506100fd816100bc565b809150509250929050565b60805160a0516117e26101305f395f61045101525f818161076a01526109f901526117e25ff3fe60806040526004361061010f575f3560e01c80630b89f1821461011357806318b6eb55146101475780631c149e281461017d578063256929621461019c5780632754888d146101a657806338be241d146101dd5780634392312a146101fc57806345421ec7146102275780635211fa771461024d57806354d1f13d14610267578063715018a61461026f5780638da5cb5b14610277578063976907cc14610298578063a0e8f5ac146102c1578063ba5f9f40146102e5578063d77153a7146102ff578063dbdff2c114610320578063f04e283e14610346578063f2fde38b14610359578063f883fcaa1461036c578063f9e5c19714610380578063fea9b5721461039f578063fee81cf4146103b3575b5f5ffd5b34801561011e575f5ffd5b5061013261012d366004610e5f565b6103f2565b60405190151581526020015b60405180910390f35b348015610152575f5ffd5b50610166610161366004610f8e565b61043c565b60408051921515835260208301919091520161013e565b348015610188575f5ffd5b50610132610197366004611095565b61059c565b6101a46105a4565b005b3480156101b1575f5ffd5b506101cf6101c0366004611106565b5f839850989650505050505050565b60405161013e9291906111f5565b3480156101e8575f5ffd5b506101326101f7366004611244565b6105f0565b348015610207575f5ffd5b505f5461021a906001600160401b031681565b60405161013e91906112af565b348015610232575f5ffd5b506101326102413660046112d1565b5f979650505050505050565b348015610258575f5ffd5b506101326101973660046113a8565b6101a46105f9565b6101a4610632565b348015610282575f5ffd5b5061028b610645565b60405161013e91906113f6565b3480156102a3575f5ffd5b506101cf6102b236600461140a565b5f849850989650505050505050565b3480156102cc575f5ffd5b506101666102db3660046114b6565b5f80935093915050565b3480156102f0575f5ffd5b5061013261024136600461150b565b34801561030a575f5ffd5b50610313610658565b60405161013e9190611590565b34801561032b575f5ffd5b50610334610677565b60405160ff909116815260200161013e565b6101a4610354366004611652565b610680565b6101a4610367366004611652565b6106bd565b348015610377575f5ffd5b50610334600a81565b34801561038b575f5ffd5b506101a461039a36600461166d565b610700565b3480156103aa575f5ffd5b50610334601481565b3480156103be575f5ffd5b506103e46103cd366004611652565b63389a75e1600c9081525f91909152602090205490565b60405190815260200161013e565b5f6103fb61075f565b6040516001600160a01b0385169030907f8b640b5b54a040cdfb1149b7446b0c7c18c820e860ed3d8b584acea1888b7ecd905f90a35060015b949350505050565b5f5f61044661075f565b5f6001600160a01b037f00000000000000000000000000000000000000000000000000000000000000001661048361014086016101208701611652565b6001600160a01b03160361049c576104996107aa565b90505b60048054905f6104ab836116a7565b90915550505f5461010085013592506001600160401b031615610592575f80546104e490610100870135906001600160401b03166107f9565b90505f6104f460208701876116d3565b6001811115610505576105056116bf565b03610552575f61053761052061014088016101208901611652565b8461053160608a0160408b01611652565b85610819565b9050801561054c5761054981856116ee565b93505b50610590565b5f61057961056861014088016101208901611652565b8461053160408a0160208b01611652565b9050801561058e5761058b8185611701565b93505b505b505b6001925050915091565b5f5b92915050565b5f6202a3006001600160401b03164201905063389a75e1600c52335f52806020600c2055337fdbf36a107da19e49527a7176a1babf963b4b0ff8cde35ee35d6cd8f1f9ac7e1d5f5fa250565b5f5b9392505050565b63389a75e1600c52335f525f6020600c2055337ffa7b8eab7da67f412cc9575ed43464468f9bfbae89d1675917346ca6d8fe3c925f5fa2565b61063a610a98565b6106435f610ad3565b565b5f610653638b78c6d8195490565b905090565b610660610d38565b610668610d38565b600180825260a0820152919050565b5f6106536107aa565b610688610a98565b63389a75e1600c52805f526020600c2080544211156106ae57636f5e88185f526004601cfd5b5f90556106ba81610ad3565b50565b6106c5610a98565b6001600160a01b0381166106f7575f604051631e4fbdf760e01b81526004016106ee91906113f6565b60405180910390fd5b6106ba81610ad3565b610708610a98565b5f80546001600160401b0319166001600160401b03831617905560405130907fb25b38640ad709be28a74117ede8cc6094d9e8b3aa27330e26b10898c92ba522906107549084906112af565b60405180910390a250565b336001600160a01b037f00000000000000000000000000000000000000000000000000000000000000001614610643573360405163089676d560e01b81526004016106ee91906113f6565b6004546040515f916014916107cc914491602001918252602082015260400190565b604051602081830303815290604052805190602001205f1c6107ee9190611728565b610653906001611701565b5f80610805838561173b565b9050610434670de0b6b3a764000082611752565b5f60091960ff8516016109ba575f856001600160a01b0316635e01eb5a6040518163ffffffff1660e01b8152600401602060405180830381865afa158015610863573d5f5f3e3d5ffd5b505050506040513d601f19601f820116820180604052508101906108879190611765565b6001549091505b80156109b0575f6108ab6108a36001846116ee565b600190610b10565b5090506108b9600182610b5a565b506040516370a0823160e01b81525f906001600160a01b038316906370a08231906108e89030906004016113f6565b602060405180830381865afa158015610903573d5f5f3e3d5ffd5b505050506040513d601f19601f820116820180604052508101906109279190611780565b9050801561099b576109436001600160a01b0383168583610c33565b816001600160a01b0316846001600160a01b0316306001600160a01b03167fad248945aa9c6e54a3aae4c347a04143e677a981dbefd64b871fd587ad6077c68460405161099291815260200190565b60405180910390a45b505080806109a890611797565b91505061088e565b505f915050610434565b6109c660018481610c43565b508115610a915760405163ae63932960e01b81526001600160a01b038481166004830152306024830152604482018490527f0000000000000000000000000000000000000000000000000000000000000000169063ae639329906064015f604051808303815f87803b158015610a3a575f5ffd5b505af1158015610a4c573d5f5f3e3d5ffd5b50506040518481526001600160a01b03861692503091507f9614d1bfde1842c37d557aba9f2b69fa1ad92fef808d832d9f4b3ab5cdd06a7b9060200160405180910390a35b5080610434565b610aa0610645565b6001600160a01b0316336001600160a01b031614610643573360405163118cdaa760e01b81526004016106ee91906113f6565b638b78c6d81980546001600160a01b039092169182907f8be0079c531659141344cd1fd0a4f28419497f9722a3daafe3b4186f6b6457e05f80a355565b5f5f835f01548310610b3557604051634e23d03560e01b815260040160405180910390fd5b50505f90815260019182016020526040902080549101546001600160a01b0390911691565b6001600160a01b0381165f9081526002830160205260408120548015610c235783545f198083019101808214610bda575f818152600180880160209081526040808420868552818520815481546001600160a01b0319166001600160a01b0391821617825582860154919095015554909216835260028901905290208390555b5f81815260018088016020908152604080842080546001600160a01b031916815583018490559389556001600160a01b038816835260028901905291812055925061059e915050565b5f91505061059e565b5092915050565b610c3e838383610cee565b505050565b6001600160a01b0382165f908152600284016020526040812054808203610cd057505082546040805180820182526001600160a01b0385811680835260208084018781525f8781526001808c018452878220965187546001600160a01b031916961695909517865590519484019490945594820180895590835260028801909452919020919091556105f2565b5f19015f9081526001808601602052604082200183905590506105f2565b816014528060345263a9059cbb60601b5f5260205f604460105f875af18060015f511416610d2e57803d853b151710610d2e576390b8ec185f526004601cfd5b505f603452505050565b60408051610140810182525f80825260208201819052918101829052606081018290526080810182905260a0810182905260c0810182905260e08101829052610100810182905261012081019190915290565b6001600160a01b03811681146106ba575f5ffd5b8035610daa81610d8b565b919050565b634e487b7160e01b5f52604160045260245ffd5b604051608081016001600160401b0381118282101715610de557610de5610daf565b60405290565b604051601f8201601f191681016001600160401b0381118282101715610e1357610e13610daf565b604052919050565b5f6001600160401b03821115610e3357610e33610daf565b5060051b60200190565b600281106106ba575f5ffd5b5f60808284031215610e59575f5ffd5b50919050565b5f5f5f5f60e08587031215610e72575f5ffd5b8435610e7d81610d8b565b93506020850135610e8d81610d8b565b925060408501356001600160401b03811115610ea7575f5ffd5b8501601f81018713610eb7575f5ffd5b8035610eca610ec582610e1b565b610deb565b8082825260208201915060208360071b850101925089831115610eeb575f5ffd5b6020840193505b82841015610f6f576080848b031215610f09575f5ffd5b610f11610dc3565b8435610f1c81610d8b565b81526020850135610f2c81610e3d565b60208201526040850135610f3f81610d8b565b604082015260608501358015158114610f56575f5ffd5b6060820152825260809390930192602090910190610ef2565b80955050505050610f838660608701610e49565b905092959194509250565b5f60208284031215610f9e575f5ffd5b81356001600160401b03811115610fb3575f5ffd5b820161018081850312156105f2575f5ffd5b5f82601f830112610fd4575f5ffd5b8135610fe2610ec582610e1b565b8082825260208201915060208360051b860101925085831115611003575f5ffd5b602085015b83811015611020578035835260209283019201611008565b5095945050505050565b5f82601f830112611039575f5ffd5b81356001600160401b0381111561105257611052610daf565b611065601f8201601f1916602001610deb565b818152846020838601011115611079575f5ffd5b816020850160208301375f918101602001919091529392505050565b5f5f604083850312156110a6575f5ffd5b82356001600160401b038111156110bb575f5ffd5b6110c785828601610fc5565b92505060208301356001600160401b038111156110e2575f5ffd5b6110ee8582860161102a565b9150509250929050565b803560048110610daa575f5ffd5b5f5f5f5f5f5f5f5f610100898b03121561111e575f5ffd5b61112789610d9f565b975061113560208a01610d9f565b965061114360408a016110f8565b95506060890135945060808901356001600160401b03811115611164575f5ffd5b6111708b828c01610fc5565b94505060a08901356001600160401b0381111561118b575f5ffd5b6111978b828c01610fc5565b93505060c08901356001600160401b038111156111b2575f5ffd5b6111be8b828c01610fc5565b92505060e08901356001600160401b038111156111d9575f5ffd5b6111e58b828c0161102a565b9150509295985092959890939650565b5f604082018415158352604060208401528084518083526060850191506020860192505f5b8181101561123857835183526020938401939092019160010161121a565b50909695505050505050565b5f5f5f60608486031215611256575f5ffd5b83356001600160401b0381111561126b575f5ffd5b61127786828701610fc5565b9350506020840135915060408401356001600160401b03811115611299575f5ffd5b6112a58682870161102a565b9150509250925092565b6001600160401b0391909116815260200190565b803560058110610daa575f5ffd5b5f5f5f5f5f5f5f60e0888a0312156112e7575f5ffd5b87356112f281610d8b565b965061130060208901610d9f565b955061130e604089016112c3565b945060608801356001600160401b03811115611328575f5ffd5b6113348a828b01610fc5565b9450506080880135925060a08801356001600160401b03811115611356575f5ffd5b6113628a828b01610fc5565b92505060c08801356001600160401b0381111561137d575f5ffd5b6113898a828b0161102a565b91505092959891949750929550565b5f60e08284031215610e59575f5ffd5b5f5f604083850312156113b9575f5ffd5b82356001600160401b038111156113ce575f5ffd5b6113da85828601611398565b92505060208301356113eb81610d8b565b809150509250929050565b6001600160a01b0391909116815260200190565b5f5f5f5f5f5f5f5f610100898b031215611422575f5ffd5b61142b89610d9f565b975061143960208a01610d9f565b965061144760408a016112c3565b955060608901356001600160401b03811115611461575f5ffd5b61146d8b828c01610fc5565b95505060808901356001600160401b03811115611488575f5ffd5b6114948b828c01610fc5565b94505060a0890135925060c08901356001600160401b038111156111b2575f5ffd5b5f5f5f606084860312156114c8575f5ffd5b83356001600160401b038111156114dd575f5ffd5b6114e986828701611398565b93505060208401356114fa81610d8b565b929592945050506040919091013590565b5f5f5f5f5f5f5f60e0888a031215611521575f5ffd5b873561152c81610d8b565b965061153a60208901610d9f565b9550611548604089016110f8565b94506060880135935060808801356001600160401b03811115611569575f5ffd5b6115758a828b01610fc5565b93505060a08801356001600160401b03811115611356575f5ffd5b815115158152610140810160208301516115ae602084018215159052565b5060408301516115c2604084018215159052565b5060608301516115d6606084018215159052565b5060808301516115ea608084018215159052565b5060a08301516115fe60a084018215159052565b5060c083015161161260c084018215159052565b5060e083015161162660e084018215159052565b5061010083015161163c61010084018215159052565b50610120830151610c2c61012084018215159052565b5f60208284031215611662575f5ffd5b81356105f281610d8b565b5f6020828403121561167d575f5ffd5b81356001600160401b03811681146105f2575f5ffd5b634e487b7160e01b5f52601160045260245ffd5b5f600182016116b8576116b8611693565b5060010190565b634e487b7160e01b5f52602160045260245ffd5b5f602082840312156116e3575f5ffd5b81356105f281610e3d565b8181038181111561059e5761059e611693565b8082018082111561059e5761059e611693565b634e487b7160e01b5f52601260045260245ffd5b5f8261173657611736611714565b500690565b808202811582820484141761059e5761059e611693565b5f8261176057611760611714565b500490565b5f60208284031215611775575f5ffd5b81516105f281610d8b565b5f60208284031215611790575f5ffd5b5051919050565b5f816117a5576117a5611693565b505f19019056fea2646970667358221220ebae20582a5fc5f06186c2f8d58cf5bb6943e472eead2c555672528b4b5a03fe64736f6c634300081e0033","linkReferences":{}},"methodIdentifiers":{"LUCKY_NUMBER()":"f883fcaa","MAX_NUMBER()":"fea9b572","cancelOwnershipHandover()":"54d1f13d","completeOwnershipHandover(address)":"f04e283e","getHookFlags()":"d77153a7","getRandomNumber()":"dbdff2c1","hookSwapFeePercentage()":"4392312a","onAfterAddLiquidity(address,address,uint8,uint256[],uint256[],uint256,uint256[],bytes)":"976907cc","onAfterInitialize(uint256[],uint256,bytes)":"38be241d","onAfterRemoveLiquidity(address,address,uint8,uint256,uint256[],uint256[],uint256[],bytes)":"2754888d","onAfterSwap((uint8,address,address,uint256,uint256,uint256,uint256,uint256,uint256,address,address,bytes))":"18b6eb55","onBeforeAddLiquidity(address,address,uint8,uint256[],uint256,uint256[],bytes)":"45421ec7","onBeforeInitialize(uint256[],bytes)":"1c149e28","onBeforeRemoveLiquidity(address,address,uint8,uint256,uint256[],uint256[],bytes)":"ba5f9f40","onBeforeSwap((uint8,uint256,uint256[],uint256,uint256,address,bytes),address)":"5211fa77","onComputeDynamicSwapFeePercentage((uint8,uint256,uint256[],uint256,uint256,address,bytes),address,uint256)":"a0e8f5ac","onRegister(address,address,(address,uint8,address,bool)[],(bool,bool,bool,bool))":"0b89f182","owner()":"8da5cb5b","ownershipHandoverExpiresAt(address)":"fee81cf4","renounceOwnership()":"715018a6","requestOwnershipHandover()":"25692962","setHookSwapFeePercentage(uint64)":"f9e5c197","transferOwnership(address)":"f2fde38b"},"id":135}