{"abi":[{"type":"constructor","inputs":[{"name":"vault_","type":"address","internalType":"contract IVault"},{"name":"initialGlobalSwapFeePercentage","type":"uint256","internalType":"uint256"},{"name":"initialGlobalYieldFeePercentage","type":"uint256","internalType":"uint256"}],"stateMutability":"nonpayable"},{"type":"function","name":"MAX_CREATOR_FEE_PERCENTAGE","inputs":[],"outputs":[{"name":"","type":"uint256","internalType":"uint256"}],"stateMutability":"view"},{"type":"function","name":"MAX_PROTOCOL_SWAP_FEE_PERCENTAGE","inputs":[],"outputs":[{"name":"","type":"uint256","internalType":"uint256"}],"stateMutability":"view"},{"type":"function","name":"MAX_PROTOCOL_YIELD_FEE_PERCENTAGE","inputs":[],"outputs":[{"name":"","type":"uint256","internalType":"uint256"}],"stateMutability":"view"},{"type":"function","name":"collectAggregateFees","inputs":[{"name":"pool","type":"address","internalType":"address"}],"outputs":[],"stateMutability":"nonpayable"},{"type":"function","name":"collectAggregateFeesHook","inputs":[{"name":"pool","type":"address","internalType":"address"}],"outputs":[],"stateMutability":"nonpayable"},{"type":"function","name":"computeAggregateFeePercentage","inputs":[{"name":"protocolFeePercentage","type":"uint256","internalType":"uint256"},{"name":"poolCreatorFeePercentage","type":"uint256","internalType":"uint256"}],"outputs":[{"name":"","type":"uint256","internalType":"uint256"}],"stateMutability":"pure"},{"type":"function","name":"getActionId","inputs":[{"name":"selector","type":"bytes4","internalType":"bytes4"}],"outputs":[{"name":"","type":"bytes32","internalType":"bytes32"}],"stateMutability":"view"},{"type":"function","name":"getAuthorizer","inputs":[],"outputs":[{"name":"","type":"address","internalType":"contract IAuthorizer"}],"stateMutability":"view"},{"type":"function","name":"getGlobalProtocolSwapFeePercentage","inputs":[],"outputs":[{"name":"","type":"uint256","internalType":"uint256"}],"stateMutability":"view"},{"type":"function","name":"getGlobalProtocolYieldFeePercentage","inputs":[],"outputs":[{"name":"","type":"uint256","internalType":"uint256"}],"stateMutability":"view"},{"type":"function","name":"getPoolCreatorFeeAmounts","inputs":[{"name":"pool","type":"address","internalType":"address"}],"outputs":[{"name":"feeAmounts","type":"uint256[]","internalType":"uint256[]"}],"stateMutability":"view"},{"type":"function","name":"getPoolCreatorSwapFeePercentage","inputs":[{"name":"pool","type":"address","internalType":"address"}],"outputs":[{"name":"","type":"uint256","internalType":"uint256"}],"stateMutability":"view"},{"type":"function","name":"getPoolCreatorYieldFeePercentage","inputs":[{"name":"pool","type":"address","internalType":"address"}],"outputs":[{"name":"","type":"uint256","internalType":"uint256"}],"stateMutability":"view"},{"type":"function","name":"getPoolProtocolSwapFeeInfo","inputs":[{"name":"pool","type":"address","internalType":"address"}],"outputs":[{"name":"","type":"uint256","internalType":"uint256"},{"name":"","type":"bool","internalType":"bool"}],"stateMutability":"view"},{"type":"function","name":"getPoolProtocolYieldFeeInfo","inputs":[{"name":"pool","type":"address","internalType":"address"}],"outputs":[{"name":"","type":"uint256","internalType":"uint256"},{"name":"","type":"bool","internalType":"bool"}],"stateMutability":"view"},{"type":"function","name":"getProtocolFeeAmounts","inputs":[{"name":"pool","type":"address","internalType":"address"}],"outputs":[{"name":"feeAmounts","type":"uint256[]","internalType":"uint256[]"}],"stateMutability":"view"},{"type":"function","name":"getVault","inputs":[],"outputs":[{"name":"","type":"address","internalType":"contract IVault"}],"stateMutability":"view"},{"type":"function","name":"isPoolRegistered","inputs":[{"name":"pool","type":"address","internalType":"address"}],"outputs":[{"name":"","type":"bool","internalType":"bool"}],"stateMutability":"view"},{"type":"function","name":"migratePool","inputs":[{"name":"pool","type":"address","internalType":"address"}],"outputs":[],"stateMutability":"nonpayable"},{"type":"function","name":"registerPool","inputs":[{"name":"pool","type":"address","internalType":"address"},{"name":"poolCreator","type":"address","internalType":"address"},{"name":"protocolFeeExempt","type":"bool","internalType":"bool"}],"outputs":[{"name":"aggregateSwapFeePercentage","type":"uint256","internalType":"uint256"},{"name":"aggregateYieldFeePercentage","type":"uint256","internalType":"uint256"}],"stateMutability":"nonpayable"},{"type":"function","name":"setGlobalProtocolSwapFeePercentage","inputs":[{"name":"newProtocolSwapFeePercentage","type":"uint256","internalType":"uint256"}],"outputs":[],"stateMutability":"nonpayable"},{"type":"function","name":"setGlobalProtocolYieldFeePercentage","inputs":[{"name":"newProtocolYieldFeePercentage","type":"uint256","internalType":"uint256"}],"outputs":[],"stateMutability":"nonpayable"},{"type":"function","name":"setPoolCreatorSwapFeePercentage","inputs":[{"name":"pool","type":"address","internalType":"address"},{"name":"poolCreatorSwapFeePercentage","type":"uint256","internalType":"uint256"}],"outputs":[],"stateMutability":"nonpayable"},{"type":"function","name":"setPoolCreatorYieldFeePercentage","inputs":[{"name":"pool","type":"address","internalType":"address"},{"name":"poolCreatorYieldFeePercentage","type":"uint256","internalType":"uint256"}],"outputs":[],"stateMutability":"nonpayable"},{"type":"function","name":"setProtocolSwapFeePercentage","inputs":[{"name":"pool","type":"address","internalType":"address"},{"name":"newProtocolSwapFeePercentage","type":"uint256","internalType":"uint256"}],"outputs":[],"stateMutability":"nonpayable"},{"type":"function","name":"setProtocolYieldFeePercentage","inputs":[{"name":"pool","type":"address","internalType":"address"},{"name":"newProtocolYieldFeePercentage","type":"uint256","internalType":"uint256"}],"outputs":[],"stateMutability":"nonpayable"},{"type":"function","name":"updateProtocolSwapFeePercentage","inputs":[{"name":"pool","type":"address","internalType":"address"}],"outputs":[],"stateMutability":"nonpayable"},{"type":"function","name":"updateProtocolYieldFeePercentage","inputs":[{"name":"pool","type":"address","internalType":"address"}],"outputs":[],"stateMutability":"nonpayable"},{"type":"function","name":"vault","inputs":[],"outputs":[{"name":"","type":"address","internalType":"contract IVault"}],"stateMutability":"view"},{"type":"function","name":"withdrawPoolCreatorFees","inputs":[{"name":"pool","type":"address","internalType":"address"}],"outputs":[],"stateMutability":"nonpayable"},{"type":"function","name":"withdrawPoolCreatorFees","inputs":[{"name":"pool","type":"address","internalType":"address"},{"name":"recipient","type":"address","internalType":"address"}],"outputs":[],"stateMutability":"nonpayable"},{"type":"function","name":"withdrawProtocolFees","inputs":[{"name":"pool","type":"address","internalType":"address"},{"name":"recipient","type":"address","internalType":"address"}],"outputs":[],"stateMutability":"nonpayable"},{"type":"function","name":"withdrawProtocolFeesForToken","inputs":[{"name":"pool","type":"address","internalType":"address"},{"name":"recipient","type":"address","internalType":"address"},{"name":"token","type":"address","internalType":"contract IERC20"}],"outputs":[],"stateMutability":"nonpayable"},{"type":"event","name":"GlobalProtocolSwapFeePercentageChanged","inputs":[{"name":"swapFeePercentage","type":"uint256","indexed":false,"internalType":"uint256"}],"anonymous":false},{"type":"event","name":"GlobalProtocolYieldFeePercentageChanged","inputs":[{"name":"yieldFeePercentage","type":"uint256","indexed":false,"internalType":"uint256"}],"anonymous":false},{"type":"event","name":"InitialPoolAggregateSwapFeePercentage","inputs":[{"name":"pool","type":"address","indexed":true,"internalType":"address"},{"name":"aggregateSwapFeePercentage","type":"uint256","indexed":false,"internalType":"uint256"},{"name":"isProtocolFeeExempt","type":"bool","indexed":false,"internalType":"bool"}],"anonymous":false},{"type":"event","name":"InitialPoolAggregateYieldFeePercentage","inputs":[{"name":"pool","type":"address","indexed":true,"internalType":"address"},{"name":"aggregateYieldFeePercentage","type":"uint256","indexed":false,"internalType":"uint256"},{"name":"isProtocolFeeExempt","type":"bool","indexed":false,"internalType":"bool"}],"anonymous":false},{"type":"event","name":"PoolCreatorFeesWithdrawn","inputs":[{"name":"pool","type":"address","indexed":true,"internalType":"address"},{"name":"token","type":"address","indexed":true,"internalType":"contract IERC20"},{"name":"recipient","type":"address","indexed":true,"internalType":"address"},{"name":"amount","type":"uint256","indexed":false,"internalType":"uint256"}],"anonymous":false},{"type":"event","name":"PoolCreatorSwapFeePercentageChanged","inputs":[{"name":"pool","type":"address","indexed":true,"internalType":"address"},{"name":"poolCreatorSwapFeePercentage","type":"uint256","indexed":false,"internalType":"uint256"}],"anonymous":false},{"type":"event","name":"PoolCreatorYieldFeePercentageChanged","inputs":[{"name":"pool","type":"address","indexed":true,"internalType":"address"},{"name":"poolCreatorYieldFeePercentage","type":"uint256","indexed":false,"internalType":"uint256"}],"anonymous":false},{"type":"event","name":"PoolRegisteredWithFeeController","inputs":[{"name":"pool","type":"address","indexed":true,"internalType":"address"},{"name":"poolCreator","type":"address","indexed":true,"internalType":"address"},{"name":"protocolFeeExempt","type":"bool","indexed":false,"internalType":"bool"}],"anonymous":false},{"type":"event","name":"ProtocolFeesWithdrawn","inputs":[{"name":"pool","type":"address","indexed":true,"internalType":"address"},{"name":"token","type":"address","indexed":true,"internalType":"contract IERC20"},{"name":"recipient","type":"address","indexed":true,"internalType":"address"},{"name":"amount","type":"uint256","indexed":false,"internalType":"uint256"}],"anonymous":false},{"type":"event","name":"ProtocolSwapFeeCollected","inputs":[{"name":"pool","type":"address","indexed":true,"internalType":"address"},{"name":"token","type":"address","indexed":true,"internalType":"contract IERC20"},{"name":"amount","type":"uint256","indexed":false,"internalType":"uint256"}],"anonymous":false},{"type":"event","name":"ProtocolSwapFeePercentageChanged","inputs":[{"name":"pool","type":"address","indexed":true,"internalType":"address"},{"name":"swapFeePercentage","type":"uint256","indexed":false,"internalType":"uint256"}],"anonymous":false},{"type":"event","name":"ProtocolYieldFeeCollected","inputs":[{"name":"pool","type":"address","indexed":true,"internalType":"address"},{"name":"token","type":"address","indexed":true,"internalType":"contract IERC20"},{"name":"amount","type":"uint256","indexed":false,"internalType":"uint256"}],"anonymous":false},{"type":"event","name":"ProtocolYieldFeePercentageChanged","inputs":[{"name":"pool","type":"address","indexed":true,"internalType":"address"},{"name":"yieldFeePercentage","type":"uint256","indexed":false,"internalType":"uint256"}],"anonymous":false},{"type":"error","name":"CallerIsNotPoolCreator","inputs":[{"name":"caller","type":"address","internalType":"address"},{"name":"pool","type":"address","internalType":"address"}]},{"type":"error","name":"FeePrecisionTooHigh","inputs":[]},{"type":"error","name":"InvalidMigrationSource","inputs":[]},{"type":"error","name":"PoolAlreadyRegistered","inputs":[{"name":"pool","type":"address","internalType":"address"}]},{"type":"error","name":"PoolCreatorFeePercentageTooHigh","inputs":[]},{"type":"error","name":"PoolCreatorNotRegistered","inputs":[{"name":"pool","type":"address","internalType":"address"}]},{"type":"error","name":"ProtocolSwapFeePercentageTooHigh","inputs":[]},{"type":"error","name":"ProtocolYieldFeePercentageTooHigh","inputs":[]},{"type":"error","name":"ReentrancyGuardReentrantCall","inputs":[]},{"type":"error","name":"SenderIsNotVault","inputs":[{"name":"sender","type":"address","internalType":"address"}]},{"type":"error","name":"SenderNotAllowed","inputs":[]},{"type":"error","name":"VaultNotSet","inputs":[]},{"type":"error","name":"ZeroDivision","inputs":[]}],"bytecode":{"object":"0x60e060405234801561000f575f5ffd5b50604051612c47380380612c4783398101604081905261002e916101a5565b3060808190528390819081906001600160a01b03821661006157604051630647140b60e51b815260040160405180910390fd5b506001600160a01b0390811660a0529190911660c0525061008182610092565b61008a81610101565b50505061022c565b806706f05b59d3b200008111156100bc57604051637e6eb7fb60e01b815260040160405180910390fd5b6100c581610169565b5f8290556040518281527fbf5ac0fc89bbf8819be79f280146b65ea2af2a9705cd9cfe0c9d93f6e87f307d906020015b60405180910390a15050565b806706f05b59d3b2000081111561012b576040516353c24f4760e11b815260040160405180910390fd5b61013481610169565b60018290556040518281527f48c5c3ccec54c4e0ea08d83d838fa9bb725eb0b52c591cb00bd6e63bca8c44f6906020016100f5565b8064174876e80061017a81836101e4565b6101849190610203565b146101a25760405163419fd9e760e11b815260040160405180910390fd5b50565b5f5f5f606084860312156101b7575f5ffd5b83516001600160a01b03811681146101cd575f5ffd5b602085015160409095015190969495509392505050565b5f826101fe57634e487b7160e01b5f52601260045260245ffd5b500490565b808202811582820484141761022657634e487b7160e01b5f52601160045260245ffd5b92915050565b60805160a05160c0516129966102b15f395f81816104bc015281816104f601528181610de4015281816110740152818161116e0152818161133c01528181611421015281816114db015281816116da015281816117fe015281816118c4015281816119b80152611ed801525f8181610cd90152611ca701525f610c6501526129965ff3fe608060405234801561000f575f5ffd5b5060043610610189575f3560e01c80630252aab51461018d5780630874327f146101c85780630b8e059b146101dd5780630ddd60c6146102055780631377c16c146102185780632772d1561461022b5780632e1d388d1461023a5780633af527121461024957806352f125f01461025c57806355fb76af1461026f5780635c15a0b4146102775780635e32e4e81461022b57806371447ea8146102da57806371ecc8fb146102ed57806377ff76e7146103005780637869ee18146103285780637a2b97dc1461032f578063851c1bb3146103845780638a3c5c69146103975780638d928af8146103aa5780638df44c54146103bf5780638f4ab9ca146103df5780639e95f3fd146103f2578063a93df2a414610405578063aaabadc514610418578063abaa335614610420578063b53a70b214610433578063c673bdaf14610446578063cf7b287f14610481578063f706144514610494578063fa399f2a146104a7578063fbfa77cf146104ba578063fd267f39146104e0575b5f5ffd5b6101b561019b366004612323565b6001600160a01b03165f9081526006602052604090205490565b6040519081526020015b60405180910390f35b6101db6101d6366004612323565b6104f3565b005b6101b56101eb366004612323565b6001600160a01b03165f9081526005602052604090205490565b6101b5610213366004612345565b6108b8565b6101db610226366004612365565b6108cc565b6101b56706f05b59d3b2000081565b6101b5670de0ad9b58f1600081565b6101db610257366004612365565b61091b565b6101db61026a366004612323565b610964565b6001546101b5565b6102cc610285366004612323565b6001600160a01b03165f908152600260209081526040918290208251808401909352546001600160401b038116808452600160401b90910460ff1615159290910182905291565b6040516101bf92919061238f565b6101db6102e8366004612323565b610979565b6101db6102fb366004612323565b6109f4565b61031361030e3660046123ac565b610a6a565b604080519283526020830191909152016101bf565b5f546101b5565b6102cc61033d366004612323565b6001600160a01b03165f908152600360209081526040918290208251808401909352546001600160401b038116808452600160401b90910460ff1615159290910182905291565b6101b56103923660046123f4565b610c62565b6101db6103a536600461241b565b610cc6565b6103b2610cd7565b6040516101bf9190612432565b6103d26103cd366004612323565b610d00565b6040516101bf9190612446565b6101db6103ed366004612323565b610de2565b6103d2610400366004612323565b610eb1565b6101db61041336600461241b565b610f8b565b6103b2610f9c565b6101db61042e366004612365565b611004565b6101db610441366004612488565b611055565b610471610454366004612323565b6001600160a01b03165f9081526004602052604090205460ff1690565b60405190151581526020016101bf565b6101db61048f3660046124c5565b6110fb565b6101db6104a23660046124c5565b61114e565b6101db6104b5366004612323565b611162565b7f00000000000000000000000000000000000000000000000000000000000000006103b2565b6101db6104ee366004612365565b611209565b5f7f00000000000000000000000000000000000000000000000000000000000000006001600160a01b03166385f2dbd46040518163ffffffff1660e01b8152600401602060405180830381865afa158015610550573d5f5f3e3d5ffd5b505050506040513d601f19601f8201168201806040525081019061057491906124fc565b9050306001600160a01b0382160361059f5760405163b82fd5bf60e01b815260040160405180910390fd5b6001600160a01b0382165f9081526004602052604090205460ff16156105e357816040516301b6ee3960e71b81526004016105da9190612432565b60405180910390fd5b6001600160a01b038083165f908152600460208190526040808320805460ff1916600117905551631705682d60e21b81529192839290851691635c15a0b49161062e91889101612432565b6040805180830381865afa158015610648573d5f5f3e3d5ffd5b505050506040513d601f19601f8201168201806040525081019061066c9190612517565b9150915060405180604001604052806106848461125a565b6001600160401b0390811682528315156020928301526001600160a01b038088165f9081526002845260408082208651815497909601511515600160401b026001600160481b03199097169590941694909417949094179091559051631e8ae5f760e21b81528291861690637a2b97dc90610703908990600401612432565b6040805180830381865afa15801561071d573d5f5f3e3d5ffd5b505050506040513d601f19601f820116820180604052508101906107419190612517565b9150915060405180604001604052806107598461125a565b6001600160401b0390811682528315156020928301526001600160a01b03808a165f908152600384526040908190208551815496909501511515600160401b026001600160481b0319909616949093169390931793909317905551630b8e059b60e01b815290861690630b8e059b906107d6908990600401612432565b602060405180830381865afa92505050801561080f575060408051601f3d908101601f1916820190925261080c9181019061253b565b60015b1561082d576001600160a01b0387165f908152600560205260409020555b604051630252aab560e01b81526001600160a01b03861690630252aab590610859908990600401612432565b602060405180830381865afa925050508015610892575060408051601f3d908101601f1916820190925261088f9181019061253b565b60015b156108b0576001600160a01b0387165f908152600660205260409020555b505050505050565b5f6108c38383611264565b90505b92915050565b816108d6816112a5565b81670de0ad9b58f160008111156108ff5760405162dc369d60e21b815260040160405180910390fd5b8361090981610de2565b61091485855f611307565b5050505050565b81610925816112a5565b81670de0ad9b58f1600081111561094e5760405162dc369d60e21b815260040160405180910390fd5b8361095881610de2565b61091485856001611307565b61097681610971836114d7565b61156f565b50565b8061098381610de2565b6001600160a01b0382165f908152600360209081526040918290208251808401909352546001600160401b0381168352600160401b900460ff16158015918301829052600154916109de575081516001600160401b03168114155b156109ee576109ee84825f61166b565b50505050565b806109fe81610de2565b6001600160a01b0382165f9081526002602090815260408083208151808301909252546001600160401b0381168252600160401b900460ff16158015928201839052925490929091610a5a575081516001600160401b03168114155b156109ee576109ee84825f611790565b5f5f610a746118b9565b6001600160a01b0385165f908152600460205260409020805460ff1916600117905582610aa2575f54610aa4565b5f5b915082610ab357600154610ab5565b5f5b90506040518060400160405280610acb8461125a565b6001600160401b0390811682528515156020928301526001600160a01b0388165f908152600283526040908190208451815495909401511515600160401b026001600160481b0319909516939092169290921792909217909155805180820190915280610b378361125a565b6001600160401b0390811682528515156020928301526001600160a01b0388165f818152600384526040908190208551815496909501511515600160401b026001600160481b03199096169490931693909317939093179055517fa34ad86562f9716c2f1e723934cc63f44a9b4695cb8535c30dd8308d03a7856490610bc0908590879061238f565b60405180910390a2846001600160a01b03167fce1d009285405b74cf77294916c17664de2c84eef81225c71f265f823b358bcb8285604051610c0392919061238f565b60405180910390a2836001600160a01b0316856001600160a01b03167fd9725c347996d9a5d6001b5f7c2a2515d365258012fceff4f49e84310ed0791285604051610c52911515815260200190565b60405180910390a3935093915050565b5f7f000000000000000000000000000000000000000000000000000000000000000082604051602001610ca99291909182526001600160e01b031916602082015260240190565b604051602081830303815290604052805190602001209050919050565b610cce611906565b61097681611944565b7f000000000000000000000000000000000000000000000000000000000000000090565b905090565b60605f5f610d0d846119b3565b91509150806001600160401b03811115610d2957610d29612552565b604051908082528060200260200182016040528015610d52578160200160208202803683370190505b5092505f5b81811015610dda576001600160a01b0385165f9081526007602052604081208451909190859084908110610d8d57610d8d612566565b60200260200101516001600160a01b03166001600160a01b031681526020019081526020015f2054848281518110610dc757610dc7612566565b6020908102919091010152600101610d57565b505050919050565b7f00000000000000000000000000000000000000000000000000000000000000006001600160a01b03166348c8949182604051602401610e229190612432565b60408051601f198184030181529181526020820180516001600160e01b0316637d1ccf9560e11b179052516001600160e01b031960e084901b168152610e6b919060040161257a565b5f604051808303815f875af1158015610e86573d5f5f3e3d5ffd5b505050506040513d5f823e601f3d908101601f19168201604052610ead91908101906125df565b5050565b60605f5f610ebe846119b3565b91509150806001600160401b03811115610eda57610eda612552565b604051908082528060200260200182016040528015610f03578160200160208202803683370190505b5092505f5b81811015610dda576001600160a01b0385165f9081526008602052604081208451909190859084908110610f3e57610f3e612566565b60200260200101516001600160a01b03166001600160a01b031681526020019081526020015f2054848281518110610f7857610f78612566565b6020908102919091010152600101610f08565b610f93611906565b61097681611a4e565b5f610fa5610cd7565b6001600160a01b031663aaabadc56040518163ffffffff1660e01b8152600401602060405180830381865afa158015610fe0573d5f5f3e3d5ffd5b505050506040513d601f19601f82011682018060405250810190610cfb91906124fc565b61100c611906565b806706f05b59d3b20000811115611036576040516353c24f4760e11b815260040160405180910390fd5b61103f81611ab6565b8261104981610de2565b6109ee8484600161166b565b61105d611906565b60405163c9c1661b60e01b81526001600160a01b037f0000000000000000000000000000000000000000000000000000000000000000169063c9c1661b906110ab9086908590600401612671565b6040805180830381865afa1580156110c5573d5f5f3e3d5ffd5b505050506040513d601f19601f820116820180604052508101906110e9919061268b565b50506110f6838383611aef565b505050565b611103611906565b5f5f61110e846119b3565b90925090505f5b81811015610914575f83828151811061113057611130612566565b60200260200101519050611145868683611aef565b50600101611115565b81611158816112a5565b6110f6838361156f565b61116a6118b9565b5f5f7f00000000000000000000000000000000000000000000000000000000000000006001600160a01b0316638f4ab9ca846040518263ffffffff1660e01b81526004016111b89190612432565b5f604051808303815f875af11580156111d3573d5f5f3e3d5ffd5b505050506040513d5f823e601f3d908101601f191682016040526111fa9190810190612739565b915091506110f6838383611baa565b611211611906565b806706f05b59d3b2000081111561123b57604051637e6eb7fb60e01b815260040160405180910390fd5b61124481611ab6565b8261124e81610de2565b6109ee84846001611790565b5f6108c682611bc1565b5f61127f82670de0b6b3a76400008581039086100290611bd9565b61128990846127b2565b905064174876e80061129b81836127c5565b6108c391906127e4565b5f6112af826114d7565b90506001600160a01b0381166112da5781604051638bcbf35360e01b81526004016105da9190612432565b6001600160a01b0381163314610ead573382604051633efb36fd60e21b81526004016105da929190612671565b5f81600181111561131a5761131a6127fb565b03611404576001600160a01b038084165f9081526005602052604081208490557f000000000000000000000000000000000000000000000000000000000000000090911690635e0b06f4908590611372908290611c01565b6040518363ffffffff1660e01b815260040161138f92919061280f565b5f604051808303815f87803b1580156113a6575f5ffd5b505af11580156113b8573d5f5f3e3d5ffd5b50505050826001600160a01b03167fb7cf36369623c01ed7b2eafc4025224e924a2836d5fb49428a0f65417586bf5c836040516113f791815260200190565b60405180910390a2505050565b6001600160a01b038084165f9081526006602052604090208390557f00000000000000000000000000000000000000000000000000000000000000001663e253670a84611452816001611c01565b6040518363ffffffff1660e01b815260040161146f92919061280f565b5f604051808303815f87803b158015611486575f5ffd5b505af1158015611498573d5f5f3e3d5ffd5b50505050826001600160a01b03167f47f70ddbc624c299cef7841aaea0a86b677c800203e953104e958c9ec9bdab34836040516113f791815260200190565b5f5f7f00000000000000000000000000000000000000000000000000000000000000006001600160a01b031663e9ddeb26846040518263ffffffff1660e01b81526004016115259190612432565b606060405180830381865afa158015611540573d5f5f3e3d5ffd5b505050506040513d601f19601f820116820180604052508101906115649190612828565b604001519392505050565b5f5f61157a846119b3565b90925090505f5b81811015610914575f83828151811061159c5761159c612566565b6020908102919091018101516001600160a01b038089165f908152600884526040808220928416825291909352909120549091508015611661576001600160a01b038088165f90815260086020908152604080832093861680845293909152812055611609908783611c99565b856001600160a01b0316826001600160a01b0316886001600160a01b03167f938f3a3a03ee425ccc0f8010b0468938cbafd3750fa43bbdf09c6f75e97e51f98460405161165891815260200190565b60405180910390a45b5050600101611581565b604051806040016040528061167f8461125a565b6001600160401b0390811682528315156020928301526001600160a01b038087165f90815260038452604090208451815495909401511515600160401b026001600160481b03199095169390921692909217929092179091557f00000000000000000000000000000000000000000000000000000000000000001663e253670a8461170b816001611c01565b6040518363ffffffff1660e01b815260040161172892919061280f565b5f604051808303815f87803b15801561173f575f5ffd5b505af1158015611751573d5f5f3e3d5ffd5b50505050826001600160a01b03167faf47449d1c3597ccc9f5ec3acad03cef57aa90a719000441b320687087948efd836040516113f791815260200190565b60405180604001604052806117a48461125a565b6001600160401b0390811682528315156020928301526001600160a01b038087165f90815260028452604081208551815496909501511515600160401b026001600160481b031990961694909316939093179390931790557f000000000000000000000000000000000000000000000000000000000000000090911690635e0b06f4908590611834908290611c01565b6040518363ffffffff1660e01b815260040161185192919061280f565b5f604051808303815f87803b158015611868575f5ffd5b505af115801561187a573d5f5f3e3d5ffd5b50505050826001600160a01b03167f97cff4b6e6d80e307faab8b730d9f69264e860f2e0e10cfb8cdaf8a2f44e839e836040516113f791815260200190565b336001600160a01b037f00000000000000000000000000000000000000000000000000000000000000001614611904573360405163089676d560e01b81526004016105da9190612432565b565b5f61191b5f356001600160e01b031916610c62565b90506119278133611ca4565b610976576040516323dada5360e01b815260040160405180910390fd5b806706f05b59d3b2000081111561196e57604051637e6eb7fb60e01b815260040160405180910390fd5b61197781611ab6565b5f8290556040518281527fbf5ac0fc89bbf8819be79f280146b65ea2af2a9705cd9cfe0c9d93f6e87f307d906020015b60405180910390a15050565b60605f7f00000000000000000000000000000000000000000000000000000000000000006001600160a01b031663ca4f2803846040518263ffffffff1660e01b8152600401611a029190612432565b5f60405180830381865afa158015611a1c573d5f5f3e3d5ffd5b505050506040513d5f823e601f3d908101601f19168201604052611a439190810190612899565b915081519050915091565b806706f05b59d3b20000811115611a78576040516353c24f4760e11b815260040160405180910390fd5b611a8181611ab6565b60018290556040518281527f48c5c3ccec54c4e0ea08d83d838fa9bb725eb0b52c591cb00bd6e63bca8c44f6906020016119a7565b8064174876e800611ac781836127c5565b611ad191906127e4565b146109765760405163419fd9e760e11b815260040160405180910390fd5b6001600160a01b038084165f9081526007602090815260408083209385168352929052205480156109ee576001600160a01b038085165f90815260076020908152604080832093861680845293909152812055611b4d908483611c99565b826001600160a01b0316826001600160a01b0316856001600160a01b03167f1c2887fcb98f75e66bb9a36311f2d3d22fb204e6362106f30e9df7eaf63131b584604051611b9c91815260200190565b60405180910390a450505050565b611bb5835f84611d9c565b6110f683600183611d9c565b5f600160401b8210611bd557611bd5612233565b5090565b5f80611be583856127e4565b9050611bf9670de0b6b3a7640000826127c5565b949350505050565b5f808080846001811115611c1757611c176127fb565b03611c535750506001600160a01b0383165f908152600260209081526040808320546005909252909120546001600160401b0390911690611c86565b50506001600160a01b0383165f908152600360209081526040808320546006909252909120546001600160401b03909116905b611c908282611264565b95945050505050565b6110f6838383612240565b5f7f00000000000000000000000000000000000000000000000000000000000000006001600160a01b031663aaabadc56040518163ffffffff1660e01b8152600401602060405180830381865afa158015611d01573d5f5f3e3d5ffd5b505050506040513d601f19601f82011682018060405250810190611d2591906124fc565b6040516326f8aa2160e21b8152600481018590526001600160a01b0384811660248301523060448301529190911690639be2a88490606401602060405180830381865afa158015611d78573d5f5f3e3d5ffd5b505050506040513d601f19601f820116820180604052508101906108c39190612932565b5f80836001811115611db057611db06127fb565b14611ddb576001600160a01b0384165f908152600360205260409020546001600160401b0316611dfd565b6001600160a01b0384165f908152600260205260409020546001600160401b03165b6001600160401b031690505f80846001811115611e1c57611e1c6127fb565b14611e3e576001600160a01b0385165f90815260066020526040902054611e57565b6001600160a01b0385165f908152600560205260409020545b90505f5f5f83118015611e6957505f84115b90508015611e7e57611e7b8484611264565b91505b5f5f611e89896119b3565b90925090505f5b81811015612227575f888281518110611eab57611eab612566565b6020026020010151111561221f575f838281518110611ecc57611ecc612566565b602002602001015190507f00000000000000000000000000000000000000000000000000000000000000006001600160a01b031663ae63932982308c8681518110611f1957611f19612566565b60209081029190910101516040516001600160e01b031960e086901b1681526001600160a01b03938416600482015292909116602483015260448201526064015f604051808303815f87803b158015611f70575f5ffd5b505af1158015611f82573d5f5f3e3d5ffd5b505f9250611f8e915050565b8a6001811115611fa057611fa06127fb565b0361201057806001600160a01b03168b6001600160a01b03167fae7ebad9fc3d1d17965f063fa520d393595e2ef6c8e22ae8413b60900444e19f8b8581518110611fec57611fec612566565b602002602001015160405161200391815260200190565b60405180910390a3612077565b806001600160a01b03168b6001600160a01b03167fe505e41b0d437b47350a9990142ccf38acb11ffa0e5af8f973b9e172f3d5d5e28b858151811061205757612057612566565b602002602001015160405161206e91815260200190565b60405180910390a35b8415612161575f6120aa878b858151811061209457612094612566565b602002602001015161228a90919063ffffffff16565b90505f6120b7828b61229e565b6001600160a01b03808f165f9081526007602090815260408083209388168352929052908120805492935083929091906120f29084906127b2565b92505081905550808b858151811061210c5761210c612566565b602002602001015161211e919061294d565b6001600160a01b03808f165f908152600860209081526040808320938816835292905290812080549091906121549084906127b2565b9091555061221d92505050565b865f036121c55788828151811061217a5761217a612566565b6020908102919091018101516001600160a01b03808e165f90815260078452604080822092861682529190935282208054919290916121ba9084906127b2565b9091555061221d9050565b8882815181106121d7576121d7612566565b6020908102919091018101516001600160a01b03808e165f90815260088452604080822092861682529190935282208054919290916122179084906127b2565b90915550505b505b600101611e90565b50505050505050505050565b6335278d125f526004601cfd5b816014528060345263a9059cbb60601b5f5260205f604460105f875af18060015f51141661228057803d853b151710612280576390b8ec185f526004601cfd5b505f603452505050565b5f6108c383670de0b6b3a7640000846122ca565b5f806122aa83856127e4565b90506001670de0b6b3a76400006001830304018115150291505092915050565b5f815f036122eb57604051630a0c22c760e01b815260040160405180910390fd5b5f6122f684866127e4565b9050600183600183030401811515029150509392505050565b6001600160a01b0381168114610976575f5ffd5b5f60208284031215612333575f5ffd5b813561233e8161230f565b9392505050565b5f5f60408385031215612356575f5ffd5b50508035926020909101359150565b5f5f60408385031215612376575f5ffd5b82356123818161230f565b946020939093013593505050565b9182521515602082015260400190565b8015158114610976575f5ffd5b5f5f5f606084860312156123be575f5ffd5b83356123c98161230f565b925060208401356123d98161230f565b915060408401356123e98161239f565b809150509250925092565b5f60208284031215612404575f5ffd5b81356001600160e01b03198116811461233e575f5ffd5b5f6020828403121561242b575f5ffd5b5035919050565b6001600160a01b0391909116815260200190565b602080825282518282018190525f918401906040840190835b8181101561247d57835183526020938401939092019160010161245f565b509095945050505050565b5f5f5f6060848603121561249a575f5ffd5b83356124a58161230f565b925060208401356124b58161230f565b915060408401356123e98161230f565b5f5f604083850312156124d6575f5ffd5b82356124e18161230f565b915060208301356124f18161230f565b809150509250929050565b5f6020828403121561250c575f5ffd5b815161233e8161230f565b5f5f60408385031215612528575f5ffd5b825160208401519092506124f18161239f565b5f6020828403121561254b575f5ffd5b5051919050565b634e487b7160e01b5f52604160045260245ffd5b634e487b7160e01b5f52603260045260245ffd5b602081525f82518060208401528060208501604085015e5f604082850101526040601f19601f83011684010191505092915050565b604051601f8201601f191681016001600160401b03811182821017156125d7576125d7612552565b604052919050565b5f602082840312156125ef575f5ffd5b81516001600160401b03811115612604575f5ffd5b8201601f81018413612614575f5ffd5b80516001600160401b0381111561262d5761262d612552565b612640601f8201601f19166020016125af565b818152856020838501011115612654575f5ffd5b8160208401602083015e5f91810160200191909152949350505050565b6001600160a01b0392831681529116602082015260400190565b5f5f6040838503121561269c575f5ffd5b505080516020909101519092909150565b5f6001600160401b038211156126c5576126c5612552565b5060051b60200190565b5f82601f8301126126de575f5ffd5b81516126f16126ec826126ad565b6125af565b8082825260208201915060208360051b860101925085831115612712575f5ffd5b602085015b8381101561272f578051835260209283019201612717565b5095945050505050565b5f5f6040838503121561274a575f5ffd5b82516001600160401b0381111561275f575f5ffd5b61276b858286016126cf565b602085015190935090506001600160401b03811115612788575f5ffd5b612794858286016126cf565b9150509250929050565b634e487b7160e01b5f52601160045260245ffd5b808201808211156108c6576108c661279e565b5f826127df57634e487b7160e01b5f52601260045260245ffd5b500490565b80820281158282048414176108c6576108c661279e565b634e487b7160e01b5f52602160045260245ffd5b6001600160a01b03929092168252602082015260400190565b5f6060828403128015612839575f5ffd5b50604051606081016001600160401b038111828210171561285c5761285c612552565b604052825161286a8161230f565b8152602083015161287a8161230f565b6020820152604083015161288d8161230f565b60408201529392505050565b5f602082840312156128a9575f5ffd5b81516001600160401b038111156128be575f5ffd5b8201601f810184136128ce575f5ffd5b80516128dc6126ec826126ad565b8082825260208201915060208360051b8501019250868311156128fd575f5ffd5b6020840193505b828410156129285783516129178161230f565b825260209384019390910190612904565b9695505050505050565b5f60208284031215612942575f5ffd5b815161233e8161239f565b818103818111156108c6576108c661279e56fea26469706673582212204ab0dc249967f1a4094c0e0412d5d7352e6b837e71cd83f45feedcf78fbb886164736f6c634300081e0033","linkReferences":{}},"methodIdentifiers":{"MAX_CREATOR_FEE_PERCENTAGE()":"2e1d388d","MAX_PROTOCOL_SWAP_FEE_PERCENTAGE()":"2772d156","MAX_PROTOCOL_YIELD_FEE_PERCENTAGE()":"5e32e4e8","collectAggregateFees(address)":"8f4ab9ca","collectAggregateFeesHook(address)":"fa399f2a","computeAggregateFeePercentage(uint256,uint256)":"0ddd60c6","getActionId(bytes4)":"851c1bb3","getAuthorizer()":"aaabadc5","getGlobalProtocolSwapFeePercentage()":"7869ee18","getGlobalProtocolYieldFeePercentage()":"55fb76af","getPoolCreatorFeeAmounts(address)":"9e95f3fd","getPoolCreatorSwapFeePercentage(address)":"0b8e059b","getPoolCreatorYieldFeePercentage(address)":"0252aab5","getPoolProtocolSwapFeeInfo(address)":"5c15a0b4","getPoolProtocolYieldFeeInfo(address)":"7a2b97dc","getProtocolFeeAmounts(address)":"8df44c54","getVault()":"8d928af8","isPoolRegistered(address)":"c673bdaf","migratePool(address)":"0874327f","registerPool(address,address,bool)":"77ff76e7","setGlobalProtocolSwapFeePercentage(uint256)":"8a3c5c69","setGlobalProtocolYieldFeePercentage(uint256)":"a93df2a4","setPoolCreatorSwapFeePercentage(address,uint256)":"1377c16c","setPoolCreatorYieldFeePercentage(address,uint256)":"3af52712","setProtocolSwapFeePercentage(address,uint256)":"fd267f39","setProtocolYieldFeePercentage(address,uint256)":"abaa3356","updateProtocolSwapFeePercentage(address)":"71ecc8fb","updateProtocolYieldFeePercentage(address)":"71447ea8","vault()":"fbfa77cf","withdrawPoolCreatorFees(address)":"52f125f0","withdrawPoolCreatorFees(address,address)":"f7061445","withdrawProtocolFees(address,address)":"cf7b287f","withdrawProtocolFeesForToken(address,address,address)":"b53a70b2"},"id":336}