{"abi":[{"type":"function","name":"facetFuncs","inputs":[],"outputs":[{"name":"funcs","type":"bytes4[]","internalType":"bytes4[]"}],"stateMutability":"pure"},{"type":"function","name":"facetInterfaces","inputs":[],"outputs":[{"name":"interfaces","type":"bytes4[]","internalType":"bytes4[]"}],"stateMutability":"pure"},{"type":"function","name":"facetMetadata","inputs":[],"outputs":[{"name":"name","type":"string","internalType":"string"},{"name":"interfaces","type":"bytes4[]","internalType":"bytes4[]"},{"name":"functions","type":"bytes4[]","internalType":"bytes4[]"}],"stateMutability":"pure"},{"type":"function","name":"facetName","inputs":[],"outputs":[{"name":"name","type":"string","internalType":"string"}],"stateMutability":"pure"},{"type":"function","name":"getSender","inputs":[],"outputs":[{"name":"","type":"address","internalType":"address"}],"stateMutability":"view"},{"type":"error","name":"EthTransfer","inputs":[]},{"type":"error","name":"SwapDeadline","inputs":[]}],"bytecode":{"object":"0x600b60a09081526a14d95b99195c91dd585c9960aa1b60c052610120604052600660e09081526539b2b73232b960d11b6101005261003d9190610051565b60805234801561004b575f5ffd5b50610144565b5f60ff5f1b196001848460405160200161006c9291906100d7565b604051602081830303815290604052805190602001205f1c61008e9190610125565b6040516020016100a091815260200190565b604051602081830303815290604052805190602001201690505b92915050565b5f81518060208401855e5f93019283525090919050565b7f62616c616e6365722d6c6162732e76332e73746f726167652e0000000000000081525f61010860198301856100c0565b601760f91b815261011c60018201856100c0565b95945050505050565b818103818111156100ba57634e487b7160e01b5f52601160045260245ffd5b6080516102ee61015b5f395f60a101526102ee5ff3fe608060405234801561000f575f5ffd5b5060043610610055575f3560e01c80632ea8082614610059578063574a4cff146100775780635b6f4d011461007f5780635e01eb5a14610094578063f10d7a75146100cc575b5f5ffd5b6100616100e3565b60405161006e9190610209565b60405180910390f35b61006161013b565b610087610177565b60405161006e9190610250565b6040516001600160a01b037f00000000000000000000000000000000000000000000000000000000000000005c16815260200161006e565b6100d461019d565b60405161006e93929190610262565b60408051600180825281830190925260609160208083019080368337019050509050632f00f5ad60e11b815f8151811061011f5761011f6102a4565b6001600160e01b03199092166020928302919091019091015290565b60408051600180825281830190925260609160208083019080368337019050509050635e01eb5a60e01b815f8151811061011f5761011f6102a4565b60408051808201909152600c81526b1254d95b99195c91dd585c9960a21b602082015290565b60608060606101aa610177565b92506101b46100e3565b91506101be61013b565b9050909192565b5f8151808452602084019350602083015f5b828110156101ff5781516001600160e01b0319168652602095860195909101906001016101d7565b5093949350505050565b602081525f61021b60208301846101c5565b9392505050565b5f81518084528060208401602086015e5f602082860101526020601f19601f83011685010191505092915050565b602081525f61021b6020830184610222565b606081525f6102746060830186610222565b828103602084015261028681866101c5565b9050828103604084015261029a81856101c5565b9695505050505050565b634e487b7160e01b5f52603260045260245ffdfea26469706673582212200400665bc4798547f1a2fb9eee9736db39e9fa061bbecacb1067cb3b5eba9bb964736f6c634300081e0033","linkReferences":{}},"methodIdentifiers":{"facetFuncs()":"574a4cff","facetInterfaces()":"2ea80826","facetMetadata()":"f10d7a75","facetName()":"5b6f4d01","getSender()":"5e01eb5a"},"id":981}