{"abi":[{"type":"constructor","inputs":[{"name":"vault","type":"address","internalType":"contract IVault"},{"name":"pauseWindowDuration","type":"uint32","internalType":"uint32"},{"name":"factoryVersion","type":"string","internalType":"string"},{"name":"poolVersion","type":"string","internalType":"string"}],"stateMutability":"nonpayable"},{"type":"function","name":"create","inputs":[{"name":"name","type":"string","internalType":"string"},{"name":"symbol","type":"string","internalType":"string"},{"name":"tokens","type":"tuple[]","internalType":"struct TokenConfig[]","components":[{"name":"token","type":"address","internalType":"contract IERC20"},{"name":"tokenType","type":"uint8","internalType":"enum TokenType"},{"name":"rateProvider","type":"address","internalType":"contract IRateProvider"},{"name":"paysYieldFees","type":"bool","internalType":"bool"}]},{"name":"sqrtAlpha","type":"uint256","internalType":"uint256"},{"name":"sqrtBeta","type":"uint256","internalType":"uint256"},{"name":"roleAccounts","type":"tuple","internalType":"struct PoolRoleAccounts","components":[{"name":"pauseManager","type":"address","internalType":"address"},{"name":"swapFeeManager","type":"address","internalType":"address"},{"name":"poolCreator","type":"address","internalType":"address"}]},{"name":"swapFeePercentage","type":"uint256","internalType":"uint256"},{"name":"poolHooksContract","type":"address","internalType":"address"},{"name":"enableDonation","type":"bool","internalType":"bool"},{"name":"disableUnbalancedLiquidity","type":"bool","internalType":"bool"},{"name":"salt","type":"bytes32","internalType":"bytes32"}],"outputs":[{"name":"pool","type":"address","internalType":"address"}],"stateMutability":"nonpayable"},{"type":"function","name":"disable","inputs":[],"outputs":[],"stateMutability":"nonpayable"},{"type":"function","name":"getActionId","inputs":[{"name":"selector","type":"bytes4","internalType":"bytes4"}],"outputs":[{"name":"","type":"bytes32","internalType":"bytes32"}],"stateMutability":"view"},{"type":"function","name":"getAuthorizer","inputs":[],"outputs":[{"name":"","type":"address","internalType":"contract IAuthorizer"}],"stateMutability":"view"},{"type":"function","name":"getCreationCode","inputs":[],"outputs":[{"name":"","type":"bytes","internalType":"bytes"}],"stateMutability":"view"},{"type":"function","name":"getCreationCodeContracts","inputs":[],"outputs":[{"name":"contractA","type":"address","internalType":"address"},{"name":"contractB","type":"address","internalType":"address"}],"stateMutability":"view"},{"type":"function","name":"getDefaultLiquidityManagement","inputs":[],"outputs":[{"name":"liquidityManagement","type":"tuple","internalType":"struct LiquidityManagement","components":[{"name":"disableUnbalancedLiquidity","type":"bool","internalType":"bool"},{"name":"enableAddLiquidityCustom","type":"bool","internalType":"bool"},{"name":"enableRemoveLiquidityCustom","type":"bool","internalType":"bool"},{"name":"enableDonation","type":"bool","internalType":"bool"}]}],"stateMutability":"pure"},{"type":"function","name":"getDefaultPoolHooksContract","inputs":[],"outputs":[{"name":"","type":"address","internalType":"address"}],"stateMutability":"pure"},{"type":"function","name":"getDeploymentAddress","inputs":[{"name":"constructorArgs","type":"bytes","internalType":"bytes"},{"name":"salt","type":"bytes32","internalType":"bytes32"}],"outputs":[{"name":"","type":"address","internalType":"address"}],"stateMutability":"view"},{"type":"function","name":"getNewPoolPauseWindowEndTime","inputs":[],"outputs":[{"name":"","type":"uint32","internalType":"uint32"}],"stateMutability":"view"},{"type":"function","name":"getOriginalPauseWindowEndTime","inputs":[],"outputs":[{"name":"","type":"uint32","internalType":"uint32"}],"stateMutability":"view"},{"type":"function","name":"getPauseWindowDuration","inputs":[],"outputs":[{"name":"","type":"uint32","internalType":"uint32"}],"stateMutability":"view"},{"type":"function","name":"getPoolCount","inputs":[],"outputs":[{"name":"","type":"uint256","internalType":"uint256"}],"stateMutability":"view"},{"type":"function","name":"getPoolVersion","inputs":[],"outputs":[{"name":"","type":"string","internalType":"string"}],"stateMutability":"view"},{"type":"function","name":"getPools","inputs":[],"outputs":[{"name":"","type":"address[]","internalType":"address[]"}],"stateMutability":"view"},{"type":"function","name":"getPoolsInRange","inputs":[{"name":"start","type":"uint256","internalType":"uint256"},{"name":"count","type":"uint256","internalType":"uint256"}],"outputs":[{"name":"pools","type":"address[]","internalType":"address[]"}],"stateMutability":"view"},{"type":"function","name":"getVault","inputs":[],"outputs":[{"name":"","type":"address","internalType":"contract IVault"}],"stateMutability":"view"},{"type":"function","name":"isDisabled","inputs":[],"outputs":[{"name":"","type":"bool","internalType":"bool"}],"stateMutability":"view"},{"type":"function","name":"isPoolFromFactory","inputs":[{"name":"pool","type":"address","internalType":"address"}],"outputs":[{"name":"","type":"bool","internalType":"bool"}],"stateMutability":"view"},{"type":"function","name":"version","inputs":[],"outputs":[{"name":"","type":"string","internalType":"string"}],"stateMutability":"view"},{"type":"event","name":"FactoryDisabled","inputs":[],"anonymous":false},{"type":"event","name":"PoolCreated","inputs":[{"name":"pool","type":"address","indexed":true,"internalType":"address"}],"anonymous":false},{"type":"error","name":"CodeDeploymentFailed","inputs":[]},{"type":"error","name":"Create2EmptyBytecode","inputs":[]},{"type":"error","name":"Create2FailedDeployment","inputs":[]},{"type":"error","name":"Create2InsufficientBalance","inputs":[{"name":"balance","type":"uint256","internalType":"uint256"},{"name":"needed","type":"uint256","internalType":"uint256"}]},{"type":"error","name":"Disabled","inputs":[]},{"type":"error","name":"IndexOutOfBounds","inputs":[]},{"type":"error","name":"PoolPauseWindowDurationOverflow","inputs":[]},{"type":"error","name":"SenderNotAllowed","inputs":[]},{"type":"error","name":"StandardPoolWithCreator","inputs":[]},{"type":"error","name":"SupportsOnlyTwoTokens","inputs":[]},{"type":"error","name":"VaultNotSet","inputs":[]}],"bytecode":{"object":"0x610180604052348015610010575f5ffd5b50604051614ca3380380614ca383398101604081905261002f916102c1565b8184846040518060200161004290610217565b601f1982820381018352601f9091011660405280518290849081903090819086905f61006f600283610373565b60a081905290505f6100818284610392565b60e08190528285529050835f6100978282610177565b6001600160a01b0316608052508483018051838252600191906100ba8284610177565b6001600160a01b0390811660c0529690935291909152505050610100929092525082166100fa57604051630647140b60e51b815260040160405180910390fd5b506001600160a01b031661012052505f61011a63ffffffff8316426103ab565b905063ffffffff811115610141576040516368755a1160e01b815260040160405180910390fd5b63ffffffff918216610140521661016052506101609150829050610207565b50600461016d8282610442565b50505050506104fc565b5f5f826101a4577f602038038060206000396000f3fefefefefefefefefefefefefefefefefefefe6101c6565b7f60fe600053602038038060206001396001016000f3fefefefefefefefefefefe5b9050835181855260208101855ff090855291506001600160a01b0382166102005760405163fef8220760e01b815260040160405180910390fd5b5092915050565b60036102138282610442565b5050565b6132c3806119e083390190565b634e487b7160e01b5f52604160045260245ffd5b5f82601f830112610247575f5ffd5b81516001600160401b0381111561026057610260610224565b604051601f8201601f19908116603f011681016001600160401b038111828210171561028e5761028e610224565b6040528181528382016020018510156102a5575f5ffd5b8160208501602083015e5f918101602001919091529392505050565b5f5f5f5f608085870312156102d4575f5ffd5b84516001600160a01b03811681146102ea575f5ffd5b602086015190945063ffffffff81168114610303575f5ffd5b60408601519093506001600160401b0381111561031e575f5ffd5b61032a87828801610238565b606087015190935090506001600160401b03811115610347575f5ffd5b61035387828801610238565b91505092959194509250565b634e487b7160e01b5f52601160045260245ffd5b5f8261038d57634e487b7160e01b5f52601260045260245ffd5b500490565b818103818111156103a5576103a561035f565b92915050565b808201808211156103a5576103a561035f565b600181811c908216806103d257607f821691505b6020821081036103f057634e487b7160e01b5f52602260045260245ffd5b50919050565b601f82111561043d57805f5260205f20601f840160051c8101602085101561041b5750805b601f840160051c820191505b8181101561043a575f8155600101610427565b50505b505050565b81516001600160401b0381111561045b5761045b610224565b61046f8161046984546103be565b846103f6565b6020601f8211600181146104a1575f831561048a5750848201515b5f19600385901b1c1916600184901b17845561043a565b5f84815260208120601f198516915b828110156104d057878501518255602094850194600190920191016104b0565b50848210156104ed57868401515f19600387901b60f8161c191681555b50505050600190811b01905550565b60805160a05160c05160e0516101005161012051610140516101605161146661057a5f395f81816102ce01528181610805015261083801525f61025601525f81816107780152610b3801525f61071501525f6108c101525f818161017901526108a001525f61087f01525f8181610154015261085e01526114665ff3fe608060405234801561000f575f5ffd5b50600436106100f9575f3560e01c8062c194db146100fd578063100768cc1461011b578063174481fa14610146578063193ad50f146101a45780632f2770db146101b95780633f819b6f146101c357806344f6fec7146101cb57806353a72f7e146101de57806354fd4d50146101fe5780636634b75314610206578063673a2a1f146102415780636c57f5a91461024957806378da80cb14610254578063851c1bb31461028b5780638d928af8146102ac5780638eec5d70146102b4578063aaabadc5146102bc578063db035ebc146102c4578063e9d56e19146102cc578063ec888061146102f2575b5f5ffd5b6101056102f8565b6040516101129190610d19565b60405180910390f35b61012e610129366004610f9b565b610316565b6040516001600160a01b039091168152602001610112565b604080516001600160a01b037f0000000000000000000000000000000000000000000000000000000000000000811682527f000000000000000000000000000000000000000000000000000000000000000016602082015201610112565b6101ac61047e565b60405161011291906110c5565b6101c16104a4565b005b6101056104eb565b61012e6101d93660046110d3565b61057b565b6101f16101ec366004611127565b61059c565b6040516101129190611147565b6101056106a4565b610231610214366004611192565b6001600160a01b03165f9081526020819052604090205460ff1690565b6040519015158152602001610112565b6101f16106b3565b60025460ff16610231565b7f00000000000000000000000000000000000000000000000000000000000000005b60405163ffffffff9091168152602001610112565b61029e6102993660046111ad565b610712565b604051908152602001610112565b61012e610776565b60015461029e565b61012e61079a565b610276610802565b7f0000000000000000000000000000000000000000000000000000000000000000610276565b5f61012e565b606061031160405180602001604052805f81525061085a565b905090565b5f8951600214610339576040516301a73b9960e51b815260040160405180910390fd5b60408701516001600160a01b0316156103655760405163187b85d960e21b815260040160405180910390fd5b6104456040518060a001604052808e81526020018d81526020018b81526020018a815260200160048054610398906111d4565b80601f01602080910402602001604051908101604052809291908181526020018280546103c4906111d4565b801561040f5780601f106103e65761010080835404028352916020019161040f565b820191905f5260205f20905b8154815290600101906020018083116103f257829003601f168201915b505050505081525061041f610776565b60405160200161043092919061120c565b6040516020818303038152906040528361093c565b90505f61045061047e565b85151560608201528415158152905061046e828c895f8c8b87610965565b509b9a5050505050505050505050565b604080516080810182525f80825260208201819052918101829052606081019190915290565b6104ac6109e3565b6104b4610a24565b6002805460ff191660011790556040517f432acbfd662dbb5d8b378384a67159b47ca9d0f1b79f97cf64cf8585fa362d50905f90a1565b6060600480546104fa906111d4565b80601f0160208091040260200160405190810160405280929190818152602001828054610526906111d4565b80156105715780601f1061054857610100808354040283529160200191610571565b820191905f5260205f20905b81548152906001019060200180831161055457829003601f168201915b5050505050905090565b5f5f61058683610a4a565b90506105928482610a6d565b9150505b92915050565b6001546060908084106105c257604051634e23d03560e01b815260040160405180910390fd5b5f6105cd84866112a3565b9050818111156105e4576105e185836112b6565b93505b836001600160401b038111156105fc576105fc610d2b565b604051908082528060200260200182016040528015610625578160200160208202803683370190505b5092505f5b8481101561069b57600161063e82886112a3565b8154811061064e5761064e6112c9565b905f5260205f20015f9054906101000a90046001600160a01b031684828151811061067b5761067b6112c9565b6001600160a01b039092166020928302919091019091015260010161062a565b50505092915050565b6060600380546104fa906111d4565b6060600180548060200260200160405190810160405280929190818152602001828054801561057157602002820191905f5260205f20905b81546001600160a01b031681526001909101906020018083116106eb575050505050905090565b5f7f0000000000000000000000000000000000000000000000000000000000000000826040516020016107599291909182526001600160e01b031916602082015260240190565b604051602081830303815290604052805190602001209050919050565b7f000000000000000000000000000000000000000000000000000000000000000090565b5f6107a3610776565b6001600160a01b031663aaabadc56040518163ffffffff1660e01b8152600401602060405180830381865afa1580156107de573d5f5f3e3d5ffd5b505050506040513d601f19601f8201168201806040525081019061031191906112dd565b5f7f000000000000000000000000000000000000000000000000000000000000000063ffffffff16421061083557505f90565b507f000000000000000000000000000000000000000000000000000000000000000090565b60607f00000000000000000000000000000000000000000000000000000000000000007f00000000000000000000000000000000000000000000000000000000000000007f00000000000000000000000000000000000000000000000000000000000000007f00000000000000000000000000000000000000000000000000000000000000005f6108eb82856112a3565b87519091505f6108fb82846112a3565b9050604051975060208101880160405280885260208801865f828a3c846001888301883c50602089810190898501018382825e505050505050505050919050565b5f5f61094783610a4a565b90506109538482610a8b565b915061095e82610aa3565b5092915050565b61096d610776565b6001600160a01b031663eeec802f888888610986610802565b898989896040518963ffffffff1660e01b81526004016109ad9897969594939291906112f8565b5f604051808303815f87803b1580156109c4575f5ffd5b505af11580156109d6573d5f5f3e3d5ffd5b5050505050505050505050565b5f6109f85f356001600160e01b031916610712565b9050610a048133610b35565b610a21576040516323dada5360e01b815260040160405180910390fd5b50565b60025460ff1615610a4857604051633ac4266d60e11b815260040160405180910390fd5b565b604080513360208201524691810191909152606081018290525f90608001610759565b5f5f610a788461085a565b9050610592838280519060200120610c34565b5f5f610a968461085a565b90506105925f8483610c40565b610aab610a24565b6001600160a01b0381165f81815260208190526040808220805460ff19166001908117909155805480820182559083527fb10e2d527612073b26eecdfd717e6a320cf44b4afac2b0732d9fcbe2b7fa0cf60180546001600160a01b03191684179055517f83a48fbcfc991335314e74d0496aab6a1987e992ddc85dddbcc4d6dd6ef2e9fc9190a250565b5f7f00000000000000000000000000000000000000000000000000000000000000006001600160a01b031663aaabadc56040518163ffffffff1660e01b8152600401602060405180830381865afa158015610b92573d5f5f3e3d5ffd5b505050506040513d601f19601f82011682018060405250810190610bb691906112dd565b6040516326f8aa2160e21b8152600481018590526001600160a01b0384811660248301523060448301529190911690639be2a88490606401602060405180830381865afa158015610c09573d5f5f3e3d5ffd5b505050506040513d601f19601f82011682018060405250810190610c2d9190611415565b9392505050565b5f610c2d838330610cc2565b5f83471015610c6f5760405163392efb2b60e21b81524760048201526024810185905260440160405180910390fd5b81515f03610c9057604051631328927760e21b815260040160405180910390fd5b8282516020840186f590506001600160a01b038116610c2d57604051633a0ba96160e11b815260040160405180910390fd5b5f604051836040820152846020820152828152600b8101905060ff815360559020949350505050565b5f81518084528060208401602086015e5f602082860101526020601f19601f83011685010191505092915050565b602081525f610c2d6020830184610ceb565b634e487b7160e01b5f52604160045260245ffd5b604051608081016001600160401b0381118282101715610d6157610d61610d2b565b60405290565b604051601f8201601f191681016001600160401b0381118282101715610d8f57610d8f610d2b565b604052919050565b5f806001600160401b03841115610db057610db0610d2b565b50601f8301601f1916602001610dc581610d67565b915050828152838383011115610dd9575f5ffd5b828260208301375f602084830101529392505050565b5f82601f830112610dfe575f5ffd5b610c2d83833560208501610d97565b6001600160a01b0381168114610a21575f5ffd5b8015158114610a21575f5ffd5b8035610e3981610e21565b919050565b5f82601f830112610e4d575f5ffd5b81356001600160401b03811115610e6657610e66610d2b565b610e7560208260051b01610d67565b8082825260208201915060208360071b860101925085831115610e96575f5ffd5b602085015b83811015610f135760808188031215610eb2575f5ffd5b610eba610d3f565b8135610ec581610e0d565b8152602082013560028110610ed8575f5ffd5b60208201526040820135610eeb81610e0d565b60408201526060820135610efe81610e21565b60608201528352602090920191608001610e9b565b5095945050505050565b8035610e3981610e0d565b5f60608284031215610f38575f5ffd5b604051606081016001600160401b0381118282101715610f5a57610f5a610d2b565b6040529050808235610f6b81610e0d565b81526020830135610f7b81610e0d565b60208201526040830135610f8e81610e0d565b6040919091015292915050565b5f5f5f5f5f5f5f5f5f5f5f6101a08c8e031215610fb6575f5ffd5b8b356001600160401b03811115610fcb575f5ffd5b610fd78e828f01610def565b9b505060208c01356001600160401b03811115610ff2575f5ffd5b610ffe8e828f01610def565b9a505060408c01356001600160401b03811115611019575f5ffd5b6110258e828f01610e3e565b99505060608c0135975060808c013596506110438d60a08e01610f28565b95506101008c0135945061105a6101208d01610f1d565b93506110696101408d01610e2e565b92506110786101608d01610e2e565b91505f6101808d01359050809150509295989b509295989b9093969950565b8051151582526020810151151560208301526040810151151560408301526060810151151560608301525050565b608081016105968284611097565b5f5f604083850312156110e4575f5ffd5b82356001600160401b038111156110f9575f5ffd5b8301601f81018513611109575f5ffd5b61111885823560208401610d97565b95602094909401359450505050565b5f5f60408385031215611138575f5ffd5b50508035926020909101359150565b602080825282518282018190525f918401906040840190835b818110156111875783516001600160a01b0316835260209384019390920191600101611160565b509095945050505050565b5f602082840312156111a2575f5ffd5b8135610c2d81610e0d565b5f602082840312156111bd575f5ffd5b81356001600160e01b031981168114610c2d575f5ffd5b600181811c908216806111e857607f821691505b60208210810361120657634e487b7160e01b5f52602260045260245ffd5b50919050565b604081525f835160a0604084015261122760e0840182610ceb565b90506020850151603f198483030160608501526112448282610ceb565b91505060408501516080840152606085015160a08401526080850151603f198483030160c08501526112768282610ceb565b9250505060018060a01b03831660208301529392505050565b634e487b7160e01b5f52601160045260245ffd5b808201808211156105965761059661128f565b818103818111156105965761059661128f565b634e487b7160e01b5f52603260045260245ffd5b5f602082840312156112ed575f5ffd5b8151610c2d81610e0d565b6001600160a01b03891681526101a0602080830182905289519183018290525f91908a01906101c0840190835b8181101561139b57835180516001600160a01b0316845260208101516002811061135d57634e487b7160e01b5f52602160045260245ffd5b6020858101919091526040828101516001600160a01b0316908601526060918201511515918501919091529390930192608090920191600101611325565b5050604084018a905263ffffffff8916606085015291506113b99050565b851515608083015284516001600160a01b0390811660a08401526020860151811660c084015260408601511660e08301526001600160a01b038416610100830152611408610120830184611097565b9998505050505050505050565b5f60208284031215611425575f5ffd5b8151610c2d81610e2156fea2646970667358221220c0516a27104a97a60f5adb2e8eb38e159efaec9500fb6c1c41887c0a0182378a64736f6c634300081e0033610140604052348015610010575f5ffd5b506040516132c33803806132c383398101604081905261002f916101f8565b81608001518182845f015185602001518282604051806040016040528060018152602001603160f81b815250815f90816100699190610360565b5060016100768282610360565b508151602092830120608052805191012060a0526001600160a01b031660c05260036100a28382610360565b5060046100af8282610360565b505050506001600160a01b031660e0526100c881610108565b5081606001518260400151106100f1576040516302bcf0ed60e11b815260040160405180910390fd5b50604081015161010052606001516101205261041a565b60056101148282610360565b5050565b634e487b7160e01b5f52604160045260245ffd5b60405160a081016001600160401b038111828210171561014e5761014e610118565b60405290565b5f82601f830112610163575f5ffd5b81516001600160401b0381111561017c5761017c610118565b604051601f8201601f19908116603f011681016001600160401b03811182821017156101aa576101aa610118565b6040528181528382016020018510156101c1575f5ffd5b8160208501602083015e5f918101602001919091529392505050565b80516001600160a01b03811681146101f3575f5ffd5b919050565b5f5f60408385031215610209575f5ffd5b82516001600160401b0381111561021e575f5ffd5b830160a0818603121561022f575f5ffd5b61023761012c565b81516001600160401b0381111561024c575f5ffd5b61025887828501610154565b82525060208201516001600160401b03811115610273575f5ffd5b61027f87828501610154565b602083015250604082810151908201526060808301519082015260808201516001600160401b038111156102b1575f5ffd5b6102bd87828501610154565b60808301525092506102d39050602084016101dd565b90509250929050565b600181811c908216806102f057607f821691505b60208210810361030e57634e487b7160e01b5f52602260045260245ffd5b50919050565b601f82111561035b57805f5260205f20601f840160051c810160208510156103395750805b601f840160051c820191505b81811015610358575f8155600101610345565b50505b505050565b81516001600160401b0381111561037957610379610118565b61038d8161038784546102dc565b84610314565b6020601f8211600181146103bf575f83156103a85750848201515b5f19600385901b1c1916600184901b178455610358565b5f84815260208120601f198516915b828110156103ee57878501518255602094850194600190920191016103ce565b508482101561040b57868401515f19600387901b60f8161c191681555b50505050600190811b01905550565b60805160a05160c05160e0516101005161012051612dd66104ed5f395f8181610e0c015261143501525f8181610de6015261141301525f8181610e5501528181610ff9015281816110770152818161112a01526111b901525f81816104c801528181610643015281816106f20152818161088701528181610916015281816109a901528181610a5501528181610b4e01528181610cd901528181610d6801528181610f3801528181610fa6015281816112ea0152818161139f015261153b01525f6115d501525f6115ad0152612dd65ff3fe608060405234801561000f575f5ffd5b506004361061019f575f3560e01c806301ffc9a7146101a357806306fdde03146101dc578063095ea7b3146101f157806316a0b3e01461020457806318160ddd1461022557806323b872dd1461022d57806323de665114610240578063273c1adf1461025557806330adf81f1461025c578063313ce567146102705780633644e5151461027f57806354fd4d50146102875780635687f2b81461028f57806361f82d57146102a2578063627cdcb9146102b7578063654cf15d146102bf578063679aefce146102cd57806370a08231146102d557806372c98186146102e85780637e148d61146102fb5780637ecebe001461031057806381fa807c1461032357806384b0196e146103405780638d928af81461035b57806395d89b4114610370578063984de9e814610378578063a9059cbb1461038b578063aa6ca8081461039e578063abb1dc44146103b3578063b156aa0a146103cb578063b677fa56146103e0578063ce20ece7146103e6578063d335b0cf146103f1578063d505accf146103f9578063dd62ed3e1461040c575b5f5ffd5b6101c76101b1366004612126565b6001600160e01b0319166301ffc9a760e01b1490565b60405190151581526020015b60405180910390f35b6101e461041f565b6040516101d3919061217b565b6101c76101ff3660046121a1565b6104af565b6102176102123660046122e6565b61054d565b6040519081526020016101d3565b61021761062a565b6101c761023b36600461232f565b6106bc565b61025361024e36600461232f565b610769565b005b5f19610217565b6102175f516020612d815f395f51905f5281565b604051601281526020016101d3565b6102176107c3565b6101e46107cc565b61025361029d36600461232f565b6107db565b6102aa610828565b6040516101d391906123a7565b610253610af5565b670de0b6b3a7640000610217565b610217610b01565b6102176102e3366004612438565b610b35565b6102176102f6366004612453565b610bc4565b610303610c99565b6040516101d391906124c2565b61021761031e366004612438565b610e33565b61032b610e50565b604080519283526020830191909152016101d3565b610348610ef4565b6040516101d3979695949392919061251b565b610363610f36565b6040516101d3919061258a565b6101e4610f5a565b6102176103863660046125aa565b610f69565b6101c76103993660046121a1565b610f8d565b6103a6610fdf565b6040516101d391906125f8565b6103bb61106f565b6040516101d3949392919061261e565b6103d3611110565b6040516101d391906126df565b5f610217565b64e8d4a51000610217565b6102176111a0565b6102536104073660046126f1565b6111ee565b61021761041a366004612762565b611370565b60606003805461042e9061278e565b80601f016020809104026020016040519081016040528092919081815260200182805461045a9061278e565b80156104a55780601f1061047c576101008083540402835291602001916104a5565b820191905f5260205f20905b81548152906001019060200180831161048857829003601f168201915b5050505050905090565b60405163e1f21c6760e01b81525f906001600160a01b037f0000000000000000000000000000000000000000000000000000000000000000169063e1f21c6790610501903390879087906004016127c6565b6020604051808303815f875af115801561051d573d5f5f3e3d5ffd5b505050506040513d601f19601f8201168201806040525081019061054191906127f9565b50600190505b92915050565b5f5f5f610558611411565b915091505f6105698784845f611457565b9050610575818661148a565b90505f6105828280612826565b90505f61058f83856114b6565b90505f61059c84876114de565b9050885f036105e757816105d68b6001815181106105bc576105bc61283d565b6020026020010151836105cf9190612851565b85906114fe565b6105e09190612864565b965061061d565b806106108b5f815181106105fd576105fd61283d565b6020026020010151846105cf9190612851565b61061a9190612864565b96505b5050505050509392505050565b6040516339370aa960e21b81525f906001600160a01b037f0000000000000000000000000000000000000000000000000000000000000000169063e4dc2aa49061067890309060040161258a565b602060405180830381865afa158015610693573d5f5f3e3d5ffd5b505050506040513d601f19601f820116820180604052508101906106b79190612877565b905090565b604051630aed65f560e11b81523360048201526001600160a01b0384811660248301528381166044830152606482018390525f917f0000000000000000000000000000000000000000000000000000000000000000909116906315dacbea906084016020604051808303815f875af115801561073a573d5f5f3e3d5ffd5b505050506040513d601f19601f8201168201806040525081019061075e91906127f9565b506001949350505050565b610771611530565b816001600160a01b0316836001600160a01b03167fddf252ad1be2c89b69c2b068fc378daa952ba7f163c4a11628f55a4df523b3ef836040516107b691815260200190565b60405180910390a3505050565b5f6106b761157d565b60606005805461042e9061278e565b6107e3611530565b816001600160a01b0316836001600160a01b03167f8c5be1e5ebec7d5bd14f71427d1e84f3dd0314c0f7b2291e5b200ac8c7c3b925836040516107b691815260200190565b61087060405180610100016040528060608152602001606081526020015f81526020015f81526020015f81526020015f151581526020015f151581526020015f151581525090565b6040516329ae7ec560e11b81526001600160a01b037f0000000000000000000000000000000000000000000000000000000000000000169063535cfd8a906108bc90309060040161258a565b5f60405180830381865afa1580156108d6573d5f5f3e3d5ffd5b505050506040513d5f823e601f3d908101601f191682016040526108fd91908101906128e9565b8152604051633f1b0def60e11b81526001600160a01b037f00000000000000000000000000000000000000000000000000000000000000001690637e361bde9061094b90309060040161258a565b5f60405180830381865afa158015610965573d5f5f3e3d5ffd5b505050506040513d5f823e601f3d908101601f1916820160405261098c919081019061291a565b60208301525060405163b45090f960e01b81526001600160a01b037f0000000000000000000000000000000000000000000000000000000000000000169063b45090f9906109de90309060040161258a565b602060405180830381865afa1580156109f9573d5f5f3e3d5ffd5b505050506040513d601f19601f82011682018060405250810190610a1d9190612877565b6040820152610a2a61062a565b6060820152610a37610b01565b608082015260405163f29486a160e01b81525f906001600160a01b037f0000000000000000000000000000000000000000000000000000000000000000169063f29486a190610a8a90309060040161258a565b6101a060405180830381865afa158015610aa6573d5f5f3e3d5ffd5b505050506040513d601f19601f82011682018060405250810190610aca9190612a23565b60e080820151151560a0850152610100820151151560c0850152610120909101511515908301525090565b610afe33611625565b50565b5f610b0a610f36565b6001600160a01b0316634f037ee7306040518263ffffffff1660e01b8152600401610678919061258a565b604051633de222bb60e21b81525f906001600160a01b037f0000000000000000000000000000000000000000000000000000000000000000169063f7888aec90610b859030908690600401612adc565b602060405180830381865afa158015610ba0573d5f5f3e3d5ffd5b505050506040513d601f19601f820116820180604052508101906105479190612877565b5f610bcd611530565b6060820135155f610be16040850185612af6565b8560600135818110610bf557610bf561283d565b9050602002013590505f848060400190610c0f9190612af6565b8660800135818110610c2357610c2361283d565b9050602002013590505f5f610c39848487611647565b90925090505f610c4c6020890189612b42565b6001811115610c5d57610c5d61260a565b03610c82575f610c7485858a602001358686611730565b9650610c9495505050505050565b5f610c7485858a60200135868661178d565b919050565b610cc2604051806080016040528060608152602001606081526020015f81526020015f81525090565b60405163ca4f280360e01b81526001600160a01b037f0000000000000000000000000000000000000000000000000000000000000000169063ca4f280390610d0e90309060040161258a565b5f60405180830381865afa158015610d28573d5f5f3e3d5ffd5b505050506040513d5f823e601f3d908101601f19168201604052610d4f9190810190612bc1565b8152604051633f1b0def60e11b81526001600160a01b037f00000000000000000000000000000000000000000000000000000000000000001690637e361bde90610d9d90309060040161258a565b5f60405180830381865afa158015610db7573d5f5f3e3d5ffd5b505050506040513d5f823e601f3d908101601f19168201604052610dde919081019061291a565b5060208201527f000000000000000000000000000000000000000000000000000000000000000060408201527f0000000000000000000000000000000000000000000000000000000000000000606082015290565b6001600160a01b0381165f90815260026020526040812054610547565b5f5f5f7f00000000000000000000000000000000000000000000000000000000000000006001600160a01b031663f29486a1306040518263ffffffff1660e01b8152600401610e9f919061258a565b6101a060405180830381865afa158015610ebb573d5f5f3e3d5ffd5b505050506040513d601f19601f82011682018060405250810190610edf9190612a23565b90508060400151925080606001519150509091565b5f6060805f5f5f6060610f056117f2565b610f0d611800565b604080515f80825260208201909252600f60f81b9b939a50919850469750309650945092509050565b7f000000000000000000000000000000000000000000000000000000000000000090565b60606004805461042e9061278e565b5f5f5f610f74611411565b91509150610f8485838387611457565b95945050505050565b6040516317d5759960e31b81525f906001600160a01b037f0000000000000000000000000000000000000000000000000000000000000000169063beabacc890610501903390879087906004016127c6565b60405163ca4f280360e01b81526060906001600160a01b037f0000000000000000000000000000000000000000000000000000000000000000169063ca4f28039061102e90309060040161258a565b5f60405180830381865afa158015611048573d5f5f3e3d5ffd5b505050506040513d5f823e601f3d908101601f191682016040526106b79190810190612bc1565b6060806060807f00000000000000000000000000000000000000000000000000000000000000006001600160a01b03166367e0e076306040518263ffffffff1660e01b81526004016110c1919061258a565b5f60405180830381865afa1580156110db573d5f5f3e3d5ffd5b505050506040513d5f823e601f3d908101601f191682016040526111029190810190612bf2565b935093509350935090919293565b6040516329ae7ec560e11b81526060906001600160a01b037f0000000000000000000000000000000000000000000000000000000000000000169063535cfd8a9061115f90309060040161258a565b5f60405180830381865afa158015611179573d5f5f3e3d5ffd5b505050506040513d5f823e601f3d908101601f191682016040526106b791908101906128e9565b60405163b45090f960e01b81525f906001600160a01b037f0000000000000000000000000000000000000000000000000000000000000000169063b45090f99061067890309060040161258a565b834211156112175760405163313c898160e11b8152600481018590526024015b60405180910390fd5b5f5f516020612d815f395f51905f528888886112328c611625565b6040805160208101969096526001600160a01b0394851690860152929091166060840152608083015260a082015260c0810186905260e0016040516020818303038152906040528051906020012090505f61128c8261180f565b90505f61129b8287878761183b565b9050896001600160a01b0316816001600160a01b0316146112d357808a6040516325c0072360e11b815260040161120e929190612adc565b60405163e1f21c6760e01b81526001600160a01b037f0000000000000000000000000000000000000000000000000000000000000000169063e1f21c6790611323908d908d908d906004016127c6565b6020604051808303815f875af115801561133f573d5f5f3e3d5ffd5b505050506040513d601f19601f8201168201806040525081019061136391906127f9565b5050505050505050505050565b60405163927da10560e01b81523060048201526001600160a01b03838116602483015282811660448301525f917f00000000000000000000000000000000000000000000000000000000000000009091169063927da10590606401602060405180830381865afa1580156113e6573d5f5f3e3d5ffd5b505050506040513d601f19601f8201168201806040525081019061140a9190612877565b9392505050565b7f0000000000000000000000000000000000000000000000000000000000000000907f000000000000000000000000000000000000000000000000000000000000000090565b5f5f5f5f5f61146889898989611848565b935093509350935061147d848484848a611aa0565b9998505050505050505050565b5f806114968385612826565b90506001670de0b6b3a76400006001830304018115150291505092915050565b5f806114ca670de0b6b3a764000085612826565b90506114d68382612d4d565b949350505050565b5f806114ea8385612826565b90506114d6670de0b6b3a764000082612d4d565b5f815f0361151f57604051630a0c22c760e01b815260040160405180910390fd5b508115155f19909201046001010290565b336001600160a01b037f0000000000000000000000000000000000000000000000000000000000000000161461157b573360405163089676d560e01b815260040161120e919061258a565b565b5f6106b7604080517f8b73c3c69bb8fe3d512ecc4cf759cc79239f7b179b0ffacaa9a75d522b39400f60208201527f0000000000000000000000000000000000000000000000000000000000000000918101919091527f000000000000000000000000000000000000000000000000000000000000000060608201524660808201523060a08201525f9060c00160405160208183030381529060405280519060200120905090565b6001600160a01b03165f90815260026020526040902080546001810190915590565b6040805160028082526060820183525f9283928392909160208301908036833701905050905083611678578461167a565b855b815f8151811061168c5761168c61283d565b602002602001018181525050836116a357856116a5565b845b816001815181106116b8576116b861283d565b6020026020010181815250505f5f6116ce611411565b915091505f6116e08484846001611457565b90508615611708576116f381835f611b5b565b955061170181846001611b8e565b9450611724565b61171381845f611b8e565b955061172181836001611b5b565b94505b50505050935093915050565b5f8061173c8488612851565b90505f6117498488612851565b90506117686117588784612851565b61176283896114de565b906114b6565b9250505084811115610f84576040516301dd20c360e11b815260040160405180910390fd5b5f848411156117af576040516301dd20c360e11b815260040160405180910390fd5b5f6117ba8488612851565b90505f6117c78488612851565b90506117e66117d68783612864565b6117e0848961148a565b90611bbc565b98975050505050505050565b60605f805461042e9061278e565b60606001805461042e9061278e565b5f61054761181b61157d565b8360405161190160f01b8152600281019290925260228201526042902090565b5f610f8485858585611bd0565b5f80808061211e60018660018111156118635761186361260a565b1461187057611bbc611874565b6114b65b905061211e600187600181111561188d5761188d61260a565b1461189a5761148a61189e565b6114de5b905061211e60018860018111156118b7576118b761260a565b146118c4576114de6118c8565b61148a5b90506118d88a8a8563ffffffff16565b6118ea90670de0b6b3a7640000612864565b96505f6119158c6001815181106119035761190361283d565b60200260200101518b8663ffffffff16565b90505f61193f8d5f8151811061192d5761192d61283d565b60200260200101518d8663ffffffff16565b905061194b8183612851565b975061198e8d5f815181106119625761196261283d565b60200260200101518e60018151811061197d5761197d61283d565b60200260200101518663ffffffff16565b955050506119db6119d16119c78d5f815181106119ad576119ad61283d565b60200260200101518e5f8151811061197d5761197d61283d565b8c8563ffffffff16565b8b8463ffffffff16565b94505f611a44611a2f611a258e5f815181106119f9576119f961283d565b60200260200101518f600181518110611a1457611a1461283d565b60200260200101518763ffffffff16565b8d8663ffffffff16565b611a3a906002612826565b8b8663ffffffff16565b90505f611a77611a608e6001815181106119f9576119f961283d565b611a6e8d8e8763ffffffff16565b8763ffffffff16565b905080611a848389612851565b611a8e9190612851565b96505050505050945094509450949050565b5f61211e6001836001811115611ab857611ab861260a565b14611ac55761148a611ac9565b6114de5b905061211e6001846001811115611ae257611ae261260a565b14611aef57611bbc611af3565b6114b65b90505f611b01896002612826565b90505f611b12611a3a886004612826565b90505f611b1f828a612851565b90505f611b2d826005611c15565b90505f611b3a828d612851565b9050611b4a81868863ffffffff16565b9d9c50505050505050505050505050565b5f6001826001811115611b7057611b7061260a565b14611b8457611b7f8484611bbc565b6114d6565b6114d684846114b6565b5f6001826001811115611ba357611ba361260a565b14611bb257611b7f848461148a565b6114d684846114de565b5f61140a83670de0b6b3a764000084611e29565b5f604051855f5260ff851660205283604052826060526020600160805f60015afa5191503d611c0657638baa579f5f526004601cfd5b5f606052604052949350505050565b5f825f03611c2457505f610547565b5f611c2e84611e6e565b9050600281611c45670de0b6b3a764000087612826565b611c4f9190612d4d565b611c599083612851565b611c639190612d4d565b9050600281611c7a670de0b6b3a764000087612826565b611c849190612d4d565b611c8e9083612851565b611c989190612d4d565b9050600281611caf670de0b6b3a764000087612826565b611cb99190612d4d565b611cc39083612851565b611ccd9190612d4d565b9050600281611ce4670de0b6b3a764000087612826565b611cee9190612d4d565b611cf89083612851565b611d029190612d4d565b9050600281611d19670de0b6b3a764000087612826565b611d239190612d4d565b611d2d9083612851565b611d379190612d4d565b9050600281611d4e670de0b6b3a764000087612826565b611d589190612d4d565b611d629083612851565b611d6c9190612d4d565b9050600281611d83670de0b6b3a764000087612826565b611d8d9190612d4d565b611d979083612851565b611da19190612d4d565b90505f611dae82806114de565b9050611dba828561148a565b611dc49086612851565b8111158015611de65750611dd8828561148a565b611de29086612864565b8110155b611e215760405162461bcd60e51b815260206004820152600c60248201526b17dcdc5c9d0811905253115160a21b604482015260640161120e565b509392505050565b5f815f03611e4a57604051630a0c22c760e01b815260040160405180910390fd5b5f611e558486612826565b9050600183600183030401811515029150509392505050565b5f670de0b6b3a76400008210611ea757670de0b6b3a7640000611e99611e948285612d4d565b612049565b6001901b6105479190612826565b600a8211611eba575063bc7c871c919050565b60648211611ece57506402540be400919050565b6103e88211611ee3575064075cdd4719919050565b6127108211611ef8575064174876e800919050565b620186a08211611f0e57506449a0a4c700919050565b620f42408211611f24575064e8d4a51000919050565b629896808211611f3b57506502e0466fc608919050565b6305f5e1008211611f5357506509184e72a000919050565b633b9aca008211611f6b5750651cc2c05dbc53919050565b6402540be4008211611f845750655af3107a4000919050565b64174876e8008211611f9e575066011f9b83a95b45919050565b64e8d4a510008211611fb8575066038d7ea4c68000919050565b6509184e72a0008211611fd35750660b3c13249d90bb919050565b655af3107a40008211611fee5750662386f26fc10000919050565b66038d7ea4c68000821161200a5750667058bf6e27a751919050565b662386f26fc100008211612027575067016345785d8a0000919050565b67016345785d8a000082116120455750670463777a4d8c892d919050565b5090565b5f600160801b821061206a5760809190911c90612067604082612851565b90505b600160401b821061208a5760409190911c90612087602082612851565b90505b600160201b82106120aa5760209190911c906120a7601082612851565b90505b6201000082106120c95760109190911c906120c6600882612851565b90505b61010082106120e75760089190911c906120e4600482612851565b90505b601082106121045760049190911c90612101600282612851565b90505b60048210610c945760029190911c90610547600182612851565b61157b612d6c565b5f60208284031215612136575f5ffd5b81356001600160e01b03198116811461140a575f5ffd5b5f81518084528060208401602086015e5f602082860101526020601f19601f83011685010191505092915050565b602081525f61140a602083018461214d565b6001600160a01b0381168114610afe575f5ffd5b5f5f604083850312156121b2575f5ffd5b82356121bd8161218d565b946020939093013593505050565b634e487b7160e01b5f52604160045260245ffd5b60405161014081016001600160401b0381118282101715612202576122026121cb565b60405290565b604051606081016001600160401b0381118282101715612202576122026121cb565b604051601f8201601f191681016001600160401b0381118282101715612252576122526121cb565b604052919050565b5f6001600160401b03821115612272576122726121cb565b5060051b60200190565b5f82601f83011261228b575f5ffd5b813561229e6122998261225a565b61222a565b8082825260208201915060208360051b8601019250858311156122bf575f5ffd5b602085015b838110156122dc5780358352602092830192016122c4565b5095945050505050565b5f5f5f606084860312156122f8575f5ffd5b83356001600160401b0381111561230d575f5ffd5b6123198682870161227c565b9660208601359650604090950135949350505050565b5f5f5f60608486031215612341575f5ffd5b833561234c8161218d565b9250602084013561235c8161218d565b929592945050506040919091013590565b5f8151808452602084019350602083015f5b8281101561239d57815186526020958601959091019060010161237f565b5093949350505050565b602081525f825161010060208401526123c461012084018261236d565b90506020840151601f198483030160408501526123e1828261236d565b9150506040840151606084015260608401516080840152608084015160a084015260a0840151151560c084015260c084015161242160e085018215159052565b5060e0840151801515610100850152509392505050565b5f60208284031215612448575f5ffd5b813561140a8161218d565b5f60208284031215612463575f5ffd5b81356001600160401b03811115612478575f5ffd5b820160e0818503121561140a575f5ffd5b5f8151808452602084019350602083015f5b8281101561239d5781516001600160a01b031686526020958601959091019060010161249b565b602081525f8251608060208401526124dd60a0840182612489565b90506020840151601f198483030160408501526124fa828261236d565b91505060408401516060840152606084015160808401528091505092915050565b60ff60f81b8816815260e060208201525f61253960e083018961214d565b828103604084015261254b818961214d565b606084018890526001600160a01b038716608085015260a0840186905283810360c0850152905061257c818561236d565b9a9950505050505050505050565b6001600160a01b0391909116815260200190565b60028110610afe575f5ffd5b5f5f604083850312156125bb575f5ffd5b82356001600160401b038111156125d0575f5ffd5b6125dc8582860161227c565b92505060208301356125ed8161259e565b809150509250929050565b602081525f61140a6020830184612489565b634e487b7160e01b5f52602160045260245ffd5b608081525f6126306080830187612489565b82810360208401528086518083526020830191506020880192505f5b818110156126ab57835180516002811061267457634e487b7160e01b5f52602160045260245ffd5b84526020818101516001600160a01b031681860152604091820151151591850191909152939093019260609092019160010161264c565b505083810360408501526126bf818761236d565b91505082810360608401526126d4818561236d565b979650505050505050565b602081525f61140a602083018461236d565b5f5f5f5f5f5f5f60e0888a031215612707575f5ffd5b87356127128161218d565b965060208801356127228161218d565b95506040880135945060608801359350608088013560ff81168114612745575f5ffd5b9699959850939692959460a0840135945060c09093013592915050565b5f5f60408385031215612773575f5ffd5b823561277e8161218d565b915060208301356125ed8161218d565b600181811c908216806127a257607f821691505b6020821081036127c057634e487b7160e01b5f52602260045260245ffd5b50919050565b6001600160a01b039384168152919092166020820152604081019190915260600190565b80518015158114610c94575f5ffd5b5f60208284031215612809575f5ffd5b61140a826127ea565b634e487b7160e01b5f52601160045260245ffd5b808202811582820484141761054757610547612812565b634e487b7160e01b5f52603260045260245ffd5b8082018082111561054757610547612812565b8181038181111561054757610547612812565b5f60208284031215612887575f5ffd5b5051919050565b5f82601f83011261289d575f5ffd5b81516128ab6122998261225a565b8082825260208201915060208360051b8601019250858311156128cc575f5ffd5b602085015b838110156122dc5780518352602092830192016128d1565b5f602082840312156128f9575f5ffd5b81516001600160401b0381111561290e575f5ffd5b6114d68482850161288e565b5f5f6040838503121561292b575f5ffd5b82516001600160401b03811115612940575f5ffd5b61294c8582860161288e565b602085015190935090506001600160401b03811115612969575f5ffd5b6129758582860161288e565b9150509250929050565b5f6080828403121561298f575f5ffd5b604051608081016001600160401b03811182821017156129b1576129b16121cb565b6040529050806129c0836127ea565b81526129ce602084016127ea565b60208201526129df604084016127ea565b60408201526129f0606084016127ea565b60608201525092915050565b805164ffffffffff81168114610c94575f5ffd5b805163ffffffff81168114610c94575f5ffd5b5f6101a0828403128015612a35575f5ffd5b50612a3e6121df565b612a48848461297f565b81526080830151602082015260a0830151604082015260c08301516060820152612a7460e084016129fc565b6080820152612a866101008401612a10565b60a0820152612a9861012084016127ea565b60c0820152612aaa61014084016127ea565b60e0820152612abc61016084016127ea565b610100820152612acf61018084016127ea565b6101208201529392505050565b6001600160a01b0392831681529116602082015260400190565b5f5f8335601e19843603018112612b0b575f5ffd5b8301803591506001600160401b03821115612b24575f5ffd5b6020019150600581901b3603821315612b3b575f5ffd5b9250929050565b5f60208284031215612b52575f5ffd5b813561140a8161259e565b5f82601f830112612b6c575f5ffd5b8151612b7a6122998261225a565b8082825260208201915060208360051b860101925085831115612b9b575f5ffd5b602085015b838110156122dc578051612bb38161218d565b835260209283019201612ba0565b5f60208284031215612bd1575f5ffd5b81516001600160401b03811115612be6575f5ffd5b6114d684828501612b5d565b5f5f5f5f60808587031215612c05575f5ffd5b84516001600160401b03811115612c1a575f5ffd5b612c2687828801612b5d565b602087015190955090506001600160401b03811115612c43575f5ffd5b8501601f81018713612c53575f5ffd5b8051612c616122998261225a565b80828252602082019150602060608402850101925089831115612c82575f5ffd5b6020840193505b82841015612ced576060848b031215612ca0575f5ffd5b612ca8612208565b8451612cb38161259e565b81526020850151612cc38161218d565b6020820152612cd4604086016127ea565b6040820152825260609390930192602090910190612c89565b6040890151909650925050506001600160401b03811115612d0c575f5ffd5b612d188782880161288e565b606087015190935090506001600160401b03811115612d35575f5ffd5b612d418782880161288e565b91505092959194509250565b5f82612d6757634e487b7160e01b5f52601260045260245ffd5b500490565b634e487b7160e01b5f52605160045260245ffdfe6e71edae12b1b97f4d1f60370fef10105fa2faae0126114a169c64845d6126c9a264697066735822122067f1fdcfacf6618ed1170bcbea3f33e1945d862a6fdcbef300844fe50ef2a17764736f6c634300081e0033","linkReferences":{}},"methodIdentifiers":{"create(string,string,(address,uint8,address,bool)[],uint256,uint256,(address,address,address),uint256,address,bool,bool,bytes32)":"100768cc","disable()":"2f2770db","getActionId(bytes4)":"851c1bb3","getAuthorizer()":"aaabadc5","getCreationCode()":"00c194db","getCreationCodeContracts()":"174481fa","getDefaultLiquidityManagement()":"193ad50f","getDefaultPoolHooksContract()":"ec888061","getDeploymentAddress(bytes,bytes32)":"44f6fec7","getNewPoolPauseWindowEndTime()":"db035ebc","getOriginalPauseWindowEndTime()":"e9d56e19","getPauseWindowDuration()":"78da80cb","getPoolCount()":"8eec5d70","getPoolVersion()":"3f819b6f","getPools()":"673a2a1f","getPoolsInRange(uint256,uint256)":"53a72f7e","getVault()":"8d928af8","isDisabled()":"6c57f5a9","isPoolFromFactory(address)":"6634b753","version()":"54fd4d50"},"id":122}