{"abi":[{"type":"constructor","inputs":[{"name":"pkgInit","type":"tuple","internalType":"struct ICowRouterDFPkg.PkgInit","components":[{"name":"balancerV3VaultAwareFacet","type":"address","internalType":"contract IFacet"},{"name":"balancerV3AuthenticationFacet","type":"address","internalType":"contract IFacet"},{"name":"cowRouterFacet","type":"address","internalType":"contract IFacet"},{"name":"balancerV3Vault","type":"address","internalType":"contract IVault"},{"name":"diamondFactory","type":"address","internalType":"contract IDiamondPackageCallBackFactory"}]}],"stateMutability":"nonpayable"},{"type":"function","name":"BALANCER_V3_AUTHENTICATION_FACET","inputs":[],"outputs":[{"name":"","type":"address","internalType":"contract IFacet"}],"stateMutability":"view"},{"type":"function","name":"BALANCER_V3_VAULT","inputs":[],"outputs":[{"name":"","type":"address","internalType":"contract IVault"}],"stateMutability":"view"},{"type":"function","name":"BALANCER_V3_VAULT_AWARE_FACET","inputs":[],"outputs":[{"name":"","type":"address","internalType":"contract IFacet"}],"stateMutability":"view"},{"type":"function","name":"COW_ROUTER_FACET","inputs":[],"outputs":[{"name":"","type":"address","internalType":"contract IFacet"}],"stateMutability":"view"},{"type":"function","name":"DIAMOND_PACKAGE_FACTORY","inputs":[],"outputs":[{"name":"","type":"address","internalType":"contract IDiamondPackageCallBackFactory"}],"stateMutability":"view"},{"type":"function","name":"calcSalt","inputs":[{"name":"pkgArgs","type":"bytes","internalType":"bytes"}],"outputs":[{"name":"salt","type":"bytes32","internalType":"bytes32"}],"stateMutability":"pure"},{"type":"function","name":"deployRouter","inputs":[{"name":"protocolFeePercentage_","type":"uint256","internalType":"uint256"},{"name":"feeSweeper_","type":"address","internalType":"address"}],"outputs":[{"name":"router","type":"address","internalType":"address"}],"stateMutability":"nonpayable"},{"type":"function","name":"diamondConfig","inputs":[],"outputs":[{"name":"config","type":"tuple","internalType":"struct IDiamondFactoryPackage.DiamondConfig","components":[{"name":"facetCuts","type":"tuple[]","internalType":"struct IDiamond.FacetCut[]","components":[{"name":"facetAddress","type":"address","internalType":"address"},{"name":"action","type":"uint8","internalType":"enum IDiamond.FacetCutAction"},{"name":"functionSelectors","type":"bytes4[]","internalType":"bytes4[]"}]},{"name":"interfaces","type":"bytes4[]","internalType":"bytes4[]"}]}],"stateMutability":"view"},{"type":"function","name":"facetAddresses","inputs":[],"outputs":[{"name":"facetAddresses_","type":"address[]","internalType":"address[]"}],"stateMutability":"view"},{"type":"function","name":"facetCuts","inputs":[],"outputs":[{"name":"facetCuts_","type":"tuple[]","internalType":"struct IDiamond.FacetCut[]","components":[{"name":"facetAddress","type":"address","internalType":"address"},{"name":"action","type":"uint8","internalType":"enum IDiamond.FacetCutAction"},{"name":"functionSelectors","type":"bytes4[]","internalType":"bytes4[]"}]}],"stateMutability":"view"},{"type":"function","name":"facetInterfaces","inputs":[],"outputs":[{"name":"interfaces","type":"bytes4[]","internalType":"bytes4[]"}],"stateMutability":"pure"},{"type":"function","name":"initAccount","inputs":[{"name":"initArgs","type":"bytes","internalType":"bytes"}],"outputs":[],"stateMutability":"nonpayable"},{"type":"function","name":"packageMetadata","inputs":[],"outputs":[{"name":"name_","type":"string","internalType":"string"},{"name":"interfaces","type":"bytes4[]","internalType":"bytes4[]"},{"name":"facets","type":"address[]","internalType":"address[]"}],"stateMutability":"view"},{"type":"function","name":"packageName","inputs":[],"outputs":[{"name":"name_","type":"string","internalType":"string"}],"stateMutability":"pure"},{"type":"function","name":"postDeploy","inputs":[{"name":"","type":"address","internalType":"address"}],"outputs":[{"name":"","type":"bool","internalType":"bool"}],"stateMutability":"pure"},{"type":"function","name":"processArgs","inputs":[{"name":"pkgArgs","type":"bytes","internalType":"bytes"}],"outputs":[{"name":"processedPkgArgs","type":"bytes","internalType":"bytes"}],"stateMutability":"pure"},{"type":"function","name":"updatePkg","inputs":[{"name":"","type":"address","internalType":"address"},{"name":"","type":"bytes","internalType":"bytes"}],"outputs":[{"name":"","type":"bool","internalType":"bool"}],"stateMutability":"nonpayable"},{"type":"event","name":"FeeSweeperChanged","inputs":[{"name":"newFeeSweeper","type":"address","indexed":false,"internalType":"address"}],"anonymous":false},{"type":"event","name":"ProtocolFeePercentageChanged","inputs":[{"name":"newProtocolFeePercentage","type":"uint256","indexed":false,"internalType":"uint256"}],"anonymous":false},{"type":"error","name":"InvalidFeeSweeper","inputs":[]},{"type":"error","name":"InvalidFeeSweeper","inputs":[]},{"type":"error","name":"ProtocolFeePercentageAboveLimit","inputs":[{"name":"provided","type":"uint256","internalType":"uint256"},{"name":"max","type":"uint256","internalType":"uint256"}]},{"type":"error","name":"ProtocolFeePercentageAboveLimit","inputs":[{"name":"newProtocolFeePercentage","type":"uint256","internalType":"uint256"},{"name":"maxProtocolFeePercentage","type":"uint256","internalType":"uint256"}]}],"bytecode":{"object":"0x610120604052348015610010575f5ffd5b5060405161136a38038061136a83398101604081905261002f91610129565b60608101516001600160a01b039081166080908152820151811660a0528151811660c052602080830151821660e0526040808401519092166101005281513081830152825180820383018152908301909252815191012061008f906100a3565b606081015161009d906100cf565b506101c2565b6100cc7f82340927aad1ca6b5f8bb0037567f287e1bec629ab302d4e1debbc0d7543b1f8829055565b50565b6100cc7f392e49ca1983749c4549242b814e6592e6c2354a2bb55242596ce0ad2e7b100180546001600160a01b0319166001600160a01b038416179055565b80516001600160a01b0381168114610124575f5ffd5b919050565b5f60a082840312801561013a575f5ffd5b5060405160a081016001600160401b038111828210171561016957634e487b7160e01b5f52604160045260245ffd5b6040526101758361010e565b81526101836020840161010e565b60208201526101946040840161010e565b60408201526101a56060840161010e565b60608201526101b66080840161010e565b60808201529392505050565b60805160a05160c05160e0516101005161111f61024b5f395f818160e2015281816104f501528181610836015261087c01525f8181610291015281816104a101528181610742015261078801525f81816101c80152818161044e01528181610664015261069501525f8181610241015261031801525f818161020401526105a1015261111f5ff3fe608060405234801561000f575f5ffd5b50600436106100d9575f3560e01c806302bf9189146100dd5780630e5bca5a1461011a5780632ea808261461012d57806352ef6b2c1461014257806365d375b31461015757806370068fcf1461016c578063870d48381461019057806387c3adb3146101a557806390d8c705146101c3578063a4b3ad35146101ea578063a4c01bbb146101ff578063a908923514610226578063ab6046ed1461023c578063abc8b34614610263578063d82be56e1461026b578063f07033251461028c578063f45469e7146102b3575b5f5ffd5b6101047f000000000000000000000000000000000000000000000000000000000000000081565b6040516101119190610bb3565b60405180910390f35b610104610128366004610bdb565b6102ca565b610135610397565b6040516101119190610c4d565b61014a61042a565b6040516101119190610c98565b61015f61054a565b6040516101119190610d60565b61018061017a366004610da1565b50600190565b6040519015158152602001610111565b6101a361019e366004610e6b565b610585565b005b6101b66101b3366004610e6b565b90565b6040516101119190610ed2565b6101047f000000000000000000000000000000000000000000000000000000000000000081565b6101f2610609565b6040516101119190610ee4565b6101047f000000000000000000000000000000000000000000000000000000000000000081565b610180610234366004610ef6565b600192915050565b6101047f000000000000000000000000000000000000000000000000000000000000000081565b6101b6610920565b61027e610279366004610e6b565b610948565b604051908152602001610111565b6101047f000000000000000000000000000000000000000000000000000000000000000081565b6102bb6109fd565b60405161011193929190610f42565b6040805180820182528381526001600160a01b038381166020928301908152835192830186905251811682840152825180830384018152606083019384905263e97fac0560e01b9093525f927f00000000000000000000000000000000000000000000000000000000000000009091169163e97fac059161035091309190606401610f84565b6020604051808303815f875af115801561036c573d5f5f3e3d5ffd5b505050506040513d601f19601f820116820180604052508101906103909190610fa7565b9392505050565b6040805160028082526060808301845292602083019080368337019050509050634b12c34f60e01b815f815181106103d1576103d1610fc2565b60200260200101906001600160e01b03191690816001600160e01b03191681525050632b92364960e21b8160018151811061040e5761040e610fc2565b6001600160e01b03199092166020928302919091019091015290565b604080516003808252608082019092526060916020820183803683370190505090507f0000000000000000000000000000000000000000000000000000000000000000815f8151811061047f5761047f610fc2565b60200260200101906001600160a01b031690816001600160a01b0316815250507f0000000000000000000000000000000000000000000000000000000000000000816001815181106104d3576104d3610fc2565b60200260200101906001600160a01b031690816001600160a01b0316815250507f00000000000000000000000000000000000000000000000000000000000000008160028151811061052757610527610fc2565b60200260200101906001600160a01b031690816001600160a01b03168152505090565b60408051808201909152606080825260208201526040518060400160405280610571610609565b815260200161057e610397565b9052919050565b5f8180602001905181019061059a9190610fd6565b90506105c57f0000000000000000000000000000000000000000000000000000000000000000610a25565b6105f4306040516020016105d99190610bb3565b60405160208183030381529060405280519060200120610a67565b610605815f01518260200151610a90565b5050565b60408051600380825260808201909252606091816020015b60408051606080820183525f8083526020830152918101919091528152602001906001900390816106215790505060408051606081019091526001600160a01b037f0000000000000000000000000000000000000000000000000000000000000000168152909150602081015f81526020017f00000000000000000000000000000000000000000000000000000000000000006001600160a01b031663574a4cff6040518163ffffffff1660e01b81526004015f60405180830381865afa1580156106ee573d5f5f3e3d5ffd5b505050506040513d5f823e601f3d908101601f19168201604052610715919081019061102b565b815250815f8151811061072a5761072a610fc2565b602002602001018190525060405180606001604052807f00000000000000000000000000000000000000000000000000000000000000006001600160a01b031681526020015f600281111561078157610781610caa565b81526020017f00000000000000000000000000000000000000000000000000000000000000006001600160a01b031663574a4cff6040518163ffffffff1660e01b81526004015f60405180830381865afa1580156107e1573d5f5f3e3d5ffd5b505050506040513d5f823e601f3d908101601f19168201604052610808919081019061102b565b8152508160018151811061081e5761081e610fc2565b602002602001018190525060405180606001604052807f00000000000000000000000000000000000000000000000000000000000000006001600160a01b031681526020015f600281111561087557610875610caa565b81526020017f00000000000000000000000000000000000000000000000000000000000000006001600160a01b031663574a4cff6040518163ffffffff1660e01b81526004015f60405180830381865afa1580156108d5573d5f5f3e3d5ffd5b505050506040513d5f823e601f3d908101601f191682016040526108fc919081019061102b565b8152508160028151811061091257610912610fc2565b602002602001018190525090565b60408051808201909152600e81526d436f77526f757465724446506b6760901b602082015290565b5f5f8280602001905181019061095e9190610fd6565b60208101519091506001600160a01b031661098c576040516302d1ccf160e11b815260040160405180910390fd5b80516706f05b59d3b2000010156109cf57805160405163e76c2b2360e01b815260048101919091526706f05b59d3b2000060248201526044015b60405180910390fd5b610390836040516020016109e39190610ed2565b604051602081830303815290604052805160209091012090565b6060806060610a0a610920565b9250610a14610397565b9150610a1e61042a565b9050909192565b610a647f392e49ca1983749c4549242b814e6592e6c2354a2bb55242596ce0ad2e7b100180546001600160a01b0319166001600160a01b038416179055565b50565b610a647f82340927aad1ca6b5f8bb0037567f287e1bec629ab302d4e1debbc0d7543b1f8829055565b6106057f4686cee39c0edfd2fa0e5ee9fd4e399a203dac433a6e69091c8fa60bc3f755a28383610ac08383610acf565b610aca8382610b48565b505050565b6706f05b59d3b20000811115610b095760405163e76c2b2360e01b8152600481018290526706f05b59d3b2000060248201526044016109c6565b600182018190556040518181527ff7887aa0e0216e820fdbb5a4442586a79fefd45648f0adc2bc91dcf6ed717244906020015b60405180910390a15050565b6001600160a01b038116610b6f576040516302d1ccf160e11b815260040160405180910390fd5b81546001600160a01b0319166001600160a01b0382161782556040517e8c8c9cbd834aa4bc9856555e4a6af6df7553b18a704a068adb69ea00a81d4d90610b3c9083905b6001600160a01b0391909116815260200190565b6001600160a01b0381168114610a64575f5ffd5b5f5f60408385031215610bec575f5ffd5b823591506020830135610bfe81610bc7565b809150509250929050565b5f8151808452602084019350602083015f5b82811015610c435781516001600160e01b031916865260209586019590910190600101610c1b565b5093949350505050565b602081525f6103906020830184610c09565b5f8151808452602084019350602083015f5b82811015610c435781516001600160a01b0316865260209586019590910190600101610c71565b602081525f6103906020830184610c5f565b634e487b7160e01b5f52602160045260245ffd5b5f82825180855260208501945060208160051b830101602085015f5b83811015610d5457848303601f19018852815180516001600160a01b03168452602081015160038110610d1b57634e487b7160e01b5f52602160045260245ffd5b806020860152506040810151905060606040850152610d3d6060850182610c09565b6020998a0199909450929092019150600101610cda565b50909695505050505050565b602081525f825160406020840152610d7b6060840182610cbe565b90506020840151601f19848303016040850152610d988282610c09565b95945050505050565b5f60208284031215610db1575f5ffd5b813561039081610bc7565b634e487b7160e01b5f52604160045260245ffd5b604051601f8201601f191681016001600160401b0381118282101715610df857610df8610dbc565b604052919050565b5f82601f830112610e0f575f5ffd5b81356001600160401b03811115610e2857610e28610dbc565b610e3b601f8201601f1916602001610dd0565b818152846020838601011115610e4f575f5ffd5b816020850160208301375f918101602001919091529392505050565b5f60208284031215610e7b575f5ffd5b81356001600160401b03811115610e90575f5ffd5b610e9c84828501610e00565b949350505050565b5f81518084528060208401602086015e5f602082860101526020601f19601f83011685010191505092915050565b602081525f6103906020830184610ea4565b602081525f6103906020830184610cbe565b5f5f60408385031215610f07575f5ffd5b8235610f1281610bc7565b915060208301356001600160401b03811115610f2c575f5ffd5b610f3885828601610e00565b9150509250929050565b606081525f610f546060830186610ea4565b8281036020840152610f668186610c09565b90508281036040840152610f7a8185610c5f565b9695505050505050565b6001600160a01b03831681526040602082018190525f90610e9c90830184610ea4565b5f60208284031215610fb7575f5ffd5b815161039081610bc7565b634e487b7160e01b5f52603260045260245ffd5b5f6040828403128015610fe7575f5ffd5b50604080519081016001600160401b038111828210171561100a5761100a610dbc565b60405282518152602083015161101f81610bc7565b60208201529392505050565b5f6020828403121561103b575f5ffd5b81516001600160401b03811115611050575f5ffd5b8201601f81018413611060575f5ffd5b80516001600160401b0381111561107957611079610dbc565b8060051b61108960208201610dd0565b918252602081840181019290810190878411156110a4575f5ffd5b6020850194505b838510156110de57845192506001600160e01b0319831683146110cc575f5ffd5b828252602094850194909101906110ab565b97965050505050505056fea26469706673582212206cb5801599b35f35204606ac046f15366aa6b5314489cf7c3567e1a246a61df764736f6c634300081e0033","linkReferences":{}},"methodIdentifiers":{"BALANCER_V3_AUTHENTICATION_FACET()":"f0703325","BALANCER_V3_VAULT()":"a4c01bbb","BALANCER_V3_VAULT_AWARE_FACET()":"90d8c705","COW_ROUTER_FACET()":"02bf9189","DIAMOND_PACKAGE_FACTORY()":"ab6046ed","calcSalt(bytes)":"d82be56e","deployRouter(uint256,address)":"0e5bca5a","diamondConfig()":"65d375b3","facetAddresses()":"52ef6b2c","facetCuts()":"a4b3ad35","facetInterfaces()":"2ea80826","initAccount(bytes)":"870d4838","packageMetadata()":"f45469e7","packageName()":"abc8b346","postDeploy(address)":"70068fcf","processArgs(bytes)":"87c3adb3","updatePkg(address,bytes)":"a9089235"},"id":897}