{"abi":[{"type":"function","name":"generateSVG","inputs":[{"name":"params","type":"tuple","internalType":"struct NFTSVG.SVGParams","components":[{"name":"quoteToken","type":"string","internalType":"string"},{"name":"baseToken","type":"string","internalType":"string"},{"name":"poolAddress","type":"address","internalType":"address"},{"name":"quoteTokenSymbol","type":"string","internalType":"string"},{"name":"baseTokenSymbol","type":"string","internalType":"string"},{"name":"feeTier","type":"string","internalType":"string"},{"name":"tickLower","type":"int24","internalType":"int24"},{"name":"tickUpper","type":"int24","internalType":"int24"},{"name":"tickSpacing","type":"int24","internalType":"int24"},{"name":"overRange","type":"int8","internalType":"int8"},{"name":"tokenId","type":"uint256","internalType":"uint256"},{"name":"color0","type":"string","internalType":"string"},{"name":"color1","type":"string","internalType":"string"},{"name":"color2","type":"string","internalType":"string"},{"name":"color3","type":"string","internalType":"string"},{"name":"x1","type":"string","internalType":"string"},{"name":"y1","type":"string","internalType":"string"},{"name":"x2","type":"string","internalType":"string"},{"name":"y2","type":"string","internalType":"string"},{"name":"x3","type":"string","internalType":"string"},{"name":"y3","type":"string","internalType":"string"}]}],"outputs":[{"name":"svg","type":"string","internalType":"string"}],"stateMutability":"pure"}],"bytecode":{"object":"0x613907610034600b8282823980515f1a607314602857634e487b7160e01b5f525f60045260245ffd5b305f52607381538281f3fe7300000000000000000000000000000000000000003014608060405260043610610034575f3560e01c8063f3f7b74214610038575b5f5ffd5b61004b610046366004611917565b610061565b6040516100589190611c46565b60405180910390f35b606080606061006f8461013b565b915061008c845f0151856020015186606001518760800151610193565b90506060806100a8866060015187608001518860a00151610260565b91506100c88660c001518760e0015188610100015189610120015161028f565b90506060806100ed6100de89610140015161035f565b8960c001518a60e00151610370565b915061010288610140015189604001516104f6565b905085858585858560405160200161011f96959493929190611c92565b6040516020818303038152906040529650505050505050919050565b60605f61014783610541565b90505f61015261060a565b90505f610163856101600151610d7e565b905082828260405160200161017a93929190611ce5565b6040516020818303038152906040529350505050919050565b60608084836040516020016101a9929190611cff565b6040516020818303038152906040529050606085846040516020016101cf929190611e52565b6040516020818303038152906040529050606087866040516020016101f5929190611f92565b60405160208183030381529060405290506060888760405160200161021b9291906120a0565b6040516020818303038152906040529050838383836040516020016102439493929190612209565b604051602081830303815290604052945050505050949350505050565b606083838360405160200161027793929190612227565b60405160208183030381529060405290509392505050565b60605f825f0b6001146102f157825f0b5f19146102c95760405180604001604052806005815260200164236e6f6e6560d81b815250610313565b6040518060400160405280600a81526020016911b330b23296b237bbb760b11b815250610313565b60405180604001604052806008815260200167023666164652d75760c41b8152505b90505f610321878787610da7565b90508181838361033088610fdb565b60405160200161034495949392919061248c565b60405160208183030381529060405292505050949350505050565b606061036a826110fe565b92915050565b60605f61037c84611140565b90505f61038884611140565b905060605f8751600461039b9190612713565b90506103e0604051806040016040528060038152602001620cce0d60ea1b81525060405180604001604052806004815260200163024a21d160e51b8152508a846111c0565b91505060605f8451600a6103f49190612713565b905061043f604051806040016040528060038152602001620d0c4d60ea1b8152506040518060400160405280600a815260200169026b4b7102a34b1b59d160b51b81525087846111c0565b91505060605f8451600a6104539190612713565b905061049e604051806040016040528060038152602001620d0d0d60ea1b8152506040518060400160405280600a815260200169026b0bc102a34b1b59d160b51b81525087846111c0565b91505060605f5f6104af8b8b61120f565b915091506104bd828261152a565b92505050838383836040516020016104d89493929190612209565b60405160208183030381529060405296505050505050509392505050565b60606105028383611556565b1561052c5760405160200161051690612726565b604051602081830303815290604052905061036a565b5060408051602081019091525f815292915050565b60608060606105548461016001516115ce565b9150610570846101e001518561020001518661018001516115f8565b905060608061058f866102200151876102400151886101a001516115f8565b91506105ab866102600151876102800151886101c0015161161a565b90505f84846040516020016105c1929190612a41565b60405160208183030381529060405290505f83836040516020016105e6929190612ba4565b6040516020818303038152906040529050818160405160200161011f929190612d46565b60605f6040516020016107f9907f203c636c6970506174682069643d22636f726e657273223e3c7265637420776981527f6474683d2232393022206865696768743d22353030222072783d2234322220726020820152733c9e911a191110179f1e17b1b634b82830ba341f60611b60408201527f3c706174682069643d22746578742d706174682d612220643d224d343020313260548201527f204832353020413238203238203020302031203237382034302056343630204160748201527f323820323820302030203120323530203438382048343020413238203238203060948201527f203020312031322034363020563430204132382032382030203020312034302060b4820152671899103d1110179f60c11b60d48201527f3c706174682069643d226d696e696d61702220643d224d32333420343434433260dc8201527f3334203435372e393439203234322e323120343633203235332034363322202f60fc820152601f60f91b61011c8201527f3c66696c7465722069643d22746f702d726567696f6e2d626c7572223e3c666561011d8201527f476175737369616e426c757220696e3d22536f7572636547726170686963222061013d8201527f737464446576696174696f6e3d22323422202f3e3c2f66696c7465723e00000061015d82015261017a0190565b60405160208183030381529060405290505f6040516020016109eb907f3c6c696e6561724772616469656e742069643d22677261642d7570222078313d81527f2231222078323d2230222079313d2231222079323d2230223e3c73746f70206f60208201527f66667365743d22302e30222073746f702d636f6c6f723d2277686974652220736040820152713a37b816b7b830b1b4ba3c9e91189110179f60711b60608201527f3c73746f70206f66667365743d222e39222073746f702d636f6c6f723d22776860728201527f697465222073746f702d6f7061636974793d223022202f3e3c2f6c696e65617260928201526823b930b234b2b73a1f60b91b60b28201527f3c6c696e6561724772616469656e742069643d22677261642d646f776e22207860bb8201527f313d2230222078323d2231222079313d2230222079323d2231223e3c73746f7060db8201527f206f66667365743d22302e30222073746f702d636f6c6f723d2277686974652260fb8201527f2073746f702d6f7061636974793d223122202f3e3c73746f70206f666673657461011b8201527f3d22302e39222073746f702d636f6c6f723d227768697465222073746f702d6f61013b8201527f7061636974793d223022202f3e3c2f6c696e6561724772616469656e743e000061015b8201526101790190565b60405160208183030381529060405290505f604051602001610bab907f3c6d61736b2069643d22666164652d757022206d61736b436f6e74656e74556e81527f6974733d226f626a656374426f756e64696e67426f78223e3c7265637420776960208201527f6474683d223122206865696768743d2231222066696c6c3d2275726c2823677260408201527030b216bab8149110179f1e17b6b0b9b59f60791b60608201527f3c6d61736b2069643d22666164652d646f776e22206d61736b436f6e74656e7460718201527f556e6974733d226f626a656374426f756e64696e67426f78223e3c726563742060918201527f77696474683d223122206865696768743d2231222066696c6c3d2275726c282360b18201527433b930b216b237bbb7149110179f1e17b6b0b9b59f60591b60d18201527f3c6d61736b2069643d226e6f6e6522206d61736b436f6e74656e74556e69747360e68201527f3d226f626a656374426f756e64696e67426f78223e3c726563742077696474686101068201527f3d223122206865696768743d2231222066696c6c3d22776869746522202f3e3c6101268201526517b6b0b9b59f60d11b61014682015261014c0190565b60405160208183030381529060405290505f604051602001610d3e907f3c6c696e6561724772616469656e742069643d22677261642d73796d626f6c2281527f3e3c73746f70206f66667365743d22302e37222073746f702d636f6c6f723d2260208201527f7768697465222073746f702d6f7061636974793d223122202f3e3c73746f702060408201527f6f66667365743d222e3935222073746f702d636f6c6f723d227768697465222060608201527f73746f702d6f7061636974793d223022202f3e3c2f6c696e656172477261646960808201526332b73a1f60e11b60a08201527f3c6d61736b2069643d22666164652d73796d626f6c22206d61736b436f6e746560a48201527f6e74556e6974733d227573657253706163654f6e557365223e3c72656374207760c48201527f696474683d22323930707822206865696768743d223230307078222066696c6c60e48201527f3d2275726c2823677261642d73796d626f6c2922202f3e3c2f6d61736b3e3c2f610104820152643232b3399f60d91b6101248201526101290190565b604051602081830303815290604052905083838383604051602001610d669493929190612209565b60405160208183030381529060405294505050505090565b606081604051602001610d919190612d54565b6040516020818303038152906040529050919050565b60605f82610db5868661300e565b610dbf9190613047565b905060048160020b13610e06576040518060400160405280601a8152602001794d3120314334312034312031303520313035203134352031343560301b8152509150610fd3565b60088160020b13610e4a57604051806040016040528060198152602001784d31203143333320343920393720313133203134352031343560381b8152509150610fd3565b60108160020b13610e8e57604051806040016040528060198152602001784d31203143333320353720383920313133203134352031343560381b8152509150610fd3565b60208160020b13610ed257604051806040016040528060198152602001784d31203143323520363520383120313231203134352031343560381b8152509150610fd3565b60408160020b13610f1657604051806040016040528060198152602001784d31203143313720373320373320313239203134352031343560381b8152509150610fd3565b60808160020b13610f5957604051806040016040528060188152602001774d312031433920383120363520313337203134352031343560401b8152509150610fd3565b6101008160020b13610f9f576040518060400160405280601a8152602001794d31203143312038392035372e3520313435203134352031343560301b8152509150610fd3565b604051806040016040528060188152602001774d312031433120393720343920313435203134352031343560401b81525091505b509392505050565b6040805180820182526002815261373360f01b6020808301919091528251808401845260038082526203139360ec1b82840152845180860186528181526232313760e81b818501528551808701909652908552620ccccd60ea1b9285019290925260609390919060015f87900b14806110565750855f0b5f19145b156110cc57855f0b5f191461106b578161106d565b835b865f0b5f191461107d578161107f565b835b875f0b5f191461108f5783611091565b855b885f0b5f19146110a157836110a3565b855b6040516020016110b6949392919061307f565b60405160208183030381529060405294506110f5565b838383836040516020016110e3949392919061315d565b60405160208183030381529060405294505b50505050919050565b60606080604051019050602081016040525f8152805f19835b928101926030600a8206018453600a900480611117575050819003601f19909101908152919050565b60605f60405180602001604052805f81525090505f8360020b12156111895761116a835f19613229565b9250604051806040016040528060018152602001602d60f81b81525090505b806111988462ffffff1661035f565b6040516020016111a9929190612d46565b604051602081830303815290604052915050919050565b6060846111e16111d1846004612713565b6111dc90600761324f565b61035f565b85856040516020016111f69493929190613266565b6040516020818303038152906040529050949350505050565b6060805f600261121f85876133f5565b6112299190613047565b90506201e847198160020b121561127857604051806040016040528060018152602001600760fb1b815250604051806040016040528060018152602001603760f81b8152509250925050611523565b620124f7198160020b12156112c857604051806040016040528060018152602001600760fb1b8152506040518060400160405280600481526020016331302e3560e01b8152509250925050611523565b6161a7198160020b121561131857604051806040016040528060018152602001600760fb1b8152506040518060400160405280600581526020016431342e323560d81b8152509250925050611523565b611387198160020b12156113665760405180604001604052806002815260200161031360f41b81525060405180604001604052806002815260200161062760f31b8152509250925050611523565b5f8160020b12156113b15760405180604001604052806002815260200161313160f01b81525060405180604001604052806002815260200161323160f01b8152509250925050611523565b6113888160020b12156113fe5760405180604001604052806002815260200161313360f01b81525060405180604001604052806002815260200161323360f01b8152509250925050611523565b6161a88160020b121561144b5760405180604001604052806002815260200161313560f01b81525060405180604001604052806002815260200161323560f01b8152509250925050611523565b620124f88160020b12156114995760405180604001604052806002815260200161062760f31b81525060405180604001604052806002815260200161191b60f11b8152509250925050611523565b6201e8488160020b12156114e75760405180604001604052806002815260200161323160f01b81525060405180604001604052806002815260200161323760f01b8152509250925050611523565b604051806040016040528060028152602001610c8d60f21b81525060405180604001604052806002815260200161323760f01b81525092509250505b9250929050565b6060828260405160200161153f92919061341a565b604051602081830303815290604052905092915050565b5f5f838360405160200161158192919091825260601b6001600160601b031916602082015260340190565b6040516020818303038152906040528051906020012090506115a284611634565b6115ad9060026135d6565b6115b89060016135f2565b6115c69060ff165f1961360b565b119392505050565b606061036a826040516020016115e4919061361e565b604051602081830303815290604052611721565b60606116128484846040516020016115e493929190613719565b949350505050565b60606116128484846040516020016115e493929190613783565b5f5f8211611640575f5ffd5b600160801b821061165e57608091821c9161165b90826135f2565b90505b600160401b821061167c57604091821c9161167990826135f2565b90505b600160201b821061169a57602091821c9161169790826135f2565b90505b6201000082106116b757601091821c916116b490826135f2565b90505b61010082106116d357600891821c916116d090826135f2565b90505b601082106116ee57600491821c916116eb90826135f2565b90505b6004821061170957600291821c9161170690826135f2565b90505b6002821061171c5761036a6001826135f2565b919050565b606061036a825f5f606083518015610fd3576003600282010460021b60405192507f4142434445464748494a4b4c4d4e4f505152535455565758595a616263646566601f526106708515027f6768696a6b6c6d6e6f707172737475767778797a303132333435363738392d5f18603f526020830181810183886020010180515f82525b60038a0199508951603f8160121c16515f53603f81600c1c1651600153603f8160061c1651600253603f811651600353505f5184526004840193508284106117a4579052602001604052613d3d60f01b60038406600204808303919091525f861515909102918290035290038252509392505050565b634e487b7160e01b5f52604160045260245ffd5b6040516102a081016001600160401b03811182821017156118515761185161181a565b60405290565b5f82601f830112611866575f5ffd5b81356001600160401b0381111561187f5761187f61181a565b604051601f8201601f19908116603f011681016001600160401b03811182821017156118ad576118ad61181a565b6040528181528382016020018510156118c4575f5ffd5b816020850160208301375f918101602001919091529392505050565b80356001600160a01b038116811461171c575f5ffd5b8035600281900b811461171c575f5ffd5b80355f81900b811461171c575f5ffd5b5f60208284031215611927575f5ffd5b81356001600160401b0381111561193c575f5ffd5b82016102a0818503121561194e575f5ffd5b61195661182e565b81356001600160401b0381111561196b575f5ffd5b61197786828501611857565b82525060208201356001600160401b03811115611992575f5ffd5b61199e86828501611857565b6020830152506119b0604083016118e0565b604082015260608201356001600160401b038111156119cd575f5ffd5b6119d986828501611857565b60608301525060808201356001600160401b038111156119f7575f5ffd5b611a0386828501611857565b60808301525060a08201356001600160401b03811115611a21575f5ffd5b611a2d86828501611857565b60a083015250611a3f60c083016118f6565b60c0820152611a5060e083016118f6565b60e0820152611a6261010083016118f6565b610100820152611a756101208301611907565b61012082015261014082810135908201526101608201356001600160401b03811115611a9f575f5ffd5b611aab86828501611857565b610160830152506101808201356001600160401b03811115611acb575f5ffd5b611ad786828501611857565b610180830152506101a08201356001600160401b03811115611af7575f5ffd5b611b0386828501611857565b6101a0830152506101c08201356001600160401b03811115611b23575f5ffd5b611b2f86828501611857565b6101c0830152506101e08201356001600160401b03811115611b4f575f5ffd5b611b5b86828501611857565b6101e0830152506102008201356001600160401b03811115611b7b575f5ffd5b611b8786828501611857565b610200830152506102208201356001600160401b03811115611ba7575f5ffd5b611bb386828501611857565b610220830152506102408201356001600160401b03811115611bd3575f5ffd5b611bdf86828501611857565b610240830152506102608201356001600160401b03811115611bff575f5ffd5b611c0b86828501611857565b610260830152506102808201356001600160401b03811115611c2b575f5ffd5b611c3786828501611857565b61028083015250949350505050565b602081525f82518060208401528060208501604085015e5f604082850101526040601f19601f83011684010191505092915050565b5f81518060208401855e5f93019283525090919050565b5f611cca611cc4611cbe611cb8611cb2611cac878e611c7b565b8c611c7b565b8a611c7b565b88611c7b565b86611c7b565b84611c7b565b651e17b9bb339f60d11b815260060198975050505050505050565b5f611cf6611cc4611cbe8488611c7b565b95945050505050565b7f3c7465787420746578742d72656e646572696e673d226f7074696d697a65537081526432b2b2111f60d91b60208201527f3c74657874506174682073746172744f66667365743d222d313030252220666960258201527f6c6c3d2277686974652220666f6e742d66616d696c793d2227436f757269657260458201527f204e6577272c206d6f6e6f73706163652220666f6e742d73697a653d2231307060658201527f782220786c696e6b3a687265663d2223746578742d706174682d61223e00000060858201525f611dd660a2830185611c7b565b64010714051160dd1b8152611dee6005820185611c7b565b5f5160206137d25f395f51905f5281525f5160206138725f395f51905f5260208201525f5160206138525f395f51905f526040820152783832b0ba21b7bab73a1e9134b73232b334b734ba329110179f60391b606082015260790195945050505050565b7f3c2f74657874506174683e203c74657874506174682073746172744f6666736581527f743d223025222066696c6c3d2277686974652220666f6e742d66616d696c793d60208201527f2227436f7572696572204e6577272c206d6f6e6f73706163652220666f6e742d60408201527f73697a653d22313070782220786c696e6b3a687265663d2223746578742d70616060820152653a3416b0911f60d11b60808201525f611f046086830185611c7b565b64010714051160dd1b8152611f1c6005820185611c7b565b5f5160206137d25f395f51905f5281525f5160206138725f395f51905f5260208201525f5160206138525f395f51905f5260408201527f70656174436f756e743d22696e646566696e69746522202f3e203c2f746578746060820152642830ba341f60d91b608082015260850195945050505050565b7f3c74657874506174682073746172744f66667365743d22353025222066696c6c81527f3d2277686974652220666f6e742d66616d696c793d2227436f7572696572204e60208201527f6577272c206d6f6e6f73706163652220666f6e742d73697a653d22313070782260408201527a103c3634b7359d343932b31e9111ba32bc3a16b830ba3416b0911f60291b60608201525f612033607b830185611c7b565b64010714051160dd1b815261204b6005820185611c7b565b5f5160206137d25f395f51905f5281525f5160206138725f395f51905f5260208201527f6f3d22313030252220626567696e3d22307322206475723d22333073220000006040820152605d0195945050505050565b7f20726570656174436f756e743d22696e646566696e69746522202f3e3c2f746581527f7874506174683e3c74657874506174682073746172744f66667365743d222d3560208201527f3025222066696c6c3d2277686974652220666f6e742d66616d696c793d22274360408201527f6f7572696572204e6577272c206d6f6e6f73706163652220666f6e742d73697a60608201527f653d22313070782220786c696e6b3a687265663d2223746578742d706174682d60808201526230911f60e91b60a08201525f61217560a3830185611c7b565b64010714051160dd1b815261218d6005820185611c7b565b5f5160206137d25f395f51905f5281525f5160206138725f395f51905f5260208201525f5160206138525f395f51905f5260408201527f70656174436f756e743d22696e646566696e69746522202f3e3c2f746578745060608201526a30ba341f1e17ba32bc3a1f60a91b6080820152608b0195945050505050565b5f61221d611cc4611cbe611cb8858a611c7b565b9695505050505050565b7f3c67206d61736b3d2275726c2823666164652d73796d626f6c29223e3c72656381527f742066696c6c3d226e6f6e652220783d223070782220793d223070782220776960208201527f6474683d22323930707822206865696768743d22323030707822202f3e203c7460408201527f65787420793d22373070782220783d2233327078222066696c6c3d227768697460608201527f652220666f6e742d66616d696c793d2227436f7572696572204e6577272c206d60808201527f6f6e6f73706163652220666f6e742d7765696768743d223230302220666f6e7460a08201526c16b9b4bd329e91199b383c111f60991b60c08201525f61232c60cd830186611c7b565b602f60f81b81526123406001820186611c7b565b7f3c2f746578743e3c7465787420793d2231313570782220783d2233327078222081527f66696c6c3d2277686974652220666f6e742d66616d696c793d2227436f75726960208201527f6572204e6577272c206d6f6e6f73706163652220666f6e742d7765696768743d6040820152761119181811103337b73a16b9b4bd329e91199b383c111f60491b6060820152905061221d6123fb6123e46077840187611c7b565b6a1e17ba32bc3a1f1e17b39f60a91b8152600b0190565b7f3c7265637420783d2231362220793d223136222077696474683d22323538222081527f6865696768743d22343638222072783d223236222072793d223236222066696c60208201527f6c3d227267626128302c302c302c302922207374726f6b653d227267626128326040820152721a9a96191a9a96191a9a96181719149110179f60691b606082015260730190565b6c078ce40dac2e6d67a44eae4d85609b1b81525f6124ad600d830188611c7b565b61149160f11b81525f5160206138b25f395f51905f5260028201527f2c313839707829223e3c7265637420783d222d313670782220793d222d31367060228201527f78222077696474683d22313830707822206865696768743d22313830707822206042820152763334b6361e913737b7329110179f1e3830ba3410321e9160491b60628201526125416079820188611c7b565b7f22207374726f6b653d227267626128302c302c302c302e332922207374726f6b81527f652d77696474683d2233327078222066696c6c3d226e6f6e6522207374726f6b6020820152733296b634b732b1b0b81e913937bab7321110179f60611b6040820152700785ece7c78ce40dac2e6d67a44eae4d85607b1b605482015290506126f36126ed61268d611cb861267861261b6125f36125e5606589018e611c7b565b61149160f11b815260020190565b5f5160206138b25f395f51905f5281526816189c1cb83c14911f60b91b602082015260290190565b7f3c7265637420783d222d313670782220793d222d31367078222077696474683d81527f22313830707822206865696768743d223138307078222066696c6c3d226e6f6e602082015264329110179f60d91b604082015260450190565b681e3830ba3410321e9160b91b815260090190565b7f22207374726f6b653d2272676261283235352c3235352c3235352c312922206681527f696c6c3d226e6f6e6522207374726f6b652d6c696e656361703d22726f756e646020820152671110179f1e17b39f60c11b604082015260480190565b85611c7b565b98975050505050505050565b634e487b7160e01b5f52601160045260245ffd5b8082018082111561036a5761036a6126ff565b5f5160206138325f395f51905f5281527f3670782c20333932707829223e3c726563742077696474683d2233367078222060208201527f6865696768743d2233367078222072783d22387078222072793d22387078222060408201527f66696c6c3d226e6f6e6522207374726f6b653d2272676261283235352c32353560608201526c16191a9a96181719149110179f60991b60808201527f3c673e3c70617468207374796c653d227472616e73666f726d3a7472616e736c608d8201527f617465283670782c367078292220643d224d313220304c31322e36353232203960ad8201527f2e35363538374c313820312e363037374c31332e373831392031302e3231383160cd82015272026191917199c9919901b26189a171a199a189606d1b60ed8201527f31312e333437384c32342031324c31342e343334312031322e363532324c32326101008201527f2e333932332031384c31332e373831392031332e373831394c31382032322e336101208201527f3932334c31322e363532322031342e343334314c31322032344c31312e33343761014082015270382031342e343334314c362032322e333960781b6101608201527f32334c31302e323138312031332e373831394c312e363037372031384c392e356101718201527f363538372031322e363532324c302031324c392e35363538372031312e3334376101918201527f384c312e3630373720364c31302e323138312031302e323138314c3620312e366101b18201527f3037374c31312e3334373820392e35363538374c313220305a222066696c6c3d6101d182015269113bb434ba329110179f60b11b6101f18201527f3c616e696d6174655472616e73666f726d206174747269627574654e616d653d6101fb8201527f227472616e73666f726d2220747970653d22726f74617465222066726f6d3d2261021b8201527f302031382031382220746f3d2233363020313820313822206475723d2231307361023b8201527f2220726570656174436f756e743d22696e646566696e697465222f3e3c2f673e61025b820152631e17b39f60e11b61027b8201525f61027f820161036a565b7f3c7376672077696474683d2232393022206865696768743d223530302220766981527f6577426f783d2230203020323930203530302220786d6c6e733d22687474703a6020820152751797bbbbbb973b999737b933979918181817b9bb339160511b60408201527f20786d6c6e733a786c696e6b3d27687474703a2f2f7777772e77332e6f72672f60568201526b189c9c9c97bc3634b735939f60a11b6076820152651e3232b3399f60d11b60828201527f3c66696c7465722069643d226631223e3c6665496d61676520726573756c743d60888201527f2270302220786c696e6b3a687265663d22646174613a696d6167652f7376672b60a88201526a1e1b5b0ed8985cd94d8d0b60aa1b60c88201525f612b6160d3830185611c7b565b7f222f3e3c6665496d61676520726573756c743d2270312220786c696e6b3a687281525f5160206137f25f395f51905f526020820152611cf6603e820185611c7b565b7f222f3e3c6665496d61676520726573756c743d2270322220786c696e6b3a687281525f5160206137f25f395f51905f5260208201525f612be8603e830185611c7b565b631110179f60e11b81527f3c6665496d61676520726573756c743d2270332220786c696e6b3a687265663d60048201527a0899185d184e9a5b5859d94bdcdd99cade1b5b0ed8985cd94d8d0b602a1b6024820152612c49603f820185611c7b565b7f22202f3e3c6665426c656e64206d6f64653d226f7665726c61792220696e3d2281527f70302220696e323d22703122202f3e3c6665426c656e64206d6f64653d22657860208201527f636c7573696f6e2220696e323d22703222202f3e3c6665426c656e64206d6f6460408201527f653d226f7665726c61792220696e323d2270332220726573756c743d22626c656060820152780373227baba1110179f1e3332a3b0bab9b9b4b0b721363ab91603d1b60808201527f696e3d22626c656e644f75742220737464446576696174696f6e3d223432222060998201526a179f1e17b334b63a32b91f60a91b60b982015260c40195945050505050565b5f611612611cc48386611c7b565b7f3c6720636c69702d706174683d2275726c2823636f726e65727329223e00000081526b1e3932b1ba103334b6361e9160a11b601d8201525f612d9a6029830184611c7b565b7f2220783d223070782220793d22307078222077696474683d22323930707822208152703432b4b3b43a1e911a9818383c1110179f60791b60208201527f3c72656374207374796c653d2266696c7465723a2075726c282366312922207860318201527f3d223070782220793d22307078222077696474683d223239307078222068656960518201526d33b43a1e911a9818383c1110179f60911b60718201527f203c67207374796c653d2266696c7465723a75726c2823746f702d726567696f607f8201527f6e2d626c7572293b207472616e73666f726d3a7363616c6528312e35293b2074609f8201527f72616e73666f726d2d6f726967696e3a63656e74657220746f703b223e00000060bf8201527f3c726563742066696c6c3d226e6f6e652220783d223070782220793d2230707860dc82019081527f222077696474683d22323930707822206865696768743d22353030707822202f60fc830152601f60f91b61011c8301529061011d01611cf6612f7b827f3c656c6c697073652063783d22353025222063793d22307078222072783d223181527f38307078222072793d223132307078222066696c6c3d222330303022206f706160208201527131b4ba3c9e9118171c1a9110179f1e17b39f60711b604082015260520190565b7f3c7265637420783d22302220793d2230222077696474683d223239302220686581527f696768743d22353030222072783d223432222072793d223432222066696c6c3d60208201527f227267626128302c302c302c302922207374726f6b653d22726762612832353560408201527416191a9a96191a9a96181719149110179f1e17b39f60591b606082015260750190565b600282810b9082900b03627fffff198112627fffff8213171561036a5761036a6126ff565b634e487b7160e01b5f52601260045260245ffd5b5f8160020b8360020b8061305d5761305d613033565b627fffff1982145f1982141615613076576130766126ff565b90059392505050565b6b1e31b4b931b6329031bc1e9160a11b81525f61309f600c830187611c7b565b67383c111031bc9e9160c11b81526130ba6008820187611c7b565b7f70782220723d22347078222066696c6c3d22776869746522202f3e3c6369726381526636329031bc1e9160c91b602082015290506130fc6027820186611c7b565b67383c111031bc9e9160c11b815290506131196008820185611c7b565b7f70782220723d2232347078222066696c6c3d226e6f6e6522207374726f6b653d815269113bb434ba329110179f60b11b6020820152602a01979650505050505050565b6b1e31b4b931b6329031bc1e9160a11b81525f61317d600c830187611c7b565b67383c111031bc9e9160c11b81526131986008820187611c7b565b7a383c1110391e911a383c11103334b6361e913bb434ba329110179f60291b81526b1e31b4b931b6329031bc1e9160a11b601b82015290506131dd6027820186611c7b565b67383c111031bc9e9160c11b815290506131fa6008820185611c7b565b7a383c1110391e911a383c11103334b6361e913bb434ba329110179f60291b8152601b01979650505050505050565b5f8260020b8260020b028060020b9150808214613248576132486126ff565b5092915050565b808202811582820484141761036a5761036a6126ff565b7f203c67207374796c653d227472616e73666f726d3a7472616e736c617465283281526401cb83c16160dd1b60208201525f6132a56025830187611c7b565b64383c14911f60d91b81526c1e3932b1ba103bb4b23a341e9160991b60058201526132d36012820187611c7b565b90507f707822206865696768743d2232367078222072783d22387078222072793d223881527f7078222066696c6c3d227267626128302c302c302c302e362922202f3e00000060208201527f3c7465787420783d22313270782220793d22313770782220666f6e742d66616d603d8201527f696c793d2227436f7572696572204e6577272c206d6f6e6f7370616365222066605d8201527f6f6e742d73697a653d2231327078222066696c6c3d227768697465223e3c7473607d8201527f70616e2066696c6c3d2272676261283235352c3235352c3235352c302e362922609d820152601f60f91b60bd8201526133ea6123e4611cbe6133d660be850189611c7b565b671e17ba39b830b71f60c11b815260080190565b979650505050505050565b600281810b9083900b01627fffff8113627fffff198212171561036a5761036a6126ff565b5f5160206138325f395f51905f5281526c1b383c16101a1999b83c14911f60991b60208201527f3c726563742077696474683d223336707822206865696768743d223336707822602d8201527f2072783d22387078222072793d22387078222066696c6c3d226e6f6e65222073604d8201527f74726f6b653d2272676261283235352c3235352c3235352c302e322922202f3e606d8201527f3c70617468207374726f6b652d6c696e656361703d22726f756e642220643d22608d8201527f4d38203943382e30303030342032322e393439342031362e323039392032382060ad8201527f3237203238222066696c6c3d226e6f6e6522207374726f6b653d22776869746560cd820152631110179f60e11b60ed8201527f3c636972636c65207374796c653d227472616e73666f726d3a7472616e736c6160f1820152640e8ca66c8560db1b6101118201525f61161261358e6126ed61357e610116860188611c7b565b630383c16160e51b815260040190565b7f70782c2030707829222063783d22307078222063793d223070782220723d2234815275383c11103334b6361e913bb434ba3291179f1e17b39f60511b602082015260360190565b60ff8181168382160290811690818114613248576132486126ff565b60ff818116838216019081111561036a5761036a6126ff565b5f8261361957613619613033565b500490565b5f5160206138125f395f51905f5281525f5160206138925f395f51905f5260208201527f2f2f7777772e77332e6f72672f323030302f737667273e3c726563742077696460408201527f74683d27323930707827206865696768743d273530307078272066696c6c3d276060820152602360f81b60808201525f6136a56081830184611c7b565b6813979f1e17b9bb339f60b91b81526009019392505050565b5f5160206138125f395f51905f5281525f5160206138925f395f51905f5260208201527f2f2f7777772e77332e6f72672f323030302f737667273e3c636972636c652063604082015262783d2760e81b606082015260630190565b5f613726611cbe836136be565b65272063793d2760d01b815261373f6006820186611c7b565b9050722720723d273132307078272066696c6c3d272360681b81526137676013820185611c7b565b6813979f1e17b9bb339f60b91b81526009019695505050505050565b5f613790611cbe836136be565b65272063793d2760d01b81526137a96006820186611c7b565b9050722720723d273130307078272066696c6c3d272360681b81526137676013820185611c7b56fe203c616e696d6174652061646469746976653d2273756d22206174747269627565663d22646174613a696d6167652f7376672b786d6c3b6261736536342c00003c7376672077696474683d2732393027206865696768743d27353030272076693c67207374796c653d227472616e73666f726d3a7472616e736c6174652832326f3d22313030252220626567696e3d22307322206475723d223330732220726574654e616d653d2273746172744f6666736574222066726f6d3d2230252220746577426f783d2730203020323930203530302720786d6c6e733d27687474703a207374796c653d227472616e73666f726d3a7472616e736c6174652837327078a26469706673582212201aae4978eb5e7026cefa5e0ec21b56444414bd19d16c12ce793ff239d9e02b1964736f6c634300081e0033","linkReferences":{}},"methodIdentifiers":{"generateSVG(NFTSVG.SVGParams)":"f3f7b742"},"id":1105}