{"abi":[{"type":"function","name":"errBody_IERC165_supportsInterFace","inputs":[],"outputs":[{"name":"","type":"string","internalType":"string"}],"stateMutability":"pure"},{"type":"function","name":"funcSig_IERC165_supportsInterFace","inputs":[],"outputs":[{"name":"","type":"string","internalType":"string"}],"stateMutability":"pure"},{"type":"function","name":"hasValid_IERC165_supportsInterface","inputs":[{"name":"subject","type":"IERC165","internalType":"contract IERC165"}],"outputs":[{"name":"isValid_","type":"bool","internalType":"bool"}],"stateMutability":"view"},{"type":"function","name":"isValid_IERC165_supportsInterfaces","inputs":[{"name":"subjectLabel","type":"string","internalType":"string"},{"name":"expected","type":"bool","internalType":"bool"},{"name":"actual","type":"bool","internalType":"bool"}],"outputs":[{"name":"isValid","type":"bool","internalType":"bool"}],"stateMutability":"pure"},{"type":"function","name":"isValid_IERC165_supportsInterfaces","inputs":[{"name":"subject","type":"IERC165","internalType":"contract IERC165"},{"name":"expected","type":"bool","internalType":"bool"},{"name":"actual","type":"bool","internalType":"bool"}],"outputs":[{"name":"valid","type":"bool","internalType":"bool"}],"stateMutability":"view"},{"type":"error","name":"IndexOutOfBounds","inputs":[{"name":"length","type":"uint256","internalType":"uint256"},{"name":"invalidIndex","type":"uint256","internalType":"uint256"},{"name":"errorCode","type":"uint256","internalType":"uint256"}]}],"bytecode":{"object":"0x611889610034600b8282823980515f1a607314602857634e487b7160e01b5f525f60045260245ffd5b305f52607381538281f3fe730000000000000000000000000000000000000000301460806040526004361061006b575f3560e01c8063579d24f91461006f578063641c1f3814610097578063afc9bb30146100ac578063b92423a2146100b4578063c970f5f7146100c7578063e216ce5d146100e8575b5f5ffd5b61008261007d366004610fe6565b6100fb565b60405190151581526020015b60405180910390f35b61009f6103c7565b60405161008e91906110b3565b61009f6103fb565b6100826100c23660046110e7565b61042e565b8180156100d2575f5ffd5b506100e66100e1366004611100565b6107e5565b005b6100826100f63660046111d1565b610963565b5f73__$6733481873bfefcce6891d74f60ba0cf99$__637965c50161011e6109f4565b6040518263ffffffff1660e01b815260040161013a9190611237565b5f6040518083038186803b158015610150575f5ffd5b505af4158015610162573d5f5f3e3d5ffd5b50505050811515831515149050806102ea5773__$6733481873bfefcce6891d74f60ba0cf99$__63967677df6101966109f4565b61019f87610a1e565b6101a76103c7565b6040518463ffffffff1660e01b81526004016101c59392919061125a565b5f6040518083038186803b1580156101db575f5ffd5b505af41580156101ed573d5f5f3e3d5ffd5b5050505073__$6733481873bfefcce6891d74f60ba0cf99$__63e3feae876102136109f4565b8561023b576040518060400160405280600581526020016466616c736560d81b815250610259565b604051806040016040528060048152602001637472756560e01b8152505b85610281576040518060400160405280600581526020016466616c736560d81b81525061029f565b604051806040016040528060048152602001637472756560e01b8152505b6040518463ffffffff1660e01b81526004016102bd939291906112d3565b5f6040518083038186803b1580156102d3575f5ffd5b505af41580156102e5573d5f5f3e3d5ffd5b505050505b73__$6733481873bfefcce6891d74f60ba0cf99$__6355444d4061030c6109f4565b836040518363ffffffff1660e01b815260040161032a929190611331565b5f6040518083038186803b158015610340575f5ffd5b505af4158015610352573d5f5f3e3d5ffd5b5050505073__$6733481873bfefcce6891d74f60ba0cf99$__63738d4cc96103786109f4565b6040518263ffffffff1660e01b81526004016103949190611237565b5f6040518083038186803b1580156103aa575f5ffd5b505af41580156103bc573d5f5f3e3d5ffd5b505050509392505050565b60408051808201909152601a815279092dce8cae4ccc2c6ca40e6eae0e0dee4e840dad2e6dac2e8c6d60331b602082015290565b604080518082019091526019815278737570706f727473496e74657246616365286279746573342960381b602082015290565b5f73__$6733481873bfefcce6891d74f60ba0cf99$__637965c5016104516109f4565b6040518263ffffffff1660e01b815260040161046d91906113b4565b5f6040518083038186803b158015610483575f5ffd5b505af4158015610495573d5f5f3e3d5ffd5b50505050600190505f6104b16104aa84610a37565b6001015490565b905073__$6733481873bfefcce6891d74f60ba0cf99$__6355444d406104d56109f4565b5f84116040518363ffffffff1660e01b81526004016104f59291906113d7565b5f6040518083038186803b15801561050b575f5ffd5b505af415801561051d573d5f5f3e3d5ffd5b505f925050505b81811015610650575f6105408261053a87610a37565b90610a49565b90505f6105b4866001886001600160a01b03166301ffc9a7866040518263ffffffff1660e01b8152600401610575919061143f565b602060405180830381865afa158015610590573d5f5f3e3d5ffd5b505050506040513d601f19601f820116820180604052508101906100f69190611454565b90508061063a5773__$6733481873bfefcce6891d74f60ba0cf99$__63967677df6105dd6109f4565b6105f06001600160e01b03198616610a99565b6040518363ffffffff1660e01b815260040161060d92919061146f565b5f6040518083038186803b158015610623575f5ffd5b505af4158015610635573d5f5f3e3d5ffd5b505050505b8480156106445750805b94505050600101610524565b505f61068a845f866001600160a01b03166301ffc9a763ffffffff60e01b6040518263ffffffff1660e01b8152600401610575919061143f565b9050806106fc5773__$6733481873bfefcce6891d74f60ba0cf99$__63967677df6106b36109f4565b6040518263ffffffff1660e01b81526004016106cf91906114e1565b5f6040518083038186803b1580156106e5575f5ffd5b505af41580156106f7573d5f5f3e3d5ffd5b505050505b8280156107065750805b925073__$6733481873bfefcce6891d74f60ba0cf99$__6355444d4061072a6109f4565b856040518363ffffffff1660e01b81526004016107489291906115a2565b5f6040518083038186803b15801561075e575f5ffd5b505af4158015610770573d5f5f3e3d5ffd5b5050505073__$6733481873bfefcce6891d74f60ba0cf99$__63738d4cc96107966109f4565b6040518263ffffffff1660e01b81526004016107b291906113b4565b5f6040518083038186803b1580156107c8575f5ffd5b505af41580156107da573d5f5f3e3d5ffd5b505050505050919050565b73__$6733481873bfefcce6891d74f60ba0cf99$__637965c5016108076109f4565b6040518263ffffffff1660e01b81526004016108239190611630565b5f6040518083038186803b158015610839575f5ffd5b505af415801561084b573d5f5f3e3d5ffd5b5050505073__$6733481873bfefcce6891d74f60ba0cf99$__63ce9f60696108716109f4565b61087b8451610c1f565b60405160200161088b919061166a565b6040516020818303038152906040526040518363ffffffff1660e01b81526004016108b7929190611685565b5f6040518083038186803b1580156108cd575f5ffd5b505af41580156108df573d5f5f3e3d5ffd5b505050506108f5826301ffc9a760e01b83610d1b565b73__$6733481873bfefcce6891d74f60ba0cf99$__63738d4cc96109176109f4565b6040518263ffffffff1660e01b81526004016109339190611630565b5f6040518083038186803b158015610949575f5ffd5b505af415801561095b573d5f5f3e3d5ffd5b505050505050565b60405163028a249b60e41b81526001600160a01b03841660048201525f906109ec90737109709ecfa91a80626ff3989d68f67f5b1dd12d906328a249b0906024015f60405180830381865afa1580156109be573d5f5f3e3d5ffd5b505050506040513d5f823e601f3d908101601f191682016040526109e591908101906116e1565b84846100fb565b949350505050565b60408051808201909152601081526f4265686176696f725f4945524331363560801b602082015290565b6060610a31610a2b6103fb565b83610d6d565b92915050565b5f610a31826301ffc9a760e01b610da1565b60018201545f90610a5a9083610de8565b50826001018281548110610a7057610a70611755565b905f5260205f2090600891828204019190066004029054906101000a900460e01b905092915050565b60408051600a8082528183019092526060915f9190602082018180368337019050509050600360fc1b815f81518110610ad457610ad4611755565b60200101906001600160f81b03191690815f1a905350600f60fb1b81600181518110610b0257610b02611755565b60200101906001600160f81b03191690815f1a9053505f5b6004811015610c18575f848260048110610b3657610b36611755565b1a90506f181899199a1a9b1b9c1cb0b131b232b360811b600482901c60ff1660108110610b6557610b65611755565b1a60f81b83610b7584600261177d565b610b80906002611794565b81518110610b9057610b90611755565b60200101906001600160f81b03191690815f1a9053506f181899199a1a9b1b9c1cb0b131b232b360811b600f821660108110610bce57610bce611755565b1a60f81b83610bde84600261177d565b610be9906003611794565b81518110610bf957610bf9611755565b60200101906001600160f81b03191690815f1a90535050600101610b1a565b5092915050565b6060815f03610c455750506040805180820190915260018152600360fc1b602082015290565b815f5b8115610c6e5780610c58816117a7565b9150610c679050600a836117d3565b9150610c48565b5f816001600160401b03811115610c8757610c87610f6c565b6040519080825280601f01601f191660200182016040528015610cb1576020820181803683370190505b5090505b84156109ec57610cc66001836117e6565b9150610cd3600a866117f9565b610cde906030611794565b60f81b818381518110610cf357610cf3611755565b60200101906001600160f81b03191690815f1a905350610d14600a866117d3565b9450610cb5565b610d6881610d39610d34866001600160a01b0316610e27565b610e33565b6001600160a01b0386165f908152602091825260408082206001600160e01b0319881683529092522090610e92565b505050565b6060610d7883610ec8565b82604051602001610d8a92919061180c565b604051602081830303815290604052905092915050565b5f610db7610d34846001600160a01b0316610e27565b6001600160a01b0384165f908152602091825260408082206001600160e01b03198616835290925220905092915050565b5f818311610e1e57604051635400feb960e01b815260048101849052602481018390526032604482015260640160405180910390fd5b50600192915050565b6001600160a01b031690565b5f610a3160405180604001604052601781528060200176427974657334536574436f6d70617261746f725265706f60481b815250604051602001610e7791906110b3565b60405160208183030381529060405280519060200120831890565b5f5b8151811015610d6857610ec083838381518110610eb357610eb3611755565b6020026020010151610edb565b600101610e94565b6060610a31610ed56109f4565b83610f57565b6001600160e01b031981165f90815260208390526040902054610f53576001828101805491820181555f81815260208082206008850401805463ffffffff60079096166004026101000a958602191660e087901c959095029490941790935590546001600160e01b0319841682529184905260409020555b5050565b60608282604051602001610d8a929190611820565b634e487b7160e01b5f52604160045260245ffd5b604051601f8201601f191681016001600160401b0381118282101715610fa857610fa8610f6c565b604052919050565b5f6001600160401b03821115610fc857610fc8610f6c565b50601f01601f191660200190565b8015158114610fe3575f5ffd5b50565b5f5f5f60608486031215610ff8575f5ffd5b83356001600160401b0381111561100d575f5ffd5b8401601f8101861361101d575f5ffd5b803561103061102b82610fb0565b610f80565b818152876020838501011115611044575f5ffd5b816020840160208301375f60208383010152809550505050602084013561106a81610fd6565b9150604084013561107a81610fd6565b809150509250925092565b5f81518084528060208401602086015e5f602082860101526020601f19601f83011685010191505092915050565b602081525f6110c56020830184611085565b9392505050565b80356001600160a01b03811681146110e2575f5ffd5b919050565b5f602082840312156110f7575f5ffd5b6110c5826110cc565b5f5f60408385031215611111575f5ffd5b61111a836110cc565b915060208301356001600160401b03811115611134575f5ffd5b8301601f81018513611144575f5ffd5b80356001600160401b0381111561115d5761115d610f6c565b8060051b61116d60208201610f80565b91825260208184018101929081019088841115611188575f5ffd5b6020850194505b838510156111c257843592506001600160e01b0319831683146111b0575f5ffd5b8282526020948501949091019061118f565b80955050505050509250929050565b5f5f5f606084860312156111e3575f5ffd5b6111ec846110cc565b9250602084013561106a81610fd6565b602281527f697356616c69645f494552433136355f737570706f727473496e746572666163602082015261657360f01b604082015260600190565b604081525f6112496040830184611085565b82810360208401526109ec816111fc565b608081525f61126c6080830186611085565b828103602084015261127d816111fc565b905082810360408401526112918186611085565b905082810360608401526112a58185611085565b9695505050505050565b60118152701a5b9d195c999858d9481cdd5c1c1bdc9d607a1b602082015260400190565b60a081525f6112e560a0830186611085565b82810360208401526112f6816111fc565b90508281036040840152611309816112af565b9050828103606084015261131d8186611085565b905082810360808401526112a58185611085565b608081525f6113436080830185611085565b8281036020840152611354816111fc565b90508281036040840152611367816112af565b91505082151560608301529392505050565b602281527f68617356616c69645f494552433136355f737570706f727473496e7465726661602082015261636560f01b604082015260600190565b604081525f6113c66040830184611085565b82810360208401526109ec81611379565b608081525f6113e96080830185611085565b82810360208401526113fa81611379565b905082810360408401526018815277195e1c1958dd1959081a5b9d195c999858d94818dbdd5b9d60421b60208201526040810191505082151560608301529392505050565b6001600160e01b031991909116815260200190565b5f60208284031215611464575f5ffd5b81516110c581610fd6565b608081525f6114816080830185611085565b828103602084015261149281611379565b90508281038060408501526017825276125b9d195c999858d9481b9bdd081cdd5c1c1bdc9d1959604a1b6020830152604081016060850152506114d86040820185611085565b95945050505050565b608081525f6114f36080830184611085565b828103602084015261150481611379565b9050828103806040850152603082527f496e76616c696420696e7465726661636520307866666666666666662073686f60208301526f756c642072657475726e2066616c736560801b604083015260608101606085015250602360608201527f616c776179732d7472756520696d706c656d656e746174696f6e2064657465636080820152621d195960ea1b60a082015260c0810191505092915050565b608081525f6115b46080830185611085565b82810360208401526115c581611379565b90508281036040840152600e81526d616c6c20696e746572666163657360901b60208201526040810191505082151560608301529392505050565b60208082527f6578706563745f494552433136355f737570706f727473496e746572666163659082015260400190565b604081525f6116426040830184611085565b82810360208401526109ec81611600565b5f81518060208401855e5f93019283525090919050565b66031b7bab73a1d160cd1b81525f6110c56007830184611653565b608081525f6116976080830185611085565b82810360208401526116a881611600565b9050828103806040850152600a825269696e746572666163657360b01b6020830152604081016060850152506114d86040820185611085565b5f602082840312156116f1575f5ffd5b81516001600160401b03811115611706575f5ffd5b8201601f81018413611716575f5ffd5b805161172461102b82610fb0565b818152856020838501011115611738575f5ffd5b8160208401602083015e5f91810160200191909152949350505050565b634e487b7160e01b5f52603260045260245ffd5b634e487b7160e01b5f52601160045260245ffd5b8082028115828204841417610a3157610a31611769565b80820180821115610a3157610a31611769565b5f600182016117b8576117b8611769565b5060010190565b634e487b7160e01b5f52601260045260245ffd5b5f826117e1576117e16117bf565b500490565b81810381811115610a3157610a31611769565b5f82611807576118076117bf565b500690565b5f6109ec61181a8386611653565b84611653565b5f61182b8285611653565b601d60f91b815261183f6001820185611653565b611d1d60f11b81526002019594505050505056fea2646970667358221220d8ef4af888f95a2e5ef893db3c33ed11dd10f6a7946ec4de266fa571b0419bae64736f6c634300081e0033","linkReferences":{"contracts/utils/vm/foundry/tools/betterconsole.sol":{"betterconsole":[{"start":306,"length":20},{"start":426,"length":20},{"start":551,"length":20},{"start":800,"length":20},{"start":908,"length":20},{"start":1125,"length":20},{"start":1257,"length":20},{"start":1521,"length":20},{"start":1735,"length":20},{"start":1854,"length":20},{"start":1962,"length":20},{"start":2075,"length":20},{"start":2181,"length":20},{"start":2347,"length":20}]}}},"methodIdentifiers":{"errBody_IERC165_supportsInterFace()":"641c1f38","expect_IERC165_supportsInterface(IERC165,bytes4[])":"c970f5f7","funcSig_IERC165_supportsInterFace()":"afc9bb30","hasValid_IERC165_supportsInterface(IERC165)":"b92423a2","isValid_IERC165_supportsInterfaces(IERC165,bool,bool)":"e216ce5d","isValid_IERC165_supportsInterfaces(string,bool,bool)":"579d24f9"},"id":656}