{"abi":[{"type":"function","name":"DOMAIN_SEPARATOR","inputs":[],"outputs":[{"name":"","type":"bytes32","internalType":"bytes32"}],"stateMutability":"view"},{"type":"function","name":"allowance","inputs":[{"name":"","type":"address","internalType":"address"},{"name":"","type":"address","internalType":"address"},{"name":"","type":"address","internalType":"address"}],"outputs":[{"name":"amount","type":"uint160","internalType":"uint160"},{"name":"expiration","type":"uint48","internalType":"uint48"},{"name":"nonce","type":"uint48","internalType":"uint48"}],"stateMutability":"view"},{"type":"function","name":"approve","inputs":[{"name":"token","type":"address","internalType":"address"},{"name":"spender","type":"address","internalType":"address"},{"name":"amount","type":"uint160","internalType":"uint160"},{"name":"expiration","type":"uint48","internalType":"uint48"}],"outputs":[],"stateMutability":"nonpayable"},{"type":"function","name":"invalidateNonces","inputs":[{"name":"token","type":"address","internalType":"address"},{"name":"spender","type":"address","internalType":"address"},{"name":"newNonce","type":"uint48","internalType":"uint48"}],"outputs":[],"stateMutability":"nonpayable"},{"type":"function","name":"lockdown","inputs":[{"name":"approvals","type":"tuple[]","internalType":"struct IAllowanceTransfer.TokenSpenderPair[]","components":[{"name":"token","type":"address","internalType":"address"},{"name":"spender","type":"address","internalType":"address"}]}],"outputs":[],"stateMutability":"nonpayable"},{"type":"function","name":"permit","inputs":[{"name":"owner","type":"address","internalType":"address"},{"name":"permitBatch","type":"tuple","internalType":"struct IAllowanceTransfer.PermitBatch","components":[{"name":"details","type":"tuple[]","internalType":"struct IAllowanceTransfer.PermitDetails[]","components":[{"name":"token","type":"address","internalType":"address"},{"name":"amount","type":"uint160","internalType":"uint160"},{"name":"expiration","type":"uint48","internalType":"uint48"},{"name":"nonce","type":"uint48","internalType":"uint48"}]},{"name":"spender","type":"address","internalType":"address"},{"name":"sigDeadline","type":"uint256","internalType":"uint256"}]},{"name":"signature","type":"bytes","internalType":"bytes"}],"outputs":[],"stateMutability":"nonpayable"},{"type":"function","name":"permit","inputs":[{"name":"owner","type":"address","internalType":"address"},{"name":"permitSingle","type":"tuple","internalType":"struct IAllowanceTransfer.PermitSingle","components":[{"name":"details","type":"tuple","internalType":"struct IAllowanceTransfer.PermitDetails","components":[{"name":"token","type":"address","internalType":"address"},{"name":"amount","type":"uint160","internalType":"uint160"},{"name":"expiration","type":"uint48","internalType":"uint48"},{"name":"nonce","type":"uint48","internalType":"uint48"}]},{"name":"spender","type":"address","internalType":"address"},{"name":"sigDeadline","type":"uint256","internalType":"uint256"}]},{"name":"signature","type":"bytes","internalType":"bytes"}],"outputs":[],"stateMutability":"nonpayable"},{"type":"function","name":"transferFrom","inputs":[{"name":"transferDetails","type":"tuple[]","internalType":"struct IAllowanceTransfer.AllowanceTransferDetails[]","components":[{"name":"from","type":"address","internalType":"address"},{"name":"to","type":"address","internalType":"address"},{"name":"amount","type":"uint160","internalType":"uint160"},{"name":"token","type":"address","internalType":"address"}]}],"outputs":[],"stateMutability":"nonpayable"},{"type":"function","name":"transferFrom","inputs":[{"name":"from","type":"address","internalType":"address"},{"name":"to","type":"address","internalType":"address"},{"name":"amount","type":"uint160","internalType":"uint160"},{"name":"token","type":"address","internalType":"address"}],"outputs":[],"stateMutability":"nonpayable"},{"type":"event","name":"Approval","inputs":[{"name":"owner","type":"address","indexed":true,"internalType":"address"},{"name":"token","type":"address","indexed":true,"internalType":"address"},{"name":"spender","type":"address","indexed":true,"internalType":"address"},{"name":"amount","type":"uint160","indexed":false,"internalType":"uint160"},{"name":"expiration","type":"uint48","indexed":false,"internalType":"uint48"}],"anonymous":false},{"type":"event","name":"Lockdown","inputs":[{"name":"owner","type":"address","indexed":true,"internalType":"address"},{"name":"token","type":"address","indexed":false,"internalType":"address"},{"name":"spender","type":"address","indexed":false,"internalType":"address"}],"anonymous":false},{"type":"event","name":"NonceInvalidation","inputs":[{"name":"owner","type":"address","indexed":true,"internalType":"address"},{"name":"token","type":"address","indexed":true,"internalType":"address"},{"name":"spender","type":"address","indexed":true,"internalType":"address"},{"name":"newNonce","type":"uint48","indexed":false,"internalType":"uint48"},{"name":"oldNonce","type":"uint48","indexed":false,"internalType":"uint48"}],"anonymous":false},{"type":"event","name":"Permit","inputs":[{"name":"owner","type":"address","indexed":true,"internalType":"address"},{"name":"token","type":"address","indexed":true,"internalType":"address"},{"name":"spender","type":"address","indexed":true,"internalType":"address"},{"name":"amount","type":"uint160","indexed":false,"internalType":"uint160"},{"name":"expiration","type":"uint48","indexed":false,"internalType":"uint48"},{"name":"nonce","type":"uint48","indexed":false,"internalType":"uint48"}],"anonymous":false},{"type":"error","name":"AllowanceExpired","inputs":[{"name":"deadline","type":"uint256","internalType":"uint256"}]},{"type":"error","name":"ExcessiveInvalidation","inputs":[]},{"type":"error","name":"InsufficientAllowance","inputs":[{"name":"amount","type":"uint256","internalType":"uint256"}]},{"type":"error","name":"InvalidContractSignature","inputs":[]},{"type":"error","name":"InvalidNonce","inputs":[]},{"type":"error","name":"InvalidSignature","inputs":[]},{"type":"error","name":"InvalidSignatureLength","inputs":[]},{"type":"error","name":"InvalidSigner","inputs":[]},{"type":"error","name":"SignatureExpired","inputs":[{"name":"signatureDeadline","type":"uint256","internalType":"uint256"}]}],"bytecode":{"object":"0x60c060405234801561000f575f5ffd5b504660a05261005e7f8cad95687ba82c2ce50e74f7b754645e5117c3a5bec8151c0726d5857980a8667f9ac997416e8ff9d2ff6bebeb7149f65cdae5e32e2b90440b566bb3044041d36a610066565b6080526100ae565b60408051602081018490529081018290524660608201523060808201525f906100a79060a00160408051601f19818403018152919052805160209091012090565b9392505050565b60805160a0516114a36100cf5f395f6102d801525f61034f01526114a35ff3fe608060405234801561000f575f5ffd5b5060043610610081575f3560e01c80630d58b1db146100855780632a2d80d11461009a5780632b67b570146100ad5780633644e515146100c057806336c78516146100db57806365d9723c146100ee57806387517c4514610101578063927da10514610114578063cc53287f14610176575b5f5ffd5b610098610093366004610d7c565b610189565b005b6100986100a8366004610f5b565b6101e9565b6100986100bb366004611097565b610287565b6100c86102d5565b6040519081526020015b60405180910390f35b6100986100e9366004611119565b610371565b6100986100fc366004611172565b61037d565b61009861010f3660046111b6565b6104af565b61016761012236600461120d565b5f60208181529381526040808220855292815282812090935282529020546001600160a01b0381169065ffffffffffff600160a01b8204811691600160d01b90041683565b6040516100d293929190611255565b61009861018436600461127e565b610541565b805f5b818110156101e3575f8484838181106101a7576101a76112dd565b9050608002018036038101906101bd91906112f1565b90506101da815f015182602001518360400151846060015161062f565b5060010161018c565b50505050565b826040015142111561021f57826040015160405163cd21db4f60e01b815260040161021691815260200190565b60405180910390fd5b61023d61023361022e85610714565b610827565b839083908761085e565b60208301518351515f5b8181101561027e57610276865f01518281518110610267576102676112dd565b60200260200101518885610a72565b600101610247565b50505050505050565b82604001514211156102b457826040015160405163cd21db4f60e01b815260040161021691815260200190565b6102c361023361022e85610b52565b6101e3835f0151858560200151610a72565b5f7f0000000000000000000000000000000000000000000000000000000000000000461461034c576103477f8cad95687ba82c2ce50e74f7b754645e5117c3a5bec8151c0726d5857980a8667f9ac997416e8ff9d2ff6bebeb7149f65cdae5e32e2b90440b566bb3044041d36a610bab565b905090565b507f000000000000000000000000000000000000000000000000000000000000000090565b6101e38484848461062f565b335f908152602081815260408083206001600160a01b038781168552908352818420908616845290915290205465ffffffffffff600160d01b909104811690821681106103dd57604051633ab3447f60e11b815260040160405180910390fd5b80820361ffff65ffffffffffff8216111561040b57604051631269ad1360e11b815260040160405180910390fd5b50335f818152602081815260408083206001600160a01b03898116808652918452828520908916808652935292819020805465ffffffffffff8816600160d01b026001600160d01b03909116179055519092907f55eb90d810e1700b35a8e7e25395ff7f2b2259abd7415ca2284dfb1c246418f3906104a1908790879065ffffffffffff92831681529116602082015260400190565b60405180910390a450505050565b335f908152602081815260408083206001600160a01b038881168552908352818420908716845290915290206104e6818484610bd6565b604080516001600160a01b03858116825265ffffffffffff85166020830152808716929088169133917fda9fa7c1b00402c17d0161b249b1ab8bbec047c5a52207b9c112deffd817036b910160405180910390a45050505050565b33815f5b81811015610628575f858583818110610560576105606112dd565b6105769260206040909202019081019150611358565b90505f86868481811061058b5761058b6112dd565b90506040020160200160208101906105a39190611358565b6001600160a01b038681165f818152602081815260408083208886168085529083528184209587168085529583529281902080546001600160a01b0319169055805192835290820193909352929350917f89b1add15eff56b3dfe299ad94e01f2b52fbcb80ae1a3baea6ae8c04cb2b98a4910160405180910390a25050600101610545565b5050505050565b6001600160a01b038481165f9081526020818152604080832093851683529281528282203383529052208054600160a01b900465ffffffffffff1642111561069d578054604051636c0d979760e11b8152600160a01b90910465ffffffffffff166004820152602401610216565b80546001600160a01b039081169081146106fa5780846001600160a01b031611156106de5760405163f96fb07160e01b815260048101829052602401610216565b81546001600160a01b0319168482036001600160a01b03161782555b61027e6001600160a01b0384811690889088908816610c2d565b8051515f9081816001600160401b0381111561073257610732610e12565b60405190808252806020026020018201604052801561075b578160200160208202803683370190505b5090505f5b828110156107b25761078d855f01518281518110610780576107806112dd565b6020026020010151610c4e565b82828151811061079f5761079f6112dd565b6020908102919091010152600101610760565b5061081f7faf1b0d30d2cab0380e68f0689007e3254993c596f2fdd0aaa7f4d04f79440863610805836040516020016107eb9190611373565b604051602081830303815290604052805160209091012090565b6020808801516040808a015190516107eb959493016113a8565b949350505050565b5f6108586108336102d5565b60405161190160f01b60208201526022810191909152604281018490526062016107eb565b92915050565b5f5f5f836001600160a01b03163b5f036109c45760418690036108b057610887868801886113cc565b90935091508686604081811061089f5761089f6112dd565b919091013560f81c91506109079050565b60408690036108ee575f6108c6878901896113cc565b9094506001600160ff1b038116935090506108e660ff82901c601b6113ec565b915050610907565b604051634be6321b60e01b815260040160405180910390fd5b604080515f8082526020820180845288905260ff841692820192909252606081018590526080810184905260019060a0016020604051602081039080840390855afa158015610958573d5f5f3e3d5ffd5b5050604051601f1901519150506001600160a01b03811661098c57604051638baa579f60e01b815260040160405180910390fd5b846001600160a01b0316816001600160a01b0316146109be57604051632057875960e21b815260040160405180910390fd5b5061027e565b604051630b135d3f60e11b81525f906001600160a01b03861690631626ba7e906109f69089908c908c90600401611411565b602060405180830381865afa158015610a11573d5f5f3e3d5ffd5b505050506040513d601f19601f82011682018060405250810190610a359190611446565b90506001600160e01b03198116630b135d3f60e11b14610a6857604051632c19a72f60e21b815260040160405180910390fd5b5050505050505050565b606083015183516020808601516040808801516001600160a01b038881165f90815280865283812082881682528652838120918916815294529220805491929165ffffffffffff808716600160d01b9092041614610ae357604051633ab3447f60e11b815260040160405180910390fd5b610aef81848488610cc8565b856001600160a01b0316846001600160a01b0316886001600160a01b03167fc6a377bfc4eb120024a8ac08eef205be16b817020812c73223e81d1bdb9708ec86868a604051610b4093929190611255565b60405180910390a45050505050505050565b5f5f610b60835f0151610c4e565b9050610ba47ff3841cd1ff0085026a6327b620b67997ce40f282c88a8e905a7a5626e310f3d082856020015186604001516040516020016107eb94939291906113a8565b9392505050565b60408051602081018490529081018290524660608201523060808201525f90610ba49060a0016107eb565b65ffffffffffff811615610bea5780610bec565b425b83546001600160d01b031916600160a01b65ffffffffffff92909216919091026001600160a01b031916176001600160a01b03929092169190911790915550565b5f610c436001600160a01b038616858585610d1c565b506001949350505050565b604080517f65626cad6cb96493bf6f5ebea28756c966f023ab9e8a83a7101849d5573b367860208083019190915283516001600160a01b039081168385015290840151166060808301919091529183015165ffffffffffff90811660808301529183015190911660a08201525f906108589060c0016107eb565b600181015f65ffffffffffff841615610ce15783610ce3565b425b90505f6001600160a01b03861660a083901b65ffffffffffff60a01b1660d085901b6001600160d01b0319161717909655505050505050565b6101e38484848460405181606052826040528360601b602c526323b872dd60601b600c5260205f6064601c5f895af18060015f511416610d6e57803d873b151710610d6e57637939f4245f526004601cfd5b505f60605260405250505050565b5f5f60208385031215610d8d575f5ffd5b82356001600160401b03811115610da2575f5ffd5b8301601f81018513610db2575f5ffd5b80356001600160401b03811115610dc7575f5ffd5b8560208260071b8401011115610ddb575f5ffd5b6020919091019590945092505050565b6001600160a01b0381168114610dff575f5ffd5b50565b8035610e0d81610deb565b919050565b634e487b7160e01b5f52604160045260245ffd5b604051608081016001600160401b0381118282101715610e4857610e48610e12565b60405290565b604051606081016001600160401b0381118282101715610e4857610e48610e12565b604051601f8201601f191681016001600160401b0381118282101715610e9857610e98610e12565b604052919050565b803565ffffffffffff81168114610e0d575f5ffd5b5f60808284031215610ec5575f5ffd5b610ecd610e26565b90508135610eda81610deb565b81526020820135610eea81610deb565b6020820152610efb60408301610ea0565b6040820152610f0c60608301610ea0565b606082015292915050565b5f5f83601f840112610f27575f5ffd5b5081356001600160401b03811115610f3d575f5ffd5b602083019150836020828501011115610f54575f5ffd5b9250929050565b5f5f5f5f60608587031215610f6e575f5ffd5b8435610f7981610deb565b935060208501356001600160401b03811115610f93575f5ffd5b850160608188031215610fa4575f5ffd5b610fac610e4e565b81356001600160401b03811115610fc1575f5ffd5b8201601f81018913610fd1575f5ffd5b80356001600160401b03811115610fea57610fea610e12565b610ff960208260051b01610e70565b8082825260208201915060208360071b85010192508b83111561101a575f5ffd5b6020840193505b82841015611046576110338c85610eb5565b8252602082019150608084019350611021565b84525061105891505060208301610e02565b60208201526040918201358282015293508501356001600160401b0381111561107f575f5ffd5b61108b87828801610f17565b95989497509550505050565b5f5f5f5f8486036101008112156110ac575f5ffd5b85356110b781610deb565b945060c0601f19820112156110ca575f5ffd5b506110d3610e4e565b6110e08760208801610eb5565b815260a08601356110f081610deb565b602082015260c08601356040820152925060e08501356001600160401b0381111561107f575f5ffd5b5f5f5f5f6080858703121561112c575f5ffd5b843561113781610deb565b9350602085013561114781610deb565b9250604085013561115781610deb565b9150606085013561116781610deb565b939692955090935050565b5f5f5f60608486031215611184575f5ffd5b833561118f81610deb565b9250602084013561119f81610deb565b91506111ad60408501610ea0565b90509250925092565b5f5f5f5f608085870312156111c9575f5ffd5b84356111d481610deb565b935060208501356111e481610deb565b925060408501356111f481610deb565b915061120260608601610ea0565b905092959194509250565b5f5f5f6060848603121561121f575f5ffd5b833561122a81610deb565b9250602084013561123a81610deb565b9150604084013561124a81610deb565b809150509250925092565b6001600160a01b0393909316835265ffffffffffff918216602084015216604082015260600190565b5f5f6020838503121561128f575f5ffd5b82356001600160401b038111156112a4575f5ffd5b8301601f810185136112b4575f5ffd5b80356001600160401b038111156112c9575f5ffd5b8560208260061b8401011115610ddb575f5ffd5b634e487b7160e01b5f52603260045260245ffd5b5f6080828403128015611302575f5ffd5b5061130b610e26565b823561131681610deb565b8152602083013561132681610deb565b6020820152604083013561133981610deb565b6040820152606083013561134c81610deb565b60608201529392505050565b5f60208284031215611368575f5ffd5b8135610ba481610deb565b81515f90829060208501835b8281101561139d57815184526020938401939091019060010161137f565b509195945050505050565b93845260208401929092526001600160a01b03166040830152606082015260800190565b5f5f604083850312156113dd575f5ffd5b50508035926020909101359150565b60ff818116838216019081111561085857634e487b7160e01b5f52601160045260245ffd5b83815260406020820152816040820152818360608301375f818301606090810191909152601f909201601f1916010192915050565b5f60208284031215611456575f5ffd5b81516001600160e01b031981168114610ba4575f5ffdfea264697066735822122014622177bdb0ff92a2bb5b756b8df187562cde5c68d4fdc6decb839445605f0764736f6c634300081e0033","linkReferences":{}},"methodIdentifiers":{"DOMAIN_SEPARATOR()":"3644e515","allowance(address,address,address)":"927da105","approve(address,address,uint160,uint48)":"87517c45","invalidateNonces(address,address,uint48)":"65d9723c","lockdown((address,address)[])":"cc53287f","permit(address,((address,uint160,uint48,uint48),address,uint256),bytes)":"2b67b570","permit(address,((address,uint160,uint48,uint48)[],address,uint256),bytes)":"2a2d80d1","transferFrom((address,address,uint160,address)[])":"0d58b1db","transferFrom(address,address,uint160,address)":"36c78516"},"id":1248}