{"abi":[{"type":"function","name":"createGauge","inputs":[{"name":"_forwarder","type":"address","internalType":"address"},{"name":"_pool","type":"address","internalType":"address"},{"name":"_feesVotingReward","type":"address","internalType":"address"},{"name":"_rewardToken","type":"address","internalType":"address"},{"name":"isPool","type":"bool","internalType":"bool"}],"outputs":[{"name":"gauge","type":"address","internalType":"address"}],"stateMutability":"nonpayable"}],"bytecode":{"object":"0x6080604052348015600e575f5ffd5b506119b38061001c5f395ff3fe608060405234801561000f575f5ffd5b5060043610610029575f3560e01c80638a983e541461002d575b5f5ffd5b61004061003b3660046100f3565b61005c565b6040516001600160a01b03909116815260200160405180910390f35b5f85858585338660405161006f906100cb565b6001600160a01b039687168152948616602086015292851660408501529084166060840152909216608082015290151560a082015260c001604051809103905ff0801580156100c0573d5f5f3e3d5ffd5b509695505050505050565b6118218061015d83390190565b80356001600160a01b03811681146100ee575f5ffd5b919050565b5f5f5f5f5f60a08688031215610107575f5ffd5b610110866100d8565b945061011e602087016100d8565b935061012c604087016100d8565b925061013a606087016100d8565b91506080860135801515811461014e575f5ffd5b80915050929550929590935056fe610160604052348015610010575f5ffd5b5060405161182138038061182183398101604081905261002f916100ef565b6001600160a01b0380871660805285811660a05284811660e05283811660c05282166101008190528115156101405260408051630fc2838b60e11b81529051631f850716916004808201926020929091908290030181865afa158015610097573d5f5f3e3d5ffd5b505050506040513d601f19601f820116820180604052508101906100bb9190610167565b6001600160a01b03166101205250610187945050505050565b80516001600160a01b03811681146100ea575f5ffd5b919050565b5f5f5f5f5f5f60c08789031215610104575f5ffd5b61010d876100d4565b955061011b602088016100d4565b9450610129604088016100d4565b9350610137606088016100d4565b9250610145608088016100d4565b915060a08701518015158114610159575f5ffd5b809150509295509295509295565b5f60208284031215610177575f5ffd5b610180826100d4565b9392505050565b60805160a05160c05160e0516101005161012051610140516115d261024f5f395f818161039d0152610a7f01525f81816101ef01526108f101525f818161023e015281816105db01528181610744015261106501525f81816101aa01528181610c0601528181610c4201528181610ccf0152610d0b01525f81816103cc015281816107dd01528181610e0d01528181610e760152610f0c01525f81816102c30152818161052901528181610aac01528181610b67015261111701525f6106a301526115d25ff3fe608060405234801561000f575f5ffd5b506004361061015c575f3560e01c80628cc262146101605780630700037d146101865780630fe2f711146101a557806316e64048146101d957806318160ddd146101e15780631f850716146101ea5780632e1a7d4d146102115780633c6b16ab1461022657806346c96aac146102395780634c02a21c14610260578063572b6c05146102695780636e553f651461028c57806370a082311461029f57806372f702f3146102be5780637b0a47ee146102e55780637da0a877146102ee57806380faa57d146102f65780638b876347146102fe57806393f1c4421461031d57806394af5b6314610326578063b6b55f2514610345578063c00007b014610358578063c8f33c911461036b578063cd3daf9d14610374578063dcdc18dc1461037c578063df136d651461038f578063e2e1c6db14610398578063ebe2b12b146103bf578063f7c618c1146103c7575b5f5ffd5b61017361016e366004611399565b6103ee565b6040519081526020015b60405180910390f35b610173610194366004611399565b60076020525f908152604090205481565b6101cc7f000000000000000000000000000000000000000000000000000000000000000081565b60405161017d91906113bb565b610173610469565b61017360045481565b6101cc7f000000000000000000000000000000000000000000000000000000000000000081565b61022461021f3660046113cf565b61049b565b005b6102246102343660046113cf565b6105a4565b6101cc7f000000000000000000000000000000000000000000000000000000000000000081565b610173600a5481565b61027c610277366004611399565b61066f565b604051901515815260200161017d565b61022461029a3660046113e6565b610693565b6101736102ad366004611399565b60056020525f908152604090205481565b6101cc7f000000000000000000000000000000000000000000000000000000000000000081565b61017360015481565b6101cc6106a1565b6101736106c5565b61017361030c366004611399565b60066020525f908152604090205481565b61017360095481565b6101736103343660046113cf565b60086020525f908152604090205481565b6102246103533660046113cf565b6106dc565b610224610366366004611399565b6106f0565b61017360025481565b61017361085a565b61022461038a3660046113cf565b6108ba565b61017360035481565b61027c7f000000000000000000000000000000000000000000000000000000000000000081565b6101735f5481565b6101cc7f000000000000000000000000000000000000000000000000000000000000000081565b6001600160a01b0381165f908152600760209081526040808320546006909252822054670de0b6b3a76400009061042361085a565b61042d9190611428565b6001600160a01b0385165f9081526005602052604090205461044f919061143b565b6104599190611452565b6104639190611471565b92915050565b5f5f54421061047757505f90565b5f425f546104859190611428565b905060015481610495919061143b565b91505090565b3068929eee149b4bd2126854036104b95763ab143c065f526004601cfd5b3068929eee149b4bd21268555f6104ce6109ca565b90506104d981610a10565b8160045f8282546104ea9190611428565b90915550506001600160a01b0381165f9081526005602052604081208054849290610516908490611428565b9091555061055090506001600160a01b037f0000000000000000000000000000000000000000000000000000000000000000168284610a5c565b50806001600160a01b03167f884edad9ce6fa2440d8a54cc123490eb96d2768479d49ff9c7366125a94243648360405161058c91815260200190565b60405180910390a2503868929eee149b4bd212685550565b3068929eee149b4bd2126854036105c25763ab143c065f526004601cfd5b3068929eee149b4bd21268555f6105d76109ca565b90507f00000000000000000000000000000000000000000000000000000000000000006001600160a01b0316816001600160a01b03161461062b5760405163c18384c160e01b815260040160405180910390fd5b815f0361064b57604051631f2a200560e01b815260040160405180910390fd5b610653610a7b565b505061065f8183610dd6565b503868929eee149b4bd212685550565b5f6106786106a1565b6001600160a01b0316826001600160a01b0316149050919050565b61069d8282611004565b5050565b7f000000000000000000000000000000000000000000000000000000000000000090565b5f6106d7425f54818118908211021890565b905090565b6106ed816106e86109ca565b611004565b50565b3068929eee149b4bd21268540361070e5763ab143c065f526004601cfd5b3068929eee149b4bd21268555f6107236109ca565b9050816001600160a01b0316816001600160a01b03161415801561077957507f00000000000000000000000000000000000000000000000000000000000000006001600160a01b0316816001600160a01b031614155b156107975760405163ea8e4eb560e01b815260040160405180910390fd5b6107a082610a10565b6001600160a01b0382165f908152600760205260409020548015610849576001600160a01b038084165f90815260076020526040812055610804907f0000000000000000000000000000000000000000000000000000000000000000168483610a5c565b50826001600160a01b03167f1f89f96333d3133000ee447473151fa9606543368f02271c9d95ae14f13bcc678260405161084091815260200190565b60405180910390a25b50503868929eee149b4bd212685550565b5f6004545f0361086b575060035490565b600454670de0b6b3a76400006001546002546108856106c5565b61088f9190611428565b610899919061143b565b6108a3919061143b565b6108ad9190611452565b6003546106d79190611471565b3068929eee149b4bd2126854036108d85763ab143c065f526004601cfd5b3068929eee149b4bd21268555f6108ed6109ca565b90507f00000000000000000000000000000000000000000000000000000000000000006001600160a01b03166385f2aef26040518163ffffffff1660e01b8152600401602060405180830381865afa15801561094b573d5f5f3e3d5ffd5b505050506040513d601f19601f8201168201806040525081019061096f9190611484565b6001600160a01b0316816001600160a01b0316146109a057604051633a7cfa5d60e21b815260040160405180910390fd5b815f036109c057604051631f2a200560e01b815260040160405180910390fd5b61065f8183610dd6565b5f3660148082108015906109e257506109e23361066f565b15610a08576109f536828403815f61149f565b6109fe916114c6565b60601c9250505090565b339250505090565b610a1861085a565b600355610a236106c5565b600255610a2f816103ee565b6001600160a01b039091165f90815260076020908152604080832093909355600354600690915291902055565b5f610a716001600160a01b03851684846111e2565b5060019392505050565b5f5f7f0000000000000000000000000000000000000000000000000000000000000000610aaa57505f91829150565b7f00000000000000000000000000000000000000000000000000000000000000006001600160a01b031663d294f0936040518163ffffffff1660e01b815260040160408051808303815f875af1158015610b06573d5f5f3e3d5ffd5b505050506040513d601f19601f82011682018060405250810190610b2a91906114fe565b909250905081151580610b3c57505f81115b15610dd2575f82600954610b509190611471565b90505f82600a54610b619190611471565b90505f5f7f00000000000000000000000000000000000000000000000000000000000000006001600160a01b0316639d63848a6040518163ffffffff1660e01b81526004016040805180830381865afa158015610bc0573d5f5f3e3d5ffd5b505050506040513d601f19601f82011682018060405250810190610be49190611520565b9150915062093a80841115610cab575f600955610c2b6001600160a01b0383167f0000000000000000000000000000000000000000000000000000000000000000866111f2565b60405163b66503cf60e01b81526001600160a01b037f0000000000000000000000000000000000000000000000000000000000000000169063b66503cf90610c79908590889060040161154d565b5f604051808303815f87803b158015610c90575f5ffd5b505af1158015610ca2573d5f5f3e3d5ffd5b50505050610cb1565b60098490555b62093a80831115610d74575f600a55610cf46001600160a01b0382167f0000000000000000000000000000000000000000000000000000000000000000856111f2565b60405163b66503cf60e01b81526001600160a01b037f0000000000000000000000000000000000000000000000000000000000000000169063b66503cf90610d42908490879060040161154d565b5f604051808303815f87803b158015610d59575f5ffd5b505af1158015610d6b573d5f5f3e3d5ffd5b50505050610d7a565b600a8390555b610d826109ca565b6001600160a01b03167fbc567d6cbad26368064baa0ab5a757be46aae4d70f707f9203d9d9b6c8ccbfa38787604051610dc5929190918252602082015260400190565b60405180910390a2505050505b9091565b610dde61085a565b600355425f610df68262093a80808206820301611428565b90505f548210610e4857610e356001600160a01b037f000000000000000000000000000000000000000000000000000000000000000016853086611248565b50610e408184611452565b600155610eba565b5f825f54610e569190611428565b90505f60015482610e67919061143b565b9050610e9e6001600160a01b037f000000000000000000000000000000000000000000000000000000000000000016873088611248565b5082610eaa8287611471565b610eb49190611452565b60015550505b60015462093a80830683035f90815260086020526040812082905503610ef3576040516307ced7af60e01b815260040160405180910390fd5b6040516370a0823160e01b81525f906001600160a01b037f000000000000000000000000000000000000000000000000000000000000000016906370a0823190610f419030906004016113bb565b602060405180830381865afa158015610f5c573d5f5f3e3d5ffd5b505050506040513d601f19601f82011682018060405250810190610f809190611566565b9050610f8c8282611452565b6001541115610fae57604051633c6be1b360e01b815260040160405180910390fd5b6002839055610fbd8284611471565b5f556040518481526001600160a01b038616907f095667752957714306e1a6ad83495404412df6fdb932fca6dc849a7ee910d4c19060200160405180910390a25050505050565b3068929eee149b4bd2126854036110225763ab143c065f526004601cfd5b3068929eee149b4bd2126855815f0361104e57604051631f2a200560e01b815260040160405180910390fd5b604051631703e5f960e01b81526001600160a01b037f00000000000000000000000000000000000000000000000000000000000000001690631703e5f99061109a9030906004016113bb565b602060405180830381865afa1580156110b5573d5f5f3e3d5ffd5b505050506040513d601f19601f820116820180604052508101906110d9919061157d565b6110f6576040516310f3d9c960e01b815260040160405180910390fd5b5f6110ff6109ca565b905061110a82610a10565b61113f6001600160a01b037f000000000000000000000000000000000000000000000000000000000000000016823086611248565b508260045f8282546111519190611471565b90915550506001600160a01b0382165f908152600560205260408120805485929061117d908490611471565b92505081905550816001600160a01b0316816001600160a01b03167f5548c837ab068cf56a2c2479df0882a4922fd203edb7517321831d95078c5f62856040516111c991815260200190565b60405180910390a3503868929eee149b4bd21268555050565b6111ed838383611269565b505050565b6111ed8363095ea7b360e01b848460405160240161121192919061154d565b60408051601f198184030181529190526020810180516001600160e01b03166001600160e01b0319909316929092179091526112b3565b5f61125e6001600160a01b038616858585611325565b506001949350505050565b816014528060345263a9059cbb60601b5f5260205f604460105f875af18060015f5114166112a957803d853b1517106112a9576390b8ec185f526004601cfd5b505f603452505050565b5f5f60205f8451602086015f885af1806112d2576040513d5f823e3d81fd5b50505f513d915081156112e95780600114156112f6565b6001600160a01b0384163b155b1561131f5783604051635274afe760e01b815260040161131691906113bb565b60405180910390fd5b50505050565b61131f8484848460405181606052826040528360601b602c526323b872dd60601b600c5260205f6064601c5f895af18060015f51141661137757803d873b15171061137757637939f4245f526004601cfd5b505f60605260405250505050565b6001600160a01b03811681146106ed575f5ffd5b5f602082840312156113a9575f5ffd5b81356113b481611385565b9392505050565b6001600160a01b0391909116815260200190565b5f602082840312156113df575f5ffd5b5035919050565b5f5f604083850312156113f7575f5ffd5b82359150602083013561140981611385565b809150509250929050565b634e487b7160e01b5f52601160045260245ffd5b8181038181111561046357610463611414565b808202811582820484141761046357610463611414565b5f8261146c57634e487b7160e01b5f52601260045260245ffd5b500490565b8082018082111561046357610463611414565b5f60208284031215611494575f5ffd5b81516113b481611385565b5f5f858511156114ad575f5ffd5b838611156114b9575f5ffd5b5050820193919092039150565b80356001600160601b031981169060148410156114f7576001600160601b0319601485900360031b81901b82161691505b5092915050565b5f5f6040838503121561150f575f5ffd5b505080516020909101519092909150565b5f5f60408385031215611531575f5ffd5b825161153c81611385565b602084015190925061140981611385565b6001600160a01b03929092168252602082015260400190565b5f60208284031215611576575f5ffd5b5051919050565b5f6020828403121561158d575f5ffd5b815180151581146113b4575f5ffdfea264697066735822122038a256f233a2b60bc3c39637b8955e6912d78071c63e388d296c4591a92492a164736f6c634300081e0033a2646970667358221220cb4c5cf44635b56f1eed55f926e2fe14cdb34560ce13879459be7d9bf538201564736f6c634300081e0033","linkReferences":{}},"methodIdentifiers":{"createGauge(address,address,address,address,bool)":"8a983e54"},"id":823}