{"abi":[{"type":"constructor","inputs":[{"name":"params","type":"tuple","internalType":"struct IGyro2CLPPool.GyroParams","components":[{"name":"name","type":"string","internalType":"string"},{"name":"symbol","type":"string","internalType":"string"},{"name":"sqrtAlpha","type":"uint256","internalType":"uint256"},{"name":"sqrtBeta","type":"uint256","internalType":"uint256"},{"name":"version","type":"string","internalType":"string"}]},{"name":"vault","type":"address","internalType":"contract IVault"}],"stateMutability":"nonpayable"},{"type":"function","name":"DOMAIN_SEPARATOR","inputs":[],"outputs":[{"name":"","type":"bytes32","internalType":"bytes32"}],"stateMutability":"view"},{"type":"function","name":"PERMIT_TYPEHASH","inputs":[],"outputs":[{"name":"","type":"bytes32","internalType":"bytes32"}],"stateMutability":"view"},{"type":"function","name":"allowance","inputs":[{"name":"owner","type":"address","internalType":"address"},{"name":"spender","type":"address","internalType":"address"}],"outputs":[{"name":"","type":"uint256","internalType":"uint256"}],"stateMutability":"view"},{"type":"function","name":"approve","inputs":[{"name":"spender","type":"address","internalType":"address"},{"name":"amount","type":"uint256","internalType":"uint256"}],"outputs":[{"name":"","type":"bool","internalType":"bool"}],"stateMutability":"nonpayable"},{"type":"function","name":"balanceOf","inputs":[{"name":"account","type":"address","internalType":"address"}],"outputs":[{"name":"","type":"uint256","internalType":"uint256"}],"stateMutability":"view"},{"type":"function","name":"computeBalance","inputs":[{"name":"balancesLiveScaled18","type":"uint256[]","internalType":"uint256[]"},{"name":"tokenInIndex","type":"uint256","internalType":"uint256"},{"name":"invariantRatio","type":"uint256","internalType":"uint256"}],"outputs":[{"name":"newBalance","type":"uint256","internalType":"uint256"}],"stateMutability":"view"},{"type":"function","name":"computeInvariant","inputs":[{"name":"balancesLiveScaled18","type":"uint256[]","internalType":"uint256[]"},{"name":"rounding","type":"uint8","internalType":"enum Rounding"}],"outputs":[{"name":"","type":"uint256","internalType":"uint256"}],"stateMutability":"view"},{"type":"function","name":"decimals","inputs":[],"outputs":[{"name":"","type":"uint8","internalType":"uint8"}],"stateMutability":"pure"},{"type":"function","name":"eip712Domain","inputs":[],"outputs":[{"name":"fields","type":"bytes1","internalType":"bytes1"},{"name":"name","type":"string","internalType":"string"},{"name":"version","type":"string","internalType":"string"},{"name":"chainId","type":"uint256","internalType":"uint256"},{"name":"verifyingContract","type":"address","internalType":"address"},{"name":"salt","type":"bytes32","internalType":"bytes32"},{"name":"extensions","type":"uint256[]","internalType":"uint256[]"}],"stateMutability":"view"},{"type":"function","name":"emitApproval","inputs":[{"name":"owner","type":"address","internalType":"address"},{"name":"spender","type":"address","internalType":"address"},{"name":"amount","type":"uint256","internalType":"uint256"}],"outputs":[],"stateMutability":"nonpayable"},{"type":"function","name":"emitTransfer","inputs":[{"name":"from","type":"address","internalType":"address"},{"name":"to","type":"address","internalType":"address"},{"name":"amount","type":"uint256","internalType":"uint256"}],"outputs":[],"stateMutability":"nonpayable"},{"type":"function","name":"getAggregateFeePercentages","inputs":[],"outputs":[{"name":"aggregateSwapFeePercentage","type":"uint256","internalType":"uint256"},{"name":"aggregateYieldFeePercentage","type":"uint256","internalType":"uint256"}],"stateMutability":"view"},{"type":"function","name":"getCurrentLiveBalances","inputs":[],"outputs":[{"name":"balancesLiveScaled18","type":"uint256[]","internalType":"uint256[]"}],"stateMutability":"view"},{"type":"function","name":"getGyro2CLPPoolDynamicData","inputs":[],"outputs":[{"name":"data","type":"tuple","internalType":"struct Gyro2CLPPoolDynamicData","components":[{"name":"balancesLiveScaled18","type":"uint256[]","internalType":"uint256[]"},{"name":"tokenRates","type":"uint256[]","internalType":"uint256[]"},{"name":"staticSwapFeePercentage","type":"uint256","internalType":"uint256"},{"name":"totalSupply","type":"uint256","internalType":"uint256"},{"name":"bptRate","type":"uint256","internalType":"uint256"},{"name":"isPoolInitialized","type":"bool","internalType":"bool"},{"name":"isPoolPaused","type":"bool","internalType":"bool"},{"name":"isPoolInRecoveryMode","type":"bool","internalType":"bool"}]}],"stateMutability":"view"},{"type":"function","name":"getGyro2CLPPoolImmutableData","inputs":[],"outputs":[{"name":"data","type":"tuple","internalType":"struct Gyro2CLPPoolImmutableData","components":[{"name":"tokens","type":"address[]","internalType":"contract IERC20[]"},{"name":"decimalScalingFactors","type":"uint256[]","internalType":"uint256[]"},{"name":"sqrtAlpha","type":"uint256","internalType":"uint256"},{"name":"sqrtBeta","type":"uint256","internalType":"uint256"}]}],"stateMutability":"view"},{"type":"function","name":"getMaximumInvariantRatio","inputs":[],"outputs":[{"name":"","type":"uint256","internalType":"uint256"}],"stateMutability":"pure"},{"type":"function","name":"getMaximumSwapFeePercentage","inputs":[],"outputs":[{"name":"","type":"uint256","internalType":"uint256"}],"stateMutability":"pure"},{"type":"function","name":"getMinimumInvariantRatio","inputs":[],"outputs":[{"name":"","type":"uint256","internalType":"uint256"}],"stateMutability":"pure"},{"type":"function","name":"getMinimumSwapFeePercentage","inputs":[],"outputs":[{"name":"","type":"uint256","internalType":"uint256"}],"stateMutability":"pure"},{"type":"function","name":"getRate","inputs":[],"outputs":[{"name":"","type":"uint256","internalType":"uint256"}],"stateMutability":"view"},{"type":"function","name":"getStaticSwapFeePercentage","inputs":[],"outputs":[{"name":"","type":"uint256","internalType":"uint256"}],"stateMutability":"view"},{"type":"function","name":"getTokenInfo","inputs":[],"outputs":[{"name":"tokens","type":"address[]","internalType":"contract IERC20[]"},{"name":"tokenInfo","type":"tuple[]","internalType":"struct TokenInfo[]","components":[{"name":"tokenType","type":"uint8","internalType":"enum TokenType"},{"name":"rateProvider","type":"address","internalType":"contract IRateProvider"},{"name":"paysYieldFees","type":"bool","internalType":"bool"}]},{"name":"balancesRaw","type":"uint256[]","internalType":"uint256[]"},{"name":"lastBalancesLiveScaled18","type":"uint256[]","internalType":"uint256[]"}],"stateMutability":"view"},{"type":"function","name":"getTokens","inputs":[],"outputs":[{"name":"tokens","type":"address[]","internalType":"contract IERC20[]"}],"stateMutability":"view"},{"type":"function","name":"getVault","inputs":[],"outputs":[{"name":"","type":"address","internalType":"contract IVault"}],"stateMutability":"view"},{"type":"function","name":"incrementNonce","inputs":[],"outputs":[],"stateMutability":"nonpayable"},{"type":"function","name":"name","inputs":[],"outputs":[{"name":"","type":"string","internalType":"string"}],"stateMutability":"view"},{"type":"function","name":"nonces","inputs":[{"name":"owner","type":"address","internalType":"address"}],"outputs":[{"name":"","type":"uint256","internalType":"uint256"}],"stateMutability":"view"},{"type":"function","name":"onSwap","inputs":[{"name":"request","type":"tuple","internalType":"struct PoolSwapParams","components":[{"name":"kind","type":"uint8","internalType":"enum SwapKind"},{"name":"amountGivenScaled18","type":"uint256","internalType":"uint256"},{"name":"balancesScaled18","type":"uint256[]","internalType":"uint256[]"},{"name":"indexIn","type":"uint256","internalType":"uint256"},{"name":"indexOut","type":"uint256","internalType":"uint256"},{"name":"router","type":"address","internalType":"address"},{"name":"userData","type":"bytes","internalType":"bytes"}]}],"outputs":[{"name":"","type":"uint256","internalType":"uint256"}],"stateMutability":"view"},{"type":"function","name":"permit","inputs":[{"name":"owner","type":"address","internalType":"address"},{"name":"spender","type":"address","internalType":"address"},{"name":"amount","type":"uint256","internalType":"uint256"},{"name":"deadline","type":"uint256","internalType":"uint256"},{"name":"v","type":"uint8","internalType":"uint8"},{"name":"r","type":"bytes32","internalType":"bytes32"},{"name":"s","type":"bytes32","internalType":"bytes32"}],"outputs":[],"stateMutability":"nonpayable"},{"type":"function","name":"setSqrtParams","inputs":[{"name":"newSqrtAlpha","type":"uint256","internalType":"uint256"},{"name":"newSqrtBeta","type":"uint256","internalType":"uint256"}],"outputs":[],"stateMutability":"nonpayable"},{"type":"function","name":"supportsInterface","inputs":[{"name":"interfaceId","type":"bytes4","internalType":"bytes4"}],"outputs":[{"name":"","type":"bool","internalType":"bool"}],"stateMutability":"view"},{"type":"function","name":"symbol","inputs":[],"outputs":[{"name":"","type":"string","internalType":"string"}],"stateMutability":"view"},{"type":"function","name":"totalSupply","inputs":[],"outputs":[{"name":"","type":"uint256","internalType":"uint256"}],"stateMutability":"view"},{"type":"function","name":"transfer","inputs":[{"name":"to","type":"address","internalType":"address"},{"name":"amount","type":"uint256","internalType":"uint256"}],"outputs":[{"name":"","type":"bool","internalType":"bool"}],"stateMutability":"nonpayable"},{"type":"function","name":"transferFrom","inputs":[{"name":"from","type":"address","internalType":"address"},{"name":"to","type":"address","internalType":"address"},{"name":"amount","type":"uint256","internalType":"uint256"}],"outputs":[{"name":"","type":"bool","internalType":"bool"}],"stateMutability":"nonpayable"},{"type":"function","name":"version","inputs":[],"outputs":[{"name":"","type":"string","internalType":"string"}],"stateMutability":"view"},{"type":"event","name":"Approval","inputs":[{"name":"owner","type":"address","indexed":true,"internalType":"address"},{"name":"spender","type":"address","indexed":true,"internalType":"address"},{"name":"amount","type":"uint256","indexed":false,"internalType":"uint256"}],"anonymous":false},{"type":"event","name":"EIP712DomainChanged","inputs":[],"anonymous":false},{"type":"event","name":"Transfer","inputs":[{"name":"from","type":"address","indexed":true,"internalType":"address"},{"name":"to","type":"address","indexed":true,"internalType":"address"},{"name":"amount","type":"uint256","indexed":false,"internalType":"uint256"}],"anonymous":false},{"type":"error","name":"AssetBoundsExceeded","inputs":[]},{"type":"error","name":"ERC2612ExpiredSignature","inputs":[{"name":"deadline","type":"uint256","internalType":"uint256"}]},{"type":"error","name":"ERC2612InvalidSigner","inputs":[{"name":"signer","type":"address","internalType":"address"},{"name":"owner","type":"address","internalType":"address"}]},{"type":"error","name":"InvalidAccountNonce","inputs":[{"name":"account","type":"address","internalType":"address"},{"name":"currentNonce","type":"uint256","internalType":"uint256"}]},{"type":"error","name":"SenderIsNotVault","inputs":[{"name":"sender","type":"address","internalType":"address"}]},{"type":"error","name":"SqrtParamsWrong","inputs":[]},{"type":"error","name":"ZeroDivision","inputs":[]}],"bytecode":{"object":"0x610140604052348015610010575f5ffd5b506040516132d63803806132d683398101604081905261002f9161020c565b818181608001518182845f015185602001518282604051806040016040528060018152602001603160f81b815250815f908161006b9190610374565b5060016100788282610374565b508151602092830120608052805191012060a0526001600160a01b031660c05260036100a48382610374565b5060046100b18282610374565b505050506001600160a01b031660e0526100ca8161011c565b5081606001518260400151106100f3576040516302bcf0ed60e11b815260040160405180910390fd5b50604080820151610100526060918201516101205283015160065591909101516007555061042e565b60056101288282610374565b5050565b634e487b7160e01b5f52604160045260245ffd5b60405160a081016001600160401b03811182821017156101625761016261012c565b60405290565b5f82601f830112610177575f5ffd5b81516001600160401b038111156101905761019061012c565b604051601f8201601f19908116603f011681016001600160401b03811182821017156101be576101be61012c565b6040528181528382016020018510156101d5575f5ffd5b8160208501602083015e5f918101602001919091529392505050565b80516001600160a01b0381168114610207575f5ffd5b919050565b5f5f6040838503121561021d575f5ffd5b82516001600160401b03811115610232575f5ffd5b830160a08186031215610243575f5ffd5b61024b610140565b81516001600160401b03811115610260575f5ffd5b61026c87828501610168565b82525060208201516001600160401b03811115610287575f5ffd5b61029387828501610168565b602083015250604082810151908201526060808301519082015260808201516001600160401b038111156102c5575f5ffd5b6102d187828501610168565b60808301525092506102e79050602084016101f1565b90509250929050565b600181811c9082168061030457607f821691505b60208210810361032257634e487b7160e01b5f52602260045260245ffd5b50919050565b601f82111561036f57805f5260205f20601f840160051c8101602085101561034d5750805b601f840160051c820191505b8181101561036c575f8155600101610359565b50505b505050565b81516001600160401b0381111561038d5761038d61012c565b6103a18161039b84546102f0565b84610328565b6020601f8211600181146103d3575f83156103bc5750848201515b5f19600385901b1c1916600184901b17845561036c565b5f84815260208120601f198516915b8281101561040257878501518255602094850194600190920191016103e2565b508482101561041f57868401515f19600387901b60f8161c191681555b50505050600190811b01905550565b60805160a05160c05160e0516101005161012051612de36104f35f395f610e3501525f610e0f01525f8181610e7e01528181611027015281816110a50152818161115801526111e701525f81816104ec0152818161066c0152818161071b015281816108b00152818161093f015281816109d201528181610a7e01528181610b7701528181610d0201528181610d9101528181610f6101528181610fd401528181611318015281816113cd015261152301525f6115bd01525f6115950152612de35ff3fe608060405234801561000f575f5ffd5b50600436106101aa575f3560e01c806301ffc9a7146101ae57806306fdde03146101e7578063095ea7b3146101fc57806316a0b3e01461020f57806318160ddd14610230578063227be8941461023857806323b872dd1461025357806323de665114610266578063273c1adf1461027957806330adf81f14610280578063313ce567146102945780633644e515146102a357806354fd4d50146102ab5780635687f2b8146102b357806361f82d57146102c6578063627cdcb9146102db578063654cf15d146102e3578063679aefce146102f157806370a08231146102f957806372c981861461030c5780637e148d611461031f5780637ecebe001461033457806381fa807c1461034757806384b0196e146103645780638d928af81461037f57806395d89b4114610394578063984de9e81461039c578063a9059cbb146103af578063aa6ca808146103c2578063abb1dc44146103d7578063b156aa0a146103ef578063b677fa5614610404578063ce20ece71461040a578063d335b0cf14610415578063d505accf1461041d578063dd62ed3e14610430575b5f5ffd5b6101d26101bc366004612113565b6001600160e01b0319166301ffc9a760e01b1490565b60405190151581526020015b60405180910390f35b6101ef610443565b6040516101de9190612168565b6101d261020a36600461218e565b6104d3565b61022261021d3660046122d3565b610571565b6040519081526020016101de565b610222610653565b61025161024636600461231c565b600691909155600755565b005b6101d261026136600461233c565b6106e5565b61025161027436600461233c565b610792565b5f19610222565b6102225f516020612d8e5f395f51905f5281565b604051601281526020016101de565b6102226107ec565b6101ef6107f5565b6102516102c136600461233c565b610804565b6102ce610851565b6040516101de91906123b4565b610251610b1e565b670de0b6b3a7640000610222565b610222610b2a565b610222610307366004612445565b610b5e565b61022261031a366004612460565b610bed565b610327610cc2565b6040516101de91906124cf565b610222610342366004612445565b610e5c565b61034f610e79565b604080519283526020830191909152016101de565b61036c610f1d565b6040516101de9796959493929190612528565b610387610f5f565b6040516101de9190612597565b6101ef610f83565b6102226103aa3660046125b7565b610f92565b6101d26103bd36600461218e565b610fbb565b6103ca61100d565b6040516101de9190612605565b6103df61109d565b6040516101de949392919061262b565b6103f761113e565b6040516101de91906126ec565b5f610222565b64e8d4a51000610222565b6102226111ce565b61025161042b3660046126fe565b61121c565b61022261043e36600461276f565b61139e565b6060600380546104529061279b565b80601f016020809104026020016040519081016040528092919081815260200182805461047e9061279b565b80156104c95780601f106104a0576101008083540402835291602001916104c9565b820191905f5260205f20905b8154815290600101906020018083116104ac57829003601f168201915b5050505050905090565b60405163e1f21c6760e01b81525f906001600160a01b037f0000000000000000000000000000000000000000000000000000000000000000169063e1f21c6790610525903390879087906004016127d3565b6020604051808303815f875af1158015610541573d5f5f3e3d5ffd5b505050506040513d601f19601f820116820180604052508101906105659190612806565b50600190505b92915050565b5f5f5f6105816006546007549091565b915091505f6105928784845f61143f565b905061059e8186611472565b90505f6105ab8280612833565b90505f6105b8838561149e565b90505f6105c584876114c6565b9050885f0361061057816105ff8b6001815181106105e5576105e561284a565b6020026020010151836105f8919061285e565b85906114e6565b6106099190612871565b9650610646565b806106398b5f815181106106265761062661284a565b6020026020010151846105f8919061285e565b6106439190612871565b96505b5050505050509392505050565b6040516339370aa960e21b81525f906001600160a01b037f0000000000000000000000000000000000000000000000000000000000000000169063e4dc2aa4906106a1903090600401612597565b602060405180830381865afa1580156106bc573d5f5f3e3d5ffd5b505050506040513d601f19601f820116820180604052508101906106e09190612884565b905090565b604051630aed65f560e11b81523360048201526001600160a01b0384811660248301528381166044830152606482018390525f917f0000000000000000000000000000000000000000000000000000000000000000909116906315dacbea906084016020604051808303815f875af1158015610763573d5f5f3e3d5ffd5b505050506040513d601f19601f820116820180604052508101906107879190612806565b506001949350505050565b61079a611518565b816001600160a01b0316836001600160a01b03167fddf252ad1be2c89b69c2b068fc378daa952ba7f163c4a11628f55a4df523b3ef836040516107df91815260200190565b60405180910390a3505050565b5f6106e0611565565b6060600580546104529061279b565b61080c611518565b816001600160a01b0316836001600160a01b03167f8c5be1e5ebec7d5bd14f71427d1e84f3dd0314c0f7b2291e5b200ac8c7c3b925836040516107df91815260200190565b61089960405180610100016040528060608152602001606081526020015f81526020015f81526020015f81526020015f151581526020015f151581526020015f151581525090565b6040516329ae7ec560e11b81526001600160a01b037f0000000000000000000000000000000000000000000000000000000000000000169063535cfd8a906108e5903090600401612597565b5f60405180830381865afa1580156108ff573d5f5f3e3d5ffd5b505050506040513d5f823e601f3d908101601f1916820160405261092691908101906128f6565b8152604051633f1b0def60e11b81526001600160a01b037f00000000000000000000000000000000000000000000000000000000000000001690637e361bde90610974903090600401612597565b5f60405180830381865afa15801561098e573d5f5f3e3d5ffd5b505050506040513d5f823e601f3d908101601f191682016040526109b59190810190612927565b60208301525060405163b45090f960e01b81526001600160a01b037f0000000000000000000000000000000000000000000000000000000000000000169063b45090f990610a07903090600401612597565b602060405180830381865afa158015610a22573d5f5f3e3d5ffd5b505050506040513d601f19601f82011682018060405250810190610a469190612884565b6040820152610a53610653565b6060820152610a60610b2a565b608082015260405163f29486a160e01b81525f906001600160a01b037f0000000000000000000000000000000000000000000000000000000000000000169063f29486a190610ab3903090600401612597565b6101a060405180830381865afa158015610acf573d5f5f3e3d5ffd5b505050506040513d601f19601f82011682018060405250810190610af39190612a30565b60e080820151151560a0850152610100820151151560c0850152610120909101511515908301525090565b610b273361160d565b50565b5f610b33610f5f565b6001600160a01b0316634f037ee7306040518263ffffffff1660e01b81526004016106a19190612597565b604051633de222bb60e21b81525f906001600160a01b037f0000000000000000000000000000000000000000000000000000000000000000169063f7888aec90610bae9030908690600401612ae9565b602060405180830381865afa158015610bc9573d5f5f3e3d5ffd5b505050506040513d601f19601f8201168201806040525081019061056b9190612884565b5f610bf6611518565b6060820135155f610c0a6040850185612b03565b8560600135818110610c1e57610c1e61284a565b9050602002013590505f848060400190610c389190612b03565b8660800135818110610c4c57610c4c61284a565b9050602002013590505f5f610c6284848761162f565b90925090505f610c756020890189612b4f565b6001811115610c8657610c86612617565b03610cab575f610c9d85858a60200135868661171d565b9650610cbd95505050505050565b5f610c9d85858a60200135868661177a565b919050565b610ceb604051806080016040528060608152602001606081526020015f81526020015f81525090565b60405163ca4f280360e01b81526001600160a01b037f0000000000000000000000000000000000000000000000000000000000000000169063ca4f280390610d37903090600401612597565b5f60405180830381865afa158015610d51573d5f5f3e3d5ffd5b505050506040513d5f823e601f3d908101601f19168201604052610d789190810190612bce565b8152604051633f1b0def60e11b81526001600160a01b037f00000000000000000000000000000000000000000000000000000000000000001690637e361bde90610dc6903090600401612597565b5f60405180830381865afa158015610de0573d5f5f3e3d5ffd5b505050506040513d5f823e601f3d908101601f19168201604052610e079190810190612927565b5060208201527f000000000000000000000000000000000000000000000000000000000000000060408201527f0000000000000000000000000000000000000000000000000000000000000000606082015290565b6001600160a01b0381165f9081526002602052604081205461056b565b5f5f5f7f00000000000000000000000000000000000000000000000000000000000000006001600160a01b031663f29486a1306040518263ffffffff1660e01b8152600401610ec89190612597565b6101a060405180830381865afa158015610ee4573d5f5f3e3d5ffd5b505050506040513d601f19601f82011682018060405250810190610f089190612a30565b90508060400151925080606001519150509091565b5f6060805f5f5f6060610f2e6117df565b610f366117ed565b604080515f80825260208201909252600f60f81b9b939a50919850469750309650945092509050565b7f000000000000000000000000000000000000000000000000000000000000000090565b6060600480546104529061279b565b5f5f5f610fa26006546007549091565b91509150610fb28583838761143f565b95945050505050565b6040516317d5759960e31b81525f906001600160a01b037f0000000000000000000000000000000000000000000000000000000000000000169063beabacc890610525903390879087906004016127d3565b60405163ca4f280360e01b81526060906001600160a01b037f0000000000000000000000000000000000000000000000000000000000000000169063ca4f28039061105c903090600401612597565b5f60405180830381865afa158015611076573d5f5f3e3d5ffd5b505050506040513d5f823e601f3d908101601f191682016040526106e09190810190612bce565b6060806060807f00000000000000000000000000000000000000000000000000000000000000006001600160a01b03166367e0e076306040518263ffffffff1660e01b81526004016110ef9190612597565b5f60405180830381865afa158015611109573d5f5f3e3d5ffd5b505050506040513d5f823e601f3d908101601f191682016040526111309190810190612bff565b935093509350935090919293565b6040516329ae7ec560e11b81526060906001600160a01b037f0000000000000000000000000000000000000000000000000000000000000000169063535cfd8a9061118d903090600401612597565b5f60405180830381865afa1580156111a7573d5f5f3e3d5ffd5b505050506040513d5f823e601f3d908101601f191682016040526106e091908101906128f6565b60405163b45090f960e01b81525f906001600160a01b037f0000000000000000000000000000000000000000000000000000000000000000169063b45090f9906106a1903090600401612597565b834211156112455760405163313c898160e11b8152600481018590526024015b60405180910390fd5b5f5f516020612d8e5f395f51905f528888886112608c61160d565b6040805160208101969096526001600160a01b0394851690860152929091166060840152608083015260a082015260c0810186905260e0016040516020818303038152906040528051906020012090505f6112ba826117fc565b90505f6112c982878787611828565b9050896001600160a01b0316816001600160a01b03161461130157808a6040516325c0072360e11b815260040161123c929190612ae9565b60405163e1f21c6760e01b81526001600160a01b037f0000000000000000000000000000000000000000000000000000000000000000169063e1f21c6790611351908d908d908d906004016127d3565b6020604051808303815f875af115801561136d573d5f5f3e3d5ffd5b505050506040513d601f19601f820116820180604052508101906113919190612806565b5050505050505050505050565b60405163927da10560e01b81523060048201526001600160a01b03838116602483015282811660448301525f917f00000000000000000000000000000000000000000000000000000000000000009091169063927da10590606401602060405180830381865afa158015611414573d5f5f3e3d5ffd5b505050506040513d601f19601f820116820180604052508101906114389190612884565b9392505050565b5f5f5f5f5f61145089898989611835565b9350935093509350611465848484848a611a8d565b9998505050505050505050565b5f8061147e8385612833565b90506001670de0b6b3a76400006001830304018115150291505092915050565b5f806114b2670de0b6b3a764000085612833565b90506114be8382612d5a565b949350505050565b5f806114d28385612833565b90506114be670de0b6b3a764000082612d5a565b5f815f0361150757604051630a0c22c760e01b815260040160405180910390fd5b508115155f19909201046001010290565b336001600160a01b037f00000000000000000000000000000000000000000000000000000000000000001614611563573360405163089676d560e01b815260040161123c9190612597565b565b5f6106e0604080517f8b73c3c69bb8fe3d512ecc4cf759cc79239f7b179b0ffacaa9a75d522b39400f60208201527f0000000000000000000000000000000000000000000000000000000000000000918101919091527f000000000000000000000000000000000000000000000000000000000000000060608201524660808201523060a08201525f9060c00160405160208183030381529060405280519060200120905090565b6001600160a01b03165f90815260026020526040902080546001810190915590565b6040805160028082526060820183525f92839283929091602083019080368337019050509050836116605784611662565b855b815f815181106116745761167461284a565b6020026020010181815250508361168b578561168d565b845b816001815181106116a0576116a061284a565b6020026020010181815250505f5f6116bb6006546007549091565b915091505f6116cd848484600161143f565b905086156116f5576116e081835f611b48565b95506116ee81846001611b7b565b9450611711565b61170081845f611b7b565b955061170e81836001611b48565b94505b50505050935093915050565b5f80611729848861285e565b90505f611736848861285e565b9050611755611745878461285e565b61174f83896114c6565b9061149e565b9250505084811115610fb2576040516301dd20c360e11b815260040160405180910390fd5b5f8484111561179c576040516301dd20c360e11b815260040160405180910390fd5b5f6117a7848861285e565b90505f6117b4848861285e565b90506117d36117c38783612871565b6117cd8489611472565b90611ba9565b98975050505050505050565b60605f80546104529061279b565b6060600180546104529061279b565b5f61056b611808611565565b8360405161190160f01b8152600281019290925260228201526042902090565b5f610fb285858585611bbd565b5f80808061210b600186600181111561185057611850612617565b1461185d57611ba9611861565b61149e5b905061210b600187600181111561187a5761187a612617565b146118875761147261188b565b6114c65b905061210b60018860018111156118a4576118a4612617565b146118b1576114c66118b5565b6114725b90506118c58a8a8563ffffffff16565b6118d790670de0b6b3a7640000612871565b96505f6119028c6001815181106118f0576118f061284a565b60200260200101518b8663ffffffff16565b90505f61192c8d5f8151811061191a5761191a61284a565b60200260200101518d8663ffffffff16565b9050611938818361285e565b975061197b8d5f8151811061194f5761194f61284a565b60200260200101518e60018151811061196a5761196a61284a565b60200260200101518663ffffffff16565b955050506119c86119be6119b48d5f8151811061199a5761199a61284a565b60200260200101518e5f8151811061196a5761196a61284a565b8c8563ffffffff16565b8b8463ffffffff16565b94505f611a31611a1c611a128e5f815181106119e6576119e661284a565b60200260200101518f600181518110611a0157611a0161284a565b60200260200101518763ffffffff16565b8d8663ffffffff16565b611a27906002612833565b8b8663ffffffff16565b90505f611a64611a4d8e6001815181106119e6576119e661284a565b611a5b8d8e8763ffffffff16565b8763ffffffff16565b905080611a71838961285e565b611a7b919061285e565b96505050505050945094509450949050565b5f61210b6001836001811115611aa557611aa5612617565b14611ab257611472611ab6565b6114c65b905061210b6001846001811115611acf57611acf612617565b14611adc57611ba9611ae0565b61149e5b90505f611aee896002612833565b90505f611aff611a27886004612833565b90505f611b0c828a61285e565b90505f611b1a826005611c02565b90505f611b27828d61285e565b9050611b3781868863ffffffff16565b9d9c50505050505050505050505050565b5f6001826001811115611b5d57611b5d612617565b14611b7157611b6c8484611ba9565b6114be565b6114be848461149e565b5f6001826001811115611b9057611b90612617565b14611b9f57611b6c8484611472565b6114be84846114c6565b5f61143883670de0b6b3a764000084611e16565b5f604051855f5260ff851660205283604052826060526020600160805f60015afa5191503d611bf357638baa579f5f526004601cfd5b5f606052604052949350505050565b5f825f03611c1157505f61056b565b5f611c1b84611e5b565b9050600281611c32670de0b6b3a764000087612833565b611c3c9190612d5a565b611c46908361285e565b611c509190612d5a565b9050600281611c67670de0b6b3a764000087612833565b611c719190612d5a565b611c7b908361285e565b611c859190612d5a565b9050600281611c9c670de0b6b3a764000087612833565b611ca69190612d5a565b611cb0908361285e565b611cba9190612d5a565b9050600281611cd1670de0b6b3a764000087612833565b611cdb9190612d5a565b611ce5908361285e565b611cef9190612d5a565b9050600281611d06670de0b6b3a764000087612833565b611d109190612d5a565b611d1a908361285e565b611d249190612d5a565b9050600281611d3b670de0b6b3a764000087612833565b611d459190612d5a565b611d4f908361285e565b611d599190612d5a565b9050600281611d70670de0b6b3a764000087612833565b611d7a9190612d5a565b611d84908361285e565b611d8e9190612d5a565b90505f611d9b82806114c6565b9050611da78285611472565b611db1908661285e565b8111158015611dd35750611dc58285611472565b611dcf9086612871565b8110155b611e0e5760405162461bcd60e51b815260206004820152600c60248201526b17dcdc5c9d0811905253115160a21b604482015260640161123c565b509392505050565b5f815f03611e3757604051630a0c22c760e01b815260040160405180910390fd5b5f611e428486612833565b9050600183600183030401811515029150509392505050565b5f670de0b6b3a76400008210611e9457670de0b6b3a7640000611e86611e818285612d5a565b612036565b6001901b61056b9190612833565b600a8211611ea7575063bc7c871c919050565b60648211611ebb57506402540be400919050565b6103e88211611ed0575064075cdd4719919050565b6127108211611ee5575064174876e800919050565b620186a08211611efb57506449a0a4c700919050565b620f42408211611f11575064e8d4a51000919050565b629896808211611f2857506502e0466fc608919050565b6305f5e1008211611f4057506509184e72a000919050565b633b9aca008211611f585750651cc2c05dbc53919050565b6402540be4008211611f715750655af3107a4000919050565b64174876e8008211611f8b575066011f9b83a95b45919050565b64e8d4a510008211611fa5575066038d7ea4c68000919050565b6509184e72a0008211611fc05750660b3c13249d90bb919050565b655af3107a40008211611fdb5750662386f26fc10000919050565b66038d7ea4c680008211611ff75750667058bf6e27a751919050565b662386f26fc100008211612014575067016345785d8a0000919050565b67016345785d8a000082116120325750670463777a4d8c892d919050565b5090565b5f600160801b82106120575760809190911c9061205460408261285e565b90505b600160401b82106120775760409190911c9061207460208261285e565b90505b600160201b82106120975760209190911c9061209460108261285e565b90505b6201000082106120b65760109190911c906120b360088261285e565b90505b61010082106120d45760089190911c906120d160048261285e565b90505b601082106120f15760049190911c906120ee60028261285e565b90505b60048210610cbd5760029190911c9061056b60018261285e565b611563612d79565b5f60208284031215612123575f5ffd5b81356001600160e01b031981168114611438575f5ffd5b5f81518084528060208401602086015e5f602082860101526020601f19601f83011685010191505092915050565b602081525f611438602083018461213a565b6001600160a01b0381168114610b27575f5ffd5b5f5f6040838503121561219f575f5ffd5b82356121aa8161217a565b946020939093013593505050565b634e487b7160e01b5f52604160045260245ffd5b60405161014081016001600160401b03811182821017156121ef576121ef6121b8565b60405290565b604051606081016001600160401b03811182821017156121ef576121ef6121b8565b604051601f8201601f191681016001600160401b038111828210171561223f5761223f6121b8565b604052919050565b5f6001600160401b0382111561225f5761225f6121b8565b5060051b60200190565b5f82601f830112612278575f5ffd5b813561228b61228682612247565b612217565b8082825260208201915060208360051b8601019250858311156122ac575f5ffd5b602085015b838110156122c95780358352602092830192016122b1565b5095945050505050565b5f5f5f606084860312156122e5575f5ffd5b83356001600160401b038111156122fa575f5ffd5b61230686828701612269565b9660208601359650604090950135949350505050565b5f5f6040838503121561232d575f5ffd5b50508035926020909101359150565b5f5f5f6060848603121561234e575f5ffd5b83356123598161217a565b925060208401356123698161217a565b929592945050506040919091013590565b5f8151808452602084019350602083015f5b828110156123aa57815186526020958601959091019060010161238c565b5093949350505050565b602081525f825161010060208401526123d161012084018261237a565b90506020840151601f198483030160408501526123ee828261237a565b9150506040840151606084015260608401516080840152608084015160a084015260a0840151151560c084015260c084015161242e60e085018215159052565b5060e0840151801515610100850152509392505050565b5f60208284031215612455575f5ffd5b81356114388161217a565b5f60208284031215612470575f5ffd5b81356001600160401b03811115612485575f5ffd5b820160e08185031215611438575f5ffd5b5f8151808452602084019350602083015f5b828110156123aa5781516001600160a01b03168652602095860195909101906001016124a8565b602081525f8251608060208401526124ea60a0840182612496565b90506020840151601f19848303016040850152612507828261237a565b91505060408401516060840152606084015160808401528091505092915050565b60ff60f81b8816815260e060208201525f61254660e083018961213a565b8281036040840152612558818961213a565b606084018890526001600160a01b038716608085015260a0840186905283810360c08501529050612589818561237a565b9a9950505050505050505050565b6001600160a01b0391909116815260200190565b60028110610b27575f5ffd5b5f5f604083850312156125c8575f5ffd5b82356001600160401b038111156125dd575f5ffd5b6125e985828601612269565b92505060208301356125fa816125ab565b809150509250929050565b602081525f6114386020830184612496565b634e487b7160e01b5f52602160045260245ffd5b608081525f61263d6080830187612496565b82810360208401528086518083526020830191506020880192505f5b818110156126b857835180516002811061268157634e487b7160e01b5f52602160045260245ffd5b84526020818101516001600160a01b0316818601526040918201511515918501919091529390930192606090920191600101612659565b505083810360408501526126cc818761237a565b91505082810360608401526126e1818561237a565b979650505050505050565b602081525f611438602083018461237a565b5f5f5f5f5f5f5f60e0888a031215612714575f5ffd5b873561271f8161217a565b9650602088013561272f8161217a565b95506040880135945060608801359350608088013560ff81168114612752575f5ffd5b9699959850939692959460a0840135945060c09093013592915050565b5f5f60408385031215612780575f5ffd5b823561278b8161217a565b915060208301356125fa8161217a565b600181811c908216806127af57607f821691505b6020821081036127cd57634e487b7160e01b5f52602260045260245ffd5b50919050565b6001600160a01b039384168152919092166020820152604081019190915260600190565b80518015158114610cbd575f5ffd5b5f60208284031215612816575f5ffd5b611438826127f7565b634e487b7160e01b5f52601160045260245ffd5b808202811582820484141761056b5761056b61281f565b634e487b7160e01b5f52603260045260245ffd5b8082018082111561056b5761056b61281f565b8181038181111561056b5761056b61281f565b5f60208284031215612894575f5ffd5b5051919050565b5f82601f8301126128aa575f5ffd5b81516128b861228682612247565b8082825260208201915060208360051b8601019250858311156128d9575f5ffd5b602085015b838110156122c95780518352602092830192016128de565b5f60208284031215612906575f5ffd5b81516001600160401b0381111561291b575f5ffd5b6114be8482850161289b565b5f5f60408385031215612938575f5ffd5b82516001600160401b0381111561294d575f5ffd5b6129598582860161289b565b602085015190935090506001600160401b03811115612976575f5ffd5b6129828582860161289b565b9150509250929050565b5f6080828403121561299c575f5ffd5b604051608081016001600160401b03811182821017156129be576129be6121b8565b6040529050806129cd836127f7565b81526129db602084016127f7565b60208201526129ec604084016127f7565b60408201526129fd606084016127f7565b60608201525092915050565b805164ffffffffff81168114610cbd575f5ffd5b805163ffffffff81168114610cbd575f5ffd5b5f6101a0828403128015612a42575f5ffd5b50612a4b6121cc565b612a55848461298c565b81526080830151602082015260a0830151604082015260c08301516060820152612a8160e08401612a09565b6080820152612a936101008401612a1d565b60a0820152612aa561012084016127f7565b60c0820152612ab761014084016127f7565b60e0820152612ac961016084016127f7565b610100820152612adc61018084016127f7565b6101208201529392505050565b6001600160a01b0392831681529116602082015260400190565b5f5f8335601e19843603018112612b18575f5ffd5b8301803591506001600160401b03821115612b31575f5ffd5b6020019150600581901b3603821315612b48575f5ffd5b9250929050565b5f60208284031215612b5f575f5ffd5b8135611438816125ab565b5f82601f830112612b79575f5ffd5b8151612b8761228682612247565b8082825260208201915060208360051b860101925085831115612ba8575f5ffd5b602085015b838110156122c9578051612bc08161217a565b835260209283019201612bad565b5f60208284031215612bde575f5ffd5b81516001600160401b03811115612bf3575f5ffd5b6114be84828501612b6a565b5f5f5f5f60808587031215612c12575f5ffd5b84516001600160401b03811115612c27575f5ffd5b612c3387828801612b6a565b602087015190955090506001600160401b03811115612c50575f5ffd5b8501601f81018713612c60575f5ffd5b8051612c6e61228682612247565b80828252602082019150602060608402850101925089831115612c8f575f5ffd5b6020840193505b82841015612cfa576060848b031215612cad575f5ffd5b612cb56121f5565b8451612cc0816125ab565b81526020850151612cd08161217a565b6020820152612ce1604086016127f7565b6040820152825260609390930192602090910190612c96565b6040890151909650925050506001600160401b03811115612d19575f5ffd5b612d258782880161289b565b606087015190935090506001600160401b03811115612d42575f5ffd5b612d4e8782880161289b565b91505092959194509250565b5f82612d7457634e487b7160e01b5f52601260045260245ffd5b500490565b634e487b7160e01b5f52605160045260245ffdfe6e71edae12b1b97f4d1f60370fef10105fa2faae0126114a169c64845d6126c9a2646970667358221220696855b658d7ea4d5851464075a13548d30925b39db5241de18afb86350349d264736f6c634300081e0033","linkReferences":{}},"methodIdentifiers":{"DOMAIN_SEPARATOR()":"3644e515","PERMIT_TYPEHASH()":"30adf81f","allowance(address,address)":"dd62ed3e","approve(address,uint256)":"095ea7b3","balanceOf(address)":"70a08231","computeBalance(uint256[],uint256,uint256)":"16a0b3e0","computeInvariant(uint256[],uint8)":"984de9e8","decimals()":"313ce567","eip712Domain()":"84b0196e","emitApproval(address,address,uint256)":"5687f2b8","emitTransfer(address,address,uint256)":"23de6651","getAggregateFeePercentages()":"81fa807c","getCurrentLiveBalances()":"b156aa0a","getGyro2CLPPoolDynamicData()":"61f82d57","getGyro2CLPPoolImmutableData()":"7e148d61","getMaximumInvariantRatio()":"273c1adf","getMaximumSwapFeePercentage()":"654cf15d","getMinimumInvariantRatio()":"b677fa56","getMinimumSwapFeePercentage()":"ce20ece7","getRate()":"679aefce","getStaticSwapFeePercentage()":"d335b0cf","getTokenInfo()":"abb1dc44","getTokens()":"aa6ca808","getVault()":"8d928af8","incrementNonce()":"627cdcb9","name()":"06fdde03","nonces(address)":"7ecebe00","onSwap((uint8,uint256,uint256[],uint256,uint256,address,bytes))":"72c98186","permit(address,address,uint256,uint256,uint8,bytes32,bytes32)":"d505accf","setSqrtParams(uint256,uint256)":"227be894","supportsInterface(bytes4)":"01ffc9a7","symbol()":"95d89b41","totalSupply()":"18160ddd","transfer(address,uint256)":"a9059cbb","transferFrom(address,address,uint256)":"23b872dd","version()":"54fd4d50"},"id":129}