{"abi":[{"type":"constructor","inputs":[{"name":"pkgInit","type":"tuple","internalType":"struct IERC20PermitDFPkg.PkgInit","components":[{"name":"erc20Facet","type":"address","internalType":"contract IFacet"},{"name":"erc5267Facet","type":"address","internalType":"contract IFacet"},{"name":"erc2612Facet","type":"address","internalType":"contract IFacet"}]}],"stateMutability":"nonpayable"},{"type":"function","name":"calcSalt","inputs":[{"name":"pkgArgs","type":"bytes","internalType":"bytes"}],"outputs":[{"name":"salt","type":"bytes32","internalType":"bytes32"}],"stateMutability":"pure"},{"type":"function","name":"diamondConfig","inputs":[],"outputs":[{"name":"config","type":"tuple","internalType":"struct IDiamondFactoryPackage.DiamondConfig","components":[{"name":"facetCuts","type":"tuple[]","internalType":"struct IDiamond.FacetCut[]","components":[{"name":"facetAddress","type":"address","internalType":"address"},{"name":"action","type":"uint8","internalType":"enum IDiamond.FacetCutAction"},{"name":"functionSelectors","type":"bytes4[]","internalType":"bytes4[]"}]},{"name":"interfaces","type":"bytes4[]","internalType":"bytes4[]"}]}],"stateMutability":"view"},{"type":"function","name":"facetAddresses","inputs":[],"outputs":[{"name":"facetAddresses_","type":"address[]","internalType":"address[]"}],"stateMutability":"view"},{"type":"function","name":"facetCuts","inputs":[],"outputs":[{"name":"facetCuts_","type":"tuple[]","internalType":"struct IDiamond.FacetCut[]","components":[{"name":"facetAddress","type":"address","internalType":"address"},{"name":"action","type":"uint8","internalType":"enum IDiamond.FacetCutAction"},{"name":"functionSelectors","type":"bytes4[]","internalType":"bytes4[]"}]}],"stateMutability":"view"},{"type":"function","name":"facetInterfaces","inputs":[],"outputs":[{"name":"interfaces","type":"bytes4[]","internalType":"bytes4[]"}],"stateMutability":"pure"},{"type":"function","name":"initAccount","inputs":[{"name":"initArgs","type":"bytes","internalType":"bytes"}],"outputs":[],"stateMutability":"nonpayable"},{"type":"function","name":"packageMetadata","inputs":[],"outputs":[{"name":"name_","type":"string","internalType":"string"},{"name":"interfaces","type":"bytes4[]","internalType":"bytes4[]"},{"name":"facets","type":"address[]","internalType":"address[]"}],"stateMutability":"view"},{"type":"function","name":"packageName","inputs":[],"outputs":[{"name":"name_","type":"string","internalType":"string"}],"stateMutability":"pure"},{"type":"function","name":"postDeploy","inputs":[{"name":"","type":"address","internalType":"address"}],"outputs":[{"name":"","type":"bool","internalType":"bool"}],"stateMutability":"pure"},{"type":"function","name":"processArgs","inputs":[{"name":"pkgArgs","type":"bytes","internalType":"bytes"}],"outputs":[{"name":"processedPkgArgs","type":"bytes","internalType":"bytes"}],"stateMutability":"pure"},{"type":"function","name":"updatePkg","inputs":[{"name":"","type":"address","internalType":"address"},{"name":"","type":"bytes","internalType":"bytes"}],"outputs":[{"name":"","type":"bool","internalType":"bool"}],"stateMutability":"nonpayable"},{"type":"event","name":"Transfer","inputs":[{"name":"from","type":"address","indexed":true,"internalType":"address"},{"name":"to","type":"address","indexed":true,"internalType":"address"},{"name":"amount","type":"uint256","indexed":false,"internalType":"uint256"}],"anonymous":false},{"type":"error","name":"NoNameAndSymbol","inputs":[]},{"type":"error","name":"NoRecipient","inputs":[]},{"type":"error","name":"StringTooLong","inputs":[{"name":"str","type":"string","internalType":"string"}]}],"bytecode":{"object":"0x60e060405234801561000f575f5ffd5b5060405161167d38038061167d83398101604081905261002e91610072565b80516001600160a01b039081166080526020820151811660a0526040909101511660c0526100e9565b80516001600160a01b038116811461006d575f5ffd5b919050565b5f6060828403128015610083575f5ffd5b50604051606081016001600160401b03811182821017156100b257634e487b7160e01b5f52604160045260245ffd5b6040526100be83610057565b81526100cc60208401610057565b60208201526100dd60408401610057565b60408201529392505050565b60805160a05160c05161154061013d5f395f81816103b6015281816107c0015261080601525f8181610362015281816106cc015261071201525f818161030f015281816105ee015261061f01526115405ff3fe608060405234801561000f575f5ffd5b5060043610610097575f3560e01c80632ea808261461009b57806352ef6b2c146100b957806365d375b3146100ce57806370068fcf146100e3578063870d48381461010757806387c3adb31461011c578063a4b3ad351461013c578063a908923514610151578063abc8b34614610164578063d82be56e1461016c578063f45469e71461018d575b5f5ffd5b6100a36101a4565b6040516100b09190610cfd565b60405180910390f35b6100c16102eb565b6040516100b09190610d48565b6100d661040b565b6040516100b09190610d6e565b6100f76100f1366004610e57565b50600190565b60405190151581526020016100b0565b61011a610115366004610f56565b610446565b005b61012f61012a366004610f56565b6104b9565b6040516100b09190610fbd565b610144610593565b6040516100b09190610fcf565b6100f761015f36600461107a565b6108aa565b61012f6108b3565b61017f61017a366004610f56565b6108dd565b6040519081526020016100b0565b6101956109aa565b6040516100b0939291906110c6565b60408051600580825260c082019092526060916020820160a0803683370190505090506336372b0760e01b815f815181106101e1576101e1611108565b60200260200101906001600160e01b03191690816001600160e01b0319168152505063a219a02560e01b8160018151811061021e5761021e611108565b6001600160e01b0319909216602092830291909101909101528051634a17459160e11b908290600290811061025557610255611108565b60200260200101906001600160e01b03191690816001600160e01b03191681525050634ec7fbed60e11b8160038151811061029257610292611108565b60200260200101906001600160e01b03191690816001600160e01b031916815250506342580cb760e11b816004815181106102cf576102cf611108565b6001600160e01b03199092166020928302919091019091015290565b604080516003808252608082019092526060916020820183803683370190505090507f0000000000000000000000000000000000000000000000000000000000000000815f8151811061034057610340611108565b60200260200101906001600160a01b031690816001600160a01b0316815250507f00000000000000000000000000000000000000000000000000000000000000008160018151811061039457610394611108565b60200260200101906001600160a01b031690816001600160a01b0316815250507f0000000000000000000000000000000000000000000000000000000000000000816002815181106103e8576103e8611108565b60200260200101906001600160a01b031690816001600160a01b03168152505090565b60408051808201909152606080825260208201526040518060400160405280610432610593565b815260200161043f6101a4565b9052919050565b5f8180602001905181019061045b9190611189565b9050610473815f0151826020015183604001516109d2565b610499815f0151604051806040016040528060018152602001603160f81b8152506109ea565b6060810151156104b5576104b5816080015182606001516109fc565b5050565b60605f828060200190518101906104d09190611189565b8051519091505f0361050c57602081015151156104f35760208101518152610520565b6040516362277d2360e01b815260040160405180910390fd5b8060200151515f0361052057805160208201525b6060810151156105555760808101516001600160a01b0316610555576040516365a4920b60e01b815260040160405180910390fd5b806040015160ff165f0361056b57601260408201525b8060405160200161057c9190611255565b604051602081830303815290604052915050919050565b60408051600380825260808201909252606091816020015b60408051606080820183525f8083526020830152918101919091528152602001906001900390816105ab5790505060408051606081019091526001600160a01b037f0000000000000000000000000000000000000000000000000000000000000000168152909150602081015f81526020017f00000000000000000000000000000000000000000000000000000000000000006001600160a01b031663574a4cff6040518163ffffffff1660e01b81526004015f60405180830381865afa158015610678573d5f5f3e3d5ffd5b505050506040513d5f823e601f3d908101601f1916820160405261069f91908101906112cd565b815250815f815181106106b4576106b4611108565b602002602001018190525060405180606001604052807f00000000000000000000000000000000000000000000000000000000000000006001600160a01b031681526020015f600281111561070b5761070b610d5a565b81526020017f00000000000000000000000000000000000000000000000000000000000000006001600160a01b031663574a4cff6040518163ffffffff1660e01b81526004015f60405180830381865afa15801561076b573d5f5f3e3d5ffd5b505050506040513d5f823e601f3d908101601f1916820160405261079291908101906112cd565b815250816001815181106107a8576107a8611108565b602002602001018190525060405180606001604052807f00000000000000000000000000000000000000000000000000000000000000006001600160a01b031681526020015f60028111156107ff576107ff610d5a565b81526020017f00000000000000000000000000000000000000000000000000000000000000006001600160a01b031663574a4cff6040518163ffffffff1660e01b81526004015f60405180830381865afa15801561085f573d5f5f3e3d5ffd5b505050506040513d5f823e601f3d908101601f1916820160405261088691908101906112cd565b8152508160028151811061089c5761089c611108565b602002602001018190525090565b60015b92915050565b60408051808201909152601081526f45524332305065726d69744446506b6760801b602082015290565b5f5f828060200190518101906108f39190611189565b8051519091505f0361091657602081015151156104f3576020810151815261092a565b8060200151515f0361092a57805160208201525b60608101511561095f5760808101516001600160a01b031661095f576040516365a4920b60e01b815260040160405180910390fd5b806040015160ff165f0361097557601260408201525b6109a3816040516020016109899190611255565b604051602081830303815290604052805160209091012090565b9392505050565b60608060606109b76108b3565b92506109c16101a4565b91506109cb6102eb565b9050909192565b6109e56109dd610a0e565b848484610a5e565b505050565b6104b56109f5610a95565b8383610ac8565b6104b5610a07610a0e565b8383610b2f565b5f610a59604051602001610a40906020808252600a908201526906569702e6572632e32360b41b604082015260600190565b6040516020818303038152906040528051906020012090565b905090565b83610a69848261140e565b5060018401610a78838261140e565b50600293909301805460ff191660ff909416939093179092555050565b5f610a59604051602001610a40906020808252600b908201526a32b4b81732b4b8171b989960a91b604082015260600190565b610ad58260078501610bbc565b6005840155610ae78160088501610bbc565b6006840155815160208084019190912060038501558151908201206004840155466001840155610b1683610c19565b8355505060020180546001600160a01b03191630179055565b6001600160a01b0382165f90815260048401602052604081208054839290610b589084906114c8565b9250508190555080836003015f828254610b7291906114c8565b90915550506040518181526001600160a01b038316905f907fddf252ad1be2c89b69c2b068fc378daa952ba7f163c4a11628f55a4df523b3ef9060200160405180910390a3505050565b5f602083511015610bd757610bd083610c73565b90506108ad565b825160018160011b178355825f5260205f20602085015f5b83811015610c0b5781810151600582901c840155602001610bef565b5060ff93506108ad92505050565b60038101546004820154604080517f8b73c3c69bb8fe3d512ecc4cf759cc79239f7b179b0ffacaa9a75d522b39400f60208201529081019290925260608201524660808201523060a08201525f906108ad9060c001610989565b5f5f829050601f81511115610ca6578260405163305a27a960e01b8152600401610c9d9190610fbd565b60405180910390fd5b8051610cb1826114e7565b179392505050565b5f8151808452602084019350602083015f5b82811015610cf35781516001600160e01b031916865260209586019590910190600101610ccb565b5093949350505050565b602081525f6109a36020830184610cb9565b5f8151808452602084019350602083015f5b82811015610cf35781516001600160a01b0316865260209586019590910190600101610d21565b602081525f6109a36020830184610d0f565b634e487b7160e01b5f52602160045260245ffd5b602081525f6060820183516040602085015281815180845260808601915060808160051b87010193506020830192505f5b81811015610e1857868503607f19018352835180516001600160a01b03168652602081015160038110610de057634e487b7160e01b5f52602160045260245ffd5b806020880152506040810151905060606040870152610e026060870182610cb9565b9550506020938401939290920191600101610d9f565b505050506020840151838203601f19016040850152610e378282610cb9565b95945050505050565b6001600160a01b0381168114610e54575f5ffd5b50565b5f60208284031215610e67575f5ffd5b81356109a381610e40565b634e487b7160e01b5f52604160045260245ffd5b60405160c081016001600160401b0381118282101715610ea857610ea8610e72565b60405290565b604051601f8201601f191681016001600160401b0381118282101715610ed657610ed6610e72565b604052919050565b5f6001600160401b03821115610ef657610ef6610e72565b50601f01601f191660200190565b5f82601f830112610f13575f5ffd5b8135610f26610f2182610ede565b610eae565b818152846020838601011115610f3a575f5ffd5b816020850160208301375f918101602001919091529392505050565b5f60208284031215610f66575f5ffd5b81356001600160401b03811115610f7b575f5ffd5b610f8784828501610f04565b949350505050565b5f81518084528060208401602086015e5f602082860101526020601f19601f83011685010191505092915050565b602081525f6109a36020830184610f8f565b5f602082016020835280845180835260408501915060408160051b8601019250602086015f5b8281101561106e57868503603f19018452815180516001600160a01b0316865260208101516003811061103657634e487b7160e01b5f52602160045260245ffd5b8060208801525060408101519050606060408701526110586060870182610cb9565b9550506020938401939190910190600101610ff5565b50929695505050505050565b5f5f6040838503121561108b575f5ffd5b823561109681610e40565b915060208301356001600160401b038111156110b0575f5ffd5b6110bc85828601610f04565b9150509250929050565b606081525f6110d86060830186610f8f565b82810360208401526110ea8186610cb9565b905082810360408401526110fe8185610d0f565b9695505050505050565b634e487b7160e01b5f52603260045260245ffd5b5f82601f83011261112b575f5ffd5b8151611139610f2182610ede565b81815284602083860101111561114d575f5ffd5b8160208501602083015e5f918101602001919091529392505050565b805160ff81168114611179575f5ffd5b919050565b805161117981610e40565b5f60208284031215611199575f5ffd5b81516001600160401b038111156111ae575f5ffd5b820160c081850312156111bf575f5ffd5b6111c7610e86565b81516001600160401b038111156111dc575f5ffd5b6111e88682850161111c565b82525060208201516001600160401b03811115611203575f5ffd5b61120f8682850161111c565b60208301525061122160408301611169565b60408201526060828101519082015261123c6080830161117e565b608082015260a091820151918101919091529392505050565b602081525f825160c0602084015261127060e0840182610f8f565b90506020840151601f1984830301604085015261128d8282610f8f565b91505060ff60408501511660608401526060840151608084015260018060a01b0360808501511660a084015260a084015160c08401528091505092915050565b5f602082840312156112dd575f5ffd5b81516001600160401b038111156112f2575f5ffd5b8201601f81018413611302575f5ffd5b80516001600160401b0381111561131b5761131b610e72565b8060051b61132b60208201610eae565b91825260208184018101929081019087841115611346575f5ffd5b6020850194505b8385101561138057845192506001600160e01b03198316831461136e575f5ffd5b8282526020948501949091019061134d565b979650505050505050565b600181811c9082168061139f57607f821691505b6020821081036113bd57634e487b7160e01b5f52602260045260245ffd5b50919050565b601f8211156109e557805f5260205f20601f840160051c810160208510156113e85750805b601f840160051c820191505b81811015611407575f81556001016113f4565b5050505050565b81516001600160401b0381111561142757611427610e72565b61143b81611435845461138b565b846113c3565b6020601f82116001811461146d575f83156114565750848201515b5f19600385901b1c1916600184901b178455611407565b5f84815260208120601f198516915b8281101561149c578785015182556020948501946001909201910161147c565b50848210156114b957868401515f19600387901b60f8161c191681555b50505050600190811b01905550565b808201808211156108ad57634e487b7160e01b5f52601160045260245ffd5b805160208083015191908110156113bd575f1960209190910360031b1b1691905056fea26469706673582212202a1b532ba20c71fffef2cf6abc2a5218f8d0075fbe570875c96d5e24e8eb6f2c64736f6c634300081e0033","linkReferences":{}},"methodIdentifiers":{"calcSalt(bytes)":"d82be56e","diamondConfig()":"65d375b3","facetAddresses()":"52ef6b2c","facetCuts()":"a4b3ad35","facetInterfaces()":"2ea80826","initAccount(bytes)":"870d4838","packageMetadata()":"f45469e7","packageName()":"abc8b346","postDeploy(address)":"70068fcf","processArgs(bytes)":"87c3adb3","updatePkg(address,bytes)":"a9089235"},"id":1317}