{"abi":[{"type":"constructor","inputs":[{"name":"_ve","type":"address","internalType":"contract IVotes"}],"stateMutability":"nonpayable"},{"type":"receive","stateMutability":"payable"},{"type":"function","name":"BALLOT_TYPEHASH","inputs":[],"outputs":[{"name":"","type":"bytes32","internalType":"bytes32"}],"stateMutability":"view"},{"type":"function","name":"CLOCK_MODE","inputs":[],"outputs":[{"name":"","type":"string","internalType":"string"}],"stateMutability":"view"},{"type":"function","name":"COUNTING_MODE","inputs":[],"outputs":[{"name":"","type":"string","internalType":"string"}],"stateMutability":"pure"},{"type":"function","name":"EXTENDED_BALLOT_TYPEHASH","inputs":[],"outputs":[{"name":"","type":"bytes32","internalType":"bytes32"}],"stateMutability":"view"},{"type":"function","name":"MAX_PROPOSAL_NUMERATOR","inputs":[],"outputs":[{"name":"","type":"uint256","internalType":"uint256"}],"stateMutability":"view"},{"type":"function","name":"PROPOSAL_DENOMINATOR","inputs":[],"outputs":[{"name":"","type":"uint256","internalType":"uint256"}],"stateMutability":"view"},{"type":"function","name":"acceptVetoer","inputs":[],"outputs":[],"stateMutability":"nonpayable"},{"type":"function","name":"cancel","inputs":[{"name":"targets","type":"address[]","internalType":"address[]"},{"name":"values","type":"uint256[]","internalType":"uint256[]"},{"name":"calldatas","type":"bytes[]","internalType":"bytes[]"},{"name":"descriptionHash","type":"bytes32","internalType":"bytes32"}],"outputs":[{"name":"","type":"uint256","internalType":"uint256"}],"stateMutability":"nonpayable"},{"type":"function","name":"castVote","inputs":[{"name":"proposalId","type":"uint256","internalType":"uint256"},{"name":"tokenId","type":"uint256","internalType":"uint256"},{"name":"support","type":"uint8","internalType":"uint8"}],"outputs":[{"name":"","type":"uint256","internalType":"uint256"}],"stateMutability":"nonpayable"},{"type":"function","name":"castVoteBySig","inputs":[{"name":"proposalId","type":"uint256","internalType":"uint256"},{"name":"tokenId","type":"uint256","internalType":"uint256"},{"name":"support","type":"uint8","internalType":"uint8"},{"name":"v","type":"uint8","internalType":"uint8"},{"name":"r","type":"bytes32","internalType":"bytes32"},{"name":"s","type":"bytes32","internalType":"bytes32"}],"outputs":[{"name":"","type":"uint256","internalType":"uint256"}],"stateMutability":"nonpayable"},{"type":"function","name":"castVoteWithReason","inputs":[{"name":"proposalId","type":"uint256","internalType":"uint256"},{"name":"tokenId","type":"uint256","internalType":"uint256"},{"name":"support","type":"uint8","internalType":"uint8"},{"name":"reason","type":"string","internalType":"string"}],"outputs":[{"name":"","type":"uint256","internalType":"uint256"}],"stateMutability":"nonpayable"},{"type":"function","name":"castVoteWithReasonAndParams","inputs":[{"name":"proposalId","type":"uint256","internalType":"uint256"},{"name":"tokenId","type":"uint256","internalType":"uint256"},{"name":"support","type":"uint8","internalType":"uint8"},{"name":"reason","type":"string","internalType":"string"},{"name":"params","type":"bytes","internalType":"bytes"}],"outputs":[{"name":"","type":"uint256","internalType":"uint256"}],"stateMutability":"nonpayable"},{"type":"function","name":"castVoteWithReasonAndParamsBySig","inputs":[{"name":"proposalId","type":"uint256","internalType":"uint256"},{"name":"tokenId","type":"uint256","internalType":"uint256"},{"name":"support","type":"uint8","internalType":"uint8"},{"name":"reason","type":"string","internalType":"string"},{"name":"params","type":"bytes","internalType":"bytes"},{"name":"v","type":"uint8","internalType":"uint8"},{"name":"r","type":"bytes32","internalType":"bytes32"},{"name":"s","type":"bytes32","internalType":"bytes32"}],"outputs":[{"name":"","type":"uint256","internalType":"uint256"}],"stateMutability":"nonpayable"},{"type":"function","name":"clock","inputs":[],"outputs":[{"name":"","type":"uint48","internalType":"uint48"}],"stateMutability":"view"},{"type":"function","name":"eip712Domain","inputs":[],"outputs":[{"name":"fields","type":"bytes1","internalType":"bytes1"},{"name":"name","type":"string","internalType":"string"},{"name":"version","type":"string","internalType":"string"},{"name":"chainId","type":"uint256","internalType":"uint256"},{"name":"verifyingContract","type":"address","internalType":"address"},{"name":"salt","type":"bytes32","internalType":"bytes32"},{"name":"extensions","type":"uint256[]","internalType":"uint256[]"}],"stateMutability":"view"},{"type":"function","name":"execute","inputs":[{"name":"targets","type":"address[]","internalType":"address[]"},{"name":"values","type":"uint256[]","internalType":"uint256[]"},{"name":"calldatas","type":"bytes[]","internalType":"bytes[]"},{"name":"descriptionHash","type":"bytes32","internalType":"bytes32"},{"name":"proposer","type":"address","internalType":"address"}],"outputs":[{"name":"","type":"uint256","internalType":"uint256"}],"stateMutability":"payable"},{"type":"function","name":"getVotes","inputs":[{"name":"account","type":"address","internalType":"address"},{"name":"tokenId","type":"uint256","internalType":"uint256"},{"name":"timepoint","type":"uint256","internalType":"uint256"}],"outputs":[{"name":"","type":"uint256","internalType":"uint256"}],"stateMutability":"view"},{"type":"function","name":"getVotesWithParams","inputs":[{"name":"account","type":"address","internalType":"address"},{"name":"tokenId","type":"uint256","internalType":"uint256"},{"name":"timepoint","type":"uint256","internalType":"uint256"},{"name":"params","type":"bytes","internalType":"bytes"}],"outputs":[{"name":"","type":"uint256","internalType":"uint256"}],"stateMutability":"view"},{"type":"function","name":"hasVoted","inputs":[{"name":"proposalId","type":"uint256","internalType":"uint256"},{"name":"tokenId","type":"uint256","internalType":"uint256"}],"outputs":[{"name":"","type":"bool","internalType":"bool"}],"stateMutability":"view"},{"type":"function","name":"hashProposal","inputs":[{"name":"targets","type":"address[]","internalType":"address[]"},{"name":"values","type":"uint256[]","internalType":"uint256[]"},{"name":"calldatas","type":"bytes[]","internalType":"bytes[]"},{"name":"descriptionHash","type":"bytes32","internalType":"bytes32"},{"name":"proposer","type":"address","internalType":"address"}],"outputs":[{"name":"","type":"uint256","internalType":"uint256"}],"stateMutability":"pure"},{"type":"function","name":"name","inputs":[],"outputs":[{"name":"","type":"string","internalType":"string"}],"stateMutability":"view"},{"type":"function","name":"onERC1155BatchReceived","inputs":[{"name":"","type":"address","internalType":"address"},{"name":"","type":"address","internalType":"address"},{"name":"","type":"uint256[]","internalType":"uint256[]"},{"name":"","type":"uint256[]","internalType":"uint256[]"},{"name":"","type":"bytes","internalType":"bytes"}],"outputs":[{"name":"","type":"bytes4","internalType":"bytes4"}],"stateMutability":"nonpayable"},{"type":"function","name":"onERC1155Received","inputs":[{"name":"","type":"address","internalType":"address"},{"name":"","type":"address","internalType":"address"},{"name":"","type":"uint256","internalType":"uint256"},{"name":"","type":"uint256","internalType":"uint256"},{"name":"","type":"bytes","internalType":"bytes"}],"outputs":[{"name":"","type":"bytes4","internalType":"bytes4"}],"stateMutability":"nonpayable"},{"type":"function","name":"onERC721Received","inputs":[{"name":"","type":"address","internalType":"address"},{"name":"","type":"address","internalType":"address"},{"name":"","type":"uint256","internalType":"uint256"},{"name":"","type":"bytes","internalType":"bytes"}],"outputs":[{"name":"","type":"bytes4","internalType":"bytes4"}],"stateMutability":"nonpayable"},{"type":"function","name":"pendingVetoer","inputs":[],"outputs":[{"name":"","type":"address","internalType":"address"}],"stateMutability":"view"},{"type":"function","name":"proposalDeadline","inputs":[{"name":"proposalId","type":"uint256","internalType":"uint256"}],"outputs":[{"name":"","type":"uint256","internalType":"uint256"}],"stateMutability":"view"},{"type":"function","name":"proposalNumerator","inputs":[],"outputs":[{"name":"","type":"uint256","internalType":"uint256"}],"stateMutability":"view"},{"type":"function","name":"proposalSnapshot","inputs":[{"name":"proposalId","type":"uint256","internalType":"uint256"}],"outputs":[{"name":"","type":"uint256","internalType":"uint256"}],"stateMutability":"view"},{"type":"function","name":"proposalThreshold","inputs":[],"outputs":[{"name":"","type":"uint256","internalType":"uint256"}],"stateMutability":"view"},{"type":"function","name":"proposalVotes","inputs":[{"name":"proposalId","type":"uint256","internalType":"uint256"}],"outputs":[{"name":"againstVotes","type":"uint256","internalType":"uint256"},{"name":"forVotes","type":"uint256","internalType":"uint256"},{"name":"abstainVotes","type":"uint256","internalType":"uint256"}],"stateMutability":"view"},{"type":"function","name":"propose","inputs":[{"name":"tokenId","type":"uint256","internalType":"uint256"},{"name":"targets","type":"address[]","internalType":"address[]"},{"name":"values","type":"uint256[]","internalType":"uint256[]"},{"name":"calldatas","type":"bytes[]","internalType":"bytes[]"},{"name":"description","type":"string","internalType":"string"}],"outputs":[{"name":"","type":"uint256","internalType":"uint256"}],"stateMutability":"nonpayable"},{"type":"function","name":"quorum","inputs":[{"name":"timepoint","type":"uint256","internalType":"uint256"}],"outputs":[{"name":"","type":"uint256","internalType":"uint256"}],"stateMutability":"view"},{"type":"function","name":"quorumDenominator","inputs":[],"outputs":[{"name":"","type":"uint256","internalType":"uint256"}],"stateMutability":"view"},{"type":"function","name":"quorumNumerator","inputs":[{"name":"timepoint","type":"uint256","internalType":"uint256"}],"outputs":[{"name":"","type":"uint256","internalType":"uint256"}],"stateMutability":"view"},{"type":"function","name":"quorumNumerator","inputs":[],"outputs":[{"name":"","type":"uint256","internalType":"uint256"}],"stateMutability":"view"},{"type":"function","name":"relay","inputs":[{"name":"target","type":"address","internalType":"address"},{"name":"value","type":"uint256","internalType":"uint256"},{"name":"data","type":"bytes","internalType":"bytes"}],"outputs":[],"stateMutability":"payable"},{"type":"function","name":"renounceVetoer","inputs":[],"outputs":[],"stateMutability":"nonpayable"},{"type":"function","name":"setProposalNumerator","inputs":[{"name":"numerator","type":"uint256","internalType":"uint256"}],"outputs":[],"stateMutability":"nonpayable"},{"type":"function","name":"setVetoer","inputs":[{"name":"_vetoer","type":"address","internalType":"address"}],"outputs":[],"stateMutability":"nonpayable"},{"type":"function","name":"state","inputs":[{"name":"proposalId","type":"uint256","internalType":"uint256"}],"outputs":[{"name":"","type":"uint8","internalType":"enum IVetoGovernor.ProposalState"}],"stateMutability":"view"},{"type":"function","name":"supportsInterface","inputs":[{"name":"interfaceId","type":"bytes4","internalType":"bytes4"}],"outputs":[{"name":"","type":"bool","internalType":"bool"}],"stateMutability":"view"},{"type":"function","name":"token","inputs":[],"outputs":[{"name":"","type":"address","internalType":"contract IVotes"}],"stateMutability":"view"},{"type":"function","name":"updateQuorumNumerator","inputs":[{"name":"newQuorumNumerator","type":"uint256","internalType":"uint256"}],"outputs":[],"stateMutability":"nonpayable"},{"type":"function","name":"ve","inputs":[],"outputs":[{"name":"","type":"address","internalType":"address"}],"stateMutability":"view"},{"type":"function","name":"version","inputs":[],"outputs":[{"name":"","type":"string","internalType":"string"}],"stateMutability":"view"},{"type":"function","name":"veto","inputs":[{"name":"_proposalId","type":"uint256","internalType":"uint256"}],"outputs":[],"stateMutability":"nonpayable"},{"type":"function","name":"vetoer","inputs":[],"outputs":[{"name":"","type":"address","internalType":"address"}],"stateMutability":"view"},{"type":"function","name":"votingDelay","inputs":[],"outputs":[{"name":"","type":"uint256","internalType":"uint256"}],"stateMutability":"pure"},{"type":"function","name":"votingPeriod","inputs":[],"outputs":[{"name":"","type":"uint256","internalType":"uint256"}],"stateMutability":"pure"},{"type":"event","name":"EIP712DomainChanged","inputs":[],"anonymous":false},{"type":"event","name":"ProposalCanceled","inputs":[{"name":"proposalId","type":"uint256","indexed":false,"internalType":"uint256"}],"anonymous":false},{"type":"event","name":"ProposalCreated","inputs":[{"name":"proposalId","type":"uint256","indexed":false,"internalType":"uint256"},{"name":"proposer","type":"address","indexed":false,"internalType":"address"},{"name":"targets","type":"address[]","indexed":false,"internalType":"address[]"},{"name":"values","type":"uint256[]","indexed":false,"internalType":"uint256[]"},{"name":"signatures","type":"string[]","indexed":false,"internalType":"string[]"},{"name":"calldatas","type":"bytes[]","indexed":false,"internalType":"bytes[]"},{"name":"voteStart","type":"uint256","indexed":false,"internalType":"uint256"},{"name":"voteEnd","type":"uint256","indexed":false,"internalType":"uint256"},{"name":"description","type":"string","indexed":false,"internalType":"string"}],"anonymous":false},{"type":"event","name":"ProposalExecuted","inputs":[{"name":"proposalId","type":"uint256","indexed":false,"internalType":"uint256"}],"anonymous":false},{"type":"event","name":"ProposalVetoed","inputs":[{"name":"proposalId","type":"uint256","indexed":false,"internalType":"uint256"}],"anonymous":false},{"type":"event","name":"QuorumNumeratorUpdated","inputs":[{"name":"oldQuorumNumerator","type":"uint256","indexed":false,"internalType":"uint256"},{"name":"newQuorumNumerator","type":"uint256","indexed":false,"internalType":"uint256"}],"anonymous":false},{"type":"event","name":"VoteCast","inputs":[{"name":"voter","type":"address","indexed":true,"internalType":"address"},{"name":"tokenId","type":"uint256","indexed":true,"internalType":"uint256"},{"name":"proposalId","type":"uint256","indexed":false,"internalType":"uint256"},{"name":"support","type":"uint8","indexed":false,"internalType":"uint8"},{"name":"weight","type":"uint256","indexed":false,"internalType":"uint256"},{"name":"reason","type":"string","indexed":false,"internalType":"string"}],"anonymous":false},{"type":"event","name":"VoteCastWithParams","inputs":[{"name":"voter","type":"address","indexed":true,"internalType":"address"},{"name":"tokenId","type":"uint256","indexed":true,"internalType":"uint256"},{"name":"proposalId","type":"uint256","indexed":false,"internalType":"uint256"},{"name":"support","type":"uint8","indexed":false,"internalType":"uint8"},{"name":"weight","type":"uint256","indexed":false,"internalType":"uint256"},{"name":"reason","type":"string","indexed":false,"internalType":"string"},{"name":"params","type":"bytes","indexed":false,"internalType":"bytes"}],"anonymous":false},{"type":"error","name":"CheckpointUnorderedInsertion","inputs":[]},{"type":"error","name":"FailedCall","inputs":[]},{"type":"error","name":"NotPendingVetoer","inputs":[]},{"type":"error","name":"NotTeam","inputs":[]},{"type":"error","name":"NotVetoer","inputs":[]},{"type":"error","name":"ProposalNumeratorTooHigh","inputs":[]},{"type":"error","name":"ZeroAddress","inputs":[]}],"bytecode":{"object":"0x6101006040526002600b55348015610015575f5ffd5b5060405161412438038061412483398101604081905261003491610525565b60048160405180604001604052806011815260200170283937ba37b1b7b61023b7bb32b93737b960791b815250806100706100e360201b60201c565b5f61007b83826105e3565b50600161008882826105e3565b508151602092830120608052805191012060a05260026100a882826105e3565b50506001600160a01b031660c0526100bf816100fe565b506001600160a01b031660e052600980546001600160a01b031916331790556106e1565b6040805180820190915260018152603160f81b602082015290565b60648111156101855760405162461bcd60e51b815260206004820152604360248201527f476f7665726e6f72566f74657351756f72756d4672616374696f6e3a2071756f60448201527f72756d4e756d657261746f72206f7665722071756f72756d44656e6f6d696e616064820152623a37b960e91b608482015260a40160405180910390fd5b5f61018e61026e565b9050801580159061019f5750600854155b1561020257604080518082019091525f8152600890602081016101c184610299565b6001600160e01b0390811690915282546001810184555f938452602093849020835194909301519091166401000000000263ffffffff909316929092179101555b61022f61021d6102106102a9565b65ffffffffffff16610318565b61022684610299565b60089190610322565b505060408051828152602081018490527f0553476bf02ef2726e8ce5ced78d63e26e602e4a2257b1f559418e24b4633997910160405180910390a15050565b6008545f901561029057610282600861033c565b6001600160e01b0316905090565b6007545b905090565b5f6102a382610382565b92915050565b5f60c0516001600160a01b03166391ddadf46040518163ffffffff1660e01b8152600401602060405180830381865afa925050508015610306575060408051601f3d908101601f191682019092526103039181019061069d565b60015b610313576102944361039a565b919050565b5f6102a3826103a4565b5f8061032f8585856103b9565b915091505b935093915050565b80545f90801561037957610362836103556001846106c2565b5f91825260209091200190565b5464010000000090046001600160e01b031661037b565b5f5b9392505050565b5f600160e01b821061039657610396610501565b5090565b5f6102a38261050e565b5f640100000000821061039657610396610501565b82545f90819080156104a8575f6103d5876103556001856106c2565b805490915063ffffffff8082169164010000000090046001600160e01b031690881682111561041757604051632520601d60e01b815260040160405180910390fd5b8763ffffffff168263ffffffff160361044b57825463ffffffff166401000000006001600160e01b0389160217835561049a565b6040805180820190915263ffffffff808a1682526001600160e01b03808a1660208085019182528d54600181018f555f8f81529190912094519151909216640100000000029216919091179101555b945085935061033492505050565b50506040805180820190915263ffffffff80851682526001600160e01b0380851660208085019182528854600181018a555f8a815291822095519251909316640100000000029190931617920191909155905081610334565b6335278d125f526004601cfd5b5f6601000000000000821061039657610396610501565b5f60208284031215610535575f5ffd5b81516001600160a01b038116811461037b575f5ffd5b634e487b7160e01b5f52604160045260245ffd5b600181811c9082168061057357607f821691505b60208210810361059157634e487b7160e01b5f52602260045260245ffd5b50919050565b601f8211156105de57805f5260205f20601f840160051c810160208510156105bc5750805b601f840160051c820191505b818110156105db575f81556001016105c8565b50505b505050565b81516001600160401b038111156105fc576105fc61054b565b6106108161060a845461055f565b84610597565b6020601f821160018114610642575f831561062b5750848201515b5f19600385901b1c1916600184901b1784556105db565b5f84815260208120601f198516915b828110156106715787850151825560209485019460019092019101610651565b508482101561068e57868401515f19600387901b60f8161c191681555b50505050600190811b01905550565b5f602082840312156106ad575f5ffd5b815165ffffffffffff8116811461037b575f5ffd5b818103818111156102a357634e487b7160e01b5f52601160045260245ffd5b60805160a05160c05160e0516139e661073e5f395f8181610380015261113e01525f81816108bd0152818161108001528181611470015281816115ba015281816118940152611c1f01525f6127f101525f6127c901526139e65ff3fe608060405260043610610230575f3560e01c806301ffc9a71461023c57806302a251a31461027057806306f3f9e61461028f57806306fdde03146102ae5780630f8a8836146102cf57806311fd26f4146102ee578063150b7a021461030d5780631d28dec7146103505780631f8507161461036f5780632d63f693146103ba5780632fe3e261146103d95780633932abb1146103f95780633e4f49e61461040d578063452115d6146104395780634bf5d7e914610458578063501fa8bd1461046c578063544ffc9c1461048157806354fd4d50146104d4578063592a8494146104fd57806360c4247f1461051c57806360e69a7b1461053b578063638663ac1461054e57806364390ff11461056257806367e2e0781461059f57806384b0196e146105b457806391ddadf4146105db57806395b6d6bd1461060657806397c3d3341461061a5780639f8b33921461062d578063a67d063514610642578063a7713a7014610661578063aedbfe3314610675578063b58131b014610694578063bc197c81146106a8578063be443ad0146106d3578063c01f9e37146106f2578063c28bc2fa14610711578063c2e863e414610724578063cf781d4514610743578063d152a32e14610762578063d8bff44014610781578063dd4e2ba5146107a0578063dea112a6146107e5578063deaaa7cc14610804578063f23a6e6114610824578063f8ce560a1461084f578063f945970a1461086e578063fa25f3771461088d578063fc0c546a146108ac575f5ffd5b36610238575b005b5f5ffd5b348015610247575f5ffd5b5061025b610256366004612a50565b6108df565b60405190151581526020015b60405180910390f35b34801561027b575f5ffd5b5062093a805b604051908152602001610267565b34801561029a575f5ffd5b506102366102a9366004612a77565b61094b565b3480156102b9575f5ffd5b506102c2610996565b6040516102679190612abc565b3480156102da575f5ffd5b506102816102e9366004612d0e565b610a26565b3480156102f9575f5ffd5b50610281610308366004612ddf565b610dbb565b348015610318575f5ffd5b50610337610327366004612e11565b630a85bd0160e11b949350505050565b6040516001600160e01b03199091168152602001610267565b34801561035b575f5ffd5b5061023661036a366004612a77565b610de3565b34801561037a575f5ffd5b506103a27f000000000000000000000000000000000000000000000000000000000000000081565b6040516001600160a01b039091168152602001610267565b3480156103c5575f5ffd5b506102816103d4366004612a77565b610e1b565b3480156103e4575f5ffd5b506102815f5160206139915f395f51905f5281565b348015610404575f5ffd5b50610384610281565b348015610418575f5ffd5b5061042c610427366004612a77565b610e35565b6040516102679190612e8c565b348015610444575f5ffd5b50610281610453366004612eb2565b610f71565b348015610463575f5ffd5b506102c261107c565b348015610477575f5ffd5b506102816101f481565b34801561048c575f5ffd5b506104b961049b366004612a77565b5f908152600660205260409020805460018201546002909201549092565b60408051938452602084019290925290820152606001610267565b3480156104df575f5ffd5b506040805180820190915260018152603160f81b60208201526102c2565b348015610508575f5ffd5b50610236610517366004612a77565b61113c565b348015610527575f5ffd5b50610281610536366004612a77565b611215565b610281610549366004612f45565b6112c3565b348015610559575f5ffd5b506102366113ee565b34801561056d575f5ffd5b5061025b61057c366004612fee565b5f9182526006602090815260408084209284526003909201905290205460ff1690565b3480156105aa575f5ffd5b5061028161271081565b3480156105bf575f5ffd5b506105c861142b565b6040516102679796959493929190613048565b3480156105e6575f5ffd5b506105ef61146d565b60405165ffffffffffff9091168152602001610267565b348015610611575f5ffd5b506102366114fa565b348015610625575f5ffd5b506064610281565b348015610638575f5ffd5b50610281600b5481565b34801561064d575f5ffd5b50600a546103a2906001600160a01b031681565b34801561066c575f5ffd5b5061028161154c565b348015610680575f5ffd5b5061028161068f366004612f45565b611575565b34801561069f575f5ffd5b506102816115b1565b3480156106b3575f5ffd5b506103376106c23660046130b7565b63bc197c8160e01b95945050505050565b3480156106de575f5ffd5b506102816106ed3660046131ae565b611665565b3480156106fd575f5ffd5b5061028161070c366004612a77565b6116ba565b61023661071f366004613237565b6116d7565b34801561072f575f5ffd5b5061028161073e36600461328e565b611781565b34801561074e575f5ffd5b5061028161075d3660046132f0565b6117c8565b34801561076d575f5ffd5b5061023661077c366004613336565b6117de565b34801561078c575f5ffd5b506009546103a2906001600160a01b031681565b3480156107ab575f5ffd5b506040805180820190915260208082527f737570706f72743d627261766f2671756f72756d3d666f722c6162737461696e908201526102c2565b3480156107f0575f5ffd5b506102816107ff366004613351565b611852565b34801561080f575f5ffd5b506102815f5160206139715f395f51905f5281565b34801561082f575f5ffd5b5061033761083e366004613383565b63f23a6e6160e01b95945050505050565b34801561085a575f5ffd5b50610281610869366004612a77565b611872565b348015610879575f5ffd5b506102816108883660046133da565b611919565b348015610898575f5ffd5b506102816108a7366004613489565b6119fe565b3480156108b7575f5ffd5b506103a27f000000000000000000000000000000000000000000000000000000000000000081565b5f6001600160e01b0319821663669e397160e11b148061090f57506001600160e01b03198216634545c27d60e01b145b8061092a57506001600160e01b03198216630271189760e51b145b8061094557506301ffc9a760e01b6001600160e01b03198316145b92915050565b3330146109735760405162461bcd60e51b815260040161096a906134dd565b60405180910390fd5b61098a565b806109836004611a55565b0361097857505b61099381611a7b565b50565b6060600280546109a59061350f565b80601f01602080910402602001604051908101604052809291908181526020018280546109d19061350f565b8015610a1c5780601f106109f357610100808354040283529160200191610a1c565b820191905f5260205f20905b8154815290600101906020018083116109ff57829003601f168201915b5050505050905090565b5f3381610a3161146d565b65ffffffffffff169050610a436115b1565b610a53838a61030860018661355b565b1015610abb5760405162461bcd60e51b815260206004820152603160248201527f476f7665726e6f723a2070726f706f73657220766f7465732062656c6f7720706044820152701c9bdc1bdcd85b081d1a1c995cda1bdb19607a1b606482015260840161096a565b5f610ad0888888888051906020012087611575565b90508651885114610af35760405162461bcd60e51b815260040161096a9061356e565b8551885114610b145760405162461bcd60e51b815260040161096a9061356e565b5f885111610b5f5760405162461bcd60e51b815260206004820152601860248201527711dbdd995c9b9bdc8e88195b5c1d1e481c1c9bdc1bdcd85b60421b604482015260640161096a565b5f81815260036020526040902054600160401b90046001600160a01b031615610bd45760405162461bcd60e51b815260206004820152602160248201527f476f7665726e6f723a2070726f706f73616c20616c72656164792065786973746044820152607360f81b606482015260840161096a565b5f610be1610384846135af565b90505f610bf162093a80836135af565b9050604051806101000160405280610c0884611be6565b6001600160401b031681526001600160a01b03871660208201525f6040820152606001610c3483611be6565b6001600160401b0390811682525f602080840182905260408085018390526060808601849052608095860184905289845260038352928190208651815493880151888401519187166001600160e01b031990951694909417600160401b6001600160a01b039095168502176001600160e01b0316600160e01b60e092831c0217825593870151958701519585169590911c90910293909317600184015560a08401516002909301805460c0860151929095015161ffff1990951693151561ff00191693909317610100911515919091021762ff0000191662010000931515939093029290921790558a517f7d84a6263ae0d98d3329bd7b46bb4e8d6f98cd35a7adb45c274c8b7fd5ebd5e091859188918e918e91811115610d5757610d57612ace565b604051908082528060200260200182016040528015610d8a57816020015b6060815260200190600190039081610d755790505b508d88888f604051610da499989796959493929190613655565b60405180910390a150909998505050505050505050565b5f610ddb848484610dd660408051602081019091525f815290565b611bf0565b949350505050565b6009546001600160a01b03163314610e0e57604051636184ba1160e01b815260040160405180910390fd5b610e1781611c8a565b5050565b5f908152600360205260409020546001600160401b031690565b5f818152600360205260408120600281015460ff1615610e585750600792915050565b6002810154610100900460ff1615610e735750600292915050565b600281015462010000900460ff1615610e8f5750600892915050565b5f610e9984610e1b565b9050805f03610eea5760405162461bcd60e51b815260206004820152601d60248201527f476f7665726e6f723a20756e6b6e6f776e2070726f706f73616c206964000000604482015260640161096a565b5f610ef361146d565b65ffffffffffff169050808210610f0e57505f949350505050565b5f610f18866116ba565b9050818110610f2d5750600195945050505050565b610f3686611d83565b8015610f5457505f8681526006602052604090208054600190910154115b15610f655750600495945050505050565b50600395945050505050565b5f3381610f818787878786611575565b90505f610f8d82610e35565b6008811115610f9e57610f9e612e78565b14610fea5760405162461bcd60e51b815260206004820152601c60248201527b11dbdd995c9b9bdc8e881d1bdbc81b185d19481d1bc818d85b98d95b60221b604482015260640161096a565b5f818152600360205260409020546001600160a01b03838116600160401b90920416146110645760405162461bcd60e51b815260206004820152602260248201527f476f7665726e6f723a206f6e6c792070726f706f7365722063616e2063616e63604482015261195b60f21b606482015260840161096a565b6110718787878786611db9565b979650505050505050565b60607f00000000000000000000000000000000000000000000000000000000000000006001600160a01b0316634bf5d7e96040518163ffffffff1660e01b81526004015f60405180830381865afa9250505080156110fb57506040513d5f823e601f3d908101601f191682016040526110f89190810190613730565b60015b611137575060408051808201909152601d81527f6d6f64653d626c6f636b6e756d6265722666726f6d3d64656661756c74000000602082015290565b919050565b7f00000000000000000000000000000000000000000000000000000000000000006001600160a01b03166385f2aef26040518163ffffffff1660e01b8152600401602060405180830381865afa158015611198573d5f5f3e3d5ffd5b505050506040513d601f19601f820116820180604052508101906111bc91906137a4565b6001600160a01b0316336001600160a01b0316146111ed57604051633a7cfa5d60e21b815260040160405180910390fd5b6101f4811115611210576040516314263b7360e11b815260040160405180910390fd5b600b55565b6008545f9080820361122b575050600754919050565b5f600861123960018461355b565b81548110611249576112496137bf565b5f9182526020918290206040805180820190915291015463ffffffff8116808352600160201b9091046001600160e01b0316928201929092529150841061129e57602001516001600160e01b03169392505050565b6112b26112aa85611ec4565b600890611ece565b6001600160e01b0316949350505050565b5f5f6112d28787878787611575565b90505f6112de82610e35565b905060048160088111156112f4576112f4612e78565b14806113115750600581600881111561130f5761130f612e78565b145b6113675760405162461bcd60e51b815260206004820152602160248201527f476f7665726e6f723a2070726f706f73616c206e6f74207375636365737366756044820152601b60fa1b606482015260840161096a565b5f8281526003602052604090819020600201805460ff19166001179055517f712ae1383f79ac853f8d882153778e0260ef8f03b504e2866e0593e04d2b291f906113b49084815260200190565b60405180910390a16113c98289898989611f7b565b6113d68289898989611ffd565b6113e38289898989611f7b565b509695505050505050565b6009546001600160a01b0316331461141957604051636184ba1160e01b815260040160405180910390fd5b600980546001600160a01b0319169055565b5f6060805f5f5f606061143c6120cb565b6114446120d9565b604080515f80825260208201909252600f60f81b9b939a50919850469750309650945092509050565b5f7f00000000000000000000000000000000000000000000000000000000000000006001600160a01b03166391ddadf46040518163ffffffff1660e01b8152600401602060405180830381865afa9250505080156114e8575060408051601f3d908101601f191682019092526114e5918101906137d3565b60015b611137576114f5436120e8565b905090565b600a546001600160a01b031633146115255760405163f37fda0760e01b815260040160405180910390fd5b600a8054600980546001600160a01b03199081166001600160a01b03841617909155169055565b6008545f901561156e5761156060086120f2565b6001600160e01b0316905090565b5060075490565b5f858585858560405160200161158f9594939291906137f8565b60408051601f1981840301815291905280516020909101209695505050505050565b5f612710600b547f00000000000000000000000000000000000000000000000000000000000000006001600160a01b0316638e539e8c6001426115f4919061355b565b6040518263ffffffff1660e01b815260040161161291815260200190565b602060405180830381865afa15801561162d573d5f5f3e3d5ffd5b505050506040513d601f19601f820116820180604052508101906116519190613853565b61165b919061386a565b6114f59190613895565b5f803390506116ae8882898989898080601f0160208091040260200160405190810160405280939291908181526020018383808284375f920191909152508b9250612129915050565b98975050505050505050565b5f908152600360205260409020600101546001600160401b031690565b3330146116f65760405162461bcd60e51b815260040161096a906134dd565b61170d565b806117066004611a55565b036116fb57505b5f5f856001600160a01b031685858560405161172a9291906138b4565b5f6040518083038185875af1925050503d805f8114611764576040519150601f19603f3d011682016040523d82523d5f602084013e611769565b606091505b50915091506117788282612280565b50505050505050565b5f803390506110718782888888888080601f0160208091040260200160405190810160405280939291908181526020018383808284375f9201919091525061229c92505050565b5f6117d585858585611bf0565b95945050505050565b6009546001600160a01b0316331461180957604051636184ba1160e01b815260040160405180910390fd5b6001600160a01b0381166118305760405163d92e233d60e01b815260040160405180910390fd5b600a80546001600160a01b0319166001600160a01b0392909216919091179055565b5f803390506117d58582868660405180602001604052805f81525061229c565b5f606461187e83611215565b604051632394e7a360e21b8152600481018590527f00000000000000000000000000000000000000000000000000000000000000006001600160a01b031690638e539e8c90602401602060405180830381865afa1580156118e1573d5f5f3e3d5ffd5b505050506040513d601f19601f820116820180604052508101906119059190613853565b61190f919061386a565b6109459190613895565b5f5f6119a96119a15f5160206139915f395f51905f528d8c8c8c6040516119419291906138b4565b60405180910390208b80519060200120604051602001611986959493929190948552602085019390935260ff9190911660408401526060830152608082015260a00190565b604051602081830303815290604052805190602001206122c8565b8686866122f4565b90506119ef8b828c8c8c8c8080601f0160208091040260200160405190810160405280939291908181526020018383808284375f920191909152508e9250612129915050565b9b9a5050505050505050505050565b604080515f5160206139715f395f51905f52602082015290810187905260ff851660608201525f908190611a38906119a190608001611986565b90506116ae8882898960405180602001604052805f81525061229c565b5f5f5f611a6184612301565b9150915081611a7457611a74603161236c565b9392505050565b6064811115611afe5760405162461bcd60e51b815260206004820152604360248201527f476f7665726e6f72566f74657351756f72756d4672616374696f6e3a2071756f60448201527f72756d4e756d657261746f72206f7665722071756f72756d44656e6f6d696e616064820152623a37b960e91b608482015260a40161096a565b5f611b0761154c565b90508015801590611b185750600854155b15611b7a57604080518082019091525f815260089060208101611b3a8461237d565b6001600160e01b0390811690915282546001810184555f93845260209384902083519490930151909116600160201b0263ffffffff909316929092179101555b611ba7611b95611b8861146d565b65ffffffffffff16611ec4565b611b9e8461237d565b60089190612387565b505060408051828152602081018490527f0553476bf02ef2726e8ce5ced78d63e26e602e4a2257b1f559418e24b4633997910160405180910390a15050565b5f610945826123a1565b604051634d6fb77560e01b81526001600160a01b03858116600483015260248201859052604482018490525f917f000000000000000000000000000000000000000000000000000000000000000090911690634d6fb77590606401602060405180830381865afa158015611c66573d5f5f3e3d5ffd5b505050506040513d601f19601f820116820180604052508101906117d59190613853565b5f5f611c9583610e35565b90506008816008811115611cab57611cab612e78565b14158015611ccb57506002816008811115611cc857611cc8612e78565b14155b8015611ce957506006816008811115611ce657611ce6612e78565b14155b8015611d0757506007816008811115611d0457611d04612e78565b14155b611d235760405162461bcd60e51b815260040161096a906138c3565b5f8381526003602052604090819020600201805462ff0000191662010000179055517fde0cea2a3a0097cc3d981d40c375407760e85bc9c5e69aea449ac3885f8615c690611d749085815260200190565b60405180910390a15090919050565b5f81815260066020526040812060028101546001820154611da491906135af565b611db061086985610e1b565b11159392505050565b5f5f611dc88787878787611575565b90505f611dd482610e35565b90506008816008811115611dea57611dea612e78565b14158015611e0a57506002816008811115611e0757611e07612e78565b14155b8015611e2857506006816008811115611e2557611e25612e78565b14155b8015611e4657506007816008811115611e4357611e43612e78565b14155b611e625760405162461bcd60e51b815260040161096a906138c3565b5f8281526003602052604090819020600201805461ff001916610100179055517f789cf55be980739dad1d0699b93b58e806b51c9d96619bfa8fe0a28abaa7b30c90611eb19084815260200190565b60405180910390a1509695505050505050565b5f610945826123b9565b81545f9081816005811115611f28575f611ee7846123cd565b611ef1908561355b565b5f8881526020902090915081015463ffffffff9081169087161015611f1857809150611f26565b611f238160016135af565b92505b505b5f611f358787858561251f565b90508015611f6f57611f5987611f4c60018461355b565b5f91825260209091200190565b54600160201b90046001600160e01b0316611071565b5f979650505050505050565b611ff6565b8181101561177857306001600160a01b0316868281518110611fa457611fa46137bf565b60200260200101516001600160a01b031603611fee57611fee848281518110611fcf57611fcf6137bf565b602002602001015180519060200120600461257390919063ffffffff16565b600101611f80565b5050505050565b83515f5b81811015611778575f5f87838151811061201d5761201d6137bf565b60200260200101516001600160a01b0316878481518110612040576120406137bf565b602002602001015187858151811061205a5761205a6137bf565b602002602001015160405161206f91906138fa565b5f6040518083038185875af1925050503d805f81146120a9576040519150601f19603f3d011682016040523d82523d5f602084013e6120ae565b606091505b50915091506120bd8282612280565b505050806001019050612001565b60605f80546109a59061350f565b6060600180546109a59061350f565b5f61094582612594565b80545f9080156121215761210b83611f4c60018461355b565b54600160201b90046001600160e01b0316611a74565b5f9392505050565b5f868152600360205260408120600161214189610e35565b600881111561215257612152612e78565b146121ab5760405162461bcd60e51b815260206004820152602360248201527f476f7665726e6f723a20766f7465206e6f742063757272656e746c792061637460448201526269766560e81b606482015260840161096a565b80545f906121c690899089906001600160401b031687611bf0565b90506121d589888884886125a8565b83515f0361222a5786886001600160a01b03167f02ecdb7f59712b7ae7cb6851cce1c64e98f94e5b51ec63809112c054622b25548b89858a60405161221d9493929190613910565b60405180910390a36116ae565b86886001600160a01b03167f7dcdc52e34b09364e599a32b0e3ccb5b730a7b952ddbdf4f237ea785da228ce78b89858a8a60405161226c959493929190613937565b60405180910390a398975050505050505050565b6060826122955761229082612770565b610945565b5080610945565b5f6122be86868686866122b960408051602081019091525f815290565b612129565b9695505050505050565b5f6109456122d4612799565b8360405161190160f01b8152600281019290925260228201526042902090565b5f6117d585858585612841565b80545f9081906001600160801b0380821691600160801b900416810361232c57505f93849350915050565b6001600160801b038181165f908152600186810160205260408220805492905586546001600160801b031916938101909216929092179094559293915050565b634e487b715f52806020526024601cfd5b5f61094582612886565b5f8061239485858561289a565b915091505b935093915050565b5f600160401b82106123b5576123b56129de565b5090565b5f600160201b82106123b5576123b56129de565b5f600182116123da575090565b816001600160801b82106123f35760809190911c9060401b5b600160401b82106124095760409190911c9060201b5b600160201b821061241f5760209190911c9060101b5b6201000082106124345760109190911c9060081b5b61010082106124485760089190911c9060041b5b6010821061245b5760049190911c9060021b5b600482106124675760011b5b600302600190811c9081858161247f5761247f613881565b048201901c9050600181858161249757612497613881565b048201901c905060018185816124af576124af613881565b048201901c905060018185816124c7576124c7613881565b048201901c905060018185816124df576124df613881565b048201901c905060018185816124f7576124f7613881565b048201901c905061251681858161251057612510613881565b04821190565b90039392505050565b5f5b8183101561256b575f85815260209020838316600285851804019081015463ffffffff8681169116111561255757809250612565565b6125628160016135af565b93505b50612521565b509392505050565b5f61257e83836129eb565b90508061258f5761258f604161236c565b505050565b5f600160301b82106123b5576123b56129de565b5f858152600660209081526040808320878452600381019092529091205460ff16156126265760405162461bcd60e51b815260206004820152602760248201527f476f7665726e6f72566f74696e6753696d706c653a20766f746520616c726561604482015266191e4818d85cdd60ca1b606482015260840161096a565b5f83116126865760405162461bcd60e51b815260206004820152602860248201527f476f7665726e6f72566f74696e6753696d706c653a207a65726f20766f74696e60448201526719c81dd95a59da1d60c21b606482015260840161096a565b5f8581526003820160205260409020805460ff1916600117905560ff84166126c55782815f015f8282546126ba91906135af565b909155506127689050565b5f1960ff8516016126e35782816001015f8282546126ba91906135af565b60011960ff8516016127025782816002015f8282546126ba91906135af565b60405162461bcd60e51b815260206004820152603560248201527f476f7665726e6f72566f74696e6753696d706c653a20696e76616c69642076616044820152746c756520666f7220656e756d20566f74655479706560581b606482015260840161096a565b505050505050565b8051156127805780518082602001fd5b60405163d6bda27560e01b815260040160405180910390fd5b5f6114f5604080517f8b73c3c69bb8fe3d512ecc4cf759cc79239f7b179b0ffacaa9a75d522b39400f60208201527f0000000000000000000000000000000000000000000000000000000000000000918101919091527f000000000000000000000000000000000000000000000000000000000000000060608201524660808201523060a08201525f9060c00160405160208183030381529060405280519060200120905090565b5f604051855f5260ff851660205283604052826060526020600160805f60015afa5191503d61287757638baa579f5f526004601cfd5b5f606052604052949350505050565b5f600160e01b82106123b5576123b56129de565b82545f9081908015612986575f6128b687611f4c60018561355b565b805490915063ffffffff80821691600160201b90046001600160e01b03169088168211156128f757604051632520601d60e01b815260040160405180910390fd5b8763ffffffff168263ffffffff160361292a57825463ffffffff16600160201b6001600160e01b03891602178355612978565b6040805180820190915263ffffffff808a1682526001600160e01b03808a1660208085019182528d54600181018f555f8f81529190912094519151909216600160201b029216919091179101555b945085935061239992505050565b50506040805180820190915263ffffffff80851682526001600160e01b0380851660208085019182528854600181018a555f8a815291822095519251909316600160201b029190931617920191909155905081612399565b6335278d125f526004601cfd5b81545f906001600160801b03600160801b820481169181166001830190911603612a18575f915050610945565b6001600160801b038181165f908152600186810160205260409091209490945584549184018116600160801b02911617909255919050565b5f60208284031215612a60575f5ffd5b81356001600160e01b031981168114611a74575f5ffd5b5f60208284031215612a87575f5ffd5b5035919050565b5f81518084528060208401602086015e5f602082860101526020601f19601f83011685010191505092915050565b602081525f611a746020830184612a8e565b634e487b7160e01b5f52604160045260245ffd5b604051601f8201601f191681016001600160401b0381118282101715612b0a57612b0a612ace565b604052919050565b5f6001600160401b03821115612b2a57612b2a612ace565b5060051b60200190565b6001600160a01b0381168114610993575f5ffd5b5f82601f830112612b57575f5ffd5b8135612b6a612b6582612b12565b612ae2565b8082825260208201915060208360051b860101925085831115612b8b575f5ffd5b602085015b83811015612bb1578035612ba381612b34565b835260209283019201612b90565b5095945050505050565b5f82601f830112612bca575f5ffd5b8135612bd8612b6582612b12565b8082825260208201915060208360051b860101925085831115612bf9575f5ffd5b602085015b83811015612bb1578035835260209283019201612bfe565b5f6001600160401b03821115612c2e57612c2e612ace565b50601f01601f191660200190565b5f612c49612b6584612c16565b9050828152838383011115612c5c575f5ffd5b828260208301375f602084830101529392505050565b5f82601f830112612c81575f5ffd5b611a7483833560208501612c3c565b5f82601f830112612c9f575f5ffd5b8135612cad612b6582612b12565b8082825260208201915060208360051b860101925085831115612cce575f5ffd5b602085015b83811015612bb15780356001600160401b03811115612cf0575f5ffd5b612cff886020838a0101612c72565b84525060209283019201612cd3565b5f5f5f5f5f60a08688031215612d22575f5ffd5b8535945060208601356001600160401b03811115612d3e575f5ffd5b612d4a88828901612b48565b94505060408601356001600160401b03811115612d65575f5ffd5b612d7188828901612bbb565b93505060608601356001600160401b03811115612d8c575f5ffd5b612d9888828901612c90565b92505060808601356001600160401b03811115612db3575f5ffd5b8601601f81018813612dc3575f5ffd5b612dd288823560208401612c3c565b9150509295509295909350565b5f5f5f60608486031215612df1575f5ffd5b8335612dfc81612b34565b95602085013595506040909401359392505050565b5f5f5f5f60808587031215612e24575f5ffd5b8435612e2f81612b34565b93506020850135612e3f81612b34565b92506040850135915060608501356001600160401b03811115612e60575f5ffd5b612e6c87828801612c72565b91505092959194509250565b634e487b7160e01b5f52602160045260245ffd5b6020810160098310612eac57634e487b7160e01b5f52602160045260245ffd5b91905290565b5f5f5f5f60808587031215612ec5575f5ffd5b84356001600160401b03811115612eda575f5ffd5b612ee687828801612b48565b94505060208501356001600160401b03811115612f01575f5ffd5b612f0d87828801612bbb565b93505060408501356001600160401b03811115612f28575f5ffd5b612f3487828801612c90565b949793965093946060013593505050565b5f5f5f5f5f60a08688031215612f59575f5ffd5b85356001600160401b03811115612f6e575f5ffd5b612f7a88828901612b48565b95505060208601356001600160401b03811115612f95575f5ffd5b612fa188828901612bbb565b94505060408601356001600160401b03811115612fbc575f5ffd5b612fc888828901612c90565b935050606086013591506080860135612fe081612b34565b809150509295509295909350565b5f5f60408385031215612fff575f5ffd5b50508035926020909101359150565b5f8151808452602084019350602083015f5b8281101561303e578151865260209586019590910190600101613020565b5093949350505050565b60ff60f81b8816815260e060208201525f61306660e0830189612a8e565b82810360408401526130788189612a8e565b606084018890526001600160a01b038716608085015260a0840186905283810360c085015290506130a9818561300e565b9a9950505050505050505050565b5f5f5f5f5f60a086880312156130cb575f5ffd5b85356130d681612b34565b945060208601356130e681612b34565b935060408601356001600160401b03811115613100575f5ffd5b61310c88828901612bbb565b93505060608601356001600160401b03811115613127575f5ffd5b61313388828901612bbb565b92505060808601356001600160401b0381111561314e575f5ffd5b612dd288828901612c72565b803560ff81168114611137575f5ffd5b5f5f83601f84011261317a575f5ffd5b5081356001600160401b03811115613190575f5ffd5b6020830191508360208285010111156131a7575f5ffd5b9250929050565b5f5f5f5f5f5f60a087890312156131c3575f5ffd5b86359550602087013594506131da6040880161315a565b935060608701356001600160401b038111156131f4575f5ffd5b61320089828a0161316a565b90945092505060808701356001600160401b0381111561321e575f5ffd5b61322a89828a01612c72565b9150509295509295509295565b5f5f5f5f6060858703121561324a575f5ffd5b843561325581612b34565b93506020850135925060408501356001600160401b03811115613276575f5ffd5b6132828782880161316a565b95989497509550505050565b5f5f5f5f5f608086880312156132a2575f5ffd5b85359450602086013593506132b96040870161315a565b925060608601356001600160401b038111156132d3575f5ffd5b6132df8882890161316a565b969995985093965092949392505050565b5f5f5f5f60808587031215613303575f5ffd5b843561330e81612b34565b9350602085013592506040850135915060608501356001600160401b03811115612e60575f5ffd5b5f60208284031215613346575f5ffd5b8135611a7481612b34565b5f5f5f60608486031215613363575f5ffd5b833592506020840135915061337a6040850161315a565b90509250925092565b5f5f5f5f5f60a08688031215613397575f5ffd5b85356133a281612b34565b945060208601356133b281612b34565b9350604086013592506060860135915060808601356001600160401b0381111561314e575f5ffd5b5f5f5f5f5f5f5f5f5f6101008a8c0312156133f3575f5ffd5b8935985060208a0135975061340a60408b0161315a565b965060608a01356001600160401b03811115613424575f5ffd5b6134308c828d0161316a565b90975095505060808a01356001600160401b0381111561344e575f5ffd5b61345a8c828d01612c72565b94505061346960a08b0161315a565b989b979a50959894979396929550929360c0810135935060e00135919050565b5f5f5f5f5f5f60c0878903121561349e575f5ffd5b86359550602087013594506134b56040880161315a565b93506134c36060880161315a565b9598949750929560808101359460a0909101359350915050565b602080825260189082015277476f7665726e6f723a206f6e6c79476f7665726e616e636560401b604082015260600190565b600181811c9082168061352357607f821691505b60208210810361354157634e487b7160e01b5f52602260045260245ffd5b50919050565b634e487b7160e01b5f52601160045260245ffd5b8181038181111561094557610945613547565b60208082526021908201527f476f7665726e6f723a20696e76616c69642070726f706f73616c206c656e67746040820152600d60fb1b606082015260800190565b8082018082111561094557610945613547565b5f8151808452602084019350602083015f5b8281101561303e5781516001600160a01b03168652602095860195909101906001016135d4565b5f82825180855260208501945060208160051b830101602085015f5b8381101561364957601f19858403018852613633838351612a8e565b6020988901989093509190910190600101613617565b50909695505050505050565b8981526001600160a01b0389166020820152610120604082018190525f9061367f9083018a6135c2565b8281036060840152613691818a61300e565b9050828103608084015280885180835260208301915060208160051b84010160208b015f5b838110156136e857601f198684030185526136d2838351612a8e565b60209586019590935091909101906001016136b6565b505085810360a08701526136fc818b6135fb565b93505050508560c08401528460e08401528281036101008401526137208185612a8e565b9c9b505050505050505050505050565b5f60208284031215613740575f5ffd5b81516001600160401b03811115613755575f5ffd5b8201601f81018413613765575f5ffd5b8051613773612b6582612c16565b818152856020838501011115613787575f5ffd5b8160208401602083015e5f91810160200191909152949350505050565b5f602082840312156137b4575f5ffd5b8151611a7481612b34565b634e487b7160e01b5f52603260045260245ffd5b5f602082840312156137e3575f5ffd5b815165ffffffffffff81168114611a74575f5ffd5b60a081525f61380a60a08301886135c2565b828103602084015261381c818861300e565b9050828103604084015261383081876135fb565b606084019590955250506001600160a01b03919091166080909101529392505050565b5f60208284031215613863575f5ffd5b5051919050565b808202811582820484141761094557610945613547565b634e487b7160e01b5f52601260045260245ffd5b5f826138af57634e487b7160e01b5f52601260045260245ffd5b500490565b818382375f9101908152919050565b6020808252601d908201527f476f7665726e6f723a2070726f706f73616c206e6f7420616374697665000000604082015260600190565b5f82518060208501845e5f920191825250919050565b84815260ff84166020820152826040820152608060608201525f6122be6080830184612a8e565b85815260ff8516602082015283604082015260a060608201525f61395e60a0830185612a8e565b82810360808401526116ae8185612a8e56fe150214d74d59b7d1e90c73fc22ef3d991dd0a76b046543d4d80ab92d2a50328fb3b3f3b703cd84ce352197dcff232b1b5d3cfb2025ce47cf04742d0651f1af88a264697066735822122059c8c55575f5a02fd603b04fccca56bcc6d2895bed51e5ec0d896a373e8f075464736f6c634300081e0033","linkReferences":{}},"methodIdentifiers":{"BALLOT_TYPEHASH()":"deaaa7cc","CLOCK_MODE()":"4bf5d7e9","COUNTING_MODE()":"dd4e2ba5","EXTENDED_BALLOT_TYPEHASH()":"2fe3e261","MAX_PROPOSAL_NUMERATOR()":"501fa8bd","PROPOSAL_DENOMINATOR()":"67e2e078","acceptVetoer()":"95b6d6bd","cancel(address[],uint256[],bytes[],bytes32)":"452115d6","castVote(uint256,uint256,uint8)":"dea112a6","castVoteBySig(uint256,uint256,uint8,uint8,bytes32,bytes32)":"fa25f377","castVoteWithReason(uint256,uint256,uint8,string)":"c2e863e4","castVoteWithReasonAndParams(uint256,uint256,uint8,string,bytes)":"be443ad0","castVoteWithReasonAndParamsBySig(uint256,uint256,uint8,string,bytes,uint8,bytes32,bytes32)":"f945970a","clock()":"91ddadf4","eip712Domain()":"84b0196e","execute(address[],uint256[],bytes[],bytes32,address)":"60e69a7b","getVotes(address,uint256,uint256)":"11fd26f4","getVotesWithParams(address,uint256,uint256,bytes)":"cf781d45","hasVoted(uint256,uint256)":"64390ff1","hashProposal(address[],uint256[],bytes[],bytes32,address)":"aedbfe33","name()":"06fdde03","onERC1155BatchReceived(address,address,uint256[],uint256[],bytes)":"bc197c81","onERC1155Received(address,address,uint256,uint256,bytes)":"f23a6e61","onERC721Received(address,address,uint256,bytes)":"150b7a02","pendingVetoer()":"a67d0635","proposalDeadline(uint256)":"c01f9e37","proposalNumerator()":"9f8b3392","proposalSnapshot(uint256)":"2d63f693","proposalThreshold()":"b58131b0","proposalVotes(uint256)":"544ffc9c","propose(uint256,address[],uint256[],bytes[],string)":"0f8a8836","quorum(uint256)":"f8ce560a","quorumDenominator()":"97c3d334","quorumNumerator()":"a7713a70","quorumNumerator(uint256)":"60c4247f","relay(address,uint256,bytes)":"c28bc2fa","renounceVetoer()":"638663ac","setProposalNumerator(uint256)":"592a8494","setVetoer(address)":"d152a32e","state(uint256)":"3e4f49e6","supportsInterface(bytes4)":"01ffc9a7","token()":"fc0c546a","updateQuorumNumerator(uint256)":"06f3f9e6","ve()":"1f850716","version()":"54fd4d50","veto(uint256)":"1d28dec7","vetoer()":"d8bff440","votingDelay()":"3932abb1","votingPeriod()":"02a251a3"},"id":812}