{"abi":[{"type":"constructor","inputs":[{"name":"reclammPool","type":"address","internalType":"contract IReClammPoolMain"},{"name":"vault","type":"address","internalType":"contract IVault"},{"name":"params","type":"tuple","internalType":"struct ReClammPoolParams","components":[{"name":"name","type":"string","internalType":"string"},{"name":"symbol","type":"string","internalType":"string"},{"name":"version","type":"string","internalType":"string"},{"name":"dailyPriceShiftExponent","type":"uint256","internalType":"uint256"},{"name":"centerednessMargin","type":"uint64","internalType":"uint64"},{"name":"initialMinPrice","type":"uint256","internalType":"uint256"},{"name":"initialMaxPrice","type":"uint256","internalType":"uint256"},{"name":"initialTargetPrice","type":"uint256","internalType":"uint256"},{"name":"tokenAPriceIncludesRate","type":"bool","internalType":"bool"},{"name":"tokenBPriceIncludesRate","type":"bool","internalType":"bool"}]},{"name":"hookContract","type":"address","internalType":"address"}],"stateMutability":"nonpayable"},{"type":"fallback","stateMutability":"payable"},{"type":"receive","stateMutability":"payable"},{"type":"function","name":"computeCurrentFourthRootPriceRatio","inputs":[],"outputs":[{"name":"","type":"uint256","internalType":"uint256"}],"stateMutability":"view"},{"type":"function","name":"computeCurrentPoolCenteredness","inputs":[],"outputs":[{"name":"","type":"uint256","internalType":"uint256"},{"name":"","type":"bool","internalType":"bool"}],"stateMutability":"view"},{"type":"function","name":"computeCurrentPriceRange","inputs":[],"outputs":[{"name":"minPrice","type":"uint256","internalType":"uint256"},{"name":"maxPrice","type":"uint256","internalType":"uint256"}],"stateMutability":"view"},{"type":"function","name":"computeCurrentPriceRatio","inputs":[],"outputs":[{"name":"","type":"uint256","internalType":"uint256"}],"stateMutability":"view"},{"type":"function","name":"computeCurrentSpotPrice","inputs":[],"outputs":[{"name":"","type":"uint256","internalType":"uint256"}],"stateMutability":"view"},{"type":"function","name":"computeCurrentVirtualBalances","inputs":[],"outputs":[{"name":"currentVirtualBalanceA","type":"uint256","internalType":"uint256"},{"name":"currentVirtualBalanceB","type":"uint256","internalType":"uint256"},{"name":"changed","type":"bool","internalType":"bool"}],"stateMutability":"view"},{"type":"function","name":"getCenterednessMargin","inputs":[],"outputs":[{"name":"","type":"uint256","internalType":"uint256"}],"stateMutability":"view"},{"type":"function","name":"getDailyPriceShiftBase","inputs":[],"outputs":[{"name":"","type":"uint256","internalType":"uint256"}],"stateMutability":"view"},{"type":"function","name":"getDailyPriceShiftExponent","inputs":[],"outputs":[{"name":"","type":"uint256","internalType":"uint256"}],"stateMutability":"view"},{"type":"function","name":"getLastTimestamp","inputs":[],"outputs":[{"name":"","type":"uint32","internalType":"uint32"}],"stateMutability":"view"},{"type":"function","name":"getLastVirtualBalances","inputs":[],"outputs":[{"name":"virtualBalanceA","type":"uint256","internalType":"uint256"},{"name":"virtualBalanceB","type":"uint256","internalType":"uint256"}],"stateMutability":"view"},{"type":"function","name":"getPriceRatioState","inputs":[],"outputs":[{"name":"","type":"tuple","internalType":"struct PriceRatioState","components":[{"name":"startFourthRootPriceRatio","type":"uint96","internalType":"uint96"},{"name":"endFourthRootPriceRatio","type":"uint96","internalType":"uint96"},{"name":"priceRatioUpdateStartTime","type":"uint32","internalType":"uint32"},{"name":"priceRatioUpdateEndTime","type":"uint32","internalType":"uint32"}]}],"stateMutability":"view"},{"type":"function","name":"getReClammPoolDynamicData","inputs":[],"outputs":[{"name":"data","type":"tuple","internalType":"struct ReClammPoolDynamicData","components":[{"name":"balancesLiveScaled18","type":"uint256[]","internalType":"uint256[]"},{"name":"tokenRates","type":"uint256[]","internalType":"uint256[]"},{"name":"staticSwapFeePercentage","type":"uint256","internalType":"uint256"},{"name":"totalSupply","type":"uint256","internalType":"uint256"},{"name":"lastTimestamp","type":"uint256","internalType":"uint256"},{"name":"lastVirtualBalances","type":"uint256[]","internalType":"uint256[]"},{"name":"dailyPriceShiftExponent","type":"uint256","internalType":"uint256"},{"name":"dailyPriceShiftBase","type":"uint256","internalType":"uint256"},{"name":"centerednessMargin","type":"uint256","internalType":"uint256"},{"name":"currentPriceRatio","type":"uint256","internalType":"uint256"},{"name":"currentFourthRootPriceRatio","type":"uint256","internalType":"uint256"},{"name":"startFourthRootPriceRatio","type":"uint256","internalType":"uint256"},{"name":"endFourthRootPriceRatio","type":"uint256","internalType":"uint256"},{"name":"priceRatioUpdateStartTime","type":"uint32","internalType":"uint32"},{"name":"priceRatioUpdateEndTime","type":"uint32","internalType":"uint32"},{"name":"isPoolInitialized","type":"bool","internalType":"bool"},{"name":"isPoolPaused","type":"bool","internalType":"bool"},{"name":"isPoolInRecoveryMode","type":"bool","internalType":"bool"}]}],"stateMutability":"view"},{"type":"function","name":"getReClammPoolImmutableData","inputs":[],"outputs":[{"name":"data","type":"tuple","internalType":"struct ReClammPoolImmutableData","components":[{"name":"tokens","type":"address[]","internalType":"contract IERC20[]"},{"name":"decimalScalingFactors","type":"uint256[]","internalType":"uint256[]"},{"name":"tokenAPriceIncludesRate","type":"bool","internalType":"bool"},{"name":"tokenBPriceIncludesRate","type":"bool","internalType":"bool"},{"name":"minSwapFeePercentage","type":"uint256","internalType":"uint256"},{"name":"maxSwapFeePercentage","type":"uint256","internalType":"uint256"},{"name":"initialMinPrice","type":"uint256","internalType":"uint256"},{"name":"initialMaxPrice","type":"uint256","internalType":"uint256"},{"name":"initialTargetPrice","type":"uint256","internalType":"uint256"},{"name":"initialDailyPriceShiftExponent","type":"uint256","internalType":"uint256"},{"name":"initialCenterednessMargin","type":"uint256","internalType":"uint256"},{"name":"hookContract","type":"address","internalType":"address"},{"name":"maxCenterednessMargin","type":"uint256","internalType":"uint256"},{"name":"maxDailyPriceShiftExponent","type":"uint256","internalType":"uint256"},{"name":"maxDailyPriceRatioUpdateRate","type":"uint256","internalType":"uint256"},{"name":"minPriceRatioUpdateDuration","type":"uint256","internalType":"uint256"},{"name":"minPriceRatioDelta","type":"uint256","internalType":"uint256"},{"name":"balanceRatioAndPriceTolerance","type":"uint256","internalType":"uint256"}]}],"stateMutability":"view"},{"type":"function","name":"isPoolWithinTargetRangeUsingCurrentVirtualBalances","inputs":[],"outputs":[{"name":"isWithinTargetRange","type":"bool","internalType":"bool"},{"name":"virtualBalancesChanged","type":"bool","internalType":"bool"}],"stateMutability":"view"},{"type":"function","name":"onAfterAddLiquidity","inputs":[{"name":"router","type":"address","internalType":"address"},{"name":"pool_","type":"address","internalType":"address"},{"name":"kind","type":"uint8","internalType":"enum AddLiquidityKind"},{"name":"amountsInScaled18","type":"uint256[]","internalType":"uint256[]"},{"name":"amountsInRaw","type":"uint256[]","internalType":"uint256[]"},{"name":"bptAmountOut","type":"uint256","internalType":"uint256"},{"name":"balancesScaled18","type":"uint256[]","internalType":"uint256[]"},{"name":"userData","type":"bytes","internalType":"bytes"}],"outputs":[{"name":"","type":"bool","internalType":"bool"},{"name":"","type":"uint256[]","internalType":"uint256[]"}],"stateMutability":"nonpayable"},{"type":"function","name":"onAfterInitialize","inputs":[{"name":"exactAmountsIn","type":"uint256[]","internalType":"uint256[]"},{"name":"bptAmountOut","type":"uint256","internalType":"uint256"},{"name":"userData","type":"bytes","internalType":"bytes"}],"outputs":[{"name":"","type":"bool","internalType":"bool"}],"stateMutability":"nonpayable"},{"type":"function","name":"onAfterRemoveLiquidity","inputs":[{"name":"router","type":"address","internalType":"address"},{"name":"pool_","type":"address","internalType":"address"},{"name":"kind","type":"uint8","internalType":"enum RemoveLiquidityKind"},{"name":"bptAmountIn","type":"uint256","internalType":"uint256"},{"name":"amountsOutScaled18","type":"uint256[]","internalType":"uint256[]"},{"name":"amountsOutRaw","type":"uint256[]","internalType":"uint256[]"},{"name":"balancesScaled18","type":"uint256[]","internalType":"uint256[]"},{"name":"userData","type":"bytes","internalType":"bytes"}],"outputs":[{"name":"","type":"bool","internalType":"bool"},{"name":"","type":"uint256[]","internalType":"uint256[]"}],"stateMutability":"nonpayable"},{"type":"function","name":"onAfterSwap","inputs":[{"name":"params","type":"tuple","internalType":"struct AfterSwapParams","components":[{"name":"kind","type":"uint8","internalType":"enum SwapKind"},{"name":"tokenIn","type":"address","internalType":"contract IERC20"},{"name":"tokenOut","type":"address","internalType":"contract IERC20"},{"name":"amountInScaled18","type":"uint256","internalType":"uint256"},{"name":"amountOutScaled18","type":"uint256","internalType":"uint256"},{"name":"tokenInBalanceScaled18","type":"uint256","internalType":"uint256"},{"name":"tokenOutBalanceScaled18","type":"uint256","internalType":"uint256"},{"name":"amountCalculatedScaled18","type":"uint256","internalType":"uint256"},{"name":"amountCalculatedRaw","type":"uint256","internalType":"uint256"},{"name":"router","type":"address","internalType":"address"},{"name":"pool","type":"address","internalType":"address"},{"name":"userData","type":"bytes","internalType":"bytes"}]}],"outputs":[{"name":"","type":"bool","internalType":"bool"},{"name":"","type":"uint256","internalType":"uint256"}],"stateMutability":"nonpayable"},{"type":"function","name":"onBeforeSwap","inputs":[{"name":"params","type":"tuple","internalType":"struct PoolSwapParams","components":[{"name":"kind","type":"uint8","internalType":"enum SwapKind"},{"name":"amountGivenScaled18","type":"uint256","internalType":"uint256"},{"name":"balancesScaled18","type":"uint256[]","internalType":"uint256[]"},{"name":"indexIn","type":"uint256","internalType":"uint256"},{"name":"indexOut","type":"uint256","internalType":"uint256"},{"name":"router","type":"address","internalType":"address"},{"name":"userData","type":"bytes","internalType":"bytes"}]},{"name":"pool_","type":"address","internalType":"address"}],"outputs":[{"name":"","type":"bool","internalType":"bool"}],"stateMutability":"nonpayable"},{"type":"function","name":"onComputeDynamicSwapFeePercentage","inputs":[{"name":"params","type":"tuple","internalType":"struct PoolSwapParams","components":[{"name":"kind","type":"uint8","internalType":"enum SwapKind"},{"name":"amountGivenScaled18","type":"uint256","internalType":"uint256"},{"name":"balancesScaled18","type":"uint256[]","internalType":"uint256[]"},{"name":"indexIn","type":"uint256","internalType":"uint256"},{"name":"indexOut","type":"uint256","internalType":"uint256"},{"name":"router","type":"address","internalType":"address"},{"name":"userData","type":"bytes","internalType":"bytes"}]},{"name":"pool_","type":"address","internalType":"address"},{"name":"staticSwapFeePercentage","type":"uint256","internalType":"uint256"}],"outputs":[{"name":"","type":"bool","internalType":"bool"},{"name":"","type":"uint256","internalType":"uint256"}],"stateMutability":"view"},{"type":"function","name":"pool","inputs":[],"outputs":[{"name":"","type":"address","internalType":"contract IReClammPoolMain"}],"stateMutability":"view"},{"type":"error","name":"BaseOutOfBounds","inputs":[]},{"type":"error","name":"CannotReceiveEth","inputs":[]},{"type":"error","name":"ExponentOutOfBounds","inputs":[]},{"type":"error","name":"InvalidExponent","inputs":[]},{"type":"error","name":"NotImplemented","inputs":[]},{"type":"error","name":"NotPoolDelegateCall","inputs":[]},{"type":"error","name":"ProductOutOfBounds","inputs":[]},{"type":"error","name":"SenderIsNotVault","inputs":[{"name":"sender","type":"address","internalType":"address"}]},{"type":"error","name":"ZeroDivision","inputs":[]}],"bytecode":{"object":"0x6101e0604052348015610010575f5ffd5b5060405161425938038061425983398101604081905261002f916101b4565b6001600160a01b039283166101808190529383166101a0526101c09390935260a080820151608090815260c08084015190925260e08084015190925260608301519091528101516001600160401b031661010090815281015115156101209081520151151561014052166101605261030a565b6001600160a01b03811681146100b6575f5ffd5b50565b634e487b7160e01b5f52604160045260245ffd5b60405161014081016001600160401b03811182821017156100f0576100f06100b9565b60405290565b5f82601f830112610105575f5ffd5b81516001600160401b0381111561011e5761011e6100b9565b604051601f8201601f19908116603f011681016001600160401b038111828210171561014c5761014c6100b9565b604052818152838201602001851015610163575f5ffd5b8160208501602083015e5f918101602001919091529392505050565b80516001600160401b0381168114610195575f5ffd5b919050565b80518015158114610195575f5ffd5b8051610195816100a2565b5f5f5f5f608085870312156101c7575f5ffd5b84516101d2816100a2565b60208601519094506101e3816100a2565b60408601519093506001600160401b038111156101fe575f5ffd5b85016101408188031215610210575f5ffd5b6102186100cd565b81516001600160401b0381111561022d575f5ffd5b610239898285016100f6565b82525060208201516001600160401b03811115610254575f5ffd5b610260898285016100f6565b60208301525060408201516001600160401b0381111561027e575f5ffd5b61028a898285016100f6565b604083015250606082810151908201526102a66080830161017f565b608082015260a0828101519082015260c0808301519082015260e080830151908201526102d6610100830161019a565b6101008201526102e9610120830161019a565b61012082015292506102ff9050606086016101a9565b905092959194509250565b60805160a05160c05160e05161010051610120516101405161016051610180516101a0516101c051613e3c61041d5f395f818161071c015281816107ab0152818161083e015281816109b101528181610d6901528181610df801528181611041015281816110d30152818161137c01528181611458015281816115ff01528181611729015261180401525f818161019a015261150b01525f61159d01525f81816104ef015281816105d601528181610aba01528181610bad01528181610fa9015281816111e90152818161124d015261154d01525f610e9e01525f610e7601525f610f7a01525f610f5301525f610f2c01525f8181610f06015261119c01525f8181610ee0015261117a0152613e3c5ff3fe608060405260043610610108575f3560e01c8063105ae7ad1461015e57806316f0115b1461018c57806318b6eb55146101c65780631d8a5e7e146101fc578063215666a81461021e5780632754888d146102325780632c3576881461025f578063378997701461028057806338be241d146102a95780634efd88c9146102d85780634f149b3f146102ec5780635211fa771461031d578063569ee3501461033c5780636bd838c7146103505780637f118b90146103af57806384254cf9146103d0578063976907cc146103e4578063a0e8f5ac14610403578063a103b04414610422578063c0209f1d14610436578063c480b9e61461044a578063cd80a1af1461047557610126565b3661012657604051637911c44b60e11b815260040160405180910390fd5b341561014557604051637911c44b60e11b815260040160405180910390fd5b60405163d623472560e01b815260040160405180910390fd5b348015610169575f5ffd5b5061017261049e565b604080519283526020830191909152015b60405180910390f35b348015610197575f5ffd5b507f00000000000000000000000000000000000000000000000000000000000000006040516101839190612c70565b3480156101d1575f5ffd5b506101e56101e0366004612c84565b6104c6565b604080519215158352602083019190915201610183565b348015610207575f5ffd5b5061021061056c565b604051908152602001610183565b348015610229575f5ffd5b5061021061058c565b34801561023d575f5ffd5b5061025161024c366004612e7d565b6105ac565b604051610183929190612fa6565b34801561026a575f5ffd5b5061027361066c565b6040516101839190612fc0565b34801561028b575f5ffd5b50610294610a7c565b60405163ffffffff9091168152602001610183565b3480156102b4575f5ffd5b506102c86102c33660046130ef565b610a92565b6040519015158152602001610183565b3480156102e3575f5ffd5b50610210610b3b565b3480156102f7575f5ffd5b50610300610b65565b604080519384526020840192909252151590820152606001610183565b348015610328575f5ffd5b506102c8610337366004613170565b610b85565b348015610347575f5ffd5b50610210610c2d565b34801561035b575f5ffd5b50610364610c46565b6040805182516001600160601b039081168252602080850151909116908201528282015163ffffffff9081169282019290925260609283015190911691810191909152608001610183565b3480156103ba575f5ffd5b506103c3610cbf565b60405161018391906131f7565b3480156103db575f5ffd5b50610172611020565b3480156103ef575f5ffd5b506102516103fe366004613318565b6111bf565b34801561040e575f5ffd5b506101e561041d3660046133c4565b61122c565b34801561042d575f5ffd5b506102106112d1565b348015610441575f5ffd5b506102106112e2565b348015610455575f5ffd5b5061045e611359565b604080519215158352901515602083015201610183565b348015610480575f5ffd5b50610489611435565b60408051928352901515602083015201610183565b5f5f6104a8611500565b50506002546001600160801b0380821691600160801b9004165b9091565b5f5f6104d061154b565b6104d8611592565b6040516318b6eb5560e01b81526001600160a01b037f000000000000000000000000000000000000000000000000000000000000000016906318b6eb55906105249086906004016134c8565b60408051808303815f875af115801561053f573d5f5f3e3d5ffd5b505050506040513d601f19601f8201168201806040525081019061056391906135cb565b91509150915091565b5f610575611500565b50600154600160a01b90046001600160401b031690565b5f610595611500565b50600154600160201b90046001600160801b031690565b5f60606105b761154b565b6105bf611592565b604051632754888d60e01b81526001600160a01b037f00000000000000000000000000000000000000000000000000000000000000001690632754888d90610619908d908d908d908d908d908d908d908d90600401613623565b5f604051808303815f875af1158015610634573d5f5f3e3d5ffd5b505050506040513d5f823e601f3d908101601f1916820160405261065b919081019061370e565b915091509850989650505050505050565b6106fd60405180610240016040528060608152602001606081526020015f81526020015f81526020015f8152602001606081526020015f81526020015f81526020015f81526020015f81526020015f81526020015f81526020015f81526020015f63ffffffff1681526020015f63ffffffff1681526020015f151581526020015f151581526020015f151581525090565b610705611500565b6040516329ae7ec560e11b81526001600160a01b037f0000000000000000000000000000000000000000000000000000000000000000169063535cfd8a90610751903090600401612c70565b5f60405180830381865afa15801561076b573d5f5f3e3d5ffd5b505050506040513d5f823e601f3d908101601f191682016040526107929190810190613759565b8152604051633f1b0def60e11b81526001600160a01b037f00000000000000000000000000000000000000000000000000000000000000001690637e361bde906107e0903090600401612c70565b5f60405180830381865afa1580156107fa573d5f5f3e3d5ffd5b505050506040513d5f823e601f3d908101601f19168201604052610821919081019061378a565b60208301525060405163b45090f960e01b81526001600160a01b037f0000000000000000000000000000000000000000000000000000000000000000169063b45090f990610873903090600401612c70565b602060405180830381865afa15801561088e573d5f5f3e3d5ffd5b505050506040513d601f19601f820116820180604052508101906108b291906137d9565b60408201526108bf6115e6565b606082015260015463ffffffff1660808201526108da611673565b60a0820152600154600160201b90046001600160801b031660e0820181905261090290611704565b60c08201526001546001600160401b03600160a01b90910416610100820152604080516080810182525f80546001600160601b03808216808552600160601b830482166020860190815263ffffffff600160c01b85048116878901908152600160e01b9095048116606088019081526101608a01939093529051909216610180880152915181166101a08701529051166101c0850152915163f29486a160e01b81529091906001600160a01b037f0000000000000000000000000000000000000000000000000000000000000000169063f29486a1906109e6903090600401612c70565b6101a060405180830381865afa158015610a02573d5f5f3e3d5ffd5b505050506040513d601f19601f82011682018060405250810190610a269190613894565b60e08101511580156101e086015261010082015115156102008601526101208201511515610220860152909150610a7757610a5f611725565b6101208401819052610a70906117d4565b6101408401525b505090565b5f610a85611500565b5060015463ffffffff1690565b5f610a9b61154b565b610aa3611592565b6040516338be241d60e01b81526001600160a01b037f000000000000000000000000000000000000000000000000000000000000000016906338be241d90610af39087908790879060040161394d565b6020604051808303815f875af1158015610b0f573d5f5f3e3d5ffd5b505050506040513d601f19601f82011682018060405250810190610b339190613977565b949350505050565b5f610b44611500565b600154610b6090600160201b90046001600160801b0316611704565b905090565b5f5f5f610b70611500565b610b786117fd565b9196909550909350915050565b5f610b8e61154b565b610b96611592565b604051635211fa7760e01b81526001600160a01b037f00000000000000000000000000000000000000000000000000000000000000001690635211fa7790610be49086908690600401613a8b565b6020604051808303815f875af1158015610c00573d5f5f3e3d5ffd5b505050506040513d601f19601f82011682018060405250810190610c249190613977565b90505b92915050565b5f610c36611500565b610b60610c41611725565b6117d4565b604080516080810182525f808252602082018190529181018290526060810191909152610c71611500565b50604080516080810182525f546001600160601b038082168352600160601b820416602083015263ffffffff600160c01b8204811693830193909352600160e01b9004909116606082015290565b610d4a60405180610240016040528060608152602001606081526020015f151581526020015f151581526020015f81526020015f81526020015f81526020015f81526020015f81526020015f81526020015f81526020015f6001600160a01b031681526020015f81526020015f81526020015f81526020015f81526020015f81526020015f81525090565b610d52611500565b60405163ca4f280360e01b81526001600160a01b037f0000000000000000000000000000000000000000000000000000000000000000169063ca4f280390610d9e903090600401612c70565b5f60405180830381865afa158015610db8573d5f5f3e3d5ffd5b505050506040513d5f823e601f3d908101601f19168201604052610ddf9190810190613b18565b8152604051633f1b0def60e11b81526001600160a01b037f00000000000000000000000000000000000000000000000000000000000000001690637e361bde90610e2d903090600401612c70565b5f60405180830381865afa158015610e47573d5f5f3e3d5ffd5b505050506040513d5f823e601f3d908101601f19168201604052610e6e919081019061378a565b5060208201527f0000000000000000000000000000000000000000000000000000000000000000151560408201527f0000000000000000000000000000000000000000000000000000000000000000151560608201526509184e72a000608082015267016345785d8a000060a08201527f000000000000000000000000000000000000000000000000000000000000000060c08201527f000000000000000000000000000000000000000000000000000000000000000060e08201527f00000000000000000000000000000000000000000000000000000000000000006101008201527f00000000000000000000000000000000000000000000000000000000000000006101208201527f00000000000000000000000000000000000000000000000000000000000000006101408201526001600160a01b037f000000000000000000000000000000000000000000000000000000000000000016610160820152670c7d713b49da0000610180820152670de0b6b3a76400006101a0820152671bc16d674ec800006101c0820152620151806101e0820152620f4240610200820152655af3107a400061022082015290565b5f5f61102a611500565b6040516314cb3b1f60e21b81526001600160a01b037f0000000000000000000000000000000000000000000000000000000000000000169063532cec7c90611076903090600401612c70565b602060405180830381865afa158015611091573d5f5f3e3d5ffd5b505050506040513d601f19601f820116820180604052508101906110b59190613977565b15611177576040516333f0703b60e11b81525f906001600160a01b037f000000000000000000000000000000000000000000000000000000000000000016906367e0e07690611108903090600401612c70565b5f60405180830381865afa158015611122573d5f5f3e3d5ffd5b505050506040513d5f823e601f3d908101601f191682016040526111499190810190613b49565b93505050505f5f611159836118ad565b50915091506111698383836118ff565b90955093506104c292505050565b507f0000000000000000000000000000000000000000000000000000000000000000917f00000000000000000000000000000000000000000000000000000000000000009150565b5f60606111ca61154b565b6111d2611592565b6040516325da41f360e21b81526001600160a01b037f0000000000000000000000000000000000000000000000000000000000000000169063976907cc90610619908d908d908d908d908d908d908d908d90600401613ca4565b5f5f61123661154b565b60405163283a3d6b60e21b81526001600160a01b037f0000000000000000000000000000000000000000000000000000000000000000169063a0e8f5ac9061128690889088908890600401613d11565b6040805180830381865afa1580156112a0573d5f5f3e3d5ffd5b505050506040513d601f19601f820116820180604052508101906112c491906135cb565b915091505b935093915050565b5f6112da611500565b610b60611725565b5f6112eb611500565b5f5f5f6112f66117fd565b5092509250925061135182845f8151811061131357611313613d3e565b60200260200101516113259190613d66565b828560018151811061133957611339613d3e565b602002602001015161134b9190613d66565b90611947565b935050505090565b5f5f611363611500565b6040516333f0703b60e11b81525f906001600160a01b037f000000000000000000000000000000000000000000000000000000000000000016906367e0e076906113b1903090600401612c70565b5f60405180830381865afa1580156113cb573d5f5f3e3d5ffd5b505050506040513d5f823e601f3d908101601f191682016040526113f29190810190613b49565b93505050505f5f611402836118ad565b600154909650919350915061142c90849084908490600160a01b90046001600160401b0316611967565b94505050509091565b5f5f61143f611500565b6040516333f0703b60e11b81525f906001600160a01b037f000000000000000000000000000000000000000000000000000000000000000016906367e0e0769061148d903090600401612c70565b5f60405180830381865afa1580156114a7573d5f5f3e3d5ffd5b505050506040513d5f823e601f3d908101601f191682016040526114ce9190810190613b49565b6002549094506114f793508492506001600160801b038082169250600160801b90910416611982565b92509250509091565b306001600160a01b037f0000000000000000000000000000000000000000000000000000000000000000161461154957604051631af3033f60e11b815260040160405180910390fd5b565b7f00000000000000000000000000000000000000000000000000000000000000006001600160a01b03166115495760405163d623472560e01b815260040160405180910390fd5b336001600160a01b037f00000000000000000000000000000000000000000000000000000000000000001614611549573360405163089676d560e01b81526004016115dd9190612c70565b60405180910390fd5b6040516339370aa960e21b81525f906001600160a01b037f0000000000000000000000000000000000000000000000000000000000000000169063e4dc2aa490611634903090600401612c70565b602060405180830381865afa15801561164f573d5f5f3e3d5ffd5b505050506040513d601f19601f82011682018060405250810190610b6091906137d9565b60408051600280825260608083018452925f929190602083019080368337505060025482519293506001600160801b0316918391505f906116b6576116b6613d3e565b602002602001018181525050600260109054906101000a90046001600160801b03166001600160801b0316816001815181106116f4576116f4613d3e565b6020908102919091010152919050565b5f6201e6e961171b83670de0b6b3a7640000613d79565b610c279190613d8c565b5f807f00000000000000000000000000000000000000000000000000000000000000006001600160a01b03166367e0e076306040518263ffffffff1660e01b81526004016117739190612c70565b5f60405180830381865afa15801561178d573d5f5f3e3d5ffd5b505050506040513d5f823e601f3d908101601f191682016040526117b49190810190613b49565b93505050505f5f6117c4836118ad565b5091509150611351838383611a61565b5f610c27670de0b6b3a76400006117f36117ee8286613d8c565b611a88565b6117ee9190613d8c565b60605f5f5f7f00000000000000000000000000000000000000000000000000000000000000006001600160a01b03166367e0e076306040518263ffffffff1660e01b815260040161184e9190612c70565b5f60405180830381865afa158015611868573d5f5f3e3d5ffd5b505050506040513d5f823e601f3d908101601f1916820160405261188f9190810190613b49565b96506118a092508691506118ad9050565b9596919590945092509050565b6002546001545f9182918291610b789186916001600160801b0380821692600160801b909204811691600160201b81049091169063ffffffff811690600160a01b90046001600160401b031687611b0d565b5f5f5f61190f8686866001611c49565b90508061191c8580613d8c565b6119269190613db7565b925061193c6119358680611ccb565b8290611947565b915050935093915050565b5f8061195b670de0b6b3a764000085613d8c565b9050610b338382613db7565b5f5f611974868686611982565b509092111595945050505050565b5f5f845f8151811061199657611996613d3e565b60200260200101515f036119ae57505f9050806112c9565b846001815181106119c1576119c1613d3e565b60200260200101515f036119da57505f905060016112c9565b5f83865f815181106119ee576119ee613d3e565b6020026020010151611a009190613d8c565b90505f86600181518110611a1657611a16613d3e565b602002602001015186611a299190613d8c565b9050808211611a4657611a3c8282611947565b93505f9250611a57565b611a508183611947565b9350600192505b5050935093915050565b5f5f5f611a6f8686866118ff565b9092509050611a7e8183611ceb565b9695505050505050565b5f610c27826001600160881b03811160071b81811c6001600160481b031060061b1781811c64ffffffffff1060051b1781811c62ffffff1060041b1781811c620100000160b5600192831c1b0260121c80830401811c80830401811c80830401811c80830401811c80830401811c80830401811c80830401901c908190048111900390565b5f5f5f5f611b1a42611cff565b90508063ffffffff168763ffffffff1603611b3e5789895f93509350935050611c3c565b6040805160808101825286546001600160601b03808216808452600160601b83049091166020840181905263ffffffff600160c01b84048116958501869052600160e01b909304909216606084018190528e98508d975092935f93611ba7938793929091611d09565b6001600160601b03169050816040015163ffffffff168363ffffffff16118015611be05750816060015163ffffffff168963ffffffff16105b15611bfb57611bf1818e8e8e611de8565b9096509450600193505b50505f5f611c0a8d8787611982565b91509150876001600160401b0316821015611c3857611c2e8d8787848e888f611f2f565b9096509450600193505b5050505b9750975097945050505050565b5f612c5b6001836001811115611c6157611c61613430565b14611c6e576120c0611c72565b611ccb5b9050611a7e85875f81518110611c8a57611c8a613d3e565b6020026020010151611c9c9190613d66565b8588600181518110611cb057611cb0613d3e565b6020026020010151611cc29190613d66565b8363ffffffff16565b5f80611cd78385613d8c565b9050610b33670de0b6b3a764000082613db7565b5f610c2483670de0b6b3a7640000846120ec565b5f610c2782612131565b5f8163ffffffff168663ffffffff1610611d24575082611ddf565b8263ffffffff168663ffffffff1611611d3e575083611ddf565b5f611d70611d4c8585613dd6565b63ffffffff16611d5c868a613dd6565b63ffffffff1661194790919063ffffffff16565b90505f611da6611d9683611d906001600160601b038a8116908c16611947565b90612149565b6001600160601b03891690611ccb565b90505f611dc5886001600160601b0316886001600160601b0316612204565b9050611dd9611dd48284612213565b612222565b93505050505b95945050505050565b5f5f5f5f611df7878787611982565b915091505f5f5f83611e255789600181518110611e1657611e16613d3e565b6020026020010151888a611e42565b895f81518110611e3757611e37613d3e565b602002602001015189895b919450925090505f611e548c80611ccb565b90505f611e69670de0b6b3a764000083613d79565b611e74906002613d8c565b611ec1671bc16d674ec80000611e8b856004613d8c565b611e95908b613d66565b611e9f9190613d79565b611ea9908a613d8c565b6117ee906a0c097ce7bc90715b34b9f160241b613d66565b611ed389670de0b6b3a7640000613d66565b611edd9190613d66565b611ee79087613d8c565b611ef19190613db7565b90505f84611eff8584613d8c565b611f099190613db7565b905086611f17578082611f1a565b81815b909f909e509c50505050505050505050505050565b5f5f5f611f45611f408b8b8b611a61565b61222c565b90505f5f88611f88578b600181518110611f6157611f61613d3e565b60200260200101518c5f81518110611f7b57611f7b613d3e565b6020026020010151611fbe565b8b5f81518110611f9a57611f9a613d3e565b60200260200101518c600181518110611fb557611fb5613d3e565b60200260200101515b915091505f5f8a611fd0578b8d611fd3565b8c8c5b90925090505f611ff5611fe68a8c613dd6565b63ffffffff1662278d00612204565b905061201d61201661200f670de0b6b3a764000084613d8c565b8d90612149565b8390611ccb565b915061204e82612049670de0b6b3a76400006120388a61222c565b6120429190613d79565b8790611947565b612213565b91508361206d83612067670de0b6b3a76400008a613d79565b90611ccb565b6120779190613d79565b6120818584613d66565b61208b9087613d8c565b6120959190613db7565b92508b6120a35781836120a6565b82825b809850819950505050505050505097509795505050505050565b5f806120cc8385613d8c565b90506001670de0b6b3a76400006001830304018115150291505092915050565b5f815f0361210d57604051630a0c22c760e01b815260040160405180910390fd5b5f6121188486613d8c565b9050600183600183030401811515029150509392505050565b5f600160201b821061214557612145612242565b5090565b5f670de0b6b3a76400008203612160575081610c27565b612173670de0b6b3a76400006002613d8c565b820361218a576121838384611ccb565b9050610c27565b61219d670de0b6b3a76400006004613d8c565b82036121c2575f6121ae8485611ccb565b90506121ba8182611ccb565b915050610c27565b5f6121cd848461224f565b90505f6121dc826127106120c0565b6121e7906001613d66565b9050808210156121fb575f92505050610c27565b90039050610c27565b5f818311828418028318610c24565b5f818310828418028318610c24565b5f610c2782612385565b5f610c276117ee670de0b6b3a764000084613d8c565b6335278d125f526004601cfd5b5f815f036122665750670de0b6b3a7640000610c27565b825f0361227457505f610c27565b60ff83901c15612296576040516211380f60e51b815260040160405180910390fd5b826122ae68056bc75e2d63100000600160fe1b613db7565b83106122cd5760405163d831731160e01b815260040160405180910390fd5b825f670c7d713b49da0000831380156122ed5750670f43fc2c04ee000083125b15612323575f6122fc84612399565b9050670de0b6b3a764000080820784020583670de0b6b3a764000083050201915050612331565b8161232d846124b6565b0290505b670de0b6b3a76400009005680238fd42c5cf03ffff19811280159061235f575068070c1cc73b00c800008113155b61237c5760405163a2f9f7e360e01b815260040160405180910390fd5b611a7e81612860565b5f600160601b821061214557612145612242565b670de0b6b3a7640000025f806a0c097ce7bc90715b34b9f160241b808401906ec097ce7bc90715b34b9f0fffffffff19850102816123d9576123d9613da3565b0590505f6a0c097ce7bc90715b34b9f160241b82800205905081806a0c097ce7bc90715b34b9f160241b81840205915060038205016a0c097ce7bc90715b34b9f160241b82840205915060058205016a0c097ce7bc90715b34b9f160241b82840205915060078205016a0c097ce7bc90715b34b9f160241b82840205915060098205016a0c097ce7bc90715b34b9f160241b828402059150600b8205016a0c097ce7bc90715b34b9f160241b828402059150600d8205016a0c097ce7bc90715b34b9f160241b828402059150600f82050160020295945050505050565b5f80670de0b6b3a76400008312156124ed57826a0c097ce7bc90715b34b9f160241b816124e5576124e5613da3565b059250600190505b5f775803bcc5cb9634ba4cfb2213f784019318ed4dcb6017880f60361b84126125375772195e54c5dd42177f53a27172fa9ec63026282760241b840593506806f05b59d3b2000000015b6f8bcc0026baae9e45e470190267a230cf60191b841261256e576b1425982cf597cd205cef7380840593506803782dace9d9000000015b606493840293026e01855144814a7ff805980ff008400084126125b6576e01855144814a7ff805980ff008400068056bc75e2d63100000850205935068ad78ebc5ac62000000015b6b02df0ab5a80a22c61ab5a70084126125f1576b02df0ab5a80a22c61ab5a70068056bc75e2d6310000085020593506856bc75e2d631000000015b693f1fce3da636ea5cf850841261262857693f1fce3da636ea5cf85068056bc75e2d631000008502059350682b5e3af16b18800000015b690127fa27722cc06cc5e2841261265f57690127fa27722cc06cc5e268056bc75e2d6310000085020593506815af1d78b58c400000015b68280e60114edb805d0384126126945768280e60114edb805d0368056bc75e2d631000008502059350680ad78ebc5ac6200000015b680ebc5fb4174612111084126126bf57680ebc5fb4174612111068056bc75e2d631000009485020593015b6808f00f760a4b2db55d84126126f4576808f00f760a4b2db55d68056bc75e2d6310000085020593506802b5e3af16b1880000015b6806f5f17757889379378412612729576806f5f177578893793768056bc75e2d63100000850205935068015af1d78b58c40000015b6806248f33704b286603841261275d576806248f33704b28660368056bc75e2d63100000850205935067ad78ebc5ac620000015b6805c548670b9510e7ac8412612791576805c548670b9510e7ac68056bc75e2d6310000085020593506756bc75e2d6310000015b5f68056bc75e2d63100000850168056bc75e2d6310000080870302816127b9576127b9613da3565b0590505f68056bc75e2d63100000828002059050818068056bc75e2d63100000818402059150600382050168056bc75e2d63100000828402059150600582050168056bc75e2d63100000828402059150600782050168056bc75e2d63100000828402059150600982050168056bc75e2d63100000828402059150600b8205016002025f60648683010590508661284f5780612853565b805f035b9998505050505050505050565b5f680238fd42c5cf03ffff198212158015612884575068070c1cc73b00c800008213155b6128a15760405163d4794efd60e01b815260040160405180910390fd5b5f808312156128b457825f039250600190505b5f6806f05b59d3b200000084126128f157506806f05b59d3b1ffffff199092019172195e54c5dd42177f53a27172fa9ec63026282760241b612927565b6803782dace9d9000000841261292357506803782dace9d8ffffff19909201916b1425982cf597cd205cef7380612927565b5060015b6064939093029268056bc75e2d6310000068ad78ebc5ac6200000085126129775768ad78ebc5ac61ffffff199094019368056bc75e2d631000006e01855144814a7ff805980ff008400082020590505b6856bc75e2d63100000085126129b3576856bc75e2d630ffffff199094019368056bc75e2d631000006b02df0ab5a80a22c61ab5a70082020590505b682b5e3af16b1880000085126129ed57682b5e3af16b187fffff199094019368056bc75e2d63100000693f1fce3da636ea5cf85082020590505b6815af1d78b58c4000008512612a27576815af1d78b58c3fffff199094019368056bc75e2d63100000690127fa27722cc06cc5e282020590505b680ad78ebc5ac62000008512612a6057680ad78ebc5ac61fffff199094019368056bc75e2d6310000068280e60114edb805d0382020590505b68056bc75e2d631000008512612a995768056bc75e2d630fffff199094019368056bc75e2d63100000680ebc5fb4174612111082020590505b6802b5e3af16b18800008512612ad2576802b5e3af16b187ffff199094019368056bc75e2d631000006808f00f760a4b2db55d82020590505b68015af1d78b58c400008512612b0b5768015af1d78b58c3ffff199094019368056bc75e2d631000006806f5f177578893793782020590505b68056bc75e2d631000008581019086906002908280020505918201919050600368056bc75e2d631000008883020505918201919050600468056bc75e2d631000008883020505918201919050600568056bc75e2d631000008883020505918201919050600668056bc75e2d631000008883020505918201919050600768056bc75e2d631000008883020505918201919050600868056bc75e2d631000008883020505918201919050600968056bc75e2d631000008883020505918201919050600a68056bc75e2d631000008883020505918201919050600b68056bc75e2d631000008883020505918201919050600c68056bc75e2d6310000088830205059182019190505f606468056bc75e2d6310000085850205860205905085612c305780612c4f565b806a0c097ce7bc90715b34b9f160241b81612c4d57612c4d613da3565b055b98975050505050505050565b611549613df2565b6001600160a01b03169052565b6001600160a01b0391909116815260200190565b5f60208284031215612c94575f5ffd5b81356001600160401b03811115612ca9575f5ffd5b82016101808185031215612cbb575f5ffd5b9392505050565b6001600160a01b0381168114612cd6575f5ffd5b50565b8035612ce481612cc2565b919050565b803560048110612ce4575f5ffd5b634e487b7160e01b5f52604160045260245ffd5b60405161014081016001600160401b0381118282101715612d2e57612d2e612cf7565b60405290565b604051606081016001600160401b0381118282101715612d2e57612d2e612cf7565b604051601f8201601f191681016001600160401b0381118282101715612d7e57612d7e612cf7565b604052919050565b5f6001600160401b03821115612d9e57612d9e612cf7565b5060051b60200190565b5f82601f830112612db7575f5ffd5b8135612dca612dc582612d86565b612d56565b8082825260208201915060208360051b860101925085831115612deb575f5ffd5b602085015b83811015612e08578035835260209283019201612df0565b5095945050505050565b5f82601f830112612e21575f5ffd5b81356001600160401b03811115612e3a57612e3a612cf7565b612e4d601f8201601f1916602001612d56565b818152846020838601011115612e61575f5ffd5b816020850160208301375f918101602001919091529392505050565b5f5f5f5f5f5f5f5f610100898b031215612e95575f5ffd5b612e9e89612cd9565b9750612eac60208a01612cd9565b9650612eba60408a01612ce9565b95506060890135945060808901356001600160401b03811115612edb575f5ffd5b612ee78b828c01612da8565b94505060a08901356001600160401b03811115612f02575f5ffd5b612f0e8b828c01612da8565b93505060c08901356001600160401b03811115612f29575f5ffd5b612f358b828c01612da8565b92505060e08901356001600160401b03811115612f50575f5ffd5b612f5c8b828c01612e12565b9150509295985092959890939650565b5f8151808452602084019350602083015f5b82811015612f9c578151865260209586019590910190600101612f7e565b5093949350505050565b8215158152604060208201525f610b336040830184612f6c565b602081525f82516102406020840152612fdd610260840182612f6c565b90506020840151601f19848303016040850152612ffa8282612f6c565b9150506040840151606084015260608401516080840152608084015160a084015260a0840151601f198483030160c08501526130368282612f6c565b91505060c084015160e084015260e08401516101008401526101008401516101208401526101208401516101408401526101408401516101608401526101608401516101808401526101808401516101a08401526101a08401516130a36101c085018263ffffffff169052565b506101c084015163ffffffff81166101e0850152506101e08401518015156102008501525061020084015180151561022085015250610220840151801515610240850152509392505050565b5f5f5f60608486031215613101575f5ffd5b83356001600160401b03811115613116575f5ffd5b61312286828701612da8565b9350506020840135915060408401356001600160401b03811115613144575f5ffd5b61315086828701612e12565b9150509250925092565b5f60e0828403121561316a575f5ffd5b50919050565b5f5f60408385031215613181575f5ffd5b82356001600160401b03811115613196575f5ffd5b6131a28582860161315a565b92505060208301356131b381612cc2565b809150509250929050565b5f8151808452602084019350602083015f5b82811015612f9c5781516001600160a01b03168652602095860195909101906001016131d0565b602081525f825161024060208401526132146102608401826131be565b90506020840151601f198483030160408501526132318282612f6c565b9150506040840151613247606085018215159052565b506060840151801515608085015250608084015160a084015260a084015160c084015260c084015160e084015260e08401516101008401526101008401516101208401526101208401516101408401526101408401516101608401526101608401516132b7610180850182612c63565b506101808401516101a08401526101a08401516101c08401526101c08401516101e08401526101e08401516102008401526102008401516102208401526102208401516102408401528091505092915050565b803560058110612ce4575f5ffd5b5f5f5f5f5f5f5f5f610100898b031215613330575f5ffd5b61333989612cd9565b975061334760208a01612cd9565b965061335560408a0161330a565b955060608901356001600160401b0381111561336f575f5ffd5b61337b8b828c01612da8565b95505060808901356001600160401b03811115613396575f5ffd5b6133a28b828c01612da8565b94505060a0890135925060c08901356001600160401b03811115612f29575f5ffd5b5f5f5f606084860312156133d6575f5ffd5b83356001600160401b038111156133eb575f5ffd5b6133f78682870161315a565b935050602084013561340881612cc2565b929592945050506040919091013590565b60028110612cd6575f5ffd5b8035612ce481613419565b634e487b7160e01b5f52602160045260245ffd5b6002811061345457613454613430565b9052565b5f5f8335601e1984360301811261346d575f5ffd5b83016020810192503590506001600160401b0381111561348b575f5ffd5b803603821315613499575f5ffd5b9250929050565b81835281816020850137505f828201602090810191909152601f909101601f19169091010190565b602081526134e1602082016134dc84613425565b613444565b5f6134ee60208401612cd9565b6134fb6040840182612c63565b5061350860408401612cd9565b6135156060840182612c63565b50606083013560808381019190915283013560a08084019190915283013560c08084019190915283013560e080840191909152830135610100808401919091528301356101208084019190915261356d908401612cd9565b61357b610140840182612c63565b506135896101408401612cd9565b613597610160840182612c63565b506135a6610160840184613458565b61018080850152611ddf6101a0850182846134a0565b80518015158114612ce4575f5ffd5b5f5f604083850312156135dc575f5ffd5b6135e5836135bc565b6020939093015192949293505050565b5f81518084528060208401602086015e5f602082860101526020601f19601f83011685010191505092915050565b6001600160a01b038981168252881660208201525f6004881061364857613648613430565b876040830152866060830152610100608083015261366a610100830187612f6c565b82810360a084015261367c8187612f6c565b905082810360c08401526136908186612f6c565b905082810360e08401526136a481856135f5565b9b9a5050505050505050505050565b5f82601f8301126136c2575f5ffd5b81516136d0612dc582612d86565b8082825260208201915060208360051b8601019250858311156136f1575f5ffd5b602085015b83811015612e085780518352602092830192016136f6565b5f5f6040838503121561371f575f5ffd5b613728836135bc565b60208401519092506001600160401b03811115613743575f5ffd5b61374f858286016136b3565b9150509250929050565b5f60208284031215613769575f5ffd5b81516001600160401b0381111561377e575f5ffd5b610b33848285016136b3565b5f5f6040838503121561379b575f5ffd5b82516001600160401b038111156137b0575f5ffd5b6137bc858286016136b3565b602085015190935090506001600160401b03811115613743575f5ffd5b5f602082840312156137e9575f5ffd5b5051919050565b5f60808284031215613800575f5ffd5b604051608081016001600160401b038111828210171561382257613822612cf7565b604052905080613831836135bc565b815261383f602084016135bc565b6020820152613850604084016135bc565b6040820152613861606084016135bc565b60608201525092915050565b805164ffffffffff81168114612ce4575f5ffd5b805163ffffffff81168114612ce4575f5ffd5b5f6101a08284031280156138a6575f5ffd5b506138af612d0b565b6138b984846137f0565b81526080830151602082015260a0830151604082015260c083015160608201526138e560e0840161386d565b60808201526138f76101008401613881565b60a082015261390961012084016135bc565b60c082015261391b61014084016135bc565b60e082015261392d61016084016135bc565b61010082015261394061018084016135bc565b6101208201529392505050565b606081525f61395f6060830186612f6c565b8460208401528281036040840152611a7e81856135f5565b5f60208284031215613987575f5ffd5b610c24826135bc565b8183525f6001600160fb1b038311156139a7575f5ffd5b8260051b80836020870137939093016020019392505050565b5f81356139cc81613419565b6139d68482613444565b5060208281013590840152604082013536839003601e190181126139f8575f5ffd5b82016020810190356001600160401b03811115613a13575f5ffd5b8060051b3603821315613a24575f5ffd5b60e06040860152613a3960e086018284613990565b60608581013590870152608080860135908701529150613a5d905060a08401612cd9565b613a6a60a0860182612c63565b50613a7860c0840184613458565b85830360c0870152611a7e8382846134a0565b604081525f613a9d60408301856139c0565b905060018060a01b03831660208301529392505050565b5f82601f830112613ac3575f5ffd5b8151613ad1612dc582612d86565b8082825260208201915060208360051b860101925085831115613af2575f5ffd5b602085015b83811015612e08578051613b0a81612cc2565b835260209283019201613af7565b5f60208284031215613b28575f5ffd5b81516001600160401b03811115613b3d575f5ffd5b610b3384828501613ab4565b5f5f5f5f60808587031215613b5c575f5ffd5b84516001600160401b03811115613b71575f5ffd5b613b7d87828801613ab4565b602087015190955090506001600160401b03811115613b9a575f5ffd5b8501601f81018713613baa575f5ffd5b8051613bb8612dc582612d86565b80828252602082019150602060608402850101925089831115613bd9575f5ffd5b6020840193505b82841015613c44576060848b031215613bf7575f5ffd5b613bff612d34565b8451613c0a81613419565b81526020850151613c1a81612cc2565b6020820152613c2b604086016135bc565b6040820152825260609390930192602090910190613be0565b6040890151909650925050506001600160401b03811115613c63575f5ffd5b613c6f878288016136b3565b606087015190935090506001600160401b03811115613c8c575f5ffd5b613c98878288016136b3565b91505092959194509250565b6001600160a01b038981168252881660208201525f60058810613cc957613cc9613430565b8760408301526101006060830152613ce5610100830188612f6c565b8281036080840152613cf78188612f6c565b90508560a084015282810360c08401526136908186612f6c565b606081525f613d2360608301866139c0565b6001600160a01b039490941660208301525060400152919050565b634e487b7160e01b5f52603260045260245ffd5b634e487b7160e01b5f52601160045260245ffd5b80820180821115610c2757610c27613d52565b81810381811115610c2757610c27613d52565b8082028115828204841417610c2757610c27613d52565b634e487b7160e01b5f52601260045260245ffd5b5f82613dd157634e487b7160e01b5f52601260045260245ffd5b500490565b63ffffffff8281168282160390811115610c2757610c27613d52565b634e487b7160e01b5f52605160045260245ffdfea2646970667358221220261b965f69fa42c4c30d45a1660cacde7ced69fe139afd63abf6424a052afd5264736f6c634300081e0033","linkReferences":{}},"methodIdentifiers":{"computeCurrentFourthRootPriceRatio()":"569ee350","computeCurrentPoolCenteredness()":"cd80a1af","computeCurrentPriceRange()":"84254cf9","computeCurrentPriceRatio()":"a103b044","computeCurrentSpotPrice()":"c0209f1d","computeCurrentVirtualBalances()":"4f149b3f","getCenterednessMargin()":"1d8a5e7e","getDailyPriceShiftBase()":"215666a8","getDailyPriceShiftExponent()":"4efd88c9","getLastTimestamp()":"37899770","getLastVirtualBalances()":"105ae7ad","getPriceRatioState()":"6bd838c7","getReClammPoolDynamicData()":"2c357688","getReClammPoolImmutableData()":"7f118b90","isPoolWithinTargetRangeUsingCurrentVirtualBalances()":"c480b9e6","onAfterAddLiquidity(address,address,uint8,uint256[],uint256[],uint256,uint256[],bytes)":"976907cc","onAfterInitialize(uint256[],uint256,bytes)":"38be241d","onAfterRemoveLiquidity(address,address,uint8,uint256,uint256[],uint256[],uint256[],bytes)":"2754888d","onAfterSwap((uint8,address,address,uint256,uint256,uint256,uint256,uint256,uint256,address,address,bytes))":"18b6eb55","onBeforeSwap((uint8,uint256,uint256[],uint256,uint256,address,bytes),address)":"5211fa77","onComputeDynamicSwapFeePercentage((uint8,uint256,uint256[],uint256,uint256,address,bytes),address,uint256)":"a0e8f5ac","pool()":"16f0115b"},"id":908}