{"abi":[{"type":"receive","stateMutability":"payable"},{"type":"function","name":"addLiquidityCustom","inputs":[{"name":"pool","type":"address","internalType":"address"},{"name":"maxAmountsIn","type":"uint256[]","internalType":"uint256[]"},{"name":"minBptAmountOut","type":"uint256","internalType":"uint256"},{"name":"wethIsEth","type":"bool","internalType":"bool"},{"name":"userData","type":"bytes","internalType":"bytes"}],"outputs":[{"name":"amountsIn","type":"uint256[]","internalType":"uint256[]"},{"name":"bptAmountOut","type":"uint256","internalType":"uint256"},{"name":"returnData","type":"bytes","internalType":"bytes"}],"stateMutability":"payable"},{"type":"function","name":"addLiquidityHook","inputs":[{"name":"params","type":"tuple","internalType":"struct AddLiquidityHookParams","components":[{"name":"sender","type":"address","internalType":"address"},{"name":"pool","type":"address","internalType":"address"},{"name":"maxAmountsIn","type":"uint256[]","internalType":"uint256[]"},{"name":"minBptAmountOut","type":"uint256","internalType":"uint256"},{"name":"kind","type":"uint8","internalType":"enum AddLiquidityKind"},{"name":"wethIsEth","type":"bool","internalType":"bool"},{"name":"userData","type":"bytes","internalType":"bytes"}]}],"outputs":[{"name":"amountsIn","type":"uint256[]","internalType":"uint256[]"},{"name":"bptAmountOut","type":"uint256","internalType":"uint256"},{"name":"returnData","type":"bytes","internalType":"bytes"}],"stateMutability":"nonpayable"},{"type":"function","name":"addLiquidityProportional","inputs":[{"name":"pool","type":"address","internalType":"address"},{"name":"maxAmountsIn","type":"uint256[]","internalType":"uint256[]"},{"name":"exactBptAmountOut","type":"uint256","internalType":"uint256"},{"name":"wethIsEth","type":"bool","internalType":"bool"},{"name":"userData","type":"bytes","internalType":"bytes"}],"outputs":[{"name":"amountsIn","type":"uint256[]","internalType":"uint256[]"}],"stateMutability":"payable"},{"type":"function","name":"addLiquiditySingleTokenExactOut","inputs":[{"name":"pool","type":"address","internalType":"address"},{"name":"tokenIn","type":"address","internalType":"contract IERC20"},{"name":"maxAmountIn","type":"uint256","internalType":"uint256"},{"name":"exactBptAmountOut","type":"uint256","internalType":"uint256"},{"name":"wethIsEth","type":"bool","internalType":"bool"},{"name":"userData","type":"bytes","internalType":"bytes"}],"outputs":[{"name":"amountIn","type":"uint256","internalType":"uint256"}],"stateMutability":"payable"},{"type":"function","name":"addLiquidityUnbalanced","inputs":[{"name":"pool","type":"address","internalType":"address"},{"name":"exactAmountsIn","type":"uint256[]","internalType":"uint256[]"},{"name":"minBptAmountOut","type":"uint256","internalType":"uint256"},{"name":"wethIsEth","type":"bool","internalType":"bool"},{"name":"userData","type":"bytes","internalType":"bytes"}],"outputs":[{"name":"bptAmountOut","type":"uint256","internalType":"uint256"}],"stateMutability":"payable"},{"type":"function","name":"donate","inputs":[{"name":"pool","type":"address","internalType":"address"},{"name":"amountsIn","type":"uint256[]","internalType":"uint256[]"},{"name":"wethIsEth","type":"bool","internalType":"bool"},{"name":"userData","type":"bytes","internalType":"bytes"}],"outputs":[],"stateMutability":"payable"},{"type":"function","name":"facetFuncs","inputs":[],"outputs":[{"name":"funcs","type":"bytes4[]","internalType":"bytes4[]"}],"stateMutability":"pure"},{"type":"function","name":"facetInterfaces","inputs":[],"outputs":[{"name":"interfaces","type":"bytes4[]","internalType":"bytes4[]"}],"stateMutability":"pure"},{"type":"function","name":"facetMetadata","inputs":[],"outputs":[{"name":"name_","type":"string","internalType":"string"},{"name":"interfaces","type":"bytes4[]","internalType":"bytes4[]"},{"name":"functions","type":"bytes4[]","internalType":"bytes4[]"}],"stateMutability":"pure"},{"type":"function","name":"facetName","inputs":[],"outputs":[{"name":"name","type":"string","internalType":"string"}],"stateMutability":"pure"},{"type":"function","name":"getSender","inputs":[],"outputs":[{"name":"","type":"address","internalType":"address"}],"stateMutability":"view"},{"type":"function","name":"queryAddLiquidityCustom","inputs":[{"name":"pool","type":"address","internalType":"address"},{"name":"maxAmountsIn","type":"uint256[]","internalType":"uint256[]"},{"name":"minBptAmountOut","type":"uint256","internalType":"uint256"},{"name":"sender","type":"address","internalType":"address"},{"name":"userData","type":"bytes","internalType":"bytes"}],"outputs":[{"name":"amountsIn","type":"uint256[]","internalType":"uint256[]"},{"name":"bptAmountOut","type":"uint256","internalType":"uint256"},{"name":"returnData","type":"bytes","internalType":"bytes"}],"stateMutability":"nonpayable"},{"type":"function","name":"queryAddLiquidityHook","inputs":[{"name":"params","type":"tuple","internalType":"struct AddLiquidityHookParams","components":[{"name":"sender","type":"address","internalType":"address"},{"name":"pool","type":"address","internalType":"address"},{"name":"maxAmountsIn","type":"uint256[]","internalType":"uint256[]"},{"name":"minBptAmountOut","type":"uint256","internalType":"uint256"},{"name":"kind","type":"uint8","internalType":"enum AddLiquidityKind"},{"name":"wethIsEth","type":"bool","internalType":"bool"},{"name":"userData","type":"bytes","internalType":"bytes"}]}],"outputs":[{"name":"amountsIn","type":"uint256[]","internalType":"uint256[]"},{"name":"bptAmountOut","type":"uint256","internalType":"uint256"},{"name":"returnData","type":"bytes","internalType":"bytes"}],"stateMutability":"nonpayable"},{"type":"function","name":"queryAddLiquidityProportional","inputs":[{"name":"pool","type":"address","internalType":"address"},{"name":"exactBptAmountOut","type":"uint256","internalType":"uint256"},{"name":"sender","type":"address","internalType":"address"},{"name":"userData","type":"bytes","internalType":"bytes"}],"outputs":[{"name":"amountsIn","type":"uint256[]","internalType":"uint256[]"}],"stateMutability":"nonpayable"},{"type":"function","name":"queryAddLiquiditySingleTokenExactOut","inputs":[{"name":"pool","type":"address","internalType":"address"},{"name":"tokenIn","type":"address","internalType":"contract IERC20"},{"name":"exactBptAmountOut","type":"uint256","internalType":"uint256"},{"name":"sender","type":"address","internalType":"address"},{"name":"userData","type":"bytes","internalType":"bytes"}],"outputs":[{"name":"amountIn","type":"uint256","internalType":"uint256"}],"stateMutability":"nonpayable"},{"type":"function","name":"queryAddLiquidityUnbalanced","inputs":[{"name":"pool","type":"address","internalType":"address"},{"name":"exactAmountsIn","type":"uint256[]","internalType":"uint256[]"},{"name":"sender","type":"address","internalType":"address"},{"name":"userData","type":"bytes","internalType":"bytes"}],"outputs":[{"name":"bptAmountOut","type":"uint256","internalType":"uint256"}],"stateMutability":"nonpayable"},{"type":"error","name":"EthTransfer","inputs":[]},{"type":"error","name":"FailedCall","inputs":[]},{"type":"error","name":"InsufficientBalance","inputs":[{"name":"balance","type":"uint256","internalType":"uint256"},{"name":"needed","type":"uint256","internalType":"uint256"}]},{"type":"error","name":"InsufficientEth","inputs":[]},{"type":"error","name":"InsufficientPayment","inputs":[{"name":"token","type":"address","internalType":"contract IERC20"}]},{"type":"error","name":"ReentrancyGuardReentrantCall","inputs":[]},{"type":"error","name":"SenderIsNotVault","inputs":[{"name":"sender","type":"address","internalType":"address"}]},{"type":"error","name":"SwapDeadline","inputs":[]}],"bytecode":{"object":"0x6080604052348015600e575f5ffd5b506124878061001c5f395ff3fe6080604052600436106100c5575f3560e01c80630ca078ec146101095780631d56798d146101345780632ea8082614610161578063452db95214610182578063574a4cff146101a15780635b343791146101b55780635b6f4d01146101d45780635e01eb5a146101f5578063724dba331461021657806372657d17146102365780639de9051814610249578063bf6ee3fd14610268578063c08bc8511461027b578063da001f7d1461028e578063efd85f14146102ad578063f10d7a75146102cc575f5ffd5b36610105576100d26102ef565b6001600160a01b0316336001600160a01b031614610103576040516302a06efb60e11b815260040160405180910390fd5b005b5f5ffd5b61011c610117366004611b0a565b61030d565b60405161012b93929190611c02565b60405180910390f35b34801561013f575f5ffd5b5061015361014e366004611c2c565b610363565b60405190815260200161012b565b34801561016c575f5ffd5b506101756103e7565b60405161012b9190611cac565b34801561018d575f5ffd5b5061011c61019c366004611cc5565b61043f565b3480156101ac575f5ffd5b50610175610460565b3480156101c0575f5ffd5b5061011c6101cf366004611d22565b6106c5565b3480156101df575f5ffd5b506101e8610703565b60405161012b9190611d58565b348015610200575f5ffd5b50610209610734565b60405161012b9190611d6a565b610229610224366004611b0a565b61073d565b60405161012b9190611d7e565b610153610244366004611d90565b610783565b348015610254575f5ffd5b50610229610263366004611e11565b610803565b610103610276366004611e78565b610859565b610153610289366004611b0a565b610888565b348015610299575f5ffd5b506101536102a8366004611ecd565b6108cd565b3480156102b8575f5ffd5b5061011c6102c7366004611d22565b610910565b3480156102d7575f5ffd5b506102e0610933565b60405161012b93929190611f22565b5f6103086102fb61095b565b546001600160a01b031690565b905090565b60605f6060335f61031d8261097f565b90505f610330338c8c8c60048d8d6109ad565b9050808060200190518101906103469190611fa7565b9550955095505061035681610ad2565b5050955095509592505050565b5f825f61036f8261097f565b90505f806103858a8a6001600160801b03610ae4565b915091505f6103988b848b60028b610bd5565b90505f818060200190518101906103af9190611fa7565b505090508083815181106103c5576103c561206b565b60200260200101519650505050506103dc81610ad2565b505095945050505050565b60408051600180825281830190925260609160208083019080368337019050509050637a1dbb1f60e01b815f815181106104235761042361206b565b6001600160e01b03199092166020928302919091019091015290565b60605f6060845f61044f8261097f565b90505f6103308b8b8b60048b610bd5565b60408051600b8082526101808201909252606091602082016101608036833701905050905063724dba3360e01b815f8151811061049f5761049f61206b565b6001600160e01b03199092166020928302919091019091015280516313bd20a360e31b90829060019081106104d6576104d661206b565b6001600160e01b031990921660209283029190910190910152805163c08bc85160e01b908290600290811061050d5761050d61206b565b6001600160e01b031990921660209283029190910190910152805163da001f7d60e01b90829060039081106105445761054461206b565b6001600160e01b03199092166020928302919091019091015280516372657d1760e01b908290600490811061057b5761057b61206b565b6001600160e01b0319909216602092830291909101909101528051631d56798d60e01b90829060059081106105b2576105b261206b565b6001600160e01b031990921660209283029190910190910152805163bf6ee3fd60e01b90829060069081106105e9576105e961206b565b6001600160e01b03199092166020928302919091019091015280516303281e3b60e21b90829060079081106106205761062061206b565b6001600160e01b0319909216602092830291909101909101528051632296dca960e11b90829060089081106106575761065761206b565b6001600160e01b0319909216602092830291909101909101528051635b34379160e01b908290600990811061068e5761068e61206b565b6001600160e01b0319909216602092830291909101909101528051633bf617c560e21b908290600a9081106104235761042361206b565b60605f60606106d2610cf5565b6106dc6001610d29565b6106e4610d3e565b6106ed84610d84565b9250925092506106fc5f610d29565b9193909250565b604080518082019091526017815276149bdd5d195c905919131a5c5d5a591a5d1e519858d95d604a1b602082015290565b5f610308610f4d565b6060335f61074a8261097f565b90505f61075c338a8a8a5f8b8b6109ad565b9050808060200190518101906107729190611fa7565b90505080945050506103dc81610ad2565b5f335f61078f8261097f565b90505f5f61079e8b8b8b610ae4565b915091505f6107b3338d858c60028d8d6109ad565b90505f818060200190518101906107ca9190611fa7565b505090508083815181106107e0576107e061206b565b60200260200101519650505050506107f781610ad2565b50509695505050505050565b6060825f6108108261097f565b90505f610828886108208a610f56565b895f89610bd5565b90508080602001905181019061083e9190611fa7565b905050809450505061084f81610ad2565b5050949350505050565b335f6108648261097f565b90506108763387875f600389896109ad565b5061088081610ad2565b505050505050565b5f335f6108948261097f565b90505f6108a7338a8a8a60018b8b6109ad565b9050808060200190518101906108bd9190611fa7565b5094506103dc9150829050610ad2565b5f825f6108d98261097f565b90505f6108ea88885f600189610bd5565b9050808060200190518101906109009190611fa7565b50945061084f9150829050610ad2565b60605f606061091d610d3e565b61092684611059565b9250925092509193909250565b6060806060610940610703565b925061094a6103e7565b9150610954610460565b9050909192565b7f0e5e42310baee45bff0964e63930bd3ef41981ccc7a033d2803019558bd2313e90565b5f5f6109896111d5565b90506001600160a01b0381166109a7576109a2836111e7565b600191505b50919050565b60606109b76111fc565b6001600160a01b03166348c89491306001600160a01b0316635b3437916040518060e001604052808d6001600160a01b031681526020018c6001600160a01b031681526020018b81526020018a8152602001896004811115610a1b57610a1b61207f565b8152602001881515815260200187815250604051602401610a3c91906120b3565b60408051808303601f1901815291815260208201805160e094851b6001600160e01b03909116179052519184901b6001600160e01b0319168252610a84925090600401611d58565b5f604051808303815f875af1158015610a9f573d5f5f3e3d5ffd5b505050506040513d5f823e601f3d908101601f19168201604052610ac69190810190612140565b98975050505050505050565b8015610ae157610ae15f6111e7565b50565b60605f5f610af06111fc565b60405163c9c1661b60e01b81526001600160a01b03888116600483015287811660248301529192505f9183169063c9c1661b906044016040805180830381865afa158015610b40573d5f5f3e3d5ffd5b505050506040513d601f19601f82011682018060405250810190610b649190612179565b93509050806001600160401b03811115610b8057610b806119ba565b604051908082528060200260200182016040528015610ba9578160200160208202803683370190505b50935084848481518110610bbf57610bbf61206b565b6020026020010181815250505050935093915050565b6060610bdf6111fc565b6001600160a01b031663edfa3568306001600160a01b031663efd85f146040518060e00160405280306001600160a01b031681526020018b6001600160a01b031681526020018a8152602001898152602001886004811115610c4357610c4361207f565b81525f6020820152604090810188905251610c6191906024016120b3565b60408051808303601f1901815291815260208201805160e094851b6001600160e01b03909116179052519184901b6001600160e01b0319168252610ca9925090600401611d58565b5f604051808303815f875af1158015610cc4573d5f5f3e3d5ffd5b505050506040513d5f823e601f3d908101601f19168201604052610ceb9190810190612140565b9695505050505050565b5f5160206124325f395f51905f52805c908115610d2557604051633ee5aeb560e01b815260040160405180910390fd5b5050565b5f5160206124325f395f51905f5281815d5050565b610d466111fc565b6001600160a01b0316336001600160a01b031614610d82573360405163089676d560e01b8152600401610d799190611d6a565b60405180910390fd5b565b60605f60605f610d926111fc565b90505f610d9d6102ef565b90505f610da8611218565b9050826001600160a01b0316634af29ec46040518060c001604052808a6020016020810190610dd7919061219b565b6001600160a01b03168152602090810190610df4908c018c61219b565b6001600160a01b03168152602001610e0f60408c018c6121b6565b808060200260200160405190810160405280939291908181526020018383602002808284375f9201919091525050509082525060608b01356020820152604001610e5f60a08c0160808d01612202565b6004811115610e7057610e7061207f565b8152602001610e8260c08c018c612220565b8080601f0160208091040260200160405190810160405280939291908181526020018383808284375f9201919091525050509152506040516001600160e01b031960e084901b168152610ed89190600401612262565b5f604051808303815f875af1158015610ef3573d5f5f3e3d5ffd5b505050506040513d5f823e601f3d908101601f19168201604052610f1a9190810190611fa7565b91975095509350610f2e8787858585611235565b610f43610f3e602089018961219b565b611460565b5050509193909250565b5f6103086111d5565b60605f610f616111fc565b90505f816001600160a01b031663ca4f2803856040518263ffffffff1660e01b8152600401610f909190611d6a565b5f60405180830381865afa158015610faa573d5f5f3e3d5ffd5b505050506040513d5f823e601f3d908101601f19168201604052610fd191908101906122d9565b519050806001600160401b03811115610fec57610fec6119ba565b604051908082528060200260200182016040528015611015578160200160208202803683370190505b5092505f5b81811015611051576001600160801b03801684828151811061103e5761103e61206b565b602090810291909101015260010161101a565b505050919050565b60605f60606110666111fc565b6001600160a01b0316634af29ec46040518060c00160405280876020016020810190611092919061219b565b6001600160a01b031681526020908101906110af9089018961219b565b6001600160a01b031681526020016110ca60408901896121b6565b808060200260200160405190810160405280939291908181526020018383602002808284375f920191909152505050908252506060880135602082015260400161111a60a0890160808a01612202565b600481111561112b5761112b61207f565b815260200161113d60c0890189612220565b8080601f0160208091040260200160405190810160405280939291908181526020018383808284375f9201919091525050509152506040516001600160e01b031960e084901b1681526111939190600401612262565b5f604051808303815f875af11580156111ae573d5f5f3e3d5ffd5b505050506040513d5f823e601f3d908101601f191682016040526109269190810190611fa7565b5f5160206124125f395f51905f525c90565b5f5160206124125f395f51905f5281815d5050565b5f61030861120861095b565b600201546001600160a01b031690565b5f61030861122461095b565b60020154600160a01b900460ff1690565b5f6001600160a01b03841663ca4f28036112556040890160208a0161219b565b6040518263ffffffff1660e01b81526004016112719190611d6a565b5f60405180830381865afa15801561128b573d5f5f3e3d5ffd5b505050506040513d5f823e601f3d908101601f191682016040526112b291908101906122d9565b90505f5b8151811015611457575f8282815181106112d2576112d261206b565b602002602001015190505f8783815181106112ef576112ef61206b565b60200260200101519050805f0361130757505061144f565b84158061133c575061131f60c08a0160a08b01612368565b801561133c5750856001600160a01b0316826001600160a01b0316145b1561136d5761136861135160208b018b61219b565b838361136360c08e0160a08f01612368565b6114ab565b61144c565b5f61137b60408b018b6121b6565b8581811061138b5761138b61206b565b9050602002013590505f886001600160a01b03166315afd40985846040518363ffffffff1660e01b81526004016113c3929190612383565b6020604051808303815f875af11580156113df573d5f5f3e3d5ffd5b505050506040513d601f19601f82011682018060405250810190611403919061239c565b90508181101561142857836040516302150b5560e01b8152600401610d799190611d6a565b61144961143860208d018d61219b565b8561144386856123b3565b5f611746565b50505b50505b6001016112b6565b50505050505050565b475f81900361146d575050565b7f19c2f6f76e6091adc2e8f63fc8cd9da9e3a8e9d5d1c4ae5d8f8e0f6c7b8a9d005c15611498575050565b610d256001600160a01b038316826118b6565b5f6114b46102ef565b90505f6114bf6111fc565b90505f6114ca611955565b90508380156114ea5750826001600160a01b0316866001600160a01b0316145b1561164357844710156115105760405163500d4efb60e11b815260040160405180910390fd5b826001600160a01b031663d0e30db0866040518263ffffffff1660e01b81526004015f604051808303818588803b158015611549575f5ffd5b505af115801561155b573d5f5f3e3d5ffd5b505060405163a9059cbb60e01b81526001600160a01b038716935063a9059cbb925061158e915085908990600401612383565b6020604051808303815f875af11580156115aa573d5f5f3e3d5ffd5b505050506040513d601f19601f820116820180604052508101906115ce91906123d2565b506040516315afd40960e01b81526001600160a01b038316906315afd409906115fd9089908990600401612383565b6020604051808303815f875af1158015611619573d5f5f3e3d5ffd5b505050506040513d601f19601f8201168201806040525081019061163d919061239c565b50611457565b841561145757806001600160a01b03166336c78516888461166389611971565b6040516001600160e01b031960e086901b1681526001600160a01b03938416600482015291831660248301528216604482015290891660648201526084015f604051808303815f87803b1580156116b8575f5ffd5b505af11580156116ca573d5f5f3e3d5ffd5b50506040516315afd40960e01b81526001600160a01b03851692506315afd40991506116fc9089908990600401612383565b6020604051808303815f875af1158015611718573d5f5f3e3d5ffd5b505050506040513d601f19601f8201168201806040525081019061173c919061239c565b5050505050505050565b81156118b0575f6117556102ef565b90505f6117606111fc565b90508280156117805750816001600160a01b0316856001600160a01b0316145b156118505760405163ae63932960e01b81526001600160a01b0382169063ae639329906117b5908890309089906004016123ed565b5f604051808303815f87803b1580156117cc575f5ffd5b505af11580156117de573d5f5f3e3d5ffd5b5050604051632e1a7d4d60e01b8152600481018790526001600160a01b0385169250632e1a7d4d91506024015f604051808303815f87803b158015611821575f5ffd5b505af1158015611833573d5f5f3e3d5ffd5b5061184b925050506001600160a01b038716856118b6565b610880565b60405163ae63932960e01b81526001600160a01b0382169063ae639329906118809088908a9089906004016123ed565b5f604051808303815f87803b158015611897575f5ffd5b505af11580156118a9573d5f5f3e3d5ffd5b5050505050505b50505050565b804710156118e05760405163cf47918160e01b815247600482015260248101829052604401610d79565b5f826001600160a01b0316826040515f6040518083038185875af1925050503d805f8114611929576040519150601f19603f3d011682016040523d82523d5f602084013e61192e565b606091505b50509050806119505760405163d6bda27560e01b815260040160405180910390fd5b505050565b5f61030861196161095b565b600101546001600160a01b031690565b5f61197b82611981565b92915050565b5f600160a01b821061199557611995611999565b5090565b6335278d125f526004601cfd5b6001600160a01b0381168114610ae1575f5ffd5b634e487b7160e01b5f52604160045260245ffd5b604051601f8201601f191681016001600160401b03811182821017156119f6576119f66119ba565b604052919050565b5f6001600160401b03821115611a1657611a166119ba565b5060051b60200190565b5f82601f830112611a2f575f5ffd5b8135611a42611a3d826119fe565b6119ce565b8082825260208201915060208360051b860101925085831115611a63575f5ffd5b602085015b83811015611a80578035835260209283019201611a68565b5095945050505050565b8015158114610ae1575f5ffd5b5f6001600160401b03821115611aaf57611aaf6119ba565b50601f01601f191660200190565b5f82601f830112611acc575f5ffd5b8135611ada611a3d82611a97565b818152846020838601011115611aee575f5ffd5b816020850160208301375f918101602001919091529392505050565b5f5f5f5f5f60a08688031215611b1e575f5ffd5b8535611b29816119a6565b945060208601356001600160401b03811115611b43575f5ffd5b611b4f88828901611a20565b945050604086013592506060860135611b6781611a8a565b915060808601356001600160401b03811115611b81575f5ffd5b611b8d88828901611abd565b9150509295509295909350565b5f8151808452602084019350602083015f5b82811015611bca578151865260209586019590910190600101611bac565b5093949350505050565b5f81518084528060208401602086015e5f602082860101526020601f19601f83011685010191505092915050565b606081525f611c146060830186611b9a565b8460208401528281036040840152610ceb8185611bd4565b5f5f5f5f5f60a08688031215611c40575f5ffd5b8535611c4b816119a6565b94506020860135611c5b816119a6565b9350604086013592506060860135611b67816119a6565b5f8151808452602084019350602083015f5b82811015611bca5781516001600160e01b031916865260209586019590910190600101611c84565b602081525f611cbe6020830184611c72565b9392505050565b5f5f5f5f5f60a08688031215611cd9575f5ffd5b8535611ce4816119a6565b945060208601356001600160401b03811115611cfe575f5ffd5b611d0a88828901611a20565b945050604086013592506060860135611b67816119a6565b5f60208284031215611d32575f5ffd5b81356001600160401b03811115611d47575f5ffd5b820160e08185031215611cbe575f5ffd5b602081525f611cbe6020830184611bd4565b6001600160a01b0391909116815260200190565b602081525f611cbe6020830184611b9a565b5f5f5f5f5f5f60c08789031215611da5575f5ffd5b8635611db0816119a6565b95506020870135611dc0816119a6565b945060408701359350606087013592506080870135611dde81611a8a565b915060a08701356001600160401b03811115611df8575f5ffd5b611e0489828a01611abd565b9150509295509295509295565b5f5f5f5f60808587031215611e24575f5ffd5b8435611e2f816119a6565b9350602085013592506040850135611e46816119a6565b915060608501356001600160401b03811115611e60575f5ffd5b611e6c87828801611abd565b91505092959194509250565b5f5f5f5f60808587031215611e8b575f5ffd5b8435611e96816119a6565b935060208501356001600160401b03811115611eb0575f5ffd5b611ebc87828801611a20565b9350506040850135611e4681611a8a565b5f5f5f5f60808587031215611ee0575f5ffd5b8435611eeb816119a6565b935060208501356001600160401b03811115611f05575f5ffd5b611f1187828801611a20565b9350506040850135611e46816119a6565b606081525f611f346060830186611bd4565b8281036020840152611f468186611c72565b90508281036040840152610ceb8185611c72565b5f82601f830112611f69575f5ffd5b8151611f77611a3d82611a97565b818152846020838601011115611f8b575f5ffd5b8160208501602083015e5f918101602001919091529392505050565b5f5f5f60608486031215611fb9575f5ffd5b83516001600160401b03811115611fce575f5ffd5b8401601f81018613611fde575f5ffd5b8051611fec611a3d826119fe565b8082825260208201915060208360051b85010192508883111561200d575f5ffd5b6020840193505b8284101561202f578351825260209384019390910190612014565b602088015160408901519197509550925050506001600160401b03811115612055575f5ffd5b61206186828701611f5a565b9150509250925092565b634e487b7160e01b5f52603260045260245ffd5b634e487b7160e01b5f52602160045260245ffd5b600581106120af57634e487b7160e01b5f52602160045260245ffd5b9052565b602080825282516001600160a01b0390811683830152908301511660408083019190915282015160e060608301525f906120f1610100840182611b9a565b905060608401516080840152608084015161210f60a0850182612093565b5060a0840151151560c084015260c0840151601f198483030160e08501526121378282611bd4565b95945050505050565b5f60208284031215612150575f5ffd5b81516001600160401b03811115612165575f5ffd5b61217184828501611f5a565b949350505050565b5f5f6040838503121561218a575f5ffd5b505080516020909101519092909150565b5f602082840312156121ab575f5ffd5b8135611cbe816119a6565b5f5f8335601e198436030181126121cb575f5ffd5b8301803591506001600160401b038211156121e4575f5ffd5b6020019150600581901b36038213156121fb575f5ffd5b9250929050565b5f60208284031215612212575f5ffd5b813560058110611cbe575f5ffd5b5f5f8335601e19843603018112612235575f5ffd5b8301803591506001600160401b0382111561224e575f5ffd5b6020019150368190038213156121fb575f5ffd5b602080825282516001600160a01b0390811683830152908301511660408083019190915282015160c060608301525f9061229f60e0840182611b9a565b90506060840151608084015260808401516122bd60a0850182612093565b5060a0840151838203601f190160c08501526121378282611bd4565b5f602082840312156122e9575f5ffd5b81516001600160401b038111156122fe575f5ffd5b8201601f8101841361230e575f5ffd5b805161231c611a3d826119fe565b8082825260208201915060208360051b85010192508683111561233d575f5ffd5b6020840193505b82841015610ceb578351612357816119a6565b825260209384019390910190612344565b5f60208284031215612378575f5ffd5b8135611cbe81611a8a565b6001600160a01b03929092168252602082015260400190565b5f602082840312156123ac575f5ffd5b5051919050565b8181038181111561197b57634e487b7160e01b5f52601160045260245ffd5b5f602082840312156123e2575f5ffd5b8151611cbe81611a8a565b6001600160a01b03938416815291909216602082015260408101919091526060019056fe6c17b98ed641627be1f588a5e81d97edc6ddd1b560dfba5b46c2aa2c8ddd0d0085e416c3b4a964332bebb95fdf9a73cb8ded00cbd75143ad03246e01399c4247a26469706673582212206772580f15451a4800f63488abdf310eaa114b8e03f15ba93b7986fa062bed1664736f6c634300081e0033","linkReferences":{}},"methodIdentifiers":{"addLiquidityCustom(address,uint256[],uint256,bool,bytes)":"0ca078ec","addLiquidityHook((address,address,uint256[],uint256,uint8,bool,bytes))":"5b343791","addLiquidityProportional(address,uint256[],uint256,bool,bytes)":"724dba33","addLiquiditySingleTokenExactOut(address,address,uint256,uint256,bool,bytes)":"72657d17","addLiquidityUnbalanced(address,uint256[],uint256,bool,bytes)":"c08bc851","donate(address,uint256[],bool,bytes)":"bf6ee3fd","facetFuncs()":"574a4cff","facetInterfaces()":"2ea80826","facetMetadata()":"f10d7a75","facetName()":"5b6f4d01","getSender()":"5e01eb5a","queryAddLiquidityCustom(address,uint256[],uint256,address,bytes)":"452db952","queryAddLiquidityHook((address,address,uint256[],uint256,uint8,bool,bytes))":"efd85f14","queryAddLiquidityProportional(address,uint256,address,bytes)":"9de90518","queryAddLiquiditySingleTokenExactOut(address,address,uint256,address,bytes)":"1d56798d","queryAddLiquidityUnbalanced(address,uint256[],address,bytes)":"da001f7d"},"id":931}