{"abi":[{"type":"function","name":"mintToken","inputs":[{"name":"token","type":"address","internalType":"contract IERC20MintBurn"},{"name":"amount","type":"uint256","internalType":"uint256"},{"name":"recipient","type":"address","internalType":"address"}],"outputs":[{"name":"","type":"bool","internalType":"bool"}],"stateMutability":"nonpayable"},{"type":"error","name":"MinimumMintInternalNotMet","inputs":[{"name":"lastMintTimestamp","type":"uint256","internalType":"uint256"},{"name":"currentTimestamp","type":"uint256","internalType":"uint256"},{"name":"minMintInterval","type":"uint256","internalType":"uint256"}]}],"bytecode":{"object":"0x6080604052348015600e575f5ffd5b506102ba8061001c5f395ff3fe608060405234801561000f575f5ffd5b5060043610610029575f3560e01c80636dfada861461002d575b5f5ffd5b61004061003b366004610200565b610054565b604051901515815260200160405180910390f35b5f5f61005e61016a565b90505f61006b82876101c8565b90505f610079836001015490565b9050610085818361023f565b4210156100b8576040516252d0a960e71b8152600481018390524260248201526044810182905260640160405180910390fd5b5f6100c1845490565b9050808711156100cf578096505b6001600160a01b0386165f90815260028501602052604090204290556040516340c10f1960e01b81526001600160a01b038781166004830152602482018990528916906340c10f19906044016020604051808303815f875af1158015610137573d5f5f3e3d5ffd5b505050506040513d601f19601f8201168201806040525081019061015b919061025e565b50600198975050505050505050565b5f6101c36040516020016101aa906020808252601890820152776569702e6572632e32302e6d696e7465722e66616361646560401b604082015260600190565b6040516020818303038152906040528051906020012090565b905090565b6001600160a01b0381165f9081526002830160205260409020545b92915050565b6001600160a01b03811681146101fd575f5ffd5b50565b5f5f5f60608486031215610212575f5ffd5b833561021d816101e9565b9250602084013591506040840135610234816101e9565b809150509250925092565b808201808211156101e357634e487b7160e01b5f52601160045260245ffd5b5f6020828403121561026e575f5ffd5b8151801515811461027d575f5ffd5b939250505056fea2646970667358221220fd2666bb650ea06dec2f7dcc88d99644a826629a7344dfb8ffd6f6e1d4062ff664736f6c634300081e0033","linkReferences":{}},"methodIdentifiers":{"mintToken(address,uint256,address)":"6dfada86"},"id":1316}