{"abi":[{"type":"constructor","inputs":[{"name":"pkgInit","type":"tuple","internalType":"struct IBalancerV3StablePoolDFPkg.PkgInit","components":[{"name":"balancerV3VaultAwareFacet","type":"address","internalType":"contract IFacet"},{"name":"betterBalancerV3PoolTokenFacet","type":"address","internalType":"contract IFacet"},{"name":"defaultPoolInfoFacet","type":"address","internalType":"contract IFacet"},{"name":"standardSwapFeePercentageBoundsFacet","type":"address","internalType":"contract IFacet"},{"name":"unbalancedLiquidityInvariantRatioBoundsFacet","type":"address","internalType":"contract IFacet"},{"name":"balancerV3AuthenticationFacet","type":"address","internalType":"contract IFacet"},{"name":"balancerV3StablePoolFacet","type":"address","internalType":"contract IFacet"},{"name":"balancerV3Vault","type":"address","internalType":"contract IVault"},{"name":"diamondFactory","type":"address","internalType":"contract IDiamondPackageCallBackFactory"},{"name":"poolFeeManager","type":"address","internalType":"address"}]}],"stateMutability":"nonpayable"},{"type":"function","name":"BALANCER_V3_AUTHENTICATION_FACET","inputs":[],"outputs":[{"name":"","type":"address","internalType":"contract IFacet"}],"stateMutability":"view"},{"type":"function","name":"BALANCER_V3_STABLE_POOL_FACET","inputs":[],"outputs":[{"name":"","type":"address","internalType":"contract IFacet"}],"stateMutability":"view"},{"type":"function","name":"BALANCER_V3_VAULT","inputs":[],"outputs":[{"name":"","type":"address","internalType":"contract IVault"}],"stateMutability":"view"},{"type":"function","name":"BALANCER_V3_VAULT_AWARE_FACET","inputs":[],"outputs":[{"name":"","type":"address","internalType":"contract IFacet"}],"stateMutability":"view"},{"type":"function","name":"BETTER_BALANCER_V3_POOL_TOKEN_FACET","inputs":[],"outputs":[{"name":"","type":"address","internalType":"contract IFacet"}],"stateMutability":"view"},{"type":"function","name":"DEFAULT_POOL_INFO_FACET","inputs":[],"outputs":[{"name":"","type":"address","internalType":"contract IFacet"}],"stateMutability":"view"},{"type":"function","name":"DIAMOND_PACKAGE_FACTORY","inputs":[],"outputs":[{"name":"","type":"address","internalType":"contract IDiamondPackageCallBackFactory"}],"stateMutability":"view"},{"type":"function","name":"calcSalt","inputs":[{"name":"pkgArgs","type":"bytes","internalType":"bytes"}],"outputs":[{"name":"salt","type":"bytes32","internalType":"bytes32"}],"stateMutability":"pure"},{"type":"function","name":"deployPool","inputs":[{"name":"tokenConfigs_","type":"tuple[]","internalType":"struct TokenConfig[]","components":[{"name":"token","type":"address","internalType":"contract IERC20"},{"name":"tokenType","type":"uint8","internalType":"enum TokenType"},{"name":"rateProvider","type":"address","internalType":"contract IRateProvider"},{"name":"paysYieldFees","type":"bool","internalType":"bool"}]},{"name":"amplificationParameter_","type":"uint256","internalType":"uint256"},{"name":"hooksContract","type":"address","internalType":"address"}],"outputs":[{"name":"vault","type":"address","internalType":"address"}],"stateMutability":"nonpayable"},{"type":"function","name":"diamondConfig","inputs":[],"outputs":[{"name":"config","type":"tuple","internalType":"struct IDiamondFactoryPackage.DiamondConfig","components":[{"name":"facetCuts","type":"tuple[]","internalType":"struct IDiamond.FacetCut[]","components":[{"name":"facetAddress","type":"address","internalType":"address"},{"name":"action","type":"uint8","internalType":"enum IDiamond.FacetCutAction"},{"name":"functionSelectors","type":"bytes4[]","internalType":"bytes4[]"}]},{"name":"interfaces","type":"bytes4[]","internalType":"bytes4[]"}]}],"stateMutability":"view"},{"type":"function","name":"disable","inputs":[],"outputs":[],"stateMutability":"nonpayable"},{"type":"function","name":"facetAddresses","inputs":[],"outputs":[{"name":"facetAddresses_","type":"address[]","internalType":"address[]"}],"stateMutability":"view"},{"type":"function","name":"facetCuts","inputs":[],"outputs":[{"name":"facetCuts_","type":"tuple[]","internalType":"struct IDiamond.FacetCut[]","components":[{"name":"facetAddress","type":"address","internalType":"address"},{"name":"action","type":"uint8","internalType":"enum IDiamond.FacetCutAction"},{"name":"functionSelectors","type":"bytes4[]","internalType":"bytes4[]"}]}],"stateMutability":"view"},{"type":"function","name":"facetInterfaces","inputs":[],"outputs":[{"name":"interfaces","type":"bytes4[]","internalType":"bytes4[]"}],"stateMutability":"pure"},{"type":"function","name":"getActionId","inputs":[{"name":"selector","type":"bytes4","internalType":"bytes4"}],"outputs":[{"name":"","type":"bytes32","internalType":"bytes32"}],"stateMutability":"view"},{"type":"function","name":"getDeploymentAddress","inputs":[{"name":"constructorArgs","type":"bytes","internalType":"bytes"},{"name":"","type":"bytes32","internalType":"bytes32"}],"outputs":[{"name":"","type":"address","internalType":"address"}],"stateMutability":"view"},{"type":"function","name":"getNewPoolPauseWindowEndTime","inputs":[],"outputs":[{"name":"","type":"uint32","internalType":"uint32"}],"stateMutability":"view"},{"type":"function","name":"getOriginalPauseWindowEndTime","inputs":[],"outputs":[{"name":"","type":"uint32","internalType":"uint32"}],"stateMutability":"view"},{"type":"function","name":"getPauseWindowDuration","inputs":[],"outputs":[{"name":"","type":"uint32","internalType":"uint32"}],"stateMutability":"view"},{"type":"function","name":"getPoolCount","inputs":[],"outputs":[{"name":"","type":"uint256","internalType":"uint256"}],"stateMutability":"view"},{"type":"function","name":"getPools","inputs":[],"outputs":[{"name":"","type":"address[]","internalType":"address[]"}],"stateMutability":"view"},{"type":"function","name":"getPoolsInRange","inputs":[{"name":"start","type":"uint256","internalType":"uint256"},{"name":"count","type":"uint256","internalType":"uint256"}],"outputs":[{"name":"","type":"address[]","internalType":"address[]"}],"stateMutability":"view"},{"type":"function","name":"initAccount","inputs":[{"name":"initArgs","type":"bytes","internalType":"bytes"}],"outputs":[],"stateMutability":"nonpayable"},{"type":"function","name":"isDisabled","inputs":[],"outputs":[{"name":"","type":"bool","internalType":"bool"}],"stateMutability":"view"},{"type":"function","name":"isPoolFromFactory","inputs":[{"name":"pool","type":"address","internalType":"address"}],"outputs":[{"name":"","type":"bool","internalType":"bool"}],"stateMutability":"view"},{"type":"function","name":"packageMetadata","inputs":[],"outputs":[{"name":"name_","type":"string","internalType":"string"},{"name":"interfaces","type":"bytes4[]","internalType":"bytes4[]"},{"name":"facets","type":"address[]","internalType":"address[]"}],"stateMutability":"view"},{"type":"function","name":"packageName","inputs":[],"outputs":[{"name":"name_","type":"string","internalType":"string"}],"stateMutability":"pure"},{"type":"function","name":"postDeploy","inputs":[{"name":"proxy","type":"address","internalType":"address"}],"outputs":[{"name":"","type":"bool","internalType":"bool"}],"stateMutability":"nonpayable"},{"type":"function","name":"processArgs","inputs":[{"name":"pkgArgs","type":"bytes","internalType":"bytes"}],"outputs":[{"name":"processedPkgArgs","type":"bytes","internalType":"bytes"}],"stateMutability":"pure"},{"type":"function","name":"tokenConfigs","inputs":[{"name":"pool","type":"address","internalType":"address"}],"outputs":[{"name":"","type":"tuple[]","internalType":"struct TokenConfig[]","components":[{"name":"token","type":"address","internalType":"contract IERC20"},{"name":"tokenType","type":"uint8","internalType":"enum TokenType"},{"name":"rateProvider","type":"address","internalType":"contract IRateProvider"},{"name":"paysYieldFees","type":"bool","internalType":"bool"}]}],"stateMutability":"view"},{"type":"function","name":"updatePkg","inputs":[{"name":"expectedProxy","type":"address","internalType":"address"},{"name":"pkgArgs","type":"bytes","internalType":"bytes"}],"outputs":[{"name":"","type":"bool","internalType":"bool"}],"stateMutability":"nonpayable"},{"type":"event","name":"FactoryDisabled","inputs":[],"anonymous":false},{"type":"event","name":"PoolCreated","inputs":[{"name":"pool","type":"address","indexed":true,"internalType":"address"}],"anonymous":false},{"type":"error","name":"AmplificationFactorTooHigh","inputs":[]},{"type":"error","name":"AmplificationFactorTooLow","inputs":[]},{"type":"error","name":"Disabled","inputs":[]},{"type":"error","name":"IndexOutOfBounds","inputs":[]},{"type":"error","name":"IndexOutOfBounds","inputs":[{"name":"length","type":"uint256","internalType":"uint256"},{"name":"invalidIndex","type":"uint256","internalType":"uint256"},{"name":"errorCode","type":"uint256","internalType":"uint256"}]},{"type":"error","name":"InvalidAmplificationParameter","inputs":[{"name":"minAmp","type":"uint256","internalType":"uint256"},{"name":"maxAmp","type":"uint256","internalType":"uint256"},{"name":"providedAmp","type":"uint256","internalType":"uint256"}]},{"type":"error","name":"InvalidPageSize","inputs":[{"name":"start","type":"uint256","internalType":"uint256"},{"name":"end","type":"uint256","internalType":"uint256"}]},{"type":"error","name":"InvalidTokensLength","inputs":[{"name":"maxLength","type":"uint256","internalType":"uint256"},{"name":"minLength","type":"uint256","internalType":"uint256"},{"name":"providedLength","type":"uint256","internalType":"uint256"}]},{"type":"error","name":"PoolPauseWindowDurationOverflow","inputs":[]},{"type":"error","name":"SenderNotAllowed","inputs":[]},{"type":"error","name":"StringTooLong","inputs":[{"name":"str","type":"string","internalType":"string"}]}],"bytecode":{"object":"0x610160604052348015610010575f5ffd5b506040516137d13803806137d183398101604081905261002f91610258565b60e0808201516001600160a01b0390811660805261010080840151821660a09081528451831660c090815260208601518416909452604085015183169091528301518116610120908152918301511661014052810151610094906301e13380906100d8565b604080513060208201526100c491016040516020818303038152906040528051906020012061010760201b60201c565b60e08101516100d290610133565b50610350565b6101037f083b184f81c44d1555bdab2b99aeea4d11b107caca4883125bcb0b412d1f81328383610172565b5050565b6101307f82340927aad1ca6b5f8bb0037567f287e1bec629ab302d4e1debbc0d7543b1f8829055565b50565b6101307f392e49ca1983749c4549242b814e6592e6c2354a2bb55242596ce0ad2e7b100180546001600160a01b0319166001600160a01b038416179055565b5f61017d8342610322565b905063ffffffff80821611156101a6576040516368755a1160e01b815260040160405180910390fd5b8354610100600160481b0319166501000000000063ffffffff9283160264ffffffff00191617610100939091169290920291909117600160481b600160e81b03191669010000000000000000006001600160a01b039290921691909102179055565b60405161014081016001600160401b038111828210171561023757634e487b7160e01b5f52604160045260245ffd5b60405290565b80516001600160a01b0381168114610253575f5ffd5b919050565b5f61014082840312801561026a575f5ffd5b50610273610208565b61027c8361023d565b815261028a6020840161023d565b602082015261029b6040840161023d565b60408201526102ac6060840161023d565b60608201526102bd6080840161023d565b60808201526102ce60a0840161023d565b60a08201526102df60c0840161023d565b60c08201526102f060e0840161023d565b60e0820152610302610100840161023d565b610100820152610315610120840161023d565b6101208201529392505050565b63ffffffff818116838216019081111561034a57634e487b7160e01b5f52601160045260245ffd5b92915050565b60805160a05160c05160e0516101005161012051610140516133b96104185f395f81816102d8015281816109bd015281816110f1015261113701525f818161041d0152818161096901528181610ffd015261104301525f818161032e0152818161091501528181610f090152610f4f01525f8181610355015281816108c101528181610e150152610e5b01525f81816103070152818161086e01528181610d370152610d6801525f81816103cb015281816107cc015261134d01525f61039101526133b95ff3fe608060405234801561000f575f5ffd5b5060043610610173575f3560e01c80631b69dc5f146101775780632ea80826146101a05780632f2770db146101b557806344f6fec7146101bf57806352ef6b2c146101df57806353a72f7e146101f457806365d375b3146102075780636634b7531461021c578063673a2a1f1461023f5780636c57f5a91461024757806370068fcf1461024f57806378da80cb14610262578063851c1bb31461027f578063870d4838146102a057806387c3adb3146102b357806388318616146102d35780638eec5d70146102fa57806390d8c70514610302578063a2bebeb214610329578063a378544d14610350578063a4b3ad3514610377578063a4c01bbb1461038c578063a9089235146103b3578063ab6046ed146103c6578063abc8b346146103ed578063d82be56e146103f5578063db035ebc14610408578063e9d56e1914610410578063f070332514610418578063f08263fe1461043f578063f45469e714610452575b5f5ffd5b61018a6101853660046126d4565b610469565b6040516101979190612792565b60405180910390f35b6101a861047a565b60405161019791906127de565b6101bd61076e565b005b6101d26101cd3660046128f6565b6107b3565b6040516101979190612937565b6101e7610849565b6040516101979190612984565b6101e7610202366004612996565b610a12565b61020f610a1e565b6040516101979190612a4c565b61022f61022a3660046126d4565b610a59565b6040519015158152602001610197565b6101e7610a63565b61022f610a72565b61022f61025d3660046126d4565b610a7b565b61026a610af1565b60405163ffffffff9091168152602001610197565b61029261028d366004612a99565b610afa565b604051908152602001610197565b6101bd6102ae366004612ab4565b610b04565b6102c66102c1366004612ab4565b610c84565b6040516101979190612b13565b6101d27f000000000000000000000000000000000000000000000000000000000000000081565b610292610cd3565b6101d27f000000000000000000000000000000000000000000000000000000000000000081565b6101d27f000000000000000000000000000000000000000000000000000000000000000081565b6101d27f000000000000000000000000000000000000000000000000000000000000000081565b61037f610cdc565b6040516101979190612b25565b6101d27f000000000000000000000000000000000000000000000000000000000000000081565b61022f6103c1366004612b37565b6111db565b6101d27f000000000000000000000000000000000000000000000000000000000000000081565b6102c6611218565b610292610403366004612ab4565b61124b565b61026a611338565b61026a611341565b6101d27f000000000000000000000000000000000000000000000000000000000000000081565b6101d261044d366004612b83565b61134a565b61045a61146c565b60405161019793929190612c0b565b606061047482611494565b92915050565b60408051600c8082526101a0820190925260609160208201610180803683370190505090506336372b0760e01b815f815181106104b9576104b9612c4d565b60200260200101906001600160e01b03191690816001600160e01b0319168152505063a219a02560e01b816001815181106104f6576104f6612c4d565b6001600160e01b0319909216602092830291909101909101528051634a17459160e11b908290600290811061052d5761052d612c4d565b60200260200101906001600160e01b03191690816001600160e01b03191681525050634ec7fbed60e11b8160038151811061056a5761056a612c4d565b60200260200101906001600160e01b03191690816001600160e01b031916815250506342580cb760e11b816004815181106105a7576105a7612c4d565b60200260200101906001600160e01b03191690816001600160e01b03191681525050634b12c34f60e01b816005815181106105e4576105e4612c4d565b60200260200101906001600160e01b03191690816001600160e01b0319168152505063e244eef560e01b8160068151811061062157610621612c4d565b60200260200101906001600160e01b03191690816001600160e01b03191681525050637e126dc760e11b8160078151811061065e5761065e612c4d565b60200260200101906001600160e01b03191690816001600160e01b031916815250506355b60edd60e11b8160088151811061069b5761069b612c4d565b60200260200101906001600160e01b03191690816001600160e01b0319168152505063914be08960e01b816009815181106106d8576106d8612c4d565b60200260200101906001600160e01b03191690816001600160e01b0319168152505063755994e960e01b81600a8151811061071557610715612c4d565b60200260200101906001600160e01b03191690816001600160e01b03191681525050634c7691e360e01b81600b8151811061075257610752612c4d565b6001600160e01b03199092166020928302919091019091015290565b30610778816114a7565b6107806114ea565b610788611512565b6040517f432acbfd662dbb5d8b378384a67159b47ca9d0f1b79f97cf64cf8585fa362d50905f90a150565b60405163033a41d760e41b81525f906001600160a01b037f000000000000000000000000000000000000000000000000000000000000000016906333a41d70906108039030908790600401612c61565b602060405180830381865afa15801561081e573d5f5f3e3d5ffd5b505050506040513d601f19601f820116820180604052508101906108429190612c8f565b9392505050565b60408051600580825260c082019092526060916020820160a0803683370190505090507f0000000000000000000000000000000000000000000000000000000000000000815f8151811061089f5761089f612c4d565b60200260200101906001600160a01b031690816001600160a01b0316815250507f0000000000000000000000000000000000000000000000000000000000000000816001815181106108f3576108f3612c4d565b60200260200101906001600160a01b031690816001600160a01b0316815250507f00000000000000000000000000000000000000000000000000000000000000008160028151811061094757610947612c4d565b60200260200101906001600160a01b031690816001600160a01b0316815250507f00000000000000000000000000000000000000000000000000000000000000008160038151811061099b5761099b612c4d565b60200260200101906001600160a01b031690816001600160a01b0316815250507f0000000000000000000000000000000000000000000000000000000000000000816004815181106109ef576109ef612c4d565b60200260200101906001600160a01b031690816001600160a01b03168152505090565b6060610842838361152a565b60408051808201909152606080825260208201526040518060400160405280610a45610cdc565b8152602001610a5261047a565b9052919050565b5f6104748261153e565b6060610a6d611550565b905090565b5f610a6d611562565b5f610ae982610a8984611494565b66b1a2bc2ec500005f610a9a611575565b610aa3886115c2565b60408051608080820183525f80835260208084018290528385018290526060938401829052845192830185528183528201819052928101929092526001908201526115f0565b506001919050565b5f610a6d611677565b5f61047482611692565b5f81806020019051810190610b199190612ce5565b90505f815f0151516001600160401b03811115610b3857610b386127f0565b604051908082528060200260200182016040528015610b61578160200160208202803683370190505b5090505f5b825151811015610bc1578251805182908110610b8457610b84612c4d565b60200260200101515f0151828281518110610ba157610ba1612c4d565b6001600160a01b0390921660209283029190910190910152600101610b66565b505f610bcc826116a4565b9050610bf5816040518060400160405280600381526020016210941560ea1b81525060126118f2565b610c1881604051806040016040528060018152602001603160f81b81525061190a565b610c42670853a0d2313c0000674563918244f4000064e8d4a5100067016345785d8a00008661191c565b610c4f8360200151611951565b610c7e30604051602001610c639190612937565b6040516020818303038152906040528051906020012061197e565b50505050565b60605f82806020019051810190610c9b9190612ce5565b9050610ca9815f015161198e565b8152604051610cbc908290602001612e1f565b604051602081830303815290604052915050919050565b5f610a6d611ac8565b60408051600580825260c08201909252606091816020015b60408051606080820183525f808352602083015291810191909152815260200190600190039081610cf45790505060408051606081019091526001600160a01b037f0000000000000000000000000000000000000000000000000000000000000000168152909150602081015f81526020017f00000000000000000000000000000000000000000000000000000000000000006001600160a01b031663574a4cff6040518163ffffffff1660e01b81526004015f60405180830381865afa158015610dc1573d5f5f3e3d5ffd5b505050506040513d5f823e601f3d908101601f19168201604052610de89190810190612e93565b815250815f81518110610dfd57610dfd612c4d565b602002602001018190525060405180606001604052807f00000000000000000000000000000000000000000000000000000000000000006001600160a01b031681526020015f6002811115610e5457610e546126ef565b81526020017f00000000000000000000000000000000000000000000000000000000000000006001600160a01b031663574a4cff6040518163ffffffff1660e01b81526004015f60405180830381865afa158015610eb4573d5f5f3e3d5ffd5b505050506040513d5f823e601f3d908101601f19168201604052610edb9190810190612e93565b81525081600181518110610ef157610ef1612c4d565b602002602001018190525060405180606001604052807f00000000000000000000000000000000000000000000000000000000000000006001600160a01b031681526020015f6002811115610f4857610f486126ef565b81526020017f00000000000000000000000000000000000000000000000000000000000000006001600160a01b031663574a4cff6040518163ffffffff1660e01b81526004015f60405180830381865afa158015610fa8573d5f5f3e3d5ffd5b505050506040513d5f823e601f3d908101601f19168201604052610fcf9190810190612e93565b81525081600281518110610fe557610fe5612c4d565b602002602001018190525060405180606001604052807f00000000000000000000000000000000000000000000000000000000000000006001600160a01b031681526020015f600281111561103c5761103c6126ef565b81526020017f00000000000000000000000000000000000000000000000000000000000000006001600160a01b031663574a4cff6040518163ffffffff1660e01b81526004015f60405180830381865afa15801561109c573d5f5f3e3d5ffd5b505050506040513d5f823e601f3d908101601f191682016040526110c39190810190612e93565b815250816003815181106110d9576110d9612c4d565b602002602001018190525060405180606001604052807f00000000000000000000000000000000000000000000000000000000000000006001600160a01b031681526020015f6002811115611130576111306126ef565b81526020017f00000000000000000000000000000000000000000000000000000000000000006001600160a01b031663574a4cff6040518163ffffffff1660e01b81526004015f60405180830381865afa158015611190573d5f5f3e3d5ffd5b505050506040513d5f823e601f3d908101601f191682016040526111b79190810190612e93565b815250816004815181106111cd576111cd612c4d565b602002602001018190525090565b5f5f828060200190518101906111f19190612ce5565b905061120084825f0151611ad9565b61120e848260400151611aeb565b5060019392505050565b60408051808201909152601981527842616c616e6365725633537461626c65506f6f6c4446506b6760381b602082015290565b5f5f828060200190518101906112619190612ce5565b80515190915060028110806112765750600581115b156112a557600560028260405163d484b2bd60e01b815260040161129c93929190612f22565b60405180910390fd5b6001826020015110806112bd575061c3508260200151115b156112e857600161c3508360200151604051630151157560e31b815260040161129c93929190612f22565b81516112f39061198e565b80835260208084015160408086015190515f94611314949093929101612f38565b60408051601f19818403018152919052805160208201209091505b95945050505050565b5f610a6d611b2a565b5f610a6d611b3b565b5f7f00000000000000000000000000000000000000000000000000000000000000006001600160a01b031663e97fac053060405180606001604052808989808060200260200160405190810160405280939291908181526020015f905b828210156113d3576113c460808302860136819003810190612f6a565b815260200190600101906113a7565b50505050508152602001878152602001866001600160a01b03168152506040516020016114009190612e1f565b6040516020818303038152906040526040518363ffffffff1660e01b815260040161142c929190612c61565b6020604051808303815f875af1158015611448573d5f5f3e3d5ffd5b505050506040513d601f19601f8201168201806040525081019061132f9190612c8f565b6060806060611479611218565b925061148361047a565b915061148d610849565b9050909192565b60606104746114a1611b58565b83611b7c565b5f6114bc5f356001600160e01b031916611692565b90506114c9813384611d09565b6114e6576040516323dada5360e01b815260040160405180910390fd5b5050565b6114f2611562565b1561151057604051633ac4266d60e11b815260040160405180910390fd5b565b61151061151d611b58565b805460ff19166001179055565b6060610842611537611b58565b8484611df2565b5f61047461154a611b58565b83611e02565b6060610a6d61155d611b58565b611e10565b5f610a6d61156e611b58565b5460ff1690565b604080516060810182525f8082526020820181905291810182905290611599611e74565b604080516060810182526001600160a01b03909216808352602083018190529082015292915050565b5f6104746115ce611b58565b6001600160a01b038085165f9081526007929092016020526040909120541690565b6115f987611e94565b611601611ea5565b6001600160a01b031663eeec802f88888861161a611338565b898989896040518963ffffffff1660e01b8152600401611641989796959493929190612fd1565b5f604051808303815f87803b158015611658575f5ffd5b505af115801561166a573d5f5f3e3d5ffd5b5050505050505050505050565b5f610a6d611683611b58565b54610100900463ffffffff1690565b5f61047461169e611ed7565b83611efb565b606081516002036117cd57815f815181106116c1576116c1612c4d565b60200260200101516001600160a01b03166306fdde036040518163ffffffff1660e01b81526004015f60405180830381865afa158015611703573d5f5f3e3d5ffd5b505050506040513d5f823e601f3d908101601f1916820160405261172a9190810190613082565b8260018151811061173d5761173d612c4d565b60200260200101516001600160a01b03166306fdde036040518163ffffffff1660e01b81526004015f60405180830381865afa15801561177f573d5f5f3e3d5ffd5b505050506040513d5f823e601f3d908101601f191682016040526117a69190810190613082565b6040516020016117b792919061310d565b6040516020818303038152906040529050919050565b60408051808201909152600e81526d084ac66a6e8c2c4d8ca40decc40560931b60208201525f5b83518110156118db578184828151811061181057611810612c4d565b60200260200101516001600160a01b03166306fdde036040518163ffffffff1660e01b81526004015f60405180830381865afa158015611852573d5f5f3e3d5ffd5b505050506040513d5f823e601f3d908101601f191682016040526118799190810190613082565b60405160200161188a929190613158565b6040516020818303038152906040529150600184516118a99190613180565b8110156118d357816040516020016118c19190613193565b60405160208183030381529060405291505b6001016117f4565b5080604051602001610cbc91906131b1565b919050565b6119056118fd611f40565b848484611f8b565b505050565b6114e6611915611fc2565b8383611ff5565b61194a7fad058ae2c4fd2dc635a6531cef09fdcc7264c09c1ee65b9e398137189754ce71868686868661205c565b5050505050565b61197b7f4069f3526645903a5a030f5bf0c2cdf6b41ae31fd783d174908193a7b8ff23438261208a565b50565b61197b611989611ed7565b829055565b60605f60015b8351811015611ac0575f9150815b8185516119af9190613180565b811015611aaa578481815181106119c8576119c8612c4d565b60200260200101515f01516001600160a01b0316858260016119ea91906131cd565b815181106119fa576119fa612c4d565b60200260200101515f01516001600160a01b03161015611aa2575f858281518110611a2757611a27612c4d565b6020026020010151905085826001611a3f91906131cd565b81518110611a4f57611a4f612c4d565b6020026020010151868381518110611a6957611a69612c4d565b60209081029190910101528086611a818460016131cd565b81518110611a9157611a91612c4d565b602002602001018190525060019350505b6001016119a2565b5081611ab857509192915050565b600101611994565b509192915050565b5f610a6d611ad4611b58565b61213c565b6114e6611ae4611b58565b8383612148565b6114e6611af6611b58565b6001600160a01b038085165f908152600792909201602052604090912080546001600160a01b031916918416919091179055565b5f610a6d611b36611b58565b612360565b5f610a6d611b47611b58565b54600160281b900463ffffffff1690565b7f083b184f81c44d1555bdab2b99aeea4d11b107caca4883125bcb0b412d1f813290565b6001600160a01b0381165f908152600383016020526040902060010154606090806001600160401b03811115611bb457611bb46127f0565b604051908082528060200260200182016040528015611c0457816020015b604080516080810182525f8082526020808301829052928201819052606082015282525f19909201910181611bd25790505b5091505f5b81811015611d01576001600160a01b0384165f9081526003860160205260408120611c34908361238d565b604080516080810182526001600160a01b038084168083529089165f90815260048b0160209081528482209282529182529290922054929350919082019060ff166001811115611c8657611c866126ef565b81526001600160a01b038088165f81815260058b0160209081526040808320888616808552908352818420549095168287015292825260068c01815282822093825292909252908190205460ff1615159101528451859084908110611ced57611ced612c4d565b602090810291909101015250600101611c09565b505092915050565b5f611d12611ea5565b6001600160a01b031663aaabadc56040518163ffffffff1660e01b8152600401602060405180830381865afa158015611d4d573d5f5f3e3d5ffd5b505050506040513d601f19601f82011682018060405250810190611d719190612c8f565b6040516326f8aa2160e21b8152600481018690526001600160a01b03858116602483015284811660448301529190911690639be2a88490606401602060405180830381865afa158015611dc6573d5f5f3e3d5ffd5b505050506040513d601f19601f82011682018060405250810190611dea91906131e0565b949350505050565b6060611dea6001850184846123cf565b5f61084260018401836124dd565b606060028201805480602002602001604051908101604052809291908181526020018280548015611e6857602002820191905f5260205f20905b81546001600160a01b03168152600190910190602001808311611e4a575b50505050509050919050565b5f610a6d611e80611b58565b54600160481b90046001600160a01b031690565b61197b611e9f611b58565b826124fa565b5f610a6d7f392e49ca1983749c4549242b814e6592e6c2354a2bb55242596ce0ad2e7b1001546001600160a01b031690565b7f82340927aad1ca6b5f8bb0037567f287e1bec629ab302d4e1debbc0d7543b1f890565b5f610842611f07845490565b6040805160208101929092526001600160e01b03198516908201526044015b604051602081830303815290604052805160209091012090565b5f610a6d604051602001611f72906020808252600a908201526906569702e6572632e32360b41b604082015260600190565b6040516020818303038152906040528051906020012090565b83611f968482613277565b5060018401611fa58382613277565b50600293909301805460ff191660ff909416939093179092555050565b5f610a6d604051602001611f72906020808252600b908201526a32b4b81732b4b8171b989960a91b604082015260600190565b6120028260078501612507565b60058401556120148160088501612507565b600684015581516020808401919091206003850155815190820120600484015546600184015561204383612564565b8355505060020180546001600160a01b03191630179055565b84865560018601849055600286018390556003860182905561208160048701826125be565b50505050505050565b60018110156120ac5760405163ab92332360e01b815260040160405180910390fd5b61c3508111156120cf576040516309b80d3960e41b815260040160405180910390fd5b5f6120dc6103e883613331565b83546001600160801b0319166001600160401b0391909116908117600160401b9190910217600160801b600160c01b031916600160801b4263ffffffff1690810263ffffffff60a01b191691909117600160a01b91909102179092555050565b60028101545f90610474565b5f5b8151811015610c7e5761219582828151811061216857612168612c4d565b602090810291909101810151516001600160a01b0386165f908152600388019092526040909120906125ff565b508181815181106121a8576121a8612c4d565b602002602001015160400151846005015f856001600160a01b03166001600160a01b031681526020019081526020015f205f8484815181106121ec576121ec612c4d565b60200260200101515f01516001600160a01b03166001600160a01b031681526020019081526020015f205f6101000a8154816001600160a01b0302191690836001600160a01b0316021790555081818151811061224b5761224b612c4d565b602002602001015160200151846004015f856001600160a01b03166001600160a01b031681526020019081526020015f205f84848151811061228f5761228f612c4d565b602090810291909101810151516001600160a01b031682528101919091526040015f20805460ff1916600183818111156122cb576122cb6126ef565b02179055508181815181106122e2576122e2612c4d565b602002602001015160600151846006015f856001600160a01b03166001600160a01b031681526020019081526020015f205f84848151811061232657612326612c4d565b602090810291909101810151516001600160a01b031682528101919091526040015f20805460ff191691151591909117905560010161214a565b5f5f612378835463ffffffff600160281b9091041690565b90508063ffffffff164210610474575f610842565b60018201545f9061239e908361265b565b508260010182815481106123b4576123b4612c4d565b5f918252602090912001546001600160a01b03169392505050565b6060828210156123fc5760405163dc78128f60e01b8152600481018490526024810183905260440161129c565b5f612408856001015490565b9050612414818561265b565b5061241f818461265b565b505f61242b8585613180565b6124369060016131cd565b9050806001600160401b03811115612450576124506127f0565b604051908082528060200260200182016040528015612479578160200160208202803683370190505b5092505f855b8581116124d257612490888261238d565b8583815181106124a2576124a2612c4d565b6001600160a01b0390921660209283029190910190910152600190910190806124ca81613348565b91505061247f565b505050509392505050565b6001600160a01b03165f9081526020919091526040902054151590565b61190560018301826125ff565b5f6020835110156125225761251b83612683565b9050610474565b825160018160011b178355825f5260205f20602085015f5b838110156125565781810151600582901c84015560200161253a565b5060ff935061047492505050565b60038101546004820154604080517f8b73c3c69bb8fe3d512ecc4cf759cc79239f7b179b0ffacaa9a75d522b39400f60208201529081019290925260608201524660808201523060a08201525f906104749060c001611f26565b5f805b825181101561120e576125f68382815181106125df576125df612c4d565b6020026020010151856125ff90919063ffffffff16565b506001016125c1565b5f61260a83836124dd565b612652576001838101805491820181555f818152602080822090930180546001600160a01b0319166001600160a01b0387169081179091559154918152918590526040909120555b50600192915050565b5f8183116126525782826032604051635400feb960e01b815260040161129c93929190612f22565b5f5f829050601f815111156126ad578260405163305a27a960e01b815260040161129c9190612b13565b80516126b882613360565b179392505050565b6001600160a01b038116811461197b575f5ffd5b5f602082840312156126e4575f5ffd5b8135610842816126c0565b634e487b7160e01b5f52602160045260245ffd5b80516001600160a01b0316825260208101515f9060028110612727576127276126ef565b6020840152506040818101516001600160a01b03169083015260609081015115159082015260800190565b5f8151808452602084019350602083015f5b8281101561278857612777868351612703565b955060209190910190600101612764565b5093949350505050565b602081525f6108426020830184612752565b5f8151808452602084019350602083015f5b828110156127885781516001600160e01b0319168652602095860195909101906001016127b6565b602081525f61084260208301846127a4565b634e487b7160e01b5f52604160045260245ffd5b604051606081016001600160401b0381118282101715612826576128266127f0565b60405290565b604051608081016001600160401b0381118282101715612826576128266127f0565b604051601f8201601f191681016001600160401b0381118282101715612876576128766127f0565b604052919050565b5f6001600160401b03821115612896576128966127f0565b50601f01601f191660200190565b5f82601f8301126128b3575f5ffd5b81356128c66128c18261287e565b61284e565b8181528460208386010111156128da575f5ffd5b816020850160208301375f918101602001919091529392505050565b5f5f60408385031215612907575f5ffd5b82356001600160401b0381111561291c575f5ffd5b612928858286016128a4565b95602094909401359450505050565b6001600160a01b0391909116815260200190565b5f8151808452602084019350602083015f5b828110156127885781516001600160a01b031686526020958601959091019060010161295d565b602081525f610842602083018461294b565b5f5f604083850312156129a7575f5ffd5b50508035926020909101359150565b5f82825180855260208501945060208160051b830101602085015f5b83811015612a4057848303601f19018852815180516001600160a01b03168452602081015160038110612a0757612a076126ef565b806020860152506040810151905060606040850152612a2960608501826127a4565b6020998a01999094509290920191506001016129d2565b50909695505050505050565b602081525f825160406020840152612a6760608401826129b6565b90506020840151601f1984830301604085015261132f82826127a4565b6001600160e01b03198116811461197b575f5ffd5b5f60208284031215612aa9575f5ffd5b813561084281612a84565b5f60208284031215612ac4575f5ffd5b81356001600160401b03811115612ad9575f5ffd5b611dea848285016128a4565b5f81518084528060208401602086015e5f602082860101526020601f19601f83011685010191505092915050565b602081525f6108426020830184612ae5565b602081525f61084260208301846129b6565b5f5f60408385031215612b48575f5ffd5b8235612b53816126c0565b915060208301356001600160401b03811115612b6d575f5ffd5b612b79858286016128a4565b9150509250929050565b5f5f5f5f60608587031215612b96575f5ffd5b84356001600160401b03811115612bab575f5ffd5b8501601f81018713612bbb575f5ffd5b80356001600160401b03811115612bd0575f5ffd5b8760208260071b8401011115612be4575f5ffd5b60209182019550935085013591506040850135612c00816126c0565b939692955090935050565b606081525f612c1d6060830186612ae5565b8281036020840152612c2f81866127a4565b90508281036040840152612c43818561294b565b9695505050505050565b634e487b7160e01b5f52603260045260245ffd5b6001600160a01b03831681526040602082018190525f90611dea90830184612ae5565b80516118ed816126c0565b5f60208284031215612c9f575f5ffd5b8151610842816126c0565b5f6001600160401b03821115612cc257612cc26127f0565b5060051b60200190565b6002811061197b575f5ffd5b801515811461197b575f5ffd5b5f60208284031215612cf5575f5ffd5b81516001600160401b03811115612d0a575f5ffd5b820160608185031215612d1b575f5ffd5b612d23612804565b81516001600160401b03811115612d38575f5ffd5b8201601f81018613612d48575f5ffd5b8051612d566128c182612caa565b8082825260208201915060208360071b850101925088831115612d77575f5ffd5b6020840193505b82841015612df7576080848a031215612d95575f5ffd5b612d9d61282c565b8451612da8816126c0565b81526020850151612db881612ccc565b60208201526040850151612dcb816126c0565b60408201526060850151612dde81612cd8565b6060820152825260809390930192602090910190612d7e565b845250505060208281015190820152612e1260408301612c84565b6040820152949350505050565b602080825282516060838301528051608084018190525f929190910190829060a08501905b80831015612e6a57612e57828551612703565b9150602084019350600183019250612e44565b506020860151604086015260018060a01b03604087015116606086015280935050505092915050565b5f60208284031215612ea3575f5ffd5b81516001600160401b03811115612eb8575f5ffd5b8201601f81018413612ec8575f5ffd5b8051612ed66128c182612caa565b8082825260208201915060208360051b850101925086831115612ef7575f5ffd5b6020840193505b82841015612c43578351612f1181612a84565b825260209384019390910190612efe565b9283526020830191909152604082015260600190565b606081525f612f4a6060830186612752565b6020830194909452506001600160a01b0391909116604090910152919050565b5f6080828403128015612f7b575f5ffd5b50612f8461282c565b8235612f8f816126c0565b81526020830135612f9f81612ccc565b60208201526040830135612fb2816126c0565b60408201526060830135612fc581612cd8565b60608201529392505050565b6001600160a01b03891681526101a0602082018190525f90612ff59083018a612752565b60408381018a905263ffffffff89166060850152871515608085015286516001600160a01b0390811660a08601526020880151811660c086015290870151811660e085015285166101008401529050825115156101208301526020830151151561014083015260408301511515610160830152606083015115156101808301529998505050505050505050565b5f60208284031215613092575f5ffd5b81516001600160401b038111156130a7575f5ffd5b8201601f810184136130b7575f5ffd5b80516130c56128c18261287e565b8181528560208385010111156130d9575f5ffd5b8160208401602083015e5f91810160200191909152949350505050565b5f81518060208401855e5f93019283525090919050565b6d084ac66a6e8c2c4d8ca40decc40560931b81525f61312f600e8301856130f6565b6201017960ed1b815261314560038201856130f6565b602960f81b815260010195945050505050565b5f611dea61316683866130f6565b846130f6565b634e487b7160e01b5f52601160045260245ffd5b818103818111156104745761047461316c565b5f61319e82846130f6565b6201017960ed1b81526003019392505050565b5f6131bc82846130f6565b602960f81b81526001019392505050565b808201808211156104745761047461316c565b5f602082840312156131f0575f5ffd5b815161084281612cd8565b600181811c9082168061320f57607f821691505b60208210810361322d57634e487b7160e01b5f52602260045260245ffd5b50919050565b601f82111561190557805f5260205f20601f840160051c810160208510156132585750805b601f840160051c820191505b8181101561194a575f8155600101613264565b81516001600160401b03811115613290576132906127f0565b6132a48161329e84546131fb565b84613233565b6020601f8211600181146132d6575f83156132bf5750848201515b5f19600385901b1c1916600184901b17845561194a565b5f84815260208120601f198516915b8281101561330557878501518255602094850194600190920191016132e5565b508482101561332257868401515f19600387901b60f8161c191681555b50505050600190811b01905550565b80820281158282048414176104745761047461316c565b5f600182016133595761335961316c565b5060010190565b8051602080830151919081101561322d575f1960209190910360031b1b1691905056fea264697066735822122053618ea3a42435807a2e48d0b3aebf4d940a15ebacc1b9fe481b32eab66629ac64736f6c634300081e0033","linkReferences":{}},"methodIdentifiers":{"BALANCER_V3_AUTHENTICATION_FACET()":"f0703325","BALANCER_V3_STABLE_POOL_FACET()":"88318616","BALANCER_V3_VAULT()":"a4c01bbb","BALANCER_V3_VAULT_AWARE_FACET()":"90d8c705","BETTER_BALANCER_V3_POOL_TOKEN_FACET()":"a378544d","DEFAULT_POOL_INFO_FACET()":"a2bebeb2","DIAMOND_PACKAGE_FACTORY()":"ab6046ed","calcSalt(bytes)":"d82be56e","deployPool((address,uint8,address,bool)[],uint256,address)":"f08263fe","diamondConfig()":"65d375b3","disable()":"2f2770db","facetAddresses()":"52ef6b2c","facetCuts()":"a4b3ad35","facetInterfaces()":"2ea80826","getActionId(bytes4)":"851c1bb3","getDeploymentAddress(bytes,bytes32)":"44f6fec7","getNewPoolPauseWindowEndTime()":"db035ebc","getOriginalPauseWindowEndTime()":"e9d56e19","getPauseWindowDuration()":"78da80cb","getPoolCount()":"8eec5d70","getPools()":"673a2a1f","getPoolsInRange(uint256,uint256)":"53a72f7e","initAccount(bytes)":"870d4838","isDisabled()":"6c57f5a9","isPoolFromFactory(address)":"6634b753","packageMetadata()":"f45469e7","packageName()":"abc8b346","postDeploy(address)":"70068fcf","processArgs(bytes)":"87c3adb3","tokenConfigs(address)":"1b69dc5f","updatePkg(address,bytes)":"a9089235"},"id":873}