{"abi":[{"type":"constructor","inputs":[{"name":"_factory","type":"address","internalType":"address"},{"name":"_WETH","type":"address","internalType":"address"}],"stateMutability":"nonpayable"},{"type":"receive","stateMutability":"payable"},{"type":"function","name":"WETH","inputs":[],"outputs":[{"name":"","type":"address","internalType":"address"}],"stateMutability":"view"},{"type":"function","name":"addLiquidity","inputs":[{"name":"tokenA","type":"address","internalType":"address"},{"name":"tokenB","type":"address","internalType":"address"},{"name":"amountADesired","type":"uint256","internalType":"uint256"},{"name":"amountBDesired","type":"uint256","internalType":"uint256"},{"name":"amountAMin","type":"uint256","internalType":"uint256"},{"name":"amountBMin","type":"uint256","internalType":"uint256"},{"name":"to","type":"address","internalType":"address"},{"name":"deadline","type":"uint256","internalType":"uint256"}],"outputs":[{"name":"amountA","type":"uint256","internalType":"uint256"},{"name":"amountB","type":"uint256","internalType":"uint256"},{"name":"liquidity","type":"uint256","internalType":"uint256"}],"stateMutability":"nonpayable"},{"type":"function","name":"addLiquidityETH","inputs":[{"name":"token","type":"address","internalType":"address"},{"name":"amountTokenDesired","type":"uint256","internalType":"uint256"},{"name":"amountTokenMin","type":"uint256","internalType":"uint256"},{"name":"amountETHMin","type":"uint256","internalType":"uint256"},{"name":"to","type":"address","internalType":"address"},{"name":"deadline","type":"uint256","internalType":"uint256"}],"outputs":[{"name":"amountToken","type":"uint256","internalType":"uint256"},{"name":"amountETH","type":"uint256","internalType":"uint256"},{"name":"liquidity","type":"uint256","internalType":"uint256"}],"stateMutability":"payable"},{"type":"function","name":"factory","inputs":[],"outputs":[{"name":"","type":"address","internalType":"address"}],"stateMutability":"view"},{"type":"function","name":"getAmountsOut","inputs":[{"name":"amountIn","type":"uint256","internalType":"uint256"},{"name":"path","type":"address[]","internalType":"address[]"}],"outputs":[{"name":"amounts","type":"uint256[]","internalType":"uint256[]"}],"stateMutability":"view"},{"type":"function","name":"getPair","inputs":[{"name":"token1","type":"address","internalType":"address"},{"name":"token2","type":"address","internalType":"address"}],"outputs":[{"name":"","type":"address","internalType":"address"}],"stateMutability":"view"},{"type":"function","name":"quote","inputs":[{"name":"amountA","type":"uint256","internalType":"uint256"},{"name":"reserveA","type":"uint256","internalType":"uint256"},{"name":"reserveB","type":"uint256","internalType":"uint256"}],"outputs":[{"name":"amountB","type":"uint256","internalType":"uint256"}],"stateMutability":"pure"},{"type":"function","name":"removeLiquidity","inputs":[{"name":"tokenA","type":"address","internalType":"address"},{"name":"tokenB","type":"address","internalType":"address"},{"name":"liquidity","type":"uint256","internalType":"uint256"},{"name":"amountAMin","type":"uint256","internalType":"uint256"},{"name":"amountBMin","type":"uint256","internalType":"uint256"},{"name":"to","type":"address","internalType":"address"},{"name":"deadline","type":"uint256","internalType":"uint256"}],"outputs":[{"name":"amountA","type":"uint256","internalType":"uint256"},{"name":"amountB","type":"uint256","internalType":"uint256"}],"stateMutability":"nonpayable"},{"type":"function","name":"removeLiquidityETH","inputs":[{"name":"token","type":"address","internalType":"address"},{"name":"liquidity","type":"uint256","internalType":"uint256"},{"name":"amountTokenMin","type":"uint256","internalType":"uint256"},{"name":"amountETHMin","type":"uint256","internalType":"uint256"},{"name":"to","type":"address","internalType":"address"},{"name":"deadline","type":"uint256","internalType":"uint256"}],"outputs":[{"name":"amountToken","type":"uint256","internalType":"uint256"},{"name":"amountETH","type":"uint256","internalType":"uint256"}],"stateMutability":"nonpayable"},{"type":"function","name":"removeLiquidityETHSupportingFeeOnTransferTokens","inputs":[{"name":"token","type":"address","internalType":"address"},{"name":"liquidity","type":"uint256","internalType":"uint256"},{"name":"amountTokenMin","type":"uint256","internalType":"uint256"},{"name":"amountETHMin","type":"uint256","internalType":"uint256"},{"name":"to","type":"address","internalType":"address"},{"name":"deadline","type":"uint256","internalType":"uint256"}],"outputs":[{"name":"amountETH","type":"uint256","internalType":"uint256"}],"stateMutability":"nonpayable"},{"type":"function","name":"removeLiquidityETHWithPermit","inputs":[{"name":"token","type":"address","internalType":"address"},{"name":"liquidity","type":"uint256","internalType":"uint256"},{"name":"amountTokenMin","type":"uint256","internalType":"uint256"},{"name":"amountETHMin","type":"uint256","internalType":"uint256"},{"name":"to","type":"address","internalType":"address"},{"name":"deadline","type":"uint256","internalType":"uint256"},{"name":"approveMax","type":"bool","internalType":"bool"},{"name":"v","type":"uint8","internalType":"uint8"},{"name":"r","type":"bytes32","internalType":"bytes32"},{"name":"s","type":"bytes32","internalType":"bytes32"}],"outputs":[{"name":"amountToken","type":"uint256","internalType":"uint256"},{"name":"amountETH","type":"uint256","internalType":"uint256"}],"stateMutability":"nonpayable"},{"type":"function","name":"removeLiquidityETHWithPermitSupportingFeeOnTransferTokens","inputs":[{"name":"token","type":"address","internalType":"address"},{"name":"liquidity","type":"uint256","internalType":"uint256"},{"name":"amountTokenMin","type":"uint256","internalType":"uint256"},{"name":"amountETHMin","type":"uint256","internalType":"uint256"},{"name":"to","type":"address","internalType":"address"},{"name":"deadline","type":"uint256","internalType":"uint256"},{"name":"approveMax","type":"bool","internalType":"bool"},{"name":"v","type":"uint8","internalType":"uint8"},{"name":"r","type":"bytes32","internalType":"bytes32"},{"name":"s","type":"bytes32","internalType":"bytes32"}],"outputs":[{"name":"amountETH","type":"uint256","internalType":"uint256"}],"stateMutability":"nonpayable"},{"type":"function","name":"removeLiquidityWithPermit","inputs":[{"name":"tokenA","type":"address","internalType":"address"},{"name":"tokenB","type":"address","internalType":"address"},{"name":"liquidity","type":"uint256","internalType":"uint256"},{"name":"amountAMin","type":"uint256","internalType":"uint256"},{"name":"amountBMin","type":"uint256","internalType":"uint256"},{"name":"to","type":"address","internalType":"address"},{"name":"deadline","type":"uint256","internalType":"uint256"},{"name":"approveMax","type":"bool","internalType":"bool"},{"name":"v","type":"uint8","internalType":"uint8"},{"name":"r","type":"bytes32","internalType":"bytes32"},{"name":"s","type":"bytes32","internalType":"bytes32"}],"outputs":[{"name":"amountA","type":"uint256","internalType":"uint256"},{"name":"amountB","type":"uint256","internalType":"uint256"}],"stateMutability":"nonpayable"},{"type":"function","name":"swapExactETHForTokensSupportingFeeOnTransferTokens","inputs":[{"name":"amountOutMin","type":"uint256","internalType":"uint256"},{"name":"path","type":"address[]","internalType":"address[]"},{"name":"to","type":"address","internalType":"address"},{"name":"referrer","type":"address","internalType":"address"},{"name":"deadline","type":"uint256","internalType":"uint256"}],"outputs":[],"stateMutability":"payable"},{"type":"function","name":"swapExactTokensForETHSupportingFeeOnTransferTokens","inputs":[{"name":"amountIn","type":"uint256","internalType":"uint256"},{"name":"amountOutMin","type":"uint256","internalType":"uint256"},{"name":"path","type":"address[]","internalType":"address[]"},{"name":"to","type":"address","internalType":"address"},{"name":"referrer","type":"address","internalType":"address"},{"name":"deadline","type":"uint256","internalType":"uint256"}],"outputs":[],"stateMutability":"nonpayable"},{"type":"function","name":"swapExactTokensForTokensSupportingFeeOnTransferTokens","inputs":[{"name":"amountIn","type":"uint256","internalType":"uint256"},{"name":"amountOutMin","type":"uint256","internalType":"uint256"},{"name":"path","type":"address[]","internalType":"address[]"},{"name":"to","type":"address","internalType":"address"},{"name":"referrer","type":"address","internalType":"address"},{"name":"deadline","type":"uint256","internalType":"uint256"}],"outputs":[],"stateMutability":"nonpayable"}],"bytecode":{"object":"0x60c060405234801561000f575f5ffd5b506040516145e43803806145e4833981810160405281019061003191906100fe565b8173ffffffffffffffffffffffffffffffffffffffff1660808173ffffffffffffffffffffffffffffffffffffffff16815250508073ffffffffffffffffffffffffffffffffffffffff1660a08173ffffffffffffffffffffffffffffffffffffffff1681525050505061013c565b5f5ffd5b5f73ffffffffffffffffffffffffffffffffffffffff82169050919050565b5f6100cd826100a4565b9050919050565b6100dd816100c3565b81146100e7575f5ffd5b50565b5f815190506100f8816100d4565b92915050565b5f5f60408385031215610114576101136100a0565b5b5f610121858286016100ea565b9250506020610132858286016100ea565b9150509250929050565b60805160a0516143a16102435f395f818160fd015281816104f90152818161053701528181610712015281816108ce015281816109ab01528181610a6d01528181610e5001528181610ed201528181610f85015281816110640152818161111d0152818161119a015281816117e001528181611a7e01528181611ad601528181611b0a0152611b8701525f81816105d90152818161080501528181610a4b01528181610bca015281816111d90152818161150e0152818161171e01528181611747015281816117be015281816118d50152818161196601528181611ab4015281816121290152818161239401528181612913015281816129c80152612a6a01526143a15ff3fe6080604052600436106100f6575f3560e01c8063b4822be311610089578063ded9382a11610058578063ded9382a146103c4578063e6a4390514610401578063e8e337001461043d578063f305d7191461047b57610159565b8063b4822be314610305578063baa2abde14610321578063c45a01551461035e578063d06ca61f1461038857610159565b8063ac3893ba116100c5578063ac3893ba1461023b578063ad5c464814610263578063ad615dec1461028d578063af2979eb146102c957610159565b806302751cec1461015d5780632195995c1461019a57806352aa4c22146101d75780635b0d5984146101ff57610159565b36610159577f000000000000000000000000000000000000000000000000000000000000000073ffffffffffffffffffffffffffffffffffffffff163373ffffffffffffffffffffffffffffffffffffffff161461015757610156612d05565b5b005b5f5ffd5b348015610168575f5ffd5b50610183600480360381019061017e9190612dc7565b6104ad565b604051610191929190612e5f565b60405180910390f35b3480156101a5575f5ffd5b506101c060048036038101906101bb9190612f24565b6105d1565b6040516101ce929190612e5f565b60405180910390f35b3480156101e2575f5ffd5b506101fd60048036038101906101f89190613072565b6106cc565b005b34801561020a575f5ffd5b506102256004803603810190610220919061311c565b610a44565b60405161023291906131f5565b60405180910390f35b348015610246575f5ffd5b50610261600480360381019061025c9190613072565b610b55565b005b34801561026e575f5ffd5b50610277610e4e565b604051610284919061321d565b60405180910390f35b348015610298575f5ffd5b506102b360048036038101906102ae9190613236565b610e72565b6040516102c091906131f5565b60405180910390f35b3480156102d4575f5ffd5b506102ef60048036038101906102ea9190612dc7565b610e87565b6040516102fc91906131f5565b60405180910390f35b61031f600480360381019061031a9190613286565b61101e565b005b34801561032c575f5ffd5b506103476004803603810190610342919061331c565b6114c2565b604051610355929190612e5f565b60405180910390f35b348015610369575f5ffd5b5061037261171c565b60405161037f919061321d565b60405180910390f35b348015610393575f5ffd5b506103ae60048036038101906103a991906133b9565b611740565b6040516103bb91906134cd565b60405180910390f35b3480156103cf575f5ffd5b506103ea60048036038101906103e5919061311c565b6117b6565b6040516103f8929190612e5f565b60405180910390f35b34801561040c575f5ffd5b50610427600480360381019061042291906134ed565b6118cf565b604051610434919061321d565b60405180910390f35b348015610448575f5ffd5b50610463600480360381019061045e919061352b565b611903565b604051610472939291906135dc565b60405180910390f35b61049560048036038101906104909190612dc7565b611a31565b6040516104a4939291906135dc565b60405180910390f35b5f5f82428110156104f3576040517f08c379a00000000000000000000000000000000000000000000000000000000081526004016104ea9061366b565b60405180910390fd5b610522897f00000000000000000000000000000000000000000000000000000000000000008a8a8a308a6114c2565b8093508194505050610535898685611cd4565b7f000000000000000000000000000000000000000000000000000000000000000073ffffffffffffffffffffffffffffffffffffffff16632e1a7d4d836040518263ffffffff1660e01b815260040161058e91906131f5565b5f604051808303815f87803b1580156105a5575f5ffd5b505af11580156105b7573d5f5f3e3d5ffd5b505050506105c58583611e04565b50965096945050505050565b5f5f5f6105ff7f00000000000000000000000000000000000000000000000000000000000000008f8f611eff565b90505f8761060d578c61062f565b7fffffffffffffffffffffffffffffffffffffffffffffffffffffffffffffffff5b90508173ffffffffffffffffffffffffffffffffffffffff1663d505accf3330848d8c8c8c6040518863ffffffff1660e01b815260040161067697969594939291906136a7565b5f604051808303815f87803b15801561068d575f5ffd5b505af115801561069f573d5f5f3e3d5ffd5b505050506106b28f8f8f8f8f8f8f6114c2565b809450819550505050509b509b9950505050505050505050565b8042811015610710576040517f08c379a00000000000000000000000000000000000000000000000000000000081526004016107079061366b565b60405180910390fd5b7f000000000000000000000000000000000000000000000000000000000000000073ffffffffffffffffffffffffffffffffffffffff1686866001898990506107599190613741565b81811061076957610768613774565b5b905060200201602081019061077e91906137a1565b73ffffffffffffffffffffffffffffffffffffffff16146107d4576040517f08c379a00000000000000000000000000000000000000000000000000000000081526004016107cb90613816565b60405180910390fd5b61088086865f8181106107ea576107e9613774565b5b90506020020160208101906107ff91906137a1565b3361087a7f00000000000000000000000000000000000000000000000000000000000000008a8a5f81811061083757610836613774565b5b905060200201602081019061084c91906137a1565b8b8b60018181106108605761085f613774565b5b905060200201602081019061087591906137a1565b611eff565b8b611f83565b6108cb8686808060200260200160405190810160405280939291908181526020018383602002808284375f81840152601f19601f8201169050808301925050505050505030856120b6565b5f7f000000000000000000000000000000000000000000000000000000000000000073ffffffffffffffffffffffffffffffffffffffff166370a08231306040518263ffffffff1660e01b8152600401610925919061321d565b602060405180830381865afa158015610940573d5f5f3e3d5ffd5b505050506040513d601f19601f820116820180604052508101906109649190613848565b9050878110156109a9576040517f08c379a00000000000000000000000000000000000000000000000000000000081526004016109a0906138e3565b60405180910390fd5b7f000000000000000000000000000000000000000000000000000000000000000073ffffffffffffffffffffffffffffffffffffffff16632e1a7d4d826040518263ffffffff1660e01b8152600401610a0291906131f5565b5f604051808303815f87803b158015610a19575f5ffd5b505af1158015610a2b573d5f5f3e3d5ffd5b50505050610a398582611e04565b505050505050505050565b5f5f610a917f00000000000000000000000000000000000000000000000000000000000000008d7f0000000000000000000000000000000000000000000000000000000000000000611eff565b90505f86610a9f578b610ac1565b7fffffffffffffffffffffffffffffffffffffffffffffffffffffffffffffffff5b90508173ffffffffffffffffffffffffffffffffffffffff1663d505accf3330848c8b8b8b6040518863ffffffff1660e01b8152600401610b0897969594939291906136a7565b5f604051808303815f87803b158015610b1f575f5ffd5b505af1158015610b31573d5f5f3e3d5ffd5b50505050610b438d8d8d8d8d8d610e87565b925050509a9950505050505050505050565b8042811015610b99576040517f08c379a0000000000000000000000000000000000000000000000000000000008152600401610b909061366b565b60405180910390fd5b610c4586865f818110610baf57610bae613774565b5b9050602002016020810190610bc491906137a1565b33610c3f7f00000000000000000000000000000000000000000000000000000000000000008a8a5f818110610bfc57610bfb613774565b5b9050602002016020810190610c1191906137a1565b8b8b6001818110610c2557610c24613774565b5b9050602002016020810190610c3a91906137a1565b611eff565b8b611f83565b5f8686600189899050610c589190613741565b818110610c6857610c67613774565b5b9050602002016020810190610c7d91906137a1565b73ffffffffffffffffffffffffffffffffffffffff166370a08231866040518263ffffffff1660e01b8152600401610cb5919061321d565b602060405180830381865afa158015610cd0573d5f5f3e3d5ffd5b505050506040513d601f19601f82011682018060405250810190610cf49190613848565b9050610d418787808060200260200160405190810160405280939291908181526020018383602002808284375f81840152601f19601f8201169050808301925050505050505086866120b6565b87610e0282898960018c8c9050610d589190613741565b818110610d6857610d67613774565b5b9050602002016020810190610d7d91906137a1565b73ffffffffffffffffffffffffffffffffffffffff166370a08231896040518263ffffffff1660e01b8152600401610db5919061321d565b602060405180830381865afa158015610dd0573d5f5f3e3d5ffd5b505050506040513d601f19601f82011682018060405250810190610df49190613848565b6124b890919063ffffffff16565b1015610e43576040517f08c379a0000000000000000000000000000000000000000000000000000000008152600401610e3a906138e3565b60405180910390fd5b505050505050505050565b7f000000000000000000000000000000000000000000000000000000000000000081565b5f610e7e848484612510565b90509392505050565b5f8142811015610ecc576040517f08c379a0000000000000000000000000000000000000000000000000000000008152600401610ec39061366b565b60405180910390fd5b610efb887f000000000000000000000000000000000000000000000000000000000000000089898930896114c2565b905080925050610f8388858a73ffffffffffffffffffffffffffffffffffffffff166370a08231306040518263ffffffff1660e01b8152600401610f3f919061321d565b602060405180830381865afa158015610f5a573d5f5f3e3d5ffd5b505050506040513d601f19601f82011682018060405250810190610f7e9190613848565b611cd4565b7f000000000000000000000000000000000000000000000000000000000000000073ffffffffffffffffffffffffffffffffffffffff16632e1a7d4d836040518263ffffffff1660e01b8152600401610fdc91906131f5565b5f604051808303815f87803b158015610ff3575f5ffd5b505af1158015611005573d5f5f3e3d5ffd5b505050506110138483611e04565b509695505050505050565b8042811015611062576040517f08c379a00000000000000000000000000000000000000000000000000000000081526004016110599061366b565b60405180910390fd5b7f000000000000000000000000000000000000000000000000000000000000000073ffffffffffffffffffffffffffffffffffffffff1686865f8181106110ac576110ab613774565b5b90506020020160208101906110c191906137a1565b73ffffffffffffffffffffffffffffffffffffffff1614611117576040517f08c379a000000000000000000000000000000000000000000000000000000000815260040161110e90613816565b60405180910390fd5b5f3490507f000000000000000000000000000000000000000000000000000000000000000073ffffffffffffffffffffffffffffffffffffffff1663d0e30db0826040518263ffffffff1660e01b81526004015f604051808303818588803b158015611181575f5ffd5b505af1158015611193573d5f5f3e3d5ffd5b50505050507f000000000000000000000000000000000000000000000000000000000000000073ffffffffffffffffffffffffffffffffffffffff1663a9059cbb61124e7f00000000000000000000000000000000000000000000000000000000000000008a8a5f81811061120b5761120a613774565b5b905060200201602081019061122091906137a1565b8b8b600181811061123457611233613774565b5b905060200201602081019061124991906137a1565b611eff565b836040518363ffffffff1660e01b815260040161126c929190613901565b6020604051808303815f875af1158015611288573d5f5f3e3d5ffd5b505050506040513d601f19601f820116820180604052508101906112ac919061393c565b6112b9576112b8612d05565b5b5f878760018a8a90506112cc9190613741565b8181106112dc576112db613774565b5b90506020020160208101906112f191906137a1565b73ffffffffffffffffffffffffffffffffffffffff166370a08231876040518263ffffffff1660e01b8152600401611329919061321d565b602060405180830381865afa158015611344573d5f5f3e3d5ffd5b505050506040513d601f19601f820116820180604052508101906113689190613848565b90506113b58888808060200260200160405190810160405280939291908181526020018383602002808284375f81840152601f19601f8201169050808301925050505050505087876120b6565b88611476828a8a60018d8d90506113cc9190613741565b8181106113dc576113db613774565b5b90506020020160208101906113f191906137a1565b73ffffffffffffffffffffffffffffffffffffffff166370a082318a6040518263ffffffff1660e01b8152600401611429919061321d565b602060405180830381865afa158015611444573d5f5f3e3d5ffd5b505050506040513d601f19601f820116820180604052508101906114689190613848565b6124b890919063ffffffff16565b10156114b7576040517f08c379a00000000000000000000000000000000000000000000000000000000081526004016114ae906138e3565b60405180910390fd5b505050505050505050565b5f5f8242811015611508576040517f08c379a00000000000000000000000000000000000000000000000000000000081526004016114ff9061366b565b60405180910390fd5b5f6115347f00000000000000000000000000000000000000000000000000000000000000008c8c611eff565b90508073ffffffffffffffffffffffffffffffffffffffff166323b872dd33838c6040518463ffffffff1660e01b815260040161157393929190613967565b6020604051808303815f875af115801561158f573d5f5f3e3d5ffd5b505050506040513d601f19601f820116820180604052508101906115b3919061393c565b505f5f8273ffffffffffffffffffffffffffffffffffffffff166389afcb44896040518263ffffffff1660e01b81526004016115ef919061321d565b60408051808303815f875af115801561160a573d5f5f3e3d5ffd5b505050506040513d601f19601f8201168201806040525081019061162e919061399c565b915091505f61163d8e8e6125c7565b5090508073ffffffffffffffffffffffffffffffffffffffff168e73ffffffffffffffffffffffffffffffffffffffff161461167a57818361167d565b82825b80975081985050508a8710156116c8576040517f08c379a00000000000000000000000000000000000000000000000000000000081526004016116bf90613a4a565b60405180910390fd5b8986101561170b576040517f08c379a000000000000000000000000000000000000000000000000000000000815260040161170290613ad8565b60405180910390fd5b505050505097509795505050505050565b7f000000000000000000000000000000000000000000000000000000000000000081565b60606117ad7f0000000000000000000000000000000000000000000000000000000000000000858585808060200260200160405190810160405280939291908181526020018383602002808284375f81840152601f19601f820116905080830192505050505050506126f1565b90509392505050565b5f5f5f6118047f00000000000000000000000000000000000000000000000000000000000000008e7f0000000000000000000000000000000000000000000000000000000000000000611eff565b90505f87611812578c611834565b7fffffffffffffffffffffffffffffffffffffffffffffffffffffffffffffffff5b90508173ffffffffffffffffffffffffffffffffffffffff1663d505accf3330848d8c8c8c6040518863ffffffff1660e01b815260040161187b97969594939291906136a7565b5f604051808303815f87803b158015611892575f5ffd5b505af11580156118a4573d5f5f3e3d5ffd5b505050506118b68e8e8e8e8e8e6104ad565b809450819550505050509a509a98505050505050505050565b5f6118fb7f00000000000000000000000000000000000000000000000000000000000000008484611eff565b905092915050565b5f5f5f834281101561194a576040517f08c379a00000000000000000000000000000000000000000000000000000000081526004016119419061366b565b60405180910390fd5b6119588c8c8c8c8c8c6128f8565b80945081955050505f61198c7f00000000000000000000000000000000000000000000000000000000000000008e8e611eff565b905061199a8d338388611f83565b6119a68c338387611f83565b8073ffffffffffffffffffffffffffffffffffffffff16636a627842886040518263ffffffff1660e01b81526004016119df919061321d565b6020604051808303815f875af11580156119fb573d5f5f3e3d5ffd5b505050506040513d601f19601f82011682018060405250810190611a1f9190613848565b92505050985098509895505050505050565b5f5f5f8342811015611a78576040517f08c379a0000000000000000000000000000000000000000000000000000000008152600401611a6f9061366b565b60405180910390fd5b611aa68a7f00000000000000000000000000000000000000000000000000000000000000008b348c8c6128f8565b80945081955050505f611afa7f00000000000000000000000000000000000000000000000000000000000000008c7f0000000000000000000000000000000000000000000000000000000000000000611eff565b9050611b088b338388611f83565b7f000000000000000000000000000000000000000000000000000000000000000073ffffffffffffffffffffffffffffffffffffffff1663d0e30db0856040518263ffffffff1660e01b81526004015f604051808303818588803b158015611b6e575f5ffd5b505af1158015611b80573d5f5f3e3d5ffd5b50505050507f000000000000000000000000000000000000000000000000000000000000000073ffffffffffffffffffffffffffffffffffffffff1663a9059cbb82866040518363ffffffff1660e01b8152600401611be0929190613901565b6020604051808303815f875af1158015611bfc573d5f5f3e3d5ffd5b505050506040513d601f19601f82011682018060405250810190611c20919061393c565b611c2d57611c2c612d05565b5b8073ffffffffffffffffffffffffffffffffffffffff16636a627842886040518263ffffffff1660e01b8152600401611c66919061321d565b6020604051808303815f875af1158015611c82573d5f5f3e3d5ffd5b505050506040513d601f19601f82011682018060405250810190611ca69190613848565b925083341115611cc657611cc5338534611cc09190613741565b611e04565b5b505096509650969350505050565b5f5f8473ffffffffffffffffffffffffffffffffffffffff1663a9059cbb8585604051602401611d05929190613901565b6040516020818303038152906040529060e01b6020820180517bffffffffffffffffffffffffffffffffffffffffffffffffffffffff8381831617835250505050604051611d539190613b48565b5f604051808303815f865af19150503d805f8114611d8c576040519150601f19603f3d011682016040523d82523d5f602084013e611d91565b606091505b5091509150818015611dbe57505f81511480611dbd575080806020019051810190611dbc919061393c565b5b5b611dfd576040517f08c379a0000000000000000000000000000000000000000000000000000000008152600401611df490613bce565b60405180910390fd5b5050505050565b5f8273ffffffffffffffffffffffffffffffffffffffff16825f67ffffffffffffffff811115611e3757611e36613bec565b5b6040519080825280601f01601f191660200182016040528015611e695781602001600182028036833780820191505090505b50604051611e779190613b48565b5f6040518083038185875af1925050503d805f8114611eb1576040519150601f19603f3d011682016040523d82523d5f602084013e611eb6565b606091505b5050905080611efa576040517f08c379a0000000000000000000000000000000000000000000000000000000008152600401611ef190613c89565b60405180910390fd5b505050565b5f8373ffffffffffffffffffffffffffffffffffffffff1663e6a4390584846040518363ffffffff1660e01b8152600401611f3b929190613ca7565b602060405180830381865afa158015611f56573d5f5f3e3d5ffd5b505050506040513d601f19601f82011682018060405250810190611f7a9190613ce2565b90509392505050565b5f5f8573ffffffffffffffffffffffffffffffffffffffff166323b872dd868686604051602401611fb693929190613967565b6040516020818303038152906040529060e01b6020820180517bffffffffffffffffffffffffffffffffffffffffffffffffffffffff83818316178352505050506040516120049190613b48565b5f604051808303815f865af19150503d805f811461203d576040519150601f19603f3d011682016040523d82523d5f602084013e612042565b606091505b509150915081801561206f57505f8151148061206e57508080602001905181019061206d919061393c565b5b5b6120ae576040517f08c379a00000000000000000000000000000000000000000000000000000000081526004016120a590613d7d565b60405180910390fd5b505050505050565b5f5b600184516120c69190613741565b8110156124b2575f5f8583815181106120e2576120e1613774565b5b6020026020010151866001856120f89190613d9b565b8151811061210957612108613774565b5b6020026020010151915091505f61212083836125c7565b5090505f61214f7f00000000000000000000000000000000000000000000000000000000000000008585611eff565b90505f5f5f8373ffffffffffffffffffffffffffffffffffffffff16630902f1ac6040518163ffffffff1660e01b8152600401608060405180830381865afa15801561219d573d5f5f3e3d5ffd5b505050506040513d601f19601f820116820180604052508101906121c19190613e48565b50506dffffffffffffffffffffffffffff1691506dffffffffffffffffffffffffffff1691508473ffffffffffffffffffffffffffffffffffffffff168773ffffffffffffffffffffffffffffffffffffffff161461222557808280925081935050505b5f6122b0838973ffffffffffffffffffffffffffffffffffffffff166370a08231886040518263ffffffff1660e01b8152600401612263919061321d565b602060405180830381865afa15801561227e573d5f5f3e3d5ffd5b505050506040513d601f19601f820116820180604052508101906122a29190613848565b6124b890919063ffffffff16565b90508473ffffffffffffffffffffffffffffffffffffffff1663f140a35a828a6040518363ffffffff1660e01b81526004016122ed929190613eac565b602060405180830381865afa158015612308573d5f5f3e3d5ffd5b505050506040513d601f19601f8201168201806040525081019061232c9190613848565b93505050505f5f8473ffffffffffffffffffffffffffffffffffffffff168773ffffffffffffffffffffffffffffffffffffffff161461236d57825f612370565b5f835b915091505f60028c516123839190613741565b891061238f578a6123e1565b6123e07f0000000000000000000000000000000000000000000000000000000000000000888e60028d6123c29190613d9b565b815181106123d3576123d2613774565b5b6020026020010151611eff565b5b90508473ffffffffffffffffffffffffffffffffffffffff16636e1fdd7f8484845f67ffffffffffffffff81111561241c5761241b613bec565b5b6040519080825280601f01601f19166020018201604052801561244e5781602001600182028036833780820191505090505b508f6040518663ffffffff1660e01b8152600401612470959493929190613f2b565b5f604051808303815f87803b158015612487575f5ffd5b505af1158015612499573d5f5f3e3d5ffd5b50505050505050505050505080806001019150506120b8565b50505050565b5f8282846124c69190613741565b915081111561250a576040517f08c379a000000000000000000000000000000000000000000000000000000000815260040161250190613fcd565b60405180910390fd5b92915050565b5f5f8411612553576040517f08c379a000000000000000000000000000000000000000000000000000000000815260040161254a9061405b565b60405180910390fd5b5f8311801561256157505f82115b6125a0576040517f08c379a0000000000000000000000000000000000000000000000000000000008152600401612597906140e9565b60405180910390fd5b826125b48386612b9a90919063ffffffff16565b6125be9190614134565b90509392505050565b5f5f8273ffffffffffffffffffffffffffffffffffffffff168473ffffffffffffffffffffffffffffffffffffffff1603612637576040517f08c379a000000000000000000000000000000000000000000000000000000000815260040161262e906141d4565b60405180910390fd5b8273ffffffffffffffffffffffffffffffffffffffff168473ffffffffffffffffffffffffffffffffffffffff1610612671578284612674565b83835b80925081935050505f73ffffffffffffffffffffffffffffffffffffffff168273ffffffffffffffffffffffffffffffffffffffff16036126ea576040517f08c379a00000000000000000000000000000000000000000000000000000000081526004016126e19061423c565b60405180910390fd5b9250929050565b6060600282511015612738576040517f08c379a000000000000000000000000000000000000000000000000000000000815260040161272f906142a4565b60405180910390fd5b815167ffffffffffffffff81111561275357612752613bec565b5b6040519080825280602002602001820160405280156127815781602001602082028036833780820191505090505b50905082815f8151811061279857612797613774565b5b6020026020010181815250505f5b600183516127b49190613741565b8110156128f0575f612807868584815181106127d3576127d2613774565b5b6020026020010151866001866127e99190613d9b565b815181106127fa576127f9613774565b5b6020026020010151611eff565b90508073ffffffffffffffffffffffffffffffffffffffff1663f140a35a84848151811061283857612837613774565b5b602002602001015186858151811061285357612852613774565b5b60200260200101516040518363ffffffff1660e01b8152600401612878929190613eac565b602060405180830381865afa158015612893573d5f5f3e3d5ffd5b505050506040513d601f19601f820116820180604052508101906128b79190613848565b836001846128c59190613d9b565b815181106128d6576128d5613774565b5b6020026020010181815250505080806001019150506127a6565b509392505050565b5f5f5f73ffffffffffffffffffffffffffffffffffffffff167f000000000000000000000000000000000000000000000000000000000000000073ffffffffffffffffffffffffffffffffffffffff1663e6a439058a8a6040518363ffffffff1660e01b815260040161296c929190613ca7565b602060405180830381865afa158015612987573d5f5f3e3d5ffd5b505050506040513d601f19601f820116820180604052508101906129ab9190613ce2565b73ffffffffffffffffffffffffffffffffffffffff1603612a63577f000000000000000000000000000000000000000000000000000000000000000073ffffffffffffffffffffffffffffffffffffffff1663c9c6539689896040518363ffffffff1660e01b8152600401612a21929190613ca7565b6020604051808303815f875af1158015612a3d573d5f5f3e3d5ffd5b505050506040513d601f19601f82011682018060405250810190612a619190613ce2565b505b5f5f612a907f00000000000000000000000000000000000000000000000000000000000000008b8b612c06565b915091505f82148015612aa257505f81145b15612ab65787878094508195505050612b8d565b5f612ac2898484612510565b9050878111612b1d5785811015612b0e576040517f08c379a0000000000000000000000000000000000000000000000000000000008152600401612b0590613ad8565b60405180910390fd5b88818095508196505050612b8b565b5f612b29898486612510565b905089811115612b3c57612b3b612d05565b5b87811015612b7f576040517f08c379a0000000000000000000000000000000000000000000000000000000008152600401612b7690613a4a565b60405180910390fd5b80898096508197505050505b505b5050965096945050505050565b5f5f821480612bc1575082828385612bb291906142c2565b925082612bbf9190614134565b145b612c00576040517f08c379a0000000000000000000000000000000000000000000000000000000008152600401612bf79061434d565b60405180910390fd5b92915050565b5f5f5f612c1385856125c7565b5090505f5f612c23888888611eff565b73ffffffffffffffffffffffffffffffffffffffff16630902f1ac6040518163ffffffff1660e01b8152600401608060405180830381865afa158015612c6b573d5f5f3e3d5ffd5b505050506040513d601f19601f82011682018060405250810190612c8f9190613e48565b50506dffffffffffffffffffffffffffff1691506dffffffffffffffffffffffffffff1691508273ffffffffffffffffffffffffffffffffffffffff168773ffffffffffffffffffffffffffffffffffffffff1614612cef578082612cf2565b81815b8095508196505050505050935093915050565b7f4e487b71000000000000000000000000000000000000000000000000000000005f52600160045260245ffd5b5f5ffd5b5f5ffd5b5f73ffffffffffffffffffffffffffffffffffffffff82169050919050565b5f612d6382612d3a565b9050919050565b612d7381612d59565b8114612d7d575f5ffd5b50565b5f81359050612d8e81612d6a565b92915050565b5f819050919050565b612da681612d94565b8114612db0575f5ffd5b50565b5f81359050612dc181612d9d565b92915050565b5f5f5f5f5f5f60c08789031215612de157612de0612d32565b5b5f612dee89828a01612d80565b9650506020612dff89828a01612db3565b9550506040612e1089828a01612db3565b9450506060612e2189828a01612db3565b9350506080612e3289828a01612d80565b92505060a0612e4389828a01612db3565b9150509295509295509295565b612e5981612d94565b82525050565b5f604082019050612e725f830185612e50565b612e7f6020830184612e50565b9392505050565b5f8115159050919050565b612e9a81612e86565b8114612ea4575f5ffd5b50565b5f81359050612eb581612e91565b92915050565b5f60ff82169050919050565b612ed081612ebb565b8114612eda575f5ffd5b50565b5f81359050612eeb81612ec7565b92915050565b5f819050919050565b612f0381612ef1565b8114612f0d575f5ffd5b50565b5f81359050612f1e81612efa565b92915050565b5f5f5f5f5f5f5f5f5f5f5f6101608c8e031215612f4457612f43612d32565b5b5f612f518e828f01612d80565b9b50506020612f628e828f01612d80565b9a50506040612f738e828f01612db3565b9950506060612f848e828f01612db3565b9850506080612f958e828f01612db3565b97505060a0612fa68e828f01612d80565b96505060c0612fb78e828f01612db3565b95505060e0612fc88e828f01612ea7565b945050610100612fda8e828f01612edd565b935050610120612fec8e828f01612f10565b925050610140612ffe8e828f01612f10565b9150509295989b509295989b9093969950565b5f5ffd5b5f5ffd5b5f5ffd5b5f5f83601f84011261303257613031613011565b5b8235905067ffffffffffffffff81111561304f5761304e613015565b5b60208301915083602082028301111561306b5761306a613019565b5b9250929050565b5f5f5f5f5f5f5f60c0888a03121561308d5761308c612d32565b5b5f61309a8a828b01612db3565b97505060206130ab8a828b01612db3565b965050604088013567ffffffffffffffff8111156130cc576130cb612d36565b5b6130d88a828b0161301d565b955095505060606130eb8a828b01612d80565b93505060806130fc8a828b01612d80565b92505060a061310d8a828b01612db3565b91505092959891949750929550565b5f5f5f5f5f5f5f5f5f5f6101408b8d03121561313b5761313a612d32565b5b5f6131488d828e01612d80565b9a505060206131598d828e01612db3565b995050604061316a8d828e01612db3565b985050606061317b8d828e01612db3565b975050608061318c8d828e01612d80565b96505060a061319d8d828e01612db3565b95505060c06131ae8d828e01612ea7565b94505060e06131bf8d828e01612edd565b9350506101006131d18d828e01612f10565b9250506101206131e38d828e01612f10565b9150509295989b9194979a5092959850565b5f6020820190506132085f830184612e50565b92915050565b61321781612d59565b82525050565b5f6020820190506132305f83018461320e565b92915050565b5f5f5f6060848603121561324d5761324c612d32565b5b5f61325a86828701612db3565b935050602061326b86828701612db3565b925050604061327c86828701612db3565b9150509250925092565b5f5f5f5f5f5f60a087890312156132a05761329f612d32565b5b5f6132ad89828a01612db3565b965050602087013567ffffffffffffffff8111156132ce576132cd612d36565b5b6132da89828a0161301d565b955095505060406132ed89828a01612d80565b93505060606132fe89828a01612d80565b925050608061330f89828a01612db3565b9150509295509295509295565b5f5f5f5f5f5f5f60e0888a03121561333757613336612d32565b5b5f6133448a828b01612d80565b97505060206133558a828b01612d80565b96505060406133668a828b01612db3565b95505060606133778a828b01612db3565b94505060806133888a828b01612db3565b93505060a06133998a828b01612d80565b92505060c06133aa8a828b01612db3565b91505092959891949750929550565b5f5f5f604084860312156133d0576133cf612d32565b5b5f6133dd86828701612db3565b935050602084013567ffffffffffffffff8111156133fe576133fd612d36565b5b61340a8682870161301d565b92509250509250925092565b5f81519050919050565b5f82825260208201905092915050565b5f819050602082019050919050565b61344881612d94565b82525050565b5f613459838361343f565b60208301905092915050565b5f602082019050919050565b5f61347b82613416565b6134858185613420565b935061349083613430565b805f5b838110156134c05781516134a7888261344e565b97506134b283613465565b925050600181019050613493565b5085935050505092915050565b5f6020820190508181035f8301526134e58184613471565b905092915050565b5f5f6040838503121561350357613502612d32565b5b5f61351085828601612d80565b925050602061352185828601612d80565b9150509250929050565b5f5f5f5f5f5f5f5f610100898b03121561354857613547612d32565b5b5f6135558b828c01612d80565b98505060206135668b828c01612d80565b97505060406135778b828c01612db3565b96505060606135888b828c01612db3565b95505060806135998b828c01612db3565b94505060a06135aa8b828c01612db3565b93505060c06135bb8b828c01612d80565b92505060e06135cc8b828c01612db3565b9150509295985092959890939650565b5f6060820190506135ef5f830186612e50565b6135fc6020830185612e50565b6136096040830184612e50565b949350505050565b5f82825260208201905092915050565b7f43616d656c6f74526f757465723a2045585049524544000000000000000000005f82015250565b5f613655601683613611565b915061366082613621565b602082019050919050565b5f6020820190508181035f83015261368281613649565b9050919050565b61369281612ebb565b82525050565b6136a181612ef1565b82525050565b5f60e0820190506136ba5f83018a61320e565b6136c7602083018961320e565b6136d46040830188612e50565b6136e16060830187612e50565b6136ee6080830186613689565b6136fb60a0830185613698565b61370860c0830184613698565b98975050505050505050565b7f4e487b71000000000000000000000000000000000000000000000000000000005f52601160045260245ffd5b5f61374b82612d94565b915061375683612d94565b925082820390508181111561376e5761376d613714565b5b92915050565b7f4e487b71000000000000000000000000000000000000000000000000000000005f52603260045260245ffd5b5f602082840312156137b6576137b5612d32565b5b5f6137c384828501612d80565b91505092915050565b7f43616d656c6f74526f757465723a20494e56414c49445f5041544800000000005f82015250565b5f613800601b83613611565b915061380b826137cc565b602082019050919050565b5f6020820190508181035f83015261382d816137f4565b9050919050565b5f8151905061384281612d9d565b92915050565b5f6020828403121561385d5761385c612d32565b5b5f61386a84828501613834565b91505092915050565b7f43616d656c6f74526f757465723a20494e53554646494349454e545f4f5554505f8201527f55545f414d4f554e540000000000000000000000000000000000000000000000602082015250565b5f6138cd602983613611565b91506138d882613873565b604082019050919050565b5f6020820190508181035f8301526138fa816138c1565b9050919050565b5f6040820190506139145f83018561320e565b6139216020830184612e50565b9392505050565b5f8151905061393681612e91565b92915050565b5f6020828403121561395157613950612d32565b5b5f61395e84828501613928565b91505092915050565b5f60608201905061397a5f83018661320e565b613987602083018561320e565b6139946040830184612e50565b949350505050565b5f5f604083850312156139b2576139b1612d32565b5b5f6139bf85828601613834565b92505060206139d085828601613834565b9150509250929050565b7f43616d656c6f74526f757465723a20494e53554646494349454e545f415f414d5f8201527f4f554e5400000000000000000000000000000000000000000000000000000000602082015250565b5f613a34602483613611565b9150613a3f826139da565b604082019050919050565b5f6020820190508181035f830152613a6181613a28565b9050919050565b7f43616d656c6f74526f757465723a20494e53554646494349454e545f425f414d5f8201527f4f554e5400000000000000000000000000000000000000000000000000000000602082015250565b5f613ac2602483613611565b9150613acd82613a68565b604082019050919050565b5f6020820190508181035f830152613aef81613ab6565b9050919050565b5f81519050919050565b5f81905092915050565b8281835e5f83830152505050565b5f613b2282613af6565b613b2c8185613b00565b9350613b3c818560208601613b0a565b80840191505092915050565b5f613b538284613b18565b915081905092915050565b7f5472616e7366657248656c7065723a3a736166655472616e736665723a2074725f8201527f616e73666572206661696c656400000000000000000000000000000000000000602082015250565b5f613bb8602d83613611565b9150613bc382613b5e565b604082019050919050565b5f6020820190508181035f830152613be581613bac565b9050919050565b7f4e487b71000000000000000000000000000000000000000000000000000000005f52604160045260245ffd5b7f5472616e7366657248656c7065723a3a736166655472616e736665724554483a5f8201527f20455448207472616e73666572206661696c6564000000000000000000000000602082015250565b5f613c73603483613611565b9150613c7e82613c19565b604082019050919050565b5f6020820190508181035f830152613ca081613c67565b9050919050565b5f604082019050613cba5f83018561320e565b613cc7602083018461320e565b9392505050565b5f81519050613cdc81612d6a565b92915050565b5f60208284031215613cf757613cf6612d32565b5b5f613d0484828501613cce565b91505092915050565b7f5472616e7366657248656c7065723a3a7472616e7366657246726f6d3a2074725f8201527f616e7366657246726f6d206661696c6564000000000000000000000000000000602082015250565b5f613d67603183613611565b9150613d7282613d0d565b604082019050919050565b5f6020820190508181035f830152613d9481613d5b565b9050919050565b5f613da582612d94565b9150613db083612d94565b9250828201905080821115613dc857613dc7613714565b5b92915050565b5f6dffffffffffffffffffffffffffff82169050919050565b613df081613dce565b8114613dfa575f5ffd5b50565b5f81519050613e0b81613de7565b92915050565b5f61ffff82169050919050565b613e2781613e11565b8114613e31575f5ffd5b50565b5f81519050613e4281613e1e565b92915050565b5f5f5f5f60808587031215613e6057613e5f612d32565b5b5f613e6d87828801613dfd565b9450506020613e7e87828801613dfd565b9350506040613e8f87828801613e34565b9250506060613ea087828801613e34565b91505092959194509250565b5f604082019050613ebf5f830185612e50565b613ecc602083018461320e565b9392505050565b5f82825260208201905092915050565b5f601f19601f8301169050919050565b5f613efd82613af6565b613f078185613ed3565b9350613f17818560208601613b0a565b613f2081613ee3565b840191505092915050565b5f60a082019050613f3e5f830188612e50565b613f4b6020830187612e50565b613f58604083018661320e565b8181036060830152613f6a8185613ef3565b9050613f79608083018461320e565b9695505050505050565b7f64732d6d6174682d7375622d756e646572666c6f7700000000000000000000005f82015250565b5f613fb7601583613611565b9150613fc282613f83565b602082019050919050565b5f6020820190508181035f830152613fe481613fab565b9050919050565b7f556e697377617056324c6962726172793a20494e53554646494349454e545f415f8201527f4d4f554e54000000000000000000000000000000000000000000000000000000602082015250565b5f614045602583613611565b915061405082613feb565b604082019050919050565b5f6020820190508181035f83015261407281614039565b9050919050565b7f556e697377617056324c6962726172793a20494e53554646494349454e545f4c5f8201527f4951554944495459000000000000000000000000000000000000000000000000602082015250565b5f6140d3602883613611565b91506140de82614079565b604082019050919050565b5f6020820190508181035f830152614100816140c7565b9050919050565b7f4e487b71000000000000000000000000000000000000000000000000000000005f52601260045260245ffd5b5f61413e82612d94565b915061414983612d94565b92508261415957614158614107565b5b828204905092915050565b7f556e697377617056324c6962726172793a204944454e544943414c5f414444525f8201527f4553534553000000000000000000000000000000000000000000000000000000602082015250565b5f6141be602583613611565b91506141c982614164565b604082019050919050565b5f6020820190508181035f8301526141eb816141b2565b9050919050565b7f556e697377617056324c6962726172793a205a45524f5f4144445245535300005f82015250565b5f614226601e83613611565b9150614231826141f2565b602082019050919050565b5f6020820190508181035f8301526142538161421a565b9050919050565b7f556e697377617056324c6962726172793a20494e56414c49445f5041544800005f82015250565b5f61428e601e83613611565b91506142998261425a565b602082019050919050565b5f6020820190508181035f8301526142bb81614282565b9050919050565b5f6142cc82612d94565b91506142d783612d94565b92508282026142e581612d94565b915082820484148315176142fc576142fb613714565b5b5092915050565b7f64732d6d6174682d6d756c2d6f766572666c6f770000000000000000000000005f82015250565b5f614337601483613611565b915061434282614303565b602082019050919050565b5f6020820190508181035f8301526143648161432b565b905091905056fea264697066735822122030ddbe7c389cbcb23a3130cbfe9b6775ec7995ca3e5460d49cbe74daad266be864736f6c634300081c0033","linkReferences":{}},"methodIdentifiers":{"WETH()":"ad5c4648","addLiquidity(address,address,uint256,uint256,uint256,uint256,address,uint256)":"e8e33700","addLiquidityETH(address,uint256,uint256,uint256,address,uint256)":"f305d719","factory()":"c45a0155","getAmountsOut(uint256,address[])":"d06ca61f","getPair(address,address)":"e6a43905","quote(uint256,uint256,uint256)":"ad615dec","removeLiquidity(address,address,uint256,uint256,uint256,address,uint256)":"baa2abde","removeLiquidityETH(address,uint256,uint256,uint256,address,uint256)":"02751cec","removeLiquidityETHSupportingFeeOnTransferTokens(address,uint256,uint256,uint256,address,uint256)":"af2979eb","removeLiquidityETHWithPermit(address,uint256,uint256,uint256,address,uint256,bool,uint8,bytes32,bytes32)":"ded9382a","removeLiquidityETHWithPermitSupportingFeeOnTransferTokens(address,uint256,uint256,uint256,address,uint256,bool,uint8,bytes32,bytes32)":"5b0d5984","removeLiquidityWithPermit(address,address,uint256,uint256,uint256,address,uint256,bool,uint8,bytes32,bytes32)":"2195995c","swapExactETHForTokensSupportingFeeOnTransferTokens(uint256,address[],address,address,uint256)":"b4822be3","swapExactTokensForETHSupportingFeeOnTransferTokens(uint256,uint256,address[],address,address,uint256)":"52aa4c22","swapExactTokensForTokensSupportingFeeOnTransferTokens(uint256,uint256,address[],address,address,uint256)":"ac3893ba"},"id":10}