{"abi":[{"type":"constructor","inputs":[{"name":"_factory","type":"address","internalType":"address"},{"name":"_WETH","type":"address","internalType":"address"}],"stateMutability":"nonpayable"},{"type":"receive","stateMutability":"payable"},{"type":"function","name":"WETH","inputs":[],"outputs":[{"name":"","type":"address","internalType":"address"}],"stateMutability":"view"},{"type":"function","name":"addLiquidity","inputs":[{"name":"tokenA","type":"address","internalType":"address"},{"name":"tokenB","type":"address","internalType":"address"},{"name":"amountADesired","type":"uint256","internalType":"uint256"},{"name":"amountBDesired","type":"uint256","internalType":"uint256"},{"name":"amountAMin","type":"uint256","internalType":"uint256"},{"name":"amountBMin","type":"uint256","internalType":"uint256"},{"name":"to","type":"address","internalType":"address"},{"name":"deadline","type":"uint256","internalType":"uint256"}],"outputs":[{"name":"amountA","type":"uint256","internalType":"uint256"},{"name":"amountB","type":"uint256","internalType":"uint256"},{"name":"liquidity","type":"uint256","internalType":"uint256"}],"stateMutability":"nonpayable"},{"type":"function","name":"addLiquidityETH","inputs":[{"name":"token","type":"address","internalType":"address"},{"name":"amountTokenDesired","type":"uint256","internalType":"uint256"},{"name":"amountTokenMin","type":"uint256","internalType":"uint256"},{"name":"amountETHMin","type":"uint256","internalType":"uint256"},{"name":"to","type":"address","internalType":"address"},{"name":"deadline","type":"uint256","internalType":"uint256"}],"outputs":[{"name":"amountToken","type":"uint256","internalType":"uint256"},{"name":"amountETH","type":"uint256","internalType":"uint256"},{"name":"liquidity","type":"uint256","internalType":"uint256"}],"stateMutability":"payable"},{"type":"function","name":"factory","inputs":[],"outputs":[{"name":"","type":"address","internalType":"address"}],"stateMutability":"view"},{"type":"function","name":"getAmountsOut","inputs":[{"name":"amountIn","type":"uint256","internalType":"uint256"},{"name":"path","type":"address[]","internalType":"address[]"}],"outputs":[{"name":"amounts","type":"uint256[]","internalType":"uint256[]"}],"stateMutability":"view"},{"type":"function","name":"getPair","inputs":[{"name":"token1","type":"address","internalType":"address"},{"name":"token2","type":"address","internalType":"address"}],"outputs":[{"name":"","type":"address","internalType":"address"}],"stateMutability":"view"},{"type":"function","name":"quote","inputs":[{"name":"amountA","type":"uint256","internalType":"uint256"},{"name":"reserveA","type":"uint256","internalType":"uint256"},{"name":"reserveB","type":"uint256","internalType":"uint256"}],"outputs":[{"name":"amountB","type":"uint256","internalType":"uint256"}],"stateMutability":"pure"},{"type":"function","name":"removeLiquidity","inputs":[{"name":"tokenA","type":"address","internalType":"address"},{"name":"tokenB","type":"address","internalType":"address"},{"name":"liquidity","type":"uint256","internalType":"uint256"},{"name":"amountAMin","type":"uint256","internalType":"uint256"},{"name":"amountBMin","type":"uint256","internalType":"uint256"},{"name":"to","type":"address","internalType":"address"},{"name":"deadline","type":"uint256","internalType":"uint256"}],"outputs":[{"name":"amountA","type":"uint256","internalType":"uint256"},{"name":"amountB","type":"uint256","internalType":"uint256"}],"stateMutability":"nonpayable"},{"type":"function","name":"removeLiquidityETH","inputs":[{"name":"token","type":"address","internalType":"address"},{"name":"liquidity","type":"uint256","internalType":"uint256"},{"name":"amountTokenMin","type":"uint256","internalType":"uint256"},{"name":"amountETHMin","type":"uint256","internalType":"uint256"},{"name":"to","type":"address","internalType":"address"},{"name":"deadline","type":"uint256","internalType":"uint256"}],"outputs":[{"name":"amountToken","type":"uint256","internalType":"uint256"},{"name":"amountETH","type":"uint256","internalType":"uint256"}],"stateMutability":"nonpayable"},{"type":"function","name":"removeLiquidityETHSupportingFeeOnTransferTokens","inputs":[{"name":"token","type":"address","internalType":"address"},{"name":"liquidity","type":"uint256","internalType":"uint256"},{"name":"amountTokenMin","type":"uint256","internalType":"uint256"},{"name":"amountETHMin","type":"uint256","internalType":"uint256"},{"name":"to","type":"address","internalType":"address"},{"name":"deadline","type":"uint256","internalType":"uint256"}],"outputs":[{"name":"amountETH","type":"uint256","internalType":"uint256"}],"stateMutability":"nonpayable"},{"type":"function","name":"removeLiquidityETHWithPermit","inputs":[{"name":"token","type":"address","internalType":"address"},{"name":"liquidity","type":"uint256","internalType":"uint256"},{"name":"amountTokenMin","type":"uint256","internalType":"uint256"},{"name":"amountETHMin","type":"uint256","internalType":"uint256"},{"name":"to","type":"address","internalType":"address"},{"name":"deadline","type":"uint256","internalType":"uint256"},{"name":"approveMax","type":"bool","internalType":"bool"},{"name":"v","type":"uint8","internalType":"uint8"},{"name":"r","type":"bytes32","internalType":"bytes32"},{"name":"s","type":"bytes32","internalType":"bytes32"}],"outputs":[{"name":"amountToken","type":"uint256","internalType":"uint256"},{"name":"amountETH","type":"uint256","internalType":"uint256"}],"stateMutability":"nonpayable"},{"type":"function","name":"removeLiquidityETHWithPermitSupportingFeeOnTransferTokens","inputs":[{"name":"token","type":"address","internalType":"address"},{"name":"liquidity","type":"uint256","internalType":"uint256"},{"name":"amountTokenMin","type":"uint256","internalType":"uint256"},{"name":"amountETHMin","type":"uint256","internalType":"uint256"},{"name":"to","type":"address","internalType":"address"},{"name":"deadline","type":"uint256","internalType":"uint256"},{"name":"approveMax","type":"bool","internalType":"bool"},{"name":"v","type":"uint8","internalType":"uint8"},{"name":"r","type":"bytes32","internalType":"bytes32"},{"name":"s","type":"bytes32","internalType":"bytes32"}],"outputs":[{"name":"amountETH","type":"uint256","internalType":"uint256"}],"stateMutability":"nonpayable"},{"type":"function","name":"removeLiquidityWithPermit","inputs":[{"name":"tokenA","type":"address","internalType":"address"},{"name":"tokenB","type":"address","internalType":"address"},{"name":"liquidity","type":"uint256","internalType":"uint256"},{"name":"amountAMin","type":"uint256","internalType":"uint256"},{"name":"amountBMin","type":"uint256","internalType":"uint256"},{"name":"to","type":"address","internalType":"address"},{"name":"deadline","type":"uint256","internalType":"uint256"},{"name":"approveMax","type":"bool","internalType":"bool"},{"name":"v","type":"uint8","internalType":"uint8"},{"name":"r","type":"bytes32","internalType":"bytes32"},{"name":"s","type":"bytes32","internalType":"bytes32"}],"outputs":[{"name":"amountA","type":"uint256","internalType":"uint256"},{"name":"amountB","type":"uint256","internalType":"uint256"}],"stateMutability":"nonpayable"},{"type":"function","name":"swapExactETHForTokensSupportingFeeOnTransferTokens","inputs":[{"name":"amountOutMin","type":"uint256","internalType":"uint256"},{"name":"path","type":"address[]","internalType":"address[]"},{"name":"to","type":"address","internalType":"address"},{"name":"referrer","type":"address","internalType":"address"},{"name":"deadline","type":"uint256","internalType":"uint256"}],"outputs":[],"stateMutability":"payable"},{"type":"function","name":"swapExactTokensForETHSupportingFeeOnTransferTokens","inputs":[{"name":"amountIn","type":"uint256","internalType":"uint256"},{"name":"amountOutMin","type":"uint256","internalType":"uint256"},{"name":"path","type":"address[]","internalType":"address[]"},{"name":"to","type":"address","internalType":"address"},{"name":"referrer","type":"address","internalType":"address"},{"name":"deadline","type":"uint256","internalType":"uint256"}],"outputs":[],"stateMutability":"nonpayable"},{"type":"function","name":"swapExactTokensForTokensSupportingFeeOnTransferTokens","inputs":[{"name":"amountIn","type":"uint256","internalType":"uint256"},{"name":"amountOutMin","type":"uint256","internalType":"uint256"},{"name":"path","type":"address[]","internalType":"address[]"},{"name":"to","type":"address","internalType":"address"},{"name":"referrer","type":"address","internalType":"address"},{"name":"deadline","type":"uint256","internalType":"uint256"}],"outputs":[],"stateMutability":"nonpayable"}],"bytecode":{"object":"0x60c060405234801561000f575f5ffd5b50604051612e5a380380612e5a83398101604081905261002e91610060565b6001600160a01b039182166080521660a052610091565b80516001600160a01b038116811461005b575f5ffd5b919050565b5f5f60408385031215610071575f5ffd5b61007a83610045565b915061008860208401610045565b90509250929050565b60805160a051612cc96101915f395f818160d5015281816101dc01528181610397015281816103e601528181610556015281816106ce0152818161077a0152818161081701528181610ae601528181610ba101528181610c3801528181610cb301528181610d23015281816111720152818161138c015281816113e101528181611415015261149701525f818161028c01528181610463015281816105fd015281816107f501528181610d5501528181610f57015281816110f00152818161115001528181611238015281816112a4015281816113bf015281816119d201528181611b7f0152818161206e0152818161211101526121910152612cc95ff3fe6080604052600436106100c5575f3560e01c806302751cec146101085780632195995c1461014157806352aa4c22146101605780635b0d59841461017f578063ac3893ba146101ac578063ad5c4648146101cb578063ad615dec1461020b578063af2979eb1461022a578063b4822be314610249578063baa2abde1461025c578063c45a01551461027b578063d06ca61f146102ae578063ded9382a146102da578063e6a43905146102f9578063e8e3370014610318578063f305d71914610352575f5ffd5b3661010457336001600160a01b037f0000000000000000000000000000000000000000000000000000000000000000161461010257610102612397565b005b5f5ffd5b348015610113575f5ffd5b506101276101223660046123c2565b610365565b604080519283526020830191909152015b60405180910390f35b34801561014c575f5ffd5b5061012761015b36600461243e565b61045b565b34801561016b575f5ffd5b5061010261017a366004612526565b61052b565b34801561018a575f5ffd5b5061019e6101993660046125a7565b6107ee565b604051908152602001610138565b3480156101b7575f5ffd5b506101026101c6366004612526565b6108d3565b3480156101d6575f5ffd5b506101fe7f000000000000000000000000000000000000000000000000000000000000000081565b604051610138919061263a565b348015610216575f5ffd5b5061019e61022536600461264e565b610aaa565b348015610235575f5ffd5b5061019e6102443660046123c2565b610abe565b610102610257366004612677565b610c15565b348015610267575f5ffd5b506101276102763660046126ed565b610f2e565b348015610286575f5ffd5b506101fe7f000000000000000000000000000000000000000000000000000000000000000081565b3480156102b9575f5ffd5b506102cd6102c836600461275b565b6110e9565b60405161013891906127a2565b3480156102e5575f5ffd5b506101276102f43660046125a7565b611148565b348015610304575f5ffd5b506101fe6103133660046127e4565b611232565b348015610323575f5ffd5b5061033761033236600461281b565b611267565b60408051938452602084019290925290820152606001610138565b6103376103603660046123c2565b611362565b5f5f82428110156103915760405162461bcd60e51b815260040161038890612892565b60405180910390fd5b6103c0897f00000000000000000000000000000000000000000000000000000000000000008a8a8a308a610f2e565b90935091506103d08986856115b4565b604051632e1a7d4d60e01b8152600481018390527f00000000000000000000000000000000000000000000000000000000000000006001600160a01b031690632e1a7d4d906024015f604051808303815f87803b15801561042f575f5ffd5b505af1158015610441573d5f5f3e3d5ffd5b5050505061044f85836116e2565b50965096945050505050565b5f5f5f6104897f00000000000000000000000000000000000000000000000000000000000000008f8f6117bd565b90505f87610497578c61049a565b5f195b60405163d505accf60e01b81529091506001600160a01b0383169063d505accf906104d5903390309086908f908e908e908e906004016128c2565b5f604051808303815f87803b1580156104ec575f5ffd5b505af11580156104fe573d5f5f3e3d5ffd5b505050506105118f8f8f8f8f8f8f610f2e565b809450819550505050509b509b9950505050505050505050565b804281101561054c5760405162461bcd60e51b815260040161038890612892565b6001600160a01b037f0000000000000000000000000000000000000000000000000000000000000000168686610583600182612917565b8181106105925761059261292a565b90506020020160208101906105a7919061293e565b6001600160a01b0316146105cd5760405162461bcd60e51b815260040161038890612960565b61067686865f8181106105e2576105e261292a565b90506020020160208101906105f7919061293e565b336106707f00000000000000000000000000000000000000000000000000000000000000008a8a5f81811061062e5761062e61292a565b9050602002016020810190610643919061293e565b8b8b60018181106106565761065661292a565b905060200201602081019061066b919061293e565b6117bd565b8b61182c565b6106b58686808060200260200160405190810160405280939291908181526020018383602002808284375f920191909152503092508791506119619050565b6040516370a0823160e01b81525f906001600160a01b037f000000000000000000000000000000000000000000000000000000000000000016906370a082319061070390309060040161263a565b602060405180830381865afa15801561071e573d5f5f3e3d5ffd5b505050506040513d601f19601f820116820180604052508101906107429190612995565b9050878110156107645760405162461bcd60e51b8152600401610388906129ac565b604051632e1a7d4d60e01b8152600481018290527f00000000000000000000000000000000000000000000000000000000000000006001600160a01b031690632e1a7d4d906024015f604051808303815f87803b1580156107c3575f5ffd5b505af11580156107d5573d5f5f3e3d5ffd5b505050506107e385826116e2565b505050505050505050565b5f5f61083b7f00000000000000000000000000000000000000000000000000000000000000008d7f00000000000000000000000000000000000000000000000000000000000000006117bd565b90505f86610849578b61084c565b5f195b60405163d505accf60e01b81529091506001600160a01b0383169063d505accf90610887903390309086908e908d908d908d906004016128c2565b5f604051808303815f87803b15801561089e575f5ffd5b505af11580156108b0573d5f5f3e3d5ffd5b505050506108c28d8d8d8d8d8d610abe565b9d9c50505050505050505050505050565b80428110156108f45760405162461bcd60e51b815260040161038890612892565b61090986865f8181106105e2576105e261292a565b5f8686610917600182612917565b8181106109265761092661292a565b905060200201602081019061093b919061293e565b6001600160a01b03166370a08231866040518263ffffffff1660e01b8152600401610966919061263a565b602060405180830381865afa158015610981573d5f5f3e3d5ffd5b505050506040513d601f19601f820116820180604052508101906109a59190612995565b90506109e68787808060200260200160405190810160405280939291908181526020018383602002808284375f920191909152508992508891506119619050565b87610a8c8289896109f8600182612917565b818110610a0757610a0761292a565b9050602002016020810190610a1c919061293e565b6001600160a01b03166370a08231896040518263ffffffff1660e01b8152600401610a47919061263a565b602060405180830381865afa158015610a62573d5f5f3e3d5ffd5b505050506040513d601f19601f82011682018060405250810190610a869190612995565b90611c5b565b10156107e35760405162461bcd60e51b8152600401610388906129ac565b5f610ab6848484611cb0565b949350505050565b5f8142811015610ae05760405162461bcd60e51b815260040161038890612892565b610b0f887f00000000000000000000000000000000000000000000000000000000000000008989893089610f2e565b6040516370a0823160e01b8152909350610b8b9150899086906001600160a01b038316906370a0823190610b4790309060040161263a565b602060405180830381865afa158015610b62573d5f5f3e3d5ffd5b505050506040513d601f19601f82011682018060405250810190610b869190612995565b6115b4565b604051632e1a7d4d60e01b8152600481018390527f00000000000000000000000000000000000000000000000000000000000000006001600160a01b031690632e1a7d4d906024015f604051808303815f87803b158015610bea575f5ffd5b505af1158015610bfc573d5f5f3e3d5ffd5b50505050610c0a84836116e2565b509695505050505050565b8042811015610c365760405162461bcd60e51b815260040161038890612892565b7f00000000000000000000000000000000000000000000000000000000000000006001600160a01b031686865f818110610c7257610c7261292a565b9050602002016020810190610c87919061293e565b6001600160a01b031614610cad5760405162461bcd60e51b815260040161038890612960565b5f3490507f00000000000000000000000000000000000000000000000000000000000000006001600160a01b031663d0e30db0826040518263ffffffff1660e01b81526004015f604051808303818588803b158015610d0a575f5ffd5b505af1158015610d1c573d5f5f3e3d5ffd5b50505050507f00000000000000000000000000000000000000000000000000000000000000006001600160a01b031663a9059cbb610d867f00000000000000000000000000000000000000000000000000000000000000008a8a5f81811061062e5761062e61292a565b836040518363ffffffff1660e01b8152600401610da49291906129f5565b6020604051808303815f875af1158015610dc0573d5f5f3e3d5ffd5b505050506040513d601f19601f82011682018060405250810190610de49190612a0e565b610df057610df0612397565b5f8787610dfe600182612917565b818110610e0d57610e0d61292a565b9050602002016020810190610e22919061293e565b6001600160a01b03166370a08231876040518263ffffffff1660e01b8152600401610e4d919061263a565b602060405180830381865afa158015610e68573d5f5f3e3d5ffd5b505050506040513d601f19601f82011682018060405250810190610e8c9190612995565b9050610ecd8888808060200260200160405190810160405280939291908181526020018383602002808284375f920191909152508a92508991506119619050565b88610a8c828a8a610edf600182612917565b818110610eee57610eee61292a565b9050602002016020810190610f03919061293e565b6001600160a01b03166370a082318a6040518263ffffffff1660e01b8152600401610a47919061263a565b5f5f8242811015610f515760405162461bcd60e51b815260040161038890612892565b5f610f7d7f00000000000000000000000000000000000000000000000000000000000000008c8c6117bd565b6040516323b872dd60e01b81529091506001600160a01b038216906323b872dd90610fb090339085908e90600401612a29565b6020604051808303815f875af1158015610fcc573d5f5f3e3d5ffd5b505050506040513d601f19601f82011682018060405250810190610ff09190612a0e565b505f5f826001600160a01b03166389afcb44896040518263ffffffff1660e01b815260040161101f919061263a565b60408051808303815f875af115801561103a573d5f5f3e3d5ffd5b505050506040513d601f19601f8201168201806040525081019061105e9190612a4d565b915091505f61106d8e8e611d8e565b509050806001600160a01b03168e6001600160a01b031614611090578183611093565b82825b90975095508a8710156110b85760405162461bcd60e51b815260040161038890612a6f565b898610156110d85760405162461bcd60e51b815260040161038890612ab3565b505050505097509795505050505050565b6060610ab67f0000000000000000000000000000000000000000000000000000000000000000858585808060200260200160405190810160405280939291908181526020018383602002808284375f92019190915250611e8492505050565b5f5f5f6111967f00000000000000000000000000000000000000000000000000000000000000008e7f00000000000000000000000000000000000000000000000000000000000000006117bd565b90505f876111a4578c6111a7565b5f195b60405163d505accf60e01b81529091506001600160a01b0383169063d505accf906111e2903390309086908f908e908e908e906004016128c2565b5f604051808303815f87803b1580156111f9575f5ffd5b505af115801561120b573d5f5f3e3d5ffd5b5050505061121d8e8e8e8e8e8e610365565b909f909e509c50505050505050505050505050565b5f61125e7f000000000000000000000000000000000000000000000000000000000000000084846117bd565b90505b92915050565b5f5f5f834281101561128b5760405162461bcd60e51b815260040161038890612892565b6112998c8c8c8c8c8c612059565b90945092505f6112ca7f00000000000000000000000000000000000000000000000000000000000000008e8e6117bd565b90506112d88d33838861182c565b6112e48c33838761182c565b6040516335313c2160e11b81526001600160a01b03821690636a62784290611310908a9060040161263a565b6020604051808303815f875af115801561132c573d5f5f3e3d5ffd5b505050506040513d601f19601f820116820180604052508101906113509190612995565b92505050985098509895505050505050565b5f5f5f83428110156113865760405162461bcd60e51b815260040161038890612892565b6113b48a7f00000000000000000000000000000000000000000000000000000000000000008b348c8c612059565b90945092505f6114057f00000000000000000000000000000000000000000000000000000000000000008c7f00000000000000000000000000000000000000000000000000000000000000006117bd565b90506114138b33838861182c565b7f00000000000000000000000000000000000000000000000000000000000000006001600160a01b031663d0e30db0856040518263ffffffff1660e01b81526004015f604051808303818588803b15801561146c575f5ffd5b505af115801561147e573d5f5f3e3d5ffd5b505060405163a9059cbb60e01b81526001600160a01b037f000000000000000000000000000000000000000000000000000000000000000016935063a9059cbb92506114d19150849088906004016129f5565b6020604051808303815f875af11580156114ed573d5f5f3e3d5ffd5b505050506040513d601f19601f820116820180604052508101906115119190612a0e565b61151d5761151d612397565b6040516335313c2160e11b81526001600160a01b03821690636a62784290611549908a9060040161263a565b6020604051808303815f875af1158015611565573d5f5f3e3d5ffd5b505050506040513d601f19601f820116820180604052508101906115899190612995565b9250833411156115a6576115a6336115a18634612917565b6116e2565b505096509650969350505050565b5f5f846001600160a01b031663a9059cbb85856040516024016115d89291906129f5565b6040516020818303038152906040529060e01b6020820180516001600160e01b0383818316178352505050506040516116119190612af7565b5f604051808303815f865af19150503d805f811461164a576040519150601f19603f3d011682016040523d82523d5f602084013e61164f565b606091505b50915091508180156116795750805115806116795750808060200190518101906116799190612a0e565b6116db5760405162461bcd60e51b815260206004820152602d60248201527f5472616e7366657248656c7065723a3a736166655472616e736665723a20747260448201526c185b9cd9995c8819985a5b1959609a1b6064820152608401610388565b5050505050565b604080515f808252602082019092526001600160a01b03841690839060405161170b9190612af7565b5f6040518083038185875af1925050503d805f8114611745576040519150601f19603f3d011682016040523d82523d5f602084013e61174a565b606091505b50509050806117b85760405162461bcd60e51b815260206004820152603460248201527f5472616e7366657248656c7065723a3a736166655472616e736665724554483a60448201527308115512081d1c985b9cd9995c8819985a5b195960621b6064820152608401610388565b505050565b60405163e6a4390560e01b81525f906001600160a01b0385169063e6a43905906117ed9086908690600401612b21565b602060405180830381865afa158015611808573d5f5f3e3d5ffd5b505050506040513d601f19601f82011682018060405250810190610ab69190612b3b565b5f5f856001600160a01b03166323b872dd86868660405160240161185293929190612a29565b6040516020818303038152906040529060e01b6020820180516001600160e01b03838183161783525050505060405161188b9190612af7565b5f604051808303815f865af19150503d805f81146118c4576040519150601f19603f3d011682016040523d82523d5f602084013e6118c9565b606091505b50915091508180156118f35750805115806118f35750808060200190518101906118f39190612a0e565b6119595760405162461bcd60e51b815260206004820152603160248201527f5472616e7366657248656c7065723a3a7472616e7366657246726f6d3a207472604482015270185b9cd9995c919c9bdb4819985a5b1959607a1b6064820152608401610388565b505050505050565b5f5b600184516119719190612917565b811015611c55575f5f85838151811061198c5761198c61292a565b6020026020010151868460016119a29190612b56565b815181106119b2576119b261292a565b6020026020010151915091505f6119c98383611d8e565b5090505f6119f87f000000000000000000000000000000000000000000000000000000000000000085856117bd565b90505f5f5f836001600160a01b0316630902f1ac6040518163ffffffff1660e01b8152600401608060405180830381865afa158015611a39573d5f5f3e3d5ffd5b505050506040513d601f19601f82011682018060405250810190611a5d9190612b90565b50506001600160701b031691506001600160701b03169150846001600160a01b0316876001600160a01b031614611a9057905b5f611ac183896001600160a01b03166370a08231886040518263ffffffff1660e01b8152600401610a47919061263a565b6040516378a051ad60e11b81529091506001600160a01b0386169063f140a35a90611af29084908c90600401612be1565b602060405180830381865afa158015611b0d573d5f5f3e3d5ffd5b505050506040513d601f19601f82011682018060405250810190611b319190612995565b93505050505f5f846001600160a01b0316876001600160a01b031614611b5857825f611b5b565b5f835b915091505f60028c51611b6e9190612917565b8910611b7a578a611bc8565b611bc87f0000000000000000000000000000000000000000000000000000000000000000888e611bab8d6002612b56565b81518110611bbb57611bbb61292a565b60200260200101516117bd565b604080515f808252602082019092529192506001600160a01b03871691636e1fdd7f9186918691869190508f6040518663ffffffff1660e01b8152600401611c14959493929190612bf8565b5f604051808303815f87803b158015611c2b575f5ffd5b505af1158015611c3d573d5f5f3e3d5ffd5b50506001909a01995061196398505050505050505050565b50505050565b5f82611c678382612917565b91508111156112615760405162461bcd60e51b815260206004820152601560248201527464732d6d6174682d7375622d756e646572666c6f7760581b6044820152606401610388565b5f5f8411611d0e5760405162461bcd60e51b815260206004820152602560248201527f556e697377617056324c6962726172793a20494e53554646494349454e545f416044820152641353d5539560da1b6064820152608401610388565b5f83118015611d1c57505f82115b611d795760405162461bcd60e51b815260206004820152602860248201527f556e697377617056324c6962726172793a20494e53554646494349454e545f4c604482015267495155494449545960c01b6064820152608401610388565b82611d84858461226b565b610ab69190612c5d565b5f5f826001600160a01b0316846001600160a01b031603611dff5760405162461bcd60e51b815260206004820152602560248201527f556e697377617056324c6962726172793a204944454e544943414c5f41444452604482015264455353455360d81b6064820152608401610388565b826001600160a01b0316846001600160a01b031610611e1f578284611e22565b83835b90925090506001600160a01b038216611e7d5760405162461bcd60e51b815260206004820152601e60248201527f556e697377617056324c6962726172793a205a45524f5f4144445245535300006044820152606401610388565b9250929050565b6060600282511015611ed85760405162461bcd60e51b815260206004820152601e60248201527f556e697377617056324c6962726172793a20494e56414c49445f5041544800006044820152606401610388565b81516001600160401b03811115611ef157611ef1612b0d565b604051908082528060200260200182016040528015611f1a578160200160208202803683370190505b50905082815f81518110611f3057611f3061292a565b6020026020010181815250505f5b60018351611f4c9190612917565b811015612051575f611f8086858481518110611f6a57611f6a61292a565b602002602001015186856001611bab9190612b56565b9050806001600160a01b031663f140a35a848481518110611fa357611fa361292a565b6020026020010151868581518110611fbd57611fbd61292a565b60200260200101516040518363ffffffff1660e01b8152600401611fe2929190612be1565b602060405180830381865afa158015611ffd573d5f5f3e3d5ffd5b505050506040513d601f19601f820116820180604052508101906120219190612995565b8361202d846001612b56565b8151811061203d5761203d61292a565b602090810291909101015250600101611f3e565b509392505050565b60405163e6a4390560e01b81525f90819081907f00000000000000000000000000000000000000000000000000000000000000006001600160a01b03169063e6a43905906120ad908c908c90600401612b21565b602060405180830381865afa1580156120c8573d5f5f3e3d5ffd5b505050506040513d601f19601f820116820180604052508101906120ec9190612b3b565b6001600160a01b03160361218a576040516364e329cb60e11b81526001600160a01b037f0000000000000000000000000000000000000000000000000000000000000000169063c9c6539690612148908b908b90600401612b21565b6020604051808303815f875af1158015612164573d5f5f3e3d5ffd5b505050506040513d601f19601f820116820180604052508101906121889190612b3b565b505b5f5f6121b77f00000000000000000000000000000000000000000000000000000000000000008b8b6122d1565b91509150815f1480156121c8575080155b156121d85787935086925061225e565b5f6121e4898484611cb0565b9050878111612218578581101561220d5760405162461bcd60e51b815260040161038890612ab3565b88945092508261225c565b5f612224898486611cb0565b90508981111561223657612236612397565b878110156122565760405162461bcd60e51b815260040161038890612a6f565b94508793505b505b5050965096945050505050565b5f81158061228e575082826122808183612c7c565b925061228c9083612c5d565b145b6112615760405162461bcd60e51b815260206004820152601460248201527364732d6d6174682d6d756c2d6f766572666c6f7760601b6044820152606401610388565b5f5f5f6122de8585611d8e565b5090505f5f6122ee8888886117bd565b6001600160a01b0316630902f1ac6040518163ffffffff1660e01b8152600401608060405180830381865afa158015612329573d5f5f3e3d5ffd5b505050506040513d601f19601f8201168201806040525081019061234d9190612b90565b50506001600160701b031691506001600160701b03169150826001600160a01b0316876001600160a01b031614612385578082612388565b81815b90999098509650505050505050565b634e487b7160e01b5f52600160045260245ffd5b6001600160a01b03811681146123bf575f5ffd5b50565b5f5f5f5f5f5f60c087890312156123d7575f5ffd5b86356123e2816123ab565b95506020870135945060408701359350606087013592506080870135612407816123ab565b9598949750929591949360a090920135925050565b80151581146123bf575f5ffd5b803560ff81168114612439575f5ffd5b919050565b5f5f5f5f5f5f5f5f5f5f5f6101608c8e031215612459575f5ffd5b8b35612464816123ab565b9a5060208c0135612474816123ab565b995060408c0135985060608c0135975060808c0135965060a08c0135612499816123ab565b955060c08c0135945060e08c01356124b08161241c565b93506124bf6101008d01612429565b9a9d999c50979a969995989497509295919493610120830135935061014090920135919050565b5f5f83601f8401126124f6575f5ffd5b5081356001600160401b0381111561250c575f5ffd5b6020830191508360208260051b8501011115611e7d575f5ffd5b5f5f5f5f5f5f5f60c0888a03121561253c575f5ffd5b873596506020880135955060408801356001600160401b0381111561255f575f5ffd5b61256b8a828b016124e6565b909650945050606088013561257f816123ab565b9250608088013561258f816123ab565b96999598509396929591949193505060a09091013590565b5f5f5f5f5f5f5f5f5f5f6101408b8d0312156125c1575f5ffd5b8a356125cc816123ab565b995060208b0135985060408b0135975060608b0135965060808b01356125f1816123ab565b955060a08b0135945060c08b01356126088161241c565b935061261660e08c01612429565b999c989b509699959894979396509194610100810135936101209091013592509050565b6001600160a01b0391909116815260200190565b5f5f5f60608486031215612660575f5ffd5b505081359360208301359350604090920135919050565b5f5f5f5f5f5f60a0878903121561268c575f5ffd5b8635955060208701356001600160401b038111156126a8575f5ffd5b6126b489828a016124e6565b90965094505060408701356126c8816123ab565b925060608701356126d8816123ab565b95989497509295919493608090920135925050565b5f5f5f5f5f5f5f60e0888a031215612703575f5ffd5b873561270e816123ab565b9650602088013561271e816123ab565b955060408801359450606088013593506080880135925060a0880135612743816123ab565b96999598509396929591949193505060c09091013590565b5f5f5f6040848603121561276d575f5ffd5b8335925060208401356001600160401b03811115612789575f5ffd5b612795868287016124e6565b9497909650939450505050565b602080825282518282018190525f918401906040840190835b818110156127d95783518352602093840193909201916001016127bb565b509095945050505050565b5f5f604083850312156127f5575f5ffd5b8235612800816123ab565b91506020830135612810816123ab565b809150509250929050565b5f5f5f5f5f5f5f5f610100898b031215612833575f5ffd5b883561283e816123ab565b9750602089013561284e816123ab565b965060408901359550606089013594506080890135935060a0890135925060c089013561287a816123ab565b979a969950949793969295919450919260e001359150565b60208082526016908201527510d85b595b1bdd149bdd5d195c8e881156141254915160521b604082015260600190565b6001600160a01b0397881681529590961660208601526040850193909352606084019190915260ff16608083015260a082015260c081019190915260e00190565b634e487b7160e01b5f52601160045260245ffd5b8181038181111561126157611261612903565b634e487b7160e01b5f52603260045260245ffd5b5f6020828403121561294e575f5ffd5b8135612959816123ab565b9392505050565b6020808252601b908201527a086c2dacad8dee8a4deeae8cae47440929cac82989288bea082a89602b1b604082015260600190565b5f602082840312156129a5575f5ffd5b5051919050565b60208082526029908201527f43616d656c6f74526f757465723a20494e53554646494349454e545f4f555450604082015268155517d05353d5539560ba1b606082015260800190565b6001600160a01b03929092168252602082015260400190565b5f60208284031215612a1e575f5ffd5b81516129598161241c565b6001600160a01b039384168152919092166020820152604081019190915260600190565b5f5f60408385031215612a5e575f5ffd5b505080516020909101519092909150565b60208082526024908201527f43616d656c6f74526f757465723a20494e53554646494349454e545f415f414d60408201526313d5539560e21b606082015260800190565b60208082526024908201527f43616d656c6f74526f757465723a20494e53554646494349454e545f425f414d60408201526313d5539560e21b606082015260800190565b5f82518060208501845e5f920191825250919050565b634e487b7160e01b5f52604160045260245ffd5b6001600160a01b0392831681529116602082015260400190565b5f60208284031215612b4b575f5ffd5b8151612959816123ab565b8082018082111561126157611261612903565b80516001600160701b0381168114612439575f5ffd5b805161ffff81168114612439575f5ffd5b5f5f5f5f60808587031215612ba3575f5ffd5b612bac85612b69565b9350612bba60208601612b69565b9250612bc860408601612b7f565b9150612bd660608601612b7f565b905092959194509250565b9182526001600160a01b0316602082015260400190565b85815284602082015260018060a01b038416604082015260a060608201525f83518060a0840152806020860160c085015e5f83820160c0908101919091526001600160a01b03949094166080840152601f01601f191690910190910195945050505050565b5f82612c7757634e487b7160e01b5f52601260045260245ffd5b500490565b80820281158282048414176112615761126161290356fea2646970667358221220396b9350739b67a2fcb28c710f5e4542263ca3a83add09d9b5ae01dedaa95cac64736f6c634300081e0033","linkReferences":{}},"methodIdentifiers":{"WETH()":"ad5c4648","addLiquidity(address,address,uint256,uint256,uint256,uint256,address,uint256)":"e8e33700","addLiquidityETH(address,uint256,uint256,uint256,address,uint256)":"f305d719","factory()":"c45a0155","getAmountsOut(uint256,address[])":"d06ca61f","getPair(address,address)":"e6a43905","quote(uint256,uint256,uint256)":"ad615dec","removeLiquidity(address,address,uint256,uint256,uint256,address,uint256)":"baa2abde","removeLiquidityETH(address,uint256,uint256,uint256,address,uint256)":"02751cec","removeLiquidityETHSupportingFeeOnTransferTokens(address,uint256,uint256,uint256,address,uint256)":"af2979eb","removeLiquidityETHWithPermit(address,uint256,uint256,uint256,address,uint256,bool,uint8,bytes32,bytes32)":"ded9382a","removeLiquidityETHWithPermitSupportingFeeOnTransferTokens(address,uint256,uint256,uint256,address,uint256,bool,uint8,bytes32,bytes32)":"5b0d5984","removeLiquidityWithPermit(address,address,uint256,uint256,uint256,address,uint256,bool,uint8,bytes32,bytes32)":"2195995c","swapExactETHForTokensSupportingFeeOnTransferTokens(uint256,address[],address,address,uint256)":"b4822be3","swapExactTokensForETHSupportingFeeOnTransferTokens(uint256,uint256,address[],address,address,uint256)":"52aa4c22","swapExactTokensForTokensSupportingFeeOnTransferTokens(uint256,uint256,address[],address,address,uint256)":"ac3893ba"},"id":1003}