{"abi":[{"type":"receive","stateMutability":"payable"},{"type":"function","name":"addLiquidityUnbalancedNestedPool","inputs":[{"name":"parentPool","type":"address","internalType":"address"},{"name":"tokensIn","type":"address[]","internalType":"address[]"},{"name":"exactAmountsIn","type":"uint256[]","internalType":"uint256[]"},{"name":"tokensToWrap","type":"address[]","internalType":"address[]"},{"name":"minBptAmountOut","type":"uint256","internalType":"uint256"},{"name":"wethIsEth","type":"bool","internalType":"bool"},{"name":"userData","type":"bytes","internalType":"bytes"}],"outputs":[{"name":"","type":"uint256","internalType":"uint256"}],"stateMutability":"payable"},{"type":"function","name":"addLiquidityUnbalancedNestedPoolHook","inputs":[{"name":"params","type":"tuple","internalType":"struct AddLiquidityHookParams","components":[{"name":"sender","type":"address","internalType":"address"},{"name":"pool","type":"address","internalType":"address"},{"name":"maxAmountsIn","type":"uint256[]","internalType":"uint256[]"},{"name":"minBptAmountOut","type":"uint256","internalType":"uint256"},{"name":"kind","type":"uint8","internalType":"enum AddLiquidityKind"},{"name":"wethIsEth","type":"bool","internalType":"bool"},{"name":"userData","type":"bytes","internalType":"bytes"}]},{"name":"tokensIn","type":"address[]","internalType":"address[]"},{"name":"tokensToWrap","type":"address[]","internalType":"address[]"}],"outputs":[{"name":"exactBptAmountOut","type":"uint256","internalType":"uint256"}],"stateMutability":"nonpayable"},{"type":"function","name":"facetFuncs","inputs":[],"outputs":[{"name":"funcs","type":"bytes4[]","internalType":"bytes4[]"}],"stateMutability":"pure"},{"type":"function","name":"facetInterfaces","inputs":[],"outputs":[{"name":"interfaces","type":"bytes4[]","internalType":"bytes4[]"}],"stateMutability":"pure"},{"type":"function","name":"facetMetadata","inputs":[],"outputs":[{"name":"name_","type":"string","internalType":"string"},{"name":"interfaces","type":"bytes4[]","internalType":"bytes4[]"},{"name":"functions","type":"bytes4[]","internalType":"bytes4[]"}],"stateMutability":"pure"},{"type":"function","name":"facetName","inputs":[],"outputs":[{"name":"name","type":"string","internalType":"string"}],"stateMutability":"pure"},{"type":"function","name":"getSender","inputs":[],"outputs":[{"name":"","type":"address","internalType":"address"}],"stateMutability":"view"},{"type":"function","name":"queryAddLiquidityUnbalancedNestedPool","inputs":[{"name":"parentPool","type":"address","internalType":"address"},{"name":"tokensIn","type":"address[]","internalType":"address[]"},{"name":"exactAmountsIn","type":"uint256[]","internalType":"uint256[]"},{"name":"tokensToWrap","type":"address[]","internalType":"address[]"},{"name":"sender","type":"address","internalType":"address"},{"name":"userData","type":"bytes","internalType":"bytes"}],"outputs":[{"name":"","type":"uint256","internalType":"uint256"}],"stateMutability":"nonpayable"},{"type":"function","name":"queryRemoveLiquidityProportionalNestedPool","inputs":[{"name":"parentPool","type":"address","internalType":"address"},{"name":"exactBptAmountIn","type":"uint256","internalType":"uint256"},{"name":"tokensOut","type":"address[]","internalType":"address[]"},{"name":"tokensToUnwrap","type":"address[]","internalType":"address[]"},{"name":"sender","type":"address","internalType":"address"},{"name":"userData","type":"bytes","internalType":"bytes"}],"outputs":[{"name":"amountsOut","type":"uint256[]","internalType":"uint256[]"}],"stateMutability":"nonpayable"},{"type":"function","name":"removeLiquidityProportionalNestedPool","inputs":[{"name":"parentPool","type":"address","internalType":"address"},{"name":"exactBptAmountIn","type":"uint256","internalType":"uint256"},{"name":"tokensOut","type":"address[]","internalType":"address[]"},{"name":"minAmountsOut","type":"uint256[]","internalType":"uint256[]"},{"name":"tokensToUnwrap","type":"address[]","internalType":"address[]"},{"name":"wethIsEth","type":"bool","internalType":"bool"},{"name":"userData","type":"bytes","internalType":"bytes"}],"outputs":[{"name":"amountsOut","type":"uint256[]","internalType":"uint256[]"}],"stateMutability":"payable"},{"type":"function","name":"removeLiquidityProportionalNestedPoolHook","inputs":[{"name":"params","type":"tuple","internalType":"struct RemoveLiquidityHookParams","components":[{"name":"sender","type":"address","internalType":"address"},{"name":"pool","type":"address","internalType":"address"},{"name":"minAmountsOut","type":"uint256[]","internalType":"uint256[]"},{"name":"maxBptAmountIn","type":"uint256","internalType":"uint256"},{"name":"kind","type":"uint8","internalType":"enum RemoveLiquidityKind"},{"name":"wethIsEth","type":"bool","internalType":"bool"},{"name":"userData","type":"bytes","internalType":"bytes"}]},{"name":"tokensOut","type":"address[]","internalType":"address[]"},{"name":"tokensToUnwrap","type":"address[]","internalType":"address[]"}],"outputs":[{"name":"amountsOut","type":"uint256[]","internalType":"uint256[]"}],"stateMutability":"nonpayable"},{"type":"error","name":"AmountOutBelowMin","inputs":[{"name":"tokenOut","type":"address","internalType":"contract IERC20"},{"name":"amountOut","type":"uint256","internalType":"uint256"},{"name":"minAmountOut","type":"uint256","internalType":"uint256"}]},{"type":"error","name":"BufferNotInitialized","inputs":[{"name":"wrappedToken","type":"address","internalType":"contract IERC4626"}]},{"type":"error","name":"DuplicateTokenIn","inputs":[{"name":"duplicateToken","type":"address","internalType":"address"}]},{"type":"error","name":"ElementNotFound","inputs":[]},{"type":"error","name":"EthTransfer","inputs":[]},{"type":"error","name":"FailedCall","inputs":[]},{"type":"error","name":"InputLengthMismatch","inputs":[]},{"type":"error","name":"InsufficientBalance","inputs":[{"name":"balance","type":"uint256","internalType":"uint256"},{"name":"needed","type":"uint256","internalType":"uint256"}]},{"type":"error","name":"InsufficientEth","inputs":[]},{"type":"error","name":"InsufficientPayment","inputs":[{"name":"token","type":"address","internalType":"contract IERC20"}]},{"type":"error","name":"ReentrancyGuardReentrantCall","inputs":[]},{"type":"error","name":"SenderIsNotVault","inputs":[{"name":"sender","type":"address","internalType":"address"}]},{"type":"error","name":"SwapDeadline","inputs":[]},{"type":"error","name":"TransientIndexOutOfBounds","inputs":[]},{"type":"error","name":"WrongTokensOut","inputs":[{"name":"actualTokensOut","type":"address[]","internalType":"address[]"},{"name":"expectedTokensOut","type":"address[]","internalType":"address[]"}]}],"bytecode":{"object":"0x6080604052348015600e575f5ffd5b50613bc78061001c5f395ff3fe60806040526004361061008e575f3560e01c8063175f31c6146100d25780632ea80826146100f85780633121edfc1461011957806347cd1d0214610138578063574a4cff146101645780635b6f4d01146101785780635e01eb5a146101995780636c1fb320146101ba578063a5bb0bd1146101cd578063d2b1b903146101ec578063f10d7a751461020b575f5ffd5b366100ce5761009b61022e565b6001600160a01b0316336001600160a01b0316146100cc576040516302a06efb60e11b815260040160405180910390fd5b005b5f5ffd5b6100e56100e0366004612f26565b61024c565b6040519081526020015b60405180910390f35b348015610103575f5ffd5b5061010c61038f565b6040516100ef9190613048565b348015610124575f5ffd5b506100e561013336600461305a565b6103e7565b348015610143575f5ffd5b5061015761015236600461313e565b610529565b6040516100ef91906131f9565b34801561016f575f5ffd5b5061010c61068b565b348015610183575f5ffd5b5061018c6107db565b6040516100ef9190613239565b3480156101a4575f5ffd5b506101ad610812565b6040516100ef919061324b565b6101576101c836600461325f565b61081b565b3480156101d8575f5ffd5b506100e56101e736600461313e565b610946565b3480156101f7575f5ffd5b50610157610206366004613308565b610ab4565b348015610216575f5ffd5b5061021f610c2b565b6040516100ef9392919061338d565b5f61024761023a610c53565b546001600160a01b031690565b905090565b5f335f61025882610c77565b6040805160e0810182523381526001600160a01b038d1660208201529081018a9052606081018890526001608082015286151560a082015260c081018690529091505f6102a3610ca5565b6001600160a01b03166348c89491306001600160a01b031663a5bb0bd1858f8e6040516024016102d593929190613430565b60408051808303601f1901815291815260208201805160e094851b6001600160e01b03909116179052519184901b6001600160e01b031916825261031d925090600401613239565b5f604051808303815f875af1158015610338573d5f5f3e3d5ffd5b505050506040513d5f823e601f3d908101601f1916820160405261035f919081019061352e565b905080806020019051810190610375919061355f565b9450505061038281610cc1565b5050979650505050505050565b60408051600180825281830190925260609160208083019080368337019050509050633b7bb87360e01b815f815181106103cb576103cb613576565b6001600160e01b03199092166020928302919091019091015290565b5f825f6103f382610c77565b6040805160e0810182523081526001600160a01b038c1660208201529081018990525f606082018190526001608083015260a0820181905260c082018790529192509061043e610ca5565b6001600160a01b031663edfa3568306001600160a01b031663a5bb0bd1858e8d60405160240161047093929190613430565b60408051808303601f1901815291815260208201805160e094851b6001600160e01b03909116179052519184901b6001600160e01b03191682526104b8925090600401613239565b5f604051808303815f875af11580156104d3573d5f5f3e3d5ffd5b505050506040513d5f823e601f3d908101601f191682016040526104fa919081019061352e565b905080806020019051810190610510919061355f565b9450505061051d81610cc1565b50509695505050505050565b6060610533610cd3565b61053d6001610d07565b610545610d1c565b5f61054e610ca5565b90505f6001600160a01b03821663ca4f28036105706040890160208a0161358a565b6040518263ffffffff1660e01b815260040161058c919061324b565b5f60405180830381865afa1580156105a6573d5f5f3e3d5ffd5b505050506040513d5f823e601f3d908101601f191682016040526105cd91908101906135a5565b90506105e86105df6040880188613634565b90508651610d62565b5f6105f583888451610d82565b9050610604838884848961105c565b61064b8661061560408a018a613634565b808060200260200160405190810160405280939291908181526020018383602002808284375f9201919091525061111b92505050565b9350321561067857610678610663602089018961358a565b61067360c08a0160a08b01613680565b611378565b5050506106845f610d07565b9392505050565b60408051600680825260e082019092526060916020820160c08036833701905050905063175f31c660e01b815f815181106106c8576106c8613576565b6001600160e01b0319909216602092830291909101909101528051630c487b7f60e21b90829060019081106106ff576106ff613576565b6001600160e01b0319909216602092830291909101909101528051630360fd9960e51b908290600290811061073657610736613576565b6001600160e01b031990921660209283029190910190910152805163d2b1b90360e01b908290600390811061076d5761076d613576565b6001600160e01b031990921660209283029190910190910152805163a5bb0bd160e01b90829060049081106107a4576107a4613576565b6001600160e01b03199092166020928302919091019091015280516323e68e8160e11b90829060059081106103cb576103cb613576565b60408051808201909152601d81527f436f6d706f736974654c69717569646974794e65737465644661636574000000602082015290565b5f610247611568565b6060335f61082882610c77565b6040805160e0810182523381526001600160a01b038d166020820152908101899052606081018b90525f6080820181905287151560a083015260c0820187905291925090610874610ca5565b6001600160a01b03166348c89491306001600160a01b03166347cd1d02858e8d6040516024016108a6939291906136ab565b60408051808303601f1901815291815260208201805160e094851b6001600160e01b03909116179052519184901b6001600160e01b03191682526108ee925090600401613239565b5f604051808303815f875af1158015610909573d5f5f3e3d5ffd5b505050506040513d5f823e601f3d908101601f19168201604052610930919081019061352e565b9050808060200190518101906103759190613764565b5f61094f610cd3565b6109596001610d07565b610961610d1c565b61097a6109716040860186613634565b90508451610d62565b610982611571565b6109c9836109936040870187613634565b808060200260200160405190810160405280939291908181526020018383602002808284375f920191909152506115c992505050565b32155f6109d4610ca5565b90505f5f6109e4838986896116a4565b915091508015610a8257826001600160a01b0316634af29ec4610a1f8a8588610a1957610a1460208e018e61358a565b611891565b30611891565b6040518263ffffffff1660e01b8152600401610a3b9190613795565b5f604051808303815f875af1158015610a56573d5f5f3e3d5ffd5b505050506040513d5f823e601f3d908101601f19168201604052610a7d9190810190613815565b509550505b83610aa757610aa7610a9760208a018a61358a565b61067360c08b0160a08c01613680565b505050506106845f610d07565b6060825f610ac182610c77565b90505f6040518060e00160405280306001600160a01b031681526020018b6001600160a01b0316815260200189516001600160401b03811115610b0657610b06612d71565b604051908082528060200260200182016040528015610b2f578160200160208202803683370190505b508152602081018b90526040015f81526020015f151581526020018681525090505f610b59610ca5565b6001600160a01b031663edfa3568306001600160a01b03166347cd1d02858d8d604051602401610b8b939291906136ab565b60408051808303601f1901815291815260208201805160e094851b6001600160e01b03909116179052519184901b6001600160e01b0319168252610bd3925090600401613239565b5f604051808303815f875af1158015610bee573d5f5f3e3d5ffd5b505050506040513d5f823e601f3d908101601f19168201604052610c15919081019061352e565b9050808060200190518101906105109190613764565b6060806060610c386107db565b9250610c4261038f565b9150610c4c61068b565b9050909192565b7f0e5e42310baee45bff0964e63930bd3ef41981ccc7a033d2803019558bd2313e90565b5f5f610c8161197f565b90506001600160a01b038116610c9f57610c9a83611991565b600191505b50919050565b5f610247610cb1610c53565b600201546001600160a01b031690565b8015610cd057610cd05f611991565b50565b5f516020613b725f395f51905f52805c908115610d0357604051633ee5aeb560e01b815260040160405180910390fd5b5050565b5f516020613b725f395f51905f5281815d5050565b610d24610ca5565b6001600160a01b0316336001600160a01b031614610d60573360405163089676d560e01b8152600401610d57919061324b565b60405180910390fd5b565b808214610d035760405163aaad13f760e01b815260040160405180910390fd5b60606001600160a01b03841663be7d628a610da3604086016020870161358a565b6040518263ffffffff1660e01b8152600401610dbf919061324b565b602060405180830381865afa158015610dda573d5f5f3e3d5ffd5b505050506040513d601f19601f82011682018060405250810190610dfe9190613878565b15610ede576001600160a01b03841663a07d6040610e22604086016020870161358a565b610e2f602087018761358a565b8660600135866001600160401b03811115610e4c57610e4c612d71565b604051908082528060200260200182016040528015610e75578160200160208202803683370190505b506040518563ffffffff1660e01b8152600401610e959493929190613893565b5f604051808303815f875af1158015610eb0573d5f5f3e3d5ffd5b505050506040513d5f823e601f3d908101601f19168201604052610ed79190810190613764565b9050610684565b836001600160a01b031663214578976040518060c00160405280866020016020810190610f0b919061358a565b6001600160a01b03168152602090810190610f289088018861358a565b6001600160a01b0316815260200186606001358152602001856001600160401b03811115610f5857610f58612d71565b604051908082528060200260200182016040528015610f81578160200160208202803683370190505b508152602001610f9760a08801608089016138c5565b6003811115610fa857610fa86133cf565b8152602001610fba60c08801886138e3565b8080601f0160208091040260200160405190810160405280939291908181526020018383808284375f9201919091525050509152506040516001600160e01b031960e084901b1681526110109190600401613925565b5f604051808303815f875af115801561102b573d5f5f3e3d5ffd5b505050506040513d5f823e601f3d908101601f191682016040526110529190810190613982565b5095945050505050565b5f5b8351811015611113575f84828151811061107a5761107a613576565b602002602001015190505f84838151811061109757611097613576565b602002602001015190505f6110ad8984876119a6565b905060018160028111156110c3576110c36133cf565b036110da576110d5898484888c611a79565b611108565b60028160028111156110ee576110ee6133cf565b036110fe576110d5898484611e67565b6111088383611f9f565b50505060010161105e565b505050505050565b81516060908061113161112c611fc0565b611fe4565b1461116257611146611141611fc0565b611ff4565b8460405163252b8a0360e21b8152600401610d579291906139da565b806001600160401b0381111561117a5761117a612d71565b6040519080825280602002602001820160405280156111a3578160200160208202803683370190505b5091505f816001600160401b038111156111bf576111bf612d71565b6040519080825280602002602001820160405280156111e8578160200160208202803683370190505b5090505f5b8281101561136f575f86828151811061120857611208613576565b602002602001015190505f6112258261121f611fc0565b90612093565b905083818151811061123957611239613576565b60200260200101511561126d57611251611141611fc0565b8860405163252b8a0360e21b8152600401610d579291906139da565b600184828151811061128157611281613576565b911515602092830291909101909101526112a38261129d6120ce565b906120f2565b8684815181106112b5576112b5613576565b6020026020010181815250508683815181106112d3576112d3613576565b60200260200101518684815181106112ed576112ed613576565b60200260200101511015611365578186848151811061130e5761130e613576565b602002602001015188858151811061132857611328613576565b60209081029190910101516040516317bc2f2360e11b81526001600160a01b03909316600484015260248301919091526044820152606401610d57565b50506001016111ed565b50505092915050565b5f611381610ca5565b90505f61138c61210a565b90505f61139761022e565b90505f6113a5611141612127565b80519091505b80156114cd575f826113be600184613a12565b815181106113ce576113ce613576565b602002602001015190505f6113e58261129d61214b565b905085158061140d575087801561140d5750846001600160a01b0316826001600160a01b0316145b156114235761141e8983838b61216f565b611493565b6040516315afd40960e01b81526001600160a01b038816906315afd409906114519085908590600401613a25565b6020604051808303815f875af115801561146d573d5f5f3e3d5ffd5b505050506040513d601f19601f82011682018060405250810190611491919061355f565b505b6114a7825f6114a061214b565b9190612400565b6114b9826114b3612127565b90612417565b505050806114c690613a3e565b90506113ab565b505f6114da611141611fc0565b80519091505b8015611555575f826114f3600184613a12565b8151811061150357611503613576565b602002602001015190505f61151a8261129d6120ce565b90506115288a83838c61249d565b611535825f6114a06120ce565b611541826114b3611fc0565b5050508061154e90613a3e565b90506114e0565b5061155f8761260c565b50505050505050565b5f61024761197f565b5f61157d611141612657565b80519091505b8015610d03576115b882611598600184613a12565b815181106115a8576115a8613576565b60200260200101516114b3612657565b506115c281613a3e565b9050611583565b5f5b825181101561169f575f8282815181106115e7576115e7613576565b602002602001015111156116975761163483828151811061160a5761160a613576565b602002602001015183838151811061162457611624613576565b60200260200101516114a061214b565b61165f83828151811061164957611649613576565b6020026020010151611659612127565b9061267b565b6116975782818151811061167557611675613576565b602002602001015160405163030502a760e51b8152600401610d57919061324b565b6001016115cb565b505050565b60605f806001600160a01b03871663ca4f28036116c76040890160208a0161358a565b6040518263ffffffff1660e01b81526004016116e3919061324b565b5f60405180830381865afa1580156116fd573d5f5f3e3d5ffd5b505050506040513d5f823e601f3d908101601f1916820160405261172491908101906135a5565b8051909150806001600160401b0381111561174157611741612d71565b60405190808252806020026020018201604052801561176a578160200160208202803683370190505b5093505f9250825b81811015611885575f83828151811061178d5761178d613576565b602002602001015190505f6117a38b838a6119a6565b90505f6117b28361129d61214b565b905060018260028111156117c8576117c86133cf565b0361180c576117e98c848c8c8f8060c001906117e491906138e3565b6126b9565b8885815181106117fb576117fb613576565b602002602001018181525050611851565b6002826002811115611820576118206133cf565b03611831576117e98c84838d612990565b8088858151811061184457611844613576565b6020026020010181815250505b5f88858151811061186457611864613576565b6020026020010151111561187757600196505b505050806001019050611772565b50505094509492505050565b6040805160c0810182525f808252602082018190526060928201839052828201819052608082015260a08101919091526040518060c001604052808560200160208101906118df919061358a565b6001600160a01b03168152602001836001600160a01b031681526020018481526020018560600135815260200185608001602081019061191f9190613a53565b6004811115611930576119306133cf565b815260200161194260c08701876138e3565b8080601f0160208091040260200160405190810160405280939291908181526020018383808284375f920191909152505050915250949350505050565b5f516020613b525f395f51905f525c90565b5f516020613b525f395f51905f5281815d5050565b60405163c673bdaf60e01b81525f906001600160a01b0385169063c673bdaf906119d490869060040161324b565b602060405180830381865afa1580156119ef573d5f5f3e3d5ffd5b505050506040513d601f19601f82011682018060405250810190611a139190613878565b15611a2057506001610684565b5f5b8251811015611a6f57836001600160a01b0316838281518110611a4757611a47613576565b60200260200101516001600160a01b031603611a67576002915050610684565b600101611a22565b505f949350505050565b60405163ae63932960e01b81526001600160a01b0386169063ae63932990611aa990879030908890600401613a71565b5f604051808303815f87803b158015611ac0575f5ffd5b505af1158015611ad2573d5f5f3e3d5ffd5b505060405163ca4f280360e01b81525f92506001600160a01b038816915063ca4f280390611b0490889060040161324b565b5f60405180830381865afa158015611b1e573d5f5f3e3d5ffd5b505050506040513d5f823e601f3d908101601f19168201604052611b4591908101906135a5565b90506060866001600160a01b031663be7d628a876040518263ffffffff1660e01b8152600401611b75919061324b565b602060405180830381865afa158015611b90573d5f5f3e3d5ffd5b505050506040513d601f19601f82011682018060405250810190611bb49190613878565b15611c7657866001600160a01b031663a07d604087308886516001600160401b03811115611be457611be4612d71565b604051908082528060200260200182016040528015611c0d578160200160208202803683370190505b506040518563ffffffff1660e01b8152600401611c2d9493929190613893565b5f604051808303815f875af1158015611c48573d5f5f3e3d5ffd5b505050506040513d5f823e601f3d908101601f19168201604052611c6f9190810190613764565b9050611dcc565b866001600160a01b031663214578976040518060c00160405280896001600160a01b03168152602001306001600160a01b0316815260200188815260200185516001600160401b03811115611ccd57611ccd612d71565b604051908082528060200260200182016040528015611cf6578160200160208202803683370190505b508152602001611d0c60a08801608089016138c5565b6003811115611d1d57611d1d6133cf565b8152602001611d2f60c08801886138e3565b8080601f0160208091040260200160405190810160405280939291908181526020018383808284375f9201919091525050509152506040516001600160e01b031960e084901b168152611d859190600401613925565b5f604051808303815f875af1158015611da0573d5f5f3e3d5ffd5b505050506040513d5f823e601f3d908101601f19168201604052611dc79190810190613982565b509150505b5f5b8251811015611e5d575f838281518110611dea57611dea613576565b602002602001015190505f838381518110611e0757611e07613576565b602002602001015190505f611e1d8b848a6119a6565b90506002816002811115611e3357611e336133cf565b03611e4857611e438b8484611e67565b611e52565b611e528383611f9f565b505050600101611dce565b5050505050505050565b805f03611e7357505050565b5f836001600160a01b03166343583be56040518060a001604052805f6001811115611ea057611ea06133cf565b815260200160018152602001866001600160a01b031681526020018581526020015f8152506040518263ffffffff1660e01b8152600401611ee19190613aa5565b6060604051808303815f875af1158015611efd573d5f5f3e3d5ffd5b505050506040513d601f19601f82011682018060405250810190611f219190613af8565b92505050611f99846001600160a01b0316634afbaf5a856040518263ffffffff1660e01b8152600401611f54919061324b565b602060405180830381865afa158015611f6f573d5f5f3e3d5ffd5b505050506040513d601f19601f82011682018060405250810190611f939190613b23565b82611f9f565b50505050565b611fab82611659611fc0565b50610d038282611fb96120ce565b9190612b10565b7f64e2f1f3d8b16c89b88d35f5a8f7b5f6a7b8c9d0e1f2a3b4c5d6e7f8091a2c0090565b5f611fee82612b35565b92915050565b60605f61200083612b35565b9050806001600160401b0381111561201a5761201a612d71565b604051908082528060200260200182016040528015612043578160200160208202803683370190505b5091505f5b8181101561208c5761205a8482612b3d565b83828151811061206c5761206c613576565b6001600160a01b0390921660209283029190910190910152600101612048565b5050919050565b5f806120a2836001860161129d565b9050805f036120c457604051633357a9c960e11b815260040160405180910390fd5b5f19019392505050565b7f84e2f1f3d8b16c89b88d35f5a8f7b5f6a7b8c9d0e1f2a3b4c5d6e7f8091a2e0090565b5f6106846121066121038585612b5b565b90565b5c90565b5f610247612116610c53565b60020154600160a01b900460ff1690565b7f54e2f1f3d8b16c89b88d35f5a8f7b5f6a7b8c9d0e1f2a3b4c5d6e7f8091a2b0090565b7f74e2f1f3d8b16c89b88d35f5a8f7b5f6a7b8c9d0e1f2a3b4c5d6e7f8091a2d0090565b5f61217861022e565b90505f612183610ca5565b90505f61218e612b6c565b90508380156121ae5750826001600160a01b0316866001600160a01b0316145b1561230757844710156121d45760405163500d4efb60e11b815260040160405180910390fd5b826001600160a01b031663d0e30db0866040518263ffffffff1660e01b81526004015f604051808303818588803b15801561220d575f5ffd5b505af115801561221f573d5f5f3e3d5ffd5b505060405163a9059cbb60e01b81526001600160a01b038716935063a9059cbb9250612252915085908990600401613a25565b6020604051808303815f875af115801561226e573d5f5f3e3d5ffd5b505050506040513d601f19601f820116820180604052508101906122929190613878565b506040516315afd40960e01b81526001600160a01b038316906315afd409906122c19089908990600401613a25565b6020604051808303815f875af11580156122dd573d5f5f3e3d5ffd5b505050506040513d601f19601f82011682018060405250810190612301919061355f565b5061155f565b841561155f57806001600160a01b03166336c78516888461232789612b88565b6040516001600160e01b031960e086901b1681526001600160a01b03938416600482015291831660248301528216604482015290891660648201526084015f604051808303815f87803b15801561237c575f5ffd5b505af115801561238e573d5f5f3e3d5ffd5b50506040516315afd40960e01b81526001600160a01b03851692506315afd40991506123c09089908990600401613a25565b6020604051808303815f875af11580156123dc573d5f5f3e3d5ffd5b505050506040513d601f19601f82011682018060405250810190611e5d919061355f565b61169f816124116121038686612b5b565b90612b92565b5f80612426836001860161129d565b90508015612494575f1981015f600161243e87612b35565b039050808214612470575f6124538783612b99565b9050612460878483612bbd565b61246e818560018a016114a0565b505b61247986612be1565b50612488855f600189016114a0565b60019350505050611fee565b5f915050611fee565b8115611f99575f6124ac61022e565b90505f6124b7610ca5565b90508280156124d75750816001600160a01b0316856001600160a01b0316145b156125a75760405163ae63932960e01b81526001600160a01b0382169063ae6393299061250c90889030908990600401613a71565b5f604051808303815f87803b158015612523575f5ffd5b505af1158015612535573d5f5f3e3d5ffd5b5050604051632e1a7d4d60e01b8152600481018790526001600160a01b0385169250632e1a7d4d91506024015f604051808303815f87803b158015612578575f5ffd5b505af115801561258a573d5f5f3e3d5ffd5b506125a2925050506001600160a01b03871685612c22565b611113565b60405163ae63932960e01b81526001600160a01b0382169063ae639329906125d79088908a908990600401613a71565b5f604051808303815f87803b1580156125ee575f5ffd5b505af1158015612600573d5f5f3e3d5ffd5b50505050505050505050565b475f819003612619575050565b7f19c2f6f76e6091adc2e8f63fc8cd9da9e3a8e9d5d1c4ae5d8f8e0f6c7b8a9d005c15612644575050565b610d036001600160a01b03831682612c22565b7fa4e2f1f3d8b16c89b88d35f5a8f7b5f6a7b8c9d0e1f2a3b4c5d6e7f8091a300090565b5f6126868383612cbc565b6126b2576126948383612cd3565b6126aa826126a185612b35565b600186016114a0565b506001611fee565b505f611fee565b5f5f876001600160a01b031663ca4f2803886040518263ffffffff1660e01b81526004016126e7919061324b565b5f60405180830381865afa158015612701573d5f5f3e3d5ffd5b505050506040513d5f823e601f3d908101601f1916820160405261272891908101906135a5565b80519091505f816001600160401b0381111561274657612746612d71565b60405190808252806020026020018201604052801561276f578160200160208202803683370190505b5090505f5b82811015612860575f84828151811061278f5761278f613576565b602002602001015190506127ab816127a5612657565b90612cbc565b156127b65750612858565b5f6127c28d838c6119a6565b90505f6127d18361129d61214b565b905060028260028111156127e7576127e76133cf565b1480156127f357505f81115b15612827576128048e84838f612990565b85858151811061281657612816613576565b602002602001018181525050612847565b8085858151811061283a5761283a613576565b6020026020010181815250505b61285383611659612657565b505050505b600101612774565b505f805b8381101561289e575f83828151811061287f5761287f613576565b60200260200101511115612896576001915061289e565b600101612864565b508015612982576040805160c0810182526001600160a01b038c811682523060208301529181018490525f6060820152908c1690634af29ec49060808101600181526020018a8a8080601f0160208091040260200160405190810160405280939291908181526020018383808284375f9201919091525050509152506040516001600160e01b031960e084901b16815261293b9190600401613795565b5f604051808303815f875af1158015612956573d5f5f3e3d5ffd5b505050506040513d5f823e601f3d908101601f1916820160405261297d9190810190613815565b509550505b505050509695505050505050565b5f825f0361299f57505f612b08565b60405163257dd7ad60e11b81525f906001600160a01b03871690634afbaf5a906129cd90889060040161324b565b602060405180830381865afa1580156129e8573d5f5f3e3d5ffd5b505050506040513d601f19601f82011682018060405250810190612a0c9190613b23565b90506001600160a01b038116612a3757846040516385f4129960e01b8152600401610d57919061324b565b82612a5657612a4881611659612127565b50612a568185611fb961214b565b856001600160a01b03166343583be56040518060a001604052805f6001811115612a8257612a826133cf565b81526020015f8152602001886001600160a01b031681526020018781526020015f8152506040518263ffffffff1660e01b8152600401612ac29190613aa5565b6060604051808303815f875af1158015612ade573d5f5f3e3d5ffd5b505050506040513d601f19601f82011682018060405250810190612b029190613af8565b93505050505b949350505050565b61169f81612b1e85856120f2565b612b289190613b3e565b6124116121038686612b5b565b5f815c611fee565b5f61068461210661210384612b57875f9081526020902090565b0190565b5f9081526020919091526040902090565b5f610247612b78610c53565b600101546001600160a01b031690565b5f611fee82612d06565b80825d5050565b5f612ba48383612d1e565b61068461210661210384612b57875f9081526020902090565b612bc78383612d1e565b61169f8161241161210385612b57885f9081526020902090565b5f80612bef6001845c613a12565b9050612bfb8184612411565b5f612c1261210383612b57875f9081526020902090565b9050805c925061208c815f612b92565b80471015612c4c5760405163cf47918160e01b815247600482015260248101829052604401610d57565b5f826001600160a01b0316826040515f6040518083038185875af1925050503d805f8114612c95576040519150601f19603f3d011682016040523d82523d5f602084013e612c9a565b606091505b505090508061169f5760405163d6bda27560e01b815260040160405180910390fd5b5f612cca826001850161129d565b15159392505050565b5f825c9050612cf28261241161210384612b57885f9081526020902090565b61169f612d00826001613b3e565b84612411565b5f600160a01b8210612d1a57612d1a612d40565b5090565b815c80821061169f576040516303d2b83960e21b815260040160405180910390fd5b6335278d125f526004601cfd5b6001600160a01b0381168114610cd0575f5ffd5b8035612d6c81612d4d565b919050565b634e487b7160e01b5f52604160045260245ffd5b604051601f8201601f191681016001600160401b0381118282101715612dad57612dad612d71565b604052919050565b5f6001600160401b03821115612dcd57612dcd612d71565b5060051b60200190565b5f82601f830112612de6575f5ffd5b8135612df9612df482612db5565b612d85565b8082825260208201915060208360051b860101925085831115612e1a575f5ffd5b602085015b83811015611052578035612e3281612d4d565b835260209283019201612e1f565b5f82601f830112612e4f575f5ffd5b8135612e5d612df482612db5565b8082825260208201915060208360051b860101925085831115612e7e575f5ffd5b602085015b83811015611052578035835260209283019201612e83565b8015158114610cd0575f5ffd5b8035612d6c81612e9b565b5f6001600160401b03821115612ecb57612ecb612d71565b50601f01601f191660200190565b5f82601f830112612ee8575f5ffd5b8135612ef6612df482612eb3565b818152846020838601011115612f0a575f5ffd5b816020850160208301375f918101602001919091529392505050565b5f5f5f5f5f5f5f60e0888a031215612f3c575f5ffd5b612f4588612d61565b965060208801356001600160401b03811115612f5f575f5ffd5b612f6b8a828b01612dd7565b96505060408801356001600160401b03811115612f86575f5ffd5b612f928a828b01612e40565b95505060608801356001600160401b03811115612fad575f5ffd5b612fb98a828b01612dd7565b94505060808801359250612fcf60a08901612ea8565b915060c08801356001600160401b03811115612fe9575f5ffd5b612ff58a828b01612ed9565b91505092959891949750929550565b5f8151808452602084019350602083015f5b8281101561303e5781516001600160e01b031916865260209586019590910190600101613016565b5093949350505050565b602081525f6106846020830184613004565b5f5f5f5f5f5f60c0878903121561306f575f5ffd5b61307887612d61565b955060208701356001600160401b03811115613092575f5ffd5b61309e89828a01612dd7565b95505060408701356001600160401b038111156130b9575f5ffd5b6130c589828a01612e40565b94505060608701356001600160401b038111156130e0575f5ffd5b6130ec89828a01612dd7565b9350506130fb60808801612d61565b915060a08701356001600160401b03811115613115575f5ffd5b61312189828a01612ed9565b9150509295509295509295565b5f60e08284031215610c9f575f5ffd5b5f5f5f60608486031215613150575f5ffd5b83356001600160401b03811115613165575f5ffd5b6131718682870161312e565b93505060208401356001600160401b0381111561318c575f5ffd5b61319886828701612dd7565b92505060408401356001600160401b038111156131b3575f5ffd5b6131bf86828701612dd7565b9150509250925092565b5f8151808452602084019350602083015f5b8281101561303e5781518652602095860195909101906001016131db565b602081525f61068460208301846131c9565b5f81518084528060208401602086015e5f602082860101526020601f19601f83011685010191505092915050565b602081525f610684602083018461320b565b6001600160a01b0391909116815260200190565b5f5f5f5f5f5f5f60e0888a031215613275575f5ffd5b61327e88612d61565b96506020880135955060408801356001600160401b0381111561329f575f5ffd5b6132ab8a828b01612dd7565b95505060608801356001600160401b038111156132c6575f5ffd5b6132d28a828b01612e40565b94505060808801356001600160401b038111156132ed575f5ffd5b6132f98a828b01612dd7565b935050612fcf60a08901612ea8565b5f5f5f5f5f5f60c0878903121561331d575f5ffd5b863561332881612d4d565b95506020870135945060408701356001600160401b03811115613349575f5ffd5b61335589828a01612dd7565b94505060608701356001600160401b03811115613370575f5ffd5b61337c89828a01612dd7565b93505060808701356130fb81612d4d565b606081525f61339f606083018661320b565b82810360208401526133b18186613004565b905082810360408401526133c58185613004565b9695505050505050565b634e487b7160e01b5f52602160045260245ffd5b600581106133f3576133f36133cf565b9052565b5f8151808452602084019350602083015f5b8281101561303e5781516001600160a01b0316865260209586019590910190600101613409565b606080825284516001600160a01b03908116918301919091526020850151166080820152604084015160e060a08301525f906134706101408401826131c9565b9050606086015160c0840152608086015161348e60e08501826133e3565b5060a0860151151561010084015260c0860151838203605f19016101208501526134b8828261320b565b91505082810360208401526134cd81866133f7565b905082810360408401526133c581856133f7565b5f82601f8301126134f0575f5ffd5b81516134fe612df482612eb3565b818152846020838601011115613512575f5ffd5b8160208501602083015e5f918101602001919091529392505050565b5f6020828403121561353e575f5ffd5b81516001600160401b03811115613553575f5ffd5b612b08848285016134e1565b5f6020828403121561356f575f5ffd5b5051919050565b634e487b7160e01b5f52603260045260245ffd5b5f6020828403121561359a575f5ffd5b813561068481612d4d565b5f602082840312156135b5575f5ffd5b81516001600160401b038111156135ca575f5ffd5b8201601f810184136135da575f5ffd5b80516135e8612df482612db5565b8082825260208201915060208360051b850101925086831115613609575f5ffd5b6020840193505b828410156133c557835161362381612d4d565b825260209384019390910190613610565b5f5f8335601e19843603018112613649575f5ffd5b8301803591506001600160401b03821115613662575f5ffd5b6020019150600581901b3603821315613679575f5ffd5b9250929050565b5f60208284031215613690575f5ffd5b813561068481612e9b565b600481106133f3576133f36133cf565b606080825284516001600160a01b03908116918301919091526020850151166080820152604084015160e060a08301525f906136eb6101408401826131c9565b9050606086015160c0840152608086015161348e60e085018261369b565b5f82601f830112613718575f5ffd5b8151613726612df482612db5565b8082825260208201915060208360051b860101925085831115613747575f5ffd5b602085015b8381101561105257805183526020928301920161374c565b5f60208284031215613774575f5ffd5b81516001600160401b03811115613789575f5ffd5b612b0884828501613709565b602080825282516001600160a01b0390811683830152908301511660408083019190915282015160c060608301525f906137d260e08401826131c9565b90506060840151608084015260808401516137f060a08501826133e3565b5060a0840151838203601f190160c085015261380c828261320b565b95945050505050565b5f5f5f60608486031215613827575f5ffd5b83516001600160401b0381111561383c575f5ffd5b61384886828701613709565b60208601516040870151919550935090506001600160401b0381111561386c575f5ffd5b6131bf868287016134e1565b5f60208284031215613888575f5ffd5b815161068481612e9b565b6001600160a01b03858116825284166020820152604081018390526080606082018190525f906133c5908301846131c9565b5f602082840312156138d5575f5ffd5b813560048110610684575f5ffd5b5f5f8335601e198436030181126138f8575f5ffd5b8301803591506001600160401b03821115613911575f5ffd5b602001915036819003821315613679575f5ffd5b6020815260018060a01b03825116602082015260018060a01b036020830151166040820152604082015160608201525f606083015160c0608084015261396e60e08401826131c9565b905060808401516137f060a085018261369b565b5f5f5f60608486031215613994575f5ffd5b835160208501519093506001600160401b038111156139b1575f5ffd5b6139bd86828701613709565b604086015190935090506001600160401b0381111561386c575f5ffd5b604081525f6139ec60408301856133f7565b828103602084015261380c81856133f7565b634e487b7160e01b5f52601160045260245ffd5b81810381811115611fee57611fee6139fe565b6001600160a01b03929092168252602082015260400190565b5f81613a4c57613a4c6139fe565b505f190190565b5f60208284031215613a63575f5ffd5b813560058110610684575f5ffd5b6001600160a01b039384168152919092166020820152604081019190915260600190565b60028110610cd057610cd06133cf565b815160a0820190613ab581613a95565b82526020830151613ac581613a95565b60208301526040838101516001600160a01b03169083015260608084015190830152608092830151929091019190915290565b5f5f5f60608486031215613b0a575f5ffd5b5050815160208301516040909301519094929350919050565b5f60208284031215613b33575f5ffd5b815161068481612d4d565b80820180821115611fee57611fee6139fe56fe6c17b98ed641627be1f588a5e81d97edc6ddd1b560dfba5b46c2aa2c8ddd0d0085e416c3b4a964332bebb95fdf9a73cb8ded00cbd75143ad03246e01399c4247a2646970667358221220d80fa7a131228f0c1a6033333229535e762b025fa16c8d84124d8f07b2648a4f64736f6c634300081e0033","linkReferences":{}},"methodIdentifiers":{"addLiquidityUnbalancedNestedPool(address,address[],uint256[],address[],uint256,bool,bytes)":"175f31c6","addLiquidityUnbalancedNestedPoolHook((address,address,uint256[],uint256,uint8,bool,bytes),address[],address[])":"a5bb0bd1","facetFuncs()":"574a4cff","facetInterfaces()":"2ea80826","facetMetadata()":"f10d7a75","facetName()":"5b6f4d01","getSender()":"5e01eb5a","queryAddLiquidityUnbalancedNestedPool(address,address[],uint256[],address[],address,bytes)":"3121edfc","queryRemoveLiquidityProportionalNestedPool(address,uint256,address[],address[],address,bytes)":"d2b1b903","removeLiquidityProportionalNestedPool(address,uint256,address[],uint256[],address[],bool,bytes)":"6c1fb320","removeLiquidityProportionalNestedPoolHook((address,address,uint256[],uint256,uint8,bool,bytes),address[],address[])":"47cd1d02"},"id":930}