{"abi":[{"type":"function","name":"computeBalance","inputs":[{"name":"balancesLiveScaled18","type":"uint256[]","internalType":"uint256[]"},{"name":"tokenInIndex","type":"uint256","internalType":"uint256"},{"name":"invariantRatio","type":"uint256","internalType":"uint256"}],"outputs":[{"name":"newBalance","type":"uint256","internalType":"uint256"}],"stateMutability":"view"},{"type":"function","name":"computeInvariant","inputs":[{"name":"balancesLiveScaled18","type":"uint256[]","internalType":"uint256[]"},{"name":"rounding","type":"uint8","internalType":"enum Rounding"}],"outputs":[{"name":"invariant","type":"uint256","internalType":"uint256"}],"stateMutability":"view"},{"type":"function","name":"facetFuncs","inputs":[],"outputs":[{"name":"funcs","type":"bytes4[]","internalType":"bytes4[]"}],"stateMutability":"pure"},{"type":"function","name":"facetInterfaces","inputs":[],"outputs":[{"name":"interfaces","type":"bytes4[]","internalType":"bytes4[]"}],"stateMutability":"pure"},{"type":"function","name":"facetMetadata","inputs":[],"outputs":[{"name":"name_","type":"string","internalType":"string"},{"name":"interfaces","type":"bytes4[]","internalType":"bytes4[]"},{"name":"functions","type":"bytes4[]","internalType":"bytes4[]"}],"stateMutability":"pure"},{"type":"function","name":"facetName","inputs":[],"outputs":[{"name":"name","type":"string","internalType":"string"}],"stateMutability":"pure"},{"type":"function","name":"getECLPParams","inputs":[],"outputs":[{"name":"params","type":"tuple","internalType":"struct IGyroECLPPool.EclpParams","components":[{"name":"alpha","type":"int256","internalType":"int256"},{"name":"beta","type":"int256","internalType":"int256"},{"name":"c","type":"int256","internalType":"int256"},{"name":"s","type":"int256","internalType":"int256"},{"name":"lambda","type":"int256","internalType":"int256"}]},{"name":"derived","type":"tuple","internalType":"struct IGyroECLPPool.DerivedEclpParams","components":[{"name":"tauAlpha","type":"tuple","internalType":"struct IGyroECLPPool.Vector2","components":[{"name":"x","type":"int256","internalType":"int256"},{"name":"y","type":"int256","internalType":"int256"}]},{"name":"tauBeta","type":"tuple","internalType":"struct IGyroECLPPool.Vector2","components":[{"name":"x","type":"int256","internalType":"int256"},{"name":"y","type":"int256","internalType":"int256"}]},{"name":"u","type":"int256","internalType":"int256"},{"name":"v","type":"int256","internalType":"int256"},{"name":"w","type":"int256","internalType":"int256"},{"name":"z","type":"int256","internalType":"int256"},{"name":"dSq","type":"int256","internalType":"int256"}]}],"stateMutability":"view"},{"type":"function","name":"getMaximumInvariantRatio","inputs":[],"outputs":[{"name":"","type":"uint256","internalType":"uint256"}],"stateMutability":"pure"},{"type":"function","name":"getMaximumSwapFeePercentage","inputs":[],"outputs":[{"name":"","type":"uint256","internalType":"uint256"}],"stateMutability":"pure"},{"type":"function","name":"getMinimumInvariantRatio","inputs":[],"outputs":[{"name":"","type":"uint256","internalType":"uint256"}],"stateMutability":"pure"},{"type":"function","name":"getMinimumSwapFeePercentage","inputs":[],"outputs":[{"name":"","type":"uint256","internalType":"uint256"}],"stateMutability":"pure"},{"type":"function","name":"onSwap","inputs":[{"name":"params","type":"tuple","internalType":"struct PoolSwapParams","components":[{"name":"kind","type":"uint8","internalType":"enum SwapKind"},{"name":"amountGivenScaled18","type":"uint256","internalType":"uint256"},{"name":"balancesScaled18","type":"uint256[]","internalType":"uint256[]"},{"name":"indexIn","type":"uint256","internalType":"uint256"},{"name":"indexOut","type":"uint256","internalType":"uint256"},{"name":"router","type":"address","internalType":"address"},{"name":"userData","type":"bytes","internalType":"bytes"}]}],"outputs":[{"name":"amountCalculatedScaled18","type":"uint256","internalType":"uint256"}],"stateMutability":"view"},{"type":"error","name":"AssetBoundsExceeded","inputs":[]},{"type":"error","name":"MaxAssetsExceeded","inputs":[]},{"type":"error","name":"MaxInvariantExceeded","inputs":[]},{"type":"error","name":"ZeroDivision","inputs":[]}],"bytecode":{"object":"0x6080604052348015600e575f5ffd5b50612b5a8061001c5f395ff3fe608060405234801561000f575f5ffd5b50600436106100a2575f3560e01c806316a0b3e0146100a6578063273c1adf146100cc5780632ea80826146100da578063574a4cff146100ef5780635b6f4d01146100f7578063654cf15d1461010c57806372c981861461011a5780637be219a21461012d578063984de9e8146101cb578063b677fa56146101de578063ce20ece7146101ec578063f10d7a75146101f7575b5f5ffd5b6100b96100b436600461278a565b61020e565b6040519081526020015b60405180910390f35b674563918244f400006100b9565b6100e261032c565b6040516100c39190612817565b6100e26103bf565b6100ff61057e565b6040516100c39190612857565b670de0b6b3a76400006100b9565b6100b9610128366004612869565b6105b3565b610135610728565b604080518351815260208085015181830152848301518284015260608086015181840152608095860151868401528451805160a0808601919091529083015160c08086019190915283870151805160e0870152909301516101008501529385015161012084015284015161014083015293830151610160820152908201516101808201529101516101a08201526101c0016100c3565b6100b96101d93660046128ae565b610748565b670853a0d2313c00006100b9565b64e8d4a510006100b9565b6101ff6107b0565b6040516100c3939291906128fc565b5f5f5f6102196107d8565b9150915061022561262c565b5f5f610232898686610811565b9150915060405180604001604052806102626102578a61025c86886102579190612948565b610a7c565b90610a8c565b81526020016102796102578a61025c82878961296f565b905280519093506ab48e51940c76a45816e51f60251b12156102ae5760405163dc10196f60e01b815260040160405180910390fd5b50505f865f036102f1576102e66102de896001815181106102d1576102d1612995565b6020026020010151610a7c565b858585610ab8565b509091506103179050565b610311610309895f815181106102d1576102d1612995565b858585610b41565b50909150505b61032081610a7c565b98975050505050505050565b6040805160028082526060808301845292602083019080368337019050509050637e126dc760e11b815f8151811061036657610366612995565b60200260200101906001600160e01b03191690816001600160e01b031916815250506341c5e49160e01b816001815181106103a3576103a3612995565b6001600160e01b03199092166020928302919091019091015290565b6040805160088082526101208201909252606091602082016101008036833701905050905063984de9e860e01b815f815181106103fe576103fe612995565b6001600160e01b031990921660209283029190910190910152805162b5059f60e51b908290600190811061043457610434612995565b6001600160e01b0319909216602092830291909101909101528051633964c0c360e11b908290600290811061046b5761046b612995565b6001600160e01b0319909216602092830291909101909101528051633df10cd160e11b90829060039081106104a2576104a2612995565b6001600160e01b031990921660209283029190910190910152805163ce20ece760e01b90829060049081106104d9576104d9612995565b6001600160e01b031990921660209283029190910190910152805163654cf15d60e01b908290600590811061051057610510612995565b6001600160e01b0319909216602092830291909101909101528051635b3bfd2b60e11b908290600690811061054757610547612995565b6001600160e01b031990921660209283029190910190910152805163273c1adf60e01b90829060079081106103a3576103a3612995565b60408051808201909152601b81527a10985b185b98d95c958cd1de5c9bd150d314141bdbdb119858d95d602a1b602082015290565b5f60608201351581806105c46107d8565b915091506105d061262c565b5f8061061c6105e260408a018a6129a9565b808060200260200160405190810160405280939291908181526020018383602002808284375f920191909152508992508891506108119050565b91509150604051806040016040528082600261063891906129f5565b6106429085612948565b8152602001929092525090505f61065c6020880188612a38565b600181111561066d5761066d612a24565b036106cb576106c061068260408801886129a9565b808060200260200160405190810160405280939291908181526020018383602002808284375f92019190915250505050602088013586868686610b9a565b5090955061071f9050565b6107196106db60408801886129a9565b808060200260200160405190810160405280939291908181526020018383602002808284375f92019190915250505050602088013586868686610c5a565b50909550505b50505050919050565b610730612644565b61073861266e565b6107406107d8565b915091509091565b5f5f5f6107536107d8565b915091505f5f610764878585610811565b9092509050600186600181111561077d5761077d612a24565b036107965761078f610257828461296f565b94506107a6565b6107a36102578284612948565b94505b5050505092915050565b60608060606107bd61057e565b92506107c761032c565b91506107d16103bf565b9050909192565b6107e0612644565b6107e861266e565b6107407f646300f37812ad2c74ca119166990b8cd14e10adb9cb18589e087b082ded4981610d44565b5f5f5f5f61082a875f815181106102d1576102d1612995565b610840886001815181106102d1576102d1612995565b9092509050697b426fab61f00de3639960221b61085d8284612948565b131561087c57604051632da2a5e560e01b815260040160405180910390fd5b5f61088983838989610df4565b90505f5f61089985858b8b610f50565b915091505f8213156108cb576108c46108b38360026129f5565b6108be836001612948565b90610fef565b90506108f5565b5f81136108dc57633b9aca006108f2565b6108f26102576108eb83610a7c565b60056110bb565b90505b806b012ced32a16a1b11e826288960261b61091e6109138789612948565b60808d0151906112d3565b6109289190612a67565b6109329190612948565b61093d906001612948565b6109489060146129f5565b90505f6109886b012ced32a16a1b11e826288960261b6109688c8c611354565b610972919061296f565b6b012ced32a16a1b11e826288960261b9061145a565b90505f6109aa828461099a8789612948565b6109a4919061296f565b9061149f565b90506109b68383611562565b60808c01519093506b012ced32a16a1b11e826288960261b906a0c097ce7bc90715b34b9f160241b906109e990806129f5565b6109f39190612a67565b6109fd8385611562565b610a0791906129f5565b610a129060286129f5565b610a1c9190612a67565b610a269084612948565b610a31906001612948565b92506ab48e51940c76a45816e51f60251b610a4c8483612948565b1315610a6b5760405163dc10196f60e01b815260040160405180910390fd5b9b919a509098505050505050505050565b5f610a86826115f9565b92915050565b5f80610a988385612a93565b90506001670de0b6b3a76400006001830304018115150291505092915050565b5f5f5f610ac6868686611612565b9150610ad38686866116c9565b90505f6040518060400160405280838152602001848152509050610b3487608001518989604001518a60600151898660405180604001604052808e5f01515f0151610b1d90612aaa565b81528e5160209081015191015260c08e0151611763565b9350509450945094915050565b5f5f5f610b4f868686611612565b9150610b5c8686866116c9565b90505f6040518060400160405280848152602001838152509050610b3487608001518989606001518a6040015189868c602001518d60c00151611763565b5f5f5f6126b25f5f8915610bb85750610b4191505f90506001610bc4565b50610ab89150600190505f5b5f610bf08c8e8560ff1681518110610bde57610bde612995565b60200260200101516102579190612ac4565b9050610bff8a8a8a8487611a2d565b5f610c10828c8c8c8963ffffffff16565b90985096509050610c2081610a7c565b8e8460ff1681518110610c3557610c35612995565b6020026020010151610c479190612ad7565b9750505050505096509650969350505050565b5f5f5f6126b25f5f8915610c785750610ab891505f90506001610c84565b50610b419150600190505f5b8b8160ff1681518110610c9957610c99612995565b60200260200101518b1115610cc1576040516301dd20c360e11b815260040160405180910390fd5b5f610ced8c8e8460ff1681518110610cdb57610cdb612995565b60200260200101516102579190612ad7565b90505f610d00828c8c8c8963ffffffff16565b90985096509050610d148b8b8b8488611a2d565b8d8460ff1681518110610d2957610d29612995565b6020026020010151610d3a82610a7c565b610c479190612ad7565b610d4c612644565b610d5461266e565b82548252600183015460208084019190915260028401546040808501919091526003850154606080860191909152600486015460808087019190915260058701548551526006870154855185015260078701548585018051919091526008880154905190940193909352600986015491840191909152600a85015490830152600b84015490820152600c83015460a0820152600d9092015460c083015291565b60c08101515f908190610e079080611ad6565b90505f610e4c82610e4687608001518760a00151610e368a608001518a60800151611af190919063ffffffff16565b610e409190612948565b90611af1565b9061145a565b9050610e7981610e69876060015189611b2590919063ffffffff16565b604088015161099a908b90611b25565b92505f610ea18660400151610e9b88608001518a611b2590919063ffffffff16565b90611b25565b610ec08760600151610e9b89608001518c611b2590919063ffffffff16565b610eca9190612948565b9050610eed610ee684876040015161145a90919063ffffffff16565b829061149f565b610ef79085612948565b9350610f10866040015188611b2590919063ffffffff16565b6060870151610f20908a90611b25565b610f2a9190612948565b9050610f46610ee684876060015161145a90919063ffffffff16565b6103209085612948565b5f5f610f5e86868686611b39565b610f6a87878787611c86565b610f749190612948565b9150610f8286868686611dd7565b610f8c9083612948565b91506b012ced32a16a1b11e826288960261b610fa886806112d3565b610fb288806112d3565b610fbc9190612948565b610fc69190612a67565b90505f8213610fd5575f610fe4565b610fe46102576108eb84610a7c565b915094509492505050565b5f815f0361101057604051630a0c22c760e01b815260040160405180910390fd5b825f0361101e57505f610a86565b5f82121561103d5761102f82612aaa565b915061103a83612aaa565b92505b5f8313156110805781600161105a670de0b6b3a7640000866129f5565b611064919061296f565b61106e9190612a67565b611079906001612948565b9050610a86565b600182611095670de0b6b3a7640000866129f5565b6110a0906001612948565b6110aa9190612a67565b6110b4919061296f565b9392505050565b5f825f036110ca57505f610a86565b5f6110d484611f0a565b90506002816110eb670de0b6b3a764000087612a93565b6110f59190612aea565b6110ff9083612ac4565b6111099190612aea565b9050600281611120670de0b6b3a764000087612a93565b61112a9190612aea565b6111349083612ac4565b61113e9190612aea565b9050600281611155670de0b6b3a764000087612a93565b61115f9190612aea565b6111699083612ac4565b6111739190612aea565b905060028161118a670de0b6b3a764000087612a93565b6111949190612aea565b61119e9083612ac4565b6111a89190612aea565b90506002816111bf670de0b6b3a764000087612a93565b6111c99190612aea565b6111d39083612ac4565b6111dd9190612aea565b90506002816111f4670de0b6b3a764000087612a93565b6111fe9190612aea565b6112089083612ac4565b6112129190612aea565b9050600281611229670de0b6b3a764000087612a93565b6112339190612aea565b61123d9083612ac4565b6112479190612aea565b90505f61125482806120e5565b90506112608285610a8c565b61126a9086612ac4565b811115801561128c575061127e8285610a8c565b6112889086612ad7565b8110155b6112cb5760405162461bcd60e51b815260206004820152600c60248201526b17dcdc5c9d0811905253115160a21b604482015260640160405180910390fd5b509392505050565b5f806112df83856129f5565b90505f81131561131a57670de0b6b3a76400006112fd60018361296f565b6113079190612a67565b611312906001612948565b915050610a86565b5f81121561134b576001670de0b6b3a76400006113378383612948565b6113419190612a67565b611312919061296f565b505f9392505050565b60c08101515f9081906113719061136b8180611ad6565b90611ad6565b905061139e61139382610e4686606001518760400151600261136b91906129f5565b6080860151906112d3565b91506113de84608001516113d886608001516113d885610e46896040015160016113c89190612948565b60408b015161136b906001612948565b906112d3565b6113e89083612948565b6060840151909250611400908290610e469080611ad6565b61140a9083612948565b91505f8360a0015161142d86608001518660800151610fef90919063ffffffff16565b6114379190612948565b905061144782610e468380611ad6565b6114519084612948565b95945050505050565b5f815f0361147b57604051630a0c22c760e01b815260040160405180910390fd5b816114956b012ced32a16a1b11e826288960261b856129f5565b6110b49190612a67565b5f806114b3678ac7230489e8000084612a67565b90505f6114c8678ac7230489e8000085612afd565b90505f6114d583876129f5565b90505f6114e283886129f5565b90505f82121580156114f457505f8112155b61153b576001678ac7230489e8000061150d8184612a67565b6115179085612948565b611522906001612948565b61152c9190612a67565b611536919061296f565b6107a3565b678ac7230489e8000061154e8183612a67565b6115589084612948565b6107a39190612a67565b5f80611576678ac7230489e8000084612a67565b90505f61158b678ac7230489e8000085612afd565b90505f61159883876129f5565b90505f6115a583886129f5565b90505f82131580156115b757505f8113155b61153b57678ac7230489e8000060016115d08284612a67565b6115da9085612948565b6115e4919061296f565b6115ee9190612a67565b611536906001612948565b5f5f8212611605575090565b61160d61210d565b919050565b60c08201516020830151515f91829161162a9161145a565b90505f84602001515f01511361166c57611667816116618760400151610e9b89608001518860200151611b2590919063ffffffff16565b90611562565b61168b565b60408501516080860151845161168b928492611661926113d8916112d3565b91506116bf6116af8560c0015186602001516020015161145a90919063ffffffff16565b60608701518551611661916112d3565b6114519083612948565b60c08201518251515f9182916116de9161145a565b8451519091505f136117115761170c816116618760600151610e9b89608001518860200151610e9b90612aaa565b611738565b61173861171d82612aaa565b60608701516080880151865161166192916113d891906112d3565b60c08501518551602001519193506116bf916117539161145a565b60408701518551611661916112d3565b5f61176c61262c565b6117898a610e406b012ced32a16a1b11e826288960261b82611af1565b6117a2906b012ced32a16a1b11e826288960261b61296f565b81526117c18a6108be6b012ced32a16a1b11e826288960261b82610fef565b6117da906b012ced32a16a1b11e826288960261b61296f565b60208201526117e76126bc565b85515f906117f5908c61296f565b90505f81131561182b57602083015161182190611812908761145a565b6116618b610e9b8e8187612aaa565b602083015261185b565b82516118559061183b908761145a565b611846906001612948565b6116618b6113d88e8187612aaa565b60208301525b61186361262c565b61188286610e468d610e9b8f8960200151611b2590919063ffffffff16565b81528351611890908c6112d3565b60208201526118b26118a3876001612948565b6020830151610e46908e6112d3565b6118bd906001612948565b602082015260408051808201909152815181906118e9906b012ced32a16a1b11e826288960261b61296f565b815260200182602001516b012ced32a16a1b11e826288960261b61190d919061296f565b905290506119208c8a8f8e8e8c8c61211a565b61192990612aaa565b6040840152602080820151908a015161194791906109a49080611b25565b83604001516119569190612948565b604084018190525f12611969575f61197c565b61197c6102576108eb8560400151610a7c565b6040840181905260208401515f916119939161296f565b13156119e8576119e16119c282602001516b012ced32a16a1b11e826288960261b61145a90919063ffffffff16565b6119cd906001612948565b84604001518560200151611661919061296f565b8352611a0b565b8051611a08906119cd906b012ced32a16a1b11e826288960261b9061145a565b83525b60208801518351611a1c9190612948565b9d9c50505050505050505050505050565b8060ff165f03611a85575f611a43868686612400565b9050697b426fab61f00de3639960221b8313158015611a625750808313155b611a7f576040516301dd20c360e11b815260040160405180910390fd5b50611acf565b5f611a918686866124b8565b9050697b426fab61f00de3639960221b8313158015611ab05750808313155b611acd576040516301dd20c360e11b815260040160405180910390fd5b505b5050505050565b5f6b012ced32a16a1b11e826288960261b61149583856129f5565b5f815f03611b1257604051630a0c22c760e01b815260040160405180910390fd5b81611495670de0b6b3a7640000856129f5565b5f670de0b6b3a764000061149583856129f5565b5f5f611b758460600151610e9b86604001516002611b5791906129f5565b611b6189806112d3565b611b6b8b80611b25565b610e9b919061296f565b90505f611b8d611b868860026129f5565b8790611b25565b6060860151909150611ba390610e9b8382611b25565b6040860151611bb690610e9b8482611b25565b611bc09084612948565b611bca919061296f565b91505f611bf88660800151610e408860800151610e4089606001518a60800151611ad690919063ffffffff16565b604086015160a0870151611c0b91611ad6565b611c159190612948565b9050611c4d8660800151611c3a87606001518860a00151611ad690919063ffffffff16565b60408801516080890151610e3691611ad6565b611c579082612948565b60c0860151909150611c7a90611c739061136b81818180611ad6565b829061145a565b9050610320838261149f565b60608201515f908190611c9f906113d8818189806112d3565b6040850151611cb4906113d881818b806112d3565b611cbe9190612948565b9050611ce68460600151610e9b86604001516002611cdc91906129f5565b610e9b8a8a611b25565b611cf0908261296f565b608085015160608501519192505f91611d129190610e40908290829080611ad6565b611d338660800151610e4087606001518860400151600261136b91906129f5565b6040860151611d429080611ad6565b611d4c9190612948565b611d569190612948565b60c0850151909150611d7290611c739061136b81818180611ad6565b9050611d81816109a484612aaa565b9250611dc2611dac8560c001516b012ced32a16a1b11e826288960261b61145a90919063ffffffff16565b60808701516109a490610e40818160098961296f565b611dcc9084612948565b979650505050505050565b60408201515f908190611df0906113d8818189806112d3565b6060850151611e05906113d881818b806112d3565b611e0f9190612948565b9050611e3784604001516113d886606001516002611e2d91906129f5565b6113d88a8a6112d3565b611e419082612948565b608080860151908501519192505f91611e639190610e40908290829080611ad6565b60a0850151611e729080611ad6565b611e7c9190612948565b9050611e9f8560800151610e4086608001518760a00151600261136b91906129f5565b611ea99082612948565b60c0850151909150611ec590611c739061136b81818180611ad6565b9050611ed4816109a484612aaa565b9250611dc2611eff8560c001516b012ced32a16a1b11e826288960261b61145a90919063ffffffff16565b6109a460098561296f565b5f670de0b6b3a76400008210611f4357670de0b6b3a7640000611f35611f308285612aea565b612557565b6001901b610a869190612a93565b600a8211611f56575063bc7c871c919050565b60648211611f6a57506402540be400919050565b6103e88211611f7f575064075cdd4719919050565b6127108211611f94575064174876e800919050565b620186a08211611faa57506449a0a4c700919050565b620f42408211611fc0575064e8d4a51000919050565b629896808211611fd757506502e0466fc608919050565b6305f5e1008211611fef57506509184e72a000919050565b633b9aca0082116120075750651cc2c05dbc53919050565b6402540be40082116120205750655af3107a4000919050565b64174876e800821161203a575066011f9b83a95b45919050565b64e8d4a510008211612054575066038d7ea4c68000919050565b6509184e72a000821161206f5750660b3c13249d90bb919050565b655af3107a4000821161208a5750662386f26fc10000919050565b66038d7ea4c6800082116120a65750667058bf6e27a751919050565b662386f26fc1000082116120c3575067016345785d8a0000919050565b67016345785d8a000082116120e15750670463777a4d8c892d919050565b5090565b5f806120f18385612a93565b9050612105670de0b6b3a764000082612aea565b949350505050565b6335278d125f526004601cfd5b5f5f604051806040016040528061213a8586611ad690919063ffffffff16565b8152895160209091019061214e90806112d3565b9052905061215a6126bc565b8151602086015186515f92612174929091610e4691611ad6565b90505f8113156121ba5761219761218c8960026129f5565b6020850151906112d3565b82526121b36121a7826007612948565b8351611661908a6112d3565b82526121ed565b6121d76121c88960026129f5565b60208c0151610e9b9080611b25565b8083526121ea908290611661908a611b25565b82525b85515f131561224857855161223e90612206908761145a565b61220f90612aaa565b61221a906003612948565b6116616122288a60026129f5565b6113d88f8f5f01516112d390919063ffffffff16565b602083015261227e565b855161227890612258908761145a565b6116616122668a60026129f5565b610e9b8f8f60200151610e9b90612aaa565b60208301525b6020820151825161228f9190612948565b8252825160208701516122a79190610e469080611ad6565b6122b2906007612948565b60208401519091506122c490896112d3565b602083018190526122db908290611661908b6112d3565b602080840191909152860151612303906122f5908761145a565b6116616122668b60026129f5565b60408301526123128b806112d3565b826040015183602001516123269190612948565b6123309190612948565b602083018190525f1261235157602082015161234c908a611af1565b612360565b6020820151612360908a610fef565b6020830181905282516123739190612948565b8083525f1261238d578151612388908a611af1565b612399565b8151612399908a610fef565b8252825186516123ae9190610e469080611ad6565b6123b9906007612948565b90505f6123d7886113d88a87602001516112d390919063ffffffff16565b83519091506123e68284611562565b6123f09190612948565b9c9b505050505050505050505050565b60c08201518251516020840151515f92839261242092610e46919061296f565b90505f6124468560c00151865f015160200151876020015160200151610e46919061296f565b905061246f826109a48860400151610e9b8a608001518960200151611b2590919063ffffffff16565b92506124a4815f8313612491576060880151865161248c916112d3565b6109a4565b606088015160208701516109a491611b25565b6124ae9084612948565b9695505050505050565b60c08201518251516020840151515f9283926124d892610e46919061296f565b90505f6124fe8560c00151866020015160200151875f015160200151610e46919061296f565b9050612527826109a48860600151610e9b8a608001518960200151611b2590919063ffffffff16565b92506124a4815f8313612544576040880151865161248c916112d3565b604088015160208701516109a491611b25565b5f600160801b82106125785760809190911c90612575604082612ac4565b90505b600160401b82106125985760409190911c90612595602082612ac4565b90505b600160201b82106125b85760209190911c906125b5601082612ac4565b90505b6201000082106125d75760109190911c906125d4600882612ac4565b90505b61010082106125f55760089190911c906125f2600482612ac4565b90505b601082106126125760049190911c9061260f600282612ac4565b90505b6004821061160d5760029190911c90610a86600182612ac4565b60405180604001604052805f81526020015f81525090565b6040518060a001604052805f81526020015f81526020015f81526020015f81526020015f81525090565b6040518060e0016040528061268161262c565b815260200161268e61262c565b81526020015f81526020015f81526020015f81526020015f81526020015f81525090565b6126ba612b10565b565b60405180606001604052805f81526020015f81526020015f81525090565b634e487b7160e01b5f52604160045260245ffd5b5f82601f8301126126fd575f5ffd5b81356001600160401b03811115612716576127166126da565b604051600582901b90603f8201601f191681016001600160401b0381118282101715612744576127446126da565b604052918252602081850181019290810186841115612761575f5ffd5b6020860192505b83831015612780578235815260209283019201612768565b5095945050505050565b5f5f5f6060848603121561279c575f5ffd5b83356001600160401b038111156127b1575f5ffd5b6127bd868287016126ee565b9660208601359650604090950135949350505050565b5f8151808452602084019350602083015f5b8281101561280d5781516001600160e01b0319168652602095860195909101906001016127e5565b5093949350505050565b602081525f6110b460208301846127d3565b5f81518084528060208401602086015e5f602082860101526020601f19601f83011685010191505092915050565b602081525f6110b46020830184612829565b5f60208284031215612879575f5ffd5b81356001600160401b0381111561288e575f5ffd5b820160e081850312156110b4575f5ffd5b600281106128ab575f5ffd5b50565b5f5f604083850312156128bf575f5ffd5b82356001600160401b038111156128d4575f5ffd5b6128e0858286016126ee565b92505060208301356128f18161289f565b809150509250929050565b606081525f61290e6060830186612829565b828103602084015261292081866127d3565b905082810360408401526124ae81856127d3565b634e487b7160e01b5f52601160045260245ffd5b8082018281125f83128015821682158216171561296757612967612934565b505092915050565b8181035f83128015838313168383128216171561298e5761298e612934565b5092915050565b634e487b7160e01b5f52603260045260245ffd5b5f5f8335601e198436030181126129be575f5ffd5b8301803591506001600160401b038211156129d7575f5ffd5b6020019150600581901b36038213156129ee575f5ffd5b9250929050565b8082025f8212600160ff1b84141615612a1057612a10612934565b8181058314821517610a8657610a86612934565b634e487b7160e01b5f52602160045260245ffd5b5f60208284031215612a48575f5ffd5b81356110b48161289f565b634e487b7160e01b5f52601260045260245ffd5b5f82612a7557612a75612a53565b600160ff1b82145f1984141615612a8e57612a8e612934565b500590565b8082028115828204841417610a8657610a86612934565b5f600160ff1b8201612abe57612abe612934565b505f0390565b80820180821115610a8657610a86612934565b81810381811115610a8657610a86612934565b5f82612af857612af8612a53565b500490565b5f82612b0b57612b0b612a53565b500790565b634e487b7160e01b5f52605160045260245ffdfea2646970667358221220daa15eab2fb33c04b21740334707f9943cccab9a1faa70d2e3550983c3712a2564736f6c634300081e0033","linkReferences":{}},"methodIdentifiers":{"computeBalance(uint256[],uint256,uint256)":"16a0b3e0","computeInvariant(uint256[],uint8)":"984de9e8","facetFuncs()":"574a4cff","facetInterfaces()":"2ea80826","facetMetadata()":"f10d7a75","facetName()":"5b6f4d01","getECLPParams()":"7be219a2","getMaximumInvariantRatio()":"273c1adf","getMaximumSwapFeePercentage()":"654cf15d","getMinimumInvariantRatio()":"b677fa56","getMinimumSwapFeePercentage()":"ce20ece7","onSwap((uint8,uint256,uint256[],uint256,uint256,address,bytes))":"72c98186"},"id":870}