{"abi":[{"type":"function","name":"computeBalance","inputs":[{"name":"balancesLiveScaled18","type":"uint256[]","internalType":"uint256[]"},{"name":"tokenInIndex","type":"uint256","internalType":"uint256"},{"name":"invariantRatio","type":"uint256","internalType":"uint256"}],"outputs":[{"name":"newBalance","type":"uint256","internalType":"uint256"}],"stateMutability":"view"},{"type":"function","name":"computeInvariant","inputs":[{"name":"balancesLiveScaled18","type":"uint256[]","internalType":"uint256[]"},{"name":"rounding","type":"uint8","internalType":"enum Rounding"}],"outputs":[{"name":"invariant","type":"uint256","internalType":"uint256"}],"stateMutability":"view"},{"type":"function","name":"getAmplificationParameter","inputs":[],"outputs":[{"name":"value","type":"uint256","internalType":"uint256"},{"name":"isUpdating","type":"bool","internalType":"bool"},{"name":"precision","type":"uint256","internalType":"uint256"}],"stateMutability":"view"},{"type":"function","name":"getAmplificationState","inputs":[],"outputs":[{"name":"startValue","type":"uint256","internalType":"uint256"},{"name":"endValue","type":"uint256","internalType":"uint256"},{"name":"startTime","type":"uint256","internalType":"uint256"},{"name":"endTime","type":"uint256","internalType":"uint256"},{"name":"precision","type":"uint256","internalType":"uint256"}],"stateMutability":"view"},{"type":"function","name":"getRawAmplificationState","inputs":[],"outputs":[{"name":"startValue","type":"uint64","internalType":"uint64"},{"name":"endValue","type":"uint64","internalType":"uint64"},{"name":"startTime","type":"uint32","internalType":"uint32"},{"name":"endTime","type":"uint32","internalType":"uint32"}],"stateMutability":"view"},{"type":"function","name":"initialize","inputs":[{"name":"amplificationParameter_","type":"uint256","internalType":"uint256"}],"outputs":[],"stateMutability":"nonpayable"},{"type":"function","name":"onSwap","inputs":[{"name":"params","type":"tuple","internalType":"struct PoolSwapParams","components":[{"name":"kind","type":"uint8","internalType":"enum SwapKind"},{"name":"amountGivenScaled18","type":"uint256","internalType":"uint256"},{"name":"balancesScaled18","type":"uint256[]","internalType":"uint256[]"},{"name":"indexIn","type":"uint256","internalType":"uint256"},{"name":"indexOut","type":"uint256","internalType":"uint256"},{"name":"router","type":"address","internalType":"address"},{"name":"userData","type":"bytes","internalType":"bytes"}]}],"outputs":[{"name":"amountCalculatedScaled18","type":"uint256","internalType":"uint256"}],"stateMutability":"view"},{"type":"function","name":"startAmplificationParameterUpdate","inputs":[{"name":"rawEndValue","type":"uint256","internalType":"uint256"},{"name":"endTime","type":"uint256","internalType":"uint256"}],"outputs":[],"stateMutability":"nonpayable"},{"type":"function","name":"stopAmplificationParameterUpdate","inputs":[],"outputs":[],"stateMutability":"nonpayable"},{"type":"error","name":"AmpUpdateAlreadyStarted","inputs":[]},{"type":"error","name":"AmpUpdateDurationTooShort","inputs":[]},{"type":"error","name":"AmpUpdateNotStarted","inputs":[]},{"type":"error","name":"AmpUpdateRateTooFast","inputs":[]},{"type":"error","name":"AmplificationFactorTooHigh","inputs":[]},{"type":"error","name":"AmplificationFactorTooLow","inputs":[]},{"type":"error","name":"StableComputeBalanceDidNotConverge","inputs":[]},{"type":"error","name":"StableInvariantDidNotConverge","inputs":[]},{"type":"error","name":"ZeroDivision","inputs":[]}],"bytecode":{"object":"0x6080604052348015600e575f5ffd5b506111008061001c5f395ff3fe608060405234801561000f575f5ffd5b5060043610610081575f3560e01c80630d02f9b81461008557806316a0b3e0146100c957806321da5e19146100ea5780632f1a0bc91461011a5780636daccffa1461012f57806372c9818614610152578063984de9e814610165578063eb0f24d614610178578063fe4b84df14610180575b5f5ffd5b61008d610193565b604080516001600160401b03958616815294909316602085015263ffffffff918216928401929092521660608201526080015b60405180910390f35b6100dc6100d7366004610ea0565b6101db565b6040519081526020016100c0565b6100f2610228565b604080519586526020860194909452928401919091526060830152608082015260a0016100c0565b61012d610128366004610ee9565b610248565b005b610137610256565b604080519384529115156020840152908201526060016100c0565b6100dc610160366004610f09565b61026f565b6100dc610173366004610f52565b6103a7565b61012d6103f9565b61012d61018e366004610fa0565b610403565b5f5f5f5f5f6101a061040f565b546001600160401b0380821697600160401b8304909116965063ffffffff600160801b830481169650600160a01b9092049091169350915050565b5f5f6101e5610433565b5090505f6101f3828761044d565b9050801561020957610206816001610fcb565b90505b61021e828761021884886105f7565b88610623565b9695505050505050565b5f5f5f5f5f610235610864565b929891975095509093506103e892509050565b61025282826108b4565b5050565b5f5f5f610261610433565b90949093506103e892509050565b5f5f610279610433565b5090505f6102c48261028e6040870187610fde565b808060200260200160405190810160405280939291908181526020018383602002808284375f9201919091525061044d92505050565b90505f6102d4602086018661103e565b60018111156102e5576102e561102a565b0361034757610340826102fb6040870187610fde565b808060200260200160405190810160405280939291908181526020018383602002808284375f92019190915250505050606087013560808801356020890135866108c6565b92506103a0565b61039d826103586040870187610fde565b808060200260200160405190810160405280939291908181526020018383602002808284375f9201919091525050505060608701356080880135602089013586610962565b92505b5050919050565b5f5f6103b1610433565b5090506103be818561044d565b91505f821180156103df57505f8360018111156103dd576103dd61102a565b145b156103f2576103ef826001610fcb565b91505b5092915050565b6104016109f1565b565b61040c81610a01565b50565b7f4069f3526645903a5a030f5bf0c2cdf6b41ae31fd783d174908193a7b8ff234390565b5f5f61044561044061040f565b610a12565b915091509091565b80515f908190815b8181101561048c5784818151811061046f5761046f611059565b6020026020010151836104829190610fcb565b9250600101610455565b50815f0361049e575f925050506105f1565b5f82816104ab848961106d565b90505f5b60ff8110156105d857825f5b8681101561050657868a82815181106104d6576104d6611059565b60200260200101516104e8919061106d565b6104f2868461106d565b6104fc9190611098565b91506001016104bb565b50839450808660016105189190610fcb565b610522919061106d565b6103e88561053082876110b7565b61053a919061106d565b6105449190611098565b61054e9190610fcb565b84610559888461106d565b6103e86105668b8861106d565b6105709190611098565b61057a9190610fcb565b610584919061106d565b61058e9190611098565b9350848411156105b6576001858503116105b157839750505050505050506105f1565b6105cf565b6001848603116105cf57839750505050505050506105f1565b506001016104af565b506040516208651960e51b815260040160405180910390fd5b92915050565b5f80610603838561106d565b90506001670de0b6b3a76400006001830304018115150291505092915050565b82515f9081610632828861106d565b90505f865f8151811061064757610647611059565b602002602001015190505f83885f8151811061066557610665611059565b6020026020010151610677919061106d565b905060015b848110156106f05787858a838151811061069857610698611059565b6020026020010151846106ab919061106d565b6106b5919061106d565b6106bf9190611098565b91508881815181106106d3576106d3611059565b6020026020010151836106e69190610fcb565b925060010161067c565b5087868151811061070357610703611059565b60200260200101518261071691906110b7565b91505f610723888061106d565b90505f89888151811061073857610738611059565b6020026020010151610761848761074f919061106d565b61075b6103e88661106d565b90610aac565b61076b919061106d565b90505f8561077b6103e88c61106d565b6107859190611098565b61078f9086610fcb565b90505f806107aa6107a0848e610fcb565b61075b8688610fcb565b90505f5b60ff811015610842578192506107f58d858460026107cc919061106d565b6107d69190610fcb565b6107e091906110b7565b866107eb858061106d565b61075b9190610fcb565b91508282111561081f5760018383031161081a5750985061085c975050505050505050565b61083a565b60018284031161083a5750985061085c975050505050505050565b6001016107ae565b5060405163372f681760e21b815260040160405180910390fd5b949350505050565b5f5f5f5f6108a661087361040f565b546001600160401b0380821692600160401b83049091169163ffffffff600160801b8204811692600160a01b9092041690565b935093509350935090919293565b6102526108bf61040f565b8383610ade565b5f828686815181106108da576108da611059565b602002602001018181516108ee9190610fcb565b9052505f6108fe88888588610623565b90508387878151811061091357610913611059565b60200260200101818151039150818152505060018188878151811061093a5761093a611059565b602002602001015161094c91906110b7565b61095691906110b7565b98975050505050505050565b5f8286858151811061097657610976611059565b6020026020010181815161098a91906110b7565b9052505f61099a88888589610623565b9050838786815181106109af576109af611059565b6020026020010181815101915081815250508686815181106109d3576109d3611059565b6020026020010151816109e691906110b7565b610956906001610fcb565b6104016109fc61040f565b610cb3565b61040c610a0c61040f565b82610d3e565b80545f9081906001600160401b0380821691600160401b81049091169063ffffffff600160801b8204811691600160a01b90041642811115610a9c576001945083831115610a7b578181038242038585030281610a7157610a71611084565b0484019550610aa3565b8181038242038486030281610a9257610a92611084565b0484039550610aa3565b5f94508295505b50505050915091565b5f815f03610acd57604051630a0c22c760e01b815260040160405180910390fd5b508115155f19909201046001010290565b6001821015610b005760405163ab92332360e01b815260040160405180910390fd5b61c350821115610b23576040516309b80d3960e41b815260040160405180910390fd5b5f610b2e42836110b7565b905062015180811015610b54576040516366b5811560e11b815260040160405180910390fd5b5f5f610b5f86610a12565b915091508015610b82576040516317980f3f60e11b815260040160405180910390fd5b5f610b8f6103e88761106d565b90505f838211610bdf57610ba3858361106d565b6001610baf878561106d565b610bbc876201518061106d565b610bc69190610fcb565b610bd091906110b7565b610bda9190611098565b610c20565b610be9858561106d565b6001610bf5878761106d565b610c02856201518061106d565b610c0c9190610fcb565b610c1691906110b7565b610c209190611098565b90506002811115610c4457604051630e3845c960e11b815260040160405180910390fd5b50865463ffffffff958616600160a01b0263ffffffff60a01b194297909716600160801b0296909616600160801b600160c01b03196001600160401b03938416600160401b026001600160801b0319909316939095169290921717929092169190911792909217909355505050565b5f5f610cbe83610a12565b9150915080610ce057604051634673a67560e01b815260040160405180910390fd5b82546001600160801b0319166001600160401b038316908117600160401b9190910217600160801b600160c01b031916600160801b4263ffffffff1690810263ffffffff60a01b191691909117600160a01b91909102178355505050565b6001811015610d605760405163ab92332360e01b815260040160405180910390fd5b61c350811115610d83576040516309b80d3960e41b815260040160405180910390fd5b5f610d906103e88361106d565b83546001600160801b0319166001600160401b0391909116908117600160401b9190910217600160801b600160c01b031916600160801b4263ffffffff1690810263ffffffff60a01b191691909117600160a01b91909102179092555050565b634e487b7160e01b5f52604160045260245ffd5b5f82601f830112610e13575f5ffd5b81356001600160401b03811115610e2c57610e2c610df0565b604051600582901b90603f8201601f191681016001600160401b0381118282101715610e5a57610e5a610df0565b604052918252602081850181019290810186841115610e77575f5ffd5b6020860192505b83831015610e96578235815260209283019201610e7e565b5095945050505050565b5f5f5f60608486031215610eb2575f5ffd5b83356001600160401b03811115610ec7575f5ffd5b610ed386828701610e04565b9660208601359650604090950135949350505050565b5f5f60408385031215610efa575f5ffd5b50508035926020909101359150565b5f60208284031215610f19575f5ffd5b81356001600160401b03811115610f2e575f5ffd5b820160e08185031215610f3f575f5ffd5b9392505050565b6002811061040c575f5ffd5b5f5f60408385031215610f63575f5ffd5b82356001600160401b03811115610f78575f5ffd5b610f8485828601610e04565b9250506020830135610f9581610f46565b809150509250929050565b5f60208284031215610fb0575f5ffd5b5035919050565b634e487b7160e01b5f52601160045260245ffd5b808201808211156105f1576105f1610fb7565b5f5f8335601e19843603018112610ff3575f5ffd5b8301803591506001600160401b0382111561100c575f5ffd5b6020019150600581901b3603821315611023575f5ffd5b9250929050565b634e487b7160e01b5f52602160045260245ffd5b5f6020828403121561104e575f5ffd5b8135610f3f81610f46565b634e487b7160e01b5f52603260045260245ffd5b80820281158282048414176105f1576105f1610fb7565b634e487b7160e01b5f52601260045260245ffd5b5f826110b257634e487b7160e01b5f52601260045260245ffd5b500490565b818103818111156105f1576105f1610fb756fea2646970667358221220bf189cbaa8de761e31ac2a6238310775d85da6ada646b8b74c07c0ee18ea498f64736f6c634300081e0033","linkReferences":{}},"methodIdentifiers":{"computeBalance(uint256[],uint256,uint256)":"16a0b3e0","computeInvariant(uint256[],uint8)":"984de9e8","getAmplificationParameter()":"6daccffa","getAmplificationState()":"21da5e19","getRawAmplificationState()":"0d02f9b8","initialize(uint256)":"fe4b84df","onSwap((uint8,uint256,uint256[],uint256,uint256,address,bytes))":"72c98186","startAmplificationParameterUpdate(uint256,uint256)":"2f1a0bc9","stopAmplificationParameterUpdate()":"eb0f24d6"},"id":877}