{"abi":[{"type":"constructor","inputs":[],"stateMutability":"nonpayable"},{"type":"fallback","stateMutability":"payable"},{"type":"receive","stateMutability":"payable"},{"type":"function","name":"exampleExternalFunction","inputs":[{"name":"value_","type":"string","internalType":"string"}],"outputs":[],"stateMutability":"nonpayable"},{"type":"function","name":"exampleExternalPureFunction","inputs":[{"name":"a_","type":"uint256","internalType":"uint256"},{"name":"b_","type":"uint256","internalType":"uint256"}],"outputs":[{"name":"","type":"uint256","internalType":"uint256"}],"stateMutability":"pure"},{"type":"function","name":"exampleExternalViewFunction","inputs":[],"outputs":[{"name":"","type":"string","internalType":"string"}],"stateMutability":"view"},{"type":"function","name":"examplePublicFunction","inputs":[{"name":"value_","type":"string","internalType":"string"}],"outputs":[],"stateMutability":"nonpayable"},{"type":"function","name":"examplePublicPureFunction","inputs":[{"name":"a_","type":"uint256","internalType":"uint256"},{"name":"b_","type":"uint256","internalType":"uint256"}],"outputs":[{"name":"","type":"uint256","internalType":"uint256"}],"stateMutability":"pure"},{"type":"function","name":"examplePublicViewFunction","inputs":[],"outputs":[{"name":"","type":"string","internalType":"string"}],"stateMutability":"view"}],"bytecode":{"object":"0x6080604052348015600e575f5ffd5b5061042f8061001c5f395ff3fe608060405260043610610054575f3560e01c80631e535c87146100565780634a9febf81461008057806367165fb7146100565780636d5ace921461009f5780638d1fe86a14610080578063d8f34d39146100cc575b005b348015610061575f5ffd5b5061006a6100eb565b60405161007791906101aa565b60405180910390f35b34801561008b575f5ffd5b5061005461009a3660046101df565b61017a565b3480156100aa575f5ffd5b506100be6100b936600461024b565b61018b565b604051908152602001610077565b3480156100d7575f5ffd5b506100be6100e636600461024b565b61019f565b60605f80546100f99061026b565b80601f01602080910402602001604051908101604052809291908181526020018280546101259061026b565b80156101705780601f1061014757610100808354040283529160200191610170565b820191905f5260205f20905b81548152906001019060200180831161015357829003601f168201915b5050505050905090565b5f610186828483610302565b505050565b5f61019682846103cf565b90505b92915050565b5f61019682846103e2565b602081525f82518060208401528060208501604085015e5f604082850101526040601f19601f83011684010191505092915050565b5f5f602083850312156101f0575f5ffd5b82356001600160401b03811115610205575f5ffd5b8301601f81018513610215575f5ffd5b80356001600160401b0381111561022a575f5ffd5b85602082840101111561023b575f5ffd5b6020919091019590945092505050565b5f5f6040838503121561025c575f5ffd5b50508035926020909101359150565b600181811c9082168061027f57607f821691505b60208210810361029d57634e487b7160e01b5f52602260045260245ffd5b50919050565b634e487b7160e01b5f52604160045260245ffd5b601f82111561018657805f5260205f20601f840160051c810160208510156102dc5750805b601f840160051c820191505b818110156102fb575f81556001016102e8565b5050505050565b6001600160401b03831115610319576103196102a3565b61032d83610327835461026b565b836102b7565b5f601f84116001811461035e575f85156103475750838201355b5f19600387901b1c1916600186901b1783556102fb565b5f83815260208120601f198716915b8281101561038d578685013582556020948501946001909201910161036d565b50868210156103a9575f1960f88860031b161c19848701351681555b505060018560011b0183555050505050565b634e487b7160e01b5f52601160045260245ffd5b80820180821115610199576101996103bb565b8082028115828204841417610199576101996103bb56fea2646970667358221220a29dd9fe415b81346a15ca816c6a72c7e5c56e1fac3b1d2e00c9df3fa874140b64736f6c634300081e0033","linkReferences":{}},"methodIdentifiers":{"exampleExternalFunction(string)":"8d1fe86a","exampleExternalPureFunction(uint256,uint256)":"6d5ace92","exampleExternalViewFunction()":"1e535c87","examplePublicFunction(string)":"4a9febf8","examplePublicPureFunction(uint256,uint256)":"d8f34d39","examplePublicViewFunction()":"67165fb7"},"id":2}