{"abi":[{"type":"constructor","inputs":[{"name":"vault_","type":"address","internalType":"contract IVault"},{"name":"balancerPoolToken_","type":"address","internalType":"contract IERC20"},{"name":"name_","type":"string","internalType":"string"},{"name":"symbol_","type":"string","internalType":"string"}],"stateMutability":"nonpayable"},{"type":"function","name":"DOMAIN_SEPARATOR","inputs":[],"outputs":[{"name":"","type":"bytes32","internalType":"bytes32"}],"stateMutability":"view"},{"type":"function","name":"allowance","inputs":[{"name":"owner","type":"address","internalType":"address"},{"name":"spender","type":"address","internalType":"address"}],"outputs":[{"name":"","type":"uint256","internalType":"uint256"}],"stateMutability":"view"},{"type":"function","name":"approve","inputs":[{"name":"spender","type":"address","internalType":"address"},{"name":"value","type":"uint256","internalType":"uint256"}],"outputs":[{"name":"","type":"bool","internalType":"bool"}],"stateMutability":"nonpayable"},{"type":"function","name":"balanceOf","inputs":[{"name":"account","type":"address","internalType":"address"}],"outputs":[{"name":"","type":"uint256","internalType":"uint256"}],"stateMutability":"view"},{"type":"function","name":"balancerPoolToken","inputs":[],"outputs":[{"name":"","type":"address","internalType":"contract IERC20"}],"stateMutability":"view"},{"type":"function","name":"burn","inputs":[{"name":"value","type":"uint256","internalType":"uint256"}],"outputs":[],"stateMutability":"nonpayable"},{"type":"function","name":"burnFrom","inputs":[{"name":"account","type":"address","internalType":"address"},{"name":"value","type":"uint256","internalType":"uint256"}],"outputs":[],"stateMutability":"nonpayable"},{"type":"function","name":"decimals","inputs":[],"outputs":[{"name":"","type":"uint8","internalType":"uint8"}],"stateMutability":"view"},{"type":"function","name":"eip712Domain","inputs":[],"outputs":[{"name":"fields","type":"bytes1","internalType":"bytes1"},{"name":"name","type":"string","internalType":"string"},{"name":"version","type":"string","internalType":"string"},{"name":"chainId","type":"uint256","internalType":"uint256"},{"name":"verifyingContract","type":"address","internalType":"address"},{"name":"salt","type":"bytes32","internalType":"bytes32"},{"name":"extensions","type":"uint256[]","internalType":"uint256[]"}],"stateMutability":"view"},{"type":"function","name":"mint","inputs":[{"name":"amount","type":"uint256","internalType":"uint256"}],"outputs":[],"stateMutability":"nonpayable"},{"type":"function","name":"name","inputs":[],"outputs":[{"name":"","type":"string","internalType":"string"}],"stateMutability":"view"},{"type":"function","name":"nonces","inputs":[{"name":"owner","type":"address","internalType":"address"}],"outputs":[{"name":"","type":"uint256","internalType":"uint256"}],"stateMutability":"view"},{"type":"function","name":"permit","inputs":[{"name":"owner","type":"address","internalType":"address"},{"name":"spender","type":"address","internalType":"address"},{"name":"value","type":"uint256","internalType":"uint256"},{"name":"deadline","type":"uint256","internalType":"uint256"},{"name":"v","type":"uint8","internalType":"uint8"},{"name":"r","type":"bytes32","internalType":"bytes32"},{"name":"s","type":"bytes32","internalType":"bytes32"}],"outputs":[],"stateMutability":"nonpayable"},{"type":"function","name":"symbol","inputs":[],"outputs":[{"name":"","type":"string","internalType":"string"}],"stateMutability":"view"},{"type":"function","name":"totalSupply","inputs":[],"outputs":[{"name":"","type":"uint256","internalType":"uint256"}],"stateMutability":"view"},{"type":"function","name":"transfer","inputs":[{"name":"to","type":"address","internalType":"address"},{"name":"value","type":"uint256","internalType":"uint256"}],"outputs":[{"name":"","type":"bool","internalType":"bool"}],"stateMutability":"nonpayable"},{"type":"function","name":"transferFrom","inputs":[{"name":"from","type":"address","internalType":"address"},{"name":"to","type":"address","internalType":"address"},{"name":"value","type":"uint256","internalType":"uint256"}],"outputs":[{"name":"","type":"bool","internalType":"bool"}],"stateMutability":"nonpayable"},{"type":"function","name":"vault","inputs":[],"outputs":[{"name":"","type":"address","internalType":"contract IVault"}],"stateMutability":"view"},{"type":"event","name":"Approval","inputs":[{"name":"owner","type":"address","indexed":true,"internalType":"address"},{"name":"spender","type":"address","indexed":true,"internalType":"address"},{"name":"value","type":"uint256","indexed":false,"internalType":"uint256"}],"anonymous":false},{"type":"event","name":"EIP712DomainChanged","inputs":[],"anonymous":false},{"type":"event","name":"Transfer","inputs":[{"name":"from","type":"address","indexed":true,"internalType":"address"},{"name":"to","type":"address","indexed":true,"internalType":"address"},{"name":"value","type":"uint256","indexed":false,"internalType":"uint256"}],"anonymous":false},{"type":"error","name":"ECDSAInvalidSignature","inputs":[]},{"type":"error","name":"ECDSAInvalidSignatureLength","inputs":[{"name":"length","type":"uint256","internalType":"uint256"}]},{"type":"error","name":"ECDSAInvalidSignatureS","inputs":[{"name":"s","type":"bytes32","internalType":"bytes32"}]},{"type":"error","name":"ERC20InsufficientAllowance","inputs":[{"name":"spender","type":"address","internalType":"address"},{"name":"allowance","type":"uint256","internalType":"uint256"},{"name":"needed","type":"uint256","internalType":"uint256"}]},{"type":"error","name":"ERC20InsufficientBalance","inputs":[{"name":"sender","type":"address","internalType":"address"},{"name":"balance","type":"uint256","internalType":"uint256"},{"name":"needed","type":"uint256","internalType":"uint256"}]},{"type":"error","name":"ERC20InvalidApprover","inputs":[{"name":"approver","type":"address","internalType":"address"}]},{"type":"error","name":"ERC20InvalidReceiver","inputs":[{"name":"receiver","type":"address","internalType":"address"}]},{"type":"error","name":"ERC20InvalidSender","inputs":[{"name":"sender","type":"address","internalType":"address"}]},{"type":"error","name":"ERC20InvalidSpender","inputs":[{"name":"spender","type":"address","internalType":"address"}]},{"type":"error","name":"ERC2612ExpiredSignature","inputs":[{"name":"deadline","type":"uint256","internalType":"uint256"}]},{"type":"error","name":"ERC2612InvalidSigner","inputs":[{"name":"signer","type":"address","internalType":"address"},{"name":"owner","type":"address","internalType":"address"}]},{"type":"error","name":"InvalidAccountNonce","inputs":[{"name":"account","type":"address","internalType":"address"},{"name":"currentNonce","type":"uint256","internalType":"uint256"}]},{"type":"error","name":"InvalidShortString","inputs":[]},{"type":"error","name":"StringTooLong","inputs":[{"name":"str","type":"string","internalType":"string"}]},{"type":"error","name":"VaultIsUnlocked","inputs":[]}],"bytecode":{"object":"0x6101a0604052348015610010575f5ffd5b5060405161181d38038061181d83398101604081905261002f91610262565b6040805180820190915260018152603160f81b602082015282908190818460036100598382610371565b5060046100668282610371565b5061007691508390506005610136565b61012052610085816006610136565b61014052815160208084019190912060e052815190820120610100524660a05261011160e05161010051604080517f8b73c3c69bb8fe3d512ecc4cf759cc79239f7b179b0ffacaa9a75d522b39400f60208201529081019290925260608201524660808201523060a08201525f9060c00160405160208183030381529060405280519060200120905090565b60805250503060c0525050506001600160a01b03918216610180521661016052610483565b5f6020835110156101515761014a83610168565b9050610162565b8161015c8482610371565b5060ff90505b92915050565b5f5f829050601f8151111561019b578260405163305a27a960e01b8152600401610192919061042b565b60405180910390fd5b80516101a682610460565b179392505050565b6001600160a01b03811681146101c2575f5ffd5b50565b634e487b7160e01b5f52604160045260245ffd5b5f82601f8301126101e8575f5ffd5b81516001600160401b03811115610201576102016101c5565b604051601f8201601f19908116603f011681016001600160401b038111828210171561022f5761022f6101c5565b604052818152838201602001851015610246575f5ffd5b8160208501602083015e5f918101602001919091529392505050565b5f5f5f5f60808587031215610275575f5ffd5b8451610280816101ae565b6020860151909450610291816101ae565b60408601519093506001600160401b038111156102ac575f5ffd5b6102b8878288016101d9565b606087015190935090506001600160401b038111156102d5575f5ffd5b6102e1878288016101d9565b91505092959194509250565b600181811c9082168061030157607f821691505b60208210810361031f57634e487b7160e01b5f52602260045260245ffd5b50919050565b601f82111561036c57805f5260205f20601f840160051c8101602085101561034a5750805b601f840160051c820191505b81811015610369575f8155600101610356565b50505b505050565b81516001600160401b0381111561038a5761038a6101c5565b61039e8161039884546102ed565b84610325565b6020601f8211600181146103d0575f83156103b95750848201515b5f19600385901b1c1916600184901b178455610369565b5f84815260208120601f198516915b828110156103ff57878501518255602094850194600190920191016103df565b508482101561041c57868401515f19600387901b60f8161c191681555b50505050600190811b01905550565b602081525f82518060208401528060208501604085015e5f604082850101526040601f19601f83011684010191505092915050565b8051602080830151919081101561031f575f1960209190910360031b1b16919050565b60805160a05160c05160e051610100516101205161014051610160516101805161131261050b5f395f81816102700152818161036e01528181610419015261053e01525f818161017f015281816105e701526109a401525f610a4201525f610a1501525f61092401525f6108fc01525f61085701525f61088101525f6108ab01526113125ff3fe608060405234801561000f575f5ffd5b50600436106100e4575f3560e01c806306fdde03146100e8578063095ea7b31461010657806318160ddd1461012957806323b872dd1461013b578063313ce5671461014e5780633644e5151461015d57806342966c68146101655780636813986c1461017a57806370a08231146101ae57806379cc6790146101d65780637ecebe00146101e957806384b0196e146101fc57806395d89b4114610217578063a0712d681461021f578063a9059cbb14610232578063d505accf14610245578063dd62ed3e14610258578063fbfa77cf1461026b575b5f5ffd5b6100f0610292565b6040516100fd9190611023565b60405180910390f35b610119610114366004611057565b610322565b60405190151581526020016100fd565b6002545b6040519081526020016100fd565b61011961014936600461107f565b61033b565b604051601281526020016100fd565b61012d61035e565b6101786101733660046110b9565b61036c565b005b6101a17f000000000000000000000000000000000000000000000000000000000000000081565b6040516100fd91906110d0565b61012d6101bc3660046110e4565b6001600160a01b03165f9081526020819052604090205490565b6101786101e4366004611057565b610417565b61012d6101f73660046110e4565b6104ce565b6102046104eb565b6040516100fd97969594939291906110fd565b6100f061052d565b61017861022d3660046110b9565b61053c565b610119610240366004611057565b610619565b610178610253366004611193565b610626565b61012d610266366004611200565b610761565b6101a17f000000000000000000000000000000000000000000000000000000000000000081565b6060600380546102a190611231565b80601f01602080910402602001604051908101604052809291908181526020018280546102cd90611231565b80156103185780601f106102ef57610100808354040283529160200191610318565b820191905f5260205f20905b8154815290600101906020018083116102fb57829003601f168201915b5050505050905090565b5f3361032f81858561078b565b60019150505b92915050565b5f3361034885828561079d565b6103538585856107ee565b506001949350505050565b5f61036761084b565b905090565b7f00000000000000000000000000000000000000000000000000000000000000006001600160a01b0316638380edb76040518163ffffffff1660e01b8152600401602060405180830381865afa1580156103c8573d5f5f3e3d5ffd5b505050506040513d601f19601f820116820180604052508101906103ec9190611269565b1561040a5760405163be18e30960e01b815260040160405180910390fd5b6104143382610974565b50565b7f00000000000000000000000000000000000000000000000000000000000000006001600160a01b0316638380edb76040518163ffffffff1660e01b8152600401602060405180830381865afa158015610473573d5f5f3e3d5ffd5b505050506040513d601f19601f820116820180604052508101906104979190611269565b156104b55760405163be18e30960e01b815260040160405180910390fd5b6104c082338361079d565b6104ca8282610974565b5050565b6001600160a01b0381165f90815260076020526040812054610335565b5f6060805f5f5f60606104fc610a0e565b610504610a3b565b604080515f80825260208201909252600f60f81b9b939a50919850469750309650945092509050565b6060600480546102a190611231565b7f00000000000000000000000000000000000000000000000000000000000000006001600160a01b0316638380edb76040518163ffffffff1660e01b8152600401602060405180830381865afa158015610598573d5f5f3e3d5ffd5b505050506040513d601f19601f820116820180604052508101906105bc9190611269565b156105da5760405163be18e30960e01b815260040160405180910390fd5b61060f6001600160a01b037f000000000000000000000000000000000000000000000000000000000000000016333084610a68565b6104143382610a74565b5f3361032f8185856107ee565b8342111561064f5760405163313c898160e11b8152600481018590526024015b60405180910390fd5b5f7f6e71edae12b1b97f4d1f60370fef10105fa2faae0126114a169c64845d6126c988888861069a8c6001600160a01b03165f90815260076020526040902080546001810190915590565b6040805160208101969096526001600160a01b0394851690860152929091166060840152608083015260a082015260c0810186905260e0016040516020818303038152906040528051906020012090505f6106f482610aa8565b90505f61070382878787610ad4565b9050896001600160a01b0316816001600160a01b03161461074a576040516325c0072360e11b81526001600160a01b0380831660048301528b166024820152604401610646565b6107558a8a8a61078b565b50505050505050505050565b6001600160a01b039182165f90815260016020908152604080832093909416825291909152205490565b6107988383836001610b00565b505050565b5f6107a88484610761565b90505f198110156107e857818110156107da57828183604051637dc7a0d960e11b815260040161064693929190611288565b6107e884848484035f610b00565b50505050565b6001600160a01b038316610817575f604051634b637e8f60e11b815260040161064691906110d0565b6001600160a01b038216610840575f60405163ec442f0560e01b815260040161064691906110d0565b610798838383610bd2565b5f306001600160a01b037f0000000000000000000000000000000000000000000000000000000000000000161480156108a357507f000000000000000000000000000000000000000000000000000000000000000046145b156108cd57507f000000000000000000000000000000000000000000000000000000000000000090565b610367604080517f8b73c3c69bb8fe3d512ecc4cf759cc79239f7b179b0ffacaa9a75d522b39400f60208201527f0000000000000000000000000000000000000000000000000000000000000000918101919091527f000000000000000000000000000000000000000000000000000000000000000060608201524660808201523060a08201525f9060c00160405160208183030381529060405280519060200120905090565b61097e8282610ce5565b60405163a9059cbb60e01b81526001600160a01b038381166004830152602482018390527f0000000000000000000000000000000000000000000000000000000000000000169063a9059cbb906044016020604051808303815f875af11580156109ea573d5f5f3e3d5ffd5b505050506040513d601f19601f820116820180604052508101906107989190611269565b60606103677f00000000000000000000000000000000000000000000000000000000000000006005610d19565b60606103677f00000000000000000000000000000000000000000000000000000000000000006006610d19565b6107e884848484610dc2565b6001600160a01b038216610a9d575f60405163ec442f0560e01b815260040161064691906110d0565b6104ca5f8383610bd2565b5f610335610ab461084b565b8360405161190160f01b8152600281019290925260228201526042902090565b5f5f5f5f610ae488888888610e1b565b925092509250610af48282610ed9565b50909695505050505050565b6001600160a01b038416610b29575f60405163e602df0560e01b815260040161064691906110d0565b6001600160a01b038316610b52575f604051634a1406b160e11b815260040161064691906110d0565b6001600160a01b038085165f90815260016020908152604080832093871683529290522082905580156107e857826001600160a01b0316846001600160a01b03167f8c5be1e5ebec7d5bd14f71427d1e84f3dd0314c0f7b2291e5b200ac8c7c3b92584604051610bc491815260200190565b60405180910390a350505050565b6001600160a01b038316610bfc578060025f828254610bf191906112a9565b90915550610c599050565b6001600160a01b0383165f9081526020819052604090205481811015610c3b5783818360405163391434e360e21b815260040161064693929190611288565b6001600160a01b0384165f9081526020819052604090209082900390555b6001600160a01b038216610c7557600280548290039055610c93565b6001600160a01b0382165f9081526020819052604090208054820190555b816001600160a01b0316836001600160a01b03167fddf252ad1be2c89b69c2b068fc378daa952ba7f163c4a11628f55a4df523b3ef83604051610cd891815260200190565b60405180910390a3505050565b6001600160a01b038216610d0e575f604051634b637e8f60e11b815260040161064691906110d0565b6104ca825f83610bd2565b606060ff8314610d3357610d2c83610f91565b9050610335565b818054610d3f90611231565b80601f0160208091040260200160405190810160405280929190818152602001828054610d6b90611231565b8015610db65780601f10610d8d57610100808354040283529160200191610db6565b820191905f5260205f20905b815481529060010190602001808311610d9957829003601f168201915b50505050509050610335565b60405181606052826040528360601b602c526323b872dd60601b600c5260205f6064601c5f895af18060015f511416610e0d57803d873b151710610e0d57637939f4245f526004601cfd5b505f60605260405250505050565b5f80806fa2a8918ca85bafe22016d0b997e4df60600160ff1b03841115610e4a57505f91506003905082610ecf565b604080515f808252602082018084528a905260ff891692820192909252606081018790526080810186905260019060a0016020604051602081039080840390855afa158015610e9b573d5f5f3e3d5ffd5b5050604051601f1901519150506001600160a01b038116610ec657505f925060019150829050610ecf565b92505f91508190505b9450945094915050565b5f826003811115610eec57610eec6112c8565b03610ef5575050565b6001826003811115610f0957610f096112c8565b03610f275760405163f645eedf60e01b815260040160405180910390fd5b6002826003811115610f3b57610f3b6112c8565b03610f5c5760405163fce698f760e01b815260048101829052602401610646565b6003826003811115610f7057610f706112c8565b036104ca576040516335e2f38360e21b815260048101829052602401610646565b60605f610f9d83610fce565b6040805160208082528183019092529192505f91906020820181803683375050509182525060208101929092525090565b5f60ff8216601f81111561033557604051632cd44ac360e21b815260040160405180910390fd5b5f81518084528060208401602086015e5f602082860101526020601f19601f83011685010191505092915050565b602081525f6110356020830184610ff5565b9392505050565b80356001600160a01b0381168114611052575f5ffd5b919050565b5f5f60408385031215611068575f5ffd5b6110718361103c565b946020939093013593505050565b5f5f5f60608486031215611091575f5ffd5b61109a8461103c565b92506110a86020850161103c565b929592945050506040919091013590565b5f602082840312156110c9575f5ffd5b5035919050565b6001600160a01b0391909116815260200190565b5f602082840312156110f4575f5ffd5b6110358261103c565b60ff60f81b8816815260e060208201525f61111b60e0830189610ff5565b828103604084015261112d8189610ff5565b606084018890526001600160a01b038716608085015260a0840186905283810360c0850152845180825260208087019350909101905f5b81811015611182578351835260209384019390920191600101611164565b50909b9a5050505050505050505050565b5f5f5f5f5f5f5f60e0888a0312156111a9575f5ffd5b6111b28861103c565b96506111c06020890161103c565b95506040880135945060608801359350608088013560ff811681146111e3575f5ffd5b9699959850939692959460a0840135945060c09093013592915050565b5f5f60408385031215611211575f5ffd5b61121a8361103c565b91506112286020840161103c565b90509250929050565b600181811c9082168061124557607f821691505b60208210810361126357634e487b7160e01b5f52602260045260245ffd5b50919050565b5f60208284031215611279575f5ffd5b81518015158114611035575f5ffd5b6001600160a01b039390931683526020830191909152604082015260600190565b8082018082111561033557634e487b7160e01b5f52601160045260245ffd5b634e487b7160e01b5f52602160045260245ffdfea264697066735822122015608f0b611154b25e7dabe5c0f725fc4b55658f8ca857295ca9c67f3904a81b64736f6c634300081e0033","linkReferences":{}},"methodIdentifiers":{"DOMAIN_SEPARATOR()":"3644e515","allowance(address,address)":"dd62ed3e","approve(address,uint256)":"095ea7b3","balanceOf(address)":"70a08231","balancerPoolToken()":"6813986c","burn(uint256)":"42966c68","burnFrom(address,uint256)":"79cc6790","decimals()":"313ce567","eip712Domain()":"84b0196e","mint(uint256)":"a0712d68","name()":"06fdde03","nonces(address)":"7ecebe00","permit(address,address,uint256,uint256,uint8,bytes32,bytes32)":"d505accf","symbol()":"95d89b41","totalSupply()":"18160ddd","transfer(address,uint256)":"a9059cbb","transferFrom(address,address,uint256)":"23b872dd","vault()":"fbfa77cf"},"id":351}