{"abi":[{"type":"function","name":"acceptOwnership","inputs":[],"outputs":[{"name":"","type":"bool","internalType":"bool"}],"stateMutability":"nonpayable"},{"type":"function","name":"owner","inputs":[],"outputs":[{"name":"","type":"address","internalType":"address"}],"stateMutability":"view"},{"type":"function","name":"proposedOwner","inputs":[],"outputs":[{"name":"","type":"address","internalType":"address"}],"stateMutability":"view"},{"type":"function","name":"renounceOwnership","inputs":[],"outputs":[{"name":"","type":"bool","internalType":"bool"}],"stateMutability":"nonpayable"},{"type":"function","name":"transferOwnership","inputs":[{"name":"proposedOwner_","type":"address","internalType":"address"}],"outputs":[{"name":"","type":"bool","internalType":"bool"}],"stateMutability":"nonpayable"},{"type":"event","name":"OwnershipTransferred","inputs":[{"name":"prevOwner","type":"address","indexed":true,"internalType":"address"},{"name":"newOwner","type":"address","indexed":true,"internalType":"address"}],"anonymous":false},{"type":"event","name":"TransferProposed","inputs":[{"name":"proposedOwner","type":"address","indexed":true,"internalType":"address"}],"anonymous":false},{"type":"error","name":"NotOwner","inputs":[{"name":"caller","type":"address","internalType":"address"}]},{"type":"error","name":"NotProposed","inputs":[{"name":"caller","type":"address","internalType":"address"}]}],"bytecode":{"object":"0x6080604052348015600e575f5ffd5b50610b7e8061001c5f395ff3fe608060405234801561000f575f5ffd5b5060043610610055575f3560e01c8063715018a61461005957806379ba5097146100775780638da5cb5b14610095578063d153b60c146100b3578063f2fde38b146100d1575b5f5ffd5b610061610101565b60405161006e919061092d565b60405180910390f35b61007f6101a8565b60405161008c919061092d565b60405180910390f35b61009d610250565b6040516100aa9190610985565b60405180910390f35b6100bb610280565b6040516100c89190610985565b60405180910390f35b6100eb60048036038101906100e691906109cc565b6102b1565b6040516100f8919061092d565b60405180910390f35b5f61010a61035b565b5f015f9054906101000a900473ffffffffffffffffffffffffffffffffffffffff1673ffffffffffffffffffffffffffffffffffffffff163373ffffffffffffffffffffffffffffffffffffffff161461019b57336040517f245aecd30000000000000000000000000000000000000000000000000000000081526004016101929190610985565b60405180910390fd5b6101a3610462565b905090565b5f6101b161035b565b6001015f9054906101000a900473ffffffffffffffffffffffffffffffffffffffff1673ffffffffffffffffffffffffffffffffffffffff163373ffffffffffffffffffffffffffffffffffffffff161461024357336040517f29c8915000000000000000000000000000000000000000000000000000000000815260040161023a9190610985565b60405180910390fd5b61024b6105d4565b905090565b5f61025961035b565b5f015f9054906101000a900473ffffffffffffffffffffffffffffffffffffffff16905090565b5f61028961035b565b6001015f9054906101000a900473ffffffffffffffffffffffffffffffffffffffff16905090565b5f6102ba61035b565b5f015f9054906101000a900473ffffffffffffffffffffffffffffffffffffffff1673ffffffffffffffffffffffffffffffffffffffff163373ffffffffffffffffffffffffffffffffffffffff161461034b57336040517f245aecd30000000000000000000000000000000000000000000000000000000081526004016103429190610985565b60405180910390fd5b61035482610794565b9050919050565b5f61045d7fa6e1d6ed000000000000000000000000000000000000000000000000000000007bffffffffffffffffffffffffffffffffffffffffffffffffffffffff1916600160405180604001604052600b8152806020017f4f776e61626c655265706f0000000000000000000000000000000000000000008152506040516020016103e79190610a67565b6040516020818303038152906040528051906020012060405160200161040d9190610a9f565b604051602081830303815290604052805190602001205f1c61042f9190610aee565b5f1b604051602001610442929190610b21565b6040516020818303038152906040528051906020012061090a565b905090565b5f5f73ffffffffffffffffffffffffffffffffffffffff1661048261035b565b6001015f9054906101000a900473ffffffffffffffffffffffffffffffffffffffff1673ffffffffffffffffffffffffffffffffffffffff16146104fd575f6040517f29c891500000000000000000000000000000000000000000000000000000000081526004016104f49190610985565b60405180910390fd5b5f61050661035b565b5f015f9054906101000a900473ffffffffffffffffffffffffffffffffffffffff1690505f61053361035b565b5f015f6101000a81548173ffffffffffffffffffffffffffffffffffffffff021916908373ffffffffffffffffffffffffffffffffffffffff1602179055505f73ffffffffffffffffffffffffffffffffffffffff168173ffffffffffffffffffffffffffffffffffffffff167f8be0079c531659141344cd1fd0a4f28419497f9722a3daafe3b4186f6b6457e060405160405180910390a3600191505090565b5f5f73ffffffffffffffffffffffffffffffffffffffff163373ffffffffffffffffffffffffffffffffffffffff160361064557336040517f29c8915000000000000000000000000000000000000000000000000000000000815260040161063c9190610985565b60405180910390fd5b5f61064e61035b565b5f015f9054906101000a900473ffffffffffffffffffffffffffffffffffffffff1690505f61067b61035b565b6001015f9054906101000a900473ffffffffffffffffffffffffffffffffffffffff169050806106a961035b565b5f015f6101000a81548173ffffffffffffffffffffffffffffffffffffffff021916908373ffffffffffffffffffffffffffffffffffffffff1602179055505f6106f161035b565b6001015f6101000a81548173ffffffffffffffffffffffffffffffffffffffff021916908373ffffffffffffffffffffffffffffffffffffffff1602179055508073ffffffffffffffffffffffffffffffffffffffff168273ffffffffffffffffffffffffffffffffffffffff167f8be0079c531659141344cd1fd0a4f28419497f9722a3daafe3b4186f6b6457e060405160405180910390a360019250505090565b5f5f73ffffffffffffffffffffffffffffffffffffffff163373ffffffffffffffffffffffffffffffffffffffff160361080557336040517f245aecd30000000000000000000000000000000000000000000000000000000081526004016107fc9190610985565b60405180910390fd5b5f73ffffffffffffffffffffffffffffffffffffffff168273ffffffffffffffffffffffffffffffffffffffff160361087557816040517f29c8915000000000000000000000000000000000000000000000000000000000815260040161086c9190610985565b60405180910390fd5b8161087e61035b565b6001015f6101000a81548173ffffffffffffffffffffffffffffffffffffffff021916908373ffffffffffffffffffffffffffffffffffffffff1602179055508173ffffffffffffffffffffffffffffffffffffffff167f89970d0a4e7f4f6b57845e46822475f332aee691dbe32017e50f857f8c98951e60405160405180910390a260019050919050565b5f819050919050565b5f8115159050919050565b61092781610913565b82525050565b5f6020820190506109405f83018461091e565b92915050565b5f73ffffffffffffffffffffffffffffffffffffffff82169050919050565b5f61096f82610946565b9050919050565b61097f81610965565b82525050565b5f6020820190506109985f830184610976565b92915050565b5f5ffd5b6109ab81610965565b81146109b5575f5ffd5b50565b5f813590506109c6816109a2565b92915050565b5f602082840312156109e1576109e061099e565b5b5f6109ee848285016109b8565b91505092915050565b5f81519050919050565b5f82825260208201905092915050565b8281835e5f83830152505050565b5f601f19601f8301169050919050565b5f610a39826109f7565b610a438185610a01565b9350610a53818560208601610a11565b610a5c81610a1f565b840191505092915050565b5f6020820190508181035f830152610a7f8184610a2f565b905092915050565b5f819050919050565b610a9981610a87565b82525050565b5f602082019050610ab25f830184610a90565b92915050565b5f819050919050565b7f4e487b71000000000000000000000000000000000000000000000000000000005f52601160045260245ffd5b5f610af882610ab8565b9150610b0383610ab8565b9250828203905081811115610b1b57610b1a610ac1565b5b92915050565b5f604082019050610b345f830185610a90565b610b416020830184610a90565b939250505056fea26469706673582212206ed9ca70f92c3bafd1364607e9bba8f52fc37e41e79d3f09280bb74a7e54321c64736f6c634300081c0033","linkReferences":{}},"methodIdentifiers":{"acceptOwnership()":"79ba5097","owner()":"8da5cb5b","proposedOwner()":"d153b60c","renounceOwnership()":"715018a6","transferOwnership(address)":"f2fde38b"},"id":17}