{"abi":[{"type":"function","name":"facetFuncs","inputs":[],"outputs":[{"name":"funcs","type":"bytes4[]","internalType":"bytes4[]"}],"stateMutability":"pure"},{"type":"function","name":"facetInterfaces","inputs":[],"outputs":[{"name":"interfaces","type":"bytes4[]","internalType":"bytes4[]"}],"stateMutability":"pure"},{"type":"function","name":"facetMetadata","inputs":[],"outputs":[{"name":"name_","type":"string","internalType":"string"},{"name":"interfaces","type":"bytes4[]","internalType":"bytes4[]"},{"name":"functions","type":"bytes4[]","internalType":"bytes4[]"}],"stateMutability":"pure"},{"type":"function","name":"facetName","inputs":[],"outputs":[{"name":"name","type":"string","internalType":"string"}],"stateMutability":"pure"},{"type":"function","name":"initialize","inputs":[{"name":"pool","type":"address","internalType":"address"},{"name":"to","type":"address","internalType":"address"},{"name":"tokens","type":"address[]","internalType":"contract IERC20[]"},{"name":"exactAmountsIn","type":"uint256[]","internalType":"uint256[]"},{"name":"minBptAmountOut","type":"uint256","internalType":"uint256"},{"name":"userData","type":"bytes","internalType":"bytes"}],"outputs":[{"name":"bptAmountOut","type":"uint256","internalType":"uint256"}],"stateMutability":"nonpayable"},{"type":"function","name":"registerPool","inputs":[{"name":"pool","type":"address","internalType":"address"},{"name":"tokenConfig","type":"tuple[]","internalType":"struct TokenConfig[]","components":[{"name":"token","type":"address","internalType":"contract IERC20"},{"name":"tokenType","type":"uint8","internalType":"enum TokenType"},{"name":"rateProvider","type":"address","internalType":"contract IRateProvider"},{"name":"paysYieldFees","type":"bool","internalType":"bool"}]},{"name":"swapFeePercentage","type":"uint256","internalType":"uint256"},{"name":"pauseWindowEndTime","type":"uint32","internalType":"uint32"},{"name":"protocolFeeExempt","type":"bool","internalType":"bool"},{"name":"roleAccounts","type":"tuple","internalType":"struct PoolRoleAccounts","components":[{"name":"pauseManager","type":"address","internalType":"address"},{"name":"swapFeeManager","type":"address","internalType":"address"},{"name":"poolCreator","type":"address","internalType":"address"}]},{"name":"poolHooksContract","type":"address","internalType":"address"},{"name":"liquidityManagement","type":"tuple","internalType":"struct LiquidityManagement","components":[{"name":"disableUnbalancedLiquidity","type":"bool","internalType":"bool"},{"name":"enableAddLiquidityCustom","type":"bool","internalType":"bool"},{"name":"enableRemoveLiquidityCustom","type":"bool","internalType":"bool"},{"name":"enableDonation","type":"bool","internalType":"bool"}]}],"outputs":[],"stateMutability":"nonpayable"},{"type":"event","name":"AggregateSwapFeePercentageChanged","inputs":[{"name":"pool","type":"address","indexed":true,"internalType":"address"},{"name":"aggregateSwapFeePercentage","type":"uint256","indexed":false,"internalType":"uint256"}],"anonymous":false},{"type":"event","name":"AggregateYieldFeePercentageChanged","inputs":[{"name":"pool","type":"address","indexed":true,"internalType":"address"},{"name":"aggregateYieldFeePercentage","type":"uint256","indexed":false,"internalType":"uint256"}],"anonymous":false},{"type":"event","name":"AuthorizerChanged","inputs":[{"name":"newAuthorizer","type":"address","indexed":true,"internalType":"contract IAuthorizer"}],"anonymous":false},{"type":"event","name":"BufferSharesBurned","inputs":[{"name":"wrappedToken","type":"address","indexed":true,"internalType":"contract IERC4626"},{"name":"from","type":"address","indexed":true,"internalType":"address"},{"name":"burnedShares","type":"uint256","indexed":false,"internalType":"uint256"}],"anonymous":false},{"type":"event","name":"BufferSharesMinted","inputs":[{"name":"wrappedToken","type":"address","indexed":true,"internalType":"contract IERC4626"},{"name":"to","type":"address","indexed":true,"internalType":"address"},{"name":"issuedShares","type":"uint256","indexed":false,"internalType":"uint256"}],"anonymous":false},{"type":"event","name":"LiquidityAdded","inputs":[{"name":"pool","type":"address","indexed":true,"internalType":"address"},{"name":"liquidityProvider","type":"address","indexed":true,"internalType":"address"},{"name":"kind","type":"uint8","indexed":true,"internalType":"enum AddLiquidityKind"},{"name":"totalSupply","type":"uint256","indexed":false,"internalType":"uint256"},{"name":"amountsAddedRaw","type":"uint256[]","indexed":false,"internalType":"uint256[]"},{"name":"swapFeeAmountsRaw","type":"uint256[]","indexed":false,"internalType":"uint256[]"}],"anonymous":false},{"type":"event","name":"LiquidityAddedToBuffer","inputs":[{"name":"wrappedToken","type":"address","indexed":true,"internalType":"contract IERC4626"},{"name":"amountUnderlying","type":"uint256","indexed":false,"internalType":"uint256"},{"name":"amountWrapped","type":"uint256","indexed":false,"internalType":"uint256"},{"name":"bufferBalances","type":"bytes32","indexed":false,"internalType":"bytes32"}],"anonymous":false},{"type":"event","name":"LiquidityRemoved","inputs":[{"name":"pool","type":"address","indexed":true,"internalType":"address"},{"name":"liquidityProvider","type":"address","indexed":true,"internalType":"address"},{"name":"kind","type":"uint8","indexed":true,"internalType":"enum RemoveLiquidityKind"},{"name":"totalSupply","type":"uint256","indexed":false,"internalType":"uint256"},{"name":"amountsRemovedRaw","type":"uint256[]","indexed":false,"internalType":"uint256[]"},{"name":"swapFeeAmountsRaw","type":"uint256[]","indexed":false,"internalType":"uint256[]"}],"anonymous":false},{"type":"event","name":"LiquidityRemovedFromBuffer","inputs":[{"name":"wrappedToken","type":"address","indexed":true,"internalType":"contract IERC4626"},{"name":"amountUnderlying","type":"uint256","indexed":false,"internalType":"uint256"},{"name":"amountWrapped","type":"uint256","indexed":false,"internalType":"uint256"},{"name":"bufferBalances","type":"bytes32","indexed":false,"internalType":"bytes32"}],"anonymous":false},{"type":"event","name":"PoolInitialized","inputs":[{"name":"pool","type":"address","indexed":true,"internalType":"address"}],"anonymous":false},{"type":"event","name":"PoolPausedStateChanged","inputs":[{"name":"pool","type":"address","indexed":true,"internalType":"address"},{"name":"paused","type":"bool","indexed":false,"internalType":"bool"}],"anonymous":false},{"type":"event","name":"PoolRecoveryModeStateChanged","inputs":[{"name":"pool","type":"address","indexed":true,"internalType":"address"},{"name":"recoveryMode","type":"bool","indexed":false,"internalType":"bool"}],"anonymous":false},{"type":"event","name":"PoolRegistered","inputs":[{"name":"pool","type":"address","indexed":true,"internalType":"address"},{"name":"factory","type":"address","indexed":true,"internalType":"address"},{"name":"tokenConfig","type":"tuple[]","indexed":false,"internalType":"struct TokenConfig[]","components":[{"name":"token","type":"address","internalType":"contract IERC20"},{"name":"tokenType","type":"uint8","internalType":"enum TokenType"},{"name":"rateProvider","type":"address","internalType":"contract IRateProvider"},{"name":"paysYieldFees","type":"bool","internalType":"bool"}]},{"name":"swapFeePercentage","type":"uint256","indexed":false,"internalType":"uint256"},{"name":"pauseWindowEndTime","type":"uint32","indexed":false,"internalType":"uint32"},{"name":"roleAccounts","type":"tuple","indexed":false,"internalType":"struct PoolRoleAccounts","components":[{"name":"pauseManager","type":"address","internalType":"address"},{"name":"swapFeeManager","type":"address","internalType":"address"},{"name":"poolCreator","type":"address","internalType":"address"}]},{"name":"hooksConfig","type":"tuple","indexed":false,"internalType":"struct HooksConfig","components":[{"name":"enableHookAdjustedAmounts","type":"bool","internalType":"bool"},{"name":"shouldCallBeforeInitialize","type":"bool","internalType":"bool"},{"name":"shouldCallAfterInitialize","type":"bool","internalType":"bool"},{"name":"shouldCallComputeDynamicSwapFee","type":"bool","internalType":"bool"},{"name":"shouldCallBeforeSwap","type":"bool","internalType":"bool"},{"name":"shouldCallAfterSwap","type":"bool","internalType":"bool"},{"name":"shouldCallBeforeAddLiquidity","type":"bool","internalType":"bool"},{"name":"shouldCallAfterAddLiquidity","type":"bool","internalType":"bool"},{"name":"shouldCallBeforeRemoveLiquidity","type":"bool","internalType":"bool"},{"name":"shouldCallAfterRemoveLiquidity","type":"bool","internalType":"bool"},{"name":"hooksContract","type":"address","internalType":"address"}]},{"name":"liquidityManagement","type":"tuple","indexed":false,"internalType":"struct LiquidityManagement","components":[{"name":"disableUnbalancedLiquidity","type":"bool","internalType":"bool"},{"name":"enableAddLiquidityCustom","type":"bool","internalType":"bool"},{"name":"enableRemoveLiquidityCustom","type":"bool","internalType":"bool"},{"name":"enableDonation","type":"bool","internalType":"bool"}]}],"anonymous":false},{"type":"event","name":"ProtocolFeeControllerChanged","inputs":[{"name":"newProtocolFeeController","type":"address","indexed":true,"internalType":"contract IProtocolFeeController"}],"anonymous":false},{"type":"event","name":"Swap","inputs":[{"name":"pool","type":"address","indexed":true,"internalType":"address"},{"name":"tokenIn","type":"address","indexed":true,"internalType":"contract IERC20"},{"name":"tokenOut","type":"address","indexed":true,"internalType":"contract IERC20"},{"name":"amountIn","type":"uint256","indexed":false,"internalType":"uint256"},{"name":"amountOut","type":"uint256","indexed":false,"internalType":"uint256"},{"name":"swapFeePercentage","type":"uint256","indexed":false,"internalType":"uint256"},{"name":"swapFeeAmount","type":"uint256","indexed":false,"internalType":"uint256"}],"anonymous":false},{"type":"event","name":"SwapFeePercentageChanged","inputs":[{"name":"pool","type":"address","indexed":true,"internalType":"address"},{"name":"swapFeePercentage","type":"uint256","indexed":false,"internalType":"uint256"}],"anonymous":false},{"type":"event","name":"Transfer","inputs":[{"name":"pool","type":"address","indexed":true,"internalType":"address"},{"name":"from","type":"address","indexed":true,"internalType":"address"},{"name":"to","type":"address","indexed":true,"internalType":"address"},{"name":"value","type":"uint256","indexed":false,"internalType":"uint256"}],"anonymous":false},{"type":"event","name":"Unwrap","inputs":[{"name":"wrappedToken","type":"address","indexed":true,"internalType":"contract IERC4626"},{"name":"burnedShares","type":"uint256","indexed":false,"internalType":"uint256"},{"name":"withdrawnUnderlying","type":"uint256","indexed":false,"internalType":"uint256"},{"name":"bufferBalances","type":"bytes32","indexed":false,"internalType":"bytes32"}],"anonymous":false},{"type":"event","name":"VaultAuxiliary","inputs":[{"name":"pool","type":"address","indexed":true,"internalType":"address"},{"name":"eventKey","type":"bytes32","indexed":true,"internalType":"bytes32"},{"name":"eventData","type":"bytes","indexed":false,"internalType":"bytes"}],"anonymous":false},{"type":"event","name":"VaultBuffersPausedStateChanged","inputs":[{"name":"paused","type":"bool","indexed":false,"internalType":"bool"}],"anonymous":false},{"type":"event","name":"VaultPausedStateChanged","inputs":[{"name":"paused","type":"bool","indexed":false,"internalType":"bool"}],"anonymous":false},{"type":"event","name":"VaultQueriesDisabled","inputs":[],"anonymous":false},{"type":"event","name":"VaultQueriesEnabled","inputs":[],"anonymous":false},{"type":"event","name":"Wrap","inputs":[{"name":"wrappedToken","type":"address","indexed":true,"internalType":"contract IERC4626"},{"name":"depositedUnderlying","type":"uint256","indexed":false,"internalType":"uint256"},{"name":"mintedShares","type":"uint256","indexed":false,"internalType":"uint256"},{"name":"bufferBalances","type":"bytes32","indexed":false,"internalType":"bytes32"}],"anonymous":false},{"type":"error","name":"AfterAddLiquidityHookFailed","inputs":[]},{"type":"error","name":"AfterInitializeHookFailed","inputs":[]},{"type":"error","name":"AfterRemoveLiquidityHookFailed","inputs":[]},{"type":"error","name":"AfterSwapHookFailed","inputs":[]},{"type":"error","name":"AmountGivenZero","inputs":[]},{"type":"error","name":"AmountInAboveMax","inputs":[{"name":"tokenIn","type":"address","internalType":"contract IERC20"},{"name":"amountIn","type":"uint256","internalType":"uint256"},{"name":"maxAmountIn","type":"uint256","internalType":"uint256"}]},{"type":"error","name":"AmountOutBelowMin","inputs":[{"name":"tokenOut","type":"address","internalType":"contract IERC20"},{"name":"amountOut","type":"uint256","internalType":"uint256"},{"name":"minAmountOut","type":"uint256","internalType":"uint256"}]},{"type":"error","name":"BalanceNotSettled","inputs":[]},{"type":"error","name":"BalanceOverflow","inputs":[]},{"type":"error","name":"BeforeAddLiquidityHookFailed","inputs":[]},{"type":"error","name":"BeforeInitializeHookFailed","inputs":[]},{"type":"error","name":"BeforeRemoveLiquidityHookFailed","inputs":[]},{"type":"error","name":"BeforeSwapHookFailed","inputs":[]},{"type":"error","name":"BptAmountInAboveMax","inputs":[{"name":"amountIn","type":"uint256","internalType":"uint256"},{"name":"maxAmountIn","type":"uint256","internalType":"uint256"}]},{"type":"error","name":"BptAmountOutBelowMin","inputs":[{"name":"amountOut","type":"uint256","internalType":"uint256"},{"name":"minAmountOut","type":"uint256","internalType":"uint256"}]},{"type":"error","name":"BufferAlreadyInitialized","inputs":[{"name":"wrappedToken","type":"address","internalType":"contract IERC4626"}]},{"type":"error","name":"BufferNotInitialized","inputs":[{"name":"wrappedToken","type":"address","internalType":"contract IERC4626"}]},{"type":"error","name":"BufferSharesInvalidOwner","inputs":[]},{"type":"error","name":"BufferSharesInvalidReceiver","inputs":[]},{"type":"error","name":"BufferTotalSupplyTooLow","inputs":[{"name":"totalSupply","type":"uint256","internalType":"uint256"}]},{"type":"error","name":"CannotReceiveEth","inputs":[]},{"type":"error","name":"CannotSwapSameToken","inputs":[]},{"type":"error","name":"CodecOverflow","inputs":[]},{"type":"error","name":"DoesNotSupportAddLiquidityCustom","inputs":[]},{"type":"error","name":"DoesNotSupportDonation","inputs":[]},{"type":"error","name":"DoesNotSupportRemoveLiquidityCustom","inputs":[]},{"type":"error","name":"DoesNotSupportUnbalancedLiquidity","inputs":[]},{"type":"error","name":"DynamicSwapFeeHookFailed","inputs":[]},{"type":"error","name":"ERC20InvalidReceiver","inputs":[{"name":"receiver","type":"address","internalType":"address"}]},{"type":"error","name":"FeePrecisionTooHigh","inputs":[]},{"type":"error","name":"HookAdjustedAmountInAboveMax","inputs":[{"name":"tokenIn","type":"address","internalType":"contract IERC20"},{"name":"amountIn","type":"uint256","internalType":"uint256"},{"name":"maxAmountIn","type":"uint256","internalType":"uint256"}]},{"type":"error","name":"HookAdjustedAmountOutBelowMin","inputs":[{"name":"tokenOut","type":"address","internalType":"contract IERC20"},{"name":"amountOut","type":"uint256","internalType":"uint256"},{"name":"minAmountOut","type":"uint256","internalType":"uint256"}]},{"type":"error","name":"HookAdjustedSwapLimit","inputs":[{"name":"amount","type":"uint256","internalType":"uint256"},{"name":"limit","type":"uint256","internalType":"uint256"}]},{"type":"error","name":"HookRegistrationFailed","inputs":[{"name":"poolHooksContract","type":"address","internalType":"address"},{"name":"pool","type":"address","internalType":"address"},{"name":"poolFactory","type":"address","internalType":"address"}]},{"type":"error","name":"InputLengthMismatch","inputs":[]},{"type":"error","name":"InvalidAddLiquidityKind","inputs":[]},{"type":"error","name":"InvalidRemoveLiquidityKind","inputs":[]},{"type":"error","name":"InvalidToken","inputs":[]},{"type":"error","name":"InvalidTokenConfiguration","inputs":[]},{"type":"error","name":"InvalidTokenDecimals","inputs":[]},{"type":"error","name":"InvalidTokenType","inputs":[]},{"type":"error","name":"InvalidUnderlyingToken","inputs":[{"name":"wrappedToken","type":"address","internalType":"contract IERC4626"}]},{"type":"error","name":"IssuedSharesBelowMin","inputs":[{"name":"issuedShares","type":"uint256","internalType":"uint256"},{"name":"minIssuedShares","type":"uint256","internalType":"uint256"}]},{"type":"error","name":"MaxTokens","inputs":[]},{"type":"error","name":"MinTokens","inputs":[]},{"type":"error","name":"NotEnoughBufferShares","inputs":[]},{"type":"error","name":"NotEnoughUnderlying","inputs":[{"name":"wrappedToken","type":"address","internalType":"contract IERC4626"},{"name":"expectedUnderlyingAmount","type":"uint256","internalType":"uint256"},{"name":"actualUnderlyingAmount","type":"uint256","internalType":"uint256"}]},{"type":"error","name":"NotEnoughWrapped","inputs":[{"name":"wrappedToken","type":"address","internalType":"contract IERC4626"},{"name":"expectedWrappedAmount","type":"uint256","internalType":"uint256"},{"name":"actualWrappedAmount","type":"uint256","internalType":"uint256"}]},{"type":"error","name":"NotVaultDelegateCall","inputs":[]},{"type":"error","name":"OutOfBounds","inputs":[]},{"type":"error","name":"PauseBufferPeriodDurationTooLarge","inputs":[]},{"type":"error","name":"PercentageAboveMax","inputs":[]},{"type":"error","name":"PoolAlreadyInitialized","inputs":[{"name":"pool","type":"address","internalType":"address"}]},{"type":"error","name":"PoolAlreadyRegistered","inputs":[{"name":"pool","type":"address","internalType":"address"}]},{"type":"error","name":"PoolInRecoveryMode","inputs":[{"name":"pool","type":"address","internalType":"address"}]},{"type":"error","name":"PoolNotInRecoveryMode","inputs":[{"name":"pool","type":"address","internalType":"address"}]},{"type":"error","name":"PoolNotInitialized","inputs":[{"name":"pool","type":"address","internalType":"address"}]},{"type":"error","name":"PoolNotPaused","inputs":[{"name":"pool","type":"address","internalType":"address"}]},{"type":"error","name":"PoolNotRegistered","inputs":[{"name":"pool","type":"address","internalType":"address"}]},{"type":"error","name":"PoolPauseWindowExpired","inputs":[{"name":"pool","type":"address","internalType":"address"}]},{"type":"error","name":"PoolPaused","inputs":[{"name":"pool","type":"address","internalType":"address"}]},{"type":"error","name":"PoolTotalSupplyTooLow","inputs":[{"name":"totalSupply","type":"uint256","internalType":"uint256"}]},{"type":"error","name":"ProtocolFeesExceedTotalCollected","inputs":[]},{"type":"error","name":"QueriesDisabled","inputs":[]},{"type":"error","name":"QueriesDisabledPermanently","inputs":[]},{"type":"error","name":"QuoteResultSpoofed","inputs":[]},{"type":"error","name":"ReentrancyGuardReentrantCall","inputs":[]},{"type":"error","name":"RouterNotTrusted","inputs":[]},{"type":"error","name":"SenderIsNotVault","inputs":[{"name":"sender","type":"address","internalType":"address"}]},{"type":"error","name":"SwapFeePercentageTooHigh","inputs":[]},{"type":"error","name":"SwapFeePercentageTooLow","inputs":[]},{"type":"error","name":"SwapLimit","inputs":[{"name":"amount","type":"uint256","internalType":"uint256"},{"name":"limit","type":"uint256","internalType":"uint256"}]},{"type":"error","name":"TokenAlreadyRegistered","inputs":[{"name":"token","type":"address","internalType":"contract IERC20"}]},{"type":"error","name":"TokenNotRegistered","inputs":[{"name":"token","type":"address","internalType":"contract IERC20"}]},{"type":"error","name":"TokensMismatch","inputs":[{"name":"pool","type":"address","internalType":"address"},{"name":"expectedToken","type":"address","internalType":"address"},{"name":"actualToken","type":"address","internalType":"address"}]},{"type":"error","name":"TokensNotSorted","inputs":[]},{"type":"error","name":"TradeAmountTooSmall","inputs":[]},{"type":"error","name":"VaultBuffersArePaused","inputs":[]},{"type":"error","name":"VaultIsNotUnlocked","inputs":[]},{"type":"error","name":"VaultNotPaused","inputs":[]},{"type":"error","name":"VaultPauseWindowDurationTooLarge","inputs":[]},{"type":"error","name":"VaultPauseWindowExpired","inputs":[]},{"type":"error","name":"VaultPaused","inputs":[]},{"type":"error","name":"WrapAmountTooSmall","inputs":[{"name":"wrappedToken","type":"address","internalType":"contract IERC4626"}]},{"type":"error","name":"WrongProtocolFeeControllerDeployment","inputs":[]},{"type":"error","name":"WrongUnderlyingToken","inputs":[{"name":"wrappedToken","type":"address","internalType":"contract IERC4626"},{"name":"underlyingToken","type":"address","internalType":"address"}]},{"type":"error","name":"WrongVaultAdminDeployment","inputs":[]},{"type":"error","name":"WrongVaultExtensionDeployment","inputs":[]}],"bytecode":{"object":"0x6080604052348015600e575f5ffd5b5061387a8061001c5f395ff3fe608060405234801561000f575f5ffd5b5060043610610060575f3560e01c80632ea8082614610064578063574a4cff146100825780635b6f4d011461008a578063ba8a2be01461009f578063eeec802f146100c0578063f10d7a75146100d5575b5f5ffd5b61006c6100ec565b6040516100799190612bf5565b60405180910390f35b61006c610144565b6100926101b5565b6040516100799190612c35565b6100b26100ad366004612de2565b6101e5565b604051908152602001610079565b6100d36100ce366004612f45565b610341565b005b6100dd6103cd565b604051610079939291906130a7565b604080516001808252818301909252606091602080830190803683370190505090506302a95e6b60e51b815f81518110610128576101286130e9565b6001600160e01b03199092166020928302919091019091015290565b604080516002808252606080830184529260208301908036833701905050905063eeec802f60e01b815f8151811061017e5761017e6130e9565b6001600160e01b03199092166020928302919091019091015280516305d4515f60e51b9082906001908110610128576101286130e9565b60408051808201909152601681527515985d5b1d149959da5cdd1c985d1a5bdb919858d95d60521b602082015290565b5f6101ee6103f5565b866101f88161043a565b610200610465565b610209886104ac565b5f6102158960016104bd565b9050610223815f0151610557565b1561024c578860405163218e374760e01b815260040161024391906130fd565b60405180910390fd5b602081015151865161025f908290610578565b5f61027d8360c001518460a001518a61059c9092919063ffffffff16565b905061028b835f015161068e565b156102ef575f61029a8c6106ea565b90506102a7828883610718565b6102d66102b26107ac565b6001600160a01b038e165f90815260089190910160205260409020859060016107d5565b60c084015160a08501516102eb918b9161059c565b9150505b6102fe8b8b858c8c868d610865565b945061030c835f0151610ba0565b1561032b575f61031b8c6106ea565b905061032982878984610bc5565b505b505050610336610c5c565b509695505050505050565b610349610c73565b610351610465565b6103bb886040518060e001604052808a81526020018981526020018863ffffffff1681526020018715158152602001868036038101906103919190613111565b81526001600160a01b03861660208201526040016103b436869003860186613182565b9052610c99565b6103c3610c5c565b5050505050505050565b60608060606103da6101b5565b92506103e46100ec565b91506103ee610144565b9050909192565b7f1369d017453f080f2416efe5ae39c8a4b4655ea0634227aaab0afdb9a9f93f005c15155f036104385760405163604dd39b60e11b815260040160405180910390fd5b565b61044381611381565b61046257806040516327946f5760e21b815260040161024391906130fd565b50565b5f5160206138255f395f51905f525c1561049257604051633ee5aeb560e01b815260040160405180910390fd5b61043860015f5160206138255f395f51905f525b90611393565b6104b4610c73565b6104628161139a565b6104fc6040518060e001604052805f81526020016060815260200160608152602001606081526020016060815260200160608152602001606081525090565b5f6105056107ac565b6001600160a01b0385165f90815260088201602090815260408083206003850183528184205460078601845282852060068701909452919093209394506105509386939290886113c3565b5092915050565b5f6105726105668260016131fd565b839060ff161c60011690565b92915050565b8082146105985760405163aaad13f760e01b815260040160405180910390fd5b5050565b60605f845190506105b0818551855161177f565b5f816001600160401b038111156105c9576105c9612c66565b6040519080825280602002602001820160405280156105f2578160200160208202803683370190505b5090505f5b828110156106845761065f868281518110610614576106146130e9565b602002602001015186838151811061062e5761062e6130e9565b6020026020010151898481518110610648576106486130e9565b60200260200101516117ac9092919063ffffffff16565b828281518110610671576106716130e9565b60209081029190910101526001016105f7565b5095945050505050565b5f61057261069d8260016131fd565b6106a89060016131fd565b6106b39060016131fd565b6106be9060016131fd565b6106c99060016131fd565b6106d49060016131fd565b6106df9060016131fd565b6105669060016131fd565b5f6105726106f66107ac565b6001600160a01b038085165f9081526005929092016020526040909120541690565b60405163038293c560e31b81526001600160a01b03821690631c149e28906107469086908690600401613246565b6020604051808303815f875af1158015610762573d5f5f3e3d5ffd5b505050506040513d601f19601f82011682018060405250810190610786919061327e565b15155f036107a757604051636061292560e01b815260040160405180910390fd5b505050565b7f867cc37b1d81c6898e0381d9834d1320e6a009ceb8f1f455820783856710c6b590565b905090565b6020830151515f805b8281101561085d5761080c866040015182815181106107ff576107ff6130e9565b60200260200101516117c9565b8660a001518281518110610822576108226130e9565b602002602001018181525050845f8281526020019081526020015f20549150610855868261084f85611898565b876118a4565b6001016107de565b505050505050565b5f5f61086f6107ac565b6001600160a01b038a165f90815260088201602090815260408220908a01515192935091905b818110156109bc575f8a6020015182815181106108b4576108b46130e9565b602002602001015190508982815181106108d0576108d06130e9565b60200260200101516001600160a01b0316816001600160a01b031614610946578c8a8381518110610903576109036130e9565b60209081029190910101516040516001621d9e5f60e01b031981526001600160a01b03928316600482015290821660248201529082166044820152606401610243565b610969818a848151811061095c5761095c6130e9565b6020026020010151611961565b6109a589838151811061097e5761097e6130e9565b6020026020010151898481518110610998576109986130e9565b6020026020010151611973565b5f8381526020869052604090205550600101610895565b5088516109ca9060016119be565b808a526001600160a01b038c165f81815260038601602052604090819020929092559051631309bd3d60e31b815263984de9e890610a0f9089906001906004016132c9565b602060405180830381865afa158015610a2a573d5f5f3e3d5ffd5b505050506040513d601f19601f82011682018060405250810190610a4e91906132f3565b9350620f4240841015610a77576040516334e3483f60e21b815260048101859052602401610243565b610a84620f42408561330a565b9350610a8f8b6119e0565b610a9a8b8b866119ea565b84841015610ac557604051638d261d5d60e01b81526004810185905260248101869052604401610243565b60018a6001600160a01b03168c6001600160a01b03167fa26a52d8d53702bba7f137907b8e1f99ff87f6d450144270ca25e72481cca871610b058f6119fd565b8b866001600160401b03811115610b1e57610b1e612c66565b604051908082528060200260200182016040528015610b47578160200160208202803683370190505b50604051610b579392919061331d565b60405180910390a46040516001600160a01b038c16907fcad8c9d32507393b6508ca4a888b81979919b477510585bde8488f153072d6f3905f90a2505050979650505050505050565b5f610572610baf8260016131fd565b610bba9060016131fd565b61069d9060016131fd565b6040516338be241d60e01b81526001600160a01b038216906338be241d90610bf590879087908790600401613347565b6020604051808303815f875af1158015610c11573d5f5f3e3d5ffd5b505050506040513d601f19601f82011682018060405250810190610c35919061327e565b15155f03610c5657604051630791ede360e11b815260040160405180910390fd5b50505050565b6104385f5f5160206138255f395f51905f526104a6565b610c7b611a28565b15610438576040516336a7e2cd60e21b815260040160405180910390fd5b5f610ca26107ac565b9050610cad83611381565b15610ccd57826040516301b6ee3960e71b815260040161024391906130fd565b8151516002811015610cf257604051635ed4ba8f60e01b815260040160405180910390fd5b6008811115610d1457604051630e0f7beb60e31b815260040160405180910390fd5b5f816001600160401b03811115610d2d57610d2d612c66565b604051908082528060200260200182016040528015610d56578160200160208202803683370190505b5090505f80805b84811015610f84575f875f01518281518110610d7b57610d7b6130e9565b602090810291909101015180519091506001600160a01b0381161580610db25750896001600160a01b0316816001600160a01b0316145b15610dd05760405163c1ab6dc160e01b815260040160405180910390fd5b846001600160a01b0316816001600160a01b03161015610e0357604051636e8f194760e01b815260040160405180910390fd5b846001600160a01b0316816001600160a01b031603610e3757806040516327a5b1a760e11b815260040161024391906130fd565b5f604051806060016040528084602001516001811115610e5957610e59613299565b81526040808601516001600160a01b0390811660208085019190915260608801511515938301939093528e81165f90815260078e018452828120918716815292529020815181549293508392829060ff191660018381811115610ebe57610ebe613299565b021790555060208281015182546040948501511515600160a81b0260ff60a81b196001600160a01b039384166101000216610100600160b01b03199092169190911717909255908d165f90815260088c018252828120878252909152908120819055610f2983611a51565b9050610f36600586613371565b610f41826012613388565b60ff16901b8617955082888681518110610f5d57610f5d6130e9565b6001600160a01b039290921660209283029190910190910152509094505050600101610d5d565b506001600160a01b0387165f90815260068601602090815260409091208451610faf92860190612b32565b5060808601516001600160a01b038089165f908152600488016020908152604091829020845181549085166001600160a01b0319918216178255918501516001820180549186169184169190911790559190930151600290910180549183169190931617909155600d8601541680156110a15760608701516040516377ff76e760e01b81526001600160a01b038a811660048301525f60248301529115156044820152908216906377ff76e79060640160408051808303815f875af115801561107a573d5f5f3e3d5ffd5b505050506040513d601f19601f8201168201806040525081019061109e91906133a1565b50505b5f6110ad816001611b0a565b90506110b98184611b17565b90506110d2886040015182611c1890919063ffffffff16565b60c0890151519091506110e6908290611d24565b90506111038860c001516020015182611d5590919063ffffffff16565b90506111208860c001516040015182611d7090919063ffffffff16565b905061113d8860c001516060015182611d8b90919063ffffffff16565b60a08901519091506001600160a01b0316156112de5760a08801516001600160a01b038a81165f90815260058a01602052604080822080546001600160a01b0319169385169384179055805163d77153a760e01b8152905191929163d77153a791600480820192610140929091908290030181865afa1580156111c2573d5f5f3e3d5ffd5b505050506040513d601f19601f820116820180604052508101906111e691906133c3565b80519091506111f6908490611da6565b925061120f816020015184611dcc90919063ffffffff16565b9250611228816040015184611ddc90919063ffffffff16565b9250611241816060015184611df790919063ffffffff16565b925061125a816080015184611e1290919063ffffffff16565b92506112738160a0015184611e2d90919063ffffffff16565b925061128c8160c0015184611e4890919063ffffffff16565b92506112a58160e0015184611e6390919063ffffffff16565b92506112bf81610100015184611e7e90919063ffffffff16565b92506112d981610120015184611e9990919063ffffffff16565b925050505b60208801516112ee908290611eb4565b6001600160a01b038a165f81815260038a0160209081526040918290208490558b51908c0151918c015160808d015160a08e015195965033957fbc1561eeab9f40962e2fb827a7ff9c7cdb47a9d7c84caeefa4ed90e043842dad94929190611357908990611fc6565b8f60c0015160405161136e96959493929190613567565b60405180910390a3505050505050505050565b5f61057261138e836120df565b61210a565b80825d5050565b6113a381612114565b15610462578060405163d971f59760e01b815260040161024391906130fd565b815484875260408051602080840282018101909252828152908490839083018282801561141757602002820191905f5260205f20905b81546001600160a01b031681526001909101906020018083116113f9575b50505050508760200181905250806001600160401b0381111561143c5761143c612c66565b60405190808252806020026020018201604052801561148557816020015b604080516060810182525f80825260208083018290529282015282525f1990920191018161145a5790505b506040880152806001600160401b038111156114a3576114a3612c66565b6040519080825280602002602001820160405280156114cc578160200160208202803683370190505b506060880152806001600160401b038111156114ea576114ea612c66565b604051908082528060200260200182016040528015611513578160200160208202803683370190505b50608088015286516115259082612127565b60c0880152806001600160401b0381111561154257611542612c66565b60405190808252806020026020018201604052801561156b578160200160208202803683370190505b5060a088015286515f9061157e90610557565b801561159457505f611592895f01516121e0565b115b80156115a8575087516115a6906122dd565b155b90505f5b82811015611774575f865f8b6020015184815181106115cd576115cd6130e9565b6020908102919091018101516001600160a01b0316825281019190915260409081015f208151606081019092528054829060ff16600181111561161257611612613299565b600181111561162357611623613299565b8152905461010081046001600160a01b0316602080840191909152600160a81b90910460ff1615156040928301525f858152908c905281902054908c0151805192935090918391908590811061167b5761167b6130e9565b602002602001018190525061168f826117c9565b8b60a0015184815181106116a5576116a56130e9565b6020026020010181815250506116c58b846116bf84611898565b896118a4565b8315155f036116d557505061176c565b5f826040015180156116f957506001835160018111156116f7576116f7613299565b145b90508015611768575f61170e8d5f01516121e0565b90505f8d606001518681518110611727576117276130e9565b602002602001015190505f6117478f6117408760801c90565b89866122ec565b90508015611764576117648f8861175e848661330a565b8d6118a4565b5050505b5050505b6001016115ac565b505050505050505050565b818314158061178e5750808214155b156107a75760405163aaad13f760e01b815260040160405180910390fd5b5f6117c1826117bb8587613371565b90612381565b949350505050565b80515f90818160018111156117e0576117e0613299565b036117f557670de0b6b3a76400009150611892565b600181600181111561180957611809613299565b036118795782602001516001600160a01b031663679aefce6040518163ffffffff1660e01b8152600401602060405180830381865afa15801561184e573d5f5f3e3d5ffd5b505050506040513d601f19601f8201168201806040525081019061187291906132f3565b9150611892565b604051636fa2831960e11b815260040160405180910390fd5b50919050565b6001600160801b031690565b81846060015184815181106118bb576118bb6130e9565b6020908102919091010152612b955f8260018111156118dc576118dc613299565b146118e9576117ac6118ed565b6123a15b9050611938838660c001518681518110611909576119096130e9565b60200260200101518760a001518781518110611927576119276130e9565b60200260200101518463ffffffff16565b8560800151858151811061194e5761194e6130e9565b6020026020010181815250505050505050565b6105988261196e836123b6565b6123c0565b5f6001600160801b0383118061198f57506001600160801b0382115b156119ad576040516389560ca160e01b815260040160405180910390fd5b6119b78383612434565b9392505050565b5f6119b7826119ce8360016131fd565b60ff1690811b600190911b1985161790565b610462815f620f42405b6107a76119f5612443565b848484612467565b5f610572611a09612443565b836001600160a01b03165f908152600291909101602052604090205490565b5f611a3161259d565b63ffffffff1642111580156107d057506107d0611a4c6125bd565b6125d0565b60408051600481526024810182526020810180516001600160e01b031663313ce56760e01b17905290515f91829182916001600160a01b03861691611a969190613677565b5f60405180830381855afa9150503d805f8114611ace576040519150601f19603f3d011682016040523d82523d5f602084013e611ad3565b606091505b5091509150818015611ae757506020815110155b15611b0057808060200190518101906117c1919061368d565b5060129392505050565b5f600119831682176119b7565b5f6119b764ffffffffff831660188080611b328660016131fd565b611b3d9060016131fd565b611b489060016131fd565b611b539060016131fd565b611b5e9060016131fd565b611b699060016131fd565b611b749060016131fd565b611b7f9060016131fd565b611b8a9060016131fd565b611b959060016131fd565b611ba09060016131fd565b611bab9060016131fd565b611bb69060016131fd565b611bc19060016131fd565b611bcc9060016131fd565b611bd79060016131fd565b611be29060016131fd565b611bed9060016131fd565b60ff16611bfa91906136ad565b611c0491906136ad565b611c0e91906136ad565b85919060286125e8565b5f6119b763ffffffff8316602860188080611c348760016131fd565b611c3f9060016131fd565b611c4a9060016131fd565b611c559060016131fd565b611c609060016131fd565b611c6b9060016131fd565b611c769060016131fd565b611c819060016131fd565b611c8c9060016131fd565b611c979060016131fd565b611ca29060016131fd565b611cad9060016131fd565b611cb89060016131fd565b611cc39060016131fd565b611cce9060016131fd565b611cd99060016131fd565b611ce49060016131fd565b611cef9060016131fd565b60ff16611cfc91906136ad565b611d0691906136ad565b611d1091906136ad565b611d1a91906136ad565b85919060206125e8565b5f6119b782611d348360016131fd565b611d3f9060016131fd565b611d4a9060016131fd565b6119ce9060016131fd565b5f6119b782611d658360016131fd565b611d349060016131fd565b5f6119b782611d808360016131fd565b611d659060016131fd565b5f6119b782611d9b8360016131fd565b611d809060016131fd565b5f6119b782611db68360016131fd565b611dc19060016131fd565b611d9b9060016131fd565b5f6119b782611dc18360016131fd565b5f6119b782611dec8360016131fd565b611db69060016131fd565b5f6119b782611e078360016131fd565b611dec9060016131fd565b5f6119b782611e228360016131fd565b611e079060016131fd565b5f6119b782611e3d8360016131fd565b611e229060016131fd565b5f6119b782611e588360016131fd565b611e3d9060016131fd565b5f6119b782611e738360016131fd565b611e589060016131fd565b5f6119b782611e8e8360016131fd565b611e739060016131fd565b5f6119b782611ea98360016131fd565b611e8e9060016131fd565b5f670de0b5cad2bef000821115611ede576040516301d1b96560e61b815260040160405180910390fd5b611eed64174876e800836136c0565b91506119b782611efe5f60016131fd565b611f099060016131fd565b611f149060016131fd565b611f1f9060016131fd565b611f2a9060016131fd565b611f359060016131fd565b611f409060016131fd565b611f4b9060016131fd565b611f569060016131fd565b611f619060016131fd565b611f6c9060016131fd565b611f779060016131fd565b611f829060016131fd565b611f8d9060016131fd565b611f989060016131fd565b611fa39060016131fd565b611fae9060016131fd565b611fb99060016131fd565b85919060ff1660186125e8565b60408051610160810182525f80825260208201819052918101829052606081018290526080810182905260a0810182905260c0810182905260e081018290526101008101829052610120810182905261014081019190915260405180610160016040528061203385612609565b151581526020016120438561068e565b1515815260200161205385610ba0565b1515815260200161206385612618565b1515815260200161207385612632565b151581526020016120838561264c565b1515815260200161209385612666565b151581526020016120a385612680565b151581526020016120b38561269a565b151581526020016120c3856126b4565b15158152602001836001600160a01b0316815250905092915050565b5f6105726120eb6107ac565b836001600160a01b03165f908152600391909101602052604090205490565b5f60018216610572565b5f5f61211f836126ce565b509392505050565b60605f826001600160401b0381111561214257612142612c66565b60405190808252806020026020018201604052801561216b578160200160208202803683370190505b5090505f61217885612723565b64ffffffffff1690505f5b848110156121d6575f6121a361219a600584613371565b84906005612817565b90506121b081600a6137c2565b8483815181106121c2576121c26130e9565b602090810291909101015250600101612183565b5090949350505050565b5f64174876e8006122d36018806121f88560016131fd565b6122039060016131fd565b61220e9060016131fd565b6122199060016131fd565b6122249060016131fd565b61222f9060016131fd565b61223a9060016131fd565b6122459060016131fd565b6122509060016131fd565b61225b9060016131fd565b6122669060016131fd565b6122719060016131fd565b61227c9060016131fd565b6122879060016131fd565b6122929060016131fd565b61229d9060016131fd565b6122a89060016131fd565b6122b39060016131fd565b60ff166122c091906136ad565b6122ca91906136ad565b84906018612817565b6105729190613371565b5f6105726106d48260016131fd565b5f5f85608001518481518110612304576123046130e9565b6020026020010151905084811115612378575f61232386830385612825565b90506123748760c00151868151811061233e5761233e6130e9565b60200260200101518860a00151878151811061235c5761235c6130e9565b6020026020010151836128519092919063ffffffff16565b9250505b50949350505050565b5f8061238d8385613371565b90506117c1670de0b6b3a7640000826136c0565b5f6117c1826123b08587613371565b90612825565b5f61057282612865565b805f036123cb575050565b5f6123de836123d861287e565b906128a2565b90505f6123eb83836137cd565b9050805f03612409576124046123ff6128b5565b6128d9565b612420565b815f036124205761242061241b6128b5565b6128ef565b610c56848261242d61287e565b91906128fe565b5f6119b783608084901b6136ad565b7fee3617e7dec9b55ea0e350adee8432cb30b3be6aa699fe3c87313b503dbc6c1f90565b6001600160a01b038216612490578160405163ec442f0560e01b815260040161024391906130fd565b6001600160a01b0383165f9081526002850160205260408120546124b59083906136ad565b6001600160a01b038086165f9081526020888152604080832093881683529290522080548401905590506124e881612916565b6001600160a01b038481165f818152600288016020908152604080832086905551868152938716939192917fd1398bee19313d6bf672ccb116e51f4a1a947e91c757907f51fbb5b5e56c698f910160405180910390a46040516323de665160e01b81525f60048201526001600160a01b038481166024830152604482018490528516906323de6651906064015f604051808303815f87803b15801561258b575f5ffd5b505af1158015611774573d5f5f3e3d5ffd5b5f6107d06125a96107ac565b60020154600160201b900463ffffffff1690565b5f6107d06125c96107ac565b600a015490565b5f6105726125df8260016136ad565b83901c60011690565b5f6125f484848461293d565b506001901b5f1901811b1992909216911b1790565b5f610572610bba8260016131fd565b5f6105726126278260016131fd565b610baf9060016131fd565b5f6105726126418260016131fd565b6126279060016131fd565b5f61057261265b8260016131fd565b6126419060016131fd565b5f6105726126758260016131fd565b61265b9060016131fd565b5f61057261268f8260016131fd565b6126759060016131fd565b5f6105726126a98260016131fd565b61268f9060016131fd565b5f6105726126c38260016131fd565b6126a99060016131fd565b5f5f5f6126da846120df565b90505f6126e6826129c3565b90505f6126f2836129d2565b90508180156127185750612704612ad6565b61270e90826137f4565b63ffffffff164211155b969095509350505050565b5f610572601880806127368560016131fd565b6127419060016131fd565b61274c9060016131fd565b6127579060016131fd565b6127629060016131fd565b61276d9060016131fd565b6127789060016131fd565b6127839060016131fd565b61278e9060016131fd565b6127999060016131fd565b6127a49060016131fd565b6127af9060016131fd565b6127ba9060016131fd565b6127c59060016131fd565b6127d09060016131fd565b6127db9060016131fd565b6127e69060016131fd565b6127f19060016131fd565b60ff166127fe91906136ad565b61280891906136ad565b61281291906136ad565b839060285b6001901b5f190191901c1690565b5f806128318385613371565b90506001670de0b6b3a76400006001830304018115150291505092915050565b5f6117c1846128608486613371565b612af6565b5f5f8212612871575090565b612879612b16565b919050565b7ff74f46243717369ff9f20877dfc1ba8491e6be48bfe7acc5b65f5ac68f585c0090565b5f8181526020839052604081205c6119b7565b7fbcbf50c510014a975eac30806436734486f167c41af035c1645353d475d5710090565b6104626128e86001835c61330a565b8290611393565b6104626128e8825c60016136ad565b5f8281526020849052604090206107a79082906104a6565b620f4240811015610462576040516334e3483f60e21b815260048101829052602401610243565b610100821061295f57604051632d0483c560e21b815260040160405180910390fd5b60018110158015612985575061298160ff61297c8461010061330a565b612b23565b8111155b6129a257604051632d0483c560e21b815260040160405180910390fd5b82811c156107a75760405163e4337c0560e01b815260040160405180910390fd5b5f6105726106df8260016131fd565b5f6105726028601880806129e78660016131fd565b6129f29060016131fd565b6129fd9060016131fd565b612a089060016131fd565b612a139060016131fd565b612a1e9060016131fd565b612a299060016131fd565b612a349060016131fd565b612a3f9060016131fd565b612a4a9060016131fd565b612a559060016131fd565b612a609060016131fd565b612a6b9060016131fd565b612a769060016131fd565b612a819060016131fd565b612a8c9060016131fd565b612a979060016131fd565b612aa29060016131fd565b60ff16612aaf91906136ad565b612ab991906136ad565b612ac391906136ad565b612acd91906136ad565b83906020612817565b5f6107d0612ae26107ac565b60020154600160401b900463ffffffff1690565b5f80612b0a670de0b6b3a764000085613371565b90506117c183826136c0565b6335278d125f526004601cfd5b5f8183118284180283186119b7565b828054828255905f5260205f20908101928215612b85579160200282015b82811115612b8557825182546001600160a01b0319166001600160a01b03909116178255602090920191600190910190612b50565b50612b91929150612b9d565b5090565b610438613810565b5b80821115612b91575f8155600101612b9e565b5f8151808452602084019350602083015f5b82811015612beb5781516001600160e01b031916865260209586019590910190600101612bc3565b5093949350505050565b602081525f6119b76020830184612bb1565b5f81518084528060208401602086015e5f602082860101526020601f19601f83011685010191505092915050565b602081525f6119b76020830184612c07565b6001600160a01b0381168114610462575f5ffd5b803561287981612c47565b634e487b7160e01b5f52604160045260245ffd5b604051608081016001600160401b0381118282101715612c9c57612c9c612c66565b60405290565b60405161014081016001600160401b0381118282101715612c9c57612c9c612c66565b604051601f8201601f191681016001600160401b0381118282101715612ced57612ced612c66565b604052919050565b5f6001600160401b03821115612d0d57612d0d612c66565b5060051b60200190565b5f82601f830112612d26575f5ffd5b8135612d39612d3482612cf5565b612cc5565b8082825260208201915060208360051b860101925085831115612d5a575f5ffd5b602085015b83811015610684578035835260209283019201612d5f565b5f82601f830112612d86575f5ffd5b81356001600160401b03811115612d9f57612d9f612c66565b612db2601f8201601f1916602001612cc5565b818152846020838601011115612dc6575f5ffd5b816020850160208301375f918101602001919091529392505050565b5f5f5f5f5f5f60c08789031215612df7575f5ffd5b8635612e0281612c47565b95506020870135612e1281612c47565b945060408701356001600160401b03811115612e2c575f5ffd5b8701601f81018913612e3c575f5ffd5b8035612e4a612d3482612cf5565b8082825260208201915060208360051b85010192508b831115612e6b575f5ffd5b6020840193505b82841015612e96578335612e8581612c47565b825260209384019390910190612e72565b965050505060608701356001600160401b03811115612eb3575f5ffd5b612ebf89828a01612d17565b9350506080870135915060a08701356001600160401b03811115612ee1575f5ffd5b612eed89828a01612d77565b9150509295509295509295565b8015158114610462575f5ffd5b803561287981612efa565b803563ffffffff81168114612879575f5ffd5b5f60608284031215611892575f5ffd5b5f60808284031215611892575f5ffd5b5f5f5f5f5f5f5f5f6101a0898b031215612f5d575f5ffd5b8835612f6881612c47565b975060208901356001600160401b03811115612f82575f5ffd5b8901601f81018b13612f92575f5ffd5b8035612fa0612d3482612cf5565b8082825260208201915060208360071b85010192508d831115612fc1575f5ffd5b6020840193505b82841015613044576080848f031215612fdf575f5ffd5b612fe7612c7a565b8435612ff281612c47565b8152602085013560028110613005575f5ffd5b6020820152604085013561301881612c47565b6040820152606085013561302b81612efa565b6060820152825260809390930192602090910190612fc8565b99505050506040890135955061305c60608a01612f12565b945061306a60808a01612f07565b93506130798a60a08b01612f25565b92506130886101008a01612c5b565b91506130988a6101208b01612f35565b90509295985092959890939650565b606081525f6130b96060830186612c07565b82810360208401526130cb8186612bb1565b905082810360408401526130df8185612bb1565b9695505050505050565b634e487b7160e01b5f52603260045260245ffd5b6001600160a01b0391909116815260200190565b5f6060828403128015613122575f5ffd5b50604051606081016001600160401b038111828210171561314557613145612c66565b604052823561315381612c47565b8152602083013561316381612c47565b6020820152604083013561317681612c47565b60408201529392505050565b5f6080828403128015613193575f5ffd5b5061319c612c7a565b82356131a781612efa565b815260208301356131b781612efa565b602082015260408301356131ca81612efa565b604082015260608301356131dd81612efa565b60608201529392505050565b634e487b7160e01b5f52601160045260245ffd5b60ff8181168382160190811115610572576105726131e9565b5f8151808452602084019350602083015f5b82811015612beb578151865260209586019590910190600101613228565b604081525f6132586040830185613216565b828103602084015261326a8185612c07565b95945050505050565b805161287981612efa565b5f6020828403121561328e575f5ffd5b81516119b781612efa565b634e487b7160e01b5f52602160045260245ffd5b6002811061046257634e487b7160e01b5f52602160045260245ffd5b604081525f6132db6040830185613216565b90506132e6836132ad565b8260208301529392505050565b5f60208284031215613303575f5ffd5b5051919050565b81810381811115610572576105726131e9565b838152606060208201525f6133356060830185613216565b82810360408401526130df8185613216565b606081525f6133596060830186613216565b84602084015282810360408401526130df8185612c07565b8082028115828204841417610572576105726131e9565b60ff8281168282160390811115610572576105726131e9565b5f5f604083850312156133b2575f5ffd5b505080516020909101519092909150565b5f6101408284031280156133d5575f5ffd5b506133de612ca2565b6133e783613273565b81526133f560208401613273565b602082015261340660408401613273565b604082015261341760608401613273565b606082015261342860808401613273565b608082015261343960a08401613273565b60a082015261344a60c08401613273565b60c082015261345b60e08401613273565b60e082015261346d6101008401613273565b6101008201526134806101208401613273565b6101208201529392505050565b80511515825260208101516134a6602084018215159052565b5060408101516134ba604084018215159052565b5060608101516134ce606084018215159052565b5060808101516134e2608084018215159052565b5060a08101516134f660a084018215159052565b5060c081015161350a60c084018215159052565b5060e081015161351e60e084018215159052565b5061010081015161353461010084018215159052565b5061012081015161354a61012084018215159052565b506101408101516107a76101408401826001600160a01b03169052565b6102a080825287519082018190525f9060208901906102c0840190835b818110156135e757835180516001600160a01b0316845260208101516135a9816132ad565b6020858101919091526040828101516001600160a01b0316908601526060918201511515918501919091529390930192608090920191600101613584565b50506020840189905263ffffffff8816604085015291506136059050565b84516001600160a01b03908116606084015260208601518116608084015260408601511660a083015261363b60c083018561348d565b82511515610220830152602083015115156102408301526040830151151561026083015260608301511515610280830152979650505050505050565b5f82518060208501845e5f920191825250919050565b5f6020828403121561369d575f5ffd5b815160ff811681146119b7575f5ffd5b80820180821115610572576105726131e9565b5f826136da57634e487b7160e01b5f52601260045260245ffd5b500490565b6001815b600184111561371a578085048111156136fe576136fe6131e9565b600184161561370c57908102905b60019390931c9280026136e3565b935093915050565b5f8261373057506001610572565b8161373c57505f610572565b8160018114613752576002811461375c57613778565b6001915050610572565b60ff84111561376d5761376d6131e9565b50506001821b610572565b5060208310610133831016604e8410600b841016171561379b575081810a610572565b6137a75f1984846136df565b805f19048211156137ba576137ba6131e9565b029392505050565b5f6119b78383613722565b8082018281125f8312801582168215821617156137ec576137ec6131e9565b505092915050565b63ffffffff8181168382160190811115610572576105726131e9565b634e487b7160e01b5f52605160045260245ffdfe9b779b17422d0df92223018b32b4d1fa46e071723d6817e2486d003becc55f00a264697066735822122099ceda4450d045f43a26d69ad549f5d9c8bb4dfb23f78627314a6cf8cfa96d8c64736f6c634300081e0033","linkReferences":{}},"methodIdentifiers":{"facetFuncs()":"574a4cff","facetInterfaces()":"2ea80826","facetMetadata()":"f10d7a75","facetName()":"5b6f4d01","initialize(address,address,address[],uint256[],uint256,bytes)":"ba8a2be0","registerPool(address,(address,uint8,address,bool)[],uint256,uint32,bool,(address,address,address),address,(bool,bool,bool,bool))":"eeec802f"},"id":995}