{"abi":[{"type":"constructor","inputs":[{"name":"initialOwner","type":"address","internalType":"address"}],"stateMutability":"nonpayable"},{"type":"function","name":"isOperator","inputs":[{"name":"query","type":"address","internalType":"address"}],"outputs":[{"name":"","type":"bool","internalType":"bool"}],"stateMutability":"view"},{"type":"function","name":"isOperatorFor","inputs":[{"name":"func","type":"bytes4","internalType":"bytes4"},{"name":"query","type":"address","internalType":"address"}],"outputs":[{"name":"","type":"bool","internalType":"bool"}],"stateMutability":"view"},{"type":"function","name":"lastCalledValue","inputs":[],"outputs":[{"name":"","type":"uint256","internalType":"uint256"}],"stateMutability":"view"},{"type":"function","name":"publicFunction","inputs":[{"name":"value","type":"uint256","internalType":"uint256"}],"outputs":[{"name":"","type":"uint256","internalType":"uint256"}],"stateMutability":"nonpayable"},{"type":"function","name":"restrictedByOnlyOperator","inputs":[{"name":"value","type":"uint256","internalType":"uint256"}],"outputs":[{"name":"","type":"uint256","internalType":"uint256"}],"stateMutability":"nonpayable"},{"type":"function","name":"restrictedByOnlyOperatorSelector","inputs":[],"outputs":[{"name":"","type":"bytes4","internalType":"bytes4"}],"stateMutability":"pure"},{"type":"function","name":"restrictedByOnlyOwnerOrOperator","inputs":[{"name":"value","type":"uint256","internalType":"uint256"}],"outputs":[{"name":"","type":"uint256","internalType":"uint256"}],"stateMutability":"nonpayable"},{"type":"function","name":"setOperator","inputs":[{"name":"operator","type":"address","internalType":"address"},{"name":"status","type":"bool","internalType":"bool"}],"outputs":[{"name":"","type":"bool","internalType":"bool"}],"stateMutability":"nonpayable"},{"type":"function","name":"setOperatorFor","inputs":[{"name":"func","type":"bytes4","internalType":"bytes4"},{"name":"newOperator","type":"address","internalType":"address"},{"name":"approval","type":"bool","internalType":"bool"}],"outputs":[{"name":"","type":"bool","internalType":"bool"}],"stateMutability":"nonpayable"},{"type":"event","name":"NewFunctionOperatorStatus","inputs":[{"name":"operator","type":"address","indexed":false,"internalType":"address"},{"name":"func","type":"bytes4","indexed":false,"internalType":"bytes4"},{"name":"status","type":"bool","indexed":false,"internalType":"bool"}],"anonymous":false},{"type":"event","name":"NewGlobalOperatorStatus","inputs":[{"name":"operator","type":"address","indexed":false,"internalType":"address"},{"name":"status","type":"bool","indexed":false,"internalType":"bool"}],"anonymous":false},{"type":"error","name":"NotOperator","inputs":[{"name":"caller","type":"address","internalType":"address"}]},{"type":"error","name":"NotOwner","inputs":[{"name":"caller","type":"address","internalType":"address"}]}],"bytecode":{"object":"0x6080604052348015600e575f5ffd5b506040516106f83803806106f8833981016040819052602b916083565b60368162015180603b565b5060ae565b607f7f552e522d4f9b6a3d443b47299f900b7b1bce2dacca532b0186b605495413451d80546001600160a01b0319166001600160a01b038516178155600201829055565b5050565b5f602082840312156092575f5ffd5b81516001600160a01b038116811460a7575f5ffd5b9392505050565b61063d806100bb5f395ff3fe608060405234801561000f575f5ffd5b5060043610610081575f3560e01c80632c101e4514610085578063304877d11461009f5780633446083d146100c2578063558a7297146100d55780636409e72a146100f85780636d70f7ae14610100578063755dbe7c14610113578063e456293814610126578063ea562a2514610139575b5f5ffd5b604051633446083d60e01b81526020015b60405180910390f35b6100b46100ad3660046104ee565b5f81905590565b604051908152602001610096565b6100b46100d03660046104ee565b61014c565b6100e86100e336600461052a565b610161565b6040519015158152602001610096565b6100b45f5481565b6100e861010e36600461055b565b61017d565b6100e861012136600461058b565b61018d565b6100b46101343660046104ee565b6101ab565b6100e86101473660046105cb565b6101b4565b5f6101556101c6565b505f819055805b919050565b5f61016a6101d8565b61017483836101e8565b50600192915050565b5f610187826101fe565b92915050565b5f6101966101d8565b6101a1848484610210565b5060019392505050565b5f610155610228565b5f6101bf8383610238565b9392505050565b6101d66101d161024b565b6102a6565b565b6101d66101e36102fc565b610320565b6101fa6101f361024b565b838361034c565b5050565b5f61018761020a61024b565b836103b5565b61022361021b61024b565b8484846103d3565b505050565b6101d661023361024b565b61045e565b5f6101bf61024461024b565b848461049c565b5f6102a1604051602001610288906020808252601590820152746372616e652e6163636573732e6f70657261626c6560581b604082015260600190565b6040516020818303038152906040528051906020012090565b905090565b6102b081336103b5565b1580156102d057506102ce815f356001600160e01b0319163361049c565b155b156102f95733604051633b63649d60e11b81526004016102f091906105f3565b60405180910390fd5b50565b7f552e522d4f9b6a3d443b47299f900b7b1bce2dacca532b0186b605495413451d90565b80546001600160a01b031633146102f9573360405163245aecd360e01b81526004016102f091906105f3565b6103546101d8565b6001600160a01b0382165f8181526020858152604091829020805460ff19168515159081179091558251938452908301527f26ba28058a3c072a70c8fd315037fe9b3957237cef5c61a9652a8da41c673daa910160405180910390a1505050565b6001600160a01b03165f908152602091909152604090205460ff1690565b6103db6101d8565b6001600160e01b031983165f81815260018601602090815260408083206001600160a01b03871680855290835292819020805486151560ff1990911681179091558151938452918301939093528183015290517ff071216dc06459e77b915d1883909d92f41239172000b60261dfdc03518895699181900360600190a150505050565b336104676104d5565b6001600160a01b03161415801561048357506102b081336103b5565b80156102d057506102ce815f356001600160e01b031916335b6001600160e01b031982165f90815260018401602090815260408083206001600160a01b038516845290915290205460ff169392505050565b5f6102a16104e16102fc565b546001600160a01b031690565b5f602082840312156104fe575f5ffd5b5035919050565b80356001600160a01b038116811461015c575f5ffd5b8035801515811461015c575f5ffd5b5f5f6040838503121561053b575f5ffd5b61054483610505565b91506105526020840161051b565b90509250929050565b5f6020828403121561056b575f5ffd5b6101bf82610505565b80356001600160e01b03198116811461015c575f5ffd5b5f5f5f6060848603121561059d575f5ffd5b6105a684610574565b92506105b460208501610505565b91506105c26040850161051b565b90509250925092565b5f5f604083850312156105dc575f5ffd5b6105e583610574565b915061055260208401610505565b6001600160a01b039190911681526020019056fea2646970667358221220a235830839b38933e68d1eb88419aed688f6f5e52831043d12ae6e67c0d2160564736f6c634300081e0033","linkReferences":{}},"methodIdentifiers":{"isOperator(address)":"6d70f7ae","isOperatorFor(bytes4,address)":"ea562a25","lastCalledValue()":"6409e72a","publicFunction(uint256)":"304877d1","restrictedByOnlyOperator(uint256)":"3446083d","restrictedByOnlyOperatorSelector()":"2c101e45","restrictedByOnlyOwnerOrOperator(uint256)":"e4562938","setOperator(address,bool)":"558a7297","setOperatorFor(bytes4,address,bool)":"755dbe7c"},"id":18}