{"abi":[{"type":"constructor","inputs":[{"name":"_ownable","type":"address","internalType":"contract IMultiStepOwnable"}],"stateMutability":"nonpayable"},{"type":"function","name":"acceptOwnershipTransfer","inputs":[],"outputs":[],"stateMutability":"nonpayable"},{"type":"function","name":"actors","inputs":[{"name":"","type":"uint256","internalType":"uint256"}],"outputs":[{"name":"","type":"address","internalType":"address"}],"stateMutability":"view"},{"type":"function","name":"attacker_acceptOwnershipTransfer","inputs":[{"name":"actorSeed","type":"uint256","internalType":"uint256"}],"outputs":[],"stateMutability":"nonpayable"},{"type":"function","name":"attacker_cancelPendingOwnershipTransfer","inputs":[{"name":"actorSeed","type":"uint256","internalType":"uint256"}],"outputs":[],"stateMutability":"nonpayable"},{"type":"function","name":"attacker_confirmOwnershipTransfer","inputs":[{"name":"actorSeed","type":"uint256","internalType":"uint256"},{"name":"newOwner","type":"address","internalType":"address"}],"outputs":[],"stateMutability":"nonpayable"},{"type":"function","name":"attacker_initiateOwnershipTransfer","inputs":[{"name":"actorSeed","type":"uint256","internalType":"uint256"},{"name":"newOwner","type":"address","internalType":"address"}],"outputs":[],"stateMutability":"nonpayable"},{"type":"function","name":"cancelPendingOwnershipTransfer","inputs":[],"outputs":[],"stateMutability":"nonpayable"},{"type":"function","name":"confirmOwnershipTransfer","inputs":[{"name":"newOwner","type":"address","internalType":"address"}],"outputs":[],"stateMutability":"nonpayable"},{"type":"function","name":"currentActor","inputs":[],"outputs":[{"name":"","type":"address","internalType":"address"}],"stateMutability":"view"},{"type":"function","name":"ghostBuffer","inputs":[],"outputs":[{"name":"","type":"uint256","internalType":"uint256"}],"stateMutability":"view"},{"type":"function","name":"ghostCurrentOwner","inputs":[],"outputs":[{"name":"","type":"address","internalType":"address"}],"stateMutability":"view"},{"type":"function","name":"initiateOwnershipTransfer","inputs":[{"name":"newOwner","type":"address","internalType":"address"}],"outputs":[],"stateMutability":"nonpayable"},{"type":"function","name":"ownable","inputs":[],"outputs":[{"name":"","type":"address","internalType":"contract IMultiStepOwnable"}],"stateMutability":"view"},{"type":"function","name":"selectors","inputs":[],"outputs":[{"name":"selectors_","type":"bytes4[]","internalType":"bytes4[]"}],"stateMutability":"pure"},{"type":"function","name":"wrongGuy_acceptOwnershipTransfer","inputs":[{"name":"actorSeed","type":"uint256","internalType":"uint256"}],"outputs":[],"stateMutability":"nonpayable"}],"bytecode":{"object":"0x60c060405234801561000f575f5ffd5b50604051611f69380380611f6983398101604081905261002e916104ef565b6001600160a01b038116608081905260408051638da5cb5b60e01b81529051638da5cb5b916004808201926020929091908290030181865afa158015610076573d5f5f3e3d5ffd5b505050506040513d601f19601f8201168201806040525081019061009a91906104ef565b60025f6101000a8154816001600160a01b0302191690836001600160a01b03160217905550806001600160a01b0316630f9f25306040518163ffffffff1660e01b8152600401602060405180830381865afa1580156100fb573d5f5f3e3d5ffd5b505050506040513d601f19601f8201168201806040525081019061011f9190610511565b60a0525f8054600181810183558280525f516020611f495f395f51905f5291820180546001600160a01b03199081169091558354808301855583018054821683179055835480830185558301805482166004179055835480830185558301805482163017905583549182018455910180546001600160a01b0385169216919091179055604080518082019091526005815264616c69636560d81b60208201526101dd90737109709ecfa91a80626ff3989d68f67f5b1dd12d906103cb565b81546001810183555f928352602080842090910180546001600160a01b0319166001600160a01b0393909316929092179091556040805180820190915260038152623137b160e91b9181019190915261024b90737109709ecfa91a80626ff3989d68f67f5b1dd12d906103cb565b81546001810183555f928352602080842090910180546001600160a01b0319166001600160a01b03939093169290921790915560408051808201909152600381526265766560e81b918101919091526102b990737109709ecfa91a80626ff3989d68f67f5b1dd12d906103cb565b81546001810183555f928352602080842090910180546001600160a01b0319166001600160a01b0393909316929092179091556040805180820190915260078152666d616c6c6f727960c81b9181019190915261032b90737109709ecfa91a80626ff3989d68f67f5b1dd12d906103cb565b8154600181810184555f9384526020842090910180546001600160a01b039384166001600160a01b031991821617909155835480830185558480525f516020611f495f395f51905f529081018054831661dead1790558454808401865581018054831661beef1790558454808401865581018054831661ffff17905560025485549384019095559190910180549091169290911691909117905550610582565b5f6103d683836103de565b509392505050565b5f5f826040516020016103f19190610528565b60408051808303601f190181529082905280516020909101206001625e79b760e01b031982526004820181905291506001600160a01b0385169063ffa1864990602401602060405180830381865afa15801561044f573d5f5f3e3d5ffd5b505050506040513d601f19601f8201168201806040525081019061047391906104ef565b6040516318caf8e360e31b81529092506001600160a01b0385169063c657c718906104a4908590879060040161053e565b5f604051808303815f87803b1580156104bb575f5ffd5b505af11580156104cd573d5f5f3e3d5ffd5b505050509250929050565b6001600160a01b03811681146104ec575f5ffd5b50565b5f602082840312156104ff575f5ffd5b815161050a816104d8565b9392505050565b5f60208284031215610521575f5ffd5b5051919050565b5f82518060208501845e5f920191825250919050565b60018060a01b0383168152604060208201525f82518060408401528060208501606085015e5f606082850101526060601f19601f8301168401019150509392505050565b60805160a05161195a6105ef5f395f60cc01525f81816101b7015281816102cf015281816104220152818161056d0152818161068101528181610a2501528181610ca701528181610d7001528181610e6001528181611099015281816112500152611496015261195a5ff3fe608060405234801561000f575f5ffd5b50600436106100c3575f3560e01c80630412cf82146100c75780630c7bfa4d14610101578063222022cb1461012157806328d08dcd146101365780633c21395714610149578063493336021461015c5780636e25b9781461016f578063737293e21461018457806393c0e83a1461018c578063b310313f1461019f578063b38854be146101b2578063b842e87f146101d9578063c0b6f561146101e1578063ca7719ab146101f4578063f2207d8d14610207575b5f5ffd5b6100ee7f000000000000000000000000000000000000000000000000000000000000000081565b6040519081526020015b60405180910390f35b600154610114906001600160a01b031681565b6040516100f89190611731565b61013461012f366004611745565b61021a565b005b600254610114906001600160a01b031681565b610134610157366004611770565b6104f0565b61013461016a366004611745565b6105d1565b6101776107a8565b6040516100f8919061178b565b6101346109bb565b61011461019a366004611745565b610a8b565b6101346101ad3660046117d7565b610ab2565b6101147f000000000000000000000000000000000000000000000000000000000000000081565b610134610d6d565b6101346101ef366004611770565b610eec565b610134610202366004611745565b6110d0565b6101346102153660046117d7565b611303565b805f610237825f60015f805490506102329190611819565b6114cd565b8154811061024757610247611832565b5f91825260209091200154600180546001600160a01b0319166001600160a01b0390921691821790556040516303223eab60e11b81525f5160206118e55f395f51905f52916306447d569161029f9190600401611731565b5f604051808303815f87803b1580156102b6575f5ffd5b505af11580156102c8573d5f5f3e3d5ffd5b505050505f7f00000000000000000000000000000000000000000000000000000000000000006001600160a01b031663e30c39786040518163ffffffff1660e01b8152600401602060405180830381865afa158015610329573d5f5f3e3d5ffd5b505050506040513d601f19601f8201168201806040525081019061034d9190611846565b600154604051632631f2b160e11b81526001600160a01b038084169216919091141560048201529091505f5160206118e55f395f51905f5290634c63e562906024015b5f6040518083038186803b1580156103a6575f5ffd5b505afa1580156103b8573d5f5f3e3d5ffd5b5050604051630618f58760e51b81525f5160206118e55f395f51905f52925063c31eb0e091506103f39063a7fa19b160e01b90600401611861565b5f604051808303815f87803b15801561040a575f5ffd5b505af115801561041c573d5f5f3e3d5ffd5b505050507f00000000000000000000000000000000000000000000000000000000000000006001600160a01b031663b842e87f6040518163ffffffff1660e01b81526004015f604051808303815f87803b158015610478575f5ffd5b505af115801561048a573d5f5f3e3d5ffd5b50505050505f5160206119055f395f51905f525f1c6001600160a01b03166390c5013b6040518163ffffffff1660e01b81526004015f604051808303815f87803b1580156104d6575f5ffd5b505af11580156104e8573d5f5f3e3d5ffd5b505050505050565b60025460405163ca669fa760e01b81525f5160206118e55f395f51905f529163ca669fa79161052b916001600160a01b031690600401611731565b5f604051808303815f87803b158015610542575f5ffd5b505af1158015610554573d5f5f3e3d5ffd5b5050604051633c21395760e01b81526001600160a01b037f0000000000000000000000000000000000000000000000000000000000000000169250633c21395791506105a4908490600401611731565b5f604051808303815f87803b1580156105bb575f5ffd5b505af19250505080156105cc575060015b505b50565b805f6105e9825f60015f805490506102329190611819565b815481106105f9576105f9611832565b5f91825260209091200154600180546001600160a01b0319166001600160a01b0390921691821790556040516303223eab60e11b81525f5160206118e55f395f51905f52916306447d56916106519190600401611731565b5f604051808303815f87803b158015610668575f5ffd5b505af115801561067a573d5f5f3e3d5ffd5b505050505f7f00000000000000000000000000000000000000000000000000000000000000006001600160a01b031663e30c39786040518163ffffffff1660e01b8152600401602060405180830381865afa1580156106db573d5f5f3e3d5ffd5b505050506040513d601f19601f820116820180604052508101906106ff9190611846565b604051632631f2b160e11b81526001600160a01b038216151560048201529091505f5160206118e55f395f51905f5290634c63e562906024015f6040518083038186803b15801561074e575f5ffd5b505afa158015610760573d5f5f3e3d5ffd5b5050600154604051632631f2b160e11b81526001600160a01b038581169216919091141560048201525f5160206118e55f395f51905f529250634c63e5629150602401610390565b6040805160098082526101408201909252606091602082016101208036833701905050905063c0b6f56160e01b815f815181106107e7576107e7611832565b6001600160e01b0319909216602092830291909101909101528051633c21395760e01b908290600190811061081e5761081e611832565b6001600160e01b031990921660209283029190910190910152805163b842e87f60e01b908290600290811061085557610855611832565b6001600160e01b03199092166020928302919091019091015280516339b949f160e11b908290600390811061088c5761088c611832565b6001600160e01b031990921660209283029190910190910152805163b310313f60e01b90829060049081106108c3576108c3611832565b6001600160e01b031990921660209283029190910190910152805163f2207d8d60e01b90829060059081106108fa576108fa611832565b6001600160e01b031990921660209283029190910190910152805163ca7719ab60e01b908290600690811061093157610931611832565b6001600160e01b031990921660209283029190910190910152805163222022cb60e01b908290600790811061096857610968611832565b6001600160e01b03199092166020928302919091019091015280516324999b0160e11b908290600890811061099f5761099f611832565b6001600160e01b03199092166020928302919091019091015290565b60025460405163ca669fa760e01b81525f5160206118e55f395f51905f529163ca669fa7916109f6916001600160a01b031690600401611731565b5f604051808303815f87803b158015610a0d575f5ffd5b505af1158015610a1f573d5f5f3e3d5ffd5b505050507f00000000000000000000000000000000000000000000000000000000000000006001600160a01b031663737293e26040518163ffffffff1660e01b81526004015f604051808303815f87803b158015610a7b575f5ffd5b505af19250505080156105ce5750565b5f8181548110610a99575f80fd5b5f918252602090912001546001600160a01b0316905081565b815f610aca825f60015f805490506102329190611819565b81548110610ada57610ada611832565b5f91825260209091200154600180546001600160a01b0319166001600160a01b0390921691821790556040516303223eab60e11b81525f5160206118e55f395f51905f52916306447d5691610b329190600401611731565b5f604051808303815f87803b158015610b49575f5ffd5b505af1158015610b5b573d5f5f3e3d5ffd5b5050604051632631f2b160e11b81526001600160a01b038516151560048201525f5160206118e55f395f51905f529250634c63e56291506024015f6040518083038186803b158015610bab575f5ffd5b505afa158015610bbd573d5f5f3e3d5ffd5b5050600254600154604051632631f2b160e11b81526001600160a01b0391821691909216141560048201525f5160206118e55f395f51905f529250634c63e56291506024015f6040518083038186803b158015610c18575f5ffd5b505afa158015610c2a573d5f5f3e3d5ffd5b5050604051630618f58760e51b81525f5160206118e55f395f51905f52925063c31eb0e09150610c659063245aecd360e01b90600401611861565b5f604051808303815f87803b158015610c7c575f5ffd5b505af1158015610c8e573d5f5f3e3d5ffd5b505060405163c0b6f56160e01b81526001600160a01b037f000000000000000000000000000000000000000000000000000000000000000016925063c0b6f5619150610cde908590600401611731565b5f604051808303815f87803b158015610cf5575f5ffd5b505af1158015610d07573d5f5f3e3d5ffd5b505050505f5160206119055f395f51905f525f1c6001600160a01b03166390c5013b6040518163ffffffff1660e01b81526004015f604051808303815f87803b158015610d52575f5ffd5b505af1158015610d64573d5f5f3e3d5ffd5b50505050505050565b5f7f00000000000000000000000000000000000000000000000000000000000000006001600160a01b031663e30c39786040518163ffffffff1660e01b8152600401602060405180830381865afa158015610dca573d5f5f3e3d5ffd5b505050506040513d601f19601f82011682018060405250810190610dee9190611846565b90506001600160a01b038116610e015750565b60405163ca669fa760e01b81525f5160206118e55f395f51905f529063ca669fa790610e31908490600401611731565b5f604051808303815f87803b158015610e48575f5ffd5b505af1158015610e5a573d5f5f3e3d5ffd5b505050507f00000000000000000000000000000000000000000000000000000000000000006001600160a01b031663b842e87f6040518163ffffffff1660e01b81526004015f604051808303815f87803b158015610eb6575f5ffd5b505af1925050508015610ec7575060015b156105ce57600280546001600160a01b0383166001600160a01b031990911617905550565b604051632631f2b160e11b81526001600160a01b038216151560048201525f5160206118e55f395f51905f5290634c63e562906024015f6040518083038186803b158015610f38575f5ffd5b505afa158015610f4a573d5f5f3e3d5ffd5b5050604051632631f2b160e11b8152306001600160a01b038516141560048201525f5160206118e55f395f51905f529250634c63e56291506024015f6040518083038186803b158015610f9b575f5ffd5b505afa158015610fad573d5f5f3e3d5ffd5b5050600254604051632631f2b160e11b81526001600160a01b038581169216919091141560048201525f5160206118e55f395f51905f529250634c63e56291506024015f6040518083038186803b158015611006575f5ffd5b505afa158015611018573d5f5f3e3d5ffd5b505060025460405163ca669fa760e01b81525f5160206118e55f395f51905f52935063ca669fa79250611057916001600160a01b031690600401611731565b5f604051808303815f87803b15801561106e575f5ffd5b505af1158015611080573d5f5f3e3d5ffd5b505060405163c0b6f56160e01b81526001600160a01b037f000000000000000000000000000000000000000000000000000000000000000016925063c0b6f56191506105a4908490600401611731565b805f6110e8825f60015f805490506102329190611819565b815481106110f8576110f8611832565b5f91825260209091200154600180546001600160a01b0319166001600160a01b0390921691821790556040516303223eab60e11b81525f5160206118e55f395f51905f52916306447d56916111509190600401611731565b5f604051808303815f87803b158015611167575f5ffd5b505af1158015611179573d5f5f3e3d5ffd5b5050600254600154604051632631f2b160e11b81526001600160a01b0391821691909216141560048201525f5160206118e55f395f51905f529250634c63e56291506024015f6040518083038186803b1580156111d4575f5ffd5b505afa1580156111e6573d5f5f3e3d5ffd5b5050604051630618f58760e51b81525f5160206118e55f395f51905f52925063c31eb0e091506112219063245aecd360e01b90600401611861565b5f604051808303815f87803b158015611238575f5ffd5b505af115801561124a573d5f5f3e3d5ffd5b505050507f00000000000000000000000000000000000000000000000000000000000000006001600160a01b031663737293e26040518163ffffffff1660e01b81526004015f604051808303815f87803b1580156112a6575f5ffd5b505af11580156112b8573d5f5f3e3d5ffd5b505050505f5160206119055f395f51905f525f1c6001600160a01b03166390c5013b6040518163ffffffff1660e01b81526004015f604051808303815f87803b1580156104d6575f5ffd5b815f61131b825f60015f805490506102329190611819565b8154811061132b5761132b611832565b5f91825260209091200154600180546001600160a01b0319166001600160a01b0390921691821790556040516303223eab60e11b81525f5160206118e55f395f51905f52916306447d56916113839190600401611731565b5f604051808303815f87803b15801561139a575f5ffd5b505af11580156113ac573d5f5f3e3d5ffd5b5050600254600154604051632631f2b160e11b81526001600160a01b0391821691909216141560048201525f5160206118e55f395f51905f529250634c63e56291506024015f6040518083038186803b158015611407575f5ffd5b505afa158015611419573d5f5f3e3d5ffd5b5050604051630618f58760e51b81525f5160206118e55f395f51905f52925063c31eb0e091506114549063245aecd360e01b90600401611861565b5f604051808303815f87803b15801561146b575f5ffd5b505af115801561147d573d5f5f3e3d5ffd5b5050604051633c21395760e01b81526001600160a01b037f0000000000000000000000000000000000000000000000000000000000000000169250633c2139579150610cde908590600401611731565b5f6114d9848484611510565b90506115096040518060400160405280600c81526020016b109bdd5b99081c995cdd5b1d60a21b815250826116cd565b9392505050565b5f8183111561158b5760405162461bcd60e51b815260206004820152603e60248201527f5374645574696c7320626f756e642875696e743235362c75696e743235362c7560448201527f696e74323536293a204d6178206973206c657373207468616e206d696e2e0000606482015260840160405180910390fd5b82841015801561159b5750818411155b156115a7575082611509565b5f6115b28484611819565b6115bd906001611876565b9050600385111580156115cf57508481115b156115e6576115de8585611876565b915050611509565b6115f260035f19611819565b851015801561160a5750611607855f19611819565b81115b156116245761161a855f19611819565b6115de9084611819565b82851115611677575f6116378487611819565b90505f6116448383611889565b9050805f0361165857849350505050611509565b60016116648288611876565b61166e9190611819565b935050506116c5565b838510156116c5575f61168a8686611819565b90505f6116978383611889565b9050805f036116ab57859350505050611509565b6116b58186611819565b6116c0906001611876565b935050505b509392505050565b6105cc82826040516024016116e39291906118a8565b60408051601f198184030181529190526020810180516001600160e01b0316632d839cb360e21b1790526105ce8180516a636f6e736f6c652e6c6f67602083015f808483855afa5050505050565b6001600160a01b0391909116815260200190565b5f60208284031215611755575f5ffd5b5035919050565b6001600160a01b03811681146105ce575f5ffd5b5f60208284031215611780575f5ffd5b81356115098161175c565b602080825282518282018190525f918401906040840190835b818110156117cc5783516001600160e01b0319168352602093840193909201916001016117a4565b509095945050505050565b5f5f604083850312156117e8575f5ffd5b8235915060208301356117fa8161175c565b809150509250929050565b634e487b7160e01b5f52601160045260245ffd5b8181038181111561182c5761182c611805565b92915050565b634e487b7160e01b5f52603260045260245ffd5b5f60208284031215611856575f5ffd5b81516115098161175c565b6001600160e01b031991909116815260200190565b8082018082111561182c5761182c611805565b5f826118a357634e487b7160e01b5f52601260045260245ffd5b500690565b604081525f83518060408401528060208601606085015e5f606082850101526060601f19601f830116840101915050826020830152939250505056fe0000000000000000000000007109709ecfa91a80626ff3989d68f67f5b1dd12d885cb69240a935d632d79c317109709ecfa91a80626ff3989d68f67f5b1dd12da2646970667358221220949cd3c5507fcd1444be4c0736a1d80cd1c4209de400f69fcda035b678064ee364736f6c634300081e0033290decd9548b62a8d60345a988386fc84ba6bc95484008f6362f93160ef3e563","linkReferences":{}},"methodIdentifiers":{"acceptOwnershipTransfer()":"b842e87f","actors(uint256)":"93c0e83a","attacker_acceptOwnershipTransfer(uint256)":"222022cb","attacker_cancelPendingOwnershipTransfer(uint256)":"ca7719ab","attacker_confirmOwnershipTransfer(uint256,address)":"f2207d8d","attacker_initiateOwnershipTransfer(uint256,address)":"b310313f","cancelPendingOwnershipTransfer()":"737293e2","confirmOwnershipTransfer(address)":"3c213957","currentActor()":"0c7bfa4d","ghostBuffer()":"0412cf82","ghostCurrentOwner()":"28d08dcd","initiateOwnershipTransfer(address)":"c0b6f561","ownable()":"b38854be","selectors()":"6e25b978","wrongGuy_acceptOwnershipTransfer(uint256)":"49333602"},"id":10}