{"abi":[{"type":"constructor","inputs":[{"name":"vault","type":"address","internalType":"contract IVault"}],"stateMutability":"nonpayable"},{"type":"function","name":"allowance","inputs":[{"name":"token","type":"address","internalType":"address"},{"name":"owner","type":"address","internalType":"address"},{"name":"spender","type":"address","internalType":"address"}],"outputs":[{"name":"tokenAllowance","type":"uint256","internalType":"uint256"}],"stateMutability":"view"},{"type":"function","name":"areBuffersPaused","inputs":[],"outputs":[{"name":"buffersPaused","type":"bool","internalType":"bool"}],"stateMutability":"view"},{"type":"function","name":"balanceOf","inputs":[{"name":"token","type":"address","internalType":"address"},{"name":"account","type":"address","internalType":"address"}],"outputs":[{"name":"tokenBalance","type":"uint256","internalType":"uint256"}],"stateMutability":"view"},{"type":"function","name":"collectAggregateFees","inputs":[{"name":"pool","type":"address","internalType":"address"}],"outputs":[],"stateMutability":"nonpayable"},{"type":"function","name":"computeDynamicSwapFeePercentage","inputs":[{"name":"pool","type":"address","internalType":"address"},{"name":"swapParams","type":"tuple","internalType":"struct PoolSwapParams","components":[{"name":"kind","type":"uint8","internalType":"enum SwapKind"},{"name":"amountGivenScaled18","type":"uint256","internalType":"uint256"},{"name":"balancesScaled18","type":"uint256[]","internalType":"uint256[]"},{"name":"indexIn","type":"uint256","internalType":"uint256"},{"name":"indexOut","type":"uint256","internalType":"uint256"},{"name":"router","type":"address","internalType":"address"},{"name":"userData","type":"bytes","internalType":"bytes"}]}],"outputs":[{"name":"dynamicSwapFeePercentage","type":"uint256","internalType":"uint256"}],"stateMutability":"view"},{"type":"function","name":"enableRecoveryMode","inputs":[{"name":"pool","type":"address","internalType":"address"}],"outputs":[],"stateMutability":"nonpayable"},{"type":"function","name":"getAddLiquidityCalledFlag","inputs":[{"name":"pool","type":"address","internalType":"address"}],"outputs":[{"name":"liquidityAdded","type":"bool","internalType":"bool"}],"stateMutability":"view"},{"type":"function","name":"getAggregateFeePercentages","inputs":[{"name":"pool","type":"address","internalType":"address"}],"outputs":[{"name":"aggregateSwapFeePercentage","type":"uint256","internalType":"uint256"},{"name":"aggregateYieldFeePercentage","type":"uint256","internalType":"uint256"}],"stateMutability":"view"},{"type":"function","name":"getAggregateSwapFeeAmount","inputs":[{"name":"pool","type":"address","internalType":"address"},{"name":"token","type":"address","internalType":"contract IERC20"}],"outputs":[{"name":"swapFeeAmount","type":"uint256","internalType":"uint256"}],"stateMutability":"view"},{"type":"function","name":"getAggregateYieldFeeAmount","inputs":[{"name":"pool","type":"address","internalType":"address"},{"name":"token","type":"address","internalType":"contract IERC20"}],"outputs":[{"name":"yieldFeeAmount","type":"uint256","internalType":"uint256"}],"stateMutability":"view"},{"type":"function","name":"getAuthorizer","inputs":[],"outputs":[{"name":"authorizer","type":"address","internalType":"address"}],"stateMutability":"view"},{"type":"function","name":"getBptRate","inputs":[{"name":"pool","type":"address","internalType":"address"}],"outputs":[{"name":"rate","type":"uint256","internalType":"uint256"}],"stateMutability":"view"},{"type":"function","name":"getBufferAsset","inputs":[{"name":"wrappedToken","type":"address","internalType":"contract IERC4626"}],"outputs":[{"name":"underlyingToken","type":"address","internalType":"address"}],"stateMutability":"view"},{"type":"function","name":"getBufferBalance","inputs":[{"name":"wrappedToken","type":"address","internalType":"contract IERC4626"}],"outputs":[{"name":"underlyingBalanceRaw","type":"uint256","internalType":"uint256"},{"name":"wrappedBalanceRaw","type":"uint256","internalType":"uint256"}],"stateMutability":"view"},{"type":"function","name":"getBufferMinimumTotalSupply","inputs":[],"outputs":[{"name":"bufferMinimumTotalSupply","type":"uint256","internalType":"uint256"}],"stateMutability":"view"},{"type":"function","name":"getBufferOwnerShares","inputs":[{"name":"wrappedToken","type":"address","internalType":"contract IERC4626"},{"name":"liquidityOwner","type":"address","internalType":"address"}],"outputs":[{"name":"ownerShares","type":"uint256","internalType":"uint256"}],"stateMutability":"view"},{"type":"function","name":"getBufferPeriodDuration","inputs":[],"outputs":[{"name":"bufferPeriodDuration","type":"uint32","internalType":"uint32"}],"stateMutability":"view"},{"type":"function","name":"getBufferPeriodEndTime","inputs":[],"outputs":[{"name":"bufferPeriodEndTime","type":"uint32","internalType":"uint32"}],"stateMutability":"view"},{"type":"function","name":"getBufferTotalShares","inputs":[{"name":"wrappedToken","type":"address","internalType":"contract IERC4626"}],"outputs":[{"name":"bufferShares","type":"uint256","internalType":"uint256"}],"stateMutability":"view"},{"type":"function","name":"getCurrentLiveBalances","inputs":[{"name":"pool","type":"address","internalType":"address"}],"outputs":[{"name":"balancesLiveScaled18","type":"uint256[]","internalType":"uint256[]"}],"stateMutability":"view"},{"type":"function","name":"getERC4626BufferAsset","inputs":[{"name":"wrappedToken","type":"address","internalType":"contract IERC4626"}],"outputs":[{"name":"underlyingToken","type":"address","internalType":"address"}],"stateMutability":"view"},{"type":"function","name":"getHooksConfig","inputs":[{"name":"pool","type":"address","internalType":"address"}],"outputs":[{"name":"hooksConfig","type":"tuple","internalType":"struct HooksConfig","components":[{"name":"enableHookAdjustedAmounts","type":"bool","internalType":"bool"},{"name":"shouldCallBeforeInitialize","type":"bool","internalType":"bool"},{"name":"shouldCallAfterInitialize","type":"bool","internalType":"bool"},{"name":"shouldCallComputeDynamicSwapFee","type":"bool","internalType":"bool"},{"name":"shouldCallBeforeSwap","type":"bool","internalType":"bool"},{"name":"shouldCallAfterSwap","type":"bool","internalType":"bool"},{"name":"shouldCallBeforeAddLiquidity","type":"bool","internalType":"bool"},{"name":"shouldCallAfterAddLiquidity","type":"bool","internalType":"bool"},{"name":"shouldCallBeforeRemoveLiquidity","type":"bool","internalType":"bool"},{"name":"shouldCallAfterRemoveLiquidity","type":"bool","internalType":"bool"},{"name":"hooksContract","type":"address","internalType":"address"}]}],"stateMutability":"view"},{"type":"function","name":"getMaximumPoolTokens","inputs":[],"outputs":[{"name":"maxTokens","type":"uint256","internalType":"uint256"}],"stateMutability":"view"},{"type":"function","name":"getMinimumPoolTokens","inputs":[],"outputs":[{"name":"minTokens","type":"uint256","internalType":"uint256"}],"stateMutability":"view"},{"type":"function","name":"getMinimumTradeAmount","inputs":[],"outputs":[{"name":"minimumTradeAmount","type":"uint256","internalType":"uint256"}],"stateMutability":"view"},{"type":"function","name":"getMinimumWrapAmount","inputs":[],"outputs":[{"name":"minimumWrapAmount","type":"uint256","internalType":"uint256"}],"stateMutability":"view"},{"type":"function","name":"getNonzeroDeltaCount","inputs":[],"outputs":[{"name":"nonzeroDeltaCount","type":"uint256","internalType":"uint256"}],"stateMutability":"view"},{"type":"function","name":"getPauseWindowEndTime","inputs":[],"outputs":[{"name":"pauseWindowEndTime","type":"uint32","internalType":"uint32"}],"stateMutability":"view"},{"type":"function","name":"getPoolConfig","inputs":[{"name":"pool","type":"address","internalType":"address"}],"outputs":[{"name":"poolConfig","type":"tuple","internalType":"struct PoolConfig","components":[{"name":"liquidityManagement","type":"tuple","internalType":"struct LiquidityManagement","components":[{"name":"disableUnbalancedLiquidity","type":"bool","internalType":"bool"},{"name":"enableAddLiquidityCustom","type":"bool","internalType":"bool"},{"name":"enableRemoveLiquidityCustom","type":"bool","internalType":"bool"},{"name":"enableDonation","type":"bool","internalType":"bool"}]},{"name":"staticSwapFeePercentage","type":"uint256","internalType":"uint256"},{"name":"aggregateSwapFeePercentage","type":"uint256","internalType":"uint256"},{"name":"aggregateYieldFeePercentage","type":"uint256","internalType":"uint256"},{"name":"tokenDecimalDiffs","type":"uint40","internalType":"uint40"},{"name":"pauseWindowEndTime","type":"uint32","internalType":"uint32"},{"name":"isPoolRegistered","type":"bool","internalType":"bool"},{"name":"isPoolInitialized","type":"bool","internalType":"bool"},{"name":"isPoolPaused","type":"bool","internalType":"bool"},{"name":"isPoolInRecoveryMode","type":"bool","internalType":"bool"}]}],"stateMutability":"view"},{"type":"function","name":"getPoolData","inputs":[{"name":"pool","type":"address","internalType":"address"}],"outputs":[{"name":"poolData","type":"tuple","internalType":"struct PoolData","components":[{"name":"poolConfigBits","type":"bytes32","internalType":"PoolConfigBits"},{"name":"tokens","type":"address[]","internalType":"contract IERC20[]"},{"name":"tokenInfo","type":"tuple[]","internalType":"struct TokenInfo[]","components":[{"name":"tokenType","type":"uint8","internalType":"enum TokenType"},{"name":"rateProvider","type":"address","internalType":"contract IRateProvider"},{"name":"paysYieldFees","type":"bool","internalType":"bool"}]},{"name":"balancesRaw","type":"uint256[]","internalType":"uint256[]"},{"name":"balancesLiveScaled18","type":"uint256[]","internalType":"uint256[]"},{"name":"tokenRates","type":"uint256[]","internalType":"uint256[]"},{"name":"decimalScalingFactors","type":"uint256[]","internalType":"uint256[]"}]}],"stateMutability":"view"},{"type":"function","name":"getPoolMinimumTotalSupply","inputs":[],"outputs":[{"name":"poolMinimumTotalSupply","type":"uint256","internalType":"uint256"}],"stateMutability":"view"},{"type":"function","name":"getPoolPausedState","inputs":[{"name":"pool","type":"address","internalType":"address"}],"outputs":[{"name":"poolPaused","type":"bool","internalType":"bool"},{"name":"poolPauseWindowEndTime","type":"uint32","internalType":"uint32"},{"name":"poolBufferPeriodEndTime","type":"uint32","internalType":"uint32"},{"name":"pauseManager","type":"address","internalType":"address"}],"stateMutability":"view"},{"type":"function","name":"getPoolRoleAccounts","inputs":[{"name":"pool","type":"address","internalType":"address"}],"outputs":[{"name":"roleAccounts","type":"tuple","internalType":"struct PoolRoleAccounts","components":[{"name":"pauseManager","type":"address","internalType":"address"},{"name":"swapFeeManager","type":"address","internalType":"address"},{"name":"poolCreator","type":"address","internalType":"address"}]}],"stateMutability":"view"},{"type":"function","name":"getPoolTokenCountAndIndexOfToken","inputs":[{"name":"pool","type":"address","internalType":"address"},{"name":"token","type":"address","internalType":"contract IERC20"}],"outputs":[{"name":"tokenCount","type":"uint256","internalType":"uint256"},{"name":"index","type":"uint256","internalType":"uint256"}],"stateMutability":"view"},{"type":"function","name":"getPoolTokenInfo","inputs":[{"name":"pool","type":"address","internalType":"address"}],"outputs":[{"name":"tokens","type":"address[]","internalType":"contract IERC20[]"},{"name":"tokenInfo","type":"tuple[]","internalType":"struct TokenInfo[]","components":[{"name":"tokenType","type":"uint8","internalType":"enum TokenType"},{"name":"rateProvider","type":"address","internalType":"contract IRateProvider"},{"name":"paysYieldFees","type":"bool","internalType":"bool"}]},{"name":"balancesRaw","type":"uint256[]","internalType":"uint256[]"},{"name":"lastBalancesLiveScaled18","type":"uint256[]","internalType":"uint256[]"}],"stateMutability":"view"},{"type":"function","name":"getPoolTokenRates","inputs":[{"name":"pool","type":"address","internalType":"address"}],"outputs":[{"name":"decimalScalingFactors","type":"uint256[]","internalType":"uint256[]"},{"name":"tokenRates","type":"uint256[]","internalType":"uint256[]"}],"stateMutability":"view"},{"type":"function","name":"getPoolTokens","inputs":[{"name":"pool","type":"address","internalType":"address"}],"outputs":[{"name":"tokens","type":"address[]","internalType":"contract IERC20[]"}],"stateMutability":"view"},{"type":"function","name":"getProtocolFeeController","inputs":[],"outputs":[{"name":"protocolFeeController","type":"address","internalType":"address"}],"stateMutability":"view"},{"type":"function","name":"getReservesOf","inputs":[{"name":"token","type":"address","internalType":"contract IERC20"}],"outputs":[{"name":"reserveAmount","type":"uint256","internalType":"uint256"}],"stateMutability":"view"},{"type":"function","name":"getStaticSwapFeePercentage","inputs":[{"name":"pool","type":"address","internalType":"address"}],"outputs":[{"name":"swapFeePercentage","type":"uint256","internalType":"uint256"}],"stateMutability":"view"},{"type":"function","name":"getTokenDelta","inputs":[{"name":"token","type":"address","internalType":"contract IERC20"}],"outputs":[{"name":"tokenDelta","type":"int256","internalType":"int256"}],"stateMutability":"view"},{"type":"function","name":"getVault","inputs":[],"outputs":[{"name":"vault","type":"address","internalType":"address"}],"stateMutability":"view"},{"type":"function","name":"getVaultAdmin","inputs":[],"outputs":[{"name":"vaultAdmin","type":"address","internalType":"address"}],"stateMutability":"view"},{"type":"function","name":"getVaultExtension","inputs":[],"outputs":[{"name":"vaultExtension","type":"address","internalType":"address"}],"stateMutability":"view"},{"type":"function","name":"getVaultPausedState","inputs":[],"outputs":[{"name":"vaultPaused","type":"bool","internalType":"bool"},{"name":"vaultPauseWindowEndTime","type":"uint32","internalType":"uint32"},{"name":"vaultBufferPeriodEndTime","type":"uint32","internalType":"uint32"}],"stateMutability":"view"},{"type":"function","name":"isERC4626BufferInitialized","inputs":[{"name":"wrappedToken","type":"address","internalType":"contract IERC4626"}],"outputs":[{"name":"isBufferInitialized","type":"bool","internalType":"bool"}],"stateMutability":"view"},{"type":"function","name":"isPoolInRecoveryMode","inputs":[{"name":"pool","type":"address","internalType":"address"}],"outputs":[{"name":"inRecoveryMode","type":"bool","internalType":"bool"}],"stateMutability":"view"},{"type":"function","name":"isPoolInitialized","inputs":[{"name":"pool","type":"address","internalType":"address"}],"outputs":[{"name":"initialized","type":"bool","internalType":"bool"}],"stateMutability":"view"},{"type":"function","name":"isPoolPaused","inputs":[{"name":"pool","type":"address","internalType":"address"}],"outputs":[{"name":"poolPaused","type":"bool","internalType":"bool"}],"stateMutability":"view"},{"type":"function","name":"isPoolRegistered","inputs":[{"name":"pool","type":"address","internalType":"address"}],"outputs":[{"name":"registered","type":"bool","internalType":"bool"}],"stateMutability":"view"},{"type":"function","name":"isQueryDisabled","inputs":[],"outputs":[{"name":"queryDisabled","type":"bool","internalType":"bool"}],"stateMutability":"view"},{"type":"function","name":"isQueryDisabledPermanently","inputs":[],"outputs":[{"name":"queryDisabledPermanently","type":"bool","internalType":"bool"}],"stateMutability":"view"},{"type":"function","name":"isUnlocked","inputs":[],"outputs":[{"name":"unlocked","type":"bool","internalType":"bool"}],"stateMutability":"view"},{"type":"function","name":"isVaultPaused","inputs":[],"outputs":[{"name":"vaultPaused","type":"bool","internalType":"bool"}],"stateMutability":"view"},{"type":"function","name":"totalSupply","inputs":[{"name":"token","type":"address","internalType":"address"}],"outputs":[{"name":"tokenTotalSupply","type":"uint256","internalType":"uint256"}],"stateMutability":"view"}],"bytecode":{"object":"0x60a060405234801561000f575f5ffd5b5060405161326b38038061326b83398101604081905261002e9161003f565b6001600160a01b031660805261006c565b5f6020828403121561004f575f5ffd5b81516001600160a01b0381168114610065575f5ffd5b9392505050565b6080516130746101f75f395f81816104eb01528181610718015281816107ad0152818161082a015281816109030152818161097c015281816109dc01528181610a7701528181610b5701528181610bd801528181610c5b01528181610cfe01528181610d5c01528181610e0601528181610e5601528181610ee301528181610f7101528181610fea01528181611047015281816110a90152818161114d0152818161119b015281816111d501528181611263015281816112c2015281816113640152818161139e015281816113fb0152818161145701528181611561015281816115ed0152818161163d0152818161168b015281816116c30152818161172001528181611793015281816117e10152818161181901528181611876015281816118e9015281816119370152818161197001528181611a1f01528181611a9801528181611b5501528181611bd501528181611c3201528181611ca301528181611cdb01528181611d4e01528181611daa01528181611e3f01528181611eee0152611f8401526130745ff3fe608060405234801561000f575f5ffd5b506004361061027a575f3560e01c8062fdfa131461027e5780630387587d146102a4578063098401f5146102c457806313d21cdf146102dc57806313ef8a5d146102fc57806315e32046146103045780631ba0ae451461034f57806320c1fb7a1461035757806326a8a99114610374578063295f05401461037c5780632e42f4d5146103a45780634021fe0f146103ac5780634afbaf5a146102a45780634d472bdd146103bf5780634f037ee7146103d2578063532cec7c146103e5578063535cfd8a146103f857806353956aa21461041857806355cba7fe1461042057806367e0e076146104285780636844846b1461044b5780636c9bc7321461045e5780637e361bde146104715780638380edb71461049257806385c8c0151461049a57806385e0b999146104c657806385f2dbd4146104d95780638a8d123a146104e15780638d928af8146104e95780638f4ab9ca1461050f578063927da105146105245780639385e39a14610537578063967870921461054a5780639e825ff51461055d578063a8175b2714610570578063aaabadc514610578578063ace9b89b14610580578063b45090f914610593578063b4aef0ab146105a6578063b9a8effa146105ae578063be7d628a146105b6578063c673bdaf146105c9578063c9c1661b146105dc578063ca4f2803146105ef578063cd51c12f1461060f578063ce8630d414610617578063d0965a6b14610637578063db8171871461063f578063dc3f574e14610647578063e2cb0ba01461065a578063e4dc2aa414610662578063e9ddeb2614610675578063f2784e07146106ba578063f29486a1146106cd578063f7888aec146106ed575b5f5ffd5b61029161028c366004611fe2565b610700565b6040519081526020015b60405180910390f35b6102b76102b2366004612019565b610794565b60405161029b9190612034565b6102cc610827565b604051901515815260200161029b565b6102ef6102ea366004612019565b6108ad565b60405161029b9190612141565b6102cc610979565b610317610312366004612019565b6109d6565b60405161029b9493929190931515845263ffffffff9283166020850152911660408301526001600160a01b0316606082015260800190565b6102b7610a74565b61035f610b54565b60405163ffffffff909116815260200161029b565b610291610bd5565b61038f61038a366004612019565b610c56565b6040805192835260208301919091520161029b565b610291610cfb565b61038f6103ba366004612019565b610d58565b6102916103cd3660046123e7565b610ded565b6102916103e0366004612019565b610e3d565b6102cc6103f3366004612019565b610eca565b61040b610406366004612019565b610f57565b60405161029b91906124d0565b610291610fe7565b6102cc611044565b61043b610436366004612019565b6110a1565b60405161029b94939291906124e2565b6102cc610459366004612019565b611134565b6102cc61046c366004612019565b611182565b61048461047f366004612019565b6111d0565b60405161029b929190612568565b6102cc611260565b6104a26112bd565b60408051931515845263ffffffff928316602085015291169082015260600161029b565b6102916104d4366004611fe2565b61134b565b6102b761139b565b61035f6113f8565b7f00000000000000000000000000000000000000000000000000000000000000006102b7565b61052261051d366004612019565b611455565b005b61029161053236600461258c565b611530565b610291610545366004611fe2565b6115d4565b610291610558366004612019565b611624565b61029161056b366004612019565b611672565b6102916116c0565b6102b761171d565b6102cc61058e366004612019565b61177a565b6102916105a1366004612019565b6117c8565b6102cc611816565b6102b7611873565b6102cc6105c4366004612019565b6118d0565b6102cc6105d7366004612019565b61191e565b61038f6105ea366004611fe2565b61196c565b6106026105fd366004612019565b611a05565b60405161029b91906125d4565b61035f611a95565b61062a610625366004612019565b611af2565b60405161029b91906125e6565b610291611bd2565b610291611c2f565b610522610655366004612019565b611c8c565b610291611cd8565b610291610670366004612019565b611d35565b610688610683366004612019565b611d83565b6040805182516001600160a01b039081168252602080850151821690830152928201519092169082015260600161029b565b6102916106c8366004612019565b611e26565b6106e06106db366004612019565b611e74565b60405161029b91906126cc565b6102916106fb366004611fe2565b611f6b565b60405162fdfa1360e01b81525f906001600160a01b037f0000000000000000000000000000000000000000000000000000000000000000169062fdfa139061074e9086908690600401612784565b602060405180830381865afa158015610769573d5f5f3e3d5ffd5b505050506040513d601f19601f8201168201806040525081019061078d919061279e565b9392505050565b60405163257dd7ad60e11b81525f906001600160a01b037f00000000000000000000000000000000000000000000000000000000000000001690634afbaf5a906107e2908590600401612034565b602060405180830381865afa1580156107fd573d5f5f3e3d5ffd5b505050506040513d601f19601f8201168201806040525081019061082191906127c0565b92915050565b5f7f00000000000000000000000000000000000000000000000000000000000000006001600160a01b031663098401f56040518163ffffffff1660e01b8152600401602060405180830381865afa158015610884573d5f5f3e3d5ffd5b505050506040513d601f19601f820116820180604052508101906108a891906127ea565b905090565b6108ec6040518060e001604052805f81526020016060815260200160608152602001606081526020016060815260200160608152602001606081525090565b6040516313d21cdf60e01b81526001600160a01b037f000000000000000000000000000000000000000000000000000000000000000016906313d21cdf90610938908590600401612034565b5f60405180830381865afa158015610952573d5f5f3e3d5ffd5b505050506040513d5f823e601f3d908101601f191682016040526108219190810190612965565b5f7f00000000000000000000000000000000000000000000000000000000000000006001600160a01b03166313ef8a5d6040518163ffffffff1660e01b8152600401602060405180830381865afa158015610884573d5f5f3e3d5ffd5b5f5f5f5f7f00000000000000000000000000000000000000000000000000000000000000006001600160a01b03166315e32046866040518263ffffffff1660e01b8152600401610a269190612034565b608060405180830381865afa158015610a41573d5f5f3e3d5ffd5b505050506040513d601f19601f82011682018060405250810190610a659190612abe565b93509350935093509193509193565b5f7f00000000000000000000000000000000000000000000000000000000000000006001600160a01b031663b9a8effa6040518163ffffffff1660e01b8152600401602060405180830381865afa158015610ad1573d5f5f3e3d5ffd5b505050506040513d601f19601f82011682018060405250810190610af591906127c0565b6001600160a01b0316631ba0ae456040518163ffffffff1660e01b8152600401602060405180830381865afa158015610b30573d5f5f3e3d5ffd5b505050506040513d601f19601f820116820180604052508101906108a891906127c0565b5f7f00000000000000000000000000000000000000000000000000000000000000006001600160a01b03166320c1fb7a6040518163ffffffff1660e01b8152600401602060405180830381865afa158015610bb1573d5f5f3e3d5ffd5b505050506040513d601f19601f820116820180604052508101906108a89190612b11565b5f7f00000000000000000000000000000000000000000000000000000000000000006001600160a01b03166326a8a9916040518163ffffffff1660e01b8152600401602060405180830381865afa158015610c32573d5f5f3e3d5ffd5b505050506040513d601f19601f820116820180604052508101906108a8919061279e565b5f5f5f7f00000000000000000000000000000000000000000000000000000000000000006001600160a01b031663f29486a1856040518263ffffffff1660e01b8152600401610ca59190612034565b6101a060405180830381865afa158015610cc1573d5f5f3e3d5ffd5b505050506040513d601f19601f82011682018060405250810190610ce59190612bbb565b9050806040015181606001519250925050915091565b5f7f00000000000000000000000000000000000000000000000000000000000000006001600160a01b0316632e42f4d56040518163ffffffff1660e01b8152600401602060405180830381865afa158015610c32573d5f5f3e3d5ffd5b5f5f7f00000000000000000000000000000000000000000000000000000000000000006001600160a01b0316634021fe0f846040518263ffffffff1660e01b8152600401610da69190612034565b6040805180830381865afa158015610dc0573d5f5f3e3d5ffd5b505050506040513d601f19601f82011682018060405250810190610de49190612c74565b91509150915091565b604051634d472bdd60e01b81525f906001600160a01b037f00000000000000000000000000000000000000000000000000000000000000001690634d472bdd9061074e9086908690600401612c96565b604051634f037ee760e01b81525f906001600160a01b037f00000000000000000000000000000000000000000000000000000000000000001690634f037ee790610e8b908590600401612034565b602060405180830381865afa158015610ea6573d5f5f3e3d5ffd5b505050506040513d601f19601f82011682018060405250810190610821919061279e565b6040516314cb3b1f60e21b81525f906001600160a01b037f0000000000000000000000000000000000000000000000000000000000000000169063532cec7c90610f18908590600401612034565b602060405180830381865afa158015610f33573d5f5f3e3d5ffd5b505050506040513d601f19601f8201168201806040525081019061082191906127ea565b6040516329ae7ec560e11b81526060906001600160a01b037f0000000000000000000000000000000000000000000000000000000000000000169063535cfd8a90610fa6908590600401612034565b5f60405180830381865afa158015610fc0573d5f5f3e3d5ffd5b505050506040513d5f823e601f3d908101601f191682016040526108219190810190612d4b565b5f7f00000000000000000000000000000000000000000000000000000000000000006001600160a01b03166353956aa26040518163ffffffff1660e01b8152600401602060405180830381865afa158015610c32573d5f5f3e3d5ffd5b5f7f00000000000000000000000000000000000000000000000000000000000000006001600160a01b03166355cba7fe6040518163ffffffff1660e01b8152600401602060405180830381865afa158015610884573d5f5f3e3d5ffd5b6060806060807f00000000000000000000000000000000000000000000000000000000000000006001600160a01b03166367e0e076866040518263ffffffff1660e01b81526004016110f39190612034565b5f60405180830381865afa15801561110d573d5f5f3e3d5ffd5b505050506040513d5f823e601f3d908101601f19168201604052610a659190810190612d7c565b604051636844846b60e01b81525f906001600160a01b037f00000000000000000000000000000000000000000000000000000000000000001690636844846b90610f18908590600401612034565b60405163364de39960e11b81525f906001600160a01b037f00000000000000000000000000000000000000000000000000000000000000001690636c9bc73290610f18908590600401612034565b6060807f00000000000000000000000000000000000000000000000000000000000000006001600160a01b0316637e361bde846040518263ffffffff1660e01b815260040161121f9190612034565b5f60405180830381865afa158015611239573d5f5f3e3d5ffd5b505050506040513d5f823e601f3d908101601f19168201604052610de49190810190612e37565b5f7f00000000000000000000000000000000000000000000000000000000000000006001600160a01b0316638380edb76040518163ffffffff1660e01b8152600401602060405180830381865afa158015610884573d5f5f3e3d5ffd5b5f5f5f7f00000000000000000000000000000000000000000000000000000000000000006001600160a01b03166385c8c0156040518163ffffffff1660e01b8152600401606060405180830381865afa15801561131c573d5f5f3e3d5ffd5b505050506040513d601f19601f820116820180604052508101906113409190612e9c565b925092509250909192565b6040516385e0b99960e01b81525f906001600160a01b037f000000000000000000000000000000000000000000000000000000000000000016906385e0b9999061074e9086908690600401612784565b5f7f00000000000000000000000000000000000000000000000000000000000000006001600160a01b03166385f2dbd46040518163ffffffff1660e01b8152600401602060405180830381865afa158015610b30573d5f5f3e3d5ffd5b5f7f00000000000000000000000000000000000000000000000000000000000000006001600160a01b0316638a8d123a6040518163ffffffff1660e01b8152600401602060405180830381865afa158015610bb1573d5f5f3e3d5ffd5b7f00000000000000000000000000000000000000000000000000000000000000006001600160a01b03166385f2dbd46040518163ffffffff1660e01b8152600401602060405180830381865afa1580156114b1573d5f5f3e3d5ffd5b505050506040513d601f19601f820116820180604052508101906114d591906127c0565b6001600160a01b0316638f4ab9ca826040518263ffffffff1660e01b81526004016115009190612034565b5f604051808303815f87803b158015611517575f5ffd5b505af1158015611529573d5f5f3e3d5ffd5b5050505050565b60405163927da10560e01b81526001600160a01b038481166004830152838116602483015282811660448301525f917f00000000000000000000000000000000000000000000000000000000000000009091169063927da10590606401602060405180830381865afa1580156115a8573d5f5f3e3d5ffd5b505050506040513d601f19601f820116820180604052508101906115cc919061279e565b949350505050565b6040516349c2f1cd60e11b81525f906001600160a01b037f00000000000000000000000000000000000000000000000000000000000000001690639385e39a9061074e9086908690600401612784565b604051634b3c384960e11b81525f906001600160a01b037f00000000000000000000000000000000000000000000000000000000000000001690639678709290610e8b908590600401612034565b604051639e825ff560e01b81525f906001600160a01b037f00000000000000000000000000000000000000000000000000000000000000001690639e825ff590610e8b908590600401612034565b5f7f00000000000000000000000000000000000000000000000000000000000000006001600160a01b031663a8175b276040518163ffffffff1660e01b8152600401602060405180830381865afa158015610c32573d5f5f3e3d5ffd5b5f7f00000000000000000000000000000000000000000000000000000000000000006001600160a01b031663aaabadc56040518163ffffffff1660e01b8152600401602060405180830381865afa158015610b30573d5f5f3e3d5ffd5b60405163ace9b89b60e01b81525f906001600160a01b037f0000000000000000000000000000000000000000000000000000000000000000169063ace9b89b90610f18908590600401612034565b60405163b45090f960e01b81525f906001600160a01b037f0000000000000000000000000000000000000000000000000000000000000000169063b45090f990610e8b908590600401612034565b5f7f00000000000000000000000000000000000000000000000000000000000000006001600160a01b031663b4aef0ab6040518163ffffffff1660e01b8152600401602060405180830381865afa158015610884573d5f5f3e3d5ffd5b5f7f00000000000000000000000000000000000000000000000000000000000000006001600160a01b031663b9a8effa6040518163ffffffff1660e01b8152600401602060405180830381865afa158015610b30573d5f5f3e3d5ffd5b604051635f3eb14560e11b81525f906001600160a01b037f0000000000000000000000000000000000000000000000000000000000000000169063be7d628a90610f18908590600401612034565b60405163c673bdaf60e01b81525f906001600160a01b037f0000000000000000000000000000000000000000000000000000000000000000169063c673bdaf90610f18908590600401612034565b5f5f7f00000000000000000000000000000000000000000000000000000000000000006001600160a01b031663c9c1661b85856040518363ffffffff1660e01b81526004016119bc929190612784565b6040805180830381865afa1580156119d6573d5f5f3e3d5ffd5b505050506040513d601f19601f820116820180604052508101906119fa9190612c74565b915091509250929050565b60405163ca4f280360e01b81526060906001600160a01b037f0000000000000000000000000000000000000000000000000000000000000000169063ca4f280390611a54908590600401612034565b5f60405180830381865afa158015611a6e573d5f5f3e3d5ffd5b505050506040513d5f823e601f3d908101601f191682016040526108219190810190612edc565b5f7f00000000000000000000000000000000000000000000000000000000000000006001600160a01b031663cd51c12f6040518163ffffffff1660e01b8152600401602060405180830381865afa158015610bb1573d5f5f3e3d5ffd5b60408051610160810182525f80825260208201819052818301819052606082018190526080820181905260a0820181905260c0820181905260e082018190526101008201819052610120820181905261014082015290516333a18c3560e21b81527f00000000000000000000000000000000000000000000000000000000000000006001600160a01b03169063ce8630d490611b92908590600401612034565b61016060405180830381865afa158015611bae573d5f5f3e3d5ffd5b505050506040513d601f19601f820116820180604052508101906108219190612f0d565b5f7f00000000000000000000000000000000000000000000000000000000000000006001600160a01b031663d0965a6b6040518163ffffffff1660e01b8152600401602060405180830381865afa158015610c32573d5f5f3e3d5ffd5b5f7f00000000000000000000000000000000000000000000000000000000000000006001600160a01b031663db8171876040518163ffffffff1660e01b8152600401602060405180830381865afa158015610c32573d5f5f3e3d5ffd5b604051636e1faba760e11b81526001600160a01b037f0000000000000000000000000000000000000000000000000000000000000000169063dc3f574e90611500908490600401612034565b5f7f00000000000000000000000000000000000000000000000000000000000000006001600160a01b031663e2cb0ba06040518163ffffffff1660e01b8152600401602060405180830381865afa158015610c32573d5f5f3e3d5ffd5b6040516339370aa960e21b81525f906001600160a01b037f0000000000000000000000000000000000000000000000000000000000000000169063e4dc2aa490610e8b908590600401612034565b604080516060810182525f808252602082018190528183015290516374eef59360e11b81527f00000000000000000000000000000000000000000000000000000000000000006001600160a01b03169063e9ddeb2690611de7908590600401612034565b606060405180830381865afa158015611e02573d5f5f3e3d5ffd5b505050506040513d601f19601f820116820180604052508101906108219190612fea565b60405163f2784e0760e01b81525f906001600160a01b037f0000000000000000000000000000000000000000000000000000000000000000169063f2784e0790610e8b908590600401612034565b604080516101c0810182525f6101408201818152610160830182905261018083018290526101a08301829052825260208201819052818301819052606082018190526080820181905260a0820181905260c0820181905260e082018190526101008201819052610120820152905163f29486a160e01b81527f00000000000000000000000000000000000000000000000000000000000000006001600160a01b03169063f29486a190611f2b908590600401612034565b6101a060405180830381865afa158015611f47573d5f5f3e3d5ffd5b505050506040513d601f19601f820116820180604052508101906108219190612bbb565b604051633de222bb60e21b81525f906001600160a01b037f0000000000000000000000000000000000000000000000000000000000000000169063f7888aec9061074e9086908690600401612784565b6001600160a01b0381168114611fcf575f5ffd5b50565b8035611fdd81611fbb565b919050565b5f5f60408385031215611ff3575f5ffd5b8235611ffe81611fbb565b9150602083013561200e81611fbb565b809150509250929050565b5f60208284031215612029575f5ffd5b813561078d81611fbb565b6001600160a01b0391909116815260200190565b5f8151808452602084019350602083015f5b828110156120815781516001600160a01b031686526020958601959091019060010161205a565b5093949350505050565b60028110611fcf57634e487b7160e01b5f52602160045260245ffd5b5f81516120b38161208b565b8352506020818101516001600160a01b03169083015260409081015115159082015260600190565b5f8151808452602084019350602083015f5b82811015612081576121008683516120a7565b9550602091909101906001016120ed565b5f8151808452602084019350602083015f5b82811015612081578151865260209586019590910190600101612123565b60208152815160208201525f602083015160e06040840152612167610100840182612048565b90506040840151601f1984830301606085015261218482826120db565b9150506060840151601f198483030160808501526121a28282612111565b9150506080840151601f198483030160a08501526121c08282612111565b91505060a0840151601f198483030160c08501526121de8282612111565b91505060c0840151601f198483030160e08501526121fc8282612111565b95945050505050565b634e487b7160e01b5f52604160045260245ffd5b60405160e081016001600160401b038111828210171561223b5761223b612205565b60405290565b604051606081016001600160401b038111828210171561223b5761223b612205565b60405161014081016001600160401b038111828210171561223b5761223b612205565b60405161016081016001600160401b038111828210171561223b5761223b612205565b604051601f8201601f191681016001600160401b03811182821017156122d1576122d1612205565b604052919050565b60028110611fcf575f5ffd5b8035611fdd816122d9565b5f6001600160401b0382111561230857612308612205565b5060051b60200190565b5f82601f830112612321575f5ffd5b813561233461232f826122f0565b6122a9565b8082825260208201915060208360051b860101925085831115612355575f5ffd5b602085015b8381101561237257803583526020928301920161235a565b5095945050505050565b5f82601f83011261238b575f5ffd5b81356001600160401b038111156123a4576123a4612205565b6123b7601f8201601f19166020016122a9565b8181528460208386010111156123cb575f5ffd5b816020850160208301375f918101602001919091529392505050565b5f5f604083850312156123f8575f5ffd5b823561240381611fbb565b915060208301356001600160401b0381111561241d575f5ffd5b830160e0818603121561242e575f5ffd5b612436612219565b61243f826122e5565b81526020828101359082015260408201356001600160401b03811115612463575f5ffd5b61246f87828501612312565b604083015250606082810135908201526080808301359082015261249560a08301611fd2565b60a082015260c08201356001600160401b038111156124b2575f5ffd5b6124be8782850161237c565b60c08301525080925050509250929050565b602081525f61078d6020830184612111565b608081525f6124f46080830187612048565b82810360208401528086518083526020830191506020880192505f5b81811015612534576125238385516120a7565b602094909401939250600101612510565b505083810360408501526125488187612111565b915050828103606084015261255d8185612111565b979650505050505050565b604081525f61257a6040830185612111565b82810360208401526121fc8185612111565b5f5f5f6060848603121561259e575f5ffd5b83356125a981611fbb565b925060208401356125b981611fbb565b915060408401356125c981611fbb565b809150509250925092565b602081525f61078d6020830184612048565b81511515815261016081016020830151612604602084018215159052565b506040830151612618604084018215159052565b50606083015161262c606084018215159052565b506080830151612640608084018215159052565b5060a083015161265460a084018215159052565b5060c083015161266860c084018215159052565b5060e083015161267c60e084018215159052565b5061010083015161269261010084018215159052565b506101208301516126a861012084018215159052565b506101408301516126c56101408401826001600160a01b03169052565b5092915050565b81518051151582526020808201511515908301526040808201511515908301526060908101511515908201526101a0810160208301516080830152604083015160a0830152606083015160c0830152608083015161273360e084018264ffffffffff169052565b5060a083015163ffffffff166101008381019190915260c084015115156101208085019190915260e085015115156101408501529084015115156101608401528301518015156101808401526126c5565b6001600160a01b0392831681529116602082015260400190565b5f602082840312156127ae575f5ffd5b5051919050565b8051611fdd81611fbb565b5f602082840312156127d0575f5ffd5b815161078d81611fbb565b80518015158114611fdd575f5ffd5b5f602082840312156127fa575f5ffd5b61078d826127db565b5f82601f830112612812575f5ffd5b815161282061232f826122f0565b8082825260208201915060208360051b860101925085831115612841575f5ffd5b602085015b8381101561237257805161285981611fbb565b835260209283019201612846565b5f82601f830112612876575f5ffd5b815161288461232f826122f0565b808282526020820191506020606084028601019250858311156128a5575f5ffd5b602085015b8381101561237257606081880312156128c1575f5ffd5b6128c9612241565b81516128d4816122d9565b815260208201516128e481611fbb565b60208201526128f5604083016127db565b604082015283526020909201916060016128aa565b5f82601f830112612919575f5ffd5b815161292761232f826122f0565b8082825260208201915060208360051b860101925085831115612948575f5ffd5b602085015b8381101561237257805183526020928301920161294d565b5f60208284031215612975575f5ffd5b81516001600160401b0381111561298a575f5ffd5b820160e0818503121561299b575f5ffd5b6129a3612219565b8151815260208201516001600160401b038111156129bf575f5ffd5b6129cb86828501612803565b60208301525060408201516001600160401b038111156129e9575f5ffd5b6129f586828501612867565b60408301525060608201516001600160401b03811115612a13575f5ffd5b612a1f8682850161290a565b60608301525060808201516001600160401b03811115612a3d575f5ffd5b612a498682850161290a565b60808301525060a08201516001600160401b03811115612a67575f5ffd5b612a738682850161290a565b60a08301525060c08201516001600160401b03811115612a91575f5ffd5b612a9d8682850161290a565b60c083015250949350505050565b805163ffffffff81168114611fdd575f5ffd5b5f5f5f5f60808587031215612ad1575f5ffd5b612ada856127db565b9350612ae860208601612aab565b9250612af660408601612aab565b91506060850151612b0681611fbb565b939692955090935050565b5f60208284031215612b21575f5ffd5b61078d82612aab565b5f60808284031215612b3a575f5ffd5b604051608081016001600160401b0381118282101715612b5c57612b5c612205565b604052905080612b6b836127db565b8152612b79602084016127db565b6020820152612b8a604084016127db565b6040820152612b9b606084016127db565b60608201525092915050565b805164ffffffffff81168114611fdd575f5ffd5b5f6101a0828403128015612bcd575f5ffd5b50612bd6612263565b612be08484612b2a565b81526080830151602082015260a0830151604082015260c08301516060820152612c0c60e08401612ba7565b6080820152612c1e6101008401612aab565b60a0820152612c3061012084016127db565b60c0820152612c4261014084016127db565b60e0820152612c5461016084016127db565b610100820152612c6761018084016127db565b6101208201529392505050565b5f5f60408385031215612c85575f5ffd5b505080516020909101519092909150565b6001600160a01b03831681526040602082015281515f90612cb68161208b565b8060408401525060208301516060830152604083015160e06080840152612ce1610120840182612111565b9050606084015160a0840152608084015160c084015260018060a01b0360a08501511660e084015260c0840151603f198483030161010085015280518083528060208301602085015e5f602082850101526020601f19601f83011684010193505050509392505050565b5f60208284031215612d5b575f5ffd5b81516001600160401b03811115612d70575f5ffd5b6115cc8482850161290a565b5f5f5f5f60808587031215612d8f575f5ffd5b84516001600160401b03811115612da4575f5ffd5b612db087828801612803565b602087015190955090506001600160401b03811115612dcd575f5ffd5b612dd987828801612867565b604087015190945090506001600160401b03811115612df6575f5ffd5b612e028782880161290a565b606087015190935090506001600160401b03811115612e1f575f5ffd5b612e2b8782880161290a565b91505092959194509250565b5f5f60408385031215612e48575f5ffd5b82516001600160401b03811115612e5d575f5ffd5b612e698582860161290a565b602085015190935090506001600160401b03811115612e86575f5ffd5b612e928582860161290a565b9150509250929050565b5f5f5f60608486031215612eae575f5ffd5b612eb7846127db565b9250612ec560208501612aab565b9150612ed360408501612aab565b90509250925092565b5f60208284031215612eec575f5ffd5b81516001600160401b03811115612f01575f5ffd5b6115cc84828501612803565b5f610160828403128015612f1f575f5ffd5b50612f28612286565b612f31836127db565b8152612f3f602084016127db565b6020820152612f50604084016127db565b6040820152612f61606084016127db565b6060820152612f72608084016127db565b6080820152612f8360a084016127db565b60a0820152612f9460c084016127db565b60c0820152612fa560e084016127db565b60e0820152612fb761010084016127db565b610100820152612fca61012084016127db565b610120820152612fdd61014084016127b5565b6101408201529392505050565b5f6060828403128015612ffb575f5ffd5b50613004612241565b825161300f81611fbb565b8152602083015161301f81611fbb565b6020820152604083015161303281611fbb565b6040820152939250505056fea2646970667358221220822f32bef59a6edccb5c9becb283bdf583d3ae7f22c52a63ad7c9fde39d78d3764736f6c634300081e0033","linkReferences":{}},"methodIdentifiers":{"allowance(address,address,address)":"927da105","areBuffersPaused()":"55cba7fe","balanceOf(address,address)":"f7888aec","collectAggregateFees(address)":"8f4ab9ca","computeDynamicSwapFeePercentage(address,(uint8,uint256,uint256[],uint256,uint256,address,bytes))":"4d472bdd","enableRecoveryMode(address)":"dc3f574e","getAddLiquidityCalledFlag(address)":"ace9b89b","getAggregateFeePercentages(address)":"295f0540","getAggregateSwapFeeAmount(address,address)":"85e0b999","getAggregateYieldFeeAmount(address,address)":"00fdfa13","getAuthorizer()":"aaabadc5","getBptRate(address)":"4f037ee7","getBufferAsset(address)":"0387587d","getBufferBalance(address)":"4021fe0f","getBufferMinimumTotalSupply()":"26a8a991","getBufferOwnerShares(address,address)":"9385e39a","getBufferPeriodDuration()":"20c1fb7a","getBufferPeriodEndTime()":"cd51c12f","getBufferTotalShares(address)":"f2784e07","getCurrentLiveBalances(address)":"535cfd8a","getERC4626BufferAsset(address)":"4afbaf5a","getHooksConfig(address)":"ce8630d4","getMaximumPoolTokens()":"2e42f4d5","getMinimumPoolTokens()":"a8175b27","getMinimumTradeAmount()":"e2cb0ba0","getMinimumWrapAmount()":"53956aa2","getNonzeroDeltaCount()":"db817187","getPauseWindowEndTime()":"8a8d123a","getPoolConfig(address)":"f29486a1","getPoolData(address)":"13d21cdf","getPoolMinimumTotalSupply()":"d0965a6b","getPoolPausedState(address)":"15e32046","getPoolRoleAccounts(address)":"e9ddeb26","getPoolTokenCountAndIndexOfToken(address,address)":"c9c1661b","getPoolTokenInfo(address)":"67e0e076","getPoolTokenRates(address)":"7e361bde","getPoolTokens(address)":"ca4f2803","getProtocolFeeController()":"85f2dbd4","getReservesOf(address)":"96787092","getStaticSwapFeePercentage(address)":"b45090f9","getTokenDelta(address)":"9e825ff5","getVault()":"8d928af8","getVaultAdmin()":"1ba0ae45","getVaultExtension()":"b9a8effa","getVaultPausedState()":"85c8c015","isERC4626BufferInitialized(address)":"6844846b","isPoolInRecoveryMode(address)":"be7d628a","isPoolInitialized(address)":"532cec7c","isPoolPaused(address)":"6c9bc732","isPoolRegistered(address)":"c673bdaf","isQueryDisabled()":"b4aef0ab","isQueryDisabledPermanently()":"13ef8a5d","isUnlocked()":"8380edb7","isVaultPaused()":"098401f5","totalSupply(address)":"e4dc2aa4"},"id":346}