{"abi":[{"type":"function","name":"burn","inputs":[{"name":"pool","type":"address","internalType":"address"},{"name":"feeToken","type":"address","internalType":"contract IERC20"},{"name":"exactFeeTokenAmountIn","type":"uint256","internalType":"uint256"},{"name":"targetToken","type":"address","internalType":"contract IERC20"},{"name":"minAmountOut","type":"uint256","internalType":"uint256"},{"name":"recipient","type":"address","internalType":"address"},{"name":"deadline","type":"uint256","internalType":"uint256"}],"outputs":[],"stateMutability":"nonpayable"},{"type":"function","name":"setTokenRatio","inputs":[{"name":"ratio","type":"uint256","internalType":"uint256"}],"outputs":[],"stateMutability":"nonpayable"},{"type":"function","name":"setTransferFromEnabled","inputs":[{"name":"enabled","type":"bool","internalType":"bool"}],"outputs":[],"stateMutability":"nonpayable"},{"type":"event","name":"ProtocolFeeBurned","inputs":[{"name":"pool","type":"address","indexed":true,"internalType":"address"},{"name":"feeToken","type":"address","indexed":true,"internalType":"contract IERC20"},{"name":"exactFeeTokenAmountIn","type":"uint256","indexed":false,"internalType":"uint256"},{"name":"targetToken","type":"address","indexed":true,"internalType":"contract IERC20"},{"name":"actualTargetTokenAmountOut","type":"uint256","indexed":false,"internalType":"uint256"},{"name":"recipient","type":"address","indexed":false,"internalType":"address"}],"anonymous":false},{"type":"error","name":"AmountOutBelowMin","inputs":[{"name":"tokenOut","type":"address","internalType":"contract IERC20"},{"name":"amountOut","type":"uint256","internalType":"uint256"},{"name":"minAmountOut","type":"uint256","internalType":"uint256"}]},{"type":"error","name":"SwapDeadline","inputs":[]}],"bytecode":{"object":"0x6080604052670de0b6b3a76400005f556001805460ff1916811790553480156025575f5ffd5b506103d3806100335f395ff3fe608060405234801561000f575f5ffd5b506004361061003f575f3560e01c80637d341ad614610043578063de557a3214610066578063e38e91f914610079575b5f5ffd5b610064610051366004610290565b6001805460ff1916911515919091179055565b005b6100646100743660046102cd565b61008b565b610064610087366004610344565b5f55565b804211156100ac57604051630e08b8af60e41b815260040160405180910390fd5b60015460ff16156100cc576100cc6001600160a01b0387163330886101fb565b6040516340c10f1960e01b81526001600160a01b038381166004830152602482018790528516906340c10f19906044015f604051808303815f87803b158015610113575f5ffd5b505af1158015610125573d5f5f3e3d5ffd5b505050505f61013e5f548761020d90919063ffffffff16565b90508381101561017e576040516317bc2f2360e11b81526001600160a01b0386166004820152602481018290526044810185905260640160405180910390fd5b846001600160a01b0316876001600160a01b0316896001600160a01b03167f77a7b034dbb42c9087518e95b49c02a17704a521555779f3f9d7f1b26df5ce8d8985886040516101e99392919092835260208301919091526001600160a01b0316604082015260600190565b60405180910390a45050505050505050565b61020784848484610237565b50505050565b5f80610219838561035b565b905061022d670de0b6b3a76400008261037e565b9150505b92915050565b60405181606052826040528360601b602c526323b872dd60601b600c5260205f6064601c5f895af18060015f51141661028257803d873b15171061028257637939f4245f526004601cfd5b505f60605260405250505050565b5f602082840312156102a0575f5ffd5b813580151581146102af575f5ffd5b9392505050565b6001600160a01b03811681146102ca575f5ffd5b50565b5f5f5f5f5f5f5f60e0888a0312156102e3575f5ffd5b87356102ee816102b6565b965060208801356102fe816102b6565b9550604088013594506060880135610315816102b6565b93506080880135925060a088013561032c816102b6565b96999598509396929591949193505060c09091013590565b5f60208284031215610354575f5ffd5b5035919050565b808202811582820484141761023157634e487b7160e01b5f52601160045260245ffd5b5f8261039857634e487b7160e01b5f52601260045260245ffd5b50049056fea2646970667358221220a2dbf05ee3905504e589b0862d3e132bd01a56a8743b95216acc4f8d9dc80a6564736f6c634300081e0033","linkReferences":{}},"methodIdentifiers":{"burn(address,address,uint256,address,uint256,address,uint256)":"de557a32","setTokenRatio(uint256)":"e38e91f9","setTransferFromEnabled(bool)":"7d341ad6"},"id":322}