{"abi":[{"type":"constructor","inputs":[{"name":"_ve","type":"address","internalType":"address"}],"stateMutability":"nonpayable"},{"type":"function","name":"circles","inputs":[{"name":"cfg","type":"tuple","internalType":"struct IVeArtProxy.Config","components":[{"name":"_tokenId","type":"int256","internalType":"int256"},{"name":"_balanceOf","type":"int256","internalType":"int256"},{"name":"_lockedEnd","type":"int256","internalType":"int256"},{"name":"_lockedAmount","type":"int256","internalType":"int256"},{"name":"shape","type":"int256","internalType":"int256"},{"name":"palette","type":"uint256","internalType":"uint256"},{"name":"maxLines","type":"int256","internalType":"int256"},{"name":"dash","type":"int256","internalType":"int256"},{"name":"seed1","type":"int256","internalType":"int256"},{"name":"seed2","type":"int256","internalType":"int256"},{"name":"seed3","type":"int256","internalType":"int256"}]},{"name":"l","type":"int256","internalType":"int256"}],"outputs":[{"name":"Line","type":"tuple[100]","internalType":"struct IVeArtProxy.Point[100]","components":[{"name":"x","type":"int256","internalType":"int256"},{"name":"y","type":"int256","internalType":"int256"}]}],"stateMutability":"pure"},{"type":"function","name":"corners","inputs":[{"name":"cfg","type":"tuple","internalType":"struct IVeArtProxy.Config","components":[{"name":"_tokenId","type":"int256","internalType":"int256"},{"name":"_balanceOf","type":"int256","internalType":"int256"},{"name":"_lockedEnd","type":"int256","internalType":"int256"},{"name":"_lockedAmount","type":"int256","internalType":"int256"},{"name":"shape","type":"int256","internalType":"int256"},{"name":"palette","type":"uint256","internalType":"uint256"},{"name":"maxLines","type":"int256","internalType":"int256"},{"name":"dash","type":"int256","internalType":"int256"},{"name":"seed1","type":"int256","internalType":"int256"},{"name":"seed2","type":"int256","internalType":"int256"},{"name":"seed3","type":"int256","internalType":"int256"}]},{"name":"l","type":"int256","internalType":"int256"}],"outputs":[{"name":"Line","type":"tuple[100]","internalType":"struct IVeArtProxy.Point[100]","components":[{"name":"x","type":"int256","internalType":"int256"},{"name":"y","type":"int256","internalType":"int256"}]}],"stateMutability":"pure"},{"type":"function","name":"curves","inputs":[{"name":"cfg","type":"tuple","internalType":"struct IVeArtProxy.Config","components":[{"name":"_tokenId","type":"int256","internalType":"int256"},{"name":"_balanceOf","type":"int256","internalType":"int256"},{"name":"_lockedEnd","type":"int256","internalType":"int256"},{"name":"_lockedAmount","type":"int256","internalType":"int256"},{"name":"shape","type":"int256","internalType":"int256"},{"name":"palette","type":"uint256","internalType":"uint256"},{"name":"maxLines","type":"int256","internalType":"int256"},{"name":"dash","type":"int256","internalType":"int256"},{"name":"seed1","type":"int256","internalType":"int256"},{"name":"seed2","type":"int256","internalType":"int256"},{"name":"seed3","type":"int256","internalType":"int256"}]},{"name":"l","type":"int256","internalType":"int256"}],"outputs":[{"name":"Line","type":"tuple[100]","internalType":"struct IVeArtProxy.Point[100]","components":[{"name":"x","type":"int256","internalType":"int256"},{"name":"y","type":"int256","internalType":"int256"}]}],"stateMutability":"pure"},{"type":"function","name":"explosion","inputs":[{"name":"cfg","type":"tuple","internalType":"struct IVeArtProxy.Config","components":[{"name":"_tokenId","type":"int256","internalType":"int256"},{"name":"_balanceOf","type":"int256","internalType":"int256"},{"name":"_lockedEnd","type":"int256","internalType":"int256"},{"name":"_lockedAmount","type":"int256","internalType":"int256"},{"name":"shape","type":"int256","internalType":"int256"},{"name":"palette","type":"uint256","internalType":"uint256"},{"name":"maxLines","type":"int256","internalType":"int256"},{"name":"dash","type":"int256","internalType":"int256"},{"name":"seed1","type":"int256","internalType":"int256"},{"name":"seed2","type":"int256","internalType":"int256"},{"name":"seed3","type":"int256","internalType":"int256"}]},{"name":"l","type":"int256","internalType":"int256"}],"outputs":[{"name":"Line","type":"tuple[100]","internalType":"struct IVeArtProxy.Point[100]","components":[{"name":"x","type":"int256","internalType":"int256"},{"name":"y","type":"int256","internalType":"int256"}]}],"stateMutability":"pure"},{"type":"function","name":"generateConfig","inputs":[{"name":"_tokenId","type":"uint256","internalType":"uint256"}],"outputs":[{"name":"cfg","type":"tuple","internalType":"struct IVeArtProxy.Config","components":[{"name":"_tokenId","type":"int256","internalType":"int256"},{"name":"_balanceOf","type":"int256","internalType":"int256"},{"name":"_lockedEnd","type":"int256","internalType":"int256"},{"name":"_lockedAmount","type":"int256","internalType":"int256"},{"name":"shape","type":"int256","internalType":"int256"},{"name":"palette","type":"uint256","internalType":"uint256"},{"name":"maxLines","type":"int256","internalType":"int256"},{"name":"dash","type":"int256","internalType":"int256"},{"name":"seed1","type":"int256","internalType":"int256"},{"name":"seed2","type":"int256","internalType":"int256"},{"name":"seed3","type":"int256","internalType":"int256"}]}],"stateMutability":"view"},{"type":"function","name":"interlockingCircles","inputs":[{"name":"cfg","type":"tuple","internalType":"struct IVeArtProxy.Config","components":[{"name":"_tokenId","type":"int256","internalType":"int256"},{"name":"_balanceOf","type":"int256","internalType":"int256"},{"name":"_lockedEnd","type":"int256","internalType":"int256"},{"name":"_lockedAmount","type":"int256","internalType":"int256"},{"name":"shape","type":"int256","internalType":"int256"},{"name":"palette","type":"uint256","internalType":"uint256"},{"name":"maxLines","type":"int256","internalType":"int256"},{"name":"dash","type":"int256","internalType":"int256"},{"name":"seed1","type":"int256","internalType":"int256"},{"name":"seed2","type":"int256","internalType":"int256"},{"name":"seed3","type":"int256","internalType":"int256"}]},{"name":"l","type":"int256","internalType":"int256"}],"outputs":[{"name":"Line","type":"tuple[100]","internalType":"struct IVeArtProxy.Point[100]","components":[{"name":"x","type":"int256","internalType":"int256"},{"name":"y","type":"int256","internalType":"int256"}]}],"stateMutability":"pure"},{"type":"function","name":"lineArtPathsOnly","inputs":[{"name":"_tokenId","type":"uint256","internalType":"uint256"}],"outputs":[{"name":"output","type":"bytes","internalType":"bytes"}],"stateMutability":"view"},{"type":"function","name":"spiral","inputs":[{"name":"cfg","type":"tuple","internalType":"struct IVeArtProxy.Config","components":[{"name":"_tokenId","type":"int256","internalType":"int256"},{"name":"_balanceOf","type":"int256","internalType":"int256"},{"name":"_lockedEnd","type":"int256","internalType":"int256"},{"name":"_lockedAmount","type":"int256","internalType":"int256"},{"name":"shape","type":"int256","internalType":"int256"},{"name":"palette","type":"uint256","internalType":"uint256"},{"name":"maxLines","type":"int256","internalType":"int256"},{"name":"dash","type":"int256","internalType":"int256"},{"name":"seed1","type":"int256","internalType":"int256"},{"name":"seed2","type":"int256","internalType":"int256"},{"name":"seed3","type":"int256","internalType":"int256"}]},{"name":"l","type":"int256","internalType":"int256"}],"outputs":[{"name":"Line","type":"tuple[100]","internalType":"struct IVeArtProxy.Point[100]","components":[{"name":"x","type":"int256","internalType":"int256"},{"name":"y","type":"int256","internalType":"int256"}]}],"stateMutability":"pure"},{"type":"function","name":"tokenURI","inputs":[{"name":"_tokenId","type":"uint256","internalType":"uint256"}],"outputs":[{"name":"output","type":"string","internalType":"string"}],"stateMutability":"view"},{"type":"function","name":"twoStripes","inputs":[{"name":"cfg","type":"tuple","internalType":"struct IVeArtProxy.Config","components":[{"name":"_tokenId","type":"int256","internalType":"int256"},{"name":"_balanceOf","type":"int256","internalType":"int256"},{"name":"_lockedEnd","type":"int256","internalType":"int256"},{"name":"_lockedAmount","type":"int256","internalType":"int256"},{"name":"shape","type":"int256","internalType":"int256"},{"name":"palette","type":"uint256","internalType":"uint256"},{"name":"maxLines","type":"int256","internalType":"int256"},{"name":"dash","type":"int256","internalType":"int256"},{"name":"seed1","type":"int256","internalType":"int256"},{"name":"seed2","type":"int256","internalType":"int256"},{"name":"seed3","type":"int256","internalType":"int256"}]},{"name":"l","type":"int256","internalType":"int256"}],"outputs":[{"name":"Line","type":"tuple[100]","internalType":"struct IVeArtProxy.Point[100]","components":[{"name":"x","type":"int256","internalType":"int256"},{"name":"y","type":"int256","internalType":"int256"}]}],"stateMutability":"pure"},{"type":"function","name":"ve","inputs":[],"outputs":[{"name":"","type":"address","internalType":"contract IVotingEscrow"}],"stateMutability":"view"},{"type":"function","name":"wormhole","inputs":[{"name":"cfg","type":"tuple","internalType":"struct IVeArtProxy.Config","components":[{"name":"_tokenId","type":"int256","internalType":"int256"},{"name":"_balanceOf","type":"int256","internalType":"int256"},{"name":"_lockedEnd","type":"int256","internalType":"int256"},{"name":"_lockedAmount","type":"int256","internalType":"int256"},{"name":"shape","type":"int256","internalType":"int256"},{"name":"palette","type":"uint256","internalType":"uint256"},{"name":"maxLines","type":"int256","internalType":"int256"},{"name":"dash","type":"int256","internalType":"int256"},{"name":"seed1","type":"int256","internalType":"int256"},{"name":"seed2","type":"int256","internalType":"int256"},{"name":"seed3","type":"int256","internalType":"int256"}]},{"name":"l","type":"int256","internalType":"int256"}],"outputs":[{"name":"Line","type":"tuple[100]","internalType":"struct IVeArtProxy.Point[100]","components":[{"name":"x","type":"int256","internalType":"int256"},{"name":"y","type":"int256","internalType":"int256"}]}],"stateMutability":"pure"}],"bytecode":{"object":"0x60076102808181526611a31aa319a29b60c91b6102a0526101e09081526102c08281526611a222222121a360c91b6102e05261020052610300828152662343364335424160c81b61032052610220526103408281526611a118a118209b60c91b6103605261024052610380828152662339443942393360c81b6103a0526102605260a0908152610460828152660234646313130360cc1b6104808190526103c09182526104a08481526611a29b1823181960c91b6104c0526103e0526104e08481526608d0d18c118c0d60ca1b61050052610400526105208481526611a11c9822981b60c91b6105405261042052610560848152662341343044303960c81b610580526104405260c09190915261064083815266119ca1a0a2232360c91b6106608190526105a091825261068085815266119c221ca1a29b60c91b6106a0526105c0526106c085815266119ba29c21a1a360c91b6106e0526105e052610700858152660466e626e8884760cb1b6107205261060052610740858152662336343645413360c81b610760526106205260e0919091526108208481526611981a1999a32360c91b6108408190526107809182526108608681526611981a1922a29b60c91b610880526107a0526108a08681526611981a191ca1a360c91b6108c0526107c0526108e0868152660466066646a84760cb1b610900526107e052610920868152662330323231413360c81b610940526108005261010091909152610a008581526611a318a2a1a29960c91b610a2052610960908152610a40868152662344414436434560c81b610a605261098052610a80868152662343344330424360c81b610aa0526109a052610ac0868152662338453843384560c81b610ae0526109c052610b00868152662337453744383160c81b610b20526109e05261012052610be08581526611a29b9b231a2160c91b610c0052610b40908152610c20868152662344303634343360c81b610c4052610b6052610c60868152662342423541334360c81b610c8052610b8052610ca08681526611a09b9a98199b60c91b610cc052610ba052610ce0868152660233934343733360cc1b610d0052610bc05261014052610dc0858152610de093909352610d20928352610e008581526611a19ca218231960c91b610e2052610d4052610e40858152610e6092909252610d6091909152610e80848152610ea091909152610d8052610ec08381526608cc10cc110c5160ca1b610ee052610da05261016052610fa0828152662337373538374160c81b610fc052610f00908152610fe0838152662336423530364560c81b61100052610f2052611020838152662336303437363360c81b61104052610f4052611060838152660466a6c68606a760cb1b61108052610f60526110a0838152662334433338344560c81b6110c052610f805261018052611180828152662331313045303760c81b6111a0526110e09081526111c0838152660466284646a66760cb1b6111e05261110052611200838152662330323036313760c81b6112205261112052611240838152662330313035313360c81b6112605261114052611280838152660233030303030360cc1b6112a052611160526101a052611360828152662342353843384360c81b611380526112c09081526113a0838152662341433835383560c81b6113c0526112e0526113e0838152662339413737373760c81b6114005261130052611420838152662338413641364160c81b61144052611320526114a0604052611460928352662337413545354560c81b61148052611340929092526101c091909152610531905f90600a6105a7565b506040805160a0810182525f8152600260208201819052918101919091526005606082018190526080820181905261056b916032916105f2565b50348015610577575f5ffd5b5060405161440c38038061440c83398101604081905261059691610758565b6001600160a01b03166080526108d7565b6032830191839082156105e2579160200282015b828111156105e25782516105d2908390600561067e565b50916020019190600501906105bb565b506105ee9291506106c3565b5090565b600183019183908215610672579160200282015f5b8382111561064457835183826101000a81548160ff021916908360ff16021790555092602001926001016020815f01049283019260010302610607565b80156106705782816101000a81549060ff02191690556001016020815f01049283019260010302610644565b505b506105ee9291506106df565b82600581019282156106b7579160200282015b828111156106b757825182906106a7908261081d565b5091602001919060010190610691565b506105ee9291506106f3565b808211156105ee575f6106d6828261070f565b506005016106c3565b5b808211156105ee575f81556001016106e0565b808211156105ee575f6107068282610721565b506001016106f3565b5061071e9060058101906106f3565b50565b50805461072d90610799565b5f825580601f1061073c575050565b601f0160209004905f5260205f209081019061071e91906106df565b5f60208284031215610768575f5ffd5b81516001600160a01b038116811461077e575f5ffd5b9392505050565b634e487b7160e01b5f52604160045260245ffd5b600181811c908216806107ad57607f821691505b6020821081036107cb57634e487b7160e01b5f52602260045260245ffd5b50919050565b601f82111561081857805f5260205f20601f840160051c810160208510156107f65750805b601f840160051c820191505b81811015610815575f8155600101610802565b50505b505050565b81516001600160401b0381111561083657610836610785565b61084a816108448454610799565b846107d1565b6020601f82116001811461087c575f83156108655750848201515b5f19600385901b1c1916600184901b178455610815565b5f84815260208120601f198516915b828110156108ab578785015182556020948501946001909201910161088b565b50848210156108c857868401515f19600387901b60f8161c191681555b50505050600190811b01905550565b608051613b106108fc5f395f818160d401528181611c380152611cc60152613b105ff3fe608060405234801561000f575f5ffd5b50600436106100a2575f3560e01c80631e7a79c4146100a65780631f850716146100cf57806334ef880c1461010e5780635d32636714610121578063751ee4d11461013457806376a07fbb146101475780638165ae851461015a5780638e1ba1a31461016d5780639108138b14610180578063990379fa14610193578063a707e80d1461022a578063c87b56dd1461024a575b5f5ffd5b6100b96100b4366004612e44565b61025d565b6040516100c69190612ee7565b60405180910390f35b6100f67f000000000000000000000000000000000000000000000000000000000000000081565b6040516001600160a01b0390911681526020016100c6565b6100b961011c366004612e44565b6104ea565b6100b961012f366004612e44565b61067f565b6100b9610142366004612e44565b6109e5565b6100b9610155366004612e44565b610d33565b6100b9610168366004612e44565b611284565b6100b961017b366004612e44565b6115a7565b6100b961018e366004612e44565b611867565b6101a66101a1366004612f24565b611bc7565b6040516100c691905f61016082019050825182526020830151602083015260408301516040830152606083015160608301526080830151608083015260a083015160a083015260c083015160c083015260e083015160e083015261010083015161010083015261012083015161012083015261014083015161014083015292915050565b61023d610238366004612f24565b611dd8565b6040516100c69190612f69565b61023d610258366004612f24565b611e16565b610265612dc2565b5f60648461010001516102789190612f96565b61028390601e612fbd565b61028f906101f4612fec565b90505f60648561012001516102a49190612f96565b6102af90601e612fbd565b6102bb906101f4612fec565b90505f6102c9856001612fec565b6102d4906064612fbd565b60fa8761014001516102e69190612f96565b6102f19060fa612fec565b6102fb9190612fec565b90505f600161030b600288612f96565b610316906002612fbd565b6103209190613013565b90505f5b60648110156104df575f606382610344672b992ddfa23249d66002613032565b61035690670de0b6b3a7640000613032565b6103609190613032565b61036a9190613049565b604080518082019182905263cb5cc10960e01b9091526044810182905290915080670de0b6b3a764000073__$ba3ca8801421460ae0f75f3097f5987c31$__63cb5cc10960648401602060405180830381865af41580156103cd573d5f5f3e3d5ffd5b505050506040513d601f19601f820116820180604052508101906103f1919061305c565b6103fb9088612fbd565b6104059190613073565b61040f9089612fec565b8152602001670de0b6b3a764000073__$ba3ca8801421460ae0f75f3097f5987c31$__63a58b00ba856040518263ffffffff1660e01b815260040161045691815260200190565b602060405180830381865af4158015610471573d5f5f3e3d5ffd5b505050506040513d601f19601f82011682018060405250810190610495919061305c565b61049f8888612fbd565b6104a99190612fbd565b6104b39190613073565b6104bd9088612fec565b90528783606481106104d1576104d161309f565b602002015250600101610324565b505050505092915050565b6104f2612dc2565b60c08301515f90610505846104e2612fbd565b61050f9190613073565b61012085015161052190610898612fec565b61052b9190612fec565b6002610538856001612fec565b6105429190612f96565b61054c9190612fbd565b60c085015161055d856104e2612fbd565b6105679190613073565b6101408601516105789060c8612fec565b6105829190612fec565b61058d600286612f96565b6105979190612fbd565b6105a19190612fec565b90505f60028561010001516105b69190612f96565b90505f600286610100015160016105cd9190612fec565b6105d79190612f96565b90505f6105e48484612fbd565b90505f6105f18584612fbd565b90505f5b606481121561067357604051806040016040528084868460296106189190612fbd565b6106229190612fbd565b61062c9190612fec565b8152602001838761063e856029612fbd565b6106489190612fbd565b6106529190612fec565b90528782606481106106665761066661309f565b60200201526001016105f5565b50505050505092915050565b610687612dc2565b5f620f424073__$ba3ca8801421460ae0f75f3097f5987c31$__633925b56d6106b186605a612fbd565b6040518263ffffffff1660e01b81526004016106cf91815260200190565b602060405180830381865af41580156106ea573d5f5f3e3d5ffd5b505050506040513d601f19601f8201168201806040525081019061070e919061305c565b610719856064612fbd565b6107239190612fbd565b61072d9190613073565b61010085015161073f906105dc612fec565b6107499190612fec565b90505f620f424073__$ba3ca8801421460ae0f75f3097f5987c31$__6348e5916b61077587605a612fbd565b6040518263ffffffff1660e01b815260040161079391815260200190565b602060405180830381865af41580156107ae573d5f5f3e3d5ffd5b505050506040513d601f19601f820116820180604052508101906107d2919061305c565b6107dd866064612fbd565b6107e79190612fbd565b6107f19190613073565b610120860151610803906105dc612fec565b61080d9190612fec565b90505f61081b856001612fec565b610826906064612fbd565b90505f5b60648110156109db575f60638261084a672b992ddfa23249d66002613032565b61085c90670de0b6b3a7640000613032565b6108669190613032565b6108709190613049565b60408051808201918290526352c5805d60e11b9091526044810182905290915080670de0b6b3a764000073__$ba3ca8801421460ae0f75f3097f5987c31$__63a58b00ba60648401602060405180830381865af41580156108d3573d5f5f3e3d5ffd5b505050506040513d601f19601f820116820180604052508101906108f7919061305c565b6109019087612fbd565b61090b9190613073565b6109159088612fec565b8152602001670de0b6b3a764000073__$ba3ca8801421460ae0f75f3097f5987c31$__63cb5cc109856040518263ffffffff1660e01b815260040161095c91815260200190565b602060405180830381865af4158015610977573d5f5f3e3d5ffd5b505050506040513d601f19601f8201168201806040525081019061099b919061305c565b6109a59087612fbd565b6109af9190613073565b6109b99087612fec565b90528683606481106109cd576109cd61309f565b60200201525060010161082a565b5050505092915050565b6109ed612dc2565b5f6064846101000151610a009190612f96565b610a0b90601e612fbd565b610a17906101f4612fec565b90505f6064856101200151610a2c9190612f96565b610a3790601e612fbd565b610a43906101f4612fec565b90505f8560c0015185610168610a599190612fbd565b610a639190613073565b604051633925b56d60e01b8152600481018290529091505f9073__$ba3ca8801421460ae0f75f3097f5987c31$__90633925b56d90602401602060405180830381865af4158015610ab6573d5f5f3e3d5ffd5b505050506040513d601f19601f82011682018060405250810190610ada919061305c565b6040516348e5916b60e01b8152600481018490529091505f9073__$ba3ca8801421460ae0f75f3097f5987c31$__906348e5916b90602401602060405180830381865af4158015610b2d573d5f5f3e3d5ffd5b505050506040513d601f19601f82011682018060405250810190610b51919061305c565b90505f5b6064811215610673575f610b6a826003612fbd565b610b749086612fec565b6040805180820191829052633925b56d60e01b9091526044810182905290915080620f424073__$ba3ca8801421460ae0f75f3097f5987c31$__633925b56d60648401602060405180830381865af4158015610bd2573d5f5f3e3d5ffd5b505050506040513d601f19601f82011682018060405250810190610bf6919061305c565b610c01866028612fbd565b610c0b9190612fbd565b610c159190613073565b620f4240610c2588610145612fbd565b610c2f9190613073565b610c39908b612fec565b610c439190612fec565b8152602001620f424073__$ba3ca8801421460ae0f75f3097f5987c31$__6348e5916b856040518263ffffffff1660e01b8152600401610c8591815260200190565b602060405180830381865af4158015610ca0573d5f5f3e3d5ffd5b505050506040513d601f19601f82011682018060405250810190610cc4919061305c565b610ccf866028612fbd565b610cd99190612fbd565b610ce39190613073565b620f4240610cf387610145612fbd565b610cfd9190613073565b610d07908a612fec565b610d119190612fec565b9052888360648110610d2557610d2561309f565b602002015250600101610b55565b610d3b612dc2565b5f6103e8846101000151610168610d529190612fbd565b610d5c9190613073565b90505f6103e88561010001516101f4610d759190612fec565b610d8190610168612fbd565b610d8b9190613073565b90505f620f424073__$ba3ca8801421460ae0f75f3097f5987c31$__633925b56d846040518263ffffffff1660e01b8152600401610dcb91815260200190565b602060405180830381865af4158015610de6573d5f5f3e3d5ffd5b505050506040513d601f19601f82011682018060405250810190610e0a919061305c565b610e16906104b0612fbd565b6002610e23886001612fec565b610e2d9190612f96565b610e379190612fbd565b610e419190613073565b604051633925b56d60e01b815260048101859052620f42409073__$ba3ca8801421460ae0f75f3097f5987c31$__90633925b56d90602401602060405180830381865af4158015610e94573d5f5f3e3d5ffd5b505050506040513d601f19601f82011682018060405250810190610eb8919061305c565b610ec3600289612f96565b610ecf906104b0612fbd565b610ed99190612fbd565b610ee39190613073565b610eef906107d0612fec565b610ef99190612fec565b90505f620f424073__$ba3ca8801421460ae0f75f3097f5987c31$__6348e5916b856040518263ffffffff1660e01b8152600401610f3991815260200190565b602060405180830381865af4158015610f54573d5f5f3e3d5ffd5b505050506040513d601f19601f82011682018060405250810190610f78919061305c565b610f84906104b0612fbd565b6002610f91896001612fec565b610f9b9190612f96565b610fa59190612fbd565b610faf9190613073565b6040516348e5916b60e01b815260048101869052620f42409073__$ba3ca8801421460ae0f75f3097f5987c31$__906348e5916b90602401602060405180830381865af4158015611002573d5f5f3e3d5ffd5b505050506040513d601f19601f82011682018060405250810190611026919061305c565b61103160028a612f96565b61103d906104b0612fbd565b6110479190612fbd565b6110519190613073565b61105d906107d0612fec565b6110679190612fec565b90505f60048860c0015188600161107e9190612fec565b61108a90610fa0612fbd565b6110949190613073565b61109e9190613073565b6110a9906064612fec565b90505f5b6064811215610673575f60636110c583610168612fbd565b6110cf9190613073565b60c08b01516110e08b610168612fbd565b6110ea9190613073565b6110f49190612fec565b6040805180820191829052633925b56d60e01b9091526044810182905290915080620f424073__$ba3ca8801421460ae0f75f3097f5987c31$__633925b56d60648401602060405180830381865af4158015611152573d5f5f3e3d5ffd5b505050506040513d601f19601f82011682018060405250810190611176919061305c565b6111809087612fbd565b61118a9190613073565b6111949088612fec565b8152602001620f424073__$ba3ca8801421460ae0f75f3097f5987c31$__6348e5916b856040518263ffffffff1660e01b81526004016111d691815260200190565b602060405180830381865af41580156111f1573d5f5f3e3d5ffd5b505050506040513d601f19601f82011682018060405250810190611215919061305c565b86600160028f6112259190612f96565b611230906002612fbd565b61123a9190613013565b6112449190612fbd565b61124e9190612fbd565b6112589190613073565b6112629087612fec565b90528883606481106112765761127661309f565b6020020152506001016110ad565b61128c612dc2565b5f609661129c8462010000612fbd565b6112a69190613073565b90505f846101000151620100006112bd9190612fbd565b90505f600286610100015160016112d49190612fec565b6112de9190612f96565b90505f60028761010001516112f39190612f96565b90505f8760c00151876110686113099190612fbd565b6113139190613073565b61131f90606319612fec565b90505f5b6064811215610673575f73__$ba3ca8801421460ae0f75f3097f5987c31$__63cb5cc10960638461135d672b992ddfa23249d66002613032565b61136f90670de0b6b3a7640000613032565b6113799190613032565b6113839190613049565b6040518263ffffffff1660e01b81526004016113a191815260200190565b602060405180830381865af41580156113bc573d5f5f3e3d5ffd5b505050506040513d601f19601f820116820180604052508101906113e0919061305c565b90505f73__$e022ece3ee7c6b8ba72bd5be22246c6b33$__63657d14d1896107d061140e8762010000612fbd565b6114189190613073565b6040516001600160e01b031960e085901b16815260048101929092526024820152604481018a9052606401602060405180830381865af415801561145e573d5f5f3e3d5ffd5b505050506040513d601f19601f82011682018060405250810190611482919061305c565b90505f670de0b6b3a76400006201000061149c8486612fbd565b6114a8906106a4612fbd565b6114b29190613073565b6114bc9190613073565b60636114ca86611068612fbd565b6114d49190613073565b6114e090606319612fec565b6114ea9190612fec565b90505f670de0b6b3a7640000620100006115048587612fbd565b61151090613a98612fbd565b61151a9190613073565b6115249190613073565b61152e9087612fec565b9050604051806040016040528082896115479190612fbd565b611551858c612fbd565b61155b9190612fec565b815260200161156a848a612fbd565b611574848c612fbd565b61157e9190612fec565b90528b86606481106115925761159261309f565b60200201525050600190920191506113239050565b6115af612dc2565b5f60648461010001516115c29190612f96565b6115cd906014612fbd565b6115d9906103e8612fec565b90505f60648561012001516115ee9190612f96565b6115f9906014612fbd565b611605906103e8612fec565b90505f8560c001518561016861161b9190612fbd565b6116259190613073565b90505f61012c6002611638886001612fec565b61164291906131e2565b8861014001516116529190612fbd565b61165c9190612f96565b6116689061012c612fec565b604051633925b56d60e01b8152600481018490529091505f9073__$ba3ca8801421460ae0f75f3097f5987c31$__90633925b56d90602401602060405180830381865af41580156116bb573d5f5f3e3d5ffd5b505050506040513d601f19601f820116820180604052508101906116df919061305c565b6040516348e5916b60e01b8152600481018590529091505f9073__$ba3ca8801421460ae0f75f3097f5987c31$__906348e5916b90602401602060405180830381865af4158015611732573d5f5f3e3d5ffd5b505050506040513d601f19601f82011682018060405250810190611756919061305c565b90505f5b606481121561185a576040518060400160405280620f424085606385610fa06117839190612fbd565b61178d9190613073565b6117979190612fbd565b6117a19190613073565b620f42406117af8789612fbd565b6117b99190613073565b6117c3908b612fec565b6117cd9190612fec565b8152602001620f42408460636117e586610fa0612fbd565b6117ef9190613073565b6117f99190612fbd565b6118039190613073565b620f42406118118689612fbd565b61181b9190613073565b611825908a612fec565b61182f9190612fec565b90528861183d8360636131f0565b6064811061184d5761184d61309f565b602002015260010161175a565b5050505050505092915050565b61186f612dc2565b5f83610100015160036118829190612fbd565b61188e906101f4612fec565b90505f84610120015160036118a39190612fbd565b6118af906101f4612fec565b90505f8560c00151856101686118c59190612fbd565b6118cf9190613073565b604051633925b56d60e01b8152600481018290529091505f9073__$ba3ca8801421460ae0f75f3097f5987c31$__90633925b56d90602401602060405180830381865af4158015611922573d5f5f3e3d5ffd5b505050506040513d601f19601f82011682018060405250810190611946919061305c565b6040516348e5916b60e01b8152600481018490529091505f9073__$ba3ca8801421460ae0f75f3097f5987c31$__906348e5916b90602401602060405180830381865af4158015611999573d5f5f3e3d5ffd5b505050506040513d601f19601f820116820180604052508101906119bd919061305c565b90505f88610100015160036119d29190612fbd565b6119de90610dac613013565b90505f89610120015160036119f39190612fbd565b6119ff90610dac613013565b90505f5b6064811215611bb957604051806040016040528060638584611a259190612fbd565b611a2f9190613073565b620f42406063611a3f8682613013565b6063611a4d88611388612fbd565b611a579190613073565b611a61908c612fbd565b611a6b9190612fbd565b611a759190613073565b611a7f9190613073565b620f4240611a8e8a60fa612fbd565b611a989190613073565b6063611aa48782613013565b611aae908f612fbd565b611ab89190613073565b611ac29190612fec565b611acc9190612fec565b611ad69190612fec565b81526020016063611ae78585612fbd565b611af19190613073565b620f42406063611b018682613013565b6063611b0f88611388612fbd565b611b199190613073565b611b23908b612fbd565b611b2d9190612fbd565b611b379190613073565b611b419190613073565b620f4240611b508960fa612fbd565b611b5a9190613073565b6063611b668782613013565b611b70908e612fbd565b611b7a9190613073565b611b849190612fec565b611b8e9190612fec565b611b989190612fec565b9052898260648110611bac57611bac61309f565b6020020152600101611a03565b505050505050505092915050565b611c196040518061016001604052805f81526020015f81526020015f81526020015f81526020015f81526020015f81526020015f81526020015f81526020015f81526020015f81526020015f81525090565b818152604051637028a55d60e11b8152600481018390524260248201527f00000000000000000000000000000000000000000000000000000000000000006001600160a01b03169063e0514aba90604401602060405180830381865afa158015611c85573d5f5f3e3d5ffd5b505050506040513d601f19601f82011682018060405250810190611ca9919061305c565b6020820152604051635a2d1e0760e11b8152600481018390525f907f00000000000000000000000000000000000000000000000000000000000000006001600160a01b03169063b45a3c0e90602401606060405180830381865afa158015611d13573d5f5f3e3d5ffd5b505050506040513d601f19601f82011682018060405250810190611d379190613203565b602081015160408401528051600f0b606084015290506008611d5884611ff9565b611d629190612f96565b6080830152611d7083612043565b60a08301526020820151611d839061207b565b60c0830152611d9183611ff9565b610100830152611db1611dac84670de0b6b3a7640000613032565b611ff9565b610120830152611dcc611dac84671bc16d674ec80000613032565b61014083015250919050565b60605f611de483611bc7565b9050611def816120aa565b604051602001611dff9190613298565b604051602081830303815290604052915050919050565b60605f611e2283611bc7565b9050611e54611e30826120aa565b604051602001611e4091906132a3565b604051602081830303815290604052612147565b9150606081604001515f03611ebc5781606001515f03611e9457506040805180820190915260098152681122bc3834b932b21160b91b6020820152611f15565b5060408051808201909152600b81526a112832b936b0b732b73a1160a91b6020820152611f15565b5f5f5f611ecc8560400151612154565b91945092509050611edc83612179565b611ee583612179565b611eee83612179565b604051602001611f009392919061334f565b60405160208183030381529060405293505050505b5f81604051602001611f2791906133a2565b604051602081830303815290604052905080611f59670de0b6b3a76400008560200151611f549190613073565b612209565b611f74670de0b6b3a76400008660600151611f549190613073565b611f84611f548760200151612279565b604051602001611f979493929190613400565b60405160208183030381529060405290505f611fcc611fb8855f0151612209565b8684604051602001611e4093929190613549565b905080604051602001611fdf919061377f565b604051602081830303815290604052945050505050919050565b5f6103e78260405160200161201091815260200190565b604051602081830303815290604052805190602001205f1c61203291906137b0565b61203d906001612fec565b92915050565b5f600a8260405160200161205991815260200190565b604051602081830303815290604052805190602001205f1c61203d91906137b0565b5f60028161208884612279565b9050612095816002612fbd565b9250818112156120a3575f92505b5050919050565b606081608001515f036120c05761203d826122bb565b81608001516001036120d55761203d82612310565b81608001516002036120ea5761203d82612365565b81608001516003036120ff5761203d826123ba565b81608001516004036121145761203d8261240f565b81608001516005036121295761203d82612464565b816080015160060361213e5761203d826124b9565b61203d8261250e565b606061203d825f5f612563565b5f808061216c6121676201518086613049565b612654565b9196909550909350915050565b60605f612185836127c3565b60010190505f816001600160401b038111156121a3576121a3612dfb565b6040519080825280601f01601f1916602001820160405280156121cd576020820181803683370190505b5090508181016020015b5f19016f181899199a1a9b1b9c1cb0b131b232b360811b600a86061a8153600a85049450846121d7575b509392505050565b60605f82126122265760405180602001604052805f815250612241565b604051806040016040528060018152602001602d60f81b8152505b61225261224d84612898565b612179565b6040516020016122639291906137c3565b6040516020818303038152906040529050919050565b5f8061228d670de0b6b3a764000084613049565b90505b80156122b5576122a1600a82613049565b9050816122ad816137df565b925050612290565b50919050565b60605f5b8260c001518112156122b5575f6122d6848361025d565b9050826122e48386846128ad565b6040516020016122f59291906137c3565b60408051601f198184030181529190529250506001016122bf565b60605f5b8260c001518112156122b5575f61232b84836104ea565b9050826123398386846128ad565b60405160200161234a9291906137c3565b60408051601f19818403018152919052925050600101612314565b60605f5b8260c001518112156122b5575f612380848361067f565b90508261238e8386846128ad565b60405160200161239f9291906137c3565b60408051601f19818403018152919052925050600101612369565b60605f5b8260c001518112156122b5575f6123d58483610d33565b9050826123e38386846128ad565b6040516020016123f49291906137c3565b60408051601f198184030181529190529250506001016123be565b60605f5b8260c001518112156122b5575f61242a8483611284565b9050826124388386846128ad565b6040516020016124499291906137c3565b60408051601f19818403018152919052925050600101612413565b60605f5b8260c001518112156122b5575f61247f84836109e5565b90508261248d8386846128ad565b60405160200161249e9291906137c3565b60408051601f19818403018152919052925050600101612468565b60605f5b8260c001518112156122b5575f6124d484836115a7565b9050826124e28386846128ad565b6040516020016124f39291906137c3565b60408051601f198184030181529190529250506001016124bd565b60605f5b8260c001518112156122b5575f6125298483611867565b9050826125378386846128ad565b6040516020016125489291906137c3565b60408051601f19818403018152919052925050600101612512565b606083518015612201576003600282010460021b60405192507f4142434445464748494a4b4c4d4e4f505152535455565758595a616263646566601f526106708515027f6768696a6b6c6d6e6f707172737475767778797a303132333435363738392d5f18603f526020830181810183886020010180515f82525b60038a0199508951603f8160121c16515f53603f81600c1c1651600153603f8160061c1651600253603f811651600353505f5184526004840193508284106125de579052602001604052613d3d60f01b60038406600204808303919091525f861515909102918290035290038252509392505050565b5f8080838162253d8c61266a8362010bd9612fec565b6126749190612fec565b90505f62023ab1612686836004612fbd565b6126909190613073565b905060046126a18262023ab1612fbd565b6126ac906003612fec565b6126b69190613073565b6126c09083613013565b91505f62164b096126d2846001612fec565b6126de90610fa0612fbd565b6126e89190613073565b905060046126f8826105b5612fbd565b6127029190613073565b61270c9084613013565b61271790601f612fec565b92505f61098f612728856050612fbd565b6127329190613073565b90505f60506127438361098f612fbd565b61274d9190613073565b6127579086613013565b9050612764600b83613073565b945061277185600c612fbd565b61277c836002612fec565b6127869190613013565b91508483612795603187613013565b6127a0906064612fbd565b6127aa9190612fec565b6127b49190612fec565b9a919950975095505050505050565b5f8072184f03e93ff9f4daa797ed6e38ed64bf6a1f0160401b83106128015772184f03e93ff9f4daa797ed6e38ed64bf6a1f0160401b830492506040015b6904ee2d6d415b85acef8160201b831061282b576904ee2d6d415b85acef8160201b830492506020015b662386f26fc10000831061284957662386f26fc10000830492506010015b6305f5e1008310612861576305f5e100830492506008015b612710831061287557612710830492506004015b60648310612887576064830492506002015b600a831061203d5760010192915050565b5f5f8212156128a957815f0361203d565b5090565b6060805f60015b606481101561299f575f5f8683606481106128d1576128d161309f565b6020020151518784606481106128e9576128e961309f565b6020020151602001519150915060c71982138015612908575061106882125b8015612915575060c71981135b8015612922575061106881125b1561299057831561296b578461293783612209565b61294083612209565b604051602001612952939291906137fd565b60405160208183030381529060405294505f9350612995565b8461297583612209565b61297e83612209565b60405160200161295293929190613832565b600193505b50506001016128b4565b505f6129ab8688612ab0565b8551519091506129ba90612209565b8551602001516129c990612209565b846129d78460400151612179565b6129e16032612179565b6129ee8660600151612179565b6129f86019612179565b604051602001612a0e9796959493929190613851565b604051602081830303815290604052935083612a2d8260800151612179565b825f0151612a666032856020015160058110612a4b57612a4b61309f565b602081049091015460ff601f9092166101000a900416612179565b612a738560a00151612179565b612a808660800151612179565b604051602001612a9596959493929190613933565b60405160208183030381529060405293505050509392505050565b612ae46040518060c00160405280606081526020015f81526020015f81526020015f81526020015f81526020015f81525090565b60a083015182905f90600a8110612afd57612afd61309f565b600502016005855f01518660400151612b169190612fec565b612b21866014612fec565b612b2b9190612fbd565b604051602001612b3d91815260200190565b604051602081830303815290604052805190602001205f1c612b5f91906137b0565b60058110612b6f57612b6f61309f565b018054612b7b90613a95565b80601f0160208091040260200160405190810160405280929190818152602001828054612ba790613a95565b8015612bf25780601f10612bc957610100808354040283529160200191612bf2565b820191905f5260205f20905b815481529060010190602001808311612bd557829003601f168201915b505050918452505083516040850151600591612c0d91612fec565b612c18856001612fec565b612c229190612fbd565b604051602001612c3491815260200190565b604051602081830303815290604052805190602001205f1c612c5691906137b0565b602083015283516040850151600291603291612c729190612fec565b612c7d866001612fec565b612c879190612fbd565b604051602001612c9991815260200190565b604051602081830303815290604052805190602001205f1c612cbb91906137b0565b612cc59190613049565b612cd0906002613032565b612cdb906005613032565b60408301819052612cee90600290613049565b612cf9906005613032565b60608301819052604083015160199190612d1590603290613ac7565b612d1f9190613ac7565b612d299190613ac7565b60808301526006612d3b826001613ac7565b856101200151612d4b9190613049565b612d5591906137b0565b15612dbb57600f612d668280613032565b612d71906001613ac7565b856101400151866101000151612d879190612fbd565b612d919190613049565b612d9b91906137b0565b612da690600a613ac7565b8260800151612db59190613032565b60a08301525b5092915050565b60405180610c8001604052806064905b604080518082019091525f8082526020820152815260200190600190039081612dd25790505090565b634e487b7160e01b5f52604160045260245ffd5b60405161016081016001600160401b0381118282101715612e3e57634e487b7160e01b5f52604160045260245ffd5b60405290565b5f5f828403610180811215612e57575f5ffd5b610160811215612e65575f5ffd5b50612e6e612e0f565b833581526020808501359082015260408085013590820152606080850135908201526080808501359082015260a0808501359082015260c0808501359082015260e08085013590820152610100808501359082015261012080850135908201526101408085013590820152946101609093013593505050565b611900810181835f5b6064811015612f1b578151805184526020908101518185015260409093019290910190600101612ef0565b50505092915050565b5f60208284031215612f34575f5ffd5b5035919050565b5f81518084528060208401602086015e5f602082860101526020601f19601f83011685010191505092915050565b602081525f612f7b6020830184612f3b565b9392505050565b634e487b7160e01b5f52601260045260245ffd5b5f82612fa457612fa4612f82565b500790565b634e487b7160e01b5f52601160045260245ffd5b8082025f8212600160ff1b84141615612fd857612fd8612fa9565b818105831482151761203d5761203d612fa9565b8082018281125f83128015821682158216171561300b5761300b612fa9565b505092915050565b8181035f831280158383131683831282161715612dbb57612dbb612fa9565b808202811582820484141761203d5761203d612fa9565b5f8261305757613057612f82565b500490565b5f6020828403121561306c575f5ffd5b5051919050565b5f8261308157613081612f82565b600160ff1b82145f198414161561309a5761309a612fa9565b500590565b634e487b7160e01b5f52603260045260245ffd5b80825b60018511156130ed578086048111156130d1576130d1612fa9565b60018516156130df57908102905b60019490941c9380026130b6565b94509492505050565b5f82801561310b57600181146131155761311e565b600191505061203d565b8291505061203d565b508161312b57505f61203d565b5060015f82138082146131435780156131625761317c565b6001600160ff1b0383900483111561315d5761315d612fa9565b61317c565b6001600160ff1b0383900583121561317c5761317c612fa9565b50808316156131885750805b6131a16001600160ff1b03600185901c848002846130b3565b5f82136001600160ff1b03829004831116156131bf576131bf612fa9565b5f8212600160ff1b829005831216156131da576131da612fa9565b029392505050565b5f612f7b60ff8416836130f6565b8181038181111561203d5761203d612fa9565b5f6060828403128015613214575f5ffd5b50604051606081016001600160401b038111828210171561324357634e487b7160e01b5f52604160045260245ffd5b6040528251600f81900b8114613257575f5ffd5b81526020838101519082015260408301518015158114613275575f5ffd5b60408201529392505050565b5f81518060208401855e5f93019283525090919050565b5f612f7b8284613281565b7f3c737667207072657365727665417370656374526174696f3d22784d696e594d81527f696e206d656574222076696577426f783d22302030203430303020343030302260208201527f2066696c6c3d226e6f6e652220786d6c6e733d22687474703a2f2f7777772e7760408201526f199737b933979918181817b9bb33911f60811b60608201525f6133396070830184613281565b651e17b9bb339f60d11b81526006019392505050565b601160f91b81525f6133646001830186613281565b602d60f81b81526133786001820186613281565b9050602d60f81b815261338e6001820185613281565b601160f91b81526001019695505050505050565b607b60f81b81527b089d1c985a5d17dd1e5c19488e8808955b9b1bd8dac811185d19488b60221b6001820152680113b30b63ab2911d160bd1b601d8201525f6133ee6026830184613281565b611f4b60f21b81526002019392505050565b5f61340b8287613281565b607b60f81b81527f2274726169745f74797065223a2022566f74696e6720506f776572222c0000006001820152680113b30b63ab2911d160bd1b601e8201526134576027820187613281565b611f4b60f21b8152607b60f81b60028201527f2274726169745f74797065223a20224c6f636b6564204145524f222c2276616c60038201526403ab2911d160dd1b602382015290506134ac6028820186613281565b627d2c7b60e81b81527808991a5cdc1b185e57dd1e5c19488e88089b9d5b58995c888b603a1b60038201527f2274726169745f74797065223a20224e756d626572206f662044696769747322601c820152600b60fa1b603c820152603d01905061353e61353161352b83680113b30b63ab2911d160bd1b815260090190565b86613281565b607d60f81b815260010190565b979650505050505050565b607b60f81b81526e226e616d65223a20226c6f636b202360881b60018201525f6135766010830186613281565b61088b60f21b81527f226261636b67726f756e645f636f6c6f72223a2022313231613236222c00000060028201527f226465736372697074696f6e223a20224165726f64726f6d652046696e616e63601f8201527f652069732061206e6578742d67656e65726174696f6e20414d4d207468617420603f8201527f636f6d62696e6573207468652062657374206f662043757276652c20436f6e76605f8201527f657820616e6420556e69737761702c2064657369676e656420746f2073657276607f8201527f652061732074686520426173652063656e7472616c206c697175696469747920609f8201527f6875622e204165726f64726f6d65204e46547320766f7465206f6e20746f6b6560bf8201527f6e20656d697373696f6e7320616e64207265636569766520627269626573206160df8201527f6e6420666565732067656e657261746564206279207468652070726f746f636f60ff820152631b0b888b60e21b61011f8201527f22696d6167655f64617461223a2022646174613a696d6167652f7376672b786d610123820152681b0ed8985cd94d8d0b60ba1b61014382015261377561353161376861376261374761373961014c87018b613281565b61088b60f21b815260020190565b6e2261747472696275746573223a205b60881b8152600f0190565b87613281565b605d60f81b815260010190565b9695505050505050565b7f646174613a6170706c69636174696f6e2f6a736f6e3b6261736536342c00000081525f612f7b601d830184613281565b5f826137be576137be612f82565b500690565b5f6137d76137d18386613281565b84613281565b949350505050565b5f6001600160ff1b0182016137f6576137f6612fa9565b5060010190565b5f6138088286613281565b604d60f81b815261381c6001820186613281565b9050600b60fa1b81526137756001820185613281565b5f61383d8286613281565b601360fa1b815261381c6001820186613281565b693c7061746820643d224d60b01b81525f61386f600a83018a613281565b600b60fa1b815261388c613886600183018b613281565b89613281565b601160f91b81527901039ba3cb6329e9139ba3937b5b296b230b9b430b93930bc9d160351b600182015290506138c5601b820188613281565b9050600b60fa1b81526138db6001820187613281565b9050600b60fa1b81526138f16001820186613281565b9050600b60fa1b81526139076001820185613281565b603b60f81b81526a0101696b7b33339b2ba1d160ad1b6001820152600c019a9950505050505050505050565b5f613947613941838a613281565b88613281565b603b60f81b81526801039ba3937b5b29d160bd1b600182015261396d600a820188613281565b9050603b60f81b8152701039ba3937b5b296bbb4b23a341d10181760791b600182015261399d6012820187613281565b602560f81b81526e1d91103830ba342632b733ba341e9160891b600182015290506139cb6010820186613281565b61111f60f11b81527f3c616e696d617465206174747269627574654e616d653d227374726f6b652d646002820152746173686f6666736574222076616c7565733d22303b60581b60228201529050613a266037820185613281565b61011160f51b8152905060028101613a87817f6475723d223473222063616c634d6f64653d226c696e6561722220726570656181527f74436f756e743d22696e646566696e69746522202f3e3c2f706174683e0000006020820152603d0190565b9a9950505050505050505050565b600181811c90821680613aa957607f821691505b6020821081036122b557634e487b7160e01b5f52602260045260245ffd5b8082018082111561203d5761203d612fa956fea2646970667358221220fd4556dd50cfe91c06cb8471fd0e9902fccc461b2fdab3e5eb8755c609c6390264736f6c634300081e0033","linkReferences":{"contracts/protocols/dexes/aerodrome/v1/stubs/art/PerlinNoise.sol":{"PerlinNoise":[{"start":7393,"length":20}]},"contracts/protocols/dexes/aerodrome/v1/stubs/art/Trig.sol":{"Trig":[{"start":3218,"length":20},{"start":3355,"length":20},{"start":3978,"length":20},{"start":4174,"length":20},{"start":4504,"length":20},{"start":4641,"length":20},{"start":4986,"length":20},{"start":5105,"length":20},{"start":5271,"length":20},{"start":5450,"length":20},{"start":5776,"length":20},{"start":5976,"length":20},{"start":6142,"length":20},{"start":6342,"length":20},{"start":6679,"length":20},{"start":6811,"length":20},{"start":7211,"length":20},{"start":8063,"length":20},{"start":8182,"length":20},{"start":8678,"length":20},{"start":8797,"length":20}]}}},"methodIdentifiers":{"circles((int256,int256,int256,int256,int256,uint256,int256,int256,int256,int256,int256),int256)":"1e7a79c4","corners((int256,int256,int256,int256,int256,uint256,int256,int256,int256,int256,int256),int256)":"76a07fbb","curves((int256,int256,int256,int256,int256,uint256,int256,int256,int256,int256,int256),int256)":"8165ae85","explosion((int256,int256,int256,int256,int256,uint256,int256,int256,int256,int256,int256),int256)":"8e1ba1a3","generateConfig(uint256)":"990379fa","interlockingCircles((int256,int256,int256,int256,int256,uint256,int256,int256,int256,int256,int256),int256)":"5d326367","lineArtPathsOnly(uint256)":"a707e80d","spiral((int256,int256,int256,int256,int256,uint256,int256,int256,int256,int256,int256),int256)":"751ee4d1","tokenURI(uint256)":"c87b56dd","twoStripes((int256,int256,int256,int256,int256,uint256,int256,int256,int256,int256,int256),int256)":"34ef880c","ve()":"1f850716","wormhole((int256,int256,int256,int256,int256,uint256,int256,int256,int256,int256,int256),int256)":"9108138b"},"id":815}