{"abi":[{"type":"constructor","inputs":[{"name":"contractRegistry","type":"address","internalType":"contract BalancerContractRegistry"},{"name":"version","type":"string","internalType":"string"}],"stateMutability":"nonpayable"},{"type":"function","name":"allowance","inputs":[{"name":"owner","type":"address","internalType":"address"},{"name":"spender","type":"address","internalType":"address"},{"name":"id","type":"uint256","internalType":"uint256"}],"outputs":[{"name":"","type":"uint256","internalType":"uint256"}],"stateMutability":"view"},{"type":"function","name":"approve","inputs":[{"name":"spender","type":"address","internalType":"address"},{"name":"id","type":"uint256","internalType":"uint256"},{"name":"amount","type":"uint256","internalType":"uint256"}],"outputs":[{"name":"","type":"bool","internalType":"bool"}],"stateMutability":"nonpayable"},{"type":"function","name":"balanceOf","inputs":[{"name":"owner","type":"address","internalType":"address"},{"name":"id","type":"uint256","internalType":"uint256"}],"outputs":[{"name":"","type":"uint256","internalType":"uint256"}],"stateMutability":"view"},{"type":"function","name":"decimals","inputs":[{"name":"id","type":"uint256","internalType":"uint256"}],"outputs":[{"name":"","type":"uint8","internalType":"uint8"}],"stateMutability":"view"},{"type":"function","name":"getId","inputs":[{"name":"token","type":"address","internalType":"address"}],"outputs":[{"name":"","type":"uint256","internalType":"uint256"}],"stateMutability":"pure"},{"type":"function","name":"getUnlockTimestamp","inputs":[{"name":"id","type":"uint256","internalType":"uint256"}],"outputs":[{"name":"","type":"uint256","internalType":"uint256"}],"stateMutability":"view"},{"type":"function","name":"isOperator","inputs":[{"name":"owner","type":"address","internalType":"address"},{"name":"spender","type":"address","internalType":"address"}],"outputs":[{"name":"","type":"bool","internalType":"bool"}],"stateMutability":"view"},{"type":"function","name":"migrateLiquidity","inputs":[{"name":"lbp","type":"address","internalType":"contract ILBPool"},{"name":"excessReceiver","type":"address","internalType":"address"},{"name":"params","type":"tuple","internalType":"struct ILBPMigrationRouter.WeightedPoolParams","components":[{"name":"name","type":"string","internalType":"string"},{"name":"symbol","type":"string","internalType":"string"},{"name":"roleAccounts","type":"tuple","internalType":"struct PoolRoleAccounts","components":[{"name":"pauseManager","type":"address","internalType":"address"},{"name":"swapFeeManager","type":"address","internalType":"address"},{"name":"poolCreator","type":"address","internalType":"address"}]},{"name":"swapFeePercentage","type":"uint256","internalType":"uint256"},{"name":"poolHooksContract","type":"address","internalType":"address"},{"name":"enableDonation","type":"bool","internalType":"bool"},{"name":"disableUnbalancedLiquidity","type":"bool","internalType":"bool"},{"name":"salt","type":"bytes32","internalType":"bytes32"}]}],"outputs":[{"name":"","type":"address","internalType":"contract IWeightedPool"},{"name":"","type":"uint256[]","internalType":"uint256[]"},{"name":"","type":"uint256","internalType":"uint256"}],"stateMutability":"nonpayable"},{"type":"function","name":"migrateLiquidityHook","inputs":[{"name":"params","type":"tuple","internalType":"struct ILBPMigrationRouter.MigrationHookParams","components":[{"name":"lbp","type":"address","internalType":"contract ILBPool"},{"name":"weightedPool","type":"address","internalType":"contract IWeightedPool"},{"name":"tokens","type":"address[]","internalType":"contract IERC20[]"},{"name":"sender","type":"address","internalType":"address"},{"name":"excessReceiver","type":"address","internalType":"address"},{"name":"lockDurationAfterMigration","type":"uint256","internalType":"uint256"},{"name":"bptPercentageToMigrate","type":"uint256","internalType":"uint256"},{"name":"migrationWeightProjectToken","type":"uint256","internalType":"uint256"},{"name":"migrationWeightReserveToken","type":"uint256","internalType":"uint256"}]}],"outputs":[{"name":"exactAmountsIn","type":"uint256[]","internalType":"uint256[]"},{"name":"bptAmountOut","type":"uint256","internalType":"uint256"}],"stateMutability":"nonpayable"},{"type":"function","name":"multicall","inputs":[{"name":"data","type":"bytes[]","internalType":"bytes[]"}],"outputs":[{"name":"results","type":"bytes[]","internalType":"bytes[]"}],"stateMutability":"nonpayable"},{"type":"function","name":"name","inputs":[{"name":"id","type":"uint256","internalType":"uint256"}],"outputs":[{"name":"","type":"string","internalType":"string"}],"stateMutability":"view"},{"type":"function","name":"queryMigrateLiquidity","inputs":[{"name":"lbp","type":"address","internalType":"contract ILBPool"},{"name":"sender","type":"address","internalType":"address"},{"name":"excessReceiver","type":"address","internalType":"address"},{"name":"params","type":"tuple","internalType":"struct ILBPMigrationRouter.WeightedPoolParams","components":[{"name":"name","type":"string","internalType":"string"},{"name":"symbol","type":"string","internalType":"string"},{"name":"roleAccounts","type":"tuple","internalType":"struct PoolRoleAccounts","components":[{"name":"pauseManager","type":"address","internalType":"address"},{"name":"swapFeeManager","type":"address","internalType":"address"},{"name":"poolCreator","type":"address","internalType":"address"}]},{"name":"swapFeePercentage","type":"uint256","internalType":"uint256"},{"name":"poolHooksContract","type":"address","internalType":"address"},{"name":"enableDonation","type":"bool","internalType":"bool"},{"name":"disableUnbalancedLiquidity","type":"bool","internalType":"bool"},{"name":"salt","type":"bytes32","internalType":"bytes32"}]}],"outputs":[{"name":"exactAmountsIn","type":"uint256[]","internalType":"uint256[]"},{"name":"bptAmountOut","type":"uint256","internalType":"uint256"}],"stateMutability":"nonpayable"},{"type":"function","name":"setOperator","inputs":[{"name":"spender","type":"address","internalType":"address"},{"name":"approved","type":"bool","internalType":"bool"}],"outputs":[{"name":"","type":"bool","internalType":"bool"}],"stateMutability":"nonpayable"},{"type":"function","name":"supportsInterface","inputs":[{"name":"interfaceId","type":"bytes4","internalType":"bytes4"}],"outputs":[{"name":"","type":"bool","internalType":"bool"}],"stateMutability":"view"},{"type":"function","name":"symbol","inputs":[{"name":"id","type":"uint256","internalType":"uint256"}],"outputs":[{"name":"","type":"string","internalType":"string"}],"stateMutability":"view"},{"type":"function","name":"transfer","inputs":[{"name":"receiver","type":"address","internalType":"address"},{"name":"id","type":"uint256","internalType":"uint256"},{"name":"amount","type":"uint256","internalType":"uint256"}],"outputs":[{"name":"","type":"bool","internalType":"bool"}],"stateMutability":"nonpayable"},{"type":"function","name":"transferFrom","inputs":[{"name":"sender","type":"address","internalType":"address"},{"name":"receiver","type":"address","internalType":"address"},{"name":"id","type":"uint256","internalType":"uint256"},{"name":"amount","type":"uint256","internalType":"uint256"}],"outputs":[{"name":"","type":"bool","internalType":"bool"}],"stateMutability":"nonpayable"},{"type":"function","name":"version","inputs":[],"outputs":[{"name":"","type":"string","internalType":"string"}],"stateMutability":"view"},{"type":"function","name":"withdrawBPT","inputs":[{"name":"bptAddress","type":"address","internalType":"address"}],"outputs":[],"stateMutability":"nonpayable"},{"type":"event","name":"Approval","inputs":[{"name":"owner","type":"address","indexed":true,"internalType":"address"},{"name":"spender","type":"address","indexed":true,"internalType":"address"},{"name":"id","type":"uint256","indexed":true,"internalType":"uint256"},{"name":"amount","type":"uint256","indexed":false,"internalType":"uint256"}],"anonymous":false},{"type":"event","name":"BPTTimelockSet","inputs":[{"name":"bptAddress","type":"address","indexed":true,"internalType":"contract IERC20"},{"name":"unlockTimestamp","type":"uint256","indexed":false,"internalType":"uint256"}],"anonymous":false},{"type":"event","name":"ERC6909DecimalsUpdated","inputs":[{"name":"id","type":"uint256","indexed":true,"internalType":"uint256"},{"name":"newDecimals","type":"uint8","indexed":false,"internalType":"uint8"}],"anonymous":false},{"type":"event","name":"ERC6909NameUpdated","inputs":[{"name":"id","type":"uint256","indexed":true,"internalType":"uint256"},{"name":"newName","type":"string","indexed":false,"internalType":"string"}],"anonymous":false},{"type":"event","name":"ERC6909SymbolUpdated","inputs":[{"name":"id","type":"uint256","indexed":true,"internalType":"uint256"},{"name":"newSymbol","type":"string","indexed":false,"internalType":"string"}],"anonymous":false},{"type":"event","name":"OperatorSet","inputs":[{"name":"owner","type":"address","indexed":true,"internalType":"address"},{"name":"spender","type":"address","indexed":true,"internalType":"address"},{"name":"approved","type":"bool","indexed":false,"internalType":"bool"}],"anonymous":false},{"type":"event","name":"PoolMigrated","inputs":[{"name":"lbp","type":"address","indexed":true,"internalType":"contract ILBPool"},{"name":"weightedPool","type":"address","indexed":false,"internalType":"contract IWeightedPool"},{"name":"exactAmountsIn","type":"uint256[]","indexed":false,"internalType":"uint256[]"},{"name":"bptAmountOut","type":"uint256","indexed":false,"internalType":"uint256"}],"anonymous":false},{"type":"event","name":"Transfer","inputs":[{"name":"caller","type":"address","indexed":false,"internalType":"address"},{"name":"sender","type":"address","indexed":true,"internalType":"address"},{"name":"receiver","type":"address","indexed":true,"internalType":"address"},{"name":"id","type":"uint256","indexed":true,"internalType":"uint256"},{"name":"amount","type":"uint256","indexed":false,"internalType":"uint256"}],"anonymous":false},{"type":"error","name":"AddressEmptyCode","inputs":[{"name":"target","type":"address","internalType":"address"}]},{"type":"error","name":"BPTStillLocked","inputs":[{"name":"unlockTimestamp","type":"uint256","internalType":"uint256"}]},{"type":"error","name":"ERC6909InsufficientAllowance","inputs":[{"name":"spender","type":"address","internalType":"address"},{"name":"allowance","type":"uint256","internalType":"uint256"},{"name":"needed","type":"uint256","internalType":"uint256"},{"name":"id","type":"uint256","internalType":"uint256"}]},{"type":"error","name":"ERC6909InsufficientBalance","inputs":[{"name":"sender","type":"address","internalType":"address"},{"name":"balance","type":"uint256","internalType":"uint256"},{"name":"needed","type":"uint256","internalType":"uint256"},{"name":"id","type":"uint256","internalType":"uint256"}]},{"type":"error","name":"ERC6909InvalidApprover","inputs":[{"name":"approver","type":"address","internalType":"address"}]},{"type":"error","name":"ERC6909InvalidReceiver","inputs":[{"name":"receiver","type":"address","internalType":"address"}]},{"type":"error","name":"ERC6909InvalidSender","inputs":[{"name":"sender","type":"address","internalType":"address"}]},{"type":"error","name":"ERC6909InvalidSpender","inputs":[{"name":"spender","type":"address","internalType":"address"}]},{"type":"error","name":"FailedCall","inputs":[]},{"type":"error","name":"IncorrectMigrationRouter","inputs":[{"name":"expectedRouter","type":"address","internalType":"address"},{"name":"actualRouter","type":"address","internalType":"address"}]},{"type":"error","name":"NoLockedBPT","inputs":[]},{"type":"error","name":"NoRegisteredWeightedPoolFactory","inputs":[]},{"type":"error","name":"ReentrancyGuardReentrantCall","inputs":[]},{"type":"error","name":"SenderIsNotLBPOwner","inputs":[]},{"type":"error","name":"SenderIsNotVault","inputs":[{"name":"sender","type":"address","internalType":"address"}]}],"bytecode":{"object":"0x60c060405234801561000f575f5ffd5b5060405161366f38038061366f83398101604081905261002e91610185565b816001600160a01b0316638d928af86040518163ffffffff1660e01b8152600401602060405180830381865afa15801561006a573d5f5f3e3d5ffd5b505050506040513d601f19601f8201168201806040525081019061008e9190610249565b816100988161014b565b506001600160a01b039081166080526040516341d8c0bb60e01b81525f918291908516906341d8c0bb906100d19060019060040161026b565b6040805180830381865afa1580156100eb573d5f5f3e3d5ffd5b505050506040513d601f19601f8201168201806040525081019061010f91906102b6565b90925090508015155f0361013657604051630336c49960e51b815260040160405180910390fd5b506001600160a01b031660a052506104309050565b5f6101568282610376565b5050565b6001600160a01b038116811461016e575f5ffd5b50565b634e487b7160e01b5f52604160045260245ffd5b5f5f60408385031215610196575f5ffd5b82516101a18161015a565b60208401519092506001600160401b038111156101bc575f5ffd5b8301601f810185136101cc575f5ffd5b80516001600160401b038111156101e5576101e5610171565b604051601f8201601f19908116603f011681016001600160401b038111828210171561021357610213610171565b60405281815282820160200187101561022a575f5ffd5b8160208401602083015e5f602083830101528093505050509250929050565b5f60208284031215610259575f5ffd5b81516102648161015a565b9392505050565b5f6005831061028857634e487b7160e01b5f52602160045260245ffd5b50908152604060208201819052600c908201526b15d95a59da1d1959141bdbdb60a21b606082015260800190565b5f5f604083850312156102c7575f5ffd5b82516102d28161015a565b602084015190925080151581146102e7575f5ffd5b809150509250929050565b600181811c9082168061030657607f821691505b60208210810361032457634e487b7160e01b5f52602260045260245ffd5b50919050565b601f82111561037157805f5260205f20601f840160051c8101602085101561034f5750805b601f840160051c820191505b8181101561036e575f815560010161035b565b50505b505050565b81516001600160401b0381111561038f5761038f610171565b6103a38161039d84546102f2565b8461032a565b6020601f8211600181146103d5575f83156103be5750848201515b5f19600385901b1c1916600184901b17845561036e565b5f84815260208120601f198516915b8281101561040457878501518255602094850194600190920191016103e4565b508482101561042157868401515f19600387901b60f8161c191681555b50505050600190811b01905550565b60805160a0516131f461047b5f395f610dcf01525f818161042001528181610607015281816106f401528181610f1201528181610ffa015281816110f7015261122b01526131f45ff3fe608060405234801561000f575f5ffd5b50600436106100ed575f3560e01c8062ad800c146100f1578062fdd58e1461011a57806301ffc9a71461013b578063095bcdb61461015e57806320ad0ff81461017157806324901c0b146101925780633f47e662146101a5578063426a8493146101dc5780634e41a1fb146101ef57806354fd4d5014610202578063558a72971461020a578063598af9e71461021d5780635e7a6a7d1461023057806365f68c89146102525780638a34711d14610265578063ac9650d814610284578063b6363cf2146102a4578063dc450d4f146102b7578063fe99049a146102cc575b5f5ffd5b6101046100ff366004611e1a565b6102df565b6040516101119190611e5f565b60405180910390f35b61012d610128366004611e9f565b61037e565b604051908152602001610111565b61014e610149366004611ec9565b6103a8565b6040519015158152602001610111565b61014e61016c366004611ef0565b6103dc565b61018461017f3660046121a3565b6103f3565b60405161011192919061224d565b6101846101a03660046122fe565b610412565b6101ca6101b3366004611e1a565b5f9081526004602052604090206002015460ff1690565b60405160ff9091168152602001610111565b61014e6101ea366004611ef0565b6107dc565b6101046101fd366004611e1a565b6107e9565b610104610808565b61014e6102183660046123d8565b610897565b61012d61022b36600461240f565b6108ac565b61024361023e36600461244d565b6108dd565b604051610111939291906124b7565b61012d6102603660046124ea565b61099c565b61012d610273366004611e1a565b5f9081526005602052604090205490565b610297610292366004612505565b6109a8565b6040516101119190612574565b61014e6102b23660046125d7565b610a8d565b6102ca6102c53660046124ea565b610aba565b005b61014e6102da366004612603565b610b5c565b5f8181526004602052604090208054606091906102fb90612646565b80601f016020809104026020016040519081016040528092919081815260200182805461032790612646565b80156103725780601f1061034957610100808354040283529160200191610372565b820191905f5260205f20905b81548152906001019060200180831161035557829003601f168201915b50505050509050919050565b6001600160a01b0382165f9081526001602090815260408083208484529091529020545b92915050565b5f6001600160e01b03198216630f632fb360e01b14806103a257506301ffc9a760e01b6001600160e01b03198316146103a2565b5f6103e933858585610ba7565b5060019392505050565b60605f610404868686866001610c05565b909890975095505050505050565b60605f61041d6110ec565b5f7f00000000000000000000000000000000000000000000000000000000000000006001600160a01b031663214578976040518060c00160405280875f01516001600160a01b0316815260200187606001516001600160a01b03168152602001875f01516001600160a01b03166370a0823189606001516040518263ffffffff1660e01b81526004016104b0919061267e565b602060405180830381865afa1580156104cb573d5f5f3e3d5ffd5b505050506040513d601f19601f820116820180604052508101906104ef9190612692565b815260408051600280825260608201835260209384019391929091830190803683370190505081526020015f815260200160405180602001604052805f8152508152506040518263ffffffff1660e01b815260040161054e91906126d1565b5f604051808303815f875af1158015610569573d5f5f3e3d5ffd5b505050506040513d5f823e601f3d908101601f191682016040526105909190810190612832565b509150506105b1845f01518560c001518660e0015187610100015185611139565b92505f5b60028110156106c6575f8482815181106105d1576105d1612896565b60200260200101518383815181106105eb576105eb612896565b60200260200101516105fd91906128be565b905080156106bd577f00000000000000000000000000000000000000000000000000000000000000006001600160a01b031663ae6393298760400151848151811061064a5761064a612896565b602090810291909101015160808901516040516001600160e01b031960e085901b1681526001600160a01b03928316600482015291166024820152604481018490526064015f604051808303815f87803b1580156106a6575f5ffd5b505af11580156106b8573d5f5f3e3d5ffd5b505050505b506001016105b5565b50602080850151604080870151815193840182525f80855291516305d4515f60e51b81526001600160a01b037f0000000000000000000000000000000000000000000000000000000000000000169463ba8a2be094610730949093309390928b929160040161290a565b6020604051808303815f875af115801561074c573d5f5f3e3d5ffd5b505050506040513d601f19601f820116820180604052508101906107709190612692565b915061078a84602001518560600151848760a001516115af565b835f01516001600160a01b03167f4d4f6b7510c8285aa70a0e40c3f7180bc41fb9686bdf5816157e1f999d6ef60c856020015185856040516107ce939291906124b7565b60405180910390a250915091565b5f6103e9338585856117b0565b5f8181526004602052604090206001018054606091906102fb90612646565b60605f805461081690612646565b80601f016020809104026020016040519081016040528092919081815260200182805461084290612646565b801561088d5780601f106108645761010080835404028352916020019161088d565b820191905f5260205f20905b81548152906001019060200180831161087057829003601f168201915b5050505050905090565b5f6108a333848461186f565b50600192915050565b6001600160a01b039283165f9081526003602090815260408083209490951682529283528381209181529152205490565b5f60605f855f816001600160a01b0316638da5cb5b6040518163ffffffff1660e01b8152600401602060405180830381865afa15801561091f573d5f5f3e3d5ffd5b505050506040513d601f19601f820116820180604052508101906109439190612979565b9050336001600160a01b0382161461096e5760405163751bd60360e11b815260040160405180910390fd5b5061097761192d565b610984873388885f610c05565b935093509350610992611974565b5093509350939050565b6001600160a01b031690565b604080515f815260208101909152606090826001600160401b038111156109d1576109d1611f22565b604051908082528060200260200182016040528015610a0457816020015b60608152602001906001900390816109ef5790505b5091505f5b83811015610a8557610a6030868684818110610a2757610a27612896565b9050602002810190610a399190612994565b85604051602001610a4c939291906129f4565b60405160208183030381529060405261198b565b838281518110610a7257610a72612896565b6020908102919091010152600101610a09565b505092915050565b6001600160a01b039182165f90815260026020908152604080832093909416825291909152205460ff1690565b5f610ac48261099c565b90505f610ad1338361037e565b9050805f03610af25760405162e39db160e01b815260040160405180910390fd5b5f8281526005602052604090205442811115610b2957604051630c0912d360e31b8152600481018290526024015b60405180910390fd5b5f83815260056020526040812055610b42338484611a22565b610b566001600160a01b0385163384611a5c565b50505050565b5f336001600160a01b0386168114801590610b7e5750610b7c8682610a8d565b155b15610b8f57610b8f86828686611a67565b610b9b86868686610ba7565b50600195945050505050565b6001600160a01b038416610bd0575f6040516301486a4160e71b8152600401610b20919061267e565b6001600160a01b038316610bf9575f604051630b8bbd6160e41b8152600401610b20919061267e565b610b5684848484611ae0565b5f60605f5f886001600160a01b0316630ca898486040518163ffffffff1660e01b81526004015f60405180830381865afa158015610c45573d5f5f3e3d5ffd5b505050506040513d5f823e601f3d908101601f19168201604052610c6c9190810190612a78565b6101408101519091506001600160a01b03163014610cb557610140810151604051630a9bbdff60e21b81526001600160a01b039091166004820152306024820152604401610b20565b6040805160028082526060820183525f92602083019080368337019050509050816101a0015181836080015181518110610cf157610cf1612896565b602002602001018181525050816101c00151818360a0015181518110610d1957610d19612896565b6020908102919091010152604080516002808252606082019092525f91816020015b604080516080810182525f8082526020808301829052928201819052606082015282525f19909201910181610d3b5790505090505f5b6002811015610dc8578351805182908110610d8e57610d8e612896565b6020026020010151828281518110610da857610da8612896565b60209081029190910101516001600160a01b039091169052600101610d71565b505f8890507f00000000000000000000000000000000000000000000000000000000000000006001600160a01b031663fed4cdda825f0151836020015185878660400151876060015188608001518960a001518a60c001518b60e001516040518b63ffffffff1660e01b8152600401610e4a9a99989796959493929190612be8565b6020604051808303815f875af1158015610e66573d5f5f3e3d5ffd5b505050506040513d601f19601f82011682018060405250810190610e8a9190612979565b96505f6040518061012001604052808e6001600160a01b03168152602001896001600160a01b03168152602001865f015181526020018d6001600160a01b031681526020018c6001600160a01b0316815260200186610160015181526020018661018001518152602001866101a001518152602001866101c0015181525090508815610ff8577f00000000000000000000000000000000000000000000000000000000000000006001600160a01b031663edfa356882604051602401610f509190612d11565b60408051601f198184030181529181526020820180516001600160e01b03166324901c0b60e01b179052516001600160e01b031960e084901b168152610f999190600401611e5f565b5f604051808303815f875af1158015610fb4573d5f5f3e3d5ffd5b505050506040513d5f823e601f3d908101601f19168201604052610fdb9190810190612daf565b806020019051810190610fee9190612de0565b90975095506110dc565b7f00000000000000000000000000000000000000000000000000000000000000006001600160a01b03166348c89491826040516024016110389190612d11565b60408051601f198184030181529181526020820180516001600160e01b03166324901c0b60e01b179052516001600160e01b031960e084901b1681526110819190600401611e5f565b5f604051808303815f875af115801561109c573d5f5f3e3d5ffd5b505050506040513d5f823e601f3d908101601f191682016040526110c39190810190612daf565b8060200190518101906110d69190612de0565b90975095505b5050505050955095509592505050565b336001600160a01b037f00000000000000000000000000000000000000000000000000000000000000001614611137573360405163089676d560e01b8152600401610b20919061267e565b565b60408051600280825260608083018452926020830190803683370190505090505f866001600160a01b031663e565c29e6040518163ffffffff1660e01b81526004015f60405180830381865afa158015611195573d5f5f3e3d5ffd5b505050506040513d5f823e601f3d908101601f191682016040526111bc9190810190612e23565b60e0015190505f876001600160a01b0316630ca898486040518163ffffffff1660e01b81526004015f60405180830381865afa1580156111fe573d5f5f3e3d5ffd5b505050506040513d5f823e601f3d908101601f191682016040526112259190810190612a78565b90505f5f7f00000000000000000000000000000000000000000000000000000000000000006001600160a01b0316637e361bde8b6040518263ffffffff1660e01b8152600401611275919061267e565b5f60405180830381865afa15801561128f573d5f5f3e3d5ffd5b505050506040513d5f823e601f3d908101601f191682016040526112b69190810190612f10565b915091505f611327838560800151815181106112d4576112d4612896565b6020026020010151838660800151815181106112f2576112f2612896565b60200260200101518987608001518151811061131057611310612896565b6020026020010151611c009092919063ffffffff16565b90505f61137f848660a001518151811061134357611343612896565b6020026020010151848760a001518151811061136157611361612896565b60200260200101518a8860a001518151811061131057611310612896565b90505f8c6001600160a01b031663f898f16e6040518163ffffffff1660e01b81526004016040805180830381865afa1580156113bd573d5f5f3e3d5ffd5b505050506040513d601f19601f820116820180604052508101906113e19190612f75565b91505f90506113f08284612f97565b90505f61144e8989608001518151811061140c5761140c612896565b6020026020010151838b8b60a001518151811061142b5761142b612896565b60200260200101518861143e9190612faa565b6114489190612fc1565b90611c17565b90505f61147a6114678f84611c3790919063ffffffff16565b6114488f89611c3790919063ffffffff16565b9050848111156114a85750838c61149b8f6114958486612faa565b90611c37565b6114a59190612fc1565b95505b5f8f9050611505898b60800151815181106114c5576114c5612896565b6020026020010151898c60800151815181106114e3576114e3612896565b60200260200101516114fe848b611c3790919063ffffffff16565b9190611c57565b8c8b608001518151811061151b5761151b612896565b602002602001018181525050611579898b60a001518151811061154057611540612896565b6020026020010151898c60a001518151811061155e5761155e612896565b60200260200101516114fe8486611c3790919063ffffffff16565b8c8b60a001518151811061158f5761158f612896565b602002602001018181525050505050505050505050505095945050505050565b5f6115b98561099c565b90505f6115c68342612f97565b90505f86905061165683826001600160a01b03166306fdde036040518163ffffffff1660e01b81526004015f60405180830381865afa15801561160b573d5f5f3e3d5ffd5b505050506040513d5f823e601f3d908101601f191682016040526116329190810190612fe0565b6040516020016116429190613024565b604051602081830303815290604052611c6b565b6116e083826001600160a01b03166395d89b416040518163ffffffff1660e01b81526004015f60405180830381865afa158015611695573d5f5f3e3d5ffd5b505050506040513d5f823e601f3d908101601f191682016040526116bc9190810190612fe0565b6040516020016116cc919061303f565b604051602081830303815290604052611cbf565b61174983826001600160a01b031663313ce5676040518163ffffffff1660e01b8152600401602060405180830381865afa158015611720573d5f5f3e3d5ffd5b505050506040513d601f19601f82011682018060405250810190611744919061305a565b611d0a565b5f838152600560205260409020829055611764868487611d5d565b866001600160a01b03167f59c2e937deb745424f6fd4b177dca843e536a9f09d159b1e73f2516cc91962c28360405161179f91815260200190565b60405180910390a250505050505050565b6001600160a01b0384166117d9575f60405163198ecd5360e31b8152600401610b20919061267e565b6001600160a01b038316611802575f604051636f65f46560e01b8152600401610b20919061267e565b6001600160a01b038481165f8181526003602090815260408083209488168084529482528083208784528252918290208590559051848152859392917fb3fd5071835887567a0671151121894ddccc2842f1d10bedad13e0d17cace9a7910160405180910390a450505050565b6001600160a01b038316611898575f60405163198ecd5360e31b8152600401610b20919061267e565b6001600160a01b0382166118c1575f604051636f65f46560e01b8152600401610b20919061267e565b6001600160a01b038381165f81815260026020908152604080832094871680845294825291829020805460ff191686151590811790915591519182527fceb576d9f15e4e200fdb5096d64d5dfd667e16def20c1eefd14256d8e3faa267910160405180910390a3505050565b5f51602061319f5f395f51905f525c1561195a57604051633ee5aeb560e01b815260040160405180910390fd5b61113760015f51602061319f5f395f51905f525b90611d92565b6111375f5f51602061319f5f395f51905f5261196e565b60605f6119988484611d99565b90508080156119b957505f3d11806119b957505f846001600160a01b03163b115b156119ce576119c6611dac565b9150506103a2565b80156119ef5783604051639996b31560e01b8152600401610b20919061267e565b3d15611a02576119fd611dc5565b611a1b565b60405163d6bda27560e01b815260040160405180910390fd5b5092915050565b6001600160a01b038316611a4b575f6040516301486a4160e71b8152600401610b20919061267e565b611a57835f8484611ae0565b505050565b611a57838383611dd0565b5f611a738585856108ac565b90505f19811015611ad95781811015611aa75783818385604051632c51fead60e11b8152600401610b20949392919061307a565b6001600160a01b038086165f908152600360209081526040808320938816835292815282822086835290522082820390555b5050505050565b336001600160a01b03851615611b65576001600160a01b0385165f90815260016020908152604080832086845290915290205482811015611b3c57858184866040516302c6d3fb60e61b8152600401610b20949392919061307a565b6001600160a01b0386165f90815260016020908152604080832087845290915290209083900390555b6001600160a01b03841615611bac576001600160a01b0384165f90815260016020908152604080832086845290915281208054849290611ba6908490612f97565b90915550505b604080516001600160a01b03838116825260208201859052859281881692918916917f1b3d7edb2e9c0b0e7c525b20aaaef0f5940d2ed71663c7d39266ecafac728859910160405180910390a45050505050565b5f611c0f826114958587612faa565b949350505050565b5f80611c2b670de0b6b3a764000085612faa565b9050611c0f8382612fc1565b5f80611c438385612faa565b9050611c0f670de0b6b3a764000082612fc1565b5f611c0f84611c668486612faa565b611c17565b5f828152600460205260409020611c8282826130e4565b50817f6846707b16f55a3623d38bf118700af63d0784698270a53ce28b116dbaa8b79482604051611cb39190611e5f565b60405180910390a25050565b5f828152600460205260409020600101611cd982826130e4565b50817f8fabcb7b4fbdde605303a7339bc80fb6956cd01a42e9cdf2d15d0f2fdd3b06fa82604051611cb39190611e5f565b5f82815260046020908152604091829020600201805460ff191660ff8516908117909155915191825283917fc7435874568017e6134c851002a405d733521c0f4c63f9f25f3a32a4d595b7299101611cb3565b6001600160a01b038316611d86575f604051630b8bbd6160e41b8152600401610b20919061267e565b611a575f848484611ae0565b80825d5050565b5f5f5f835160208501865af49392505050565b6040513d81523d5f602083013e3d602001810160405290565b6040513d5f823e3d81fd5b816014528060345263a9059cbb60601b5f5260205f604460105f875af18060015f511416611e1057803d853b151710611e10576390b8ec185f526004601cfd5b505f603452505050565b5f60208284031215611e2a575f5ffd5b5035919050565b5f81518084528060208401602086015e5f602082860101526020601f19601f83011685010191505092915050565b602081525f611e716020830184611e31565b9392505050565b6001600160a01b0381168114611e8c575f5ffd5b50565b8035611e9a81611e78565b919050565b5f5f60408385031215611eb0575f5ffd5b8235611ebb81611e78565b946020939093013593505050565b5f60208284031215611ed9575f5ffd5b81356001600160e01b031981168114611e71575f5ffd5b5f5f5f60608486031215611f02575f5ffd5b8335611f0d81611e78565b95602085013595506040909401359392505050565b634e487b7160e01b5f52604160045260245ffd5b60405161010081016001600160401b0381118282101715611f5957611f59611f22565b60405290565b60405161012081016001600160401b0381118282101715611f5957611f59611f22565b6040516101e081016001600160401b0381118282101715611f5957611f59611f22565b604051601f8201601f191681016001600160401b0381118282101715611fcd57611fcd611f22565b604052919050565b5f6001600160401b03821115611fed57611fed611f22565b50601f01601f191660200190565b5f82601f83011261200a575f5ffd5b813561201d61201882611fd5565b611fa5565b818152846020838601011115612031575f5ffd5b816020850160208301375f918101602001919091529392505050565b5f6060828403121561205d575f5ffd5b604051606081016001600160401b038111828210171561207f5761207f611f22565b604052905080823561209081611e78565b815260208301356120a081611e78565b602082015260408301356120b381611e78565b6040919091015292915050565b8015158114611e8c575f5ffd5b8035611e9a816120c0565b5f61014082840312156120e9575f5ffd5b6120f1611f36565b905081356001600160401b03811115612108575f5ffd5b61211484828501611ffb565b82525060208201356001600160401b0381111561212f575f5ffd5b61213b84828501611ffb565b60208301525061214e836040840161204d565b604082015260a0820135606082015261216960c08301611e8f565b608082015261217a60e083016120cd565b60a082015261218c61010083016120cd565b60c0820152610120919091013560e0820152919050565b5f5f5f5f608085870312156121b6575f5ffd5b84356121c181611e78565b935060208501356121d181611e78565b925060408501356121e181611e78565b915060608501356001600160401b038111156121fb575f5ffd5b612207878288016120d8565b91505092959194509250565b5f8151808452602084019350602083015f5b82811015612243578151865260209586019590910190600101612225565b5093949350505050565b604081525f61225f6040830185612213565b90508260208301529392505050565b5f6001600160401b0382111561228657612286611f22565b5060051b60200190565b5f82601f83011261229f575f5ffd5b81356122ad6120188261226e565b8082825260208201915060208360051b8601019250858311156122ce575f5ffd5b602085015b838110156122f45780356122e681611e78565b8352602092830192016122d3565b5095945050505050565b5f6020828403121561230e575f5ffd5b81356001600160401b03811115612323575f5ffd5b82016101208185031215612335575f5ffd5b61233d611f5f565b61234682611e8f565b815261235460208301611e8f565b602082015260408201356001600160401b03811115612371575f5ffd5b61237d86828501612290565b60408301525061238f60608301611e8f565b60608201526123a060808301611e8f565b608082015260a0828101359082015260c0808301359082015260e0808301359082015261010091820135918101919091529392505050565b5f5f604083850312156123e9575f5ffd5b82356123f481611e78565b91506020830135612404816120c0565b809150509250929050565b5f5f5f60608486031215612421575f5ffd5b833561242c81611e78565b9250602084013561243c81611e78565b929592945050506040919091013590565b5f5f5f6060848603121561245f575f5ffd5b833561246a81611e78565b9250602084013561247a81611e78565b915060408401356001600160401b03811115612494575f5ffd5b6124a0868287016120d8565b9150509250925092565b6001600160a01b03169052565b6001600160a01b03841681526060602082018190525f906124da90830185612213565b9050826040830152949350505050565b5f602082840312156124fa575f5ffd5b8135611e7181611e78565b5f5f60208385031215612516575f5ffd5b82356001600160401b0381111561252b575f5ffd5b8301601f8101851361253b575f5ffd5b80356001600160401b03811115612550575f5ffd5b8560208260051b8401011115612564575f5ffd5b6020919091019590945092505050565b5f602082016020835280845180835260408501915060408160051b8601019250602086015f5b828110156125cb57603f198786030184526125b6858351611e31565b9450602093840193919091019060010161259a565b50929695505050505050565b5f5f604083850312156125e8575f5ffd5b82356125f381611e78565b9150602083013561240481611e78565b5f5f5f5f60808587031215612616575f5ffd5b843561262181611e78565b9350602085013561263181611e78565b93969395505050506040820135916060013590565b600181811c9082168061265a57607f821691505b60208210810361267857634e487b7160e01b5f52602260045260245ffd5b50919050565b6001600160a01b0391909116815260200190565b5f602082840312156126a2575f5ffd5b5051919050565b634e487b7160e01b5f52602160045260245ffd5b600481106126cd576126cd6126a9565b9052565b602080825282516001600160a01b0390811683830152838201511660408084019190915283015160608084019190915283015160c06080840152805160e084018190525f92919091019082906101008501905b808310156127475783518252602082019150602084019350600183019250612724565b506080860151925061275c60a08601846126bd565b60a0860151858203601f190160c087015292506127798184611e31565b9695505050505050565b5f82601f830112612792575f5ffd5b81516127a06120188261226e565b8082825260208201915060208360051b8601019250858311156127c1575f5ffd5b602085015b838110156122f45780518352602092830192016127c6565b5f6127eb61201884611fd5565b90508281528383830111156127fe575f5ffd5b8282602083015e5f602084830101529392505050565b5f82601f830112612823575f5ffd5b611e71838351602085016127de565b5f5f5f60608486031215612844575f5ffd5b835160208501519093506001600160401b03811115612861575f5ffd5b61286d86828701612783565b604086015190935090506001600160401b0381111561288a575f5ffd5b6124a086828701612814565b634e487b7160e01b5f52603260045260245ffd5b634e487b7160e01b5f52601160045260245ffd5b818103818111156103a2576103a26128aa565b5f8151808452602084019350602083015f5b828110156122435781516001600160a01b03168652602095860195909101906001016128e3565b6001600160a01b0387811682528616602082015260c0604082018190525f90612935908301876128d1565b82810360608401526129478187612213565b905084608084015282810360a08401526129618185611e31565b9998505050505050505050565b8051611e9a81611e78565b5f60208284031215612989575f5ffd5b8151611e7181611e78565b5f5f8335601e198436030181126129a9575f5ffd5b8301803591506001600160401b038211156129c2575f5ffd5b6020019150368190038213156129d6575f5ffd5b9250929050565b5f81518060208401855e5f93019283525090919050565b828482375f8382015f815261277981856129dd565b5f82601f830112612a18575f5ffd5b8151612a266120188261226e565b8082825260208201915060208360051b860101925085831115612a47575f5ffd5b602085015b838110156122f4578051612a5f81611e78565b835260209283019201612a4c565b8051611e9a816120c0565b5f60208284031215612a88575f5ffd5b81516001600160401b03811115612a9d575f5ffd5b82016101e08185031215612aaf575f5ffd5b612ab7611f82565b81516001600160401b03811115612acc575f5ffd5b612ad886828501612a09565b82525060208201516001600160401b03811115612af3575f5ffd5b612aff86828501612783565b60208301525060408281015190820152606080830151908201526080808301519082015260a08083015190820152612b3960c08301612a6d565b60c082015260e08201516001600160401b03811115612b56575f5ffd5b612b6286828501612783565b60e0830152506101008201516001600160401b03811115612b81575f5ffd5b612b8d86828501612783565b610100830152506101208281015190820152612bac610140830161296e565b610140820152610160828101519082015261018080830151908201526101a080830151908201526101c091820151918101919091529392505050565b61018081525f612bfc61018083018d611e31565b8281036020840152612c0e818d611e31565b83810360408501528b518082526020808e019350909101905f5b81811015612c9257835180516001600160a01b03168452602081015160028110612c5457612c546126a9565b6020858101919091526040828101516001600160a01b0316908601526060918201511515918501919091529390930192608090920191600101612c28565b50508381036060850152612ca6818c612213565b8a516001600160a01b03908116608087015260208c0151811660a087015260408c01511660c08601529250612cd9915050565b8660e0830152612ced6101008301876124aa565b93151561012082015291151561014083015261016090910152979650505050505050565b60208152612d236020820183516124aa565b5f6020830151612d3660408401826124aa565b5060408301516101206060840152612d526101408401826128d1565b90506060840151612d6660808501826124aa565b506080840151612d7960a08501826124aa565b5060a084015160c084015260c084015160e084015260e08401516101008401526101008401516101208401528091505092915050565b5f60208284031215612dbf575f5ffd5b81516001600160401b03811115612dd4575f5ffd5b611c0f84828501612814565b5f5f60408385031215612df1575f5ffd5b82516001600160401b03811115612e06575f5ffd5b612e1285828601612783565b602094909401519395939450505050565b5f60208284031215612e33575f5ffd5b81516001600160401b03811115612e48575f5ffd5b82016101008185031215612e5a575f5ffd5b612e62611f36565b81516001600160401b03811115612e77575f5ffd5b612e8386828501612783565b8252506020828101519082015260408083015190820152612ea660608301612a6d565b6060820152612eb760808301612a6d565b6080820152612ec860a08301612a6d565b60a0820152612ed960c08301612a6d565b60c082015260e08201516001600160401b03811115612ef6575f5ffd5b612f0286828501612783565b60e083015250949350505050565b5f5f60408385031215612f21575f5ffd5b82516001600160401b03811115612f36575f5ffd5b612f4285828601612783565b602085015190935090506001600160401b03811115612f5f575f5ffd5b612f6b85828601612783565b9150509250929050565b5f5f60408385031215612f86575f5ffd5b505080516020909101519092909150565b808201808211156103a2576103a26128aa565b80820281158282048414176103a2576103a26128aa565b5f82612fdb57634e487b7160e01b5f52601260045260245ffd5b500490565b5f60208284031215612ff0575f5ffd5b81516001600160401b03811115613005575f5ffd5b8201601f81018413613015575f5ffd5b611c0f848251602084016127de565b6602637b1b5b2b2160cd1b81525f611e7160078301846129dd565b664c4f434b45442d60c81b81525f611e7160078301846129dd565b5f6020828403121561306a575f5ffd5b815160ff81168114611e71575f5ffd5b6001600160a01b0394909416845260208401929092526040830152606082015260800190565b601f821115611a5757805f5260205f20601f840160051c810160208510156130c55750805b601f840160051c820191505b81811015611ad9575f81556001016130d1565b81516001600160401b038111156130fd576130fd611f22565b6131118161310b8454612646565b846130a0565b6020601f821160018114613143575f831561312c5750848201515b5f19600385901b1c1916600184901b178455611ad9565b5f84815260208120601f198516915b828110156131725787850151825560209485019460019092019101613152565b508482101561318f57868401515f19600387901b60f8161c191681555b50505050600190811b0190555056fe9b779b17422d0df92223018b32b4d1fa46e071723d6817e2486d003becc55f00a2646970667358221220e32fcad183211dd198ae81d06374d02e614c6fb2f40086781018a6f5fd7aac4d64736f6c634300081e0033","linkReferences":{}},"methodIdentifiers":{"allowance(address,address,uint256)":"598af9e7","approve(address,uint256,uint256)":"426a8493","balanceOf(address,uint256)":"00fdd58e","decimals(uint256)":"3f47e662","getId(address)":"65f68c89","getUnlockTimestamp(uint256)":"8a34711d","isOperator(address,address)":"b6363cf2","migrateLiquidity(address,address,(string,string,(address,address,address),uint256,address,bool,bool,bytes32))":"5e7a6a7d","migrateLiquidityHook((address,address,address[],address,address,uint256,uint256,uint256,uint256))":"24901c0b","multicall(bytes[])":"ac9650d8","name(uint256)":"00ad800c","queryMigrateLiquidity(address,address,address,(string,string,(address,address,address),uint256,address,bool,bool,bytes32))":"20ad0ff8","setOperator(address,bool)":"558a7297","supportsInterface(bytes4)":"01ffc9a7","symbol(uint256)":"4e41a1fb","transfer(address,uint256,uint256)":"095bcdb6","transferFrom(address,address,uint256,uint256)":"fe99049a","version()":"54fd4d50","withdrawBPT(address)":"dc450d4f"},"id":201}