{"abi":[{"type":"constructor","inputs":[{"name":"vault","type":"address","internalType":"contract IVault"},{"name":"_protocolFeeSweeper","type":"address","internalType":"contract IProtocolFeeSweeper"},{"name":"initialOwner","type":"address","internalType":"address"}],"stateMutability":"nonpayable"},{"type":"function","name":"acceptOwnership","inputs":[],"outputs":[],"stateMutability":"nonpayable"},{"type":"function","name":"burn","inputs":[{"name":"pool","type":"address","internalType":"address"},{"name":"feeToken","type":"address","internalType":"contract IERC20"},{"name":"feeTokenAmount","type":"uint256","internalType":"uint256"},{"name":"targetToken","type":"address","internalType":"contract IERC20"},{"name":"minAmountOut","type":"uint256","internalType":"uint256"},{"name":"recipient","type":"address","internalType":"address"},{"name":"deadline","type":"uint256","internalType":"uint256"}],"outputs":[],"stateMutability":"nonpayable"},{"type":"function","name":"burnHook","inputs":[{"name":"params","type":"tuple","internalType":"struct IBalancerFeeBurner.BurnHookParams","components":[{"name":"pool","type":"address","internalType":"address"},{"name":"sender","type":"address","internalType":"address"},{"name":"feeToken","type":"address","internalType":"contract IERC20"},{"name":"feeTokenAmount","type":"uint256","internalType":"uint256"},{"name":"targetToken","type":"address","internalType":"contract IERC20"},{"name":"minAmountOut","type":"uint256","internalType":"uint256"},{"name":"recipient","type":"address","internalType":"address"},{"name":"deadline","type":"uint256","internalType":"uint256"}]}],"outputs":[],"stateMutability":"nonpayable"},{"type":"function","name":"cancelOwnershipHandover","inputs":[],"outputs":[],"stateMutability":"payable"},{"type":"function","name":"completeOwnershipHandover","inputs":[{"name":"pendingOwner","type":"address","internalType":"address"}],"outputs":[],"stateMutability":"payable"},{"type":"function","name":"getBurnPath","inputs":[{"name":"feeToken","type":"address","internalType":"contract IERC20"}],"outputs":[{"name":"steps","type":"tuple[]","internalType":"struct SwapPathStep[]","components":[{"name":"pool","type":"address","internalType":"address"},{"name":"tokenOut","type":"address","internalType":"contract IERC20"},{"name":"isBuffer","type":"bool","internalType":"bool"}]}],"stateMutability":"view"},{"type":"function","name":"owner","inputs":[],"outputs":[{"name":"","type":"address","internalType":"address"}],"stateMutability":"view"},{"type":"function","name":"ownershipHandoverExpiresAt","inputs":[{"name":"pendingOwner","type":"address","internalType":"address"}],"outputs":[{"name":"result","type":"uint256","internalType":"uint256"}],"stateMutability":"view"},{"type":"function","name":"pendingOwner","inputs":[],"outputs":[{"name":"","type":"address","internalType":"address"}],"stateMutability":"view"},{"type":"function","name":"protocolFeeSweeper","inputs":[],"outputs":[{"name":"","type":"address","internalType":"contract IProtocolFeeSweeper"}],"stateMutability":"view"},{"type":"function","name":"renounceOwnership","inputs":[],"outputs":[],"stateMutability":"payable"},{"type":"function","name":"requestOwnershipHandover","inputs":[],"outputs":[],"stateMutability":"payable"},{"type":"function","name":"setBurnPath","inputs":[{"name":"feeToken","type":"address","internalType":"contract IERC20"},{"name":"steps","type":"tuple[]","internalType":"struct SwapPathStep[]","components":[{"name":"pool","type":"address","internalType":"address"},{"name":"tokenOut","type":"address","internalType":"contract IERC20"},{"name":"isBuffer","type":"bool","internalType":"bool"}]}],"outputs":[],"stateMutability":"nonpayable"},{"type":"function","name":"transferOwnership","inputs":[{"name":"newOwner","type":"address","internalType":"address"}],"outputs":[],"stateMutability":"payable"},{"type":"event","name":"OwnershipHandoverCanceled","inputs":[{"name":"pendingOwner","type":"address","indexed":true,"internalType":"address"}],"anonymous":false},{"type":"event","name":"OwnershipHandoverRequested","inputs":[{"name":"pendingOwner","type":"address","indexed":true,"internalType":"address"}],"anonymous":false},{"type":"event","name":"OwnershipTransferStarted","inputs":[{"name":"previousOwner","type":"address","indexed":true,"internalType":"address"},{"name":"newOwner","type":"address","indexed":true,"internalType":"address"}],"anonymous":false},{"type":"event","name":"OwnershipTransferred","inputs":[{"name":"oldOwner","type":"address","indexed":true,"internalType":"address"},{"name":"newOwner","type":"address","indexed":true,"internalType":"address"}],"anonymous":false},{"type":"event","name":"ProtocolFeeBurned","inputs":[{"name":"pool","type":"address","indexed":true,"internalType":"address"},{"name":"feeToken","type":"address","indexed":true,"internalType":"contract IERC20"},{"name":"exactFeeTokenAmountIn","type":"uint256","indexed":false,"internalType":"uint256"},{"name":"targetToken","type":"address","indexed":true,"internalType":"contract IERC20"},{"name":"actualTargetTokenAmountOut","type":"uint256","indexed":false,"internalType":"uint256"},{"name":"recipient","type":"address","indexed":false,"internalType":"address"}],"anonymous":false},{"type":"error","name":"AlreadyInitialized","inputs":[]},{"type":"error","name":"AmountOutBelowMin","inputs":[{"name":"tokenOut","type":"address","internalType":"contract IERC20"},{"name":"amountOut","type":"uint256","internalType":"uint256"},{"name":"minAmountOut","type":"uint256","internalType":"uint256"}]},{"type":"error","name":"BufferNotInitialized","inputs":[{"name":"wrappedToken","type":"address","internalType":"address"}]},{"type":"error","name":"BurnPathDoesNotExist","inputs":[]},{"type":"error","name":"InvalidBufferTokenOut","inputs":[{"name":"tokenOut","type":"address","internalType":"contract IERC20"},{"name":"step","type":"uint256","internalType":"uint256"}]},{"type":"error","name":"InvalidProtocolFeeSweeper","inputs":[]},{"type":"error","name":"NewOwnerIsZeroAddress","inputs":[]},{"type":"error","name":"NoHandoverRequest","inputs":[]},{"type":"error","name":"OwnableInvalidOwner","inputs":[{"name":"owner","type":"address","internalType":"address"}]},{"type":"error","name":"OwnableUnauthorizedAccount","inputs":[{"name":"account","type":"address","internalType":"address"}]},{"type":"error","name":"ReentrancyGuardReentrantCall","inputs":[]},{"type":"error","name":"SenderIsNotVault","inputs":[{"name":"sender","type":"address","internalType":"address"}]},{"type":"error","name":"SenderNotAllowed","inputs":[]},{"type":"error","name":"SwapDeadline","inputs":[]},{"type":"error","name":"TargetTokenOutMismatch","inputs":[]},{"type":"error","name":"TokenDoesNotExistInPool","inputs":[{"name":"token","type":"address","internalType":"contract IERC20"},{"name":"step","type":"uint256","internalType":"uint256"}]},{"type":"error","name":"Unauthorized","inputs":[]}],"bytecode":{"object":"0x60c060405234801561000f575f5ffd5b50604051611a8a380380611a8a83398101604081905261002e916100fd565b6001600160a01b03808416608052829082908190811661006757604051631e4fbdf760e01b81525f600482015260240160405180910390fd5b610070816100ad565b506001600160a01b0382166100985760405163932c92a560e01b815260040160405180910390fd5b5050506001600160a01b031660a05250610147565b6001600160a01b0316638b78c6d819819055805f7f8be0079c531659141344cd1fd0a4f28419497f9722a3daafe3b4186f6b6457e08180a35b50565b6001600160a01b03811681146100e6575f5ffd5b5f5f5f6060848603121561010f575f5ffd5b835161011a816100e9565b602085015190935061012b816100e9565b604085015190925061013c816100e9565b809150509250925092565b60805160a0516118dd6101ad5f395f818160c1015281816103320152610c9101525f818161048c015281816105e20152818161082f0152818161086b0152818161093001528181610a3e01528181610b5e01528181610cd101526110b401526118dd5ff3fe6080604052600436106100ac575f3560e01c8063178ac96e146100b057806325692962146100f957806354d1f13d14610103578063715018a61461010b57806379ba5097146101135780638da5cb5b14610127578063a1a898421461013b578063c1cfb02a1461015a578063c66472de14610186578063de557a32146101a5578063e30c3978146101c4578063f04e283e146101d8578063f2fde38b146101eb578063fee81cf4146101fe575b5f5ffd5b3480156100bb575f5ffd5b506100e37f000000000000000000000000000000000000000000000000000000000000000081565b6040516100f091906111d8565b60405180910390f35b61010161023d565b005b610101610289565b6101016102c2565b34801561011e575f5ffd5b506101016102d5565b348015610132575f5ffd5b506100e361031d565b348015610146575f5ffd5b50610101610155366004611200565b610330565b348015610165575f5ffd5b50610179610174366004611281565b610732565b6040516100f091906112a3565b348015610191575f5ffd5b506101016101a036600461130e565b610743565b3480156101b0575f5ffd5b506101016101bf366004611328565b610c86565b3480156101cf575f5ffd5b506100e3610e0a565b6101016101e6366004611281565b610e18565b6101016101f9366004611281565b610e52565b348015610209575f5ffd5b5061022f610218366004611281565b63389a75e1600c9081525f91909152602090205490565b6040519081526020016100f0565b5f6202a3006001600160401b03164201905063389a75e1600c52335f52806020600c2055337fdbf36a107da19e49527a7176a1babf963b4b0ff8cde35ee35d6cd8f1f9ac7e1d5f5fa250565b63389a75e1600c52335f525f6020600c2055337ffa7b8eab7da67f412cc9575ed43464468f9bfbae89d1675917346ca6d8fe3c925f5fa2565b6102ca610eb7565b6102d35f610ef2565b565b33806102df610e0a565b6001600160a01b031614610311578060405163118cdaa760e01b815260040161030891906111d8565b60405180910390fd5b61031a81610f2f565b50565b5f61032b638b78c6d8195490565b905090565b7f00000000000000000000000000000000000000000000000000000000000000006001600160a01b0316634ccb20c06040518163ffffffff1660e01b8152600401602060405180830381865afa15801561038c573d5f5f3e3d5ffd5b505050506040513d601f19601f820116820180604052508101906103b0919061139f565b6001600160a01b0316336001600160a01b0316141580156103ea57506103d461031d565b6001600160a01b0316336001600160a01b031614155b15610408576040516323dada5360e01b815260040160405180910390fd5b6001600160a01b0383165f9081526001602052604081206104289161117d565b825f5b8281101561072b575f848483818110610446576104466113ba565b90506060020180360381019061045c919061141f565b90508060400151156105c757805160405163257dd7ad60e11b81526001600160a01b038281168187161492915f917f00000000000000000000000000000000000000000000000000000000000000001690634afbaf5a906104c19085906004016111d8565b602060405180830381865afa1580156104dc573d5f5f3e3d5ffd5b505050506040513d601f19601f82011682018060405250810190610500919061139f565b90506001600160a01b03811661052c5783516040516385f4129960e01b815261030891906004016111d8565b82801561054f5750806001600160a01b031684602001516001600160a01b031614155b156105755783602001518560405163dfb5ac9f60e01b8152600401610308929190611490565b821580156105995750816001600160a01b031684602001516001600160a01b031614155b156105bf5783602001518560405163dfb5ac9f60e01b8152600401610308929190611490565b5050506106c0565b805160405163ca4f280360e01b81525f916001600160a01b037f0000000000000000000000000000000000000000000000000000000000000000169163ca4f280391610615916004016111d8565b5f60405180830381865afa15801561062f573d5f5f3e3d5ffd5b505050506040513d5f823e601f3d908101601f1916820160405261065691908101906114a9565b90506106628482610f47565b15155f0361068757838360405163d8677ab160e01b8152600401610308929190611490565b610695826020015182610f47565b15155f036106be5781602001518360405163d8677ab160e01b8152600401610308929190611490565b505b6020808201516001600160a01b0388165f908152600190925260409091209093508585848181106106f3576106f36113ba565b83546001810185555f9485526020909420606090910292909201926002029091019050610720828261157b565b50505060010161042b565b5050505050565b606061073d82610fa0565b92915050565b61074b611062565b6107536110a9565b8060e0013542111561077857604051630e08b8af60e41b815260040160405180910390fd5b5f6107896060830160408401611281565b90505f61079c60a0840160808501611281565b905060608301355f6107ad84610fa0565b90505f600182516107be91906115d8565b9050836001600160a01b03168282815181106107dc576107dc6113ba565b6020026020010151602001516001600160a01b03161461080f5760405163a682e90360e01b815260040160405180910390fd5b6108546108226040880160208901611281565b6001600160a01b038716907f0000000000000000000000000000000000000000000000000000000000000000866110f4565b6040516315afd40960e01b81526001600160a01b037f000000000000000000000000000000000000000000000000000000000000000016906315afd409906108a29088908790600401611490565b6020604051808303815f875af11580156108be573d5f5f3e3d5ffd5b505050506040513d601f19601f820116820180604052508101906108e291906115f7565b5084835f5b8451811015610b53575f858281518110610903576109036113ba565b602002602001015190505f5f86841461091c575f610922565b8b60a001355b9050826040015115610a3c577f00000000000000000000000000000000000000000000000000000000000000006001600160a01b03166343583be56040518060a001604052805f600181111561097a5761097a61160e565b8152602001896001600160a01b0316875f01516001600160a01b0316146109a1575f6109a4565b60015b60018111156109b5576109b561160e565b8152602001865f01516001600160a01b03168152602001888152602001848152506040518263ffffffff1660e01b81526004016109f2919061163e565b6060604051808303815f875af1158015610a0e573d5f5f3e3d5ffd5b505050506040513d601f19601f82011682018060405250810190610a329190611691565b9350610b40915050565b7f00000000000000000000000000000000000000000000000000000000000000006001600160a01b0316632bfb780c6040518060e001604052805f6001811115610a8857610a8861160e565b8152602001865f01516001600160a01b03168152602001896001600160a01b0316815260200186602001516001600160a01b0316815260200188815260200184815260200160405180602001604052805f8152508152506040518263ffffffff1660e01b8152600401610afb91906116ea565b6060604051808303815f875af1158015610b17573d5f5f3e3d5ffd5b505050506040513d601f19601f82011682018060405250810190610b3b9190611691565b935050505b50602090910151935091506001016108e7565b506001600160a01b037f00000000000000000000000000000000000000000000000000000000000000001663ae63932983610b9460e08c0160c08d01611281565b6040516001600160e01b031960e085901b1681526001600160a01b03928316600482015291166024820152604481018490526064015f604051808303815f87803b158015610be0575f5ffd5b505af1158015610bf2573d5f5f3e3d5ffd5b5050506001600160a01b0387811691508816610c1160208b018b611281565b6001600160a01b03167f77a7b034dbb42c9087518e95b49c02a17704a521555779f3f9d7f1b26df5ce8d88858d60c0016020810190610c509190611281565b6040805193845260208401929092526001600160a01b03169082015260600160405180910390a45050505050505061031a611106565b336001600160a01b037f00000000000000000000000000000000000000000000000000000000000000001614610ccf576040516323dada5360e01b815260040160405180910390fd5b7f00000000000000000000000000000000000000000000000000000000000000006001600160a01b03166348c894916040518061010001604052808a6001600160a01b03168152602001336001600160a01b03168152602001896001600160a01b03168152602001888152602001876001600160a01b03168152602001868152602001856001600160a01b0316815260200184815250604051602401610d75919061176d565b60408051601f198184030181529181526020820180516001600160e01b0316636332396f60e11b179052516001600160e01b031960e084901b168152610dbe91906004016117e3565b5f604051808303815f875af1158015610dd9573d5f5f3e3d5ffd5b505050506040513d5f823e601f3d908101601f19168201604052610e0091908101906117f5565b5050505050505050565b5f546001600160a01b031690565b610e20610eb7565b63389a75e1600c52805f526020600c208054421115610e4657636f5e88185f526004601cfd5b5f905561031a81610ef2565b610e5a610eb7565b5f80546001600160a01b0319166001600160a01b038316908117909155610e7f61031d565b6001600160a01b03167f38d16b8cac22d99fc7c124b9cd0de2d3fa1faef420bfe791d8c362d765e2270060405160405180910390a350565b610ebf61031d565b6001600160a01b0316336001600160a01b0316146102d3573360405163118cdaa760e01b815260040161030891906111d8565b638b78c6d81980546001600160a01b039092169182907f8be0079c531659141344cd1fd0a4f28419497f9722a3daafe3b4186f6b6457e05f80a355565b5f80546001600160a01b031916905561031a81610ef2565b5f805b8251811015610f9757836001600160a01b0316838281518110610f6f57610f6f6113ba565b60200260200101516001600160a01b031603610f8f57600191505061073d565b600101610f4a565b505f9392505050565b6001600160a01b0381165f908152600160209081526040808320805482518185028101850190935280835260609492939192909184015b82821015611036575f848152602090819020604080516060810182526002860290920180546001600160a01b03908116845260019182015490811684860152600160a01b900460ff161515918301919091529083529092019101610fd7565b50505050905080515f0361105d5760405163f9aa031560e01b815260040160405180910390fd5b919050565b5f5160206118885f395f51905f525c1561108f57604051633ee5aeb560e01b815260040160405180910390fd5b6102d360015f5160206118885f395f51905f525b9061111d565b336001600160a01b037f000000000000000000000000000000000000000000000000000000000000000016146102d3573360405163089676d560e01b815260040161030891906111d8565b61110084848484611124565b50505050565b6102d35f5f5160206118885f395f51905f526110a3565b80825d5050565b60405181606052826040528360601b602c526323b872dd60601b600c5260205f6064601c5f895af18060015f51141661116f57803d873b15171061116f57637939f4245f526004601cfd5b505f60605260405250505050565b5080545f8255600202905f5260205f209081019061031a91905b808211156111c75780546001600160a01b03191681556001810180546001600160a81b0319169055600201611197565b5090565b6001600160a01b03169052565b6001600160a01b0391909116815260200190565b6001600160a01b038116811461031a575f5ffd5b5f5f5f60408486031215611212575f5ffd5b833561121d816111ec565b925060208401356001600160401b03811115611237575f5ffd5b8401601f81018613611247575f5ffd5b80356001600160401b0381111561125c575f5ffd5b866020606083028401011115611270575f5ffd5b939660209190910195509293505050565b5f60208284031215611291575f5ffd5b813561129c816111ec565b9392505050565b602080825282518282018190525f918401906040840190835b8181101561130357835180516001600160a01b03908116855260208083015190911681860152604091820151151591850191909152909301926060909201916001016112bc565b509095945050505050565b5f610100828403128015611320575f5ffd5b509092915050565b5f5f5f5f5f5f5f60e0888a03121561133e575f5ffd5b8735611349816111ec565b96506020880135611359816111ec565b9550604088013594506060880135611370816111ec565b93506080880135925060a0880135611387816111ec565b96999598509396929591949193505060c09091013590565b5f602082840312156113af575f5ffd5b815161129c816111ec565b634e487b7160e01b5f52603260045260245ffd5b634e487b7160e01b5f52604160045260245ffd5b604051601f8201601f191681016001600160401b038111828210171561140a5761140a6113ce565b604052919050565b801515811461031a575f5ffd5b5f6060828403128015611430575f5ffd5b50604051606081016001600160401b0381118282101715611453576114536113ce565b6040528235611461816111ec565b81526020830135611471816111ec565b6020820152604083013561148481611412565b60408201529392505050565b6001600160a01b03929092168252602082015260400190565b5f602082840312156114b9575f5ffd5b81516001600160401b038111156114ce575f5ffd5b8201601f810184136114de575f5ffd5b80516001600160401b038111156114f7576114f76113ce565b8060051b611507602082016113e2565b91825260208184018101929081019087841115611522575f5ffd5b6020850194505b83851015611550578451925061153e836111ec565b82825260209485019490910190611529565b979650505050505050565b80546001600160a01b0319166001600160a01b0392909216919091179055565b8135611586816111ec565b611590818361155b565b506001810160208301356115a3816111ec565b6115ad818361155b565b5060408301356115bc81611412565b815460ff60a01b191690151560a01b60ff60a01b161790555050565b8181038181111561073d57634e487b7160e01b5f52601160045260245ffd5b5f60208284031215611607575f5ffd5b5051919050565b634e487b7160e01b5f52602160045260245ffd5b6002811061031a57634e487b7160e01b5f52602160045260245ffd5b815160a082019061164e81611622565b8252602083015161165e81611622565b60208301526040838101516001600160a01b03169083015260608084015190830152608092830151929091019190915290565b5f5f5f606084860312156116a3575f5ffd5b5050815160208301516040909301519094929350919050565b5f81518084528060208401602086015e5f602082860101526020601f19601f83011685010191505092915050565b602081525f82516116fa81611622565b8060208401525060018060a01b03602084015116604083015260018060a01b036040840151166060830152606083015161173760808401826111cb565b50608083015160a083015260a083015160c083015260c083015160e0808401526117656101008401826116bc565b949350505050565b81516001600160a01b03908116825260208084015182169083015260408084015190911690820152606080830151908201526080808301516101008301916117b7908401826111cb565b5060a083015160a083015260c08301516117d460c08401826111cb565b5060e092830151919092015290565b602081525f61129c60208301846116bc565b5f60208284031215611805575f5ffd5b81516001600160401b0381111561181a575f5ffd5b8201601f8101841361182a575f5ffd5b80516001600160401b03811115611843576118436113ce565b611856601f8201601f19166020016113e2565b81815285602083850101111561186a575f5ffd5b8160208401602083015e5f9181016020019190915294935050505056fe9b779b17422d0df92223018b32b4d1fa46e071723d6817e2486d003becc55f00a264697066735822122080bf419c781e7eed542b23026d9aa8f601cb99c5b12c98986c0c767eade557e064736f6c634300081e0033","linkReferences":{}},"methodIdentifiers":{"acceptOwnership()":"79ba5097","burn(address,address,uint256,address,uint256,address,uint256)":"de557a32","burnHook((address,address,address,uint256,address,uint256,address,uint256))":"c66472de","cancelOwnershipHandover()":"54d1f13d","completeOwnershipHandover(address)":"f04e283e","getBurnPath(address)":"c1cfb02a","owner()":"8da5cb5b","ownershipHandoverExpiresAt(address)":"fee81cf4","pendingOwner()":"e30c3978","protocolFeeSweeper()":"178ac96e","renounceOwnership()":"715018a6","requestOwnershipHandover()":"25692962","setBurnPath(address,(address,address,bool)[])":"a1a89842","transferOwnership(address)":"f2fde38b"},"id":302}