{"abi":[{"type":"constructor","inputs":[{"name":"vault","type":"address","internalType":"contract IVault"}],"stateMutability":"nonpayable"},{"type":"function","name":"addLiquidityHookFeePercentage","inputs":[],"outputs":[{"name":"","type":"uint64","internalType":"uint64"}],"stateMutability":"view"},{"type":"function","name":"cancelOwnershipHandover","inputs":[],"outputs":[],"stateMutability":"payable"},{"type":"function","name":"completeOwnershipHandover","inputs":[{"name":"pendingOwner","type":"address","internalType":"address"}],"outputs":[],"stateMutability":"payable"},{"type":"function","name":"getHookFlags","inputs":[],"outputs":[{"name":"","type":"tuple","internalType":"struct HookFlags","components":[{"name":"enableHookAdjustedAmounts","type":"bool","internalType":"bool"},{"name":"shouldCallBeforeInitialize","type":"bool","internalType":"bool"},{"name":"shouldCallAfterInitialize","type":"bool","internalType":"bool"},{"name":"shouldCallComputeDynamicSwapFee","type":"bool","internalType":"bool"},{"name":"shouldCallBeforeSwap","type":"bool","internalType":"bool"},{"name":"shouldCallAfterSwap","type":"bool","internalType":"bool"},{"name":"shouldCallBeforeAddLiquidity","type":"bool","internalType":"bool"},{"name":"shouldCallAfterAddLiquidity","type":"bool","internalType":"bool"},{"name":"shouldCallBeforeRemoveLiquidity","type":"bool","internalType":"bool"},{"name":"shouldCallAfterRemoveLiquidity","type":"bool","internalType":"bool"}]}],"stateMutability":"pure"},{"type":"function","name":"hookSwapFeePercentage","inputs":[],"outputs":[{"name":"","type":"uint64","internalType":"uint64"}],"stateMutability":"view"},{"type":"function","name":"onAfterAddLiquidity","inputs":[{"name":"","type":"address","internalType":"address"},{"name":"pool","type":"address","internalType":"address"},{"name":"kind","type":"uint8","internalType":"enum AddLiquidityKind"},{"name":"","type":"uint256[]","internalType":"uint256[]"},{"name":"amountsInRaw","type":"uint256[]","internalType":"uint256[]"},{"name":"","type":"uint256","internalType":"uint256"},{"name":"","type":"uint256[]","internalType":"uint256[]"},{"name":"","type":"bytes","internalType":"bytes"}],"outputs":[{"name":"success","type":"bool","internalType":"bool"},{"name":"","type":"uint256[]","internalType":"uint256[]"}],"stateMutability":"nonpayable"},{"type":"function","name":"onAfterInitialize","inputs":[{"name":"","type":"uint256[]","internalType":"uint256[]"},{"name":"","type":"uint256","internalType":"uint256"},{"name":"","type":"bytes","internalType":"bytes"}],"outputs":[{"name":"","type":"bool","internalType":"bool"}],"stateMutability":"nonpayable"},{"type":"function","name":"onAfterRemoveLiquidity","inputs":[{"name":"","type":"address","internalType":"address"},{"name":"pool","type":"address","internalType":"address"},{"name":"kind","type":"uint8","internalType":"enum RemoveLiquidityKind"},{"name":"","type":"uint256","internalType":"uint256"},{"name":"","type":"uint256[]","internalType":"uint256[]"},{"name":"amountsOutRaw","type":"uint256[]","internalType":"uint256[]"},{"name":"","type":"uint256[]","internalType":"uint256[]"},{"name":"","type":"bytes","internalType":"bytes"}],"outputs":[{"name":"","type":"bool","internalType":"bool"},{"name":"hookAdjustedAmountsOutRaw","type":"uint256[]","internalType":"uint256[]"}],"stateMutability":"nonpayable"},{"type":"function","name":"onAfterSwap","inputs":[{"name":"params","type":"tuple","internalType":"struct AfterSwapParams","components":[{"name":"kind","type":"uint8","internalType":"enum SwapKind"},{"name":"tokenIn","type":"address","internalType":"contract IERC20"},{"name":"tokenOut","type":"address","internalType":"contract IERC20"},{"name":"amountInScaled18","type":"uint256","internalType":"uint256"},{"name":"amountOutScaled18","type":"uint256","internalType":"uint256"},{"name":"tokenInBalanceScaled18","type":"uint256","internalType":"uint256"},{"name":"tokenOutBalanceScaled18","type":"uint256","internalType":"uint256"},{"name":"amountCalculatedScaled18","type":"uint256","internalType":"uint256"},{"name":"amountCalculatedRaw","type":"uint256","internalType":"uint256"},{"name":"router","type":"address","internalType":"address"},{"name":"pool","type":"address","internalType":"address"},{"name":"userData","type":"bytes","internalType":"bytes"}]}],"outputs":[{"name":"success","type":"bool","internalType":"bool"},{"name":"hookAdjustedAmountCalculatedRaw","type":"uint256","internalType":"uint256"}],"stateMutability":"nonpayable"},{"type":"function","name":"onBeforeAddLiquidity","inputs":[{"name":"","type":"address","internalType":"address"},{"name":"","type":"address","internalType":"address"},{"name":"","type":"uint8","internalType":"enum AddLiquidityKind"},{"name":"","type":"uint256[]","internalType":"uint256[]"},{"name":"","type":"uint256","internalType":"uint256"},{"name":"","type":"uint256[]","internalType":"uint256[]"},{"name":"","type":"bytes","internalType":"bytes"}],"outputs":[{"name":"","type":"bool","internalType":"bool"}],"stateMutability":"nonpayable"},{"type":"function","name":"onBeforeInitialize","inputs":[{"name":"","type":"uint256[]","internalType":"uint256[]"},{"name":"","type":"bytes","internalType":"bytes"}],"outputs":[{"name":"","type":"bool","internalType":"bool"}],"stateMutability":"nonpayable"},{"type":"function","name":"onBeforeRemoveLiquidity","inputs":[{"name":"","type":"address","internalType":"address"},{"name":"","type":"address","internalType":"address"},{"name":"","type":"uint8","internalType":"enum RemoveLiquidityKind"},{"name":"","type":"uint256","internalType":"uint256"},{"name":"","type":"uint256[]","internalType":"uint256[]"},{"name":"","type":"uint256[]","internalType":"uint256[]"},{"name":"","type":"bytes","internalType":"bytes"}],"outputs":[{"name":"","type":"bool","internalType":"bool"}],"stateMutability":"nonpayable"},{"type":"function","name":"onBeforeSwap","inputs":[{"name":"","type":"tuple","internalType":"struct PoolSwapParams","components":[{"name":"kind","type":"uint8","internalType":"enum SwapKind"},{"name":"amountGivenScaled18","type":"uint256","internalType":"uint256"},{"name":"balancesScaled18","type":"uint256[]","internalType":"uint256[]"},{"name":"indexIn","type":"uint256","internalType":"uint256"},{"name":"indexOut","type":"uint256","internalType":"uint256"},{"name":"router","type":"address","internalType":"address"},{"name":"userData","type":"bytes","internalType":"bytes"}]},{"name":"","type":"address","internalType":"address"}],"outputs":[{"name":"","type":"bool","internalType":"bool"}],"stateMutability":"nonpayable"},{"type":"function","name":"onComputeDynamicSwapFeePercentage","inputs":[{"name":"","type":"tuple","internalType":"struct PoolSwapParams","components":[{"name":"kind","type":"uint8","internalType":"enum SwapKind"},{"name":"amountGivenScaled18","type":"uint256","internalType":"uint256"},{"name":"balancesScaled18","type":"uint256[]","internalType":"uint256[]"},{"name":"indexIn","type":"uint256","internalType":"uint256"},{"name":"indexOut","type":"uint256","internalType":"uint256"},{"name":"router","type":"address","internalType":"address"},{"name":"userData","type":"bytes","internalType":"bytes"}]},{"name":"","type":"address","internalType":"address"},{"name":"","type":"uint256","internalType":"uint256"}],"outputs":[{"name":"","type":"bool","internalType":"bool"},{"name":"","type":"uint256","internalType":"uint256"}],"stateMutability":"view"},{"type":"function","name":"onRegister","inputs":[{"name":"","type":"address","internalType":"address"},{"name":"pool","type":"address","internalType":"address"},{"name":"","type":"tuple[]","internalType":"struct TokenConfig[]","components":[{"name":"token","type":"address","internalType":"contract IERC20"},{"name":"tokenType","type":"uint8","internalType":"enum TokenType"},{"name":"rateProvider","type":"address","internalType":"contract IRateProvider"},{"name":"paysYieldFees","type":"bool","internalType":"bool"}]},{"name":"","type":"tuple","internalType":"struct LiquidityManagement","components":[{"name":"disableUnbalancedLiquidity","type":"bool","internalType":"bool"},{"name":"enableAddLiquidityCustom","type":"bool","internalType":"bool"},{"name":"enableRemoveLiquidityCustom","type":"bool","internalType":"bool"},{"name":"enableDonation","type":"bool","internalType":"bool"}]}],"outputs":[{"name":"","type":"bool","internalType":"bool"}],"stateMutability":"nonpayable"},{"type":"function","name":"owner","inputs":[],"outputs":[{"name":"","type":"address","internalType":"address"}],"stateMutability":"view"},{"type":"function","name":"ownershipHandoverExpiresAt","inputs":[{"name":"pendingOwner","type":"address","internalType":"address"}],"outputs":[{"name":"result","type":"uint256","internalType":"uint256"}],"stateMutability":"view"},{"type":"function","name":"removeLiquidityHookFeePercentage","inputs":[],"outputs":[{"name":"","type":"uint64","internalType":"uint64"}],"stateMutability":"view"},{"type":"function","name":"renounceOwnership","inputs":[],"outputs":[],"stateMutability":"payable"},{"type":"function","name":"requestOwnershipHandover","inputs":[],"outputs":[],"stateMutability":"payable"},{"type":"function","name":"setAddLiquidityHookFeePercentage","inputs":[{"name":"hookFeePercentage","type":"uint64","internalType":"uint64"}],"outputs":[],"stateMutability":"nonpayable"},{"type":"function","name":"setHookSwapFeePercentage","inputs":[{"name":"hookFeePercentage","type":"uint64","internalType":"uint64"}],"outputs":[],"stateMutability":"nonpayable"},{"type":"function","name":"setRemoveLiquidityHookFeePercentage","inputs":[{"name":"hookFeePercentage","type":"uint64","internalType":"uint64"}],"outputs":[],"stateMutability":"nonpayable"},{"type":"function","name":"transferOwnership","inputs":[{"name":"newOwner","type":"address","internalType":"address"}],"outputs":[],"stateMutability":"payable"},{"type":"function","name":"withdrawFees","inputs":[{"name":"feeToken","type":"address","internalType":"contract IERC20"}],"outputs":[],"stateMutability":"nonpayable"},{"type":"event","name":"FeeTakingHookExampleRegistered","inputs":[{"name":"hooksContract","type":"address","indexed":true,"internalType":"address"},{"name":"pool","type":"address","indexed":true,"internalType":"address"}],"anonymous":false},{"type":"event","name":"HookAddLiquidityFeePercentageChanged","inputs":[{"name":"hooksContract","type":"address","indexed":true,"internalType":"address"},{"name":"hookFeePercentage","type":"uint256","indexed":false,"internalType":"uint256"}],"anonymous":false},{"type":"event","name":"HookFeeCharged","inputs":[{"name":"hooksContract","type":"address","indexed":true,"internalType":"address"},{"name":"token","type":"address","indexed":true,"internalType":"contract IERC20"},{"name":"feeAmount","type":"uint256","indexed":false,"internalType":"uint256"}],"anonymous":false},{"type":"event","name":"HookFeeWithdrawn","inputs":[{"name":"hooksContract","type":"address","indexed":true,"internalType":"address"},{"name":"token","type":"address","indexed":true,"internalType":"contract IERC20"},{"name":"recipient","type":"address","indexed":true,"internalType":"address"},{"name":"feeAmount","type":"uint256","indexed":false,"internalType":"uint256"}],"anonymous":false},{"type":"event","name":"HookRemoveLiquidityFeePercentageChanged","inputs":[{"name":"hooksContract","type":"address","indexed":true,"internalType":"address"},{"name":"hookFeePercentage","type":"uint256","indexed":false,"internalType":"uint256"}],"anonymous":false},{"type":"event","name":"HookSwapFeePercentageChanged","inputs":[{"name":"hooksContract","type":"address","indexed":true,"internalType":"address"},{"name":"hookFeePercentage","type":"uint256","indexed":false,"internalType":"uint256"}],"anonymous":false},{"type":"event","name":"OwnershipHandoverCanceled","inputs":[{"name":"pendingOwner","type":"address","indexed":true,"internalType":"address"}],"anonymous":false},{"type":"event","name":"OwnershipHandoverRequested","inputs":[{"name":"pendingOwner","type":"address","indexed":true,"internalType":"address"}],"anonymous":false},{"type":"event","name":"OwnershipTransferred","inputs":[{"name":"oldOwner","type":"address","indexed":true,"internalType":"address"},{"name":"newOwner","type":"address","indexed":true,"internalType":"address"}],"anonymous":false},{"type":"error","name":"AlreadyInitialized","inputs":[]},{"type":"error","name":"NewOwnerIsZeroAddress","inputs":[]},{"type":"error","name":"NoHandoverRequest","inputs":[]},{"type":"error","name":"OwnableInvalidOwner","inputs":[{"name":"owner","type":"address","internalType":"address"}]},{"type":"error","name":"OwnableUnauthorizedAccount","inputs":[{"name":"account","type":"address","internalType":"address"}]},{"type":"error","name":"SenderIsNotVault","inputs":[{"name":"sender","type":"address","internalType":"address"}]},{"type":"error","name":"Unauthorized","inputs":[]}],"bytecode":{"object":"0x60a060405234801561000f575f5ffd5b50604051611ba3380380611ba383398101604081905261002e916100ab565b6001600160a01b038116608052338061006057604051631e4fbdf760e01b81525f600482015260240160405180910390fd5b61006981610070565b50506100d8565b6001600160a01b0316638b78c6d819819055805f7f8be0079c531659141344cd1fd0a4f28419497f9722a3daafe3b4186f6b6457e08180a350565b5f602082840312156100bb575f5ffd5b81516001600160a01b03811681146100d1575f5ffd5b9392505050565b608051611a906101135f395f81816106550152818161078f015281816108a701528181610aba01528181610bbb0152610e2b0152611a905ff3fe608060405260043610610125575f3560e01c806302273467146101295780630b89f18214610164578063164e68de1461019357806318b6eb55146101b45780631c149e28146101ea57806325692962146102095780632754888d1461021157806338be241d1461023e5780633d101b0e146102605780634392312a1461027f57806345421ec71461029d5780635211fa77146102c357806354d1f13d146102dd578063715018a6146102e55780638da5cb5b146102ed578063976907cc1461030e578063a0e8f5ac1461032d578063b1d55b7814610351578063ba5f9f4014610370578063d77153a71461038a578063eb499270146103ab578063f04e283e146103d0578063f2fde38b146103e3578063f9e5c197146103f6578063fee81cf414610415575b5f5ffd5b348015610134575f5ffd5b505f5461014e90600160401b90046001600160401b031681565b60405161015b9190610fbc565b60405180910390f35b34801561016f575f5ffd5b5061018361017e3660046110a4565b610454565b604051901515815260200161015b565b34801561019e575f5ffd5b506101b26101ad3660046111d3565b61049d565b005b3480156101bf575f5ffd5b506101d36101ce3660046111f5565b610591565b60408051921515835260208301919091520161015b565b3480156101f5575f5ffd5b506101836102043660046112fc565b6106f5565b6101b26106fd565b34801561021c575f5ffd5b5061023061022b36600461136d565b610749565b60405161015b92919061145c565b348015610249575f5ffd5b506101836102583660046114ab565b5f9392505050565b34801561026b575f5ffd5b506101b261027a366004611516565b6109ad565b34801561028a575f5ffd5b505f5461014e906001600160401b031681565b3480156102a8575f5ffd5b506101836102b736600461154a565b5f979650505050505050565b3480156102ce575f5ffd5b50610183610204366004611621565b6101b2610a15565b6101b2610a4e565b3480156102f8575f5ffd5b50610301610a61565b60405161015b919061166f565b348015610319575f5ffd5b50610230610328366004611683565b610a74565b348015610338575f5ffd5b506101d361034736600461172f565b5f80935093915050565b34801561035c575f5ffd5b506101b261036b366004611516565b610cc1565b34801561037b575f5ffd5b506101836102b7366004611784565b348015610395575f5ffd5b5061039e610d1e565b60405161015b9190611809565b3480156103b6575f5ffd5b505f5461014e90600160801b90046001600160401b031681565b6101b26103de3660046111d3565b610d4c565b6101b26103f13660046111d3565b610d89565b348015610401575f5ffd5b506101b2610410366004611516565b610dcc565b348015610420575f5ffd5b5061044661042f3660046111d3565b63389a75e1600c9081525f91909152602090205490565b60405190815260200161015b565b5f61045d610e20565b6040516001600160a01b0385169030907fc6a563087ec4dcfedb7cea5eeed04caf5894d7f8f8b36ab046d0c2a0305d04c8905f90a3506001949350505050565b6040516370a0823160e01b81525f906001600160a01b038316906370a08231906104cb90309060040161166f565b602060405180830381865afa1580156104e6573d5f5f3e3d5ffd5b505050506040513d601f19601f8201168201806040525081019061050a91906118d2565b9050801561058d5761052e61051d610a61565b6001600160a01b0384169083610e6b565b610536610a61565b6001600160a01b0316826001600160a01b0316306001600160a01b03167fa40043f81144a97de2a841676b5ecae2effd47a48c630c4d3728290281d9605b8460405161058491815260200190565b60405180910390a45b5050565b5f5f61059b610e20565b505f54610100830135906001600160401b0316156106ec575f80546105cf90610100860135906001600160401b0316610e7b565b905080156106ea575f806105e660208701876118fd565b60018111156105f7576105f76118e9565b0361061f5761060c60608601604087016111d3565b9050610618828461192c565b925061063e565b61062f60408601602087016111d3565b905061063b828461193f565b92505b60405163ae63932960e01b81526001600160a01b037f0000000000000000000000000000000000000000000000000000000000000000169063ae6393299061068e90849030908790600401611952565b5f604051808303815f87803b1580156106a5575f5ffd5b505af11580156106b7573d5f5f3e3d5ffd5b50506040518481526001600160a01b03841692503091505f516020611a3b5f395f51905f529060200160405180910390a3505b505b60019150915091565b5f5b92915050565b5f6202a3006001600160401b03164201905063389a75e1600c52335f52806020600c2055337fdbf36a107da19e49527a7176a1babf963b4b0ff8cde35ee35d6cd8f1f9ac7e1d5f5fa250565b5f6060610754610e20565b5f886003811115610767576107676118e9565b1461077657505f9050836109a0565b60405163ca4f280360e01b81525f906001600160a01b037f0000000000000000000000000000000000000000000000000000000000000000169063ca4f2803906107c4908d9060040161166f565b5f60405180830381865afa1580156107de573d5f5f3e3d5ffd5b505050506040513d5f823e601f3d908101601f191682016040526108059190810190611976565b5f54879350909150600160801b90046001600160401b03161561099a575f5b8651811015610998575f8054885161086f91600160801b90046001600160401b0316908a908590811061085957610859611a0f565b6020026020010151610e7b90919063ffffffff16565b9050801561098f578084838151811061088a5761088a611a0f565b6020026020010181815161089e919061192c565b915081815250507f00000000000000000000000000000000000000000000000000000000000000006001600160a01b031663ae6393298484815181106108e6576108e6611a0f565b602002602001015130846040518463ffffffff1660e01b815260040161090e93929190611952565b5f604051808303815f87803b158015610925575f5ffd5b505af1158015610937573d5f5f3e3d5ffd5b5050505082828151811061094d5761094d611a0f565b60200260200101516001600160a01b0316306001600160a01b03165f516020611a3b5f395f51905f528360405161098691815260200190565b60405180910390a35b50600101610824565b505b60019250505b9850989650505050505050565b6109b5610ea7565b5f8054600160801b600160c01b031916600160801b6001600160401b0384160217905560405130907fddaa48d6807c52387f6589f78271724f02b11a89620262916406c9698ab3345b90610a0a908490610fbc565b60405180910390a250565b63389a75e1600c52335f525f6020600c2055337ffa7b8eab7da67f412cc9575ed43464468f9bfbae89d1675917346ca6d8fe3c925f5fa2565b610a56610ea7565b610a5f5f610ee2565b565b5f610a6f638b78c6d8195490565b905090565b5f6060610a7f610e20565b5f886004811115610a9257610a926118e9565b14610aa157505f9050846109a0565b60405163ca4f280360e01b81525f906001600160a01b037f0000000000000000000000000000000000000000000000000000000000000000169063ca4f280390610aef908d9060040161166f565b5f60405180830381865afa158015610b09573d5f5f3e3d5ffd5b505050506040513d5f823e601f3d908101601f19168201604052610b309190810190611976565b5f549091508790600160401b90046001600160401b031615610cae575f5b8851811015610cac575f80548a51610b8391600160401b90046001600160401b0316908c908590811061085957610859611a0f565b90508015610ca35780838381518110610b9e57610b9e611a0f565b60200260200101818151610bb2919061193f565b915081815250507f00000000000000000000000000000000000000000000000000000000000000006001600160a01b031663ae639329858481518110610bfa57610bfa611a0f565b602002602001015130846040518463ffffffff1660e01b8152600401610c2293929190611952565b5f604051808303815f87803b158015610c39575f5ffd5b505af1158015610c4b573d5f5f3e3d5ffd5b50505050838281518110610c6157610c61611a0f565b60200260200101516001600160a01b0316306001600160a01b03165f516020611a3b5f395f51905f5283604051610c9a91815260200190565b60405180910390a35b50600101610b4e565b505b60019c909b509950505050505050505050565b610cc9610ea7565b5f8054600160401b600160801b031916600160401b6001600160401b0384160217905560405130907f6628f9f9f8f4369e933d7429c4048ad6c153fb5cdce6f150ff1ea95e882e7a7a90610a0a908490610fbc565b610d26610f69565b610d2e610f69565b600180825260a0820181905260e08201819052610120820152919050565b610d54610ea7565b63389a75e1600c52805f526020600c208054421115610d7a57636f5e88185f526004601cfd5b5f9055610d8681610ee2565b50565b610d91610ea7565b6001600160a01b038116610dc3575f604051631e4fbdf760e01b8152600401610dba919061166f565b60405180910390fd5b610d8681610ee2565b610dd4610ea7565b5f80546001600160401b0319166001600160401b03831617905560405130907fb25b38640ad709be28a74117ede8cc6094d9e8b3aa27330e26b10898c92ba52290610a0a908490610fbc565b336001600160a01b037f00000000000000000000000000000000000000000000000000000000000000001614610a5f573360405163089676d560e01b8152600401610dba919061166f565b610e76838383610f1f565b505050565b5f80610e878385611a23565b90506001670de0b6b3a76400006001830304018115150291505092915050565b610eaf610a61565b6001600160a01b0316336001600160a01b031614610a5f573360405163118cdaa760e01b8152600401610dba919061166f565b638b78c6d81980546001600160a01b039092169182907f8be0079c531659141344cd1fd0a4f28419497f9722a3daafe3b4186f6b6457e05f80a355565b816014528060345263a9059cbb60601b5f5260205f604460105f875af18060015f511416610f5f57803d853b151710610f5f576390b8ec185f526004601cfd5b505f603452505050565b60408051610140810182525f80825260208201819052918101829052606081018290526080810182905260a0810182905260c0810182905260e08101829052610100810182905261012081019190915290565b6001600160401b0391909116815260200190565b6001600160a01b0381168114610d86575f5ffd5b8035610fef81610fd0565b919050565b634e487b7160e01b5f52604160045260245ffd5b604051608081016001600160401b038111828210171561102a5761102a610ff4565b60405290565b604051601f8201601f191681016001600160401b038111828210171561105857611058610ff4565b604052919050565b5f6001600160401b0382111561107857611078610ff4565b5060051b60200190565b60028110610d86575f5ffd5b5f6080828403121561109e575f5ffd5b50919050565b5f5f5f5f60e085870312156110b7575f5ffd5b84356110c281610fd0565b935060208501356110d281610fd0565b925060408501356001600160401b038111156110ec575f5ffd5b8501601f810187136110fc575f5ffd5b803561110f61110a82611060565b611030565b8082825260208201915060208360071b850101925089831115611130575f5ffd5b6020840193505b828410156111b4576080848b03121561114e575f5ffd5b611156611008565b843561116181610fd0565b8152602085013561117181611082565b6020820152604085013561118481610fd0565b60408201526060850135801515811461119b575f5ffd5b6060820152825260809390930192602090910190611137565b809550505050506111c8866060870161108e565b905092959194509250565b5f602082840312156111e3575f5ffd5b81356111ee81610fd0565b9392505050565b5f60208284031215611205575f5ffd5b81356001600160401b0381111561121a575f5ffd5b820161018081850312156111ee575f5ffd5b5f82601f83011261123b575f5ffd5b813561124961110a82611060565b8082825260208201915060208360051b86010192508583111561126a575f5ffd5b602085015b8381101561128757803583526020928301920161126f565b5095945050505050565b5f82601f8301126112a0575f5ffd5b81356001600160401b038111156112b9576112b9610ff4565b6112cc601f8201601f1916602001611030565b8181528460208386010111156112e0575f5ffd5b816020850160208301375f918101602001919091529392505050565b5f5f6040838503121561130d575f5ffd5b82356001600160401b03811115611322575f5ffd5b61132e8582860161122c565b92505060208301356001600160401b03811115611349575f5ffd5b61135585828601611291565b9150509250929050565b803560048110610fef575f5ffd5b5f5f5f5f5f5f5f5f610100898b031215611385575f5ffd5b61138e89610fe4565b975061139c60208a01610fe4565b96506113aa60408a0161135f565b95506060890135945060808901356001600160401b038111156113cb575f5ffd5b6113d78b828c0161122c565b94505060a08901356001600160401b038111156113f2575f5ffd5b6113fe8b828c0161122c565b93505060c08901356001600160401b03811115611419575f5ffd5b6114258b828c0161122c565b92505060e08901356001600160401b03811115611440575f5ffd5b61144c8b828c01611291565b9150509295985092959890939650565b5f604082018415158352604060208401528084518083526060850191506020860192505f5b8181101561149f578351835260209384019390920191600101611481565b50909695505050505050565b5f5f5f606084860312156114bd575f5ffd5b83356001600160401b038111156114d2575f5ffd5b6114de8682870161122c565b9350506020840135915060408401356001600160401b03811115611500575f5ffd5b61150c86828701611291565b9150509250925092565b5f60208284031215611526575f5ffd5b81356001600160401b03811681146111ee575f5ffd5b803560058110610fef575f5ffd5b5f5f5f5f5f5f5f60e0888a031215611560575f5ffd5b873561156b81610fd0565b965061157960208901610fe4565b95506115876040890161153c565b945060608801356001600160401b038111156115a1575f5ffd5b6115ad8a828b0161122c565b9450506080880135925060a08801356001600160401b038111156115cf575f5ffd5b6115db8a828b0161122c565b92505060c08801356001600160401b038111156115f6575f5ffd5b6116028a828b01611291565b91505092959891949750929550565b5f60e0828403121561109e575f5ffd5b5f5f60408385031215611632575f5ffd5b82356001600160401b03811115611647575f5ffd5b61165385828601611611565b925050602083013561166481610fd0565b809150509250929050565b6001600160a01b0391909116815260200190565b5f5f5f5f5f5f5f5f610100898b03121561169b575f5ffd5b6116a489610fe4565b97506116b260208a01610fe4565b96506116c060408a0161153c565b955060608901356001600160401b038111156116da575f5ffd5b6116e68b828c0161122c565b95505060808901356001600160401b03811115611701575f5ffd5b61170d8b828c0161122c565b94505060a0890135925060c08901356001600160401b03811115611419575f5ffd5b5f5f5f60608486031215611741575f5ffd5b83356001600160401b03811115611756575f5ffd5b61176286828701611611565b935050602084013561177381610fd0565b929592945050506040919091013590565b5f5f5f5f5f5f5f60e0888a03121561179a575f5ffd5b87356117a581610fd0565b96506117b360208901610fe4565b95506117c16040890161135f565b94506060880135935060808801356001600160401b038111156117e2575f5ffd5b6117ee8a828b0161122c565b93505060a08801356001600160401b038111156115cf575f5ffd5b81511515815261014081016020830151611827602084018215159052565b50604083015161183b604084018215159052565b50606083015161184f606084018215159052565b506080830151611863608084018215159052565b5060a083015161187760a084018215159052565b5060c083015161188b60c084018215159052565b5060e083015161189f60e084018215159052565b506101008301516118b561010084018215159052565b506101208301516118cb61012084018215159052565b5092915050565b5f602082840312156118e2575f5ffd5b5051919050565b634e487b7160e01b5f52602160045260245ffd5b5f6020828403121561190d575f5ffd5b81356111ee81611082565b634e487b7160e01b5f52601160045260245ffd5b818103818111156106f7576106f7611918565b808201808211156106f7576106f7611918565b6001600160a01b039384168152919092166020820152604081019190915260600190565b5f60208284031215611986575f5ffd5b81516001600160401b0381111561199b575f5ffd5b8201601f810184136119ab575f5ffd5b80516119b961110a82611060565b8082825260208201915060208360051b8501019250868311156119da575f5ffd5b6020840193505b82841015611a055783516119f481610fd0565b8252602093840193909101906119e1565b9695505050505050565b634e487b7160e01b5f52603260045260245ffd5b80820281158282048414176106f7576106f761191856fea63dfadf60b388c8c94dd663e39fa55ac536c3761c5ee44e0fdf974468917017a2646970667358221220d170b7e697ac0358e5f769cb25b7eba96c6c8ed24291ad9c273796835f0146c764736f6c634300081e0033","linkReferences":{}},"methodIdentifiers":{"addLiquidityHookFeePercentage()":"02273467","cancelOwnershipHandover()":"54d1f13d","completeOwnershipHandover(address)":"f04e283e","getHookFlags()":"d77153a7","hookSwapFeePercentage()":"4392312a","onAfterAddLiquidity(address,address,uint8,uint256[],uint256[],uint256,uint256[],bytes)":"976907cc","onAfterInitialize(uint256[],uint256,bytes)":"38be241d","onAfterRemoveLiquidity(address,address,uint8,uint256,uint256[],uint256[],uint256[],bytes)":"2754888d","onAfterSwap((uint8,address,address,uint256,uint256,uint256,uint256,uint256,uint256,address,address,bytes))":"18b6eb55","onBeforeAddLiquidity(address,address,uint8,uint256[],uint256,uint256[],bytes)":"45421ec7","onBeforeInitialize(uint256[],bytes)":"1c149e28","onBeforeRemoveLiquidity(address,address,uint8,uint256,uint256[],uint256[],bytes)":"ba5f9f40","onBeforeSwap((uint8,uint256,uint256[],uint256,uint256,address,bytes),address)":"5211fa77","onComputeDynamicSwapFeePercentage((uint8,uint256,uint256[],uint256,uint256,address,bytes),address,uint256)":"a0e8f5ac","onRegister(address,address,(address,uint8,address,bool)[],(bool,bool,bool,bool))":"0b89f182","owner()":"8da5cb5b","ownershipHandoverExpiresAt(address)":"fee81cf4","removeLiquidityHookFeePercentage()":"eb499270","renounceOwnership()":"715018a6","requestOwnershipHandover()":"25692962","setAddLiquidityHookFeePercentage(uint64)":"b1d55b78","setHookSwapFeePercentage(uint64)":"f9e5c197","setRemoveLiquidityHookFeePercentage(uint64)":"3d101b0e","transferOwnership(address)":"f2fde38b","withdrawFees(address)":"164e68de"},"id":134}