{"abi":[{"type":"constructor","inputs":[{"name":"_factory","type":"address","internalType":"address"}],"stateMutability":"nonpayable"},{"type":"function","name":"MAX_FEE","inputs":[],"outputs":[{"name":"","type":"uint256","internalType":"uint256"}],"stateMutability":"view"},{"type":"function","name":"ZERO_FEE_INDICATOR","inputs":[],"outputs":[{"name":"","type":"uint256","internalType":"uint256"}],"stateMutability":"view"},{"type":"function","name":"customFee","inputs":[{"name":"","type":"address","internalType":"address"}],"outputs":[{"name":"","type":"uint24","internalType":"uint24"}],"stateMutability":"view"},{"type":"function","name":"factory","inputs":[],"outputs":[{"name":"","type":"address","internalType":"contract ICLFactory"}],"stateMutability":"view"},{"type":"function","name":"getFee","inputs":[{"name":"_pool","type":"address","internalType":"address"}],"outputs":[{"name":"","type":"uint24","internalType":"uint24"}],"stateMutability":"view"},{"type":"function","name":"setCustomFee","inputs":[{"name":"_pool","type":"address","internalType":"address"},{"name":"_fee","type":"uint24","internalType":"uint24"}],"outputs":[],"stateMutability":"nonpayable"},{"type":"event","name":"CustomFeeSet","inputs":[{"name":"pool","type":"address","indexed":true,"internalType":"address"},{"name":"fee","type":"uint24","indexed":true,"internalType":"uint24"}],"anonymous":false}],"bytecode":{"object":"0x60a060405234801561000f575f5ffd5b5060405161068438038061068483398101604081905261002e9161003f565b6001600160a01b031660805261006c565b5f6020828403121561004f575f5ffd5b81516001600160a01b0381168114610065575f5ffd5b9392505050565b6080516105ec6100985f395f818160ee0152818161011f01528181610267015261043401526105ec5ff3fe608060405234801561000f575f5ffd5b5060043610610060575f3560e01c806338c55d46146100645780634d419abc14610080578063a89196b6146100b8578063b88c9148146100cd578063bc063e1a146100e0578063c45a0155146100e9575b5f5ffd5b61006d6101a481565b6040519081526020015b60405180910390f35b6100a461008e3660046104c4565b5f6020819052908152604090205462ffffff1681565b60405162ffffff9091168152602001610077565b6100cb6100c63660046104f6565b61011d565b005b6100a46100db3660046104c4565b610372565b61006d61753081565b6101107f000000000000000000000000000000000000000000000000000000000000000081565b604051610077919061052d565b7f00000000000000000000000000000000000000000000000000000000000000006001600160a01b031663d574afa96040518163ffffffff1660e01b8152600401602060405180830381865afa158015610179573d5f5f3e3d5ffd5b505050506040513d601f19601f8201168201806040525081019061019d9190610541565b6001600160a01b0316336001600160a01b0316146101f95760405162461bcd60e51b81526020600482015260146024820152732737ba1039bbb0b8103332b29036b0b730b3b2b960611b60448201526064015b60405180910390fd5b6175308162ffffff1611158061021557506101a48162ffffff16145b6102505760405162461bcd60e51b815260206004820152600c60248201526b08ccaca40e8dede40d0d2ced60a31b60448201526064016101f0565b604051635b16ebb760e01b81526001600160a01b037f00000000000000000000000000000000000000000000000000000000000000001690635b16ebb79061029c90859060040161052d565b602060405180830381865afa1580156102b7573d5f5f3e3d5ffd5b505050506040513d601f19601f820116820180604052508101906102db919061055c565b61031a5760405162461bcd60e51b815260206004820152601060248201526f139bdd0818481d985b1a59081c1bdbdb60821b60448201526064016101f0565b6001600160a01b0382165f81815260208190526040808220805462ffffff191662ffffff861690811790915590519092917fe2150e4054ad34f299189d809c507f52c0c572bfef0504af03f43be0870cd35491a35050565b6001600160a01b0381165f818152602081815260408083205481516334324e9f60e21b81529151939462ffffff909116938593919263d0c93a7c9260048083019391928290030181865afa1580156103cc573d5f5f3e3d5ffd5b505050506040513d601f19601f820116820180604052508101906103f0919061057b565b90506101a48262ffffff160361040957505f9392505050565b62ffffff82161561041b575092915050565b604051631c06e0e160e11b8152600282900b60048201527f00000000000000000000000000000000000000000000000000000000000000006001600160a01b03169063380dc1c290602401602060405180830381865afa158015610481573d5f5f3e3d5ffd5b505050506040513d601f19601f820116820180604052508101906104a5919061059b565b949350505050565b6001600160a01b03811681146104c1575f5ffd5b50565b5f602082840312156104d4575f5ffd5b81356104df816104ad565b9392505050565b62ffffff811681146104c1575f5ffd5b5f5f60408385031215610507575f5ffd5b8235610512816104ad565b91506020830135610522816104e6565b809150509250929050565b6001600160a01b0391909116815260200190565b5f60208284031215610551575f5ffd5b81516104df816104ad565b5f6020828403121561056c575f5ffd5b815180151581146104df575f5ffd5b5f6020828403121561058b575f5ffd5b81518060020b81146104df575f5ffd5b5f602082840312156105ab575f5ffd5b81516104df816104e656fea2646970667358221220bf6f750442a5ade608293f03bc6740c036fc3257fdc96ab8c146c256aecf28dd64736f6c634300081e0033","linkReferences":{}},"methodIdentifiers":{"MAX_FEE()":"bc063e1a","ZERO_FEE_INDICATOR()":"38c55d46","customFee(address)":"4d419abc","factory()":"c45a0155","getFee(address)":"b88c9148","setCustomFee(address,uint24)":"a89196b6"},"id":768}