{"abi":[{"type":"function","name":"complement","inputs":[{"name":"x","type":"uint256","internalType":"uint256"}],"outputs":[{"name":"","type":"uint256","internalType":"uint256"}],"stateMutability":"pure"},{"type":"function","name":"divDown","inputs":[{"name":"a","type":"uint256","internalType":"uint256"},{"name":"b","type":"uint256","internalType":"uint256"}],"outputs":[{"name":"","type":"uint256","internalType":"uint256"}],"stateMutability":"pure"},{"type":"function","name":"divUp","inputs":[{"name":"a","type":"uint256","internalType":"uint256"},{"name":"b","type":"uint256","internalType":"uint256"}],"outputs":[{"name":"","type":"uint256","internalType":"uint256"}],"stateMutability":"pure"},{"type":"function","name":"divUpRaw","inputs":[{"name":"a","type":"uint256","internalType":"uint256"},{"name":"b","type":"uint256","internalType":"uint256"}],"outputs":[{"name":"","type":"uint256","internalType":"uint256"}],"stateMutability":"pure"},{"type":"function","name":"mulDown","inputs":[{"name":"a","type":"uint256","internalType":"uint256"},{"name":"b","type":"uint256","internalType":"uint256"}],"outputs":[{"name":"","type":"uint256","internalType":"uint256"}],"stateMutability":"pure"},{"type":"function","name":"mulUp","inputs":[{"name":"a","type":"uint256","internalType":"uint256"},{"name":"b","type":"uint256","internalType":"uint256"}],"outputs":[{"name":"","type":"uint256","internalType":"uint256"}],"stateMutability":"pure"},{"type":"function","name":"powDown","inputs":[{"name":"x","type":"uint256","internalType":"uint256"},{"name":"y","type":"uint256","internalType":"uint256"}],"outputs":[{"name":"","type":"uint256","internalType":"uint256"}],"stateMutability":"pure"},{"type":"function","name":"powUp","inputs":[{"name":"x","type":"uint256","internalType":"uint256"},{"name":"y","type":"uint256","internalType":"uint256"}],"outputs":[{"name":"","type":"uint256","internalType":"uint256"}],"stateMutability":"pure"},{"type":"error","name":"BaseOutOfBounds","inputs":[]},{"type":"error","name":"ExponentOutOfBounds","inputs":[]},{"type":"error","name":"InvalidExponent","inputs":[]},{"type":"error","name":"ProductOutOfBounds","inputs":[]},{"type":"error","name":"ZeroDivision","inputs":[]}],"bytecode":{"object":"0x6080604052348015600e575f5ffd5b50610ece8061001c5f395ff3fe608060405234801561000f575f5ffd5b5060043610610076575f3560e01c80630c9b98811461007a578063164c95d51461009f57806344735d4f146100b2578063790fd074146100c55780639145aab0146100d85780639ba5f52e146100eb578063cbe8623f146100fe578063f3e4f87c14610111575b5f5ffd5b61008d610088366004610df0565b610124565b60405190815260200160405180910390f35b61008d6100ad366004610df0565b610138565b61008d6100c0366004610df0565b610143565b61008d6100d3366004610df0565b61014e565b61008d6100e6366004610e10565b610159565b61008d6100f9366004610df0565b61016f565b61008d61010c366004610df0565b61017a565b61008d61011f366004610df0565b610185565b5f61012f8383610190565b90505b92915050565b5f61012f83836101b8565b5f61012f838361026b565b5f61012f8383610317565b5f670de0b6b3a764000082810390831002610132565b5f61012f8383610349565b5f61012f8383610369565b5f61012f838361037d565b5f8061019c8385610e3b565b90506101b0670de0b6b3a764000082610e66565b949350505050565b5f670de0b6b3a764000082036101cf575081610132565b6101e2670de0b6b3a76400006002610e3b565b82036101f9576101f2838461037d565b9050610132565b61020c670de0b6b3a76400006004610e3b565b8203610231575f61021d848561037d565b9050610229818261037d565b915050610132565b5f61023c84846103a9565b90505f61024b8261271061037d565b610256906001610e85565b90506102628183610e85565b92505050610132565b5f670de0b6b3a76400008203610282575081610132565b610295670de0b6b3a76400006002610e3b565b82036102a5576101f28384610190565b6102b8670de0b6b3a76400006004610e3b565b82036102d5575f6102c98485610190565b90506102298182610190565b5f6102e084846103a9565b90505f6102ef8261271061037d565b6102fa906001610e85565b90508082101561030e575f92505050610132565b90039050610132565b5f815f0361033857604051630a0c22c760e01b815260040160405180910390fd5b508115155f19909201046001010290565b5f8061035d670de0b6b3a764000085610e3b565b90506101b08382610e66565b5f61012f83670de0b6b3a7640000846104e9565b5f806103898385610e3b565b90506001670de0b6b3a76400006001830304018115150291505092915050565b5f815f036103c05750670de0b6b3a7640000610132565b825f036103ce57505f610132565b60ff83901c156103f0576040516211380f60e51b815260040160405180910390fd5b8261040868056bc75e2d63100000600160fe1b610e66565b83106104275760405163d831731160e01b815260040160405180910390fd5b825f670c7d713b49da0000831380156104475750670f43fc2c04ee000083125b1561047d575f6104568461052e565b9050670de0b6b3a764000080820784020583670de0b6b3a76400008305020191505061048b565b816104878461064b565b0290505b670de0b6b3a76400009005680238fd42c5cf03ffff1981128015906104b9575068070c1cc73b00c800008113155b6104d65760405163a2f9f7e360e01b815260040160405180910390fd5b6104df816109f5565b9695505050505050565b5f815f0361050a57604051630a0c22c760e01b815260040160405180910390fd5b5f6105158486610e3b565b9050600183600183030401811515029150509392505050565b670de0b6b3a7640000025f806a0c097ce7bc90715b34b9f160241b808401906ec097ce7bc90715b34b9f0fffffffff198501028161056e5761056e610e52565b0590505f6a0c097ce7bc90715b34b9f160241b82800205905081806a0c097ce7bc90715b34b9f160241b81840205915060038205016a0c097ce7bc90715b34b9f160241b82840205915060058205016a0c097ce7bc90715b34b9f160241b82840205915060078205016a0c097ce7bc90715b34b9f160241b82840205915060098205016a0c097ce7bc90715b34b9f160241b828402059150600b8205016a0c097ce7bc90715b34b9f160241b828402059150600d8205016a0c097ce7bc90715b34b9f160241b828402059150600f82050160020295945050505050565b5f80670de0b6b3a764000083121561068257826a0c097ce7bc90715b34b9f160241b8161067a5761067a610e52565b059250600190505b5f775803bcc5cb9634ba4cfb2213f784019318ed4dcb6017880f60361b84126106cc5772195e54c5dd42177f53a27172fa9ec63026282760241b840593506806f05b59d3b2000000015b6f8bcc0026baae9e45e470190267a230cf60191b8412610703576b1425982cf597cd205cef7380840593506803782dace9d9000000015b606493840293026e01855144814a7ff805980ff0084000841261074b576e01855144814a7ff805980ff008400068056bc75e2d63100000850205935068ad78ebc5ac62000000015b6b02df0ab5a80a22c61ab5a7008412610786576b02df0ab5a80a22c61ab5a70068056bc75e2d6310000085020593506856bc75e2d631000000015b693f1fce3da636ea5cf85084126107bd57693f1fce3da636ea5cf85068056bc75e2d631000008502059350682b5e3af16b18800000015b690127fa27722cc06cc5e284126107f457690127fa27722cc06cc5e268056bc75e2d6310000085020593506815af1d78b58c400000015b68280e60114edb805d0384126108295768280e60114edb805d0368056bc75e2d631000008502059350680ad78ebc5ac6200000015b680ebc5fb41746121110841261085457680ebc5fb4174612111068056bc75e2d631000009485020593015b6808f00f760a4b2db55d8412610889576808f00f760a4b2db55d68056bc75e2d6310000085020593506802b5e3af16b1880000015b6806f5f177578893793784126108be576806f5f177578893793768056bc75e2d63100000850205935068015af1d78b58c40000015b6806248f33704b28660384126108f2576806248f33704b28660368056bc75e2d63100000850205935067ad78ebc5ac620000015b6805c548670b9510e7ac8412610926576805c548670b9510e7ac68056bc75e2d6310000085020593506756bc75e2d6310000015b5f68056bc75e2d63100000850168056bc75e2d63100000808703028161094e5761094e610e52565b0590505f68056bc75e2d63100000828002059050818068056bc75e2d63100000818402059150600382050168056bc75e2d63100000828402059150600582050168056bc75e2d63100000828402059150600782050168056bc75e2d63100000828402059150600982050168056bc75e2d63100000828402059150600b8205016002025f6064868301059050866109e457806109e8565b805f035b9998505050505050505050565b5f680238fd42c5cf03ffff198212158015610a19575068070c1cc73b00c800008213155b610a365760405163d4794efd60e01b815260040160405180910390fd5b5f80831215610a4957825f039250600190505b5f6806f05b59d3b20000008412610a8657506806f05b59d3b1ffffff199092019172195e54c5dd42177f53a27172fa9ec63026282760241b610abc565b6803782dace9d90000008412610ab857506803782dace9d8ffffff19909201916b1425982cf597cd205cef7380610abc565b5060015b6064939093029268056bc75e2d6310000068ad78ebc5ac620000008512610b0c5768ad78ebc5ac61ffffff199094019368056bc75e2d631000006e01855144814a7ff805980ff008400082020590505b6856bc75e2d6310000008512610b48576856bc75e2d630ffffff199094019368056bc75e2d631000006b02df0ab5a80a22c61ab5a70082020590505b682b5e3af16b188000008512610b8257682b5e3af16b187fffff199094019368056bc75e2d63100000693f1fce3da636ea5cf85082020590505b6815af1d78b58c4000008512610bbc576815af1d78b58c3fffff199094019368056bc75e2d63100000690127fa27722cc06cc5e282020590505b680ad78ebc5ac62000008512610bf557680ad78ebc5ac61fffff199094019368056bc75e2d6310000068280e60114edb805d0382020590505b68056bc75e2d631000008512610c2e5768056bc75e2d630fffff199094019368056bc75e2d63100000680ebc5fb4174612111082020590505b6802b5e3af16b18800008512610c67576802b5e3af16b187ffff199094019368056bc75e2d631000006808f00f760a4b2db55d82020590505b68015af1d78b58c400008512610ca05768015af1d78b58c3ffff199094019368056bc75e2d631000006806f5f177578893793782020590505b68056bc75e2d631000008581019086906002908280020505918201919050600368056bc75e2d631000008883020505918201919050600468056bc75e2d631000008883020505918201919050600568056bc75e2d631000008883020505918201919050600668056bc75e2d631000008883020505918201919050600768056bc75e2d631000008883020505918201919050600868056bc75e2d631000008883020505918201919050600968056bc75e2d631000008883020505918201919050600a68056bc75e2d631000008883020505918201919050600b68056bc75e2d631000008883020505918201919050600c68056bc75e2d6310000088830205059182019190505f606468056bc75e2d6310000085850205860205905085610dc55780610de4565b806a0c097ce7bc90715b34b9f160241b81610de257610de2610e52565b055b98975050505050505050565b5f5f60408385031215610e01575f5ffd5b50508035926020909101359150565b5f60208284031215610e20575f5ffd5b5035919050565b634e487b7160e01b5f52601160045260245ffd5b808202811582820484141761013257610132610e27565b634e487b7160e01b5f52601260045260245ffd5b5f82610e8057634e487b7160e01b5f52601260045260245ffd5b500490565b8082018082111561013257610132610e2756fea2646970667358221220e9d67f1bc8051e4cc67aa9d859b2e22b0864f91581e5ae73f23033c4b0a00b5d64736f6c634300081e0033","linkReferences":{}},"methodIdentifiers":{"complement(uint256)":"9145aab0","divDown(uint256,uint256)":"9ba5f52e","divUp(uint256,uint256)":"cbe8623f","divUpRaw(uint256,uint256)":"790fd074","mulDown(uint256,uint256)":"0c9b9881","mulUp(uint256,uint256)":"f3e4f87c","powDown(uint256,uint256)":"44735d4f","powUp(uint256,uint256)":"164c95d5"},"id":278}