{"abi":[{"type":"constructor","inputs":[{"name":"vault","type":"address","internalType":"contract IVault"},{"name":"name","type":"string","internalType":"string"},{"name":"symbol","type":"string","internalType":"string"}],"stateMutability":"nonpayable"},{"type":"function","name":"DOMAIN_SEPARATOR","inputs":[],"outputs":[{"name":"","type":"bytes32","internalType":"bytes32"}],"stateMutability":"view"},{"type":"function","name":"PERMIT_TYPEHASH","inputs":[],"outputs":[{"name":"","type":"bytes32","internalType":"bytes32"}],"stateMutability":"view"},{"type":"function","name":"allowance","inputs":[{"name":"owner","type":"address","internalType":"address"},{"name":"spender","type":"address","internalType":"address"}],"outputs":[{"name":"","type":"uint256","internalType":"uint256"}],"stateMutability":"view"},{"type":"function","name":"approve","inputs":[{"name":"spender","type":"address","internalType":"address"},{"name":"amount","type":"uint256","internalType":"uint256"}],"outputs":[{"name":"","type":"bool","internalType":"bool"}],"stateMutability":"nonpayable"},{"type":"function","name":"balanceOf","inputs":[{"name":"account","type":"address","internalType":"address"}],"outputs":[{"name":"","type":"uint256","internalType":"uint256"}],"stateMutability":"view"},{"type":"function","name":"computeBalance","inputs":[{"name":"balances","type":"uint256[]","internalType":"uint256[]"},{"name":"tokenInIndex","type":"uint256","internalType":"uint256"},{"name":"invariantRatio","type":"uint256","internalType":"uint256"}],"outputs":[{"name":"newBalance","type":"uint256","internalType":"uint256"}],"stateMutability":"pure"},{"type":"function","name":"computeInvariant","inputs":[{"name":"balances","type":"uint256[]","internalType":"uint256[]"},{"name":"","type":"uint8","internalType":"enum Rounding"}],"outputs":[{"name":"","type":"uint256","internalType":"uint256"}],"stateMutability":"pure"},{"type":"function","name":"decimals","inputs":[],"outputs":[{"name":"","type":"uint8","internalType":"uint8"}],"stateMutability":"pure"},{"type":"function","name":"eip712Domain","inputs":[],"outputs":[{"name":"fields","type":"bytes1","internalType":"bytes1"},{"name":"name","type":"string","internalType":"string"},{"name":"version","type":"string","internalType":"string"},{"name":"chainId","type":"uint256","internalType":"uint256"},{"name":"verifyingContract","type":"address","internalType":"address"},{"name":"salt","type":"bytes32","internalType":"bytes32"},{"name":"extensions","type":"uint256[]","internalType":"uint256[]"}],"stateMutability":"view"},{"type":"function","name":"emitApproval","inputs":[{"name":"owner","type":"address","internalType":"address"},{"name":"spender","type":"address","internalType":"address"},{"name":"amount","type":"uint256","internalType":"uint256"}],"outputs":[],"stateMutability":"nonpayable"},{"type":"function","name":"emitTransfer","inputs":[{"name":"from","type":"address","internalType":"address"},{"name":"to","type":"address","internalType":"address"},{"name":"amount","type":"uint256","internalType":"uint256"}],"outputs":[],"stateMutability":"nonpayable"},{"type":"function","name":"getAggregateFeePercentages","inputs":[],"outputs":[{"name":"aggregateSwapFeePercentage","type":"uint256","internalType":"uint256"},{"name":"aggregateYieldFeePercentage","type":"uint256","internalType":"uint256"}],"stateMutability":"view"},{"type":"function","name":"getDecimalScalingFactors","inputs":[],"outputs":[{"name":"scalingFactors","type":"uint256[]","internalType":"uint256[]"}],"stateMutability":"view"},{"type":"function","name":"getMaximumInvariantRatio","inputs":[],"outputs":[{"name":"","type":"uint256","internalType":"uint256"}],"stateMutability":"view"},{"type":"function","name":"getMaximumSwapFeePercentage","inputs":[],"outputs":[{"name":"","type":"uint256","internalType":"uint256"}],"stateMutability":"pure"},{"type":"function","name":"getMinimumInvariantRatio","inputs":[],"outputs":[{"name":"","type":"uint256","internalType":"uint256"}],"stateMutability":"view"},{"type":"function","name":"getMinimumSwapFeePercentage","inputs":[],"outputs":[{"name":"","type":"uint256","internalType":"uint256"}],"stateMutability":"pure"},{"type":"function","name":"getRate","inputs":[],"outputs":[{"name":"","type":"uint256","internalType":"uint256"}],"stateMutability":"view"},{"type":"function","name":"getTokenInfo","inputs":[],"outputs":[{"name":"tokens","type":"address[]","internalType":"contract IERC20[]"},{"name":"tokenInfo","type":"tuple[]","internalType":"struct TokenInfo[]","components":[{"name":"tokenType","type":"uint8","internalType":"enum TokenType"},{"name":"rateProvider","type":"address","internalType":"contract IRateProvider"},{"name":"paysYieldFees","type":"bool","internalType":"bool"}]},{"name":"balancesRaw","type":"uint256[]","internalType":"uint256[]"},{"name":"lastBalancesLiveScaled18","type":"uint256[]","internalType":"uint256[]"}],"stateMutability":"view"},{"type":"function","name":"getVault","inputs":[],"outputs":[{"name":"","type":"address","internalType":"contract IVault"}],"stateMutability":"view"},{"type":"function","name":"incrementNonce","inputs":[],"outputs":[],"stateMutability":"nonpayable"},{"type":"function","name":"mockEventFunction","inputs":[{"name":"testValue","type":"uint256","internalType":"uint256"}],"outputs":[],"stateMutability":"nonpayable"},{"type":"function","name":"name","inputs":[],"outputs":[{"name":"","type":"string","internalType":"string"}],"stateMutability":"view"},{"type":"function","name":"nonces","inputs":[{"name":"owner","type":"address","internalType":"address"}],"outputs":[{"name":"","type":"uint256","internalType":"uint256"}],"stateMutability":"view"},{"type":"function","name":"onAddLiquidityCustom","inputs":[{"name":"","type":"address","internalType":"address"},{"name":"maxAmountsInScaled18","type":"uint256[]","internalType":"uint256[]"},{"name":"minBptAmountOut","type":"uint256","internalType":"uint256"},{"name":"","type":"uint256[]","internalType":"uint256[]"},{"name":"userData","type":"bytes","internalType":"bytes"}],"outputs":[{"name":"","type":"uint256[]","internalType":"uint256[]"},{"name":"","type":"uint256","internalType":"uint256"},{"name":"","type":"uint256[]","internalType":"uint256[]"},{"name":"","type":"bytes","internalType":"bytes"}],"stateMutability":"pure"},{"type":"function","name":"onRemoveLiquidityCustom","inputs":[{"name":"","type":"address","internalType":"address"},{"name":"maxBptAmountIn","type":"uint256","internalType":"uint256"},{"name":"minAmountsOut","type":"uint256[]","internalType":"uint256[]"},{"name":"","type":"uint256[]","internalType":"uint256[]"},{"name":"userData","type":"bytes","internalType":"bytes"}],"outputs":[{"name":"","type":"uint256","internalType":"uint256"},{"name":"","type":"uint256[]","internalType":"uint256[]"},{"name":"","type":"uint256[]","internalType":"uint256[]"},{"name":"","type":"bytes","internalType":"bytes"}],"stateMutability":"pure"},{"type":"function","name":"onSwap","inputs":[{"name":"params","type":"tuple","internalType":"struct PoolSwapParams","components":[{"name":"kind","type":"uint8","internalType":"enum SwapKind"},{"name":"amountGivenScaled18","type":"uint256","internalType":"uint256"},{"name":"balancesScaled18","type":"uint256[]","internalType":"uint256[]"},{"name":"indexIn","type":"uint256","internalType":"uint256"},{"name":"indexOut","type":"uint256","internalType":"uint256"},{"name":"router","type":"address","internalType":"address"},{"name":"userData","type":"bytes","internalType":"bytes"}]}],"outputs":[{"name":"amountCalculated","type":"uint256","internalType":"uint256"}],"stateMutability":"view"},{"type":"function","name":"permit","inputs":[{"name":"owner","type":"address","internalType":"address"},{"name":"spender","type":"address","internalType":"address"},{"name":"amount","type":"uint256","internalType":"uint256"},{"name":"deadline","type":"uint256","internalType":"uint256"},{"name":"v","type":"uint8","internalType":"uint8"},{"name":"r","type":"bytes32","internalType":"bytes32"},{"name":"s","type":"bytes32","internalType":"bytes32"}],"outputs":[],"stateMutability":"nonpayable"},{"type":"function","name":"setMaximumInvariantRatio","inputs":[{"name":"maximumInvariantRatio","type":"uint256","internalType":"uint256"}],"outputs":[],"stateMutability":"nonpayable"},{"type":"function","name":"setMinimumInvariantRatio","inputs":[{"name":"minimumInvariantRatio","type":"uint256","internalType":"uint256"}],"outputs":[],"stateMutability":"nonpayable"},{"type":"function","name":"setMockRate","inputs":[{"name":"mockRate","type":"uint256","internalType":"uint256"}],"outputs":[],"stateMutability":"nonpayable"},{"type":"function","name":"setMultiplier","inputs":[{"name":"newMultiplier","type":"uint256","internalType":"uint256"}],"outputs":[],"stateMutability":"nonpayable"},{"type":"function","name":"supportsInterface","inputs":[{"name":"interfaceId","type":"bytes4","internalType":"bytes4"}],"outputs":[{"name":"","type":"bool","internalType":"bool"}],"stateMutability":"view"},{"type":"function","name":"symbol","inputs":[],"outputs":[{"name":"","type":"string","internalType":"string"}],"stateMutability":"view"},{"type":"function","name":"totalSupply","inputs":[],"outputs":[{"name":"","type":"uint256","internalType":"uint256"}],"stateMutability":"view"},{"type":"function","name":"transfer","inputs":[{"name":"to","type":"address","internalType":"address"},{"name":"amount","type":"uint256","internalType":"uint256"}],"outputs":[{"name":"","type":"bool","internalType":"bool"}],"stateMutability":"nonpayable"},{"type":"function","name":"transferFrom","inputs":[{"name":"from","type":"address","internalType":"address"},{"name":"to","type":"address","internalType":"address"},{"name":"amount","type":"uint256","internalType":"uint256"}],"outputs":[{"name":"","type":"bool","internalType":"bool"}],"stateMutability":"nonpayable"},{"type":"event","name":"Approval","inputs":[{"name":"owner","type":"address","indexed":true,"internalType":"address"},{"name":"spender","type":"address","indexed":true,"internalType":"address"},{"name":"amount","type":"uint256","indexed":false,"internalType":"uint256"}],"anonymous":false},{"type":"event","name":"EIP712DomainChanged","inputs":[],"anonymous":false},{"type":"event","name":"Transfer","inputs":[{"name":"from","type":"address","indexed":true,"internalType":"address"},{"name":"to","type":"address","indexed":true,"internalType":"address"},{"name":"amount","type":"uint256","indexed":false,"internalType":"uint256"}],"anonymous":false},{"type":"error","name":"ERC2612ExpiredSignature","inputs":[{"name":"deadline","type":"uint256","internalType":"uint256"}]},{"type":"error","name":"ERC2612InvalidSigner","inputs":[{"name":"signer","type":"address","internalType":"address"},{"name":"owner","type":"address","internalType":"address"}]},{"type":"error","name":"InvalidAccountNonce","inputs":[{"name":"account","type":"address","internalType":"address"},{"name":"currentNonce","type":"uint256","internalType":"uint256"}]},{"type":"error","name":"SenderIsNotVault","inputs":[{"name":"sender","type":"address","internalType":"address"}]}],"bytecode":{"object":"0x60e0604052670de0b6b3a76400006005555f600755670de0b6b3a7640000620f424061002b91906100dd565b600855348015610039575f5ffd5b5060405161224f38038061224f833981016040819052610058916101a3565b8282828282828282604051806040016040528060018152602001603160f81b815250815f908161008891906102a9565b50600161009582826102a9565b508151602092830120608052805191012060a0526001600160a01b031660c05260036100c183826102a9565b5060046100ce82826102a9565b50505050505050505050610363565b808202811582820484141761010057634e487b7160e01b5f52601160045260245ffd5b92915050565b634e487b7160e01b5f52604160045260245ffd5b5f82601f830112610129575f5ffd5b81516001600160401b0381111561014257610142610106565b604051601f8201601f19908116603f011681016001600160401b038111828210171561017057610170610106565b604052818152838201602001851015610187575f5ffd5b8160208501602083015e5f918101602001919091529392505050565b5f5f5f606084860312156101b5575f5ffd5b83516001600160a01b03811681146101cb575f5ffd5b60208501519093506001600160401b038111156101e6575f5ffd5b6101f28682870161011a565b604086015190935090506001600160401b0381111561020f575f5ffd5b61021b8682870161011a565b9150509250925092565b600181811c9082168061023957607f821691505b60208210810361025757634e487b7160e01b5f52602260045260245ffd5b50919050565b601f8211156102a457805f5260205f20601f840160051c810160208510156102825750805b601f840160051c820191505b818110156102a1575f815560010161028e565b50505b505050565b81516001600160401b038111156102c2576102c2610106565b6102d6816102d08454610225565b8461025d565b6020601f821160018114610308575f83156102f15750848201515b5f19600385901b1c1916600184901b1784556102a1565b5f84815260208120601f198516915b828110156103375787850151825560209485019460019092019101610317565b508482101561035457868401515f19600387901b60f8161c191681555b50505050600190811b01905550565b60805160a05160c051611e6e6103e15f395f818161053201528181610621015281816106d0015281816107bb015281816108cb015281816109b101528181610a9401528181610b2201528181610bc201528181610c5d01528181610df401528181610ea90152610f6f01525f61100901525f610fe10152611e6e5ff3fe608060405234801561000f575f5ffd5b50600436106101b5575f3560e01c806301ffc9a7146101b957806306fdde03146101f2578063095ea7b31461020757806316a0b3e01461021a57806318160ddd1461023b57806323b872dd1461024357806323de665114610256578063273c1adf1461026b5780632efd5d811461027357806330adf81f14610286578063313ce5671461029a578063360c340f146102a95780633644e515146102be5780634cfe8d1a146102c6578063547c8fdd146102d95780635687f2b8146102ec578063627cdcb9146102ff578063641579a614610307578063654cf15d1461031a578063679aefce1461032857806370a082311461033057806372c98186146103435780637ecebe001461035657806381fa807c1461036957806384b0196e146103865780638d928af8146103a157806395d89b41146103b6578063984de9e8146103be578063a9059cbb146103d1578063ab68e28c146103e4578063abb1dc4414610407578063b0e2e4031461041f578063b677fa5614610432578063ce20ece71461043a578063d505accf14610440578063dd62ed3e14610453578063e4c4366314610466575b5f5ffd5b6101dd6101c7366004611165565b6001600160e01b0319166301ffc9a760e01b1490565b60405190151581526020015b60405180910390f35b6101fa610489565b6040516101e991906111ba565b6101dd6102153660046111e0565b610519565b61022d610228366004611325565b6105b7565b6040519081526020016101e9565b61022d610608565b6101dd61025136600461136e565b61069a565b61026961026436600461136e565b610747565b005b60085461022d565b6102696102813660046113ac565b600755565b61022d5f516020611e195f395f51905f5281565b604051601281526020016101e9565b6102b16107a1565b6040516101e991906113fd565b61022d610837565b6102696102d43660046113ac565b600655565b6102696102e73660046113ac565b600855565b6102696102fa36600461136e565b610840565b61026961088d565b6102696103153660046113ac565b600555565b670de0b6b3a764000061022d565b61022d610899565b61022d61033e36600461140f565b6108b2565b61022d61035136600461142a565b610941565b61022d61036436600461140f565b61098f565b6103716109ac565b604080519283526020830191909152016101e9565b61038e610a50565b6040516101e99796959493929190611460565b6103a9610a92565b6040516101e991906114cf565b6101fa610ab6565b61022d6103cc3660046114ef565b610ac5565b6101dd6103df3660046111e0565b610b09565b6103f76103f23660046115a8565b610b5b565b6040516101e9949392919061164f565b61040f610bba565b6040516101e994939291906116ac565b61026961042d3660046113ac565b610c5b565b60075461022d565b5f61022d565b61026961044e366004611798565b610cf8565b61022d610461366004611809565b610e7a565b610479610474366004611835565b610f1b565b6040516101e9949392919061189c565b606060038054610498906118c6565b80601f01602080910402602001604051908101604052809291908181526020018280546104c4906118c6565b801561050f5780601f106104e65761010080835404028352916020019161050f565b820191905f5260205f20905b8154815290600101906020018083116104f257829003601f168201915b5050505050905090565b60405163e1f21c6760e01b81525f906001600160a01b037f0000000000000000000000000000000000000000000000000000000000000000169063e1f21c679061056b903390879087906004016118f8565b6020604051808303815f875af1158015610587573d5f5f3e3d5ffd5b505050506040513d601f19601f820116820180604052508101906105ab9190611930565b50600190505b92915050565b5f5f6105c4856001610ac5565b9050806105d18185610f3c565b8686815181106105e3576105e3611949565b60200260200101516105f59190611971565b6105ff9190611984565b95945050505050565b6040516339370aa960e21b81525f906001600160a01b037f0000000000000000000000000000000000000000000000000000000000000000169063e4dc2aa4906106569030906004016114cf565b602060405180830381865afa158015610671573d5f5f3e3d5ffd5b505050506040513d601f19601f820116820180604052508101906106959190611997565b905090565b604051630aed65f560e11b81523360048201526001600160a01b0384811660248301528381166044830152606482018390525f917f0000000000000000000000000000000000000000000000000000000000000000909116906315dacbea906084016020604051808303815f875af1158015610718573d5f5f3e3d5ffd5b505050506040513d601f19601f8201168201806040525081019061073c9190611930565b506001949350505050565b61074f610f64565b816001600160a01b0316836001600160a01b03167fddf252ad1be2c89b69c2b068fc378daa952ba7f163c4a11628f55a4df523b3ef8360405161079491815260200190565b60405180910390a3505050565b604051633f1b0def60e11b81526060906001600160a01b037f00000000000000000000000000000000000000000000000000000000000000001690637e361bde906107f09030906004016114cf565b5f60405180830381865afa15801561080a573d5f5f3e3d5ffd5b505050506040513d5f823e601f3d908101601f191682016040526108319190810190611a09565b50919050565b5f610695610fb1565b610848610f64565b816001600160a01b0316836001600160a01b03167f8c5be1e5ebec7d5bd14f71427d1e84f3dd0314c0f7b2291e5b200ac8c7c3b9258360405161079491815260200190565b61089633611059565b50565b5f6006545f146108aa575060065490565b61069561107b565b604051633de222bb60e21b81525f906001600160a01b037f0000000000000000000000000000000000000000000000000000000000000000169063f7888aec906109029030908690600401611a6e565b602060405180830381865afa15801561091d573d5f5f3e3d5ffd5b505050506040513d601f19601f820116820180604052508101906105b19190611997565b5f806109506020840184611a88565b600181111561096157610961611698565b1461097d57600554610978906020840135906110af565b6105b1565b6005546105b190602084013590610f3c565b6001600160a01b0381165f908152600260205260408120546105b1565b5f5f5f7f00000000000000000000000000000000000000000000000000000000000000006001600160a01b031663f29486a1306040518263ffffffff1660e01b81526004016109fb91906114cf565b6101a060405180830381865afa158015610a17573d5f5f3e3d5ffd5b505050506040513d601f19601f82011682018060405250810190610a3b9190611b47565b90508060400151925080606001519150509091565b5f6060805f5f5f6060610a616110cf565b610a696110dd565b604080515f80825260208201909252600f60f81b9b939a50919850469750309650945092509050565b7f000000000000000000000000000000000000000000000000000000000000000090565b606060048054610498906118c6565b5f80805b8451811015610b0157848181518110610ae457610ae4611949565b602002602001015182610af79190611971565b9150600101610ac9565b509392505050565b6040516317d5759960e31b81525f906001600160a01b037f0000000000000000000000000000000000000000000000000000000000000000169063beabacc89061056b903390879087906004016118f8565b5f6060806060878788516001600160401b03811115610b7c57610b7c61120a565b604051908082528060200260200182016040528015610ba5578160200160208202803683370190505b50919b909a5090985094965093945050505050565b6060806060807f00000000000000000000000000000000000000000000000000000000000000006001600160a01b03166367e0e076306040518263ffffffff1660e01b8152600401610c0c91906114cf565b5f60405180830381865afa158015610c26573d5f5f3e3d5ffd5b505050506040513d5f823e601f3d908101601f19168201604052610c4d9190810190611ca3565b935093509350935090919293565b7f00000000000000000000000000000000000000000000000000000000000000006001600160a01b031663c808824782604051602001610c9d91815260200190565b6040516020818303038152906040526040518263ffffffff1660e01b8152600401610cc89190611dbe565b5f604051808303815f87803b158015610cdf575f5ffd5b505af1158015610cf1573d5f5f3e3d5ffd5b5050505050565b83421115610d215760405163313c898160e11b8152600481018590526024015b60405180910390fd5b5f5f516020611e195f395f51905f52888888610d3c8c611059565b6040805160208101969096526001600160a01b0394851690860152929091166060840152608083015260a082015260c0810186905260e0016040516020818303038152906040528051906020012090505f610d96826110ec565b90505f610da582878787611118565b9050896001600160a01b0316816001600160a01b031614610ddd57808a6040516325c0072360e11b8152600401610d18929190611a6e565b60405163e1f21c6760e01b81526001600160a01b037f0000000000000000000000000000000000000000000000000000000000000000169063e1f21c6790610e2d908d908d908d906004016118f8565b6020604051808303815f875af1158015610e49573d5f5f3e3d5ffd5b505050506040513d601f19601f82011682018060405250810190610e6d9190611930565b5050505050505050505050565b60405163927da10560e01b81523060048201526001600160a01b03838116602483015282811660448301525f917f00000000000000000000000000000000000000000000000000000000000000009091169063927da10590606401602060405180830381865afa158015610ef0573d5f5f3e3d5ffd5b505050506040513d601f19601f82011682018060405250810190610f149190611997565b9392505050565b60605f606080878789516001600160401b03811115610b7c57610b7c61120a565b5f80610f488385611de2565b9050610f5c670de0b6b3a764000082611df9565b949350505050565b336001600160a01b037f00000000000000000000000000000000000000000000000000000000000000001614610faf573360405163089676d560e01b8152600401610d1891906114cf565b565b5f610695604080517f8b73c3c69bb8fe3d512ecc4cf759cc79239f7b179b0ffacaa9a75d522b39400f60208201527f0000000000000000000000000000000000000000000000000000000000000000918101919091527f000000000000000000000000000000000000000000000000000000000000000060608201524660808201523060a08201525f9060c00160405160208183030381529060405280519060200120905090565b6001600160a01b03165f90815260026020526040902080546001810190915590565b5f611084610a92565b6001600160a01b0316634f037ee7306040518263ffffffff1660e01b815260040161065691906114cf565b5f806110c3670de0b6b3a764000085611de2565b9050610f5c8382611df9565b60605f8054610498906118c6565b606060018054610498906118c6565b5f6105b16110f8610fb1565b8360405161190160f01b8152600281019290925260228201526042902090565b5f6105ff858585855f604051855f5260ff851660205283604052826060526020600160805f60015afa5191503d61115657638baa579f5f526004601cfd5b5f606052604052949350505050565b5f60208284031215611175575f5ffd5b81356001600160e01b031981168114610f14575f5ffd5b5f81518084528060208401602086015e5f602082860101526020601f19601f83011685010191505092915050565b602081525f610f14602083018461118c565b6001600160a01b0381168114610896575f5ffd5b5f5f604083850312156111f1575f5ffd5b82356111fc816111cc565b946020939093013593505050565b634e487b7160e01b5f52604160045260245ffd5b60405161014081016001600160401b03811182821017156112415761124161120a565b60405290565b604051606081016001600160401b03811182821017156112415761124161120a565b604051601f8201601f191681016001600160401b03811182821017156112915761129161120a565b604052919050565b5f6001600160401b038211156112b1576112b161120a565b5060051b60200190565b5f82601f8301126112ca575f5ffd5b81356112dd6112d882611299565b611269565b8082825260208201915060208360051b8601019250858311156112fe575f5ffd5b602085015b8381101561131b578035835260209283019201611303565b5095945050505050565b5f5f5f60608486031215611337575f5ffd5b83356001600160401b0381111561134c575f5ffd5b611358868287016112bb565b9660208601359650604090950135949350505050565b5f5f5f60608486031215611380575f5ffd5b833561138b816111cc565b9250602084013561139b816111cc565b929592945050506040919091013590565b5f602082840312156113bc575f5ffd5b5035919050565b5f8151808452602084019350602083015f5b828110156113f35781518652602095860195909101906001016113d5565b5093949350505050565b602081525f610f1460208301846113c3565b5f6020828403121561141f575f5ffd5b8135610f14816111cc565b5f6020828403121561143a575f5ffd5b81356001600160401b0381111561144f575f5ffd5b820160e08185031215610f14575f5ffd5b60ff60f81b8816815260e060208201525f61147e60e083018961118c565b8281036040840152611490818961118c565b606084018890526001600160a01b038716608085015260a0840186905283810360c085015290506114c181856113c3565b9a9950505050505050505050565b6001600160a01b0391909116815260200190565b60028110610896575f5ffd5b5f5f60408385031215611500575f5ffd5b82356001600160401b03811115611515575f5ffd5b611521858286016112bb565b9250506020830135611532816114e3565b809150509250929050565b5f82601f83011261154c575f5ffd5b81356001600160401b038111156115655761156561120a565b611578601f8201601f1916602001611269565b81815284602083860101111561158c575f5ffd5b816020850160208301375f918101602001919091529392505050565b5f5f5f5f5f60a086880312156115bc575f5ffd5b85356115c7816111cc565b94506020860135935060408601356001600160401b038111156115e8575f5ffd5b6115f4888289016112bb565b93505060608601356001600160401b0381111561160f575f5ffd5b61161b888289016112bb565b92505060808601356001600160401b03811115611636575f5ffd5b6116428882890161153d565b9150509295509295909350565b848152608060208201525f61166760808301866113c3565b828103604084015261167981866113c3565b9050828103606084015261168d818561118c565b979650505050505050565b634e487b7160e01b5f52602160045260245ffd5b608080825285519082018190525f90602087019060a0840190835b818110156116ee5783516001600160a01b03168352602093840193909201916001016116c7565b505083810360208501528091505f87518083526020830193506020890192505f5b8181101561176e57835180516002811061173757634e487b7160e01b5f52602160045260245ffd5b86526020818101516001600160a01b031681880152604091820151151591870191909152606090950194939093019260010161170f565b50505050828103604084015261178481866113c3565b9050828103606084015261168d81856113c3565b5f5f5f5f5f5f5f60e0888a0312156117ae575f5ffd5b87356117b9816111cc565b965060208801356117c9816111cc565b95506040880135945060608801359350608088013560ff811681146117ec575f5ffd5b9699959850939692959460a0840135945060c09093013592915050565b5f5f6040838503121561181a575f5ffd5b8235611825816111cc565b91506020830135611532816111cc565b5f5f5f5f5f60a08688031215611849575f5ffd5b8535611854816111cc565b945060208601356001600160401b0381111561186e575f5ffd5b61187a888289016112bb565b9450506040860135925060608601356001600160401b0381111561160f575f5ffd5b608081525f6118ae60808301876113c3565b856020840152828103604084015261167981866113c3565b600181811c908216806118da57607f821691505b60208210810361083157634e487b7160e01b5f52602260045260245ffd5b6001600160a01b039384168152919092166020820152604081019190915260600190565b8051801515811461192b575f5ffd5b919050565b5f60208284031215611940575f5ffd5b610f148261191c565b634e487b7160e01b5f52603260045260245ffd5b634e487b7160e01b5f52601160045260245ffd5b808201808211156105b1576105b161195d565b818103818111156105b1576105b161195d565b5f602082840312156119a7575f5ffd5b5051919050565b5f82601f8301126119bd575f5ffd5b81516119cb6112d882611299565b8082825260208201915060208360051b8601019250858311156119ec575f5ffd5b602085015b8381101561131b5780518352602092830192016119f1565b5f5f60408385031215611a1a575f5ffd5b82516001600160401b03811115611a2f575f5ffd5b611a3b858286016119ae565b602085015190935090506001600160401b03811115611a58575f5ffd5b611a64858286016119ae565b9150509250929050565b6001600160a01b0392831681529116602082015260400190565b5f60208284031215611a98575f5ffd5b8135610f14816114e3565b5f60808284031215611ab3575f5ffd5b604051608081016001600160401b0381118282101715611ad557611ad561120a565b604052905080611ae48361191c565b8152611af26020840161191c565b6020820152611b036040840161191c565b6040820152611b146060840161191c565b60608201525092915050565b805164ffffffffff8116811461192b575f5ffd5b805163ffffffff8116811461192b575f5ffd5b5f6101a0828403128015611b59575f5ffd5b50611b6261121e565b611b6c8484611aa3565b81526080830151602082015260a0830151604082015260c08301516060820152611b9860e08401611b20565b6080820152611baa6101008401611b34565b60a0820152611bbc610120840161191c565b60c0820152611bce610140840161191c565b60e0820152611be0610160840161191c565b610100820152611bf3610180840161191c565b6101208201529392505050565b5f82601f830112611c0f575f5ffd5b8151611c1d6112d882611299565b80828252602082019150602060608402860101925085831115611c3e575f5ffd5b602085015b8381101561131b5760608188031215611c5a575f5ffd5b611c62611247565b8151611c6d816114e3565b81526020820151611c7d816111cc565b6020820152611c8e6040830161191c565b60408201528352602090920191606001611c43565b5f5f5f5f60808587031215611cb6575f5ffd5b84516001600160401b03811115611ccb575f5ffd5b8501601f81018713611cdb575f5ffd5b8051611ce96112d882611299565b8082825260208201915060208360051b850101925089831115611d0a575f5ffd5b6020840193505b82841015611d35578351611d24816111cc565b825260209384019390910190611d11565b6020890151909750925050506001600160401b03811115611d54575f5ffd5b611d6087828801611c00565b604087015190945090506001600160401b03811115611d7d575f5ffd5b611d89878288016119ae565b606087015190935090506001600160401b03811115611da6575f5ffd5b611db2878288016119ae565b91505092959194509250565b6815195cdd115d995b9d60ba1b8152604060208201525f610f14604083018461118c565b80820281158282048414176105b1576105b161195d565b5f82611e1357634e487b7160e01b5f52601260045260245ffd5b50049056fe6e71edae12b1b97f4d1f60370fef10105fa2faae0126114a169c64845d6126c9a2646970667358221220829bce7dd1d429e3df537fe37d0c4e6296c3c9727a8ab55f204b03b7d6973ebd64736f6c634300081e0033","linkReferences":{}},"methodIdentifiers":{"DOMAIN_SEPARATOR()":"3644e515","PERMIT_TYPEHASH()":"30adf81f","allowance(address,address)":"dd62ed3e","approve(address,uint256)":"095ea7b3","balanceOf(address)":"70a08231","computeBalance(uint256[],uint256,uint256)":"16a0b3e0","computeInvariant(uint256[],uint8)":"984de9e8","decimals()":"313ce567","eip712Domain()":"84b0196e","emitApproval(address,address,uint256)":"5687f2b8","emitTransfer(address,address,uint256)":"23de6651","getAggregateFeePercentages()":"81fa807c","getDecimalScalingFactors()":"360c340f","getMaximumInvariantRatio()":"273c1adf","getMaximumSwapFeePercentage()":"654cf15d","getMinimumInvariantRatio()":"b677fa56","getMinimumSwapFeePercentage()":"ce20ece7","getRate()":"679aefce","getTokenInfo()":"abb1dc44","getVault()":"8d928af8","incrementNonce()":"627cdcb9","mockEventFunction(uint256)":"b0e2e403","name()":"06fdde03","nonces(address)":"7ecebe00","onAddLiquidityCustom(address,uint256[],uint256,uint256[],bytes)":"e4c43663","onRemoveLiquidityCustom(address,uint256,uint256[],uint256[],bytes)":"ab68e28c","onSwap((uint8,uint256,uint256[],uint256,uint256,address,bytes))":"72c98186","permit(address,address,uint256,uint256,uint8,bytes32,bytes32)":"d505accf","setMaximumInvariantRatio(uint256)":"547c8fdd","setMinimumInvariantRatio(uint256)":"2efd5d81","setMockRate(uint256)":"4cfe8d1a","setMultiplier(uint256)":"641579a6","supportsInterface(bytes4)":"01ffc9a7","symbol()":"95d89b41","totalSupply()":"18160ddd","transfer(address,uint256)":"a9059cbb","transferFrom(address,address,uint256)":"23b872dd"},"id":382}