{"abi":[{"type":"function","name":"facetFuncs","inputs":[],"outputs":[{"name":"funcs","type":"bytes4[]","internalType":"bytes4[]"}],"stateMutability":"pure"},{"type":"function","name":"facetInterfaces","inputs":[],"outputs":[{"name":"interfaces","type":"bytes4[]","internalType":"bytes4[]"}],"stateMutability":"pure"},{"type":"function","name":"facetMetadata","inputs":[],"outputs":[{"name":"name","type":"string","internalType":"string"},{"name":"interfaces","type":"bytes4[]","internalType":"bytes4[]"},{"name":"functions","type":"bytes4[]","internalType":"bytes4[]"}],"stateMutability":"pure"},{"type":"function","name":"facetName","inputs":[],"outputs":[{"name":"name","type":"string","internalType":"string"}],"stateMutability":"pure"},{"type":"function","name":"postDeploy","inputs":[],"outputs":[{"name":"","type":"bool","internalType":"bool"}],"stateMutability":"nonpayable"},{"type":"error","name":"AddressEmptyCode","inputs":[{"name":"target","type":"address","internalType":"address"}]},{"type":"error","name":"FailedCall","inputs":[]}],"bytecode":{"object":"0x6080604052348015600e575f5ffd5b506104678061001c5f395ff3fe608060405234801561000f575f5ffd5b5060043610610055575f3560e01c80632ea8082614610059578063574a4cff146100775780635b6f4d011461007f578063ba5b83ec14610094578063f10d7a75146100ac575b5f5ffd5b6100616100c3565b60405161006e919061035f565b60405180910390f35b61006161011b565b610087610157565b60405161006e919061039f565b61009c61018b565b604051901515815260200161006e565b6100b46101e9565b60405161006e939291906103b1565b60408051600180825281830190925260609160208083019080368337019050509050632e96e0fb60e21b815f815181106100ff576100ff6103f3565b6001600160e01b03199092166020928302919091019091015290565b6040805160018082528183019092526060916020808301908036833701905050905063ba5b83ec60e01b815f815181106100ff576100ff6103f3565b60408051808201909152601a815279141bdcdd11195c1b1bde5058d8dbdd5b9d121bdbdad19858d95d60321b602082015290565b5f6101e16370068fcf60e01b306040516024016101a89190610407565b60408051601f198184030181529190526020810180516001600160e01b03166001600160e01b0319909316929092179091523390610211565b506001905090565b60608060606101f6610157565b92506102006100c3565b915061020a61011b565b9050909192565b606061021d8383610224565b9392505050565b60605f5f846001600160a01b031684604051610240919061041b565b5f60405180830381855af49150503d805f8114610278576040519150601f19603f3d011682016040523d82523d5f602084013e61027d565b606091505b509150915061028d858383610296565b95945050505050565b6060826102ab576102a6826102f2565b61021d565b81511580156102c257506001600160a01b0384163b155b156102eb5783604051639996b31560e01b81526004016102e29190610407565b60405180910390fd5b5092915050565b8051156103025780518082602001fd5b60405163d6bda27560e01b815260040160405180910390fd5b5f8151808452602084019350602083015f5b828110156103555781516001600160e01b03191686526020958601959091019060010161032d565b5093949350505050565b602081525f61021d602083018461031b565b5f81518084528060208401602086015e5f602082860101526020601f19601f83011685010191505092915050565b602081525f61021d6020830184610371565b606081525f6103c36060830186610371565b82810360208401526103d5818661031b565b905082810360408401526103e9818561031b565b9695505050505050565b634e487b7160e01b5f52603260045260245ffd5b6001600160a01b0391909116815260200190565b5f82518060208501845e5f92019182525091905056fea2646970667358221220a2d9a3ad879d0bba79f14437604cf2c363716506edb0cde633db98f05b0f081264736f6c634300081e0033","linkReferences":{}},"methodIdentifiers":{"facetFuncs()":"574a4cff","facetInterfaces()":"2ea80826","facetMetadata()":"f10d7a75","facetName()":"5b6f4d01","postDeploy()":"ba5b83ec"},"id":546}