{"abi":[{"type":"function","name":"computeBalance","inputs":[{"name":"balancesLiveScaled18","type":"uint256[]","internalType":"uint256[]"},{"name":"tokenInIndex","type":"uint256","internalType":"uint256"},{"name":"invariantRatio","type":"uint256","internalType":"uint256"}],"outputs":[{"name":"newBalance","type":"uint256","internalType":"uint256"}],"stateMutability":"view"},{"type":"function","name":"computeInvariant","inputs":[{"name":"balancesLiveScaled18","type":"uint256[]","internalType":"uint256[]"},{"name":"rounding","type":"uint8","internalType":"enum Rounding"}],"outputs":[{"name":"invariant","type":"uint256","internalType":"uint256"}],"stateMutability":"view"},{"type":"function","name":"facetFuncs","inputs":[],"outputs":[{"name":"funcs","type":"bytes4[]","internalType":"bytes4[]"}],"stateMutability":"pure"},{"type":"function","name":"facetInterfaces","inputs":[],"outputs":[{"name":"interfaces","type":"bytes4[]","internalType":"bytes4[]"}],"stateMutability":"pure"},{"type":"function","name":"facetMetadata","inputs":[],"outputs":[{"name":"name_","type":"string","internalType":"string"},{"name":"interfaces","type":"bytes4[]","internalType":"bytes4[]"},{"name":"functions","type":"bytes4[]","internalType":"bytes4[]"}],"stateMutability":"pure"},{"type":"function","name":"facetName","inputs":[],"outputs":[{"name":"name","type":"string","internalType":"string"}],"stateMutability":"pure"},{"type":"function","name":"get2CLPParams","inputs":[],"outputs":[{"name":"sqrtAlpha","type":"uint256","internalType":"uint256"},{"name":"sqrtBeta","type":"uint256","internalType":"uint256"}],"stateMutability":"view"},{"type":"function","name":"getMaximumInvariantRatio","inputs":[],"outputs":[{"name":"","type":"uint256","internalType":"uint256"}],"stateMutability":"pure"},{"type":"function","name":"getMaximumSwapFeePercentage","inputs":[],"outputs":[{"name":"","type":"uint256","internalType":"uint256"}],"stateMutability":"pure"},{"type":"function","name":"getMinimumInvariantRatio","inputs":[],"outputs":[{"name":"","type":"uint256","internalType":"uint256"}],"stateMutability":"pure"},{"type":"function","name":"getMinimumSwapFeePercentage","inputs":[],"outputs":[{"name":"","type":"uint256","internalType":"uint256"}],"stateMutability":"pure"},{"type":"function","name":"onSwap","inputs":[{"name":"params","type":"tuple","internalType":"struct PoolSwapParams","components":[{"name":"kind","type":"uint8","internalType":"enum SwapKind"},{"name":"amountGivenScaled18","type":"uint256","internalType":"uint256"},{"name":"balancesScaled18","type":"uint256[]","internalType":"uint256[]"},{"name":"indexIn","type":"uint256","internalType":"uint256"},{"name":"indexOut","type":"uint256","internalType":"uint256"},{"name":"router","type":"address","internalType":"address"},{"name":"userData","type":"bytes","internalType":"bytes"}]}],"outputs":[{"name":"amountCalculatedScaled18","type":"uint256","internalType":"uint256"}],"stateMutability":"view"},{"type":"error","name":"AssetBoundsExceeded","inputs":[]},{"type":"error","name":"SqrtParamsWrong","inputs":[]},{"type":"error","name":"ZeroDivision","inputs":[]}],"bytecode":{"object":"0x6080604052348015600e575f5ffd5b5061153f8061001c5f395ff3fe608060405234801561000f575f5ffd5b50600436106100a2575f3560e01c806316a0b3e0146100a6578063273c1adf146100cc5780632ea80826146100d3578063574a4cff146100e85780635b6f4d01146100f0578063654cf15d1461010557806372c9818614610113578063984de9e814610126578063b677fa5614610139578063ce20ece71461013f578063f10d7a751461014a578063f3808f8414610161575b5f5ffd5b6100b96100b4366004611242565b61017e565b6040519081526020015b60405180910390f35b5f196100b9565b6100db61025b565b6040516100c391906112cf565b6100db6102ee565b6100f86104ad565b6040516100c3919061130f565b670de0b6b3a76400006100b9565b6100b9610121366004611321565b6104e2565b6100b9610134366004611366565b6105ae565b5f6100b9565b64e8d4a510006100b9565b6101526105d2565b6040516100c3939291906113b4565b6101696105fa565b604080519283526020830191909152016100c3565b5f5f5f61018961060c565b915091505f61019a8784845f610659565b90506101a6818661068c565b90505f6101b3828061140a565b90505f6101c083856106b8565b90505f6101cd84876106e2565b9050885f0361021857816102078b6001815181106101ed576101ed611421565b6020026020010151836102009190611435565b8590610702565b6102119190611448565b965061024e565b806102418b5f8151811061022e5761022e611421565b6020026020010151846102009190611435565b61024b9190611448565b96505b5050505050509392505050565b6040805160028082526060808301845292602083019080368337019050509050637e126dc760e11b815f8151811061029557610295611421565b60200260200101906001600160e01b03191690816001600160e01b0319168152505063c9a772b760e01b816001815181106102d2576102d2611421565b6001600160e01b03199092166020928302919091019091015290565b6040805160088082526101208201909252606091602082016101008036833701905050905063984de9e860e01b815f8151811061032d5761032d611421565b6001600160e01b031990921660209283029190910190910152805162b5059f60e51b908290600190811061036357610363611421565b6001600160e01b0319909216602092830291909101909101528051633964c0c360e11b908290600290811061039a5761039a611421565b6001600160e01b0319909216602092830291909101909101528051633ce023e160e21b90829060039081106103d1576103d1611421565b6001600160e01b031990921660209283029190910190910152805163ce20ece760e01b908290600490811061040857610408611421565b6001600160e01b031990921660209283029190910190910152805163654cf15d60e01b908290600590811061043f5761043f611421565b6001600160e01b0319909216602092830291909101909101528051635b3bfd2b60e11b908290600690811061047657610476611421565b6001600160e01b031990921660209283029190910190910152805163273c1adf60e01b90829060079081106102d2576102d2611421565b60408051808201909152601b81527a10985b185b98d95c958cd1de5c9bcc90d314141bdbdb119858d95d602a1b602082015290565b5f606082013515816104f7604085018561145b565b856060013581811061050b5761050b611421565b9050602002013590505f848060400190610525919061145b565b866080013581811061053957610539611421565b9050602002013590505f5f61054f848487610734565b90925090505f61056260208901896114bb565b6001811115610573576105736114a7565b036105905761058984848960200135858561081d565b95506105a4565b6105a184848960200135858561087a565b95505b5050505050919050565b5f5f5f6105b961060c565b915091506105c985838387610659565b95945050505050565b60608060606105df6104ad565b92506105e961025b565b91506105f36102ee565b9050909192565b5f5f61060461060c565b915091509091565b7f0e608ce83d5ad53eaabbef5644dd88ffe25c904c499deca068a8868b93a5bb23547f0e608ce83d5ad53eaabbef5644dd88ffe25c904c499deca068a8868b93a5bb24545f918291610604565b5f5f5f5f5f61066a898989896108df565b935093509350935061067f848484848a610b37565b9998505050505050505050565b5f80610698838561140a565b90506001670de0b6b3a76400006001830304018115150291505092915050565b5f806106cc670de0b6b3a76400008561140a565b90506106d883826114d6565b9150505b92915050565b5f806106ee838561140a565b90506106d8670de0b6b3a7640000826114d6565b5f815f0361072357604051630a0c22c760e01b815260040160405180910390fd5b508115155f19909201046001010290565b6040805160028082526060820183525f92839283929091602083019080368337019050509050836107655784610767565b855b815f8151811061077957610779611421565b602002602001018181525050836107905785610792565b845b816001815181106107a5576107a5611421565b6020026020010181815250505f5f6107bb61060c565b915091505f6107cd8484846001610659565b905086156107f5576107e081835f610bf2565b95506107ee81846001610c2d565b9450610811565b61080081845f610c2d565b955061080e81836001610bf2565b94505b50505050935093915050565b5f806108298488611435565b90505f6108368488611435565b90506108556108458784611435565b61084f83896106e2565b906106b8565b92505050848111156105c9576040516301dd20c360e11b815260040160405180910390fd5b5f8484111561089c576040516301dd20c360e11b815260040160405180910390fd5b5f6108a78488611435565b90505f6108b48488611435565b90506108d36108c38783611448565b6108cd848961068c565b90610c5b565b98975050505050505050565b5f80808061118860018660018111156108fa576108fa6114a7565b1461090757610c5b61090b565b6106b85b90506111886001876001811115610924576109246114a7565b146109315761068c610935565b6106e25b9050611188600188600181111561094e5761094e6114a7565b1461095b576106e261095f565b61068c5b905061096f8a8a8563ffffffff16565b61098190670de0b6b3a7640000611448565b96505f6109ac8c60018151811061099a5761099a611421565b60200260200101518b8663ffffffff16565b90505f6109d68d5f815181106109c4576109c4611421565b60200260200101518d8663ffffffff16565b90506109e28183611435565b9750610a258d5f815181106109f9576109f9611421565b60200260200101518e600181518110610a1457610a14611421565b60200260200101518663ffffffff16565b95505050610a72610a68610a5e8d5f81518110610a4457610a44611421565b60200260200101518e5f81518110610a1457610a14611421565b8c8563ffffffff16565b8b8463ffffffff16565b94505f610adb610ac6610abc8e5f81518110610a9057610a90611421565b60200260200101518f600181518110610aab57610aab611421565b60200260200101518763ffffffff16565b8d8663ffffffff16565b610ad190600261140a565b8b8663ffffffff16565b90505f610b0e610af78e600181518110610a9057610a90611421565b610b058d8e8763ffffffff16565b8763ffffffff16565b905080610b1b8389611435565b610b259190611435565b96505050505050945094509450949050565b5f6111886001836001811115610b4f57610b4f6114a7565b14610b5c5761068c610b60565b6106e25b90506111886001846001811115610b7957610b796114a7565b14610b8657610c5b610b8a565b6106b85b90505f610b9889600261140a565b90505f610ba9610ad188600461140a565b90505f610bb6828a611435565b90505f610bc4826005610c76565b90505f610bd1828d611435565b9050610be181868863ffffffff16565b9d9c50505050505050505050505050565b5f6001826001811115610c0757610c076114a7565b14610c1b57610c168484610c5b565b610c25565b610c2584846106b8565b949350505050565b5f6001826001811115610c4257610c426114a7565b14610c5157610c16848461068c565b610c2584846106e2565b5f610c6f83670de0b6b3a764000084610e8e565b9392505050565b5f825f03610c8557505f6106dc565b5f610c8f84610ed3565b9050600281610ca6670de0b6b3a76400008761140a565b610cb091906114d6565b610cba9083611435565b610cc491906114d6565b9050600281610cdb670de0b6b3a76400008761140a565b610ce591906114d6565b610cef9083611435565b610cf991906114d6565b9050600281610d10670de0b6b3a76400008761140a565b610d1a91906114d6565b610d249083611435565b610d2e91906114d6565b9050600281610d45670de0b6b3a76400008761140a565b610d4f91906114d6565b610d599083611435565b610d6391906114d6565b9050600281610d7a670de0b6b3a76400008761140a565b610d8491906114d6565b610d8e9083611435565b610d9891906114d6565b9050600281610daf670de0b6b3a76400008761140a565b610db991906114d6565b610dc39083611435565b610dcd91906114d6565b9050600281610de4670de0b6b3a76400008761140a565b610dee91906114d6565b610df89083611435565b610e0291906114d6565b90505f610e0f82806106e2565b9050610e1b828561068c565b610e259086611435565b8111158015610e475750610e39828561068c565b610e439086611448565b8110155b610e865760405162461bcd60e51b815260206004820152600c60248201526b17dcdc5c9d0811905253115160a21b604482015260640160405180910390fd5b509392505050565b5f815f03610eaf57604051630a0c22c760e01b815260040160405180910390fd5b5f610eba848661140a565b9050600183600183030401811515029150509392505050565b5f670de0b6b3a76400008210610f0c57670de0b6b3a7640000610efe610ef982856114d6565b6110b3565b6001901b6106dc919061140a565b600a8211610f1f575063bc7c871c919050565b60648211610f3357506402540be400919050565b6103e88211610f48575064075cdd4719919050565b6127108211610f5d575064174876e800919050565b620186a08211610f7357506449a0a4c700919050565b620f42408211610f89575064e8d4a51000919050565b629896808211610fa057506502e0466fc608919050565b6305f5e1008211610fb857506509184e72a000919050565b633b9aca008211610fd05750651cc2c05dbc53919050565b6402540be4008211610fe95750655af3107a4000919050565b64174876e8008211611003575066011f9b83a95b45919050565b64e8d4a51000821161101d575066038d7ea4c68000919050565b6509184e72a00082116110385750660b3c13249d90bb919050565b655af3107a400082116110535750662386f26fc10000919050565b66038d7ea4c68000821161106f5750667058bf6e27a751919050565b662386f26fc10000821161108c575067016345785d8a0000919050565b67016345785d8a000082116110aa5750670463777a4d8c892d919050565b5090565b919050565b5f600160801b82106110d45760809190911c906110d1604082611435565b90505b600160401b82106110f45760409190911c906110f1602082611435565b90505b600160201b82106111145760209190911c90611111601082611435565b90505b6201000082106111335760109190911c90611130600882611435565b90505b61010082106111515760089190911c9061114e600482611435565b90505b6010821061116e5760049190911c9061116b600282611435565b90505b600482106110ae5760029190911c906106dc600182611435565b6111906114f5565b565b634e487b7160e01b5f52604160045260245ffd5b5f82601f8301126111b5575f5ffd5b81356001600160401b038111156111ce576111ce611192565b604051600582901b90603f8201601f191681016001600160401b03811182821017156111fc576111fc611192565b604052918252602081850181019290810186841115611219575f5ffd5b6020860192505b83831015611238578235815260209283019201611220565b5095945050505050565b5f5f5f60608486031215611254575f5ffd5b83356001600160401b03811115611269575f5ffd5b611275868287016111a6565b9660208601359650604090950135949350505050565b5f8151808452602084019350602083015f5b828110156112c55781516001600160e01b03191686526020958601959091019060010161129d565b5093949350505050565b602081525f610c6f602083018461128b565b5f81518084528060208401602086015e5f602082860101526020601f19601f83011685010191505092915050565b602081525f610c6f60208301846112e1565b5f60208284031215611331575f5ffd5b81356001600160401b03811115611346575f5ffd5b820160e08185031215610c6f575f5ffd5b60028110611363575f5ffd5b50565b5f5f60408385031215611377575f5ffd5b82356001600160401b0381111561138c575f5ffd5b611398858286016111a6565b92505060208301356113a981611357565b809150509250929050565b606081525f6113c660608301866112e1565b82810360208401526113d8818661128b565b905082810360408401526113ec818561128b565b9695505050505050565b634e487b7160e01b5f52601160045260245ffd5b80820281158282048414176106dc576106dc6113f6565b634e487b7160e01b5f52603260045260245ffd5b808201808211156106dc576106dc6113f6565b818103818111156106dc576106dc6113f6565b5f5f8335601e19843603018112611470575f5ffd5b8301803591506001600160401b03821115611489575f5ffd5b6020019150600581901b36038213156114a0575f5ffd5b9250929050565b634e487b7160e01b5f52602160045260245ffd5b5f602082840312156114cb575f5ffd5b8135610c6f81611357565b5f826114f057634e487b7160e01b5f52601260045260245ffd5b500490565b634e487b7160e01b5f52605160045260245ffdfea2646970667358221220f30f5f83ada0807e451b123325a4ada2779e6dcce17e8905cc6ed2b71c4ffd8564736f6c634300081e0033","linkReferences":{}},"methodIdentifiers":{"computeBalance(uint256[],uint256,uint256)":"16a0b3e0","computeInvariant(uint256[],uint8)":"984de9e8","facetFuncs()":"574a4cff","facetInterfaces()":"2ea80826","facetMetadata()":"f10d7a75","facetName()":"5b6f4d01","get2CLPParams()":"f3808f84","getMaximumInvariantRatio()":"273c1adf","getMaximumSwapFeePercentage()":"654cf15d","getMinimumInvariantRatio()":"b677fa56","getMinimumSwapFeePercentage()":"ce20ece7","onSwap((uint8,uint256,uint256[],uint256,uint256,address,bytes))":"72c98186"},"id":865}