{"abi":[{"type":"constructor","inputs":[{"name":"params","type":"tuple","internalType":"struct WeightedPool.NewPoolParams","components":[{"name":"name","type":"string","internalType":"string"},{"name":"symbol","type":"string","internalType":"string"},{"name":"numTokens","type":"uint256","internalType":"uint256"},{"name":"normalizedWeights","type":"uint256[]","internalType":"uint256[]"},{"name":"version","type":"string","internalType":"string"},{"name":"minTokenBalances","type":"uint256[]","internalType":"uint256[]"}]},{"name":"vault","type":"address","internalType":"contract IVault"}],"stateMutability":"nonpayable"},{"type":"function","name":"DOMAIN_SEPARATOR","inputs":[],"outputs":[{"name":"","type":"bytes32","internalType":"bytes32"}],"stateMutability":"view"},{"type":"function","name":"PERMIT_TYPEHASH","inputs":[],"outputs":[{"name":"","type":"bytes32","internalType":"bytes32"}],"stateMutability":"view"},{"type":"function","name":"allowance","inputs":[{"name":"owner","type":"address","internalType":"address"},{"name":"spender","type":"address","internalType":"address"}],"outputs":[{"name":"","type":"uint256","internalType":"uint256"}],"stateMutability":"view"},{"type":"function","name":"approve","inputs":[{"name":"spender","type":"address","internalType":"address"},{"name":"amount","type":"uint256","internalType":"uint256"}],"outputs":[{"name":"","type":"bool","internalType":"bool"}],"stateMutability":"nonpayable"},{"type":"function","name":"balanceOf","inputs":[{"name":"account","type":"address","internalType":"address"}],"outputs":[{"name":"","type":"uint256","internalType":"uint256"}],"stateMutability":"view"},{"type":"function","name":"computeBalance","inputs":[{"name":"balancesLiveScaled18","type":"uint256[]","internalType":"uint256[]"},{"name":"tokenInIndex","type":"uint256","internalType":"uint256"},{"name":"invariantRatio","type":"uint256","internalType":"uint256"}],"outputs":[{"name":"newBalance","type":"uint256","internalType":"uint256"}],"stateMutability":"view"},{"type":"function","name":"computeInvariant","inputs":[{"name":"balancesLiveScaled18","type":"uint256[]","internalType":"uint256[]"},{"name":"rounding","type":"uint8","internalType":"enum Rounding"}],"outputs":[{"name":"","type":"uint256","internalType":"uint256"}],"stateMutability":"view"},{"type":"function","name":"decimals","inputs":[],"outputs":[{"name":"","type":"uint8","internalType":"uint8"}],"stateMutability":"pure"},{"type":"function","name":"eip712Domain","inputs":[],"outputs":[{"name":"fields","type":"bytes1","internalType":"bytes1"},{"name":"name","type":"string","internalType":"string"},{"name":"version","type":"string","internalType":"string"},{"name":"chainId","type":"uint256","internalType":"uint256"},{"name":"verifyingContract","type":"address","internalType":"address"},{"name":"salt","type":"bytes32","internalType":"bytes32"},{"name":"extensions","type":"uint256[]","internalType":"uint256[]"}],"stateMutability":"view"},{"type":"function","name":"emitApproval","inputs":[{"name":"owner","type":"address","internalType":"address"},{"name":"spender","type":"address","internalType":"address"},{"name":"amount","type":"uint256","internalType":"uint256"}],"outputs":[],"stateMutability":"nonpayable"},{"type":"function","name":"emitTransfer","inputs":[{"name":"from","type":"address","internalType":"address"},{"name":"to","type":"address","internalType":"address"},{"name":"amount","type":"uint256","internalType":"uint256"}],"outputs":[],"stateMutability":"nonpayable"},{"type":"function","name":"getAggregateFeePercentages","inputs":[],"outputs":[{"name":"aggregateSwapFeePercentage","type":"uint256","internalType":"uint256"},{"name":"aggregateYieldFeePercentage","type":"uint256","internalType":"uint256"}],"stateMutability":"view"},{"type":"function","name":"getCurrentLiveBalances","inputs":[],"outputs":[{"name":"balancesLiveScaled18","type":"uint256[]","internalType":"uint256[]"}],"stateMutability":"view"},{"type":"function","name":"getMaximumInvariantRatio","inputs":[],"outputs":[{"name":"","type":"uint256","internalType":"uint256"}],"stateMutability":"pure"},{"type":"function","name":"getMaximumSwapFeePercentage","inputs":[],"outputs":[{"name":"","type":"uint256","internalType":"uint256"}],"stateMutability":"pure"},{"type":"function","name":"getMinTokenBalances","inputs":[],"outputs":[{"name":"minTokenBalances","type":"uint256[]","internalType":"uint256[]"}],"stateMutability":"view"},{"type":"function","name":"getMinimumInvariantRatio","inputs":[],"outputs":[{"name":"","type":"uint256","internalType":"uint256"}],"stateMutability":"pure"},{"type":"function","name":"getMinimumSwapFeePercentage","inputs":[],"outputs":[{"name":"","type":"uint256","internalType":"uint256"}],"stateMutability":"pure"},{"type":"function","name":"getNormalizedWeights","inputs":[],"outputs":[{"name":"","type":"uint256[]","internalType":"uint256[]"}],"stateMutability":"view"},{"type":"function","name":"getRate","inputs":[],"outputs":[{"name":"","type":"uint256","internalType":"uint256"}],"stateMutability":"pure"},{"type":"function","name":"getStaticSwapFeePercentage","inputs":[],"outputs":[{"name":"","type":"uint256","internalType":"uint256"}],"stateMutability":"view"},{"type":"function","name":"getTokenInfo","inputs":[],"outputs":[{"name":"tokens","type":"address[]","internalType":"contract IERC20[]"},{"name":"tokenInfo","type":"tuple[]","internalType":"struct TokenInfo[]","components":[{"name":"tokenType","type":"uint8","internalType":"enum TokenType"},{"name":"rateProvider","type":"address","internalType":"contract IRateProvider"},{"name":"paysYieldFees","type":"bool","internalType":"bool"}]},{"name":"balancesRaw","type":"uint256[]","internalType":"uint256[]"},{"name":"lastBalancesLiveScaled18","type":"uint256[]","internalType":"uint256[]"}],"stateMutability":"view"},{"type":"function","name":"getTokens","inputs":[],"outputs":[{"name":"tokens","type":"address[]","internalType":"contract IERC20[]"}],"stateMutability":"view"},{"type":"function","name":"getVault","inputs":[],"outputs":[{"name":"","type":"address","internalType":"contract IVault"}],"stateMutability":"view"},{"type":"function","name":"getWeightedPoolDynamicData","inputs":[],"outputs":[{"name":"data","type":"tuple","internalType":"struct WeightedPoolDynamicData","components":[{"name":"balancesLiveScaled18","type":"uint256[]","internalType":"uint256[]"},{"name":"tokenRates","type":"uint256[]","internalType":"uint256[]"},{"name":"staticSwapFeePercentage","type":"uint256","internalType":"uint256"},{"name":"totalSupply","type":"uint256","internalType":"uint256"},{"name":"isPoolInitialized","type":"bool","internalType":"bool"},{"name":"isPoolPaused","type":"bool","internalType":"bool"},{"name":"isPoolInRecoveryMode","type":"bool","internalType":"bool"}]}],"stateMutability":"view"},{"type":"function","name":"getWeightedPoolImmutableData","inputs":[],"outputs":[{"name":"data","type":"tuple","internalType":"struct WeightedPoolImmutableData","components":[{"name":"tokens","type":"address[]","internalType":"contract IERC20[]"},{"name":"decimalScalingFactors","type":"uint256[]","internalType":"uint256[]"},{"name":"normalizedWeights","type":"uint256[]","internalType":"uint256[]"},{"name":"minTokenBalances","type":"uint256[]","internalType":"uint256[]"}]}],"stateMutability":"view"},{"type":"function","name":"incrementNonce","inputs":[],"outputs":[],"stateMutability":"nonpayable"},{"type":"function","name":"name","inputs":[],"outputs":[{"name":"","type":"string","internalType":"string"}],"stateMutability":"view"},{"type":"function","name":"nonces","inputs":[{"name":"owner","type":"address","internalType":"address"}],"outputs":[{"name":"","type":"uint256","internalType":"uint256"}],"stateMutability":"view"},{"type":"function","name":"onSwap","inputs":[{"name":"request","type":"tuple","internalType":"struct PoolSwapParams","components":[{"name":"kind","type":"uint8","internalType":"enum SwapKind"},{"name":"amountGivenScaled18","type":"uint256","internalType":"uint256"},{"name":"balancesScaled18","type":"uint256[]","internalType":"uint256[]"},{"name":"indexIn","type":"uint256","internalType":"uint256"},{"name":"indexOut","type":"uint256","internalType":"uint256"},{"name":"router","type":"address","internalType":"address"},{"name":"userData","type":"bytes","internalType":"bytes"}]}],"outputs":[{"name":"calculatedAmountScaled18","type":"uint256","internalType":"uint256"}],"stateMutability":"view"},{"type":"function","name":"permit","inputs":[{"name":"owner","type":"address","internalType":"address"},{"name":"spender","type":"address","internalType":"address"},{"name":"amount","type":"uint256","internalType":"uint256"},{"name":"deadline","type":"uint256","internalType":"uint256"},{"name":"v","type":"uint8","internalType":"uint8"},{"name":"r","type":"bytes32","internalType":"bytes32"},{"name":"s","type":"bytes32","internalType":"bytes32"}],"outputs":[],"stateMutability":"nonpayable"},{"type":"function","name":"supportsInterface","inputs":[{"name":"interfaceId","type":"bytes4","internalType":"bytes4"}],"outputs":[{"name":"","type":"bool","internalType":"bool"}],"stateMutability":"view"},{"type":"function","name":"symbol","inputs":[],"outputs":[{"name":"","type":"string","internalType":"string"}],"stateMutability":"view"},{"type":"function","name":"totalSupply","inputs":[],"outputs":[{"name":"","type":"uint256","internalType":"uint256"}],"stateMutability":"view"},{"type":"function","name":"transfer","inputs":[{"name":"to","type":"address","internalType":"address"},{"name":"amount","type":"uint256","internalType":"uint256"}],"outputs":[{"name":"","type":"bool","internalType":"bool"}],"stateMutability":"nonpayable"},{"type":"function","name":"transferFrom","inputs":[{"name":"from","type":"address","internalType":"address"},{"name":"to","type":"address","internalType":"address"},{"name":"amount","type":"uint256","internalType":"uint256"}],"outputs":[{"name":"","type":"bool","internalType":"bool"}],"stateMutability":"nonpayable"},{"type":"function","name":"version","inputs":[],"outputs":[{"name":"","type":"string","internalType":"string"}],"stateMutability":"view"},{"type":"event","name":"Approval","inputs":[{"name":"owner","type":"address","indexed":true,"internalType":"address"},{"name":"spender","type":"address","indexed":true,"internalType":"address"},{"name":"amount","type":"uint256","indexed":false,"internalType":"uint256"}],"anonymous":false},{"type":"event","name":"EIP712DomainChanged","inputs":[],"anonymous":false},{"type":"event","name":"Transfer","inputs":[{"name":"from","type":"address","indexed":true,"internalType":"address"},{"name":"to","type":"address","indexed":true,"internalType":"address"},{"name":"amount","type":"uint256","indexed":false,"internalType":"uint256"}],"anonymous":false},{"type":"error","name":"BaseOutOfBounds","inputs":[]},{"type":"error","name":"ERC2612ExpiredSignature","inputs":[{"name":"deadline","type":"uint256","internalType":"uint256"}]},{"type":"error","name":"ERC2612InvalidSigner","inputs":[{"name":"signer","type":"address","internalType":"address"},{"name":"owner","type":"address","internalType":"address"}]},{"type":"error","name":"ExponentOutOfBounds","inputs":[]},{"type":"error","name":"InputLengthMismatch","inputs":[]},{"type":"error","name":"InvalidAccountNonce","inputs":[{"name":"account","type":"address","internalType":"address"},{"name":"currentNonce","type":"uint256","internalType":"uint256"}]},{"type":"error","name":"InvalidExponent","inputs":[]},{"type":"error","name":"InvalidMinTokenBalance","inputs":[]},{"type":"error","name":"InvalidToken","inputs":[]},{"type":"error","name":"MaxInRatio","inputs":[]},{"type":"error","name":"MaxOutRatio","inputs":[]},{"type":"error","name":"MinWeight","inputs":[]},{"type":"error","name":"NormalizedWeightInvariant","inputs":[]},{"type":"error","name":"ProductOutOfBounds","inputs":[]},{"type":"error","name":"SenderIsNotVault","inputs":[{"name":"sender","type":"address","internalType":"address"}]},{"type":"error","name":"TokenBalanceBelowMin","inputs":[{"name":"tokenIndex","type":"uint256","internalType":"uint256"},{"name":"actualBalance","type":"uint256","internalType":"uint256"},{"name":"minBalance","type":"uint256","internalType":"uint256"}]},{"type":"error","name":"WeightedPoolBptRateUnsupported","inputs":[]},{"type":"error","name":"ZeroDivision","inputs":[]},{"type":"error","name":"ZeroInvariant","inputs":[]}],"bytecode":{"object":"0x610320604052348015610010575f5ffd5b5060405161496438038061496483398101604081905261002f91610455565b81608001518182845f015185602001518282604051806040016040528060018152602001603160f81b815250815f90816100699190610607565b5060016100768282610607565b508151602092830120608052805191012060a0526001600160a01b031660c05260036100a28382610607565b5060046100af8282610607565b505050506001600160a01b031660e0526100c8816102b4565b5060408201516101008190526060830151516100e491906102c4565b5f805b610100518160ff161015610283575f84606001518260ff168151811061010f5761010f6106c1565b60200260200101519050662386f26fc100008110156101415760405163bd39358360e01b815260040160405180910390fd5b61014b81846106e9565b92505f8560a001518360ff1681518110610167576101676106c1565b60200260200101519050620f424081101561019557604051633bdab6b560e21b815260040160405180910390fd5b8260ff165f036101b057610120829052610220819052610270565b8260ff166001036101cc57610140829052610240819052610270565b8260ff166002036101e857610160829052610260819052610270565b8260ff1660030361020457610180829052610280819052610270565b8260ff16600403610220576101a08290526102a0819052610270565b8260ff1660050361023c576101c08290526102c0819052610270565b8260ff16600603610258576101e08290526102e0819052610270565b8260ff16600703610270576102008290526103008190525b50508061027c90610702565b90506100e7565b50670de0b6b3a764000081146102ac57604051631ce788a760e11b815260040160405180910390fd5b505050610720565b60056102c08282610607565b5050565b8082146102c05760405163aaad13f760e01b815260040160405180910390fd5b634e487b7160e01b5f52604160045260245ffd5b60405160c081016001600160401b038111828210171561031a5761031a6102e4565b60405290565b604051601f8201601f191681016001600160401b0381118282101715610348576103486102e4565b604052919050565b5f82601f83011261035f575f5ffd5b81516001600160401b03811115610378576103786102e4565b61038b601f8201601f1916602001610320565b81815284602083860101111561039f575f5ffd5b8160208501602083015e5f918101602001919091529392505050565b5f82601f8301126103ca575f5ffd5b81516001600160401b038111156103e3576103e36102e4565b8060051b6103f360208201610320565b9182526020818501810192908101908684111561040e575f5ffd5b6020860192505b83831015610430578251825260209283019290910190610415565b9695505050505050565b80516001600160a01b0381168114610450575f5ffd5b919050565b5f5f60408385031215610466575f5ffd5b82516001600160401b0381111561047b575f5ffd5b830160c0818603121561048c575f5ffd5b6104946102f8565b81516001600160401b038111156104a9575f5ffd5b6104b587828501610350565b82525060208201516001600160401b038111156104d0575f5ffd5b6104dc87828501610350565b6020830152506040828101519082015260608201516001600160401b03811115610504575f5ffd5b610510878285016103bb565b60608301525060808201516001600160401b0381111561052e575f5ffd5b61053a87828501610350565b60808301525060a08201516001600160401b03811115610558575f5ffd5b610564878285016103bb565b60a083015250925061057a90506020840161043a565b90509250929050565b600181811c9082168061059757607f821691505b6020821081036105b557634e487b7160e01b5f52602260045260245ffd5b50919050565b601f82111561060257805f5260205f20601f840160051c810160208510156105e05750805b601f840160051c820191505b818110156105ff575f81556001016105ec565b50505b505050565b81516001600160401b03811115610620576106206102e4565b6106348161062e8454610583565b846105bb565b6020601f821160018114610666575f831561064f5750848201515b5f19600385901b1c1916600184901b1784556105ff565b5f84815260208120601f198516915b828110156106955787850151825560209485019460019092019101610675565b50848210156106b257868401515f19600387901b60f8161c191681555b50505050600190811b01905550565b634e487b7160e01b5f52603260045260245ffd5b634e487b7160e01b5f52601160045260245ffd5b808201808211156106fc576106fc6106d5565b92915050565b5f60ff821660ff8103610717576107176106d5565b60010192915050565b60805160a05160c05160e05161010051610120516101405161016051610180516101a0516101c0516101e05161020051610220516102405161026051610280516102a0516102c0516102e051610300516140026109625f395f818161170301528181611dc7015281816123dc015261243b01525f81816116dc01528181611d7e01528181612337015261239601525f81816116ad01528181611d350152818161229201526122f101525f818161167e01528181611cec015281816121ed015261224c01525f818161164f01528181611ca30152818161214801526121a701525f818161162001528181611c500152818161209a01526120f901525f81816115f101528181611c0701528181611ff5015261205401525f81816115c201528181611bc801528181611f5f0152611fb801525f818161151d0152611aab01525f81816114ee0152611a6201525f81816114bf0152611a1901525f818161149001526119d001525f8181611461015261198701525f8181611432015261193501525f818161140301526118ec01525f81816113d401526118ad01525f61184801525f8181610b3a01528181610ce601528181610d6401528181610e17015261115d01525f81816103650152818161051701528181610610015281816106bf015281816107db0152818161086a0152818161099d01528181610c9301528181610ee501528181610f7401528181611007015281816110a60152818161128e0152818161134d0152818161175a0152611af201525f6117f401525f6117cc01526140025ff3fe608060405234801561000f575f5ffd5b50600436106101b5575f3560e01c806301ffc9a7146101b957806306fdde03146101f2578063095ea7b31461020757806316a0b3e01461021a57806318160ddd1461023b57806323b872dd1461024357806323de665114610256578063273c1adf1461026b57806330adf81f14610279578063313ce5671461028d5780633644e5151461029c57806353b79bd7146102a457806354fd4d50146102b95780635687f2b8146102c1578063627cdcb9146102d4578063654cf15d146102dc578063679aefce146102ea57806370a08231146102f257806372c98186146103055780637ecebe001461031857806381fa807c1461032b57806384b0196e146103485780638d928af81461036357806395d89b4114610391578063984de9e814610399578063a9059cbb146103ac578063aa6ca808146103bf578063abb1dc44146103d4578063b156aa0a146103ec578063b677fa5614610401578063c0bc6f331461040f578063ce20ece714610424578063d335b0cf14610430578063d505accf14610438578063d67f280b1461044b578063dd62ed3e14610453578063f89f27ed14610466575b5f5ffd5b6101dd6101c736600461321c565b6001600160e01b0319166301ffc9a760e01b1490565b60405190151581526020015b60405180910390f35b6101fa61046e565b6040516101e99190613271565b6101dd6102153660046132a2565b6104fe565b61022d610228366004613409565b61059c565b6040519081526020016101e9565b61022d6105f7565b6101dd610251366004613452565b610689565b610269610264366004613452565b610736565b005b6729a2241af62c000061022d565b61022d5f516020613fad5f395f51905f5281565b604051601281526020016101e9565b61022d610790565b6102ac610799565b6040516101e991906134ca565b6101fa610903565b6102696102cf366004613452565b610912565b61026961095f565b67016345785d8a000061022d565b61022d61096b565b61022d610300366004613576565b610984565b61022d610313366004613613565b610a13565b61022d610326366004613576565b610b18565b610333610b35565b604080519283526020830191909152016101e9565b610350610bd9565b6040516101e997969594939291906136e7565b7f00000000000000000000000000000000000000000000000000000000000000006040516101e99190613748565b6101fa610c1b565b61022d6103a736600461375c565b610c2a565b6101dd6103ba3660046132a2565b610c7a565b6103c7610ccc565b6040516101e991906137e3565b6103dc610d5c565b6040516101e99493929190613809565b6103f4610dfd565b6040516101e991906138ca565b6709b6e64a8ec6000061022d565b610417610e8d565b6040516101e991906138dc565b6509184e72a00061022d565b61022d611144565b61026961044636600461395a565b611192565b6103f4611314565b61022d6104613660046139cb565b61131e565b6103f46113bf565b60606003805461047d906139f7565b80601f01602080910402602001604051908101604052809291908181526020018280546104a9906139f7565b80156104f45780601f106104cb576101008083540402835291602001916104f4565b820191905f5260205f20905b8154815290600101906020018083116104d757829003601f168201915b5050505050905090565b60405163e1f21c6760e01b81525f906001600160a01b037f0000000000000000000000000000000000000000000000000000000000000000169063e1f21c679061055090339087908790600401613a2f565b6020604051808303815f875af115801561056c573d5f5f3e3d5ffd5b505050506040513d601f19601f820116820180604052508101906105909190613a62565b50600190505b92915050565b5f5f8484815181106105b0576105b0613a7b565b602002602001015190506105cd816105c7866113c9565b8561155f565b91508181116105e5576105e084826115b7565b6105ef565b6105ef84836115b7565b509392505050565b6040516339370aa960e21b81525f906001600160a01b037f0000000000000000000000000000000000000000000000000000000000000000169063e4dc2aa490610645903090600401613748565b602060405180830381865afa158015610660573d5f5f3e3d5ffd5b505050506040513d601f19601f820116820180604052508101906106849190613a8f565b905090565b604051630aed65f560e11b81523360048201526001600160a01b0384811660248301528381166044830152606482018390525f917f0000000000000000000000000000000000000000000000000000000000000000909116906315dacbea906084016020604051808303815f875af1158015610707573d5f5f3e3d5ffd5b505050506040513d601f19601f8201168201806040525081019061072b9190613a62565b506001949350505050565b61073e61174f565b816001600160a01b0316836001600160a01b03167fddf252ad1be2c89b69c2b068fc378daa952ba7f163c4a11628f55a4df523b3ef8360405161078391815260200190565b60405180910390a3505050565b5f61068461179c565b6107c46040518060800160405280606081526020016060815260200160608152602001606081525090565b60405163ca4f280360e01b81526001600160a01b037f0000000000000000000000000000000000000000000000000000000000000000169063ca4f280390610810903090600401613748565b5f60405180830381865afa15801561082a573d5f5f3e3d5ffd5b505050506040513d5f823e601f3d908101601f191682016040526108519190810190613b0a565b8152604051633f1b0def60e11b81526001600160a01b037f00000000000000000000000000000000000000000000000000000000000000001690637e361bde9061089f903090600401613748565b5f60405180830381865afa1580156108b9573d5f5f3e3d5ffd5b505050506040513d5f823e601f3d908101601f191682016040526108e09190810190613b96565b5060208201526108ee611844565b60408201526108fb611aed565b606082015290565b60606005805461047d906139f7565b61091a61174f565b816001600160a01b0316836001600160a01b03167f8c5be1e5ebec7d5bd14f71427d1e84f3dd0314c0f7b2291e5b200ac8c7c3b9258360405161078391815260200190565b61096833611e0a565b50565b5f60405162c73cd160e51b815260040160405180910390fd5b604051633de222bb60e21b81525f906001600160a01b037f0000000000000000000000000000000000000000000000000000000000000000169063f7888aec906109d49030908690600401613bfb565b602060405180830381865afa1580156109ef573d5f5f3e3d5ffd5b505050506040513d601f19601f820116820180604052508101906105969190613a8f565b5f5f8260400151836060015181518110610a2f57610a2f613a7b565b60200260200101516001610a439190613c29565b90505f8360400151846080015181518110610a6057610a60613a7b565b602002602001015190505f610a798560600151846115b7565b5f85516001811115610a8d57610a8d6137f5565b03610ac557610abb83610aa387606001516113c9565b84610ab189608001516113c9565b8960200151611e2c565b9350839050610af8565b610aee83610ad687606001516113c9565b84610ae489608001516113c9565b8960200151611ebb565b9350846020015190505b6080850151610b1090610b0b8385613c3c565b6115b7565b505050919050565b6001600160a01b0381165f90815260026020526040812054610596565b5f5f5f7f00000000000000000000000000000000000000000000000000000000000000006001600160a01b031663f29486a1306040518263ffffffff1660e01b8152600401610b849190613748565b6101a060405180830381865afa158015610ba0573d5f5f3e3d5ffd5b505050506040513d601f19601f82011682018060405250810190610bc49190613cf3565b90508060400151925080606001519150509091565b5f6060805f5f5f6060610bea611f3e565b610bf2611f4c565b604080515f80825260208201909252600f60f81b9b939a50919850469750309650945092509050565b60606004805461047d906139f7565b5f610c3483611f5b565b6132145f836001811115610c4a57610c4a6137f5565b14610c5757612476610c5b565b6125045b9050610c72610c68611844565b858363ffffffff16565b949350505050565b6040516317d5759960e31b81525f906001600160a01b037f0000000000000000000000000000000000000000000000000000000000000000169063beabacc89061055090339087908790600401613a2f565b60405163ca4f280360e01b81526060906001600160a01b037f0000000000000000000000000000000000000000000000000000000000000000169063ca4f280390610d1b903090600401613748565b5f60405180830381865afa158015610d35573d5f5f3e3d5ffd5b505050506040513d5f823e601f3d908101601f191682016040526106849190810190613b0a565b6060806060807f00000000000000000000000000000000000000000000000000000000000000006001600160a01b03166367e0e076306040518263ffffffff1660e01b8152600401610dae9190613748565b5f60405180830381865afa158015610dc8573d5f5f3e3d5ffd5b505050506040513d5f823e601f3d908101601f19168201604052610def9190810190613dac565b935093509350935090919293565b6040516329ae7ec560e11b81526060906001600160a01b037f0000000000000000000000000000000000000000000000000000000000000000169063535cfd8a90610e4c903090600401613748565b5f60405180830381865afa158015610e66573d5f5f3e3d5ffd5b505050506040513d5f823e601f3d908101601f191682016040526106849190810190613f07565b610ece6040518060e0016040528060608152602001606081526020015f81526020015f81526020015f151581526020015f151581526020015f151581525090565b6040516329ae7ec560e11b81526001600160a01b037f0000000000000000000000000000000000000000000000000000000000000000169063535cfd8a90610f1a903090600401613748565b5f60405180830381865afa158015610f34573d5f5f3e3d5ffd5b505050506040513d5f823e601f3d908101601f19168201604052610f5b9190810190613f07565b8152604051633f1b0def60e11b81526001600160a01b037f00000000000000000000000000000000000000000000000000000000000000001690637e361bde90610fa9903090600401613748565b5f60405180830381865afa158015610fc3573d5f5f3e3d5ffd5b505050506040513d5f823e601f3d908101601f19168201604052610fea9190810190613b96565b60208301525060405163b45090f960e01b81526001600160a01b037f0000000000000000000000000000000000000000000000000000000000000000169063b45090f99061103c903090600401613748565b602060405180830381865afa158015611057573d5f5f3e3d5ffd5b505050506040513d601f19601f8201168201806040525081019061107b9190613a8f565b60408201526110886105f7565b606082015260405163f29486a160e01b81525f906001600160a01b037f0000000000000000000000000000000000000000000000000000000000000000169063f29486a1906110db903090600401613748565b6101a060405180830381865afa1580156110f7573d5f5f3e3d5ffd5b505050506040513d601f19601f8201168201806040525081019061111b9190613cf3565b60e081015115156080840152610100810151151560a08401526101200151151560c08301525090565b60405163b45090f960e01b81525f906001600160a01b037f0000000000000000000000000000000000000000000000000000000000000000169063b45090f990610645903090600401613748565b834211156111bb5760405163313c898160e11b8152600481018590526024015b60405180910390fd5b5f5f516020613fad5f395f51905f528888886111d68c611e0a565b6040805160208101969096526001600160a01b0394851690860152929091166060840152608083015260a082015260c0810186905260e0016040516020818303038152906040528051906020012090505f61123082612571565b90505f61123f8287878761259d565b9050896001600160a01b0316816001600160a01b03161461127757808a6040516325c0072360e11b81526004016111b2929190613bfb565b60405163e1f21c6760e01b81526001600160a01b037f0000000000000000000000000000000000000000000000000000000000000000169063e1f21c67906112c7908d908d908d90600401613a2f565b6020604051808303815f875af11580156112e3573d5f5f3e3d5ffd5b505050506040513d601f19601f820116820180604052508101906113079190613a62565b5050505050505050505050565b6060610684611aed565b60405163927da10560e01b81523060048201526001600160a01b03838116602483015282811660448301525f917f00000000000000000000000000000000000000000000000000000000000000009091169063927da10590606401602060405180830381865afa158015611394573d5f5f3e3d5ffd5b505050506040513d601f19601f820116820180604052508101906113b89190613a8f565b9392505050565b6060610684611844565b5f815f036113f857507f0000000000000000000000000000000000000000000000000000000000000000919050565b8160010361142757507f0000000000000000000000000000000000000000000000000000000000000000919050565b8160020361145657507f0000000000000000000000000000000000000000000000000000000000000000919050565b8160030361148557507f0000000000000000000000000000000000000000000000000000000000000000919050565b816004036114b457507f0000000000000000000000000000000000000000000000000000000000000000919050565b816005036114e357507f0000000000000000000000000000000000000000000000000000000000000000919050565b8160060361151257507f0000000000000000000000000000000000000000000000000000000000000000919050565b8160070361154157507f0000000000000000000000000000000000000000000000000000000000000000919050565b60405163c1ab6dc160e01b815260040160405180910390fd5b919050565b5f613214670de0b6b3a7640000831161157a576125b361157e565b6125d35b90505f6115a161159a670de0b6b3a7640000878563ffffffff16565b85906125e7565b90506115ad868261269a565b9695505050505050565b5f825f036115e657507f0000000000000000000000000000000000000000000000000000000000000000611723565b8260010361161557507f0000000000000000000000000000000000000000000000000000000000000000611723565b8260020361164457507f0000000000000000000000000000000000000000000000000000000000000000611723565b8260030361167357507f0000000000000000000000000000000000000000000000000000000000000000611723565b826004036116a257507f0000000000000000000000000000000000000000000000000000000000000000611723565b826005036116d157507f0000000000000000000000000000000000000000000000000000000000000000611723565b8260060361170057507f0000000000000000000000000000000000000000000000000000000000000000611723565b507f00000000000000000000000000000000000000000000000000000000000000005b8082101561174a5782828260405163d63c023360e01b81526004016111b293929190613f38565b505050565b336001600160a01b037f0000000000000000000000000000000000000000000000000000000000000000161461179a573360405163089676d560e01b81526004016111b29190613748565b565b5f610684604080517f8b73c3c69bb8fe3d512ecc4cf759cc79239f7b179b0ffacaa9a75d522b39400f60208201527f0000000000000000000000000000000000000000000000000000000000000000918101919091527f000000000000000000000000000000000000000000000000000000000000000060608201524660808201523060a08201525f9060c00160405160208183030381529060405280519060200120905090565b60607f0000000000000000000000000000000000000000000000000000000000000000806001600160401b0381111561187f5761187f6132cc565b6040519080825280602002602001820160405280156118a8578160200160208202803683370190505b5091507f0000000000000000000000000000000000000000000000000000000000000000825f815181106118de576118de613a7b565b6020026020010181815250507f00000000000000000000000000000000000000000000000000000000000000008260018151811061191e5761191e613a7b565b6020026020010181815250506002811115611978577f00000000000000000000000000000000000000000000000000000000000000008260028151811061196757611967613a7b565b60200260200101818152505061197c565b5090565b6003811115611978577f0000000000000000000000000000000000000000000000000000000000000000826003815181106119b9576119b9613a7b565b6020026020010181815250506004811115611978577f000000000000000000000000000000000000000000000000000000000000000082600481518110611a0257611a02613a7b565b6020026020010181815250506005811115611978577f000000000000000000000000000000000000000000000000000000000000000082600581518110611a4b57611a4b613a7b565b6020026020010181815250506006811115611978577f000000000000000000000000000000000000000000000000000000000000000082600681518110611a9457611a94613a7b565b6020026020010181815250506007811115611978577f000000000000000000000000000000000000000000000000000000000000000082600781518110611add57611add613a7b565b6020026020010181815250505090565b60605f7f00000000000000000000000000000000000000000000000000000000000000006001600160a01b031663ca4f2803306040518263ffffffff1660e01b8152600401611b3c9190613748565b5f60405180830381865afa158015611b56573d5f5f3e3d5ffd5b505050506040513d5f823e601f3d908101601f19168201604052611b7d9190810190613b0a565b8051909150806001600160401b03811115611b9a57611b9a6132cc565b604051908082528060200260200182016040528015611bc3578160200160208202803683370190505b5092507f0000000000000000000000000000000000000000000000000000000000000000835f81518110611bf957611bf9613a7b565b6020026020010181815250507f000000000000000000000000000000000000000000000000000000000000000083600181518110611c3957611c39613a7b565b6020026020010181815250506002811115611c93577f000000000000000000000000000000000000000000000000000000000000000083600281518110611c8257611c82613a7b565b602002602001018181525050611c98565b505090565b6003811115611c93577f000000000000000000000000000000000000000000000000000000000000000083600381518110611cd557611cd5613a7b565b6020026020010181815250506004811115611c93577f000000000000000000000000000000000000000000000000000000000000000083600481518110611d1e57611d1e613a7b565b6020026020010181815250506005811115611c93577f000000000000000000000000000000000000000000000000000000000000000083600581518110611d6757611d67613a7b565b6020026020010181815250506006811115611c93577f000000000000000000000000000000000000000000000000000000000000000083600681518110611db057611db0613a7b565b6020026020010181815250506007811115611c93577f000000000000000000000000000000000000000000000000000000000000000083600781518110611df957611df9613a7b565b602002602001018181525050505090565b6001600160a01b03165f90815260026020526040902080546001810190915590565b5f611e3f86670429d069189e00006126c6565b821115611e5f5760405163340a453360e01b815260040160405180910390fd5b5f611e6a8388613c29565b90505f611e7788836125d3565b90505f611e8488876125b3565b90505f611e9183836125e7565b9050611ead670de0b6b3a76400008281039083100289906126c6565b9a9950505050505050505050565b5f611ece84670429d069189e00006126c6565b821115611eee576040516364590b9f60e01b815260040160405180910390fd5b5f611f03611efc8487613c3c565b86906125d3565b90505f611f1085886125d3565b90505f611f1d83836125e7565b90505f611f32670de0b6b3a764000083613c3c565b9050611ead8a8261269a565b60605f805461047d906139f7565b60606001805461047d906139f7565b80517f0000000000000000000000000000000000000000000000000000000000000000825f83611f8d57611f8d613a7b565b60200260200101511015611ff3575f825f81518110611fae57611fae613a7b565b60200260200101517f000000000000000000000000000000000000000000000000000000000000000060405163d63c023360e01b81526004016111b293929190613f38565b7f00000000000000000000000000000000000000000000000000000000000000008260018151811061202757612027613a7b565b6020026020010151101561208f5760018260018151811061204a5761204a613a7b565b60200260200101517f000000000000000000000000000000000000000000000000000000000000000060405163d63c023360e01b81526004016111b293929190613f38565b6002811115612139577f0000000000000000000000000000000000000000000000000000000000000000826002815181106120cc576120cc613a7b565b60200260200101511015612134576002826002815181106120ef576120ef613a7b565b60200260200101517f000000000000000000000000000000000000000000000000000000000000000060405163d63c023360e01b81526004016111b293929190613f38565b61213d565b5050565b6003811115612139577f00000000000000000000000000000000000000000000000000000000000000008260038151811061217a5761217a613a7b565b602002602001015110156121e25760038260038151811061219d5761219d613a7b565b60200260200101517f000000000000000000000000000000000000000000000000000000000000000060405163d63c023360e01b81526004016111b293929190613f38565b6004811115612139577f00000000000000000000000000000000000000000000000000000000000000008260048151811061221f5761221f613a7b565b602002602001015110156122875760048260048151811061224257612242613a7b565b60200260200101517f000000000000000000000000000000000000000000000000000000000000000060405163d63c023360e01b81526004016111b293929190613f38565b6005811115612139577f0000000000000000000000000000000000000000000000000000000000000000826005815181106122c4576122c4613a7b565b6020026020010151101561232c576005826005815181106122e7576122e7613a7b565b60200260200101517f000000000000000000000000000000000000000000000000000000000000000060405163d63c023360e01b81526004016111b293929190613f38565b6006811115612139577f00000000000000000000000000000000000000000000000000000000000000008260068151811061236957612369613a7b565b602002602001015110156123d15760068260068151811061238c5761238c613a7b565b60200260200101517f000000000000000000000000000000000000000000000000000000000000000060405163d63c023360e01b81526004016111b293929190613f38565b6007811115612139577f00000000000000000000000000000000000000000000000000000000000000008260078151811061240e5761240e613a7b565b602002602001015110156121395760078260078151811061243157612431613a7b565b60200260200101517f000000000000000000000000000000000000000000000000000000000000000060405163d63c023360e01b81526004016111b293929190613f38565b670de0b6b3a76400005f5b83518110156124e3576124d96124d28583815181106124a2576124a2613a7b565b60200260200101518584815181106124bc576124bc613a7b565b60200260200101516126e690919063ffffffff16565b83906126c6565b9150600101612481565b50805f0361059657604051632654368960e01b815260040160405180910390fd5b670de0b6b3a76400005f5b83518110156124e35761256761256085838151811061253057612530613a7b565b602002602001015185848151811061254a5761254a613a7b565b60200260200101516125e790919063ffffffff16565b839061269a565b915060010161250f565b5f61059661257d61179c565b8360405161190160f01b8152600281019290925260228201526042902090565b5f6125aa85858585612792565b95945050505050565b5f806125c7670de0b6b3a764000085613f4e565b9050610c728382613f79565b5f6113b883670de0b6b3a7640000846127d7565b5f670de0b6b3a764000082036125fe575081610596565b612611670de0b6b3a76400006002613f4e565b820361262857612621838461269a565b9050610596565b61263b670de0b6b3a76400006004613f4e565b8203612660575f61264c848561269a565b9050612658818261269a565b915050610596565b5f61266b848461281c565b90505f61267a8261271061269a565b612685906001613c29565b90506126918183613c29565b92505050610596565b5f806126a68385613f4e565b90506001670de0b6b3a76400006001830304018115150291505092915050565b5f806126d28385613f4e565b9050610c72670de0b6b3a764000082613f79565b5f670de0b6b3a764000082036126fd575081610596565b612710670de0b6b3a76400006002613f4e565b82036127205761262183846126c6565b612733670de0b6b3a76400006004613f4e565b8203612750575f61274484856126c6565b905061265881826126c6565b5f61275b848461281c565b90505f61276a8261271061269a565b612775906001613c29565b905080821015612789575f92505050610596565b90039050610596565b5f604051855f5260ff851660205283604052826060526020600160805f60015afa5191503d6127c857638baa579f5f526004601cfd5b5f606052604052949350505050565b5f815f036127f857604051630a0c22c760e01b815260040160405180910390fd5b5f6128038486613f4e565b9050600183600183030401811515029150509392505050565b5f815f036128335750670de0b6b3a7640000610596565b825f0361284157505f610596565b60ff83901c15612863576040516211380f60e51b815260040160405180910390fd5b8261287b68056bc75e2d63100000600160fe1b613f79565b831061289a5760405163d831731160e01b815260040160405180910390fd5b825f670c7d713b49da0000831380156128ba5750670f43fc2c04ee000083125b156128f0575f6128c984612952565b9050670de0b6b3a764000080820784020583670de0b6b3a7640000830502019150506128fe565b816128fa84612a6f565b0290505b670de0b6b3a76400009005680238fd42c5cf03ffff19811280159061292c575068070c1cc73b00c800008113155b6129495760405163a2f9f7e360e01b815260040160405180910390fd5b6115ad81612e19565b670de0b6b3a7640000025f806a0c097ce7bc90715b34b9f160241b808401906ec097ce7bc90715b34b9f0fffffffff198501028161299257612992613f65565b0590505f6a0c097ce7bc90715b34b9f160241b82800205905081806a0c097ce7bc90715b34b9f160241b81840205915060038205016a0c097ce7bc90715b34b9f160241b82840205915060058205016a0c097ce7bc90715b34b9f160241b82840205915060078205016a0c097ce7bc90715b34b9f160241b82840205915060098205016a0c097ce7bc90715b34b9f160241b828402059150600b8205016a0c097ce7bc90715b34b9f160241b828402059150600d8205016a0c097ce7bc90715b34b9f160241b828402059150600f82050160020295945050505050565b5f80670de0b6b3a7640000831215612aa657826a0c097ce7bc90715b34b9f160241b81612a9e57612a9e613f65565b059250600190505b5f775803bcc5cb9634ba4cfb2213f784019318ed4dcb6017880f60361b8412612af05772195e54c5dd42177f53a27172fa9ec63026282760241b840593506806f05b59d3b2000000015b6f8bcc0026baae9e45e470190267a230cf60191b8412612b27576b1425982cf597cd205cef7380840593506803782dace9d9000000015b606493840293026e01855144814a7ff805980ff00840008412612b6f576e01855144814a7ff805980ff008400068056bc75e2d63100000850205935068ad78ebc5ac62000000015b6b02df0ab5a80a22c61ab5a7008412612baa576b02df0ab5a80a22c61ab5a70068056bc75e2d6310000085020593506856bc75e2d631000000015b693f1fce3da636ea5cf8508412612be157693f1fce3da636ea5cf85068056bc75e2d631000008502059350682b5e3af16b18800000015b690127fa27722cc06cc5e28412612c1857690127fa27722cc06cc5e268056bc75e2d6310000085020593506815af1d78b58c400000015b68280e60114edb805d038412612c4d5768280e60114edb805d0368056bc75e2d631000008502059350680ad78ebc5ac6200000015b680ebc5fb417461211108412612c7857680ebc5fb4174612111068056bc75e2d631000009485020593015b6808f00f760a4b2db55d8412612cad576808f00f760a4b2db55d68056bc75e2d6310000085020593506802b5e3af16b1880000015b6806f5f17757889379378412612ce2576806f5f177578893793768056bc75e2d63100000850205935068015af1d78b58c40000015b6806248f33704b2866038412612d16576806248f33704b28660368056bc75e2d63100000850205935067ad78ebc5ac620000015b6805c548670b9510e7ac8412612d4a576805c548670b9510e7ac68056bc75e2d6310000085020593506756bc75e2d6310000015b5f68056bc75e2d63100000850168056bc75e2d631000008087030281612d7257612d72613f65565b0590505f68056bc75e2d63100000828002059050818068056bc75e2d63100000818402059150600382050168056bc75e2d63100000828402059150600582050168056bc75e2d63100000828402059150600782050168056bc75e2d63100000828402059150600982050168056bc75e2d63100000828402059150600b8205016002025f606486830105905086612e085780612e0c565b805f035b9998505050505050505050565b5f680238fd42c5cf03ffff198212158015612e3d575068070c1cc73b00c800008213155b612e5a5760405163d4794efd60e01b815260040160405180910390fd5b5f80831215612e6d57825f039250600190505b5f6806f05b59d3b20000008412612eaa57506806f05b59d3b1ffffff199092019172195e54c5dd42177f53a27172fa9ec63026282760241b612ee0565b6803782dace9d90000008412612edc57506803782dace9d8ffffff19909201916b1425982cf597cd205cef7380612ee0565b5060015b6064939093029268056bc75e2d6310000068ad78ebc5ac620000008512612f305768ad78ebc5ac61ffffff199094019368056bc75e2d631000006e01855144814a7ff805980ff008400082020590505b6856bc75e2d6310000008512612f6c576856bc75e2d630ffffff199094019368056bc75e2d631000006b02df0ab5a80a22c61ab5a70082020590505b682b5e3af16b188000008512612fa657682b5e3af16b187fffff199094019368056bc75e2d63100000693f1fce3da636ea5cf85082020590505b6815af1d78b58c4000008512612fe0576815af1d78b58c3fffff199094019368056bc75e2d63100000690127fa27722cc06cc5e282020590505b680ad78ebc5ac6200000851261301957680ad78ebc5ac61fffff199094019368056bc75e2d6310000068280e60114edb805d0382020590505b68056bc75e2d6310000085126130525768056bc75e2d630fffff199094019368056bc75e2d63100000680ebc5fb4174612111082020590505b6802b5e3af16b1880000851261308b576802b5e3af16b187ffff199094019368056bc75e2d631000006808f00f760a4b2db55d82020590505b68015af1d78b58c4000085126130c45768015af1d78b58c3ffff199094019368056bc75e2d631000006806f5f177578893793782020590505b68056bc75e2d631000008581019086906002908280020505918201919050600368056bc75e2d631000008883020505918201919050600468056bc75e2d631000008883020505918201919050600568056bc75e2d631000008883020505918201919050600668056bc75e2d631000008883020505918201919050600768056bc75e2d631000008883020505918201919050600868056bc75e2d631000008883020505918201919050600968056bc75e2d631000008883020505918201919050600a68056bc75e2d631000008883020505918201919050600b68056bc75e2d631000008883020505918201919050600c68056bc75e2d6310000088830205059182019190505f606468056bc75e2d63100000858502058602059050856131e95780613208565b806a0c097ce7bc90715b34b9f160241b8161320657613206613f65565b055b98975050505050505050565b61179a613f98565b5f6020828403121561322c575f5ffd5b81356001600160e01b0319811681146113b8575f5ffd5b5f81518084528060208401602086015e5f602082860101526020601f19601f83011685010191505092915050565b602081525f6113b86020830184613243565b6001600160a01b0381168114610968575f5ffd5b803561155a81613283565b5f5f604083850312156132b3575f5ffd5b82356132be81613283565b946020939093013593505050565b634e487b7160e01b5f52604160045260245ffd5b60405160e081016001600160401b0381118282101715613302576133026132cc565b60405290565b60405161014081016001600160401b0381118282101715613302576133026132cc565b604051606081016001600160401b0381118282101715613302576133026132cc565b604051601f8201601f191681016001600160401b0381118282101715613375576133756132cc565b604052919050565b5f6001600160401b03821115613395576133956132cc565b5060051b60200190565b5f82601f8301126133ae575f5ffd5b81356133c16133bc8261337d565b61334d565b8082825260208201915060208360051b8601019250858311156133e2575f5ffd5b602085015b838110156133ff5780358352602092830192016133e7565b5095945050505050565b5f5f5f6060848603121561341b575f5ffd5b83356001600160401b03811115613430575f5ffd5b61343c8682870161339f565b9660208601359650604090950135949350505050565b5f5f5f60608486031215613464575f5ffd5b833561346f81613283565b9250602084013561347f81613283565b929592945050506040919091013590565b5f8151808452602084019350602083015f5b828110156134c05781518652602095860195909101906001016134a2565b5093949350505050565b60208082528251608083830152805160a084018190525f929190910190829060c08501905b8083101561351b5783516001600160a01b031682526020820191506020840193506001830192506134ef565b506020860151858203601f1901604087015292506135398184613490565b925050506040840151601f198483030160608501526135588282613490565b9150506060840151601f198483030160808501526125aa8282613490565b5f60208284031215613586575f5ffd5b81356113b881613283565b60028110610968575f5ffd5b803561155a81613591565b5f82601f8301126135b7575f5ffd5b81356001600160401b038111156135d0576135d06132cc565b6135e3601f8201601f191660200161334d565b8181528460208386010111156135f7575f5ffd5b816020850160208301375f918101602001919091529392505050565b5f60208284031215613623575f5ffd5b81356001600160401b03811115613638575f5ffd5b820160e08185031215613649575f5ffd5b6136516132e0565b61365a8261359d565b81526020828101359082015260408201356001600160401b0381111561367e575f5ffd5b61368a8682850161339f565b60408301525060608281013590820152608080830135908201526136b060a08301613297565b60a082015260c08201356001600160401b038111156136cd575f5ffd5b6136d9868285016135a8565b60c083015250949350505050565b60ff60f81b8816815260e060208201525f61370560e0830189613243565b82810360408401526137178189613243565b606084018890526001600160a01b038716608085015260a0840186905283810360c08501529050611ead8185613490565b6001600160a01b0391909116815260200190565b5f5f6040838503121561376d575f5ffd5b82356001600160401b03811115613782575f5ffd5b61378e8582860161339f565b925050602083013561379f81613591565b809150509250929050565b5f8151808452602084019350602083015f5b828110156134c05781516001600160a01b03168652602095860195909101906001016137bc565b602081525f6113b860208301846137aa565b634e487b7160e01b5f52602160045260245ffd5b608081525f61381b60808301876137aa565b82810360208401528086518083526020830191506020880192505f5b8181101561389657835180516002811061385f57634e487b7160e01b5f52602160045260245ffd5b84526020818101516001600160a01b0316818601526040918201511515918501919091529390930192606090920191600101613837565b505083810360408501526138aa8187613490565b91505082810360608401526138bf8185613490565b979650505050505050565b602081525f6113b86020830184613490565b602081525f825160e060208401526138f8610100840182613490565b90506020840151601f198483030160408501526139158282613490565b91505060408401516060840152606084015160808401526080840151151560a084015260a0840151151560c084015260c0840151151560e08401528091505092915050565b5f5f5f5f5f5f5f60e0888a031215613970575f5ffd5b873561397b81613283565b9650602088013561398b81613283565b95506040880135945060608801359350608088013560ff811681146139ae575f5ffd5b9699959850939692959460a0840135945060c09093013592915050565b5f5f604083850312156139dc575f5ffd5b82356139e781613283565b9150602083013561379f81613283565b600181811c90821680613a0b57607f821691505b602082108103613a2957634e487b7160e01b5f52602260045260245ffd5b50919050565b6001600160a01b039384168152919092166020820152604081019190915260600190565b8051801515811461155a575f5ffd5b5f60208284031215613a72575f5ffd5b6113b882613a53565b634e487b7160e01b5f52603260045260245ffd5b5f60208284031215613a9f575f5ffd5b5051919050565b5f82601f830112613ab5575f5ffd5b8151613ac36133bc8261337d565b8082825260208201915060208360051b860101925085831115613ae4575f5ffd5b602085015b838110156133ff578051613afc81613283565b835260209283019201613ae9565b5f60208284031215613b1a575f5ffd5b81516001600160401b03811115613b2f575f5ffd5b610c7284828501613aa6565b5f82601f830112613b4a575f5ffd5b8151613b586133bc8261337d565b8082825260208201915060208360051b860101925085831115613b79575f5ffd5b602085015b838110156133ff578051835260209283019201613b7e565b5f5f60408385031215613ba7575f5ffd5b82516001600160401b03811115613bbc575f5ffd5b613bc885828601613b3b565b602085015190935090506001600160401b03811115613be5575f5ffd5b613bf185828601613b3b565b9150509250929050565b6001600160a01b0392831681529116602082015260400190565b634e487b7160e01b5f52601160045260245ffd5b8082018082111561059657610596613c15565b8181038181111561059657610596613c15565b5f60808284031215613c5f575f5ffd5b604051608081016001600160401b0381118282101715613c8157613c816132cc565b604052905080613c9083613a53565b8152613c9e60208401613a53565b6020820152613caf60408401613a53565b6040820152613cc060608401613a53565b60608201525092915050565b805164ffffffffff8116811461155a575f5ffd5b805163ffffffff8116811461155a575f5ffd5b5f6101a0828403128015613d05575f5ffd5b50613d0e613308565b613d188484613c4f565b81526080830151602082015260a0830151604082015260c08301516060820152613d4460e08401613ccc565b6080820152613d566101008401613ce0565b60a0820152613d686101208401613a53565b60c0820152613d7a6101408401613a53565b60e0820152613d8c6101608401613a53565b610100820152613d9f6101808401613a53565b6101208201529392505050565b5f5f5f5f60808587031215613dbf575f5ffd5b84516001600160401b03811115613dd4575f5ffd5b613de087828801613aa6565b602087015190955090506001600160401b03811115613dfd575f5ffd5b8501601f81018713613e0d575f5ffd5b8051613e1b6133bc8261337d565b80828252602082019150602060608402850101925089831115613e3c575f5ffd5b6020840193505b82841015613ea7576060848b031215613e5a575f5ffd5b613e6261332b565b8451613e6d81613591565b81526020850151613e7d81613283565b6020820152613e8e60408601613a53565b6040820152825260609390930192602090910190613e43565b6040890151909650925050506001600160401b03811115613ec6575f5ffd5b613ed287828801613b3b565b606087015190935090506001600160401b03811115613eef575f5ffd5b613efb87828801613b3b565b91505092959194509250565b5f60208284031215613f17575f5ffd5b81516001600160401b03811115613f2c575f5ffd5b610c7284828501613b3b565b9283526020830191909152604082015260600190565b808202811582820484141761059657610596613c15565b634e487b7160e01b5f52601260045260245ffd5b5f82613f9357634e487b7160e01b5f52601260045260245ffd5b500490565b634e487b7160e01b5f52605160045260245ffdfe6e71edae12b1b97f4d1f60370fef10105fa2faae0126114a169c64845d6126c9a264697066735822122008dd36cf6b8f244705a7640ec33309aa56395bc4c1696fd20cd71e9ac4e2fefc64736f6c634300081e0033","linkReferences":{}},"methodIdentifiers":{"DOMAIN_SEPARATOR()":"3644e515","PERMIT_TYPEHASH()":"30adf81f","allowance(address,address)":"dd62ed3e","approve(address,uint256)":"095ea7b3","balanceOf(address)":"70a08231","computeBalance(uint256[],uint256,uint256)":"16a0b3e0","computeInvariant(uint256[],uint8)":"984de9e8","decimals()":"313ce567","eip712Domain()":"84b0196e","emitApproval(address,address,uint256)":"5687f2b8","emitTransfer(address,address,uint256)":"23de6651","getAggregateFeePercentages()":"81fa807c","getCurrentLiveBalances()":"b156aa0a","getMaximumInvariantRatio()":"273c1adf","getMaximumSwapFeePercentage()":"654cf15d","getMinTokenBalances()":"d67f280b","getMinimumInvariantRatio()":"b677fa56","getMinimumSwapFeePercentage()":"ce20ece7","getNormalizedWeights()":"f89f27ed","getRate()":"679aefce","getStaticSwapFeePercentage()":"d335b0cf","getTokenInfo()":"abb1dc44","getTokens()":"aa6ca808","getVault()":"8d928af8","getWeightedPoolDynamicData()":"c0bc6f33","getWeightedPoolImmutableData()":"53b79bd7","incrementNonce()":"627cdcb9","name()":"06fdde03","nonces(address)":"7ecebe00","onSwap((uint8,uint256,uint256[],uint256,uint256,address,bytes))":"72c98186","permit(address,address,uint256,uint256,uint8,bytes32,bytes32)":"d505accf","supportsInterface(bytes4)":"01ffc9a7","symbol()":"95d89b41","totalSupply()":"18160ddd","transfer(address,uint256)":"a9059cbb","transferFrom(address,address,uint256)":"23b872dd","version()":"54fd4d50"},"id":193}