{"abi":[{"type":"receive","stateMutability":"payable"},{"type":"function","name":"addLiquidityERC4626PoolProportionalHook","inputs":[{"name":"params","type":"tuple","internalType":"struct AddLiquidityHookParams","components":[{"name":"sender","type":"address","internalType":"address"},{"name":"pool","type":"address","internalType":"address"},{"name":"maxAmountsIn","type":"uint256[]","internalType":"uint256[]"},{"name":"minBptAmountOut","type":"uint256","internalType":"uint256"},{"name":"kind","type":"uint8","internalType":"enum AddLiquidityKind"},{"name":"wethIsEth","type":"bool","internalType":"bool"},{"name":"userData","type":"bytes","internalType":"bytes"}]},{"name":"wrapUnderlying","type":"bool[]","internalType":"bool[]"}],"outputs":[{"name":"amountsIn","type":"uint256[]","internalType":"uint256[]"}],"stateMutability":"nonpayable"},{"type":"function","name":"addLiquidityERC4626PoolUnbalancedHook","inputs":[{"name":"params","type":"tuple","internalType":"struct AddLiquidityHookParams","components":[{"name":"sender","type":"address","internalType":"address"},{"name":"pool","type":"address","internalType":"address"},{"name":"maxAmountsIn","type":"uint256[]","internalType":"uint256[]"},{"name":"minBptAmountOut","type":"uint256","internalType":"uint256"},{"name":"kind","type":"uint8","internalType":"enum AddLiquidityKind"},{"name":"wethIsEth","type":"bool","internalType":"bool"},{"name":"userData","type":"bytes","internalType":"bytes"}]},{"name":"wrapUnderlying","type":"bool[]","internalType":"bool[]"}],"outputs":[{"name":"bptAmountOut","type":"uint256","internalType":"uint256"}],"stateMutability":"nonpayable"},{"type":"function","name":"addLiquidityProportionalToERC4626Pool","inputs":[{"name":"pool","type":"address","internalType":"address"},{"name":"wrapUnderlying","type":"bool[]","internalType":"bool[]"},{"name":"maxAmountsIn","type":"uint256[]","internalType":"uint256[]"},{"name":"exactBptAmountOut","type":"uint256","internalType":"uint256"},{"name":"wethIsEth","type":"bool","internalType":"bool"},{"name":"userData","type":"bytes","internalType":"bytes"}],"outputs":[{"name":"","type":"uint256[]","internalType":"uint256[]"}],"stateMutability":"payable"},{"type":"function","name":"addLiquidityUnbalancedToERC4626Pool","inputs":[{"name":"pool","type":"address","internalType":"address"},{"name":"wrapUnderlying","type":"bool[]","internalType":"bool[]"},{"name":"exactAmountsIn","type":"uint256[]","internalType":"uint256[]"},{"name":"minBptAmountOut","type":"uint256","internalType":"uint256"},{"name":"wethIsEth","type":"bool","internalType":"bool"},{"name":"userData","type":"bytes","internalType":"bytes"}],"outputs":[{"name":"bptAmountOut","type":"uint256","internalType":"uint256"}],"stateMutability":"payable"},{"type":"function","name":"facetFuncs","inputs":[],"outputs":[{"name":"funcs","type":"bytes4[]","internalType":"bytes4[]"}],"stateMutability":"pure"},{"type":"function","name":"facetInterfaces","inputs":[],"outputs":[{"name":"interfaces","type":"bytes4[]","internalType":"bytes4[]"}],"stateMutability":"pure"},{"type":"function","name":"facetMetadata","inputs":[],"outputs":[{"name":"name_","type":"string","internalType":"string"},{"name":"interfaces","type":"bytes4[]","internalType":"bytes4[]"},{"name":"functions","type":"bytes4[]","internalType":"bytes4[]"}],"stateMutability":"pure"},{"type":"function","name":"facetName","inputs":[],"outputs":[{"name":"name","type":"string","internalType":"string"}],"stateMutability":"pure"},{"type":"function","name":"getSender","inputs":[],"outputs":[{"name":"","type":"address","internalType":"address"}],"stateMutability":"view"},{"type":"function","name":"queryAddLiquidityProportionalToERC4626Pool","inputs":[{"name":"pool","type":"address","internalType":"address"},{"name":"wrapUnderlying","type":"bool[]","internalType":"bool[]"},{"name":"exactBptAmountOut","type":"uint256","internalType":"uint256"},{"name":"sender","type":"address","internalType":"address"},{"name":"userData","type":"bytes","internalType":"bytes"}],"outputs":[{"name":"","type":"uint256[]","internalType":"uint256[]"}],"stateMutability":"nonpayable"},{"type":"function","name":"queryAddLiquidityUnbalancedToERC4626Pool","inputs":[{"name":"pool","type":"address","internalType":"address"},{"name":"wrapUnderlying","type":"bool[]","internalType":"bool[]"},{"name":"exactAmountsIn","type":"uint256[]","internalType":"uint256[]"},{"name":"sender","type":"address","internalType":"address"},{"name":"userData","type":"bytes","internalType":"bytes"}],"outputs":[{"name":"bptAmountOut","type":"uint256","internalType":"uint256"}],"stateMutability":"nonpayable"},{"type":"function","name":"queryRemoveLiquidityProportionalFromERC4626Pool","inputs":[{"name":"pool","type":"address","internalType":"address"},{"name":"unwrapWrapped","type":"bool[]","internalType":"bool[]"},{"name":"exactBptAmountIn","type":"uint256","internalType":"uint256"},{"name":"sender","type":"address","internalType":"address"},{"name":"userData","type":"bytes","internalType":"bytes"}],"outputs":[{"name":"","type":"uint256[]","internalType":"uint256[]"}],"stateMutability":"nonpayable"},{"type":"function","name":"removeLiquidityERC4626PoolProportionalHook","inputs":[{"name":"params","type":"tuple","internalType":"struct RemoveLiquidityHookParams","components":[{"name":"sender","type":"address","internalType":"address"},{"name":"pool","type":"address","internalType":"address"},{"name":"minAmountsOut","type":"uint256[]","internalType":"uint256[]"},{"name":"maxBptAmountIn","type":"uint256","internalType":"uint256"},{"name":"kind","type":"uint8","internalType":"enum RemoveLiquidityKind"},{"name":"wethIsEth","type":"bool","internalType":"bool"},{"name":"userData","type":"bytes","internalType":"bytes"}]},{"name":"unwrapWrapped","type":"bool[]","internalType":"bool[]"}],"outputs":[{"name":"amountsOut","type":"uint256[]","internalType":"uint256[]"}],"stateMutability":"nonpayable"},{"type":"function","name":"removeLiquidityProportionalFromERC4626Pool","inputs":[{"name":"pool","type":"address","internalType":"address"},{"name":"unwrapWrapped","type":"bool[]","internalType":"bool[]"},{"name":"exactBptAmountIn","type":"uint256","internalType":"uint256"},{"name":"minAmountsOut","type":"uint256[]","internalType":"uint256[]"},{"name":"wethIsEth","type":"bool","internalType":"bool"},{"name":"userData","type":"bytes","internalType":"bytes"}],"outputs":[{"name":"","type":"uint256[]","internalType":"uint256[]"}],"stateMutability":"payable"},{"type":"error","name":"AmountInAboveMax","inputs":[{"name":"tokenIn","type":"address","internalType":"contract IERC20"},{"name":"amountIn","type":"uint256","internalType":"uint256"},{"name":"maxAmountIn","type":"uint256","internalType":"uint256"}]},{"type":"error","name":"AmountOutBelowMin","inputs":[{"name":"tokenOut","type":"address","internalType":"contract IERC20"},{"name":"amountOut","type":"uint256","internalType":"uint256"},{"name":"minAmountOut","type":"uint256","internalType":"uint256"}]},{"type":"error","name":"BufferNotInitialized","inputs":[{"name":"wrappedToken","type":"address","internalType":"contract IERC4626"}]},{"type":"error","name":"EthTransfer","inputs":[]},{"type":"error","name":"FailedCall","inputs":[]},{"type":"error","name":"InputLengthMismatch","inputs":[]},{"type":"error","name":"InsufficientBalance","inputs":[{"name":"balance","type":"uint256","internalType":"uint256"},{"name":"needed","type":"uint256","internalType":"uint256"}]},{"type":"error","name":"InsufficientEth","inputs":[]},{"type":"error","name":"InsufficientPayment","inputs":[{"name":"token","type":"address","internalType":"contract IERC20"}]},{"type":"error","name":"InvalidAddLiquidityKind","inputs":[]},{"type":"error","name":"ReentrancyGuardReentrantCall","inputs":[]},{"type":"error","name":"SenderIsNotVault","inputs":[{"name":"sender","type":"address","internalType":"address"}]},{"type":"error","name":"SwapDeadline","inputs":[]}],"bytecode":{"object":"0x6080604052348015600e575f5ffd5b506133a58061001c5f395ff3fe6080604052600436106100af575f3560e01c806319aceff3146100f357806327bfb13a146101285780632ea80826146101555780634c97a87814610176578063574a4cff146101955780635b6f4d01146101a95780635e01eb5a146101ca578063698cc74b146101eb578063c1da024c1461020a578063c9b8ddb21461021d578063d8a7f9fe1461023c578063e3c3e64f1461024f578063f10d7a7514610262578063f921696e14610285575f5ffd5b366100ef576100bc6102a4565b6001600160a01b0316336001600160a01b0316146100ed576040516302a06efb60e11b815260040160405180910390fd5b005b5f5ffd5b3480156100fe575f5ffd5b5061011261010d366004612607565b6102c2565b60405161011f919061266e565b60405180910390f35b348015610133575f5ffd5b50610147610142366004612607565b61045f565b60405190815260200161011f565b348015610160575f5ffd5b506101696105b3565b60405161011f91906126f4565b348015610181575f5ffd5b50610112610190366004612607565b61060b565b3480156101a0575f5ffd5b506101696106f7565b3480156101b4575f5ffd5b506101bd6108ee565b60405161011f9190612734565b3480156101d5575f5ffd5b506101de610925565b60405161011f9190612746565b3480156101f6575f5ffd5b506101126102053660046128bd565b61092e565b6101476102183660046129a8565b610a4f565b348015610228575f5ffd5b50610147610237366004612a60565b610b8f565b61011261024a366004612add565b610c87565b61011261025d3660046129a8565b610db0565b34801561026d575f5ffd5b50610276610e39565b60405161011f93929190612b62565b348015610290575f5ffd5b5061011261029f3660046128bd565b610e61565b5f6102bd6102b0611059565b546001600160a01b031690565b905090565b60606102cc61107d565b6102d660016110b1565b6102de6110c6565b5f6102e761110c565b90505f610313826102fe6040890160208a01612ba4565b61030b60408a018a612bbf565b905087611128565b5090505f6103308361032b60408a0160208b01612ba4565b6111b2565b90505f6001600160a01b038416634af29ec46103598a856103546020830183612ba4565b6112af565b6040518263ffffffff1660e01b81526004016103759190612c5c565b5f604051808303815f875af1158015610390573d5f5f3e3d5ffd5b505050506040513d5f823e601f3d908101601f191682016040526103b79190810190612d84565b505090505f6040518060800160405280866001600160a01b031681526020018a5f0160208101906103e89190612ba4565b6001600160a01b0316815260200161040660c08c0160a08d01612df1565b151581526020013215151581525090506104338185848b8b8e806040019061042e9190612bbf565b611375565b955061044a61044560208b018b612ba4565b611475565b50505050506104585f6110b1565b9392505050565b5f61046861107d565b61047260016110b1565b61047a6110c6565b5f61048361110c565b90505f61049a826102fe6040890160208a01612ba4565b5090505f6040518060800160405280846001600160a01b03168152602001885f0160208101906104ca9190612ba4565b6001600160a01b031681526020016104e860c08a0160a08b01612df1565b15158152321560209091015290505f610510828461050960408c018c612bbf565b8b8b6114c0565b90506001600160a01b038416634af29ec46105338a846103546020830183612ba4565b6040518263ffffffff1660e01b815260040161054f9190612c5c565b5f604051808303815f875af115801561056a573d5f5f3e3d5ffd5b505050506040513d5f823e601f3d908101601f191682016040526105919190810190612d84565b5095506105a6905061044560208a018a612ba4565b505050506104585f6110b1565b60408051600180825281830190925260609160208083019080368337019050509050633b7bb87360e01b815f815181106105ef576105ef612e0c565b6001600160e01b03199092166020928302919091019091015290565b606061061561107d565b61061f60016110b1565b6106276110c6565b5f61063061110c565b90505f8061065d8361064860408a0160208b01612ba4565b61065560408b018b612bbf565b905088611128565b915091505f61066d8489846115a5565b90505f6040518060800160405280866001600160a01b031681526020018a5f01602081019061069c9190612ba4565b6001600160a01b031681526020016106ba60c08c0160a08d01612df1565b151581526020013215151581525090506106e78185848b8b8e80604001906106e29190612bbf565b61174e565b955050505050506104585f6110b1565b6040805160098082526101408201909252606091602082016101208036833701905050905063c1da024c60e01b815f8151811061073657610736612e0c565b6001600160e01b03199092166020928302919091019091015280516364dc6ed960e11b908290600190811061076d5761076d612e0c565b6001600160e01b031990921660209283029190910190910152805163e3c3e64f60e01b90829060029081106107a4576107a4612e0c565b6001600160e01b031990921660209283029190910190910152805163698cc74b60e01b90829060039081106107db576107db612e0c565b6001600160e01b0319909216602092830291909101909101528051636c53fcff60e11b908290600490811061081257610812612e0c565b6001600160e01b0319909216602092830291909101909101528051637c90b4b760e11b908290600590811061084957610849612e0c565b6001600160e01b03199092166020928302919091019091015280516313dfd89d60e11b908290600690811061088057610880612e0c565b6001600160e01b03199092166020928302919091019091015280516319aceff360e01b90829060079081106108b7576108b7612e0c565b6001600160e01b0319909216602092830291909101909101528051630992f50f60e31b90829060089081106105ef576105ef612e0c565b60408051808201909152601e81527f436f6d706f736974654c69717569646974794552433436323646616365740000602082015290565b5f6102bd611842565b6060825f61093b8261184b565b604080515f808252602082019092529192509061095c908a90895f89611879565b90505f61096761110c565b6001600160a01b031663edfa3568306001600160a01b03166319aceff3858d604051602401610997929190612e52565b60408051808303601f1901815291815260208201805160e094851b6001600160e01b03909116179052519184901b6001600160e01b03191682526109df925090600401612734565b5f604051808303815f875af11580156109fa573d5f5f3e3d5ffd5b505050506040513d5f823e601f3d908101601f19168201604052610a219190810190612ee9565b905080806020019051810190610a379190612f22565b94505050610a4481611987565b505095945050505050565b5f335f610a5b8261184b565b6040805160e0810182523381526001600160a01b038c166020820152908101899052606081018890526001608082015286151560a082015260c081018690529091505f610aa661110c565b6001600160a01b03166348c89491306001600160a01b03166327bfb13a858e604051602401610ad6929190612e52565b60408051808303601f1901815291815260208201805160e094851b6001600160e01b03909116179052519184901b6001600160e01b0319168252610b1e925090600401612734565b5f604051808303815f875af1158015610b39573d5f5f3e3d5ffd5b505050506040513d5f823e601f3d908101601f19168201604052610b609190810190612ee9565b905080806020019051810190610b769190612f53565b94505050610b8381611987565b50509695505050505050565b5f825f610b9b8261184b565b90505f610bac89885f600189611879565b90505f610bb761110c565b6001600160a01b031663edfa3568306001600160a01b03166327bfb13a858d604051602401610be7929190612e52565b60408051808303601f1901815291815260208201805160e094851b6001600160e01b03909116179052519184901b6001600160e01b0319168252610c2f925090600401612734565b5f604051808303815f875af1158015610c4a573d5f5f3e3d5ffd5b505050506040513d5f823e601f3d908101601f19168201604052610c719190810190612ee9565b905080806020019051810190610a379190612f53565b6060335f610c948261184b565b6040805160e0810182523381526001600160a01b038c166020820152908101889052606081018990525f6080820181905287151560a083015260c0820187905291925090610ce061110c565b6001600160a01b03166348c89491306001600160a01b0316634c97a878858e604051602401610d10929190612f7a565b60408051808303601f1901815291815260208201805160e094851b6001600160e01b03909116179052519184901b6001600160e01b0319168252610d58925090600401612734565b5f604051808303815f875af1158015610d73573d5f5f3e3d5ffd5b505050506040513d5f823e601f3d908101601f19168201604052610d9a9190810190612ee9565b905080806020019051810190610b769190612f22565b6060335f610dbd8261184b565b6040805160e0810182523381526001600160a01b038c166020820152908101899052606081018890525f6080820181905287151560a083015260c0820187905291925090610e0961110c565b6001600160a01b03166348c89491306001600160a01b03166319aceff3858e604051602401610d10929190612e52565b6060806060610e466108ee565b9250610e506105b3565b9150610e5a6106f7565b9050909192565b6060825f610e6e8261184b565b90505f610e7961110c565b90505f816001600160a01b031663ca4f28038b6040518263ffffffff1660e01b8152600401610ea89190612746565b5f60405180830381865afa158015610ec2573d5f5f3e3d5ffd5b505050506040513d5f823e601f3d908101601f19168201604052610ee99190810190612fd3565b90505f6040518060e00160405280306001600160a01b031681526020018c6001600160a01b0316815260200183516001600160401b03811115610f2e57610f2e61276e565b604051908082528060200260200182016040528015610f57578160200160208202803683370190505b508152602081018b90526040015f81526020015f151581526020018881525090505f836001600160a01b031663edfa3568306001600160a01b0316634c97a878858f604051602401610faa929190612f7a565b60408051808303601f1901815291815260208201805160e094851b6001600160e01b03909116179052519184901b6001600160e01b0319168252610ff2925090600401612734565b5f604051808303815f875af115801561100d573d5f5f3e3d5ffd5b505050506040513d5f823e601f3d908101601f191682016040526110349190810190612ee9565b90508080602001905181019061104a9190612f22565b965050505050610a4481611987565b7f0e5e42310baee45bff0964e63930bd3ef41981ccc7a033d2803019558bd2313e90565b5f5160206133505f395f51905f52805c9081156110ad57604051633ee5aeb560e01b815260040160405180910390fd5b5050565b5f5160206133505f395f51905f5281815d5050565b6110ce61110c565b6001600160a01b0316336001600160a01b03161461110a573360405163089676d560e01b81526004016111019190612746565b60405180910390fd5b565b5f6102bd611118611059565b600201546001600160a01b031690565b60605f856001600160a01b031663ca4f2803866040518263ffffffff1660e01b81526004016111579190612746565b5f60405180830381865afa158015611171573d5f5f3e3d5ffd5b505050506040513d5f823e601f3d908101601f191682016040526111989190810190612fd3565b9150815190506111a9818585611999565b94509492505050565b60605f836001600160a01b031663ca4f2803846040518263ffffffff1660e01b81526004016111e19190612746565b5f60405180830381865afa1580156111fb573d5f5f3e3d5ffd5b505050506040513d5f823e601f3d908101601f191682016040526112229190810190612fd3565b90505f81516001600160401b0381111561123e5761123e61276e565b604051908082528060200260200182016040528015611267578160200160208202803683370190505b5090505f5b82518110156112a4576001600160801b03801682828151811061129157611291612e0c565b602090810291909101015260010161126c565b509150505b92915050565b6112b761254d565b6040518060c001604052808560200160208101906112d59190612ba4565b6001600160a01b03168152602001836001600160a01b03168152602001848152602001856060013581526020018560800160208101906113159190613062565b600481111561132657611326612c34565b815260200161133860c0870187613080565b8080601f0160208091040260200160405190810160405280939291908181526020018383808284375f920191909152505050915250949350505050565b606086516001600160401b038111156113905761139061276e565b6040519080825280602002602001820160405280156113b9578160200160208202803683370190505b5090505f5b875181101561146957611444898983815181106113dd576113dd612e0c565b60200260200101518984815181106113f7576113f7612e0c565b602002602001015189898681811061141157611411612e0c565b90506020020160208101906114269190612df1565b88888781811061143857611438612e0c565b905060200201356119cb565b82828151811061145657611456612e0c565b60209081029190910101526001016113be565b50979650505050505050565b475f819003611482575050565b7f19c2f6f76e6091adc2e8f63fc8cd9da9e3a8e9d5d1c4ae5d8f8e0f6c7b8a9d005c156114ad575050565b6110ad6001600160a01b03831682611bb0565b606085516001600160401b038111156114db576114db61276e565b604051908082528060200260200182016040528015611504578160200160208202803683370190505b5090505f5b865181101561159a576115758888838151811061152857611528612e0c565b602002602001015188888581811061154257611542612e0c565b9050602002013587878681811061155b5761155b612e0c565b90506020020160208101906115709190612df1565b611c4a565b82828151811061158757611587612e0c565b6020908102919091010152600101611509565b509695505050505050565b60606001600160a01b03841663be7d628a6115c66040860160208701612ba4565b6040518263ffffffff1660e01b81526004016115e29190612746565b602060405180830381865afa1580156115fd573d5f5f3e3d5ffd5b505050506040513d601f19601f8201168201806040525081019061162191906130c2565b156116cd576001600160a01b03841663a07d60406116456040860160208701612ba4565b6116526020870187612ba4565b60608701356116646040890189612bbf565b6040518663ffffffff1660e01b81526004016116849594939291906130dd565b5f604051808303815f875af115801561169f573d5f5f3e3d5ffd5b505050506040513d5f823e601f3d908101601f191682016040526116c69190810190612f22565b9050610458565b836001600160a01b031663214578976116e68585611def565b6040518263ffffffff1660e01b81526004016117029190613136565b5f604051808303815f875af115801561171d573d5f5f3e3d5ffd5b505050506040513d5f823e601f3d908101601f191682016040526117449190810190613193565b5095945050505050565b606086516001600160401b038111156117695761176961276e565b604051908082528060200260200182016040528015611792578160200160208202803683370190505b5090505f5b87518110156114695761181d898983815181106117b6576117b6612e0c565b60200260200101518984815181106117d0576117d0612e0c565b60200260200101518989868181106117ea576117ea612e0c565b90506020020160208101906117ff9190612df1565b88888781811061181157611811612e0c565b90506020020135611f00565b82828151811061182f5761182f612e0c565b6020908102919091010152600101611797565b5f6102bd6120d3565b5f5f6118556120d3565b90506001600160a01b0381166118735761186e836120e5565b600191505b50919050565b6040805160e0810182525f8082526020820181905260609282018390528282018190526080820181905260a082015260c08101919091525f6118b961110c565b905060605f808660048111156118d1576118d1612c34565b036118ea576118e0838a6111b2565b9150869050611924565b60018660048111156118fe576118fe612c34565b0361190b57879150611924565b604051636c02b39560e01b815260040160405180910390fd5b6040518060e00160405280306001600160a01b031681526020018a6001600160a01b0316815260200183815260200182815260200187600481111561196b5761196b612c34565b81525f6020820152604001869052935050505095945050505050565b8015611996576119965f6120e5565b50565b81831415806119a85750808214155b156119c65760405163aaad13f760e01b815260040160405180910390fd5b505050565b5f5f836119d85785611a46565b865160405163257dd7ad60e11b81526001600160a01b0390911690634afbaf5a90611a07908990600401612746565b602060405180830381865afa158015611a22573d5f5f3e3d5ffd5b505050506040513d601f19601f82011682018060405250810190611a4691906131eb565b9050838015611a5c57506001600160a01b038116155b15611a7c57856040516385f4129960e01b81526004016111019190612746565b8660600151611a9957611a99876020015182858a604001516120fa565b8415611b62578315611b5e57865f01516001600160a01b03166343583be56040518060a00160405280600180811115611ad457611ad4612c34565b81526020015f8152602001896001600160a01b03168152602001888152602001868152506040518263ffffffff1660e01b8152600401611b149190613216565b6060604051808303815f875af1158015611b30573d5f5f3e3d5ffd5b505050506040513d601f19601f82011682018060405250810190611b549190613269565b509250611b629050565b8491505b82821115611b89578082846040516323b6a17960e21b815260040161110193929190613294565b86606001516117445760208701516117449082611ba685876132b5565b8a60400151612396565b80471015611bda5760405163cf47918160e01b815247600482015260248101829052604401611101565b5f826001600160a01b0316826040515f6040518083038185875af1925050503d805f8114611c23576040519150601f19603f3d011682016040523d82523d5f602084013e611c28565b606091505b50509050806119c65760405163d6bda27560e01b815260040160405180910390fd5b5f5f82611c575784611cc5565b855160405163257dd7ad60e11b81526001600160a01b0390911690634afbaf5a90611c86908890600401612746565b602060405180830381865afa158015611ca1573d5f5f3e3d5ffd5b505050506040513d601f19601f82011682018060405250810190611cc591906131eb565b9050828015611cdb57506001600160a01b038116155b15611cfb57846040516385f4129960e01b81526004016111019190612746565b8560600151611d1857611d188660200151828689604001516120fa565b828015611d2457505f84115b15611de257855f01516001600160a01b03166343583be56040518060a001604052805f6001811115611d5857611d58612c34565b81526020015f8152602001886001600160a01b031681526020018781526020015f8152506040518263ffffffff1660e01b8152600401611d989190613216565b6060604051808303815f875af1158015611db4573d5f5f3e3d5ffd5b505050506040513d601f19601f82011682018060405250810190611dd89190613269565b9350611de6915050565b8391505b50949350505050565b611df7612584565b6040518060c00160405280846020016020810190611e159190612ba4565b6001600160a01b03168152602090810190611e3290860186612ba4565b6001600160a01b0316815260200184606001358152602001836001600160401b03811115611e6257611e6261276e565b604051908082528060200260200182016040528015611e8b578160200160208202803683370190505b508152602001611ea160a08601608087016132d4565b6003811115611eb257611eb2612c34565b8152602001611ec460c0860186613080565b8080601f0160208091040260200160405190810160405280939291908181526020018383808284375f9201919091525050509152509392505050565b5f5f831561208957865160405163257dd7ad60e11b815287915f916001600160a01b0390911690634afbaf5a90611f3b908590600401612746565b602060405180830381865afa158015611f56573d5f5f3e3d5ffd5b505050506040513d601f19601f82011682018060405250810190611f7a91906131eb565b92508290506001600160a01b038116611fa857816040516385f4129960e01b81526004016111019190612746565b861561208257885f01516001600160a01b03166343583be56040518060a001604052805f6001811115611fdd57611fdd612c34565b815260200160018152602001856001600160a01b031681526020018a8152602001888152506040518263ffffffff1660e01b815260040161201e9190613216565b6060604051808303815f875af115801561203a573d5f5f3e3d5ffd5b505050506040513d601f19601f8201168201806040525081019061205e9190613269565b60608c01519096509150612082905057612082896020015182868c60400151612396565b50506120ac565b84915085905086606001516120ac576120ac876020015182848a60400151612396565b82821015611744578082846040516317bc2f2360e11b815260040161110193929190613294565b5f5160206133305f395f51905f525c90565b5f5160206133305f395f51905f5281815d5050565b5f6121036102a4565b90505f61210e61110c565b90505f612119612507565b90508380156121395750826001600160a01b0316866001600160a01b0316145b15612292578447101561215f5760405163500d4efb60e11b815260040160405180910390fd5b826001600160a01b031663d0e30db0866040518263ffffffff1660e01b81526004015f604051808303818588803b158015612198575f5ffd5b505af11580156121aa573d5f5f3e3d5ffd5b505060405163a9059cbb60e01b81526001600160a01b038716935063a9059cbb92506121dd9150859089906004016132f2565b6020604051808303815f875af11580156121f9573d5f5f3e3d5ffd5b505050506040513d601f19601f8201168201806040525081019061221d91906130c2565b506040516315afd40960e01b81526001600160a01b038316906315afd4099061224c90899089906004016132f2565b6020604051808303815f875af1158015612268573d5f5f3e3d5ffd5b505050506040513d601f19601f8201168201806040525081019061228c9190612f53565b5061238d565b841561238d57806001600160a01b03166336c7851688846122b289612523565b6040516001600160e01b031960e086901b1681526001600160a01b03938416600482015291831660248301528216604482015290891660648201526084015f604051808303815f87803b158015612307575f5ffd5b505af1158015612319573d5f5f3e3d5ffd5b50506040516315afd40960e01b81526001600160a01b03851692506315afd409915061234b90899089906004016132f2565b6020604051808303815f875af1158015612367573d5f5f3e3d5ffd5b505050506040513d601f19601f8201168201806040525081019061238b9190612f53565b505b50505050505050565b8115612501575f6123a56102a4565b90505f6123b061110c565b90508280156123d05750816001600160a01b0316856001600160a01b0316145b156124a05760405163ae63932960e01b81526001600160a01b0382169063ae639329906124059088903090899060040161330b565b5f604051808303815f87803b15801561241c575f5ffd5b505af115801561242e573d5f5f3e3d5ffd5b5050604051632e1a7d4d60e01b8152600481018790526001600160a01b0385169250632e1a7d4d91506024015f604051808303815f87803b158015612471575f5ffd5b505af1158015612483573d5f5f3e3d5ffd5b5061249b925050506001600160a01b03871685611bb0565b6124fe565b60405163ae63932960e01b81526001600160a01b0382169063ae639329906124d09088908a90899060040161330b565b5f604051808303815f87803b1580156124e7575f5ffd5b505af11580156124f9573d5f5f3e3d5ffd5b505050505b50505b50505050565b5f6102bd612513611059565b600101546001600160a01b031690565b5f6112a9825f600160a01b821061253c5761253c612540565b5090565b6335278d125f526004601cfd5b6040805160c0810182525f8082526020820181905260609282018390529181018290529060808201905b8152602001606081525090565b6040805160c0810182525f80825260208201819052918101829052606080820152906080820190612577565b5f60e08284031215611873575f5ffd5b5f5f83601f8401126125d0575f5ffd5b5081356001600160401b038111156125e6575f5ffd5b6020830191508360208260051b8501011115612600575f5ffd5b9250929050565b5f5f5f60408486031215612619575f5ffd5b83356001600160401b0381111561262e575f5ffd5b61263a868287016125b0565b93505060208401356001600160401b03811115612655575f5ffd5b612661868287016125c0565b9497909650939450505050565b602080825282518282018190525f918401906040840190835b818110156126a5578351835260209384019390920191600101612687565b509095945050505050565b5f8151808452602084019350602083015f5b828110156126ea5781516001600160e01b0319168652602095860195909101906001016126c2565b5093949350505050565b602081525f61045860208301846126b0565b5f81518084528060208401602086015e5f602082860101526020601f19601f83011685010191505092915050565b602081525f6104586020830184612706565b6001600160a01b0391909116815260200190565b6001600160a01b0381168114611996575f5ffd5b634e487b7160e01b5f52604160045260245ffd5b604051601f8201601f191681016001600160401b03811182821017156127aa576127aa61276e565b604052919050565b5f6001600160401b038211156127ca576127ca61276e565b5060051b60200190565b8015158114611996575f5ffd5b5f82601f8301126127f0575f5ffd5b81356128036127fe826127b2565b612782565b8082825260208201915060208360051b860101925085831115612824575f5ffd5b602085015b8381101561174457803561283c816127d4565b835260209283019201612829565b5f6001600160401b038211156128625761286261276e565b50601f01601f191660200190565b5f82601f83011261287f575f5ffd5b813561288d6127fe8261284a565b8181528460208386010111156128a1575f5ffd5b816020850160208301375f918101602001919091529392505050565b5f5f5f5f5f60a086880312156128d1575f5ffd5b85356128dc8161275a565b945060208601356001600160401b038111156128f6575f5ffd5b612902888289016127e1565b94505060408601359250606086013561291a8161275a565b915060808601356001600160401b03811115612934575f5ffd5b61294088828901612870565b9150509295509295909350565b5f82601f83011261295c575f5ffd5b813561296a6127fe826127b2565b8082825260208201915060208360051b86010192508583111561298b575f5ffd5b602085015b83811015611744578035835260209283019201612990565b5f5f5f5f5f5f60c087890312156129bd575f5ffd5b86356129c88161275a565b955060208701356001600160401b038111156129e2575f5ffd5b6129ee89828a016127e1565b95505060408701356001600160401b03811115612a09575f5ffd5b612a1589828a0161294d565b945050606087013592506080870135612a2d816127d4565b915060a08701356001600160401b03811115612a47575f5ffd5b612a5389828a01612870565b9150509295509295509295565b5f5f5f5f5f60a08688031215612a74575f5ffd5b8535612a7f8161275a565b945060208601356001600160401b03811115612a99575f5ffd5b612aa5888289016127e1565b94505060408601356001600160401b03811115612ac0575f5ffd5b612acc8882890161294d565b935050606086013561291a8161275a565b5f5f5f5f5f5f60c08789031215612af2575f5ffd5b8635612afd8161275a565b955060208701356001600160401b03811115612b17575f5ffd5b612b2389828a016127e1565b9550506040870135935060608701356001600160401b03811115612b45575f5ffd5b612b5189828a0161294d565b9350506080870135612a2d816127d4565b606081525f612b746060830186612706565b8281036020840152612b8681866126b0565b90508281036040840152612b9a81856126b0565b9695505050505050565b5f60208284031215612bb4575f5ffd5b81356104588161275a565b5f5f8335601e19843603018112612bd4575f5ffd5b8301803591506001600160401b03821115612bed575f5ffd5b6020019150600581901b3603821315612600575f5ffd5b5f8151808452602084019350602083015f5b828110156126ea578151865260209586019590910190600101612c16565b634e487b7160e01b5f52602160045260245ffd5b60058110612c5857612c58612c34565b9052565b602080825282516001600160a01b0390811683830152908301511660408083019190915282015160c060608301525f90612c9960e0840182612c04565b9050606084015160808401526080840151612cb760a0850182612c48565b5060a0840151838203601f190160c0850152612cd38282612706565b95945050505050565b5f82601f830112612ceb575f5ffd5b8151612cf96127fe826127b2565b8082825260208201915060208360051b860101925085831115612d1a575f5ffd5b602085015b83811015611744578051835260209283019201612d1f565b5f82601f830112612d46575f5ffd5b8151612d546127fe8261284a565b818152846020838601011115612d68575f5ffd5b8160208501602083015e5f918101602001919091529392505050565b5f5f5f60608486031215612d96575f5ffd5b83516001600160401b03811115612dab575f5ffd5b612db786828701612cdc565b60208601516040870151919550935090506001600160401b03811115612ddb575f5ffd5b612de786828701612d37565b9150509250925092565b5f60208284031215612e01575f5ffd5b8135610458816127d4565b634e487b7160e01b5f52603260045260245ffd5b5f8151808452602084019350602083015f5b828110156126ea5781511515865260209586019590910190600101612e32565b604080825283516001600160a01b0390811683830152602085015116606083015283015160e060808301525f90612e8d610120840182612c04565b9050606085015160a08401526080850151612eab60c0850182612c48565b5060a0850151151560e084015260c0850151838203603f1901610100850152612ed48282612706565b9150508281036020840152612cd38185612e20565b5f60208284031215612ef9575f5ffd5b81516001600160401b03811115612f0e575f5ffd5b612f1a84828501612d37565b949350505050565b5f60208284031215612f32575f5ffd5b81516001600160401b03811115612f47575f5ffd5b612f1a84828501612cdc565b5f60208284031215612f63575f5ffd5b5051919050565b60048110612c5857612c58612c34565b604080825283516001600160a01b0390811683830152602085015116606083015283015160e060808301525f90612fb5610120840182612c04565b9050606085015160a08401526080850151612eab60c0850182612f6a565b5f60208284031215612fe3575f5ffd5b81516001600160401b03811115612ff8575f5ffd5b8201601f81018413613008575f5ffd5b80516130166127fe826127b2565b8082825260208201915060208360051b850101925086831115613037575f5ffd5b6020840193505b82841015612b9a5783516130518161275a565b82526020938401939091019061303e565b5f60208284031215613072575f5ffd5b813560058110610458575f5ffd5b5f5f8335601e19843603018112613095575f5ffd5b8301803591506001600160401b038211156130ae575f5ffd5b602001915036819003821315612600575f5ffd5b5f602082840312156130d2575f5ffd5b8151610458816127d4565b6001600160a01b038681168252851660208201526040810184905260806060820181905281018290525f6001600160fb1b0383111561311a575f5ffd5b8260051b808560a08501379190910160a0019695505050505050565b6020815260018060a01b03825116602082015260018060a01b036020830151166040820152604082015160608201525f606083015160c0608084015261317f60e0840182612c04565b90506080840151612cb760a0850182612f6a565b5f5f5f606084860312156131a5575f5ffd5b835160208501519093506001600160401b038111156131c2575f5ffd5b6131ce86828701612cdc565b604086015190935090506001600160401b03811115612ddb575f5ffd5b5f602082840312156131fb575f5ffd5b81516104588161275a565b6002811061199657611996612c34565b815160a082019061322681613206565b8252602083015161323681613206565b60208301526040838101516001600160a01b03169083015260608084015190830152608092830151929091019190915290565b5f5f5f6060848603121561327b575f5ffd5b5050815160208301516040909301519094929350919050565b6001600160a01b039390931683526020830191909152604082015260600190565b818103818111156112a957634e487b7160e01b5f52601160045260245ffd5b5f602082840312156132e4575f5ffd5b813560048110610458575f5ffd5b6001600160a01b03929092168252602082015260400190565b6001600160a01b03938416815291909216602082015260408101919091526060019056fe6c17b98ed641627be1f588a5e81d97edc6ddd1b560dfba5b46c2aa2c8ddd0d0085e416c3b4a964332bebb95fdf9a73cb8ded00cbd75143ad03246e01399c4247a2646970667358221220ebc33b8a751dfdc6584374cb0cf9edccb9f51d90ca651acdd7e811cc0286b2b964736f6c634300081e0033","linkReferences":{}},"methodIdentifiers":{"addLiquidityERC4626PoolProportionalHook((address,address,uint256[],uint256,uint8,bool,bytes),bool[])":"19aceff3","addLiquidityERC4626PoolUnbalancedHook((address,address,uint256[],uint256,uint8,bool,bytes),bool[])":"27bfb13a","addLiquidityProportionalToERC4626Pool(address,bool[],uint256[],uint256,bool,bytes)":"e3c3e64f","addLiquidityUnbalancedToERC4626Pool(address,bool[],uint256[],uint256,bool,bytes)":"c1da024c","facetFuncs()":"574a4cff","facetInterfaces()":"2ea80826","facetMetadata()":"f10d7a75","facetName()":"5b6f4d01","getSender()":"5e01eb5a","queryAddLiquidityProportionalToERC4626Pool(address,bool[],uint256,address,bytes)":"698cc74b","queryAddLiquidityUnbalancedToERC4626Pool(address,bool[],uint256[],address,bytes)":"c9b8ddb2","queryRemoveLiquidityProportionalFromERC4626Pool(address,bool[],uint256,address,bytes)":"f921696e","removeLiquidityERC4626PoolProportionalHook((address,address,uint256[],uint256,uint8,bool,bytes),bool[])":"4c97a878","removeLiquidityProportionalFromERC4626Pool(address,bool[],uint256,uint256[],bool,bytes)":"d8a7f9fe"},"id":929}