{"abi":[{"type":"constructor","inputs":[{"name":"vault_","type":"address","internalType":"contract IVault"},{"name":"bptName","type":"string","internalType":"string"},{"name":"bptSymbol","type":"string","internalType":"string"}],"stateMutability":"nonpayable"},{"type":"function","name":"DOMAIN_SEPARATOR","inputs":[],"outputs":[{"name":"","type":"bytes32","internalType":"bytes32"}],"stateMutability":"view"},{"type":"function","name":"PERMIT_TYPEHASH","inputs":[],"outputs":[{"name":"","type":"bytes32","internalType":"bytes32"}],"stateMutability":"view"},{"type":"function","name":"allowance","inputs":[{"name":"owner","type":"address","internalType":"address"},{"name":"spender","type":"address","internalType":"address"}],"outputs":[{"name":"","type":"uint256","internalType":"uint256"}],"stateMutability":"view"},{"type":"function","name":"approve","inputs":[{"name":"spender","type":"address","internalType":"address"},{"name":"amount","type":"uint256","internalType":"uint256"}],"outputs":[{"name":"","type":"bool","internalType":"bool"}],"stateMutability":"nonpayable"},{"type":"function","name":"balanceOf","inputs":[{"name":"account","type":"address","internalType":"address"}],"outputs":[{"name":"","type":"uint256","internalType":"uint256"}],"stateMutability":"view"},{"type":"function","name":"decimals","inputs":[],"outputs":[{"name":"","type":"uint8","internalType":"uint8"}],"stateMutability":"pure"},{"type":"function","name":"eip712Domain","inputs":[],"outputs":[{"name":"fields","type":"bytes1","internalType":"bytes1"},{"name":"name","type":"string","internalType":"string"},{"name":"version","type":"string","internalType":"string"},{"name":"chainId","type":"uint256","internalType":"uint256"},{"name":"verifyingContract","type":"address","internalType":"address"},{"name":"salt","type":"bytes32","internalType":"bytes32"},{"name":"extensions","type":"uint256[]","internalType":"uint256[]"}],"stateMutability":"view"},{"type":"function","name":"emitApproval","inputs":[{"name":"owner","type":"address","internalType":"address"},{"name":"spender","type":"address","internalType":"address"},{"name":"amount","type":"uint256","internalType":"uint256"}],"outputs":[],"stateMutability":"nonpayable"},{"type":"function","name":"emitTransfer","inputs":[{"name":"from","type":"address","internalType":"address"},{"name":"to","type":"address","internalType":"address"},{"name":"amount","type":"uint256","internalType":"uint256"}],"outputs":[],"stateMutability":"nonpayable"},{"type":"function","name":"getRate","inputs":[],"outputs":[{"name":"","type":"uint256","internalType":"uint256"}],"stateMutability":"view"},{"type":"function","name":"getVault","inputs":[],"outputs":[{"name":"","type":"address","internalType":"contract IVault"}],"stateMutability":"view"},{"type":"function","name":"incrementNonce","inputs":[],"outputs":[],"stateMutability":"nonpayable"},{"type":"function","name":"name","inputs":[],"outputs":[{"name":"","type":"string","internalType":"string"}],"stateMutability":"view"},{"type":"function","name":"nonces","inputs":[{"name":"owner","type":"address","internalType":"address"}],"outputs":[{"name":"","type":"uint256","internalType":"uint256"}],"stateMutability":"view"},{"type":"function","name":"permit","inputs":[{"name":"owner","type":"address","internalType":"address"},{"name":"spender","type":"address","internalType":"address"},{"name":"amount","type":"uint256","internalType":"uint256"},{"name":"deadline","type":"uint256","internalType":"uint256"},{"name":"v","type":"uint8","internalType":"uint8"},{"name":"r","type":"bytes32","internalType":"bytes32"},{"name":"s","type":"bytes32","internalType":"bytes32"}],"outputs":[],"stateMutability":"nonpayable"},{"type":"function","name":"supportsInterface","inputs":[{"name":"interfaceId","type":"bytes4","internalType":"bytes4"}],"outputs":[{"name":"","type":"bool","internalType":"bool"}],"stateMutability":"view"},{"type":"function","name":"symbol","inputs":[],"outputs":[{"name":"","type":"string","internalType":"string"}],"stateMutability":"view"},{"type":"function","name":"totalSupply","inputs":[],"outputs":[{"name":"","type":"uint256","internalType":"uint256"}],"stateMutability":"view"},{"type":"function","name":"transfer","inputs":[{"name":"to","type":"address","internalType":"address"},{"name":"amount","type":"uint256","internalType":"uint256"}],"outputs":[{"name":"","type":"bool","internalType":"bool"}],"stateMutability":"nonpayable"},{"type":"function","name":"transferFrom","inputs":[{"name":"from","type":"address","internalType":"address"},{"name":"to","type":"address","internalType":"address"},{"name":"amount","type":"uint256","internalType":"uint256"}],"outputs":[{"name":"","type":"bool","internalType":"bool"}],"stateMutability":"nonpayable"},{"type":"event","name":"Approval","inputs":[{"name":"owner","type":"address","indexed":true,"internalType":"address"},{"name":"spender","type":"address","indexed":true,"internalType":"address"},{"name":"amount","type":"uint256","indexed":false,"internalType":"uint256"}],"anonymous":false},{"type":"event","name":"EIP712DomainChanged","inputs":[],"anonymous":false},{"type":"event","name":"Transfer","inputs":[{"name":"from","type":"address","indexed":true,"internalType":"address"},{"name":"to","type":"address","indexed":true,"internalType":"address"},{"name":"amount","type":"uint256","indexed":false,"internalType":"uint256"}],"anonymous":false},{"type":"error","name":"ERC2612ExpiredSignature","inputs":[{"name":"deadline","type":"uint256","internalType":"uint256"}]},{"type":"error","name":"ERC2612InvalidSigner","inputs":[{"name":"signer","type":"address","internalType":"address"},{"name":"owner","type":"address","internalType":"address"}]},{"type":"error","name":"InvalidAccountNonce","inputs":[{"name":"account","type":"address","internalType":"address"},{"name":"currentNonce","type":"uint256","internalType":"uint256"}]},{"type":"error","name":"SenderIsNotVault","inputs":[{"name":"sender","type":"address","internalType":"address"}]}],"bytecode":{"object":"0x60e060405234801561000f575f5ffd5b506040516111de3803806111de83398101604081905261002e91610141565b6040805180820190915260018152603160f81b6020820152839083905f6100558382610247565b5060016100628282610247565b508151602092830120608052805191012060a0526001600160a01b031660c052600361008e8382610247565b50600461009b8282610247565b50505050610301565b634e487b7160e01b5f52604160045260245ffd5b5f82601f8301126100c7575f5ffd5b81516001600160401b038111156100e0576100e06100a4565b604051601f8201601f19908116603f011681016001600160401b038111828210171561010e5761010e6100a4565b604052818152838201602001851015610125575f5ffd5b8160208501602083015e5f918101602001919091529392505050565b5f5f5f60608486031215610153575f5ffd5b83516001600160a01b0381168114610169575f5ffd5b60208501519093506001600160401b03811115610184575f5ffd5b610190868287016100b8565b604086015190935090506001600160401b038111156101ad575f5ffd5b6101b9868287016100b8565b9150509250925092565b600181811c908216806101d757607f821691505b6020821081036101f557634e487b7160e01b5f52602260045260245ffd5b50919050565b601f82111561024257805f5260205f20601f840160051c810160208510156102205750805b601f840160051c820191505b8181101561023f575f815560010161022c565b50505b505050565b81516001600160401b03811115610260576102606100a4565b6102748161026e84546101c3565b846101fb565b6020601f8211600181146102a6575f831561028f5750848201515b5f19600385901b1c1916600184901b17845561023f565b5f84815260208120601f198516915b828110156102d557878501518255602094850194600190920191016102b5565b50848210156102f257868401515f19600387901b60f8161c191681555b50505050600190811b01905550565b60805160a05160c051610e7b6103635f395f818161032b015281816103c701528181610476015281816105f6015281816106d30152818161071d0152818161085201528181610907015261098401525f610a1e01525f6109f60152610e7b5ff3fe608060405234801561000f575f5ffd5b50600436106100fa575f3560e01c806301ffc9a7146100fe57806306fdde0314610137578063095ea7b31461014c57806318160ddd1461015f57806323b872dd1461017557806323de66511461018857806330adf81f1461019d578063313ce567146101b15780633644e515146101c05780635687f2b8146101c8578063627cdcb9146101db578063679aefce146101e357806370a08231146101eb5780637ecebe00146101fe57806384b0196e146102115780638d928af81461022c57806395d89b4114610241578063a9059cbb14610249578063d505accf1461025c578063dd62ed3e1461026f575b5f5ffd5b61012261010c366004610b34565b6001600160e01b0319166301ffc9a760e01b1490565b60405190151581526020015b60405180910390f35b61013f610282565b60405161012e9190610b89565b61012261015a366004610bb6565b610312565b6101676103ae565b60405190815260200161012e565b610122610183366004610bde565b610440565b61019b610196366004610bde565b6104ed565b005b6101675f516020610e265f395f51905f5281565b6040516012815260200161012e565b610167610547565b61019b6101d6366004610bde565b610550565b61019b61059d565b6101676105a9565b6101676101f9366004610c18565b6105dd565b61016761020c366004610c18565b610672565b61021961068f565b60405161012e9796959493929190610c31565b6102346106d1565b60405161012e9190610cc7565b61013f6106f5565b610122610257366004610bb6565b610704565b61019b61026a366004610cdb565b610756565b61016761027d366004610d48565b6108d8565b60606003805461029190610d79565b80601f01602080910402602001604051908101604052809291908181526020018280546102bd90610d79565b80156103085780601f106102df57610100808354040283529160200191610308565b820191905f5260205f20905b8154815290600101906020018083116102eb57829003601f168201915b5050505050905090565b60405163e1f21c6760e01b81525f906001600160a01b037f0000000000000000000000000000000000000000000000000000000000000000169063e1f21c679061036490339087908790600401610db1565b6020604051808303815f875af1158015610380573d5f5f3e3d5ffd5b505050506040513d601f19601f820116820180604052508101906103a49190610dd5565b5060019392505050565b6040516339370aa960e21b81525f906001600160a01b037f0000000000000000000000000000000000000000000000000000000000000000169063e4dc2aa4906103fc903090600401610cc7565b602060405180830381865afa158015610417573d5f5f3e3d5ffd5b505050506040513d601f19601f8201168201806040525081019061043b9190610df4565b905090565b604051630aed65f560e11b81523360048201526001600160a01b0384811660248301528381166044830152606482018390525f917f0000000000000000000000000000000000000000000000000000000000000000909116906315dacbea906084016020604051808303815f875af11580156104be573d5f5f3e3d5ffd5b505050506040513d601f19601f820116820180604052508101906104e29190610dd5565b506001949350505050565b6104f5610979565b816001600160a01b0316836001600160a01b03167fddf252ad1be2c89b69c2b068fc378daa952ba7f163c4a11628f55a4df523b3ef8360405161053a91815260200190565b60405180910390a3505050565b5f61043b6109c6565b610558610979565b816001600160a01b0316836001600160a01b03167f8c5be1e5ebec7d5bd14f71427d1e84f3dd0314c0f7b2291e5b200ac8c7c3b9258360405161053a91815260200190565b6105a633610a6e565b50565b5f6105b26106d1565b6001600160a01b0316634f037ee7306040518263ffffffff1660e01b81526004016103fc9190610cc7565b604051633de222bb60e21b81525f906001600160a01b037f0000000000000000000000000000000000000000000000000000000000000000169063f7888aec9061062d9030908690600401610e0b565b602060405180830381865afa158015610648573d5f5f3e3d5ffd5b505050506040513d601f19601f8201168201806040525081019061066c9190610df4565b92915050565b6001600160a01b0381165f9081526002602052604081205461066c565b5f6060805f5f5f60606106a0610a90565b6106a8610a9e565b604080515f80825260208201909252600f60f81b9b939a50919850469750309650945092509050565b7f000000000000000000000000000000000000000000000000000000000000000090565b60606004805461029190610d79565b6040516317d5759960e31b81525f906001600160a01b037f0000000000000000000000000000000000000000000000000000000000000000169063beabacc89061036490339087908790600401610db1565b8342111561077f5760405163313c898160e11b8152600481018590526024015b60405180910390fd5b5f5f516020610e265f395f51905f5288888861079a8c610a6e565b6040805160208101969096526001600160a01b0394851690860152929091166060840152608083015260a082015260c0810186905260e0016040516020818303038152906040528051906020012090505f6107f482610aad565b90505f61080382878787610ad9565b9050896001600160a01b0316816001600160a01b03161461083b57808a6040516325c0072360e11b8152600401610776929190610e0b565b60405163e1f21c6760e01b81526001600160a01b037f0000000000000000000000000000000000000000000000000000000000000000169063e1f21c679061088b908d908d908d90600401610db1565b6020604051808303815f875af11580156108a7573d5f5f3e3d5ffd5b505050506040513d601f19601f820116820180604052508101906108cb9190610dd5565b5050505050505050505050565b60405163927da10560e01b81523060048201526001600160a01b03838116602483015282811660448301525f917f00000000000000000000000000000000000000000000000000000000000000009091169063927da10590606401602060405180830381865afa15801561094e573d5f5f3e3d5ffd5b505050506040513d601f19601f820116820180604052508101906109729190610df4565b9392505050565b336001600160a01b037f000000000000000000000000000000000000000000000000000000000000000016146109c4573360405163089676d560e01b81526004016107769190610cc7565b565b5f61043b604080517f8b73c3c69bb8fe3d512ecc4cf759cc79239f7b179b0ffacaa9a75d522b39400f60208201527f0000000000000000000000000000000000000000000000000000000000000000918101919091527f000000000000000000000000000000000000000000000000000000000000000060608201524660808201523060a08201525f9060c00160405160208183030381529060405280519060200120905090565b6001600160a01b03165f90815260026020526040902080546001810190915590565b60605f805461029190610d79565b60606001805461029190610d79565b5f61066c610ab96109c6565b8360405161190160f01b8152600281019290925260228201526042902090565b5f610ae685858585610aef565b95945050505050565b5f604051855f5260ff851660205283604052826060526020600160805f60015afa5191503d610b2557638baa579f5f526004601cfd5b5f606052604052949350505050565b5f60208284031215610b44575f5ffd5b81356001600160e01b031981168114610972575f5ffd5b5f81518084528060208401602086015e5f602082860101526020601f19601f83011685010191505092915050565b602081525f6109726020830184610b5b565b80356001600160a01b0381168114610bb1575f5ffd5b919050565b5f5f60408385031215610bc7575f5ffd5b610bd083610b9b565b946020939093013593505050565b5f5f5f60608486031215610bf0575f5ffd5b610bf984610b9b565b9250610c0760208501610b9b565b929592945050506040919091013590565b5f60208284031215610c28575f5ffd5b61097282610b9b565b60ff60f81b8816815260e060208201525f610c4f60e0830189610b5b565b8281036040840152610c618189610b5b565b606084018890526001600160a01b038716608085015260a0840186905283810360c0850152845180825260208087019350909101905f5b81811015610cb6578351835260209384019390920191600101610c98565b50909b9a5050505050505050505050565b6001600160a01b0391909116815260200190565b5f5f5f5f5f5f5f60e0888a031215610cf1575f5ffd5b610cfa88610b9b565b9650610d0860208901610b9b565b95506040880135945060608801359350608088013560ff81168114610d2b575f5ffd5b9699959850939692959460a0840135945060c09093013592915050565b5f5f60408385031215610d59575f5ffd5b610d6283610b9b565b9150610d7060208401610b9b565b90509250929050565b600181811c90821680610d8d57607f821691505b602082108103610dab57634e487b7160e01b5f52602260045260245ffd5b50919050565b6001600160a01b039384168152919092166020820152604081019190915260600190565b5f60208284031215610de5575f5ffd5b81518015158114610972575f5ffd5b5f60208284031215610e04575f5ffd5b5051919050565b6001600160a01b039283168152911660208201526040019056fe6e71edae12b1b97f4d1f60370fef10105fa2faae0126114a169c64845d6126c9a264697066735822122049c2b3a9fa36be21290f2aa31ca375dbab75278d4d4153e05f4da65062d8120b64736f6c634300081e0033","linkReferences":{}},"methodIdentifiers":{"DOMAIN_SEPARATOR()":"3644e515","PERMIT_TYPEHASH()":"30adf81f","allowance(address,address)":"dd62ed3e","approve(address,uint256)":"095ea7b3","balanceOf(address)":"70a08231","decimals()":"313ce567","eip712Domain()":"84b0196e","emitApproval(address,address,uint256)":"5687f2b8","emitTransfer(address,address,uint256)":"23de6651","getRate()":"679aefce","getVault()":"8d928af8","incrementNonce()":"627cdcb9","name()":"06fdde03","nonces(address)":"7ecebe00","permit(address,address,uint256,uint256,uint8,bytes32,bytes32)":"d505accf","supportsInterface(bytes4)":"01ffc9a7","symbol()":"95d89b41","totalSupply()":"18160ddd","transfer(address,uint256)":"a9059cbb","transferFrom(address,address,uint256)":"23b872dd"},"id":326}