{"abi":[{"type":"function","name":"asset","inputs":[],"outputs":[{"name":"","type":"address","internalType":"address"}],"stateMutability":"view"},{"type":"function","name":"convertToAssets","inputs":[{"name":"shares","type":"uint256","internalType":"uint256"}],"outputs":[{"name":"assets","type":"uint256","internalType":"uint256"}],"stateMutability":"view"},{"type":"function","name":"convertToShares","inputs":[{"name":"assets","type":"uint256","internalType":"uint256"}],"outputs":[{"name":"shares","type":"uint256","internalType":"uint256"}],"stateMutability":"view"},{"type":"function","name":"deposit","inputs":[{"name":"assets","type":"uint256","internalType":"uint256"},{"name":"receiver","type":"address","internalType":"address"}],"outputs":[{"name":"shares","type":"uint256","internalType":"uint256"}],"stateMutability":"nonpayable"},{"type":"function","name":"maxDeposit","inputs":[{"name":"","type":"address","internalType":"address"}],"outputs":[{"name":"maxDeposit_","type":"uint256","internalType":"uint256"}],"stateMutability":"pure"},{"type":"function","name":"maxMint","inputs":[{"name":"","type":"address","internalType":"address"}],"outputs":[{"name":"maxMint_","type":"uint256","internalType":"uint256"}],"stateMutability":"pure"},{"type":"function","name":"maxRedeem","inputs":[{"name":"account","type":"address","internalType":"address"}],"outputs":[{"name":"maxRedeem_","type":"uint256","internalType":"uint256"}],"stateMutability":"view"},{"type":"function","name":"maxWithdraw","inputs":[{"name":"account","type":"address","internalType":"address"}],"outputs":[{"name":"maxWithdraw_","type":"uint256","internalType":"uint256"}],"stateMutability":"view"},{"type":"function","name":"mint","inputs":[{"name":"shares","type":"uint256","internalType":"uint256"},{"name":"receiver","type":"address","internalType":"address"}],"outputs":[{"name":"assets","type":"uint256","internalType":"uint256"}],"stateMutability":"nonpayable"},{"type":"function","name":"previewDeposit","inputs":[{"name":"assets","type":"uint256","internalType":"uint256"}],"outputs":[{"name":"shares","type":"uint256","internalType":"uint256"}],"stateMutability":"view"},{"type":"function","name":"previewMint","inputs":[{"name":"shares","type":"uint256","internalType":"uint256"}],"outputs":[{"name":"assets","type":"uint256","internalType":"uint256"}],"stateMutability":"view"},{"type":"function","name":"previewRedeem","inputs":[{"name":"shares","type":"uint256","internalType":"uint256"}],"outputs":[{"name":"assets","type":"uint256","internalType":"uint256"}],"stateMutability":"view"},{"type":"function","name":"previewWithdraw","inputs":[{"name":"assets","type":"uint256","internalType":"uint256"}],"outputs":[{"name":"shares","type":"uint256","internalType":"uint256"}],"stateMutability":"view"},{"type":"function","name":"redeem","inputs":[{"name":"shares","type":"uint256","internalType":"uint256"},{"name":"receiver","type":"address","internalType":"address"},{"name":"owner","type":"address","internalType":"address"}],"outputs":[{"name":"assets","type":"uint256","internalType":"uint256"}],"stateMutability":"nonpayable"},{"type":"function","name":"totalAssets","inputs":[],"outputs":[{"name":"","type":"uint256","internalType":"uint256"}],"stateMutability":"view"},{"type":"function","name":"withdraw","inputs":[{"name":"assets","type":"uint256","internalType":"uint256"},{"name":"receiver","type":"address","internalType":"address"},{"name":"owner","type":"address","internalType":"address"}],"outputs":[{"name":"shares","type":"uint256","internalType":"uint256"}],"stateMutability":"nonpayable"},{"type":"event","name":"Approval","inputs":[{"name":"owner","type":"address","indexed":true,"internalType":"address"},{"name":"spender","type":"address","indexed":true,"internalType":"address"},{"name":"amount","type":"uint256","indexed":false,"internalType":"uint256"}],"anonymous":false},{"type":"event","name":"Deposit","inputs":[{"name":"sender","type":"address","indexed":true,"internalType":"address"},{"name":"owner","type":"address","indexed":true,"internalType":"address"},{"name":"assets","type":"uint256","indexed":false,"internalType":"uint256"},{"name":"shares","type":"uint256","indexed":false,"internalType":"uint256"}],"anonymous":false},{"type":"event","name":"Transfer","inputs":[{"name":"from","type":"address","indexed":true,"internalType":"address"},{"name":"to","type":"address","indexed":true,"internalType":"address"},{"name":"amount","type":"uint256","indexed":false,"internalType":"uint256"}],"anonymous":false},{"type":"event","name":"Withdraw","inputs":[{"name":"sender","type":"address","indexed":true,"internalType":"address"},{"name":"receiver","type":"address","indexed":true,"internalType":"address"},{"name":"owner","type":"address","indexed":true,"internalType":"address"},{"name":"assets","type":"uint256","indexed":false,"internalType":"uint256"},{"name":"shares","type":"uint256","indexed":false,"internalType":"uint256"}],"anonymous":false},{"type":"error","name":"ERC20InsufficientAllowance","inputs":[{"name":"spender","type":"address","internalType":"address"},{"name":"allowance","type":"uint256","internalType":"uint256"},{"name":"needed","type":"uint256","internalType":"uint256"}]},{"type":"error","name":"ERC20InvalidSpender","inputs":[{"name":"spender","type":"address","internalType":"address"}]},{"type":"error","name":"ERC4626TransferNotReceived","inputs":[{"name":"expected","type":"uint256","internalType":"uint256"},{"name":"actual","type":"uint256","internalType":"uint256"}]},{"type":"error","name":"IsLocked","inputs":[]}],"bytecode":{"object":"0x6080604052348015600e575f5ffd5b506114008061001c5f395ff3fe608060405234801561000f575f5ffd5b50600436106100ce575f3560e01c806301e1d114146100d257806307a2d13a146100ed5780630a28a4771461010057806338d52e0f14610113578063402d267d146101285780634cdad5061461013c5780636e553f651461014f57806394bf804d14610162578063b3d7f6b914610175578063b460af9414610188578063ba0876521461019b578063c63d75b614610128578063c6e6f592146101ae578063ce96cb77146101c1578063d905777e146101d4578063ef8b30f7146101e7575b5f5ffd5b6100da6101fa565b6040519081526020015b60405180910390f35b6100da6100fb3660046110d2565b610208565b6100da61010e3660046110d2565b61024a565b61011b61027c565b6040516100e491906110e9565b6100da610136366004611118565b505f1990565b6100da61014a3660046110d2565b610285565b6100da61015d366004611131565b6102aa565b6100da610170366004611131565b610369565b6100da6101833660046110d2565b610420565b6100da61019636600461115b565b610445565b6100da6101a936600461115b565b6105d3565b6100da6101bc3660046110d2565b610744565b6100da6101cf366004611118565b610778565b6100da6101e2366004611118565b6107a9565b6100da6101f53660046110d2565b6107b3565b5f6102036107d8565b905090565b5f5f6102126107ea565b90505f610220826001015490565b90505f61022b61080e565b905061024185838361023c87610821565b61082f565b95945050505050565b5f5f6102546107d8565b90505f61025f61080e565b905061027484838361026f61083d565b610856565b949350505050565b5f610203610865565b5f5f61028f6107d8565b90505f61029a61080e565b905061027484838361023c61083d565b5f6102b361087d565b6102bb6108a5565b5f6102c46107ea565b90505f6102d2826001015490565b90505f6102e08383886108db565b90505f6102eb610b29565b90505f6102f9826003015490565b905061030f83858361030a89610821565b610b5b565b955061031c828888610b69565b866001600160a01b0316336001600160a01b03165f5160206113ab5f395f51905f52858960405161034e929190611194565b60405180910390a35050505050610363610be4565b92915050565b5f61037261087d565b61037a6108a5565b5f6103836107ea565b90505f610391826001015490565b90505f61039c610b29565b90505f6103aa826003015490565b90506103c08784836103bb88610821565b610bfa565b94506103cd8484876108db565b94506103da828789610b69565b856001600160a01b0316336001600160a01b03165f5160206113ab5f395f51905f52878a60405161040c929190611194565b60405180910390a350505050610363610be4565b5f5f61042a6107d8565b90505f61043561080e565b90506102748483836103bb61083d565b5f61044e61087d565b6104566108a5565b5f61045f6107ea565b90505f61046d826001015490565b90505f610478610b29565b90505f610486826003015490565b905061049688848361030a61083d565b9450336001600160a01b03871614806104b757506001600160a01b03861630145b156104cc576104c7828787610c09565b6104e3565b6104d882873388610c7b565b6104e3828787610c09565b5f6104ed85610d21565b90506105036001600160a01b038216898b610d2e565b506040516370a0823160e01b81525f906001600160a01b038316906370a08231906105329030906004016110e9565b602060405180830381865afa15801561054d573d5f5f3e3d5ffd5b505050506040513d601f19601f8201168201806040525081019061057191906111a2565b600187018190559050876001600160a01b0316896001600160a01b0316336001600160a01b03165f51602061136b5f395f51905f528d8b6040516105b6929190611194565b60405180910390a45050505050506105cc610be4565b9392505050565b5f6105dc61087d565b6105e46108a5565b5f6105ed6107ea565b90505f6105f8610b29565b90505f610606836001015490565b90505f610614836003015490565b905061062488838361023c61083d565b9450336001600160a01b038716148061064557506001600160a01b03861630145b1561065a5761065583878a610c09565b610671565b6106668387338b610c7b565b61067183878a610c09565b5f61067b85610d21565b90506106916001600160a01b0382168988610d2e565b506040516370a0823160e01b81525f906001600160a01b038316906370a08231906106c09030906004016110e9565b602060405180830381865afa1580156106db573d5f5f3e3d5ffd5b505050506040513d601f19601f820116820180604052508101906106ff91906111a2565b600187018190559050876001600160a01b0316896001600160a01b0316336001600160a01b03165f51602061136b5f395f51905f528a8e6040516105b6929190611194565b5f5f61074e6107ea565b90505f61075c826001015490565b90505f61076761080e565b905061024185838361030a87610821565b5f5f6107826107d8565b90505f61078d61080e565b90505f61079985610d4d565b905061024181848461023c61083d565b5f61036382610d4d565b5f5f6107bd6107d8565b90505f6107c861080e565b905061027484838361030a61083d565b5f6107e16107ea565b60010154905090565b7f14ce67821cd930247cda3561a8613121cef312aab4c97bcc298f53c085bd93e090565b5f61020361081a610b29565b6003015490565b54600160a81b900460ff1690565b5f610241858585855f610d78565b5f6108466107ea565b54600160a81b900460ff16919050565b5f610241858585856001610daf565b5f61086e6107ea565b546001600160a01b0316919050565b610885610dd3565b156108a35760405163caa30f5560e01b815260040160405180910390fd5b565b6108a360016108d56040516020016108bc906111b9565b6040516020818303038152906040528051906020012090565b90610ded565b5f5f6108e685610d21565b90505f816001600160a01b03166370a08231306040518263ffffffff1660e01b815260040161091591906110e9565b602060405180830381865afa158015610930573d5f5f3e3d5ffd5b505050506040513d601f19601f8201168201806040525081019061095491906111a2565b905061096085826111fe565b9250838314610aec57604051636eb1769f60e11b81523360048201523060248201525f906001600160a01b0384169063dd62ed3e90604401602060405180830381865afa1580156109b3573d5f5f3e3d5ffd5b505050506040513d601f19601f820116820180604052508101906109d791906111a2565b905084811015610a5a576109e9610df4565b604051631b63c28b60e11b81523360048201523060248201526001600160a01b038781166044830152858116606483015291909116906336c78516906084015f604051808303815f87803b158015610a3f575f5ffd5b505af1158015610a51573d5f5f3e3d5ffd5b50505050610a71565b610a6f6001600160a01b038416333088610e05565b505b6040516370a0823160e01b81526001600160a01b038416906370a0823190610a9d9030906004016110e9565b602060405180830381865afa158015610ab8573d5f5f3e3d5ffd5b505050506040513d601f19601f82011682018060405250810190610adc91906111a2565b9150610ae886836111fe565b9350505b838314610b19578383604051630a1665cf60e31b8152600401610b10929190611194565b60405180910390fd5b6001860181905550509392505050565b5f6102036040516020016108bc906020808252600a908201526906569702e6572632e32360b41b604082015260600190565b5f610241858585855f610daf565b6001600160a01b0382165f90815260048401602052604081208054839290610b92908490611211565b9250508190555080836003015f828254610bac9190611211565b90915550506040518181526001600160a01b038316905f905f51602061138b5f395f51905f52906020015b60405180910390a3505050565b6108a35f6108d56040516020016108bc906111b9565b5f610241858585856001610d78565b6001600160a01b0382165f90815260048401602052604081208054839290610c329084906111fe565b9250508190555080836003015f828254610c4c91906111fe565b90915550506040518181525f906001600160a01b038416905f51602061138b5f395f51905f5290602001610bd7565b6001600160a01b038216610ca45781604051634a1406b160e11b8152600401610b1091906110e9565b6001600160a01b038381165f90815260058601602090815260408083209386168352929052205481811015610d0557604051637dc7a0d960e11b81526001600160a01b03841660048201526024810182905260448101839052606401610b10565b610d1a858585610d1586866111fe565b610e26565b5050505050565b546001600160a01b031690565b5f610d436001600160a01b0385168484610eb2565b5060019392505050565b5f610363610d59610b29565b836001600160a01b03165f908152600491909101602052604090205490565b5f610da5610d87866001611211565b610d9285600a611307565b610d9c9087611211565b88919085610ec2565b9695505050505050565b5f610da5610dbe84600a611307565b610dc89086611211565b610d9c876001611211565b5f610203610de96040516020016108bc906111b9565b5c90565b80825d5050565b5f610203610e00610ecf565b610d21565b5f610e1b6001600160a01b038616858585610f14565b506001949350505050565b6001600160a01b038216610e4f5781604051634a1406b160e11b8152600401610b1091906110e9565b6001600160a01b038381165f81815260058701602090815260408083209487168084529482529182902085905590518481527f8c5be1e5ebec7d5bd14f71427d1e84f3dd0314c0f7b2291e5b200ac8c7c3b925910160405180910390a350505050565b610ebd838383610f26565b505050565b5f61024185858585610f70565b5f6102036040516020016108bc906020808252601d908201527f70726f746f636f6c732e7574696c732e7065726d6974322e6177617265000000604082015260600190565b610f2084848484610fb3565b50505050565b816014528060345263a9059cbb60601b5f5260205f604460105f875af18060015f511416610f6657803d853b151710610f66576390b8ec185f526004601cfd5b505f603452505050565b5f5f610f7d86868661100c565b9050610f8883611018565b8015610fa357505f8480610f9e57610f9e611315565b868809115b1561024157610da5600182611211565b60405181606052826040528360601b602c526323b872dd60601b600c5260205f6064601c5f895af18060015f511416610ffe57803d873b151710610ffe57637939f4245f526004601cfd5b505f60605260405250505050565b5f610274848484611044565b5f600282600381111561102d5761102d611329565b611037919061133d565b60ff166001149050919050565b828202818385830414851517026110cb575f198385098181108201900382848609835f03841682851161107e5763ae47f7025f526004601cfd5b93849004938382119092035f8390038390046001010292030417600260038302811880840282030280840282030280840282030280840282030280840282030280840290910302026105cc565b0492915050565b5f602082840312156110e2575f5ffd5b5035919050565b6001600160a01b0391909116815260200190565b80356001600160a01b0381168114611113575f5ffd5b919050565b5f60208284031215611128575f5ffd5b6105cc826110fd565b5f5f60408385031215611142575f5ffd5b82359150611152602084016110fd565b90509250929050565b5f5f5f6060848603121561116d575f5ffd5b8335925061117d602085016110fd565b915061118b604085016110fd565b90509250925092565b918252602082015260400190565b5f602082840312156111b2575f5ffd5b5051919050565b6020808252601790820152766372616e652e6163636573732e7265656e7472616e637960481b604082015260600190565b634e487b7160e01b5f52601160045260245ffd5b81810381811115610363576103636111ea565b80820180821115610363576103636111ea565b6001815b600184111561125f57808504811115611243576112436111ea565b600184161561125157908102905b60019390931c928002611228565b935093915050565b5f8261127557506001610363565b8161128157505f610363565b816001811461129757600281146112a1576112bd565b6001915050610363565b60ff8411156112b2576112b26111ea565b50506001821b610363565b5060208310610133831016604e8410600b84101617156112e0575081810a610363565b6112ec5f198484611224565b805f19048211156112ff576112ff6111ea565b029392505050565b5f6105cc60ff841683611267565b634e487b7160e01b5f52601260045260245ffd5b634e487b7160e01b5f52602160045260245ffd5b5f60ff83168061135b57634e487b7160e01b5f52601260045260245ffd5b8060ff8416069150509291505056fefbde797d201c681b91056529119e0b02407c7bb96a4a2c75c01fc9667232c8dbddf252ad1be2c89b69c2b068fc378daa952ba7f163c4a11628f55a4df523b3efdcbc1c05240f31ff3ad067ef1ee35ce4997762752e3a095284754544f4c709d7a26469706673582212201c5bac56703803f5dd72fb050574068a49a110c7eb4cfacce4881df3b7fb248164736f6c634300081e0033","linkReferences":{}},"methodIdentifiers":{"asset()":"38d52e0f","convertToAssets(uint256)":"07a2d13a","convertToShares(uint256)":"c6e6f592","deposit(uint256,address)":"6e553f65","maxDeposit(address)":"402d267d","maxMint(address)":"c63d75b6","maxRedeem(address)":"d905777e","maxWithdraw(address)":"ce96cb77","mint(uint256,address)":"94bf804d","previewDeposit(uint256)":"ef8b30f7","previewMint(uint256)":"b3d7f6b9","previewRedeem(uint256)":"4cdad506","previewWithdraw(uint256)":"0a28a477","redeem(uint256,address,address)":"ba087652","totalAssets()":"01e1d114","withdraw(uint256,address,address)":"b460af94"},"id":1339}