{"abi":[{"type":"constructor","inputs":[{"name":"mainVault","type":"address","internalType":"contract IVault"},{"name":"pauseWindowDuration","type":"uint32","internalType":"uint32"},{"name":"bufferPeriodDuration","type":"uint32","internalType":"uint32"},{"name":"minTradeAmount","type":"uint256","internalType":"uint256"},{"name":"minWrapAmount","type":"uint256","internalType":"uint256"}],"stateMutability":"nonpayable"},{"type":"fallback","stateMutability":"payable"},{"type":"receive","stateMutability":"payable"},{"type":"function","name":"addLiquidityToBuffer","inputs":[{"name":"wrappedToken","type":"address","internalType":"contract IERC4626"},{"name":"maxAmountUnderlyingInRaw","type":"uint256","internalType":"uint256"},{"name":"maxAmountWrappedInRaw","type":"uint256","internalType":"uint256"},{"name":"exactSharesToIssue","type":"uint256","internalType":"uint256"},{"name":"sharesOwner","type":"address","internalType":"address"}],"outputs":[{"name":"amountUnderlyingRaw","type":"uint256","internalType":"uint256"},{"name":"amountWrappedRaw","type":"uint256","internalType":"uint256"}],"stateMutability":"nonpayable"},{"type":"function","name":"areBuffersPaused","inputs":[],"outputs":[{"name":"","type":"bool","internalType":"bool"}],"stateMutability":"view"},{"type":"function","name":"collectAggregateFees","inputs":[{"name":"pool","type":"address","internalType":"address"}],"outputs":[{"name":"totalSwapFees","type":"uint256[]","internalType":"uint256[]"},{"name":"totalYieldFees","type":"uint256[]","internalType":"uint256[]"}],"stateMutability":"nonpayable"},{"type":"function","name":"disableQuery","inputs":[],"outputs":[],"stateMutability":"nonpayable"},{"type":"function","name":"disableQueryPermanently","inputs":[],"outputs":[],"stateMutability":"nonpayable"},{"type":"function","name":"disableRecoveryMode","inputs":[{"name":"pool","type":"address","internalType":"address"}],"outputs":[],"stateMutability":"nonpayable"},{"type":"function","name":"enableQuery","inputs":[],"outputs":[],"stateMutability":"nonpayable"},{"type":"function","name":"enableRecoveryMode","inputs":[{"name":"pool","type":"address","internalType":"address"}],"outputs":[],"stateMutability":"nonpayable"},{"type":"function","name":"getActionId","inputs":[{"name":"selector","type":"bytes4","internalType":"bytes4"}],"outputs":[{"name":"","type":"bytes32","internalType":"bytes32"}],"stateMutability":"view"},{"type":"function","name":"getBufferAsset","inputs":[{"name":"wrappedToken","type":"address","internalType":"contract IERC4626"}],"outputs":[{"name":"underlyingToken","type":"address","internalType":"address"}],"stateMutability":"view"},{"type":"function","name":"getBufferBalance","inputs":[{"name":"token","type":"address","internalType":"contract IERC4626"}],"outputs":[{"name":"","type":"uint256","internalType":"uint256"},{"name":"","type":"uint256","internalType":"uint256"}],"stateMutability":"view"},{"type":"function","name":"getBufferMinimumTotalSupply","inputs":[],"outputs":[{"name":"","type":"uint256","internalType":"uint256"}],"stateMutability":"pure"},{"type":"function","name":"getBufferOwnerShares","inputs":[{"name":"token","type":"address","internalType":"contract IERC4626"},{"name":"user","type":"address","internalType":"address"}],"outputs":[{"name":"shares","type":"uint256","internalType":"uint256"}],"stateMutability":"view"},{"type":"function","name":"getBufferPeriodDuration","inputs":[],"outputs":[{"name":"","type":"uint32","internalType":"uint32"}],"stateMutability":"view"},{"type":"function","name":"getBufferPeriodEndTime","inputs":[],"outputs":[{"name":"","type":"uint32","internalType":"uint32"}],"stateMutability":"view"},{"type":"function","name":"getBufferTotalShares","inputs":[{"name":"token","type":"address","internalType":"contract IERC4626"}],"outputs":[{"name":"shares","type":"uint256","internalType":"uint256"}],"stateMutability":"view"},{"type":"function","name":"getMaximumPoolTokens","inputs":[],"outputs":[{"name":"","type":"uint256","internalType":"uint256"}],"stateMutability":"pure"},{"type":"function","name":"getMinimumPoolTokens","inputs":[],"outputs":[{"name":"","type":"uint256","internalType":"uint256"}],"stateMutability":"pure"},{"type":"function","name":"getMinimumTradeAmount","inputs":[],"outputs":[{"name":"","type":"uint256","internalType":"uint256"}],"stateMutability":"view"},{"type":"function","name":"getMinimumWrapAmount","inputs":[],"outputs":[{"name":"","type":"uint256","internalType":"uint256"}],"stateMutability":"view"},{"type":"function","name":"getPauseWindowEndTime","inputs":[],"outputs":[{"name":"","type":"uint32","internalType":"uint32"}],"stateMutability":"view"},{"type":"function","name":"getPoolMinimumTotalSupply","inputs":[],"outputs":[{"name":"","type":"uint256","internalType":"uint256"}],"stateMutability":"pure"},{"type":"function","name":"getVaultPausedState","inputs":[],"outputs":[{"name":"","type":"bool","internalType":"bool"},{"name":"","type":"uint32","internalType":"uint32"},{"name":"","type":"uint32","internalType":"uint32"}],"stateMutability":"view"},{"type":"function","name":"initializeBuffer","inputs":[{"name":"wrappedToken","type":"address","internalType":"contract IERC4626"},{"name":"amountUnderlyingRaw","type":"uint256","internalType":"uint256"},{"name":"amountWrappedRaw","type":"uint256","internalType":"uint256"},{"name":"minIssuedShares","type":"uint256","internalType":"uint256"},{"name":"sharesOwner","type":"address","internalType":"address"}],"outputs":[{"name":"issuedShares","type":"uint256","internalType":"uint256"}],"stateMutability":"nonpayable"},{"type":"function","name":"isVaultPaused","inputs":[],"outputs":[{"name":"","type":"bool","internalType":"bool"}],"stateMutability":"view"},{"type":"function","name":"pausePool","inputs":[{"name":"pool","type":"address","internalType":"address"}],"outputs":[],"stateMutability":"nonpayable"},{"type":"function","name":"pauseVault","inputs":[],"outputs":[],"stateMutability":"nonpayable"},{"type":"function","name":"pauseVaultBuffers","inputs":[],"outputs":[],"stateMutability":"nonpayable"},{"type":"function","name":"reentrancyGuardEntered","inputs":[],"outputs":[{"name":"","type":"bool","internalType":"bool"}],"stateMutability":"view"},{"type":"function","name":"removeLiquidityFromBuffer","inputs":[{"name":"wrappedToken","type":"address","internalType":"contract IERC4626"},{"name":"sharesToRemove","type":"uint256","internalType":"uint256"},{"name":"minAmountUnderlyingOutRaw","type":"uint256","internalType":"uint256"},{"name":"minAmountWrappedOutRaw","type":"uint256","internalType":"uint256"}],"outputs":[{"name":"removedUnderlyingBalanceRaw","type":"uint256","internalType":"uint256"},{"name":"removedWrappedBalanceRaw","type":"uint256","internalType":"uint256"}],"stateMutability":"nonpayable"},{"type":"function","name":"removeLiquidityFromBufferHook","inputs":[{"name":"wrappedToken","type":"address","internalType":"contract IERC4626"},{"name":"sharesToRemove","type":"uint256","internalType":"uint256"},{"name":"minAmountUnderlyingOutRaw","type":"uint256","internalType":"uint256"},{"name":"minAmountWrappedOutRaw","type":"uint256","internalType":"uint256"},{"name":"sharesOwner","type":"address","internalType":"address"}],"outputs":[{"name":"removedUnderlyingBalanceRaw","type":"uint256","internalType":"uint256"},{"name":"removedWrappedBalanceRaw","type":"uint256","internalType":"uint256"}],"stateMutability":"nonpayable"},{"type":"function","name":"setAuthorizer","inputs":[{"name":"newAuthorizer","type":"address","internalType":"contract IAuthorizer"}],"outputs":[],"stateMutability":"nonpayable"},{"type":"function","name":"setProtocolFeeController","inputs":[{"name":"newProtocolFeeController","type":"address","internalType":"contract IProtocolFeeController"}],"outputs":[],"stateMutability":"nonpayable"},{"type":"function","name":"setStaticSwapFeePercentage","inputs":[{"name":"pool","type":"address","internalType":"address"},{"name":"swapFeePercentage","type":"uint256","internalType":"uint256"}],"outputs":[],"stateMutability":"nonpayable"},{"type":"function","name":"unpausePool","inputs":[{"name":"pool","type":"address","internalType":"address"}],"outputs":[],"stateMutability":"nonpayable"},{"type":"function","name":"unpauseVault","inputs":[],"outputs":[],"stateMutability":"nonpayable"},{"type":"function","name":"unpauseVaultBuffers","inputs":[],"outputs":[],"stateMutability":"nonpayable"},{"type":"function","name":"updateAggregateSwapFeePercentage","inputs":[{"name":"pool","type":"address","internalType":"address"},{"name":"newAggregateSwapFeePercentage","type":"uint256","internalType":"uint256"}],"outputs":[],"stateMutability":"nonpayable"},{"type":"function","name":"updateAggregateYieldFeePercentage","inputs":[{"name":"pool","type":"address","internalType":"address"},{"name":"newAggregateYieldFeePercentage","type":"uint256","internalType":"uint256"}],"outputs":[],"stateMutability":"nonpayable"},{"type":"function","name":"vault","inputs":[],"outputs":[{"name":"","type":"address","internalType":"contract IVault"}],"stateMutability":"view"},{"type":"event","name":"AggregateSwapFeePercentageChanged","inputs":[{"name":"pool","type":"address","indexed":true,"internalType":"address"},{"name":"aggregateSwapFeePercentage","type":"uint256","indexed":false,"internalType":"uint256"}],"anonymous":false},{"type":"event","name":"AggregateYieldFeePercentageChanged","inputs":[{"name":"pool","type":"address","indexed":true,"internalType":"address"},{"name":"aggregateYieldFeePercentage","type":"uint256","indexed":false,"internalType":"uint256"}],"anonymous":false},{"type":"event","name":"Approval","inputs":[{"name":"pool","type":"address","indexed":true,"internalType":"address"},{"name":"owner","type":"address","indexed":true,"internalType":"address"},{"name":"spender","type":"address","indexed":true,"internalType":"address"},{"name":"value","type":"uint256","indexed":false,"internalType":"uint256"}],"anonymous":false},{"type":"event","name":"AuthorizerChanged","inputs":[{"name":"newAuthorizer","type":"address","indexed":true,"internalType":"contract IAuthorizer"}],"anonymous":false},{"type":"event","name":"BufferSharesBurned","inputs":[{"name":"wrappedToken","type":"address","indexed":true,"internalType":"contract IERC4626"},{"name":"from","type":"address","indexed":true,"internalType":"address"},{"name":"burnedShares","type":"uint256","indexed":false,"internalType":"uint256"}],"anonymous":false},{"type":"event","name":"BufferSharesMinted","inputs":[{"name":"wrappedToken","type":"address","indexed":true,"internalType":"contract IERC4626"},{"name":"to","type":"address","indexed":true,"internalType":"address"},{"name":"issuedShares","type":"uint256","indexed":false,"internalType":"uint256"}],"anonymous":false},{"type":"event","name":"LiquidityAdded","inputs":[{"name":"pool","type":"address","indexed":true,"internalType":"address"},{"name":"liquidityProvider","type":"address","indexed":true,"internalType":"address"},{"name":"kind","type":"uint8","indexed":true,"internalType":"enum AddLiquidityKind"},{"name":"totalSupply","type":"uint256","indexed":false,"internalType":"uint256"},{"name":"amountsAddedRaw","type":"uint256[]","indexed":false,"internalType":"uint256[]"},{"name":"swapFeeAmountsRaw","type":"uint256[]","indexed":false,"internalType":"uint256[]"}],"anonymous":false},{"type":"event","name":"LiquidityAddedToBuffer","inputs":[{"name":"wrappedToken","type":"address","indexed":true,"internalType":"contract IERC4626"},{"name":"amountUnderlying","type":"uint256","indexed":false,"internalType":"uint256"},{"name":"amountWrapped","type":"uint256","indexed":false,"internalType":"uint256"},{"name":"bufferBalances","type":"bytes32","indexed":false,"internalType":"bytes32"}],"anonymous":false},{"type":"event","name":"LiquidityRemoved","inputs":[{"name":"pool","type":"address","indexed":true,"internalType":"address"},{"name":"liquidityProvider","type":"address","indexed":true,"internalType":"address"},{"name":"kind","type":"uint8","indexed":true,"internalType":"enum RemoveLiquidityKind"},{"name":"totalSupply","type":"uint256","indexed":false,"internalType":"uint256"},{"name":"amountsRemovedRaw","type":"uint256[]","indexed":false,"internalType":"uint256[]"},{"name":"swapFeeAmountsRaw","type":"uint256[]","indexed":false,"internalType":"uint256[]"}],"anonymous":false},{"type":"event","name":"LiquidityRemovedFromBuffer","inputs":[{"name":"wrappedToken","type":"address","indexed":true,"internalType":"contract IERC4626"},{"name":"amountUnderlying","type":"uint256","indexed":false,"internalType":"uint256"},{"name":"amountWrapped","type":"uint256","indexed":false,"internalType":"uint256"},{"name":"bufferBalances","type":"bytes32","indexed":false,"internalType":"bytes32"}],"anonymous":false},{"type":"event","name":"PoolInitialized","inputs":[{"name":"pool","type":"address","indexed":true,"internalType":"address"}],"anonymous":false},{"type":"event","name":"PoolPausedStateChanged","inputs":[{"name":"pool","type":"address","indexed":true,"internalType":"address"},{"name":"paused","type":"bool","indexed":false,"internalType":"bool"}],"anonymous":false},{"type":"event","name":"PoolRecoveryModeStateChanged","inputs":[{"name":"pool","type":"address","indexed":true,"internalType":"address"},{"name":"recoveryMode","type":"bool","indexed":false,"internalType":"bool"}],"anonymous":false},{"type":"event","name":"PoolRegistered","inputs":[{"name":"pool","type":"address","indexed":true,"internalType":"address"},{"name":"factory","type":"address","indexed":true,"internalType":"address"},{"name":"tokenConfig","type":"tuple[]","indexed":false,"internalType":"struct TokenConfig[]","components":[{"name":"token","type":"address","internalType":"contract IERC20"},{"name":"tokenType","type":"uint8","internalType":"enum TokenType"},{"name":"rateProvider","type":"address","internalType":"contract IRateProvider"},{"name":"paysYieldFees","type":"bool","internalType":"bool"}]},{"name":"swapFeePercentage","type":"uint256","indexed":false,"internalType":"uint256"},{"name":"pauseWindowEndTime","type":"uint32","indexed":false,"internalType":"uint32"},{"name":"roleAccounts","type":"tuple","indexed":false,"internalType":"struct PoolRoleAccounts","components":[{"name":"pauseManager","type":"address","internalType":"address"},{"name":"swapFeeManager","type":"address","internalType":"address"},{"name":"poolCreator","type":"address","internalType":"address"}]},{"name":"hooksConfig","type":"tuple","indexed":false,"internalType":"struct HooksConfig","components":[{"name":"enableHookAdjustedAmounts","type":"bool","internalType":"bool"},{"name":"shouldCallBeforeInitialize","type":"bool","internalType":"bool"},{"name":"shouldCallAfterInitialize","type":"bool","internalType":"bool"},{"name":"shouldCallComputeDynamicSwapFee","type":"bool","internalType":"bool"},{"name":"shouldCallBeforeSwap","type":"bool","internalType":"bool"},{"name":"shouldCallAfterSwap","type":"bool","internalType":"bool"},{"name":"shouldCallBeforeAddLiquidity","type":"bool","internalType":"bool"},{"name":"shouldCallAfterAddLiquidity","type":"bool","internalType":"bool"},{"name":"shouldCallBeforeRemoveLiquidity","type":"bool","internalType":"bool"},{"name":"shouldCallAfterRemoveLiquidity","type":"bool","internalType":"bool"},{"name":"hooksContract","type":"address","internalType":"address"}]},{"name":"liquidityManagement","type":"tuple","indexed":false,"internalType":"struct LiquidityManagement","components":[{"name":"disableUnbalancedLiquidity","type":"bool","internalType":"bool"},{"name":"enableAddLiquidityCustom","type":"bool","internalType":"bool"},{"name":"enableRemoveLiquidityCustom","type":"bool","internalType":"bool"},{"name":"enableDonation","type":"bool","internalType":"bool"}]}],"anonymous":false},{"type":"event","name":"ProtocolFeeControllerChanged","inputs":[{"name":"newProtocolFeeController","type":"address","indexed":true,"internalType":"contract IProtocolFeeController"}],"anonymous":false},{"type":"event","name":"Swap","inputs":[{"name":"pool","type":"address","indexed":true,"internalType":"address"},{"name":"tokenIn","type":"address","indexed":true,"internalType":"contract IERC20"},{"name":"tokenOut","type":"address","indexed":true,"internalType":"contract IERC20"},{"name":"amountIn","type":"uint256","indexed":false,"internalType":"uint256"},{"name":"amountOut","type":"uint256","indexed":false,"internalType":"uint256"},{"name":"swapFeePercentage","type":"uint256","indexed":false,"internalType":"uint256"},{"name":"swapFeeAmount","type":"uint256","indexed":false,"internalType":"uint256"}],"anonymous":false},{"type":"event","name":"SwapFeePercentageChanged","inputs":[{"name":"pool","type":"address","indexed":true,"internalType":"address"},{"name":"swapFeePercentage","type":"uint256","indexed":false,"internalType":"uint256"}],"anonymous":false},{"type":"event","name":"Transfer","inputs":[{"name":"pool","type":"address","indexed":true,"internalType":"address"},{"name":"from","type":"address","indexed":true,"internalType":"address"},{"name":"to","type":"address","indexed":true,"internalType":"address"},{"name":"value","type":"uint256","indexed":false,"internalType":"uint256"}],"anonymous":false},{"type":"event","name":"Unwrap","inputs":[{"name":"wrappedToken","type":"address","indexed":true,"internalType":"contract IERC4626"},{"name":"burnedShares","type":"uint256","indexed":false,"internalType":"uint256"},{"name":"withdrawnUnderlying","type":"uint256","indexed":false,"internalType":"uint256"},{"name":"bufferBalances","type":"bytes32","indexed":false,"internalType":"bytes32"}],"anonymous":false},{"type":"event","name":"VaultAuxiliary","inputs":[{"name":"pool","type":"address","indexed":true,"internalType":"address"},{"name":"eventKey","type":"bytes32","indexed":true,"internalType":"bytes32"},{"name":"eventData","type":"bytes","indexed":false,"internalType":"bytes"}],"anonymous":false},{"type":"event","name":"VaultBuffersPausedStateChanged","inputs":[{"name":"paused","type":"bool","indexed":false,"internalType":"bool"}],"anonymous":false},{"type":"event","name":"VaultPausedStateChanged","inputs":[{"name":"paused","type":"bool","indexed":false,"internalType":"bool"}],"anonymous":false},{"type":"event","name":"VaultQueriesDisabled","inputs":[],"anonymous":false},{"type":"event","name":"VaultQueriesEnabled","inputs":[],"anonymous":false},{"type":"event","name":"Wrap","inputs":[{"name":"wrappedToken","type":"address","indexed":true,"internalType":"contract IERC4626"},{"name":"depositedUnderlying","type":"uint256","indexed":false,"internalType":"uint256"},{"name":"mintedShares","type":"uint256","indexed":false,"internalType":"uint256"},{"name":"bufferBalances","type":"bytes32","indexed":false,"internalType":"bytes32"}],"anonymous":false},{"type":"error","name":"AfterAddLiquidityHookFailed","inputs":[]},{"type":"error","name":"AfterInitializeHookFailed","inputs":[]},{"type":"error","name":"AfterRemoveLiquidityHookFailed","inputs":[]},{"type":"error","name":"AfterSwapHookFailed","inputs":[]},{"type":"error","name":"AmountGivenZero","inputs":[]},{"type":"error","name":"AmountInAboveMax","inputs":[{"name":"tokenIn","type":"address","internalType":"contract IERC20"},{"name":"amountIn","type":"uint256","internalType":"uint256"},{"name":"maxAmountIn","type":"uint256","internalType":"uint256"}]},{"type":"error","name":"AmountOutBelowMin","inputs":[{"name":"tokenOut","type":"address","internalType":"contract IERC20"},{"name":"amountOut","type":"uint256","internalType":"uint256"},{"name":"minAmountOut","type":"uint256","internalType":"uint256"}]},{"type":"error","name":"BalanceNotSettled","inputs":[]},{"type":"error","name":"BalanceOverflow","inputs":[]},{"type":"error","name":"BeforeAddLiquidityHookFailed","inputs":[]},{"type":"error","name":"BeforeInitializeHookFailed","inputs":[]},{"type":"error","name":"BeforeRemoveLiquidityHookFailed","inputs":[]},{"type":"error","name":"BeforeSwapHookFailed","inputs":[]},{"type":"error","name":"BptAmountInAboveMax","inputs":[{"name":"amountIn","type":"uint256","internalType":"uint256"},{"name":"maxAmountIn","type":"uint256","internalType":"uint256"}]},{"type":"error","name":"BptAmountOutBelowMin","inputs":[{"name":"amountOut","type":"uint256","internalType":"uint256"},{"name":"minAmountOut","type":"uint256","internalType":"uint256"}]},{"type":"error","name":"BufferAlreadyInitialized","inputs":[{"name":"wrappedToken","type":"address","internalType":"contract IERC4626"}]},{"type":"error","name":"BufferNotInitialized","inputs":[{"name":"wrappedToken","type":"address","internalType":"contract IERC4626"}]},{"type":"error","name":"BufferSharesInvalidOwner","inputs":[]},{"type":"error","name":"BufferSharesInvalidReceiver","inputs":[]},{"type":"error","name":"BufferTotalSupplyTooLow","inputs":[{"name":"totalSupply","type":"uint256","internalType":"uint256"}]},{"type":"error","name":"CannotReceiveEth","inputs":[]},{"type":"error","name":"CannotSwapSameToken","inputs":[]},{"type":"error","name":"CodecOverflow","inputs":[]},{"type":"error","name":"DoesNotSupportAddLiquidityCustom","inputs":[]},{"type":"error","name":"DoesNotSupportDonation","inputs":[]},{"type":"error","name":"DoesNotSupportRemoveLiquidityCustom","inputs":[]},{"type":"error","name":"DoesNotSupportUnbalancedLiquidity","inputs":[]},{"type":"error","name":"DynamicSwapFeeHookFailed","inputs":[]},{"type":"error","name":"ERC20InsufficientAllowance","inputs":[{"name":"spender","type":"address","internalType":"address"},{"name":"allowance","type":"uint256","internalType":"uint256"},{"name":"needed","type":"uint256","internalType":"uint256"}]},{"type":"error","name":"ERC20InsufficientBalance","inputs":[{"name":"sender","type":"address","internalType":"address"},{"name":"balance","type":"uint256","internalType":"uint256"},{"name":"needed","type":"uint256","internalType":"uint256"}]},{"type":"error","name":"ERC20InvalidApprover","inputs":[{"name":"approver","type":"address","internalType":"address"}]},{"type":"error","name":"ERC20InvalidReceiver","inputs":[{"name":"receiver","type":"address","internalType":"address"}]},{"type":"error","name":"ERC20InvalidSender","inputs":[{"name":"sender","type":"address","internalType":"address"}]},{"type":"error","name":"ERC20InvalidSpender","inputs":[{"name":"spender","type":"address","internalType":"address"}]},{"type":"error","name":"FeePrecisionTooHigh","inputs":[]},{"type":"error","name":"HookAdjustedAmountInAboveMax","inputs":[{"name":"tokenIn","type":"address","internalType":"contract IERC20"},{"name":"amountIn","type":"uint256","internalType":"uint256"},{"name":"maxAmountIn","type":"uint256","internalType":"uint256"}]},{"type":"error","name":"HookAdjustedAmountOutBelowMin","inputs":[{"name":"tokenOut","type":"address","internalType":"contract IERC20"},{"name":"amountOut","type":"uint256","internalType":"uint256"},{"name":"minAmountOut","type":"uint256","internalType":"uint256"}]},{"type":"error","name":"HookAdjustedSwapLimit","inputs":[{"name":"amount","type":"uint256","internalType":"uint256"},{"name":"limit","type":"uint256","internalType":"uint256"}]},{"type":"error","name":"HookRegistrationFailed","inputs":[{"name":"poolHooksContract","type":"address","internalType":"address"},{"name":"pool","type":"address","internalType":"address"},{"name":"poolFactory","type":"address","internalType":"address"}]},{"type":"error","name":"InvalidAddLiquidityKind","inputs":[]},{"type":"error","name":"InvalidRemoveLiquidityKind","inputs":[]},{"type":"error","name":"InvalidToken","inputs":[]},{"type":"error","name":"InvalidTokenConfiguration","inputs":[]},{"type":"error","name":"InvalidTokenDecimals","inputs":[]},{"type":"error","name":"InvalidTokenType","inputs":[]},{"type":"error","name":"InvalidUnderlyingToken","inputs":[{"name":"wrappedToken","type":"address","internalType":"contract IERC4626"}]},{"type":"error","name":"IssuedSharesBelowMin","inputs":[{"name":"issuedShares","type":"uint256","internalType":"uint256"},{"name":"minIssuedShares","type":"uint256","internalType":"uint256"}]},{"type":"error","name":"MaxTokens","inputs":[]},{"type":"error","name":"MinTokens","inputs":[]},{"type":"error","name":"NotEnoughBufferShares","inputs":[]},{"type":"error","name":"NotEnoughUnderlying","inputs":[{"name":"wrappedToken","type":"address","internalType":"contract IERC4626"},{"name":"expectedUnderlyingAmount","type":"uint256","internalType":"uint256"},{"name":"actualUnderlyingAmount","type":"uint256","internalType":"uint256"}]},{"type":"error","name":"NotEnoughWrapped","inputs":[{"name":"wrappedToken","type":"address","internalType":"contract IERC4626"},{"name":"expectedWrappedAmount","type":"uint256","internalType":"uint256"},{"name":"actualWrappedAmount","type":"uint256","internalType":"uint256"}]},{"type":"error","name":"NotStaticCall","inputs":[]},{"type":"error","name":"NotVaultDelegateCall","inputs":[]},{"type":"error","name":"OutOfBounds","inputs":[]},{"type":"error","name":"PauseBufferPeriodDurationTooLarge","inputs":[]},{"type":"error","name":"PercentageAboveMax","inputs":[]},{"type":"error","name":"PoolAlreadyInitialized","inputs":[{"name":"pool","type":"address","internalType":"address"}]},{"type":"error","name":"PoolAlreadyRegistered","inputs":[{"name":"pool","type":"address","internalType":"address"}]},{"type":"error","name":"PoolInRecoveryMode","inputs":[{"name":"pool","type":"address","internalType":"address"}]},{"type":"error","name":"PoolNotInRecoveryMode","inputs":[{"name":"pool","type":"address","internalType":"address"}]},{"type":"error","name":"PoolNotInitialized","inputs":[{"name":"pool","type":"address","internalType":"address"}]},{"type":"error","name":"PoolNotPaused","inputs":[{"name":"pool","type":"address","internalType":"address"}]},{"type":"error","name":"PoolNotRegistered","inputs":[{"name":"pool","type":"address","internalType":"address"}]},{"type":"error","name":"PoolPauseWindowExpired","inputs":[{"name":"pool","type":"address","internalType":"address"}]},{"type":"error","name":"PoolPaused","inputs":[{"name":"pool","type":"address","internalType":"address"}]},{"type":"error","name":"PoolTotalSupplyTooLow","inputs":[{"name":"totalSupply","type":"uint256","internalType":"uint256"}]},{"type":"error","name":"ProtocolFeesExceedTotalCollected","inputs":[]},{"type":"error","name":"QueriesDisabled","inputs":[]},{"type":"error","name":"QueriesDisabledPermanently","inputs":[]},{"type":"error","name":"QuoteResultSpoofed","inputs":[]},{"type":"error","name":"ReentrancyGuardReentrantCall","inputs":[]},{"type":"error","name":"RouterNotTrusted","inputs":[]},{"type":"error","name":"SenderIsNotVault","inputs":[{"name":"sender","type":"address","internalType":"address"}]},{"type":"error","name":"SenderNotAllowed","inputs":[]},{"type":"error","name":"SwapFeePercentageTooHigh","inputs":[]},{"type":"error","name":"SwapFeePercentageTooLow","inputs":[]},{"type":"error","name":"SwapLimit","inputs":[{"name":"amount","type":"uint256","internalType":"uint256"},{"name":"limit","type":"uint256","internalType":"uint256"}]},{"type":"error","name":"TokenAlreadyRegistered","inputs":[{"name":"token","type":"address","internalType":"contract IERC20"}]},{"type":"error","name":"TokenNotRegistered","inputs":[{"name":"token","type":"address","internalType":"contract IERC20"}]},{"type":"error","name":"TokensMismatch","inputs":[{"name":"pool","type":"address","internalType":"address"},{"name":"expectedToken","type":"address","internalType":"address"},{"name":"actualToken","type":"address","internalType":"address"}]},{"type":"error","name":"TradeAmountTooSmall","inputs":[]},{"type":"error","name":"VaultBuffersArePaused","inputs":[]},{"type":"error","name":"VaultIsNotUnlocked","inputs":[]},{"type":"error","name":"VaultNotPaused","inputs":[]},{"type":"error","name":"VaultPauseWindowDurationTooLarge","inputs":[]},{"type":"error","name":"VaultPauseWindowExpired","inputs":[]},{"type":"error","name":"VaultPaused","inputs":[]},{"type":"error","name":"WrapAmountTooSmall","inputs":[{"name":"wrappedToken","type":"address","internalType":"contract IERC4626"}]},{"type":"error","name":"WrongProtocolFeeControllerDeployment","inputs":[]},{"type":"error","name":"WrongUnderlyingToken","inputs":[{"name":"wrappedToken","type":"address","internalType":"contract IERC4626"},{"name":"underlyingToken","type":"address","internalType":"address"}]},{"type":"error","name":"WrongVaultAdminDeployment","inputs":[]},{"type":"error","name":"WrongVaultExtensionDeployment","inputs":[]},{"type":"error","name":"ZeroDivision","inputs":[]}],"bytecode":{"object":"0x610240604052600a610200908152691a5cd55b9b1bd8dad95960b21b61022052610028906101d8565b60c0526040805180820190915260118152701b9bdb96995c9bd1195b1d1850dbdd5b9d607a1b602082015261005c906101d8565b60e05260408051808201909152600b81526a746f6b656e44656c74617360a81b602082015261008a906101d8565b61010052604080518082019091526012815271185919131a5c5d5a591a5d1e50d85b1b195960721b60208201526100c0906101d8565b610120526040805180820190915260098152681cd95cdcda5bdb925960ba1b60208201526100ed906101d8565b610140523480156100fc575f5ffd5b5060405161498238038061498283398101604081905261011b916102c9565b6001600160a01b0385166101c08190526101e052630784ce0063ffffffff8516111561015a5760405163cc0e8fe560e01b815260040160405180910390fd5b62ed4e008363ffffffff16111561018457604051634f5277f760e11b815260040160405180910390fd5b5f61019d61019863ffffffff87164261033c565b610213565b63ffffffff8082166101605285166101a05290506101bb848261034f565b63ffffffff16610180525060809190915260a052506103e3915050565b5f61020d60405180604001604052600c8152806020016b5661756c7453746f7261676560a01b8152508361021d60201b60201c565b92915050565b5f61020d8261028b565b5f60ff5f1b1960018484604051602001610238929190610382565b604051602081830303815290604052805190602001205f1c61025a91906103d0565b60405160200161026c91815260200190565b6040516020818303038152906040528051906020012016905092915050565b5f64010000000082106102a0576102a06102a4565b5090565b6335278d125f526004601cfd5b805163ffffffff811681146102c4575f5ffd5b919050565b5f5f5f5f5f60a086880312156102dd575f5ffd5b85516001600160a01b03811681146102f3575f5ffd5b9450610301602087016102b1565b935061030f604087016102b1565b6060870151608090970151959894975095949392505050565b634e487b7160e01b5f52601160045260245ffd5b8082018082111561020d5761020d610328565b63ffffffff818116838216019081111561020d5761020d610328565b5f81518060208401855e5f93019283525090919050565b7f62616c616e6365722d6c6162732e76332e73746f726167652e0000000000000081525f6103b3601983018561036b565b601760f91b81526103c7600182018561036b565b95945050505050565b8181038181111561020d5761020d610328565b60805160a05160c05160e05161010051610120516101405161016051610180516101a0516101c0516101e05161441861056a5f395f81816107540152818161077e015281816107d10152818161085d0152818161089c015281816108e101528181610976015281816109ee01528181610a3a01528181610a7901528181610c7601528181610cfa01528181610db901528181610ec20152818161113f015281816111f50152818161127d0152818161130001528181611568015281816115c70152818161160b0152818161164e015281816116a50152818161172b015281816117a3015281816117e501528181611829015281816118c7015281816119c701528181611bd301528181611c3001528181611d0a01528181611d5101526120fc01525f61118c01525f81816102e6015261307801525f81816105b2015281816112500152611e0301525f81816104da0152818161122d0152611e7601525f50505f50505f6130d601525f61310d01525f61213e01525f6103ad01525f6106c501526144185ff3fe6080604052600436106101ce575f3560e01c80630387587d1461024a578063058a628f1461027f578063098401f5146102a05780630b7562be146102c457806320c1fb7a146102d857806326a8a9911461031b5780632d771389146103395780632e42f4d5146103585780634021fe0f1461036b57806353956aa21461039f57806355aca1ec146103d157806355cba7fe146103f05780635dcacd64146104045780635e0b06f414610423578063653eb3b014610442578063821440f214610461578063851c1bb31461047557806385c8c015146104945780638a8d123a146104cc5780638f4ab9ca146104fe5780639385e39a1461052b5780639e0879c21461054a578063a8175b271461055e578063b9212b4914610571578063bffb78b214610585578063cd51c12f146105a4578063d0965a6b146105d6578063d15126ba146105eb578063d2c725e01461060a578063dc3f574e1461061e578063de1a36a61461063d578063e085c5a814610651578063e0d5560514610665578063e253670a14610679578063e2a92b1a14610698578063e2cb0ba0146106b7578063ebc7955c146106e9578063f21c38cd14610708578063f2784e0714610727578063fbfa77cf14610746576101ec565b366101ec57604051637911c44b60e11b815260040160405180910390fd5b341561020b57604051637911c44b60e11b815260040160405180910390fd5b60405162461bcd60e51b815260206004820152600f60248201526e139bdd081a5b5c1b195b595b9d1959608a1b60448201526064015b60405180910390fd5b348015610255575f5ffd5b50610269610264366004613d29565b610778565b6040516102769190613d44565b60405180910390f35b34801561028a575f5ffd5b5061029e610299366004613d29565b6107cc565b005b3480156102ab575f5ffd5b506102b4610857565b6040519015158152602001610276565b3480156102cf575f5ffd5b5061029e610897565b3480156102e3575f5ffd5b507f00000000000000000000000000000000000000000000000000000000000000005b60405163ffffffff9091168152602001610276565b348015610326575f5ffd5b506127105b604051908152602001610276565b348015610344575f5ffd5b5061029e610353366004613d29565b6108dc565b348015610363575f5ffd5b50600861032b565b348015610376575f5ffd5b5061038a610385366004613d29565b61096f565b60408051928352602083019190915201610276565b3480156103aa575f5ffd5b507f000000000000000000000000000000000000000000000000000000000000000061032b565b3480156103dc575f5ffd5b5061029e6103eb366004613d29565b6109e9565b3480156103fb575f5ffd5b506102b4610a34565b34801561040f575f5ffd5b5061038a61041e366004613d58565b610a72565b34801561042e575f5ffd5b5061029e61043d366004613daa565b610db4565b34801561044d575f5ffd5b5061032b61045c366004613d58565b610ebc565b34801561046c575f5ffd5b5061029e61113a565b348015610480575f5ffd5b5061032b61048f366004613dd4565b611189565b34801561049f575f5ffd5b506104a86111ed565b60408051931515845263ffffffff9283166020850152911690820152606001610276565b3480156104d7575f5ffd5b507f0000000000000000000000000000000000000000000000000000000000000000610306565b348015610509575f5ffd5b5061051d610518366004613d29565b611275565b604051610276929190613e35565b348015610536575f5ffd5b5061032b610545366004613e59565b611562565b348015610555575f5ffd5b5061029e6115c2565b348015610569575f5ffd5b50600261032b565b34801561057c575f5ffd5b5061029e611606565b348015610590575f5ffd5b5061029e61059f366004613d29565b611649565b3480156105af575f5ffd5b507f0000000000000000000000000000000000000000000000000000000000000000610306565b3480156105e1575f5ffd5b50620f424061032b565b3480156105f6575f5ffd5b5061029e610605366004613daa565b6116a0565b348015610615575f5ffd5b506102b461171d565b348015610629575f5ffd5b5061029e610638366004613d29565b611726565b348015610648575f5ffd5b5061029e61179e565b34801561065c575f5ffd5b5061029e6117e0565b348015610670575f5ffd5b5061029e611824565b348015610684575f5ffd5b5061029e610693366004613daa565b6118c2565b3480156106a3575f5ffd5b5061038a6106b2366004613d58565b6119c0565b3480156106c2575f5ffd5b507f000000000000000000000000000000000000000000000000000000000000000061032b565b3480156106f4575f5ffd5b5061038a610703366004613e90565b611bcc565b348015610713575f5ffd5b5061029e610722366004613d29565b611d05565b348015610732575f5ffd5b5061032b610741366004613d29565b611d4b565b348015610751575f5ffd5b507f0000000000000000000000000000000000000000000000000000000000000000610269565b5f6107ab7f00000000000000000000000000000000000000000000000000000000000000006001600160a01b0316611d99565b506001600160a01b038082165f908152600e6020526040902054165b919050565b6107fe7f00000000000000000000000000000000000000000000000000000000000000006001600160a01b0316611d99565b610806611dc2565b60098054610100600160a81b0319166101006001600160a01b038416908102919091179091556040517f94b979b6831a51293e2641426f97747feed46f17779fed9cd18d1ecefcfe92ef905f90a250565b5f61088a7f00000000000000000000000000000000000000000000000000000000000000006001600160a01b0316611d99565b610892611e00565b905090565b6108c97f00000000000000000000000000000000000000000000000000000000000000006001600160a01b0316611d99565b6108d1611dc2565b6108da5f611e3d565b565b61090e7f00000000000000000000000000000000000000000000000000000000000000006001600160a01b0316611d99565b610916611dc2565b61091e611f22565b600a80546001600160a01b0319166001600160a01b0383169081179091556040517f280a60b1e63c1774d397d35cce80eb80e51408ead755fb446e6f744ce98e5df0905f90a261096c611f62565b50565b5f5f6109a37f00000000000000000000000000000000000000000000000000000000000000006001600160a01b0316611d99565b6001600160a01b0383165f908152600b60205260409020546109c490611f79565b6001600160a01b0384165f908152600b602052604090205460801c5b91509150915091565b610a1b7f00000000000000000000000000000000000000000000000000000000000000006001600160a01b0316611d99565b80610a2581611f85565b610a30826001611fad565b5050565b5f610a677f00000000000000000000000000000000000000000000000000000000000000006001600160a01b0316611d99565b6108926007546120ce565b5f5f610aa67f00000000000000000000000000000000000000000000000000000000000000006001600160a01b0316611d99565b610aae6120f1565b610ab661213c565b86610ac08161217f565b610ac86121b8565b15610ad857610ad88885896121d3565b6001600160a01b038089165f908152600c6020908152604080832093881683529290522054871115610b1d57604051634c62edeb60e11b815260040160405180910390fd5b6001600160a01b0388165f908152600b6020908152604080832054600d909252909120548089610b4c84611f79565b610b569190613edc565b610b609190613ef3565b94508089610b6e8460801c90565b610b789190613edc565b610b829190613ef3565b6001600160a01b03808c165f908152600e60205260409020549195501688861015610bc65780868a6040516323b6a17960e21b815260040161024193929190613f12565b87851015610bed578a85896040516323b6a17960e21b815260040161024193929190613f12565b610bf78187612234565b610c018b86612234565b610c3286610c0e85611f79565b610c189190613f33565b86610c238660801c90565b610c2d9190613f33565b61224f565b6001600160a01b038c165f908152600b602052604090208190559250610c598b888c61229a565b8515610cdd5760405163ae63932960e01b81526001600160a01b037f0000000000000000000000000000000000000000000000000000000000000000169063ae63932990610caf9084908b908b90600401613f46565b5f604051808303815f87803b158015610cc6575f5ffd5b505af1158015610cd8573d5f5f3e3d5ffd5b505050505b8415610d615760405163ae63932960e01b81526001600160a01b037f0000000000000000000000000000000000000000000000000000000000000000169063ae63932990610d33908e908b908a90600401613f46565b5f604051808303815f87803b158015610d4a575f5ffd5b505af1158015610d5c573d5f5f3e3d5ffd5b505050505b8a6001600160a01b03167f44d97b36e99b590b3d2875aad3b167b1d7fb1e063f3f1325a1eeac76caee5113878786604051610d9e93929190613f6a565b60405180910390a2505050509550959350505050565b610de67f00000000000000000000000000000000000000000000000000000000000000006001600160a01b0316611d99565b81610df081611f85565b81670de0b6b3a7640000811115610e1a57604051634c69ac5d60e01b815260040160405180910390fd5b600a546001600160a01b03163314610e45576040516323dada5360e01b815260040160405180910390fd5b6001600160a01b0384165f90815260208190526040902054610e679084612389565b6001600160a01b0385165f8181526020818152604091829020939093555185815290917fe4d371097beea42453a37406e2aef4c04f3c548f84ac50e72578662c0dcd735491015b60405180910390a250505050565b5f610eef7f00000000000000000000000000000000000000000000000000000000000000006001600160a01b0316611d99565b610ef761213c565b610eff6124a7565b610f07611f22565b6001600160a01b038681165f908152600e60205260409020541615610f405785604051625a43e960e61b81526004016102419190613d44565b5f866001600160a01b03166338d52e0f6040518163ffffffff1660e01b8152600401602060405180830381865afa158015610f7d573d5f5f3e3d5ffd5b505050506040513d601f19601f82011682018060405250810190610fa19190613f80565b90506001600160a01b038116610fcc578660405163d407f9c560e01b81526004016102419190613d44565b6001600160a01b038781165f908152600e6020526040902080546001600160a01b03191691831691909117905561100381876124d0565b61100d87866124d0565b5f611018878761224f565b6001600160a01b0389165f818152600b6020526040908190208390555163266d6a8360e11b8152600481018990529192508891634cdad50690602401602060405180830381865afa15801561106f573d5f5f3e3d5ffd5b505050506040513d601f19601f820116820180604052508101906110939190613f9b565b61109d9190613fb2565b92506110a8836124dd565b6110b461271084613f33565b92506110bf88612503565b6110ca888585612559565b848310156110f557604051636d06583f60e11b81526004810184905260248101869052604401610241565b876001600160a01b03165f5160206143835f395f51905f5288888460405161111f93929190613f6a565b60405180910390a25050611131611f62565b95945050505050565b61116c7f00000000000000000000000000000000000000000000000000000000000000006001600160a01b0316611d99565b611174611dc2565b6009805460ff191660011790556108da612627565b5f7f0000000000000000000000000000000000000000000000000000000000000000826040516020016111d09291909182526001600160e01b031916602082015260240190565b604051602081830303815290604052805190602001209050919050565b5f5f5f6112227f00000000000000000000000000000000000000000000000000000000000000006001600160a01b0316611d99565b61122a611e00565b937f000000000000000000000000000000000000000000000000000000000000000093507f000000000000000000000000000000000000000000000000000000000000000092509050565b6060806112aa7f00000000000000000000000000000000000000000000000000000000000000006001600160a01b0316611d99565b6112b261213c565b600a546001600160a01b031633146112dd576040516323dada5360e01b815260040160405180910390fd5b826112e781611f85565b60405163ca4f280360e01b81525f906001600160a01b037f0000000000000000000000000000000000000000000000000000000000000000169063ca4f280390611335908890600401613d44565b5f60405180830381865afa15801561134f573d5f5f3e3d5ffd5b505050506040513d5f823e601f3d908101601f191682016040526113769190810190614009565b8051909150806001600160401b0381111561139357611393613fc5565b6040519080825280602002602001820160405280156113bc578160200160208202803683370190505b509450806001600160401b038111156113d7576113d7613fc5565b604051908082528060200260200182016040528015611400578160200160208202803683370190505b5093505f5b8251811015611559575f838281518110611421576114216140bb565b6020908102919091018101516001600160a01b03808b165f9081526006845260408082209284168252919093529091205490915061145e90612668565b888481518110611470576114706140bb565b60200260200101888581518110611489576114896140bb565b60200260200101828152508281525050505f8783815181106114ad576114ad6140bb565b602002602001015111806114d957505f8683815181106114cf576114cf6140bb565b6020026020010151115b15611550576001600160a01b038089165f908152600660209081526040808320938516835292905290812055855161155090829088908590811061151f5761151f6140bb565b6020026020010151898581518110611539576115396140bb565b602002602001015161154b9190613fb2565b612234565b50600101611405565b50505050915091565b5f6115957f00000000000000000000000000000000000000000000000000000000000000006001600160a01b0316611d99565b506001600160a01b038083165f908152600c60209081526040808320938516835292905220545b92915050565b6115f47f00000000000000000000000000000000000000000000000000000000000000006001600160a01b0316611d99565b6115fc611dc2565b6108da6001611e3d565b6116387f00000000000000000000000000000000000000000000000000000000000000006001600160a01b0316611d99565b611640611dc2565b6108da5f61267d565b61167b7f00000000000000000000000000000000000000000000000000000000000000006001600160a01b0316611d99565b8061168581611f85565b61168d611dc2565b611696826126c4565b610a30825f6126ec565b6116d27f00000000000000000000000000000000000000000000000000000000000000006001600160a01b0316611d99565b816116dc81611f85565b6001600160a01b038084165f908152600160208190526040909120015461170591859116612775565b61170e836127b5565b61171883836127c6565b505050565b5f610892612933565b6117587f00000000000000000000000000000000000000000000000000000000000000006001600160a01b0316611d99565b8061176281611f85565b61176b82612945565b6117748261296e565b1580156117865750611784611e00565b155b1561179357611793611dc2565b610a308260016126ec565b6117d07f00000000000000000000000000000000000000000000000000000000000000006001600160a01b0316611d99565b6117d8611dc2565b6108da612627565b6118127f00000000000000000000000000000000000000000000000000000000000000006001600160a01b0316611d99565b61181a611dc2565b6108da600161267d565b6118567f00000000000000000000000000000000000000000000000000000000000000006001600160a01b0316611d99565b61185e611dc2565b60095460ff1615611882576040516301a7e32f60e21b815260040160405180910390fd5b60075461188f815f612981565b60078190556040519091507f91d7478835f2b5adc315f5aad920f4a7f0a02f7fddf3042d17b2c80168ea17f5905f90a150565b6118f47f00000000000000000000000000000000000000000000000000000000000000006001600160a01b0316611d99565b816118fe81611f85565b81670de0b6b3a764000081111561192857604051634c69ac5d60e01b815260040160405180910390fd5b600a546001600160a01b03163314611953576040516323dada5360e01b815260040160405180910390fd5b6001600160a01b0384165f90815260208190526040902054611975908461298e565b6001600160a01b0385165f8181526020818152604091829020939093555185815290917f606eb97d83164bd6b200d638cd49c14c65d94d4f2c674cfd85e24e0e202c3ca59101610eae565b5f5f6119f47f00000000000000000000000000000000000000000000000000000000000000006001600160a01b0316611d99565b6119fc61213c565b611a046124a7565b86611a0e8161217f565b611a16611f22565b5f886001600160a01b03166338d52e0f6040518163ffffffff1660e01b8152600401602060405180830381865afa158015611a53573d5f5f3e3d5ffd5b505050506040513d601f19601f82011682018060405250810190611a779190613f80565b9050611a838982612aad565b6001600160a01b0389165f908152600b6020908152604080832054600d90925290912054611abc8882611ab585611f79565b9190612afc565b9550611acd8882611ab58560801c90565b945089861115611af65782868b6040516323b6a17960e21b815260040161024193929190613f12565b88851115611b1d578a858a6040516323b6a17960e21b815260040161024193929190613f12565b611b2783876124d0565b611b318b866124d0565b611b5d86611b3e84611f79565b611b489190613fb2565b86611b538560801c90565b610c2d9190613fb2565b6001600160a01b038c165f908152600b602052604090208190559150611b848b888a612559565b8a6001600160a01b03165f5160206143835f395f51905f52878785604051611bae93929190613f6a565b60405180910390a2505050611bc1611f62565b509550959350505050565b5f5f611c007f00000000000000000000000000000000000000000000000000000000000000006001600160a01b0316611d99565b6040516001600160a01b0387811660248301526044820187905260648201869052608482018590523360a48301527f000000000000000000000000000000000000000000000000000000000000000016906348c894919060c40160408051601f198184030181529181526020820180516001600160e01b0316631772b35960e21b179052516001600160e01b031960e084901b168152611ca391906004016140cf565b5f604051808303815f875af1158015611cbe573d5f5f3e3d5ffd5b505050506040513d5f823e601f3d908101601f19168201604052611ce59190810190614104565b806020019051810190611cf89190614196565b9150915094509492505050565b611d377f00000000000000000000000000000000000000000000000000000000000000006001600160a01b0316611d99565b80611d4181611f85565b610a30825f611fad565b5f611d7e7f00000000000000000000000000000000000000000000000000000000000000006001600160a01b0316611d99565b506001600160a01b03165f908152600d602052604090205490565b306001600160a01b0382161461096c57604051634fe92d9b60e11b815260040160405180910390fd5b5f611dd75f356001600160e01b031916611189565b9050611de38133612b41565b61096c576040516323dada5360e01b815260040160405180910390fd5b5f7f000000000000000000000000000000000000000000000000000000000000000063ffffffff1642111580156108925750610892600754612bb9565b611e45611e00565b15611e6e578015611e69576040516336a7e2cd60e21b815260040160405180910390fd5b611ed3565b8015611eba577f000000000000000000000000000000000000000000000000000000000000000063ffffffff164210611e6957604051630e4460b760e01b815260040160405180910390fd5b604051637bffa6e560e11b815260040160405180910390fd5b600754611ee08183612bc8565b600781905560405183151581529091507fe0629fe656e45ad7fd63a24b899da368690024c07043b88e57aee5095b1d3d02906020015b60405180910390a15050565b611f2a612933565b15611f4857604051633ee5aeb560e01b815260040160405180910390fd5b6108da60015f5160206143a35f395f51905f525b90612be6565b6108da5f5f5160206143a35f395f51905f52611f5c565b6001600160801b031690565b611f8e81612bed565b61096c57806040516327946f5760e21b81526004016102419190613d44565b6001600160a01b038083165f90815260016020526040902054611fd291849116612c0e565b6001600160a01b0382165f90815260208190526040902054611ff38361296e565b1561201e578115612019578260405163d971f59760e01b81526004016102419190613d44565b61206f565b81156120545761202d81612c2b565b63ffffffff164210612019578260405163eb5a121760e01b81526004016102419190613d44565b82604051633f735a2560e21b81526004016102419190613d44565b6120798183612d2f565b6001600160a01b0384165f81815260208181526040918290209390935551841515815290917f57e20448028297190122571be7cb6c1b1ef85730c673f7c72f533c8662419aa7910160405180910390a2505050565b5f6115bc6120dd826001613fb2565b6120e8906001613fb2565b83901c60011690565b336001600160a01b037f000000000000000000000000000000000000000000000000000000000000000016146108da573360405163089676d560e01b81526004016102419190613d44565b7f00000000000000000000000000000000000000000000000000000000000000005c15155f036108da5760405163604dd39b60e11b815260040160405180910390fd5b6001600160a01b038181165f908152600e60205260409020541661096c57806040516385f4129960e01b81526004016102419190613d44565b5f3215801561089257506121cd600754612d5c565b15905090565b32155f036121f4576040516333fc255960e11b815260040160405180910390fd5b6001600160a01b038084165f908152600c602090815260408083209386168352929052908120805483929061222a908490613fb2565b9091555050505050565b610a308261224183612d66565b61224a906141b8565b612d70565b5f6001600160801b0383118061226b57506001600160801b0382115b15612289576040516389560ca160e01b815260040160405180910390fd5b6122938383612dea565b9392505050565b6001600160a01b0382166122c15760405163586d06df60e01b815260040160405180910390fd5b6001600160a01b0383165f908152600d60205260408120546122e4908390613f33565b90506122ef816124dd565b6001600160a01b038085165f908152600d60209081526040808320859055600c82528083209387168352929052908120805484929061232f908490613f33565b92505081905550826001600160a01b0316846001600160a01b03167f4e09f7f7fc37ce2897800e2c2a9099565edb0a133d19d84a6871b3530af8846b8460405161237b91815260200190565b60405180910390a350505050565b5f670de0b5cad2bef0008211156123b3576040516301d1b96560e61b815260040160405180910390fd5b6123c264174876e80083613ef3565b91506122938260186123d55f60016141d2565b6123e09060016141d2565b6123eb9060016141d2565b6123f69060016141d2565b6124019060016141d2565b61240c9060016141d2565b6124179060016141d2565b6124229060016141d2565b61242d9060016141d2565b6124389060016141d2565b6124439060016141d2565b61244e9060016141d2565b6124599060016141d2565b6124649060016141d2565b61246f9060016141d2565b61247a9060016141d2565b6124859060016141d2565b6124909060016141d2565b60ff1661249d9190613fb2565b8591906018612df9565b6124b26007546120ce565b156108da57604051630f27df0960e01b815260040160405180910390fd5b610a308261224a83612d66565b61271081101561096c57604051631a5edfd560e11b815260048101829052602401610241565b6001600160a01b0381165f818152600d6020908152604080832061271090819055600c8352818420848052835281842081905590519081529192915f5160206143c35f395f51905f52910160405180910390a350565b6001600160a01b03821661258057604051636df3588760e11b815260040160405180910390fd5b6001600160a01b0383165f908152600d60205260408120546125a3908390613fb2565b90506125ae816124dd565b6001600160a01b038085165f908152600d60209081526040808320859055600c8252808320938716835292905290812080548492906125ee908490613fb2565b92505081905550826001600160a01b0316846001600160a01b03165f5160206143c35f395f51905f528460405161237b91815260200190565b600754612635816001612981565b60078190556040519091507fbd204090fd387f08e3076528bf09b4fc99d8100d749eace96c06002d3fedc625905f90a150565b5f5f61267383611f79565b6109e08460801c90565b60075461268a8183612e1a565b600781905560405183151581529091507f300c7ca619eb846386aa0a6e5916ac2a41406448b0a2e99ba9ccafeb899015a590602001611f16565b6126cd81612e35565b61096c578060405163ef029adf60e01b81526004016102419190613d44565b8015155f036126fe576126fe82612e56565b6001600160a01b0382165f908152602081905260409020546127209082612e7a565b6001600160a01b0383165f81815260208181526040918290209390935551831515815290917fc2354cc2f78ea57777e55ddd43a7f22b112ce98868596880edaeb22b4f9c73a991015b60405180910390a25050565b6001600160a01b03811661278c57610a3082612e95565b336001600160a01b03821614610a30576040516323dada5360e01b815260040160405180910390fd5b6127bd612ed8565b61096c81612efe565b816001600160a01b031663ce20ece76040518163ffffffff1660e01b8152600401602060405180830381865afa158015612802573d5f5f3e3d5ffd5b505050506040513d601f19601f820116820180604052508101906128269190613f9b565b811015612846576040516317f640d160e31b815260040160405180910390fd5b816001600160a01b031663654cf15d6040518163ffffffff1660e01b8152600401602060405180830381865afa158015612882573d5f5f3e3d5ffd5b505050506040513d601f19601f820116820180604052508101906128a69190613f9b565b8111156128c657604051637f47834b60e01b815260040160405180910390fd5b6001600160a01b0382165f908152602081905260409020546128e89082612f27565b6001600160a01b0383165f8181526020818152604091829020939093555183815290917f89d41522342fabac1471ca6073a5623e5caf367b03ca6e9a001478d0cf8be4a19101612769565b5f5160206143a35f395f51905f525c90565b61294e81612e35565b1561096c578060405163346d760760e01b81526004016102419190613d44565b5f5f61297983613039565b509392505050565b5f60011983168217612293565b5f670de0b5cad2bef0008211156129b8576040516301d1b96560e61b815260040160405180910390fd5b6129c764174876e80083613ef3565b9150612293826018806129db5f60016141d2565b6129e69060016141d2565b6129f19060016141d2565b6129fc9060016141d2565b612a079060016141d2565b612a129060016141d2565b612a1d9060016141d2565b612a289060016141d2565b612a339060016141d2565b612a3e9060016141d2565b612a499060016141d2565b612a549060016141d2565b612a5f9060016141d2565b612a6a9060016141d2565b612a759060016141d2565b612a809060016141d2565b612a8b9060016141d2565b612a969060016141d2565b60ff16612aa39190613fb2565b61249d9190613fb2565b6001600160a01b038281165f908152600e6020526040902054811690821614610a30576040516336b18d0960e01b81526001600160a01b03808416600483015282166024820152604401610241565b5f815f03612b1d57604051630a0c22c760e01b815260040160405180910390fd5b5f612b288486613edc565b9050600183600183030401811515029150509392505050565b6009546040516326f8aa2160e21b81525f9161010090046001600160a01b031690639be2a88490612b7a908690869030906004016141eb565b602060405180830381865afa158015612b95573d5f5f3e3d5ffd5b505050506040513d601f19601f82011682018060405250810190612293919061420a565b5f6115bc6120e8826001613fb2565b5f61229382612bd8836001613fb2565b6001811b19861691901b1790565b80825d5050565b6001600160a01b0381165f9081526020819052604081205461229381612d5c565b6001600160a01b0381163303612c22575050565b610a3082612e95565b5f6115bc602860188080612c408660016141d2565b612c4b9060016141d2565b612c569060016141d2565b612c619060016141d2565b612c6c9060016141d2565b612c779060016141d2565b612c829060016141d2565b612c8d9060016141d2565b612c989060016141d2565b612ca39060016141d2565b612cae9060016141d2565b612cb99060016141d2565b612cc49060016141d2565b612ccf9060016141d2565b612cda9060016141d2565b612ce59060016141d2565b612cf09060016141d2565b612cfb9060016141d2565b60ff16612d089190613fb2565b612d129190613fb2565b612d1c9190613fb2565b612d269190613fb2565b839060206130b2565b5f61229382612d3f8360016141d2565b612d4a9060016141d2565b60ff1690811b600190911b1985161790565b5f600182166115bc565b5f6115bc826130c0565b805f03612d7b575050565b5f612d8e83612d886130d4565b906130f8565b90505f612d9b8383614229565b9050805f03612db957612db4612daf61310b565b61312f565b612dd0565b815f03612dd057612dd0612dcb61310b565b613145565b612de48482612ddd6130d4565b9190613154565b50505050565b5f61229383608084901b613fb2565b5f612e0584848461316c565b506001901b5f1901811b1992909216911b1790565b5f61229382612e2a836001613fb2565b612bd8906001613fb2565b6001600160a01b0381165f908152602081905260408120546115bc906131f2565b612e5e611f22565b612e7281612e6d836001613223565b6132a2565b61096c611f62565b5f61229382612e8a8360016141d2565b612d3f9060016141d2565b5f612eaa5f356001600160e01b031916611189565b9050612eb7813384613322565b15155f03610a30576040516323dada5360e01b815260040160405180910390fd5b612ee0611e00565b156108da576040516336a7e2cd60e21b815260040160405180910390fd5b612f078161296e565b1561096c578060405163d971f59760e01b81526004016102419190613d44565b5f670de0b5cad2bef000821115612f51576040516301d1b96560e61b815260040160405180910390fd5b612f6064174876e80083613ef3565b915061229382612f715f60016141d2565b612f7c9060016141d2565b612f879060016141d2565b612f929060016141d2565b612f9d9060016141d2565b612fa89060016141d2565b612fb39060016141d2565b612fbe9060016141d2565b612fc99060016141d2565b612fd49060016141d2565b612fdf9060016141d2565b612fea9060016141d2565b612ff59060016141d2565b6130009060016141d2565b61300b9060016141d2565b6130169060016141d2565b6130219060016141d2565b61302c9060016141d2565b85919060ff166018612df9565b6001600160a01b0381165f9081526020819052604081205481908161305d826133a2565b90505f61306983612c2b565b90508180156130a7575061309d7f000000000000000000000000000000000000000000000000000000000000000082614250565b63ffffffff164211155b969095509350505050565b6001901b5f190191901c1690565b5f5f82126130cc575090565b6107c76133b1565b7f000000000000000000000000000000000000000000000000000000000000000090565b5f8181526020839052604081205c612293565b7f000000000000000000000000000000000000000000000000000000000000000090565b61096c61313e6001835c613f33565b8290612be6565b61096c61313e825c6001613fb2565b5f828152602084905260409020611718908290611f5c565b610100821061318e57604051632d0483c560e21b815260040160405180910390fd5b600181101580156131b457506131b060ff6131ab84610100613f33565b6133be565b8111155b6131d157604051632d0483c560e21b815260040160405180910390fd5b82811c156117185760405163e4337c0560e01b815260040160405180910390fd5b5f6115bc6132018260016141d2565b61320c9060016141d2565b6132179060016141d2565b839060ff161c60011690565b6132626040518060e001604052805f81526020016060815260200160608152602001606081526020016060815260200160608152602001606081525090565b6001600160a01b0383165f90815260056020908152604080832083835281842054600484528285206003909452919093206115bc938593909291876133cd565b6001600160a01b0382165f908152600560205260408120905b826060015151811015612de45761330c836060015182815181106132e1576132e16140bb565b6020026020010151846080015183815181106132ff576132ff6140bb565b602002602001015161224f565b5f828152602084905260409020556001016132bb565b6009546040516326f8aa2160e21b81525f9161010090046001600160a01b031690639be2a8849061335b908790879087906004016141eb565b602060405180830381865afa158015613376573d5f5f3e3d5ffd5b505050506040513d601f19601f8201168201806040525081019061339a919061420a565b949350505050565b5f6115bc61320c8260016141d2565b6335278d125f526004601cfd5b5f818311828418028318612293565b815484875260408051602080840282018101909252828152908490839083018282801561342157602002820191905f5260205f20905b81546001600160a01b03168152600190910190602001808311613403575b50505050508760200181905250806001600160401b0381111561344657613446613fc5565b60405190808252806020026020018201604052801561348f57816020015b604080516060810182525f80825260208083018290529282015282525f199092019101816134645790505b506040880152806001600160401b038111156134ad576134ad613fc5565b6040519080825280602002602001820160405280156134d6578160200160208202803683370190505b506060880152806001600160401b038111156134f4576134f4613fc5565b60405190808252806020026020018201604052801561351d578160200160208202803683370190505b506080880152865161352f9082613789565b60c0880152806001600160401b0381111561354c5761354c613fc5565b604051908082528060200260200182016040528015613575578160200160208202803683370190505b5060a088015286515f9061358890613842565b801561359e57505f61359c895f0151613851565b115b80156135b2575087516135b0906131f2565b155b90505f5b8281101561377e575f865f8b6020015184815181106135d7576135d76140bb565b6020908102919091018101516001600160a01b0316825281019190915260409081015f208151606081019092528054829060ff16600181111561361c5761361c61426c565b600181111561362d5761362d61426c565b8152905461010081046001600160a01b0316602080840191909152600160a81b90910460ff1615156040928301525f858152908c905281902054908c01518051929350909183919085908110613685576136856140bb565b60200260200101819052506136998261394e565b8b60a0015184815181106136af576136af6140bb565b6020026020010181815250506136cf8b846136c984611f79565b89613a1d565b8315155f036136df575050613776565b5f8260400151801561370357506001835160018111156137015761370161426c565b145b90508015613772575f6137188d5f0151613851565b90505f8d606001518681518110613731576137316140bb565b602002602001015190505f6137518f61374a8760801c90565b8986613ada565b9050801561376e5761376e8f886137688486613f33565b8d613a1d565b5050505b5050505b6001016135b6565b505050505050505050565b60605f826001600160401b038111156137a4576137a4613fc5565b6040519080825280602002602001820160405280156137cd578160200160208202803683370190505b5090505f6137da85613b6f565b64ffffffffff1690505f5b84811015613838575f6138056137fc600584613edc565b849060056130b2565b905061381281600a614363565b848381518110613824576138246140bb565b6020908102919091010152506001016137e5565b5090949350505050565b5f6115bc6132178260016141d2565b5f64174876e8006139446018806138698560016141d2565b6138749060016141d2565b61387f9060016141d2565b61388a9060016141d2565b6138959060016141d2565b6138a09060016141d2565b6138ab9060016141d2565b6138b69060016141d2565b6138c19060016141d2565b6138cc9060016141d2565b6138d79060016141d2565b6138e29060016141d2565b6138ed9060016141d2565b6138f89060016141d2565b6139039060016141d2565b61390e9060016141d2565b6139199060016141d2565b6139249060016141d2565b60ff166139319190613fb2565b61393b9190613fb2565b849060186130b2565b6115bc9190613edc565b80515f90818160018111156139655761396561426c565b0361397a57670de0b6b3a76400009150613a17565b600181600181111561398e5761398e61426c565b036139fe5782602001516001600160a01b031663679aefce6040518163ffffffff1660e01b8152600401602060405180830381865afa1580156139d3573d5f5f3e3d5ffd5b505050506040513d601f19601f820116820180604052508101906139f79190613f9b565b9150613a17565b604051636fa2831960e11b815260040160405180910390fd5b50919050565b8184606001518481518110613a3457613a346140bb565b6020908102919091010152613d0d5f826001811115613a5557613a5561426c565b14613a6257613c67613a66565b613c7c5b9050613ab1838660c001518681518110613a8257613a826140bb565b60200260200101518760a001518781518110613aa057613aa06140bb565b60200260200101518463ffffffff16565b85608001518581518110613ac757613ac76140bb565b6020026020010181815250505050505050565b5f5f85608001518481518110613af257613af26140bb565b6020026020010151905084811115613b66575f613b1186830385613c8d565b9050613b628760c001518681518110613b2c57613b2c6140bb565b60200260200101518860a001518781518110613b4a57613b4a6140bb565b602002602001015183613cb99092919063ffffffff16565b9250505b50949350505050565b5f6115bc60188080613b828560016141d2565b613b8d9060016141d2565b613b989060016141d2565b613ba39060016141d2565b613bae9060016141d2565b613bb99060016141d2565b613bc49060016141d2565b613bcf9060016141d2565b613bda9060016141d2565b613be59060016141d2565b613bf09060016141d2565b613bfb9060016141d2565b613c069060016141d2565b613c119060016141d2565b613c1c9060016141d2565b613c279060016141d2565b613c329060016141d2565b613c3d9060016141d2565b60ff16613c4a9190613fb2565b613c549190613fb2565b613c5e9190613fb2565b839060286130b2565b5f61339a82613c768587613edc565b90613ccd565b5f61339a82613c8b8587613edc565b905b5f80613c998385613edc565b90506001670de0b6b3a76400006001830304018115150291505092915050565b5f61339a84613cc88486613edc565b613ced565b5f80613cd98385613edc565b905061339a670de0b6b3a764000082613ef3565b5f80613d01670de0b6b3a764000085613edc565b905061339a8382613ef3565b6108da61436e565b6001600160a01b038116811461096c575f5ffd5b5f60208284031215613d39575f5ffd5b813561229381613d15565b6001600160a01b0391909116815260200190565b5f5f5f5f5f60a08688031215613d6c575f5ffd5b8535613d7781613d15565b94506020860135935060408601359250606086013591506080860135613d9c81613d15565b809150509295509295909350565b5f5f60408385031215613dbb575f5ffd5b8235613dc681613d15565b946020939093013593505050565b5f60208284031215613de4575f5ffd5b81356001600160e01b031981168114612293575f5ffd5b5f8151808452602084019350602083015f5b82811015613e2b578151865260209586019590910190600101613e0d565b5093949350505050565b604081525f613e476040830185613dfb565b82810360208401526111318185613dfb565b5f5f60408385031215613e6a575f5ffd5b8235613e7581613d15565b91506020830135613e8581613d15565b809150509250929050565b5f5f5f5f60808587031215613ea3575f5ffd5b8435613eae81613d15565b966020860135965060408601359560600135945092505050565b634e487b7160e01b5f52601160045260245ffd5b80820281158282048414176115bc576115bc613ec8565b5f82613f0d57634e487b7160e01b5f52601260045260245ffd5b500490565b6001600160a01b039390931683526020830191909152604082015260600190565b818103818111156115bc576115bc613ec8565b6001600160a01b039384168152919092166020820152604081019190915260600190565b9283526020830191909152604082015260600190565b5f60208284031215613f90575f5ffd5b815161229381613d15565b5f60208284031215613fab575f5ffd5b5051919050565b808201808211156115bc576115bc613ec8565b634e487b7160e01b5f52604160045260245ffd5b604051601f8201601f191681016001600160401b038111828210171561400157614001613fc5565b604052919050565b5f60208284031215614019575f5ffd5b81516001600160401b0381111561402e575f5ffd5b8201601f8101841361403e575f5ffd5b80516001600160401b0381111561405757614057613fc5565b8060051b61406760208201613fd9565b91825260208184018101929081019087841115614082575f5ffd5b6020850194505b838510156140b0578451925061409e83613d15565b82825260209485019490910190614089565b979650505050505050565b634e487b7160e01b5f52603260045260245ffd5b602081525f82518060208401528060208501604085015e5f604082850101526040601f19601f83011684010191505092915050565b5f60208284031215614114575f5ffd5b81516001600160401b03811115614129575f5ffd5b8201601f81018413614139575f5ffd5b80516001600160401b0381111561415257614152613fc5565b614165601f8201601f1916602001613fd9565b818152856020838501011115614179575f5ffd5b8160208401602083015e5f91810160200191909152949350505050565b5f5f604083850312156141a7575f5ffd5b505080516020909101519092909150565b5f600160ff1b82016141cc576141cc613ec8565b505f0390565b60ff81811683821601908111156115bc576115bc613ec8565b9283526001600160a01b03918216602084015216604082015260600190565b5f6020828403121561421a575f5ffd5b81518015158114612293575f5ffd5b8082018281125f83128015821682158216171561424857614248613ec8565b505092915050565b63ffffffff81811683821601908111156115bc576115bc613ec8565b634e487b7160e01b5f52602160045260245ffd5b6001815b60018411156142bb5780850481111561429f5761429f613ec8565b60018416156142ad57908102905b60019390931c928002614284565b935093915050565b5f826142d1575060016115bc565b816142dd57505f6115bc565b81600181146142f357600281146142fd57614319565b60019150506115bc565b60ff84111561430e5761430e613ec8565b50506001821b6115bc565b5060208310610133831016604e8410600b841016171561433c575081810a6115bc565b6143485f198484614280565b805f190482111561435b5761435b613ec8565b029392505050565b5f61229383836142c3565b634e487b7160e01b5f52605160045260245ffdfe75c4dc5f23640eeba7d404d9165f515fc3d9e23a5c8b6e2d09b4b9da56ff00a99b779b17422d0df92223018b32b4d1fa46e071723d6817e2486d003becc55f00d66f031d33381c6408f0b32c884461e5de3df8808399b6f3a3d86b1368f8ec34a26469706673582212200e3166159eeb8ac7d29a70584ac1430b29cb9853f741e61cc69ab4995f455cfa64736f6c634300081e0033","linkReferences":{}},"methodIdentifiers":{"addLiquidityToBuffer(address,uint256,uint256,uint256,address)":"e2a92b1a","areBuffersPaused()":"55cba7fe","collectAggregateFees(address)":"8f4ab9ca","disableQuery()":"de1a36a6","disableQueryPermanently()":"821440f2","disableRecoveryMode(address)":"bffb78b2","enableQuery()":"e0d55605","enableRecoveryMode(address)":"dc3f574e","getActionId(bytes4)":"851c1bb3","getBufferAsset(address)":"0387587d","getBufferBalance(address)":"4021fe0f","getBufferMinimumTotalSupply()":"26a8a991","getBufferOwnerShares(address,address)":"9385e39a","getBufferPeriodDuration()":"20c1fb7a","getBufferPeriodEndTime()":"cd51c12f","getBufferTotalShares(address)":"f2784e07","getMaximumPoolTokens()":"2e42f4d5","getMinimumPoolTokens()":"a8175b27","getMinimumTradeAmount()":"e2cb0ba0","getMinimumWrapAmount()":"53956aa2","getPauseWindowEndTime()":"8a8d123a","getPoolMinimumTotalSupply()":"d0965a6b","getVaultPausedState()":"85c8c015","initializeBuffer(address,uint256,uint256,uint256,address)":"653eb3b0","isVaultPaused()":"098401f5","pausePool(address)":"55aca1ec","pauseVault()":"9e0879c2","pauseVaultBuffers()":"e085c5a8","reentrancyGuardEntered()":"d2c725e0","removeLiquidityFromBuffer(address,uint256,uint256,uint256)":"ebc7955c","removeLiquidityFromBufferHook(address,uint256,uint256,uint256,address)":"5dcacd64","setAuthorizer(address)":"058a628f","setProtocolFeeController(address)":"2d771389","setStaticSwapFeePercentage(address,uint256)":"d15126ba","unpausePool(address)":"f21c38cd","unpauseVault()":"0b7562be","unpauseVaultBuffers()":"b9212b49","updateAggregateSwapFeePercentage(address,uint256)":"5e0b06f4","updateAggregateYieldFeePercentage(address,uint256)":"e253670a","vault()":"fbfa77cf"},"id":344}