{"abi":[{"type":"function","name":"MAX_INVARIANT_RATIO","inputs":[],"outputs":[{"name":"","type":"uint256","internalType":"uint256"}],"stateMutability":"view"},{"type":"function","name":"MIN_INVARIANT_RATIO","inputs":[],"outputs":[{"name":"","type":"uint256","internalType":"uint256"}],"stateMutability":"view"},{"type":"error","name":"AssetBoundsExceeded","inputs":[]},{"type":"error","name":"DerivedDsqWrong","inputs":[]},{"type":"error","name":"DerivedTauAlphaNotNormalized","inputs":[]},{"type":"error","name":"DerivedTauAlphaYWrong","inputs":[]},{"type":"error","name":"DerivedTauBetaNotNormalized","inputs":[]},{"type":"error","name":"DerivedTauBetaYWrong","inputs":[]},{"type":"error","name":"DerivedTauXWrong","inputs":[]},{"type":"error","name":"DerivedUWrong","inputs":[]},{"type":"error","name":"DerivedVWrong","inputs":[]},{"type":"error","name":"DerivedWWrong","inputs":[]},{"type":"error","name":"DerivedZWrong","inputs":[]},{"type":"error","name":"InvariantDenominatorWrong","inputs":[]},{"type":"error","name":"MaxAssetsExceeded","inputs":[]},{"type":"error","name":"MaxInvariantExceeded","inputs":[]},{"type":"error","name":"RotationVectorCWrong","inputs":[]},{"type":"error","name":"RotationVectorNotNormalized","inputs":[]},{"type":"error","name":"RotationVectorSWrong","inputs":[]},{"type":"error","name":"StretchingFactorWrong","inputs":[]}],"bytecode":{"object":"0x60a46032600b8282823980515f1a607314602657634e487b7160e01b5f525f60045260245ffd5b305f52607381538281f3fe7300000000000000000000000000000000000000003014608060405260043610603c575f3560e01c8063771308ba146040578063ac225ef8146060575b5f5ffd5b604e674563918244f4000081565b60405190815260200160405180910390f35b604e670853a0d2313c00008156fea2646970667358221220c45fa53dd6a57fa4522f293268565c2f7cd1d3ebf14bb2f887be662b08b1fbec64736f6c634300081e0033","linkReferences":{}},"methodIdentifiers":{"MAX_INVARIANT_RATIO()":"771308ba","MIN_INVARIANT_RATIO()":"ac225ef8"},"id":126}