{"abi":[{"type":"function","name":"computeAddLiquiditySingleTokenExactOut","inputs":[{"name":"currentBalances","type":"uint256[]","internalType":"uint256[]"},{"name":"tokenInIndex","type":"uint256","internalType":"uint256"},{"name":"exactBptAmountOut","type":"uint256","internalType":"uint256"},{"name":"totalSupply","type":"uint256","internalType":"uint256"},{"name":"swapFeePercentage","type":"uint256","internalType":"uint256"}],"outputs":[{"name":"amountInWithFee","type":"uint256","internalType":"uint256"},{"name":"swapFeeAmounts","type":"uint256[]","internalType":"uint256[]"}],"stateMutability":"view"},{"type":"function","name":"computeAddLiquidityUnbalanced","inputs":[{"name":"currentBalances","type":"uint256[]","internalType":"uint256[]"},{"name":"exactAmounts","type":"uint256[]","internalType":"uint256[]"},{"name":"totalSupply","type":"uint256","internalType":"uint256"},{"name":"swapFeePercentage","type":"uint256","internalType":"uint256"}],"outputs":[{"name":"bptAmountOut","type":"uint256","internalType":"uint256"},{"name":"swapFeeAmounts","type":"uint256[]","internalType":"uint256[]"}],"stateMutability":"view"},{"type":"function","name":"computeBalance","inputs":[{"name":"balancesLiveScaled18","type":"uint256[]","internalType":"uint256[]"},{"name":"tokenInIndex","type":"uint256","internalType":"uint256"},{"name":"invariantRatio","type":"uint256","internalType":"uint256"}],"outputs":[{"name":"newBalance","type":"uint256","internalType":"uint256"}],"stateMutability":"pure"},{"type":"function","name":"computeInvariant","inputs":[{"name":"balancesLiveScaled18","type":"uint256[]","internalType":"uint256[]"},{"name":"rounding","type":"uint8","internalType":"enum Rounding"}],"outputs":[{"name":"invariant","type":"uint256","internalType":"uint256"}],"stateMutability":"pure"},{"type":"function","name":"computeProportionalAmountsIn","inputs":[{"name":"balances","type":"uint256[]","internalType":"uint256[]"},{"name":"bptTotalSupply","type":"uint256","internalType":"uint256"},{"name":"bptAmountOut","type":"uint256","internalType":"uint256"}],"outputs":[{"name":"","type":"uint256[]","internalType":"uint256[]"}],"stateMutability":"pure"},{"type":"function","name":"computeProportionalAmountsOut","inputs":[{"name":"balances","type":"uint256[]","internalType":"uint256[]"},{"name":"bptTotalSupply","type":"uint256","internalType":"uint256"},{"name":"bptAmountIn","type":"uint256","internalType":"uint256"}],"outputs":[{"name":"","type":"uint256[]","internalType":"uint256[]"}],"stateMutability":"pure"},{"type":"function","name":"computeRemoveLiquiditySingleTokenExactIn","inputs":[{"name":"currentBalances","type":"uint256[]","internalType":"uint256[]"},{"name":"tokenOutIndex","type":"uint256","internalType":"uint256"},{"name":"exactBptAmountIn","type":"uint256","internalType":"uint256"},{"name":"totalSupply","type":"uint256","internalType":"uint256"},{"name":"swapFeePercentage","type":"uint256","internalType":"uint256"}],"outputs":[{"name":"amountOutWithFee","type":"uint256","internalType":"uint256"},{"name":"swapFeeAmounts","type":"uint256[]","internalType":"uint256[]"}],"stateMutability":"view"},{"type":"function","name":"computeRemoveLiquiditySingleTokenExactOut","inputs":[{"name":"currentBalances","type":"uint256[]","internalType":"uint256[]"},{"name":"tokenOutIndex","type":"uint256","internalType":"uint256"},{"name":"exactAmountOut","type":"uint256","internalType":"uint256"},{"name":"totalSupply","type":"uint256","internalType":"uint256"},{"name":"swapFeePercentage","type":"uint256","internalType":"uint256"}],"outputs":[{"name":"bptAmountIn","type":"uint256","internalType":"uint256"},{"name":"swapFeeAmounts","type":"uint256[]","internalType":"uint256[]"}],"stateMutability":"view"},{"type":"function","name":"getMaximumInvariantRatio","inputs":[],"outputs":[{"name":"","type":"uint256","internalType":"uint256"}],"stateMutability":"pure"},{"type":"function","name":"getMaximumSwapFeePercentage","inputs":[],"outputs":[{"name":"","type":"uint256","internalType":"uint256"}],"stateMutability":"pure"},{"type":"function","name":"getMinimumInvariantRatio","inputs":[],"outputs":[{"name":"","type":"uint256","internalType":"uint256"}],"stateMutability":"pure"},{"type":"function","name":"getMinimumSwapFeePercentage","inputs":[],"outputs":[{"name":"","type":"uint256","internalType":"uint256"}],"stateMutability":"pure"},{"type":"function","name":"onSwap","inputs":[{"name":"","type":"tuple","internalType":"struct PoolSwapParams","components":[{"name":"kind","type":"uint8","internalType":"enum SwapKind"},{"name":"amountGivenScaled18","type":"uint256","internalType":"uint256"},{"name":"balancesScaled18","type":"uint256[]","internalType":"uint256[]"},{"name":"indexIn","type":"uint256","internalType":"uint256"},{"name":"indexOut","type":"uint256","internalType":"uint256"},{"name":"router","type":"address","internalType":"address"},{"name":"userData","type":"bytes","internalType":"bytes"}]}],"outputs":[{"name":"","type":"uint256","internalType":"uint256"}],"stateMutability":"pure"},{"type":"error","name":"InvariantRatioAboveMax","inputs":[{"name":"invariantRatio","type":"uint256","internalType":"uint256"},{"name":"maxInvariantRatio","type":"uint256","internalType":"uint256"}]},{"type":"error","name":"InvariantRatioBelowMin","inputs":[{"name":"invariantRatio","type":"uint256","internalType":"uint256"},{"name":"minInvariantRatio","type":"uint256","internalType":"uint256"}]},{"type":"error","name":"ZeroDivision","inputs":[]}],"bytecode":{"object":"0x6080604052348015600e575f5ffd5b506116f38061001c5f395ff3fe608060405234801561000f575f5ffd5b50600436106100ad575f3560e01c806316a0b3e0146100b1578063273c1adf146100d75780633ab05915146100e7578063654cf15d1461010857806372c981861461011657806385d5261a14610129578063984de9e81461013c5780639a87ffbf1461014f578063b677fa5614610162578063c548e4d814610168578063ce20ece714610162578063d9c7cc7a14610188578063da3179801461019b575b5f5ffd5b6100c46100bf366004611331565b6101ae565b6040519081526020015b60405180910390f35b69d3c21bcecceda10000006100c4565b6100fa6100f536600461137a565b61023f565b6040516100ce92919061140b565b670de0b6b3a76400006100c4565b6100c4610124366004611423565b61025e565b6100fa61013736600461137a565b61029a565b6100c461014a366004611459565b6102ab565b6100fa61015d36600461137a565b6103b7565b5f6100c4565b61017b610176366004611331565b6103c8565b6040516100ce91906114aa565b6100fa6101963660046114bc565b6103dd565b61017b6101a9366004611331565b6103fa565b5f83516002146101d95760405162461bcd60e51b81526004016101d09061152e565b60405180910390fd5b5f83156101e6575f6101e9565b60015b60ff1690505f610203846101fd885f6102ab565b90610407565b905085828151811061021757610217611584565b6020026020010151818261022b91906115ac565b61023591906115d7565b9695505050505050565b5f6060610250878787878730610433565b915091509550959350505050565b60405162461bcd60e51b815260206004820152600f60248201526e139bdd081a5b5c1b195b595b9d1959608a1b60448201525f906064016101d0565b5f60606102508787878787306105c0565b5f82516002146102cd5760405162461bcd60e51b81526004016101d09061152e565b60018260018111156102e1576102e16115ea565b0361034d5761032c836001815181106102fc576102fc611584565b6020026020010151845f8151811061031657610316611584565b602002602001015161075790919063ffffffff16565b9050610338815f610777565b61034690633b9aca006115ac565b90506103b1565b6103938360018151811061036357610363611584565b6020026020010151845f8151811061037d5761037d611584565b602002602001015161040790919063ffffffff16565b90506103a0816001610777565b6103ae90633b9aca006115ac565b90505b92915050565b5f60606102508787878787306107b1565b60606103d5848484610b2e565b949350505050565b5f60606103ed8686868630610bdb565b9150915094509492505050565b60606103d5848484610f8f565b5f8061041383856115ac565b90506001670de0b6b3a76400006001830304018115150291505092915050565b5f60608161044187876115fe565b90505f61044e8288611036565b905061045a858261104a565b60405162b5059f60e51b81525f906001600160a01b038716906316a0b3e09061048b908e908e908790600401611611565b602060405180830381865afa1580156104a6573d5f5f3e3d5ffd5b505050506040513d601f19601f820116820180604052508101906104ca9190611635565b90505f818c8c815181106104e0576104e0611584565b60200260200101516104f291906115fe565b90505f6105238d8d8151811061050a5761050a611584565b60200260200101518b876110dd9092919063ffffffff16565b90505f61053084836115fe565b90505f61053d828c610407565b90508e516001600160401b0381111561055857610558611281565b604051908082528060200260200182016040528015610581578160200160208202803683370190505b50975080888f8151811061059757610597611584565b60209081029190910101526105ac81856115fe565b985050505050505050965096945050505050565b5f6060816105ce868861164c565b90505f6105db8288611036565b90506105e78582611122565b60405162b5059f60e51b81525f906001600160a01b038716906316a0b3e090610618908e908e908790600401611611565b602060405180830381865afa158015610633573d5f5f3e3d5ffd5b505050506040513d601f19601f820116820180604052508101906106579190611635565b90505f8b8b8151811061066c5761066c611584565b60200260200101518261067f91906115fe565b90505f898d8d8151811061069557610695611584565b6020026020010151866106a891906115ac565b6106b291906115d7565b90505f6106bf82856115fe565b90505f816106de670de0b6b3a76400008d8103908e10025b8490611036565b6106e891906115fe565b90508e516001600160401b0381111561070357610703611281565b60405190808252806020026020018201604052801561072c578160200160208202803683370190505b50975080888f8151811061074257610742611584565b60209081029190910101526105ac818561164c565b5f8061076383856115ac565b90506103d5670de0b6b3a7640000826115d7565b5f5f610782846111b0565b905061078d83611235565b80156107a157508361079f82806115ac565b105b156103ae576103d560018261164c565b85515f9060609082816001600160401b038111156107d1576107d1611281565b6040519080825280602002602001820160405280156107fa578160200160208202803683370190505b5090505f5b828110156108525760018b828151811061081b5761081b611584565b602002602001015161082d91906115fe565b82828151811061083f5761083f611584565b60209081029190910101526001016107ff565b5087818a8151811061086657610866611584565b602002602001015161087891906115fe565b818a8151811061088a5761088a611584565b6020908102919091010152604051631309bd3d60e31b81525f906001600160a01b0387169063984de9e8906108c5908e90859060040161165f565b602060405180830381865afa1580156108e0573d5f5f3e3d5ffd5b505050506040513d601f19601f820116820180604052508101906109049190611635565b90505f61097e82886001600160a01b031663984de9e8865f6040518363ffffffff1660e01b815260040161093992919061165f565b602060405180830381865afa158015610954573d5f5f3e3d5ffd5b505050506040513d601f19601f820116820180604052508101906109789190611635565b90611036565b905061098a878261104a565b5f838c8151811061099d5761099d611584565b60200260200101516109d18e8e815181106109ba576109ba611584565b60200260200101518461040790919063ffffffff16565b6109db91906115fe565b90505f816109f7670de0b6b3a76400008c8103908d10026106d7565b610a0191906115fe565b905080858e81518110610a1657610a16611584565b6020026020010151610a2891906115fe565b858e81518110610a3a57610a3a611584565b6020908102919091010152604051631309bd3d60e31b81525f906001600160a01b038b169063984de9e890610a7690899060019060040161165f565b602060405180830381865afa158015610a91573d5f5f3e3d5ffd5b505050506040513d601f19601f82011682018060405250810190610ab59190611635565b9050866001600160401b03811115610acf57610acf611281565b604051908082528060200260200182016040528015610af8578160200160208202803683370190505b50975081888f81518110610b0e57610b0e611584565b60209081029190910101526105ac610b2682876115fe565b8d90876110dd565b606083516001600160401b03811115610b4957610b49611281565b604051908082528060200260200182016040528015610b72578160200160208202803683370190505b5090505f5b8451811015610bd357610bae8385878481518110610b9757610b97611584565b60200260200101516110dd9092919063ffffffff16565b828281518110610bc057610bc0611584565b6020908102919091010152600101610b77565b509392505050565b84515f9060609082816001600160401b03811115610bfb57610bfb611281565b604051908082528060200260200182016040528015610c24578160200160208202803683370190505b509050816001600160401b03811115610c3f57610c3f611281565b604051908082528060200260200182016040528015610c68578160200160208202803683370190505b5092505f5b82811015610ce4576001898281518110610c8957610c89611584565b60200260200101518b8381518110610ca357610ca3611584565b6020026020010151610cb5919061164c565b610cbf91906115fe565b828281518110610cd157610cd1611584565b6020908102919091010152600101610c6d565b50604051631309bd3d60e31b81525f906001600160a01b0387169063984de9e890610d15908d90859060040161165f565b602060405180830381865afa158015610d30573d5f5f3e3d5ffd5b505050506040513d601f19601f82011682018060405250810190610d549190611635565b90505f610dcf82886001600160a01b031663984de9e88660016040518363ffffffff1660e01b8152600401610d8a92919061165f565b602060405180830381865afa158015610da5573d5f5f3e3d5ffd5b505050506040513d601f19601f82011682018060405250810190610dc99190611635565b90611261565b9050610ddb8782611122565b5f5b84811015610eec575f610e128d8381518110610dfb57610dfb611584565b60200260200101518461075790919063ffffffff16565b905080858381518110610e2757610e27611584565b60200260200101511115610ee3575f81868481518110610e4957610e49611584565b6020026020010151039050610e678b8261040790919063ffffffff16565b888481518110610e7957610e79611584565b602002602001018181525050878381518110610e9757610e97611584565b6020026020010151868481518110610eb157610eb1611584565b6020026020010151610ec391906115fe565b868481518110610ed557610ed5611584565b602002602001018181525050505b50600101610ddd565b50604051631309bd3d60e31b81525f906001600160a01b0389169063984de9e890610f1e90879060019060040161165f565b602060405180830381865afa158015610f39573d5f5f3e3d5ffd5b505050506040513d601f19601f82011682018060405250810190610f5d9190611635565b905082610f6a81836115fe565b610f74908c6115ac565b610f7e91906115d7565b965050505050509550959350505050565b606083516001600160401b03811115610faa57610faa611281565b604051908082528060200260200182016040528015610fd3578160200160208202803683370190505b5090505f5b8451811015610bd3578383868381518110610ff557610ff5611584565b602002602001015161100791906115ac565b61101191906115d7565b82828151811061102357611023611584565b6020908102919091010152600101610fd8565b5f6103ae83670de0b6b3a7640000846110dd565b5f826001600160a01b031663b677fa566040518163ffffffff1660e01b8152600401602060405180830381865afa158015611087573d5f5f3e3d5ffd5b505050506040513d601f19601f820116820180604052508101906110ab9190611635565b9050808210156110d85760405163718e4adf60e11b815260048101839052602481018290526044016101d0565b505050565b5f815f036110fe57604051630a0c22c760e01b815260040160405180910390fd5b5f61110984866115ac565b9050600183600183030401811515029150509392505050565b5f826001600160a01b031663273c1adf6040518163ffffffff1660e01b8152600401602060405180830381865afa15801561115f573d5f5f3e3d5ffd5b505050506040513d601f19601f820116820180604052508101906111839190611635565b9050808211156110d857604051630fa2583760e21b815260048101839052602481018290526044016101d0565b5f6103b1826001600160881b03811160071b81811c6001600160481b031060061b1781811c64ffffffffff1060051b1781811c62ffffff1060041b1781811c620100000160b5600192831c1b0260121c80830401811c80830401811c80830401811c80830401811c80830401811c80830401811c80830401901c908190048111900390565b5f600282600381111561124a5761124a6115ea565b611254919061169c565b60ff166001149050919050565b5f80611275670de0b6b3a7640000856115ac565b90506103d583826115d7565b634e487b7160e01b5f52604160045260245ffd5b5f82601f8301126112a4575f5ffd5b81356001600160401b038111156112bd576112bd611281565b604051600582901b90603f8201601f191681016001600160401b03811182821017156112eb576112eb611281565b604052918252602081850181019290810186841115611308575f5ffd5b6020860192505b8383101561132757823581526020928301920161130f565b5095945050505050565b5f5f5f60608486031215611343575f5ffd5b83356001600160401b03811115611358575f5ffd5b61136486828701611295565b9660208601359650604090950135949350505050565b5f5f5f5f5f60a0868803121561138e575f5ffd5b85356001600160401b038111156113a3575f5ffd5b6113af88828901611295565b9860208801359850604088013597606081013597506080013595509350505050565b5f8151808452602084019350602083015f5b828110156114015781518652602095860195909101906001016113e3565b5093949350505050565b828152604060208201525f6103d560408301846113d1565b5f60208284031215611433575f5ffd5b81356001600160401b03811115611448575f5ffd5b820160e081850312156103ae575f5ffd5b5f5f6040838503121561146a575f5ffd5b82356001600160401b0381111561147f575f5ffd5b61148b85828601611295565b92505060208301356002811061149f575f5ffd5b809150509250929050565b602081525f6103ae60208301846113d1565b5f5f5f5f608085870312156114cf575f5ffd5b84356001600160401b038111156114e4575f5ffd5b6114f087828801611295565b94505060208501356001600160401b0381111561150b575f5ffd5b61151787828801611295565b949794965050505060408301359260600135919050565b60208082526036908201527f556e6973776170563242617365506f6f6c4d6174684d6f636b3a204f6e6c79206040820152750c881d1bdad95b9cc8185c99481cdd5c1c1bdc9d195960521b606082015260800190565b634e487b7160e01b5f52603260045260245ffd5b634e487b7160e01b5f52601160045260245ffd5b80820281158282048414176103b1576103b1611598565b634e487b7160e01b5f52601260045260245ffd5b5f826115e5576115e56115c3565b500490565b634e487b7160e01b5f52602160045260245ffd5b818103818111156103b1576103b1611598565b606081525f61162360608301866113d1565b60208301949094525060400152919050565b5f60208284031215611645575f5ffd5b5051919050565b808201808211156103b1576103b1611598565b604081525f61167160408301856113d1565b90506002831061168f57634e487b7160e01b5f52602160045260245ffd5b8260208301529392505050565b5f60ff8316806116ae576116ae6115c3565b8060ff8416069150509291505056fea2646970667358221220e49e33a48d452931c08672178ab463bf8dd2e9cbb1fc50ca9f3556c6ed4d230664736f6c634300081e0033","linkReferences":{}},"methodIdentifiers":{"computeAddLiquiditySingleTokenExactOut(uint256[],uint256,uint256,uint256,uint256)":"85d5261a","computeAddLiquidityUnbalanced(uint256[],uint256[],uint256,uint256)":"d9c7cc7a","computeBalance(uint256[],uint256,uint256)":"16a0b3e0","computeInvariant(uint256[],uint8)":"984de9e8","computeProportionalAmountsIn(uint256[],uint256,uint256)":"c548e4d8","computeProportionalAmountsOut(uint256[],uint256,uint256)":"da317980","computeRemoveLiquiditySingleTokenExactIn(uint256[],uint256,uint256,uint256,uint256)":"3ab05915","computeRemoveLiquiditySingleTokenExactOut(uint256[],uint256,uint256,uint256,uint256)":"9a87ffbf","getMaximumInvariantRatio()":"273c1adf","getMaximumSwapFeePercentage()":"654cf15d","getMinimumInvariantRatio()":"b677fa56","getMinimumSwapFeePercentage()":"ce20ece7","onSwap((uint8,uint256,uint256[],uint256,uint256,address,bytes))":"72c98186"},"id":225}