{"abi":[{"type":"function","name":"computeBalance","inputs":[{"name":"balancesLiveScaled18","type":"uint256[]","internalType":"uint256[]"},{"name":"tokenInIndex","type":"uint256","internalType":"uint256"},{"name":"invariantRatio","type":"uint256","internalType":"uint256"}],"outputs":[{"name":"newBalance","type":"uint256","internalType":"uint256"}],"stateMutability":"view"},{"type":"function","name":"computeInvariant","inputs":[{"name":"balancesLiveScaled18","type":"uint256[]","internalType":"uint256[]"},{"name":"rounding","type":"uint8","internalType":"enum Rounding"}],"outputs":[{"name":"invariant","type":"uint256","internalType":"uint256"}],"stateMutability":"view"},{"type":"function","name":"getAmplificationParameter","inputs":[],"outputs":[{"name":"value","type":"uint256","internalType":"uint256"},{"name":"isUpdating","type":"bool","internalType":"bool"},{"name":"precision","type":"uint256","internalType":"uint256"}],"stateMutability":"view"},{"type":"function","name":"getAmplificationState","inputs":[],"outputs":[{"name":"startValue","type":"uint256","internalType":"uint256"},{"name":"endValue","type":"uint256","internalType":"uint256"},{"name":"startTime","type":"uint256","internalType":"uint256"},{"name":"endTime","type":"uint256","internalType":"uint256"},{"name":"precision","type":"uint256","internalType":"uint256"}],"stateMutability":"view"},{"type":"function","name":"onSwap","inputs":[{"name":"params","type":"tuple","internalType":"struct PoolSwapParams","components":[{"name":"kind","type":"uint8","internalType":"enum SwapKind"},{"name":"amountGivenScaled18","type":"uint256","internalType":"uint256"},{"name":"balancesScaled18","type":"uint256[]","internalType":"uint256[]"},{"name":"indexIn","type":"uint256","internalType":"uint256"},{"name":"indexOut","type":"uint256","internalType":"uint256"},{"name":"router","type":"address","internalType":"address"},{"name":"userData","type":"bytes","internalType":"bytes"}]}],"outputs":[{"name":"amountCalculatedScaled18","type":"uint256","internalType":"uint256"}],"stateMutability":"view"},{"type":"error","name":"StableComputeBalanceDidNotConverge","inputs":[]},{"type":"error","name":"StableInvariantDidNotConverge","inputs":[]},{"type":"error","name":"ZeroDivision","inputs":[]}],"bytecode":{"object":"0x6080604052348015600e575f5ffd5b50610c808061001c5f395ff3fe608060405234801561000f575f5ffd5b5060043610610055575f3560e01c806316a0b3e01461005957806321da5e191461007f5780636daccffa146100af57806372c98186146100d2578063984de9e8146100e5575b5f5ffd5b61006c610067366004610a54565b6100f8565b6040519081526020015b60405180910390f35b610087610145565b604080519586526020860194909452928401919091526060830152608082015260a001610076565b6100b7610165565b60408051938452911515602084015290820152606001610076565b61006c6100e0366004610a9d565b61017e565b61006c6100f3366004610ae9565b6102b6565b5f5f610102610308565b5090505f6101108287610322565b9050801561012657610123816001610b4b565b90505b61013b828761013584886104cc565b886104f8565b9695505050505050565b5f5f5f5f5f610152610739565b929891975095509093506103e892509050565b5f5f5f610170610308565b90949093506103e892509050565b5f5f610188610308565b5090505f6101d38261019d6040870187610b5e565b808060200260200160405190810160405280939291908181526020018383602002808284375f9201919091525061032292505050565b90505f6101e36020860186610bbe565b60018111156101f4576101f4610baa565b036102565761024f8261020a6040870187610b5e565b808060200260200160405190810160405280939291908181526020018383602002808284375f9201919091525050505060608701356080880135602089013586610789565b92506102af565b6102ac826102676040870187610b5e565b808060200260200160405190810160405280939291908181526020018383602002808284375f9201919091525050505060608701356080880135602089013586610825565b92505b5050919050565b5f5f6102c0610308565b5090506102cd8185610322565b91505f821180156102ee57505f8360018111156102ec576102ec610baa565b145b15610301576102fe826001610b4b565b91505b5092915050565b5f5f61031a6103156108b4565b6108d8565b915091509091565b80515f908190815b818110156103615784818151811061034457610344610bd9565b6020026020010151836103579190610b4b565b925060010161032a565b50815f03610373575f925050506104c6565b5f82816103808489610bed565b90505f5b60ff8110156104ad57825f5b868110156103db57868a82815181106103ab576103ab610bd9565b60200260200101516103bd9190610bed565b6103c78684610bed565b6103d19190610c18565b9150600101610390565b50839450808660016103ed9190610b4b565b6103f79190610bed565b6103e8856104058287610c37565b61040f9190610bed565b6104199190610c18565b6104239190610b4b565b8461042e8884610bed565b6103e861043b8b88610bed565b6104459190610c18565b61044f9190610b4b565b6104599190610bed565b6104639190610c18565b93508484111561048b5760018585031161048657839750505050505050506104c6565b6104a4565b6001848603116104a457839750505050505050506104c6565b50600101610384565b506040516208651960e51b815260040160405180910390fd5b92915050565b5f806104d88385610bed565b90506001670de0b6b3a76400006001830304018115150291505092915050565b82515f90816105078288610bed565b90505f865f8151811061051c5761051c610bd9565b602002602001015190505f83885f8151811061053a5761053a610bd9565b602002602001015161054c9190610bed565b905060015b848110156105c55787858a838151811061056d5761056d610bd9565b6020026020010151846105809190610bed565b61058a9190610bed565b6105949190610c18565b91508881815181106105a8576105a8610bd9565b6020026020010151836105bb9190610b4b565b9250600101610551565b508786815181106105d8576105d8610bd9565b6020026020010151826105eb9190610c37565b91505f6105f88880610bed565b90505f89888151811061060d5761060d610bd9565b602002602001015161063684876106249190610bed565b6106306103e886610bed565b90610972565b6106409190610bed565b90505f856106506103e88c610bed565b61065a9190610c18565b6106649086610b4b565b90505f8061067f610675848e610b4b565b6106308688610b4b565b90505f5b60ff811015610717578192506106ca8d858460026106a19190610bed565b6106ab9190610b4b565b6106b59190610c37565b866106c08580610bed565b6106309190610b4b565b9150828211156106f4576001838303116106ef57509850610731975050505050505050565b61070f565b60018284031161070f57509850610731975050505050505050565b600101610683565b5060405163372f681760e21b815260040160405180910390fd5b949350505050565b5f5f5f5f61077b6107486108b4565b546001600160401b0380821692600160401b83049091169163ffffffff600160801b8204811692600160a01b9092041690565b935093509350935090919293565b5f8286868151811061079d5761079d610bd9565b602002602001018181516107b19190610b4b565b9052505f6107c1888885886104f8565b9050838787815181106107d6576107d6610bd9565b6020026020010181815103915081815250506001818887815181106107fd576107fd610bd9565b602002602001015161080f9190610c37565b6108199190610c37565b98975050505050505050565b5f8286858151811061083957610839610bd9565b6020026020010181815161084d9190610c37565b9052505f61085d888885896104f8565b90508387868151811061087257610872610bd9565b60200260200101818151019150818152505086868151811061089657610896610bd9565b6020026020010151816108a99190610c37565b610819906001610b4b565b7f4069f3526645903a5a030f5bf0c2cdf6b41ae31fd783d174908193a7b8ff234390565b80545f9081906001600160401b0380821691600160401b81049091169063ffffffff600160801b8204811691600160a01b9004164281111561096257600194508383111561094157818103824203858503028161093757610937610c04565b0484019550610969565b818103824203848603028161095857610958610c04565b0484039550610969565b5f94508295505b50505050915091565b5f815f0361099357604051630a0c22c760e01b815260040160405180910390fd5b508115155f19909201046001010290565b634e487b7160e01b5f52604160045260245ffd5b5f82601f8301126109c7575f5ffd5b81356001600160401b038111156109e0576109e06109a4565b604051600582901b90603f8201601f191681016001600160401b0381118282101715610a0e57610a0e6109a4565b604052918252602081850181019290810186841115610a2b575f5ffd5b6020860192505b83831015610a4a578235815260209283019201610a32565b5095945050505050565b5f5f5f60608486031215610a66575f5ffd5b83356001600160401b03811115610a7b575f5ffd5b610a87868287016109b8565b9660208601359650604090950135949350505050565b5f60208284031215610aad575f5ffd5b81356001600160401b03811115610ac2575f5ffd5b820160e08185031215610ad3575f5ffd5b9392505050565b60028110610ae6575f5ffd5b50565b5f5f60408385031215610afa575f5ffd5b82356001600160401b03811115610b0f575f5ffd5b610b1b858286016109b8565b9250506020830135610b2c81610ada565b809150509250929050565b634e487b7160e01b5f52601160045260245ffd5b808201808211156104c6576104c6610b37565b5f5f8335601e19843603018112610b73575f5ffd5b8301803591506001600160401b03821115610b8c575f5ffd5b6020019150600581901b3603821315610ba3575f5ffd5b9250929050565b634e487b7160e01b5f52602160045260245ffd5b5f60208284031215610bce575f5ffd5b8135610ad381610ada565b634e487b7160e01b5f52603260045260245ffd5b80820281158282048414176104c6576104c6610b37565b634e487b7160e01b5f52601260045260245ffd5b5f82610c3257634e487b7160e01b5f52601260045260245ffd5b500490565b818103818111156104c6576104c6610b3756fea26469706673582212207a746e0d480a544ada354838e9221c737542af5fe7d2706f95a92a9d7032663464736f6c634300081e0033","linkReferences":{}},"methodIdentifiers":{"computeBalance(uint256[],uint256,uint256)":"16a0b3e0","computeInvariant(uint256[],uint8)":"984de9e8","getAmplificationParameter()":"6daccffa","getAmplificationState()":"21da5e19","onSwap((uint8,uint256,uint256[],uint256,uint256,address,bytes))":"72c98186"},"id":876}