{"abi":[{"type":"function","name":"facetFuncs","inputs":[],"outputs":[{"name":"funcs","type":"bytes4[]","internalType":"bytes4[]"}],"stateMutability":"pure"},{"type":"function","name":"facetInterfaces","inputs":[],"outputs":[{"name":"interfaces","type":"bytes4[]","internalType":"bytes4[]"}],"stateMutability":"pure"},{"type":"function","name":"facetMetadata","inputs":[],"outputs":[{"name":"name_","type":"string","internalType":"string"},{"name":"interfaces","type":"bytes4[]","internalType":"bytes4[]"},{"name":"functions","type":"bytes4[]","internalType":"bytes4[]"}],"stateMutability":"pure"},{"type":"function","name":"facetName","inputs":[],"outputs":[{"name":"name","type":"string","internalType":"string"}],"stateMutability":"pure"},{"type":"function","name":"getPoolTokenCountAndIndexOfToken","inputs":[{"name":"pool","type":"address","internalType":"address"},{"name":"token","type":"address","internalType":"contract IERC20"}],"outputs":[{"name":"","type":"uint256","internalType":"uint256"},{"name":"","type":"uint256","internalType":"uint256"}],"stateMutability":"view"},{"type":"function","name":"swap","inputs":[{"name":"vaultSwapParams","type":"tuple","internalType":"struct VaultSwapParams","components":[{"name":"kind","type":"uint8","internalType":"enum SwapKind"},{"name":"pool","type":"address","internalType":"address"},{"name":"tokenIn","type":"address","internalType":"contract IERC20"},{"name":"tokenOut","type":"address","internalType":"contract IERC20"},{"name":"amountGivenRaw","type":"uint256","internalType":"uint256"},{"name":"limitRaw","type":"uint256","internalType":"uint256"},{"name":"userData","type":"bytes","internalType":"bytes"}]}],"outputs":[{"name":"amountCalculated","type":"uint256","internalType":"uint256"},{"name":"amountIn","type":"uint256","internalType":"uint256"},{"name":"amountOut","type":"uint256","internalType":"uint256"}],"stateMutability":"nonpayable"},{"type":"event","name":"AggregateSwapFeePercentageChanged","inputs":[{"name":"pool","type":"address","indexed":true,"internalType":"address"},{"name":"aggregateSwapFeePercentage","type":"uint256","indexed":false,"internalType":"uint256"}],"anonymous":false},{"type":"event","name":"AggregateYieldFeePercentageChanged","inputs":[{"name":"pool","type":"address","indexed":true,"internalType":"address"},{"name":"aggregateYieldFeePercentage","type":"uint256","indexed":false,"internalType":"uint256"}],"anonymous":false},{"type":"event","name":"AuthorizerChanged","inputs":[{"name":"newAuthorizer","type":"address","indexed":true,"internalType":"contract IAuthorizer"}],"anonymous":false},{"type":"event","name":"BufferSharesBurned","inputs":[{"name":"wrappedToken","type":"address","indexed":true,"internalType":"contract IERC4626"},{"name":"from","type":"address","indexed":true,"internalType":"address"},{"name":"burnedShares","type":"uint256","indexed":false,"internalType":"uint256"}],"anonymous":false},{"type":"event","name":"BufferSharesMinted","inputs":[{"name":"wrappedToken","type":"address","indexed":true,"internalType":"contract IERC4626"},{"name":"to","type":"address","indexed":true,"internalType":"address"},{"name":"issuedShares","type":"uint256","indexed":false,"internalType":"uint256"}],"anonymous":false},{"type":"event","name":"LiquidityAdded","inputs":[{"name":"pool","type":"address","indexed":true,"internalType":"address"},{"name":"liquidityProvider","type":"address","indexed":true,"internalType":"address"},{"name":"kind","type":"uint8","indexed":true,"internalType":"enum AddLiquidityKind"},{"name":"totalSupply","type":"uint256","indexed":false,"internalType":"uint256"},{"name":"amountsAddedRaw","type":"uint256[]","indexed":false,"internalType":"uint256[]"},{"name":"swapFeeAmountsRaw","type":"uint256[]","indexed":false,"internalType":"uint256[]"}],"anonymous":false},{"type":"event","name":"LiquidityAddedToBuffer","inputs":[{"name":"wrappedToken","type":"address","indexed":true,"internalType":"contract IERC4626"},{"name":"amountUnderlying","type":"uint256","indexed":false,"internalType":"uint256"},{"name":"amountWrapped","type":"uint256","indexed":false,"internalType":"uint256"},{"name":"bufferBalances","type":"bytes32","indexed":false,"internalType":"bytes32"}],"anonymous":false},{"type":"event","name":"LiquidityRemoved","inputs":[{"name":"pool","type":"address","indexed":true,"internalType":"address"},{"name":"liquidityProvider","type":"address","indexed":true,"internalType":"address"},{"name":"kind","type":"uint8","indexed":true,"internalType":"enum RemoveLiquidityKind"},{"name":"totalSupply","type":"uint256","indexed":false,"internalType":"uint256"},{"name":"amountsRemovedRaw","type":"uint256[]","indexed":false,"internalType":"uint256[]"},{"name":"swapFeeAmountsRaw","type":"uint256[]","indexed":false,"internalType":"uint256[]"}],"anonymous":false},{"type":"event","name":"LiquidityRemovedFromBuffer","inputs":[{"name":"wrappedToken","type":"address","indexed":true,"internalType":"contract IERC4626"},{"name":"amountUnderlying","type":"uint256","indexed":false,"internalType":"uint256"},{"name":"amountWrapped","type":"uint256","indexed":false,"internalType":"uint256"},{"name":"bufferBalances","type":"bytes32","indexed":false,"internalType":"bytes32"}],"anonymous":false},{"type":"event","name":"PoolInitialized","inputs":[{"name":"pool","type":"address","indexed":true,"internalType":"address"}],"anonymous":false},{"type":"event","name":"PoolPausedStateChanged","inputs":[{"name":"pool","type":"address","indexed":true,"internalType":"address"},{"name":"paused","type":"bool","indexed":false,"internalType":"bool"}],"anonymous":false},{"type":"event","name":"PoolRecoveryModeStateChanged","inputs":[{"name":"pool","type":"address","indexed":true,"internalType":"address"},{"name":"recoveryMode","type":"bool","indexed":false,"internalType":"bool"}],"anonymous":false},{"type":"event","name":"PoolRegistered","inputs":[{"name":"pool","type":"address","indexed":true,"internalType":"address"},{"name":"factory","type":"address","indexed":true,"internalType":"address"},{"name":"tokenConfig","type":"tuple[]","indexed":false,"internalType":"struct TokenConfig[]","components":[{"name":"token","type":"address","internalType":"contract IERC20"},{"name":"tokenType","type":"uint8","internalType":"enum TokenType"},{"name":"rateProvider","type":"address","internalType":"contract IRateProvider"},{"name":"paysYieldFees","type":"bool","internalType":"bool"}]},{"name":"swapFeePercentage","type":"uint256","indexed":false,"internalType":"uint256"},{"name":"pauseWindowEndTime","type":"uint32","indexed":false,"internalType":"uint32"},{"name":"roleAccounts","type":"tuple","indexed":false,"internalType":"struct PoolRoleAccounts","components":[{"name":"pauseManager","type":"address","internalType":"address"},{"name":"swapFeeManager","type":"address","internalType":"address"},{"name":"poolCreator","type":"address","internalType":"address"}]},{"name":"hooksConfig","type":"tuple","indexed":false,"internalType":"struct HooksConfig","components":[{"name":"enableHookAdjustedAmounts","type":"bool","internalType":"bool"},{"name":"shouldCallBeforeInitialize","type":"bool","internalType":"bool"},{"name":"shouldCallAfterInitialize","type":"bool","internalType":"bool"},{"name":"shouldCallComputeDynamicSwapFee","type":"bool","internalType":"bool"},{"name":"shouldCallBeforeSwap","type":"bool","internalType":"bool"},{"name":"shouldCallAfterSwap","type":"bool","internalType":"bool"},{"name":"shouldCallBeforeAddLiquidity","type":"bool","internalType":"bool"},{"name":"shouldCallAfterAddLiquidity","type":"bool","internalType":"bool"},{"name":"shouldCallBeforeRemoveLiquidity","type":"bool","internalType":"bool"},{"name":"shouldCallAfterRemoveLiquidity","type":"bool","internalType":"bool"},{"name":"hooksContract","type":"address","internalType":"address"}]},{"name":"liquidityManagement","type":"tuple","indexed":false,"internalType":"struct LiquidityManagement","components":[{"name":"disableUnbalancedLiquidity","type":"bool","internalType":"bool"},{"name":"enableAddLiquidityCustom","type":"bool","internalType":"bool"},{"name":"enableRemoveLiquidityCustom","type":"bool","internalType":"bool"},{"name":"enableDonation","type":"bool","internalType":"bool"}]}],"anonymous":false},{"type":"event","name":"ProtocolFeeControllerChanged","inputs":[{"name":"newProtocolFeeController","type":"address","indexed":true,"internalType":"contract IProtocolFeeController"}],"anonymous":false},{"type":"event","name":"Swap","inputs":[{"name":"pool","type":"address","indexed":true,"internalType":"address"},{"name":"tokenIn","type":"address","indexed":true,"internalType":"contract IERC20"},{"name":"tokenOut","type":"address","indexed":true,"internalType":"contract IERC20"},{"name":"amountIn","type":"uint256","indexed":false,"internalType":"uint256"},{"name":"amountOut","type":"uint256","indexed":false,"internalType":"uint256"},{"name":"swapFeePercentage","type":"uint256","indexed":false,"internalType":"uint256"},{"name":"swapFeeAmount","type":"uint256","indexed":false,"internalType":"uint256"}],"anonymous":false},{"type":"event","name":"SwapFeePercentageChanged","inputs":[{"name":"pool","type":"address","indexed":true,"internalType":"address"},{"name":"swapFeePercentage","type":"uint256","indexed":false,"internalType":"uint256"}],"anonymous":false},{"type":"event","name":"Unwrap","inputs":[{"name":"wrappedToken","type":"address","indexed":true,"internalType":"contract IERC4626"},{"name":"burnedShares","type":"uint256","indexed":false,"internalType":"uint256"},{"name":"withdrawnUnderlying","type":"uint256","indexed":false,"internalType":"uint256"},{"name":"bufferBalances","type":"bytes32","indexed":false,"internalType":"bytes32"}],"anonymous":false},{"type":"event","name":"VaultAuxiliary","inputs":[{"name":"pool","type":"address","indexed":true,"internalType":"address"},{"name":"eventKey","type":"bytes32","indexed":true,"internalType":"bytes32"},{"name":"eventData","type":"bytes","indexed":false,"internalType":"bytes"}],"anonymous":false},{"type":"event","name":"VaultBuffersPausedStateChanged","inputs":[{"name":"paused","type":"bool","indexed":false,"internalType":"bool"}],"anonymous":false},{"type":"event","name":"VaultPausedStateChanged","inputs":[{"name":"paused","type":"bool","indexed":false,"internalType":"bool"}],"anonymous":false},{"type":"event","name":"VaultQueriesDisabled","inputs":[],"anonymous":false},{"type":"event","name":"VaultQueriesEnabled","inputs":[],"anonymous":false},{"type":"event","name":"Wrap","inputs":[{"name":"wrappedToken","type":"address","indexed":true,"internalType":"contract IERC4626"},{"name":"depositedUnderlying","type":"uint256","indexed":false,"internalType":"uint256"},{"name":"mintedShares","type":"uint256","indexed":false,"internalType":"uint256"},{"name":"bufferBalances","type":"bytes32","indexed":false,"internalType":"bytes32"}],"anonymous":false},{"type":"error","name":"AfterAddLiquidityHookFailed","inputs":[]},{"type":"error","name":"AfterInitializeHookFailed","inputs":[]},{"type":"error","name":"AfterRemoveLiquidityHookFailed","inputs":[]},{"type":"error","name":"AfterSwapHookFailed","inputs":[]},{"type":"error","name":"AmountGivenZero","inputs":[]},{"type":"error","name":"AmountInAboveMax","inputs":[{"name":"tokenIn","type":"address","internalType":"contract IERC20"},{"name":"amountIn","type":"uint256","internalType":"uint256"},{"name":"maxAmountIn","type":"uint256","internalType":"uint256"}]},{"type":"error","name":"AmountOutBelowMin","inputs":[{"name":"tokenOut","type":"address","internalType":"contract IERC20"},{"name":"amountOut","type":"uint256","internalType":"uint256"},{"name":"minAmountOut","type":"uint256","internalType":"uint256"}]},{"type":"error","name":"BalanceNotSettled","inputs":[]},{"type":"error","name":"BalanceOverflow","inputs":[]},{"type":"error","name":"BeforeAddLiquidityHookFailed","inputs":[]},{"type":"error","name":"BeforeInitializeHookFailed","inputs":[]},{"type":"error","name":"BeforeRemoveLiquidityHookFailed","inputs":[]},{"type":"error","name":"BeforeSwapHookFailed","inputs":[]},{"type":"error","name":"BptAmountInAboveMax","inputs":[{"name":"amountIn","type":"uint256","internalType":"uint256"},{"name":"maxAmountIn","type":"uint256","internalType":"uint256"}]},{"type":"error","name":"BptAmountOutBelowMin","inputs":[{"name":"amountOut","type":"uint256","internalType":"uint256"},{"name":"minAmountOut","type":"uint256","internalType":"uint256"}]},{"type":"error","name":"BufferAlreadyInitialized","inputs":[{"name":"wrappedToken","type":"address","internalType":"contract IERC4626"}]},{"type":"error","name":"BufferNotInitialized","inputs":[{"name":"wrappedToken","type":"address","internalType":"contract IERC4626"}]},{"type":"error","name":"BufferSharesInvalidOwner","inputs":[]},{"type":"error","name":"BufferSharesInvalidReceiver","inputs":[]},{"type":"error","name":"BufferTotalSupplyTooLow","inputs":[{"name":"totalSupply","type":"uint256","internalType":"uint256"}]},{"type":"error","name":"CannotReceiveEth","inputs":[]},{"type":"error","name":"CannotSwapSameToken","inputs":[]},{"type":"error","name":"DoesNotSupportAddLiquidityCustom","inputs":[]},{"type":"error","name":"DoesNotSupportDonation","inputs":[]},{"type":"error","name":"DoesNotSupportRemoveLiquidityCustom","inputs":[]},{"type":"error","name":"DoesNotSupportUnbalancedLiquidity","inputs":[]},{"type":"error","name":"DynamicSwapFeeHookFailed","inputs":[]},{"type":"error","name":"FeePrecisionTooHigh","inputs":[]},{"type":"error","name":"HookAdjustedAmountInAboveMax","inputs":[{"name":"tokenIn","type":"address","internalType":"contract IERC20"},{"name":"amountIn","type":"uint256","internalType":"uint256"},{"name":"maxAmountIn","type":"uint256","internalType":"uint256"}]},{"type":"error","name":"HookAdjustedAmountOutBelowMin","inputs":[{"name":"tokenOut","type":"address","internalType":"contract IERC20"},{"name":"amountOut","type":"uint256","internalType":"uint256"},{"name":"minAmountOut","type":"uint256","internalType":"uint256"}]},{"type":"error","name":"HookAdjustedSwapLimit","inputs":[{"name":"amount","type":"uint256","internalType":"uint256"},{"name":"limit","type":"uint256","internalType":"uint256"}]},{"type":"error","name":"HookRegistrationFailed","inputs":[{"name":"poolHooksContract","type":"address","internalType":"address"},{"name":"pool","type":"address","internalType":"address"},{"name":"poolFactory","type":"address","internalType":"address"}]},{"type":"error","name":"InvalidAddLiquidityKind","inputs":[]},{"type":"error","name":"InvalidRemoveLiquidityKind","inputs":[]},{"type":"error","name":"InvalidToken","inputs":[]},{"type":"error","name":"InvalidTokenConfiguration","inputs":[]},{"type":"error","name":"InvalidTokenDecimals","inputs":[]},{"type":"error","name":"InvalidTokenType","inputs":[]},{"type":"error","name":"InvalidUnderlyingToken","inputs":[{"name":"wrappedToken","type":"address","internalType":"contract IERC4626"}]},{"type":"error","name":"IssuedSharesBelowMin","inputs":[{"name":"issuedShares","type":"uint256","internalType":"uint256"},{"name":"minIssuedShares","type":"uint256","internalType":"uint256"}]},{"type":"error","name":"MaxTokens","inputs":[]},{"type":"error","name":"MinTokens","inputs":[]},{"type":"error","name":"NotEnoughBufferShares","inputs":[]},{"type":"error","name":"NotEnoughUnderlying","inputs":[{"name":"wrappedToken","type":"address","internalType":"contract IERC4626"},{"name":"expectedUnderlyingAmount","type":"uint256","internalType":"uint256"},{"name":"actualUnderlyingAmount","type":"uint256","internalType":"uint256"}]},{"type":"error","name":"NotEnoughWrapped","inputs":[{"name":"wrappedToken","type":"address","internalType":"contract IERC4626"},{"name":"expectedWrappedAmount","type":"uint256","internalType":"uint256"},{"name":"actualWrappedAmount","type":"uint256","internalType":"uint256"}]},{"type":"error","name":"NotVaultDelegateCall","inputs":[]},{"type":"error","name":"PauseBufferPeriodDurationTooLarge","inputs":[]},{"type":"error","name":"PercentageAboveMax","inputs":[]},{"type":"error","name":"PoolAlreadyInitialized","inputs":[{"name":"pool","type":"address","internalType":"address"}]},{"type":"error","name":"PoolAlreadyRegistered","inputs":[{"name":"pool","type":"address","internalType":"address"}]},{"type":"error","name":"PoolInRecoveryMode","inputs":[{"name":"pool","type":"address","internalType":"address"}]},{"type":"error","name":"PoolNotInRecoveryMode","inputs":[{"name":"pool","type":"address","internalType":"address"}]},{"type":"error","name":"PoolNotInitialized","inputs":[{"name":"pool","type":"address","internalType":"address"}]},{"type":"error","name":"PoolNotPaused","inputs":[{"name":"pool","type":"address","internalType":"address"}]},{"type":"error","name":"PoolNotRegistered","inputs":[{"name":"pool","type":"address","internalType":"address"}]},{"type":"error","name":"PoolPauseWindowExpired","inputs":[{"name":"pool","type":"address","internalType":"address"}]},{"type":"error","name":"PoolPaused","inputs":[{"name":"pool","type":"address","internalType":"address"}]},{"type":"error","name":"ProtocolFeesExceedTotalCollected","inputs":[]},{"type":"error","name":"QueriesDisabled","inputs":[]},{"type":"error","name":"QueriesDisabledPermanently","inputs":[]},{"type":"error","name":"QuoteResultSpoofed","inputs":[]},{"type":"error","name":"ReentrancyGuardReentrantCall","inputs":[]},{"type":"error","name":"RouterNotTrusted","inputs":[]},{"type":"error","name":"SenderIsNotVault","inputs":[{"name":"sender","type":"address","internalType":"address"}]},{"type":"error","name":"SwapFeePercentageTooHigh","inputs":[]},{"type":"error","name":"SwapFeePercentageTooLow","inputs":[]},{"type":"error","name":"SwapLimit","inputs":[{"name":"amount","type":"uint256","internalType":"uint256"},{"name":"limit","type":"uint256","internalType":"uint256"}]},{"type":"error","name":"TokenAlreadyRegistered","inputs":[{"name":"token","type":"address","internalType":"contract IERC20"}]},{"type":"error","name":"TokenNotRegistered","inputs":[{"name":"token","type":"address","internalType":"contract IERC20"}]},{"type":"error","name":"TokensMismatch","inputs":[{"name":"pool","type":"address","internalType":"address"},{"name":"expectedToken","type":"address","internalType":"address"},{"name":"actualToken","type":"address","internalType":"address"}]},{"type":"error","name":"TradeAmountTooSmall","inputs":[]},{"type":"error","name":"VaultBuffersArePaused","inputs":[]},{"type":"error","name":"VaultIsNotUnlocked","inputs":[]},{"type":"error","name":"VaultNotPaused","inputs":[]},{"type":"error","name":"VaultPauseWindowDurationTooLarge","inputs":[]},{"type":"error","name":"VaultPauseWindowExpired","inputs":[]},{"type":"error","name":"VaultPaused","inputs":[]},{"type":"error","name":"WrapAmountTooSmall","inputs":[{"name":"wrappedToken","type":"address","internalType":"contract IERC4626"}]},{"type":"error","name":"WrongProtocolFeeControllerDeployment","inputs":[]},{"type":"error","name":"WrongUnderlyingToken","inputs":[{"name":"wrappedToken","type":"address","internalType":"contract IERC4626"},{"name":"underlyingToken","type":"address","internalType":"address"}]},{"type":"error","name":"WrongVaultAdminDeployment","inputs":[]},{"type":"error","name":"WrongVaultExtensionDeployment","inputs":[]},{"type":"error","name":"ZeroDivision","inputs":[]}],"bytecode":{"object":"0x6080604052348015600e575f5ffd5b50612e1a8061001c5f395ff3fe608060405234801561000f575f5ffd5b5060043610610060575f3560e01c80632bfb780c146100645780632ea8082614610097578063574a4cff146100ac5780635b6f4d01146100b4578063c9c1661b146100c9578063f10d7a75146100ea575b5f5ffd5b61007761007236600461276e565b610101565b604080519384526020840192909252908201526060015b60405180910390f35b61009f610325565b60405161008e9190612874565b61009f61037d565b6100bc6103ee565b60405161008e91906128b4565b6100dc6100d73660046128c6565b610416565b60405161008e9291906128fd565b6100f26104a4565b60405161008e9392919061290b565b5f5f5f61010c6104cc565b836020015161011a81610511565b6101278560200151610545565b84608001515f0361014b576040516357a456b760e01b815260040160405180910390fd5b84606001516001600160a01b031685604001516001600160a01b0316036101855760405163a54b181d60e01b815260040160405180910390fd5b5f61018e610556565b90505f6101a08760200151600161057f565b90505f6101ad888361065a565b90505f6101bb8983856106d4565b90506101c9835f0151610785565b15610246576020808a01516001600160a01b038082165f908152600588019093526040909220546101fd9284929116610819565b6020808a01516001600160a01b03165f908152600886019091526040902061022890849060016108ad565b61023389848461093d565b60408301526102438983856106d4565b90505b825161025190610a18565b15610291576020808a015160608401516001600160a01b038083165f9081526005890190945260409093205461028b938593929116610a27565b60608301525b5f61029e8a848685610af2565b8751939c50909a50985091506102b390610f7b565b156102f3576020808b01516001600160a01b039081165f9081526005880190925260409091205485519116906102ef90838c338f898b88610f95565b9950505b5f8a51600181111561030757610307612943565b0361031457889650610318565b8897505b5050505050509193909250565b60408051600180825281830190925260609160208083019080368337019050509050630561131960e31b815f8151811061036157610361612957565b6001600160e01b03199092166020928302919091019091015290565b6040805160028082526060808301845292602083019080368337019050509050632bfb780c60e01b815f815181106103b7576103b7612957565b6001600160e01b031990921660209283029190910190910152805163c9c1661b60e01b908290600190811061036157610361612957565b60408051808201909152600e81526d15985d5b1d14ddd85c119858d95d60921b602082015290565b5f5f83610422816111d8565b5f61042c86611200565b90505f8180548060200260200160405190810160405280929190818152602001828054801561048257602002820191905f5260205f20905b81546001600160a01b03168152600190910190602001808311610464575b505050505090505f610494828861122a565b9151989197509095505050505050565b60608060606104b16103ee565b92506104bb610325565b91506104c561037d565b9050909192565b7f1369d017453f080f2416efe5ae39c8a4b4655ea0634227aaab0afdb9a9f93f005c15155f0361050f5760405163604dd39b60e11b815260040160405180910390fd5b565b61051a81611293565b6105425780604051634bdace1360e01b81526004016105399190612978565b60405180910390fd5b50565b61054d6112a5565b610542816112cb565b7f867cc37b1d81c6898e0381d9834d1320e6a009ceb8f1f455820783856710c6b590565b905090565b6105be6040518060e001604052805f81526020016060815260200160608152602001606081526020016060815260200160608152602001606081525090565b6105c66112f4565b5f6105cf610556565b6001600160a01b0385165f908152600882016020908152604080832060038501835281842054600786018452828520600687019094529190932093945061061a93869392908861133b565b6001600160a01b0384165f90815260088201602090815260408083206009850190925290912061064b9184916116f7565b50610654611843565b92915050565b61068160405180608001604052805f81526020015f81526020015f81526020015f81525090565b6106938260200151846040015161122a565b8152602082015160608401516106a9919061122a565b60208201526106b983838361093d565b604082015281516106c99061185a565b606082015292915050565b6107196040805160e08101909152805f81526020015f8152602001606081526020015f81526020015f81526020015f6001600160a01b03168152602001606081525090565b6040518060e00160405280855f0151600181111561073957610739612943565b81526020018460400151815260200183608001518152602001845f0151815260200184602001518152602001336001600160a01b031681526020018560c0015181525090509392505050565b5f6106546107948260016129a0565b61079f9060016129a0565b6107aa9060016129a0565b6107b59060016129a0565b6107c09060016129a0565b6107cb9060016129a0565b6107d69060016129a0565b6107e19060016129a0565b6107ec9060016129a0565b6107f79060016129a0565b6108029060016129a0565b61080d9060016129a0565b839060ff161c60011690565b604051635211fa7760e01b81526001600160a01b03821690635211fa77906108479086908690600401612a7b565b6020604051808303815f875af1158015610863573d5f5f3e3d5ffd5b505050506040513d601f19601f820116820180604052508101906108879190612ab3565b15155f036108a85760405163e91e17e760e01b815260040160405180910390fd5b505050565b6020830151515f805b82811015610935576108e4866040015182815181106108d7576108d7612957565b6020026020010151611940565b8660a0015182815181106108fa576108fa612957565b602002602001018181525050845f8281526020019081526020015f2054915061092d868261092785611a0f565b87611a1b565b6001016108b6565b505050505050565b5f808451600181111561095257610952612943565b146109b7576109b28360c0015183602001518151811061097457610974612957565b60200260200101516109a68560a0015185602001518151811061099957610999612957565b6020026020010151611ad8565b60808701519190611b06565b610a10565b610a108360c00151835f0151815181106109d3576109d3612957565b60200260200101518460a00151845f0151815181106109f4576109f4612957565b60200260200101518660800151611b1b9092919063ffffffff16565b949350505050565b5f61065461079f8260016129a0565b5f5f5f836001600160a01b031663a0e8f5ac8888886040518463ffffffff1660e01b8152600401610a5a93929190612acc565b6040805180830381865afa158015610a74573d5f5f3e3d5ffd5b505050506040513d601f19601f82011682018060405250810190610a989190612af9565b90925090508115155f03610abf576040516314fe5db560e21b815260040160405180910390fd5b670de0b5cad2bef000811115610ae8576040516301d1b96560e61b815260040160405180910390fd5b9695505050505050565b5f5f5f5f610afe6112f4565b610b1f60405180606001604052805f81526020015f81526020015f81525090565b5f89516001811115610b3357610b33612943565b03610b635760608801516020870151610b4b91611b30565b808252602087018051610b5f908390612b23565b9052505b610b708660200151611b5c565b88602001516001600160a01b03166372c98186876040518263ffffffff1660e01b8152600401610ba09190612b36565b6020604051808303815f875af1158015610bbc573d5f5f3e3d5ffd5b505050506040513d601f19601f82011682018060405250810190610be09190612b48565b9350610beb84611b5c565b5f89516001811115610bff57610bff612943565b03610c9a578760400151866020018181525050610c5c8760c00151896020015181518110610c2f57610c2f612957565b6020026020010151610c548960a001518b602001518151811061099957610999612957565b869190611b84565b60808a015160a08b01519196509350859250821015610c955760a089015160405163e2ea151b60e01b81526105399184916004016128fd565b610d58565b6060880151610cbb90670de0b6b3a764000081810390821002869190611b98565b808252610cc89085612b5f565b9350610d1f8760c00151895f015181518110610ce657610ce6612957565b60200260200101518860a001518a5f015181518110610d0757610d07612957565b602002602001015186611bdd9092919063ffffffff16565b60808a015160a08b01519196508694509250831115610d585760a089015160405163e2ea151b60e01b81526105399185916004016128fd565b610d66896040015184611bf1565b610d74896060015183611c07565b610d8f87825f01518b602001518c604001518c5f0151611c1d565b604083018190526020830191909152885160608901518051610de49391879184908110610dbe57610dbe612957565b6020026020010151610dd09190612b5f565b610dda9190612b23565b8991906001611a1b565b610e1988602001518389606001518b6020015181518110610e0757610e07612957565b6020026020010151610dda9190612b23565b5f610e278a60200151611d08565b9050610e7388606001518a5f015181518110610e4557610e45612957565b602002602001015189608001518b5f015181518110610e6657610e66612957565b6020026020010151611d32565b815f8b5f015181526020019081526020015f2081905550610ec988606001518a6020015181518110610ea757610ea7612957565b602002602001015189608001518b6020015181518110610e6657610e66612957565b815f8b6020015181526020019081526020015f208190555089606001516001600160a01b03168a604001516001600160a01b03168b602001516001600160a01b03167f0874b2d545cb271cdbda4e093020c452328b24af12382ed62c4d00f5c26709db87878e606001518860200151604051610f5e949392919093845260208401929092526040830152606082015260800190565b60405180910390a45050610f70611843565b945094509450949050565b5f610654610f8a8260016129a0565b6107949060016129a0565b5f80808087516001811115610fac57610fac612943565b14610fbc57898660400151610fc3565b85604001518a5b915091505f5f856001600160a01b03166318b6eb556040518061018001604052808c5f01516001811115610ff957610ff9612943565b81526020018c604001516001600160a01b031681526020018c606001516001600160a01b031681526020018781526020018681526020018a608001518c5f01518151811061104957611049612957565b602002602001015181526020018a608001518c602001518151811061107057611070612957565b602002602001015181526020018f81526020018e81526020018d6001600160a01b031681526020018c602001516001600160a01b031681526020018c60c001518152506040518263ffffffff1660e01b81526004016110cf9190612b72565b60408051808303815f875af11580156110ea573d5f5f3e3d5ffd5b505050506040513d601f19601f8201168201806040525081019061110e9190612af9565b90925090508115155f0361113557604051630568a77b60e21b815260040160405180910390fd5b61113e8d611d76565b15155f03611152578a9450505050506111cc565b5f8951600181111561116657611166612943565b14801561117657508860a0015181105b806111a1575060018951600181111561119157611191612943565b1480156111a157508860a0015181115b156111c65760a089015160405163cc0e4a9960e01b81526105399183916004016128fd565b93505050505b98975050505050505050565b6111e181611d85565b61054257806040516327946f5760e21b81526004016105399190612978565b5f61065461120c610556565b836001600160a01b03165f9081526006919091016020526040902090565b5f805b835181101561127757826001600160a01b031684828151811061125257611252612957565b60200260200101516001600160a01b03160361126f579050610654565b60010161122d565b508160405163ddef98d760e01b81526004016105399190612978565b5f6106546112a083611d97565b611dc2565b6112ad611dd1565b1561050f576040516336a7e2cd60e21b815260040160405180910390fd5b6112d481611dfa565b15610542578060405163d971f59760e01b81526004016105399190612978565b5f516020612dc55f395f51905f525c1561132157604051633ee5aeb560e01b815260040160405180910390fd5b61050f60015f516020612dc55f395f51905f525b90611e0d565b815484875260408051602080840282018101909252828152908490839083018282801561138f57602002820191905f5260205f20905b81546001600160a01b03168152600190910190602001808311611371575b50505050508760200181905250806001600160401b038111156113b4576113b461267c565b6040519080825280602002602001820160405280156113fd57816020015b604080516060810182525f80825260208083018290529282015282525f199092019101816113d25790505b506040880152806001600160401b0381111561141b5761141b61267c565b604051908082528060200260200182016040528015611444578160200160208202803683370190505b506060880152806001600160401b038111156114625761146261267c565b60405190808252806020026020018201604052801561148b578160200160208202803683370190505b506080880152865161149d9082611e14565b60c0880152806001600160401b038111156114ba576114ba61267c565b6040519080825280602002602001820160405280156114e3578160200160208202803683370190505b5060a088015286515f906114f690611dc2565b801561150c57505f61150a895f0151611ecd565b115b80156115205750875161151e90611fc0565b155b90505f5b828110156116ec575f865f8b60200151848151811061154557611545612957565b6020908102919091018101516001600160a01b0316825281019190915260409081015f208151606081019092528054829060ff16600181111561158a5761158a612943565b600181111561159b5761159b612943565b8152905461010081046001600160a01b0316602080840191909152600160a81b90910460ff1615156040928301525f858152908c905281902054908c015180519293509091839190859081106115f3576115f3612957565b602002602001018190525061160782611940565b8b60a00151848151811061161d5761161d612957565b60200260200101818152505061163d8b8461163784611a0f565b89611a1b565b8315155f0361164d5750506116e4565b5f82604001518015611671575060018351600181111561166f5761166f612943565b145b905080156116e0575f6116868d5f0151611ecd565b90505f8d60600151868151811061169f5761169f612957565b602002602001015190505f6116bf8f6116b88760801c90565b8986611fcf565b905080156116dc576116dc8f886116d68486612b23565b8d611a1b565b5050505b5050505b600101611524565b505050505050505050565b6060830151515f5b8181101561183c575f8560200151828151811061171e5761171e612957565b602002602001015190505f855f8481526020019081526020015f205490505f61174682611a0f565b90508760600151848151811061175e5761175e612957565b60200260200101518111156117e9576001600160a01b0383165f90815260208790526040902054606089015180516117cf9190879081106117a1576117a1612957565b6020026020010151836117b49190612b23565b6117be8360801c90565b6117c89190612b5f565b8290612064565b6001600160a01b0385165f90815260208990526040902055505b6118208860600151858151811061180257611802612957565b602002602001015189608001518681518110610e6657610e66612957565b5f858152602089905260409020555050600190910190506116ff565b5050505050565b61050f5f5f516020612dc55f395f51905f52611335565b5f64174876e80061193661186f8360016129a0565b61187a9060016129a0565b6118859060016129a0565b6118909060016129a0565b61189b9060016129a0565b6118a69060016129a0565b6118b19060016129a0565b6118bc9060016129a0565b6118c79060016129a0565b6118d29060016129a0565b6118dd9060016129a0565b6118e89060016129a0565b6118f39060016129a0565b6118fe9060016129a0565b6119099060016129a0565b6119149060016129a0565b61191f9060016129a0565b61192a9060016129a0565b849060ff166018612077565b6106549190612c2f565b80515f908181600181111561195757611957612943565b0361196c57670de0b6b3a76400009150611a09565b600181600181111561198057611980612943565b036119f05782602001516001600160a01b031663679aefce6040518163ffffffff1660e01b8152600401602060405180830381865afa1580156119c5573d5f5f3e3d5ffd5b505050506040513d601f19601f820116820180604052508101906119e99190612b48565b9150611a09565b604051636fa2831960e11b815260040160405180910390fd5b50919050565b6001600160801b031690565b8184606001518481518110611a3257611a32612957565b60209081029190910101526126745f826001811115611a5357611a53612943565b14611a6057611b1b611a64565b611b065b9050611aaf838660c001518681518110611a8057611a80612957565b60200260200101518760a001518781518110611a9e57611a9e612957565b60200260200101518463ffffffff16565b85608001518581518110611ac557611ac5612957565b6020026020010181815250505050505050565b5f670de0b6b3a764000080830402808314611afd57611af8836001612b5f565b611aff565b825b9392505050565b5f610a1082611b158587612c2f565b90611b30565b5f610a1082611b2a8587612c2f565b90612085565b5f80611b3c8385612c2f565b90506001670de0b6b3a76400006001830304018115150291505092915050565b611b646120a5565b811015610542576040516303da9a2360e31b815260040160405180910390fd5b5f610a1084611b938486612c2f565b6120b5565b5f815f03611bb957604051630a0c22c760e01b815260040160405180910390fd5b5f611bc48486612c2f565b9050600183600183030401811515029150509392505050565b5f610a1084611bec8486612c2f565b6120d5565b611c0382611bfe836120e9565b6120f3565b5050565b611c0382611c14836120e9565b611bfe90612c46565b5f808515611cfe57611c748760c001518481518110611c3e57611c3e612957565b60200260200101518860a001518581518110611c5c57611c5c612957565b602002602001015188611b849092919063ffffffff16565b9150611c82875f0151611fc0565b15155f03611cfe575f611c97885f015161216d565b9050611ca38382612085565b915082821115611cc657604051634c69ac5d60e01b815260040160405180910390fd5b5f611cd1878761224c565b9050611cfb8787611cf686611ce586611a0f565b611cef9190612b5f565b8590612285565b612299565b50505b9550959350505050565b5f610654611d14610556565b836001600160a01b03165f9081526008919091016020526040902090565b5f6001600160801b03831180611d4e57506001600160801b0382115b15611d6c576040516389560ca160e01b815260040160405180910390fd5b611aff83836122d2565b5f6106546107b58260016129a0565b5f610654611d9283611d97565b6122e1565b5f610654611da3610556565b836001600160a01b03165f908152600391909101602052604090205490565b5f61065461080d8260016129a0565b5f611dda6122eb565b63ffffffff16421115801561057a575061057a611df561230b565b61231e565b5f5f611e0583612336565b509392505050565b80825d5050565b60605f826001600160401b03811115611e2f57611e2f61267c565b604051908082528060200260200182016040528015611e58578160200160208202803683370190505b5090505f611e658561238b565b64ffffffffff1690505f5b84811015611ec3575f611e90611e87600584612c2f565b84906005612077565b9050611e9d81600a612d43565b848381518110611eaf57611eaf612957565b602090810291909101015250600101611e70565b5090949350505050565b5f64174876e800611936601880611ee58560016129a0565b611ef09060016129a0565b611efb9060016129a0565b611f069060016129a0565b611f119060016129a0565b611f1c9060016129a0565b611f279060016129a0565b611f329060016129a0565b611f3d9060016129a0565b611f489060016129a0565b611f539060016129a0565b611f5e9060016129a0565b611f699060016129a0565b611f749060016129a0565b611f7f9060016129a0565b611f8a9060016129a0565b611f959060016129a0565b611fa09060016129a0565b60ff16611fad9190612b5f565b611fb79190612b5f565b84906018612077565b5f6106546107f78260016129a0565b5f5f85608001518481518110611fe757611fe7612957565b602002602001015190508481111561205b575f61200686830385611b30565b90506120578760c00151868151811061202157612021612957565b60200260200101518860a00151878151811061203f5761203f612957565b602002602001015183611b849092919063ffffffff16565b9250505b50949350505050565b5f611aff61207184611a0f565b83611d32565b6001901b5f190191901c1690565b5f806120918385612c2f565b9050610a10670de0b6b3a764000082612d4e565b5f61057a6120b1610556565b5490565b5f806120c9670de0b6b3a764000085612c2f565b9050610a108382612d4e565b5f611aff83670de0b6b3a764000084611b98565b5f61065482612483565b805f036120fe575050565b5f6121118361210b61249c565b906124c0565b90505f61211e8383612d6d565b9050805f0361213c576121376121326124d3565b6124f7565b612153565b815f036121535761215361214e6124d3565b61250d565b612167848261216061249c565b919061251c565b50505050565b5f64174876e80061193660186121848460016129a0565b61218f9060016129a0565b61219a9060016129a0565b6121a59060016129a0565b6121b09060016129a0565b6121bb9060016129a0565b6121c69060016129a0565b6121d19060016129a0565b6121dc9060016129a0565b6121e79060016129a0565b6121f29060016129a0565b6121fd9060016129a0565b6122089060016129a0565b6122139060016129a0565b61221e9060016129a0565b6122299060016129a0565b6122349060016129a0565b61223f9060016129a0565b60ff16611fb79190612b5f565b5f611aff612258610556565b6001600160a01b038086165f90815260099290920160209081526040808420928716845291905290205490565b5f611aff826122948560801c90565b611d32565b6108a86122a4610556565b6001600160a01b038086165f9081526009929092016020908152604080842092871684529190529020829055565b5f611aff83608084901b612b5f565b5f60018216610654565b5f61057a6122f7610556565b60020154600160201b900463ffffffff1690565b5f61057a612317610556565b600a015490565b5f61065461232d826001612b5f565b83901c60011690565b5f5f5f61234284611d97565b90505f61234e82612534565b90505f61235a83612543565b9050818015612380575061236c612647565b6123769082612d94565b63ffffffff164211155b969095509350505050565b5f6106546018808061239e8560016129a0565b6123a99060016129a0565b6123b49060016129a0565b6123bf9060016129a0565b6123ca9060016129a0565b6123d59060016129a0565b6123e09060016129a0565b6123eb9060016129a0565b6123f69060016129a0565b6124019060016129a0565b61240c9060016129a0565b6124179060016129a0565b6124229060016129a0565b61242d9060016129a0565b6124389060016129a0565b6124439060016129a0565b61244e9060016129a0565b6124599060016129a0565b60ff166124669190612b5f565b6124709190612b5f565b61247a9190612b5f565b83906028612077565b5f5f821261248f575090565b612497612667565b919050565b7ff74f46243717369ff9f20877dfc1ba8491e6be48bfe7acc5b65f5ac68f585c0090565b5f8181526020839052604081205c611aff565b7fbcbf50c510014a975eac30806436734486f167c41af035c1645353d475d5710090565b6105426125066001835c612b23565b8290611e0d565b610542612506825c6001612b5f565b5f8281526020849052604090206108a8908290611335565b5f6106546108028260016129a0565b5f6106546028601880806125588660016129a0565b6125639060016129a0565b61256e9060016129a0565b6125799060016129a0565b6125849060016129a0565b61258f9060016129a0565b61259a9060016129a0565b6125a59060016129a0565b6125b09060016129a0565b6125bb9060016129a0565b6125c69060016129a0565b6125d19060016129a0565b6125dc9060016129a0565b6125e79060016129a0565b6125f29060016129a0565b6125fd9060016129a0565b6126089060016129a0565b6126139060016129a0565b60ff166126209190612b5f565b61262a9190612b5f565b6126349190612b5f565b61263e9190612b5f565b83906020612077565b5f61057a612653610556565b60020154600160401b900463ffffffff1690565b6335278d125f526004601cfd5b61050f612db0565b634e487b7160e01b5f52604160045260245ffd5b60405160e081016001600160401b03811182821017156126b2576126b261267c565b60405290565b803560028110612497575f5ffd5b6001600160a01b0381168114610542575f5ffd5b8035612497816126c6565b5f82601f8301126126f4575f5ffd5b81356001600160401b0381111561270d5761270d61267c565b604051601f8201601f19908116603f011681016001600160401b038111828210171561273b5761273b61267c565b604052818152838201602001851015612752575f5ffd5b816020850160208301375f918101602001919091529392505050565b5f6020828403121561277e575f5ffd5b81356001600160401b03811115612793575f5ffd5b820160e081850312156127a4575f5ffd5b6127ac612690565b6127b5826126b8565b81526127c3602083016126da565b60208201526127d4604083016126da565b60408201526127e5606083016126da565b60608201526080828101359082015260a0808301359082015260c08201356001600160401b03811115612816575f5ffd5b612822868285016126e5565b60c083015250949350505050565b5f8151808452602084019350602083015f5b8281101561286a5781516001600160e01b031916865260209586019590910190600101612842565b5093949350505050565b602081525f611aff6020830184612830565b5f81518084528060208401602086015e5f602082860101526020601f19601f83011685010191505092915050565b602081525f611aff6020830184612886565b5f5f604083850312156128d7575f5ffd5b82356128e2816126c6565b915060208301356128f2816126c6565b809150509250929050565b918252602082015260400190565b606081525f61291d6060830186612886565b828103602084015261292f8186612830565b90508281036040840152610ae88185612830565b634e487b7160e01b5f52602160045260245ffd5b634e487b7160e01b5f52603260045260245ffd5b6001600160a01b03169052565b6001600160a01b0391909116815260200190565b634e487b7160e01b5f52601160045260245ffd5b60ff81811683821601908111156106545761065461298c565b600281106129d557634e487b7160e01b5f52602160045260245ffd5b9052565b5f60e083016129e98484516129b9565b60208301516020850152604083015160e06040860152818151808452610100870191506020830193505f92505b80831015612a395783518252602082019150602084019350600183019250612a16565b50606085015160608701526080850151608087015260a08501519250612a6260a087018461296b565b60c0850151925085810360c0870152610ae88184612886565b604081525f612a8d60408301856129d9565b905060018060a01b03831660208301529392505050565b80518015158114612497575f5ffd5b5f60208284031215612ac3575f5ffd5b611aff82612aa4565b606081525f612ade60608301866129d9565b6001600160a01b039490941660208301525060400152919050565b5f5f60408385031215612b0a575f5ffd5b612b1383612aa4565b6020939093015192949293505050565b818103818111156106545761065461298c565b602081525f611aff60208301846129d9565b5f60208284031215612b58575f5ffd5b5051919050565b808201808211156106545761065461298c565b60208152612b846020820183516129b9565b5f6020830151612b97604084018261296b565b506040830151612baa606084018261296b565b5060608301516080830152608083015160a083015260a083015160c083015260c083015160e083015260e0830151610100830152610100830151610120830152610120830151612bfe61014084018261296b565b50610140830151612c1361016084018261296b565b5061016083015161018080840152610a106101a0840182612886565b80820281158282048414176106545761065461298c565b5f600160ff1b8201612c5a57612c5a61298c565b505f0390565b6001815b6001841115612c9b57808504811115612c7f57612c7f61298c565b6001841615612c8d57908102905b60019390931c928002612c64565b935093915050565b5f82612cb157506001610654565b81612cbd57505f610654565b8160018114612cd35760028114612cdd57612cf9565b6001915050610654565b60ff841115612cee57612cee61298c565b50506001821b610654565b5060208310610133831016604e8410600b8410161715612d1c575081810a610654565b612d285f198484612c60565b805f1904821115612d3b57612d3b61298c565b029392505050565b5f611aff8383612ca3565b5f82612d6857634e487b7160e01b5f52601260045260245ffd5b500490565b8082018281125f831280158216821582161715612d8c57612d8c61298c565b505092915050565b63ffffffff81811683821601908111156106545761065461298c565b634e487b7160e01b5f52605160045260245ffdfe9b779b17422d0df92223018b32b4d1fa46e071723d6817e2486d003becc55f00a2646970667358221220708395b51c7c68da154961010ac2b2008f77740f956ff246c87437d556621c6264736f6c634300081e0033","linkReferences":{}},"methodIdentifiers":{"facetFuncs()":"574a4cff","facetInterfaces()":"2ea80826","facetMetadata()":"f10d7a75","facetName()":"5b6f4d01","getPoolTokenCountAndIndexOfToken(address,address)":"c9c1661b","swap((uint8,address,address,address,uint256,uint256,bytes))":"2bfb780c"},"id":996}