{"abi":[{"type":"function","name":"allowance","inputs":[{"name":"owner","type":"address","internalType":"address"},{"name":"spender","type":"address","internalType":"address"},{"name":"id","type":"uint256","internalType":"uint256"}],"outputs":[{"name":"","type":"uint256","internalType":"uint256"}],"stateMutability":"view"},{"type":"function","name":"approve","inputs":[{"name":"spender","type":"address","internalType":"address"},{"name":"id","type":"uint256","internalType":"uint256"},{"name":"amount","type":"uint256","internalType":"uint256"}],"outputs":[{"name":"","type":"bool","internalType":"bool"}],"stateMutability":"nonpayable"},{"type":"function","name":"balanceOf","inputs":[{"name":"owner","type":"address","internalType":"address"},{"name":"id","type":"uint256","internalType":"uint256"}],"outputs":[{"name":"","type":"uint256","internalType":"uint256"}],"stateMutability":"view"},{"type":"function","name":"isOperator","inputs":[{"name":"owner","type":"address","internalType":"address"},{"name":"spender","type":"address","internalType":"address"}],"outputs":[{"name":"","type":"bool","internalType":"bool"}],"stateMutability":"view"},{"type":"function","name":"setOperator","inputs":[{"name":"spender","type":"address","internalType":"address"},{"name":"approved","type":"bool","internalType":"bool"}],"outputs":[{"name":"","type":"bool","internalType":"bool"}],"stateMutability":"nonpayable"},{"type":"function","name":"supportsInterface","inputs":[{"name":"interfaceId","type":"bytes4","internalType":"bytes4"}],"outputs":[{"name":"","type":"bool","internalType":"bool"}],"stateMutability":"view"},{"type":"function","name":"transfer","inputs":[{"name":"receiver","type":"address","internalType":"address"},{"name":"id","type":"uint256","internalType":"uint256"},{"name":"amount","type":"uint256","internalType":"uint256"}],"outputs":[{"name":"","type":"bool","internalType":"bool"}],"stateMutability":"nonpayable"},{"type":"function","name":"transferFrom","inputs":[{"name":"sender","type":"address","internalType":"address"},{"name":"receiver","type":"address","internalType":"address"},{"name":"id","type":"uint256","internalType":"uint256"},{"name":"amount","type":"uint256","internalType":"uint256"}],"outputs":[{"name":"","type":"bool","internalType":"bool"}],"stateMutability":"nonpayable"},{"type":"event","name":"Approval","inputs":[{"name":"owner","type":"address","indexed":true,"internalType":"address"},{"name":"spender","type":"address","indexed":true,"internalType":"address"},{"name":"id","type":"uint256","indexed":true,"internalType":"uint256"},{"name":"amount","type":"uint256","indexed":false,"internalType":"uint256"}],"anonymous":false},{"type":"event","name":"OperatorSet","inputs":[{"name":"owner","type":"address","indexed":true,"internalType":"address"},{"name":"spender","type":"address","indexed":true,"internalType":"address"},{"name":"approved","type":"bool","indexed":false,"internalType":"bool"}],"anonymous":false},{"type":"event","name":"Transfer","inputs":[{"name":"caller","type":"address","indexed":false,"internalType":"address"},{"name":"sender","type":"address","indexed":true,"internalType":"address"},{"name":"receiver","type":"address","indexed":true,"internalType":"address"},{"name":"id","type":"uint256","indexed":true,"internalType":"uint256"},{"name":"amount","type":"uint256","indexed":false,"internalType":"uint256"}],"anonymous":false},{"type":"error","name":"ERC6909InsufficientAllowance","inputs":[{"name":"spender","type":"address","internalType":"address"},{"name":"allowance","type":"uint256","internalType":"uint256"},{"name":"needed","type":"uint256","internalType":"uint256"},{"name":"id","type":"uint256","internalType":"uint256"}]},{"type":"error","name":"ERC6909InsufficientBalance","inputs":[{"name":"sender","type":"address","internalType":"address"},{"name":"balance","type":"uint256","internalType":"uint256"},{"name":"needed","type":"uint256","internalType":"uint256"},{"name":"id","type":"uint256","internalType":"uint256"}]},{"type":"error","name":"ERC6909InvalidApprover","inputs":[{"name":"approver","type":"address","internalType":"address"}]},{"type":"error","name":"ERC6909InvalidReceiver","inputs":[{"name":"receiver","type":"address","internalType":"address"}]},{"type":"error","name":"ERC6909InvalidSender","inputs":[{"name":"sender","type":"address","internalType":"address"}]},{"type":"error","name":"ERC6909InvalidSpender","inputs":[{"name":"spender","type":"address","internalType":"address"}]}],"bytecode":{"object":"0x6080604052348015600e575f5ffd5b506108028061001c5f395ff3fe608060405234801561000f575f5ffd5b5060043610610075575f3560e01c8062fdd58e1461007957806301ffc9a71461009f578063095bcdb6146100c2578063426a8493146100d5578063558a7297146100e8578063598af9e7146100fb578063b6363cf21461010e578063fe99049a14610121575b5f5ffd5b61008c61008736600461060a565b610134565b6040519081526020015b60405180910390f35b6100b26100ad366004610632565b61015c565b6040519015158152602001610096565b6100b26100d0366004610660565b610190565b6100b26100e3366004610660565b6101a7565b6100b26100f6366004610690565b6101b4565b61008c6101093660046106c9565b6101c9565b6100b261011c366004610703565b6101fa565b6100b261012f366004610734565b610227565b6001600160a01b0382165f908152602081815260408083208484529091529020545b92915050565b5f6001600160e01b03198216630f632fb360e01b148061015657506301ffc9a760e01b6001600160e01b0319831614610156565b5f61019d33858585610272565b5060019392505050565b5f61019d338585856102df565b5f6101c033848461039e565b50600192915050565b6001600160a01b039283165f9081526002602090815260408083209490951682529283528381209181529152205490565b6001600160a01b039182165f90815260016020908152604080832093909416825291909152205460ff1690565b5f336001600160a01b0386168114801590610249575061024786826101fa565b155b1561025a5761025a8682868661045c565b61026686868686610272565b50600195945050505050565b6001600160a01b0384166102a4575f6040516301486a4160e71b815260040161029b9190610773565b60405180910390fd5b6001600160a01b0383166102cd575f604051630b8bbd6160e41b815260040161029b9190610773565b6102d9848484846104d5565b50505050565b6001600160a01b038416610308575f60405163198ecd5360e31b815260040161029b9190610773565b6001600160a01b038316610331575f604051636f65f46560e01b815260040161029b9190610773565b6001600160a01b038481165f8181526002602090815260408083209488168084529482528083208784528252918290208590559051848152859392917fb3fd5071835887567a0671151121894ddccc2842f1d10bedad13e0d17cace9a7910160405180910390a450505050565b6001600160a01b0383166103c7575f60405163198ecd5360e31b815260040161029b9190610773565b6001600160a01b0382166103f0575f604051636f65f46560e01b815260040161029b9190610773565b6001600160a01b038381165f81815260016020908152604080832094871680845294825291829020805460ff191686151590811790915591519182527fceb576d9f15e4e200fdb5096d64d5dfd667e16def20c1eefd14256d8e3faa267910160405180910390a3505050565b5f6104688585856101c9565b90505f198110156104ce578181101561049c5783818385604051632c51fead60e11b815260040161029b9493929190610787565b6001600160a01b038086165f908152600260209081526040808320938816835292815282822086835290522082820390555b5050505050565b336001600160a01b03851615610556576001600160a01b0385165f908152602081815260408083208684529091529020548281101561052f57858184866040516302c6d3fb60e61b815260040161029b9493929190610787565b6001600160a01b0386165f9081526020818152604080832087845290915290209083900390555b6001600160a01b0384161561059b576001600160a01b0384165f90815260208181526040808320868452909152812080548492906105959084906107ad565b90915550505b604080516001600160a01b03838116825260208201859052859281881692918916917f1b3d7edb2e9c0b0e7c525b20aaaef0f5940d2ed71663c7d39266ecafac728859910160405180910390a45050505050565b80356001600160a01b0381168114610605575f5ffd5b919050565b5f5f6040838503121561061b575f5ffd5b610624836105ef565b946020939093013593505050565b5f60208284031215610642575f5ffd5b81356001600160e01b031981168114610659575f5ffd5b9392505050565b5f5f5f60608486031215610672575f5ffd5b61067b846105ef565b95602085013595506040909401359392505050565b5f5f604083850312156106a1575f5ffd5b6106aa836105ef565b9150602083013580151581146106be575f5ffd5b809150509250929050565b5f5f5f606084860312156106db575f5ffd5b6106e4846105ef565b92506106f2602085016105ef565b929592945050506040919091013590565b5f5f60408385031215610714575f5ffd5b61071d836105ef565b915061072b602084016105ef565b90509250929050565b5f5f5f5f60808587031215610747575f5ffd5b610750856105ef565b935061075e602086016105ef565b93969395505050506040820135916060013590565b6001600160a01b0391909116815260200190565b6001600160a01b0394909416845260208401929092526040830152606082015260800190565b8082018082111561015657634e487b7160e01b5f52601160045260245ffdfea264697066735822122001603b560599ef65b125f08a164801fa4a64aa758fa72efafd07cdb120b3508264736f6c634300081e0033","linkReferences":{}},"methodIdentifiers":{"allowance(address,address,uint256)":"598af9e7","approve(address,uint256,uint256)":"426a8493","balanceOf(address,uint256)":"00fdd58e","isOperator(address,address)":"b6363cf2","setOperator(address,bool)":"558a7297","supportsInterface(bytes4)":"01ffc9a7","transfer(address,uint256,uint256)":"095bcdb6","transferFrom(address,address,uint256,uint256)":"fe99049a"},"id":504}