{"abi":[{"type":"constructor","inputs":[{"name":"pkgInit","type":"tuple","internalType":"struct IBalancerV3ConstantProductPoolStandardVaultPkg.PkgInit","components":[{"name":"balancerV3VaultAwareFacet","type":"address","internalType":"contract IFacet"},{"name":"betterBalancerV3PoolTokenFacet","type":"address","internalType":"contract IFacet"},{"name":"defaultPoolInfoFacet","type":"address","internalType":"contract IFacet"},{"name":"standardSwapFeePercentageBoundsFacet","type":"address","internalType":"contract IFacet"},{"name":"unbalancedLiquidityInvariantRatioBoundsFacet","type":"address","internalType":"contract IFacet"},{"name":"balancerV3AuthenticationFacet","type":"address","internalType":"contract IFacet"},{"name":"balancerV3ConstProdPoolFacet","type":"address","internalType":"contract IFacet"},{"name":"balancerV3Vault","type":"address","internalType":"contract IVault"},{"name":"diamondFactory","type":"address","internalType":"contract IDiamondPackageCallBackFactory"},{"name":"poolFeeManager","type":"address","internalType":"address"}]}],"stateMutability":"nonpayable"},{"type":"function","name":"BALANCER_V3_AUTHENTICATION_FACET","inputs":[],"outputs":[{"name":"","type":"address","internalType":"contract IFacet"}],"stateMutability":"view"},{"type":"function","name":"BALANCER_V3_CONST_PROD_POOL_FACET","inputs":[],"outputs":[{"name":"","type":"address","internalType":"contract IFacet"}],"stateMutability":"view"},{"type":"function","name":"BALANCER_V3_VAULT","inputs":[],"outputs":[{"name":"","type":"address","internalType":"contract IVault"}],"stateMutability":"view"},{"type":"function","name":"BALANCER_V3_VAULT_AWARE_FACET","inputs":[],"outputs":[{"name":"","type":"address","internalType":"contract IFacet"}],"stateMutability":"view"},{"type":"function","name":"BETTER_BALANCER_V3_POOL_TOKEN_FACET","inputs":[],"outputs":[{"name":"","type":"address","internalType":"contract IFacet"}],"stateMutability":"view"},{"type":"function","name":"DEFAULT_POOL_INFO_FACET","inputs":[],"outputs":[{"name":"","type":"address","internalType":"contract IFacet"}],"stateMutability":"view"},{"type":"function","name":"DIAMOND_PACKAGE_FACTORY","inputs":[],"outputs":[{"name":"","type":"address","internalType":"contract IDiamondPackageCallBackFactory"}],"stateMutability":"view"},{"type":"function","name":"calcSalt","inputs":[{"name":"pkgArgs","type":"bytes","internalType":"bytes"}],"outputs":[{"name":"salt","type":"bytes32","internalType":"bytes32"}],"stateMutability":"pure"},{"type":"function","name":"deployPool","inputs":[{"name":"tokenConfigs_","type":"tuple[]","internalType":"struct TokenConfig[]","components":[{"name":"token","type":"address","internalType":"contract IERC20"},{"name":"tokenType","type":"uint8","internalType":"enum TokenType"},{"name":"rateProvider","type":"address","internalType":"contract IRateProvider"},{"name":"paysYieldFees","type":"bool","internalType":"bool"}]},{"name":"hooksContract","type":"address","internalType":"address"}],"outputs":[{"name":"vault","type":"address","internalType":"address"}],"stateMutability":"nonpayable"},{"type":"function","name":"diamondConfig","inputs":[],"outputs":[{"name":"config","type":"tuple","internalType":"struct IDiamondFactoryPackage.DiamondConfig","components":[{"name":"facetCuts","type":"tuple[]","internalType":"struct IDiamond.FacetCut[]","components":[{"name":"facetAddress","type":"address","internalType":"address"},{"name":"action","type":"uint8","internalType":"enum IDiamond.FacetCutAction"},{"name":"functionSelectors","type":"bytes4[]","internalType":"bytes4[]"}]},{"name":"interfaces","type":"bytes4[]","internalType":"bytes4[]"}]}],"stateMutability":"view"},{"type":"function","name":"disable","inputs":[],"outputs":[],"stateMutability":"nonpayable"},{"type":"function","name":"facetAddresses","inputs":[],"outputs":[{"name":"facetAddresses_","type":"address[]","internalType":"address[]"}],"stateMutability":"view"},{"type":"function","name":"facetCuts","inputs":[],"outputs":[{"name":"facetCuts_","type":"tuple[]","internalType":"struct IDiamond.FacetCut[]","components":[{"name":"facetAddress","type":"address","internalType":"address"},{"name":"action","type":"uint8","internalType":"enum IDiamond.FacetCutAction"},{"name":"functionSelectors","type":"bytes4[]","internalType":"bytes4[]"}]}],"stateMutability":"view"},{"type":"function","name":"facetInterfaces","inputs":[],"outputs":[{"name":"interfaces","type":"bytes4[]","internalType":"bytes4[]"}],"stateMutability":"pure"},{"type":"function","name":"getActionId","inputs":[{"name":"selector","type":"bytes4","internalType":"bytes4"}],"outputs":[{"name":"","type":"bytes32","internalType":"bytes32"}],"stateMutability":"view"},{"type":"function","name":"getDeploymentAddress","inputs":[{"name":"constructorArgs","type":"bytes","internalType":"bytes"},{"name":"","type":"bytes32","internalType":"bytes32"}],"outputs":[{"name":"","type":"address","internalType":"address"}],"stateMutability":"view"},{"type":"function","name":"getNewPoolPauseWindowEndTime","inputs":[],"outputs":[{"name":"","type":"uint32","internalType":"uint32"}],"stateMutability":"view"},{"type":"function","name":"getOriginalPauseWindowEndTime","inputs":[],"outputs":[{"name":"","type":"uint32","internalType":"uint32"}],"stateMutability":"view"},{"type":"function","name":"getPauseWindowDuration","inputs":[],"outputs":[{"name":"","type":"uint32","internalType":"uint32"}],"stateMutability":"view"},{"type":"function","name":"getPoolCount","inputs":[],"outputs":[{"name":"","type":"uint256","internalType":"uint256"}],"stateMutability":"view"},{"type":"function","name":"getPools","inputs":[],"outputs":[{"name":"","type":"address[]","internalType":"address[]"}],"stateMutability":"view"},{"type":"function","name":"getPoolsInRange","inputs":[{"name":"start","type":"uint256","internalType":"uint256"},{"name":"count","type":"uint256","internalType":"uint256"}],"outputs":[{"name":"","type":"address[]","internalType":"address[]"}],"stateMutability":"view"},{"type":"function","name":"initAccount","inputs":[{"name":"initArgs","type":"bytes","internalType":"bytes"}],"outputs":[],"stateMutability":"nonpayable"},{"type":"function","name":"isDisabled","inputs":[],"outputs":[{"name":"","type":"bool","internalType":"bool"}],"stateMutability":"view"},{"type":"function","name":"isPoolFromFactory","inputs":[{"name":"pool","type":"address","internalType":"address"}],"outputs":[{"name":"","type":"bool","internalType":"bool"}],"stateMutability":"view"},{"type":"function","name":"packageMetadata","inputs":[],"outputs":[{"name":"name_","type":"string","internalType":"string"},{"name":"interfaces","type":"bytes4[]","internalType":"bytes4[]"},{"name":"facets","type":"address[]","internalType":"address[]"}],"stateMutability":"view"},{"type":"function","name":"packageName","inputs":[],"outputs":[{"name":"name_","type":"string","internalType":"string"}],"stateMutability":"pure"},{"type":"function","name":"postDeploy","inputs":[{"name":"proxy","type":"address","internalType":"address"}],"outputs":[{"name":"","type":"bool","internalType":"bool"}],"stateMutability":"nonpayable"},{"type":"function","name":"processArgs","inputs":[{"name":"pkgArgs","type":"bytes","internalType":"bytes"}],"outputs":[{"name":"processedPkgArgs","type":"bytes","internalType":"bytes"}],"stateMutability":"view"},{"type":"function","name":"tokenConfigs","inputs":[{"name":"pool","type":"address","internalType":"address"}],"outputs":[{"name":"","type":"tuple[]","internalType":"struct TokenConfig[]","components":[{"name":"token","type":"address","internalType":"contract IERC20"},{"name":"tokenType","type":"uint8","internalType":"enum TokenType"},{"name":"rateProvider","type":"address","internalType":"contract IRateProvider"},{"name":"paysYieldFees","type":"bool","internalType":"bool"}]}],"stateMutability":"view"},{"type":"function","name":"updatePkg","inputs":[{"name":"expectedProxy","type":"address","internalType":"address"},{"name":"pkgArgs","type":"bytes","internalType":"bytes"}],"outputs":[{"name":"","type":"bool","internalType":"bool"}],"stateMutability":"nonpayable"},{"type":"event","name":"FactoryDisabled","inputs":[],"anonymous":false},{"type":"event","name":"PoolCreated","inputs":[{"name":"pool","type":"address","indexed":true,"internalType":"address"}],"anonymous":false},{"type":"error","name":"Disabled","inputs":[]},{"type":"error","name":"IndexOutOfBounds","inputs":[]},{"type":"error","name":"IndexOutOfBounds","inputs":[{"name":"length","type":"uint256","internalType":"uint256"},{"name":"invalidIndex","type":"uint256","internalType":"uint256"},{"name":"errorCode","type":"uint256","internalType":"uint256"}]},{"type":"error","name":"InvalidPageSize","inputs":[{"name":"start","type":"uint256","internalType":"uint256"},{"name":"end","type":"uint256","internalType":"uint256"}]},{"type":"error","name":"InvalidTokensLength","inputs":[{"name":"maxLength","type":"uint256","internalType":"uint256"},{"name":"minLength","type":"uint256","internalType":"uint256"},{"name":"providedLength","type":"uint256","internalType":"uint256"}]},{"type":"error","name":"PoolPauseWindowDurationOverflow","inputs":[]},{"type":"error","name":"SenderNotAllowed","inputs":[]},{"type":"error","name":"StringTooLong","inputs":[{"name":"str","type":"string","internalType":"string"}]}],"bytecode":{"object":"0x610160604052348015610010575f5ffd5b506040516134b83803806134b883398101604081905261002f91610258565b60e0808201516001600160a01b0390811660805261010080840151821660a09081528451831660c090815260208601518416909452604085015183169091528301518116610120908152918301511661014052810151610094906301e13380906100d8565b604080513060208201526100c491016040516020818303038152906040528051906020012061010760201b60201c565b60e08101516100d290610133565b50610350565b6101037f083b184f81c44d1555bdab2b99aeea4d11b107caca4883125bcb0b412d1f81328383610172565b5050565b6101307f82340927aad1ca6b5f8bb0037567f287e1bec629ab302d4e1debbc0d7543b1f8829055565b50565b6101307f392e49ca1983749c4549242b814e6592e6c2354a2bb55242596ce0ad2e7b100180546001600160a01b0319166001600160a01b038416179055565b5f61017d8342610322565b905063ffffffff80821611156101a6576040516368755a1160e01b815260040160405180910390fd5b8354610100600160481b0319166501000000000063ffffffff9283160264ffffffff00191617610100939091169290920291909117600160481b600160e81b03191669010000000000000000006001600160a01b039290921691909102179055565b60405161014081016001600160401b038111828210171561023757634e487b7160e01b5f52604160045260245ffd5b60405290565b80516001600160a01b0381168114610253575f5ffd5b919050565b5f61014082840312801561026a575f5ffd5b50610273610208565b61027c8361023d565b815261028a6020840161023d565b602082015261029b6040840161023d565b60408201526102ac6060840161023d565b60608201526102bd6080840161023d565b60808201526102ce60a0840161023d565b60a08201526102df60c0840161023d565b60c08201526102f060e0840161023d565b60e0820152610302610100840161023d565b610100820152610315610120840161023d565b6101208201529392505050565b63ffffffff818116838216019081111561034a57634e487b7160e01b5f52601160045260245ffd5b92915050565b60805160a05160c05160e0516101005161012051610140516130a06104185f395f818161040901528181610aa401528181611312015261135801525f818161043001528181610a500152818161121e015261126401525f818161031a015281816109fc0152818161112a015261117001525f8181610341015281816109a801528181611036015261107c01525f81816102f30152818161095501528181610f580152610f8901525f81816103b70152818161046c01526108b301525f61037d01526130a05ff3fe608060405234801561000f575f5ffd5b5060043610610173575f3560e01c80630eb38a78146101775780631b69dc5f146101a05780632ea80826146101c05780632f2770db146101d557806344f6fec7146101df57806352ef6b2c146101f257806353a72f7e1461020757806365d375b31461021a5780636634b7531461022f578063673a2a1f146102525780636c57f5a91461025a57806370068fcf1461026257806378da80cb14610275578063851c1bb314610292578063870d4838146102b357806387c3adb3146102c65780638eec5d70146102e657806390d8c705146102ee578063a2bebeb214610315578063a378544d1461033c578063a4b3ad3514610363578063a4c01bbb14610378578063a90892351461039f578063ab6046ed146103b2578063abc8b346146103d9578063d82be56e146103e1578063db035ebc146103f4578063e9d56e19146103fc578063f0007c0e14610404578063f07033251461042b578063f45469e714610452575b5f5ffd5b61018a610185366004612436565b610469565b60405161019791906124b6565b60405180910390f35b6101b36101ae3660046124ca565b61058d565b6040516101979190612588565b6101c861059e565b60405161019791906125d4565b6101dd610855565b005b61018a6101ed3660046126ec565b61089a565b6101fa610930565b6040516101979190612766565b6101fa610215366004612778565b610af9565b610222610b05565b604051610197919061282e565b61024261023d3660046124ca565b610b40565b6040519015158152602001610197565b6101fa610b4a565b610242610b59565b6102426102703660046124ca565b610b62565b61027d610bd8565b60405163ffffffff9091168152602001610197565b6102a56102a0366004612884565b610be1565b604051908152602001610197565b6101dd6102c136600461289f565b610beb565b6102d96102d436600461289f565b610ea5565b60405161019791906128fe565b6102a5610ef4565b61018a7f000000000000000000000000000000000000000000000000000000000000000081565b61018a7f000000000000000000000000000000000000000000000000000000000000000081565b61018a7f000000000000000000000000000000000000000000000000000000000000000081565b61036b610efd565b6040516101979190612910565b61018a7f000000000000000000000000000000000000000000000000000000000000000081565b6102426103ad366004612922565b6113fc565b61018a7f000000000000000000000000000000000000000000000000000000000000000081565b6102d9611439565b6102a56103ef36600461289f565b611459565b61027d611504565b61027d61150d565b61018a7f000000000000000000000000000000000000000000000000000000000000000081565b61018a7f000000000000000000000000000000000000000000000000000000000000000081565b61045a611516565b6040516101979392919061296e565b5f7f00000000000000000000000000000000000000000000000000000000000000006001600160a01b031663e97fac053060405180604001604052808888808060200260200160405190810160405280939291908181526020015f905b828210156104f2576104e3608083028601368190038101906129c9565b815260200190600101906104c6565b50505050508152602001866001600160a01b03168152506040516020016105199190612a30565b6040516020818303038152906040526040518363ffffffff1660e01b8152600401610545929190612a9e565b6020604051808303815f875af1158015610561573d5f5f3e3d5ffd5b505050506040513d601f19601f820116820180604052508101906105859190612ad1565b949350505050565b60606105988261153e565b92915050565b60408051600b808252610180820190925260609160208201610160803683370190505090506336372b0760e01b815f815181106105dd576105dd612aec565b60200260200101906001600160e01b03191690816001600160e01b0319168152505063a219a02560e01b8160018151811061061a5761061a612aec565b6001600160e01b0319909216602092830291909101909101528051634a17459160e11b908290600290811061065157610651612aec565b60200260200101906001600160e01b03191690816001600160e01b03191681525050634ec7fbed60e11b8160038151811061068e5761068e612aec565b60200260200101906001600160e01b03191690816001600160e01b031916815250506342580cb760e11b816004815181106106cb576106cb612aec565b60200260200101906001600160e01b03191690816001600160e01b03191681525050634b12c34f60e01b8160058151811061070857610708612aec565b60200260200101906001600160e01b03191690816001600160e01b0319168152505063e244eef560e01b8160068151811061074557610745612aec565b60200260200101906001600160e01b03191690816001600160e01b03191681525050637e126dc760e11b8160078151811061078257610782612aec565b60200260200101906001600160e01b03191690816001600160e01b031916815250506355b60edd60e11b816008815181106107bf576107bf612aec565b60200260200101906001600160e01b03191690816001600160e01b0319168152505063914be08960e01b816009815181106107fc576107fc612aec565b60200260200101906001600160e01b03191690816001600160e01b0319168152505063755994e960e01b81600a8151811061083957610839612aec565b6001600160e01b03199092166020928302919091019091015290565b3061085f81611551565b610867611594565b61086f6115bc565b6040517f432acbfd662dbb5d8b378384a67159b47ca9d0f1b79f97cf64cf8585fa362d50905f90a150565b60405163033a41d760e41b81525f906001600160a01b037f000000000000000000000000000000000000000000000000000000000000000016906333a41d70906108ea9030908790600401612a9e565b602060405180830381865afa158015610905573d5f5f3e3d5ffd5b505050506040513d601f19601f820116820180604052508101906109299190612ad1565b9392505050565b60408051600580825260c082019092526060916020820160a0803683370190505090507f0000000000000000000000000000000000000000000000000000000000000000815f8151811061098657610986612aec565b60200260200101906001600160a01b031690816001600160a01b0316815250507f0000000000000000000000000000000000000000000000000000000000000000816001815181106109da576109da612aec565b60200260200101906001600160a01b031690816001600160a01b0316815250507f000000000000000000000000000000000000000000000000000000000000000081600281518110610a2e57610a2e612aec565b60200260200101906001600160a01b031690816001600160a01b0316815250507f000000000000000000000000000000000000000000000000000000000000000081600381518110610a8257610a82612aec565b60200260200101906001600160a01b031690816001600160a01b0316815250507f000000000000000000000000000000000000000000000000000000000000000081600481518110610ad657610ad6612aec565b60200260200101906001600160a01b031690816001600160a01b03168152505090565b606061092983836115d4565b60408051808201909152606080825260208201526040518060400160405280610b2c610efd565b8152602001610b3961059e565b9052919050565b5f610598826115e8565b6060610b546115fa565b905090565b5f610b5461160c565b5f610bd082610b708461153e565b66b1a2bc2ec500005f610b8161161f565b610b8a8861166c565b60408051608080820183525f808352602080840182905283850182905260609384018290528451928301855281835282018190529281019290925260019082015261169a565b506001919050565b5f610b54611721565b5f6105988261173c565b5f81806020019051810190610c009190612b22565b90505f815f0151516001600160401b03811115610c1f57610c1f6125e6565b604051908082528060200260200182016040528015610c48578160200160208202803683370190505b509050815f01515f81518110610c6057610c60612aec565b60200260200101515f0151815f81518110610c7d57610c7d612aec565b6001600160a01b0390921660209283029190910190910152815180516001908110610caa57610caa612aec565b60200260200101515f015181600181518110610cc857610cc8612aec565b60200260200101906001600160a01b031690816001600160a01b0316815250505f815f81518110610cfb57610cfb612aec565b60200260200101516001600160a01b03166306fdde036040518163ffffffff1660e01b81526004015f60405180830381865afa158015610d3d573d5f5f3e3d5ffd5b505050506040513d5f823e601f3d908101601f19168201604052610d649190810190612c53565b82600181518110610d7757610d77612aec565b60200260200101516001600160a01b03166306fdde036040518163ffffffff1660e01b81526004015f60405180830381865afa158015610db9573d5f5f3e3d5ffd5b505050506040513d5f823e601f3d908101601f19168201604052610de09190810190612c53565b604051602001610df1929190612cde565b60408051601f19818403018152828201909152600382526210941560ea1b60208301529150610e23908290601261174e565b610e4681604051806040016040528060018152602001603160f81b815250611766565b610e706709b6e64a8ec600006729a2241af62c000064e8d4a5100067016345785d8a000086611778565b610e9f30604051602001610e8491906124b6565b604051602081830303815290604052805190602001206117ad565b50505050565b60605f82806020019051810190610ebc9190612b22565b9050610eca815f01516117c0565b8152604051610edd908290602001612a30565b604051602081830303815290604052915050919050565b5f610b546118fa565b60408051600580825260c08201909252606091816020015b60408051606080820183525f808352602083015291810191909152815260200190600190039081610f155790505060408051606081019091526001600160a01b037f0000000000000000000000000000000000000000000000000000000000000000168152909150602081015f81526020017f00000000000000000000000000000000000000000000000000000000000000006001600160a01b031663574a4cff6040518163ffffffff1660e01b81526004015f60405180830381865afa158015610fe2573d5f5f3e3d5ffd5b505050506040513d5f823e601f3d908101601f191682016040526110099190810190612d2c565b815250815f8151811061101e5761101e612aec565b602002602001018190525060405180606001604052807f00000000000000000000000000000000000000000000000000000000000000006001600160a01b031681526020015f6002811115611075576110756124e5565b81526020017f00000000000000000000000000000000000000000000000000000000000000006001600160a01b031663574a4cff6040518163ffffffff1660e01b81526004015f60405180830381865afa1580156110d5573d5f5f3e3d5ffd5b505050506040513d5f823e601f3d908101601f191682016040526110fc9190810190612d2c565b8152508160018151811061111257611112612aec565b602002602001018190525060405180606001604052807f00000000000000000000000000000000000000000000000000000000000000006001600160a01b031681526020015f6002811115611169576111696124e5565b81526020017f00000000000000000000000000000000000000000000000000000000000000006001600160a01b031663574a4cff6040518163ffffffff1660e01b81526004015f60405180830381865afa1580156111c9573d5f5f3e3d5ffd5b505050506040513d5f823e601f3d908101601f191682016040526111f09190810190612d2c565b8152508160028151811061120657611206612aec565b602002602001018190525060405180606001604052807f00000000000000000000000000000000000000000000000000000000000000006001600160a01b031681526020015f600281111561125d5761125d6124e5565b81526020017f00000000000000000000000000000000000000000000000000000000000000006001600160a01b031663574a4cff6040518163ffffffff1660e01b81526004015f60405180830381865afa1580156112bd573d5f5f3e3d5ffd5b505050506040513d5f823e601f3d908101601f191682016040526112e49190810190612d2c565b815250816003815181106112fa576112fa612aec565b602002602001018190525060405180606001604052807f00000000000000000000000000000000000000000000000000000000000000006001600160a01b031681526020015f6002811115611351576113516124e5565b81526020017f00000000000000000000000000000000000000000000000000000000000000006001600160a01b031663574a4cff6040518163ffffffff1660e01b81526004015f60405180830381865afa1580156113b1573d5f5f3e3d5ffd5b505050506040513d5f823e601f3d908101601f191682016040526113d89190810190612d2c565b815250816004815181106113ee576113ee612aec565b602002602001018190525090565b5f5f828060200190518101906114129190612b22565b905061142184825f015161190b565b61142f84826020015161191d565b5060019392505050565b606060405180606001604052602281528060200161304960229139905090565b5f5f8280602001905181019061146f9190612b22565b8051519091506002146114a75780515160405163d484b2bd60e01b815261149e91600291829190600401612dbb565b60405180910390fd5b80516114b2906117c0565b81526040516114c5908290602001612a30565b6040516020818303038152906040529250610929836040516020016114ea91906128fe565b604051602081830303815290604052805160209091012090565b5f610b5461195c565b5f610b5461196d565b6060806060611523611439565b925061152d61059e565b9150611537610930565b9050909192565b606061059861154b61198a565b836119ae565b5f6115665f356001600160e01b03191661173c565b9050611573813384611b3b565b611590576040516323dada5360e01b815260040160405180910390fd5b5050565b61159c61160c565b156115ba57604051633ac4266d60e11b815260040160405180910390fd5b565b6115ba6115c761198a565b805460ff19166001179055565b60606109296115e161198a565b8484611c1c565b5f6105986115f461198a565b83611c2c565b6060610b5461160761198a565b611c3a565b5f610b5461161861198a565b5460ff1690565b604080516060810182525f8082526020820181905291810182905290611643611c9e565b604080516060810182526001600160a01b03909216808352602083018190529082015292915050565b5f61059861167861198a565b6001600160a01b038085165f9081526007929092016020526040909120541690565b6116a387611cbe565b6116ab611ccf565b6001600160a01b031663eeec802f8888886116c4611504565b898989896040518963ffffffff1660e01b81526004016116eb989796959493929190612dd1565b5f604051808303815f87803b158015611702575f5ffd5b505af1158015611714573d5f5f3e3d5ffd5b5050505050505050505050565b5f610b5461172d61198a565b54610100900463ffffffff1690565b5f610598611748611d01565b83611d25565b611761611759611d54565b848484611d9f565b505050565b611590611771611dd6565b8383611e09565b6117a67fad058ae2c4fd2dc635a6531cef09fdcc7264c09c1ee65b9e398137189754ce718686868686611e70565b5050505050565b6117bd6117b8611d01565b829055565b50565b60605f60015b83518110156118f2575f9150815b8185516117e19190612e96565b8110156118dc578481815181106117fa576117fa612aec565b60200260200101515f01516001600160a01b03168582600161181c9190612ea9565b8151811061182c5761182c612aec565b60200260200101515f01516001600160a01b031610156118d4575f85828151811061185957611859612aec565b60200260200101519050858260016118719190612ea9565b8151811061188157611881612aec565b602002602001015186838151811061189b5761189b612aec565b602090810291909101015280866118b3846001612ea9565b815181106118c3576118c3612aec565b602002602001018190525060019350505b6001016117d4565b50816118ea57509192915050565b6001016117c6565b509192915050565b5f610b5461190661198a565b611e9e565b61159061191661198a565b8383611eaa565b61159061192861198a565b6001600160a01b038085165f908152600792909201602052604090912080546001600160a01b031916918416919091179055565b5f610b5461196861198a565b6120c2565b5f610b5461197961198a565b54600160281b900463ffffffff1690565b7f083b184f81c44d1555bdab2b99aeea4d11b107caca4883125bcb0b412d1f813290565b6001600160a01b0381165f908152600383016020526040902060010154606090806001600160401b038111156119e6576119e66125e6565b604051908082528060200260200182016040528015611a3657816020015b604080516080810182525f8082526020808301829052928201819052606082015282525f19909201910181611a045790505b5091505f5b81811015611b33576001600160a01b0384165f9081526003860160205260408120611a6690836120ef565b604080516080810182526001600160a01b038084168083529089165f90815260048b0160209081528482209282529182529290922054929350919082019060ff166001811115611ab857611ab86124e5565b81526001600160a01b038088165f81815260058b0160209081526040808320888616808552908352818420549095168287015292825260068c01815282822093825292909252908190205460ff1615159101528451859084908110611b1f57611b1f612aec565b602090810291909101015250600101611a3b565b505092915050565b5f611b44611ccf565b6001600160a01b031663aaabadc56040518163ffffffff1660e01b8152600401602060405180830381865afa158015611b7f573d5f5f3e3d5ffd5b505050506040513d601f19601f82011682018060405250810190611ba39190612ad1565b6040516326f8aa2160e21b8152600481018690526001600160a01b03858116602483015284811660448301529190911690639be2a88490606401602060405180830381865afa158015611bf8573d5f5f3e3d5ffd5b505050506040513d601f19601f820116820180604052508101906105859190612ebc565b6060610585600185018484612131565b5f610929600184018361223f565b606060028201805480602002602001604051908101604052809291908181526020018280548015611c9257602002820191905f5260205f20905b81546001600160a01b03168152600190910190602001808311611c74575b50505050509050919050565b5f610b54611caa61198a565b54600160481b90046001600160a01b031690565b6117bd611cc961198a565b8261225c565b5f610b547f392e49ca1983749c4549242b814e6592e6c2354a2bb55242596ce0ad2e7b1001546001600160a01b031690565b7f82340927aad1ca6b5f8bb0037567f287e1bec629ab302d4e1debbc0d7543b1f890565b5f610929611d31845490565b6040805160208101929092526001600160e01b03198516908201526044016114ea565b5f610b54604051602001611d86906020808252600a908201526906569702e6572632e32360b41b604082015260600190565b6040516020818303038152906040528051906020012090565b83611daa8482612f53565b5060018401611db98382612f53565b50600293909301805460ff191660ff909416939093179092555050565b5f610b54604051602001611d86906020808252600b908201526a32b4b81732b4b8171b989960a91b604082015260600190565b611e168260078501612269565b6005840155611e288160088501612269565b6006840155815160208084019190912060038501558151908201206004840155466001840155611e57836122c6565b8355505060020180546001600160a01b03191630179055565b848655600186018490556002860183905560038601829055611e956004870182612320565b50505050505050565b60028101545f90610598565b5f5b8151811015610e9f57611ef7828281518110611eca57611eca612aec565b602090810291909101810151516001600160a01b0386165f90815260038801909252604090912090612361565b50818181518110611f0a57611f0a612aec565b602002602001015160400151846005015f856001600160a01b03166001600160a01b031681526020019081526020015f205f848481518110611f4e57611f4e612aec565b60200260200101515f01516001600160a01b03166001600160a01b031681526020019081526020015f205f6101000a8154816001600160a01b0302191690836001600160a01b03160217905550818181518110611fad57611fad612aec565b602002602001015160200151846004015f856001600160a01b03166001600160a01b031681526020019081526020015f205f848481518110611ff157611ff1612aec565b602090810291909101810151516001600160a01b031682528101919091526040015f20805460ff19166001838181111561202d5761202d6124e5565b021790555081818151811061204457612044612aec565b602002602001015160600151846006015f856001600160a01b03166001600160a01b031681526020019081526020015f205f84848151811061208857612088612aec565b602090810291909101810151516001600160a01b031682528101919091526040015f20805460ff1916911515919091179055600101611eac565b5f5f6120da835463ffffffff600160281b9091041690565b90508063ffffffff164210610598575f610929565b60018201545f9061210090836123bd565b5082600101828154811061211657612116612aec565b5f918252602090912001546001600160a01b03169392505050565b60608282101561215e5760405163dc78128f60e01b8152600481018490526024810183905260440161149e565b5f61216a856001015490565b905061217681856123bd565b5061218181846123bd565b505f61218d8585612e96565b612198906001612ea9565b9050806001600160401b038111156121b2576121b26125e6565b6040519080825280602002602001820160405280156121db578160200160208202803683370190505b5092505f855b858111612234576121f288826120ef565b85838151811061220457612204612aec565b6001600160a01b03909216602092830291909101909101526001909101908061222c8161300d565b9150506121e1565b505050509392505050565b6001600160a01b03165f9081526020919091526040902054151590565b6117616001830182612361565b5f6020835110156122845761227d836123e5565b9050610598565b825160018160011b178355825f5260205f20602085015f5b838110156122b85781810151600582901c84015560200161229c565b5060ff935061059892505050565b60038101546004820154604080517f8b73c3c69bb8fe3d512ecc4cf759cc79239f7b179b0ffacaa9a75d522b39400f60208201529081019290925260608201524660808201523060a08201525f906105989060c0016114ea565b5f805b825181101561142f5761235883828151811061234157612341612aec565b60200260200101518561236190919063ffffffff16565b50600101612323565b5f61236c838361223f565b6123b4576001838101805491820181555f818152602080822090930180546001600160a01b0319166001600160a01b0387169081179091559154918152918590526040909120555b50600192915050565b5f8183116123b45782826032604051635400feb960e01b815260040161149e93929190612dbb565b5f5f829050601f8151111561240f578260405163305a27a960e01b815260040161149e91906128fe565b805161241a82613025565b179392505050565b6001600160a01b03811681146117bd575f5ffd5b5f5f5f60408486031215612448575f5ffd5b83356001600160401b0381111561245d575f5ffd5b8401601f8101861361246d575f5ffd5b80356001600160401b03811115612482575f5ffd5b8660208260071b8401011115612496575f5ffd5b6020918201945092508401356124ab81612422565b809150509250925092565b6001600160a01b0391909116815260200190565b5f602082840312156124da575f5ffd5b813561092981612422565b634e487b7160e01b5f52602160045260245ffd5b80516001600160a01b0316825260208101515f906002811061251d5761251d6124e5565b6020840152506040818101516001600160a01b03169083015260609081015115159082015260800190565b5f8151808452602084019350602083015f5b8281101561257e5761256d8683516124f9565b95506020919091019060010161255a565b5093949350505050565b602081525f6109296020830184612548565b5f8151808452602084019350602083015f5b8281101561257e5781516001600160e01b0319168652602095860195909101906001016125ac565b602081525f610929602083018461259a565b634e487b7160e01b5f52604160045260245ffd5b604051608081016001600160401b038111828210171561261c5761261c6125e6565b60405290565b604080519081016001600160401b038111828210171561261c5761261c6125e6565b604051601f8201601f191681016001600160401b038111828210171561266c5761266c6125e6565b604052919050565b5f6001600160401b0382111561268c5761268c6125e6565b50601f01601f191660200190565b5f82601f8301126126a9575f5ffd5b81356126bc6126b782612674565b612644565b8181528460208386010111156126d0575f5ffd5b816020850160208301375f918101602001919091529392505050565b5f5f604083850312156126fd575f5ffd5b82356001600160401b03811115612712575f5ffd5b61271e8582860161269a565b95602094909401359450505050565b5f8151808452602084019350602083015f5b8281101561257e5781516001600160a01b031686526020958601959091019060010161273f565b602081525f610929602083018461272d565b5f5f60408385031215612789575f5ffd5b50508035926020909101359150565b5f82825180855260208501945060208160051b830101602085015f5b8381101561282257848303601f19018852815180516001600160a01b031684526020810151600381106127e9576127e96124e5565b80602086015250604081015190506060604085015261280b606085018261259a565b6020998a01999094509290920191506001016127b4565b50909695505050505050565b602081525f8251604060208401526128496060840182612798565b90506020840151601f19848303016040850152612866828261259a565b95945050505050565b6001600160e01b0319811681146117bd575f5ffd5b5f60208284031215612894575f5ffd5b81356109298161286f565b5f602082840312156128af575f5ffd5b81356001600160401b038111156128c4575f5ffd5b6105858482850161269a565b5f81518084528060208401602086015e5f602082860101526020601f19601f83011685010191505092915050565b602081525f61092960208301846128d0565b602081525f6109296020830184612798565b5f5f60408385031215612933575f5ffd5b823561293e81612422565b915060208301356001600160401b03811115612958575f5ffd5b6129648582860161269a565b9150509250929050565b606081525f61298060608301866128d0565b8281036020840152612992818661259a565b905082810360408401526129a6818561272d565b9695505050505050565b600281106117bd575f5ffd5b80151581146117bd575f5ffd5b5f60808284031280156129da575f5ffd5b506129e36125fa565b82356129ee81612422565b815260208301356129fe816129b0565b60208201526040830135612a1181612422565b60408201526060830135612a24816129bc565b60608201529392505050565b602080825282516040838301528051606084018190525f929190910190829060808501905b80831015612a7b57612a688285516124f9565b9150602084019350600183019250612a55565b50602095909501516001600160a01b031660409490940193909352509192915050565b6001600160a01b03831681526040602082018190525f90610585908301846128d0565b8051612acc81612422565b919050565b5f60208284031215612ae1575f5ffd5b815161092981612422565b634e487b7160e01b5f52603260045260245ffd5b5f6001600160401b03821115612b1857612b186125e6565b5060051b60200190565b5f60208284031215612b32575f5ffd5b81516001600160401b03811115612b47575f5ffd5b820160408185031215612b58575f5ffd5b612b60612622565b81516001600160401b03811115612b75575f5ffd5b8201601f81018613612b85575f5ffd5b8051612b936126b782612b00565b8082825260208201915060208360071b850101925088831115612bb4575f5ffd5b6020840193505b82841015612c34576080848a031215612bd2575f5ffd5b612bda6125fa565b8451612be581612422565b81526020850151612bf5816129b0565b60208201526040850151612c0881612422565b60408201526060850151612c1b816129bc565b6060820152825260809390930192602090910190612bbb565b845250612c4691505060208301612ac1565b6020820152949350505050565b5f60208284031215612c63575f5ffd5b81516001600160401b03811115612c78575f5ffd5b8201601f81018413612c88575f5ffd5b8051612c966126b782612674565b818152856020838501011115612caa575f5ffd5b8160208401602083015e5f91810160200191909152949350505050565b5f81518060208401855e5f93019283525090919050565b70084ac6686dedce6e8a0e4dec840decc405607b1b81525f612d036011830185612cc7565b6201017960ed1b8152612d196003820185612cc7565b602960f81b815260010195945050505050565b5f60208284031215612d3c575f5ffd5b81516001600160401b03811115612d51575f5ffd5b8201601f81018413612d61575f5ffd5b8051612d6f6126b782612b00565b8082825260208201915060208360051b850101925086831115612d90575f5ffd5b6020840193505b828410156129a6578351612daa8161286f565b825260209384019390910190612d97565b9283526020830191909152604082015260600190565b6001600160a01b03891681526101a0602082018190525f90612df59083018a612548565b60408381018a905263ffffffff89166060850152871515608085015286516001600160a01b0390811660a08601526020880151811660c086015290870151811660e085015285166101008401529050825115156101208301526020830151151561014083015260408301511515610160830152606083015115156101808301529998505050505050505050565b634e487b7160e01b5f52601160045260245ffd5b8181038181111561059857610598612e82565b8082018082111561059857610598612e82565b5f60208284031215612ecc575f5ffd5b8151610929816129bc565b600181811c90821680612eeb57607f821691505b602082108103612f0957634e487b7160e01b5f52602260045260245ffd5b50919050565b601f82111561176157805f5260205f20601f840160051c81016020851015612f345750805b601f840160051c820191505b818110156117a6575f8155600101612f40565b81516001600160401b03811115612f6c57612f6c6125e6565b612f8081612f7a8454612ed7565b84612f0f565b6020601f821160018114612fb2575f8315612f9b5750848201515b5f19600385901b1c1916600184901b1784556117a6565b5f84815260208120601f198516915b82811015612fe15787850151825560209485019460019092019101612fc1565b5084821015612ffe57868401515f19600387901b60f8161c191681555b50505050600190811b01905550565b5f6001820161301e5761301e612e82565b5060010190565b80516020808301519190811015612f09575f1960209190910360031b1b1691905056fe42616c616e6365725633436f6e7374616e7450726f64756374506f6f6c4446506b67a26469706673582212203bc04474f2798b254ff06ca9899a1cc805f894189f7548677cd936942559171264736f6c634300081e0033","linkReferences":{}},"methodIdentifiers":{"BALANCER_V3_AUTHENTICATION_FACET()":"f0703325","BALANCER_V3_CONST_PROD_POOL_FACET()":"f0007c0e","BALANCER_V3_VAULT()":"a4c01bbb","BALANCER_V3_VAULT_AWARE_FACET()":"90d8c705","BETTER_BALANCER_V3_POOL_TOKEN_FACET()":"a378544d","DEFAULT_POOL_INFO_FACET()":"a2bebeb2","DIAMOND_PACKAGE_FACTORY()":"ab6046ed","calcSalt(bytes)":"d82be56e","deployPool((address,uint8,address,bool)[],address)":"0eb38a78","diamondConfig()":"65d375b3","disable()":"2f2770db","facetAddresses()":"52ef6b2c","facetCuts()":"a4b3ad35","facetInterfaces()":"2ea80826","getActionId(bytes4)":"851c1bb3","getDeploymentAddress(bytes,bytes32)":"44f6fec7","getNewPoolPauseWindowEndTime()":"db035ebc","getOriginalPauseWindowEndTime()":"e9d56e19","getPauseWindowDuration()":"78da80cb","getPoolCount()":"8eec5d70","getPools()":"673a2a1f","getPoolsInRange(uint256,uint256)":"53a72f7e","initAccount(bytes)":"870d4838","isDisabled()":"6c57f5a9","isPoolFromFactory(address)":"6634b753","packageMetadata()":"f45469e7","packageName()":"abc8b346","postDeploy(address)":"70068fcf","processArgs(bytes)":"87c3adb3","tokenConfigs(address)":"1b69dc5f","updatePkg(address,bytes)":"a9089235"},"id":861}