{"abi":[{"type":"constructor","inputs":[],"stateMutability":"nonpayable"},{"type":"function","name":"cut","inputs":[],"outputs":[{"name":"","type":"uint256","internalType":"uint256"}],"stateMutability":"view"},{"type":"function","name":"deny","inputs":[{"name":"usr","type":"address","internalType":"address"}],"outputs":[],"stateMutability":"nonpayable"},{"type":"function","name":"file","inputs":[{"name":"what","type":"bytes32","internalType":"bytes32"},{"name":"data","type":"uint256","internalType":"uint256"}],"outputs":[],"stateMutability":"nonpayable"},{"type":"function","name":"price","inputs":[{"name":"top","type":"uint256","internalType":"uint256"},{"name":"dur","type":"uint256","internalType":"uint256"}],"outputs":[{"name":"","type":"uint256","internalType":"uint256"}],"stateMutability":"view"},{"type":"function","name":"rely","inputs":[{"name":"usr","type":"address","internalType":"address"}],"outputs":[],"stateMutability":"nonpayable"},{"type":"function","name":"wards","inputs":[{"name":"","type":"address","internalType":"address"}],"outputs":[{"name":"","type":"uint256","internalType":"uint256"}],"stateMutability":"view"},{"type":"event","name":"Deny","inputs":[{"name":"usr","type":"address","indexed":true,"internalType":"address"}],"anonymous":false},{"type":"event","name":"File","inputs":[{"name":"what","type":"bytes32","indexed":true,"internalType":"bytes32"},{"name":"data","type":"uint256","indexed":false,"internalType":"uint256"}],"anonymous":false},{"type":"event","name":"Rely","inputs":[{"name":"usr","type":"address","indexed":true,"internalType":"address"}],"anonymous":false}],"bytecode":{"object":"0x6080604052348015600e575f5ffd5b50335f8181526020819052604080822060019055517fdd0e34038ac38b2a1ce960229778ac48a8719bc900b6c4f8d0475c6e8b385a609190a26104ff806100545f395ff3fe608060405234801561000f575f5ffd5b5060043610610060575f3560e01c806329ae811414610064578063487a23951461007957806365fae35e1461009e5780639c52a7f1146100b1578063bf353dbb146100c4578063e6fd604c146100e3575b5f5ffd5b61007761007236600461042d565b6100ec565b005b61008c61008736600461042d565b61022f565b60405190815260200160405180910390f35b6100776100ac36600461044d565b610258565b6100776100bf36600461044d565b6102ca565b61008c6100d236600461044d565b5f6020819052908152604090205481565b61008c60015481565b335f908152602081905260409020546001146101235760405162461bcd60e51b815260040161011a90610473565b60405180910390fd5b816218dd5d60ea1b0361019557676765c793fa10079d601b1b81600181905511156101905760405162461bcd60e51b815260206004820152601e60248201527f4578706f6e656e7469616c44656372656173652f6375742d67742d5241590000604482015260640161011a565b6101f1565b60405162461bcd60e51b815260206004820152602b60248201527f4578706f6e656e7469616c44656372656173652f66696c652d756e7265636f6760448201526a6e697a65642d706172616d60a81b606482015260840161011a565b817fe986e40cc8c151830d4f61050f4fb2e4add8567caad2d5f5496f9158e91fe4c78260405161022391815260200190565b60405180910390a25050565b5f6102518361024c60015485676765c793fa10079d601b1b61033b565b6103f3565b9392505050565b335f908152602081905260409020546001146102865760405162461bcd60e51b815260040161011a90610473565b6001600160a01b0381165f8181526020819052604080822060019055517fdd0e34038ac38b2a1ce960229778ac48a8719bc900b6c4f8d0475c6e8b385a609190a250565b335f908152602081905260409020546001146102f85760405162461bcd60e51b815260040161011a90610473565b6001600160a01b0381165f81815260208190526040808220829055517f184450df2e323acec0ed3b5c7531b81f9b4cdef7914dfd4c0a4317416bb5251b9190a250565b5f8280156103e7578480156103dd5760018516801561035c57869350610360565b8493505b50600284046002860495505b85156103d7578687028760801c15610382575f5ffd5b81810181811015610391575f5ffd5b86900497505060018616156103cc5786840284888204141588151516156103b6575f5ffd5b818101818110156103c5575f5ffd5b8690049450505b60028604955061036c565b506103e1565b5f92505b506103eb565b8291505b509392505050565b81810281158061041157508282828161040e5761040e6104b5565b04145b610419575f5ffd5b676765c793fa10079d601b1b900492915050565b5f5f6040838503121561043e575f5ffd5b50508035926020909101359150565b5f6020828403121561045d575f5ffd5b81356001600160a01b0381168114610251575f5ffd5b60208082526022908201527f4578706f6e656e7469616c44656372656173652f6e6f742d617574686f72697a604082015261195960f21b606082015260800190565b634e487b7160e01b5f52601260045260245ffdfea2646970667358221220eaa5f366ed866a3cd0e1765612741bba3a33d24fbb26b87825a8a90ae1ed92fa64736f6c634300081e0033","linkReferences":{}},"methodIdentifiers":{"cut()":"e6fd604c","deny(address)":"9c52a7f1","file(bytes32,uint256)":"29ae8114","price(uint256,uint256)":"487a2395","rely(address)":"65fae35e","wards(address)":"bf353dbb"},"id":681}