{"abi":[{"type":"constructor","inputs":[],"stateMutability":"nonpayable"},{"type":"function","name":"deny","inputs":[{"name":"usr","type":"address","internalType":"address"}],"outputs":[],"stateMutability":"nonpayable"},{"type":"function","name":"file","inputs":[{"name":"what","type":"bytes32","internalType":"bytes32"},{"name":"data","type":"uint256","internalType":"uint256"}],"outputs":[],"stateMutability":"nonpayable"},{"type":"function","name":"price","inputs":[{"name":"top","type":"uint256","internalType":"uint256"},{"name":"dur","type":"uint256","internalType":"uint256"}],"outputs":[{"name":"","type":"uint256","internalType":"uint256"}],"stateMutability":"view"},{"type":"function","name":"rely","inputs":[{"name":"usr","type":"address","internalType":"address"}],"outputs":[],"stateMutability":"nonpayable"},{"type":"function","name":"tau","inputs":[],"outputs":[{"name":"","type":"uint256","internalType":"uint256"}],"stateMutability":"view"},{"type":"function","name":"wards","inputs":[{"name":"","type":"address","internalType":"address"}],"outputs":[{"name":"","type":"uint256","internalType":"uint256"}],"stateMutability":"view"},{"type":"event","name":"Deny","inputs":[{"name":"usr","type":"address","indexed":true,"internalType":"address"}],"anonymous":false},{"type":"event","name":"File","inputs":[{"name":"what","type":"bytes32","indexed":true,"internalType":"bytes32"},{"name":"data","type":"uint256","indexed":false,"internalType":"uint256"}],"anonymous":false},{"type":"event","name":"Rely","inputs":[{"name":"usr","type":"address","indexed":true,"internalType":"address"}],"anonymous":false}],"bytecode":{"object":"0x6080604052348015600e575f5ffd5b50335f8181526020819052604080822060019055517fdd0e34038ac38b2a1ce960229778ac48a8719bc900b6c4f8d0475c6e8b385a609190a2610470806100545f395ff3fe608060405234801561000f575f5ffd5b5060043610610060575f3560e01c806329ae811414610064578063487a23951461007957806365fae35e1461009e5780639c52a7f1146100b1578063bf353dbb146100c4578063cfc4af55146100e3575b5f5ffd5b610077610072366004610364565b6100ec565b005b61008c610087366004610364565b6101cf565b60405190815260200160405180910390f35b6100776100ac366004610384565b61021f565b6100776100bf366004610384565b610291565b61008c6100d2366004610384565b5f6020819052908152604090205481565b61008c60015481565b335f908152602081905260409020546001146101235760405162461bcd60e51b815260040161011a906103b1565b60405180910390fd5b816274617560e81b0361013a576001819055610191565b60405162461bcd60e51b815260206004820152602660248201527f4c696e65617244656372656173652f66696c652d756e7265636f676e697a65646044820152652d706172616d60d01b606482015260840161011a565b817fe986e40cc8c151830d4f61050f4fb2e4add8567caad2d5f5496f9158e91fe4c7826040516101c391815260200190565b60405180910390a25050565b5f60015482106101e057505f610219565b6001546102169084906102076101f686836103e8565b676765c793fa10079d601b1b610302565b610211919061041b565b61032a565b90505b92915050565b335f9081526020819052604090205460011461024d5760405162461bcd60e51b815260040161011a906103b1565b6001600160a01b0381165f8181526020819052604080822060019055517fdd0e34038ac38b2a1ce960229778ac48a8719bc900b6c4f8d0475c6e8b385a609190a250565b335f908152602081905260409020546001146102bf5760405162461bcd60e51b815260040161011a906103b1565b6001600160a01b0381165f81815260208190526040808220829055517f184450df2e323acec0ed3b5c7531b81f9b4cdef7914dfd4c0a4317416bb5251b9190a250565b5f8115806103225750508082028282828161031f5761031f610407565b04145b610219575f5ffd5b81810281158061034857508282828161034557610345610407565b04145b610350575f5ffd5b676765c793fa10079d601b1b900492915050565b5f5f60408385031215610375575f5ffd5b50508035926020909101359150565b5f60208284031215610394575f5ffd5b81356001600160a01b03811681146103aa575f5ffd5b9392505050565b6020808252601d908201527f4c696e65617244656372656173652f6e6f742d617574686f72697a6564000000604082015260600190565b8181038181111561021957634e487b7160e01b5f52601160045260245ffd5b634e487b7160e01b5f52601260045260245ffd5b5f8261043557634e487b7160e01b5f52601260045260245ffd5b50049056fea2646970667358221220cd54468c614aa9cc066254a75d3b6a74fed28153dd1e06edcc8d7230acb421ab64736f6c634300081e0033","linkReferences":{}},"methodIdentifiers":{"deny(address)":"9c52a7f1","file(bytes32,uint256)":"29ae8114","price(uint256,uint256)":"487a2395","rely(address)":"65fae35e","tau()":"cfc4af55","wards(address)":"bf353dbb"},"id":681}