{"abi":[{"type":"constructor","inputs":[],"stateMutability":"nonpayable"},{"type":"function","name":"cut","inputs":[],"outputs":[{"name":"","type":"uint256","internalType":"uint256"}],"stateMutability":"view"},{"type":"function","name":"deny","inputs":[{"name":"usr","type":"address","internalType":"address"}],"outputs":[],"stateMutability":"nonpayable"},{"type":"function","name":"file","inputs":[{"name":"what","type":"bytes32","internalType":"bytes32"},{"name":"data","type":"uint256","internalType":"uint256"}],"outputs":[],"stateMutability":"nonpayable"},{"type":"function","name":"price","inputs":[{"name":"top","type":"uint256","internalType":"uint256"},{"name":"dur","type":"uint256","internalType":"uint256"}],"outputs":[{"name":"","type":"uint256","internalType":"uint256"}],"stateMutability":"view"},{"type":"function","name":"rely","inputs":[{"name":"usr","type":"address","internalType":"address"}],"outputs":[],"stateMutability":"nonpayable"},{"type":"function","name":"step","inputs":[],"outputs":[{"name":"","type":"uint256","internalType":"uint256"}],"stateMutability":"view"},{"type":"function","name":"wards","inputs":[{"name":"","type":"address","internalType":"address"}],"outputs":[{"name":"","type":"uint256","internalType":"uint256"}],"stateMutability":"view"},{"type":"event","name":"Deny","inputs":[{"name":"usr","type":"address","indexed":true,"internalType":"address"}],"anonymous":false},{"type":"event","name":"File","inputs":[{"name":"what","type":"bytes32","indexed":true,"internalType":"bytes32"},{"name":"data","type":"uint256","indexed":false,"internalType":"uint256"}],"anonymous":false},{"type":"event","name":"Rely","inputs":[{"name":"usr","type":"address","indexed":true,"internalType":"address"}],"anonymous":false}],"bytecode":{"object":"0x6080604052348015600e575f5ffd5b50335f8181526020819052604080822060019055517fdd0e34038ac38b2a1ce960229778ac48a8719bc900b6c4f8d0475c6e8b385a609190a2610579806100545f395ff3fe608060405234801561000f575f5ffd5b506004361061006b575f3560e01c806329ae81141461006f578063487a23951461008457806365fae35e146100a95780639c52a7f1146100bc578063bf353dbb146100cf578063e25fe175146100ee578063e6fd604c146100f7575b5f5ffd5b61008261007d36600461047f565b610100565b005b61009761009236600461047f565b610274565b60405190815260200160405180910390f35b6100826100b736600461049f565b6102aa565b6100826100ca36600461049f565b61031c565b6100976100dd36600461049f565b5f6020819052908152604090205481565b61009760015481565b61009760025481565b335f908152602081905260409020546001146101375760405162461bcd60e51b815260040161012e906104c5565b60405180910390fd5b816218dd5d60ea1b036101b957676765c793fa10079d601b1b81600281905511156101b45760405162461bcd60e51b815260206004820152602760248201527f5374616972737465704578706f6e656e7469616c44656372656173652f6375746044820152662d67742d52415960c81b606482015260840161012e565b610236565b81630737465760e41b036101d1576001819055610236565b60405162461bcd60e51b815260206004820152603460248201527f5374616972737465704578706f6e656e7469616c44656372656173652f66696c604482015273652d756e7265636f676e697a65642d706172616d60601b606482015260840161012e565b817fe986e40cc8c151830d4f61050f4fb2e4add8567caad2d5f5496f9158e91fe4c78260405161026891815260200190565b60405180910390a25050565b5f6102a38361029e6002546001548661028d9190610524565b676765c793fa10079d601b1b61038d565b610445565b9392505050565b335f908152602081905260409020546001146102d85760405162461bcd60e51b815260040161012e906104c5565b6001600160a01b0381165f8181526020819052604080822060019055517fdd0e34038ac38b2a1ce960229778ac48a8719bc900b6c4f8d0475c6e8b385a609190a250565b335f9081526020819052604090205460011461034a5760405162461bcd60e51b815260040161012e906104c5565b6001600160a01b0381165f81815260208190526040808220829055517f184450df2e323acec0ed3b5c7531b81f9b4cdef7914dfd4c0a4317416bb5251b9190a250565b5f8280156104395784801561042f576001851680156103ae578693506103b2565b8493505b50600284046002860495505b8515610429578687028760801c156103d4575f5ffd5b818101818110156103e3575f5ffd5b869004975050600186161561041e578684028488820414158815151615610408575f5ffd5b81810181811015610417575f5ffd5b8690049450505b6002860495506103be565b50610433565b5f92505b5061043d565b8291505b509392505050565b81810281158061046357508282828161046057610460610510565b04145b61046b575f5ffd5b676765c793fa10079d601b1b900492915050565b5f5f60408385031215610490575f5ffd5b50508035926020909101359150565b5f602082840312156104af575f5ffd5b81356001600160a01b03811681146102a3575f5ffd5b6020808252602b908201527f5374616972737465704578706f6e656e7469616c44656372656173652f6e6f7460408201526a0b585d5d1a1bdc9a5e995960aa1b606082015260800190565b634e487b7160e01b5f52601260045260245ffd5b5f8261053e57634e487b7160e01b5f52601260045260245ffd5b50049056fea2646970667358221220bb9862379e9d5c5cc43173641bd2c071f866f8cc88407b7c2efb4935aea5a62f64736f6c634300081e0033","linkReferences":{}},"methodIdentifiers":{"cut()":"e6fd604c","deny(address)":"9c52a7f1","file(bytes32,uint256)":"29ae8114","price(uint256,uint256)":"487a2395","rely(address)":"65fae35e","step()":"e25fe175","wards(address)":"bf353dbb"},"id":681}