{"abi":[{"type":"function","name":"DOMAIN_SEPARATOR","inputs":[],"outputs":[{"name":"","type":"bytes32","internalType":"bytes32"}],"stateMutability":"view"},{"type":"function","name":"allowance","inputs":[{"name":"owner","type":"address","internalType":"address"},{"name":"spender","type":"address","internalType":"address"}],"outputs":[{"name":"","type":"uint256","internalType":"uint256"}],"stateMutability":"view"},{"type":"function","name":"approve","inputs":[{"name":"spender","type":"address","internalType":"address"},{"name":"amount","type":"uint256","internalType":"uint256"}],"outputs":[{"name":"","type":"bool","internalType":"bool"}],"stateMutability":"nonpayable"},{"type":"function","name":"balanceOf","inputs":[{"name":"account","type":"address","internalType":"address"}],"outputs":[{"name":"","type":"uint256","internalType":"uint256"}],"stateMutability":"view"},{"type":"function","name":"decimals","inputs":[],"outputs":[{"name":"","type":"uint8","internalType":"uint8"}],"stateMutability":"view"},{"type":"function","name":"eip712Domain","inputs":[],"outputs":[{"name":"fields","type":"bytes1","internalType":"bytes1"},{"name":"name","type":"string","internalType":"string"},{"name":"version","type":"string","internalType":"string"},{"name":"chainId","type":"uint256","internalType":"uint256"},{"name":"verifyingContract","type":"address","internalType":"address"},{"name":"salt","type":"bytes32","internalType":"bytes32"},{"name":"extensions","type":"uint256[]","internalType":"uint256[]"}],"stateMutability":"view"},{"type":"function","name":"facetFuncs","inputs":[],"outputs":[{"name":"funcs","type":"bytes4[]","internalType":"bytes4[]"}],"stateMutability":"pure"},{"type":"function","name":"facetInterfaces","inputs":[],"outputs":[{"name":"interfaces","type":"bytes4[]","internalType":"bytes4[]"}],"stateMutability":"pure"},{"type":"function","name":"facetMetadata","inputs":[],"outputs":[{"name":"name_","type":"string","internalType":"string"},{"name":"interfaces","type":"bytes4[]","internalType":"bytes4[]"},{"name":"functions","type":"bytes4[]","internalType":"bytes4[]"}],"stateMutability":"pure"},{"type":"function","name":"facetName","inputs":[],"outputs":[{"name":"name","type":"string","internalType":"string"}],"stateMutability":"pure"},{"type":"function","name":"name","inputs":[],"outputs":[{"name":"","type":"string","internalType":"string"}],"stateMutability":"view"},{"type":"function","name":"nonces","inputs":[{"name":"owner","type":"address","internalType":"address"}],"outputs":[{"name":"","type":"uint256","internalType":"uint256"}],"stateMutability":"view"},{"type":"function","name":"permit","inputs":[{"name":"owner","type":"address","internalType":"address"},{"name":"spender","type":"address","internalType":"address"},{"name":"value","type":"uint256","internalType":"uint256"},{"name":"deadline","type":"uint256","internalType":"uint256"},{"name":"v","type":"uint8","internalType":"uint8"},{"name":"r","type":"bytes32","internalType":"bytes32"},{"name":"s","type":"bytes32","internalType":"bytes32"}],"outputs":[],"stateMutability":"nonpayable"},{"type":"function","name":"symbol","inputs":[],"outputs":[{"name":"","type":"string","internalType":"string"}],"stateMutability":"view"},{"type":"function","name":"totalSupply","inputs":[],"outputs":[{"name":"","type":"uint256","internalType":"uint256"}],"stateMutability":"view"},{"type":"function","name":"transfer","inputs":[{"name":"recipient","type":"address","internalType":"address"},{"name":"amount","type":"uint256","internalType":"uint256"}],"outputs":[{"name":"","type":"bool","internalType":"bool"}],"stateMutability":"nonpayable"},{"type":"function","name":"transferFrom","inputs":[{"name":"owner","type":"address","internalType":"address"},{"name":"recipient","type":"address","internalType":"address"},{"name":"amount","type":"uint256","internalType":"uint256"}],"outputs":[{"name":"","type":"bool","internalType":"bool"}],"stateMutability":"nonpayable"},{"type":"event","name":"Approval","inputs":[{"name":"owner","type":"address","indexed":true,"internalType":"address"},{"name":"spender","type":"address","indexed":true,"internalType":"address"},{"name":"amount","type":"uint256","indexed":false,"internalType":"uint256"}],"anonymous":false},{"type":"event","name":"EIP712DomainChanged","inputs":[],"anonymous":false},{"type":"event","name":"Transfer","inputs":[{"name":"from","type":"address","indexed":true,"internalType":"address"},{"name":"to","type":"address","indexed":true,"internalType":"address"},{"name":"amount","type":"uint256","indexed":false,"internalType":"uint256"}],"anonymous":false},{"type":"error","name":"ERC20InsufficientAllowance","inputs":[{"name":"spender","type":"address","internalType":"address"},{"name":"allowance","type":"uint256","internalType":"uint256"},{"name":"needed","type":"uint256","internalType":"uint256"}]},{"type":"error","name":"ERC20InsufficientBalance","inputs":[{"name":"sender","type":"address","internalType":"address"},{"name":"balance","type":"uint256","internalType":"uint256"},{"name":"needed","type":"uint256","internalType":"uint256"}]},{"type":"error","name":"ERC20InvalidApprover","inputs":[{"name":"approver","type":"address","internalType":"address"}]},{"type":"error","name":"ERC20InvalidReceiver","inputs":[{"name":"receiver","type":"address","internalType":"address"}]},{"type":"error","name":"ERC20InvalidSender","inputs":[{"name":"sender","type":"address","internalType":"address"}]},{"type":"error","name":"ERC20InvalidSpender","inputs":[{"name":"spender","type":"address","internalType":"address"}]},{"type":"error","name":"ERC2612ExpiredSignature","inputs":[{"name":"deadline","type":"uint256","internalType":"uint256"}]},{"type":"error","name":"ERC2612InvalidSigner","inputs":[{"name":"signer","type":"address","internalType":"address"},{"name":"owner","type":"address","internalType":"address"}]},{"type":"error","name":"InvalidAccountNonce","inputs":[{"name":"account","type":"address","internalType":"address"},{"name":"currentNonce","type":"uint256","internalType":"uint256"}]},{"type":"error","name":"InvalidShortString","inputs":[]}],"bytecode":{"object":"0x6080604052348015600e575f5ffd5b506113d38061001c5f395ff3fe608060405234801561000f575f5ffd5b50600436106100d9575f3560e01c806306fdde03146100dd578063095ea7b3146100fb57806318160ddd1461011e57806323b872dd146101345780632ea8082614610147578063313ce5671461015c5780633644e51514610176578063574a4cff1461017e5780635b6f4d011461018657806370a082311461018e5780637ecebe00146101a157806384b0196e146101b457806395d89b41146101cf578063a9059cbb146101d7578063d505accf146101ea578063dd62ed3e146101ff578063f10d7a7514610212575b5f5ffd5b6100e5610229565b6040516100f29190611073565b60405180910390f35b61010e61010936600461109b565b610238565b60405190151581526020016100f2565b61012661024e565b6040519081526020016100f2565b61010e6101423660046110c3565b610257565b61014f61026d565b6040516100f29190611141565b6101646103b4565b60405160ff90911681526020016100f2565b6101266103bd565b61014f6103c6565b6100e5610698565b61012661019c366004611153565b6106c2565b6101266101af366004611153565b6106cc565b6101bc6106d6565b6040516100f2979695949392919061116c565b6100e5610726565b61010e6101e536600461109b565b610730565b6101fd6101f8366004611202565b61073c565b005b61012661020d36600461126f565b610862565b61021a610874565b6040516100f2939291906112a0565b606061023361089c565b905090565b5f6102443384846108ae565b5060015b92915050565b5f6102336108c6565b5f6102638484846108d9565b5060019392505050565b60408051600580825260c082019092526060916020820160a0803683370190505090506336372b0760e01b815f815181106102aa576102aa6112e2565b60200260200101906001600160e01b03191690816001600160e01b0319168152505063a219a02560e01b816001815181106102e7576102e76112e2565b6001600160e01b0319909216602092830291909101909101528051634a17459160e11b908290600290811061031e5761031e6112e2565b60200260200101906001600160e01b03191690816001600160e01b03191681525050634ec7fbed60e11b8160038151811061035b5761035b6112e2565b60200260200101906001600160e01b03191690816001600160e01b031916815250506342580cb760e11b81600481518110610398576103986112e2565b6001600160e01b03199092166020928302919091019091015290565b5f6102336108ec565b5f610233610902565b60408051600d8082526101c08201909252606091602082016101a0803683370190505090506306fdde0360e01b815f81518110610405576104056112e2565b6001600160e01b03199092166020928302919091019091015280516395d89b4160e01b908290600190811061043c5761043c6112e2565b6001600160e01b031990921660209283029190910190910152805163313ce56760e01b9082906002908110610473576104736112e2565b6001600160e01b03199092166020928302919091019091015280516318160ddd60e01b90829060039081106104aa576104aa6112e2565b6001600160e01b03199092166020928302919091019091015280516370a0823160e01b90829060049081106104e1576104e16112e2565b6001600160e01b0319909216602092830291909101909101528051636eb1769f60e11b9082906005908110610518576105186112e2565b6001600160e01b031990921660209283029190910190910152805163095ea7b360e01b908290600690811061054f5761054f6112e2565b6001600160e01b031990921660209283029190910190910152805163a9059cbb60e01b9082906007908110610586576105866112e2565b6001600160e01b03199092166020928302919091019091015280516323b872dd60e01b90829060089081106105bd576105bd6112e2565b6001600160e01b03199092166020928302919091019091015280516342580cb760e11b90829060099081106105f4576105f46112e2565b6001600160e01b031990921660209283029190910190910152805163d505accf60e01b908290600a90811061062b5761062b6112e2565b6001600160e01b0319909216602092830291909101909101528051623f675f60e91b908290600b908110610661576106616112e2565b6001600160e01b0319909216602092830291909101909101528051633644e51560e01b908290600c908110610398576103986112e2565b60408051808201909152601081526f115490cc8c14195c9b5a5d119858d95d60821b602082015290565b5f61024882610913565b5f6102488261093e565b5f6060805f5f5f60605f6106e8610966565b90506106f3816109b2565b6106fc826109c7565b604080515f80825260208201909252600f60f81b9c939b5091995046985030975095509350915050565b60606102336109dc565b5f6102443384846109ee565b834211156107655760405163313c898160e11b8152600481018590526024015b60405180910390fd5b5f6107e97f6e71edae12b1b97f4d1f60370fef10105fa2faae0126114a169c64845d6126c98989896107968d610a01565b6040805160208101969096526001600160a01b0394851690860152929091166060840152608083015260a082015260c0810187905260e0015b604051602081830303815290604052805160209091012090565b90505f6107f582610a31565b90505f61080482878787610a43565b9050896001600160a01b0316816001600160a01b03161461084b576040516325c0072360e11b81526001600160a01b0380831660048301528b16602482015260440161075c565b6108568a8a8a6108ae565b50505050505050505050565b5f61086d8383610a59565b9392505050565b6060806060610881610698565b925061088b61026d565b91506108956103c6565b9050909192565b60606102336108a9610a6c565b610a9e565b6108c16108b9610a6c565b848484610b31565b505050565b5f6102336108d2610a6c565b6003015490565b6108c16108e4610a6c565b848484610bbe565b5f6102336108f8610a6c565b6002015460ff1690565b5f61023361090e610966565b610bdc565b5f61024861091f610a6c565b836001600160a01b03165f908152600491909101602052604090205490565b5f61024861094a610c15565b836001600160a01b03165f908152602091909152604090205490565b5f610233604051602001610999906020808252600b908201526a32b4b81732b4b8171b989960a91b604082015260600190565b6040516020818303038152906040528051906020012090565b60058101546060906102489060078401610c49565b60068101546060906102489060088401610c49565b60606102336109e9610a6c565b610cf2565b6108c16109f9610a6c565b848484610d03565b5f610248610a0d610c15565b836001600160a01b03165f9081526020919091526040902080546001810190915590565b5f610248610a3d610966565b83610d7e565b5f610a5085858585610dab565b95945050505050565b5f61086d610a65610a6c565b8484610df0565b5f610233604051602001610999906020808252600a908201526906569702e6572632e32360b41b604082015260600190565b6060815f018054610aae906112f6565b80601f0160208091040260200160405190810160405280929190818152602001828054610ada906112f6565b8015610b255780601f10610afc57610100808354040283529160200191610b25565b820191905f5260205f20905b815481529060010190602001808311610b0857829003601f168201915b50505050509050919050565b6001600160a01b038216610b5a5781604051634a1406b160e11b815260040161075c919061132e565b6001600160a01b038381165f81815260058701602090815260408083209487168084529482529182902085905590518481527f8c5be1e5ebec7d5bd14f71427d1e84f3dd0314c0f7b2291e5b200ac8c7c3b92591015b60405180910390a350505050565b610bca84843384610e1c565b610bd684848484610d03565b50505050565b60028101545f906001600160a01b031630148015610bfd5750816001015446145b15610c0757505490565b61024882610e96565b919050565b5f610233604051602001610999906020808252600c908201526b32b4b81732b93197191b189960a11b604082015260600190565b606060ff8314610c6357610c5c83610ef0565b9050610248565b818054610c6f906112f6565b80601f0160208091040260200160405190810160405280929190818152602001828054610c9b906112f6565b8015610ce65780601f10610cbd57610100808354040283529160200191610ce6565b820191905f5260205f20905b815481529060010190602001808311610cc957829003601f168201915b50505050509050610248565b6060816001018054610aae906112f6565b33610d235733604051634a1406b160e11b815260040161075c919061132e565b610d2e848483610f2d565b610d39848383610fc2565b816001600160a01b0316836001600160a01b03167fddf252ad1be2c89b69c2b068fc378daa952ba7f163c4a11628f55a4df523b3ef83604051610bb091815260200190565b5f61086d610d8b84610bdc565b8360405161190160f01b8152600281019290925260228201526042902090565b5f604051855f5260ff851660205283604052826060526020600160805f60015afa5191503d610de157638baa579f5f526004601cfd5b5f606052604052949350505050565b6001600160a01b039182165f908152600593909301602090815260408085209290931684525290205490565b6001600160a01b038216610e455781604051634a1406b160e11b815260040161075c919061132e565b5f610e51858585610df0565b905081811015610e7a57828183604051637dc7a0d960e11b815260040161075c93929190611342565b610e8f858585610e8a8686611377565b610b31565b5050505050565b60038101546004820154604080517f8b73c3c69bb8fe3d512ecc4cf759cc79239f7b179b0ffacaa9a75d522b39400f60208201529081019290925260608201524660808201523060a08201525f906102489060c0016107cf565b60605f610efc8361101e565b6040805160208082528183019092529192505f91906020820181803683375050509182525060208101929092525090565b6001600160a01b038216610f565781604051634b637e8f60e11b815260040161075c919061132e565b6001600160a01b0382165f90815260048401602052604090205481811015610f975782818360405163391434e360e21b815260040161075c93929190611342565b610fa18282611377565b6001600160a01b039093165f90815260049094016020525050604090912055565b6001600160a01b038216610feb578160405163ec442f0560e01b815260040161075c919061132e565b6001600160a01b0382165f9081526004840160205260408120805483929061101490849061138a565b9091555050505050565b5f60ff8216601f81111561024857604051632cd44ac360e21b815260040160405180910390fd5b5f81518084528060208401602086015e5f602082860101526020601f19601f83011685010191505092915050565b602081525f61086d6020830184611045565b80356001600160a01b0381168114610c10575f5ffd5b5f5f604083850312156110ac575f5ffd5b6110b583611085565b946020939093013593505050565b5f5f5f606084860312156110d5575f5ffd5b6110de84611085565b92506110ec60208501611085565b929592945050506040919091013590565b5f8151808452602084019350602083015f5b828110156111375781516001600160e01b03191686526020958601959091019060010161110f565b5093949350505050565b602081525f61086d60208301846110fd565b5f60208284031215611163575f5ffd5b61086d82611085565b60ff60f81b8816815260e060208201525f61118a60e0830189611045565b828103604084015261119c8189611045565b606084018890526001600160a01b038716608085015260a0840186905283810360c0850152845180825260208087019350909101905f5b818110156111f15783518352602093840193909201916001016111d3565b50909b9a5050505050505050505050565b5f5f5f5f5f5f5f60e0888a031215611218575f5ffd5b61122188611085565b965061122f60208901611085565b95506040880135945060608801359350608088013560ff81168114611252575f5ffd5b9699959850939692959460a0840135945060c09093013592915050565b5f5f60408385031215611280575f5ffd5b61128983611085565b915061129760208401611085565b90509250929050565b606081525f6112b26060830186611045565b82810360208401526112c481866110fd565b905082810360408401526112d881856110fd565b9695505050505050565b634e487b7160e01b5f52603260045260245ffd5b600181811c9082168061130a57607f821691505b60208210810361132857634e487b7160e01b5f52602260045260245ffd5b50919050565b6001600160a01b0391909116815260200190565b6001600160a01b039390931683526020830191909152604082015260600190565b634e487b7160e01b5f52601160045260245ffd5b8181038181111561024857610248611363565b808201808211156102485761024861136356fea2646970667358221220d464c83207211c15bb3c9321e5df5370e08524a937e2246436e18c536c42c1aa64736f6c634300081e0033","linkReferences":{}},"methodIdentifiers":{"DOMAIN_SEPARATOR()":"3644e515","allowance(address,address)":"dd62ed3e","approve(address,uint256)":"095ea7b3","balanceOf(address)":"70a08231","decimals()":"313ce567","eip712Domain()":"84b0196e","facetFuncs()":"574a4cff","facetInterfaces()":"2ea80826","facetMetadata()":"f10d7a75","facetName()":"5b6f4d01","name()":"06fdde03","nonces(address)":"7ecebe00","permit(address,address,uint256,uint256,uint8,bytes32,bytes32)":"d505accf","symbol()":"95d89b41","totalSupply()":"18160ddd","transfer(address,uint256)":"a9059cbb","transferFrom(address,address,uint256)":"23b872dd"},"id":1318}