{"abi":[{"type":"constructor","inputs":[{"name":"vat_","type":"address","internalType":"address"},{"name":"cat_","type":"address","internalType":"address"},{"name":"ilk_","type":"bytes32","internalType":"bytes32"}],"stateMutability":"nonpayable"},{"type":"function","name":"beg","inputs":[],"outputs":[{"name":"","type":"uint256","internalType":"uint256"}],"stateMutability":"view"},{"type":"function","name":"bids","inputs":[{"name":"","type":"uint256","internalType":"uint256"}],"outputs":[{"name":"bid","type":"uint256","internalType":"uint256"},{"name":"lot","type":"uint256","internalType":"uint256"},{"name":"guy","type":"address","internalType":"address"},{"name":"tic","type":"uint48","internalType":"uint48"},{"name":"end","type":"uint48","internalType":"uint48"},{"name":"usr","type":"address","internalType":"address"},{"name":"gal","type":"address","internalType":"address"},{"name":"tab","type":"uint256","internalType":"uint256"}],"stateMutability":"view"},{"type":"function","name":"cat","inputs":[],"outputs":[{"name":"","type":"address","internalType":"contract CatLike"}],"stateMutability":"view"},{"type":"function","name":"deal","inputs":[{"name":"id","type":"uint256","internalType":"uint256"}],"outputs":[],"stateMutability":"nonpayable"},{"type":"function","name":"dent","inputs":[{"name":"id","type":"uint256","internalType":"uint256"},{"name":"lot","type":"uint256","internalType":"uint256"},{"name":"bid","type":"uint256","internalType":"uint256"}],"outputs":[],"stateMutability":"nonpayable"},{"type":"function","name":"deny","inputs":[{"name":"usr","type":"address","internalType":"address"}],"outputs":[],"stateMutability":"nonpayable"},{"type":"function","name":"file","inputs":[{"name":"what","type":"bytes32","internalType":"bytes32"},{"name":"data","type":"uint256","internalType":"uint256"}],"outputs":[],"stateMutability":"nonpayable"},{"type":"function","name":"file","inputs":[{"name":"what","type":"bytes32","internalType":"bytes32"},{"name":"data","type":"address","internalType":"address"}],"outputs":[],"stateMutability":"nonpayable"},{"type":"function","name":"ilk","inputs":[],"outputs":[{"name":"","type":"bytes32","internalType":"bytes32"}],"stateMutability":"view"},{"type":"function","name":"kick","inputs":[{"name":"usr","type":"address","internalType":"address"},{"name":"gal","type":"address","internalType":"address"},{"name":"tab","type":"uint256","internalType":"uint256"},{"name":"lot","type":"uint256","internalType":"uint256"},{"name":"bid","type":"uint256","internalType":"uint256"}],"outputs":[{"name":"id","type":"uint256","internalType":"uint256"}],"stateMutability":"nonpayable"},{"type":"function","name":"kicks","inputs":[],"outputs":[{"name":"","type":"uint256","internalType":"uint256"}],"stateMutability":"view"},{"type":"function","name":"rely","inputs":[{"name":"usr","type":"address","internalType":"address"}],"outputs":[],"stateMutability":"nonpayable"},{"type":"function","name":"tau","inputs":[],"outputs":[{"name":"","type":"uint48","internalType":"uint48"}],"stateMutability":"view"},{"type":"function","name":"tend","inputs":[{"name":"id","type":"uint256","internalType":"uint256"},{"name":"lot","type":"uint256","internalType":"uint256"},{"name":"bid","type":"uint256","internalType":"uint256"}],"outputs":[],"stateMutability":"nonpayable"},{"type":"function","name":"tick","inputs":[{"name":"id","type":"uint256","internalType":"uint256"}],"outputs":[],"stateMutability":"nonpayable"},{"type":"function","name":"ttl","inputs":[],"outputs":[{"name":"","type":"uint48","internalType":"uint48"}],"stateMutability":"view"},{"type":"function","name":"vat","inputs":[],"outputs":[{"name":"","type":"address","internalType":"contract VatLike"}],"stateMutability":"view"},{"type":"function","name":"wards","inputs":[{"name":"","type":"address","internalType":"address"}],"outputs":[{"name":"","type":"uint256","internalType":"uint256"}],"stateMutability":"view"},{"type":"function","name":"yank","inputs":[{"name":"id","type":"uint256","internalType":"uint256"}],"outputs":[],"stateMutability":"nonpayable"},{"type":"event","name":"Kick","inputs":[{"name":"id","type":"uint256","indexed":false,"internalType":"uint256"},{"name":"lot","type":"uint256","indexed":false,"internalType":"uint256"},{"name":"bid","type":"uint256","indexed":false,"internalType":"uint256"},{"name":"tab","type":"uint256","indexed":false,"internalType":"uint256"},{"name":"usr","type":"address","indexed":true,"internalType":"address"},{"name":"gal","type":"address","indexed":true,"internalType":"address"}],"anonymous":false}],"bytecode":{"object":"0x6080604052670e92596fd6290000600455600580546001600160601b0319166802a300000000002a301790555f60065534801561003a575f5ffd5b506040516117ad3803806117ad833981016040819052610059916100be565b600280546001600160a01b039485166001600160a01b0319918216179091556007805493909416921691909117909155600355335f908152602081905260409020600190556100f7565b80516001600160a01b03811681146100b9575f5ffd5b919050565b5f5f5f606084860312156100d0575f5ffd5b6100d9846100a3565b92506100e7602085016100a3565b9150604084015190509250925092565b6116a9806101045f395ff3fe608060405234801561000f575f5ffd5b50600436106100ef575f3560e01c806326e027f1146100f357806329ae811414610108578063351de6001461011b57806336569e77146101415780634423c5f11461016c5780634b43ed121461022b5780634e8b1dd51461023e5780635ff3a3821461026757806365fae35e1461027a5780637d780d821461028d5780639c52a7f114610296578063bf353dbb146102a9578063c5ce281e146102c8578063c959c42b146102d1578063cfc4af55146102e4578063cfdd3302146102fd578063d4e8be8314610306578063e488181314610319578063fc7b6aee1461032c575b5f5ffd5b6101066101013660046113f2565b61033f565b005b610106610116366004611409565b6105a9565b61012e610129366004611444565b61068f565b6040519081526020015b60405180910390f35b600254610154906001600160a01b031681565b6040516001600160a01b039091168152602001610138565b6101d761017a3660046113f2565b600160208190525f918252604090912080549181015460028201546003830154600484015460059094015492936001600160a01b038084169465ffffffffffff600160a01b8604811695600160d01b900416938216929091169088565b6040805198895260208901979097526001600160a01b039586169688019690965265ffffffffffff9384166060880152929091166080860152821660a08501521660c083015260e082015261010001610138565b61010661023936600461148d565b610885565b6005546102509065ffffffffffff1681565b60405165ffffffffffff9091168152602001610138565b61010661027536600461148d565b610c9e565b6101066102883660046114b6565b61106f565b61012e60045481565b6101066102a43660046114b6565b6110b9565b61012e6102b73660046114b6565b5f6020819052908152604090205481565b61012e60035481565b6101066102df3660046113f2565b611100565b60055461025090600160301b900465ffffffffffff1681565b61012e60065481565b6101066103143660046114d6565b611253565b600754610154906001600160a01b031681565b61010661033a3660046113f2565b6112ad565b335f908152602081905260409020546001146103765760405162461bcd60e51b815260040161036d90611500565b60405180910390fd5b5f818152600160205260409020600201546001600160a01b03166103ac5760405162461bcd60e51b815260040161036d90611530565b5f818152600160205260409020600581015490541061040a5760405162461bcd60e51b815260206004820152601a602482015279466c69707065722f616c72656164792d64656e742d706861736560301b604482015260640161036d565b6007545f828152600160205260409081902060050154905163e66d279b60e01b81526001600160a01b039092169163e66d279b9161044e9160040190815260200190565b5f604051808303815f87803b158015610465575f5ffd5b505af1158015610477573d5f5f3e3d5ffd5b50506002546003545f8581526001602081905260409182902001549051633088df1760e11b81526001600160a01b039093169450636111be2e93506104c2923091339160040161155d565b5f604051808303815f87803b1580156104d9575f5ffd5b505af11580156104eb573d5f5f3e3d5ffd5b5050600280545f8581526001602052604090819020928301549254905163bb35783b60e01b81526001600160a01b03928316955063bb35783b9450610537933393169190600401611582565b5f604051808303815f87803b15801561054e575f5ffd5b505af1158015610560573d5f5f3e3d5ffd5b5050505f918252506001602081905260408220828155908101829055600281018290556003810180546001600160a01b0319908116909155600482018054909116905560050155565b335f908152602081905260409020546001146105d75760405162461bcd60e51b815260040161036d90611500565b816262656760e81b036105ea5760045550565b81621d1d1b60ea1b03610614576005805465ffffffffffff191665ffffffffffff83161790555050565b816274617560e81b03610647576005805465ffffffffffff60301b1916600160301b65ffffffffffff8416021790555050565b60405162461bcd60e51b815260206004820152601f60248201527f466c69707065722f66696c652d756e7265636f676e697a65642d706172616d00604482015260640161036d565b335f908152602081905260408120546001146106bd5760405162461bcd60e51b815260040161036d90611500565b5f19600654106107025760405162461bcd60e51b815260206004820152601060248201526f466c69707065722f6f766572666c6f7760801b604482015260640161036d565b50600680546001908101918290555f82815260208290526040902083815590810184905560020180546001600160a01b0319163317905560055461075790429065ffffffffffff600160301b909104166113aa565b5f82815260016020526040908190206002808201805465ffffffffffff95909516600160d01b026001600160d01b0390951694909417909355600380820180546001600160a01b03808d166001600160a01b031992831617909255600480850180548d85169316929092179091556005909301899055935490549251633088df1760e11b8152931692636111be2e926107f8929091339130918a910161155d565b5f604051808303815f87803b15801561080f575f5ffd5b505af1158015610821573d5f5f3e3d5ffd5b50506040805184815260208101879052908101859052606081018790526001600160a01b038089169350891691507fc84ce3a1172f0dec3173f04caaa6005151a4bfe40d4c9f3ea28dba5f719b2a7a9060800160405180910390a395945050505050565b5f838152600160205260409020600201546001600160a01b03166108bb5760405162461bcd60e51b815260040161036d90611530565b5f8381526001602052604090206002015442600160a01b90910465ffffffffffff16118061090657505f83815260016020526040902060020154600160a01b900465ffffffffffff16155b6109225760405162461bcd60e51b815260040161036d906115a6565b5f8381526001602052604090206002015442600160d01b90910465ffffffffffff16116109615760405162461bcd60e51b815260040161036d906115dc565b5f838152600160208190526040909120015482146109bc5760405162461bcd60e51b8152602060048201526018602482015277466c69707065722f6c6f742d6e6f742d6d61746368696e6760401b604482015260640161036d565b5f83815260016020526040902060050154811115610a165760405162461bcd60e51b8152602060048201526017602482015276233634b83832b917b434b3b432b916ba3430b716ba30b160491b604482015260640161036d565b5f838152600160205260409020548111610a6b5760405162461bcd60e51b8152602060048201526016602482015275233634b83832b917b134b216b737ba16b434b3b432b960511b604482015260640161036d565b6004545f84815260016020526040902054610a8691906113ca565b610a9882670de0b6b3a76400006113ca565b101580610ab457505f8381526001602052604090206005015481145b610b005760405162461bcd60e51b815260206004820152601d60248201527f466c69707065722f696e73756666696369656e742d696e637265617365000000604482015260640161036d565b5f838152600160205260409020600201546001600160a01b03163314610bb857600280545f8581526001602052604090819020928301549254905163bb35783b60e01b81526001600160a01b039283169363bb35783b93610b6a9333939290911691600401611582565b5f604051808303815f87803b158015610b81575f5ffd5b505af1158015610b93573d5f5f3e3d5ffd5b5050505f84815260016020526040902060020180546001600160a01b03191633179055505b6002545f848152600160205260409020600481015490546001600160a01b039283169263bb35783b923392911690610bf09086611612565b6040518463ffffffff1660e01b8152600401610c0e93929190611582565b5f604051808303815f87803b158015610c25575f5ffd5b505af1158015610c37573d5f5f3e3d5ffd5b5050505f84815260016020526040902082905550600554610c6190429065ffffffffffff166113aa565b5f93845260016020526040909320600201805465ffffffffffff94909416600160a01b0265ffffffffffff60a01b19909416939093179092555050565b5f838152600160205260409020600201546001600160a01b0316610cd45760405162461bcd60e51b815260040161036d90611530565b5f8381526001602052604090206002015442600160a01b90910465ffffffffffff161180610d1f57505f83815260016020526040902060020154600160a01b900465ffffffffffff16155b610d3b5760405162461bcd60e51b815260040161036d906115a6565b5f8381526001602052604090206002015442600160d01b90910465ffffffffffff1611610d7a5760405162461bcd60e51b815260040161036d906115dc565b5f838152600160205260409020548114610dd15760405162461bcd60e51b8152602060048201526018602482015277119b1a5c1c195c8bdb9bdd0b5b585d18da1a5b99cb589a5960421b604482015260640161036d565b5f838152600160205260409020600501548114610e2c5760405162461bcd60e51b8152602060048201526019602482015278119b1a5c1c195c8bdd195b990b5b9bdd0b599a5b9a5cda1959603a1b604482015260640161036d565b5f83815260016020819052604090912001548210610e845760405162461bcd60e51b8152602060048201526015602482015274233634b83832b917b637ba16b737ba16b637bbb2b960591b604482015260640161036d565b5f8381526001602081905260409091200154610ea890670de0b6b3a76400006113ca565b610eb4600454846113ca565b1115610f025760405162461bcd60e51b815260206004820152601d60248201527f466c69707065722f696e73756666696369656e742d6465637265617365000000604482015260640161036d565b5f838152600160205260409020600201546001600160a01b03163314610fb957600280545f858152600160205260409081902090920154915163bb35783b60e01b81526001600160a01b039182169263bb35783b92610f6b923392909116908690600401611582565b5f604051808303815f87803b158015610f82575f5ffd5b505af1158015610f94573d5f5f3e3d5ffd5b5050505f84815260016020526040902060020180546001600160a01b03191633179055505b600254600380545f868152600160208190526040909120928301549201546001600160a01b0393841693636111be2e933092911690610ff9908890611612565b6040518563ffffffff1660e01b8152600401611018949392919061155d565b5f604051808303815f87803b15801561102f575f5ffd5b505af1158015611041573d5f5f3e3d5ffd5b5050505f8481526001602081905260409091200183905550600554610c6190429065ffffffffffff166113aa565b335f9081526020819052604090205460011461109d5760405162461bcd60e51b815260040161036d90611500565b6001600160a01b03165f90815260208190526040902060019055565b335f908152602081905260409020546001146110e75760405162461bcd60e51b815260040161036d90611500565b6001600160a01b03165f90815260208190526040812055565b5f81815260016020526040902060020154600160a01b900465ffffffffffff161580159061117657505f8181526001602052604090206002015442600160a01b90910465ffffffffffff16108061117657505f8181526001602052604090206002015442600160d01b90910465ffffffffffff16105b6111925760405162461bcd60e51b815260040161036d90611631565b6007545f828152600160205260409081902060050154905163e66d279b60e01b81526001600160a01b039092169163e66d279b916111d69160040190815260200190565b5f604051808303815f87803b1580156111ed575f5ffd5b505af11580156111ff573d5f5f3e3d5ffd5b5050600280546003545f86815260016020819052604091829020948501549401549051633088df1760e11b81526001600160a01b039384169650636111be2e9550610537949293309316919060040161155d565b335f908152602081905260409020546001146112815760405162461bcd60e51b815260040161036d90611500565b816218d85d60ea1b0361064757600780546001600160a01b0319166001600160a01b0383161790555050565b5f8181526001602052604090206002015442600160d01b90910465ffffffffffff16106112ec5760405162461bcd60e51b815260040161036d90611631565b5f81815260016020526040902060020154600160a01b900465ffffffffffff16156113565760405162461bcd60e51b815260206004820152601a602482015279119b1a5c1c195c8bd89a590b585b1c9958591e4b5c1b1858d95960321b604482015260640161036d565b600554611373904290600160301b900465ffffffffffff166113aa565b5f91825260016020526040909120600201805465ffffffffffff92909216600160d01b026001600160d01b03909216919091179055565b80820165ffffffffffff80841690821610156113c4575f5ffd5b92915050565b5f8115806113ea575050808202828282816113e7576113e761165f565b04145b6113c4575f5ffd5b5f60208284031215611402575f5ffd5b5035919050565b5f5f6040838503121561141a575f5ffd5b50508035926020909101359150565b80356001600160a01b038116811461143f575f5ffd5b919050565b5f5f5f5f5f60a08688031215611458575f5ffd5b61146186611429565b945061146f60208701611429565b94979496505050506040830135926060810135926080909101359150565b5f5f5f6060848603121561149f575f5ffd5b505081359360208301359350604090920135919050565b5f602082840312156114c6575f5ffd5b6114cf82611429565b9392505050565b5f5f604083850312156114e7575f5ffd5b823591506114f760208401611429565b90509250929050565b602080825260169082015275119b1a5c1c195c8bdb9bdd0b585d5d1a1bdc9a5e995960521b604082015260600190565b602080825260139082015272119b1a5c1c195c8bd9dd5e4b5b9bdd0b5cd95d606a1b604082015260600190565b9384526001600160a01b03928316602085015291166040830152606082015260800190565b6001600160a01b039384168152919092166020820152604081019190915260600190565b6020808252601c908201527b466c69707065722f616c72656164792d66696e69736865642d74696360201b604082015260600190565b6020808252601c908201527b119b1a5c1c195c8bd85b1c9958591e4b599a5b9a5cda19590b595b9960221b604082015260600190565b818103818111156113c457634e487b7160e01b5f52601160045260245ffd5b602080825260149082015273119b1a5c1c195c8bdb9bdd0b599a5b9a5cda195960621b604082015260600190565b634e487b7160e01b5f52601260045260245ffdfea264697066735822122055e66bcdaf73aee775da4748952a6c3e3201a68aca8f1cb26ac7d2d14f62096364736f6c634300081e0033","linkReferences":{}},"methodIdentifiers":{"beg()":"7d780d82","bids(uint256)":"4423c5f1","cat()":"e4881813","deal(uint256)":"c959c42b","dent(uint256,uint256,uint256)":"5ff3a382","deny(address)":"9c52a7f1","file(bytes32,address)":"d4e8be83","file(bytes32,uint256)":"29ae8114","ilk()":"c5ce281e","kick(address,address,uint256,uint256,uint256)":"351de600","kicks()":"cfdd3302","rely(address)":"65fae35e","tau()":"cfc4af55","tend(uint256,uint256,uint256)":"4b43ed12","tick(uint256)":"fc7b6aee","ttl()":"4e8b1dd5","vat()":"36569e77","wards(address)":"bf353dbb","yank(uint256)":"26e027f1"},"id":688}