{"abi":[{"type":"function","name":"allowance","inputs":[{"name":"owner","type":"address","internalType":"address"},{"name":"spender","type":"address","internalType":"address"},{"name":"id","type":"uint256","internalType":"uint256"}],"outputs":[{"name":"","type":"uint256","internalType":"uint256"}],"stateMutability":"view"},{"type":"function","name":"approve","inputs":[{"name":"spender","type":"address","internalType":"address"},{"name":"id","type":"uint256","internalType":"uint256"},{"name":"amount","type":"uint256","internalType":"uint256"}],"outputs":[{"name":"","type":"bool","internalType":"bool"}],"stateMutability":"nonpayable"},{"type":"function","name":"balanceOf","inputs":[{"name":"owner","type":"address","internalType":"address"},{"name":"id","type":"uint256","internalType":"uint256"}],"outputs":[{"name":"","type":"uint256","internalType":"uint256"}],"stateMutability":"view"},{"type":"function","name":"decimals","inputs":[{"name":"id","type":"uint256","internalType":"uint256"}],"outputs":[{"name":"","type":"uint8","internalType":"uint8"}],"stateMutability":"view"},{"type":"function","name":"isOperator","inputs":[{"name":"owner","type":"address","internalType":"address"},{"name":"spender","type":"address","internalType":"address"}],"outputs":[{"name":"","type":"bool","internalType":"bool"}],"stateMutability":"view"},{"type":"function","name":"name","inputs":[{"name":"id","type":"uint256","internalType":"uint256"}],"outputs":[{"name":"","type":"string","internalType":"string"}],"stateMutability":"view"},{"type":"function","name":"setOperator","inputs":[{"name":"spender","type":"address","internalType":"address"},{"name":"approved","type":"bool","internalType":"bool"}],"outputs":[{"name":"","type":"bool","internalType":"bool"}],"stateMutability":"nonpayable"},{"type":"function","name":"supportsInterface","inputs":[{"name":"interfaceId","type":"bytes4","internalType":"bytes4"}],"outputs":[{"name":"","type":"bool","internalType":"bool"}],"stateMutability":"view"},{"type":"function","name":"symbol","inputs":[{"name":"id","type":"uint256","internalType":"uint256"}],"outputs":[{"name":"","type":"string","internalType":"string"}],"stateMutability":"view"},{"type":"function","name":"transfer","inputs":[{"name":"receiver","type":"address","internalType":"address"},{"name":"id","type":"uint256","internalType":"uint256"},{"name":"amount","type":"uint256","internalType":"uint256"}],"outputs":[{"name":"","type":"bool","internalType":"bool"}],"stateMutability":"nonpayable"},{"type":"function","name":"transferFrom","inputs":[{"name":"sender","type":"address","internalType":"address"},{"name":"receiver","type":"address","internalType":"address"},{"name":"id","type":"uint256","internalType":"uint256"},{"name":"amount","type":"uint256","internalType":"uint256"}],"outputs":[{"name":"","type":"bool","internalType":"bool"}],"stateMutability":"nonpayable"},{"type":"event","name":"Approval","inputs":[{"name":"owner","type":"address","indexed":true,"internalType":"address"},{"name":"spender","type":"address","indexed":true,"internalType":"address"},{"name":"id","type":"uint256","indexed":true,"internalType":"uint256"},{"name":"amount","type":"uint256","indexed":false,"internalType":"uint256"}],"anonymous":false},{"type":"event","name":"ERC6909DecimalsUpdated","inputs":[{"name":"id","type":"uint256","indexed":true,"internalType":"uint256"},{"name":"newDecimals","type":"uint8","indexed":false,"internalType":"uint8"}],"anonymous":false},{"type":"event","name":"ERC6909NameUpdated","inputs":[{"name":"id","type":"uint256","indexed":true,"internalType":"uint256"},{"name":"newName","type":"string","indexed":false,"internalType":"string"}],"anonymous":false},{"type":"event","name":"ERC6909SymbolUpdated","inputs":[{"name":"id","type":"uint256","indexed":true,"internalType":"uint256"},{"name":"newSymbol","type":"string","indexed":false,"internalType":"string"}],"anonymous":false},{"type":"event","name":"OperatorSet","inputs":[{"name":"owner","type":"address","indexed":true,"internalType":"address"},{"name":"spender","type":"address","indexed":true,"internalType":"address"},{"name":"approved","type":"bool","indexed":false,"internalType":"bool"}],"anonymous":false},{"type":"event","name":"Transfer","inputs":[{"name":"caller","type":"address","indexed":false,"internalType":"address"},{"name":"sender","type":"address","indexed":true,"internalType":"address"},{"name":"receiver","type":"address","indexed":true,"internalType":"address"},{"name":"id","type":"uint256","indexed":true,"internalType":"uint256"},{"name":"amount","type":"uint256","indexed":false,"internalType":"uint256"}],"anonymous":false},{"type":"error","name":"ERC6909InsufficientAllowance","inputs":[{"name":"spender","type":"address","internalType":"address"},{"name":"allowance","type":"uint256","internalType":"uint256"},{"name":"needed","type":"uint256","internalType":"uint256"},{"name":"id","type":"uint256","internalType":"uint256"}]},{"type":"error","name":"ERC6909InsufficientBalance","inputs":[{"name":"sender","type":"address","internalType":"address"},{"name":"balance","type":"uint256","internalType":"uint256"},{"name":"needed","type":"uint256","internalType":"uint256"},{"name":"id","type":"uint256","internalType":"uint256"}]},{"type":"error","name":"ERC6909InvalidApprover","inputs":[{"name":"approver","type":"address","internalType":"address"}]},{"type":"error","name":"ERC6909InvalidReceiver","inputs":[{"name":"receiver","type":"address","internalType":"address"}]},{"type":"error","name":"ERC6909InvalidSender","inputs":[{"name":"sender","type":"address","internalType":"address"}]},{"type":"error","name":"ERC6909InvalidSpender","inputs":[{"name":"spender","type":"address","internalType":"address"}]}],"bytecode":{"object":"0x6080604052348015600e575f5ffd5b506109d28061001c5f395ff3fe608060405234801561000f575f5ffd5b5060043610610095575f3560e01c8062ad800c14610099578062fdd58e146100c257806301ffc9a7146100e3578063095bcdb6146101065780633f47e66214610119578063426a8493146101505780634e41a1fb14610163578063558a729714610176578063598af9e714610189578063b6363cf21461019c578063fe99049a146101af575b5f5ffd5b6100ac6100a736600461073b565b6101c2565b6040516100b99190610752565b60405180910390f35b6100d56100d03660046107a2565b610261565b6040519081526020016100b9565b6100f66100f13660046107ca565b610289565b60405190151581526020016100b9565b6100f66101143660046107f8565b6102bd565b61013e61012736600461073b565b5f9081526003602052604090206002015460ff1690565b60405160ff90911681526020016100b9565b6100f661015e3660046107f8565b6102d4565b6100ac61017136600461073b565b6102e1565b6100f6610184366004610828565b610300565b6100d5610197366004610861565b610315565b6100f66101aa36600461089b565b610346565b6100f66101bd3660046108cc565b610373565b5f8181526003602052604090208054606091906101de9061090b565b80601f016020809104026020016040519081016040528092919081815260200182805461020a9061090b565b80156102555780601f1061022c57610100808354040283529160200191610255565b820191905f5260205f20905b81548152906001019060200180831161023857829003601f168201915b50505050509050919050565b6001600160a01b0382165f908152602081815260408083208484529091529020545b92915050565b5f6001600160e01b03198216630f632fb360e01b148061028357506301ffc9a760e01b6001600160e01b0319831614610283565b5f6102ca338585856103be565b5060019392505050565b5f6102ca3385858561042b565b5f8181526003602052604090206001018054606091906101de9061090b565b5f61030c3384846104ea565b50600192915050565b6001600160a01b039283165f9081526002602090815260408083209490951682529283528381209181529152205490565b6001600160a01b039182165f90815260016020908152604080832093909416825291909152205460ff1690565b5f336001600160a01b038616811480159061039557506103938682610346565b155b156103a6576103a6868286866105a8565b6103b2868686866103be565b50600195945050505050565b6001600160a01b0384166103f0575f6040516301486a4160e71b81526004016103e79190610943565b60405180910390fd5b6001600160a01b038316610419575f604051630b8bbd6160e41b81526004016103e79190610943565b61042584848484610621565b50505050565b6001600160a01b038416610454575f60405163198ecd5360e31b81526004016103e79190610943565b6001600160a01b03831661047d575f604051636f65f46560e01b81526004016103e79190610943565b6001600160a01b038481165f8181526002602090815260408083209488168084529482528083208784528252918290208590559051848152859392917fb3fd5071835887567a0671151121894ddccc2842f1d10bedad13e0d17cace9a7910160405180910390a450505050565b6001600160a01b038316610513575f60405163198ecd5360e31b81526004016103e79190610943565b6001600160a01b03821661053c575f604051636f65f46560e01b81526004016103e79190610943565b6001600160a01b038381165f81815260016020908152604080832094871680845294825291829020805460ff191686151590811790915591519182527fceb576d9f15e4e200fdb5096d64d5dfd667e16def20c1eefd14256d8e3faa267910160405180910390a3505050565b5f6105b4858585610315565b90505f1981101561061a57818110156105e85783818385604051632c51fead60e11b81526004016103e79493929190610957565b6001600160a01b038086165f908152600260209081526040808320938816835292815282822086835290522082820390555b5050505050565b336001600160a01b038516156106a2576001600160a01b0385165f908152602081815260408083208684529091529020548281101561067b57858184866040516302c6d3fb60e61b81526004016103e79493929190610957565b6001600160a01b0386165f9081526020818152604080832087845290915290209083900390555b6001600160a01b038416156106e7576001600160a01b0384165f90815260208181526040808320868452909152812080548492906106e190849061097d565b90915550505b604080516001600160a01b03838116825260208201859052859281881692918916917f1b3d7edb2e9c0b0e7c525b20aaaef0f5940d2ed71663c7d39266ecafac728859910160405180910390a45050505050565b5f6020828403121561074b575f5ffd5b5035919050565b602081525f82518060208401528060208501604085015e5f604082850101526040601f19601f83011684010191505092915050565b80356001600160a01b038116811461079d575f5ffd5b919050565b5f5f604083850312156107b3575f5ffd5b6107bc83610787565b946020939093013593505050565b5f602082840312156107da575f5ffd5b81356001600160e01b0319811681146107f1575f5ffd5b9392505050565b5f5f5f6060848603121561080a575f5ffd5b61081384610787565b95602085013595506040909401359392505050565b5f5f60408385031215610839575f5ffd5b61084283610787565b915060208301358015158114610856575f5ffd5b809150509250929050565b5f5f5f60608486031215610873575f5ffd5b61087c84610787565b925061088a60208501610787565b929592945050506040919091013590565b5f5f604083850312156108ac575f5ffd5b6108b583610787565b91506108c360208401610787565b90509250929050565b5f5f5f5f608085870312156108df575f5ffd5b6108e885610787565b93506108f660208601610787565b93969395505050506040820135916060013590565b600181811c9082168061091f57607f821691505b60208210810361093d57634e487b7160e01b5f52602260045260245ffd5b50919050565b6001600160a01b0391909116815260200190565b6001600160a01b0394909416845260208401929092526040830152606082015260800190565b8082018082111561028357634e487b7160e01b5f52601160045260245ffdfea2646970667358221220227b7db7e150eb02d79ed9b66086001eda0e14d1a1faf126f4b09d428e7efa8664736f6c634300081e0033","linkReferences":{}},"methodIdentifiers":{"allowance(address,address,uint256)":"598af9e7","approve(address,uint256,uint256)":"426a8493","balanceOf(address,uint256)":"00fdd58e","decimals(uint256)":"3f47e662","isOperator(address,address)":"b6363cf2","name(uint256)":"00ad800c","setOperator(address,bool)":"558a7297","supportsInterface(bytes4)":"01ffc9a7","symbol(uint256)":"4e41a1fb","transfer(address,uint256,uint256)":"095bcdb6","transferFrom(address,address,uint256,uint256)":"fe99049a"},"id":505}