{"abi":[{"type":"constructor","inputs":[{"name":"_ve","type":"address","internalType":"address"}],"stateMutability":"nonpayable"},{"type":"function","name":"aero","inputs":[],"outputs":[{"name":"","type":"address","internalType":"contract IAero"}],"stateMutability":"view"},{"type":"function","name":"cancelOwnershipHandover","inputs":[],"outputs":[],"stateMutability":"payable"},{"type":"function","name":"completeOwnershipHandover","inputs":[{"name":"pendingOwner","type":"address","internalType":"address"}],"outputs":[],"stateMutability":"payable"},{"type":"function","name":"distributeTokens","inputs":[{"name":"_wallets","type":"address[]","internalType":"address[]"},{"name":"_amounts","type":"uint256[]","internalType":"uint256[]"}],"outputs":[],"stateMutability":"nonpayable"},{"type":"function","name":"owner","inputs":[],"outputs":[{"name":"","type":"address","internalType":"address"}],"stateMutability":"view"},{"type":"function","name":"ownershipHandoverExpiresAt","inputs":[{"name":"pendingOwner","type":"address","internalType":"address"}],"outputs":[{"name":"result","type":"uint256","internalType":"uint256"}],"stateMutability":"view"},{"type":"function","name":"renounceOwnership","inputs":[],"outputs":[],"stateMutability":"payable"},{"type":"function","name":"requestOwnershipHandover","inputs":[],"outputs":[],"stateMutability":"payable"},{"type":"function","name":"transferOwnership","inputs":[{"name":"newOwner","type":"address","internalType":"address"}],"outputs":[],"stateMutability":"payable"},{"type":"function","name":"ve","inputs":[],"outputs":[{"name":"","type":"address","internalType":"contract IVotingEscrow"}],"stateMutability":"view"},{"type":"event","name":"Airdrop","inputs":[{"name":"_wallet","type":"address","indexed":true,"internalType":"address"},{"name":"_amount","type":"uint256","indexed":false,"internalType":"uint256"},{"name":"_tokenId","type":"uint256","indexed":false,"internalType":"uint256"}],"anonymous":false},{"type":"event","name":"OwnershipHandoverCanceled","inputs":[{"name":"pendingOwner","type":"address","indexed":true,"internalType":"address"}],"anonymous":false},{"type":"event","name":"OwnershipHandoverRequested","inputs":[{"name":"pendingOwner","type":"address","indexed":true,"internalType":"address"}],"anonymous":false},{"type":"event","name":"OwnershipTransferred","inputs":[{"name":"oldOwner","type":"address","indexed":true,"internalType":"address"},{"name":"newOwner","type":"address","indexed":true,"internalType":"address"}],"anonymous":false},{"type":"error","name":"AlreadyInitialized","inputs":[]},{"type":"error","name":"InsufficientBalance","inputs":[]},{"type":"error","name":"InvalidParams","inputs":[]},{"type":"error","name":"NewOwnerIsZeroAddress","inputs":[]},{"type":"error","name":"NoHandoverRequest","inputs":[]},{"type":"error","name":"OwnableInvalidOwner","inputs":[{"name":"owner","type":"address","internalType":"address"}]},{"type":"error","name":"OwnableUnauthorizedAccount","inputs":[{"name":"account","type":"address","internalType":"address"}]},{"type":"error","name":"SafeERC20FailedOperation","inputs":[{"name":"token","type":"address","internalType":"address"}]},{"type":"error","name":"Unauthorized","inputs":[]}],"bytecode":{"object":"0x60c060405234801561000f575f5ffd5b50604051610bf9380380610bf983398101604081905261002e91610116565b338061005357604051631e4fbdf760e01b81525f600482015260240160405180910390fd5b61005c816100db565b506001600160a01b03811660a081905260408051637e062a3560e11b8152905163fc0c546a916004808201926020929091908290030181865afa1580156100a5573d5f5f3e3d5ffd5b505050506040513d601f19601f820116820180604052508101906100c99190610116565b6001600160a01b031660805250610143565b6001600160a01b0316638b78c6d819819055805f7f8be0079c531659141344cd1fd0a4f28419497f9722a3daafe3b4186f6b6457e08180a350565b5f60208284031215610126575f5ffd5b81516001600160a01b038116811461013c575f5ffd5b9392505050565b60805160a051610a5f61019a5f395f818160950152818161033e015281816103d301528181610456015281816104df01526105b401525f818160e80152818161027b0152818161031c01526105920152610a5f5ff3fe608060405260043610610080575f3560e01c80631f8507161461008457806325692962146100cd57806326837eda146100d75780634bd09c2a1461010a57806354d1f13d14610129578063715018a6146101315780638da5cb5b14610139578063f04e283e1461014d578063f2fde38b14610160578063fee81cf414610173575b5f5ffd5b34801561008f575f5ffd5b506100b77f000000000000000000000000000000000000000000000000000000000000000081565b6040516100c491906107f9565b60405180910390f35b6100d56101b2565b005b3480156100e2575f5ffd5b506100b77f000000000000000000000000000000000000000000000000000000000000000081565b348015610115575f5ffd5b506100d56101243660046108f8565b6101fe565b6100d56105e2565b6100d561061b565b348015610144575f5ffd5b506100b761062e565b6100d561015b3660046109b9565b610641565b6100d561016e3660046109b9565b61067e565b34801561017e575f5ffd5b506101a461018d3660046109b9565b63389a75e1600c9081525f91909152602090205490565b6040519081526020016100c4565b5f6202a3006001600160401b03164201905063389a75e1600c52335f52806020600c2055337fdbf36a107da19e49527a7176a1babf963b4b0ff8cde35ee35d6cd8f1f9ac7e1d5f5fa250565b6102066106c1565b81518151811461022957604051635435b28960e11b815260040160405180910390fd5b5f805b8281101561026357838181518110610246576102466109d9565b60200260200101518261025991906109ed565b915060010161022c565b506040516370a0823160e01b81526001600160a01b037f000000000000000000000000000000000000000000000000000000000000000016906370a08231906102b09030906004016107f9565b602060405180830381865afa1580156102cb573d5f5f3e3d5ffd5b505050506040513d601f19601f820116820180604052508101906102ef9190610a12565b81111561030f57604051631e9acf1760e31b815260040160405180910390fd5b6103636001600160a01b037f0000000000000000000000000000000000000000000000000000000000000000167f0000000000000000000000000000000000000000000000000000000000000000836106fc565b5f8080805b8581101561058457878181518110610382576103826109d9565b6020026020010151935086818151811061039e5761039e6109d9565b6020908102919091010151604051635a9602ff60e11b81526004810182905262093a8060248201529093506001600160a01b037f0000000000000000000000000000000000000000000000000000000000000000169063b52c05fe906044016020604051808303815f875af1158015610419573d5f5f3e3d5ffd5b505050506040513d601f19601f8201168201806040525081019061043d9190610a12565b6040516373ad8e1760e11b8152600481018290529092507f00000000000000000000000000000000000000000000000000000000000000006001600160a01b03169063e75b1c2e906024015f604051808303815f87803b15801561049f575f5ffd5b505af11580156104b1573d5f5f3e3d5ffd5b5050604051632142170760e11b81523060048201526001600160a01b038781166024830152604482018690527f00000000000000000000000000000000000000000000000000000000000000001692506342842e0e91506064015f604051808303815f87803b158015610522575f5ffd5b505af1158015610534573d5f5f3e3d5ffd5b505060408051868152602081018690526001600160a01b03881693507fada993ad066837289fe186cd37227aa338d27519a8a1547472ecb9831486d27292500160405180910390a2600101610368565b506105d96001600160a01b037f0000000000000000000000000000000000000000000000000000000000000000167f00000000000000000000000000000000000000000000000000000000000000005f6106fc565b50505050505050565b63389a75e1600c52335f525f6020600c2055337ffa7b8eab7da67f412cc9575ed43464468f9bfbae89d1675917346ca6d8fe3c925f5fa2565b6106236106c1565b61062c5f610753565b565b5f61063c638b78c6d8195490565b905090565b6106496106c1565b63389a75e1600c52805f526020600c20805442111561066f57636f5e88185f526004601cfd5b5f905561067b81610753565b50565b6106866106c1565b6001600160a01b0381166106b8575f604051631e4fbdf760e01b81526004016106af91906107f9565b60405180910390fd5b61067b81610753565b6106c961062e565b6001600160a01b0316336001600160a01b03161461062c573360405163118cdaa760e01b81526004016106af91906107f9565b604080516001600160a01b038416602482015260448082018490528251808303909101815260649091019091526020810180516001600160e01b031663095ea7b360e01b17905261074e908490610790565b505050565b638b78c6d81980546001600160a01b039092169182907f8be0079c531659141344cd1fd0a4f28419497f9722a3daafe3b4186f6b6457e05f80a355565b5f5f60205f8451602086015f885af1806107af576040513d5f823e3d81fd5b50505f513d915081156107c65780600114156107d3565b6001600160a01b0384163b155b156107f35783604051635274afe760e01b81526004016106af91906107f9565b50505050565b6001600160a01b0391909116815260200190565b634e487b7160e01b5f52604160045260245ffd5b604051601f8201601f191681016001600160401b03811182821017156108495761084961080d565b604052919050565b5f6001600160401b038211156108695761086961080d565b5060051b60200190565b80356001600160a01b0381168114610889575f5ffd5b919050565b5f82601f83011261089d575f5ffd5b81356108b06108ab82610851565b610821565b8082825260208201915060208360051b8601019250858311156108d1575f5ffd5b602085015b838110156108ee5780358352602092830192016108d6565b5095945050505050565b5f5f60408385031215610909575f5ffd5b82356001600160401b0381111561091e575f5ffd5b8301601f8101851361092e575f5ffd5b803561093c6108ab82610851565b8082825260208201915060208360051b85010192508783111561095d575f5ffd5b6020840193505b828410156109865761097584610873565b825260209384019390910190610964565b945050505060208301356001600160401b038111156109a3575f5ffd5b6109af8582860161088e565b9150509250929050565b5f602082840312156109c9575f5ffd5b6109d282610873565b9392505050565b634e487b7160e01b5f52603260045260245ffd5b80820180821115610a0c57634e487b7160e01b5f52601160045260245ffd5b92915050565b5f60208284031215610a22575f5ffd5b505191905056fea26469706673582212208d493986dcce3517529250f13bb450b5ce10310e4e201ee35f5ca08d0a66050864736f6c634300081e0033","linkReferences":{}},"methodIdentifiers":{"aero()":"26837eda","cancelOwnershipHandover()":"54d1f13d","completeOwnershipHandover(address)":"f04e283e","distributeTokens(address[],uint256[])":"4bd09c2a","owner()":"8da5cb5b","ownershipHandoverExpiresAt(address)":"fee81cf4","renounceOwnership()":"715018a6","requestOwnershipHandover()":"25692962","transferOwnership(address)":"f2fde38b","ve()":"1f850716"},"id":806}