{"abi":[{"type":"function","name":"facetAddress","inputs":[{"name":"_functionSelector","type":"bytes4","internalType":"bytes4"}],"outputs":[{"name":"","type":"address","internalType":"address"}],"stateMutability":"view"},{"type":"function","name":"facetFuncs","inputs":[],"outputs":[{"name":"funcs","type":"bytes4[]","internalType":"bytes4[]"}],"stateMutability":"pure"},{"type":"function","name":"facetInterfaces","inputs":[],"outputs":[{"name":"interfaces","type":"bytes4[]","internalType":"bytes4[]"}],"stateMutability":"pure"},{"type":"function","name":"facetMetadata","inputs":[],"outputs":[{"name":"name","type":"string","internalType":"string"},{"name":"interfaces","type":"bytes4[]","internalType":"bytes4[]"},{"name":"functions","type":"bytes4[]","internalType":"bytes4[]"}],"stateMutability":"pure"},{"type":"function","name":"facetName","inputs":[],"outputs":[{"name":"name","type":"string","internalType":"string"}],"stateMutability":"pure"},{"type":"function","name":"functionFacetPairs","inputs":[],"outputs":[{"name":"pairs","type":"tuple[]","internalType":"struct IERC8109Introspection.FunctionFacetPair[]","components":[{"name":"selector","type":"bytes4","internalType":"bytes4"},{"name":"facet","type":"address","internalType":"address"}]}],"stateMutability":"view"},{"type":"error","name":"IndexOutOfBounds","inputs":[{"name":"length","type":"uint256","internalType":"uint256"},{"name":"invalidIndex","type":"uint256","internalType":"uint256"},{"name":"errorCode","type":"uint256","internalType":"uint256"}]}],"bytecode":{"object":"0x6080604052348015600e575f5ffd5b506107338061001c5f395ff3fe608060405234801561000f575f5ffd5b5060043610610060575f3560e01c80632ea8082614610064578063574a4cff146100825780635b6f4d011461008a57806360b5befb1461009f578063cdffacc6146100b4578063f10d7a75146100df575b5f5ffd5b61006c6100f6565b6040516100799190610593565b60405180910390f35b61006c61014e565b6100926101bf565b60405161007991906105da565b6100a76101f2565b60405161007991906105ec565b6100c76100c236600461064d565b610201565b6040516001600160a01b039091168152602001610079565b6100e7610211565b60405161007993929190610674565b6040805160018082528183019092526060916020808301908036833701905050905063ad4a123d60e01b815f81518110610132576101326106ca565b6001600160e01b03199092166020928302919091019091015290565b604080516002808252606080830184529260208301908036833701905050905063cdffacc660e01b815f81518110610188576101886106ca565b6001600160e01b03199092166020928302919091019091015280516360b5befb60e01b9082906001908110610132576101326106ca565b604080518082019091526019815278115490ce0c4c0e525b9d1c9bdcdc1958dd1a5bdb919858d95d603a1b602082015290565b60606101fc610239565b905090565b5f61020b8261024b565b92915050565b606080606061021e6101bf565b92506102286100f6565b915061023261014e565b9050909192565b60606101fc610246610280565b6102cd565b5f61020b610257610280565b836001600160e01b0319165f90815260029190910160205260409020546001600160a01b031690565b5f6101fc6040516020016102b4906020808252600c908201526b6569702e6572632e3235333560a01b604082015260600190565b6040516020818303038152906040528051906020012090565b60605f5b60018301548110156102fb576102f183836102ec8285610301565b610343565b91506001016102d1565b50919050565b60018201545f9061031290836104c0565b50826001018281548110610328576103286106ca565b5f918252602090912001546001600160a01b03169392505050565b6001600160a01b0381165f908152600384016020526040902060010154825160609161036e916106de565b6001600160401b03811115610385576103856106b6565b6040519080825280602002602001820160405280156103c957816020015b604080518082019091525f80825260208201528152602001906001900390816103a35790505b5090505f5b8351811015610416578381815181106103e9576103e96106ca565b6020026020010151828281518110610403576104036106ca565b60209081029190910101526001016103ce565b5082515f5b6001600160a01b0384165f9081526003870160205260409020600101548110156104b7576040805180820182526001600160a01b0386165f9081526003890160205291909120819061046d90846104ff565b6001600160e01b03191681526001600160a01b0386166020909101528361049483856106de565b815181106104a4576104a46106ca565b602090810291909101015260010161041b565b50509392505050565b5f8183116104f657604051635400feb960e01b815260048101849052602481018390526032604482015260640160405180910390fd5b50600192915050565b60018201545f9061051090836104c0565b50826001018281548110610526576105266106ca565b905f5260205f2090600891828204019190066004029054906101000a900460e01b905092915050565b5f8151808452602084019350602083015f5b828110156105895781516001600160e01b031916865260209586019590910190600101610561565b5093949350505050565b602081525f6105a5602083018461054f565b9392505050565b5f81518084528060208401602086015e5f602082860101526020601f19601f83011685010191505092915050565b602081525f6105a560208301846105ac565b602080825282518282018190525f918401906040840190835b8181101561064257835180516001600160e01b03191684526020908101516001600160a01b03168185015290930192604090920191600101610605565b509095945050505050565b5f6020828403121561065d575f5ffd5b81356001600160e01b0319811681146105a5575f5ffd5b606081525f61068660608301866105ac565b8281036020840152610698818661054f565b905082810360408401526106ac818561054f565b9695505050505050565b634e487b7160e01b5f52604160045260245ffd5b634e487b7160e01b5f52603260045260245ffd5b8082018082111561020b57634e487b7160e01b5f52601160045260245ffdfea2646970667358221220527220f7f411849107835efb95762a01b91d808d2dd69805fd4d837d6fc14dc464736f6c634300081e0033","linkReferences":{}},"methodIdentifiers":{"facetAddress(bytes4)":"cdffacc6","facetFuncs()":"574a4cff","facetInterfaces()":"2ea80826","facetMetadata()":"f10d7a75","facetName()":"5b6f4d01","functionFacetPairs()":"60b5befb"},"id":672}