{"abi":[{"type":"function","name":"computeBalance","inputs":[{"name":"balancesLiveScaled18","type":"uint256[]","internalType":"uint256[]"},{"name":"tokenInIndex","type":"uint256","internalType":"uint256"},{"name":"invariantRatio","type":"uint256","internalType":"uint256"}],"outputs":[{"name":"newBalance","type":"uint256","internalType":"uint256"}],"stateMutability":"view"},{"type":"function","name":"computeInvariant","inputs":[{"name":"balancesLiveScaled18","type":"uint256[]","internalType":"uint256[]"},{"name":"rounding","type":"uint8","internalType":"enum Rounding"}],"outputs":[{"name":"invariant","type":"uint256","internalType":"uint256"}],"stateMutability":"view"},{"type":"function","name":"getCowPoolDynamicData","inputs":[],"outputs":[{"name":"data","type":"tuple","internalType":"struct ICowPool.CoWPoolDynamicData","components":[{"name":"balancesLiveScaled18","type":"uint256[]","internalType":"uint256[]"},{"name":"tokenRates","type":"uint256[]","internalType":"uint256[]"},{"name":"staticSwapFeePercentage","type":"uint256","internalType":"uint256"},{"name":"totalSupply","type":"uint256","internalType":"uint256"},{"name":"trustedCowRouter","type":"address","internalType":"address"},{"name":"isPoolInitialized","type":"bool","internalType":"bool"},{"name":"isPoolPaused","type":"bool","internalType":"bool"},{"name":"isPoolInRecoveryMode","type":"bool","internalType":"bool"}]}],"stateMutability":"view"},{"type":"function","name":"getCowPoolImmutableData","inputs":[],"outputs":[{"name":"data","type":"tuple","internalType":"struct ICowPool.CoWPoolImmutableData","components":[{"name":"tokens","type":"address[]","internalType":"contract IERC20[]"},{"name":"decimalScalingFactors","type":"uint256[]","internalType":"uint256[]"},{"name":"normalizedWeights","type":"uint256[]","internalType":"uint256[]"}]}],"stateMutability":"view"},{"type":"function","name":"getHookFlags","inputs":[],"outputs":[{"name":"hookFlags","type":"tuple","internalType":"struct HookFlags","components":[{"name":"enableHookAdjustedAmounts","type":"bool","internalType":"bool"},{"name":"shouldCallBeforeInitialize","type":"bool","internalType":"bool"},{"name":"shouldCallAfterInitialize","type":"bool","internalType":"bool"},{"name":"shouldCallComputeDynamicSwapFee","type":"bool","internalType":"bool"},{"name":"shouldCallBeforeSwap","type":"bool","internalType":"bool"},{"name":"shouldCallAfterSwap","type":"bool","internalType":"bool"},{"name":"shouldCallBeforeAddLiquidity","type":"bool","internalType":"bool"},{"name":"shouldCallAfterAddLiquidity","type":"bool","internalType":"bool"},{"name":"shouldCallBeforeRemoveLiquidity","type":"bool","internalType":"bool"},{"name":"shouldCallAfterRemoveLiquidity","type":"bool","internalType":"bool"}]}],"stateMutability":"pure"},{"type":"function","name":"getNormalizedWeights","inputs":[],"outputs":[{"name":"weights","type":"uint256[]","internalType":"uint256[]"}],"stateMutability":"view"},{"type":"function","name":"getTrustedCowRouter","inputs":[],"outputs":[{"name":"","type":"address","internalType":"address"}],"stateMutability":"view"},{"type":"function","name":"onAfterAddLiquidity","inputs":[{"name":"","type":"address","internalType":"address"},{"name":"","type":"address","internalType":"address"},{"name":"","type":"uint8","internalType":"enum AddLiquidityKind"},{"name":"","type":"uint256[]","internalType":"uint256[]"},{"name":"amountsInRaw","type":"uint256[]","internalType":"uint256[]"},{"name":"","type":"uint256","internalType":"uint256"},{"name":"","type":"uint256[]","internalType":"uint256[]"},{"name":"","type":"bytes","internalType":"bytes"}],"outputs":[{"name":"","type":"bool","internalType":"bool"},{"name":"","type":"uint256[]","internalType":"uint256[]"}],"stateMutability":"nonpayable"},{"type":"function","name":"onAfterInitialize","inputs":[{"name":"","type":"uint256[]","internalType":"uint256[]"},{"name":"","type":"uint256","internalType":"uint256"},{"name":"","type":"bytes","internalType":"bytes"}],"outputs":[{"name":"","type":"bool","internalType":"bool"}],"stateMutability":"nonpayable"},{"type":"function","name":"onAfterRemoveLiquidity","inputs":[{"name":"","type":"address","internalType":"address"},{"name":"","type":"address","internalType":"address"},{"name":"","type":"uint8","internalType":"enum RemoveLiquidityKind"},{"name":"","type":"uint256","internalType":"uint256"},{"name":"","type":"uint256[]","internalType":"uint256[]"},{"name":"amountsOutRaw","type":"uint256[]","internalType":"uint256[]"},{"name":"","type":"uint256[]","internalType":"uint256[]"},{"name":"","type":"bytes","internalType":"bytes"}],"outputs":[{"name":"","type":"bool","internalType":"bool"},{"name":"","type":"uint256[]","internalType":"uint256[]"}],"stateMutability":"nonpayable"},{"type":"function","name":"onAfterSwap","inputs":[{"name":"","type":"tuple","internalType":"struct AfterSwapParams","components":[{"name":"kind","type":"uint8","internalType":"enum SwapKind"},{"name":"tokenIn","type":"address","internalType":"contract IERC20"},{"name":"tokenOut","type":"address","internalType":"contract IERC20"},{"name":"amountInScaled18","type":"uint256","internalType":"uint256"},{"name":"amountOutScaled18","type":"uint256","internalType":"uint256"},{"name":"tokenInBalanceScaled18","type":"uint256","internalType":"uint256"},{"name":"tokenOutBalanceScaled18","type":"uint256","internalType":"uint256"},{"name":"amountCalculatedScaled18","type":"uint256","internalType":"uint256"},{"name":"amountCalculatedRaw","type":"uint256","internalType":"uint256"},{"name":"router","type":"address","internalType":"address"},{"name":"pool","type":"address","internalType":"address"},{"name":"userData","type":"bytes","internalType":"bytes"}]}],"outputs":[{"name":"","type":"bool","internalType":"bool"},{"name":"","type":"uint256","internalType":"uint256"}],"stateMutability":"nonpayable"},{"type":"function","name":"onBeforeAddLiquidity","inputs":[{"name":"router","type":"address","internalType":"address"},{"name":"","type":"address","internalType":"address"},{"name":"kind","type":"uint8","internalType":"enum AddLiquidityKind"},{"name":"","type":"uint256[]","internalType":"uint256[]"},{"name":"","type":"uint256","internalType":"uint256"},{"name":"","type":"uint256[]","internalType":"uint256[]"},{"name":"","type":"bytes","internalType":"bytes"}],"outputs":[{"name":"success","type":"bool","internalType":"bool"}],"stateMutability":"view"},{"type":"function","name":"onBeforeInitialize","inputs":[{"name":"","type":"uint256[]","internalType":"uint256[]"},{"name":"","type":"bytes","internalType":"bytes"}],"outputs":[{"name":"","type":"bool","internalType":"bool"}],"stateMutability":"nonpayable"},{"type":"function","name":"onBeforeRemoveLiquidity","inputs":[{"name":"","type":"address","internalType":"address"},{"name":"","type":"address","internalType":"address"},{"name":"","type":"uint8","internalType":"enum RemoveLiquidityKind"},{"name":"","type":"uint256","internalType":"uint256"},{"name":"","type":"uint256[]","internalType":"uint256[]"},{"name":"","type":"uint256[]","internalType":"uint256[]"},{"name":"","type":"bytes","internalType":"bytes"}],"outputs":[{"name":"","type":"bool","internalType":"bool"}],"stateMutability":"nonpayable"},{"type":"function","name":"onBeforeSwap","inputs":[{"name":"params","type":"tuple","internalType":"struct PoolSwapParams","components":[{"name":"kind","type":"uint8","internalType":"enum SwapKind"},{"name":"amountGivenScaled18","type":"uint256","internalType":"uint256"},{"name":"balancesScaled18","type":"uint256[]","internalType":"uint256[]"},{"name":"indexIn","type":"uint256","internalType":"uint256"},{"name":"indexOut","type":"uint256","internalType":"uint256"},{"name":"router","type":"address","internalType":"address"},{"name":"userData","type":"bytes","internalType":"bytes"}]},{"name":"","type":"address","internalType":"address"}],"outputs":[{"name":"","type":"bool","internalType":"bool"}],"stateMutability":"view"},{"type":"function","name":"onComputeDynamicSwapFeePercentage","inputs":[{"name":"","type":"tuple","internalType":"struct PoolSwapParams","components":[{"name":"kind","type":"uint8","internalType":"enum SwapKind"},{"name":"amountGivenScaled18","type":"uint256","internalType":"uint256"},{"name":"balancesScaled18","type":"uint256[]","internalType":"uint256[]"},{"name":"indexIn","type":"uint256","internalType":"uint256"},{"name":"indexOut","type":"uint256","internalType":"uint256"},{"name":"router","type":"address","internalType":"address"},{"name":"userData","type":"bytes","internalType":"bytes"}]},{"name":"","type":"address","internalType":"address"},{"name":"staticSwapFeePercentage","type":"uint256","internalType":"uint256"}],"outputs":[{"name":"","type":"bool","internalType":"bool"},{"name":"","type":"uint256","internalType":"uint256"}],"stateMutability":"view"},{"type":"function","name":"onRegister","inputs":[{"name":"factory","type":"address","internalType":"address"},{"name":"pool","type":"address","internalType":"address"},{"name":"","type":"tuple[]","internalType":"struct TokenConfig[]","components":[{"name":"token","type":"address","internalType":"contract IERC20"},{"name":"tokenType","type":"uint8","internalType":"enum TokenType"},{"name":"rateProvider","type":"address","internalType":"contract IRateProvider"},{"name":"paysYieldFees","type":"bool","internalType":"bool"}]},{"name":"liquidityManagement","type":"tuple","internalType":"struct LiquidityManagement","components":[{"name":"disableUnbalancedLiquidity","type":"bool","internalType":"bool"},{"name":"enableAddLiquidityCustom","type":"bool","internalType":"bool"},{"name":"enableRemoveLiquidityCustom","type":"bool","internalType":"bool"},{"name":"enableDonation","type":"bool","internalType":"bool"}]}],"outputs":[{"name":"","type":"bool","internalType":"bool"}],"stateMutability":"view"},{"type":"function","name":"onSwap","inputs":[{"name":"params","type":"tuple","internalType":"struct PoolSwapParams","components":[{"name":"kind","type":"uint8","internalType":"enum SwapKind"},{"name":"amountGivenScaled18","type":"uint256","internalType":"uint256"},{"name":"balancesScaled18","type":"uint256[]","internalType":"uint256[]"},{"name":"indexIn","type":"uint256","internalType":"uint256"},{"name":"indexOut","type":"uint256","internalType":"uint256"},{"name":"router","type":"address","internalType":"address"},{"name":"userData","type":"bytes","internalType":"bytes"}]}],"outputs":[{"name":"amountCalculatedScaled18","type":"uint256","internalType":"uint256"}],"stateMutability":"view"},{"type":"function","name":"refreshTrustedCowRouter","inputs":[],"outputs":[],"stateMutability":"nonpayable"},{"type":"event","name":"CowTrustedRouterChanged","inputs":[{"name":"newTrustedCowRouter","type":"address","indexed":false,"internalType":"address"}],"anonymous":false},{"type":"error","name":"BaseOutOfBounds","inputs":[]},{"type":"error","name":"ExponentOutOfBounds","inputs":[]},{"type":"error","name":"InvalidExponent","inputs":[]},{"type":"error","name":"InvalidTrustedCowRouter","inputs":[]},{"type":"error","name":"MaxInRatio","inputs":[]},{"type":"error","name":"MaxOutRatio","inputs":[]},{"type":"error","name":"ProductOutOfBounds","inputs":[]},{"type":"error","name":"ZeroDivision","inputs":[]},{"type":"error","name":"ZeroInvariant","inputs":[]}],"bytecode":{"object":"0x6080604052348015600e575f5ffd5b506129b28061001c5f395ff3fe608060405234801561000f575f5ffd5b50600436106100ef575f3560e01c80630b89f182146100f357806316a0b3e01461011b57806318b6eb551461013c5780631c149e28146101695780632754888d1461017c57806338be241d146101a857806345421ec7146101bf5780635211fa77146101d2578063548e9615146101e55780635fd482e2146101fa57806372c981861461020f578063976907cc14610222578063984de9e814610240578063a0e8f5ac14610253578063b0959b151461026b578063ba5f9f4014610275578063beb5c1e114610290578063d77153a7146102a5578063f89f27ed146102fe575b5f5ffd5b610106610101366004611b47565b610313565b60405190151581526020015b60405180910390f35b61012e610129366004611cd7565b610384565b604051908152602001610112565b61015261014a366004611d20565b506001905f90565b604080519215158352602083019190915201610112565b610106610177366004611dc2565b6103cd565b61019a61018a366004611e33565b6001839850989650505050505050565b604051610112929190611f5c565b6101066101b6366004611f7e565b60019392505050565b6101066101cd366004611ff7565b6103d6565b6101066101e03660046120ce565b61041c565b6101ed61044f565b604051610112919061211c565b61020261045d565b6040516101129190612130565b61012e61021d3660046121bd565b610585565b61019a6102303660046121ee565b6001849850989650505050505050565b61012e61024e36600461229a565b610697565b6101526102613660046122dd565b6001939092509050565b6102736106e1565b005b610106610283366004612332565b6001979650505050505050565b61029861075c565b60405161011291906123b7565b60408051610140810182525f808252602082018190528183018190526060820181905260a0820181905260e08201819052610100820181905261012082015260016080820181905260c082015290516101129190612452565b610306610a11565b6040516101129190612514565b5f6001600160a01b03841630148015610344575061032f610a1b565b6001600160a01b0316856001600160a01b0316145b8015610361575061035b6080830160608401612526565b15156001145b801561037b57506103756020830183612526565b15156001145b95945050505050565b5f5f61038e610a37565b905061037b8585815181106103a5576103a5612541565b60200260200101518286815181106103bf576103bf612541565b602002602001015185610a62565b60015b92915050565b5f60038660048111156103eb576103eb612555565b14158061041057506103fb610aba565b6001600160a01b0316886001600160a01b0316145b98975050505050505050565b5f610425610aba565b6001600160a01b031661043e60c0850160a08601612569565b6001600160a01b0316149392505050565b5f610458610aba565b905090565b61048160405180606001604052806060815260200160608152602001606081525090565b5f61048a610ad3565b60405163ca4f280360e01b815290915030906001600160a01b0383169063ca4f2803906104bb90849060040161211c565b5f60405180830381865afa1580156104d5573d5f5f3e3d5ffd5b505050506040513d5f823e601f3d908101601f191682016040526104fc9190810190612584565b8352604051633f1b0def60e11b81526001600160a01b03831690637e361bde9061052a90849060040161211c565b5f60405180830381865afa158015610544573d5f5f3e3d5ffd5b505050506040513d5f823e601f3d908101601f1916820160405261056b919081019061266e565b506020840152610579610a11565b60408401525090919050565b5f5f61058f610a37565b90505f61059f60408501856126c9565b85606001358181106105b3576105b3612541565b9050602002013590505f8480604001906105cd91906126c9565b86608001358181106105e1576105e1612541565b9050602002013590505f8386606001358151811061060157610601612541565b602002602001015190505f8487608001358151811061062257610622612541565b602002602001015190505f600181111561063e5761063e612555565b61064b6020890189612715565b600181111561065c5761065c612555565b0361067957610672848385848b60200135610afd565b955061068d565b61068a848385848b60200135610b8c565b95505b5050505050919050565b5f5f6106a1610a37565b905060018360018111156106b7576106b7612555565b036106cd576106c68185610c0f565b91506106da565b6106d78185610c9d565b91505b5092915050565b5f6106ea610a1b565b90505f816001600160a01b031663548e96156040518163ffffffff1660e01b8152600401602060405180830381865afa158015610729573d5f5f3e3d5ffd5b505050506040513d601f19601f8201168201806040525081019061074d9190612730565b905061075881610d0a565b5050565b60408051610100810182526060808252602082018190525f92820183905281018290526080810182905260a0810182905260c0810182905260e08101829052906107a4610ad3565b6040516329ae7ec560e11b815290915030906001600160a01b0383169063535cfd8a906107d590849060040161211c565b5f60405180830381865afa1580156107ef573d5f5f3e3d5ffd5b505050506040513d5f823e601f3d908101601f19168201604052610816919081019061274b565b8352604051633f1b0def60e11b81526001600160a01b03831690637e361bde9061084490849060040161211c565b5f60405180830381865afa15801561085e573d5f5f3e3d5ffd5b505050506040513d5f823e601f3d908101601f19168201604052610885919081019061266e565b60208501525060405163b45090f960e01b81526001600160a01b0383169063b45090f9906108b790849060040161211c565b602060405180830381865afa1580156108d2573d5f5f3e3d5ffd5b505050506040513d601f19601f820116820180604052508101906108f6919061277c565b836040018181525050806001600160a01b03166318160ddd6040518163ffffffff1660e01b8152600401602060405180830381865afa15801561093b573d5f5f3e3d5ffd5b505050506040513d601f19601f8201168201806040525081019061095f919061277c565b606084015261096c610aba565b6001600160a01b03908116608085015260405163f29486a160e01b81525f9184169063f29486a1906109a290859060040161211c565b6101a060405180830381865afa1580156109be573d5f5f3e3d5ffd5b505050506040513d601f19601f820116820180604052508101906109e2919061282b565b60e080820151151560a0870152610100820151151560c087015261012090910151151590850152509192915050565b6060610458610a37565b5f610458610a27610d1e565b600101546001600160a01b031690565b60606104587f0b1f699f9a8cb016dcd6d3f4119ffc688f82df3a97972f71dfa812f53cb486a3610d42565b5f611a39670de0b6b3a76400008311610a7d57610d9b610a81565b610dbb5b90505f610aa4610a9d670de0b6b3a7640000878563ffffffff16565b8590610dd6565b9050610ab08682610e89565b9695505050505050565b5f610458610ac6610d1e565b546001600160a01b031690565b5f6104587f392e49ca1983749c4549242b814e6592e6c2354a2bb55242596ce0ad2e7b1001610ac6565b5f610b1086670429d069189e0000610eb5565b821115610b305760405163340a453360e01b815260040160405180910390fd5b5f610b3b83886128f8565b90505f610b488883610dbb565b90505f610b558887610d9b565b90505f610b628383610dd6565b9050610b7e670de0b6b3a7640000828103908310028990610eb5565b9a9950505050505050505050565b5f610b9f84670429d069189e0000610eb5565b821115610bbf576040516364590b9f60e01b815260040160405180910390fd5b5f610bd4610bcd848761290b565b8690610dbb565b90505f610be18588610dbb565b90505f610bee8383610dd6565b90505f610c03670de0b6b3a76400008361290b565b9050610b7e8a82610e89565b670de0b6b3a76400005f5b8351811015610c7c57610c72610c6b858381518110610c3b57610c3b612541565b6020026020010151858481518110610c5557610c55612541565b6020026020010151610ed590919063ffffffff16565b8390610eb5565b9150600101610c1a565b50805f036103d057604051632654368960e01b815260040160405180910390fd5b670de0b6b3a76400005f5b8351811015610c7c57610d00610cf9858381518110610cc957610cc9612541565b6020026020010151858481518110610ce357610ce3612541565b6020026020010151610dd690919063ffffffff16565b8390610e89565b9150600101610ca8565b610d1b610d15610d1e565b82610f81565b50565b7ff64e9102482a84c90cc33e99848a0b00fb3fb77d441d4c9b064f0da17ed6c04290565b6060815f01805480602002602001604051908101604052809291908181526020018280548015610d8f57602002820191905f5260205f20905b815481526020019060010190808311610d7b575b50505050509050919050565b5f80610daf670de0b6b3a76400008561291e565b90506106d78382612949565b5f610dcf83670de0b6b3a764000084610ffd565b9392505050565b5f670de0b6b3a76400008203610ded5750816103d0565b610e00670de0b6b3a7640000600261291e565b8203610e1757610e108384610e89565b90506103d0565b610e2a670de0b6b3a7640000600461291e565b8203610e4f575f610e3b8485610e89565b9050610e478182610e89565b9150506103d0565b5f610e5a8484611042565b90505f610e6982612710610e89565b610e749060016128f8565b9050610e8081836128f8565b925050506103d0565b5f80610e95838561291e565b90506001670de0b6b3a76400006001830304018115150291505092915050565b5f80610ec1838561291e565b90506106d7670de0b6b3a764000082612949565b5f670de0b6b3a76400008203610eec5750816103d0565b610eff670de0b6b3a7640000600261291e565b8203610f0f57610e108384610eb5565b610f22670de0b6b3a7640000600461291e565b8203610f3f575f610f338485610eb5565b9050610e478182610eb5565b5f610f4a8484611042565b90505f610f5982612710610e89565b610f649060016128f8565b905080821015610f78575f925050506103d0565b900390506103d0565b6001600160a01b038116610fa85760405163b4d8fbf360e01b815260040160405180910390fd5b81546001600160a01b0319166001600160a01b0382161782556040517fa2bffbf2e11d4267aadd6e35608a40b95ee2f64f9470dfad8bce6e8c79df24a290610ff190839061211c565b60405180910390a15050565b5f815f0361101e57604051630a0c22c760e01b815260040160405180910390fd5b5f611029848661291e565b9050600183600183030401811515029150509392505050565b5f815f036110595750670de0b6b3a76400006103d0565b825f0361106757505f6103d0565b60ff83901c15611089576040516211380f60e51b815260040160405180910390fd5b826110a168056bc75e2d63100000600160fe1b612949565b83106110c05760405163d831731160e01b815260040160405180910390fd5b825f670c7d713b49da0000831380156110e05750670f43fc2c04ee000083125b15611116575f6110ef84611178565b9050670de0b6b3a764000080820784020583670de0b6b3a764000083050201915050611124565b8161112084611295565b0290505b670de0b6b3a76400009005680238fd42c5cf03ffff198112801590611152575068070c1cc73b00c800008113155b61116f5760405163a2f9f7e360e01b815260040160405180910390fd5b610ab08161163f565b670de0b6b3a7640000025f806a0c097ce7bc90715b34b9f160241b808401906ec097ce7bc90715b34b9f0fffffffff19850102816111b8576111b8612935565b0590505f6a0c097ce7bc90715b34b9f160241b82800205905081806a0c097ce7bc90715b34b9f160241b81840205915060038205016a0c097ce7bc90715b34b9f160241b82840205915060058205016a0c097ce7bc90715b34b9f160241b82840205915060078205016a0c097ce7bc90715b34b9f160241b82840205915060098205016a0c097ce7bc90715b34b9f160241b828402059150600b8205016a0c097ce7bc90715b34b9f160241b828402059150600d8205016a0c097ce7bc90715b34b9f160241b828402059150600f82050160020295945050505050565b5f80670de0b6b3a76400008312156112cc57826a0c097ce7bc90715b34b9f160241b816112c4576112c4612935565b059250600190505b5f775803bcc5cb9634ba4cfb2213f784019318ed4dcb6017880f60361b84126113165772195e54c5dd42177f53a27172fa9ec63026282760241b840593506806f05b59d3b2000000015b6f8bcc0026baae9e45e470190267a230cf60191b841261134d576b1425982cf597cd205cef7380840593506803782dace9d9000000015b606493840293026e01855144814a7ff805980ff00840008412611395576e01855144814a7ff805980ff008400068056bc75e2d63100000850205935068ad78ebc5ac62000000015b6b02df0ab5a80a22c61ab5a70084126113d0576b02df0ab5a80a22c61ab5a70068056bc75e2d6310000085020593506856bc75e2d631000000015b693f1fce3da636ea5cf850841261140757693f1fce3da636ea5cf85068056bc75e2d631000008502059350682b5e3af16b18800000015b690127fa27722cc06cc5e2841261143e57690127fa27722cc06cc5e268056bc75e2d6310000085020593506815af1d78b58c400000015b68280e60114edb805d0384126114735768280e60114edb805d0368056bc75e2d631000008502059350680ad78ebc5ac6200000015b680ebc5fb41746121110841261149e57680ebc5fb4174612111068056bc75e2d631000009485020593015b6808f00f760a4b2db55d84126114d3576808f00f760a4b2db55d68056bc75e2d6310000085020593506802b5e3af16b1880000015b6806f5f17757889379378412611508576806f5f177578893793768056bc75e2d63100000850205935068015af1d78b58c40000015b6806248f33704b286603841261153c576806248f33704b28660368056bc75e2d63100000850205935067ad78ebc5ac620000015b6805c548670b9510e7ac8412611570576805c548670b9510e7ac68056bc75e2d6310000085020593506756bc75e2d6310000015b5f68056bc75e2d63100000850168056bc75e2d63100000808703028161159857611598612935565b0590505f68056bc75e2d63100000828002059050818068056bc75e2d63100000818402059150600382050168056bc75e2d63100000828402059150600582050168056bc75e2d63100000828402059150600782050168056bc75e2d63100000828402059150600982050168056bc75e2d63100000828402059150600b8205016002025f60648683010590508661162e5780611632565b805f035b9998505050505050505050565b5f680238fd42c5cf03ffff198212158015611663575068070c1cc73b00c800008213155b6116805760405163d4794efd60e01b815260040160405180910390fd5b5f8083121561169357825f039250600190505b5f6806f05b59d3b200000084126116d057506806f05b59d3b1ffffff199092019172195e54c5dd42177f53a27172fa9ec63026282760241b611706565b6803782dace9d9000000841261170257506803782dace9d8ffffff19909201916b1425982cf597cd205cef7380611706565b5060015b6064939093029268056bc75e2d6310000068ad78ebc5ac6200000085126117565768ad78ebc5ac61ffffff199094019368056bc75e2d631000006e01855144814a7ff805980ff008400082020590505b6856bc75e2d6310000008512611792576856bc75e2d630ffffff199094019368056bc75e2d631000006b02df0ab5a80a22c61ab5a70082020590505b682b5e3af16b1880000085126117cc57682b5e3af16b187fffff199094019368056bc75e2d63100000693f1fce3da636ea5cf85082020590505b6815af1d78b58c4000008512611806576815af1d78b58c3fffff199094019368056bc75e2d63100000690127fa27722cc06cc5e282020590505b680ad78ebc5ac6200000851261183f57680ad78ebc5ac61fffff199094019368056bc75e2d6310000068280e60114edb805d0382020590505b68056bc75e2d6310000085126118785768056bc75e2d630fffff199094019368056bc75e2d63100000680ebc5fb4174612111082020590505b6802b5e3af16b188000085126118b1576802b5e3af16b187ffff199094019368056bc75e2d631000006808f00f760a4b2db55d82020590505b68015af1d78b58c4000085126118ea5768015af1d78b58c3ffff199094019368056bc75e2d631000006806f5f177578893793782020590505b68056bc75e2d631000008581019086906002908280020505918201919050600368056bc75e2d631000008883020505918201919050600468056bc75e2d631000008883020505918201919050600568056bc75e2d631000008883020505918201919050600668056bc75e2d631000008883020505918201919050600768056bc75e2d631000008883020505918201919050600868056bc75e2d631000008883020505918201919050600968056bc75e2d631000008883020505918201919050600a68056bc75e2d631000008883020505918201919050600b68056bc75e2d631000008883020505918201919050600c68056bc75e2d6310000088830205059182019190505f606468056bc75e2d6310000085850205860205905085611a0f5780610410565b806a0c097ce7bc90715b34b9f160241b81611a2c57611a2c612935565b0598975050505050505050565b611a41612968565b565b6001600160a01b0381168114610d1b575f5ffd5b8035611a6281611a43565b919050565b634e487b7160e01b5f52604160045260245ffd5b604051608081016001600160401b0381118282101715611a9d57611a9d611a67565b60405290565b60405161014081016001600160401b0381118282101715611a9d57611a9d611a67565b604051601f8201601f191681016001600160401b0381118282101715611aee57611aee611a67565b604052919050565b5f6001600160401b03821115611b0e57611b0e611a67565b5060051b60200190565b60028110610d1b575f5ffd5b8015158114610d1b575f5ffd5b5f60808284031215611b41575f5ffd5b50919050565b5f5f5f5f60e08587031215611b5a575f5ffd5b8435611b6581611a43565b93506020850135611b7581611a43565b925060408501356001600160401b03811115611b8f575f5ffd5b8501601f81018713611b9f575f5ffd5b8035611bb2611bad82611af6565b611ac6565b8082825260208201915060208360071b850101925089831115611bd3575f5ffd5b6020840193505b82841015611c53576080848b031215611bf1575f5ffd5b611bf9611a7b565b8435611c0481611a43565b81526020850135611c1481611b18565b60208201526040850135611c2781611a43565b60408201526060850135611c3a81611b24565b6060820152825260809390930192602090910190611bda565b80955050505050611c678660608701611b31565b905092959194509250565b5f82601f830112611c81575f5ffd5b8135611c8f611bad82611af6565b8082825260208201915060208360051b860101925085831115611cb0575f5ffd5b602085015b83811015611ccd578035835260209283019201611cb5565b5095945050505050565b5f5f5f60608486031215611ce9575f5ffd5b83356001600160401b03811115611cfe575f5ffd5b611d0a86828701611c72565b9660208601359650604090950135949350505050565b5f60208284031215611d30575f5ffd5b81356001600160401b03811115611d45575f5ffd5b82016101808185031215610dcf575f5ffd5b5f82601f830112611d66575f5ffd5b81356001600160401b03811115611d7f57611d7f611a67565b611d92601f8201601f1916602001611ac6565b818152846020838601011115611da6575f5ffd5b816020850160208301375f918101602001919091529392505050565b5f5f60408385031215611dd3575f5ffd5b82356001600160401b03811115611de8575f5ffd5b611df485828601611c72565b92505060208301356001600160401b03811115611e0f575f5ffd5b611e1b85828601611d57565b9150509250929050565b803560048110611a62575f5ffd5b5f5f5f5f5f5f5f5f610100898b031215611e4b575f5ffd5b611e5489611a57565b9750611e6260208a01611a57565b9650611e7060408a01611e25565b95506060890135945060808901356001600160401b03811115611e91575f5ffd5b611e9d8b828c01611c72565b94505060a08901356001600160401b03811115611eb8575f5ffd5b611ec48b828c01611c72565b93505060c08901356001600160401b03811115611edf575f5ffd5b611eeb8b828c01611c72565b92505060e08901356001600160401b03811115611f06575f5ffd5b611f128b828c01611d57565b9150509295985092959890939650565b5f8151808452602084019350602083015f5b82811015611f52578151865260209586019590910190600101611f34565b5093949350505050565b8215158152604060208201525f611f766040830184611f22565b949350505050565b5f5f5f60608486031215611f90575f5ffd5b83356001600160401b03811115611fa5575f5ffd5b611fb186828701611c72565b9350506020840135915060408401356001600160401b03811115611fd3575f5ffd5b611fdf86828701611d57565b9150509250925092565b803560058110611a62575f5ffd5b5f5f5f5f5f5f5f60e0888a03121561200d575f5ffd5b873561201881611a43565b965061202660208901611a57565b955061203460408901611fe9565b945060608801356001600160401b0381111561204e575f5ffd5b61205a8a828b01611c72565b9450506080880135925060a08801356001600160401b0381111561207c575f5ffd5b6120888a828b01611c72565b92505060c08801356001600160401b038111156120a3575f5ffd5b6120af8a828b01611d57565b91505092959891949750929550565b5f60e08284031215611b41575f5ffd5b5f5f604083850312156120df575f5ffd5b82356001600160401b038111156120f4575f5ffd5b612100858286016120be565b925050602083013561211181611a43565b809150509250929050565b6001600160a01b0391909116815260200190565b602080825282516060838301528051608084018190525f929190910190829060a08501905b808310156121805783516001600160a01b031682526020938401936001939093019290910190612155565b506020860151858203601f19016040870152925061219e8184611f22565b925050506040840151601f1984830301606085015261037b8282611f22565b5f602082840312156121cd575f5ffd5b81356001600160401b038111156121e2575f5ffd5b6106d7848285016120be565b5f5f5f5f5f5f5f5f610100898b031215612206575f5ffd5b61220f89611a57565b975061221d60208a01611a57565b965061222b60408a01611fe9565b955060608901356001600160401b03811115612245575f5ffd5b6122518b828c01611c72565b95505060808901356001600160401b0381111561226c575f5ffd5b6122788b828c01611c72565b94505060a0890135925060c08901356001600160401b03811115611edf575f5ffd5b5f5f604083850312156122ab575f5ffd5b82356001600160401b038111156122c0575f5ffd5b6122cc85828601611c72565b925050602083013561211181611b18565b5f5f5f606084860312156122ef575f5ffd5b83356001600160401b03811115612304575f5ffd5b612310868287016120be565b935050602084013561232181611a43565b929592945050506040919091013590565b5f5f5f5f5f5f5f60e0888a031215612348575f5ffd5b873561235381611a43565b965061236160208901611a57565b955061236f60408901611e25565b94506060880135935060808801356001600160401b03811115612390575f5ffd5b61239c8a828b01611c72565b93505060a08801356001600160401b0381111561207c575f5ffd5b602081525f825161010060208401526123d4610120840182611f22565b90506020840151601f198483030160408501526123f18282611f22565b915050604084015160608401526060840151608084015260018060a01b0360808501511660a084015260a084015161242d60c085018215159052565b5060c084015180151560e08501525060e0840151801515610100850152509392505050565b81511515815261014081016020830151612470602084018215159052565b506040830151612484604084018215159052565b506060830151612498606084018215159052565b5060808301516124ac608084018215159052565b5060a08301516124c060a084018215159052565b5060c08301516124d460c084018215159052565b5060e08301516124e860e084018215159052565b506101008301516124fe61010084018215159052565b506101208301516106da61012084018215159052565b602081525f610dcf6020830184611f22565b5f60208284031215612536575f5ffd5b8135610dcf81611b24565b634e487b7160e01b5f52603260045260245ffd5b634e487b7160e01b5f52602160045260245ffd5b5f60208284031215612579575f5ffd5b8135610dcf81611a43565b5f60208284031215612594575f5ffd5b81516001600160401b038111156125a9575f5ffd5b8201601f810184136125b9575f5ffd5b80516125c7611bad82611af6565b8082825260208201915060208360051b8501019250868311156125e8575f5ffd5b6020840193505b82841015610ab057835161260281611a43565b8252602093840193909101906125ef565b5f82601f830112612622575f5ffd5b8151612630611bad82611af6565b8082825260208201915060208360051b860101925085831115612651575f5ffd5b602085015b83811015611ccd578051835260209283019201612656565b5f5f6040838503121561267f575f5ffd5b82516001600160401b03811115612694575f5ffd5b6126a085828601612613565b602085015190935090506001600160401b038111156126bd575f5ffd5b611e1b85828601612613565b5f5f8335601e198436030181126126de575f5ffd5b8301803591506001600160401b038211156126f7575f5ffd5b6020019150600581901b360382131561270e575f5ffd5b9250929050565b5f60208284031215612725575f5ffd5b8135610dcf81611b18565b5f60208284031215612740575f5ffd5b8151610dcf81611a43565b5f6020828403121561275b575f5ffd5b81516001600160401b03811115612770575f5ffd5b6106d784828501612613565b5f6020828403121561278c575f5ffd5b5051919050565b8051611a6281611b24565b5f608082840312156127ae575f5ffd5b6127b6611a7b565b905081516127c381611b24565b815260208201516127d381611b24565b602082015260408201516127e681611b24565b604082015260608201516127f981611b24565b606082015292915050565b805164ffffffffff81168114611a62575f5ffd5b805163ffffffff81168114611a62575f5ffd5b5f6101a082840312801561283d575f5ffd5b50612846611aa3565b612850848461279e565b81526080830151602082015260a0830151604082015260c0830151606082015261287c60e08401612804565b608082015261288e6101008401612818565b60a08201526128a06101208401612793565b60c08201526128b26101408401612793565b60e08201526128c46101608401612793565b6101008201526128d76101808401612793565b6101208201529392505050565b634e487b7160e01b5f52601160045260245ffd5b808201808211156103d0576103d06128e4565b818103818111156103d0576103d06128e4565b80820281158282048414176103d0576103d06128e4565b634e487b7160e01b5f52601260045260245ffd5b5f8261296357634e487b7160e01b5f52601260045260245ffd5b500490565b634e487b7160e01b5f52605160045260245ffdfea2646970667358221220c6a18f4c56d09dba30f0f48c44d072ba21cf36a4125faf3c9c59e916a3e27bf764736f6c634300081e0033","linkReferences":{}},"methodIdentifiers":{"computeBalance(uint256[],uint256,uint256)":"16a0b3e0","computeInvariant(uint256[],uint8)":"984de9e8","getCowPoolDynamicData()":"beb5c1e1","getCowPoolImmutableData()":"5fd482e2","getHookFlags()":"d77153a7","getNormalizedWeights()":"f89f27ed","getTrustedCowRouter()":"548e9615","onAfterAddLiquidity(address,address,uint8,uint256[],uint256[],uint256,uint256[],bytes)":"976907cc","onAfterInitialize(uint256[],uint256,bytes)":"38be241d","onAfterRemoveLiquidity(address,address,uint8,uint256,uint256[],uint256[],uint256[],bytes)":"2754888d","onAfterSwap((uint8,address,address,uint256,uint256,uint256,uint256,uint256,uint256,address,address,bytes))":"18b6eb55","onBeforeAddLiquidity(address,address,uint8,uint256[],uint256,uint256[],bytes)":"45421ec7","onBeforeInitialize(uint256[],bytes)":"1c149e28","onBeforeRemoveLiquidity(address,address,uint8,uint256,uint256[],uint256[],bytes)":"ba5f9f40","onBeforeSwap((uint8,uint256,uint256[],uint256,uint256,address,bytes),address)":"5211fa77","onComputeDynamicSwapFeePercentage((uint8,uint256,uint256[],uint256,uint256,address,bytes),address,uint256)":"a0e8f5ac","onRegister(address,address,(address,uint8,address,bool)[],(bool,bool,bool,bool))":"0b89f182","onSwap((uint8,uint256,uint256[],uint256,uint256,address,bytes))":"72c98186","refreshTrustedCowRouter()":"b0959b15"},"id":896}