{"abi":[{"type":"constructor","inputs":[{"name":"message_","type":"string","internalType":"string"}],"stateMutability":"nonpayable"},{"type":"function","name":"disableReentrancy","inputs":[],"outputs":[],"stateMutability":"nonpayable"},{"type":"function","name":"enableReentrancy","inputs":[],"outputs":[],"stateMutability":"nonpayable"},{"type":"function","name":"getMessage","inputs":[],"outputs":[{"name":"","type":"string","internalType":"string"}],"stateMutability":"view"},{"type":"function","name":"isLocked","inputs":[],"outputs":[{"name":"","type":"bool","internalType":"bool"}],"stateMutability":"view"},{"type":"function","name":"setMessage","inputs":[{"name":"message","type":"string","internalType":"string"}],"outputs":[{"name":"","type":"bool","internalType":"bool"}],"stateMutability":"nonpayable"},{"type":"function","name":"shouldReenter","inputs":[],"outputs":[{"name":"","type":"bool","internalType":"bool"}],"stateMutability":"view"},{"type":"event","name":"NewMessage","inputs":[{"name":"oldMessage","type":"string","indexed":false,"internalType":"string"},{"name":"newMessage","type":"string","indexed":false,"internalType":"string"}],"anonymous":false},{"type":"error","name":"IsLocked","inputs":[]}],"bytecode":{"object":"0x608060405234801561000f575f5ffd5b506040516108fc3803806108fc83398101604081905261002e91610090565b806100388161003f565b505061027d565b6100697fd32bbaeef0dc4ce0a1707655450e5e93886dfad6f521b6fb7c9b8f3a455fa2658261006c565b50565b8161007782826101c3565b505050565b634e487b7160e01b5f52604160045260245ffd5b5f602082840312156100a0575f5ffd5b81516001600160401b038111156100b5575f5ffd5b8201601f810184136100c5575f5ffd5b80516001600160401b038111156100de576100de61007c565b604051601f8201601f19908116603f011681016001600160401b038111828210171561010c5761010c61007c565b604052818152828201602001861015610123575f5ffd5b8160208401602083015e5f91810160200191909152949350505050565b600181811c9082168061015457607f821691505b60208210810361017257634e487b7160e01b5f52602260045260245ffd5b50919050565b601f82111561007757805f5260205f20601f840160051c8101602085101561019d5750805b601f840160051c820191505b818110156101bc575f81556001016101a9565b5050505050565b81516001600160401b038111156101dc576101dc61007c565b6101f0816101ea8454610140565b84610178565b6020601f821160018114610222575f831561020b5750848201515b5f19600385901b1c1916600184901b1784556101bc565b5f84815260208120601f198516915b828110156102515787850151825560209485019460019092019101610231565b508482101561026e57868401515f19600387901b60f8161c191681555b50505050600190811b01905550565b6106728061028a5f395ff3fe608060405234801561000f575f5ffd5b5060043610610060575f3560e01c8063368b87721461006457806377561a1b1461008c578063a4e2d6341461009f578063cc23fb1c146100a7578063ce6d41de146100b5578063ea51bc14146100ca575b5f5ffd5b61007761007236600461038b565b6100d6565b60405190151581526020015b60405180910390f35b61009d5f805460ff19166001179055565b005b610077610191565b61009d5f805460ff19169055565b6100bd61019f565b6040516100839190610469565b5f546100779060ff1681565b5f6100df6101a9565b6100e76101d1565b5f5460ff1615610179575f805460ff19169055604051631b45c3b960e11b815260206004820152600e60248201526d1c99595b9d1c985b9d0818d85b1b60921b6044820152309063368b8772906064016020604051808303815f875af1158015610153573d5f5f3e3d5ffd5b505050506040513d601f19601f820116820180604052508101906101779190610482565b505b61018282610207565b905061018c610267565b919050565b5f61019a61027d565b905090565b606061019a610297565b6101b161027d565b156101cf5760405163caa30f5560e01b815260040160405180910390fd5b565b6101cf60016102016040516020016101e8906104a1565b6040516020818303038152906040528051906020012090565b906102a9565b5f5f6102116102b0565b90507f33f9897216838d3426adfbb9dcb455323ae7e170a584880d835bc7327ad6137d61023d826102d4565b8460405161024c9291906104d2565b60405180910390a161025e8184610367565b50600192915050565b6101cf5f6102016040516020016101e8906104a1565b5f61019a6102936040516020016101e8906104a1565b5c90565b606061019a6102a46102b0565b6102d4565b80825d5050565b7fd32bbaeef0dc4ce0a1707655450e5e93886dfad6f521b6fb7c9b8f3a455fa26590565b6060815f0180546102e4906104ff565b80601f0160208091040260200160405190810160405280929190818152602001828054610310906104ff565b801561035b5780601f106103325761010080835404028352916020019161035b565b820191905f5260205f20905b81548152906001019060200180831161033e57829003601f168201915b50505050509050919050565b816103728282610582565b505050565b634e487b7160e01b5f52604160045260245ffd5b5f6020828403121561039b575f5ffd5b81356001600160401b038111156103b0575f5ffd5b8201601f810184136103c0575f5ffd5b80356001600160401b038111156103d9576103d9610377565b604051601f8201601f19908116603f011681016001600160401b038111828210171561040757610407610377565b60405281815282820160200186101561041e575f5ffd5b816020840160208301375f91810160200191909152949350505050565b5f81518084528060208401602086015e5f602082860101526020601f19601f83011685010191505092915050565b602081525f61047b602083018461043b565b9392505050565b5f60208284031215610492575f5ffd5b8151801515811461047b575f5ffd5b6020808252601790820152766372616e652e6163636573732e7265656e7472616e637960481b604082015260600190565b604081525f6104e4604083018561043b565b82810360208401526104f6818561043b565b95945050505050565b600181811c9082168061051357607f821691505b60208210810361053157634e487b7160e01b5f52602260045260245ffd5b50919050565b601f82111561037257805f5260205f20601f840160051c8101602085101561055c5750805b601f840160051c820191505b8181101561057b575f8155600101610568565b5050505050565b81516001600160401b0381111561059b5761059b610377565b6105af816105a984546104ff565b84610537565b6020601f8211600181146105e1575f83156105ca5750848201515b5f19600385901b1c1916600184901b17845561057b565b5f84815260208120601f198516915b8281101561061057878501518255602094850194600190920191016105f0565b508482101561062d57868401515f19600387901b60f8161c191681555b50505050600190811b0190555056fea264697066735822122016d80dc844f7ee6342d83dce6f92c85933d9c52aa9c4c0e8a1b4b30b6a3a995e64736f6c634300081e0033","linkReferences":{}},"methodIdentifiers":{"disableReentrancy()":"cc23fb1c","enableReentrancy()":"77561a1b","getMessage()":"ce6d41de","isLocked()":"a4e2d634","setMessage(string)":"368b8772","shouldReenter()":"ea51bc14"},"id":1304}