{"abi":[{"type":"constructor","inputs":[{"name":"vault","type":"address","internalType":"contract IVault"},{"name":"initialOwner","type":"address","internalType":"address"}],"stateMutability":"nonpayable"},{"type":"function","name":"acceptOwnership","inputs":[],"outputs":[],"stateMutability":"nonpayable"},{"type":"function","name":"addPoolsToSet","inputs":[{"name":"poolSetId","type":"uint256","internalType":"uint256"},{"name":"newPools","type":"address[]","internalType":"address[]"}],"outputs":[],"stateMutability":"nonpayable"},{"type":"function","name":"cancelOwnershipHandover","inputs":[],"outputs":[],"stateMutability":"payable"},{"type":"function","name":"completeOwnershipHandover","inputs":[{"name":"pendingOwner","type":"address","internalType":"address"}],"outputs":[],"stateMutability":"payable"},{"type":"function","name":"createPoolSet","inputs":[{"name":"initialManager","type":"address","internalType":"address"},{"name":"newPools","type":"address[]","internalType":"address[]"}],"outputs":[{"name":"poolSetId","type":"uint256","internalType":"uint256"}],"stateMutability":"nonpayable"},{"type":"function","name":"createPoolSet","inputs":[{"name":"initialManager","type":"address","internalType":"address"}],"outputs":[{"name":"","type":"uint256","internalType":"uint256"}],"stateMutability":"nonpayable"},{"type":"function","name":"destroyPoolSet","inputs":[{"name":"poolSetId","type":"uint256","internalType":"uint256"}],"outputs":[],"stateMutability":"nonpayable"},{"type":"function","name":"forceTransferOwnership","inputs":[{"name":"newOwner","type":"address","internalType":"address"}],"outputs":[],"stateMutability":"nonpayable"},{"type":"function","name":"getActionId","inputs":[{"name":"selector","type":"bytes4","internalType":"bytes4"}],"outputs":[{"name":"","type":"bytes32","internalType":"bytes32"}],"stateMutability":"view"},{"type":"function","name":"getAllPoolsInSet","inputs":[{"name":"poolSetId","type":"uint256","internalType":"uint256"}],"outputs":[{"name":"pools","type":"address[]","internalType":"address[]"}],"stateMutability":"view"},{"type":"function","name":"getAuthorizer","inputs":[],"outputs":[{"name":"","type":"address","internalType":"contract IAuthorizer"}],"stateMutability":"view"},{"type":"function","name":"getManagerForPoolSet","inputs":[{"name":"poolSetId","type":"uint256","internalType":"uint256"}],"outputs":[{"name":"","type":"address","internalType":"address"}],"stateMutability":"view"},{"type":"function","name":"getNextPoolSetId","inputs":[],"outputs":[{"name":"","type":"uint256","internalType":"uint256"}],"stateMutability":"view"},{"type":"function","name":"getPoolCountForSet","inputs":[{"name":"poolSetId","type":"uint256","internalType":"uint256"}],"outputs":[{"name":"","type":"uint256","internalType":"uint256"}],"stateMutability":"view"},{"type":"function","name":"getPoolSetIdForCaller","inputs":[],"outputs":[{"name":"","type":"uint256","internalType":"uint256"}],"stateMutability":"view"},{"type":"function","name":"getPoolSetIdForManager","inputs":[{"name":"manager","type":"address","internalType":"address"}],"outputs":[{"name":"","type":"uint256","internalType":"uint256"}],"stateMutability":"view"},{"type":"function","name":"getPoolsInSet","inputs":[{"name":"poolSetId","type":"uint256","internalType":"uint256"},{"name":"from","type":"uint256","internalType":"uint256"},{"name":"to","type":"uint256","internalType":"uint256"}],"outputs":[{"name":"pools","type":"address[]","internalType":"address[]"}],"stateMutability":"view"},{"type":"function","name":"isPoolInSet","inputs":[{"name":"pool","type":"address","internalType":"address"},{"name":"poolSetId","type":"uint256","internalType":"uint256"}],"outputs":[{"name":"","type":"bool","internalType":"bool"}],"stateMutability":"view"},{"type":"function","name":"isValidPoolSetId","inputs":[{"name":"poolSetId","type":"uint256","internalType":"uint256"}],"outputs":[{"name":"","type":"bool","internalType":"bool"}],"stateMutability":"view"},{"type":"function","name":"owner","inputs":[],"outputs":[{"name":"","type":"address","internalType":"address"}],"stateMutability":"view"},{"type":"function","name":"ownershipHandoverExpiresAt","inputs":[{"name":"pendingOwner","type":"address","internalType":"address"}],"outputs":[{"name":"result","type":"uint256","internalType":"uint256"}],"stateMutability":"view"},{"type":"function","name":"pendingOwner","inputs":[],"outputs":[{"name":"","type":"address","internalType":"address"}],"stateMutability":"view"},{"type":"function","name":"removePoolsFromSet","inputs":[{"name":"poolSetId","type":"uint256","internalType":"uint256"},{"name":"pools","type":"address[]","internalType":"address[]"}],"outputs":[],"stateMutability":"nonpayable"},{"type":"function","name":"renounceOwnership","inputs":[],"outputs":[],"stateMutability":"payable"},{"type":"function","name":"requestOwnershipHandover","inputs":[],"outputs":[],"stateMutability":"payable"},{"type":"function","name":"setStaticSwapFeePercentage","inputs":[{"name":"pool","type":"address","internalType":"address"},{"name":"swapFeePercentage","type":"uint256","internalType":"uint256"}],"outputs":[],"stateMutability":"nonpayable"},{"type":"function","name":"transferOwnership","inputs":[{"name":"newOwner","type":"address","internalType":"address"}],"outputs":[],"stateMutability":"payable"},{"type":"function","name":"transferPoolSetOwnership","inputs":[{"name":"newManager","type":"address","internalType":"address"}],"outputs":[],"stateMutability":"nonpayable"},{"type":"function","name":"vault","inputs":[],"outputs":[{"name":"","type":"address","internalType":"contract IVault"}],"stateMutability":"view"},{"type":"event","name":"OwnershipHandoverCanceled","inputs":[{"name":"pendingOwner","type":"address","indexed":true,"internalType":"address"}],"anonymous":false},{"type":"event","name":"OwnershipHandoverRequested","inputs":[{"name":"pendingOwner","type":"address","indexed":true,"internalType":"address"}],"anonymous":false},{"type":"event","name":"OwnershipTransferStarted","inputs":[{"name":"previousOwner","type":"address","indexed":true,"internalType":"address"},{"name":"newOwner","type":"address","indexed":true,"internalType":"address"}],"anonymous":false},{"type":"event","name":"OwnershipTransferred","inputs":[{"name":"oldOwner","type":"address","indexed":true,"internalType":"address"},{"name":"newOwner","type":"address","indexed":true,"internalType":"address"}],"anonymous":false},{"type":"event","name":"PoolAddedToSet","inputs":[{"name":"pool","type":"address","indexed":true,"internalType":"address"},{"name":"poolSetId","type":"uint256","indexed":true,"internalType":"uint256"}],"anonymous":false},{"type":"event","name":"PoolRemovedFromSet","inputs":[{"name":"pool","type":"address","indexed":true,"internalType":"address"},{"name":"poolSetId","type":"uint256","indexed":true,"internalType":"uint256"}],"anonymous":false},{"type":"event","name":"PoolSetCreated","inputs":[{"name":"poolSetId","type":"uint256","indexed":true,"internalType":"uint256"},{"name":"initialManager","type":"address","indexed":true,"internalType":"address"}],"anonymous":false},{"type":"event","name":"PoolSetDestroyed","inputs":[{"name":"poolSetId","type":"uint256","indexed":true,"internalType":"uint256"},{"name":"manager","type":"address","indexed":true,"internalType":"address"}],"anonymous":false},{"type":"event","name":"PoolSetOwnershipTransferred","inputs":[{"name":"poolSetId","type":"uint256","indexed":true,"internalType":"uint256"},{"name":"oldManager","type":"address","indexed":true,"internalType":"address"},{"name":"newManager","type":"address","indexed":true,"internalType":"address"}],"anonymous":false},{"type":"error","name":"AlreadyInitialized","inputs":[]},{"type":"error","name":"IndexOutOfBounds","inputs":[{"name":"poolSetId","type":"uint256","internalType":"uint256"}]},{"type":"error","name":"InvalidPoolSetId","inputs":[{"name":"poolSetId","type":"uint256","internalType":"uint256"}]},{"type":"error","name":"InvalidPoolSetManager","inputs":[]},{"type":"error","name":"NewOwnerIsZeroAddress","inputs":[]},{"type":"error","name":"NoHandoverRequest","inputs":[]},{"type":"error","name":"OwnableInvalidOwner","inputs":[{"name":"owner","type":"address","internalType":"address"}]},{"type":"error","name":"OwnableUnauthorizedAccount","inputs":[{"name":"account","type":"address","internalType":"address"}]},{"type":"error","name":"PoolAlreadyInSet","inputs":[{"name":"pool","type":"address","internalType":"address"},{"name":"poolSetId","type":"uint256","internalType":"uint256"}]},{"type":"error","name":"PoolHasSwapManager","inputs":[{"name":"pool","type":"address","internalType":"address"}]},{"type":"error","name":"PoolNotInSet","inputs":[{"name":"pool","type":"address","internalType":"address"},{"name":"poolSetId","type":"uint256","internalType":"uint256"}]},{"type":"error","name":"PoolNotRegistered","inputs":[{"name":"pool","type":"address","internalType":"address"}]},{"type":"error","name":"PoolSetManagerNotUnique","inputs":[{"name":"poolSetManager","type":"address","internalType":"address"}]},{"type":"error","name":"SenderIsNotPoolSetManager","inputs":[]},{"type":"error","name":"SenderNotAllowed","inputs":[]},{"type":"error","name":"Unauthorized","inputs":[]},{"type":"error","name":"VaultNotSet","inputs":[]}],"bytecode":{"object":"0x60c060405260018055348015610013575f5ffd5b506040516119a73803806119a783398101604081905261003291610100565b8181818130816001600160a01b03811661006557604051631e4fbdf760e01b81525f600482015260240160405180910390fd5b61006e816100b0565b506080526001600160a01b03821661009957604051630647140b60e51b815260040160405180910390fd5b506001600160a01b031660a0525061013892505050565b6001600160a01b0316638b78c6d819819055805f7f8be0079c531659141344cd1fd0a4f28419497f9722a3daafe3b4186f6b6457e08180a35b50565b6001600160a01b03811681146100e9575f5ffd5b5f5f60408385031215610111575f5ffd5b825161011c816100ec565b602084015190925061012d816100ec565b809150509250929050565b60805160a05161182b61017c5f395f818161049801528181610a7001528181610b1b01528181610bec0152818161108f015261117a01525f61088f015261182b5ff3fe608060405260043610610151575f3560e01c8063182551da14610155578063255dae411461018957806325692962146101bf57806325c427ed146101c95780632da55a1d1461020b5780633700f9871461022a5780633e035f9b1461024957806354d1f13d1461026857806362d5346214610270578063715018a61461028f57806379ba5097146102975780637c1ec460146102ab578063851c1bb3146102ca5780638c60ebd0146102e95780638da5cb5b1461031557806394fc405814610336578063a89b112814610355578063aaabadc514610374578063c482e82214610388578063ce998aba1461039c578063d15126ba146103bc578063e30c3978146103db578063e909c19b146103ef578063ebf3a8d01461040e578063f04e283e1461042d578063f167a1e614610440578063f2fde38b14610474578063fbfa77cf14610487578063fee81cf4146104ba575b5f5ffd5b348015610160575f5ffd5b5061017461016f36600461145a565b6104eb565b60405190151581526020015b60405180910390f35b348015610194575f5ffd5b506101746101a3366004611484565b5f908152600260205260409020546001600160a01b0316151590565b6101c7610517565b005b3480156101d4575f5ffd5b506101fd6101e336600461149b565b6001600160a01b03165f9081526003602052604090205490565b604051908152602001610180565b348015610216575f5ffd5b506101c7610225366004611582565b610563565b348015610235575f5ffd5b506101c761024436600461149b565b610621565b348015610254575f5ffd5b506101fd6102633660046115c5565b6106ab565b6101c76106db565b34801561027b575f5ffd5b506101fd61028a366004611484565b610714565b6101c761073c565b3480156102a2575f5ffd5b506101c761074f565b3480156102b6575f5ffd5b506101c76102c5366004611484565b61078e565b3480156102d5575f5ffd5b506101fd6102e43660046115fb565b61088c565b3480156102f4575f5ffd5b50610308610303366004611622565b6108f0565b604051610180919061164b565b348015610320575f5ffd5b50610329610a00565b6040516101809190611696565b348015610341575f5ffd5b50610308610350366004611484565b610a13565b348015610360575f5ffd5b506101c761036f36600461149b565b610a35565b34801561037f575f5ffd5b50610329610a6d565b348015610393575f5ffd5b506001546101fd565b3480156103a7575f5ffd5b50335f908152600360205260409020546101fd565b3480156103c7575f5ffd5b506101c76103d636600461145a565b610aee565b3480156103e6575f5ffd5b50610329610b85565b3480156103fa575f5ffd5b506101fd61040936600461149b565b610b93565b348015610419575f5ffd5b506101c7610428366004611582565b610baf565b6101c761043b36600461149b565b610d1b565b34801561044b575f5ffd5b5061032961045a366004611484565b5f908152600260205260409020546001600160a01b031690565b6101c761048236600461149b565b610d55565b348015610492575f5ffd5b506103297f000000000000000000000000000000000000000000000000000000000000000081565b3480156104c5575f5ffd5b506101fd6104d436600461149b565b63389a75e1600c9081525f91909152602090205490565b5f816104f681610dba565b5f83815260046020526040902061050d9085610dfc565b91505b5092915050565b5f6202a3006001600160401b03164201905063389a75e1600c52335f52806020600c2055337fdbf36a107da19e49527a7176a1babf963b4b0ff8cde35ee35d6cd8f1f9ac7e1d5f5fa250565b61056b610e19565b8161057581610dba565b81515f5b8181101561061a575f848281518110610594576105946116aa565b602002602001015190506105c18160045f8981526020019081526020015f20610e5790919063ffffffff16565b15155f036105ef57808660405163400a2eb960e11b81526004016105e69291906116be565b60405180910390fd5b60405186906001600160a01b038316905f5160206117d65f395f51905f52905f90a350600101610579565b5050505050565b8061062b81610e6b565b5f610634610eca565b5f81815260026020908152604080832080546001600160a01b0319166001600160a01b038916908117909155338085526003909352818420849055808452818420859055905193945092909184917f8a5583d08cb82be0e3e26d52a1941f10fe2fdd1bb7cc5e085a0ba35b3d7972059190a4505050565b5f6106b4610e19565b826106be81610e6b565b6106c784610efd565b835190925015610510576105108284610baf565b63389a75e1600c52335f525f6020600c2055337ffa7b8eab7da67f412cc9575ed43464468f9bfbae89d1675917346ca6d8fe3c925f5fa2565b5f8161071f81610dba565b5f83815260046020526040902061073590610f7a565b9392505050565b610744610f83565b61074d5f610fbe565b565b3380610759610b85565b6001600160a01b031614610782578060405163118cdaa760e01b81526004016105e69190611696565b61078b81610ffb565b50565b610796610e19565b806107a081610dba565b5f828152600460205260408120906107b782610f7a565b90505b8015610805575f19015f6107ce8383611013565b905084816001600160a01b03165f5160206117d65f395f51905f5260405160405180910390a36107fe8382610e57565b50506107ba565b5f84815260046020526040812090818161081f8282611418565b5050505f85815260026020908152604080832080546001600160a01b031981169091556001600160a01b0316808452600390925280832083905551909250829187917f79baa5e19a392c29299f3a0871dfaa49cb3bcce18826d5d6df199c9e0846a6c09190a35050505050565b5f7f0000000000000000000000000000000000000000000000000000000000000000826040516020016108d39291909182526001600160e01b031916602082015260240190565b604051602081830303815290604052805190602001209050919050565b6060836108fc81610dba565b5f85815260046020526040812061091290610f7a565b90508385118061092157508084115b8061092c5750808510155b1561094d5760405163112517f360e21b8152600481018790526024016105e6565b61095785856116eb565b6001600160401b0381111561096e5761096e6114b6565b604051908082528060200260200182016040528015610997578160200160208202803683370190505b509250845b848110156109f6575f8781526004602052604090206109bb9082611013565b846109c688846116eb565b815181106109d6576109d66116aa565b6001600160a01b039092166020928302919091019091015260010161099c565b5050509392505050565b5f610a0e638b78c6d8195490565b905090565b606081610a1f81610dba565b5f8381526004602052604090206107359061101e565b610a3d610e19565b610a45610a00565b6001600160a01b03163303610782576040516323dada5360e01b815260040160405180910390fd5b5f7f00000000000000000000000000000000000000000000000000000000000000006001600160a01b031663aaabadc56040518163ffffffff1660e01b8152600401602060405180830381865afa158015610aca573d5f5f3e3d5ffd5b505050506040513d601f19601f82011682018060405250810190610a0e91906116fe565b815f610af8610eca565b9050610b04818361102a565b6040516368a8935d60e11b81526001600160a01b037f0000000000000000000000000000000000000000000000000000000000000000169063d15126ba90610b5290879087906004016116be565b5f604051808303815f87803b158015610b69575f5ffd5b505af1158015610b7b573d5f5f3e3d5ffd5b5050505050505050565b5f546001600160a01b031690565b5f610b9c610e19565b81610ba681610e6b565b61073583610efd565b610bb7610e19565b81610bc181610dba565b81515f5b8181101561061a575f848281518110610be057610be06116aa565b602002602001015190507f00000000000000000000000000000000000000000000000000000000000000006001600160a01b031663c673bdaf826040518263ffffffff1660e01b8152600401610c369190611696565b602060405180830381865afa158015610c51573d5f5f3e3d5ffd5b505050506040513d601f19601f82011682018060405250810190610c759190611719565b15155f03610c9857806040516327946f5760e21b81526004016105e69190611696565b5f868152600460205260409020610caf908261106a565b15155f03610cd4578086604051635a17aa8d60e01b81526004016105e69291906116be565b610cdd8161107e565b60405186906001600160a01b038316907f5cda7ebcbcc755c3ef1c6cf035a6e26bf48b6421f72f932756d942c896287b69905f90a350600101610bc5565b610d23610f83565b63389a75e1600c52805f526020600c208054421115610d4957636f5e88185f526004601cfd5b5f905561078b81610fbe565b610d5d610f83565b5f80546001600160a01b0319166001600160a01b038316908117909155610d82610a00565b6001600160a01b03167f38d16b8cac22d99fc7c124b9cd0de2d3fa1faef420bfe791d8c362d765e2270060405160405180910390a350565b801580610ddb57505f818152600260205260409020546001600160a01b0316155b1561078b576040516398592ddb60e01b8152600481018290526024016105e6565b5f610e10836001600160a01b038416611138565b90505b92915050565b5f610e2e5f356001600160e01b03191661088c565b9050610e3a813361114f565b61078b576040516323dada5360e01b815260040160405180910390fd5b5f610e10836001600160a01b03841661126f565b6001600160a01b038116610e92576040516316f292b760e11b815260040160405180910390fd5b6001600160a01b0381165f908152600360205260409020541561078b578060405163161ad54b60e11b81526004016105e69190611696565b335f9081526003602052604081205490819003610efa57604051632f3023dd60e21b815260040160405180910390fd5b90565b600180545f9182610f0d83611738565b909155505f81815260026020908152604080832080546001600160a01b0319166001600160a01b0388169081179091558084526003909252808320849055519293509183917fdc91443db112ae1beb8fab12e3fa2dedea028e9eb6a8e92776a1aa2343007be291a3919050565b5f610e13825490565b610f8b610a00565b6001600160a01b0316336001600160a01b03161461074d573360405163118cdaa760e01b81526004016105e69190611696565b638b78c6d81980546001600160a01b039092169182907f8be0079c531659141344cd1fd0a4f28419497f9722a3daafe3b4186f6b6457e05f80a355565b5f80546001600160a01b031916905561078b81610fbe565b5f610e108383611352565b60605f61073583611378565b5f8281526004602052604090206110419082610dfc565b15155f0361106657808260405163400a2eb960e11b81526004016105e69291906116be565b5050565b5f610e10836001600160a01b0384166113d1565b6040516374eef59360e11b81525f907f00000000000000000000000000000000000000000000000000000000000000006001600160a01b03169063e9ddeb26906110cc908590600401611696565b606060405180830381865afa1580156110e7573d5f5f3e3d5ffd5b505050506040513d601f19601f8201168201806040525081019061110b9190611750565b602001516001600160a01b03161461078b5780604051637821a4a560e11b81526004016105e69190611696565b5f9081526001919091016020526040902054151590565b5f611158610a00565b6001600160a01b0316826001600160a01b03160361117857506001610e13565b7f00000000000000000000000000000000000000000000000000000000000000006001600160a01b031663aaabadc56040518163ffffffff1660e01b8152600401602060405180830381865afa1580156111d4573d5f5f3e3d5ffd5b505050506040513d601f19601f820116820180604052508101906111f891906116fe565b6040516326f8aa2160e21b8152600481018590526001600160a01b0384811660248301523060448301529190911690639be2a88490606401602060405180830381865afa15801561124b573d5f5f3e3d5ffd5b505050506040513d601f19601f82011682018060405250810190610e109190611719565b5f8181526001830160205260408120548015611349575f6112916001836116eb565b85549091505f906112a4906001906116eb565b9050808214611303575f865f0182815481106112c2576112c26116aa565b905f5260205f200154905080875f0184815481106112e2576112e26116aa565b5f918252602080832090910192909255918252600188019052604090208390555b8554869080611314576113146117c1565b600190038181905f5260205f20015f90559055856001015f8681526020019081526020015f205f905560019350505050610e13565b5f915050610e13565b5f825f018281548110611367576113676116aa565b905f5260205f200154905092915050565b6060815f018054806020026020016040519081016040528092919081815260200182805480156113c557602002820191905f5260205f20905b8154815260200190600101908083116113b1575b50505050509050919050565b5f6113dc8383611138565b61141157508154600181810184555f848152602080822090930184905584548482528286019093526040902091909155610e13565b505f610e13565b5080545f8255905f5260205f209081019061078b91905b80821115611442575f815560010161142f565b5090565b6001600160a01b038116811461078b575f5ffd5b5f5f6040838503121561146b575f5ffd5b823561147681611446565b946020939093013593505050565b5f60208284031215611494575f5ffd5b5035919050565b5f602082840312156114ab575f5ffd5b813561073581611446565b634e487b7160e01b5f52604160045260245ffd5b604051601f8201601f191681016001600160401b03811182821017156114f2576114f26114b6565b604052919050565b5f82601f830112611509575f5ffd5b81356001600160401b03811115611522576115226114b6565b8060051b611532602082016114ca565b9182526020818501810192908101908684111561154d575f5ffd5b6020860192505b8383101561157857823561156781611446565b825260209283019290910190611554565b9695505050505050565b5f5f60408385031215611593575f5ffd5b8235915060208301356001600160401b038111156115af575f5ffd5b6115bb858286016114fa565b9150509250929050565b5f5f604083850312156115d6575f5ffd5b82356115e181611446565b915060208301356001600160401b038111156115af575f5ffd5b5f6020828403121561160b575f5ffd5b81356001600160e01b031981168114610735575f5ffd5b5f5f5f60608486031215611634575f5ffd5b505081359360208301359350604090920135919050565b602080825282518282018190525f918401906040840190835b8181101561168b5783516001600160a01b0316835260209384019390920191600101611664565b509095945050505050565b6001600160a01b0391909116815260200190565b634e487b7160e01b5f52603260045260245ffd5b6001600160a01b03929092168252602082015260400190565b634e487b7160e01b5f52601160045260245ffd5b81810381811115610e1357610e136116d7565b5f6020828403121561170e575f5ffd5b815161073581611446565b5f60208284031215611729575f5ffd5b81518015158114610735575f5ffd5b5f60018201611749576117496116d7565b5060010190565b5f6060828403128015611761575f5ffd5b50604051606081016001600160401b0381118282101715611784576117846114b6565b604052825161179281611446565b815260208301516117a281611446565b602082015260408301516117b581611446565b60408201529392505050565b634e487b7160e01b5f52603160045260245ffdfee632b6be71c5c7f5d98ba00da8b648a72422f750973138bc6474de6fe711b66ea264697066735822122074722a2a055a0f081e5ee54dddd381771ca6bb7ec6f260492ea72a1a4e9c83b564736f6c634300081e0033","linkReferences":{}},"methodIdentifiers":{"acceptOwnership()":"79ba5097","addPoolsToSet(uint256,address[])":"ebf3a8d0","cancelOwnershipHandover()":"54d1f13d","completeOwnershipHandover(address)":"f04e283e","createPoolSet(address)":"e909c19b","createPoolSet(address,address[])":"3e035f9b","destroyPoolSet(uint256)":"7c1ec460","forceTransferOwnership(address)":"a89b1128","getActionId(bytes4)":"851c1bb3","getAllPoolsInSet(uint256)":"94fc4058","getAuthorizer()":"aaabadc5","getManagerForPoolSet(uint256)":"f167a1e6","getNextPoolSetId()":"c482e822","getPoolCountForSet(uint256)":"62d53462","getPoolSetIdForCaller()":"ce998aba","getPoolSetIdForManager(address)":"25c427ed","getPoolsInSet(uint256,uint256,uint256)":"8c60ebd0","isPoolInSet(address,uint256)":"182551da","isValidPoolSetId(uint256)":"255dae41","owner()":"8da5cb5b","ownershipHandoverExpiresAt(address)":"fee81cf4","pendingOwner()":"e30c3978","removePoolsFromSet(uint256,address[])":"2da55a1d","renounceOwnership()":"715018a6","requestOwnershipHandover()":"25692962","setStaticSwapFeePercentage(address,uint256)":"d15126ba","transferOwnership(address)":"f2fde38b","transferPoolSetOwnership(address)":"3700f987","vault()":"fbfa77cf"},"id":312}