{"abi":[{"type":"constructor","inputs":[{"name":"vault","type":"address","internalType":"contract IVault"},{"name":"initialOwner","type":"address","internalType":"address"}],"stateMutability":"nonpayable"},{"type":"function","name":"acceptOwnership","inputs":[],"outputs":[],"stateMutability":"nonpayable"},{"type":"function","name":"addPoolsToSet","inputs":[{"name":"poolSetId","type":"uint256","internalType":"uint256"},{"name":"newPools","type":"address[]","internalType":"address[]"}],"outputs":[],"stateMutability":"nonpayable"},{"type":"function","name":"cancelOwnershipHandover","inputs":[],"outputs":[],"stateMutability":"payable"},{"type":"function","name":"completeOwnershipHandover","inputs":[{"name":"pendingOwner","type":"address","internalType":"address"}],"outputs":[],"stateMutability":"payable"},{"type":"function","name":"createPoolSet","inputs":[{"name":"initialManager","type":"address","internalType":"address"},{"name":"newPools","type":"address[]","internalType":"address[]"}],"outputs":[{"name":"poolSetId","type":"uint256","internalType":"uint256"}],"stateMutability":"nonpayable"},{"type":"function","name":"createPoolSet","inputs":[{"name":"initialManager","type":"address","internalType":"address"}],"outputs":[{"name":"","type":"uint256","internalType":"uint256"}],"stateMutability":"nonpayable"},{"type":"function","name":"destroyPoolSet","inputs":[{"name":"poolSetId","type":"uint256","internalType":"uint256"}],"outputs":[],"stateMutability":"nonpayable"},{"type":"function","name":"forceTransferOwnership","inputs":[{"name":"newOwner","type":"address","internalType":"address"}],"outputs":[],"stateMutability":"nonpayable"},{"type":"function","name":"getActionId","inputs":[{"name":"selector","type":"bytes4","internalType":"bytes4"}],"outputs":[{"name":"","type":"bytes32","internalType":"bytes32"}],"stateMutability":"view"},{"type":"function","name":"getAllPoolsInSet","inputs":[{"name":"poolSetId","type":"uint256","internalType":"uint256"}],"outputs":[{"name":"pools","type":"address[]","internalType":"address[]"}],"stateMutability":"view"},{"type":"function","name":"getAuthorizer","inputs":[],"outputs":[{"name":"","type":"address","internalType":"contract IAuthorizer"}],"stateMutability":"view"},{"type":"function","name":"getManagerForPoolSet","inputs":[{"name":"poolSetId","type":"uint256","internalType":"uint256"}],"outputs":[{"name":"","type":"address","internalType":"address"}],"stateMutability":"view"},{"type":"function","name":"getNextPoolSetId","inputs":[],"outputs":[{"name":"","type":"uint256","internalType":"uint256"}],"stateMutability":"view"},{"type":"function","name":"getPoolCountForSet","inputs":[{"name":"poolSetId","type":"uint256","internalType":"uint256"}],"outputs":[{"name":"","type":"uint256","internalType":"uint256"}],"stateMutability":"view"},{"type":"function","name":"getPoolSetIdForCaller","inputs":[],"outputs":[{"name":"","type":"uint256","internalType":"uint256"}],"stateMutability":"view"},{"type":"function","name":"getPoolSetIdForManager","inputs":[{"name":"manager","type":"address","internalType":"address"}],"outputs":[{"name":"","type":"uint256","internalType":"uint256"}],"stateMutability":"view"},{"type":"function","name":"getPoolsInSet","inputs":[{"name":"poolSetId","type":"uint256","internalType":"uint256"},{"name":"from","type":"uint256","internalType":"uint256"},{"name":"to","type":"uint256","internalType":"uint256"}],"outputs":[{"name":"pools","type":"address[]","internalType":"address[]"}],"stateMutability":"view"},{"type":"function","name":"isPoolInSet","inputs":[{"name":"pool","type":"address","internalType":"address"},{"name":"poolSetId","type":"uint256","internalType":"uint256"}],"outputs":[{"name":"","type":"bool","internalType":"bool"}],"stateMutability":"view"},{"type":"function","name":"isValidPoolSetId","inputs":[{"name":"poolSetId","type":"uint256","internalType":"uint256"}],"outputs":[{"name":"","type":"bool","internalType":"bool"}],"stateMutability":"view"},{"type":"function","name":"owner","inputs":[],"outputs":[{"name":"","type":"address","internalType":"address"}],"stateMutability":"view"},{"type":"function","name":"ownershipHandoverExpiresAt","inputs":[{"name":"pendingOwner","type":"address","internalType":"address"}],"outputs":[{"name":"result","type":"uint256","internalType":"uint256"}],"stateMutability":"view"},{"type":"function","name":"pendingOwner","inputs":[],"outputs":[{"name":"","type":"address","internalType":"address"}],"stateMutability":"view"},{"type":"function","name":"removePoolsFromSet","inputs":[{"name":"poolSetId","type":"uint256","internalType":"uint256"},{"name":"pools","type":"address[]","internalType":"address[]"}],"outputs":[],"stateMutability":"nonpayable"},{"type":"function","name":"renounceOwnership","inputs":[],"outputs":[],"stateMutability":"payable"},{"type":"function","name":"requestOwnershipHandover","inputs":[],"outputs":[],"stateMutability":"payable"},{"type":"function","name":"transferOwnership","inputs":[{"name":"newOwner","type":"address","internalType":"address"}],"outputs":[],"stateMutability":"payable"},{"type":"function","name":"transferPoolSetOwnership","inputs":[{"name":"newManager","type":"address","internalType":"address"}],"outputs":[],"stateMutability":"nonpayable"},{"type":"function","name":"vault","inputs":[],"outputs":[{"name":"","type":"address","internalType":"contract IVault"}],"stateMutability":"view"},{"type":"event","name":"OwnershipHandoverCanceled","inputs":[{"name":"pendingOwner","type":"address","indexed":true,"internalType":"address"}],"anonymous":false},{"type":"event","name":"OwnershipHandoverRequested","inputs":[{"name":"pendingOwner","type":"address","indexed":true,"internalType":"address"}],"anonymous":false},{"type":"event","name":"OwnershipTransferStarted","inputs":[{"name":"previousOwner","type":"address","indexed":true,"internalType":"address"},{"name":"newOwner","type":"address","indexed":true,"internalType":"address"}],"anonymous":false},{"type":"event","name":"OwnershipTransferred","inputs":[{"name":"oldOwner","type":"address","indexed":true,"internalType":"address"},{"name":"newOwner","type":"address","indexed":true,"internalType":"address"}],"anonymous":false},{"type":"event","name":"PoolAddedToSet","inputs":[{"name":"pool","type":"address","indexed":true,"internalType":"address"},{"name":"poolSetId","type":"uint256","indexed":true,"internalType":"uint256"}],"anonymous":false},{"type":"event","name":"PoolRemovedFromSet","inputs":[{"name":"pool","type":"address","indexed":true,"internalType":"address"},{"name":"poolSetId","type":"uint256","indexed":true,"internalType":"uint256"}],"anonymous":false},{"type":"event","name":"PoolSetCreated","inputs":[{"name":"poolSetId","type":"uint256","indexed":true,"internalType":"uint256"},{"name":"initialManager","type":"address","indexed":true,"internalType":"address"}],"anonymous":false},{"type":"event","name":"PoolSetDestroyed","inputs":[{"name":"poolSetId","type":"uint256","indexed":true,"internalType":"uint256"},{"name":"manager","type":"address","indexed":true,"internalType":"address"}],"anonymous":false},{"type":"event","name":"PoolSetOwnershipTransferred","inputs":[{"name":"poolSetId","type":"uint256","indexed":true,"internalType":"uint256"},{"name":"oldManager","type":"address","indexed":true,"internalType":"address"},{"name":"newManager","type":"address","indexed":true,"internalType":"address"}],"anonymous":false},{"type":"error","name":"AlreadyInitialized","inputs":[]},{"type":"error","name":"IndexOutOfBounds","inputs":[{"name":"poolSetId","type":"uint256","internalType":"uint256"}]},{"type":"error","name":"InvalidPoolSetId","inputs":[{"name":"poolSetId","type":"uint256","internalType":"uint256"}]},{"type":"error","name":"InvalidPoolSetManager","inputs":[]},{"type":"error","name":"NewOwnerIsZeroAddress","inputs":[]},{"type":"error","name":"NoHandoverRequest","inputs":[]},{"type":"error","name":"OwnableInvalidOwner","inputs":[{"name":"owner","type":"address","internalType":"address"}]},{"type":"error","name":"OwnableUnauthorizedAccount","inputs":[{"name":"account","type":"address","internalType":"address"}]},{"type":"error","name":"PoolAlreadyInSet","inputs":[{"name":"pool","type":"address","internalType":"address"},{"name":"poolSetId","type":"uint256","internalType":"uint256"}]},{"type":"error","name":"PoolNotInSet","inputs":[{"name":"pool","type":"address","internalType":"address"},{"name":"poolSetId","type":"uint256","internalType":"uint256"}]},{"type":"error","name":"PoolNotRegistered","inputs":[{"name":"pool","type":"address","internalType":"address"}]},{"type":"error","name":"PoolSetManagerNotUnique","inputs":[{"name":"poolSetManager","type":"address","internalType":"address"}]},{"type":"error","name":"SenderIsNotPoolSetManager","inputs":[]},{"type":"error","name":"SenderNotAllowed","inputs":[]},{"type":"error","name":"Unauthorized","inputs":[]},{"type":"error","name":"VaultNotSet","inputs":[]}],"bytecode":{"object":"0x60c060405260018055348015610013575f5ffd5b5060405161175f38038061175f83398101604081905261003291610100565b8181818130816001600160a01b03811661006557604051631e4fbdf760e01b81525f600482015260240160405180910390fd5b61006e816100b0565b506080526001600160a01b03821661009957604051630647140b60e51b815260040160405180910390fd5b506001600160a01b031660a0525061013892505050565b6001600160a01b0316638b78c6d819819055805f7f8be0079c531659141344cd1fd0a4f28419497f9722a3daafe3b4186f6b6457e08180a35b50565b6001600160a01b03811681146100e9575f5ffd5b5f5f60408385031215610111575f5ffd5b825161011c816100ec565b602084015190925061012d816100ec565b809150509250929050565b60805160a0516115f161016e5f395f818161046e01528181610a4601528181610b2b0152610fb601525f61086501526115f15ff3fe608060405260043610610146575f3560e01c8063182551da1461014a578063255dae411461017e57806325692962146101b457806325c427ed146101be5780632da55a1d146102005780633700f9871461021f5780633e035f9b1461023e57806354d1f13d1461025d57806362d5346214610265578063715018a61461028457806379ba50971461028c5780637c1ec460146102a0578063851c1bb3146102bf5780638c60ebd0146102de5780638da5cb5b1461030a57806394fc40581461032b578063a89b11281461034a578063aaabadc514610369578063c482e8221461037d578063ce998aba14610391578063e30c3978146103b1578063e909c19b146103c5578063ebf3a8d0146103e4578063f04e283e14610403578063f167a1e614610416578063f2fde38b1461044a578063fbfa77cf1461045d578063fee81cf414610490575b5f5ffd5b348015610155575f5ffd5b506101696101643660046112a6565b6104c1565b60405190151581526020015b60405180910390f35b348015610189575f5ffd5b506101696101983660046112d0565b5f908152600260205260409020546001600160a01b0316151590565b6101bc6104ed565b005b3480156101c9575f5ffd5b506101f26101d83660046112e7565b6001600160a01b03165f9081526003602052604090205490565b604051908152602001610175565b34801561020b575f5ffd5b506101bc61021a3660046113b9565b610539565b34801561022a575f5ffd5b506101bc6102393660046112e7565b6105f7565b348015610249575f5ffd5b506101f26102583660046113fc565b610681565b6101bc6106b1565b348015610270575f5ffd5b506101f261027f3660046112d0565b6106ea565b6101bc610712565b348015610297575f5ffd5b506101bc610725565b3480156102ab575f5ffd5b506101bc6102ba3660046112d0565b610764565b3480156102ca575f5ffd5b506101f26102d9366004611432565b610862565b3480156102e9575f5ffd5b506102fd6102f8366004611459565b6108c6565b6040516101759190611482565b348015610315575f5ffd5b5061031e6109d6565b60405161017591906114cd565b348015610336575f5ffd5b506102fd6103453660046112d0565b6109e9565b348015610355575f5ffd5b506101bc6103643660046112e7565b610a0b565b348015610374575f5ffd5b5061031e610a43565b348015610388575f5ffd5b506001546101f2565b34801561039c575f5ffd5b50335f908152600360205260409020546101f2565b3480156103bc575f5ffd5b5061031e610ac4565b3480156103d0575f5ffd5b506101f26103df3660046112e7565b610ad2565b3480156103ef575f5ffd5b506101bc6103fe3660046113b9565b610aee565b6101bc6104113660046112e7565b610c51565b348015610421575f5ffd5b5061031e6104303660046112d0565b5f908152600260205260409020546001600160a01b031690565b6101bc6104583660046112e7565b610c8b565b348015610468575f5ffd5b5061031e7f000000000000000000000000000000000000000000000000000000000000000081565b34801561049b575f5ffd5b506101f26104aa3660046112e7565b63389a75e1600c9081525f91909152602090205490565b5f816104cc81610cf0565b5f8381526004602052604090206104e39085610d32565b91505b5092915050565b5f6202a3006001600160401b03164201905063389a75e1600c52335f52806020600c2055337fdbf36a107da19e49527a7176a1babf963b4b0ff8cde35ee35d6cd8f1f9ac7e1d5f5fa250565b610541610d4f565b8161054b81610cf0565b81515f5b818110156105f0575f84828151811061056a5761056a6114e1565b602002602001015190506105978160045f8981526020019081526020015f20610d8d90919063ffffffff16565b15155f036105c557808660405163400a2eb960e11b81526004016105bc9291906114f5565b60405180910390fd5b60405186906001600160a01b038316905f51602061159c5f395f51905f52905f90a35060010161054f565b5050505050565b8061060181610da1565b5f61060a610e00565b5f81815260026020908152604080832080546001600160a01b0319166001600160a01b038916908117909155338085526003909352818420849055808452818420859055905193945092909184917f8a5583d08cb82be0e3e26d52a1941f10fe2fdd1bb7cc5e085a0ba35b3d7972059190a4505050565b5f61068a610d4f565b8261069481610da1565b61069d84610e33565b8351909250156104e6576104e68284610aee565b63389a75e1600c52335f525f6020600c2055337ffa7b8eab7da67f412cc9575ed43464468f9bfbae89d1675917346ca6d8fe3c925f5fa2565b5f816106f581610cf0565b5f83815260046020526040902061070b90610eb0565b9392505050565b61071a610eb9565b6107235f610ef4565b565b338061072f610ac4565b6001600160a01b031614610758578060405163118cdaa760e01b81526004016105bc91906114cd565b61076181610f31565b50565b61076c610d4f565b8061077681610cf0565b5f8281526004602052604081209061078d82610eb0565b90505b80156107db575f19015f6107a48383610f49565b905084816001600160a01b03165f51602061159c5f395f51905f5260405160405180910390a36107d48382610d8d565b5050610790565b5f8481526004602052604081209081816107f58282611254565b5050505f85815260026020908152604080832080546001600160a01b031981169091556001600160a01b0316808452600390925280832083905551909250829187917f79baa5e19a392c29299f3a0871dfaa49cb3bcce18826d5d6df199c9e0846a6c09190a35050505050565b5f7f0000000000000000000000000000000000000000000000000000000000000000826040516020016108a99291909182526001600160e01b031916602082015260240190565b604051602081830303815290604052805190602001209050919050565b6060836108d281610cf0565b5f8581526004602052604081206108e890610eb0565b9050838511806108f757508084115b806109025750808510155b156109235760405163112517f360e21b8152600481018790526024016105bc565b61092d8585611522565b6001600160401b0381111561094457610944611302565b60405190808252806020026020018201604052801561096d578160200160208202803683370190505b509250845b848110156109cc575f8781526004602052604090206109919082610f49565b8461099c8884611522565b815181106109ac576109ac6114e1565b6001600160a01b0390921660209283029190910190910152600101610972565b5050509392505050565b5f6109e4638b78c6d8195490565b905090565b6060816109f581610cf0565b5f83815260046020526040902061070b90610f54565b610a13610d4f565b610a1b6109d6565b6001600160a01b03163303610758576040516323dada5360e01b815260040160405180910390fd5b5f7f00000000000000000000000000000000000000000000000000000000000000006001600160a01b031663aaabadc56040518163ffffffff1660e01b8152600401602060405180830381865afa158015610aa0573d5f5f3e3d5ffd5b505050506040513d601f19601f820116820180604052508101906109e49190611535565b5f546001600160a01b031690565b5f610adb610d4f565b81610ae581610da1565b61070b83610e33565b610af6610d4f565b81610b0081610cf0565b81515f5b818110156105f0575f848281518110610b1f57610b1f6114e1565b602002602001015190507f00000000000000000000000000000000000000000000000000000000000000006001600160a01b031663c673bdaf826040518263ffffffff1660e01b8152600401610b7591906114cd565b602060405180830381865afa158015610b90573d5f5f3e3d5ffd5b505050506040513d601f19601f82011682018060405250810190610bb49190611550565b15155f03610bd757806040516327946f5760e21b81526004016105bc91906114cd565b5f868152600460205260409020610bee9082610f60565b15155f03610c13578086604051635a17aa8d60e01b81526004016105bc9291906114f5565b60405186906001600160a01b038316907f5cda7ebcbcc755c3ef1c6cf035a6e26bf48b6421f72f932756d942c896287b69905f90a350600101610b04565b610c59610eb9565b63389a75e1600c52805f526020600c208054421115610c7f57636f5e88185f526004601cfd5b5f905561076181610ef4565b610c93610eb9565b5f80546001600160a01b0319166001600160a01b038316908117909155610cb86109d6565b6001600160a01b03167f38d16b8cac22d99fc7c124b9cd0de2d3fa1faef420bfe791d8c362d765e2270060405160405180910390a350565b801580610d1157505f818152600260205260409020546001600160a01b0316155b15610761576040516398592ddb60e01b8152600481018290526024016105bc565b5f610d46836001600160a01b038416610f74565b90505b92915050565b5f610d645f356001600160e01b031916610862565b9050610d708133610f8b565b610761576040516323dada5360e01b815260040160405180910390fd5b5f610d46836001600160a01b0384166110ab565b6001600160a01b038116610dc8576040516316f292b760e11b815260040160405180910390fd5b6001600160a01b0381165f9081526003602052604090205415610761578060405163161ad54b60e11b81526004016105bc91906114cd565b335f9081526003602052604081205490819003610e3057604051632f3023dd60e21b815260040160405180910390fd5b90565b600180545f9182610e438361156f565b909155505f81815260026020908152604080832080546001600160a01b0319166001600160a01b0388169081179091558084526003909252808320849055519293509183917fdc91443db112ae1beb8fab12e3fa2dedea028e9eb6a8e92776a1aa2343007be291a3919050565b5f610d49825490565b610ec16109d6565b6001600160a01b0316336001600160a01b031614610723573360405163118cdaa760e01b81526004016105bc91906114cd565b638b78c6d81980546001600160a01b039092169182907f8be0079c531659141344cd1fd0a4f28419497f9722a3daafe3b4186f6b6457e05f80a355565b5f80546001600160a01b031916905561076181610ef4565b5f610d46838361118e565b60605f61070b836111b4565b5f610d46836001600160a01b03841661120d565b5f9081526001919091016020526040902054151590565b5f610f946109d6565b6001600160a01b0316826001600160a01b031603610fb457506001610d49565b7f00000000000000000000000000000000000000000000000000000000000000006001600160a01b031663aaabadc56040518163ffffffff1660e01b8152600401602060405180830381865afa158015611010573d5f5f3e3d5ffd5b505050506040513d601f19601f820116820180604052508101906110349190611535565b6040516326f8aa2160e21b8152600481018590526001600160a01b0384811660248301523060448301529190911690639be2a88490606401602060405180830381865afa158015611087573d5f5f3e3d5ffd5b505050506040513d601f19601f82011682018060405250810190610d469190611550565b5f8181526001830160205260408120548015611185575f6110cd600183611522565b85549091505f906110e090600190611522565b905080821461113f575f865f0182815481106110fe576110fe6114e1565b905f5260205f200154905080875f01848154811061111e5761111e6114e1565b5f918252602080832090910192909255918252600188019052604090208390555b855486908061115057611150611587565b600190038181905f5260205f20015f90559055856001015f8681526020019081526020015f205f905560019350505050610d49565b5f915050610d49565b5f825f0182815481106111a3576111a36114e1565b905f5260205f200154905092915050565b6060815f0180548060200260200160405190810160405280929190818152602001828054801561120157602002820191905f5260205f20905b8154815260200190600101908083116111ed575b50505050509050919050565b5f6112188383610f74565b61124d57508154600181810184555f848152602080822090930184905584548482528286019093526040902091909155610d49565b505f610d49565b5080545f8255905f5260205f209081019061076191905b8082111561127e575f815560010161126b565b5090565b6001600160a01b0381168114610761575f5ffd5b80356112a181611282565b919050565b5f5f604083850312156112b7575f5ffd5b82356112c281611282565b946020939093013593505050565b5f602082840312156112e0575f5ffd5b5035919050565b5f602082840312156112f7575f5ffd5b813561070b81611282565b634e487b7160e01b5f52604160045260245ffd5b5f82601f830112611325575f5ffd5b81356001600160401b0381111561133e5761133e611302565b604051600582901b90603f8201601f191681016001600160401b038111828210171561136c5761136c611302565b604052918252602081850181019290810186841115611389575f5ffd5b6020860192505b838310156113af576113a183611296565b815260209283019201611390565b5095945050505050565b5f5f604083850312156113ca575f5ffd5b8235915060208301356001600160401b038111156113e6575f5ffd5b6113f285828601611316565b9150509250929050565b5f5f6040838503121561140d575f5ffd5b823561141881611282565b915060208301356001600160401b038111156113e6575f5ffd5b5f60208284031215611442575f5ffd5b81356001600160e01b03198116811461070b575f5ffd5b5f5f5f6060848603121561146b575f5ffd5b505081359360208301359350604090920135919050565b602080825282518282018190525f918401906040840190835b818110156114c25783516001600160a01b031683526020938401939092019160010161149b565b509095945050505050565b6001600160a01b0391909116815260200190565b634e487b7160e01b5f52603260045260245ffd5b6001600160a01b03929092168252602082015260400190565b634e487b7160e01b5f52601160045260245ffd5b81810381811115610d4957610d4961150e565b5f60208284031215611545575f5ffd5b815161070b81611282565b5f60208284031215611560575f5ffd5b8151801515811461070b575f5ffd5b5f600182016115805761158061150e565b5060010190565b634e487b7160e01b5f52603160045260245ffdfee632b6be71c5c7f5d98ba00da8b648a72422f750973138bc6474de6fe711b66ea2646970667358221220b7976f92ea1dde083d3da2060cd5bebdabd83d1cf4b6f6c0c5d7f99a651dc11564736f6c634300081e0033","linkReferences":{}},"methodIdentifiers":{"acceptOwnership()":"79ba5097","addPoolsToSet(uint256,address[])":"ebf3a8d0","cancelOwnershipHandover()":"54d1f13d","completeOwnershipHandover(address)":"f04e283e","createPoolSet(address)":"e909c19b","createPoolSet(address,address[])":"3e035f9b","destroyPoolSet(uint256)":"7c1ec460","forceTransferOwnership(address)":"a89b1128","getActionId(bytes4)":"851c1bb3","getAllPoolsInSet(uint256)":"94fc4058","getAuthorizer()":"aaabadc5","getManagerForPoolSet(uint256)":"f167a1e6","getNextPoolSetId()":"c482e822","getPoolCountForSet(uint256)":"62d53462","getPoolSetIdForCaller()":"ce998aba","getPoolSetIdForManager(address)":"25c427ed","getPoolsInSet(uint256,uint256,uint256)":"8c60ebd0","isPoolInSet(address,uint256)":"182551da","isValidPoolSetId(uint256)":"255dae41","owner()":"8da5cb5b","ownershipHandoverExpiresAt(address)":"fee81cf4","pendingOwner()":"e30c3978","removePoolsFromSet(uint256,address[])":"2da55a1d","renounceOwnership()":"715018a6","requestOwnershipHandover()":"25692962","transferOwnership(address)":"f2fde38b","transferPoolSetOwnership(address)":"3700f987","vault()":"fbfa77cf"},"id":320}