{"abi":[{"type":"constructor","inputs":[{"name":"_factory","type":"address","internalType":"address"}],"stateMutability":"nonpayable"},{"type":"function","name":"DEFAULT_FEE","inputs":[],"outputs":[{"name":"","type":"uint24","internalType":"uint24"}],"stateMutability":"view"},{"type":"function","name":"MAX_FEE","inputs":[],"outputs":[{"name":"","type":"uint256","internalType":"uint256"}],"stateMutability":"view"},{"type":"function","name":"ZERO_FEE_INDICATOR","inputs":[],"outputs":[{"name":"","type":"uint256","internalType":"uint256"}],"stateMutability":"view"},{"type":"function","name":"customFee","inputs":[{"name":"","type":"address","internalType":"address"}],"outputs":[{"name":"","type":"uint24","internalType":"uint24"}],"stateMutability":"view"},{"type":"function","name":"factory","inputs":[],"outputs":[{"name":"","type":"address","internalType":"contract ICLFactory"}],"stateMutability":"view"},{"type":"function","name":"getFee","inputs":[{"name":"_pool","type":"address","internalType":"address"}],"outputs":[{"name":"","type":"uint24","internalType":"uint24"}],"stateMutability":"view"},{"type":"function","name":"setCustomFee","inputs":[{"name":"_pool","type":"address","internalType":"address"},{"name":"_fee","type":"uint24","internalType":"uint24"}],"outputs":[],"stateMutability":"nonpayable"},{"type":"event","name":"CustomFeeSet","inputs":[{"name":"pool","type":"address","indexed":true,"internalType":"address"},{"name":"fee","type":"uint24","indexed":true,"internalType":"uint24"}],"anonymous":false}],"bytecode":{"object":"0x60a0604052348015600e575f5ffd5b5060405161055f38038061055f833981016040819052602b91603b565b6001600160a01b03166080526066565b5f60208284031215604a575f5ffd5b81516001600160a01b0381168114605f575f5ffd5b9392505050565b6080516104d361008c5f395f818161010401528181610135015261028201526104d35ff3fe608060405234801561000f575f5ffd5b506004361061006b575f3560e01c806338c55d461461006f5780634d419abc1461008b5780634fcc1def146100c3578063a89196b6146100cd578063b88c9148146100e2578063bc063e1a146100f5578063c45a0155146100ff575b5f5ffd5b6100786101a481565b6040519081526020015b60405180910390f35b6100af6100993660046103ef565b5f6020819052908152604090205462ffffff1681565b60405162ffffff9091168152602001610082565b6100af620186a081565b6100e06100db366004610411565b610133565b005b6100af6100f03660046103ef565b61038d565b6100786207a12081565b6101267f000000000000000000000000000000000000000000000000000000000000000081565b604051610082919061044f565b7f00000000000000000000000000000000000000000000000000000000000000006001600160a01b03166382e189e06040518163ffffffff1660e01b8152600401602060405180830381865afa15801561018f573d5f5f3e3d5ffd5b505050506040513d601f19601f820116820180604052508101906101b39190610463565b6001600160a01b0316336001600160a01b0316146102135760405162461bcd60e51b81526020600482015260186024820152772737ba103ab739ba30b5b2b2103332b29036b0b730b3b2b960411b60448201526064015b60405180910390fd5b6207a1208162ffffff1611158061023057506101a48162ffffff16145b61026b5760405162461bcd60e51b815260206004820152600c60248201526b08ccaca40e8dede40d0d2ced60a31b604482015260640161020a565b604051635b16ebb760e01b81526001600160a01b037f00000000000000000000000000000000000000000000000000000000000000001690635b16ebb7906102b790859060040161044f565b602060405180830381865afa1580156102d2573d5f5f3e3d5ffd5b505050506040513d601f19601f820116820180604052508101906102f6919061047e565b6103355760405162461bcd60e51b815260206004820152601060248201526f139bdd0818481d985b1a59081c1bdbdb60821b604482015260640161020a565b6001600160a01b0382165f81815260208190526040808220805462ffffff191662ffffff861690811790915590519092917fe2150e4054ad34f299189d809c507f52c0c572bfef0504af03f43be0870cd35491a35050565b6001600160a01b0381165f9081526020819052604081205462ffffff166101a31981016103bc57505f92915050565b62ffffff8116156103cd5792915050565b50620186a092915050565b6001600160a01b03811681146103ec575f5ffd5b50565b5f602082840312156103ff575f5ffd5b813561040a816103d8565b9392505050565b5f5f60408385031215610422575f5ffd5b823561042d816103d8565b9150602083013562ffffff81168114610444575f5ffd5b809150509250929050565b6001600160a01b0391909116815260200190565b5f60208284031215610473575f5ffd5b815161040a816103d8565b5f6020828403121561048e575f5ffd5b8151801515811461040a575f5ffdfea264697066735822122025fd5c9fb8500276d5ca20d55bdc2e78454f1c1f2eb7ecb765a34f3025535f6264736f6c634300081e0033","linkReferences":{}},"methodIdentifiers":{"DEFAULT_FEE()":"4fcc1def","MAX_FEE()":"bc063e1a","ZERO_FEE_INDICATOR()":"38c55d46","customFee(address)":"4d419abc","factory()":"c45a0155","getFee(address)":"b88c9148","setCustomFee(address,uint24)":"a89196b6"},"id":769}