{"abi":[{"type":"function","name":"computeBalance","inputs":[{"name":"balancesLiveScaled18","type":"uint256[]","internalType":"uint256[]"},{"name":"tokenInIndex","type":"uint256","internalType":"uint256"},{"name":"invariantRatio","type":"uint256","internalType":"uint256"}],"outputs":[{"name":"newBalance","type":"uint256","internalType":"uint256"}],"stateMutability":"view"},{"type":"function","name":"computeInvariant","inputs":[{"name":"balancesLiveScaled18","type":"uint256[]","internalType":"uint256[]"},{"name":"rounding","type":"uint8","internalType":"enum Rounding"}],"outputs":[{"name":"invariant","type":"uint256","internalType":"uint256"}],"stateMutability":"view"},{"type":"function","name":"facetFuncs","inputs":[],"outputs":[{"name":"funcs","type":"bytes4[]","internalType":"bytes4[]"}],"stateMutability":"pure"},{"type":"function","name":"facetInterfaces","inputs":[],"outputs":[{"name":"interfaces","type":"bytes4[]","internalType":"bytes4[]"}],"stateMutability":"pure"},{"type":"function","name":"facetMetadata","inputs":[],"outputs":[{"name":"name_","type":"string","internalType":"string"},{"name":"interfaces","type":"bytes4[]","internalType":"bytes4[]"},{"name":"functions","type":"bytes4[]","internalType":"bytes4[]"}],"stateMutability":"pure"},{"type":"function","name":"facetName","inputs":[],"outputs":[{"name":"name","type":"string","internalType":"string"}],"stateMutability":"pure"},{"type":"function","name":"getNormalizedWeights","inputs":[],"outputs":[{"name":"weights","type":"uint256[]","internalType":"uint256[]"}],"stateMutability":"view"},{"type":"function","name":"onSwap","inputs":[{"name":"params","type":"tuple","internalType":"struct PoolSwapParams","components":[{"name":"kind","type":"uint8","internalType":"enum SwapKind"},{"name":"amountGivenScaled18","type":"uint256","internalType":"uint256"},{"name":"balancesScaled18","type":"uint256[]","internalType":"uint256[]"},{"name":"indexIn","type":"uint256","internalType":"uint256"},{"name":"indexOut","type":"uint256","internalType":"uint256"},{"name":"router","type":"address","internalType":"address"},{"name":"userData","type":"bytes","internalType":"bytes"}]}],"outputs":[{"name":"amountCalculatedScaled18","type":"uint256","internalType":"uint256"}],"stateMutability":"view"},{"type":"error","name":"BaseOutOfBounds","inputs":[]},{"type":"error","name":"ExponentOutOfBounds","inputs":[]},{"type":"error","name":"InvalidExponent","inputs":[]},{"type":"error","name":"MaxInRatio","inputs":[]},{"type":"error","name":"MaxOutRatio","inputs":[]},{"type":"error","name":"ProductOutOfBounds","inputs":[]},{"type":"error","name":"ZeroDivision","inputs":[]},{"type":"error","name":"ZeroInvariant","inputs":[]}],"bytecode":{"object":"0x6080604052348015600e575f5ffd5b506117c78061001c5f395ff3fe608060405234801561000f575f5ffd5b5060043610610076575f3560e01c806316a0b3e01461007a5780632ea80826146100a0578063574a4cff146100b55780635b6f4d01146100bd57806372c98186146100d2578063984de9e8146100e5578063f10d7a75146100f8578063f89f27ed1461010f575b5f5ffd5b61008d61008836600461147e565b610124565b6040519081526020015b60405180910390f35b6100a8610176565b604051610097919061150b565b6100a8610209565b6100c56102ea565b604051610097919061154b565b61008d6100e036600461155d565b61031f565b61008d6100f33660046115a2565b610431565b61010061047b565b604051610097939291906115f0565b6101176104a3565b6040516100979190611628565b5f5f61012e6104b2565b905061016d8585815181106101455761014561166a565b602002602001015182868151811061015f5761015f61166a565b6020026020010151856104dd565b95945050505050565b6040805160028082526060808301845292602083019080368337019050509050637e126dc760e11b815f815181106101b0576101b061166a565b60200260200101906001600160e01b03191690816001600160e01b0319168152505063f89f27ed60e01b816001815181106101ed576101ed61166a565b6001600160e01b03199092166020928302919091019091015290565b60408051600480825260a082019092526060916020820160808036833701905050905063984de9e860e01b815f815181106102465761024661166a565b6001600160e01b031990921660209283029190910190910152805162b5059f60e51b908290600190811061027c5761027c61166a565b6001600160e01b0319909216602092830291909101909101528051633964c0c360e11b90829060029081106102b3576102b361166a565b6001600160e01b031990921660209283029190910190910152805163f89f27ed60e01b90829060039081106101ed576101ed61166a565b60408051808201909152601b81527a10985b185b98d95c958cd5d95a59da1d1959141bdbdb119858d95d602a1b602082015290565b5f5f6103296104b2565b90505f610339604085018561167e565b856060013581811061034d5761034d61166a565b9050602002013590505f848060400190610367919061167e565b866080013581811061037b5761037b61166a565b9050602002013590505f8386606001358151811061039b5761039b61166a565b602002602001015190505f848760800135815181106103bc576103bc61166a565b602002602001015190505f60018111156103d8576103d86116ca565b6103e560208901896116de565b60018111156103f6576103f66116ca565b036104135761040c848385848b60200135610535565b9550610427565b610424848385848b602001356105c4565b95505b5050505050919050565b5f5f61043b6104b2565b90506001836001811115610451576104516116ca565b03610467576104608185610647565b9150610474565b61047181856106db565b91505b5092915050565b60608060606104886102ea565b9250610492610176565b915061049c610209565b9050909192565b60606104ad6104b2565b905090565b60606104ad7f0b1f699f9a8cb016dcd6d3f4119ffc688f82df3a97972f71dfa812f53cb486a3610748565b5f6113c4670de0b6b3a764000083116104f8576107a16104fc565b6107c15b90505f61051f610518670de0b6b3a7640000878563ffffffff16565b85906107dc565b905061052b868261088f565b9695505050505050565b5f61054886670429d069189e00006108bb565b8211156105685760405163340a453360e01b815260040160405180910390fd5b5f610573838861170d565b90505f61058088836107c1565b90505f61058d88876107a1565b90505f61059a83836107dc565b90506105b6670de0b6b3a76400008281039083100289906108bb565b9a9950505050505050505050565b5f6105d784670429d069189e00006108bb565b8211156105f7576040516364590b9f60e01b815260040160405180910390fd5b5f61060c6106058487611720565b86906107c1565b90505f61061985886107c1565b90505f61062683836107dc565b90505f61063b670de0b6b3a764000083611720565b90506105b68a8261088f565b670de0b6b3a76400005f5b83518110156106b4576106aa6106a38583815181106106735761067361166a565b602002602001015185848151811061068d5761068d61166a565b60200260200101516108db90919063ffffffff16565b83906108bb565b9150600101610652565b50805f036106d557604051632654368960e01b815260040160405180910390fd5b92915050565b670de0b6b3a76400005f5b83518110156106b45761073e6107378583815181106107075761070761166a565b60200260200101518584815181106107215761072161166a565b60200260200101516107dc90919063ffffffff16565b839061088f565b91506001016106e6565b6060815f0180548060200260200160405190810160405280929190818152602001828054801561079557602002820191905f5260205f20905b815481526020019060010190808311610781575b50505050509050919050565b5f806107b5670de0b6b3a764000085611733565b9050610471838261175e565b5f6107d583670de0b6b3a764000084610987565b9392505050565b5f670de0b6b3a764000082036107f35750816106d5565b610806670de0b6b3a76400006002611733565b820361081d57610816838461088f565b90506106d5565b610830670de0b6b3a76400006004611733565b8203610855575f610841848561088f565b905061084d818261088f565b9150506106d5565b5f61086084846109cc565b90505f61086f8261271061088f565b61087a90600161170d565b9050610886818361170d565b925050506106d5565b5f8061089b8385611733565b90506001670de0b6b3a76400006001830304018115150291505092915050565b5f806108c78385611733565b9050610471670de0b6b3a76400008261175e565b5f670de0b6b3a764000082036108f25750816106d5565b610905670de0b6b3a76400006002611733565b82036109155761081683846108bb565b610928670de0b6b3a76400006004611733565b8203610945575f61093984856108bb565b905061084d81826108bb565b5f61095084846109cc565b90505f61095f8261271061088f565b61096a90600161170d565b90508082101561097e575f925050506106d5565b900390506106d5565b5f815f036109a857604051630a0c22c760e01b815260040160405180910390fd5b5f6109b38486611733565b9050600183600183030401811515029150509392505050565b5f815f036109e35750670de0b6b3a76400006106d5565b825f036109f157505f6106d5565b60ff83901c15610a13576040516211380f60e51b815260040160405180910390fd5b82610a2b68056bc75e2d63100000600160fe1b61175e565b8310610a4a5760405163d831731160e01b815260040160405180910390fd5b825f670c7d713b49da000083138015610a6a5750670f43fc2c04ee000083125b15610aa0575f610a7984610b02565b9050670de0b6b3a764000080820784020583670de0b6b3a764000083050201915050610aae565b81610aaa84610c1f565b0290505b670de0b6b3a76400009005680238fd42c5cf03ffff198112801590610adc575068070c1cc73b00c800008113155b610af95760405163a2f9f7e360e01b815260040160405180910390fd5b61052b81610fc9565b670de0b6b3a7640000025f806a0c097ce7bc90715b34b9f160241b808401906ec097ce7bc90715b34b9f0fffffffff1985010281610b4257610b4261174a565b0590505f6a0c097ce7bc90715b34b9f160241b82800205905081806a0c097ce7bc90715b34b9f160241b81840205915060038205016a0c097ce7bc90715b34b9f160241b82840205915060058205016a0c097ce7bc90715b34b9f160241b82840205915060078205016a0c097ce7bc90715b34b9f160241b82840205915060098205016a0c097ce7bc90715b34b9f160241b828402059150600b8205016a0c097ce7bc90715b34b9f160241b828402059150600d8205016a0c097ce7bc90715b34b9f160241b828402059150600f82050160020295945050505050565b5f80670de0b6b3a7640000831215610c5657826a0c097ce7bc90715b34b9f160241b81610c4e57610c4e61174a565b059250600190505b5f775803bcc5cb9634ba4cfb2213f784019318ed4dcb6017880f60361b8412610ca05772195e54c5dd42177f53a27172fa9ec63026282760241b840593506806f05b59d3b2000000015b6f8bcc0026baae9e45e470190267a230cf60191b8412610cd7576b1425982cf597cd205cef7380840593506803782dace9d9000000015b606493840293026e01855144814a7ff805980ff00840008412610d1f576e01855144814a7ff805980ff008400068056bc75e2d63100000850205935068ad78ebc5ac62000000015b6b02df0ab5a80a22c61ab5a7008412610d5a576b02df0ab5a80a22c61ab5a70068056bc75e2d6310000085020593506856bc75e2d631000000015b693f1fce3da636ea5cf8508412610d9157693f1fce3da636ea5cf85068056bc75e2d631000008502059350682b5e3af16b18800000015b690127fa27722cc06cc5e28412610dc857690127fa27722cc06cc5e268056bc75e2d6310000085020593506815af1d78b58c400000015b68280e60114edb805d038412610dfd5768280e60114edb805d0368056bc75e2d631000008502059350680ad78ebc5ac6200000015b680ebc5fb417461211108412610e2857680ebc5fb4174612111068056bc75e2d631000009485020593015b6808f00f760a4b2db55d8412610e5d576808f00f760a4b2db55d68056bc75e2d6310000085020593506802b5e3af16b1880000015b6806f5f17757889379378412610e92576806f5f177578893793768056bc75e2d63100000850205935068015af1d78b58c40000015b6806248f33704b2866038412610ec6576806248f33704b28660368056bc75e2d63100000850205935067ad78ebc5ac620000015b6805c548670b9510e7ac8412610efa576805c548670b9510e7ac68056bc75e2d6310000085020593506756bc75e2d6310000015b5f68056bc75e2d63100000850168056bc75e2d631000008087030281610f2257610f2261174a565b0590505f68056bc75e2d63100000828002059050818068056bc75e2d63100000818402059150600382050168056bc75e2d63100000828402059150600582050168056bc75e2d63100000828402059150600782050168056bc75e2d63100000828402059150600982050168056bc75e2d63100000828402059150600b8205016002025f606486830105905086610fb85780610fbc565b805f035b9998505050505050505050565b5f680238fd42c5cf03ffff198212158015610fed575068070c1cc73b00c800008213155b61100a5760405163d4794efd60e01b815260040160405180910390fd5b5f8083121561101d57825f039250600190505b5f6806f05b59d3b2000000841261105a57506806f05b59d3b1ffffff199092019172195e54c5dd42177f53a27172fa9ec63026282760241b611090565b6803782dace9d9000000841261108c57506803782dace9d8ffffff19909201916b1425982cf597cd205cef7380611090565b5060015b6064939093029268056bc75e2d6310000068ad78ebc5ac6200000085126110e05768ad78ebc5ac61ffffff199094019368056bc75e2d631000006e01855144814a7ff805980ff008400082020590505b6856bc75e2d631000000851261111c576856bc75e2d630ffffff199094019368056bc75e2d631000006b02df0ab5a80a22c61ab5a70082020590505b682b5e3af16b18800000851261115657682b5e3af16b187fffff199094019368056bc75e2d63100000693f1fce3da636ea5cf85082020590505b6815af1d78b58c4000008512611190576815af1d78b58c3fffff199094019368056bc75e2d63100000690127fa27722cc06cc5e282020590505b680ad78ebc5ac620000085126111c957680ad78ebc5ac61fffff199094019368056bc75e2d6310000068280e60114edb805d0382020590505b68056bc75e2d6310000085126112025768056bc75e2d630fffff199094019368056bc75e2d63100000680ebc5fb4174612111082020590505b6802b5e3af16b1880000851261123b576802b5e3af16b187ffff199094019368056bc75e2d631000006808f00f760a4b2db55d82020590505b68015af1d78b58c4000085126112745768015af1d78b58c3ffff199094019368056bc75e2d631000006806f5f177578893793782020590505b68056bc75e2d631000008581019086906002908280020505918201919050600368056bc75e2d631000008883020505918201919050600468056bc75e2d631000008883020505918201919050600568056bc75e2d631000008883020505918201919050600668056bc75e2d631000008883020505918201919050600768056bc75e2d631000008883020505918201919050600868056bc75e2d631000008883020505918201919050600968056bc75e2d631000008883020505918201919050600a68056bc75e2d631000008883020505918201919050600b68056bc75e2d631000008883020505918201919050600c68056bc75e2d6310000088830205059182019190505f606468056bc75e2d631000008585020586020590508561139957806113b8565b806a0c097ce7bc90715b34b9f160241b816113b6576113b661174a565b055b98975050505050505050565b6113cc61177d565b565b634e487b7160e01b5f52604160045260245ffd5b5f82601f8301126113f1575f5ffd5b81356001600160401b0381111561140a5761140a6113ce565b604051600582901b90603f8201601f191681016001600160401b0381118282101715611438576114386113ce565b604052918252602081850181019290810186841115611455575f5ffd5b6020860192505b8383101561147457823581526020928301920161145c565b5095945050505050565b5f5f5f60608486031215611490575f5ffd5b83356001600160401b038111156114a5575f5ffd5b6114b1868287016113e2565b9660208601359650604090950135949350505050565b5f8151808452602084019350602083015f5b828110156115015781516001600160e01b0319168652602095860195909101906001016114d9565b5093949350505050565b602081525f6107d560208301846114c7565b5f81518084528060208401602086015e5f602082860101526020601f19601f83011685010191505092915050565b602081525f6107d5602083018461151d565b5f6020828403121561156d575f5ffd5b81356001600160401b03811115611582575f5ffd5b820160e081850312156107d5575f5ffd5b6002811061159f575f5ffd5b50565b5f5f604083850312156115b3575f5ffd5b82356001600160401b038111156115c8575f5ffd5b6115d4858286016113e2565b92505060208301356115e581611593565b809150509250929050565b606081525f611602606083018661151d565b828103602084015261161481866114c7565b9050828103604084015261052b81856114c7565b602080825282518282018190525f918401906040840190835b8181101561165f578351835260209384019390920191600101611641565b509095945050505050565b634e487b7160e01b5f52603260045260245ffd5b5f5f8335601e19843603018112611693575f5ffd5b8301803591506001600160401b038211156116ac575f5ffd5b6020019150600581901b36038213156116c3575f5ffd5b9250929050565b634e487b7160e01b5f52602160045260245ffd5b5f602082840312156116ee575f5ffd5b81356107d581611593565b634e487b7160e01b5f52601160045260245ffd5b808201808211156106d5576106d56116f9565b818103818111156106d5576106d56116f9565b80820281158282048414176106d5576106d56116f9565b634e487b7160e01b5f52601260045260245ffd5b5f8261177857634e487b7160e01b5f52601260045260245ffd5b500490565b634e487b7160e01b5f52605160045260245ffdfea2646970667358221220e64b67879ed2b7149f544f8eed040bd61bdd94c82176d35879726362652a518f64736f6c634300081e0033","linkReferences":{}},"methodIdentifiers":{"computeBalance(uint256[],uint256,uint256)":"16a0b3e0","computeInvariant(uint256[],uint8)":"984de9e8","facetFuncs()":"574a4cff","facetInterfaces()":"2ea80826","facetMetadata()":"f10d7a75","facetName()":"5b6f4d01","getNormalizedWeights()":"f89f27ed","onSwap((uint8,uint256,uint256[],uint256,uint256,address,bytes))":"72c98186"},"id":882}