{"abi":[{"type":"function","name":"callAndRevertHook","inputs":[{"name":"target","type":"address","internalType":"address"},{"name":"data","type":"bytes","internalType":"bytes"}],"outputs":[],"stateMutability":"nonpayable"},{"type":"error","name":"AddressEmptyCode","inputs":[{"name":"target","type":"address","internalType":"address"}]},{"type":"error","name":"ErrorSelectorNotFound","inputs":[]},{"type":"error","name":"FailedCall","inputs":[]},{"type":"error","name":"QuoteResultSpoofed","inputs":[]},{"type":"error","name":"Result","inputs":[{"name":"result","type":"bytes","internalType":"bytes"}]}],"bytecode":{"object":"0x6080604052348015600e575f5ffd5b506103628061001c5f395ff3fe608060405234801561000f575f5ffd5b5060043610610029575f3560e01c8063a76996381461002d575b5f5ffd5b61004061003b366004610213565b610042565b005b5f5f836001600160a01b03168360405161005c91906102e1565b5f604051808303815f865af19150503d805f8114610095576040519150601f19603f3d011682016040523d82523d5f602084013e61009a565b606091505b509150915081156100d5576100b0338383610122565b5080604051630b56c9f760e31b81526004016100cc91906102f7565b60405180910390fd5b5f6100df82610181565b90506314a9360960e31b6001600160e01b0319821601610112576040516328f9554160e01b815260040160405180910390fd5b61011b826101ad565b5050505050565b60608261013757610132826101d6565b61017a565b815115801561014e57506001600160a01b0384163b155b1561017757604051639996b31560e01b81526001600160a01b03851660048201526024016100cc565b50805b9392505050565b5f6004825110156101a55760405163a728568960e01b815260040160405180910390fd5b506020015190565b8051156101bd5780518082602001fd5b60405163a728568960e01b815260040160405180910390fd5b8051156101e65780518082602001fd5b60405163d6bda27560e01b815260040160405180910390fd5b634e487b7160e01b5f52604160045260245ffd5b5f5f60408385031215610224575f5ffd5b82356001600160a01b038116811461023a575f5ffd5b915060208301356001600160401b03811115610254575f5ffd5b8301601f81018513610264575f5ffd5b80356001600160401b0381111561027d5761027d6101ff565b604051601f8201601f19908116603f011681016001600160401b03811182821017156102ab576102ab6101ff565b6040528181528282016020018710156102c2575f5ffd5b816020840160208301375f602083830101528093505050509250929050565b5f82518060208501845e5f920191825250919050565b602081525f82518060208401528060208501604085015e5f604082850101526040601f19601f8301168401019150509291505056fea2646970667358221220cc6368cce0e25cd30d98143f7f81ff174e8e978f9e478f792d28e6e4be9b5a1e64736f6c634300081e0033","linkReferences":{}},"methodIdentifiers":{"callAndRevertHook(address,bytes)":"a7699638"},"id":303}