{"abi":[{"type":"constructor","inputs":[{"name":"pkgInit","type":"tuple","internalType":"struct IERC4626PermitDFPkg.PkgInit","components":[{"name":"erc20Facet","type":"address","internalType":"contract IFacet"},{"name":"erc5267Facet","type":"address","internalType":"contract IFacet"},{"name":"erc2612Facet","type":"address","internalType":"contract IFacet"},{"name":"erc4626Facet","type":"address","internalType":"contract IFacet"}]}],"stateMutability":"nonpayable"},{"type":"function","name":"calcSalt","inputs":[{"name":"pkgArgs","type":"bytes","internalType":"bytes"}],"outputs":[{"name":"salt","type":"bytes32","internalType":"bytes32"}],"stateMutability":"pure"},{"type":"function","name":"diamondConfig","inputs":[],"outputs":[{"name":"config","type":"tuple","internalType":"struct IDiamondFactoryPackage.DiamondConfig","components":[{"name":"facetCuts","type":"tuple[]","internalType":"struct IDiamond.FacetCut[]","components":[{"name":"facetAddress","type":"address","internalType":"address"},{"name":"action","type":"uint8","internalType":"enum IDiamond.FacetCutAction"},{"name":"functionSelectors","type":"bytes4[]","internalType":"bytes4[]"}]},{"name":"interfaces","type":"bytes4[]","internalType":"bytes4[]"}]}],"stateMutability":"view"},{"type":"function","name":"facetAddresses","inputs":[],"outputs":[{"name":"facetAddresses_","type":"address[]","internalType":"address[]"}],"stateMutability":"view"},{"type":"function","name":"facetCuts","inputs":[],"outputs":[{"name":"facetCuts_","type":"tuple[]","internalType":"struct IDiamond.FacetCut[]","components":[{"name":"facetAddress","type":"address","internalType":"address"},{"name":"action","type":"uint8","internalType":"enum IDiamond.FacetCutAction"},{"name":"functionSelectors","type":"bytes4[]","internalType":"bytes4[]"}]}],"stateMutability":"view"},{"type":"function","name":"facetInterfaces","inputs":[],"outputs":[{"name":"interfaces","type":"bytes4[]","internalType":"bytes4[]"}],"stateMutability":"pure"},{"type":"function","name":"initAccount","inputs":[{"name":"initArgs","type":"bytes","internalType":"bytes"}],"outputs":[],"stateMutability":"nonpayable"},{"type":"function","name":"packageMetadata","inputs":[],"outputs":[{"name":"name_","type":"string","internalType":"string"},{"name":"interfaces","type":"bytes4[]","internalType":"bytes4[]"},{"name":"facets","type":"address[]","internalType":"address[]"}],"stateMutability":"view"},{"type":"function","name":"packageName","inputs":[],"outputs":[{"name":"name_","type":"string","internalType":"string"}],"stateMutability":"pure"},{"type":"function","name":"postDeploy","inputs":[{"name":"proxy","type":"address","internalType":"address"}],"outputs":[{"name":"","type":"bool","internalType":"bool"}],"stateMutability":"nonpayable"},{"type":"function","name":"processArgs","inputs":[{"name":"pkgArgs","type":"bytes","internalType":"bytes"}],"outputs":[{"name":"","type":"bytes","internalType":"bytes"}],"stateMutability":"pure"},{"type":"function","name":"updatePkg","inputs":[{"name":"","type":"address","internalType":"address"},{"name":"","type":"bytes","internalType":"bytes"}],"outputs":[{"name":"","type":"bool","internalType":"bool"}],"stateMutability":"nonpayable"},{"type":"event","name":"Deposit","inputs":[{"name":"sender","type":"address","indexed":true,"internalType":"address"},{"name":"owner","type":"address","indexed":true,"internalType":"address"},{"name":"assets","type":"uint256","indexed":false,"internalType":"uint256"},{"name":"shares","type":"uint256","indexed":false,"internalType":"uint256"}],"anonymous":false},{"type":"event","name":"Transfer","inputs":[{"name":"from","type":"address","indexed":true,"internalType":"address"},{"name":"to","type":"address","indexed":true,"internalType":"address"},{"name":"amount","type":"uint256","indexed":false,"internalType":"uint256"}],"anonymous":false},{"type":"error","name":"NoDepositor","inputs":[]},{"type":"error","name":"NoRecipient","inputs":[]},{"type":"error","name":"NoReserveAsset","inputs":[]},{"type":"error","name":"StringTooLong","inputs":[{"name":"str","type":"string","internalType":"string"}]}],"bytecode":{"object":"0x610100604052348015610010575f5ffd5b5060405161213e38038061213e83398101604081905261002f9161007d565b80516001600160a01b039081166080526020820151811660a0526040820151811660c0526060909101511660e052610105565b80516001600160a01b0381168114610078575f5ffd5b919050565b5f608082840312801561008e575f5ffd5b50604051608081016001600160401b03811182821017156100bd57634e487b7160e01b5f52604160045260245ffd5b6040526100c983610062565b81526100d760208401610062565b60208201526100e860408401610062565b60408201526100f960608401610062565b60608201529392505050565b60805160a05160c05160e051611fce6101705f395f818161044701528181610c3a0152610c8001525f81816103f301528181610b460152610b8c01525f818161039f01528181610a520152610a9801525f818161034c0152818161097401526109a50152611fce5ff3fe608060405234801561000f575f5ffd5b5060043610610097575f3560e01c80632ea808261461009b57806352ef6b2c146100b957806365d375b3146100ce57806370068fcf146100e3578063870d48381461010657806387c3adb31461011b578063a4b3ad351461013b578063a908923514610150578063abc8b34614610163578063d82be56e1461016b578063f45469e71461018c575b5f5ffd5b6100a36101a3565b6040516100b09190611538565b60405180910390f35b6100c1610327565b6040516100b09190611583565b6100d661049c565b6040516100b091906115a9565b6100f66100f1366004611689565b6104d7565b60405190151581526020016100b0565b610119610114366004611788565b610724565b005b61012e610129366004611788565b6108c0565b6040516100b091906117e7565b610143610919565b6040516100b091906117f9565b6100f661015e3660046118a4565b610d24565b61012e610d2d565b61017e610179366004611788565b610d59565b6040519081526020016100b0565b610194610dbe565b6040516100b0939291906118f0565b60408051600680825260e082019092526060916020820160c0803683370190505090506336372b0760e01b815f815181106101e0576101e0611928565b60200260200101906001600160e01b03191690816001600160e01b0319168152505063a219a02560e01b8160018151811061021d5761021d611928565b6001600160e01b0319909216602092830291909101909101528051634a17459160e11b908290600290811061025457610254611928565b60200260200101906001600160e01b03191690816001600160e01b03191681525050634ec7fbed60e11b8160038151811061029157610291611928565b60200260200101906001600160e01b03191690816001600160e01b031916815250506342580cb760e11b816004815181106102ce576102ce611928565b60200260200101906001600160e01b03191690816001600160e01b0319168152505063043eff2d60e51b8160058151811061030b5761030b611928565b6001600160e01b03199092166020928302919091019091015290565b60408051600480825260a08201909252606091602082016080803683370190505090507f0000000000000000000000000000000000000000000000000000000000000000815f8151811061037d5761037d611928565b60200260200101906001600160a01b031690816001600160a01b0316815250507f0000000000000000000000000000000000000000000000000000000000000000816001815181106103d1576103d1611928565b60200260200101906001600160a01b031690816001600160a01b0316815250507f00000000000000000000000000000000000000000000000000000000000000008160028151811061042557610425611928565b60200260200101906001600160a01b031690816001600160a01b0316815250507f00000000000000000000000000000000000000000000000000000000000000008160038151811061047957610479611928565b60200260200101906001600160a01b031690816001600160a01b03168152505090565b604080518082019091526060808252602082015260405180604001604052806104c3610919565b81526020016104d06101a3565b9052919050565b5f306001600160a01b0383161461054f57816001600160a01b031663ba5b83ec6040518163ffffffff1660e01b81526004016020604051808303815f875af1158015610525573d5f5f3e3d5ffd5b505050506040513d601f19601f82011682018060405250810190610549919061193c565b5061071c565b6001600160a01b038216300361071c575f61059261058e6040516020016105759061195b565b6040516020818303038152906040528051906020012090565b5c90565b9050801561071a576105a2610de6565b5f6105b861058e604051602001610575906119a5565b90505f6105c3610dff565b90505f6105d782546001600160a01b031690565b90506105ee6001600160a01b038216843087610e28565b506040516370a0823160e01b81523060048201526001600160a01b038216906370a0823190602401602060405180830381865afa158015610631573d5f5f3e3d5ffd5b505050506040513d601f19601f8201168201806040525081019061065591906119ea565b93505f61066d61058e60405160200161057590611a01565b90505f610678610e49565b90505f610686826003015490565b90505f6106a7885f846106a28a5460ff600160a81b9091041690565b610e7b565b90506106b4838583610e92565b836001600160a01b0316876001600160a01b03167fdcbc1c05240f31ff3ad067ef1ee35ce4997762752e3a095284754544f4c709d78a84604051610702929190918252602082015260400190565b60405180910390a3610712610f1f565b505050505050505b505b506001919050565b5f818060200190518101906107399190611a56565b905080606001515f146107f05760808101516001600160a01b03166107715760405163272aea4960e21b815260040160405180910390fd5b60a08101516001600160a01b031661079c576040516365a4920b60e01b815260040160405180910390fd5b6107bc81608001516107b6604051602001610575906119a5565b90610f35565b6107d68160a001516107b660405160200161057590611a01565b6107f081606001516107b66040516020016105759061195b565b5f610806825f01516001600160a01b0316610f3c565b9050806040516020016108199190611ae9565b60405160208183030381529060405290505f610840835f01516001600160a01b031661101e565b90505f8360200151826108539190611b23565b9050610884836040518060400160405280600c81526020016b21b930b732a2a9219a1b191b60a11b815250836110ec565b6108a783604051806040016040528060018152602001603160f81b815250611104565b6108b9845f015183866020015161111a565b5050505050565b60605f828060200190518101906108d79190611a56565b9050600a816020015160ff1610156108f157600a60208201525b806040516020016109029190611b3c565b604051602081830303815290604052915050919050565b60408051600480825260a08201909252606091816020015b60408051606080820183525f8083526020830152918101919091528152602001906001900390816109315790505060408051606081019091526001600160a01b037f0000000000000000000000000000000000000000000000000000000000000000168152909150602081015f81526020017f00000000000000000000000000000000000000000000000000000000000000006001600160a01b031663574a4cff6040518163ffffffff1660e01b81526004015f60405180830381865afa1580156109fe573d5f5f3e3d5ffd5b505050506040513d5f823e601f3d908101601f19168201604052610a259190810190611b8c565b815250815f81518110610a3a57610a3a611928565b602002602001018190525060405180606001604052807f00000000000000000000000000000000000000000000000000000000000000006001600160a01b031681526020015f6002811115610a9157610a91611595565b81526020017f00000000000000000000000000000000000000000000000000000000000000006001600160a01b031663574a4cff6040518163ffffffff1660e01b81526004015f60405180830381865afa158015610af1573d5f5f3e3d5ffd5b505050506040513d5f823e601f3d908101601f19168201604052610b189190810190611b8c565b81525081600181518110610b2e57610b2e611928565b602002602001018190525060405180606001604052807f00000000000000000000000000000000000000000000000000000000000000006001600160a01b031681526020015f6002811115610b8557610b85611595565b81526020017f00000000000000000000000000000000000000000000000000000000000000006001600160a01b031663574a4cff6040518163ffffffff1660e01b81526004015f60405180830381865afa158015610be5573d5f5f3e3d5ffd5b505050506040513d5f823e601f3d908101601f19168201604052610c0c9190810190611b8c565b81525081600281518110610c2257610c22611928565b602002602001018190525060405180606001604052807f00000000000000000000000000000000000000000000000000000000000000006001600160a01b031681526020015f6002811115610c7957610c79611595565b81526020017f00000000000000000000000000000000000000000000000000000000000000006001600160a01b031663574a4cff6040518163ffffffff1660e01b81526004015f60405180830381865afa158015610cd9573d5f5f3e3d5ffd5b505050506040513d5f823e601f3d908101601f19168201604052610d009190810190611b8c565b81525081600381518110610d1657610d16611928565b602002602001018190525090565b60015b92915050565b604080518082019091526012815271455243343632365065726d69744446506b6760701b602082015290565b5f5f82806020019051810190610d6f9190611a56565b9050600a816020015160ff161015610d8957600a60208201525b610db781604051602001610d9d9190611b3c565b604051602081830303815290604052805160209091012090565b9392505050565b6060806060610dcb610d2d565b9250610dd56101a3565b9150610ddf610327565b9050909192565b610dfd60016107b660405160200161057590611c4a565b565b7f14ce67821cd930247cda3561a8613121cef312aab4c97bcc298f53c085bd93e090565b905090565b5f610e3e6001600160a01b03861685858561112d565b506001949350505050565b5f610e23604051602001610575906020808252600a908201526906569702e6572632e32360b41b604082015260600190565b5f610e89858585855f61113f565b95945050505050565b6001600160a01b0382165f90815260048401602052604081208054839290610ebb908490611c7b565b9250508190555080836003015f828254610ed59190611c7b565b90915550506040518181526001600160a01b038316905f907fddf252ad1be2c89b69c2b068fc378daa952ba7f163c4a11628f55a4df523b3ef9060200160405180910390a3505050565b610dfd5f6107b660405160200161057590611c4a565b80825d5050565b60408051600481526024810182526020810180516001600160e01b03166306fdde0360e01b17905290516060915f9182916001600160a01b03861691610f829190611c8e565b5f60405180830381855afa9150503d805f8114610fba576040519150601f19603f3d011682016040523d82523d5f602084013e610fbf565b606091505b5091509150818015610fd357506020815110155b15610ff45780806020019051810190610fec9190611c99565b949350505050565b505060408051808201909152600b81526a22a9219918102a37b5b2b760a91b602082015292915050565b60408051600481526024810182526020810180516001600160e01b031663313ce56760e01b17905290515f91829182916001600160a01b038616916110639190611c8e565b5f60405180830381855afa9150503d805f811461109b576040519150601f19603f3d011682016040523d82523d5f602084013e6110a0565b606091505b50915091508180156110b457506020815110155b156110e2575f818060200190518101906110ce91906119ea565b905060ff81116110e057949350505050565b505b5060129392505050565b6110ff6110f7610e49565b848484611176565b505050565b61111661110f6111ad565b83836111e0565b5050565b6110ff611125610dff565b848484611247565b61113984848484611288565b50505050565b5f61116c61114e84600a611df0565b6111589086611c7b565b611163876001611c7b565b889190856112e1565b9695505050505050565b836111818482611e7a565b50600184016111908382611e7a565b50600293909301805460ff191660ff909416939093179092555050565b5f610e23604051602001610575906020808252600b908201526a32b4b81732b4b8171b989960a91b604082015260600190565b6111ed82600785016112ee565b60058401556111ff81600885016112ee565b600684015581516020808401919091206003850155815190820120600484015546600184015561122e8361134b565b8355505060020180546001600160a01b03191630179055565b83546001600160a01b0384166001600160a81b031990911617600160a01b60ff841602178455835460ff60a81b1916600160a81b60ff831602178455611139565b60405181606052826040528360601b602c526323b872dd60601b600c5260205f6064601c5f895af18060015f5114166112d357803d873b1517106112d357637939f4245f526004601cfd5b505f60605260405250505050565b5f610e89858585856113a5565b5f60208351101561130957611302836113e8565b9050610d27565b825160018160011b178355825f5260205f20602085015f5b8381101561133d5781810151600582901c840155602001611321565b5060ff9350610d2792505050565b60038101546004820154604080517f8b73c3c69bb8fe3d512ecc4cf759cc79239f7b179b0ffacaa9a75d522b39400f60208201529081019290925260608201524660808201523060a08201525f90610d279060c001610d9d565b5f5f6113b286868661142e565b90506113bd8361143a565b80156113d857505f84806113d3576113d3611f34565b868809115b15610e895761116c600182611c7b565b5f5f829050601f8151111561141b578260405163305a27a960e01b815260040161141291906117e7565b60405180910390fd5b805161142682611f48565b179392505050565b5f610fec848484611466565b5f600282600381111561144f5761144f611595565b6114599190611f6b565b60ff166001149050919050565b828202818385830414851517026114ed575f198385098181108201900382848609835f0384168285116114a05763ae47f7025f526004601cfd5b93849004938382119092035f839003839004600101029203041760026003830281188084028203028084028203028084028203028084028203028084028203028084029091030202610db7565b0492915050565b5f8151808452602084019350602083015f5b8281101561152e5781516001600160e01b031916865260209586019590910190600101611506565b5093949350505050565b602081525f610db760208301846114f4565b5f8151808452602084019350602083015f5b8281101561152e5781516001600160a01b031686526020958601959091019060010161155c565b602081525f610db7602083018461154a565b634e487b7160e01b5f52602160045260245ffd5b602081525f6060820183516040602085015281815180845260808601915060808160051b87010193506020830192505f5b8181101561165357868503607f19018352835180516001600160a01b0316865260208101516003811061161b57634e487b7160e01b5f52602160045260245ffd5b80602088015250604081015190506060604087015261163d60608701826114f4565b95505060209384019392909201916001016115da565b505050506020840151838203601f19016040850152610e8982826114f4565b6001600160a01b0381168114611686575f5ffd5b50565b5f60208284031215611699575f5ffd5b8135610db781611672565b634e487b7160e01b5f52604160045260245ffd5b60405160c081016001600160401b03811182821017156116da576116da6116a4565b60405290565b604051601f8201601f191681016001600160401b0381118282101715611708576117086116a4565b604052919050565b5f6001600160401b03821115611728576117286116a4565b50601f01601f191660200190565b5f82601f830112611745575f5ffd5b813561175861175382611710565b6116e0565b81815284602083860101111561176c575f5ffd5b816020850160208301375f918101602001919091529392505050565b5f60208284031215611798575f5ffd5b81356001600160401b038111156117ad575f5ffd5b610fec84828501611736565b5f81518084528060208401602086015e5f602082860101526020601f19601f83011685010191505092915050565b602081525f610db760208301846117b9565b5f602082016020835280845180835260408501915060408160051b8601019250602086015f5b8281101561189857868503603f19018452815180516001600160a01b0316865260208101516003811061186057634e487b7160e01b5f52602160045260245ffd5b80602088015250604081015190506060604087015261188260608701826114f4565b955050602093840193919091019060010161181f565b50929695505050505050565b5f5f604083850312156118b5575f5ffd5b82356118c081611672565b915060208301356001600160401b038111156118da575f5ffd5b6118e685828601611736565b9150509250929050565b606081525f61190260608301866117b9565b828103602084015261191481866114f4565b9050828103604084015261116c818561154a565b634e487b7160e01b5f52603260045260245ffd5b5f6020828403121561194c575f5ffd5b81518015158114610db7575f5ffd5b6020808252602a908201527f6372616e652e706b672e657263343632362e7472616e7369656e742e696e69746040820152691a585b11195c1bdcda5d60b21b606082015260800190565b60208082526025908201527f6372616e652e706b672e657263343632362e7472616e7369656e742e6465706f60408201526439b4ba37b960d91b606082015260800190565b5f602082840312156119fa575f5ffd5b5051919050565b60208082526025908201527f6372616e652e706b672e657263343632362e7472616e7369656e742e726563696040820152641c1a595b9d60da1b606082015260800190565b8051611a5181611672565b919050565b5f60c0828403128015611a67575f5ffd5b50611a706116b8565b8251611a7b81611672565b8152602083015160ff81168114611a90575f5ffd5b60208201526040838101519082015260608084015190820152611ab560808401611a46565b6080820152611ac660a08401611a46565b60a08201529392505050565b5f81518060208401855e5f93019283525090919050565b7101021b930b7329022a9219a1b191b1037b3160751b81525f610db76012830184611ad2565b634e487b7160e01b5f52601160045260245ffd5b60ff8181168382160190811115610d2757610d27611b0f565b81516001600160a01b03908116825260208084015160ff1690830152604080840151908301526060808401519083015260808084015182169083015260a092830151169181019190915260c00190565b5f60208284031215611b9c575f5ffd5b81516001600160401b03811115611bb1575f5ffd5b8201601f81018413611bc1575f5ffd5b80516001600160401b03811115611bda57611bda6116a4565b8060051b611bea602082016116e0565b91825260208184018101929081019087841115611c05575f5ffd5b6020850194505b83851015611c3f57845192506001600160e01b031983168314611c2d575f5ffd5b82825260209485019490910190611c0c565b979650505050505050565b6020808252601790820152766372616e652e6163636573732e7265656e7472616e637960481b604082015260600190565b80820180821115610d2757610d27611b0f565b5f610db78284611ad2565b5f60208284031215611ca9575f5ffd5b81516001600160401b03811115611cbe575f5ffd5b8201601f81018413611cce575f5ffd5b8051611cdc61175382611710565b818152856020838501011115611cf0575f5ffd5b8160208401602083015e5f91810160200191909152949350505050565b6001815b6001841115611d4857808504811115611d2c57611d2c611b0f565b6001841615611d3a57908102905b60019390931c928002611d11565b935093915050565b5f82611d5e57506001610d27565b81611d6a57505f610d27565b8160018114611d805760028114611d8a57611da6565b6001915050610d27565b60ff841115611d9b57611d9b611b0f565b50506001821b610d27565b5060208310610133831016604e8410600b8410161715611dc9575081810a610d27565b611dd55f198484611d0d565b805f1904821115611de857611de8611b0f565b029392505050565b5f610db760ff841683611d50565b600181811c90821680611e1257607f821691505b602082108103611e3057634e487b7160e01b5f52602260045260245ffd5b50919050565b601f8211156110ff57805f5260205f20601f840160051c81016020851015611e5b5750805b601f840160051c820191505b818110156108b9575f8155600101611e67565b81516001600160401b03811115611e9357611e936116a4565b611ea781611ea18454611dfe565b84611e36565b6020601f821160018114611ed9575f8315611ec25750848201515b5f19600385901b1c1916600184901b1784556108b9565b5f84815260208120601f198516915b82811015611f085787850151825560209485019460019092019101611ee8565b5084821015611f2557868401515f19600387901b60f8161c191681555b50505050600190811b01905550565b634e487b7160e01b5f52601260045260245ffd5b80516020808301519190811015611e30575f1960209190910360031b1b16919050565b5f60ff831680611f8957634e487b7160e01b5f52601260045260245ffd5b8060ff8416069150509291505056fea2646970667358221220f2e219fe3f5e26ec2f442b8971c7f18db7d2ec338874290735d330bdd096d13464736f6c634300081e0033","linkReferences":{}},"methodIdentifiers":{"calcSalt(bytes)":"d82be56e","diamondConfig()":"65d375b3","facetAddresses()":"52ef6b2c","facetCuts()":"a4b3ad35","facetInterfaces()":"2ea80826","initAccount(bytes)":"870d4838","packageMetadata()":"f45469e7","packageName()":"abc8b346","postDeploy(address)":"70068fcf","processArgs(bytes)":"87c3adb3","updatePkg(address,bytes)":"a9089235"},"id":1336}