{"abi":[{"type":"function","name":"erc4626Vault","inputs":[],"outputs":[{"name":"","type":"address","internalType":"contract IERC4626"}],"stateMutability":"view"},{"type":"function","name":"facetFuncs","inputs":[],"outputs":[{"name":"funcs","type":"bytes4[]","internalType":"bytes4[]"}],"stateMutability":"pure"},{"type":"function","name":"facetInterfaces","inputs":[],"outputs":[{"name":"interfaces","type":"bytes4[]","internalType":"bytes4[]"}],"stateMutability":"pure"},{"type":"function","name":"facetMetadata","inputs":[],"outputs":[{"name":"name","type":"string","internalType":"string"},{"name":"interfaces","type":"bytes4[]","internalType":"bytes4[]"},{"name":"functions","type":"bytes4[]","internalType":"bytes4[]"}],"stateMutability":"pure"},{"type":"function","name":"facetName","inputs":[],"outputs":[{"name":"name","type":"string","internalType":"string"}],"stateMutability":"pure"},{"type":"function","name":"getRate","inputs":[],"outputs":[{"name":"rate","type":"uint256","internalType":"uint256"}],"stateMutability":"view"}],"bytecode":{"object":"0x6080604052348015600e575f5ffd5b506105cd8061001c5f395ff3fe608060405234801561000f575f5ffd5b5060043610610060575f3560e01c80632ea8082614610064578063574a4cff146100825780635920b2251461008a5780635b6f4d01146100aa578063679aefce146100bf578063f10d7a75146100d5575b5f5ffd5b61006c6100ec565b6040516100799190610396565b60405180910390f35b61006c61017f565b6100926101f0565b6040516001600160a01b039091168152602001610079565b6100b26101fe565b60405161007991906103dd565b6100c7610230565b604051908152602001610079565b6100dd6102d3565b604051610079939291906103ef565b60408051600280825260608083018452926020830190803683370190505090506333cd77e760e11b815f8151811061012657610126610431565b60200260200101906001600160e01b03191690816001600160e01b03191681525050635920b22560e01b8160018151811061016357610163610431565b6001600160e01b03199092166020928302919091019091015290565b604080516002808252606080830184529260208301908036833701905050905063679aefce60e01b815f815181106101b9576101b9610431565b6001600160e01b0319909216602092830291909101909101528051635920b22560e01b908290600190811061016357610163610431565b5f6101f96102fb565b905090565b604080518082019091526018815277115490cd0d8c8d94985d19541c9bdd9a59195c919858d95d60421b602082015290565b5f6102396102fb565b60405163266d6a8360e11b8152670de0b6b3a764000060048201526001600160a01b039190911690634cdad50690602401602060405180830381865afa158015610285573d5f5f3e3d5ffd5b505050506040513d601f19601f820116820180604052508101906102a99190610445565b90506102b3610314565b6102be906012610470565b6102c990600a610572565b6101f99082610580565b60608060606102e06101fe565b92506102ea6100ec565b91506102f461017f565b9050909192565b5f6101f961030761032e565b546001600160a01b031690565b5f6101f961032061032e565b54600160a01b900460ff1690565b7f3959254c71754c6f405f8f9fef44e92a8e8775db2b2d636677df51628392ff4a90565b5f8151808452602084019350602083015f5b8281101561038c5781516001600160e01b031916865260209586019590910190600101610364565b5093949350505050565b602081525f6103a86020830184610352565b9392505050565b5f81518084528060208401602086015e5f602082860101526020601f19601f83011685010191505092915050565b602081525f6103a860208301846103af565b606081525f61040160608301866103af565b82810360208401526104138186610352565b905082810360408401526104278185610352565b9695505050505050565b634e487b7160e01b5f52603260045260245ffd5b5f60208284031215610455575f5ffd5b5051919050565b634e487b7160e01b5f52601160045260245ffd5b60ff82811682821603908111156104895761048961045c565b92915050565b6001815b60018411156104ca578085048111156104ae576104ae61045c565b60018416156104bc57908102905b60019390931c928002610493565b935093915050565b5f826104e057506001610489565b816104ec57505f610489565b8160018114610502576002811461050c57610528565b6001915050610489565b60ff84111561051d5761051d61045c565b50506001821b610489565b5060208310610133831016604e8410600b841016171561054b575081810a610489565b6105575f19848461048f565b805f190482111561056a5761056a61045c565b029392505050565b5f6103a860ff8416836104d2565b80820281158282048414176104895761048961045c56fea264697066735822122099fcb3f5bb5aae8163a2c8c9ec4ccb0dfaafa12a175a1b778c0747c3da015ed964736f6c634300081e0033","linkReferences":{}},"methodIdentifiers":{"erc4626Vault()":"5920b225","facetFuncs()":"574a4cff","facetInterfaces()":"2ea80826","facetMetadata()":"f10d7a75","facetName()":"5b6f4d01","getRate()":"679aefce"},"id":901}