{"abi":[{"type":"constructor","inputs":[{"name":"vaultExtension","type":"address","internalType":"contract IVaultExtension"},{"name":"authorizer","type":"address","internalType":"contract IAuthorizer"},{"name":"protocolFeeController","type":"address","internalType":"contract IProtocolFeeController"}],"stateMutability":"nonpayable"},{"type":"fallback","stateMutability":"payable"},{"type":"receive","stateMutability":"payable"},{"type":"function","name":"addLiquidity","inputs":[{"name":"params","type":"tuple","internalType":"struct AddLiquidityParams","components":[{"name":"pool","type":"address","internalType":"address"},{"name":"to","type":"address","internalType":"address"},{"name":"maxAmountsIn","type":"uint256[]","internalType":"uint256[]"},{"name":"minBptAmountOut","type":"uint256","internalType":"uint256"},{"name":"kind","type":"uint8","internalType":"enum AddLiquidityKind"},{"name":"userData","type":"bytes","internalType":"bytes"}]}],"outputs":[{"name":"amountsIn","type":"uint256[]","internalType":"uint256[]"},{"name":"bptAmountOut","type":"uint256","internalType":"uint256"},{"name":"returnData","type":"bytes","internalType":"bytes"}],"stateMutability":"nonpayable"},{"type":"function","name":"erc4626BufferWrapOrUnwrap","inputs":[{"name":"params","type":"tuple","internalType":"struct BufferWrapOrUnwrapParams","components":[{"name":"kind","type":"uint8","internalType":"enum SwapKind"},{"name":"direction","type":"uint8","internalType":"enum WrappingDirection"},{"name":"wrappedToken","type":"address","internalType":"contract IERC4626"},{"name":"amountGivenRaw","type":"uint256","internalType":"uint256"},{"name":"limitRaw","type":"uint256","internalType":"uint256"}]}],"outputs":[{"name":"amountCalculatedRaw","type":"uint256","internalType":"uint256"},{"name":"amountInRaw","type":"uint256","internalType":"uint256"},{"name":"amountOutRaw","type":"uint256","internalType":"uint256"}],"stateMutability":"nonpayable"},{"type":"function","name":"getPoolTokenCountAndIndexOfToken","inputs":[{"name":"pool","type":"address","internalType":"address"},{"name":"token","type":"address","internalType":"contract IERC20"}],"outputs":[{"name":"","type":"uint256","internalType":"uint256"},{"name":"","type":"uint256","internalType":"uint256"}],"stateMutability":"view"},{"type":"function","name":"getVaultExtension","inputs":[],"outputs":[{"name":"","type":"address","internalType":"address"}],"stateMutability":"view"},{"type":"function","name":"reentrancyGuardEntered","inputs":[],"outputs":[{"name":"","type":"bool","internalType":"bool"}],"stateMutability":"view"},{"type":"function","name":"removeLiquidity","inputs":[{"name":"params","type":"tuple","internalType":"struct RemoveLiquidityParams","components":[{"name":"pool","type":"address","internalType":"address"},{"name":"from","type":"address","internalType":"address"},{"name":"maxBptAmountIn","type":"uint256","internalType":"uint256"},{"name":"minAmountsOut","type":"uint256[]","internalType":"uint256[]"},{"name":"kind","type":"uint8","internalType":"enum RemoveLiquidityKind"},{"name":"userData","type":"bytes","internalType":"bytes"}]}],"outputs":[{"name":"bptAmountIn","type":"uint256","internalType":"uint256"},{"name":"amountsOut","type":"uint256[]","internalType":"uint256[]"},{"name":"returnData","type":"bytes","internalType":"bytes"}],"stateMutability":"nonpayable"},{"type":"function","name":"sendTo","inputs":[{"name":"token","type":"address","internalType":"contract IERC20"},{"name":"to","type":"address","internalType":"address"},{"name":"amount","type":"uint256","internalType":"uint256"}],"outputs":[],"stateMutability":"nonpayable"},{"type":"function","name":"settle","inputs":[{"name":"token","type":"address","internalType":"contract IERC20"},{"name":"amountHint","type":"uint256","internalType":"uint256"}],"outputs":[{"name":"credit","type":"uint256","internalType":"uint256"}],"stateMutability":"nonpayable"},{"type":"function","name":"swap","inputs":[{"name":"vaultSwapParams","type":"tuple","internalType":"struct VaultSwapParams","components":[{"name":"kind","type":"uint8","internalType":"enum SwapKind"},{"name":"pool","type":"address","internalType":"address"},{"name":"tokenIn","type":"address","internalType":"contract IERC20"},{"name":"tokenOut","type":"address","internalType":"contract IERC20"},{"name":"amountGivenRaw","type":"uint256","internalType":"uint256"},{"name":"limitRaw","type":"uint256","internalType":"uint256"},{"name":"userData","type":"bytes","internalType":"bytes"}]}],"outputs":[{"name":"amountCalculated","type":"uint256","internalType":"uint256"},{"name":"amountIn","type":"uint256","internalType":"uint256"},{"name":"amountOut","type":"uint256","internalType":"uint256"}],"stateMutability":"nonpayable"},{"type":"function","name":"transfer","inputs":[{"name":"owner","type":"address","internalType":"address"},{"name":"to","type":"address","internalType":"address"},{"name":"amount","type":"uint256","internalType":"uint256"}],"outputs":[{"name":"","type":"bool","internalType":"bool"}],"stateMutability":"nonpayable"},{"type":"function","name":"transferFrom","inputs":[{"name":"spender","type":"address","internalType":"address"},{"name":"from","type":"address","internalType":"address"},{"name":"to","type":"address","internalType":"address"},{"name":"amount","type":"uint256","internalType":"uint256"}],"outputs":[{"name":"","type":"bool","internalType":"bool"}],"stateMutability":"nonpayable"},{"type":"function","name":"unlock","inputs":[{"name":"data","type":"bytes","internalType":"bytes"}],"outputs":[{"name":"result","type":"bytes","internalType":"bytes"}],"stateMutability":"nonpayable"},{"type":"event","name":"AggregateSwapFeePercentageChanged","inputs":[{"name":"pool","type":"address","indexed":true,"internalType":"address"},{"name":"aggregateSwapFeePercentage","type":"uint256","indexed":false,"internalType":"uint256"}],"anonymous":false},{"type":"event","name":"AggregateYieldFeePercentageChanged","inputs":[{"name":"pool","type":"address","indexed":true,"internalType":"address"},{"name":"aggregateYieldFeePercentage","type":"uint256","indexed":false,"internalType":"uint256"}],"anonymous":false},{"type":"event","name":"Approval","inputs":[{"name":"pool","type":"address","indexed":true,"internalType":"address"},{"name":"owner","type":"address","indexed":true,"internalType":"address"},{"name":"spender","type":"address","indexed":true,"internalType":"address"},{"name":"value","type":"uint256","indexed":false,"internalType":"uint256"}],"anonymous":false},{"type":"event","name":"AuthorizerChanged","inputs":[{"name":"newAuthorizer","type":"address","indexed":true,"internalType":"contract IAuthorizer"}],"anonymous":false},{"type":"event","name":"BufferSharesBurned","inputs":[{"name":"wrappedToken","type":"address","indexed":true,"internalType":"contract IERC4626"},{"name":"from","type":"address","indexed":true,"internalType":"address"},{"name":"burnedShares","type":"uint256","indexed":false,"internalType":"uint256"}],"anonymous":false},{"type":"event","name":"BufferSharesMinted","inputs":[{"name":"wrappedToken","type":"address","indexed":true,"internalType":"contract IERC4626"},{"name":"to","type":"address","indexed":true,"internalType":"address"},{"name":"issuedShares","type":"uint256","indexed":false,"internalType":"uint256"}],"anonymous":false},{"type":"event","name":"LiquidityAdded","inputs":[{"name":"pool","type":"address","indexed":true,"internalType":"address"},{"name":"liquidityProvider","type":"address","indexed":true,"internalType":"address"},{"name":"kind","type":"uint8","indexed":true,"internalType":"enum AddLiquidityKind"},{"name":"totalSupply","type":"uint256","indexed":false,"internalType":"uint256"},{"name":"amountsAddedRaw","type":"uint256[]","indexed":false,"internalType":"uint256[]"},{"name":"swapFeeAmountsRaw","type":"uint256[]","indexed":false,"internalType":"uint256[]"}],"anonymous":false},{"type":"event","name":"LiquidityAddedToBuffer","inputs":[{"name":"wrappedToken","type":"address","indexed":true,"internalType":"contract IERC4626"},{"name":"amountUnderlying","type":"uint256","indexed":false,"internalType":"uint256"},{"name":"amountWrapped","type":"uint256","indexed":false,"internalType":"uint256"},{"name":"bufferBalances","type":"bytes32","indexed":false,"internalType":"bytes32"}],"anonymous":false},{"type":"event","name":"LiquidityRemoved","inputs":[{"name":"pool","type":"address","indexed":true,"internalType":"address"},{"name":"liquidityProvider","type":"address","indexed":true,"internalType":"address"},{"name":"kind","type":"uint8","indexed":true,"internalType":"enum RemoveLiquidityKind"},{"name":"totalSupply","type":"uint256","indexed":false,"internalType":"uint256"},{"name":"amountsRemovedRaw","type":"uint256[]","indexed":false,"internalType":"uint256[]"},{"name":"swapFeeAmountsRaw","type":"uint256[]","indexed":false,"internalType":"uint256[]"}],"anonymous":false},{"type":"event","name":"LiquidityRemovedFromBuffer","inputs":[{"name":"wrappedToken","type":"address","indexed":true,"internalType":"contract IERC4626"},{"name":"amountUnderlying","type":"uint256","indexed":false,"internalType":"uint256"},{"name":"amountWrapped","type":"uint256","indexed":false,"internalType":"uint256"},{"name":"bufferBalances","type":"bytes32","indexed":false,"internalType":"bytes32"}],"anonymous":false},{"type":"event","name":"PoolInitialized","inputs":[{"name":"pool","type":"address","indexed":true,"internalType":"address"}],"anonymous":false},{"type":"event","name":"PoolPausedStateChanged","inputs":[{"name":"pool","type":"address","indexed":true,"internalType":"address"},{"name":"paused","type":"bool","indexed":false,"internalType":"bool"}],"anonymous":false},{"type":"event","name":"PoolRecoveryModeStateChanged","inputs":[{"name":"pool","type":"address","indexed":true,"internalType":"address"},{"name":"recoveryMode","type":"bool","indexed":false,"internalType":"bool"}],"anonymous":false},{"type":"event","name":"PoolRegistered","inputs":[{"name":"pool","type":"address","indexed":true,"internalType":"address"},{"name":"factory","type":"address","indexed":true,"internalType":"address"},{"name":"tokenConfig","type":"tuple[]","indexed":false,"internalType":"struct TokenConfig[]","components":[{"name":"token","type":"address","internalType":"contract IERC20"},{"name":"tokenType","type":"uint8","internalType":"enum TokenType"},{"name":"rateProvider","type":"address","internalType":"contract IRateProvider"},{"name":"paysYieldFees","type":"bool","internalType":"bool"}]},{"name":"swapFeePercentage","type":"uint256","indexed":false,"internalType":"uint256"},{"name":"pauseWindowEndTime","type":"uint32","indexed":false,"internalType":"uint32"},{"name":"roleAccounts","type":"tuple","indexed":false,"internalType":"struct PoolRoleAccounts","components":[{"name":"pauseManager","type":"address","internalType":"address"},{"name":"swapFeeManager","type":"address","internalType":"address"},{"name":"poolCreator","type":"address","internalType":"address"}]},{"name":"hooksConfig","type":"tuple","indexed":false,"internalType":"struct HooksConfig","components":[{"name":"enableHookAdjustedAmounts","type":"bool","internalType":"bool"},{"name":"shouldCallBeforeInitialize","type":"bool","internalType":"bool"},{"name":"shouldCallAfterInitialize","type":"bool","internalType":"bool"},{"name":"shouldCallComputeDynamicSwapFee","type":"bool","internalType":"bool"},{"name":"shouldCallBeforeSwap","type":"bool","internalType":"bool"},{"name":"shouldCallAfterSwap","type":"bool","internalType":"bool"},{"name":"shouldCallBeforeAddLiquidity","type":"bool","internalType":"bool"},{"name":"shouldCallAfterAddLiquidity","type":"bool","internalType":"bool"},{"name":"shouldCallBeforeRemoveLiquidity","type":"bool","internalType":"bool"},{"name":"shouldCallAfterRemoveLiquidity","type":"bool","internalType":"bool"},{"name":"hooksContract","type":"address","internalType":"address"}]},{"name":"liquidityManagement","type":"tuple","indexed":false,"internalType":"struct LiquidityManagement","components":[{"name":"disableUnbalancedLiquidity","type":"bool","internalType":"bool"},{"name":"enableAddLiquidityCustom","type":"bool","internalType":"bool"},{"name":"enableRemoveLiquidityCustom","type":"bool","internalType":"bool"},{"name":"enableDonation","type":"bool","internalType":"bool"}]}],"anonymous":false},{"type":"event","name":"ProtocolFeeControllerChanged","inputs":[{"name":"newProtocolFeeController","type":"address","indexed":true,"internalType":"contract IProtocolFeeController"}],"anonymous":false},{"type":"event","name":"Swap","inputs":[{"name":"pool","type":"address","indexed":true,"internalType":"address"},{"name":"tokenIn","type":"address","indexed":true,"internalType":"contract IERC20"},{"name":"tokenOut","type":"address","indexed":true,"internalType":"contract IERC20"},{"name":"amountIn","type":"uint256","indexed":false,"internalType":"uint256"},{"name":"amountOut","type":"uint256","indexed":false,"internalType":"uint256"},{"name":"swapFeePercentage","type":"uint256","indexed":false,"internalType":"uint256"},{"name":"swapFeeAmount","type":"uint256","indexed":false,"internalType":"uint256"}],"anonymous":false},{"type":"event","name":"SwapFeePercentageChanged","inputs":[{"name":"pool","type":"address","indexed":true,"internalType":"address"},{"name":"swapFeePercentage","type":"uint256","indexed":false,"internalType":"uint256"}],"anonymous":false},{"type":"event","name":"Transfer","inputs":[{"name":"pool","type":"address","indexed":true,"internalType":"address"},{"name":"from","type":"address","indexed":true,"internalType":"address"},{"name":"to","type":"address","indexed":true,"internalType":"address"},{"name":"value","type":"uint256","indexed":false,"internalType":"uint256"}],"anonymous":false},{"type":"event","name":"Unwrap","inputs":[{"name":"wrappedToken","type":"address","indexed":true,"internalType":"contract IERC4626"},{"name":"burnedShares","type":"uint256","indexed":false,"internalType":"uint256"},{"name":"withdrawnUnderlying","type":"uint256","indexed":false,"internalType":"uint256"},{"name":"bufferBalances","type":"bytes32","indexed":false,"internalType":"bytes32"}],"anonymous":false},{"type":"event","name":"VaultAuxiliary","inputs":[{"name":"pool","type":"address","indexed":true,"internalType":"address"},{"name":"eventKey","type":"bytes32","indexed":true,"internalType":"bytes32"},{"name":"eventData","type":"bytes","indexed":false,"internalType":"bytes"}],"anonymous":false},{"type":"event","name":"VaultBuffersPausedStateChanged","inputs":[{"name":"paused","type":"bool","indexed":false,"internalType":"bool"}],"anonymous":false},{"type":"event","name":"VaultPausedStateChanged","inputs":[{"name":"paused","type":"bool","indexed":false,"internalType":"bool"}],"anonymous":false},{"type":"event","name":"VaultQueriesDisabled","inputs":[],"anonymous":false},{"type":"event","name":"VaultQueriesEnabled","inputs":[],"anonymous":false},{"type":"event","name":"Wrap","inputs":[{"name":"wrappedToken","type":"address","indexed":true,"internalType":"contract IERC4626"},{"name":"depositedUnderlying","type":"uint256","indexed":false,"internalType":"uint256"},{"name":"mintedShares","type":"uint256","indexed":false,"internalType":"uint256"},{"name":"bufferBalances","type":"bytes32","indexed":false,"internalType":"bytes32"}],"anonymous":false},{"type":"error","name":"AddressEmptyCode","inputs":[{"name":"target","type":"address","internalType":"address"}]},{"type":"error","name":"AfterAddLiquidityHookFailed","inputs":[]},{"type":"error","name":"AfterInitializeHookFailed","inputs":[]},{"type":"error","name":"AfterRemoveLiquidityHookFailed","inputs":[]},{"type":"error","name":"AfterSwapHookFailed","inputs":[]},{"type":"error","name":"AllZeroInputs","inputs":[]},{"type":"error","name":"AmountGivenZero","inputs":[]},{"type":"error","name":"AmountInAboveMax","inputs":[{"name":"tokenIn","type":"address","internalType":"contract IERC20"},{"name":"amountIn","type":"uint256","internalType":"uint256"},{"name":"maxAmountIn","type":"uint256","internalType":"uint256"}]},{"type":"error","name":"AmountOutBelowMin","inputs":[{"name":"tokenOut","type":"address","internalType":"contract IERC20"},{"name":"amountOut","type":"uint256","internalType":"uint256"},{"name":"minAmountOut","type":"uint256","internalType":"uint256"}]},{"type":"error","name":"BalanceNotSettled","inputs":[]},{"type":"error","name":"BalanceOverflow","inputs":[]},{"type":"error","name":"BeforeAddLiquidityHookFailed","inputs":[]},{"type":"error","name":"BeforeInitializeHookFailed","inputs":[]},{"type":"error","name":"BeforeRemoveLiquidityHookFailed","inputs":[]},{"type":"error","name":"BeforeSwapHookFailed","inputs":[]},{"type":"error","name":"BptAmountInAboveMax","inputs":[{"name":"amountIn","type":"uint256","internalType":"uint256"},{"name":"maxAmountIn","type":"uint256","internalType":"uint256"}]},{"type":"error","name":"BptAmountOutBelowMin","inputs":[{"name":"amountOut","type":"uint256","internalType":"uint256"},{"name":"minAmountOut","type":"uint256","internalType":"uint256"}]},{"type":"error","name":"BufferAlreadyInitialized","inputs":[{"name":"wrappedToken","type":"address","internalType":"contract IERC4626"}]},{"type":"error","name":"BufferNotInitialized","inputs":[{"name":"wrappedToken","type":"address","internalType":"contract IERC4626"}]},{"type":"error","name":"BufferSharesInvalidOwner","inputs":[]},{"type":"error","name":"BufferSharesInvalidReceiver","inputs":[]},{"type":"error","name":"BufferTotalSupplyTooLow","inputs":[{"name":"totalSupply","type":"uint256","internalType":"uint256"}]},{"type":"error","name":"CannotReceiveEth","inputs":[]},{"type":"error","name":"CannotSwapSameToken","inputs":[]},{"type":"error","name":"DoesNotSupportAddLiquidityCustom","inputs":[]},{"type":"error","name":"DoesNotSupportDonation","inputs":[]},{"type":"error","name":"DoesNotSupportRemoveLiquidityCustom","inputs":[]},{"type":"error","name":"DoesNotSupportUnbalancedLiquidity","inputs":[]},{"type":"error","name":"DynamicSwapFeeHookFailed","inputs":[]},{"type":"error","name":"ERC20InsufficientAllowance","inputs":[{"name":"spender","type":"address","internalType":"address"},{"name":"allowance","type":"uint256","internalType":"uint256"},{"name":"needed","type":"uint256","internalType":"uint256"}]},{"type":"error","name":"ERC20InsufficientBalance","inputs":[{"name":"sender","type":"address","internalType":"address"},{"name":"balance","type":"uint256","internalType":"uint256"},{"name":"needed","type":"uint256","internalType":"uint256"}]},{"type":"error","name":"ERC20InvalidApprover","inputs":[{"name":"approver","type":"address","internalType":"address"}]},{"type":"error","name":"ERC20InvalidReceiver","inputs":[{"name":"receiver","type":"address","internalType":"address"}]},{"type":"error","name":"ERC20InvalidSender","inputs":[{"name":"sender","type":"address","internalType":"address"}]},{"type":"error","name":"ERC20InvalidSpender","inputs":[{"name":"spender","type":"address","internalType":"address"}]},{"type":"error","name":"FailedCall","inputs":[]},{"type":"error","name":"FeePrecisionTooHigh","inputs":[]},{"type":"error","name":"HookAdjustedAmountInAboveMax","inputs":[{"name":"tokenIn","type":"address","internalType":"contract IERC20"},{"name":"amountIn","type":"uint256","internalType":"uint256"},{"name":"maxAmountIn","type":"uint256","internalType":"uint256"}]},{"type":"error","name":"HookAdjustedAmountOutBelowMin","inputs":[{"name":"tokenOut","type":"address","internalType":"contract IERC20"},{"name":"amountOut","type":"uint256","internalType":"uint256"},{"name":"minAmountOut","type":"uint256","internalType":"uint256"}]},{"type":"error","name":"HookAdjustedSwapLimit","inputs":[{"name":"amount","type":"uint256","internalType":"uint256"},{"name":"limit","type":"uint256","internalType":"uint256"}]},{"type":"error","name":"HookRegistrationFailed","inputs":[{"name":"poolHooksContract","type":"address","internalType":"address"},{"name":"pool","type":"address","internalType":"address"},{"name":"poolFactory","type":"address","internalType":"address"}]},{"type":"error","name":"InputLengthMismatch","inputs":[]},{"type":"error","name":"InsufficientBalance","inputs":[{"name":"balance","type":"uint256","internalType":"uint256"},{"name":"needed","type":"uint256","internalType":"uint256"}]},{"type":"error","name":"InvalidAddLiquidityKind","inputs":[]},{"type":"error","name":"InvalidRemoveLiquidityKind","inputs":[]},{"type":"error","name":"InvalidToken","inputs":[]},{"type":"error","name":"InvalidTokenConfiguration","inputs":[]},{"type":"error","name":"InvalidTokenDecimals","inputs":[]},{"type":"error","name":"InvalidTokenType","inputs":[]},{"type":"error","name":"InvalidUnderlyingToken","inputs":[{"name":"wrappedToken","type":"address","internalType":"contract IERC4626"}]},{"type":"error","name":"InvariantRatioAboveMax","inputs":[{"name":"invariantRatio","type":"uint256","internalType":"uint256"},{"name":"maxInvariantRatio","type":"uint256","internalType":"uint256"}]},{"type":"error","name":"InvariantRatioBelowMin","inputs":[{"name":"invariantRatio","type":"uint256","internalType":"uint256"},{"name":"minInvariantRatio","type":"uint256","internalType":"uint256"}]},{"type":"error","name":"IssuedSharesBelowMin","inputs":[{"name":"issuedShares","type":"uint256","internalType":"uint256"},{"name":"minIssuedShares","type":"uint256","internalType":"uint256"}]},{"type":"error","name":"MaxTokens","inputs":[]},{"type":"error","name":"MinTokens","inputs":[]},{"type":"error","name":"MultipleNonZeroInputs","inputs":[]},{"type":"error","name":"NotEnoughBufferShares","inputs":[]},{"type":"error","name":"NotEnoughUnderlying","inputs":[{"name":"wrappedToken","type":"address","internalType":"contract IERC4626"},{"name":"expectedUnderlyingAmount","type":"uint256","internalType":"uint256"},{"name":"actualUnderlyingAmount","type":"uint256","internalType":"uint256"}]},{"type":"error","name":"NotEnoughWrapped","inputs":[{"name":"wrappedToken","type":"address","internalType":"contract IERC4626"},{"name":"expectedWrappedAmount","type":"uint256","internalType":"uint256"},{"name":"actualWrappedAmount","type":"uint256","internalType":"uint256"}]},{"type":"error","name":"NotStaticCall","inputs":[]},{"type":"error","name":"NotVaultDelegateCall","inputs":[]},{"type":"error","name":"PauseBufferPeriodDurationTooLarge","inputs":[]},{"type":"error","name":"PercentageAboveMax","inputs":[]},{"type":"error","name":"PoolAlreadyInitialized","inputs":[{"name":"pool","type":"address","internalType":"address"}]},{"type":"error","name":"PoolAlreadyRegistered","inputs":[{"name":"pool","type":"address","internalType":"address"}]},{"type":"error","name":"PoolInRecoveryMode","inputs":[{"name":"pool","type":"address","internalType":"address"}]},{"type":"error","name":"PoolNotInRecoveryMode","inputs":[{"name":"pool","type":"address","internalType":"address"}]},{"type":"error","name":"PoolNotInitialized","inputs":[{"name":"pool","type":"address","internalType":"address"}]},{"type":"error","name":"PoolNotPaused","inputs":[{"name":"pool","type":"address","internalType":"address"}]},{"type":"error","name":"PoolNotRegistered","inputs":[{"name":"pool","type":"address","internalType":"address"}]},{"type":"error","name":"PoolPauseWindowExpired","inputs":[{"name":"pool","type":"address","internalType":"address"}]},{"type":"error","name":"PoolPaused","inputs":[{"name":"pool","type":"address","internalType":"address"}]},{"type":"error","name":"PoolTotalSupplyTooLow","inputs":[{"name":"totalSupply","type":"uint256","internalType":"uint256"}]},{"type":"error","name":"ProtocolFeesExceedTotalCollected","inputs":[]},{"type":"error","name":"QueriesDisabled","inputs":[]},{"type":"error","name":"QueriesDisabledPermanently","inputs":[]},{"type":"error","name":"QuoteResultSpoofed","inputs":[]},{"type":"error","name":"ReentrancyGuardReentrantCall","inputs":[]},{"type":"error","name":"RouterNotTrusted","inputs":[]},{"type":"error","name":"SenderIsNotVault","inputs":[{"name":"sender","type":"address","internalType":"address"}]},{"type":"error","name":"SwapFeePercentageTooHigh","inputs":[]},{"type":"error","name":"SwapFeePercentageTooLow","inputs":[]},{"type":"error","name":"SwapLimit","inputs":[{"name":"amount","type":"uint256","internalType":"uint256"},{"name":"limit","type":"uint256","internalType":"uint256"}]},{"type":"error","name":"TokenAlreadyRegistered","inputs":[{"name":"token","type":"address","internalType":"contract IERC20"}]},{"type":"error","name":"TokenNotRegistered","inputs":[{"name":"token","type":"address","internalType":"contract IERC20"}]},{"type":"error","name":"TokensMismatch","inputs":[{"name":"pool","type":"address","internalType":"address"},{"name":"expectedToken","type":"address","internalType":"address"},{"name":"actualToken","type":"address","internalType":"address"}]},{"type":"error","name":"TradeAmountTooSmall","inputs":[]},{"type":"error","name":"VaultBuffersArePaused","inputs":[]},{"type":"error","name":"VaultIsNotUnlocked","inputs":[]},{"type":"error","name":"VaultNotPaused","inputs":[]},{"type":"error","name":"VaultPauseWindowDurationTooLarge","inputs":[]},{"type":"error","name":"VaultPauseWindowExpired","inputs":[]},{"type":"error","name":"VaultPaused","inputs":[]},{"type":"error","name":"WrapAmountTooSmall","inputs":[{"name":"wrappedToken","type":"address","internalType":"contract IERC4626"}]},{"type":"error","name":"WrongProtocolFeeControllerDeployment","inputs":[]},{"type":"error","name":"WrongUnderlyingToken","inputs":[{"name":"wrappedToken","type":"address","internalType":"contract IERC4626"},{"name":"underlyingToken","type":"address","internalType":"address"}]},{"type":"error","name":"WrongVaultAdminDeployment","inputs":[]},{"type":"error","name":"WrongVaultExtensionDeployment","inputs":[]},{"type":"error","name":"ZeroDivision","inputs":[]}],"bytecode":{"object":"0x610220604052600a6101e0908152691a5cd55b9b1bd8dad95960b21b61020052610028906104b6565b60c0526040805180820190915260118152701b9bdb96995c9bd1195b1d1850dbdd5b9d607a1b602082015261005c906104b6565b60e05260408051808201909152600b81526a746f6b656e44656c74617360a81b602082015261008a906104b6565b61010052604080518082019091526012815271185919131a5c5d5a591a5d1e50d85b1b195960721b60208201526100c0906104b6565b610120526040805180820190915260098152681cd95cdcda5bdb925960ba1b60208201526100ed906104b6565b610140523480156100fc575f5ffd5b50604051617de6380380617de683398101604081905261011b91610576565b306001600160a01b0316836001600160a01b031663fbfa77cf6040518163ffffffff1660e01b8152600401602060405180830381865afa158015610161573d5f5f3e3d5ffd5b505050506040513d601f19601f8201168201806040525081019061018591906105c0565b6001600160a01b0316146101ac576040516301ab9d9d60e41b815260040160405180910390fd5b306001600160a01b0316816001600160a01b031663fbfa77cf6040518163ffffffff1660e01b8152600401602060405180830381865afa1580156101f2573d5f5f3e3d5ffd5b505050506040513d601f19601f8201168201806040525081019061021691906105c0565b6001600160a01b03161461023d57604051631bbe95c760e01b815260040160405180910390fd5b6001600160a01b038381166101c0819052600a80546001600160a01b0319169284169290921790915560408051634546891d60e11b81529051638a8d123a916004808201926020929091908290030181865afa15801561029f573d5f5f3e3d5ffd5b505050506040513d601f19601f820116820180604052508101906102c391906105e2565b63ffffffff166101608163ffffffff1681525050826001600160a01b03166320c1fb7a6040518163ffffffff1660e01b8152600401602060405180830381865afa158015610313573d5f5f3e3d5ffd5b505050506040513d601f19601f8201168201806040525081019061033791906105e2565b63ffffffff166101a08163ffffffff1681525050826001600160a01b031663cd51c12f6040518163ffffffff1660e01b8152600401602060405180830381865afa158015610387573d5f5f3e3d5ffd5b505050506040513d601f19601f820116820180604052508101906103ab91906105e2565b63ffffffff166101808163ffffffff1681525050826001600160a01b031663e2cb0ba06040518163ffffffff1660e01b8152600401602060405180830381865afa1580156103fb573d5f5f3e3d5ffd5b505050506040513d601f19601f8201168201806040525081019061041f9190610605565b60808181525050826001600160a01b03166353956aa26040518163ffffffff1660e01b8152600401602060405180830381865afa158015610462573d5f5f3e3d5ffd5b505050506040513d601f19601f820116820180604052508101906104869190610605565b60a05250600980546001600160a01b0390921661010002610100600160a81b0319909216919091179055506106a0565b5f6104eb60405180604001604052600c8152806020016b5661756c7453746f7261676560a01b815250836104f160201b60201c565b92915050565b5f60ff5f1b196001848460405160200161050c929190610633565b604051602081830303815290604052805190602001205f1c61052e9190610681565b60405160200161054091815260200190565b6040516020818303038152906040528051906020012016905092915050565b6001600160a01b0381168114610573575f5ffd5b50565b5f5f5f60608486031215610588575f5ffd5b83516105938161055f565b60208501519093506105a48161055f565b60408501519092506105b58161055f565b809150509250925092565b5f602082840312156105d0575f5ffd5b81516105db8161055f565b9392505050565b5f602082840312156105f2575f5ffd5b815163ffffffff811681146105db575f5ffd5b5f60208284031215610615575f5ffd5b5051919050565b5f81518060208401855e5f93019283525090919050565b7f62616c616e6365722d6c6162732e76332e73746f726167652e0000000000000081525f610664601983018561061c565b601760f91b8152610678600182018561061c565b95945050505050565b818103818111156104eb57634e487b7160e01b5f52601160045260245ffd5b60805160a05160c05160e05161010051610120516101405161016051610180516101a0516101c0516176d06107165f395f610ccf01525f6162c901525f615acd01525f50505f612f9b01525f612fd501525f615a6801525f612f7701525f612f3f01525f61276401525f614f0d01526176d05ff3fe60806040526004361061009a575f3560e01c806315afd409146100e157806315dacbea1461011357806321457897146101425780632bfb780c1461017057806343583be51461019e57806348c89491146101bd5780634af29ec4146101e9578063ae63932914610217578063b9a8effa14610236578063beabacc814610257578063c9c1661b14610276578063d2c725e0146102a3576100b8565b366100b857604051637911c44b60e11b815260040160405180910390fd5b34156100d757604051637911c44b60e11b815260040160405180910390fd5b6100df6102b7565b005b3480156100ec575f5ffd5b506101006100fb36600461657c565b6102c9565b6040519081526020015b60405180910390f35b34801561011e575f5ffd5b5061013261012d3660046165a6565b6103a3565b604051901515815260200161010a565b34801561014d575f5ffd5b5061016161015c366004616785565b6103c7565b60405161010a939291906168be565b34801561017b575f5ffd5b5061018f61018a3660046168ff565b610511565b60405161010a939291906169c1565b3480156101a9575f5ffd5b5061018f6101b83660046169d7565b610721565b3480156101c8575f5ffd5b506101dc6101d7366004616a5e565b610971565b60405161010a9190616aca565b3480156101f4575f5ffd5b50610208610203366004616aea565b610a39565b60405161010a93929190616b84565b348015610222575f5ffd5b506100df610231366004616bae565b610ba2565b348015610241575f5ffd5b5061024a610c0a565b60405161010a9190616bf9565b348015610262575f5ffd5b50610132610271366004616bae565b610c18565b348015610281575f5ffd5b50610295610290366004616c0d565b610c30565b60405161010a929190616c44565b3480156102ae575f5ffd5b50610132610cc4565b6102c76102c2610ccd565b610cf1565b565b5f6102d2610d0f565b6102da610d4d565b6001600160a01b0383165f818152600860205260408082205490516370a0823160e01b81529092906370a0823190610316903090600401616bf9565b602060405180830381865afa158015610331573d5f5f3e3d5ffd5b505050506040513d601f19601f820116820180604052508101906103559190616c52565b6001600160a01b0386165f908152600860205260409020819055905061037b8282616c7d565b925083831115610389578392505b6103938584610d79565b505061039d610d98565b92915050565b5f6103b033858785610daf565b6103bc33858585610e01565b506001949350505050565b5f6060806103d3610d4d565b83516103de81610f5f565b84516103e990610f8a565b5f6103f8865f01516001610f9b565b905061040e816020015151876060015151611057565b60c081015160a082015160608801515f9261042892611077565b9050610436825f0151611169565b156104aa5786516001600160a01b039081165f9081526002602052604090205461046891839133918b91879116611229565b86516001600160a01b03165f90815260056020526040902061048d90839060016112d4565b60c082015160a083015160608901516104a7929091611077565b90505b60606104b7838984611364565b8651939a5091985090965091506104cd90611a8a565b156105065787516001600160a01b039081165f9081526002602052604090205484519116906105029033848a8c8e8a88611aa4565b9650505b505050509193909250565b5f5f5f61051c610d4d565b836020015161052a81610f5f565b6105378560200151610f8a565b84608001515f0361055b576040516357a456b760e01b815260040160405180910390fd5b84606001516001600160a01b031685604001516001600160a01b0316036105955760405163a54b181d60e01b815260040160405180910390fd5b5f6105a586602001516001610f9b565b90505f6105b28783611c54565b90505f6105c0888385611cce565b90506105ce835f0151611d7f565b15610647576020808901516001600160a01b038082165f90815260029093526040909220546106009284929116611d8e565b6020808901516001600160a01b03165f90815260059091526040902061062990849060016112d4565b610634888484611e1d565b6040830152610644888385611cce565b90505b825161065290611ef8565b156106905760208089015160608401516001600160a01b038083165f908152600290945260409093205461068a938593929116611f07565b60608301525b5f61069d89848685611fd2565b8751939b50909950975091506106b290612461565b156106f0576020808a01516001600160a01b039081165f908152600290925260409091205485519116906106ec90838b338e898b88612470565b9850505b5f8951600181111561070457610704616c90565b0361071157879550610715565b8796505b50505050509193909250565b5f5f5f61072c610d4d565b6107346126b1565b8360400151610742816126da565b61074a610d0f565b5f85604001516001600160a01b03166338d52e0f6040518163ffffffff1660e01b8152600401602060405180830381865afa15801561078b573d5f5f3e3d5ffd5b505050506040513d601f19601f820116820180604052508101906107af9190616ca4565b90506107bf866040015182612713565b6107d186604001518760600151612762565b6001866020015160018111156107e9576107e9616c90565b0361085f575f610806875f01518389604001518a606001516127a5565b6040808b0151905193985091965092506001600160a01b0316907feeb740c90bf2b18c9532eb7d473137767036d893dff3e009f32718f821b2a4c090610851908890889086906169c1565b60405180910390a2506108cc565b5f610877875f01518389604001518a60600151612b3c565b6040808b0151905193985091965092506001600160a01b0316907f3771d13c67011e31e12031c54bb59b0bf544a80b81d280a3711e172aa8b7f47b906108c2908890889086906169c1565b60405180910390a2505b5f865160018111156108e0576108e0616c90565b0361092257856080015183101561091a57608086015160405163e2ea151b60e01b8152610911918591600401616c44565b60405180910390fd5b829450610952565b856080015184111561094e57608086015160405163e2ea151b60e01b8152610911918691600401616c44565b8394505b610960866040015186612762565b50610969610d98565b509193909250565b60605f61098361097f612f3d565b5c90565b90508015155f036109a1576109a1600161099b612f3d565b90612f61565b6109e284848080601f0160208091040260200160405190810160405280939291908181526020018383808284375f920191909152503393925050612f689050565b91508015155f03610a32576109f861097f612f75565b15610a16576040516320f1d86d60e01b815260040160405180910390fd5b610a225f61099b612f3d565b610a32610a2d612f99565b612fbd565b5092915050565b60605f6060610a46610d4d565b8351610a5181610f5f565b8451610a5c90610f8a565b610a7e610a6a61097f612f99565b86516001610a76612fd3565b929190612ff7565b5f610a8c865f01515f610f9b565b9050610aa2816020015151876040015151611057565b60c081015160a082015160408801515f92610abc9261301b565b9050610aca825f0151613103565b15610b3d5786516001600160a01b039081165f90815260026020526040902054610afc91339184918b91879116613112565b86516001600160a01b03165f908152600560205260408120610b20918491906112d4565b60c082015160a08301516040890151610b3a92909161301b565b90505b6060610b4a8389846131bd565b8651939a5090985096509150610b5f906137ad565b156105065787516001600160a01b039081165f908152600260205260409020548451911690610b949033848b8b8e8a886137bc565b975050505050509193909250565b610baa610d0f565b610bb2610d4d565b610bbc838261395b565b6001600160a01b0383165f9081526008602052604081208054839290610be3908490616c7d565b90915550610bfd90506001600160a01b0384168383613968565b610c05610d98565b505050565b5f610c13610ccd565b905090565b5f610c2533858585610e01565b5060015b9392505050565b5f5f83610c3c81613973565b6001600160a01b0385165f90815260036020908152604080832080548251818502810185019093528083529192909190830182828015610ca357602002820191905f5260205f20905b81546001600160a01b03168152600190910190602001808311610c85575b505050505090505f610cb5828761399b565b91519791965090945050505050565b5f610c13613a04565b7f000000000000000000000000000000000000000000000000000000000000000090565b365f5f375f5f365f845af43d5f5f3e808015610d0b573d5ff35b3d5ffd5b610d17613a04565b15610d3557604051633ee5aeb560e01b815260040160405180910390fd5b6102c760015f51602061767b5f395f51905f5261099b565b610d5861097f612f3d565b15155f036102c75760405163604dd39b60e11b815260040160405180910390fd5b610d9482610d8683613a16565b610d8f90616cbf565b613a20565b5050565b6102c75f5f51602061767b5f395f51905f5261099b565b5f610dbb858585613a8f565b90505f198114610dfa5780821115610dec57828183604051637dc7a0d960e11b815260040161091193929190616cd9565b610dfa858585858503613ae6565b5050505050565b6001600160a01b038316610e2a5782604051634b637e8f60e11b81526004016109119190616bf9565b6001600160a01b038216610e53578160405163ec442f0560e01b81526004016109119190616bf9565b6001600160a01b038085165f908152600f602090815260408083209387168352929052205480821115610e9f5783818360405163391434e360e21b815260040161091193929190616cd9565b6001600160a01b038581165f818152600f6020908152604080832089861680855290835281842088880390559488168084529281902080548801905551868152919392915f51602061765b5f395f51905f52910160405180910390a46040516323de665160e01b81526001600160a01b038616906323de665190610f2b90879087908790600401616cfa565b5f604051808303815f87803b158015610f42575f5ffd5b505af1158015610f54573d5f5f3e3d5ffd5b505050505050505050565b610f6881613c15565b610f875780604051634bdace1360e01b81526004016109119190616bf9565b50565b610f92613c36565b610f8781613c5c565b610fda6040518060e001604052805f81526020016060815260200160608152602001606081526020016060815260200160608152602001606081525090565b610fe2610d0f565b6001600160a01b0383165f908152600560209081526040808320838352818420546004845282852060039094529190932061102293859390929187613c85565b6001600160a01b0383165f908152600560209081526040808320600690925290912061104f918391614036565b61039d610d98565b808214610d945760405163aaad13f760e01b815260040160405180910390fd5b60605f8451905061108b818551855161417b565b5f816001600160401b038111156110a4576110a46165f4565b6040519080825280602002602001820160405280156110cd578160200160208202803683370190505b5090505f5b8281101561115f5761113a8682815181106110ef576110ef616d1e565b602002602001015186838151811061110957611109616d1e565b602002602001015189848151811061112357611123616d1e565b60200260200101516141a89092919063ffffffff16565b82828151811061114c5761114c616d1e565b60209081029190910101526001016110d2565b5095945050505050565b5f61039d611178826001616d32565b611183906001616d32565b61118e906001616d32565b611199906001616d32565b6111a4906001616d32565b6111af906001616d32565b6111ba906001616d32565b6111c5906001616d32565b6111d0906001616d32565b6111db906001616d32565b6111e6906001616d32565b6111f1906001616d32565b6111fc906001616d32565b611207906001616d32565b611212906001616d32565b61121d906001616d32565b839060ff161c60011690565b82516080808501516040808701519286015160a088015191516302e97e7d60e61b81526001600160a01b0387169563ba5f9f4095611273958c959294909391928e92600401616d5f565b6020604051808303815f875af115801561128f573d5f5f3e3d5ffd5b505050506040513d601f19601f820116820180604052508101906112b39190616dde565b15155f03610dfa57604051631557c43360e11b815260040160405180910390fd5b6020830151515f805b8281101561135c5761130b866040015182815181106112fe576112fe616d1e565b60200260200101516141bd565b8660a00151828151811061132157611321616d1e565b602002602001018181525050845f8281526020019081526020015f20549150611354868261134e8561428c565b87614298565b6001016112dd565b505050505050565b5f6060806060611372610d0f565b61137a616537565b6020880151518082526001600160401b0381111561139a5761139a6165f4565b6040519080825280602002602001820160405280156113c3578160200160208202803683370190505b50935060605f886080015160038111156113df576113df616c90565b0361152857604088015182519096506001600160401b03811115611405576114056165f4565b60405190808252806020026020018201604052801561142e578160200160208202803683370190505b50905061144b89608001516114458a5f0151614355565b8861436f565b935061146c61145b61097f612f99565b8951611465612fd3565b919061441e565b15611523575f61147e8a5f0151614433565b90505f5b8351811015611520576114b7828783815181106114a1576114a1616d1e565b602002602001015161451990919063ffffffff16565b8382815181106114c9576114c9616d1e565b6020026020010181815250508281815181106114e7576114e7616d1e565b602002602001015186828151811061150157611501616d1e565b602002602001018181516115159190616c7d565b905250600101611482565b50505b61176c565b60018860800151600381111561154057611540616c90565b036115c257885161155090614545565b87604001519550869350611567886060015161456f565b6040830181905260808a015189516115979290899061158590614355565b8d5161159090614433565b8d516145e9565b858460400151815181106115ad576115ad616d1e565b6020026020010181935082815250505061176c565b6002886080015160038111156115da576115da616c90565b036116965788516115ea90614545565b8693506115fa886060015161456f565b6040830181905260608901518051909190811061161957611619616d1e565b60200260200101518583604001518151811061163757611637616d1e565b60200260200101818152505061168c896080015183604001518685604001518151811061166657611666616d1e565b602002602001015161167a8c5f0151614355565b8d5161168590614433565b8d51614776565b909650905061176c565b6003886080015160038111156116ae576116ae616c90565b036117535788516116be90614aee565b87516040808a015160808c015160a08c01519251632ada38a360e21b81526001600160a01b039094169363ab68e28c9361170193339390928e9290600401616df7565b5f604051808303815f875af115801561171c573d5f5f3e3d5ffd5b505050506040513d5f823e601f3d908101601f191682016040526117439190810190616eeb565b929850909550909350905061176c565b60405163137a9a3960e01b815260040160405180910390fd5b8760400151861115611799578588604001516040516331d38e0b60e01b8152600401610911929190616c44565b6117a286614b18565b5f5b82518110156119af575f5f8683815181106117c1576117c1616d1e565b602002602001015190506117d481614b18565b8783815181106117e6576117e6616d1e565b60200260200101515f03611869576118438c60c00151848151811061180d5761180d616d1e565b60200260200101518d60a00151858151811061182b5761182b616d1e565b602002602001015183614b279092919063ffffffff16565b91508188848151811061185857611858616d1e565b602002602001018181525050611886565b87838151811061187b5761187b616d1e565b602002602001015191505b505f8b60200151838151811061189e5761189e616d1e565b602002602001015190508a6060015183815181106118be576118be616d1e565b60200260200101518210156119095780828c6060015185815181106118e5576118e5616d1e565b60200260200101516040516317bc2f2360e11b815260040161091193929190616cd9565b6119138183610d79565b61193c8c85858151811061192957611929616d1e565b60200260200101518d5f01518487614b3b565b85858151811061194e5761194e616d1e565b6020898101938452908102919091010191909152516119a59084906119739085616f85565b8e60600151868151811061198957611989616d1e565b602002602001015161199b9190616c7d565b8e91906001614298565b50506001016117a4565b5087516119bc908a614c59565b6119cf885f015189602001513389610daf565b6119d7614ccc565b156119ee576119ee885f0151896020015188614ce7565b611a00885f0151896020015188614d48565b87608001516003811115611a1657611a16616c90565b88602001516001600160a01b0316895f01516001600160a01b03167ffbe5b0d79fb94f1e81c0a92bf86ae9d3a19e9d1bf6202c0d3e75120f65d5d8a5611a5e8c5f0151614355565b8986604051611a6f93929190616f98565b60405180910390a45050611a81610d98565b93509350935093565b5f61039d611a99826001616d32565b611178906001616d32565b60605f5f836001600160a01b0316632754888d8b885f015189608001518b8e8e8c608001518e60a001516040518963ffffffff1660e01b8152600401611af1989796959493929190616fc2565b5f604051808303815f875af1158015611b0c573d5f5f3e3d5ffd5b505050506040513d5f823e601f3d908101601f19168201604052611b339190810190617049565b9092509050811580611b4757508751815114155b15611b65576040516303a6723b60e31b815260040160405180910390fd5b611b6e8b614ebb565b15155f03611b80578792505050611c48565b5f5b8151811015611c435786606001518181518110611ba157611ba1616d1e565b6020026020010151828281518110611bbb57611bbb616d1e565b60200260200101511015611c3b5785602001518181518110611bdf57611bdf616d1e565b6020026020010151828281518110611bf957611bf9616d1e565b602002602001015188606001518381518110611c1757611c17616d1e565b6020026020010151604051633ef629c960e21b815260040161091193929190616cd9565b600101611b82565b509150505b98975050505050505050565b611c7b60405180608001604052805f81526020015f81526020015f81526020015f81525090565b611c8d8260200151846040015161399b565b815260208201516060840151611ca3919061399b565b6020820152611cb3838383611e1d565b60408201528151611cc390614433565b606082015292915050565b611d136040805160e08101909152805f81526020015f8152602001606081526020015f81526020015f81526020015f6001600160a01b03168152602001606081525090565b6040518060e00160405280855f01516001811115611d3357611d33616c90565b81526020018460400151815260200183608001518152602001845f0151815260200184602001518152602001336001600160a01b031681526020018560c0015181525090509392505050565b5f61039d6111a4826001616d32565b604051635211fa7760e01b81526001600160a01b03821690635211fa7790611dbc908690869060040161714e565b6020604051808303815f875af1158015611dd8573d5f5f3e3d5ffd5b505050506040513d601f19601f82011682018060405250810190611dfc9190616dde565b15155f03610c055760405163e91e17e760e01b815260040160405180910390fd5b5f8084516001811115611e3257611e32616c90565b14611e9757611e928360c00151836020015181518110611e5457611e54616d1e565b6020026020010151611e868560a00151856020015181518110611e7957611e79616d1e565b6020026020010151614eca565b608087015191906141a8565b611ef0565b611ef08360c00151835f015181518110611eb357611eb3616d1e565b60200260200101518460a00151845f015181518110611ed457611ed4616d1e565b60200260200101518660800151614ef69092919063ffffffff16565b949350505050565b5f61039d6111af826001616d32565b5f5f5f836001600160a01b031663a0e8f5ac8888886040518463ffffffff1660e01b8152600401611f3a93929190617177565b6040805180830381865afa158015611f54573d5f5f3e3d5ffd5b505050506040513d601f19601f82011682018060405250810190611f7891906171a4565b90925090508115155f03611f9f576040516314fe5db560e21b815260040160405180910390fd5b670de0b5cad2bef000811115611fc8576040516301d1b96560e61b815260040160405180910390fd5b9695505050505050565b5f5f5f5f611fde610d0f565b611fff60405180606001604052805f81526020015f81526020015f81525090565b5f8951600181111561201357612013616c90565b03612043576060880151602087015161202b91614519565b80825260208701805161203f908390616c7d565b9052505b6120508660200151614f0b565b88602001516001600160a01b03166372c98186876040518263ffffffff1660e01b815260040161208091906171ce565b6020604051808303815f875af115801561209c573d5f5f3e3d5ffd5b505050506040513d601f19601f820116820180604052508101906120c09190616c52565b93506120cb84614f0b565b5f895160018111156120df576120df616c90565b0361217a57876040015186602001818152505061213c8760c0015189602001518151811061210f5761210f616d1e565b60200260200101516121348960a001518b6020015181518110611e7957611e79616d1e565b869190614b27565b60808a015160a08b015191965093508592508210156121755760a089015160405163e2ea151b60e01b8152610911918491600401616c44565b612231565b60608801516121949061218c81614f4c565b869190614f5e565b8082526121a19085616f85565b93506121f88760c00151895f0151815181106121bf576121bf616d1e565b60200260200101518860a001518a5f0151815181106121e0576121e0616d1e565b602002602001015186614fa39092919063ffffffff16565b60808a015160a08b015191965086945092508311156122315760a089015160405163e2ea151b60e01b8152610911918591600401616c44565b61223f89604001518461395b565b61224d896060015183610d79565b61226887825f01518b602001518c604001518c5f0151614b3b565b6040830181905260208301919091528851606089015180516122bd939187918490811061229757612297616d1e565b60200260200101516122a99190616f85565b6122b39190616c7d565b8991906001614298565b6122f288602001518389606001518b60200151815181106122e0576122e0616d1e565b60200260200101516122b39190616c7d565b6020808a01516001600160a01b03165f908152600590915260409020606088015189518151612359929190811061232b5761232b616d1e565b602002602001015189608001518b5f01518151811061234c5761234c616d1e565b6020026020010151614fb7565b815f8b5f015181526020019081526020015f20819055506123af88606001518a602001518151811061238d5761238d616d1e565b602002602001015189608001518b602001518151811061234c5761234c616d1e565b815f8b6020015181526020019081526020015f208190555089606001516001600160a01b03168a604001516001600160a01b03168b602001516001600160a01b03167f0874b2d545cb271cdbda4e093020c452328b24af12382ed62c4d00f5c26709db87878e606001518860200151604051612444949392919093845260208401929092526040830152606082015260800190565b60405180910390a45050612456610d98565b945094509450949050565b5f61039d611199826001616d32565b5f8080808751600181111561248757612487616c90565b146124975789866040015161249e565b85604001518a5b915091505f5f856001600160a01b03166318b6eb556040518061018001604052808c5f015160018111156124d4576124d4616c90565b81526020018c604001516001600160a01b031681526020018c606001516001600160a01b031681526020018781526020018681526020018a608001518c5f01518151811061252457612524616d1e565b602002602001015181526020018a608001518c602001518151811061254b5761254b616d1e565b602002602001015181526020018f81526020018e81526020018d6001600160a01b031681526020018c602001516001600160a01b031681526020018c60c001518152506040518263ffffffff1660e01b81526004016125aa91906171e0565b60408051808303815f875af11580156125c5573d5f5f3e3d5ffd5b505050506040513d601f19601f820116820180604052508101906125e991906171a4565b90925090508115155f0361261057604051630568a77b60e21b815260040160405180910390fd5b6126198d614ebb565b15155f0361262d578a945050505050611c48565b5f8951600181111561264157612641616c90565b14801561265157508860a0015181105b8061267c575060018951600181111561266c5761266c616c90565b14801561267c57508860a0015181115b156126a15760a089015160405163cc0e4a9960e01b8152610911918391600401616c44565b9c9b505050505050505050505050565b6126bc600754614ffb565b156102c757604051630f27df0960e01b815260040160405180910390fd5b6001600160a01b038181165f908152600e602052604090205416610f8757806040516385f4129960e01b81526004016109119190616bf9565b6001600160a01b038281165f908152600e6020526040902054811690821614610d94576040516336b18d0960e01b81526001600160a01b03808416600483015282166024820152604401610911565b7f0000000000000000000000000000000000000000000000000000000000000000811015610d9457816040516318fe738560e01b81526004016109119190616bf9565b5f8080808760018111156127bb576127bb616c90565b0361284d578360016001600160a01b038716634cdad5066127dc8385616c7d565b6040518263ffffffff1660e01b81526004016127fa91815260200190565b602060405180830381865afa158015612815573d5f5f3e3d5ffd5b505050506040513d601f19601f820116820180604052508101906128399190616c52565b6128439190616c7d565b90935091506128d5565b6001600160a01b038516630a28a477612867866001616f85565b6040518263ffffffff1660e01b815260040161288591815260200190565b602060405180830381865afa1580156128a0573d5f5f3e3d5ffd5b505050506040513d601f19601f820116820180604052508101906128c49190616c52565b6128cf906001616f85565b92508391505b506001600160a01b0384165f908152600b60205260409020546128f6614ccc565b612b3257816129048261428c565b10612958575f826129148361428c565b03905061293581856129268560801c90565b6129309190616f85565b614fb7565b6001600160a01b0387165f908152600b602052604090208190559150612b1e9050565b5f808089600181111561296d5761296d616c90565b03612a16575f61297d848961501e565b905061299b8161298c88613a16565b612996919061729d565b613a16565b604051635d043b2960e11b81529092506001600160a01b0389169063ba087652906129ce908590309081906004016172c4565b6020604051808303815f875af11580156129ea573d5f5f3e3d5ffd5b505050506040513d601f19601f82011682018060405250810190612a0e9190616c52565b925050612ab1565b5f612a2184896150da565b9050612a3a81612a3087613a16565b61299691906172e3565b604051632d182be560e21b81529093506001600160a01b0389169063b460af9490612a6d908690309081906004016172c4565b6020604051808303815f875af1158015612a89573d5f5f3e3d5ffd5b505050506040513d601f19601f82011682018060405250810190612aad9190616c52565b9150505b612abd88888484615118565b612aff8483612acb8661428c565b612ad59190616f85565b612adf9190616c7d565b8287612aeb8760801c90565b612af59190616f85565b6129309190616c7d565b6001600160a01b0388165f908152600b60205260409020819055925050505b612b28858461395b565b612b328683610d79565b9450945094915050565b5f808080876001811115612b5257612b52616c90565b03612be4578360016001600160a01b03871663ef8b30f7612b738385616c7d565b6040518263ffffffff1660e01b8152600401612b9191815260200190565b602060405180830381865afa158015612bac573d5f5f3e3d5ffd5b505050506040513d601f19601f82011682018060405250810190612bd09190616c52565b612bda9190616c7d565b9093509150612c6c565b6001600160a01b03851663b3d7f6b9612bfe866001616f85565b6040518263ffffffff1660e01b8152600401612c1c91815260200190565b602060405180830381865afa158015612c37573d5f5f3e3d5ffd5b505050506040513d601f19601f82011682018060405250810190612c5b9190616c52565b612c66906001616f85565b92508391505b506001600160a01b0384165f908152600b6020526040902054612c8d614ccc565b612b325781612c9c8260801c90565b10612cf0575f82612cad8360801c90565b039050612ccd84612cbd8461428c565b612cc79190616f85565b82614fb7565b6001600160a01b0387165f908152600b602052604090208190559150612f299050565b5f8080896001811115612d0557612d05616c90565b03612db0575f612d1584896150da565b9050612d248161298c88613a16565b9250612d3a6001600160a01b038a168985615170565b604051636e553f6560e01b81526001600160a01b03891690636e553f6590612d689086903090600401617302565b6020604051808303815f875af1158015612d84573d5f5f3e3d5ffd5b505050506040513d601f19601f82011682018060405250810190612da89190616c52565b915050612ebc565b5f612dbb848961501e565b9050612dca81612a3087613a16565b60405163b3d7f6b960e01b8152600481018290529092506001600160a01b0389169063b3d7f6b990602401602060405180830381865afa158015612e10573d5f5f3e3d5ffd5b505050506040513d601f19601f82011682018060405250810190612e349190616c52565b9250612e4a6001600160a01b038a168985615170565b6040516394bf804d60e01b81526001600160a01b038916906394bf804d90612e789085903090600401617302565b6020604051808303815f875af1158015612e94573d5f5f3e3d5ffd5b505050506040513d601f19601f82011682018060405250810190612eb89190616c52565b9250505b612ed06001600160a01b038916885f615170565b612edc8888848461517b565b612f0a8286612eea8661428c565b612ef49190616f85565b612efe9190616c7d565b8583612aeb8760801c90565b6001600160a01b0388165f908152600b60205260409020819055925050505b612f33868461395b565b612b328583610d79565b7f000000000000000000000000000000000000000000000000000000000000000090565b80825d5050565b6060610c2983835f6151c5565b7f000000000000000000000000000000000000000000000000000000000000000090565b7f000000000000000000000000000000000000000000000000000000000000000090565b610f87612fcc825c6001616f85565b8290612f61565b7f000000000000000000000000000000000000000000000000000000000000000090565b6130158161099b6130128561300c8989615256565b90615256565b90565b50505050565b60605f8451905061302f818551855161417b565b5f816001600160401b03811115613048576130486165f4565b604051908082528060200260200182016040528015613071578160200160208202803683370190505b5090505f5b8281101561115f576130de86828151811061309357613093616d1e565b60200260200101518683815181106130ad576130ad616d1e565b60200260200101518984815181106130c7576130c7616d1e565b6020026020010151614ef69092919063ffffffff16565b8282815181106130f0576130f0616d1e565b6020908102919091010152600101613076565b5f61039d61118e826001616d32565b825160808085015160608601519185015160a08701516040516345421ec760e01b81526001600160a01b038716956345421ec79561315c958d95929490938d939190600401617329565b6020604051808303815f875af1158015613178573d5f5f3e3d5ffd5b505050506040513d601f19601f8201168201806040525081019061319c9190616dde565b15155f03610dfa576040516305975b2960e11b815260040160405180910390fd5b6060805f60606131cb610d0f565b6131d3616537565b6020880151518082526001600160401b038111156131f3576131f36165f4565b60405190808252806020026020018201604052801561321c578160200160208202803683370190505b50945060605f8860800151600481111561323857613238616c90565b036132ab57606088015182519094506001600160401b0381111561325e5761325e6165f4565b604051908082528060200260200182016040528015613287578160200160208202803683370190505b5090506132a4896080015161329e8a5f0151614355565b86615267565b94506134f6565b6003886080015160048111156132c3576132c3616c90565b036133235788516132d39061530c565b86516001600160401b038111156132ec576132ec6165f4565b604051908082528060200260200182016040528015613315578160200160208202803683370190505b5090505f93508694506134f6565b60018860800151600481111561333b5761333b616c90565b0361338d57885161334b90614545565b86945061335c886040015187615336565b6133838960800151886133718b5f0151614355565b8c5161337c90614433565b8c51615357565b90945090506134f6565b6002886080015160048111156133a5576133a5616c90565b036134235788516133b590614545565b876060015193506133c58761456f565b6040830181905260808a015189518997506133f8929087906133e690614355565b8d516133f190614433565b8d5161570b565b8684604001518151811061340e5761340e616d1e565b602002602001018193508281525050506134f6565b60048860800151600481111561343b5761343b616c90565b036134dd57885161344b90615893565b8751606089015160808b015160a08b015160405163e4c4366360e01b81526001600160a01b039094169363e4c436639361348b9333938e93600401617377565b5f604051808303815f875af11580156134a6573d5f5f3e3d5ffd5b505050506040513d5f823e601f3d908101601f191682016040526134cd91908101906173b2565b92975090955090935090506134f6565b604051636c02b39560e01b815260040160405180910390fd5b8760600151841015613522576060880151604051638d261d5d60e01b8152610911918691600401616c44565b61352b84614b18565b5f5b825181101561371f575f5f87838151811061354a5761354a616d1e565b6020026020010151905061355d81614b18565b88838151811061356f5761356f616d1e565b60200260200101515f036135f2576135cc8c60c00151848151811061359657613596616d1e565b60200260200101518d60a0015185815181106135b4576135b4616d1e565b602002602001015183614fa39092919063ffffffff16565b9150818984815181106135e1576135e1616d1e565b60200260200101818152505061360f565b88838151811061360457613604616d1e565b602002602001015191505b505f8b60200151838151811061362757613627616d1e565b602002602001015190508a60400151838151811061364757613647616d1e565b60200260200101518211156136925780828c60400151858151811061366e5761366e616d1e565b60200260200101516040516323b6a17960e21b815260040161091193929190616cd9565b61369c818361395b565b6136b28c85858151811061192957611929616d1e565b8585815181106136c4576136c4616d1e565b602002602001018760200182815250828152505050613715838660200151848f6060015187815181106136f9576136f9616d1e565b602002602001015161370b9190616f85565b61199b9190616c7d565b505060010161352d565b50875161372c908a614c59565b61373e885f01518960200151866158bd565b8760800151600481111561375457613754616c90565b88602001516001600160a01b0316895f01516001600160a01b03167fa26a52d8d53702bba7f137907b8e1f99ff87f6d450144270ca25e72481cca87161379c8c5f0151614355565b8a86604051611a6f93929190616f98565b5f61039d611183826001616d32565b60605f5f836001600160a01b031663976907cc8b885f015189608001518d8d8d8c608001518e60a001516040518963ffffffff1660e01b815260040161380998979695949392919061740a565b5f604051808303815f875af1158015613824573d5f5f3e3d5ffd5b505050506040513d5f823e601f3d908101601f1916820160405261384b9190810190617049565b909250905081158061385f57508751815114155b1561387d5760405163e124916560e01b815260040160405180910390fd5b6138868b614ebb565b15155f03613898578792505050611c48565b5f5b8151811015611c4357866040015181815181106138b9576138b9616d1e565b60200260200101518282815181106138d3576138d3616d1e565b6020026020010151111561395357856020015181815181106138f7576138f7616d1e565b602002602001015182828151811061391157613911616d1e565b60200260200101518860400151838151811061392f5761392f616d1e565b602002602001015160405163677d1d7d60e11b815260040161091193929190616cd9565b60010161389a565b610d9482610d8f83613a16565b610c058383836159e2565b61397c81615a2c565b610f8757806040516327946f5760e21b81526004016109119190616bf9565b5f805b83518110156139e857826001600160a01b03168482815181106139c3576139c3616d1e565b60200260200101516001600160a01b0316036139e057905061039d565b60010161399e565b508160405163ddef98d760e01b81526004016109119190616bf9565b5f51602061767b5f395f51905f525c90565b5f61039d82615a4d565b805f03613a2b575050565b5f613a3e83613a38615a66565b90615a8a565b90505f613a4b838361729d565b9050805f03613a6957613a64613a5f612f75565b615a9b565b613a7b565b815f03613a7b57613a7b610a2d612f75565b6130158482613a88615a66565b9190615aaa565b5f816001600160a01b0316836001600160a01b031603613ab157505f19610c29565b506001600160a01b038084165f9081526010602090815260408083208685168452825280832093851683529290522054610c29565b6001600160a01b038316613b0f578260405163e602df0560e01b81526004016109119190616bf9565b6001600160a01b038216613b385781604051634a1406b160e11b81526004016109119190616bf9565b6001600160a01b038085165f8181526010602090815260408083208886168452825280832094871683529390528290208390559051630ad0fe5760e31b8152635687f2b890613b8f90869086908690600401616cfa565b5f604051808303815f87803b158015613ba6575f5ffd5b505af1925050508015613bb7575060015b50816001600160a01b0316836001600160a01b0316856001600160a01b03167fa0175360a15bca328baf7ea85c7b784d58b222a50d0ce760b10dba336d226a6184604051613c0791815260200190565b60405180910390a450505050565b6001600160a01b0381165f90815260208190526040812054610c2981615abb565b613c3e615aca565b156102c7576040516336a7e2cd60e21b815260040160405180910390fd5b613c6581615b07565b15610f87578060405163d971f59760e01b81526004016109119190616bf9565b8154848752604080516020808402820181019092528281529084908390830182828015613cd957602002820191905f5260205f20905b81546001600160a01b03168152600190910190602001808311613cbb575b50505050508760200181905250806001600160401b03811115613cfe57613cfe6165f4565b604051908082528060200260200182016040528015613d4757816020015b604080516060810182525f80825260208083018290529282015282525f19909201910181613d1c5790505b506040880152806001600160401b03811115613d6557613d656165f4565b604051908082528060200260200182016040528015613d8e578160200160208202803683370190505b506060880152806001600160401b03811115613dac57613dac6165f4565b604051908082528060200260200182016040528015613dd5578160200160208202803683370190505b5060808801528651613de79082615b12565b60c0880152806001600160401b03811115613e0457613e046165f4565b604051908082528060200260200182016040528015613e2d578160200160208202803683370190505b5060a088015286515f90613e4090615abb565b8015613e5657505f613e54895f0151615bcb565b115b8015613e6a57508751613e6890615cbe565b155b90505f5b82811015610f54575f865f8b602001518481518110613e8f57613e8f616d1e565b6020908102919091018101516001600160a01b0316825281019190915260409081015f208151606081019092528054829060ff166001811115613ed457613ed4616c90565b6001811115613ee557613ee5616c90565b8152905461010081046001600160a01b0316602080840191909152600160a81b90910460ff1615156040928301525f858152908c905281902054908c01518051929350909183919085908110613f3d57613f3d616d1e565b6020026020010181905250613f51826141bd565b8b60a001518481518110613f6757613f67616d1e565b602002602001018181525050613f878b84613f818461428c565b89614298565b8315155f03613f9757505061402e565b5f82604001518015613fbb5750600183516001811115613fb957613fb9616c90565b145b9050801561402a575f613fd08d5f0151615bcb565b90505f8d606001518681518110613fe957613fe9616d1e565b602002602001015190505f6140098f6140028760801c90565b8986615ccd565b90508015614026576140268f886140208486616c7d565b8d614298565b5050505b5050505b600101613e6e565b6060830151515f5b81811015610dfa575f8560200151828151811061405d5761405d616d1e565b602002602001015190505f855f8481526020019081526020015f205490505f6140858261428c565b90508760600151848151811061409d5761409d616d1e565b6020026020010151811115614128576001600160a01b0383165f908152602087905260409020546060890151805161410e9190879081106140e0576140e0616d1e565b6020026020010151836140f39190616c7d565b6140fd8360801c90565b6141079190616f85565b8290615d4a565b6001600160a01b0385165f90815260208990526040902055505b61415f8860600151858151811061414157614141616d1e565b60200260200101518960800151868151811061234c5761234c616d1e565b5f8581526020899052604090205550506001909101905061403e565b818314158061418a5750808214155b15610c055760405163aaad13f760e01b815260040160405180910390fd5b5f611ef0826141b7858761746e565b90614519565b80515f90818160018111156141d4576141d4616c90565b036141e957670de0b6b3a76400009150614286565b60018160018111156141fd576141fd616c90565b0361426d5782602001516001600160a01b031663679aefce6040518163ffffffff1660e01b8152600401602060405180830381865afa158015614242573d5f5f3e3d5ffd5b505050506040513d601f19601f820116820180604052508101906142669190616c52565b9150614286565b604051636fa2831960e11b815260040160405180910390fd5b50919050565b6001600160801b031690565b81846060015184815181106142af576142af616d1e565b60209081029190910101526165555f8260018111156142d0576142d0616c90565b146142dd57614ef66142e1565b6141a85b905061432c838660c0015186815181106142fd576142fd616d1e565b60200260200101518760a00151878151811061431b5761431b616d1e565b60200260200101518463ffffffff16565b8560800151858151811061434257614342616d1e565b6020026020010181815250505050505050565b6001600160a01b03165f9081526011602052604090205490565b606083516001600160401b0381111561438a5761438a6165f4565b6040519080825280602002602001820160405280156143b3578160200160208202803683370190505b5090505f5b84518110156144165783838683815181106143d5576143d5616d1e565b60200260200101516143e7919061746e565b6143f19190617499565b82828151811061440357614403616d1e565b60209081029190910101526001016143b8565b509392505050565b5f611ef061097f6130128461300c8888615256565b5f64174876e80061450f614448836001616d32565b614453906001616d32565b61445e906001616d32565b614469906001616d32565b614474906001616d32565b61447f906001616d32565b61448a906001616d32565b614495906001616d32565b6144a0906001616d32565b6144ab906001616d32565b6144b6906001616d32565b6144c1906001616d32565b6144cc906001616d32565b6144d7906001616d32565b6144e2906001616d32565b6144ed906001616d32565b6144f8906001616d32565b614503906001616d32565b849060ff166018615d5d565b61039d919061746e565b5f80614525838561746e565b90506001670de0b6b3a76400006001830304018115150291505092915050565b61454e81615d6b565b15155f03610f875760405163353d5de760e21b815260040160405180910390fd5b8051805f5b818110156145c85783818151811061458e5761458e616d1e565b60200260200101515f146145c0578183146145bc57604051636b8c3be560e01b815260040160405180910390fd5b8092505b600101614574565b5080821061428657604051631f91af7760e21b815260040160405180910390fd5b5f6060816145f78787616c7d565b90505f6146048288615d81565b90506146108582615d95565b60405162b5059f60e51b81525f906001600160a01b038716906316a0b3e090614641908e908e9087906004016174ac565b602060405180830381865afa15801561465c573d5f5f3e3d5ffd5b505050506040513d601f19601f820116820180604052508101906146809190616c52565b90505f818c8c8151811061469657614696616d1e565b60200260200101516146a89190616c7d565b90505f6146d98d8d815181106146c0576146c0616d1e565b60200260200101518b87614f5e9092919063ffffffff16565b90505f6146e68483616c7d565b90505f6146f3828c614519565b90508e516001600160401b0381111561470e5761470e6165f4565b604051908082528060200260200182016040528015614737578160200160208202803683370190505b50975080888f8151811061474d5761474d616d1e565b60209081029190910101526147628185616c7d565b985050505050505050965096945050505050565b85515f9060609082816001600160401b03811115614796576147966165f4565b6040519080825280602002602001820160405280156147bf578160200160208202803683370190505b5090505f5b828110156148175760018b82815181106147e0576147e0616d1e565b60200260200101516147f29190616c7d565b82828151811061480457614804616d1e565b60209081029190910101526001016147c4565b5087818a8151811061482b5761482b616d1e565b602002602001015161483d9190616c7d565b818a8151811061484f5761484f616d1e565b6020908102919091010152604051631309bd3d60e31b81525f906001600160a01b0387169063984de9e89061488a908e9085906004016174d0565b602060405180830381865afa1580156148a5573d5f5f3e3d5ffd5b505050506040513d601f19601f820116820180604052508101906148c99190616c52565b90505f61494382886001600160a01b031663984de9e8865f6040518363ffffffff1660e01b81526004016148fe9291906174d0565b602060405180830381865afa158015614919573d5f5f3e3d5ffd5b505050506040513d601f19601f8201168201806040525081019061493d9190616c52565b90615d81565b905061494f8782615d95565b5f838c8151811061496257614962616d1e565b60200260200101516149968e8e8151811061497f5761497f616d1e565b60200260200101518461451990919063ffffffff16565b6149a09190616c7d565b90505f816149b76149b08c614f4c565b8490615d81565b6149c19190616c7d565b905080858e815181106149d6576149d6616d1e565b60200260200101516149e89190616c7d565b858e815181106149fa576149fa616d1e565b6020908102919091010152604051631309bd3d60e31b81525f906001600160a01b038b169063984de9e890614a369089906001906004016174d0565b602060405180830381865afa158015614a51573d5f5f3e3d5ffd5b505050506040513d601f19601f82011682018060405250810190614a759190616c52565b9050866001600160401b03811115614a8f57614a8f6165f4565b604051908082528060200260200182016040528015614ab8578160200160208202803683370190505b50975081888f81518110614ace57614ace616d1e565b6020908102919091010152614762614ae68287616c7d565b8d9087614f5e565b614af781615e1d565b15155f03610f875760405163033c2a5760e61b815260040160405180910390fd5b8015610f8757610f8781614f0b565b5f611ef084614b36848661746e565b615e2c565b5f808515614c4f57614b928760c001518481518110614b5c57614b5c616d1e565b60200260200101518860a001518581518110614b7a57614b7a616d1e565b602002602001015188614b279092919063ffffffff16565b9150614ba0875f0151615cbe565b15155f03614c4f575f614bb5885f0151615e4c565b9050614bc18382615f2b565b915082821115614be457604051634c69ac5d60e01b815260040160405180910390fd5b6001600160a01b038087165f90815260066020908152604080832093891683529290522054614c2783614c168361428c565b614c209190616f85565b8290615f4b565b6001600160a01b038089165f908152600660209081526040808320938b168352929052205550505b9550959350505050565b6001600160a01b0382165f908152600560205260408120905b82606001515181101561301557614cb683606001518281518110614c9857614c98616d1e565b60200260200101518460800151838151811061234c5761234c616d1e565b5f82815260208490526040902055600101614c72565b5f32158015610c135750614ce1600754615f5a565b15905090565b32155f03614d08576040516333fc255960e11b815260040160405180910390fd5b6001600160a01b038084165f908152600f6020908152604080832093861683529290529081208054839290614d3e908490616f85565b9091555050505050565b6001600160a01b038216614d715781604051634b637e8f60e11b81526004016109119190616bf9565b6001600160a01b038084165f908152600f602090815260408083209386168352929052205480821115614dbd5782818360405163391434e360e21b815260040161091193929190616cd9565b6001600160a01b038085165f818152600f6020908152604080832094881683529381528382208686039055918152601190915290812054614dff908490616c7d565b9050614e0a81615f64565b6001600160a01b0385165f81815260116020526040808220849055516323de665160e01b81526323de665191614e47918891908890600401616cfa565b5f604051808303815f87803b158015614e5e575f5ffd5b505af1925050508015614e6f575060015b505f6001600160a01b0316846001600160a01b0316866001600160a01b03165f51602061765b5f395f51905f5286604051614eac91815260200190565b60405180910390a45050505050565b5f61039d6111c5826001616d32565b5f670de0b6b3a764000080830402808314614eef57614eea836001616f85565b610c29565b5090919050565b5f611ef082614f05858761746e565b90615f2b565b7f0000000000000000000000000000000000000000000000000000000000000000811015610f87576040516303da9a2360e31b815260040160405180910390fd5b670de0b6b3a764000081810391100290565b5f815f03614f7f57604051630a0c22c760e01b815260040160405180910390fd5b5f614f8a848661746e565b9050600183600183030401811515029150509392505050565b5f611ef084614fb2848661746e565b615d81565b5f6001600160801b03831180614fd357506001600160801b0382115b15614ff1576040516389560ca160e01b815260040160405180910390fd5b610c298383615f8b565b5f61039d61500a826001616f85565b615015906001616f85565b83901c60011690565b5f5f61502d6129968560801c90565b90505f8061503a8661428c565b11156150bb576150b8846001600160a01b0316630a28a47761505b8861428c565b6040518263ffffffff1660e01b815260040161507991815260200190565b602060405180830381865afa158015615094573d5f5f3e3d5ffd5b505050506040513d601f19601f820116820180604052508101906129969190616c52565b90505b60026150c782846172e3565b6150d191906174fa565b95945050505050565b5f5f6150e86129968561428c565b90505f806150f68660801c90565b11156150bb576150b8846001600160a01b031663b3d7f6b961505b8860801c90565b6001600160a01b0384165f9081526008602052604081205461513b908490616f85565b6001600160a01b0385165f9081526008602052604081205491925090615162908490616c7d565b905061135c86868484615f9a565b610c058383836160fa565b6001600160a01b0384165f9081526008602052604081205461519e908490616c7d565b6001600160a01b0385165f9081526008602052604081205491925090615162908490616f85565b6060814710156151ec57478260405163cf47918160e01b8152600401610911929190616c44565b5f5f856001600160a01b031684866040516152079190617526565b5f6040518083038185875af1925050503d805f8114615241576040519150601f19603f3d011682016040523d82523d5f602084013e615246565b606091505b5091509150611fc886838361617a565b5f9081526020919091526040902090565b606083516001600160401b03811115615282576152826165f4565b6040519080825280602002602001820160405280156152ab578160200160208202803683370190505b5090505f5b8451811015614416576152e783858784815181106152d0576152d0616d1e565b6020026020010151614f5e9092919063ffffffff16565b8282815181106152f9576152f9616d1e565b60209081029190910101526001016152b0565b615315816161c8565b15155f03610f875760405163efe0265d60e01b815260040160405180910390fd5b81518151615345908290611057565b6020810260208401602084015e505050565b84515f9060609082816001600160401b03811115615377576153776165f4565b6040519080825280602002602001820160405280156153a0578160200160208202803683370190505b509050816001600160401b038111156153bb576153bb6165f4565b6040519080825280602002602001820160405280156153e4578160200160208202803683370190505b5092505f5b8281101561546057600189828151811061540557615405616d1e565b60200260200101518b838151811061541f5761541f616d1e565b60200260200101516154319190616f85565b61543b9190616c7d565b82828151811061544d5761544d616d1e565b60209081029190910101526001016153e9565b50604051631309bd3d60e31b81525f906001600160a01b0387169063984de9e890615491908d9085906004016174d0565b602060405180830381865afa1580156154ac573d5f5f3e3d5ffd5b505050506040513d601f19601f820116820180604052508101906154d09190616c52565b90505f61554b82886001600160a01b031663984de9e88660016040518363ffffffff1660e01b81526004016155069291906174d0565b602060405180830381865afa158015615521573d5f5f3e3d5ffd5b505050506040513d601f19601f820116820180604052508101906155459190616c52565b90615e2c565b905061555787826161d7565b5f5b84811015615668575f61558e8d838151811061557757615577616d1e565b602002602001015184615f2b90919063ffffffff16565b9050808583815181106155a3576155a3616d1e565b6020026020010151111561565f575f818684815181106155c5576155c5616d1e565b60200260200101510390506155e38b8261451990919063ffffffff16565b8884815181106155f5576155f5616d1e565b60200260200101818152505087838151811061561357615613616d1e565b602002602001015186848151811061562d5761562d616d1e565b602002602001015161563f9190616c7d565b86848151811061565157615651616d1e565b602002602001018181525050505b50600101615559565b50604051631309bd3d60e31b81525f906001600160a01b0389169063984de9e89061569a9087906001906004016174d0565b602060405180830381865afa1580156156b5573d5f5f3e3d5ffd5b505050506040513d601f19601f820116820180604052508101906156d99190616c52565b9050826156e68183616c7d565b6156f0908c61746e565b6156fa9190617499565b965050505050509550959350505050565b5f6060816157198688616f85565b90505f6157268288615d81565b905061573285826161d7565b60405162b5059f60e51b81525f906001600160a01b038716906316a0b3e090615763908e908e9087906004016174ac565b602060405180830381865afa15801561577e573d5f5f3e3d5ffd5b505050506040513d601f19601f820116820180604052508101906157a29190616c52565b90505f8b8b815181106157b7576157b7616d1e565b6020026020010151826157ca9190616c7d565b90505f898d8d815181106157e0576157e0616d1e565b6020026020010151866157f3919061746e565b6157fd9190617499565b90505f61580a8285616c7d565b90505f8161581a6149b08d614f4c565b6158249190616c7d565b90508e516001600160401b0381111561583f5761583f6165f4565b604051908082528060200260200182016040528015615868578160200160208202803683370190505b50975080888f8151811061587e5761587e616d1e565b60209081029190910101526147628185616f85565b61589c8161625f565b15155f03610f875760405163121db02f60e21b815260040160405180910390fd5b6001600160a01b0382166158e6578160405163ec442f0560e01b81526004016109119190616bf9565b6001600160a01b0383165f90815260116020526040812054615909908390616f85565b6001600160a01b038086165f908152600f60209081526040808320938816835292905220805484019055905061593e81615f64565b6001600160a01b038481165f81815260116020908152604080832086905551868152938716939192915f51602061765b5f395f51905f52910160405180910390a46040516323de665160e01b81526001600160a01b038516906323de6651906159af905f9087908790600401616cfa565b5f604051808303815f87803b1580156159c6575f5ffd5b505af11580156159d8573d5f5f3e3d5ffd5b5050505050505050565b816014528060345263a9059cbb60601b5f5260205f604460105f875af18060015f511416615a2257803d853b151710615a22576390b8ec185f526004601cfd5b505f603452505050565b6001600160a01b0381165f90815260208190526040812054610c2981615f5a565b5f5f8212615a59575090565b615a6161626e565b919050565b7f000000000000000000000000000000000000000000000000000000000000000090565b5f610c2961097f6130128585615256565b610f87612fcc6001835c616c7d565b610c058161099b6130128686615256565b5f61039d61121d826001616d32565b5f7f000000000000000000000000000000000000000000000000000000000000000063ffffffff164211158015610c135750610c1360075461627b565b5f5f6144168361628a565b60605f826001600160401b03811115615b2d57615b2d6165f4565b604051908082528060200260200182016040528015615b56578160200160208202803683370190505b5090505f615b6385616303565b64ffffffffff1690505f5b84811015615bc1575f615b8e615b8560058461746e565b84906005615d5d565b9050615b9b81600a61761f565b848381518110615bad57615bad616d1e565b602090810291909101015250600101615b6e565b5090949350505050565b5f64174876e80061450f601880615be3856001616d32565b615bee906001616d32565b615bf9906001616d32565b615c04906001616d32565b615c0f906001616d32565b615c1a906001616d32565b615c25906001616d32565b615c30906001616d32565b615c3b906001616d32565b615c46906001616d32565b615c51906001616d32565b615c5c906001616d32565b615c67906001616d32565b615c72906001616d32565b615c7d906001616d32565b615c88906001616d32565b615c93906001616d32565b615c9e906001616d32565b60ff16615cab9190616f85565b615cb59190616f85565b84906018615d5d565b5f61039d611207826001616d32565b5f5f85608001518481518110615ce557615ce5616d1e565b6020026020010151905084811115615d41575f615d0486830385614519565b9050615d3d8760c001518681518110615d1f57615d1f616d1e565b60200260200101518860a00151878151811061182b5761182b616d1e565b9250505b50949350505050565b5f610c29615d578461428c565b83614fb7565b6001901b5f190191901c1690565b5f615d7a6111fc826001616d32565b1592915050565b5f610c2983670de0b6b3a764000084614f5e565b5f826001600160a01b031663b677fa566040518163ffffffff1660e01b8152600401602060405180830381865afa158015615dd2573d5f5f3e3d5ffd5b505050506040513d601f19601f82011682018060405250810190615df69190616c52565b905080821015610c0557818160405163718e4adf60e11b8152600401610911929190616c44565b5f61039d6111e6826001616d32565b5f80615e40670de0b6b3a76400008561746e565b9050611ef08382617499565b5f64174876e80061450f6018615e63846001616d32565b615e6e906001616d32565b615e79906001616d32565b615e84906001616d32565b615e8f906001616d32565b615e9a906001616d32565b615ea5906001616d32565b615eb0906001616d32565b615ebb906001616d32565b615ec6906001616d32565b615ed1906001616d32565b615edc906001616d32565b615ee7906001616d32565b615ef2906001616d32565b615efd906001616d32565b615f08906001616d32565b615f13906001616d32565b615f1e906001616d32565b60ff16615cb59190616f85565b5f80615f37838561746e565b9050611ef0670de0b6b3a764000082617499565b5f610c29826129308560801c90565b5f6001821661039d565b620f4240811015610f87576040516334e3483f60e21b815260048101829052602401610911565b5f610c2983608084901b616f85565b6040516370a0823160e01b81525f906001600160a01b038616906370a0823190615fc8903090600401616bf9565b602060405180830381865afa158015615fe3573d5f5f3e3d5ffd5b505050506040513d601f19601f820116820180604052508101906160079190616c52565b90508281101561603057838382604051631c6a537560e01b815260040161091193929190616cd9565b6001600160a01b038086165f90815260086020526040808220849055516370a0823160e01b815290918616906370a0823190616070903090600401616bf9565b602060405180830381865afa15801561608b573d5f5f3e3d5ffd5b505050506040513d601f19601f820116820180604052508101906160af9190616c52565b9050828110156160d857848382604051631149424d60e01b815260040161091193929190616cd9565b6001600160a01b039094165f9081526008602052604090209390935550505050565b816014528060345263095ea7b360601b5f5260205f604460105f875af18060015f511416615a2257803d853b151710615a22575f60345263095ea7b360601b5f525f38604460105f885af1508160345260205f604460105f885af190508060015f511416615a2257803d853b151710615a2257633e3f8f735f526004601cfd5b60608261618a57614eea826163fb565b81511580156161a157506001600160a01b0384163b155b156161c15783604051639996b31560e01b81526004016109119190616bf9565b5080610c29565b5f61039d6111db826001616d32565b5f826001600160a01b031663273c1adf6040518163ffffffff1660e01b8152600401602060405180830381865afa158015616214573d5f5f3e3d5ffd5b505050506040513d601f19601f820116820180604052508101906162389190616c52565b905080821115610c05578181604051630fa2583760e21b8152600401610911929190616c44565b5f61039d6111f1826001616d32565b6335278d125f526004601cfd5b5f61039d615015826001616f85565b6001600160a01b0381165f908152602081905260408120548190816162ae82616424565b90505f6162ba83616433565b90508180156162f857506162ee7f00000000000000000000000000000000000000000000000000000000000000008261762a565b63ffffffff164211155b969095509350505050565b5f61039d60188080616316856001616d32565b616321906001616d32565b61632c906001616d32565b616337906001616d32565b616342906001616d32565b61634d906001616d32565b616358906001616d32565b616363906001616d32565b61636e906001616d32565b616379906001616d32565b616384906001616d32565b61638f906001616d32565b61639a906001616d32565b6163a5906001616d32565b6163b0906001616d32565b6163bb906001616d32565b6163c6906001616d32565b6163d1906001616d32565b60ff166163de9190616f85565b6163e89190616f85565b6163f29190616f85565b83906028615d5d565b80511561640b5780518082602001fd5b60405163d6bda27560e01b815260040160405180910390fd5b5f61039d611212826001616d32565b5f61039d602860188080616448866001616d32565b616453906001616d32565b61645e906001616d32565b616469906001616d32565b616474906001616d32565b61647f906001616d32565b61648a906001616d32565b616495906001616d32565b6164a0906001616d32565b6164ab906001616d32565b6164b6906001616d32565b6164c1906001616d32565b6164cc906001616d32565b6164d7906001616d32565b6164e2906001616d32565b6164ed906001616d32565b6164f8906001616d32565b616503906001616d32565b60ff166165109190616f85565b61651a9190616f85565b6165249190616f85565b61652e9190616f85565b83906020615d5d565b60405180606001604052805f81526020015f81526020015f81525090565b6102c7617646565b6001600160a01b0381168114610f87575f5ffd5b8035615a618161655d565b5f5f6040838503121561658d575f5ffd5b82356165988161655d565b946020939093013593505050565b5f5f5f5f608085870312156165b9575f5ffd5b84356165c48161655d565b935060208501356165d48161655d565b925060408501356165e48161655d565b9396929550929360600135925050565b634e487b7160e01b5f52604160045260245ffd5b60405160c081016001600160401b038111828210171561662a5761662a6165f4565b60405290565b60405160e081016001600160401b038111828210171561662a5761662a6165f4565b604051601f8201601f191681016001600160401b038111828210171561667a5761667a6165f4565b604052919050565b5f6001600160401b0382111561669a5761669a6165f4565b5060051b60200190565b5f82601f8301126166b3575f5ffd5b81356166c66166c182616682565b616652565b8082825260208201915060208360051b8601019250858311156166e7575f5ffd5b602085015b8381101561115f5780358352602092830192016166ec565b803560048110615a61575f5ffd5b5f6001600160401b0382111561672a5761672a6165f4565b50601f01601f191660200190565b5f82601f830112616747575f5ffd5b81356167556166c182616712565b818152846020838601011115616769575f5ffd5b816020850160208301375f918101602001919091529392505050565b5f60208284031215616795575f5ffd5b81356001600160401b038111156167aa575f5ffd5b820160c081850312156167bb575f5ffd5b6167c3616608565b6167cc82616571565b81526167da60208301616571565b60208201526040828101359082015260608201356001600160401b03811115616801575f5ffd5b61680d868285016166a4565b60608301525061681f60808301616704565b608082015260a08201356001600160401b0381111561683c575f5ffd5b61684886828501616738565b60a083015250949350505050565b5f8151808452602084019350602083015f5b82811015616886578151865260209586019590910190600101616868565b5093949350505050565b5f81518084528060208401602086015e5f602082860101526020601f19601f83011685010191505092915050565b838152606060208201525f6168d66060830185616856565b8281036040840152611fc88185616890565b60028110610f87575f5ffd5b8035615a61816168e8565b5f6020828403121561690f575f5ffd5b81356001600160401b03811115616924575f5ffd5b820160e08185031215616935575f5ffd5b61693d616630565b616946826168f4565b815261695460208301616571565b602082015261696560408301616571565b604082015261697660608301616571565b60608201526080828101359082015260a0808301359082015260c08201356001600160401b038111156169a7575f5ffd5b6169b386828501616738565b60c083015250949350505050565b9283526020830191909152604082015260600190565b5f60a08284031280156169e8575f5ffd5b5060405160a081016001600160401b0381118282101715616a0b57616a0b6165f4565b6040528235616a19816168e8565b81526020830135616a29816168e8565b60208201526040830135616a3c8161655d565b6040820152606083810135908201526080928301359281019290925250919050565b5f5f60208385031215616a6f575f5ffd5b82356001600160401b03811115616a84575f5ffd5b8301601f81018513616a94575f5ffd5b80356001600160401b03811115616aa9575f5ffd5b856020828401011115616aba575f5ffd5b6020919091019590945092505050565b602081525f610c296020830184616890565b803560058110615a61575f5ffd5b5f60208284031215616afa575f5ffd5b81356001600160401b03811115616b0f575f5ffd5b820160c08185031215616b20575f5ffd5b616b28616608565b616b3182616571565b8152616b3f60208301616571565b602082015260408201356001600160401b03811115616b5c575f5ffd5b616b68868285016166a4565b6040830152506060828101359082015261681f60808301616adc565b606081525f616b966060830186616856565b8460208401528281036040840152611fc88185616890565b5f5f5f60608486031215616bc0575f5ffd5b8335616bcb8161655d565b92506020840135616bdb8161655d565b929592945050506040919091013590565b6001600160a01b03169052565b6001600160a01b0391909116815260200190565b5f5f60408385031215616c1e575f5ffd5b8235616c298161655d565b91506020830135616c398161655d565b809150509250929050565b918252602082015260400190565b5f60208284031215616c62575f5ffd5b5051919050565b634e487b7160e01b5f52601160045260245ffd5b8181038181111561039d5761039d616c69565b634e487b7160e01b5f52602160045260245ffd5b5f60208284031215616cb4575f5ffd5b8151610c298161655d565b5f600160ff1b8201616cd357616cd3616c69565b505f0390565b6001600160a01b039390931683526020830191909152604082015260600190565b6001600160a01b039384168152919092166020820152604081019190915260600190565b634e487b7160e01b5f52603260045260245ffd5b60ff818116838216019081111561039d5761039d616c69565b60048110616d5b57616d5b616c90565b9052565b6001600160a01b03888116825287166020820152616d806040820187616d4b565b84606082015260e060808201525f616d9b60e0830186616856565b82810360a0840152616dad8186616856565b905082810360c0840152616dc18185616890565b9a9950505050505050505050565b80518015158114615a61575f5ffd5b5f60208284031215616dee575f5ffd5b610c2982616dcf565b60018060a01b038616815284602082015260a060408201525f616e1d60a0830186616856565b8281036060840152616e2f8186616856565b90508281036080840152611c488185616890565b5f82601f830112616e52575f5ffd5b8151616e606166c182616682565b8082825260208201915060208360051b860101925085831115616e81575f5ffd5b602085015b8381101561115f578051835260209283019201616e86565b5f82601f830112616ead575f5ffd5b8151616ebb6166c182616712565b818152846020838601011115616ecf575f5ffd5b8160208501602083015e5f918101602001919091529392505050565b5f5f5f5f60808587031215616efe575f5ffd5b845160208601519094506001600160401b03811115616f1b575f5ffd5b616f2787828801616e43565b604087015190945090506001600160401b03811115616f44575f5ffd5b616f5087828801616e43565b606087015190935090506001600160401b03811115616f6d575f5ffd5b616f7987828801616e9e565b91505092959194509250565b8082018082111561039d5761039d616c69565b838152606060208201525f616fb06060830185616856565b8281036040840152611fc88185616856565b6001600160a01b03898116825288166020820152616fe36040820188616d4b565b85606082015261010060808201525f617000610100830187616856565b82810360a08401526170128187616856565b905082810360c08401526170268186616856565b905082810360e084015261703a8185616890565b9b9a5050505050505050505050565b5f5f6040838503121561705a575f5ffd5b61706383616dcf565b60208401519092506001600160401b0381111561707e575f5ffd5b61708a85828601616e43565b9150509250929050565b60028110610f8757610f87616c90565b616d5b81617094565b5f60e0830182516170bd81617094565b84526020838101518186015260408085015160e09187019190915280519283905201905f906101008601905b8083101561710c57835182526020820191506020840193506001830192506170e9565b50606085015160608701526080850151608087015260a0850151925061713560a0870184616bec565b60c0850151925085810360c0870152611fc88184616890565b604081525f61716060408301856170ad565b905060018060a01b03831660208301529392505050565b606081525f61718960608301866170ad565b6001600160a01b039490941660208301525060400152919050565b5f5f604083850312156171b5575f5ffd5b6171be83616dcf565b6020939093015192949293505050565b602081525f610c2960208301846170ad565b602081526171f26020820183516170a4565b5f60208301516172056040840182616bec565b5060408301516172186060840182616bec565b5060608301516080830152608083015160a083015260a083015160c083015260c083015160e083015260e083015161010083015261010083015161012083015261012083015161726c610140840182616bec565b50610140830151617281610160840182616bec565b5061016083015161018080840152611ef06101a0840182616890565b8082018281125f8312801582168215821617156172bc576172bc616c69565b505092915050565b9283526001600160a01b03918216602084015216604082015260600190565b8181035f831280158383131683831282161715610a3257610a32616c69565b9182526001600160a01b0316602082015260400190565b60058110616d5b57616d5b616c90565b6001600160a01b0388811682528716602082015261734a6040820187617319565b60e060608201525f61735f60e0830187616856565b85608084015282810360a0840152616dad8186616856565b6001600160a01b038616815260a0602082018190525f9061739a90830187616856565b8560408401528281036060840152616e2f8186616856565b5f5f5f5f608085870312156173c5575f5ffd5b84516001600160401b038111156173da575f5ffd5b6173e687828801616e43565b60208701516040880151919650945090506001600160401b03811115616f44575f5ffd5b6001600160a01b0389811682528816602082015261742b6040820188617319565b61010060608201525f617442610100830188616856565b82810360808401526174548188616856565b90508560a084015282810360c08401526170268186616856565b808202811582820484141761039d5761039d616c69565b634e487b7160e01b5f52601260045260245ffd5b5f826174a7576174a7617485565b500490565b606081525f6174be6060830186616856565b60208301949094525060400152919050565b604081525f6174e26040830185616856565b90506174ed83617094565b8260208301529392505050565b5f8261750857617508617485565b600160ff1b82145f198414161561752157617521616c69565b500590565b5f82518060208501845e5f920191825250919050565b6001815b60018411156175775780850481111561755b5761755b616c69565b600184161561756957908102905b60019390931c928002617540565b935093915050565b5f8261758d5750600161039d565b8161759957505f61039d565b81600181146175af57600281146175b9576175d5565b600191505061039d565b60ff8411156175ca576175ca616c69565b50506001821b61039d565b5060208310610133831016604e8410600b84101617156175f8575081810a61039d565b6176045f19848461753c565b805f190482111561761757617617616c69565b029392505050565b5f610c29838361757f565b63ffffffff818116838216019081111561039d5761039d616c69565b634e487b7160e01b5f52605160045260245ffdfed1398bee19313d6bf672ccb116e51f4a1a947e91c757907f51fbb5b5e56c698f9b779b17422d0df92223018b32b4d1fa46e071723d6817e2486d003becc55f00a26469706673582212200dc4dac073f0aecf773e45fab38a7619b7ca0366e5a145f3e8d0dc344593055c64736f6c634300081e0033","linkReferences":{}},"methodIdentifiers":{"addLiquidity((address,address,uint256[],uint256,uint8,bytes))":"4af29ec4","erc4626BufferWrapOrUnwrap((uint8,uint8,address,uint256,uint256))":"43583be5","getPoolTokenCountAndIndexOfToken(address,address)":"c9c1661b","getVaultExtension()":"b9a8effa","reentrancyGuardEntered()":"d2c725e0","removeLiquidity((address,address,uint256,uint256[],uint8,bytes))":"21457897","sendTo(address,address,uint256)":"ae639329","settle(address,uint256)":"15afd409","swap((uint8,address,address,address,uint256,uint256,bytes))":"2bfb780c","transfer(address,address,uint256)":"beabacc8","transferFrom(address,address,address,uint256)":"15dacbea","unlock(bytes)":"48c89491"},"id":343}