{"abi":[{"type":"constructor","inputs":[{"name":"name_","type":"string","internalType":"string"},{"name":"symbol_","type":"string","internalType":"string"},{"name":"decimals_","type":"uint8","internalType":"uint8"},{"name":"recipient","type":"address","internalType":"address"},{"name":"initialAmount","type":"uint256","internalType":"uint256"}],"stateMutability":"nonpayable"},{"type":"function","name":"DOMAIN_SEPARATOR","inputs":[],"outputs":[{"name":"","type":"bytes32","internalType":"bytes32"}],"stateMutability":"view"},{"type":"function","name":"allowance","inputs":[{"name":"owner","type":"address","internalType":"address"},{"name":"spender","type":"address","internalType":"address"}],"outputs":[{"name":"","type":"uint256","internalType":"uint256"}],"stateMutability":"view"},{"type":"function","name":"approve","inputs":[{"name":"spender","type":"address","internalType":"address"},{"name":"amount","type":"uint256","internalType":"uint256"}],"outputs":[{"name":"","type":"bool","internalType":"bool"}],"stateMutability":"nonpayable"},{"type":"function","name":"balanceOf","inputs":[{"name":"account","type":"address","internalType":"address"}],"outputs":[{"name":"","type":"uint256","internalType":"uint256"}],"stateMutability":"view"},{"type":"function","name":"decimals","inputs":[],"outputs":[{"name":"","type":"uint8","internalType":"uint8"}],"stateMutability":"view"},{"type":"function","name":"eip712Domain","inputs":[],"outputs":[{"name":"fields","type":"bytes1","internalType":"bytes1"},{"name":"name","type":"string","internalType":"string"},{"name":"version","type":"string","internalType":"string"},{"name":"chainId","type":"uint256","internalType":"uint256"},{"name":"verifyingContract","type":"address","internalType":"address"},{"name":"salt","type":"bytes32","internalType":"bytes32"},{"name":"extensions","type":"uint256[]","internalType":"uint256[]"}],"stateMutability":"view"},{"type":"function","name":"name","inputs":[],"outputs":[{"name":"","type":"string","internalType":"string"}],"stateMutability":"view"},{"type":"function","name":"nonces","inputs":[{"name":"owner","type":"address","internalType":"address"}],"outputs":[{"name":"","type":"uint256","internalType":"uint256"}],"stateMutability":"view"},{"type":"function","name":"permit","inputs":[{"name":"owner","type":"address","internalType":"address"},{"name":"spender","type":"address","internalType":"address"},{"name":"value","type":"uint256","internalType":"uint256"},{"name":"deadline","type":"uint256","internalType":"uint256"},{"name":"v","type":"uint8","internalType":"uint8"},{"name":"r","type":"bytes32","internalType":"bytes32"},{"name":"s","type":"bytes32","internalType":"bytes32"}],"outputs":[],"stateMutability":"nonpayable"},{"type":"function","name":"symbol","inputs":[],"outputs":[{"name":"","type":"string","internalType":"string"}],"stateMutability":"view"},{"type":"function","name":"totalSupply","inputs":[],"outputs":[{"name":"","type":"uint256","internalType":"uint256"}],"stateMutability":"view"},{"type":"function","name":"transfer","inputs":[{"name":"recipient","type":"address","internalType":"address"},{"name":"amount","type":"uint256","internalType":"uint256"}],"outputs":[{"name":"","type":"bool","internalType":"bool"}],"stateMutability":"nonpayable"},{"type":"function","name":"transferFrom","inputs":[{"name":"owner","type":"address","internalType":"address"},{"name":"recipient","type":"address","internalType":"address"},{"name":"amount","type":"uint256","internalType":"uint256"}],"outputs":[{"name":"","type":"bool","internalType":"bool"}],"stateMutability":"nonpayable"},{"type":"event","name":"Approval","inputs":[{"name":"owner","type":"address","indexed":true,"internalType":"address"},{"name":"spender","type":"address","indexed":true,"internalType":"address"},{"name":"amount","type":"uint256","indexed":false,"internalType":"uint256"}],"anonymous":false},{"type":"event","name":"EIP712DomainChanged","inputs":[],"anonymous":false},{"type":"event","name":"Transfer","inputs":[{"name":"from","type":"address","indexed":true,"internalType":"address"},{"name":"to","type":"address","indexed":true,"internalType":"address"},{"name":"amount","type":"uint256","indexed":false,"internalType":"uint256"}],"anonymous":false},{"type":"error","name":"ERC20InsufficientAllowance","inputs":[{"name":"spender","type":"address","internalType":"address"},{"name":"allowance","type":"uint256","internalType":"uint256"},{"name":"needed","type":"uint256","internalType":"uint256"}]},{"type":"error","name":"ERC20InsufficientBalance","inputs":[{"name":"sender","type":"address","internalType":"address"},{"name":"balance","type":"uint256","internalType":"uint256"},{"name":"needed","type":"uint256","internalType":"uint256"}]},{"type":"error","name":"ERC20InvalidApprover","inputs":[{"name":"approver","type":"address","internalType":"address"}]},{"type":"error","name":"ERC20InvalidReceiver","inputs":[{"name":"receiver","type":"address","internalType":"address"}]},{"type":"error","name":"ERC20InvalidSender","inputs":[{"name":"sender","type":"address","internalType":"address"}]},{"type":"error","name":"ERC20InvalidSpender","inputs":[{"name":"spender","type":"address","internalType":"address"}]},{"type":"error","name":"ERC2612ExpiredSignature","inputs":[{"name":"deadline","type":"uint256","internalType":"uint256"}]},{"type":"error","name":"ERC2612InvalidSigner","inputs":[{"name":"signer","type":"address","internalType":"address"},{"name":"owner","type":"address","internalType":"address"}]},{"type":"error","name":"InvalidAccountNonce","inputs":[{"name":"account","type":"address","internalType":"address"},{"name":"currentNonce","type":"uint256","internalType":"uint256"}]},{"type":"error","name":"InvalidShortString","inputs":[]}],"bytecode":{"object":"0x608060405234801561000f575f5ffd5b5060405161128038038061128083398101604081905261002e91610217565b5f61003761005b565b9050610045818787876100b3565b6100508184846100ea565b50505050505061041f565b5f6100ae60405160200161008d906020808252600a908201526906569702e6572632e32360b41b604082015260600190565b6040516020818303038152906040528051906020012061017760201b60201c565b905090565b836100be8482610340565b50600184016100cd8382610340565b50600293909301805460ff191660ff909416939093179092555050565b6001600160a01b0382165f908152600484016020526040812080548392906101139084906103fa565b9250508190555080836003015f82825461012d91906103fa565b90915550506040518181526001600160a01b038316905f907fddf252ad1be2c89b69c2b068fc378daa952ba7f163c4a11628f55a4df523b3ef9060200160405180910390a3505050565b90565b634e487b7160e01b5f52604160045260245ffd5b5f82601f83011261019d575f5ffd5b81516001600160401b038111156101b6576101b661017a565b604051601f8201601f19908116603f011681016001600160401b03811182821017156101e4576101e461017a565b6040528181528382016020018510156101fb575f5ffd5b8160208501602083015e5f918101602001919091529392505050565b5f5f5f5f5f60a0868803121561022b575f5ffd5b85516001600160401b03811115610240575f5ffd5b61024c8882890161018e565b602088015190965090506001600160401b03811115610269575f5ffd5b6102758882890161018e565b945050604086015160ff8116811461028b575f5ffd5b60608701519093506001600160a01b03811681146102a7575f5ffd5b60809690960151949793965091949392915050565b600181811c908216806102d057607f821691505b6020821081036102ee57634e487b7160e01b5f52602260045260245ffd5b50919050565b601f82111561033b57805f5260205f20601f840160051c810160208510156103195750805b601f840160051c820191505b81811015610338575f8155600101610325565b50505b505050565b81516001600160401b038111156103595761035961017a565b61036d8161036784546102bc565b846102f4565b6020601f82116001811461039f575f83156103885750848201515b5f19600385901b1c1916600184901b178455610338565b5f84815260208120601f198516915b828110156103ce57878501518255602094850194600190920191016103ae565b50848210156103eb57868401515f19600387901b60f8161c191681555b50505050600190811b01905550565b8082018082111561041957634e487b7160e01b5f52601160045260245ffd5b92915050565b610e548061042c5f395ff3fe608060405234801561000f575f5ffd5b50600436106100ad575f3560e01c806306fdde03146100b1578063095ea7b3146100cf57806318160ddd146100f257806323b872dd14610108578063313ce5671461011b5780633644e5151461013557806370a082311461013d5780637ecebe001461015057806384b0196e1461016357806395d89b411461017e578063a9059cbb14610186578063d505accf14610199578063dd62ed3e146101ae575b5f5ffd5b6100b96101c1565b6040516100c69190610ba0565b60405180910390f35b6100e26100dd366004610bc8565b6101d0565b60405190151581526020016100c6565b6100fa6101e6565b6040519081526020016100c6565b6100e2610116366004610bf0565b6101ef565b610123610205565b60405160ff90911681526020016100c6565b6100fa61020e565b6100fa61014b366004610c2a565b610217565b6100fa61015e366004610c2a565b610221565b61016b61022b565b6040516100c69796959493929190610c43565b6100b961027b565b6100e2610194366004610bc8565b610285565b6101ac6101a7366004610cd9565b610291565b005b6100fa6101bc366004610d46565b6103b7565b60606101cb6103c9565b905090565b5f6101dc3384846103db565b5060015b92915050565b5f6101cb6103f3565b5f6101fb848484610406565b5060019392505050565b5f6101cb610419565b5f6101cb61042f565b5f6101e082610440565b5f6101e08261046b565b5f6060805f5f5f60605f61023d610493565b9050610248816104df565b610251826104f4565b604080515f80825260208201909252600f60f81b9c939b5091995046985030975095509350915050565b60606101cb610509565b5f6101dc33848461051b565b834211156102ba5760405163313c898160e11b8152600481018590526024015b60405180910390fd5b5f61033e7f6e71edae12b1b97f4d1f60370fef10105fa2faae0126114a169c64845d6126c98989896102eb8d61052e565b6040805160208101969096526001600160a01b0394851690860152929091166060840152608083015260a082015260c0810187905260e0015b604051602081830303815290604052805160209091012090565b90505f61034a8261055e565b90505f61035982878787610570565b9050896001600160a01b0316816001600160a01b0316146103a0576040516325c0072360e11b81526001600160a01b0380831660048301528b1660248201526044016102b1565b6103ab8a8a8a6103db565b50505050505050505050565b5f6103c28383610586565b9392505050565b60606101cb6103d6610599565b6105cb565b6103ee6103e6610599565b84848461065e565b505050565b5f6101cb6103ff610599565b6003015490565b6103ee610411610599565b8484846106eb565b5f6101cb610425610599565b6002015460ff1690565b5f6101cb61043b610493565b610709565b5f6101e061044c610599565b836001600160a01b03165f908152600491909101602052604090205490565b5f6101e0610477610742565b836001600160a01b03165f908152602091909152604090205490565b5f6101cb6040516020016104c6906020808252600b908201526a32b4b81732b4b8171b989960a91b604082015260600190565b6040516020818303038152906040528051906020012090565b60058101546060906101e09060078401610776565b60068101546060906101e09060088401610776565b60606101cb610516610599565b61081f565b6103ee610526610599565b848484610830565b5f6101e061053a610742565b836001600160a01b03165f9081526020919091526040902080546001810190915590565b5f6101e061056a610493565b836108ab565b5f61057d858585856108d8565b95945050505050565b5f6103c2610592610599565b848461091d565b5f6101cb6040516020016104c6906020808252600a908201526906569702e6572632e32360b41b604082015260600190565b6060815f0180546105db90610d77565b80601f016020809104026020016040519081016040528092919081815260200182805461060790610d77565b80156106525780601f1061062957610100808354040283529160200191610652565b820191905f5260205f20905b81548152906001019060200180831161063557829003601f168201915b50505050509050919050565b6001600160a01b0382166106875781604051634a1406b160e11b81526004016102b19190610daf565b6001600160a01b038381165f81815260058701602090815260408083209487168084529482529182902085905590518481527f8c5be1e5ebec7d5bd14f71427d1e84f3dd0314c0f7b2291e5b200ac8c7c3b92591015b60405180910390a350505050565b6106f784843384610949565b61070384848484610830565b50505050565b60028101545f906001600160a01b03163014801561072a5750816001015446145b1561073457505490565b6101e0826109c3565b919050565b5f6101cb6040516020016104c6906020808252600c908201526b32b4b81732b93197191b189960a11b604082015260600190565b606060ff83146107905761078983610a1d565b90506101e0565b81805461079c90610d77565b80601f01602080910402602001604051908101604052809291908181526020018280546107c890610d77565b80156108135780601f106107ea57610100808354040283529160200191610813565b820191905f5260205f20905b8154815290600101906020018083116107f657829003601f168201915b505050505090506101e0565b60608160010180546105db90610d77565b336108505733604051634a1406b160e11b81526004016102b19190610daf565b61085b848483610a5a565b610866848383610aef565b816001600160a01b0316836001600160a01b03167fddf252ad1be2c89b69c2b068fc378daa952ba7f163c4a11628f55a4df523b3ef836040516106dd91815260200190565b5f6103c26108b884610709565b8360405161190160f01b8152600281019290925260228201526042902090565b5f604051855f5260ff851660205283604052826060526020600160805f60015afa5191503d61090e57638baa579f5f526004601cfd5b5f606052604052949350505050565b6001600160a01b039182165f908152600593909301602090815260408085209290931684525290205490565b6001600160a01b0382166109725781604051634a1406b160e11b81526004016102b19190610daf565b5f61097e85858561091d565b9050818110156109a757828183604051637dc7a0d960e11b81526004016102b193929190610dc3565b6109bc8585856109b78686610df8565b61065e565b5050505050565b60038101546004820154604080517f8b73c3c69bb8fe3d512ecc4cf759cc79239f7b179b0ffacaa9a75d522b39400f60208201529081019290925260608201524660808201523060a08201525f906101e09060c001610324565b60605f610a2983610b4b565b6040805160208082528183019092529192505f91906020820181803683375050509182525060208101929092525090565b6001600160a01b038216610a835781604051634b637e8f60e11b81526004016102b19190610daf565b6001600160a01b0382165f90815260048401602052604090205481811015610ac45782818360405163391434e360e21b81526004016102b193929190610dc3565b610ace8282610df8565b6001600160a01b039093165f90815260049094016020525050604090912055565b6001600160a01b038216610b18578160405163ec442f0560e01b81526004016102b19190610daf565b6001600160a01b0382165f90815260048401602052604081208054839290610b41908490610e0b565b9091555050505050565b5f60ff8216601f8111156101e057604051632cd44ac360e21b815260040160405180910390fd5b5f81518084528060208401602086015e5f602082860101526020601f19601f83011685010191505092915050565b602081525f6103c26020830184610b72565b80356001600160a01b038116811461073d575f5ffd5b5f5f60408385031215610bd9575f5ffd5b610be283610bb2565b946020939093013593505050565b5f5f5f60608486031215610c02575f5ffd5b610c0b84610bb2565b9250610c1960208501610bb2565b929592945050506040919091013590565b5f60208284031215610c3a575f5ffd5b6103c282610bb2565b60ff60f81b8816815260e060208201525f610c6160e0830189610b72565b8281036040840152610c738189610b72565b606084018890526001600160a01b038716608085015260a0840186905283810360c0850152845180825260208087019350909101905f5b81811015610cc8578351835260209384019390920191600101610caa565b50909b9a5050505050505050505050565b5f5f5f5f5f5f5f60e0888a031215610cef575f5ffd5b610cf888610bb2565b9650610d0660208901610bb2565b95506040880135945060608801359350608088013560ff81168114610d29575f5ffd5b9699959850939692959460a0840135945060c09093013592915050565b5f5f60408385031215610d57575f5ffd5b610d6083610bb2565b9150610d6e60208401610bb2565b90509250929050565b600181811c90821680610d8b57607f821691505b602082108103610da957634e487b7160e01b5f52602260045260245ffd5b50919050565b6001600160a01b0391909116815260200190565b6001600160a01b039390931683526020830191909152604082015260600190565b634e487b7160e01b5f52601160045260245ffd5b818103818111156101e0576101e0610de4565b808201808211156101e0576101e0610de456fea2646970667358221220758c472381c83ee9e134ea57d16f9415831f44d6886e7be775492da4b1284a7364736f6c634300081e0033","linkReferences":{}},"methodIdentifiers":{"DOMAIN_SEPARATOR()":"3644e515","allowance(address,address)":"dd62ed3e","approve(address,uint256)":"095ea7b3","balanceOf(address)":"70a08231","decimals()":"313ce567","eip712Domain()":"84b0196e","name()":"06fdde03","nonces(address)":"7ecebe00","permit(address,address,uint256,uint256,uint8,bytes32,bytes32)":"d505accf","symbol()":"95d89b41","totalSupply()":"18160ddd","transfer(address,uint256)":"a9059cbb","transferFrom(address,address,uint256)":"23b872dd"},"id":1321}