{"abi":[{"type":"constructor","inputs":[{"name":"pkgInit","type":"tuple","internalType":"struct IBalancerV3VaultDFPkg.PkgInit","components":[{"name":"vaultTransientFacet","type":"address","internalType":"contract IFacet"},{"name":"vaultSwapFacet","type":"address","internalType":"contract IFacet"},{"name":"vaultLiquidityFacet","type":"address","internalType":"contract IFacet"},{"name":"vaultBufferFacet","type":"address","internalType":"contract IFacet"},{"name":"vaultPoolTokenFacet","type":"address","internalType":"contract IFacet"},{"name":"vaultQueryFacet","type":"address","internalType":"contract IFacet"},{"name":"vaultRegistrationFacet","type":"address","internalType":"contract IFacet"},{"name":"vaultAdminFacet","type":"address","internalType":"contract IFacet"},{"name":"vaultRecoveryFacet","type":"address","internalType":"contract IFacet"},{"name":"diamondFactory","type":"address","internalType":"contract IDiamondPackageCallBackFactory"}]}],"stateMutability":"nonpayable"},{"type":"function","name":"DIAMOND_PACKAGE_FACTORY","inputs":[],"outputs":[{"name":"","type":"address","internalType":"contract IDiamondPackageCallBackFactory"}],"stateMutability":"view"},{"type":"function","name":"VAULT_ADMIN_FACET","inputs":[],"outputs":[{"name":"","type":"address","internalType":"contract IFacet"}],"stateMutability":"view"},{"type":"function","name":"VAULT_BUFFER_FACET","inputs":[],"outputs":[{"name":"","type":"address","internalType":"contract IFacet"}],"stateMutability":"view"},{"type":"function","name":"VAULT_LIQUIDITY_FACET","inputs":[],"outputs":[{"name":"","type":"address","internalType":"contract IFacet"}],"stateMutability":"view"},{"type":"function","name":"VAULT_POOL_TOKEN_FACET","inputs":[],"outputs":[{"name":"","type":"address","internalType":"contract IFacet"}],"stateMutability":"view"},{"type":"function","name":"VAULT_QUERY_FACET","inputs":[],"outputs":[{"name":"","type":"address","internalType":"contract IFacet"}],"stateMutability":"view"},{"type":"function","name":"VAULT_RECOVERY_FACET","inputs":[],"outputs":[{"name":"","type":"address","internalType":"contract IFacet"}],"stateMutability":"view"},{"type":"function","name":"VAULT_REGISTRATION_FACET","inputs":[],"outputs":[{"name":"","type":"address","internalType":"contract IFacet"}],"stateMutability":"view"},{"type":"function","name":"VAULT_SWAP_FACET","inputs":[],"outputs":[{"name":"","type":"address","internalType":"contract IFacet"}],"stateMutability":"view"},{"type":"function","name":"VAULT_TRANSIENT_FACET","inputs":[],"outputs":[{"name":"","type":"address","internalType":"contract IFacet"}],"stateMutability":"view"},{"type":"function","name":"calcSalt","inputs":[{"name":"pkgArgs","type":"bytes","internalType":"bytes"}],"outputs":[{"name":"salt","type":"bytes32","internalType":"bytes32"}],"stateMutability":"pure"},{"type":"function","name":"deployVault","inputs":[{"name":"minimumTradeAmount","type":"uint256","internalType":"uint256"},{"name":"minimumWrapAmount","type":"uint256","internalType":"uint256"},{"name":"pauseWindowDuration","type":"uint32","internalType":"uint32"},{"name":"bufferPeriodDuration","type":"uint32","internalType":"uint32"},{"name":"authorizer","type":"address","internalType":"contract IAuthorizer"},{"name":"protocolFeeController","type":"address","internalType":"contract IProtocolFeeController"}],"outputs":[{"name":"vault","type":"address","internalType":"address"}],"stateMutability":"nonpayable"},{"type":"function","name":"diamondConfig","inputs":[],"outputs":[{"name":"config","type":"tuple","internalType":"struct IDiamondFactoryPackage.DiamondConfig","components":[{"name":"facetCuts","type":"tuple[]","internalType":"struct IDiamond.FacetCut[]","components":[{"name":"facetAddress","type":"address","internalType":"address"},{"name":"action","type":"uint8","internalType":"enum IDiamond.FacetCutAction"},{"name":"functionSelectors","type":"bytes4[]","internalType":"bytes4[]"}]},{"name":"interfaces","type":"bytes4[]","internalType":"bytes4[]"}]}],"stateMutability":"view"},{"type":"function","name":"facetAddresses","inputs":[],"outputs":[{"name":"facetAddresses_","type":"address[]","internalType":"address[]"}],"stateMutability":"view"},{"type":"function","name":"facetCuts","inputs":[],"outputs":[{"name":"facetCuts_","type":"tuple[]","internalType":"struct IDiamond.FacetCut[]","components":[{"name":"facetAddress","type":"address","internalType":"address"},{"name":"action","type":"uint8","internalType":"enum IDiamond.FacetCutAction"},{"name":"functionSelectors","type":"bytes4[]","internalType":"bytes4[]"}]}],"stateMutability":"view"},{"type":"function","name":"facetInterfaces","inputs":[],"outputs":[{"name":"interfaces","type":"bytes4[]","internalType":"bytes4[]"}],"stateMutability":"pure"},{"type":"function","name":"initAccount","inputs":[{"name":"initArgs","type":"bytes","internalType":"bytes"}],"outputs":[],"stateMutability":"nonpayable"},{"type":"function","name":"packageMetadata","inputs":[],"outputs":[{"name":"name_","type":"string","internalType":"string"},{"name":"interfaces","type":"bytes4[]","internalType":"bytes4[]"},{"name":"facets","type":"address[]","internalType":"address[]"}],"stateMutability":"view"},{"type":"function","name":"packageName","inputs":[],"outputs":[{"name":"name_","type":"string","internalType":"string"}],"stateMutability":"pure"},{"type":"function","name":"postDeploy","inputs":[{"name":"","type":"address","internalType":"address"}],"outputs":[{"name":"","type":"bool","internalType":"bool"}],"stateMutability":"pure"},{"type":"function","name":"processArgs","inputs":[{"name":"pkgArgs","type":"bytes","internalType":"bytes"}],"outputs":[{"name":"processedPkgArgs","type":"bytes","internalType":"bytes"}],"stateMutability":"pure"},{"type":"function","name":"updatePkg","inputs":[{"name":"","type":"address","internalType":"address"},{"name":"","type":"bytes","internalType":"bytes"}],"outputs":[{"name":"","type":"bool","internalType":"bool"}],"stateMutability":"nonpayable"}],"bytecode":{"object":"0x6101c0604052348015610010575f5ffd5b50604051611e76380380611e7683398101604081905261002f916100f7565b610120808201516001600160a01b0390811660809081528351821660a09081526020850151831660c09081526040860151841660e0908152606087015185166101009081529387015185169095529085015183166101405284015182166101605291830151811661018052910151166101a0526101c1565b60405161014081016001600160401b03811182821017156100d657634e487b7160e01b5f52604160045260245ffd5b60405290565b80516001600160a01b03811681146100f2575f5ffd5b919050565b5f610140828403128015610109575f5ffd5b506101126100a7565b61011b836100dc565b8152610129602084016100dc565b602082015261013a604084016100dc565b604082015261014b606084016100dc565b606082015261015c608084016100dc565b608082015261016d60a084016100dc565b60a082015261017e60c084016100dc565b60c082015261018f60e084016100dc565b60e08201526101a161010084016100dc565b6101008201526101b461012084016100dc565b6101208201529392505050565b60805160a05160c05160e05161010051610120516101405161016051610180516101a051611b826102f45f395f818161015d015281816108fb015281816111b101526111f701525f8181610347015281816108a7015281816110bd015261110301525f81816102960152818161085301528181610fc9015261100f01525f81816101ab015281816107ff01528181610ed50152610f1b01525f8181610119015281816107ab01528181610de10152610e2701525f818161036e0152818161075701528181610ced0152610d3301525f818161020e0152818161070301528181610bf90152610c3f01525f81816101e7015281816106af01528181610b050152610b4b01525f81816101840152818161065c01528181610a270152610a5801525f818161031801526104db0152611b825ff3fe608060405234801561000f575f5ffd5b5060043610610110575f3560e01c806305c5687f146101145780630f5ef3c41461015857806314b94c311461017f57806326aaf985146101a65780632ea80826146101cd57806331cd3484146101e2578063448f405d146102095780635260057a1461023057806352ef6b2c1461024357806365d375b31461025857806370068fcf1461026d57806372b12ecb14610291578063870d4838146102b857806387c3adb3146102cd578063a4b3ad35146102eb578063a908923514610300578063ab6046ed14610313578063abc8b3461461033a578063c3afaf3414610342578063d0e1b28614610369578063d82be56e14610390578063f45469e7146103b1575b5f5ffd5b61013b7f000000000000000000000000000000000000000000000000000000000000000081565b6040516001600160a01b0390911681526020015b60405180910390f35b61013b7f000000000000000000000000000000000000000000000000000000000000000081565b61013b7f000000000000000000000000000000000000000000000000000000000000000081565b61013b7f000000000000000000000000000000000000000000000000000000000000000081565b6101d56103c8565b60405161014f91906115b5565b61013b7f000000000000000000000000000000000000000000000000000000000000000081565b61013b7f000000000000000000000000000000000000000000000000000000000000000081565b61013b61023e3660046115f6565b6104d8565b61024b610635565b60405161014f919061169b565b610260610950565b60405161014f9190611763565b61028161027b3660046117a4565b50600190565b604051901515815260200161014f565b61013b7f000000000000000000000000000000000000000000000000000000000000000081565b6102cb6102c636600461186e565b61098b565b005b6102de6102db36600461186e565b90565b60405161014f91906118d5565b6102f36109cb565b60405161014f91906118e7565b61028161030e3660046118f9565b61129b565b61013b7f000000000000000000000000000000000000000000000000000000000000000081565b6102de6112a3565b61013b7f000000000000000000000000000000000000000000000000000000000000000081565b61013b7f000000000000000000000000000000000000000000000000000000000000000081565b6103a361039e36600461186e565b6112d1565b60405190815260200161014f565b6103b96112df565b60405161014f93929190611945565b60408051600480825260a0820190925260609160208201608080368337019050509050630561131960e31b815f8151811061040557610405611987565b60200260200101906001600160e01b03191690816001600160e01b031916815250506302a95e6b60e51b8160018151811061044257610442611987565b60200260200101906001600160e01b03191690816001600160e01b03191681525050632d25bb8d60e21b8160028151811061047f5761047f611987565b60200260200101906001600160e01b03191690816001600160e01b031916815250506348e2b09360e01b816003815181106104bc576104bc611987565b6001600160e01b03199092166020928302919091019091015290565b5f7f00000000000000000000000000000000000000000000000000000000000000006001600160a01b031663e97fac05306040518060c001604052808b81526020018a81526020018963ffffffff1681526020018863ffffffff168152602001876001600160a01b03168152602001866001600160a01b03168152506040516020016105be91905f60c082019050825182526020830151602083015263ffffffff604084015116604083015263ffffffff606084015116606083015260018060a01b03608084015116608083015260018060a01b0360a08401511660a083015292915050565b6040516020818303038152906040526040518363ffffffff1660e01b81526004016105ea92919061199b565b6020604051808303815f875af1158015610606573d5f5f3e3d5ffd5b505050506040513d601f19601f8201168201806040525081019061062a91906119be565b979650505050505050565b604080516009808252610140820190925260609160208201610120803683370190505090507f0000000000000000000000000000000000000000000000000000000000000000815f8151811061068d5761068d611987565b60200260200101906001600160a01b031690816001600160a01b0316815250507f0000000000000000000000000000000000000000000000000000000000000000816001815181106106e1576106e1611987565b60200260200101906001600160a01b031690816001600160a01b0316815250507f00000000000000000000000000000000000000000000000000000000000000008160028151811061073557610735611987565b60200260200101906001600160a01b031690816001600160a01b0316815250507f00000000000000000000000000000000000000000000000000000000000000008160038151811061078957610789611987565b60200260200101906001600160a01b031690816001600160a01b0316815250507f0000000000000000000000000000000000000000000000000000000000000000816004815181106107dd576107dd611987565b60200260200101906001600160a01b031690816001600160a01b0316815250507f00000000000000000000000000000000000000000000000000000000000000008160058151811061083157610831611987565b60200260200101906001600160a01b031690816001600160a01b0316815250507f00000000000000000000000000000000000000000000000000000000000000008160068151811061088557610885611987565b60200260200101906001600160a01b031690816001600160a01b0316815250507f0000000000000000000000000000000000000000000000000000000000000000816007815181106108d9576108d9611987565b60200260200101906001600160a01b031690816001600160a01b0316815250507f00000000000000000000000000000000000000000000000000000000000000008160088151811061092d5761092d611987565b60200260200101906001600160a01b031690816001600160a01b03168152505090565b604080518082019091526060808252602082015260405180604001604052806109776109cb565b81526020016109846103c8565b9052919050565b5f818060200190518101906109a091906119d9565b90506109c7815f015182602001518360400151846060015185608001518660a00151611307565b5050565b6040805160098082526101408201909252606091816020015b60408051606080820183525f8083526020830152918101919091528152602001906001900390816109e45790505060408051606081019091526001600160a01b037f0000000000000000000000000000000000000000000000000000000000000000168152909150602081015f81526020017f00000000000000000000000000000000000000000000000000000000000000006001600160a01b031663574a4cff6040518163ffffffff1660e01b81526004015f60405180830381865afa158015610ab1573d5f5f3e3d5ffd5b505050506040513d5f823e601f3d908101601f19168201604052610ad89190810190611a71565b815250815f81518110610aed57610aed611987565b602002602001018190525060405180606001604052807f00000000000000000000000000000000000000000000000000000000000000006001600160a01b031681526020015f6002811115610b4457610b446116ad565b81526020017f00000000000000000000000000000000000000000000000000000000000000006001600160a01b031663574a4cff6040518163ffffffff1660e01b81526004015f60405180830381865afa158015610ba4573d5f5f3e3d5ffd5b505050506040513d5f823e601f3d908101601f19168201604052610bcb9190810190611a71565b81525081600181518110610be157610be1611987565b602002602001018190525060405180606001604052807f00000000000000000000000000000000000000000000000000000000000000006001600160a01b031681526020015f6002811115610c3857610c386116ad565b81526020017f00000000000000000000000000000000000000000000000000000000000000006001600160a01b031663574a4cff6040518163ffffffff1660e01b81526004015f60405180830381865afa158015610c98573d5f5f3e3d5ffd5b505050506040513d5f823e601f3d908101601f19168201604052610cbf9190810190611a71565b81525081600281518110610cd557610cd5611987565b602002602001018190525060405180606001604052807f00000000000000000000000000000000000000000000000000000000000000006001600160a01b031681526020015f6002811115610d2c57610d2c6116ad565b81526020017f00000000000000000000000000000000000000000000000000000000000000006001600160a01b031663574a4cff6040518163ffffffff1660e01b81526004015f60405180830381865afa158015610d8c573d5f5f3e3d5ffd5b505050506040513d5f823e601f3d908101601f19168201604052610db39190810190611a71565b81525081600381518110610dc957610dc9611987565b602002602001018190525060405180606001604052807f00000000000000000000000000000000000000000000000000000000000000006001600160a01b031681526020015f6002811115610e2057610e206116ad565b81526020017f00000000000000000000000000000000000000000000000000000000000000006001600160a01b031663574a4cff6040518163ffffffff1660e01b81526004015f60405180830381865afa158015610e80573d5f5f3e3d5ffd5b505050506040513d5f823e601f3d908101601f19168201604052610ea79190810190611a71565b81525081600481518110610ebd57610ebd611987565b602002602001018190525060405180606001604052807f00000000000000000000000000000000000000000000000000000000000000006001600160a01b031681526020015f6002811115610f1457610f146116ad565b81526020017f00000000000000000000000000000000000000000000000000000000000000006001600160a01b031663574a4cff6040518163ffffffff1660e01b81526004015f60405180830381865afa158015610f74573d5f5f3e3d5ffd5b505050506040513d5f823e601f3d908101601f19168201604052610f9b9190810190611a71565b81525081600581518110610fb157610fb1611987565b602002602001018190525060405180606001604052807f00000000000000000000000000000000000000000000000000000000000000006001600160a01b031681526020015f6002811115611008576110086116ad565b81526020017f00000000000000000000000000000000000000000000000000000000000000006001600160a01b031663574a4cff6040518163ffffffff1660e01b81526004015f60405180830381865afa158015611068573d5f5f3e3d5ffd5b505050506040513d5f823e601f3d908101601f1916820160405261108f9190810190611a71565b815250816006815181106110a5576110a5611987565b602002602001018190525060405180606001604052807f00000000000000000000000000000000000000000000000000000000000000006001600160a01b031681526020015f60028111156110fc576110fc6116ad565b81526020017f00000000000000000000000000000000000000000000000000000000000000006001600160a01b031663574a4cff6040518163ffffffff1660e01b81526004015f60405180830381865afa15801561115c573d5f5f3e3d5ffd5b505050506040513d5f823e601f3d908101601f191682016040526111839190810190611a71565b8152508160078151811061119957611199611987565b602002602001018190525060405180606001604052807f00000000000000000000000000000000000000000000000000000000000000006001600160a01b031681526020015f60028111156111f0576111f06116ad565b81526020017f00000000000000000000000000000000000000000000000000000000000000006001600160a01b031663574a4cff6040518163ffffffff1660e01b81526004015f60405180830381865afa158015611250573d5f5f3e3d5ffd5b505050506040513d5f823e601f3d908101601f191682016040526112779190810190611a71565b8152508160088151811061128d5761128d611987565b602002602001018190525090565b5f5b92915050565b60408051808201909152601481527342616c616e63657256335661756c744446506b6760601b602082015290565b805160208201205f9061129d565b60608060606112ec6112a3565b92506112f66103c8565b9150611300610635565b9050909192565b6113367f867cc37b1d81c6898e0381d9834d1320e6a009ceb8f1f455820783856710c6b587878787878761133e565b505050505050565b6002870154600160601b900460ff16156113b75760405162461bcd60e51b815260206004820152602f60248201527f42616c616e63657256335661756c7453746f726167655265706f3a20616c726560448201526e18591e481a5b9a5d1a585b1a5e9959608a1b60648201526084015b60405180910390fd5b630784ce008463ffffffff16111561142b5760405162461bcd60e51b815260206004820152603160248201527f42616c616e63657256335661756c7453746f726167655265706f3a2070617573604482015270652077696e646f7720746f6f206c6f6e6760781b60648201526084016113ae565b62ed4e008363ffffffff16111561149f5760405162461bcd60e51b815260206004820152603260248201527f42616c616e63657256335661756c7453746f726167655265706f3a2062756666604482015271657220706572696f6420746f6f206c6f6e6760701b60648201526084016113ae565b858755600187018590555f6114b48542611b24565b60028901805463ffffffff878116600160401b026bffffffff00000000ffffffff199092169084161717905590506114ec8482611b24565b600289018054600c8b018054610100600160a81b0319166101006001600160a01b0398891602179055600d909a0180546001600160a01b031916949095169390931790935550600160601b68ff00000000ffffffff60201b19909716600160201b63ffffffff9093169290920260ff60601b1916919091179590951790945550505050565b5f8151808452602084019350602083015f5b828110156115ab5781516001600160e01b031916865260209586019590910190600101611583565b5093949350505050565b602081525f6115c76020830184611571565b9392505050565b63ffffffff811681146115df575f5ffd5b50565b6001600160a01b03811681146115df575f5ffd5b5f5f5f5f5f5f60c0878903121561160b575f5ffd5b86359550602087013594506040870135611624816115ce565b93506060870135611634816115ce565b92506080870135611644816115e2565b915060a0870135611654816115e2565b809150509295509295509295565b5f8151808452602084019350602083015f5b828110156115ab5781516001600160a01b0316865260209586019590910190600101611674565b602081525f6115c76020830184611662565b634e487b7160e01b5f52602160045260245ffd5b5f82825180855260208501945060208160051b830101602085015f5b8381101561175757848303601f19018852815180516001600160a01b0316845260208101516003811061171e57634e487b7160e01b5f52602160045260245ffd5b8060208601525060408101519050606060408501526117406060850182611571565b6020998a01999094509290920191506001016116dd565b50909695505050505050565b602081525f82516040602084015261177e60608401826116c1565b90506020840151601f1984830301604085015261179b8282611571565b95945050505050565b5f602082840312156117b4575f5ffd5b81356115c7816115e2565b634e487b7160e01b5f52604160045260245ffd5b604051601f8201601f191681016001600160401b03811182821017156117fb576117fb6117bf565b604052919050565b5f82601f830112611812575f5ffd5b81356001600160401b0381111561182b5761182b6117bf565b61183e601f8201601f19166020016117d3565b818152846020838601011115611852575f5ffd5b816020850160208301375f918101602001919091529392505050565b5f6020828403121561187e575f5ffd5b81356001600160401b03811115611893575f5ffd5b61189f84828501611803565b949350505050565b5f81518084528060208401602086015e5f602082860101526020601f19601f83011685010191505092915050565b602081525f6115c760208301846118a7565b602081525f6115c760208301846116c1565b5f5f6040838503121561190a575f5ffd5b8235611915816115e2565b915060208301356001600160401b0381111561192f575f5ffd5b61193b85828601611803565b9150509250929050565b606081525f61195760608301866118a7565b82810360208401526119698186611571565b9050828103604084015261197d8185611662565b9695505050505050565b634e487b7160e01b5f52603260045260245ffd5b6001600160a01b03831681526040602082018190525f9061189f908301846118a7565b5f602082840312156119ce575f5ffd5b81516115c7816115e2565b5f60c08284031280156119ea575f5ffd5b5060405160c081016001600160401b0381118282101715611a0d57611a0d6117bf565b60409081528351825260208085015190830152830151611a2c816115ce565b60408201526060830151611a3f816115ce565b60608201526080830151611a52816115e2565b608082015260a0830151611a65816115e2565b60a08201529392505050565b5f60208284031215611a81575f5ffd5b81516001600160401b03811115611a96575f5ffd5b8201601f81018413611aa6575f5ffd5b80516001600160401b03811115611abf57611abf6117bf565b8060051b611acf602082016117d3565b91825260208184018101929081019087841115611aea575f5ffd5b6020850194505b8385101561062a57845192506001600160e01b031983168314611b12575f5ffd5b82825260209485019490910190611af1565b63ffffffff818116838216019081111561129d57634e487b7160e01b5f52601160045260245ffdfea264697066735822122057cff5e998b0503d6762e20ced7a1eccb34d0232f80c1072051279c0739e81b164736f6c634300081e0033","linkReferences":{}},"methodIdentifiers":{"DIAMOND_PACKAGE_FACTORY()":"ab6046ed","VAULT_ADMIN_FACET()":"c3afaf34","VAULT_BUFFER_FACET()":"d0e1b286","VAULT_LIQUIDITY_FACET()":"448f405d","VAULT_POOL_TOKEN_FACET()":"05c5687f","VAULT_QUERY_FACET()":"26aaf985","VAULT_RECOVERY_FACET()":"0f5ef3c4","VAULT_REGISTRATION_FACET()":"72b12ecb","VAULT_SWAP_FACET()":"31cd3484","VAULT_TRANSIENT_FACET()":"14b94c31","calcSalt(bytes)":"d82be56e","deployVault(uint256,uint256,uint32,uint32,address,address)":"5260057a","diamondConfig()":"65d375b3","facetAddresses()":"52ef6b2c","facetCuts()":"a4b3ad35","facetInterfaces()":"2ea80826","initAccount(bytes)":"870d4838","packageMetadata()":"f45469e7","packageName()":"abc8b346","postDeploy(address)":"70068fcf","processArgs(bytes)":"87c3adb3","updatePkg(address,bytes)":"a9089235"},"id":986}