{"abi":[{"type":"constructor","inputs":[{"name":"pkgInit","type":"tuple","internalType":"struct ICowPoolDFPkg.PkgInit","components":[{"name":"balancerV3VaultAwareFacet","type":"address","internalType":"contract IFacet"},{"name":"betterBalancerV3PoolTokenFacet","type":"address","internalType":"contract IFacet"},{"name":"defaultPoolInfoFacet","type":"address","internalType":"contract IFacet"},{"name":"balancerV3AuthenticationFacet","type":"address","internalType":"contract IFacet"},{"name":"cowPoolFacet","type":"address","internalType":"contract IFacet"},{"name":"balancerV3Vault","type":"address","internalType":"contract IVault"},{"name":"diamondFactory","type":"address","internalType":"contract IDiamondPackageCallBackFactory"},{"name":"poolFeeManager","type":"address","internalType":"address"},{"name":"trustedCowRouter","type":"address","internalType":"address"}]}],"stateMutability":"nonpayable"},{"type":"function","name":"BALANCER_V3_AUTHENTICATION_FACET","inputs":[],"outputs":[{"name":"","type":"address","internalType":"contract IFacet"}],"stateMutability":"view"},{"type":"function","name":"BALANCER_V3_VAULT","inputs":[],"outputs":[{"name":"","type":"address","internalType":"contract IVault"}],"stateMutability":"view"},{"type":"function","name":"BALANCER_V3_VAULT_AWARE_FACET","inputs":[],"outputs":[{"name":"","type":"address","internalType":"contract IFacet"}],"stateMutability":"view"},{"type":"function","name":"BETTER_BALANCER_V3_POOL_TOKEN_FACET","inputs":[],"outputs":[{"name":"","type":"address","internalType":"contract IFacet"}],"stateMutability":"view"},{"type":"function","name":"COW_POOL_FACET","inputs":[],"outputs":[{"name":"","type":"address","internalType":"contract IFacet"}],"stateMutability":"view"},{"type":"function","name":"COW_POOL_FACTORY","inputs":[],"outputs":[{"name":"","type":"address","internalType":"address"}],"stateMutability":"view"},{"type":"function","name":"DEFAULT_POOL_INFO_FACET","inputs":[],"outputs":[{"name":"","type":"address","internalType":"contract IFacet"}],"stateMutability":"view"},{"type":"function","name":"DIAMOND_PACKAGE_FACTORY","inputs":[],"outputs":[{"name":"","type":"address","internalType":"contract IDiamondPackageCallBackFactory"}],"stateMutability":"view"},{"type":"function","name":"TRUSTED_COW_ROUTER","inputs":[],"outputs":[{"name":"","type":"address","internalType":"address"}],"stateMutability":"view"},{"type":"function","name":"calcSalt","inputs":[{"name":"pkgArgs","type":"bytes","internalType":"bytes"}],"outputs":[{"name":"salt","type":"bytes32","internalType":"bytes32"}],"stateMutability":"pure"},{"type":"function","name":"deployPool","inputs":[{"name":"tokenConfigs_","type":"tuple[]","internalType":"struct TokenConfig[]","components":[{"name":"token","type":"address","internalType":"contract IERC20"},{"name":"tokenType","type":"uint8","internalType":"enum TokenType"},{"name":"rateProvider","type":"address","internalType":"contract IRateProvider"},{"name":"paysYieldFees","type":"bool","internalType":"bool"}]},{"name":"normalizedWeights_","type":"uint256[]","internalType":"uint256[]"}],"outputs":[{"name":"pool","type":"address","internalType":"address"}],"stateMutability":"nonpayable"},{"type":"function","name":"diamondConfig","inputs":[],"outputs":[{"name":"config","type":"tuple","internalType":"struct IDiamondFactoryPackage.DiamondConfig","components":[{"name":"facetCuts","type":"tuple[]","internalType":"struct IDiamond.FacetCut[]","components":[{"name":"facetAddress","type":"address","internalType":"address"},{"name":"action","type":"uint8","internalType":"enum IDiamond.FacetCutAction"},{"name":"functionSelectors","type":"bytes4[]","internalType":"bytes4[]"}]},{"name":"interfaces","type":"bytes4[]","internalType":"bytes4[]"}]}],"stateMutability":"view"},{"type":"function","name":"disable","inputs":[],"outputs":[],"stateMutability":"nonpayable"},{"type":"function","name":"facetAddresses","inputs":[],"outputs":[{"name":"facetAddresses_","type":"address[]","internalType":"address[]"}],"stateMutability":"view"},{"type":"function","name":"facetCuts","inputs":[],"outputs":[{"name":"facetCuts_","type":"tuple[]","internalType":"struct IDiamond.FacetCut[]","components":[{"name":"facetAddress","type":"address","internalType":"address"},{"name":"action","type":"uint8","internalType":"enum IDiamond.FacetCutAction"},{"name":"functionSelectors","type":"bytes4[]","internalType":"bytes4[]"}]}],"stateMutability":"view"},{"type":"function","name":"facetInterfaces","inputs":[],"outputs":[{"name":"interfaces","type":"bytes4[]","internalType":"bytes4[]"}],"stateMutability":"pure"},{"type":"function","name":"getActionId","inputs":[{"name":"selector","type":"bytes4","internalType":"bytes4"}],"outputs":[{"name":"","type":"bytes32","internalType":"bytes32"}],"stateMutability":"view"},{"type":"function","name":"getDeploymentAddress","inputs":[{"name":"constructorArgs","type":"bytes","internalType":"bytes"},{"name":"","type":"bytes32","internalType":"bytes32"}],"outputs":[{"name":"","type":"address","internalType":"address"}],"stateMutability":"view"},{"type":"function","name":"getNewPoolPauseWindowEndTime","inputs":[],"outputs":[{"name":"","type":"uint32","internalType":"uint32"}],"stateMutability":"view"},{"type":"function","name":"getOriginalPauseWindowEndTime","inputs":[],"outputs":[{"name":"","type":"uint32","internalType":"uint32"}],"stateMutability":"view"},{"type":"function","name":"getPauseWindowDuration","inputs":[],"outputs":[{"name":"","type":"uint32","internalType":"uint32"}],"stateMutability":"view"},{"type":"function","name":"getPoolCount","inputs":[],"outputs":[{"name":"","type":"uint256","internalType":"uint256"}],"stateMutability":"view"},{"type":"function","name":"getPools","inputs":[],"outputs":[{"name":"","type":"address[]","internalType":"address[]"}],"stateMutability":"view"},{"type":"function","name":"getPoolsInRange","inputs":[{"name":"start","type":"uint256","internalType":"uint256"},{"name":"count","type":"uint256","internalType":"uint256"}],"outputs":[{"name":"","type":"address[]","internalType":"address[]"}],"stateMutability":"view"},{"type":"function","name":"getTrustedCowRouter","inputs":[],"outputs":[{"name":"","type":"address","internalType":"address"}],"stateMutability":"view"},{"type":"function","name":"initAccount","inputs":[{"name":"initArgs","type":"bytes","internalType":"bytes"}],"outputs":[],"stateMutability":"nonpayable"},{"type":"function","name":"isDisabled","inputs":[],"outputs":[{"name":"","type":"bool","internalType":"bool"}],"stateMutability":"view"},{"type":"function","name":"isPoolFromFactory","inputs":[{"name":"pool","type":"address","internalType":"address"}],"outputs":[{"name":"","type":"bool","internalType":"bool"}],"stateMutability":"view"},{"type":"function","name":"packageMetadata","inputs":[],"outputs":[{"name":"name_","type":"string","internalType":"string"},{"name":"interfaces","type":"bytes4[]","internalType":"bytes4[]"},{"name":"facets","type":"address[]","internalType":"address[]"}],"stateMutability":"view"},{"type":"function","name":"packageName","inputs":[],"outputs":[{"name":"name_","type":"string","internalType":"string"}],"stateMutability":"pure"},{"type":"function","name":"postDeploy","inputs":[{"name":"proxy","type":"address","internalType":"address"}],"outputs":[{"name":"","type":"bool","internalType":"bool"}],"stateMutability":"nonpayable"},{"type":"function","name":"processArgs","inputs":[{"name":"pkgArgs","type":"bytes","internalType":"bytes"}],"outputs":[{"name":"processedPkgArgs","type":"bytes","internalType":"bytes"}],"stateMutability":"pure"},{"type":"function","name":"tokenConfigs","inputs":[{"name":"pool","type":"address","internalType":"address"}],"outputs":[{"name":"","type":"tuple[]","internalType":"struct TokenConfig[]","components":[{"name":"token","type":"address","internalType":"contract IERC20"},{"name":"tokenType","type":"uint8","internalType":"enum TokenType"},{"name":"rateProvider","type":"address","internalType":"contract IRateProvider"},{"name":"paysYieldFees","type":"bool","internalType":"bool"}]}],"stateMutability":"view"},{"type":"function","name":"updatePkg","inputs":[{"name":"expectedProxy","type":"address","internalType":"address"},{"name":"pkgArgs","type":"bytes","internalType":"bytes"}],"outputs":[{"name":"","type":"bool","internalType":"bool"}],"stateMutability":"nonpayable"},{"type":"event","name":"CowTrustedRouterChanged","inputs":[{"name":"newTrustedCowRouter","type":"address","indexed":false,"internalType":"address"}],"anonymous":false},{"type":"event","name":"FactoryDisabled","inputs":[],"anonymous":false},{"type":"event","name":"PoolCreated","inputs":[{"name":"pool","type":"address","indexed":true,"internalType":"address"}],"anonymous":false},{"type":"error","name":"Disabled","inputs":[]},{"type":"error","name":"IndexOutOfBounds","inputs":[]},{"type":"error","name":"IndexOutOfBounds","inputs":[{"name":"length","type":"uint256","internalType":"uint256"},{"name":"invalidIndex","type":"uint256","internalType":"uint256"},{"name":"errorCode","type":"uint256","internalType":"uint256"}]},{"type":"error","name":"InvalidCowPoolFactory","inputs":[]},{"type":"error","name":"InvalidPageSize","inputs":[{"name":"start","type":"uint256","internalType":"uint256"},{"name":"end","type":"uint256","internalType":"uint256"}]},{"type":"error","name":"InvalidTokensLength","inputs":[{"name":"maxLength","type":"uint256","internalType":"uint256"},{"name":"minLength","type":"uint256","internalType":"uint256"},{"name":"providedLength","type":"uint256","internalType":"uint256"}]},{"type":"error","name":"InvalidTrustedCowRouter","inputs":[]},{"type":"error","name":"InvalidTrustedCowRouter","inputs":[]},{"type":"error","name":"InvalidWeightsLength","inputs":[]},{"type":"error","name":"PoolPauseWindowDurationOverflow","inputs":[]},{"type":"error","name":"SenderNotAllowed","inputs":[]},{"type":"error","name":"StringTooLong","inputs":[{"name":"str","type":"string","internalType":"string"}]},{"type":"error","name":"WeightsMustSumToOne","inputs":[]},{"type":"error","name":"WeightsTokensMismatch","inputs":[{"name":"tokensLength","type":"uint256","internalType":"uint256"},{"name":"weightsLength","type":"uint256","internalType":"uint256"}]},{"type":"error","name":"ZeroWeight","inputs":[]}],"bytecode":{"object":"0x6101a0604052348015610010575f5ffd5b50604051613c43380380613c4383398101604081905261002f91610294565b6101008101516001600160a01b031661005b5760405163b4d8fbf360e01b815260040160405180910390fd5b60a0808201516001600160a01b03908116608090815260c08085015183169093526101008085015183169093523060e09081528451831690935260208401518216610120526040840151821661014052606084015182166101605283015116610180528101516100d0906301e1338090610114565b6040805130602082015261010091016040516020818303038152906040528051906020012061014360201b60201c565b60a081015161010e9061016f565b50610379565b61013f7f083b184f81c44d1555bdab2b99aeea4d11b107caca4883125bcb0b412d1f813283836101ae565b5050565b61016c7f82340927aad1ca6b5f8bb0037567f287e1bec629ab302d4e1debbc0d7543b1f8829055565b50565b61016c7f392e49ca1983749c4549242b814e6592e6c2354a2bb55242596ce0ad2e7b100180546001600160a01b0319166001600160a01b038416179055565b5f6101b9834261034b565b905063ffffffff80821611156101e2576040516368755a1160e01b815260040160405180910390fd5b8354610100600160481b0319166501000000000063ffffffff9283160264ffffffff00191617610100939091169290920291909117600160481b600160e81b03191669010000000000000000006001600160a01b039290921691909102179055565b60405161012081016001600160401b038111828210171561027357634e487b7160e01b5f52604160045260245ffd5b60405290565b80516001600160a01b038116811461028f575f5ffd5b919050565b5f6101208284031280156102a6575f5ffd5b506102af610244565b6102b883610279565b81526102c660208401610279565b60208201526102d760408401610279565b60408201526102e860608401610279565b60608201526102f960808401610279565b608082015261030a60a08401610279565b60a082015261031b60c08401610279565b60c082015261032c60e08401610279565b60e082015261033e6101008401610279565b6101008201529392505050565b63ffffffff818116838216019081111561037357634e487b7160e01b5f52601160045260245ffd5b92915050565b60805160a05160c05160e05161010051610120516101405161016051610180516137d26104715f395f818161046f01528181610acc015281816113cc015261141201525f818161049e01528181610a78015281816112d8015261131e01525f818161038801528181610a24015281816111e4015261122a01525f81816103af015281816109d0015281816110f0015261113601525f818161034e0152818161097d01528181611012015261104301525f81816102530152610dba01525f818161022a015281816104dc0152610ddb01525f8181610425015281816108db0152610e6e01525f81816103eb0152610d9101526137d25ff3fe608060405234801561000f575f5ffd5b5060043610610194575f3560e01c80631b69dc5f146101985780632ea80826146101c15780632f2770db146101d657806344f6fec7146101e057806352ef6b2c1461020057806353a72f7e14610215578063548e9615146102285780636147c1f41461024e57806365d375b3146102755780636634b7531461028a578063673a2a1f146102ad5780636c57f5a9146102b557806370068fcf146102bd57806378da80cb146102d0578063851c1bb3146102ed578063870d48381461030e57806387c3adb3146103215780638eec5d701461034157806390d8c70514610349578063a02a3f2314610370578063a2bebeb214610383578063a378544d146103aa578063a4b3ad35146103d1578063a4c01bbb146103e6578063a90892351461040d578063ab6046ed14610420578063abc8b34614610447578063d82be56e1461044f578063db035ebc14610462578063e010883f1461046a578063e9d56e1914610491578063f070332514610499578063f45469e7146104c0578063fc6fa0b4146104d7575b5f5ffd5b6101ab6101a6366004612a57565b6104fe565b6040516101b89190612b15565b60405180910390f35b6101c961050f565b6040516101b89190612b61565b6101de61087d565b005b6101f36101ee366004612c79565b6108c2565b6040516101b89190612cba565b610208610958565b6040516101b89190612d07565b610208610223366004612d19565b610b21565b7f00000000000000000000000000000000000000000000000000000000000000006101f3565b6101f37f000000000000000000000000000000000000000000000000000000000000000081565b61027d610b2d565b6040516101b89190612dcf565b61029d610298366004612a57565b610b68565b60405190151581526020016101b8565b610208610b72565b61029d610b81565b61029d6102cb366004612a57565b610b8a565b6102d8610bff565b60405163ffffffff90911681526020016101b8565b6103006102fb366004612e1c565b610c08565b6040519081526020016101b8565b6101de61031c366004612e37565b610c12565b61033461032f366004612e37565b610e05565b6040516101b89190612e96565b610300610e62565b6101f37f000000000000000000000000000000000000000000000000000000000000000081565b6101f361037e366004612ee8565b610e6b565b6101f37f000000000000000000000000000000000000000000000000000000000000000081565b6101f37f000000000000000000000000000000000000000000000000000000000000000081565b6103d9610fb7565b6040516101b89190612f80565b6101f37f000000000000000000000000000000000000000000000000000000000000000081565b61029d61041b366004612f92565b6114b6565b6101f37f000000000000000000000000000000000000000000000000000000000000000081565b6103346114e5565b61030061045d366004612e37565b61150b565b6102d861160d565b6101f37f000000000000000000000000000000000000000000000000000000000000000081565b6102d8611616565b6101f37f000000000000000000000000000000000000000000000000000000000000000081565b6104c861161f565b6040516101b893929190612fde565b6101f37f000000000000000000000000000000000000000000000000000000000000000081565b606061050982611647565b92915050565b60408051600e8082526101e08201909252606091602082016101c0803683370190505090506336372b0760e01b815f8151811061054e5761054e613020565b60200260200101906001600160e01b03191690816001600160e01b0319168152505063a219a02560e01b8160018151811061058b5761058b613020565b6001600160e01b0319909216602092830291909101909101528051634a17459160e11b90829060029081106105c2576105c2613020565b60200260200101906001600160e01b03191690816001600160e01b03191681525050634ec7fbed60e11b816003815181106105ff576105ff613020565b60200260200101906001600160e01b03191690816001600160e01b031916815250506342580cb760e11b8160048151811061063c5761063c613020565b60200260200101906001600160e01b03191690816001600160e01b03191681525050634b12c34f60e01b8160058151811061067957610679613020565b60200260200101906001600160e01b03191690816001600160e01b0319168152505063e244eef560e01b816006815181106106b6576106b6613020565b60200260200101906001600160e01b03191690816001600160e01b03191681525050637e126dc760e11b816007815181106106f3576106f3613020565b60200260200101906001600160e01b03191690816001600160e01b031916815250506355b60edd60e11b8160088151811061073057610730613020565b60200260200101906001600160e01b03191690816001600160e01b0319168152505063914be08960e01b8160098151811061076d5761076d613020565b60200260200101906001600160e01b03191690816001600160e01b0319168152505063755994e960e01b81600a815181106107aa576107aa613020565b60200260200101906001600160e01b03191690816001600160e01b0319168152505063057a4e0360e01b81600b815181106107e7576107e7613020565b60200260200101906001600160e01b03191690816001600160e01b03191681525050630ba7be4b60e31b81600c8151811061082457610824613020565b60200260200101906001600160e01b03191690816001600160e01b0319168152505063f89f27ed60e01b81600d8151811061086157610861613020565b6001600160e01b03199092166020928302919091019091015290565b306108878161165a565b61088f61169d565b6108976116c5565b6040517f432acbfd662dbb5d8b378384a67159b47ca9d0f1b79f97cf64cf8585fa362d50905f90a150565b60405163033a41d760e41b81525f906001600160a01b037f000000000000000000000000000000000000000000000000000000000000000016906333a41d70906109129030908790600401613034565b602060405180830381865afa15801561092d573d5f5f3e3d5ffd5b505050506040513d601f19601f820116820180604052508101906109519190613057565b9392505050565b60408051600580825260c082019092526060916020820160a0803683370190505090507f0000000000000000000000000000000000000000000000000000000000000000815f815181106109ae576109ae613020565b60200260200101906001600160a01b031690816001600160a01b0316815250507f000000000000000000000000000000000000000000000000000000000000000081600181518110610a0257610a02613020565b60200260200101906001600160a01b031690816001600160a01b0316815250507f000000000000000000000000000000000000000000000000000000000000000081600281518110610a5657610a56613020565b60200260200101906001600160a01b031690816001600160a01b0316815250507f000000000000000000000000000000000000000000000000000000000000000081600381518110610aaa57610aaa613020565b60200260200101906001600160a01b031690816001600160a01b0316815250507f000000000000000000000000000000000000000000000000000000000000000081600481518110610afe57610afe613020565b60200260200101906001600160a01b031690816001600160a01b03168152505090565b606061095183836116dd565b60408051808201909152606080825260208201526040518060400160405280610b54610fb7565b8152602001610b6161050f565b9052919050565b5f610509826116f1565b6060610b7c611703565b905090565b5f610b7c611715565b5f610bf782610b9884611647565b66b1a2bc2ec500005f610ba9611728565b87610bf260408051608080820183525f80835260208084018290528385018290526060938401829052845192830185526001808452908301829052938201529081019190915290565b611775565b506001919050565b5f610b7c6117fc565b5f61050982611817565b5f81806020019051810190610c279190613112565b90505f815f0151516001600160401b03811115610c4657610c46612b73565b604051908082528060200260200182016040528015610c6f578160200160208202803683370190505b5090505f5b825151811015610ccf578251805182908110610c9257610c92613020565b60200260200101515f0151828281518110610caf57610caf613020565b6001600160a01b0390921660209283029190910190910152600101610c74565b505f610cda82611829565b9050610d03816040518060400160405280600381526020016210941560ea1b8152506012611a6f565b610d2681604051806040016040528060018152602001603160f81b815250611a87565b610d50670853a0d2313c0000674563918244f4000064e8d4a5100067016345785d8a000086611a99565b610d5d8360200151611ace565b610d8c30604051602001610d719190612cba565b60405160208183030381529060405280519060200120611afb565b610db57f0000000000000000000000000000000000000000000000000000000000000000611b0b565b610dff7f00000000000000000000000000000000000000000000000000000000000000007f0000000000000000000000000000000000000000000000000000000000000000611b31565b50505050565b60605f82806020019051810190610e1c9190613112565b60208101518151919250610e309190611b5c565b602080840191909152908252604051610e4b9183910161325b565b604051602081830303815290604052915050919050565b5f610b7c611d6a565b5f7f00000000000000000000000000000000000000000000000000000000000000006001600160a01b031663e97fac053060405180604001604052808989808060200260200160405190810160405280939291908181526020015f905b82821015610ef457610ee5608083028601368190038101906132f8565b81526020019060010190610ec8565b505050505081526020018787808060200260200160405190810160405280939291908181526020018383602002808284375f920191909152505050915250604051610f42919060200161325b565b6040516020818303038152906040526040518363ffffffff1660e01b8152600401610f6e929190613034565b6020604051808303815f875af1158015610f8a573d5f5f3e3d5ffd5b505050506040513d601f19601f82011682018060405250810190610fae9190613057565b95945050505050565b60408051600580825260c08201909252606091816020015b60408051606080820183525f808352602083015291810191909152815260200190600190039081610fcf5790505060408051606081019091526001600160a01b037f0000000000000000000000000000000000000000000000000000000000000000168152909150602081015f81526020017f00000000000000000000000000000000000000000000000000000000000000006001600160a01b031663574a4cff6040518163ffffffff1660e01b81526004015f60405180830381865afa15801561109c573d5f5f3e3d5ffd5b505050506040513d5f823e601f3d908101601f191682016040526110c3919081019061335f565b815250815f815181106110d8576110d8613020565b602002602001018190525060405180606001604052807f00000000000000000000000000000000000000000000000000000000000000006001600160a01b031681526020015f600281111561112f5761112f612a72565b81526020017f00000000000000000000000000000000000000000000000000000000000000006001600160a01b031663574a4cff6040518163ffffffff1660e01b81526004015f60405180830381865afa15801561118f573d5f5f3e3d5ffd5b505050506040513d5f823e601f3d908101601f191682016040526111b6919081019061335f565b815250816001815181106111cc576111cc613020565b602002602001018190525060405180606001604052807f00000000000000000000000000000000000000000000000000000000000000006001600160a01b031681526020015f600281111561122357611223612a72565b81526020017f00000000000000000000000000000000000000000000000000000000000000006001600160a01b031663574a4cff6040518163ffffffff1660e01b81526004015f60405180830381865afa158015611283573d5f5f3e3d5ffd5b505050506040513d5f823e601f3d908101601f191682016040526112aa919081019061335f565b815250816002815181106112c0576112c0613020565b602002602001018190525060405180606001604052807f00000000000000000000000000000000000000000000000000000000000000006001600160a01b031681526020015f600281111561131757611317612a72565b81526020017f00000000000000000000000000000000000000000000000000000000000000006001600160a01b031663574a4cff6040518163ffffffff1660e01b81526004015f60405180830381865afa158015611377573d5f5f3e3d5ffd5b505050506040513d5f823e601f3d908101601f1916820160405261139e919081019061335f565b815250816003815181106113b4576113b4613020565b602002602001018190525060405180606001604052807f00000000000000000000000000000000000000000000000000000000000000006001600160a01b031681526020015f600281111561140b5761140b612a72565b81526020017f00000000000000000000000000000000000000000000000000000000000000006001600160a01b031663574a4cff6040518163ffffffff1660e01b81526004015f60405180830381865afa15801561146b573d5f5f3e3d5ffd5b505050506040513d5f823e601f3d908101601f19168201604052611492919081019061335f565b815250816004815181106114a8576114a8613020565b602002602001018190525090565b5f5f828060200190518101906114cc9190613112565b90506114db84825f0151611d7b565b5060019392505050565b60408051808201909152600c81526b436f77506f6f6c4446506b6760a01b602082015290565b5f5f828060200190518101906115219190613112565b80515190915060028110806115365750600881115b1561156557600860028260405163d484b2bd60e01b815260040161155c939291906133ee565b60405180910390fd5b808260200151511461159b576020820151516040516307e9b3f360e21b815261155c918391600401918252602082015260400190565b602082015182516115ab91611b5c565b6020808501919091529083526040516115c69184910161325b565b6040516020818303038152906040529350611605846040516020016115eb9190612e96565b604051602081830303815290604052805160209091012090565b949350505050565b5f610b7c611d8d565b5f610b7c611d9e565b606080606061162c6114e5565b925061163661050f565b9150611640610958565b9050909192565b6060610509611654611dbb565b83611ddf565b5f61166f5f356001600160e01b031916611817565b905061167c813384611f6c565b611699576040516323dada5360e01b815260040160405180910390fd5b5050565b6116a5611715565b156116c357604051633ac4266d60e11b815260040160405180910390fd5b565b6116c36116d0611dbb565b805460ff19166001179055565b60606109516116ea611dbb565b848461204d565b5f6105096116fd611dbb565b8361205d565b6060610b7c611710611dbb565b61206b565b5f610b7c611721611dbb565b5460ff1690565b604080516060810182525f808252602082018190529181018290529061174c6120cf565b604080516060810182526001600160a01b03909216808352602083018190529082015292915050565b61177e876120ef565b611786612100565b6001600160a01b031663eeec802f88888861179f61160d565b898989896040518963ffffffff1660e01b81526004016117c6989796959493929190613404565b5f604051808303815f87803b1580156117dd575f5ffd5b505af11580156117ef573d5f5f3e3d5ffd5b5050505050505050505050565b5f610b7c611808611dbb565b54610100900463ffffffff1690565b5f610509611823612119565b8361213d565b6060815160020361195257815f8151811061184657611846613020565b60200260200101516001600160a01b03166306fdde036040518163ffffffff1660e01b81526004015f60405180830381865afa158015611888573d5f5f3e3d5ffd5b505050506040513d5f823e601f3d908101601f191682016040526118af91908101906134b5565b826001815181106118c2576118c2613020565b60200260200101516001600160a01b03166306fdde036040518163ffffffff1660e01b81526004015f60405180830381865afa158015611904573d5f5f3e3d5ffd5b505050506040513d5f823e601f3d908101601f1916820160405261192b91908101906134b5565b60405160200161193c929190613540565b6040516020818303038152906040529050919050565b60408051808201909152600b81526a084ac6686deae40decc40560ab1b60208201525f5b8351811015611a5d578184828151811061199257611992613020565b60200260200101516001600160a01b03166306fdde036040518163ffffffff1660e01b81526004015f60405180830381865afa1580156119d4573d5f5f3e3d5ffd5b505050506040513d5f823e601f3d908101601f191682016040526119fb91908101906134b5565b604051602001611a0c929190613588565b604051602081830303815290604052915060018451611a2b91906135b0565b811015611a555781604051602001611a4391906135c3565b60405160208183030381529060405291505b600101611976565b5080604051602001610e4b91906135e1565b611a82611a7a61216c565b8484846121b7565b505050565b611699611a926121ee565b8383612221565b611ac77fad058ae2c4fd2dc635a6531cef09fdcc7264c09c1ee65b9e398137189754ce718686868686612288565b5050505050565b611af87f0b1f699f9a8cb016dcd6d3f4119ffc688f82df3a97972f71dfa812f53cb486a3826122b6565b50565b611af8611b06612119565b829055565b611af8611b16612388565b80546001600160a01b0319166001600160a01b038416179055565b6116997ff64e9102482a84c90cc33e99848a0b00fb3fb77d441d4c9b064f0da17ed6c04283836123ac565b6060808251845114611ba25760405162461bcd60e51b815260206004820152600f60248201526e098cadccee8d040dad2e6dac2e8c6d608b1b604482015260640161155c565b50829050815f60015b8351811015611d60575f9150815b818551611bc691906135b0565b811015611d4b57848181518110611bdf57611bdf613020565b60200260200101515f01516001600160a01b031685826001611c0191906135fd565b81518110611c1157611c11613020565b60200260200101515f01516001600160a01b03161015611d43575f858281518110611c3e57611c3e613020565b6020026020010151905085826001611c5691906135fd565b81518110611c6657611c66613020565b6020026020010151868381518110611c8057611c80613020565b60209081029190910101528086611c988460016135fd565b81518110611ca857611ca8613020565b60200260200101819052505f858381518110611cc657611cc6613020565b6020026020010151905085836001611cde91906135fd565b81518110611cee57611cee613020565b6020026020010151868481518110611d0857611d08613020565b60209081029190910101528086611d208560016135fd565b81518110611d3057611d30613020565b6020026020010181815250506001945050505b600101611bb9565b5081611d58575050611d63565b600101611bab565b50505b9250929050565b5f610b7c611d76611dbb565b612462565b611699611d86611dbb565b838361246e565b5f610b7c611d99611dbb565b612686565b5f610b7c611daa611dbb565b54600160281b900463ffffffff1690565b7f083b184f81c44d1555bdab2b99aeea4d11b107caca4883125bcb0b412d1f813290565b6001600160a01b0381165f908152600383016020526040902060010154606090806001600160401b03811115611e1757611e17612b73565b604051908082528060200260200182016040528015611e6757816020015b604080516080810182525f8082526020808301829052928201819052606082015282525f19909201910181611e355790505b5091505f5b81811015611f64576001600160a01b0384165f9081526003860160205260408120611e9790836126b3565b604080516080810182526001600160a01b038084168083529089165f90815260048b0160209081528482209282529182529290922054929350919082019060ff166001811115611ee957611ee9612a72565b81526001600160a01b038088165f81815260058b0160209081526040808320888616808552908352818420549095168287015292825260068c01815282822093825292909252908190205460ff1615159101528451859084908110611f5057611f50613020565b602090810291909101015250600101611e6c565b505092915050565b5f611f75612100565b6001600160a01b031663aaabadc56040518163ffffffff1660e01b8152600401602060405180830381865afa158015611fb0573d5f5f3e3d5ffd5b505050506040513d601f19601f82011682018060405250810190611fd49190613057565b6040516326f8aa2160e21b8152600481018690526001600160a01b03858116602483015284811660448301529190911690639be2a88490606401602060405180830381865afa158015612029573d5f5f3e3d5ffd5b505050506040513d601f19601f820116820180604052508101906116059190613610565b60606116056001850184846126f5565b5f6109516001840183612803565b6060600282018054806020026020016040519081016040528092919081815260200182805480156120c357602002820191905f5260205f20905b81546001600160a01b031681526001909101906020018083116120a5575b50505050509050919050565b5f610b7c6120db611dbb565b54600160481b90046001600160a01b031690565b611af86120fa611dbb565b82612820565b5f610b7c61210c612388565b546001600160a01b031690565b7f82340927aad1ca6b5f8bb0037567f287e1bec629ab302d4e1debbc0d7543b1f890565b5f610951612149845490565b6040805160208101929092526001600160e01b03198516908201526044016115eb565b5f610b7c60405160200161219e906020808252600a908201526906569702e6572632e32360b41b604082015260600190565b6040516020818303038152906040528051906020012090565b836121c284826136a7565b50600184016121d183826136a7565b50600293909301805460ff191660ff909416939093179092555050565b5f610b7c60405160200161219e906020808252600b908201526a32b4b81732b4b8171b989960a91b604082015260600190565b61222e826007850161282d565b6005840155612240816008850161282d565b600684015581516020808401919091206003850155815190820120600484015546600184015561226f8361288a565b8355505060020180546001600160a01b03191630179055565b8486556001860184905560028601839055600386018290556122ad60048701826128e4565b50505050505050565b6002815110156122d95760405163f846d15360e01b815260040160405180910390fd5b5f805b825181101561234d578281815181106122f7576122f7613020565b60200260200101515f0361231e576040516319a2a9bd60e01b815260040160405180910390fd5b82818151811061233057612330613020565b60200260200101518261234391906135fd565b91506001016122dc565b50670de0b6b3a764000081146123765760405163e6d31c7960e01b815260040160405180910390fd5b8151610dff90849060208501906129e6565b7f392e49ca1983749c4549242b814e6592e6c2354a2bb55242596ce0ad2e7b100190565b6001600160a01b0382166123d357604051637f00600b60e01b815260040160405180910390fd5b6001600160a01b0381166123fa5760405163b4d8fbf360e01b815260040160405180910390fd5b6001830180546001600160a01b038085166001600160a01b031992831617909255845491831691161783556040517fa2bffbf2e11d4267aadd6e35608a40b95ee2f64f9470dfad8bce6e8c79df24a290612455908390612cba565b60405180910390a1505050565b60028101545f90610509565b5f5b8151811015610dff576124bb82828151811061248e5761248e613020565b602090810291909101810151516001600160a01b0386165f90815260038801909252604090912090612925565b508181815181106124ce576124ce613020565b602002602001015160400151846005015f856001600160a01b03166001600160a01b031681526020019081526020015f205f84848151811061251257612512613020565b60200260200101515f01516001600160a01b03166001600160a01b031681526020019081526020015f205f6101000a8154816001600160a01b0302191690836001600160a01b0316021790555081818151811061257157612571613020565b602002602001015160200151846004015f856001600160a01b03166001600160a01b031681526020019081526020015f205f8484815181106125b5576125b5613020565b602090810291909101810151516001600160a01b031682528101919091526040015f20805460ff1916600183818111156125f1576125f1612a72565b021790555081818151811061260857612608613020565b602002602001015160600151846006015f856001600160a01b03166001600160a01b031681526020019081526020015f205f84848151811061264c5761264c613020565b602090810291909101810151516001600160a01b031682528101919091526040015f20805460ff1916911515919091179055600101612470565b5f5f61269e835463ffffffff600160281b9091041690565b90508063ffffffff164210610509575f610951565b60018201545f906126c49083612981565b508260010182815481106126da576126da613020565b5f918252602090912001546001600160a01b03169392505050565b6060828210156127225760405163dc78128f60e01b8152600481018490526024810183905260440161155c565b5f61272e856001015490565b905061273a8185612981565b506127458184612981565b505f61275185856135b0565b61275c9060016135fd565b9050806001600160401b0381111561277657612776612b73565b60405190808252806020026020018201604052801561279f578160200160208202803683370190505b5092505f855b8581116127f8576127b688826126b3565b8583815181106127c8576127c8613020565b6001600160a01b0390921660209283029190910190910152600190910190806127f081613761565b9150506127a5565b505050509392505050565b6001600160a01b03165f9081526020919091526040902054151590565b611a826001830182612925565b5f60208351101561284857612841836129a9565b9050610509565b825160018160011b178355825f5260205f20602085015f5b8381101561287c5781810151600582901c840155602001612860565b5060ff935061050992505050565b60038101546004820154604080517f8b73c3c69bb8fe3d512ecc4cf759cc79239f7b179b0ffacaa9a75d522b39400f60208201529081019290925260608201524660808201523060a08201525f906105099060c0016115eb565b5f805b82518110156114db5761291c83828151811061290557612905613020565b60200260200101518561292590919063ffffffff16565b506001016128e7565b5f6129308383612803565b612978576001838101805491820181555f818152602080822090930180546001600160a01b0319166001600160a01b0387169081179091559154918152918590526040909120555b50600192915050565b5f8183116129785782826032604051635400feb960e01b815260040161155c939291906133ee565b5f5f829050601f815111156129d3578260405163305a27a960e01b815260040161155c9190612e96565b80516129de82613779565b179392505050565b828054828255905f5260205f20908101928215612a1f579160200282015b82811115612a1f578251825591602001919060010190612a04565b50612a2b929150612a2f565b5090565b5b80821115612a2b575f8155600101612a30565b6001600160a01b0381168114611af8575f5ffd5b5f60208284031215612a67575f5ffd5b813561095181612a43565b634e487b7160e01b5f52602160045260245ffd5b80516001600160a01b0316825260208101515f9060028110612aaa57612aaa612a72565b6020840152506040818101516001600160a01b03169083015260609081015115159082015260800190565b5f8151808452602084019350602083015f5b82811015612b0b57612afa868351612a86565b955060209190910190600101612ae7565b5093949350505050565b602081525f6109516020830184612ad5565b5f8151808452602084019350602083015f5b82811015612b0b5781516001600160e01b031916865260209586019590910190600101612b39565b602081525f6109516020830184612b27565b634e487b7160e01b5f52604160045260245ffd5b604080519081016001600160401b0381118282101715612ba957612ba9612b73565b60405290565b604051608081016001600160401b0381118282101715612ba957612ba9612b73565b604051601f8201601f191681016001600160401b0381118282101715612bf957612bf9612b73565b604052919050565b5f6001600160401b03821115612c1957612c19612b73565b50601f01601f191660200190565b5f82601f830112612c36575f5ffd5b8135612c49612c4482612c01565b612bd1565b818152846020838601011115612c5d575f5ffd5b816020850160208301375f918101602001919091529392505050565b5f5f60408385031215612c8a575f5ffd5b82356001600160401b03811115612c9f575f5ffd5b612cab85828601612c27565b95602094909401359450505050565b6001600160a01b0391909116815260200190565b5f8151808452602084019350602083015f5b82811015612b0b5781516001600160a01b0316865260209586019590910190600101612ce0565b602081525f6109516020830184612cce565b5f5f60408385031215612d2a575f5ffd5b50508035926020909101359150565b5f82825180855260208501945060208160051b830101602085015f5b83811015612dc357848303601f19018852815180516001600160a01b03168452602081015160038110612d8a57612d8a612a72565b806020860152506040810151905060606040850152612dac6060850182612b27565b6020998a0199909450929092019150600101612d55565b50909695505050505050565b602081525f825160406020840152612dea6060840182612d39565b90506020840151601f19848303016040850152610fae8282612b27565b6001600160e01b031981168114611af8575f5ffd5b5f60208284031215612e2c575f5ffd5b813561095181612e07565b5f60208284031215612e47575f5ffd5b81356001600160401b03811115612e5c575f5ffd5b61160584828501612c27565b5f81518084528060208401602086015e5f602082860101526020601f19601f83011685010191505092915050565b602081525f6109516020830184612e68565b5f5f83601f840112612eb8575f5ffd5b5081356001600160401b03811115612ece575f5ffd5b6020830191508360208260051b8501011115611d63575f5ffd5b5f5f5f5f60408587031215612efb575f5ffd5b84356001600160401b03811115612f10575f5ffd5b8501601f81018713612f20575f5ffd5b80356001600160401b03811115612f35575f5ffd5b8760208260071b8401011115612f49575f5ffd5b6020918201955093508501356001600160401b03811115612f68575f5ffd5b612f7487828801612ea8565b95989497509550505050565b602081525f6109516020830184612d39565b5f5f60408385031215612fa3575f5ffd5b8235612fae81612a43565b915060208301356001600160401b03811115612fc8575f5ffd5b612fd485828601612c27565b9150509250929050565b606081525f612ff06060830186612e68565b82810360208401526130028186612b27565b905082810360408401526130168185612cce565b9695505050505050565b634e487b7160e01b5f52603260045260245ffd5b6001600160a01b03831681526040602082018190525f9061160590830184612e68565b5f60208284031215613067575f5ffd5b815161095181612a43565b5f6001600160401b0382111561308a5761308a612b73565b5060051b60200190565b60028110611af8575f5ffd5b8015158114611af8575f5ffd5b5f82601f8301126130bc575f5ffd5b81516130ca612c4482613072565b8082825260208201915060208360051b8601019250858311156130eb575f5ffd5b602085015b838110156131085780518352602092830192016130f0565b5095945050505050565b5f60208284031215613122575f5ffd5b81516001600160401b03811115613137575f5ffd5b820160408185031215613148575f5ffd5b613150612b87565b81516001600160401b03811115613165575f5ffd5b8201601f81018613613175575f5ffd5b8051613183612c4482613072565b8082825260208201915060208360071b8501019250888311156131a4575f5ffd5b6020840193505b82841015613224576080848a0312156131c2575f5ffd5b6131ca612baf565b84516131d581612a43565b815260208501516131e581613094565b602082015260408501516131f881612a43565b6040820152606085015161320b816130a0565b60608201528252608093909301926020909101906131ab565b845250505060208201516001600160401b03811115613241575f5ffd5b61324d868285016130ad565b602083015250949350505050565b602080825282516040838301528051606084018190525f929190910190829060808501905b808310156132a657613293828551612a86565b9150602084019350600183019250613280565b50602086810151868303601f1901604088015280518084529082019450910191505f905b808210156132ed57835183526020830192506020840193506001820191506132ca565b509095945050505050565b5f6080828403128015613309575f5ffd5b50613312612baf565b823561331d81612a43565b8152602083013561332d81613094565b6020820152604083013561334081612a43565b60408201526060830135613353816130a0565b60608201529392505050565b5f6020828403121561336f575f5ffd5b81516001600160401b03811115613384575f5ffd5b8201601f81018413613394575f5ffd5b80516133a2612c4482613072565b8082825260208201915060208360051b8501019250868311156133c3575f5ffd5b6020840193505b828410156130165783516133dd81612e07565b8252602093840193909101906133ca565b9283526020830191909152604082015260600190565b6001600160a01b03891681526101a0602082018190525f906134289083018a612ad5565b60408381018a905263ffffffff89166060850152871515608085015286516001600160a01b0390811660a08601526020880151811660c086015290870151811660e085015285166101008401529050825115156101208301526020830151151561014083015260408301511515610160830152606083015115156101808301529998505050505050505050565b5f602082840312156134c5575f5ffd5b81516001600160401b038111156134da575f5ffd5b8201601f810184136134ea575f5ffd5b80516134f8612c4482612c01565b81815285602083850101111561350c575f5ffd5b8160208401602083015e5f91810160200191909152949350505050565b5f81518060208401855e5f93019283525090919050565b6a084ac6686deae40decc40560ab1b81525f61355f600b830185613529565b6201017960ed1b81526135756003820185613529565b602960f81b815260010195945050505050565b5f6116056135968386613529565b84613529565b634e487b7160e01b5f52601160045260245ffd5b818103818111156105095761050961359c565b5f6135ce8284613529565b6201017960ed1b81526003019392505050565b5f6135ec8284613529565b602960f81b81526001019392505050565b808201808211156105095761050961359c565b5f60208284031215613620575f5ffd5b8151610951816130a0565b600181811c9082168061363f57607f821691505b60208210810361365d57634e487b7160e01b5f52602260045260245ffd5b50919050565b601f821115611a8257805f5260205f20601f840160051c810160208510156136885750805b601f840160051c820191505b81811015611ac7575f8155600101613694565b81516001600160401b038111156136c0576136c0612b73565b6136d4816136ce845461362b565b84613663565b6020601f821160018114613706575f83156136ef5750848201515b5f19600385901b1c1916600184901b178455611ac7565b5f84815260208120601f198516915b828110156137355787850151825560209485019460019092019101613715565b508482101561375257868401515f19600387901b60f8161c191681555b50505050600190811b01905550565b5f600182016137725761377261359c565b5060010190565b8051602080830151919081101561365d575f1960209190910360031b1b1691905056fea26469706673582212205b23997168fb6bedd90612468dfb6a1573d35afe23e5503dc839d1d1b6092b0764736f6c634300081e0033","linkReferences":{}},"methodIdentifiers":{"BALANCER_V3_AUTHENTICATION_FACET()":"f0703325","BALANCER_V3_VAULT()":"a4c01bbb","BALANCER_V3_VAULT_AWARE_FACET()":"90d8c705","BETTER_BALANCER_V3_POOL_TOKEN_FACET()":"a378544d","COW_POOL_FACET()":"e010883f","COW_POOL_FACTORY()":"6147c1f4","DEFAULT_POOL_INFO_FACET()":"a2bebeb2","DIAMOND_PACKAGE_FACTORY()":"ab6046ed","TRUSTED_COW_ROUTER()":"fc6fa0b4","calcSalt(bytes)":"d82be56e","deployPool((address,uint8,address,bool)[],uint256[])":"a02a3f23","diamondConfig()":"65d375b3","disable()":"2f2770db","facetAddresses()":"52ef6b2c","facetCuts()":"a4b3ad35","facetInterfaces()":"2ea80826","getActionId(bytes4)":"851c1bb3","getDeploymentAddress(bytes,bytes32)":"44f6fec7","getNewPoolPauseWindowEndTime()":"db035ebc","getOriginalPauseWindowEndTime()":"e9d56e19","getPauseWindowDuration()":"78da80cb","getPoolCount()":"8eec5d70","getPools()":"673a2a1f","getPoolsInRange(uint256,uint256)":"53a72f7e","getTrustedCowRouter()":"548e9615","initAccount(bytes)":"870d4838","isDisabled()":"6c57f5a9","isPoolFromFactory(address)":"6634b753","packageMetadata()":"f45469e7","packageName()":"abc8b346","postDeploy(address)":"70068fcf","processArgs(bytes)":"87c3adb3","tokenConfigs(address)":"1b69dc5f","updatePkg(address,bytes)":"a9089235"},"id":893}