{"abi":[{"type":"constructor","inputs":[],"stateMutability":"nonpayable"},{"type":"function","name":"execute","inputs":[{"name":"target","type":"address","internalType":"address"},{"name":"data","type":"bytes","internalType":"bytes"}],"outputs":[{"name":"","type":"bytes","internalType":"bytes"}],"stateMutability":"nonpayable"},{"type":"function","name":"getAuthorizer","inputs":[],"outputs":[{"name":"","type":"address","internalType":"contract IAuthorizer"}],"stateMutability":"view"},{"type":"error","name":"AddressEmptyCode","inputs":[{"name":"target","type":"address","internalType":"address"}]},{"type":"error","name":"FailedCall","inputs":[]},{"type":"error","name":"InsufficientBalance","inputs":[{"name":"balance","type":"uint256","internalType":"uint256"},{"name":"needed","type":"uint256","internalType":"uint256"}]},{"type":"error","name":"ReentrancyGuardReentrantCall","inputs":[]}],"bytecode":{"object":"0x60a0604052348015600e575f5ffd5b50336080526080516104596100305f395f81816063015260a401526104595ff3fe608060405234801561000f575f5ffd5b5060043610610034575f3560e01c80631cff79cd14610038578063aaabadc514610061575b5f5ffd5b61004b6100463660046102d6565b61008f565b60405161005891906103a4565b60405180910390f35b7f000000000000000000000000000000000000000000000000000000000000000060405161005891906103d9565b606061009961012b565b336001600160a01b037f000000000000000000000000000000000000000000000000000000000000000016146101115760405162461bcd60e51b815260206004820152601860248201527729a2a72222a92fa4a9afa727aa2fa0aaaa2427a924ad22a960411b60448201526064015b60405180910390fd5b61011b8383610174565b9050610125610188565b92915050565b5f5160206104045f395f51905f525c1561015857604051633ee5aeb560e01b815260040160405180910390fd5b61017260015f5160206104045f395f51905f525b9061019f565b565b606061018183835f6101a6565b9392505050565b6101725f5f5160206104045f395f51905f5261016c565b80825d5050565b6060814710156101d25760405163cf47918160e01b815247600482015260248101839052604401610108565b5f5f856001600160a01b031684866040516101ed91906103ed565b5f6040518083038185875af1925050503d805f8114610227576040519150601f19603f3d011682016040523d82523d5f602084013e61022c565b606091505b509150915061023c868383610246565b9695505050505050565b60608261025b5761025682610299565b610181565b815115801561027257506001600160a01b0384163b155b156102925783604051639996b31560e01b815260040161010891906103d9565b5080610181565b8051156102a95780518082602001fd5b60405163d6bda27560e01b815260040160405180910390fd5b634e487b7160e01b5f52604160045260245ffd5b5f5f604083850312156102e7575f5ffd5b82356001600160a01b03811681146102fd575f5ffd5b915060208301356001600160401b03811115610317575f5ffd5b8301601f81018513610327575f5ffd5b80356001600160401b03811115610340576103406102c2565b604051601f8201601f19908116603f011681016001600160401b038111828210171561036e5761036e6102c2565b604052818152828201602001871015610385575f5ffd5b816020840160208301375f602083830101528093505050509250929050565b602081525f82518060208401528060208501604085015e5f604082850101526040601f19601f83011684010191505092915050565b6001600160a01b0391909116815260200190565b5f82518060208501845e5f92019182525091905056fe9b779b17422d0df92223018b32b4d1fa46e071723d6817e2486d003becc55f00a264697066735822122038f95bfbaf4165c90af53d307f5211bbad80d226eec6b7ad6cb74310fb16b09f64736f6c634300081e0033","linkReferences":{}},"methodIdentifiers":{"execute(address,bytes)":"1cff79cd","getAuthorizer()":"aaabadc5"},"id":355}