{"abi":[{"type":"constructor","inputs":[{"name":"_manager","type":"address","internalType":"contract IPoolManager"},{"name":"_wsteth","type":"address","internalType":"contract IWstETH"}],"stateMutability":"nonpayable"},{"type":"function","name":"afterAddLiquidity","inputs":[{"name":"sender","type":"address","internalType":"address"},{"name":"key","type":"tuple","internalType":"struct PoolKey","components":[{"name":"currency0","type":"address","internalType":"Currency"},{"name":"currency1","type":"address","internalType":"Currency"},{"name":"fee","type":"uint24","internalType":"uint24"},{"name":"tickSpacing","type":"int24","internalType":"int24"},{"name":"hooks","type":"address","internalType":"contract IHooks"}]},{"name":"params","type":"tuple","internalType":"struct ModifyLiquidityParams","components":[{"name":"tickLower","type":"int24","internalType":"int24"},{"name":"tickUpper","type":"int24","internalType":"int24"},{"name":"liquidityDelta","type":"int256","internalType":"int256"},{"name":"salt","type":"bytes32","internalType":"bytes32"}]},{"name":"delta","type":"int256","internalType":"BalanceDelta"},{"name":"feesAccrued","type":"int256","internalType":"BalanceDelta"},{"name":"hookData","type":"bytes","internalType":"bytes"}],"outputs":[{"name":"","type":"bytes4","internalType":"bytes4"},{"name":"","type":"int256","internalType":"BalanceDelta"}],"stateMutability":"nonpayable"},{"type":"function","name":"afterDonate","inputs":[{"name":"sender","type":"address","internalType":"address"},{"name":"key","type":"tuple","internalType":"struct PoolKey","components":[{"name":"currency0","type":"address","internalType":"Currency"},{"name":"currency1","type":"address","internalType":"Currency"},{"name":"fee","type":"uint24","internalType":"uint24"},{"name":"tickSpacing","type":"int24","internalType":"int24"},{"name":"hooks","type":"address","internalType":"contract IHooks"}]},{"name":"amount0","type":"uint256","internalType":"uint256"},{"name":"amount1","type":"uint256","internalType":"uint256"},{"name":"hookData","type":"bytes","internalType":"bytes"}],"outputs":[{"name":"","type":"bytes4","internalType":"bytes4"}],"stateMutability":"nonpayable"},{"type":"function","name":"afterInitialize","inputs":[{"name":"sender","type":"address","internalType":"address"},{"name":"key","type":"tuple","internalType":"struct PoolKey","components":[{"name":"currency0","type":"address","internalType":"Currency"},{"name":"currency1","type":"address","internalType":"Currency"},{"name":"fee","type":"uint24","internalType":"uint24"},{"name":"tickSpacing","type":"int24","internalType":"int24"},{"name":"hooks","type":"address","internalType":"contract IHooks"}]},{"name":"sqrtPriceX96","type":"uint160","internalType":"uint160"},{"name":"tick","type":"int24","internalType":"int24"}],"outputs":[{"name":"","type":"bytes4","internalType":"bytes4"}],"stateMutability":"nonpayable"},{"type":"function","name":"afterRemoveLiquidity","inputs":[{"name":"sender","type":"address","internalType":"address"},{"name":"key","type":"tuple","internalType":"struct PoolKey","components":[{"name":"currency0","type":"address","internalType":"Currency"},{"name":"currency1","type":"address","internalType":"Currency"},{"name":"fee","type":"uint24","internalType":"uint24"},{"name":"tickSpacing","type":"int24","internalType":"int24"},{"name":"hooks","type":"address","internalType":"contract IHooks"}]},{"name":"params","type":"tuple","internalType":"struct ModifyLiquidityParams","components":[{"name":"tickLower","type":"int24","internalType":"int24"},{"name":"tickUpper","type":"int24","internalType":"int24"},{"name":"liquidityDelta","type":"int256","internalType":"int256"},{"name":"salt","type":"bytes32","internalType":"bytes32"}]},{"name":"delta","type":"int256","internalType":"BalanceDelta"},{"name":"feesAccrued","type":"int256","internalType":"BalanceDelta"},{"name":"hookData","type":"bytes","internalType":"bytes"}],"outputs":[{"name":"","type":"bytes4","internalType":"bytes4"},{"name":"","type":"int256","internalType":"BalanceDelta"}],"stateMutability":"nonpayable"},{"type":"function","name":"afterSwap","inputs":[{"name":"sender","type":"address","internalType":"address"},{"name":"key","type":"tuple","internalType":"struct PoolKey","components":[{"name":"currency0","type":"address","internalType":"Currency"},{"name":"currency1","type":"address","internalType":"Currency"},{"name":"fee","type":"uint24","internalType":"uint24"},{"name":"tickSpacing","type":"int24","internalType":"int24"},{"name":"hooks","type":"address","internalType":"contract IHooks"}]},{"name":"params","type":"tuple","internalType":"struct SwapParams","components":[{"name":"zeroForOne","type":"bool","internalType":"bool"},{"name":"amountSpecified","type":"int256","internalType":"int256"},{"name":"sqrtPriceLimitX96","type":"uint160","internalType":"uint160"}]},{"name":"delta","type":"int256","internalType":"BalanceDelta"},{"name":"hookData","type":"bytes","internalType":"bytes"}],"outputs":[{"name":"","type":"bytes4","internalType":"bytes4"},{"name":"","type":"int128","internalType":"int128"}],"stateMutability":"nonpayable"},{"type":"function","name":"beforeAddLiquidity","inputs":[{"name":"sender","type":"address","internalType":"address"},{"name":"key","type":"tuple","internalType":"struct PoolKey","components":[{"name":"currency0","type":"address","internalType":"Currency"},{"name":"currency1","type":"address","internalType":"Currency"},{"name":"fee","type":"uint24","internalType":"uint24"},{"name":"tickSpacing","type":"int24","internalType":"int24"},{"name":"hooks","type":"address","internalType":"contract IHooks"}]},{"name":"params","type":"tuple","internalType":"struct ModifyLiquidityParams","components":[{"name":"tickLower","type":"int24","internalType":"int24"},{"name":"tickUpper","type":"int24","internalType":"int24"},{"name":"liquidityDelta","type":"int256","internalType":"int256"},{"name":"salt","type":"bytes32","internalType":"bytes32"}]},{"name":"hookData","type":"bytes","internalType":"bytes"}],"outputs":[{"name":"","type":"bytes4","internalType":"bytes4"}],"stateMutability":"nonpayable"},{"type":"function","name":"beforeDonate","inputs":[{"name":"sender","type":"address","internalType":"address"},{"name":"key","type":"tuple","internalType":"struct PoolKey","components":[{"name":"currency0","type":"address","internalType":"Currency"},{"name":"currency1","type":"address","internalType":"Currency"},{"name":"fee","type":"uint24","internalType":"uint24"},{"name":"tickSpacing","type":"int24","internalType":"int24"},{"name":"hooks","type":"address","internalType":"contract IHooks"}]},{"name":"amount0","type":"uint256","internalType":"uint256"},{"name":"amount1","type":"uint256","internalType":"uint256"},{"name":"hookData","type":"bytes","internalType":"bytes"}],"outputs":[{"name":"","type":"bytes4","internalType":"bytes4"}],"stateMutability":"nonpayable"},{"type":"function","name":"beforeInitialize","inputs":[{"name":"sender","type":"address","internalType":"address"},{"name":"key","type":"tuple","internalType":"struct PoolKey","components":[{"name":"currency0","type":"address","internalType":"Currency"},{"name":"currency1","type":"address","internalType":"Currency"},{"name":"fee","type":"uint24","internalType":"uint24"},{"name":"tickSpacing","type":"int24","internalType":"int24"},{"name":"hooks","type":"address","internalType":"contract IHooks"}]},{"name":"sqrtPriceX96","type":"uint160","internalType":"uint160"}],"outputs":[{"name":"","type":"bytes4","internalType":"bytes4"}],"stateMutability":"nonpayable"},{"type":"function","name":"beforeRemoveLiquidity","inputs":[{"name":"sender","type":"address","internalType":"address"},{"name":"key","type":"tuple","internalType":"struct PoolKey","components":[{"name":"currency0","type":"address","internalType":"Currency"},{"name":"currency1","type":"address","internalType":"Currency"},{"name":"fee","type":"uint24","internalType":"uint24"},{"name":"tickSpacing","type":"int24","internalType":"int24"},{"name":"hooks","type":"address","internalType":"contract IHooks"}]},{"name":"params","type":"tuple","internalType":"struct ModifyLiquidityParams","components":[{"name":"tickLower","type":"int24","internalType":"int24"},{"name":"tickUpper","type":"int24","internalType":"int24"},{"name":"liquidityDelta","type":"int256","internalType":"int256"},{"name":"salt","type":"bytes32","internalType":"bytes32"}]},{"name":"hookData","type":"bytes","internalType":"bytes"}],"outputs":[{"name":"","type":"bytes4","internalType":"bytes4"}],"stateMutability":"nonpayable"},{"type":"function","name":"beforeSwap","inputs":[{"name":"sender","type":"address","internalType":"address"},{"name":"key","type":"tuple","internalType":"struct PoolKey","components":[{"name":"currency0","type":"address","internalType":"Currency"},{"name":"currency1","type":"address","internalType":"Currency"},{"name":"fee","type":"uint24","internalType":"uint24"},{"name":"tickSpacing","type":"int24","internalType":"int24"},{"name":"hooks","type":"address","internalType":"contract IHooks"}]},{"name":"params","type":"tuple","internalType":"struct SwapParams","components":[{"name":"zeroForOne","type":"bool","internalType":"bool"},{"name":"amountSpecified","type":"int256","internalType":"int256"},{"name":"sqrtPriceLimitX96","type":"uint160","internalType":"uint160"}]},{"name":"hookData","type":"bytes","internalType":"bytes"}],"outputs":[{"name":"","type":"bytes4","internalType":"bytes4"},{"name":"","type":"int256","internalType":"BeforeSwapDelta"},{"name":"","type":"uint24","internalType":"uint24"}],"stateMutability":"nonpayable"},{"type":"function","name":"getHookPermissions","inputs":[],"outputs":[{"name":"","type":"tuple","internalType":"struct Hooks.Permissions","components":[{"name":"beforeInitialize","type":"bool","internalType":"bool"},{"name":"afterInitialize","type":"bool","internalType":"bool"},{"name":"beforeAddLiquidity","type":"bool","internalType":"bool"},{"name":"afterAddLiquidity","type":"bool","internalType":"bool"},{"name":"beforeRemoveLiquidity","type":"bool","internalType":"bool"},{"name":"afterRemoveLiquidity","type":"bool","internalType":"bool"},{"name":"beforeSwap","type":"bool","internalType":"bool"},{"name":"afterSwap","type":"bool","internalType":"bool"},{"name":"beforeDonate","type":"bool","internalType":"bool"},{"name":"afterDonate","type":"bool","internalType":"bool"},{"name":"beforeSwapReturnDelta","type":"bool","internalType":"bool"},{"name":"afterSwapReturnDelta","type":"bool","internalType":"bool"},{"name":"afterAddLiquidityReturnDelta","type":"bool","internalType":"bool"},{"name":"afterRemoveLiquidityReturnDelta","type":"bool","internalType":"bool"}]}],"stateMutability":"pure"},{"type":"function","name":"poolManager","inputs":[],"outputs":[{"name":"","type":"address","internalType":"contract IPoolManager"}],"stateMutability":"view"},{"type":"function","name":"underlyingCurrency","inputs":[],"outputs":[{"name":"","type":"address","internalType":"Currency"}],"stateMutability":"view"},{"type":"function","name":"wrapZeroForOne","inputs":[],"outputs":[{"name":"","type":"bool","internalType":"bool"}],"stateMutability":"view"},{"type":"function","name":"wrapperCurrency","inputs":[],"outputs":[{"name":"","type":"address","internalType":"Currency"}],"stateMutability":"view"},{"type":"function","name":"wstETH","inputs":[],"outputs":[{"name":"","type":"address","internalType":"contract IWstETH"}],"stateMutability":"view"},{"type":"error","name":"DeltaNotNegative","inputs":[{"name":"currency","type":"address","internalType":"Currency"}]},{"type":"error","name":"DeltaNotPositive","inputs":[{"name":"currency","type":"address","internalType":"Currency"}]},{"type":"error","name":"ExactInputNotSupported","inputs":[]},{"type":"error","name":"ExactOutputNotSupported","inputs":[]},{"type":"error","name":"HookNotImplemented","inputs":[]},{"type":"error","name":"InsufficientBalance","inputs":[]},{"type":"error","name":"InvalidPoolFee","inputs":[]},{"type":"error","name":"InvalidPoolToken","inputs":[]},{"type":"error","name":"LiquidityNotAllowed","inputs":[]},{"type":"error","name":"NotPoolManager","inputs":[]},{"type":"error","name":"SafeCastOverflow","inputs":[]}],"bytecode":{"object":"0x610120604052348015610010575f5ffd5b50604051611f17380380611f1783398101604081905261002f916104c5565b8181826001600160a01b031663c1fe3e486040518163ffffffff1660e01b8152600401602060405180830381865afa15801561006d573d5f5f3e3d5ffd5b505050506040513d601f19601f8201168201806040525081019061009191906104fd565b6001600160a01b038316608052826100a8306100e3565b506001600160a01b0391821660a081905290821660c081905290811060e0529083166101008190526100dc92505f196101d6565b505061051f565b6101d3816101ce604080516101c0810182525f80825260208201819052918101829052606081018290526080810182905260a0810182905260c0810182905260e08101829052610100810182905261012081018290526101408101829052610160810182905261018081018290526101a081019190915250604080516101c08101825260018082525f60208301819052928201819052606082018390526080820183905260a0820183905260c0820181905260e0820183905261010082018390526101208201839052610140820152610160810182905261018081018290526101a081019190915290565b61025c565b50565b5f60405163095ea7b360e01b81526001600160a01b038416600482015282602482015260205f6044835f895af13d15601f3d1160015f5114161716915050806102565760405162461bcd60e51b815260206004820152600e60248201526d1054141493d59157d1905253115160921b604482015260640160405180910390fd5b50505050565b6102716001600160a01b03831661200061048d565b815115159015151415806102a157506102956001600160a01b03831661100061048d565b15158160200151151514155b806102c857506102bc6001600160a01b03831661080061048d565b15158160400151151514155b806102ef57506102e36001600160a01b03831661040061048d565b15158160600151151514155b80610316575061030a6001600160a01b03831661020061048d565b15158160800151151514155b8061033d57506103316001600160a01b03831661010061048d565b15158160a00151151514155b8061036357506103576001600160a01b038316608061048d565b15158160c00151151514155b80610389575061037d6001600160a01b038316604061048d565b15158160e00151151514155b806103b057506103a36001600160a01b038316602061048d565b1515816101000151151514155b806103d757506103ca6001600160a01b038316601061048d565b1515816101200151151514155b806103fe57506103f16001600160a01b038316600861048d565b1515816101400151151514155b8061042557506104186001600160a01b038316600461048d565b1515816101600151151514155b8061044c575061043f6001600160a01b038316600261048d565b1515816101800151151514155b8061047357506104666001600160a01b038316600161048d565b1515816101a00151151514155b1561048957610489630732d7b560e51b8361049c565b5050565b166001600160a01b0316151590565b815f526001600160a01b03811660045260245ffd5b6001600160a01b03811681146101d3575f5ffd5b5f5f604083850312156104d6575f5ffd5b82516104e1816104b1565b60208401519092506104f2816104b1565b809150509250929050565b5f6020828403121561050d575f5ffd5b8151610518816104b1565b9392505050565b60805160a05160c05160e051610100516118ea61062d5f395f818161015301528181610a2b01528181610b8701528181610c8e0152610d4701525f81816101b80152818161078201526108f901525f818160d70152818161096e01528181610abd01528181610afa01528181610dbe01528181610e6e0152610ead01525f81816103720152818161092e01528181610c000152610d0601525f8181610399015281816103da0152818161043b01528181610494015281816104fd01528181610566015281816105c60152818161062d0152818161069001528181610ded01528181610eda01528181610fbd0152818161103c015281816110b70152818161114b015261120e01526118ea5ff3fe608060405234801561000f575f5ffd5b50600436106100ce575f3560e01c80630bc6bffc146100d257806321d0ee701461010f578063259982e51461013b5780634aa07e641461014e578063575e24b4146101755780635d5711a5146101b35780636c2bbe7e146101ea5780636fe7e6eb1461021d5780639f063efc146101ea578063b47b2fb114610230578063b6a8b0fa14610266578063c4e833ce14610279578063d52f63cf1461036d578063dc4c90d314610394578063dc98354e146103bb578063e1b4af6914610266575b5f5ffd5b6100f97f000000000000000000000000000000000000000000000000000000000000000081565b6040516101069190611341565b60405180910390f35b61012261011d3660046113d6565b6103ce565b6040516001600160e01b03199091168152602001610106565b6101226101493660046113d6565b61042f565b6100f97f000000000000000000000000000000000000000000000000000000000000000081565b61018861018336600461145c565b610486565b604080516001600160e01b03199094168452602084019290925262ffffff1690820152606001610106565b6101da7f000000000000000000000000000000000000000000000000000000000000000081565b6040519015158152602001610106565b6101fd6101f83660046114b5565b6104f0565b604080516001600160e01b03199093168352602083019190915201610106565b61012261022b36600461153f565b61055a565b61024361023e36600461159e565b6105b9565b604080516001600160e01b03199093168352600f9190910b602083015201610106565b61012261027436600461161e565b610621565b610360604080516101c0810182525f80825260208201819052918101829052606081018290526080810182905260a0810182905260c0810182905260e08101829052610100810182905261012081018290526101408101829052610160810182905261018081018290526101a081019190915250604080516101c08101825260018082525f60208301819052928201819052606082018390526080820183905260a0820183905260c0820181905260e0820183905261010082018390526101208201839052610140820152610160810182905261018081018290526101a081019190915290565b6040516101069190611677565b6100f97f000000000000000000000000000000000000000000000000000000000000000081565b6100f97f000000000000000000000000000000000000000000000000000000000000000081565b6101226103c9366004611798565b610684565b5f336001600160a01b037f000000000000000000000000000000000000000000000000000000000000000016146104185760405163570c108560e11b815260040160405180910390fd5b61042586868686866106e1565b9695505050505050565b5f336001600160a01b037f000000000000000000000000000000000000000000000000000000000000000016146104795760405163570c108560e11b815260040160405180910390fd5b61042586868686866106fb565b5f8080336001600160a01b037f000000000000000000000000000000000000000000000000000000000000000016146104d25760405163570c108560e11b815260040160405180910390fd5b6104df8888888888610715565b925092509250955095509592505050565b5f80336001600160a01b037f0000000000000000000000000000000000000000000000000000000000000000161461053b5760405163570c108560e11b815260040160405180910390fd5b61054a898989898989896108da565b9150915097509795505050505050565b5f336001600160a01b037f000000000000000000000000000000000000000000000000000000000000000016146105a45760405163570c108560e11b815260040160405180910390fd5b6105b0858585856106e1565b95945050505050565b5f80336001600160a01b037f000000000000000000000000000000000000000000000000000000000000000016146106045760405163570c108560e11b815260040160405180910390fd5b6106128888888888886108da565b91509150965096945050505050565b5f336001600160a01b037f0000000000000000000000000000000000000000000000000000000000000000161461066b5760405163570c108560e11b815260040160405180910390fd5b6106798787878787876106e1565b979650505050505050565b5f336001600160a01b037f000000000000000000000000000000000000000000000000000000000000000016146106ce5760405163570c108560e11b815260040160405180910390fd5b6106d98484846108f5565b949350505050565b5f604051630a85dc2960e01b815260040160405180910390fd5b5f6040516378895c1360e01b815260040160405180910390fd5b5f80806020860135811380801561072957505f5b1561074757604051630ace433b60e01b815260040160405180910390fd5b80158015610753575060015b15610771576040516321b865b360e01b815260040160405180910390fd5b61077e60208801886117df565b15157f0000000000000000000000000000000000000000000000000000000000000000151503610846575f816107c0576107bb8860200135610a25565b6107cd565b6107cd6020890135611812565b90505f5f6107da83610ab6565b915091505f846107fa576107f56107f084610c2b565b610c52565b61080f565b6108066107f083610c2b565b61080f9061182c565b905061083b6108218c60200135610c52565b61082a9061182c565b60801b6001600160801b0383161790565b9650505050506108c1565b5f8161085e576108598860200135610c77565b61086b565b61086b6020890135611812565b90505f5f61087883610cff565b915091505f846108935761088e6107f084610c2b565b6108a8565b61089f6107f083610c2b565b6108a89061182c565b90506108ba6108218c60200135610c52565b9650505050505b506315d7892d60e21b92505f9050955095509592505050565b5f5f604051630a85dc2960e01b815260040160405180910390fd5b5f5f7f00000000000000000000000000000000000000000000000000000000000000006109975761095261092c602086018661184d565b7f0000000000000000000000000000000000000000000000000000000000000000610f57565b8015610992575061099261096c604086016020870161184d565b7f0000000000000000000000000000000000000000000000000000000000000000610f57565b6109c1565b6109a761096c602086018661184d565b80156109c157506109c161092c604086016020870161184d565b9050806109e15760405163dcdedda960e01b815260040160405180910390fd5b6109f16060850160408601611868565b62ffffff1615610a1457604051631213a0ab60e01b815260040160405180910390fd5b50636e4c1aa760e11b949350505050565b5f610ab07f00000000000000000000000000000000000000000000000000000000000000006001600160a01b0316639576a0c86040518163ffffffff1660e01b8152600401602060405180830381865afa158015610a85573d5f5f3e3d5ffd5b505050506040513d601f19601f82011682018060405250810190610aa9919061188a565b8390610f68565b92915050565b5f5f610ae37f00000000000000000000000000000000000000000000000000000000000000003085610f83565b6040516370a0823160e01b81526001600160a01b037f000000000000000000000000000000000000000000000000000000000000000016906370a0823190610b2f903090600401611341565b602060405180830381865afa158015610b4a573d5f5f3e3d5ffd5b505050506040513d601f19601f82011682018060405250810190610b6e919061188a565b604051630ea598cb60e41b8152600481018290529092507f00000000000000000000000000000000000000000000000000000000000000006001600160a01b03169063ea598cb0906024016020604051808303815f875af1158015610bd5573d5f5f3e3d5ffd5b505050506040513d601f19601f82011682018060405250810190610bf9919061188a565b9050610c267f00000000000000000000000000000000000000000000000000000000000000003083611019565b915091565b805f811215610c4d576040516393dafdf160e01b815260040160405180910390fd5b919050565b80600f81900b8114610c4d576040516393dafdf160e01b815260040160405180910390fd5b60405162b0e38960e81b8152600481018290525f907f00000000000000000000000000000000000000000000000000000000000000006001600160a01b03169063b0e3890090602401602060405180830381865afa158015610cdb573d5f5f3e3d5ffd5b505050506040513d601f19601f82011682018060405250810190610ab0919061188a565b5f5f610d2c7f00000000000000000000000000000000000000000000000000000000000000003085610f83565b604051636f074d1f60e11b8152600481018490528392505f907f00000000000000000000000000000000000000000000000000000000000000006001600160a01b03169063de0e9a3e906024016020604051808303815f875af1158015610d95573d5f5f3e3d5ffd5b505050506040513d601f19601f82011682018060405250810190610db9919061188a565b90505f7f00000000000000000000000000000000000000000000000000000000000000006001600160a01b03166370a082317f00000000000000000000000000000000000000000000000000000000000000006040518263ffffffff1660e01b8152600401610e289190611341565b602060405180830381865afa158015610e43573d5f5f3e3d5ffd5b505050506040513d601f19601f82011682018060405250810190610e67919061188a565b9050610e947f00000000000000000000000000000000000000000000000000000000000000003084611019565b6040516370a0823160e01b81525f906001600160a01b037f000000000000000000000000000000000000000000000000000000000000000016906370a0823190610f02907f000000000000000000000000000000000000000000000000000000000000000090600401611341565b602060405180830381865afa158015610f1d573d5f5f3e3d5ffd5b505050506040513d601f19601f82011682018060405250810190610f41919061188a565b9050610f4d82826118a1565b9350505050915091565b6001600160a01b0390811691161490565b5f610f7c83670de0b6b3a7640000846111cf565b9392505050565b805f03610f8f57505050565b604051630b0d9c0960e01b81526001600160a01b0384811660048301528381166024830152604482018390527f00000000000000000000000000000000000000000000000000000000000000001690630b0d9c09906064015f604051808303815f87803b158015610ffe575f5ffd5b505af1158015611010573d5f5f3e3d5ffd5b50505050505050565b805f0361102557505050565b604051632961046560e21b81526001600160a01b037f0000000000000000000000000000000000000000000000000000000000000000169063a584119490611071908690600401611341565b5f604051808303815f87803b158015611088575f5ffd5b505af115801561109a573d5f5f3e3d5ffd5b505050506110b0836001600160a01b03166111f2565b1561113e577f00000000000000000000000000000000000000000000000000000000000000006001600160a01b03166311da60b4826040518263ffffffff1660e01b815260040160206040518083038185885af1158015611113573d5f5f3e3d5ffd5b50505050506040513d601f19601f82011682018060405250810190611138919061188a565b50505050565b6111498383836111ff565b7f00000000000000000000000000000000000000000000000000000000000000006001600160a01b03166311da60b46040518163ffffffff1660e01b81526004016020604051808303815f875af11580156111a6573d5f5f3e3d5ffd5b505050506040513d601f19601f82011682018060405250810190611138919061188a565b505050565b5f825f1904841183021582026111e3575f5ffd5b50910281810615159190040190565b6001600160a01b03161590565b6111ca6001600160a01b0384167f0000000000000000000000000000000000000000000000000000000000000000835f611238846111f2565b15611263575f5f5f5f85875af190508061125e5761125e835f633d2cec6f60e21b6112c9565b611138565b60405163a9059cbb60e01b81526001600160a01b038416600482015282602482015260205f6044835f895af13d15601f3d1160015f511416171691505f81525f60208201525f60408201525080611138576111388463a9059cbb60e01b633c9fd93960e21b5b6040516390bfb86560e01b8082526001600160a01b03851660048301526001600160e01b031984166024830152608060448301526020601f3d018190040260a0810160648401523d608484015290913d5f60a483013e60048260a4018201526001600160e01b031984168260c4018201528160e40181fd5b6001600160a01b0391909116815260200190565b6001600160a01b0381168114611369575f5ffd5b50565b5f60a0828403121561137c575f5ffd5b50919050565b5f6080828403121561137c575f5ffd5b5f5f83601f8401126113a2575f5ffd5b5081356001600160401b038111156113b8575f5ffd5b6020830191508360208285010111156113cf575f5ffd5b9250929050565b5f5f5f5f5f61016086880312156113eb575f5ffd5b85356113f681611355565b9450611405876020880161136c565b93506114148760c08801611382565b92506101408601356001600160401b0381111561142f575f5ffd5b61143b88828901611392565b969995985093965092949392505050565b5f6060828403121561137c575f5ffd5b5f5f5f5f5f6101408688031215611471575f5ffd5b853561147c81611355565b945061148b876020880161136c565b935061149a8760c0880161144c565b92506101208601356001600160401b0381111561142f575f5ffd5b5f5f5f5f5f5f5f6101a0888a0312156114cc575f5ffd5b87356114d781611355565b96506114e68960208a0161136c565b95506114f58960c08a01611382565b9450610140880135935061016088013592506101808801356001600160401b03811115611520575f5ffd5b61152c8a828b01611392565b989b979a50959850939692959293505050565b5f5f5f5f6101008587031215611553575f5ffd5b843561155e81611355565b935061156d866020870161136c565b925060c085013561157d81611355565b915060e0850135600281900b8114611593575f5ffd5b939692955090935050565b5f5f5f5f5f5f61016087890312156115b4575f5ffd5b86356115bf81611355565b95506115ce886020890161136c565b94506115dd8860c0890161144c565b935061012087013592506101408701356001600160401b03811115611600575f5ffd5b61160c89828a01611392565b979a9699509497509295939492505050565b5f5f5f5f5f5f6101208789031215611634575f5ffd5b863561163f81611355565b955061164e886020890161136c565b945060c0870135935060e087013592506101008701356001600160401b03811115611600575f5ffd5b8151151581526101c081016020830151611695602084018215159052565b5060408301516116a9604084018215159052565b5060608301516116bd606084018215159052565b5060808301516116d1608084018215159052565b5060a08301516116e560a084018215159052565b5060c08301516116f960c084018215159052565b5060e083015161170d60e084018215159052565b5061010083015161172361010084018215159052565b5061012083015161173961012084018215159052565b5061014083015161174f61014084018215159052565b5061016083015161176561016084018215159052565b5061018083015161177b61018084018215159052565b506101a08301516117916101a084018215159052565b5092915050565b5f5f5f60e084860312156117aa575f5ffd5b83356117b581611355565b92506117c4856020860161136c565b915060c08401356117d481611355565b809150509250925092565b5f602082840312156117ef575f5ffd5b81358015158114610f7c575f5ffd5b634e487b7160e01b5f52601160045260245ffd5b5f600160ff1b8201611826576118266117fe565b505f0390565b5f600f82900b6001607f1b8101611845576118456117fe565b5f0392915050565b5f6020828403121561185d575f5ffd5b8135610f7c81611355565b5f60208284031215611878575f5ffd5b813562ffffff81168114610f7c575f5ffd5b5f6020828403121561189a575f5ffd5b5051919050565b81810381811115610ab057610ab06117fe56fea26469706673582212201ffaf9d6350dc6447951645b4cfb14a1b493f617256e953db47cd1cc89933f3464736f6c634300081e0033","linkReferences":{}},"methodIdentifiers":{"afterAddLiquidity(address,(address,address,uint24,int24,address),(int24,int24,int256,bytes32),int256,int256,bytes)":"9f063efc","afterDonate(address,(address,address,uint24,int24,address),uint256,uint256,bytes)":"e1b4af69","afterInitialize(address,(address,address,uint24,int24,address),uint160,int24)":"6fe7e6eb","afterRemoveLiquidity(address,(address,address,uint24,int24,address),(int24,int24,int256,bytes32),int256,int256,bytes)":"6c2bbe7e","afterSwap(address,(address,address,uint24,int24,address),(bool,int256,uint160),int256,bytes)":"b47b2fb1","beforeAddLiquidity(address,(address,address,uint24,int24,address),(int24,int24,int256,bytes32),bytes)":"259982e5","beforeDonate(address,(address,address,uint24,int24,address),uint256,uint256,bytes)":"b6a8b0fa","beforeInitialize(address,(address,address,uint24,int24,address),uint160)":"dc98354e","beforeRemoveLiquidity(address,(address,address,uint24,int24,address),(int24,int24,int256,bytes32),bytes)":"21d0ee70","beforeSwap(address,(address,address,uint24,int24,address),(bool,int256,uint160),bytes)":"575e24b4","getHookPermissions()":"c4e833ce","poolManager()":"dc4c90d3","underlyingCurrency()":"0bc6bffc","wrapZeroForOne()":"5d5711a5","wrapperCurrency()":"d52f63cf","wstETH()":"4aa07e64"},"id":1153}