{"abi":[{"type":"constructor","inputs":[{"name":"vault_","type":"address","internalType":"contract IVault"}],"stateMutability":"nonpayable"},{"type":"function","name":"MAX_EXIT_FEE_PERCENTAGE","inputs":[],"outputs":[{"name":"","type":"uint64","internalType":"uint64"}],"stateMutability":"view"},{"type":"function","name":"cancelOwnershipHandover","inputs":[],"outputs":[],"stateMutability":"payable"},{"type":"function","name":"completeOwnershipHandover","inputs":[{"name":"pendingOwner","type":"address","internalType":"address"}],"outputs":[],"stateMutability":"payable"},{"type":"function","name":"exitFeePercentage","inputs":[],"outputs":[{"name":"","type":"uint64","internalType":"uint64"}],"stateMutability":"view"},{"type":"function","name":"getHookFlags","inputs":[],"outputs":[{"name":"hookFlags","type":"tuple","internalType":"struct HookFlags","components":[{"name":"enableHookAdjustedAmounts","type":"bool","internalType":"bool"},{"name":"shouldCallBeforeInitialize","type":"bool","internalType":"bool"},{"name":"shouldCallAfterInitialize","type":"bool","internalType":"bool"},{"name":"shouldCallComputeDynamicSwapFee","type":"bool","internalType":"bool"},{"name":"shouldCallBeforeSwap","type":"bool","internalType":"bool"},{"name":"shouldCallAfterSwap","type":"bool","internalType":"bool"},{"name":"shouldCallBeforeAddLiquidity","type":"bool","internalType":"bool"},{"name":"shouldCallAfterAddLiquidity","type":"bool","internalType":"bool"},{"name":"shouldCallBeforeRemoveLiquidity","type":"bool","internalType":"bool"},{"name":"shouldCallAfterRemoveLiquidity","type":"bool","internalType":"bool"}]}],"stateMutability":"pure"},{"type":"function","name":"onAfterAddLiquidity","inputs":[{"name":"","type":"address","internalType":"address"},{"name":"","type":"address","internalType":"address"},{"name":"","type":"uint8","internalType":"enum AddLiquidityKind"},{"name":"","type":"uint256[]","internalType":"uint256[]"},{"name":"amountsInRaw","type":"uint256[]","internalType":"uint256[]"},{"name":"","type":"uint256","internalType":"uint256"},{"name":"","type":"uint256[]","internalType":"uint256[]"},{"name":"","type":"bytes","internalType":"bytes"}],"outputs":[{"name":"","type":"bool","internalType":"bool"},{"name":"","type":"uint256[]","internalType":"uint256[]"}],"stateMutability":"nonpayable"},{"type":"function","name":"onAfterInitialize","inputs":[{"name":"","type":"uint256[]","internalType":"uint256[]"},{"name":"","type":"uint256","internalType":"uint256"},{"name":"","type":"bytes","internalType":"bytes"}],"outputs":[{"name":"","type":"bool","internalType":"bool"}],"stateMutability":"nonpayable"},{"type":"function","name":"onAfterRemoveLiquidity","inputs":[{"name":"","type":"address","internalType":"address"},{"name":"pool","type":"address","internalType":"address"},{"name":"kind","type":"uint8","internalType":"enum RemoveLiquidityKind"},{"name":"","type":"uint256","internalType":"uint256"},{"name":"","type":"uint256[]","internalType":"uint256[]"},{"name":"amountsOutRaw","type":"uint256[]","internalType":"uint256[]"},{"name":"","type":"uint256[]","internalType":"uint256[]"},{"name":"","type":"bytes","internalType":"bytes"}],"outputs":[{"name":"","type":"bool","internalType":"bool"},{"name":"hookAdjustedAmountsOutRaw","type":"uint256[]","internalType":"uint256[]"}],"stateMutability":"nonpayable"},{"type":"function","name":"onAfterSwap","inputs":[{"name":"","type":"tuple","internalType":"struct AfterSwapParams","components":[{"name":"kind","type":"uint8","internalType":"enum SwapKind"},{"name":"tokenIn","type":"address","internalType":"contract IERC20"},{"name":"tokenOut","type":"address","internalType":"contract IERC20"},{"name":"amountInScaled18","type":"uint256","internalType":"uint256"},{"name":"amountOutScaled18","type":"uint256","internalType":"uint256"},{"name":"tokenInBalanceScaled18","type":"uint256","internalType":"uint256"},{"name":"tokenOutBalanceScaled18","type":"uint256","internalType":"uint256"},{"name":"amountCalculatedScaled18","type":"uint256","internalType":"uint256"},{"name":"amountCalculatedRaw","type":"uint256","internalType":"uint256"},{"name":"router","type":"address","internalType":"address"},{"name":"pool","type":"address","internalType":"address"},{"name":"userData","type":"bytes","internalType":"bytes"}]}],"outputs":[{"name":"","type":"bool","internalType":"bool"},{"name":"","type":"uint256","internalType":"uint256"}],"stateMutability":"nonpayable"},{"type":"function","name":"onBeforeAddLiquidity","inputs":[{"name":"","type":"address","internalType":"address"},{"name":"","type":"address","internalType":"address"},{"name":"","type":"uint8","internalType":"enum AddLiquidityKind"},{"name":"","type":"uint256[]","internalType":"uint256[]"},{"name":"","type":"uint256","internalType":"uint256"},{"name":"","type":"uint256[]","internalType":"uint256[]"},{"name":"","type":"bytes","internalType":"bytes"}],"outputs":[{"name":"","type":"bool","internalType":"bool"}],"stateMutability":"nonpayable"},{"type":"function","name":"onBeforeInitialize","inputs":[{"name":"","type":"uint256[]","internalType":"uint256[]"},{"name":"","type":"bytes","internalType":"bytes"}],"outputs":[{"name":"","type":"bool","internalType":"bool"}],"stateMutability":"nonpayable"},{"type":"function","name":"onBeforeRemoveLiquidity","inputs":[{"name":"","type":"address","internalType":"address"},{"name":"","type":"address","internalType":"address"},{"name":"","type":"uint8","internalType":"enum RemoveLiquidityKind"},{"name":"","type":"uint256","internalType":"uint256"},{"name":"","type":"uint256[]","internalType":"uint256[]"},{"name":"","type":"uint256[]","internalType":"uint256[]"},{"name":"","type":"bytes","internalType":"bytes"}],"outputs":[{"name":"","type":"bool","internalType":"bool"}],"stateMutability":"nonpayable"},{"type":"function","name":"onBeforeSwap","inputs":[{"name":"","type":"tuple","internalType":"struct PoolSwapParams","components":[{"name":"kind","type":"uint8","internalType":"enum SwapKind"},{"name":"amountGivenScaled18","type":"uint256","internalType":"uint256"},{"name":"balancesScaled18","type":"uint256[]","internalType":"uint256[]"},{"name":"indexIn","type":"uint256","internalType":"uint256"},{"name":"indexOut","type":"uint256","internalType":"uint256"},{"name":"router","type":"address","internalType":"address"},{"name":"userData","type":"bytes","internalType":"bytes"}]},{"name":"","type":"address","internalType":"address"}],"outputs":[{"name":"","type":"bool","internalType":"bool"}],"stateMutability":"nonpayable"},{"type":"function","name":"onComputeDynamicSwapFeePercentage","inputs":[{"name":"","type":"tuple","internalType":"struct PoolSwapParams","components":[{"name":"kind","type":"uint8","internalType":"enum SwapKind"},{"name":"amountGivenScaled18","type":"uint256","internalType":"uint256"},{"name":"balancesScaled18","type":"uint256[]","internalType":"uint256[]"},{"name":"indexIn","type":"uint256","internalType":"uint256"},{"name":"indexOut","type":"uint256","internalType":"uint256"},{"name":"router","type":"address","internalType":"address"},{"name":"userData","type":"bytes","internalType":"bytes"}]},{"name":"","type":"address","internalType":"address"},{"name":"","type":"uint256","internalType":"uint256"}],"outputs":[{"name":"","type":"bool","internalType":"bool"},{"name":"","type":"uint256","internalType":"uint256"}],"stateMutability":"view"},{"type":"function","name":"onRegister","inputs":[{"name":"","type":"address","internalType":"address"},{"name":"pool","type":"address","internalType":"address"},{"name":"","type":"tuple[]","internalType":"struct TokenConfig[]","components":[{"name":"token","type":"address","internalType":"contract IERC20"},{"name":"tokenType","type":"uint8","internalType":"enum TokenType"},{"name":"rateProvider","type":"address","internalType":"contract IRateProvider"},{"name":"paysYieldFees","type":"bool","internalType":"bool"}]},{"name":"liquidityManagement","type":"tuple","internalType":"struct LiquidityManagement","components":[{"name":"disableUnbalancedLiquidity","type":"bool","internalType":"bool"},{"name":"enableAddLiquidityCustom","type":"bool","internalType":"bool"},{"name":"enableRemoveLiquidityCustom","type":"bool","internalType":"bool"},{"name":"enableDonation","type":"bool","internalType":"bool"}]}],"outputs":[{"name":"","type":"bool","internalType":"bool"}],"stateMutability":"nonpayable"},{"type":"function","name":"owner","inputs":[],"outputs":[{"name":"","type":"address","internalType":"address"}],"stateMutability":"view"},{"type":"function","name":"ownershipHandoverExpiresAt","inputs":[{"name":"pendingOwner","type":"address","internalType":"address"}],"outputs":[{"name":"result","type":"uint256","internalType":"uint256"}],"stateMutability":"view"},{"type":"function","name":"renounceOwnership","inputs":[],"outputs":[],"stateMutability":"payable"},{"type":"function","name":"requestOwnershipHandover","inputs":[],"outputs":[],"stateMutability":"payable"},{"type":"function","name":"setExitFeePercentage","inputs":[{"name":"newExitFeePercentage","type":"uint64","internalType":"uint64"}],"outputs":[],"stateMutability":"nonpayable"},{"type":"function","name":"transferOwnership","inputs":[{"name":"newOwner","type":"address","internalType":"address"}],"outputs":[],"stateMutability":"payable"},{"type":"event","name":"ExitFeeCharged","inputs":[{"name":"pool","type":"address","indexed":true,"internalType":"address"},{"name":"token","type":"address","indexed":true,"internalType":"contract IERC20"},{"name":"feeAmount","type":"uint256","indexed":false,"internalType":"uint256"}],"anonymous":false},{"type":"event","name":"ExitFeeHookExampleRegistered","inputs":[{"name":"hooksContract","type":"address","indexed":true,"internalType":"address"},{"name":"pool","type":"address","indexed":true,"internalType":"address"}],"anonymous":false},{"type":"event","name":"ExitFeePercentageChanged","inputs":[{"name":"hookContract","type":"address","indexed":true,"internalType":"address"},{"name":"exitFeePercentage","type":"uint256","indexed":false,"internalType":"uint256"}],"anonymous":false},{"type":"event","name":"OwnershipHandoverCanceled","inputs":[{"name":"pendingOwner","type":"address","indexed":true,"internalType":"address"}],"anonymous":false},{"type":"event","name":"OwnershipHandoverRequested","inputs":[{"name":"pendingOwner","type":"address","indexed":true,"internalType":"address"}],"anonymous":false},{"type":"event","name":"OwnershipTransferred","inputs":[{"name":"oldOwner","type":"address","indexed":true,"internalType":"address"},{"name":"newOwner","type":"address","indexed":true,"internalType":"address"}],"anonymous":false},{"type":"error","name":"AlreadyInitialized","inputs":[]},{"type":"error","name":"ExitFeeAboveLimit","inputs":[{"name":"feePercentage","type":"uint256","internalType":"uint256"},{"name":"limit","type":"uint256","internalType":"uint256"}]},{"type":"error","name":"NewOwnerIsZeroAddress","inputs":[]},{"type":"error","name":"NoHandoverRequest","inputs":[]},{"type":"error","name":"OwnableInvalidOwner","inputs":[{"name":"owner","type":"address","internalType":"address"}]},{"type":"error","name":"OwnableUnauthorizedAccount","inputs":[{"name":"account","type":"address","internalType":"address"}]},{"type":"error","name":"PoolDoesNotSupportDonation","inputs":[]},{"type":"error","name":"SenderIsNotVault","inputs":[{"name":"sender","type":"address","internalType":"address"}]},{"type":"error","name":"Unauthorized","inputs":[]}],"bytecode":{"object":"0x60a060405234801561000f575f5ffd5b506040516117c93803806117c983398101604081905261002e916100ab565b6001600160a01b038116608052338061006057604051631e4fbdf760e01b81525f600482015260240160405180910390fd5b61006981610070565b50506100d8565b6001600160a01b0316638b78c6d819819055805f7f8be0079c531659141344cd1fd0a4f28419497f9722a3daafe3b4186f6b6457e08180a350565b5f602082840312156100bb575f5ffd5b81516001600160a01b03811681146100d1575f5ffd5b9392505050565b6080516116cb6100fe5f395f81816104fc015281816106d3015261096501526116cb5ff3fe6080604052600436106100f9575f3560e01c80630b89f182146100fd57806318b6eb55146101315780631c149e281461016957806325692962146101885780632754888d1461019257806338be241d146101bf57806345421ec7146101e15780634bdd9fe6146102075780635211fa771461023257806354d1f13d1461024c578063715018a6146102545780638da5cb5b1461025c578063976907cc1461027d578063a0e8f5ac146102a6578063a6ddbe02146102ca578063ba5f9f40146102e5578063d77153a7146102ff578063ea2f6f7a14610364578063f04e283e14610383578063f2fde38b14610396578063fee81cf4146103a9575b5f5ffd5b348015610108575f5ffd5b5061011c610117366004610b1c565b6103e8565b60405190151581526020015b60405180910390f35b34801561013c575f5ffd5b5061015261014b366004610c48565b505f908190565b604080519215158352602083019190915201610128565b348015610174575f5ffd5b5061011c610183366004610d5e565b610462565b61019061046a565b005b34801561019d575f5ffd5b506101b16101ac366004610dcf565b6104b6565b604051610128929190610ebe565b3480156101ca575f5ffd5b5061011c6101d9366004610f0d565b5f9392505050565b3480156101ec575f5ffd5b5061011c6101fb366004610f86565b5f979650505050505050565b348015610212575f5ffd5b505f54610225906001600160401b031681565b604051610128919061104d565b34801561023d575f5ffd5b5061011c610183366004611071565b6101906107d5565b61019061080e565b348015610267575f5ffd5b50610270610821565b60405161012891906110bf565b348015610288575f5ffd5b506101b16102973660046110d3565b5f849850989650505050505050565b3480156102b1575f5ffd5b506101526102c036600461117f565b5f80935093915050565b3480156102d5575f5ffd5b5061022567016345785d8a000081565b3480156102f0575f5ffd5b5061011c6101fb3660046111d4565b34801561030a575f5ffd5b5060408051610140810182525f60208201819052818301819052606082018190526080820181905260a0820181905260c0820181905260e08201819052610100820152600180825261012082015290516101289190611259565b34801561036f575f5ffd5b5061019061037e366004611322565b610834565b610190610391366004611348565b6108e3565b6101906103a4366004611348565b610920565b3480156103b4575f5ffd5b506103da6103c3366004611348565b63389a75e1600c9081525f91909152602090205490565b604051908152602001610128565b5f6103f161095a565b6104016080830160608401611363565b15155f0361042257604051636fe7a42d60e11b815260040160405180910390fd5b6040516001600160a01b0385169030907f3821b125c944c16bb117550ddb8765fb7f6138a5dca86e4a2a265f552dd0c59b905f90a3506001949350505050565b5f5b92915050565b5f6202a3006001600160401b03164201905063389a75e1600c52335f52806020600c2055337fdbf36a107da19e49527a7176a1babf963b4b0ff8cde35ee35d6cd8f1f9ac7e1d5f5fa250565b5f60606104c161095a565b5f8860038111156104d4576104d461137c565b146104e357505f9050836107c8565b60405163ca4f280360e01b81525f906001600160a01b037f0000000000000000000000000000000000000000000000000000000000000000169063ca4f280390610531908d906004016110bf565b5f60405180830381865afa15801561054b573d5f5f3e3d5ffd5b505050506040513d5f823e601f3d908101601f191682016040526105729190810190611390565b90505f81516001600160401b0381111561058e5761058e610a69565b6040519080825280602002602001820160405280156105b7578160200160208202803683370190505b505f548894509091506001600160401b0316156107c1575f5b87518110156106d0575f80548951610614916001600160401b0316908b90859081106105fe576105fe611429565b60200260200101516109a590919063ffffffff16565b90508083838151811061062957610629611429565b6020026020010181815250508085838151811061064857610648611429565b6020026020010181815161065c9190611451565b905250835184908390811061067357610673611429565b60200260200101516001600160a01b03168d6001600160a01b03167f70a4868eae45ffc86aa2da146051ad91fcf2a4222b8f737ddd5e4354f1508842836040516106bf91815260200190565b60405180910390a3506001016105d0565b507f00000000000000000000000000000000000000000000000000000000000000006001600160a01b0316634af29ec46040518060c001604052808e6001600160a01b03168152602001336001600160a01b031681526020018481526020015f8152602001600360048111156107485761074861137c565b815260200160405180602001604052805f8152508152506040518263ffffffff1660e01b815260040161077b91906114b2565b5f604051808303815f875af1158015610796573d5f5f3e3d5ffd5b505050506040513d5f823e601f3d908101601f191682016040526107bd91908101906115a5565b5050505b6001935050505b9850989650505050505050565b63389a75e1600c52335f525f6020600c2055337ffa7b8eab7da67f412cc9575ed43464468f9bfbae89d1675917346ca6d8fe3c925f5fa2565b6108166109cd565b61081f5f610a08565b565b5f61082f638b78c6d8195490565b905090565b61083c6109cd565b67016345785d8a00006001600160401b038216111561088c57604051630158c6d760e21b81526001600160401b038216600482015267016345785d8a000060248201526044015b60405180910390fd5b5f80546001600160401b0319166001600160401b03831617905560405130907f478db868729e0648ee7be6cb2a2a864333d8efe68d3a5ee1a7cce6e6895d5711906108d890849061104d565b60405180910390a250565b6108eb6109cd565b63389a75e1600c52805f526020600c20805442111561091157636f5e88185f526004601cfd5b5f905561091d81610a08565b50565b6109286109cd565b6001600160a01b038116610951575f604051631e4fbdf760e01b815260040161088391906110bf565b61091d81610a08565b336001600160a01b037f0000000000000000000000000000000000000000000000000000000000000000161461081f573360405163089676d560e01b815260040161088391906110bf565b5f806109b1838561165f565b90506109c5670de0b6b3a764000082611676565b949350505050565b6109d5610821565b6001600160a01b0316336001600160a01b03161461081f573360405163118cdaa760e01b815260040161088391906110bf565b638b78c6d81980546001600160a01b039092169182907f8be0079c531659141344cd1fd0a4f28419497f9722a3daafe3b4186f6b6457e05f80a355565b6001600160a01b038116811461091d575f5ffd5b8035610a6481610a45565b919050565b634e487b7160e01b5f52604160045260245ffd5b604051608081016001600160401b0381118282101715610a9f57610a9f610a69565b60405290565b604051601f8201601f191681016001600160401b0381118282101715610acd57610acd610a69565b604052919050565b5f6001600160401b03821115610aed57610aed610a69565b5060051b60200190565b80358015158114610a64575f5ffd5b5f60808284031215610b16575f5ffd5b50919050565b5f5f5f5f60e08587031215610b2f575f5ffd5b8435610b3a81610a45565b93506020850135610b4a81610a45565b925060408501356001600160401b03811115610b64575f5ffd5b8501601f81018713610b74575f5ffd5b8035610b87610b8282610ad5565b610aa5565b8082825260208201915060208360071b850101925089831115610ba8575f5ffd5b6020840193505b82841015610c29576080848b031215610bc6575f5ffd5b610bce610a7d565b8435610bd981610a45565b8152602085013560028110610bec575f5ffd5b60208201526040850135610bff81610a45565b6040820152610c1060608601610af7565b6060820152825260809390930192602090910190610baf565b80955050505050610c3d8660608701610b06565b905092959194509250565b5f60208284031215610c58575f5ffd5b81356001600160401b03811115610c6d575f5ffd5b82016101808185031215610c7f575f5ffd5b9392505050565b5f82601f830112610c95575f5ffd5b8135610ca3610b8282610ad5565b8082825260208201915060208360051b860101925085831115610cc4575f5ffd5b602085015b83811015610ce1578035835260209283019201610cc9565b5095945050505050565b5f6001600160401b03821115610d0357610d03610a69565b50601f01601f191660200190565b5f82601f830112610d20575f5ffd5b8135610d2e610b8282610ceb565b818152846020838601011115610d42575f5ffd5b816020850160208301375f918101602001919091529392505050565b5f5f60408385031215610d6f575f5ffd5b82356001600160401b03811115610d84575f5ffd5b610d9085828601610c86565b92505060208301356001600160401b03811115610dab575f5ffd5b610db785828601610d11565b9150509250929050565b803560048110610a64575f5ffd5b5f5f5f5f5f5f5f5f610100898b031215610de7575f5ffd5b610df089610a59565b9750610dfe60208a01610a59565b9650610e0c60408a01610dc1565b95506060890135945060808901356001600160401b03811115610e2d575f5ffd5b610e398b828c01610c86565b94505060a08901356001600160401b03811115610e54575f5ffd5b610e608b828c01610c86565b93505060c08901356001600160401b03811115610e7b575f5ffd5b610e878b828c01610c86565b92505060e08901356001600160401b03811115610ea2575f5ffd5b610eae8b828c01610d11565b9150509295985092959890939650565b5f604082018415158352604060208401528084518083526060850191506020860192505f5b81811015610f01578351835260209384019390920191600101610ee3565b50909695505050505050565b5f5f5f60608486031215610f1f575f5ffd5b83356001600160401b03811115610f34575f5ffd5b610f4086828701610c86565b9350506020840135915060408401356001600160401b03811115610f62575f5ffd5b610f6e86828701610d11565b9150509250925092565b803560058110610a64575f5ffd5b5f5f5f5f5f5f5f60e0888a031215610f9c575f5ffd5b8735610fa781610a45565b9650610fb560208901610a59565b9550610fc360408901610f78565b945060608801356001600160401b03811115610fdd575f5ffd5b610fe98a828b01610c86565b9450506080880135925060a08801356001600160401b0381111561100b575f5ffd5b6110178a828b01610c86565b92505060c08801356001600160401b03811115611032575f5ffd5b61103e8a828b01610d11565b91505092959891949750929550565b6001600160401b0391909116815260200190565b5f60e08284031215610b16575f5ffd5b5f5f60408385031215611082575f5ffd5b82356001600160401b03811115611097575f5ffd5b6110a385828601611061565b92505060208301356110b481610a45565b809150509250929050565b6001600160a01b0391909116815260200190565b5f5f5f5f5f5f5f5f610100898b0312156110eb575f5ffd5b6110f489610a59565b975061110260208a01610a59565b965061111060408a01610f78565b955060608901356001600160401b0381111561112a575f5ffd5b6111368b828c01610c86565b95505060808901356001600160401b03811115611151575f5ffd5b61115d8b828c01610c86565b94505060a0890135925060c08901356001600160401b03811115610e7b575f5ffd5b5f5f5f60608486031215611191575f5ffd5b83356001600160401b038111156111a6575f5ffd5b6111b286828701611061565b93505060208401356111c381610a45565b929592945050506040919091013590565b5f5f5f5f5f5f5f60e0888a0312156111ea575f5ffd5b87356111f581610a45565b965061120360208901610a59565b955061121160408901610dc1565b94506060880135935060808801356001600160401b03811115611232575f5ffd5b61123e8a828b01610c86565b93505060a08801356001600160401b0381111561100b575f5ffd5b81511515815261014081016020830151611277602084018215159052565b50604083015161128b604084018215159052565b50606083015161129f606084018215159052565b5060808301516112b3608084018215159052565b5060a08301516112c760a084018215159052565b5060c08301516112db60c084018215159052565b5060e08301516112ef60e084018215159052565b5061010083015161130561010084018215159052565b5061012083015161131b61012084018215159052565b5092915050565b5f60208284031215611332575f5ffd5b81356001600160401b0381168114610c7f575f5ffd5b5f60208284031215611358575f5ffd5b8135610c7f81610a45565b5f60208284031215611373575f5ffd5b610c7f82610af7565b634e487b7160e01b5f52602160045260245ffd5b5f602082840312156113a0575f5ffd5b81516001600160401b038111156113b5575f5ffd5b8201601f810184136113c5575f5ffd5b80516113d3610b8282610ad5565b8082825260208201915060208360051b8501019250868311156113f4575f5ffd5b6020840193505b8284101561141f57835161140e81610a45565b8252602093840193909101906113fb565b9695505050505050565b634e487b7160e01b5f52603260045260245ffd5b634e487b7160e01b5f52601160045260245ffd5b818103818111156104645761046461143d565b6005811061148057634e487b7160e01b5f52602160045260245ffd5b9052565b5f81518084528060208401602086015e5f602082860101526020601f19601f83011685010191505092915050565b602080825282516001600160a01b0390811683830152838201511660408084019190915283015160c06060840152805160e084018190525f92919091019082906101008501905b8083101561151c57835182526020820191506020840193506001830192506114f9565b50606086015160808601526080860151925061153b60a0860184611464565b60a0860151858203601f190160c0870152925061141f8184611484565b5f82601f830112611567575f5ffd5b8151611575610b8282610ceb565b818152846020838601011115611589575f5ffd5b8160208501602083015e5f918101602001919091529392505050565b5f5f5f606084860312156115b7575f5ffd5b83516001600160401b038111156115cc575f5ffd5b8401601f810186136115dc575f5ffd5b80516115ea610b8282610ad5565b8082825260208201915060208360051b85010192508883111561160b575f5ffd5b6020840193505b8284101561162d578351825260209384019390910190611612565b602088015160408901519197509550925050506001600160401b03811115611653575f5ffd5b610f6e86828701611558565b80820281158282048414176104645761046461143d565b5f8261169057634e487b7160e01b5f52601260045260245ffd5b50049056fea2646970667358221220eceabb795988060e8490b5b77304b5dbd67e39bdb9d901f918b59f0109b4856464736f6c634300081e0033","linkReferences":{}},"methodIdentifiers":{"MAX_EXIT_FEE_PERCENTAGE()":"a6ddbe02","cancelOwnershipHandover()":"54d1f13d","completeOwnershipHandover(address)":"f04e283e","exitFeePercentage()":"4bdd9fe6","getHookFlags()":"d77153a7","onAfterAddLiquidity(address,address,uint8,uint256[],uint256[],uint256,uint256[],bytes)":"976907cc","onAfterInitialize(uint256[],uint256,bytes)":"38be241d","onAfterRemoveLiquidity(address,address,uint8,uint256,uint256[],uint256[],uint256[],bytes)":"2754888d","onAfterSwap((uint8,address,address,uint256,uint256,uint256,uint256,uint256,uint256,address,address,bytes))":"18b6eb55","onBeforeAddLiquidity(address,address,uint8,uint256[],uint256,uint256[],bytes)":"45421ec7","onBeforeInitialize(uint256[],bytes)":"1c149e28","onBeforeRemoveLiquidity(address,address,uint8,uint256,uint256[],uint256[],bytes)":"ba5f9f40","onBeforeSwap((uint8,uint256,uint256[],uint256,uint256,address,bytes),address)":"5211fa77","onComputeDynamicSwapFeePercentage((uint8,uint256,uint256[],uint256,uint256,address,bytes),address,uint256)":"a0e8f5ac","onRegister(address,address,(address,uint8,address,bool)[],(bool,bool,bool,bool))":"0b89f182","owner()":"8da5cb5b","ownershipHandoverExpiresAt(address)":"fee81cf4","renounceOwnership()":"715018a6","requestOwnershipHandover()":"25692962","setExitFeePercentage(uint64)":"ea2f6f7a","transferOwnership(address)":"f2fde38b"},"id":854}