{"abi":[{"type":"constructor","inputs":[{"name":"_initCodeHash","type":"bytes32","internalType":"bytes32"},{"name":"_competitionDeadline","type":"uint256","internalType":"uint256"},{"name":"_exclusiveDeployer","type":"address","internalType":"address"},{"name":"_exclusiveDeployLength","type":"uint256","internalType":"uint256"}],"stateMutability":"nonpayable"},{"type":"function","name":"bestAddress","inputs":[],"outputs":[{"name":"","type":"address","internalType":"address"}],"stateMutability":"view"},{"type":"function","name":"bestAddressSalt","inputs":[],"outputs":[{"name":"","type":"bytes32","internalType":"bytes32"}],"stateMutability":"view"},{"type":"function","name":"bestAddressSubmitter","inputs":[],"outputs":[{"name":"","type":"address","internalType":"address"}],"stateMutability":"view"},{"type":"function","name":"competitionDeadline","inputs":[],"outputs":[{"name":"","type":"uint256","internalType":"uint256"}],"stateMutability":"view"},{"type":"function","name":"deploy","inputs":[{"name":"bytecode","type":"bytes","internalType":"bytes"}],"outputs":[],"stateMutability":"nonpayable"},{"type":"function","name":"deployer","inputs":[],"outputs":[{"name":"","type":"address","internalType":"address"}],"stateMutability":"view"},{"type":"function","name":"exclusiveDeployDeadline","inputs":[],"outputs":[{"name":"","type":"uint256","internalType":"uint256"}],"stateMutability":"view"},{"type":"function","name":"initCodeHash","inputs":[],"outputs":[{"name":"","type":"bytes32","internalType":"bytes32"}],"stateMutability":"view"},{"type":"function","name":"updateBestAddress","inputs":[{"name":"salt","type":"bytes32","internalType":"bytes32"}],"outputs":[],"stateMutability":"nonpayable"},{"type":"event","name":"NewAddressFound","inputs":[{"name":"bestAddress","type":"address","indexed":true,"internalType":"address"},{"name":"submitter","type":"address","indexed":true,"internalType":"address"},{"name":"score","type":"uint256","indexed":false,"internalType":"uint256"}],"anonymous":false},{"type":"error","name":"CompetitionNotOver","inputs":[{"name":"currentTime","type":"uint256","internalType":"uint256"},{"name":"deadline","type":"uint256","internalType":"uint256"}]},{"type":"error","name":"CompetitionOver","inputs":[{"name":"currentTime","type":"uint256","internalType":"uint256"},{"name":"deadline","type":"uint256","internalType":"uint256"}]},{"type":"error","name":"Create2EmptyBytecode","inputs":[]},{"type":"error","name":"Create2FailedDeployment","inputs":[]},{"type":"error","name":"Create2InsufficientBalance","inputs":[{"name":"balance","type":"uint256","internalType":"uint256"},{"name":"needed","type":"uint256","internalType":"uint256"}]},{"type":"error","name":"InvalidBytecode","inputs":[]},{"type":"error","name":"InvalidSender","inputs":[{"name":"salt","type":"bytes32","internalType":"bytes32"},{"name":"sender","type":"address","internalType":"address"}]},{"type":"error","name":"NotAllowedToDeploy","inputs":[{"name":"sender","type":"address","internalType":"address"},{"name":"deployer","type":"address","internalType":"address"}]},{"type":"error","name":"WorseAddress","inputs":[{"name":"newAddress","type":"address","internalType":"address"},{"name":"bestAddress","type":"address","internalType":"address"},{"name":"newScore","type":"uint256","internalType":"uint256"},{"name":"bestScore","type":"uint256","internalType":"uint256"}]}],"bytecode":{"object":"0x610100604052348015610010575f5ffd5b50604051610a4b380380610a4b83398101604081905261002f9161005b565b60a0849052608083905261004381846100a3565b60e052506001600160a01b031660c052506100c89050565b5f5f5f5f6080858703121561006e575f5ffd5b84516020860151604087015191955093506001600160a01b0381168114610093575f5ffd5b6060959095015193969295505050565b808201808211156100c257634e487b7160e01b5f52601160045260245ffd5b92915050565b60805160a05160c05160e05161090c61013f5f395f8181609e015261027f01525f818161011f0152818161025401526102c401525f81816101460152818161019f0152818161030901526103e601525f818160f8015281816101de0152818161021801528181610334015261036f015261090c5ff3fe608060405234801561000f575f5ffd5b5060043610610080575f3560e01c80627743601461008457806360f871bb14610099578063756f0683146100d3578063a94557b8146100f3578063d5f394881461011a578063db4c545e14610141578063e87a6f8414610168578063edb6e1ca1461017b578063fd3989f514610183575b5f5ffd5b61009761009236600461077e565b610196565b005b6100c07f000000000000000000000000000000000000000000000000000000000000000081565b6040519081526020015b60405180910390f35b6100db610301565b6040516001600160a01b0390911681526020016100ca565b6100c07f000000000000000000000000000000000000000000000000000000000000000081565b6100db7f000000000000000000000000000000000000000000000000000000000000000081565b6100c07f000000000000000000000000000000000000000000000000000000000000000081565b6001546100db906001600160a01b031681565b6100c05f5481565b61009761019136600461082e565b610332565b805160208201207f0000000000000000000000000000000000000000000000000000000000000000146101dc57604051632363964360e01b815260040160405180910390fd5b7f0000000000000000000000000000000000000000000000000000000000000000421161024957604051630474c5c160e01b81524260048201527f000000000000000000000000000000000000000000000000000000000000000060248201526044015b60405180910390fd5b336001600160a01b037f000000000000000000000000000000000000000000000000000000000000000016148015906102a257507f00000000000000000000000000000000000000000000000000000000000000004211155b156102f15760405163620cd96960e11b81523360048201526001600160a01b037f0000000000000000000000000000000000000000000000000000000000000000166024820152604401610240565b6102fd5f5f54836104f0565b5050565b5f61032d5f547f0000000000000000000000000000000000000000000000000000000000000000610575565b905090565b7f000000000000000000000000000000000000000000000000000000000000000042111561039b57604051630afa178b60e41b81524260048201527f00000000000000000000000000000000000000000000000000000000000000006024820152604401610240565b606081901c3381148015906103b857506001600160a01b03811615155b156103df57604051638c7d994960e01b815260048101839052336024820152604401610240565b5f61040a837f0000000000000000000000000000000000000000000000000000000000000000610575565b90505f610415610301565b905061042a6001600160a01b0383168261058a565b61048c578181610442846001600160a01b03166105a5565b610454846001600160a01b03166105a5565b60405163052aa3b760e31b81526001600160a01b03948516600482015293909216602484015260448301526064820152608401610240565b5f849055600180546001600160a01b031916339081179091556001600160a01b0383167f7e8d398a63ed37daa88e8998642ec9be730043b51e67affe790111f209e4046b6104d9826105a5565b60405190815260200160405180910390a350505050565b5f8347101561051b5760405163392efb2b60e21b815247600482015260248101859052604401610240565b81515f0361053c57604051631328927760e21b815260040160405180910390fd5b8282516020840186f590506001600160a01b03811661056e57604051633a0ba96160e11b815260040160405180910390fd5b9392505050565b5f610581838330610684565b90505b92915050565b5f610594826105a5565b61059d846105a5565b119392505050565b5f606082901b816105b78282806106ad565b905080600a02830192505f6105ce838360046106ad565b9050805f036105e157505f949350505050565b806004036105f457603c84019350610604565b6004811115610604576028840193505b5f5b6028811015610637575f61061a858361071b565b90508060ff1660040361062e576001860195505b50600101610606565b50601160fa1b6001600160f81b0319601285901a60f81b161480156106705750601160fa1b6001600160f81b0319601385901a60f81b16145b1561067c576014840193505b505050919050565b5f604051836040820152846020820152828152600b8101905060ff815360559020949350505050565b5f6106ba6014600261086d565b60ff1683101561056e57825b6106d26014600261086d565b60ff16811015610713575f6106e7868361071b565b90508360ff168160ff16146106fd57505061056e565b610708600184610889565b9250506001016106c6565b509392505050565b5f80836107296002856108b0565b6014811061073957610739610845565b1a90506107476002846108c3565b5f0361075c5760048160ff16901c9150610763565b80600f1691505b5092915050565b634e487b7160e01b5f52604160045260245ffd5b5f6020828403121561078e575f5ffd5b81356001600160401b038111156107a3575f5ffd5b8201601f810184136107b3575f5ffd5b80356001600160401b038111156107cc576107cc61076a565b604051601f8201601f19908116603f011681016001600160401b03811182821017156107fa576107fa61076a565b604052818152828201602001861015610811575f5ffd5b816020840160208301375f91810160200191909152949350505050565b5f6020828403121561083e575f5ffd5b5035919050565b634e487b7160e01b5f52603260045260245ffd5b634e487b7160e01b5f52601160045260245ffd5b60ff818116838216029081169081811461076357610763610859565b8082018082111561058457610584610859565b634e487b7160e01b5f52601260045260245ffd5b5f826108be576108be61089c565b500490565b5f826108d1576108d161089c565b50069056fea26469706673582212204fbed0cf037bb2f1c3566e73002b3c3381f56ce70bf2fbee9df01bdcab36acc964736f6c634300081e0033","linkReferences":{}},"methodIdentifiers":{"bestAddress()":"756f0683","bestAddressSalt()":"edb6e1ca","bestAddressSubmitter()":"e87a6f84","competitionDeadline()":"a94557b8","deploy(bytes)":"00774360","deployer()":"d5f39488","exclusiveDeployDeadline()":"60f871bb","initCodeHash()":"db4c545e","updateBestAddress(bytes32)":"fd3989f5"},"id":1127}