{"abi":[{"type":"constructor","inputs":[{"name":"_ve","type":"address","internalType":"address"}],"stateMutability":"nonpayable"},{"type":"function","name":"WEEK","inputs":[],"outputs":[{"name":"","type":"uint256","internalType":"uint256"}],"stateMutability":"view"},{"type":"function","name":"checkpointToken","inputs":[],"outputs":[],"stateMutability":"nonpayable"},{"type":"function","name":"claim","inputs":[{"name":"_tokenId","type":"uint256","internalType":"uint256"}],"outputs":[{"name":"","type":"uint256","internalType":"uint256"}],"stateMutability":"nonpayable"},{"type":"function","name":"claimMany","inputs":[{"name":"_tokenIds","type":"uint256[]","internalType":"uint256[]"}],"outputs":[{"name":"","type":"bool","internalType":"bool"}],"stateMutability":"nonpayable"},{"type":"function","name":"claimable","inputs":[{"name":"_tokenId","type":"uint256","internalType":"uint256"}],"outputs":[{"name":"claimable_","type":"uint256","internalType":"uint256"}],"stateMutability":"view"},{"type":"function","name":"lastTokenTime","inputs":[],"outputs":[{"name":"","type":"uint256","internalType":"uint256"}],"stateMutability":"view"},{"type":"function","name":"minter","inputs":[],"outputs":[{"name":"","type":"address","internalType":"address"}],"stateMutability":"view"},{"type":"function","name":"setMinter","inputs":[{"name":"_minter","type":"address","internalType":"address"}],"outputs":[],"stateMutability":"nonpayable"},{"type":"function","name":"startTime","inputs":[],"outputs":[{"name":"","type":"uint256","internalType":"uint256"}],"stateMutability":"view"},{"type":"function","name":"timeCursorOf","inputs":[{"name":"","type":"uint256","internalType":"uint256"}],"outputs":[{"name":"","type":"uint256","internalType":"uint256"}],"stateMutability":"view"},{"type":"function","name":"token","inputs":[],"outputs":[{"name":"","type":"address","internalType":"address"}],"stateMutability":"view"},{"type":"function","name":"tokenLastBalance","inputs":[],"outputs":[{"name":"","type":"uint256","internalType":"uint256"}],"stateMutability":"view"},{"type":"function","name":"tokensPerWeek","inputs":[{"name":"","type":"uint256","internalType":"uint256"}],"outputs":[{"name":"","type":"uint256","internalType":"uint256"}],"stateMutability":"view"},{"type":"function","name":"ve","inputs":[],"outputs":[{"name":"","type":"address","internalType":"contract IVotingEscrow"}],"stateMutability":"view"},{"type":"event","name":"CheckpointToken","inputs":[{"name":"time","type":"uint256","indexed":false,"internalType":"uint256"},{"name":"tokens","type":"uint256","indexed":false,"internalType":"uint256"}],"anonymous":false},{"type":"event","name":"Claimed","inputs":[{"name":"tokenId","type":"uint256","indexed":true,"internalType":"uint256"},{"name":"epochStart","type":"uint256","indexed":true,"internalType":"uint256"},{"name":"epochEnd","type":"uint256","indexed":true,"internalType":"uint256"},{"name":"amount","type":"uint256","indexed":false,"internalType":"uint256"}],"anonymous":false},{"type":"error","name":"NotManagedOrNormalNFT","inputs":[]},{"type":"error","name":"NotMinter","inputs":[]},{"type":"error","name":"SafeERC20FailedOperation","inputs":[{"name":"token","type":"address","internalType":"address"}]},{"type":"error","name":"UpdatePeriod","inputs":[]}],"bytecode":{"object":"0x60a060405234801561000f575f5ffd5b506040516116d83803806116d883398101604081905261002e916101e0565b5f62093a8061003d814261020d565b610047919061022c565b5f81815560028290556001600160a01b038416608081905260408051637e062a3560e11b815290519394509192909163fc0c546a9160048083019260209291908290030181865afa15801561009e573d5f5f3e3d5ffd5b505050506040513d601f19601f820116820180604052508101906100c291906101e0565b66038d7ea4c6800380546001600160a01b0383166001600160a01b0319918216811790925566038d7ea4c6800480549091163317905590915061010790845f1961010f565b505050610255565b604080516001600160a01b038416602482015260448082018490528251808303909101815260649091019091526020810180516001600160e01b0390811663095ea7b360e01b1790915261016591859161016a16565b505050565b5f5f60205f8451602086015f885af180610189576040513d5f823e3d81fd5b50505f513d915081156101a05780600114156101ad565b6001600160a01b0384163b155b156101da57604051635274afe760e01b81526001600160a01b038516600482015260240160405180910390fd5b50505050565b5f602082840312156101f0575f5ffd5b81516001600160a01b0381168114610206575f5ffd5b9392505050565b5f8261022757634e487b7160e01b5f52601260045260245ffd5b500490565b808202811582820484141761024f57634e487b7160e01b5f52601160045260245ffd5b92915050565b6080516114186102c05f395f818160f0015281816102c3015281816103ad0152818161045301528181610502015281816106bb0152818161079301528181610839015281816108e801528181610d7a01528181610e1e01528181610ef70152610f9f01526114185ff3fe608060405234801561000f575f5ffd5b50600436106100b8575f3560e01c806307546172146100bc5780631f850716146100eb578063379607f5146101125780634607bf601461013357806378e9792514610152578063899519be1461015a5780638ec8468a1461016d578063925489a81461017c578063939ea66b1461019f578063bee5dc32146101a8578063d1d58b25146101b2578063f4359ce5146101c5578063fc0c546a146101cf578063fca3b5aa146101e8575b5f5ffd5b66038d7ea4c68004546100d5906001600160a01b031681565b6040516100e29190611107565b60405180910390f35b6100d57f000000000000000000000000000000000000000000000000000000000000000081565b61012561012036600461111b565b6101fb565b6040519081526020016100e2565b61012561014136600461111b565b60016020525f908152604090205481565b6101255f5481565b61012561016836600461111b565b61058d565b61012566038d7ea4c680055481565b61018f61018a366004611132565b6105a9565b60405190151581526020016100e2565b61012560025481565b6101b0610998565b005b6101256101c036600461111b565b6109d3565b61012562093a8081565b66038d7ea4c68003546100d5906001600160a01b031681565b6101b06101f63660046111b8565b610a07565b5f62093a8061020a81426111ee565b610214919061120d565b66038d7ea4c680045f9054906101000a90046001600160a01b03166001600160a01b0316630a441f7b6040518163ffffffff1660e01b8152600401602060405180830381865afa15801561026a573d5f5f3e3d5ffd5b505050506040513d601f19601f8201168201806040525081019061028e9190611224565b10156102ad5760405163465a1c3560e01b815260040160405180910390fd5b600160405161f8e560ef1b8152600481018490527f00000000000000000000000000000000000000000000000000000000000000006001600160a01b031690637c72800090602401602060405180830381865afa158015610310573d5f5f3e3d5ffd5b505050506040513d601f19601f82011682018060405250810190610334919061124f565b60028111156103455761034561123b565b0361036357604051635eb32db160e11b815260040160405180910390fd5b600254429062093a8061037681836111ee565b610380919061120d565b90505f61038d8583610a60565b9050801561058557604051635a2d1e0760e11b8152600481018690525f907f00000000000000000000000000000000000000000000000000000000000000006001600160a01b03169063b45a3c0e90602401606060405180830381865afa1580156103fa573d5f5f3e3d5ffd5b505050506040513d601f19601f8201168201806040525081019061041e9190611283565b90508060200151841015801561043657508060400151155b156104eb576040516331a9108f60e11b8152600481018790525f907f00000000000000000000000000000000000000000000000000000000000000006001600160a01b031690636352211e90602401602060405180830381865afa1580156104a0573d5f5f3e3d5ffd5b505050506040513d601f19601f820116820180604052508101906104c491906112f9565b66038d7ea4c68003549091506104e4906001600160a01b03168285610ade565b5050610567565b60405163076426ed60e11b81526001600160a01b037f00000000000000000000000000000000000000000000000000000000000000001690630ec84dda906105399089908690600401611314565b5f604051808303815f87803b158015610550575f5ffd5b505af1158015610562573d5f5f3e3d5ffd5b505050505b8166038d7ea4c680055f82825461057e9190611322565b9091555050505b949350505050565b60038166038d7ea4c6800081106105a2575f80fd5b0154905081565b5f62093a806105b881426111ee565b6105c2919061120d565b66038d7ea4c680045f9054906101000a90046001600160a01b03166001600160a01b0316630a441f7b6040518163ffffffff1660e01b8152600401602060405180830381865afa158015610618573d5f5f3e3d5ffd5b505050506040513d601f19601f8201168201806040525081019061063c9190611224565b101561065b5760405163465a1c3560e01b815260040160405180910390fd5b600254429062093a8061066e81836111ee565b610678919061120d565b90505f84815b81811015610965575f88888381811061069957610699611335565b602002919091013591506001905060405161f8e560ef1b8152600481018390527f00000000000000000000000000000000000000000000000000000000000000006001600160a01b031690637c72800090602401602060405180830381865afa158015610708573d5f5f3e3d5ffd5b505050506040513d601f19601f8201168201806040525081019061072c919061124f565b600281111561073d5761073d61123b565b0361075b57604051635eb32db160e11b815260040160405180910390fd5b805f036107685750610965565b5f6107738287610a60565b9050801561095b57604051635a2d1e0760e11b8152600481018390525f907f00000000000000000000000000000000000000000000000000000000000000006001600160a01b03169063b45a3c0e90602401606060405180830381865afa1580156107e0573d5f5f3e3d5ffd5b505050506040513d601f19601f820116820180604052508101906108049190611283565b90508060200151881015801561081c57508060400151155b156108d1576040516331a9108f60e11b8152600481018490525f907f00000000000000000000000000000000000000000000000000000000000000006001600160a01b031690636352211e90602401602060405180830381865afa158015610886573d5f5f3e3d5ffd5b505050506040513d601f19601f820116820180604052508101906108aa91906112f9565b66038d7ea4c68003549091506108ca906001600160a01b03168285610ade565b505061094d565b60405163076426ed60e11b81526001600160a01b037f00000000000000000000000000000000000000000000000000000000000000001690630ec84dda9061091f9086908690600401611314565b5f604051808303815f87803b158015610936575f5ffd5b505af1158015610948573d5f5f3e3d5ffd5b505050505b6109578287611349565b9550505b505060010161067e565b508115610989578166038d7ea4c680055f8282546109839190611322565b90915550505b60019450505050505b92915050565b66038d7ea4c68004546001600160a01b031633146109c957604051633e34a41b60e21b815260040160405180910390fd5b6109d1610afd565b565b5f5f62093a80806002546109e791906111ee565b6109f1919061120d565b90506109fd8382610d4e565b5090949350505050565b66038d7ea4c68004546001600160a01b03163314610a3857604051633e34a41b60e21b815260040160405180910390fd5b66038d7ea4c6800480546001600160a01b0319166001600160a01b0392909216919091179055565b5f5f5f5f610a6e8686610d4e565b5f8981526001602052604081208290559295509093509150839003610a98575f9350505050610992565b8082877fcae2990aa9af8eb1c64713b7eddb3a80bf18e49a94a13fe0d0002b5d61d58f0086604051610acc91815260200190565b60405180910390a45090949350505050565b5f610af36001600160a01b03851684846110ad565b5060019392505050565b66038d7ea4c68003546040516370a0823160e01b81525f916001600160a01b0316906370a0823190610b33903090600401611107565b602060405180830381865afa158015610b4e573d5f5f3e3d5ffd5b505050506040513d601f19601f82011682018060405250810190610b729190611224565b90505f66038d7ea4c680055482610b899190611322565b66038d7ea4c680058390556002549091505f610ba58242611322565b4260025590505f62093a80610bba81856111ee565b610bc4919061120d565b90505f42815b6014811015610d0b57610be062093a8085611349565b925082821015610c685784158015610bf757508582145b15610c30578660038566038d7ea4c680008110610c1657610c16611335565b015f828254610c259190611349565b90915550610d0b9050565b84610c3b8784611322565b610c45908961120d565b610c4f91906111ee565b60038566038d7ea4c680008110610c1657610c16611335565b84158015610c7557508583145b15610cae578660038566038d7ea4c680008110610c9457610c94611335565b015f828254610ca39190611349565b90915550610cfb9050565b84610cb98785611322565b610cc3908961120d565b610ccd91906111ee565b60038566038d7ea4c680008110610ce657610ce6611335565b015f828254610cf59190611349565b90915550505b9194508492508291600101610bca565b507fce749457b74e10f393f2c6b1ce4261b78791376db5a3f501477a809f03f500d68187604051610d3d929190611314565b60405180910390a150505050505050565b5f80548382526001602052604080832054905163e58f594760e01b8152600481018690529091829184907f00000000000000000000000000000000000000000000000000000000000000006001600160a01b03169063e58f594790602401602060405180830381865afa158015610dc7573d5f5f3e3d5ffd5b505050506040513d601f19601f82011682018060405250810190610deb9190611224565b9050805f03610dfe575f945050506110a6565b825f03610ebc576040516322565a1560e11b81525f906001600160a01b037f000000000000000000000000000000000000000000000000000000000000000016906344acb42a90610e56908b90600190600401611314565b60a060405180830381865afa158015610e71573d5f5f3e3d5ffd5b505050506040513d601f19601f82011682018060405250810190610e95919061135c565b905062093a80808260400151610eab91906111ee565b610eb5919061120d565b9350839450505b858310610ecd575f945050506110a6565b81831015610ed9578192505b5f5b60328110156110a257868410156110a2575f6001600160a01b037f00000000000000000000000000000000000000000000000000000000000000001663e0514aba8a6001610f2c62093a808a611349565b610f369190611322565b6040518363ffffffff1660e01b8152600401610f53929190611314565b602060405180830381865afa158015610f6e573d5f5f3e3d5ffd5b505050506040513d601f19601f82011682018060405250810190610f929190611224565b90505f6001600160a01b037f00000000000000000000000000000000000000000000000000000000000000001663981b24d06001610fd362093a808a611349565b610fdd9190611322565b6040518263ffffffff1660e01b8152600401610ffb91815260200190565b602060405180830381865afa158015611016573d5f5f3e3d5ffd5b505050506040513d601f19601f8201168201806040525081019061103a9190611224565b90508015611048578061104b565b60015b90508060038766038d7ea4c68000811061106757611067611335565b0154611073908461120d565b61107d91906111ee565b6110879089611349565b975061109662093a8087611349565b95505050600101610edb565b5050505b9250925092565b6110b88383836110bd565b505050565b816014528060345263a9059cbb60601b5f5260205f604460105f875af18060015f5114166110fd57803d853b1517106110fd576390b8ec185f526004601cfd5b505f603452505050565b6001600160a01b0391909116815260200190565b5f6020828403121561112b575f5ffd5b5035919050565b5f5f60208385031215611143575f5ffd5b82356001600160401b03811115611158575f5ffd5b8301601f81018513611168575f5ffd5b80356001600160401b0381111561117d575f5ffd5b8560208260051b8401011115611191575f5ffd5b6020919091019590945092505050565b6001600160a01b03811681146111b5575f5ffd5b50565b5f602082840312156111c8575f5ffd5b81356111d3816111a1565b9392505050565b634e487b7160e01b5f52601160045260245ffd5b5f8261120857634e487b7160e01b5f52601260045260245ffd5b500490565b8082028115828204841417610992576109926111da565b5f60208284031215611234575f5ffd5b5051919050565b634e487b7160e01b5f52602160045260245ffd5b5f6020828403121561125f575f5ffd5b8151600381106111d3575f5ffd5b8051600f81900b811461127e575f5ffd5b919050565b5f6060828403128015611294575f5ffd5b50604051606081016001600160401b03811182821017156112c357634e487b7160e01b5f52604160045260245ffd5b6040526112cf8361126d565b815260208381015190820152604083015180151581146112ed575f5ffd5b60408201529392505050565b5f60208284031215611309575f5ffd5b81516111d3816111a1565b918252602082015260400190565b81810381811115610992576109926111da565b634e487b7160e01b5f52603260045260245ffd5b80820180821115610992576109926111da565b5f60a082840312801561136d575f5ffd5b5060405160a081016001600160401b038111828210171561139c57634e487b7160e01b5f52604160045260245ffd5b6040526113a88361126d565b81526113b66020840161126d565b60208201526040838101519082015260608084015190820152608092830151928101929092525091905056fea264697066735822122065936c336b791a475745d3b64dc7cc70c069e18fd74d07915b0fcc3fc68f533a64736f6c634300081e0033","linkReferences":{}},"methodIdentifiers":{"WEEK()":"f4359ce5","checkpointToken()":"bee5dc32","claim(uint256)":"379607f5","claimMany(uint256[])":"925489a8","claimable(uint256)":"d1d58b25","lastTokenTime()":"939ea66b","minter()":"07546172","setMinter(address)":"fca3b5aa","startTime()":"78e97925","timeCursorOf(uint256)":"4607bf60","token()":"fc0c546a","tokenLastBalance()":"8ec8468a","tokensPerWeek(uint256)":"899519be","ve()":"1f850716"},"id":813}