{"abi":[{"type":"function","name":"allowance","inputs":[{"name":"token","type":"address","internalType":"address"},{"name":"owner","type":"address","internalType":"address"},{"name":"spender","type":"address","internalType":"address"}],"outputs":[{"name":"","type":"uint256","internalType":"uint256"}],"stateMutability":"view"},{"type":"function","name":"approve","inputs":[{"name":"owner","type":"address","internalType":"address"},{"name":"spender","type":"address","internalType":"address"},{"name":"amount","type":"uint256","internalType":"uint256"}],"outputs":[{"name":"","type":"bool","internalType":"bool"}],"stateMutability":"nonpayable"},{"type":"function","name":"balanceOf","inputs":[{"name":"pool","type":"address","internalType":"address"},{"name":"account","type":"address","internalType":"address"}],"outputs":[{"name":"","type":"uint256","internalType":"uint256"}],"stateMutability":"view"},{"type":"function","name":"computeDynamicSwapFeePercentage","inputs":[{"name":"pool","type":"address","internalType":"address"},{"name":"swapParams","type":"tuple","internalType":"struct PoolSwapParams","components":[{"name":"kind","type":"uint8","internalType":"enum SwapKind"},{"name":"amountGivenScaled18","type":"uint256","internalType":"uint256"},{"name":"balancesScaled18","type":"uint256[]","internalType":"uint256[]"},{"name":"indexIn","type":"uint256","internalType":"uint256"},{"name":"indexOut","type":"uint256","internalType":"uint256"},{"name":"router","type":"address","internalType":"address"},{"name":"userData","type":"bytes","internalType":"bytes"}]}],"outputs":[{"name":"dynamicSwapFeePercentage","type":"uint256","internalType":"uint256"}],"stateMutability":"view"},{"type":"function","name":"emitAuxiliaryEvent","inputs":[{"name":"eventKey","type":"bytes32","internalType":"bytes32"},{"name":"eventData","type":"bytes","internalType":"bytes"}],"outputs":[],"stateMutability":"nonpayable"},{"type":"function","name":"facetFuncs","inputs":[],"outputs":[{"name":"funcs","type":"bytes4[]","internalType":"bytes4[]"}],"stateMutability":"pure"},{"type":"function","name":"facetInterfaces","inputs":[],"outputs":[{"name":"interfaces","type":"bytes4[]","internalType":"bytes4[]"}],"stateMutability":"pure"},{"type":"function","name":"facetMetadata","inputs":[],"outputs":[{"name":"name_","type":"string","internalType":"string"},{"name":"interfaces","type":"bytes4[]","internalType":"bytes4[]"},{"name":"functions","type":"bytes4[]","internalType":"bytes4[]"}],"stateMutability":"pure"},{"type":"function","name":"facetName","inputs":[],"outputs":[{"name":"name","type":"string","internalType":"string"}],"stateMutability":"pure"},{"type":"function","name":"getAggregateSwapAndYieldFeeAmounts","inputs":[{"name":"pool","type":"address","internalType":"address"},{"name":"token","type":"address","internalType":"contract IERC20"}],"outputs":[{"name":"swapFeeAmount","type":"uint256","internalType":"uint256"},{"name":"yieldFeeAmount","type":"uint256","internalType":"uint256"}],"stateMutability":"view"},{"type":"function","name":"getAggregateSwapFeeAmount","inputs":[{"name":"pool","type":"address","internalType":"address"},{"name":"token","type":"address","internalType":"contract IERC20"}],"outputs":[{"name":"","type":"uint256","internalType":"uint256"}],"stateMutability":"view"},{"type":"function","name":"getAggregateYieldFeeAmount","inputs":[{"name":"pool","type":"address","internalType":"address"},{"name":"token","type":"address","internalType":"contract IERC20"}],"outputs":[{"name":"","type":"uint256","internalType":"uint256"}],"stateMutability":"view"},{"type":"function","name":"getAuthorizer","inputs":[],"outputs":[{"name":"","type":"address","internalType":"contract IAuthorizer"}],"stateMutability":"view"},{"type":"function","name":"getBptRate","inputs":[{"name":"pool","type":"address","internalType":"address"}],"outputs":[{"name":"","type":"uint256","internalType":"uint256"}],"stateMutability":"view"},{"type":"function","name":"getBufferAsset","inputs":[{"name":"wrappedToken","type":"address","internalType":"contract IERC4626"}],"outputs":[{"name":"","type":"address","internalType":"address"}],"stateMutability":"view"},{"type":"function","name":"getBufferBalance","inputs":[{"name":"wrappedToken","type":"address","internalType":"contract IERC4626"}],"outputs":[{"name":"underlyingBalance","type":"uint256","internalType":"uint256"},{"name":"wrappedBalance","type":"uint256","internalType":"uint256"}],"stateMutability":"view"},{"type":"function","name":"getBufferOwnerShares","inputs":[{"name":"wrappedToken","type":"address","internalType":"contract IERC4626"},{"name":"user","type":"address","internalType":"address"}],"outputs":[{"name":"","type":"uint256","internalType":"uint256"}],"stateMutability":"view"},{"type":"function","name":"getBufferPeriodDuration","inputs":[],"outputs":[{"name":"","type":"uint32","internalType":"uint32"}],"stateMutability":"view"},{"type":"function","name":"getBufferPeriodEndTime","inputs":[],"outputs":[{"name":"","type":"uint32","internalType":"uint32"}],"stateMutability":"view"},{"type":"function","name":"getBufferTotalShares","inputs":[{"name":"wrappedToken","type":"address","internalType":"contract IERC4626"}],"outputs":[{"name":"","type":"uint256","internalType":"uint256"}],"stateMutability":"view"},{"type":"function","name":"getCurrentLiveBalances","inputs":[{"name":"pool","type":"address","internalType":"address"}],"outputs":[{"name":"balancesLiveScaled18","type":"uint256[]","internalType":"uint256[]"}],"stateMutability":"view"},{"type":"function","name":"getERC4626BufferAsset","inputs":[{"name":"wrappedToken","type":"address","internalType":"contract IERC4626"}],"outputs":[{"name":"","type":"address","internalType":"address"}],"stateMutability":"view"},{"type":"function","name":"getHooksConfig","inputs":[{"name":"pool","type":"address","internalType":"address"}],"outputs":[{"name":"","type":"tuple","internalType":"struct HooksConfig","components":[{"name":"enableHookAdjustedAmounts","type":"bool","internalType":"bool"},{"name":"shouldCallBeforeInitialize","type":"bool","internalType":"bool"},{"name":"shouldCallAfterInitialize","type":"bool","internalType":"bool"},{"name":"shouldCallComputeDynamicSwapFee","type":"bool","internalType":"bool"},{"name":"shouldCallBeforeSwap","type":"bool","internalType":"bool"},{"name":"shouldCallAfterSwap","type":"bool","internalType":"bool"},{"name":"shouldCallBeforeAddLiquidity","type":"bool","internalType":"bool"},{"name":"shouldCallAfterAddLiquidity","type":"bool","internalType":"bool"},{"name":"shouldCallBeforeRemoveLiquidity","type":"bool","internalType":"bool"},{"name":"shouldCallAfterRemoveLiquidity","type":"bool","internalType":"bool"},{"name":"hooksContract","type":"address","internalType":"address"}]}],"stateMutability":"view"},{"type":"function","name":"getHooksContract","inputs":[{"name":"pool","type":"address","internalType":"address"}],"outputs":[{"name":"hooksContract","type":"address","internalType":"contract IHooks"}],"stateMutability":"view"},{"type":"function","name":"getMinimumTradeAmount","inputs":[],"outputs":[{"name":"","type":"uint256","internalType":"uint256"}],"stateMutability":"view"},{"type":"function","name":"getMinimumWrapAmount","inputs":[],"outputs":[{"name":"","type":"uint256","internalType":"uint256"}],"stateMutability":"view"},{"type":"function","name":"getPoolConfig","inputs":[{"name":"pool","type":"address","internalType":"address"}],"outputs":[{"name":"","type":"tuple","internalType":"struct PoolConfig","components":[{"name":"liquidityManagement","type":"tuple","internalType":"struct LiquidityManagement","components":[{"name":"disableUnbalancedLiquidity","type":"bool","internalType":"bool"},{"name":"enableAddLiquidityCustom","type":"bool","internalType":"bool"},{"name":"enableRemoveLiquidityCustom","type":"bool","internalType":"bool"},{"name":"enableDonation","type":"bool","internalType":"bool"}]},{"name":"staticSwapFeePercentage","type":"uint256","internalType":"uint256"},{"name":"aggregateSwapFeePercentage","type":"uint256","internalType":"uint256"},{"name":"aggregateYieldFeePercentage","type":"uint256","internalType":"uint256"},{"name":"tokenDecimalDiffs","type":"uint40","internalType":"uint40"},{"name":"pauseWindowEndTime","type":"uint32","internalType":"uint32"},{"name":"isPoolRegistered","type":"bool","internalType":"bool"},{"name":"isPoolInitialized","type":"bool","internalType":"bool"},{"name":"isPoolPaused","type":"bool","internalType":"bool"},{"name":"isPoolInRecoveryMode","type":"bool","internalType":"bool"}]}],"stateMutability":"view"},{"type":"function","name":"getPoolData","inputs":[{"name":"pool","type":"address","internalType":"address"}],"outputs":[{"name":"","type":"tuple","internalType":"struct PoolData","components":[{"name":"poolConfigBits","type":"bytes32","internalType":"PoolConfigBits"},{"name":"tokens","type":"address[]","internalType":"contract IERC20[]"},{"name":"tokenInfo","type":"tuple[]","internalType":"struct TokenInfo[]","components":[{"name":"tokenType","type":"uint8","internalType":"enum TokenType"},{"name":"rateProvider","type":"address","internalType":"contract IRateProvider"},{"name":"paysYieldFees","type":"bool","internalType":"bool"}]},{"name":"balancesRaw","type":"uint256[]","internalType":"uint256[]"},{"name":"balancesLiveScaled18","type":"uint256[]","internalType":"uint256[]"},{"name":"tokenRates","type":"uint256[]","internalType":"uint256[]"},{"name":"decimalScalingFactors","type":"uint256[]","internalType":"uint256[]"}]}],"stateMutability":"view"},{"type":"function","name":"getPoolPausedState","inputs":[{"name":"pool","type":"address","internalType":"address"}],"outputs":[{"name":"poolPaused","type":"bool","internalType":"bool"},{"name":"poolPauseWindowEndTime","type":"uint32","internalType":"uint32"},{"name":"poolBufferPeriodEndTime","type":"uint32","internalType":"uint32"},{"name":"pauseManager","type":"address","internalType":"address"}],"stateMutability":"view"},{"type":"function","name":"getPoolRoleAccounts","inputs":[{"name":"pool","type":"address","internalType":"address"}],"outputs":[{"name":"","type":"tuple","internalType":"struct PoolRoleAccounts","components":[{"name":"pauseManager","type":"address","internalType":"address"},{"name":"swapFeeManager","type":"address","internalType":"address"},{"name":"poolCreator","type":"address","internalType":"address"}]}],"stateMutability":"view"},{"type":"function","name":"getPoolTokenInfo","inputs":[{"name":"pool","type":"address","internalType":"address"}],"outputs":[{"name":"tokens","type":"address[]","internalType":"contract IERC20[]"},{"name":"tokenInfo","type":"tuple[]","internalType":"struct TokenInfo[]","components":[{"name":"tokenType","type":"uint8","internalType":"enum TokenType"},{"name":"rateProvider","type":"address","internalType":"contract IRateProvider"},{"name":"paysYieldFees","type":"bool","internalType":"bool"}]},{"name":"balancesRaw","type":"uint256[]","internalType":"uint256[]"},{"name":"lastBalancesLiveScaled18","type":"uint256[]","internalType":"uint256[]"}],"stateMutability":"view"},{"type":"function","name":"getPoolTokenRates","inputs":[{"name":"pool","type":"address","internalType":"address"}],"outputs":[{"name":"decimalScalingFactors","type":"uint256[]","internalType":"uint256[]"},{"name":"tokenRates","type":"uint256[]","internalType":"uint256[]"}],"stateMutability":"view"},{"type":"function","name":"getPoolTokens","inputs":[{"name":"pool","type":"address","internalType":"address"}],"outputs":[{"name":"tokens","type":"address[]","internalType":"contract IERC20[]"}],"stateMutability":"view"},{"type":"function","name":"getProtocolFeeController","inputs":[],"outputs":[{"name":"","type":"address","internalType":"contract IProtocolFeeController"}],"stateMutability":"view"},{"type":"function","name":"getReservesOf","inputs":[{"name":"token","type":"address","internalType":"contract IERC20"}],"outputs":[{"name":"","type":"uint256","internalType":"uint256"}],"stateMutability":"view"},{"type":"function","name":"getStaticSwapFeePercentage","inputs":[{"name":"pool","type":"address","internalType":"address"}],"outputs":[{"name":"","type":"uint256","internalType":"uint256"}],"stateMutability":"view"},{"type":"function","name":"getVaultAdmin","inputs":[],"outputs":[{"name":"","type":"address","internalType":"address"}],"stateMutability":"view"},{"type":"function","name":"getVaultExtension","inputs":[],"outputs":[{"name":"","type":"address","internalType":"address"}],"stateMutability":"view"},{"type":"function","name":"getVaultPauseWindowEndTime","inputs":[],"outputs":[{"name":"","type":"uint32","internalType":"uint32"}],"stateMutability":"view"},{"type":"function","name":"isERC4626BufferInitialized","inputs":[{"name":"wrappedToken","type":"address","internalType":"contract IERC4626"}],"outputs":[{"name":"","type":"bool","internalType":"bool"}],"stateMutability":"view"},{"type":"function","name":"isPoolInRecoveryMode","inputs":[{"name":"pool","type":"address","internalType":"address"}],"outputs":[{"name":"","type":"bool","internalType":"bool"}],"stateMutability":"view"},{"type":"function","name":"isPoolInitialized","inputs":[{"name":"pool","type":"address","internalType":"address"}],"outputs":[{"name":"","type":"bool","internalType":"bool"}],"stateMutability":"view"},{"type":"function","name":"isPoolPaused","inputs":[{"name":"pool","type":"address","internalType":"address"}],"outputs":[{"name":"","type":"bool","internalType":"bool"}],"stateMutability":"view"},{"type":"function","name":"isPoolRegistered","inputs":[{"name":"pool","type":"address","internalType":"address"}],"outputs":[{"name":"","type":"bool","internalType":"bool"}],"stateMutability":"view"},{"type":"function","name":"isQueryDisabledPermanently","inputs":[],"outputs":[{"name":"","type":"bool","internalType":"bool"}],"stateMutability":"view"},{"type":"function","name":"quote","inputs":[{"name":"data","type":"bytes","internalType":"bytes"}],"outputs":[{"name":"result","type":"bytes","internalType":"bytes"}],"stateMutability":"nonpayable"},{"type":"function","name":"quoteAndRevert","inputs":[{"name":"data","type":"bytes","internalType":"bytes"}],"outputs":[],"stateMutability":"nonpayable"},{"type":"function","name":"totalSupply","inputs":[{"name":"pool","type":"address","internalType":"address"}],"outputs":[{"name":"","type":"uint256","internalType":"uint256"}],"stateMutability":"view"},{"type":"function","name":"vault","inputs":[],"outputs":[{"name":"","type":"address","internalType":"address"}],"stateMutability":"view"},{"type":"event","name":"AggregateSwapFeePercentageChanged","inputs":[{"name":"pool","type":"address","indexed":true,"internalType":"address"},{"name":"aggregateSwapFeePercentage","type":"uint256","indexed":false,"internalType":"uint256"}],"anonymous":false},{"type":"event","name":"AggregateYieldFeePercentageChanged","inputs":[{"name":"pool","type":"address","indexed":true,"internalType":"address"},{"name":"aggregateYieldFeePercentage","type":"uint256","indexed":false,"internalType":"uint256"}],"anonymous":false},{"type":"event","name":"Approval","inputs":[{"name":"pool","type":"address","indexed":true,"internalType":"address"},{"name":"owner","type":"address","indexed":true,"internalType":"address"},{"name":"spender","type":"address","indexed":true,"internalType":"address"},{"name":"value","type":"uint256","indexed":false,"internalType":"uint256"}],"anonymous":false},{"type":"event","name":"AuthorizerChanged","inputs":[{"name":"newAuthorizer","type":"address","indexed":true,"internalType":"contract IAuthorizer"}],"anonymous":false},{"type":"event","name":"BufferSharesBurned","inputs":[{"name":"wrappedToken","type":"address","indexed":true,"internalType":"contract IERC4626"},{"name":"from","type":"address","indexed":true,"internalType":"address"},{"name":"burnedShares","type":"uint256","indexed":false,"internalType":"uint256"}],"anonymous":false},{"type":"event","name":"BufferSharesMinted","inputs":[{"name":"wrappedToken","type":"address","indexed":true,"internalType":"contract IERC4626"},{"name":"to","type":"address","indexed":true,"internalType":"address"},{"name":"issuedShares","type":"uint256","indexed":false,"internalType":"uint256"}],"anonymous":false},{"type":"event","name":"LiquidityAdded","inputs":[{"name":"pool","type":"address","indexed":true,"internalType":"address"},{"name":"liquidityProvider","type":"address","indexed":true,"internalType":"address"},{"name":"kind","type":"uint8","indexed":true,"internalType":"enum AddLiquidityKind"},{"name":"totalSupply","type":"uint256","indexed":false,"internalType":"uint256"},{"name":"amountsAddedRaw","type":"uint256[]","indexed":false,"internalType":"uint256[]"},{"name":"swapFeeAmountsRaw","type":"uint256[]","indexed":false,"internalType":"uint256[]"}],"anonymous":false},{"type":"event","name":"LiquidityAddedToBuffer","inputs":[{"name":"wrappedToken","type":"address","indexed":true,"internalType":"contract IERC4626"},{"name":"amountUnderlying","type":"uint256","indexed":false,"internalType":"uint256"},{"name":"amountWrapped","type":"uint256","indexed":false,"internalType":"uint256"},{"name":"bufferBalances","type":"bytes32","indexed":false,"internalType":"bytes32"}],"anonymous":false},{"type":"event","name":"LiquidityRemoved","inputs":[{"name":"pool","type":"address","indexed":true,"internalType":"address"},{"name":"liquidityProvider","type":"address","indexed":true,"internalType":"address"},{"name":"kind","type":"uint8","indexed":true,"internalType":"enum RemoveLiquidityKind"},{"name":"totalSupply","type":"uint256","indexed":false,"internalType":"uint256"},{"name":"amountsRemovedRaw","type":"uint256[]","indexed":false,"internalType":"uint256[]"},{"name":"swapFeeAmountsRaw","type":"uint256[]","indexed":false,"internalType":"uint256[]"}],"anonymous":false},{"type":"event","name":"LiquidityRemovedFromBuffer","inputs":[{"name":"wrappedToken","type":"address","indexed":true,"internalType":"contract IERC4626"},{"name":"amountUnderlying","type":"uint256","indexed":false,"internalType":"uint256"},{"name":"amountWrapped","type":"uint256","indexed":false,"internalType":"uint256"},{"name":"bufferBalances","type":"bytes32","indexed":false,"internalType":"bytes32"}],"anonymous":false},{"type":"event","name":"PoolInitialized","inputs":[{"name":"pool","type":"address","indexed":true,"internalType":"address"}],"anonymous":false},{"type":"event","name":"PoolPausedStateChanged","inputs":[{"name":"pool","type":"address","indexed":true,"internalType":"address"},{"name":"paused","type":"bool","indexed":false,"internalType":"bool"}],"anonymous":false},{"type":"event","name":"PoolRecoveryModeStateChanged","inputs":[{"name":"pool","type":"address","indexed":true,"internalType":"address"},{"name":"recoveryMode","type":"bool","indexed":false,"internalType":"bool"}],"anonymous":false},{"type":"event","name":"PoolRegistered","inputs":[{"name":"pool","type":"address","indexed":true,"internalType":"address"},{"name":"factory","type":"address","indexed":true,"internalType":"address"},{"name":"tokenConfig","type":"tuple[]","indexed":false,"internalType":"struct TokenConfig[]","components":[{"name":"token","type":"address","internalType":"contract IERC20"},{"name":"tokenType","type":"uint8","internalType":"enum TokenType"},{"name":"rateProvider","type":"address","internalType":"contract IRateProvider"},{"name":"paysYieldFees","type":"bool","internalType":"bool"}]},{"name":"swapFeePercentage","type":"uint256","indexed":false,"internalType":"uint256"},{"name":"pauseWindowEndTime","type":"uint32","indexed":false,"internalType":"uint32"},{"name":"roleAccounts","type":"tuple","indexed":false,"internalType":"struct PoolRoleAccounts","components":[{"name":"pauseManager","type":"address","internalType":"address"},{"name":"swapFeeManager","type":"address","internalType":"address"},{"name":"poolCreator","type":"address","internalType":"address"}]},{"name":"hooksConfig","type":"tuple","indexed":false,"internalType":"struct HooksConfig","components":[{"name":"enableHookAdjustedAmounts","type":"bool","internalType":"bool"},{"name":"shouldCallBeforeInitialize","type":"bool","internalType":"bool"},{"name":"shouldCallAfterInitialize","type":"bool","internalType":"bool"},{"name":"shouldCallComputeDynamicSwapFee","type":"bool","internalType":"bool"},{"name":"shouldCallBeforeSwap","type":"bool","internalType":"bool"},{"name":"shouldCallAfterSwap","type":"bool","internalType":"bool"},{"name":"shouldCallBeforeAddLiquidity","type":"bool","internalType":"bool"},{"name":"shouldCallAfterAddLiquidity","type":"bool","internalType":"bool"},{"name":"shouldCallBeforeRemoveLiquidity","type":"bool","internalType":"bool"},{"name":"shouldCallAfterRemoveLiquidity","type":"bool","internalType":"bool"},{"name":"hooksContract","type":"address","internalType":"address"}]},{"name":"liquidityManagement","type":"tuple","indexed":false,"internalType":"struct LiquidityManagement","components":[{"name":"disableUnbalancedLiquidity","type":"bool","internalType":"bool"},{"name":"enableAddLiquidityCustom","type":"bool","internalType":"bool"},{"name":"enableRemoveLiquidityCustom","type":"bool","internalType":"bool"},{"name":"enableDonation","type":"bool","internalType":"bool"}]}],"anonymous":false},{"type":"event","name":"ProtocolFeeControllerChanged","inputs":[{"name":"newProtocolFeeController","type":"address","indexed":true,"internalType":"contract IProtocolFeeController"}],"anonymous":false},{"type":"event","name":"Swap","inputs":[{"name":"pool","type":"address","indexed":true,"internalType":"address"},{"name":"tokenIn","type":"address","indexed":true,"internalType":"contract IERC20"},{"name":"tokenOut","type":"address","indexed":true,"internalType":"contract IERC20"},{"name":"amountIn","type":"uint256","indexed":false,"internalType":"uint256"},{"name":"amountOut","type":"uint256","indexed":false,"internalType":"uint256"},{"name":"swapFeePercentage","type":"uint256","indexed":false,"internalType":"uint256"},{"name":"swapFeeAmount","type":"uint256","indexed":false,"internalType":"uint256"}],"anonymous":false},{"type":"event","name":"SwapFeePercentageChanged","inputs":[{"name":"pool","type":"address","indexed":true,"internalType":"address"},{"name":"swapFeePercentage","type":"uint256","indexed":false,"internalType":"uint256"}],"anonymous":false},{"type":"event","name":"Unwrap","inputs":[{"name":"wrappedToken","type":"address","indexed":true,"internalType":"contract IERC4626"},{"name":"burnedShares","type":"uint256","indexed":false,"internalType":"uint256"},{"name":"withdrawnUnderlying","type":"uint256","indexed":false,"internalType":"uint256"},{"name":"bufferBalances","type":"bytes32","indexed":false,"internalType":"bytes32"}],"anonymous":false},{"type":"event","name":"VaultAuxiliary","inputs":[{"name":"pool","type":"address","indexed":true,"internalType":"address"},{"name":"eventKey","type":"bytes32","indexed":true,"internalType":"bytes32"},{"name":"eventData","type":"bytes","indexed":false,"internalType":"bytes"}],"anonymous":false},{"type":"event","name":"VaultBuffersPausedStateChanged","inputs":[{"name":"paused","type":"bool","indexed":false,"internalType":"bool"}],"anonymous":false},{"type":"event","name":"VaultPausedStateChanged","inputs":[{"name":"paused","type":"bool","indexed":false,"internalType":"bool"}],"anonymous":false},{"type":"event","name":"VaultQueriesDisabled","inputs":[],"anonymous":false},{"type":"event","name":"VaultQueriesEnabled","inputs":[],"anonymous":false},{"type":"event","name":"Wrap","inputs":[{"name":"wrappedToken","type":"address","indexed":true,"internalType":"contract IERC4626"},{"name":"depositedUnderlying","type":"uint256","indexed":false,"internalType":"uint256"},{"name":"mintedShares","type":"uint256","indexed":false,"internalType":"uint256"},{"name":"bufferBalances","type":"bytes32","indexed":false,"internalType":"bytes32"}],"anonymous":false},{"type":"error","name":"AfterAddLiquidityHookFailed","inputs":[]},{"type":"error","name":"AfterInitializeHookFailed","inputs":[]},{"type":"error","name":"AfterRemoveLiquidityHookFailed","inputs":[]},{"type":"error","name":"AfterSwapHookFailed","inputs":[]},{"type":"error","name":"AmountGivenZero","inputs":[]},{"type":"error","name":"AmountInAboveMax","inputs":[{"name":"tokenIn","type":"address","internalType":"contract IERC20"},{"name":"amountIn","type":"uint256","internalType":"uint256"},{"name":"maxAmountIn","type":"uint256","internalType":"uint256"}]},{"type":"error","name":"AmountOutBelowMin","inputs":[{"name":"tokenOut","type":"address","internalType":"contract IERC20"},{"name":"amountOut","type":"uint256","internalType":"uint256"},{"name":"minAmountOut","type":"uint256","internalType":"uint256"}]},{"type":"error","name":"BalanceNotSettled","inputs":[]},{"type":"error","name":"BeforeAddLiquidityHookFailed","inputs":[]},{"type":"error","name":"BeforeInitializeHookFailed","inputs":[]},{"type":"error","name":"BeforeRemoveLiquidityHookFailed","inputs":[]},{"type":"error","name":"BeforeSwapHookFailed","inputs":[]},{"type":"error","name":"BptAmountInAboveMax","inputs":[{"name":"amountIn","type":"uint256","internalType":"uint256"},{"name":"maxAmountIn","type":"uint256","internalType":"uint256"}]},{"type":"error","name":"BptAmountOutBelowMin","inputs":[{"name":"amountOut","type":"uint256","internalType":"uint256"},{"name":"minAmountOut","type":"uint256","internalType":"uint256"}]},{"type":"error","name":"BufferAlreadyInitialized","inputs":[{"name":"wrappedToken","type":"address","internalType":"contract IERC4626"}]},{"type":"error","name":"BufferNotInitialized","inputs":[{"name":"wrappedToken","type":"address","internalType":"contract IERC4626"}]},{"type":"error","name":"BufferSharesInvalidOwner","inputs":[]},{"type":"error","name":"BufferSharesInvalidReceiver","inputs":[]},{"type":"error","name":"BufferTotalSupplyTooLow","inputs":[{"name":"totalSupply","type":"uint256","internalType":"uint256"}]},{"type":"error","name":"CannotReceiveEth","inputs":[]},{"type":"error","name":"CannotSwapSameToken","inputs":[]},{"type":"error","name":"DoesNotSupportAddLiquidityCustom","inputs":[]},{"type":"error","name":"DoesNotSupportDonation","inputs":[]},{"type":"error","name":"DoesNotSupportRemoveLiquidityCustom","inputs":[]},{"type":"error","name":"DoesNotSupportUnbalancedLiquidity","inputs":[]},{"type":"error","name":"DynamicSwapFeeHookFailed","inputs":[]},{"type":"error","name":"ERC20InvalidApprover","inputs":[{"name":"approver","type":"address","internalType":"address"}]},{"type":"error","name":"ERC20InvalidSpender","inputs":[{"name":"spender","type":"address","internalType":"address"}]},{"type":"error","name":"FeePrecisionTooHigh","inputs":[]},{"type":"error","name":"HookAdjustedAmountInAboveMax","inputs":[{"name":"tokenIn","type":"address","internalType":"contract IERC20"},{"name":"amountIn","type":"uint256","internalType":"uint256"},{"name":"maxAmountIn","type":"uint256","internalType":"uint256"}]},{"type":"error","name":"HookAdjustedAmountOutBelowMin","inputs":[{"name":"tokenOut","type":"address","internalType":"contract IERC20"},{"name":"amountOut","type":"uint256","internalType":"uint256"},{"name":"minAmountOut","type":"uint256","internalType":"uint256"}]},{"type":"error","name":"HookAdjustedSwapLimit","inputs":[{"name":"amount","type":"uint256","internalType":"uint256"},{"name":"limit","type":"uint256","internalType":"uint256"}]},{"type":"error","name":"HookRegistrationFailed","inputs":[{"name":"poolHooksContract","type":"address","internalType":"address"},{"name":"pool","type":"address","internalType":"address"},{"name":"poolFactory","type":"address","internalType":"address"}]},{"type":"error","name":"InvalidAddLiquidityKind","inputs":[]},{"type":"error","name":"InvalidRemoveLiquidityKind","inputs":[]},{"type":"error","name":"InvalidToken","inputs":[]},{"type":"error","name":"InvalidTokenConfiguration","inputs":[]},{"type":"error","name":"InvalidTokenDecimals","inputs":[]},{"type":"error","name":"InvalidTokenType","inputs":[]},{"type":"error","name":"InvalidUnderlyingToken","inputs":[{"name":"wrappedToken","type":"address","internalType":"contract IERC4626"}]},{"type":"error","name":"IssuedSharesBelowMin","inputs":[{"name":"issuedShares","type":"uint256","internalType":"uint256"},{"name":"minIssuedShares","type":"uint256","internalType":"uint256"}]},{"type":"error","name":"MaxTokens","inputs":[]},{"type":"error","name":"MinTokens","inputs":[]},{"type":"error","name":"NotEnoughBufferShares","inputs":[]},{"type":"error","name":"NotEnoughUnderlying","inputs":[{"name":"wrappedToken","type":"address","internalType":"contract IERC4626"},{"name":"expectedUnderlyingAmount","type":"uint256","internalType":"uint256"},{"name":"actualUnderlyingAmount","type":"uint256","internalType":"uint256"}]},{"type":"error","name":"NotEnoughWrapped","inputs":[{"name":"wrappedToken","type":"address","internalType":"contract IERC4626"},{"name":"expectedWrappedAmount","type":"uint256","internalType":"uint256"},{"name":"actualWrappedAmount","type":"uint256","internalType":"uint256"}]},{"type":"error","name":"NotVaultDelegateCall","inputs":[]},{"type":"error","name":"PauseBufferPeriodDurationTooLarge","inputs":[]},{"type":"error","name":"PercentageAboveMax","inputs":[]},{"type":"error","name":"PoolAlreadyInitialized","inputs":[{"name":"pool","type":"address","internalType":"address"}]},{"type":"error","name":"PoolAlreadyRegistered","inputs":[{"name":"pool","type":"address","internalType":"address"}]},{"type":"error","name":"PoolInRecoveryMode","inputs":[{"name":"pool","type":"address","internalType":"address"}]},{"type":"error","name":"PoolNotInRecoveryMode","inputs":[{"name":"pool","type":"address","internalType":"address"}]},{"type":"error","name":"PoolNotInitialized","inputs":[{"name":"pool","type":"address","internalType":"address"}]},{"type":"error","name":"PoolNotPaused","inputs":[{"name":"pool","type":"address","internalType":"address"}]},{"type":"error","name":"PoolNotRegistered","inputs":[{"name":"pool","type":"address","internalType":"address"}]},{"type":"error","name":"PoolPauseWindowExpired","inputs":[{"name":"pool","type":"address","internalType":"address"}]},{"type":"error","name":"PoolPaused","inputs":[{"name":"pool","type":"address","internalType":"address"}]},{"type":"error","name":"ProtocolFeesExceedTotalCollected","inputs":[]},{"type":"error","name":"QueriesDisabled","inputs":[]},{"type":"error","name":"QueriesDisabledPermanently","inputs":[]},{"type":"error","name":"QuoteResultSpoofed","inputs":[]},{"type":"error","name":"RouterNotTrusted","inputs":[]},{"type":"error","name":"SenderIsNotVault","inputs":[{"name":"sender","type":"address","internalType":"address"}]},{"type":"error","name":"SwapFeePercentageTooHigh","inputs":[]},{"type":"error","name":"SwapFeePercentageTooLow","inputs":[]},{"type":"error","name":"SwapLimit","inputs":[{"name":"amount","type":"uint256","internalType":"uint256"},{"name":"limit","type":"uint256","internalType":"uint256"}]},{"type":"error","name":"TokenAlreadyRegistered","inputs":[{"name":"token","type":"address","internalType":"contract IERC20"}]},{"type":"error","name":"TokenNotRegistered","inputs":[{"name":"token","type":"address","internalType":"contract IERC20"}]},{"type":"error","name":"TokensMismatch","inputs":[{"name":"pool","type":"address","internalType":"address"},{"name":"expectedToken","type":"address","internalType":"address"},{"name":"actualToken","type":"address","internalType":"address"}]},{"type":"error","name":"TradeAmountTooSmall","inputs":[]},{"type":"error","name":"VaultBuffersArePaused","inputs":[]},{"type":"error","name":"VaultIsNotUnlocked","inputs":[]},{"type":"error","name":"VaultNotPaused","inputs":[]},{"type":"error","name":"VaultPauseWindowDurationTooLarge","inputs":[]},{"type":"error","name":"VaultPauseWindowExpired","inputs":[]},{"type":"error","name":"VaultPaused","inputs":[]},{"type":"error","name":"WrapAmountTooSmall","inputs":[{"name":"wrappedToken","type":"address","internalType":"contract IERC4626"}]},{"type":"error","name":"WrongProtocolFeeControllerDeployment","inputs":[]},{"type":"error","name":"WrongUnderlyingToken","inputs":[{"name":"wrappedToken","type":"address","internalType":"contract IERC4626"},{"name":"underlyingToken","type":"address","internalType":"address"}]},{"type":"error","name":"WrongVaultAdminDeployment","inputs":[]},{"type":"error","name":"WrongVaultExtensionDeployment","inputs":[]}],"bytecode":{"object":"0x6080604052348015600e575f5ffd5b50613d208061001c5f395ff3fe608060405234801561000f575f5ffd5b5060043610610238575f3560e01c8062fdfa131461023c5780630387587d146102625780630f8a06ac1461028257806313d21cdf146102aa57806313ef8a5d146102ca57806315e32046146102e25780631ba0ae451461032d57806320c1fb7a146103335780632ea80826146103505780634021fe0f146103655780634afbaf5a146102625780634d472bdd146103785780634f037ee71461038b578063532cec7c1461039e578063535cfd8a146103b157806353956aa2146103d1578063574a4cff146103d95780635b6f4d01146103e157806367e0e076146103f65780636844846b146104195780636c9bc7321461042c578063757d64b31461043f5780637e361bde1461045457806385e0b9991461047557806385f2dbd414610488578063927da105146104905780639385e39a146104a357806396787092146104b6578063a52ad3a2146104c9578063aaabadc5146104dc578063b45090f9146104e4578063b9a8effa1461032d578063be7d628a146104f7578063c673bdaf1461050a578063c80882471461051d578063ca4f280314610530578063cd51c12f14610550578063ce8630d414610558578063d0c0c5b214610578578063e1f21c6714610580578063e2cb0ba014610593578063e4dc2aa41461059b578063e9ddeb26146105ae578063edfa3568146105f3578063f10d7a7514610606578063f2784e071461061d578063f29486a114610630578063f7888aec14610650578063fbfa77cf1461032d575b5f5ffd5b61024f61024a366004613119565b610663565b6040519081526020015b60405180910390f35b610275610270366004613150565b610685565b6040516102599190613178565b610295610290366004613119565b61068f565b60408051928352602083019190915201610259565b6102bd6102b8366004613150565b6106be565b6040516102599190613299565b6102d26106e4565b6040519015158152602001610259565b6102f56102f0366004613150565b6106f2565b6040516102599493929190931515845263ffffffff9283166020850152911660408301526001600160a01b0316606082015260800190565b30610275565b61033b610782565b60405163ffffffff9091168152602001610259565b61035861078b565b604051610259919061338e565b610295610373366004613150565b6107e3565b61024f610386366004613504565b61080e565b61024f610399366004613150565b610916565b6102d26103ac366004613150565b61094e565b6103c46103bf366004613150565b610958565b60405161025991906135ed565b61024f61097c565b610358610985565b6103e9611333565b604051610259919061362d565b610409610404366004613150565b61135c565b604051610259949392919061363f565b6102d2610427366004613150565b611626565b6102d261043a366004613150565b611642565b61045261044d366004613702565b61164c565b005b610467610462366004613150565b611694565b604051610259929190613740565b61024f610483366004613119565b6116c4565b6102756116db565b61024f61049e366004613764565b6116e4565b61024f6104b1366004613119565b6116f8565b61024f6104c4366004613150565b61170a565b6102756104d7366004613150565b611714565b61027561171e565b61024f6104f2366004613150565b611727565b6102d2610505366004613150565b611743565b6102d2610518366004613150565b61174d565b61045261052b3660046137ac565b611757565b61054361053e366004613150565b6117d1565b60405161025991906137f3565b61033b611845565b61056b610566366004613150565b61184e565b6040516102599190613805565b61033b61188b565b6102d261058e3660046138dc565b611894565b61024f6118ab565b61024f6105a9366004613150565b6118b4565b6105c16105bc366004613150565b6118be565b6040805182516001600160a01b0390811682526020808501518216908301529282015190921690820152606001610259565b6103e9610601366004613702565b611926565b61060e61195b565b6040516102599392919061391a565b61024f61062b366004613150565b611983565b61064361063e366004613150565b61198d565b6040516102599190613952565b61024f61065e366004613119565b611aff565b5f5f61066f8484611b0a565b905061067b8160801c90565b9150505b92915050565b5f61067f82611b43565b5f5f5f61069c8585611b0a565b90506106a781611b71565b6106b18260801c90565b92509250505b9250929050565b6106c6613034565b816106d081611b7d565b6106db836001611ba8565b91505b50919050565b5f6106ed611c04565b905090565b5f5f5f5f8461070081611b7d565b5f61070a87611c1a565b90505f61071688611c45565b6040805160608101825282546001600160a01b03908116825260018401548116602083015260029093015490921690820152905061075382611c6f565b965061075e82611c95565b9550610768611d99565b6107729087613a1e565b9051969895975095949350505050565b5f6106ed611d99565b604080516001808252818301909252606091602080830190803683370190505090506302a95e6b60e51b815f815181106107c7576107c7613a3a565b6001600160e01b03199092166020928302919091019091015290565b5f5f5f6107ef84611db9565b90506107fa81611b71565b6108048260801c90565b9250925050915091565b5f8261081981611b7d565b5f61082385611c1a565b905061082e81611de4565b6108435761083b81611e56565b92505061090f565b5f61084d86611f3c565b90506001600160a01b03811661086f5761086682611e56565b9350505061090f565b5f5f826001600160a01b031663a0e8f5ac888a61088b88611e56565b6040518463ffffffff1660e01b81526004016108a993929190613a4e565b6040805180830381865afa1580156108c3573d5f5f3e3d5ffd5b505050506040513d601f19601f820116820180604052508101906108e79190613aef565b9150915081610909576040516314fe5db560e21b815260040160405180910390fd5b94505050505b5092915050565b5f8161092181611b7d565b5f61092b84611f6a565b9050805f0361093d575f9250506106de565b50670de0b6b3a76400009392505050565b5f61067f82611f95565b60608161096481611b7d565b5f610970846001611ba8565b60800151949350505050565b5f6106ed611fa7565b60408051602d8082526105c08201909252606091602082016105a08036833701905050905063c673bdaf60e01b815f815181106109c4576109c4613a3a565b6001600160e01b03199092166020928302919091019091015280516314cb3b1f60e21b90829060019081106109fb576109fb613a3a565b6001600160e01b031990921660209283029190910190910152805163364de39960e11b9082906002908110610a3257610a32613a3a565b6001600160e01b0319909216602092830291909101909101528051635f3eb14560e11b9082906003908110610a6957610a69613a3a565b6001600160e01b031990921660209283029190910190910152805163ca4f280360e01b9082906004908110610aa057610aa0613a3a565b6001600160e01b03199092166020928302919091019091015280516333f0703b60e11b9082906005908110610ad757610ad7613a3a565b6001600160e01b0319909216602092830291909101909101528051633f1b0def60e11b9082906006908110610b0e57610b0e613a3a565b6001600160e01b03199092166020928302919091019091015280516329ae7ec560e11b9082906007908110610b4557610b45613a3a565b6001600160e01b031990921660209283029190910190910152805163f29486a160e01b9082906008908110610b7c57610b7c613a3a565b6001600160e01b031990921660209283029190910190910152805163529569d160e11b9082906009908110610bb357610bb3613a3a565b6001600160e01b031990921660209283029190910190910152805163b45090f960e01b908290600a908110610bea57610bea613a3a565b6001600160e01b03199092166020928302919091019091015280516374eef59360e11b908290600b908110610c2157610c21613a3a565b6001600160e01b03199092166020928302919091019091015280516313ef8a5d60e01b908290600c908110610c5857610c58613a3a565b6001600160e01b031990921660209283029190910190910152805163686062d960e11b908290600d908110610c8f57610c8f613a3a565b6001600160e01b031990921660209283029190910190910152805163cd51c12f60e01b908290600e908110610cc657610cc6613a3a565b6001600160e01b0319909216602092830291909101909101528051631060fdbd60e11b908290600f908110610cfd57610cfd613a3a565b6001600160e01b0319909216602092830291909101909101528051630716585d60e51b9082906010908110610d3457610d34613a3a565b6001600160e01b03199092166020928302919091019091015280516329cab55160e11b9082906011908110610d6b57610d6b613a3a565b6001600160e01b031990921660209283029190910190910152805163aaabadc560e01b9082906012908110610da257610da2613a3a565b6001600160e01b031990921660209283029190910190910152805163217cb6f560e21b9082906013908110610dd957610dd9613a3a565b6001600160e01b03199092166020928302919091019091015280516339370aa960e21b9082906014908110610e1057610e10613a3a565b6001600160e01b0319909216602092830291909101909101528051633de222bb60e21b9082906015908110610e4757610e47613a3a565b6001600160e01b031990921660209283029190910190910152805163927da10560e01b9082906016908110610e7e57610e7e613a3a565b6001600160e01b031990921660209283029190910190910152805163e1f21c6760e01b9082906017908110610eb557610eb5613a3a565b6001600160e01b0319909216602092830291909101909101528051634021fe0f60e01b9082906018908110610eec57610eec613a3a565b6001600160e01b03199092166020928302919091019091015280516349c2f1cd60e11b9082906019908110610f2357610f23613a3a565b6001600160e01b031990921660209283029190910190910152805163f2784e0760e01b908290601a908110610f5a57610f5a613a3a565b6001600160e01b0319909216602092830291909101909101528051630387587d60e01b908290601b908110610f9157610f91613a3a565b6001600160e01b0319909216602092830291909101909101528051634b3c384960e11b908290601c908110610fc857610fc8613a3a565b6001600160e01b03199092166020928302919091019091015280516303e281ab60e21b908290601d908110610fff57610fff613a3a565b6001600160e01b03199092166020928302919091019091015280516385e0b99960e01b908290601e90811061103657611036613a3a565b6001600160e01b031990921660209283029190910190910152805162fdfa1360e01b908290601f90811061106c5761106c613a3a565b6001600160e01b03199092166020928302919091018201528151635cd477fd60e11b918391811061109f5761109f613a3a565b6001600160e01b0319909216602092830291909101909101528051631ba0ae4560e01b90829060219081106110d6576110d6613a3a565b6001600160e01b031990921660209283029190910190910152805163fbfa77cf60e01b908290602290811061110d5761110d613a3a565b6001600160e01b03199092166020928302919091019091015280516333a18c3560e21b908290602390811061114457611144613a3a565b6001600160e01b0319909216602092830291909101909101528051634f037ee760e01b908290602490811061117b5761117b613a3a565b6001600160e01b0319909216602092830291909101909101528051630af1902360e11b90829060259081106111b2576111b2613a3a565b6001600160e01b0319909216602092830291909101909101528051636844846b60e01b90829060269081106111e9576111e9613a3a565b6001600160e01b031990921660209283029190910190910152805163257dd7ad60e11b908290602790811061122057611220613a3a565b6001600160e01b0319909216602092830291909101909101528051631dbf46ad60e31b908290602890811061125757611257613a3a565b6001600160e01b031990921660209283029190910190910152805163757d64b360e01b908290602990811061128e5761128e613a3a565b6001600160e01b031990921660209283029190910190910152805163c808824760e01b908290602a9081106112c5576112c5613a3a565b6001600160e01b03199092166020928302919091019091015280516313d21cdf60e01b908290602b9081106112fc576112fc613a3a565b6001600160e01b0319909216602092830291909101909101528051634d472bdd60e01b908290602c9081106107c7576107c7613a3a565b60408051808201909152600f81526e15985d5b1d145d595c9e519858d95d608a1b602082015290565b6060806060808461136c81611b7d565b5f611375611fba565b6001600160a01b0388165f90815260068201602090815260409182902080548351818402810184019094528084529394509192908301828280156113e057602002820191905f5260205f20905b81546001600160a01b031681526001909101906020018083116113c2575b5050835193995083925050506001600160401b03811115611403576114036133a0565b60405190808252806020026020018201604052801561143c57816020015b611429613070565b8152602001906001900390816114215790505b509550806001600160401b03811115611457576114576133a0565b604051908082528060200260200182016040528015611480578160200160208202803683370190505b509450806001600160401b0381111561149b5761149b6133a0565b6040519080825280602002602001820160405280156114c4578160200160208202803683370190505b5093505f5b8181101561161b576001600160a01b0389165f908152600784016020526040812089519091908a908490811061150157611501613a3a565b6020908102919091018101516001600160a01b0316825281019190915260409081015f208151606081019092528054829060ff166001811115611546576115466131cf565b6001811115611557576115576131cf565b8152905461010081046001600160a01b03166020830152600160a81b900460ff161515604090910152875188908390811061159457611594613a3a565b6020908102919091018101919091526001600160a01b038a165f908152600885018252604080822084835290925220546115cd81611b71565b8783815181106115df576115df613a3a565b6020026020010181815250506115f58160801c90565b86838151811061160757611607613a3a565b6020908102919091010152506001016114c9565b505050509193509193565b5f8061163183611b43565b6001600160a01b0316141592915050565b5f61067f82611fde565b611660611657611fba565b600a0154611ff1565b1561167e57604051633d0cc44360e11b815260040160405180910390fd5b5f6116898383611ffb565b905080518060208301fd5b606080826116a181611b7d565b5f6116ad856001611ba8565b90508060c001518160a00151935093505050915091565b5f5f6116d08484611b0a565b905061067b81611b71565b5f6106ed612069565b5f6116f0848484612085565b949350505050565b5f6117038383612099565b9392505050565b5f61067f826120d2565b5f61067f82611f3c565b5f6106ed6120fd565b5f8161173281611b7d565b6106db61173e84611c1a565b611e56565b5f61067f8261211e565b5f61067f82612130565b61176033612130565b61178857336040516327946f5760e21b815260040161177f9190613178565b60405180910390fd5b82336001600160a01b03167f4bc4412e210115456903c65b5277d299a505e79f2eb852b92b1ca52d8585642884846040516117c4929190613b1f565b60405180910390a3505050565b6060816117dd81611b7d565b6117e683612142565b80548060200260200160405190810160405280929190818152602001828054801561183857602002820191905f5260205f20905b81546001600160a01b0316815260019091019060200180831161181a575b5050505050915050919050565b5f6106ed61216c565b611856613090565b8161186081611b7d565b5f61186a84611c1a565b90505f61187685611f3c565b9050611882828261218c565b95945050505050565b5f6106ed612255565b5f6118a13385858561226e565b5060019392505050565b5f6106ed612288565b5f61067f82611f6a565b604080516060810182525f8082526020820181905291810191909152816118e481611b7d565b6118ed83611c45565b6040805160608101825282546001600160a01b039081168252600184015481166020830152600290930154909216908201529392505050565b6060611933611657611fba565b1561195157604051633d0cc44360e11b815260040160405180910390fd5b6117038383611ffb565b6060806060611968611333565b925061197261078b565b915061197c610985565b9050909192565b5f61067f82612298565b604080516101c0810182525f6101408201818152610160830182905261018083018290526101a08301829052825260208201819052918101829052606081018290526080810182905260a0810182905260c0810182905260e08101829052610100810182905261012081019190915281611a0681611b7d565b5f611a1084611c1a565b604080516101c0810190915290915080610140810180611a2f856122c3565b158152602001611a3e856122d9565b15158152602001611a4e856122e8565b15158152602001611a5e856122f7565b151590528152602001611a7083611e56565b8152602001611a7e83612306565b8152602001611a8c836123ee565b8152602001611a9a836124d8565b64ffffffffff168152602001611aaf83611c95565b63ffffffff168152602001611ac383611ff1565b15158152602001611ad3836125d0565b15158152602001611ae383611c6f565b15158152602001611af3836125df565b15159052949350505050565b5f61170383836125ee565b5f611703611b16611fba565b6001600160a01b038086165f90815260099290920160209081526040808420928716845291905290205490565b5f61067f611b4f611fba565b6001600160a01b038085165f9081526011929092016020526040909120541690565b6001600160801b031690565b611b8681612130565b611ba557806040516327946f5760e21b815260040161177f9190613178565b50565b611bb0613034565b5f611bb9611fba565b6001600160a01b0385165f908152600882016020908152604080832060038501835281842054600786018452828520600687019094529190932093945061090f938693929088612622565b5f6106ed611c10611fba565b600c015460ff1690565b5f61067f611c26611fba565b836001600160a01b03165f908152600391909101602052604090205490565b5f61067f611c51611fba565b836001600160a01b03165f9081526004919091016020526040902090565b5f61067f611c7e826001613b4d565b611c89906001613b4d565b839060ff161c60011690565b5f61067f602860188080611caa866001613b4d565b611cb5906001613b4d565b611cc0906001613b4d565b611ccb906001613b4d565b611cd6906001613b4d565b611ce1906001613b4d565b611cec906001613b4d565b611cf7906001613b4d565b611d02906001613b4d565b611d0d906001613b4d565b611d18906001613b4d565b611d23906001613b4d565b611d2e906001613b4d565b611d39906001613b4d565b611d44906001613b4d565b611d4f906001613b4d565b611d5a906001613b4d565b611d65906001613b4d565b60ff16611d729190613b66565b611d7c9190613b66565b611d869190613b66565b611d909190613b66565b839060206129ce565b5f6106ed611da5611fba565b60020154600160401b900463ffffffff1690565b5f61067f611dc5611fba565b836001600160a01b03165f908152600e91909101602052604090205490565b5f61067f611df3826001613b4d565b611dfe906001613b4d565b611e09906001613b4d565b611e14906001613b4d565b611e1f906001613b4d565b611e2a906001613b4d565b611e35906001613b4d565b611e40906001613b4d565b611e4b906001613b4d565b611c7e906001613b4d565b5f64174876e800611f32611e6b836001613b4d565b611e76906001613b4d565b611e81906001613b4d565b611e8c906001613b4d565b611e97906001613b4d565b611ea2906001613b4d565b611ead906001613b4d565b611eb8906001613b4d565b611ec3906001613b4d565b611ece906001613b4d565b611ed9906001613b4d565b611ee4906001613b4d565b611eef906001613b4d565b611efa906001613b4d565b611f05906001613b4d565b611f10906001613b4d565b611f1b906001613b4d565b611f26906001613b4d565b849060ff1660186129ce565b61067f9190613b79565b5f61067f611f48611fba565b6001600160a01b038085165f9081526005929092016020526040909120541690565b5f61067f611f766129dc565b836001600160a01b03165f908152600291909101602052604090205490565b5f61067f611fa283611c1a565b6125d0565b5f6106ed611fb3611fba565b6001015490565b7f867cc37b1d81c6898e0381d9834d1320e6a009ceb8f1f455820783856710c6b590565b5f5f611fe983612a00565b509392505050565b5f6001821661067f565b60605f5f336001600160a01b03168585604051612019929190613b90565b5f604051808303815f865af19150503d805f8114612052576040519150601f19603f3d011682016040523d82523d5f602084013e612057565b606091505b50915091508161067b57805160208201fd5b5f6106ed612075611fba565b600d01546001600160a01b031690565b5f6116f06120916129dc565b858585612a55565b5f6117036120a5611fba565b6001600160a01b038086165f908152600f9290920160209081526040808420928716845291905290205490565b5f61067f6120de611fba565b836001600160a01b03165f908152600b91909101602052604090205490565b5f6106ed612109611fba565b600c015461010090046001600160a01b031690565b5f61067f61212b83611c1a565b6125df565b5f61067f61213d83611c1a565b611ff1565b5f61067f61214e611fba565b836001600160a01b03165f9081526006919091016020526040902090565b5f6106ed612178611fba565b60020154600160201b900463ffffffff1690565b612194613090565b6040518061016001604052806121a985612ab1565b151581526020016121b985612ac0565b151581526020016121c985612acf565b151581526020016121d985611de4565b151581526020016121e985612ade565b151581526020016121f985612af8565b1515815260200161220985612b12565b1515815260200161221985612b2c565b1515815260200161222985612b46565b1515815260200161223985612b60565b15158152602001836001600160a01b0316815250905092915050565b5f6106ed612261611fba565b6002015463ffffffff1690565b6122826122796129dc565b85858585612b7a565b50505050565b5f6106ed612294611fba565b5490565b5f61067f6122a4611fba565b836001600160a01b03165f908152601091909101602052604090205490565b5f6122d2611e40826001613b4d565b1592915050565b5f61067f611e35826001613b4d565b5f61067f611e2a826001613b4d565b5f61067f611e1f826001613b4d565b5f64174876e800611f32601861231d846001613b4d565b612328906001613b4d565b612333906001613b4d565b61233e906001613b4d565b612349906001613b4d565b612354906001613b4d565b61235f906001613b4d565b61236a906001613b4d565b612375906001613b4d565b612380906001613b4d565b61238b906001613b4d565b612396906001613b4d565b6123a1906001613b4d565b6123ac906001613b4d565b6123b7906001613b4d565b6123c2906001613b4d565b6123cd906001613b4d565b6123d8906001613b4d565b60ff166123e59190613b66565b849060186129ce565b5f64174876e800611f32601880612406856001613b4d565b612411906001613b4d565b61241c906001613b4d565b612427906001613b4d565b612432906001613b4d565b61243d906001613b4d565b612448906001613b4d565b612453906001613b4d565b61245e906001613b4d565b612469906001613b4d565b612474906001613b4d565b61247f906001613b4d565b61248a906001613b4d565b612495906001613b4d565b6124a0906001613b4d565b6124ab906001613b4d565b6124b6906001613b4d565b6124c1906001613b4d565b60ff166124ce9190613b66565b6123e59190613b66565b5f61067f601880806124eb856001613b4d565b6124f6906001613b4d565b612501906001613b4d565b61250c906001613b4d565b612517906001613b4d565b612522906001613b4d565b61252d906001613b4d565b612538906001613b4d565b612543906001613b4d565b61254e906001613b4d565b612559906001613b4d565b612564906001613b4d565b61256f906001613b4d565b61257a906001613b4d565b612585906001613b4d565b612590906001613b4d565b61259b906001613b4d565b6125a6906001613b4d565b60ff166125b39190613b66565b6125bd9190613b66565b6125c79190613b66565b839060286129ce565b5f61067f611c89826001613b4d565b5f61067f611e4b826001613b4d565b5f6117036125fa6129dc565b6001600160a01b038086165f9081526020928352604080822092871682529190925290205490565b815484875260408051602080840282018101909252828152908490839083018282801561267657602002820191905f5260205f20905b81546001600160a01b03168152600190910190602001808311612658575b50505050508760200181905250806001600160401b0381111561269b5761269b6133a0565b6040519080825280602002602001820160405280156126d457816020015b6126c1613070565b8152602001906001900390816126b95790505b506040880152806001600160401b038111156126f2576126f26133a0565b60405190808252806020026020018201604052801561271b578160200160208202803683370190505b506060880152806001600160401b03811115612739576127396133a0565b604051908082528060200260200182016040528015612762578160200160208202803683370190505b50608088015286516127749082612cba565b60c0880152806001600160401b03811115612791576127916133a0565b6040519080825280602002602001820160405280156127ba578160200160208202803683370190505b5060a088015286515f906127cd906125d0565b80156127e357505f6127e1895f01516123ee565b115b80156127f7575087516127f5906125df565b155b90505f5b828110156129c3575f865f8b60200151848151811061281c5761281c613a3a565b6020908102919091018101516001600160a01b0316825281019190915260409081015f208151606081019092528054829060ff166001811115612861576128616131cf565b6001811115612872576128726131cf565b8152905461010081046001600160a01b0316602080840191909152600160a81b90910460ff1615156040928301525f858152908c905281902054908c015180519293509091839190859081106128ca576128ca613a3a565b60200260200101819052506128de82612d73565b8b60a0015184815181106128f4576128f4613a3a565b6020026020010181815250506129148b8461290e84611b71565b89612e3c565b8315155f036129245750506129bb565b5f826040015180156129485750600183516001811115612946576129466131cf565b145b905080156129b7575f61295d8d5f01516123ee565b90505f8d60600151868151811061297657612976613a3a565b602002602001015190505f6129968f61298f8760801c90565b8986612ef9565b905080156129b3576129b38f886129ad8486613b9f565b8d612e3c565b5050505b5050505b6001016127fb565b505050505050505050565b6001901b5f190191901c1690565b7fee3617e7dec9b55ea0e350adee8432cb30b3be6aa699fe3c87313b503dbc6c1f90565b5f5f5f612a0c84611c1a565b90505f612a1882611c6f565b90505f612a2483611c95565b9050818015612a4a5750612a36611d99565b612a409082613a1e565b63ffffffff164211155b969095509350505050565b5f816001600160a01b0316836001600160a01b031603612a7757505f196116f0565b506001600160a01b038084165f90815260018601602090815260408083208685168452825280832093851683529290522054949350505050565b5f61067f611e09826001613b4d565b5f61067f611e14826001613b4d565b5f61067f611dfe826001613b4d565b5f61067f612aed826001613b4d565b611df3906001613b4d565b5f61067f612b07826001613b4d565b612aed906001613b4d565b5f61067f612b21826001613b4d565b612b07906001613b4d565b5f61067f612b3b826001613b4d565b612b21906001613b4d565b5f61067f612b55826001613b4d565b612b3b906001613b4d565b5f61067f612b6f826001613b4d565b612b55906001613b4d565b6001600160a01b038316612ba3578260405163e602df0560e01b815260040161177f9190613178565b6001600160a01b038216612bcc5781604051634a1406b160e11b815260040161177f9190613178565b6001600160a01b038481165f818152600188016020908152604080832088861680855290835281842095881680855295909252918290208590559051630ad0fe5760e31b8152600481019190915260248101929092526044820183905290635687f2b8906064015f604051808303815f87803b158015612c4a575f5ffd5b505af1925050508015612c5b575060015b50816001600160a01b0316836001600160a01b0316856001600160a01b03167fa0175360a15bca328baf7ea85c7b784d58b222a50d0ce760b10dba336d226a6184604051612cab91815260200190565b60405180910390a45050505050565b60605f826001600160401b03811115612cd557612cd56133a0565b604051908082528060200260200182016040528015612cfe578160200160208202803683370190505b5090505f612d0b856124d8565b64ffffffffff1690505f5b84811015612d69575f612d36612d2d600584613b79565b849060056129ce565b9050612d4381600a613c95565b848381518110612d5557612d55613a3a565b602090810291909101015250600101612d16565b5090949350505050565b80515f9081816001811115612d8a57612d8a6131cf565b03612d9f57670de0b6b3a764000091506106de565b6001816001811115612db357612db36131cf565b03612e235782602001516001600160a01b031663679aefce6040518163ffffffff1660e01b8152600401602060405180830381865afa158015612df8573d5f5f3e3d5ffd5b505050506040513d601f19601f82011682018060405250810190612e1c9190613ca0565b91506106de565b604051636fa2831960e11b815260040160405180910390fd5b8184606001518481518110612e5357612e53613a3a565b60209081029190910101526130eb5f826001811115612e7457612e746131cf565b14612e8157612f8e612e85565b612fa35b9050612ed0838660c001518681518110612ea157612ea1613a3a565b60200260200101518760a001518781518110612ebf57612ebf613a3a565b60200260200101518463ffffffff16565b85608001518581518110612ee657612ee6613a3a565b6020026020010181815250505050505050565b5f5f85608001518481518110612f1157612f11613a3a565b6020026020010151905084811115612f85575f612f3086830385612fb4565b9050612f818760c001518681518110612f4b57612f4b613a3a565b60200260200101518860a001518781518110612f6957612f69613a3a565b602002602001015183612fe09092919063ffffffff16565b9250505b50949350505050565b5f6116f082612f9d8587613b79565b90612ff4565b5f6116f082612fb28587613b79565b905b5f80612fc08385613b79565b90506001670de0b6b3a76400006001830304018115150291505092915050565b5f6116f084612fef8486613b79565b613014565b5f806130008385613b79565b905061067b670de0b6b3a764000082613cb7565b5f80613028670de0b6b3a764000085613b79565b905061067b8382613cb7565b6040518060e001604052805f81526020016060815260200160608152602001606081526020016060815260200160608152602001606081525090565b6040805160608101909152805f81525f6020820181905260409091015290565b60408051610160810182525f80825260208201819052918101829052606081018290526080810182905260a0810182905260c0810182905260e081018290526101008101829052610120810182905261014081019190915290565b6130f3613cd6565b565b6001600160a01b0381168114611ba5575f5ffd5b8035613114816130f5565b919050565b5f5f6040838503121561312a575f5ffd5b8235613135816130f5565b91506020830135613145816130f5565b809150509250929050565b5f60208284031215613160575f5ffd5b8135611703816130f5565b6001600160a01b03169052565b6001600160a01b0391909116815260200190565b5f8151808452602084019350602083015f5b828110156131c55781516001600160a01b031686526020958601959091019060010161319e565b5093949350505050565b634e487b7160e01b5f52602160045260245ffd5b60028110611ba557634e487b7160e01b5f52602160045260245ffd5b5f815161320b816131e3565b8352506020818101516001600160a01b03169083015260409081015115159082015260600190565b5f8151808452602084019350602083015f5b828110156131c5576132588683516131ff565b955060209190910190600101613245565b5f8151808452602084019350602083015f5b828110156131c557815186526020958601959091019060010161327b565b60208152815160208201525f602083015160e060408401526132bf61010084018261318c565b90506040840151601f198483030160608501526132dc8282613233565b9150506060840151601f198483030160808501526132fa8282613269565b9150506080840151601f198483030160a08501526133188282613269565b91505060a0840151601f198483030160c08501526133368282613269565b91505060c0840151601f198483030160e08501526118828282613269565b5f8151808452602084019350602083015f5b828110156131c55781516001600160e01b031916865260209586019590910190600101613366565b602081525f6117036020830184613354565b634e487b7160e01b5f52604160045260245ffd5b60405160e081016001600160401b03811182821017156133d6576133d66133a0565b60405290565b604051601f8201601f191681016001600160401b0381118282101715613404576134046133a0565b604052919050565b803560028110613114575f5ffd5b5f82601f830112613429575f5ffd5b81356001600160401b03811115613442576134426133a0565b8060051b613452602082016133dc565b9182526020818501810192908101908684111561346d575f5ffd5b6020860192505b8383101561348f578235825260209283019290910190613474565b9695505050505050565b5f82601f8301126134a8575f5ffd5b81356001600160401b038111156134c1576134c16133a0565b6134d4601f8201601f19166020016133dc565b8181528460208386010111156134e8575f5ffd5b816020850160208301375f918101602001919091529392505050565b5f5f60408385031215613515575f5ffd5b8235613520816130f5565b915060208301356001600160401b0381111561353a575f5ffd5b830160e0818603121561354b575f5ffd5b6135536133b4565b61355c8261340c565b81526020828101359082015260408201356001600160401b03811115613580575f5ffd5b61358c8782850161341a565b60408301525060608281013590820152608080830135908201526135b260a08301613109565b60a082015260c08201356001600160401b038111156135cf575f5ffd5b6135db87828501613499565b60c08301525080925050509250929050565b602081525f6117036020830184613269565b5f81518084528060208401602086015e5f602082860101526020601f19601f83011685010191505092915050565b602081525f61170360208301846135ff565b608081525f613651608083018761318c565b82810360208401528086518083526020830191506020880192505f5b81811015613691576136808385516131ff565b60209490940193925060010161366d565b505083810360408501526136a58187613269565b91505082810360608401526136ba8185613269565b979650505050505050565b5f5f83601f8401126136d5575f5ffd5b5081356001600160401b038111156136eb575f5ffd5b6020830191508360208285010111156106b7575f5ffd5b5f5f60208385031215613713575f5ffd5b82356001600160401b03811115613728575f5ffd5b613734858286016136c5565b90969095509350505050565b604081525f6137526040830185613269565b82810360208401526118828185613269565b5f5f5f60608486031215613776575f5ffd5b8335613781816130f5565b92506020840135613791816130f5565b915060408401356137a1816130f5565b809150509250925092565b5f5f5f604084860312156137be575f5ffd5b8335925060208401356001600160401b038111156137da575f5ffd5b6137e6868287016136c5565b9497909650939450505050565b602081525f611703602083018461318c565b81511515815261016081016020830151613823602084018215159052565b506040830151613837604084018215159052565b50606083015161384b606084018215159052565b50608083015161385f608084018215159052565b5060a083015161387360a084018215159052565b5060c083015161388760c084018215159052565b5060e083015161389b60e084018215159052565b506101008301516138b161010084018215159052565b506101208301516138c761012084018215159052565b5061014083015161090f61014084018261316b565b5f5f5f606084860312156138ee575f5ffd5b83356138f9816130f5565b92506020840135613909816130f5565b929592945050506040919091013590565b606081525f61392c60608301866135ff565b828103602084015261393e8186613354565b9050828103604084015261348f8185613354565b81518051151582526020808201511515908301526040808201511515908301526060908101511515908201526101a0810160208301516080830152604083015160a0830152606083015160c083015260808301516139b960e084018264ffffffffff169052565b5060a083015163ffffffff166101008381019190915260c084015115156101208085019190915260e0850151151561014085015290840151151561016084015283015180151561018084015261090f565b634e487b7160e01b5f52601160045260245ffd5b63ffffffff818116838216019081111561067f5761067f613a0a565b634e487b7160e01b5f52603260045260245ffd5b606081525f8451613a5e816131e3565b606083015260208501516080830152604085015160e060a0840152613a87610140840182613269565b606087015160c085810191909152608088015160e086015260a08801516001600160a01b0316610100860152870151848203605f1901610120860152909150613ad082826135ff565b92505050613ae1602083018561316b565b826040830152949350505050565b5f5f60408385031215613b00575f5ffd5b82518015158114613b0f575f5ffd5b6020939093015192949293505050565b60208152816020820152818360408301375f818301604090810191909152601f909201601f19160101919050565b60ff818116838216019081111561067f5761067f613a0a565b8082018082111561067f5761067f613a0a565b808202811582820484141761067f5761067f613a0a565b818382375f9101908152919050565b8181038181111561067f5761067f613a0a565b6001815b6001841115613bed57808504811115613bd157613bd1613a0a565b6001841615613bdf57908102905b60019390931c928002613bb6565b935093915050565b5f82613c035750600161067f565b81613c0f57505f61067f565b8160018114613c255760028114613c2f57613c4b565b600191505061067f565b60ff841115613c4057613c40613a0a565b50506001821b61067f565b5060208310610133831016604e8410600b8410161715613c6e575081810a61067f565b613c7a5f198484613bb2565b805f1904821115613c8d57613c8d613a0a565b029392505050565b5f6117038383613bf5565b5f60208284031215613cb0575f5ffd5b5051919050565b5f82613cd157634e487b7160e01b5f52601260045260245ffd5b500490565b634e487b7160e01b5f52605160045260245ffdfea2646970667358221220b811a7ed9bf36398e84c0d37a4ed5aadaa4e92f2469c03f18f86c47046d0591d64736f6c634300081e0033","linkReferences":{}},"methodIdentifiers":{"allowance(address,address,address)":"927da105","approve(address,address,uint256)":"e1f21c67","balanceOf(address,address)":"f7888aec","computeDynamicSwapFeePercentage(address,(uint8,uint256,uint256[],uint256,uint256,address,bytes))":"4d472bdd","emitAuxiliaryEvent(bytes32,bytes)":"c8088247","facetFuncs()":"574a4cff","facetInterfaces()":"2ea80826","facetMetadata()":"f10d7a75","facetName()":"5b6f4d01","getAggregateSwapAndYieldFeeAmounts(address,address)":"0f8a06ac","getAggregateSwapFeeAmount(address,address)":"85e0b999","getAggregateYieldFeeAmount(address,address)":"00fdfa13","getAuthorizer()":"aaabadc5","getBptRate(address)":"4f037ee7","getBufferAsset(address)":"0387587d","getBufferBalance(address)":"4021fe0f","getBufferOwnerShares(address,address)":"9385e39a","getBufferPeriodDuration()":"20c1fb7a","getBufferPeriodEndTime()":"cd51c12f","getBufferTotalShares(address)":"f2784e07","getCurrentLiveBalances(address)":"535cfd8a","getERC4626BufferAsset(address)":"4afbaf5a","getHooksConfig(address)":"ce8630d4","getHooksContract(address)":"a52ad3a2","getMinimumTradeAmount()":"e2cb0ba0","getMinimumWrapAmount()":"53956aa2","getPoolConfig(address)":"f29486a1","getPoolData(address)":"13d21cdf","getPoolPausedState(address)":"15e32046","getPoolRoleAccounts(address)":"e9ddeb26","getPoolTokenInfo(address)":"67e0e076","getPoolTokenRates(address)":"7e361bde","getPoolTokens(address)":"ca4f2803","getProtocolFeeController()":"85f2dbd4","getReservesOf(address)":"96787092","getStaticSwapFeePercentage(address)":"b45090f9","getVaultAdmin()":"1ba0ae45","getVaultExtension()":"b9a8effa","getVaultPauseWindowEndTime()":"d0c0c5b2","isERC4626BufferInitialized(address)":"6844846b","isPoolInRecoveryMode(address)":"be7d628a","isPoolInitialized(address)":"532cec7c","isPoolPaused(address)":"6c9bc732","isPoolRegistered(address)":"c673bdaf","isQueryDisabledPermanently()":"13ef8a5d","quote(bytes)":"edfa3568","quoteAndRevert(bytes)":"757d64b3","totalSupply(address)":"e4dc2aa4","vault()":"fbfa77cf"},"id":117}