{"abi":[{"type":"function","name":"allowance","inputs":[{"name":"token","type":"address","internalType":"address"},{"name":"owner","type":"address","internalType":"address"},{"name":"spender","type":"address","internalType":"address"}],"outputs":[{"name":"","type":"uint256","internalType":"uint256"}],"stateMutability":"view"},{"type":"function","name":"approve","inputs":[{"name":"owner","type":"address","internalType":"address"},{"name":"spender","type":"address","internalType":"address"},{"name":"amount","type":"uint256","internalType":"uint256"}],"outputs":[{"name":"","type":"bool","internalType":"bool"}],"stateMutability":"nonpayable"},{"type":"function","name":"balanceOf","inputs":[{"name":"pool","type":"address","internalType":"address"},{"name":"account","type":"address","internalType":"address"}],"outputs":[{"name":"","type":"uint256","internalType":"uint256"}],"stateMutability":"view"},{"type":"function","name":"computeDynamicSwapFeePercentage","inputs":[{"name":"pool","type":"address","internalType":"address"},{"name":"swapParams","type":"tuple","internalType":"struct PoolSwapParams","components":[{"name":"kind","type":"uint8","internalType":"enum SwapKind"},{"name":"amountGivenScaled18","type":"uint256","internalType":"uint256"},{"name":"balancesScaled18","type":"uint256[]","internalType":"uint256[]"},{"name":"indexIn","type":"uint256","internalType":"uint256"},{"name":"indexOut","type":"uint256","internalType":"uint256"},{"name":"router","type":"address","internalType":"address"},{"name":"userData","type":"bytes","internalType":"bytes"}]}],"outputs":[{"name":"dynamicSwapFeePercentage","type":"uint256","internalType":"uint256"}],"stateMutability":"view"},{"type":"function","name":"emitAuxiliaryEvent","inputs":[{"name":"eventKey","type":"bytes32","internalType":"bytes32"},{"name":"eventData","type":"bytes","internalType":"bytes"}],"outputs":[],"stateMutability":"nonpayable"},{"type":"function","name":"facetFuncs","inputs":[],"outputs":[{"name":"funcs","type":"bytes4[]","internalType":"bytes4[]"}],"stateMutability":"pure"},{"type":"function","name":"facetInterfaces","inputs":[],"outputs":[{"name":"interfaces","type":"bytes4[]","internalType":"bytes4[]"}],"stateMutability":"pure"},{"type":"function","name":"facetMetadata","inputs":[],"outputs":[{"name":"name_","type":"string","internalType":"string"},{"name":"interfaces","type":"bytes4[]","internalType":"bytes4[]"},{"name":"functions","type":"bytes4[]","internalType":"bytes4[]"}],"stateMutability":"pure"},{"type":"function","name":"facetName","inputs":[],"outputs":[{"name":"name","type":"string","internalType":"string"}],"stateMutability":"pure"},{"type":"function","name":"getAggregateSwapAndYieldFeeAmounts","inputs":[{"name":"pool","type":"address","internalType":"address"},{"name":"token","type":"address","internalType":"contract IERC20"}],"outputs":[{"name":"swapFeeAmount","type":"uint256","internalType":"uint256"},{"name":"yieldFeeAmount","type":"uint256","internalType":"uint256"}],"stateMutability":"view"},{"type":"function","name":"getAggregateSwapFeeAmount","inputs":[{"name":"pool","type":"address","internalType":"address"},{"name":"token","type":"address","internalType":"contract IERC20"}],"outputs":[{"name":"","type":"uint256","internalType":"uint256"}],"stateMutability":"view"},{"type":"function","name":"getAggregateYieldFeeAmount","inputs":[{"name":"pool","type":"address","internalType":"address"},{"name":"token","type":"address","internalType":"contract IERC20"}],"outputs":[{"name":"","type":"uint256","internalType":"uint256"}],"stateMutability":"view"},{"type":"function","name":"getAuthorizer","inputs":[],"outputs":[{"name":"","type":"address","internalType":"contract IAuthorizer"}],"stateMutability":"view"},{"type":"function","name":"getBptRate","inputs":[{"name":"pool","type":"address","internalType":"address"}],"outputs":[{"name":"","type":"uint256","internalType":"uint256"}],"stateMutability":"view"},{"type":"function","name":"getBufferAsset","inputs":[{"name":"wrappedToken","type":"address","internalType":"contract IERC4626"}],"outputs":[{"name":"","type":"address","internalType":"address"}],"stateMutability":"view"},{"type":"function","name":"getBufferBalance","inputs":[{"name":"wrappedToken","type":"address","internalType":"contract IERC4626"}],"outputs":[{"name":"underlyingBalance","type":"uint256","internalType":"uint256"},{"name":"wrappedBalance","type":"uint256","internalType":"uint256"}],"stateMutability":"view"},{"type":"function","name":"getBufferOwnerShares","inputs":[{"name":"wrappedToken","type":"address","internalType":"contract IERC4626"},{"name":"user","type":"address","internalType":"address"}],"outputs":[{"name":"","type":"uint256","internalType":"uint256"}],"stateMutability":"view"},{"type":"function","name":"getBufferPeriodDuration","inputs":[],"outputs":[{"name":"","type":"uint32","internalType":"uint32"}],"stateMutability":"view"},{"type":"function","name":"getBufferPeriodEndTime","inputs":[],"outputs":[{"name":"","type":"uint32","internalType":"uint32"}],"stateMutability":"view"},{"type":"function","name":"getBufferTotalShares","inputs":[{"name":"wrappedToken","type":"address","internalType":"contract IERC4626"}],"outputs":[{"name":"","type":"uint256","internalType":"uint256"}],"stateMutability":"view"},{"type":"function","name":"getCurrentLiveBalances","inputs":[{"name":"pool","type":"address","internalType":"address"}],"outputs":[{"name":"balancesLiveScaled18","type":"uint256[]","internalType":"uint256[]"}],"stateMutability":"view"},{"type":"function","name":"getERC4626BufferAsset","inputs":[{"name":"wrappedToken","type":"address","internalType":"contract IERC4626"}],"outputs":[{"name":"","type":"address","internalType":"address"}],"stateMutability":"view"},{"type":"function","name":"getHooksConfig","inputs":[{"name":"pool","type":"address","internalType":"address"}],"outputs":[{"name":"","type":"tuple","internalType":"struct HooksConfig","components":[{"name":"enableHookAdjustedAmounts","type":"bool","internalType":"bool"},{"name":"shouldCallBeforeInitialize","type":"bool","internalType":"bool"},{"name":"shouldCallAfterInitialize","type":"bool","internalType":"bool"},{"name":"shouldCallComputeDynamicSwapFee","type":"bool","internalType":"bool"},{"name":"shouldCallBeforeSwap","type":"bool","internalType":"bool"},{"name":"shouldCallAfterSwap","type":"bool","internalType":"bool"},{"name":"shouldCallBeforeAddLiquidity","type":"bool","internalType":"bool"},{"name":"shouldCallAfterAddLiquidity","type":"bool","internalType":"bool"},{"name":"shouldCallBeforeRemoveLiquidity","type":"bool","internalType":"bool"},{"name":"shouldCallAfterRemoveLiquidity","type":"bool","internalType":"bool"},{"name":"hooksContract","type":"address","internalType":"address"}]}],"stateMutability":"view"},{"type":"function","name":"getHooksContract","inputs":[{"name":"pool","type":"address","internalType":"address"}],"outputs":[{"name":"hooksContract","type":"address","internalType":"contract IHooks"}],"stateMutability":"view"},{"type":"function","name":"getMinimumTradeAmount","inputs":[],"outputs":[{"name":"","type":"uint256","internalType":"uint256"}],"stateMutability":"view"},{"type":"function","name":"getMinimumWrapAmount","inputs":[],"outputs":[{"name":"","type":"uint256","internalType":"uint256"}],"stateMutability":"view"},{"type":"function","name":"getPoolConfig","inputs":[{"name":"pool","type":"address","internalType":"address"}],"outputs":[{"name":"","type":"tuple","internalType":"struct PoolConfig","components":[{"name":"liquidityManagement","type":"tuple","internalType":"struct LiquidityManagement","components":[{"name":"disableUnbalancedLiquidity","type":"bool","internalType":"bool"},{"name":"enableAddLiquidityCustom","type":"bool","internalType":"bool"},{"name":"enableRemoveLiquidityCustom","type":"bool","internalType":"bool"},{"name":"enableDonation","type":"bool","internalType":"bool"}]},{"name":"staticSwapFeePercentage","type":"uint256","internalType":"uint256"},{"name":"aggregateSwapFeePercentage","type":"uint256","internalType":"uint256"},{"name":"aggregateYieldFeePercentage","type":"uint256","internalType":"uint256"},{"name":"tokenDecimalDiffs","type":"uint40","internalType":"uint40"},{"name":"pauseWindowEndTime","type":"uint32","internalType":"uint32"},{"name":"isPoolRegistered","type":"bool","internalType":"bool"},{"name":"isPoolInitialized","type":"bool","internalType":"bool"},{"name":"isPoolPaused","type":"bool","internalType":"bool"},{"name":"isPoolInRecoveryMode","type":"bool","internalType":"bool"}]}],"stateMutability":"view"},{"type":"function","name":"getPoolData","inputs":[{"name":"pool","type":"address","internalType":"address"}],"outputs":[{"name":"","type":"tuple","internalType":"struct PoolData","components":[{"name":"poolConfigBits","type":"bytes32","internalType":"PoolConfigBits"},{"name":"tokens","type":"address[]","internalType":"contract IERC20[]"},{"name":"tokenInfo","type":"tuple[]","internalType":"struct TokenInfo[]","components":[{"name":"tokenType","type":"uint8","internalType":"enum TokenType"},{"name":"rateProvider","type":"address","internalType":"contract IRateProvider"},{"name":"paysYieldFees","type":"bool","internalType":"bool"}]},{"name":"balancesRaw","type":"uint256[]","internalType":"uint256[]"},{"name":"balancesLiveScaled18","type":"uint256[]","internalType":"uint256[]"},{"name":"tokenRates","type":"uint256[]","internalType":"uint256[]"},{"name":"decimalScalingFactors","type":"uint256[]","internalType":"uint256[]"}]}],"stateMutability":"view"},{"type":"function","name":"getPoolPausedState","inputs":[{"name":"pool","type":"address","internalType":"address"}],"outputs":[{"name":"poolPaused","type":"bool","internalType":"bool"},{"name":"poolPauseWindowEndTime","type":"uint32","internalType":"uint32"},{"name":"poolBufferPeriodEndTime","type":"uint32","internalType":"uint32"},{"name":"pauseManager","type":"address","internalType":"address"}],"stateMutability":"view"},{"type":"function","name":"getPoolRoleAccounts","inputs":[{"name":"pool","type":"address","internalType":"address"}],"outputs":[{"name":"","type":"tuple","internalType":"struct PoolRoleAccounts","components":[{"name":"pauseManager","type":"address","internalType":"address"},{"name":"swapFeeManager","type":"address","internalType":"address"},{"name":"poolCreator","type":"address","internalType":"address"}]}],"stateMutability":"view"},{"type":"function","name":"getPoolTokenInfo","inputs":[{"name":"pool","type":"address","internalType":"address"}],"outputs":[{"name":"tokens","type":"address[]","internalType":"contract IERC20[]"},{"name":"tokenInfo","type":"tuple[]","internalType":"struct TokenInfo[]","components":[{"name":"tokenType","type":"uint8","internalType":"enum TokenType"},{"name":"rateProvider","type":"address","internalType":"contract IRateProvider"},{"name":"paysYieldFees","type":"bool","internalType":"bool"}]},{"name":"balancesRaw","type":"uint256[]","internalType":"uint256[]"},{"name":"lastBalancesLiveScaled18","type":"uint256[]","internalType":"uint256[]"}],"stateMutability":"view"},{"type":"function","name":"getPoolTokenRates","inputs":[{"name":"pool","type":"address","internalType":"address"}],"outputs":[{"name":"decimalScalingFactors","type":"uint256[]","internalType":"uint256[]"},{"name":"tokenRates","type":"uint256[]","internalType":"uint256[]"}],"stateMutability":"view"},{"type":"function","name":"getPoolTokens","inputs":[{"name":"pool","type":"address","internalType":"address"}],"outputs":[{"name":"tokens","type":"address[]","internalType":"contract IERC20[]"}],"stateMutability":"view"},{"type":"function","name":"getProtocolFeeController","inputs":[],"outputs":[{"name":"","type":"address","internalType":"contract IProtocolFeeController"}],"stateMutability":"view"},{"type":"function","name":"getReservesOf","inputs":[{"name":"token","type":"address","internalType":"contract IERC20"}],"outputs":[{"name":"","type":"uint256","internalType":"uint256"}],"stateMutability":"view"},{"type":"function","name":"getStaticSwapFeePercentage","inputs":[{"name":"pool","type":"address","internalType":"address"}],"outputs":[{"name":"","type":"uint256","internalType":"uint256"}],"stateMutability":"view"},{"type":"function","name":"getVaultAdmin","inputs":[],"outputs":[{"name":"","type":"address","internalType":"address"}],"stateMutability":"view"},{"type":"function","name":"getVaultExtension","inputs":[],"outputs":[{"name":"","type":"address","internalType":"address"}],"stateMutability":"view"},{"type":"function","name":"getVaultPauseWindowEndTime","inputs":[],"outputs":[{"name":"","type":"uint32","internalType":"uint32"}],"stateMutability":"view"},{"type":"function","name":"isERC4626BufferInitialized","inputs":[{"name":"wrappedToken","type":"address","internalType":"contract IERC4626"}],"outputs":[{"name":"","type":"bool","internalType":"bool"}],"stateMutability":"view"},{"type":"function","name":"isPoolInRecoveryMode","inputs":[{"name":"pool","type":"address","internalType":"address"}],"outputs":[{"name":"","type":"bool","internalType":"bool"}],"stateMutability":"view"},{"type":"function","name":"isPoolInitialized","inputs":[{"name":"pool","type":"address","internalType":"address"}],"outputs":[{"name":"","type":"bool","internalType":"bool"}],"stateMutability":"view"},{"type":"function","name":"isPoolPaused","inputs":[{"name":"pool","type":"address","internalType":"address"}],"outputs":[{"name":"","type":"bool","internalType":"bool"}],"stateMutability":"view"},{"type":"function","name":"isPoolRegistered","inputs":[{"name":"pool","type":"address","internalType":"address"}],"outputs":[{"name":"","type":"bool","internalType":"bool"}],"stateMutability":"view"},{"type":"function","name":"isQueryDisabled","inputs":[],"outputs":[{"name":"","type":"bool","internalType":"bool"}],"stateMutability":"view"},{"type":"function","name":"isQueryDisabledPermanently","inputs":[],"outputs":[{"name":"","type":"bool","internalType":"bool"}],"stateMutability":"view"},{"type":"function","name":"isVaultPaused","inputs":[],"outputs":[{"name":"","type":"bool","internalType":"bool"}],"stateMutability":"view"},{"type":"function","name":"quote","inputs":[{"name":"data","type":"bytes","internalType":"bytes"}],"outputs":[{"name":"result","type":"bytes","internalType":"bytes"}],"stateMutability":"nonpayable"},{"type":"function","name":"quoteAndRevert","inputs":[{"name":"data","type":"bytes","internalType":"bytes"}],"outputs":[],"stateMutability":"nonpayable"},{"type":"function","name":"totalSupply","inputs":[{"name":"pool","type":"address","internalType":"address"}],"outputs":[{"name":"","type":"uint256","internalType":"uint256"}],"stateMutability":"view"},{"type":"function","name":"vault","inputs":[],"outputs":[{"name":"","type":"address","internalType":"address"}],"stateMutability":"view"},{"type":"event","name":"AggregateSwapFeePercentageChanged","inputs":[{"name":"pool","type":"address","indexed":true,"internalType":"address"},{"name":"aggregateSwapFeePercentage","type":"uint256","indexed":false,"internalType":"uint256"}],"anonymous":false},{"type":"event","name":"AggregateYieldFeePercentageChanged","inputs":[{"name":"pool","type":"address","indexed":true,"internalType":"address"},{"name":"aggregateYieldFeePercentage","type":"uint256","indexed":false,"internalType":"uint256"}],"anonymous":false},{"type":"event","name":"Approval","inputs":[{"name":"pool","type":"address","indexed":true,"internalType":"address"},{"name":"owner","type":"address","indexed":true,"internalType":"address"},{"name":"spender","type":"address","indexed":true,"internalType":"address"},{"name":"value","type":"uint256","indexed":false,"internalType":"uint256"}],"anonymous":false},{"type":"event","name":"AuthorizerChanged","inputs":[{"name":"newAuthorizer","type":"address","indexed":true,"internalType":"contract IAuthorizer"}],"anonymous":false},{"type":"event","name":"BufferSharesBurned","inputs":[{"name":"wrappedToken","type":"address","indexed":true,"internalType":"contract IERC4626"},{"name":"from","type":"address","indexed":true,"internalType":"address"},{"name":"burnedShares","type":"uint256","indexed":false,"internalType":"uint256"}],"anonymous":false},{"type":"event","name":"BufferSharesMinted","inputs":[{"name":"wrappedToken","type":"address","indexed":true,"internalType":"contract IERC4626"},{"name":"to","type":"address","indexed":true,"internalType":"address"},{"name":"issuedShares","type":"uint256","indexed":false,"internalType":"uint256"}],"anonymous":false},{"type":"event","name":"LiquidityAdded","inputs":[{"name":"pool","type":"address","indexed":true,"internalType":"address"},{"name":"liquidityProvider","type":"address","indexed":true,"internalType":"address"},{"name":"kind","type":"uint8","indexed":true,"internalType":"enum AddLiquidityKind"},{"name":"totalSupply","type":"uint256","indexed":false,"internalType":"uint256"},{"name":"amountsAddedRaw","type":"uint256[]","indexed":false,"internalType":"uint256[]"},{"name":"swapFeeAmountsRaw","type":"uint256[]","indexed":false,"internalType":"uint256[]"}],"anonymous":false},{"type":"event","name":"LiquidityAddedToBuffer","inputs":[{"name":"wrappedToken","type":"address","indexed":true,"internalType":"contract IERC4626"},{"name":"amountUnderlying","type":"uint256","indexed":false,"internalType":"uint256"},{"name":"amountWrapped","type":"uint256","indexed":false,"internalType":"uint256"},{"name":"bufferBalances","type":"bytes32","indexed":false,"internalType":"bytes32"}],"anonymous":false},{"type":"event","name":"LiquidityRemoved","inputs":[{"name":"pool","type":"address","indexed":true,"internalType":"address"},{"name":"liquidityProvider","type":"address","indexed":true,"internalType":"address"},{"name":"kind","type":"uint8","indexed":true,"internalType":"enum RemoveLiquidityKind"},{"name":"totalSupply","type":"uint256","indexed":false,"internalType":"uint256"},{"name":"amountsRemovedRaw","type":"uint256[]","indexed":false,"internalType":"uint256[]"},{"name":"swapFeeAmountsRaw","type":"uint256[]","indexed":false,"internalType":"uint256[]"}],"anonymous":false},{"type":"event","name":"LiquidityRemovedFromBuffer","inputs":[{"name":"wrappedToken","type":"address","indexed":true,"internalType":"contract IERC4626"},{"name":"amountUnderlying","type":"uint256","indexed":false,"internalType":"uint256"},{"name":"amountWrapped","type":"uint256","indexed":false,"internalType":"uint256"},{"name":"bufferBalances","type":"bytes32","indexed":false,"internalType":"bytes32"}],"anonymous":false},{"type":"event","name":"PoolInitialized","inputs":[{"name":"pool","type":"address","indexed":true,"internalType":"address"}],"anonymous":false},{"type":"event","name":"PoolPausedStateChanged","inputs":[{"name":"pool","type":"address","indexed":true,"internalType":"address"},{"name":"paused","type":"bool","indexed":false,"internalType":"bool"}],"anonymous":false},{"type":"event","name":"PoolRecoveryModeStateChanged","inputs":[{"name":"pool","type":"address","indexed":true,"internalType":"address"},{"name":"recoveryMode","type":"bool","indexed":false,"internalType":"bool"}],"anonymous":false},{"type":"event","name":"PoolRegistered","inputs":[{"name":"pool","type":"address","indexed":true,"internalType":"address"},{"name":"factory","type":"address","indexed":true,"internalType":"address"},{"name":"tokenConfig","type":"tuple[]","indexed":false,"internalType":"struct TokenConfig[]","components":[{"name":"token","type":"address","internalType":"contract IERC20"},{"name":"tokenType","type":"uint8","internalType":"enum TokenType"},{"name":"rateProvider","type":"address","internalType":"contract IRateProvider"},{"name":"paysYieldFees","type":"bool","internalType":"bool"}]},{"name":"swapFeePercentage","type":"uint256","indexed":false,"internalType":"uint256"},{"name":"pauseWindowEndTime","type":"uint32","indexed":false,"internalType":"uint32"},{"name":"roleAccounts","type":"tuple","indexed":false,"internalType":"struct PoolRoleAccounts","components":[{"name":"pauseManager","type":"address","internalType":"address"},{"name":"swapFeeManager","type":"address","internalType":"address"},{"name":"poolCreator","type":"address","internalType":"address"}]},{"name":"hooksConfig","type":"tuple","indexed":false,"internalType":"struct HooksConfig","components":[{"name":"enableHookAdjustedAmounts","type":"bool","internalType":"bool"},{"name":"shouldCallBeforeInitialize","type":"bool","internalType":"bool"},{"name":"shouldCallAfterInitialize","type":"bool","internalType":"bool"},{"name":"shouldCallComputeDynamicSwapFee","type":"bool","internalType":"bool"},{"name":"shouldCallBeforeSwap","type":"bool","internalType":"bool"},{"name":"shouldCallAfterSwap","type":"bool","internalType":"bool"},{"name":"shouldCallBeforeAddLiquidity","type":"bool","internalType":"bool"},{"name":"shouldCallAfterAddLiquidity","type":"bool","internalType":"bool"},{"name":"shouldCallBeforeRemoveLiquidity","type":"bool","internalType":"bool"},{"name":"shouldCallAfterRemoveLiquidity","type":"bool","internalType":"bool"},{"name":"hooksContract","type":"address","internalType":"address"}]},{"name":"liquidityManagement","type":"tuple","indexed":false,"internalType":"struct LiquidityManagement","components":[{"name":"disableUnbalancedLiquidity","type":"bool","internalType":"bool"},{"name":"enableAddLiquidityCustom","type":"bool","internalType":"bool"},{"name":"enableRemoveLiquidityCustom","type":"bool","internalType":"bool"},{"name":"enableDonation","type":"bool","internalType":"bool"}]}],"anonymous":false},{"type":"event","name":"ProtocolFeeControllerChanged","inputs":[{"name":"newProtocolFeeController","type":"address","indexed":true,"internalType":"contract IProtocolFeeController"}],"anonymous":false},{"type":"event","name":"Swap","inputs":[{"name":"pool","type":"address","indexed":true,"internalType":"address"},{"name":"tokenIn","type":"address","indexed":true,"internalType":"contract IERC20"},{"name":"tokenOut","type":"address","indexed":true,"internalType":"contract IERC20"},{"name":"amountIn","type":"uint256","indexed":false,"internalType":"uint256"},{"name":"amountOut","type":"uint256","indexed":false,"internalType":"uint256"},{"name":"swapFeePercentage","type":"uint256","indexed":false,"internalType":"uint256"},{"name":"swapFeeAmount","type":"uint256","indexed":false,"internalType":"uint256"}],"anonymous":false},{"type":"event","name":"SwapFeePercentageChanged","inputs":[{"name":"pool","type":"address","indexed":true,"internalType":"address"},{"name":"swapFeePercentage","type":"uint256","indexed":false,"internalType":"uint256"}],"anonymous":false},{"type":"event","name":"Unwrap","inputs":[{"name":"wrappedToken","type":"address","indexed":true,"internalType":"contract IERC4626"},{"name":"burnedShares","type":"uint256","indexed":false,"internalType":"uint256"},{"name":"withdrawnUnderlying","type":"uint256","indexed":false,"internalType":"uint256"},{"name":"bufferBalances","type":"bytes32","indexed":false,"internalType":"bytes32"}],"anonymous":false},{"type":"event","name":"VaultAuxiliary","inputs":[{"name":"pool","type":"address","indexed":true,"internalType":"address"},{"name":"eventKey","type":"bytes32","indexed":true,"internalType":"bytes32"},{"name":"eventData","type":"bytes","indexed":false,"internalType":"bytes"}],"anonymous":false},{"type":"event","name":"VaultBuffersPausedStateChanged","inputs":[{"name":"paused","type":"bool","indexed":false,"internalType":"bool"}],"anonymous":false},{"type":"event","name":"VaultPausedStateChanged","inputs":[{"name":"paused","type":"bool","indexed":false,"internalType":"bool"}],"anonymous":false},{"type":"event","name":"VaultQueriesDisabled","inputs":[],"anonymous":false},{"type":"event","name":"VaultQueriesEnabled","inputs":[],"anonymous":false},{"type":"event","name":"Wrap","inputs":[{"name":"wrappedToken","type":"address","indexed":true,"internalType":"contract IERC4626"},{"name":"depositedUnderlying","type":"uint256","indexed":false,"internalType":"uint256"},{"name":"mintedShares","type":"uint256","indexed":false,"internalType":"uint256"},{"name":"bufferBalances","type":"bytes32","indexed":false,"internalType":"bytes32"}],"anonymous":false},{"type":"error","name":"AfterAddLiquidityHookFailed","inputs":[]},{"type":"error","name":"AfterInitializeHookFailed","inputs":[]},{"type":"error","name":"AfterRemoveLiquidityHookFailed","inputs":[]},{"type":"error","name":"AfterSwapHookFailed","inputs":[]},{"type":"error","name":"AmountGivenZero","inputs":[]},{"type":"error","name":"AmountInAboveMax","inputs":[{"name":"tokenIn","type":"address","internalType":"contract IERC20"},{"name":"amountIn","type":"uint256","internalType":"uint256"},{"name":"maxAmountIn","type":"uint256","internalType":"uint256"}]},{"type":"error","name":"AmountOutBelowMin","inputs":[{"name":"tokenOut","type":"address","internalType":"contract IERC20"},{"name":"amountOut","type":"uint256","internalType":"uint256"},{"name":"minAmountOut","type":"uint256","internalType":"uint256"}]},{"type":"error","name":"BalanceNotSettled","inputs":[]},{"type":"error","name":"BeforeAddLiquidityHookFailed","inputs":[]},{"type":"error","name":"BeforeInitializeHookFailed","inputs":[]},{"type":"error","name":"BeforeRemoveLiquidityHookFailed","inputs":[]},{"type":"error","name":"BeforeSwapHookFailed","inputs":[]},{"type":"error","name":"BptAmountInAboveMax","inputs":[{"name":"amountIn","type":"uint256","internalType":"uint256"},{"name":"maxAmountIn","type":"uint256","internalType":"uint256"}]},{"type":"error","name":"BptAmountOutBelowMin","inputs":[{"name":"amountOut","type":"uint256","internalType":"uint256"},{"name":"minAmountOut","type":"uint256","internalType":"uint256"}]},{"type":"error","name":"BufferAlreadyInitialized","inputs":[{"name":"wrappedToken","type":"address","internalType":"contract IERC4626"}]},{"type":"error","name":"BufferNotInitialized","inputs":[{"name":"wrappedToken","type":"address","internalType":"contract IERC4626"}]},{"type":"error","name":"BufferSharesInvalidOwner","inputs":[]},{"type":"error","name":"BufferSharesInvalidReceiver","inputs":[]},{"type":"error","name":"BufferTotalSupplyTooLow","inputs":[{"name":"totalSupply","type":"uint256","internalType":"uint256"}]},{"type":"error","name":"CannotReceiveEth","inputs":[]},{"type":"error","name":"CannotSwapSameToken","inputs":[]},{"type":"error","name":"DoesNotSupportAddLiquidityCustom","inputs":[]},{"type":"error","name":"DoesNotSupportDonation","inputs":[]},{"type":"error","name":"DoesNotSupportRemoveLiquidityCustom","inputs":[]},{"type":"error","name":"DoesNotSupportUnbalancedLiquidity","inputs":[]},{"type":"error","name":"DynamicSwapFeeHookFailed","inputs":[]},{"type":"error","name":"ERC20InvalidApprover","inputs":[{"name":"approver","type":"address","internalType":"address"}]},{"type":"error","name":"ERC20InvalidSpender","inputs":[{"name":"spender","type":"address","internalType":"address"}]},{"type":"error","name":"FeePrecisionTooHigh","inputs":[]},{"type":"error","name":"HookAdjustedAmountInAboveMax","inputs":[{"name":"tokenIn","type":"address","internalType":"contract IERC20"},{"name":"amountIn","type":"uint256","internalType":"uint256"},{"name":"maxAmountIn","type":"uint256","internalType":"uint256"}]},{"type":"error","name":"HookAdjustedAmountOutBelowMin","inputs":[{"name":"tokenOut","type":"address","internalType":"contract IERC20"},{"name":"amountOut","type":"uint256","internalType":"uint256"},{"name":"minAmountOut","type":"uint256","internalType":"uint256"}]},{"type":"error","name":"HookAdjustedSwapLimit","inputs":[{"name":"amount","type":"uint256","internalType":"uint256"},{"name":"limit","type":"uint256","internalType":"uint256"}]},{"type":"error","name":"HookRegistrationFailed","inputs":[{"name":"poolHooksContract","type":"address","internalType":"address"},{"name":"pool","type":"address","internalType":"address"},{"name":"poolFactory","type":"address","internalType":"address"}]},{"type":"error","name":"InvalidAddLiquidityKind","inputs":[]},{"type":"error","name":"InvalidRemoveLiquidityKind","inputs":[]},{"type":"error","name":"InvalidToken","inputs":[]},{"type":"error","name":"InvalidTokenConfiguration","inputs":[]},{"type":"error","name":"InvalidTokenDecimals","inputs":[]},{"type":"error","name":"InvalidTokenType","inputs":[]},{"type":"error","name":"InvalidUnderlyingToken","inputs":[{"name":"wrappedToken","type":"address","internalType":"contract IERC4626"}]},{"type":"error","name":"IssuedSharesBelowMin","inputs":[{"name":"issuedShares","type":"uint256","internalType":"uint256"},{"name":"minIssuedShares","type":"uint256","internalType":"uint256"}]},{"type":"error","name":"MaxTokens","inputs":[]},{"type":"error","name":"MinTokens","inputs":[]},{"type":"error","name":"NotEnoughBufferShares","inputs":[]},{"type":"error","name":"NotEnoughUnderlying","inputs":[{"name":"wrappedToken","type":"address","internalType":"contract IERC4626"},{"name":"expectedUnderlyingAmount","type":"uint256","internalType":"uint256"},{"name":"actualUnderlyingAmount","type":"uint256","internalType":"uint256"}]},{"type":"error","name":"NotEnoughWrapped","inputs":[{"name":"wrappedToken","type":"address","internalType":"contract IERC4626"},{"name":"expectedWrappedAmount","type":"uint256","internalType":"uint256"},{"name":"actualWrappedAmount","type":"uint256","internalType":"uint256"}]},{"type":"error","name":"NotVaultDelegateCall","inputs":[]},{"type":"error","name":"PauseBufferPeriodDurationTooLarge","inputs":[]},{"type":"error","name":"PercentageAboveMax","inputs":[]},{"type":"error","name":"PoolAlreadyInitialized","inputs":[{"name":"pool","type":"address","internalType":"address"}]},{"type":"error","name":"PoolAlreadyRegistered","inputs":[{"name":"pool","type":"address","internalType":"address"}]},{"type":"error","name":"PoolInRecoveryMode","inputs":[{"name":"pool","type":"address","internalType":"address"}]},{"type":"error","name":"PoolNotInRecoveryMode","inputs":[{"name":"pool","type":"address","internalType":"address"}]},{"type":"error","name":"PoolNotInitialized","inputs":[{"name":"pool","type":"address","internalType":"address"}]},{"type":"error","name":"PoolNotPaused","inputs":[{"name":"pool","type":"address","internalType":"address"}]},{"type":"error","name":"PoolNotRegistered","inputs":[{"name":"pool","type":"address","internalType":"address"}]},{"type":"error","name":"PoolPauseWindowExpired","inputs":[{"name":"pool","type":"address","internalType":"address"}]},{"type":"error","name":"PoolPaused","inputs":[{"name":"pool","type":"address","internalType":"address"}]},{"type":"error","name":"ProtocolFeesExceedTotalCollected","inputs":[]},{"type":"error","name":"QueriesDisabled","inputs":[]},{"type":"error","name":"QueriesDisabledPermanently","inputs":[]},{"type":"error","name":"QuoteResultSpoofed","inputs":[]},{"type":"error","name":"RouterNotTrusted","inputs":[]},{"type":"error","name":"SenderIsNotVault","inputs":[{"name":"sender","type":"address","internalType":"address"}]},{"type":"error","name":"SwapFeePercentageTooHigh","inputs":[]},{"type":"error","name":"SwapFeePercentageTooLow","inputs":[]},{"type":"error","name":"SwapLimit","inputs":[{"name":"amount","type":"uint256","internalType":"uint256"},{"name":"limit","type":"uint256","internalType":"uint256"}]},{"type":"error","name":"TokenAlreadyRegistered","inputs":[{"name":"token","type":"address","internalType":"contract IERC20"}]},{"type":"error","name":"TokenNotRegistered","inputs":[{"name":"token","type":"address","internalType":"contract IERC20"}]},{"type":"error","name":"TokensMismatch","inputs":[{"name":"pool","type":"address","internalType":"address"},{"name":"expectedToken","type":"address","internalType":"address"},{"name":"actualToken","type":"address","internalType":"address"}]},{"type":"error","name":"TradeAmountTooSmall","inputs":[]},{"type":"error","name":"VaultBuffersArePaused","inputs":[]},{"type":"error","name":"VaultIsNotUnlocked","inputs":[]},{"type":"error","name":"VaultNotPaused","inputs":[]},{"type":"error","name":"VaultPauseWindowDurationTooLarge","inputs":[]},{"type":"error","name":"VaultPauseWindowExpired","inputs":[]},{"type":"error","name":"VaultPaused","inputs":[]},{"type":"error","name":"WrapAmountTooSmall","inputs":[{"name":"wrappedToken","type":"address","internalType":"contract IERC4626"}]},{"type":"error","name":"WrongProtocolFeeControllerDeployment","inputs":[]},{"type":"error","name":"WrongUnderlyingToken","inputs":[{"name":"wrappedToken","type":"address","internalType":"contract IERC4626"},{"name":"underlyingToken","type":"address","internalType":"address"}]},{"type":"error","name":"WrongVaultAdminDeployment","inputs":[]},{"type":"error","name":"WrongVaultExtensionDeployment","inputs":[]}],"bytecode":{"object":"0x6080604052348015600e575f5ffd5b50613d768061001c5f395ff3fe608060405234801561000f575f5ffd5b506004361061024e575f3560e01c8062fdfa13146102525780630387587d14610278578063098401f5146102985780630f8a06ac146102b057806313d21cdf146102d857806313ef8a5d146102f857806315e32046146103005780631ba0ae451461034b57806320c1fb7a146103515780632ea808261461036e5780634021fe0f146103835780634afbaf5a146102785780634d472bdd146103965780634f037ee7146103a9578063532cec7c146103bc578063535cfd8a146103cf57806353956aa2146103ef578063574a4cff146103f75780635b6f4d01146103ff57806367e0e076146104145780636844846b146104375780636c9bc7321461044a578063757d64b31461045d5780637e361bde1461047257806385e0b9991461049357806385f2dbd4146104a6578063927da105146104ae5780639385e39a146104c157806396787092146104d4578063a52ad3a2146104e7578063aaabadc5146104fa578063b45090f914610502578063b4aef0ab14610515578063b9a8effa1461034b578063be7d628a1461051d578063c673bdaf14610530578063c808824714610543578063ca4f280314610556578063cd51c12f14610576578063ce8630d41461057e578063d0c0c5b21461059e578063e1f21c67146105a6578063e2cb0ba0146105b9578063e4dc2aa4146105c1578063e9ddeb26146105d4578063edfa356814610619578063f10d7a751461062c578063f2784e0714610643578063f29486a114610656578063f7888aec14610676578063fbfa77cf1461034b575b5f5ffd5b6102656102603660046131a8565b610689565b6040519081526020015b60405180910390f35b61028b6102863660046131df565b6106ab565b60405161026f9190613207565b6102a06106b5565b604051901515815260200161026f565b6102c36102be3660046131a8565b6106c3565b6040805192835260208301919091520161026f565b6102eb6102e63660046131df565b6106f2565b60405161026f919061331e565b6102a0610718565b61031361030e3660046131df565b610721565b60405161026f9493929190931515845263ffffffff9283166020850152911660408301526001600160a01b0316606082015260800190565b3061028b565b6103596107b1565b60405163ffffffff909116815260200161026f565b6103766107ba565b60405161026f9190613413565b6102c36103913660046131df565b610812565b6102656103a4366004613589565b61083d565b6102656103b73660046131df565b610945565b6102a06103ca3660046131df565b61097d565b6103e26103dd3660046131df565b610987565b60405161026f9190613672565b6102656109ab565b6103766109b4565b610407611362565b60405161026f91906136b2565b6104276104223660046131df565b61138b565b60405161026f94939291906136c4565b6102a06104453660046131df565b611655565b6102a06104583660046131df565b611671565b61047061046b366004613758565b61167b565b005b6104856104803660046131df565b6116c3565b60405161026f929190613796565b6102656104a13660046131a8565b6116f3565b61028b61170a565b6102656104bc3660046137ba565b611713565b6102656104cf3660046131a8565b611727565b6102656104e23660046131df565b611739565b61028b6104f53660046131df565b611743565b61028b61174d565b6102656105103660046131df565b611756565b6102a0611772565b6102a061052b3660046131df565b61177e565b6102a061053e3660046131df565b611788565b610470610551366004613802565b611792565b6105696105643660046131df565b61180c565b60405161026f9190613849565b610359611880565b61059161058c3660046131df565b611889565b60405161026f919061385b565b6103596118c6565b6102a06105b4366004613932565b6118cf565b6102656118e6565b6102656105cf3660046131df565b6118ef565b6105e76105e23660046131df565b6118f9565b6040805182516001600160a01b039081168252602080850151821690830152928201519092169082015260600161026f565b610407610627366004613758565b611961565b610634611996565b60405161026f93929190613970565b6102656106513660046131df565b6119be565b6106696106643660046131df565b6119c8565b60405161026f91906139a8565b6102656106843660046131a8565b611b3a565b5f5f6106958484611b45565b90506106a18160801c90565b9150505b92915050565b5f6106a582611b7e565b5f6106be611bac565b905090565b5f5f5f6106d08585611b45565b90506106db81611bd5565b6106e58260801c90565b92509250505b9250929050565b6106fa6130c3565b8161070481611be1565b61070f836001611c0c565b91505b50919050565b5f6106be611c68565b5f5f5f5f8461072f81611be1565b5f61073987611c7e565b90505f61074588611ca9565b6040805160608101825282546001600160a01b03908116825260018401548116602083015260029093015490921690820152905061078282611cd3565b965061078d82611cf9565b9550610797611dfd565b6107a19087613a74565b9051969895975095949350505050565b5f6106be611dfd565b604080516001808252818301909252606091602080830190803683370190505090506302a95e6b60e51b815f815181106107f6576107f6613a90565b6001600160e01b03199092166020928302919091019091015290565b5f5f5f61081e84611e1d565b905061082981611bd5565b6108338260801c90565b9250925050915091565b5f8261084881611be1565b5f61085285611c7e565b905061085d81611e48565b6108725761086a81611eba565b92505061093e565b5f61087c86611fa0565b90506001600160a01b03811661089e5761089582611eba565b9350505061093e565b5f5f826001600160a01b031663a0e8f5ac888a6108ba88611eba565b6040518463ffffffff1660e01b81526004016108d893929190613aa4565b6040805180830381865afa1580156108f2573d5f5f3e3d5ffd5b505050506040513d601f19601f820116820180604052508101906109169190613b45565b9150915081610938576040516314fe5db560e21b815260040160405180910390fd5b94505050505b5092915050565b5f8161095081611be1565b5f61095a84611fce565b9050805f0361096c575f925050610712565b50670de0b6b3a76400009392505050565b5f6106a582611ff9565b60608161099381611be1565b5f61099f846001611c0c565b60800151949350505050565b5f6106be61200b565b60408051602d8082526105c08201909252606091602082016105a08036833701905050905063c673bdaf60e01b815f815181106109f3576109f3613a90565b6001600160e01b03199092166020928302919091019091015280516314cb3b1f60e21b9082906001908110610a2a57610a2a613a90565b6001600160e01b031990921660209283029190910190910152805163364de39960e11b9082906002908110610a6157610a61613a90565b6001600160e01b0319909216602092830291909101909101528051635f3eb14560e11b9082906003908110610a9857610a98613a90565b6001600160e01b031990921660209283029190910190910152805163ca4f280360e01b9082906004908110610acf57610acf613a90565b6001600160e01b03199092166020928302919091019091015280516333f0703b60e11b9082906005908110610b0657610b06613a90565b6001600160e01b0319909216602092830291909101909101528051633f1b0def60e11b9082906006908110610b3d57610b3d613a90565b6001600160e01b03199092166020928302919091019091015280516329ae7ec560e11b9082906007908110610b7457610b74613a90565b6001600160e01b031990921660209283029190910190910152805163f29486a160e01b9082906008908110610bab57610bab613a90565b6001600160e01b031990921660209283029190910190910152805163529569d160e11b9082906009908110610be257610be2613a90565b6001600160e01b031990921660209283029190910190910152805163b45090f960e01b908290600a908110610c1957610c19613a90565b6001600160e01b03199092166020928302919091019091015280516374eef59360e11b908290600b908110610c5057610c50613a90565b6001600160e01b03199092166020928302919091019091015280516313ef8a5d60e01b908290600c908110610c8757610c87613a90565b6001600160e01b031990921660209283029190910190910152805163686062d960e11b908290600d908110610cbe57610cbe613a90565b6001600160e01b031990921660209283029190910190910152805163cd51c12f60e01b908290600e908110610cf557610cf5613a90565b6001600160e01b0319909216602092830291909101909101528051631060fdbd60e11b908290600f908110610d2c57610d2c613a90565b6001600160e01b0319909216602092830291909101909101528051630716585d60e51b9082906010908110610d6357610d63613a90565b6001600160e01b03199092166020928302919091019091015280516329cab55160e11b9082906011908110610d9a57610d9a613a90565b6001600160e01b031990921660209283029190910190910152805163aaabadc560e01b9082906012908110610dd157610dd1613a90565b6001600160e01b031990921660209283029190910190910152805163217cb6f560e21b9082906013908110610e0857610e08613a90565b6001600160e01b03199092166020928302919091019091015280516339370aa960e21b9082906014908110610e3f57610e3f613a90565b6001600160e01b0319909216602092830291909101909101528051633de222bb60e21b9082906015908110610e7657610e76613a90565b6001600160e01b031990921660209283029190910190910152805163927da10560e01b9082906016908110610ead57610ead613a90565b6001600160e01b031990921660209283029190910190910152805163e1f21c6760e01b9082906017908110610ee457610ee4613a90565b6001600160e01b0319909216602092830291909101909101528051634021fe0f60e01b9082906018908110610f1b57610f1b613a90565b6001600160e01b03199092166020928302919091019091015280516349c2f1cd60e11b9082906019908110610f5257610f52613a90565b6001600160e01b031990921660209283029190910190910152805163f2784e0760e01b908290601a908110610f8957610f89613a90565b6001600160e01b0319909216602092830291909101909101528051630387587d60e01b908290601b908110610fc057610fc0613a90565b6001600160e01b0319909216602092830291909101909101528051634b3c384960e11b908290601c908110610ff757610ff7613a90565b6001600160e01b03199092166020928302919091019091015280516303e281ab60e21b908290601d90811061102e5761102e613a90565b6001600160e01b03199092166020928302919091019091015280516385e0b99960e01b908290601e90811061106557611065613a90565b6001600160e01b031990921660209283029190910190910152805162fdfa1360e01b908290601f90811061109b5761109b613a90565b6001600160e01b03199092166020928302919091018201528151635cd477fd60e11b91839181106110ce576110ce613a90565b6001600160e01b0319909216602092830291909101909101528051631ba0ae4560e01b908290602190811061110557611105613a90565b6001600160e01b031990921660209283029190910190910152805163fbfa77cf60e01b908290602290811061113c5761113c613a90565b6001600160e01b03199092166020928302919091019091015280516333a18c3560e21b908290602390811061117357611173613a90565b6001600160e01b0319909216602092830291909101909101528051634f037ee760e01b90829060249081106111aa576111aa613a90565b6001600160e01b0319909216602092830291909101909101528051630af1902360e11b90829060259081106111e1576111e1613a90565b6001600160e01b0319909216602092830291909101909101528051636844846b60e01b908290602690811061121857611218613a90565b6001600160e01b031990921660209283029190910190910152805163257dd7ad60e11b908290602790811061124f5761124f613a90565b6001600160e01b0319909216602092830291909101909101528051631dbf46ad60e31b908290602890811061128657611286613a90565b6001600160e01b031990921660209283029190910190910152805163757d64b360e01b90829060299081106112bd576112bd613a90565b6001600160e01b031990921660209283029190910190910152805163c808824760e01b908290602a9081106112f4576112f4613a90565b6001600160e01b03199092166020928302919091019091015280516313d21cdf60e01b908290602b90811061132b5761132b613a90565b6001600160e01b0319909216602092830291909101909101528051634d472bdd60e01b908290602c9081106107f6576107f6613a90565b60408051808201909152600f81526e15985d5b1d145d595c9e519858d95d608a1b602082015290565b6060806060808461139b81611be1565b5f6113a461201e565b6001600160a01b0388165f908152600682016020908152604091829020805483518184028101840190945280845293945091929083018282801561140f57602002820191905f5260205f20905b81546001600160a01b031681526001909101906020018083116113f1575b5050835193995083925050506001600160401b0381111561143257611432613425565b60405190808252806020026020018201604052801561146b57816020015b6114586130ff565b8152602001906001900390816114505790505b509550806001600160401b0381111561148657611486613425565b6040519080825280602002602001820160405280156114af578160200160208202803683370190505b509450806001600160401b038111156114ca576114ca613425565b6040519080825280602002602001820160405280156114f3578160200160208202803683370190505b5093505f5b8181101561164a576001600160a01b0389165f908152600784016020526040812089519091908a908490811061153057611530613a90565b6020908102919091018101516001600160a01b0316825281019190915260409081015f208151606081019092528054829060ff1660018111156115755761157561325e565b60018111156115865761158661325e565b8152905461010081046001600160a01b03166020830152600160a81b900460ff16151560409091015287518890839081106115c3576115c3613a90565b6020908102919091018101919091526001600160a01b038a165f908152600885018252604080822084835290925220546115fc81611bd5565b87838151811061160e5761160e613a90565b6020026020010181815250506116248160801c90565b86838151811061163657611636613a90565b6020908102919091010152506001016114f8565b505050509193509193565b5f8061166083611b7e565b6001600160a01b0316141592915050565b5f6106a582612042565b61168f61168661201e565b600a0154612055565b156116ad57604051633d0cc44360e11b815260040160405180910390fd5b5f6116b8838361205f565b905080518060208301fd5b606080826116d081611be1565b5f6116dc856001611c0c565b90508060c001518160a00151935093505050915091565b5f5f6116ff8484611b45565b90506106a181611bd5565b5f6106be6120cd565b5f61171f8484846120e9565b949350505050565b5f61173283836120fd565b9392505050565b5f6106a582612136565b5f6106a582611fa0565b5f6106be612161565b5f8161176181611be1565b61070f61176d84611c7e565b611eba565b5f6106be61168661201e565b5f6106a582612182565b5f6106a582612194565b61179b33612194565b6117c357336040516327946f5760e21b81526004016117ba9190613207565b60405180910390fd5b82336001600160a01b03167f4bc4412e210115456903c65b5277d299a505e79f2eb852b92b1ca52d8585642884846040516117ff929190613b75565b60405180910390a3505050565b60608161181881611be1565b611821836121a6565b80548060200260200160405190810160405280929190818152602001828054801561187357602002820191905f5260205f20905b81546001600160a01b03168152600190910190602001808311611855575b5050505050915050919050565b5f6106be6121d0565b61189161311f565b8161189b81611be1565b5f6118a584611c7e565b90505f6118b185611fa0565b90506118bd82826121f0565b95945050505050565b5f6106be6122b9565b5f6118dc338585856122d2565b5060019392505050565b5f6106be6122ec565b5f6106a582611fce565b604080516060810182525f80825260208201819052918101919091528161191f81611be1565b61192883611ca9565b6040805160608101825282546001600160a01b039081168252600184015481166020830152600290930154909216908201529392505050565b606061196e61168661201e565b1561198c57604051633d0cc44360e11b815260040160405180910390fd5b611732838361205f565b60608060606119a3611362565b92506119ad6107ba565b91506119b76109b4565b9050909192565b5f6106a5826122fc565b604080516101c0810182525f6101408201818152610160830182905261018083018290526101a08301829052825260208201819052918101829052606081018290526080810182905260a0810182905260c0810182905260e08101829052610100810182905261012081019190915281611a4181611be1565b5f611a4b84611c7e565b604080516101c0810190915290915080610140810180611a6a85612327565b158152602001611a798561233d565b15158152602001611a898561234c565b15158152602001611a998561235b565b151590528152602001611aab83611eba565b8152602001611ab98361236a565b8152602001611ac783612452565b8152602001611ad58361253c565b64ffffffffff168152602001611aea83611cf9565b63ffffffff168152602001611afe83612055565b15158152602001611b0e83612634565b15158152602001611b1e83611cd3565b15158152602001611b2e83612643565b15159052949350505050565b5f6117328383612652565b5f611732611b5161201e565b6001600160a01b038086165f90815260099290920160209081526040808420928716845291905290205490565b5f6106a5611b8a61201e565b6001600160a01b038085165f9081526011929092016020526040909120541690565b5f611bb56121d0565b63ffffffff1642111580156106be57506106be611bd0612686565b612699565b6001600160801b031690565b611bea81612194565b611c0957806040516327946f5760e21b81526004016117ba9190613207565b50565b611c146130c3565b5f611c1d61201e565b6001600160a01b0385165f908152600882016020908152604080832060038501835281842054600786018452828520600687019094529190932093945061093e9386939290886126b1565b5f6106be611c7461201e565b600c015460ff1690565b5f6106a5611c8a61201e565b836001600160a01b03165f908152600391909101602052604090205490565b5f6106a5611cb561201e565b836001600160a01b03165f9081526004919091016020526040902090565b5f6106a5611ce2826001613ba3565b611ced906001613ba3565b839060ff161c60011690565b5f6106a5602860188080611d0e866001613ba3565b611d19906001613ba3565b611d24906001613ba3565b611d2f906001613ba3565b611d3a906001613ba3565b611d45906001613ba3565b611d50906001613ba3565b611d5b906001613ba3565b611d66906001613ba3565b611d71906001613ba3565b611d7c906001613ba3565b611d87906001613ba3565b611d92906001613ba3565b611d9d906001613ba3565b611da8906001613ba3565b611db3906001613ba3565b611dbe906001613ba3565b611dc9906001613ba3565b60ff16611dd69190613bbc565b611de09190613bbc565b611dea9190613bbc565b611df49190613bbc565b83906020612a5d565b5f6106be611e0961201e565b60020154600160401b900463ffffffff1690565b5f6106a5611e2961201e565b836001600160a01b03165f908152600e91909101602052604090205490565b5f6106a5611e57826001613ba3565b611e62906001613ba3565b611e6d906001613ba3565b611e78906001613ba3565b611e83906001613ba3565b611e8e906001613ba3565b611e99906001613ba3565b611ea4906001613ba3565b611eaf906001613ba3565b611ce2906001613ba3565b5f64174876e800611f96611ecf836001613ba3565b611eda906001613ba3565b611ee5906001613ba3565b611ef0906001613ba3565b611efb906001613ba3565b611f06906001613ba3565b611f11906001613ba3565b611f1c906001613ba3565b611f27906001613ba3565b611f32906001613ba3565b611f3d906001613ba3565b611f48906001613ba3565b611f53906001613ba3565b611f5e906001613ba3565b611f69906001613ba3565b611f74906001613ba3565b611f7f906001613ba3565b611f8a906001613ba3565b849060ff166018612a5d565b6106a59190613bcf565b5f6106a5611fac61201e565b6001600160a01b038085165f9081526005929092016020526040909120541690565b5f6106a5611fda612a6b565b836001600160a01b03165f908152600291909101602052604090205490565b5f6106a561200683611c7e565b612634565b5f6106be61201761201e565b6001015490565b7f867cc37b1d81c6898e0381d9834d1320e6a009ceb8f1f455820783856710c6b590565b5f5f61204d83612a8f565b509392505050565b5f600182166106a5565b60605f5f336001600160a01b0316858560405161207d929190613be6565b5f604051808303815f865af19150503d805f81146120b6576040519150601f19603f3d011682016040523d82523d5f602084013e6120bb565b606091505b5091509150816106a157805160208201fd5b5f6106be6120d961201e565b600d01546001600160a01b031690565b5f61171f6120f5612a6b565b858585612ae4565b5f61173261210961201e565b6001600160a01b038086165f908152600f9290920160209081526040808420928716845291905290205490565b5f6106a561214261201e565b836001600160a01b03165f908152600b91909101602052604090205490565b5f6106be61216d61201e565b600c015461010090046001600160a01b031690565b5f6106a561218f83611c7e565b612643565b5f6106a56121a183611c7e565b612055565b5f6106a56121b261201e565b836001600160a01b03165f9081526006919091016020526040902090565b5f6106be6121dc61201e565b60020154600160201b900463ffffffff1690565b6121f861311f565b60405180610160016040528061220d85612b40565b1515815260200161221d85612b4f565b1515815260200161222d85612b5e565b1515815260200161223d85611e48565b1515815260200161224d85612b6d565b1515815260200161225d85612b87565b1515815260200161226d85612ba1565b1515815260200161227d85612bbb565b1515815260200161228d85612bd5565b1515815260200161229d85612bef565b15158152602001836001600160a01b0316815250905092915050565b5f6106be6122c561201e565b6002015463ffffffff1690565b6122e66122dd612a6b565b85858585612c09565b50505050565b5f6106be6122f861201e565b5490565b5f6106a561230861201e565b836001600160a01b03165f908152601091909101602052604090205490565b5f612336611ea4826001613ba3565b1592915050565b5f6106a5611e99826001613ba3565b5f6106a5611e8e826001613ba3565b5f6106a5611e83826001613ba3565b5f64174876e800611f966018612381846001613ba3565b61238c906001613ba3565b612397906001613ba3565b6123a2906001613ba3565b6123ad906001613ba3565b6123b8906001613ba3565b6123c3906001613ba3565b6123ce906001613ba3565b6123d9906001613ba3565b6123e4906001613ba3565b6123ef906001613ba3565b6123fa906001613ba3565b612405906001613ba3565b612410906001613ba3565b61241b906001613ba3565b612426906001613ba3565b612431906001613ba3565b61243c906001613ba3565b60ff166124499190613bbc565b84906018612a5d565b5f64174876e800611f9660188061246a856001613ba3565b612475906001613ba3565b612480906001613ba3565b61248b906001613ba3565b612496906001613ba3565b6124a1906001613ba3565b6124ac906001613ba3565b6124b7906001613ba3565b6124c2906001613ba3565b6124cd906001613ba3565b6124d8906001613ba3565b6124e3906001613ba3565b6124ee906001613ba3565b6124f9906001613ba3565b612504906001613ba3565b61250f906001613ba3565b61251a906001613ba3565b612525906001613ba3565b60ff166125329190613bbc565b6124499190613bbc565b5f6106a56018808061254f856001613ba3565b61255a906001613ba3565b612565906001613ba3565b612570906001613ba3565b61257b906001613ba3565b612586906001613ba3565b612591906001613ba3565b61259c906001613ba3565b6125a7906001613ba3565b6125b2906001613ba3565b6125bd906001613ba3565b6125c8906001613ba3565b6125d3906001613ba3565b6125de906001613ba3565b6125e9906001613ba3565b6125f4906001613ba3565b6125ff906001613ba3565b61260a906001613ba3565b60ff166126179190613bbc565b6126219190613bbc565b61262b9190613bbc565b83906028612a5d565b5f6106a5611ced826001613ba3565b5f6106a5611eaf826001613ba3565b5f61173261265e612a6b565b6001600160a01b038086165f9081526020928352604080822092871682529190925290205490565b5f6106be61269261201e565b600a015490565b5f6106a56126a8826001613bbc565b83901c60011690565b815484875260408051602080840282018101909252828152908490839083018282801561270557602002820191905f5260205f20905b81546001600160a01b031681526001909101906020018083116126e7575b50505050508760200181905250806001600160401b0381111561272a5761272a613425565b60405190808252806020026020018201604052801561276357816020015b6127506130ff565b8152602001906001900390816127485790505b506040880152806001600160401b0381111561278157612781613425565b6040519080825280602002602001820160405280156127aa578160200160208202803683370190505b506060880152806001600160401b038111156127c8576127c8613425565b6040519080825280602002602001820160405280156127f1578160200160208202803683370190505b50608088015286516128039082612d49565b60c0880152806001600160401b0381111561282057612820613425565b604051908082528060200260200182016040528015612849578160200160208202803683370190505b5060a088015286515f9061285c90612634565b801561287257505f612870895f0151612452565b115b80156128865750875161288490612643565b155b90505f5b82811015612a52575f865f8b6020015184815181106128ab576128ab613a90565b6020908102919091018101516001600160a01b0316825281019190915260409081015f208151606081019092528054829060ff1660018111156128f0576128f061325e565b60018111156129015761290161325e565b8152905461010081046001600160a01b0316602080840191909152600160a81b90910460ff1615156040928301525f858152908c905281902054908c0151805192935090918391908590811061295957612959613a90565b602002602001018190525061296d82612e02565b8b60a00151848151811061298357612983613a90565b6020026020010181815250506129a38b8461299d84611bd5565b89612ecb565b8315155f036129b3575050612a4a565b5f826040015180156129d757506001835160018111156129d5576129d561325e565b145b90508015612a46575f6129ec8d5f0151612452565b90505f8d606001518681518110612a0557612a05613a90565b602002602001015190505f612a258f612a1e8760801c90565b8986612f88565b90508015612a4257612a428f88612a3c8486613bf5565b8d612ecb565b5050505b5050505b60010161288a565b505050505050505050565b6001901b5f190191901c1690565b7fee3617e7dec9b55ea0e350adee8432cb30b3be6aa699fe3c87313b503dbc6c1f90565b5f5f5f612a9b84611c7e565b90505f612aa782611cd3565b90505f612ab383611cf9565b9050818015612ad95750612ac5611dfd565b612acf9082613a74565b63ffffffff164211155b969095509350505050565b5f816001600160a01b0316836001600160a01b031603612b0657505f1961171f565b506001600160a01b038084165f90815260018601602090815260408083208685168452825280832093851683529290522054949350505050565b5f6106a5611e6d826001613ba3565b5f6106a5611e78826001613ba3565b5f6106a5611e62826001613ba3565b5f6106a5612b7c826001613ba3565b611e57906001613ba3565b5f6106a5612b96826001613ba3565b612b7c906001613ba3565b5f6106a5612bb0826001613ba3565b612b96906001613ba3565b5f6106a5612bca826001613ba3565b612bb0906001613ba3565b5f6106a5612be4826001613ba3565b612bca906001613ba3565b5f6106a5612bfe826001613ba3565b612be4906001613ba3565b6001600160a01b038316612c32578260405163e602df0560e01b81526004016117ba9190613207565b6001600160a01b038216612c5b5781604051634a1406b160e11b81526004016117ba9190613207565b6001600160a01b038481165f818152600188016020908152604080832088861680855290835281842095881680855295909252918290208590559051630ad0fe5760e31b8152600481019190915260248101929092526044820183905290635687f2b8906064015f604051808303815f87803b158015612cd9575f5ffd5b505af1925050508015612cea575060015b50816001600160a01b0316836001600160a01b0316856001600160a01b03167fa0175360a15bca328baf7ea85c7b784d58b222a50d0ce760b10dba336d226a6184604051612d3a91815260200190565b60405180910390a45050505050565b60605f826001600160401b03811115612d6457612d64613425565b604051908082528060200260200182016040528015612d8d578160200160208202803683370190505b5090505f612d9a8561253c565b64ffffffffff1690505f5b84811015612df8575f612dc5612dbc600584613bcf565b84906005612a5d565b9050612dd281600a613ceb565b848381518110612de457612de4613a90565b602090810291909101015250600101612da5565b5090949350505050565b80515f9081816001811115612e1957612e1961325e565b03612e2e57670de0b6b3a76400009150610712565b6001816001811115612e4257612e4261325e565b03612eb25782602001516001600160a01b031663679aefce6040518163ffffffff1660e01b8152600401602060405180830381865afa158015612e87573d5f5f3e3d5ffd5b505050506040513d601f19601f82011682018060405250810190612eab9190613cf6565b9150610712565b604051636fa2831960e11b815260040160405180910390fd5b8184606001518481518110612ee257612ee2613a90565b602090810291909101015261317a5f826001811115612f0357612f0361325e565b14612f105761301d612f14565b6130325b9050612f5f838660c001518681518110612f3057612f30613a90565b60200260200101518760a001518781518110612f4e57612f4e613a90565b60200260200101518463ffffffff16565b85608001518581518110612f7557612f75613a90565b6020026020010181815250505050505050565b5f5f85608001518481518110612fa057612fa0613a90565b6020026020010151905084811115613014575f612fbf86830385613043565b90506130108760c001518681518110612fda57612fda613a90565b60200260200101518860a001518781518110612ff857612ff8613a90565b60200260200101518361306f9092919063ffffffff16565b9250505b50949350505050565b5f61171f8261302c8587613bcf565b90613083565b5f61171f826130418587613bcf565b905b5f8061304f8385613bcf565b90506001670de0b6b3a76400006001830304018115150291505092915050565b5f61171f8461307e8486613bcf565b6130a3565b5f8061308f8385613bcf565b90506106a1670de0b6b3a764000082613d0d565b5f806130b7670de0b6b3a764000085613bcf565b90506106a18382613d0d565b6040518060e001604052805f81526020016060815260200160608152602001606081526020016060815260200160608152602001606081525090565b6040805160608101909152805f81525f6020820181905260409091015290565b60408051610160810182525f80825260208201819052918101829052606081018290526080810182905260a0810182905260c0810182905260e081018290526101008101829052610120810182905261014081019190915290565b613182613d2c565b565b6001600160a01b0381168114611c09575f5ffd5b80356131a381613184565b919050565b5f5f604083850312156131b9575f5ffd5b82356131c481613184565b915060208301356131d481613184565b809150509250929050565b5f602082840312156131ef575f5ffd5b813561173281613184565b6001600160a01b03169052565b6001600160a01b0391909116815260200190565b5f8151808452602084019350602083015f5b828110156132545781516001600160a01b031686526020958601959091019060010161322d565b5093949350505050565b634e487b7160e01b5f52602160045260245ffd5b60028110611c0957634e487b7160e01b5f52602160045260245ffd5b5f8151808452602084019350602083015f5b828110156132545781515f81516132b681613272565b8852506020818101516001600160a01b03168189015260409182015115159188019190915260609096019591909101906001016132a0565b5f8151808452602084019350602083015f5b82811015613254578151865260209586019590910190600101613300565b60208152815160208201525f602083015160e0604084015261334461010084018261321b565b90506040840151601f19848303016060850152613361828261328e565b9150506060840151601f1984830301608085015261337f82826132ee565b9150506080840151601f198483030160a085015261339d82826132ee565b91505060a0840151601f198483030160c08501526133bb82826132ee565b91505060c0840151601f198483030160e08501526118bd82826132ee565b5f8151808452602084019350602083015f5b828110156132545781516001600160e01b0319168652602095860195909101906001016133eb565b602081525f61173260208301846133d9565b634e487b7160e01b5f52604160045260245ffd5b60405160e081016001600160401b038111828210171561345b5761345b613425565b60405290565b604051601f8201601f191681016001600160401b038111828210171561348957613489613425565b604052919050565b8035600281106131a3575f5ffd5b5f82601f8301126134ae575f5ffd5b81356001600160401b038111156134c7576134c7613425565b8060051b6134d760208201613461565b918252602081850181019290810190868411156134f2575f5ffd5b6020860192505b838310156135145782358252602092830192909101906134f9565b9695505050505050565b5f82601f83011261352d575f5ffd5b81356001600160401b0381111561354657613546613425565b613559601f8201601f1916602001613461565b81815284602083860101111561356d575f5ffd5b816020850160208301375f918101602001919091529392505050565b5f5f6040838503121561359a575f5ffd5b82356135a581613184565b915060208301356001600160401b038111156135bf575f5ffd5b830160e081860312156135d0575f5ffd5b6135d8613439565b6135e182613491565b81526020828101359082015260408201356001600160401b03811115613605575f5ffd5b6136118782850161349f565b604083015250606082810135908201526080808301359082015261363760a08301613198565b60a082015260c08201356001600160401b03811115613654575f5ffd5b6136608782850161351e565b60c08301525080925050509250929050565b602081525f61173260208301846132ee565b5f81518084528060208401602086015e5f602082860101526020601f19601f83011685010191505092915050565b602081525f6117326020830184613684565b608081525f6136d6608083018761321b565b82810360208401526136e8818761328e565b905082810360408401526136fc81866132ee565b9050828103606084015261371081856132ee565b979650505050505050565b5f5f83601f84011261372b575f5ffd5b5081356001600160401b03811115613741575f5ffd5b6020830191508360208285010111156106eb575f5ffd5b5f5f60208385031215613769575f5ffd5b82356001600160401b0381111561377e575f5ffd5b61378a8582860161371b565b90969095509350505050565b604081525f6137a860408301856132ee565b82810360208401526118bd81856132ee565b5f5f5f606084860312156137cc575f5ffd5b83356137d781613184565b925060208401356137e781613184565b915060408401356137f781613184565b809150509250925092565b5f5f5f60408486031215613814575f5ffd5b8335925060208401356001600160401b03811115613830575f5ffd5b61383c8682870161371b565b9497909650939450505050565b602081525f611732602083018461321b565b81511515815261016081016020830151613879602084018215159052565b50604083015161388d604084018215159052565b5060608301516138a1606084018215159052565b5060808301516138b5608084018215159052565b5060a08301516138c960a084018215159052565b5060c08301516138dd60c084018215159052565b5060e08301516138f160e084018215159052565b5061010083015161390761010084018215159052565b5061012083015161391d61012084018215159052565b5061014083015161093e6101408401826131fa565b5f5f5f60608486031215613944575f5ffd5b833561394f81613184565b9250602084013561395f81613184565b929592945050506040919091013590565b606081525f6139826060830186613684565b828103602084015261399481866133d9565b9050828103604084015261351481856133d9565b81518051151582526020808201511515908301526040808201511515908301526060908101511515908201526101a0810160208301516080830152604083015160a0830152606083015160c08301526080830151613a0f60e084018264ffffffffff169052565b5060a083015163ffffffff166101008381019190915260c084015115156101208085019190915260e0850151151561014085015290840151151561016084015283015180151561018084015261093e565b634e487b7160e01b5f52601160045260245ffd5b63ffffffff81811683821601908111156106a5576106a5613a60565b634e487b7160e01b5f52603260045260245ffd5b606081525f8451613ab481613272565b606083015260208501516080830152604085015160e060a0840152613add6101408401826132ee565b606087015160c085810191909152608088015160e086015260a08801516001600160a01b0316610100860152870151848203605f1901610120860152909150613b268282613684565b92505050613b3760208301856131fa565b826040830152949350505050565b5f5f60408385031215613b56575f5ffd5b82518015158114613b65575f5ffd5b6020939093015192949293505050565b60208152816020820152818360408301375f818301604090810191909152601f909201601f19160101919050565b60ff81811683821601908111156106a5576106a5613a60565b808201808211156106a5576106a5613a60565b80820281158282048414176106a5576106a5613a60565b818382375f9101908152919050565b818103818111156106a5576106a5613a60565b6001815b6001841115613c4357808504811115613c2757613c27613a60565b6001841615613c3557908102905b60019390931c928002613c0c565b935093915050565b5f82613c59575060016106a5565b81613c6557505f6106a5565b8160018114613c7b5760028114613c8557613ca1565b60019150506106a5565b60ff841115613c9657613c96613a60565b50506001821b6106a5565b5060208310610133831016604e8410600b8410161715613cc4575081810a6106a5565b613cd05f198484613c08565b805f1904821115613ce357613ce3613a60565b029392505050565b5f6117328383613c4b565b5f60208284031215613d06575f5ffd5b5051919050565b5f82613d2757634e487b7160e01b5f52601260045260245ffd5b500490565b634e487b7160e01b5f52605160045260245ffdfea2646970667358221220de8b25ae8fbae94711b491578452c0cfcc0dd4516a706063a62882a2384c760664736f6c634300081e0033","linkReferences":{}},"methodIdentifiers":{"allowance(address,address,address)":"927da105","approve(address,address,uint256)":"e1f21c67","balanceOf(address,address)":"f7888aec","computeDynamicSwapFeePercentage(address,(uint8,uint256,uint256[],uint256,uint256,address,bytes))":"4d472bdd","emitAuxiliaryEvent(bytes32,bytes)":"c8088247","facetFuncs()":"574a4cff","facetInterfaces()":"2ea80826","facetMetadata()":"f10d7a75","facetName()":"5b6f4d01","getAggregateSwapAndYieldFeeAmounts(address,address)":"0f8a06ac","getAggregateSwapFeeAmount(address,address)":"85e0b999","getAggregateYieldFeeAmount(address,address)":"00fdfa13","getAuthorizer()":"aaabadc5","getBptRate(address)":"4f037ee7","getBufferAsset(address)":"0387587d","getBufferBalance(address)":"4021fe0f","getBufferOwnerShares(address,address)":"9385e39a","getBufferPeriodDuration()":"20c1fb7a","getBufferPeriodEndTime()":"cd51c12f","getBufferTotalShares(address)":"f2784e07","getCurrentLiveBalances(address)":"535cfd8a","getERC4626BufferAsset(address)":"4afbaf5a","getHooksConfig(address)":"ce8630d4","getHooksContract(address)":"a52ad3a2","getMinimumTradeAmount()":"e2cb0ba0","getMinimumWrapAmount()":"53956aa2","getPoolConfig(address)":"f29486a1","getPoolData(address)":"13d21cdf","getPoolPausedState(address)":"15e32046","getPoolRoleAccounts(address)":"e9ddeb26","getPoolTokenInfo(address)":"67e0e076","getPoolTokenRates(address)":"7e361bde","getPoolTokens(address)":"ca4f2803","getProtocolFeeController()":"85f2dbd4","getReservesOf(address)":"96787092","getStaticSwapFeePercentage(address)":"b45090f9","getVaultAdmin()":"1ba0ae45","getVaultExtension()":"b9a8effa","getVaultPauseWindowEndTime()":"d0c0c5b2","isERC4626BufferInitialized(address)":"6844846b","isPoolInRecoveryMode(address)":"be7d628a","isPoolInitialized(address)":"532cec7c","isPoolPaused(address)":"6c9bc732","isPoolRegistered(address)":"c673bdaf","isQueryDisabled()":"b4aef0ab","isQueryDisabledPermanently()":"13ef8a5d","isVaultPaused()":"098401f5","quote(bytes)":"edfa3568","quoteAndRevert(bytes)":"757d64b3","totalSupply(address)":"e4dc2aa4","vault()":"fbfa77cf"},"id":993}