{"abi":[{"type":"constructor","inputs":[{"name":"pkgInit","type":"tuple","internalType":"struct IERC20DFPkg.PkgInit","components":[{"name":"erc20Facet","type":"address","internalType":"contract IFacet"}]}],"stateMutability":"nonpayable"},{"type":"function","name":"calcSalt","inputs":[{"name":"pkgArgs","type":"bytes","internalType":"bytes"}],"outputs":[{"name":"salt","type":"bytes32","internalType":"bytes32"}],"stateMutability":"pure"},{"type":"function","name":"deploy","inputs":[{"name":"factory","type":"address","internalType":"contract IDiamondPackageCallBackFactory"},{"name":"name_","type":"string","internalType":"string"},{"name":"symbol","type":"string","internalType":"string"},{"name":"decimals","type":"uint8","internalType":"uint8"},{"name":"totalSupply","type":"uint256","internalType":"uint256"},{"name":"recipient","type":"address","internalType":"address"},{"name":"optionalSalt","type":"bytes32","internalType":"bytes32"}],"outputs":[{"name":"token","type":"address","internalType":"contract IERC20"}],"stateMutability":"nonpayable"},{"type":"function","name":"deploy","inputs":[{"name":"factory","type":"address","internalType":"contract IDiamondPackageCallBackFactory"},{"name":"pkgArgs","type":"tuple","internalType":"struct IERC20DFPkg.PkgArgs","components":[{"name":"name","type":"string","internalType":"string"},{"name":"symbol","type":"string","internalType":"string"},{"name":"decimals","type":"uint8","internalType":"uint8"},{"name":"totalSupply","type":"uint256","internalType":"uint256"},{"name":"recipient","type":"address","internalType":"address"},{"name":"optionalSalt","type":"bytes32","internalType":"bytes32"}]}],"outputs":[{"name":"token","type":"address","internalType":"contract IERC20"}],"stateMutability":"nonpayable"},{"type":"function","name":"diamondConfig","inputs":[],"outputs":[{"name":"config","type":"tuple","internalType":"struct IDiamondFactoryPackage.DiamondConfig","components":[{"name":"facetCuts","type":"tuple[]","internalType":"struct IDiamond.FacetCut[]","components":[{"name":"facetAddress","type":"address","internalType":"address"},{"name":"action","type":"uint8","internalType":"enum IDiamond.FacetCutAction"},{"name":"functionSelectors","type":"bytes4[]","internalType":"bytes4[]"}]},{"name":"interfaces","type":"bytes4[]","internalType":"bytes4[]"}]}],"stateMutability":"view"},{"type":"function","name":"facetAddresses","inputs":[],"outputs":[{"name":"facetAddresses_","type":"address[]","internalType":"address[]"}],"stateMutability":"view"},{"type":"function","name":"facetCuts","inputs":[],"outputs":[{"name":"facetCuts_","type":"tuple[]","internalType":"struct IDiamond.FacetCut[]","components":[{"name":"facetAddress","type":"address","internalType":"address"},{"name":"action","type":"uint8","internalType":"enum IDiamond.FacetCutAction"},{"name":"functionSelectors","type":"bytes4[]","internalType":"bytes4[]"}]}],"stateMutability":"view"},{"type":"function","name":"facetInterfaces","inputs":[],"outputs":[{"name":"interfaces","type":"bytes4[]","internalType":"bytes4[]"}],"stateMutability":"view"},{"type":"function","name":"initAccount","inputs":[{"name":"initArgs","type":"bytes","internalType":"bytes"}],"outputs":[],"stateMutability":"nonpayable"},{"type":"function","name":"packageMetadata","inputs":[],"outputs":[{"name":"name_","type":"string","internalType":"string"},{"name":"interfaces","type":"bytes4[]","internalType":"bytes4[]"},{"name":"facets","type":"address[]","internalType":"address[]"}],"stateMutability":"view"},{"type":"function","name":"packageName","inputs":[],"outputs":[{"name":"name_","type":"string","internalType":"string"}],"stateMutability":"pure"},{"type":"function","name":"postDeploy","inputs":[{"name":"","type":"address","internalType":"address"}],"outputs":[{"name":"","type":"bool","internalType":"bool"}],"stateMutability":"pure"},{"type":"function","name":"processArgs","inputs":[{"name":"pkgArgs","type":"bytes","internalType":"bytes"}],"outputs":[{"name":"processedPkgArgs","type":"bytes","internalType":"bytes"}],"stateMutability":"pure"},{"type":"function","name":"updatePkg","inputs":[{"name":"","type":"address","internalType":"address"},{"name":"","type":"bytes","internalType":"bytes"}],"outputs":[{"name":"","type":"bool","internalType":"bool"}],"stateMutability":"nonpayable"},{"type":"event","name":"Transfer","inputs":[{"name":"from","type":"address","indexed":true,"internalType":"address"},{"name":"to","type":"address","indexed":true,"internalType":"address"},{"name":"amount","type":"uint256","indexed":false,"internalType":"uint256"}],"anonymous":false},{"type":"error","name":"NoNameAndSymbol","inputs":[]},{"type":"error","name":"NoRecipient","inputs":[]}],"bytecode":{"object":"0x60a060405234801561000f575f5ffd5b5060405161140138038061140183398101604081905261002e91610040565b516001600160a01b03166080526100a2565b5f6020828403128015610051575f5ffd5b50604051602081016001600160401b038111828210171561008057634e487b7160e01b5f52604160045260245ffd5b60405282516001600160a01b0381168114610099575f5ffd5b81529392505050565b6080516113326100cf5f395f81816101ff0152818161036201528181610609015261063a01526113325ff3fe608060405234801561000f575f5ffd5b50600436106100ad575f3560e01c80632ea80826146100b157806331f23040146100cf57806352ef6b2c146100fa57806365d375b31461010f57806370068fcf14610124578063790652ef14610148578063870d48381461015b57806387c3adb314610170578063a4b3ad3514610190578063a9089235146101a5578063abc8b346146101bb578063d82be56e146101c3578063f45469e7146101e4575b5f5ffd5b6100b96101fb565b6040516100c69190610973565b60405180910390f35b6100e26100dd366004610a09565b610284565b6040516001600160a01b0390911681526020016100c6565b61010261033e565b6040516100c69190610af9565b6101176103b6565b6040516100c69190610bad565b610138610132366004610bee565b50600190565b60405190151581526020016100c6565b6100e2610156366004610cef565b6103f1565b61016e610169366004610dd0565b610488565b005b61018361017e366004610dd0565b6104d5565b6040516100c69190610e37565b6101986105af565b6040516100c69190610e49565b6101386101b3366004610e5b565b600192915050565b6101836106dd565b6101d66101d1366004610dd0565b610701565b6040519081526020016100c6565b6101ec6107ce565b6040516100c693929190610ea7565b60607f00000000000000000000000000000000000000000000000000000000000000006001600160a01b0316632ea808266040518163ffffffff1660e01b81526004015f60405180830381865afa158015610258573d5f5f3e3d5ffd5b505050506040513d5f823e601f3d908101601f1916820160405261027f9190810190610ee9565b905090565b5f6103308a6040518060c001604052808c8c8080601f0160208091040260200160405190810160405280939291908181526020018383808284375f92019190915250505090825250604080516020601f8d018190048102820181019092528b815291810191908c908c90819084018382808284375f9201919091525050509082525060ff89166020820152604081018890526001600160a01b03871660608201526080018590526103f1565b9a9950505050505050505050565b604080516001808252818301909252606091602080830190803683370190505090507f0000000000000000000000000000000000000000000000000000000000000000815f8151811061039357610393610fa7565b60200260200101906001600160a01b031690816001600160a01b03168152505090565b604080518082019091526060808252602082015260405180604001604052806103dd6105af565b81526020016103ea6101fb565b9052919050565b5f826001600160a01b031663e97fac0530846040516020016104139190610fbb565b6040516020818303038152906040526040518363ffffffff1660e01b815260040161043f929190611033565b6020604051808303815f875af115801561045b573d5f5f3e3d5ffd5b505050506040513d601f19601f8201168201806040525081019061047f9190611061565b90505b92915050565b5f8180602001905181019061049d91906110d4565b90506104b5815f0151826020015183604001516107f6565b6060810151156104d1576104d18160800151826060015161080e565b5050565b60605f828060200190518101906104ec91906110d4565b8051519091505f03610528576020810151511561050f576020810151815261053c565b6040516362277d2360e01b815260040160405180910390fd5b8060200151515f0361053c57805160208201525b6060810151156105715760808101516001600160a01b0316610571576040516365a4920b60e01b815260040160405180910390fd5b806040015160ff165f0361058757601260408201525b806040516020016105989190610fbb565b604051602081830303815290604052915050919050565b604080516001808252818301909252606091816020015b60408051606080820183525f8083526020830152918101919091528152602001906001900390816105c65790505060408051606081019091526001600160a01b037f0000000000000000000000000000000000000000000000000000000000000000168152909150602081015f81526020017f00000000000000000000000000000000000000000000000000000000000000006001600160a01b031663574a4cff6040518163ffffffff1660e01b81526004015f60405180830381865afa158015610693573d5f5f3e3d5ffd5b505050506040513d5f823e601f3d908101601f191682016040526106ba9190810190610ee9565b815250815f815181106106cf576106cf610fa7565b602002602001018190525090565b60408051808201909152600a81526945524332304446506b6760b01b602082015290565b5f5f8280602001905181019061071791906110d4565b8051519091505f0361073a576020810151511561050f576020810151815261074e565b8060200151515f0361074e57805160208201525b6060810151156107835760808101516001600160a01b0316610783576040516365a4920b60e01b815260040160405180910390fd5b806040015160ff165f0361079957601260408201525b6107c7816040516020016107ad9190610fbb565b604051602081830303815290604052805160209091012090565b9392505050565b60608060606107db6106dd565b92506107e56101fb565b91506107ef61033e565b9050909192565b610809610801610820565b84848461086b565b505050565b6104d1610819610820565b83836108a2565b5f61027f604051602001610852906020808252600a908201526906569702e6572632e32360b41b604082015260600190565b6040516020818303038152906040528051906020012090565b836108768482611223565b50600184016108858382611223565b50600293909301805460ff191660ff909416939093179092555050565b6001600160a01b0382165f908152600484016020526040812080548392906108cb9084906112dd565b9250508190555080836003015f8282546108e591906112dd565b90915550506040518181526001600160a01b038316905f907fddf252ad1be2c89b69c2b068fc378daa952ba7f163c4a11628f55a4df523b3ef9060200160405180910390a3505050565b5f8151808452602084019350602083015f5b828110156109695781516001600160e01b031916865260209586019590910190600101610941565b5093949350505050565b602081525f61047f602083018461092f565b6001600160a01b0381168114610999575f5ffd5b50565b5f5f83601f8401126109ac575f5ffd5b5081356001600160401b038111156109c2575f5ffd5b6020830191508360208285010111156109d9575f5ffd5b9250929050565b60ff81168114610999575f5ffd5b80356109f9816109e0565b919050565b80356109f981610985565b5f5f5f5f5f5f5f5f5f60e08a8c031215610a21575f5ffd5b8935610a2c81610985565b985060208a01356001600160401b03811115610a46575f5ffd5b610a528c828d0161099c565b90995097505060408a01356001600160401b03811115610a70575f5ffd5b610a7c8c828d0161099c565b90975095505060608a0135610a90816109e0565b935060808a0135925060a08a0135610aa781610985565b989b979a50959894979396929550909360c00135919050565b5f8151808452602084019350602083015f5b828110156109695781516001600160a01b0316865260209586019590910190600101610ad2565b602081525f61047f6020830184610ac0565b5f82825180855260208501945060208160051b830101602085015f5b83811015610ba157848303601f19018852815180516001600160a01b03168452602081015160038110610b6857634e487b7160e01b5f52602160045260245ffd5b806020860152506040810151905060606040850152610b8a606085018261092f565b6020998a0199909450929092019150600101610b27565b50909695505050505050565b602081525f825160406020840152610bc86060840182610b0b565b90506020840151601f19848303016040850152610be5828261092f565b95945050505050565b5f60208284031215610bfe575f5ffd5b81356107c781610985565b634e487b7160e01b5f52604160045260245ffd5b60405160c081016001600160401b0381118282101715610c3f57610c3f610c09565b60405290565b604051601f8201601f191681016001600160401b0381118282101715610c6d57610c6d610c09565b604052919050565b5f6001600160401b03821115610c8d57610c8d610c09565b50601f01601f191660200190565b5f82601f830112610caa575f5ffd5b8135602083015f610cc2610cbd84610c75565b610c45565b9050828152858383011115610cd5575f5ffd5b828260208301375f92810160200192909252509392505050565b5f5f60408385031215610d00575f5ffd5b8235610d0b81610985565b915060208301356001600160401b03811115610d25575f5ffd5b830160c08186031215610d36575f5ffd5b610d3e610c1d565b81356001600160401b03811115610d53575f5ffd5b610d5f87828501610c9b565b82525060208201356001600160401b03811115610d7a575f5ffd5b610d8687828501610c9b565b602083015250610d98604083016109ee565b604082015260608281013590820152610db3608083016109fe565b608082015260a09182013591810191909152919491935090915050565b5f60208284031215610de0575f5ffd5b81356001600160401b03811115610df5575f5ffd5b610e0184828501610c9b565b949350505050565b5f81518084528060208401602086015e5f602082860101526020601f19601f83011685010191505092915050565b602081525f61047f6020830184610e09565b602081525f61047f6020830184610b0b565b5f5f60408385031215610e6c575f5ffd5b8235610e7781610985565b915060208301356001600160401b03811115610e91575f5ffd5b610e9d85828601610c9b565b9150509250929050565b606081525f610eb96060830186610e09565b8281036020840152610ecb818661092f565b90508281036040840152610edf8185610ac0565b9695505050505050565b5f60208284031215610ef9575f5ffd5b81516001600160401b03811115610f0e575f5ffd5b8201601f81018413610f1e575f5ffd5b80516001600160401b03811115610f3757610f37610c09565b8060051b610f4760208201610c45565b91825260208184018101929081019087841115610f62575f5ffd5b6020850194505b83851015610f9c57845192506001600160e01b031983168314610f8a575f5ffd5b82825260209485019490910190610f69565b979650505050505050565b634e487b7160e01b5f52603260045260245ffd5b602081525f825160c06020840152610fd660e0840182610e09565b90506020840151601f19848303016040850152610ff38282610e09565b91505060ff60408501511660608401526060840151608084015260018060a01b0360808501511660a084015260a084015160c08401528091505092915050565b6001600160a01b03831681526040602082018190525f90610e0190830184610e09565b80516109f981610985565b5f60208284031215611071575f5ffd5b81516107c781610985565b5f82601f83011261108b575f5ffd5b8151611099610cbd82610c75565b8181528460208386010111156110ad575f5ffd5b8160208501602083015e5f918101602001919091529392505050565b80516109f9816109e0565b5f602082840312156110e4575f5ffd5b81516001600160401b038111156110f9575f5ffd5b820160c0818503121561110a575f5ffd5b611112610c1d565b81516001600160401b03811115611127575f5ffd5b6111338682850161107c565b82525060208201516001600160401b0381111561114e575f5ffd5b61115a8682850161107c565b60208301525061116c604083016110c9565b60408201526060828101519082015261118760808301611056565b608082015260a091820151918101919091529392505050565b600181811c908216806111b457607f821691505b6020821081036111d257634e487b7160e01b5f52602260045260245ffd5b50919050565b601f82111561080957805f5260205f20601f840160051c810160208510156111fd5750805b601f840160051c820191505b8181101561121c575f8155600101611209565b5050505050565b81516001600160401b0381111561123c5761123c610c09565b6112508161124a84546111a0565b846111d8565b6020601f821160018114611282575f831561126b5750848201515b5f19600385901b1c1916600184901b17845561121c565b5f84815260208120601f198516915b828110156112b15787850151825560209485019460019092019101611291565b50848210156112ce57868401515f19600387901b60f8161c191681555b50505050600190811b01905550565b8082018082111561048257634e487b7160e01b5f52601160045260245ffdfea2646970667358221220c5367245d8a4b9ea413a4f86154293e6d12b207849989b1a8f7248bfb622387364736f6c634300081e0033","linkReferences":{}},"methodIdentifiers":{"calcSalt(bytes)":"d82be56e","deploy(address,(string,string,uint8,uint256,address,bytes32))":"790652ef","deploy(address,string,string,uint8,uint256,address,bytes32)":"31f23040","diamondConfig()":"65d375b3","facetAddresses()":"52ef6b2c","facetCuts()":"a4b3ad35","facetInterfaces()":"2ea80826","initAccount(bytes)":"870d4838","packageMetadata()":"f45469e7","packageName()":"abc8b346","postDeploy(address)":"70068fcf","processArgs(bytes)":"87c3adb3","updatePkg(address,bytes)":"a9089235"},"id":1307}