{"abi":[{"type":"constructor","inputs":[],"stateMutability":"nonpayable"},{"type":"function","name":"callback","inputs":[],"outputs":[],"stateMutability":"nonpayable"},{"type":"function","name":"countAndCall","inputs":[{"name":"attacker","type":"address","internalType":"contract ReentrancyAttack"}],"outputs":[],"stateMutability":"nonpayable"},{"type":"function","name":"countLocalRecursive","inputs":[{"name":"n","type":"uint256","internalType":"uint256"}],"outputs":[],"stateMutability":"nonpayable"},{"type":"function","name":"countThisRecursive","inputs":[{"name":"n","type":"uint256","internalType":"uint256"}],"outputs":[],"stateMutability":"nonpayable"},{"type":"function","name":"counter","inputs":[],"outputs":[{"name":"","type":"uint256","internalType":"uint256"}],"stateMutability":"view"},{"type":"function","name":"guardedCheckEntered","inputs":[],"outputs":[],"stateMutability":"nonpayable"},{"type":"function","name":"unguardedCheckNotEntered","inputs":[],"outputs":[],"stateMutability":"view"},{"type":"error","name":"ReentrancyGuardReentrantCall","inputs":[]}],"bytecode":{"object":"0x6080604052348015600e575f5ffd5b505f80556104988061001f5f395ff3fe608060405234801561000f575f5ffd5b506004361061006b575f3560e01c8063083b27321461006f57806361bc221a146100795780638c5344fa1461009357806396ffa690146100a6578063a408f312146100b9578063b672ad8b146100c1578063cecc95a7146100d4575b5f5ffd5b6100776100dc565b005b6100815f5481565b60405190815260200160405180910390f35b6100776100a1366004610373565b6100f6565b6100776100b4366004610373565b610207565b61007761022b565b6100776100cf36600461038a565b610243565b6100776102da565b6100e46102eb565b6100ec61032b565b6100f4610343565b565b6100fe6102eb565b80156101fc5761010c61032b565b5f3080638c5344fa61011f6001866103cb565b60405160240161013191815260200190565b60408051601f198184030181529181526020820180516001600160e01b031660e09490941b93909317909252905161016992506103e4565b5f604051808303815f865af19150503d805f81146101a2576040519150601f19603f3d011682016040523d82523d5f602084013e6101a7565b606091505b50509050806101fa5760405162461bcd60e51b815260206004820152601b60248201527a1499595b9d1c985b98de535bd8dace8819985a5b19590818d85b1b602a1b604482015260640160405180910390fd5b505b610204610343565b50565b61020f6102eb565b80156101fc5761021d61032b565b6101fc6100b46001836103cb565b6102336102eb565b61023b61035a565b6100ec575f5ffd5b61024b6102eb565b61025361032b565b6040805160048082526024820183526020820180516001600160e01b031663041d939960e11b179052915163f8123dd560e01b81526001600160a01b0384169263f8123dd5926102a5929091016103fa565b5f604051808303815f87803b1580156102bc575f5ffd5b505af11580156102ce573d5f5f3e3d5ffd5b50505050610204610343565b6102e261035a565b156100f4575f5ffd5b6102f361035a565b1561031157604051633ee5aeb560e01b815260040160405180910390fd5b6100f460015f5160206104435f395f51905f525b9061036c565b60015f5f82825461033c919061042f565b9091555050565b6100f45f5f5160206104435f395f51905f52610325565b5f5160206104435f395f51905f525c90565b80825d5050565b5f60208284031215610383575f5ffd5b5035919050565b5f6020828403121561039a575f5ffd5b81356001600160a01b03811681146103b0575f5ffd5b9392505050565b634e487b7160e01b5f52601160045260245ffd5b818103818111156103de576103de6103b7565b92915050565b5f82518060208501845e5f920191825250919050565b602081525f82518060208401528060208501604085015e5f604082850101526040601f19601f83011684010191505092915050565b808201808211156103de576103de6103b756fe9b779b17422d0df92223018b32b4d1fa46e071723d6817e2486d003becc55f00a2646970667358221220d92ecd6093a0f7042a0abc21fe81e1d06143dcca70f6e5ebb8bc4520df0f627964736f6c634300081e0033","linkReferences":{}},"methodIdentifiers":{"callback()":"083b2732","countAndCall(address)":"b672ad8b","countLocalRecursive(uint256)":"96ffa690","countThisRecursive(uint256)":"8c5344fa","counter()":"61bc221a","guardedCheckEntered()":"a408f312","unguardedCheckNotEntered()":"cecc95a7"},"id":282}