{"abi":[{"type":"constructor","inputs":[],"stateMutability":"nonpayable"},{"type":"function","name":"calcSalt","inputs":[{"name":"pkgArgs","type":"bytes","internalType":"bytes"}],"outputs":[{"name":"salt","type":"bytes32","internalType":"bytes32"}],"stateMutability":"pure"},{"type":"function","name":"diamondConfig","inputs":[],"outputs":[{"name":"config","type":"tuple","internalType":"struct IDiamondFactoryPackage.DiamondConfig","components":[{"name":"facetCuts","type":"tuple[]","internalType":"struct IDiamond.FacetCut[]","components":[{"name":"facetAddress","type":"address","internalType":"address"},{"name":"action","type":"uint8","internalType":"enum IDiamond.FacetCutAction"},{"name":"functionSelectors","type":"bytes4[]","internalType":"bytes4[]"}]},{"name":"interfaces","type":"bytes4[]","internalType":"bytes4[]"}]}],"stateMutability":"view"},{"type":"function","name":"facetAddresses","inputs":[],"outputs":[{"name":"facetAddresses_","type":"address[]","internalType":"address[]"}],"stateMutability":"view"},{"type":"function","name":"facetCuts","inputs":[],"outputs":[{"name":"facetCuts_","type":"tuple[]","internalType":"struct IDiamond.FacetCut[]","components":[{"name":"facetAddress","type":"address","internalType":"address"},{"name":"action","type":"uint8","internalType":"enum IDiamond.FacetCutAction"},{"name":"functionSelectors","type":"bytes4[]","internalType":"bytes4[]"}]}],"stateMutability":"view"},{"type":"function","name":"facetFuncs","inputs":[],"outputs":[{"name":"funcs","type":"bytes4[]","internalType":"bytes4[]"}],"stateMutability":"pure"},{"type":"function","name":"facetInterfaces","inputs":[],"outputs":[{"name":"interfaces","type":"bytes4[]","internalType":"bytes4[]"}],"stateMutability":"pure"},{"type":"function","name":"facetMetadata","inputs":[],"outputs":[{"name":"name","type":"string","internalType":"string"},{"name":"interfaces","type":"bytes4[]","internalType":"bytes4[]"},{"name":"functions","type":"bytes4[]","internalType":"bytes4[]"}],"stateMutability":"pure"},{"type":"function","name":"facetName","inputs":[],"outputs":[{"name":"name","type":"string","internalType":"string"}],"stateMutability":"pure"},{"type":"function","name":"getMessage","inputs":[],"outputs":[{"name":"","type":"string","internalType":"string"}],"stateMutability":"view"},{"type":"function","name":"initAccount","inputs":[{"name":"initArgs","type":"bytes","internalType":"bytes"}],"outputs":[],"stateMutability":"nonpayable"},{"type":"function","name":"packageMetadata","inputs":[],"outputs":[{"name":"name_","type":"string","internalType":"string"},{"name":"interfaces","type":"bytes4[]","internalType":"bytes4[]"},{"name":"facets","type":"address[]","internalType":"address[]"}],"stateMutability":"view"},{"type":"function","name":"packageName","inputs":[],"outputs":[{"name":"name_","type":"string","internalType":"string"}],"stateMutability":"pure"},{"type":"function","name":"postDeploy","inputs":[{"name":"","type":"address","internalType":"address"}],"outputs":[{"name":"","type":"bool","internalType":"bool"}],"stateMutability":"nonpayable"},{"type":"function","name":"processArgs","inputs":[{"name":"pkgArgs","type":"bytes","internalType":"bytes"}],"outputs":[{"name":"processedPkgArgs","type":"bytes","internalType":"bytes"}],"stateMutability":"pure"},{"type":"function","name":"setMessage","inputs":[{"name":"message","type":"string","internalType":"string"}],"outputs":[{"name":"","type":"bool","internalType":"bool"}],"stateMutability":"nonpayable"},{"type":"function","name":"updatePkg","inputs":[{"name":"","type":"address","internalType":"address"},{"name":"","type":"bytes","internalType":"bytes"}],"outputs":[{"name":"","type":"bool","internalType":"bool"}],"stateMutability":"nonpayable"},{"type":"event","name":"NewMessage","inputs":[{"name":"oldMessage","type":"string","indexed":false,"internalType":"string"},{"name":"newMessage","type":"string","indexed":false,"internalType":"string"}],"anonymous":false}],"bytecode":{"object":"0x60a0604052348015600e575f5ffd5b5030608052608051610cdf6100325f395f81816102b1015261046a0152610cdf5ff3fe608060405234801561000f575f5ffd5b50600436106100ce575f3560e01c80632ea80826146100d2578063368b8772146100f057806352ef6b2c14610113578063574a4cff146101285780635b6f4d011461013057806365d375b31461014557806370068fcf1461015a578063870d48381461016e57806387c3adb314610183578063a4b3ad3514610194578063a9089235146101a9578063abc8b346146101bf578063ce6d41de146101c7578063d82be56e146101cf578063f10d7a75146101f0578063f45469e714610207575b5f5ffd5b6100da61021e565b6040516100e791906106ce565b60405180910390f35b6101036100fe36600461078c565b61022d565b60405190151581526020016100e7565b61011b61028d565b6040516100e79190610811565b6100da610305565b610138610392565b6040516100e79190610851565b61014d6103b8565b6040516100e79190610905565b610103610168366004610961565b50600190565b61018161017c366004610998565b6103f3565b005b610138610191366004610998565b90565b61019c610412565b6040516100e791906109c9565b6101036101b73660046109db565b600192915050565b6101386104c2565b6101386104e2565b6101e26101dd366004610998565b6104ec565b6040519081526020016100e7565b6101f861051b565b6040516100e793929190610a25565b61020f610543565b6040516100e793929190610a67565b6060610228610564565b905090565b5f5f6102376105a0565b90507f33f9897216838d3426adfbb9dcb455323ae7e170a584880d835bc7327ad6137d610263826105c4565b84604051610272929190610a9f565b60405180910390a16102848184610657565b50600192915050565b604080516001808252818301909252606091602080830190803683370190505090507f0000000000000000000000000000000000000000000000000000000000000000815f815181106102e2576102e2610ac3565b60200260200101906001600160a01b031690816001600160a01b03168152505090565b604080516002808252606080830184529260208301908036833701905050905063ce6d41de60e01b815f8151811061033f5761033f610ac3565b6001600160e01b0319909216602092830291909101909101528051631b45c3b960e11b908290600190811061037657610376610ac3565b6001600160e01b03199092166020928302919091019091015290565b60408051808201909152600c81526b11dc99595d195c919858d95d60a21b602082015290565b604080518082019091526060808252602082015260405180604001604052806103df610412565b81526020016103ec61021e565b9052919050565b61040f8180602001905181019061040a9190610ad7565b610667565b50565b604080516001808252818301909252606091816020015b60408051606080820183525f808352602083015291810191909152815260200190600190039081610429575050604080516060810182526001600160a01b037f00000000000000000000000000000000000000000000000000000000000000001681525f6020820152919250810161049f610305565b815250815f815181106104b4576104b4610ac3565b602002602001018190525090565b6060604051806060016040526021815280602001610c8960219139905090565b6060610228610678565b5f816040516020016104fe9190610851565b604051602081830303815290604052805190602001209050919050565b6060806060610528610392565b925061053261021e565b915061053c610305565b9050909192565b60608060606105506104c2565b925061055a61021e565b915061053c61028d565b60408051600180825281830190925260609160208083019080368337019050509050633e39b1ab60e21b815f8151811061037657610376610ac3565b7fd32bbaeef0dc4ce0a1707655450e5e93886dfad6f521b6fb7c9b8f3a455fa26590565b6060815f0180546105d490610b4b565b80601f016020809104026020016040519081016040528092919081815260200182805461060090610b4b565b801561064b5780601f106106225761010080835404028352916020019161064b565b820191905f5260205f20905b81548152906001019060200180831161062e57829003601f168201915b50505050509050919050565b816106628282610bce565b505050565b61040f6106726105a0565b82610657565b60606102286106856105a0565b6105c4565b5f8151808452602084019350602083015f5b828110156106c45781516001600160e01b03191686526020958601959091019060010161069c565b5093949350505050565b602081525f6106e0602083018461068a565b9392505050565b634e487b7160e01b5f52604160045260245ffd5b604051601f8201601f191681016001600160401b0381118282101715610723576107236106e7565b604052919050565b5f6001600160401b03821115610743576107436106e7565b50601f01601f191660200190565b5f61076361075e8461072b565b6106fb565b9050828152838383011115610776575f5ffd5b828260208301375f602084830101529392505050565b5f6020828403121561079c575f5ffd5b81356001600160401b038111156107b1575f5ffd5b8201601f810184136107c1575f5ffd5b6107d084823560208401610751565b949350505050565b5f8151808452602084019350602083015f5b828110156106c45781516001600160a01b03168652602095860195909101906001016107ea565b602081525f6106e060208301846107d8565b5f81518084528060208401602086015e5f602082860101526020601f19601f83011685010191505092915050565b602081525f6106e06020830184610823565b5f82825180855260208501945060208160051b830101602085015f5b838110156108f957848303601f19018852815180516001600160a01b031684526020810151600381106108c057634e487b7160e01b5f52602160045260245ffd5b8060208601525060408101519050606060408501526108e2606085018261068a565b6020998a019990945092909201915060010161087f565b50909695505050505050565b602081525f8251604060208401526109206060840182610863565b90506020840151601f1984830301604085015261093d828261068a565b95945050505050565b80356001600160a01b038116811461095c575f5ffd5b919050565b5f60208284031215610971575f5ffd5b6106e082610946565b5f82601f830112610989575f5ffd5b6106e083833560208501610751565b5f602082840312156109a8575f5ffd5b81356001600160401b038111156109bd575f5ffd5b6107d08482850161097a565b602081525f6106e06020830184610863565b5f5f604083850312156109ec575f5ffd5b6109f583610946565b915060208301356001600160401b03811115610a0f575f5ffd5b610a1b8582860161097a565b9150509250929050565b606081525f610a376060830186610823565b8281036020840152610a49818661068a565b90508281036040840152610a5d818561068a565b9695505050505050565b606081525f610a796060830186610823565b8281036020840152610a8b818661068a565b90508281036040840152610a5d81856107d8565b604081525f610ab16040830185610823565b828103602084015261093d8185610823565b634e487b7160e01b5f52603260045260245ffd5b5f60208284031215610ae7575f5ffd5b81516001600160401b03811115610afc575f5ffd5b8201601f81018413610b0c575f5ffd5b8051610b1a61075e8261072b565b818152856020838501011115610b2e575f5ffd5b8160208401602083015e5f91810160200191909152949350505050565b600181811c90821680610b5f57607f821691505b602082108103610b7d57634e487b7160e01b5f52602260045260245ffd5b50919050565b601f82111561066257805f5260205f20601f840160051c81016020851015610ba85750805b601f840160051c820191505b81811015610bc7575f8155600101610bb4565b5050505050565b81516001600160401b03811115610be757610be76106e7565b610bfb81610bf58454610b4b565b84610b83565b6020601f821160018114610c2d575f8315610c165750848201515b5f19600385901b1c1916600184901b178455610bc7565b5f84815260208120601f198516915b82811015610c5c5787850151825560209485019460019092019101610c3c565b5084821015610c7957868401515f19600387901b60f8161c191681555b50505050600190811b0190555056fe4772656574657246616365744469616d6f6e64466163746f72795061636b616765a2646970667358221220276b2496ec2dc3c544758b5aab3531d76e7876552c7f7e480edd89e1cc480ae164736f6c634300081e0033","linkReferences":{}},"methodIdentifiers":{"calcSalt(bytes)":"d82be56e","diamondConfig()":"65d375b3","facetAddresses()":"52ef6b2c","facetCuts()":"a4b3ad35","facetFuncs()":"574a4cff","facetInterfaces()":"2ea80826","facetMetadata()":"f10d7a75","facetName()":"5b6f4d01","getMessage()":"ce6d41de","initAccount(bytes)":"870d4838","packageMetadata()":"f45469e7","packageName()":"abc8b346","postDeploy(address)":"70068fcf","processArgs(bytes)":"87c3adb3","setMessage(string)":"368b8772","updatePkg(address,bytes)":"a9089235"},"id":1298}