{"abi":[{"type":"constructor","inputs":[{"name":"owner_","type":"address","internalType":"address"},{"name":"create3Factory_","type":"address","internalType":"contract ICreate3Factory"}],"stateMutability":"nonpayable"},{"type":"function","name":"acceptOwnershipTransfer","inputs":[],"outputs":[],"stateMutability":"nonpayable"},{"type":"function","name":"allPackages","inputs":[],"outputs":[{"name":"packages","type":"address[]","internalType":"address[]"}],"stateMutability":"view"},{"type":"function","name":"cancelPendingOwnershipTransfer","inputs":[],"outputs":[],"stateMutability":"nonpayable"},{"type":"function","name":"confirmOwnershipTransfer","inputs":[{"name":"pendingOwner_","type":"address","internalType":"address"}],"outputs":[],"stateMutability":"nonpayable"},{"type":"function","name":"create3Factory","inputs":[],"outputs":[{"name":"","type":"address","internalType":"contract ICreate3Factory"}],"stateMutability":"view"},{"type":"function","name":"deplayPackage","inputs":[{"name":"initCode","type":"bytes","internalType":"bytes"},{"name":"constructorArgs","type":"bytes","internalType":"bytes"},{"name":"salt","type":"bytes32","internalType":"bytes32"}],"outputs":[{"name":"package","type":"address","internalType":"contract IDiamondFactoryPackage"}],"stateMutability":"nonpayable"},{"type":"function","name":"deployPackage","inputs":[{"name":"initCode","type":"bytes","internalType":"bytes"},{"name":"salt","type":"bytes32","internalType":"bytes32"}],"outputs":[{"name":"package","type":"address","internalType":"contract IDiamondFactoryPackage"}],"stateMutability":"nonpayable"},{"type":"function","name":"facetsOfPackage","inputs":[{"name":"package","type":"address","internalType":"contract IDiamondFactoryPackage"},{"name":"","type":"uint256","internalType":"uint256"}],"outputs":[{"name":"facets","type":"address","internalType":"address"}],"stateMutability":"view"},{"type":"function","name":"getOwnershipTransferBuffer","inputs":[],"outputs":[{"name":"","type":"uint256","internalType":"uint256"}],"stateMutability":"view"},{"type":"function","name":"initiateOwnershipTransfer","inputs":[{"name":"pendingOwner_","type":"address","internalType":"address"}],"outputs":[],"stateMutability":"nonpayable"},{"type":"function","name":"interfacesOfPackage","inputs":[{"name":"package","type":"address","internalType":"contract IDiamondFactoryPackage"},{"name":"","type":"uint256","internalType":"uint256"}],"outputs":[{"name":"interfaces","type":"bytes4","internalType":"bytes4"}],"stateMutability":"view"},{"type":"function","name":"isOperator","inputs":[{"name":"query","type":"address","internalType":"address"}],"outputs":[{"name":"","type":"bool","internalType":"bool"}],"stateMutability":"view"},{"type":"function","name":"isOperatorFor","inputs":[{"name":"func","type":"bytes4","internalType":"bytes4"},{"name":"query","type":"address","internalType":"address"}],"outputs":[{"name":"","type":"bool","internalType":"bool"}],"stateMutability":"view"},{"type":"function","name":"nameOfPackage","inputs":[{"name":"package","type":"address","internalType":"contract IDiamondFactoryPackage"}],"outputs":[{"name":"name","type":"string","internalType":"string"}],"stateMutability":"view"},{"type":"function","name":"owner","inputs":[],"outputs":[{"name":"","type":"address","internalType":"address"}],"stateMutability":"view"},{"type":"function","name":"packagesByFacet","inputs":[{"name":"facet","type":"address","internalType":"contract IFacet"}],"outputs":[{"name":"packages","type":"address[]","internalType":"address[]"}],"stateMutability":"view"},{"type":"function","name":"packagesByInterface","inputs":[{"name":"interfaceId","type":"bytes4","internalType":"bytes4"}],"outputs":[{"name":"packages","type":"address[]","internalType":"address[]"}],"stateMutability":"view"},{"type":"function","name":"packagesByName","inputs":[{"name":"name","type":"string","internalType":"string"}],"outputs":[{"name":"packages","type":"address[]","internalType":"address[]"}],"stateMutability":"view"},{"type":"function","name":"pendingOwner","inputs":[],"outputs":[{"name":"","type":"address","internalType":"address"}],"stateMutability":"view"},{"type":"function","name":"preConfirmedOwner","inputs":[],"outputs":[{"name":"","type":"address","internalType":"address"}],"stateMutability":"view"},{"type":"function","name":"setOperator","inputs":[{"name":"operator","type":"address","internalType":"address"},{"name":"status","type":"bool","internalType":"bool"}],"outputs":[{"name":"","type":"bool","internalType":"bool"}],"stateMutability":"nonpayable"},{"type":"function","name":"setOperatorFor","inputs":[{"name":"func","type":"bytes4","internalType":"bytes4"},{"name":"newOperator","type":"address","internalType":"address"},{"name":"approval","type":"bool","internalType":"bool"}],"outputs":[{"name":"","type":"bool","internalType":"bool"}],"stateMutability":"nonpayable"},{"type":"event","name":"NewFunctionOperatorStatus","inputs":[{"name":"operator","type":"address","indexed":false,"internalType":"address"},{"name":"func","type":"bytes4","indexed":false,"internalType":"bytes4"},{"name":"status","type":"bool","indexed":false,"internalType":"bool"}],"anonymous":false},{"type":"event","name":"NewGlobalOperatorStatus","inputs":[{"name":"operator","type":"address","indexed":false,"internalType":"address"},{"name":"status","type":"bool","indexed":false,"internalType":"bool"}],"anonymous":false},{"type":"event","name":"OwnershipTransferConfirmed","inputs":[{"name":"prevOwner","type":"address","indexed":true,"internalType":"address"},{"name":"newOwner","type":"address","indexed":true,"internalType":"address"}],"anonymous":false},{"type":"event","name":"OwnershipTransferInitiated","inputs":[{"name":"prevOwner","type":"address","indexed":true,"internalType":"address"},{"name":"newOwner","type":"address","indexed":true,"internalType":"address"}],"anonymous":false},{"type":"event","name":"OwnershipTransferred","inputs":[{"name":"prevOwner","type":"address","indexed":true,"internalType":"address"},{"name":"newOwner","type":"address","indexed":true,"internalType":"address"}],"anonymous":false},{"type":"error","name":"BufferPeriodNotElapsed","inputs":[{"name":"currentTime","type":"uint256","internalType":"uint256"},{"name":"bufferEndTime","type":"uint256","internalType":"uint256"}]},{"type":"error","name":"NotOperator","inputs":[{"name":"caller","type":"address","internalType":"address"}]},{"type":"error","name":"NotOwner","inputs":[{"name":"caller","type":"address","internalType":"address"}]},{"type":"error","name":"NotPending","inputs":[{"name":"caller","type":"address","internalType":"address"}]}],"bytecode":{"object":"0x60a060405234801561000f575f5ffd5b50604051611aad380380611aad83398101604081905261002e916101f0565b6001600160a01b038116608052610048826203f48061005a565b61005381600161008a565b5050610228565b61008661006561009c565b80546001600160a01b0319166001600160a01b038516178155600201829055565b5050565b6100866100956100c5565b838361012b565b7f552e522d4f9b6a3d443b47299f900b7b1bce2dacca532b0186b605495413451d90565b905090565b5f6100c060405160200161010a9060208082526015908201527f6372616e652e6163636573732e6f70657261626c650000000000000000000000604082015260600190565b6040516020818303038152906040528051906020012061019460201b60201c565b610133610197565b6001600160a01b0382165f8181526020858152604091829020805460ff19168515159081179091558251938452908301527f26ba28058a3c072a70c8fd315037fe9b3957237cef5c61a9652a8da41c673daa910160405180910390a1505050565b90565b6101a76101a261009c565b6101a9565b565b80546001600160a01b031633146101d95760405163245aecd360e01b815233600482015260240160405180910390fd5b50565b6001600160a01b03811681146101d9575f5ffd5b5f5f60408385031215610201575f5ffd5b825161020c816101dc565b602084015190925061021d816101dc565b809150509250929050565b60805161185f61024e5f395f81816101490152818161048a0152610642015261185f5ff3fe608060405234801561000f575f5ffd5b5060043610610110575f3560e01c80630f9f2530146101145780631af1b0c41461012f5780632f02724214610144578063383f5adf1461016b5780633c2139571461019757806350e4fe75146101ac578063558a7297146101cc57806357c7cde1146101ef5780636b8985f0146102025780636d70f7ae14610215578063737293e214610228578063755dbe7c146102305780637ff8bd87146102435780638da5cb5b146102635780639e0eca2c1461026b578063ad0619af1461027e578063b842e87f14610291578063b92811c514610299578063c0b6f561146102a1578063cb08be22146102b4578063e30c3978146102c7578063ea562a25146102cf575b5f5ffd5b61011c6102e2565b6040519081526020015b60405180910390f35b6101376102f0565b60405161012691906110c1565b6101377f000000000000000000000000000000000000000000000000000000000000000081565b61017e6101793660046110e9565b6102f9565b6040516001600160e01b03199091168152602001610126565b6101aa6101a5366004611113565b61033a565b005b6101bf6101ba366004611172565b610346565b60405161012691906111b0565b6101df6101da36600461120f565b6103d1565b6040519015158152602001610126565b6101bf6101fd366004611257565b6103ed565b610137610210366004611272565b61046a565b6101df610223366004611113565b61051b565b6101aa610525565b6101df61023e3660046112e3565b61052f565b610256610251366004611113565b61054e565b6040516101269190611327565b6101376105e5565b6101376102793660046110e9565b6105ee565b61013761028c36600461135c565b610622565b6101aa6106c6565b6101bf6106ce565b6101aa6102af366004611113565b61072e565b6101bf6102c2366004611113565b610737565b610137610759565b6101df6102dd3660046113a3565b610762565b5f6102eb61076d565b905090565b5f6102eb610780565b6001602052815f5260405f208181548110610312575f80fd5b905f5260205f209060089182820401919006600402915091509054906101000a900460e01b81565b61034381610791565b50565b60606103716003848460405161035d9291906113da565b908152602001604051809103902060010190565b8054806020026020016040519081016040528092919081815260200182805480156103c357602002820191905f5260205f20905b81546001600160a01b031681526001909101906020018083116103a5575b505050505090505b92915050565b5f6103da6107a2565b6103e483836107b2565b50600192915050565b6001600160e01b031981165f9081526004602052604090206060906001015b80548060200260200160405190810160405280929190818152602001828054801561045e57602002820191905f5260205f20905b81546001600160a01b03168152600190910190602001808311610440575b50505050509050919050565b5f6104736107c8565b604051631f7fe4db60e01b81526001600160a01b037f00000000000000000000000000000000000000000000000000000000000000001690631f7fe4db906104c79089908990899089908990600401611411565b6020604051808303815f875af11580156104e3573d5f5f3e3d5ffd5b505050506040513d601f19601f82011682018060405250810190610507919061144a565b9050610512816107d8565b95945050505050565b5f6103cb826109bd565b61052d6109cf565b565b5f6105386107a2565b6105438484846109df565b5060015b9392505050565b5f602081905290815260409020805461056690611465565b80601f016020809104026020016040519081016040528092919081815260200182805461059290611465565b80156105dd5780601f106105b4576101008083540402835291602001916105dd565b820191905f5260205f20905b8154815290600101906020018083116105c057829003601f168201915b505050505081565b5f6102eb6109f7565b6002602052815f5260405f208181548110610607575f80fd5b5f918252602090912001546001600160a01b03169150829050565b5f61062b6107c8565b60405163a7b62a7f60e01b81526001600160a01b037f0000000000000000000000000000000000000000000000000000000000000000169063a7b62a7f9061067b9087908790879060040161149d565b6020604051808303815f875af1158015610697573d5f5f3e3d5ffd5b505050506040513d601f19601f820116820180604052508101906106bb919061144a565b9050610547816107d8565b61052d610a10565b6060600780548060200260200160405190810160405280929190818152602001828054801561072457602002820191905f5260205f20905b81546001600160a01b03168152600190910190602001808311610706575b5050505050905090565b61034381610a20565b6001600160a01b0381165f90815260056020526040902060609060010161040c565b5f6102eb610a31565b5f6105478383610a4d565b5f6102eb610779610a60565b6002015490565b5f6102eb61078c610a60565b610a84565b61034361079c610a60565b82610ab1565b61052d6107ad610a60565b610ba3565b6107c46107bd610bcf565b8383610c25565b5050565b61052d6107d3610bcf565b610c8e565b5f5f5f836001600160a01b031663f45469e76040518163ffffffff1660e01b81526004015f60405180830381865afa158015610816573d5f5f3e3d5ffd5b505050506040513d5f823e601f3d908101601f1916820160405261083d91908101906115fd565b6001600160a01b0387165f90815260208190526040902092955090935091506108668482611726565b506001600160a01b0384165f908152600160209081526040909120835161088f92850190610fb1565b506001600160a01b0384165f90815260026020908152604090912082516108b89284019061105a565b506108e2846003856040516108cd91906117e0565b90815260405190819003602001902090610cf4565b505f5b82518110156109475761093e8560045f868581518110610907576109076117f6565b60200260200101516001600160e01b0319166001600160e01b03191681526020019081526020015f20610cf490919063ffffffff16565b506001016108e5565b505f5b81518110156109aa576109a18560055f85858151811061096c5761096c6117f6565b60200260200101516001600160a01b03166001600160a01b031681526020019081526020015f20610cf490919063ffffffff16565b5060010161094a565b506109b6600685610cf4565b5050505050565b5f6103cb6109c9610bcf565b83610d58565b61052d6109da610a60565b610d76565b6109f26109ea610bcf565b848484610dbf565b505050565b5f6102eb610a03610a60565b546001600160a01b031690565b61052d610a1b610a60565b610e4a565b610343610a2b610a60565b82610ee4565b5f6102eb610a3d610a60565b600101546001600160a01b031690565b5f610547610a59610bcf565b8484610f78565b7f552e522d4f9b6a3d443b47299f900b7b1bce2dacca532b0186b605495413451d90565b60018101545f90600160a01b900460ff16610aa057505f919050565b50600101546001600160a01b031690565b81546001600160a01b0316338114610ae7573360405163245aecd360e01b8152600401610ade91906110c1565b60405180910390fd5b8260030154421015610b1b57600383015460405163d64ede7360e01b81524260048201526024810191909152604401610ade565b60018301546001600160a01b039081169083168114610b4f578260405163a7fa19b160e01b8152600401610ade91906110c1565b60018401805460ff60a01b198116600160a01b179091556040516001600160a01b03918216918416907f646fe5eeb20d96ea45a9caafcb508854a2fb5660885ced7772e12a633c974571905f90a350505050565b80546001600160a01b03163314610343573360405163245aecd360e01b8152600401610ade91906110c1565b5f6102eb604051602001610c0c906020808252601590820152746372616e652e6163636573732e6f70657261626c6560581b604082015260600190565b6040516020818303038152906040528051906020012090565b610c2d6107a2565b6001600160a01b0382165f8181526020858152604091829020805460ff19168515159081179091558251938452908301527f26ba28058a3c072a70c8fd315037fe9b3957237cef5c61a9652a8da41c673daa910160405180910390a1505050565b33610c976109f7565b6001600160a01b031614158015610cb55750610cb38133610d58565b155b8015610cd45750610cd2815f356001600160e01b03191633610f78565b155b156103435733604051633b63649d60e11b8152600401610ade91906110c1565b6001600160a01b0381165f908152602083905260408120546103e457506001828101805480830182555f828152602080822090920180546001600160a01b0319166001600160a01b0396909616958617905591549382529390935260409092205590565b6001600160a01b03165f908152602091909152604090205460ff1690565b80546001600160a01b0316338114610da3573360405163245aecd360e01b8152600401610ade91906110c1565b506001810180546001600160a81b03191690555f600390910155565b610dc76107a2565b6001600160e01b031983165f81815260018601602090815260408083206001600160a01b03871680855290835292819020805486151560ff1990911681179091558151938452918301939093528183015290517ff071216dc06459e77b915d1883909d92f41239172000b60261dfdc03518895699181900360600190a150505050565b60018101546001600160a01b0316338114610e7a573360405163a7fa19b160e01b8152600401610ade91906110c1565b81546001600160a01b038281166001600160a01b03198316811785556001850180546001600160a81b03191690555f600386018190556040519290931692909183917f8be0079c531659141344cd1fd0a4f28419497f9722a3daafe3b4186f6b6457e091a3505050565b81546001600160a01b0316338114610f11573360405163245aecd360e01b8152600401610ade91906110c1565b6002830154610f20904261180a565b60038401556001830180546001600160a01b0319166001600160a01b0384811691821790925560405190918316907fb150023a879fd806e3599b6ca8ee3b60f0e360ab3846d128d67ebce1a391639a905f90a3505050565b6001600160e01b031982165f90815260018401602090815260408083206001600160a01b038516845290915290205460ff169392505050565b828054828255905f5260205f209060070160089004810192821561104a579160200282015f5b8382111561101857835183826101000a81548163ffffffff021916908360e01c02179055509260200192600401602081600301049283019260010302610fd7565b80156110485782816101000a81549063ffffffff0219169055600401602081600301049283019260010302611018565b505b506110569291506110ad565b5090565b828054828255905f5260205f2090810192821561104a579160200282015b8281111561104a57825182546001600160a01b0319166001600160a01b03909116178255602090920191600190910190611078565b5b80821115611056575f81556001016110ae565b6001600160a01b0391909116815260200190565b6001600160a01b0381168114610343575f5ffd5b5f5f604083850312156110fa575f5ffd5b8235611105816110d5565b946020939093013593505050565b5f60208284031215611123575f5ffd5b8135610547816110d5565b5f5f83601f84011261113e575f5ffd5b5081356001600160401b03811115611154575f5ffd5b60208301915083602082850101111561116b575f5ffd5b9250929050565b5f5f60208385031215611183575f5ffd5b82356001600160401b03811115611198575f5ffd5b6111a48582860161112e565b90969095509350505050565b602080825282518282018190525f918401906040840190835b818110156111f05783516001600160a01b03168352602093840193909201916001016111c9565b509095945050505050565b8035801515811461120a575f5ffd5b919050565b5f5f60408385031215611220575f5ffd5b823561122b816110d5565b9150611239602084016111fb565b90509250929050565b6001600160e01b031981168114610343575f5ffd5b5f60208284031215611267575f5ffd5b813561054781611242565b5f5f5f5f5f60608688031215611286575f5ffd5b85356001600160401b0381111561129b575f5ffd5b6112a78882890161112e565b90965094505060208601356001600160401b038111156112c5575f5ffd5b6112d18882890161112e565b96999598509660400135949350505050565b5f5f5f606084860312156112f5575f5ffd5b833561130081611242565b92506020840135611310816110d5565b915061131e604085016111fb565b90509250925092565b602081525f82518060208401528060208501604085015e5f604082850101526040601f19601f83011684010191505092915050565b5f5f5f6040848603121561136e575f5ffd5b83356001600160401b03811115611383575f5ffd5b61138f8682870161112e565b909790965060209590950135949350505050565b5f5f604083850312156113b4575f5ffd5b82356113bf81611242565b915060208301356113cf816110d5565b809150509250929050565b818382375f9101908152919050565b81835281816020850137505f828201602090810191909152601f909101601f19169091010190565b606081525f6114246060830187896113e9565b82810360208401526114378186886113e9565b9150508260408301529695505050505050565b5f6020828403121561145a575f5ffd5b8151610547816110d5565b600181811c9082168061147957607f821691505b60208210810361149757634e487b7160e01b5f52602260045260245ffd5b50919050565b604081525f6114b06040830185876113e9565b9050826020830152949350505050565b634e487b7160e01b5f52604160045260245ffd5b604051601f8201601f191681016001600160401b03811182821017156114fc576114fc6114c0565b604052919050565b5f6001600160401b0382111561151c5761151c6114c0565b5060051b60200190565b5f82601f830112611535575f5ffd5b815161154861154382611504565b6114d4565b8082825260208201915060208360051b860101925085831115611569575f5ffd5b602085015b8381101561158f57805161158181611242565b83526020928301920161156e565b5095945050505050565b5f82601f8301126115a8575f5ffd5b81516115b661154382611504565b8082825260208201915060208360051b8601019250858311156115d7575f5ffd5b602085015b8381101561158f5780516115ef816110d5565b8352602092830192016115dc565b5f5f5f6060848603121561160f575f5ffd5b83516001600160401b03811115611624575f5ffd5b8401601f81018613611634575f5ffd5b80516001600160401b0381111561164d5761164d6114c0565b611660601f8201601f19166020016114d4565b818152876020838501011115611674575f5ffd5b8160208401602083015e5f60208383010152809550505050602084015160018060401b038111156116a3575f5ffd5b6116af86828701611526565b604086015190935090506001600160401b038111156116cc575f5ffd5b6116d886828701611599565b9150509250925092565b601f8211156109f257805f5260205f20601f840160051c810160208510156117075750805b601f840160051c820191505b818110156109b6575f8155600101611713565b81516001600160401b0381111561173f5761173f6114c0565b6117538161174d8454611465565b846116e2565b6020601f821160018114611785575f831561176e5750848201515b5f19600385901b1c1916600184901b1784556109b6565b5f84815260208120601f198516915b828110156117b45787850151825560209485019460019092019101611794565b50848210156117d157868401515f19600387901b60f8161c191681555b50505050600190811b01905550565b5f82518060208501845e5f920191825250919050565b634e487b7160e01b5f52603260045260245ffd5b808201808211156103cb57634e487b7160e01b5f52601160045260245ffdfea2646970667358221220007020a21ce51b970a0a4f9b0b983c06fe997c5cd9b9cf1557daf2a049d5ed9e64736f6c634300081e0033","linkReferences":{}},"methodIdentifiers":{"acceptOwnershipTransfer()":"b842e87f","allPackages()":"b92811c5","cancelPendingOwnershipTransfer()":"737293e2","confirmOwnershipTransfer(address)":"3c213957","create3Factory()":"2f027242","deplayPackage(bytes,bytes,bytes32)":"6b8985f0","deployPackage(bytes,bytes32)":"ad0619af","facetsOfPackage(address,uint256)":"9e0eca2c","getOwnershipTransferBuffer()":"0f9f2530","initiateOwnershipTransfer(address)":"c0b6f561","interfacesOfPackage(address,uint256)":"383f5adf","isOperator(address)":"6d70f7ae","isOperatorFor(bytes4,address)":"ea562a25","nameOfPackage(address)":"7ff8bd87","owner()":"8da5cb5b","packagesByFacet(address)":"cb08be22","packagesByInterface(bytes4)":"57c7cde1","packagesByName(string)":"50e4fe75","pendingOwner()":"e30c3978","preConfirmedOwner()":"1af1b0c4","setOperator(address,bool)":"558a7297","setOperatorFor(bytes4,address,bool)":"755dbe7c"},"id":1267}