{"abi":[{"type":"function","name":"approve","inputs":[{"name":"to","type":"address","internalType":"address"},{"name":"tokenId","type":"uint256","internalType":"uint256"}],"outputs":[],"stateMutability":"payable"},{"type":"function","name":"balanceOf","inputs":[{"name":"owner","type":"address","internalType":"address"}],"outputs":[{"name":"","type":"uint256","internalType":"uint256"}],"stateMutability":"view"},{"type":"function","name":"getApproved","inputs":[{"name":"tokenId","type":"uint256","internalType":"uint256"}],"outputs":[{"name":"","type":"address","internalType":"address"}],"stateMutability":"view"},{"type":"function","name":"isApprovedForAll","inputs":[{"name":"owner","type":"address","internalType":"address"},{"name":"operator","type":"address","internalType":"address"}],"outputs":[{"name":"","type":"bool","internalType":"bool"}],"stateMutability":"view"},{"type":"function","name":"ownerOf","inputs":[{"name":"tokenId","type":"uint256","internalType":"uint256"}],"outputs":[{"name":"","type":"address","internalType":"address"}],"stateMutability":"view"},{"type":"function","name":"safeTransferFrom","inputs":[{"name":"from","type":"address","internalType":"address"},{"name":"to","type":"address","internalType":"address"},{"name":"tokenId","type":"uint256","internalType":"uint256"}],"outputs":[],"stateMutability":"payable"},{"type":"function","name":"safeTransferFrom","inputs":[{"name":"from","type":"address","internalType":"address"},{"name":"to","type":"address","internalType":"address"},{"name":"tokenId","type":"uint256","internalType":"uint256"},{"name":"data","type":"bytes","internalType":"bytes"}],"outputs":[],"stateMutability":"payable"},{"type":"function","name":"setApprovalForAll","inputs":[{"name":"operator","type":"address","internalType":"address"},{"name":"approved","type":"bool","internalType":"bool"}],"outputs":[],"stateMutability":"nonpayable"},{"type":"function","name":"transferFrom","inputs":[{"name":"from","type":"address","internalType":"address"},{"name":"to","type":"address","internalType":"address"},{"name":"tokenId","type":"uint256","internalType":"uint256"}],"outputs":[],"stateMutability":"payable"},{"type":"event","name":"Approval","inputs":[{"name":"owner","type":"address","indexed":true,"internalType":"address"},{"name":"account","type":"address","indexed":true,"internalType":"address"},{"name":"id","type":"uint256","indexed":true,"internalType":"uint256"}],"anonymous":false},{"type":"event","name":"ApprovalForAll","inputs":[{"name":"owner","type":"address","indexed":true,"internalType":"address"},{"name":"operator","type":"address","indexed":true,"internalType":"address"},{"name":"isApproved","type":"bool","indexed":false,"internalType":"bool"}],"anonymous":false},{"type":"event","name":"Transfer","inputs":[{"name":"from","type":"address","indexed":true,"internalType":"address"},{"name":"to","type":"address","indexed":true,"internalType":"address"},{"name":"id","type":"uint256","indexed":true,"internalType":"uint256"}],"anonymous":false},{"type":"error","name":"ERC721IncorrectOwner","inputs":[{"name":"sender","type":"address","internalType":"address"},{"name":"tokenId","type":"uint256","internalType":"uint256"},{"name":"owner","type":"address","internalType":"address"}]},{"type":"error","name":"ERC721InsufficientApproval","inputs":[{"name":"operator","type":"address","internalType":"address"},{"name":"tokenId","type":"uint256","internalType":"uint256"}]},{"type":"error","name":"ERC721InvalidOperator","inputs":[{"name":"operator","type":"address","internalType":"address"}]},{"type":"error","name":"ERC721InvalidOwner","inputs":[{"name":"owner","type":"address","internalType":"address"}]},{"type":"error","name":"ERC721InvalidReceiver","inputs":[{"name":"receiver","type":"address","internalType":"address"}]},{"type":"error","name":"ERC721NonexistentToken","inputs":[{"name":"tokenId","type":"uint256","internalType":"uint256"}]}],"bytecode":{"object":"0x6080604052348015600e575f5ffd5b50610b028061001c5f395ff3fe608060405260043610610075575f3560e01c8063081812fc14610079578063095ea7b3146100ae57806323b872dd146100c357806342842e0e146100d65780636352211e146100e957806370a0823114610108578063a22cb46514610135578063b88d4fde14610154578063e985e9c514610167575b5f5ffd5b348015610084575f5ffd5b50610098610093366004610829565b610196565b6040516100a59190610840565b60405180910390f35b6100c16100bc36600461086f565b6101a6565b005b6100c16100d1366004610897565b6101b4565b6100c16100e4366004610897565b6101c4565b3480156100f4575f5ffd5b50610098610103366004610829565b6101cf565b348015610113575f5ffd5b506101276101223660046108d1565b6101d9565b6040519081526020016100a5565b348015610140575f5ffd5b506100c161014f3660046108ea565b6101e3565b6100c1610162366004610923565b6101ed565b348015610172575f5ffd5b506101866101813660046109b6565b610235565b60405190151581526020016100a5565b5f6101a082610247565b92915050565b6101b08282610271565b5050565b6101bf838383610283565b505050565b6101bf838383610296565b5f6101a0826102b8565b5f6101a0826102ca565b6101b082826102f5565b61022e85858585858080601f0160208091040260200160405190810160405280939291908181526020018383808284375f9201919091525061030792505050565b5050505050565b5f6102408383610321565b9392505050565b5f6101a061025361035d565b5f84815260069190910160205260409020546001600160a01b031690565b6101b061027c61035d565b83836103ae565b6101bf61028e61035d565b84848461047a565b6101bf6102a161035d565b84848460405180602001604052805f815250610698565b5f6101a06102c461035d565b83610774565b5f6101a06102d661035d565b836001600160a01b03165f908152600591909101602052604090205490565b6101b061030061035d565b8383610792565b61031b61031261035d565b85858585610698565b50505050565b5f61024061032d61035d565b6001600160a01b038086165f90815260079290920160209081526040808420928716845291905290205460ff1690565b5f6103a9604051602001610390906020808252600b908201526a6569702e6572632e37323160a81b604082015260600190565b6040516020818303038152906040528051906020012090565b905090565b6001600160a01b0382166103e05781604051630b61174360e31b81526004016103d79190610840565b60405180910390fd5b5f6103eb8483610774565b90506001600160a01b038116331461041c573382826040516364283d7b60e01b81526004016103d7939291906109e7565b5f82815260068501602052604080822080546001600160a01b0319166001600160a01b0387811691821790925591518593918516917f8c5be1e5ebec7d5bd14f71427d1e84f3dd0314c0f7b2291e5b200ac8c7c3b92591a450505050565b6001600160a01b0383166104a357826040516322718ad960e21b81526004016103d79190610840565b6001600160a01b0382166104cc57816040516322718ad960e21b81526004016103d79190610840565b5f8181526001850160205260409020546104fc57604051637e27328960e01b8152600481018290526024016103d7565b5f8181526004850160205260409020546001600160a01b03908116908416811461053f578382826040516364283d7b60e01b81526004016103d7939291906109e7565b6001600160a01b038416331480159061057057505f8281526006860160205260409020546001600160a01b03163314155b80156105a157506001600160a01b0384165f908152600786016020908152604080832033845290915290205460ff16155b156105c85760405163177e802f60e01b8152336004820152602481018390526044016103d7565b5f828152600686016020908152604080832080546001600160a01b031990811690915560048901835281842080546001600160a01b03898116919093161790558716835260058801909152812080549161062183610a1e565b90915550506001600160a01b0383165f908152600586016020526040812080549161064b83610a33565b919050555081836001600160a01b0316856001600160a01b03167fddf252ad1be2c89b69c2b068fc378daa952ba7f163c4a11628f55a4df523b3ef60405160405180910390a45050505050565b6001600160a01b0383163b1561076857604051630a85bd0160e11b81526001600160a01b0384169063150b7a02906106da903390889087908790600401610a4b565b6020604051808303815f875af1925050508015610714575060408051601f3d908101601f1916820190925261071191810190610aa5565b60015b6107335782604051633250574960e11b81526004016103d79190610840565b6001600160e01b03198116630a85bd0160e11b146107665783604051633250574960e11b81526004016103d79190610840565b505b61022e8585858561047a565b5f90815260049190910160205260409020546001600160a01b031690565b6001600160a01b0382166107bb5781604051630b61174360e31b81526004016103d79190610840565b335f81815260078501602090815260408083206001600160a01b03871680855290835292819020805460ff191686151590811790915590519081529192917f17307eab39ab6107e8899845ad3d59bd9653f200f220920489ca2b5937696c31910160405180910390a3505050565b5f60208284031215610839575f5ffd5b5035919050565b6001600160a01b0391909116815260200190565b80356001600160a01b038116811461086a575f5ffd5b919050565b5f5f60408385031215610880575f5ffd5b61088983610854565b946020939093013593505050565b5f5f5f606084860312156108a9575f5ffd5b6108b284610854565b92506108c060208501610854565b929592945050506040919091013590565b5f602082840312156108e1575f5ffd5b61024082610854565b5f5f604083850312156108fb575f5ffd5b61090483610854565b915060208301358015158114610918575f5ffd5b809150509250929050565b5f5f5f5f5f60808688031215610937575f5ffd5b61094086610854565b945061094e60208701610854565b93506040860135925060608601356001600160401b0381111561096f575f5ffd5b8601601f8101881361097f575f5ffd5b80356001600160401b03811115610994575f5ffd5b8860208284010111156109a5575f5ffd5b959894975092955050506020019190565b5f5f604083850312156109c7575f5ffd5b6109d083610854565b91506109de60208401610854565b90509250929050565b6001600160a01b0393841681526020810192909252909116604082015260600190565b634e487b7160e01b5f52601160045260245ffd5b5f81610a2c57610a2c610a0a565b505f190190565b5f60018201610a4457610a44610a0a565b5060010190565b60018060a01b038516815260018060a01b0384166020820152826040820152608060608201525f8251806080840152806020850160a085015e5f60a0828501015260a0601f19601f83011684010191505095945050505050565b5f60208284031215610ab5575f5ffd5b81516001600160e01b031981168114610240575f5ffdfea264697066735822122046a18b68a33fe7fb0d98e0becca9e45215411c5e5a883429fd731edb5767982064736f6c634300081e0033","linkReferences":{}},"methodIdentifiers":{"approve(address,uint256)":"095ea7b3","balanceOf(address)":"70a08231","getApproved(uint256)":"081812fc","isApprovedForAll(address,address)":"e985e9c5","ownerOf(uint256)":"6352211e","safeTransferFrom(address,address,uint256)":"42842e0e","safeTransferFrom(address,address,uint256,bytes)":"b88d4fde","setApprovalForAll(address,bool)":"a22cb465","transferFrom(address,address,uint256)":"23b872dd"},"id":1352}