{"abi":[{"type":"constructor","inputs":[{"name":"vault","type":"address","internalType":"contract IVault"},{"name":"weth","type":"address","internalType":"contract IWETH"},{"name":"permit2","type":"address","internalType":"contract IPermit2"}],"stateMutability":"nonpayable"},{"type":"receive","stateMutability":"payable"},{"type":"function","name":"addLiquidityToBuffer","inputs":[{"name":"wrappedToken","type":"address","internalType":"contract IERC4626"},{"name":"maxAmountUnderlyingIn","type":"uint256","internalType":"uint256"},{"name":"maxAmountWrappedIn","type":"uint256","internalType":"uint256"},{"name":"exactSharesToIssue","type":"uint256","internalType":"uint256"}],"outputs":[{"name":"amountUnderlyingIn","type":"uint256","internalType":"uint256"},{"name":"amountWrappedIn","type":"uint256","internalType":"uint256"}],"stateMutability":"nonpayable"},{"type":"function","name":"addLiquidityToBufferHook","inputs":[{"name":"wrappedToken","type":"address","internalType":"contract IERC4626"},{"name":"maxAmountUnderlyingIn","type":"uint256","internalType":"uint256"},{"name":"maxAmountWrappedIn","type":"uint256","internalType":"uint256"},{"name":"exactSharesToIssue","type":"uint256","internalType":"uint256"},{"name":"sharesOwner","type":"address","internalType":"address"}],"outputs":[{"name":"amountUnderlyingIn","type":"uint256","internalType":"uint256"},{"name":"amountWrappedIn","type":"uint256","internalType":"uint256"}],"stateMutability":"nonpayable"},{"type":"function","name":"getPermit2","inputs":[],"outputs":[{"name":"","type":"address","internalType":"contract IPermit2"}],"stateMutability":"view"},{"type":"function","name":"getSender","inputs":[],"outputs":[{"name":"","type":"address","internalType":"address"}],"stateMutability":"view"},{"type":"function","name":"getVault","inputs":[],"outputs":[{"name":"","type":"address","internalType":"contract IVault"}],"stateMutability":"view"},{"type":"function","name":"getWeth","inputs":[],"outputs":[{"name":"","type":"address","internalType":"contract IWETH"}],"stateMutability":"view"},{"type":"function","name":"initializeBuffer","inputs":[{"name":"wrappedToken","type":"address","internalType":"contract IERC4626"},{"name":"exactAmountUnderlyingIn","type":"uint256","internalType":"uint256"},{"name":"exactAmountWrappedIn","type":"uint256","internalType":"uint256"},{"name":"minIssuedShares","type":"uint256","internalType":"uint256"}],"outputs":[{"name":"issuedShares","type":"uint256","internalType":"uint256"}],"stateMutability":"nonpayable"},{"type":"function","name":"initializeBufferHook","inputs":[{"name":"wrappedToken","type":"address","internalType":"contract IERC4626"},{"name":"exactAmountUnderlyingIn","type":"uint256","internalType":"uint256"},{"name":"exactAmountWrappedIn","type":"uint256","internalType":"uint256"},{"name":"minIssuedShares","type":"uint256","internalType":"uint256"},{"name":"sharesOwner","type":"address","internalType":"address"}],"outputs":[{"name":"issuedShares","type":"uint256","internalType":"uint256"}],"stateMutability":"nonpayable"},{"type":"function","name":"manualReentrancyAddLiquidityToBufferHook","inputs":[],"outputs":[],"stateMutability":"nonpayable"},{"type":"function","name":"manualReentrancyInitializeBufferHook","inputs":[],"outputs":[],"stateMutability":"nonpayable"},{"type":"function","name":"multicall","inputs":[{"name":"data","type":"bytes[]","internalType":"bytes[]"}],"outputs":[{"name":"results","type":"bytes[]","internalType":"bytes[]"}],"stateMutability":"payable"},{"type":"function","name":"permitBatchAndCall","inputs":[{"name":"permitBatch","type":"tuple[]","internalType":"struct IRouterCommon.PermitApproval[]","components":[{"name":"token","type":"address","internalType":"address"},{"name":"owner","type":"address","internalType":"address"},{"name":"spender","type":"address","internalType":"address"},{"name":"amount","type":"uint256","internalType":"uint256"},{"name":"nonce","type":"uint256","internalType":"uint256"},{"name":"deadline","type":"uint256","internalType":"uint256"}]},{"name":"permitSignatures","type":"bytes[]","internalType":"bytes[]"},{"name":"permit2Batch","type":"tuple","internalType":"struct IAllowanceTransfer.PermitBatch","components":[{"name":"details","type":"tuple[]","internalType":"struct IAllowanceTransfer.PermitDetails[]","components":[{"name":"token","type":"address","internalType":"address"},{"name":"amount","type":"uint160","internalType":"uint160"},{"name":"expiration","type":"uint48","internalType":"uint48"},{"name":"nonce","type":"uint48","internalType":"uint48"}]},{"name":"spender","type":"address","internalType":"address"},{"name":"sigDeadline","type":"uint256","internalType":"uint256"}]},{"name":"permit2Signature","type":"bytes","internalType":"bytes"},{"name":"multicallData","type":"bytes[]","internalType":"bytes[]"}],"outputs":[{"name":"","type":"bytes[]","internalType":"bytes[]"}],"stateMutability":"payable"},{"type":"function","name":"queryAddLiquidityToBuffer","inputs":[{"name":"wrappedToken","type":"address","internalType":"contract IERC4626"},{"name":"exactSharesToIssue","type":"uint256","internalType":"uint256"}],"outputs":[{"name":"amountUnderlyingIn","type":"uint256","internalType":"uint256"},{"name":"amountWrappedIn","type":"uint256","internalType":"uint256"}],"stateMutability":"nonpayable"},{"type":"function","name":"queryAddLiquidityToBufferHook","inputs":[{"name":"wrappedToken","type":"address","internalType":"contract IERC4626"},{"name":"exactSharesToIssue","type":"uint256","internalType":"uint256"}],"outputs":[{"name":"amountUnderlyingIn","type":"uint256","internalType":"uint256"},{"name":"amountWrappedIn","type":"uint256","internalType":"uint256"}],"stateMutability":"nonpayable"},{"type":"function","name":"queryInitializeBuffer","inputs":[{"name":"wrappedToken","type":"address","internalType":"contract IERC4626"},{"name":"exactAmountUnderlyingIn","type":"uint256","internalType":"uint256"},{"name":"exactAmountWrappedIn","type":"uint256","internalType":"uint256"}],"outputs":[{"name":"issuedShares","type":"uint256","internalType":"uint256"}],"stateMutability":"nonpayable"},{"type":"function","name":"queryInitializeBufferHook","inputs":[{"name":"wrappedToken","type":"address","internalType":"contract IERC4626"},{"name":"exactAmountUnderlyingIn","type":"uint256","internalType":"uint256"},{"name":"exactAmountWrappedIn","type":"uint256","internalType":"uint256"}],"outputs":[{"name":"issuedShares","type":"uint256","internalType":"uint256"}],"stateMutability":"nonpayable"},{"type":"function","name":"queryRemoveLiquidityFromBuffer","inputs":[{"name":"wrappedToken","type":"address","internalType":"contract IERC4626"},{"name":"exactSharesToRemove","type":"uint256","internalType":"uint256"}],"outputs":[{"name":"removedUnderlyingBalanceOut","type":"uint256","internalType":"uint256"},{"name":"removedWrappedBalanceOut","type":"uint256","internalType":"uint256"}],"stateMutability":"nonpayable"},{"type":"function","name":"queryRemoveLiquidityFromBufferHook","inputs":[{"name":"wrappedToken","type":"address","internalType":"contract IERC4626"},{"name":"exactSharesToRemove","type":"uint256","internalType":"uint256"}],"outputs":[{"name":"removedUnderlyingBalanceOut","type":"uint256","internalType":"uint256"},{"name":"removedWrappedBalanceOut","type":"uint256","internalType":"uint256"}],"stateMutability":"nonpayable"},{"type":"function","name":"version","inputs":[],"outputs":[{"name":"","type":"string","internalType":"string"}],"stateMutability":"view"},{"type":"error","name":"AddressEmptyCode","inputs":[{"name":"target","type":"address","internalType":"address"}]},{"type":"error","name":"ErrorSelectorNotFound","inputs":[]},{"type":"error","name":"EthTransfer","inputs":[]},{"type":"error","name":"FailedCall","inputs":[]},{"type":"error","name":"InputLengthMismatch","inputs":[]},{"type":"error","name":"InsufficientBalance","inputs":[{"name":"balance","type":"uint256","internalType":"uint256"},{"name":"needed","type":"uint256","internalType":"uint256"}]},{"type":"error","name":"InsufficientEth","inputs":[]},{"type":"error","name":"MockErrorCode","inputs":[]},{"type":"error","name":"OperationNotSupported","inputs":[]},{"type":"error","name":"ReentrancyGuardReentrantCall","inputs":[]},{"type":"error","name":"SenderIsNotVault","inputs":[{"name":"sender","type":"address","internalType":"address"}]},{"type":"error","name":"SwapDeadline","inputs":[]}],"bytecode":{"object":"0x600b6101409081526a14d95b99195c91dd585c9960aa1b610160526101c060405260066101809081526539b2b73232b960d11b6101a0526100409190610134565b608052604080518082018252600c81526b2937baba32b921b7b6b6b7b760a11b602080830191909152825180840190935260118352701a5cd4995d1d5c9b915d1a131bd8dad959607a1b9083015261009791610134565b60c0523480156100a5575f5ffd5b506040516127a63803806127a68339810160408190526100c4916101c9565b60408051808201909152600e81526d4d6f636b20526f7574657220763160901b60208201526001600160a01b03841660a052839083908390838383838061010a816101a3565b50506001600160a01b0391821660e052166101008190521561012052506103e99650505050505050565b5f60ff5f1b196001848460405160200161014f92919061022a565b604051602081830303815290604052805190602001205f1c6101719190610278565b60405160200161018391815260200190565b604051602081830303815290604052805190602001201690505b92915050565b5f6101ae828261032f565b5050565b6001600160a01b03811681146101c6575f5ffd5b50565b5f5f5f606084860312156101db575f5ffd5b83516101e6816101b2565b60208501519093506101f7816101b2565b6040850151909250610208816101b2565b809150509250925092565b5f81518060208401855e5f93019283525090919050565b7f62616c616e6365722d6c6162732e76332e73746f726167652e0000000000000081525f61025b6019830185610213565b601760f91b815261026f6001820185610213565b95945050505050565b8181038181111561019d57634e487b7160e01b5f52601160045260245ffd5b634e487b7160e01b5f52604160045260245ffd5b600181811c908216806102bf57607f821691505b6020821081036102dd57634e487b7160e01b5f52602260045260245ffd5b50919050565b601f82111561032a57805f5260205f20601f840160051c810160208510156103085750805b601f840160051c820191505b81811015610327575f8155600101610314565b50505b505050565b81516001600160401b0381111561034857610348610297565b61035c8161035684546102ab565b846102e3565b6020601f82116001811461038e575f83156103775750848201515b5f19600385901b1c1916600184901b178455610327565b5f84815260208120601f198516915b828110156103bd578785015182556020948501946001909201910161039d565b50848210156103da57868401515f19600387901b60f8161c191681555b50505050600190811b01905550565b60805160a05160c05160e05161010051610120516122dd6104c95f395f81816104bd0152610af301525f81816101e0015281816112f201526114b701525f818160f60152818161014801528181611426015261146401525f61166a01525f81816102d7015281816103cf0152818161057301528181610612015281816106ac01528181610751015281816108ea01528181610a1901528181610c4601528181610df401528181610e9101528181610f130152818161101d015281816113bc01528181611485015281816114e7015261158f01525f61161201526122dd5ff3fe6080604052600436106100e6575f3560e01c8063107c279f1461013a57806313f7bb4d1461017e57806319c6989f146101b25780631bbf2e23146101d2578063400f230d146102045780634fe56ed614610223578063502383f41461024257806354fd4d50146102615780635e01eb5a14610282578063662727cc146102965780638afe5c38146102b55780638d928af8146102c9578063a3902604146102fb578063ac9650d814610328578063b365a3c21461033b578063bc48e97f1461035a578063d96af0701461036e578063d9f708691461038d578063e0fefe35146103ac575f5ffd5b3661013657336001600160a01b037f00000000000000000000000000000000000000000000000000000000000000001614610134576040516302a06efb60e11b815260040160405180910390fd5b005b5f5ffd5b348015610145575f5ffd5b507f00000000000000000000000000000000000000000000000000000000000000005b6040516101759190611a7b565b60405180910390f35b348015610189575f5ffd5b5061019d610198366004611aa3565b6103cb565b60408051928352602083019190915201610175565b6101c56101c0366004611b9a565b6104b9565b6040516101759190611cbd565b3480156101dd575f5ffd5b507f0000000000000000000000000000000000000000000000000000000000000000610168565b34801561020f575f5ffd5b5061019d61021e366004611aa3565b610521565b34801561022e575f5ffd5b5061019d61023d366004611d30565b6105e9565b34801561024d575f5ffd5b5061019d61025c366004611d82565b61074d565b34801561026c575f5ffd5b50610275610842565b6040516101759190611dba565b34801561028d575f5ffd5b506101686108d1565b3480156102a1575f5ffd5b5061019d6102b0366004611aa3565b6108e6565b3480156102c0575f5ffd5b50610134610973565b3480156102d4575f5ffd5b507f0000000000000000000000000000000000000000000000000000000000000000610168565b348015610306575f5ffd5b5061031a610315366004611dcc565b6109f1565b604051908152602001610175565b6101c5610336366004611dfe565b610aa7565b348015610346575f5ffd5b5061031a610355366004611d82565b610c43565b348015610365575f5ffd5b50610134610d33565b348015610379575f5ffd5b5061019d610388366004611aa3565b610daf565b348015610398575f5ffd5b5061031a6103a7366004611d30565b610e69565b3480156103b7575f5ffd5b5061031a6103c6366004611dcc565b610fbf565b5f5f7f00000000000000000000000000000000000000000000000000000000000000006001600160a01b031663edfa3568858560405160240161040f929190611e3c565b60408051601f198184030181529181526020820180516001600160e01b0316630d96af0760e41b179052516001600160e01b031960e084901b1681526104589190600401611dba565b5f604051808303815f875af1158015610473573d5f5f3e3d5ffd5b505050506040513d5f823e601f3d908101601f1916820160405261049a9190810190611e99565b8060200190518101906104ad9190611f2b565b915091505b9250929050565b60607f0000000000000000000000000000000000000000000000000000000000000000156104fa576040516329a270f560e01b815260040160405180910390fd5b6105098a8a8a8a8a8a8a6110ae565b6105138383610aa7565b9a9950505050505050505050565b5f5f61052b61136c565b6105336113b1565b604051637154958d60e11b81526001600160a01b0385811660048301526001600160801b03602483018190526044830152606482018590523060848301527f0000000000000000000000000000000000000000000000000000000000000000169063e2a92b1a9060a40160408051808303815f875af11580156105b8573d5f5f3e3d5ffd5b505050506040513d601f19601f820116820180604052508101906105dc9190611f2b565b90925090506104b2611405565b5f5f6105f361136c565b6105fb6113b1565b604051637154958d60e11b81526001600160a01b037f0000000000000000000000000000000000000000000000000000000000000000169063e2a92b1a9061064f908a908a908a908a908a90600401611f4d565b60408051808303815f875af115801561066a573d5f5f3e3d5ffd5b505050506040513d601f19601f8201168201806040525081019061068e9190611f2b565b60405163257dd7ad60e11b815291935091505f906001600160a01b037f00000000000000000000000000000000000000000000000000000000000000001690634afbaf5a906106e1908b90600401611a7b565b602060405180830381865afa1580156106fc573d5f5f3e3d5ffd5b505050506040513d601f19601f820116820180604052508101906107209190611f7d565b905061072e8482855f61141c565b61073a8489845f61141c565b50610743611405565b9550959350505050565b5f5f7f00000000000000000000000000000000000000000000000000000000000000006001600160a01b03166348c894918787878733604051602401610797959493929190611f4d565b60408051601f198184030181529181526020820180516001600160e01b03166327f2b76b60e11b179052516001600160e01b031960e084901b1681526107e09190600401611dba565b5f604051808303815f875af11580156107fb573d5f5f3e3d5ffd5b505050506040513d5f823e601f3d908101601f191682016040526108229190810190611e99565b8060200190518101906108359190611f2b565b9150915094509492505050565b60605f805461085090611f98565b80601f016020809104026020016040519081016040528092919081815260200182805461087c90611f98565b80156108c75780601f1061089e576101008083540402835291602001916108c7565b820191905f5260205f20905b8154815290600101906020018083116108aa57829003601f168201915b5050505050905090565b5f6108e16108dd611610565b5c90565b905090565b5f5f7f00000000000000000000000000000000000000000000000000000000000000006001600160a01b031663edfa3568858560405160240161092a929190611e3c565b60408051601f198184030181529181526020820180516001600160e01b031663400f230d60e01b179052516001600160e01b031960e084901b1681526104589190600401611dba565b61097b61136c565b6040516327f2b76b60e11b81523090634fe56ed6906109a6905f908190819081908190600401611f4d565b60408051808303815f875af11580156109c1573d5f5f3e3d5ffd5b505050506040513d601f19601f820116820180604052508101906109e59190611f2b565b50506109ef611405565b565b5f6109fa61136c565b610a026113b1565b604051630653eb3b60e41b81526001600160a01b037f0000000000000000000000000000000000000000000000000000000000000000169063653eb3b090610a56908790879087905f903090600401611f4d565b6020604051808303815f875af1158015610a72573d5f5f3e3d5ffd5b505050506040513d601f19601f82011682018060405250810190610a969190611fca565b9050610aa0611405565b9392505050565b60605f610ab333611634565b9050610ac06108dd611668565b15610ade57604051633ee5aeb560e01b815260040160405180910390fd5b610af16001610aeb611668565b9061168c565b7f000000000000000000000000000000000000000000000000000000000000000015610b30576040516329a270f560e01b815260040160405180910390fd5b826001600160401b03811115610b4857610b48611e55565b604051908082528060200260200182016040528015610b7b57816020015b6060815260200190600190039081610b665790505b5091505f5b83811015610c0e57610be930868684818110610b9e57610b9e611fe1565b9050602002810190610bb09190611ff5565b8080601f0160208091040260200160405190810160405280939291908181526020018383808284375f9201919091525061169392505050565b838281518110610bfb57610bfb611fe1565b6020908102919091010152600101610b80565b50610c1b5f610aeb611668565b5f610c276108dd611610565b9050610c32826116fc565b610c3b81611711565b505092915050565b5f7f00000000000000000000000000000000000000000000000000000000000000006001600160a01b03166348c894918686868633604051602401610c8c959493929190611f4d565b60408051601f198184030181529181526020820180516001600160e01b031663d9f7086960e01b179052516001600160e01b031960e084901b168152610cd59190600401611dba565b5f604051808303815f875af1158015610cf0573d5f5f3e3d5ffd5b505050506040513d5f823e601f3d908101601f19168201604052610d179190810190611e99565b806020019051810190610d2a9190611fca565b95945050505050565b610d3b61136c565b60405163d9f7086960e01b8152309063d9f7086990610d66905f908190819081908190600401611f4d565b6020604051808303815f875af1158015610d82573d5f5f3e3d5ffd5b505050506040513d601f19601f82011682018060405250810190610da69190611fca565b506109ef611405565b5f5f610db961136c565b610dc16113b1565b604051633af1e55760e21b81526001600160a01b038581166004830152602482018590525f6044830181905260648301527f0000000000000000000000000000000000000000000000000000000000000000169063ebc7955c9060840160408051808303815f875af1158015610e39573d5f5f3e3d5ffd5b505050506040513d601f19601f82011682018060405250810190610e5d9190611f2b565b915091506104b2611405565b5f610e7261136c565b610e7a6113b1565b604051630653eb3b60e41b81526001600160a01b037f0000000000000000000000000000000000000000000000000000000000000000169063653eb3b090610ece9089908990899089908990600401611f4d565b6020604051808303815f875af1158015610eea573d5f5f3e3d5ffd5b505050506040513d601f19601f82011682018060405250810190610f0e9190611fca565b90505f7f00000000000000000000000000000000000000000000000000000000000000006001600160a01b0316634afbaf5a886040518263ffffffff1660e01b8152600401610f5d9190611a7b565b602060405180830381865afa158015610f78573d5f5f3e3d5ffd5b505050506040513d601f19601f82011682018060405250810190610f9c9190611f7d565b9050610faa8382885f61141c565b610fb68388875f61141c565b50610d2a611405565b604080516001600160a01b03858116602483015260448201859052606480830185905283518084039091018152608490920183526020820180516001600160e01b03166328e4098160e21b1790529151631dbf46ad60e31b81525f927f0000000000000000000000000000000000000000000000000000000000000000169163edfa3568916110519190600401611dba565b5f604051808303815f875af115801561106c573d5f5f3e3d5ffd5b505050506040513d5f823e601f3d908101601f191682016040526110939190810190611e99565b8060200190518101906110a69190611fca565b949350505050565b6110b661136c565b6110c08685611749565b5f5b868110156112c7575f8686838181106110dd576110dd611fe1565b90506020028101906110ef9190611ff5565b8080601f0160208091040260200160405190810160405280939291908181526020018383808284375f92018290525093945061113092508491506117699050565b90505f8a8a8581811061114557611145611fe1565b905060c0020180360381019061115b9190612037565b8051602080830151606084015160a08501516040808901518951958a0151915163d505accf60e01b81526001600160a01b0395861660048201523060248201526044810194909452606484019290925260ff909116608483015260a482019390935260c481019290925292935091169063d505accf9060e4015f604051808303815f87803b1580156111eb575f5ffd5b505af19250505080156111fc575060015b6112b9573d808015611229576040519150601f19603f3d011682016040523d82523d5f602084013e61122e565b606091505b50606082015182516020840151604051636eb1769f60e11b81526001600160a01b03918216600482015230602482015291169063dd62ed3e90604401602060405180830381865afa158015611285573d5f5f3e3d5ffd5b505050506040513d601f19601f820116820180604052508101906112a99190611fca565b146112b7576112b7816117b8565b505b5050508060010190506110c2565b505f6112d384806120c8565b9050111561135b57604051632a2d80d160e01b81526001600160a01b037f00000000000000000000000000000000000000000000000000000000000000001690632a2d80d19061132d90339087908790879060040161214a565b5f604051808303815f87803b158015611344575f5ffd5b505af1158015611356573d5f5f3e3d5ffd5b505050505b611363611405565b50505050505050565b5f5160206122885f395f51905f525c1561139957604051633ee5aeb560e01b815260040160405180910390fd5b6109ef60015f5160206122885f395f51905f52610aeb565b336001600160a01b037f000000000000000000000000000000000000000000000000000000000000000016146109ef573360405163089676d560e01b81526004016113fc9190611a7b565b60405180910390fd5b6109ef5f5f5160206122885f395f51905f52610aeb565b80801561145a57507f00000000000000000000000000000000000000000000000000000000000000006001600160a01b0316836001600160a01b0316145b156114af576114aa7f00000000000000000000000000000000000000000000000000000000000000007f0000000000000000000000000000000000000000000000000000000000000000846117e1565b61160a565b811561160a577f00000000000000000000000000000000000000000000000000000000000000006001600160a01b03166336c78516857f000000000000000000000000000000000000000000000000000000000000000061150f866118d6565b6040516001600160e01b031960e086901b1681526001600160a01b03938416600482015291831660248301528216604482015290861660648201526084015f604051808303815f87803b158015611564575f5ffd5b505af1158015611576573d5f5f3e3d5ffd5b50506040516315afd40960e01b81526001600160a01b037f00000000000000000000000000000000000000000000000000000000000000001692506315afd40991506115c89086908690600401611e3c565b6020604051808303815f875af11580156115e4573d5f5f3e3d5ffd5b505050506040513d601f19601f820116820180604052508101906116089190611fca565b505b50505050565b7f000000000000000000000000000000000000000000000000000000000000000090565b5f5f6116416108dd611610565b90506001600160a01b0381166116625761165d83610aeb611610565b600191505b50919050565b7f000000000000000000000000000000000000000000000000000000000000000090565b80825d5050565b60605f5f846001600160a01b0316846040516116af9190612271565b5f60405180830381855af49150503d805f81146116e7576040519150601f19603f3d011682016040523d82523d5f602084013e6116ec565b606091505b5091509150610d2a8583836118e6565b801561170e5761170e5f610aeb611610565b50565b475f81900361171e575050565b6117296108dd611668565b15611732575050565b6117456001600160a01b03831682611939565b5050565b8082146117455760405163aaad13f760e01b815260040160405180910390fd5b61178d60405180606001604052805f81526020015f81526020015f60ff1681525090565b602082810151604080850151606090950151918452918301939093525f9290921a9181019190915290565b8051156117c85780518082602001fd5b60405163a728568960e01b815260040160405180910390fd5b804710156118025760405163500d4efb60e11b815260040160405180910390fd5b826001600160a01b031663d0e30db0826040518263ffffffff1660e01b81526004015f604051808303818588803b15801561183b575f5ffd5b505af115801561184d573d5f5f3e3d5ffd5b50611868935050506001600160a01b038516905083836119d8565b6040516315afd40960e01b81526001600160a01b038316906315afd409906118969086908590600401611e3c565b6020604051808303815f875af11580156118b2573d5f5f3e3d5ffd5b505050506040513d601f19601f8201168201806040525081019061160a9190611fca565b5f6118e0826119e3565b92915050565b6060826118fb576118f6826119fb565b610aa0565b815115801561191257506001600160a01b0384163b155b156119325783604051639996b31560e01b81526004016113fc9190611a7b565b5080610aa0565b804710156119635760405163cf47918160e01b8152476004820152602481018290526044016113fc565b5f826001600160a01b0316826040515f6040518083038185875af1925050503d805f81146119ac576040519150601f19603f3d011682016040523d82523d5f602084013e6119b1565b606091505b50509050806119d35760405163d6bda27560e01b815260040160405180910390fd5b505050565b6119d3838383611a24565b5f600160a01b82106119f7576119f7611a6e565b5090565b805115611a0b5780518082602001fd5b60405163d6bda27560e01b815260040160405180910390fd5b816014528060345263a9059cbb60601b5f5260205f604460105f875af18060015f511416611a6457803d853b151710611a64576390b8ec185f526004601cfd5b505f603452505050565b6335278d125f526004601cfd5b6001600160a01b0391909116815260200190565b6001600160a01b038116811461170e575f5ffd5b5f5f60408385031215611ab4575f5ffd5b8235611abf81611a8f565b946020939093013593505050565b5f5f83601f840112611add575f5ffd5b5081356001600160401b03811115611af3575f5ffd5b60208301915083602060c0830285010111156104b2575f5ffd5b5f5f83601f840112611b1d575f5ffd5b5081356001600160401b03811115611b33575f5ffd5b6020830191508360208260051b85010111156104b2575f5ffd5b5f60608284031215611662575f5ffd5b5f5f83601f840112611b6d575f5ffd5b5081356001600160401b03811115611b83575f5ffd5b6020830191508360208285010111156104b2575f5ffd5b5f5f5f5f5f5f5f5f5f60a08a8c031215611bb2575f5ffd5b89356001600160401b03811115611bc7575f5ffd5b611bd38c828d01611acd565b909a5098505060208a01356001600160401b03811115611bf1575f5ffd5b611bfd8c828d01611b0d565b90985096505060408a01356001600160401b03811115611c1b575f5ffd5b611c278c828d01611b4d565b95505060608a01356001600160401b03811115611c42575f5ffd5b611c4e8c828d01611b5d565b90955093505060808a01356001600160401b03811115611c6c575f5ffd5b611c788c828d01611b0d565b915080935050809150509295985092959850929598565b5f81518084528060208401602086015e5f602082860101526020601f19601f83011685010191505092915050565b5f602082016020835280845180835260408501915060408160051b8601019250602086015f5b82811015611d1457603f19878603018452611cff858351611c8f565b94506020938401939190910190600101611ce3565b50929695505050505050565b8035611d2b81611a8f565b919050565b5f5f5f5f5f60a08688031215611d44575f5ffd5b8535611d4f81611a8f565b94506020860135935060408601359250606086013591506080860135611d7481611a8f565b809150509295509295909350565b5f5f5f5f60808587031215611d95575f5ffd5b8435611da081611a8f565b966020860135965060408601359560600135945092505050565b602081525f610aa06020830184611c8f565b5f5f5f60608486031215611dde575f5ffd5b8335611de981611a8f565b95602085013595506040909401359392505050565b5f5f60208385031215611e0f575f5ffd5b82356001600160401b03811115611e24575f5ffd5b611e3085828601611b0d565b90969095509350505050565b6001600160a01b03929092168252602082015260400190565b634e487b7160e01b5f52604160045260245ffd5b604051601f8201601f191681016001600160401b0381118282101715611e9157611e91611e55565b604052919050565b5f60208284031215611ea9575f5ffd5b81516001600160401b03811115611ebe575f5ffd5b8201601f81018413611ece575f5ffd5b80516001600160401b03811115611ee757611ee7611e55565b611efa601f8201601f1916602001611e69565b818152856020838501011115611f0e575f5ffd5b8160208401602083015e5f91810160200191909152949350505050565b5f5f60408385031215611f3c575f5ffd5b505080516020909101519092909150565b6001600160a01b039586168152602081019490945260408401929092526060830152909116608082015260a00190565b5f60208284031215611f8d575f5ffd5b8151610aa081611a8f565b600181811c90821680611fac57607f821691505b60208210810361166257634e487b7160e01b5f52602260045260245ffd5b5f60208284031215611fda575f5ffd5b5051919050565b634e487b7160e01b5f52603260045260245ffd5b5f5f8335601e1984360301811261200a575f5ffd5b8301803591506001600160401b03821115612023575f5ffd5b6020019150368190038213156104b2575f5ffd5b5f60c0828403128015612048575f5ffd5b5060405160c081016001600160401b038111828210171561206b5761206b611e55565b604052823561207981611a8f565b8152602083013561208981611a8f565b6020820152604083013561209c81611a8f565b6040820152606083810135908201526080808401359082015260a0928301359281019290925250919050565b5f5f8335601e198436030181126120dd575f5ffd5b8301803591506001600160401b038211156120f6575f5ffd5b6020019150600781901b36038213156104b2575f5ffd5b803565ffffffffffff81168114611d2b575f5ffd5b81835281816020850137505f828201602090810191909152601f909101601f19169091010190565b6001600160a01b0385168152606060208201525f60c08201853536879003601e19018112612176575f5ffd5b86016020810190356001600160401b03811115612191575f5ffd5b8060071b36038213156121a2575f5ffd5b60608581015291829052905f9060e085015b818310156122335783356121c781611a8f565b6001600160a01b0316815260208401356121e081611a8f565b6001600160a01b0316602082015265ffffffffffff6122016040860161210d565b16604082015265ffffffffffff61221a6060860161210d565b16606082015260809384019360019390930192016121b4565b61223f60208a01611d20565b6001600160a01b0316608087015260408981013560a0880181905287830391880191909152935061051381888a612122565b5f82518060208501845e5f92019182525091905056fe9b779b17422d0df92223018b32b4d1fa46e071723d6817e2486d003becc55f00a26469706673582212206df057b564e19958bae6588f84ee002e3c008fbe952a6be9dc930312769a879c64736f6c634300081e0033","linkReferences":{}},"methodIdentifiers":{"addLiquidityToBuffer(address,uint256,uint256,uint256)":"502383f4","addLiquidityToBufferHook(address,uint256,uint256,uint256,address)":"4fe56ed6","getPermit2()":"1bbf2e23","getSender()":"5e01eb5a","getVault()":"8d928af8","getWeth()":"107c279f","initializeBuffer(address,uint256,uint256,uint256)":"b365a3c2","initializeBufferHook(address,uint256,uint256,uint256,address)":"d9f70869","manualReentrancyAddLiquidityToBufferHook()":"8afe5c38","manualReentrancyInitializeBufferHook()":"bc48e97f","multicall(bytes[])":"ac9650d8","permitBatchAndCall((address,address,address,uint256,uint256,uint256)[],bytes[],((address,uint160,uint48,uint48)[],address,uint256),bytes,bytes[])":"19c6989f","queryAddLiquidityToBuffer(address,uint256)":"662727cc","queryAddLiquidityToBufferHook(address,uint256)":"400f230d","queryInitializeBuffer(address,uint256,uint256)":"e0fefe35","queryInitializeBufferHook(address,uint256,uint256)":"a3902604","queryRemoveLiquidityFromBuffer(address,uint256)":"13f7bb4d","queryRemoveLiquidityFromBufferHook(address,uint256)":"d96af070","version()":"54fd4d50"},"id":369}