{"abi":[{"type":"function","name":"getHookFlags","inputs":[],"outputs":[{"name":"","type":"tuple","internalType":"struct HookFlags","components":[{"name":"enableHookAdjustedAmounts","type":"bool","internalType":"bool"},{"name":"shouldCallBeforeInitialize","type":"bool","internalType":"bool"},{"name":"shouldCallAfterInitialize","type":"bool","internalType":"bool"},{"name":"shouldCallComputeDynamicSwapFee","type":"bool","internalType":"bool"},{"name":"shouldCallBeforeSwap","type":"bool","internalType":"bool"},{"name":"shouldCallAfterSwap","type":"bool","internalType":"bool"},{"name":"shouldCallBeforeAddLiquidity","type":"bool","internalType":"bool"},{"name":"shouldCallAfterAddLiquidity","type":"bool","internalType":"bool"},{"name":"shouldCallBeforeRemoveLiquidity","type":"bool","internalType":"bool"},{"name":"shouldCallAfterRemoveLiquidity","type":"bool","internalType":"bool"}]}],"stateMutability":"view"},{"type":"function","name":"onAfterAddLiquidity","inputs":[{"name":"","type":"address","internalType":"address"},{"name":"","type":"address","internalType":"address"},{"name":"","type":"uint8","internalType":"enum AddLiquidityKind"},{"name":"","type":"uint256[]","internalType":"uint256[]"},{"name":"amountsInRaw","type":"uint256[]","internalType":"uint256[]"},{"name":"","type":"uint256","internalType":"uint256"},{"name":"","type":"uint256[]","internalType":"uint256[]"},{"name":"","type":"bytes","internalType":"bytes"}],"outputs":[{"name":"","type":"bool","internalType":"bool"},{"name":"hookAdjustedAmountsInRaw","type":"uint256[]","internalType":"uint256[]"}],"stateMutability":"pure"},{"type":"function","name":"onAfterInitialize","inputs":[{"name":"","type":"uint256[]","internalType":"uint256[]"},{"name":"","type":"uint256","internalType":"uint256"},{"name":"","type":"bytes","internalType":"bytes"}],"outputs":[{"name":"","type":"bool","internalType":"bool"}],"stateMutability":"pure"},{"type":"function","name":"onAfterRemoveLiquidity","inputs":[{"name":"","type":"address","internalType":"address"},{"name":"","type":"address","internalType":"address"},{"name":"","type":"uint8","internalType":"enum RemoveLiquidityKind"},{"name":"","type":"uint256","internalType":"uint256"},{"name":"","type":"uint256[]","internalType":"uint256[]"},{"name":"amountsOutRaw","type":"uint256[]","internalType":"uint256[]"},{"name":"","type":"uint256[]","internalType":"uint256[]"},{"name":"","type":"bytes","internalType":"bytes"}],"outputs":[{"name":"","type":"bool","internalType":"bool"},{"name":"hookAdjustedAmountsOutRaw","type":"uint256[]","internalType":"uint256[]"}],"stateMutability":"pure"},{"type":"function","name":"onAfterSwap","inputs":[{"name":"params","type":"tuple","internalType":"struct AfterSwapParams","components":[{"name":"kind","type":"uint8","internalType":"enum SwapKind"},{"name":"tokenIn","type":"address","internalType":"contract IERC20"},{"name":"tokenOut","type":"address","internalType":"contract IERC20"},{"name":"amountInScaled18","type":"uint256","internalType":"uint256"},{"name":"amountOutScaled18","type":"uint256","internalType":"uint256"},{"name":"tokenInBalanceScaled18","type":"uint256","internalType":"uint256"},{"name":"tokenOutBalanceScaled18","type":"uint256","internalType":"uint256"},{"name":"amountCalculatedScaled18","type":"uint256","internalType":"uint256"},{"name":"amountCalculatedRaw","type":"uint256","internalType":"uint256"},{"name":"router","type":"address","internalType":"address"},{"name":"pool","type":"address","internalType":"address"},{"name":"userData","type":"bytes","internalType":"bytes"}]}],"outputs":[{"name":"","type":"bool","internalType":"bool"},{"name":"","type":"uint256","internalType":"uint256"}],"stateMutability":"pure"},{"type":"function","name":"onBeforeAddLiquidity","inputs":[{"name":"","type":"address","internalType":"address"},{"name":"","type":"address","internalType":"address"},{"name":"","type":"uint8","internalType":"enum AddLiquidityKind"},{"name":"","type":"uint256[]","internalType":"uint256[]"},{"name":"","type":"uint256","internalType":"uint256"},{"name":"","type":"uint256[]","internalType":"uint256[]"},{"name":"","type":"bytes","internalType":"bytes"}],"outputs":[{"name":"","type":"bool","internalType":"bool"}],"stateMutability":"pure"},{"type":"function","name":"onBeforeInitialize","inputs":[{"name":"","type":"uint256[]","internalType":"uint256[]"},{"name":"","type":"bytes","internalType":"bytes"}],"outputs":[{"name":"","type":"bool","internalType":"bool"}],"stateMutability":"pure"},{"type":"function","name":"onBeforeRemoveLiquidity","inputs":[{"name":"","type":"address","internalType":"address"},{"name":"","type":"address","internalType":"address"},{"name":"","type":"uint8","internalType":"enum RemoveLiquidityKind"},{"name":"","type":"uint256","internalType":"uint256"},{"name":"","type":"uint256[]","internalType":"uint256[]"},{"name":"","type":"uint256[]","internalType":"uint256[]"},{"name":"","type":"bytes","internalType":"bytes"}],"outputs":[{"name":"","type":"bool","internalType":"bool"}],"stateMutability":"pure"},{"type":"function","name":"onBeforeSwap","inputs":[{"name":"","type":"tuple","internalType":"struct PoolSwapParams","components":[{"name":"kind","type":"uint8","internalType":"enum SwapKind"},{"name":"amountGivenScaled18","type":"uint256","internalType":"uint256"},{"name":"balancesScaled18","type":"uint256[]","internalType":"uint256[]"},{"name":"indexIn","type":"uint256","internalType":"uint256"},{"name":"indexOut","type":"uint256","internalType":"uint256"},{"name":"router","type":"address","internalType":"address"},{"name":"userData","type":"bytes","internalType":"bytes"}]},{"name":"","type":"address","internalType":"address"}],"outputs":[{"name":"","type":"bool","internalType":"bool"}],"stateMutability":"pure"},{"type":"function","name":"onComputeDynamicSwapFeePercentage","inputs":[{"name":"","type":"tuple","internalType":"struct PoolSwapParams","components":[{"name":"kind","type":"uint8","internalType":"enum SwapKind"},{"name":"amountGivenScaled18","type":"uint256","internalType":"uint256"},{"name":"balancesScaled18","type":"uint256[]","internalType":"uint256[]"},{"name":"indexIn","type":"uint256","internalType":"uint256"},{"name":"indexOut","type":"uint256","internalType":"uint256"},{"name":"router","type":"address","internalType":"address"},{"name":"userData","type":"bytes","internalType":"bytes"}]},{"name":"","type":"address","internalType":"address"},{"name":"","type":"uint256","internalType":"uint256"}],"outputs":[{"name":"","type":"bool","internalType":"bool"},{"name":"","type":"uint256","internalType":"uint256"}],"stateMutability":"pure"},{"type":"function","name":"onRegister","inputs":[{"name":"","type":"address","internalType":"address"},{"name":"","type":"address","internalType":"address"},{"name":"","type":"tuple[]","internalType":"struct TokenConfig[]","components":[{"name":"token","type":"address","internalType":"contract IERC20"},{"name":"tokenType","type":"uint8","internalType":"enum TokenType"},{"name":"rateProvider","type":"address","internalType":"contract IRateProvider"},{"name":"paysYieldFees","type":"bool","internalType":"bool"}]},{"name":"","type":"tuple","internalType":"struct LiquidityManagement","components":[{"name":"disableUnbalancedLiquidity","type":"bool","internalType":"bool"},{"name":"enableAddLiquidityCustom","type":"bool","internalType":"bool"},{"name":"enableRemoveLiquidityCustom","type":"bool","internalType":"bool"},{"name":"enableDonation","type":"bool","internalType":"bool"}]}],"outputs":[{"name":"","type":"bool","internalType":"bool"}],"stateMutability":"pure"},{"type":"function","name":"setHookFlags","inputs":[{"name":"hookFlags","type":"tuple","internalType":"struct HookFlags","components":[{"name":"enableHookAdjustedAmounts","type":"bool","internalType":"bool"},{"name":"shouldCallBeforeInitialize","type":"bool","internalType":"bool"},{"name":"shouldCallAfterInitialize","type":"bool","internalType":"bool"},{"name":"shouldCallComputeDynamicSwapFee","type":"bool","internalType":"bool"},{"name":"shouldCallBeforeSwap","type":"bool","internalType":"bool"},{"name":"shouldCallAfterSwap","type":"bool","internalType":"bool"},{"name":"shouldCallBeforeAddLiquidity","type":"bool","internalType":"bool"},{"name":"shouldCallAfterAddLiquidity","type":"bool","internalType":"bool"},{"name":"shouldCallBeforeRemoveLiquidity","type":"bool","internalType":"bool"},{"name":"shouldCallAfterRemoveLiquidity","type":"bool","internalType":"bool"}]}],"outputs":[],"stateMutability":"nonpayable"}],"bytecode":{"object":"0x6080604052348015600e575f5ffd5b50610dc28061001c5f395ff3fe608060405234801561000f575f5ffd5b50600436106100a2575f3560e01c80630b89f182146100a657806318b6eb55146100d35780631c149e28146101055780632754888d1461011b57806338be241d1461014757806345421ec71461015e5780635211fa7714610179578063976907cc14610187578063a0e8f5ac146101a5578063ba5f9f40146101be578063d77153a7146101cc578063e9f7c591146102da575b5f5ffd5b6100be6100b43660046104ec565b6001949350505050565b60405190151581526020015b60405180910390f35b6100ee6100e1366004610618565b6001916101009091013590565b6040805192151583526020830191909152016100ca565b6100be610113366004610726565b600192915050565b610139610129366004610797565b6001839850989650505050505050565b6040516100ca929190610886565b6100be6101553660046108d5565b60019392505050565b6100be61016c36600461094e565b6001979650505050505050565b6100be610113366004610a25565b610139610195366004610a73565b6001849850989650505050505050565b6100ee6101b3366004610b1f565b60015f935093915050565b6100be61016c366004610b74565b6102cd60408051610140810182525f80825260208201819052918101829052606081018290526080810182905260a0810182905260c0810182905260e0810182905261010081018290526101208101919091525060408051610140810182525f5460ff80821615158352610100808304821615156020850152620100008304821615159484019490945263010000008204811615156060840152600160201b8204811615156080840152600160281b82048116151560a0840152600160301b82048116151560c0840152600160381b82048116151560e0840152600160401b82048116151593830193909352600160481b9004909116151561012082015290565b6040516100ca9190610bf9565b6103ed6102e8366004610cc2565b80515f8054602084015160408501516060860151608087015160a088015160c089015160e08a0151610100808c0151610120909c015161ffff199099169a151561ff0019169a909a179615159099029590951763ffff00001916620100009415159490940263ff0000001916939093176301000000921515929092029190911761ffff60201b1916600160201b9115159190910260ff60281b191617600160281b911515919091021761ffff60301b1916600160301b9115159190910260ff60381b191617600160381b931515939093029290921761ffff60401b1916600160401b9315159390930260ff60481b191692909217600160481b91151591909102179055565b005b6001600160a01b0381168114610403575f5ffd5b50565b8035610411816103ef565b919050565b634e487b7160e01b5f52604160045260245ffd5b604051608081016001600160401b038111828210171561044c5761044c610416565b60405290565b60405161014081016001600160401b038111828210171561044c5761044c610416565b604051601f8201601f191681016001600160401b038111828210171561049d5761049d610416565b604052919050565b5f6001600160401b038211156104bd576104bd610416565b5060051b60200190565b80358015158114610411575f5ffd5b5f608082840312156104e6575f5ffd5b50919050565b5f5f5f5f60e085870312156104ff575f5ffd5b843561050a816103ef565b9350602085013561051a816103ef565b925060408501356001600160401b03811115610534575f5ffd5b8501601f81018713610544575f5ffd5b8035610557610552826104a5565b610475565b8082825260208201915060208360071b850101925089831115610578575f5ffd5b6020840193505b828410156105f9576080848b031215610596575f5ffd5b61059e61042a565b84356105a9816103ef565b81526020850135600281106105bc575f5ffd5b602082015260408501356105cf816103ef565b60408201526105e0606086016104c7565b606082015282526080939093019260209091019061057f565b8095505050505061060d86606087016104d6565b905092959194509250565b5f60208284031215610628575f5ffd5b81356001600160401b0381111561063d575f5ffd5b8201610180818503121561064f575f5ffd5b9392505050565b5f82601f830112610665575f5ffd5b8135610673610552826104a5565b8082825260208201915060208360051b860101925085831115610694575f5ffd5b602085015b838110156106b1578035835260209283019201610699565b5095945050505050565b5f82601f8301126106ca575f5ffd5b81356001600160401b038111156106e3576106e3610416565b6106f6601f8201601f1916602001610475565b81815284602083860101111561070a575f5ffd5b816020850160208301375f918101602001919091529392505050565b5f5f60408385031215610737575f5ffd5b82356001600160401b0381111561074c575f5ffd5b61075885828601610656565b92505060208301356001600160401b03811115610773575f5ffd5b61077f858286016106bb565b9150509250929050565b803560048110610411575f5ffd5b5f5f5f5f5f5f5f5f610100898b0312156107af575f5ffd5b6107b889610406565b97506107c660208a01610406565b96506107d460408a01610789565b95506060890135945060808901356001600160401b038111156107f5575f5ffd5b6108018b828c01610656565b94505060a08901356001600160401b0381111561081c575f5ffd5b6108288b828c01610656565b93505060c08901356001600160401b03811115610843575f5ffd5b61084f8b828c01610656565b92505060e08901356001600160401b0381111561086a575f5ffd5b6108768b828c016106bb565b9150509295985092959890939650565b5f604082018415158352604060208401528084518083526060850191506020860192505f5b818110156108c95783518352602093840193909201916001016108ab565b50909695505050505050565b5f5f5f606084860312156108e7575f5ffd5b83356001600160401b038111156108fc575f5ffd5b61090886828701610656565b9350506020840135915060408401356001600160401b0381111561092a575f5ffd5b610936868287016106bb565b9150509250925092565b803560058110610411575f5ffd5b5f5f5f5f5f5f5f60e0888a031215610964575f5ffd5b873561096f816103ef565b965061097d60208901610406565b955061098b60408901610940565b945060608801356001600160401b038111156109a5575f5ffd5b6109b18a828b01610656565b9450506080880135925060a08801356001600160401b038111156109d3575f5ffd5b6109df8a828b01610656565b92505060c08801356001600160401b038111156109fa575f5ffd5b610a068a828b016106bb565b91505092959891949750929550565b5f60e082840312156104e6575f5ffd5b5f5f60408385031215610a36575f5ffd5b82356001600160401b03811115610a4b575f5ffd5b610a5785828601610a15565b9250506020830135610a68816103ef565b809150509250929050565b5f5f5f5f5f5f5f5f610100898b031215610a8b575f5ffd5b610a9489610406565b9750610aa260208a01610406565b9650610ab060408a01610940565b955060608901356001600160401b03811115610aca575f5ffd5b610ad68b828c01610656565b95505060808901356001600160401b03811115610af1575f5ffd5b610afd8b828c01610656565b94505060a0890135925060c08901356001600160401b03811115610843575f5ffd5b5f5f5f60608486031215610b31575f5ffd5b83356001600160401b03811115610b46575f5ffd5b610b5286828701610a15565b9350506020840135610b63816103ef565b929592945050506040919091013590565b5f5f5f5f5f5f5f60e0888a031215610b8a575f5ffd5b8735610b95816103ef565b9650610ba360208901610406565b9550610bb160408901610789565b94506060880135935060808801356001600160401b03811115610bd2575f5ffd5b610bde8a828b01610656565b93505060a08801356001600160401b038111156109d3575f5ffd5b81511515815261014081016020830151610c17602084018215159052565b506040830151610c2b604084018215159052565b506060830151610c3f606084018215159052565b506080830151610c53608084018215159052565b5060a0830151610c6760a084018215159052565b5060c0830151610c7b60c084018215159052565b5060e0830151610c8f60e084018215159052565b50610100830151610ca561010084018215159052565b50610120830151610cbb61012084018215159052565b5092915050565b5f610140828403128015610cd4575f5ffd5b50610cdd610452565b610ce6836104c7565b8152610cf4602084016104c7565b6020820152610d05604084016104c7565b6040820152610d16606084016104c7565b6060820152610d27608084016104c7565b6080820152610d3860a084016104c7565b60a0820152610d4960c084016104c7565b60c0820152610d5a60e084016104c7565b60e0820152610d6c61010084016104c7565b610100820152610d7f61012084016104c7565b610120820152939250505056fea2646970667358221220458e313eb2e25d4e90ca13b99db7d8117757645a78524a05e53b0cab0bd3ad9764736f6c634300081e0033","linkReferences":{}},"methodIdentifiers":{"getHookFlags()":"d77153a7","onAfterAddLiquidity(address,address,uint8,uint256[],uint256[],uint256,uint256[],bytes)":"976907cc","onAfterInitialize(uint256[],uint256,bytes)":"38be241d","onAfterRemoveLiquidity(address,address,uint8,uint256,uint256[],uint256[],uint256[],bytes)":"2754888d","onAfterSwap((uint8,address,address,uint256,uint256,uint256,uint256,uint256,uint256,address,address,bytes))":"18b6eb55","onBeforeAddLiquidity(address,address,uint8,uint256[],uint256,uint256[],bytes)":"45421ec7","onBeforeInitialize(uint256[],bytes)":"1c149e28","onBeforeRemoveLiquidity(address,address,uint8,uint256,uint256[],uint256[],bytes)":"ba5f9f40","onBeforeSwap((uint8,uint256,uint256[],uint256,uint256,address,bytes),address)":"5211fa77","onComputeDynamicSwapFeePercentage((uint8,uint256,uint256[],uint256,uint256,address,bytes),address,uint256)":"a0e8f5ac","onRegister(address,address,(address,uint8,address,bool)[],(bool,bool,bool,bool))":"0b89f182","setHookFlags((bool,bool,bool,bool,bool,bool,bool,bool,bool,bool))":"e9f7c591"},"id":377}