{"abi":[{"type":"constructor","inputs":[{"name":"initialOwner","type":"address","internalType":"address"}],"stateMutability":"nonpayable"},{"type":"function","name":"diamondCut","inputs":[{"name":"diamondCut_","type":"tuple[]","internalType":"struct IDiamond.FacetCut[]","components":[{"name":"facetAddress","type":"address","internalType":"address"},{"name":"action","type":"uint8","internalType":"enum IDiamond.FacetCutAction"},{"name":"functionSelectors","type":"bytes4[]","internalType":"bytes4[]"}]},{"name":"initTarget","type":"address","internalType":"address"},{"name":"initCalldata","type":"bytes","internalType":"bytes"}],"outputs":[],"stateMutability":"nonpayable"},{"type":"function","name":"facetAddress","inputs":[{"name":"_functionSelector","type":"bytes4","internalType":"bytes4"}],"outputs":[{"name":"facetAddress_","type":"address","internalType":"address"}],"stateMutability":"view"},{"type":"function","name":"facetAddresses","inputs":[],"outputs":[{"name":"facetAddresses_","type":"address[]","internalType":"address[]"}],"stateMutability":"view"},{"type":"function","name":"facetFunctionSelectors","inputs":[{"name":"_facet","type":"address","internalType":"address"}],"outputs":[{"name":"facetFunctionSelectors_","type":"bytes4[]","internalType":"bytes4[]"}],"stateMutability":"view"},{"type":"function","name":"facets","inputs":[],"outputs":[{"name":"facets_","type":"tuple[]","internalType":"struct IDiamondLoupe.Facet[]","components":[{"name":"facetAddress","type":"address","internalType":"address"},{"name":"functionSelectors","type":"bytes4[]","internalType":"bytes4[]"}]}],"stateMutability":"view"},{"type":"event","name":"DiamondCut","inputs":[{"name":"_diamondCut","type":"tuple[]","indexed":false,"internalType":"struct IDiamond.FacetCut[]","components":[{"name":"facetAddress","type":"address","internalType":"address"},{"name":"action","type":"uint8","internalType":"enum IDiamond.FacetCutAction"},{"name":"functionSelectors","type":"bytes4[]","internalType":"bytes4[]"}]},{"name":"_init","type":"address","indexed":false,"internalType":"address"},{"name":"_calldata","type":"bytes","indexed":false,"internalType":"bytes"}],"anonymous":false},{"type":"event","name":"DiamondDelegateCall","inputs":[{"name":"_delegate","type":"address","indexed":true,"internalType":"address"},{"name":"_functionCall","type":"bytes","indexed":false,"internalType":"bytes"}],"anonymous":false},{"type":"event","name":"DiamondFunctionRemoved","inputs":[{"name":"_selector","type":"bytes4","indexed":true,"internalType":"bytes4"},{"name":"_oldFacet","type":"address","indexed":true,"internalType":"address"}],"anonymous":false},{"type":"error","name":"AddressEmptyCode","inputs":[{"name":"target","type":"address","internalType":"address"}]},{"type":"error","name":"FacetAlreadyPresent","inputs":[{"name":"facet","type":"address","internalType":"address"}]},{"type":"error","name":"FacetNotPresent","inputs":[{"name":"facet","type":"address","internalType":"address"}]},{"type":"error","name":"FailedCall","inputs":[]},{"type":"error","name":"FunctionAlreadyPresent","inputs":[{"name":"functionSelector","type":"bytes4","internalType":"bytes4"}]},{"type":"error","name":"FunctionNotPresent","inputs":[{"name":"functionSelector","type":"bytes4","internalType":"bytes4"}]},{"type":"error","name":"IndexOutOfBounds","inputs":[{"name":"length","type":"uint256","internalType":"uint256"},{"name":"invalidIndex","type":"uint256","internalType":"uint256"},{"name":"errorCode","type":"uint256","internalType":"uint256"}]},{"type":"error","name":"NotOwner","inputs":[{"name":"caller","type":"address","internalType":"address"}]},{"type":"error","name":"SelectorFacetMismatch","inputs":[{"name":"functionSelector","type":"bytes4","internalType":"bytes4"},{"name":"expectedFacet","type":"address","internalType":"address"},{"name":"actualFacet","type":"address","internalType":"address"}]}],"bytecode":{"object":"0x6080604052348015600e575f5ffd5b506040516116e13803806116e1833981016040819052602b916083565b60368162015180603b565b5060ae565b607f7f552e522d4f9b6a3d443b47299f900b7b1bce2dacca532b0186b605495413451d80546001600160a01b0319166001600160a01b038516178155600201829055565b5050565b5f602082840312156092575f5ffd5b81516001600160a01b038116811460a7575f5ffd5b9392505050565b611626806100bb5f395ff3fe608060405234801561000f575f5ffd5b5060043610610055575f3560e01c80631f931c1c1461005957806352ef6b2c1461006e5780637a0ed6271461008c578063adfca15e146100a1578063cdffacc6146100c1575b5f5ffd5b61006c610067366004611129565b6100e1565b005b6100766100f9565b60405161008391906112d7565b60405180910390f35b610094610108565b6040516100839190611366565b6100b46100af3660046113e9565b610112565b6040516100839190611402565b6100d46100cf366004611414565b610123565b604051610083919061142d565b6100e961012d565b6100f4838383610158565b505050565b606061010361016b565b905090565b606061010361017d565b606061011d8261018f565b92915050565b5f61011d826101a2565b6101567f552e522d4f9b6a3d443b47299f900b7b1bce2dacca532b0186b605495413451d6101d7565b565b6100f461016361020f565b84848461025c565b606061010361017861020f565b61031a565b606061010361018a61020f565b61037e565b606061011d61019c61020f565b8361047c565b5f61011d6101ae61020f565b836001600160e01b0319165f90815260029190910160205260409020546001600160a01b031690565b80546001600160a01b0316331461020c573360405163245aecd360e01b8152600401610203919061142d565b60405180910390fd5b50565b5f610103604051602001610243906020808252600c908201526b6569702e6572632e3235333560a01b604082015260600190565b6040516020818303038152906040528051906020012090565b61026684846104a8565b5f815111801561027e57506001600160a01b03821615155b156102d9576102966001600160a01b038316826104de565b50816001600160a01b03167ffb4514022f0c20335bef459c51d3b7d7ec4a30ac3ab8ccc1b3f83422c51ff3fc826040516102d0919061146f565b60405180910390a25b7f8faa70878671ccd212d20771b795c50af8fd3ff6cf27f4bde57e5d4de0aeb67383838360405161030c93929190611495565b60405180910390a150505050565b60606001820180548060200260200160405190810160405280929190818152602001828054801561037257602002820191905f5260205f20905b81546001600160a01b03168152600190910190602001808311610354575b50505050509050919050565b60605f61038c836001015490565b9050806001600160401b038111156103a6576103a6610ffe565b6040519080825280602002602001820160405280156103eb57816020015b604080518082019091525f8152606060208201528152602001906001900390816103c45790505b5091505f5b81811015610475575f61040385836104ea565b90506040518060400160405280826001600160a01b0316815260200161044c876003015f856001600160a01b03166001600160a01b031681526020019081526020015f2061052c565b81525084838151811061046157610461611563565b6020908102919091010152506001016103f0565b5050919050565b6001600160a01b0381165f90815260038301602052604090206060906104a19061052c565b9392505050565b5f5b81518110156100f4576104d6838383815181106104c9576104c9611563565b60200260200101516105b0565b6001016104aa565b60606104a1838361063b565b60018201545f906104fb90836106ad565b5082600101828154811061051157610511611563565b5f918252602090912001546001600160a01b03169392505050565b60608160010180548060200260200160405190810160405280929190818152602001828054801561037257602002820191905f5260205f20905f905b82829054906101000a900460e01b6001600160e01b03191681526020019060040190602082600301049283019260010382029150808411610568575094979650505050505050565b80516001600160a01b03166105c3575050565b5f816020015160028111156105da576105da611481565b036105e9576105e982826106e8565b60018160200151600281111561060157610601611481565b03610610576106108282610825565b60028160200151600281111561062857610628611481565b03610637576106378282610a7d565b5050565b60605f5f846001600160a01b0316846040516106579190611577565b5f60405180830381855af49150503d805f811461068f576040519150601f19603f3d011682016040523d82523d5f602084013e610694565b606091505b50915091506106a4858383610c13565b95945050505050565b5f8183116106df57604051635400feb960e01b8152600481018490526024810183905260326044820152606401610203565b50600192915050565b5f5b8160400151518110156107ee575f6001600160a01b0316836002015f8460400151848151811061071c5761071c611563565b6020908102919091018101516001600160e01b03191682528101919091526040015f20546001600160a01b031614610786578160400151818151811061076457610764611563565b602002602001015160405163c33ebb5960e01b8152600401610203919061158d565b815f0151836002015f846040015184815181106107a5576107a5611563565b6020908102919091018101516001600160e01b03191682528101919091526040015f2080546001600160a01b0319166001600160a01b03929092169190911790556001016106ea565b5060408082015182516001600160a01b03165f908152600385016020529190912061081891610c66565b80516100f4908390610c9c565b5f5b8160400151518110156107ee575f6001600160a01b0316836002015f8460400151848151811061085957610859611563565b6020908102919091018101516001600160e01b03191682528101919091526040015f20546001600160a01b0316036108c357816040015181815181106108a1576108a1611563565b6020026020010151604051631310a10960e11b8152600401610203919061158d565b815f01516001600160a01b0316836002015f846040015184815181106108eb576108eb611563565b6020908102919091018101516001600160e01b03191682528101919091526040015f20546001600160a01b0316036109395781516040516386bba0cb60e01b8152610203919060040161142d565b5f836002015f8460400151848151811061095557610955611563565b60200260200101516001600160e01b0319166001600160e01b03191681526020019081526020015f205f9054906101000a90046001600160a01b031690506109e7836040015183815181106109ac576109ac611563565b6020026020010151856003015f846001600160a01b03166001600160a01b031681526020019081526020015f20610d0090919063ffffffff16565b6001600160a01b0381165f9081526003850160205260409020600101545f03610a1457610a148482610e3d565b825f0151846002015f85604001518581518110610a3357610a33611563565b6020908102919091018101516001600160e01b03191682528101919091526040015f2080546001600160a01b0319166001600160a01b039290921691909117905550600101610827565b5f5b816040015151811015610be1575f82604001518281518110610aa357610aa3611563565b6020908102919091018101516001600160e01b031981165f908152600287019092526040909120549091506001600160a01b031680610af75781604051631310a10960e11b8152600401610203919061158d565b83516001600160a01b03828116911614610b4a578351604051632377a52b60e21b81526001600160e01b0319841660048201526001600160a01b0391821660248201529082166044820152606401610203565b6001600160e01b031982165f908152600286016020908152604080832080546001600160a01b031916905586516001600160a01b03168352600388019091529020610b959083610d00565b83516040516001600160a01b03909116906001600160e01b03198416907fa24c9d3a0f634225f6932b85d43ff7a2dcb0b8778ad4caedbc13c840f5e4fd6d905f90a35050600101610a7f565b5080516001600160a01b03165f9081526003830160205260409020600101545f03610637578051610637908390610e3d565b606082610c2857610c2382610f5b565b6104a1565b8151158015610c3f57506001600160a01b0384163b155b15610c5f5783604051639996b31560e01b8152600401610203919061142d565b5092915050565b5f5b81518110156100f457610c9483838381518110610c8757610c87611563565b6020026020010151610f84565b600101610c68565b6001600160a01b0381165f908152602083905260408120546106df57506001828101805480830182555f828152602080822090920180546001600160a01b0319166001600160a01b0396909616958617905591549382529390935260409092205590565b6001600160e01b031981165f9081526020839052604090205480156100f4575f610d2b6001836115b6565b600180860180549293505f929091610d42916115b6565b81548110610d5257610d52611563565b905f5260205f2090600891828204019190066004029054906101000a900460e01b905080856001018381548110610d8b57610d8b611563565b905f5260205f2090600891828204019190066004026101000a81548163ffffffff021916908360e01c0217905550816001610dc691906115c9565b6001600160e01b031982165f9081526020879052604090205560018501805480610df257610df26115dc565b5f828152602080822060085f1990940193840401805463ffffffff600460078716026101000a0219169055919092556001600160e01b03198616825286905260408120555050505050565b6001600160a01b0381165f9081526020839052604090205480156100f4575f610e676001836115b6565b600180860180549293505f929091610e7e916115b6565b81548110610e8e57610e8e611563565b5f918252602090912001546001860180546001600160a01b039092169250829184908110610ebe57610ebe611563565b5f91825260209091200180546001600160a01b0319166001600160a01b0392909216919091179055610ef18260016115c9565b6001600160a01b0382165f9081526020879052604090205560018501805480610f1c57610f1c6115dc565b5f828152602080822083015f1990810180546001600160a01b03191690559092019092556001600160a01b038616825286905260408120555050505050565b805115610f6b5780518082602001fd5b60405163d6bda27560e01b815260040160405180910390fd5b6001600160e01b031981165f90815260208390526040902054610637576001828101805491820181555f81815260208082206008850401805463ffffffff60079096166004026101000a958602191660e087901c959095029490941790935590546001600160e01b03199093168152929052604090912055565b634e487b7160e01b5f52604160045260245ffd5b604051606081016001600160401b038111828210171561103457611034610ffe565b60405290565b604051601f8201601f191681016001600160401b038111828210171561106257611062610ffe565b604052919050565b5f6001600160401b0382111561108257611082610ffe565b5060051b60200190565b80356001600160a01b03811681146110a2575f5ffd5b919050565b80356001600160e01b0319811681146110a2575f5ffd5b5f82601f8301126110cd575f5ffd5b81356001600160401b038111156110e6576110e6610ffe565b6110f9601f8201601f191660200161103a565b81815284602083860101111561110d575f5ffd5b816020850160208301375f918101602001919091529392505050565b5f5f5f6060848603121561113b575f5ffd5b83356001600160401b03811115611150575f5ffd5b8401601f81018613611160575f5ffd5b803561117361116e8261106a565b61103a565b8082825260208201915060208360051b850101925088831115611194575f5ffd5b602084015b838110156112945780356001600160401b038111156111b6575f5ffd5b85016060818c03601f190112156111cb575f5ffd5b6111d3611012565b6111df6020830161108c565b81526040820135600381106111f2575f5ffd5b602082015260608201356001600160401b0381111561120f575f5ffd5b6020818401019250508b601f830112611226575f5ffd5b813561123461116e8261106a565b8082825260208201915060208360051b86010192508e831115611255575f5ffd5b6020850194505b8285101561127e5761126d856110a7565b82526020948501949091019061125c565b6040840152505084525060209283019201611199565b5095506112a7925050506020850161108c565b915060408401356001600160401b038111156112c1575f5ffd5b6112cd868287016110be565b9150509250925092565b602080825282518282018190525f918401906040840190835b818110156113175783516001600160a01b03168352602093840193909201916001016112f0565b509095945050505050565b5f8151808452602084019350602083015f5b8281101561135c5781516001600160e01b031916865260209586019590910190600101611334565b5093949350505050565b5f602082016020835280845180835260408501915060408160051b8601019250602086015f5b828110156113dd57868503603f19018452815180516001600160a01b031686526020908101516040918701829052906113c790870182611322565b955050602093840193919091019060010161138c565b50929695505050505050565b5f602082840312156113f9575f5ffd5b6104a18261108c565b602081525f6104a16020830184611322565b5f60208284031215611424575f5ffd5b6104a1826110a7565b6001600160a01b0391909116815260200190565b5f81518084528060208401602086015e5f602082860101526020601f19601f83011685010191505092915050565b602081525f6104a16020830184611441565b634e487b7160e01b5f52602160045260245ffd5b5f606082016060835280865180835260808501915060808160051b8601019250602088015f5b8281101561153457868503607f19018452815180516001600160a01b031686526020810151600381106114fc57634e487b7160e01b5f52602160045260245ffd5b80602088015250604081015190506060604087015261151e6060870182611322565b95505060209384019391909101906001016114bb565b5050506001600160a01b03861660208501525082810360408401526115598185611441565b9695505050505050565b634e487b7160e01b5f52603260045260245ffd5b5f82518060208501845e5f920191825250919050565b6001600160e01b031991909116815260200190565b634e487b7160e01b5f52601160045260245ffd5b8181038181111561011d5761011d6115a2565b8082018082111561011d5761011d6115a2565b634e487b7160e01b5f52603160045260245ffdfea2646970667358221220cb5e07af397c4494388f5e83f09e20b1de0f22e3122df46b6fdbe6eb882e957f64736f6c634300081e0033","linkReferences":{}},"methodIdentifiers":{"diamondCut((address,uint8,bytes4[])[],address,bytes)":"1f931c1c","facetAddress(bytes4)":"cdffacc6","facetAddresses()":"52ef6b2c","facetFunctionSelectors(address)":"adfca15e","facets()":"7a0ed627"},"id":665}