{"abi":[{"type":"constructor","inputs":[],"stateMutability":"nonpayable"},{"type":"function","name":"calcSalt","inputs":[{"name":"pkgArgs","type":"bytes","internalType":"bytes"}],"outputs":[{"name":"salt","type":"bytes32","internalType":"bytes32"}],"stateMutability":"pure"},{"type":"function","name":"diamondConfig","inputs":[],"outputs":[{"name":"config","type":"tuple","internalType":"struct IDiamondFactoryPackage.DiamondConfig","components":[{"name":"facetCuts","type":"tuple[]","internalType":"struct IDiamond.FacetCut[]","components":[{"name":"facetAddress","type":"address","internalType":"address"},{"name":"action","type":"uint8","internalType":"enum IDiamond.FacetCutAction"},{"name":"functionSelectors","type":"bytes4[]","internalType":"bytes4[]"}]},{"name":"interfaces","type":"bytes4[]","internalType":"bytes4[]"}]}],"stateMutability":"view"},{"type":"function","name":"facetAddresses","inputs":[],"outputs":[{"name":"facetAddresses_","type":"address[]","internalType":"address[]"}],"stateMutability":"view"},{"type":"function","name":"facetCuts","inputs":[],"outputs":[{"name":"facetCuts_","type":"tuple[]","internalType":"struct IDiamond.FacetCut[]","components":[{"name":"facetAddress","type":"address","internalType":"address"},{"name":"action","type":"uint8","internalType":"enum IDiamond.FacetCutAction"},{"name":"functionSelectors","type":"bytes4[]","internalType":"bytes4[]"}]}],"stateMutability":"view"},{"type":"function","name":"facetFuncs","inputs":[],"outputs":[{"name":"funcs","type":"bytes4[]","internalType":"bytes4[]"}],"stateMutability":"pure"},{"type":"function","name":"facetInterfaces","inputs":[],"outputs":[{"name":"interfaces","type":"bytes4[]","internalType":"bytes4[]"}],"stateMutability":"pure"},{"type":"function","name":"facetMetadata","inputs":[],"outputs":[{"name":"name_","type":"string","internalType":"string"},{"name":"interfaces","type":"bytes4[]","internalType":"bytes4[]"},{"name":"functions","type":"bytes4[]","internalType":"bytes4[]"}],"stateMutability":"pure"},{"type":"function","name":"facetName","inputs":[],"outputs":[{"name":"name","type":"string","internalType":"string"}],"stateMutability":"pure"},{"type":"function","name":"initAccount","inputs":[{"name":"initArgs","type":"bytes","internalType":"bytes"}],"outputs":[],"stateMutability":"nonpayable"},{"type":"function","name":"mintToken","inputs":[{"name":"token","type":"address","internalType":"contract IERC20MintBurn"},{"name":"amount","type":"uint256","internalType":"uint256"},{"name":"recipient","type":"address","internalType":"address"}],"outputs":[{"name":"","type":"bool","internalType":"bool"}],"stateMutability":"nonpayable"},{"type":"function","name":"packageMetadata","inputs":[],"outputs":[{"name":"name_","type":"string","internalType":"string"},{"name":"interfaces","type":"bytes4[]","internalType":"bytes4[]"},{"name":"facets","type":"address[]","internalType":"address[]"}],"stateMutability":"view"},{"type":"function","name":"packageName","inputs":[],"outputs":[{"name":"name_","type":"string","internalType":"string"}],"stateMutability":"pure"},{"type":"function","name":"postDeploy","inputs":[{"name":"","type":"address","internalType":"address"}],"outputs":[{"name":"","type":"bool","internalType":"bool"}],"stateMutability":"pure"},{"type":"function","name":"processArgs","inputs":[{"name":"pkgArgs","type":"bytes","internalType":"bytes"}],"outputs":[{"name":"processedPkgArgs","type":"bytes","internalType":"bytes"}],"stateMutability":"pure"},{"type":"function","name":"updatePkg","inputs":[{"name":"","type":"address","internalType":"address"},{"name":"","type":"bytes","internalType":"bytes"}],"outputs":[{"name":"","type":"bool","internalType":"bool"}],"stateMutability":"nonpayable"},{"type":"error","name":"MinimumMintInternalNotMet","inputs":[{"name":"lastMintTimestamp","type":"uint256","internalType":"uint256"},{"name":"currentTimestamp","type":"uint256","internalType":"uint256"},{"name":"minMintInterval","type":"uint256","internalType":"uint256"}]}],"bytecode":{"object":"0x60a0604052348015600e575f5ffd5b5030608052608051610bc86100325f395f8181610284015261051f0152610bc85ff3fe608060405234801561000f575f5ffd5b50600436106100c3575f3560e01c80632ea80826146100c757806352ef6b2c146100e5578063574a4cff146100fa5780635b6f4d011461010257806365d375b3146101175780636dfada861461012c57806370068fcf1461014f578063870d48381461016357806387c3adb314610178578063a4b3ad3514610189578063a90892351461019e578063abc8b346146101b1578063d82be56e146101b9578063f10d7a75146101da578063f45469e7146101f1575b5f5ffd5b6100cf610208565b6040516100dc91906106c4565b60405180910390f35b6100ed610260565b6040516100dc9190610716565b6100cf6102d8565b61010a610314565b6040516100dc9190610756565b61011f610344565b6040516100dc9190610768565b61013f61013a366004610851565b61037f565b60405190151581526020016100dc565b61013f61015d366004610890565b50600190565b610176610171366004610948565b61049b565b005b61010a610186366004610948565b90565b6101916104c7565b6040516100dc9190610981565b61013f6101ac366004610a2c565b610577565b61010a610580565b6101cc6101c7366004610948565b6105b5565b6040519081526020016100dc565b6101e26105c3565b6040516100dc93929190610a78565b6101f96105eb565b6040516100dc93929190610aba565b604080516001808252818301909252606091602080830190803683370190505090506336fd6d4360e11b815f8151811061024457610244610af2565b6001600160e01b03199092166020928302919091019091015290565b604080516001808252818301909252606091602080830190803683370190505090507f0000000000000000000000000000000000000000000000000000000000000000815f815181106102b5576102b5610af2565b60200260200101906001600160a01b031690816001600160a01b03168152505090565b60408051600180825281830190925260609160208083019080368337019050509050636dfada8660e01b815f8151811061024457610244610af2565b604080518082019091526016815275115490cc8c135a5b9d195c919858d85919519858d95d60521b602082015290565b6040805180820190915260608082526020820152604051806040016040528061036b6104c7565b8152602001610378610208565b9052919050565b5f5f61038961060c565b6001600160a01b0386165f9081526002820160205260409020546001820154919250906103b68183610b06565b4210156103e9576040516252d0a960e71b8152600481018390524260248201526044810182905260640160405180910390fd5b5f6103f2845490565b905080871115610400578096505b6001600160a01b0386165f90815260028501602052604090204290556040516340c10f1960e01b81526001600160a01b038781166004830152602482018990528916906340c10f19906044016020604051808303815f875af1158015610468573d5f5f3e3d5ffd5b505050506040513d601f19601f8201168201806040525081019061048c9190610b25565b50600198975050505050505050565b5f818060200190518101906104b09190610b44565b90506104c3815f0151826020015161066a565b5050565b604080516001808252818301909252606091816020015b60408051606080820183525f8083526020830152918101919091528152602001906001900390816104de575050604080516060810182526001600160a01b037f00000000000000000000000000000000000000000000000000000000000000001681525f602082015291925081016105546102d8565b815250815f8151811061056957610569610af2565b602002602001018190525090565b60015b92915050565b60408051808201909152601b81527a45524332304d696e74657246616361646546616365744446506b6760281b602082015290565b805160208201205f9061057a565b60608060606105d0610314565b92506105da610208565b91506105e46102d8565b9050909192565b60608060606105f8610580565b9250610602610208565b91506105e4610260565b5f61066560405160200161064c906020808252601890820152776569702e6572632e32302e6d696e7465722e66616361646560401b604082015260600190565b6040516020818303038152906040528051906020012090565b905090565b6104c361067561060c565b838155600101829055565b5f8151808452602084019350602083015f5b828110156106ba5781516001600160e01b031916865260209586019590910190600101610692565b5093949350505050565b602081525f6106d66020830184610680565b9392505050565b5f8151808452602084019350602083015f5b828110156106ba5781516001600160a01b03168652602095860195909101906001016106ef565b602081525f6106d660208301846106dd565b5f81518084528060208401602086015e5f602082860101526020601f19601f83011685010191505092915050565b602081525f6106d66020830184610728565b602081525f6060820183516040602085015281815180845260808601915060808160051b87010193506020830192505f5b8181101561081257868503607f19018352835180516001600160a01b031686526020810151600381106107da57634e487b7160e01b5f52602160045260245ffd5b8060208801525060408101519050606060408701526107fc6060870182610680565b9550506020938401939290920191600101610799565b505050506020840151838203601f190160408501526108318282610680565b95945050505050565b6001600160a01b038116811461084e575f5ffd5b50565b5f5f5f60608486031215610863575f5ffd5b833561086e8161083a565b92506020840135915060408401356108858161083a565b809150509250925092565b5f602082840312156108a0575f5ffd5b81356106d68161083a565b634e487b7160e01b5f52604160045260245ffd5b5f82601f8301126108ce575f5ffd5b81356001600160401b038111156108e7576108e76108ab565b604051601f8201601f19908116603f011681016001600160401b0381118282101715610915576109156108ab565b60405281815283820160200185101561092c575f5ffd5b816020850160208301375f918101602001919091529392505050565b5f60208284031215610958575f5ffd5b81356001600160401b0381111561096d575f5ffd5b610979848285016108bf565b949350505050565b5f602082016020835280845180835260408501915060408160051b8601019250602086015f5b82811015610a2057868503603f19018452815180516001600160a01b031686526020810151600381106109e857634e487b7160e01b5f52602160045260245ffd5b806020880152506040810151905060606040870152610a0a6060870182610680565b95505060209384019391909101906001016109a7565b50929695505050505050565b5f5f60408385031215610a3d575f5ffd5b8235610a488161083a565b915060208301356001600160401b03811115610a62575f5ffd5b610a6e858286016108bf565b9150509250929050565b606081525f610a8a6060830186610728565b8281036020840152610a9c8186610680565b90508281036040840152610ab08185610680565b9695505050505050565b606081525f610acc6060830186610728565b8281036020840152610ade8186610680565b90508281036040840152610ab081856106dd565b634e487b7160e01b5f52603260045260245ffd5b8082018082111561057a57634e487b7160e01b5f52601160045260245ffd5b5f60208284031215610b35575f5ffd5b815180151581146106d6575f5ffd5b5f6040828403128015610b55575f5ffd5b50604080519081016001600160401b0381118282101715610b7857610b786108ab565b60405282518152602092830151928101929092525091905056fea26469706673582212201540b8c0f0acba9c2334dd8fd47dc4431a4e0b9267fbe2a6bfbb71eb96d8cc4464736f6c634300081e0033","linkReferences":{}},"methodIdentifiers":{"calcSalt(bytes)":"d82be56e","diamondConfig()":"65d375b3","facetAddresses()":"52ef6b2c","facetCuts()":"a4b3ad35","facetFuncs()":"574a4cff","facetInterfaces()":"2ea80826","facetMetadata()":"f10d7a75","facetName()":"5b6f4d01","initAccount(bytes)":"870d4838","mintToken(address,uint256,address)":"6dfada86","packageMetadata()":"f45469e7","packageName()":"abc8b346","postDeploy(address)":"70068fcf","processArgs(bytes)":"87c3adb3","updatePkg(address,bytes)":"a9089235"},"id":1314}