{"abi":[{"type":"constructor","inputs":[{"name":"_poolManager","type":"address","internalType":"contract IPoolManager"},{"name":"_wstETH","type":"address","internalType":"contract IWstETH"}],"stateMutability":"nonpayable"},{"type":"function","name":"afterAddLiquidity","inputs":[{"name":"sender","type":"address","internalType":"address"},{"name":"key","type":"tuple","internalType":"struct PoolKey","components":[{"name":"currency0","type":"address","internalType":"Currency"},{"name":"currency1","type":"address","internalType":"Currency"},{"name":"fee","type":"uint24","internalType":"uint24"},{"name":"tickSpacing","type":"int24","internalType":"int24"},{"name":"hooks","type":"address","internalType":"contract IHooks"}]},{"name":"params","type":"tuple","internalType":"struct ModifyLiquidityParams","components":[{"name":"tickLower","type":"int24","internalType":"int24"},{"name":"tickUpper","type":"int24","internalType":"int24"},{"name":"liquidityDelta","type":"int256","internalType":"int256"},{"name":"salt","type":"bytes32","internalType":"bytes32"}]},{"name":"delta","type":"int256","internalType":"BalanceDelta"},{"name":"feesAccrued","type":"int256","internalType":"BalanceDelta"},{"name":"hookData","type":"bytes","internalType":"bytes"}],"outputs":[{"name":"","type":"bytes4","internalType":"bytes4"},{"name":"","type":"int256","internalType":"BalanceDelta"}],"stateMutability":"nonpayable"},{"type":"function","name":"afterDonate","inputs":[{"name":"sender","type":"address","internalType":"address"},{"name":"key","type":"tuple","internalType":"struct PoolKey","components":[{"name":"currency0","type":"address","internalType":"Currency"},{"name":"currency1","type":"address","internalType":"Currency"},{"name":"fee","type":"uint24","internalType":"uint24"},{"name":"tickSpacing","type":"int24","internalType":"int24"},{"name":"hooks","type":"address","internalType":"contract IHooks"}]},{"name":"amount0","type":"uint256","internalType":"uint256"},{"name":"amount1","type":"uint256","internalType":"uint256"},{"name":"hookData","type":"bytes","internalType":"bytes"}],"outputs":[{"name":"","type":"bytes4","internalType":"bytes4"}],"stateMutability":"nonpayable"},{"type":"function","name":"afterInitialize","inputs":[{"name":"sender","type":"address","internalType":"address"},{"name":"key","type":"tuple","internalType":"struct PoolKey","components":[{"name":"currency0","type":"address","internalType":"Currency"},{"name":"currency1","type":"address","internalType":"Currency"},{"name":"fee","type":"uint24","internalType":"uint24"},{"name":"tickSpacing","type":"int24","internalType":"int24"},{"name":"hooks","type":"address","internalType":"contract IHooks"}]},{"name":"sqrtPriceX96","type":"uint160","internalType":"uint160"},{"name":"tick","type":"int24","internalType":"int24"}],"outputs":[{"name":"","type":"bytes4","internalType":"bytes4"}],"stateMutability":"nonpayable"},{"type":"function","name":"afterRemoveLiquidity","inputs":[{"name":"sender","type":"address","internalType":"address"},{"name":"key","type":"tuple","internalType":"struct PoolKey","components":[{"name":"currency0","type":"address","internalType":"Currency"},{"name":"currency1","type":"address","internalType":"Currency"},{"name":"fee","type":"uint24","internalType":"uint24"},{"name":"tickSpacing","type":"int24","internalType":"int24"},{"name":"hooks","type":"address","internalType":"contract IHooks"}]},{"name":"params","type":"tuple","internalType":"struct ModifyLiquidityParams","components":[{"name":"tickLower","type":"int24","internalType":"int24"},{"name":"tickUpper","type":"int24","internalType":"int24"},{"name":"liquidityDelta","type":"int256","internalType":"int256"},{"name":"salt","type":"bytes32","internalType":"bytes32"}]},{"name":"delta","type":"int256","internalType":"BalanceDelta"},{"name":"feesAccrued","type":"int256","internalType":"BalanceDelta"},{"name":"hookData","type":"bytes","internalType":"bytes"}],"outputs":[{"name":"","type":"bytes4","internalType":"bytes4"},{"name":"","type":"int256","internalType":"BalanceDelta"}],"stateMutability":"nonpayable"},{"type":"function","name":"afterSwap","inputs":[{"name":"sender","type":"address","internalType":"address"},{"name":"key","type":"tuple","internalType":"struct PoolKey","components":[{"name":"currency0","type":"address","internalType":"Currency"},{"name":"currency1","type":"address","internalType":"Currency"},{"name":"fee","type":"uint24","internalType":"uint24"},{"name":"tickSpacing","type":"int24","internalType":"int24"},{"name":"hooks","type":"address","internalType":"contract IHooks"}]},{"name":"params","type":"tuple","internalType":"struct SwapParams","components":[{"name":"zeroForOne","type":"bool","internalType":"bool"},{"name":"amountSpecified","type":"int256","internalType":"int256"},{"name":"sqrtPriceLimitX96","type":"uint160","internalType":"uint160"}]},{"name":"delta","type":"int256","internalType":"BalanceDelta"},{"name":"hookData","type":"bytes","internalType":"bytes"}],"outputs":[{"name":"","type":"bytes4","internalType":"bytes4"},{"name":"","type":"int128","internalType":"int128"}],"stateMutability":"nonpayable"},{"type":"function","name":"beforeAddLiquidity","inputs":[{"name":"sender","type":"address","internalType":"address"},{"name":"key","type":"tuple","internalType":"struct PoolKey","components":[{"name":"currency0","type":"address","internalType":"Currency"},{"name":"currency1","type":"address","internalType":"Currency"},{"name":"fee","type":"uint24","internalType":"uint24"},{"name":"tickSpacing","type":"int24","internalType":"int24"},{"name":"hooks","type":"address","internalType":"contract IHooks"}]},{"name":"params","type":"tuple","internalType":"struct ModifyLiquidityParams","components":[{"name":"tickLower","type":"int24","internalType":"int24"},{"name":"tickUpper","type":"int24","internalType":"int24"},{"name":"liquidityDelta","type":"int256","internalType":"int256"},{"name":"salt","type":"bytes32","internalType":"bytes32"}]},{"name":"hookData","type":"bytes","internalType":"bytes"}],"outputs":[{"name":"","type":"bytes4","internalType":"bytes4"}],"stateMutability":"nonpayable"},{"type":"function","name":"beforeDonate","inputs":[{"name":"sender","type":"address","internalType":"address"},{"name":"key","type":"tuple","internalType":"struct PoolKey","components":[{"name":"currency0","type":"address","internalType":"Currency"},{"name":"currency1","type":"address","internalType":"Currency"},{"name":"fee","type":"uint24","internalType":"uint24"},{"name":"tickSpacing","type":"int24","internalType":"int24"},{"name":"hooks","type":"address","internalType":"contract IHooks"}]},{"name":"amount0","type":"uint256","internalType":"uint256"},{"name":"amount1","type":"uint256","internalType":"uint256"},{"name":"hookData","type":"bytes","internalType":"bytes"}],"outputs":[{"name":"","type":"bytes4","internalType":"bytes4"}],"stateMutability":"nonpayable"},{"type":"function","name":"beforeInitialize","inputs":[{"name":"sender","type":"address","internalType":"address"},{"name":"key","type":"tuple","internalType":"struct PoolKey","components":[{"name":"currency0","type":"address","internalType":"Currency"},{"name":"currency1","type":"address","internalType":"Currency"},{"name":"fee","type":"uint24","internalType":"uint24"},{"name":"tickSpacing","type":"int24","internalType":"int24"},{"name":"hooks","type":"address","internalType":"contract IHooks"}]},{"name":"sqrtPriceX96","type":"uint160","internalType":"uint160"}],"outputs":[{"name":"","type":"bytes4","internalType":"bytes4"}],"stateMutability":"nonpayable"},{"type":"function","name":"beforeRemoveLiquidity","inputs":[{"name":"sender","type":"address","internalType":"address"},{"name":"key","type":"tuple","internalType":"struct PoolKey","components":[{"name":"currency0","type":"address","internalType":"Currency"},{"name":"currency1","type":"address","internalType":"Currency"},{"name":"fee","type":"uint24","internalType":"uint24"},{"name":"tickSpacing","type":"int24","internalType":"int24"},{"name":"hooks","type":"address","internalType":"contract IHooks"}]},{"name":"params","type":"tuple","internalType":"struct ModifyLiquidityParams","components":[{"name":"tickLower","type":"int24","internalType":"int24"},{"name":"tickUpper","type":"int24","internalType":"int24"},{"name":"liquidityDelta","type":"int256","internalType":"int256"},{"name":"salt","type":"bytes32","internalType":"bytes32"}]},{"name":"hookData","type":"bytes","internalType":"bytes"}],"outputs":[{"name":"","type":"bytes4","internalType":"bytes4"}],"stateMutability":"nonpayable"},{"type":"function","name":"beforeSwap","inputs":[{"name":"sender","type":"address","internalType":"address"},{"name":"key","type":"tuple","internalType":"struct PoolKey","components":[{"name":"currency0","type":"address","internalType":"Currency"},{"name":"currency1","type":"address","internalType":"Currency"},{"name":"fee","type":"uint24","internalType":"uint24"},{"name":"tickSpacing","type":"int24","internalType":"int24"},{"name":"hooks","type":"address","internalType":"contract IHooks"}]},{"name":"params","type":"tuple","internalType":"struct SwapParams","components":[{"name":"zeroForOne","type":"bool","internalType":"bool"},{"name":"amountSpecified","type":"int256","internalType":"int256"},{"name":"sqrtPriceLimitX96","type":"uint160","internalType":"uint160"}]},{"name":"hookData","type":"bytes","internalType":"bytes"}],"outputs":[{"name":"","type":"bytes4","internalType":"bytes4"},{"name":"","type":"int256","internalType":"BeforeSwapDelta"},{"name":"","type":"uint24","internalType":"uint24"}],"stateMutability":"nonpayable"},{"type":"function","name":"getHookPermissions","inputs":[],"outputs":[{"name":"","type":"tuple","internalType":"struct Hooks.Permissions","components":[{"name":"beforeInitialize","type":"bool","internalType":"bool"},{"name":"afterInitialize","type":"bool","internalType":"bool"},{"name":"beforeAddLiquidity","type":"bool","internalType":"bool"},{"name":"afterAddLiquidity","type":"bool","internalType":"bool"},{"name":"beforeRemoveLiquidity","type":"bool","internalType":"bool"},{"name":"afterRemoveLiquidity","type":"bool","internalType":"bool"},{"name":"beforeSwap","type":"bool","internalType":"bool"},{"name":"afterSwap","type":"bool","internalType":"bool"},{"name":"beforeDonate","type":"bool","internalType":"bool"},{"name":"afterDonate","type":"bool","internalType":"bool"},{"name":"beforeSwapReturnDelta","type":"bool","internalType":"bool"},{"name":"afterSwapReturnDelta","type":"bool","internalType":"bool"},{"name":"afterAddLiquidityReturnDelta","type":"bool","internalType":"bool"},{"name":"afterRemoveLiquidityReturnDelta","type":"bool","internalType":"bool"}]}],"stateMutability":"pure"},{"type":"function","name":"poolManager","inputs":[],"outputs":[{"name":"","type":"address","internalType":"contract IPoolManager"}],"stateMutability":"view"},{"type":"function","name":"underlyingCurrency","inputs":[],"outputs":[{"name":"","type":"address","internalType":"Currency"}],"stateMutability":"view"},{"type":"function","name":"wrapZeroForOne","inputs":[],"outputs":[{"name":"","type":"bool","internalType":"bool"}],"stateMutability":"view"},{"type":"function","name":"wrapperCurrency","inputs":[],"outputs":[{"name":"","type":"address","internalType":"Currency"}],"stateMutability":"view"},{"type":"function","name":"wstETH","inputs":[],"outputs":[{"name":"","type":"address","internalType":"contract IWstETH"}],"stateMutability":"view"},{"type":"error","name":"DeltaNotNegative","inputs":[{"name":"currency","type":"address","internalType":"Currency"}]},{"type":"error","name":"DeltaNotPositive","inputs":[{"name":"currency","type":"address","internalType":"Currency"}]},{"type":"error","name":"ExactInputNotSupported","inputs":[]},{"type":"error","name":"ExactOutputNotSupported","inputs":[]},{"type":"error","name":"HookNotImplemented","inputs":[]},{"type":"error","name":"InsufficientBalance","inputs":[]},{"type":"error","name":"InvalidPoolFee","inputs":[]},{"type":"error","name":"InvalidPoolToken","inputs":[]},{"type":"error","name":"LiquidityNotAllowed","inputs":[]},{"type":"error","name":"NotPoolManager","inputs":[]},{"type":"error","name":"SafeCastOverflow","inputs":[]}],"bytecode":{"object":"0x610120604052348015610010575f5ffd5b50604051611f23380380611f2383398101604081905261002f916104c9565b81818181826001600160a01b031663c1fe3e486040518163ffffffff1660e01b8152600401602060405180830381865afa15801561006f573d5f5f3e3d5ffd5b505050506040513d601f19601f820116820180604052508101906100939190610501565b6001600160a01b038316608052826100aa306100e7565b506001600160a01b0391821660a081905290821660c081905290811060e0529083166101008190526100de92505f196101da565b50505050610523565b6101d7816101d2604080516101c0810182525f80825260208201819052918101829052606081018290526080810182905260a0810182905260c0810182905260e08101829052610100810182905261012081018290526101408101829052610160810182905261018081018290526101a081019190915250604080516101c08101825260018082525f60208301819052928201819052606082018390526080820183905260a0820183905260c0820181905260e0820183905261010082018390526101208201839052610140820152610160810182905261018081018290526101a081019190915290565b610260565b50565b5f60405163095ea7b360e01b81526001600160a01b038416600482015282602482015260205f6044835f895af13d15601f3d1160015f51141617169150508061025a5760405162461bcd60e51b815260206004820152600e60248201526d1054141493d59157d1905253115160921b604482015260640160405180910390fd5b50505050565b6102756001600160a01b038316612000610491565b815115159015151415806102a557506102996001600160a01b038316611000610491565b15158160200151151514155b806102cc57506102c06001600160a01b038316610800610491565b15158160400151151514155b806102f357506102e76001600160a01b038316610400610491565b15158160600151151514155b8061031a575061030e6001600160a01b038316610200610491565b15158160800151151514155b8061034157506103356001600160a01b038316610100610491565b15158160a00151151514155b80610367575061035b6001600160a01b0383166080610491565b15158160c00151151514155b8061038d57506103816001600160a01b0383166040610491565b15158160e00151151514155b806103b457506103a76001600160a01b0383166020610491565b1515816101000151151514155b806103db57506103ce6001600160a01b0383166010610491565b1515816101200151151514155b8061040257506103f56001600160a01b0383166008610491565b1515816101400151151514155b80610429575061041c6001600160a01b0383166004610491565b1515816101600151151514155b8061045057506104436001600160a01b0383166002610491565b1515816101800151151514155b80610477575061046a6001600160a01b0383166001610491565b1515816101a00151151514155b1561048d5761048d630732d7b560e51b836104a0565b5050565b166001600160a01b0316151590565b815f526001600160a01b03811660045260245ffd5b6001600160a01b03811681146101d7575f5ffd5b5f5f604083850312156104da575f5ffd5b82516104e5816104b5565b60208401519092506104f6816104b5565b809150509250929050565b5f60208284031215610511575f5ffd5b815161051c816104b5565b9392505050565b60805160a05160c05160e051610100516119006106235f395f818161015301528181610a2b01528181610bc701528181610ca40152610d5d01525f81816101b80152818161078201526108f901525f818160d70152818161096e01528181610ad001528181610dd401528181610e840152610ec301525f81816103720152818161092e0152610d1c01525f8181610399015281816103da0152818161043b01528181610494015281816104fd01528181610566015281816105c60152818161062d0152818161069001528181610e0301528181610ef001528181610fd301528181611052015281816110cd01528181611161015261122401526119005ff3fe608060405234801561000f575f5ffd5b50600436106100ce575f3560e01c80630bc6bffc146100d257806321d0ee701461010f578063259982e51461013b5780634aa07e641461014e578063575e24b4146101755780635d5711a5146101b35780636c2bbe7e146101ea5780636fe7e6eb1461021d5780639f063efc146101ea578063b47b2fb114610230578063b6a8b0fa14610266578063c4e833ce14610279578063d52f63cf1461036d578063dc4c90d314610394578063dc98354e146103bb578063e1b4af6914610266575b5f5ffd5b6100f97f000000000000000000000000000000000000000000000000000000000000000081565b6040516101069190611357565b60405180910390f35b61012261011d3660046113ec565b6103ce565b6040516001600160e01b03199091168152602001610106565b6101226101493660046113ec565b61042f565b6100f97f000000000000000000000000000000000000000000000000000000000000000081565b610188610183366004611472565b610486565b604080516001600160e01b03199094168452602084019290925262ffffff1690820152606001610106565b6101da7f000000000000000000000000000000000000000000000000000000000000000081565b6040519015158152602001610106565b6101fd6101f83660046114cb565b6104f0565b604080516001600160e01b03199093168352602083019190915201610106565b61012261022b366004611555565b61055a565b61024361023e3660046115b4565b6105b9565b604080516001600160e01b03199093168352600f9190910b602083015201610106565b610122610274366004611634565b610621565b610360604080516101c0810182525f80825260208201819052918101829052606081018290526080810182905260a0810182905260c0810182905260e08101829052610100810182905261012081018290526101408101829052610160810182905261018081018290526101a081019190915250604080516101c08101825260018082525f60208301819052928201819052606082018390526080820183905260a0820183905260c0820181905260e0820183905261010082018390526101208201839052610140820152610160810182905261018081018290526101a081019190915290565b604051610106919061168d565b6100f97f000000000000000000000000000000000000000000000000000000000000000081565b6100f97f000000000000000000000000000000000000000000000000000000000000000081565b6101226103c93660046117ae565b610684565b5f336001600160a01b037f000000000000000000000000000000000000000000000000000000000000000016146104185760405163570c108560e11b815260040160405180910390fd5b61042586868686866106e1565b9695505050505050565b5f336001600160a01b037f000000000000000000000000000000000000000000000000000000000000000016146104795760405163570c108560e11b815260040160405180910390fd5b61042586868686866106fb565b5f8080336001600160a01b037f000000000000000000000000000000000000000000000000000000000000000016146104d25760405163570c108560e11b815260040160405180910390fd5b6104df8888888888610715565b925092509250955095509592505050565b5f80336001600160a01b037f0000000000000000000000000000000000000000000000000000000000000000161461053b5760405163570c108560e11b815260040160405180910390fd5b61054a898989898989896108da565b9150915097509795505050505050565b5f336001600160a01b037f000000000000000000000000000000000000000000000000000000000000000016146105a45760405163570c108560e11b815260040160405180910390fd5b6105b0858585856106e1565b95945050505050565b5f80336001600160a01b037f000000000000000000000000000000000000000000000000000000000000000016146106045760405163570c108560e11b815260040160405180910390fd5b6106128888888888886108da565b91509150965096945050505050565b5f336001600160a01b037f0000000000000000000000000000000000000000000000000000000000000000161461066b5760405163570c108560e11b815260040160405180910390fd5b6106798787878787876106e1565b979650505050505050565b5f336001600160a01b037f000000000000000000000000000000000000000000000000000000000000000016146106ce5760405163570c108560e11b815260040160405180910390fd5b6106d98484846108f5565b949350505050565b5f604051630a85dc2960e01b815260040160405180910390fd5b5f6040516378895c1360e01b815260040160405180910390fd5b5f80806020860135811380801561072957505f5b1561074757604051630ace433b60e01b815260040160405180910390fd5b80158015610753575060015b15610771576040516321b865b360e01b815260040160405180910390fd5b61077e60208801886117f5565b15157f0000000000000000000000000000000000000000000000000000000000000000151503610846575f816107c0576107bb8860200135610a25565b6107cd565b6107cd6020890135611828565b90505f5f6107da83610ab6565b915091505f846107fa576107f56107f084610c41565b610c68565b61080f565b6108066107f083610c41565b61080f90611842565b905061083b6108218c60200135610c68565b61082a90611842565b60801b6001600160801b0383161790565b9650505050506108c1565b5f8161085e576108598860200135610c8d565b61086b565b61086b6020890135611828565b90505f5f61087883610d15565b915091505f846108935761088e6107f084610c41565b6108a8565b61089f6107f083610c41565b6108a890611842565b90506108ba6108218c60200135610c68565b9650505050505b506315d7892d60e21b92505f9050955095509592505050565b5f5f604051630a85dc2960e01b815260040160405180910390fd5b5f5f7f00000000000000000000000000000000000000000000000000000000000000006109975761095261092c6020860186611863565b7f0000000000000000000000000000000000000000000000000000000000000000610f6d565b8015610992575061099261096c6040860160208701611863565b7f0000000000000000000000000000000000000000000000000000000000000000610f6d565b6109c1565b6109a761096c6020860186611863565b80156109c157506109c161092c6040860160208701611863565b9050806109e15760405163dcdedda960e01b815260040160405180910390fd5b6109f1606085016040860161187e565b62ffffff1615610a1457604051631213a0ab60e01b815260040160405180910390fd5b50636e4c1aa760e11b949350505050565b5f610ab07f00000000000000000000000000000000000000000000000000000000000000006001600160a01b0316639576a0c86040518163ffffffff1660e01b8152600401602060405180830381865afa158015610a85573d5f5f3e3d5ffd5b505050506040513d601f19601f82011682018060405250810190610aa991906118a0565b8390610f7e565b92915050565b604051631920845160e01b8152600481018290525f9081907f00000000000000000000000000000000000000000000000000000000000000009082906001600160a01b03831690631920845190602401602060405180830381865afa158015610b21573d5f5f3e3d5ffd5b505050506040513d601f19601f82011682018060405250810190610b4591906118a0565b604051630f451f7160e31b8152600481018290529091506001600160a01b03831690637a28fb8890602401602060405180830381865afa158015610b8b573d5f5f3e3d5ffd5b505050506040513d601f19601f82011682018060405250810190610baf91906118a0565b60405162b0e38960e81b8152600481018290529094507f00000000000000000000000000000000000000000000000000000000000000006001600160a01b03169063b0e3890090602401602060405180830381865afa158015610c14573d5f5f3e3d5ffd5b505050506040513d601f19601f82011682018060405250810190610c3891906118a0565b92505050915091565b805f811215610c63576040516393dafdf160e01b815260040160405180910390fd5b919050565b80600f81900b8114610c63576040516393dafdf160e01b815260040160405180910390fd5b60405162b0e38960e81b8152600481018290525f907f00000000000000000000000000000000000000000000000000000000000000006001600160a01b03169063b0e3890090602401602060405180830381865afa158015610cf1573d5f5f3e3d5ffd5b505050506040513d601f19601f82011682018060405250810190610ab091906118a0565b5f5f610d427f00000000000000000000000000000000000000000000000000000000000000003085610f99565b604051636f074d1f60e11b8152600481018490528392505f907f00000000000000000000000000000000000000000000000000000000000000006001600160a01b03169063de0e9a3e906024016020604051808303815f875af1158015610dab573d5f5f3e3d5ffd5b505050506040513d601f19601f82011682018060405250810190610dcf91906118a0565b90505f7f00000000000000000000000000000000000000000000000000000000000000006001600160a01b03166370a082317f00000000000000000000000000000000000000000000000000000000000000006040518263ffffffff1660e01b8152600401610e3e9190611357565b602060405180830381865afa158015610e59573d5f5f3e3d5ffd5b505050506040513d601f19601f82011682018060405250810190610e7d91906118a0565b9050610eaa7f0000000000000000000000000000000000000000000000000000000000000000308461102f565b6040516370a0823160e01b81525f906001600160a01b037f000000000000000000000000000000000000000000000000000000000000000016906370a0823190610f18907f000000000000000000000000000000000000000000000000000000000000000090600401611357565b602060405180830381865afa158015610f33573d5f5f3e3d5ffd5b505050506040513d601f19601f82011682018060405250810190610f5791906118a0565b9050610f6382826118b7565b9350505050915091565b6001600160a01b0390811691161490565b5f610f9283670de0b6b3a7640000846111e5565b9392505050565b805f03610fa557505050565b604051630b0d9c0960e01b81526001600160a01b0384811660048301528381166024830152604482018390527f00000000000000000000000000000000000000000000000000000000000000001690630b0d9c09906064015f604051808303815f87803b158015611014575f5ffd5b505af1158015611026573d5f5f3e3d5ffd5b50505050505050565b805f0361103b57505050565b604051632961046560e21b81526001600160a01b037f0000000000000000000000000000000000000000000000000000000000000000169063a584119490611087908690600401611357565b5f604051808303815f87803b15801561109e575f5ffd5b505af11580156110b0573d5f5f3e3d5ffd5b505050506110c6836001600160a01b0316611208565b15611154577f00000000000000000000000000000000000000000000000000000000000000006001600160a01b03166311da60b4826040518263ffffffff1660e01b815260040160206040518083038185885af1158015611129573d5f5f3e3d5ffd5b50505050506040513d601f19601f8201168201806040525081019061114e91906118a0565b50505050565b61115f838383611215565b7f00000000000000000000000000000000000000000000000000000000000000006001600160a01b03166311da60b46040518163ffffffff1660e01b81526004016020604051808303815f875af11580156111bc573d5f5f3e3d5ffd5b505050506040513d601f19601f8201168201806040525081019061114e91906118a0565b505050565b5f825f1904841183021582026111f9575f5ffd5b50910281810615159190040190565b6001600160a01b03161590565b6111e06001600160a01b0384167f0000000000000000000000000000000000000000000000000000000000000000835f61124e84611208565b15611279575f5f5f5f85875af190508061127457611274835f633d2cec6f60e21b6112df565b61114e565b60405163a9059cbb60e01b81526001600160a01b038416600482015282602482015260205f6044835f895af13d15601f3d1160015f511416171691505f81525f60208201525f6040820152508061114e5761114e8463a9059cbb60e01b633c9fd93960e21b5b6040516390bfb86560e01b8082526001600160a01b03851660048301526001600160e01b031984166024830152608060448301526020601f3d018190040260a0810160648401523d608484015290913d5f60a483013e60048260a4018201526001600160e01b031984168260c4018201528160e40181fd5b6001600160a01b0391909116815260200190565b6001600160a01b038116811461137f575f5ffd5b50565b5f60a08284031215611392575f5ffd5b50919050565b5f60808284031215611392575f5ffd5b5f5f83601f8401126113b8575f5ffd5b5081356001600160401b038111156113ce575f5ffd5b6020830191508360208285010111156113e5575f5ffd5b9250929050565b5f5f5f5f5f6101608688031215611401575f5ffd5b853561140c8161136b565b945061141b8760208801611382565b935061142a8760c08801611398565b92506101408601356001600160401b03811115611445575f5ffd5b611451888289016113a8565b969995985093965092949392505050565b5f60608284031215611392575f5ffd5b5f5f5f5f5f6101408688031215611487575f5ffd5b85356114928161136b565b94506114a18760208801611382565b93506114b08760c08801611462565b92506101208601356001600160401b03811115611445575f5ffd5b5f5f5f5f5f5f5f6101a0888a0312156114e2575f5ffd5b87356114ed8161136b565b96506114fc8960208a01611382565b955061150b8960c08a01611398565b9450610140880135935061016088013592506101808801356001600160401b03811115611536575f5ffd5b6115428a828b016113a8565b989b979a50959850939692959293505050565b5f5f5f5f6101008587031215611569575f5ffd5b84356115748161136b565b93506115838660208701611382565b925060c08501356115938161136b565b915060e0850135600281900b81146115a9575f5ffd5b939692955090935050565b5f5f5f5f5f5f61016087890312156115ca575f5ffd5b86356115d58161136b565b95506115e48860208901611382565b94506115f38860c08901611462565b935061012087013592506101408701356001600160401b03811115611616575f5ffd5b61162289828a016113a8565b979a9699509497509295939492505050565b5f5f5f5f5f5f610120878903121561164a575f5ffd5b86356116558161136b565b95506116648860208901611382565b945060c0870135935060e087013592506101008701356001600160401b03811115611616575f5ffd5b8151151581526101c0810160208301516116ab602084018215159052565b5060408301516116bf604084018215159052565b5060608301516116d3606084018215159052565b5060808301516116e7608084018215159052565b5060a08301516116fb60a084018215159052565b5060c083015161170f60c084018215159052565b5060e083015161172360e084018215159052565b5061010083015161173961010084018215159052565b5061012083015161174f61012084018215159052565b5061014083015161176561014084018215159052565b5061016083015161177b61016084018215159052565b5061018083015161179161018084018215159052565b506101a08301516117a76101a084018215159052565b5092915050565b5f5f5f60e084860312156117c0575f5ffd5b83356117cb8161136b565b92506117da8560208601611382565b915060c08401356117ea8161136b565b809150509250925092565b5f60208284031215611805575f5ffd5b81358015158114610f92575f5ffd5b634e487b7160e01b5f52601160045260245ffd5b5f600160ff1b820161183c5761183c611814565b505f0390565b5f600f82900b6001607f1b810161185b5761185b611814565b5f0392915050565b5f60208284031215611873575f5ffd5b8135610f928161136b565b5f6020828403121561188e575f5ffd5b813562ffffff81168114610f92575f5ffd5b5f602082840312156118b0575f5ffd5b5051919050565b81810381811115610ab057610ab061181456fea2646970667358221220758edbe1c04b1a851c236b35ee07005b5d2c8b7135b792ce3543f6dd560e7bc964736f6c634300081e0033","linkReferences":{}},"methodIdentifiers":{"afterAddLiquidity(address,(address,address,uint24,int24,address),(int24,int24,int256,bytes32),int256,int256,bytes)":"9f063efc","afterDonate(address,(address,address,uint24,int24,address),uint256,uint256,bytes)":"e1b4af69","afterInitialize(address,(address,address,uint24,int24,address),uint160,int24)":"6fe7e6eb","afterRemoveLiquidity(address,(address,address,uint24,int24,address),(int24,int24,int256,bytes32),int256,int256,bytes)":"6c2bbe7e","afterSwap(address,(address,address,uint24,int24,address),(bool,int256,uint160),int256,bytes)":"b47b2fb1","beforeAddLiquidity(address,(address,address,uint24,int24,address),(int24,int24,int256,bytes32),bytes)":"259982e5","beforeDonate(address,(address,address,uint24,int24,address),uint256,uint256,bytes)":"b6a8b0fa","beforeInitialize(address,(address,address,uint24,int24,address),uint160)":"dc98354e","beforeRemoveLiquidity(address,(address,address,uint24,int24,address),(int24,int24,int256,bytes32),bytes)":"21d0ee70","beforeSwap(address,(address,address,uint24,int24,address),(bool,int256,uint160),bytes)":"575e24b4","getHookPermissions()":"c4e833ce","poolManager()":"dc4c90d3","underlyingCurrency()":"0bc6bffc","wrapZeroForOne()":"5d5711a5","wrapperCurrency()":"d52f63cf","wstETH()":"4aa07e64"},"id":1154}