{"abi":[{"type":"function","name":"getCurrentBlockTimestamp","inputs":[],"outputs":[{"name":"timestamp","type":"uint256","internalType":"uint256"}],"stateMutability":"view"},{"type":"function","name":"getEthBalance","inputs":[{"name":"addr","type":"address","internalType":"address"}],"outputs":[{"name":"balance","type":"uint256","internalType":"uint256"}],"stateMutability":"view"},{"type":"function","name":"multicall","inputs":[{"name":"calls","type":"tuple[]","internalType":"struct UniswapInterfaceMulticall.Call[]","components":[{"name":"target","type":"address","internalType":"address"},{"name":"gasLimit","type":"uint256","internalType":"uint256"},{"name":"callData","type":"bytes","internalType":"bytes"}]}],"outputs":[{"name":"blockNumber","type":"uint256","internalType":"uint256"},{"name":"returnData","type":"tuple[]","internalType":"struct UniswapInterfaceMulticall.Result[]","components":[{"name":"success","type":"bool","internalType":"bool"},{"name":"gasUsed","type":"uint256","internalType":"uint256"},{"name":"returnData","type":"bytes","internalType":"bytes"}]}],"stateMutability":"nonpayable"}],"bytecode":{"object":"0x6080604052348015600e575f5ffd5b506105878061001c5f395ff3fe608060405234801561000f575f5ffd5b506004361061003f575f3560e01c80630f28c97d146100435780631749e1e3146100585780634d2301cc14610079575b5f5ffd5b425b6040519081526020015b60405180910390f35b61006b6100663660046102ba565b610094565b60405161004f929190610436565b6100456100873660046104e2565b6001600160a01b03163190565b805143906060906001600160401b038111156100b2576100b2610233565b6040519080825280602002602001820160405280156100fe57816020015b60408051606080820183525f8083526020830152918101919091528152602001906001900390816100d05790505b5090505f5b835181101561022d575f5f5f86848151811061012157610121610502565b60200260200101515f015187858151811061013e5761013e610502565b60200260200101516020015188868151811061015c5761015c610502565b6020026020010151604001519250925092505f5a90505f5f856001600160a01b0316858560405161018d9190610516565b5f604051808303815f8787f1925050503d805f81146101c7576040519150601f19603f3d011682016040523d82523d5f602084013e6101cc565b606091505b50915091505f5a6101dd908561052c565b9050604051806060016040528084151581526020018281526020018381525089898151811061020e5761020e610502565b6020026020010181905250505050505050508080600101915050610103565b50915091565b634e487b7160e01b5f52604160045260245ffd5b604051606081016001600160401b038111828210171561026957610269610233565b60405290565b604051601f8201601f191681016001600160401b038111828210171561029757610297610233565b604052919050565b80356001600160a01b03811681146102b5575f5ffd5b919050565b5f602082840312156102ca575f5ffd5b81356001600160401b038111156102df575f5ffd5b8201601f810184136102ef575f5ffd5b80356001600160401b0381111561030857610308610233565b8060051b6103186020820161026f565b91825260208184018101929081019087841115610333575f5ffd5b6020850192505b8383101561042b5782356001600160401b03811115610357575f5ffd5b85016060818a03601f1901121561036c575f5ffd5b610374610247565b6103806020830161029f565b81526040820135602082015260608201356001600160401b038111156103a4575f5ffd5b60208184010192505089601f8301126103bb575f5ffd5b81356001600160401b038111156103d4576103d4610233565b6103e7601f8201601f191660200161026f565b8181528b60208386010111156103fb575f5ffd5b816020850160208301375f602083830101528060408401525050808452505060208201915060208301925061033a565b979650505050505050565b5f604082018483526040602084015280845180835260608501915060608160051b8601019250602086015f5b828110156104d557605f19878603018452815180511515865260208101516020870152604081015190506060604087015280518060608801528060208301608089015e5f608082890101526080601f19601f83011688010196505050602082019150602084019350600181019050610462565b5092979650505050505050565b5f602082840312156104f2575f5ffd5b6104fb8261029f565b9392505050565b634e487b7160e01b5f52603260045260245ffd5b5f82518060208501845e5f920191825250919050565b8181038181111561054b57634e487b7160e01b5f52601160045260245ffd5b9291505056fea264697066735822122031c6aa17bd1320bc91df83853aa682c49e96c4b30111b8f82626c15b5053dba064736f6c634300081e0033","linkReferences":{}},"methodIdentifiers":{"getCurrentBlockTimestamp()":"0f28c97d","getEthBalance(address)":"4d2301cc","multicall((address,uint256,bytes)[])":"1749e1e3"},"id":1097}