{"abi":[{"type":"function","name":"burn","inputs":[{"name":"tickLower","type":"int24","internalType":"int24"},{"name":"tickUpper","type":"int24","internalType":"int24"},{"name":"amount","type":"uint128","internalType":"uint128"},{"name":"owner","type":"address","internalType":"address"}],"outputs":[{"name":"amount0","type":"uint256","internalType":"uint256"},{"name":"amount1","type":"uint256","internalType":"uint256"}],"stateMutability":"nonpayable"},{"type":"function","name":"burn","inputs":[{"name":"tickLower","type":"int24","internalType":"int24"},{"name":"tickUpper","type":"int24","internalType":"int24"},{"name":"amount","type":"uint128","internalType":"uint128"}],"outputs":[{"name":"amount0","type":"uint256","internalType":"uint256"},{"name":"amount1","type":"uint256","internalType":"uint256"}],"stateMutability":"nonpayable"},{"type":"function","name":"collect","inputs":[{"name":"recipient","type":"address","internalType":"address"},{"name":"tickLower","type":"int24","internalType":"int24"},{"name":"tickUpper","type":"int24","internalType":"int24"},{"name":"amount0Requested","type":"uint128","internalType":"uint128"},{"name":"amount1Requested","type":"uint128","internalType":"uint128"},{"name":"owner","type":"address","internalType":"address"}],"outputs":[{"name":"amount0","type":"uint128","internalType":"uint128"},{"name":"amount1","type":"uint128","internalType":"uint128"}],"stateMutability":"nonpayable"},{"type":"function","name":"collect","inputs":[{"name":"recipient","type":"address","internalType":"address"},{"name":"tickLower","type":"int24","internalType":"int24"},{"name":"tickUpper","type":"int24","internalType":"int24"},{"name":"amount0Requested","type":"uint128","internalType":"uint128"},{"name":"amount1Requested","type":"uint128","internalType":"uint128"}],"outputs":[{"name":"amount0","type":"uint128","internalType":"uint128"},{"name":"amount1","type":"uint128","internalType":"uint128"}],"stateMutability":"nonpayable"},{"type":"function","name":"collectFees","inputs":[],"outputs":[{"name":"amount0","type":"uint128","internalType":"uint128"},{"name":"amount1","type":"uint128","internalType":"uint128"}],"stateMutability":"nonpayable"},{"type":"function","name":"factory","inputs":[],"outputs":[{"name":"","type":"address","internalType":"address"}],"stateMutability":"view"},{"type":"function","name":"factoryRegistry","inputs":[],"outputs":[{"name":"","type":"address","internalType":"address"}],"stateMutability":"view"},{"type":"function","name":"fee","inputs":[],"outputs":[{"name":"","type":"uint24","internalType":"uint24"}],"stateMutability":"view"},{"type":"function","name":"feeGrowthGlobal0X128","inputs":[],"outputs":[{"name":"","type":"uint256","internalType":"uint256"}],"stateMutability":"view"},{"type":"function","name":"feeGrowthGlobal1X128","inputs":[],"outputs":[{"name":"","type":"uint256","internalType":"uint256"}],"stateMutability":"view"},{"type":"function","name":"flash","inputs":[{"name":"recipient","type":"address","internalType":"address"},{"name":"amount0","type":"uint256","internalType":"uint256"},{"name":"amount1","type":"uint256","internalType":"uint256"},{"name":"data","type":"bytes","internalType":"bytes"}],"outputs":[],"stateMutability":"nonpayable"},{"type":"function","name":"gauge","inputs":[],"outputs":[{"name":"","type":"address","internalType":"address"}],"stateMutability":"view"},{"type":"function","name":"gaugeFees","inputs":[],"outputs":[{"name":"token0","type":"uint128","internalType":"uint128"},{"name":"token1","type":"uint128","internalType":"uint128"}],"stateMutability":"view"},{"type":"function","name":"getRewardGrowthInside","inputs":[{"name":"tickLower","type":"int24","internalType":"int24"},{"name":"tickUpper","type":"int24","internalType":"int24"},{"name":"_rewardGrowthGlobalX128","type":"uint256","internalType":"uint256"}],"outputs":[{"name":"rewardGrowthInside","type":"uint256","internalType":"uint256"}],"stateMutability":"view"},{"type":"function","name":"increaseObservationCardinalityNext","inputs":[{"name":"observationCardinalityNext","type":"uint16","internalType":"uint16"}],"outputs":[],"stateMutability":"nonpayable"},{"type":"function","name":"initialize","inputs":[{"name":"_factory","type":"address","internalType":"address"},{"name":"_token0","type":"address","internalType":"address"},{"name":"_token1","type":"address","internalType":"address"},{"name":"_tickSpacing","type":"int24","internalType":"int24"},{"name":"_factoryRegistry","type":"address","internalType":"address"},{"name":"_sqrtPriceX96","type":"uint160","internalType":"uint160"}],"outputs":[],"stateMutability":"nonpayable"},{"type":"function","name":"lastUpdated","inputs":[],"outputs":[{"name":"","type":"uint32","internalType":"uint32"}],"stateMutability":"view"},{"type":"function","name":"liquidity","inputs":[],"outputs":[{"name":"","type":"uint128","internalType":"uint128"}],"stateMutability":"view"},{"type":"function","name":"maxLiquidityPerTick","inputs":[],"outputs":[{"name":"","type":"uint128","internalType":"uint128"}],"stateMutability":"view"},{"type":"function","name":"mint","inputs":[{"name":"recipient","type":"address","internalType":"address"},{"name":"tickLower","type":"int24","internalType":"int24"},{"name":"tickUpper","type":"int24","internalType":"int24"},{"name":"amount","type":"uint128","internalType":"uint128"},{"name":"data","type":"bytes","internalType":"bytes"}],"outputs":[{"name":"amount0","type":"uint256","internalType":"uint256"},{"name":"amount1","type":"uint256","internalType":"uint256"}],"stateMutability":"nonpayable"},{"type":"function","name":"nft","inputs":[],"outputs":[{"name":"","type":"address","internalType":"address"}],"stateMutability":"view"},{"type":"function","name":"observations","inputs":[{"name":"","type":"uint256","internalType":"uint256"}],"outputs":[{"name":"blockTimestamp","type":"uint32","internalType":"uint32"},{"name":"tickCumulative","type":"int56","internalType":"int56"},{"name":"secondsPerLiquidityCumulativeX128","type":"uint160","internalType":"uint160"},{"name":"initialized","type":"bool","internalType":"bool"}],"stateMutability":"view"},{"type":"function","name":"observe","inputs":[{"name":"secondsAgos","type":"uint32[]","internalType":"uint32[]"}],"outputs":[{"name":"tickCumulatives","type":"int56[]","internalType":"int56[]"},{"name":"secondsPerLiquidityCumulativeX128s","type":"uint160[]","internalType":"uint160[]"}],"stateMutability":"view"},{"type":"function","name":"periodFinish","inputs":[],"outputs":[{"name":"","type":"uint256","internalType":"uint256"}],"stateMutability":"view"},{"type":"function","name":"positions","inputs":[{"name":"","type":"bytes32","internalType":"bytes32"}],"outputs":[{"name":"liquidity","type":"uint128","internalType":"uint128"},{"name":"feeGrowthInside0LastX128","type":"uint256","internalType":"uint256"},{"name":"feeGrowthInside1LastX128","type":"uint256","internalType":"uint256"},{"name":"tokensOwed0","type":"uint128","internalType":"uint128"},{"name":"tokensOwed1","type":"uint128","internalType":"uint128"}],"stateMutability":"view"},{"type":"function","name":"rewardGrowthGlobalX128","inputs":[],"outputs":[{"name":"","type":"uint256","internalType":"uint256"}],"stateMutability":"view"},{"type":"function","name":"rewardRate","inputs":[],"outputs":[{"name":"","type":"uint256","internalType":"uint256"}],"stateMutability":"view"},{"type":"function","name":"rewardReserve","inputs":[],"outputs":[{"name":"","type":"uint256","internalType":"uint256"}],"stateMutability":"view"},{"type":"function","name":"rollover","inputs":[],"outputs":[{"name":"","type":"uint256","internalType":"uint256"}],"stateMutability":"view"},{"type":"function","name":"setGaugeAndPositionManager","inputs":[{"name":"_gauge","type":"address","internalType":"address"},{"name":"_nft","type":"address","internalType":"address"}],"outputs":[],"stateMutability":"nonpayable"},{"type":"function","name":"slot0","inputs":[],"outputs":[{"name":"sqrtPriceX96","type":"uint160","internalType":"uint160"},{"name":"tick","type":"int24","internalType":"int24"},{"name":"observationIndex","type":"uint16","internalType":"uint16"},{"name":"observationCardinality","type":"uint16","internalType":"uint16"},{"name":"observationCardinalityNext","type":"uint16","internalType":"uint16"},{"name":"unlocked","type":"bool","internalType":"bool"}],"stateMutability":"view"},{"type":"function","name":"snapshotCumulativesInside","inputs":[{"name":"tickLower","type":"int24","internalType":"int24"},{"name":"tickUpper","type":"int24","internalType":"int24"}],"outputs":[{"name":"tickCumulativeInside","type":"int56","internalType":"int56"},{"name":"secondsPerLiquidityInsideX128","type":"uint160","internalType":"uint160"},{"name":"secondsInside","type":"uint32","internalType":"uint32"}],"stateMutability":"view"},{"type":"function","name":"stake","inputs":[{"name":"stakedLiquidityDelta","type":"int128","internalType":"int128"},{"name":"tickLower","type":"int24","internalType":"int24"},{"name":"tickUpper","type":"int24","internalType":"int24"},{"name":"positionUpdate","type":"bool","internalType":"bool"}],"outputs":[],"stateMutability":"nonpayable"},{"type":"function","name":"stakedLiquidity","inputs":[],"outputs":[{"name":"","type":"uint128","internalType":"uint128"}],"stateMutability":"view"},{"type":"function","name":"swap","inputs":[{"name":"recipient","type":"address","internalType":"address"},{"name":"zeroForOne","type":"bool","internalType":"bool"},{"name":"amountSpecified","type":"int256","internalType":"int256"},{"name":"sqrtPriceLimitX96","type":"uint160","internalType":"uint160"},{"name":"data","type":"bytes","internalType":"bytes"}],"outputs":[{"name":"amount0","type":"int256","internalType":"int256"},{"name":"amount1","type":"int256","internalType":"int256"}],"stateMutability":"nonpayable"},{"type":"function","name":"syncReward","inputs":[{"name":"_rewardRate","type":"uint256","internalType":"uint256"},{"name":"_rewardReserve","type":"uint256","internalType":"uint256"},{"name":"_periodFinish","type":"uint256","internalType":"uint256"}],"outputs":[],"stateMutability":"nonpayable"},{"type":"function","name":"tickBitmap","inputs":[{"name":"","type":"int16","internalType":"int16"}],"outputs":[{"name":"","type":"uint256","internalType":"uint256"}],"stateMutability":"view"},{"type":"function","name":"tickSpacing","inputs":[],"outputs":[{"name":"","type":"int24","internalType":"int24"}],"stateMutability":"view"},{"type":"function","name":"ticks","inputs":[{"name":"","type":"int24","internalType":"int24"}],"outputs":[{"name":"liquidityGross","type":"uint128","internalType":"uint128"},{"name":"liquidityNet","type":"int128","internalType":"int128"},{"name":"stakedLiquidityNet","type":"int128","internalType":"int128"},{"name":"feeGrowthOutside0X128","type":"uint256","internalType":"uint256"},{"name":"feeGrowthOutside1X128","type":"uint256","internalType":"uint256"},{"name":"rewardGrowthOutsideX128","type":"uint256","internalType":"uint256"},{"name":"tickCumulativeOutside","type":"int56","internalType":"int56"},{"name":"secondsPerLiquidityOutsideX128","type":"uint160","internalType":"uint160"},{"name":"secondsOutside","type":"uint32","internalType":"uint32"},{"name":"initialized","type":"bool","internalType":"bool"}],"stateMutability":"view"},{"type":"function","name":"token0","inputs":[],"outputs":[{"name":"","type":"address","internalType":"address"}],"stateMutability":"view"},{"type":"function","name":"token1","inputs":[],"outputs":[{"name":"","type":"address","internalType":"address"}],"stateMutability":"view"},{"type":"function","name":"unstakedFee","inputs":[],"outputs":[{"name":"","type":"uint24","internalType":"uint24"}],"stateMutability":"view"},{"type":"function","name":"updateRewardsGrowthGlobal","inputs":[],"outputs":[],"stateMutability":"nonpayable"},{"type":"event","name":"Burn","inputs":[{"name":"owner","type":"address","indexed":true,"internalType":"address"},{"name":"tickLower","type":"int24","indexed":true,"internalType":"int24"},{"name":"tickUpper","type":"int24","indexed":true,"internalType":"int24"},{"name":"amount","type":"uint128","indexed":false,"internalType":"uint128"},{"name":"amount0","type":"uint256","indexed":false,"internalType":"uint256"},{"name":"amount1","type":"uint256","indexed":false,"internalType":"uint256"}],"anonymous":false},{"type":"event","name":"Collect","inputs":[{"name":"owner","type":"address","indexed":true,"internalType":"address"},{"name":"recipient","type":"address","indexed":false,"internalType":"address"},{"name":"tickLower","type":"int24","indexed":true,"internalType":"int24"},{"name":"tickUpper","type":"int24","indexed":true,"internalType":"int24"},{"name":"amount0","type":"uint128","indexed":false,"internalType":"uint128"},{"name":"amount1","type":"uint128","indexed":false,"internalType":"uint128"}],"anonymous":false},{"type":"event","name":"CollectFees","inputs":[{"name":"recipient","type":"address","indexed":true,"internalType":"address"},{"name":"amount0","type":"uint128","indexed":false,"internalType":"uint128"},{"name":"amount1","type":"uint128","indexed":false,"internalType":"uint128"}],"anonymous":false},{"type":"event","name":"Flash","inputs":[{"name":"sender","type":"address","indexed":true,"internalType":"address"},{"name":"recipient","type":"address","indexed":true,"internalType":"address"},{"name":"amount0","type":"uint256","indexed":false,"internalType":"uint256"},{"name":"amount1","type":"uint256","indexed":false,"internalType":"uint256"},{"name":"paid0","type":"uint256","indexed":false,"internalType":"uint256"},{"name":"paid1","type":"uint256","indexed":false,"internalType":"uint256"}],"anonymous":false},{"type":"event","name":"IncreaseObservationCardinalityNext","inputs":[{"name":"observationCardinalityNextOld","type":"uint16","indexed":false,"internalType":"uint16"},{"name":"observationCardinalityNextNew","type":"uint16","indexed":false,"internalType":"uint16"}],"anonymous":false},{"type":"event","name":"Initialize","inputs":[{"name":"sqrtPriceX96","type":"uint160","indexed":false,"internalType":"uint160"},{"name":"tick","type":"int24","indexed":false,"internalType":"int24"}],"anonymous":false},{"type":"event","name":"Mint","inputs":[{"name":"sender","type":"address","indexed":false,"internalType":"address"},{"name":"owner","type":"address","indexed":true,"internalType":"address"},{"name":"tickLower","type":"int24","indexed":true,"internalType":"int24"},{"name":"tickUpper","type":"int24","indexed":true,"internalType":"int24"},{"name":"amount","type":"uint128","indexed":false,"internalType":"uint128"},{"name":"amount0","type":"uint256","indexed":false,"internalType":"uint256"},{"name":"amount1","type":"uint256","indexed":false,"internalType":"uint256"}],"anonymous":false},{"type":"event","name":"Swap","inputs":[{"name":"sender","type":"address","indexed":true,"internalType":"address"},{"name":"recipient","type":"address","indexed":true,"internalType":"address"},{"name":"amount0","type":"int256","indexed":false,"internalType":"int256"},{"name":"amount1","type":"int256","indexed":false,"internalType":"int256"},{"name":"sqrtPriceX96","type":"uint160","indexed":false,"internalType":"uint160"},{"name":"liquidity","type":"uint128","indexed":false,"internalType":"uint128"},{"name":"tick","type":"int24","indexed":false,"internalType":"int24"}],"anonymous":false}],"bytecode":{"object":"0x6080604052348015600e575f5ffd5b5061602c8061001c5f395ff3fe608060405234801561000f575f5ffd5b50600436106101f7575f3560e01c80630dfe1681146101fb578063128acb08146102245780631a6865021461024c5780631b410960146102775780631f7c3568146102815780632071d88414610294578063252c09d7146102a7578063293833ba146102f4578063313383741461032057806332148f67146103335780633850c7bd146103465780633ab04b20146103d75780633bf0c9fb146103ea5780633c8a7d8d146103fd578063461413191461041057806347ccca0214610427578063490e6cbc1461043a5780634ed6210f1461044d5780634f1eb3d814610460578063514ea4bf146104735780635339c296146104f357806357806ada1461051257806360a73f9b1461051b5780636f89244c1461052e57806370cf754a146105415780637b0a47ee1461055b578063883bdbfd14610564578063a16368c914610585578063a34123a714610598578063a38807f2146105ab578063a6f19c84146105ec578063b056b49a146105ff578063b64cc67b14610608578063c45a015514610624578063c879657214610636578063cab64bcd1461063e578063d0b06f5d14610647578063d0c93a7c14610673578063d21220a71461069a578063ddca3f43146106ad578063ebe2b12b146106b5578063f3058399146106be578063f30dba93146106c7575b5f5ffd5b60015461020e906001600160a01b031681565b60405161021b91906154ef565b60405180910390f35b610237610232366004615564565b6107bc565b6040805192835260208301919091520161021b565b60105461025f906001600160801b031681565b6040516001600160801b03909116815260200161021b565b61027f61135f565b005b61027f61028f3660046155e3565b6113dc565b61027f6102a236600461562b565b61151d565b6102ba6102b53660046156a7565b6116cb565b6040805163ffffffff909516855260069390930b60208501526001600160a01b03909116918301919091521515606082015260800161021b565b600a54610312906001600160801b0380821691600160801b90041682565b60405161021b9291906156be565b61031261032e3660046156ee565b61170f565b61027f610341366004615746565b6117a3565b600654610391906001600160a01b03811690600160a01b810460020b9061ffff600160b81b8204811691600160c81b8104821691600160d81b8204169060ff600160e81b9091041686565b604080516001600160a01b03909716875260029590950b602087015261ffff938416948601949094529082166060850152166080830152151560a082015260c00161021b565b600f5461025f906001600160801b031681565b60055461020e906001600160a01b031681565b61023761040b366004615767565b611876565b61041960085481565b60405190815260200161021b565b60045461020e906001600160a01b031681565b61027f6104483660046157b1565b611aaa565b61027f61045b366004615815565b611dd7565b61031261046e36600461586f565b611fb4565b6104bd6104813660046156a7565b60136020525f908152604090208054600182015460028301546003909301546001600160801b0392831693919281811691600160801b90041685565b604080516001600160801b039687168152602081019590955284019290925283166060830152909116608082015260a00161021b565b6104196105013660046158d2565b60126020525f908152604090205481565b61041960095481565b61027f6105293660046158f2565b61201d565b61023761053c36600461591b565b6120a2565b60105461025f90600160801b90046001600160801b031681565b610419600b5481565b610577610572366004615963565b612132565b60405161021b9291906159d2565b610419610593366004615a5e565b6121b3565b6102376105a6366004615a98565b6121f3565b6105be6105b9366004615ad8565b612258565b6040805160069490940b84526001600160a01b03909216602084015263ffffffff169082015260600161021b565b60035461020e906001600160a01b031681565b610419600e5481565b610610612416565b60405162ffffff909116815260200161021b565b5f5461020e906001600160a01b031681565b61031261248a565b610419600c5481565b600f5461065e90600160801b900463ffffffff1681565b60405163ffffffff909116815260200161021b565b600f5461068790600160a01b900460020b81565b60405160029190910b815260200161021b565b60025461020e906001600160a01b031681565b6106106125f0565b610419600d5481565b61041960075481565b61074e6106d5366004615b09565b60116020525f90815260409020805460018201546002830154600384015460048501546005909501546001600160801b03851695600160801b909504600f90810b9594900b9390600681900b90600160381b81046001600160a01b031690600160d81b810463ffffffff1690600160f81b900460ff168a565b604080516001600160801b03909b168b52600f998a0b60208c01529790980b968901969096526060880194909452608087019290925260a086015260060b60c08501526001600160a01b031660e084015263ffffffff1661010083015215156101208201526101400161021b565b5f5f855f036107f75760405162461bcd60e51b8152602060048201526002602482015261415360f01b60448201526064015b60405180910390fd5b6040805160c0810182526006546001600160a01b0381168252600160a01b810460020b6020830152600160b81b810461ffff90811693830193909352600160c81b810483166060830152600160d81b81049092166080820152600160e81b90910460ff16151560a082018190526108805760405162461bcd60e51b81526004016107ee90615b22565b876108ca57805f01516001600160a01b0316866001600160a01b03161180156108c5575073fffd8963efd1fc6a506488495d951d5263988d266001600160a01b038716105b6108fb565b805f01516001600160a01b0316866001600160a01b03161080156108fb57506401000276a36001600160a01b038716115b61092d5760405162461bcd60e51b815260206004820152600360248201526214d41360ea1b60448201526064016107ee565b6006805460ff60e81b191690556040805160c0810182526010546001600160801b039081168252600f541660208201525f9181014263ffffffff1681526020015f60060b81526020015f6001600160a01b031681526020015f151581525090505f5f891390505f6040518061014001604052808b81526020015f8152602001855f01516001600160a01b03168152602001856020015160020b81526020016109d36125f0565b62ffffff1681525f60208201526040018c6109f0576008546109f4565b6007545b81526020015f6001600160801b03168152602001845f01516001600160801b0316815260200184602001516001600160801b031681525090505b805115801590610a545750886001600160a01b031681604001516001600160a01b031614155b15610f1e576040805160e0810182525f80825260208201819052918101829052606081018290526080810182905260a0810182905260c081019190915260408201516001600160a01b031681526060820151600f54610ac091601291600160a01b900460020b8f612620565b1515604083015260020b60208201819052620d89e7191315610aeb57620d89e7196020820152610b1f565b610af8620d89e719615b53565b60020b816020015160020b1315610b1f57610b16620d89e719615b53565b60020b60208201525b610b2c81602001516127d5565b6001600160a01b031660608201526040820151610ba2908d610b66578b6001600160a01b031683606001516001600160a01b031611610b80565b8b6001600160a01b031683606001516001600160a01b0316105b610b8e578260600151610b90565b8b5b61010085015185516080870151612be3565b60c085015260a084015260808301526001600160a01b031660408301528215610bed5760c08101516080820151835191019003825260a0810151602083018051919091039052610c0f565b60a0810151825101825260c08101516080820151602084018051919092010190525b6101008201516001600160801b031615610c62575f5f610c3e8360c00151856101000151866101200151612df8565b60c0860180519290920190915260e0850180519091016001600160801b0316905250505b80606001516001600160a01b031682604001516001600160a01b031603610ee257806040015115610ebd578360a00151610ce557610cc784604001515f87602001518860400151885f01518a606001516014612e96909695949392919063ffffffff16565b6001600160a01b0316608086015260060b6060850152600160a08501525b8160a00151610cfe57610cf6613042565b600160a08301525b5f610e4782602001518e610d1457600754610d1a565b8460c001515b8f610d29578560c00151610d2d565b6008545b608089015160608a01516040808c0151600954825180840184525f808252602080830182815260029b8c0b83526011909152949020988901805490980390975560038801805490960390955560048701805490950390945560058601805463ffffffff600160d81b66ffffffffffffff196001600160a01b03600160381b8086048216909903169097029687166001600160d81b031984161766ffffffffffffff600160381b600160d81b03198516891760060b9097039690961695861781900482169097031690950266ffffffffffffff63ffffffff60d81b0119949094166001600160f81b03199095169490941791909117919091179091558254600160801b9004600f90810b835260019093015490920b90915290565b90508c15610e76578051610e5a90615b73565b600f0b81526020810151610e6d90615b73565b600f0b60208201525b610e88836101000151825f0151613125565b6001600160801b03166101008401526101208301516020820151610eac9190613125565b6001600160801b0316610120840152505b8b610ecc578060200151610ed5565b60018160200151035b60020b6060830152610f18565b805f01516001600160a01b031682604001516001600160a01b031614610f1857610f0f82604001516131cc565b60020b60608301525b50610a2e565b836020015160020b816060015160020b14610fe6575f5f610f6a866040015186604001518860200151885f01518a606001518b6080015160146134ff909695949392919063ffffffff16565b604085015160608601516006805463ffffffff60b81b1916600160c81b61ffff9586160261ffff60b81b191617600160b81b9590941694909402929092176001600160b81b031916600160a01b62ffffff909316929092026001600160a01b031916919091176001600160a01b039091161790555061100b9050565b6040810151600680546001600160a01b0319166001600160a01b039092169190911790555b8061010001516001600160801b0316835f01516001600160801b03161461105257610100810151601080546001600160801b0319166001600160801b039092169190911790555b8061012001516001600160801b031683602001516001600160801b03161461109a57610120810151600f80546001600160801b0319166001600160801b039092169190911790555b8a156110ea5760c081015160075560e08101516001600160801b0316156110e55760e0810151600a80546001600160801b031981166001600160801b03918216909301169190911790555b611130565b60c081015160085560e08101516001600160801b0316156111305760e0810151600a80546001600160801b03808216600160801b92839004821690940116029190911790555b8115158b15151461114957602081015181518b03611155565b805f01518a0381602001515b90965094508a15611213575f85121561118257600254611182906001600160a01b03168d5f88900361367e565b5f61118b613779565b60405163fa461e3360e01b8152909150339063fa461e33906111b7908a908a908e908e90600401615bb4565b5f604051808303815f87803b1580156111ce575f5ffd5b505af11580156111e0573d5f5f3e3d5ffd5b505050506111ec613779565b878201111561120d5760405162461bcd60e51b81526004016107ee90615bdd565b506112c2565b5f86121561123557600154611235906001600160a01b03168d5f89900361367e565b5f61123e613858565b60405163fa461e3360e01b8152909150339063fa461e339061126a908a908a908e908e90600401615bb4565b5f604051808303815f87803b158015611281575f5ffd5b505af1158015611293573d5f5f3e3d5ffd5b5050505061129f613858565b86820111156112c05760405162461bcd60e51b81526004016107ee90615bdd565b505b60408082015161010083015160608085015184518b8152602081018b90526001600160a01b03948516958101959095526001600160801b039092169084015260020b60808301528d169033907fc42079f94a6350d7e6235f29174924f928cc2ac818eb64fed8004e115fbcca679060a00160405180910390a350506006805460ff60e81b1916600160e81b17905550919890975095505050505050565b600654600160e81b900460ff166113885760405162461bcd60e51b81526004016107ee90615b22565b6006805460ff60e81b191690556003546001600160a01b031633146113bf5760405162461bcd60e51b81526004016107ee90615bfa565b6113c7613042565b6006805460ff60e81b1916600160e81b179055565b600654600160e81b900460ff166114055760405162461bcd60e51b81526004016107ee90615b22565b6006805460ff60e81b191690556005545f8054604051631217afdb60e01b815291926001600160a01b0390811692631217afdb926114479216906004016154ef565b6040805180830381865afa158015611461573d5f5f3e3d5ffd5b505050506040513d601f19601f820116820180604052508101906114859190615c16565b915050336001600160a01b038216146114c65760405162461bcd60e51b81526020600482015260036024820152622723a360e91b60448201526064016107ee565b6003546001600160a01b0316156114db575f5ffd5b50600380546001600160a01b039384166001600160a01b031991821617909155600480549290931691161790556006805460ff60e81b1916600160e81b179055565b5f546001600160a01b031615801561153d57506001600160a01b03861615155b611545575f5ffd5b5f80546001600160a01b03199081166001600160a01b0389811691909117909255600180548216888416179055600280548216878416179055600f805462ffffff60a01b1916600160a01b62ffffff881602179055600580549091169184169190911790556115b383613885565b601080546001600160801b03928316600160801b0292169190911790555f6115da826131cc565b604080516080808201835263ffffffff42168083525f602080850182905284860182905260016060958601819052600160f81b909317601455855160c0810187526001600160a01b038a16808252600289900b8284018190528289019490945295810184905293840183905260a0909301829052600680546001600160b81b0319168517600160a01b62ffffff8916021766ffffffffffffff60b81b191664010001000160c81b17905584519384529183019190915282519394509283927f98636036cb66a9c19a37435efc1e90142190214e8abeb821bdba3f2990dd4c95928290030190a1505050505050505050565b60148161ffff81106116db575f80fd5b015463ffffffff81169150600160201b810460060b90600160581b81046001600160a01b031690600160f81b900460ff1684565b6006545f908190600160e81b900460ff1661173c5760405162461bcd60e51b81526004016107ee90615b22565b6006805460ff60e81b191690556004546001600160a01b031633146117735760405162461bcd60e51b81526004016107ee90615c43565b611781888888888888613904565b6006805460ff60e81b1916600160e81b17905590999098509650505050505050565b600654600160e81b900460ff166117cc5760405162461bcd60e51b81526004016107ee90615b22565b6006805460ff60e81b191690819055600160d81b900461ffff165f6117f360148385613aa5565b6006805461ffff808416600160d81b810261ffff60d81b199093169290921790925591925083161461185e576040805161ffff8085168252831660208201527fac49e518f90a358f652e4400164f05a5d8f7e35e7747279bc3a93dbf584e125a910160405180910390a15b50506006805460ff60e81b1916600160e81b17905550565b6006545f908190600160e81b900460ff166118a35760405162461bcd60e51b81526004016107ee90615b22565b6006805460ff60e81b191690556001600160801b0385166118c2575f5ffd5b5f5f61190f60405180608001604052808c6001600160a01b031681526020018b60020b81526020018a60020b81526020016119058a6001600160801b0316613b34565b600f0b9052613b49565b92509250508193508092505f5f5f86111561192f5761192c613779565b91505b84156119405761193d613858565b90505b60405163d348799760e01b8152339063d34879979061196990899089908d908d90600401615bb4565b5f604051808303815f87803b158015611980575f5ffd5b505af1158015611992573d5f5f3e3d5ffd5b505050505f8611156119dc576119a6613779565b86830111156119dc5760405162461bcd60e51b815260206004820152600260248201526104d360f41b60448201526064016107ee565b8415611a20576119ea613858565b8582011115611a205760405162461bcd60e51b81526020600482015260026024820152614d3160f01b60448201526064016107ee565b604080513381526001600160801b038b1660208201529081018790526060810186905260028b810b91908d900b906001600160a01b038f16907f7a53080ba414158be7ec69b987b5fb7d07dee101fe85488f0853ae16239d0bde9060800160405180910390a450506006805460ff60e81b1916600160e81b17905550919890975095505050505050565b600654600160e81b900460ff16611ad35760405162461bcd60e51b81526004016107ee90615b22565b6006805460ff60e81b191690556010546001600160801b031680611b1d5760405162461bcd60e51b81526020600482015260016024820152601360fa1b60448201526064016107ee565b5f611b3886611b2a6125f0565b62ffffff16620f4240613d64565b90505f611b4786611b2a6125f0565b90505f611b52613779565b90505f611b5d613858565b90508815611b7c57600154611b7c906001600160a01b03168b8b61367e565b8715611b9957600254611b99906001600160a01b03168b8a61367e565b604051630e9cbafb60e41b8152339063e9cbafb090611bc290879087908c908c90600401615bb4565b5f604051808303815f87803b158015611bd9575f5ffd5b505af1158015611beb573d5f5f3e3d5ffd5b505050505f611bf8613779565b90505f611c03613858565b9050818685011115611c3c5760405162461bcd60e51b8152602060048201526002602482015261046360f41b60448201526064016107ee565b808584011115611c735760405162461bcd60e51b8152602060048201526002602482015261463160f01b60448201526064016107ee565b838203838203838614611ce557600f545f908190611c9d9085908d906001600160801b0316612df8565b90925090508115611cb15760078054830190555b6001600160801b03811615611ce257600a80546001600160801b038082168401166001600160801b03199091161790555b50505b8015611d4f57600f545f908190611d089084908d906001600160801b0316612df8565b90925090508115611d1c5760088054830190555b6001600160801b03811615611d4c57600a80546001600160801b03600160801b8083048216850182160291161790555b50505b50506001600160a01b038c16337fbdbdb71d7860376ba52b25a5028beea23581364a40522f6bcfb86bb1f2dca6338d8d611d898988615c61565b611d938988615c61565b60408051948552602085019390935291830152606082015260800160405180910390a350506006805460ff60e81b1916600160e81b17905550505050505050505050565b600654600160e81b900460ff16611e005760405162461bcd60e51b81526004016107ee90615b22565b6006805460ff60e81b191690556003546001600160a01b03163314611e375760405162461bcd60e51b81526004016107ee90615bfa565b600654600160a01b9004600290810b9084900b8112801590611e5e57508260020b8160020b125b15611ea257611e6b613042565b600f54611e81906001600160801b031686613125565b600f80546001600160801b0319166001600160801b03929092169190911790555b8115611f35576004545f90611ec4906013906001600160a01b03168787613da9565b6003549091505f90611ee3906013906001600160a01b03168888613da9565b90505f5f611f078888876007546008546011613e009095949392919063ffffffff16565b91509150611f2289611f1890615b73565b859084845f613ea5565b611f30838a84846001613ea5565b505050505b600284900b5f90815260116020526040902060050154600160f81b900460ff1615611f6757611f67601185875f614033565b600283900b5f90815260116020526040902060050154600160f81b900460ff1615611f9a57611f9a601184876001614033565b50506006805460ff60e81b1916600160e81b179055505050565b6006545f908190600160e81b900460ff16611fe15760405162461bcd60e51b81526004016107ee90615b22565b6006805460ff60e81b19169055611ffc878787878733613904565b6006805460ff60e81b1916600160e81b179055909890975095505050505050565b600654600160e81b900460ff166120465760405162461bcd60e51b81526004016107ee90615b22565b6006805460ff60e81b191690556003546001600160a01b0316331461207d5760405162461bcd60e51b81526004016107ee90615bfa565b600b92909255600c55600d555f600e556006805460ff60e81b1916600160e81b179055565b6006545f908190600160e81b900460ff166120cf5760405162461bcd60e51b81526004016107ee90615b22565b6006805460ff60e81b191690556004546001600160a01b031633146121065760405162461bcd60e51b81526004016107ee90615c43565b61211286868686614095565b6006805460ff60e81b1916600160e81b1790559097909650945050505050565b6060806121a7428585808060200260200160405190810160405280939291908181526020018383602002808284375f9201919091525050600654601054601495949350600160a01b820460020b925061ffff600160b81b83048116926001600160801b0390921691600160c81b9004166141a8565b915091505b9250929050565b5f6121be84846142ee565b815f036121cb5760095491505b6006546121e99060119086908690600160a01b900460020b866143b3565b90505b9392505050565b6006545f908190600160e81b900460ff166122205760405162461bcd60e51b81526004016107ee90615b22565b6006805460ff60e81b1916905561223985858533614095565b6006805460ff60e81b1916600160e81b17905590969095509350505050565b5f5f5f61226585856142ee565b600285810b5f908152601160205260408082209287900b825281206005830154600681900b93600160381b82046001600160a01b0316928492600160d81b810463ffffffff169284929091600160f81b900460ff16806122c3575f5ffd5b6005820154600681900b9850600160381b81046001600160a01b03169650600160d81b810463ffffffff169450600160f81b900460ff1680612303575f5ffd5b50506040805160c0810182526006546001600160a01b0381168252600160a01b8104600290810b60208401819052600160b81b830461ffff90811695850195909552600160c81b830485166060850152600160d81b83049094166080840152600160e81b90910460ff16151560a08301529093508e900b131590506123965750939094039650900393509003905061240f565b8a60020b816020015160020b12156124005760208101516040820151601054606084015142935f9384936123de9360149388938793919290916001600160801b031690612e96565b9a9003989098039b50509490960392909203965090910303925061240f915050565b50949093039650039350900390505b9250925092565b5f80546040516348cf7a4360e01b81526001600160a01b03909116906348cf7a43906124469030906004016154ef565b602060405180830381865afa158015612461573d5f5f3e3d5ffd5b505050506040513d601f19601f820116820180604052508101906124859190615c74565b905090565b6006545f908190600160e81b900460ff166124b75760405162461bcd60e51b81526004016107ee90615b22565b6006805460ff60e81b191690556003546001600160a01b031633146124ee5760405162461bcd60e51b81526004016107ee90615bfa565b5050600a546001600160801b0380821691600160801b900416600182111561254a57600a80546001600160801b0319166001908117909155545f199092019161254a906001600160a01b0316336001600160801b03851661367e565b6001816001600160801b0316111561259657600a80546001600160801b03908116600160801b179091556002545f1990920191612596916001600160a01b03909116903390841661367e565b336001600160a01b03167f205860e66845f2bbc0966bfab80db9bf93fca93862ea2b9fcf6945748352b4a383836040516125d19291906156be565b60405180910390a26006805460ff60e81b1916600160e81b1790559091565b5f8054604051630d51637360e21b81526001600160a01b03909116906335458dcc906124469030906004016154ef565b5f808061262d8587615caa565b90505f8660020b12801561264c57506126468587615ce2565b60020b15155b1561265f578061265b81615d03565b9150505b8315612709575f5f61267083614424565b90925090505f600160ff831681901b9061268a9082615c61565b6126949190615d24565b600184900b5f90815260208c9052604090205481168015159650909150856126d357886126c460ff851687615d37565b6126ce9190615d5c565b6126fe565b886126dd82614440565b6126e79085615d82565b6126f49060ff1687615d37565b6126fe9190615d5c565b9650505050506127cb565b5f8061271e612719846001615d9b565b614424565b90925090505f612735600160ff841681901b615c61565b600184900b5f90815260208c90526040902054901990811680151596509091508561278d57886127668460ff615d82565b60ff16612774876001615d9b565b61277e9190615d9b565b6127889190615d5c565b6127c4565b888361279883614528565b6127a29190615d82565b60ff166127b0876001615d9b565b6127ba9190615d9b565b6127c49190615d5c565b9650505050505b5094509492505050565b5f5f5f8360020b126127ea578260020b6127f7565b8260020b6127f790615dc0565b9050612806620d89e719615b53565b60020b81111561283c5760405162461bcd60e51b81526020600482015260016024820152601560fa1b60448201526064016107ee565b5f816001165f0361285157600160801b612863565b6ffffcb933bd6fad37aa2d162d1a5940015b6001600160881b031690506002821615612898576080612893826ffff97272373d413259a46990580e213a615dda565b901c90505b60048216156128c25760806128bd826ffff2e50f5f656932ef12357cf3c7fdcc615dda565b901c90505b60088216156128ec5760806128e7826fffe5caca7e10e4e61c3624eaa0941cd0615dda565b901c90505b6010821615612916576080612911826fffcb9843d60f6159c9db58835c926644615dda565b901c90505b602082161561294057608061293b826fff973b41fa98c081472e6896dfb254c0615dda565b901c90505b604082161561296a576080612965826fff2ea16466c96a3843ec78b326b52861615dda565b901c90505b608082161561299457608061298f826ffe5dee046a99a2a811c461f1969c3053615dda565b901c90505b6101008216156129bf5760806129ba826ffcbe86c7900a88aedcffc83b479aa3a4615dda565b901c90505b6102008216156129ea5760806129e5826ff987a7253ac413176f2b074cf7815e54615dda565b901c90505b610400821615612a15576080612a10826ff3392b0822b70005940c7a398e4b70f3615dda565b901c90505b610800821615612a40576080612a3b826fe7159475a2c29b7443b29c7fa6e889d9615dda565b901c90505b611000821615612a6b576080612a66826fd097f3bdfd2022b8845ad8f792aa5825615dda565b901c90505b612000821615612a96576080612a91826fa9f746462d870fdf8a65dc1f90e061e5615dda565b901c90505b614000821615612ac1576080612abc826f70d869a156d2a1b890bb3df62baf32f7615dda565b901c90505b618000821615612aec576080612ae7826f31be135f97d08fd981231505542fcfa6615dda565b901c90505b62010000821615612b18576080612b13826f09aa508b5b7a84e1c677de54f3e99bc9615dda565b901c90505b62020000821615612b43576080612b3e826e5d6af8dedb81196699c329225ee604615dda565b901c90505b62040000821615612b6d576080612b68826d2216e584f5fa1ea926041bedfe98615dda565b901c90505b62080000821615612b95576080612b90826b048a170391f7dc42444e8fa2615dda565b901c90505b5f8460020b1315612bae57612bab815f19615df1565b90505b612bbc600160201b82615e04565b15612bc8576001612bca565b5f5b612bdb9060ff16602083901c615d24565b949350505050565b5f8080806001600160a01b03808916908a161015818712801590612c6d575f612c2189612c138a620f4240615e17565b62ffffff16620f4240614650565b905082612c3a57612c358c8c8c600161470a565b612c47565b612c478b8d8c6001614787565b9550858110612c58578a9650612c67565b612c648c8b838661484a565b96505b50612cbf565b81612c8357612c7e8b8b8b5f614787565b612c8f565b612c8f8a8c8b5f61470a565b935083612c9b89615dc0565b10612ca857899550612cbf565b612cbc8b8a612cb68b615dc0565b85614892565b95505b6001600160a01b038a8116908716148215612d2157808015612cde5750815b612cf457612cef878d8c6001614787565b612cf6565b855b9550808015612d03575081155b612d1857612d13878d8c5f61470a565b612d1a565b845b9450612d6a565b808015612d2b5750815b612d4157612d3c8c888c600161470a565b612d43565b855b9550808015612d50575081155b612d6557612d608c888c5f614787565b612d67565b845b94505b81158015612d7f5750612d7c89615dc0565b85115b15612d9057612d8d89615dc0565b94505b818015612daf57508a6001600160a01b0316876001600160a01b031614155b15612dc557612dbe868a615c61565b9350612de9565b612de68662ffffff8a16612ddc8b620f4240615e17565b62ffffff16613d64565b93505b50505095509550955095915050565b5f5f826001600160801b0316846001600160801b031603612e1a575083612e8e565b826001600160801b03165f03612e5d575f5f612e36875f6148d8565b91509150612e5282600160801b886001600160801b0316614650565b93509150612e8e9050565b5f5f612e6a8787876148f6565b91509150612e8882600160801b8789036001600160801b0316614650565b93509150505b935093915050565b5f5f8663ffffffff165f03612f3c575f898661ffff1661ffff8110612ebd57612ebd615e32565b60408051608081018252919092015463ffffffff808216808452600160201b830460060b6020850152600160581b83046001600160a01b031694840194909452600160f81b90910460ff16151560608301529092508a1614612f2857612f25818a8988614936565b90505b806020015181604001519250925050613036565b8688035f80612f508c8c858c8c8c8c6149dc565b91509150815f015163ffffffff168363ffffffff1603612f80578160200151826040015194509450505050613036565b805f015163ffffffff168363ffffffff1603612fac578060200151816040015194509450505050613036565b5f825f0151825f01510390505f835f0151850390508063ffffffff168263ffffffff1660060b856020015185602001510360060b81612fed57612fed615c96565b05028460200151018263ffffffff168263ffffffff1686604001518660400151036001600160a01b0316028161302557613025615c96565b048560400151019650965050505050505b97509795505050505050565b600f544290600160801b900463ffffffff908116905f906130669083908516615c61565b9050801561312057600c5415613101575f81600b546130859190615dda565b9050600c548111156130965750600c545b600c80548290039055600f546001600160801b0316156130e857600f546130cd908290600160801b906001600160801b0316614650565b60095f8282546130dd9190615d24565b909155506130ff9050565b80600e5f8282546130f99190615d24565b90915550505b505b600f805463ffffffff60801b1916600160801b63ffffffff8616021790555b505050565b5f5f82600f0b121561317a57508181016001600160801b03808416908216106131755760405162461bcd60e51b81526020600482015260026024820152614c5360f01b60448201526064016107ee565b6131c6565b8183019050826001600160801b0316816001600160801b031610156131c65760405162461bcd60e51b81526020600482015260026024820152614c4160f01b60448201526064016107ee565b92915050565b5f6401000276a36001600160a01b03831610801590613207575073fffd8963efd1fc6a506488495d951d5263988d266001600160a01b038316105b6132375760405162461bcd60e51b81526020600482015260016024820152602960f91b60448201526064016107ee565b600160201b600160c01b03602083901b166001600160801b03811160071b81811c6001600160401b03811160061b90811c63ffffffff811160051b90811c61ffff811160041b90811c60ff8111600390811b91821c600f811160021b90811c918211600190811b92831c979088119617909417909217179091171717608081106132d0576132c6607f82615c61565b83901c91506132e1565b6132db81607f615c61565b83901b91505b5f60406132ef608084615e46565b901b9050828302607f1c92508260801c80603f1b8217915083811c935050828302607f1c92508260801c80603e1b8217915083811c935050828302607f1c92508260801c80603d1b8217915083811c935050828302607f1c92508260801c80603c1b8217915083811c935050828302607f1c92508260801c80603b1b8217915083811c935050828302607f1c92508260801c80603a1b8217915083811c935050828302607f1c92508260801c8060391b8217915083811c935050828302607f1c92508260801c8060381b8217915083811c935050828302607f1c92508260801c8060371b8217915083811c935050828302607f1c92508260801c8060361b8217915083811c935050828302607f1c92508260801c8060351b8217915083811c935050828302607f1c92508260801c8060341b8217915083811c935050828302607f1c92508260801c8060331b8217915083811c935050828302607f1c92508260801c8060321b82179150505f81693627a301d71055774c856134719190615e65565b90505f60806134906f028f6481ab7f045a5af012a19d003aaa84615e46565b901d90505f60806134b1846fdb2df09e81959a81455e260799a0632f615e94565b901d90508060020b8260020b146134f057886001600160a01b03166134d5826127d5565b6001600160a01b031611156134ea57816134f2565b806134f2565b815b9998505050505050505050565b5f5f5f898961ffff1661ffff811061351957613519615e32565b60408051608081018252919092015463ffffffff808216808452600160201b830460060b6020850152600160581b83046001600160a01b031694840194909452600160f81b90910460ff1615156060830152909250891690036135825788859250925050613036565b8461ffff168461ffff161180156135aa575061359f600186615ebb565b61ffff168961ffff16145b156135b7578391506135bb565b8491505b816135c78a6001615ed5565b6135d19190615eef565b92506135df81898989614936565b8a8461ffff1661ffff81106135f6576135f6615e32565b825191018054602084015160408501516060909501511515600160f81b026001600160f81b036001600160a01b03909616600160581b02959095166001600160581b0366ffffffffffffff909216600160201b026001600160581b031990931663ffffffff909516949094179190911716919091179190911790555097509795505050505050565b604080516001600160a01b038481166024830152604480830185905283518084039091018152606490920183526020820180516001600160e01b031663a9059cbb60e01b17905291515f928392908716916136d99190615f12565b5f604051808303815f865af19150503d805f8114613712576040519150601f19603f3d011682016040523d82523d5f602084013e613717565b606091505b50915091508180156137415750805115806137415750808060200190518101906137419190615f28565b6137725760405162461bcd60e51b81526020600482015260026024820152612a2360f11b60448201526064016107ee565b5050505050565b6001546040515f91829182916001600160a01b0316906370a0823160e01b906137a69030906024016154ef565b60408051601f198184030181529181526020820180516001600160e01b03166001600160e01b03199094169390931790925290516137e49190615f12565b5f60405180830381855afa9150503d805f811461381c576040519150601f19603f3d011682016040523d82523d5f602084013e613821565b606091505b509150915081801561383557506020815110155b61383d575f5ffd5b808060200190518101906138519190615f43565b9250505090565b6002546040515f91829182916001600160a01b0316906370a0823160e01b906137a69030906024016154ef565b5f8082600281900b620d89e7198161389f5761389f615c96565b050290505f83600281900b620d89e8816138bb576138bb615c96565b050290505f8460020b83830360020b816138d7576138d7615c96565b0560010190508062ffffff166001600160801b038016816138fa576138fa615c96565b0495945050505050565b5f80806139146013858a8a613da9565b60038101549091506001600160801b03908116908716116139355785613944565b60038101546001600160801b03165b60038201549093506001600160801b03600160801b90910481169086161161396c5784613982565b6003810154600160801b90046001600160801b03165b91506001600160801b038316156139d4576003810180546001600160801b031981166001600160801b039182168690038216179091556001546139d4916001600160a01b03909116908b90861661367e565b6001600160801b03821615613a27576003810180546001600160801b03600160801b808304821686900382160291811691909117909155600254613a27916001600160a01b03909116908b90851661367e565b8660020b8860020b856001600160a01b03167f70935338e69775456a85ddef226c395fb668b63fa0115f5f20610b388e6ca9c08c8787604051613a91939291906001600160a01b039390931683526001600160801b03918216602084015216604082015260600190565b60405180910390a450965096945050505050565b5f5f8361ffff1611613ac95760405162461bcd60e51b81526004016107ee90615f5a565b8261ffff168261ffff1611613adf5750816121ec565b825b8261ffff168161ffff161015613b2b576001858261ffff1661ffff8110613b0a57613b0a615e32565b01805463ffffffff191663ffffffff92909216919091179055600101613ae1565b50909392505050565b80600f81900b8114613b44575f5ffd5b919050565b5f5f5f613b5e846020015185604001516142ee565b6040805160c0810182526006546001600160a01b0381168252600160a01b810460020b6020808401829052600160b81b830461ffff90811685870152600160c81b84048116606080870191909152600160d81b85049091166080860152600160e81b90930460ff16151560a085015288519089015194890151928901519394613bed9491939092909190614bbf565b93508460600151600f0b5f14613d5c57846020015160020b816020015160020b1215613c4157613c3a613c2386602001516127d5565b613c3087604001516127d5565b8760600151614d67565b9250613d5c565b846040015160020b816020015160020b1215613d325760105460408201516001600160801b0390911690613c8c904260208501516060860151608087015160149493929187916134ff565b6006805463ffffffff60b81b1916600160c81b61ffff9384160261ffff60b81b191617600160b81b939092169290920217905581516040870151613cde9190613cd4906127d5565b8860600151614d67565b9350613cfc613cf087602001516127d5565b83516060890151614dac565b9250613d0c818760600151613125565b601080546001600160801b0319166001600160801b039290921691909117905550613d5c565b613d59613d4286602001516127d5565b613d4f87604001516127d5565b8760600151614dac565b91505b509193909250565b5f613d70848484614650565b90505f8280613d8157613d81615c96565b84860911156121ec575f198110613d96575f5ffd5b80613da081615f75565b95945050505050565b6040805160609490941b6001600160601b03191660208086019190915260e893841b60348601529190921b60378401528151601a818503018152603a90930182528251928101929092205f90815292909152902090565b600285810b5f8181526020899052604080822088850b83529082209193849391929184918291908a900b12613e4057505060028201546003830154613e53565b8360020154880391508360030154870390505b5f5f8b60020b8b60020b1215613e7457505060028301546003840154613e87565b84600201548a0391508460030154890390505b92909803979097039b96909503949094039850939650505050505050565b6040805160a08101825286546001600160801b0390811682526001880154602083015260028801549282019290925260038701548083166060830152600160801b900490911660808201525f600f86900b8103613f405781516001600160801b0316613f385760405162461bcd60e51b815260206004820152600260248201526104e560f41b60448201526064016107ee565b508051613f4f565b8151613f4c9087613125565b90505b5f5f84613f9d57613f7784602001518803855f01516001600160801b0316600160801b614650565b9150613f9a84604001518703855f01516001600160801b0316600160801b614650565b90505b87600f0b5f14613fc15788546001600160801b0319166001600160801b0384161789555b60018901879055600289018690556001600160801b038216151580613fee57505f816001600160801b0316115b1561402857600389018054600160801b6001600160801b03808316860181166001600160801b031990931683178290048116850116021790555b505050505050505050565b600283900b5f9081526020859052604090208161405d576001810154600f84810b91900b0161406c565b6001810154600f84810b91900b035b60019190910180546001600160801b0319166001600160801b0390921691909117905550505050565b5f5f5f5f5f6140e46040518060800160405280886001600160a01b031681526020018b60020b81526020018a60020b81526020016140db8a6001600160801b0316613b34565b61190590615b73565b925092509250815f039450805f0393505f85118061410157505f84115b1561413c576003830180546001600160801b0380821688018116600160801b92839004821688019091169091026001600160801b0319161790555b604080516001600160801b038916815260208101879052908101859052600289810b91908b900b906001600160a01b038916907f0c396cd989a39f4459b5fa1aed6a9a8dcdbc45908acfd67e028cd568da98982c9060600160405180910390a450505094509492505050565b6060805f8361ffff16116141ce5760405162461bcd60e51b81526004016107ee90615f5a565b86516001600160401b038111156141e7576141e7615f8d565b604051908082528060200260200182016040528015614210578160200160208202803683370190505b50915086516001600160401b0381111561422c5761422c615f8d565b604051908082528060200260200182016040528015614255578160200160208202803683370190505b5090505f5b87518110156142e15761428b8a8a8a848151811061427a5761427a615e32565b60200260200101518a8a8a8a612e96565b84838151811061429d5761429d615e32565b602002602001018484815181106142b6576142b6615e32565b6001600160a01b039093166020938402919091019092019190915260069190910b905260010161425a565b5097509795505050505050565b8060020b8260020b126143295760405162461bcd60e51b8152602060048201526003602482015262544c5560e81b60448201526064016107ee565b620d89e719600283900b12156143675760405162461bcd60e51b8152602060048201526003602482015262544c4d60e81b60448201526064016107ee565b614374620d89e719615b53565b60020b8160020b13156143af5760405162461bcd60e51b815260206004820152600360248201526254554d60e81b60448201526064016107ee565b5050565b600284810b5f8181526020889052604080822087850b835290822091939092849187900b126143e7575060048201546143f0565b50600482015484035b5f8760020b8760020b121561440a57506004820154614413565b50600482015485035b940393909303979650505050505050565b600281900b60081d5f61443961010084615ce2565b9050915091565b5f5f821161444c575f5ffd5b600160801b821061446a57608091821c916144679082615fa1565b90505b600160401b821061448857604091821c916144859082615fa1565b90505b600160201b82106144a657602091821c916144a39082615fa1565b90505b6201000082106144c357601091821c916144c09082615fa1565b90505b61010082106144df57600891821c916144dc9082615fa1565b90505b601082106144fa57600491821c916144f79082615fa1565b90505b6004821061451557600291821c916145129082615fa1565b90505b60028210613b44576131c6600182615fa1565b5f5f8211614534575f5ffd5b5060ff6001600160801b0382161561455857614551608082615d82565b9050614560565b608082901c91505b6001600160401b038216156145815761457a604082615d82565b9050614589565b604082901c91505b63ffffffff8216156145a7576145a0602082615d82565b90506145af565b602082901c91505b61ffff8216156145cb576145c4601082615d82565b90506145d3565b601082901c91505b60ff8216156145ee576145e7600882615d82565b90506145f6565b600882901c91505b600f8216156146115761460a600482615d82565b9050614619565b600482901c91505b60038216156146345761462d600282615d82565b905061463c565b600282901c91505b6001821615613b44576131c6600182615d82565b5f80805f19858709858702925082811083820303915050805f03614684575f8411614679575f5ffd5b5082900490506121ec565b80841161468f575f5ffd5b5f84868809600186198101871696879004965f81810382900490920186841190950385810296849003919091049590951794939192506146d0876003615dda565b6002908118888102820302808902820302808902820302808902820302808902820302978802900390960293909302979650505050505050565b5f836001600160a01b0316856001600160a01b03161115614729579293925b8161475d576147586001600160801b0384166147458787615fba565b6001600160a01b0316600160601b614650565b613da0565b613da06001600160801b0384166147748787615fba565b6001600160a01b0316600160601b613d64565b5f836001600160a01b0316856001600160a01b031611156147a6579293925b600160601b600160e01b03606084901b165f6147c28787615fba565b6001600160a01b031690505f876001600160a01b0316116147e1575f5ffd5b8361481357866001600160a01b03166148048383896001600160a01b0316614650565b61480e9190615df1565b61483f565b61483f61482a8383896001600160a01b0316613d64565b886001600160a01b0316808204910615150190565b979650505050505050565b5f5f856001600160a01b03161161485f575f5ffd5b5f846001600160801b031611614873575f5ffd5b81614885576147588585856001614dde565b613da08585856001614ec1565b5f5f856001600160a01b0316116148a7575f5ffd5b5f846001600160801b0316116148bb575f5ffd5b816148cc576147588585855f614ec1565b613da08585855f614dde565b5f5f5f6148e785611b2a612416565b94859003959390940193505050565b5f5f61491585846001600160801b0316866001600160801b0316613d64565b905061492a6149248287615c61565b826148d8565b90969095509350505050565b61493e6154c9565b5f855f01518503905060405180608001604052808663ffffffff1681526020018263ffffffff168660020b0288602001510160060b81526020015f856001600160801b03161161498f576001614991565b845b6001600160801b031663ffffffff60801b608085901b16816149b5576149b5615c96565b048860400151016001600160a01b0316815260200160011515815250915050949350505050565b6149e46154c9565b6149ec6154c9565b888561ffff1661ffff8110614a0357614a03615e32565b60408051608081018252919092015463ffffffff8116808352600160201b820460060b6020840152600160581b82046001600160a01b031693830193909352600160f81b900460ff16151560608201529250614a6190899089614fd1565b15614a8d57815163ffffffff8881169116146130365781614a8483898988614936565b91509150613036565b8883614a9a876001615ed5565b614aa49190615eef565b61ffff1661ffff8110614ab957614ab9615e32565b60408051608081018252929091015463ffffffff81168352600160201b810460060b60208401526001600160a01b03600160581b8204169183019190915260ff600160f81b90910416151560608201819052909250614b6257604080516080810182528a5463ffffffff81168252600160201b810460060b6020830152600160581b81046001600160a01b031692820192909252600160f81b90910460ff161515606082015291505b614b7088835f015189614fd1565b614ba25760405162461bcd60e51b815260206004820152600360248201526213d31160ea1b60448201526064016107ee565b614baf898989888761509d565b9150915097509795505050505050565b5f614bcd6013878787613da9565b600754600854919250905f80600f87900b15614cde5760065460105442915f918291614c2b9160149186918591600160a01b810460020b9161ffff600160b81b83048116926001600160801b0390921691600160c81b900416612e96565b6010549193509150614c61906011908e908c908e908c908c9088908a908c905f90600160801b90046001600160801b0316615278565b601054909550614c96906011908d908c908e908c908c9088908a908c90600190600160801b90046001600160801b0316615278565b93508415614cb957600f54614cb9906012908e90600160a01b900460020b6153ff565b8315614cda57600f54614cda906012908d90600160a01b900460020b6153ff565b5050505b5f80614cef60118c8c8b8a8a613e00565b60035491935091505f906001600160a01b038e81169116148015614d1b57506001600160a01b038d1615155b9050614d2a888b858585613ea5565b5f8a600f0b1215614d57578415614d4657614d4660118d61544f565b8315614d5757614d5760118c61544f565b5050505050505095945050505050565b5f5f82600f0b12614d8c57614d87614d828585856001614787565b615491565b6121e9565b614da3614d828585614d9d86615b73565b5f614787565b6121e990615dc0565b5f5f82600f0b12614dc757614d87614d82858585600161470a565b614da3614d828585614dd886615b73565b5f61470a565b5f8115614e4e575f6001600160a01b03841115614e1257614e0d84600160601b876001600160801b0316614650565b614e29565b614e296001600160801b038616606086901b615df1565b9050614e46614e416001600160a01b038816836154a5565b6154b4565b915050612bdb565b5f6001600160a01b03841115614e7b57614e7684600160601b876001600160801b0316613d64565b614e98565b614e98606085901b6001600160801b038716808204910615150190565b905080866001600160a01b031611614eae575f5ffd5b614e46816001600160a01b038816615c61565b5f825f03614ed0575083612bdb565b600160601b600160e01b03606085901b168215614f77575f6001600160a01b03871685614efd8282615dda565b9250614f099083615df1565b03614f42575f614f198284615d24565b9050828110614f4057614f3683896001600160a01b031683613d64565b9350505050612bdb565b505b614f6e82614f6387614f5d6001600160a01b038c1684615df1565b906154a5565b808204910615150190565b92505050612bdb565b5f6001600160a01b03871685614f8d8282615dda565b9250614f999083615df1565b148015614fa557508082115b614fad575f5ffd5b5f614fb88284615c61565b9050614f36614e41848a6001600160a01b031684613d64565b5f8363ffffffff168363ffffffff1611158015614ffa57508363ffffffff168263ffffffff1611155b15615016578163ffffffff168363ffffffff16111590506121ec565b5f8463ffffffff168463ffffffff16116150435761503e63ffffffff8516600160201b615fd9565b61504b565b8363ffffffff165b64ffffffffff1690505f8563ffffffff168463ffffffff16116150815761507c63ffffffff8516600160201b615fd9565b615089565b8363ffffffff165b64ffffffffff169091111595945050505050565b6150a56154c9565b6150ad6154c9565b5f836150ba866001615ed5565b6150c49190615eef565b61ffff1690505f60018561ffff16836150dd9190615d24565b6150e79190615c61565b90505f5b60026150f78385615d24565b6151019190615df1565b90508961511261ffff881683615e04565b61ffff811061512357615123615e32565b60408051608081018252929091015463ffffffff81168352600160201b810460060b60208401526001600160a01b03600160581b8204169183019190915260ff600160f81b9091041615156060820181905290955061518e57615187816001615d24565b92506150eb565b8961ffff871661519f836001615d24565b6151a99190615e04565b61ffff81106151ba576151ba615e32565b60408051608081018252929091015463ffffffff81168352600160201b810460060b60208401526001600160a01b03600160581b8204169183019190915260ff600160f81b909104161515606082015285519094505f9061521d908b908b614fd1565b905080801561523557506152358a8a875f0151614fd1565b15615240575061526b565b8061525757615250600183615c61565b9250615265565b615262826001615d24565b93505b506150eb565b5050509550959350505050565b60028a900b5f90815260208c90526040812080546001600160801b0316826152a0828d613125565b9050846001600160801b0316816001600160801b031611156152e95760405162461bcd60e51b81526020600482015260026024820152614c4f60f01b60448201526064016107ee565b6001600160801b03818116159083168015919091141594505f0361538c578c60020b8e60020b1361537457600283018b9055600383018a905560058301805466ffffffffffffff8a166001600160f81b0319909116600160381b6001600160a01b038d160266ffffffffffffff63ffffffff60d81b0119161717600160d81b63ffffffff8a16021790555b6005830180546001600160f81b0316600160f81b1790555b82546001600160801b0319166001600160801b038216178355856153c1578254600f8d810b600160801b909204900b016153d4565b8254600f8d810b600160801b909204900b035b83546001600160801b03918216600160801b0291161790925550909c9b505050505050505050505050565b6154098183615ce2565b60020b15615415575f5ffd5b5f806154246127198486615caa565b600191820b5f9081526020979097526040909620805460ff9097169190911b90951890945550505050565b600290810b5f908152602092909252604082208281556001810180546001600160801b0319169055908101829055600381018290556004810182905560050155565b5f600160ff1b82106154a1575f5ffd5b5090565b818101828110156131c6575f5ffd5b806001600160a01b0381168114613b44575f5ffd5b604080516080810182525f80825260208201819052918101829052606081019190915290565b6001600160a01b0391909116815260200190565b6001600160a01b0381168114615517575f5ffd5b50565b8015158114615517575f5ffd5b5f5f83601f840112615537575f5ffd5b5081356001600160401b0381111561554d575f5ffd5b6020830191508360208285010111156121ac575f5ffd5b5f5f5f5f5f5f60a08789031215615579575f5ffd5b863561558481615503565b955060208701356155948161551a565b94506040870135935060608701356155ab81615503565b925060808701356001600160401b038111156155c5575f5ffd5b6155d189828a01615527565b979a9699509497509295939492505050565b5f5f604083850312156155f4575f5ffd5b82356155ff81615503565b9150602083013561560f81615503565b809150509250929050565b8035600281900b8114613b44575f5ffd5b5f5f5f5f5f5f60c08789031215615640575f5ffd5b863561564b81615503565b9550602087013561565b81615503565b9450604087013561566b81615503565b93506156796060880161561a565b9250608087013561568981615503565b915060a087013561569981615503565b809150509295509295509295565b5f602082840312156156b7575f5ffd5b5035919050565b6001600160801b0392831681529116602082015260400190565b80356001600160801b0381168114613b44575f5ffd5b5f5f5f5f5f5f60c08789031215615703575f5ffd5b863561570e81615503565b955061571c6020880161561a565b945061572a6040880161561a565b9350615738606088016156d8565b9250615689608088016156d8565b5f60208284031215615756575f5ffd5b813561ffff811681146121ec575f5ffd5b5f5f5f5f5f5f60a0878903121561577c575f5ffd5b863561578781615503565b95506157956020880161561a565b94506157a36040880161561a565b93506155ab606088016156d8565b5f5f5f5f5f608086880312156157c5575f5ffd5b85356157d081615503565b9450602086013593506040860135925060608601356001600160401b038111156157f8575f5ffd5b61580488828901615527565b969995985093965092949392505050565b5f5f5f5f60808587031215615828575f5ffd5b843580600f0b8114615838575f5ffd5b93506158466020860161561a565b92506158546040860161561a565b915060608501356158648161551a565b939692955090935050565b5f5f5f5f5f60a08688031215615883575f5ffd5b853561588e81615503565b945061589c6020870161561a565b93506158aa6040870161561a565b92506158b8606087016156d8565b91506158c6608087016156d8565b90509295509295909350565b5f602082840312156158e2575f5ffd5b81358060010b81146121ec575f5ffd5b5f5f5f60608486031215615904575f5ffd5b505081359360208301359350604090920135919050565b5f5f5f5f6080858703121561592e575f5ffd5b6159378561561a565b93506159456020860161561a565b9250615953604086016156d8565b9150606085013561586481615503565b5f5f60208385031215615974575f5ffd5b82356001600160401b03811115615989575f5ffd5b8301601f81018513615999575f5ffd5b80356001600160401b038111156159ae575f5ffd5b8560208260051b84010111156159c2575f5ffd5b6020919091019590945092505050565b604080825283519082018190525f9060208501906060840190835b81811015615a0e57835160060b8352602093840193909201916001016159ed565b5050838103602080860191909152855180835291810192508501905f5b81811015615a525782516001600160a01b0316845260209384019390920191600101615a2b565b50919695505050505050565b5f5f5f60608486031215615a70575f5ffd5b615a798461561a565b9250615a876020850161561a565b929592945050506040919091013590565b5f5f5f60608486031215615aaa575f5ffd5b615ab38461561a565b9250615ac16020850161561a565b9150615acf604085016156d8565b90509250925092565b5f5f60408385031215615ae9575f5ffd5b615af28361561a565b9150615b006020840161561a565b90509250929050565b5f60208284031215615b19575f5ffd5b6121ec8261561a565b6020808252600390820152624c4f4b60e81b604082015260600190565b634e487b7160e01b5f52601160045260245ffd5b5f8160020b627fffff198103615b6b57615b6b615b3f565b5f0392915050565b5f600f82900b6001607f1b8101615b6b57615b6b615b3f565b81835281816020850137505f828201602090810191909152601f909101601f19169091010190565b848152836020820152606060408201525f615bd3606083018486615b8c565b9695505050505050565b60208082526003908201526249494160e81b604082015260600190565b6020808252600290820152614e4760f01b604082015260600190565b5f5f60408385031215615c27575f5ffd5b8251615c3281615503565b602084015190925061560f81615503565b6020808252600490820152631393919560e21b604082015260600190565b818103818111156131c6576131c6615b3f565b5f60208284031215615c84575f5ffd5b815162ffffff811681146121ec575f5ffd5b634e487b7160e01b5f52601260045260245ffd5b5f8160020b8360020b80615cc057615cc0615c96565b627fffff1982145f1982141615615cd957615cd9615b3f565b90059392505050565b5f8260020b80615cf457615cf4615c96565b808360020b0791505092915050565b5f8160020b627fffff198103615d1b57615d1b615b3f565b5f190192915050565b808201808211156131c6576131c6615b3f565b600282810b9082900b03627fffff198112627fffff821317156131c6576131c6615b3f565b5f8260020b8260020b028060020b9150808214615d7b57615d7b615b3f565b5092915050565b60ff82811682821603908111156131c6576131c6615b3f565b600281810b9083900b01627fffff8113627fffff19821217156131c6576131c6615b3f565b5f600160ff1b8201615dd457615dd4615b3f565b505f0390565b80820281158282048414176131c6576131c6615b3f565b5f82615dff57615dff615c96565b500490565b5f82615e1257615e12615c96565b500690565b62ffffff82811682821603908111156131c6576131c6615b3f565b634e487b7160e01b5f52603260045260245ffd5b8181035f831280158383131683831282161715615d7b57615d7b615b3f565b8082025f8212600160ff1b84141615615e8057615e80615b3f565b81810583148215176131c6576131c6615b3f565b8082018281125f831280158216821582161715615eb357615eb3615b3f565b505092915050565b61ffff82811682821603908111156131c6576131c6615b3f565b61ffff81811683821601908111156131c6576131c6615b3f565b5f61ffff831680615f0257615f02615c96565b8061ffff84160691505092915050565b5f82518060208501845e5f920191825250919050565b5f60208284031215615f38575f5ffd5b81516121ec8161551a565b5f60208284031215615f53575f5ffd5b5051919050565b6020808252600190820152604960f81b604082015260600190565b5f60018201615f8657615f86615b3f565b5060010190565b634e487b7160e01b5f52604160045260245ffd5b60ff81811683821601908111156131c6576131c6615b3f565b6001600160a01b0382811682821603908111156131c6576131c6615b3f565b64ffffffffff81811683821601908111156131c6576131c6615b3f56fea264697066735822122075ff91aeb5285933e2202de354a2803c6f9a6a0f9ddb11cc4c3ba89a60308e1564736f6c634300081e0033","linkReferences":{}},"methodIdentifiers":{"burn(int24,int24,uint128)":"a34123a7","burn(int24,int24,uint128,address)":"6f89244c","collect(address,int24,int24,uint128,uint128)":"4f1eb3d8","collect(address,int24,int24,uint128,uint128,address)":"31338374","collectFees()":"c8796572","factory()":"c45a0155","factoryRegistry()":"3bf0c9fb","fee()":"ddca3f43","feeGrowthGlobal0X128()":"f3058399","feeGrowthGlobal1X128()":"46141319","flash(address,uint256,uint256,bytes)":"490e6cbc","gauge()":"a6f19c84","gaugeFees()":"293833ba","getRewardGrowthInside(int24,int24,uint256)":"a16368c9","increaseObservationCardinalityNext(uint16)":"32148f67","initialize(address,address,address,int24,address,uint160)":"2071d884","lastUpdated()":"d0b06f5d","liquidity()":"1a686502","maxLiquidityPerTick()":"70cf754a","mint(address,int24,int24,uint128,bytes)":"3c8a7d8d","nft()":"47ccca02","observations(uint256)":"252c09d7","observe(uint32[])":"883bdbfd","periodFinish()":"ebe2b12b","positions(bytes32)":"514ea4bf","rewardGrowthGlobalX128()":"57806ada","rewardRate()":"7b0a47ee","rewardReserve()":"cab64bcd","rollover()":"b056b49a","setGaugeAndPositionManager(address,address)":"1f7c3568","slot0()":"3850c7bd","snapshotCumulativesInside(int24,int24)":"a38807f2","stake(int128,int24,int24,bool)":"4ed6210f","stakedLiquidity()":"3ab04b20","swap(address,bool,int256,uint160,bytes)":"128acb08","syncReward(uint256,uint256,uint256)":"60a73f9b","tickBitmap(int16)":"5339c296","tickSpacing()":"d0c93a7c","ticks(int24)":"f30dba93","token0()":"0dfe1681","token1()":"d21220a7","unstakedFee()":"b64cc67b","updateRewardsGrowthGlobal()":"1b410960"},"id":766}