{"abi":[{"type":"constructor","inputs":[{"name":"vat_","type":"address","internalType":"address"},{"name":"gem_","type":"address","internalType":"address"}],"stateMutability":"nonpayable"},{"type":"function","name":"beg","inputs":[],"outputs":[{"name":"","type":"uint256","internalType":"uint256"}],"stateMutability":"view"},{"type":"function","name":"bids","inputs":[{"name":"","type":"uint256","internalType":"uint256"}],"outputs":[{"name":"bid","type":"uint256","internalType":"uint256"},{"name":"lot","type":"uint256","internalType":"uint256"},{"name":"guy","type":"address","internalType":"address"},{"name":"tic","type":"uint48","internalType":"uint48"},{"name":"end","type":"uint48","internalType":"uint48"}],"stateMutability":"view"},{"type":"function","name":"cage","inputs":[{"name":"rad","type":"uint256","internalType":"uint256"}],"outputs":[],"stateMutability":"nonpayable"},{"type":"function","name":"deal","inputs":[{"name":"id","type":"uint256","internalType":"uint256"}],"outputs":[],"stateMutability":"nonpayable"},{"type":"function","name":"deny","inputs":[{"name":"usr","type":"address","internalType":"address"}],"outputs":[],"stateMutability":"nonpayable"},{"type":"function","name":"file","inputs":[{"name":"what","type":"bytes32","internalType":"bytes32"},{"name":"data","type":"uint256","internalType":"uint256"}],"outputs":[],"stateMutability":"nonpayable"},{"type":"function","name":"gem","inputs":[],"outputs":[{"name":"","type":"address","internalType":"contract GemLike"}],"stateMutability":"view"},{"type":"function","name":"kick","inputs":[{"name":"lot","type":"uint256","internalType":"uint256"},{"name":"bid","type":"uint256","internalType":"uint256"}],"outputs":[{"name":"id","type":"uint256","internalType":"uint256"}],"stateMutability":"nonpayable"},{"type":"function","name":"kicks","inputs":[],"outputs":[{"name":"","type":"uint256","internalType":"uint256"}],"stateMutability":"view"},{"type":"function","name":"live","inputs":[],"outputs":[{"name":"","type":"uint256","internalType":"uint256"}],"stateMutability":"view"},{"type":"function","name":"rely","inputs":[{"name":"usr","type":"address","internalType":"address"}],"outputs":[],"stateMutability":"nonpayable"},{"type":"function","name":"tau","inputs":[],"outputs":[{"name":"","type":"uint48","internalType":"uint48"}],"stateMutability":"view"},{"type":"function","name":"tend","inputs":[{"name":"id","type":"uint256","internalType":"uint256"},{"name":"lot","type":"uint256","internalType":"uint256"},{"name":"bid","type":"uint256","internalType":"uint256"}],"outputs":[],"stateMutability":"nonpayable"},{"type":"function","name":"tick","inputs":[{"name":"id","type":"uint256","internalType":"uint256"}],"outputs":[],"stateMutability":"nonpayable"},{"type":"function","name":"ttl","inputs":[],"outputs":[{"name":"","type":"uint48","internalType":"uint48"}],"stateMutability":"view"},{"type":"function","name":"vat","inputs":[],"outputs":[{"name":"","type":"address","internalType":"contract VatLike"}],"stateMutability":"view"},{"type":"function","name":"wards","inputs":[{"name":"","type":"address","internalType":"address"}],"outputs":[{"name":"","type":"uint256","internalType":"uint256"}],"stateMutability":"view"},{"type":"function","name":"yank","inputs":[{"name":"id","type":"uint256","internalType":"uint256"}],"outputs":[],"stateMutability":"nonpayable"},{"type":"event","name":"Kick","inputs":[{"name":"id","type":"uint256","indexed":false,"internalType":"uint256"},{"name":"lot","type":"uint256","indexed":false,"internalType":"uint256"},{"name":"bid","type":"uint256","indexed":false,"internalType":"uint256"}],"anonymous":false}],"bytecode":{"object":"0x6080604052670e92596fd6290000600455600580546001600160601b0319166802a300000000002a301790555f60065534801561003a575f5ffd5b5060405161117e38038061117e833981016040819052610059916100c0565b335f908152602081905260409020600190819055600280546001600160a01b039485166001600160a01b03199182161790915560038054939094169216919091179091556007556100f1565b80516001600160a01b03811681146100bb575f5ffd5b919050565b5f5f604083850312156100d1575f5ffd5b6100da836100a5565b91506100e8602084016100a5565b90509250929050565b611080806100fe5f395ff3fe608060405234801561000f575f5ffd5b50600436106100e4575f3560e01c806326e027f1146100e857806329ae8114146100fd57806336569e77146101105780634423c5f1146101405780634b43ed12146101cf5780634e8b1dd5146101e257806365fae35e1461020b5780637bd2bea71461021e5780637d780d8214610231578063957aa58c146102485780639c52a7f114610251578063a2f91af214610264578063bf353dbb14610277578063c959c42b14610296578063ca40c419146102a9578063cfc4af55146102bc578063cfdd3302146102d5578063fc7b6aee146102de575b5f5ffd5b6100fb6100f6366004610eb1565b6102f1565b005b6100fb61010b366004610ec8565b610404565b600254610123906001600160a01b031681565b6040516001600160a01b0390911681526020015b60405180910390f35b61019161014e366004610eb1565b600160208190525f91825260409091208054918101546002909101546001600160a01b0381169065ffffffffffff600160a01b8204811691600160d01b90041685565b6040805195865260208601949094526001600160a01b039092169284019290925265ffffffffffff918216606084015216608082015260a001610137565b6100fb6101dd366004610ee8565b6104ea565b6005546101f49065ffffffffffff1681565b60405165ffffffffffff9091168152602001610137565b6100fb610219366004610f11565b610906565b600354610123906001600160a01b031681565b61023a60045481565b604051908152602001610137565b61023a60075481565b6100fb61025f366004610f11565b610950565b6100fb610272366004610eb1565b610997565b61023a610285366004610f11565b5f6020819052908152604090205481565b6100fb6102a4366004610eb1565b610a2d565b61023a6102b7366004610ec8565b610ba2565b6005546101f490600160301b900465ffffffffffff1681565b61023a60065481565b6100fb6102ec366004610eb1565b610d6c565b6007541561033b5760405162461bcd60e51b8152602060048201526012602482015271466c61707065722f7374696c6c2d6c69766560701b60448201526064015b60405180910390fd5b5f818152600160205260409020600201546001600160a01b03166103715760405162461bcd60e51b815260040161033290610f3e565b6003545f828152600160205260409081902060028101549054915163bb35783b60e01b81526001600160a01b039384169363bb35783b936103b9933093921691600401610f6b565b5f604051808303815f87803b1580156103d0575f5ffd5b505af11580156103e2573d5f5f3e3d5ffd5b5050505f91825250600160208190526040822082815590810182905560020155565b335f908152602081905260409020546001146104325760405162461bcd60e51b815260040161033290610f8f565b816262656760e81b036104455760045550565b81621d1d1b60ea1b0361046f576005805465ffffffffffff191665ffffffffffff83161790555050565b816274617560e81b036104a2576005805465ffffffffffff60301b1916600160301b65ffffffffffff8416021790555050565b60405162461bcd60e51b815260206004820152601f60248201527f466c61707065722f66696c652d756e7265636f676e697a65642d706172616d006044820152606401610332565b60075460011461050c5760405162461bcd60e51b815260040161033290610fbf565b5f838152600160205260409020600201546001600160a01b03166105425760405162461bcd60e51b815260040161033290610f3e565b5f8381526001602052604090206002015442600160a01b90910465ffffffffffff16118061058d57505f83815260016020526040902060020154600160a01b900465ffffffffffff16155b6105d85760405162461bcd60e51b815260206004820152601c60248201527b466c61707065722f616c72656164792d66696e69736865642d74696360201b6044820152606401610332565b5f8381526001602052604090206002015442600160d01b90910465ffffffffffff16116106465760405162461bcd60e51b815260206004820152601c60248201527b119b185c1c195c8bd85b1c9958591e4b599a5b9a5cda19590b595b9960221b6044820152606401610332565b5f838152600160208190526040909120015482146106a15760405162461bcd60e51b8152602060048201526018602482015277466c61707065722f6c6f742d6e6f742d6d61746368696e6760401b6044820152606401610332565b5f8381526001602052604090205481116106f65760405162461bcd60e51b8152602060048201526016602482015275233630b83832b917b134b216b737ba16b434b3b432b960511b6044820152606401610332565b6004545f848152600160205260409020546107119190610e69565b61072382670de0b6b3a7640000610e69565b10156107715760405162461bcd60e51b815260206004820152601d60248201527f466c61707065722f696e73756666696369656e742d696e6372656173650000006044820152606401610332565b5f838152600160205260409020600201546001600160a01b03163314610827576003545f848152600160205260409081902060028101549054915163bb35783b60e01b81526001600160a01b039384169363bb35783b936107d9933393921691600401610f6b565b5f604051808303815f87803b1580156107f0575f5ffd5b505af1158015610802573d5f5f3e3d5ffd5b5050505f84815260016020526040902060020180546001600160a01b03191633179055505b6003545f848152600160205260409020546001600160a01b039091169063bb35783b90339030906108589086610fe9565b6040518463ffffffff1660e01b815260040161087693929190610f6b565b5f604051808303815f87803b15801561088d575f5ffd5b505af115801561089f573d5f5f3e3d5ffd5b5050505f848152600160205260409020829055506005546108c990429065ffffffffffff16610e97565b5f93845260016020526040909320600201805465ffffffffffff94909416600160a01b0265ffffffffffff60a01b19909416939093179092555050565b335f908152602081905260409020546001146109345760405162461bcd60e51b815260040161033290610f8f565b6001600160a01b03165f90815260208190526040902060019055565b335f9081526020819052604090205460011461097e5760405162461bcd60e51b815260040161033290610f8f565b6001600160a01b03165f90815260208190526040812055565b335f908152602081905260409020546001146109c55760405162461bcd60e51b815260040161033290610f8f565b5f60075560025460405163bb35783b60e01b81526001600160a01b039091169063bb35783b906109fd90309033908690600401610f6b565b5f604051808303815f87803b158015610a14575f5ffd5b505af1158015610a26573d5f5f3e3d5ffd5b5050505050565b600754600114610a4f5760405162461bcd60e51b815260040161033290610fbf565b5f81815260016020526040902060020154600160a01b900465ffffffffffff1615801590610ac557505f8181526001602052604090206002015442600160a01b90910465ffffffffffff161080610ac557505f8181526001602052604090206002015442600160d01b90910465ffffffffffff16105b610ae15760405162461bcd60e51b815260040161033290611008565b600280545f8381526001602081905260409182902093840154930154905163bb35783b60e01b81526001600160a01b039283169363bb35783b93610b2e9330939290911691600401610f6b565b5f604051808303815f87803b158015610b45575f5ffd5b505af1158015610b57573d5f5f3e3d5ffd5b50506003545f8481526001602052604090819020549051632770a7eb60e21b815230600482015260248101919091526001600160a01b039091169250639dc29fac91506044016103b9565b335f90815260208190526040812054600114610bd05760405162461bcd60e51b815260040161033290610f8f565b600754600114610bf25760405162461bcd60e51b815260040161033290610fbf565b5f1960065410610c375760405162461bcd60e51b815260206004820152601060248201526f466c61707065722f6f766572666c6f7760801b6044820152606401610332565b50600680546001908101918290555f82815260208290526040902083815590810184905560020180546001600160a01b03191633179055600554610c8c90429065ffffffffffff600160301b90910416610e97565b5f82815260016020526040908190206002908101805465ffffffffffff94909416600160d01b026001600160d01b03909416939093179092559054905163bb35783b60e01b81526001600160a01b039091169063bb35783b90610cf790339030908890600401610f6b565b5f604051808303815f87803b158015610d0e575f5ffd5b505af1158015610d20573d5f5f3e3d5ffd5b505060408051848152602081018790529081018590527fe6dde59cbc017becba89714a037778d234a84ce7f0a137487142a007e580d6099250606001905060405180910390a192915050565b5f8181526001602052604090206002015442600160d01b90910465ffffffffffff1610610dab5760405162461bcd60e51b815260040161033290611008565b5f81815260016020526040902060020154600160a01b900465ffffffffffff1615610e155760405162461bcd60e51b815260206004820152601a602482015279119b185c1c195c8bd89a590b585b1c9958591e4b5c1b1858d95960321b6044820152606401610332565b600554610e32904290600160301b900465ffffffffffff16610e97565b5f91825260016020526040909120600201805465ffffffffffff92909216600160d01b026001600160d01b03909216919091179055565b5f811580610e8957505080820282828281610e8657610e86611036565b04145b610e91575f5ffd5b92915050565b80820165ffffffffffff8084169082161015610e91575f5ffd5b5f60208284031215610ec1575f5ffd5b5035919050565b5f5f60408385031215610ed9575f5ffd5b50508035926020909101359150565b5f5f5f60608486031215610efa575f5ffd5b505081359360208301359350604090920135919050565b5f60208284031215610f21575f5ffd5b81356001600160a01b0381168114610f37575f5ffd5b9392505050565b602080825260139082015272119b185c1c195c8bd9dd5e4b5b9bdd0b5cd95d606a1b604082015260600190565b6001600160a01b039384168152919092166020820152604081019190915260600190565b602080825260169082015275119b185c1c195c8bdb9bdd0b585d5d1a1bdc9a5e995960521b604082015260600190565b60208082526010908201526f466c61707065722f6e6f742d6c69766560801b604082015260600190565b81810381811115610e9157634e487b7160e01b5f52601160045260245ffd5b602080825260149082015273119b185c1c195c8bdb9bdd0b599a5b9a5cda195960621b604082015260600190565b634e487b7160e01b5f52601260045260245ffdfea2646970667358221220983ddd1c7418cf8320b734b9353c061f36afeed950704781fb458f879753c4e064736f6c634300081e0033","linkReferences":{}},"methodIdentifiers":{"beg()":"7d780d82","bids(uint256)":"4423c5f1","cage(uint256)":"a2f91af2","deal(uint256)":"c959c42b","deny(address)":"9c52a7f1","file(bytes32,uint256)":"29ae8114","gem()":"7bd2bea7","kick(uint256,uint256)":"ca40c419","kicks()":"cfdd3302","live()":"957aa58c","rely(address)":"65fae35e","tau()":"cfc4af55","tend(uint256,uint256,uint256)":"4b43ed12","tick(uint256)":"fc7b6aee","ttl()":"4e8b1dd5","vat()":"36569e77","wards(address)":"bf353dbb","yank(uint256)":"26e027f1"},"id":687}