{"abi":[{"type":"function","name":"areValid_IFacet_facetName","inputs":[{"name":"subject","type":"IFacet","internalType":"contract IFacet"},{"name":"expected","type":"string","internalType":"string"},{"name":"actual","type":"string","internalType":"string"}],"outputs":[{"name":"valid","type":"bool","internalType":"bool"}],"stateMutability":"view"},{"type":"function","name":"areValid_IFacet_facetName","inputs":[{"name":"subjectName","type":"string","internalType":"string"},{"name":"expected","type":"string","internalType":"string"},{"name":"actual","type":"string","internalType":"string"}],"outputs":[{"name":"valid","type":"bool","internalType":"bool"}],"stateMutability":"pure"},{"type":"function","name":"errSuffix_IFacet_facetFuncs","inputs":[],"outputs":[{"name":"","type":"string","internalType":"string"}],"stateMutability":"pure"},{"type":"function","name":"errSuffix_IFacet_facetInterfaces","inputs":[],"outputs":[{"name":"","type":"string","internalType":"string"}],"stateMutability":"pure"},{"type":"function","name":"errSuffix_IFacet_facetName","inputs":[],"outputs":[{"name":"","type":"string","internalType":"string"}],"stateMutability":"pure"},{"type":"function","name":"funcSig_IFacet_facetFuncs","inputs":[],"outputs":[{"name":"","type":"string","internalType":"string"}],"stateMutability":"pure"},{"type":"function","name":"funcSig_IFacet_facetInterfaces","inputs":[],"outputs":[{"name":"","type":"string","internalType":"string"}],"stateMutability":"pure"},{"type":"function","name":"funcSig_IFacet_facetMetadata","inputs":[],"outputs":[{"name":"","type":"string","internalType":"string"}],"stateMutability":"pure"},{"type":"function","name":"funcSig_IFacet_facetName","inputs":[],"outputs":[{"name":"","type":"string","internalType":"string"}],"stateMutability":"pure"},{"type":"function","name":"hasValid_IFacet_facetName","inputs":[{"name":"subject","type":"IFacet","internalType":"contract IFacet"}],"outputs":[{"name":"isValid_","type":"bool","internalType":"bool"}],"stateMutability":"view"},{"type":"error","name":"IndexOutOfBounds","inputs":[{"name":"length","type":"uint256","internalType":"uint256"},{"name":"invalidIndex","type":"uint256","internalType":"uint256"},{"name":"errorCode","type":"uint256","internalType":"uint256"}]}],"bytecode":{"object":"0x613b34610034600b8282823980515f1a607314602857634e487b7160e01b5f525f60045260245ffd5b305f52607381538281f3fe7300000000000000000000000000000000000000003014608060405260043610610110575f3560e01c806316cdd93b146101145780631a64b2e214610132578063284690d8146101555780633062de70146101745780633c6280cb146101935780635513295f1461019b5780635a4b7449146101ae578063613e702b146101d9578063681276d3146101e157806377e49f4d1461020057806388092b6b1461021f5780638e17caae14610227578063ad93070c14610246578063b26d3d7d14610267578063b6ed952614610286578063cb4d2d80146102a5578063cf2c056c146102c4578063d9f9e9fb146102e3578063de0ccce0146102eb578063de558b861461030a578063f020978014610312575b5f5ffd5b61011c610325565b60405161012991906125c2565b60405180910390f35b6101456101403660046125ef565b61034a565b6040519015158152602001610129565b818015610160575f5ffd5b5061014561016f3660046126f6565b610509565b81801561017f575f5ffd5b5061014561018e3660046125ef565b610596565b61011c610a88565b6101456101a93660046127db565b610aae565b60408051808201909152600f81526e66616365744d65746164617461282960881b602082015261011c565b61011c610b33565b8180156101ec575f5ffd5b506101456101fb366004612843565b610b5f565b81801561020b575f5ffd5b5061014561021a3660046125ef565b610ccc565b61011c610edc565b818015610232575f5ffd5b506101456102413660046125ef565b610f07565b818015610251575f5ffd5b50610265610260366004612891565b611111565b005b818015610272575f5ffd5b506101456102813660046126f6565b611270565b818015610291575f5ffd5b506101456102a0366004612843565b6112f1565b8180156102b0575f5ffd5b506102656102bf3660046128db565b611420565b8180156102cf575f5ffd5b506102656102de366004612891565b611546565b61011c611675565b8180156102f6575f5ffd5b5061026561030536600461291b565b61169c565b61011c611886565b6101456103203660046129b7565b6118aa565b60408051808201909152600b81526a66616365744e616d65282960a81b602082015290565b5f73__$6733481873bfefcce6891d74f60ba0cf99$__637965c50161036d6119de565b6040518263ffffffff1660e01b81526004016103899190612a31565b5f6040518083038186803b15801561039f575f5ffd5b505af41580156103b1573d5f5f3e3d5ffd5b5050505061042c826103ca84635b6f4d0160e01b611a07565b846001600160a01b0316635b6f4d016040518163ffffffff1660e01b81526004015f60405180830381865afa158015610405573d5f5f3e3d5ffd5b505050506040513d5f823e601f3d908101601f191682016040526101a99190810190612aa1565b905073__$6733481873bfefcce6891d74f60ba0cf99$__6355444d406104506119de565b836040518363ffffffff1660e01b815260040161046e929190612aef565b5f6040518083038186803b158015610484575f5ffd5b505af4158015610496573d5f5f3e3d5ffd5b5050505073__$6733481873bfefcce6891d74f60ba0cf99$__63738d4cc96104bc6119de565b6040518263ffffffff1660e01b81526004016104d89190612a31565b5f6040518083038186803b1580156104ee575f5ffd5b505af4158015610500573d5f5f3e3d5ffd5b50505050919050565b60405163028a249b60e41b81525f9061058e90737109709ecfa91a80626ff3989d68f67f5b1dd12d906328a249b090610546908890600401612b37565b5f60405180830381865afa158015610560573d5f5f3e3d5ffd5b505050506040513d5f823e601f3d908101601f191682016040526105879190810190612aa1565b8484610b5f565b949350505050565b5f73__$6733481873bfefcce6891d74f60ba0cf99$__637965c5016105b96119de565b6040518263ffffffff1660e01b81526004016105d59190612b8c565b5f6040518083038186803b1580156105eb575f5ffd5b505af41580156105fd573d5f5f3e3d5ffd5b505050505f5f5f846001600160a01b031663f10d7a756040518163ffffffff1660e01b81526004015f60405180830381865afa15801561063f573d5f5f3e3d5ffd5b505050506040513d5f823e601f3d908101601f191682016040526106669190810190612c13565b9250925092505f856001600160a01b0316635b6f4d016040518163ffffffff1660e01b81526004015f60405180830381865afa1580156106a8573d5f5f3e3d5ffd5b505050506040513d5f823e601f3d908101601f191682016040526106cf9190810190612aa1565b90505f866001600160a01b0316632ea808266040518163ffffffff1660e01b81526004015f60405180830381865afa15801561070d573d5f5f3e3d5ffd5b505050506040513d5f823e601f3d908101601f191682016040526107349190810190612c98565b90505f876001600160a01b031663574a4cff6040518163ffffffff1660e01b81526004015f60405180830381865afa158015610772573d5f5f3e3d5ffd5b505050506040513d5f823e601f3d908101601f191682016040526107999190810190612c98565b60405163028a249b60e41b81529091505f9061082190737109709ecfa91a80626ff3989d68f67f5b1dd12d906328a249b0906107d9908d90600401612b37565b5f60405180830381865afa1580156107f3573d5f5f3e3d5ffd5b505050506040513d5f823e601f3d908101601f1916820160405261081a9190810190612aa1565b85896118aa565b9050806108935773__$6733481873bfefcce6891d74f60ba0cf99$__63967677df61084a6119de565b6040518263ffffffff1660e01b81526004016108669190612cc9565b5f6040518083038186803b15801561087c575f5ffd5b505af415801561088e573d5f5f3e3d5ffd5b505050505b5f61089f8a8589610509565b9050806109115773__$6733481873bfefcce6891d74f60ba0cf99$__63967677df6108c86119de565b6040518263ffffffff1660e01b81526004016108e49190612d5f565b5f6040518083038186803b1580156108fa575f5ffd5b505af415801561090c573d5f5f3e3d5ffd5b505050505b5f61091d8b8589611270565b90508061098f5773__$6733481873bfefcce6891d74f60ba0cf99$__63967677df6109466119de565b6040518263ffffffff1660e01b81526004016109629190612e01565b5f6040518083038186803b158015610978575f5ffd5b505af415801561098a573d5f5f3e3d5ffd5b505050505b8280156109995750815b80156109a25750805b995073__$6733481873bfefcce6891d74f60ba0cf99$__6355444d406109c66119de565b8c6040518363ffffffff1660e01b81526004016109e4929190612e9d565b5f6040518083038186803b1580156109fa575f5ffd5b505af4158015610a0c573d5f5f3e3d5ffd5b5050505073__$6733481873bfefcce6891d74f60ba0cf99$__63738d4cc9610a326119de565b6040518263ffffffff1660e01b8152600401610a4e9190612b8c565b5f6040518083038186803b158015610a64575f5ffd5b505af4158015610a76573d5f5f3e3d5ffd5b50505050505050505050505050919050565b60408051808201909152600c81526b666163657446756e6373282960a01b602082015290565b60405163028a249b60e41b81525f9061058e90737109709ecfa91a80626ff3989d68f67f5b1dd12d906328a249b090610aeb908890600401612b37565b5f60405180830381865afa158015610b05573d5f5f3e3d5ffd5b505050506040513d5f823e601f3d908101601f19168201604052610b2c9190810190612aa1565b84846118aa565b60408051808201909152601281527166756e6374696f6e2073656c6563746f727360701b602082015290565b5f73__$6733481873bfefcce6891d74f60ba0cf99$__637965c501610b826119de565b6040518263ffffffff1660e01b8152600401610b9e9190612f31565b5f6040518083038186803b158015610bb4575f5ffd5b505af4158015610bc6573d5f5f3e3d5ffd5b50505050610bed8383610be0610bda610edc565b88611abb565b610be8611675565b611aef565b905073__$6733481873bfefcce6891d74f60ba0cf99$__6355444d40610c116119de565b836040518363ffffffff1660e01b8152600401610c2f929190612f54565b5f6040518083038186803b158015610c45575f5ffd5b505af4158015610c57573d5f5f3e3d5ffd5b5050505073__$6733481873bfefcce6891d74f60ba0cf99$__63738d4cc9610c7d6119de565b6040518263ffffffff1660e01b8152600401610c999190612f31565b5f6040518083038186803b158015610caf575f5ffd5b505af4158015610cc1573d5f5f3e3d5ffd5b505050509392505050565b5f73__$6733481873bfefcce6891d74f60ba0cf99$__637965c501610cef6119de565b6040518263ffffffff1660e01b8152600401610d0b9190612fde565b5f6040518083038186803b158015610d21575f5ffd5b505af4158015610d33573d5f5f3e3d5ffd5b50505050610e3082610d55610d4f8563574a4cff60e01b611bf9565b60010190565b805480602002602001604051908101604052809291908181526020018280548015610dc957602002820191905f5260205f20905f905b82829054906101000a900460e01b6001600160e01b03191681526020019060040190602082600301049283019260010382029150808411610d8b5790505b5050505050846001600160a01b031663574a4cff6040518163ffffffff1660e01b81526004015f60405180830381865afa158015610e09573d5f5f3e3d5ffd5b505050506040513d5f823e601f3d908101601f191682016040526102819190810190612c98565b905073__$6733481873bfefcce6891d74f60ba0cf99$__6355444d40610e546119de565b836040518363ffffffff1660e01b8152600401610e72929190613001565b5f6040518083038186803b158015610e88575f5ffd5b505af4158015610e9a573d5f5f3e3d5ffd5b5050505073__$6733481873bfefcce6891d74f60ba0cf99$__63738d4cc9610ec06119de565b6040518263ffffffff1660e01b81526004016104d89190612fde565b6040805180820190915260118152706661636574496e7465726661636573282960781b602082015290565b5f73__$6733481873bfefcce6891d74f60ba0cf99$__637965c501610f2a6119de565b6040518263ffffffff1660e01b8152600401610f469190613097565b5f6040518083038186803b158015610f5c575f5ffd5b505af4158015610f6e573d5f5f3e3d5ffd5b5050505061106582610f8a610d4f85632ea8082660e01b611bf9565b805480602002602001604051908101604052809291908181526020018280548015610ffe57602002820191905f5260205f20905f905b82829054906101000a900460e01b6001600160e01b03191681526020019060040190602082600301049283019260010382029150808411610fc05790505b5050505050846001600160a01b0316632ea808266040518163ffffffff1660e01b81526004015f60405180830381865afa15801561103e573d5f5f3e3d5ffd5b505050506040513d5f823e601f3d908101601f1916820160405261016f9190810190612c98565b905073__$6733481873bfefcce6891d74f60ba0cf99$__6355444d406110896119de565b836040518363ffffffff1660e01b81526004016110a79291906130ba565b5f6040518083038186803b1580156110bd575f5ffd5b505af41580156110cf573d5f5f3e3d5ffd5b5050505073__$6733481873bfefcce6891d74f60ba0cf99$__63738d4cc96110f56119de565b6040518263ffffffff1660e01b81526004016104d89190613097565b73__$6733481873bfefcce6891d74f60ba0cf99$__637965c5016111336119de565b6040518263ffffffff1660e01b815260040161114f9190613151565b5f6040518083038186803b158015611165575f5ffd5b505af4158015611177573d5f5f3e3d5ffd5b5050505061118d82632ea8082660e01b83611c45565b73__$6733481873bfefcce6891d74f60ba0cf99$__63ce9f60696111af6119de565b6111b98451611c92565b6040518363ffffffff1660e01b81526004016111d6929190613174565b5f6040518083038186803b1580156111ec575f5ffd5b505af41580156111fe573d5f5f3e3d5ffd5b5050505073__$6733481873bfefcce6891d74f60ba0cf99$__63738d4cc96112246119de565b6040518263ffffffff1660e01b81526004016112409190613151565b5f6040518083038186803b158015611256575f5ffd5b505af4158015611268573d5f5f3e3d5ffd5b505050505050565b60405163028a249b60e41b81525f9061058e90737109709ecfa91a80626ff3989d68f67f5b1dd12d906328a249b0906112ad908890600401612b37565b5f60405180830381865afa1580156112c7573d5f5f3e3d5ffd5b505050506040513d5f823e601f3d908101601f191682016040526112ee9190810190612aa1565b84845b5f73__$6733481873bfefcce6891d74f60ba0cf99$__637965c5016113146119de565b6040518263ffffffff1660e01b81526004016113309190613202565b5f6040518083038186803b158015611346575f5ffd5b505af4158015611358573d5f5f3e3d5ffd5b50505050611374838361136c610bda610a88565b610be8610b33565b905073__$6733481873bfefcce6891d74f60ba0cf99$__6355444d406113986119de565b836040518363ffffffff1660e01b81526004016113b6929190613225565b5f6040518083038186803b1580156113cc575f5ffd5b505af41580156113de573d5f5f3e3d5ffd5b5050505073__$6733481873bfefcce6891d74f60ba0cf99$__63738d4cc96114046119de565b6040518263ffffffff1660e01b8152600401610c999190613202565b73__$6733481873bfefcce6891d74f60ba0cf99$__637965c5016114426119de565b6040518263ffffffff1660e01b815260040161145e91906132b1565b5f6040518083038186803b158015611474575f5ffd5b505af4158015611486573d5f5f3e3d5ffd5b5050505061149c82635b6f4d0160e01b83611d8e565b73__$6733481873bfefcce6891d74f60ba0cf99$__63ce9f60696114be6119de565b836040518363ffffffff1660e01b81526004016114dc9291906132d4565b5f6040518083038186803b1580156114f2575f5ffd5b505af4158015611504573d5f5f3e3d5ffd5b5050505073__$6733481873bfefcce6891d74f60ba0cf99$__63738d4cc961152a6119de565b6040518263ffffffff1660e01b815260040161124091906132b1565b73__$6733481873bfefcce6891d74f60ba0cf99$__637965c5016115686119de565b6040518263ffffffff1660e01b81526004016115849190613349565b5f6040518083038186803b15801561159a575f5ffd5b505af41580156115ac573d5f5f3e3d5ffd5b505050506115c28263574a4cff60e01b83611c45565b73__$6733481873bfefcce6891d74f60ba0cf99$__63ce9f60696115e46119de565b6115ee8451611c92565b6040518363ffffffff1660e01b815260040161160b92919061336c565b5f6040518083038186803b158015611621575f5ffd5b505af4158015611633573d5f5f3e3d5ffd5b5050505073__$6733481873bfefcce6891d74f60ba0cf99$__63738d4cc96116596119de565b6040518263ffffffff1660e01b81526004016112409190613349565b60408051808201909152600d81526c696e746572666163652049447360981b602082015290565b73__$6733481873bfefcce6891d74f60ba0cf99$__637965c5016116be6119de565b6040518263ffffffff1660e01b81526004016116da91906133ec565b5f6040518083038186803b1580156116f0575f5ffd5b505af4158015611702573d5f5f3e3d5ffd5b5050505061171884635b6f4d0160e01b85611d8e565b73__$6733481873bfefcce6891d74f60ba0cf99$__63ce9f606961173a6119de565b6117448551611c92565b6040518363ffffffff1660e01b815260040161176192919061340f565b5f6040518083038186803b158015611777575f5ffd5b505af4158015611789573d5f5f3e3d5ffd5b505050506117978483611111565b73__$6733481873bfefcce6891d74f60ba0cf99$__63ce9f60696117b96119de565b6117c38451611c92565b6040518363ffffffff1660e01b81526004016117e092919061346b565b5f6040518083038186803b1580156117f6575f5ffd5b505af4158015611808573d5f5f3e3d5ffd5b505050506118168482611546565b73__$6733481873bfefcce6891d74f60ba0cf99$__63738d4cc96118386119de565b6040518263ffffffff1660e01b815260040161185491906133ec565b5f6040518083038186803b15801561186a575f5ffd5b505af415801561187c573d5f5f3e3d5ffd5b5050505050505050565b60408051808201909152600a8152696661636574206e616d6560b01b602082015290565b5f73__$6733481873bfefcce6891d74f60ba0cf99$__637965c5016118cd6119de565b6040518263ffffffff1660e01b81526004016118e991906134f2565b5f6040518083038186803b1580156118ff575f5ffd5b505af4158015611911573d5f5f3e3d5ffd5b505050506119328383611925610bda610325565b61192d611886565b611dc2565b905073__$6733481873bfefcce6891d74f60ba0cf99$__6355444d406119566119de565b836040518363ffffffff1660e01b8152600401611974929190613515565b5f6040518083038186803b15801561198a575f5ffd5b505af415801561199c573d5f5f3e3d5ffd5b5050505073__$6733481873bfefcce6891d74f60ba0cf99$__63738d4cc96119c26119de565b6040518263ffffffff1660e01b8152600401610c9991906134f2565b60408051808201909152600f81526e10995a185d9a5bdc97d2519858d95d608a1b602082015290565b6060611a1283611e47565b6001600160e01b031983165f908152602091909152604090208054611a3690613538565b80601f0160208091040260200160405190810160405280929190818152602001828054611a6290613538565b8015611aad5780601f10611a8457610100808354040283529160200191611aad565b820191905f5260205f20905b815481529060010190602001808311611a9057829003601f168201915b505050505090505b92915050565b6060611ac683611eb4565b82604051602001611ad8929190613587565b604051602081830303815290604052905092915050565b604051635777d9bd60e01b81525f9073__$6733481873bfefcce6891d74f60ba0cf99$__90635777d9bd90611b289088906004016135df565b5f6040518083038186803b158015611b3e575f5ffd5b505af4158015611b50573d5f5f3e3d5ffd5b5050604051635777d9bd60e01b815273__$6733481873bfefcce6891d74f60ba0cf99$__9250635777d9bd9150611b8b908790600401613618565b5f6040518083038186803b158015611ba1575f5ffd5b505af4158015611bb3573d5f5f3e3d5ffd5b505050505f611bef6040518060600160405280888152602001878152602001604051806040016040528088815260200187815250815250611ec7565b9695505050505050565b5f611c14611c0f846001600160a01b0316611efa565b611f06565b6001600160a01b0384165f908152602091825260408082206001600160e01b03198616835290925220905092915050565b611c8d81611c5e611c0f866001600160a01b0316611efa565b6001600160a01b0386165f908152602091825260408082206001600160e01b0319881683529092522090611f65565b505050565b6060815f03611cb85750506040805180820190915260018152600360fc1b602082015290565b815f5b8115611ce15780611ccb81613663565b9150611cda9050600a8361368f565b9150611cbb565b5f816001600160401b03811115611cfa57611cfa612608565b6040519080825280601f01601f191660200182016040528015611d24576020820181803683370190505b5090505b841561058e57611d396001836136a2565b9150611d46600a866136b5565b611d519060306136c8565b60f81b818381518110611d6657611d666136db565b60200101906001600160f81b03191690815f1a905350611d87600a8661368f565b9450611d28565b80611d9884611e47565b6001600160e01b031984165f9081526020919091526040902090611dbc908261373a565b50505050565b5f83604051602001611dd491906137f4565b6040516020818303038152906040528051906020012085604051602001611dfb91906137f4565b604051602081830303815290604052805190602001201490508061058e5761058e83868685604051602001611e3394939291906137ff565b604051602081830303815290604052611f9b565b5f611ab560405180604001604052601481528060200173537472696e67436f6d70617261746f725265706f60601b815250604051602001611e8891906125c2565b60405160208183030381529060405280519060200120611eb0846001600160a01b0316611efa565b1890565b6060611ab5611ec16119de565b83611fa7565b5f5f611eda835f01518460200151611fbc565b9050611ef38360400151826121f590919063ffffffff16565b9392505050565b6001600160a01b031690565b5f611ab560405180604001604052601781528060200176427974657334536574436f6d70617261746f725265706f60481b815250604051602001611f4a91906125c2565b60405160208183030381529060405280519060200120831890565b5f5b8151811015611c8d57611f9383838381518110611f8657611f866136db565b602002602001015161225b565b600101611f67565b611fa4816122c8565b50565b60608282604051602001611ad892919061386c565b611ff16040518060c001604052805f151581526020015f81526020015f81526020015f81526020015f81526020015f81525090565b5f61202083604051602001612006919061389f565b604051602081830303815290604052805160209091012090565b83516020840152905061203c846120368361230b565b90611f65565b61204f6120488261230b565b6001015490565b8451146120f457604051635777d9bd60e01b815273__$6733481873bfefcce6891d74f60ba0cf99$__90635777d9bd9061208d9087906004016138eb565b5f6040518083038186803b1580156120a3575f5ffd5b505af41580156120b5573d5f5f3e3d5ffd5b5050855191505f90506120ca6120488461230b565b9050808210156120dc578181036120e0565b8082035b60808501525050825160a083015250611ab5565b612101836120368361231e565b61210d6120488261231e565b604083015261211e6120488261230b565b60608301525f5b6121316120488361230b565b81101561217d5761215d61214e826121488561230b565b90612331565b6121578461231e565b90612381565b612175576080830180519061217182613663565b9052505b600101612125565b505f5b61218c6120488361231e565b8110156121cc576121ac6121a3826121488561231e565b6121578461230b565b6121c45760a083018051906121c082613663565b9052505b600101612180565b506121ee604051806060016040528060308152602001613acf60309139611f9b565b5092915050565b60408201516020830151600191101561221457505f612214838361239f565b826060015183604001511461222f57505f61222f83836123d7565b60808301511561224557505f61224583836123f2565b60a083015115611ab557505f611ab5838361241b565b6122658282612381565b6122c4576001828101805491820181555f81815260208082206008850401805463ffffffff60079096166004026101000a958602191660e087901c959095029490941790935590546001600160e01b0319841682529184905260409020555b5050565b611fa4816040516024016122dc91906125c2565b60408051601f198184030181529190526020810180516001600160e01b031663104c13eb60e21b179052612444565b5f61231582611f06565b60010192915050565b5f61232882611f06565b60030192915050565b60018201545f90612342908361244d565b50826001018281548110612358576123586136db565b905f5260205f2090600891828204019190066004029054906101000a900460e01b905092915050565b6001600160e01b0319165f9081526020919091526040902054151590565b6122c4815f01516123c2846040015185602001516123bd91906136a2565b611c92565b602080850151604051611e339493920161397b565b6122c482606001518360400151835f0151846020015161248c565b6122c4815f01516124068460800151611c92565b602080850151604051611e33949392016139d7565b6122c4815f015161242f8460a00151611c92565b602080850151604051611e3394939201613a26565b611fa48161250a565b5f81831161248357604051635400feb960e01b815260048101849052602481018390526032604482015260640160405180910390fd5b50600192915050565b611dbc8261249d6123bd8688612529565b8686116124d0576040518060400160405280600e81526020016d0102727aa102222a1a620a922a2160951b8152506124f6565b6040518060400160405280600c81526020016b0102aa722ac2822a1aa22a2160a51b8152505b84604051602001611e339493929190613a73565b5f6a636f6e736f6c652e6c6f6790505f5f835160208501845afa505050565b5f5f5f612536858561254e565b909250905061254582826136a2565b95945050505050565b5f5f82840361255b575f5ffd5b612565848461257f565b91508382146125745783612576565b825b90509250929050565b5f611ef383835f818311828418028318611ef3565b5f81518084528060208401602086015e5f602082860101526020601f19601f83011685010191505092915050565b602081525f611ef36020830184612594565b80356001600160a01b03811681146125ea575f5ffd5b919050565b5f602082840312156125ff575f5ffd5b611ef3826125d4565b634e487b7160e01b5f52604160045260245ffd5b604051601f8201601f191681016001600160401b038111828210171561264457612644612608565b604052919050565b5f6001600160401b0382111561266457612664612608565b5060051b60200190565b6001600160e01b031981168114611fa4575f5ffd5b5f82601f830112612692575f5ffd5b81356126a56126a08261264c565b61261c565b8082825260208201915060208360051b8601019250858311156126c6575f5ffd5b602085015b838110156126ec5780356126de8161266e565b8352602092830192016126cb565b5095945050505050565b5f5f5f60608486031215612708575f5ffd5b612711846125d4565b925060208401356001600160401b0381111561272b575f5ffd5b61273786828701612683565b92505060408401356001600160401b03811115612752575f5ffd5b61275e86828701612683565b9150509250925092565b5f6001600160401b0382111561278057612780612608565b50601f01601f191660200190565b5f82601f83011261279d575f5ffd5b81356127ab6126a082612768565b8181528460208386010111156127bf575f5ffd5b816020850160208301375f918101602001919091529392505050565b5f5f5f606084860312156127ed575f5ffd5b6127f6846125d4565b925060208401356001600160401b03811115612810575f5ffd5b61281c8682870161278e565b92505060408401356001600160401b03811115612837575f5ffd5b61275e8682870161278e565b5f5f5f60608486031215612855575f5ffd5b83356001600160401b0381111561286a575f5ffd5b6128768682870161278e565b93505060208401356001600160401b0381111561272b575f5ffd5b5f5f604083850312156128a2575f5ffd5b6128ab836125d4565b915060208301356001600160401b038111156128c5575f5ffd5b6128d185828601612683565b9150509250929050565b5f5f604083850312156128ec575f5ffd5b6128f5836125d4565b915060208301356001600160401b0381111561290f575f5ffd5b6128d18582860161278e565b5f5f5f5f6080858703121561292e575f5ffd5b612937856125d4565b935060208501356001600160401b03811115612951575f5ffd5b61295d8782880161278e565b93505060408501356001600160401b03811115612978575f5ffd5b61298487828801612683565b92505060608501356001600160401b0381111561299f575f5ffd5b6129ab87828801612683565b91505092959194509250565b5f5f5f606084860312156129c9575f5ffd5b83356001600160401b038111156129de575f5ffd5b6129ea8682870161278e565b93505060208401356001600160401b03811115612810575f5ffd5b601981527868617356616c69645f4946616365745f66616365744e616d6560381b602082015260400190565b604081525f612a436040830184612594565b828103602084015261058e81612a05565b5f82601f830112612a63575f5ffd5b8151612a716126a082612768565b818152846020838601011115612a85575f5ffd5b8160208501602083015e5f918101602001919091529392505050565b5f60208284031215612ab1575f5ffd5b81516001600160401b03811115612ac6575f5ffd5b61058e84828501612a54565b600a8152696661636574206e616d6560b01b602082015260400190565b608081525f612b016080830185612594565b8281036020840152612b1281612a05565b90508281036040840152612b2581612ad2565b91505082151560608301529392505050565b6001600160a01b0391909116815260200190565b602881527f697356616c69645f4946616365745f66616365744d657461646174615f636f6e60208201526773697374656e637960c01b604082015260600190565b604081525f612b9e6040830184612594565b828103602084015261058e81612b4b565b5f82601f830112612bbe575f5ffd5b8151612bcc6126a08261264c565b8082825260208201915060208360051b860101925085831115612bed575f5ffd5b602085015b838110156126ec578051612c058161266e565b835260209283019201612bf2565b5f5f5f60608486031215612c25575f5ffd5b83516001600160401b03811115612c3a575f5ffd5b612c4686828701612a54565b602086015190945090506001600160401b03811115612c63575f5ffd5b612c6f86828701612baf565b604086015190935090506001600160401b03811115612c8c575f5ffd5b61275e86828701612baf565b5f60208284031215612ca8575f5ffd5b81516001600160401b03811115612cbd575f5ffd5b61058e84828501612baf565b608081525f612cdb6080830184612594565b8281036020840152612cec81612b4b565b9050828103806040850152602382527f66616365744d6574616461746128292e6e616d6520646f6573206e6f74206d616020830152620e8c6d60eb1b604083015260608101606085015250600b60608201526a66616365744e616d65282960a81b608082015260a0810191505092915050565b608081525f612d716080830184612594565b8281036020840152612d8281612b4b565b9050828103806040850152602982527f66616365744d6574616461746128292e696e746572666163657320646f6573206020830152680dcdee840dac2e8c6d60bb1b60408301526060810160608501525060116060820152706661636574496e7465726661636573282960781b608082015260a0810191505092915050565b608081525f612e136080830184612594565b8281036020840152612e2481612b4b565b9050828103806040850152602882527f66616365744d6574616461746128292e66756e6374696f6e7320646f6573206e6020830152670dee840dac2e8c6d60c31b604083015260608101606085015250600c60608201526b666163657446756e6373282960a01b608082015260a0810191505092915050565b608081525f612eaf6080830185612594565b8281036020840152612ec081612b4b565b9050828103604084015260148152736d6574616461746120636f6e73697374656e637960601b60208201526040810191505082151560608301529392505050565b601f81527f61726556616c69645f4946616365745f6661636574496e746572666163657300602082015260400190565b604081525f612f436040830184612594565b828103602084015261058e81612f01565b608081525f612f666080830185612594565b8281036020840152612f7781612f01565b90508281036040840152600d81526c696e746572666163652049447360981b60208201526040810191505082151560608301529392505050565b601a81527968617356616c69645f4946616365745f666163657446756e637360301b602082015260400190565b604081525f612ff06040830184612594565b828103602084015261058e81612fb1565b608081525f6130136080830185612594565b828103602084015261302481612fb1565b905082810360408401526016815275333ab731ba34b7b71031b7b73334b3bab930ba34b7b760511b60208201526040810191505082151560608301529392505050565b601f81527f68617356616c69645f4946616365745f6661636574496e746572666163657300602082015260400190565b604081525f6130a96040830184612594565b828103602084015261058e81613067565b608081525f6130cc6080830185612594565b82810360208401526130dd81613067565b90508281036040840152601781527634b73a32b93330b1b29031b7b73334b3bab930ba34b7b760491b60208201526040810191505082151560608301529392505050565b601d81527f6578706563745f4946616365745f6661636574496e7465726661636573000000602082015260400190565b604081525f6131636040830184612594565b828103602084015261058e81613121565b608081525f6131866080830185612594565b828103602084015261319781613121565b9050828103806040850152600f82526e1a5b9d195c999858d94818dbdd5b9d608a1b6020830152604081016060850152506125456040820185612594565b601a81527961726556616c69645f4946616365745f666163657446756e637360301b602082015260400190565b604081525f6132146040830184612594565b828103602084015261058e816131d5565b608081525f6132376080830185612594565b8281036020840152613248816131d5565b90508281036040840152601281527166756e6374696f6e2073656c6563746f727360701b60208201526040810191505082151560608301529392505050565b60178152766578706563745f4946616365745f66616365744e616d6560481b602082015260400190565b604081525f6132c36040830184612594565b828103602084015261058e81613287565b608081525f6132e66080830185612594565b82810360208401526132f781613287565b9050828103604084015261330a81612ad2565b905082810360608401526125458185612594565b60188152776578706563745f4946616365745f666163657446756e637360401b602082015260400190565b604081525f61335b6040830184612594565b828103602084015261058e8161331e565b608081525f61337e6080830185612594565b828103602084015261338f8161331e565b9050828103806040850152600e82526d199d5b98dd1a5bdb8818dbdd5b9d60921b6020830152604081016060850152506125456040820185612594565b600d81526c195e1c1958dd17d2519858d95d609a1b602082015260400190565b604081525f6133fe6040830184612594565b828103602084015261058e816133cc565b608081525f6134216080830185612594565b8281036020840152613432816133cc565b9050828103806040850152600a825269696e746572666163657360b01b6020830152604081016060850152506125456040820185612594565b608081525f61347d6080830185612594565b828103602084015261348e816133cc565b9050828103806040850152600982526866756e6374696f6e7360b81b6020830152604081016060850152506125456040820185612594565b601981527861726556616c69645f4946616365745f66616365744e616d6560381b602082015260400190565b604081525f6135046040830184612594565b828103602084015261058e816134c6565b608081525f6135276080830185612594565b8281036020840152612b12816134c6565b600181811c9082168061354c57607f821691505b60208210810361356a57634e487b7160e01b5f52602260045260245ffd5b50919050565b5f81518060208401855e5f93019283525090919050565b5f61058e6135958386613570565b84613570565b5f8151808452602084019350602083015f5b828110156135d55781516001600160e01b0319168652602095860195909101906001016135ad565b5093949350505050565b60408152601060408201526f22bc3832b1ba32b2103b30b63ab2b99d60811b6060820152608060208201525f611ef3608083018461359b565b60408152600e60408201526d20b1ba3ab0b6103b30b63ab2b99d60911b6060820152608060208201525f611ef3608083018461359b565b634e487b7160e01b5f52601160045260245ffd5b5f600182016136745761367461364f565b5060010190565b634e487b7160e01b5f52601260045260245ffd5b5f8261369d5761369d61367b565b500490565b81810381811115611ab557611ab561364f565b5f826136c3576136c361367b565b500690565b80820180821115611ab557611ab561364f565b634e487b7160e01b5f52603260045260245ffd5b601f821115611c8d57805f5260205f20601f840160051c810160208510156137145750805b601f840160051c820191505b81811015613733575f8155600101613720565b5050505050565b81516001600160401b0381111561375357613753612608565b613767816137618454613538565b846136ef565b6020601f821160018114613799575f83156137825750848201515b5f19600385901b1c1916600184901b178455613733565b5f84815260208120601f198516915b828110156137c857878501518255602094850194600190920191016137a8565b50848210156137e557868401515f19600387901b60f8161c191681555b50505050600190811b01905550565b5f611ef38284613570565b5f61380a8287613570565b6c3a3a204578706563746564202760981b815261382a600d820187613570565b90506a272062757420676f74202760a81b815261384a600b820186613570565b905061013960f51b81526138616002820185613570565b979650505050505050565b5f6138778285613570565b601d60f91b815261388b6001820185613570565b611d1d60f11b815260020195945050505050565b602080825282518282018190525f918401906040840190835b818110156138e05783516001600160e01b0319168352602093840193909201916001016138b8565b509095945050505050565b60408152605b60408201527f427974657334536574206578706563746174696f6e73204d555354204e4f542060608201527f636f6e7461696e206475706c6963617465732e2050726f76696465206578706560808201527a31ba30ba34b7b7399030b9902324a929aa1030b933bab6b2b73a1760291b60a082015260c060208201525f611ef360c083018461359b565b5f6139868286613570565b690103232b1b630b932b9960b51b81526139a3600a820186613570565b90506a010323ab83634b1b0ba32960ad1b81526139c3600b820185613570565b601760f91b81526001019695505050505050565b5f6139e28286613570565b710103237b2b9902727aa103232b1b630b932960751b8152613a076012820186613570565b90506901032bc3832b1ba32b2160b51b81526139c3600a820185613570565b5f613a318286613570565b6d0102227a2a9903232b1b630b932960951b8152613a52600e820186613570565b90506b0102aa722ac2822a1aa22a2160a51b81526139c3600c820185613570565b5f613a7e8287613570565b750103232b1b630b930ba34b7b71036b4b9b6b0ba31b4160551b8152613ab9613ab3613aad6016840189613570565b87613570565b85613570565b601760f91b815260010197965050505050505056fe427974657334536574436f6d70617261746f723a5f636f6d706172653a3a2045786974696e672066756e6374696f6e2ea2646970667358221220238633041150f5d9843f854cae5be1276a01d5c01575e78ba489e68163c8c22f64736f6c634300081e0033","linkReferences":{"contracts/utils/vm/foundry/tools/betterconsole.sol":{"betterconsole":[{"start":897,"length":20},{"start":1124,"length":20},{"start":1232,"length":20},{"start":1485,"length":20},{"start":2142,"length":20},{"start":2268,"length":20},{"start":2394,"length":20},{"start":2522,"length":20},{"start":2630,"length":20},{"start":2966,"length":20},{"start":3109,"length":20},{"start":3217,"length":20},{"start":3331,"length":20},{"start":3688,"length":20},{"start":3796,"length":20},{"start":3902,"length":20},{"start":4253,"length":20},{"start":4361,"length":20},{"start":4423,"length":20},{"start":4547,"length":20},{"start":4664,"length":20},{"start":4904,"length":20},{"start":5036,"length":20},{"start":5144,"length":20},{"start":5206,"length":20},{"start":5330,"length":20},{"start":5438,"length":20},{"start":5500,"length":20},{"start":5624,"length":20},{"start":5741,"length":20},{"start":5842,"length":20},{"start":5966,"length":20},{"start":6093,"length":20},{"start":6220,"length":20},{"start":6369,"length":20},{"start":6506,"length":20},{"start":6614,"length":20},{"start":6964,"length":20},{"start":7061,"length":20},{"start":8345,"length":20}]}}},"methodIdentifiers":{"areValid_IFacet_facetFuncs(IFacet,bytes4[],bytes4[])":"b26d3d7d","areValid_IFacet_facetFuncs(string,bytes4[],bytes4[])":"b6ed9526","areValid_IFacet_facetInterfaces(IFacet,bytes4[],bytes4[])":"284690d8","areValid_IFacet_facetInterfaces(string,bytes4[],bytes4[])":"681276d3","areValid_IFacet_facetName(IFacet,string,string)":"5513295f","areValid_IFacet_facetName(string,string,string)":"f0209780","errSuffix_IFacet_facetFuncs()":"613e702b","errSuffix_IFacet_facetInterfaces()":"d9f9e9fb","errSuffix_IFacet_facetName()":"de558b86","expect_IFacet(IFacet,string,bytes4[],bytes4[])":"de0ccce0","expect_IFacet_facetFuncs(IFacet,bytes4[])":"cf2c056c","expect_IFacet_facetInterfaces(IFacet,bytes4[])":"ad93070c","expect_IFacet_facetName(IFacet,string)":"cb4d2d80","funcSig_IFacet_facetFuncs()":"3c6280cb","funcSig_IFacet_facetInterfaces()":"88092b6b","funcSig_IFacet_facetMetadata()":"5a4b7449","funcSig_IFacet_facetName()":"16cdd93b","hasValid_IFacet_facetFuncs(IFacet)":"77e49f4d","hasValid_IFacet_facetInterfaces(IFacet)":"8e17caae","hasValid_IFacet_facetName(IFacet)":"1a64b2e2","isValid_IFacet_facetMetadata_consistency(IFacet)":"3062de70"},"id":540}