{"abi":[{"type":"constructor","inputs":[{"name":"_forwarder","type":"address","internalType":"address"},{"name":"_ve","type":"address","internalType":"address"},{"name":"_factoryRegistry","type":"address","internalType":"address"}],"stateMutability":"nonpayable"},{"type":"function","name":"claimBribes","inputs":[{"name":"_bribes","type":"address[]","internalType":"address[]"},{"name":"_tokens","type":"address[][]","internalType":"address[][]"},{"name":"_tokenId","type":"uint256","internalType":"uint256"}],"outputs":[],"stateMutability":"nonpayable"},{"type":"function","name":"claimFees","inputs":[{"name":"_fees","type":"address[]","internalType":"address[]"},{"name":"_tokens","type":"address[][]","internalType":"address[][]"},{"name":"_tokenId","type":"uint256","internalType":"uint256"}],"outputs":[],"stateMutability":"nonpayable"},{"type":"function","name":"claimRewards","inputs":[{"name":"_gauges","type":"address[]","internalType":"address[]"}],"outputs":[],"stateMutability":"nonpayable"},{"type":"function","name":"claimable","inputs":[{"name":"","type":"address","internalType":"address"}],"outputs":[{"name":"","type":"uint256","internalType":"uint256"}],"stateMutability":"view"},{"type":"function","name":"createGauge","inputs":[{"name":"_poolFactory","type":"address","internalType":"address"},{"name":"_pool","type":"address","internalType":"address"}],"outputs":[{"name":"","type":"address","internalType":"address"}],"stateMutability":"nonpayable"},{"type":"function","name":"depositManaged","inputs":[{"name":"_tokenId","type":"uint256","internalType":"uint256"},{"name":"_mTokenId","type":"uint256","internalType":"uint256"}],"outputs":[],"stateMutability":"nonpayable"},{"type":"function","name":"distribute","inputs":[{"name":"_gauges","type":"address[]","internalType":"address[]"}],"outputs":[],"stateMutability":"nonpayable"},{"type":"function","name":"distribute","inputs":[{"name":"_start","type":"uint256","internalType":"uint256"},{"name":"_finish","type":"uint256","internalType":"uint256"}],"outputs":[],"stateMutability":"nonpayable"},{"type":"function","name":"emergencyCouncil","inputs":[],"outputs":[{"name":"","type":"address","internalType":"address"}],"stateMutability":"view"},{"type":"function","name":"epochGovernor","inputs":[],"outputs":[{"name":"","type":"address","internalType":"address"}],"stateMutability":"view"},{"type":"function","name":"epochNext","inputs":[{"name":"_timestamp","type":"uint256","internalType":"uint256"}],"outputs":[{"name":"","type":"uint256","internalType":"uint256"}],"stateMutability":"pure"},{"type":"function","name":"epochStart","inputs":[{"name":"_timestamp","type":"uint256","internalType":"uint256"}],"outputs":[{"name":"","type":"uint256","internalType":"uint256"}],"stateMutability":"pure"},{"type":"function","name":"epochVoteEnd","inputs":[{"name":"_timestamp","type":"uint256","internalType":"uint256"}],"outputs":[{"name":"","type":"uint256","internalType":"uint256"}],"stateMutability":"pure"},{"type":"function","name":"epochVoteStart","inputs":[{"name":"_timestamp","type":"uint256","internalType":"uint256"}],"outputs":[{"name":"","type":"uint256","internalType":"uint256"}],"stateMutability":"pure"},{"type":"function","name":"factoryRegistry","inputs":[],"outputs":[{"name":"","type":"address","internalType":"address"}],"stateMutability":"view"},{"type":"function","name":"forwarder","inputs":[],"outputs":[{"name":"","type":"address","internalType":"address"}],"stateMutability":"view"},{"type":"function","name":"gaugeToBribe","inputs":[{"name":"","type":"address","internalType":"address"}],"outputs":[{"name":"","type":"address","internalType":"address"}],"stateMutability":"view"},{"type":"function","name":"gaugeToFees","inputs":[{"name":"","type":"address","internalType":"address"}],"outputs":[{"name":"","type":"address","internalType":"address"}],"stateMutability":"view"},{"type":"function","name":"gauges","inputs":[{"name":"","type":"address","internalType":"address"}],"outputs":[{"name":"","type":"address","internalType":"address"}],"stateMutability":"view"},{"type":"function","name":"governor","inputs":[],"outputs":[{"name":"","type":"address","internalType":"address"}],"stateMutability":"view"},{"type":"function","name":"initialize","inputs":[{"name":"_tokens","type":"address[]","internalType":"address[]"},{"name":"_minter","type":"address","internalType":"address"}],"outputs":[],"stateMutability":"nonpayable"},{"type":"function","name":"isAlive","inputs":[{"name":"","type":"address","internalType":"address"}],"outputs":[{"name":"","type":"bool","internalType":"bool"}],"stateMutability":"view"},{"type":"function","name":"isGauge","inputs":[{"name":"","type":"address","internalType":"address"}],"outputs":[{"name":"","type":"bool","internalType":"bool"}],"stateMutability":"view"},{"type":"function","name":"isTrustedForwarder","inputs":[{"name":"forwarder","type":"address","internalType":"address"}],"outputs":[{"name":"","type":"bool","internalType":"bool"}],"stateMutability":"view"},{"type":"function","name":"isWhitelistedNFT","inputs":[{"name":"","type":"uint256","internalType":"uint256"}],"outputs":[{"name":"","type":"bool","internalType":"bool"}],"stateMutability":"view"},{"type":"function","name":"isWhitelistedToken","inputs":[{"name":"","type":"address","internalType":"address"}],"outputs":[{"name":"","type":"bool","internalType":"bool"}],"stateMutability":"view"},{"type":"function","name":"killGauge","inputs":[{"name":"_gauge","type":"address","internalType":"address"}],"outputs":[],"stateMutability":"nonpayable"},{"type":"function","name":"lastVoted","inputs":[{"name":"","type":"uint256","internalType":"uint256"}],"outputs":[{"name":"","type":"uint256","internalType":"uint256"}],"stateMutability":"view"},{"type":"function","name":"length","inputs":[],"outputs":[{"name":"","type":"uint256","internalType":"uint256"}],"stateMutability":"view"},{"type":"function","name":"maxVotingNum","inputs":[],"outputs":[{"name":"","type":"uint256","internalType":"uint256"}],"stateMutability":"view"},{"type":"function","name":"minter","inputs":[],"outputs":[{"name":"","type":"address","internalType":"address"}],"stateMutability":"view"},{"type":"function","name":"notifyRewardAmount","inputs":[{"name":"_amount","type":"uint256","internalType":"uint256"}],"outputs":[],"stateMutability":"nonpayable"},{"type":"function","name":"poke","inputs":[{"name":"_tokenId","type":"uint256","internalType":"uint256"}],"outputs":[],"stateMutability":"nonpayable"},{"type":"function","name":"poolForGauge","inputs":[{"name":"","type":"address","internalType":"address"}],"outputs":[{"name":"","type":"address","internalType":"address"}],"stateMutability":"view"},{"type":"function","name":"poolVote","inputs":[{"name":"","type":"uint256","internalType":"uint256"},{"name":"","type":"uint256","internalType":"uint256"}],"outputs":[{"name":"","type":"address","internalType":"address"}],"stateMutability":"view"},{"type":"function","name":"pools","inputs":[{"name":"","type":"uint256","internalType":"uint256"}],"outputs":[{"name":"","type":"address","internalType":"address"}],"stateMutability":"view"},{"type":"function","name":"reset","inputs":[{"name":"_tokenId","type":"uint256","internalType":"uint256"}],"outputs":[],"stateMutability":"nonpayable"},{"type":"function","name":"reviveGauge","inputs":[{"name":"_gauge","type":"address","internalType":"address"}],"outputs":[],"stateMutability":"nonpayable"},{"type":"function","name":"setEmergencyCouncil","inputs":[{"name":"_council","type":"address","internalType":"address"}],"outputs":[],"stateMutability":"nonpayable"},{"type":"function","name":"setEpochGovernor","inputs":[{"name":"_epochGovernor","type":"address","internalType":"address"}],"outputs":[],"stateMutability":"nonpayable"},{"type":"function","name":"setGovernor","inputs":[{"name":"_governor","type":"address","internalType":"address"}],"outputs":[],"stateMutability":"nonpayable"},{"type":"function","name":"setMaxVotingNum","inputs":[{"name":"_maxVotingNum","type":"uint256","internalType":"uint256"}],"outputs":[],"stateMutability":"nonpayable"},{"type":"function","name":"totalWeight","inputs":[],"outputs":[{"name":"","type":"uint256","internalType":"uint256"}],"stateMutability":"view"},{"type":"function","name":"trustedForwarder","inputs":[],"outputs":[{"name":"","type":"address","internalType":"address"}],"stateMutability":"view"},{"type":"function","name":"updateFor","inputs":[{"name":"_gauge","type":"address","internalType":"address"}],"outputs":[],"stateMutability":"nonpayable"},{"type":"function","name":"updateFor","inputs":[{"name":"start","type":"uint256","internalType":"uint256"},{"name":"end","type":"uint256","internalType":"uint256"}],"outputs":[],"stateMutability":"nonpayable"},{"type":"function","name":"updateFor","inputs":[{"name":"_gauges","type":"address[]","internalType":"address[]"}],"outputs":[],"stateMutability":"nonpayable"},{"type":"function","name":"usedWeights","inputs":[{"name":"","type":"uint256","internalType":"uint256"}],"outputs":[{"name":"","type":"uint256","internalType":"uint256"}],"stateMutability":"view"},{"type":"function","name":"ve","inputs":[],"outputs":[{"name":"","type":"address","internalType":"address"}],"stateMutability":"view"},{"type":"function","name":"vote","inputs":[{"name":"_tokenId","type":"uint256","internalType":"uint256"},{"name":"_poolVote","type":"address[]","internalType":"address[]"},{"name":"_weights","type":"uint256[]","internalType":"uint256[]"}],"outputs":[],"stateMutability":"nonpayable"},{"type":"function","name":"votes","inputs":[{"name":"","type":"uint256","internalType":"uint256"},{"name":"","type":"address","internalType":"address"}],"outputs":[{"name":"","type":"uint256","internalType":"uint256"}],"stateMutability":"view"},{"type":"function","name":"weights","inputs":[{"name":"","type":"address","internalType":"address"}],"outputs":[{"name":"","type":"uint256","internalType":"uint256"}],"stateMutability":"view"},{"type":"function","name":"whitelistNFT","inputs":[{"name":"_tokenId","type":"uint256","internalType":"uint256"},{"name":"_bool","type":"bool","internalType":"bool"}],"outputs":[],"stateMutability":"nonpayable"},{"type":"function","name":"whitelistToken","inputs":[{"name":"_token","type":"address","internalType":"address"},{"name":"_bool","type":"bool","internalType":"bool"}],"outputs":[],"stateMutability":"nonpayable"},{"type":"function","name":"withdrawManaged","inputs":[{"name":"_tokenId","type":"uint256","internalType":"uint256"}],"outputs":[],"stateMutability":"nonpayable"},{"type":"event","name":"Abstained","inputs":[{"name":"voter","type":"address","indexed":true,"internalType":"address"},{"name":"pool","type":"address","indexed":true,"internalType":"address"},{"name":"tokenId","type":"uint256","indexed":true,"internalType":"uint256"},{"name":"weight","type":"uint256","indexed":false,"internalType":"uint256"},{"name":"totalWeight","type":"uint256","indexed":false,"internalType":"uint256"},{"name":"timestamp","type":"uint256","indexed":false,"internalType":"uint256"}],"anonymous":false},{"type":"event","name":"DistributeReward","inputs":[{"name":"sender","type":"address","indexed":true,"internalType":"address"},{"name":"gauge","type":"address","indexed":true,"internalType":"address"},{"name":"amount","type":"uint256","indexed":false,"internalType":"uint256"}],"anonymous":false},{"type":"event","name":"GaugeCreated","inputs":[{"name":"poolFactory","type":"address","indexed":true,"internalType":"address"},{"name":"votingRewardsFactory","type":"address","indexed":true,"internalType":"address"},{"name":"gaugeFactory","type":"address","indexed":true,"internalType":"address"},{"name":"pool","type":"address","indexed":false,"internalType":"address"},{"name":"bribeVotingReward","type":"address","indexed":false,"internalType":"address"},{"name":"feeVotingReward","type":"address","indexed":false,"internalType":"address"},{"name":"gauge","type":"address","indexed":false,"internalType":"address"},{"name":"creator","type":"address","indexed":false,"internalType":"address"}],"anonymous":false},{"type":"event","name":"GaugeKilled","inputs":[{"name":"gauge","type":"address","indexed":true,"internalType":"address"}],"anonymous":false},{"type":"event","name":"GaugeRevived","inputs":[{"name":"gauge","type":"address","indexed":true,"internalType":"address"}],"anonymous":false},{"type":"event","name":"NotifyReward","inputs":[{"name":"sender","type":"address","indexed":true,"internalType":"address"},{"name":"reward","type":"address","indexed":true,"internalType":"address"},{"name":"amount","type":"uint256","indexed":false,"internalType":"uint256"}],"anonymous":false},{"type":"event","name":"Voted","inputs":[{"name":"voter","type":"address","indexed":true,"internalType":"address"},{"name":"pool","type":"address","indexed":true,"internalType":"address"},{"name":"tokenId","type":"uint256","indexed":true,"internalType":"uint256"},{"name":"weight","type":"uint256","indexed":false,"internalType":"uint256"},{"name":"totalWeight","type":"uint256","indexed":false,"internalType":"uint256"},{"name":"timestamp","type":"uint256","indexed":false,"internalType":"uint256"}],"anonymous":false},{"type":"event","name":"WhitelistNFT","inputs":[{"name":"whitelister","type":"address","indexed":true,"internalType":"address"},{"name":"tokenId","type":"uint256","indexed":true,"internalType":"uint256"},{"name":"_bool","type":"bool","indexed":true,"internalType":"bool"}],"anonymous":false},{"type":"event","name":"WhitelistToken","inputs":[{"name":"whitelister","type":"address","indexed":true,"internalType":"address"},{"name":"token","type":"address","indexed":true,"internalType":"address"},{"name":"_bool","type":"bool","indexed":true,"internalType":"bool"}],"anonymous":false},{"type":"error","name":"AlreadyVotedOrDeposited","inputs":[]},{"type":"error","name":"DistributeWindow","inputs":[]},{"type":"error","name":"FactoryPathNotApproved","inputs":[]},{"type":"error","name":"GaugeAlreadyKilled","inputs":[]},{"type":"error","name":"GaugeAlreadyRevived","inputs":[]},{"type":"error","name":"GaugeDoesNotExist","inputs":[{"name":"_pool","type":"address","internalType":"address"}]},{"type":"error","name":"GaugeExists","inputs":[]},{"type":"error","name":"GaugeNotAlive","inputs":[{"name":"_gauge","type":"address","internalType":"address"}]},{"type":"error","name":"InactiveManagedNFT","inputs":[]},{"type":"error","name":"MaximumVotingNumberTooLow","inputs":[]},{"type":"error","name":"NonZeroVotes","inputs":[]},{"type":"error","name":"NotAPool","inputs":[]},{"type":"error","name":"NotApprovedOrOwner","inputs":[]},{"type":"error","name":"NotEmergencyCouncil","inputs":[]},{"type":"error","name":"NotGovernor","inputs":[]},{"type":"error","name":"NotMinter","inputs":[]},{"type":"error","name":"NotWhitelistedNFT","inputs":[]},{"type":"error","name":"NotWhitelistedToken","inputs":[]},{"type":"error","name":"Reentrancy","inputs":[]},{"type":"error","name":"SafeERC20FailedOperation","inputs":[{"name":"token","type":"address","internalType":"address"}]},{"type":"error","name":"SameValue","inputs":[]},{"type":"error","name":"SpecialVotingWindow","inputs":[]},{"type":"error","name":"TooManyPools","inputs":[]},{"type":"error","name":"UnequalLengths","inputs":[]},{"type":"error","name":"ZeroAddress","inputs":[]},{"type":"error","name":"ZeroBalance","inputs":[]}],"bytecode":{"object":"0x610120604052348015610010575f5ffd5b5060405161417938038061417983398101604081905261002f91610195565b6001600160a01b03808416608081905260a05282811660c081905290821660e05260408051637e062a3560e11b8152905163fc0c546a916004808201926020929091908290030181865afa158015610089573d5f5f3e3d5ffd5b505050506040513d601f19601f820116820180604052508101906100ad91906101d5565b6001600160a01b0316610100525f6100c361010f565b5f80546001600160a01b039092166001600160a01b031992831681179091556001805483168217905560028054831682179055600380549092161790555050601e600555506102549050565b5f366014808210801590610127575061012733610155565b1561014d5761013a36828403815f6101f5565b6101439161021c565b60601c9250505090565b339250505090565b5f61015f60805190565b6001600160a01b0316826001600160a01b0316149050919050565b80516001600160a01b0381168114610190575f5ffd5b919050565b5f5f5f606084860312156101a7575f5ffd5b6101b08461017a565b92506101be6020850161017a565b91506101cc6040850161017a565b90509250925092565b5f602082840312156101e5575f5ffd5b6101ee8261017a565b9392505050565b5f5f85851115610203575f5ffd5b8386111561020f575f5ffd5b5050820193919092039150565b80356001600160601b0319811690601484101561024d576001600160601b0319601485900360031b81901b82161691505b5092915050565b60805160a05160c05160e05161010051613e2b61034e5f395f8181610e3901528181610eb3015281816119f001528181612139015281816129ec01528181613014015261309d01525f81816103ec01528181611561015261162e01525f81816103530152818161092d01528181610a4401528181610b6201528181610c2a01528181610cb401528181610d2b01528181611156015281816113be01528181611d8801528181611e7501528181611f6d015281816124c30152818161256d0152818161264d015281816126c901528181612d6c015261355201525f81816107790152818161192501526119b801525f6120660152613e2b5ff3fe608060405234801561000f575f5ffd5b506004361061027b575f3560e01c806306d6a1b21461027f57806307546172146102bd5780630c340a24146102cf5780630e0a5968146102e25780630ffb1d8b146102f75780631703e5f91461030a5780631f7b6d321461033c5780631f8507161461034e57806330331b2f14610375578063310bd74b1461038857806332145f901461039b578063370fb5fa146103ae57806339e9f3b6146103c15780633aae971f146103d45780633bf0c9fb146103e75780633c6b16ab1461040e578063402914f514610421578063462d0b2e14610440578063572b6c0514610453578063598d521b146104665780636138889b14610479578063666256aa1461048c5780637625391a1461049f5780637715ee75146104b25780637778960e146104c5578063794cea3c146104d857806379e93824146104eb5780637ac09bf71461050a5780637da0a8771461051d578063880e36fc14610525578063929c8dcd1461053857806396c82e5714610560578063992a7933146105695780639f06247b1461057c578063a7cac8461461058f578063a86a366d146105ae578063aa79979b146105c1578063aa9354a3146105e3578063ab37f486146105f6578063ac4afa3814610618578063b9a09fd51461062b578063c42cf53514610653578063c4f0816514610666578063c9ff6f4d1461068e578063d23254b4146106a1578063d4e2616f146106cb578063d560b0d7146106ed578063d58b15d414610700578063e0c11f9a14610713578063e2819d5c14610726578063e586875f14610739578063e8b3fd571461074c578063f3594be014610755578063f645d4f914610774578063f9f031df1461079b575b5f5ffd5b6102a761028d3660046137b6565b60086020525f90815260409020546001600160a01b031681565b6040516102b491906137d8565b60405180910390f35b5f546102a7906001600160a01b031681565b6001546102a7906001600160a01b031681565b6102f56102f03660046137b6565b6107ae565b005b6102f56103053660046137f9565b6107ba565b61032c6103183660046137b6565b60136020525f908152604090205460ff1681565b60405190151581526020016102b4565b6006545b6040519081526020016102b4565b6102a77f000000000000000000000000000000000000000000000000000000000000000081565b6102f5610383366004613830565b610803565b6102f5610396366004613830565b610887565b6102f56103a9366004613830565b6109da565b6102f56103bc366004613830565b610ad1565b6103406103cf366004613830565b610de3565b6002546102a7906001600160a01b031681565b6102a77f000000000000000000000000000000000000000000000000000000000000000081565b6102f561041c366004613830565b610df3565b61034061042f3660046137b6565b60166020525f908152604090205481565b6102f561044e36600461388e565b610f23565b61032c6104613660046137b6565b610fc6565b6102f56104743660046137b6565b610fea565b6102f56104873660046139b9565b61106e565b6102f561049a3660046139f2565b611154565b6102f56104ad366004613ad4565b6112b2565b6102f56104c03660046139f2565b6113bc565b6003546102a7906001600160a01b031681565b6102a76104e6366004613af4565b611513565b6103406104f9366004613830565b600e6020525f908152604090205481565b6102f5610518366004613b20565b611cd6565b6102a7612064565b610340610533366004613830565b612088565b6102a76105463660046137b6565b600a6020525f90815260409020546001600160a01b031681565b61034060045481565b6102f56105773660046137b6565b612098565b6102f561058a3660046137b6565b6121c5565b61034061059d3660046137b6565b600b6020525f908152604090205481565b6102a76105bc366004613ad4565b612284565b61032c6105cf3660046137b6565b60106020525f908152604090205460ff1681565b6103406105f1366004613830565b6122b8565b61032c6106043660046137b6565b60116020525f908152604090205460ff1681565b6102a7610626366004613830565b6122c6565b6102a76106393660046137b6565b60076020525f90815260409020546001600160a01b031681565b6102f56106613660046137b6565b6122ee565b6102a76106743660046137b6565b60096020525f90815260409020546001600160a01b031681565b6102f561069c366004613ad4565b612372565b6103406106af366004613b97565b600c60209081525f928352604080842090915290825290205481565b61032c6106d9366004613830565b60126020525f908152604090205460ff1681565b6102f56106fb3660046139b9565b6123d1565b61034061070e366004613830565b612407565b6102f5610721366004613ad4565b612411565b6102f5610734366004613bba565b612760565b6102f56107473660046137b6565b6127f0565b61034060055481565b610340610763366004613830565b600f6020525f908152604090205481565b6102a77f000000000000000000000000000000000000000000000000000000000000000081565b6102f56107a93660046139b9565b612874565b6107b781612905565b50565b6001546001600160a01b03166107ce612a41565b6001600160a01b0316146107f557604051633b8d9d7560e21b815260040160405180910390fd5b6107ff8282612a87565b5050565b6001546001600160a01b0316610817612a41565b6001600160a01b03161461083e57604051633b8d9d7560e21b815260040160405180910390fd5b600a81101561086057604051632db4ddc160e11b815260040160405180910390fd5b60055481036108825760405163c23f6ccb60e01b815260040160405180910390fd5b600555565b5f818152600f602052604090205481906108a64262093a808106900390565b116108c45760405163cade311f60e01b815260040160405180910390fd5b6108cd42612aef565b42116108ec57604051635a780bad60e01b815260040160405180910390fd5b3068929eee149b4bd21268540361090a5763ab143c065f526004601cfd5b3068929eee149b4bd212685560405163430c208160e01b81526001600160a01b037f0000000000000000000000000000000000000000000000000000000000000000169063430c2081906109649033908690600401613bdd565b6020604051808303815f875af1158015610980573d5f5f3e3d5ffd5b505050506040513d601f19601f820116820180604052508101906109a49190613bf6565b6109c15760405163390cdd9b60e21b815260040160405180910390fd5b6109ca82612afe565b3868929eee149b4bd21268555050565b3068929eee149b4bd2126854036109f85763ab143c065f526004601cfd5b3068929eee149b4bd2126855610a0d42612aef565b4211610a2c57604051635a780bad60e01b815260040160405180910390fd5b6040516339f890b560e21b8152600481018290525f907f00000000000000000000000000000000000000000000000000000000000000006001600160a01b03169063e7e242d490602401602060405180830381865afa158015610a91573d5f5f3e3d5ffd5b505050506040513d601f19601f82011682018060405250810190610ab59190613c11565b9050610ac18282612e0a565b503868929eee149b4bd212685550565b3068929eee149b4bd212685403610aef5763ab143c065f526004601cfd5b3068929eee149b4bd21268555f818152600f60205260409020548190610b1a4262093a808106900390565b11610b385760405163cade311f60e01b815260040160405180910390fd5b610b4142612aef565b4211610b6057604051635a780bad60e01b815260040160405180910390fd5b7f00000000000000000000000000000000000000000000000000000000000000006001600160a01b031663430c2081610b97612a41565b846040518363ffffffff1660e01b8152600401610bb5929190613bdd565b6020604051808303815f875af1158015610bd1573d5f5f3e3d5ffd5b505050506040513d601f19601f82011682018060405250810190610bf59190613bf6565b610c125760405163390cdd9b60e21b815260040160405180910390fd5b6040516319a0a9d560e01b8152600481018390525f907f00000000000000000000000000000000000000000000000000000000000000006001600160a01b0316906319a0a9d590602401602060405180830381865afa158015610c77573d5f5f3e3d5ffd5b505050506040513d601f19601f82011682018060405250810190610c9b9190613c11565b604051631b87dafd60e11b8152600481018590529091507f00000000000000000000000000000000000000000000000000000000000000006001600160a01b03169063370fb5fa906024015f604051808303815f87803b158015610cfd575f5ffd5b505af1158015610d0f573d5f5f3e3d5ffd5b5050604051637028a55d60e11b81525f92506001600160a01b037f000000000000000000000000000000000000000000000000000000000000000016915063e0514aba90610d639085904290600401613c28565b602060405180830381865afa158015610d7e573d5f5f3e3d5ffd5b505050506040513d601f19601f82011682018060405250810190610da29190613c11565b9050805f03610dc757610db482612afe565b5f828152600f6020526040812055610dd1565b610dd18282612e0a565b5050503868929eee149b4bd212685550565b5f610ded82612aef565b92915050565b5f610dfc612a41565b5f549091506001600160a01b03808316911614610e2c57604051633e34a41b60e21b815260040160405180910390fd5b610e616001600160a01b037f000000000000000000000000000000000000000000000000000000000000000016823085612f40565b505f610e766004546001818118908210021890565b610e8884670de0b6b3a7640000613c4a565b610e929190613c61565b90508015610eb1578060145f828254610eab9190613c80565b90915550505b7f00000000000000000000000000000000000000000000000000000000000000006001600160a01b0316826001600160a01b03167ff70d5c697de7ea828df48e5c4573cb2194c659f1901f70110c52b066dcf5082685604051610f1691815260200190565b60405180910390a3505050565b5f546001600160a01b0316610f36612a41565b6001600160a01b031614610f5d57604051633e34a41b60e21b815260040160405180910390fd5b815f5b81811015610fa157610f99858583818110610f7d57610f7d613c93565b9050602002016020810190610f9291906137b6565b6001612a87565b600101610f60565b50505f80546001600160a01b0319166001600160a01b03929092169190911790555050565b5f610fcf612064565b6001600160a01b0316826001600160a01b0316149050919050565b6001546001600160a01b0316610ffe612a41565b6001600160a01b03161461102557604051633b8d9d7560e21b815260040160405180910390fd5b6001600160a01b03811661104c5760405163d92e233d60e01b815260040160405180910390fd5b600280546001600160a01b0319166001600160a01b0392909216919091179055565b3068929eee149b4bd21268540361108c5763ab143c065f526004601cfd5b3068929eee149b4bd21268555f5f9054906101000a90046001600160a01b03166001600160a01b031663a83627de6040518163ffffffff1660e01b81526004016020604051808303815f875af11580156110e8573d5f5f3e3d5ffd5b505050506040513d601f19601f8201168201806040525081019061110c9190613c11565b5080515f5b818110156111435761113b83828151811061112e5761112e613c93565b6020026020010151612f61565b600101611111565b50503868929eee149b4bd212685550565b7f00000000000000000000000000000000000000000000000000000000000000006001600160a01b031663430c208161118b612a41565b836040518363ffffffff1660e01b81526004016111a9929190613bdd565b6020604051808303815f875af11580156111c5573d5f5f3e3d5ffd5b505050506040513d601f19601f820116820180604052508101906111e99190613bf6565b6112065760405163390cdd9b60e21b815260040160405180910390fd5b82515f5b818110156112ab5784818151811061122457611224613c93565b60200260200101516001600160a01b031663f5f8d3658486848151811061124d5761124d613c93565b60200260200101516040518363ffffffff1660e01b8152600401611272929190613cea565b5f604051808303815f87803b158015611289575f5ffd5b505af115801561129b573d5f5f3e3d5ffd5b50506001909201915061120a9050565b5050505050565b3068929eee149b4bd2126854036112d05763ab143c065f526004601cfd5b3068929eee149b4bd21268555f5f9054906101000a90046001600160a01b03166001600160a01b031663a83627de6040518163ffffffff1660e01b81526004016020604051808303815f875af115801561132c573d5f5f3e3d5ffd5b505050506040513d601f19601f820116820180604052508101906113509190613c11565b50815b818110156113ab576113a360075f6006848154811061137457611374613c93565b5f9182526020808320909101546001600160a01b03908116845290830193909352604090910190205416612f61565b600101611353565b503868929eee149b4bd21268555050565b7f00000000000000000000000000000000000000000000000000000000000000006001600160a01b031663430c20816113f3612a41565b836040518363ffffffff1660e01b8152600401611411929190613bdd565b6020604051808303815f875af115801561142d573d5f5f3e3d5ffd5b505050506040513d601f19601f820116820180604052508101906114519190613bf6565b61146e5760405163390cdd9b60e21b815260040160405180910390fd5b82515f5b818110156112ab5784818151811061148c5761148c613c93565b60200260200101516001600160a01b031663f5f8d365848684815181106114b5576114b5613c93565b60200260200101516040518363ffffffff1660e01b81526004016114da929190613cea565b5f604051808303815f87803b1580156114f1575f5ffd5b505af1158015611503573d5f5f3e3d5ffd5b5050600190920191506114729050565b5f3068929eee149b4bd2126854036115325763ab143c065f526004601cfd5b3068929eee149b4bd21268555f611547612a41565b60405163d1ea0a1d60e01b81529091506001600160a01b037f0000000000000000000000000000000000000000000000000000000000000000169063d1ea0a1d906115969087906004016137d8565b602060405180830381865afa1580156115b1573d5f5f3e3d5ffd5b505050506040513d601f19601f820116820180604052508101906115d59190613bf6565b6115f257604051634fe2017f60e01b815260040160405180910390fd5b6001600160a01b038381165f90815260076020526040902054161561162a576040516348fe415b60e11b815260040160405180910390fd5b5f5f7f00000000000000000000000000000000000000000000000000000000000000006001600160a01b0316631217afdb876040518263ffffffff1660e01b815260040161167891906137d8565b6040805180830381865afa158015611692573d5f5f3e3d5ffd5b505050506040513d601f19601f820116820180604052508101906116b69190613d02565b6040805160028082526060820183529395509193505f92906020830190803683375050604051635b16ebb760e01b81529192505f916001600160a01b038a169150635b16ebb79061170b908a906004016137d8565b602060405180830381865afa158015611726573d5f5f3e3d5ffd5b505050506040513d601f19601f8201168201806040525081019061174a9190613bf6565b90505f5f821561188057886001600160a01b0316630dfe16816040518163ffffffff1660e01b8152600401602060405180830381865afa158015611790573d5f5f3e3d5ffd5b505050506040513d601f19601f820116820180604052508101906117b49190613d2f565b9150886001600160a01b031663d21220a76040518163ffffffff1660e01b8152600401602060405180830381865afa1580156117f2573d5f5f3e3d5ffd5b505050506040513d601f19601f820116820180604052508101906118169190613d2f565b905081845f8151811061182b5761182b613c93565b60200260200101906001600160a01b031690816001600160a01b031681525050808460018151811061185f5761185f613c93565b60200260200101906001600160a01b031690816001600160a01b0316815250505b6001546001600160a01b0388811691161461191057826118b357604051632bab424160e01b815260040160405180910390fd5b6001600160a01b0382165f9081526011602052604090205460ff1615806118f257506001600160a01b0381165f9081526011602052604090205460ff16155b15611910576040516365a9cebb60e01b815260040160405180910390fd5b50505f5f856001600160a01b0316634c455a977f0000000000000000000000000000000000000000000000000000000000000000866040518363ffffffff1660e01b8152600401611962929190613d4a565b60408051808303815f875af115801561197d573d5f5f3e3d5ffd5b505050506040513d601f19601f820116820180604052508101906119a19190613d02565b6040516322a60f9560e21b81526001600160a01b037f0000000000000000000000000000000000000000000000000000000000000000811660048301528c8116602483015283811660448301527f00000000000000000000000000000000000000000000000000000000000000008116606483015286151560848301529294509092505f91871690638a983e549060a4016020604051808303815f875af1158015611a4e573d5f5f3e3d5ffd5b505050506040513d601f19601f82011682018060405250810190611a729190613d2f565b90508260095f836001600160a01b03166001600160a01b031681526020019081526020015f205f6101000a8154816001600160a01b0302191690836001600160a01b0316021790555081600a5f836001600160a01b03166001600160a01b031681526020019081526020015f205f6101000a8154816001600160a01b0302191690836001600160a01b031602179055508060075f8c6001600160a01b03166001600160a01b031681526020019081526020015f205f6101000a8154816001600160a01b0302191690836001600160a01b031602179055508960085f836001600160a01b03166001600160a01b031681526020019081526020015f205f6101000a8154816001600160a01b0302191690836001600160a01b03160217905550600160105f836001600160a01b03166001600160a01b031681526020019081526020015f205f6101000a81548160ff021916908315150217905550600160135f836001600160a01b03166001600160a01b031681526020019081526020015f205f6101000a81548160ff021916908315150217905550611c0f81612905565b600680546001810182555f919091527ff652222313e28459528d920b65115c16c04f3efc82aaedc97be59f3f377c0d3f0180546001600160a01b0319166001600160a01b038c811691821790925560408051918252848316602083015285831690820152828216606082015289821660808201528782169189811691908e16907fef9f7d1ffff3b249c6b9bf2528499e935f7d96bb6d6ec4e7da504d1d3c6279e19060a00160405180910390a43868929eee149b4bd21268559a9950505050505050505050565b5f858152600f60205260409020548590611cf54262093a808106900390565b11611d135760405163cade311f60e01b815260040160405180910390fd5b611d1c42612aef565b4211611d3b57604051635a780bad60e01b815260040160405180910390fd5b3068929eee149b4bd212685403611d595763ab143c065f526004601cfd5b3068929eee149b4bd21268555f611d6e612a41565b60405163430c208160e01b81529091506001600160a01b037f0000000000000000000000000000000000000000000000000000000000000000169063430c208190611dbf9084908b90600401613bdd565b6020604051808303815f875af1158015611ddb573d5f5f3e3d5ffd5b505050506040513d601f19601f82011682018060405250810190611dff9190613bf6565b611e1c5760405163390cdd9b60e21b815260040160405180910390fd5b848314611e3c5760405163332ac86360e21b815260040160405180910390fd5b600554851115611e5f5760405163ebcfae4b60e01b815260040160405180910390fd5b604051632a266cdb60e21b8152600481018890527f00000000000000000000000000000000000000000000000000000000000000006001600160a01b03169063a899b36c90602401602060405180830381865afa158015611ec2573d5f5f3e3d5ffd5b505050506040513d601f19601f82011682018060405250810190611ee69190613bf6565b15611f04576040516308910b2560e01b815260040160405180910390fd5b42611f0e8161311e565b81118015611f2a57505f8881526012602052604090205460ff16155b15611f4857604051630392978d60e41b815260040160405180910390fd5b5f888152600f6020526040808220839055516339f890b560e21b8152600481018a90527f00000000000000000000000000000000000000000000000000000000000000006001600160a01b03169063e7e242d490602401602060405180830381865afa158015611fba573d5f5f3e3d5ffd5b505050506040513d601f19601f82011682018060405250810190611fde9190613c11565b905061204d89828a8a808060200260200160405190810160405280939291908181526020018383602002808284375f9201919091525050604080516020808e0282810182019093528d82529093508d92508c9182918501908490808284375f9201919091525061312e92505050565b5050503868929eee149b4bd2126855505050505050565b7f000000000000000000000000000000000000000000000000000000000000000090565b5f62093a80808306830301610ded565b6003546001600160a01b03166120ac612a41565b6001600160a01b0316146120d35760405163c560129360e01b815260040160405180910390fd5b6001600160a01b0381165f9081526013602052604090205460ff1661210b57604051633f88da5160e21b815260040160405180910390fd5b6001600160a01b0381165f90815260166020526040902054801561217c575f54612162906001600160a01b037f000000000000000000000000000000000000000000000000000000000000000081169116836135e2565b506001600160a01b0382165f908152601660205260408120555b6001600160a01b0382165f81815260136020526040808220805460ff19169055517f04a5d3f5d80d22d9345acc80618f4a4e7e663cf9e1aed23b57d975acec002ba79190a25050565b6003546001600160a01b03166121d9612a41565b6001600160a01b0316146122005760405163c560129360e01b815260040160405180910390fd5b6001600160a01b0381165f9081526013602052604090205460ff161561223957604051635f5a482960e11b815260040160405180910390fd5b6001600160a01b0381165f81815260136020526040808220805460ff19166001179055517fed18e9faa3dccfd8aa45f69c4de40546b2ca9cccc4538a2323531656516db1aa9190a250565b600d602052815f5260405f20818154811061229d575f80fd5b5f918252602090912001546001600160a01b03169150829050565b5f62093a8082068203610ded565b600681815481106122d5575f80fd5b5f918252602090912001546001600160a01b0316905081565b6001546001600160a01b0316612302612a41565b6001600160a01b03161461232957604051633b8d9d7560e21b815260040160405180910390fd5b6001600160a01b0381166123505760405163d92e233d60e01b815260040160405180910390fd5b600180546001600160a01b0319166001600160a01b0392909216919091179055565b815b818110156123cc576123c460075f6006848154811061239557612395613c93565b5f9182526020808320909101546001600160a01b03908116845290830193909352604090910190205416612905565b600101612374565b505050565b80515f5b818110156123cc576123ff8382815181106123f2576123f2613c93565b6020026020010151612905565b6001016123d5565b5f610ded8261311e565b3068929eee149b4bd21268540361242f5763ab143c065f526004601cfd5b3068929eee149b4bd21268555f828152600f6020526040902054829061245a4262093a808106900390565b116124785760405163cade311f60e01b815260040160405180910390fd5b61248142612aef565b42116124a057604051635a780bad60e01b815260040160405180910390fd5b5f6124a9612a41565b60405163430c208160e01b81529091506001600160a01b037f0000000000000000000000000000000000000000000000000000000000000000169063430c2081906124fa9084908890600401613bdd565b6020604051808303815f875af1158015612516573d5f5f3e3d5ffd5b505050506040513d601f19601f8201168201806040525081019061253a9190613bf6565b6125575760405163390cdd9b60e21b815260040160405180910390fd5b604051632a266cdb60e21b8152600481018490527f00000000000000000000000000000000000000000000000000000000000000006001600160a01b03169063a899b36c90602401602060405180830381865afa1580156125ba573d5f5f3e3d5ffd5b505050506040513d601f19601f820116820180604052508101906125de9190613bf6565b156125fc576040516308910b2560e01b815260040160405180910390fd5b426126068161311e565b81111561262657604051631f3ecf5b60e21b815260040160405180910390fd5b5f858152600f602052604090819020829055516370608fcd60e11b81526001600160a01b037f0000000000000000000000000000000000000000000000000000000000000000169063e0c11f9a906126849088908890600401613c28565b5f604051808303815f87803b15801561269b575f5ffd5b505af11580156126ad573d5f5f3e3d5ffd5b5050604051637028a55d60e11b81525f92506001600160a01b037f000000000000000000000000000000000000000000000000000000000000000016915063e0514aba906127019088904290600401613c28565b602060405180830381865afa15801561271c573d5f5f3e3d5ffd5b505050506040513d601f19601f820116820180604052508101906127409190613c11565b905061274c8582612e0a565b505050503868929eee149b4bd21268555050565b5f612769612a41565b6001549091506001600160a01b0380831691161461279a57604051633b8d9d7560e21b815260040160405180910390fd5b5f83815260126020526040808220805460ff19168515159081179091559051909185916001600160a01b038516917f8a6ff732c8641e1e34d771e1f8b1673e988c1abdfb694ebdf6c910a5e3d0d85391a4505050565b6003546001600160a01b0316612804612a41565b6001600160a01b03161461282b5760405163c560129360e01b815260040160405180910390fd5b6001600160a01b0381166128525760405163d92e233d60e01b815260040160405180910390fd5b600380546001600160a01b0319166001600160a01b0392909216919091179055565b80515f5b818110156123cc5782818151811061289257612892613c93565b60200260200101516001600160a01b031663c00007b06128b0612a41565b6040518263ffffffff1660e01b81526004016128cc91906137d8565b5f604051808303815f87803b1580156128e3575f5ffd5b505af11580156128f5573d5f5f3e3d5ffd5b5050600190920191506128789050565b6001600160a01b038082165f90815260086020908152604080832054909316808352600b909152919020548015612a21576001600160a01b0383165f908152601560205260408120805460145491829055916129618383613d6d565b90508015612a19575f670de0b6b3a764000061297d8387613c4a565b6129879190613c61565b6001600160a01b0388165f9081526013602052604090205490915060ff16156129dc576001600160a01b0387165f90815260166020526040812080548392906129d1908490613c80565b90915550612a179050565b5f54612a15906001600160a01b037f000000000000000000000000000000000000000000000000000000000000000081169116836135e2565b505b505b505050505050565b6014546001600160a01b0384165f90815260156020526040902055505050565b5f366014808210801590612a595750612a5933610fc6565b15612a7f57612a6c36828403815f613d80565b612a7591613da7565b60601c9250505090565b339250505090565b6001600160a01b0382165f818152601160205260409020805460ff191683151590811790915590612ab6612a41565b6001600160a01b03167f44948130cf88523dbc150908a47dd6332c33a01a3869d7f2fa78e51d5a5f9c5760405160405180910390a45050565b62093a8081069003610e100190565b5f818152600d6020526040812080549091805b82811015612d4f575f848281548110612b2c57612b2c613c93565b5f918252602080832090910154888352600c825260408084206001600160a01b03909216808552919092529120549091508015612d45576001600160a01b038083165f90815260076020526040902054612b869116612905565b6001600160a01b0382165f908152600b602052604081208054839290612bad908490613d6d565b90915550505f878152600c602090815260408083206001600160a01b03808716855290835281842084905560078352818420548116845260099092529182902054915163278afc8b60e21b8152911690639e2bf22c90612c139084908b90600401613c28565b5f604051808303815f87803b158015612c2a575f5ffd5b505af1158015612c3c573d5f5f3e3d5ffd5b5050506001600160a01b038084165f9081526007602090815260408083205484168352600a9091529081902054905163278afc8b60e21b815291169150639e2bf22c90612c8f9084908b90600401613c28565b5f604051808303815f87803b158015612ca6575f5ffd5b505af1158015612cb8573d5f5f3e3d5ffd5b505050508084612cc89190613c80565b935086826001600160a01b0316612cdd612a41565b6001600160a01b03167fadab630928b1d46214641293704a312ee7ad87e03ae14a7fd95e7308b93998df84600b5f886001600160a01b03166001600160a01b031681526020019081526020015f205442604051612d3c93929190613ddf565b60405180910390a45b5050600101612b11565b50604051632d27a2cd60e11b8152600481018590525f60248201527f00000000000000000000000000000000000000000000000000000000000000006001600160a01b031690635a4f459a906044015f604051808303815f87803b158015612db5575f5ffd5b505af1158015612dc7573d5f5f3e3d5ffd5b505050508060045f828254612ddc9190613d6d565b90915550505f848152600e60209081526040808320839055600d9091528120612e0491613774565b50505050565b5f828152600d6020908152604080832080548251818502810185019093528083529192909190830182828015612e6757602002820191905f5260205f20905b81546001600160a01b03168152600190910190602001808311612e49575b505050505090505f815190505f816001600160401b03811115612e8c57612e8c6138e0565b604051908082528060200260200182016040528015612eb5578160200160208202803683370190505b5090505f5b82811015612f3357600c5f8781526020019081526020015f205f858381518110612ee657612ee6613c93565b60200260200101516001600160a01b03166001600160a01b031681526020019081526020015f2054828281518110612f2057612f20613c93565b6020908102919091010152600101612eba565b506112ab8585858461312e565b5f612f566001600160a01b038616858585613601565b506001949350505050565b612f6a81612905565b6001600160a01b0381165f818152601660209081526040918290205482516302dcc80960e31b815292519093926316e640489260048083019391928290030181865afa158015612fbc573d5f5f3e3d5ffd5b505050506040513d601f19601f82011682018060405250810190612fe09190613c11565b81118015612ff0575062093a8081115b156107ff576001600160a01b038083165f9081526016602052604081205561303b907f000000000000000000000000000000000000000000000000000000000000000016838361360d565b604051633c6b16ab60e01b8152600481018290526001600160a01b03831690633c6b16ab906024015f604051808303815f87803b15801561307a575f5ffd5b505af115801561308c573d5f5f3e3d5ffd5b506130c69250506001600160a01b037f0000000000000000000000000000000000000000000000000000000000000000169050835f61360d565b816001600160a01b03166130d8612a41565b6001600160a01b03167f4fa9693cae526341d334e2862ca2413b2e503f1266255f9e0869fb36e6d89b178360405161311291815260200190565b60405180910390a35050565b62093a808106900362092c700190565b61313784612afe565b81515f8080805b848110156131755785818151811061315857613158613c93565b60200260200101518461316b9190613c80565b935060010161313e565b505f5b8481101561352e575f87828151811061319357613193613c93565b6020908102919091018101516001600160a01b038082165f908152600790935260409092205490925016806131e65781604051634c89018560e01b81526004016131dd91906137d8565b60405180910390fd5b6001600160a01b0381165f9081526013602052604090205460ff1661322057806040516302b0b9ed60e61b81526004016131dd91906137d8565b6001600160a01b0381165f9081526010602052604090205460ff1615613524575f868b8a868151811061325557613255613c93565b60200260200101516132679190613c4a565b6132719190613c61565b5f8d8152600c602090815260408083206001600160a01b0388168452909152902054909150156132b45760405163315f6a3d60e01b815260040160405180910390fd5b805f036132d45760405163334ab3f560e11b815260040160405180910390fd5b6132dd82612905565b5f8c8152600d6020908152604080832080546001810182559084528284200180546001600160a01b0319166001600160a01b0388169081179091558352600b90915281208054839290613331908490613c80565b90915550505f8c8152600c602090815260408083206001600160a01b038716845290915281208054839290613367908490613c80565b9250508190555060095f836001600160a01b03166001600160a01b031681526020019081526020015f205f9054906101000a90046001600160a01b03166001600160a01b031663f3207723828e6040518363ffffffff1660e01b81526004016133d1929190613c28565b5f604051808303815f87803b1580156133e8575f5ffd5b505af11580156133fa573d5f5f3e3d5ffd5b50505050600a5f836001600160a01b03166001600160a01b031681526020019081526020015f205f9054906101000a90046001600160a01b03166001600160a01b031663f3207723828e6040518363ffffffff1660e01b8152600401613461929190613c28565b5f604051808303815f87803b158015613478575f5ffd5b505af115801561348a573d5f5f3e3d5ffd5b50505050808561349a9190613c80565b94506134a68187613c80565b95508b836001600160a01b03166134bb612a41565b6001600160a01b03167f452d440efc30dfa14a0ef803ccb55936af860ec6a6960ed27f129bef913f296a84600b5f896001600160a01b03166001600160a01b031681526020019081526020015f20544260405161351a93929190613ddf565b60405180910390a4505b5050600101613178565b5080156135b257604051632d27a2cd60e11b815260048101899052600160248201527f00000000000000000000000000000000000000000000000000000000000000006001600160a01b031690635a4f459a906044015f604051808303815f87803b15801561359b575f5ffd5b505af11580156135ad573d5f5f3e3d5ffd5b505050505b8160045f8282546135c39190613c80565b90915550505f978852600e602052604090972096909655505050505050565b5f6135f76001600160a01b0385168484613663565b5060019392505050565b612e048484848461366e565b6123cc8363095ea7b360e01b848460405160240161362c929190613bdd565b60408051601f198184030181529190526020810180516001600160e01b03166001600160e01b0319909316929092179091526136c7565b6123cc83838361372a565b60405181606052826040528360601b602c526323b872dd60601b600c5260205f6064601c5f895af18060015f5114166136b957803d873b1517106136b957637939f4245f526004601cfd5b505f60605260405250505050565b5f5f60205f8451602086015f885af1806136e6576040513d5f823e3d81fd5b50505f513d915081156136fd57806001141561370a565b6001600160a01b0384163b155b15612e045783604051635274afe760e01b81526004016131dd91906137d8565b816014528060345263a9059cbb60601b5f5260205f604460105f875af18060015f51141661376a57803d853b15171061376a576390b8ec185f526004601cfd5b505f603452505050565b5080545f8255905f5260205f20908101906107b791905b8082111561379e575f815560010161378b565b5090565b6001600160a01b03811681146107b7575f5ffd5b5f602082840312156137c6575f5ffd5b81356137d1816137a2565b9392505050565b6001600160a01b0391909116815260200190565b80151581146107b7575f5ffd5b5f5f6040838503121561380a575f5ffd5b8235613815816137a2565b91506020830135613825816137ec565b809150509250929050565b5f60208284031215613840575f5ffd5b5035919050565b5f5f83601f840112613857575f5ffd5b5081356001600160401b0381111561386d575f5ffd5b6020830191508360208260051b8501011115613887575f5ffd5b9250929050565b5f5f5f604084860312156138a0575f5ffd5b83356001600160401b038111156138b5575f5ffd5b6138c186828701613847565b90945092505060208401356138d5816137a2565b809150509250925092565b634e487b7160e01b5f52604160045260245ffd5b604051601f8201601f191681016001600160401b038111828210171561391c5761391c6138e0565b604052919050565b5f6001600160401b0382111561393c5761393c6138e0565b5060051b60200190565b5f82601f830112613955575f5ffd5b813561396861396382613924565b6138f4565b8082825260208201915060208360051b860101925085831115613989575f5ffd5b602085015b838110156139af5780356139a1816137a2565b83526020928301920161398e565b5095945050505050565b5f602082840312156139c9575f5ffd5b81356001600160401b038111156139de575f5ffd5b6139ea84828501613946565b949350505050565b5f5f5f60608486031215613a04575f5ffd5b83356001600160401b03811115613a19575f5ffd5b613a2586828701613946565b93505060208401356001600160401b03811115613a40575f5ffd5b8401601f81018613613a50575f5ffd5b8035613a5e61396382613924565b8082825260208201915060208360051b850101925088831115613a7f575f5ffd5b602084015b83811015613abf5780356001600160401b03811115613aa1575f5ffd5b613ab08b602083890101613946565b84525060209283019201613a84565b50959895975050505060409390930135925050565b5f5f60408385031215613ae5575f5ffd5b50508035926020909101359150565b5f5f60408385031215613b05575f5ffd5b8235613b10816137a2565b91506020830135613825816137a2565b5f5f5f5f5f60608688031215613b34575f5ffd5b8535945060208601356001600160401b03811115613b50575f5ffd5b613b5c88828901613847565b90955093505060408601356001600160401b03811115613b7a575f5ffd5b613b8688828901613847565b969995985093965092949392505050565b5f5f60408385031215613ba8575f5ffd5b823591506020830135613825816137a2565b5f5f60408385031215613bcb575f5ffd5b823591506020830135613825816137ec565b6001600160a01b03929092168252602082015260400190565b5f60208284031215613c06575f5ffd5b81516137d1816137ec565b5f60208284031215613c21575f5ffd5b5051919050565b918252602082015260400190565b634e487b7160e01b5f52601160045260245ffd5b8082028115828204841417610ded57610ded613c36565b5f82613c7b57634e487b7160e01b5f52601260045260245ffd5b500490565b80820180821115610ded57610ded613c36565b634e487b7160e01b5f52603260045260245ffd5b5f8151808452602084019350602083015f5b82811015613ce05781516001600160a01b0316865260209586019590910190600101613cb9565b5093949350505050565b828152604060208201525f6139ea6040830184613ca7565b5f5f60408385031215613d13575f5ffd5b8251613d1e816137a2565b6020840151909250613825816137a2565b5f60208284031215613d3f575f5ffd5b81516137d1816137a2565b6001600160a01b03831681526040602082018190525f906139ea90830184613ca7565b81810381811115610ded57610ded613c36565b5f5f85851115613d8e575f5ffd5b83861115613d9a575f5ffd5b5050820193919092039150565b80356001600160601b03198116906014841015613dd8576001600160601b0319601485900360031b81901b82161691505b5092915050565b928352602083019190915260408201526060019056fea26469706673582212203300d80dd98491b79eef1bf7e6f78aea9084981e6cc854d55c63c05ac9ec902264736f6c634300081e0033","linkReferences":{}},"methodIdentifiers":{"claimBribes(address[],address[][],uint256)":"7715ee75","claimFees(address[],address[][],uint256)":"666256aa","claimRewards(address[])":"f9f031df","claimable(address)":"402914f5","createGauge(address,address)":"794cea3c","depositManaged(uint256,uint256)":"e0c11f9a","distribute(address[])":"6138889b","distribute(uint256,uint256)":"7625391a","emergencyCouncil()":"7778960e","epochGovernor()":"3aae971f","epochNext(uint256)":"880e36fc","epochStart(uint256)":"aa9354a3","epochVoteEnd(uint256)":"d58b15d4","epochVoteStart(uint256)":"39e9f3b6","factoryRegistry()":"3bf0c9fb","forwarder()":"f645d4f9","gaugeToBribe(address)":"929c8dcd","gaugeToFees(address)":"c4f08165","gauges(address)":"b9a09fd5","governor()":"0c340a24","initialize(address[],address)":"462d0b2e","isAlive(address)":"1703e5f9","isGauge(address)":"aa79979b","isTrustedForwarder(address)":"572b6c05","isWhitelistedNFT(uint256)":"d4e2616f","isWhitelistedToken(address)":"ab37f486","killGauge(address)":"992a7933","lastVoted(uint256)":"f3594be0","length()":"1f7b6d32","maxVotingNum()":"e8b3fd57","minter()":"07546172","notifyRewardAmount(uint256)":"3c6b16ab","poke(uint256)":"32145f90","poolForGauge(address)":"06d6a1b2","poolVote(uint256,uint256)":"a86a366d","pools(uint256)":"ac4afa38","reset(uint256)":"310bd74b","reviveGauge(address)":"9f06247b","setEmergencyCouncil(address)":"e586875f","setEpochGovernor(address)":"598d521b","setGovernor(address)":"c42cf535","setMaxVotingNum(uint256)":"30331b2f","totalWeight()":"96c82e57","trustedForwarder()":"7da0a877","updateFor(address)":"0e0a5968","updateFor(address[])":"d560b0d7","updateFor(uint256,uint256)":"c9ff6f4d","usedWeights(uint256)":"79e93824","ve()":"1f850716","vote(uint256,address[],uint256[])":"7ac09bf7","votes(uint256,address)":"d23254b4","weights(address)":"a7cac846","whitelistNFT(uint256,bool)":"e2819d5c","whitelistToken(address,bool)":"0ffb1d8b","withdrawManaged(uint256)":"370fb5fa"},"id":816}