{"abi":[{"type":"function","name":"facetAddress","inputs":[{"name":"_functionSelector","type":"bytes4","internalType":"bytes4"}],"outputs":[{"name":"","type":"address","internalType":"address"}],"stateMutability":"view"},{"type":"function","name":"functionFacetPairs","inputs":[],"outputs":[{"name":"pairs","type":"tuple[]","internalType":"struct IERC8109Introspection.FunctionFacetPair[]","components":[{"name":"selector","type":"bytes4","internalType":"bytes4"},{"name":"facet","type":"address","internalType":"address"}]}],"stateMutability":"view"},{"type":"error","name":"IndexOutOfBounds","inputs":[{"name":"length","type":"uint256","internalType":"uint256"},{"name":"invalidIndex","type":"uint256","internalType":"uint256"},{"name":"errorCode","type":"uint256","internalType":"uint256"}]}],"bytecode":{"object":"0x6080604052348015600e575f5ffd5b506104c28061001c5f395ff3fe608060405234801561000f575f5ffd5b5060043610610034575f3560e01c806360b5befb14610038578063cdffacc614610056575b5f5ffd5b610040610081565b60405161004d91906103b6565b60405180910390f35b610069610064366004610417565b610090565b6040516001600160a01b03909116815260200161004d565b606061008b6100a0565b905090565b5f61009a826100b2565b92915050565b606061008b6100ad6100e7565b610134565b5f61009a6100be6100e7565b836001600160e01b0319165f90815260029190910160205260409020546001600160a01b031690565b5f61008b60405160200161011b906020808252600c908201526b6569702e6572632e3235333560a01b604082015260600190565b6040516020818303038152906040528051906020012090565b60605f5b60018301548110156101625761015883836101538285610168565b6101aa565b9150600101610138565b50919050565b60018201545f906101799083610327565b5082600101828154811061018f5761018f610445565b5f918252602090912001546001600160a01b03169392505050565b6001600160a01b0381165f90815260038401602052604090206001015482516060916101d591610459565b6001600160401b038111156101ec576101ec610478565b60405190808252806020026020018201604052801561023057816020015b604080518082019091525f808252602082015281526020019060019003908161020a5790505b5090505f5b835181101561027d5783818151811061025057610250610445565b602002602001015182828151811061026a5761026a610445565b6020908102919091010152600101610235565b5082515f5b6001600160a01b0384165f90815260038701602052604090206001015481101561031e576040805180820182526001600160a01b0386165f908152600389016020529190912081906102d49084610366565b6001600160e01b03191681526001600160a01b038616602090910152836102fb8385610459565b8151811061030b5761030b610445565b6020908102919091010152600101610282565b50509392505050565b5f81831161035d57604051635400feb960e01b815260048101849052602481018390526032604482015260640160405180910390fd5b50600192915050565b60018201545f906103779083610327565b5082600101828154811061038d5761038d610445565b905f5260205f2090600891828204019190066004029054906101000a900460e01b905092915050565b602080825282518282018190525f918401906040840190835b8181101561040c57835180516001600160e01b03191684526020908101516001600160a01b031681850152909301926040909201916001016103cf565b509095945050505050565b5f60208284031215610427575f5ffd5b81356001600160e01b03198116811461043e575f5ffd5b9392505050565b634e487b7160e01b5f52603260045260245ffd5b8082018082111561009a57634e487b7160e01b5f52601160045260245ffd5b634e487b7160e01b5f52604160045260245ffdfea26469706673582212207d49b2923aaf345b978a85f8817e91ba2e20bca66632354976aa8aeed2190a9d64736f6c634300081e0033","linkReferences":{}},"methodIdentifiers":{"facetAddress(bytes4)":"cdffacc6","functionFacetPairs()":"60b5befb"},"id":190}