{"abi":[{"type":"constructor","inputs":[{"name":"vault_","type":"address","internalType":"contract IVault"},{"name":"defaultMaxSurgeFeePercentage_","type":"uint256","internalType":"uint256"},{"name":"defaultSurgeThresholdPercentage_","type":"uint256","internalType":"uint256"},{"name":"version_","type":"string","internalType":"string"}],"stateMutability":"nonpayable"},{"type":"function","name":"computeSwapSurgeFeePercentage","inputs":[{"name":"params","type":"tuple","internalType":"struct PoolSwapParams","components":[{"name":"kind","type":"uint8","internalType":"enum SwapKind"},{"name":"amountGivenScaled18","type":"uint256","internalType":"uint256"},{"name":"balancesScaled18","type":"uint256[]","internalType":"uint256[]"},{"name":"indexIn","type":"uint256","internalType":"uint256"},{"name":"indexOut","type":"uint256","internalType":"uint256"},{"name":"router","type":"address","internalType":"address"},{"name":"userData","type":"bytes","internalType":"bytes"}]},{"name":"pool","type":"address","internalType":"address"},{"name":"staticSwapFeePercentage","type":"uint256","internalType":"uint256"}],"outputs":[{"name":"surgeFeePercentage","type":"uint256","internalType":"uint256"}],"stateMutability":"view"},{"type":"function","name":"getActionId","inputs":[{"name":"selector","type":"bytes4","internalType":"bytes4"}],"outputs":[{"name":"","type":"bytes32","internalType":"bytes32"}],"stateMutability":"view"},{"type":"function","name":"getAuthorizer","inputs":[],"outputs":[{"name":"","type":"address","internalType":"contract IAuthorizer"}],"stateMutability":"view"},{"type":"function","name":"getDefaultMaxSurgeFeePercentage","inputs":[],"outputs":[{"name":"","type":"uint256","internalType":"uint256"}],"stateMutability":"view"},{"type":"function","name":"getDefaultSurgeThresholdPercentage","inputs":[],"outputs":[{"name":"","type":"uint256","internalType":"uint256"}],"stateMutability":"view"},{"type":"function","name":"getHookFlags","inputs":[],"outputs":[{"name":"hookFlags","type":"tuple","internalType":"struct HookFlags","components":[{"name":"enableHookAdjustedAmounts","type":"bool","internalType":"bool"},{"name":"shouldCallBeforeInitialize","type":"bool","internalType":"bool"},{"name":"shouldCallAfterInitialize","type":"bool","internalType":"bool"},{"name":"shouldCallComputeDynamicSwapFee","type":"bool","internalType":"bool"},{"name":"shouldCallBeforeSwap","type":"bool","internalType":"bool"},{"name":"shouldCallAfterSwap","type":"bool","internalType":"bool"},{"name":"shouldCallBeforeAddLiquidity","type":"bool","internalType":"bool"},{"name":"shouldCallAfterAddLiquidity","type":"bool","internalType":"bool"},{"name":"shouldCallBeforeRemoveLiquidity","type":"bool","internalType":"bool"},{"name":"shouldCallAfterRemoveLiquidity","type":"bool","internalType":"bool"}]}],"stateMutability":"pure"},{"type":"function","name":"getMaxSurgeFeePercentage","inputs":[{"name":"pool","type":"address","internalType":"address"}],"outputs":[{"name":"","type":"uint256","internalType":"uint256"}],"stateMutability":"view"},{"type":"function","name":"getSurgeFeePercentage","inputs":[{"name":"params","type":"tuple","internalType":"struct PoolSwapParams","components":[{"name":"kind","type":"uint8","internalType":"enum SwapKind"},{"name":"amountGivenScaled18","type":"uint256","internalType":"uint256"},{"name":"balancesScaled18","type":"uint256[]","internalType":"uint256[]"},{"name":"indexIn","type":"uint256","internalType":"uint256"},{"name":"indexOut","type":"uint256","internalType":"uint256"},{"name":"router","type":"address","internalType":"address"},{"name":"userData","type":"bytes","internalType":"bytes"}]},{"name":"pool","type":"address","internalType":"address"},{"name":"staticSwapFeePercentage","type":"uint256","internalType":"uint256"}],"outputs":[{"name":"surgeFeePercentage","type":"uint256","internalType":"uint256"}],"stateMutability":"view"},{"type":"function","name":"getSurgeThresholdPercentage","inputs":[{"name":"pool","type":"address","internalType":"address"}],"outputs":[{"name":"","type":"uint256","internalType":"uint256"}],"stateMutability":"view"},{"type":"function","name":"getVault","inputs":[],"outputs":[{"name":"","type":"address","internalType":"contract IVault"}],"stateMutability":"view"},{"type":"function","name":"isSurgingSwap","inputs":[{"name":"params","type":"tuple","internalType":"struct PoolSwapParams","components":[{"name":"kind","type":"uint8","internalType":"enum SwapKind"},{"name":"amountGivenScaled18","type":"uint256","internalType":"uint256"},{"name":"balancesScaled18","type":"uint256[]","internalType":"uint256[]"},{"name":"indexIn","type":"uint256","internalType":"uint256"},{"name":"indexOut","type":"uint256","internalType":"uint256"},{"name":"router","type":"address","internalType":"address"},{"name":"userData","type":"bytes","internalType":"bytes"}]},{"name":"pool","type":"address","internalType":"address"},{"name":"staticSwapFeePercentage","type":"uint256","internalType":"uint256"}],"outputs":[{"name":"isSurging","type":"bool","internalType":"bool"}],"stateMutability":"view"},{"type":"function","name":"onAfterAddLiquidity","inputs":[{"name":"","type":"address","internalType":"address"},{"name":"pool","type":"address","internalType":"address"},{"name":"kind","type":"uint8","internalType":"enum AddLiquidityKind"},{"name":"amountsInScaled18","type":"uint256[]","internalType":"uint256[]"},{"name":"amountsInRaw","type":"uint256[]","internalType":"uint256[]"},{"name":"","type":"uint256","internalType":"uint256"},{"name":"balancesScaled18","type":"uint256[]","internalType":"uint256[]"},{"name":"","type":"bytes","internalType":"bytes"}],"outputs":[{"name":"success","type":"bool","internalType":"bool"},{"name":"hookAdjustedAmountsInRaw","type":"uint256[]","internalType":"uint256[]"}],"stateMutability":"view"},{"type":"function","name":"onAfterInitialize","inputs":[{"name":"","type":"uint256[]","internalType":"uint256[]"},{"name":"","type":"uint256","internalType":"uint256"},{"name":"","type":"bytes","internalType":"bytes"}],"outputs":[{"name":"","type":"bool","internalType":"bool"}],"stateMutability":"nonpayable"},{"type":"function","name":"onAfterRemoveLiquidity","inputs":[{"name":"","type":"address","internalType":"address"},{"name":"pool","type":"address","internalType":"address"},{"name":"kind","type":"uint8","internalType":"enum RemoveLiquidityKind"},{"name":"","type":"uint256","internalType":"uint256"},{"name":"amountsOutScaled18","type":"uint256[]","internalType":"uint256[]"},{"name":"amountsOutRaw","type":"uint256[]","internalType":"uint256[]"},{"name":"balancesScaled18","type":"uint256[]","internalType":"uint256[]"},{"name":"","type":"bytes","internalType":"bytes"}],"outputs":[{"name":"success","type":"bool","internalType":"bool"},{"name":"hookAdjustedAmountsOutRaw","type":"uint256[]","internalType":"uint256[]"}],"stateMutability":"view"},{"type":"function","name":"onAfterSwap","inputs":[{"name":"","type":"tuple","internalType":"struct AfterSwapParams","components":[{"name":"kind","type":"uint8","internalType":"enum SwapKind"},{"name":"tokenIn","type":"address","internalType":"contract IERC20"},{"name":"tokenOut","type":"address","internalType":"contract IERC20"},{"name":"amountInScaled18","type":"uint256","internalType":"uint256"},{"name":"amountOutScaled18","type":"uint256","internalType":"uint256"},{"name":"tokenInBalanceScaled18","type":"uint256","internalType":"uint256"},{"name":"tokenOutBalanceScaled18","type":"uint256","internalType":"uint256"},{"name":"amountCalculatedScaled18","type":"uint256","internalType":"uint256"},{"name":"amountCalculatedRaw","type":"uint256","internalType":"uint256"},{"name":"router","type":"address","internalType":"address"},{"name":"pool","type":"address","internalType":"address"},{"name":"userData","type":"bytes","internalType":"bytes"}]}],"outputs":[{"name":"","type":"bool","internalType":"bool"},{"name":"","type":"uint256","internalType":"uint256"}],"stateMutability":"nonpayable"},{"type":"function","name":"onBeforeAddLiquidity","inputs":[{"name":"","type":"address","internalType":"address"},{"name":"","type":"address","internalType":"address"},{"name":"","type":"uint8","internalType":"enum AddLiquidityKind"},{"name":"","type":"uint256[]","internalType":"uint256[]"},{"name":"","type":"uint256","internalType":"uint256"},{"name":"","type":"uint256[]","internalType":"uint256[]"},{"name":"","type":"bytes","internalType":"bytes"}],"outputs":[{"name":"","type":"bool","internalType":"bool"}],"stateMutability":"nonpayable"},{"type":"function","name":"onBeforeInitialize","inputs":[{"name":"","type":"uint256[]","internalType":"uint256[]"},{"name":"","type":"bytes","internalType":"bytes"}],"outputs":[{"name":"","type":"bool","internalType":"bool"}],"stateMutability":"nonpayable"},{"type":"function","name":"onBeforeRemoveLiquidity","inputs":[{"name":"","type":"address","internalType":"address"},{"name":"","type":"address","internalType":"address"},{"name":"","type":"uint8","internalType":"enum RemoveLiquidityKind"},{"name":"","type":"uint256","internalType":"uint256"},{"name":"","type":"uint256[]","internalType":"uint256[]"},{"name":"","type":"uint256[]","internalType":"uint256[]"},{"name":"","type":"bytes","internalType":"bytes"}],"outputs":[{"name":"","type":"bool","internalType":"bool"}],"stateMutability":"nonpayable"},{"type":"function","name":"onBeforeSwap","inputs":[{"name":"","type":"tuple","internalType":"struct PoolSwapParams","components":[{"name":"kind","type":"uint8","internalType":"enum SwapKind"},{"name":"amountGivenScaled18","type":"uint256","internalType":"uint256"},{"name":"balancesScaled18","type":"uint256[]","internalType":"uint256[]"},{"name":"indexIn","type":"uint256","internalType":"uint256"},{"name":"indexOut","type":"uint256","internalType":"uint256"},{"name":"router","type":"address","internalType":"address"},{"name":"userData","type":"bytes","internalType":"bytes"}]},{"name":"","type":"address","internalType":"address"}],"outputs":[{"name":"","type":"bool","internalType":"bool"}],"stateMutability":"nonpayable"},{"type":"function","name":"onComputeDynamicSwapFeePercentage","inputs":[{"name":"params","type":"tuple","internalType":"struct PoolSwapParams","components":[{"name":"kind","type":"uint8","internalType":"enum SwapKind"},{"name":"amountGivenScaled18","type":"uint256","internalType":"uint256"},{"name":"balancesScaled18","type":"uint256[]","internalType":"uint256[]"},{"name":"indexIn","type":"uint256","internalType":"uint256"},{"name":"indexOut","type":"uint256","internalType":"uint256"},{"name":"router","type":"address","internalType":"address"},{"name":"userData","type":"bytes","internalType":"bytes"}]},{"name":"pool","type":"address","internalType":"address"},{"name":"staticSwapFeePercentage","type":"uint256","internalType":"uint256"}],"outputs":[{"name":"","type":"bool","internalType":"bool"},{"name":"","type":"uint256","internalType":"uint256"}],"stateMutability":"view"},{"type":"function","name":"onRegister","inputs":[{"name":"factory","type":"address","internalType":"address"},{"name":"pool","type":"address","internalType":"address"},{"name":"tokenConfig","type":"tuple[]","internalType":"struct TokenConfig[]","components":[{"name":"token","type":"address","internalType":"contract IERC20"},{"name":"tokenType","type":"uint8","internalType":"enum TokenType"},{"name":"rateProvider","type":"address","internalType":"contract IRateProvider"},{"name":"paysYieldFees","type":"bool","internalType":"bool"}]},{"name":"liquidityManagement","type":"tuple","internalType":"struct LiquidityManagement","components":[{"name":"disableUnbalancedLiquidity","type":"bool","internalType":"bool"},{"name":"enableAddLiquidityCustom","type":"bool","internalType":"bool"},{"name":"enableRemoveLiquidityCustom","type":"bool","internalType":"bool"},{"name":"enableDonation","type":"bool","internalType":"bool"}]}],"outputs":[{"name":"success","type":"bool","internalType":"bool"}],"stateMutability":"nonpayable"},{"type":"function","name":"setMaxSurgeFeePercentage","inputs":[{"name":"pool","type":"address","internalType":"address"},{"name":"newMaxSurgeSurgeFeePercentage","type":"uint256","internalType":"uint256"}],"outputs":[],"stateMutability":"nonpayable"},{"type":"function","name":"setSurgeThresholdPercentage","inputs":[{"name":"pool","type":"address","internalType":"address"},{"name":"newSurgeThresholdPercentage","type":"uint256","internalType":"uint256"}],"outputs":[],"stateMutability":"nonpayable"},{"type":"function","name":"version","inputs":[],"outputs":[{"name":"","type":"string","internalType":"string"}],"stateMutability":"view"},{"type":"event","name":"MaxSurgeFeePercentageChanged","inputs":[{"name":"pool","type":"address","indexed":true,"internalType":"address"},{"name":"newMaxSurgeFeePercentage","type":"uint256","indexed":false,"internalType":"uint256"}],"anonymous":false},{"type":"event","name":"StableSurgeHookRegistered","inputs":[{"name":"pool","type":"address","indexed":true,"internalType":"address"},{"name":"factory","type":"address","indexed":true,"internalType":"address"}],"anonymous":false},{"type":"event","name":"ThresholdSurgePercentageChanged","inputs":[{"name":"pool","type":"address","indexed":true,"internalType":"address"},{"name":"newSurgeThresholdPercentage","type":"uint256","indexed":false,"internalType":"uint256"}],"anonymous":false},{"type":"error","name":"InputLengthMismatch","inputs":[]},{"type":"error","name":"InvalidPercentage","inputs":[]},{"type":"error","name":"SenderIsNotVault","inputs":[{"name":"sender","type":"address","internalType":"address"}]},{"type":"error","name":"SenderNotAllowed","inputs":[]},{"type":"error","name":"VaultNotSet","inputs":[]}],"bytecode":{"object":"0x610120604052348015610010575f5ffd5b5060405161249838038061249883398101604081905261002f916100fe565b6001600160a01b03841660808190523060a0819052859185918591859182918691829161006f57604051630647140b60e51b815260040160405180910390fd5b506001600160a01b031660c05250610086816100af565b50610090836100be565b610099826100be565b5060e091909152610100525061031e9350505050565b5f6100ba8282610264565b5050565b670de0b6b3a76400008111156100e757604051631f3b85d360e01b815260040160405180910390fd5b50565b634e487b7160e01b5f52604160045260245ffd5b5f5f5f5f60808587031215610111575f5ffd5b84516001600160a01b0381168114610127575f5ffd5b60208601516040870151606088015192965090945092506001600160401b03811115610151575f5ffd5b8501601f81018713610161575f5ffd5b80516001600160401b0381111561017a5761017a6100ea565b604051601f8201601f19908116603f011681016001600160401b03811182821017156101a8576101a86100ea565b6040528181528282016020018910156101bf575f5ffd5b8160208401602083015e5f6020838301015280935050505092959194509250565b600181811c908216806101f457607f821691505b60208210810361021257634e487b7160e01b5f52602260045260245ffd5b50919050565b601f82111561025f57805f5260205f20601f840160051c8101602085101561023d5750805b601f840160051c820191505b8181101561025c575f8155600101610249565b50505b505050565b81516001600160401b0381111561027d5761027d6100ea565b6102918161028b84546101e0565b84610218565b6020601f8211600181146102c3575f83156102ac5750848201515b5f19600385901b1c1916600184901b17845561025c565b5f84815260208120601f198516915b828110156102f257878501518255602094850194600190920191016102d2565b508482101561030f57868401515f19600387901b60f8161c191681555b50505050600190811b01905550565b60805160a05160c05160e0516101005161211a61037e5f395f81816102ae0152610b1a01525f81816103250152610af001525f81816105c40152818161070b01528181610814015261110b01525f6107b101525f610a96015261211a5ff3fe608060405234801561000f575f5ffd5b5060043610610126575f3560e01c80630b89f1821461012a57806318b6eb55146101525780631a4a64be1461017e5780631c149e28146101c4578063249d6761146101d75780632754888d146101ea57806338be241d1461020b5780633a61bdea1461022157806345421ec7146102345780634e493cfd1461024e5780635211fa771461026357806354fd4d501461027157806359f0046614610286578063851c1bb3146102995780638bc694ad146102ac5780638d928af8146102d2578063976907cc146102e7578063a0e8f5ac146102fa578063aaabadc51461030d578063ba5f9f4014610315578063c17ef2cc14610323578063c88511a214610349578063d77153a71461035c578063e2381602146103b5575b5f5ffd5b61013d6101383660046114b8565b6103e6565b60405190151581526020015b60405180910390f35b6101676101603660046115e3565b505f908190565b604080519215158352602083019190915201610149565b6101b661018c36600461161a565b6001600160a01b03165f90815260016020526040902054600160401b90046001600160401b031690565b604051908152602001610149565b61013d6101d23660046116fb565b610445565b6101b66101e536600461176e565b61044d565b6101fd6101f83660046117d1565b610463565b6040516101499291906118c0565b61013d61021936600461190f565b5f9392505050565b61013d61022f36600461176e565b610560565b61013d610242366004611988565b5f979650505050505050565b61026161025c366004611a4f565b6105b6565b005b61013d6101d2366004611a79565b61027961066e565b6040516101499190611ac7565b610261610294366004611a4f565b6106fd565b6101b66102a7366004611afc565b6107ae565b7f00000000000000000000000000000000000000000000000000000000000000006101b6565b6102da610812565b6040516101499190611b23565b6101fd6102f5366004611b37565b61083b565b61016761030836600461176e565b610935565b6102da610950565b61013d610242366004611be3565b7f00000000000000000000000000000000000000000000000000000000000000006101b6565b6101b661035736600461176e565b6109b8565b60408051610140810182525f808252602082018190528183018190526080820181905260a0820181905260c0820181905261010082015260016060820181905260e0820181905261012082015290516101499190611c68565b6101b66103c336600461161a565b6001600160a01b03165f908152600160205260409020546001600160401b031690565b5f6103ef610a8b565b6103fb85858585610ae1565b9050846001600160a01b0316846001600160a01b03167ffd42028b1ab0233596a5bfda7bb185da4a89e41288da447e5135765d4b50d46b60405160405180910390a3949350505050565b5f5b92915050565b5f6104598484846109b8565b90505b9392505050565b5f60608188600381111561047957610479611d31565b0361048957506001905083610553565b5f84516001600160401b038111156104a3576104a36113fb565b6040519080825280602002602001820160405280156104cc578160200160208202803683370190505b5090505f5b855181101561053d578781815181106104ec576104ec611d45565b602002602001015186828151811061050657610506611d45565b60200260200101516105189190611d6d565b82828151811061052a5761052a611d45565b60209081029190910101526001016104d1565b505f61054a8b8388610b49565b15935086925050505b9850989650505050505050565b6001600160a01b0382165f9081526001602090815260408083208151808301909252546001600160401b038082168352600160401b90910416918101919091526105ac85858584610bba565b5095945050505050565b806105c081610e46565b825f7f00000000000000000000000000000000000000000000000000000000000000006001600160a01b031663e9ddeb26836040518263ffffffff1660e01b815260040161060e9190611b23565b606060405180830381865afa158015610629573d5f5f3e3d5ffd5b505050506040513d601f19601f8201168201806040525081019061064d9190611d80565b60200151905061065d8282610e72565b6106678585610eec565b5050505050565b60605f805461067c90611df1565b80601f01602080910402602001604051908101604052809291908181526020018280546106a890611df1565b80156106f35780601f106106ca576101008083540402835291602001916106f3565b820191905f5260205f20905b8154815290600101906020018083116106d657829003601f168201915b5050505050905090565b8061070781610e46565b825f7f00000000000000000000000000000000000000000000000000000000000000006001600160a01b031663e9ddeb26836040518263ffffffff1660e01b81526004016107559190611b23565b606060405180830381865afa158015610770573d5f5f3e3d5ffd5b505050506040513d601f19601f820116820180604052508101906107949190611d80565b6020015190506107a48282610e72565b6106678585610f75565b5f7f0000000000000000000000000000000000000000000000000000000000000000826040516020016107f59291909182526001600160e01b031916602082015260240190565b604051602081830303815290604052805190602001209050919050565b7f000000000000000000000000000000000000000000000000000000000000000090565b905090565b5f60608188600481111561085157610851611d31565b0361086157506001905084610553565b5f84516001600160401b0381111561087b5761087b6113fb565b6040519080825280602002602001820160405280156108a4578160200160208202803683370190505b5090505f5b8551811015610915578881815181106108c4576108c4611d45565b60200260200101518682815181106108de576108de611d45565b60200260200101516108f09190611e23565b82828151811061090257610902611d45565b60209081029190910101526001016108a9565b505f6109228b8388610b49565b159c979b50969950505050505050505050565b5f5f60016109448686866109b8565b91509150935093915050565b5f610959610812565b6001600160a01b031663aaabadc56040518163ffffffff1660e01b8152600401602060405180830381865afa158015610994573d5f5f3e3d5ffd5b505050506040513d601f19601f820116820180604052508101906108369190611e36565b6001600160a01b0382165f9081526001602090815260408083208151808301909252546001600160401b038082168352600160401b90910416918101919091528180610a0687878786610bba565b915091508115610a7d578251610a6c90610a4d906001600160401b0316670de0b6b3a76400008181039110028551610a47906001600160401b031685611e23565b90610fe6565b8685602001516001600160401b0316610a669190611e23565b9061100e565b610a769086611d6d565b9350610a81565b8493505b5050509392505050565b336001600160a01b037f00000000000000000000000000000000000000000000000000000000000000001614610adf573360405163089676d560e01b8152600401610ad69190611b23565b60405180910390fd5b565b5f610aea610a8b565b610b14847f0000000000000000000000000000000000000000000000000000000000000000610eec565b610b3e847f0000000000000000000000000000000000000000000000000000000000000000610f75565b506001949350505050565b6001600160a01b0383165f9081526001602090815260408083208151808301909252546001600160401b038082168352600160401b909104169181019190915281610b938561102e565b90505f610b9f8561102e565b9050610baf835f015183836110ba565b979650505050505050565b5f5f8383602001516001600160401b03161015610bdb57505f905080610e3d565b604051633964c0c360e11b81525f906001600160a01b038716906372c9818690610c09908a90600401611f35565b602060405180830381865afa158015610c24573d5f5f3e3d5ffd5b505050506040513d601f19601f82011682018060405250810190610c489190612001565b90505f610c586040890189612018565b90506001600160401b03811115610c7157610c716113fb565b604051908082528060200260200182016040528015610c9a578160200160208202803683370190505b509050610ce5610cad60408a018a612018565b808060200260200160405190810160405280939291908181526020018383602002808284375f920191909152508592506110e7915050565b5f610cf360208a018a61205d565b6001811115610d0457610d04611d31565b03610d7157876020013581896060013581518110610d2457610d24611d45565b60200260200101818151610d389190611d6d565b90525080518290829060808b0135908110610d5557610d55611d45565b60200260200101818151610d699190611e23565b905250610dd5565b8181896060013581518110610d8857610d88611d45565b60200260200101818151610d9c9190611d6d565b9052508051602089013590829060808b0135908110610dbd57610dbd611d45565b60200260200101818151610dd19190611e23565b9052505b5f610e1c610de660408b018b612018565b808060200260200160405190810160405280939291908181526020018383602002808284375f9201919091525061102e92505050565b9050610e278261102e565b9350610e37865f015182866110ba565b94505050505b94509492505050565b670de0b6b3a7640000811115610e6f57604051631f3b85d360e01b815260040160405180910390fd5b50565b6001600160a01b038116610ec357610e9e610e975f356001600160e01b0319166107ae565b3384611108565b15155f03610ebf576040516323dada5360e01b815260040160405180910390fd5b5050565b336001600160a01b03821614610ebf576040516323dada5360e01b815260040160405180910390fd5b610ef581611202565b6001600160a01b0383165f818152600160205260409081902080546001600160401b0394909416600160401b02600160401b600160801b03199094169390931790925590517fcc7585f1dd40a0def67658a884745a1eca326ed902fe084d36e9e0408421203290610f699084815260200190565b60405180910390a25050565b610f7e81611202565b6001600160a01b0383165f8181526001602090815260409182902080546001600160401b0319166001600160401b0395909516949094179093555183815290917f3b64afdb883fd4fa590572fb2db0b4d199d8ffb9703f5d32f4d87d1d468c026c9101610f69565b5f80610ffa670de0b6b3a764000085612078565b905061100683826120a3565b949350505050565b5f8061101a8385612078565b9050611006670de0b6b3a7640000826120a3565b5f5f6110398361120c565b90505f80805b85518110156110a65785818151811061105a5761105a611d45565b60200260200101518361106d9190611d6d565b925061109286828151811061108457611084611d45565b6020026020010151856112b7565b61109c9083611d6d565b915060010161103f565b506110b18183610fe6565b95945050505050565b5f815f036110c957505f61045c565b82821180156104595750506001600160401b03909216909111919050565b815181516110f69082906112cd565b6020810260208401602084015e505050565b5f7f00000000000000000000000000000000000000000000000000000000000000006001600160a01b031663aaabadc56040518163ffffffff1660e01b8152600401602060405180830381865afa158015611165573d5f5f3e3d5ffd5b505050506040513d601f19601f820116820180604052508101906111899190611e36565b6040516326f8aa2160e21b8152600481018690526001600160a01b03858116602483015284811660448301529190911690639be2a88490606401602060405180830381865afa1580156111de573d5f5f3e3d5ffd5b505050506040513d601f19601f8201168201806040525081019061045991906120b6565b5f610447826112ed565b5f5f61121783611305565b90505f6002825161122891906120a3565b90506002825161123891906120d1565b5f0361129457600282828151811061125257611252611d45565b6020026020010151836001846112689190611e23565b8151811061127857611278611d45565b602002602001015161128a9190611d6d565b61100691906120a3565b8181815181106112a6576112a6611d45565b602002602001015192505050919050565b5f8183116112c75782820361045c565b50900390565b808214610ebf5760405163aaad13f760e01b815260040160405180910390fd5b5f600160401b82106113015761130161131a565b5090565b60606113138261132761132b565b5090919050565b6335278d125f526004601cfd5b1190565b60606113136020840161133d85611343565b8461135a565b5f81516020026113538360200190565b0192915050565b6040838303101561136a57505050565b5f611373845190565b905083602081015b848110156113b55761139861138e825190565b848663ffffffff16565b156113ad576020919091018051825182528252905b60200161137b565b5084518151865281526113c985828561135a565b61066781602001858561135a565b6001600160a01b0381168114610e6f575f5ffd5b80356113f6816113d7565b919050565b634e487b7160e01b5f52604160045260245ffd5b604051608081016001600160401b0381118282101715611431576114316113fb565b60405290565b604051601f8201601f191681016001600160401b038111828210171561145f5761145f6113fb565b604052919050565b5f6001600160401b0382111561147f5761147f6113fb565b5060051b60200190565b60028110610e6f575f5ffd5b8015158114610e6f575f5ffd5b5f608082840312156114b2575f5ffd5b50919050565b5f5f5f5f60e085870312156114cb575f5ffd5b84356114d6816113d7565b935060208501356114e6816113d7565b925060408501356001600160401b03811115611500575f5ffd5b8501601f81018713611510575f5ffd5b803561152361151e82611467565b611437565b8082825260208201915060208360071b850101925089831115611544575f5ffd5b6020840193505b828410156115c4576080848b031215611562575f5ffd5b61156a61140f565b8435611575816113d7565b8152602085013561158581611489565b60208201526040850135611598816113d7565b604082015260608501356115ab81611495565b606082015282526080939093019260209091019061154b565b809550505050506115d886606087016114a2565b905092959194509250565b5f602082840312156115f3575f5ffd5b81356001600160401b03811115611608575f5ffd5b8201610180818503121561045c575f5ffd5b5f6020828403121561162a575f5ffd5b813561045c816113d7565b5f82601f830112611644575f5ffd5b813561165261151e82611467565b8082825260208201915060208360051b860101925085831115611673575f5ffd5b602085015b838110156105ac578035835260209283019201611678565b5f82601f83011261169f575f5ffd5b81356001600160401b038111156116b8576116b86113fb565b6116cb601f8201601f1916602001611437565b8181528460208386010111156116df575f5ffd5b816020850160208301375f918101602001919091529392505050565b5f5f6040838503121561170c575f5ffd5b82356001600160401b03811115611721575f5ffd5b61172d85828601611635565b92505060208301356001600160401b03811115611748575f5ffd5b61175485828601611690565b9150509250929050565b5f60e082840312156114b2575f5ffd5b5f5f5f60608486031215611780575f5ffd5b83356001600160401b03811115611795575f5ffd5b6117a18682870161175e565b93505060208401356117b2816113d7565b929592945050506040919091013590565b8035600481106113f6575f5ffd5b5f5f5f5f5f5f5f5f610100898b0312156117e9575f5ffd5b6117f2896113eb565b975061180060208a016113eb565b965061180e60408a016117c3565b95506060890135945060808901356001600160401b0381111561182f575f5ffd5b61183b8b828c01611635565b94505060a08901356001600160401b03811115611856575f5ffd5b6118628b828c01611635565b93505060c08901356001600160401b0381111561187d575f5ffd5b6118898b828c01611635565b92505060e08901356001600160401b038111156118a4575f5ffd5b6118b08b828c01611690565b9150509295985092959890939650565b5f604082018415158352604060208401528084518083526060850191506020860192505f5b818110156119035783518352602093840193909201916001016118e5565b50909695505050505050565b5f5f5f60608486031215611921575f5ffd5b83356001600160401b03811115611936575f5ffd5b61194286828701611635565b9350506020840135915060408401356001600160401b03811115611964575f5ffd5b61197086828701611690565b9150509250925092565b8035600581106113f6575f5ffd5b5f5f5f5f5f5f5f60e0888a03121561199e575f5ffd5b87356119a9816113d7565b96506119b7602089016113eb565b95506119c56040890161197a565b945060608801356001600160401b038111156119df575f5ffd5b6119eb8a828b01611635565b9450506080880135925060a08801356001600160401b03811115611a0d575f5ffd5b611a198a828b01611635565b92505060c08801356001600160401b03811115611a34575f5ffd5b611a408a828b01611690565b91505092959891949750929550565b5f5f60408385031215611a60575f5ffd5b8235611a6b816113d7565b946020939093013593505050565b5f5f60408385031215611a8a575f5ffd5b82356001600160401b03811115611a9f575f5ffd5b611aab8582860161175e565b9250506020830135611abc816113d7565b809150509250929050565b602081525f82518060208401528060208501604085015e5f604082850101526040601f19601f83011684010191505092915050565b5f60208284031215611b0c575f5ffd5b81356001600160e01b03198116811461045c575f5ffd5b6001600160a01b0391909116815260200190565b5f5f5f5f5f5f5f5f610100898b031215611b4f575f5ffd5b611b58896113eb565b9750611b6660208a016113eb565b9650611b7460408a0161197a565b955060608901356001600160401b03811115611b8e575f5ffd5b611b9a8b828c01611635565b95505060808901356001600160401b03811115611bb5575f5ffd5b611bc18b828c01611635565b94505060a0890135925060c08901356001600160401b0381111561187d575f5ffd5b5f5f5f5f5f5f5f60e0888a031215611bf9575f5ffd5b8735611c04816113d7565b9650611c12602089016113eb565b9550611c20604089016117c3565b94506060880135935060808801356001600160401b03811115611c41575f5ffd5b611c4d8a828b01611635565b93505060a08801356001600160401b03811115611a0d575f5ffd5b81511515815261014081016020830151611c86602084018215159052565b506040830151611c9a604084018215159052565b506060830151611cae606084018215159052565b506080830151611cc2608084018215159052565b5060a0830151611cd660a084018215159052565b5060c0830151611cea60c084018215159052565b5060e0830151611cfe60e084018215159052565b50610100830151611d1461010084018215159052565b50610120830151611d2a61012084018215159052565b5092915050565b634e487b7160e01b5f52602160045260245ffd5b634e487b7160e01b5f52603260045260245ffd5b634e487b7160e01b5f52601160045260245ffd5b8082018082111561044757610447611d59565b5f6060828403128015611d91575f5ffd5b50604051606081016001600160401b0381118282101715611db457611db46113fb565b6040528251611dc2816113d7565b81526020830151611dd2816113d7565b60208201526040830151611de5816113d7565b60408201529392505050565b600181811c90821680611e0557607f821691505b6020821081036114b257634e487b7160e01b5f52602260045260245ffd5b8181038181111561044757610447611d59565b5f60208284031215611e46575f5ffd5b815161045c816113d7565b5f5f8335601e19843603018112611e66575f5ffd5b83016020810192503590506001600160401b03811115611e84575f5ffd5b8060051b3603821315611e95575f5ffd5b9250929050565b8183525f6001600160fb1b03831115611eb3575f5ffd5b8260051b80836020870137939093016020019392505050565b5f5f8335601e19843603018112611ee1575f5ffd5b83016020810192503590506001600160401b03811115611eff575f5ffd5b803603821315611e95575f5ffd5b81835281816020850137505f828201602090810191909152601f909101601f19169091010190565b602081525f8235611f4581611489565b60028110611f6157634e487b7160e01b5f52602160045260245ffd5b806020840152505f6020840135905080604084015250611f846040840184611e51565b60e06060850152611f9a61010085018284611e9c565b606086013560808681019190915286013560a080870191909152909250611fc3915085016113eb565b6001600160a01b03811660c085015250611fe060c0850185611ecc565b848303601f190160e0860152611ff7838284611f0d565b9695505050505050565b5f60208284031215612011575f5ffd5b5051919050565b5f5f8335601e1984360301811261202d575f5ffd5b8301803591506001600160401b03821115612046575f5ffd5b6020019150600581901b3603821315611e95575f5ffd5b5f6020828403121561206d575f5ffd5b813561045c81611489565b808202811582820484141761044757610447611d59565b634e487b7160e01b5f52601260045260245ffd5b5f826120b1576120b161208f565b500490565b5f602082840312156120c6575f5ffd5b815161045c81611495565b5f826120df576120df61208f565b50069056fea2646970667358221220740fde74f96584b0bb5e2e956388c3f2eebee8ae8284040d255bccbf8bfa365364736f6c634300081e0033","linkReferences":{}},"methodIdentifiers":{"computeSwapSurgeFeePercentage((uint8,uint256,uint256[],uint256,uint256,address,bytes),address,uint256)":"c88511a2","getActionId(bytes4)":"851c1bb3","getAuthorizer()":"aaabadc5","getDefaultMaxSurgeFeePercentage()":"c17ef2cc","getDefaultSurgeThresholdPercentage()":"8bc694ad","getHookFlags()":"d77153a7","getMaxSurgeFeePercentage(address)":"1a4a64be","getSurgeFeePercentage((uint8,uint256,uint256[],uint256,uint256,address,bytes),address,uint256)":"249d6761","getSurgeThresholdPercentage(address)":"e2381602","getVault()":"8d928af8","isSurgingSwap((uint8,uint256,uint256[],uint256,uint256,address,bytes),address,uint256)":"3a61bdea","onAfterAddLiquidity(address,address,uint8,uint256[],uint256[],uint256,uint256[],bytes)":"976907cc","onAfterInitialize(uint256[],uint256,bytes)":"38be241d","onAfterRemoveLiquidity(address,address,uint8,uint256,uint256[],uint256[],uint256[],bytes)":"2754888d","onAfterSwap((uint8,address,address,uint256,uint256,uint256,uint256,uint256,uint256,address,address,bytes))":"18b6eb55","onBeforeAddLiquidity(address,address,uint8,uint256[],uint256,uint256[],bytes)":"45421ec7","onBeforeInitialize(uint256[],bytes)":"1c149e28","onBeforeRemoveLiquidity(address,address,uint8,uint256,uint256[],uint256[],bytes)":"ba5f9f40","onBeforeSwap((uint8,uint256,uint256[],uint256,uint256,address,bytes),address)":"5211fa77","onComputeDynamicSwapFeePercentage((uint8,uint256,uint256[],uint256,uint256,address,bytes),address,uint256)":"a0e8f5ac","onRegister(address,address,(address,uint8,address,bool)[],(bool,bool,bool,bool))":"0b89f182","setMaxSurgeFeePercentage(address,uint256)":"4e493cfd","setSurgeThresholdPercentage(address,uint256)":"59f00466","version()":"54fd4d50"},"id":857}