{"abi":[{"type":"constructor","inputs":[{"name":"_fallbackPoolFactory","type":"address","internalType":"address"},{"name":"_fallbackVotingRewardsFactory","type":"address","internalType":"address"},{"name":"_fallbackGaugeFactory","type":"address","internalType":"address"},{"name":"_newManagedRewardsFactory","type":"address","internalType":"address"}],"stateMutability":"nonpayable"},{"type":"function","name":"approve","inputs":[{"name":"poolFactory","type":"address","internalType":"address"},{"name":"votingRewardsFactory","type":"address","internalType":"address"},{"name":"gaugeFactory","type":"address","internalType":"address"}],"outputs":[],"stateMutability":"nonpayable"},{"type":"function","name":"cancelOwnershipHandover","inputs":[],"outputs":[],"stateMutability":"payable"},{"type":"function","name":"completeOwnershipHandover","inputs":[{"name":"pendingOwner","type":"address","internalType":"address"}],"outputs":[],"stateMutability":"payable"},{"type":"function","name":"factoriesToPoolFactory","inputs":[{"name":"poolFactory","type":"address","internalType":"address"}],"outputs":[{"name":"votingRewardsFactory","type":"address","internalType":"address"},{"name":"gaugeFactory","type":"address","internalType":"address"}],"stateMutability":"view"},{"type":"function","name":"fallbackPoolFactory","inputs":[],"outputs":[{"name":"","type":"address","internalType":"address"}],"stateMutability":"view"},{"type":"function","name":"isPoolFactoryApproved","inputs":[{"name":"poolFactory","type":"address","internalType":"address"}],"outputs":[{"name":"","type":"bool","internalType":"bool"}],"stateMutability":"view"},{"type":"function","name":"managedRewardsFactory","inputs":[],"outputs":[{"name":"","type":"address","internalType":"address"}],"stateMutability":"view"},{"type":"function","name":"owner","inputs":[],"outputs":[{"name":"","type":"address","internalType":"address"}],"stateMutability":"view"},{"type":"function","name":"ownershipHandoverExpiresAt","inputs":[{"name":"pendingOwner","type":"address","internalType":"address"}],"outputs":[{"name":"result","type":"uint256","internalType":"uint256"}],"stateMutability":"view"},{"type":"function","name":"poolFactories","inputs":[],"outputs":[{"name":"","type":"address[]","internalType":"address[]"}],"stateMutability":"view"},{"type":"function","name":"poolFactoriesLength","inputs":[],"outputs":[{"name":"","type":"uint256","internalType":"uint256"}],"stateMutability":"view"},{"type":"function","name":"renounceOwnership","inputs":[],"outputs":[],"stateMutability":"payable"},{"type":"function","name":"requestOwnershipHandover","inputs":[],"outputs":[],"stateMutability":"payable"},{"type":"function","name":"setManagedRewardsFactory","inputs":[{"name":"_newManagedRewardsFactory","type":"address","internalType":"address"}],"outputs":[],"stateMutability":"nonpayable"},{"type":"function","name":"transferOwnership","inputs":[{"name":"newOwner","type":"address","internalType":"address"}],"outputs":[],"stateMutability":"payable"},{"type":"function","name":"unapprove","inputs":[{"name":"poolFactory","type":"address","internalType":"address"}],"outputs":[],"stateMutability":"nonpayable"},{"type":"event","name":"Approve","inputs":[{"name":"poolFactory","type":"address","indexed":true,"internalType":"address"},{"name":"votingRewardsFactory","type":"address","indexed":true,"internalType":"address"},{"name":"gaugeFactory","type":"address","indexed":true,"internalType":"address"}],"anonymous":false},{"type":"event","name":"OwnershipHandoverCanceled","inputs":[{"name":"pendingOwner","type":"address","indexed":true,"internalType":"address"}],"anonymous":false},{"type":"event","name":"OwnershipHandoverRequested","inputs":[{"name":"pendingOwner","type":"address","indexed":true,"internalType":"address"}],"anonymous":false},{"type":"event","name":"OwnershipTransferred","inputs":[{"name":"oldOwner","type":"address","indexed":true,"internalType":"address"},{"name":"newOwner","type":"address","indexed":true,"internalType":"address"}],"anonymous":false},{"type":"event","name":"SetManagedRewardsFactory","inputs":[{"name":"_newRewardsFactory","type":"address","indexed":true,"internalType":"address"}],"anonymous":false},{"type":"event","name":"Unapprove","inputs":[{"name":"poolFactory","type":"address","indexed":true,"internalType":"address"},{"name":"votingRewardsFactory","type":"address","indexed":true,"internalType":"address"},{"name":"gaugeFactory","type":"address","indexed":true,"internalType":"address"}],"anonymous":false},{"type":"error","name":"AlreadyInitialized","inputs":[]},{"type":"error","name":"FallbackFactory","inputs":[]},{"type":"error","name":"InvalidFactoriesToPoolFactory","inputs":[]},{"type":"error","name":"NewOwnerIsZeroAddress","inputs":[]},{"type":"error","name":"NoHandoverRequest","inputs":[]},{"type":"error","name":"OwnableInvalidOwner","inputs":[{"name":"owner","type":"address","internalType":"address"}]},{"type":"error","name":"OwnableUnauthorizedAccount","inputs":[{"name":"account","type":"address","internalType":"address"}]},{"type":"error","name":"PathAlreadyApproved","inputs":[]},{"type":"error","name":"PathNotApproved","inputs":[]},{"type":"error","name":"SameAddress","inputs":[]},{"type":"error","name":"Unauthorized","inputs":[]},{"type":"error","name":"ZeroAddress","inputs":[]}],"bytecode":{"object":"0x60a060405234801561000f575f5ffd5b5060405161100c38038061100c83398101604081905261002e9161042c565b3380610058575f604051631e4fbdf760e01b815260040161004f919061047d565b60405180910390fd5b6100618161008c565b506001600160a01b03841660805261007a8484846100c7565b6100838161028e565b50505050610491565b6001600160a01b0316638b78c6d819819055805f7f8be0079c531659141344cd1fd0a4f28419497f9722a3daafe3b4186f6b6457e08180a350565b6100cf610332565b6001600160a01b03831615806100ec57506001600160a01b038216155b806100fe57506001600160a01b038116155b1561011c5760405163d92e233d60e01b815260040160405180910390fd5b61012760018461036f565b15610145576040516362cee17560e11b815260040160405180910390fd5b6001600160a01b038084165f9081526003602090815260409182902082518084019093528054841680845260019091015490931690820152906101e2576040805180820182526001600160a01b03808616825284811660208084019182528883165f908152600390915293909320915182549082166001600160a01b03199182161783559251600190920180549290911691909216179055610232565b80516001600160a01b038481169116141580610214575080602001516001600160a01b0316826001600160a01b031614155b1561023257604051630358043160e01b815260040160405180910390fd5b61023d60018561038c565b50816001600160a01b0316836001600160a01b0316856001600160a01b03167f5abe7702ac48299ef7647755d7af6d6a6beecd1c584bbb6fa55b7a882490efc760405160405180910390a450505050565b610296610332565b5f546001600160a01b03908116908216036102c45760405163367558c360e01b815260040160405180910390fd5b6001600160a01b0381166102eb5760405163d92e233d60e01b815260040160405180910390fd5b5f80546001600160a01b0319166001600160a01b038316908117825560405190917f3123bae5152a999decbb5b69306adb30fa19885cf983c49427fd5b4594dcb03791a250565b61033a6103a0565b6001600160a01b0316336001600160a01b03161461036d573360405163118cdaa760e01b815260040161004f919061047d565b565b5f610383836001600160a01b0384166103b3565b90505b92915050565b5f610383836001600160a01b0384166103ca565b5f6103ae638b78c6d8195490565b905090565b5f9081526001919091016020526040902054151590565b5f6103d583836103b3565b61040a57508154600181810184555f848152602080822090930184905584548482528286019093526040902091909155610386565b505f610386565b80516001600160a01b0381168114610427575f5ffd5b919050565b5f5f5f5f6080858703121561043f575f5ffd5b61044885610411565b935061045660208601610411565b925061046460408601610411565b915061047260608601610411565b905092959194509250565b6001600160a01b0391909116815260200190565b608051610b5c6104b05f395f818161019901526106c00152610b5c5ff3fe6080604052600436106100c2575f3560e01c806306121cd5146100c65780630cb299c9146100f05780630d0ae678146101125780631217afdb14610137578063256929621461017657806354d1f13d1461018057806356d9cb641461018857806364076939146101bb578063715018a6146101da5780638da5cb5b146101e25780639b140a85146101f6578063d1ea0a1d14610215578063f04e283e14610244578063f2fde38b14610257578063fbf1f78a1461026a578063fee81cf414610289575b5f5ffd5b3480156100d1575f5ffd5b506100da6102ba565b6040516100e79190610a0c565b60405180910390f35b3480156100fb575f5ffd5b506101046102cb565b6040519081526020016100e7565b34801561011d575f5ffd5b505f546001600160a01b03165b6040516100e79190610a57565b348015610142575f5ffd5b50610156610151366004610a86565b6102d6565b604080516001600160a01b039384168152929091166020830152016100e7565b61017e610313565b005b61017e61035f565b348015610193575f5ffd5b5061012a7f000000000000000000000000000000000000000000000000000000000000000081565b3480156101c6575f5ffd5b5061017e6101d5366004610a86565b610398565b61017e61043c565b3480156101ed575f5ffd5b5061012a61044f565b348015610201575f5ffd5b5061017e610210366004610a9f565b61045d565b348015610220575f5ffd5b5061023461022f366004610a86565b610624565b60405190151581526020016100e7565b61017e610252366004610a86565b610636565b61017e610265366004610a86565b610673565b348015610275575f5ffd5b5061017e610284366004610a86565b6106b6565b348015610294575f5ffd5b506101046102a3366004610a86565b63389a75e1600c9081525f91909152602090205490565b60606102c660016107a2565b905090565b5f6102c660016107b5565b6001600160a01b039081165f9081526003602090815260409182902082518084019093528054841680845260019091015490931691018190529091565b5f6202a3006001600160401b03164201905063389a75e1600c52335f52806020600c2055337fdbf36a107da19e49527a7176a1babf963b4b0ff8cde35ee35d6cd8f1f9ac7e1d5f5fa250565b63389a75e1600c52335f525f6020600c2055337ffa7b8eab7da67f412cc9575ed43464468f9bfbae89d1675917346ca6d8fe3c925f5fa2565b6103a06107be565b5f546001600160a01b03908116908216036103ce5760405163367558c360e01b815260040160405180910390fd5b6001600160a01b0381166103f55760405163d92e233d60e01b815260040160405180910390fd5b5f80546001600160a01b0319166001600160a01b038316908117825560405190917f3123bae5152a999decbb5b69306adb30fa19885cf983c49427fd5b4594dcb03791a250565b6104446107be565b61044d5f6107f9565b565b5f6102c6638b78c6d8195490565b6104656107be565b6001600160a01b038316158061048257506001600160a01b038216155b8061049457506001600160a01b038116155b156104b25760405163d92e233d60e01b815260040160405180910390fd5b6104bd600184610836565b156104db576040516362cee17560e11b815260040160405180910390fd5b6001600160a01b038084165f908152600360209081526040918290208251808401909352805484168084526001909101549093169082015290610578576040805180820182526001600160a01b03808616825284811660208084019182528883165f908152600390915293909320915182549082166001600160a01b031991821617835592516001909201805492909116919092161790556105c8565b80516001600160a01b0384811691161415806105aa575080602001516001600160a01b0316826001600160a01b031614155b156105c857604051630358043160e01b815260040160405180910390fd5b6105d360018561084a565b50816001600160a01b0316836001600160a01b0316856001600160a01b03167f5abe7702ac48299ef7647755d7af6d6a6beecd1c584bbb6fa55b7a882490efc760405160405180910390a450505050565b5f610630600183610836565b92915050565b61063e6107be565b63389a75e1600c52805f526020600c20805442111561066457636f5e88185f526004601cfd5b5f9055610670816107f9565b50565b61067b6107be565b6001600160a01b0381166106ad575f604051631e4fbdf760e01b81526004016106a49190610a57565b60405180910390fd5b610670816107f9565b6106be6107be565b7f00000000000000000000000000000000000000000000000000000000000000006001600160a01b0316816001600160a01b03160361071057604051630a235adf60e11b815260040160405180910390fd5b61071b600182610836565b6107385760405163d38afd6560e01b815260040160405180910390fd5b61074360018261085e565b505f5f61074f836102d6565b91509150806001600160a01b0316826001600160a01b0316846001600160a01b03167fbbbf8609bccd24696f7d2d86357dbd1a55ff9b79853a72ea11b1c0968ada177660405160405180910390a4505050565b60605f6107ae83610872565b9392505050565b5f610630825490565b6107c661044f565b6001600160a01b0316336001600160a01b03161461044d573360405163118cdaa760e01b81526004016106a49190610a57565b638b78c6d81980546001600160a01b039092169182907f8be0079c531659141344cd1fd0a4f28419497f9722a3daafe3b4186f6b6457e05f80a355565b5f6107ae836001600160a01b0384166108cb565b5f6107ae836001600160a01b0384166108e2565b5f6107ae836001600160a01b038416610929565b6060815f018054806020026020016040519081016040528092919081815260200182805480156108bf57602002820191905f5260205f20905b8154815260200190600101908083116108ab575b50505050509050919050565b5f9081526001919091016020526040902054151590565b5f6108ed83836108cb565b61092257508154600181810184555f848152602080822090930184905584548482528286019093526040902091909155610630565b505f610630565b5f8181526001830160205260408120548015610a03575f61094b600183610adf565b85549091505f9061095e90600190610adf565b90508082146109bd575f865f01828154811061097c5761097c610afe565b905f5260205f200154905080875f01848154811061099c5761099c610afe565b5f918252602080832090910192909255918252600188019052604090208390555b85548690806109ce576109ce610b12565b600190038181905f5260205f20015f90559055856001015f8681526020019081526020015f205f905560019350505050610630565b5f915050610630565b602080825282518282018190525f918401906040840190835b81811015610a4c5783516001600160a01b0316835260209384019390920191600101610a25565b509095945050505050565b6001600160a01b0391909116815260200190565b80356001600160a01b0381168114610a81575f5ffd5b919050565b5f60208284031215610a96575f5ffd5b6107ae82610a6b565b5f5f5f60608486031215610ab1575f5ffd5b610aba84610a6b565b9250610ac860208501610a6b565b9150610ad660408501610a6b565b90509250925092565b8181038181111561063057634e487b7160e01b5f52601160045260245ffd5b634e487b7160e01b5f52603260045260245ffd5b634e487b7160e01b5f52603160045260245ffdfea2646970667358221220536f4ccf98a508bf84aafb8a99b7ada9dad4136b4969d77df480a26b08020c9464736f6c634300081e0033","linkReferences":{}},"methodIdentifiers":{"approve(address,address,address)":"9b140a85","cancelOwnershipHandover()":"54d1f13d","completeOwnershipHandover(address)":"f04e283e","factoriesToPoolFactory(address)":"1217afdb","fallbackPoolFactory()":"56d9cb64","isPoolFactoryApproved(address)":"d1ea0a1d","managedRewardsFactory()":"0d0ae678","owner()":"8da5cb5b","ownershipHandoverExpiresAt(address)":"fee81cf4","poolFactories()":"06121cd5","poolFactoriesLength()":"0cb299c9","renounceOwnership()":"715018a6","requestOwnershipHandover()":"25692962","setManagedRewardsFactory(address)":"64076939","transferOwnership(address)":"f2fde38b","unapprove(address)":"fbf1f78a"},"id":822}