{"abi":[{"type":"function","name":"VM_ADDR","inputs":[],"outputs":[{"name":"","type":"address","internalType":"address"}],"stateMutability":"view"}],"bytecode":{"object":"0x60a26032600b8282823980515f1a607314602657634e487b7160e01b5f525f60045260245ffd5b305f52607381538281f3fe73000000000000000000000000000000000000000030146080604052600436106032575f3560e01c8063e583e738146036575b5f5ffd5b6050737109709ecfa91a80626ff3989d68f67f5b1dd12d81565b6040516001600160a01b03909116815260200160405180910390f3fea2646970667358221220cb8e5bff5e6b27196a7dcdff04e1ab6697a25121d28bf703554a71da52cc0e0864736f6c634300081e0033","linkReferences":{}},"methodIdentifiers":{"VM_ADDR()":"e583e738"},"id":759}