{"abi":[{"type":"constructor","inputs":[{"name":"underlyingToken","type":"address","internalType":"contract IERC20"},{"name":"tokenName","type":"string","internalType":"string"},{"name":"tokenSymbol","type":"string","internalType":"string"},{"name":"tokenDecimals","type":"uint8","internalType":"uint8"}],"stateMutability":"nonpayable"},{"type":"function","name":"DOMAIN_SEPARATOR","inputs":[],"outputs":[{"name":"result","type":"bytes32","internalType":"bytes32"}],"stateMutability":"view"},{"type":"function","name":"allowance","inputs":[{"name":"owner","type":"address","internalType":"address"},{"name":"spender","type":"address","internalType":"address"}],"outputs":[{"name":"","type":"uint256","internalType":"uint256"}],"stateMutability":"view"},{"type":"function","name":"approve","inputs":[{"name":"spender","type":"address","internalType":"address"},{"name":"value","type":"uint256","internalType":"uint256"}],"outputs":[{"name":"","type":"bool","internalType":"bool"}],"stateMutability":"nonpayable"},{"type":"function","name":"asset","inputs":[],"outputs":[{"name":"","type":"address","internalType":"address"}],"stateMutability":"view"},{"type":"function","name":"balanceOf","inputs":[{"name":"account","type":"address","internalType":"address"}],"outputs":[{"name":"","type":"uint256","internalType":"uint256"}],"stateMutability":"view"},{"type":"function","name":"convertToAssets","inputs":[{"name":"shares","type":"uint256","internalType":"uint256"}],"outputs":[{"name":"","type":"uint256","internalType":"uint256"}],"stateMutability":"view"},{"type":"function","name":"convertToShares","inputs":[{"name":"assets","type":"uint256","internalType":"uint256"}],"outputs":[{"name":"","type":"uint256","internalType":"uint256"}],"stateMutability":"view"},{"type":"function","name":"decimals","inputs":[],"outputs":[{"name":"","type":"uint8","internalType":"uint8"}],"stateMutability":"view"},{"type":"function","name":"deposit","inputs":[{"name":"assets","type":"uint256","internalType":"uint256"},{"name":"receiver","type":"address","internalType":"address"}],"outputs":[{"name":"","type":"uint256","internalType":"uint256"}],"stateMutability":"nonpayable"},{"type":"function","name":"getRate","inputs":[],"outputs":[{"name":"","type":"uint256","internalType":"uint256"}],"stateMutability":"view"},{"type":"function","name":"inflateUnderlyingOrWrapped","inputs":[{"name":"underlyingDelta","type":"uint256","internalType":"uint256"},{"name":"wrappedDelta","type":"uint256","internalType":"uint256"}],"outputs":[],"stateMutability":"nonpayable"},{"type":"function","name":"maxDeposit","inputs":[{"name":"receiver","type":"address","internalType":"address"}],"outputs":[{"name":"","type":"uint256","internalType":"uint256"}],"stateMutability":"view"},{"type":"function","name":"maxMint","inputs":[{"name":"receiver","type":"address","internalType":"address"}],"outputs":[{"name":"","type":"uint256","internalType":"uint256"}],"stateMutability":"view"},{"type":"function","name":"maxRedeem","inputs":[{"name":"owner","type":"address","internalType":"address"}],"outputs":[{"name":"","type":"uint256","internalType":"uint256"}],"stateMutability":"view"},{"type":"function","name":"maxWithdraw","inputs":[{"name":"owner","type":"address","internalType":"address"}],"outputs":[{"name":"","type":"uint256","internalType":"uint256"}],"stateMutability":"view"},{"type":"function","name":"mint","inputs":[{"name":"shares","type":"uint256","internalType":"uint256"},{"name":"receiver","type":"address","internalType":"address"}],"outputs":[{"name":"","type":"uint256","internalType":"uint256"}],"stateMutability":"nonpayable"},{"type":"function","name":"mockRate","inputs":[{"name":"newRate","type":"uint256","internalType":"uint256"}],"outputs":[],"stateMutability":"nonpayable"},{"type":"function","name":"name","inputs":[],"outputs":[{"name":"","type":"string","internalType":"string"}],"stateMutability":"view"},{"type":"function","name":"nonces","inputs":[{"name":"owner","type":"address","internalType":"address"}],"outputs":[{"name":"result","type":"uint256","internalType":"uint256"}],"stateMutability":"view"},{"type":"function","name":"permit","inputs":[{"name":"owner","type":"address","internalType":"address"},{"name":"spender","type":"address","internalType":"address"},{"name":"value","type":"uint256","internalType":"uint256"},{"name":"deadline","type":"uint256","internalType":"uint256"},{"name":"v","type":"uint8","internalType":"uint8"},{"name":"r","type":"bytes32","internalType":"bytes32"},{"name":"s","type":"bytes32","internalType":"bytes32"}],"outputs":[],"stateMutability":"nonpayable"},{"type":"function","name":"previewDeposit","inputs":[{"name":"assets","type":"uint256","internalType":"uint256"}],"outputs":[{"name":"","type":"uint256","internalType":"uint256"}],"stateMutability":"view"},{"type":"function","name":"previewMint","inputs":[{"name":"shares","type":"uint256","internalType":"uint256"}],"outputs":[{"name":"","type":"uint256","internalType":"uint256"}],"stateMutability":"view"},{"type":"function","name":"previewRedeem","inputs":[{"name":"shares","type":"uint256","internalType":"uint256"}],"outputs":[{"name":"","type":"uint256","internalType":"uint256"}],"stateMutability":"view"},{"type":"function","name":"previewWithdraw","inputs":[{"name":"assets","type":"uint256","internalType":"uint256"}],"outputs":[{"name":"","type":"uint256","internalType":"uint256"}],"stateMutability":"view"},{"type":"function","name":"redeem","inputs":[{"name":"shares","type":"uint256","internalType":"uint256"},{"name":"receiver","type":"address","internalType":"address"},{"name":"owner","type":"address","internalType":"address"}],"outputs":[{"name":"","type":"uint256","internalType":"uint256"}],"stateMutability":"nonpayable"},{"type":"function","name":"setAsset","inputs":[{"name":"newBaseToken","type":"address","internalType":"contract IERC20"}],"outputs":[],"stateMutability":"nonpayable"},{"type":"function","name":"setMaliciousWrapper","inputs":[{"name":"value","type":"bool","internalType":"bool"}],"outputs":[],"stateMutability":"nonpayable"},{"type":"function","name":"symbol","inputs":[],"outputs":[{"name":"","type":"string","internalType":"string"}],"stateMutability":"view"},{"type":"function","name":"totalAssets","inputs":[],"outputs":[{"name":"","type":"uint256","internalType":"uint256"}],"stateMutability":"view"},{"type":"function","name":"totalSupply","inputs":[],"outputs":[{"name":"","type":"uint256","internalType":"uint256"}],"stateMutability":"view"},{"type":"function","name":"transfer","inputs":[{"name":"to","type":"address","internalType":"address"},{"name":"value","type":"uint256","internalType":"uint256"}],"outputs":[{"name":"","type":"bool","internalType":"bool"}],"stateMutability":"nonpayable"},{"type":"function","name":"transferFrom","inputs":[{"name":"from","type":"address","internalType":"address"},{"name":"to","type":"address","internalType":"address"},{"name":"value","type":"uint256","internalType":"uint256"}],"outputs":[{"name":"","type":"bool","internalType":"bool"}],"stateMutability":"nonpayable"},{"type":"function","name":"withdraw","inputs":[{"name":"assets","type":"uint256","internalType":"uint256"},{"name":"receiver","type":"address","internalType":"address"},{"name":"owner","type":"address","internalType":"address"}],"outputs":[{"name":"","type":"uint256","internalType":"uint256"}],"stateMutability":"nonpayable"},{"type":"event","name":"Approval","inputs":[{"name":"owner","type":"address","indexed":true,"internalType":"address"},{"name":"spender","type":"address","indexed":true,"internalType":"address"},{"name":"amount","type":"uint256","indexed":false,"internalType":"uint256"}],"anonymous":false},{"type":"event","name":"Deposit","inputs":[{"name":"by","type":"address","indexed":true,"internalType":"address"},{"name":"owner","type":"address","indexed":true,"internalType":"address"},{"name":"assets","type":"uint256","indexed":false,"internalType":"uint256"},{"name":"shares","type":"uint256","indexed":false,"internalType":"uint256"}],"anonymous":false},{"type":"event","name":"Transfer","inputs":[{"name":"from","type":"address","indexed":true,"internalType":"address"},{"name":"to","type":"address","indexed":true,"internalType":"address"},{"name":"amount","type":"uint256","indexed":false,"internalType":"uint256"}],"anonymous":false},{"type":"event","name":"Withdraw","inputs":[{"name":"by","type":"address","indexed":true,"internalType":"address"},{"name":"to","type":"address","indexed":true,"internalType":"address"},{"name":"owner","type":"address","indexed":true,"internalType":"address"},{"name":"assets","type":"uint256","indexed":false,"internalType":"uint256"},{"name":"shares","type":"uint256","indexed":false,"internalType":"uint256"}],"anonymous":false},{"type":"error","name":"AllowanceOverflow","inputs":[]},{"type":"error","name":"AllowanceUnderflow","inputs":[]},{"type":"error","name":"DepositMoreThanMax","inputs":[]},{"type":"error","name":"ERC4626ExceededMaxDeposit","inputs":[{"name":"receiver","type":"address","internalType":"address"},{"name":"assets","type":"uint256","internalType":"uint256"},{"name":"max","type":"uint256","internalType":"uint256"}]},{"type":"error","name":"ERC4626ExceededMaxMint","inputs":[{"name":"receiver","type":"address","internalType":"address"},{"name":"shares","type":"uint256","internalType":"uint256"},{"name":"max","type":"uint256","internalType":"uint256"}]},{"type":"error","name":"ERC4626ExceededMaxRedeem","inputs":[{"name":"owner","type":"address","internalType":"address"},{"name":"shares","type":"uint256","internalType":"uint256"},{"name":"max","type":"uint256","internalType":"uint256"}]},{"type":"error","name":"ERC4626ExceededMaxWithdraw","inputs":[{"name":"owner","type":"address","internalType":"address"},{"name":"assets","type":"uint256","internalType":"uint256"},{"name":"max","type":"uint256","internalType":"uint256"}]},{"type":"error","name":"ERC4626TransferNotReceived","inputs":[{"name":"expected","type":"uint256","internalType":"uint256"},{"name":"actual","type":"uint256","internalType":"uint256"}]},{"type":"error","name":"InsufficientAllowance","inputs":[]},{"type":"error","name":"InsufficientBalance","inputs":[]},{"type":"error","name":"InvalidPermit","inputs":[]},{"type":"error","name":"MintMoreThanMax","inputs":[]},{"type":"error","name":"Permit2AllowanceIsFixedAtInfinity","inputs":[]},{"type":"error","name":"PermitExpired","inputs":[]},{"type":"error","name":"RedeemMoreThanMax","inputs":[]},{"type":"error","name":"TotalSupplyOverflow","inputs":[]},{"type":"error","name":"WithdrawMoreThanMax","inputs":[]}],"bytecode":{"object":"0x60c060405234801561000f575f5ffd5b5060405161193238038061193283398101604081905261002e91610124565b6001600160a01b0384166080528383835f6100498382610242565b5060016100568282610242565b5050505060ff1660a0525050600280546001600160a01b0319166001600160a01b03929092169190911790556102fc565b634e487b7160e01b5f52604160045260245ffd5b5f82601f8301126100aa575f5ffd5b81516001600160401b038111156100c3576100c3610087565b604051601f8201601f19908116603f011681016001600160401b03811182821017156100f1576100f1610087565b604052818152838201602001851015610108575f5ffd5b8160208501602083015e5f918101602001919091529392505050565b5f5f5f5f60808587031215610137575f5ffd5b84516001600160a01b038116811461014d575f5ffd5b60208601519094506001600160401b03811115610168575f5ffd5b6101748782880161009b565b604087015190945090506001600160401b03811115610191575f5ffd5b61019d8782880161009b565b925050606085015160ff811681146101b3575f5ffd5b939692955090935050565b600181811c908216806101d257607f821691505b6020821081036101f057634e487b7160e01b5f52602260045260245ffd5b50919050565b601f82111561023d57805f5260205f20601f840160051c8101602085101561021b5750805b601f840160051c820191505b8181101561023a575f8155600101610227565b50505b505050565b81516001600160401b0381111561025b5761025b610087565b61026f8161026984546101be565b846101f6565b6020601f8211600181146102a1575f831561028a5750848201515b5f19600385901b1c1916600184901b17845561023a565b5f84815260208120601f198516915b828110156102d057878501518255602094850194600190920191016102b0565b50848210156102ed57868401515f19600387901b60f8161c191681555b50505050600190811b01905550565b60805160a05161161861031a5f395f61022801525f50506116185ff3fe608060405234801561000f575f5ffd5b5060043610610189575f3560e01c806301e1d1141461018d57806306fdde03146101a857806307a2d13a146101bd578063095ea7b3146101d05780630a28a477146101f357806318160ddd1461020657806323b872dd1461020e578063313ce567146102215780633644e5151461025257806338d52e0f1461025a578063402d267d146102735780634cdad506146102865780635c3513591461029957806365c8697c146102ae578063679aefce146102da5780636e553f65146102e257806370a08231146102f55780637ecebe001461030857806394bf804d1461032d57806395d89b4114610340578063a1cfa04114610348578063a9059cbb1461035b578063b3d7f6b91461036e578063b460af9414610381578063ba08765214610394578063c63d75b614610273578063c6e6f592146103a7578063ce96cb77146103ba578063d0d552dd146103cd578063d505accf146103fd578063d905777e14610410578063dd62ed3e14610423578063ef8b30f714610436575b5f5ffd5b610195610449565b6040519081526020015b60405180910390f35b6101b06104bd565b60405161019f9190611241565b6101956101cb366004611276565b61054c565b6101e36101de3660046112a4565b6105de565b604051901515815260200161019f565b610195610201366004611276565b6105f0565b6101956105fa565b6101e361021c3660046112ce565b61060c565b60405160ff7f000000000000000000000000000000000000000000000000000000000000000016815260200161019f565b610195610620565b6002546001600160a01b031660405161019f919061130c565b610195610281366004611320565b610671565b610195610294366004611276565b610679565b6102ac6102a736600461133b565b610683565b005b6102ac6102bc36600461135b565b60028054911515600160a01b0260ff60a01b19909216919091179055565b6101956106fd565b6101956102f036600461137a565b61070f565b610195610303366004611320565b61074a565b610195610316366004611320565b6338377508600c9081525f91909152602090205490565b61019561033b36600461137a565b610763565b6101b061076e565b6102ac610356366004611276565b61077d565b6101e36103693660046112a4565b610954565b61019561037c366004611276565b61095f565b61019561038f3660046113a8565b610969565b6101956103a23660046113a8565b610975565b6101956103b5366004611276565b610981565b6101956103c8366004611320565b61098b565b6102ac6103db366004611320565b600280546001600160a01b0319166001600160a01b0392909216919091179055565b6102ac61040b3660046113e7565b610995565b61019561041e366004611320565b610b0d565b610195610431366004611458565b610b17565b610195610444366004611276565b610b22565b6002546040516370a0823160e01b81525f916001600160a01b0316906370a082319061047990309060040161130c565b602060405180830381865afa158015610494573d5f5f3e3d5ffd5b505050506040513d601f19601f820116820180604052508101906104b89190611484565b905090565b60605f80546104cb9061149b565b80601f01602080910402602001604051908101604052809291908181526020018280546104f79061149b565b80156105425780601f1061051957610100808354040283529160200191610542565b820191905f5260205f20905b81548152906001019060200180831161052557829003601f168201915b5050505050905090565b6002545f90600160a01b900460ff16156105d5576002546040516370a0823160e01b81526001600160a01b03909116906370a082319061059090339060040161130c565b602060405180830381865afa1580156105ab573d5f5f3e3d5ffd5b505050506040513d601f19601f820116820180604052508101906105cf9190611484565b92915050565b6105cf82610b2c565b5f6105e98383610b36565b9392505050565b5f6105cf82610ba2565b5f6104b86805345cdf77eb68f44c5490565b5f610618848484610bd6565b949350505050565b5f8061062a6104bd565b8051906020012090505f61063c610c92565b604080515f5160206115c35f395f51905f52815260208101949094528301525046606082015230608082015260a09020919050565b5f5f196105cf565b5f6105cf82610cb6565b81156106e9576002546040516340c10f1960e01b8152306004820152602481018490526001600160a01b03909116906340c10f19906044015f604051808303815f87803b1580156106d2575f5ffd5b505af11580156106e4573d5f5f3e3d5ffd5b505050505b80156106f9576106f93082610cc0565b5050565b5f6104b8670de0b6b3a764000061054c565b6002545f90600160a01b900460ff1615610740575f61072d84610b22565b90506107398382610cc0565b90506105cf565b6105e98383610d29565b6387a211a2600c9081525f8281526020909120546105cf565b5f6105e98383610d34565b6060600180546104cb9061149b565b5f306001600160a01b03166318160ddd6040518163ffffffff1660e01b8152600401602060405180830381865afa1580156107ba573d5f5f3e3d5ffd5b505050506040513d601f19601f820116820180604052508101906107de9190611484565b90505f306001600160a01b03166301e1d1146040518163ffffffff1660e01b8152600401602060405180830381865afa15801561081d573d5f5f3e3d5ffd5b505050506040513d601f19601f820116820180604052508101906108419190611484565b90505f5f5f306001600160a01b031663679aefce6040518163ffffffff1660e01b8152600401602060405180830381865afa158015610882573d5f5f3e3d5ffd5b505050506040513d601f19601f820116820180604052508101906108a69190611484565b90508581036108b757505050505050565b808610156108de575f6108ca8588610d69565b90506108d686826114e7565b9250506108f9565b5f6108e98688610d89565b90506108f585826114e7565b9350505b604051635c35135960e01b815260048101849052602481018390523090635c351359906044015f604051808303815f87803b158015610936575f5ffd5b505af1158015610948573d5f5f3e3d5ffd5b50505050505050505050565b5f6105e98383610da9565b5f6105cf82610e0d565b5f610618848484610e31565b5f610618848484610e67565b5f6105cf82610e9d565b5f6105cf82610ecb565b6001600160a01b0386166e22d473030f116ddee9f6b43ac78ba318851915176109c557633f68539a5f526004601cfd5b5f6109ce6104bd565b8051906020012090505f6109e0610c92565b9050854211156109f757631a15a3cc5f526004601cfd5b6040518960601b60601c99508860601b60601c985065383775081901600e52895f526020600c2080545f5160206115c35f395f51905f52835284602084015283604084015246606084015230608084015260a08320602e527f6e71edae12b1b97f4d1f60370fef10105fa2faae0126114a169c64845d6126c983528b60208401528a60408401528960608401528060808401528860a084015260c08320604e526042602c205f528760ff16602052866040528560605260208060805f60015afa8c3d5114610acc5763ddafbaef5f526004601cfd5b0190556303faf4f960a51b89176040526034602c20889055888a5f5160206115a35f395f51905f52602060608501a360405250505f60605250505050505050565b5f6105cf82610ed8565b5f6105e98383610ee2565b5f6105cf82610f26565b5f6105cf82610f30565b5f6001600160a01b0383166e22d473030f116ddee9f6b43ac78ba31882191517610b6757633f68539a5f526004601cfd5b82602052637f5e9f20600c52335f52816034600c2055815f52602c5160601c335f5160206115a35f395f51905f5260205fa350600192915050565b5f610bad565b610f54565b5f6105e983610bba6105fa565b610bc59060016114fa565b610ba8610bd0610449565b60010190565b5f8360601b6e22d473030f116ddee9f6b43ac78ba33314610c2b5733602052637f5e9f208117600c526034600c208054801915610c285780851115610c22576313be252b5f526004601cfd5b84810382555b50505b6387a211a28117600c526020600c20805480851115610c515763f4d678b85f526004601cfd5b84810382555050835f526020600c208381540181555082602052600c5160601c8160601c5f5160206115835f395f51905f52602080a3505060019392505050565b7fc89efdaa54c0f20c7adf612882df0950f5a951637e0307cdcb4c672f298b8bc690565b5f6105cf8261054c565b6805345cdf77eb68f44c5481810181811015610ce35763e5cfe9575f526004601cfd5b806805345cdf77eb68f44c5550506387a211a2600c52815f526020600c208181540181555080602052600c5160601c5f5f5160206115835f395f51905f52602080a35050565b5f6105e98383610f85565b5f610d3e82610671565b831115610d5257610d52636a695959610fba565b610d5b8361095f565b90506105cf33838386610fc3565b5f80610d7d670de0b6b3a76400008561154c565b90506106188382611563565b5f80610d95838561154c565b9050610618670de0b6b3a764000082611563565b5f6387a211a2600c52335f526020600c20805480841115610dd15763f4d678b85f526004601cfd5b83810382555050825f526020600c208281540181555081602052600c5160601c335f5160206115835f395f51905f52602080a350600192915050565b5f5f6105e983610e1b610449565b610e269060016114fa565b610ba8610bd06105fa565b5f610e3b8261098b565b841115610e4f57610e4f63936941fc610fba565b610e58846105f0565b90506105e93384848785610feb565b5f610e7182610b0d565b841115610e8557610e85634656425a610fba565b610e8e84610679565b90506105e93384848488610feb565b5f610ea8565b611037565b5f6105e983610eb56105fa565b610ec09060016114fa565b610ea3610bd0610449565b5f6105cf6101cb8361074a565b5f6105cf8261074a565b5f6e22d473030f116ddee9f6b43ac78ba2196001600160a01b03831601610f0b57505f196105cf565b50602052637f5e9f20600c9081525f91909152603490205490565b5f6105cf82610981565b5f5f6105e983610f3e610449565b610f499060016114fa565b610ea3610bd06105fa565b5f610f60848484611037565b905081838509156105e957600101806105e95763ae47f7025f526004601cfd5b505050565b5f610f8f82610671565b831115610fa357610fa363b3c61a83610fba565b610fac83610b22565b90506105cf33838584610fc3565b805f526004601cfd5b600254610fdb906001600160a01b03168530856110c5565b610fe58382610cc0565b50505050565b826001600160a01b0316856001600160a01b03161461100f5761100f8386836110d1565b6110198382611132565b600254611030906001600160a01b03168584611193565b5050505050565b828202818385830414851517026110be575f198385098181108201900382848609835f0384168285116110715763ae47f7025f526004601cfd5b93849004938382119092035f8390038390046001010292030417600260038302811880840282030280840282030280840282030280840282030280840282030280840290910302026105e9565b0492915050565b610fe58484848461119e565b6e22d473030f116ddee9f6b43ac78ba2196001600160a01b038316016110f657505050565b81602052637f5e9f20600c52825f526034600c2080548019156110305780831115611128576313be252b5f526004601cfd5b9190910390555050565b6387a211a2600c52815f526020600c208054808311156111595763f4d678b85f526004601cfd5b82900390556805345cdf77eb68f44c805482900390555f8181526001600160a01b0383165f5160206115835f395f51905f52602083a35050565b610f808383836111f7565b60405181606052826040528360601b602c526323b872dd60601b600c5260205f6064601c5f895af18060015f5114166111e957803d873b1517106111e957637939f4245f526004601cfd5b505f60605260405250505050565b816014528060345263a9059cbb60601b5f5260205f604460105f875af18060015f51141661123757803d853b151710611237576390b8ec185f526004601cfd5b505f603452505050565b602081525f82518060208401528060208501604085015e5f604082850101526040601f19601f83011684010191505092915050565b5f60208284031215611286575f5ffd5b5035919050565b6001600160a01b03811681146112a1575f5ffd5b50565b5f5f604083850312156112b5575f5ffd5b82356112c08161128d565b946020939093013593505050565b5f5f5f606084860312156112e0575f5ffd5b83356112eb8161128d565b925060208401356112fb8161128d565b929592945050506040919091013590565b6001600160a01b0391909116815260200190565b5f60208284031215611330575f5ffd5b81356105e98161128d565b5f5f6040838503121561134c575f5ffd5b50508035926020909101359150565b5f6020828403121561136b575f5ffd5b813580151581146105e9575f5ffd5b5f5f6040838503121561138b575f5ffd5b82359150602083013561139d8161128d565b809150509250929050565b5f5f5f606084860312156113ba575f5ffd5b8335925060208401356113cc8161128d565b915060408401356113dc8161128d565b809150509250925092565b5f5f5f5f5f5f5f60e0888a0312156113fd575f5ffd5b87356114088161128d565b965060208801356114188161128d565b95506040880135945060608801359350608088013560ff8116811461143b575f5ffd5b9699959850939692959460a0840135945060c09093013592915050565b5f5f60408385031215611469575f5ffd5b82356114748161128d565b9150602083013561139d8161128d565b5f60208284031215611494575f5ffd5b5051919050565b600181811c908216806114af57607f821691505b6020821081036114cd57634e487b7160e01b5f52602260045260245ffd5b50919050565b634e487b7160e01b5f52601160045260245ffd5b818103818111156105cf576105cf6114d3565b808201808211156105cf576105cf6114d3565b600184111561154457808504811115611528576115286114d3565b600184161561153657908102905b60019390931c92800261150d565b935093915050565b80820281158282048414176105cf576105cf6114d3565b5f8261157d57634e487b7160e01b5f52601260045260245ffd5b50049056feddf252ad1be2c89b69c2b068fc378daa952ba7f163c4a11628f55a4df523b3ef8c5be1e5ebec7d5bd14f71427d1e84f3dd0314c0f7b2291e5b200ac8c7c3b9258b73c3c69bb8fe3d512ecc4cf759cc79239f7b179b0ffacaa9a75d522b39400fa264697066735822122074c5954729e29bbc117ebb4b0179d5e1456556639e1d2fb44ddad9406961376164736f6c634300081e0033","linkReferences":{}},"methodIdentifiers":{"DOMAIN_SEPARATOR()":"3644e515","allowance(address,address)":"dd62ed3e","approve(address,uint256)":"095ea7b3","asset()":"38d52e0f","balanceOf(address)":"70a08231","convertToAssets(uint256)":"07a2d13a","convertToShares(uint256)":"c6e6f592","decimals()":"313ce567","deposit(uint256,address)":"6e553f65","getRate()":"679aefce","inflateUnderlyingOrWrapped(uint256,uint256)":"5c351359","maxDeposit(address)":"402d267d","maxMint(address)":"c63d75b6","maxRedeem(address)":"d905777e","maxWithdraw(address)":"ce96cb77","mint(uint256,address)":"94bf804d","mockRate(uint256)":"a1cfa041","name()":"06fdde03","nonces(address)":"7ecebe00","permit(address,address,uint256,uint256,uint8,bytes32,bytes32)":"d505accf","previewDeposit(uint256)":"ef8b30f7","previewMint(uint256)":"b3d7f6b9","previewRedeem(uint256)":"4cdad506","previewWithdraw(uint256)":"0a28a477","redeem(uint256,address,address)":"ba087652","setAsset(address)":"d0d552dd","setMaliciousWrapper(bool)":"65c8697c","symbol()":"95d89b41","totalAssets()":"01e1d114","totalSupply()":"18160ddd","transfer(address,uint256)":"a9059cbb","transferFrom(address,address,uint256)":"23b872dd","withdraw(uint256,address,address)":"b460af94"},"id":275}