{"abi":[{"type":"function","name":"DOMAIN_SEPARATOR","inputs":[],"outputs":[{"name":"","type":"bytes32","internalType":"bytes32"}],"stateMutability":"view"},{"type":"function","name":"facetFuncs","inputs":[],"outputs":[{"name":"funcs","type":"bytes4[]","internalType":"bytes4[]"}],"stateMutability":"pure"},{"type":"function","name":"facetInterfaces","inputs":[],"outputs":[{"name":"interfaces","type":"bytes4[]","internalType":"bytes4[]"}],"stateMutability":"pure"},{"type":"function","name":"facetMetadata","inputs":[],"outputs":[{"name":"name","type":"string","internalType":"string"},{"name":"interfaces","type":"bytes4[]","internalType":"bytes4[]"},{"name":"functions","type":"bytes4[]","internalType":"bytes4[]"}],"stateMutability":"pure"},{"type":"function","name":"facetName","inputs":[],"outputs":[{"name":"name","type":"string","internalType":"string"}],"stateMutability":"pure"},{"type":"function","name":"nonces","inputs":[{"name":"owner","type":"address","internalType":"address"}],"outputs":[{"name":"","type":"uint256","internalType":"uint256"}],"stateMutability":"view"},{"type":"function","name":"permit","inputs":[{"name":"owner","type":"address","internalType":"address"},{"name":"spender","type":"address","internalType":"address"},{"name":"value","type":"uint256","internalType":"uint256"},{"name":"deadline","type":"uint256","internalType":"uint256"},{"name":"v","type":"uint8","internalType":"uint8"},{"name":"r","type":"bytes32","internalType":"bytes32"},{"name":"s","type":"bytes32","internalType":"bytes32"}],"outputs":[],"stateMutability":"nonpayable"},{"type":"event","name":"Approval","inputs":[{"name":"owner","type":"address","indexed":true,"internalType":"address"},{"name":"spender","type":"address","indexed":true,"internalType":"address"},{"name":"amount","type":"uint256","indexed":false,"internalType":"uint256"}],"anonymous":false},{"type":"error","name":"ERC20InvalidSpender","inputs":[{"name":"spender","type":"address","internalType":"address"}]},{"type":"error","name":"ERC2612ExpiredSignature","inputs":[{"name":"deadline","type":"uint256","internalType":"uint256"}]},{"type":"error","name":"ERC2612InvalidSigner","inputs":[{"name":"signer","type":"address","internalType":"address"},{"name":"owner","type":"address","internalType":"address"}]},{"type":"error","name":"InvalidAccountNonce","inputs":[{"name":"account","type":"address","internalType":"address"},{"name":"currentNonce","type":"uint256","internalType":"uint256"}]}],"bytecode":{"object":"0x6080604052348015600e575f5ffd5b5061084c8061001c5f395ff3fe608060405234801561000f575f5ffd5b506004361061006b575f3560e01c80632ea808261461006f5780633644e5151461008d578063574a4cff146100a35780635b6f4d01146100ab5780637ecebe00146100c0578063d505accf146100d3578063f10d7a75146100e8575b5f5ffd5b6100776100ff565b60405161008491906106d2565b60405180910390f35b610095610157565b604051908152602001610084565b610077610165565b6100b361020e565b6040516100849190610712565b6100956100ce36600461073a565b610234565b6100e66100e1366004610753565b610244565b005b6100f061036a565b604051610084939291906107c0565b60408051600180825281830190925260609160208083019080368337019050509050634ec7fbed60e11b815f8151811061013b5761013b610802565b6001600160e01b03199092166020928302919091019091015290565b5f610160610392565b905090565b6040805160038082526080820190925260609160208201838036833701905050905063d505accf60e01b815f815181106101a1576101a1610802565b6001600160e01b0319909216602092830291909101909101528051623f675f60e91b90829060019081106101d7576101d7610802565b6001600160e01b0319909216602092830291909101909101528051633644e51560e01b908290600290811061013b5761013b610802565b60408051808201909152600c81526b115490cc8d8c4c919858d95d60a21b602082015290565b5f61023e826103a3565b92915050565b8342111561026d5760405163313c898160e11b8152600481018590526024015b60405180910390fd5b5f6102f17f6e71edae12b1b97f4d1f60370fef10105fa2faae0126114a169c64845d6126c989898961029e8d6103cb565b6040805160208101969096526001600160a01b0394851690860152929091166060840152608083015260a082015260c0810187905260e0015b604051602081830303815290604052805160209091012090565b90505f6102fd826103fb565b90505f61030c8287878761040d565b9050896001600160a01b0316816001600160a01b031614610353576040516325c0072360e11b81526001600160a01b0380831660048301528b166024820152604401610264565b61035e8a8a8a610423565b50505050505050505050565b606080606061037761020e565b92506103816100ff565b915061038b610165565b9050909192565b5f61016061039e61043b565b610487565b5f61023e6103af6104c0565b836001600160a01b03165f908152602091909152604090205490565b5f61023e6103d76104c0565b836001600160a01b03165f9081526020919091526040902080546001810190915590565b5f61023e61040761043b565b836104f4565b5f61041a85858585610528565b95945050505050565b61043661042e61056d565b84848461059f565b505050565b5f61016060405160200161046e906020808252600b908201526a32b4b81732b4b8171b989960a91b604082015260600190565b6040516020818303038152906040528051906020012090565b60028101545f906001600160a01b0316301480156104a85750816001015446145b156104b257505490565b61023e82610634565b919050565b5f61016060405160200161046e906020808252600c908201526b32b4b81732b93197191b189960a11b604082015260600190565b5f61052161050184610487565b8360405161190160f01b8152600281019290925260228201526042902090565b9392505050565b5f604051855f5260ff851660205283604052826060526020600160805f60015afa5191503d61055e57638baa579f5f526004601cfd5b5f606052604052949350505050565b5f61016060405160200161046e906020808252600a908201526906569702e6572632e32360b41b604082015260600190565b6001600160a01b0382166105d157604051634a1406b160e11b81526001600160a01b0383166004820152602401610264565b6001600160a01b038381165f81815260058701602090815260408083209487168084529482529182902085905590518481527f8c5be1e5ebec7d5bd14f71427d1e84f3dd0314c0f7b2291e5b200ac8c7c3b925910160405180910390a350505050565b60038101546004820154604080517f8b73c3c69bb8fe3d512ecc4cf759cc79239f7b179b0ffacaa9a75d522b39400f60208201529081019290925260608201524660808201523060a08201525f9061023e9060c0016102d7565b5f8151808452602084019350602083015f5b828110156106c85781516001600160e01b0319168652602095860195909101906001016106a0565b5093949350505050565b602081525f610521602083018461068e565b5f81518084528060208401602086015e5f602082860101526020601f19601f83011685010191505092915050565b602081525f61052160208301846106e4565b80356001600160a01b03811681146104bb575f5ffd5b5f6020828403121561074a575f5ffd5b61052182610724565b5f5f5f5f5f5f5f60e0888a031215610769575f5ffd5b61077288610724565b965061078060208901610724565b95506040880135945060608801359350608088013560ff811681146107a3575f5ffd5b9699959850939692959460a0840135945060c09093013592915050565b606081525f6107d260608301866106e4565b82810360208401526107e4818661068e565b905082810360408401526107f8818561068e565b9695505050505050565b634e487b7160e01b5f52603260045260245ffdfea26469706673582212202037d08d83e4e2279ad08bbca7d85b093273a8d084fc051fe51e3282f768c3f964736f6c634300081e0033","linkReferences":{}},"methodIdentifiers":{"DOMAIN_SEPARATOR()":"3644e515","facetFuncs()":"574a4cff","facetInterfaces()":"2ea80826","facetMetadata()":"f10d7a75","facetName()":"5b6f4d01","nonces(address)":"7ecebe00","permit(address,address,uint256,uint256,uint8,bytes32,bytes32)":"d505accf"},"id":1332}