{"abi":[{"type":"constructor","inputs":[{"name":"vault","type":"address","internalType":"contract IVault"},{"name":"weth","type":"address","internalType":"contract IWETH"},{"name":"permit2","type":"address","internalType":"contract IPermit2"}],"stateMutability":"nonpayable"},{"type":"receive","stateMutability":"payable"},{"type":"function","name":"addLiquidityERC4626PoolProportionalHook","inputs":[{"name":"params","type":"tuple","internalType":"struct AddLiquidityHookParams","components":[{"name":"sender","type":"address","internalType":"address"},{"name":"pool","type":"address","internalType":"address"},{"name":"maxAmountsIn","type":"uint256[]","internalType":"uint256[]"},{"name":"minBptAmountOut","type":"uint256","internalType":"uint256"},{"name":"kind","type":"uint8","internalType":"enum AddLiquidityKind"},{"name":"wethIsEth","type":"bool","internalType":"bool"},{"name":"userData","type":"bytes","internalType":"bytes"}]},{"name":"wrapUnderlying","type":"bool[]","internalType":"bool[]"}],"outputs":[{"name":"amountsIn","type":"uint256[]","internalType":"uint256[]"}],"stateMutability":"nonpayable"},{"type":"function","name":"addLiquidityERC4626PoolUnbalancedHook","inputs":[{"name":"params","type":"tuple","internalType":"struct AddLiquidityHookParams","components":[{"name":"sender","type":"address","internalType":"address"},{"name":"pool","type":"address","internalType":"address"},{"name":"maxAmountsIn","type":"uint256[]","internalType":"uint256[]"},{"name":"minBptAmountOut","type":"uint256","internalType":"uint256"},{"name":"kind","type":"uint8","internalType":"enum AddLiquidityKind"},{"name":"wethIsEth","type":"bool","internalType":"bool"},{"name":"userData","type":"bytes","internalType":"bytes"}]},{"name":"wrapUnderlying","type":"bool[]","internalType":"bool[]"}],"outputs":[{"name":"bptAmountOut","type":"uint256","internalType":"uint256"}],"stateMutability":"nonpayable"},{"type":"function","name":"addLiquidityProportionalToERC4626Pool","inputs":[{"name":"pool","type":"address","internalType":"address"},{"name":"wrapUnderlying","type":"bool[]","internalType":"bool[]"},{"name":"maxAmountsIn","type":"uint256[]","internalType":"uint256[]"},{"name":"exactBptAmountOut","type":"uint256","internalType":"uint256"},{"name":"wethIsEth","type":"bool","internalType":"bool"},{"name":"userData","type":"bytes","internalType":"bytes"}],"outputs":[{"name":"","type":"uint256[]","internalType":"uint256[]"}],"stateMutability":"payable"},{"type":"function","name":"addLiquidityUnbalancedNestedPool","inputs":[{"name":"parentPool","type":"address","internalType":"address"},{"name":"tokensIn","type":"address[]","internalType":"address[]"},{"name":"exactAmountsIn","type":"uint256[]","internalType":"uint256[]"},{"name":"tokensToWrap","type":"address[]","internalType":"address[]"},{"name":"minBptAmountOut","type":"uint256","internalType":"uint256"},{"name":"wethIsEth","type":"bool","internalType":"bool"},{"name":"userData","type":"bytes","internalType":"bytes"}],"outputs":[{"name":"","type":"uint256","internalType":"uint256"}],"stateMutability":"payable"},{"type":"function","name":"addLiquidityUnbalancedNestedPoolHook","inputs":[{"name":"params","type":"tuple","internalType":"struct AddLiquidityHookParams","components":[{"name":"sender","type":"address","internalType":"address"},{"name":"pool","type":"address","internalType":"address"},{"name":"maxAmountsIn","type":"uint256[]","internalType":"uint256[]"},{"name":"minBptAmountOut","type":"uint256","internalType":"uint256"},{"name":"kind","type":"uint8","internalType":"enum AddLiquidityKind"},{"name":"wethIsEth","type":"bool","internalType":"bool"},{"name":"userData","type":"bytes","internalType":"bytes"}]},{"name":"tokensIn","type":"address[]","internalType":"address[]"},{"name":"tokensToWrap","type":"address[]","internalType":"address[]"}],"outputs":[{"name":"exactBptAmountOut","type":"uint256","internalType":"uint256"}],"stateMutability":"nonpayable"},{"type":"function","name":"addLiquidityUnbalancedToERC4626Pool","inputs":[{"name":"pool","type":"address","internalType":"address"},{"name":"wrapUnderlying","type":"bool[]","internalType":"bool[]"},{"name":"exactAmountsIn","type":"uint256[]","internalType":"uint256[]"},{"name":"minBptAmountOut","type":"uint256","internalType":"uint256"},{"name":"wethIsEth","type":"bool","internalType":"bool"},{"name":"userData","type":"bytes","internalType":"bytes"}],"outputs":[{"name":"bptAmountOut","type":"uint256","internalType":"uint256"}],"stateMutability":"payable"},{"type":"function","name":"getPermit2","inputs":[],"outputs":[{"name":"","type":"address","internalType":"contract IPermit2"}],"stateMutability":"view"},{"type":"function","name":"getSender","inputs":[],"outputs":[{"name":"","type":"address","internalType":"address"}],"stateMutability":"view"},{"type":"function","name":"getVault","inputs":[],"outputs":[{"name":"","type":"address","internalType":"contract IVault"}],"stateMutability":"view"},{"type":"function","name":"getWeth","inputs":[],"outputs":[{"name":"","type":"address","internalType":"contract IWETH"}],"stateMutability":"view"},{"type":"function","name":"manualGetCurrentSwapTokenInAmounts","inputs":[],"outputs":[{"name":"","type":"bytes32","internalType":"AddressToUintMappingSlot"}],"stateMutability":"view"},{"type":"function","name":"manualGetCurrentSwapTokenOutAmounts","inputs":[],"outputs":[{"name":"","type":"bytes32","internalType":"AddressToUintMappingSlot"}],"stateMutability":"view"},{"type":"function","name":"manualGetCurrentSwapTokensInSlot","inputs":[],"outputs":[{"name":"","type":"bytes32","internalType":"bytes32"}],"stateMutability":"view"},{"type":"function","name":"manualGetCurrentSwapTokensOutSlot","inputs":[],"outputs":[{"name":"","type":"bytes32","internalType":"bytes32"}],"stateMutability":"view"},{"type":"function","name":"manualGetSettledTokenAmounts","inputs":[],"outputs":[{"name":"","type":"bytes32","internalType":"AddressToUintMappingSlot"}],"stateMutability":"view"},{"type":"function","name":"multicall","inputs":[{"name":"data","type":"bytes[]","internalType":"bytes[]"}],"outputs":[{"name":"results","type":"bytes[]","internalType":"bytes[]"}],"stateMutability":"payable"},{"type":"function","name":"permitBatchAndCall","inputs":[{"name":"permitBatch","type":"tuple[]","internalType":"struct IRouterCommon.PermitApproval[]","components":[{"name":"token","type":"address","internalType":"address"},{"name":"owner","type":"address","internalType":"address"},{"name":"spender","type":"address","internalType":"address"},{"name":"amount","type":"uint256","internalType":"uint256"},{"name":"nonce","type":"uint256","internalType":"uint256"},{"name":"deadline","type":"uint256","internalType":"uint256"}]},{"name":"permitSignatures","type":"bytes[]","internalType":"bytes[]"},{"name":"permit2Batch","type":"tuple","internalType":"struct IAllowanceTransfer.PermitBatch","components":[{"name":"details","type":"tuple[]","internalType":"struct IAllowanceTransfer.PermitDetails[]","components":[{"name":"token","type":"address","internalType":"address"},{"name":"amount","type":"uint160","internalType":"uint160"},{"name":"expiration","type":"uint48","internalType":"uint48"},{"name":"nonce","type":"uint48","internalType":"uint48"}]},{"name":"spender","type":"address","internalType":"address"},{"name":"sigDeadline","type":"uint256","internalType":"uint256"}]},{"name":"permit2Signature","type":"bytes","internalType":"bytes"},{"name":"multicallData","type":"bytes[]","internalType":"bytes[]"}],"outputs":[{"name":"","type":"bytes[]","internalType":"bytes[]"}],"stateMutability":"payable"},{"type":"function","name":"queryAddLiquidityProportionalToERC4626Pool","inputs":[{"name":"pool","type":"address","internalType":"address"},{"name":"wrapUnderlying","type":"bool[]","internalType":"bool[]"},{"name":"exactBptAmountOut","type":"uint256","internalType":"uint256"},{"name":"sender","type":"address","internalType":"address"},{"name":"userData","type":"bytes","internalType":"bytes"}],"outputs":[{"name":"","type":"uint256[]","internalType":"uint256[]"}],"stateMutability":"nonpayable"},{"type":"function","name":"queryAddLiquidityUnbalancedNestedPool","inputs":[{"name":"parentPool","type":"address","internalType":"address"},{"name":"tokensIn","type":"address[]","internalType":"address[]"},{"name":"exactAmountsIn","type":"uint256[]","internalType":"uint256[]"},{"name":"tokensToWrap","type":"address[]","internalType":"address[]"},{"name":"sender","type":"address","internalType":"address"},{"name":"userData","type":"bytes","internalType":"bytes"}],"outputs":[{"name":"","type":"uint256","internalType":"uint256"}],"stateMutability":"nonpayable"},{"type":"function","name":"queryAddLiquidityUnbalancedToERC4626Pool","inputs":[{"name":"pool","type":"address","internalType":"address"},{"name":"wrapUnderlying","type":"bool[]","internalType":"bool[]"},{"name":"exactAmountsIn","type":"uint256[]","internalType":"uint256[]"},{"name":"sender","type":"address","internalType":"address"},{"name":"userData","type":"bytes","internalType":"bytes"}],"outputs":[{"name":"bptAmountOut","type":"uint256","internalType":"uint256"}],"stateMutability":"nonpayable"},{"type":"function","name":"queryRemoveLiquidityProportionalFromERC4626Pool","inputs":[{"name":"pool","type":"address","internalType":"address"},{"name":"unwrapWrapped","type":"bool[]","internalType":"bool[]"},{"name":"exactBptAmountIn","type":"uint256","internalType":"uint256"},{"name":"sender","type":"address","internalType":"address"},{"name":"userData","type":"bytes","internalType":"bytes"}],"outputs":[{"name":"","type":"uint256[]","internalType":"uint256[]"}],"stateMutability":"nonpayable"},{"type":"function","name":"queryRemoveLiquidityProportionalNestedPool","inputs":[{"name":"parentPool","type":"address","internalType":"address"},{"name":"exactBptAmountIn","type":"uint256","internalType":"uint256"},{"name":"tokensOut","type":"address[]","internalType":"address[]"},{"name":"tokensToUnwrap","type":"address[]","internalType":"address[]"},{"name":"sender","type":"address","internalType":"address"},{"name":"userData","type":"bytes","internalType":"bytes"}],"outputs":[{"name":"amountsOut","type":"uint256[]","internalType":"uint256[]"}],"stateMutability":"nonpayable"},{"type":"function","name":"removeLiquidityERC4626PoolProportionalHook","inputs":[{"name":"params","type":"tuple","internalType":"struct RemoveLiquidityHookParams","components":[{"name":"sender","type":"address","internalType":"address"},{"name":"pool","type":"address","internalType":"address"},{"name":"minAmountsOut","type":"uint256[]","internalType":"uint256[]"},{"name":"maxBptAmountIn","type":"uint256","internalType":"uint256"},{"name":"kind","type":"uint8","internalType":"enum RemoveLiquidityKind"},{"name":"wethIsEth","type":"bool","internalType":"bool"},{"name":"userData","type":"bytes","internalType":"bytes"}]},{"name":"unwrapWrapped","type":"bool[]","internalType":"bool[]"}],"outputs":[{"name":"amountsOut","type":"uint256[]","internalType":"uint256[]"}],"stateMutability":"nonpayable"},{"type":"function","name":"removeLiquidityProportionalFromERC4626Pool","inputs":[{"name":"pool","type":"address","internalType":"address"},{"name":"unwrapWrapped","type":"bool[]","internalType":"bool[]"},{"name":"exactBptAmountIn","type":"uint256","internalType":"uint256"},{"name":"minAmountsOut","type":"uint256[]","internalType":"uint256[]"},{"name":"wethIsEth","type":"bool","internalType":"bool"},{"name":"userData","type":"bytes","internalType":"bytes"}],"outputs":[{"name":"","type":"uint256[]","internalType":"uint256[]"}],"stateMutability":"payable"},{"type":"function","name":"removeLiquidityProportionalNestedPool","inputs":[{"name":"parentPool","type":"address","internalType":"address"},{"name":"exactBptAmountIn","type":"uint256","internalType":"uint256"},{"name":"tokensOut","type":"address[]","internalType":"address[]"},{"name":"minAmountsOut","type":"uint256[]","internalType":"uint256[]"},{"name":"tokensToUnwrap","type":"address[]","internalType":"address[]"},{"name":"wethIsEth","type":"bool","internalType":"bool"},{"name":"userData","type":"bytes","internalType":"bytes"}],"outputs":[{"name":"amountsOut","type":"uint256[]","internalType":"uint256[]"}],"stateMutability":"payable"},{"type":"function","name":"removeLiquidityProportionalNestedPoolHook","inputs":[{"name":"params","type":"tuple","internalType":"struct RemoveLiquidityHookParams","components":[{"name":"sender","type":"address","internalType":"address"},{"name":"pool","type":"address","internalType":"address"},{"name":"minAmountsOut","type":"uint256[]","internalType":"uint256[]"},{"name":"maxBptAmountIn","type":"uint256","internalType":"uint256"},{"name":"kind","type":"uint8","internalType":"enum RemoveLiquidityKind"},{"name":"wethIsEth","type":"bool","internalType":"bool"},{"name":"userData","type":"bytes","internalType":"bytes"}]},{"name":"tokensOut","type":"address[]","internalType":"address[]"},{"name":"tokensToUnwrap","type":"address[]","internalType":"address[]"}],"outputs":[{"name":"amountsOut","type":"uint256[]","internalType":"uint256[]"}],"stateMutability":"nonpayable"},{"type":"function","name":"version","inputs":[],"outputs":[{"name":"","type":"string","internalType":"string"}],"stateMutability":"view"},{"type":"error","name":"AddressEmptyCode","inputs":[{"name":"target","type":"address","internalType":"address"}]},{"type":"error","name":"AmountInAboveMax","inputs":[{"name":"tokenIn","type":"address","internalType":"contract IERC20"},{"name":"amountIn","type":"uint256","internalType":"uint256"},{"name":"maxAmountIn","type":"uint256","internalType":"uint256"}]},{"type":"error","name":"AmountOutBelowMin","inputs":[{"name":"tokenOut","type":"address","internalType":"contract IERC20"},{"name":"amountOut","type":"uint256","internalType":"uint256"},{"name":"minAmountOut","type":"uint256","internalType":"uint256"}]},{"type":"error","name":"BufferNotInitialized","inputs":[{"name":"wrappedToken","type":"address","internalType":"contract IERC4626"}]},{"type":"error","name":"DuplicateTokenIn","inputs":[{"name":"duplicateToken","type":"address","internalType":"address"}]},{"type":"error","name":"ElementNotFound","inputs":[]},{"type":"error","name":"ErrorSelectorNotFound","inputs":[]},{"type":"error","name":"EthTransfer","inputs":[]},{"type":"error","name":"FailedCall","inputs":[]},{"type":"error","name":"InputLengthMismatch","inputs":[]},{"type":"error","name":"InsufficientBalance","inputs":[{"name":"balance","type":"uint256","internalType":"uint256"},{"name":"needed","type":"uint256","internalType":"uint256"}]},{"type":"error","name":"InsufficientEth","inputs":[]},{"type":"error","name":"InvalidAddLiquidityKind","inputs":[]},{"type":"error","name":"InvalidTokenType","inputs":[]},{"type":"error","name":"OperationNotSupported","inputs":[]},{"type":"error","name":"ReentrancyGuardReentrantCall","inputs":[]},{"type":"error","name":"SenderIsNotVault","inputs":[{"name":"sender","type":"address","internalType":"address"}]},{"type":"error","name":"SwapDeadline","inputs":[]},{"type":"error","name":"TransientIndexOutOfBounds","inputs":[]},{"type":"error","name":"WrongTokensOut","inputs":[{"name":"actualTokensOut","type":"address[]","internalType":"address[]"},{"name":"expectedTokensOut","type":"address[]","internalType":"address[]"}]}],"bytecode":{"object":"0x600b6102009081526a14d95b99195c91dd585c9960aa1b6102205261028060405260066102409081526539b2b73232b960d11b6102605261004091906102cd565b608052604080518082018252600c81526b2937baba32b921b7b6b6b7b760a11b602080830191909152825180840190935260118352701a5cd4995d1d5c9b915d1a131bd8dad959607a1b90830152610097916102cd565b60c05260408051808201909152601381527f63757272656e7453776170546f6b656e73496e0000000000000000000000000060208201526100d79061033c565b6101405260408051808201909152601481527f63757272656e7453776170546f6b656e734f757400000000000000000000000060208201526101189061033c565b6101605260408051808201909152601981527f63757272656e7453776170546f6b656e496e416d6f756e74730000000000000060208201526101599061033c565b6101805260408051808201909152601a81527f63757272656e7453776170546f6b656e4f7574416d6f756e7473000000000000602082015261019a9061033c565b6101a05260408051808201909152601381527f736574746c6564546f6b656e416d6f756e74730000000000000000000000000060208201526101db9061033c565b6101c052604080518082019091526011815270383937b1b2b9b9b2b22a37b5b2b739a4b760791b60208201526102109061033c565b6101e05234801561021f575f5ffd5b50604051616f76380380616f7683398101604081905261023e9161039c565b6040805180820190915260208082527f4d6f636b20436f6d706f736974654c6971756964697479526f75746572207631908201526001600160a01b03841660a0528390839083908383838383838383838383838061029b81610376565b50506001600160a01b0391821660e052166101008190521561012052506105bc9e505050505050505050505050505050565b5f60ff5f1b19600184846040516020016102e89291906103fd565b604051602081830303815290604052805190602001205f1c61030a919061044b565b60405160200161031c91815260200190565b604051602081830303815290604052805190602001201690505b92915050565b5f610336604051806040016040526011815280602001702130ba31b42937baba32b921b7b6b6b7b760791b815250836102cd60201b60201c565b5f6103818282610502565b5050565b6001600160a01b0381168114610399575f5ffd5b50565b5f5f5f606084860312156103ae575f5ffd5b83516103b981610385565b60208501519093506103ca81610385565b60408501519092506103db81610385565b809150509250925092565b5f81518060208401855e5f93019283525090919050565b7f62616c616e6365722d6c6162732e76332e73746f726167652e0000000000000081525f61042e60198301856103e6565b601760f91b815261044260018201856103e6565b95945050505050565b8181038181111561033657634e487b7160e01b5f52601160045260245ffd5b634e487b7160e01b5f52604160045260245ffd5b600181811c9082168061049257607f821691505b6020821081036104b057634e487b7160e01b5f52602260045260245ffd5b50919050565b601f8211156104fd57805f5260205f20601f840160051c810160208510156104db5750805b601f840160051c820191505b818110156104fa575f81556001016104e7565b50505b505050565b81516001600160401b0381111561051b5761051b61046a565b61052f81610529845461047e565b846104b6565b6020601f821160018114610561575f831561054a5750848201515b5f19600385901b1c1916600184901b1784556104fa565b5f84815260208120601f198516915b828110156105905787850151825560209485019460019092019101610570565b50848210156105ad57868401515f19600387901b60f8161c191681555b50505050600190811b01905550565b60805160a05160c05160e05161010051610120516101405161016051610180516101a0516101c0516101e0516167856107f15f395f613b7201525f61044801525f61282101525f6138de01525f6136b801525f613b4e01525f81816108d501528181611fab0152613fc301525f818161026101528181612f6f0152614c6001525f818161014e015281816101c701528181613ff3015281816140e20152818161412001528181614bd40152614c1201525f613e6c01525f818161039e015281816104ee0152818161070801528181610a5601528181610b2d01528181610c4201528181610cfb01528181610d9a01528181610e8e01528181610fab01528181611029015281816110a6015281816111360152818161121301528181611728015281816117c70152818161188601528181611af201528181611bf801528181611e990152818161210b0152818161226d0152818161236c0152818161245d015281816125a30152818161269501528181612734015281816128de0152818161292301528181612ab101528181612b990152818161300d015281816130f5015281816133f30152818161348b0152818161352d0152818161360101528181613923015281816139cd01528181613c7e01528181614054015281816141410152818161417e01528181614301015281816145a7015281816147ba0152818161480301528181614928015281816149b301528181614a8501528181614c3301528181614c900152614d3801525f613b2a01526167855ff3fe60806040526004361061013e575f3560e01c80630f8fb1cc14610192578063107c279f146101b9578063175f31c6146101f457806319aceff31461020757806319c6989f146102335780631bbf2e231461025357806327bfb13a146102855780633121edfc146102a457806347cd1d02146102c357806348bbd869146102e25780634c97a878146102f657806354fd4d50146103155780635e01eb5a14610336578063698cc74b1461034a5780636c1fb320146103695780638c824cd91461037c5780638d928af81461039057806396123406146103c2578063a5bb0bd1146103d6578063ac9650d8146103f5578063c1da024c14610408578063c9b8ddb21461041b578063cd791ccc1461043a578063d2b1b9031461046c578063d8a7f9fe1461048b578063e3c3e64f1461049e578063f921696e146104b1575f5ffd5b3661018e57336001600160a01b037f0000000000000000000000000000000000000000000000000000000000000000161461018c576040516302a06efb60e11b815260040160405180910390fd5b005b5f5ffd5b34801561019d575f5ffd5b506101a66104d0565b6040519081526020015b60405180910390f35b3480156101c4575f5ffd5b507f00000000000000000000000000000000000000000000000000000000000000005b6040516101b091906150c9565b6101a66102023660046152b6565b6104de565b348015610212575f5ffd5b506102266102213660046153eb565b61063e565b6040516101b0919061548c565b61024661024136600461552b565b6108d1565b6040516101b0919061564e565b34801561025e575f5ffd5b507f00000000000000000000000000000000000000000000000000000000000000006101e7565b348015610290575f5ffd5b506101a661029f3660046153eb565b610939565b3480156102af575f5ffd5b506101a66102be3660046156b1565b610b0c565b3480156102ce575f5ffd5b506102266102dd366004615785565b610c25565b3480156102ed575f5ffd5b506101a66116e7565b348015610301575f5ffd5b506102266103103660046153eb565b6116f0565b348015610320575f5ffd5b50610329611a21565b6040516101b09190615810565b348015610341575f5ffd5b506101e7611ab0565b348015610355575f5ffd5b50610226610364366004615886565b611ac0565b610226610377366004615916565b611be7565b348015610387575f5ffd5b506101a6611d2f565b34801561039b575f5ffd5b507f00000000000000000000000000000000000000000000000000000000000000006101e7565b3480156103cd575f5ffd5b506101a6611d3f565b3480156103e1575f5ffd5b506101a66103f0366004615785565b611d49565b6102466104033660046159bf565b611f5f565b6101a66104163660046159fd565b6120fb565b348015610426575f5ffd5b506101a6610435366004615a82565b61224c565b348015610445575f5ffd5b507f00000000000000000000000000000000000000000000000000000000000000006101a6565b348015610477575f5ffd5b50610226610486366004615aff565b61234b565b610226610499366004615b84565b61244c565b6102266104ac3660046159fd565b612592565b3480156104bc575f5ffd5b506102266104cb366004615886565b612683565b5f6104d961281f565b905090565b5f335f6104ea82612843565b90507f00000000000000000000000000000000000000000000000000000000000000006001600160a01b03166348c894916040518060e00160405280336001600160a01b031681526020018d6001600160a01b031681526020018b81526020018981526020016001600481111561056357610563615c09565b81526020018815158152602001878152508b8a60405160240161058893929190615ce4565b60408051601f198184030181529181526020820180516001600160e01b031663a5bb0bd160e01b179052516001600160e01b031960e084901b1681526105d19190600401615810565b5f604051808303815f875af11580156105ec573d5f5f3e3d5ffd5b505050506040513d5f823e601f3d908101601f191682016040526106139190810190615d73565b8060200190518101906106269190615dac565b925061063181612877565b5050979650505050505050565b606061064861288c565b6106506128d3565b5f8061067a6106656040880160208901615dc3565b6106726040890189615dde565b90508661291e565b915091505f816001600160401b0381111561069757610697615101565b6040519080825280602002602001820160405280156106c0578160200160208202803683370190505b5090505f5b828110156106fc576001600160801b0380168282815181106106e9576106e9615e23565b60209081029190910101526001016106c5565b505f6001600160a01b037f000000000000000000000000000000000000000000000000000000000000000016634af29ec46107448a8561073f6020830183615dc3565b6129c7565b6040518263ffffffff1660e01b81526004016107609190615e37565b5f604051808303815f875af115801561077b573d5f5f3e3d5ffd5b505050506040513d5f823e601f3d908101601f191682016040526107a29190810190615f09565b50509050826001600160401b038111156107be576107be615101565b6040519080825280602002602001820160405280156107e7578160200160208202803683370190505b50945032155f5b848110156108a7576108828a8388848151811061080d5761080d615e23565b602002602001015186858151811061082757610827615e23565b60200260200101518d8d8781811061084157610841615e23565b90506020020160208101906108569190615f6c565b8f80604001906108669190615dde565b8881811061087657610876615e23565b90506020020135612a8d565b87828151811061089457610894615e23565b60209081029190910101526001016107ee565b506108bd6108b860208b018b615dc3565b612cdc565b50505050506108ca612d14565b9392505050565b60607f000000000000000000000000000000000000000000000000000000000000000015610912576040516329a270f560e01b815260040160405180910390fd5b6109218a8a8a8a8a8a8a612d2b565b61092b8383611f5f565b9a9950505050505050505050565b5f61094261288c565b61094a6128d3565b5f8061095f6106656040880160208901615dc3565b915091505f816001600160401b0381111561097c5761097c615101565b6040519080825280602002602001820160405280156109a5578160200160208202803683370190505b50905032155f5b83811015610a4b57610a2689838784815181106109cb576109cb615e23565b60200260200101518c80604001906109e39190615dde565b868181106109f3576109f3615e23565b905060200201358c8c87818110610a0c57610a0c615e23565b9050602002016020810190610a219190615f6c565b612fe9565b838281518110610a3857610a38615e23565b60209081029190910101526001016109ac565b506001600160a01b037f000000000000000000000000000000000000000000000000000000000000000016634af29ec4610a8d8a8561073f6020830183615dc3565b6040518263ffffffff1660e01b8152600401610aa99190615e37565b5f604051808303815f875af1158015610ac4573d5f5f3e3d5ffd5b505050506040513d5f823e601f3d908101601f19168201604052610aeb9190810190615f09565b509550610b0090506108b860208a018a615dc3565b505050506108ca612d14565b5f825f610b1882612843565b90505f610b298a895f6001896131d7565b90507f00000000000000000000000000000000000000000000000000000000000000006001600160a01b031663edfa3568828b8a604051602401610b6f93929190615ce4565b60408051601f198184030181529181526020820180516001600160e01b031663a5bb0bd160e01b179052516001600160e01b031960e084901b168152610bb89190600401615810565b5f604051808303815f875af1158015610bd3573d5f5f3e3d5ffd5b505050506040513d5f823e601f3d908101601f19168201604052610bfa9190810190615d73565b806020019051810190610c0d9190615dac565b935050610c1981612877565b50509695505050505050565b6060610c2f61288c565b610c376128d3565b5f6001600160a01b037f00000000000000000000000000000000000000000000000000000000000000001663ca4f2803610c776040880160208901615dc3565b6040518263ffffffff1660e01b8152600401610c9391906150c9565b5f60405180830381865afa158015610cad573d5f5f3e3d5ffd5b505050506040513d5f823e601f3d908101601f19168201604052610cd49190810190615f87565b9050610cef610ce66040870187615dde565b905085516132a9565b60606001600160a01b037f00000000000000000000000000000000000000000000000000000000000000001663be7d628a610d306040890160208a01615dc3565b6040518263ffffffff1660e01b8152600401610d4c91906150c9565b602060405180830381865afa158015610d67573d5f5f3e3d5ffd5b505050506040513d601f19601f82011682018060405250810190610d8b9190616016565b15610e8c576001600160a01b037f00000000000000000000000000000000000000000000000000000000000000001663a07d6040610dcf6040890160208a01615dc3565b610ddc60208a018a615dc3565b896060013586516001600160401b03811115610dfa57610dfa615101565b604051908082528060200260200182016040528015610e23578160200160208202803683370190505b506040518563ffffffff1660e01b8152600401610e439493929190616031565b5f604051808303815f875af1158015610e5e573d5f5f3e3d5ffd5b505050506040513d5f823e601f3d908101601f19168201604052610e859190810190616063565b9050610f29565b7f00000000000000000000000000000000000000000000000000000000000000006001600160a01b03166321457897610ec68885516132c9565b6040518263ffffffff1660e01b8152600401610ee291906160a4565b5f604051808303815f875af1158015610efd573d5f5f3e3d5ffd5b505050506040513d5f823e601f3d908101601f19168201604052610f249190810190616101565b509150505b5f5b8251811015611461575f838281518110610f4757610f47615e23565b602002602001015190505f838381518110610f6457610f64615e23565b602002602001015190505f610f7983896133da565b90506001816002811115610f8f57610f8f615c09565b036114245760405163ae63932960e01b81526001600160a01b037f0000000000000000000000000000000000000000000000000000000000000000169063ae63932990610fe490869030908790600401616159565b5f604051808303815f87803b158015610ffb575f5ffd5b505af115801561100d573d5f5f3e3d5ffd5b505060405163ca4f280360e01b81525f92506001600160a01b037f000000000000000000000000000000000000000000000000000000000000000016915063ca4f28039061105f9087906004016150c9565b5f60405180830381865afa158015611079573d5f5f3e3d5ffd5b505050506040513d5f823e601f3d908101601f191682016040526110a09190810190615f87565b905060607f00000000000000000000000000000000000000000000000000000000000000006001600160a01b031663be7d628a866040518263ffffffff1660e01b81526004016110f091906150c9565b602060405180830381865afa15801561110b573d5f5f3e3d5ffd5b505050506040513d601f19601f8201168201806040525081019061112f9190616016565b15611211577f00000000000000000000000000000000000000000000000000000000000000006001600160a01b031663a07d604086308786516001600160401b0381111561117f5761117f615101565b6040519080825280602002602001820160405280156111a8578160200160208202803683370190505b506040518563ffffffff1660e01b81526004016111c89493929190616031565b5f604051808303815f875af11580156111e3573d5f5f3e3d5ffd5b505050506040513d5f823e601f3d908101601f1916820160405261120a9190810190616063565b905061138d565b7f00000000000000000000000000000000000000000000000000000000000000006001600160a01b031663214578976040518060c00160405280886001600160a01b03168152602001306001600160a01b0316815260200187815260200185516001600160401b0381111561128857611288615101565b6040519080825280602002602001820160405280156112b1578160200160208202803683370190505b5081526020018f60800160208101906112ca919061617d565b60038111156112db576112db615c09565b81526020018f8060c001906112f0919061619b565b8080601f0160208091040260200160405190810160405280939291908181526020018383808284375f9201919091525050509152506040516001600160e01b031960e084901b16815261134691906004016160a4565b5f604051808303815f875af1158015611361573d5f5f3e3d5ffd5b505050506040513d5f823e601f3d908101601f191682016040526113889190810190616101565b509150505b5f5b825181101561141c575f8382815181106113ab576113ab615e23565b602002602001015190505f8383815181106113c8576113c8615e23565b602002602001015190505f6113dd838f6133da565b905060028160028111156113f3576113f3615c09565b0361140757611402838361352a565b611411565b6114118383613695565b50505060010161138f565b505050611456565b600281600281111561143857611438615c09565b0361144c57611447838361352a565b611456565b6114568383613695565b505050600101610f2b565b508451806114756114706136b6565b6136da565b146114af5761148a6114856136b6565b6136e4565b8660405163252b8a0360e21b81526004016114a69291906161dd565b60405180910390fd5b806001600160401b038111156114c7576114c7615101565b6040519080825280602002602001820160405280156114f0578160200160208202803683370190505b5093505f816001600160401b0381111561150c5761150c615101565b604051908082528060200260200182016040528015611535578160200160208202803683370190505b5090505f5b828110156116b9575f88828151811061155557611555615e23565b602002602001015190505f6115728261156c6136b6565b90613785565b905083818151811061158657611586615e23565b6020026020010151156115ba5761159e6114856136b6565b8a60405163252b8a0360e21b81526004016114a69291906161dd565b60018482815181106115ce576115ce615e23565b911515602092830291909101909101526115f0826115ea61281f565b906137c0565b88848151811061160257611602615e23565b602090810291909101015261161a60408c018c615dde565b8481811061162a5761162a615e23565b9050602002013588848151811061164357611643615e23565b602002602001015110156116af578188848151811061166457611664615e23565b60200260200101518c806040019061167c9190615dde565b8681811061168c5761168c615e23565b905060200201356040516317bc2f2360e11b81526004016114a693929190616201565b505060010161153a565b5032155f03610b0057610b006116d260208a018a615dc3565b6116e260c08b0160a08c01615f6c565b6137d4565b5f6104d96138dc565b60606116fa61288c565b6117026128d3565b5f806117176106656040880160208901615dc3565b909250905060606001600160a01b037f00000000000000000000000000000000000000000000000000000000000000001663be7d628a61175d60408a0160208b01615dc3565b6040518263ffffffff1660e01b815260040161177991906150c9565b602060405180830381865afa158015611794573d5f5f3e3d5ffd5b505050506040513d601f19601f820116820180604052508101906117b89190616016565b15611884576001600160a01b037f00000000000000000000000000000000000000000000000000000000000000001663a07d60406117fc60408a0160208b01615dc3565b61180960208b018b615dc3565b60608b013561181b60408d018d615dde565b6040518663ffffffff1660e01b815260040161183b959493929190616222565b5f604051808303815f875af1158015611856573d5f5f3e3d5ffd5b505050506040513d5f823e601f3d908101601f1916820160405261187d9190810190616063565b9050611920565b7f00000000000000000000000000000000000000000000000000000000000000006001600160a01b031663214578976118bd89856132c9565b6040518263ffffffff1660e01b81526004016118d991906160a4565b5f604051808303815f875af11580156118f4573d5f5f3e3d5ffd5b505050506040513d5f823e601f3d908101601f1916820160405261191b9190810190616101565b509150505b816001600160401b0381111561193857611938615101565b604051908082528060200260200182016040528015611961578160200160208202803683370190505b50935032155f5b838110156108bd576119fc898387848151811061198757611987615e23565b60200260200101518685815181106119a1576119a1615e23565b60200260200101518c8c878181106119bb576119bb615e23565b90506020020160208101906119d09190615f6c565b8e80604001906119e09190615dde565b888181106119f0576119f0615e23565b90506020020135613900565b868281518110611a0e57611a0e615e23565b6020908102919091010152600101611968565b60605f8054611a2f9061627b565b80601f0160208091040260200160405190810160405280929190818152602001828054611a5b9061627b565b8015611aa65780601f10611a7d57610100808354040283529160200191611aa6565b820191905f5260205f20905b815481529060010190602001808311611a8957829003601f168201915b5050505050905090565b5f6104d9611abc613b28565b5c90565b6060825f611acd82612843565b604080515f8082526020820190925291925090611aee908a90895f896131d7565b90507f00000000000000000000000000000000000000000000000000000000000000006001600160a01b031663edfa3568828a604051602401611b329291906162df565b60408051601f198184030181529181526020820180516001600160e01b03166319aceff360e01b179052516001600160e01b031960e084901b168152611b7b9190600401615810565b5f604051808303815f875af1158015611b96573d5f5f3e3d5ffd5b505050506040513d5f823e601f3d908101601f19168201604052611bbd9190810190615d73565b806020019051810190611bd09190616063565b935050611bdc81612877565b505095945050505050565b6060335f611bf482612843565b90507f00000000000000000000000000000000000000000000000000000000000000006001600160a01b03166348c894916040518060e00160405280336001600160a01b031681526020018d6001600160a01b031681526020018a81526020018c81526020015f6003811115611c6c57611c6c615c09565b81526020018815158152602001878152508a89604051602401611c9193929190616359565b60408051601f198184030181529181526020820180516001600160e01b03166323e68e8160e11b179052516001600160e01b031960e084901b168152611cda9190600401615810565b5f604051808303815f875af1158015611cf5573d5f5f3e3d5ffd5b505050506040513d5f823e601f3d908101601f19168201604052611d1c9190810190615d73565b8060200190518101906106269190616063565b5f5f611d39613b4c565b92915050565b5f5f611d396136b6565b5f611d5261288c565b611d5a6128d3565b611d73611d6a6040860186615dde565b905084516132a9565b5f611d7f611485613b70565b80519091505b8015611dd157611dc082611d9a60018461637f565b81518110611daa57611daa615e23565b6020026020010151611dba613b70565b90613b94565b50611dca81616392565b9050611d85565b505f5b8451811015611e7d575f611deb6040880188615dde565b83818110611dfb57611dfb615e23565b9050602002013590505f811115611e74575f868381518110611e1f57611e1f615e23565b60200260200101519050611e3d8183611e366138dc565b9190613c21565b611e4f81611e49613b4c565b90613c32565b15155f03611e72578060405163030502a760e51b81526004016114a691906150c9565b505b50600101611dd4565b5032155f80611e8d888488613c70565b915091508015611f46577f00000000000000000000000000000000000000000000000000000000000000006001600160a01b0316634af29ec4611ee38a8587611edd5761073f60208e018e615dc3565b306129c7565b6040518263ffffffff1660e01b8152600401611eff9190615e37565b5f604051808303815f875af1158015611f1a573d5f5f3e3d5ffd5b505050506040513d5f823e601f3d908101601f19168201604052611f419190810190615f09565b509550505b8215155f03610b0057610b006116d260208a018a615dc3565b60605f611f6b33612843565b9050611f78611abc613e6a565b15611f9657604051633ee5aeb560e01b815260040160405180910390fd5b611fa96001611fa3613e6a565b90613e8e565b7f000000000000000000000000000000000000000000000000000000000000000015611fe8576040516329a270f560e01b815260040160405180910390fd5b826001600160401b0381111561200057612000615101565b60405190808252806020026020018201604052801561203357816020015b606081526020019060019003908161201e5790505b5091505f5b838110156120c6576120a13086868481811061205657612056615e23565b9050602002810190612068919061619b565b8080601f0160208091040260200160405190810160405280939291908181526020018383808284375f92019190915250613e9592505050565b8382815181106120b3576120b3615e23565b6020908102919091010152600101612038565b506120d35f611fa3613e6a565b5f6120df611abc613b28565b90506120ea82612877565b6120f381612cdc565b505092915050565b5f335f61210782612843565b90507f00000000000000000000000000000000000000000000000000000000000000006001600160a01b03166348c894916040518060e00160405280336001600160a01b031681526020018c6001600160a01b031681526020018a81526020018981526020016001600481111561218057612180615c09565b81526020018815158152602001878152508a6040516024016121a39291906162df565b60408051601f198184030181529181526020820180516001600160e01b03166313dfd89d60e11b179052516001600160e01b031960e084901b1681526121ec9190600401615810565b5f604051808303815f875af1158015612207573d5f5f3e3d5ffd5b505050506040513d5f823e601f3d908101601f1916820160405261222e9190810190615d73565b8060200190518101906122419190615dac565b9250610c1981612877565b5f825f61225882612843565b90505f61226989885f6001896131d7565b90507f00000000000000000000000000000000000000000000000000000000000000006001600160a01b031663edfa3568828a6040516024016122ad9291906162df565b60408051601f198184030181529181526020820180516001600160e01b03166313dfd89d60e11b179052516001600160e01b031960e084901b1681526122f69190600401615810565b5f604051808303815f875af1158015612311573d5f5f3e3d5ffd5b505050506040513d5f823e601f3d908101601f191682016040526123389190810190615d73565b806020019051810190611bd09190615dac565b6060825f61235882612843565b90505f6123688a8a8a5188613f07565b90507f00000000000000000000000000000000000000000000000000000000000000006001600160a01b031663edfa3568828a8a6040516024016123ae93929190616359565b60408051601f198184030181529181526020820180516001600160e01b03166323e68e8160e11b179052516001600160e01b031960e084901b1681526123f79190600401615810565b5f604051808303815f875af1158015612412573d5f5f3e3d5ffd5b505050506040513d5f823e601f3d908101601f191682016040526124399190810190615d73565b806020019051810190610c0d9190616063565b6060335f61245982612843565b90507f00000000000000000000000000000000000000000000000000000000000000006001600160a01b03166348c894916040518060e00160405280336001600160a01b031681526020018c6001600160a01b031681526020018981526020018a81526020015f60038111156124d1576124d1615c09565b81526020018815158152602001878152508a6040516024016124f49291906163a7565b60408051601f198184030181529181526020820180516001600160e01b0316630992f50f60e31b179052516001600160e01b031960e084901b16815261253d9190600401615810565b5f604051808303815f875af1158015612558573d5f5f3e3d5ffd5b505050506040513d5f823e601f3d908101601f1916820160405261257f9190810190615d73565b8060200190518101906122419190616063565b6060335f61259f82612843565b90507f00000000000000000000000000000000000000000000000000000000000000006001600160a01b03166348c894916040518060e00160405280336001600160a01b031681526020018c6001600160a01b031681526020018a81526020018981526020015f600481111561261757612617615c09565b81526020018815158152602001878152508a60405160240161263a9291906162df565b60408051601f198184030181529181526020820180516001600160e01b03166319aceff360e01b179052516001600160e01b031960e084901b16815261253d9190600401615810565b6060825f61269082612843565b90505f7f00000000000000000000000000000000000000000000000000000000000000006001600160a01b031663ca4f28038a6040518263ffffffff1660e01b81526004016126df91906150c9565b5f60405180830381865afa1580156126f9573d5f5f3e3d5ffd5b505050506040513d5f823e601f3d908101601f191682016040526127209190810190615f87565b90505f6127308a89845189613f07565b90507f00000000000000000000000000000000000000000000000000000000000000006001600160a01b031663edfa3568828b6040516024016127749291906163a7565b60408051601f198184030181529181526020820180516001600160e01b0316630992f50f60e31b179052516001600160e01b031960e084901b1681526127bd9190600401615810565b5f604051808303815f875af11580156127d8573d5f5f3e3d5ffd5b505050506040513d5f823e601f3d908101601f191682016040526127ff9190810190615d73565b8060200190518101906128129190616063565b94505050611bdc81612877565b7f000000000000000000000000000000000000000000000000000000000000000090565b5f5f612850611abc613b28565b90506001600160a01b0381166128715761286c83611fa3613b28565b600191505b50919050565b8015612889576128895f611fa3613b28565b50565b5f5160206167305f395f51905f525c156128b957604051633ee5aeb560e01b815260040160405180910390fd5b6128d160015f5160206167305f395f51905f52611fa3565b565b336001600160a01b037f000000000000000000000000000000000000000000000000000000000000000016146128d1573360405163089676d560e01b81526004016114a691906150c9565b60605f7f00000000000000000000000000000000000000000000000000000000000000006001600160a01b031663ca4f2803866040518263ffffffff1660e01b815260040161296d91906150c9565b5f60405180830381865afa158015612987573d5f5f3e3d5ffd5b505050506040513d5f823e601f3d908101601f191682016040526129ae9190810190615f87565b9150815190506129bf818585613f94565b935093915050565b6129cf614ffb565b6040518060c001604052808560200160208101906129ed9190615dc3565b6001600160a01b03168152602001836001600160a01b0316815260200184815260200185606001358152602001856080016020810190612a2d91906163b9565b6004811115612a3e57612a3e615c09565b8152602001612a5060c087018761619b565b8080601f0160208091040260200160405190810160405280939291908181526020018383808284375f920191909152505050915250949350505050565b5f5f83612a9a5785612b25565b60405163257dd7ad60e11b81526001600160a01b037f00000000000000000000000000000000000000000000000000000000000000001690634afbaf5a90612ae69089906004016150c9565b602060405180830381865afa158015612b01573d5f5f3e3d5ffd5b505050506040513d601f19601f82011682018060405250810190612b2591906163d7565b9050838015612b3b57506001600160a01b038116155b15612b5b57856040516385f4129960e01b81526004016114a691906150c9565b8615155f03612b8b57612b8b612b7460208a018a615dc3565b612b8460c08b0160a08c01615f6c565b8386613fc1565b8415612c71578315612c6d577f00000000000000000000000000000000000000000000000000000000000000006001600160a01b03166343583be56040518060a00160405280600180811115612be357612be3615c09565b81526020015f8152602001896001600160a01b03168152602001888152602001868152506040518263ffffffff1660e01b8152600401612c239190616402565b6060604051808303815f875af1158015612c3f573d5f5f3e3d5ffd5b505050506040513d601f19601f82011682018060405250810190612c639190616455565b509250612c719050565b8491505b82821115612c98578082846040516323b6a17960e21b81526004016114a693929190616201565b8615155f03612cd157612cd1612cb160208a018a615dc3565b82612cbc858761637f565b612ccc60c08d0160a08e01615f6c565b6140d2565b509695505050505050565b475f819003612ce9575050565b612cf4611abc613e6a565b15612cfd575050565b612d106001600160a01b038316826141ea565b5050565b6128d15f5f5160206167305f395f51905f52611fa3565b612d3361288c565b612d3d86856132a9565b5f5b86811015612f44575f868683818110612d5a57612d5a615e23565b9050602002810190612d6c919061619b565b8080601f0160208091040260200160405190810160405280939291908181526020018383808284375f920182905250939450612dad92508491506142849050565b90505f8a8a85818110612dc257612dc2615e23565b905060c00201803603810190612dd89190616480565b8051602080830151606084015160a08501516040808901518951958a0151915163d505accf60e01b81526001600160a01b0395861660048201523060248201526044810194909452606484019290925260ff909116608483015260a482019390935260c481019290925292935091169063d505accf9060e4015f604051808303815f87803b158015612e68575f5ffd5b505af1925050508015612e79575060015b612f36573d808015612ea6576040519150601f19603f3d011682016040523d82523d5f602084013e612eab565b606091505b50606082015182516020840151604051636eb1769f60e11b81526001600160a01b03918216600482015230602482015291169063dd62ed3e90604401602060405180830381865afa158015612f02573d5f5f3e3d5ffd5b505050506040513d601f19601f82011682018060405250810190612f269190615dac565b14612f3457612f34816142d3565b505b505050806001019050612d3f565b505f612f508480616511565b90501115612fd857604051632a2d80d160e01b81526001600160a01b037f00000000000000000000000000000000000000000000000000000000000000001690632a2d80d190612faa903390879087908790600401616593565b5f604051808303815f87803b158015612fc1575f5ffd5b505af1158015612fd3573d5f5f3e3d5ffd5b505050505b612fe0612d14565b50505050505050565b5f5f82612ff65784613081565b60405163257dd7ad60e11b81526001600160a01b037f00000000000000000000000000000000000000000000000000000000000000001690634afbaf5a906130429088906004016150c9565b602060405180830381865afa15801561305d573d5f5f3e3d5ffd5b505050506040513d601f19601f8201168201806040525081019061308191906163d7565b905082801561309757506001600160a01b038116155b156130b757846040516385f4129960e01b81526004016114a691906150c9565b8515155f036130e7576130e76130d06020890189615dc3565b6130e060c08a0160a08b01615f6c565b8387613fc1565b82156131c95783156131c4577f00000000000000000000000000000000000000000000000000000000000000006001600160a01b03166343583be56040518060a001604052805f600181111561313f5761313f615c09565b81526020015f8152602001886001600160a01b031681526020018781526020015f8152506040518263ffffffff1660e01b815260040161317f9190616402565b6060604051808303815f875af115801561319b573d5f5f3e3d5ffd5b505050506040513d601f19601f820116820180604052508101906131bf9190616455565b935050505b6131cd565b8391505b5095945050505050565b6131df615032565b60605f808560048111156131f5576131f5615c09565b0361320d57613203886142fc565b9150859050613247565b600185600481111561322157613221615c09565b0361322e57869150613247565b604051636c02b39560e01b815260040160405180910390fd5b6040518060e00160405280306001600160a01b03168152602001896001600160a01b0316815260200183815260200182815260200186600481111561328e5761328e615c09565b81525f60208201526040018590529250505095945050505050565b808214612d105760405163aaad13f760e01b815260040160405180910390fd5b6132d161506f565b6040518060c001604052808460200160208101906132ef9190615dc3565b6001600160a01b0316815260209081019061330c90860186615dc3565b6001600160a01b0316815260200184606001358152602001836001600160401b0381111561333c5761333c615101565b604051908082528060200260200182016040528015613365578160200160208202803683370190505b50815260200161337b60a086016080870161617d565b600381111561338c5761338c615c09565b815260200161339e60c086018661619b565b8080601f0160208091040260200160405190810160405280939291908181526020018383808284375f9201919091525050509152509392505050565b60405163c673bdaf60e01b81525f906001600160a01b037f0000000000000000000000000000000000000000000000000000000000000000169063c673bdaf906134289086906004016150c9565b602060405180830381865afa158015613443573d5f5f3e3d5ffd5b505050506040513d601f19601f820116820180604052508101906134679190616016565b1561347457506001611d39565b604051636844846b60e01b81526001600160a01b037f00000000000000000000000000000000000000000000000000000000000000001690636844846b906134c09086906004016150c9565b602060405180830381865afa1580156134db573d5f5f3e3d5ffd5b505050506040513d601f19601f820116820180604052508101906134ff9190616016565b156135225761350e838361440c565b613518575f61351b565b60025b9050611d39565b505f92915050565b5f7f00000000000000000000000000000000000000000000000000000000000000006001600160a01b03166343583be56040518060a001604052805f600181111561357757613577615c09565b815260200160018152602001866001600160a01b031681526020018581526020015f8152506040518263ffffffff1660e01b81526004016135b89190616402565b6060604051808303815f875af11580156135d4573d5f5f3e3d5ffd5b505050506040513d601f19601f820116820180604052508101906135f89190616455565b925050506136907f00000000000000000000000000000000000000000000000000000000000000006001600160a01b0316634afbaf5a856040518263ffffffff1660e01b815260040161364b91906150c9565b602060405180830381865afa158015613666573d5f5f3e3d5ffd5b505050506040513d601f19601f8201168201806040525081019061368a91906163d7565b82613695565b505050565b6136a182611e496136b6565b50612d1082826136af61281f565b9190614469565b7f000000000000000000000000000000000000000000000000000000000000000090565b5f611d398261448e565b60605f6136f08361448e565b9050806001600160401b0381111561370a5761370a615101565b604051908082528060200260200182016040528015613733578160200160208202803683370190505b5091505f5b8181101561377e5761374c81855b90614496565b83828151811061375e5761375e615e23565b6001600160a01b0390921660209283029190910190910152600101613738565b5050919050565b5f8061379483600186016115ea565b9050805f036137b657604051633357a9c960e11b815260040160405180910390fd5b5f19019392505050565b5f6108ca611abc6137d185856144b4565b90565b5f6137e0611470613b4c565b90505f6137ee6114706136b6565b90505f6137fc6001846166ba565b90505b5f8112613863575f61381982613813613b4c565b906144c5565b90505f613828826115ea6138dc565b905061383687878484613fc1565b613843825f611e366138dc565b61384f82611dba613b4c565b5050508061385c906166d9565b90506137ff565b505f6138706001836166ba565b90505b5f81126138cc575f613887826138136136b6565b90506138a0868261389a846115ea61281f565b886140d2565b6138ad815f611e3661281f565b6138b981611dba6136b6565b5050806138c5906166d9565b9050613873565b506138d684612cdc565b50505050565b7f000000000000000000000000000000000000000000000000000000000000000090565b5f5f8315613ad15760405163257dd7ad60e11b815286905f906001600160a01b037f00000000000000000000000000000000000000000000000000000000000000001690634afbaf5a906139589085906004016150c9565b602060405180830381865afa158015613973573d5f5f3e3d5ffd5b505050506040513d601f19601f8201168201806040525081019061399791906163d7565b92508290506001600160a01b0381166139c557816040516385f4129960e01b81526004016114a691906150c9565b8615613aca577f00000000000000000000000000000000000000000000000000000000000000006001600160a01b03166343583be56040518060a001604052805f6001811115613a1757613a17615c09565b815260200160018152602001856001600160a01b031681526020018a8152602001888152506040518263ffffffff1660e01b8152600401613a589190616402565b6060604051808303815f875af1158015613a74573d5f5f3e3d5ffd5b505050506040513d601f19601f82011682018060405250810190613a989190616455565b955050508815155f03613aca57613aca613ab560208c018c615dc3565b82868d60a0016020810190612ccc9190615f6c565b5050613b01565b50839050848615155f03613b0157613b01613aef60208a018a615dc3565b8284612ccc60c08d0160a08e01615f6c565b82821015612cd1578082846040516317bc2f2360e11b81526004016114a693929190616201565b7f000000000000000000000000000000000000000000000000000000000000000090565b7f000000000000000000000000000000000000000000000000000000000000000090565b7f000000000000000000000000000000000000000000000000000000000000000090565b5f80613ba383600186016115ea565b90508015613c11575f1981015f6001613bbb8761448e565b039050808214613bed575f613bd087836144d0565b9050613bdd8784836144f4565b613beb818560018a01611e36565b505b613bf686614518565b50613c05855f60018901611e36565b60019350505050611d39565b5f915050611d39565b5092915050565b61369081611fa36137d186866144b4565b5f613c3d8383614559565b613c6957613c4b8383614570565b613c6182613c588561448e565b60018601611e36565b506001611d39565b505f611d39565b60605f806001600160a01b037f00000000000000000000000000000000000000000000000000000000000000001663ca4f2803613cb36040890160208a01615dc3565b6040518263ffffffff1660e01b8152600401613ccf91906150c9565b5f60405180830381865afa158015613ce9573d5f5f3e3d5ffd5b505050506040513d5f823e601f3d908101601f19168201604052613d109190810190615f87565b8051909150806001600160401b03811115613d2d57613d2d615101565b604051908082528060200260200182016040528015613d56578160200160208202803683370190505b5093505f5b81811015613e5f575f838281518110613d7657613d76615e23565b602002602001015190505f613d8b82896133da565b90505f613d9a836115ea6138dc565b90506001826002811115613db057613db0615c09565b03613dc857613dc18b8b858c6145a3565b9050613e1d565b6002826002811115613ddc57613ddc615c09565b03613dec57613dc18b8b856149af565b5f826002811115613dff57613dff615c09565b14613e1d5760405163a1e9dd9d60e01b815260040160405180910390fd5b8015613e54576001965080888581518110613e3a57613e3a615e23565b602002602001018181525050613e5283611e49613b70565b505b505050600101613d5b565b505050935093915050565b7f000000000000000000000000000000000000000000000000000000000000000090565b80825d5050565b60605f5f846001600160a01b031684604051613eb191906166ed565b5f60405180830381855af49150503d805f8114613ee9576040519150601f19603f3d011682016040523d82523d5f602084013e613eee565b606091505b5091509150613efe858383614b77565b95945050505050565b613f0f61509b565b6040805160e0810182523081526001600160a01b0387166020820152908101846001600160401b03811115613f4657613f46615101565b604051908082528060200260200182016040528015613f6f578160200160208202803683370190505b508152602081018690526040015f81525f602082015260400192909252509392505050565b8183141580613fa35750808214155b156136905760405163aaad13f760e01b815260040160405180910390fd5b7f00000000000000000000000000000000000000000000000000000000000000001580614027575082801561402757507f00000000000000000000000000000000000000000000000000000000000000006001600160a01b0316826001600160a01b0316145b1561403d5761403884838386614bca565b6138d6565b6040516315afd40960e01b81526001600160a01b037f000000000000000000000000000000000000000000000000000000000000000016906315afd4099061408b9085908590600401616703565b6020604051808303815f875af11580156140a7573d5f5f3e3d5ffd5b505050506040513d601f19601f820116820180604052508101906140cb9190615dac565b5050505050565b81156138d65780801561411657507f00000000000000000000000000000000000000000000000000000000000000006001600160a01b0316836001600160a01b0316145b15614167576140387f00000000000000000000000000000000000000000000000000000000000000007f00000000000000000000000000000000000000000000000000000000000000008685614d71565b60405163ae63932960e01b81526001600160a01b037f0000000000000000000000000000000000000000000000000000000000000000169063ae639329906141b790869088908790600401616159565b5f604051808303815f87803b1580156141ce575f5ffd5b505af11580156141e0573d5f5f3e3d5ffd5b5050505050505050565b804710156142145760405163cf47918160e01b8152476004820152602481018290526044016114a6565b5f826001600160a01b0316826040515f6040518083038185875af1925050503d805f811461425d576040519150601f19603f3d011682016040523d82523d5f602084013e614262565b606091505b50509050806136905760405163d6bda27560e01b815260040160405180910390fd5b6142a860405180606001604052805f81526020015f81526020015f60ff1681525090565b602082810151604080850151606090950151918452918301939093525f9290921a9181019190915290565b8051156142e35780518082602001fd5b60405163a728568960e01b815260040160405180910390fd5b60605f7f00000000000000000000000000000000000000000000000000000000000000006001600160a01b031663ca4f2803846040518263ffffffff1660e01b815260040161434b91906150c9565b5f60405180830381865afa158015614365573d5f5f3e3d5ffd5b505050506040513d5f823e601f3d908101601f1916820160405261438c9190810190615f87565b519050806001600160401b038111156143a7576143a7615101565b6040519080825280602002602001820160405280156143d0578160200160208202803683370190505b5091505f5b8181101561377e576001600160801b0380168382815181106143f9576143f9615e23565b60209081029190910101526001016143d5565b80515f90815b8181101561445f57846001600160a01b031684828151811061443657614436615e23565b60200260200101516001600160a01b03160361445757600192505050611d39565b600101614412565b505f949350505050565b6136908161447785856137c0565b614481919061671c565b611fa36137d186866144b4565b5f815c611d39565b5f6108ca611abc6137d1846144b0875f9081526020902090565b0190565b5f9081526020919091526040902090565b5f6108ca8284613746565b5f6144db8383614e37565b6108ca611abc6137d1846144b0875f9081526020902090565b6144fe8383614e37565b61369081611fa36137d1856144b0885f9081526020902090565b5f806145266001845c61637f565b90506145328184611fa3565b5f6145496137d1836144b0875f9081526020902090565b9050805c925061377e815f613e8e565b5f61456782600185016115ea565b15159392505050565b5f825c905061458f82611fa36137d1846144b0885f9081526020902090565b61369061459d82600161671c565b84611fa3565b5f5f7f00000000000000000000000000000000000000000000000000000000000000006001600160a01b031663ca4f2803856040518263ffffffff1660e01b81526004016145f191906150c9565b5f60405180830381865afa15801561460b573d5f5f3e3d5ffd5b505050506040513d5f823e601f3d908101601f191682016040526146329190810190615f87565b80519091505f816001600160401b0381111561465057614650615101565b604051908082528060200260200182016040528015614679578160200160208202803683370190505b5090505f805b838110156147b0575f85828151811061469a5761469a615e23565b602002602001015190505f6146af828a6133da565b90505f6146be836115ea6138dc565b905060028260028111156146d4576146d4615c09565b036146eb576146e48d8d856149af565b905061473c565b5f8260028111156146fe576146fe615c09565b1415801561471e5750600182600281111561471b5761471b615c09565b14155b1561473c5760405163a1e9dd9d60e01b815260040160405180910390fd5b80156147a5576147548361474e613b70565b90614559565b15614774578260405163030502a760e51b81526004016114a691906150c9565b600194508086858151811061478b5761478b615e23565b6020026020010181815250506147a383611e49613b70565b505b50505060010161467f565b5080156149a3575f7f00000000000000000000000000000000000000000000000000000000000000006001600160a01b0316634af29ec46040518060c001604052808b6001600160a01b031681526020017f00000000000000000000000000000000000000000000000000000000000000006001600160a01b031681526020018681526020015f81526020018d608001602081019061484f91906163b9565b600481111561486057614860615c09565b815260200161487260c08f018f61619b565b8080601f0160208091040260200160405190810160405280939291908181526020018383808284375f9201919091525050509152506040516001600160e01b031960e084901b1681526148c89190600401615e37565b5f604051808303815f875af11580156148e3573d5f5f3e3d5ffd5b505050506040513d5f823e601f3d908101601f1916820160405261490a9190810190615f09565b506040516315afd40960e01b81529097508792506001600160a01b037f00000000000000000000000000000000000000000000000000000000000000001691506315afd40990614960908b908590600401616703565b6020604051808303815f875af115801561497c573d5f5f3e3d5ffd5b505050506040513d601f19601f820116820180604052508101906149a09190615dac565b50505b50505050949350505050565b5f5f7f00000000000000000000000000000000000000000000000000000000000000006001600160a01b0316634afbaf5a846040518263ffffffff1660e01b81526004016149fd91906150c9565b602060405180830381865afa158015614a18573d5f5f3e3d5ffd5b505050506040513d601f19601f82011682018060405250810190614a3c91906163d7565b90505f614a4b826115ea6138dc565b90508015614b54578415155f03614a8357614a83614a6c6020880188615dc3565b614a7c60c0890160a08a01615f6c565b8484613fc1565b7f00000000000000000000000000000000000000000000000000000000000000006001600160a01b03166343583be56040518060a001604052805f6001811115614acf57614acf615c09565b81526020015f8152602001876001600160a01b031681526020018481526020015f8152506040518263ffffffff1660e01b8152600401614b0f9190616402565b6060604051808303815f875af1158015614b2b573d5f5f3e3d5ffd5b505050506040513d601f19601f82011682018060405250810190614b4f9190616455565b945050505b614b6082611dba613b4c565b50614b6e825f611e366138dc565b50509392505050565b606082614b8c57614b8782614e59565b6108ca565b8151158015614ba357506001600160a01b0384163b155b15614bc35783604051639996b31560e01b81526004016114a691906150c9565b50806108ca565b808015614c0857507f00000000000000000000000000000000000000000000000000000000000000006001600160a01b0316836001600160a01b0316145b15614c58576140387f00000000000000000000000000000000000000000000000000000000000000007f000000000000000000000000000000000000000000000000000000000000000084614e82565b81156138d6577f00000000000000000000000000000000000000000000000000000000000000006001600160a01b03166336c78516857f0000000000000000000000000000000000000000000000000000000000000000614cb886614f77565b6040516001600160e01b031960e086901b1681526001600160a01b03938416600482015291831660248301528216604482015290861660648201526084015f604051808303815f87803b158015614d0d575f5ffd5b505af1158015614d1f573d5f5f3e3d5ffd5b50506040516315afd40960e01b81526001600160a01b037f00000000000000000000000000000000000000000000000000000000000000001692506315afd409915061408b9086908690600401616703565b60405163ae63932960e01b81526001600160a01b0384169063ae63932990614da190879030908690600401616159565b5f604051808303815f87803b158015614db8575f5ffd5b505af1158015614dca573d5f5f3e3d5ffd5b5050604051632e1a7d4d60e01b8152600481018490526001600160a01b0387169250632e1a7d4d91506024015f604051808303815f87803b158015614e0d575f5ffd5b505af1158015614e1f573d5f5f3e3d5ffd5b506138d6925050506001600160a01b038316826141ea565b815c808210613690576040516303d2b83960e21b815260040160405180910390fd5b805115614e695780518082602001fd5b60405163d6bda27560e01b815260040160405180910390fd5b80471015614ea35760405163500d4efb60e11b815260040160405180910390fd5b826001600160a01b031663d0e30db0826040518263ffffffff1660e01b81526004015f604051808303818588803b158015614edc575f5ffd5b505af1158015614eee573d5f5f3e3d5ffd5b50614f09935050506001600160a01b03851690508383614f81565b6040516315afd40960e01b81526001600160a01b038316906315afd40990614f379086908590600401616703565b6020604051808303815f875af1158015614f53573d5f5f3e3d5ffd5b505050506040513d601f19601f820116820180604052508101906138d69190615dac565b5f611d3982614f8c565b613690838383614fa4565b5f600160a01b8210614fa057614fa0614fee565b5090565b816014528060345263a9059cbb60601b5f5260205f604460105f875af18060015f511416614fe457803d853b151710614fe4576390b8ec185f526004601cfd5b505f603452505050565b6335278d125f526004601cfd5b6040805160c0810182525f8082526020820181905260609282018390529181018290529060808201905b8152602001606081525090565b6040805160e0810182525f8082526020820181905260609282018390529181018290529060808201905b81525f6020820152606060409091015290565b6040805160c0810182525f80825260208201819052918101829052606080820152906080820190615025565b6040805160e0810182525f80825260208201819052606092820183905291810182905290608082019061505c565b6001600160a01b0391909116815260200190565b6001600160a01b0381168114612889575f5ffd5b80356150fc816150dd565b919050565b634e487b7160e01b5f52604160045260245ffd5b604051601f8201601f191681016001600160401b038111828210171561513d5761513d615101565b604052919050565b5f6001600160401b0382111561515d5761515d615101565b5060051b60200190565b5f82601f830112615176575f5ffd5b813561518961518482615145565b615115565b8082825260208201915060208360051b8601019250858311156151aa575f5ffd5b602085015b838110156131cd5780356151c2816150dd565b8352602092830192016151af565b5f82601f8301126151df575f5ffd5b81356151ed61518482615145565b8082825260208201915060208360051b86010192508583111561520e575f5ffd5b602085015b838110156131cd578035835260209283019201615213565b8015158114612889575f5ffd5b80356150fc8161522b565b5f6001600160401b0382111561525b5761525b615101565b50601f01601f191660200190565b5f82601f830112615278575f5ffd5b813561528661518482615243565b81815284602083860101111561529a575f5ffd5b816020850160208301375f918101602001919091529392505050565b5f5f5f5f5f5f5f60e0888a0312156152cc575f5ffd5b6152d5886150f1565b965060208801356001600160401b038111156152ef575f5ffd5b6152fb8a828b01615167565b96505060408801356001600160401b03811115615316575f5ffd5b6153228a828b016151d0565b95505060608801356001600160401b0381111561533d575f5ffd5b6153498a828b01615167565b9450506080880135925061535f60a08901615238565b915060c08801356001600160401b03811115615379575f5ffd5b6153858a828b01615269565b91505092959891949750929550565b5f60e08284031215612871575f5ffd5b5f5f83601f8401126153b4575f5ffd5b5081356001600160401b038111156153ca575f5ffd5b6020830191508360208260051b85010111156153e4575f5ffd5b9250929050565b5f5f5f604084860312156153fd575f5ffd5b83356001600160401b03811115615412575f5ffd5b61541e86828701615394565b93505060208401356001600160401b03811115615439575f5ffd5b615445868287016153a4565b9497909650939450505050565b5f8151808452602084019350602083015f5b82811015615482578151865260209586019590910190600101615464565b5093949350505050565b602081525f6108ca6020830184615452565b5f5f83601f8401126154ae575f5ffd5b5081356001600160401b038111156154c4575f5ffd5b60208301915083602060c0830285010111156153e4575f5ffd5b5f60608284031215612871575f5ffd5b5f5f83601f8401126154fe575f5ffd5b5081356001600160401b03811115615514575f5ffd5b6020830191508360208285010111156153e4575f5ffd5b5f5f5f5f5f5f5f5f5f60a08a8c031215615543575f5ffd5b89356001600160401b03811115615558575f5ffd5b6155648c828d0161549e565b909a5098505060208a01356001600160401b03811115615582575f5ffd5b61558e8c828d016153a4565b90985096505060408a01356001600160401b038111156155ac575f5ffd5b6155b88c828d016154de565b95505060608a01356001600160401b038111156155d3575f5ffd5b6155df8c828d016154ee565b90955093505060808a01356001600160401b038111156155fd575f5ffd5b6156098c828d016153a4565b915080935050809150509295985092959850929598565b5f81518084528060208401602086015e5f602082860101526020601f19601f83011685010191505092915050565b5f602082016020835280845180835260408501915060408160051b8601019250602086015f5b828110156156a557603f19878603018452615690858351615620565b94506020938401939190910190600101615674565b50929695505050505050565b5f5f5f5f5f5f60c087890312156156c6575f5ffd5b6156cf876150f1565b955060208701356001600160401b038111156156e9575f5ffd5b6156f589828a01615167565b95505060408701356001600160401b03811115615710575f5ffd5b61571c89828a016151d0565b94505060608701356001600160401b03811115615737575f5ffd5b61574389828a01615167565b935050615752608088016150f1565b915060a08701356001600160401b0381111561576c575f5ffd5b61577889828a01615269565b9150509295509295509295565b5f5f5f60608486031215615797575f5ffd5b83356001600160401b038111156157ac575f5ffd5b6157b886828701615394565b93505060208401356001600160401b038111156157d3575f5ffd5b6157df86828701615167565b92505060408401356001600160401b038111156157fa575f5ffd5b61580686828701615167565b9150509250925092565b602081525f6108ca6020830184615620565b5f82601f830112615831575f5ffd5b813561583f61518482615145565b8082825260208201915060208360051b860101925085831115615860575f5ffd5b602085015b838110156131cd5780356158788161522b565b835260209283019201615865565b5f5f5f5f5f60a0868803121561589a575f5ffd5b85356158a5816150dd565b945060208601356001600160401b038111156158bf575f5ffd5b6158cb88828901615822565b9450506040860135925060608601356158e3816150dd565b915060808601356001600160401b038111156158fd575f5ffd5b61590988828901615269565b9150509295509295909350565b5f5f5f5f5f5f5f60e0888a03121561592c575f5ffd5b615935886150f1565b96506020880135955060408801356001600160401b03811115615956575f5ffd5b6159628a828b01615167565b95505060608801356001600160401b0381111561597d575f5ffd5b6159898a828b016151d0565b94505060808801356001600160401b038111156159a4575f5ffd5b6159b08a828b01615167565b93505061535f60a08901615238565b5f5f602083850312156159d0575f5ffd5b82356001600160401b038111156159e5575f5ffd5b6159f1858286016153a4565b90969095509350505050565b5f5f5f5f5f5f60c08789031215615a12575f5ffd5b8635615a1d816150dd565b955060208701356001600160401b03811115615a37575f5ffd5b615a4389828a01615822565b95505060408701356001600160401b03811115615a5e575f5ffd5b615a6a89828a016151d0565b9450506060870135925060808701356157528161522b565b5f5f5f5f5f60a08688031215615a96575f5ffd5b8535615aa1816150dd565b945060208601356001600160401b03811115615abb575f5ffd5b615ac788828901615822565b94505060408601356001600160401b03811115615ae2575f5ffd5b615aee888289016151d0565b93505060608601356158e3816150dd565b5f5f5f5f5f5f60c08789031215615b14575f5ffd5b8635615b1f816150dd565b95506020870135945060408701356001600160401b03811115615b40575f5ffd5b615b4c89828a01615167565b94505060608701356001600160401b03811115615b67575f5ffd5b615b7389828a01615167565b9350506080870135615752816150dd565b5f5f5f5f5f5f60c08789031215615b99575f5ffd5b8635615ba4816150dd565b955060208701356001600160401b03811115615bbe575f5ffd5b615bca89828a01615822565b9550506040870135935060608701356001600160401b03811115615bec575f5ffd5b615bf889828a016151d0565b93505060808701356157528161522b565b634e487b7160e01b5f52602160045260245ffd5b60058110615c2d57615c2d615c09565b9052565b60018060a01b03815116825260018060a01b0360208201511660208301525f604082015160e06040850152615c6960e0850182615452565b9050606083015160608501526080830151615c876080860182615c1d565b5060a0830151151560a085015260c083015184820360c0860152613efe8282615620565b5f8151808452602084019350602083015f5b828110156154825781516001600160a01b0316865260209586019590910190600101615cbd565b606081525f615cf66060830186615c31565b8281036020840152615d088186615cab565b90508281036040840152615d1c8185615cab565b9695505050505050565b5f82601f830112615d35575f5ffd5b8151615d4361518482615243565b818152846020838601011115615d57575f5ffd5b8160208501602083015e5f918101602001919091529392505050565b5f60208284031215615d83575f5ffd5b81516001600160401b03811115615d98575f5ffd5b615da484828501615d26565b949350505050565b5f60208284031215615dbc575f5ffd5b5051919050565b5f60208284031215615dd3575f5ffd5b81356108ca816150dd565b5f5f8335601e19843603018112615df3575f5ffd5b8301803591506001600160401b03821115615e0c575f5ffd5b6020019150600581901b36038213156153e4575f5ffd5b634e487b7160e01b5f52603260045260245ffd5b602080825282516001600160a01b0390811683830152908301511660408083019190915282015160c060608301525f90615e7460e0840182615452565b9050606084015160808401526080840151615e9260a0850182615c1d565b5060a0840151838203601f190160c0850152613efe8282615620565b5f82601f830112615ebd575f5ffd5b8151615ecb61518482615145565b8082825260208201915060208360051b860101925085831115615eec575f5ffd5b602085015b838110156131cd578051835260209283019201615ef1565b5f5f5f60608486031215615f1b575f5ffd5b83516001600160401b03811115615f30575f5ffd5b615f3c86828701615eae565b60208601516040870151919550935090506001600160401b03811115615f60575f5ffd5b61580686828701615d26565b5f60208284031215615f7c575f5ffd5b81356108ca8161522b565b5f60208284031215615f97575f5ffd5b81516001600160401b03811115615fac575f5ffd5b8201601f81018413615fbc575f5ffd5b8051615fca61518482615145565b8082825260208201915060208360051b850101925086831115615feb575f5ffd5b6020840193505b82841015615d1c578351616005816150dd565b825260209384019390910190615ff2565b5f60208284031215616026575f5ffd5b81516108ca8161522b565b6001600160a01b03858116825284166020820152604081018390526080606082018190525f90615d1c90830184615452565b5f60208284031215616073575f5ffd5b81516001600160401b03811115616088575f5ffd5b615da484828501615eae565b60048110615c2d57615c2d615c09565b6020815260018060a01b03825116602082015260018060a01b036020830151166040820152604082015160608201525f606083015160c060808401526160ed60e0840182615452565b90506080840151615e9260a0850182616094565b5f5f5f60608486031215616113575f5ffd5b835160208501519093506001600160401b03811115616130575f5ffd5b61613c86828701615eae565b604086015190935090506001600160401b03811115615f60575f5ffd5b6001600160a01b039384168152919092166020820152604081019190915260600190565b5f6020828403121561618d575f5ffd5b8135600481106108ca575f5ffd5b5f5f8335601e198436030181126161b0575f5ffd5b8301803591506001600160401b038211156161c9575f5ffd5b6020019150368190038213156153e4575f5ffd5b604081525f6161ef6040830185615cab565b8281036020840152613efe8185615cab565b6001600160a01b039390931683526020830191909152604082015260600190565b6001600160a01b038681168252851660208201526040810184905260806060820181905281018290525f6001600160fb1b0383111561625f575f5ffd5b8260051b808560a08501379190910160a0019695505050505050565b600181811c9082168061628f57607f821691505b60208210810361287157634e487b7160e01b5f52602260045260245ffd5b5f8151808452602084019350602083015f5b8281101561548257815115158652602095860195909101906001016162bf565b604081525f6162f16040830185615c31565b8281036020840152613efe81856162ad565b60018060a01b03815116825260018060a01b0360208201511660208301525f604082015160e0604085015261633b60e0850182615452565b9050606083015160608501526080830151615c876080860182616094565b606081525f615cf66060830186616303565b634e487b7160e01b5f52601160045260245ffd5b81810381811115611d3957611d3961636b565b5f816163a0576163a061636b565b505f190190565b604081525f6162f16040830185616303565b5f602082840312156163c9575f5ffd5b8135600581106108ca575f5ffd5b5f602082840312156163e7575f5ffd5b81516108ca816150dd565b6002811061288957612889615c09565b815160a0820190616412816163f2565b82526020830151616422816163f2565b60208301526040838101516001600160a01b03169083015260608084015190830152608092830151929091019190915290565b5f5f5f60608486031215616467575f5ffd5b5050815160208301516040909301519094929350919050565b5f60c0828403128015616491575f5ffd5b5060405160c081016001600160401b03811182821017156164b4576164b4615101565b60405282356164c2816150dd565b815260208301356164d2816150dd565b602082015260408301356164e5816150dd565b6040820152606083810135908201526080808401359082015260a0928301359281019290925250919050565b5f5f8335601e19843603018112616526575f5ffd5b8301803591506001600160401b0382111561653f575f5ffd5b6020019150600781901b36038213156153e4575f5ffd5b803565ffffffffffff811681146150fc575f5ffd5b81835281816020850137505f828201602090810191909152601f909101601f19169091010190565b6001600160a01b0385168152606060208201525f60c08201853536879003601e190181126165bf575f5ffd5b86016020810190356001600160401b038111156165da575f5ffd5b8060071b36038213156165eb575f5ffd5b60608581015291829052905f9060e085015b8183101561667c578335616610816150dd565b6001600160a01b031681526020840135616629816150dd565b6001600160a01b0316602082015265ffffffffffff61664a60408601616556565b16604082015265ffffffffffff61666360608601616556565b16606082015260809384019360019390930192016165fd565b61668860208a016150f1565b6001600160a01b0316608087015260408981013560a0880181905287830391880191909152935061092b81888a61656b565b8181035f831280158383131683831282161715613c1a57613c1a61636b565b5f600160ff1b82016163a0576163a061636b565b5f82518060208501845e5f920191825250919050565b6001600160a01b03929092168252602082015260400190565b80820180821115611d3957611d3961636b56fe9b779b17422d0df92223018b32b4d1fa46e071723d6817e2486d003becc55f00a2646970667358221220dcc088848edc55a3bc3231ceac62838010213a0132bca1b0ac5f0cf134c659da64736f6c634300081e0033","linkReferences":{}},"methodIdentifiers":{"addLiquidityERC4626PoolProportionalHook((address,address,uint256[],uint256,uint8,bool,bytes),bool[])":"19aceff3","addLiquidityERC4626PoolUnbalancedHook((address,address,uint256[],uint256,uint8,bool,bytes),bool[])":"27bfb13a","addLiquidityProportionalToERC4626Pool(address,bool[],uint256[],uint256,bool,bytes)":"e3c3e64f","addLiquidityUnbalancedNestedPool(address,address[],uint256[],address[],uint256,bool,bytes)":"175f31c6","addLiquidityUnbalancedNestedPoolHook((address,address,uint256[],uint256,uint8,bool,bytes),address[],address[])":"a5bb0bd1","addLiquidityUnbalancedToERC4626Pool(address,bool[],uint256[],uint256,bool,bytes)":"c1da024c","getPermit2()":"1bbf2e23","getSender()":"5e01eb5a","getVault()":"8d928af8","getWeth()":"107c279f","manualGetCurrentSwapTokenInAmounts()":"48bbd869","manualGetCurrentSwapTokenOutAmounts()":"0f8fb1cc","manualGetCurrentSwapTokensInSlot()":"8c824cd9","manualGetCurrentSwapTokensOutSlot()":"96123406","manualGetSettledTokenAmounts()":"cd791ccc","multicall(bytes[])":"ac9650d8","permitBatchAndCall((address,address,address,uint256,uint256,uint256)[],bytes[],((address,uint160,uint48,uint48)[],address,uint256),bytes,bytes[])":"19c6989f","queryAddLiquidityProportionalToERC4626Pool(address,bool[],uint256,address,bytes)":"698cc74b","queryAddLiquidityUnbalancedNestedPool(address,address[],uint256[],address[],address,bytes)":"3121edfc","queryAddLiquidityUnbalancedToERC4626Pool(address,bool[],uint256[],address,bytes)":"c9b8ddb2","queryRemoveLiquidityProportionalFromERC4626Pool(address,bool[],uint256,address,bytes)":"f921696e","queryRemoveLiquidityProportionalNestedPool(address,uint256,address[],address[],address,bytes)":"d2b1b903","removeLiquidityERC4626PoolProportionalHook((address,address,uint256[],uint256,uint8,bool,bytes),bool[])":"4c97a878","removeLiquidityProportionalFromERC4626Pool(address,bool[],uint256,uint256[],bool,bytes)":"d8a7f9fe","removeLiquidityProportionalNestedPool(address,uint256,address[],uint256[],address[],bool,bytes)":"6c1fb320","removeLiquidityProportionalNestedPoolHook((address,address,uint256[],uint256,uint8,bool,bytes),address[],address[])":"47cd1d02","version()":"54fd4d50"},"id":943}