{"abi":[{"type":"constructor","inputs":[{"name":"vault","type":"address","internalType":"contract IVault"},{"name":"actionIdDisambiguator","type":"bytes32","internalType":"bytes32"}],"stateMutability":"nonpayable"},{"type":"function","name":"ensureAuthenticatedByExclusiveRole","inputs":[{"name":"where","type":"address","internalType":"address"},{"name":"roleAccount","type":"address","internalType":"address"}],"outputs":[],"stateMutability":"view"},{"type":"function","name":"ensureAuthenticatedByRole","inputs":[{"name":"where","type":"address","internalType":"address"},{"name":"roleAccount","type":"address","internalType":"address"}],"outputs":[],"stateMutability":"view"},{"type":"function","name":"getActionId","inputs":[{"name":"selector","type":"bytes4","internalType":"bytes4"}],"outputs":[{"name":"","type":"bytes32","internalType":"bytes32"}],"stateMutability":"view"},{"type":"error","name":"SenderNotAllowed","inputs":[]},{"type":"error","name":"VaultNotSet","inputs":[]}],"bytecode":{"object":"0x60c060405234801561000f575f5ffd5b5060405161045f38038061045f83398101604081905261002e91610071565b608081905281816001600160a01b03821661005c57604051630647140b60e51b815260040160405180910390fd5b506001600160a01b031660a052506100a89050565b5f5f60408385031215610082575f5ffd5b82516001600160a01b0381168114610098575f5ffd5b6020939093015192949293505050565b60805160a0516103976100c85f395f6101ac01525f609301526103975ff3fe608060405234801561000f575f5ffd5b506004361061003f575f3560e01c8063851c1bb314610043578063a6f3b8e714610068578063ef412acc1461007d575b5f5ffd5b6100566100513660046102ab565b610090565b60405190815260200160405180910390f35b61007b6100763660046102f0565b6100f4565b005b61007b61008b3660046102f0565b610102565b5f7f0000000000000000000000000000000000000000000000000000000000000000826040516020016100d79291909182526001600160e01b031916602082015260240190565b604051602081830303815290604052805190602001209050919050565b6100fe828261010c565b5050565b6100fe8282610182565b6001600160a01b038116610159576101386101315f356001600160e01b031916610090565b33846101a9565b15155f036100fe576040516323dada5360e01b815260040160405180910390fd5b336001600160a01b038216146100fe576040516323dada5360e01b815260040160405180910390fd5b336001600160a01b038216146100fe576101386101315f356001600160e01b031916610090565b5f7f00000000000000000000000000000000000000000000000000000000000000006001600160a01b031663aaabadc56040518163ffffffff1660e01b8152600401602060405180830381865afa158015610206573d5f5f3e3d5ffd5b505050506040513d601f19601f8201168201806040525081019061022a9190610327565b6040516326f8aa2160e21b8152600481018690526001600160a01b03858116602483015284811660448301529190911690639be2a88490606401602060405180830381865afa15801561027f573d5f5f3e3d5ffd5b505050506040513d601f19601f820116820180604052508101906102a39190610342565b949350505050565b5f602082840312156102bb575f5ffd5b81356001600160e01b0319811681146102d2575f5ffd5b9392505050565b6001600160a01b03811681146102ed575f5ffd5b50565b5f5f60408385031215610301575f5ffd5b823561030c816102d9565b9150602083013561031c816102d9565b809150509250929050565b5f60208284031215610337575f5ffd5b81516102d2816102d9565b5f60208284031215610352575f5ffd5b815180151581146102d2575f5ffdfea26469706673582212209b0a183f300fbd5ea020dd310f6fcc017e60770dedb85b49eeb90bdecda1ea1964736f6c634300081e0033","linkReferences":{}},"methodIdentifiers":{"ensureAuthenticatedByExclusiveRole(address,address)":"a6f3b8e7","ensureAuthenticatedByRole(address,address)":"ef412acc","getActionId(bytes4)":"851c1bb3"},"id":370}