{"abi":[{"type":"constructor","inputs":[{"name":"creationCode","type":"bytes","internalType":"bytes"}],"stateMutability":"nonpayable"},{"type":"function","name":"getCreationCode","inputs":[],"outputs":[{"name":"","type":"bytes","internalType":"bytes"}],"stateMutability":"view"},{"type":"function","name":"getCreationCodeContracts","inputs":[],"outputs":[{"name":"contractA","type":"address","internalType":"address"},{"name":"contractB","type":"address","internalType":"address"}],"stateMutability":"view"},{"type":"error","name":"CodeDeploymentFailed","inputs":[]}],"bytecode":{"object":"0x610100604052348015610010575f5ffd5b506040516104be3803806104be83398101604081905261002f9161014a565b80515f61003d6002836101fa565b60a081905290505f61004f8284610219565b60e08190528285529050835f61006582826100a6565b6001600160a01b03166080525084830180518382526001919061008882846100a6565b6001600160a01b031660c0529590925250929092525061023e915050565b5f5f826100d3577f602038038060206000396000f3fefefefefefefefefefefefefefefefefefefe6100f5565b7f60fe600053602038038060206001396001016000f3fefefefefefefefefefefe5b9050835181855260208101855ff090855291506001600160a01b03821661012f5760405163fef8220760e01b815260040160405180910390fd5b5092915050565b634e487b7160e01b5f52604160045260245ffd5b5f6020828403121561015a575f5ffd5b81516001600160401b0381111561016f575f5ffd5b8201601f8101841361017f575f5ffd5b80516001600160401b0381111561019857610198610136565b604051601f8201601f19908116603f011681016001600160401b03811182821017156101c6576101c6610136565b6040528181528282016020018610156101dd575f5ffd5b8160208401602083015e5f91810160200191909152949350505050565b5f8261021457634e487b7160e01b5f52601260045260245ffd5b500490565b8181038181111561023857634e487b7160e01b5f52601160045260245ffd5b92915050565b60805160a05160c05160e05161024361027b5f395f61013801525f81816088015261011701525f60f601525f81816063015260d501526102435ff3fe608060405234801561000f575f5ffd5b5060043610610033575f3560e01c8062c194db14610037578063174481fa14610055575b5f5ffd5b61003f6100b3565b60405161004c91906101b3565b60405180910390f35b604080516001600160a01b037f0000000000000000000000000000000000000000000000000000000000000000811682527f00000000000000000000000000000000000000000000000000000000000000001660208201520161004c565b60606100cc60405180602001604052805f8152506100d1565b905090565b60607f00000000000000000000000000000000000000000000000000000000000000007f00000000000000000000000000000000000000000000000000000000000000007f00000000000000000000000000000000000000000000000000000000000000007f00000000000000000000000000000000000000000000000000000000000000005f61016282856101e8565b87519091505f61017282846101e8565b9050604051975060208101880160405280885260208801865f828a3c846001888301883c50602089810190898501018382825e505050505050505050919050565b602081525f82518060208401528060208501604085015e5f604082850101526040601f19601f83011684010191505092915050565b8082018082111561020757634e487b7160e01b5f52601160045260245ffd5b9291505056fea264697066735822122090a273542d036e429d4f40d3392d8c90c97bd16a74506d972b25b1f874ee7fc964736f6c634300081e0033","linkReferences":{}},"methodIdentifiers":{"getCreationCode()":"00c194db","getCreationCodeContracts()":"174481fa"},"id":245}