{"abi":[{"type":"constructor","inputs":[{"name":"vault","type":"address","internalType":"contract IVault"},{"name":"defaultMaxSurgeFeePercentage","type":"uint256","internalType":"uint256"},{"name":"defaultSurgeThresholdPercentage","type":"uint256","internalType":"uint256"},{"name":"version","type":"string","internalType":"string"}],"stateMutability":"nonpayable"},{"type":"function","name":"MAX_IMBALANCE_SLOPE","inputs":[],"outputs":[{"name":"","type":"uint128","internalType":"uint128"}],"stateMutability":"view"},{"type":"function","name":"MIN_IMBALANCE_SLOPE","inputs":[],"outputs":[{"name":"","type":"uint128","internalType":"uint128"}],"stateMutability":"view"},{"type":"function","name":"computeSwapSurgeFeePercentage","inputs":[{"name":"params","type":"tuple","internalType":"struct PoolSwapParams","components":[{"name":"kind","type":"uint8","internalType":"enum SwapKind"},{"name":"amountGivenScaled18","type":"uint256","internalType":"uint256"},{"name":"balancesScaled18","type":"uint256[]","internalType":"uint256[]"},{"name":"indexIn","type":"uint256","internalType":"uint256"},{"name":"indexOut","type":"uint256","internalType":"uint256"},{"name":"router","type":"address","internalType":"address"},{"name":"userData","type":"bytes","internalType":"bytes"}]},{"name":"pool","type":"address","internalType":"address"},{"name":"staticSwapFeePercentage","type":"uint256","internalType":"uint256"}],"outputs":[{"name":"surgeFeePercentage","type":"uint256","internalType":"uint256"}],"stateMutability":"view"},{"type":"function","name":"getActionId","inputs":[{"name":"selector","type":"bytes4","internalType":"bytes4"}],"outputs":[{"name":"","type":"bytes32","internalType":"bytes32"}],"stateMutability":"view"},{"type":"function","name":"getAuthorizer","inputs":[],"outputs":[{"name":"","type":"address","internalType":"contract IAuthorizer"}],"stateMutability":"view"},{"type":"function","name":"getDefaultMaxSurgeFeePercentage","inputs":[],"outputs":[{"name":"","type":"uint256","internalType":"uint256"}],"stateMutability":"view"},{"type":"function","name":"getDefaultSurgeThresholdPercentage","inputs":[],"outputs":[{"name":"","type":"uint256","internalType":"uint256"}],"stateMutability":"view"},{"type":"function","name":"getHookFlags","inputs":[],"outputs":[{"name":"hookFlags","type":"tuple","internalType":"struct HookFlags","components":[{"name":"enableHookAdjustedAmounts","type":"bool","internalType":"bool"},{"name":"shouldCallBeforeInitialize","type":"bool","internalType":"bool"},{"name":"shouldCallAfterInitialize","type":"bool","internalType":"bool"},{"name":"shouldCallComputeDynamicSwapFee","type":"bool","internalType":"bool"},{"name":"shouldCallBeforeSwap","type":"bool","internalType":"bool"},{"name":"shouldCallAfterSwap","type":"bool","internalType":"bool"},{"name":"shouldCallBeforeAddLiquidity","type":"bool","internalType":"bool"},{"name":"shouldCallAfterAddLiquidity","type":"bool","internalType":"bool"},{"name":"shouldCallBeforeRemoveLiquidity","type":"bool","internalType":"bool"},{"name":"shouldCallAfterRemoveLiquidity","type":"bool","internalType":"bool"}]}],"stateMutability":"pure"},{"type":"function","name":"getImbalanceSlopes","inputs":[{"name":"pool","type":"address","internalType":"address"}],"outputs":[{"name":"","type":"uint256","internalType":"uint256"},{"name":"","type":"uint256","internalType":"uint256"}],"stateMutability":"view"},{"type":"function","name":"getMaxSurgeFeePercentage","inputs":[{"name":"pool","type":"address","internalType":"address"}],"outputs":[{"name":"","type":"uint256","internalType":"uint256"}],"stateMutability":"view"},{"type":"function","name":"getSurgeThresholdPercentage","inputs":[{"name":"pool","type":"address","internalType":"address"}],"outputs":[{"name":"","type":"uint256","internalType":"uint256"}],"stateMutability":"view"},{"type":"function","name":"getVault","inputs":[],"outputs":[{"name":"","type":"address","internalType":"contract IVault"}],"stateMutability":"view"},{"type":"function","name":"isSurgingSwap","inputs":[{"name":"params","type":"tuple","internalType":"struct PoolSwapParams","components":[{"name":"kind","type":"uint8","internalType":"enum SwapKind"},{"name":"amountGivenScaled18","type":"uint256","internalType":"uint256"},{"name":"balancesScaled18","type":"uint256[]","internalType":"uint256[]"},{"name":"indexIn","type":"uint256","internalType":"uint256"},{"name":"indexOut","type":"uint256","internalType":"uint256"},{"name":"router","type":"address","internalType":"address"},{"name":"userData","type":"bytes","internalType":"bytes"}]},{"name":"pool","type":"address","internalType":"address"},{"name":"staticSwapFeePercentage","type":"uint256","internalType":"uint256"}],"outputs":[{"name":"isSurging","type":"bool","internalType":"bool"}],"stateMutability":"view"},{"type":"function","name":"onAfterAddLiquidity","inputs":[{"name":"","type":"address","internalType":"address"},{"name":"pool","type":"address","internalType":"address"},{"name":"kind","type":"uint8","internalType":"enum AddLiquidityKind"},{"name":"amountsInScaled18","type":"uint256[]","internalType":"uint256[]"},{"name":"amountsInRaw","type":"uint256[]","internalType":"uint256[]"},{"name":"","type":"uint256","internalType":"uint256"},{"name":"balancesScaled18","type":"uint256[]","internalType":"uint256[]"},{"name":"","type":"bytes","internalType":"bytes"}],"outputs":[{"name":"success","type":"bool","internalType":"bool"},{"name":"hookAdjustedAmountsInRaw","type":"uint256[]","internalType":"uint256[]"}],"stateMutability":"view"},{"type":"function","name":"onAfterInitialize","inputs":[{"name":"","type":"uint256[]","internalType":"uint256[]"},{"name":"","type":"uint256","internalType":"uint256"},{"name":"","type":"bytes","internalType":"bytes"}],"outputs":[{"name":"","type":"bool","internalType":"bool"}],"stateMutability":"nonpayable"},{"type":"function","name":"onAfterRemoveLiquidity","inputs":[{"name":"","type":"address","internalType":"address"},{"name":"pool","type":"address","internalType":"address"},{"name":"kind","type":"uint8","internalType":"enum RemoveLiquidityKind"},{"name":"","type":"uint256","internalType":"uint256"},{"name":"amountsOutScaled18","type":"uint256[]","internalType":"uint256[]"},{"name":"amountsOutRaw","type":"uint256[]","internalType":"uint256[]"},{"name":"balancesScaled18","type":"uint256[]","internalType":"uint256[]"},{"name":"","type":"bytes","internalType":"bytes"}],"outputs":[{"name":"success","type":"bool","internalType":"bool"},{"name":"hookAdjustedAmountsOutRaw","type":"uint256[]","internalType":"uint256[]"}],"stateMutability":"view"},{"type":"function","name":"onAfterSwap","inputs":[{"name":"","type":"tuple","internalType":"struct AfterSwapParams","components":[{"name":"kind","type":"uint8","internalType":"enum SwapKind"},{"name":"tokenIn","type":"address","internalType":"contract IERC20"},{"name":"tokenOut","type":"address","internalType":"contract IERC20"},{"name":"amountInScaled18","type":"uint256","internalType":"uint256"},{"name":"amountOutScaled18","type":"uint256","internalType":"uint256"},{"name":"tokenInBalanceScaled18","type":"uint256","internalType":"uint256"},{"name":"tokenOutBalanceScaled18","type":"uint256","internalType":"uint256"},{"name":"amountCalculatedScaled18","type":"uint256","internalType":"uint256"},{"name":"amountCalculatedRaw","type":"uint256","internalType":"uint256"},{"name":"router","type":"address","internalType":"address"},{"name":"pool","type":"address","internalType":"address"},{"name":"userData","type":"bytes","internalType":"bytes"}]}],"outputs":[{"name":"","type":"bool","internalType":"bool"},{"name":"","type":"uint256","internalType":"uint256"}],"stateMutability":"nonpayable"},{"type":"function","name":"onBeforeAddLiquidity","inputs":[{"name":"","type":"address","internalType":"address"},{"name":"","type":"address","internalType":"address"},{"name":"","type":"uint8","internalType":"enum AddLiquidityKind"},{"name":"","type":"uint256[]","internalType":"uint256[]"},{"name":"","type":"uint256","internalType":"uint256"},{"name":"","type":"uint256[]","internalType":"uint256[]"},{"name":"","type":"bytes","internalType":"bytes"}],"outputs":[{"name":"","type":"bool","internalType":"bool"}],"stateMutability":"nonpayable"},{"type":"function","name":"onBeforeInitialize","inputs":[{"name":"","type":"uint256[]","internalType":"uint256[]"},{"name":"","type":"bytes","internalType":"bytes"}],"outputs":[{"name":"","type":"bool","internalType":"bool"}],"stateMutability":"nonpayable"},{"type":"function","name":"onBeforeRemoveLiquidity","inputs":[{"name":"","type":"address","internalType":"address"},{"name":"","type":"address","internalType":"address"},{"name":"","type":"uint8","internalType":"enum RemoveLiquidityKind"},{"name":"","type":"uint256","internalType":"uint256"},{"name":"","type":"uint256[]","internalType":"uint256[]"},{"name":"","type":"uint256[]","internalType":"uint256[]"},{"name":"","type":"bytes","internalType":"bytes"}],"outputs":[{"name":"","type":"bool","internalType":"bool"}],"stateMutability":"nonpayable"},{"type":"function","name":"onBeforeSwap","inputs":[{"name":"","type":"tuple","internalType":"struct PoolSwapParams","components":[{"name":"kind","type":"uint8","internalType":"enum SwapKind"},{"name":"amountGivenScaled18","type":"uint256","internalType":"uint256"},{"name":"balancesScaled18","type":"uint256[]","internalType":"uint256[]"},{"name":"indexIn","type":"uint256","internalType":"uint256"},{"name":"indexOut","type":"uint256","internalType":"uint256"},{"name":"router","type":"address","internalType":"address"},{"name":"userData","type":"bytes","internalType":"bytes"}]},{"name":"","type":"address","internalType":"address"}],"outputs":[{"name":"","type":"bool","internalType":"bool"}],"stateMutability":"nonpayable"},{"type":"function","name":"onComputeDynamicSwapFeePercentage","inputs":[{"name":"params","type":"tuple","internalType":"struct PoolSwapParams","components":[{"name":"kind","type":"uint8","internalType":"enum SwapKind"},{"name":"amountGivenScaled18","type":"uint256","internalType":"uint256"},{"name":"balancesScaled18","type":"uint256[]","internalType":"uint256[]"},{"name":"indexIn","type":"uint256","internalType":"uint256"},{"name":"indexOut","type":"uint256","internalType":"uint256"},{"name":"router","type":"address","internalType":"address"},{"name":"userData","type":"bytes","internalType":"bytes"}]},{"name":"pool","type":"address","internalType":"address"},{"name":"staticSwapFeePercentage","type":"uint256","internalType":"uint256"}],"outputs":[{"name":"","type":"bool","internalType":"bool"},{"name":"","type":"uint256","internalType":"uint256"}],"stateMutability":"view"},{"type":"function","name":"onRegister","inputs":[{"name":"factory","type":"address","internalType":"address"},{"name":"pool","type":"address","internalType":"address"},{"name":"tokenConfig","type":"tuple[]","internalType":"struct TokenConfig[]","components":[{"name":"token","type":"address","internalType":"contract IERC20"},{"name":"tokenType","type":"uint8","internalType":"enum TokenType"},{"name":"rateProvider","type":"address","internalType":"contract IRateProvider"},{"name":"paysYieldFees","type":"bool","internalType":"bool"}]},{"name":"liquidityManagement","type":"tuple","internalType":"struct LiquidityManagement","components":[{"name":"disableUnbalancedLiquidity","type":"bool","internalType":"bool"},{"name":"enableAddLiquidityCustom","type":"bool","internalType":"bool"},{"name":"enableRemoveLiquidityCustom","type":"bool","internalType":"bool"},{"name":"enableDonation","type":"bool","internalType":"bool"}]}],"outputs":[{"name":"success","type":"bool","internalType":"bool"}],"stateMutability":"nonpayable"},{"type":"function","name":"setImbalanceSlopeAbovePeak","inputs":[{"name":"pool","type":"address","internalType":"address"},{"name":"newImbalanceSlopeAbovePeak","type":"uint256","internalType":"uint256"}],"outputs":[],"stateMutability":"nonpayable"},{"type":"function","name":"setImbalanceSlopeBelowPeak","inputs":[{"name":"pool","type":"address","internalType":"address"},{"name":"newImbalanceSlopeBelowPeak","type":"uint256","internalType":"uint256"}],"outputs":[],"stateMutability":"nonpayable"},{"type":"function","name":"setMaxSurgeFeePercentage","inputs":[{"name":"pool","type":"address","internalType":"address"},{"name":"newMaxSurgeSurgeFeePercentage","type":"uint256","internalType":"uint256"}],"outputs":[],"stateMutability":"nonpayable"},{"type":"function","name":"setSurgeThresholdPercentage","inputs":[{"name":"pool","type":"address","internalType":"address"},{"name":"newSurgeThresholdPercentage","type":"uint256","internalType":"uint256"}],"outputs":[],"stateMutability":"nonpayable"},{"type":"function","name":"version","inputs":[],"outputs":[{"name":"","type":"string","internalType":"string"}],"stateMutability":"view"},{"type":"event","name":"ECLPSurgeHookRegistered","inputs":[{"name":"pool","type":"address","indexed":true,"internalType":"address"},{"name":"factory","type":"address","indexed":true,"internalType":"address"}],"anonymous":false},{"type":"event","name":"ImbalanceSlopeAbovePeakChanged","inputs":[{"name":"pool","type":"address","indexed":true,"internalType":"address"},{"name":"newImbalanceSlopeAbovePeak","type":"uint128","indexed":false,"internalType":"uint128"}],"anonymous":false},{"type":"event","name":"ImbalanceSlopeBelowPeakChanged","inputs":[{"name":"pool","type":"address","indexed":true,"internalType":"address"},{"name":"newImbalanceSlopeBelowPeak","type":"uint128","indexed":false,"internalType":"uint128"}],"anonymous":false},{"type":"event","name":"MaxSurgeFeePercentageChanged","inputs":[{"name":"pool","type":"address","indexed":true,"internalType":"address"},{"name":"newMaxSurgeFeePercentage","type":"uint256","indexed":false,"internalType":"uint256"}],"anonymous":false},{"type":"event","name":"ThresholdSurgePercentageChanged","inputs":[{"name":"pool","type":"address","indexed":true,"internalType":"address"},{"name":"newSurgeThresholdPercentage","type":"uint256","indexed":false,"internalType":"uint256"}],"anonymous":false},{"type":"error","name":"AssetBoundsExceeded","inputs":[]},{"type":"error","name":"DivInterval","inputs":[]},{"type":"error","name":"InputLengthMismatch","inputs":[]},{"type":"error","name":"InvalidImbalanceSlope","inputs":[]},{"type":"error","name":"InvalidPercentage","inputs":[]},{"type":"error","name":"InvalidRotationAngle","inputs":[]},{"type":"error","name":"MaxAssetsExceeded","inputs":[]},{"type":"error","name":"MaxInvariantExceeded","inputs":[]},{"type":"error","name":"MulOverflow","inputs":[]},{"type":"error","name":"SenderIsNotVault","inputs":[{"name":"sender","type":"address","internalType":"address"}]},{"type":"error","name":"SenderNotAllowed","inputs":[]},{"type":"error","name":"VaultNotSet","inputs":[]},{"type":"error","name":"ZeroDivision","inputs":[]}],"bytecode":{"object":"0x610120604052348015610010575f5ffd5b50604051614b90380380614b9083398101604081905261002f916100fe565b6001600160a01b03841660808190523060a0819052859185918591859182918691829161006f57604051630647140b60e51b815260040160405180910390fd5b506001600160a01b031660c05250610086816100af565b50610090836100be565b610099826100be565b5060e091909152610100525061031e9350505050565b5f6100ba8282610264565b5050565b670de0b6b3a76400008111156100e757604051631f3b85d360e01b815260040160405180910390fd5b50565b634e487b7160e01b5f52604160045260245ffd5b5f5f5f5f60808587031215610111575f5ffd5b84516001600160a01b0381168114610127575f5ffd5b60208601516040870151606088015192965090945092506001600160401b03811115610151575f5ffd5b8501601f81018713610161575f5ffd5b80516001600160401b0381111561017a5761017a6100ea565b604051601f8201601f19908116603f011681016001600160401b03811182821017156101a8576101a86100ea565b6040528181528282016020018910156101bf575f5ffd5b8160208401602083015e5f6020838301015280935050505092959194509250565b600181811c908216806101f457607f821691505b60208210810361021257634e487b7160e01b5f52602260045260245ffd5b50919050565b601f82111561025f57805f5260205f20601f840160051c8101602085101561023d5750805b601f840160051c820191505b8181101561025c575f8155600101610249565b50505b505050565b81516001600160401b0381111561027d5761027d6100ea565b6102918161028b84546101e0565b84610218565b6020601f8211600181146102c3575f83156102ac5750848201515b5f19600385901b1c1916600184901b17845561025c565b5f84815260208120601f198516915b828110156102f257878501518255602094850194600190920191016102d2565b508482101561030f57868401515f19600387901b60f8161c191681555b50505050600190811b01905550565b60805160a05160c05160e0516101005161480461038c5f395f81816103070152610dfc01525f818161038c0152610dd201525f81816105ec015281816107ff01528181610946015281816109ed01528181610af601526115ca01525f610a9301525f610d7801526148045ff3fe608060405234801561000f575f5ffd5b5060043610610152575f3560e01c80630b89f1821461015657806318b6eb551461017e5780631a4a64be146101aa5780631c149e28146101f05780631fcb3b55146102035780632754888d1461021857806338be241d146102395780633a61bdea1461024c57806345421ec71461025f5780634e493cfd146102795780635211fa771461028c57806354fd4d501461029a57806359f00466146102af5780636073d344146102c2578063851c1bb3146102d5578063872aabd5146102e85780638bc694ad146103055780638d928af81461032b578063976907cc14610340578063a0e8f5ac14610353578063aaabadc514610366578063ba5f9f401461036e578063bcf5a6c31461037c578063c17ef2cc1461038a578063c88511a2146103b0578063d77153a7146103c3578063e23816021461041c578063f253345f1461044d575b5f5ffd5b610169610164366004613ab6565b6104b4565b60405190151581526020015b60405180910390f35b61019361018c366004613be1565b505f908190565b604080519215158352602083019190915201610175565b6101e26101b8366004613c18565b6001600160a01b03165f90815260016020526040902054600160401b90046001600160401b031690565b604051908152602001610175565b6101696101fe366004613cf9565b6105e0565b610216610211366004613d5c565b6105e8565b005b61022b610226366004613d94565b610695565b604051610175929190613e83565b610169610247366004613ed2565b610792565b61016961025a366004613f4d565b61079b565b61016961026d366004613fb0565b5f979650505050505050565b610216610287366004613d5c565b6107f1565b6101696101fe366004614077565b6102a26108a9565b60405161017591906140c5565b6102166102bd366004613d5c565b610938565b6102166102d0366004613d5c565b6109e9565b6101e26102e33660046140fa565b610a90565b6102f868056bc75e2d6310000081565b6040516101759190614121565b7f00000000000000000000000000000000000000000000000000000000000000006101e2565b610333610af4565b6040516101759190614135565b61022b61034e366004614149565b610b1d565b610193610361366004613f4d565b610c17565b610333610c32565b61016961026d3660046141f5565b6102f8662386f26fc1000081565b7f00000000000000000000000000000000000000000000000000000000000000006101e2565b6101e26103be366004613f4d565b610c9a565b60408051610140810182525f808252602082018190528183018190526080820181905260a0820181905260c0820181905261010082015260016060820181905260e082018190526101208201529051610175919061427a565b6101e261042a366004613c18565b6001600160a01b03165f908152600160205260409020546001600160401b031690565b61049f61045b366004613c18565b6001600160a01b03165f908152600260209081526040918290208251808401909352546001600160801b03808216808552600160801b909204169290910182905291565b60408051928352602083019190915201610175565b5f6104bd610d6d565b5f846001600160a01b0316637be219a26040518163ffffffff1660e01b81526004016101c060405180830381865afa1580156104fb573d5f5f3e3d5ffd5b505050506040513d601f19601f8201168201806040525081019061051f919061438f565b5090506706f05b59d3b200008160600151128061054757506706f05b59d3b200008160400151125b1561056557604051634988ec1560e01b815260040160405180910390fd5b61057186868686610dc3565b915061058585670de0b6b3a7640000610e2b565b61059785670de0b6b3a7640000610eaf565b856001600160a01b0316856001600160a01b03167f2240922c3e668d008789313de57a4bc99efe8593cc329b9b787d908f6df2fa0160405160405180910390a350949350505050565b5f5b92915050565b815f7f00000000000000000000000000000000000000000000000000000000000000006001600160a01b031663e9ddeb26836040518263ffffffff1660e01b81526004016106369190614135565b606060405180830381865afa158015610651573d5f5f3e3d5ffd5b505050506040513d601f19601f820116820180604052508101906106759190614460565b6020015190506106858282610f25565b61068f8484610eaf565b50505050565b5f6060818860038111156106ab576106ab6144d1565b036106bb57506001905083610785565b5f84516001600160401b038111156106d5576106d56139aa565b6040519080825280602002602001820160405280156106fe578160200160208202803683370190505b5090505f5b855181101561076f5787818151811061071e5761071e6144e5565b6020026020010151868281518110610738576107386144e5565b602002602001015161074a919061450d565b82828151811061075c5761075c6144e5565b6020908102919091010152600101610703565b505f61077c8b8388610f9f565b15935086925050505b9850989650505050505050565b5f5b9392505050565b6001600160a01b0382165f9081526001602090815260408083208151808301909252546001600160401b038082168352600160401b90910416918101919091526107e7858585846110d4565b5095945050505050565b806107fb81611414565b825f7f00000000000000000000000000000000000000000000000000000000000000006001600160a01b031663e9ddeb26836040518263ffffffff1660e01b81526004016108499190614135565b606060405180830381865afa158015610864573d5f5f3e3d5ffd5b505050506040513d601f19601f820116820180604052508101906108889190614460565b6020015190506108988282610f25565b6108a28585611440565b5050505050565b60605f80546108b790614520565b80601f01602080910402602001604051908101604052809291908181526020018280546108e390614520565b801561092e5780601f106109055761010080835404028352916020019161092e565b820191905f5260205f20905b81548152906001019060200180831161091157829003601f168201915b5050505050905090565b8061094281611414565b825f7f00000000000000000000000000000000000000000000000000000000000000006001600160a01b031663e9ddeb26836040518263ffffffff1660e01b81526004016109909190614135565b606060405180830381865afa1580156109ab573d5f5f3e3d5ffd5b505050506040513d601f19601f820116820180604052508101906109cf9190614460565b6020015190506109df8282610f25565b6108a285856114c9565b815f7f00000000000000000000000000000000000000000000000000000000000000006001600160a01b031663e9ddeb26836040518263ffffffff1660e01b8152600401610a379190614135565b606060405180830381865afa158015610a52573d5f5f3e3d5ffd5b505050506040513d601f19601f82011682018060405250810190610a769190614460565b602001519050610a868282610f25565b61068f8484610e2b565b5f7f000000000000000000000000000000000000000000000000000000000000000082604051602001610ad79291909182526001600160e01b031916602082015260240190565b604051602081830303815290604052805190602001209050919050565b7f000000000000000000000000000000000000000000000000000000000000000090565b905090565b5f606081886004811115610b3357610b336144d1565b03610b4357506001905084610785565b5f84516001600160401b03811115610b5d57610b5d6139aa565b604051908082528060200260200182016040528015610b86578160200160208202803683370190505b5090505f5b8551811015610bf757888181518110610ba657610ba66144e5565b6020026020010151868281518110610bc057610bc06144e5565b6020026020010151610bd29190614552565b828281518110610be457610be46144e5565b6020908102919091010152600101610b8b565b505f610c048b8388610f9f565b159c979b50969950505050505050505050565b5f5f6001610c26868686610c9a565b91509150935093915050565b5f610c3b610af4565b6001600160a01b031663aaabadc56040518163ffffffff1660e01b8152600401602060405180830381865afa158015610c76573d5f5f3e3d5ffd5b505050506040513d601f19601f82011682018060405250810190610b189190614565565b6001600160a01b0382165f9081526001602090815260408083208151808301909252546001600160401b038082168352600160401b90910416918101919091528180610ce8878787866110d4565b915091508115610d5f578251610d4e90610d2f906001600160401b0316670de0b6b3a76400008181039110028551610d29906001600160401b031685614552565b9061153a565b8685602001516001600160401b0316610d489190614552565b90611562565b610d58908661450d565b9350610d63565b8493505b5050509392505050565b336001600160a01b037f00000000000000000000000000000000000000000000000000000000000000001614610dc1573360405163089676d560e01b8152600401610db89190614135565b60405180910390fd5b565b5f610dcc610d6d565b610df6847f0000000000000000000000000000000000000000000000000000000000000000611440565b610e20847f00000000000000000000000000000000000000000000000000000000000000006114c9565b506001949350505050565b610e3481611582565b5f610e3e826115bd565b6001600160a01b0384165f818152600260205260409081902080546001600160801b0319166001600160801b03851617905551919250907fd30dbf6837456f1a37dae88165ddc54d6d55a21a3beeeac374f1cea2b084486090610ea2908490614121565b60405180910390a2505050565b610eb881611582565b5f610ec2826115bd565b6001600160a01b0384165f818152600260205260409081902080546001600160801b03808616600160801b02911617905551919250907f36ce2b1370e60ee748c7c060518fde097600a382a243bbfe2f7a168be6b6a72990610ea2908490614121565b6001600160a01b038116610f7657610f51610f4a5f356001600160e01b031916610a90565b33846115c7565b15155f03610f72576040516323dada5360e01b815260040160405180910390fd5b5050565b336001600160a01b03821614610f72576040516323dada5360e01b815260040160405180910390fd5b6001600160a01b0383165f8181526001602090815260408083208151808301835290546001600160401b038082168352600160401b9091041681840152848452600283528184208251808401845290546001600160801b038082168352600160801b90910416938101939093528151633df10cd160e11b81529151939490938592839291637be219a2916004808201926101c0929091908290030181865afa15801561104d573d5f5f3e3d5ffd5b505050506040513d601f19601f82011682018060405250810190611071919061438f565b915091505f5f5f5f6110848b87876116c1565b915091506110958b8784848b61172d565b93506110a28a87876116c1565b90925090506110b48a8784848b61172d565b92506110c4885f01518585611841565b9c9b505050505050505050505050565b5f5f8383602001516001600160401b031610156110f557505f90508061140b565b5f5f866001600160a01b0316637be219a26040518163ffffffff1660e01b81526004016101c060405180830381865afa158015611134573d5f5f3e3d5ffd5b505050506040513d601f19601f82011682018060405250810190611158919061438f565b915091505f5f5f6111738b61116c90614580565b868661186e565b919450925090505f61118860408d018d61462c565b90506001600160401b038111156111a1576111a16139aa565b6040519080825280602002602001820160405280156111ca578160200160208202803683370190505b5090506112156111dd60408e018e61462c565b808060200260200160405190810160405280939291908181526020018383602002808284375f92019190915250859250611929915050565b5f61122360208e018e614678565b6001811115611234576112346144d1565b036112a1578b60200135818d6060013581518110611254576112546144e5565b60200260200101818151611268919061450d565b90525080518490829060808f0135908110611285576112856144e5565b602002602001018181516112999190614552565b905250611305565b83818d60600135815181106112b8576112b86144e5565b602002602001018181516112cc919061450d565b905250805160208d013590829060808f01359081106112ed576112ed6144e5565b602002602001018181516113019190614552565b9052505b5f60025f8d6001600160a01b03166001600160a01b031681526020019081526020015f206040518060400160405290815f82015f9054906101000a90046001600160801b03166001600160801b03166001600160801b031681526020015f820160109054906101000a90046001600160801b03166001600160801b03166001600160801b03168152505090505f6113e18e80604001906113a5919061462c565b808060200260200160405190810160405280939291908181526020018383602002808284375f920191909152508c92508991508890508661172d565b90506113f0838987878661172d565b98506114008b5f0151828b611841565b995050505050505050505b94509492505050565b670de0b6b3a764000081111561143d57604051631f3b85d360e01b815260040160405180910390fd5b50565b6114498161194a565b6001600160a01b0383165f818152600160205260409081902080546001600160401b0394909416600160401b02600160401b600160801b03199094169390931790925590517fcc7585f1dd40a0def67658a884745a1eca326ed902fe084d36e9e04084212032906114bd9084815260200190565b60405180910390a25050565b6114d28161194a565b6001600160a01b0383165f8181526001602090815260409182902080546001600160401b0319166001600160401b0395909516949094179093555183815290917f3b64afdb883fd4fa590572fb2db0b4d199d8ffb9703f5d32f4d87d1d468c026c91016114bd565b5f8061154e670de0b6b3a764000085614693565b905061155a83826146be565b949350505050565b5f8061156e8385614693565b905061155a670de0b6b3a7640000826146be565b68056bc75e2d6310000081118061159f5750662386f26fc1000081105b1561143d5760405163450a9fed60e01b815260040160405180910390fd5b5f6105e282611954565b5f7f00000000000000000000000000000000000000000000000000000000000000006001600160a01b031663aaabadc56040518163ffffffff1660e01b8152600401602060405180830381865afa158015611624573d5f5f3e3d5ffd5b505050506040513d601f19601f820116820180604052508101906116489190614565565b6040516326f8aa2160e21b8152600481018690526001600160a01b03858116602483015284811660448301529190911690639be2a88490606401602060405180830381865afa15801561169d573d5f5f3e3d5ffd5b505050506040513d601f19601f8201168201806040525081019061155a91906146d1565b5f5f6116cb61394d565b5f5f6116d888888861196c565b9150915060405180604001604052808260026116f491906146ec565b6116fe908561471b565b81526020018390529250611713878785611be4565b9450611720878785611ca7565b9350505050935093915050565b5f5f61173b87878787611d41565b90505f61176161175c88604001518960600151611ead90919063ffffffff16565b611f2c565b905061176d8188611f36565b9050808203611780575f92505050611838565b808210156117cd57865161179390611f2c565b61179d9082614552565b84516001600160801b03166117b28484614552565b6117bc9190614693565b6117c691906146be565b9250611814565b806117db8860200151611f2c565b6117e59190614552565b60208501516001600160801b03166117fd8385614552565b6118079190614693565b61181191906146be565b92505b670de0b6b3a764000083116118295782611833565b670de0b6b3a76400005b925050505b95945050505050565b5f815f0361185057505f610794565b828211801561155a5750506001600160401b03909216909111919050565b60608301515f90819081901561188261394d565b5f5f6118938a604001518a8a61196c565b9150915060405180604001604052808260026118af91906146ec565b6118b9908561471b565b815260200183905292505f8a5160018111156118d7576118d76144d1565b036118fe576118f28a604001518b60200151868c8c88611f84565b9198509650945061191c565b6119148a604001518b60200151868c8c88612044565b919850965094505b5050505093509350939050565b8151815161193890829061212e565b6020810260208401602084015e505050565b5f6105e28261214e565b5f600160801b82106119685761196861215e565b5090565b5f5f5f5f611992875f81518110611985576119856144e5565b6020026020010151611f2c565b6119a888600181518110611985576119856144e5565b9092509050697b426fab61f00de3639960221b6119c5828461471b565b13156119e457604051632da2a5e560e01b815260040160405180910390fd5b5f6119f18383898961216b565b90505f5f611a0185858b8b6122cd565b915091505f821315611a3357611a2c611a1b8360026146ec565b611a2683600161471b565b9061236c565b9050611a5d565b5f8113611a4457633b9aca00611a5a565b611a5a61175c611a5383611f2c565b600561242a565b90505b806b012ced32a16a1b11e826288960261b611a86611a7b878961471b565b60808d01519061263e565b611a909190614742565b611a9a919061471b565b611aa590600161471b565b611ab09060146146ec565b90505f611af06b012ced32a16a1b11e826288960261b611ad08c8c6126bf565b611ada919061476e565b6b012ced32a16a1b11e826288960261b906127b6565b90505f611b128284611b02878961471b565b611b0c919061476e565b906127fb565b9050611b1e83836128c9565b60808c01519093506b012ced32a16a1b11e826288960261b906a0c097ce7bc90715b34b9f160241b90611b5190806146ec565b611b5b9190614742565b611b6583856128c9565b611b6f91906146ec565b611b7a9060286146ec565b611b849190614742565b611b8e908461471b565b611b9990600161471b565b92506ab48e51940c76a45816e51f60251b611bb4848361471b565b1315611bd35760405163dc10196f60e01b815260040160405180910390fd5b9b919a509098505050505050505050565b60c08201516020830151515f918291611bfc916127b6565b90505f84602001515f015113611c4457611c3f81611c398760400151611c338960800151886020015161296090919063ffffffff16565b90612960565b906128c9565b611c69565b604085015160808601518451611c69928492611c3992611c639161263e565b9061263e565b9150611c9d611c8d8560c001518660200151602001516127b690919063ffffffff16565b60608701518551611c399161263e565b611838908361471b565b60c08201518251515f918291611cbc916127b6565b8451519091505f13611cef57611cea81611c398760600151611c3389608001518860200151611c339061478d565b611d16565b611d16611cfb8261478d565b606087015160808801518651611c399291611c63919061263e565b60c0850151855160200151919350611c9d91611d31916127b6565b60408701518551611c399161263e565b5f5f83865f81518110611d5657611d566144e5565b6020026020010151611d68919061476e565b90505f8387600181518110611d7f57611d7f6144e5565b6020026020010151611d91919061476e565b90505f8660800151876060015183611da991906146ec565b6040890151611db890866146ec565b611dc2919061476e565b611dcc9190614742565b90505f670de0b6b3a7640000886040015184611de891906146ec565b60608a0151611df790876146ec565b611e01919061471b565b611e0b9190614742565b90505f8860800151896040015184611e2391906146ec565b611e2d9190614742565b60608a0151611e3d908490612974565b611e47919061471b565b90505f89608001518a6060015185611e5f91906146ec565b611e699190614742565b60408b0151611e79908590612974565b611e83919061476e565b9050611e9261175c8383611ead565b9650611e9e878b611f36565b9b9a5050505050505050505050565b5f815f03611ece57604051630a0c22c760e01b815260040160405180910390fd5b825f03611edc57505f6105e2565b5f611eef670de0b6b3a7640000856146ec565b9050670de0b6b3a7640000611f048583614742565b14611f225760405163e03f5d5760e01b815260040160405180910390fd5b61155a8382614742565b5f6105e2826129c6565b5f611f43825f0151611f2c565b831015611f5c578151611f5590611f2c565b90506105e2565b611f698260200151611f2c565b831115611f7d57611f558260200151611f2c565b5090919050565b5f5f5f6139655f5f8915611fa257506129df91505f90506001611fae565b50612a459150600190505f5b5f611fda8c8e8560ff1681518110611fc857611fc86144e5565b602002602001015161175c919061450d565b9050611fe98a8a8a8487612ac1565b5f611ffa828c8c8c8963ffffffff16565b9098509650905061200a81611f2c565b8e8460ff168151811061201f5761201f6144e5565b60200260200101516120319190614552565b9750505050505096509650969350505050565b5f5f5f6139655f5f89156120625750612a4591505f9050600161206e565b506129df9150600190505f5b8b8160ff1681518110612083576120836144e5565b60200260200101518b11156120ab576040516301dd20c360e11b815260040160405180910390fd5b5f6120d78c8e8460ff16815181106120c5576120c56144e5565b602002602001015161175c9190614552565b90505f6120ea828c8c8c8963ffffffff16565b909850965090506120fe8b8b8b8488612ac1565b8d8460ff1681518110612113576121136144e5565b602002602001015161212482611f2c565b6120319190614552565b808214610f725760405163aaad13f760e01b815260040160405180910390fd5b5f600160401b8210611968576119685b6335278d125f526004601cfd5b60c08101515f90819061217e9080612b69565b90505f6121c3826121bd87608001518760a001516121ad8a608001518a60800151612b8490919063ffffffff16565b6121b7919061471b565b90612b84565b906127b6565b90506121f0816121e087606001518961296090919063ffffffff16565b6040880151611b02908b90612960565b92505f6122128660400151611c3388608001518a61296090919063ffffffff16565b6122318760600151611c3389608001518c61296090919063ffffffff16565b61223b919061471b565b905061225e6122578487604001516127b690919063ffffffff16565b82906127fb565b612268908561471b565b935061228186604001518861296090919063ffffffff16565b6060870151612291908a90612960565b61229b919061471b565b90506122b76122578487606001516127b690919063ffffffff16565b6122c1908561471b565b98975050505050505050565b5f5f6122db86868686612bb8565b6122e787878787612d05565b6122f1919061471b565b91506122ff86868686612e4b565b612309908361471b565b91506b012ced32a16a1b11e826288960261b612325868061263e565b61232f888061263e565b612339919061471b565b6123439190614742565b90505f8213612352575f612361565b61236161175c611a5384611f2c565b915094509492505050565b5f815f0361238d57604051630a0c22c760e01b815260040160405180910390fd5b825f0361239b57505f6105e2565b5f8212156123ba576123ac8261478d565b91506123b78361478d565b92505b5f8313156123f6578160016123d7670de0b6b3a7640000866146ec565b6123e1919061476e565b6123eb9190614742565b611f5590600161471b565b60018261240b670de0b6b3a7640000866146ec565b61241690600161471b565b6124209190614742565b610794919061476e565b5f825f0361243957505f6105e2565b5f61244384612f7e565b905060028161245a670de0b6b3a764000087614693565b61246491906146be565b61246e908361450d565b61247891906146be565b905060028161248f670de0b6b3a764000087614693565b61249991906146be565b6124a3908361450d565b6124ad91906146be565b90506002816124c4670de0b6b3a764000087614693565b6124ce91906146be565b6124d8908361450d565b6124e291906146be565b90506002816124f9670de0b6b3a764000087614693565b61250391906146be565b61250d908361450d565b61251791906146be565b905060028161252e670de0b6b3a764000087614693565b61253891906146be565b612542908361450d565b61254c91906146be565b9050600281612563670de0b6b3a764000087614693565b61256d91906146be565b612577908361450d565b61258191906146be565b9050600281612598670de0b6b3a764000087614693565b6125a291906146be565b6125ac908361450d565b6125b691906146be565b90505f6125c38280611562565b90506125cf8285613155565b6125d9908661450d565b81111580156125fb57506125ed8285613155565b6125f79086614552565b8110155b6126365760405162461bcd60e51b815260206004820152600c60248201526b17dcdc5c9d0811905253115160a21b6044820152606401610db8565b509392505050565b5f8061264a83856146ec565b90505f81131561268557670de0b6b3a764000061266860018361476e565b6126729190614742565b61267d90600161471b565b9150506105e2565b5f8112156126b6576001670de0b6b3a76400006126a2838361471b565b6126ac9190614742565b61267d919061476e565b505f9392505050565b60c08101515f9081906126dc906126d68180612b69565b90612b69565b90506127096126fe826121bd8660600151876040015160026126d691906146ec565b60808601519061263e565b91506127438460800151611c638660800151611c63856121bd89604001516001612733919061471b565b60408b01516126d690600161471b565b61274d908361471b565b60608401519092506127659082906121bd9080612b69565b61276f908361471b565b91505f8360a001516127928660800151866080015161236c90919063ffffffff16565b61279c919061471b565b90506127ac826121bd8380612b69565b611838908461471b565b5f815f036127d757604051630a0c22c760e01b815260040160405180910390fd5b816127f16b012ced32a16a1b11e826288960261b856146ec565b6107949190614742565b5f8061280f678ac7230489e8000084614742565b90505f612824678ac7230489e80000856147a7565b90505f61283183876146ec565b90505f61283e83886146ec565b90505f821215801561285057505f8112155b612897576001678ac7230489e800006128698184614742565b612873908561471b565b61287e90600161471b565b6128889190614742565b612892919061476e565b6128be565b678ac7230489e800006128aa8183614742565b6128b4908461471b565b6128be9190614742565b979650505050505050565b5f806128dd678ac7230489e8000084614742565b90505f6128f2678ac7230489e80000856147a7565b90505f6128ff83876146ec565b90505f61290c83886146ec565b90505f821315801561291e57505f8113155b61289757678ac7230489e8000060016129378284614742565b612941908561471b565b61294b919061476e565b6129559190614742565b61289290600161471b565b5f670de0b6b3a76400006127f183856146ec565b5f8061298083856146ec565b90508315806129975750826129958583614742565b145b6129b45760405163066f361360e11b815260040160405180910390fd5b61155a670de0b6b3a764000082614742565b5f5f82126129d2575090565b6129da61215e565b919050565b5f5f5f6129ed868686611be4565b91506129fa868686611ca7565b90505f6040518060400160405280848152602001838152509050612a3887608001518989606001518a6040015189868c602001518d60c00151613181565b9350509450945094915050565b5f5f5f612a53868686611be4565b9150612a60868686611ca7565b90505f6040518060400160405280838152602001848152509050612a3887608001518989604001518a60600151898660405180604001604052808e5f01515f0151612aaa9061478d565b81528e5160209081015191015260c08e0151613181565b8060ff165f03612b19575f612ad786868661344b565b9050697b426fab61f00de3639960221b8313158015612af65750808313155b612b13576040516301dd20c360e11b815260040160405180910390fd5b506108a2565b5f612b25868686613503565b9050697b426fab61f00de3639960221b8313158015612b445750808313155b612b61576040516301dd20c360e11b815260040160405180910390fd5b505050505050565b5f6b012ced32a16a1b11e826288960261b6127f183856146ec565b5f815f03612ba557604051630a0c22c760e01b815260040160405180910390fd5b816127f1670de0b6b3a7640000856146ec565b5f5f612bf48460600151611c3386604001516002612bd691906146ec565b612be0898061263e565b612bea8b80612960565b611c33919061476e565b90505f612c0c612c058860026146ec565b8790612960565b6060860151909150612c2290611c338382612960565b6040860151612c3590611c338482612960565b612c3f908461471b565b612c49919061476e565b91505f612c7786608001516121b788608001516121b789606001518a60800151612b6990919063ffffffff16565b604086015160a0870151612c8a91612b69565b612c94919061471b565b9050612ccc8660800151612cb987606001518860a00151612b6990919063ffffffff16565b604088015160808901516121ad91612b69565b612cd6908261471b565b60c0860151909150612cf990612cf2906126d681818180612b69565b82906127b6565b90506122c183826127fb565b60608201515f908190612d1e90611c638181898061263e565b6040850151612d3390611c6381818b8061263e565b612d3d919061471b565b9050612d658460600151611c3386604001516002612d5b91906146ec565b611c338a8a612960565b612d6f908261476e565b608085015160608501519192505f91612d9191906121b7908290829080612b69565b612db286608001516121b78760600151886040015160026126d691906146ec565b6040860151612dc19080612b69565b612dcb919061471b565b612dd5919061471b565b60c0850151909150612df190612cf2906126d681818180612b69565b9050612e0081611b0c8461478d565b9250612e41612e2b8560c001516b012ced32a16a1b11e826288960261b6127b690919063ffffffff16565b6080870151611b0c906121b7818160098961476e565b6128be908461471b565b60408201515f908190612e6490611c638181898061263e565b6060850151612e7990611c6381818b8061263e565b612e83919061471b565b9050612eab8460400151611c6386606001516002612ea191906146ec565b611c638a8a61263e565b612eb5908261471b565b608080860151908501519192505f91612ed791906121b7908290829080612b69565b60a0850151612ee69080612b69565b612ef0919061471b565b9050612f1385608001516121b786608001518760a0015160026126d691906146ec565b612f1d908261471b565b60c0850151909150612f3990612cf2906126d681818180612b69565b9050612f4881611b0c8461478d565b9250612e41612f738560c001516b012ced32a16a1b11e826288960261b6127b690919063ffffffff16565b611b0c60098561476e565b5f670de0b6b3a76400008210612fb757670de0b6b3a7640000612fa9612fa482856146be565b6135a2565b6001901b6105e29190614693565b600a8211612fca575063bc7c871c919050565b60648211612fde57506402540be400919050565b6103e88211612ff3575064075cdd4719919050565b6127108211613008575064174876e800919050565b620186a0821161301e57506449a0a4c700919050565b620f42408211613034575064e8d4a51000919050565b62989680821161304b57506502e0466fc608919050565b6305f5e100821161306357506509184e72a000919050565b633b9aca00821161307b5750651cc2c05dbc53919050565b6402540be40082116130945750655af3107a4000919050565b64174876e80082116130ae575066011f9b83a95b45919050565b64e8d4a5100082116130c8575066038d7ea4c68000919050565b6509184e72a00082116130e35750660b3c13249d90bb919050565b655af3107a400082116130fe5750662386f26fc10000919050565b66038d7ea4c68000821161311a5750667058bf6e27a751919050565b662386f26fc100008211613137575067016345785d8a0000919050565b67016345785d8a000082116119685750670463777a4d8c892d919050565b5f806131618385614693565b90506001670de0b6b3a76400006001830304018115150291505092915050565b5f61318a61394d565b6131a78a6121b76b012ced32a16a1b11e826288960261b82612b84565b6131c0906b012ced32a16a1b11e826288960261b61476e565b81526131df8a611a266b012ced32a16a1b11e826288960261b8261236c565b6131f8906b012ced32a16a1b11e826288960261b61476e565b602082015261320561396d565b85515f90613213908c61476e565b90505f81131561324957602083015161323f9061323090876127b6565b611c398b611c338e818761478d565b6020830152613279565b82516132739061325990876127b6565b61326490600161471b565b611c398b611c638e818761478d565b60208301525b61328161394d565b6132a0866121bd8d611c338f896020015161296090919063ffffffff16565b815283516132ae908c61263e565b60208201526132d06132c187600161471b565b60208301516121bd908e61263e565b6132db90600161471b565b60208201526040805180820190915281518190613307906b012ced32a16a1b11e826288960261b61476e565b815260200182602001516b012ced32a16a1b11e826288960261b61332b919061476e565b9052905061333e8c8a8f8e8e8c8c613677565b6133479061478d565b6040840152602080820151908a01516133659190611b0c9080612960565b8360400151613374919061471b565b604084018190525f12613387575f61339a565b61339a61175c611a538560400151611f2c565b6040840181905260208401515f916133b19161476e565b1315613406576133ff6133e082602001516b012ced32a16a1b11e826288960261b6127b690919063ffffffff16565b6133eb90600161471b565b84604001518560200151611c39919061476e565b8352613429565b8051613426906133eb906b012ced32a16a1b11e826288960261b906127b6565b83525b6020880151835161343a919061471b565b9d9c50505050505050505050505050565b60c08201518251516020840151515f92839261346b926121bd919061476e565b90505f6134918560c00151865f0151602001518760200151602001516121bd919061476e565b90506134ba82611b0c8860400151611c338a60800151896020015161296090919063ffffffff16565b92506134ef815f83136134dc57606088015186516134d79161263e565b611b0c565b60608801516020870151611b0c91612960565b6134f9908461471b565b9695505050505050565b60c08201518251516020840151515f928392613523926121bd919061476e565b90505f6135498560c00151866020015160200151875f0151602001516121bd919061476e565b905061357282611b0c8860600151611c338a60800151896020015161296090919063ffffffff16565b92506134ef815f831361358f57604088015186516134d79161263e565b60408801516020870151611b0c91612960565b5f600160801b82106135c35760809190911c906135c060408261450d565b90505b600160401b82106135e35760409190911c906135e060208261450d565b90505b600160201b82106136035760209190911c9061360060108261450d565b90505b6201000082106136225760109190911c9061361f60088261450d565b90505b61010082106136405760089190911c9061363d60048261450d565b90505b6010821061365d5760049190911c9061365a60028261450d565b90505b600482106129da5760029190911c906105e260018261450d565b5f5f60405180604001604052806136978586612b6990919063ffffffff16565b815289516020909101906136ab908061263e565b905290506136b761396d565b8151602086015186515f926136d19290916121bd91612b69565b90505f811315613717576136f46136e98960026146ec565b60208501519061263e565b825261371061370482600761471b565b8351611c39908a61263e565b825261374a565b6137346137258960026146ec565b60208c0151611c339080612960565b808352613747908290611c39908a612960565b82525b85515f13156137a557855161379b9061376390876127b6565b61376c9061478d565b61377790600361471b565b611c396137858a60026146ec565b611c638f8f5f015161263e90919063ffffffff16565b60208301526137db565b85516137d5906137b590876127b6565b611c396137c38a60026146ec565b611c338f8f60200151611c339061478d565b60208301525b602082015182516137ec919061471b565b82528251602087015161380491906121bd9080612b69565b61380f90600761471b565b6020840151909150613821908961263e565b60208301819052613838908290611c39908b61263e565b6020808401919091528601516138609061385290876127b6565b611c396137c38b60026146ec565b604083015261386f8b8061263e565b82604001518360200151613883919061471b565b61388d919061471b565b602083018190525f126138ae5760208201516138a9908a612b84565b6138bd565b60208201516138bd908a61236c565b6020830181905282516138d0919061471b565b8083525f126138ea5781516138e5908a612b84565b6138f6565b81516138f6908a61236c565b82528251865161390b91906121bd9080612b69565b61391690600761471b565b90505f61393488611c638a876020015161263e90919063ffffffff16565b835190915061394382846128c9565b6110c4919061471b565b60405180604001604052805f81526020015f81525090565b610dc16147ba565b60405180606001604052805f81526020015f81526020015f81525090565b6001600160a01b038116811461143d575f5ffd5b80356129da8161398b565b634e487b7160e01b5f52604160045260245ffd5b604051608081016001600160401b03811182821017156139e0576139e06139aa565b60405290565b60405160a081016001600160401b03811182821017156139e0576139e06139aa565b60405160e081016001600160401b03811182821017156139e0576139e06139aa565b604051601f8201601f191681016001600160401b0381118282101715613a5257613a526139aa565b604052919050565b5f6001600160401b03821115613a7257613a726139aa565b5060051b60200190565b6002811061143d575f5ffd5b80356129da81613a7c565b801515811461143d575f5ffd5b5f60808284031215613ab0575f5ffd5b50919050565b5f5f5f5f60e08587031215613ac9575f5ffd5b8435613ad48161398b565b93506020850135613ae48161398b565b925060408501356001600160401b03811115613afe575f5ffd5b8501601f81018713613b0e575f5ffd5b8035613b21613b1c82613a5a565b613a2a565b8082825260208201915060208360071b850101925089831115613b42575f5ffd5b6020840193505b82841015613bc2576080848b031215613b60575f5ffd5b613b686139be565b8435613b738161398b565b81526020850135613b8381613a7c565b60208201526040850135613b968161398b565b60408201526060850135613ba981613a93565b6060820152825260809390930192602090910190613b49565b80955050505050613bd68660608701613aa0565b905092959194509250565b5f60208284031215613bf1575f5ffd5b81356001600160401b03811115613c06575f5ffd5b82016101808185031215610794575f5ffd5b5f60208284031215613c28575f5ffd5b81356107948161398b565b5f82601f830112613c42575f5ffd5b8135613c50613b1c82613a5a565b8082825260208201915060208360051b860101925085831115613c71575f5ffd5b602085015b838110156107e7578035835260209283019201613c76565b5f82601f830112613c9d575f5ffd5b81356001600160401b03811115613cb657613cb66139aa565b613cc9601f8201601f1916602001613a2a565b818152846020838601011115613cdd575f5ffd5b816020850160208301375f918101602001919091529392505050565b5f5f60408385031215613d0a575f5ffd5b82356001600160401b03811115613d1f575f5ffd5b613d2b85828601613c33565b92505060208301356001600160401b03811115613d46575f5ffd5b613d5285828601613c8e565b9150509250929050565b5f5f60408385031215613d6d575f5ffd5b8235613d788161398b565b946020939093013593505050565b8035600481106129da575f5ffd5b5f5f5f5f5f5f5f5f610100898b031215613dac575f5ffd5b613db58961399f565b9750613dc360208a0161399f565b9650613dd160408a01613d86565b95506060890135945060808901356001600160401b03811115613df2575f5ffd5b613dfe8b828c01613c33565b94505060a08901356001600160401b03811115613e19575f5ffd5b613e258b828c01613c33565b93505060c08901356001600160401b03811115613e40575f5ffd5b613e4c8b828c01613c33565b92505060e08901356001600160401b03811115613e67575f5ffd5b613e738b828c01613c8e565b9150509295985092959890939650565b5f604082018415158352604060208401528084518083526060850191506020860192505f5b81811015613ec6578351835260209384019390920191600101613ea8565b50909695505050505050565b5f5f5f60608486031215613ee4575f5ffd5b83356001600160401b03811115613ef9575f5ffd5b613f0586828701613c33565b9350506020840135915060408401356001600160401b03811115613f27575f5ffd5b613f3386828701613c8e565b9150509250925092565b5f60e08284031215613ab0575f5ffd5b5f5f5f60608486031215613f5f575f5ffd5b83356001600160401b03811115613f74575f5ffd5b613f8086828701613f3d565b9350506020840135613f918161398b565b929592945050506040919091013590565b8035600581106129da575f5ffd5b5f5f5f5f5f5f5f60e0888a031215613fc6575f5ffd5b8735613fd18161398b565b9650613fdf6020890161399f565b9550613fed60408901613fa2565b945060608801356001600160401b03811115614007575f5ffd5b6140138a828b01613c33565b9450506080880135925060a08801356001600160401b03811115614035575f5ffd5b6140418a828b01613c33565b92505060c08801356001600160401b0381111561405c575f5ffd5b6140688a828b01613c8e565b91505092959891949750929550565b5f5f60408385031215614088575f5ffd5b82356001600160401b0381111561409d575f5ffd5b6140a985828601613f3d565b92505060208301356140ba8161398b565b809150509250929050565b602081525f82518060208401528060208501604085015e5f604082850101526040601f19601f83011684010191505092915050565b5f6020828403121561410a575f5ffd5b81356001600160e01b031981168114610794575f5ffd5b6001600160801b0391909116815260200190565b6001600160a01b0391909116815260200190565b5f5f5f5f5f5f5f5f610100898b031215614161575f5ffd5b61416a8961399f565b975061417860208a0161399f565b965061418660408a01613fa2565b955060608901356001600160401b038111156141a0575f5ffd5b6141ac8b828c01613c33565b95505060808901356001600160401b038111156141c7575f5ffd5b6141d38b828c01613c33565b94505060a0890135925060c08901356001600160401b03811115613e40575f5ffd5b5f5f5f5f5f5f5f60e0888a03121561420b575f5ffd5b87356142168161398b565b96506142246020890161399f565b955061423260408901613d86565b94506060880135935060808801356001600160401b03811115614253575f5ffd5b61425f8a828b01613c33565b93505060a08801356001600160401b03811115614035575f5ffd5b81511515815261014081016020830151614298602084018215159052565b5060408301516142ac604084018215159052565b5060608301516142c0606084018215159052565b5060808301516142d4608084018215159052565b5060a08301516142e860a084018215159052565b5060c08301516142fc60c084018215159052565b5060e083015161431060e084018215159052565b5061010083015161432661010084018215159052565b5061012083015161433c61012084018215159052565b5092915050565b5f60408284031215614353575f5ffd5b604080519081016001600160401b0381118282101715614375576143756139aa565b604052825181526020928301519281019290925250919050565b5f5f8284036101c08112156143a2575f5ffd5b60a08112156143af575f5ffd5b6143b76139e6565b84518152602080860151908201526040808601519082015260608086015190820152608080860151908201529250610120609f19820112156143f7575f5ffd5b50614400613a08565b61440d8560a08601614343565b815261441c8560e08601614343565b602082015261012084015160408201526101408401516060820152610160840151608082015261018084015160a08201526101a09093015160c08401525092909150565b5f6060828403128015614471575f5ffd5b50604051606081016001600160401b0381118282101715614494576144946139aa565b60405282516144a28161398b565b815260208301516144b28161398b565b602082015260408301516144c58161398b565b60408201529392505050565b634e487b7160e01b5f52602160045260245ffd5b634e487b7160e01b5f52603260045260245ffd5b634e487b7160e01b5f52601160045260245ffd5b808201808211156105e2576105e26144f9565b600181811c9082168061453457607f821691505b602082108103613ab057634e487b7160e01b5f52602260045260245ffd5b818103818111156105e2576105e26144f9565b5f60208284031215614575575f5ffd5b81516107948161398b565b5f60e08236031215614590575f5ffd5b614598613a08565b6145a183613a88565b81526020838101359082015260408301356001600160401b038111156145c5575f5ffd5b6145d136828601613c33565b60408301525060608381013590820152608080840135908201526145f760a0840161399f565b60a082015260c08301356001600160401b03811115614614575f5ffd5b61462036828601613c8e565b60c08301525092915050565b5f5f8335601e19843603018112614641575f5ffd5b8301803591506001600160401b0382111561465a575f5ffd5b6020019150600581901b3603821315614671575f5ffd5b9250929050565b5f60208284031215614688575f5ffd5b813561079481613a7c565b80820281158282048414176105e2576105e26144f9565b634e487b7160e01b5f52601260045260245ffd5b5f826146cc576146cc6146aa565b500490565b5f602082840312156146e1575f5ffd5b815161079481613a93565b8082025f8212600160ff1b84141615614707576147076144f9565b81810583148215176105e2576105e26144f9565b8082018281125f83128015821682158216171561473a5761473a6144f9565b505092915050565b5f82614750576147506146aa565b600160ff1b82145f1984141615614769576147696144f9565b500590565b8181035f83128015838313168383128216171561433c5761433c6144f9565b5f600160ff1b82016147a1576147a16144f9565b505f0390565b5f826147b5576147b56146aa565b500790565b634e487b7160e01b5f52605160045260245ffdfea264697066735822122095a87e77dbf3f865eb419180a18b809f32b394bfc1c02349f1b94beaa2b810c964736f6c634300081e0033","linkReferences":{}},"methodIdentifiers":{"MAX_IMBALANCE_SLOPE()":"872aabd5","MIN_IMBALANCE_SLOPE()":"bcf5a6c3","computeSwapSurgeFeePercentage((uint8,uint256,uint256[],uint256,uint256,address,bytes),address,uint256)":"c88511a2","getActionId(bytes4)":"851c1bb3","getAuthorizer()":"aaabadc5","getDefaultMaxSurgeFeePercentage()":"c17ef2cc","getDefaultSurgeThresholdPercentage()":"8bc694ad","getHookFlags()":"d77153a7","getImbalanceSlopes(address)":"f253345f","getMaxSurgeFeePercentage(address)":"1a4a64be","getSurgeThresholdPercentage(address)":"e2381602","getVault()":"8d928af8","isSurgingSwap((uint8,uint256,uint256[],uint256,uint256,address,bytes),address,uint256)":"3a61bdea","onAfterAddLiquidity(address,address,uint8,uint256[],uint256[],uint256,uint256[],bytes)":"976907cc","onAfterInitialize(uint256[],uint256,bytes)":"38be241d","onAfterRemoveLiquidity(address,address,uint8,uint256,uint256[],uint256[],uint256[],bytes)":"2754888d","onAfterSwap((uint8,address,address,uint256,uint256,uint256,uint256,uint256,uint256,address,address,bytes))":"18b6eb55","onBeforeAddLiquidity(address,address,uint8,uint256[],uint256,uint256[],bytes)":"45421ec7","onBeforeInitialize(uint256[],bytes)":"1c149e28","onBeforeRemoveLiquidity(address,address,uint8,uint256,uint256[],uint256[],bytes)":"ba5f9f40","onBeforeSwap((uint8,uint256,uint256[],uint256,uint256,address,bytes),address)":"5211fa77","onComputeDynamicSwapFeePercentage((uint8,uint256,uint256[],uint256,uint256,address,bytes),address,uint256)":"a0e8f5ac","onRegister(address,address,(address,uint8,address,bool)[],(bool,bool,bool,bool))":"0b89f182","setImbalanceSlopeAbovePeak(address,uint256)":"1fcb3b55","setImbalanceSlopeBelowPeak(address,uint256)":"6073d344","setMaxSurgeFeePercentage(address,uint256)":"4e493cfd","setSurgeThresholdPercentage(address,uint256)":"59f00466","version()":"54fd4d50"},"id":131}