{"abi":[{"type":"constructor","inputs":[],"stateMutability":"nonpayable"},{"type":"function","name":"Line","inputs":[],"outputs":[{"name":"","type":"uint256","internalType":"uint256"}],"stateMutability":"view"},{"type":"function","name":"cage","inputs":[],"outputs":[],"stateMutability":"nonpayable"},{"type":"function","name":"can","inputs":[{"name":"","type":"address","internalType":"address"},{"name":"","type":"address","internalType":"address"}],"outputs":[{"name":"","type":"uint256","internalType":"uint256"}],"stateMutability":"view"},{"type":"function","name":"dai","inputs":[{"name":"","type":"address","internalType":"address"}],"outputs":[{"name":"","type":"uint256","internalType":"uint256"}],"stateMutability":"view"},{"type":"function","name":"debt","inputs":[],"outputs":[{"name":"","type":"uint256","internalType":"uint256"}],"stateMutability":"view"},{"type":"function","name":"deny","inputs":[{"name":"usr","type":"address","internalType":"address"}],"outputs":[],"stateMutability":"nonpayable"},{"type":"function","name":"file","inputs":[{"name":"ilk","type":"bytes32","internalType":"bytes32"},{"name":"what","type":"bytes32","internalType":"bytes32"},{"name":"data","type":"uint256","internalType":"uint256"}],"outputs":[],"stateMutability":"nonpayable"},{"type":"function","name":"file","inputs":[{"name":"what","type":"bytes32","internalType":"bytes32"},{"name":"data","type":"uint256","internalType":"uint256"}],"outputs":[],"stateMutability":"nonpayable"},{"type":"function","name":"flux","inputs":[{"name":"ilk","type":"bytes32","internalType":"bytes32"},{"name":"src","type":"address","internalType":"address"},{"name":"dst","type":"address","internalType":"address"},{"name":"wad","type":"uint256","internalType":"uint256"}],"outputs":[],"stateMutability":"nonpayable"},{"type":"function","name":"fold","inputs":[{"name":"i","type":"bytes32","internalType":"bytes32"},{"name":"u","type":"address","internalType":"address"},{"name":"rate","type":"int256","internalType":"int256"}],"outputs":[],"stateMutability":"nonpayable"},{"type":"function","name":"fork","inputs":[{"name":"ilk","type":"bytes32","internalType":"bytes32"},{"name":"src","type":"address","internalType":"address"},{"name":"dst","type":"address","internalType":"address"},{"name":"dink","type":"int256","internalType":"int256"},{"name":"dart","type":"int256","internalType":"int256"}],"outputs":[],"stateMutability":"nonpayable"},{"type":"function","name":"frob","inputs":[{"name":"i","type":"bytes32","internalType":"bytes32"},{"name":"u","type":"address","internalType":"address"},{"name":"v","type":"address","internalType":"address"},{"name":"w","type":"address","internalType":"address"},{"name":"dink","type":"int256","internalType":"int256"},{"name":"dart","type":"int256","internalType":"int256"}],"outputs":[],"stateMutability":"nonpayable"},{"type":"function","name":"gem","inputs":[{"name":"","type":"bytes32","internalType":"bytes32"},{"name":"","type":"address","internalType":"address"}],"outputs":[{"name":"","type":"uint256","internalType":"uint256"}],"stateMutability":"view"},{"type":"function","name":"grab","inputs":[{"name":"i","type":"bytes32","internalType":"bytes32"},{"name":"u","type":"address","internalType":"address"},{"name":"v","type":"address","internalType":"address"},{"name":"w","type":"address","internalType":"address"},{"name":"dink","type":"int256","internalType":"int256"},{"name":"dart","type":"int256","internalType":"int256"}],"outputs":[],"stateMutability":"nonpayable"},{"type":"function","name":"heal","inputs":[{"name":"rad","type":"uint256","internalType":"uint256"}],"outputs":[],"stateMutability":"nonpayable"},{"type":"function","name":"hope","inputs":[{"name":"usr","type":"address","internalType":"address"}],"outputs":[],"stateMutability":"nonpayable"},{"type":"function","name":"ilks","inputs":[{"name":"","type":"bytes32","internalType":"bytes32"}],"outputs":[{"name":"Art","type":"uint256","internalType":"uint256"},{"name":"rate","type":"uint256","internalType":"uint256"},{"name":"spot","type":"uint256","internalType":"uint256"},{"name":"line","type":"uint256","internalType":"uint256"},{"name":"dust","type":"uint256","internalType":"uint256"}],"stateMutability":"view"},{"type":"function","name":"init","inputs":[{"name":"ilk","type":"bytes32","internalType":"bytes32"}],"outputs":[],"stateMutability":"nonpayable"},{"type":"function","name":"live","inputs":[],"outputs":[{"name":"","type":"uint256","internalType":"uint256"}],"stateMutability":"view"},{"type":"function","name":"move","inputs":[{"name":"src","type":"address","internalType":"address"},{"name":"dst","type":"address","internalType":"address"},{"name":"rad","type":"uint256","internalType":"uint256"}],"outputs":[],"stateMutability":"nonpayable"},{"type":"function","name":"nope","inputs":[{"name":"usr","type":"address","internalType":"address"}],"outputs":[],"stateMutability":"nonpayable"},{"type":"function","name":"rely","inputs":[{"name":"usr","type":"address","internalType":"address"}],"outputs":[],"stateMutability":"nonpayable"},{"type":"function","name":"sin","inputs":[{"name":"","type":"address","internalType":"address"}],"outputs":[{"name":"","type":"uint256","internalType":"uint256"}],"stateMutability":"view"},{"type":"function","name":"slip","inputs":[{"name":"ilk","type":"bytes32","internalType":"bytes32"},{"name":"usr","type":"address","internalType":"address"},{"name":"wad","type":"int256","internalType":"int256"}],"outputs":[],"stateMutability":"nonpayable"},{"type":"function","name":"suck","inputs":[{"name":"u","type":"address","internalType":"address"},{"name":"v","type":"address","internalType":"address"},{"name":"rad","type":"uint256","internalType":"uint256"}],"outputs":[],"stateMutability":"nonpayable"},{"type":"function","name":"urns","inputs":[{"name":"","type":"bytes32","internalType":"bytes32"},{"name":"","type":"address","internalType":"address"}],"outputs":[{"name":"ink","type":"uint256","internalType":"uint256"},{"name":"art","type":"uint256","internalType":"uint256"}],"stateMutability":"view"},{"type":"function","name":"vice","inputs":[],"outputs":[{"name":"","type":"uint256","internalType":"uint256"}],"stateMutability":"view"},{"type":"function","name":"wards","inputs":[{"name":"","type":"address","internalType":"address"}],"outputs":[{"name":"","type":"uint256","internalType":"uint256"}],"stateMutability":"view"}],"bytecode":{"object":"0x6080604052348015600e575f5ffd5b50335f908152602081905260409020600190819055600a55611718806100335f395ff3fe608060405234801561000f575f5ffd5b5060043610610152575f3560e01c80630dca59c1146101565780631a0b287e14610172578063214414d5146101875780632424be5c146101b157806329ae8114146101f75780632d61a3551461020a5780633b663195146102135780634538c4eb146102265780636111be2e1461025057806365fae35e1461026357806369245009146102765780636c25b3461461027e578063760887031461029d5780637bab3f40146102b05780637cdd3fde146102c3578063870c616d146102d6578063957aa58c146102e95780639c52a7f1146102f2578063a3b22fc414610305578063b65337df1461033b578063babe8a3f1461034e578063bb35783b14610357578063bf353dbb1461036a578063d9638d3614610389578063dc4d20fa146103ed578063f059212a14610423578063f24e23eb14610442578063f37ac61c14610455575b5f5ffd5b61015f60075481565b6040519081526020015b60405180910390f35b61018561018036600461142b565b610468565b005b61015f61019536600461146f565b600460209081525f928352604080842090915290825290205481565b6101e26101bf36600461146f565b600360209081525f92835260408084209091529082529020805460019091015482565b60408051928352602083019190915201610169565b610185610205366004611499565b61057a565b61015f60085481565b6101856102213660046114b9565b6105de565b61015f6102343660046114d0565b600160209081525f928352604080842090915290825290205481565b61018561025e3660046114f8565b610682565b610185610271366004611539565b610733565b61018561079f565b61015f61028c366004611539565b60056020525f908152604090205481565b6101856102ab366004611552565b6107d3565b6101856102be366004611552565b610c24565b6101856102d13660046115ad565b610d5d565b6101856102e43660046115e0565b610ddf565b61015f600a5481565b610185610300366004611539565b611004565b610185610313366004611539565b335f9081526001602081815260408084206001600160a01b0395909516845293905291902055565b6101856103493660046115ad565b61106d565b61015f60095481565b61018561036536600461162a565b611140565b61015f610378366004611539565b5f6020819052908152604090205481565b6103c56103973660046114b9565b600260208190525f918252604090912080546001820154928201546003830154600490930154919392909185565b604080519586526020860194909452928401919091526060830152608082015260a001610169565b6101856103fb366004611539565b335f9081526001602090815260408083206001600160a01b0394909416835292905290812055565b61015f610431366004611539565b60066020525f908152604090205481565b61018561045036600461162a565b6111d6565b6101856104633660046114b9565b611298565b335f9081526020819052604090205460011461049f5760405162461bcd60e51b815260040161049690611653565b60405180910390fd5b600a546001146104c15760405162461bcd60e51b81526004016104969061167f565b81631cdc1bdd60e21b036104e8575f83815260026020819052604090912001819055505050565b81636c696e6560e01b0361050e575f838152600260205260409020600301819055505050565b8163191d5cdd60e21b03610534575f838152600260205260409020600401819055505050565b60405162461bcd60e51b815260206004820152601b60248201527a5661742f66696c652d756e7265636f676e697a65642d706172616d60281b6044820152606401610496565b335f908152602081905260409020546001146105a85760405162461bcd60e51b815260040161049690611653565b600a546001146105ca5760405162461bcd60e51b81526004016104969061167f565b81634c696e6560e01b036105345760095550565b335f9081526020819052604090205460011461060c5760405162461bcd60e51b815260040161049690611653565b5f81815260026020526040902060010154156106615760405162461bcd60e51b815260206004820152601460248201527315985d0bda5b1acb585b1c9958591e4b5a5b9a5d60621b6044820152606401610496565b5f908152600260205260409020676765c793fa10079d601b1b600190910155565b61068c833361131b565b6106a85760405162461bcd60e51b8152600401610496906116a5565b5f8481526004602090815260408083206001600160a01b03871684529091529020546106d49082611354565b5f8581526004602090815260408083206001600160a01b03888116855292528083209390935584168152205461070a9082611363565b5f9485526004602090815260408087206001600160a01b03909516875293905291909320555050565b335f908152602081905260409020546001146107615760405162461bcd60e51b815260040161049690611653565b600a546001146107835760405162461bcd60e51b81526004016104969061167f565b6001600160a01b03165f90815260208190526040902060019055565b335f908152602081905260409020546001146107cd5760405162461bcd60e51b815260040161049690611653565b5f600a55565b600a546001146107f55760405162461bcd60e51b81526004016104969061167f565b5f8681526003602081815260408084206001600160a01b038a16855282528084208151808301835281548152600191820154818501528b86526002808552838720845160a0810186528154815293810154958401869052908101549383019390935293820154606082015260049091015460808201529192036108ad5760405162461bcd60e51b815260206004820152601060248201526f15985d0bda5b1acb5b9bdd0b5a5b9a5d60821b6044820152606401610496565b81516108b99085611372565b825260208201516108ca9084611372565b602083015280516108db9084611372565b815260208101515f906108ee90856113a3565b90505f610903836020015185602001516113d4565b905061091160075483611372565b6007819055506109495f8613156109458560600151610937875f015188602001516113d4565b111560095460075411151690565b1790565b61098c5760405162461bcd60e51b815260206004820152601460248201527315985d0bd8d95a5b1a5b99cb595e18d95959195960621b6044820152606401610496565b6109b661099e5f8713155f8912151690565b6109af865f015186604001516113d4565b8311151790565b6109f15760405162461bcd60e51b815260206004820152600c60248201526b5661742f6e6f742d7361666560a01b6044820152606401610496565b610a0d610a035f8713155f8912151690565b6109458b3361131b565b610a4d5760405162461bcd60e51b81526020600482015260116024820152705661742f6e6f742d616c6c6f7765642d7560781b6044820152606401610496565b610a5e5f8713156109458a3361131b565b610a9e5760405162461bcd60e51b81526020600482015260116024820152702b30ba17b737ba16b0b63637bbb2b216bb60791b6044820152606401610496565b610aaf5f861215610945893361131b565b610aef5760405162461bcd60e51b81526020600482015260116024820152705661742f6e6f742d616c6c6f7765642d7760781b6044820152606401610496565b60208401516080840151821015901517610b365760405162461bcd60e51b815260206004820152600860248201526715985d0bd91d5cdd60c21b6044820152606401610496565b5f8a81526004602090815260408083206001600160a01b038c168452909152902054610b6290876113fb565b5f8b81526004602090815260408083206001600160a01b03808e16855290835281842094909455928a168252600590522054610b9e9083611372565b6001600160a01b039788165f908152600560209081526040808320939093558c825260038082528383209c909a1682529a8b5281812086518155958b01516001968701559a8b526002808b529a8190208451815599840151948a019490945550509081015196860196909655505060608401519083015550608090910151600490910155565b335f90815260208190526040902054600114610c525760405162461bcd60e51b815260040161049690611653565b5f8681526003602090815260408083206001600160a01b0389168452825280832089845260029092529091208154610c8a9085611372565b82556001820154610c9b9084611372565b60018301558054610cac9084611372565b815560018101545f90610cbf90856113a3565b5f8a81526004602090815260408083206001600160a01b038c168452909152902054909150610cee90866113fb565b5f8a81526004602090815260408083206001600160a01b03808d168552908352818420949094559289168252600690522054610d2a90826113fb565b6001600160a01b0387165f90815260066020526040902055600854610d4f90826113fb565b600855505050505050505050565b335f90815260208190526040902054600114610d8b5760405162461bcd60e51b815260040161049690611653565b5f8381526004602090815260408083206001600160a01b0386168452909152902054610db79082611372565b5f9384526004602090815260408086206001600160a01b039095168652939052919092205550565b5f8581526003602090815260408083206001600160a01b0388811685529083528184209087168452818420898552600290935292208254610e2090866113fb565b83556001830154610e3190856113fb565b60018401558154610e429086611372565b82556001820154610e539085611372565b82600101819055505f610e6e846001015483600101546113d4565b90505f610e83846001015484600101546113d4565b9050610ea0610e928a3361131b565b610e9c8a3361131b565b1690565b610ebc5760405162461bcd60e51b8152600401610496906116a5565b610ecd855f015484600201546113d4565b821115610f0f5760405162461bcd60e51b815260206004820152601060248201526f5661742f6e6f742d736166652d73726360801b6044820152606401610496565b610f20845f015484600201546113d4565b811115610f625760405162461bcd60e51b815260206004820152601060248201526f15985d0bdb9bdd0b5cd859994b591cdd60821b6044820152606401610496565b60048301546001860154159083101517610fad5760405162461bcd60e51b815260206004820152600c60248201526b5661742f647573742d73726360a01b6044820152606401610496565b60048301546001850154159082101517610ff85760405162461bcd60e51b815260206004820152600c60248201526b15985d0bd91d5cdd0b591cdd60a21b6044820152606401610496565b50505050505050505050565b335f908152602081905260409020546001146110325760405162461bcd60e51b815260040161049690611653565b600a546001146110545760405162461bcd60e51b81526004016104969061167f565b6001600160a01b03165f90815260208190526040812055565b335f9081526020819052604090205460011461109b5760405162461bcd60e51b815260040161049690611653565b600a546001146110bd5760405162461bcd60e51b81526004016104969061167f565b5f83815260026020526040902060018101546110d99083611372565b600182015580545f906110ec90846113a3565b6001600160a01b0385165f908152600560205260409020549091506111119082611372565b6001600160a01b0385165f908152600560205260409020556007546111369082611372565b6007555050505050565b61114a833361131b565b6111665760405162461bcd60e51b8152600401610496906116a5565b6001600160a01b0383165f908152600560205260409020546111889082611354565b6001600160a01b038085165f9081526005602052604080822093909355908416815220546111b69082611363565b6001600160a01b039092165f908152600560205260409020919091555050565b335f908152602081905260409020546001146112045760405162461bcd60e51b815260040161049690611653565b6001600160a01b0383165f908152600660205260409020546112269082611363565b6001600160a01b038085165f9081526006602090815260408083209490945591851681526005909152205461125b9082611363565b6001600160a01b0383165f908152600560205260409020556008546112809082611363565b6008556007546112909082611363565b600755505050565b335f818152600660205260409020546112b19083611354565b6001600160a01b0382165f908152600660209081526040808320939093556005905220546112df9083611354565b6001600160a01b0382165f908152600560205260409020556008546113049083611354565b6008556007546113149083611354565b6007555050565b6001600160a01b038281165f81815260016020818152604080842095871680855295909152822054919391149114175b90505b92915050565b8082038281111561134e575f5ffd5b8082018281101561134e575f5ffd5b8181015f821215806113845750828111155b61138c575f5ffd5b5f8213158061139b5750828110155b61134e575f5ffd5b8181025f8312156113b2575f5ffd5b81158061139b5750828282816113ca576113ca6116ce565b051461134e575f5ffd5b5f81158061139b575050808202828282816113f1576113f16116ce565b041461134e575f5ffd5b8082035f8213158061140d5750828111155b611415575f5ffd5b5f8212158061139b57508281101561134e575f5ffd5b5f5f5f6060848603121561143d575f5ffd5b505081359360208301359350604090920135919050565b80356001600160a01b038116811461146a575f5ffd5b919050565b5f5f60408385031215611480575f5ffd5b8235915061149060208401611454565b90509250929050565b5f5f604083850312156114aa575f5ffd5b50508035926020909101359150565b5f602082840312156114c9575f5ffd5b5035919050565b5f5f604083850312156114e1575f5ffd5b6114ea83611454565b915061149060208401611454565b5f5f5f5f6080858703121561150b575f5ffd5b8435935061151b60208601611454565b925061152960408601611454565b9396929550929360600135925050565b5f60208284031215611549575f5ffd5b61134b82611454565b5f5f5f5f5f5f60c08789031215611567575f5ffd5b8635955061157760208801611454565b945061158560408801611454565b935061159360608801611454565b9598949750929560808101359460a0909101359350915050565b5f5f5f606084860312156115bf575f5ffd5b833592506115cf60208501611454565b929592945050506040919091013590565b5f5f5f5f5f60a086880312156115f4575f5ffd5b8535945061160460208701611454565b935061161260408701611454565b94979396509394606081013594506080013592915050565b5f5f5f6060848603121561163c575f5ffd5b61164584611454565b92506115cf60208501611454565b60208082526012908201527115985d0bdb9bdd0b585d5d1a1bdc9a5e995960721b604082015260600190565b6020808252600c908201526b5661742f6e6f742d6c69766560a01b604082015260600190565b6020808252600f908201526e15985d0bdb9bdd0b585b1b1bddd959608a1b604082015260600190565b634e487b7160e01b5f52601260045260245ffdfea26469706673582212209ef884ad1f3e691c19d3c77091d9ce62dac2b1f5ef98398318760bcb2dac13d264736f6c634300081e0033","linkReferences":{}},"methodIdentifiers":{"Line()":"babe8a3f","cage()":"69245009","can(address,address)":"4538c4eb","dai(address)":"6c25b346","debt()":"0dca59c1","deny(address)":"9c52a7f1","file(bytes32,bytes32,uint256)":"1a0b287e","file(bytes32,uint256)":"29ae8114","flux(bytes32,address,address,uint256)":"6111be2e","fold(bytes32,address,int256)":"b65337df","fork(bytes32,address,address,int256,int256)":"870c616d","frob(bytes32,address,address,address,int256,int256)":"76088703","gem(bytes32,address)":"214414d5","grab(bytes32,address,address,address,int256,int256)":"7bab3f40","heal(uint256)":"f37ac61c","hope(address)":"a3b22fc4","ilks(bytes32)":"d9638d36","init(bytes32)":"3b663195","live()":"957aa58c","move(address,address,uint256)":"bb35783b","nope(address)":"dc4d20fa","rely(address)":"65fae35e","sin(address)":"f059212a","slip(bytes32,address,int256)":"7cdd3fde","suck(address,address,uint256)":"f24e23eb","urns(bytes32,address)":"2424be5c","vice()":"2d61a355","wards(address)":"bf353dbb"},"id":694}