{"abi":[{"type":"function","name":"facetFuncs","inputs":[],"outputs":[{"name":"funcs","type":"bytes4[]","internalType":"bytes4[]"}],"stateMutability":"pure"},{"type":"function","name":"facetInterfaces","inputs":[],"outputs":[{"name":"interfaces","type":"bytes4[]","internalType":"bytes4[]"}],"stateMutability":"pure"},{"type":"function","name":"facetMetadata","inputs":[],"outputs":[{"name":"name","type":"string","internalType":"string"},{"name":"interfaces","type":"bytes4[]","internalType":"bytes4[]"},{"name":"functions","type":"bytes4[]","internalType":"bytes4[]"}],"stateMutability":"pure"},{"type":"function","name":"facetName","inputs":[],"outputs":[{"name":"name","type":"string","internalType":"string"}],"stateMutability":"pure"},{"type":"function","name":"supportsInterface","inputs":[{"name":"interfaceId","type":"bytes4","internalType":"bytes4"}],"outputs":[{"name":"isSupported","type":"bool","internalType":"bool"}],"stateMutability":"view"}],"bytecode":{"object":"0x6080604052348015600e575f5ffd5b506103878061001c5f395ff3fe608060405234801561000f575f5ffd5b5060043610610055575f3560e01c806301ffc9a7146100595780632ea8082614610081578063574a4cff146100965780635b6f4d011461009e578063f10d7a75146100b3575b5f5ffd5b61006c610067366004610237565b6100ca565b60405190151581526020015b60405180910390f35b6100896100da565b60405161007891906102a9565b610089610132565b6100a661016e565b60405161007891906102e9565b6100bb610193565b604051610078939291906102fb565b5f6100d4826101bb565b92915050565b604080516001808252818301909252606091602080830190803683370190505090506301ffc9a760e01b815f815181106101165761011661033d565b6001600160e01b03199092166020928302919091019091015290565b604080516001808252818301909252606091602080830190803683370190505090506301ffc9a760e01b815f815181106101165761011661033d565b60408051808201909152600b81526a115490cc4d8d519858d95d60aa1b602082015290565b60608060606101a061016e565b92506101aa6100da565b91506101b4610132565b9050909192565b5f6101c46101e6565b6001600160e01b03199092165f90815260209290925250604090205460ff1690565b5f610232604051602001610219906020808252600b908201526a6569702e6572632e31363560a81b604082015260600190565b6040516020818303038152906040528051906020012090565b905090565b5f60208284031215610247575f5ffd5b81356001600160e01b03198116811461025e575f5ffd5b9392505050565b5f8151808452602084019350602083015f5b8281101561029f5781516001600160e01b031916865260209586019590910190600101610277565b5093949350505050565b602081525f61025e6020830184610265565b5f81518084528060208401602086015e5f602082860101526020601f19601f83011685010191505092915050565b602081525f61025e60208301846102bb565b606081525f61030d60608301866102bb565b828103602084015261031f8186610265565b905082810360408401526103338185610265565b9695505050505050565b634e487b7160e01b5f52603260045260245ffdfea2646970667358221220e6bf8abc67bf06de46e007076ba3bb5d512ddd8182dbef886db61e7966ce426764736f6c634300081e0033","linkReferences":{}},"methodIdentifiers":{"facetFuncs()":"574a4cff","facetInterfaces()":"2ea80826","facetMetadata()":"f10d7a75","facetName()":"5b6f4d01","supportsInterface(bytes4)":"01ffc9a7"},"id":657}