{"abi":[{"type":"constructor","inputs":[{"name":"pkgInit","type":"tuple","internalType":"struct IERC20MintBurnOwnableOperableDFPkg.PkgInit","components":[{"name":"erc20Facet","type":"address","internalType":"contract IFacet"},{"name":"erc5267Facet","type":"address","internalType":"contract IFacet"},{"name":"erc2612Facet","type":"address","internalType":"contract IFacet"},{"name":"erc20MintBurnOwnableFacet","type":"address","internalType":"contract IFacet"},{"name":"mutiStepOwnableFacet","type":"address","internalType":"contract IFacet"},{"name":"operableFacet","type":"address","internalType":"contract IFacet"},{"name":"diamondFactory","type":"address","internalType":"contract IDiamondPackageCallBackFactory"}]}],"stateMutability":"nonpayable"},{"type":"function","name":"calcSalt","inputs":[{"name":"pkgArgs","type":"bytes","internalType":"bytes"}],"outputs":[{"name":"salt","type":"bytes32","internalType":"bytes32"}],"stateMutability":"pure"},{"type":"function","name":"deployToken","inputs":[{"name":"name","type":"string","internalType":"string"},{"name":"symbol","type":"string","internalType":"string"},{"name":"decimals","type":"uint8","internalType":"uint8"},{"name":"owner","type":"address","internalType":"address"},{"name":"optionalSalt","type":"bytes32","internalType":"bytes32"}],"outputs":[{"name":"tokenAddress","type":"address","internalType":"address"}],"stateMutability":"nonpayable"},{"type":"function","name":"diamondConfig","inputs":[],"outputs":[{"name":"config","type":"tuple","internalType":"struct IDiamondFactoryPackage.DiamondConfig","components":[{"name":"facetCuts","type":"tuple[]","internalType":"struct IDiamond.FacetCut[]","components":[{"name":"facetAddress","type":"address","internalType":"address"},{"name":"action","type":"uint8","internalType":"enum IDiamond.FacetCutAction"},{"name":"functionSelectors","type":"bytes4[]","internalType":"bytes4[]"}]},{"name":"interfaces","type":"bytes4[]","internalType":"bytes4[]"}]}],"stateMutability":"view"},{"type":"function","name":"facetAddresses","inputs":[],"outputs":[{"name":"facetAddresses_","type":"address[]","internalType":"address[]"}],"stateMutability":"view"},{"type":"function","name":"facetCuts","inputs":[],"outputs":[{"name":"facetCuts_","type":"tuple[]","internalType":"struct IDiamond.FacetCut[]","components":[{"name":"facetAddress","type":"address","internalType":"address"},{"name":"action","type":"uint8","internalType":"enum IDiamond.FacetCutAction"},{"name":"functionSelectors","type":"bytes4[]","internalType":"bytes4[]"}]}],"stateMutability":"view"},{"type":"function","name":"facetInterfaces","inputs":[],"outputs":[{"name":"interfaces","type":"bytes4[]","internalType":"bytes4[]"}],"stateMutability":"pure"},{"type":"function","name":"initAccount","inputs":[{"name":"initArgs","type":"bytes","internalType":"bytes"}],"outputs":[],"stateMutability":"nonpayable"},{"type":"function","name":"packageMetadata","inputs":[],"outputs":[{"name":"name_","type":"string","internalType":"string"},{"name":"interfaces","type":"bytes4[]","internalType":"bytes4[]"},{"name":"facets","type":"address[]","internalType":"address[]"}],"stateMutability":"view"},{"type":"function","name":"packageName","inputs":[],"outputs":[{"name":"name_","type":"string","internalType":"string"}],"stateMutability":"pure"},{"type":"function","name":"postDeploy","inputs":[{"name":"","type":"address","internalType":"address"}],"outputs":[{"name":"","type":"bool","internalType":"bool"}],"stateMutability":"nonpayable"},{"type":"function","name":"processArgs","inputs":[{"name":"pkgArgs","type":"bytes","internalType":"bytes"}],"outputs":[{"name":"processedPkgArgs","type":"bytes","internalType":"bytes"}],"stateMutability":"pure"},{"type":"function","name":"updatePkg","inputs":[{"name":"","type":"address","internalType":"address"},{"name":"","type":"bytes","internalType":"bytes"}],"outputs":[{"name":"","type":"bool","internalType":"bool"}],"stateMutability":"nonpayable"},{"type":"error","name":"StringTooLong","inputs":[{"name":"str","type":"string","internalType":"string"}]}],"bytecode":{"object":"0x610160604052348015610010575f5ffd5b50604051611bc8380380611bc883398101604081905261002f9161009f565b80516001600160a01b0390811660809081526020830151821660a09081526040840151831660c0908152606085015184166101205291840151831660e05283015182166101005290910151166101405261015a565b80516001600160a01b038116811461009a575f5ffd5b919050565b5f60e08284031280156100b0575f5ffd5b5060405160e081016001600160401b03811182821017156100df57634e487b7160e01b5f52604160045260245ffd5b6040526100eb83610084565b81526100f960208401610084565b602082015261010a60408401610084565b604082015261011b60608401610084565b606082015261012c60808401610084565b608082015261013d60a08401610084565b60a082015261014e60c08401610084565b60c08201529392505050565b60805160a05160c05160e0516101005161012051610140516119c96101ff5f395f61069b01525f81816104f801528181610aa30152610ae901525f81816105a001528181610c8b0152610cd101525f818161054c01528181610b970152610bdd01525f81816104a4015281816109af01526109f501525f8181610450015281816108bb015261090101525f81816103fd015281816107dd015261080e01526119c95ff3fe608060405234801561000f575f5ffd5b50600436106100a2575f3560e01c80632ea80826146100a657806352ef6b2c146100c457806365d375b3146100d957806370068fcf146100ee578063870d48381461011257806387c3adb31461012757806388b79b4014610145578063a4b3ad3514610170578063a908923514610185578063abc8b34614610198578063d82be56e146101a0578063f45469e7146101c1575b5f5ffd5b6100ae6101d8565b6040516100bb91906110db565b60405180910390f35b6100cc6103d8565b6040516100bb919061112d565b6100e16105f5565b6040516100bb9190611153565b6101026100fc36600461123c565b50600190565b60405190151581526020016100bb565b61012561012036600461133d565b610630565b005b61013861013536600461133d565b90565b6040516100bb91906113a4565b6101586101533660046113c4565b610698565b6040516001600160a01b0390911681526020016100bb565b610178610782565b6040516100bb9190611452565b6101026101933660046114fd565b610d75565b610138610d7e565b6101b36101ae36600461133d565b610d9e565b6040519081526020016100bb565b6101c9610dcd565b6040516100bb93929190611549565b604080516008808252610120820190925260609160208201610100803683370190505090506336372b0760e01b815f8151811061021757610217611581565b60200260200101906001600160e01b03191690816001600160e01b0319168152505063a219a02560e01b8160018151811061025457610254611581565b6001600160e01b0319909216602092830291909101909101528051634a17459160e11b908290600290811061028b5761028b611581565b60200260200101906001600160e01b03191690816001600160e01b03191681525050634ec7fbed60e11b816003815181106102c8576102c8611581565b60200260200101906001600160e01b03191690816001600160e01b031916815250506342580cb760e11b8160048151811061030557610305611581565b60200260200101906001600160e01b03191690816001600160e01b0319168152505063dd0390b560e01b8160058151811061034257610342611581565b60200260200101906001600160e01b03191690816001600160e01b03191681525050631318341f60e21b8160068151811061037f5761037f611581565b60200260200101906001600160e01b03191690816001600160e01b0319168152505063053f888b60e51b816007815181106103bc576103bc611581565b6001600160e01b03199092166020928302919091019091015290565b60408051600680825260e082019092526060916020820160c0803683370190505090507f0000000000000000000000000000000000000000000000000000000000000000815f8151811061042e5761042e611581565b60200260200101906001600160a01b031690816001600160a01b0316815250507f00000000000000000000000000000000000000000000000000000000000000008160018151811061048257610482611581565b60200260200101906001600160a01b031690816001600160a01b0316815250507f0000000000000000000000000000000000000000000000000000000000000000816002815181106104d6576104d6611581565b60200260200101906001600160a01b031690816001600160a01b0316815250507f00000000000000000000000000000000000000000000000000000000000000008160038151811061052a5761052a611581565b60200260200101906001600160a01b031690816001600160a01b0316815250507f00000000000000000000000000000000000000000000000000000000000000008160048151811061057e5761057e611581565b60200260200101906001600160a01b031690816001600160a01b0316815250507f0000000000000000000000000000000000000000000000000000000000000000816005815181106105d2576105d2611581565b60200260200101906001600160a01b031690816001600160a01b03168152505090565b6040805180820190915260608082526020820152604051806040016040528061061c610782565b81526020016106296101d8565b9052919050565b5f8180602001905181019061064591906115e2565b905061065d815f015182602001518360400151610df5565b610683815f0151604051806040016040528060018152602001603160f81b815250610e0d565b610694816060015162015180610e1f565b5050565b5f7f00000000000000000000000000000000000000000000000000000000000000006001600160a01b031663e97fac05306040518060a001604052808a81526020018981526020018860ff168152602001876001600160a01b031681526020018681525060405160200161070c91906116a8565b6040516020818303038152906040526040518363ffffffff1660e01b8152600401610738929190611716565b6020604051808303815f875af1158015610754573d5f5f3e3d5ffd5b505050506040513d601f19601f820116820180604052508101906107789190611739565b9695505050505050565b60408051600680825260e08201909252606091816020015b60408051606080820183525f80835260208301529181019190915281526020019060019003908161079a5790505060408051606081019091526001600160a01b037f0000000000000000000000000000000000000000000000000000000000000000168152909150602081015f81526020017f00000000000000000000000000000000000000000000000000000000000000006001600160a01b031663574a4cff6040518163ffffffff1660e01b81526004015f60405180830381865afa158015610867573d5f5f3e3d5ffd5b505050506040513d5f823e601f3d908101601f1916820160405261088e9190810190611754565b815250815f815181106108a3576108a3611581565b602002602001018190525060405180606001604052807f00000000000000000000000000000000000000000000000000000000000000006001600160a01b031681526020015f60028111156108fa576108fa61113f565b81526020017f00000000000000000000000000000000000000000000000000000000000000006001600160a01b031663574a4cff6040518163ffffffff1660e01b81526004015f60405180830381865afa15801561095a573d5f5f3e3d5ffd5b505050506040513d5f823e601f3d908101601f191682016040526109819190810190611754565b8152508160018151811061099757610997611581565b602002602001018190525060405180606001604052807f00000000000000000000000000000000000000000000000000000000000000006001600160a01b031681526020015f60028111156109ee576109ee61113f565b81526020017f00000000000000000000000000000000000000000000000000000000000000006001600160a01b031663574a4cff6040518163ffffffff1660e01b81526004015f60405180830381865afa158015610a4e573d5f5f3e3d5ffd5b505050506040513d5f823e601f3d908101601f19168201604052610a759190810190611754565b81525081600281518110610a8b57610a8b611581565b602002602001018190525060405180606001604052807f00000000000000000000000000000000000000000000000000000000000000006001600160a01b031681526020015f6002811115610ae257610ae261113f565b81526020017f00000000000000000000000000000000000000000000000000000000000000006001600160a01b031663574a4cff6040518163ffffffff1660e01b81526004015f60405180830381865afa158015610b42573d5f5f3e3d5ffd5b505050506040513d5f823e601f3d908101601f19168201604052610b699190810190611754565b81525081600381518110610b7f57610b7f611581565b602002602001018190525060405180606001604052807f00000000000000000000000000000000000000000000000000000000000000006001600160a01b031681526020015f6002811115610bd657610bd661113f565b81526020017f00000000000000000000000000000000000000000000000000000000000000006001600160a01b031663574a4cff6040518163ffffffff1660e01b81526004015f60405180830381865afa158015610c36573d5f5f3e3d5ffd5b505050506040513d5f823e601f3d908101601f19168201604052610c5d9190810190611754565b81525081600481518110610c7357610c73611581565b602002602001018190525060405180606001604052807f00000000000000000000000000000000000000000000000000000000000000006001600160a01b031681526020015f6002811115610cca57610cca61113f565b81526020017f00000000000000000000000000000000000000000000000000000000000000006001600160a01b031663574a4cff6040518163ffffffff1660e01b81526004015f60405180830381865afa158015610d2a573d5f5f3e3d5ffd5b505050506040513d5f823e601f3d908101601f19168201604052610d519190810190611754565b81525081600581518110610d6757610d67611581565b602002602001018190525090565b60015b92915050565b606060405180606001604052602181528060200161197360219139905090565b5f81604051602001610db091906113a4565b604051602081830303815290604052805190602001209050919050565b6060806060610dda610d7e565b9250610de46101d8565b9150610dee6103d8565b9050909192565b610e08610e00610e64565b848484610eb4565b505050565b610694610e18610eeb565b8383610f1e565b6106947f552e522d4f9b6a3d443b47299f900b7b1bce2dacca532b0186b605495413451d80546001600160a01b0319166001600160a01b038516178155600201829055565b5f610eaf604051602001610e96906020808252600a908201526906569702e6572632e32360b41b604082015260600190565b6040516020818303038152906040528051906020012090565b905090565b83610ebf8482611895565b5060018401610ece8382611895565b50600293909301805460ff191660ff909416939093179092555050565b5f610eaf604051602001610e96906020808252600b908201526a32b4b81732b4b8171b989960a91b604082015260600190565b610f2b8260078501610f85565b6005840155610f3d8160088501610f85565b6006840155815160208084019190912060038501558151908201206004840155466001840155610f6c83610fe2565b8355505060020180546001600160a01b03191630179055565b5f602083511015610fa057610f9983611051565b9050610d78565b825160018160011b178355825f5260205f20602085015f5b83811015610fd45781810151600582901c840155602001610fb8565b5060ff9350610d7892505050565b60038101546004820154604080517f8b73c3c69bb8fe3d512ecc4cf759cc79239f7b179b0ffacaa9a75d522b39400f60208201529081019290925260608201524660808201523060a08201525f90610d789060c001604051602081830303815290604052805160209091012090565b5f5f829050601f81511115611084578260405163305a27a960e01b815260040161107b91906113a4565b60405180910390fd5b805161108f8261194f565b179392505050565b5f8151808452602084019350602083015f5b828110156110d15781516001600160e01b0319168652602095860195909101906001016110a9565b5093949350505050565b602081525f6110ed6020830184611097565b9392505050565b5f8151808452602084019350602083015f5b828110156110d15781516001600160a01b0316865260209586019590910190600101611106565b602081525f6110ed60208301846110f4565b634e487b7160e01b5f52602160045260245ffd5b602081525f6060820183516040602085015281815180845260808601915060808160051b87010193506020830192505f5b818110156111fd57868503607f19018352835180516001600160a01b031686526020810151600381106111c557634e487b7160e01b5f52602160045260245ffd5b8060208801525060408101519050606060408701526111e76060870182611097565b9550506020938401939290920191600101611184565b505050506020840151838203601f1901604085015261121c8282611097565b95945050505050565b6001600160a01b0381168114611239575f5ffd5b50565b5f6020828403121561124c575f5ffd5b81356110ed81611225565b634e487b7160e01b5f52604160045260245ffd5b60405160a081016001600160401b038111828210171561128d5761128d611257565b60405290565b604051601f8201601f191681016001600160401b03811182821017156112bb576112bb611257565b604052919050565b5f6001600160401b038211156112db576112db611257565b50601f01601f191660200190565b5f82601f8301126112f8575f5ffd5b8135602083015f61131061130b846112c3565b611293565b9050828152858383011115611323575f5ffd5b828260208301375f92810160200192909252509392505050565b5f6020828403121561134d575f5ffd5b81356001600160401b03811115611362575f5ffd5b61136e848285016112e9565b949350505050565b5f81518084528060208401602086015e5f602082860101526020601f19601f83011685010191505092915050565b602081525f6110ed6020830184611376565b60ff81168114611239575f5ffd5b5f5f5f5f5f60a086880312156113d8575f5ffd5b85356001600160401b038111156113ed575f5ffd5b6113f9888289016112e9565b95505060208601356001600160401b03811115611414575f5ffd5b611420888289016112e9565b9450506040860135611431816113b6565b9250606086013561144181611225565b949793965091946080013592915050565b5f602082016020835280845180835260408501915060408160051b8601019250602086015f5b828110156114f157868503603f19018452815180516001600160a01b031686526020810151600381106114b957634e487b7160e01b5f52602160045260245ffd5b8060208801525060408101519050606060408701526114db6060870182611097565b9550506020938401939190910190600101611478565b50929695505050505050565b5f5f6040838503121561150e575f5ffd5b823561151981611225565b915060208301356001600160401b03811115611533575f5ffd5b61153f858286016112e9565b9150509250929050565b606081525f61155b6060830186611376565b828103602084015261156d8186611097565b9050828103604084015261077881856110f4565b634e487b7160e01b5f52603260045260245ffd5b5f82601f8301126115a4575f5ffd5b81516115b261130b826112c3565b8181528460208386010111156115c6575f5ffd5b8160208501602083015e5f918101602001919091529392505050565b5f602082840312156115f2575f5ffd5b81516001600160401b03811115611607575f5ffd5b820160a08185031215611618575f5ffd5b61162061126b565b81516001600160401b03811115611635575f5ffd5b61164186828501611595565b82525060208201516001600160401b0381111561165c575f5ffd5b61166886828501611595565b602083015250604082015161167c816113b6565b6040820152606082015161168f81611225565b6060820152608091820151918101919091529392505050565b602081525f825160a060208401526116c360c0840182611376565b90506020840151601f198483030160408501526116e08282611376565b91505060ff604085015116606084015260018060a01b036060850151166080840152608084015160a08401528091505092915050565b6001600160a01b03831681526040602082018190525f9061136e90830184611376565b5f60208284031215611749575f5ffd5b81516110ed81611225565b5f60208284031215611764575f5ffd5b81516001600160401b03811115611779575f5ffd5b8201601f81018413611789575f5ffd5b80516001600160401b038111156117a2576117a2611257565b8060051b6117b260208201611293565b918252602081840181019290810190878411156117cd575f5ffd5b6020850194505b8385101561180757845192506001600160e01b0319831683146117f5575f5ffd5b828252602094850194909101906117d4565b979650505050505050565b600181811c9082168061182657607f821691505b60208210810361184457634e487b7160e01b5f52602260045260245ffd5b50919050565b601f821115610e0857805f5260205f20601f840160051c8101602085101561186f5750805b601f840160051c820191505b8181101561188e575f815560010161187b565b5050505050565b81516001600160401b038111156118ae576118ae611257565b6118c2816118bc8454611812565b8461184a565b6020601f8211600181146118f4575f83156118dd5750848201515b5f19600385901b1c1916600184901b17845561188e565b5f84815260208120601f198516915b828110156119235787850151825560209485019460019092019101611903565b508482101561194057868401515f19600387901b60f8161c191681555b50505050600190811b01905550565b80516020808301519190811015611844575f1960209190910360031b1b1691905056fe45524332304d696e744275726e4f776e61626c654f70657261626c654446506b67a2646970667358221220f2fc8289f5cd5b2103fc5735632649ad866aad58b481ff2d6636bd441d9456a564736f6c634300081e0033","linkReferences":{}},"methodIdentifiers":{"calcSalt(bytes)":"d82be56e","deployToken(string,string,uint8,address,bytes32)":"88b79b40","diamondConfig()":"65d375b3","facetAddresses()":"52ef6b2c","facetCuts()":"a4b3ad35","facetInterfaces()":"2ea80826","initAccount(bytes)":"870d4838","packageMetadata()":"f45469e7","packageName()":"abc8b346","postDeploy(address)":"70068fcf","processArgs(bytes)":"87c3adb3","updatePkg(address,bytes)":"a9089235"},"id":1312}