{"abi":[{"type":"function","name":"writeMessage","inputs":[{"name":"greeter_","type":"address","internalType":"address"},{"name":"message_","type":"string","internalType":"string"}],"outputs":[],"stateMutability":"nonpayable"},{"type":"function","name":"writeMessages","inputs":[{"name":"greeter_","type":"address","internalType":"address"},{"name":"messages_","type":"string[]","internalType":"string[]"}],"outputs":[],"stateMutability":"nonpayable"}],"bytecode":{"object":"0x6080604052348015600e575f5ffd5b5061052f8061001c5f395ff3fe608060405234801561000f575f5ffd5b5060043610610034575f3560e01c80635bffdd6b14610038578063c16f12221461004d575b5f5ffd5b61004b6100463660046102ff565b610060565b005b61004b61005b3660046103db565b6101c9565b816001600160a01b031663368b8772825f8151811061008157610081610425565b60200260200101516040518263ffffffff1660e01b81526004016100a59190610439565b6020604051808303815f875af11580156100c1573d5f5f3e3d5ffd5b505050506040513d601f19601f820116820180604052508101906100e5919061046e565b5060015b81518110156101c4576001600160a01b03831663368b87728361010d600185610494565b8151811061011d5761011d610425565b602002602001015184848151811061013757610137610425565b60200260200101516040516020016101509291906104d0565b6040516020818303038152906040526040518263ffffffff1660e01b815260040161017b9190610439565b6020604051808303815f875af1158015610197573d5f5f3e3d5ffd5b505050506040513d601f19601f820116820180604052508101906101bb919061046e565b506001016100e9565b505050565b604051631b45c3b960e11b81526001600160a01b0383169063368b8772906101f5908490600401610439565b6020604051808303815f875af1158015610211573d5f5f3e3d5ffd5b505050506040513d601f19601f820116820180604052508101906101c4919061046e565b80356001600160a01b038116811461024b575f5ffd5b919050565b634e487b7160e01b5f52604160045260245ffd5b604051601f8201601f191681016001600160401b038111828210171561028c5761028c610250565b604052919050565b5f82601f8301126102a3575f5ffd5b81356001600160401b038111156102bc576102bc610250565b6102cf601f8201601f1916602001610264565b8181528460208386010111156102e3575f5ffd5b816020850160208301375f918101602001919091529392505050565b5f5f60408385031215610310575f5ffd5b61031983610235565b915060208301356001600160401b03811115610333575f5ffd5b8301601f81018513610343575f5ffd5b80356001600160401b0381111561035c5761035c610250565b8060051b61036c60208201610264565b91825260208184018101929081019088841115610387575f5ffd5b6020850192505b838310156103cc5782356001600160401b038111156103ab575f5ffd5b6103ba8a602083890101610294565b8352506020928301929091019061038e565b80955050505050509250929050565b5f5f604083850312156103ec575f5ffd5b6103f583610235565b915060208301356001600160401b0381111561040f575f5ffd5b61041b85828601610294565b9150509250929050565b634e487b7160e01b5f52603260045260245ffd5b602081525f82518060208401528060208501604085015e5f604082850101526040601f19601f83011684010191505092915050565b5f6020828403121561047e575f5ffd5b8151801515811461048d575f5ffd5b9392505050565b818103818111156104b357634e487b7160e01b5f52601160045260245ffd5b92915050565b5f81518060208401855e5f93019283525090919050565b5f6104db82856104b9565b6117b760f11b81526104f060028201856104b9565b9594505050505056fea26469706673582212205909929568bf42597e07dede15f613b802b04b6e99202b0563244d0b441c483c64736f6c634300081e0033","linkReferences":{}},"methodIdentifiers":{"writeMessage(address,string)":"c16f1222","writeMessages(address,string[])":"5bffdd6b"},"id":1302}