{"abi":[{"type":"function","name":"allowance","inputs":[{"name":"","type":"address","internalType":"address"},{"name":"","type":"address","internalType":"address"}],"outputs":[{"name":"","type":"uint256","internalType":"uint256"}],"stateMutability":"view"},{"type":"function","name":"approve","inputs":[{"name":"spender","type":"address","internalType":"address"},{"name":"amount","type":"uint256","internalType":"uint256"}],"outputs":[{"name":"","type":"bool","internalType":"bool"}],"stateMutability":"nonpayable"},{"type":"function","name":"balanceOf","inputs":[{"name":"","type":"address","internalType":"address"}],"outputs":[{"name":"","type":"uint256","internalType":"uint256"}],"stateMutability":"view"},{"type":"function","name":"mint","inputs":[{"name":"to","type":"address","internalType":"address"},{"name":"amount","type":"uint256","internalType":"uint256"}],"outputs":[],"stateMutability":"nonpayable"},{"type":"function","name":"totalSupply","inputs":[],"outputs":[{"name":"","type":"uint256","internalType":"uint256"}],"stateMutability":"view"},{"type":"function","name":"transfer","inputs":[{"name":"to","type":"address","internalType":"address"},{"name":"amount","type":"uint256","internalType":"uint256"}],"outputs":[{"name":"","type":"bool","internalType":"bool"}],"stateMutability":"nonpayable"},{"type":"function","name":"transferFrom","inputs":[{"name":"from","type":"address","internalType":"address"},{"name":"to","type":"address","internalType":"address"},{"name":"amount","type":"uint256","internalType":"uint256"}],"outputs":[{"name":"","type":"bool","internalType":"bool"}],"stateMutability":"nonpayable"},{"type":"event","name":"Approval","inputs":[{"name":"owner","type":"address","indexed":true,"internalType":"address"},{"name":"spender","type":"address","indexed":true,"internalType":"address"},{"name":"value","type":"uint256","indexed":false,"internalType":"uint256"}],"anonymous":false},{"type":"event","name":"Transfer","inputs":[{"name":"from","type":"address","indexed":true,"internalType":"address"},{"name":"to","type":"address","indexed":true,"internalType":"address"},{"name":"value","type":"uint256","indexed":false,"internalType":"uint256"}],"anonymous":false}],"bytecode":{"object":"0x6080604052348015600e575f5ffd5b506105c48061001c5f395ff3fe608060405234801561000f575f5ffd5b506004361061006b575f3560e01c8063095ea7b31461006f57806318160ddd1461009757806323b872dd146100ad57806340c10f19146100c057806370a08231146100d5578063a9059cbb146100f4578063dd62ed3e14610107575b5f5ffd5b61008261007d366004610453565b610131565b60405190151581526020015b60405180910390f35b61009f5f5481565b60405190815260200161008e565b6100826100bb36600461047b565b61019d565b6100d36100ce366004610453565b61031d565b005b61009f6100e33660046104b5565b60016020525f908152604090205481565b610082610102366004610453565b610391565b61009f6101153660046104d5565b600260209081525f928352604080842090915290825290205481565b335f8181526002602090815260408083206001600160a01b038716808552925280832085905551919290917f8c5be1e5ebec7d5bd14f71427d1e84f3dd0314c0f7b2291e5b200ac8c7c3b9259061018b9086815260200190565b60405180910390a35060015b92915050565b6001600160a01b0383165f908152600160205260408120548211156101dd5760405162461bcd60e51b81526004016101d490610506565b60405180910390fd5b6001600160a01b0384165f9081526002602090815260408083203384529091529020548211156102485760405162461bcd60e51b8152602060048201526016602482015275496e73756666696369656e7420616c6c6f77616e636560501b60448201526064016101d4565b6001600160a01b0384165f9081526002602090815260408083203384529091528120805484929061027a908490610548565b90915550506001600160a01b0384165f90815260016020526040812080548492906102a6908490610548565b90915550506001600160a01b0383165f90815260016020526040812080548492906102d290849061055b565b92505081905550826001600160a01b0316846001600160a01b03165f51602061056f5f395f51905f528460405161030b91815260200190565b60405180910390a35060019392505050565b6001600160a01b0382165f908152600160205260408120805483929061034490849061055b565b92505081905550805f5f82825461035b919061055b565b90915550506040518181526001600160a01b038316905f905f51602061056f5f395f51905f529060200160405180910390a35050565b335f908152600160205260408120548211156103bf5760405162461bcd60e51b81526004016101d490610506565b335f90815260016020526040812080548492906103dd908490610548565b90915550506001600160a01b0383165f908152600160205260408120805484929061040990849061055b565b90915550506040518281526001600160a01b0384169033905f51602061056f5f395f51905f529060200161018b565b80356001600160a01b038116811461044e575f5ffd5b919050565b5f5f60408385031215610464575f5ffd5b61046d83610438565b946020939093013593505050565b5f5f5f6060848603121561048d575f5ffd5b61049684610438565b92506104a460208501610438565b929592945050506040919091013590565b5f602082840312156104c5575f5ffd5b6104ce82610438565b9392505050565b5f5f604083850312156104e6575f5ffd5b6104ef83610438565b91506104fd60208401610438565b90509250929050565b602080825260149082015273496e73756666696369656e742062616c616e636560601b604082015260600190565b634e487b7160e01b5f52601160045260245ffd5b8181038181111561019757610197610534565b808201808211156101975761019761053456feddf252ad1be2c89b69c2b068fc378daa952ba7f163c4a11628f55a4df523b3efa26469706673582212203919ebfe82721e5d8bb570dfbe0671d2de7e509146d5b0528c13412fee73026964736f6c634300081e0033","linkReferences":{}},"methodIdentifiers":{"allowance(address,address)":"dd62ed3e","approve(address,uint256)":"095ea7b3","balanceOf(address)":"70a08231","mint(address,uint256)":"40c10f19","totalSupply()":"18160ddd","transfer(address,uint256)":"a9059cbb","transferFrom(address,address,uint256)":"23b872dd"},"id":1294}