{"abi":[{"type":"function","name":"allowance","inputs":[{"name":"","type":"address","internalType":"address"},{"name":"","type":"address","internalType":"address"}],"outputs":[{"name":"","type":"uint256","internalType":"uint256"}],"stateMutability":"view"},{"type":"function","name":"approve","inputs":[{"name":"spender","type":"address","internalType":"address"},{"name":"amount","type":"uint256","internalType":"uint256"}],"outputs":[{"name":"","type":"bool","internalType":"bool"}],"stateMutability":"nonpayable"},{"type":"function","name":"balanceOf","inputs":[{"name":"","type":"address","internalType":"address"}],"outputs":[{"name":"","type":"uint256","internalType":"uint256"}],"stateMutability":"view"},{"type":"function","name":"decimals","inputs":[],"outputs":[{"name":"","type":"uint8","internalType":"uint8"}],"stateMutability":"view"},{"type":"function","name":"mint","inputs":[{"name":"to","type":"address","internalType":"address"},{"name":"amount","type":"uint256","internalType":"uint256"}],"outputs":[],"stateMutability":"nonpayable"},{"type":"function","name":"name","inputs":[],"outputs":[{"name":"","type":"string","internalType":"string"}],"stateMutability":"view"},{"type":"function","name":"setShouldRevert","inputs":[{"name":"_shouldRevert","type":"bool","internalType":"bool"}],"outputs":[],"stateMutability":"nonpayable"},{"type":"function","name":"shouldRevert","inputs":[],"outputs":[{"name":"","type":"bool","internalType":"bool"}],"stateMutability":"view"},{"type":"function","name":"symbol","inputs":[],"outputs":[{"name":"","type":"string","internalType":"string"}],"stateMutability":"view"},{"type":"function","name":"totalSupply","inputs":[],"outputs":[{"name":"","type":"uint256","internalType":"uint256"}],"stateMutability":"view"},{"type":"function","name":"transfer","inputs":[{"name":"to","type":"address","internalType":"address"},{"name":"amount","type":"uint256","internalType":"uint256"}],"outputs":[{"name":"","type":"bool","internalType":"bool"}],"stateMutability":"nonpayable"},{"type":"function","name":"transferFrom","inputs":[{"name":"from","type":"address","internalType":"address"},{"name":"to","type":"address","internalType":"address"},{"name":"amount","type":"uint256","internalType":"uint256"}],"outputs":[{"name":"","type":"bool","internalType":"bool"}],"stateMutability":"nonpayable"},{"type":"event","name":"Approval","inputs":[{"name":"owner","type":"address","indexed":true,"internalType":"address"},{"name":"spender","type":"address","indexed":true,"internalType":"address"},{"name":"value","type":"uint256","indexed":false,"internalType":"uint256"}],"anonymous":false},{"type":"event","name":"Transfer","inputs":[{"name":"from","type":"address","indexed":true,"internalType":"address"},{"name":"to","type":"address","indexed":true,"internalType":"address"},{"name":"value","type":"uint256","indexed":false,"internalType":"uint256"}],"anonymous":false}],"bytecode":{"object":"0x60c0604052600f60809081526e2932bb32b93a34b733902a37b5b2b760891b60a0525f9061002d908261011b565b506040805180820190915260038152622922ab60e91b6020820152600190610055908261011b565b506002805460ff1990811660121790915560068054909116600117905534801561007d575f5ffd5b506101d5565b634e487b7160e01b5f52604160045260245ffd5b600181811c908216806100ab57607f821691505b6020821081036100c957634e487b7160e01b5f52602260045260245ffd5b50919050565b601f82111561011657805f5260205f20601f840160051c810160208510156100f45750805b601f840160051c820191505b81811015610113575f8155600101610100565b50505b505050565b81516001600160401b0381111561013457610134610083565b610148816101428454610097565b846100cf565b6020601f82116001811461017a575f83156101635750848201515b5f19600385901b1c1916600184901b178455610113565b5f84815260208120601f198516915b828110156101a95787850151825560209485019460019092019101610189565b50848210156101c657868401515f19600387901b60f8161c191681555b50505050600190811b01905550565b61076d806101e25f395ff3fe608060405234801561000f575f5ffd5b50600436106100a2575f3560e01c806306fdde03146100a6578063095ea7b3146100c457806318160ddd146100e757806323b872dd146100fe578063313ce5671461011157806340c10f19146101305780636813d7871461014557806370a082311461016657806395d89b4114610185578063a9059cbb1461018d578063d3072d82146101a0578063dd62ed3e146101ad575b5f5ffd5b6100ae6101d7565b6040516100bb9190610583565b60405180910390f35b6100d76100d23660046105d3565b610262565b60405190151581526020016100bb565b6100f060035481565b6040519081526020016100bb565b6100d761010c3660046105fb565b610317565b60025461011e9060ff1681565b60405160ff90911681526020016100bb565b61014361013e3660046105d3565b61043c565b005b610143610153366004610635565b6006805460ff1916911515919091179055565b6100f061017436600461065b565b60046020525f908152604090205481565b6100ae6104b1565b6100d761019b3660046105d3565b6104be565b6006546100d79060ff1681565b6100f06101bb366004610674565b600560209081525f928352604080842090915290825290205481565b5f80546101e3906106a5565b80601f016020809104026020016040519081016040528092919081815260200182805461020f906106a5565b801561025a5780601f106102315761010080835404028352916020019161025a565b820191905f5260205f20905b81548152906001019060200180831161023d57829003601f168201915b505050505081565b6006545f9060ff16156102b25760405162461bcd60e51b8152602060048201526013602482015272105c1c1c9bdd99481b9bdd08185b1b1bddd959606a1b60448201526064015b60405180910390fd5b335f8181526005602090815260408083206001600160a01b03881680855290835292819020869055518581529192917f8c5be1e5ebec7d5bd14f71427d1e84f3dd0314c0f7b2291e5b200ac8c7c3b92591015b60405180910390a35060015b92915050565b6006545f9060ff16156103675760405162461bcd60e51b8152602060048201526018602482015277151c985b9cd9995c919c9bdb481b9bdd08185b1b1bddd95960421b60448201526064016102a9565b6001600160a01b0384165f908152600560209081526040808320338452909152812080548492906103999084906106f1565b90915550506001600160a01b0384165f90815260046020526040812080548492906103c59084906106f1565b90915550506001600160a01b0383165f90815260046020526040812080548492906103f1908490610704565b92505081905550826001600160a01b0316846001600160a01b03165f5160206107185f395f51905f528460405161042a91815260200190565b60405180910390a35060019392505050565b6001600160a01b0382165f9081526004602052604081208054839290610463908490610704565b925050819055508060035f82825461047b9190610704565b90915550506040518181526001600160a01b038316905f905f5160206107185f395f51905f529060200160405180910390a35050565b600180546101e3906106a5565b6006545f9060ff161561050a5760405162461bcd60e51b8152602060048201526014602482015273151c985b9cd9995c881b9bdd08185b1b1bddd95960621b60448201526064016102a9565b335f90815260046020526040812080548492906105289084906106f1565b90915550506001600160a01b0383165f9081526004602052604081208054849290610554908490610704565b90915550506040518281526001600160a01b0384169033905f5160206107185f395f51905f5290602001610305565b602081525f82518060208401528060208501604085015e5f604082850101526040601f19601f83011684010191505092915050565b80356001600160a01b03811681146105ce575f5ffd5b919050565b5f5f604083850312156105e4575f5ffd5b6105ed836105b8565b946020939093013593505050565b5f5f5f6060848603121561060d575f5ffd5b610616846105b8565b9250610624602085016105b8565b929592945050506040919091013590565b5f60208284031215610645575f5ffd5b81358015158114610654575f5ffd5b9392505050565b5f6020828403121561066b575f5ffd5b610654826105b8565b5f5f60408385031215610685575f5ffd5b61068e836105b8565b915061069c602084016105b8565b90509250929050565b600181811c908216806106b957607f821691505b6020821081036106d757634e487b7160e01b5f52602260045260245ffd5b50919050565b634e487b7160e01b5f52601160045260245ffd5b81810381811115610311576103116106dd565b80820180821115610311576103116106dd56feddf252ad1be2c89b69c2b068fc378daa952ba7f163c4a11628f55a4df523b3efa26469706673582212206b4c6a14680bfd42d1c0958f11f7b2d582c1a9736a96978f8b33c4a45afd17bd64736f6c634300081e0033","linkReferences":{}},"methodIdentifiers":{"allowance(address,address)":"dd62ed3e","approve(address,uint256)":"095ea7b3","balanceOf(address)":"70a08231","decimals()":"313ce567","mint(address,uint256)":"40c10f19","name()":"06fdde03","setShouldRevert(bool)":"6813d787","shouldRevert()":"d3072d82","symbol()":"95d89b41","totalSupply()":"18160ddd","transfer(address,uint256)":"a9059cbb","transferFrom(address,address,uint256)":"23b872dd"},"id":1294}