{"abi":[{"type":"function","name":"allowance","inputs":[{"name":"","type":"address","internalType":"address"},{"name":"","type":"address","internalType":"address"}],"outputs":[{"name":"","type":"uint256","internalType":"uint256"}],"stateMutability":"view"},{"type":"function","name":"approve","inputs":[{"name":"spender","type":"address","internalType":"address"},{"name":"amount","type":"uint256","internalType":"uint256"}],"outputs":[{"name":"","type":"bool","internalType":"bool"}],"stateMutability":"nonpayable"},{"type":"function","name":"balanceOf","inputs":[{"name":"","type":"address","internalType":"address"}],"outputs":[{"name":"","type":"uint256","internalType":"uint256"}],"stateMutability":"view"},{"type":"function","name":"decimals","inputs":[],"outputs":[{"name":"","type":"uint8","internalType":"uint8"}],"stateMutability":"view"},{"type":"function","name":"mint","inputs":[{"name":"to","type":"address","internalType":"address"},{"name":"amount","type":"uint256","internalType":"uint256"}],"outputs":[],"stateMutability":"nonpayable"},{"type":"function","name":"name","inputs":[],"outputs":[{"name":"","type":"string","internalType":"string"}],"stateMutability":"view"},{"type":"function","name":"setShouldReturnFalse","inputs":[{"name":"_shouldReturnFalse","type":"bool","internalType":"bool"}],"outputs":[],"stateMutability":"nonpayable"},{"type":"function","name":"shouldReturnFalse","inputs":[],"outputs":[{"name":"","type":"bool","internalType":"bool"}],"stateMutability":"view"},{"type":"function","name":"symbol","inputs":[],"outputs":[{"name":"","type":"string","internalType":"string"}],"stateMutability":"view"},{"type":"function","name":"totalSupply","inputs":[],"outputs":[{"name":"","type":"uint256","internalType":"uint256"}],"stateMutability":"view"},{"type":"function","name":"transfer","inputs":[{"name":"to","type":"address","internalType":"address"},{"name":"amount","type":"uint256","internalType":"uint256"}],"outputs":[{"name":"","type":"bool","internalType":"bool"}],"stateMutability":"nonpayable"},{"type":"function","name":"transferFrom","inputs":[{"name":"from","type":"address","internalType":"address"},{"name":"to","type":"address","internalType":"address"},{"name":"amount","type":"uint256","internalType":"uint256"}],"outputs":[{"name":"","type":"bool","internalType":"bool"}],"stateMutability":"nonpayable"},{"type":"event","name":"Approval","inputs":[{"name":"owner","type":"address","indexed":true,"internalType":"address"},{"name":"spender","type":"address","indexed":true,"internalType":"address"},{"name":"value","type":"uint256","indexed":false,"internalType":"uint256"}],"anonymous":false},{"type":"event","name":"Transfer","inputs":[{"name":"from","type":"address","indexed":true,"internalType":"address"},{"name":"to","type":"address","indexed":true,"internalType":"address"},{"name":"value","type":"uint256","indexed":false,"internalType":"uint256"}],"anonymous":false}],"bytecode":{"object":"0x60c0604052601560809081527f46616c73652d52657475726e696e6720546f6b656e000000000000000000000060a0525f9061003b9082610126565b5060408051808201909152600381526211949560ea1b60208201526001906100639082610126565b506002805460ff19908116601217909155600680549091169055348015610088575f5ffd5b506101e0565b634e487b7160e01b5f52604160045260245ffd5b600181811c908216806100b657607f821691505b6020821081036100d457634e487b7160e01b5f52602260045260245ffd5b50919050565b601f82111561012157805f5260205f20601f840160051c810160208510156100ff5750805b601f840160051c820191505b8181101561011e575f815560010161010b565b50505b505050565b81516001600160401b0381111561013f5761013f61008e565b6101538161014d84546100a2565b846100da565b6020601f821160018114610185575f831561016e5750848201515b5f19600385901b1c1916600184901b17845561011e565b5f84815260208120601f198516915b828110156101b45787850151825560209485019460019092019101610194565b50848210156101d157868401515f19600387901b60f8161c191681555b50505050600190811b01905550565b6107be806101ed5f395ff3fe608060405234801561000f575f5ffd5b50600436106100a2575f3560e01c806306fdde03146100a6578063095ea7b3146100c457806318160ddd146100e757806323b872dd146100fe578063313ce5671461011157806340c10f191461013057806370a082311461014557806382dd1c9a1461016457806395d89b4114610185578063a9059cbb1461018d578063dd62ed3e146101a0578063fca286e4146101ca575b5f5ffd5b6100ae6101d7565b6040516100bb91906105ad565b60405180910390f35b6100d76100d23660046105fd565b610262565b60405190151581526020016100bb565b6100f060035481565b6040519081526020016100bb565b6100d761010c366004610625565b6102db565b60025461011e9060ff1681565b60405160ff90911681526020016100bb565b61014361013e3660046105fd565b610470565b005b6100f061015336600461065f565b60046020525f908152604090205481565b610143610172366004610678565b6006805460ff1916911515919091179055565b6100ae6104e5565b6100d761019b3660046105fd565b6104f2565b6100f06101ae366004610697565b600560209081525f928352604080842090915290825290205481565b6006546100d79060ff1681565b5f80546101e3906106c8565b80601f016020809104026020016040519081016040528092919081815260200182805461020f906106c8565b801561025a5780601f106102315761010080835404028352916020019161025a565b820191905f5260205f20905b81548152906001019060200180831161023d57829003601f168201915b505050505081565b6006545f9060ff161561027657505f6102d5565b335f8181526005602090815260408083206001600160a01b03881680855290835292819020869055518581529192917f8c5be1e5ebec7d5bd14f71427d1e84f3dd0314c0f7b2291e5b200ac8c7c3b92591015b60405180910390a35060015b92915050565b6006545f9060ff16156102ef57505f610469565b6001600160a01b0384165f9081526004602052604090205482111561032f5760405162461bcd60e51b815260040161032690610700565b60405180910390fd5b6001600160a01b0384165f90815260056020908152604080832033845290915290205482111561039a5760405162461bcd60e51b8152602060048201526016602482015275496e73756666696369656e7420616c6c6f77616e636560501b6044820152606401610326565b6001600160a01b0384165f908152600560209081526040808320338452909152812080548492906103cc908490610742565b90915550506001600160a01b0384165f90815260046020526040812080548492906103f8908490610742565b90915550506001600160a01b0383165f9081526004602052604081208054849290610424908490610755565b92505081905550826001600160a01b0316846001600160a01b03165f5160206107695f395f51905f528460405161045d91815260200190565b60405180910390a35060015b9392505050565b6001600160a01b0382165f9081526004602052604081208054839290610497908490610755565b925050819055508060035f8282546104af9190610755565b90915550506040518181526001600160a01b038316905f905f5160206107695f395f51905f529060200160405180910390a35050565b600180546101e3906106c8565b6006545f9060ff161561050657505f6102d5565b335f908152600460205260409020548211156105345760405162461bcd60e51b815260040161032690610700565b335f9081526004602052604081208054849290610552908490610742565b90915550506001600160a01b0383165f908152600460205260408120805484929061057e908490610755565b90915550506040518281526001600160a01b0384169033905f5160206107695f395f51905f52906020016102c9565b602081525f82518060208401528060208501604085015e5f604082850101526040601f19601f83011684010191505092915050565b80356001600160a01b03811681146105f8575f5ffd5b919050565b5f5f6040838503121561060e575f5ffd5b610617836105e2565b946020939093013593505050565b5f5f5f60608486031215610637575f5ffd5b610640846105e2565b925061064e602085016105e2565b929592945050506040919091013590565b5f6020828403121561066f575f5ffd5b610469826105e2565b5f60208284031215610688575f5ffd5b81358015158114610469575f5ffd5b5f5f604083850312156106a8575f5ffd5b6106b1836105e2565b91506106bf602084016105e2565b90509250929050565b600181811c908216806106dc57607f821691505b6020821081036106fa57634e487b7160e01b5f52602260045260245ffd5b50919050565b602080825260149082015273496e73756666696369656e742062616c616e636560601b604082015260600190565b634e487b7160e01b5f52601160045260245ffd5b818103818111156102d5576102d561072e565b808201808211156102d5576102d561072e56feddf252ad1be2c89b69c2b068fc378daa952ba7f163c4a11628f55a4df523b3efa26469706673582212208ff460ed434e4ff8c0a56c56861cc071f70fd75dda11a5f1e3a9ba7f24b0ef4564736f6c634300081e0033","linkReferences":{}},"methodIdentifiers":{"allowance(address,address)":"dd62ed3e","approve(address,uint256)":"095ea7b3","balanceOf(address)":"70a08231","decimals()":"313ce567","mint(address,uint256)":"40c10f19","name()":"06fdde03","setShouldReturnFalse(bool)":"82dd1c9a","shouldReturnFalse()":"fca286e4","symbol()":"95d89b41","totalSupply()":"18160ddd","transfer(address,uint256)":"a9059cbb","transferFrom(address,address,uint256)":"23b872dd"},"id":1294}