{"abi":[{"type":"constructor","inputs":[{"name":"name_","type":"string","internalType":"string"},{"name":"symbol_","type":"string","internalType":"string"},{"name":"decimals_","type":"uint8","internalType":"uint8"},{"name":"recipient","type":"address","internalType":"address"},{"name":"initialAmount","type":"uint256","internalType":"uint256"}],"stateMutability":"nonpayable"},{"type":"function","name":"DOMAIN_SEPARATOR","inputs":[],"outputs":[{"name":"","type":"bytes32","internalType":"bytes32"}],"stateMutability":"view"},{"type":"function","name":"allowance","inputs":[{"name":"owner","type":"address","internalType":"address"},{"name":"spender","type":"address","internalType":"address"}],"outputs":[{"name":"","type":"uint256","internalType":"uint256"}],"stateMutability":"view"},{"type":"function","name":"approve","inputs":[{"name":"spender","type":"address","internalType":"address"},{"name":"amount","type":"uint256","internalType":"uint256"}],"outputs":[{"name":"","type":"bool","internalType":"bool"}],"stateMutability":"nonpayable"},{"type":"function","name":"balanceOf","inputs":[{"name":"account","type":"address","internalType":"address"}],"outputs":[{"name":"","type":"uint256","internalType":"uint256"}],"stateMutability":"view"},{"type":"function","name":"burn","inputs":[{"name":"account","type":"address","internalType":"address"},{"name":"amount","type":"uint256","internalType":"uint256"}],"outputs":[{"name":"","type":"bool","internalType":"bool"}],"stateMutability":"nonpayable"},{"type":"function","name":"decimals","inputs":[],"outputs":[{"name":"","type":"uint8","internalType":"uint8"}],"stateMutability":"view"},{"type":"function","name":"eip712Domain","inputs":[],"outputs":[{"name":"fields","type":"bytes1","internalType":"bytes1"},{"name":"name","type":"string","internalType":"string"},{"name":"version","type":"string","internalType":"string"},{"name":"chainId","type":"uint256","internalType":"uint256"},{"name":"verifyingContract","type":"address","internalType":"address"},{"name":"salt","type":"bytes32","internalType":"bytes32"},{"name":"extensions","type":"uint256[]","internalType":"uint256[]"}],"stateMutability":"view"},{"type":"function","name":"mint","inputs":[{"name":"account","type":"address","internalType":"address"},{"name":"amount","type":"uint256","internalType":"uint256"}],"outputs":[{"name":"","type":"bool","internalType":"bool"}],"stateMutability":"nonpayable"},{"type":"function","name":"name","inputs":[],"outputs":[{"name":"","type":"string","internalType":"string"}],"stateMutability":"view"},{"type":"function","name":"nonces","inputs":[{"name":"owner","type":"address","internalType":"address"}],"outputs":[{"name":"","type":"uint256","internalType":"uint256"}],"stateMutability":"view"},{"type":"function","name":"permit","inputs":[{"name":"owner","type":"address","internalType":"address"},{"name":"spender","type":"address","internalType":"address"},{"name":"value","type":"uint256","internalType":"uint256"},{"name":"deadline","type":"uint256","internalType":"uint256"},{"name":"v","type":"uint8","internalType":"uint8"},{"name":"r","type":"bytes32","internalType":"bytes32"},{"name":"s","type":"bytes32","internalType":"bytes32"}],"outputs":[],"stateMutability":"nonpayable"},{"type":"function","name":"symbol","inputs":[],"outputs":[{"name":"","type":"string","internalType":"string"}],"stateMutability":"view"},{"type":"function","name":"totalSupply","inputs":[],"outputs":[{"name":"","type":"uint256","internalType":"uint256"}],"stateMutability":"view"},{"type":"function","name":"transfer","inputs":[{"name":"recipient","type":"address","internalType":"address"},{"name":"amount","type":"uint256","internalType":"uint256"}],"outputs":[{"name":"","type":"bool","internalType":"bool"}],"stateMutability":"nonpayable"},{"type":"function","name":"transferFrom","inputs":[{"name":"owner","type":"address","internalType":"address"},{"name":"recipient","type":"address","internalType":"address"},{"name":"amount","type":"uint256","internalType":"uint256"}],"outputs":[{"name":"","type":"bool","internalType":"bool"}],"stateMutability":"nonpayable"},{"type":"event","name":"Approval","inputs":[{"name":"owner","type":"address","indexed":true,"internalType":"address"},{"name":"spender","type":"address","indexed":true,"internalType":"address"},{"name":"amount","type":"uint256","indexed":false,"internalType":"uint256"}],"anonymous":false},{"type":"event","name":"EIP712DomainChanged","inputs":[],"anonymous":false},{"type":"event","name":"Transfer","inputs":[{"name":"from","type":"address","indexed":true,"internalType":"address"},{"name":"to","type":"address","indexed":true,"internalType":"address"},{"name":"amount","type":"uint256","indexed":false,"internalType":"uint256"}],"anonymous":false},{"type":"error","name":"ERC20InsufficientAllowance","inputs":[{"name":"spender","type":"address","internalType":"address"},{"name":"allowance","type":"uint256","internalType":"uint256"},{"name":"needed","type":"uint256","internalType":"uint256"}]},{"type":"error","name":"ERC20InsufficientBalance","inputs":[{"name":"sender","type":"address","internalType":"address"},{"name":"balance","type":"uint256","internalType":"uint256"},{"name":"needed","type":"uint256","internalType":"uint256"}]},{"type":"error","name":"ERC20InvalidApprover","inputs":[{"name":"approver","type":"address","internalType":"address"}]},{"type":"error","name":"ERC20InvalidReceiver","inputs":[{"name":"receiver","type":"address","internalType":"address"}]},{"type":"error","name":"ERC20InvalidSender","inputs":[{"name":"sender","type":"address","internalType":"address"}]},{"type":"error","name":"ERC20InvalidSpender","inputs":[{"name":"spender","type":"address","internalType":"address"}]},{"type":"error","name":"ERC2612ExpiredSignature","inputs":[{"name":"deadline","type":"uint256","internalType":"uint256"}]},{"type":"error","name":"ERC2612InvalidSigner","inputs":[{"name":"signer","type":"address","internalType":"address"},{"name":"owner","type":"address","internalType":"address"}]},{"type":"error","name":"InvalidAccountNonce","inputs":[{"name":"account","type":"address","internalType":"address"},{"name":"currentNonce","type":"uint256","internalType":"uint256"}]},{"type":"error","name":"InvalidShortString","inputs":[]}],"bytecode":{"object":"0x608060405234801561000f575f5ffd5b506040516113fe3803806113fe83398101604081905261002e91610221565b84848484845f61003c610065565b905061004a818787876100bd565b6100558184846100f4565b5050505050505050505050610429565b5f6100b8604051602001610097906020808252600a908201526906569702e6572632e32360b41b604082015260600190565b6040516020818303038152906040528051906020012061018160201b60201c565b905090565b836100c8848261034a565b50600184016100d7838261034a565b50600293909301805460ff191660ff909416939093179092555050565b6001600160a01b0382165f9081526004840160205260408120805483929061011d908490610404565b9250508190555080836003015f8282546101379190610404565b90915550506040518181526001600160a01b038316905f907fddf252ad1be2c89b69c2b068fc378daa952ba7f163c4a11628f55a4df523b3ef9060200160405180910390a3505050565b90565b634e487b7160e01b5f52604160045260245ffd5b5f82601f8301126101a7575f5ffd5b81516001600160401b038111156101c0576101c0610184565b604051601f8201601f19908116603f011681016001600160401b03811182821017156101ee576101ee610184565b604052818152838201602001851015610205575f5ffd5b8160208501602083015e5f918101602001919091529392505050565b5f5f5f5f5f60a08688031215610235575f5ffd5b85516001600160401b0381111561024a575f5ffd5b61025688828901610198565b602088015190965090506001600160401b03811115610273575f5ffd5b61027f88828901610198565b945050604086015160ff81168114610295575f5ffd5b60608701519093506001600160a01b03811681146102b1575f5ffd5b60809690960151949793965091949392915050565b600181811c908216806102da57607f821691505b6020821081036102f857634e487b7160e01b5f52602260045260245ffd5b50919050565b601f82111561034557805f5260205f20601f840160051c810160208510156103235750805b601f840160051c820191505b81811015610342575f815560010161032f565b50505b505050565b81516001600160401b0381111561036357610363610184565b6103778161037184546102c6565b846102fe565b6020601f8211600181146103a9575f83156103925750848201515b5f19600385901b1c1916600184901b178455610342565b5f84815260208120601f198516915b828110156103d857878501518255602094850194600190920191016103b8565b50848210156103f557868401515f19600387901b60f8161c191681555b50505050600190811b01905550565b8082018082111561042357634e487b7160e01b5f52601160045260245ffd5b92915050565b610fc8806104365f395ff3fe608060405234801561000f575f5ffd5b50600436106100c3575f3560e01c806306fdde03146100c7578063095ea7b3146100e557806318160ddd1461010857806323b872dd1461011e578063313ce567146101315780633644e5151461014b57806340c10f191461015357806370a08231146101665780637ecebe001461017957806384b0196e1461018c57806395d89b41146101a75780639dc29fac146101af578063a9059cbb146101c2578063d505accf146101d5578063dd62ed3e146101ea575b5f5ffd5b6100cf6101fd565b6040516100dc9190610cf4565b60405180910390f35b6100f86100f3366004610d1c565b61020c565b60405190151581526020016100dc565b610110610222565b6040519081526020016100dc565b6100f861012c366004610d44565b61022b565b610139610241565b60405160ff90911681526020016100dc565b61011061024a565b6100f8610161366004610d1c565b610253565b610110610174366004610d7e565b61025e565b610110610187366004610d7e565b610268565b610194610272565b6040516100dc9796959493929190610d97565b6100cf6102c2565b6100f86101bd366004610d1c565b6102cc565b6100f86101d0366004610d1c565b6102d7565b6101e86101e3366004610e2d565b6102e3565b005b6101106101f8366004610e9a565b610409565b606061020761041b565b905090565b5f61021833848461042d565b5060015b92915050565b5f610207610445565b5f610237848484610458565b5060019392505050565b5f61020761046b565b5f610207610481565b5f6102188383610492565b5f61021c826104a8565b5f61021c826104d3565b5f6060805f5f5f60605f6102846104fb565b905061028f81610547565b6102988261055c565b604080515f80825260208201909252600f60f81b9c939b5091995046985030975095509350915050565b6060610207610571565b5f6102188383610583565b5f610218338484610595565b8342111561030c5760405163313c898160e11b8152600481018590526024015b60405180910390fd5b5f6103907f6e71edae12b1b97f4d1f60370fef10105fa2faae0126114a169c64845d6126c989898961033d8d6105a8565b6040805160208101969096526001600160a01b0394851690860152929091166060840152608083015260a082015260c0810187905260e0015b604051602081830303815290604052805160209091012090565b90505f61039c826105d8565b90505f6103ab828787876105ea565b9050896001600160a01b0316816001600160a01b0316146103f2576040516325c0072360e11b81526001600160a01b0380831660048301528b166024820152604401610303565b6103fd8a8a8a61042d565b50505050505050505050565b5f6104148383610600565b9392505050565b6060610207610428610613565b610645565b610440610438610613565b8484846106d8565b505050565b5f610207610451610613565b6003015490565b610440610463610613565b848484610765565b5f610207610477610613565b6002015460ff1690565b5f61020761048d6104fb565b610783565b6104a461049d610613565b83836107bc565b5050565b5f61021c6104b4610613565b836001600160a01b03165f908152600491909101602052604090205490565b5f61021c6104df610837565b836001600160a01b03165f908152602091909152604090205490565b5f61020760405160200161052e906020808252600b908201526a32b4b81732b4b8171b989960a91b604082015260600190565b6040516020818303038152906040528051906020012090565b600581015460609061021c906007840161086b565b600681015460609061021c906008840161086b565b606061020761057e610613565b610914565b6104a461058e610613565b8383610925565b6104406105a0610613565b848484610997565b5f61021c6105b4610837565b836001600160a01b03165f9081526020919091526040902080546001810190915590565b5f61021c6105e46104fb565b836109ff565b5f6105f785858585610a2c565b95945050505050565b5f61041461060c610613565b8484610a71565b5f61020760405160200161052e906020808252600a908201526906569702e6572632e32360b41b604082015260600190565b6060815f01805461065590610ecb565b80601f016020809104026020016040519081016040528092919081815260200182805461068190610ecb565b80156106cc5780601f106106a3576101008083540402835291602001916106cc565b820191905f5260205f20905b8154815290600101906020018083116106af57829003601f168201915b50505050509050919050565b6001600160a01b0382166107015781604051634a1406b160e11b81526004016103039190610f03565b6001600160a01b038381165f81815260058701602090815260408083209487168084529482529182902085905590518481527f8c5be1e5ebec7d5bd14f71427d1e84f3dd0314c0f7b2291e5b200ac8c7c3b92591015b60405180910390a350505050565b61077184843384610a9d565b61077d84848484610997565b50505050565b60028101545f906001600160a01b0316301480156107a45750816001015446145b156107ae57505490565b61021c82610b17565b919050565b6001600160a01b0382165f908152600484016020526040812080548392906107e5908490610f2b565b9250508190555080836003015f8282546107ff9190610f2b565b90915550506040518181526001600160a01b038316905f905f516020610f735f395f51905f52906020015b60405180910390a3505050565b5f61020760405160200161052e906020808252600c908201526b32b4b81732b93197191b189960a11b604082015260600190565b606060ff83146108855761087e83610b71565b905061021c565b81805461089190610ecb565b80601f01602080910402602001604051908101604052809291908181526020018280546108bd90610ecb565b80156109085780601f106108df57610100808354040283529160200191610908565b820191905f5260205f20905b8154815290600101906020018083116108eb57829003601f168201915b5050505050905061021c565b606081600101805461065590610ecb565b6001600160a01b0382165f9081526004840160205260408120805483929061094e908490610f3e565b9250508190555080836003015f8282546109689190610f3e565b90915550506040518181525f906001600160a01b038416905f516020610f735f395f51905f529060200161082a565b336109b75733604051634a1406b160e11b81526004016103039190610f03565b6109c2848483610bae565b6109cd848383610c43565b816001600160a01b0316836001600160a01b03165f516020610f735f395f51905f528360405161075791815260200190565b5f610414610a0c84610783565b8360405161190160f01b8152600281019290925260228201526042902090565b5f604051855f5260ff851660205283604052826060526020600160805f60015afa5191503d610a6257638baa579f5f526004601cfd5b5f606052604052949350505050565b6001600160a01b039182165f908152600593909301602090815260408085209290931684525290205490565b6001600160a01b038216610ac65781604051634a1406b160e11b81526004016103039190610f03565b5f610ad2858585610a71565b905081811015610afb57828183604051637dc7a0d960e11b815260040161030393929190610f51565b610b10858585610b0b8686610f3e565b6106d8565b5050505050565b60038101546004820154604080517f8b73c3c69bb8fe3d512ecc4cf759cc79239f7b179b0ffacaa9a75d522b39400f60208201529081019290925260608201524660808201523060a08201525f9061021c9060c001610376565b60605f610b7d83610c9f565b6040805160208082528183019092529192505f91906020820181803683375050509182525060208101929092525090565b6001600160a01b038216610bd75781604051634b637e8f60e11b81526004016103039190610f03565b6001600160a01b0382165f90815260048401602052604090205481811015610c185782818360405163391434e360e21b815260040161030393929190610f51565b610c228282610f3e565b6001600160a01b039093165f90815260049094016020525050604090912055565b6001600160a01b038216610c6c578160405163ec442f0560e01b81526004016103039190610f03565b6001600160a01b0382165f90815260048401602052604081208054839290610c95908490610f2b565b9091555050505050565b5f60ff8216601f81111561021c57604051632cd44ac360e21b815260040160405180910390fd5b5f81518084528060208401602086015e5f602082860101526020601f19601f83011685010191505092915050565b602081525f6104146020830184610cc6565b80356001600160a01b03811681146107b7575f5ffd5b5f5f60408385031215610d2d575f5ffd5b610d3683610d06565b946020939093013593505050565b5f5f5f60608486031215610d56575f5ffd5b610d5f84610d06565b9250610d6d60208501610d06565b929592945050506040919091013590565b5f60208284031215610d8e575f5ffd5b61041482610d06565b60ff60f81b8816815260e060208201525f610db560e0830189610cc6565b8281036040840152610dc78189610cc6565b606084018890526001600160a01b038716608085015260a0840186905283810360c0850152845180825260208087019350909101905f5b81811015610e1c578351835260209384019390920191600101610dfe565b50909b9a5050505050505050505050565b5f5f5f5f5f5f5f60e0888a031215610e43575f5ffd5b610e4c88610d06565b9650610e5a60208901610d06565b95506040880135945060608801359350608088013560ff81168114610e7d575f5ffd5b9699959850939692959460a0840135945060c09093013592915050565b5f5f60408385031215610eab575f5ffd5b610eb483610d06565b9150610ec260208401610d06565b90509250929050565b600181811c90821680610edf57607f821691505b602082108103610efd57634e487b7160e01b5f52602260045260245ffd5b50919050565b6001600160a01b0391909116815260200190565b634e487b7160e01b5f52601160045260245ffd5b8082018082111561021c5761021c610f17565b8181038181111561021c5761021c610f17565b6001600160a01b03939093168352602083019190915260408201526060019056feddf252ad1be2c89b69c2b068fc378daa952ba7f163c4a11628f55a4df523b3efa264697066735822122091f21feebc36fe6b8432557e6cebc5792b4f6b52ba59d624e7891ca7ce29b01e64736f6c634300081e0033","linkReferences":{}},"methodIdentifiers":{"DOMAIN_SEPARATOR()":"3644e515","allowance(address,address)":"dd62ed3e","approve(address,uint256)":"095ea7b3","balanceOf(address)":"70a08231","burn(address,uint256)":"9dc29fac","decimals()":"313ce567","eip712Domain()":"84b0196e","mint(address,uint256)":"40c10f19","name()":"06fdde03","nonces(address)":"7ecebe00","permit(address,address,uint256,uint256,uint8,bytes32,bytes32)":"d505accf","symbol()":"95d89b41","totalSupply()":"18160ddd","transfer(address,uint256)":"a9059cbb","transferFrom(address,address,uint256)":"23b872dd"},"id":1320}