{"abi":[{"type":"constructor","inputs":[{"name":"message","type":"string","internalType":"string"}],"stateMutability":"nonpayable"},{"type":"function","name":"getMessage","inputs":[],"outputs":[{"name":"","type":"string","internalType":"string"}],"stateMutability":"view"},{"type":"function","name":"setMessage","inputs":[{"name":"message","type":"string","internalType":"string"}],"outputs":[{"name":"","type":"bool","internalType":"bool"}],"stateMutability":"nonpayable"},{"type":"event","name":"NewMessage","inputs":[{"name":"oldMessage","type":"string","indexed":false,"internalType":"string"},{"name":"newMessage","type":"string","indexed":false,"internalType":"string"}],"anonymous":false}],"bytecode":{"object":"0x608060405234801561000f575f5ffd5b506040516106f03803806106f083398101604081905261002e9161008e565b6100378161003d565b5061027b565b6100677fd32bbaeef0dc4ce0a1707655450e5e93886dfad6f521b6fb7c9b8f3a455fa2658261006a565b50565b8161007582826101c1565b505050565b634e487b7160e01b5f52604160045260245ffd5b5f6020828403121561009e575f5ffd5b81516001600160401b038111156100b3575f5ffd5b8201601f810184136100c3575f5ffd5b80516001600160401b038111156100dc576100dc61007a565b604051601f8201601f19908116603f011681016001600160401b038111828210171561010a5761010a61007a565b604052818152828201602001861015610121575f5ffd5b8160208401602083015e5f91810160200191909152949350505050565b600181811c9082168061015257607f821691505b60208210810361017057634e487b7160e01b5f52602260045260245ffd5b50919050565b601f82111561007557805f5260205f20601f840160051c8101602085101561019b5750805b601f840160051c820191505b818110156101ba575f81556001016101a7565b5050505050565b81516001600160401b038111156101da576101da61007a565b6101ee816101e8845461013e565b84610176565b6020601f821160018114610220575f83156102095750848201515b5f19600385901b1c1916600184901b1784556101ba565b5f84815260208120601f198516915b8281101561024f578785015182556020948501946001909201910161022f565b508482101561026c57868401515f19600387901b60f8161c191681555b50505050600190811b01905550565b610468806102885f395ff3fe608060405234801561000f575f5ffd5b5060043610610034575f3560e01c8063368b877214610038578063ce6d41de14610060575b5f5ffd5b61004b6100463660046101d1565b610075565b60405190151581526020015b60405180910390f35b6100686100d5565b60405161005791906102af565b5f5f61007f6100e4565b90507f33f9897216838d3426adfbb9dcb455323ae7e170a584880d835bc7327ad6137d6100ab82610108565b846040516100ba9291906102c8565b60405180910390a16100cc818461019b565b50600192915050565b60606100df6101ab565b905090565b7fd32bbaeef0dc4ce0a1707655450e5e93886dfad6f521b6fb7c9b8f3a455fa26590565b6060815f018054610118906102f5565b80601f0160208091040260200160405190810160405280929190818152602001828054610144906102f5565b801561018f5780601f106101665761010080835404028352916020019161018f565b820191905f5260205f20905b81548152906001019060200180831161017257829003601f168201915b50505050509050919050565b816101a68282610378565b505050565b60606100df6101b86100e4565b610108565b634e487b7160e01b5f52604160045260245ffd5b5f602082840312156101e1575f5ffd5b81356001600160401b038111156101f6575f5ffd5b8201601f81018413610206575f5ffd5b80356001600160401b0381111561021f5761021f6101bd565b604051601f8201601f19908116603f011681016001600160401b038111828210171561024d5761024d6101bd565b604052818152828201602001861015610264575f5ffd5b816020840160208301375f91810160200191909152949350505050565b5f81518084528060208401602086015e5f602082860101526020601f19601f83011685010191505092915050565b602081525f6102c16020830184610281565b9392505050565b604081525f6102da6040830185610281565b82810360208401526102ec8185610281565b95945050505050565b600181811c9082168061030957607f821691505b60208210810361032757634e487b7160e01b5f52602260045260245ffd5b50919050565b601f8211156101a657805f5260205f20601f840160051c810160208510156103525750805b601f840160051c820191505b81811015610371575f815560010161035e565b5050505050565b81516001600160401b03811115610391576103916101bd565b6103a58161039f84546102f5565b8461032d565b6020601f8211600181146103d7575f83156103c05750848201515b5f19600385901b1c1916600184901b178455610371565b5f84815260208120601f198516915b8281101561040657878501518255602094850194600190920191016103e6565b508482101561042357868401515f19600387901b60f8161c191681555b50505050600190811b0190555056fea2646970667358221220f525c6b9b8694fc35d3572c481ab4dddc0ea71e4ed05e2efeb08f69f4a29e96464736f6c634300081e0033","linkReferences":{}},"methodIdentifiers":{"getMessage()":"ce6d41de","setMessage(string)":"368b8772"},"id":1300}