{"abi":[{"type":"function","name":"ABSOLUTE_MIN_TOKEN_BALANCE","inputs":[],"outputs":[{"name":"","type":"uint256","internalType":"uint256"}],"stateMutability":"view"},{"type":"error","name":"InvalidMinTokenBalance","inputs":[]},{"type":"error","name":"TokenBalanceBelowMin","inputs":[{"name":"tokenIndex","type":"uint256","internalType":"uint256"},{"name":"actualBalance","type":"uint256","internalType":"uint256"},{"name":"minBalance","type":"uint256","internalType":"uint256"}]}],"bytecode":{"object":"0x60876032600b8282823980515f1a607314602657634e487b7160e01b5f525f60045260245ffd5b305f52607381538281f3fe73000000000000000000000000000000000000000030146080604052600436106032575f3560e01c80631109e682146036575b5f5ffd5b603f620f424081565b60405190815260200160405180910390f3fea26469706673582212205d04c96d3be5324e7c5ef9c8ff37a6b6d45f60fb75f600912eb72393a172d51b64736f6c634300081e0033","linkReferences":{}},"methodIdentifiers":{"ABSOLUTE_MIN_TOKEN_BALANCE()":"1109e682"},"id":357}