{"abi":[{"type":"constructor","inputs":[{"name":"vault_","type":"address","internalType":"contract IVaultMock"},{"name":"protocolSwapFeePercentage","type":"uint256","internalType":"uint256"},{"name":"protocolYieldFeePercentage","type":"uint256","internalType":"uint256"}],"stateMutability":"nonpayable"},{"type":"function","name":"MAX_CREATOR_FEE_PERCENTAGE","inputs":[],"outputs":[{"name":"","type":"uint256","internalType":"uint256"}],"stateMutability":"view"},{"type":"function","name":"MAX_PROTOCOL_SWAP_FEE_PERCENTAGE","inputs":[],"outputs":[{"name":"","type":"uint256","internalType":"uint256"}],"stateMutability":"view"},{"type":"function","name":"MAX_PROTOCOL_YIELD_FEE_PERCENTAGE","inputs":[],"outputs":[{"name":"","type":"uint256","internalType":"uint256"}],"stateMutability":"view"},{"type":"function","name":"collectAggregateFees","inputs":[{"name":"pool","type":"address","internalType":"address"}],"outputs":[],"stateMutability":"nonpayable"},{"type":"function","name":"collectAggregateFeesHook","inputs":[{"name":"pool","type":"address","internalType":"address"}],"outputs":[],"stateMutability":"nonpayable"},{"type":"function","name":"computeAggregateFeePercentage","inputs":[{"name":"protocolFeePercentage","type":"uint256","internalType":"uint256"},{"name":"poolCreatorFeePercentage","type":"uint256","internalType":"uint256"}],"outputs":[{"name":"","type":"uint256","internalType":"uint256"}],"stateMutability":"pure"},{"type":"function","name":"getActionId","inputs":[{"name":"selector","type":"bytes4","internalType":"bytes4"}],"outputs":[{"name":"","type":"bytes32","internalType":"bytes32"}],"stateMutability":"view"},{"type":"function","name":"getAuthorizer","inputs":[],"outputs":[{"name":"","type":"address","internalType":"contract IAuthorizer"}],"stateMutability":"view"},{"type":"function","name":"getGlobalProtocolSwapFeePercentage","inputs":[],"outputs":[{"name":"","type":"uint256","internalType":"uint256"}],"stateMutability":"view"},{"type":"function","name":"getGlobalProtocolYieldFeePercentage","inputs":[],"outputs":[{"name":"","type":"uint256","internalType":"uint256"}],"stateMutability":"view"},{"type":"function","name":"getPoolCreatorFeeAmounts","inputs":[{"name":"pool","type":"address","internalType":"address"}],"outputs":[{"name":"feeAmounts","type":"uint256[]","internalType":"uint256[]"}],"stateMutability":"view"},{"type":"function","name":"getPoolCreatorInfo","inputs":[{"name":"pool","type":"address","internalType":"address"}],"outputs":[{"name":"poolCreator","type":"address","internalType":"address"},{"name":"creatorSwapFeePercentage","type":"uint256","internalType":"uint256"},{"name":"creatorYieldFeePercentage","type":"uint256","internalType":"uint256"}],"stateMutability":"view"},{"type":"function","name":"getPoolCreatorSwapFeePercentage","inputs":[{"name":"pool","type":"address","internalType":"address"}],"outputs":[{"name":"","type":"uint256","internalType":"uint256"}],"stateMutability":"view"},{"type":"function","name":"getPoolCreatorYieldFeePercentage","inputs":[{"name":"pool","type":"address","internalType":"address"}],"outputs":[{"name":"","type":"uint256","internalType":"uint256"}],"stateMutability":"view"},{"type":"function","name":"getPoolProtocolSwapFeeInfo","inputs":[{"name":"pool","type":"address","internalType":"address"}],"outputs":[{"name":"","type":"uint256","internalType":"uint256"},{"name":"","type":"bool","internalType":"bool"}],"stateMutability":"view"},{"type":"function","name":"getPoolProtocolYieldFeeInfo","inputs":[{"name":"pool","type":"address","internalType":"address"}],"outputs":[{"name":"","type":"uint256","internalType":"uint256"},{"name":"","type":"bool","internalType":"bool"}],"stateMutability":"view"},{"type":"function","name":"getPoolTokensAndCount","inputs":[{"name":"pool","type":"address","internalType":"address"}],"outputs":[{"name":"tokens","type":"address[]","internalType":"contract IERC20[]"},{"name":"numTokens","type":"uint256","internalType":"uint256"}],"stateMutability":"view"},{"type":"function","name":"getProtocolFeeAmounts","inputs":[{"name":"pool","type":"address","internalType":"address"}],"outputs":[{"name":"feeAmounts","type":"uint256[]","internalType":"uint256[]"}],"stateMutability":"view"},{"type":"function","name":"getVault","inputs":[],"outputs":[{"name":"","type":"address","internalType":"contract IVault"}],"stateMutability":"view"},{"type":"function","name":"isPoolRegistered","inputs":[{"name":"pool","type":"address","internalType":"address"}],"outputs":[{"name":"","type":"bool","internalType":"bool"}],"stateMutability":"view"},{"type":"function","name":"manualSetPoolCreatorSwapFeePercentage","inputs":[{"name":"pool","type":"address","internalType":"address"},{"name":"poolCreatorSwapFeePercentage","type":"uint256","internalType":"uint256"}],"outputs":[],"stateMutability":"nonpayable"},{"type":"function","name":"migratePool","inputs":[{"name":"pool","type":"address","internalType":"address"}],"outputs":[],"stateMutability":"nonpayable"},{"type":"function","name":"registerPool","inputs":[{"name":"pool","type":"address","internalType":"address"},{"name":"poolCreator","type":"address","internalType":"address"},{"name":"protocolFeeExempt","type":"bool","internalType":"bool"}],"outputs":[{"name":"aggregateSwapFeePercentage","type":"uint256","internalType":"uint256"},{"name":"aggregateYieldFeePercentage","type":"uint256","internalType":"uint256"}],"stateMutability":"nonpayable"},{"type":"function","name":"setGlobalProtocolSwapFeePercentage","inputs":[{"name":"newProtocolSwapFeePercentage","type":"uint256","internalType":"uint256"}],"outputs":[],"stateMutability":"nonpayable"},{"type":"function","name":"setGlobalProtocolYieldFeePercentage","inputs":[{"name":"newProtocolYieldFeePercentage","type":"uint256","internalType":"uint256"}],"outputs":[],"stateMutability":"nonpayable"},{"type":"function","name":"setPoolCreatorSwapFeePercentage","inputs":[{"name":"pool","type":"address","internalType":"address"},{"name":"poolCreatorSwapFeePercentage","type":"uint256","internalType":"uint256"}],"outputs":[],"stateMutability":"nonpayable"},{"type":"function","name":"setPoolCreatorYieldFeePercentage","inputs":[{"name":"pool","type":"address","internalType":"address"},{"name":"poolCreatorYieldFeePercentage","type":"uint256","internalType":"uint256"}],"outputs":[],"stateMutability":"nonpayable"},{"type":"function","name":"setProtocolSwapFeePercentage","inputs":[{"name":"pool","type":"address","internalType":"address"},{"name":"newProtocolSwapFeePercentage","type":"uint256","internalType":"uint256"}],"outputs":[],"stateMutability":"nonpayable"},{"type":"function","name":"setProtocolYieldFeePercentage","inputs":[{"name":"pool","type":"address","internalType":"address"},{"name":"newProtocolYieldFeePercentage","type":"uint256","internalType":"uint256"}],"outputs":[],"stateMutability":"nonpayable"},{"type":"function","name":"updateProtocolSwapFeePercentage","inputs":[{"name":"pool","type":"address","internalType":"address"}],"outputs":[],"stateMutability":"nonpayable"},{"type":"function","name":"updateProtocolYieldFeePercentage","inputs":[{"name":"pool","type":"address","internalType":"address"}],"outputs":[],"stateMutability":"nonpayable"},{"type":"function","name":"vault","inputs":[],"outputs":[{"name":"","type":"address","internalType":"contract IVault"}],"stateMutability":"view"},{"type":"function","name":"withdrawPoolCreatorFees","inputs":[{"name":"pool","type":"address","internalType":"address"}],"outputs":[],"stateMutability":"nonpayable"},{"type":"function","name":"withdrawPoolCreatorFees","inputs":[{"name":"pool","type":"address","internalType":"address"},{"name":"recipient","type":"address","internalType":"address"}],"outputs":[],"stateMutability":"nonpayable"},{"type":"function","name":"withdrawProtocolFees","inputs":[{"name":"pool","type":"address","internalType":"address"},{"name":"recipient","type":"address","internalType":"address"}],"outputs":[],"stateMutability":"nonpayable"},{"type":"function","name":"withdrawProtocolFeesForToken","inputs":[{"name":"pool","type":"address","internalType":"address"},{"name":"recipient","type":"address","internalType":"address"},{"name":"token","type":"address","internalType":"contract IERC20"}],"outputs":[],"stateMutability":"nonpayable"},{"type":"event","name":"GlobalProtocolSwapFeePercentageChanged","inputs":[{"name":"swapFeePercentage","type":"uint256","indexed":false,"internalType":"uint256"}],"anonymous":false},{"type":"event","name":"GlobalProtocolYieldFeePercentageChanged","inputs":[{"name":"yieldFeePercentage","type":"uint256","indexed":false,"internalType":"uint256"}],"anonymous":false},{"type":"event","name":"InitialPoolAggregateSwapFeePercentage","inputs":[{"name":"pool","type":"address","indexed":true,"internalType":"address"},{"name":"aggregateSwapFeePercentage","type":"uint256","indexed":false,"internalType":"uint256"},{"name":"isProtocolFeeExempt","type":"bool","indexed":false,"internalType":"bool"}],"anonymous":false},{"type":"event","name":"InitialPoolAggregateYieldFeePercentage","inputs":[{"name":"pool","type":"address","indexed":true,"internalType":"address"},{"name":"aggregateYieldFeePercentage","type":"uint256","indexed":false,"internalType":"uint256"},{"name":"isProtocolFeeExempt","type":"bool","indexed":false,"internalType":"bool"}],"anonymous":false},{"type":"event","name":"PoolCreatorFeesWithdrawn","inputs":[{"name":"pool","type":"address","indexed":true,"internalType":"address"},{"name":"token","type":"address","indexed":true,"internalType":"contract IERC20"},{"name":"recipient","type":"address","indexed":true,"internalType":"address"},{"name":"amount","type":"uint256","indexed":false,"internalType":"uint256"}],"anonymous":false},{"type":"event","name":"PoolCreatorSwapFeePercentageChanged","inputs":[{"name":"pool","type":"address","indexed":true,"internalType":"address"},{"name":"poolCreatorSwapFeePercentage","type":"uint256","indexed":false,"internalType":"uint256"}],"anonymous":false},{"type":"event","name":"PoolCreatorYieldFeePercentageChanged","inputs":[{"name":"pool","type":"address","indexed":true,"internalType":"address"},{"name":"poolCreatorYieldFeePercentage","type":"uint256","indexed":false,"internalType":"uint256"}],"anonymous":false},{"type":"event","name":"PoolRegisteredWithFeeController","inputs":[{"name":"pool","type":"address","indexed":true,"internalType":"address"},{"name":"poolCreator","type":"address","indexed":true,"internalType":"address"},{"name":"protocolFeeExempt","type":"bool","indexed":false,"internalType":"bool"}],"anonymous":false},{"type":"event","name":"ProtocolFeesWithdrawn","inputs":[{"name":"pool","type":"address","indexed":true,"internalType":"address"},{"name":"token","type":"address","indexed":true,"internalType":"contract IERC20"},{"name":"recipient","type":"address","indexed":true,"internalType":"address"},{"name":"amount","type":"uint256","indexed":false,"internalType":"uint256"}],"anonymous":false},{"type":"event","name":"ProtocolSwapFeeCollected","inputs":[{"name":"pool","type":"address","indexed":true,"internalType":"address"},{"name":"token","type":"address","indexed":true,"internalType":"contract IERC20"},{"name":"amount","type":"uint256","indexed":false,"internalType":"uint256"}],"anonymous":false},{"type":"event","name":"ProtocolSwapFeePercentageChanged","inputs":[{"name":"pool","type":"address","indexed":true,"internalType":"address"},{"name":"swapFeePercentage","type":"uint256","indexed":false,"internalType":"uint256"}],"anonymous":false},{"type":"event","name":"ProtocolYieldFeeCollected","inputs":[{"name":"pool","type":"address","indexed":true,"internalType":"address"},{"name":"token","type":"address","indexed":true,"internalType":"contract IERC20"},{"name":"amount","type":"uint256","indexed":false,"internalType":"uint256"}],"anonymous":false},{"type":"event","name":"ProtocolYieldFeePercentageChanged","inputs":[{"name":"pool","type":"address","indexed":true,"internalType":"address"},{"name":"yieldFeePercentage","type":"uint256","indexed":false,"internalType":"uint256"}],"anonymous":false},{"type":"error","name":"CallerIsNotPoolCreator","inputs":[{"name":"caller","type":"address","internalType":"address"},{"name":"pool","type":"address","internalType":"address"}]},{"type":"error","name":"FeePrecisionTooHigh","inputs":[]},{"type":"error","name":"InvalidMigrationSource","inputs":[]},{"type":"error","name":"PoolAlreadyRegistered","inputs":[{"name":"pool","type":"address","internalType":"address"}]},{"type":"error","name":"PoolCreatorFeePercentageTooHigh","inputs":[]},{"type":"error","name":"PoolCreatorNotRegistered","inputs":[{"name":"pool","type":"address","internalType":"address"}]},{"type":"error","name":"ProtocolSwapFeePercentageTooHigh","inputs":[]},{"type":"error","name":"ProtocolYieldFeePercentageTooHigh","inputs":[]},{"type":"error","name":"ReentrancyGuardReentrantCall","inputs":[]},{"type":"error","name":"SenderIsNotVault","inputs":[{"name":"sender","type":"address","internalType":"address"}]},{"type":"error","name":"SenderNotAllowed","inputs":[]},{"type":"error","name":"VaultNotSet","inputs":[]},{"type":"error","name":"ZeroDivision","inputs":[]}],"bytecode":{"object":"0x60e060405234801561000f575f5ffd5b50604051612e24380380612e2483398101604081905261002e916101ae565b3060808190528390839083908390819081906001600160a01b03821661006757604051630647140b60e51b815260040160405180910390fd5b506001600160a01b0390811660a0529190911660c052506100878261009b565b6100908161010a565b505050505050610235565b806706f05b59d3b200008111156100c557604051637e6eb7fb60e01b815260040160405180910390fd5b6100ce81610172565b5f8290556040518281527fbf5ac0fc89bbf8819be79f280146b65ea2af2a9705cd9cfe0c9d93f6e87f307d906020015b60405180910390a15050565b806706f05b59d3b20000811115610134576040516353c24f4760e11b815260040160405180910390fd5b61013d81610172565b60018290556040518281527f48c5c3ccec54c4e0ea08d83d838fa9bb725eb0b52c591cb00bd6e63bca8c44f6906020016100fe565b8064174876e80061018381836101ed565b61018d919061020c565b146101ab5760405163419fd9e760e11b815260040160405180910390fd5b50565b5f5f5f606084860312156101c0575f5ffd5b83516001600160a01b03811681146101d6575f5ffd5b602085015160409095015190969495509392505050565b5f8261020757634e487b7160e01b5f52601260045260245ffd5b500490565b808202811582820484141761022f57634e487b7160e01b5f52601160045260245ffd5b92915050565b60805160a05160c051612b636102c15f395f81816105490152818161058301528181610e710152818161113e015281816111e2015281816112e6015281816114b40152818161159901528181611653015281816118520152818161197601528181611a3c01528181611b30015261205001525f8181610d660152611e1f01525f610cf20152612b635ff3fe608060405234801561000f575f5ffd5b50600436106101aa575f3560e01c80630252aab5146101ae5780630874327f146101e95780630b8e059b146101fe5780630ddd60c6146102265780631377c16c146102395780632772d1561461024c5780632e1d388d1461025b5780633af527121461026a57806352f125f01461027d57806355fb76af146102905780635c15a0b4146102985780635e32e4e81461024c57806371447ea8146102fb57806371ecc8fb1461030e57806377ff76e7146103215780637869ee18146103495780637a2b97dc14610350578063851c1bb3146103a55780638a3c5c69146103b85780638d928af8146103cb5780638df44c54146103e05780638f4ab9ca146104005780639e95f3fd14610413578063a93df2a414610426578063aa9fea8714610439578063aaabadc514610471578063abaa335614610479578063b53a70b21461048c578063b8abccd11461049f578063c673bdaf146104b2578063cf7b287f146104ed578063f29aaa5814610500578063f706144514610521578063fa399f2a14610534578063fbfa77cf14610547578063fd267f391461056d575b5f5ffd5b6101d66101bc36600461249b565b6001600160a01b03165f9081526006602052604090205490565b6040519081526020015b60405180910390f35b6101fc6101f736600461249b565b610580565b005b6101d661020c36600461249b565b6001600160a01b03165f9081526005602052604090205490565b6101d66102343660046124bd565b610945565b6101fc6102473660046124dd565b610959565b6101d66706f05b59d3b2000081565b6101d6670de0ad9b58f1600081565b6101fc6102783660046124dd565b6109a8565b6101fc61028b36600461249b565b6109f1565b6001546101d6565b6102ed6102a636600461249b565b6001600160a01b03165f908152600260209081526040918290208251808401909352546001600160401b038116808452600160401b90910460ff1615159290910182905291565b6040516101e0929190612507565b6101fc61030936600461249b565b610a06565b6101fc61031c36600461249b565b610a81565b61033461032f366004612524565b610af7565b604080519283526020830191909152016101e0565b5f546101d6565b6102ed61035e36600461249b565b6001600160a01b03165f908152600360209081526040918290208251808401909352546001600160401b038116808452600160401b90910460ff1615159290910182905291565b6101d66103b336600461256c565b610cef565b6101fc6103c6366004612593565b610d53565b6103d3610d64565b6040516101e091906125aa565b6103f36103ee36600461249b565b610d8d565b6040516101e091906125be565b6101fc61040e36600461249b565b610e6f565b6103f361042136600461249b565b610f3e565b6101fc610434366004612593565b611018565b61044c61044736600461249b565b611029565b604080516001600160a01b0390941684526020840192909252908201526060016101e0565b6103d3611066565b6101fc6104873660046124dd565b6110ce565b6101fc61049a366004612600565b61111f565b6101fc6104ad3660046124dd565b6111c5565b6104dd6104c036600461249b565b6001600160a01b03165f9081526004602052604090205460ff1690565b60405190151581526020016101e0565b6101fc6104fb36600461263d565b61125e565b61051361050e36600461249b565b6112b1565b6040516101e0929190612674565b6101fc61052f36600461263d565b6112c6565b6101fc61054236600461249b565b6112da565b7f00000000000000000000000000000000000000000000000000000000000000006103d3565b6101fc61057b3660046124dd565b611381565b5f7f00000000000000000000000000000000000000000000000000000000000000006001600160a01b03166385f2dbd46040518163ffffffff1660e01b8152600401602060405180830381865afa1580156105dd573d5f5f3e3d5ffd5b505050506040513d601f19601f8201168201806040525081019061060191906126c9565b9050306001600160a01b0382160361062c5760405163b82fd5bf60e01b815260040160405180910390fd5b6001600160a01b0382165f9081526004602052604090205460ff161561067057816040516301b6ee3960e71b815260040161066791906125aa565b60405180910390fd5b6001600160a01b038083165f908152600460208190526040808320805460ff1916600117905551631705682d60e21b81529192839290851691635c15a0b4916106bb918891016125aa565b6040805180830381865afa1580156106d5573d5f5f3e3d5ffd5b505050506040513d601f19601f820116820180604052508101906106f991906126e4565b915091506040518060400160405280610711846113d2565b6001600160401b0390811682528315156020928301526001600160a01b038088165f9081526002845260408082208651815497909601511515600160401b026001600160481b03199097169590941694909417949094179091559051631e8ae5f760e21b81528291861690637a2b97dc906107909089906004016125aa565b6040805180830381865afa1580156107aa573d5f5f3e3d5ffd5b505050506040513d601f19601f820116820180604052508101906107ce91906126e4565b9150915060405180604001604052806107e6846113d2565b6001600160401b0390811682528315156020928301526001600160a01b03808a165f908152600384526040908190208551815496909501511515600160401b026001600160481b0319909616949093169390931793909317905551630b8e059b60e01b815290861690630b8e059b906108639089906004016125aa565b602060405180830381865afa92505050801561089c575060408051601f3d908101601f1916820190925261089991810190612708565b60015b156108ba576001600160a01b0387165f908152600560205260409020555b604051630252aab560e01b81526001600160a01b03861690630252aab5906108e69089906004016125aa565b602060405180830381865afa92505050801561091f575060408051601f3d908101601f1916820190925261091c91810190612708565b60015b1561093d576001600160a01b0387165f908152600660205260409020555b505050505050565b5f61095083836113dc565b90505b92915050565b816109638161141d565b81670de0ad9b58f1600081111561098c5760405162dc369d60e21b815260040160405180910390fd5b8361099681610e6f565b6109a185855f61147f565b5050505050565b816109b28161141d565b81670de0ad9b58f160008111156109db5760405162dc369d60e21b815260040160405180910390fd5b836109e581610e6f565b6109a18585600161147f565b610a03816109fe8361164f565b6116e7565b50565b80610a1081610e6f565b6001600160a01b0382165f908152600360209081526040918290208251808401909352546001600160401b0381168352600160401b900460ff1615801591830182905260015491610a6b575081516001600160401b03168114155b15610a7b57610a7b84825f6117e3565b50505050565b80610a8b81610e6f565b6001600160a01b0382165f9081526002602090815260408083208151808301909252546001600160401b0381168252600160401b900460ff16158015928201839052925490929091610ae7575081516001600160401b03168114155b15610a7b57610a7b84825f611908565b5f5f610b01611a31565b6001600160a01b0385165f908152600460205260409020805460ff1916600117905582610b2f575f54610b31565b5f5b915082610b4057600154610b42565b5f5b90506040518060400160405280610b58846113d2565b6001600160401b0390811682528515156020928301526001600160a01b0388165f908152600283526040908190208451815495909401511515600160401b026001600160481b0319909516939092169290921792909217909155805180820190915280610bc4836113d2565b6001600160401b0390811682528515156020928301526001600160a01b0388165f818152600384526040908190208551815496909501511515600160401b026001600160481b03199096169490931693909317939093179055517fa34ad86562f9716c2f1e723934cc63f44a9b4695cb8535c30dd8308d03a7856490610c4d9085908790612507565b60405180910390a2846001600160a01b03167fce1d009285405b74cf77294916c17664de2c84eef81225c71f265f823b358bcb8285604051610c90929190612507565b60405180910390a2836001600160a01b0316856001600160a01b03167fd9725c347996d9a5d6001b5f7c2a2515d365258012fceff4f49e84310ed0791285604051610cdf911515815260200190565b60405180910390a3935093915050565b5f7f000000000000000000000000000000000000000000000000000000000000000082604051602001610d369291909182526001600160e01b031916602082015260240190565b604051602081830303815290604052805190602001209050919050565b610d5b611a7e565b610a0381611abc565b7f000000000000000000000000000000000000000000000000000000000000000090565b905090565b60605f5f610d9a84611b2b565b91509150806001600160401b03811115610db657610db661271f565b604051908082528060200260200182016040528015610ddf578160200160208202803683370190505b5092505f5b81811015610e67576001600160a01b0385165f9081526007602052604081208451909190859084908110610e1a57610e1a612733565b60200260200101516001600160a01b03166001600160a01b031681526020019081526020015f2054848281518110610e5457610e54612733565b6020908102919091010152600101610de4565b505050919050565b7f00000000000000000000000000000000000000000000000000000000000000006001600160a01b03166348c8949182604051602401610eaf91906125aa565b60408051601f198184030181529181526020820180516001600160e01b0316637d1ccf9560e11b179052516001600160e01b031960e084901b168152610ef89190600401612747565b5f604051808303815f875af1158015610f13573d5f5f3e3d5ffd5b505050506040513d5f823e601f3d908101601f19168201604052610f3a91908101906127ac565b5050565b60605f5f610f4b84611b2b565b91509150806001600160401b03811115610f6757610f6761271f565b604051908082528060200260200182016040528015610f90578160200160208202803683370190505b5092505f5b81811015610e67576001600160a01b0385165f9081526008602052604081208451909190859084908110610fcb57610fcb612733565b60200260200101516001600160a01b03166001600160a01b031681526020019081526020015f205484828151811061100557611005612733565b6020908102919091010152600101610f95565b611020611a7e565b610a0381611bc6565b5f5f5f6110358461164f565b6001600160a01b03949094165f90815260056020908152604080832054600690925290912054949590949350915050565b5f61106f610d64565b6001600160a01b031663aaabadc56040518163ffffffff1660e01b8152600401602060405180830381865afa1580156110aa573d5f5f3e3d5ffd5b505050506040513d601f19601f82011682018060405250810190610d8891906126c9565b6110d6611a7e565b806706f05b59d3b20000811115611100576040516353c24f4760e11b815260040160405180910390fd5b61110981611c2e565b8261111381610e6f565b610a7b848460016117e3565b611127611a7e565b60405163c9c1661b60e01b81526001600160a01b037f0000000000000000000000000000000000000000000000000000000000000000169063c9c1661b90611175908690859060040161283e565b6040805180830381865afa15801561118f573d5f5f3e3d5ffd5b505050506040513d601f19601f820116820180604052508101906111b39190612858565b50506111c0838383611c67565b505050565b6001600160a01b038083165f9081526005602052604081208390557f00000000000000000000000000000000000000000000000000000000000000009091169063a03b23ef908490611218908290611d22565b6040518363ffffffff1660e01b815260040161123592919061287a565b5f604051808303815f87803b15801561124c575f5ffd5b505af115801561093d573d5f5f3e3d5ffd5b611266611a7e565b5f5f61127184611b2b565b90925090505f5b818110156109a1575f83828151811061129357611293612733565b602002602001015190506112a8868683611c67565b50600101611278565b60605f6112bd83611b2b565b91509150915091565b816112d08161141d565b6111c083836116e7565b6112e2611a31565b5f5f7f00000000000000000000000000000000000000000000000000000000000000006001600160a01b0316638f4ab9ca846040518263ffffffff1660e01b815260040161133091906125aa565b5f604051808303815f875af115801561134b573d5f5f3e3d5ffd5b505050506040513d5f823e601f3d908101601f19168201604052611372919081019061291f565b915091506111c0838383611dba565b611389611a7e565b806706f05b59d3b200008111156113b357604051637e6eb7fb60e01b815260040160405180910390fd5b6113bc81611c2e565b826113c681610e6f565b610a7b84846001611908565b5f61095382611dd1565b5f6113f782670de0b6b3a76400008581039086100290611de9565b6114019084612998565b905064174876e80061141381836129ab565b61095091906129ca565b5f6114278261164f565b90506001600160a01b0381166114525781604051638bcbf35360e01b815260040161066791906125aa565b6001600160a01b0381163314610f3a573382604051633efb36fd60e21b815260040161066792919061283e565b5f816001811115611492576114926129e1565b0361157c576001600160a01b038084165f9081526005602052604081208490557f000000000000000000000000000000000000000000000000000000000000000090911690635e0b06f49085906114ea908290611d22565b6040518363ffffffff1660e01b815260040161150792919061287a565b5f604051808303815f87803b15801561151e575f5ffd5b505af1158015611530573d5f5f3e3d5ffd5b50505050826001600160a01b03167fb7cf36369623c01ed7b2eafc4025224e924a2836d5fb49428a0f65417586bf5c8360405161156f91815260200190565b60405180910390a2505050565b6001600160a01b038084165f9081526006602052604090208390557f00000000000000000000000000000000000000000000000000000000000000001663e253670a846115ca816001611d22565b6040518363ffffffff1660e01b81526004016115e792919061287a565b5f604051808303815f87803b1580156115fe575f5ffd5b505af1158015611610573d5f5f3e3d5ffd5b50505050826001600160a01b03167f47f70ddbc624c299cef7841aaea0a86b677c800203e953104e958c9ec9bdab348360405161156f91815260200190565b5f5f7f00000000000000000000000000000000000000000000000000000000000000006001600160a01b031663e9ddeb26846040518263ffffffff1660e01b815260040161169d91906125aa565b606060405180830381865afa1580156116b8573d5f5f3e3d5ffd5b505050506040513d601f19601f820116820180604052508101906116dc91906129f5565b604001519392505050565b5f5f6116f284611b2b565b90925090505f5b818110156109a1575f83828151811061171457611714612733565b6020908102919091018101516001600160a01b038089165f9081526008845260408082209284168252919093529091205490915080156117d9576001600160a01b038088165f90815260086020908152604080832093861680845293909152812055611781908783611e11565b856001600160a01b0316826001600160a01b0316886001600160a01b03167f938f3a3a03ee425ccc0f8010b0468938cbafd3750fa43bbdf09c6f75e97e51f9846040516117d091815260200190565b60405180910390a45b50506001016116f9565b60405180604001604052806117f7846113d2565b6001600160401b0390811682528315156020928301526001600160a01b038087165f90815260038452604090208451815495909401511515600160401b026001600160481b03199095169390921692909217929092179091557f00000000000000000000000000000000000000000000000000000000000000001663e253670a84611883816001611d22565b6040518363ffffffff1660e01b81526004016118a092919061287a565b5f604051808303815f87803b1580156118b7575f5ffd5b505af11580156118c9573d5f5f3e3d5ffd5b50505050826001600160a01b03167faf47449d1c3597ccc9f5ec3acad03cef57aa90a719000441b320687087948efd8360405161156f91815260200190565b604051806040016040528061191c846113d2565b6001600160401b0390811682528315156020928301526001600160a01b038087165f90815260028452604081208551815496909501511515600160401b026001600160481b031990961694909316939093179390931790557f000000000000000000000000000000000000000000000000000000000000000090911690635e0b06f49085906119ac908290611d22565b6040518363ffffffff1660e01b81526004016119c992919061287a565b5f604051808303815f87803b1580156119e0575f5ffd5b505af11580156119f2573d5f5f3e3d5ffd5b50505050826001600160a01b03167f97cff4b6e6d80e307faab8b730d9f69264e860f2e0e10cfb8cdaf8a2f44e839e8360405161156f91815260200190565b336001600160a01b037f00000000000000000000000000000000000000000000000000000000000000001614611a7c573360405163089676d560e01b815260040161066791906125aa565b565b5f611a935f356001600160e01b031916610cef565b9050611a9f8133611e1c565b610a03576040516323dada5360e01b815260040160405180910390fd5b806706f05b59d3b20000811115611ae657604051637e6eb7fb60e01b815260040160405180910390fd5b611aef81611c2e565b5f8290556040518281527fbf5ac0fc89bbf8819be79f280146b65ea2af2a9705cd9cfe0c9d93f6e87f307d906020015b60405180910390a15050565b60605f7f00000000000000000000000000000000000000000000000000000000000000006001600160a01b031663ca4f2803846040518263ffffffff1660e01b8152600401611b7a91906125aa565b5f60405180830381865afa158015611b94573d5f5f3e3d5ffd5b505050506040513d5f823e601f3d908101601f19168201604052611bbb9190810190612a66565b915081519050915091565b806706f05b59d3b20000811115611bf0576040516353c24f4760e11b815260040160405180910390fd5b611bf981611c2e565b60018290556040518281527f48c5c3ccec54c4e0ea08d83d838fa9bb725eb0b52c591cb00bd6e63bca8c44f690602001611b1f565b8064174876e800611c3f81836129ab565b611c4991906129ca565b14610a035760405163419fd9e760e11b815260040160405180910390fd5b6001600160a01b038084165f908152600760209081526040808320938516835292905220548015610a7b576001600160a01b038085165f90815260076020908152604080832093861680845293909152812055611cc5908483611e11565b826001600160a01b0316826001600160a01b0316856001600160a01b03167f1c2887fcb98f75e66bb9a36311f2d3d22fb204e6362106f30e9df7eaf63131b584604051611d1491815260200190565b60405180910390a450505050565b5f808080846001811115611d3857611d386129e1565b03611d745750506001600160a01b0383165f908152600260209081526040808320546005909252909120546001600160401b0390911690611da7565b50506001600160a01b0383165f908152600360209081526040808320546006909252909120546001600160401b03909116905b611db182826113dc565b95945050505050565b611dc5835f84611f14565b6111c083600183611f14565b5f600160401b8210611de557611de56123ab565b5090565b5f80611df583856129ca565b9050611e09670de0b6b3a7640000826129ab565b949350505050565b6111c08383836123b8565b5f7f00000000000000000000000000000000000000000000000000000000000000006001600160a01b031663aaabadc56040518163ffffffff1660e01b8152600401602060405180830381865afa158015611e79573d5f5f3e3d5ffd5b505050506040513d601f19601f82011682018060405250810190611e9d91906126c9565b6040516326f8aa2160e21b8152600481018590526001600160a01b0384811660248301523060448301529190911690639be2a88490606401602060405180830381865afa158015611ef0573d5f5f3e3d5ffd5b505050506040513d601f19601f820116820180604052508101906109509190612aff565b5f80836001811115611f2857611f286129e1565b14611f53576001600160a01b0384165f908152600360205260409020546001600160401b0316611f75565b6001600160a01b0384165f908152600260205260409020546001600160401b03165b6001600160401b031690505f80846001811115611f9457611f946129e1565b14611fb6576001600160a01b0385165f90815260066020526040902054611fcf565b6001600160a01b0385165f908152600560205260409020545b90505f5f5f83118015611fe157505f84115b90508015611ff657611ff384846113dc565b91505b5f5f61200189611b2b565b90925090505f5b8181101561239f575f88828151811061202357612023612733565b60200260200101511115612397575f83828151811061204457612044612733565b602002602001015190507f00000000000000000000000000000000000000000000000000000000000000006001600160a01b031663ae63932982308c868151811061209157612091612733565b60209081029190910101516040516001600160e01b031960e086901b1681526001600160a01b03938416600482015292909116602483015260448201526064015f604051808303815f87803b1580156120e8575f5ffd5b505af11580156120fa573d5f5f3e3d5ffd5b505f9250612106915050565b8a6001811115612118576121186129e1565b0361218857806001600160a01b03168b6001600160a01b03167fae7ebad9fc3d1d17965f063fa520d393595e2ef6c8e22ae8413b60900444e19f8b858151811061216457612164612733565b602002602001015160405161217b91815260200190565b60405180910390a36121ef565b806001600160a01b03168b6001600160a01b03167fe505e41b0d437b47350a9990142ccf38acb11ffa0e5af8f973b9e172f3d5d5e28b85815181106121cf576121cf612733565b60200260200101516040516121e691815260200190565b60405180910390a35b84156122d9575f612222878b858151811061220c5761220c612733565b602002602001015161240290919063ffffffff16565b90505f61222f828b612416565b6001600160a01b03808f165f90815260076020908152604080832093881683529290529081208054929350839290919061226a908490612998565b92505081905550808b858151811061228457612284612733565b60200260200101516122969190612b1a565b6001600160a01b03808f165f908152600860209081526040808320938816835292905290812080549091906122cc908490612998565b9091555061239592505050565b865f0361233d578882815181106122f2576122f2612733565b6020908102919091018101516001600160a01b03808e165f9081526007845260408082209286168252919093528220805491929091612332908490612998565b909155506123959050565b88828151811061234f5761234f612733565b6020908102919091018101516001600160a01b03808e165f908152600884526040808220928616825291909352822080549192909161238f908490612998565b90915550505b505b600101612008565b50505050505050505050565b6335278d125f526004601cfd5b816014528060345263a9059cbb60601b5f5260205f604460105f875af18060015f5114166123f857803d853b1517106123f8576390b8ec185f526004601cfd5b505f603452505050565b5f61095083670de0b6b3a764000084612442565b5f8061242283856129ca565b90506001670de0b6b3a76400006001830304018115150291505092915050565b5f815f0361246357604051630a0c22c760e01b815260040160405180910390fd5b5f61246e84866129ca565b9050600183600183030401811515029150509392505050565b6001600160a01b0381168114610a03575f5ffd5b5f602082840312156124ab575f5ffd5b81356124b681612487565b9392505050565b5f5f604083850312156124ce575f5ffd5b50508035926020909101359150565b5f5f604083850312156124ee575f5ffd5b82356124f981612487565b946020939093013593505050565b9182521515602082015260400190565b8015158114610a03575f5ffd5b5f5f5f60608486031215612536575f5ffd5b833561254181612487565b9250602084013561255181612487565b9150604084013561256181612517565b809150509250925092565b5f6020828403121561257c575f5ffd5b81356001600160e01b0319811681146124b6575f5ffd5b5f602082840312156125a3575f5ffd5b5035919050565b6001600160a01b0391909116815260200190565b602080825282518282018190525f918401906040840190835b818110156125f55783518352602093840193909201916001016125d7565b509095945050505050565b5f5f5f60608486031215612612575f5ffd5b833561261d81612487565b9250602084013561262d81612487565b9150604084013561256181612487565b5f5f6040838503121561264e575f5ffd5b823561265981612487565b9150602083013561266981612487565b809150509250929050565b604080825283519082018190525f9060208501906060840190835b818110156126b65783516001600160a01b031683526020938401939092019160010161268f565b5050602093909301939093525092915050565b5f602082840312156126d9575f5ffd5b81516124b681612487565b5f5f604083850312156126f5575f5ffd5b8251602084015190925061266981612517565b5f60208284031215612718575f5ffd5b5051919050565b634e487b7160e01b5f52604160045260245ffd5b634e487b7160e01b5f52603260045260245ffd5b602081525f82518060208401528060208501604085015e5f604082850101526040601f19601f83011684010191505092915050565b604051601f8201601f191681016001600160401b03811182821017156127a4576127a461271f565b604052919050565b5f602082840312156127bc575f5ffd5b81516001600160401b038111156127d1575f5ffd5b8201601f810184136127e1575f5ffd5b80516001600160401b038111156127fa576127fa61271f565b61280d601f8201601f191660200161277c565b818152856020838501011115612821575f5ffd5b8160208401602083015e5f91810160200191909152949350505050565b6001600160a01b0392831681529116602082015260400190565b5f5f60408385031215612869575f5ffd5b505080516020909101519092909150565b6001600160a01b03929092168252602082015260400190565b5f6001600160401b038211156128ab576128ab61271f565b5060051b60200190565b5f82601f8301126128c4575f5ffd5b81516128d76128d282612893565b61277c565b8082825260208201915060208360051b8601019250858311156128f8575f5ffd5b602085015b838110156129155780518352602092830192016128fd565b5095945050505050565b5f5f60408385031215612930575f5ffd5b82516001600160401b03811115612945575f5ffd5b612951858286016128b5565b602085015190935090506001600160401b0381111561296e575f5ffd5b61297a858286016128b5565b9150509250929050565b634e487b7160e01b5f52601160045260245ffd5b8082018082111561095357610953612984565b5f826129c557634e487b7160e01b5f52601260045260245ffd5b500490565b808202811582820484141761095357610953612984565b634e487b7160e01b5f52602160045260245ffd5b5f6060828403128015612a06575f5ffd5b50604051606081016001600160401b0381118282101715612a2957612a2961271f565b6040528251612a3781612487565b81526020830151612a4781612487565b60208201526040830151612a5a81612487565b60408201529392505050565b5f60208284031215612a76575f5ffd5b81516001600160401b03811115612a8b575f5ffd5b8201601f81018413612a9b575f5ffd5b8051612aa96128d282612893565b8082825260208201915060208360051b850101925086831115612aca575f5ffd5b6020840193505b82841015612af5578351612ae481612487565b825260209384019390910190612ad1565b9695505050505050565b5f60208284031215612b0f575f5ffd5b81516124b681612517565b818103818111156109535761095361298456fea2646970667358221220ddd7500e9dc6f4055671e14f67a81dc0e0bc12f9deb6d97954aa0b433eb1af0364736f6c634300081e0033","linkReferences":{}},"methodIdentifiers":{"MAX_CREATOR_FEE_PERCENTAGE()":"2e1d388d","MAX_PROTOCOL_SWAP_FEE_PERCENTAGE()":"2772d156","MAX_PROTOCOL_YIELD_FEE_PERCENTAGE()":"5e32e4e8","collectAggregateFees(address)":"8f4ab9ca","collectAggregateFeesHook(address)":"fa399f2a","computeAggregateFeePercentage(uint256,uint256)":"0ddd60c6","getActionId(bytes4)":"851c1bb3","getAuthorizer()":"aaabadc5","getGlobalProtocolSwapFeePercentage()":"7869ee18","getGlobalProtocolYieldFeePercentage()":"55fb76af","getPoolCreatorFeeAmounts(address)":"9e95f3fd","getPoolCreatorInfo(address)":"aa9fea87","getPoolCreatorSwapFeePercentage(address)":"0b8e059b","getPoolCreatorYieldFeePercentage(address)":"0252aab5","getPoolProtocolSwapFeeInfo(address)":"5c15a0b4","getPoolProtocolYieldFeeInfo(address)":"7a2b97dc","getPoolTokensAndCount(address)":"f29aaa58","getProtocolFeeAmounts(address)":"8df44c54","getVault()":"8d928af8","isPoolRegistered(address)":"c673bdaf","manualSetPoolCreatorSwapFeePercentage(address,uint256)":"b8abccd1","migratePool(address)":"0874327f","registerPool(address,address,bool)":"77ff76e7","setGlobalProtocolSwapFeePercentage(uint256)":"8a3c5c69","setGlobalProtocolYieldFeePercentage(uint256)":"a93df2a4","setPoolCreatorSwapFeePercentage(address,uint256)":"1377c16c","setPoolCreatorYieldFeePercentage(address,uint256)":"3af52712","setProtocolSwapFeePercentage(address,uint256)":"fd267f39","setProtocolYieldFeePercentage(address,uint256)":"abaa3356","updateProtocolSwapFeePercentage(address)":"71ecc8fb","updateProtocolYieldFeePercentage(address)":"71447ea8","vault()":"fbfa77cf","withdrawPoolCreatorFees(address)":"52f125f0","withdrawPoolCreatorFees(address,address)":"f7061445","withdrawProtocolFees(address,address)":"cf7b287f","withdrawProtocolFeesForToken(address,address,address)":"b53a70b2"},"id":383}