{"abi":[{"type":"function","name":"permit2","inputs":[],"outputs":[{"name":"","type":"address","internalType":"contract IPermit2"}],"stateMutability":"view"}],"bytecode":{"object":"0x6080604052348015600e575f5ffd5b506101008061001c5f395ff3fe6080604052348015600e575f5ffd5b50600436106026575f3560e01c806312261ee714602a575b5f5ffd5b6030604c565b6040516001600160a01b03909116815260200160405180910390f35b5f60536058565b905090565b5f60536061606e565b546001600160a01b031690565b5f605360405160200160b1906020808252601d908201527f70726f746f636f6c732e7574696c732e7065726d6974322e6177617265000000604082015260600190565b604051602081830303815290604052805190602001209056fea26469706673582212203a20c5c489eb23590553fc6d4bf9003e39dd124ab867c983b5e172110148fa9964736f6c634300081e0033","linkReferences":{}},"methodIdentifiers":{"permit2()":"12261ee7"},"id":1259}