{"abi":[{"type":"constructor","inputs":[{"name":"owner_","type":"address","internalType":"address"}],"stateMutability":"nonpayable"},{"type":"function","name":"acceptOwnershipTransfer","inputs":[],"outputs":[],"stateMutability":"nonpayable"},{"type":"function","name":"allFacets","inputs":[],"outputs":[{"name":"facetAddresses","type":"address[]","internalType":"address[]"}],"stateMutability":"view"},{"type":"function","name":"allPackages","inputs":[],"outputs":[{"name":"packages","type":"address[]","internalType":"address[]"}],"stateMutability":"view"},{"type":"function","name":"cancelPendingOwnershipTransfer","inputs":[],"outputs":[],"stateMutability":"nonpayable"},{"type":"function","name":"confirmOwnershipTransfer","inputs":[{"name":"pendingOwner_","type":"address","internalType":"address"}],"outputs":[],"stateMutability":"nonpayable"},{"type":"function","name":"create3","inputs":[{"name":"initCode","type":"bytes","internalType":"bytes"},{"name":"salt","type":"bytes32","internalType":"bytes32"}],"outputs":[{"name":"proxy","type":"address","internalType":"address"}],"stateMutability":"nonpayable"},{"type":"function","name":"create3WithArgs","inputs":[{"name":"initCode","type":"bytes","internalType":"bytes"},{"name":"initData_","type":"bytes","internalType":"bytes"},{"name":"salt","type":"bytes32","internalType":"bytes32"}],"outputs":[{"name":"proxy","type":"address","internalType":"address"}],"stateMutability":"nonpayable"},{"type":"function","name":"deployFacet","inputs":[{"name":"initCode","type":"bytes","internalType":"bytes"},{"name":"salt","type":"bytes32","internalType":"bytes32"}],"outputs":[{"name":"facet","type":"address","internalType":"contract IFacet"}],"stateMutability":"nonpayable"},{"type":"function","name":"deployFacetWithArgs","inputs":[{"name":"initCode","type":"bytes","internalType":"bytes"},{"name":"initArgs","type":"bytes","internalType":"bytes"},{"name":"salt","type":"bytes32","internalType":"bytes32"}],"outputs":[{"name":"facet","type":"address","internalType":"contract IFacet"}],"stateMutability":"nonpayable"},{"type":"function","name":"deployPackage","inputs":[{"name":"initCode","type":"bytes","internalType":"bytes"},{"name":"salt","type":"bytes32","internalType":"bytes32"}],"outputs":[{"name":"package","type":"address","internalType":"contract IDiamondFactoryPackage"}],"stateMutability":"nonpayable"},{"type":"function","name":"deployPackageWithArgs","inputs":[{"name":"initCode","type":"bytes","internalType":"bytes"},{"name":"constructorArgs","type":"bytes","internalType":"bytes"},{"name":"salt","type":"bytes32","internalType":"bytes32"}],"outputs":[{"name":"package","type":"address","internalType":"contract IDiamondFactoryPackage"}],"stateMutability":"nonpayable"},{"type":"function","name":"diamondPackageFactory","inputs":[],"outputs":[{"name":"","type":"address","internalType":"contract IDiamondPackageCallBackFactory"}],"stateMutability":"view"},{"type":"function","name":"facetsOfFunction","inputs":[{"name":"functionSelector","type":"bytes4","internalType":"bytes4"}],"outputs":[{"name":"facetAddresses","type":"address[]","internalType":"address[]"}],"stateMutability":"view"},{"type":"function","name":"facetsOfInterface","inputs":[{"name":"interfaceId","type":"bytes4","internalType":"bytes4"}],"outputs":[{"name":"facetAddresses","type":"address[]","internalType":"address[]"}],"stateMutability":"view"},{"type":"function","name":"facetsOfName","inputs":[{"name":"name","type":"string","internalType":"string"}],"outputs":[{"name":"facetAddresses","type":"address[]","internalType":"address[]"}],"stateMutability":"view"},{"type":"function","name":"facetsOfPackage","inputs":[{"name":"package","type":"address","internalType":"contract IDiamondFactoryPackage"},{"name":"","type":"uint256","internalType":"uint256"}],"outputs":[{"name":"facets","type":"address","internalType":"address"}],"stateMutability":"view"},{"type":"function","name":"functionsOfFacet","inputs":[{"name":"facet","type":"address","internalType":"contract IFacet"},{"name":"","type":"uint256","internalType":"uint256"}],"outputs":[{"name":"functions","type":"bytes4","internalType":"bytes4"}],"stateMutability":"view"},{"type":"function","name":"getOwnershipTransferBuffer","inputs":[],"outputs":[{"name":"","type":"uint256","internalType":"uint256"}],"stateMutability":"view"},{"type":"function","name":"initiateOwnershipTransfer","inputs":[{"name":"pendingOwner_","type":"address","internalType":"address"}],"outputs":[],"stateMutability":"nonpayable"},{"type":"function","name":"interfacesOfFacet","inputs":[{"name":"facet","type":"address","internalType":"contract IFacet"},{"name":"","type":"uint256","internalType":"uint256"}],"outputs":[{"name":"interfaces","type":"bytes4","internalType":"bytes4"}],"stateMutability":"view"},{"type":"function","name":"interfacesOfPackage","inputs":[{"name":"package","type":"address","internalType":"contract IDiamondFactoryPackage"},{"name":"","type":"uint256","internalType":"uint256"}],"outputs":[{"name":"interfaces","type":"bytes4","internalType":"bytes4"}],"stateMutability":"view"},{"type":"function","name":"isOperator","inputs":[{"name":"query","type":"address","internalType":"address"}],"outputs":[{"name":"","type":"bool","internalType":"bool"}],"stateMutability":"view"},{"type":"function","name":"isOperatorFor","inputs":[{"name":"func","type":"bytes4","internalType":"bytes4"},{"name":"query","type":"address","internalType":"address"}],"outputs":[{"name":"","type":"bool","internalType":"bool"}],"stateMutability":"view"},{"type":"function","name":"nameOfFacet","inputs":[{"name":"facet","type":"address","internalType":"contract IFacet"}],"outputs":[{"name":"name","type":"string","internalType":"string"}],"stateMutability":"view"},{"type":"function","name":"nameOfPackage","inputs":[{"name":"package","type":"address","internalType":"contract IDiamondFactoryPackage"}],"outputs":[{"name":"name","type":"string","internalType":"string"}],"stateMutability":"view"},{"type":"function","name":"owner","inputs":[],"outputs":[{"name":"","type":"address","internalType":"address"}],"stateMutability":"view"},{"type":"function","name":"packagesByFacet","inputs":[{"name":"facet","type":"address","internalType":"contract IFacet"}],"outputs":[{"name":"packages","type":"address[]","internalType":"address[]"}],"stateMutability":"view"},{"type":"function","name":"packagesByInterface","inputs":[{"name":"interfaceId","type":"bytes4","internalType":"bytes4"}],"outputs":[{"name":"packages","type":"address[]","internalType":"address[]"}],"stateMutability":"view"},{"type":"function","name":"packagesByName","inputs":[{"name":"name","type":"string","internalType":"string"}],"outputs":[{"name":"packages","type":"address[]","internalType":"address[]"}],"stateMutability":"view"},{"type":"function","name":"pendingOwner","inputs":[],"outputs":[{"name":"","type":"address","internalType":"address"}],"stateMutability":"view"},{"type":"function","name":"preConfirmedOwner","inputs":[],"outputs":[{"name":"","type":"address","internalType":"address"}],"stateMutability":"view"},{"type":"function","name":"registerFacet","inputs":[{"name":"facet","type":"address","internalType":"contract IFacet"},{"name":"name","type":"string","internalType":"string"},{"name":"interfaces","type":"bytes4[]","internalType":"bytes4[]"},{"name":"functions","type":"bytes4[]","internalType":"bytes4[]"}],"outputs":[{"name":"","type":"bool","internalType":"bool"}],"stateMutability":"nonpayable"},{"type":"function","name":"registerPackage","inputs":[{"name":"package","type":"address","internalType":"contract IDiamondFactoryPackage"},{"name":"name","type":"string","internalType":"string"},{"name":"interfaces","type":"bytes4[]","internalType":"bytes4[]"},{"name":"facets","type":"address[]","internalType":"address[]"}],"outputs":[{"name":"","type":"bool","internalType":"bool"}],"stateMutability":"nonpayable"},{"type":"function","name":"setDiamondPackageFactory","inputs":[{"name":"diamondPackageFactory_","type":"address","internalType":"contract IDiamondPackageCallBackFactory"}],"outputs":[{"name":"","type":"bool","internalType":"bool"}],"stateMutability":"nonpayable"},{"type":"function","name":"setOperator","inputs":[{"name":"operator","type":"address","internalType":"address"},{"name":"status","type":"bool","internalType":"bool"}],"outputs":[{"name":"","type":"bool","internalType":"bool"}],"stateMutability":"nonpayable"},{"type":"function","name":"setOperatorFor","inputs":[{"name":"func","type":"bytes4","internalType":"bytes4"},{"name":"newOperator","type":"address","internalType":"address"},{"name":"approval","type":"bool","internalType":"bool"}],"outputs":[{"name":"","type":"bool","internalType":"bool"}],"stateMutability":"nonpayable"},{"type":"event","name":"NewFunctionOperatorStatus","inputs":[{"name":"operator","type":"address","indexed":false,"internalType":"address"},{"name":"func","type":"bytes4","indexed":false,"internalType":"bytes4"},{"name":"status","type":"bool","indexed":false,"internalType":"bool"}],"anonymous":false},{"type":"event","name":"NewGlobalOperatorStatus","inputs":[{"name":"operator","type":"address","indexed":false,"internalType":"address"},{"name":"status","type":"bool","indexed":false,"internalType":"bool"}],"anonymous":false},{"type":"event","name":"OwnershipTransferConfirmed","inputs":[{"name":"prevOwner","type":"address","indexed":true,"internalType":"address"},{"name":"newOwner","type":"address","indexed":true,"internalType":"address"}],"anonymous":false},{"type":"event","name":"OwnershipTransferInitiated","inputs":[{"name":"prevOwner","type":"address","indexed":true,"internalType":"address"},{"name":"newOwner","type":"address","indexed":true,"internalType":"address"}],"anonymous":false},{"type":"event","name":"OwnershipTransferred","inputs":[{"name":"prevOwner","type":"address","indexed":true,"internalType":"address"},{"name":"newOwner","type":"address","indexed":true,"internalType":"address"}],"anonymous":false},{"type":"error","name":"BufferPeriodNotElapsed","inputs":[{"name":"currentTime","type":"uint256","internalType":"uint256"},{"name":"bufferEndTime","type":"uint256","internalType":"uint256"}]},{"type":"error","name":"ErrorCreatingContract","inputs":[]},{"type":"error","name":"ErrorCreatingProxy","inputs":[]},{"type":"error","name":"NotOperator","inputs":[{"name":"caller","type":"address","internalType":"address"}]},{"type":"error","name":"NotOwner","inputs":[{"name":"caller","type":"address","internalType":"address"}]},{"type":"error","name":"NotPending","inputs":[{"name":"caller","type":"address","internalType":"address"}]},{"type":"error","name":"TargetAlreadyExists","inputs":[]}],"bytecode":{"object":"0x6080604052348015600e575f5ffd5b5060405161241d38038061241d833981016040819052602b916083565b6036816203f480603b565b5060ae565b607f7f552e522d4f9b6a3d443b47299f900b7b1bce2dacca532b0186b605495413451d80546001600160a01b0319166001600160a01b038516178155600201829055565b5050565b5f602082840312156092575f5ffd5b81516001600160a01b038116811460a7575f5ffd5b9392505050565b612362806100bb5f395ff3fe608060405234801561000f575f5ffd5b50600436106101aa575f3560e01c80630d20b70a146101ae5780630f9f2530146101d65780630fe96d13146101ec57806315fe57881461020b5780631af1b0c41461022b5780631cdca5df146102335780631f7fe4db14610246578063383f5adf146102595780633c213957146102855780634e097bd01461029a57806350e4fe75146102a2578063558a7297146102b557806357c7cde1146102c857806363f296d1146102db5780636d70f7ae146102ee57806372ad9d5414610301578063737293e214610314578063755dbe7c1461031c5780637ff8bd871461032f5780638da5cb5b1461034f5780639e0eca2c14610357578063a73e31311461036a578063a7b62a7f1461037d578063ad0619af14610390578063b2da46ef146103a3578063b842e87f146103b6578063b92811c5146103be578063ba63b814146103c6578063c0b6f561146103d9578063cb08be22146103ec578063dc715dc1146103ff578063e30c397814610412578063e3ff70d61461041a578063ea562a251461042d578063ec5d149314610440578063ede8016b14610453575b5f5ffd5b6101c16101bc3660046119eb565b610466565b60405190151581526020015b60405180910390f35b6101de610486565b6040519081526020016101cd565b5f546101fe906001600160a01b031681565b6040516101cd9190611a89565b61021e610219366004611ae1565b610494565b6040516101cd9190611b1f565b6101fe61053f565b6101c1610241366004611b6a565b610548565b6101fe610254366004611b85565b610574565b61026c610267366004611bf1565b610592565b6040516001600160e01b031990911681526020016101cd565b610298610293366004611b6a565b6105d3565b005b61021e6105df565b61021e6102b0366004611ae1565b610640565b6101c16102c3366004611c2a565b61066b565b61021e6102d6366004611c5d565b610687565b6101fe6102e9366004611c78565b610704565b6101c16102fc366004611b6a565b61074d565b6101fe61030f366004611cbf565b610757565b6102986107dd565b6101c161032a366004611d30565b6107e7565b61034261033d366004611b6a565b610805565b6040516101cd9190611d74565b6101fe61089c565b6101fe610365366004611bf1565b6108a5565b6101c1610378366004611da9565b6108d9565b6101fe61038b366004611ea7565b6108ee565b6101fe61039e366004611c78565b61092c565b61021e6103b1366004611c5d565b610975565b610298610998565b61021e6109a0565b61021e6103d4366004611c5d565b6109a9565b6102986103e7366004611b6a565b6109cc565b61021e6103fa366004611b6a565b6109d5565b61026c61040d366004611bf1565b6109f7565b6101fe610a10565b610342610428366004611b6a565b610a19565b6101c161043b366004611ee8565b610a31565b6101fe61044e366004611cbf565b610a3c565b61026c610461366004611bf1565b610ab8565b5f61046f610ad1565b61047b85858585610ae1565b506001949350505050565b5f61048f610c31565b905090565b60606104df60075f6104cc86866040516020016104b2929190611f1f565b604051602081830303815290604052805160209091012090565b81526020019081526020015f2060010190565b80548060200260200160405190810160405280929190818152602001828054801561053157602002820191905f5260205f20905b81546001600160a01b03168152600190910190602001808311610513575b505050505090505b92915050565b5f61048f610c44565b5f610551610c55565b505f80546001600160a01b0319166001600160a01b03831617905560015b919050565b5f61057d610ad1565b610588848484610c65565b90505b9392505050565b6005602052815f5260405f2081815481106105ab575f80fd5b905f5260205f209060089182820401919006600402915091509054906101000a900460e01b81565b6105dc81610c91565b50565b6060600b5b80548060200260200160405190810160405280929190818152602001828054801561063657602002820191905f5260205f20905b81546001600160a01b03168152600190910190602001808311610618575b5050505050905090565b60606104df600c8484604051610657929190611f4d565b908152602001604051809103902060010190565b5f610674610c55565b61067e8383610ca2565b50600192915050565b6001600160e01b031981165f908152600d602052604090206060906001015b8054806020026020016040519081016040528092919081815260200182805480156106f857602002820191905f5260205f20905b81546001600160a01b031681526001909101906020018083116106da575b50505050509050919050565b5f61070d610ad1565b61058884848080601f0160208091040260200160405190810160405280939291908181526020018383808284375f92019190915250869250610cb8915050565b5f61053982610cce565b5f610760610ad1565b6107d386868080601f0160208091040260200160405190810160405280939291908181526020018383808284375f9201919091525050604080516020601f8a0181900481028201810190925288815292508891508790819084018382808284375f92019190915250879250610ce0915050565b9695505050505050565b6107e5610cf7565b565b5f6107f0610c55565b6107fb848484610d07565b5060019392505050565b60046020525f90815260409020805461081d90611f5c565b80601f016020809104026020016040519081016040528092919081815260200182805461084990611f5c565b80156108945780601f1061086b57610100808354040283529160200191610894565b820191905f5260205f20905b81548152906001019060200180831161087757829003601f168201915b505050505081565b5f61048f610d1f565b6006602052815f5260405f2081815481106108be575f80fd5b5f918252602090912001546001600160a01b03169150829050565b5f6108e2610ad1565b61047b85858585610d38565b5f6108f7610ad1565b5f61090183610e72565b90506001600160a01b0381163b1561091a579050610539565b6109248484610e7d565b949350505050565b5f610935610ad1565b61058884848080601f0160208091040260200160405190810160405280939291908181526020018383808284375f92019190915250869250610e88915050565b6001600160e01b031981165f9081526009602052604090206060906001016106a6565b6107e5610e9e565b606060106105e4565b6001600160e01b031981165f9081526008602052604090206060906001016106a6565b6105dc81610eae565b6001600160a01b0381165f908152600e602052604090206060906001016106a6565b6003602052815f5260405f2081815481106105ab575f80fd5b5f61048f610ebf565b60016020525f90815260409020805461081d90611f5c565b5f61058b8383610edb565b5f610a45610ad1565b6107d386868080601f0160208091040260200160405190810160405280939291908181526020018383808284375f9201919091525050604080516020601f8a0181900481028201810190925288815292508891508790819084018382808284375f92019190915250879250610eee915050565b6002602052815f5260405f2081815481106105ab575f80fd5b6107e5610adc610f05565b610f5b565b6001600160a01b0384165f908152600160205260409020610b028482611fd8565b506001600160a01b0384165f9081526002602090815260409091208351610b2b92850190611764565b506001600160a01b0384165f9081526003602090815260409091208251610b5492840190611764565b50610b60600a85610fca565b50610b978460075f610b7c876040516020016104b29190611d74565b81526020019081526020015f20610fca90919063ffffffff16565b505f5b8251811015610bfc57610bf38560085f868581518110610bbc57610bbc612092565b60200260200101516001600160e01b0319166001600160e01b03191681526020019081526020015f20610fca90919063ffffffff16565b50600101610b9a565b505f5b8151811015610c2a57610c218560095f858581518110610bbc57610bbc612092565b50600101610bff565b5050505050565b5f61048f610c3d61102e565b6002015490565b5f61048f610c5061102e565b611052565b6107e5610c6061102e565b61107f565b5f6105888484604051602001610c7c9291906120bd565b60405160208183030381529060405283610e7d565b6105dc610c9c61102e565b826110ab565b610cb4610cad610f05565b8383611194565b5050565b5f610cc383836108ee565b9050610539816111fd565b5f610539610cda610f05565b8361127a565b5f610cec848484610574565b905061058b81611298565b6107e5610d0261102e565b61130f565b610d1a610d12610f05565b848484611358565b505050565b5f61048f610d2b61102e565b546001600160a01b031690565b6001600160a01b0384165f908152600460205260409020610d598482611fd8565b506001600160a01b0384165f9081526005602090815260409091208351610d8292850190611764565b506001600160a01b0384165f9081526006602090815260409091208251610dab9284019061180d565b50610dd584600c85604051610dc091906120d1565b90815260405190819003602001902090610fca565b505f5b8251811015610e0357610dfa85600d5f868581518110610bbc57610bbc612092565b50600101610dd8565b505f5b8151811015610e6657610e5d85600e5f858581518110610e2857610e28612092565b60200260200101516001600160a01b03166001600160a01b031681526020019081526020015f20610fca90919063ffffffff16565b50600101610e06565b50610c2a600f85610fca565b5f61053930836113e3565b5f61058b83836113f7565b5f610e9383836108ee565b905061053981611298565b6107e5610ea961102e565b611403565b6105dc610eb961102e565b8261149d565b5f61048f610ecb61102e565b600101546001600160a01b031690565b5f61058b610ee7610f05565b8484611531565b5f610efa848484610574565b905061058b816111fd565b5f61048f604051602001610f42906020808252601590820152746372616e652e6163636573732e6f70657261626c6560581b604082015260600190565b6040516020818303038152906040528051906020012090565b33610f64610d1f565b6001600160a01b031614158015610f825750610f80813361127a565b155b8015610fa15750610f9f815f356001600160e01b03191633611531565b155b156105dc5733604051633b63649d60e11b8152600401610fc19190611a89565b60405180910390fd5b6001600160a01b0381165f9081526020839052604081205461067e57506001828101805480830182555f828152602080822090920180546001600160a01b0319166001600160a01b0396909616958617905591549382529390935260409092205590565b7f552e522d4f9b6a3d443b47299f900b7b1bce2dacca532b0186b605495413451d90565b60018101545f90600160a01b900460ff1661106e57505f919050565b50600101546001600160a01b031690565b80546001600160a01b031633146105dc573360405163245aecd360e01b8152600401610fc19190611a89565b81546001600160a01b03163381146110d8573360405163245aecd360e01b8152600401610fc19190611a89565b826003015442101561110c57600383015460405163d64ede7360e01b81524260048201526024810191909152604401610fc1565b60018301546001600160a01b039081169083168114611140578260405163a7fa19b160e01b8152600401610fc19190611a89565b60018401805460ff60a01b198116600160a01b179091556040516001600160a01b03918216918416907f646fe5eeb20d96ea45a9caafcb508854a2fb5660885ced7772e12a633c974571905f90a350505050565b61119c610c55565b6001600160a01b0382165f8181526020858152604091829020805460ff19168515159081179091558251938452908301527f26ba28058a3c072a70c8fd315037fe9b3957237cef5c61a9652a8da41c673daa910160405180910390a1505050565b5f5f5f836001600160a01b031663f10d7a756040518163ffffffff1660e01b81526004015f60405180830381865afa15801561123b573d5f5f3e3d5ffd5b505050506040513d5f823e601f3d908101601f19168201604052611262919081019061218d565b92509250925061127484848484610ae1565b50505050565b6001600160a01b03165f908152602091909152604090205460ff1690565b5f5f5f836001600160a01b031663f45469e76040518163ffffffff1660e01b81526004015f60405180830381865afa1580156112d6573d5f5f3e3d5ffd5b505050506040513d5f823e601f3d908101601f191682016040526112fd919081019061221c565b92509250925061127484848484610d38565b80546001600160a01b031633811461133c573360405163245aecd360e01b8152600401610fc19190611a89565b506001810180546001600160a81b03191690555f600390910155565b611360610c55565b6001600160e01b031983165f81815260018601602090815260408083206001600160a01b03871680855290835292819020805486151560ff1990911681179091558151938452918301939093528183015290517ff071216dc06459e77b915d1883909d92f41239172000b60261dfdc03518895699181900360600190a150505050565b5f61058b6001600160a01b0384168361156a565b5f61058b83838361162f565b60018101546001600160a01b0316338114611433573360405163a7fa19b160e01b8152600401610fc19190611a89565b81546001600160a01b038281166001600160a01b03198316811785556001850180546001600160a81b03191690555f600386018190556040519290931692909183917f8be0079c531659141344cd1fd0a4f28419497f9722a3daafe3b4186f6b6457e091a3505050565b81546001600160a01b03163381146114ca573360405163245aecd360e01b8152600401610fc19190611a89565b60028301546114d9904261230d565b60038401556001830180546001600160a01b0319166001600160a01b0384811691821790925560405190918316907fb150023a879fd806e3599b6ca8ee3b60f0e360ab3846d128d67ebce1a391639a905f90a3505050565b6001600160e01b031982165f90815260018401602090815260408083206001600160a01b038516845290915290205460ff169392505050565b604080518082018252601081526f67363d3d37363d34f03d5260086018f360801b60209182015290516001600160f81b0319918101919091526001600160601b0319606084901b166021820152603581018290527f21c35dbe1b344a2488cf3321d6ce542f8e9f305544ff09e4993a62319a497c1f60558201525f9081906115f490607501610f42565b6040516135a560f21b60208201526001600160601b0319606083901b166022820152600160f81b603682015290915061092490603701610f42565b60408051808201909152601081526f67363d3d37363d34f03d5260086018f360801b60208201525f9061166184611759565b91506001600160a01b0382163b1561168c5760405163cd43efa160e01b815260040160405180910390fd5b5f848251602084015ff590506001600160a01b0381166116bf5760405163bbd2fe8760e01b815260040160405180910390fd5b5f816001600160a01b031685886040516116d991906120d1565b5f6040518083038185875af1925050503d805f8114611713576040519150601f19603f3d011682016040523d82523d5f602084013e611718565b606091505b5050905080158061173157506001600160a01b0384163b155b1561174f576040516353de54b960e01b815260040160405180910390fd5b5050509392505050565b5f610539308361156a565b828054828255905f5260205f20906007016008900481019282156117fd579160200282015f5b838211156117cb57835183826101000a81548163ffffffff021916908360e01c0217905550926020019260040160208160030104928301926001030261178a565b80156117fb5782816101000a81549063ffffffff02191690556004016020816003010492830192600103026117cb565b505b50611809929150611860565b5090565b828054828255905f5260205f209081019282156117fd579160200282015b828111156117fd57825182546001600160a01b0319166001600160a01b0390911617825560209092019160019091019061182b565b5b80821115611809575f8155600101611861565b6001600160a01b03811681146105dc575f5ffd5b634e487b7160e01b5f52604160045260245ffd5b604051601f8201601f191681016001600160401b03811182821017156118c4576118c4611888565b604052919050565b5f6001600160401b038211156118e4576118e4611888565b50601f01601f191660200190565b5f82601f830112611901575f5ffd5b8135602083015f611919611914846118cc565b61189c565b905082815285838301111561192c575f5ffd5b828260208301375f92810160200192909252509392505050565b5f6001600160401b0382111561195e5761195e611888565b5060051b60200190565b6001600160e01b0319811681146105dc575f5ffd5b5f82601f83011261198c575f5ffd5b813561199a61191482611946565b8082825260208201915060208360051b8601019250858311156119bb575f5ffd5b602085015b838110156119e15780356119d381611968565b8352602092830192016119c0565b5095945050505050565b5f5f5f5f608085870312156119fe575f5ffd5b8435611a0981611874565b935060208501356001600160401b03811115611a23575f5ffd5b611a2f878288016118f2565b93505060408501356001600160401b03811115611a4a575f5ffd5b611a568782880161197d565b92505060608501356001600160401b03811115611a71575f5ffd5b611a7d8782880161197d565b91505092959194509250565b6001600160a01b0391909116815260200190565b5f5f83601f840112611aad575f5ffd5b5081356001600160401b03811115611ac3575f5ffd5b602083019150836020828501011115611ada575f5ffd5b9250929050565b5f5f60208385031215611af2575f5ffd5b82356001600160401b03811115611b07575f5ffd5b611b1385828601611a9d565b90969095509350505050565b602080825282518282018190525f918401906040840190835b81811015611b5f5783516001600160a01b0316835260209384019390920191600101611b38565b509095945050505050565b5f60208284031215611b7a575f5ffd5b813561058b81611874565b5f5f5f60608486031215611b97575f5ffd5b83356001600160401b03811115611bac575f5ffd5b611bb8868287016118f2565b93505060208401356001600160401b03811115611bd3575f5ffd5b611bdf868287016118f2565b93969395505050506040919091013590565b5f5f60408385031215611c02575f5ffd5b8235611c0d81611874565b946020939093013593505050565b8035801515811461056f575f5ffd5b5f5f60408385031215611c3b575f5ffd5b8235611c4681611874565b9150611c5460208401611c1b565b90509250929050565b5f60208284031215611c6d575f5ffd5b813561058b81611968565b5f5f5f60408486031215611c8a575f5ffd5b83356001600160401b03811115611c9f575f5ffd5b611cab86828701611a9d565b909790965060209590950135949350505050565b5f5f5f5f5f60608688031215611cd3575f5ffd5b85356001600160401b03811115611ce8575f5ffd5b611cf488828901611a9d565b90965094505060208601356001600160401b03811115611d12575f5ffd5b611d1e88828901611a9d565b96999598509660400135949350505050565b5f5f5f60608486031215611d42575f5ffd5b8335611d4d81611968565b92506020840135611d5d81611874565b9150611d6b60408501611c1b565b90509250925092565b602081525f82518060208401528060208501604085015e5f604082850101526040601f19601f83011684010191505092915050565b5f5f5f5f60808587031215611dbc575f5ffd5b8435611dc781611874565b935060208501356001600160401b03811115611de1575f5ffd5b611ded878288016118f2565b93505060408501356001600160401b03811115611e08575f5ffd5b611e148782880161197d565b92505060608501356001600160401b03811115611e2f575f5ffd5b8501601f81018713611e3f575f5ffd5b8035611e4d61191482611946565b8082825260208201915060208360051b850101925089831115611e6e575f5ffd5b6020840193505b82841015611e99578335611e8881611874565b825260209384019390910190611e75565b969995985093965050505050565b5f5f60408385031215611eb8575f5ffd5b82356001600160401b03811115611ecd575f5ffd5b611ed9858286016118f2565b95602094909401359450505050565b5f5f60408385031215611ef9575f5ffd5b8235611f0481611968565b91506020830135611f1481611874565b809150509250929050565b60208152816020820152818360408301375f818301604090810191909152601f909201601f19160101919050565b818382375f9101908152919050565b600181811c90821680611f7057607f821691505b602082108103611f8e57634e487b7160e01b5f52602260045260245ffd5b50919050565b601f821115610d1a57805f5260205f20601f840160051c81016020851015611fb95750805b601f840160051c820191505b81811015610c2a575f8155600101611fc5565b81516001600160401b03811115611ff157611ff1611888565b61200581611fff8454611f5c565b84611f94565b6020601f821160018114612037575f83156120205750848201515b5f19600385901b1c1916600184901b178455610c2a565b5f84815260208120601f198516915b828110156120665787850151825560209485019460019092019101612046565b508482101561208357868401515f19600387901b60f8161c191681555b50505050600190811b01905550565b634e487b7160e01b5f52603260045260245ffd5b5f81518060208401855e5f93019283525090919050565b5f6105886120cb83866120a6565b846120a6565b5f61058b82846120a6565b5f82601f8301126120eb575f5ffd5b81516120f9611914826118cc565b81815284602083860101111561210d575f5ffd5b8160208501602083015e5f918101602001919091529392505050565b5f82601f830112612138575f5ffd5b815161214661191482611946565b8082825260208201915060208360051b860101925085831115612167575f5ffd5b602085015b838110156119e157805161217f81611968565b83526020928301920161216c565b5f5f5f6060848603121561219f575f5ffd5b83516001600160401b038111156121b4575f5ffd5b6121c0868287016120dc565b602086015190945090506001600160401b038111156121dd575f5ffd5b6121e986828701612129565b604086015190935090506001600160401b03811115612206575f5ffd5b61221286828701612129565b9150509250925092565b5f5f5f6060848603121561222e575f5ffd5b83516001600160401b03811115612243575f5ffd5b61224f868287016120dc565b602086015190945090506001600160401b0381111561226c575f5ffd5b61227886828701612129565b604086015190935090506001600160401b03811115612295575f5ffd5b8401601f810186136122a5575f5ffd5b80516122b361191482611946565b8082825260208201915060208360051b8501019250888311156122d4575f5ffd5b6020840193505b828410156122ff5783516122ee81611874565b8252602093840193909101906122db565b809450505050509250925092565b8082018082111561053957634e487b7160e01b5f52601160045260245ffdfea26469706673582212207b0e1101d4d20bcb78b2425cc1ec535390f22c885548f63d1a9807bcef54bfeb64736f6c634300081e0033","linkReferences":{}},"methodIdentifiers":{"acceptOwnershipTransfer()":"b842e87f","allFacets()":"4e097bd0","allPackages()":"b92811c5","cancelPendingOwnershipTransfer()":"737293e2","confirmOwnershipTransfer(address)":"3c213957","create3(bytes,bytes32)":"a7b62a7f","create3WithArgs(bytes,bytes,bytes32)":"1f7fe4db","deployFacet(bytes,bytes32)":"63f296d1","deployFacetWithArgs(bytes,bytes,bytes32)":"ec5d1493","deployPackage(bytes,bytes32)":"ad0619af","deployPackageWithArgs(bytes,bytes,bytes32)":"72ad9d54","diamondPackageFactory()":"0fe96d13","facetsOfFunction(bytes4)":"b2da46ef","facetsOfInterface(bytes4)":"ba63b814","facetsOfName(string)":"15fe5788","facetsOfPackage(address,uint256)":"9e0eca2c","functionsOfFacet(address,uint256)":"dc715dc1","getOwnershipTransferBuffer()":"0f9f2530","initiateOwnershipTransfer(address)":"c0b6f561","interfacesOfFacet(address,uint256)":"ede8016b","interfacesOfPackage(address,uint256)":"383f5adf","isOperator(address)":"6d70f7ae","isOperatorFor(bytes4,address)":"ea562a25","nameOfFacet(address)":"e3ff70d6","nameOfPackage(address)":"7ff8bd87","owner()":"8da5cb5b","packagesByFacet(address)":"cb08be22","packagesByInterface(bytes4)":"57c7cde1","packagesByName(string)":"50e4fe75","pendingOwner()":"e30c3978","preConfirmedOwner()":"1af1b0c4","registerFacet(address,string,bytes4[],bytes4[])":"0d20b70a","registerPackage(address,string,bytes4[],address[])":"a73e3131","setDiamondPackageFactory(address)":"1cdca5df","setOperator(address,bool)":"558a7297","setOperatorFor(bytes4,address,bool)":"755dbe7c"},"id":537}