{"abi":[{"type":"constructor","inputs":[{"name":"wrappedToken","type":"address","internalType":"contract IERC4626"}],"stateMutability":"nonpayable"},{"type":"function","name":"getRate","inputs":[],"outputs":[{"name":"","type":"uint256","internalType":"uint256"}],"stateMutability":"view"}],"bytecode":{"object":"0x60a0604052348015600e575f5ffd5b5060405161019d38038061019d833981016040819052602b91603b565b6001600160a01b03166080526066565b5f60208284031215604a575f5ffd5b81516001600160a01b0381168114605f575f5ffd5b9392505050565b60805161012061007d5f395f606101526101205ff3fe6080604052348015600e575f5ffd5b50600436106026575f3560e01c8063679aefce14602a575b5f5ffd5b60306042565b60405190815260200160405180910390f35b60405163266d6a8360e11b8152670de0b6b3a764000060048201525f907f00000000000000000000000000000000000000000000000000000000000000006001600160a01b031690634cdad50690602401602060405180830381865afa15801560ad573d5f5f3e3d5ffd5b505050506040513d601f19601f8201168201806040525081019060cf919060d4565b905090565b5f6020828403121560e3575f5ffd5b505191905056fea26469706673582212208bada4cb011c10b2f3a9ec54efdf3a53cf9fd12b4b839bb38ad8f2cbc9a5a5e364736f6c634300081e0033","linkReferences":{}},"methodIdentifiers":{"getRate()":"679aefce"},"id":373}