{"abi":[{"type":"constructor","inputs":[{"name":"params","type":"tuple","internalType":"struct ReClammPoolParams","components":[{"name":"name","type":"string","internalType":"string"},{"name":"symbol","type":"string","internalType":"string"},{"name":"version","type":"string","internalType":"string"},{"name":"dailyPriceShiftExponent","type":"uint256","internalType":"uint256"},{"name":"centerednessMargin","type":"uint64","internalType":"uint64"},{"name":"initialMinPrice","type":"uint256","internalType":"uint256"},{"name":"initialMaxPrice","type":"uint256","internalType":"uint256"},{"name":"initialTargetPrice","type":"uint256","internalType":"uint256"},{"name":"tokenAPriceIncludesRate","type":"bool","internalType":"bool"},{"name":"tokenBPriceIncludesRate","type":"bool","internalType":"bool"}]},{"name":"vault","type":"address","internalType":"contract IVault"},{"name":"poolExtension","type":"address","internalType":"contract IReClammPoolExtension"},{"name":"hookContract","type":"address","internalType":"address"}],"stateMutability":"nonpayable"},{"type":"fallback","stateMutability":"payable"},{"type":"receive","stateMutability":"payable"},{"type":"function","name":"DOMAIN_SEPARATOR","inputs":[],"outputs":[{"name":"","type":"bytes32","internalType":"bytes32"}],"stateMutability":"view"},{"type":"function","name":"PERMIT_TYPEHASH","inputs":[],"outputs":[{"name":"","type":"bytes32","internalType":"bytes32"}],"stateMutability":"view"},{"type":"function","name":"allowance","inputs":[{"name":"owner","type":"address","internalType":"address"},{"name":"spender","type":"address","internalType":"address"}],"outputs":[{"name":"","type":"uint256","internalType":"uint256"}],"stateMutability":"view"},{"type":"function","name":"approve","inputs":[{"name":"spender","type":"address","internalType":"address"},{"name":"amount","type":"uint256","internalType":"uint256"}],"outputs":[{"name":"","type":"bool","internalType":"bool"}],"stateMutability":"nonpayable"},{"type":"function","name":"balanceOf","inputs":[{"name":"account","type":"address","internalType":"address"}],"outputs":[{"name":"","type":"uint256","internalType":"uint256"}],"stateMutability":"view"},{"type":"function","name":"computeBalance","inputs":[{"name":"","type":"uint256[]","internalType":"uint256[]"},{"name":"","type":"uint256","internalType":"uint256"},{"name":"","type":"uint256","internalType":"uint256"}],"outputs":[{"name":"","type":"uint256","internalType":"uint256"}],"stateMutability":"pure"},{"type":"function","name":"computeCurrentVirtualBalances","inputs":[{"name":"balancesScaled18","type":"uint256[]","internalType":"uint256[]"}],"outputs":[{"name":"currentVirtualBalanceA","type":"uint256","internalType":"uint256"},{"name":"currentVirtualBalanceB","type":"uint256","internalType":"uint256"},{"name":"changed","type":"bool","internalType":"bool"}],"stateMutability":"view"},{"type":"function","name":"computeInitialBalanceRatio","inputs":[],"outputs":[{"name":"","type":"uint256","internalType":"uint256"}],"stateMutability":"view"},{"type":"function","name":"computeInitialBalancesRaw","inputs":[{"name":"referenceToken","type":"address","internalType":"contract IERC20"},{"name":"referenceAmountInRaw","type":"uint256","internalType":"uint256"}],"outputs":[{"name":"initialBalancesRaw","type":"uint256[]","internalType":"uint256[]"}],"stateMutability":"view"},{"type":"function","name":"computeInvariant","inputs":[{"name":"balancesScaled18","type":"uint256[]","internalType":"uint256[]"},{"name":"rounding","type":"uint8","internalType":"enum Rounding"}],"outputs":[{"name":"","type":"uint256","internalType":"uint256"}],"stateMutability":"view"},{"type":"function","name":"decimals","inputs":[],"outputs":[{"name":"","type":"uint8","internalType":"uint8"}],"stateMutability":"pure"},{"type":"function","name":"eip712Domain","inputs":[],"outputs":[{"name":"fields","type":"bytes1","internalType":"bytes1"},{"name":"name","type":"string","internalType":"string"},{"name":"version","type":"string","internalType":"string"},{"name":"chainId","type":"uint256","internalType":"uint256"},{"name":"verifyingContract","type":"address","internalType":"address"},{"name":"salt","type":"bytes32","internalType":"bytes32"},{"name":"extensions","type":"uint256[]","internalType":"uint256[]"}],"stateMutability":"view"},{"type":"function","name":"emitApproval","inputs":[{"name":"owner","type":"address","internalType":"address"},{"name":"spender","type":"address","internalType":"address"},{"name":"amount","type":"uint256","internalType":"uint256"}],"outputs":[],"stateMutability":"nonpayable"},{"type":"function","name":"emitTransfer","inputs":[{"name":"from","type":"address","internalType":"address"},{"name":"to","type":"address","internalType":"address"},{"name":"amount","type":"uint256","internalType":"uint256"}],"outputs":[],"stateMutability":"nonpayable"},{"type":"function","name":"getActionId","inputs":[{"name":"selector","type":"bytes4","internalType":"bytes4"}],"outputs":[{"name":"","type":"bytes32","internalType":"bytes32"}],"stateMutability":"view"},{"type":"function","name":"getAggregateFeePercentages","inputs":[],"outputs":[{"name":"aggregateSwapFeePercentage","type":"uint256","internalType":"uint256"},{"name":"aggregateYieldFeePercentage","type":"uint256","internalType":"uint256"}],"stateMutability":"view"},{"type":"function","name":"getCurrentLiveBalances","inputs":[],"outputs":[{"name":"balancesLiveScaled18","type":"uint256[]","internalType":"uint256[]"}],"stateMutability":"view"},{"type":"function","name":"getHookFlags","inputs":[],"outputs":[{"name":"hookFlags","type":"tuple","internalType":"struct HookFlags","components":[{"name":"enableHookAdjustedAmounts","type":"bool","internalType":"bool"},{"name":"shouldCallBeforeInitialize","type":"bool","internalType":"bool"},{"name":"shouldCallAfterInitialize","type":"bool","internalType":"bool"},{"name":"shouldCallComputeDynamicSwapFee","type":"bool","internalType":"bool"},{"name":"shouldCallBeforeSwap","type":"bool","internalType":"bool"},{"name":"shouldCallAfterSwap","type":"bool","internalType":"bool"},{"name":"shouldCallBeforeAddLiquidity","type":"bool","internalType":"bool"},{"name":"shouldCallAfterAddLiquidity","type":"bool","internalType":"bool"},{"name":"shouldCallBeforeRemoveLiquidity","type":"bool","internalType":"bool"},{"name":"shouldCallAfterRemoveLiquidity","type":"bool","internalType":"bool"}]}],"stateMutability":"view"},{"type":"function","name":"getMaximumInvariantRatio","inputs":[],"outputs":[{"name":"","type":"uint256","internalType":"uint256"}],"stateMutability":"pure"},{"type":"function","name":"getMaximumSwapFeePercentage","inputs":[],"outputs":[{"name":"","type":"uint256","internalType":"uint256"}],"stateMutability":"pure"},{"type":"function","name":"getMinimumInvariantRatio","inputs":[],"outputs":[{"name":"","type":"uint256","internalType":"uint256"}],"stateMutability":"pure"},{"type":"function","name":"getMinimumSwapFeePercentage","inputs":[],"outputs":[{"name":"","type":"uint256","internalType":"uint256"}],"stateMutability":"pure"},{"type":"function","name":"getRate","inputs":[],"outputs":[{"name":"","type":"uint256","internalType":"uint256"}],"stateMutability":"pure"},{"type":"function","name":"getReClammPoolExtension","inputs":[],"outputs":[{"name":"","type":"address","internalType":"address"}],"stateMutability":"view"},{"type":"function","name":"getStaticSwapFeePercentage","inputs":[],"outputs":[{"name":"","type":"uint256","internalType":"uint256"}],"stateMutability":"view"},{"type":"function","name":"getTokenInfo","inputs":[],"outputs":[{"name":"tokens","type":"address[]","internalType":"contract IERC20[]"},{"name":"tokenInfo","type":"tuple[]","internalType":"struct TokenInfo[]","components":[{"name":"tokenType","type":"uint8","internalType":"enum TokenType"},{"name":"rateProvider","type":"address","internalType":"contract IRateProvider"},{"name":"paysYieldFees","type":"bool","internalType":"bool"}]},{"name":"balancesRaw","type":"uint256[]","internalType":"uint256[]"},{"name":"lastBalancesLiveScaled18","type":"uint256[]","internalType":"uint256[]"}],"stateMutability":"view"},{"type":"function","name":"getTokens","inputs":[],"outputs":[{"name":"tokens","type":"address[]","internalType":"contract IERC20[]"}],"stateMutability":"view"},{"type":"function","name":"getVault","inputs":[],"outputs":[{"name":"","type":"address","internalType":"contract IVault"}],"stateMutability":"view"},{"type":"function","name":"incrementNonce","inputs":[],"outputs":[],"stateMutability":"nonpayable"},{"type":"function","name":"isPoolWithinTargetRange","inputs":[],"outputs":[{"name":"","type":"bool","internalType":"bool"}],"stateMutability":"view"},{"type":"function","name":"manualSetCenterednessMargin","inputs":[{"name":"newCenterednessMargin","type":"uint256","internalType":"uint256"}],"outputs":[],"stateMutability":"nonpayable"},{"type":"function","name":"manualStartPriceRatioUpdate","inputs":[{"name":"endPriceRatio","type":"uint256","internalType":"uint256"},{"name":"priceRatioUpdateStartTime","type":"uint256","internalType":"uint256"},{"name":"priceRatioUpdateEndTime","type":"uint256","internalType":"uint256"}],"outputs":[{"name":"startPriceRatio","type":"uint256","internalType":"uint256"}],"stateMutability":"nonpayable"},{"type":"function","name":"name","inputs":[],"outputs":[{"name":"","type":"string","internalType":"string"}],"stateMutability":"view"},{"type":"function","name":"nonces","inputs":[{"name":"owner","type":"address","internalType":"address"}],"outputs":[{"name":"","type":"uint256","internalType":"uint256"}],"stateMutability":"view"},{"type":"function","name":"onBeforeAddLiquidity","inputs":[{"name":"router","type":"address","internalType":"address"},{"name":"pool","type":"address","internalType":"address"},{"name":"kind","type":"uint8","internalType":"enum AddLiquidityKind"},{"name":"maxAmountsInScaled18","type":"uint256[]","internalType":"uint256[]"},{"name":"exactBptAmountOut","type":"uint256","internalType":"uint256"},{"name":"balancesScaled18","type":"uint256[]","internalType":"uint256[]"},{"name":"userData","type":"bytes","internalType":"bytes"}],"outputs":[{"name":"","type":"bool","internalType":"bool"}],"stateMutability":"nonpayable"},{"type":"function","name":"onBeforeInitialize","inputs":[{"name":"exactAmountsInScaled18","type":"uint256[]","internalType":"uint256[]"},{"name":"userData","type":"bytes","internalType":"bytes"}],"outputs":[{"name":"","type":"bool","internalType":"bool"}],"stateMutability":"nonpayable"},{"type":"function","name":"onBeforeRemoveLiquidity","inputs":[{"name":"router","type":"address","internalType":"address"},{"name":"pool","type":"address","internalType":"address"},{"name":"kind","type":"uint8","internalType":"enum RemoveLiquidityKind"},{"name":"exactBptAmountIn","type":"uint256","internalType":"uint256"},{"name":"minAmountsOutScaled18","type":"uint256[]","internalType":"uint256[]"},{"name":"balancesScaled18","type":"uint256[]","internalType":"uint256[]"},{"name":"userData","type":"bytes","internalType":"bytes"}],"outputs":[{"name":"","type":"bool","internalType":"bool"}],"stateMutability":"nonpayable"},{"type":"function","name":"onRegister","inputs":[{"name":"factory","type":"address","internalType":"address"},{"name":"pool","type":"address","internalType":"address"},{"name":"tokenConfig","type":"tuple[]","internalType":"struct TokenConfig[]","components":[{"name":"token","type":"address","internalType":"contract IERC20"},{"name":"tokenType","type":"uint8","internalType":"enum TokenType"},{"name":"rateProvider","type":"address","internalType":"contract IRateProvider"},{"name":"paysYieldFees","type":"bool","internalType":"bool"}]},{"name":"liquidityManagement","type":"tuple","internalType":"struct LiquidityManagement","components":[{"name":"disableUnbalancedLiquidity","type":"bool","internalType":"bool"},{"name":"enableAddLiquidityCustom","type":"bool","internalType":"bool"},{"name":"enableRemoveLiquidityCustom","type":"bool","internalType":"bool"},{"name":"enableDonation","type":"bool","internalType":"bool"}]}],"outputs":[{"name":"success","type":"bool","internalType":"bool"}],"stateMutability":"nonpayable"},{"type":"function","name":"onSwap","inputs":[{"name":"request","type":"tuple","internalType":"struct PoolSwapParams","components":[{"name":"kind","type":"uint8","internalType":"enum SwapKind"},{"name":"amountGivenScaled18","type":"uint256","internalType":"uint256"},{"name":"balancesScaled18","type":"uint256[]","internalType":"uint256[]"},{"name":"indexIn","type":"uint256","internalType":"uint256"},{"name":"indexOut","type":"uint256","internalType":"uint256"},{"name":"router","type":"address","internalType":"address"},{"name":"userData","type":"bytes","internalType":"bytes"}]}],"outputs":[{"name":"amountCalculatedScaled18","type":"uint256","internalType":"uint256"}],"stateMutability":"nonpayable"},{"type":"function","name":"permit","inputs":[{"name":"owner","type":"address","internalType":"address"},{"name":"spender","type":"address","internalType":"address"},{"name":"amount","type":"uint256","internalType":"uint256"},{"name":"deadline","type":"uint256","internalType":"uint256"},{"name":"v","type":"uint8","internalType":"uint8"},{"name":"r","type":"bytes32","internalType":"bytes32"},{"name":"s","type":"bytes32","internalType":"bytes32"}],"outputs":[],"stateMutability":"nonpayable"},{"type":"function","name":"reInitialize","inputs":[{"name":"balancesScaled18","type":"uint256[]","internalType":"uint256[]"},{"name":"minPrice","type":"uint256","internalType":"uint256"},{"name":"maxPrice","type":"uint256","internalType":"uint256"},{"name":"targetPrice","type":"uint256","internalType":"uint256"},{"name":"initialPriceShiftDailyRate","type":"uint128","internalType":"uint128"},{"name":"centerednessMargin","type":"uint256","internalType":"uint256"}],"outputs":[{"name":"virtualBalanceA","type":"uint256","internalType":"uint256"},{"name":"virtualBalanceB","type":"uint256","internalType":"uint256"}],"stateMutability":"nonpayable"},{"type":"function","name":"setCenterednessMargin","inputs":[{"name":"newCenterednessMargin","type":"uint256","internalType":"uint256"}],"outputs":[],"stateMutability":"nonpayable"},{"type":"function","name":"setDailyPriceShiftExponent","inputs":[{"name":"newDailyPriceShiftExponent","type":"uint256","internalType":"uint256"}],"outputs":[{"name":"","type":"uint256","internalType":"uint256"}],"stateMutability":"nonpayable"},{"type":"function","name":"setLastTimestamp","inputs":[{"name":"newLastTimestamp","type":"uint256","internalType":"uint256"}],"outputs":[],"stateMutability":"nonpayable"},{"type":"function","name":"setLastVirtualBalances","inputs":[{"name":"newLastVirtualBalances","type":"uint256[]","internalType":"uint256[]"}],"outputs":[],"stateMutability":"nonpayable"},{"type":"function","name":"startPriceRatioUpdate","inputs":[{"name":"endPriceRatio","type":"uint256","internalType":"uint256"},{"name":"priceRatioUpdateStartTime","type":"uint256","internalType":"uint256"},{"name":"priceRatioUpdateEndTime","type":"uint256","internalType":"uint256"}],"outputs":[{"name":"actualPriceRatioUpdateStartTime","type":"uint256","internalType":"uint256"}],"stateMutability":"nonpayable"},{"type":"function","name":"stopPriceRatioUpdate","inputs":[],"outputs":[],"stateMutability":"nonpayable"},{"type":"function","name":"supportsInterface","inputs":[{"name":"interfaceId","type":"bytes4","internalType":"bytes4"}],"outputs":[{"name":"","type":"bool","internalType":"bool"}],"stateMutability":"view"},{"type":"function","name":"symbol","inputs":[],"outputs":[{"name":"","type":"string","internalType":"string"}],"stateMutability":"view"},{"type":"function","name":"totalSupply","inputs":[],"outputs":[{"name":"","type":"uint256","internalType":"uint256"}],"stateMutability":"view"},{"type":"function","name":"transfer","inputs":[{"name":"to","type":"address","internalType":"address"},{"name":"amount","type":"uint256","internalType":"uint256"}],"outputs":[{"name":"","type":"bool","internalType":"bool"}],"stateMutability":"nonpayable"},{"type":"function","name":"transferFrom","inputs":[{"name":"from","type":"address","internalType":"address"},{"name":"to","type":"address","internalType":"address"},{"name":"amount","type":"uint256","internalType":"uint256"}],"outputs":[{"name":"","type":"bool","internalType":"bool"}],"stateMutability":"nonpayable"},{"type":"function","name":"version","inputs":[],"outputs":[{"name":"","type":"string","internalType":"string"}],"stateMutability":"view"},{"type":"event","name":"Approval","inputs":[{"name":"owner","type":"address","indexed":true,"internalType":"address"},{"name":"spender","type":"address","indexed":true,"internalType":"address"},{"name":"amount","type":"uint256","indexed":false,"internalType":"uint256"}],"anonymous":false},{"type":"event","name":"CenterednessMarginUpdated","inputs":[{"name":"centerednessMargin","type":"uint256","indexed":false,"internalType":"uint256"}],"anonymous":false},{"type":"event","name":"DailyPriceShiftExponentUpdated","inputs":[{"name":"dailyPriceShiftExponent","type":"uint256","indexed":false,"internalType":"uint256"},{"name":"dailyPriceShiftBase","type":"uint256","indexed":false,"internalType":"uint256"}],"anonymous":false},{"type":"event","name":"EIP712DomainChanged","inputs":[],"anonymous":false},{"type":"event","name":"LastTimestampUpdated","inputs":[{"name":"lastTimestamp","type":"uint32","indexed":false,"internalType":"uint32"}],"anonymous":false},{"type":"event","name":"PriceRatioStateUpdated","inputs":[{"name":"startFourthRootPriceRatio","type":"uint256","indexed":false,"internalType":"uint256"},{"name":"endFourthRootPriceRatio","type":"uint256","indexed":false,"internalType":"uint256"},{"name":"priceRatioUpdateStartTime","type":"uint256","indexed":false,"internalType":"uint256"},{"name":"priceRatioUpdateEndTime","type":"uint256","indexed":false,"internalType":"uint256"}],"anonymous":false},{"type":"event","name":"Transfer","inputs":[{"name":"from","type":"address","indexed":true,"internalType":"address"},{"name":"to","type":"address","indexed":true,"internalType":"address"},{"name":"amount","type":"uint256","indexed":false,"internalType":"uint256"}],"anonymous":false},{"type":"event","name":"VirtualBalancesUpdated","inputs":[{"name":"virtualBalanceA","type":"uint256","indexed":false,"internalType":"uint256"},{"name":"virtualBalanceB","type":"uint256","indexed":false,"internalType":"uint256"}],"anonymous":false},{"type":"error","name":"AmountOutGreaterThanBalance","inputs":[]},{"type":"error","name":"BalanceRatioExceedsTolerance","inputs":[]},{"type":"error","name":"BaseOutOfBounds","inputs":[]},{"type":"error","name":"CannotReceiveEth","inputs":[]},{"type":"error","name":"DailyPriceShiftExponentTooHigh","inputs":[]},{"type":"error","name":"ERC2612ExpiredSignature","inputs":[{"name":"deadline","type":"uint256","internalType":"uint256"}]},{"type":"error","name":"ERC2612InvalidSigner","inputs":[{"name":"signer","type":"address","internalType":"address"},{"name":"owner","type":"address","internalType":"address"}]},{"type":"error","name":"ExponentOutOfBounds","inputs":[]},{"type":"error","name":"InvalidAccountNonce","inputs":[{"name":"account","type":"address","internalType":"address"},{"name":"currentNonce","type":"uint256","internalType":"uint256"}]},{"type":"error","name":"InvalidCenterednessMargin","inputs":[]},{"type":"error","name":"InvalidExponent","inputs":[]},{"type":"error","name":"InvalidInitialPrice","inputs":[]},{"type":"error","name":"InvalidStartTime","inputs":[{"name":"resolvedStartTime","type":"uint256","internalType":"uint256"},{"name":"endTime","type":"uint256","internalType":"uint256"}]},{"type":"error","name":"InvalidStartTime","inputs":[]},{"type":"error","name":"InvalidToken","inputs":[]},{"type":"error","name":"NotImplemented","inputs":[]},{"type":"error","name":"PoolNotInitialized","inputs":[]},{"type":"error","name":"PoolOutsideTargetRange","inputs":[]},{"type":"error","name":"PriceRatioDeltaBelowMin","inputs":[{"name":"fourthRootPriceRatioDelta","type":"uint256","internalType":"uint256"}]},{"type":"error","name":"PriceRatioNotUpdating","inputs":[]},{"type":"error","name":"PriceRatioUpdateDurationTooShort","inputs":[]},{"type":"error","name":"PriceRatioUpdateTooFast","inputs":[]},{"type":"error","name":"ProductOutOfBounds","inputs":[]},{"type":"error","name":"ReClammPoolBptRateUnsupported","inputs":[]},{"type":"error","name":"SenderIsNotVault","inputs":[{"name":"sender","type":"address","internalType":"address"}]},{"type":"error","name":"SenderNotAllowed","inputs":[]},{"type":"error","name":"VaultIsNotLocked","inputs":[]},{"type":"error","name":"VaultNotSet","inputs":[]},{"type":"error","name":"WrongInitializationPrices","inputs":[]},{"type":"error","name":"WrongReClammPoolExtensionDeployment","inputs":[]},{"type":"error","name":"ZeroDivision","inputs":[]}],"bytecode":{"object":"0x610280604052348015610010575f5ffd5b50604051616f05380380616f0583398101604081905261002f916103fe565b838383838360400151833381816001600160a01b03165f1b8088898b5f01518c602001518282604051806040016040528060018152602001603160f81b815250816003908161007e91906105d2565b50600461008b82826105d2565b5081516020928301206101805280519101206101a0526001600160a01b03166101c05260066100ba83826105d2565b5060076100c782826105d2565b5050506001600160a01b039182166101e0525061020091909152821661010057604051630647140b60e51b815260040160405180910390fd5b506001600160a01b0316610220525061011a905081610270565b5061014c6040518060a001604052805f81526020015f81526020015f81526020015f151581526020015f151581525090565b60a0850151815260c0850151602082015260e0850151604082015261017081610280565b306001600160a01b0316836001600160a01b03166316f0115b6040518163ffffffff1660e01b8152600401602060405180830381865afa1580156101b6573d5f5f3e3d5ffd5b505050506040513d601f19601f820116820180604052508101906101da919061068c565b6001600160a01b0316146102015760405163e3c533f560e01b815260040160405180910390fd5b506001600160a01b039182166102605260a080850151608090815260c08087015190925260e08087015190925260608601519091528401516001600160401b03166101009081528401511515610120908152909301511515610140529190911661016052506106ae9350505050565b600861027c82826105d2565b5050565b8051158061029057506020810151155b8061029d57506040810151155b806102ac575080516040820151105b806102be575080602001518160400151115b806102ce57506020810151815110155b156102ec576040516359e6ae3360e11b815260040160405180910390fd5b50565b634e487b7160e01b5f52604160045260245ffd5b60405161014081016001600160401b0381118282101715610326576103266102ef565b60405290565b5f82601f83011261033b575f5ffd5b81516001600160401b03811115610354576103546102ef565b604051601f8201601f19908116603f011681016001600160401b0381118282101715610382576103826102ef565b604052818152838201602001851015610399575f5ffd5b8160208501602083015e5f918101602001919091529392505050565b80516001600160401b03811681146103cb575f5ffd5b919050565b805180151581146103cb575f5ffd5b6001600160a01b03811681146102ec575f5ffd5b80516103cb816103df565b5f5f5f5f60808587031215610411575f5ffd5b84516001600160401b03811115610426575f5ffd5b85016101408188031215610438575f5ffd5b610440610303565b81516001600160401b03811115610455575f5ffd5b6104618982850161032c565b82525060208201516001600160401b0381111561047c575f5ffd5b6104888982850161032c565b60208301525060408201516001600160401b038111156104a6575f5ffd5b6104b28982850161032c565b604083015250606082810151908201526104ce608083016103b5565b608082015260a0828101519082015260c0808301519082015260e080830151908201526104fe61010083016103d0565b61010082015261051161012083016103d0565b61012082015294506105279050602086016103f3565b9250610535604086016103f3565b9150610543606086016103f3565b905092959194509250565b600181811c9082168061056257607f821691505b60208210810361058057634e487b7160e01b5f52602260045260245ffd5b50919050565b601f8211156105cd57805f5260205f20601f840160051c810160208510156105ab5750805b601f840160051c820191505b818110156105ca575f81556001016105b7565b50505b505050565b81516001600160401b038111156105eb576105eb6102ef565b6105ff816105f9845461054e565b84610586565b6020601f821160018114610631575f831561061a5750848201515b5f19600385901b1c1916600184901b1784556105ca565b5f84815260208120601f198516915b828110156106605787850151825560209485019460019092019101610640565b508482101561067d57868401515f19600387901b60f8161c191681555b50505050600190811b01905550565b5f6020828403121561069c575f5ffd5b81516106a7816103df565b9392505050565b60805160a05160c05160e05161010051610120516101405161016051610180516101a0516101c0516101e0516102005161022051610240516102605161669e6108675f395f61257201525f50505f81816108f40152818161170601528181611c5801528181611d740152613a6201525f61150a01525f81816114260152818161191f0152818161199d01528181611a500152611d1301525f8181610a4c01528181610c1801528181610f550152818161105a015281816112f00152818161156d015281816118cc01528181611ae801528181611f950152818161216601528181612211015281816125c901528181612660015281816127ba015281816127ff01528181612d7a01528181612e940152818161303f01528181613190015281816132b1015281816133b70152818161375d015261395e01525f61346201525f61343a01525f8181610b1801528181610b5f01528181610e5101528181610e95015281816111300152818161117401528181611bbe01528181611c020152818161206d015261209c01525f61290c01525f6128d501525f610e2301525f610df901525f6129b601525f61297f01525f612948015261669e5ff3fe60806040526004361061025d575f3560e01c806301ffc9a7146102a45780630673d09a146102e957806306fdde0314610308578063095ea7b3146103295780630b89f1821461034857806316a0b3e01461036757806318160ddd146103945780631c149e28146103a857806323b872dd146103c757806323de6651146103e6578063273c1adf1461040557806329e8fb051461041757806330adf81f14610438578063313ce567146104585780633644e5151461047357806345421ec7146104875780634cbbe1ad146104a657806354fd4d50146104c55780635687f2b8146104d9578063627cdcb9146104f8578063654cf15d1461050c5780636794a27814610526578063679aefce146105455780636d3d108a1461055957806370a082311461059557806372c98186146105b45780637ecebe00146105d357806381fa807c146105f257806384b0196e14610614578063851c1bb31461063b5780638d928af81461065a578063958144b21461066e57806395d89b411461068d578063984de9e8146106a1578063a0c4ba90146106c0578063a6d2e718146106df578063a9059cbb146106fe578063aa6ca8081461071d578063abb1dc441461073e578063b156aa0a14610762578063b677fa5614610405578063ba5f9f4014610783578063c66dbc4b146107a2578063ce20ece7146107c1578063d335b0cf146107d9578063d48ef377146107ed578063d4a5b63a14610801578063d505accf14610815578063d77153a714610834578063dd62ed3e14610855578063dfba381814610874578063e20be8d314610888578063e45801da146108a75761027b565b3661027b57604051637911c44b60e11b815260040160405180910390fd5b341561029a57604051637911c44b60e11b815260040160405180910390fd5b6102a26108c6565b005b3480156102af575f5ffd5b506102d46102be366004615011565b6001600160e01b0319166301ffc9a760e01b1490565b60405190151581526020015b60405180910390f35b3480156102f4575f5ffd5b506102a2610303366004615038565b6108d8565b348015610313575f5ffd5b5061031c6109a3565b6040516102e0919061507d565b348015610334575f5ffd5b506102d46103433660046150b3565b610a33565b348015610353575f5ffd5b506102d461036236600461520c565b610ad1565b348015610372575f5ffd5b5061038661038136600461539c565b610be5565b6040519081526020016102e0565b34801561039f575f5ffd5b50610386610bff565b3480156103b3575f5ffd5b506102d46103c2366004615450565b610c91565b3480156103d2575f5ffd5b506102d46103e13660046154b3565b610f1f565b3480156103f1575f5ffd5b506102a26104003660046154b3565b610fcc565b348015610410575f5ffd5b505f610386565b348015610422575f5ffd5b5061042b611026565b6040516102e091906154f1565b348015610443575f5ffd5b506103865f5160206166495f395f51905f5281565b348015610463575f5ffd5b50604051601281526020016102e0565b34801561047e575f5ffd5b5061038661102f565b348015610492575f5ffd5b506102d46104a1366004615513565b611038565b3480156104b1575f5ffd5b506102a26104c0366004615038565b61120d565b3480156104d0575f5ffd5b5061031c611233565b3480156104e4575f5ffd5b506102a26104f33660046154b3565b611242565b348015610503575f5ffd5b506102a261128f565b348015610517575f5ffd5b5067016345785d8a0000610386565b348015610531575f5ffd5b506103866105403660046155da565b611298565b348015610550575f5ffd5b506103866112a4565b348015610564575f5ffd5b50610578610573366004615603565b6112be565b6040805193845260208401929092521515908201526060016102e0565b3480156105a0575f5ffd5b506103866105af366004615634565b6112d7565b3480156105bf575f5ffd5b506103866105ce36600461564f565b611366565b3480156105de575f5ffd5b506103866105ed366004615634565b611404565b3480156105fd575f5ffd5b50610606611421565b6040516102e0929190615723565b34801561061f575f5ffd5b506106286114c5565b6040516102e0979695949392919061576b565b348015610646575f5ffd5b50610386610655366004615011565b611507565b348015610665575f5ffd5b5061042b61156b565b348015610679575f5ffd5b506102a2610688366004615603565b61158f565b348015610698575f5ffd5b5061031c6115cc565b3480156106ac575f5ffd5b506103866106bb3660046157da565b6115db565b3480156106cb575f5ffd5b506106066106da366004615828565b611631565b3480156106ea575f5ffd5b506103866106f93660046155da565b6116f9565b348015610709575f5ffd5b506102d46107183660046150b3565b6118b3565b348015610728575f5ffd5b50610731611905565b6040516102e091906158dd565b348015610749575f5ffd5b50610752611995565b6040516102e09493929190615917565b34801561076d575f5ffd5b50610776611a36565b6040516102e091906159b8565b34801561078e575f5ffd5b506102d461079d3660046159d8565b611ac6565b3480156107ad575f5ffd5b506103866107bc366004615038565b611c43565b3480156107cc575f5ffd5b506509184e72a000610386565b3480156107e4575f5ffd5b50610386611cfa565b3480156107f8575f5ffd5b50610386611d48565b34801561080c575f5ffd5b506102a2611d68565b348015610820575f5ffd5b506102a261082f366004615a6b565b611e9e565b34801561083f575f5ffd5b5061084861201b565b6040516102e09190615ad7565b348015610860575f5ffd5b5061038661086f366004615ba0565b612137565b34801561087f575f5ffd5b506102d46121d1565b348015610893575f5ffd5b506102a26108a2366004615038565b6121da565b3480156108b2575f5ffd5b506107766108c13660046150b3565b61220c565b6108d66108d1612570565b612594565b565b6108e06125b2565b6108e861265e565b6108f06126fc565b305f7f00000000000000000000000000000000000000000000000000000000000000006001600160a01b031663e9ddeb26836040518263ffffffff1660e01b815260040161093e91906154f1565b606060405180830381865afa158015610959573d5f5f3e3d5ffd5b505050506040513d601f19601f8201168201806040525081019061097d9190615bcc565b60200151905061098d8282612724565b6109968361279e565b50506109a06126fc565b50565b6060600680546109b290615c20565b80601f01602080910402602001604051908101604052809291908181526020018280546109de90615c20565b8015610a295780601f10610a0057610100808354040283529160200191610a29565b820191905f5260205f20905b815481529060010190602001808311610a0c57829003601f168201915b5050505050905090565b60405163e1f21c6760e01b81525f906001600160a01b037f0000000000000000000000000000000000000000000000000000000000000000169063e1f21c6790610a8590339087908790600401615c52565b6020604051808303815f875af1158015610aa1573d5f5f3e3d5ffd5b505050506040513d601f19601f82011682018060405250810190610ac59190615c81565b50600190505b92915050565b5f610ada6127af565b82516002148015610af35750610af36020830183615c9c565b8015610b0c5750610b0a6080830160608401615c9c565b155b9050808015610b4357507f00000000000000000000000000000000000000000000000000000000000000006001600160a01b031615155b15610bdd576040516305c4f8c160e11b81526001600160a01b037f00000000000000000000000000000000000000000000000000000000000000001690630b89f18290610b9a908890889088908890600401615d0b565b6020604051808303815f875af1158015610bb6573d5f5f3e3d5ffd5b505050506040513d601f19601f82011682018060405250810190610bda9190615c81565b90505b949350505050565b5f60405163d623472560e01b815260040160405180910390fd5b6040516339370aa960e21b81525f906001600160a01b037f0000000000000000000000000000000000000000000000000000000000000000169063e4dc2aa490610c4d9030906004016154f1565b602060405180830381865afa158015610c68573d5f5f3e3d5ffd5b505050506040513d601f19601f82011682018060405250810190610c8c9190615db4565b905090565b5f610c9a6127af565b610ce16040518061012001604052805f81526020015f81526020015f81526020015f81526020015f8152602001606081526020015f81526020015f81526020015f81525090565b610ce96127fa565b60208301819052818352610cfd91906128d0565b608084018190526060840182905260408401839052610d1d9291906129ed565b61010085015260e084015260c083015260a08201819052610d3f908590612b37565b5f610d898260a001515f81518110610d5957610d59615dcb565b6020026020010151865f81518110610d7357610d73615dcb565b6020026020010151612bff90919063ffffffff16565b90505f610da3828460c00151612c1f90919063ffffffff16565b90505f610dbd838560e00151612c1f90919063ffffffff16565b9050610dd9878560400151866060015187608001518686612c3f565b610de38282612cef565b610df38461010001514242612e0e565b50610e1d7f00000000000000000000000000000000000000000000000000000000000000006130e5565b50610e477f000000000000000000000000000000000000000000000000000000000000000061322f565b610e4f613345565b7f00000000000000000000000000000000000000000000000000000000000000006001600160a01b031615610f115760405163038293c560e31b81526001600160a01b037f00000000000000000000000000000000000000000000000000000000000000001690631c149e2890610ecc908a908a90600401615ddf565b6020604051808303815f875af1158015610ee8573d5f5f3e3d5ffd5b505050506040513d601f19601f82011682018060405250810190610f0c9190615c81565b610f14565b60015b979650505050505050565b604051630aed65f560e11b81523360048201526001600160a01b0384811660248301528381166044830152606482018390525f917f0000000000000000000000000000000000000000000000000000000000000000909116906315dacbea906084016020604051808303815f875af1158015610f9d573d5f5f3e3d5ffd5b505050506040513d601f19601f82011682018060405250810190610fc19190615c81565b506001949350505050565b610fd46127af565b816001600160a01b0316836001600160a01b03167fddf252ad1be2c89b69c2b068fc378daa952ba7f163c4a11628f55a4df523b3ef8360405161101991815260200190565b60405180910390a3505050565b5f610c8c612570565b5f610c8c61340a565b5f6110416127af565b6040516339370aa960e21b81525f906001600160a01b037f0000000000000000000000000000000000000000000000000000000000000000169063e4dc2aa49061108f908b906004016154f1565b602060405180830381865afa1580156110aa573d5f5f3e3d5ffd5b505050506040513d601f19601f820116820180604052508101906110ce9190615db4565b90505f6110db8287615e17565b90505f5f6110e8876134b2565b509092509050836110f98484615e2a565b6111039190615e55565b9150836111108483615e2a565b61111a9190615e55565b90506111268282612cef565b61112e613345565b7f00000000000000000000000000000000000000000000000000000000000000006001600160a01b0316156111fa576040516345421ec760e01b81526001600160a01b037f000000000000000000000000000000000000000000000000000000000000000016906345421ec7906111b5908f908f908f908f908f908f908f90600401615e74565b6020604051808303815f875af11580156111d1573d5f5f3e3d5ffd5b505050506040513d601f19601f820116820180604052508101906111f59190615c81565b6111fd565b60015b9c9b505050505050505050505050565b61121681613511565b6001805463ffffffff191663ffffffff9290921691909117905550565b6060600880546109b290615c20565b61124a6127af565b816001600160a01b0316836001600160a01b03167f8c5be1e5ebec7d5bd14f71427d1e84f3dd0314c0f7b2291e5b200ac8c7c3b9258360405161101991815260200190565b6109a03361351b565b5f610bdd848484612e0e565b5f6040516356b7fcdb60e01b815260040160405180910390fd5b5f5f5f6112ca846134b2565b9250925092509193909250565b604051633de222bb60e21b81525f906001600160a01b037f0000000000000000000000000000000000000000000000000000000000000000169063f7888aec906113279030908690600401615edf565b602060405180830381865afa158015611342573d5f5f3e3d5ffd5b505050506040513d601f19601f82011682018060405250810190610acb9190615db4565b5f61136f6127af565b5f5f5f61137f85604001516134b2565b9250925092508015611395576113958383612cef565b61139d613345565b5f855160018111156113b1576113b16158ef565b036113db576113d485604001518484886060015189608001518a6020015161353d565b93506113fc565b6113f985604001518484886060015189608001518a60200151613606565b93505b505050919050565b6001600160a01b0381165f90815260056020526040812054610acb565b5f5f5f7f00000000000000000000000000000000000000000000000000000000000000006001600160a01b031663f29486a1306040518263ffffffff1660e01b815260040161147091906154f1565b6101a060405180830381865afa15801561148c573d5f5f3e3d5ffd5b505050506040513d601f19601f820116820180604052508101906114b09190615f86565b90508060400151925080606001519150509091565b5f6060805f5f5f60606114d66136c2565b6114de6136d1565b604080515f80825260208201909252600f60f81b9b939a50919850469750309650945092509050565b5f7f00000000000000000000000000000000000000000000000000000000000000008260405160200161154e9291909182526001600160e01b031916602082015260240190565b604051602081830303815290604052805190602001209050919050565b7f000000000000000000000000000000000000000000000000000000000000000090565b6109a0815f815181106115a4576115a4615dcb565b6020026020010151826001815181106115bf576115bf615dcb565b6020026020010151612cef565b6060600780546109b290615c20565b6002546001545f9161162a9185916001600160801b0380821692600160801b909204811691600160201b81049091169063ffffffff811690600160a01b90046001600160401b031687896136e0565b9392505050565b5f5f5f5f5f5f6116428b8b8b6129ed565b93509350935093506116548c85612b37565b5f611684855f8151811061166a5761166a615dcb565b60200260200101518e5f81518110610d7357610d73615dcb565b90506116908482612c1f565b965061169c8382612c1f565b95506116a88787612cef565b6116b3824242612e0e565b5060018054600160201b600160a01b031916600160201b6001600160801b038c16021790556116e18861322f565b6116e9613345565b5050505050965096945050505050565b5f6117026125b2565b305f7f00000000000000000000000000000000000000000000000000000000000000006001600160a01b031663e9ddeb26836040518263ffffffff1660e01b815260040161175091906154f1565b606060405180830381865afa15801561176b573d5f5f3e3d5ffd5b505050506040513d601f19601f8201168201806040525081019061178f9190615bcc565b60200151905061179f8282612724565b6117a98585613712565b92505f6117b6848661603f565b9050620151808110156117dc576040516319f8e85560e11b815260040160405180910390fd5b6117e4613744565b5f6117f0888688612e0e565b90505f8189101561180357888203611807565b8189035b9050620f42408110156118355760405163119d853760e21b8152600481018290526024015b60405180910390fd5b5f828a116118615761185c61184d8462015180615e2a565b611857868d615e2a565b613808565b61187b565b61187b6118718b62015180615e2a565b6118578686615e2a565b9050671bc16d674ec800008111156118a657604051632b85f91760e11b815260040160405180910390fd5b5050505050509392505050565b6040516317d5759960e31b81525f906001600160a01b037f0000000000000000000000000000000000000000000000000000000000000000169063beabacc890610a8590339087908790600401615c52565b60405163ca4f280360e01b81526060906001600160a01b037f0000000000000000000000000000000000000000000000000000000000000000169063ca4f2803906119549030906004016154f1565b5f60405180830381865afa15801561196e573d5f5f3e3d5ffd5b505050506040513d5f823e601f3d908101601f19168201604052610c8c91908101906160b6565b6060806060807f00000000000000000000000000000000000000000000000000000000000000006001600160a01b03166367e0e076306040518263ffffffff1660e01b81526004016119e791906154f1565b5f60405180830381865afa158015611a01573d5f5f3e3d5ffd5b505050506040513d5f823e601f3d908101601f19168201604052611a289190810190616142565b935093509350935090919293565b6040516329ae7ec560e11b81526060906001600160a01b037f0000000000000000000000000000000000000000000000000000000000000000169063535cfd8a90611a859030906004016154f1565b5f60405180830381865afa158015611a9f573d5f5f3e3d5ffd5b505050506040513d5f823e601f3d908101601f19168201604052610c8c919081019061629f565b5f611acf6127af565b6040516339370aa960e21b81525f906001600160a01b037f0000000000000000000000000000000000000000000000000000000000000000169063e4dc2aa490611b1d908b906004016154f1565b602060405180830381865afa158015611b38573d5f5f3e3d5ffd5b505050506040513d601f19601f82011682018060405250810190611b5c9190615db4565b90505f611b69878361603f565b90505f5f611b76876134b2565b50909250905083611b878484615e2a565b611b919190615e55565b915083611b9e8483615e2a565b611ba89190615e55565b9050611bb48282612cef565b611bbc613345565b7f00000000000000000000000000000000000000000000000000000000000000006001600160a01b0316156111fa576040516302e97e7d60e61b81526001600160a01b037f0000000000000000000000000000000000000000000000000000000000000000169063ba5f9f40906111b5908f908f908f908f908f908f908f906004016162d0565b5f611c4c6125b2565b611c5461265e565b305f7f00000000000000000000000000000000000000000000000000000000000000006001600160a01b031663e9ddeb26836040518263ffffffff1660e01b8152600401611ca291906154f1565b606060405180830381865afa158015611cbd573d5f5f3e3d5ffd5b505050506040513d601f19601f82011682018060405250810190611ce19190615bcc565b602001519050611cf18282612724565b610bdd8461381c565b60405163b45090f960e01b81525f906001600160a01b037f0000000000000000000000000000000000000000000000000000000000000000169063b45090f990610c4d9030906004016154f1565b5f5f5f611d536127fa565b91509150611d61828261382e565b9250505090565b611d706125b2565b305f7f00000000000000000000000000000000000000000000000000000000000000006001600160a01b031663e9ddeb26836040518263ffffffff1660e01b8152600401611dbe91906154f1565b606060405180830381865afa158015611dd9573d5f5f3e3d5ffd5b505050506040513d601f19601f82011682018060405250810190611dfd9190615bcc565b602001519050611e0d8282612724565b611e15613744565b604080516080810182525f546001600160601b038082168352600160601b820416602083015263ffffffff600160c01b8204811693830193909352600160e01b900490911660608201819052421115611e815760405163771cef4f60e01b815260040160405180910390fd5b5f611e8a613883565b9050611e97814242612e0e565b5050505050565b83421115611ec25760405163313c898160e11b81526004810185905260240161182c565b5f5f5160206166495f395f51905f52888888611edd8c61351b565b6040805160208101969096526001600160a01b0394851690860152929091166060840152608083015260a082015260c0810186905260e0016040516020818303038152906040528051906020012090505f611f3782613921565b90505f611f468287878761394d565b9050896001600160a01b0316816001600160a01b031614611f7e57808a6040516325c0072360e11b815260040161182c929190615edf565b60405163e1f21c6760e01b81526001600160a01b037f0000000000000000000000000000000000000000000000000000000000000000169063e1f21c6790611fce908d908d908d90600401615c52565b6020604051808303815f875af1158015611fea573d5f5f3e3d5ffd5b505050506040513d601f19601f8201168201806040525081019061200e9190615c81565b5050505050505050505050565b60408051610140810182525f80825260208201819052918101829052606081018290526080810182905260a0810182905260c0810182905260e0810182905261010081018290526101208101919091527f00000000000000000000000000000000000000000000000000000000000000006001600160a01b03161561211e577f00000000000000000000000000000000000000000000000000000000000000006001600160a01b031663d77153a76040518163ffffffff1660e01b815260040161014060405180830381865afa1580156120f7573d5f5f3e3d5ffd5b505050506040513d601f19601f8201168201806040525081019061211b9190616327565b90505b60016020820181905260c0820181905261010082015290565b60405163927da10560e01b81523060048201526001600160a01b03838116602483015282811660448301525f917f00000000000000000000000000000000000000000000000000000000000000009091169063927da10590606401602060405180830381865afa1580156121ad573d5f5f3e3d5ffd5b505050506040513d601f19601f8201168201806040525081019061162a9190615db4565b5f610c8c61395a565b6121e381613a2c565b600160146101000a8154816001600160401b0302191690836001600160401b0316021790555050565b60605f7f00000000000000000000000000000000000000000000000000000000000000006001600160a01b031663ca4f2803306040518263ffffffff1660e01b815260040161225b91906154f1565b5f60405180830381865afa158015612275573d5f5f3e3d5ffd5b505050506040513d5f823e601f3d908101601f1916820160405261229c91908101906160b6565b90505f5f856001600160a01b0316835f815181106122bc576122bc615dcb565b60200260200101516001600160a01b0316146122da5760015f6122de565b5f60015b9150915060018214801561231e57508260018151811061230057612300615dcb565b60200260200101516001600160a01b0316866001600160a01b031614155b1561233c5760405163c1ab6dc160e01b815260040160405180910390fd5b5f5f6123466127fa565b915091505f612355838361382e565b90505f5f8a6001600160a01b0316885f8151811061237557612375615dcb565b60200260200101516001600160a01b031614612392578385612395565b84845b915091505f8888815181106123ac576123ac615dcb565b60200260200101516001600160a01b031663313ce5676040518163ffffffff1660e01b8152600401602060405180830381865afa1580156123ef573d5f5f3e3d5ffd5b505050506040513d601f19601f8201168201806040525081019061241391906163e4565b90505f89888151811061242857612428615dcb565b60200260200101516001600160a01b031663313ce5676040518163ffffffff1660e01b8152600401602060405180830381865afa15801561246b573d5f5f3e3d5ffd5b505050506040513d601f19601f8201168201806040525081019061248f91906163e4565b90505f6124b66124a360ff8516601261603f565b6124ae90600a6164da565b8e9087613a36565b6040805160028082526060820183529293509190602083019080368337019050509b508c8c8b815181106124ec576124ec615dcb565b60209081029190910101526150098a1561250857612bff61250c565b612c1f5b905061254061251f60ff8516601261603f565b61252a90600a6164da565b86612539858b8663ffffffff16565b9190613a4b565b8d8b8151811061255257612552615dcb565b60200260200101818152505050505050505050505050505092915050565b7f000000000000000000000000000000000000000000000000000000000000000090565b365f5f375f5f365f845af43d5f5f3e8080156125ae573d5ff35b3d5ffd5b6040516314cb3b1f60e21b81526001600160a01b037f0000000000000000000000000000000000000000000000000000000000000000169063532cec7c906125fe9030906004016154f1565b602060405180830381865afa158015612619573d5f5f3e3d5ffd5b505050506040513d601f19601f8201168201806040525081019061263d9190615c81565b15155f036108d65760405163486aa30760e01b815260040160405180910390fd5b7f00000000000000000000000000000000000000000000000000000000000000006001600160a01b0316638380edb76040518163ffffffff1660e01b8152600401602060405180830381865afa1580156126ba573d5f5f3e3d5ffd5b505050506040513d601f19601f820116820180604052508101906126de9190615c81565b156108d657604051633915d7f960e21b815260040160405180910390fd5b61270461395a565b15155f036108d65760405162f656ad60e21b815260040160405180910390fd5b6001600160a01b038116612775576127506127495f356001600160e01b031916611507565b3384613a5f565b15155f03612771576040516323dada5360e01b815260040160405180910390fd5b5050565b336001600160a01b03821614612771576040516323dada5360e01b815260040160405180910390fd5b6127a6613744565b6109a08161322f565b336001600160a01b037f000000000000000000000000000000000000000000000000000000000000000016146108d6573360405163089676d560e01b815260040161182c91906154f1565b5f5f5f7f00000000000000000000000000000000000000000000000000000000000000006001600160a01b03166367e0e076306040518263ffffffff1660e01b815260040161284991906154f1565b5f60405180830381865afa158015612863573d5f5f3e3d5ffd5b505050506040513d5f823e601f3d908101601f1916820160405261288a9190810190616142565b50509150506128b1815f815181106128a4576128a4615dcb565b6020026020010151613b59565b92506128c9816001815181106128a4576128a4615dcb565b9150509091565b5f5f5f7f00000000000000000000000000000000000000000000000000000000000000006128fe5784612908565b670de0b6b3a76400005b94507f0000000000000000000000000000000000000000000000000000000000000000612935578361293f565b670de0b6b3a76400005b93508461296c857f0000000000000000000000000000000000000000000000000000000000000000615e2a565b6129769190615e55565b9250846129a3857f0000000000000000000000000000000000000000000000000000000000000000615e2a565b6129ad9190615e55565b9150846129da857f0000000000000000000000000000000000000000000000000000000000000000615e2a565b6129e49190615e55565b90509250925092565b60605f80806129fc8688612bff565b90505f612a0882613bc2565b9050612a30612a1f670de0b6b3a76400008361603f565b69d3c21bcecceda100000090612bff565b9350612a50612a4969d3c21bcecceda100000086615e17565b8990612c1f565b604080516002808252606082018352929550919060208301908036833701905050945082612aa3612a9e612a8e8769d3c21bcecceda1000000615e17565b612a988a88613bdd565b90613bdd565b613bc2565b612aad919061603f565b85600181518110612ac057612ac0615dcb565b6020908102919091010152612b0f86612ad98682612c1f565b8588600181518110612aed57612aed615dcb565b6020026020010151612aff9190615e17565b612b09919061603f565b90612bff565b855f81518110612b2157612b21615dcb565b6020026020010181815250505093509350935093565b5f612b68835f81518110612b4d57612b4d615dcb565b602002602001015184600181518110610d7357610d73615dcb565b90505f612b80835f81518110612b4d57612b4d615dcb565b90505f612ba5612b9e655af3107a4000670de0b6b3a764000061603f565b8390612c1f565b90505f612bca612bc3655af3107a4000670de0b6b3a7640000615e17565b8490612c1f565b905081841080612bd957508084115b15612bf7576040516304f512cb60e41b815260040160405180910390fd5b505050505050565b5f80612c13670de0b6b3a764000085615e2a565b9050610bdd8382615e55565b5f80612c2b8385615e2a565b9050610bdd670de0b6b3a764000082615e55565b5f612c8e83885f81518110612c5657612c56615dcb565b6020026020010151612c689190615e17565b8389600181518110612c7c57612c7c615dcb565b6020026020010151612b099190615e17565b9050612c9a8185613c09565b5f612ca88885856001613c70565b90505f81612cb68580615e2a565b612cc09190615e55565b9050612ccc8189613c09565b5f612cd78387613cfc565b9050612ce38189613c09565b50505050505050505050565b612cf882613d11565b600280546001600160801b0319166001600160801b0392909216919091179055612d2181613d11565b600280546001600160801b03928316600160801b0292169190911790556040517ff36b0fd05d55ca91fb3ebd8493adf78a3405a11c145c054a092d0994b665b63790612d709084908490615723565b60405180910390a17f00000000000000000000000000000000000000000000000000000000000000006001600160a01b031663c80882478383604051602001612dba929190615723565b6040516020818303038152906040526040518263ffffffff1660e01b8152600401612de591906164e5565b5f604051808303815f87803b158015612dfc575f5ffd5b505af1158015612bf7573d5f5f3e3d5ffd5b5f81831180612e1c57504283105b15612e3a57604051632ca4094f60e21b815260040160405180910390fd5b604080516080810182525f80546001600160601b038082168452600160601b820416602084015263ffffffff600160c01b8204811694840194909452600160e01b9004909216606082015290612e8f86613d1b565b90505f7f00000000000000000000000000000000000000000000000000000000000000006001600160a01b031663532cec7c306040518263ffffffff1660e01b8152600401612ede91906154f1565b602060405180830381865afa158015612ef9573d5f5f3e3d5ffd5b505050506040513d601f19601f82011682018060405250810190612f1d9190615c81565b15612f3c57612f2a613883565b9350612f3584613d1b565b9050612f42565b50859250805b612f4b81613d3f565b6001600160601b03168352612f5f82613d3f565b6001600160601b03166020840152612f7686613511565b63ffffffff166040840152612f8a85613511565b63ffffffff9081166060850181905284515f805460208801516040808a01516001600160601b039586166001600160c01b031990941693909317600160601b9590921694909402176001600160c01b0316600160c01b91909516026001600160e01b031693909317600160e01b90920291909117909155517fa18562ea402e57cc2b437f8d7a139c6c38958adc1ecbb706ec37a7a64ff6e7a59061303590839085908a908a90616516565b60405180910390a17f00000000000000000000000000000000000000000000000000000000000000006001600160a01b031663c8088247828489896040516020016130839493929190616516565b6040516020818303038152906040526040518263ffffffff1660e01b81526004016130ae9190616531565b5f604051808303815f87803b1580156130c5575f5ffd5b505af11580156130d7573d5f5f3e3d5ffd5b505050505050509392505050565b5f670de0b6b3a764000082111561310f57604051632b5b4f3560e01b815260040160405180910390fd5b5f61311983613d49565b905061312481613d69565b925061312f81613d11565b600160046101000a8154816001600160801b0302191690836001600160801b031602179055507f7ee46b38be05f748de1c0fb2002ac48fe50a26a0017c654a92c0bf92280588478382604051613186929190615723565b60405180910390a17f00000000000000000000000000000000000000000000000000000000000000006001600160a01b031663c808824784836040516020016131d0929190615723565b6040516020818303038152906040526040518263ffffffff1660e01b81526004016131fb9190616562565b5f604051808303815f87803b158015613212575f5ffd5b505af1158015613224573d5f5f3e3d5ffd5b509495945050505050565b670c7d713b49da000081111561325857604051637304fac760e01b815260040160405180910390fd5b60018054600160a01b600160e01b031916600160a01b6001600160401b038416021790556040518181527f74d468c8e414c37c502176a45cce93c85eaa0abf608e40641dc6664ca5efcab09060200160405180910390a17f00000000000000000000000000000000000000000000000000000000000000006001600160a01b031663c8088247826040516020016132f191815260200190565b6040516020818303038152906040526040518263ffffffff1660e01b815260040161331c919061659a565b5f604051808303815f87803b158015613333575f5ffd5b505af1158015611e97573d5f5f3e3d5ffd5b5f61334f42613511565b6001805463ffffffff191663ffffffff83169081179091556040519081529091507f32a9fd44bdf167703f584bd25098494d3d18a4653a2d97116d28da05209444d49060200160405180910390a16040805163ffffffff831660208201526001600160a01b037f0000000000000000000000000000000000000000000000000000000000000000169163c808824791016040516020818303038152906040526040518263ffffffff1660e01b815260040161331c91906165ce565b5f610c8c604080517f8b73c3c69bb8fe3d512ecc4cf759cc79239f7b179b0ffacaa9a75d522b39400f60208201527f0000000000000000000000000000000000000000000000000000000000000000918101919091527f000000000000000000000000000000000000000000000000000000000000000060608201524660808201523060a08201525f9060c00160405160208183030381529060405280519060200120905090565b6002546001545f91829182916135049186916001600160801b0380821692600160801b909204811691600160201b81049091169063ffffffff811690600160a01b90046001600160401b031687613d8a565b9196909550909350915050565b5f610acb82613ec6565b6001600160a01b03165f90815260056020526040902080546001810190915590565b5f8080851561354d578688613550565b87875b9150915083828a888151811061356857613568615dcb565b602002602001015161357a9190615e17565b6135849190615e17565b84828b888151811061359857613598615dcb565b60200260200101516135aa9190615e17565b6135b49190615e2a565b6135be9190615e55565b92508885815181106135d2576135d2615dcb565b60200260200101518311156135fa57604051635a09f12960e11b815260040160405180910390fd5b50509695505050505050565b5f86838151811061361957613619615dcb565b602002602001015182111561364157604051635a09f12960e11b815260040160405180910390fd5b5f808515613650578688613653565b87875b915091506136b5828a888151811061366d5761366d615dcb565b602002602001015161367f9190615e17565b8586848d8a8151811061369457613694615dcb565b60200260200101516136a69190615e17565b6136b0919061603f565b613ede565b9998505050505050505050565b6060600380546109b290615c20565b6060600480546109b290615c20565b5f5f5f6136f28b8b8b8b8b8b8b613d8a565b50915091506137038b838387613c70565b9b9a5050505050505050505050565b5f61371d4284613f23565b905081811115610acb5780826040516364bb3b8360e11b815260040161182c929190615723565b6040516333f0703b60e11b81525f906001600160a01b037f000000000000000000000000000000000000000000000000000000000000000016906367e0e076906137929030906004016154f1565b5f60405180830381865afa1580156137ac573d5f5f3e3d5ffd5b505050506040513d5f823e601f3d908101601f191682016040526137d39190810190616142565b93505050505f5f5f6137e4846134b2565b92509250925080156137fa576137fa8383612cef565b613802613345565b50505050565b5f61162a83670de0b6b3a764000084613ede565b5f613825613744565b610acb826130e5565b5f5f5f5f61383c86866128d0565b9250925092505f61384e8484846129ed565b5050509050610f14815f8151811061386857613868615dcb565b602002602001015182600181518110610d7357610d73615dcb565b5f5f61388d61156b565b6001600160a01b03166367e0e076306040518263ffffffff1660e01b81526004016138b891906154f1565b5f60405180830381865afa1580156138d2573d5f5f3e3d5ffd5b505050506040513d5f823e601f3d908101601f191682016040526138f99190810190616142565b93505050505f5f613909836134b2565b5091509150613919838383613f32565b935050505090565b5f610acb61392d61340a565b8360405161190160f01b8152600281019290925260228201526042902090565b5f610bda85858585613f4f565b5f5f7f00000000000000000000000000000000000000000000000000000000000000006001600160a01b03166367e0e076306040518263ffffffff1660e01b81526004016139a891906154f1565b5f60405180830381865afa1580156139c2573d5f5f3e3d5ffd5b505050506040513d5f823e601f3d908101601f191682016040526139e99190810190616142565b600254600154919550613a2694508593506001600160801b038082169350600160801b9091041690600160a01b90046001600160401b0316613f94565b91505090565b5f610acb82613faf565b5f610bdd82613a458587615e2a565b90612c1f565b5f610bdd84613a5a8486615e2a565b612bff565b5f7f00000000000000000000000000000000000000000000000000000000000000006001600160a01b031663aaabadc56040518163ffffffff1660e01b8152600401602060405180830381865afa158015613abc573d5f5f3e3d5ffd5b505050506040513d601f19601f82011682018060405250810190613ae091906165fd565b6040516326f8aa2160e21b8152600481018690526001600160a01b03858116602483015284811660448301529190911690639be2a88490606401602060405180830381865afa158015613b35573d5f5f3e3d5ffd5b505050506040513d601f19601f82011682018060405250810190610bdd9190615c81565b5f600182516001811115613b6f57613b6f6158ef565b14613b8257670de0b6b3a7640000610acb565b81602001516001600160a01b031663679aefce6040518163ffffffff1660e01b8152600401602060405180830381865afa158015611342573d5f5f3e3d5ffd5b5f610acb613bd8670de0b6b3a764000084615e2a565b613fc3565b5f80613be98385615e2a565b90506001670de0b6b3a76400006001830304018115150291505092915050565b5f613c25612b9e655af3107a4000670de0b6b3a764000061603f565b90505f613c43612bc3655af3107a4000670de0b6b3a7640000615e17565b905081841080613c5257508084115b1561380257604051633d9f09df60e21b815260040160405180910390fd5b5f6150096001836001811115613c8857613c886158ef565b14613c9557613bdd613c99565b612c1f5b9050613cf285875f81518110613cb157613cb1615dcb565b6020026020010151613cc39190615e17565b8588600181518110613cd757613cd7615dcb565b6020026020010151613ce99190615e17565b8363ffffffff16565b9695505050505050565b5f61162a613d0a8380612c1f565b8490612bff565b5f610acb82614048565b5f610acb670de0b6b3a7640000613d35613bd88286615e2a565b613bd89190615e2a565b5f610acb8261405c565b5f613d576201e6e983615e55565b610acb90670de0b6b3a764000061603f565b5f6201e6e9613d8083670de0b6b3a764000061603f565b610acb9190615e2a565b5f5f5f5f613d9742613511565b90508063ffffffff168763ffffffff1603613dbb5789895f93509350935050613eb9565b6040805160808101825286546001600160601b03808216808452600160601b83049091166020840181905263ffffffff600160c01b84048116958501869052600160e01b909304909216606084018190528e98508d975092935f93613e24938793929091614070565b6001600160601b03169050816040015163ffffffff168363ffffffff16118015613e5d5750816060015163ffffffff168963ffffffff16105b15613e7857613e6e818e8e8e61414f565b9096509450600193505b50505f5f613e878d8787614296565b91509150876001600160401b0316821015613eb557613eab8d8787848e888f614376565b9096509450600193505b5050505b9750975097945050505050565b5f600160201b8210613eda57613eda6144f5565b5090565b5f815f03613eff57604051630a0c22c760e01b815260040160405180910390fd5b5f613f0a8486615e2a565b9050600183600183030401811515029150509392505050565b5f81831082841802831861162a565b5f5f5f613f40868686614502565b9092509050613cf28183613808565b5f604051855f5260ff851660205283604052826060526020600160805f60015afa5191503d613f8557638baa579f5f526004601cfd5b5f606052604052949350505050565b5f5f613fa1868686614296565b509092111595945050505050565b5f600160401b8210613eda57613eda6144f5565b5f610acb826001600160881b03811160071b81811c6001600160481b031060061b1781811c64ffffffffff1060051b1781811c62ffffff1060041b1781811c620100000160b5600192831c1b0260121c80830401811c80830401811c80830401811c80830401811c80830401811c80830401811c80830401901c908190048111900390565b5f600160801b8210613eda57613eda6144f5565b5f600160601b8210613eda57613eda6144f5565b5f8163ffffffff168663ffffffff161061408b575082614146565b8263ffffffff168663ffffffff16116140a5575083614146565b5f6140d76140b38585616618565b63ffffffff166140c3868a616618565b63ffffffff16612bff90919063ffffffff16565b90505f61410d6140fd836140f76001600160601b038a8116908c16612bff565b9061454a565b6001600160601b03891690612c1f565b90505f61412c886001600160601b0316886001600160601b0316614605565b905061414061413b8284613f23565b613d3f565b93505050505b95945050505050565b5f5f5f5f61415e878787614296565b915091505f5f5f8361418c578960018151811061417d5761417d615dcb565b6020026020010151888a6141a9565b895f8151811061419e5761419e615dcb565b602002602001015189895b919450925090505f6141bb8c80612c1f565b90505f6141d0670de0b6b3a76400008361603f565b6141db906002615e2a565b614228671bc16d674ec800006141f2856004615e2a565b6141fc908b615e17565b614206919061603f565b614210908a615e2a565b613bd8906a0c097ce7bc90715b34b9f160241b615e17565b61423a89670de0b6b3a7640000615e17565b6142449190615e17565b61424e9087615e2a565b6142589190615e55565b90505f846142668584615e2a565b6142709190615e55565b90508661427e578082614281565b81815b909f909e509c50505050505050505050505050565b5f5f845f815181106142aa576142aa615dcb565b60200260200101515f036142c257505f90508061436e565b846001815181106142d5576142d5615dcb565b60200260200101515f036142ee57505f9050600161436e565b5f83865f8151811061430257614302615dcb565b60200260200101516143149190615e2a565b90505f8660018151811061432a5761432a615dcb565b60200260200101518661433d9190615e2a565b905080821161435a576143508282612bff565b93505f925061436b565b6143648183612bff565b9350600192505b50505b935093915050565b5f5f5f614387612a9e8b8b8b613f32565b90505f5f886143ca578b6001815181106143a3576143a3615dcb565b60200260200101518c5f815181106143bd576143bd615dcb565b6020026020010151614400565b8b5f815181106143dc576143dc615dcb565b60200260200101518c6001815181106143f7576143f7615dcb565b60200260200101515b915091505f5f8a614412578b8d614415565b8c8c5b90925090505f6144376144288a8c616618565b63ffffffff1662278d00614605565b9050614458612b9e614451670de0b6b3a764000084615e2a565b8d9061454a565b915061448982614484670de0b6b3a76400006144738a613bc2565b61447d919061603f565b8790612bff565b613f23565b9150836144a283613a45670de0b6b3a76400008a61603f565b6144ac919061603f565b6144b68584615e17565b6144c09087615e2a565b6144ca9190615e55565b92508b6144d85781836144db565b82825b809850819950505050505050505097509795505050505050565b6335278d125f526004601cfd5b5f5f5f6145128686866001613c70565b90508061451f8580615e2a565b6145299190615e55565b925061453f6145388680612c1f565b8290612bff565b915050935093915050565b5f670de0b6b3a76400008203614561575081610acb565b614574670de0b6b3a76400006002615e2a565b820361458b576145848384612c1f565b9050610acb565b61459e670de0b6b3a76400006004615e2a565b82036145c3575f6145af8485612c1f565b90506145bb8182612c1f565b915050610acb565b5f6145ce8484614614565b90505f6145dd82612710613bdd565b6145e8906001615e17565b9050808210156145fc575f92505050610acb565b90039050610acb565b5f81831182841802831861162a565b5f815f0361462b5750670de0b6b3a7640000610acb565b825f0361463957505f610acb565b60ff83901c1561465b576040516211380f60e51b815260040160405180910390fd5b8261467368056bc75e2d63100000600160fe1b615e55565b83106146925760405163d831731160e01b815260040160405180910390fd5b825f670c7d713b49da0000831380156146b25750670f43fc2c04ee000083125b156146e8575f6146c18461474a565b9050670de0b6b3a764000080820784020583670de0b6b3a7640000830502019150506146f6565b816146f284614867565b0290505b670de0b6b3a76400009005680238fd42c5cf03ffff198112801590614724575068070c1cc73b00c800008113155b6147415760405163a2f9f7e360e01b815260040160405180910390fd5b613cf281614c0e565b670de0b6b3a7640000025f806a0c097ce7bc90715b34b9f160241b808401906ec097ce7bc90715b34b9f0fffffffff198501028161478a5761478a615e41565b0590505f6a0c097ce7bc90715b34b9f160241b82800205905081806a0c097ce7bc90715b34b9f160241b81840205915060038205016a0c097ce7bc90715b34b9f160241b82840205915060058205016a0c097ce7bc90715b34b9f160241b82840205915060078205016a0c097ce7bc90715b34b9f160241b82840205915060098205016a0c097ce7bc90715b34b9f160241b828402059150600b8205016a0c097ce7bc90715b34b9f160241b828402059150600d8205016a0c097ce7bc90715b34b9f160241b828402059150600f82050160020295945050505050565b5f80670de0b6b3a764000083121561489e57826a0c097ce7bc90715b34b9f160241b8161489657614896615e41565b059250600190505b5f775803bcc5cb9634ba4cfb2213f784019318ed4dcb6017880f60361b84126148e85772195e54c5dd42177f53a27172fa9ec63026282760241b840593506806f05b59d3b2000000015b6f8bcc0026baae9e45e470190267a230cf60191b841261491f576b1425982cf597cd205cef7380840593506803782dace9d9000000015b606493840293026e01855144814a7ff805980ff00840008412614967576e01855144814a7ff805980ff008400068056bc75e2d63100000850205935068ad78ebc5ac62000000015b6b02df0ab5a80a22c61ab5a70084126149a2576b02df0ab5a80a22c61ab5a70068056bc75e2d6310000085020593506856bc75e2d631000000015b693f1fce3da636ea5cf85084126149d957693f1fce3da636ea5cf85068056bc75e2d631000008502059350682b5e3af16b18800000015b690127fa27722cc06cc5e28412614a1057690127fa27722cc06cc5e268056bc75e2d6310000085020593506815af1d78b58c400000015b68280e60114edb805d038412614a455768280e60114edb805d0368056bc75e2d631000008502059350680ad78ebc5ac6200000015b680ebc5fb417461211108412614a7057680ebc5fb4174612111068056bc75e2d631000009485020593015b6808f00f760a4b2db55d8412614aa5576808f00f760a4b2db55d68056bc75e2d6310000085020593506802b5e3af16b1880000015b6806f5f17757889379378412614ada576806f5f177578893793768056bc75e2d63100000850205935068015af1d78b58c40000015b6806248f33704b2866038412614b0e576806248f33704b28660368056bc75e2d63100000850205935067ad78ebc5ac620000015b6805c548670b9510e7ac8412614b42576805c548670b9510e7ac68056bc75e2d6310000085020593506756bc75e2d6310000015b5f68056bc75e2d63100000850168056bc75e2d631000008087030281614b6a57614b6a615e41565b0590505f68056bc75e2d63100000828002059050818068056bc75e2d63100000818402059150600382050168056bc75e2d63100000828402059150600582050168056bc75e2d63100000828402059150600782050168056bc75e2d63100000828402059150600982050168056bc75e2d63100000828402059150600b8205016002025f606486830105905086614c0057806136b5565b5f0398975050505050505050565b5f680238fd42c5cf03ffff198212158015614c32575068070c1cc73b00c800008213155b614c4f5760405163d4794efd60e01b815260040160405180910390fd5b5f80831215614c6257825f039250600190505b5f6806f05b59d3b20000008412614c9f57506806f05b59d3b1ffffff199092019172195e54c5dd42177f53a27172fa9ec63026282760241b614cd5565b6803782dace9d90000008412614cd157506803782dace9d8ffffff19909201916b1425982cf597cd205cef7380614cd5565b5060015b6064939093029268056bc75e2d6310000068ad78ebc5ac620000008512614d255768ad78ebc5ac61ffffff199094019368056bc75e2d631000006e01855144814a7ff805980ff008400082020590505b6856bc75e2d6310000008512614d61576856bc75e2d630ffffff199094019368056bc75e2d631000006b02df0ab5a80a22c61ab5a70082020590505b682b5e3af16b188000008512614d9b57682b5e3af16b187fffff199094019368056bc75e2d63100000693f1fce3da636ea5cf85082020590505b6815af1d78b58c4000008512614dd5576815af1d78b58c3fffff199094019368056bc75e2d63100000690127fa27722cc06cc5e282020590505b680ad78ebc5ac62000008512614e0e57680ad78ebc5ac61fffff199094019368056bc75e2d6310000068280e60114edb805d0382020590505b68056bc75e2d631000008512614e475768056bc75e2d630fffff199094019368056bc75e2d63100000680ebc5fb4174612111082020590505b6802b5e3af16b18800008512614e80576802b5e3af16b187ffff199094019368056bc75e2d631000006808f00f760a4b2db55d82020590505b68015af1d78b58c400008512614eb95768015af1d78b58c3ffff199094019368056bc75e2d631000006806f5f177578893793782020590505b68056bc75e2d631000008581019086906002908280020505918201919050600368056bc75e2d631000008883020505918201919050600468056bc75e2d631000008883020505918201919050600568056bc75e2d631000008883020505918201919050600668056bc75e2d631000008883020505918201919050600768056bc75e2d631000008883020505918201919050600868056bc75e2d631000008883020505918201919050600968056bc75e2d631000008883020505918201919050600a68056bc75e2d631000008883020505918201919050600b68056bc75e2d631000008883020505918201919050600c68056bc75e2d6310000088830205059182019190505f606468056bc75e2d6310000085850205860205905085614fde5780614ffd565b806a0c097ce7bc90715b34b9f160241b81614ffb57614ffb615e41565b055b98975050505050505050565b6108d6616634565b5f60208284031215615021575f5ffd5b81356001600160e01b03198116811461162a575f5ffd5b5f60208284031215615048575f5ffd5b5035919050565b5f81518084528060208401602086015e5f602082860101526020601f19601f83011685010191505092915050565b602081525f61162a602083018461504f565b6001600160a01b03811681146109a0575f5ffd5b80356150ae8161508f565b919050565b5f5f604083850312156150c4575f5ffd5b82356150cf8161508f565b946020939093013593505050565b634e487b7160e01b5f52604160045260245ffd5b604051608081016001600160401b0381118282101715615113576151136150dd565b60405290565b60405160e081016001600160401b0381118282101715615113576151136150dd565b604051606081016001600160401b0381118282101715615113576151136150dd565b60405161014081016001600160401b0381118282101715615113576151136150dd565b604051601f8201601f191681016001600160401b03811182821017156151a8576151a86150dd565b604052919050565b5f6001600160401b038211156151c8576151c86150dd565b5060051b60200190565b600281106109a0575f5ffd5b80356150ae816151d2565b80151581146109a0575f5ffd5b5f60808284031215615206575f5ffd5b50919050565b5f5f5f5f60e0858703121561521f575f5ffd5b843561522a8161508f565b9350602085013561523a8161508f565b925060408501356001600160401b03811115615254575f5ffd5b8501601f81018713615264575f5ffd5b8035615277615272826151b0565b615180565b8082825260208201915060208360071b850101925089831115615298575f5ffd5b6020840193505b82841015615318576080848b0312156152b6575f5ffd5b6152be6150f1565b84356152c98161508f565b815260208501356152d9816151d2565b602082015260408501356152ec8161508f565b604082015260608501356152ff816151e9565b606082015282526080939093019260209091019061529f565b8095505050505061532c86606087016151f6565b905092959194509250565b5f82601f830112615346575f5ffd5b8135615354615272826151b0565b8082825260208201915060208360051b860101925085831115615375575f5ffd5b602085015b8381101561539257803583526020928301920161537a565b5095945050505050565b5f5f5f606084860312156153ae575f5ffd5b83356001600160401b038111156153c3575f5ffd5b6153cf86828701615337565b9660208601359650604090950135949350505050565b5f82601f8301126153f4575f5ffd5b81356001600160401b0381111561540d5761540d6150dd565b615420601f8201601f1916602001615180565b818152846020838601011115615434575f5ffd5b816020850160208301375f918101602001919091529392505050565b5f5f60408385031215615461575f5ffd5b82356001600160401b03811115615476575f5ffd5b61548285828601615337565b92505060208301356001600160401b0381111561549d575f5ffd5b6154a9858286016153e5565b9150509250929050565b5f5f5f606084860312156154c5575f5ffd5b83356154d08161508f565b925060208401356154e08161508f565b929592945050506040919091013590565b6001600160a01b0391909116815260200190565b8035600581106150ae575f5ffd5b5f5f5f5f5f5f5f60e0888a031215615529575f5ffd5b87356155348161508f565b9650615542602089016150a3565b955061555060408901615505565b945060608801356001600160401b0381111561556a575f5ffd5b6155768a828b01615337565b9450506080880135925060a08801356001600160401b03811115615598575f5ffd5b6155a48a828b01615337565b92505060c08801356001600160401b038111156155bf575f5ffd5b6155cb8a828b016153e5565b91505092959891949750929550565b5f5f5f606084860312156155ec575f5ffd5b505081359360208301359350604090920135919050565b5f60208284031215615613575f5ffd5b81356001600160401b03811115615628575f5ffd5b610bdd84828501615337565b5f60208284031215615644575f5ffd5b813561162a8161508f565b5f6020828403121561565f575f5ffd5b81356001600160401b03811115615674575f5ffd5b820160e08185031215615685575f5ffd5b61568d615119565b615696826151de565b81526020828101359082015260408201356001600160401b038111156156ba575f5ffd5b6156c686828501615337565b60408301525060608281013590820152608080830135908201526156ec60a083016150a3565b60a082015260c08201356001600160401b03811115615709575f5ffd5b615715868285016153e5565b60c083015250949350505050565b918252602082015260400190565b5f8151808452602084019350602083015f5b82811015615761578151865260209586019590910190600101615743565b5093949350505050565b60ff60f81b8816815260e060208201525f61578960e083018961504f565b828103604084015261579b818961504f565b606084018890526001600160a01b038716608085015260a0840186905283810360c085015290506157cc8185615731565b9a9950505050505050505050565b5f5f604083850312156157eb575f5ffd5b82356001600160401b03811115615800575f5ffd5b61580c85828601615337565b925050602083013561581d816151d2565b809150509250929050565b5f5f5f5f5f5f60c0878903121561583d575f5ffd5b86356001600160401b03811115615852575f5ffd5b61585e89828a01615337565b96505060208701359450604087013593506060870135925060808701356001600160801b038116811461588f575f5ffd5b9598949750929591949360a090920135925050565b5f8151808452602084019350602083015f5b828110156157615781516001600160a01b03168652602095860195909101906001016158b6565b602081525f61162a60208301846158a4565b634e487b7160e01b5f52602160045260245ffd5b60028110615913576159136158ef565b9052565b608081525f61592960808301876158a4565b82810360208401528086518083526020830191506020880192505f5b8181101561598f57835161595a848251615903565b6020818101516001600160a01b0316858201526040918201511515918501919091529390930192606090920191600101615945565b505083810360408501526159a38187615731565b9150508281036060840152610f148185615731565b602081525f61162a6020830184615731565b8035600481106150ae575f5ffd5b5f5f5f5f5f5f5f60e0888a0312156159ee575f5ffd5b87356159f98161508f565b9650615a07602089016150a3565b9550615a15604089016159ca565b94506060880135935060808801356001600160401b03811115615a36575f5ffd5b615a428a828b01615337565b93505060a08801356001600160401b03811115615598575f5ffd5b60ff811681146109a0575f5ffd5b5f5f5f5f5f5f5f60e0888a031215615a81575f5ffd5b8735615a8c8161508f565b96506020880135615a9c8161508f565b955060408801359450606088013593506080880135615aba81615a5d565b9699959850939692959460a0840135945060c09093013592915050565b81511515815261014081016020830151615af5602084018215159052565b506040830151615b09604084018215159052565b506060830151615b1d606084018215159052565b506080830151615b31608084018215159052565b5060a0830151615b4560a084018215159052565b5060c0830151615b5960c084018215159052565b5060e0830151615b6d60e084018215159052565b50610100830151615b8361010084018215159052565b50610120830151615b9961012084018215159052565b5092915050565b5f5f60408385031215615bb1575f5ffd5b8235615bbc8161508f565b9150602083013561581d8161508f565b5f6060828403128015615bdd575f5ffd5b50615be661513b565b8251615bf18161508f565b81526020830151615c018161508f565b60208201526040830151615c148161508f565b60408201529392505050565b600181811c90821680615c3457607f821691505b60208210810361520657634e487b7160e01b5f52602260045260245ffd5b6001600160a01b039384168152919092166020820152604081019190915260600190565b80516150ae816151e9565b5f60208284031215615c91575f5ffd5b815161162a816151e9565b5f60208284031215615cac575f5ffd5b813561162a816151e9565b8035615cc2816151e9565b151582526020810135615cd4816151e9565b151560208301526040810135615ce9816151e9565b151560408301526060810135615cfe816151e9565b8015156060840152505050565b6001600160a01b038581168252841660208083019190915260e06040830181905284519083018190525f91850190610100840190835b81811015615da057835180516001600160a01b0316845260208082015190615d6b90860182615903565b506040818101516001600160a01b03169085015260609081015115159084015260209390930192608090920191600101615d41565b505080925050506141466060830184615cb7565b5f60208284031215615dc4575f5ffd5b5051919050565b634e487b7160e01b5f52603260045260245ffd5b604081525f615df16040830185615731565b8281036020840152614146818561504f565b634e487b7160e01b5f52601160045260245ffd5b80820180821115610acb57610acb615e03565b8082028115828204841417610acb57610acb615e03565b634e487b7160e01b5f52601260045260245ffd5b5f82615e6f57634e487b7160e01b5f52601260045260245ffd5b500490565b6001600160a01b038881168252871660208201525f60058710615e9957615e996158ef565b86604083015260e06060830152615eb360e0830187615731565b85608084015282810360a0840152615ecb8186615731565b905082810360c08401526157cc818561504f565b6001600160a01b0392831681529116602082015260400190565b5f60808284031215615f09575f5ffd5b615f116150f1565b90508151615f1e816151e9565b81526020820151615f2e816151e9565b60208201526040820151615f41816151e9565b60408201526060820151615f54816151e9565b606082015292915050565b805164ffffffffff811681146150ae575f5ffd5b805163ffffffff811681146150ae575f5ffd5b5f6101a0828403128015615f98575f5ffd5b50615fa161515d565b615fab8484615ef9565b81526080830151602082015260a0830151604082015260c08301516060820152615fd760e08401615f5f565b6080820152615fe96101008401615f73565b60a0820152615ffb6101208401615c76565b60c082015261600d6101408401615c76565b60e082015261601f6101608401615c76565b6101008201526160326101808401615c76565b6101208201529392505050565b81810381811115610acb57610acb615e03565b5f82601f830112616061575f5ffd5b815161606f615272826151b0565b8082825260208201915060208360051b860101925085831115616090575f5ffd5b602085015b838110156153925780516160a88161508f565b835260209283019201616095565b5f602082840312156160c6575f5ffd5b81516001600160401b038111156160db575f5ffd5b610bdd84828501616052565b5f82601f8301126160f6575f5ffd5b8151616104615272826151b0565b8082825260208201915060208360051b860101925085831115616125575f5ffd5b602085015b8381101561539257805183526020928301920161612a565b5f5f5f5f60808587031215616155575f5ffd5b84516001600160401b0381111561616a575f5ffd5b61617687828801616052565b602087015190955090506001600160401b03811115616193575f5ffd5b8501601f810187136161a3575f5ffd5b80516161b1615272826151b0565b808282526020820191506020606084028501019250898311156161d2575f5ffd5b6020840193505b8284101561623f576060848b0312156161f0575f5ffd5b6161f861513b565b8451616203816151d2565b815260208501516162138161508f565b60208201526040850151616226816151e9565b60408201528252606093909301926020909101906161d9565b6040890151909650925050506001600160401b0381111561625e575f5ffd5b61626a878288016160e7565b606087015190935090506001600160401b03811115616287575f5ffd5b616293878288016160e7565b91505092959194509250565b5f602082840312156162af575f5ffd5b81516001600160401b038111156162c4575f5ffd5b610bdd848285016160e7565b6001600160a01b038881168252871660208201525f600487106162f5576162f56158ef565b86604083015285606083015260e0608083015261631560e0830186615731565b82810360a0840152615ecb8186615731565b5f610140828403128015616339575f5ffd5b5061634261515d565b61634b83615c76565b815261635960208401615c76565b602082015261636a60408401615c76565b604082015261637b60608401615c76565b606082015261638c60808401615c76565b608082015261639d60a08401615c76565b60a08201526163ae60c08401615c76565b60c08201526163bf60e08401615c76565b60e08201526163d16101008401615c76565b6101008201526160326101208401615c76565b5f602082840312156163f4575f5ffd5b815161162a81615a5d565b6001815b600184111561436e5780850481111561641e5761641e615e03565b600184161561642c57908102905b60019390931c928002616403565b5f8261644857506001610acb565b8161645457505f610acb565b816001811461646a576002811461647457616490565b6001915050610acb565b60ff84111561648557616485615e03565b50506001821b610acb565b5060208310610133831016604e8410600b84101617156164b3575081810a610acb565b6164bf5f1984846163ff565b805f19048211156164d2576164d2615e03565b029392505050565b5f61162a838361643a565b75159a5c9d1d585b10985b185b98d95cd55c19185d195960521b8152604060208201525f61162a604083018461504f565b93845260208401929092526040830152606082015260800190565b75141c9a58d954985d1a5bd4dd185d19555c19185d195960521b8152604060208201525f61162a604083018461504f565b7f4461696c79507269636553686966744578706f6e656e745570646174656400008152604060208201525f61162a604083018461504f565b7810d95b9d195c99591b995cdcd3585c99da5b955c19185d1959603a1b8152604060208201525f61162a604083018461504f565b7313185cdd151a5b595cdd185b5c155c19185d195960621b8152604060208201525f61162a604083018461504f565b5f6020828403121561660d575f5ffd5b815161162a8161508f565b63ffffffff8281168282160390811115610acb57610acb615e03565b634e487b7160e01b5f52605160045260245ffdfe6e71edae12b1b97f4d1f60370fef10105fa2faae0126114a169c64845d6126c9a264697066735822122092fec84ece88e87f52852129a4ca9404710e27743ff90b5ec6066505f4d0fa4564736f6c634300081e0033","linkReferences":{}},"methodIdentifiers":{"DOMAIN_SEPARATOR()":"3644e515","PERMIT_TYPEHASH()":"30adf81f","allowance(address,address)":"dd62ed3e","approve(address,uint256)":"095ea7b3","balanceOf(address)":"70a08231","computeBalance(uint256[],uint256,uint256)":"16a0b3e0","computeCurrentVirtualBalances(uint256[])":"6d3d108a","computeInitialBalanceRatio()":"d48ef377","computeInitialBalancesRaw(address,uint256)":"e45801da","computeInvariant(uint256[],uint8)":"984de9e8","decimals()":"313ce567","eip712Domain()":"84b0196e","emitApproval(address,address,uint256)":"5687f2b8","emitTransfer(address,address,uint256)":"23de6651","getActionId(bytes4)":"851c1bb3","getAggregateFeePercentages()":"81fa807c","getCurrentLiveBalances()":"b156aa0a","getHookFlags()":"d77153a7","getMaximumInvariantRatio()":"273c1adf","getMaximumSwapFeePercentage()":"654cf15d","getMinimumInvariantRatio()":"b677fa56","getMinimumSwapFeePercentage()":"ce20ece7","getRate()":"679aefce","getReClammPoolExtension()":"29e8fb05","getStaticSwapFeePercentage()":"d335b0cf","getTokenInfo()":"abb1dc44","getTokens()":"aa6ca808","getVault()":"8d928af8","incrementNonce()":"627cdcb9","isPoolWithinTargetRange()":"dfba3818","manualSetCenterednessMargin(uint256)":"e20be8d3","manualStartPriceRatioUpdate(uint256,uint256,uint256)":"6794a278","name()":"06fdde03","nonces(address)":"7ecebe00","onBeforeAddLiquidity(address,address,uint8,uint256[],uint256,uint256[],bytes)":"45421ec7","onBeforeInitialize(uint256[],bytes)":"1c149e28","onBeforeRemoveLiquidity(address,address,uint8,uint256,uint256[],uint256[],bytes)":"ba5f9f40","onRegister(address,address,(address,uint8,address,bool)[],(bool,bool,bool,bool))":"0b89f182","onSwap((uint8,uint256,uint256[],uint256,uint256,address,bytes))":"72c98186","permit(address,address,uint256,uint256,uint8,bytes32,bytes32)":"d505accf","reInitialize(uint256[],uint256,uint256,uint256,uint128,uint256)":"a0c4ba90","setCenterednessMargin(uint256)":"0673d09a","setDailyPriceShiftExponent(uint256)":"c66dbc4b","setLastTimestamp(uint256)":"4cbbe1ad","setLastVirtualBalances(uint256[])":"958144b2","startPriceRatioUpdate(uint256,uint256,uint256)":"a6d2e718","stopPriceRatioUpdate()":"d4a5b63a","supportsInterface(bytes4)":"01ffc9a7","symbol()":"95d89b41","totalSupply()":"18160ddd","transfer(address,uint256)":"a9059cbb","transferFrom(address,address,uint256)":"23b872dd","version()":"54fd4d50"},"id":920}