{"abi":[{"type":"constructor","inputs":[{"name":"owner_","type":"address","internalType":"address"},{"name":"create3Factory_","type":"address","internalType":"contract ICreate3Factory"}],"stateMutability":"nonpayable"},{"type":"function","name":"acceptOwnershipTransfer","inputs":[],"outputs":[],"stateMutability":"nonpayable"},{"type":"function","name":"allFacets","inputs":[],"outputs":[{"name":"facetAddresses","type":"address[]","internalType":"address[]"}],"stateMutability":"view"},{"type":"function","name":"cancelPendingOwnershipTransfer","inputs":[],"outputs":[],"stateMutability":"nonpayable"},{"type":"function","name":"confirmOwnershipTransfer","inputs":[{"name":"pendingOwner_","type":"address","internalType":"address"}],"outputs":[],"stateMutability":"nonpayable"},{"type":"function","name":"create3Factory","inputs":[],"outputs":[{"name":"","type":"address","internalType":"contract ICreate3Factory"}],"stateMutability":"view"},{"type":"function","name":"deployFacet","inputs":[{"name":"initCode","type":"bytes","internalType":"bytes"},{"name":"salt","type":"bytes32","internalType":"bytes32"}],"outputs":[{"name":"facet","type":"address","internalType":"contract IFacet"}],"stateMutability":"nonpayable"},{"type":"function","name":"deployFacet","inputs":[{"name":"initCode","type":"bytes","internalType":"bytes"},{"name":"initArgs","type":"bytes","internalType":"bytes"},{"name":"salt","type":"bytes32","internalType":"bytes32"}],"outputs":[{"name":"facet","type":"address","internalType":"contract IFacet"}],"stateMutability":"nonpayable"},{"type":"function","name":"facetsOfFunction","inputs":[{"name":"functionSelector","type":"bytes4","internalType":"bytes4"}],"outputs":[{"name":"facetAddresses","type":"address[]","internalType":"address[]"}],"stateMutability":"view"},{"type":"function","name":"facetsOfInterface","inputs":[{"name":"interfaceId","type":"bytes4","internalType":"bytes4"}],"outputs":[{"name":"facetAddresses","type":"address[]","internalType":"address[]"}],"stateMutability":"view"},{"type":"function","name":"facetsOfName","inputs":[{"name":"name","type":"string","internalType":"string"}],"outputs":[{"name":"facetAddresses","type":"address[]","internalType":"address[]"}],"stateMutability":"view"},{"type":"function","name":"functionsOfFacet","inputs":[{"name":"facet","type":"address","internalType":"contract IFacet"},{"name":"","type":"uint256","internalType":"uint256"}],"outputs":[{"name":"functions","type":"bytes4","internalType":"bytes4"}],"stateMutability":"view"},{"type":"function","name":"getOwnershipTransferBuffer","inputs":[],"outputs":[{"name":"","type":"uint256","internalType":"uint256"}],"stateMutability":"view"},{"type":"function","name":"initiateOwnershipTransfer","inputs":[{"name":"pendingOwner_","type":"address","internalType":"address"}],"outputs":[],"stateMutability":"nonpayable"},{"type":"function","name":"interfacesOfFacet","inputs":[{"name":"facet","type":"address","internalType":"contract IFacet"},{"name":"","type":"uint256","internalType":"uint256"}],"outputs":[{"name":"interfaces","type":"bytes4","internalType":"bytes4"}],"stateMutability":"view"},{"type":"function","name":"isOperator","inputs":[{"name":"query","type":"address","internalType":"address"}],"outputs":[{"name":"","type":"bool","internalType":"bool"}],"stateMutability":"view"},{"type":"function","name":"isOperatorFor","inputs":[{"name":"func","type":"bytes4","internalType":"bytes4"},{"name":"query","type":"address","internalType":"address"}],"outputs":[{"name":"","type":"bool","internalType":"bool"}],"stateMutability":"view"},{"type":"function","name":"nameOfFacet","inputs":[{"name":"facet","type":"address","internalType":"contract IFacet"}],"outputs":[{"name":"name","type":"string","internalType":"string"}],"stateMutability":"view"},{"type":"function","name":"owner","inputs":[],"outputs":[{"name":"","type":"address","internalType":"address"}],"stateMutability":"view"},{"type":"function","name":"pendingOwner","inputs":[],"outputs":[{"name":"","type":"address","internalType":"address"}],"stateMutability":"view"},{"type":"function","name":"preConfirmedOwner","inputs":[],"outputs":[{"name":"","type":"address","internalType":"address"}],"stateMutability":"view"},{"type":"function","name":"setOperator","inputs":[{"name":"operator","type":"address","internalType":"address"},{"name":"status","type":"bool","internalType":"bool"}],"outputs":[{"name":"","type":"bool","internalType":"bool"}],"stateMutability":"nonpayable"},{"type":"function","name":"setOperatorFor","inputs":[{"name":"func","type":"bytes4","internalType":"bytes4"},{"name":"newOperator","type":"address","internalType":"address"},{"name":"approval","type":"bool","internalType":"bool"}],"outputs":[{"name":"","type":"bool","internalType":"bool"}],"stateMutability":"nonpayable"},{"type":"event","name":"NewFunctionOperatorStatus","inputs":[{"name":"operator","type":"address","indexed":false,"internalType":"address"},{"name":"func","type":"bytes4","indexed":false,"internalType":"bytes4"},{"name":"status","type":"bool","indexed":false,"internalType":"bool"}],"anonymous":false},{"type":"event","name":"NewGlobalOperatorStatus","inputs":[{"name":"operator","type":"address","indexed":false,"internalType":"address"},{"name":"status","type":"bool","indexed":false,"internalType":"bool"}],"anonymous":false},{"type":"event","name":"OwnershipTransferConfirmed","inputs":[{"name":"prevOwner","type":"address","indexed":true,"internalType":"address"},{"name":"newOwner","type":"address","indexed":true,"internalType":"address"}],"anonymous":false},{"type":"event","name":"OwnershipTransferInitiated","inputs":[{"name":"prevOwner","type":"address","indexed":true,"internalType":"address"},{"name":"newOwner","type":"address","indexed":true,"internalType":"address"}],"anonymous":false},{"type":"event","name":"OwnershipTransferred","inputs":[{"name":"prevOwner","type":"address","indexed":true,"internalType":"address"},{"name":"newOwner","type":"address","indexed":true,"internalType":"address"}],"anonymous":false},{"type":"error","name":"BufferPeriodNotElapsed","inputs":[{"name":"currentTime","type":"uint256","internalType":"uint256"},{"name":"bufferEndTime","type":"uint256","internalType":"uint256"}]},{"type":"error","name":"NotOperator","inputs":[{"name":"caller","type":"address","internalType":"address"}]},{"type":"error","name":"NotOwner","inputs":[{"name":"caller","type":"address","internalType":"address"}]},{"type":"error","name":"NotPending","inputs":[{"name":"caller","type":"address","internalType":"address"}]}],"bytecode":{"object":"0x60a060405234801561000f575f5ffd5b506040516119c33803806119c383398101604081905261002e916101f0565b6001600160a01b038116608052610048826203f48061005a565b61005381600161008a565b5050610228565b61008661006561009c565b80546001600160a01b0319166001600160a01b038516178155600201829055565b5050565b6100866100956100c5565b838361012b565b7f552e522d4f9b6a3d443b47299f900b7b1bce2dacca532b0186b605495413451d90565b905090565b5f6100c060405160200161010a9060208082526015908201527f6372616e652e6163636573732e6f70657261626c650000000000000000000000604082015260600190565b6040516020818303038152906040528051906020012061019460201b60201c565b610133610197565b6001600160a01b0382165f8181526020858152604091829020805460ff19168515159081179091558251938452908301527f26ba28058a3c072a70c8fd315037fe9b3957237cef5c61a9652a8da41c673daa910160405180910390a1505050565b90565b6101a76101a261009c565b6101a9565b565b80546001600160a01b031633146101d95760405163245aecd360e01b815233600482015260240160405180910390fd5b50565b6001600160a01b03811681146101d9575f5ffd5b5f5f60408385031215610201575f5ffd5b825161020c816101dc565b602084015190925061021d816101dc565b809150509250929050565b60805161177561024e5f395f81816101690152818161044c01526105e301526117755ff3fe608060405234801561000f575f5ffd5b5060043610610110575f3560e01c80630f9f25301461011457806315fe57881461012f5780631af1b0c41461014f5780632f027242146101645780633c2139571461018b5780634e097bd0146101a0578063558a7297146101a857806363f296d1146101cb5780636d70f7ae146101de578063737293e2146101f1578063755dbe7c146101f95780638da5cb5b1461020c578063b2da46ef14610214578063b842e87f14610227578063ba63b8141461022f578063c0b6f56114610242578063c6785d2114610255578063dc715dc114610268578063e30c397814610294578063e3ff70d61461029c578063ea562a25146102bc578063ede8016b146102cf575b5f5ffd5b61011c6102e2565b6040519081526020015b60405180910390f35b61014261013d366004611096565b6102f0565b60405161012691906110d4565b61015761039b565b604051610126919061111f565b6101577f000000000000000000000000000000000000000000000000000000000000000081565b61019e610199366004611147565b6103a4565b005b6101426103b0565b6101bb6101b6366004611176565b610410565b6040519015158152602001610126565b6101576101d93660046111a9565b61042c565b6101bb6101ec366004611147565b6104d7565b61019e6104e1565b6101bb610207366004611205565b6104eb565b610157610509565b610142610222366004611249565b610512565b61019e61058f565b61014261023d366004611249565b610597565b61019e610250366004611147565b6105ba565b610157610263366004611264565b6105c3565b61027b6102763660046112d5565b610674565b6040516001600160e01b03199091168152602001610126565b6101576106b5565b6102af6102aa366004611147565b6106be565b60405161012691906112ff565b6101bb6102ca366004611334565b610755565b61027b6102dd3660046112d5565b610760565b5f6102eb610779565b905090565b606061033b60035f610328868660405160200161030e929190611393565b604051602081830303815290604052805160209091012090565b81526020019081526020015f2060010190565b80548060200260200160405190810160405280929190818152602001828054801561038d57602002820191905f5260205f20905b81546001600160a01b0316815260019091019060200180831161036f575b505050505090505b92915050565b5f6102eb61078c565b6103ad8161079d565b50565b6060600780548060200260200160405190810160405280929190818152602001828054801561040657602002820191905f5260205f20905b81546001600160a01b031681526001909101906020018083116103e8575b5050505050905090565b5f6104196107ae565b61042383836107be565b50600192915050565b5f6104356107d4565b60405163a7b62a7f60e01b81526001600160a01b037f0000000000000000000000000000000000000000000000000000000000000000169063a7b62a7f90610485908790879087906004016113ae565b6020604051808303815f875af11580156104a1573d5f5f3e3d5ffd5b505050506040513d601f19601f820116820180604052508101906104c591906113d1565b90506104d0816107e4565b9392505050565b5f610395826109a1565b6104e96109b3565b565b5f6104f46107ae565b6104ff8484846109c3565b5060019392505050565b5f6102eb6109db565b6001600160e01b031981165f9081526005602052604090206060906001015b80548060200260200160405190810160405280929190818152602001828054801561058357602002820191905f5260205f20905b81546001600160a01b03168152600190910190602001808311610565575b50505050509050919050565b6104e96109f4565b6001600160e01b031981165f908152600460205260409020606090600101610531565b6103ad81610a04565b5f6105cc6107d4565b604051631f7fe4db60e01b81526001600160a01b037f00000000000000000000000000000000000000000000000000000000000000001690631f7fe4db9061062090899089908990899089906004016113ec565b6020604051808303815f875af115801561063c573d5f5f3e3d5ffd5b505050506040513d601f19601f8201168201806040525081019061066091906113d1565b905061066b816107e4565b95945050505050565b6002602052815f5260405f20818154811061068d575f80fd5b905f5260205f209060089182820401919006600402915091509054906101000a900460e01b81565b5f6102eb610a15565b5f60208190529081526040902080546106d690611425565b80601f016020809104026020016040519081016040528092919081815260200182805461070290611425565b801561074d5780601f106107245761010080835404028352916020019161074d565b820191905f5260205f20905b81548152906001019060200180831161073057829003601f168201915b505050505081565b5f6104d08383610a31565b6001602052815f5260405f20818154811061068d575f80fd5b5f6102eb610785610a44565b6002015490565b5f6102eb610798610a44565b610a68565b6103ad6107a8610a44565b82610a95565b6104e96107b9610a44565b610b87565b6107d06107c9610bb3565b8383610c09565b5050565b6104e96107df610bb3565b610c72565b5f5f5f836001600160a01b031663f10d7a756040518163ffffffff1660e01b81526004015f60405180830381865afa158015610822573d5f5f3e3d5ffd5b505050506040513d5f823e601f3d908101601f191682016040526108499190810190611529565b6001600160a01b0387165f90815260208190526040902092955090935091506108728482611652565b506001600160a01b0384165f908152600160209081526040909120835161089b92850190610f95565b506001600160a01b0384165f90815260026020908152604090912082516108c492840190610f95565b506108d0600685610cd8565b506109078460035f6108ec8760405160200161030e91906112ff565b81526020019081526020015f20610cd890919063ffffffff16565b505f5b825181101561096c576109638560045f86858151811061092c5761092c61170c565b60200260200101516001600160e01b0319166001600160e01b03191681526020019081526020015f20610cd890919063ffffffff16565b5060010161090a565b505f5b815181101561099a576109918560055f85858151811061092c5761092c61170c565b5060010161096f565b5050505050565b5f6103956109ad610bb3565b83610d3c565b6104e96109be610a44565b610d5a565b6109d66109ce610bb3565b848484610da3565b505050565b5f6102eb6109e7610a44565b546001600160a01b031690565b6104e96109ff610a44565b610e2e565b6103ad610a0f610a44565b82610ec8565b5f6102eb610a21610a44565b600101546001600160a01b031690565b5f6104d0610a3d610bb3565b8484610f5c565b7f552e522d4f9b6a3d443b47299f900b7b1bce2dacca532b0186b605495413451d90565b60018101545f90600160a01b900460ff16610a8457505f919050565b50600101546001600160a01b031690565b81546001600160a01b0316338114610acb573360405163245aecd360e01b8152600401610ac2919061111f565b60405180910390fd5b8260030154421015610aff57600383015460405163d64ede7360e01b81524260048201526024810191909152604401610ac2565b60018301546001600160a01b039081169083168114610b33578260405163a7fa19b160e01b8152600401610ac2919061111f565b60018401805460ff60a01b198116600160a01b179091556040516001600160a01b03918216918416907f646fe5eeb20d96ea45a9caafcb508854a2fb5660885ced7772e12a633c974571905f90a350505050565b80546001600160a01b031633146103ad573360405163245aecd360e01b8152600401610ac2919061111f565b5f6102eb604051602001610bf0906020808252601590820152746372616e652e6163636573732e6f70657261626c6560581b604082015260600190565b6040516020818303038152906040528051906020012090565b610c116107ae565b6001600160a01b0382165f8181526020858152604091829020805460ff19168515159081179091558251938452908301527f26ba28058a3c072a70c8fd315037fe9b3957237cef5c61a9652a8da41c673daa910160405180910390a1505050565b33610c7b6109db565b6001600160a01b031614158015610c995750610c978133610d3c565b155b8015610cb85750610cb6815f356001600160e01b03191633610f5c565b155b156103ad5733604051633b63649d60e11b8152600401610ac2919061111f565b6001600160a01b0381165f9081526020839052604081205461042357506001828101805480830182555f828152602080822090920180546001600160a01b0319166001600160a01b0396909616958617905591549382529390935260409092205590565b6001600160a01b03165f908152602091909152604090205460ff1690565b80546001600160a01b0316338114610d87573360405163245aecd360e01b8152600401610ac2919061111f565b506001810180546001600160a81b03191690555f600390910155565b610dab6107ae565b6001600160e01b031983165f81815260018601602090815260408083206001600160a01b03871680855290835292819020805486151560ff1990911681179091558151938452918301939093528183015290517ff071216dc06459e77b915d1883909d92f41239172000b60261dfdc03518895699181900360600190a150505050565b60018101546001600160a01b0316338114610e5e573360405163a7fa19b160e01b8152600401610ac2919061111f565b81546001600160a01b038281166001600160a01b03198316811785556001850180546001600160a81b03191690555f600386018190556040519290931692909183917f8be0079c531659141344cd1fd0a4f28419497f9722a3daafe3b4186f6b6457e091a3505050565b81546001600160a01b0316338114610ef5573360405163245aecd360e01b8152600401610ac2919061111f565b6002830154610f049042611720565b60038401556001830180546001600160a01b0319166001600160a01b0384811691821790925560405190918316907fb150023a879fd806e3599b6ca8ee3b60f0e360ab3846d128d67ebce1a391639a905f90a3505050565b6001600160e01b031982165f90815260018401602090815260408083206001600160a01b038516845290915290205460ff169392505050565b828054828255905f5260205f209060070160089004810192821561102e579160200282015f5b83821115610ffc57835183826101000a81548163ffffffff021916908360e01c02179055509260200192600401602081600301049283019260010302610fbb565b801561102c5782816101000a81549063ffffffff0219169055600401602081600301049283019260010302610ffc565b505b5061103a92915061103e565b5090565b5b8082111561103a575f815560010161103f565b5f5f83601f840112611062575f5ffd5b5081356001600160401b03811115611078575f5ffd5b60208301915083602082850101111561108f575f5ffd5b9250929050565b5f5f602083850312156110a7575f5ffd5b82356001600160401b038111156110bc575f5ffd5b6110c885828601611052565b90969095509350505050565b602080825282518282018190525f918401906040840190835b818110156111145783516001600160a01b03168352602093840193909201916001016110ed565b509095945050505050565b6001600160a01b0391909116815260200190565b6001600160a01b03811681146103ad575f5ffd5b5f60208284031215611157575f5ffd5b81356104d081611133565b80358015158114611171575f5ffd5b919050565b5f5f60408385031215611187575f5ffd5b823561119281611133565b91506111a060208401611162565b90509250929050565b5f5f5f604084860312156111bb575f5ffd5b83356001600160401b038111156111d0575f5ffd5b6111dc86828701611052565b909790965060209590950135949350505050565b6001600160e01b0319811681146103ad575f5ffd5b5f5f5f60608486031215611217575f5ffd5b8335611222816111f0565b9250602084013561123281611133565b915061124060408501611162565b90509250925092565b5f60208284031215611259575f5ffd5b81356104d0816111f0565b5f5f5f5f5f60608688031215611278575f5ffd5b85356001600160401b0381111561128d575f5ffd5b61129988828901611052565b90965094505060208601356001600160401b038111156112b7575f5ffd5b6112c388828901611052565b96999598509660400135949350505050565b5f5f604083850312156112e6575f5ffd5b82356112f181611133565b946020939093013593505050565b602081525f82518060208401528060208501604085015e5f604082850101526040601f19601f83011684010191505092915050565b5f5f60408385031215611345575f5ffd5b8235611350816111f0565b9150602083013561136081611133565b809150509250929050565b81835281816020850137505f828201602090810191909152601f909101601f19169091010190565b602081525f6113a660208301848661136b565b949350505050565b604081525f6113c160408301858761136b565b9050826020830152949350505050565b5f602082840312156113e1575f5ffd5b81516104d081611133565b606081525f6113ff60608301878961136b565b828103602084015261141281868861136b565b9150508260408301529695505050505050565b600181811c9082168061143957607f821691505b60208210810361145757634e487b7160e01b5f52602260045260245ffd5b50919050565b634e487b7160e01b5f52604160045260245ffd5b604051601f8201601f191681016001600160401b03811182821017156114995761149961145d565b604052919050565b5f82601f8301126114b0575f5ffd5b81516001600160401b038111156114c9576114c961145d565b8060051b6114d960208201611471565b918252602081850181019290810190868411156114f4575f5ffd5b6020860192505b8383101561151f57825161150e816111f0565b8252602092830192909101906114fb565b9695505050505050565b5f5f5f6060848603121561153b575f5ffd5b83516001600160401b03811115611550575f5ffd5b8401601f81018613611560575f5ffd5b80516001600160401b038111156115795761157961145d565b61158c601f8201601f1916602001611471565b8181528760208385010111156115a0575f5ffd5b8160208401602083015e5f60208383010152809550505050602084015160018060401b038111156115cf575f5ffd5b6115db868287016114a1565b604086015190935090506001600160401b038111156115f8575f5ffd5b611604868287016114a1565b9150509250925092565b601f8211156109d657805f5260205f20601f840160051c810160208510156116335750805b601f840160051c820191505b8181101561099a575f815560010161163f565b81516001600160401b0381111561166b5761166b61145d565b61167f816116798454611425565b8461160e565b6020601f8211600181146116b1575f831561169a5750848201515b5f19600385901b1c1916600184901b17845561099a565b5f84815260208120601f198516915b828110156116e057878501518255602094850194600190920191016116c0565b50848210156116fd57868401515f19600387901b60f8161c191681555b50505050600190811b01905550565b634e487b7160e01b5f52603260045260245ffd5b8082018082111561039557634e487b7160e01b5f52601160045260245ffdfea26469706673582212205e1fb5f61d0ffddd067798ea4d3da26508ec7ab511e753f982e1b40e183f373564736f6c634300081e0033","linkReferences":{}},"methodIdentifiers":{"acceptOwnershipTransfer()":"b842e87f","allFacets()":"4e097bd0","cancelPendingOwnershipTransfer()":"737293e2","confirmOwnershipTransfer(address)":"3c213957","create3Factory()":"2f027242","deployFacet(bytes,bytes,bytes32)":"c6785d21","deployFacet(bytes,bytes32)":"63f296d1","facetsOfFunction(bytes4)":"b2da46ef","facetsOfInterface(bytes4)":"ba63b814","facetsOfName(string)":"15fe5788","functionsOfFacet(address,uint256)":"dc715dc1","getOwnershipTransferBuffer()":"0f9f2530","initiateOwnershipTransfer(address)":"c0b6f561","interfacesOfFacet(address,uint256)":"ede8016b","isOperator(address)":"6d70f7ae","isOperatorFor(bytes4,address)":"ea562a25","nameOfFacet(address)":"e3ff70d6","owner()":"8da5cb5b","pendingOwner()":"e30c3978","preConfirmedOwner()":"1af1b0c4","setOperator(address,bool)":"558a7297","setOperatorFor(bytes4,address,bool)":"755dbe7c"},"id":1266}