{"abi":[{"type":"constructor","inputs":[{"name":"mainVault","type":"address","internalType":"contract IVault"},{"name":"vaultAdmin","type":"address","internalType":"contract IVaultAdmin"}],"stateMutability":"nonpayable"},{"type":"fallback","stateMutability":"payable"},{"type":"receive","stateMutability":"payable"},{"type":"function","name":"allowance","inputs":[{"name":"token","type":"address","internalType":"address"},{"name":"owner","type":"address","internalType":"address"},{"name":"spender","type":"address","internalType":"address"}],"outputs":[{"name":"","type":"uint256","internalType":"uint256"}],"stateMutability":"view"},{"type":"function","name":"approve","inputs":[{"name":"owner","type":"address","internalType":"address"},{"name":"spender","type":"address","internalType":"address"},{"name":"amount","type":"uint256","internalType":"uint256"}],"outputs":[{"name":"","type":"bool","internalType":"bool"}],"stateMutability":"nonpayable"},{"type":"function","name":"balanceOf","inputs":[{"name":"token","type":"address","internalType":"address"},{"name":"account","type":"address","internalType":"address"}],"outputs":[{"name":"","type":"uint256","internalType":"uint256"}],"stateMutability":"view"},{"type":"function","name":"computeDynamicSwapFeePercentage","inputs":[{"name":"pool","type":"address","internalType":"address"},{"name":"swapParams","type":"tuple","internalType":"struct PoolSwapParams","components":[{"name":"kind","type":"uint8","internalType":"enum SwapKind"},{"name":"amountGivenScaled18","type":"uint256","internalType":"uint256"},{"name":"balancesScaled18","type":"uint256[]","internalType":"uint256[]"},{"name":"indexIn","type":"uint256","internalType":"uint256"},{"name":"indexOut","type":"uint256","internalType":"uint256"},{"name":"router","type":"address","internalType":"address"},{"name":"userData","type":"bytes","internalType":"bytes"}]}],"outputs":[{"name":"dynamicSwapFeePercentage","type":"uint256","internalType":"uint256"}],"stateMutability":"view"},{"type":"function","name":"emitAuxiliaryEvent","inputs":[{"name":"eventKey","type":"bytes32","internalType":"bytes32"},{"name":"eventData","type":"bytes","internalType":"bytes"}],"outputs":[],"stateMutability":"nonpayable"},{"type":"function","name":"getAddLiquidityCalledFlag","inputs":[{"name":"pool","type":"address","internalType":"address"}],"outputs":[{"name":"","type":"bool","internalType":"bool"}],"stateMutability":"view"},{"type":"function","name":"getAggregateSwapFeeAmount","inputs":[{"name":"pool","type":"address","internalType":"address"},{"name":"token","type":"address","internalType":"contract IERC20"}],"outputs":[{"name":"","type":"uint256","internalType":"uint256"}],"stateMutability":"view"},{"type":"function","name":"getAggregateYieldFeeAmount","inputs":[{"name":"pool","type":"address","internalType":"address"},{"name":"token","type":"address","internalType":"contract IERC20"}],"outputs":[{"name":"","type":"uint256","internalType":"uint256"}],"stateMutability":"view"},{"type":"function","name":"getAuthorizer","inputs":[],"outputs":[{"name":"","type":"address","internalType":"contract IAuthorizer"}],"stateMutability":"view"},{"type":"function","name":"getBptRate","inputs":[{"name":"pool","type":"address","internalType":"address"}],"outputs":[{"name":"rate","type":"uint256","internalType":"uint256"}],"stateMutability":"view"},{"type":"function","name":"getCurrentLiveBalances","inputs":[{"name":"pool","type":"address","internalType":"address"}],"outputs":[{"name":"balancesLiveScaled18","type":"uint256[]","internalType":"uint256[]"}],"stateMutability":"view"},{"type":"function","name":"getERC4626BufferAsset","inputs":[{"name":"wrappedToken","type":"address","internalType":"contract IERC4626"}],"outputs":[{"name":"asset","type":"address","internalType":"address"}],"stateMutability":"view"},{"type":"function","name":"getHooksConfig","inputs":[{"name":"pool","type":"address","internalType":"address"}],"outputs":[{"name":"","type":"tuple","internalType":"struct HooksConfig","components":[{"name":"enableHookAdjustedAmounts","type":"bool","internalType":"bool"},{"name":"shouldCallBeforeInitialize","type":"bool","internalType":"bool"},{"name":"shouldCallAfterInitialize","type":"bool","internalType":"bool"},{"name":"shouldCallComputeDynamicSwapFee","type":"bool","internalType":"bool"},{"name":"shouldCallBeforeSwap","type":"bool","internalType":"bool"},{"name":"shouldCallAfterSwap","type":"bool","internalType":"bool"},{"name":"shouldCallBeforeAddLiquidity","type":"bool","internalType":"bool"},{"name":"shouldCallAfterAddLiquidity","type":"bool","internalType":"bool"},{"name":"shouldCallBeforeRemoveLiquidity","type":"bool","internalType":"bool"},{"name":"shouldCallAfterRemoveLiquidity","type":"bool","internalType":"bool"},{"name":"hooksContract","type":"address","internalType":"address"}]}],"stateMutability":"view"},{"type":"function","name":"getNonzeroDeltaCount","inputs":[],"outputs":[{"name":"","type":"uint256","internalType":"uint256"}],"stateMutability":"view"},{"type":"function","name":"getPoolConfig","inputs":[{"name":"pool","type":"address","internalType":"address"}],"outputs":[{"name":"","type":"tuple","internalType":"struct PoolConfig","components":[{"name":"liquidityManagement","type":"tuple","internalType":"struct LiquidityManagement","components":[{"name":"disableUnbalancedLiquidity","type":"bool","internalType":"bool"},{"name":"enableAddLiquidityCustom","type":"bool","internalType":"bool"},{"name":"enableRemoveLiquidityCustom","type":"bool","internalType":"bool"},{"name":"enableDonation","type":"bool","internalType":"bool"}]},{"name":"staticSwapFeePercentage","type":"uint256","internalType":"uint256"},{"name":"aggregateSwapFeePercentage","type":"uint256","internalType":"uint256"},{"name":"aggregateYieldFeePercentage","type":"uint256","internalType":"uint256"},{"name":"tokenDecimalDiffs","type":"uint40","internalType":"uint40"},{"name":"pauseWindowEndTime","type":"uint32","internalType":"uint32"},{"name":"isPoolRegistered","type":"bool","internalType":"bool"},{"name":"isPoolInitialized","type":"bool","internalType":"bool"},{"name":"isPoolPaused","type":"bool","internalType":"bool"},{"name":"isPoolInRecoveryMode","type":"bool","internalType":"bool"}]}],"stateMutability":"view"},{"type":"function","name":"getPoolData","inputs":[{"name":"pool","type":"address","internalType":"address"}],"outputs":[{"name":"","type":"tuple","internalType":"struct PoolData","components":[{"name":"poolConfigBits","type":"bytes32","internalType":"PoolConfigBits"},{"name":"tokens","type":"address[]","internalType":"contract IERC20[]"},{"name":"tokenInfo","type":"tuple[]","internalType":"struct TokenInfo[]","components":[{"name":"tokenType","type":"uint8","internalType":"enum TokenType"},{"name":"rateProvider","type":"address","internalType":"contract IRateProvider"},{"name":"paysYieldFees","type":"bool","internalType":"bool"}]},{"name":"balancesRaw","type":"uint256[]","internalType":"uint256[]"},{"name":"balancesLiveScaled18","type":"uint256[]","internalType":"uint256[]"},{"name":"tokenRates","type":"uint256[]","internalType":"uint256[]"},{"name":"decimalScalingFactors","type":"uint256[]","internalType":"uint256[]"}]}],"stateMutability":"view"},{"type":"function","name":"getPoolPausedState","inputs":[{"name":"pool","type":"address","internalType":"address"}],"outputs":[{"name":"","type":"bool","internalType":"bool"},{"name":"","type":"uint32","internalType":"uint32"},{"name":"","type":"uint32","internalType":"uint32"},{"name":"","type":"address","internalType":"address"}],"stateMutability":"view"},{"type":"function","name":"getPoolRoleAccounts","inputs":[{"name":"pool","type":"address","internalType":"address"}],"outputs":[{"name":"","type":"tuple","internalType":"struct PoolRoleAccounts","components":[{"name":"pauseManager","type":"address","internalType":"address"},{"name":"swapFeeManager","type":"address","internalType":"address"},{"name":"poolCreator","type":"address","internalType":"address"}]}],"stateMutability":"view"},{"type":"function","name":"getPoolTokenInfo","inputs":[{"name":"pool","type":"address","internalType":"address"}],"outputs":[{"name":"tokens","type":"address[]","internalType":"contract IERC20[]"},{"name":"tokenInfo","type":"tuple[]","internalType":"struct TokenInfo[]","components":[{"name":"tokenType","type":"uint8","internalType":"enum TokenType"},{"name":"rateProvider","type":"address","internalType":"contract IRateProvider"},{"name":"paysYieldFees","type":"bool","internalType":"bool"}]},{"name":"balancesRaw","type":"uint256[]","internalType":"uint256[]"},{"name":"lastBalancesLiveScaled18","type":"uint256[]","internalType":"uint256[]"}],"stateMutability":"view"},{"type":"function","name":"getPoolTokenRates","inputs":[{"name":"pool","type":"address","internalType":"address"}],"outputs":[{"name":"decimalScalingFactors","type":"uint256[]","internalType":"uint256[]"},{"name":"tokenRates","type":"uint256[]","internalType":"uint256[]"}],"stateMutability":"view"},{"type":"function","name":"getPoolTokens","inputs":[{"name":"pool","type":"address","internalType":"address"}],"outputs":[{"name":"tokens","type":"address[]","internalType":"contract IERC20[]"}],"stateMutability":"view"},{"type":"function","name":"getProtocolFeeController","inputs":[],"outputs":[{"name":"","type":"address","internalType":"contract IProtocolFeeController"}],"stateMutability":"view"},{"type":"function","name":"getReservesOf","inputs":[{"name":"token","type":"address","internalType":"contract IERC20"}],"outputs":[{"name":"","type":"uint256","internalType":"uint256"}],"stateMutability":"view"},{"type":"function","name":"getStaticSwapFeePercentage","inputs":[{"name":"pool","type":"address","internalType":"address"}],"outputs":[{"name":"","type":"uint256","internalType":"uint256"}],"stateMutability":"view"},{"type":"function","name":"getTokenDelta","inputs":[{"name":"token","type":"address","internalType":"contract IERC20"}],"outputs":[{"name":"","type":"int256","internalType":"int256"}],"stateMutability":"view"},{"type":"function","name":"getVaultAdmin","inputs":[],"outputs":[{"name":"","type":"address","internalType":"address"}],"stateMutability":"view"},{"type":"function","name":"initialize","inputs":[{"name":"pool","type":"address","internalType":"address"},{"name":"to","type":"address","internalType":"address"},{"name":"tokens","type":"address[]","internalType":"contract IERC20[]"},{"name":"exactAmountsIn","type":"uint256[]","internalType":"uint256[]"},{"name":"minBptAmountOut","type":"uint256","internalType":"uint256"},{"name":"userData","type":"bytes","internalType":"bytes"}],"outputs":[{"name":"bptAmountOut","type":"uint256","internalType":"uint256"}],"stateMutability":"nonpayable"},{"type":"function","name":"isERC4626BufferInitialized","inputs":[{"name":"wrappedToken","type":"address","internalType":"contract IERC4626"}],"outputs":[{"name":"","type":"bool","internalType":"bool"}],"stateMutability":"view"},{"type":"function","name":"isPoolInRecoveryMode","inputs":[{"name":"pool","type":"address","internalType":"address"}],"outputs":[{"name":"","type":"bool","internalType":"bool"}],"stateMutability":"view"},{"type":"function","name":"isPoolInitialized","inputs":[{"name":"pool","type":"address","internalType":"address"}],"outputs":[{"name":"","type":"bool","internalType":"bool"}],"stateMutability":"view"},{"type":"function","name":"isPoolPaused","inputs":[{"name":"pool","type":"address","internalType":"address"}],"outputs":[{"name":"","type":"bool","internalType":"bool"}],"stateMutability":"view"},{"type":"function","name":"isPoolRegistered","inputs":[{"name":"pool","type":"address","internalType":"address"}],"outputs":[{"name":"","type":"bool","internalType":"bool"}],"stateMutability":"view"},{"type":"function","name":"isQueryDisabled","inputs":[],"outputs":[{"name":"","type":"bool","internalType":"bool"}],"stateMutability":"view"},{"type":"function","name":"isQueryDisabledPermanently","inputs":[],"outputs":[{"name":"","type":"bool","internalType":"bool"}],"stateMutability":"view"},{"type":"function","name":"isUnlocked","inputs":[],"outputs":[{"name":"","type":"bool","internalType":"bool"}],"stateMutability":"view"},{"type":"function","name":"quote","inputs":[{"name":"data","type":"bytes","internalType":"bytes"}],"outputs":[{"name":"result","type":"bytes","internalType":"bytes"}],"stateMutability":"nonpayable"},{"type":"function","name":"quoteAndRevert","inputs":[{"name":"data","type":"bytes","internalType":"bytes"}],"outputs":[],"stateMutability":"nonpayable"},{"type":"function","name":"reentrancyGuardEntered","inputs":[],"outputs":[{"name":"","type":"bool","internalType":"bool"}],"stateMutability":"view"},{"type":"function","name":"registerPool","inputs":[{"name":"pool","type":"address","internalType":"address"},{"name":"tokenConfig","type":"tuple[]","internalType":"struct TokenConfig[]","components":[{"name":"token","type":"address","internalType":"contract IERC20"},{"name":"tokenType","type":"uint8","internalType":"enum TokenType"},{"name":"rateProvider","type":"address","internalType":"contract IRateProvider"},{"name":"paysYieldFees","type":"bool","internalType":"bool"}]},{"name":"swapFeePercentage","type":"uint256","internalType":"uint256"},{"name":"pauseWindowEndTime","type":"uint32","internalType":"uint32"},{"name":"protocolFeeExempt","type":"bool","internalType":"bool"},{"name":"roleAccounts","type":"tuple","internalType":"struct PoolRoleAccounts","components":[{"name":"pauseManager","type":"address","internalType":"address"},{"name":"swapFeeManager","type":"address","internalType":"address"},{"name":"poolCreator","type":"address","internalType":"address"}]},{"name":"poolHooksContract","type":"address","internalType":"address"},{"name":"liquidityManagement","type":"tuple","internalType":"struct LiquidityManagement","components":[{"name":"disableUnbalancedLiquidity","type":"bool","internalType":"bool"},{"name":"enableAddLiquidityCustom","type":"bool","internalType":"bool"},{"name":"enableRemoveLiquidityCustom","type":"bool","internalType":"bool"},{"name":"enableDonation","type":"bool","internalType":"bool"}]}],"outputs":[],"stateMutability":"nonpayable"},{"type":"function","name":"removeLiquidityRecovery","inputs":[{"name":"pool","type":"address","internalType":"address"},{"name":"from","type":"address","internalType":"address"},{"name":"exactBptAmountIn","type":"uint256","internalType":"uint256"},{"name":"minAmountsOut","type":"uint256[]","internalType":"uint256[]"}],"outputs":[{"name":"amountsOutRaw","type":"uint256[]","internalType":"uint256[]"}],"stateMutability":"nonpayable"},{"type":"function","name":"totalSupply","inputs":[{"name":"token","type":"address","internalType":"address"}],"outputs":[{"name":"","type":"uint256","internalType":"uint256"}],"stateMutability":"view"},{"type":"function","name":"vault","inputs":[],"outputs":[{"name":"","type":"address","internalType":"contract IVault"}],"stateMutability":"view"},{"type":"event","name":"AggregateSwapFeePercentageChanged","inputs":[{"name":"pool","type":"address","indexed":true,"internalType":"address"},{"name":"aggregateSwapFeePercentage","type":"uint256","indexed":false,"internalType":"uint256"}],"anonymous":false},{"type":"event","name":"AggregateYieldFeePercentageChanged","inputs":[{"name":"pool","type":"address","indexed":true,"internalType":"address"},{"name":"aggregateYieldFeePercentage","type":"uint256","indexed":false,"internalType":"uint256"}],"anonymous":false},{"type":"event","name":"Approval","inputs":[{"name":"pool","type":"address","indexed":true,"internalType":"address"},{"name":"owner","type":"address","indexed":true,"internalType":"address"},{"name":"spender","type":"address","indexed":true,"internalType":"address"},{"name":"value","type":"uint256","indexed":false,"internalType":"uint256"}],"anonymous":false},{"type":"event","name":"AuthorizerChanged","inputs":[{"name":"newAuthorizer","type":"address","indexed":true,"internalType":"contract IAuthorizer"}],"anonymous":false},{"type":"event","name":"BufferSharesBurned","inputs":[{"name":"wrappedToken","type":"address","indexed":true,"internalType":"contract IERC4626"},{"name":"from","type":"address","indexed":true,"internalType":"address"},{"name":"burnedShares","type":"uint256","indexed":false,"internalType":"uint256"}],"anonymous":false},{"type":"event","name":"BufferSharesMinted","inputs":[{"name":"wrappedToken","type":"address","indexed":true,"internalType":"contract IERC4626"},{"name":"to","type":"address","indexed":true,"internalType":"address"},{"name":"issuedShares","type":"uint256","indexed":false,"internalType":"uint256"}],"anonymous":false},{"type":"event","name":"LiquidityAdded","inputs":[{"name":"pool","type":"address","indexed":true,"internalType":"address"},{"name":"liquidityProvider","type":"address","indexed":true,"internalType":"address"},{"name":"kind","type":"uint8","indexed":true,"internalType":"enum AddLiquidityKind"},{"name":"totalSupply","type":"uint256","indexed":false,"internalType":"uint256"},{"name":"amountsAddedRaw","type":"uint256[]","indexed":false,"internalType":"uint256[]"},{"name":"swapFeeAmountsRaw","type":"uint256[]","indexed":false,"internalType":"uint256[]"}],"anonymous":false},{"type":"event","name":"LiquidityAddedToBuffer","inputs":[{"name":"wrappedToken","type":"address","indexed":true,"internalType":"contract IERC4626"},{"name":"amountUnderlying","type":"uint256","indexed":false,"internalType":"uint256"},{"name":"amountWrapped","type":"uint256","indexed":false,"internalType":"uint256"},{"name":"bufferBalances","type":"bytes32","indexed":false,"internalType":"bytes32"}],"anonymous":false},{"type":"event","name":"LiquidityRemoved","inputs":[{"name":"pool","type":"address","indexed":true,"internalType":"address"},{"name":"liquidityProvider","type":"address","indexed":true,"internalType":"address"},{"name":"kind","type":"uint8","indexed":true,"internalType":"enum RemoveLiquidityKind"},{"name":"totalSupply","type":"uint256","indexed":false,"internalType":"uint256"},{"name":"amountsRemovedRaw","type":"uint256[]","indexed":false,"internalType":"uint256[]"},{"name":"swapFeeAmountsRaw","type":"uint256[]","indexed":false,"internalType":"uint256[]"}],"anonymous":false},{"type":"event","name":"LiquidityRemovedFromBuffer","inputs":[{"name":"wrappedToken","type":"address","indexed":true,"internalType":"contract IERC4626"},{"name":"amountUnderlying","type":"uint256","indexed":false,"internalType":"uint256"},{"name":"amountWrapped","type":"uint256","indexed":false,"internalType":"uint256"},{"name":"bufferBalances","type":"bytes32","indexed":false,"internalType":"bytes32"}],"anonymous":false},{"type":"event","name":"PoolInitialized","inputs":[{"name":"pool","type":"address","indexed":true,"internalType":"address"}],"anonymous":false},{"type":"event","name":"PoolPausedStateChanged","inputs":[{"name":"pool","type":"address","indexed":true,"internalType":"address"},{"name":"paused","type":"bool","indexed":false,"internalType":"bool"}],"anonymous":false},{"type":"event","name":"PoolRecoveryModeStateChanged","inputs":[{"name":"pool","type":"address","indexed":true,"internalType":"address"},{"name":"recoveryMode","type":"bool","indexed":false,"internalType":"bool"}],"anonymous":false},{"type":"event","name":"PoolRegistered","inputs":[{"name":"pool","type":"address","indexed":true,"internalType":"address"},{"name":"factory","type":"address","indexed":true,"internalType":"address"},{"name":"tokenConfig","type":"tuple[]","indexed":false,"internalType":"struct TokenConfig[]","components":[{"name":"token","type":"address","internalType":"contract IERC20"},{"name":"tokenType","type":"uint8","internalType":"enum TokenType"},{"name":"rateProvider","type":"address","internalType":"contract IRateProvider"},{"name":"paysYieldFees","type":"bool","internalType":"bool"}]},{"name":"swapFeePercentage","type":"uint256","indexed":false,"internalType":"uint256"},{"name":"pauseWindowEndTime","type":"uint32","indexed":false,"internalType":"uint32"},{"name":"roleAccounts","type":"tuple","indexed":false,"internalType":"struct PoolRoleAccounts","components":[{"name":"pauseManager","type":"address","internalType":"address"},{"name":"swapFeeManager","type":"address","internalType":"address"},{"name":"poolCreator","type":"address","internalType":"address"}]},{"name":"hooksConfig","type":"tuple","indexed":false,"internalType":"struct HooksConfig","components":[{"name":"enableHookAdjustedAmounts","type":"bool","internalType":"bool"},{"name":"shouldCallBeforeInitialize","type":"bool","internalType":"bool"},{"name":"shouldCallAfterInitialize","type":"bool","internalType":"bool"},{"name":"shouldCallComputeDynamicSwapFee","type":"bool","internalType":"bool"},{"name":"shouldCallBeforeSwap","type":"bool","internalType":"bool"},{"name":"shouldCallAfterSwap","type":"bool","internalType":"bool"},{"name":"shouldCallBeforeAddLiquidity","type":"bool","internalType":"bool"},{"name":"shouldCallAfterAddLiquidity","type":"bool","internalType":"bool"},{"name":"shouldCallBeforeRemoveLiquidity","type":"bool","internalType":"bool"},{"name":"shouldCallAfterRemoveLiquidity","type":"bool","internalType":"bool"},{"name":"hooksContract","type":"address","internalType":"address"}]},{"name":"liquidityManagement","type":"tuple","indexed":false,"internalType":"struct LiquidityManagement","components":[{"name":"disableUnbalancedLiquidity","type":"bool","internalType":"bool"},{"name":"enableAddLiquidityCustom","type":"bool","internalType":"bool"},{"name":"enableRemoveLiquidityCustom","type":"bool","internalType":"bool"},{"name":"enableDonation","type":"bool","internalType":"bool"}]}],"anonymous":false},{"type":"event","name":"ProtocolFeeControllerChanged","inputs":[{"name":"newProtocolFeeController","type":"address","indexed":true,"internalType":"contract IProtocolFeeController"}],"anonymous":false},{"type":"event","name":"Swap","inputs":[{"name":"pool","type":"address","indexed":true,"internalType":"address"},{"name":"tokenIn","type":"address","indexed":true,"internalType":"contract IERC20"},{"name":"tokenOut","type":"address","indexed":true,"internalType":"contract IERC20"},{"name":"amountIn","type":"uint256","indexed":false,"internalType":"uint256"},{"name":"amountOut","type":"uint256","indexed":false,"internalType":"uint256"},{"name":"swapFeePercentage","type":"uint256","indexed":false,"internalType":"uint256"},{"name":"swapFeeAmount","type":"uint256","indexed":false,"internalType":"uint256"}],"anonymous":false},{"type":"event","name":"SwapFeePercentageChanged","inputs":[{"name":"pool","type":"address","indexed":true,"internalType":"address"},{"name":"swapFeePercentage","type":"uint256","indexed":false,"internalType":"uint256"}],"anonymous":false},{"type":"event","name":"Transfer","inputs":[{"name":"pool","type":"address","indexed":true,"internalType":"address"},{"name":"from","type":"address","indexed":true,"internalType":"address"},{"name":"to","type":"address","indexed":true,"internalType":"address"},{"name":"value","type":"uint256","indexed":false,"internalType":"uint256"}],"anonymous":false},{"type":"event","name":"Unwrap","inputs":[{"name":"wrappedToken","type":"address","indexed":true,"internalType":"contract IERC4626"},{"name":"burnedShares","type":"uint256","indexed":false,"internalType":"uint256"},{"name":"withdrawnUnderlying","type":"uint256","indexed":false,"internalType":"uint256"},{"name":"bufferBalances","type":"bytes32","indexed":false,"internalType":"bytes32"}],"anonymous":false},{"type":"event","name":"VaultAuxiliary","inputs":[{"name":"pool","type":"address","indexed":true,"internalType":"address"},{"name":"eventKey","type":"bytes32","indexed":true,"internalType":"bytes32"},{"name":"eventData","type":"bytes","indexed":false,"internalType":"bytes"}],"anonymous":false},{"type":"event","name":"VaultBuffersPausedStateChanged","inputs":[{"name":"paused","type":"bool","indexed":false,"internalType":"bool"}],"anonymous":false},{"type":"event","name":"VaultPausedStateChanged","inputs":[{"name":"paused","type":"bool","indexed":false,"internalType":"bool"}],"anonymous":false},{"type":"event","name":"VaultQueriesDisabled","inputs":[],"anonymous":false},{"type":"event","name":"VaultQueriesEnabled","inputs":[],"anonymous":false},{"type":"event","name":"Wrap","inputs":[{"name":"wrappedToken","type":"address","indexed":true,"internalType":"contract IERC4626"},{"name":"depositedUnderlying","type":"uint256","indexed":false,"internalType":"uint256"},{"name":"mintedShares","type":"uint256","indexed":false,"internalType":"uint256"},{"name":"bufferBalances","type":"bytes32","indexed":false,"internalType":"bytes32"}],"anonymous":false},{"type":"error","name":"AddressEmptyCode","inputs":[{"name":"target","type":"address","internalType":"address"}]},{"type":"error","name":"AfterAddLiquidityHookFailed","inputs":[]},{"type":"error","name":"AfterInitializeHookFailed","inputs":[]},{"type":"error","name":"AfterRemoveLiquidityHookFailed","inputs":[]},{"type":"error","name":"AfterSwapHookFailed","inputs":[]},{"type":"error","name":"AmountGivenZero","inputs":[]},{"type":"error","name":"AmountInAboveMax","inputs":[{"name":"tokenIn","type":"address","internalType":"contract IERC20"},{"name":"amountIn","type":"uint256","internalType":"uint256"},{"name":"maxAmountIn","type":"uint256","internalType":"uint256"}]},{"type":"error","name":"AmountOutBelowMin","inputs":[{"name":"tokenOut","type":"address","internalType":"contract IERC20"},{"name":"amountOut","type":"uint256","internalType":"uint256"},{"name":"minAmountOut","type":"uint256","internalType":"uint256"}]},{"type":"error","name":"BalanceNotSettled","inputs":[]},{"type":"error","name":"BalanceOverflow","inputs":[]},{"type":"error","name":"BeforeAddLiquidityHookFailed","inputs":[]},{"type":"error","name":"BeforeInitializeHookFailed","inputs":[]},{"type":"error","name":"BeforeRemoveLiquidityHookFailed","inputs":[]},{"type":"error","name":"BeforeSwapHookFailed","inputs":[]},{"type":"error","name":"BptAmountInAboveMax","inputs":[{"name":"amountIn","type":"uint256","internalType":"uint256"},{"name":"maxAmountIn","type":"uint256","internalType":"uint256"}]},{"type":"error","name":"BptAmountOutBelowMin","inputs":[{"name":"amountOut","type":"uint256","internalType":"uint256"},{"name":"minAmountOut","type":"uint256","internalType":"uint256"}]},{"type":"error","name":"BufferAlreadyInitialized","inputs":[{"name":"wrappedToken","type":"address","internalType":"contract IERC4626"}]},{"type":"error","name":"BufferNotInitialized","inputs":[{"name":"wrappedToken","type":"address","internalType":"contract IERC4626"}]},{"type":"error","name":"BufferSharesInvalidOwner","inputs":[]},{"type":"error","name":"BufferSharesInvalidReceiver","inputs":[]},{"type":"error","name":"BufferTotalSupplyTooLow","inputs":[{"name":"totalSupply","type":"uint256","internalType":"uint256"}]},{"type":"error","name":"CannotReceiveEth","inputs":[]},{"type":"error","name":"CannotSwapSameToken","inputs":[]},{"type":"error","name":"CodecOverflow","inputs":[]},{"type":"error","name":"DoesNotSupportAddLiquidityCustom","inputs":[]},{"type":"error","name":"DoesNotSupportDonation","inputs":[]},{"type":"error","name":"DoesNotSupportRemoveLiquidityCustom","inputs":[]},{"type":"error","name":"DoesNotSupportUnbalancedLiquidity","inputs":[]},{"type":"error","name":"DynamicSwapFeeHookFailed","inputs":[]},{"type":"error","name":"ERC20InsufficientAllowance","inputs":[{"name":"spender","type":"address","internalType":"address"},{"name":"allowance","type":"uint256","internalType":"uint256"},{"name":"needed","type":"uint256","internalType":"uint256"}]},{"type":"error","name":"ERC20InsufficientBalance","inputs":[{"name":"sender","type":"address","internalType":"address"},{"name":"balance","type":"uint256","internalType":"uint256"},{"name":"needed","type":"uint256","internalType":"uint256"}]},{"type":"error","name":"ERC20InvalidApprover","inputs":[{"name":"approver","type":"address","internalType":"address"}]},{"type":"error","name":"ERC20InvalidReceiver","inputs":[{"name":"receiver","type":"address","internalType":"address"}]},{"type":"error","name":"ERC20InvalidSender","inputs":[{"name":"sender","type":"address","internalType":"address"}]},{"type":"error","name":"ERC20InvalidSpender","inputs":[{"name":"spender","type":"address","internalType":"address"}]},{"type":"error","name":"ErrorSelectorNotFound","inputs":[]},{"type":"error","name":"FailedCall","inputs":[]},{"type":"error","name":"FeePrecisionTooHigh","inputs":[]},{"type":"error","name":"HookAdjustedAmountInAboveMax","inputs":[{"name":"tokenIn","type":"address","internalType":"contract IERC20"},{"name":"amountIn","type":"uint256","internalType":"uint256"},{"name":"maxAmountIn","type":"uint256","internalType":"uint256"}]},{"type":"error","name":"HookAdjustedAmountOutBelowMin","inputs":[{"name":"tokenOut","type":"address","internalType":"contract IERC20"},{"name":"amountOut","type":"uint256","internalType":"uint256"},{"name":"minAmountOut","type":"uint256","internalType":"uint256"}]},{"type":"error","name":"HookAdjustedSwapLimit","inputs":[{"name":"amount","type":"uint256","internalType":"uint256"},{"name":"limit","type":"uint256","internalType":"uint256"}]},{"type":"error","name":"HookRegistrationFailed","inputs":[{"name":"poolHooksContract","type":"address","internalType":"address"},{"name":"pool","type":"address","internalType":"address"},{"name":"poolFactory","type":"address","internalType":"address"}]},{"type":"error","name":"InputLengthMismatch","inputs":[]},{"type":"error","name":"InsufficientBalance","inputs":[{"name":"balance","type":"uint256","internalType":"uint256"},{"name":"needed","type":"uint256","internalType":"uint256"}]},{"type":"error","name":"InvalidAddLiquidityKind","inputs":[]},{"type":"error","name":"InvalidRemoveLiquidityKind","inputs":[]},{"type":"error","name":"InvalidToken","inputs":[]},{"type":"error","name":"InvalidTokenConfiguration","inputs":[]},{"type":"error","name":"InvalidTokenDecimals","inputs":[]},{"type":"error","name":"InvalidTokenType","inputs":[]},{"type":"error","name":"InvalidUnderlyingToken","inputs":[{"name":"wrappedToken","type":"address","internalType":"contract IERC4626"}]},{"type":"error","name":"IssuedSharesBelowMin","inputs":[{"name":"issuedShares","type":"uint256","internalType":"uint256"},{"name":"minIssuedShares","type":"uint256","internalType":"uint256"}]},{"type":"error","name":"MaxTokens","inputs":[]},{"type":"error","name":"MinTokens","inputs":[]},{"type":"error","name":"NotEnoughBufferShares","inputs":[]},{"type":"error","name":"NotEnoughUnderlying","inputs":[{"name":"wrappedToken","type":"address","internalType":"contract IERC4626"},{"name":"expectedUnderlyingAmount","type":"uint256","internalType":"uint256"},{"name":"actualUnderlyingAmount","type":"uint256","internalType":"uint256"}]},{"type":"error","name":"NotEnoughWrapped","inputs":[{"name":"wrappedToken","type":"address","internalType":"contract IERC4626"},{"name":"expectedWrappedAmount","type":"uint256","internalType":"uint256"},{"name":"actualWrappedAmount","type":"uint256","internalType":"uint256"}]},{"type":"error","name":"NotStaticCall","inputs":[]},{"type":"error","name":"NotVaultDelegateCall","inputs":[]},{"type":"error","name":"OutOfBounds","inputs":[]},{"type":"error","name":"PauseBufferPeriodDurationTooLarge","inputs":[]},{"type":"error","name":"PercentageAboveMax","inputs":[]},{"type":"error","name":"PoolAlreadyInitialized","inputs":[{"name":"pool","type":"address","internalType":"address"}]},{"type":"error","name":"PoolAlreadyRegistered","inputs":[{"name":"pool","type":"address","internalType":"address"}]},{"type":"error","name":"PoolInRecoveryMode","inputs":[{"name":"pool","type":"address","internalType":"address"}]},{"type":"error","name":"PoolNotInRecoveryMode","inputs":[{"name":"pool","type":"address","internalType":"address"}]},{"type":"error","name":"PoolNotInitialized","inputs":[{"name":"pool","type":"address","internalType":"address"}]},{"type":"error","name":"PoolNotPaused","inputs":[{"name":"pool","type":"address","internalType":"address"}]},{"type":"error","name":"PoolNotRegistered","inputs":[{"name":"pool","type":"address","internalType":"address"}]},{"type":"error","name":"PoolPauseWindowExpired","inputs":[{"name":"pool","type":"address","internalType":"address"}]},{"type":"error","name":"PoolPaused","inputs":[{"name":"pool","type":"address","internalType":"address"}]},{"type":"error","name":"PoolTotalSupplyTooLow","inputs":[{"name":"totalSupply","type":"uint256","internalType":"uint256"}]},{"type":"error","name":"ProtocolFeesExceedTotalCollected","inputs":[]},{"type":"error","name":"QueriesDisabled","inputs":[]},{"type":"error","name":"QueriesDisabledPermanently","inputs":[]},{"type":"error","name":"QuoteResultSpoofed","inputs":[]},{"type":"error","name":"ReentrancyGuardReentrantCall","inputs":[]},{"type":"error","name":"Result","inputs":[{"name":"result","type":"bytes","internalType":"bytes"}]},{"type":"error","name":"RouterNotTrusted","inputs":[]},{"type":"error","name":"SenderIsNotVault","inputs":[{"name":"sender","type":"address","internalType":"address"}]},{"type":"error","name":"SwapFeePercentageTooHigh","inputs":[]},{"type":"error","name":"SwapFeePercentageTooLow","inputs":[]},{"type":"error","name":"SwapLimit","inputs":[{"name":"amount","type":"uint256","internalType":"uint256"},{"name":"limit","type":"uint256","internalType":"uint256"}]},{"type":"error","name":"TokenAlreadyRegistered","inputs":[{"name":"token","type":"address","internalType":"contract IERC20"}]},{"type":"error","name":"TokenNotRegistered","inputs":[{"name":"token","type":"address","internalType":"contract IERC20"}]},{"type":"error","name":"TokensMismatch","inputs":[{"name":"pool","type":"address","internalType":"address"},{"name":"expectedToken","type":"address","internalType":"address"},{"name":"actualToken","type":"address","internalType":"address"}]},{"type":"error","name":"TokensNotSorted","inputs":[]},{"type":"error","name":"TradeAmountTooSmall","inputs":[]},{"type":"error","name":"VaultBuffersArePaused","inputs":[]},{"type":"error","name":"VaultIsNotUnlocked","inputs":[]},{"type":"error","name":"VaultNotPaused","inputs":[]},{"type":"error","name":"VaultPauseWindowDurationTooLarge","inputs":[]},{"type":"error","name":"VaultPauseWindowExpired","inputs":[]},{"type":"error","name":"VaultPaused","inputs":[]},{"type":"error","name":"WrapAmountTooSmall","inputs":[{"name":"wrappedToken","type":"address","internalType":"contract IERC4626"}]},{"type":"error","name":"WrongProtocolFeeControllerDeployment","inputs":[]},{"type":"error","name":"WrongUnderlyingToken","inputs":[{"name":"wrappedToken","type":"address","internalType":"contract IERC4626"},{"name":"underlyingToken","type":"address","internalType":"address"}]},{"type":"error","name":"WrongVaultAdminDeployment","inputs":[]},{"type":"error","name":"WrongVaultExtensionDeployment","inputs":[]}],"bytecode":{"object":"0x610240604052600a610200908152691a5cd55b9b1bd8dad95960b21b6102205261002890610317565b60c0526040805180820190915260118152701b9bdb96995c9bd1195b1d1850dbdd5b9d607a1b602082015261005c90610317565b60e05260408051808201909152600b81526a746f6b656e44656c74617360a81b602082015261008a90610317565b61010052604080518082019091526012815271185919131a5c5d5a591a5d1e50d85b1b195960721b60208201526100c090610317565b610120526040805180820190915260098152681cd95cdcda5bdb925960ba1b60208201526100ed90610317565b610140523480156100fc575f5ffd5b50604051616d53380380616d5383398101604081905261011b916103d7565b816001600160a01b0316816001600160a01b031663fbfa77cf6040518163ffffffff1660e01b8152600401602060405180830381865afa158015610161573d5f5f3e3d5ffd5b505050506040513d601f19601f82011682018060405250810190610185919061040f565b6001600160a01b0316146101ac57604051634166145b60e11b815260040160405180910390fd5b806001600160a01b0316638a8d123a6040518163ffffffff1660e01b8152600401602060405180830381865afa1580156101e8573d5f5f3e3d5ffd5b505050506040513d601f19601f8201168201806040525081019061020c9190610431565b63ffffffff166101608163ffffffff1681525050806001600160a01b03166320c1fb7a6040518163ffffffff1660e01b8152600401602060405180830381865afa15801561025c573d5f5f3e3d5ffd5b505050506040513d601f19601f820116820180604052508101906102809190610431565b63ffffffff166101a08163ffffffff1681525050806001600160a01b031663cd51c12f6040518163ffffffff1660e01b8152600401602060405180830381865afa1580156102d0573d5f5f3e3d5ffd5b505050506040513d601f19601f820116820180604052508101906102f49190610431565b63ffffffff16610180526001600160a01b039182166101c052166101e0526104d8565b5f61034c60405180604001604052600c8152806020016b5661756c7453746f7261676560a01b8152508361035260201b60201c565b92915050565b5f60ff5f1b196001848460405160200161036d92919061046b565b604051602081830303815290604052805190602001205f1c61038f91906104b9565b6040516020016103a191815260200190565b6040516020818303038152906040528051906020012016905092915050565b6001600160a01b03811681146103d4575f5ffd5b50565b5f5f604083850312156103e8575f5ffd5b82516103f3816103c0565b6020840151909250610404816103c0565b809150509250929050565b5f6020828403121561041f575f5ffd5b815161042a816103c0565b9392505050565b5f60208284031215610441575f5ffd5b815163ffffffff8116811461042a575f5ffd5b5f81518060208401855e5f93019283525090919050565b7f62616c616e6365722d6c6162732e76332e73746f726167652e0000000000000081525f61049c6019830185610454565b601760f91b81526104b06001820185610454565b95945050505050565b8181038181111561034c57634e487b7160e01b5f52601160045260245ffd5b60805160a05160c05160e05161010051610120516101405161016051610180516101a0516101c0516101e0516167f36105605f395f611cf701525f81816107b80152611d4101525f81816108a20152611e4801525f61481201525f50505f61252601525f61254a01525f6123b501525f612fc001525f61233a01525f50505f50506167f35ff3fe6080604052600436106101e3575f3560e01c8062fdfa131461022a57806313d21cdf1461025c57806313ef8a5d1461028857806315e32046146102ac5780631ba0ae45146103035780634afbaf5a146103245780634d472bdd146103435780634f037ee714610362578063532cec7c14610381578063535cfd8a146103a057806367e0e076146103cc5780636844846b146103fb5780636c9bc7321461041a578063757d64b3146104395780637e361bde146104585780638380edb71461048557806385e0b9991461049957806385f2dbd4146104b8578063927da105146104cc57806396787092146104eb5780639e825ff51461050a578063a07d604014610529578063aaabadc514610548578063ace9b89b1461055c578063b45090f91461057b578063b4aef0ab1461059a578063ba8a2be0146105ae578063be7d628a146105cd578063c673bdaf146105ec578063c80882471461060b578063ca4f28031461062a578063ce8630d414610656578063d2c725e014610682578063db81718714610696578063e1f21c67146106aa578063e4dc2aa4146106c9578063e9ddeb26146106e8578063edfa356814610714578063eeec802f14610740578063f29486a11461075f578063f7888aec1461078b578063fbfa77cf146107aa57610201565b3661020157604051637911c44b60e11b815260040160405180910390fd5b341561022057604051637911c44b60e11b815260040160405180910390fd5b6102286107dc565b005b348015610235575f5ffd5b506102496102443660046153fa565b6107ee565b6040519081526020015b60405180910390f35b348015610267575f5ffd5b5061027b610276366004615431565b610834565b6040516102539190615559565b348015610293575f5ffd5b5061029c610862565b6040519015158152602001610253565b3480156102b7575f5ffd5b506102cb6102c6366004615431565b610875565b6040516102539493929190931515845263ffffffff9283166020850152911660408301526001600160a01b0316606082015260800190565b34801561030e575f5ffd5b506103176108f5565b6040516102539190615621565b34801561032f575f5ffd5b5061031761033e366004615431565b610903565b34801561034e575f5ffd5b5061024961035d3660046157ea565b61092d565b34801561036d575f5ffd5b5061024961037c366004615431565b61098f565b34801561038c575f5ffd5b5061029c61039b366004615431565b610a41565b3480156103ab575f5ffd5b506103bf6103ba366004615431565b610a5d565b60405161025391906158d3565b3480156103d7575f5ffd5b506103eb6103e6366004615431565b610a87565b60405161025394939291906158e5565b348015610406575f5ffd5b5061029c610415366004615431565b610d39565b348015610425575f5ffd5b5061029c610434366004615431565b610d62565b348015610444575f5ffd5b506102286104533660046159af565b610d7e565b348015610463575f5ffd5b50610477610472366004615431565b610e71565b6040516102539291906159ed565b348015610490575f5ffd5b5061029c611041565b3480156104a4575f5ffd5b506102496104b33660046153fa565b611059565b3480156104c3575f5ffd5b5061031761109a565b3480156104d7575f5ffd5b506102496104e6366004615a11565b6110b3565b3480156104f6575f5ffd5b50610249610505366004615431565b6110d1565b348015610515575f5ffd5b50610249610524366004615431565b6110f5565b348015610534575f5ffd5b506103bf610543366004615a59565b611116565b348015610553575f5ffd5b50610317611645565b348015610567575f5ffd5b5061029c610576366004615431565b611663565b348015610586575f5ffd5b50610249610595366004615431565b611683565b3480156105a5575f5ffd5b5061029c6116b7565b3480156105b9575f5ffd5b506102496105c8366004615ac0565b6116cb565b3480156105d8575f5ffd5b5061029c6105e7366004615431565b611838565b3480156105f7575f5ffd5b5061029c610606366004615431565b611854565b348015610616575f5ffd5b50610228610625366004615bd8565b611866565b348015610635575f5ffd5b50610649610644366004615431565b6118c2565b6040516102539190615c1f565b348015610661575f5ffd5b50610675610670366004615431565b611948565b6040516102539190615d03565b34801561068d575f5ffd5b5061029c611992565b3480156106a1575f5ffd5b5061024961199b565b3480156106b5575f5ffd5b5061029c6106c4366004615d12565b6119af565b3480156106d4575f5ffd5b506102496106e3366004615431565b6119ce565b3480156106f3575f5ffd5b50610707610702366004615431565b6119e0565b6040516102539190615d77565b34801561071f575f5ffd5b5061073361072e3660046159af565b611a55565b6040516102539190615db3565b34801561074b575f5ffd5b5061022861075a366004615e10565b611aa8565b34801561076a575f5ffd5b5061077e610779366004615431565b611b3c565b6040516102539190615f9d565b348015610796575f5ffd5b506102496107a53660046153fa565b611cc2565b3480156107b5575f5ffd5b507f0000000000000000000000000000000000000000000000000000000000000000610317565b6107ec6107e7611cf5565b611d19565b565b5f6107f7611d3c565b8261080181611d6e565b6001600160a01b038481165f9081526006602090815260408083209387168352929052205460801c5b91505b5092915050565b61083c61531c565b610844611d3c565b8161084e81611d99565b610859836001611dc1565b91505b50919050565b5f61086b611d3c565b5060095460ff1690565b5f5f5f5f610881611d3c565b8461088b81611d6e565b5f5f61089688611e09565b909250905081816108c77f00000000000000000000000000000000000000000000000000000000000000008261604b565b6001600160a01b03808c165f90815260016020526040902054939a5091985096501693505050509193509193565b5f6108fe611cf5565b905090565b5f61090c611d3c565b506001600160a01b038082165f908152600e6020526040902054165b919050565b5f610936611d3c565b8261094081611d99565b61082a83856109705f5f896001600160a01b03166001600160a01b031681526020019081526020015f2054611e82565b6001600160a01b038089165f9081526002602052604090205416611f68565b5f610998611d3c565b816109a281611d99565b5f6109ae846001611dc1565b90505f846001600160a01b031663984de9e8836080015160016040518363ffffffff1660e01b81526004016109e4929190616067565b602060405180830381865afa1580156109ff573d5f5f3e3d5ffd5b505050506040513d601f19601f82011682018060405250810190610a239190616091565b9050610a38610a3186612033565b829061204d565b95945050505050565b5f610a4a611d3c565b81610a5481611d6e565b6108598361206d565b6060610a67611d3c565b81610a7181611d6e565b610a7c836001611dc1565b608001519392505050565b606080606080610a95611d3c565b84610a9f81611d6e565b6001600160a01b0386165f908152600560209081526040808320600383529281902080548251818502810185019093528083529192909190830182828015610b0e57602002820191905f5260205f20905b81546001600160a01b03168152600190910190602001808311610af0575b5050835193995083925050506001600160401b03811115610b3157610b31615635565b604051908082528060200260200182016040528015610b6a57816020015b610b57615358565b815260200190600190039081610b4f5790505b509550806001600160401b03811115610b8557610b85615635565b604051908082528060200260200182016040528015610bae578160200160208202803683370190505b509450806001600160401b03811115610bc957610bc9615635565b604051908082528060200260200182016040528015610bf2578160200160208202803683370190505b5093505f5b81811015610d2e575f81815260208481526040808320546001600160a01b038d168452600490925282208a51919290918b9085908110610c3957610c396160a8565b6020908102919091018101516001600160a01b0316825281019190915260409081015f208151606081019092528054829060ff166001811115610c7e57610c7e61548f565b6001811115610c8f57610c8f61548f565b8152905461010081046001600160a01b03166020830152600160a81b900460ff1615156040909101528851899084908110610ccc57610ccc6160a8565b6020026020010181905250610ce08161208e565b878381518110610cf257610cf26160a8565b602002602001018181525050610d088160801c90565b868381518110610d1a57610d1a6160a8565b602090810291909101015250600101610bf7565b505050509193509193565b5f610d42611d3c565b506001600160a01b039081165f908152600e602052604090205416151590565b5f610d6b611d3c565b81610d7581611d6e565b6108598361209a565b610d866120ad565b610d8e611d3c565b5f5f336001600160a01b03168484604051610daa9291906160bc565b5f604051808303815f865af19150503d805f8114610de3576040519150601f19603f3d011682016040523d82523d5f602084013e610de8565b606091505b50915091508115610e2357610dfe33838361210e565b5080604051630b56c9f760e31b8152600401610e1a9190615db3565b60405180910390fd5b5f610e2d82612161565b90506314a9360960e31b6001600160e01b0319821601610e60576040516328f9554160e01b815260040160405180910390fd5b610e698261218d565b505b50505050565b606080610e7c611d3c565b82610e8681611d6e565b6001600160a01b0384165f9081526020818152604080832054600383528184208054835181860281018601909452808452919493909190830182828015610ef457602002820191905f5260205f20905b81546001600160a01b03168152600190910190602001808311610ed6575b505050505090505f81519050610f0a83826121b6565b9550806001600160401b03811115610f2457610f24615635565b604051908082528060200260200182016040528015610f4d578160200160208202803683370190505b5094505f5b81811015611037576001600160a01b0388165f90815260046020526040812084518290869085908110610f8757610f876160a8565b6020908102919091018101516001600160a01b0316825281019190915260409081015f208151606081019092528054829060ff166001811115610fcc57610fcc61548f565b6001811115610fdd57610fdd61548f565b8152905461010081046001600160a01b03166020830152600160a81b900460ff16151560409091015290506110118161226f565b878381518110611023576110236160a8565b602090810291909101015250600101610f52565b5050505050915091565b5f61104a611d3c565b6108fe611055612338565b5c90565b5f611062611d3c565b8261106c81611d6e565b6001600160a01b038085165f9081526006602090815260408083209387168352929052205461082a9061208e565b5f6110a3611d3c565b50600a546001600160a01b031690565b5f6110bc611d3c565b6110c784848461235c565b90505b9392505050565b5f6110da611d3c565b506001600160a01b03165f9081526008602052604090205490565b5f6110fe611d3c565b6111108261110a6123b3565b906123d7565b92915050565b6060611120611d3c565b6111286123eb565b611130612417565b8461113a81611d99565b8561114481612455565b6001600160a01b0387165f818152600560209081526040808320815160c0810183526060808252818501869052818401869052808201819052608082015260a081018590529484526003835292819020805482518185028101850190935280835293949391929091908301828280156111e457602002820191905f5260205f20905b81546001600160a01b031681526001909101906020018083116111c6575b505050828452505051604082018190526001600160401b0381111561120b5761120b615635565b604051908082528060200260200182016040528015611234578160200160208202803683370190505b5060808201525f805b8260400151811015611289575f818152602085905260409020546112609061208e565b83608001518281518110611276576112766160a8565b602090810291909101015260010161123d565b506112a1826080015161129b8c612033565b8a61247d565b955081604001516001600160401b038111156112bf576112bf615635565b6040519080825280602002602001820160405280156112e8578160200160208202803683370190505b50606083015261130c6112fc611055612524565b8b611305612548565b919061256c565b15801560a084015261133f576001600160a01b038a165f9081526020819052604090205461133990611e82565b60208301525b5f5b8260400151811015611525578260a00151156113f1576113878360200151888381518110611371576113716160a8565b602002602001015161258790919063ffffffff16565b8360600151828151811061139d5761139d6160a8565b602002602001018181525050826060015181815181106113bf576113bf6160a8565b60200260200101518782815181106113d9576113d96160a8565b602002602001018181516113ed91906160cb565b9052505b878181518110611403576114036160a8565b602002602001015187828151811061141d5761141d6160a8565b6020026020010151101561149757825180518290811061143f5761143f6160a8565b6020026020010151878281518110611459576114596160a8565b6020026020010151898381518110611473576114736160a8565b60200260200101516040516317bc2f2360e11b8152600401610e1a939291906160de565b6114d6835f015182815181106114af576114af6160a8565b60200260200101518883815181106114c9576114c96160a8565b60200260200101516125b3565b8681815181106114e8576114e86160a8565b602002602001015183608001518281518110611506576115066160a8565b6020026020010181815161151a91906160cb565b905250600101611341565b506001600160a01b038a165f908152600560205260408120905b83604001518110156115a457815f8281526020019081526020015f2054925061158e84608001518281518110611577576115776160a8565b6020026020010151846125d290919063ffffffff16565b5f8281526020849052604090205560010161153f565b506115b18b8b338c6125e6565b6115b9612631565b156115c9576115c98b8b8b61264c565b6115d48b8b8b6126ad565b5f8a6001600160a01b03168c6001600160a01b03167ffbe5b0d79fb94f1e81c0a92bf86ae9d3a19e9d1bf6202c0d3e75120f65d5d8a56116138f612033565b606088015160405161162792918e916160ff565b60405180910390a450505050505061163d612820565b949350505050565b5f61164e611d3c565b5060095461010090046001600160a01b031690565b5f61166c611d3c565b61111061167a611055612524565b83611305612548565b5f61168c611d3c565b8161169681611d6e565b6001600160a01b0383165f9081526020819052604090205461163d81611e82565b5f6116c0611d3c565b6108fe600754612837565b5f6116d4611d3c565b6116dc6123eb565b866116e681611d6e565b6116ee612417565b6116f788612841565b5f611703896001611dc1565b9050611711815f0151612852565b15611731578860405163218e374760e01b8152600401610e1a9190615621565b602081015151865161174490829061286d565b5f6117628360c001518460a001518a61288d9092919063ffffffff16565b9050611770835f015161297f565b156117d8576001600160a01b03808c165f9081526002602052604090205461179c9183918991166129db565b6001600160a01b038b165f9081526005602052604090206117c09084906001612a6a565b60c083015160a08401516117d5918a9161288d565b90505b6117e78b8b858c8c868d612afa565b94506117f5835f0151612deb565b15611822576001600160a01b03808c165f908152600260205260409020541661182082878984612e10565b505b50505061182d612820565b509695505050505050565b5f611841611d3c565b8161184b81611d6e565b61085983612ea1565b5f61185d611d3c565b61111082612ec2565b61186e611d3c565b3361187881611d6e565b83336001600160a01b03167f4bc4412e210115456903c65b5277d299a505e79f2eb852b92b1ca52d8585642885856040516118b4929190616129565b60405180910390a350505050565b60606118cc611d3c565b816118d681611d6e565b6001600160a01b0383165f908152600360209081526040918290208054835181840281018401909452808452909183018282801561193b57602002820191905f5260205f20905b81546001600160a01b0316815260019091019060200180831161191d575b5050505050915050919050565b611950615378565b611958611d3c565b8161196281611d6e565b6001600160a01b038084165f90815260026020908152604080832054918390529091205461085992909116612ee3565b5f6108fe612fac565b5f6119a4611d3c565b6108fe611055612fbe565b5f6119b8611d3c565b6119c433858585612fe2565b5060019392505050565b5f6119d7611d3c565b61111082612033565b604080516060810182525f8082526020820181905291810191909152611a04611d3c565b81611a0e81611d6e565b50506001600160a01b039081165f90815260016020818152604092839020835160608101855281548616815292810154851691830191909152600201549092169082015290565b6060611a5f6120ad565b611a67611d3c565b6110ca83838080601f0160208091040260200160405190810160405280939291908181526020018383808284375f9201919091525033939250506131119050565b611ab0611d3c565b611ab8612417565b611ac061311e565b611b2a886040518060e001604052808a81526020018981526020018863ffffffff168152602001871515815260200186803603810190611b009190616157565b81526001600160a01b0386166020820152604001611b23368690038601866161c8565b9052613144565b611b32612820565b5050505050505050565b604080516101c0810182525f6101408201818152610160830182905261018083018290526101a08301829052825260208201819052918101829052606081018290526080810182905260a0810182905260c0810182905260e081018290526101008101829052610120810191909152611bb3611d3c565b81611bbd81611d6e565b6001600160a01b0383165f90815260208190526040908190205481516101c081019092529080610140810180611bf285613a30565b158152602001611c0185613a46565b15158152602001611c1185613a55565b15158152602001611c2185613a64565b151590528152602001611c3383611e82565b8152602001611c4183613a73565b8152602001611c4f83613b5b565b8152602001611c5d83613c45565b64ffffffffff168152602001611c7283613d3d565b63ffffffff168152602001611c8683612837565b15158152602001611c9683612852565b15158152602001611ca683613e41565b15158152602001611cb683613e50565b15159052949350505050565b5f611ccb611d3c565b6001600160a01b038084165f908152600f60209081526040808320938616835292905220546110ca565b7f000000000000000000000000000000000000000000000000000000000000000090565b365f5f375f5f365f845af43d5f5f3e808015611d33573d5ff35b3d5ffd5b505050565b6107ec7f00000000000000000000000000000000000000000000000000000000000000006001600160a01b0316613e5f565b611d7781612ec2565b611d9657806040516327946f5760e21b8152600401610e1a9190615621565b50565b611da28161206d565b611d965780604051634bdace1360e01b8152600401610e1a9190615621565b611dc961531c565b6001600160a01b0383165f908152600560209081526040808320838352818420546004845282852060039094529190932061111093859390929187613e88565b6001600160a01b0381165f90815260208190526040812054819081611e2d82613e41565b90505f611e3983613d3d565b9050818015611e775750611e6d7f00000000000000000000000000000000000000000000000000000000000000008261604b565b63ffffffff164211155b969095509350505050565b5f64174876e800611f5e611e9783600161622f565b611ea290600161622f565b611ead90600161622f565b611eb890600161622f565b611ec390600161622f565b611ece90600161622f565b611ed990600161622f565b611ee490600161622f565b611eef90600161622f565b611efa90600161622f565b611f0590600161622f565b611f1090600161622f565b611f1b90600161622f565b611f2690600161622f565b611f3190600161622f565b611f3c90600161622f565b611f4790600161622f565b611f5290600161622f565b849060ff166018614234565b6111109190616248565b5f5f5f836001600160a01b031663a0e8f5ac8888886040518463ffffffff1660e01b8152600401611f9b9392919061625f565b6040805180830381865afa158015611fb5573d5f5f3e3d5ffd5b505050506040513d601f19601f82011682018060405250810190611fd9919061630b565b90925090508115155f03612000576040516314fe5db560e21b815260040160405180910390fd5b670de0b5cad2bef000811115612029576040516301d1b96560e61b815260040160405180910390fd5b9695505050505050565b6001600160a01b03165f9081526011602052604090205490565b5f80612061670de0b6b3a764000085616248565b905061082a8382616337565b6001600160a01b0381165f9081526020819052604081205461085981612852565b6001600160801b031690565b5f5f6120a583611e09565b509392505050565b32155f036120ce576040516333fc255960e11b815260040160405180910390fd5b5f6120da600754612837565b905080156120fb57604051633d0cc44360e11b815260040160405180910390fd5b611d966001612108612338565b90614242565b6060826121235761211e82614249565b6110ca565b815115801561213a57506001600160a01b0384163b155b1561215a5783604051639996b31560e01b8152600401610e1a9190615621565b50806110ca565b5f6004825110156121855760405163a728568960e01b815260040160405180910390fd5b506020015190565b80511561219d5780518082602001fd5b60405163a728568960e01b815260040160405180910390fd5b60605f826001600160401b038111156121d1576121d1615635565b6040519080825280602002602001820160405280156121fa578160200160208202803683370190505b5090505f61220785613c45565b64ffffffffff1690505f5b84811015612265575f612232612229600584616248565b84906005614234565b905061223f81600a616439565b848381518110612251576122516160a8565b602090810291909101015250600101612212565b5090949350505050565b80515f90818160018111156122865761228661548f565b0361229b57670de0b6b3a7640000915061085c565b60018160018111156122af576122af61548f565b0361231f5782602001516001600160a01b031663679aefce6040518163ffffffff1660e01b8152600401602060405180830381865afa1580156122f4573d5f5f3e3d5ffd5b505050506040513d601f19601f820116820180604052508101906123189190616091565b915061085c565b604051636fa2831960e11b815260040160405180910390fd5b7f000000000000000000000000000000000000000000000000000000000000000090565b5f816001600160a01b0316836001600160a01b03160361237e57505f196110ca565b506001600160a01b038084165f90815260106020908152604080832086851684528252808320938516835292905220546110ca565b7f000000000000000000000000000000000000000000000000000000000000000090565b5f6110ca6110556123e88585614272565b90565b6123f6611055612338565b15155f036107ec5760405163604dd39b60e11b815260040160405180910390fd5b61241f612fac565b1561243d57604051633ee5aeb560e01b815260040160405180910390fd5b6107ec60015f51602061679e5f395f51905f52612108565b61245e81612ea1565b611d96578060405163ef029adf60e01b8152600401610e1a9190615621565b606083516001600160401b0381111561249857612498615635565b6040519080825280602002602001820160405280156124c1578160200160208202803683370190505b5090505f5b84518110156120a55783838683815181106124e3576124e36160a8565b60200260200101516124f59190616248565b6124ff9190616337565b828281518110612511576125116160a8565b60209081029190910101526001016124c6565b7f000000000000000000000000000000000000000000000000000000000000000090565b7f000000000000000000000000000000000000000000000000000000000000000090565b5f6110c76110556123e8846125818888614272565b90614272565b5f806125938385616248565b90506001670de0b6b3a76400006001830304018115150291505092915050565b6125ce826125c083614283565b6125c990616444565b61428d565b5050565b5f6110ca826125e18560801c90565b6142fb565b5f6125f285858561235c565b90505f198114610e69578082111561262357828183604051637dc7a0d960e11b8152600401610e1a939291906160de565b610e69858585858503612fe2565b5f321580156108fe5750612646600754612837565b15905090565b32155f0361266d576040516333fc255960e11b815260040160405180910390fd5b6001600160a01b038084165f908152600f60209081526040808320938616835292905290812080548392906126a390849061645e565b9091555050505050565b6001600160a01b0382166126d65781604051634b637e8f60e11b8152600401610e1a9190615621565b6001600160a01b038084165f908152600f6020908152604080832093861683529290522054808211156127225782818360405163391434e360e21b8152600401610e1a939291906160de565b6001600160a01b038085165f818152600f60209081526040808320948816835293815283822086860390559181526011909152908120546127649084906160cb565b905061276f8161433f565b6001600160a01b0385165f81815260116020526040808220849055516323de665160e01b81526323de6651916127ac918891908890600401616471565b5f604051808303815f87803b1580156127c3575f5ffd5b505af19250505080156127d4575060015b505f6001600160a01b0316846001600160a01b0316866001600160a01b03165f51602061677e5f395f51905f528660405161281191815260200190565b60405180910390a45050505050565b6107ec5f5f51602061679e5f395f51905f52612108565b5f60018216611110565b61284961311e565b611d9681614366565b5f61111061286182600161622f565b839060ff161c60011690565b8082146125ce5760405163aaad13f760e01b815260040160405180910390fd5b60605f845190506128a1818551855161438f565b5f816001600160401b038111156128ba576128ba615635565b6040519080825280602002602001820160405280156128e3578160200160208202803683370190505b5090505f5b8281101561297557612950868281518110612905576129056160a8565b602002602001015186838151811061291f5761291f6160a8565b6020026020010151898481518110612939576129396160a8565b60200260200101516143bc9092919063ffffffff16565b828281518110612962576129626160a8565b60209081029190910101526001016128e8565b5095945050505050565b5f61111061298e82600161622f565b61299990600161622f565b6129a490600161622f565b6129af90600161622f565b6129ba90600161622f565b6129c590600161622f565b6129d090600161622f565b61286190600161622f565b60405163038293c560e31b81526001600160a01b03821690631c149e2890612a099086908690600401616495565b6020604051808303815f875af1158015612a25573d5f5f3e3d5ffd5b505050506040513d601f19601f82011682018060405250810190612a4991906164b9565b15155f03611d3757604051636061292560e01b815260040160405180910390fd5b6020830151515f805b82811015612af257612aa186604001518281518110612a9457612a946160a8565b602002602001015161226f565b8660a001518281518110612ab757612ab76160a8565b602002602001018181525050845f8281526020019081526020015f20549150612aea8682612ae48561208e565b876143d1565b600101612a73565b505050505050565b6001600160a01b0387165f908152600560205260408120815b876020015151811015612c24575f88602001518281518110612b3757612b376160a8565b60200260200101519050878281518110612b5357612b536160a8565b60200260200101516001600160a01b0316816001600160a01b031614612bae578a888381518110612b8657612b866160a8565b6020026020010151826040516001621d9e5f60e01b03198152600401610e1a939291906164d4565b612bd181888481518110612bc457612bc46160a8565b602002602001015161448e565b612c0d878381518110612be657612be66160a8565b6020026020010151878481518110612c0057612c006160a8565b60200260200101516142fb565b5f8381526020859052604090205550600101612b13565b508651612c3290600161449b565b8088526001600160a01b038a165f8181526020819052604090819020929092559051631309bd3d60e31b815263984de9e890612c75908790600190600401616067565b602060405180830381865afa158015612c90573d5f5f3e3d5ffd5b505050506040513d601f19601f82011682018060405250810190612cb49190616091565b9150612cbf8261433f565b612ccc620f4240836160cb565b9150612cd7896144bd565b612ce2898984614599565b82821015612d0d57604051638d261d5d60e01b81526004810183905260248101849052604401610e1a565b6001886001600160a01b03168a6001600160a01b03167fa26a52d8d53702bba7f137907b8e1f99ff87f6d450144270ca25e72481cca871612d4d8d612033565b898c60200151516001600160401b03811115612d6b57612d6b615635565b604051908082528060200260200182016040528015612d94578160200160208202803683370190505b50604051612da4939291906160ff565b60405180910390a46040516001600160a01b038a16907fcad8c9d32507393b6508ca4a888b81979919b477510585bde8488f153072d6f3905f90a250979650505050505050565b5f611110612dfa82600161622f565b612e0590600161622f565b61298e90600161622f565b6040516338be241d60e01b81526001600160a01b038216906338be241d90612e40908790879087906004016164f7565b6020604051808303815f875af1158015612e5c573d5f5f3e3d5ffd5b505050506040513d601f19601f82011682018060405250810190612e8091906164b9565b15155f03610e6b57604051630791ede360e11b815260040160405180910390fd5b6001600160a01b0381165f9081526020819052604081205461111090613e50565b6001600160a01b0381165f9081526020819052604081205461085981612837565b612eeb615378565b604051806101600160405280612f00856146b4565b15158152602001612f108561297f565b15158152602001612f2085612deb565b15158152602001612f30856146c3565b15158152602001612f40856146dd565b15158152602001612f50856146f7565b15158152602001612f6085614711565b15158152602001612f708561472b565b15158152602001612f8085614745565b15158152602001612f908561475f565b15158152602001836001600160a01b0316815250905092915050565b5f51602061679e5f395f51905f525c90565b7f000000000000000000000000000000000000000000000000000000000000000090565b6001600160a01b03831661300b578260405163e602df0560e01b8152600401610e1a9190615621565b6001600160a01b0382166130345781604051634a1406b160e11b8152600401610e1a9190615621565b6001600160a01b038085165f8181526010602090815260408083208886168452825280832094871683529390528290208390559051630ad0fe5760e31b8152635687f2b89061308b90869086908690600401616471565b5f604051808303815f87803b1580156130a2575f5ffd5b505af19250505080156130b3575060015b50816001600160a01b0316836001600160a01b0316856001600160a01b03167fa0175360a15bca328baf7ea85c7b784d58b222a50d0ce760b10dba336d226a618460405161310391815260200190565b60405180910390a450505050565b60606110ca83835f614779565b61312661480f565b156107ec576040516336a7e2cd60e21b815260040160405180910390fd5b61314d82612ec2565b1561316d57816040516301b6ee3960e71b8152600401610e1a9190615621565b805151600281101561319257604051635ed4ba8f60e01b815260040160405180910390fd5b60088111156131b457604051630e0f7beb60e31b815260040160405180910390fd5b5f816001600160401b038111156131cd576131cd615635565b6040519080825280602002602001820160405280156131f6578160200160208202803683370190505b5090505f805b8381101561355e575f855f0151828151811061321a5761321a6160a8565b602090810291909101015180519091506001600160a01b03811615806132515750876001600160a01b0316816001600160a01b0316145b1561326f5760405163c1ab6dc160e01b815260040160405180910390fd5b836001600160a01b0316816001600160a01b031610156132a257604051636e8f194760e01b815260040160405180910390fd5b836001600160a01b0316816001600160a01b0316036132d657806040516327a5b1a760e11b8152600401610e1a9190615621565b5f5f6001600160a01b031683604001516001600160a01b0316141590506040518060600160405280846020015160018111156133145761331461548f565b81526040808601516001600160a01b0390811660208085019190915260608801511515938301939093528c81165f9081526004845282812091871681529252902081518154829060ff1916600183818111156133725761337261548f565b0217905550602082015181546040909301511515600160a81b0260ff60a81b196001600160a01b039092166101000291909116610100600160b01b0319909316929092179190911790555f836020015160018111156133d3576133d361548f565b036134085780806133e5575082606001515b1561340357604051636fa2831960e11b815260040160405180910390fd5b613460565b6001836020015160018111156134205761342061548f565b03613447578015155f0361340357604051636fa2831960e11b815260040160405180910390fd5b60405163a1e9dd9d60e01b815260040160405180910390fd5b5f826001600160a01b031663313ce5676040518163ffffffff1660e01b8152600401602060405180830381865afa15801561349d573d5f5f3e3d5ffd5b505050506040513d601f19601f820116820180604052508101906134c19190616521565b9050601260ff821611156134e85760405163686d360760e01b815260040160405180910390fd5b806012038786815181106134fe576134fe6160a8565b60ff9092166020928302919091018201526001600160a01b038b81165f90815260038352604081208054600180820183559183529390912090920180546001600160a01b03191691861691909117905592955050509190910190506131fc565b506080840180516001600160a01b038781165f818152600160208181526040808420875181549088166001600160a01b031991821617825592880151938101805494881694841694909417909355958601516002909201805492861692909116919091179055600a54945184015160608a015194516377ff76e760e01b8152600481019390935283166024830152921515604482015291928392839291909116906377ff76e79060640160408051808303815f875af1158015613623573d5f5f3e3d5ffd5b505050506040513d601f19601f820116820180604052508101906136479190616541565b909250905061365783600161484c565b60c08801515190935061366b908490614859565b92506136888760c00151602001518461488a90919063ffffffff16565b92506136a58760c0015160400151846148a590919063ffffffff16565b92506136c28760c0015160600151846148c090919063ffffffff16565b92506136d76136d0866148db565b849061492c565b92506136f0876040015184614a2d90919063ffffffff16565b92506136fc8383614b39565b92506137088382614c57565b60a08801519093506001600160a01b03161561395c5760a0870151875160c08901516040516305c4f8c160e11b81526001600160a01b0390931692630b89f1829261375b9233928e9291906004016165d8565b6020604051808303815f875af1158015613777573d5f5f3e3d5ffd5b505050506040513d601f19601f8201168201806040525081019061379b91906164b9565b15155f036137c6578660a001518833604051633ea4f60560e21b8152600401610e1a939291906164d4565b5f8760a001516001600160a01b031663d77153a76040518163ffffffff1660e01b815260040161014060405180830381865afa158015613808573d5f5f3e3d5ffd5b505050506040513d601f19601f8201168201806040525081019061382c9190616612565b80519091508015613840575060c088015151155b15613868578760a001518933604051633ea4f60560e21b8152600401610e1a939291906164d4565b8051613875908590614d76565b935061388e816020015185614d9c90919063ffffffff16565b93506138a7816040015185614dac90919063ffffffff16565b93506138c0816060015185614dc790919063ffffffff16565b93506138d9816080015185614de290919063ffffffff16565b93506138f28160a0015185614dfd90919063ffffffff16565b935061390b8160c0015185614e1890919063ffffffff16565b93506139248160e0015185614e3390919063ffffffff16565b935061393e81610100015185614e4e90919063ffffffff16565b935061395881610120015185614e6990919063ffffffff16565b9350505b50506001600160a01b038681165f9081526020818152604080832085905560a089015160028352922080546001600160a01b03191692909316919091179091558501516139aa908790614e84565b336001600160a01b0316866001600160a01b03167fbc1561eeab9f40962e2fb827a7ff9c7cdb47a9d7c84caeefa4ed90e043842dad875f0151886020015189604001518a60800151613a098c60a0015189612ee390919063ffffffff16565b8c60c00151604051613a20969594939291906166dc565b60405180910390a3505050505050565b5f613a3f6129ba82600161622f565b1592915050565b5f6111106129af82600161622f565b5f6111106129a482600161622f565b5f61111061299982600161622f565b5f64174876e800611f5e6018613a8a84600161622f565b613a9590600161622f565b613aa090600161622f565b613aab90600161622f565b613ab690600161622f565b613ac190600161622f565b613acc90600161622f565b613ad790600161622f565b613ae290600161622f565b613aed90600161622f565b613af890600161622f565b613b0390600161622f565b613b0e90600161622f565b613b1990600161622f565b613b2490600161622f565b613b2f90600161622f565b613b3a90600161622f565b613b4590600161622f565b60ff16613b52919061645e565b84906018614234565b5f64174876e800611f5e601880613b7385600161622f565b613b7e90600161622f565b613b8990600161622f565b613b9490600161622f565b613b9f90600161622f565b613baa90600161622f565b613bb590600161622f565b613bc090600161622f565b613bcb90600161622f565b613bd690600161622f565b613be190600161622f565b613bec90600161622f565b613bf790600161622f565b613c0290600161622f565b613c0d90600161622f565b613c1890600161622f565b613c2390600161622f565b613c2e90600161622f565b60ff16613c3b919061645e565b613b52919061645e565b5f61111060188080613c5885600161622f565b613c6390600161622f565b613c6e90600161622f565b613c7990600161622f565b613c8490600161622f565b613c8f90600161622f565b613c9a90600161622f565b613ca590600161622f565b613cb090600161622f565b613cbb90600161622f565b613cc690600161622f565b613cd190600161622f565b613cdc90600161622f565b613ce790600161622f565b613cf290600161622f565b613cfd90600161622f565b613d0890600161622f565b613d1390600161622f565b60ff16613d20919061645e565b613d2a919061645e565b613d34919061645e565b83906028614234565b5f611110602860188080613d5286600161622f565b613d5d90600161622f565b613d6890600161622f565b613d7390600161622f565b613d7e90600161622f565b613d8990600161622f565b613d9490600161622f565b613d9f90600161622f565b613daa90600161622f565b613db590600161622f565b613dc090600161622f565b613dcb90600161622f565b613dd690600161622f565b613de190600161622f565b613dec90600161622f565b613df790600161622f565b613e0290600161622f565b613e0d90600161622f565b60ff16613e1a919061645e565b613e24919061645e565b613e2e919061645e565b613e38919061645e565b83906020614234565b5f6111106129d082600161622f565b5f6111106129c582600161622f565b306001600160a01b03821614611d9657604051634fe92d9b60e11b815260040160405180910390fd5b8154848752604080516020808402820181019092528281529084908390830182828015613edc57602002820191905f5260205f20905b81546001600160a01b03168152600190910190602001808311613ebe575b50505050508760200181905250806001600160401b03811115613f0157613f01615635565b604051908082528060200260200182016040528015613f3a57816020015b613f27615358565b815260200190600190039081613f1f5790505b506040880152806001600160401b03811115613f5857613f58615635565b604051908082528060200260200182016040528015613f81578160200160208202803683370190505b506060880152806001600160401b03811115613f9f57613f9f615635565b604051908082528060200260200182016040528015613fc8578160200160208202803683370190505b5060808801528651613fda90826121b6565b60c0880152806001600160401b03811115613ff757613ff7615635565b604051908082528060200260200182016040528015614020578160200160208202803683370190505b5060a088015286515f9061403390612852565b801561404957505f614047895f0151613b5b565b115b801561405d5750875161405b90613e50565b155b90505f5b82811015614229575f865f8b602001518481518110614082576140826160a8565b6020908102919091018101516001600160a01b0316825281019190915260409081015f208151606081019092528054829060ff1660018111156140c7576140c761548f565b60018111156140d8576140d861548f565b8152905461010081046001600160a01b0316602080840191909152600160a81b90910460ff1615156040928301525f858152908c905281902054908c01518051929350909183919085908110614130576141306160a8565b60200260200101819052506141448261226f565b8b60a00151848151811061415a5761415a6160a8565b60200260200101818152505061417a8b846141748461208e565b896143d1565b8315155f0361418a575050614221565b5f826040015180156141ae57506001835160018111156141ac576141ac61548f565b145b9050801561421d575f6141c38d5f0151613b5b565b90505f8d6060015186815181106141dc576141dc6160a8565b602002602001015190505f6141fc8f6141f58760801c90565b8986614ff8565b90508015614219576142198f8861421384866160cb565b8d6143d1565b5050505b5050505b600101614061565b505050505050505050565b6001901b5f190191901c1690565b80825d5050565b8051156142595780518082602001fd5b60405163d6bda27560e01b815260040160405180910390fd5b5f9081526020919091526040902090565b5f6111108261508d565b805f03614298575050565b5f6142a58361110a6123b3565b90505f6142b2838361672c565b9050805f036142d0576142cb6142c6612fbe565b6150a1565b6142e7565b815f036142e7576142e76142e2612fbe565b6150b7565b610e6b84826142f46123b3565b91906150c6565b5f6001600160801b0383118061431757506001600160801b0382115b15614335576040516389560ca160e01b815260040160405180910390fd5b6110ca83836150d7565b620f4240811015611d96576040516334e3483f60e21b815260048101829052602401610e1a565b61436f8161209a565b15611d96578060405163d971f59760e01b8152600401610e1a9190615621565b818314158061439e5750808214155b15611d375760405163aaad13f760e01b815260040160405180910390fd5b5f6110c7826143cb8587616248565b906150e6565b81846060015184815181106143e8576143e86160a8565b60209081029190910101526153d35f8260018111156144095761440961548f565b14614416576143bc61441a565b6151065b9050614465838660c001518681518110614436576144366160a8565b60200260200101518760a001518781518110614454576144546160a8565b60200260200101518463ffffffff16565b8560800151858151811061447b5761447b6160a8565b6020026020010181815250505050505050565b6125ce826125c983614283565b5f6110ca826144ab83600161622f565b60ff1690811b600190911b1985161790565b6001600160a01b0381165f9081526011602052604081208054620f424092906144e790849061645e565b90915550506001600160a01b0381165f818152600f6020908152604080832083805282528083208054620f424090810190915590519081529192839290915f51602061677e5f395f51905f52910160405180910390a46040516323de665160e01b81526001600160a01b038216906323de665190614570905f908190620f424090600401616471565b5f604051808303815f87803b158015614587575f5ffd5b505af1158015610e69573d5f5f3e3d5ffd5b6001600160a01b0382166145c2578160405163ec442f0560e01b8152600401610e1a9190615621565b6001600160a01b0383165f908152601160205260408120546145e590839061645e565b6001600160a01b038086165f908152600f60209081526040808320938816835292905220805484019055905061461a8161433f565b6001600160a01b038481165f81815260116020908152604080832086905551868152938716939192915f51602061677e5f395f51905f52910160405180910390a46040516323de665160e01b81526001600160a01b038516906323de66519061468b905f9087908790600401616471565b5f604051808303815f87803b1580156146a2575f5ffd5b505af1158015611b32573d5f5f3e3d5ffd5b5f611110612e0582600161622f565b5f6111106146d282600161622f565b612dfa90600161622f565b5f6111106146ec82600161622f565b6146d290600161622f565b5f61111061470682600161622f565b6146ec90600161622f565b5f61111061472082600161622f565b61470690600161622f565b5f61111061473a82600161622f565b61472090600161622f565b5f61111061475482600161622f565b61473a90600161622f565b5f61111061476e82600161622f565b61475490600161622f565b6060814710156147a55760405163cf47918160e01b815247600482015260248101839052604401610e1a565b5f5f856001600160a01b031684866040516147c09190616753565b5f6040518083038185875af1925050503d805f81146147fa576040519150601f19603f3d011682016040523d82523d5f602084013e6147ff565b606091505b509150915061202986838361210e565b5f7f000000000000000000000000000000000000000000000000000000000000000063ffffffff1642111580156108fe57506108fe60075461511b565b5f600119831682176110ca565b5f6110ca8261486983600161622f565b61487490600161622f565b61487f90600161622f565b6144ab90600161622f565b5f6110ca8261489a83600161622f565b61486990600161622f565b5f6110ca826148b583600161622f565b61489a90600161622f565b5f6110ca826148d083600161622f565b6148b590600161622f565b5f80805b835181101561082d576149228482815181106148fd576148fd6160a8565b602002602001015160ff16600560ff16836149189190616248565b8491906005615133565b91506001016148df565b5f6110ca64ffffffffff83166018808061494786600161622f565b61495290600161622f565b61495d90600161622f565b61496890600161622f565b61497390600161622f565b61497e90600161622f565b61498990600161622f565b61499490600161622f565b61499f90600161622f565b6149aa90600161622f565b6149b590600161622f565b6149c090600161622f565b6149cb90600161622f565b6149d690600161622f565b6149e190600161622f565b6149ec90600161622f565b6149f790600161622f565b614a0290600161622f565b60ff16614a0f919061645e565b614a19919061645e565b614a23919061645e565b8591906028615133565b5f6110ca63ffffffff8316602860188080614a4987600161622f565b614a5490600161622f565b614a5f90600161622f565b614a6a90600161622f565b614a7590600161622f565b614a8090600161622f565b614a8b90600161622f565b614a9690600161622f565b614aa190600161622f565b614aac90600161622f565b614ab790600161622f565b614ac290600161622f565b614acd90600161622f565b614ad890600161622f565b614ae390600161622f565b614aee90600161622f565b614af990600161622f565b614b0490600161622f565b60ff16614b11919061645e565b614b1b919061645e565b614b25919061645e565b614b2f919061645e565b8591906020615133565b5f670de0b5cad2bef000821115614b63576040516301d1b96560e61b815260040160405180910390fd5b614b7264174876e80083616337565b91506110ca826018614b855f600161622f565b614b9090600161622f565b614b9b90600161622f565b614ba690600161622f565b614bb190600161622f565b614bbc90600161622f565b614bc790600161622f565b614bd290600161622f565b614bdd90600161622f565b614be890600161622f565b614bf390600161622f565b614bfe90600161622f565b614c0990600161622f565b614c1490600161622f565b614c1f90600161622f565b614c2a90600161622f565b614c3590600161622f565b614c4090600161622f565b60ff16614c4d919061645e565b8591906018615133565b5f670de0b5cad2bef000821115614c81576040516301d1b96560e61b815260040160405180910390fd5b614c9064174876e80083616337565b91506110ca82601880614ca45f600161622f565b614caf90600161622f565b614cba90600161622f565b614cc590600161622f565b614cd090600161622f565b614cdb90600161622f565b614ce690600161622f565b614cf190600161622f565b614cfc90600161622f565b614d0790600161622f565b614d1290600161622f565b614d1d90600161622f565b614d2890600161622f565b614d3390600161622f565b614d3e90600161622f565b614d4990600161622f565b614d5490600161622f565b614d5f90600161622f565b60ff16614d6c919061645e565b614c4d919061645e565b5f6110ca82614d8683600161622f565b614d9190600161622f565b6148d090600161622f565b5f6110ca82614d9183600161622f565b5f6110ca82614dbc83600161622f565b614d8690600161622f565b5f6110ca82614dd783600161622f565b614dbc90600161622f565b5f6110ca82614df283600161622f565b614dd790600161622f565b5f6110ca82614e0d83600161622f565b614df290600161622f565b5f6110ca82614e2883600161622f565b614e0d90600161622f565b5f6110ca82614e4383600161622f565b614e2890600161622f565b5f6110ca82614e5e83600161622f565b614e4390600161622f565b5f6110ca82614e7983600161622f565b614e5e90600161622f565b816001600160a01b031663ce20ece76040518163ffffffff1660e01b8152600401602060405180830381865afa158015614ec0573d5f5f3e3d5ffd5b505050506040513d601f19601f82011682018060405250810190614ee49190616091565b811015614f04576040516317f640d160e31b815260040160405180910390fd5b816001600160a01b031663654cf15d6040518163ffffffff1660e01b8152600401602060405180830381865afa158015614f40573d5f5f3e3d5ffd5b505050506040513d601f19601f82011682018060405250810190614f649190616091565b811115614f8457604051637f47834b60e01b815260040160405180910390fd5b6001600160a01b0382165f90815260208190526040902054614fa69082615154565b6001600160a01b0383165f8181526020818152604091829020939093555183815290917f89d41522342fabac1471ca6073a5623e5caf367b03ca6e9a001478d0cf8be4a1910160405180910390a25050565b5f5f85608001518481518110615010576150106160a8565b6020026020010151905084811115615084575f61502f86830385612587565b90506150808760c00151868151811061504a5761504a6160a8565b60200260200101518860a001518781518110615068576150686160a8565b6020026020010151836152669092919063ffffffff16565b9250505b50949350505050565b5f5f8212615099575090565b61092861527a565b611d966150b06001835c6160cb565b8290614242565b611d966150b0825c600161645e565b611d37816121086123e88686614272565b5f6110ca83608084901b61645e565b5f806150f28385616248565b905061082a670de0b6b3a764000082616337565b5f6110c7826151158587616248565b90612587565b5f61111061512a82600161645e565b83901c60011690565b5f61513f848484615287565b506001901b5f1901811b1992909216911b1790565b5f670de0b5cad2bef00082111561517e576040516301d1b96560e61b815260040160405180910390fd5b61518d64174876e80083616337565b91506110ca8261519e5f600161622f565b6151a990600161622f565b6151b490600161622f565b6151bf90600161622f565b6151ca90600161622f565b6151d590600161622f565b6151e090600161622f565b6151eb90600161622f565b6151f690600161622f565b61520190600161622f565b61520c90600161622f565b61521790600161622f565b61522290600161622f565b61522d90600161622f565b61523890600161622f565b61524390600161622f565b61524e90600161622f565b61525990600161622f565b85919060ff166018615133565b5f6110c7846152758486616248565b61204d565b6335278d125f526004601cfd5b61010082106152a957604051632d0483c560e21b815260040160405180910390fd5b600181101580156152cf57506152cb60ff6152c6846101006160cb565b61530d565b8111155b6152ec57604051632d0483c560e21b815260040160405180910390fd5b82811c15611d375760405163e4337c0560e01b815260040160405180910390fd5b5f8183118284180283186110ca565b6040518060e001604052805f81526020016060815260200160608152602001606081526020016060815260200160608152602001606081525090565b6040805160608101909152805f81525f6020820181905260409091015290565b60408051610160810182525f80825260208201819052918101829052606081018290526080810182905260a0810182905260c0810182905260e081018290526101008101829052610120810182905261014081019190915290565b6107ec616769565b6001600160a01b0381168114611d96575f5ffd5b8035610928816153db565b5f5f6040838503121561540b575f5ffd5b8235615416816153db565b91506020830135615426816153db565b809150509250929050565b5f60208284031215615441575f5ffd5b81356110ca816153db565b5f8151808452602084019350602083015f5b828110156154855781516001600160a01b031686526020958601959091019060010161545e565b5093949350505050565b634e487b7160e01b5f52602160045260245ffd5b60028110611d9657634e487b7160e01b5f52602160045260245ffd5b5f81516154cb816154a3565b8352506020818101516001600160a01b03169083015260409081015115159082015260600190565b5f8151808452602084019350602083015f5b82811015615485576155188683516154bf565b955060209190910190600101615505565b5f8151808452602084019350602083015f5b8281101561548557815186526020958601959091019060010161553b565b60208152815160208201525f602083015160e0604084015261557f61010084018261544c565b90506040840151601f1984830301606085015261559c82826154f3565b9150506060840151601f198483030160808501526155ba8282615529565b9150506080840151601f198483030160a08501526155d88282615529565b91505060a0840151601f198483030160c08501526155f68282615529565b91505060c0840151601f198483030160e0850152610a388282615529565b6001600160a01b03169052565b6001600160a01b0391909116815260200190565b634e487b7160e01b5f52604160045260245ffd5b60405160e081016001600160401b038111828210171561566b5761566b615635565b60405290565b604051608081016001600160401b038111828210171561566b5761566b615635565b60405161014081016001600160401b038111828210171561566b5761566b615635565b604051601f8201601f191681016001600160401b03811182821017156156de576156de615635565b604052919050565b60028110611d96575f5ffd5b8035610928816156e6565b5f6001600160401b0382111561571557615715615635565b5060051b60200190565b5f82601f83011261572e575f5ffd5b813561574161573c826156fd565b6156b6565b8082825260208201915060208360051b860101925085831115615762575f5ffd5b602085015b83811015612975578035835260209283019201615767565b5f82601f83011261578e575f5ffd5b81356001600160401b038111156157a7576157a7615635565b6157ba601f8201601f19166020016156b6565b8181528460208386010111156157ce575f5ffd5b816020850160208301375f918101602001919091529392505050565b5f5f604083850312156157fb575f5ffd5b8235615806816153db565b915060208301356001600160401b03811115615820575f5ffd5b830160e08186031215615831575f5ffd5b615839615649565b615842826156f2565b81526020828101359082015260408201356001600160401b03811115615866575f5ffd5b6158728782850161571f565b604083015250606082810135908201526080808301359082015261589860a083016153ef565b60a082015260c08201356001600160401b038111156158b5575f5ffd5b6158c18782850161577f565b60c08301525080925050509250929050565b602081525f6110ca6020830184615529565b608081525f6158f7608083018761544c565b82810360208401528086518083526020830191506020880192505f5b81811015615937576159268385516154bf565b602094909401939250600101615913565b5050838103604085015261594b8187615529565b91505082810360608401526159608185615529565b979650505050505050565b5f5f83601f84011261597b575f5ffd5b5081356001600160401b03811115615991575f5ffd5b6020830191508360208285010111156159a8575f5ffd5b9250929050565b5f5f602083850312156159c0575f5ffd5b82356001600160401b038111156159d5575f5ffd5b6159e18582860161596b565b90969095509350505050565b604081525f6159ff6040830185615529565b8281036020840152610a388185615529565b5f5f5f60608486031215615a23575f5ffd5b8335615a2e816153db565b92506020840135615a3e816153db565b91506040840135615a4e816153db565b809150509250925092565b5f5f5f5f60808587031215615a6c575f5ffd5b8435615a77816153db565b93506020850135615a87816153db565b92506040850135915060608501356001600160401b03811115615aa8575f5ffd5b615ab48782880161571f565b91505092959194509250565b5f5f5f5f5f5f60c08789031215615ad5575f5ffd5b8635615ae0816153db565b95506020870135615af0816153db565b945060408701356001600160401b03811115615b0a575f5ffd5b8701601f81018913615b1a575f5ffd5b8035615b2861573c826156fd565b8082825260208201915060208360051b85010192508b831115615b49575f5ffd5b6020840193505b82841015615b74578335615b63816153db565b825260209384019390910190615b50565b965050505060608701356001600160401b03811115615b91575f5ffd5b615b9d89828a0161571f565b9350506080870135915060a08701356001600160401b03811115615bbf575f5ffd5b615bcb89828a0161577f565b9150509295509295509295565b5f5f5f60408486031215615bea575f5ffd5b8335925060208401356001600160401b03811115615c06575f5ffd5b615c128682870161596b565b9497909650939450505050565b602081525f6110ca602083018461544c565b8051151582526020810151615c4a602084018215159052565b506040810151615c5e604084018215159052565b506060810151615c72606084018215159052565b506080810151615c86608084018215159052565b5060a0810151615c9a60a084018215159052565b5060c0810151615cae60c084018215159052565b5060e0810151615cc260e084018215159052565b50610100810151615cd861010084018215159052565b50610120810151615cee61012084018215159052565b50610140810151611d37610140840182615614565b61016081016111108284615c31565b5f5f5f60608486031215615d24575f5ffd5b8335615d2f816153db565b92506020840135615d3f816153db565b929592945050506040919091013590565b80516001600160a01b03908116835260208083015182169084015260409182015116910152565b606081016111108284615d50565b5f81518084528060208401602086015e5f602082860101526020601f19601f83011685010191505092915050565b602081525f6110ca6020830184615d85565b8015158114611d96575f5ffd5b803561092881615dc5565b803563ffffffff81168114610928575f5ffd5b5f6060828403121561085c575f5ffd5b5f6080828403121561085c575f5ffd5b5f5f5f5f5f5f5f5f6101a0898b031215615e28575f5ffd5b8835615e33816153db565b975060208901356001600160401b03811115615e4d575f5ffd5b8901601f81018b13615e5d575f5ffd5b8035615e6b61573c826156fd565b8082825260208201915060208360071b85010192508d831115615e8c575f5ffd5b6020840193505b82841015615f0c576080848f031215615eaa575f5ffd5b615eb2615671565b8435615ebd816153db565b81526020850135615ecd816156e6565b60208201526040850135615ee0816153db565b60408201526060850135615ef381615dc5565b6060820152825260809390930192602090910190615e93565b995050505060408901359550615f2460608a01615ddd565b9450615f3260808a01615dd2565b9350615f418a60a08b01615df0565b9250615f506101008a016153ef565b9150615f608a6101208b01615e00565b90509295985092959890939650565b8051151582526020810151151560208301526040810151151560408301526060810151151560608301525050565b5f6101a082019050615fb0828451615f6f565b60208301516080830152604083015160a0830152606083015160c08301526080830151615fe660e084018264ffffffffff169052565b5060a083015163ffffffff166101008381019190915260c084015115156101208085019190915260e0850151151561014085015290840151151561016084015283015180151561018084015261082d565b634e487b7160e01b5f52601160045260245ffd5b63ffffffff818116838216019081111561111057611110616037565b604081525f6160796040830185615529565b9050616084836154a3565b8260208301529392505050565b5f602082840312156160a1575f5ffd5b5051919050565b634e487b7160e01b5f52603260045260245ffd5b818382375f9101908152919050565b8181038181111561111057611110616037565b6001600160a01b039390931683526020830191909152604082015260600190565b838152606060208201525f6161176060830185615529565b82810360408401526120298185615529565b60208152816020820152818360408301375f818301604090810191909152601f909201601f19160101919050565b5f6060828403128015616168575f5ffd5b50604051606081016001600160401b038111828210171561618b5761618b615635565b6040528235616199816153db565b815260208301356161a9816153db565b602082015260408301356161bc816153db565b60408201529392505050565b5f60808284031280156161d9575f5ffd5b506161e2615671565b82356161ed81615dc5565b815260208301356161fd81615dc5565b6020820152604083013561621081615dc5565b6040820152606083013561622381615dc5565b60608201529392505050565b60ff818116838216019081111561111057611110616037565b808202811582820484141761111057611110616037565b606081525f845161626f816154a3565b606083015260208501516080830152604085015160e060a0840152616298610140840182615529565b606087015160c085810191909152608088015160e086015260a08801516001600160a01b0316610100860152870151848203605f19016101208601529091506162e18282615d85565b925050506162f26020830185615614565b826040830152949350505050565b805161092881615dc5565b5f5f6040838503121561631c575f5ffd5b825161632781615dc5565b6020939093015192949293505050565b5f8261635157634e487b7160e01b5f52601260045260245ffd5b500490565b6001815b60018411156163915780850481111561637557616375616037565b600184161561638357908102905b60019390931c92800261635a565b935093915050565b5f826163a757506001611110565b816163b357505f611110565b81600181146163c957600281146163d3576163ef565b6001915050611110565b60ff8411156163e4576163e4616037565b50506001821b611110565b5060208310610133831016604e8410600b8410161715616412575081810a611110565b61641e5f198484616356565b805f190482111561643157616431616037565b029392505050565b5f6110ca8383616399565b5f600160ff1b820161645857616458616037565b505f0390565b8082018082111561111057611110616037565b6001600160a01b039384168152919092166020820152604081019190915260600190565b604081525f6164a76040830185615529565b8281036020840152610a388185615d85565b5f602082840312156164c9575f5ffd5b81516110ca81615dc5565b6001600160a01b0393841681529183166020830152909116604082015260600190565b606081525f6165096060830186615529565b84602084015282810360408401526120298185615d85565b5f60208284031215616531575f5ffd5b815160ff811681146110ca575f5ffd5b5f5f60408385031215616552575f5ffd5b505080516020909101519092909150565b5f8151808452602084019350602083015f5b8281101561548557815180516001600160a01b03168752602081015161659a816154a3565b6020888101919091526040828101516001600160a01b0316908901526060918201511515918801919091526080909601959190910190600101616575565b6001600160a01b0385811682528416602082015260e0604082018190525f9061660390830185616563565b9050610a386060830184615f6f565b5f610140828403128015616624575f5ffd5b5061662d615693565b61663683616300565b815261664460208401616300565b602082015261665560408401616300565b604082015261666660608401616300565b606082015261667760808401616300565b608082015261668860a08401616300565b60a082015261669960c08401616300565b60c08201526166aa60e08401616300565b60e08201526166bc6101008401616300565b6101008201526166cf6101208401616300565b6101208201529392505050565b6102a081525f6166f06102a0830189616563565b905086602083015263ffffffff861660408301526167116060830186615d50565b61671e60c0830185615c31565b615960610220830184615f6f565b8082018281125f83128015821682158216171561674b5761674b616037565b505092915050565b5f82518060208501845e5f920191825250919050565b634e487b7160e01b5f52605160045260245ffdfed1398bee19313d6bf672ccb116e51f4a1a947e91c757907f51fbb5b5e56c698f9b779b17422d0df92223018b32b4d1fa46e071723d6817e2486d003becc55f00a2646970667358221220937a2a48f26d2d0f6e14405d3c4eec32004923e61835d41eeed1d912fb6d72f264736f6c634300081e0033","linkReferences":{}},"methodIdentifiers":{"allowance(address,address,address)":"927da105","approve(address,address,uint256)":"e1f21c67","balanceOf(address,address)":"f7888aec","computeDynamicSwapFeePercentage(address,(uint8,uint256,uint256[],uint256,uint256,address,bytes))":"4d472bdd","emitAuxiliaryEvent(bytes32,bytes)":"c8088247","getAddLiquidityCalledFlag(address)":"ace9b89b","getAggregateSwapFeeAmount(address,address)":"85e0b999","getAggregateYieldFeeAmount(address,address)":"00fdfa13","getAuthorizer()":"aaabadc5","getBptRate(address)":"4f037ee7","getCurrentLiveBalances(address)":"535cfd8a","getERC4626BufferAsset(address)":"4afbaf5a","getHooksConfig(address)":"ce8630d4","getNonzeroDeltaCount()":"db817187","getPoolConfig(address)":"f29486a1","getPoolData(address)":"13d21cdf","getPoolPausedState(address)":"15e32046","getPoolRoleAccounts(address)":"e9ddeb26","getPoolTokenInfo(address)":"67e0e076","getPoolTokenRates(address)":"7e361bde","getPoolTokens(address)":"ca4f2803","getProtocolFeeController()":"85f2dbd4","getReservesOf(address)":"96787092","getStaticSwapFeePercentage(address)":"b45090f9","getTokenDelta(address)":"9e825ff5","getVaultAdmin()":"1ba0ae45","initialize(address,address,address[],uint256[],uint256,bytes)":"ba8a2be0","isERC4626BufferInitialized(address)":"6844846b","isPoolInRecoveryMode(address)":"be7d628a","isPoolInitialized(address)":"532cec7c","isPoolPaused(address)":"6c9bc732","isPoolRegistered(address)":"c673bdaf","isQueryDisabled()":"b4aef0ab","isQueryDisabledPermanently()":"13ef8a5d","isUnlocked()":"8380edb7","quote(bytes)":"edfa3568","quoteAndRevert(bytes)":"757d64b3","reentrancyGuardEntered()":"d2c725e0","registerPool(address,(address,uint8,address,bool)[],uint256,uint32,bool,(address,address,address),address,(bool,bool,bool,bool))":"eeec802f","removeLiquidityRecovery(address,address,uint256,uint256[])":"a07d6040","totalSupply(address)":"e4dc2aa4","vault()":"fbfa77cf"},"id":347}