{"abi":[{"type":"function","name":"computeBalance","inputs":[{"name":"balancesLiveScaled18","type":"uint256[]","internalType":"uint256[]"},{"name":"tokenInIndex","type":"uint256","internalType":"uint256"},{"name":"invariantRatio","type":"uint256","internalType":"uint256"}],"outputs":[{"name":"newBalance","type":"uint256","internalType":"uint256"}],"stateMutability":"pure"},{"type":"function","name":"computeInvariant","inputs":[{"name":"balancesLiveScaled18","type":"uint256[]","internalType":"uint256[]"},{"name":"rounding","type":"uint8","internalType":"enum Rounding"}],"outputs":[{"name":"invariant","type":"uint256","internalType":"uint256"}],"stateMutability":"pure"},{"type":"function","name":"onSwap","inputs":[{"name":"params","type":"tuple","internalType":"struct PoolSwapParams","components":[{"name":"kind","type":"uint8","internalType":"enum SwapKind"},{"name":"amountGivenScaled18","type":"uint256","internalType":"uint256"},{"name":"balancesScaled18","type":"uint256[]","internalType":"uint256[]"},{"name":"indexIn","type":"uint256","internalType":"uint256"},{"name":"indexOut","type":"uint256","internalType":"uint256"},{"name":"router","type":"address","internalType":"address"},{"name":"userData","type":"bytes","internalType":"bytes"}]}],"outputs":[{"name":"amountCalculatedScaled18","type":"uint256","internalType":"uint256"}],"stateMutability":"pure"},{"type":"error","name":"ZeroDivision","inputs":[]}],"bytecode":{"object":"0x6080604052348015600e575f5ffd5b5061064b8061001c5f395ff3fe608060405234801561000f575f5ffd5b506004361061003f575f3560e01c806316a0b3e01461004357806372c9818614610068578063984de9e81461007b575b5f5ffd5b61005661005136600461043a565b61008e565b60405190815260200160405180910390f35b610056610076366004610483565b6100f2565b6100566100893660046104c8565b6101ca565b5f80831561009c575f61009f565b60015b60ff1690505f6100ba846100b48860016101ca565b9061027d565b90506100e86100c9828061052a565b8784815181106100db576100db610541565b60200260200101516102a7565b9695505050505050565b5f806101016040840184610555565b846060013581811061011557610115610541565b9050602002013590505f83806040019061012f9190610555565b856080013581811061014357610143610541565b602002919091013591505f905061015d60208601866105b5565b600181111561016e5761016e6105a1565b0361019e57602084013561018281846105d0565b61018c828461052a565b61019691906105e3565b9350506101c3565b60208401356101bf6101b0828561052a565b6101ba8385610602565b6102a7565b9350505b5050919050565b670de0b6b3a76400005f5b835181101561025e5760018360018111156101f2576101f26105a1565b146102285761022384828151811061020c5761020c610541565b6020026020010151836102d990919063ffffffff16565b610254565b61025484828151811061023d5761023d610541565b60200260200101518361027d90919063ffffffff16565b91506001016101d5565b5061026881610305565b61027690633b9aca0061052a565b9392505050565b5f80610289838561052a565b905061029d670de0b6b3a7640000826105e3565b9150505b92915050565b5f815f036102c857604051630a0c22c760e01b815260040160405180910390fd5b508115155f19909201046001010290565b5f806102e5838561052a565b90506001670de0b6b3a76400006001830304018115150291505092915050565b5f6102a1826001600160881b03811160071b81811c6001600160481b031060061b1781811c64ffffffffff1060051b1781811c62ffffff1060041b1781811c620100000160b5600192831c1b0260121c80830401811c80830401811c80830401811c80830401811c80830401811c80830401811c80830401901c908190048111900390565b634e487b7160e01b5f52604160045260245ffd5b5f82601f8301126103ad575f5ffd5b81356001600160401b038111156103c6576103c661038a565b604051600582901b90603f8201601f191681016001600160401b03811182821017156103f4576103f461038a565b604052918252602081850181019290810186841115610411575f5ffd5b6020860192505b83831015610430578235815260209283019201610418565b5095945050505050565b5f5f5f6060848603121561044c575f5ffd5b83356001600160401b03811115610461575f5ffd5b61046d8682870161039e565b9660208601359650604090950135949350505050565b5f60208284031215610493575f5ffd5b81356001600160401b038111156104a8575f5ffd5b820160e08185031215610276575f5ffd5b600281106104c5575f5ffd5b50565b5f5f604083850312156104d9575f5ffd5b82356001600160401b038111156104ee575f5ffd5b6104fa8582860161039e565b925050602083013561050b816104b9565b809150509250929050565b634e487b7160e01b5f52601160045260245ffd5b80820281158282048414176102a1576102a1610516565b634e487b7160e01b5f52603260045260245ffd5b5f5f8335601e1984360301811261056a575f5ffd5b8301803591506001600160401b03821115610583575f5ffd5b6020019150600581901b360382131561059a575f5ffd5b9250929050565b634e487b7160e01b5f52602160045260245ffd5b5f602082840312156105c5575f5ffd5b8135610276816104b9565b808201808211156102a1576102a1610516565b5f826105fd57634e487b7160e01b5f52601260045260245ffd5b500490565b818103818111156102a1576102a161051656fea2646970667358221220a5c8d6f986aba64d808ed487969b3fd6512a9936003d699b47a63232149be12f64736f6c634300081e0033","linkReferences":{}},"methodIdentifiers":{"computeBalance(uint256[],uint256,uint256)":"16a0b3e0","computeInvariant(uint256[],uint8)":"984de9e8","onSwap((uint8,uint256,uint256[],uint256,uint256,address,bytes))":"72c98186"},"id":863}