{"abi":[{"type":"constructor","inputs":[{"name":"_protocolFeeSweeper","type":"address","internalType":"contract IProtocolFeeSweeper"},{"name":"_composableCow","type":"address","internalType":"contract IComposableCow"},{"name":"_cowVaultRelayer","type":"address","internalType":"address"},{"name":"_appData","type":"bytes32","internalType":"bytes32"},{"name":"_initialOwner","type":"address","internalType":"address"},{"name":"_version","type":"string","internalType":"string"}],"stateMutability":"nonpayable"},{"type":"function","name":"acceptOwnership","inputs":[],"outputs":[],"stateMutability":"nonpayable"},{"type":"function","name":"appData","inputs":[],"outputs":[{"name":"","type":"bytes32","internalType":"bytes32"}],"stateMutability":"view"},{"type":"function","name":"burn","inputs":[{"name":"pool","type":"address","internalType":"address"},{"name":"feeToken","type":"address","internalType":"contract IERC20"},{"name":"exactFeeTokenAmountIn","type":"uint256","internalType":"uint256"},{"name":"targetToken","type":"address","internalType":"contract IERC20"},{"name":"encodedMinAmountsOut","type":"uint256","internalType":"uint256"},{"name":"recipient","type":"address","internalType":"address"},{"name":"deadline","type":"uint256","internalType":"uint256"}],"outputs":[],"stateMutability":"nonpayable"},{"type":"function","name":"cancelOrder","inputs":[{"name":"tokenIn","type":"address","internalType":"contract IERC20"},{"name":"receiver","type":"address","internalType":"address"}],"outputs":[],"stateMutability":"nonpayable"},{"type":"function","name":"cancelOwnershipHandover","inputs":[],"outputs":[],"stateMutability":"payable"},{"type":"function","name":"completeOwnershipHandover","inputs":[{"name":"pendingOwner","type":"address","internalType":"address"}],"outputs":[],"stateMutability":"payable"},{"type":"function","name":"composableCow","inputs":[],"outputs":[{"name":"","type":"address","internalType":"contract IComposableCow"}],"stateMutability":"view"},{"type":"function","name":"emergencyCancelOrder","inputs":[{"name":"tokenIn","type":"address","internalType":"contract IERC20"},{"name":"receiver","type":"address","internalType":"address"}],"outputs":[],"stateMutability":"nonpayable"},{"type":"function","name":"getOrder","inputs":[{"name":"tokenIn","type":"address","internalType":"contract IERC20"}],"outputs":[{"name":"","type":"tuple","internalType":"struct GPv2Order","components":[{"name":"sellToken","type":"address","internalType":"contract IERC20"},{"name":"buyToken","type":"address","internalType":"contract IERC20"},{"name":"receiver","type":"address","internalType":"address"},{"name":"sellAmount","type":"uint256","internalType":"uint256"},{"name":"buyAmount","type":"uint256","internalType":"uint256"},{"name":"validTo","type":"uint32","internalType":"uint32"},{"name":"appData","type":"bytes32","internalType":"bytes32"},{"name":"feeAmount","type":"uint256","internalType":"uint256"},{"name":"kind","type":"bytes32","internalType":"bytes32"},{"name":"partiallyFillable","type":"bool","internalType":"bool"},{"name":"sellTokenBalance","type":"bytes32","internalType":"bytes32"},{"name":"buyTokenBalance","type":"bytes32","internalType":"bytes32"}]}],"stateMutability":"view"},{"type":"function","name":"getOrderStatus","inputs":[{"name":"tokenIn","type":"address","internalType":"contract IERC20"}],"outputs":[{"name":"status","type":"uint8","internalType":"enum ICowSwapFeeBurner.OrderStatus"}],"stateMutability":"view"},{"type":"function","name":"getTradeableOrder","inputs":[{"name":"","type":"address","internalType":"address"},{"name":"","type":"address","internalType":"address"},{"name":"","type":"bytes32","internalType":"bytes32"},{"name":"staticInput","type":"bytes","internalType":"bytes"},{"name":"","type":"bytes","internalType":"bytes"}],"outputs":[{"name":"","type":"tuple","internalType":"struct GPv2Order","components":[{"name":"sellToken","type":"address","internalType":"contract IERC20"},{"name":"buyToken","type":"address","internalType":"contract IERC20"},{"name":"receiver","type":"address","internalType":"address"},{"name":"sellAmount","type":"uint256","internalType":"uint256"},{"name":"buyAmount","type":"uint256","internalType":"uint256"},{"name":"validTo","type":"uint32","internalType":"uint32"},{"name":"appData","type":"bytes32","internalType":"bytes32"},{"name":"feeAmount","type":"uint256","internalType":"uint256"},{"name":"kind","type":"bytes32","internalType":"bytes32"},{"name":"partiallyFillable","type":"bool","internalType":"bool"},{"name":"sellTokenBalance","type":"bytes32","internalType":"bytes32"},{"name":"buyTokenBalance","type":"bytes32","internalType":"bytes32"}]}],"stateMutability":"view"},{"type":"function","name":"isValidSignature","inputs":[{"name":"_hash","type":"bytes32","internalType":"bytes32"},{"name":"signature","type":"bytes","internalType":"bytes"}],"outputs":[{"name":"","type":"bytes4","internalType":"bytes4"}],"stateMutability":"view"},{"type":"function","name":"owner","inputs":[],"outputs":[{"name":"","type":"address","internalType":"address"}],"stateMutability":"view"},{"type":"function","name":"ownershipHandoverExpiresAt","inputs":[{"name":"pendingOwner","type":"address","internalType":"address"}],"outputs":[{"name":"result","type":"uint256","internalType":"uint256"}],"stateMutability":"view"},{"type":"function","name":"pendingOwner","inputs":[],"outputs":[{"name":"","type":"address","internalType":"address"}],"stateMutability":"view"},{"type":"function","name":"protocolFeeSweeper","inputs":[],"outputs":[{"name":"","type":"address","internalType":"contract IProtocolFeeSweeper"}],"stateMutability":"view"},{"type":"function","name":"renounceOwnership","inputs":[],"outputs":[],"stateMutability":"payable"},{"type":"function","name":"requestOwnershipHandover","inputs":[],"outputs":[],"stateMutability":"payable"},{"type":"function","name":"retryOrder","inputs":[{"name":"tokenIn","type":"address","internalType":"contract IERC20"},{"name":"minAmountOut","type":"uint256","internalType":"uint256"},{"name":"deadline","type":"uint256","internalType":"uint256"}],"outputs":[],"stateMutability":"nonpayable"},{"type":"function","name":"supportsInterface","inputs":[{"name":"interfaceId","type":"bytes4","internalType":"bytes4"}],"outputs":[{"name":"","type":"bool","internalType":"bool"}],"stateMutability":"pure"},{"type":"function","name":"transferOwnership","inputs":[{"name":"newOwner","type":"address","internalType":"address"}],"outputs":[],"stateMutability":"payable"},{"type":"function","name":"vaultRelayer","inputs":[],"outputs":[{"name":"","type":"address","internalType":"address"}],"stateMutability":"view"},{"type":"function","name":"verify","inputs":[{"name":"owner","type":"address","internalType":"address"},{"name":"sender","type":"address","internalType":"address"},{"name":"","type":"bytes32","internalType":"bytes32"},{"name":"","type":"bytes32","internalType":"bytes32"},{"name":"ctx","type":"bytes32","internalType":"bytes32"},{"name":"staticInput","type":"bytes","internalType":"bytes"},{"name":"offchainInput","type":"bytes","internalType":"bytes"},{"name":"_order","type":"tuple","internalType":"struct GPv2Order","components":[{"name":"sellToken","type":"address","internalType":"contract IERC20"},{"name":"buyToken","type":"address","internalType":"contract IERC20"},{"name":"receiver","type":"address","internalType":"address"},{"name":"sellAmount","type":"uint256","internalType":"uint256"},{"name":"buyAmount","type":"uint256","internalType":"uint256"},{"name":"validTo","type":"uint32","internalType":"uint32"},{"name":"appData","type":"bytes32","internalType":"bytes32"},{"name":"feeAmount","type":"uint256","internalType":"uint256"},{"name":"kind","type":"bytes32","internalType":"bytes32"},{"name":"partiallyFillable","type":"bool","internalType":"bool"},{"name":"sellTokenBalance","type":"bytes32","internalType":"bytes32"},{"name":"buyTokenBalance","type":"bytes32","internalType":"bytes32"}]}],"outputs":[],"stateMutability":"view"},{"type":"function","name":"version","inputs":[],"outputs":[{"name":"","type":"string","internalType":"string"}],"stateMutability":"view"},{"type":"event","name":"ConditionalOrderCreated","inputs":[{"name":"owner","type":"address","indexed":true,"internalType":"address"},{"name":"params","type":"tuple","indexed":false,"internalType":"struct ICowConditionalOrder.ConditionalOrderParams","components":[{"name":"handler","type":"address","internalType":"contract ICowConditionalOrder"},{"name":"salt","type":"bytes32","internalType":"bytes32"},{"name":"staticData","type":"bytes","internalType":"bytes"}]}],"anonymous":false},{"type":"event","name":"OrderCanceled","inputs":[{"name":"tokenIn","type":"address","indexed":false,"internalType":"contract IERC20"},{"name":"exactAmountIn","type":"uint256","indexed":false,"internalType":"uint256"},{"name":"receiver","type":"address","indexed":false,"internalType":"address"}],"anonymous":false},{"type":"event","name":"OrderRetried","inputs":[{"name":"tokenIn","type":"address","indexed":false,"internalType":"contract IERC20"},{"name":"exactAmountIn","type":"uint256","indexed":false,"internalType":"uint256"},{"name":"minAmountOut","type":"uint256","indexed":false,"internalType":"uint256"},{"name":"deadline","type":"uint256","indexed":false,"internalType":"uint256"}],"anonymous":false},{"type":"event","name":"OwnershipHandoverCanceled","inputs":[{"name":"pendingOwner","type":"address","indexed":true,"internalType":"address"}],"anonymous":false},{"type":"event","name":"OwnershipHandoverRequested","inputs":[{"name":"pendingOwner","type":"address","indexed":true,"internalType":"address"}],"anonymous":false},{"type":"event","name":"OwnershipTransferStarted","inputs":[{"name":"previousOwner","type":"address","indexed":true,"internalType":"address"},{"name":"newOwner","type":"address","indexed":true,"internalType":"address"}],"anonymous":false},{"type":"event","name":"OwnershipTransferred","inputs":[{"name":"oldOwner","type":"address","indexed":true,"internalType":"address"},{"name":"newOwner","type":"address","indexed":true,"internalType":"address"}],"anonymous":false},{"type":"event","name":"ProtocolFeeBurned","inputs":[{"name":"pool","type":"address","indexed":true,"internalType":"address"},{"name":"feeToken","type":"address","indexed":true,"internalType":"contract IERC20"},{"name":"exactFeeTokenAmountIn","type":"uint256","indexed":false,"internalType":"uint256"},{"name":"targetToken","type":"address","indexed":true,"internalType":"contract IERC20"},{"name":"actualTargetTokenAmountOut","type":"uint256","indexed":false,"internalType":"uint256"},{"name":"recipient","type":"address","indexed":false,"internalType":"address"}],"anonymous":false},{"type":"error","name":"AlreadyInitialized","inputs":[]},{"type":"error","name":"AmountOutBelowMin","inputs":[{"name":"tokenOut","type":"address","internalType":"contract IERC20"},{"name":"amountOut","type":"uint256","internalType":"uint256"},{"name":"minAmountOut","type":"uint256","internalType":"uint256"}]},{"type":"error","name":"AmountOutIsZero","inputs":[{"name":"token","type":"address","internalType":"contract IERC20"}]},{"type":"error","name":"InterfaceIsSignatureVerifierMuxer","inputs":[]},{"type":"error","name":"InvalidOrderParameters","inputs":[{"name":"reason","type":"string","internalType":"string"}]},{"type":"error","name":"InvalidProtocolFeeSweeper","inputs":[]},{"type":"error","name":"NewOwnerIsZeroAddress","inputs":[]},{"type":"error","name":"NoHandoverRequest","inputs":[]},{"type":"error","name":"OrderHasUnexpectedStatus","inputs":[{"name":"actualStatus","type":"uint8","internalType":"enum ICowSwapFeeBurner.OrderStatus"}]},{"type":"error","name":"OrderNotValid","inputs":[{"name":"reason","type":"string","internalType":"string"}]},{"type":"error","name":"OwnableInvalidOwner","inputs":[{"name":"owner","type":"address","internalType":"address"}]},{"type":"error","name":"OwnableUnauthorizedAccount","inputs":[{"name":"account","type":"address","internalType":"address"}]},{"type":"error","name":"PollNever","inputs":[{"name":"reason","type":"string","internalType":"string"}]},{"type":"error","name":"PollTryAtBlock","inputs":[{"name":"blockNumber","type":"uint256","internalType":"uint256"},{"name":"reason","type":"string","internalType":"string"}]},{"type":"error","name":"PollTryAtEpoch","inputs":[{"name":"timestamp","type":"uint256","internalType":"uint256"},{"name":"reason","type":"string","internalType":"string"}]},{"type":"error","name":"PollTryNextBlock","inputs":[{"name":"reason","type":"string","internalType":"string"}]},{"type":"error","name":"ReentrancyGuardReentrantCall","inputs":[]},{"type":"error","name":"SenderNotAllowed","inputs":[]},{"type":"error","name":"SwapDeadline","inputs":[]},{"type":"error","name":"Unauthorized","inputs":[]}],"bytecode":{"object":"0x6101406040527ff3b277728b3fee749481eb3e0b3b48980dbbab78658fc419025cb16eee34677560a0527f5a28e9363bb942b639270062aa6bb295f434bcdfc42c97267bf003f272060dc960c052348015610058575f5ffd5b50604051612cdf380380612cdf83398101604081905261007791610191565b858585858585808683806001600160a01b0381166100ae57604051631e4fbdf760e01b81525f600482015260240160405180910390fd5b6100b78161011d565b506001600160a01b0382166100df5760405163932c92a560e01b815260040160405180910390fd5b506001600160a01b03166080526100f581610159565b5050506001600160a01b0392831660e05291166101005261012052506103d495505050505050565b6001600160a01b0316638b78c6d819819055805f7f8be0079c531659141344cd1fd0a4f28419497f9722a3daafe3b4186f6b6457e08180a35b50565b6001610165828261031a565b5050565b6001600160a01b0381168114610156575f5ffd5b634e487b7160e01b5f52604160045260245ffd5b5f5f5f5f5f5f60c087890312156101a6575f5ffd5b86516101b181610169565b60208801519096506101c281610169565b60408801519095506101d381610169565b6060880151608089015191955093506101eb81610169565b60a08801519092506001600160401b03811115610206575f5ffd5b8701601f81018913610216575f5ffd5b80516001600160401b0381111561022f5761022f61017d565b604051601f8201601f19908116603f011681016001600160401b038111828210171561025d5761025d61017d565b6040528181528282016020018b1015610274575f5ffd5b8160208401602083015e5f602083830101528093505050509295509295509295565b600181811c908216806102aa57607f821691505b6020821081036102c857634e487b7160e01b5f52602260045260245ffd5b50919050565b601f82111561031557805f5260205f20601f840160051c810160208510156102f35750805b601f840160051c820191505b81811015610312575f81556001016102ff565b50505b505050565b81516001600160401b038111156103335761033361017d565b610347816103418454610296565b846102ce565b6020601f821160018114610379575f83156103625750848201515b5f19600385901b1c1916600184901b178455610312565b5f84815260208120601f198516915b828110156103a85787850151825560209485019460019092019101610388565b50848210156103c557868401515f19600387901b60f8161c191681555b50505050600190811b01905550565b60805160a05160c05160e05161010051610120516128696104765f395f81816102df015261143201525f818161036701528181610d1a01528181610da0015281816111fc01526118ab01525f8181610334015281816105fe01528181610630015261161301525f818161148d01526114b301525f61145e01525f81816101bc015281816108710152818161099e01528181610ba30152610e3101526128695ff3fe60806040526004361061011a575f3560e01c806301ffc9a71461011e57806314a2a784146101525780631626ba7e14610173578063178ac96e146101ab57806325692962146101eb57806354d1f13d146101f357806354fd4d50146101fb57806360e092c61461021c57806368bce7121461023b5780636eba2b131461025a5780636f9d75cd14610286578063715018a6146102b257806379ba5097146102ba5780638aebd348146102ce5780638da5cb5b1461030f57806393504c52146103235780639b552cc214610356578063b8296fc414610389578063d83b06a4146103a8578063de557a32146103c7578063e30c3978146103e6578063f04e283e146103fa578063f2fde38b1461040d578063fee81cf414610420575b5f5ffd5b348015610129575f5ffd5b5061013d610138366004611cee565b610451565b60405190151581526020015b60405180910390f35b34801561015d575f5ffd5b5061017161016c366004611d71565b6104ee565b005b34801561017e575f5ffd5b5061019261018d366004611eef565b6105e1565b6040516001600160e01b03199091168152602001610149565b3480156101b6575f5ffd5b506101de7f000000000000000000000000000000000000000000000000000000000000000081565b6040516101499190611f7f565b61017161075a565b6101716107a6565b348015610206575f5ffd5b5061020f6107df565b6040516101499190611fc1565b348015610227575f5ffd5b50610171610236366004611fd3565b61086f565b348015610246575f5ffd5b50610171610255366004611fd3565b61099c565b348015610265575f5ffd5b5061027961027436600461200a565b610aed565b6040516101499190612025565b348015610291575f5ffd5b506102a56102a036600461200a565b610afe565b60405161014991906120f2565b610171610b0f565b3480156102c5575f5ffd5b50610171610b22565b3480156102d9575f5ffd5b506103017f000000000000000000000000000000000000000000000000000000000000000081565b604051908152602001610149565b34801561031a575f5ffd5b506101de610b61565b34801561032e575f5ffd5b506101de7f000000000000000000000000000000000000000000000000000000000000000081565b348015610361575f5ffd5b506101de7f000000000000000000000000000000000000000000000000000000000000000081565b348015610394575f5ffd5b506102796103a3366004612118565b610b74565b3480156103b3575f5ffd5b506101716103c23660046121b3565b610ba1565b3480156103d2575f5ffd5b506101716103e13660046121e5565b610e26565b3480156103f1575f5ffd5b506101de61112b565b61017161040836600461200a565b611139565b61017161041b36600461200a565b611173565b34801561042b575f5ffd5b5061030161043a36600461200a565b63389a75e1600c9081525f91909152602090205490565b5f634ea8391f60e11b6001600160e01b03198316016104835760405163193cc2b360e11b815260040160405180910390fd5b6001600160e01b03198216630528a9e160e21b14806104b257506001600160e01b03198216632e0a5bf160e21b145b806104cd57506001600160e01b03198216630b135d3f60e11b145b806104e857506001600160e01b031982166301ffc9a760e01b145b92915050565b5f6104fe8b8b8989898989610b74565b905080608001518260800135111561051b57608080830135908201525b8160405160200161052c9190612290565b60405160208183030381529060405280519060200120816040516020016105539190612025565b60405160208183030381529060405280519060200120146105d4576040516308d8a61160e41b815260206004820152602f60248201527f566572696679206f7264657220646f6573206e6f74206d61746368207769746860448201526e1032bc34b9ba34b7339037b93232b960891b60648201526084015b60405180910390fd5b5050505050505050505050565b5f5f5f838060200190518101906105f89190612518565b915091507f00000000000000000000000000000000000000000000000000000000000000006001600160a01b03166353f00b143033887f00000000000000000000000000000000000000000000000000000000000000006001600160a01b031663f698da256040518163ffffffff1660e01b8152600401602060405180830381865afa15801561068a573d5f5f3e3d5ffd5b505050506040513d601f19601f820116820180604052508101906106ae919061260e565b6040515f906106c1908a90602001612025565b604051602081830303815290604052886040516020016106e1919061265d565b6040516020818303038152906040526040518863ffffffff1660e01b815260040161071297969594939291906126e2565b602060405180830381865afa15801561072d573d5f5f3e3d5ffd5b505050506040513d601f19601f820116820180604052508101906107519190612742565b95945050505050565b5f6202a3006001600160401b03164201905063389a75e1600c52335f52806020600c2055337fdbf36a107da19e49527a7176a1babf963b4b0ff8cde35ee35d6cd8f1f9ac7e1d5f5fa250565b63389a75e1600c52335f525f6020600c2055337ffa7b8eab7da67f412cc9575ed43464468f9bfbae89d1675917346ca6d8fe3c925f5fa2565b6060600180546107ee9061275d565b80601f016020809104026020016040519081016040528092919081815260200182805461081a9061275d565b80156108655780601f1061083c57610100808354040283529160200191610865565b820191905f5260205f20905b81548152906001019060200180831161084857829003601f168201915b5050505050905090565b7f00000000000000000000000000000000000000000000000000000000000000006001600160a01b0316634ccb20c06040518163ffffffff1660e01b8152600401602060405180830381865afa1580156108cb573d5f5f3e3d5ffd5b505050506040513d601f19601f820116820180604052508101906108ef9190612795565b6001600160a01b0316336001600160a01b0316141580156109295750610913610b61565b6001600160a01b0316336001600160a01b031614155b15610947576040516323dada5360e01b815260040160405180910390fd5b5f5f610952846111d8565b9092509050600382600381111561096b5761096b6120de565b1461098b578160405163d0c1b3cf60e01b81526004016105cb91906120f2565b6109968484836111ed565b50505050565b7f00000000000000000000000000000000000000000000000000000000000000006001600160a01b0316634ccb20c06040518163ffffffff1660e01b8152600401602060405180830381865afa1580156109f8573d5f5f3e3d5ffd5b505050506040513d601f19601f82011682018060405250810190610a1c9190612795565b6001600160a01b0316336001600160a01b031614158015610a565750610a40610b61565b6001600160a01b0316336001600160a01b031614155b15610a74576040516323dada5360e01b815260040160405180910390fd5b610ae98282846001600160a01b03166370a08231306040518263ffffffff1660e01b8152600401610aa59190611f7f565b602060405180830381865afa158015610ac0573d5f5f3e3d5ffd5b505050506040513d601f19601f82011682018060405250810190610ae4919061260e565b6111ed565b5050565b610af5611c61565b6104e8826112c4565b5f610b08826111d8565b5092915050565b610b176114dd565b610b205f611518565b565b3380610b2c61112b565b6001600160a01b031614610b55578060405163118cdaa760e01b81526004016105cb9190611f7f565b610b5e81611555565b50565b5f610b6f638b78c6d8195490565b905090565b610b7c611c61565b5f610b898587018761200a565b9050610b94816112c4565b9998505050505050505050565b7f00000000000000000000000000000000000000000000000000000000000000006001600160a01b0316634ccb20c06040518163ffffffff1660e01b8152600401602060405180830381865afa158015610bfd573d5f5f3e3d5ffd5b505050506040513d601f19601f82011682018060405250810190610c219190612795565b6001600160a01b0316336001600160a01b031614158015610c5b5750610c45610b61565b6001600160a01b0316336001600160a01b031614155b15610c79576040516323dada5360e01b815260040160405180910390fd5b5f5f610c84856111d8565b90925090506003826003811115610c9d57610c9d6120de565b14610cbd578160405163d0c1b3cf60e01b81526004016105cb91906120f2565b610cc68461156d565b610ccf836115b6565b6001600160a01b038581165f81815260026020819052604091829020908101889055600301805463ffffffff191663ffffffff881617905551636eb1769f60e11b81523060048201527f00000000000000000000000000000000000000000000000000000000000000009092166024830152829163dd62ed3e90604401602060405180830381865afa158015610d67573d5f5f3e3d5ffd5b505050506040513d601f19601f82011682018060405250810190610d8b919061260e565b1015610dc557610dc56001600160a01b0386167f000000000000000000000000000000000000000000000000000000000000000083611601565b610dce85611611565b604080516001600160a01b038716815260208101839052908101859052606081018490527f1c5203f5bd3b302669f961b1035b0a6ec649f05ba67f3024a07e67ce4332898a9060800160405180910390a15050505050565b336001600160a01b037f00000000000000000000000000000000000000000000000000000000000000001614610e6f576040516323dada5360e01b815260040160405180910390fd5b610e776116d4565b5f8690505f816001600160a01b03166338d52e0f6040518163ffffffff1660e01b8152600401602060405180830381865afa158015610eb8573d5f5f3e3d5ffd5b505050506040513d601f19601f82011682018060405250810190610edc9190612795565b9050610ef36001600160a01b03831633308a61171b565b5f80610efe87611727565b915091505f836001600160a01b03166370a08231306040518263ffffffff1660e01b8152600401610f2f9190611f7f565b602060405180830381865afa158015610f4a573d5f5f3e3d5ffd5b505050506040513d601f19601f82011682018060405250810190610f6e919061260e565b604051635d043b2960e11b8152600481018c9052306024820181905260448201529091506001600160a01b0386169063ba087652906064016020604051808303815f875af1158015610fc2573d5f5f3e3d5ffd5b505050506040513d601f19601f82011682018060405250810190610fe6919061260e565b506040516370a0823160e01b81525f906001600160a01b038616906370a0823190611015903090600401611f7f565b602060405180830381865afa158015611030573d5f5f3e3d5ffd5b505050506040513d601f19601f82011682018060405250810190611054919061260e565b905061106082826127b0565b9a50828b101561108957848b846040516317bc2f2360e11b81526004016105cb939291906127cf565b8a5f036110ab5784604051632ed8ee8f60e11b81526004016105cb9190611f7f565b896001600160a01b0316856001600160a01b03160361110457838b10156110eb57898b856040516317bc2f2360e11b81526004016105cb939291906127cf565b6110ff6001600160a01b038616898d61173d565b611114565b6111148d868d8d888d8d5f611748565b505050505050611122611a33565b50505050505050565b5f546001600160a01b031690565b6111416114dd565b63389a75e1600c52805f526020600c20805442111561116757636f5e88185f526004601cfd5b5f9055610b5e81611518565b61117b6114dd565b5f80546001600160a01b0319166001600160a01b0383169081179091556111a0610b61565b6001600160a01b03167f38d16b8cac22d99fc7c124b9cd0de2d3fa1faef420bfe791d8c362d765e2270060405160405180910390a350565b5f5f6111e4835f611a4a565b91509150915091565b6112216001600160a01b0384167f00000000000000000000000000000000000000000000000000000000000000005f611601565b6001600160a01b0383165f908152600260208190526040822080546001600160a01b03199081168255600182018054909116905590810191909155600301805463ffffffff1916905561127583838361173d565b604080516001600160a01b0385811682526020820184905284168183015290517f0fbcbe35dc18af34468b6ca6da71553ba95c937d09fc996a91b8dfc6ce5cbc5a9181900360600190a1505050565b6112cc611c61565b6001600160a01b038083165f908152600260208181526040808420815160808101835281548716815260018201549096169286019290925291810154918401919091526003015463ffffffff166060830181905290036113665760405163c8fc272560e01b815260206004820152601460248201527313dc99195c88191bd95cc81b9bdd08195e1a5cdd60621b60448201526064016105cb565b604051806101800160405280846001600160a01b03168152602001825f01516001600160a01b0316815260200182602001516001600160a01b03168152602001846001600160a01b03166370a08231306040518263ffffffff1660e01b81526004016113d29190611f7f565b602060405180830381865afa1580156113ed573d5f5f3e3d5ffd5b505050506040513d601f19601f82011682018060405250810190611411919061260e565b815260200182604001518152602001826060015163ffffffff1681526020017f000000000000000000000000000000000000000000000000000000000000000081526020015f81526020017f000000000000000000000000000000000000000000000000000000000000000081526020016001151581526020017f000000000000000000000000000000000000000000000000000000000000000081526020017f0000000000000000000000000000000000000000000000000000000000000000815250915050919050565b6114e5610b61565b6001600160a01b0316336001600160a01b031614610b20573360405163118cdaa760e01b81526004016105cb9190611f7f565b638b78c6d81980546001600160a01b039092169182907f8be0079c531659141344cd1fd0a4f28419497f9722a3daafe3b4186f6b6457e05f80a355565b5f80546001600160a01b0319169055610b5e81611518565b805f03610b5e576040516308d8a61160e41b81526020600482015260166024820152754d696e20616d6f756e74206f7574206973207a65726f60501b60448201526064016105cb565b80421115610b5e576040516308d8a61160e41b8152602060048201526017602482015276111958591b1a5b99481a5cc81a5b881d1a19481c185cdd604a1b60448201526064016105cb565b61160c838383611b37565b505050565b7f00000000000000000000000000000000000000000000000000000000000000006001600160a01b0316636bfae1ca6040518060600160405280306001600160a01b031681526020015f5f1b8152602001846040516020016116739190611f7f565b60405160208183030381529060405281525060016040518363ffffffff1660e01b81526004016116a49291906127f0565b5f604051808303815f87803b1580156116bb575f5ffd5b505af11580156116cd573d5f5f3e3d5ffd5b5050505050565b5f5160206128145f395f51905f525c1561170157604051633ee5aeb560e01b815260040160405180910390fd5b610b2060015f5160206128145f395f51905f525b90611bc1565b61099684848484611bc8565b5f806001600160801b0383166111e48460801c90565b61160c838383611c21565b866001600160a01b0316856001600160a01b0316036117ba576040516308d8a61160e41b815260206004820152602760248201527f46656520746f6b656e20616e642074617267657420746f6b656e20617265207460448201526668652073616d6560c81b60648201526084016105cb565b855f03611805576040516308d8a61160e41b815260206004820152601860248201527746656520746f6b656e20616d6f756e74206973207a65726f60401b60448201526064016105cb565b61180e8461156d565b611817826115b6565b8015611832576118326001600160a01b03881633308961171b565b5f61183d8888611a4a565b5090505f816003811115611853576118536120de565b1415801561187357506002816003811115611870576118706120de565b14155b15611893578060405163d0c1b3cf60e01b81526004016105cb91906120f2565b61189c88611611565b6118d06001600160a01b0389167f000000000000000000000000000000000000000000000000000000000000000089611601565b6040518060800160405280876001600160a01b03168152602001856001600160a01b031681526020018681526020018463ffffffff1681525060025f8a6001600160a01b03166001600160a01b031681526020019081526020015f205f820151815f015f6101000a8154816001600160a01b0302191690836001600160a01b031602179055506020820151816001015f6101000a8154816001600160a01b0302191690836001600160a01b03160217905550604082015181600201556060820151816003015f6101000a81548163ffffffff021916908363ffffffff160217905550905050856001600160a01b0316886001600160a01b03168a6001600160a01b03167f77a7b034dbb42c9087518e95b49c02a17704a521555779f3f9d7f1b26df5ce8d8a8989604051611a209392919092835260208301919091526001600160a01b0316604082015260600190565b60405180910390a4505050505050505050565b610b205f5f5160206128145f395f51905f52611715565b6001600160a01b0382165f908152600260205260408120600381015482919063ffffffff16808303611a83575f5f935093505050611b30565b5f85876001600160a01b03166370a08231306040518263ffffffff1660e01b8152600401611ab19190611f7f565b602060405180830381865afa158015611acc573d5f5f3e3d5ffd5b505050506040513d601f19601f82011682018060405250810190611af0919061260e565b611afa91906127b0565b9050805f03611b1157600294509250611b30915050565b81421115611b2757600394509250611b30915050565b60019450925050505b9250929050565b816014528060345263095ea7b360601b5f5260205f604460105f875af18060015f511416611bb757803d853b151710611bb7575f60345263095ea7b360601b5f525f38604460105f885af1508160345260205f604460105f885af190508060015f511416611bb757803d853b151710611bb757633e3f8f735f526004601cfd5b505f603452505050565b80825d5050565b60405181606052826040528360601b602c526323b872dd60601b600c5260205f6064601c5f895af18060015f511416611c1357803d873b151710611c1357637939f4245f526004601cfd5b505f60605260405250505050565b816014528060345263a9059cbb60601b5f5260205f604460105f875af18060015f511416611bb757803d853b151710611bb7576390b8ec185f526004601cfd5b6040518061018001604052805f6001600160a01b031681526020015f6001600160a01b031681526020015f6001600160a01b031681526020015f81526020015f81526020015f63ffffffff1681526020015f81526020015f81526020015f81526020015f151581526020015f81526020015f81525090565b6001600160e01b031981168114610b5e575f5ffd5b5f60208284031215611cfe575f5ffd5b8135611d0981611cd9565b9392505050565b6001600160a01b0381168114610b5e575f5ffd5b8035611d2f81611d10565b919050565b5f5f83601f840112611d44575f5ffd5b5081356001600160401b03811115611d5a575f5ffd5b602083019150836020828501011115611b30575f5ffd5b5f5f5f5f5f5f5f5f5f5f8a8c03610260811215611d8c575f5ffd5b8b35611d9781611d10565b9a5060208c0135611da781611d10565b995060408c0135985060608c0135975060808c0135965060a08c01356001600160401b03811115611dd6575f5ffd5b611de28e828f01611d34565b90975095505060c08c01356001600160401b03811115611e00575f5ffd5b611e0c8e828f01611d34565b90955093505061018060df1982011215611e24575f5ffd5b5060e08b0190509295989b9194979a5092959850565b634e487b7160e01b5f52604160045260245ffd5b604051606081016001600160401b0381118282101715611e7057611e70611e3a565b60405290565b60405161018081016001600160401b0381118282101715611e7057611e70611e3a565b604051601f8201601f191681016001600160401b0381118282101715611ec157611ec1611e3a565b604052919050565b5f6001600160401b03821115611ee157611ee1611e3a565b50601f01601f191660200190565b5f5f60408385031215611f00575f5ffd5b8235915060208301356001600160401b03811115611f1c575f5ffd5b8301601f81018513611f2c575f5ffd5b8035611f3f611f3a82611ec9565b611e99565b818152866020838501011115611f53575f5ffd5b816020840160208301375f602083830101528093505050509250929050565b6001600160a01b03169052565b6001600160a01b0391909116815260200190565b5f81518084528060208401602086015e5f602082860101526020601f19601f83011685010191505092915050565b602081525f611d096020830184611f93565b5f5f60408385031215611fe4575f5ffd5b8235611fef81611d10565b91506020830135611fff81611d10565b809150509250929050565b5f6020828403121561201a575f5ffd5b8135611d0981611d10565b5f61018082019050612038828451611f72565b602083015161204a6020840182611f72565b50604083015161205d6040840182611f72565b50606083015160608301526080830151608083015260a083015161208960a084018263ffffffff169052565b5060c083015160c083015260e083015160e08301526101008301516101008301526101208301516120bf61012084018215159052565b5061014083015161014083015261016083015161016083015292915050565b634e487b7160e01b5f52602160045260245ffd5b602081016004831061211257634e487b7160e01b5f52602160045260245ffd5b91905290565b5f5f5f5f5f5f5f60a0888a03121561212e575f5ffd5b873561213981611d10565b9650602088013561214981611d10565b95506040880135945060608801356001600160401b0381111561216a575f5ffd5b6121768a828b01611d34565b90955093505060808801356001600160401b03811115612194575f5ffd5b6121a08a828b01611d34565b989b979a50959850939692959293505050565b5f5f5f606084860312156121c5575f5ffd5b83356121d081611d10565b95602085013595506040909401359392505050565b5f5f5f5f5f5f5f60e0888a0312156121fb575f5ffd5b873561220681611d10565b9650602088013561221681611d10565b955060408801359450606088013561222d81611d10565b93506080880135925060a088013561224481611d10565b96999598509396929591949193505060c09091013590565b63ffffffff81168114610b5e575f5ffd5b8035611d2f8161225c565b8015158114610b5e575f5ffd5b8035611d2f81612278565b61018081016122a7826122a285611d24565b611f72565b6122b360208401611d24565b6122c06020840182611f72565b506122cd60408401611d24565b6122da6040840182611f72565b5060608381013590830152608080840135908301526122fb60a0840161226d565b63ffffffff1660a083015260c0838101359083015260e0808401359083015261010080840135908301526123326101208401612285565b1515610120830152610140838101359083015261016092830135929091019190915290565b8051611d2f81611d10565b8051611d2f8161225c565b8051611d2f81612278565b5f82601f830112612387575f5ffd5b8151612395611f3a82611ec9565b8181528460208386010111156123a9575f5ffd5b8160208501602083015e5f918101602001919091529392505050565b5f606082840312156123d5575f5ffd5b6123dd611e4e565b905081516123ea81611d10565b81526020828101519082015260408201516001600160401b0381111561240e575f5ffd5b61241a84828501612378565b60408301525092915050565b5f60608284031215612436575f5ffd5b61243e611e4e565b82519091506001600160401b03811115612456575f5ffd5b8201601f81018413612466575f5ffd5b80516001600160401b0381111561247f5761247f611e3a565b8060051b61248f60208201611e99565b918252602081840181019290810190878411156124aa575f5ffd5b6020850194505b838510156124d0578451808352602095860195909350909101906124b1565b85525050505060208201516001600160401b038111156124ee575f5ffd5b6124fa848285016123c5565b60208301525060408201516001600160401b0381111561240e575f5ffd5b5f5f8284036101a081121561252b575f5ffd5b610180811215612539575f5ffd5b50612542611e76565b61254b84612357565b815261255960208501612357565b602082015261256a60408501612357565b6040820152606084810151908201526080808501519082015261258f60a08501612362565b60a082015260c0848101519082015260e0808501519082015261010080850151908201526125c0610120850161236d565b610120820152610140848101519082015261016080850151908201526101808401519092506001600160401b038111156125f8575f5ffd5b61260485828601612426565b9150509250929050565b5f6020828403121561261e575f5ffd5b5051919050565b60018060a01b038151168252602081015160208301525f6040820151606060408501526126556060850182611f93565b949350505050565b602080825282516060838301528051608084018190525f929190910190829060a08501905b808310156126a55783518252602082019150602084019350600183019250612682565b506020860151858203601f1901604087015292506126c38184612625565b925050506040840151601f198483030160608501526107518282611f93565b6001600160a01b0388811682528716602082015260408101869052606081018590526080810184905260e060a082018190525f9061272290830185611f93565b82810360c08401526127348185611f93565b9a9950505050505050505050565b5f60208284031215612752575f5ffd5b8151611d0981611cd9565b600181811c9082168061277157607f821691505b60208210810361278f57634e487b7160e01b5f52602260045260245ffd5b50919050565b5f602082840312156127a5575f5ffd5b8151611d0981611d10565b818103818111156104e857634e487b7160e01b5f52601160045260245ffd5b6001600160a01b039390931683526020830191909152604082015260600190565b604081525f6128026040830185612625565b90508215156020830152939250505056fe9b779b17422d0df92223018b32b4d1fa46e071723d6817e2486d003becc55f00a2646970667358221220b1d2b322ec987351238359a583880df5c80c6b7a4fe2bd99505095d56b05cf1564736f6c634300081e0033","linkReferences":{}},"methodIdentifiers":{"acceptOwnership()":"79ba5097","appData()":"8aebd348","burn(address,address,uint256,address,uint256,address,uint256)":"de557a32","cancelOrder(address,address)":"60e092c6","cancelOwnershipHandover()":"54d1f13d","completeOwnershipHandover(address)":"f04e283e","composableCow()":"93504c52","emergencyCancelOrder(address,address)":"68bce712","getOrder(address)":"6eba2b13","getOrderStatus(address)":"6f9d75cd","getTradeableOrder(address,address,bytes32,bytes,bytes)":"b8296fc4","isValidSignature(bytes32,bytes)":"1626ba7e","owner()":"8da5cb5b","ownershipHandoverExpiresAt(address)":"fee81cf4","pendingOwner()":"e30c3978","protocolFeeSweeper()":"178ac96e","renounceOwnership()":"715018a6","requestOwnershipHandover()":"25692962","retryOrder(address,uint256,uint256)":"d83b06a4","supportsInterface(bytes4)":"01ffc9a7","transferOwnership(address)":"f2fde38b","vaultRelayer()":"9b552cc2","verify(address,address,bytes32,bytes32,bytes32,bytes,bytes,(address,address,address,uint256,uint256,uint32,bytes32,uint256,bytes32,bool,bytes32,bytes32))":"14a2a784","version()":"54fd4d50"},"id":305}