{"abi":[{"type":"receive","stateMutability":"payable"},{"type":"function","name":"facetFuncs","inputs":[],"outputs":[{"name":"funcs","type":"bytes4[]","internalType":"bytes4[]"}],"stateMutability":"pure"},{"type":"function","name":"facetInterfaces","inputs":[],"outputs":[{"name":"interfaces","type":"bytes4[]","internalType":"bytes4[]"}],"stateMutability":"pure"},{"type":"function","name":"facetMetadata","inputs":[],"outputs":[{"name":"name_","type":"string","internalType":"string"},{"name":"interfaces","type":"bytes4[]","internalType":"bytes4[]"},{"name":"functions","type":"bytes4[]","internalType":"bytes4[]"}],"stateMutability":"pure"},{"type":"function","name":"facetName","inputs":[],"outputs":[{"name":"name","type":"string","internalType":"string"}],"stateMutability":"pure"},{"type":"function","name":"getSender","inputs":[],"outputs":[{"name":"","type":"address","internalType":"address"}],"stateMutability":"view"},{"type":"function","name":"queryRemoveLiquidityCustom","inputs":[{"name":"pool","type":"address","internalType":"address"},{"name":"maxBptAmountIn","type":"uint256","internalType":"uint256"},{"name":"minAmountsOut","type":"uint256[]","internalType":"uint256[]"},{"name":"sender","type":"address","internalType":"address"},{"name":"userData","type":"bytes","internalType":"bytes"}],"outputs":[{"name":"bptAmountIn","type":"uint256","internalType":"uint256"},{"name":"amountsOut","type":"uint256[]","internalType":"uint256[]"},{"name":"returnData","type":"bytes","internalType":"bytes"}],"stateMutability":"nonpayable"},{"type":"function","name":"queryRemoveLiquidityHook","inputs":[{"name":"params","type":"tuple","internalType":"struct RemoveLiquidityHookParams","components":[{"name":"sender","type":"address","internalType":"address"},{"name":"pool","type":"address","internalType":"address"},{"name":"minAmountsOut","type":"uint256[]","internalType":"uint256[]"},{"name":"maxBptAmountIn","type":"uint256","internalType":"uint256"},{"name":"kind","type":"uint8","internalType":"enum RemoveLiquidityKind"},{"name":"wethIsEth","type":"bool","internalType":"bool"},{"name":"userData","type":"bytes","internalType":"bytes"}]}],"outputs":[{"name":"bptAmountIn","type":"uint256","internalType":"uint256"},{"name":"amountsOut","type":"uint256[]","internalType":"uint256[]"},{"name":"returnData","type":"bytes","internalType":"bytes"}],"stateMutability":"nonpayable"},{"type":"function","name":"queryRemoveLiquidityProportional","inputs":[{"name":"pool","type":"address","internalType":"address"},{"name":"exactBptAmountIn","type":"uint256","internalType":"uint256"},{"name":"sender","type":"address","internalType":"address"},{"name":"userData","type":"bytes","internalType":"bytes"}],"outputs":[{"name":"amountsOut","type":"uint256[]","internalType":"uint256[]"}],"stateMutability":"nonpayable"},{"type":"function","name":"queryRemoveLiquidityRecovery","inputs":[{"name":"pool","type":"address","internalType":"address"},{"name":"exactBptAmountIn","type":"uint256","internalType":"uint256"}],"outputs":[{"name":"amountsOut","type":"uint256[]","internalType":"uint256[]"}],"stateMutability":"nonpayable"},{"type":"function","name":"queryRemoveLiquidityRecoveryHook","inputs":[{"name":"pool","type":"address","internalType":"address"},{"name":"sender","type":"address","internalType":"address"},{"name":"exactBptAmountIn","type":"uint256","internalType":"uint256"}],"outputs":[{"name":"amountsOut","type":"uint256[]","internalType":"uint256[]"}],"stateMutability":"nonpayable"},{"type":"function","name":"queryRemoveLiquiditySingleTokenExactIn","inputs":[{"name":"pool","type":"address","internalType":"address"},{"name":"exactBptAmountIn","type":"uint256","internalType":"uint256"},{"name":"tokenOut","type":"address","internalType":"contract IERC20"},{"name":"sender","type":"address","internalType":"address"},{"name":"userData","type":"bytes","internalType":"bytes"}],"outputs":[{"name":"amountOut","type":"uint256","internalType":"uint256"}],"stateMutability":"nonpayable"},{"type":"function","name":"queryRemoveLiquiditySingleTokenExactOut","inputs":[{"name":"pool","type":"address","internalType":"address"},{"name":"tokenOut","type":"address","internalType":"contract IERC20"},{"name":"exactAmountOut","type":"uint256","internalType":"uint256"},{"name":"sender","type":"address","internalType":"address"},{"name":"userData","type":"bytes","internalType":"bytes"}],"outputs":[{"name":"bptAmountIn","type":"uint256","internalType":"uint256"}],"stateMutability":"nonpayable"},{"type":"function","name":"removeLiquidityCustom","inputs":[{"name":"pool","type":"address","internalType":"address"},{"name":"maxBptAmountIn","type":"uint256","internalType":"uint256"},{"name":"minAmountsOut","type":"uint256[]","internalType":"uint256[]"},{"name":"wethIsEth","type":"bool","internalType":"bool"},{"name":"userData","type":"bytes","internalType":"bytes"}],"outputs":[{"name":"bptAmountIn","type":"uint256","internalType":"uint256"},{"name":"amountsOut","type":"uint256[]","internalType":"uint256[]"},{"name":"returnData","type":"bytes","internalType":"bytes"}],"stateMutability":"payable"},{"type":"function","name":"removeLiquidityHook","inputs":[{"name":"params","type":"tuple","internalType":"struct RemoveLiquidityHookParams","components":[{"name":"sender","type":"address","internalType":"address"},{"name":"pool","type":"address","internalType":"address"},{"name":"minAmountsOut","type":"uint256[]","internalType":"uint256[]"},{"name":"maxBptAmountIn","type":"uint256","internalType":"uint256"},{"name":"kind","type":"uint8","internalType":"enum RemoveLiquidityKind"},{"name":"wethIsEth","type":"bool","internalType":"bool"},{"name":"userData","type":"bytes","internalType":"bytes"}]}],"outputs":[{"name":"bptAmountIn","type":"uint256","internalType":"uint256"},{"name":"amountsOut","type":"uint256[]","internalType":"uint256[]"},{"name":"returnData","type":"bytes","internalType":"bytes"}],"stateMutability":"nonpayable"},{"type":"function","name":"removeLiquidityProportional","inputs":[{"name":"pool","type":"address","internalType":"address"},{"name":"exactBptAmountIn","type":"uint256","internalType":"uint256"},{"name":"minAmountsOut","type":"uint256[]","internalType":"uint256[]"},{"name":"wethIsEth","type":"bool","internalType":"bool"},{"name":"userData","type":"bytes","internalType":"bytes"}],"outputs":[{"name":"amountsOut","type":"uint256[]","internalType":"uint256[]"}],"stateMutability":"payable"},{"type":"function","name":"removeLiquidityRecovery","inputs":[{"name":"pool","type":"address","internalType":"address"},{"name":"exactBptAmountIn","type":"uint256","internalType":"uint256"},{"name":"minAmountsOut","type":"uint256[]","internalType":"uint256[]"}],"outputs":[{"name":"amountsOut","type":"uint256[]","internalType":"uint256[]"}],"stateMutability":"payable"},{"type":"function","name":"removeLiquidityRecoveryHook","inputs":[{"name":"pool","type":"address","internalType":"address"},{"name":"sender","type":"address","internalType":"address"},{"name":"exactBptAmountIn","type":"uint256","internalType":"uint256"},{"name":"minAmountsOut","type":"uint256[]","internalType":"uint256[]"}],"outputs":[{"name":"amountsOut","type":"uint256[]","internalType":"uint256[]"}],"stateMutability":"nonpayable"},{"type":"function","name":"removeLiquiditySingleTokenExactIn","inputs":[{"name":"pool","type":"address","internalType":"address"},{"name":"exactBptAmountIn","type":"uint256","internalType":"uint256"},{"name":"tokenOut","type":"address","internalType":"contract IERC20"},{"name":"minAmountOut","type":"uint256","internalType":"uint256"},{"name":"wethIsEth","type":"bool","internalType":"bool"},{"name":"userData","type":"bytes","internalType":"bytes"}],"outputs":[{"name":"amountOut","type":"uint256","internalType":"uint256"}],"stateMutability":"payable"},{"type":"function","name":"removeLiquiditySingleTokenExactOut","inputs":[{"name":"pool","type":"address","internalType":"address"},{"name":"maxBptAmountIn","type":"uint256","internalType":"uint256"},{"name":"tokenOut","type":"address","internalType":"contract IERC20"},{"name":"exactAmountOut","type":"uint256","internalType":"uint256"},{"name":"wethIsEth","type":"bool","internalType":"bool"},{"name":"userData","type":"bytes","internalType":"bytes"}],"outputs":[{"name":"bptAmountIn","type":"uint256","internalType":"uint256"}],"stateMutability":"payable"},{"type":"error","name":"EthTransfer","inputs":[]},{"type":"error","name":"FailedCall","inputs":[]},{"type":"error","name":"InsufficientBalance","inputs":[{"name":"balance","type":"uint256","internalType":"uint256"},{"name":"needed","type":"uint256","internalType":"uint256"}]},{"type":"error","name":"InsufficientEth","inputs":[]},{"type":"error","name":"InsufficientPayment","inputs":[{"name":"token","type":"address","internalType":"contract IERC20"}]},{"type":"error","name":"ReentrancyGuardReentrantCall","inputs":[]},{"type":"error","name":"SenderIsNotVault","inputs":[{"name":"sender","type":"address","internalType":"address"}]},{"type":"error","name":"SwapDeadline","inputs":[]}],"bytecode":{"object":"0x6080604052348015600e575f5ffd5b5061260a8061001c5f395ff3fe6080604052600436106100e6575f3560e01c806308c047931461012a5780630f7108881461015357806323b39241146101725780632ea808261461019f57806351682750146101c057806353d0bb98146101d3578063574a4cff146101f25780635b6f4d01146102065780635e01eb5a146102275780635f9815ff146102485780637b03c7ba1461026757806382bf2b241461029557806382cd54fb146102a8578063b037ed36146102c7578063b24bd571146102e6578063c330c7be14610305578063e7326def14610324578063ecb2182c14610337578063f10d7a751461034a575f5ffd5b36610126576100f361036d565b6001600160a01b0316336001600160a01b031614610124576040516302a06efb60e11b815260040160405180910390fd5b005b5f5ffd5b61013d610138366004611b74565b61038b565b60405161014a9190611c02565b60405180910390f35b34801561015e575f5ffd5b5061013d61016d366004611c8e565b610473565b34801561017d575f5ffd5b5061019161018c366004611cf5565b610580565b60405190815260200161014a565b3480156101aa575f5ffd5b506101b36105fe565b60405161014a9190611da8565b61013d6101ce366004611dce565b610656565b3480156101de575f5ffd5b506101916101ed366004611e29565b61069b565b3480156101fd575f5ffd5b506101b36106f6565b348015610211575f5ffd5b5061021a610992565b60405161014a9190611e9d565b348015610232575f5ffd5b5061023b6109c6565b60405161014a9190611eaf565b348015610253575f5ffd5b5061013d610262366004611ec3565b6109cf565b348015610272575f5ffd5b50610286610281366004611f01565b6109ec565b60405161014a93929190611f37565b6102866102a3366004611dce565b610a29565b3480156102b3575f5ffd5b5061013d6102c2366004611f61565b610a7e565b3480156102d2575f5ffd5b5061013d6102e1366004611fbc565b610ab1565b3480156102f1575f5ffd5b50610286610300366004611f01565b610b8e565b348015610310575f5ffd5b5061028661031f366004611fe6565b610bb0565b610191610332366004612043565b610bd0565b610191610345366004612043565b610c32565b348015610355575f5ffd5b5061035e610ca6565b60405161014a939291906120c2565b5f610386610379610cce565b546001600160a01b031690565b905090565b60605f610396610cf2565b9050806001600160a01b03166348c89491306001600160a01b03166382cd54fb883389896040516024016103cd94939291906120fa565b60408051808303601f1901815291815260208201805160e094851b6001600160e01b03909116179052519184901b6001600160e01b0319168252610415925090600401611e9d565b5f604051808303815f875af1158015610430573d5f5f3e3d5ffd5b505050506040513d5f823e601f3d908101601f191682016040526104579190810190612179565b80602001905181019061046a9190612205565b95945050505050565b6060825f61048082610d0e565b90505f61048b610cf2565b90505f816001600160a01b031663ca4f28038a6040518263ffffffff1660e01b81526004016104ba9190611eaf565b5f60405180830381865afa1580156104d4573d5f5f3e3d5ffd5b505050506040513d5f823e601f3d908101601f191682016040526104fb9190810190612236565b516001600160401b0381111561051357610513611aa4565b60405190808252806020026020018201604052801561053c578160200160208202803683370190505b5090505f61054d8a838b5f8b610d3c565b90508080602001905181019061056391906122c5565b5096506105769350849250610e5c915050565b5050949350505050565b5f825f61058c82610d0e565b90505f5f61059c8a896001610e6e565b915091505f6105af8b848c60018b610d3c565b90505f818060200190518101906105c691906122c5565b509150508083815181106105dc576105dc612329565b60200260200101519650505050506105f381610e5c565b505095945050505050565b60408051600180825281830190925260609160208083019080368337019050509050637a1dbb1f60e01b815f8151811061063a5761063a612329565b6001600160e01b03199092166020928302919091019091015290565b6060335f61066382610d0e565b90505f610675338a898b5f8b8b610f5f565b90508080602001905181019061068b91906122c5565b5094506105f39150829050610e5c565b5f825f6106a782610d0e565b90505f6106b5898989610e6e565b5090505f6106ce8a836001600160801b0360028a610d3c565b9050808060200190518101906106e491906122c5565b9050508095505050506105f381610e5c565b60408051600c8082526101a082019092526060916020820161018080368337019050509050635168275060e01b815f8151811061073557610735612329565b6001600160e01b03199092166020928302919091019091015280516301ee211160e31b908290600190811061076c5761076c612329565b6001600160e01b0319909216602092830291909101909101528051633b2c860b60e21b90829060029081106107a3576107a3612329565b6001600160e01b03199092166020928302919091019091015280516323b3924160e01b90829060039081106107da576107da612329565b6001600160e01b031990921660209283029190910190910152805163e7326def60e01b908290600490811061081157610811612329565b6001600160e01b0319909216602092830291909101909101528051630a7a177360e31b908290600590811061084857610848612329565b6001600160e01b03199092166020928302919091019091015280516320afcac960e21b908290600690811061087f5761087f612329565b6001600160e01b031990921660209283029190910190910152805163619863df60e11b90829060079081106108b6576108b6612329565b6001600160e01b03199092166020928302919091019091015280516308c0479360e01b90829060089081106108ed576108ed612329565b6001600160e01b031990921660209283029190910190910152805163581bf69b60e11b908290600990811061092457610924612329565b6001600160e01b0319909216602092830291909101909101528051633d81e3dd60e11b908290600a90811061095b5761095b612329565b6001600160e01b031990921660209283029190910190910152805163b24bd57160e01b908290600b90811061063a5761063a612329565b60408051808201909152601a815279149bdd5d195c94995b5bdd99531a5c5d5a591a5d1e519858d95d60321b602082015290565b5f610386611084565b60606109d961108d565b6109e48484846110d3565b949350505050565b5f6060806109f8611207565b610a02600161123b565b610a0a61108d565b610a1384611250565b925092509250610a225f61123b565b9193909250565b5f606080335f610a3882610d0e565b90505f610a4b338c8b8d60038d8d610f5f565b905080806020019051810190610a6191906122c5565b95509550955050610a7181610e5c565b5050955095509592505050565b6060610a88611207565b610a92600161123b565b610a9a61108d565b610aa6858585856114e6565b90506109e45f61123b565b60605f610abc610cf2565b9050806001600160a01b031663edfa3568306001600160a01b0316635f9815ff873088604051602401610af19392919061233d565b60408051808303601f1901815291815260208201805160e094851b6001600160e01b03909116179052519184901b6001600160e01b0319168252610b39925090600401611e9d565b5f604051808303815f875af1158015610b54573d5f5f3e3d5ffd5b505050506040513d5f823e601f3d908101601f19168201604052610b7b9190810190612179565b8060200190518101906109e49190612205565b5f606080610b9a61108d565b610ba384611694565b9250925092509193909250565b5f606080845f610bbf82610d0e565b90505f610a4b8b8a8c60038b610d3c565b5f335f610bdc82610d0e565b90505f610bea8a8989610e6e565b5090505f610bfe338c848d60028c8c610f5f565b905080806020019051810190610c1491906122c5565b905050809550505050610c2681610e5c565b50509695505050505050565b5f335f610c3e82610d0e565b90505f5f610c4d8b8a8a610e6e565b915091505f610c62338d858e60018d8d610f5f565b90505f81806020019051810190610c7991906122c5565b50915050808381518110610c8f57610c8f612329565b6020026020010151965050505050610c2681610e5c565b6060806060610cb3610992565b9250610cbd6105fe565b9150610cc76106f6565b9050909192565b7f0e5e42310baee45bff0964e63930bd3ef41981ccc7a033d2803019558bd2313e90565b5f610386610cfe610cce565b600201546001600160a01b031690565b5f5f610d18611812565b90506001600160a01b038116610d3657610d3183611824565b600191505b50919050565b6060610d46610cf2565b6001600160a01b031663edfa3568306001600160a01b031663b24bd5716040518060e00160405280306001600160a01b031681526020018b6001600160a01b031681526020018a8152602001898152602001886003811115610daa57610daa612361565b81525f6020820152604090810188905251610dc89190602401612395565b60408051808303601f1901815291815260208201805160e094851b6001600160e01b03909116179052519184901b6001600160e01b0319168252610e10925090600401611e9d565b5f604051808303815f875af1158015610e2b573d5f5f3e3d5ffd5b505050506040513d5f823e601f3d908101601f19168201604052610e529190810190612179565b9695505050505050565b8015610e6b57610e6b5f611824565b50565b60605f5f610e7a610cf2565b60405163c9c1661b60e01b81526001600160a01b03888116600483015287811660248301529192505f9183169063c9c1661b906044016040805180830381865afa158015610eca573d5f5f3e3d5ffd5b505050506040513d601f19601f82011682018060405250810190610eee9190612419565b93509050806001600160401b03811115610f0a57610f0a611aa4565b604051908082528060200260200182016040528015610f33578160200160208202803683370190505b50935084848481518110610f4957610f49612329565b6020026020010181815250505050935093915050565b6060610f69610cf2565b6001600160a01b03166348c89491306001600160a01b0316637b03c7ba6040518060e001604052808d6001600160a01b031681526020018c6001600160a01b031681526020018b81526020018a8152602001896003811115610fcd57610fcd612361565b8152602001881515815260200187815250604051602401610fee9190612395565b60408051808303601f1901815291815260208201805160e094851b6001600160e01b03909116179052519184901b6001600160e01b0319168252611036925090600401611e9d565b5f604051808303815f875af1158015611051573d5f5f3e3d5ffd5b505050506040513d5f823e601f3d908101601f191682016040526110789190810190612179565b98975050505050505050565b5f610386611812565b611095610cf2565b6001600160a01b0316336001600160a01b0316146110d1573360405163089676d560e01b81526004016110c89190611eaf565b60405180910390fd5b565b60605f6110de610cf2565b90505f816001600160a01b031663ca4f2803876040518263ffffffff1660e01b815260040161110d9190611eaf565b5f60405180830381865afa158015611127573d5f5f3e3d5ffd5b505050506040513d5f823e601f3d908101601f1916820160405261114e9190810190612236565b516001600160401b0381111561116657611166611aa4565b60405190808252806020026020018201604052801561118f578160200160208202803683370190505b50604051630281f58160e61b81529091506001600160a01b0383169063a07d6040906111c59089908990899087906004016120fa565b5f604051808303815f875af11580156111e0573d5f5f3e3d5ffd5b505050506040513d5f823e601f3d908101601f19168201604052610e529190810190612205565b5f5160206125b55f395f51905f52805c90811561123757604051633ee5aeb560e01b815260040160405180910390fd5b5050565b5f5160206125b55f395f51905f5281815d5050565b5f6060805f61125d610cf2565b9050806001600160a01b031663214578976040518060c0016040528088602001602081019061128c919061243b565b6001600160a01b031681526020908101906112a9908a018a61243b565b6001600160a01b03168152602001886060013581526020018880604001906112d19190612456565b808060200260200160405190810160405280939291908181526020018383602002808284375f9201919091525050509082525060200161131760a08a0160808b016124a2565b600381111561132857611328612361565b815260200161133a60c08a018a6124c0565b8080601f0160208091040260200160405190810160405280939291908181526020018383808284375f9201919091525050509152506040516001600160e01b031960e084901b1681526113909190600401612502565b5f604051808303815f875af11580156113ab573d5f5f3e3d5ffd5b505050506040513d5f823e601f3d908101601f191682016040526113d291908101906122c5565b919550935091505f6001600160a01b03821663ca4f28036113f96040890160208a0161243b565b6040518263ffffffff1660e01b81526004016114159190611eaf565b5f60405180830381865afa15801561142f573d5f5f3e3d5ffd5b505050506040513d5f823e601f3d908101601f191682016040526114569190810190612236565b90505f5b81518110156114c7576114bf611473602089018961243b565b83838151811061148557611485612329565b602002602001015187848151811061149f5761149f612329565b60200260200101518a60a00160208101906114ba919061257b565b611839565b60010161145a565b506114dd6114d8602088018861243b565b6119aa565b50509193909250565b60605f6114f1610cf2565b604051630281f58160e61b81529091506001600160a01b0382169063a07d6040906115269089908990899089906004016120fa565b5f604051808303815f875af1158015611541573d5f5f3e3d5ffd5b505050506040513d5f823e601f3d908101601f191682016040526115689190810190612205565b91505f816001600160a01b031663ca4f2803886040518263ffffffff1660e01b81526004016115979190611eaf565b5f60405180830381865afa1580156115b1573d5f5f3e3d5ffd5b505050506040513d5f823e601f3d908101601f191682016040526115d89190810190612236565b90505f5b815181101561168a575f8482815181106115f8576115f8612329565b602002602001015190505f81111561168157836001600160a01b031663ae63932984848151811061162b5761162b612329565b60200260200101518a846040518463ffffffff1660e01b81526004016116539392919061233d565b5f604051808303815f87803b15801561166a575f5ffd5b505af115801561167c573d5f5f3e3d5ffd5b505050505b506001016115dc565b50610576866119aa565b5f6060806116a0610cf2565b6001600160a01b031663214578976040518060c001604052808760200160208101906116cc919061243b565b6001600160a01b031681526020908101906116e99089018961243b565b6001600160a01b03168152602001876060013581526020018780604001906117119190612456565b808060200260200160405190810160405280939291908181526020018383602002808284375f9201919091525050509082525060200161175760a0890160808a016124a2565b600381111561176857611768612361565b815260200161177a60c08901896124c0565b8080601f0160208091040260200160405190810160405280939291908181526020018383808284375f9201919091525050509152506040516001600160e01b031960e084901b1681526117d09190600401612502565b5f604051808303815f875af11580156117eb573d5f5f3e3d5ffd5b505050506040513d5f823e601f3d908101601f19168201604052610ba391908101906122c5565b5f5160206125955f395f51905f525c90565b5f5160206125955f395f51905f5281815d5050565b81156119a4575f61184861036d565b90505f611853610cf2565b90508280156118735750816001600160a01b0316856001600160a01b0316145b156119435760405163ae63932960e01b81526001600160a01b0382169063ae639329906118a89088903090899060040161233d565b5f604051808303815f87803b1580156118bf575f5ffd5b505af11580156118d1573d5f5f3e3d5ffd5b5050604051632e1a7d4d60e01b8152600481018790526001600160a01b0385169250632e1a7d4d91506024015f604051808303815f87803b158015611914575f5ffd5b505af1158015611926573d5f5f3e3d5ffd5b5061193e925050506001600160a01b038716856119f1565b6119a1565b60405163ae63932960e01b81526001600160a01b0382169063ae639329906119739088908a90899060040161233d565b5f604051808303815f87803b15801561198a575f5ffd5b505af115801561199c573d5f5f3e3d5ffd5b505050505b50505b50505050565b475f8190036119b7575050565b7f19c2f6f76e6091adc2e8f63fc8cd9da9e3a8e9d5d1c4ae5d8f8e0f6c7b8a9d005c156119e2575050565b6112376001600160a01b038316825b80471015611a1b5760405163cf47918160e01b8152476004820152602481018290526044016110c8565b5f826001600160a01b0316826040515f6040518083038185875af1925050503d805f8114611a64576040519150601f19603f3d011682016040523d82523d5f602084013e611a69565b606091505b5050905080611a8b5760405163d6bda27560e01b815260040160405180910390fd5b505050565b6001600160a01b0381168114610e6b575f5ffd5b634e487b7160e01b5f52604160045260245ffd5b604051601f8201601f191681016001600160401b0381118282101715611ae057611ae0611aa4565b604052919050565b5f6001600160401b03821115611b0057611b00611aa4565b5060051b60200190565b5f82601f830112611b19575f5ffd5b8135611b2c611b2782611ae8565b611ab8565b8082825260208201915060208360051b860101925085831115611b4d575f5ffd5b602085015b83811015611b6a578035835260209283019201611b52565b5095945050505050565b5f5f5f60608486031215611b86575f5ffd5b8335611b9181611a90565b92506020840135915060408401356001600160401b03811115611bb2575f5ffd5b611bbe86828701611b0a565b9150509250925092565b5f8151808452602084019350602083015f5b82811015611bf8578151865260209586019590910190600101611bda565b5093949350505050565b602081525f611c146020830184611bc8565b9392505050565b5f6001600160401b03821115611c3357611c33611aa4565b50601f01601f191660200190565b5f82601f830112611c50575f5ffd5b8135611c5e611b2782611c1b565b818152846020838601011115611c72575f5ffd5b816020850160208301375f918101602001919091529392505050565b5f5f5f5f60808587031215611ca1575f5ffd5b8435611cac81611a90565b9350602085013592506040850135611cc381611a90565b915060608501356001600160401b03811115611cdd575f5ffd5b611ce987828801611c41565b91505092959194509250565b5f5f5f5f5f60a08688031215611d09575f5ffd5b8535611d1481611a90565b9450602086013593506040860135611d2b81611a90565b92506060860135611d3b81611a90565b915060808601356001600160401b03811115611d55575f5ffd5b611d6188828901611c41565b9150509295509295909350565b5f8151808452602084019350602083015f5b82811015611bf85781516001600160e01b031916865260209586019590910190600101611d80565b602081525f611c146020830184611d6e565b80358015158114611dc9575f5ffd5b919050565b5f5f5f5f5f60a08688031215611de2575f5ffd5b8535611ded81611a90565b94506020860135935060408601356001600160401b03811115611e0e575f5ffd5b611e1a88828901611b0a565b935050611d3b60608701611dba565b5f5f5f5f5f60a08688031215611e3d575f5ffd5b8535611e4881611a90565b94506020860135611e5881611a90565b9350604086013592506060860135611d3b81611a90565b5f81518084528060208401602086015e5f602082860101526020601f19601f83011685010191505092915050565b602081525f611c146020830184611e6f565b6001600160a01b0391909116815260200190565b5f5f5f60608486031215611ed5575f5ffd5b8335611ee081611a90565b92506020840135611ef081611a90565b929592945050506040919091013590565b5f60208284031215611f11575f5ffd5b81356001600160401b03811115611f26575f5ffd5b820160e08185031215611c14575f5ffd5b838152606060208201525f611f4f6060830185611bc8565b8281036040840152610e528185611e6f565b5f5f5f5f60808587031215611f74575f5ffd5b8435611f7f81611a90565b93506020850135611f8f81611a90565b92506040850135915060608501356001600160401b03811115611fb0575f5ffd5b611ce987828801611b0a565b5f5f60408385031215611fcd575f5ffd5b8235611fd881611a90565b946020939093013593505050565b5f5f5f5f5f60a08688031215611ffa575f5ffd5b853561200581611a90565b94506020860135935060408601356001600160401b03811115612026575f5ffd5b61203288828901611b0a565b9350506060860135611d3b81611a90565b5f5f5f5f5f5f60c08789031215612058575f5ffd5b863561206381611a90565b955060208701359450604087013561207a81611a90565b93506060870135925061208f60808801611dba565b915060a08701356001600160401b038111156120a9575f5ffd5b6120b589828a01611c41565b9150509295509295509295565b606081525f6120d46060830186611e6f565b82810360208401526120e68186611d6e565b90508281036040840152610e528185611d6e565b6001600160a01b03858116825284166020820152604081018390526080606082018190525f90610e5290830184611bc8565b5f82601f83011261213b575f5ffd5b8151612149611b2782611c1b565b81815284602083860101111561215d575f5ffd5b8160208501602083015e5f918101602001919091529392505050565b5f60208284031215612189575f5ffd5b81516001600160401b0381111561219e575f5ffd5b6109e48482850161212c565b5f82601f8301126121b9575f5ffd5b81516121c7611b2782611ae8565b8082825260208201915060208360051b8601019250858311156121e8575f5ffd5b602085015b83811015611b6a5780518352602092830192016121ed565b5f60208284031215612215575f5ffd5b81516001600160401b0381111561222a575f5ffd5b6109e4848285016121aa565b5f60208284031215612246575f5ffd5b81516001600160401b0381111561225b575f5ffd5b8201601f8101841361226b575f5ffd5b8051612279611b2782611ae8565b8082825260208201915060208360051b85010192508683111561229a575f5ffd5b6020840193505b82841015610e525783516122b481611a90565b8252602093840193909101906122a1565b5f5f5f606084860312156122d7575f5ffd5b835160208501519093506001600160401b038111156122f4575f5ffd5b612300868287016121aa565b604086015190935090506001600160401b0381111561231d575f5ffd5b611bbe8682870161212c565b634e487b7160e01b5f52603260045260245ffd5b6001600160a01b039384168152919092166020820152604081019190915260600190565b634e487b7160e01b5f52602160045260245ffd5b6004811061239157634e487b7160e01b5f52602160045260245ffd5b9052565b602080825282516001600160a01b0390811683830152908301511660408083019190915282015160e060608301525f906123d3610100840182611bc8565b90506060840151608084015260808401516123f160a0850182612375565b5060a0840151151560c084015260c0840151601f198483030160e085015261046a8282611e6f565b5f5f6040838503121561242a575f5ffd5b505080516020909101519092909150565b5f6020828403121561244b575f5ffd5b8135611c1481611a90565b5f5f8335601e1984360301811261246b575f5ffd5b8301803591506001600160401b03821115612484575f5ffd5b6020019150600581901b360382131561249b575f5ffd5b9250929050565b5f602082840312156124b2575f5ffd5b813560048110611c14575f5ffd5b5f5f8335601e198436030181126124d5575f5ffd5b8301803591506001600160401b038211156124ee575f5ffd5b60200191503681900382131561249b575f5ffd5b6020815260018060a01b03825116602082015260018060a01b036020830151166040820152604082015160608201525f606083015160c0608084015261254b60e0840182611bc8565b9050608084015161255f60a0850182612375565b5060a0840151838203601f190160c085015261046a8282611e6f565b5f6020828403121561258b575f5ffd5b611c1482611dba56fe6c17b98ed641627be1f588a5e81d97edc6ddd1b560dfba5b46c2aa2c8ddd0d0085e416c3b4a964332bebb95fdf9a73cb8ded00cbd75143ad03246e01399c4247a2646970667358221220cc15b38c3b9ea621cf52d937b976d8c6273dcf7542a9e4626ee2fe37a6ac64ab64736f6c634300081e0033","linkReferences":{}},"methodIdentifiers":{"facetFuncs()":"574a4cff","facetInterfaces()":"2ea80826","facetMetadata()":"f10d7a75","facetName()":"5b6f4d01","getSender()":"5e01eb5a","queryRemoveLiquidityCustom(address,uint256,uint256[],address,bytes)":"c330c7be","queryRemoveLiquidityHook((address,address,uint256[],uint256,uint8,bool,bytes))":"b24bd571","queryRemoveLiquidityProportional(address,uint256,address,bytes)":"0f710888","queryRemoveLiquidityRecovery(address,uint256)":"b037ed36","queryRemoveLiquidityRecoveryHook(address,address,uint256)":"5f9815ff","queryRemoveLiquiditySingleTokenExactIn(address,uint256,address,address,bytes)":"23b39241","queryRemoveLiquiditySingleTokenExactOut(address,address,uint256,address,bytes)":"53d0bb98","removeLiquidityCustom(address,uint256,uint256[],bool,bytes)":"82bf2b24","removeLiquidityHook((address,address,uint256[],uint256,uint8,bool,bytes))":"7b03c7ba","removeLiquidityProportional(address,uint256,uint256[],bool,bytes)":"51682750","removeLiquidityRecovery(address,uint256,uint256[])":"08c04793","removeLiquidityRecoveryHook(address,address,uint256,uint256[])":"82cd54fb","removeLiquiditySingleTokenExactIn(address,uint256,address,uint256,bool,bytes)":"ecb2182c","removeLiquiditySingleTokenExactOut(address,uint256,address,uint256,bool,bytes)":"e7326def"},"id":934}