{"abi":[{"type":"constructor","inputs":[{"name":"_poolManager","type":"address","internalType":"contract IPoolManager"}],"stateMutability":"nonpayable"},{"type":"function","name":"_quoteExactInput","inputs":[{"name":"params","type":"tuple","internalType":"struct IV4Quoter.QuoteExactParams","components":[{"name":"exactCurrency","type":"address","internalType":"Currency"},{"name":"path","type":"tuple[]","internalType":"struct PathKey[]","components":[{"name":"intermediateCurrency","type":"address","internalType":"Currency"},{"name":"fee","type":"uint24","internalType":"uint24"},{"name":"tickSpacing","type":"int24","internalType":"int24"},{"name":"hooks","type":"address","internalType":"contract IHooks"},{"name":"hookData","type":"bytes","internalType":"bytes"}]},{"name":"exactAmount","type":"uint128","internalType":"uint128"}]}],"outputs":[{"name":"","type":"bytes","internalType":"bytes"}],"stateMutability":"nonpayable"},{"type":"function","name":"_quoteExactInputSingle","inputs":[{"name":"params","type":"tuple","internalType":"struct IV4Quoter.QuoteExactSingleParams","components":[{"name":"poolKey","type":"tuple","internalType":"struct PoolKey","components":[{"name":"currency0","type":"address","internalType":"Currency"},{"name":"currency1","type":"address","internalType":"Currency"},{"name":"fee","type":"uint24","internalType":"uint24"},{"name":"tickSpacing","type":"int24","internalType":"int24"},{"name":"hooks","type":"address","internalType":"contract IHooks"}]},{"name":"zeroForOne","type":"bool","internalType":"bool"},{"name":"exactAmount","type":"uint128","internalType":"uint128"},{"name":"hookData","type":"bytes","internalType":"bytes"}]}],"outputs":[{"name":"","type":"bytes","internalType":"bytes"}],"stateMutability":"nonpayable"},{"type":"function","name":"_quoteExactOutput","inputs":[{"name":"params","type":"tuple","internalType":"struct IV4Quoter.QuoteExactParams","components":[{"name":"exactCurrency","type":"address","internalType":"Currency"},{"name":"path","type":"tuple[]","internalType":"struct PathKey[]","components":[{"name":"intermediateCurrency","type":"address","internalType":"Currency"},{"name":"fee","type":"uint24","internalType":"uint24"},{"name":"tickSpacing","type":"int24","internalType":"int24"},{"name":"hooks","type":"address","internalType":"contract IHooks"},{"name":"hookData","type":"bytes","internalType":"bytes"}]},{"name":"exactAmount","type":"uint128","internalType":"uint128"}]}],"outputs":[{"name":"","type":"bytes","internalType":"bytes"}],"stateMutability":"nonpayable"},{"type":"function","name":"_quoteExactOutputSingle","inputs":[{"name":"params","type":"tuple","internalType":"struct IV4Quoter.QuoteExactSingleParams","components":[{"name":"poolKey","type":"tuple","internalType":"struct PoolKey","components":[{"name":"currency0","type":"address","internalType":"Currency"},{"name":"currency1","type":"address","internalType":"Currency"},{"name":"fee","type":"uint24","internalType":"uint24"},{"name":"tickSpacing","type":"int24","internalType":"int24"},{"name":"hooks","type":"address","internalType":"contract IHooks"}]},{"name":"zeroForOne","type":"bool","internalType":"bool"},{"name":"exactAmount","type":"uint128","internalType":"uint128"},{"name":"hookData","type":"bytes","internalType":"bytes"}]}],"outputs":[{"name":"","type":"bytes","internalType":"bytes"}],"stateMutability":"nonpayable"},{"type":"function","name":"msgSender","inputs":[],"outputs":[{"name":"","type":"address","internalType":"address"}],"stateMutability":"view"},{"type":"function","name":"poolManager","inputs":[],"outputs":[{"name":"","type":"address","internalType":"contract IPoolManager"}],"stateMutability":"view"},{"type":"function","name":"quoteExactInput","inputs":[{"name":"params","type":"tuple","internalType":"struct IV4Quoter.QuoteExactParams","components":[{"name":"exactCurrency","type":"address","internalType":"Currency"},{"name":"path","type":"tuple[]","internalType":"struct PathKey[]","components":[{"name":"intermediateCurrency","type":"address","internalType":"Currency"},{"name":"fee","type":"uint24","internalType":"uint24"},{"name":"tickSpacing","type":"int24","internalType":"int24"},{"name":"hooks","type":"address","internalType":"contract IHooks"},{"name":"hookData","type":"bytes","internalType":"bytes"}]},{"name":"exactAmount","type":"uint128","internalType":"uint128"}]}],"outputs":[{"name":"amountOut","type":"uint256","internalType":"uint256"},{"name":"gasEstimate","type":"uint256","internalType":"uint256"}],"stateMutability":"nonpayable"},{"type":"function","name":"quoteExactInputSingle","inputs":[{"name":"params","type":"tuple","internalType":"struct IV4Quoter.QuoteExactSingleParams","components":[{"name":"poolKey","type":"tuple","internalType":"struct PoolKey","components":[{"name":"currency0","type":"address","internalType":"Currency"},{"name":"currency1","type":"address","internalType":"Currency"},{"name":"fee","type":"uint24","internalType":"uint24"},{"name":"tickSpacing","type":"int24","internalType":"int24"},{"name":"hooks","type":"address","internalType":"contract IHooks"}]},{"name":"zeroForOne","type":"bool","internalType":"bool"},{"name":"exactAmount","type":"uint128","internalType":"uint128"},{"name":"hookData","type":"bytes","internalType":"bytes"}]}],"outputs":[{"name":"amountOut","type":"uint256","internalType":"uint256"},{"name":"gasEstimate","type":"uint256","internalType":"uint256"}],"stateMutability":"nonpayable"},{"type":"function","name":"quoteExactOutput","inputs":[{"name":"params","type":"tuple","internalType":"struct IV4Quoter.QuoteExactParams","components":[{"name":"exactCurrency","type":"address","internalType":"Currency"},{"name":"path","type":"tuple[]","internalType":"struct PathKey[]","components":[{"name":"intermediateCurrency","type":"address","internalType":"Currency"},{"name":"fee","type":"uint24","internalType":"uint24"},{"name":"tickSpacing","type":"int24","internalType":"int24"},{"name":"hooks","type":"address","internalType":"contract IHooks"},{"name":"hookData","type":"bytes","internalType":"bytes"}]},{"name":"exactAmount","type":"uint128","internalType":"uint128"}]}],"outputs":[{"name":"amountIn","type":"uint256","internalType":"uint256"},{"name":"gasEstimate","type":"uint256","internalType":"uint256"}],"stateMutability":"nonpayable"},{"type":"function","name":"quoteExactOutputSingle","inputs":[{"name":"params","type":"tuple","internalType":"struct IV4Quoter.QuoteExactSingleParams","components":[{"name":"poolKey","type":"tuple","internalType":"struct PoolKey","components":[{"name":"currency0","type":"address","internalType":"Currency"},{"name":"currency1","type":"address","internalType":"Currency"},{"name":"fee","type":"uint24","internalType":"uint24"},{"name":"tickSpacing","type":"int24","internalType":"int24"},{"name":"hooks","type":"address","internalType":"contract IHooks"}]},{"name":"zeroForOne","type":"bool","internalType":"bool"},{"name":"exactAmount","type":"uint128","internalType":"uint128"},{"name":"hookData","type":"bytes","internalType":"bytes"}]}],"outputs":[{"name":"amountIn","type":"uint256","internalType":"uint256"},{"name":"gasEstimate","type":"uint256","internalType":"uint256"}],"stateMutability":"nonpayable"},{"type":"function","name":"unlockCallback","inputs":[{"name":"data","type":"bytes","internalType":"bytes"}],"outputs":[{"name":"","type":"bytes","internalType":"bytes"}],"stateMutability":"nonpayable"},{"type":"error","name":"NotEnoughLiquidity","inputs":[{"name":"poolId","type":"bytes32","internalType":"PoolId"}]},{"type":"error","name":"NotPoolManager","inputs":[]},{"type":"error","name":"NotSelf","inputs":[]},{"type":"error","name":"QuoteSwap","inputs":[{"name":"amount","type":"uint256","internalType":"uint256"}]},{"type":"error","name":"UnexpectedCallSuccess","inputs":[]},{"type":"error","name":"UnexpectedRevertBytes","inputs":[{"name":"revertData","type":"bytes","internalType":"bytes"}]}],"bytecode":{"object":"0x60a060405234801561000f575f5ffd5b5060405161165d38038061165d83398101604081905261002e9161003f565b6001600160a01b031660805261006c565b5f6020828403121561004f575f5ffd5b81516001600160a01b0381168114610065575f5ffd5b9392505050565b6080516115af6100ae5f395f8181610187015281816101cd0152818161031201528181610554015281816106d801528181610736015261088101526115af5ff3fe608060405234801561000f575f5ffd5b5060043610610097575f3560e01c8063147d2af91461009b57806358733073146100c8578063595323f5146100db5780636a36a38c146100fb57806391dd73461461010e578063aa2f150114610121578063aa9d21cb14610134578063ca253dc914610147578063d737d0c71461015a578063dc4c90d314610182578063eebe0c6a146101a9575b5f5ffd5b6100ae6100a9366004610cf3565b6101bc565b604080519283526020830191909152015b60405180910390f35b6100ae6100d6366004610f16565b610301565b6100ee6100e9366004610fb5565b61035f565b6040516100bf9190611021565b6100ee610109366004611033565b61042c565b6100ee61011c366004611069565b610547565b6100ee61012f366004611033565b6105a5565b6100ae610142366004610f16565b6106c7565b6100ae610155366004610cf3565b610725565b5f51602061155a5f395f51905f525c5b6040516001600160a01b0390911681526020016100bf565b61016a7f000000000000000000000000000000000000000000000000000000000000000081565b6100ee6101b7366004610fb5565b610783565b5f5f6101c73361081c565b5f5a90507f00000000000000000000000000000000000000000000000000000000000000006001600160a01b03166348c89491306001600160a01b031663aa2f15018760405160240161021a91906110d5565b60408051808303601f1901815291815260208201805160e094851b6001600160e01b03909116179052519184901b6001600160e01b0319168252610262925090600401611021565b5f604051808303815f875af192505050801561029f57506040513d5f823e601f3d908101601f1916820160405261029c91908101906111b1565b60015b6102f0573d8080156102cc576040519150601f19603f3d011682016040523d82523d5f602084013e6102d1565b606091505b505a6102dd9083611239565b92506102e88161082f565b9350506102f2565b505b506102fc5f61081c565b915091565b5f5f61030c3361081c565b5f5a90507f00000000000000000000000000000000000000000000000000000000000000006001600160a01b03166348c89491306001600160a01b031663595323f58760405160240161021a919061128f565b6060333014610381576040516314e1dbf760e11b815260040160405180910390fd5b5f6103cf610394368590038501856112e4565b6103a460c0860160a087016112fe565b6103b460e0870160c08801611317565b6001600160801b03166103ca60e0880188611330565b61087e565b90505f6103e260c0850160a086016112fe565b6103fe576103f082600f0b90565b6103f990611379565b610411565b6104088260801d90565b61041190611379565b6001600160801b03169050610425816109cb565b5050919050565b606033301461044e576040516314e1dbf760e11b815260040160405180910390fd5b5f61045c602084018461139a565b91505f9050806104726060860160408701611317565b90505f61048260208701876113df565b9050365f5b8581101561052a5761049c602089018961139a565b828181106104ac576104ac6113fa565b90506020028101906104be919061140e565b91505f806104cc84866109e7565b915091506104ef828288600f0b6104e29061142c565b6103ca6080890189611330565b965080610505576105008760801d90565b61050f565b61050f87600f0b90565b955061051e60208501856113df565b94505050600101610487565b5061053d836001600160801b03166109cb565b5050505050919050565b6060336001600160a01b037f000000000000000000000000000000000000000000000000000000000000000016146105925760405163570c108560e11b815260040160405180910390fd5b61059c8383610add565b90505b92915050565b60603330146105c7576040516314e1dbf760e11b815260040160405180910390fd5b5f6105d5602084018461139a565b91505f9050806105eb6060860160408701611317565b90505f6105fb60208701876113df565b905036845b801561052a57610613602089018961139a565b61061e600184611239565b81811061062d5761062d6113fa565b905060200281019061063f919061140e565b91505f8061064d84866109e7565b909250905061066f8282156001600160801b0389166103ca6080890189611330565b96508061068e576106808760801d90565b61068990611379565b6106a1565b61069887600f0b90565b6106a190611379565b95506106b060208501856113df565b9450505080806106bf90611446565b915050610600565b5f5f6106d23361081c565b5f5a90507f00000000000000000000000000000000000000000000000000000000000000006001600160a01b03166348c89491306001600160a01b031663eebe0c6a8760405160240161021a919061128f565b5f5f6107303361081c565b5f5a90507f00000000000000000000000000000000000000000000000000000000000000006001600160a01b03166348c89491306001600160a01b0316636a36a38c8760405160240161021a91906110d5565b60603330146107a5576040516314e1dbf760e11b815260040160405180910390fd5b5f6107f16107b8368590038501856112e4565b6107c860c0860160a087016112fe565b6107d860e0870160c08801611317565b600f0b6107e49061142c565b6103ca60e0880188611330565b90505f61080460c0850160a086016112fe565b610812576103f98260801d90565b61041182600f0b90565b805f51602061155a5f395f51905f525d50565b5f633b2f660160e21b610843836020015190565b6001600160e01b0319161461087657816040516306190b2b60e41b815260040161086d9190611021565b60405180910390fd5b506024015190565b5f7f00000000000000000000000000000000000000000000000000000000000000006001600160a01b031663f3cd914c8760405180606001604052808915158152602001888152602001896108f1576108ec600173fffd8963efd1fc6a506488495d951d5263988d2661145b565b610901565b6109016401000276a3600161147a565b6001600160a01b031681525086866040518563ffffffff1660e01b815260040161092e9493929190611499565b6020604051808303815f875af115801561094a573d5f5f3e3d5ffd5b505050506040513d601f19601f8201168201806040525081019061096e9190611501565b90505f8515158186121461098b5761098682600f0b90565b610995565b6109958260801d90565b90508481600f0b146109c15760a08720604051631e97b5cd60e21b815260040161086d91815260200190565b5095945050505050565b604051633b2f660160e21b81526004810182905260240161086d565b6040805160a0810182525f808252602082018190529181018290526060810182905260808101919091525f80610a2060208601866113df565b90505f806001600160a01b0380841690871610610a3e578286610a41565b85835b90925090506001600160a01b038087169083161493506040518060a00160405280836001600160a01b03168152602001826001600160a01b03168152602001886020016020810190610a939190611518565b62ffffff168152602001610aad60608a0160408b01611531565b60020b8152602001610ac560808a0160608b016113df565b6001600160a01b031681525094505050509250929050565b60605f5f306001600160a01b03168585604051610afb92919061154a565b5f604051808303815f865af19150503d805f8114610b34576040519150601f19603f3d011682016040523d82523d5f602084013e610b39565b606091505b50915091508115610b5d5760405163703a952d60e11b815260040160405180910390fd5b610b6681610b6e565b505092915050565b805160208201fd5b634e487b7160e01b5f52604160045260245ffd5b604051606081016001600160401b0381118282101715610bac57610bac610b76565b60405290565b60405160a081016001600160401b0381118282101715610bac57610bac610b76565b604051608081016001600160401b0381118282101715610bac57610bac610b76565b604051601f8201601f191681016001600160401b0381118282101715610c1e57610c1e610b76565b604052919050565b6001600160a01b0381168114610c3a575f5ffd5b50565b803562ffffff81168114610c4f575f5ffd5b919050565b8035600281900b8114610c4f575f5ffd5b5f6001600160401b03821115610c7d57610c7d610b76565b50601f01601f191660200190565b5f82601f830112610c9a575f5ffd5b8135610cad610ca882610c65565b610bf6565b818152846020838601011115610cc1575f5ffd5b816020850160208301375f918101602001919091529392505050565b80356001600160801b0381168114610c4f575f5ffd5b5f60208284031215610d03575f5ffd5b81356001600160401b03811115610d18575f5ffd5b820160608185031215610d29575f5ffd5b610d31610b8a565b8135610d3c81610c26565b815260208201356001600160401b03811115610d56575f5ffd5b8201601f81018613610d66575f5ffd5b80356001600160401b03811115610d7f57610d7f610b76565b8060051b610d8f60208201610bf6565b91825260208184018101929081019089841115610daa575f5ffd5b6020850192505b83831015610e6f5782356001600160401b03811115610dce575f5ffd5b850160a0818c03601f19011215610de3575f5ffd5b610deb610bb2565b6020820135610df981610c26565b8152610e0760408301610c3d565b6020820152610e1860608301610c54565b60408201526080820135610e2b81610c26565b606082015260a08201356001600160401b03811115610e48575f5ffd5b610e578d602083860101610c8b565b60808301525083525060209283019290910190610db1565b602086015250610e859250505060408301610cdd565b6040820152949350505050565b5f60a08284031215610ea2575f5ffd5b610eaa610bb2565b90508135610eb781610c26565b81526020820135610ec781610c26565b6020820152610ed860408301610c3d565b6040820152610ee960608301610c54565b60608201526080820135610efc81610c26565b608082015292915050565b80358015158114610c4f575f5ffd5b5f60208284031215610f26575f5ffd5b81356001600160401b03811115610f3b575f5ffd5b82016101008185031215610f4d575f5ffd5b610f55610bd4565b610f5f8583610e92565b8152610f6d60a08301610f07565b6020820152610f7e60c08301610cdd565b604082015260e08201356001600160401b03811115610f9b575f5ffd5b610fa786828501610c8b565b606083015250949350505050565b5f60208284031215610fc5575f5ffd5b81356001600160401b03811115610fda575f5ffd5b82016101008185031215610fec575f5ffd5b9392505050565b5f81518084528060208401602086015e5f602082860101526020601f19601f83011685010191505092915050565b602081525f61059c6020830184610ff3565b5f60208284031215611043575f5ffd5b81356001600160401b03811115611058575f5ffd5b820160608185031215610fec575f5ffd5b5f5f6020838503121561107a575f5ffd5b82356001600160401b0381111561108f575f5ffd5b8301601f8101851361109f575f5ffd5b80356001600160401b038111156110b4575f5ffd5b8560208284010111156110c5575f5ffd5b6020919091019590945092505050565b602080825282516001600160a01b03168282015282810151606060408401528051608084018190525f9260a0600583901b86018101939091019190850190845b8181101561119157868503609f19018352835180516001600160a01b03908116875260208083015162ffffff169088015260408083015160020b908801526060808301519091169087015260809081015160a09187018290529061117b90870182610ff3565b9550506020938401939290920191600101611115565b5050505060408401516001600160801b0381166060850152509392505050565b5f602082840312156111c1575f5ffd5b81516001600160401b038111156111d6575f5ffd5b8201601f810184136111e6575f5ffd5b80516111f4610ca882610c65565b818152856020838501011115611208575f5ffd5b8160208401602083015e5f91810160200191909152949350505050565b634e487b7160e01b5f52601160045260245ffd5b8181038181111561059f5761059f611225565b80516001600160a01b03908116835260208083015182169084015260408083015162ffffff169084015260608083015160020b9084015260809182015116910152565b602081526112a160208201835161124c565b6020820151151560c082015260408201516001600160801b031660e08201526060820151610100808301525f906112dc610120840182610ff3565b949350505050565b5f60a082840312156112f4575f5ffd5b61059c8383610e92565b5f6020828403121561130e575f5ffd5b61059c82610f07565b5f60208284031215611327575f5ffd5b61059c82610cdd565b5f5f8335601e19843603018112611345575f5ffd5b8301803591506001600160401b0382111561135e575f5ffd5b602001915036819003821315611372575f5ffd5b9250929050565b5f600f82900b6001607f1b810161139257611392611225565b5f0392915050565b5f5f8335601e198436030181126113af575f5ffd5b8301803591506001600160401b038211156113c8575f5ffd5b6020019150600581901b3603821315611372575f5ffd5b5f602082840312156113ef575f5ffd5b8135610fec81610c26565b634e487b7160e01b5f52603260045260245ffd5b5f8235609e19833603018112611422575f5ffd5b9190910192915050565b5f600160ff1b820161144057611440611225565b505f0390565b5f8161145457611454611225565b505f190190565b6001600160a01b03828116828216039081111561059f5761059f611225565b6001600160a01b03818116838216019081111561059f5761059f611225565b6114a3818661124c565b8351151560a0820152602084015160c082015260408401516001600160a01b031660e08201526101206101008201819052810182905281836101408301375f81830161014090810191909152601f909201601f191601019392505050565b5f60208284031215611511575f5ffd5b5051919050565b5f60208284031215611528575f5ffd5b61059c82610c3d565b5f60208284031215611541575f5ffd5b61059c82610c54565b818382375f910190815291905056fe0aedd6bde10e3aa2adec092b02a3e3e805795516cda41f27aa145b8f300af87aa2646970667358221220d6d398ffb697b2215e81fa73742c8387e5389d46c93580d1111601540754cdd364736f6c634300081e0033","linkReferences":{}},"methodIdentifiers":{"_quoteExactInput((address,(address,uint24,int24,address,bytes)[],uint128))":"6a36a38c","_quoteExactInputSingle(((address,address,uint24,int24,address),bool,uint128,bytes))":"eebe0c6a","_quoteExactOutput((address,(address,uint24,int24,address,bytes)[],uint128))":"aa2f1501","_quoteExactOutputSingle(((address,address,uint24,int24,address),bool,uint128,bytes))":"595323f5","msgSender()":"d737d0c7","poolManager()":"dc4c90d3","quoteExactInput((address,(address,uint24,int24,address,bytes)[],uint128))":"ca253dc9","quoteExactInputSingle(((address,address,uint24,int24,address),bool,uint128,bytes))":"aa9d21cb","quoteExactOutput((address,(address,uint24,int24,address,bytes)[],uint128))":"147d2af9","quoteExactOutputSingle(((address,address,uint24,int24,address),bool,uint128,bytes))":"58733073","unlockCallback(bytes)":"91dd7346"},"id":1182}