{"abi":[{"type":"constructor","inputs":[{"name":"vault","type":"address","internalType":"contract IVault"},{"name":"vaultAdmin","type":"address","internalType":"contract IVaultAdmin"}],"stateMutability":"nonpayable"},{"type":"fallback","stateMutability":"payable"},{"type":"receive","stateMutability":"payable"},{"type":"function","name":"allowance","inputs":[{"name":"token","type":"address","internalType":"address"},{"name":"owner","type":"address","internalType":"address"},{"name":"spender","type":"address","internalType":"address"}],"outputs":[{"name":"","type":"uint256","internalType":"uint256"}],"stateMutability":"view"},{"type":"function","name":"approve","inputs":[{"name":"owner","type":"address","internalType":"address"},{"name":"spender","type":"address","internalType":"address"},{"name":"amount","type":"uint256","internalType":"uint256"}],"outputs":[{"name":"","type":"bool","internalType":"bool"}],"stateMutability":"nonpayable"},{"type":"function","name":"balanceOf","inputs":[{"name":"token","type":"address","internalType":"address"},{"name":"account","type":"address","internalType":"address"}],"outputs":[{"name":"","type":"uint256","internalType":"uint256"}],"stateMutability":"view"},{"type":"function","name":"computeDynamicSwapFeePercentage","inputs":[{"name":"pool","type":"address","internalType":"address"},{"name":"swapParams","type":"tuple","internalType":"struct PoolSwapParams","components":[{"name":"kind","type":"uint8","internalType":"enum SwapKind"},{"name":"amountGivenScaled18","type":"uint256","internalType":"uint256"},{"name":"balancesScaled18","type":"uint256[]","internalType":"uint256[]"},{"name":"indexIn","type":"uint256","internalType":"uint256"},{"name":"indexOut","type":"uint256","internalType":"uint256"},{"name":"router","type":"address","internalType":"address"},{"name":"userData","type":"bytes","internalType":"bytes"}]}],"outputs":[{"name":"dynamicSwapFeePercentage","type":"uint256","internalType":"uint256"}],"stateMutability":"view"},{"type":"function","name":"emitAuxiliaryEvent","inputs":[{"name":"eventKey","type":"bytes32","internalType":"bytes32"},{"name":"eventData","type":"bytes","internalType":"bytes"}],"outputs":[],"stateMutability":"nonpayable"},{"type":"function","name":"getAddLiquidityCalledFlag","inputs":[{"name":"pool","type":"address","internalType":"address"}],"outputs":[{"name":"","type":"bool","internalType":"bool"}],"stateMutability":"view"},{"type":"function","name":"getAggregateSwapFeeAmount","inputs":[{"name":"pool","type":"address","internalType":"address"},{"name":"token","type":"address","internalType":"contract IERC20"}],"outputs":[{"name":"","type":"uint256","internalType":"uint256"}],"stateMutability":"view"},{"type":"function","name":"getAggregateYieldFeeAmount","inputs":[{"name":"pool","type":"address","internalType":"address"},{"name":"token","type":"address","internalType":"contract IERC20"}],"outputs":[{"name":"","type":"uint256","internalType":"uint256"}],"stateMutability":"view"},{"type":"function","name":"getAuthorizer","inputs":[],"outputs":[{"name":"","type":"address","internalType":"contract IAuthorizer"}],"stateMutability":"view"},{"type":"function","name":"getBptRate","inputs":[{"name":"pool","type":"address","internalType":"address"}],"outputs":[{"name":"rate","type":"uint256","internalType":"uint256"}],"stateMutability":"view"},{"type":"function","name":"getCurrentLiveBalances","inputs":[{"name":"pool","type":"address","internalType":"address"}],"outputs":[{"name":"balancesLiveScaled18","type":"uint256[]","internalType":"uint256[]"}],"stateMutability":"view"},{"type":"function","name":"getERC4626BufferAsset","inputs":[{"name":"wrappedToken","type":"address","internalType":"contract IERC4626"}],"outputs":[{"name":"asset","type":"address","internalType":"address"}],"stateMutability":"view"},{"type":"function","name":"getHooksConfig","inputs":[{"name":"pool","type":"address","internalType":"address"}],"outputs":[{"name":"","type":"tuple","internalType":"struct HooksConfig","components":[{"name":"enableHookAdjustedAmounts","type":"bool","internalType":"bool"},{"name":"shouldCallBeforeInitialize","type":"bool","internalType":"bool"},{"name":"shouldCallAfterInitialize","type":"bool","internalType":"bool"},{"name":"shouldCallComputeDynamicSwapFee","type":"bool","internalType":"bool"},{"name":"shouldCallBeforeSwap","type":"bool","internalType":"bool"},{"name":"shouldCallAfterSwap","type":"bool","internalType":"bool"},{"name":"shouldCallBeforeAddLiquidity","type":"bool","internalType":"bool"},{"name":"shouldCallAfterAddLiquidity","type":"bool","internalType":"bool"},{"name":"shouldCallBeforeRemoveLiquidity","type":"bool","internalType":"bool"},{"name":"shouldCallAfterRemoveLiquidity","type":"bool","internalType":"bool"},{"name":"hooksContract","type":"address","internalType":"address"}]}],"stateMutability":"view"},{"type":"function","name":"getNonzeroDeltaCount","inputs":[],"outputs":[{"name":"","type":"uint256","internalType":"uint256"}],"stateMutability":"view"},{"type":"function","name":"getPoolConfig","inputs":[{"name":"pool","type":"address","internalType":"address"}],"outputs":[{"name":"","type":"tuple","internalType":"struct PoolConfig","components":[{"name":"liquidityManagement","type":"tuple","internalType":"struct LiquidityManagement","components":[{"name":"disableUnbalancedLiquidity","type":"bool","internalType":"bool"},{"name":"enableAddLiquidityCustom","type":"bool","internalType":"bool"},{"name":"enableRemoveLiquidityCustom","type":"bool","internalType":"bool"},{"name":"enableDonation","type":"bool","internalType":"bool"}]},{"name":"staticSwapFeePercentage","type":"uint256","internalType":"uint256"},{"name":"aggregateSwapFeePercentage","type":"uint256","internalType":"uint256"},{"name":"aggregateYieldFeePercentage","type":"uint256","internalType":"uint256"},{"name":"tokenDecimalDiffs","type":"uint40","internalType":"uint40"},{"name":"pauseWindowEndTime","type":"uint32","internalType":"uint32"},{"name":"isPoolRegistered","type":"bool","internalType":"bool"},{"name":"isPoolInitialized","type":"bool","internalType":"bool"},{"name":"isPoolPaused","type":"bool","internalType":"bool"},{"name":"isPoolInRecoveryMode","type":"bool","internalType":"bool"}]}],"stateMutability":"view"},{"type":"function","name":"getPoolData","inputs":[{"name":"pool","type":"address","internalType":"address"}],"outputs":[{"name":"","type":"tuple","internalType":"struct PoolData","components":[{"name":"poolConfigBits","type":"bytes32","internalType":"PoolConfigBits"},{"name":"tokens","type":"address[]","internalType":"contract IERC20[]"},{"name":"tokenInfo","type":"tuple[]","internalType":"struct TokenInfo[]","components":[{"name":"tokenType","type":"uint8","internalType":"enum TokenType"},{"name":"rateProvider","type":"address","internalType":"contract IRateProvider"},{"name":"paysYieldFees","type":"bool","internalType":"bool"}]},{"name":"balancesRaw","type":"uint256[]","internalType":"uint256[]"},{"name":"balancesLiveScaled18","type":"uint256[]","internalType":"uint256[]"},{"name":"tokenRates","type":"uint256[]","internalType":"uint256[]"},{"name":"decimalScalingFactors","type":"uint256[]","internalType":"uint256[]"}]}],"stateMutability":"view"},{"type":"function","name":"getPoolPausedState","inputs":[{"name":"pool","type":"address","internalType":"address"}],"outputs":[{"name":"","type":"bool","internalType":"bool"},{"name":"","type":"uint32","internalType":"uint32"},{"name":"","type":"uint32","internalType":"uint32"},{"name":"","type":"address","internalType":"address"}],"stateMutability":"view"},{"type":"function","name":"getPoolRoleAccounts","inputs":[{"name":"pool","type":"address","internalType":"address"}],"outputs":[{"name":"","type":"tuple","internalType":"struct PoolRoleAccounts","components":[{"name":"pauseManager","type":"address","internalType":"address"},{"name":"swapFeeManager","type":"address","internalType":"address"},{"name":"poolCreator","type":"address","internalType":"address"}]}],"stateMutability":"view"},{"type":"function","name":"getPoolTokenInfo","inputs":[{"name":"pool","type":"address","internalType":"address"}],"outputs":[{"name":"tokens","type":"address[]","internalType":"contract IERC20[]"},{"name":"tokenInfo","type":"tuple[]","internalType":"struct TokenInfo[]","components":[{"name":"tokenType","type":"uint8","internalType":"enum TokenType"},{"name":"rateProvider","type":"address","internalType":"contract IRateProvider"},{"name":"paysYieldFees","type":"bool","internalType":"bool"}]},{"name":"balancesRaw","type":"uint256[]","internalType":"uint256[]"},{"name":"lastBalancesLiveScaled18","type":"uint256[]","internalType":"uint256[]"}],"stateMutability":"view"},{"type":"function","name":"getPoolTokenRates","inputs":[{"name":"pool","type":"address","internalType":"address"}],"outputs":[{"name":"decimalScalingFactors","type":"uint256[]","internalType":"uint256[]"},{"name":"tokenRates","type":"uint256[]","internalType":"uint256[]"}],"stateMutability":"view"},{"type":"function","name":"getPoolTokens","inputs":[{"name":"pool","type":"address","internalType":"address"}],"outputs":[{"name":"tokens","type":"address[]","internalType":"contract IERC20[]"}],"stateMutability":"view"},{"type":"function","name":"getProtocolFeeController","inputs":[],"outputs":[{"name":"","type":"address","internalType":"contract IProtocolFeeController"}],"stateMutability":"view"},{"type":"function","name":"getReservesOf","inputs":[{"name":"token","type":"address","internalType":"contract IERC20"}],"outputs":[{"name":"","type":"uint256","internalType":"uint256"}],"stateMutability":"view"},{"type":"function","name":"getStaticSwapFeePercentage","inputs":[{"name":"pool","type":"address","internalType":"address"}],"outputs":[{"name":"","type":"uint256","internalType":"uint256"}],"stateMutability":"view"},{"type":"function","name":"getTokenDelta","inputs":[{"name":"token","type":"address","internalType":"contract IERC20"}],"outputs":[{"name":"","type":"int256","internalType":"int256"}],"stateMutability":"view"},{"type":"function","name":"getVaultAdmin","inputs":[],"outputs":[{"name":"","type":"address","internalType":"address"}],"stateMutability":"view"},{"type":"function","name":"initialize","inputs":[{"name":"pool","type":"address","internalType":"address"},{"name":"to","type":"address","internalType":"address"},{"name":"tokens","type":"address[]","internalType":"contract IERC20[]"},{"name":"exactAmountsIn","type":"uint256[]","internalType":"uint256[]"},{"name":"minBptAmountOut","type":"uint256","internalType":"uint256"},{"name":"userData","type":"bytes","internalType":"bytes"}],"outputs":[{"name":"bptAmountOut","type":"uint256","internalType":"uint256"}],"stateMutability":"nonpayable"},{"type":"function","name":"isERC4626BufferInitialized","inputs":[{"name":"wrappedToken","type":"address","internalType":"contract IERC4626"}],"outputs":[{"name":"","type":"bool","internalType":"bool"}],"stateMutability":"view"},{"type":"function","name":"isPoolInRecoveryMode","inputs":[{"name":"pool","type":"address","internalType":"address"}],"outputs":[{"name":"","type":"bool","internalType":"bool"}],"stateMutability":"view"},{"type":"function","name":"isPoolInitialized","inputs":[{"name":"pool","type":"address","internalType":"address"}],"outputs":[{"name":"","type":"bool","internalType":"bool"}],"stateMutability":"view"},{"type":"function","name":"isPoolPaused","inputs":[{"name":"pool","type":"address","internalType":"address"}],"outputs":[{"name":"","type":"bool","internalType":"bool"}],"stateMutability":"view"},{"type":"function","name":"isPoolRegistered","inputs":[{"name":"pool","type":"address","internalType":"address"}],"outputs":[{"name":"","type":"bool","internalType":"bool"}],"stateMutability":"view"},{"type":"function","name":"isQueryDisabled","inputs":[],"outputs":[{"name":"","type":"bool","internalType":"bool"}],"stateMutability":"view"},{"type":"function","name":"isQueryDisabledPermanently","inputs":[],"outputs":[{"name":"","type":"bool","internalType":"bool"}],"stateMutability":"view"},{"type":"function","name":"isUnlocked","inputs":[],"outputs":[{"name":"","type":"bool","internalType":"bool"}],"stateMutability":"view"},{"type":"function","name":"manualInitializePoolReentrancy","inputs":[{"name":"pool","type":"address","internalType":"address"},{"name":"to","type":"address","internalType":"address"},{"name":"tokens","type":"address[]","internalType":"contract IERC20[]"},{"name":"exactAmountsIn","type":"uint256[]","internalType":"uint256[]"},{"name":"minBptAmountOut","type":"uint256","internalType":"uint256"},{"name":"userData","type":"bytes","internalType":"bytes"}],"outputs":[],"stateMutability":"nonpayable"},{"type":"function","name":"manualRegisterPoolReentrancy","inputs":[{"name":"pool","type":"address","internalType":"address"},{"name":"tokenConfig","type":"tuple[]","internalType":"struct TokenConfig[]","components":[{"name":"token","type":"address","internalType":"contract IERC20"},{"name":"tokenType","type":"uint8","internalType":"enum TokenType"},{"name":"rateProvider","type":"address","internalType":"contract IRateProvider"},{"name":"paysYieldFees","type":"bool","internalType":"bool"}]},{"name":"swapFeePercentage","type":"uint256","internalType":"uint256"},{"name":"pauseWindowEndTime","type":"uint32","internalType":"uint32"},{"name":"protocolFeeExempt","type":"bool","internalType":"bool"},{"name":"roleAccounts","type":"tuple","internalType":"struct PoolRoleAccounts","components":[{"name":"pauseManager","type":"address","internalType":"address"},{"name":"swapFeeManager","type":"address","internalType":"address"},{"name":"poolCreator","type":"address","internalType":"address"}]},{"name":"poolHooksContract","type":"address","internalType":"address"},{"name":"liquidityManagement","type":"tuple","internalType":"struct LiquidityManagement","components":[{"name":"disableUnbalancedLiquidity","type":"bool","internalType":"bool"},{"name":"enableAddLiquidityCustom","type":"bool","internalType":"bool"},{"name":"enableRemoveLiquidityCustom","type":"bool","internalType":"bool"},{"name":"enableDonation","type":"bool","internalType":"bool"}]}],"outputs":[],"stateMutability":"nonpayable"},{"type":"function","name":"mockExtensionHash","inputs":[{"name":"input","type":"bytes","internalType":"bytes"}],"outputs":[{"name":"","type":"bytes32","internalType":"bytes32"}],"stateMutability":"payable"},{"type":"function","name":"quote","inputs":[{"name":"data","type":"bytes","internalType":"bytes"}],"outputs":[{"name":"result","type":"bytes","internalType":"bytes"}],"stateMutability":"nonpayable"},{"type":"function","name":"quoteAndRevert","inputs":[{"name":"data","type":"bytes","internalType":"bytes"}],"outputs":[],"stateMutability":"nonpayable"},{"type":"function","name":"reentrancyGuardEntered","inputs":[],"outputs":[{"name":"","type":"bool","internalType":"bool"}],"stateMutability":"view"},{"type":"function","name":"registerPool","inputs":[{"name":"pool","type":"address","internalType":"address"},{"name":"tokenConfig","type":"tuple[]","internalType":"struct TokenConfig[]","components":[{"name":"token","type":"address","internalType":"contract IERC20"},{"name":"tokenType","type":"uint8","internalType":"enum TokenType"},{"name":"rateProvider","type":"address","internalType":"contract IRateProvider"},{"name":"paysYieldFees","type":"bool","internalType":"bool"}]},{"name":"swapFeePercentage","type":"uint256","internalType":"uint256"},{"name":"pauseWindowEndTime","type":"uint32","internalType":"uint32"},{"name":"protocolFeeExempt","type":"bool","internalType":"bool"},{"name":"roleAccounts","type":"tuple","internalType":"struct PoolRoleAccounts","components":[{"name":"pauseManager","type":"address","internalType":"address"},{"name":"swapFeeManager","type":"address","internalType":"address"},{"name":"poolCreator","type":"address","internalType":"address"}]},{"name":"poolHooksContract","type":"address","internalType":"address"},{"name":"liquidityManagement","type":"tuple","internalType":"struct LiquidityManagement","components":[{"name":"disableUnbalancedLiquidity","type":"bool","internalType":"bool"},{"name":"enableAddLiquidityCustom","type":"bool","internalType":"bool"},{"name":"enableRemoveLiquidityCustom","type":"bool","internalType":"bool"},{"name":"enableDonation","type":"bool","internalType":"bool"}]}],"outputs":[],"stateMutability":"nonpayable"},{"type":"function","name":"removeLiquidityRecovery","inputs":[{"name":"pool","type":"address","internalType":"address"},{"name":"from","type":"address","internalType":"address"},{"name":"exactBptAmountIn","type":"uint256","internalType":"uint256"},{"name":"minAmountsOut","type":"uint256[]","internalType":"uint256[]"}],"outputs":[{"name":"amountsOutRaw","type":"uint256[]","internalType":"uint256[]"}],"stateMutability":"nonpayable"},{"type":"function","name":"totalSupply","inputs":[{"name":"token","type":"address","internalType":"address"}],"outputs":[{"name":"","type":"uint256","internalType":"uint256"}],"stateMutability":"view"},{"type":"function","name":"vault","inputs":[],"outputs":[{"name":"","type":"address","internalType":"contract IVault"}],"stateMutability":"view"},{"type":"event","name":"AggregateSwapFeePercentageChanged","inputs":[{"name":"pool","type":"address","indexed":true,"internalType":"address"},{"name":"aggregateSwapFeePercentage","type":"uint256","indexed":false,"internalType":"uint256"}],"anonymous":false},{"type":"event","name":"AggregateYieldFeePercentageChanged","inputs":[{"name":"pool","type":"address","indexed":true,"internalType":"address"},{"name":"aggregateYieldFeePercentage","type":"uint256","indexed":false,"internalType":"uint256"}],"anonymous":false},{"type":"event","name":"Approval","inputs":[{"name":"pool","type":"address","indexed":true,"internalType":"address"},{"name":"owner","type":"address","indexed":true,"internalType":"address"},{"name":"spender","type":"address","indexed":true,"internalType":"address"},{"name":"value","type":"uint256","indexed":false,"internalType":"uint256"}],"anonymous":false},{"type":"event","name":"AuthorizerChanged","inputs":[{"name":"newAuthorizer","type":"address","indexed":true,"internalType":"contract IAuthorizer"}],"anonymous":false},{"type":"event","name":"BufferSharesBurned","inputs":[{"name":"wrappedToken","type":"address","indexed":true,"internalType":"contract IERC4626"},{"name":"from","type":"address","indexed":true,"internalType":"address"},{"name":"burnedShares","type":"uint256","indexed":false,"internalType":"uint256"}],"anonymous":false},{"type":"event","name":"BufferSharesMinted","inputs":[{"name":"wrappedToken","type":"address","indexed":true,"internalType":"contract IERC4626"},{"name":"to","type":"address","indexed":true,"internalType":"address"},{"name":"issuedShares","type":"uint256","indexed":false,"internalType":"uint256"}],"anonymous":false},{"type":"event","name":"LiquidityAdded","inputs":[{"name":"pool","type":"address","indexed":true,"internalType":"address"},{"name":"liquidityProvider","type":"address","indexed":true,"internalType":"address"},{"name":"kind","type":"uint8","indexed":true,"internalType":"enum AddLiquidityKind"},{"name":"totalSupply","type":"uint256","indexed":false,"internalType":"uint256"},{"name":"amountsAddedRaw","type":"uint256[]","indexed":false,"internalType":"uint256[]"},{"name":"swapFeeAmountsRaw","type":"uint256[]","indexed":false,"internalType":"uint256[]"}],"anonymous":false},{"type":"event","name":"LiquidityAddedToBuffer","inputs":[{"name":"wrappedToken","type":"address","indexed":true,"internalType":"contract IERC4626"},{"name":"amountUnderlying","type":"uint256","indexed":false,"internalType":"uint256"},{"name":"amountWrapped","type":"uint256","indexed":false,"internalType":"uint256"},{"name":"bufferBalances","type":"bytes32","indexed":false,"internalType":"bytes32"}],"anonymous":false},{"type":"event","name":"LiquidityRemoved","inputs":[{"name":"pool","type":"address","indexed":true,"internalType":"address"},{"name":"liquidityProvider","type":"address","indexed":true,"internalType":"address"},{"name":"kind","type":"uint8","indexed":true,"internalType":"enum RemoveLiquidityKind"},{"name":"totalSupply","type":"uint256","indexed":false,"internalType":"uint256"},{"name":"amountsRemovedRaw","type":"uint256[]","indexed":false,"internalType":"uint256[]"},{"name":"swapFeeAmountsRaw","type":"uint256[]","indexed":false,"internalType":"uint256[]"}],"anonymous":false},{"type":"event","name":"LiquidityRemovedFromBuffer","inputs":[{"name":"wrappedToken","type":"address","indexed":true,"internalType":"contract IERC4626"},{"name":"amountUnderlying","type":"uint256","indexed":false,"internalType":"uint256"},{"name":"amountWrapped","type":"uint256","indexed":false,"internalType":"uint256"},{"name":"bufferBalances","type":"bytes32","indexed":false,"internalType":"bytes32"}],"anonymous":false},{"type":"event","name":"PoolInitialized","inputs":[{"name":"pool","type":"address","indexed":true,"internalType":"address"}],"anonymous":false},{"type":"event","name":"PoolPausedStateChanged","inputs":[{"name":"pool","type":"address","indexed":true,"internalType":"address"},{"name":"paused","type":"bool","indexed":false,"internalType":"bool"}],"anonymous":false},{"type":"event","name":"PoolRecoveryModeStateChanged","inputs":[{"name":"pool","type":"address","indexed":true,"internalType":"address"},{"name":"recoveryMode","type":"bool","indexed":false,"internalType":"bool"}],"anonymous":false},{"type":"event","name":"PoolRegistered","inputs":[{"name":"pool","type":"address","indexed":true,"internalType":"address"},{"name":"factory","type":"address","indexed":true,"internalType":"address"},{"name":"tokenConfig","type":"tuple[]","indexed":false,"internalType":"struct TokenConfig[]","components":[{"name":"token","type":"address","internalType":"contract IERC20"},{"name":"tokenType","type":"uint8","internalType":"enum TokenType"},{"name":"rateProvider","type":"address","internalType":"contract IRateProvider"},{"name":"paysYieldFees","type":"bool","internalType":"bool"}]},{"name":"swapFeePercentage","type":"uint256","indexed":false,"internalType":"uint256"},{"name":"pauseWindowEndTime","type":"uint32","indexed":false,"internalType":"uint32"},{"name":"roleAccounts","type":"tuple","indexed":false,"internalType":"struct PoolRoleAccounts","components":[{"name":"pauseManager","type":"address","internalType":"address"},{"name":"swapFeeManager","type":"address","internalType":"address"},{"name":"poolCreator","type":"address","internalType":"address"}]},{"name":"hooksConfig","type":"tuple","indexed":false,"internalType":"struct HooksConfig","components":[{"name":"enableHookAdjustedAmounts","type":"bool","internalType":"bool"},{"name":"shouldCallBeforeInitialize","type":"bool","internalType":"bool"},{"name":"shouldCallAfterInitialize","type":"bool","internalType":"bool"},{"name":"shouldCallComputeDynamicSwapFee","type":"bool","internalType":"bool"},{"name":"shouldCallBeforeSwap","type":"bool","internalType":"bool"},{"name":"shouldCallAfterSwap","type":"bool","internalType":"bool"},{"name":"shouldCallBeforeAddLiquidity","type":"bool","internalType":"bool"},{"name":"shouldCallAfterAddLiquidity","type":"bool","internalType":"bool"},{"name":"shouldCallBeforeRemoveLiquidity","type":"bool","internalType":"bool"},{"name":"shouldCallAfterRemoveLiquidity","type":"bool","internalType":"bool"},{"name":"hooksContract","type":"address","internalType":"address"}]},{"name":"liquidityManagement","type":"tuple","indexed":false,"internalType":"struct LiquidityManagement","components":[{"name":"disableUnbalancedLiquidity","type":"bool","internalType":"bool"},{"name":"enableAddLiquidityCustom","type":"bool","internalType":"bool"},{"name":"enableRemoveLiquidityCustom","type":"bool","internalType":"bool"},{"name":"enableDonation","type":"bool","internalType":"bool"}]}],"anonymous":false},{"type":"event","name":"ProtocolFeeControllerChanged","inputs":[{"name":"newProtocolFeeController","type":"address","indexed":true,"internalType":"contract IProtocolFeeController"}],"anonymous":false},{"type":"event","name":"Swap","inputs":[{"name":"pool","type":"address","indexed":true,"internalType":"address"},{"name":"tokenIn","type":"address","indexed":true,"internalType":"contract IERC20"},{"name":"tokenOut","type":"address","indexed":true,"internalType":"contract IERC20"},{"name":"amountIn","type":"uint256","indexed":false,"internalType":"uint256"},{"name":"amountOut","type":"uint256","indexed":false,"internalType":"uint256"},{"name":"swapFeePercentage","type":"uint256","indexed":false,"internalType":"uint256"},{"name":"swapFeeAmount","type":"uint256","indexed":false,"internalType":"uint256"}],"anonymous":false},{"type":"event","name":"SwapFeePercentageChanged","inputs":[{"name":"pool","type":"address","indexed":true,"internalType":"address"},{"name":"swapFeePercentage","type":"uint256","indexed":false,"internalType":"uint256"}],"anonymous":false},{"type":"event","name":"Transfer","inputs":[{"name":"pool","type":"address","indexed":true,"internalType":"address"},{"name":"from","type":"address","indexed":true,"internalType":"address"},{"name":"to","type":"address","indexed":true,"internalType":"address"},{"name":"value","type":"uint256","indexed":false,"internalType":"uint256"}],"anonymous":false},{"type":"event","name":"Unwrap","inputs":[{"name":"wrappedToken","type":"address","indexed":true,"internalType":"contract IERC4626"},{"name":"burnedShares","type":"uint256","indexed":false,"internalType":"uint256"},{"name":"withdrawnUnderlying","type":"uint256","indexed":false,"internalType":"uint256"},{"name":"bufferBalances","type":"bytes32","indexed":false,"internalType":"bytes32"}],"anonymous":false},{"type":"event","name":"VaultAuxiliary","inputs":[{"name":"pool","type":"address","indexed":true,"internalType":"address"},{"name":"eventKey","type":"bytes32","indexed":true,"internalType":"bytes32"},{"name":"eventData","type":"bytes","indexed":false,"internalType":"bytes"}],"anonymous":false},{"type":"event","name":"VaultBuffersPausedStateChanged","inputs":[{"name":"paused","type":"bool","indexed":false,"internalType":"bool"}],"anonymous":false},{"type":"event","name":"VaultPausedStateChanged","inputs":[{"name":"paused","type":"bool","indexed":false,"internalType":"bool"}],"anonymous":false},{"type":"event","name":"VaultQueriesDisabled","inputs":[],"anonymous":false},{"type":"event","name":"VaultQueriesEnabled","inputs":[],"anonymous":false},{"type":"event","name":"Wrap","inputs":[{"name":"wrappedToken","type":"address","indexed":true,"internalType":"contract IERC4626"},{"name":"depositedUnderlying","type":"uint256","indexed":false,"internalType":"uint256"},{"name":"mintedShares","type":"uint256","indexed":false,"internalType":"uint256"},{"name":"bufferBalances","type":"bytes32","indexed":false,"internalType":"bytes32"}],"anonymous":false},{"type":"error","name":"AddressEmptyCode","inputs":[{"name":"target","type":"address","internalType":"address"}]},{"type":"error","name":"AfterAddLiquidityHookFailed","inputs":[]},{"type":"error","name":"AfterInitializeHookFailed","inputs":[]},{"type":"error","name":"AfterRemoveLiquidityHookFailed","inputs":[]},{"type":"error","name":"AfterSwapHookFailed","inputs":[]},{"type":"error","name":"AmountGivenZero","inputs":[]},{"type":"error","name":"AmountInAboveMax","inputs":[{"name":"tokenIn","type":"address","internalType":"contract IERC20"},{"name":"amountIn","type":"uint256","internalType":"uint256"},{"name":"maxAmountIn","type":"uint256","internalType":"uint256"}]},{"type":"error","name":"AmountOutBelowMin","inputs":[{"name":"tokenOut","type":"address","internalType":"contract IERC20"},{"name":"amountOut","type":"uint256","internalType":"uint256"},{"name":"minAmountOut","type":"uint256","internalType":"uint256"}]},{"type":"error","name":"BalanceNotSettled","inputs":[]},{"type":"error","name":"BalanceOverflow","inputs":[]},{"type":"error","name":"BeforeAddLiquidityHookFailed","inputs":[]},{"type":"error","name":"BeforeInitializeHookFailed","inputs":[]},{"type":"error","name":"BeforeRemoveLiquidityHookFailed","inputs":[]},{"type":"error","name":"BeforeSwapHookFailed","inputs":[]},{"type":"error","name":"BptAmountInAboveMax","inputs":[{"name":"amountIn","type":"uint256","internalType":"uint256"},{"name":"maxAmountIn","type":"uint256","internalType":"uint256"}]},{"type":"error","name":"BptAmountOutBelowMin","inputs":[{"name":"amountOut","type":"uint256","internalType":"uint256"},{"name":"minAmountOut","type":"uint256","internalType":"uint256"}]},{"type":"error","name":"BufferAlreadyInitialized","inputs":[{"name":"wrappedToken","type":"address","internalType":"contract IERC4626"}]},{"type":"error","name":"BufferNotInitialized","inputs":[{"name":"wrappedToken","type":"address","internalType":"contract IERC4626"}]},{"type":"error","name":"BufferSharesInvalidOwner","inputs":[]},{"type":"error","name":"BufferSharesInvalidReceiver","inputs":[]},{"type":"error","name":"BufferTotalSupplyTooLow","inputs":[{"name":"totalSupply","type":"uint256","internalType":"uint256"}]},{"type":"error","name":"CannotReceiveEth","inputs":[]},{"type":"error","name":"CannotSwapSameToken","inputs":[]},{"type":"error","name":"CodecOverflow","inputs":[]},{"type":"error","name":"DoesNotSupportAddLiquidityCustom","inputs":[]},{"type":"error","name":"DoesNotSupportDonation","inputs":[]},{"type":"error","name":"DoesNotSupportRemoveLiquidityCustom","inputs":[]},{"type":"error","name":"DoesNotSupportUnbalancedLiquidity","inputs":[]},{"type":"error","name":"DynamicSwapFeeHookFailed","inputs":[]},{"type":"error","name":"ERC20InsufficientAllowance","inputs":[{"name":"spender","type":"address","internalType":"address"},{"name":"allowance","type":"uint256","internalType":"uint256"},{"name":"needed","type":"uint256","internalType":"uint256"}]},{"type":"error","name":"ERC20InsufficientBalance","inputs":[{"name":"sender","type":"address","internalType":"address"},{"name":"balance","type":"uint256","internalType":"uint256"},{"name":"needed","type":"uint256","internalType":"uint256"}]},{"type":"error","name":"ERC20InvalidApprover","inputs":[{"name":"approver","type":"address","internalType":"address"}]},{"type":"error","name":"ERC20InvalidReceiver","inputs":[{"name":"receiver","type":"address","internalType":"address"}]},{"type":"error","name":"ERC20InvalidSender","inputs":[{"name":"sender","type":"address","internalType":"address"}]},{"type":"error","name":"ERC20InvalidSpender","inputs":[{"name":"spender","type":"address","internalType":"address"}]},{"type":"error","name":"ErrorSelectorNotFound","inputs":[]},{"type":"error","name":"FailedCall","inputs":[]},{"type":"error","name":"FeePrecisionTooHigh","inputs":[]},{"type":"error","name":"HookAdjustedAmountInAboveMax","inputs":[{"name":"tokenIn","type":"address","internalType":"contract IERC20"},{"name":"amountIn","type":"uint256","internalType":"uint256"},{"name":"maxAmountIn","type":"uint256","internalType":"uint256"}]},{"type":"error","name":"HookAdjustedAmountOutBelowMin","inputs":[{"name":"tokenOut","type":"address","internalType":"contract IERC20"},{"name":"amountOut","type":"uint256","internalType":"uint256"},{"name":"minAmountOut","type":"uint256","internalType":"uint256"}]},{"type":"error","name":"HookAdjustedSwapLimit","inputs":[{"name":"amount","type":"uint256","internalType":"uint256"},{"name":"limit","type":"uint256","internalType":"uint256"}]},{"type":"error","name":"HookRegistrationFailed","inputs":[{"name":"poolHooksContract","type":"address","internalType":"address"},{"name":"pool","type":"address","internalType":"address"},{"name":"poolFactory","type":"address","internalType":"address"}]},{"type":"error","name":"InputLengthMismatch","inputs":[]},{"type":"error","name":"InsufficientBalance","inputs":[{"name":"balance","type":"uint256","internalType":"uint256"},{"name":"needed","type":"uint256","internalType":"uint256"}]},{"type":"error","name":"InvalidAddLiquidityKind","inputs":[]},{"type":"error","name":"InvalidRemoveLiquidityKind","inputs":[]},{"type":"error","name":"InvalidToken","inputs":[]},{"type":"error","name":"InvalidTokenConfiguration","inputs":[]},{"type":"error","name":"InvalidTokenDecimals","inputs":[]},{"type":"error","name":"InvalidTokenType","inputs":[]},{"type":"error","name":"InvalidUnderlyingToken","inputs":[{"name":"wrappedToken","type":"address","internalType":"contract IERC4626"}]},{"type":"error","name":"IssuedSharesBelowMin","inputs":[{"name":"issuedShares","type":"uint256","internalType":"uint256"},{"name":"minIssuedShares","type":"uint256","internalType":"uint256"}]},{"type":"error","name":"MaxTokens","inputs":[]},{"type":"error","name":"MinTokens","inputs":[]},{"type":"error","name":"NotEnoughBufferShares","inputs":[]},{"type":"error","name":"NotEnoughUnderlying","inputs":[{"name":"wrappedToken","type":"address","internalType":"contract IERC4626"},{"name":"expectedUnderlyingAmount","type":"uint256","internalType":"uint256"},{"name":"actualUnderlyingAmount","type":"uint256","internalType":"uint256"}]},{"type":"error","name":"NotEnoughWrapped","inputs":[{"name":"wrappedToken","type":"address","internalType":"contract IERC4626"},{"name":"expectedWrappedAmount","type":"uint256","internalType":"uint256"},{"name":"actualWrappedAmount","type":"uint256","internalType":"uint256"}]},{"type":"error","name":"NotStaticCall","inputs":[]},{"type":"error","name":"NotVaultDelegateCall","inputs":[]},{"type":"error","name":"OutOfBounds","inputs":[]},{"type":"error","name":"PauseBufferPeriodDurationTooLarge","inputs":[]},{"type":"error","name":"PercentageAboveMax","inputs":[]},{"type":"error","name":"PoolAlreadyInitialized","inputs":[{"name":"pool","type":"address","internalType":"address"}]},{"type":"error","name":"PoolAlreadyRegistered","inputs":[{"name":"pool","type":"address","internalType":"address"}]},{"type":"error","name":"PoolInRecoveryMode","inputs":[{"name":"pool","type":"address","internalType":"address"}]},{"type":"error","name":"PoolNotInRecoveryMode","inputs":[{"name":"pool","type":"address","internalType":"address"}]},{"type":"error","name":"PoolNotInitialized","inputs":[{"name":"pool","type":"address","internalType":"address"}]},{"type":"error","name":"PoolNotPaused","inputs":[{"name":"pool","type":"address","internalType":"address"}]},{"type":"error","name":"PoolNotRegistered","inputs":[{"name":"pool","type":"address","internalType":"address"}]},{"type":"error","name":"PoolPauseWindowExpired","inputs":[{"name":"pool","type":"address","internalType":"address"}]},{"type":"error","name":"PoolPaused","inputs":[{"name":"pool","type":"address","internalType":"address"}]},{"type":"error","name":"PoolTotalSupplyTooLow","inputs":[{"name":"totalSupply","type":"uint256","internalType":"uint256"}]},{"type":"error","name":"ProtocolFeesExceedTotalCollected","inputs":[]},{"type":"error","name":"QueriesDisabled","inputs":[]},{"type":"error","name":"QueriesDisabledPermanently","inputs":[]},{"type":"error","name":"QuoteResultSpoofed","inputs":[]},{"type":"error","name":"ReentrancyGuardReentrantCall","inputs":[]},{"type":"error","name":"Result","inputs":[{"name":"result","type":"bytes","internalType":"bytes"}]},{"type":"error","name":"RouterNotTrusted","inputs":[]},{"type":"error","name":"SenderIsNotVault","inputs":[{"name":"sender","type":"address","internalType":"address"}]},{"type":"error","name":"SwapFeePercentageTooHigh","inputs":[]},{"type":"error","name":"SwapFeePercentageTooLow","inputs":[]},{"type":"error","name":"SwapLimit","inputs":[{"name":"amount","type":"uint256","internalType":"uint256"},{"name":"limit","type":"uint256","internalType":"uint256"}]},{"type":"error","name":"TokenAlreadyRegistered","inputs":[{"name":"token","type":"address","internalType":"contract IERC20"}]},{"type":"error","name":"TokenNotRegistered","inputs":[{"name":"token","type":"address","internalType":"contract IERC20"}]},{"type":"error","name":"TokensMismatch","inputs":[{"name":"pool","type":"address","internalType":"address"},{"name":"expectedToken","type":"address","internalType":"address"},{"name":"actualToken","type":"address","internalType":"address"}]},{"type":"error","name":"TokensNotSorted","inputs":[]},{"type":"error","name":"TradeAmountTooSmall","inputs":[]},{"type":"error","name":"VaultBuffersArePaused","inputs":[]},{"type":"error","name":"VaultIsNotUnlocked","inputs":[]},{"type":"error","name":"VaultNotPaused","inputs":[]},{"type":"error","name":"VaultPauseWindowDurationTooLarge","inputs":[]},{"type":"error","name":"VaultPauseWindowExpired","inputs":[]},{"type":"error","name":"VaultPaused","inputs":[]},{"type":"error","name":"WrapAmountTooSmall","inputs":[{"name":"wrappedToken","type":"address","internalType":"contract IERC4626"}]},{"type":"error","name":"WrongProtocolFeeControllerDeployment","inputs":[]},{"type":"error","name":"WrongUnderlyingToken","inputs":[{"name":"wrappedToken","type":"address","internalType":"contract IERC4626"},{"name":"underlyingToken","type":"address","internalType":"address"}]},{"type":"error","name":"WrongVaultAdminDeployment","inputs":[]},{"type":"error","name":"WrongVaultExtensionDeployment","inputs":[]}],"bytecode":{"object":"0x610240604052600a610200908152691a5cd55b9b1bd8dad95960b21b610220526100289061031c565b60c0526040805180820190915260118152701b9bdb96995c9bd1195b1d1850dbdd5b9d607a1b602082015261005c9061031c565b60e05260408051808201909152600b81526a746f6b656e44656c74617360a81b602082015261008a9061031c565b61010052604080518082019091526012815271185919131a5c5d5a591a5d1e50d85b1b195960721b60208201526100c09061031c565b610120526040805180820190915260098152681cd95cdcda5bdb925960ba1b60208201526100ed9061031c565b610140523480156100fc575f5ffd5b5060405161703738038061703783398101604081905261011b916103dc565b8181816001600160a01b0316816001600160a01b031663fbfa77cf6040518163ffffffff1660e01b8152600401602060405180830381865afa158015610163573d5f5f3e3d5ffd5b505050506040513d601f19601f820116820180604052508101906101879190610414565b6001600160a01b0316146101ae57604051634166145b60e11b815260040160405180910390fd5b806001600160a01b0316638a8d123a6040518163ffffffff1660e01b8152600401602060405180830381865afa1580156101ea573d5f5f3e3d5ffd5b505050506040513d601f19601f8201168201806040525081019061020e9190610436565b63ffffffff166101608163ffffffff1681525050806001600160a01b03166320c1fb7a6040518163ffffffff1660e01b8152600401602060405180830381865afa15801561025e573d5f5f3e3d5ffd5b505050506040513d601f19601f820116820180604052508101906102829190610436565b63ffffffff166101a08163ffffffff1681525050806001600160a01b031663cd51c12f6040518163ffffffff1660e01b8152600401602060405180830381865afa1580156102d2573d5f5f3e3d5ffd5b505050506040513d601f19601f820116820180604052508101906102f69190610436565b63ffffffff16610180526001600160a01b039182166101c052166101e052506104dd9050565b5f61035160405180604001604052600c8152806020016b5661756c7453746f7261676560a01b8152508361035760201b60201c565b92915050565b5f60ff5f1b1960018484604051602001610372929190610470565b604051602081830303815290604052805190602001205f1c61039491906104be565b6040516020016103a691815260200190565b6040516020818303038152906040528051906020012016905092915050565b6001600160a01b03811681146103d9575f5ffd5b50565b5f5f604083850312156103ed575f5ffd5b82516103f8816103c5565b6020840151909250610409816103c5565b809150509250929050565b5f60208284031215610424575f5ffd5b815161042f816103c5565b9392505050565b5f60208284031215610446575f5ffd5b815163ffffffff8116811461042f575f5ffd5b5f81518060208401855e5f93019283525090919050565b7f62616c616e6365722d6c6162732e76332e73746f726167652e0000000000000081525f6104a16019830185610459565b601760f91b81526104b56001820185610459565b95945050505050565b8181038181111561035157634e487b7160e01b5f52601160045260245ffd5b60805160a05160c05160e05161010051610120516101405161016051610180516101a0516101c0516101e051616ad26105655f395f611e7901525f818161082a0152611ec301525f81816109140152611fca01525f61498c01525f50505f6126bf01525f6126e301525f61258c01525f61313a01525f61251101525f50505f5050616ad25ff3fe608060405260043610610204575f3560e01c8062fdfa131461024b57806313d21cdf1461027d57806313ef8a5d146102a957806315e32046146102cd5780631ba0ae45146103245780634afbaf5a146103455780634d472bdd146103645780634f037ee714610383578063532cec7c146103a2578063535cfd8a146103c1578063590e8145146103ed57806367e0e076146104005780636844846b1461042f5780636c9bc7321461044e578063757d64b31461046d5780637e361bde1461048c578063809846d1146104b95780638380edb7146104d857806385e0b999146104ec57806385f2dbd41461050b578063927da1051461051f578063967870921461053e5780639e825ff51461055d578063a07d60401461057c578063aaabadc51461059b578063ace9b89b146105af578063b45090f9146105ce578063b4aef0ab146105ed578063ba8a2be014610601578063be7d628a14610620578063c673bdaf1461063f578063c80882471461065e578063ca4f28031461067d578063ce8630d4146106a9578063d2c725e0146106d5578063db817187146106e9578063e1f21c67146106fd578063e4dc2aa41461071c578063e68010c61461073b578063e9ddeb261461075a578063edfa356814610786578063eeec802f146107b2578063f29486a1146107d1578063f7888aec146107fd578063fbfa77cf1461081c57610222565b3661022257604051637911c44b60e11b815260040160405180910390fd5b341561024157604051637911c44b60e11b815260040160405180910390fd5b61024961084e565b005b348015610256575f5ffd5b5061026a610265366004615574565b610860565b6040519081526020015b60405180910390f35b348015610288575f5ffd5b5061029c6102973660046155ab565b6108a6565b60405161027491906156d3565b3480156102b4575f5ffd5b506102bd6108d4565b6040519015158152602001610274565b3480156102d8575f5ffd5b506102ec6102e73660046155ab565b6108e7565b6040516102749493929190931515845263ffffffff9283166020850152911660408301526001600160a01b0316606082015260800190565b34801561032f575f5ffd5b50610338610967565b604051610274919061579b565b348015610350575f5ffd5b5061033861035f3660046155ab565b610975565b34801561036f575f5ffd5b5061026a61037e366004615964565b61099f565b34801561038e575f5ffd5b5061026a61039d3660046155ab565b610a01565b3480156103ad575f5ffd5b506102bd6103bc3660046155ab565b610ab3565b3480156103cc575f5ffd5b506103e06103db3660046155ab565b610acf565b6040516102749190615a4d565b61026a6103fb366004615aa3565b610af9565b34801561040b575f5ffd5b5061041f61041a3660046155ab565b610b1b565b6040516102749493929190615ae1565b34801561043a575f5ffd5b506102bd6104493660046155ab565b610dcd565b348015610459575f5ffd5b506102bd6104683660046155ab565b610df6565b348015610478575f5ffd5b50610249610487366004615aa3565b610e12565b348015610497575f5ffd5b506104ab6104a63660046155ab565b610f05565b604051610274929190615b67565b3480156104c4575f5ffd5b506102496104d3366004615b8b565b6110d5565b3480156104e3575f5ffd5b506102bd61115b565b3480156104f7575f5ffd5b5061026a610506366004615574565b611173565b348015610516575f5ffd5b506103386111b4565b34801561052a575f5ffd5b5061026a610539366004615ca3565b6111cd565b348015610549575f5ffd5b5061026a6105583660046155ab565b6111eb565b348015610568575f5ffd5b5061026a6105773660046155ab565b61120f565b348015610587575f5ffd5b506103e0610596366004615ceb565b61122a565b3480156105a6575f5ffd5b50610338611759565b3480156105ba575f5ffd5b506102bd6105c93660046155ab565b611777565b3480156105d9575f5ffd5b5061026a6105e83660046155ab565b611797565b3480156105f8575f5ffd5b506102bd6117cb565b34801561060c575f5ffd5b5061026a61061b366004615b8b565b6117df565b34801561062b575f5ffd5b506102bd61063a3660046155ab565b61194c565b34801561064a575f5ffd5b506102bd6106593660046155ab565b611968565b348015610669575f5ffd5b50610249610678366004615d52565b61197a565b348015610688575f5ffd5b5061069c6106973660046155ab565b6119d6565b6040516102749190615d99565b3480156106b4575f5ffd5b506106c86106c33660046155ab565b611a5c565b6040516102749190615e7d565b3480156106e0575f5ffd5b506102bd611aa6565b3480156106f4575f5ffd5b5061026a611aaf565b348015610708575f5ffd5b506102bd610717366004615e8c565b611ac3565b348015610727575f5ffd5b5061026a6107363660046155ab565b611ae2565b348015610746575f5ffd5b50610249610755366004615f15565b611af4565b348015610765575f5ffd5b506107796107743660046155ab565b611b6c565b604051610274919061609b565b348015610791575f5ffd5b506107a56107a0366004615aa3565b611be1565b60405161027491906160d7565b3480156107bd575f5ffd5b506102496107cc366004615f15565b611c34565b3480156107dc575f5ffd5b506107f06107eb3660046155ab565b611cbe565b6040516102749190616117565b348015610808575f5ffd5b5061026a610817366004615574565b611e44565b348015610827575f5ffd5b507f0000000000000000000000000000000000000000000000000000000000000000610338565b61085e610859611e77565b611e9b565b565b5f610869611ebe565b8261087381611ef0565b6001600160a01b038481165f9081526006602090815260408083209387168352929052205460801c5b91505b5092915050565b6108ae615496565b6108b6611ebe565b816108c081611f1b565b6108cb836001611f43565b91505b50919050565b5f6108dd611ebe565b5060095460ff1690565b5f5f5f5f6108f3611ebe565b846108fd81611ef0565b5f5f61090888611f8b565b909250905081816109397f0000000000000000000000000000000000000000000000000000000000000000826161c5565b6001600160a01b03808c165f90815260016020526040902054939a5091985096501693505050509193509193565b5f610970611e77565b905090565b5f61097e611ebe565b506001600160a01b038082165f908152600e6020526040902054165b919050565b5f6109a8611ebe565b826109b281611f1b565b61089c83856109e25f5f896001600160a01b03166001600160a01b031681526020019081526020015f2054612004565b6001600160a01b038089165f90815260026020526040902054166120ea565b5f610a0a611ebe565b81610a1481611f1b565b5f610a20846001611f43565b90505f846001600160a01b031663984de9e8836080015160016040518363ffffffff1660e01b8152600401610a569291906161e1565b602060405180830381865afa158015610a71573d5f5f3e3d5ffd5b505050506040513d601f19601f82011682018060405250810190610a95919061620b565b9050610aaa610aa3866121b5565b82906121cf565b95945050505050565b5f610abc611ebe565b81610ac681611ef0565b6108cb836121ef565b6060610ad9611ebe565b81610ae381611ef0565b610aee836001611f43565b608001519392505050565b5f8282604051610b0a929190616222565b604051809103902090505b92915050565b606080606080610b29611ebe565b84610b3381611ef0565b6001600160a01b0386165f908152600560209081526040808320600383529281902080548251818502810185019093528083529192909190830182828015610ba257602002820191905f5260205f20905b81546001600160a01b03168152600190910190602001808311610b84575b5050835193995083925050506001600160401b03811115610bc557610bc56157af565b604051908082528060200260200182016040528015610bfe57816020015b610beb6154d2565b815260200190600190039081610be35790505b509550806001600160401b03811115610c1957610c196157af565b604051908082528060200260200182016040528015610c42578160200160208202803683370190505b509450806001600160401b03811115610c5d57610c5d6157af565b604051908082528060200260200182016040528015610c86578160200160208202803683370190505b5093505f5b81811015610dc2575f81815260208481526040808320546001600160a01b038d168452600490925282208a51919290918b9085908110610ccd57610ccd616231565b6020908102919091018101516001600160a01b0316825281019190915260409081015f208151606081019092528054829060ff166001811115610d1257610d12615609565b6001811115610d2357610d23615609565b8152905461010081046001600160a01b03166020830152600160a81b900460ff1615156040909101528851899084908110610d6057610d60616231565b6020026020010181905250610d7481612210565b878381518110610d8657610d86616231565b602002602001018181525050610d9c8160801c90565b868381518110610dae57610dae616231565b602090810291909101015250600101610c8b565b505050509193509193565b5f610dd6611ebe565b506001600160a01b039081165f908152600e602052604090205416151590565b5f610dff611ebe565b81610e0981611ef0565b6108cb8361221c565b610e1a61222f565b610e22611ebe565b5f5f336001600160a01b03168484604051610e3e929190616222565b5f604051808303815f865af19150503d805f8114610e77576040519150601f19603f3d011682016040523d82523d5f602084013e610e7c565b606091505b50915091508115610eb757610e92338383612290565b5080604051630b56c9f760e31b8152600401610eae91906160d7565b60405180910390fd5b5f610ec1826122e3565b90506314a9360960e31b6001600160e01b0319821601610ef4576040516328f9554160e01b815260040160405180910390fd5b610efd8261230f565b505b50505050565b606080610f10611ebe565b82610f1a81611ef0565b6001600160a01b0384165f9081526020818152604080832054600383528184208054835181860281018601909452808452919493909190830182828015610f8857602002820191905f5260205f20905b81546001600160a01b03168152600190910190602001808311610f6a575b505050505090505f81519050610f9e8382612338565b9550806001600160401b03811115610fb857610fb86157af565b604051908082528060200260200182016040528015610fe1578160200160208202803683370190505b5094505f5b818110156110cb576001600160a01b0388165f9081526004602052604081208451829086908590811061101b5761101b616231565b6020908102919091018101516001600160a01b0316825281019190915260409081015f208151606081019092528054829060ff16600181111561106057611060615609565b600181111561107157611071615609565b8152905461010081046001600160a01b03166020830152600160a81b900460ff16151560409091015290506110a5816123f1565b8783815181106110b7576110b7616231565b602090810291909101015250600101610fe6565b5050505050915091565b6110dd6124ba565b6040516305d4515f60e51b8152309063ba8a2be09061110a90899089908990899089908990600401616245565b6020604051808303815f875af1158015611126573d5f5f3e3d5ffd5b505050506040513d601f19601f8201168201806040525081019061114a919061620b565b506111536124f8565b505050505050565b5f611164611ebe565b61097061116f61250f565b5c90565b5f61117c611ebe565b8261118681611ef0565b6001600160a01b038085165f9081526006602090815260408083209387168352929052205461089c90612210565b5f6111bd611ebe565b50600a546001600160a01b031690565b5f6111d6611ebe565b6111e1848484612533565b90505b9392505050565b5f6111f4611ebe565b506001600160a01b03165f9081526008602052604090205490565b5f611218611ebe565b610b158261122461258a565b906125ae565b6060611234611ebe565b61123c6125c2565b6112446124ba565b8461124e81611f1b565b85611258816125ee565b6001600160a01b0387165f818152600560209081526040808320815160c0810183526060808252818501869052818401869052808201819052608082015260a081018590529484526003835292819020805482518185028101850190935280835293949391929091908301828280156112f857602002820191905f5260205f20905b81546001600160a01b031681526001909101906020018083116112da575b505050828452505051604082018190526001600160401b0381111561131f5761131f6157af565b604051908082528060200260200182016040528015611348578160200160208202803683370190505b5060808201525f805b826040015181101561139d575f8181526020859052604090205461137490612210565b8360800151828151811061138a5761138a616231565b6020908102919091010152600101611351565b506113b582608001516113af8c6121b5565b8a612616565b955081604001516001600160401b038111156113d3576113d36157af565b6040519080825280602002602001820160405280156113fc578160200160208202803683370190505b50606083015261142061141061116f6126bd565b8b6114196126e1565b9190612705565b15801560a0840152611453576001600160a01b038a165f9081526020819052604090205461144d90612004565b60208301525b5f5b8260400151811015611639578260a00151156115055761149b836020015188838151811061148557611485616231565b602002602001015161272090919063ffffffff16565b836060015182815181106114b1576114b1616231565b602002602001018181525050826060015181815181106114d3576114d3616231565b60200260200101518782815181106114ed576114ed616231565b6020026020010181815161150191906162a9565b9052505b87818151811061151757611517616231565b602002602001015187828151811061153157611531616231565b602002602001015110156115ab57825180518290811061155357611553616231565b602002602001015187828151811061156d5761156d616231565b602002602001015189838151811061158757611587616231565b60200260200101516040516317bc2f2360e11b8152600401610eae939291906162bc565b6115ea835f015182815181106115c3576115c3616231565b60200260200101518883815181106115dd576115dd616231565b602002602001015161274c565b8681815181106115fc576115fc616231565b60200260200101518360800151828151811061161a5761161a616231565b6020026020010181815161162e91906162a9565b905250600101611455565b506001600160a01b038a165f908152600560205260408120905b83604001518110156116b857815f8281526020019081526020015f205492506116a28460800151828151811061168b5761168b616231565b60200260200101518461276b90919063ffffffff16565b5f82815260208490526040902055600101611653565b506116c58b8b338c61277f565b6116cd6127ca565b156116dd576116dd8b8b8b6127e5565b6116e88b8b8b612846565b5f8a6001600160a01b03168c6001600160a01b03167ffbe5b0d79fb94f1e81c0a92bf86ae9d3a19e9d1bf6202c0d3e75120f65d5d8a56117278f6121b5565b606088015160405161173b92918e916162dd565b60405180910390a45050505050506117516124f8565b949350505050565b5f611762611ebe565b5060095461010090046001600160a01b031690565b5f611780611ebe565b610b1561178e61116f6126bd565b836114196126e1565b5f6117a0611ebe565b816117aa81611ef0565b6001600160a01b0383165f9081526020819052604090205461175181612004565b5f6117d4611ebe565b6109706007546129b9565b5f6117e8611ebe565b6117f06125c2565b866117fa81611ef0565b6118026124ba565b61180b886129c3565b5f611817896001611f43565b9050611825815f01516129d4565b15611845578860405163218e374760e01b8152600401610eae919061579b565b60208101515186516118589082906129ef565b5f6118768360c001518460a001518a612a0f9092919063ffffffff16565b9050611884835f0151612b01565b156118ec576001600160a01b03808c165f908152600260205260409020546118b0918391899116612b5d565b6001600160a01b038b165f9081526005602052604090206118d49084906001612bec565b60c083015160a08401516118e9918a91612a0f565b90505b6118fb8b8b858c8c868d612c74565b9450611909835f0151612f65565b15611936576001600160a01b03808c165f908152600260205260409020541661193482878984612f8a565b505b5050506119416124f8565b509695505050505050565b5f611955611ebe565b8161195f81611ef0565b6108cb8361301b565b5f611971611ebe565b610b158261303c565b611982611ebe565b3361198c81611ef0565b83336001600160a01b03167f4bc4412e210115456903c65b5277d299a505e79f2eb852b92b1ca52d8585642885856040516119c8929190616307565b60405180910390a350505050565b60606119e0611ebe565b816119ea81611ef0565b6001600160a01b0383165f9081526003602090815260409182902080548351818402810184019094528084529091830182828015611a4f57602002820191905f5260205f20905b81546001600160a01b03168152600190910190602001808311611a31575b5050505050915050919050565b611a646154f2565b611a6c611ebe565b81611a7681611ef0565b6001600160a01b038084165f9081526002602090815260408083205491839052909120546108cb9290911661305d565b5f610970613126565b5f611ab8611ebe565b61097061116f613138565b5f611acc611ebe565b611ad83385858561315c565b5060019392505050565b5f611aeb611ebe565b610b15826121b5565b611afc6124ba565b60405163eeec802f60e01b8152309063eeec802f90611b2d908b908b908b908b908b908b908b908b906004016163fe565b5f604051808303815f87803b158015611b44575f5ffd5b505af1158015611b56573d5f5f3e3d5ffd5b50505050611b626124f8565b5050505050505050565b604080516060810182525f8082526020820181905291810191909152611b90611ebe565b81611b9a81611ef0565b50506001600160a01b039081165f90815260016020818152604092839020835160608101855281548616815292810154851691830191909152600201549092169082015290565b6060611beb61222f565b611bf3611ebe565b6111e483838080601f0160208091040260200160405190810160405280939291908181526020018383808284375f92019190915250339392505061328b9050565b611c3c611ebe565b611c446124ba565b611c4c613298565b611cb6886040518060e001604052808a81526020018981526020018863ffffffff168152602001871515815260200186803603810190611c8c91906164ab565b81526001600160a01b0386166020820152604001611caf3686900386018661651c565b90526132be565b611b626124f8565b604080516101c0810182525f6101408201818152610160830182905261018083018290526101a08301829052825260208201819052918101829052606081018290526080810182905260a0810182905260c0810182905260e081018290526101008101829052610120810191909152611d35611ebe565b81611d3f81611ef0565b6001600160a01b0383165f90815260208190526040908190205481516101c081019092529080610140810180611d7485613baa565b158152602001611d8385613bc0565b15158152602001611d9385613bcf565b15158152602001611da385613bde565b151590528152602001611db583612004565b8152602001611dc383613bed565b8152602001611dd183613cd5565b8152602001611ddf83613dbf565b64ffffffffff168152602001611df483613eb7565b63ffffffff168152602001611e08836129b9565b15158152602001611e18836129d4565b15158152602001611e2883613fbb565b15158152602001611e3883613fca565b15159052949350505050565b5f611e4d611ebe565b6001600160a01b038084165f908152600f60209081526040808320938616835292905220546111e4565b7f000000000000000000000000000000000000000000000000000000000000000090565b365f5f375f5f365f845af43d5f5f3e808015611eb5573d5ff35b3d5ffd5b505050565b61085e7f00000000000000000000000000000000000000000000000000000000000000006001600160a01b0316613fd9565b611ef98161303c565b611f1857806040516327946f5760e21b8152600401610eae919061579b565b50565b611f24816121ef565b611f185780604051634bdace1360e01b8152600401610eae919061579b565b611f4b615496565b6001600160a01b0383165f9081526005602090815260408083208383528184205460048452828520600390945291909320610b1593859390929187614002565b6001600160a01b0381165f90815260208190526040812054819081611faf82613fbb565b90505f611fbb83613eb7565b9050818015611ff95750611fef7f0000000000000000000000000000000000000000000000000000000000000000826161c5565b63ffffffff164211155b969095509350505050565b5f64174876e8006120e0612019836001616583565b612024906001616583565b61202f906001616583565b61203a906001616583565b612045906001616583565b612050906001616583565b61205b906001616583565b612066906001616583565b612071906001616583565b61207c906001616583565b612087906001616583565b612092906001616583565b61209d906001616583565b6120a8906001616583565b6120b3906001616583565b6120be906001616583565b6120c9906001616583565b6120d4906001616583565b849060ff1660186143ae565b610b15919061659c565b5f5f5f836001600160a01b031663a0e8f5ac8888886040518463ffffffff1660e01b815260040161211d939291906165b3565b6040805180830381865afa158015612137573d5f5f3e3d5ffd5b505050506040513d601f19601f8201168201806040525081019061215b919061665f565b90925090508115155f03612182576040516314fe5db560e21b815260040160405180910390fd5b670de0b5cad2bef0008111156121ab576040516301d1b96560e61b815260040160405180910390fd5b9695505050505050565b6001600160a01b03165f9081526011602052604090205490565b5f806121e3670de0b6b3a76400008561659c565b905061089c838261668b565b6001600160a01b0381165f908152602081905260408120546108cb816129d4565b6001600160801b031690565b5f5f61222783611f8b565b509392505050565b32155f03612250576040516333fc255960e11b815260040160405180910390fd5b5f61225c6007546129b9565b9050801561227d57604051633d0cc44360e11b815260040160405180910390fd5b611f18600161228a61250f565b906143bc565b6060826122a5576122a0826143c3565b6111e4565b81511580156122bc57506001600160a01b0384163b155b156122dc5783604051639996b31560e01b8152600401610eae919061579b565b50806111e4565b5f6004825110156123075760405163a728568960e01b815260040160405180910390fd5b506020015190565b80511561231f5780518082602001fd5b60405163a728568960e01b815260040160405180910390fd5b60605f826001600160401b03811115612353576123536157af565b60405190808252806020026020018201604052801561237c578160200160208202803683370190505b5090505f61238985613dbf565b64ffffffffff1690505f5b848110156123e7575f6123b46123ab60058461659c565b849060056143ae565b90506123c181600a61678d565b8483815181106123d3576123d3616231565b602090810291909101015250600101612394565b5090949350505050565b80515f908181600181111561240857612408615609565b0361241d57670de0b6b3a764000091506108ce565b600181600181111561243157612431615609565b036124a15782602001516001600160a01b031663679aefce6040518163ffffffff1660e01b8152600401602060405180830381865afa158015612476573d5f5f3e3d5ffd5b505050506040513d601f19601f8201168201806040525081019061249a919061620b565b91506108ce565b604051636fa2831960e11b815260040160405180910390fd5b6124c2613126565b156124e057604051633ee5aeb560e01b815260040160405180910390fd5b61085e60015f516020616a7d5f395f51905f5261228a565b61085e5f5f516020616a7d5f395f51905f5261228a565b7f000000000000000000000000000000000000000000000000000000000000000090565b5f816001600160a01b0316836001600160a01b03160361255557505f196111e4565b506001600160a01b038084165f90815260106020908152604080832086851684528252808320938516835292905220546111e4565b7f000000000000000000000000000000000000000000000000000000000000000090565b5f6111e461116f6125bf85856143ec565b90565b6125cd61116f61250f565b15155f0361085e5760405163604dd39b60e11b815260040160405180910390fd5b6125f78161301b565b611f18578060405163ef029adf60e01b8152600401610eae919061579b565b606083516001600160401b03811115612631576126316157af565b60405190808252806020026020018201604052801561265a578160200160208202803683370190505b5090505f5b845181101561222757838386838151811061267c5761267c616231565b602002602001015161268e919061659c565b612698919061668b565b8282815181106126aa576126aa616231565b602090810291909101015260010161265f565b7f000000000000000000000000000000000000000000000000000000000000000090565b7f000000000000000000000000000000000000000000000000000000000000000090565b5f6111e161116f6125bf8461271a88886143ec565b906143ec565b5f8061272c838561659c565b90506001670de0b6b3a76400006001830304018115150291505092915050565b61276782612759836143fd565b61276290616798565b614407565b5050565b5f6111e48261277a8560801c90565b614475565b5f61278b858585612533565b90505f198114610efd57808211156127bc57828183604051637dc7a0d960e11b8152600401610eae939291906162bc565b610efd85858585850361315c565b5f3215801561097057506127df6007546129b9565b15905090565b32155f03612806576040516333fc255960e11b815260040160405180910390fd5b6001600160a01b038084165f908152600f602090815260408083209386168352929052908120805483929061283c9084906167b2565b9091555050505050565b6001600160a01b03821661286f5781604051634b637e8f60e11b8152600401610eae919061579b565b6001600160a01b038084165f908152600f6020908152604080832093861683529290522054808211156128bb5782818360405163391434e360e21b8152600401610eae939291906162bc565b6001600160a01b038085165f818152600f60209081526040808320948816835293815283822086860390559181526011909152908120546128fd9084906162a9565b9050612908816144b9565b6001600160a01b0385165f81815260116020526040808220849055516323de665160e01b81526323de6651916129459188919088906004016167c5565b5f604051808303815f87803b15801561295c575f5ffd5b505af192505050801561296d575060015b505f6001600160a01b0316846001600160a01b0316866001600160a01b03165f516020616a5d5f395f51905f52866040516129aa91815260200190565b60405180910390a45050505050565b5f60018216610b15565b6129cb613298565b611f18816144e0565b5f610b156129e3826001616583565b839060ff161c60011690565b8082146127675760405163aaad13f760e01b815260040160405180910390fd5b60605f84519050612a238185518551614509565b5f816001600160401b03811115612a3c57612a3c6157af565b604051908082528060200260200182016040528015612a65578160200160208202803683370190505b5090505f5b82811015612af757612ad2868281518110612a8757612a87616231565b6020026020010151868381518110612aa157612aa1616231565b6020026020010151898481518110612abb57612abb616231565b60200260200101516145369092919063ffffffff16565b828281518110612ae457612ae4616231565b6020908102919091010152600101612a6a565b5095945050505050565b5f610b15612b10826001616583565b612b1b906001616583565b612b26906001616583565b612b31906001616583565b612b3c906001616583565b612b47906001616583565b612b52906001616583565b6129e3906001616583565b60405163038293c560e31b81526001600160a01b03821690631c149e2890612b8b90869086906004016167e9565b6020604051808303815f875af1158015612ba7573d5f5f3e3d5ffd5b505050506040513d601f19601f82011682018060405250810190612bcb919061680d565b15155f03611eb957604051636061292560e01b815260040160405180910390fd5b6020830151515f805b8281101561115357612c2386604001518281518110612c1657612c16616231565b60200260200101516123f1565b8660a001518281518110612c3957612c39616231565b602002602001018181525050845f8281526020019081526020015f20549150612c6c8682612c6685612210565b8761454b565b600101612bf5565b6001600160a01b0387165f908152600560205260408120815b876020015151811015612d9e575f88602001518281518110612cb157612cb1616231565b60200260200101519050878281518110612ccd57612ccd616231565b60200260200101516001600160a01b0316816001600160a01b031614612d28578a888381518110612d0057612d00616231565b6020026020010151826040516001621d9e5f60e01b03198152600401610eae93929190616828565b612d4b81888481518110612d3e57612d3e616231565b6020026020010151614608565b612d87878381518110612d6057612d60616231565b6020026020010151878481518110612d7a57612d7a616231565b6020026020010151614475565b5f8381526020859052604090205550600101612c8d565b508651612dac906001614615565b8088526001600160a01b038a165f8181526020819052604090819020929092559051631309bd3d60e31b815263984de9e890612def9087906001906004016161e1565b602060405180830381865afa158015612e0a573d5f5f3e3d5ffd5b505050506040513d601f19601f82011682018060405250810190612e2e919061620b565b9150612e39826144b9565b612e46620f4240836162a9565b9150612e5189614637565b612e5c898984614713565b82821015612e8757604051638d261d5d60e01b81526004810183905260248101849052604401610eae565b6001886001600160a01b03168a6001600160a01b03167fa26a52d8d53702bba7f137907b8e1f99ff87f6d450144270ca25e72481cca871612ec78d6121b5565b898c60200151516001600160401b03811115612ee557612ee56157af565b604051908082528060200260200182016040528015612f0e578160200160208202803683370190505b50604051612f1e939291906162dd565b60405180910390a46040516001600160a01b038a16907fcad8c9d32507393b6508ca4a888b81979919b477510585bde8488f153072d6f3905f90a250979650505050505050565b5f610b15612f74826001616583565b612f7f906001616583565b612b10906001616583565b6040516338be241d60e01b81526001600160a01b038216906338be241d90612fba9087908790879060040161684b565b6020604051808303815f875af1158015612fd6573d5f5f3e3d5ffd5b505050506040513d601f19601f82011682018060405250810190612ffa919061680d565b15155f03610eff57604051630791ede360e11b815260040160405180910390fd5b6001600160a01b0381165f90815260208190526040812054610b1590613fca565b6001600160a01b0381165f908152602081905260408120546108cb816129b9565b6130656154f2565b60405180610160016040528061307a8561482e565b1515815260200161308a85612b01565b1515815260200161309a85612f65565b151581526020016130aa8561483d565b151581526020016130ba85614857565b151581526020016130ca85614871565b151581526020016130da8561488b565b151581526020016130ea856148a5565b151581526020016130fa856148bf565b1515815260200161310a856148d9565b15158152602001836001600160a01b0316815250905092915050565b5f516020616a7d5f395f51905f525c90565b7f000000000000000000000000000000000000000000000000000000000000000090565b6001600160a01b038316613185578260405163e602df0560e01b8152600401610eae919061579b565b6001600160a01b0382166131ae5781604051634a1406b160e11b8152600401610eae919061579b565b6001600160a01b038085165f8181526010602090815260408083208886168452825280832094871683529390528290208390559051630ad0fe5760e31b8152635687f2b890613205908690869086906004016167c5565b5f604051808303815f87803b15801561321c575f5ffd5b505af192505050801561322d575060015b50816001600160a01b0316836001600160a01b0316856001600160a01b03167fa0175360a15bca328baf7ea85c7b784d58b222a50d0ce760b10dba336d226a618460405161327d91815260200190565b60405180910390a450505050565b60606111e483835f6148f3565b6132a0614989565b1561085e576040516336a7e2cd60e21b815260040160405180910390fd5b6132c78261303c565b156132e757816040516301b6ee3960e71b8152600401610eae919061579b565b805151600281101561330c57604051635ed4ba8f60e01b815260040160405180910390fd5b600881111561332e57604051630e0f7beb60e31b815260040160405180910390fd5b5f816001600160401b03811115613347576133476157af565b604051908082528060200260200182016040528015613370578160200160208202803683370190505b5090505f805b838110156136d8575f855f0151828151811061339457613394616231565b602090810291909101015180519091506001600160a01b03811615806133cb5750876001600160a01b0316816001600160a01b0316145b156133e95760405163c1ab6dc160e01b815260040160405180910390fd5b836001600160a01b0316816001600160a01b0316101561341c57604051636e8f194760e01b815260040160405180910390fd5b836001600160a01b0316816001600160a01b03160361345057806040516327a5b1a760e11b8152600401610eae919061579b565b5f5f6001600160a01b031683604001516001600160a01b03161415905060405180606001604052808460200151600181111561348e5761348e615609565b81526040808601516001600160a01b0390811660208085019190915260608801511515938301939093528c81165f9081526004845282812091871681529252902081518154829060ff1916600183818111156134ec576134ec615609565b0217905550602082015181546040909301511515600160a81b0260ff60a81b196001600160a01b039092166101000291909116610100600160b01b0319909316929092179190911790555f8360200151600181111561354d5761354d615609565b0361358257808061355f575082606001515b1561357d57604051636fa2831960e11b815260040160405180910390fd5b6135da565b60018360200151600181111561359a5761359a615609565b036135c1578015155f0361357d57604051636fa2831960e11b815260040160405180910390fd5b60405163a1e9dd9d60e01b815260040160405180910390fd5b5f826001600160a01b031663313ce5676040518163ffffffff1660e01b8152600401602060405180830381865afa158015613617573d5f5f3e3d5ffd5b505050506040513d601f19601f8201168201806040525081019061363b9190616875565b9050601260ff821611156136625760405163686d360760e01b815260040160405180910390fd5b8060120387868151811061367857613678616231565b60ff9092166020928302919091018201526001600160a01b038b81165f90815260038352604081208054600180820183559183529390912090920180546001600160a01b0319169186169190911790559295505050919091019050613376565b506080840180516001600160a01b038781165f818152600160208181526040808420875181549088166001600160a01b031991821617825592880151938101805494881694841694909417909355958601516002909201805492861692909116919091179055600a54945184015160608a015194516377ff76e760e01b8152600481019390935283166024830152921515604482015291928392839291909116906377ff76e79060640160408051808303815f875af115801561379d573d5f5f3e3d5ffd5b505050506040513d601f19601f820116820180604052508101906137c19190616895565b90925090506137d18360016149c6565b60c0880151519093506137e59084906149d3565b92506138028760c001516020015184614a0490919063ffffffff16565b925061381f8760c001516040015184614a1f90919063ffffffff16565b925061383c8760c001516060015184614a3a90919063ffffffff16565b925061385161384a86614a55565b8490614aa6565b925061386a876040015184614ba790919063ffffffff16565b92506138768383614cb3565b92506138828382614dd1565b60a08801519093506001600160a01b031615613ad65760a0870151875160c08901516040516305c4f8c160e11b81526001600160a01b0390931692630b89f182926138d59233928e9291906004016168b7565b6020604051808303815f875af11580156138f1573d5f5f3e3d5ffd5b505050506040513d601f19601f82011682018060405250810190613915919061680d565b15155f03613940578660a001518833604051633ea4f60560e21b8152600401610eae93929190616828565b5f8760a001516001600160a01b031663d77153a76040518163ffffffff1660e01b815260040161014060405180830381865afa158015613982573d5f5f3e3d5ffd5b505050506040513d601f19601f820116820180604052508101906139a691906168f1565b805190915080156139ba575060c088015151155b156139e2578760a001518933604051633ea4f60560e21b8152600401610eae93929190616828565b80516139ef908590614ef0565b9350613a08816020015185614f1690919063ffffffff16565b9350613a21816040015185614f2690919063ffffffff16565b9350613a3a816060015185614f4190919063ffffffff16565b9350613a53816080015185614f5c90919063ffffffff16565b9350613a6c8160a0015185614f7790919063ffffffff16565b9350613a858160c0015185614f9290919063ffffffff16565b9350613a9e8160e0015185614fad90919063ffffffff16565b9350613ab881610100015185614fc890919063ffffffff16565b9350613ad281610120015185614fe390919063ffffffff16565b9350505b50506001600160a01b038681165f9081526020818152604080832085905560a089015160028352922080546001600160a01b0319169290931691909117909155850151613b24908790614ffe565b336001600160a01b0316866001600160a01b03167fbc1561eeab9f40962e2fb827a7ff9c7cdb47a9d7c84caeefa4ed90e043842dad875f0151886020015189604001518a60800151613b838c60a001518961305d90919063ffffffff16565b8c60c00151604051613b9a969594939291906169bb565b60405180910390a3505050505050565b5f613bb9612b3c826001616583565b1592915050565b5f610b15612b31826001616583565b5f610b15612b26826001616583565b5f610b15612b1b826001616583565b5f64174876e8006120e06018613c04846001616583565b613c0f906001616583565b613c1a906001616583565b613c25906001616583565b613c30906001616583565b613c3b906001616583565b613c46906001616583565b613c51906001616583565b613c5c906001616583565b613c67906001616583565b613c72906001616583565b613c7d906001616583565b613c88906001616583565b613c93906001616583565b613c9e906001616583565b613ca9906001616583565b613cb4906001616583565b613cbf906001616583565b60ff16613ccc91906167b2565b849060186143ae565b5f64174876e8006120e0601880613ced856001616583565b613cf8906001616583565b613d03906001616583565b613d0e906001616583565b613d19906001616583565b613d24906001616583565b613d2f906001616583565b613d3a906001616583565b613d45906001616583565b613d50906001616583565b613d5b906001616583565b613d66906001616583565b613d71906001616583565b613d7c906001616583565b613d87906001616583565b613d92906001616583565b613d9d906001616583565b613da8906001616583565b60ff16613db591906167b2565b613ccc91906167b2565b5f610b1560188080613dd2856001616583565b613ddd906001616583565b613de8906001616583565b613df3906001616583565b613dfe906001616583565b613e09906001616583565b613e14906001616583565b613e1f906001616583565b613e2a906001616583565b613e35906001616583565b613e40906001616583565b613e4b906001616583565b613e56906001616583565b613e61906001616583565b613e6c906001616583565b613e77906001616583565b613e82906001616583565b613e8d906001616583565b60ff16613e9a91906167b2565b613ea491906167b2565b613eae91906167b2565b839060286143ae565b5f610b15602860188080613ecc866001616583565b613ed7906001616583565b613ee2906001616583565b613eed906001616583565b613ef8906001616583565b613f03906001616583565b613f0e906001616583565b613f19906001616583565b613f24906001616583565b613f2f906001616583565b613f3a906001616583565b613f45906001616583565b613f50906001616583565b613f5b906001616583565b613f66906001616583565b613f71906001616583565b613f7c906001616583565b613f87906001616583565b60ff16613f9491906167b2565b613f9e91906167b2565b613fa891906167b2565b613fb291906167b2565b839060206143ae565b5f610b15612b52826001616583565b5f610b15612b47826001616583565b306001600160a01b03821614611f1857604051634fe92d9b60e11b815260040160405180910390fd5b815484875260408051602080840282018101909252828152908490839083018282801561405657602002820191905f5260205f20905b81546001600160a01b03168152600190910190602001808311614038575b50505050508760200181905250806001600160401b0381111561407b5761407b6157af565b6040519080825280602002602001820160405280156140b457816020015b6140a16154d2565b8152602001906001900390816140995790505b506040880152806001600160401b038111156140d2576140d26157af565b6040519080825280602002602001820160405280156140fb578160200160208202803683370190505b506060880152806001600160401b03811115614119576141196157af565b604051908082528060200260200182016040528015614142578160200160208202803683370190505b50608088015286516141549082612338565b60c0880152806001600160401b03811115614171576141716157af565b60405190808252806020026020018201604052801561419a578160200160208202803683370190505b5060a088015286515f906141ad906129d4565b80156141c357505f6141c1895f0151613cd5565b115b80156141d7575087516141d590613fca565b155b90505f5b828110156143a3575f865f8b6020015184815181106141fc576141fc616231565b6020908102919091018101516001600160a01b0316825281019190915260409081015f208151606081019092528054829060ff16600181111561424157614241615609565b600181111561425257614252615609565b8152905461010081046001600160a01b0316602080840191909152600160a81b90910460ff1615156040928301525f858152908c905281902054908c015180519293509091839190859081106142aa576142aa616231565b60200260200101819052506142be826123f1565b8b60a0015184815181106142d4576142d4616231565b6020026020010181815250506142f48b846142ee84612210565b8961454b565b8315155f0361430457505061439b565b5f82604001518015614328575060018351600181111561432657614326615609565b145b90508015614397575f61433d8d5f0151613cd5565b90505f8d60600151868151811061435657614356616231565b602002602001015190505f6143768f61436f8760801c90565b8986615172565b90508015614393576143938f8861438d84866162a9565b8d61454b565b5050505b5050505b6001016141db565b505050505050505050565b6001901b5f190191901c1690565b80825d5050565b8051156143d35780518082602001fd5b60405163d6bda27560e01b815260040160405180910390fd5b5f9081526020919091526040902090565b5f610b1582615207565b805f03614412575050565b5f61441f8361122461258a565b90505f61442c8383616a0b565b9050805f0361444a57614445614440613138565b61521b565b614461565b815f036144615761446161445c613138565b615231565b610eff848261446e61258a565b9190615240565b5f6001600160801b0383118061449157506001600160801b0382115b156144af576040516389560ca160e01b815260040160405180910390fd5b6111e48383615251565b620f4240811015611f18576040516334e3483f60e21b815260048101829052602401610eae565b6144e98161221c565b15611f18578060405163d971f59760e01b8152600401610eae919061579b565b81831415806145185750808214155b15611eb95760405163aaad13f760e01b815260040160405180910390fd5b5f6111e182614545858761659c565b90615260565b818460600151848151811061456257614562616231565b602090810291909101015261554d5f82600181111561458357614583615609565b1461459057614536614594565b6152805b90506145df838660c0015186815181106145b0576145b0616231565b60200260200101518760a0015187815181106145ce576145ce616231565b60200260200101518463ffffffff16565b856080015185815181106145f5576145f5616231565b6020026020010181815250505050505050565b61276782612762836143fd565b5f6111e482614625836001616583565b60ff1690811b600190911b1985161790565b6001600160a01b0381165f9081526011602052604081208054620f424092906146619084906167b2565b90915550506001600160a01b0381165f818152600f6020908152604080832083805282528083208054620f424090810190915590519081529192839290915f516020616a5d5f395f51905f52910160405180910390a46040516323de665160e01b81526001600160a01b038216906323de6651906146ea905f908190620f4240906004016167c5565b5f604051808303815f87803b158015614701575f5ffd5b505af1158015610efd573d5f5f3e3d5ffd5b6001600160a01b03821661473c578160405163ec442f0560e01b8152600401610eae919061579b565b6001600160a01b0383165f9081526011602052604081205461475f9083906167b2565b6001600160a01b038086165f908152600f602090815260408083209388168352929052208054840190559050614794816144b9565b6001600160a01b038481165f81815260116020908152604080832086905551868152938716939192915f516020616a5d5f395f51905f52910160405180910390a46040516323de665160e01b81526001600160a01b038516906323de665190614805905f90879087906004016167c5565b5f604051808303815f87803b15801561481c575f5ffd5b505af1158015611b62573d5f5f3e3d5ffd5b5f610b15612f7f826001616583565b5f610b1561484c826001616583565b612f74906001616583565b5f610b15614866826001616583565b61484c906001616583565b5f610b15614880826001616583565b614866906001616583565b5f610b1561489a826001616583565b614880906001616583565b5f610b156148b4826001616583565b61489a906001616583565b5f610b156148ce826001616583565b6148b4906001616583565b5f610b156148e8826001616583565b6148ce906001616583565b60608147101561491f5760405163cf47918160e01b815247600482015260248101839052604401610eae565b5f5f856001600160a01b0316848660405161493a9190616a32565b5f6040518083038185875af1925050503d805f8114614974576040519150601f19603f3d011682016040523d82523d5f602084013e614979565b606091505b50915091506121ab868383612290565b5f7f000000000000000000000000000000000000000000000000000000000000000063ffffffff1642111580156109705750610970600754615295565b5f600119831682176111e4565b5f6111e4826149e3836001616583565b6149ee906001616583565b6149f9906001616583565b614625906001616583565b5f6111e482614a14836001616583565b6149e3906001616583565b5f6111e482614a2f836001616583565b614a14906001616583565b5f6111e482614a4a836001616583565b614a2f906001616583565b5f80805b835181101561089f57614a9c848281518110614a7757614a77616231565b602002602001015160ff16600560ff1683614a92919061659c565b84919060056152ad565b9150600101614a59565b5f6111e464ffffffffff831660188080614ac1866001616583565b614acc906001616583565b614ad7906001616583565b614ae2906001616583565b614aed906001616583565b614af8906001616583565b614b03906001616583565b614b0e906001616583565b614b19906001616583565b614b24906001616583565b614b2f906001616583565b614b3a906001616583565b614b45906001616583565b614b50906001616583565b614b5b906001616583565b614b66906001616583565b614b71906001616583565b614b7c906001616583565b60ff16614b8991906167b2565b614b9391906167b2565b614b9d91906167b2565b85919060286152ad565b5f6111e463ffffffff8316602860188080614bc3876001616583565b614bce906001616583565b614bd9906001616583565b614be4906001616583565b614bef906001616583565b614bfa906001616583565b614c05906001616583565b614c10906001616583565b614c1b906001616583565b614c26906001616583565b614c31906001616583565b614c3c906001616583565b614c47906001616583565b614c52906001616583565b614c5d906001616583565b614c68906001616583565b614c73906001616583565b614c7e906001616583565b60ff16614c8b91906167b2565b614c9591906167b2565b614c9f91906167b2565b614ca991906167b2565b85919060206152ad565b5f670de0b5cad2bef000821115614cdd576040516301d1b96560e61b815260040160405180910390fd5b614cec64174876e8008361668b565b91506111e4826018614cff5f6001616583565b614d0a906001616583565b614d15906001616583565b614d20906001616583565b614d2b906001616583565b614d36906001616583565b614d41906001616583565b614d4c906001616583565b614d57906001616583565b614d62906001616583565b614d6d906001616583565b614d78906001616583565b614d83906001616583565b614d8e906001616583565b614d99906001616583565b614da4906001616583565b614daf906001616583565b614dba906001616583565b60ff16614dc791906167b2565b85919060186152ad565b5f670de0b5cad2bef000821115614dfb576040516301d1b96560e61b815260040160405180910390fd5b614e0a64174876e8008361668b565b91506111e482601880614e1e5f6001616583565b614e29906001616583565b614e34906001616583565b614e3f906001616583565b614e4a906001616583565b614e55906001616583565b614e60906001616583565b614e6b906001616583565b614e76906001616583565b614e81906001616583565b614e8c906001616583565b614e97906001616583565b614ea2906001616583565b614ead906001616583565b614eb8906001616583565b614ec3906001616583565b614ece906001616583565b614ed9906001616583565b60ff16614ee691906167b2565b614dc791906167b2565b5f6111e482614f00836001616583565b614f0b906001616583565b614a4a906001616583565b5f6111e482614f0b836001616583565b5f6111e482614f36836001616583565b614f00906001616583565b5f6111e482614f51836001616583565b614f36906001616583565b5f6111e482614f6c836001616583565b614f51906001616583565b5f6111e482614f87836001616583565b614f6c906001616583565b5f6111e482614fa2836001616583565b614f87906001616583565b5f6111e482614fbd836001616583565b614fa2906001616583565b5f6111e482614fd8836001616583565b614fbd906001616583565b5f6111e482614ff3836001616583565b614fd8906001616583565b816001600160a01b031663ce20ece76040518163ffffffff1660e01b8152600401602060405180830381865afa15801561503a573d5f5f3e3d5ffd5b505050506040513d601f19601f8201168201806040525081019061505e919061620b565b81101561507e576040516317f640d160e31b815260040160405180910390fd5b816001600160a01b031663654cf15d6040518163ffffffff1660e01b8152600401602060405180830381865afa1580156150ba573d5f5f3e3d5ffd5b505050506040513d601f19601f820116820180604052508101906150de919061620b565b8111156150fe57604051637f47834b60e01b815260040160405180910390fd5b6001600160a01b0382165f9081526020819052604090205461512090826152ce565b6001600160a01b0383165f8181526020818152604091829020939093555183815290917f89d41522342fabac1471ca6073a5623e5caf367b03ca6e9a001478d0cf8be4a1910160405180910390a25050565b5f5f8560800151848151811061518a5761518a616231565b60200260200101519050848111156151fe575f6151a986830385612720565b90506151fa8760c0015186815181106151c4576151c4616231565b60200260200101518860a0015187815181106151e2576151e2616231565b6020026020010151836153e09092919063ffffffff16565b9250505b50949350505050565b5f5f8212615213575090565b61099a6153f4565b611f1861522a6001835c6162a9565b82906143bc565b611f1861522a825c60016167b2565b611eb98161228a6125bf86866143ec565b5f6111e483608084901b6167b2565b5f8061526c838561659c565b905061089c670de0b6b3a76400008261668b565b5f6111e18261528f858761659c565b90612720565b5f610b156152a48260016167b2565b83901c60011690565b5f6152b9848484615401565b506001901b5f1901811b1992909216911b1790565b5f670de0b5cad2bef0008211156152f8576040516301d1b96560e61b815260040160405180910390fd5b61530764174876e8008361668b565b91506111e4826153185f6001616583565b615323906001616583565b61532e906001616583565b615339906001616583565b615344906001616583565b61534f906001616583565b61535a906001616583565b615365906001616583565b615370906001616583565b61537b906001616583565b615386906001616583565b615391906001616583565b61539c906001616583565b6153a7906001616583565b6153b2906001616583565b6153bd906001616583565b6153c8906001616583565b6153d3906001616583565b85919060ff1660186152ad565b5f6111e1846153ef848661659c565b6121cf565b6335278d125f526004601cfd5b610100821061542357604051632d0483c560e21b815260040160405180910390fd5b60018110158015615449575061544560ff615440846101006162a9565b615487565b8111155b61546657604051632d0483c560e21b815260040160405180910390fd5b82811c15611eb95760405163e4337c0560e01b815260040160405180910390fd5b5f8183118284180283186111e4565b6040518060e001604052805f81526020016060815260200160608152602001606081526020016060815260200160608152602001606081525090565b6040805160608101909152805f81525f6020820181905260409091015290565b60408051610160810182525f80825260208201819052918101829052606081018290526080810182905260a0810182905260c0810182905260e081018290526101008101829052610120810182905261014081019190915290565b61085e616a48565b6001600160a01b0381168114611f18575f5ffd5b803561099a81615555565b5f5f60408385031215615585575f5ffd5b823561559081615555565b915060208301356155a081615555565b809150509250929050565b5f602082840312156155bb575f5ffd5b81356111e481615555565b5f8151808452602084019350602083015f5b828110156155ff5781516001600160a01b03168652602095860195909101906001016155d8565b5093949350505050565b634e487b7160e01b5f52602160045260245ffd5b60028110611f1857634e487b7160e01b5f52602160045260245ffd5b5f81516156458161561d565b8352506020818101516001600160a01b03169083015260409081015115159082015260600190565b5f8151808452602084019350602083015f5b828110156155ff57615692868351615639565b95506020919091019060010161567f565b5f8151808452602084019350602083015f5b828110156155ff5781518652602095860195909101906001016156b5565b60208152815160208201525f602083015160e060408401526156f96101008401826155c6565b90506040840151601f19848303016060850152615716828261566d565b9150506060840151601f1984830301608085015261573482826156a3565b9150506080840151601f198483030160a085015261575282826156a3565b91505060a0840151601f198483030160c085015261577082826156a3565b91505060c0840151601f198483030160e0850152610aaa82826156a3565b6001600160a01b03169052565b6001600160a01b0391909116815260200190565b634e487b7160e01b5f52604160045260245ffd5b60405160e081016001600160401b03811182821017156157e5576157e56157af565b60405290565b604051608081016001600160401b03811182821017156157e5576157e56157af565b60405161014081016001600160401b03811182821017156157e5576157e56157af565b604051601f8201601f191681016001600160401b0381118282101715615858576158586157af565b604052919050565b60028110611f18575f5ffd5b803561099a81615860565b5f6001600160401b0382111561588f5761588f6157af565b5060051b60200190565b5f82601f8301126158a8575f5ffd5b81356158bb6158b682615877565b615830565b8082825260208201915060208360051b8601019250858311156158dc575f5ffd5b602085015b83811015612af75780358352602092830192016158e1565b5f82601f830112615908575f5ffd5b81356001600160401b03811115615921576159216157af565b615934601f8201601f1916602001615830565b818152846020838601011115615948575f5ffd5b816020850160208301375f918101602001919091529392505050565b5f5f60408385031215615975575f5ffd5b823561598081615555565b915060208301356001600160401b0381111561599a575f5ffd5b830160e081860312156159ab575f5ffd5b6159b36157c3565b6159bc8261586c565b81526020828101359082015260408201356001600160401b038111156159e0575f5ffd5b6159ec87828501615899565b6040830152506060828101359082015260808083013590820152615a1260a08301615569565b60a082015260c08201356001600160401b03811115615a2f575f5ffd5b615a3b878285016158f9565b60c08301525080925050509250929050565b602081525f6111e460208301846156a3565b5f5f83601f840112615a6f575f5ffd5b5081356001600160401b03811115615a85575f5ffd5b602083019150836020828501011115615a9c575f5ffd5b9250929050565b5f5f60208385031215615ab4575f5ffd5b82356001600160401b03811115615ac9575f5ffd5b615ad585828601615a5f565b90969095509350505050565b608081525f615af360808301876155c6565b82810360208401528086518083526020830191506020880192505f5b81811015615b3357615b22838551615639565b602094909401939250600101615b0f565b50508381036040850152615b4781876156a3565b9150508281036060840152615b5c81856156a3565b979650505050505050565b604081525f615b7960408301856156a3565b8281036020840152610aaa81856156a3565b5f5f5f5f5f5f60c08789031215615ba0575f5ffd5b8635615bab81615555565b95506020870135615bbb81615555565b945060408701356001600160401b03811115615bd5575f5ffd5b8701601f81018913615be5575f5ffd5b8035615bf36158b682615877565b8082825260208201915060208360051b85010192508b831115615c14575f5ffd5b6020840193505b82841015615c3f578335615c2e81615555565b825260209384019390910190615c1b565b965050505060608701356001600160401b03811115615c5c575f5ffd5b615c6889828a01615899565b9350506080870135915060a08701356001600160401b03811115615c8a575f5ffd5b615c9689828a016158f9565b9150509295509295509295565b5f5f5f60608486031215615cb5575f5ffd5b8335615cc081615555565b92506020840135615cd081615555565b91506040840135615ce081615555565b809150509250925092565b5f5f5f5f60808587031215615cfe575f5ffd5b8435615d0981615555565b93506020850135615d1981615555565b92506040850135915060608501356001600160401b03811115615d3a575f5ffd5b615d4687828801615899565b91505092959194509250565b5f5f5f60408486031215615d64575f5ffd5b8335925060208401356001600160401b03811115615d80575f5ffd5b615d8c86828701615a5f565b9497909650939450505050565b602081525f6111e460208301846155c6565b8051151582526020810151615dc4602084018215159052565b506040810151615dd8604084018215159052565b506060810151615dec606084018215159052565b506080810151615e00608084018215159052565b5060a0810151615e1460a084018215159052565b5060c0810151615e2860c084018215159052565b5060e0810151615e3c60e084018215159052565b50610100810151615e5261010084018215159052565b50610120810151615e6861012084018215159052565b50610140810151611eb961014084018261578e565b6101608101610b158284615dab565b5f5f5f60608486031215615e9e575f5ffd5b8335615ea981615555565b92506020840135615eb981615555565b929592945050506040919091013590565b8015158114611f18575f5ffd5b803561099a81615eca565b803563ffffffff8116811461099a575f5ffd5b5f606082840312156108ce575f5ffd5b5f608082840312156108ce575f5ffd5b5f5f5f5f5f5f5f5f6101a0898b031215615f2d575f5ffd5b8835615f3881615555565b975060208901356001600160401b03811115615f52575f5ffd5b8901601f81018b13615f62575f5ffd5b8035615f706158b682615877565b8082825260208201915060208360071b85010192508d831115615f91575f5ffd5b6020840193505b82841015616011576080848f031215615faf575f5ffd5b615fb76157eb565b8435615fc281615555565b81526020850135615fd281615860565b60208201526040850135615fe581615555565b60408201526060850135615ff881615eca565b6060820152825260809390930192602090910190615f98565b99505050506040890135955061602960608a01615ee2565b945061603760808a01615ed7565b93506160468a60a08b01615ef5565b92506160556101008a01615569565b91506160658a6101208b01615f05565b90509295985092959890939650565b80516001600160a01b03908116835260208083015182169084015260409182015116910152565b60608101610b158284616074565b5f81518084528060208401602086015e5f602082860101526020601f19601f83011685010191505092915050565b602081525f6111e460208301846160a9565b8051151582526020810151151560208301526040810151151560408301526060810151151560608301525050565b5f6101a08201905061612a8284516160e9565b60208301516080830152604083015160a0830152606083015160c0830152608083015161616060e084018264ffffffffff169052565b5060a083015163ffffffff166101008381019190915260c084015115156101208085019190915260e0850151151561014085015290840151151561016084015283015180151561018084015261089f565b634e487b7160e01b5f52601160045260245ffd5b63ffffffff8181168382160190811115610b1557610b156161b1565b604081525f6161f360408301856156a3565b90506161fe8361561d565b8260208301529392505050565b5f6020828403121561621b575f5ffd5b5051919050565b818382375f9101908152919050565b634e487b7160e01b5f52603260045260245ffd5b6001600160a01b0387811682528616602082015260c0604082018190525f90616270908301876155c6565b828103606084015261628281876156a3565b905084608084015282810360a084015261629c81856160a9565b9998505050505050505050565b81810381811115610b1557610b156161b1565b6001600160a01b039390931683526020830191909152604082015260600190565b838152606060208201525f6162f560608301856156a3565b82810360408401526121ab81856156a3565b60208152816020820152818360408301375f818301604090810191909152601f909201601f19160101919050565b5f8151808452602084019350602083015f5b828110156155ff57815180516001600160a01b03168752602081015161636c8161561d565b6020888101919091526040828101516001600160a01b0316908901526060918201511515918801919091526080909601959190910190600101616347565b80356163b581615eca565b1515825260208101356163c781615eca565b1515602083015260408101356163dc81615eca565b1515604083015260608101356163f181615eca565b8015156060840152505050565b6001600160a01b03891681526101a0602082018190525f906164229083018a616335565b905087604083015263ffffffff871660608301528515156080830152843561644981615555565b6001600160a01b031660a0830152602085013561646581615555565b6001600160a01b031660c0830152604085013561648181615555565b6001600160a01b031660e083015261649d61010083018561578e565b61629c6101208301846163aa565b5f60608284031280156164bc575f5ffd5b50604051606081016001600160401b03811182821017156164df576164df6157af565b60405282356164ed81615555565b815260208301356164fd81615555565b6020820152604083013561651081615555565b60408201529392505050565b5f608082840312801561652d575f5ffd5b506165366157eb565b823561654181615eca565b8152602083013561655181615eca565b6020820152604083013561656481615eca565b6040820152606083013561657781615eca565b60608201529392505050565b60ff8181168382160190811115610b1557610b156161b1565b8082028115828204841417610b1557610b156161b1565b606081525f84516165c38161561d565b606083015260208501516080830152604085015160e060a08401526165ec6101408401826156a3565b606087015160c085810191909152608088015160e086015260a08801516001600160a01b0316610100860152870151848203605f190161012086015290915061663582826160a9565b92505050616646602083018561578e565b826040830152949350505050565b805161099a81615eca565b5f5f60408385031215616670575f5ffd5b825161667b81615eca565b6020939093015192949293505050565b5f826166a557634e487b7160e01b5f52601260045260245ffd5b500490565b6001815b60018411156166e5578085048111156166c9576166c96161b1565b60018416156166d757908102905b60019390931c9280026166ae565b935093915050565b5f826166fb57506001610b15565b8161670757505f610b15565b816001811461671d576002811461672757616743565b6001915050610b15565b60ff841115616738576167386161b1565b50506001821b610b15565b5060208310610133831016604e8410600b8410161715616766575081810a610b15565b6167725f1984846166aa565b805f1904821115616785576167856161b1565b029392505050565b5f6111e483836166ed565b5f600160ff1b82016167ac576167ac6161b1565b505f0390565b80820180821115610b1557610b156161b1565b6001600160a01b039384168152919092166020820152604081019190915260600190565b604081525f6167fb60408301856156a3565b8281036020840152610aaa81856160a9565b5f6020828403121561681d575f5ffd5b81516111e481615eca565b6001600160a01b0393841681529183166020830152909116604082015260600190565b606081525f61685d60608301866156a3565b84602084015282810360408401526121ab81856160a9565b5f60208284031215616885575f5ffd5b815160ff811681146111e4575f5ffd5b5f5f604083850312156168a6575f5ffd5b505080516020909101519092909150565b6001600160a01b0385811682528416602082015260e0604082018190525f906168e290830185616335565b9050610aaa60608301846160e9565b5f610140828403128015616903575f5ffd5b5061690c61580d565b61691583616654565b815261692360208401616654565b602082015261693460408401616654565b604082015261694560608401616654565b606082015261695660808401616654565b608082015261696760a08401616654565b60a082015261697860c08401616654565b60c082015261698960e08401616654565b60e082015261699b6101008401616654565b6101008201526169ae6101208401616654565b6101208201529392505050565b6102a081525f6169cf6102a0830189616335565b905086602083015263ffffffff861660408301526169f06060830186616074565b6169fd60c0830185615dab565b615b5c6102208301846160e9565b8082018281125f831280158216821582161715616a2a57616a2a6161b1565b505092915050565b5f82518060208501845e5f920191825250919050565b634e487b7160e01b5f52605160045260245ffdfed1398bee19313d6bf672ccb116e51f4a1a947e91c757907f51fbb5b5e56c698f9b779b17422d0df92223018b32b4d1fa46e071723d6817e2486d003becc55f00a2646970667358221220e7063f770abd6de8915663b840ce572954216a36877e714e6743788d18b56aee64736f6c634300081e0033","linkReferences":{}},"methodIdentifiers":{"allowance(address,address,address)":"927da105","approve(address,address,uint256)":"e1f21c67","balanceOf(address,address)":"f7888aec","computeDynamicSwapFeePercentage(address,(uint8,uint256,uint256[],uint256,uint256,address,bytes))":"4d472bdd","emitAuxiliaryEvent(bytes32,bytes)":"c8088247","getAddLiquidityCalledFlag(address)":"ace9b89b","getAggregateSwapFeeAmount(address,address)":"85e0b999","getAggregateYieldFeeAmount(address,address)":"00fdfa13","getAuthorizer()":"aaabadc5","getBptRate(address)":"4f037ee7","getCurrentLiveBalances(address)":"535cfd8a","getERC4626BufferAsset(address)":"4afbaf5a","getHooksConfig(address)":"ce8630d4","getNonzeroDeltaCount()":"db817187","getPoolConfig(address)":"f29486a1","getPoolData(address)":"13d21cdf","getPoolPausedState(address)":"15e32046","getPoolRoleAccounts(address)":"e9ddeb26","getPoolTokenInfo(address)":"67e0e076","getPoolTokenRates(address)":"7e361bde","getPoolTokens(address)":"ca4f2803","getProtocolFeeController()":"85f2dbd4","getReservesOf(address)":"96787092","getStaticSwapFeePercentage(address)":"b45090f9","getTokenDelta(address)":"9e825ff5","getVaultAdmin()":"1ba0ae45","initialize(address,address,address[],uint256[],uint256,bytes)":"ba8a2be0","isERC4626BufferInitialized(address)":"6844846b","isPoolInRecoveryMode(address)":"be7d628a","isPoolInitialized(address)":"532cec7c","isPoolPaused(address)":"6c9bc732","isPoolRegistered(address)":"c673bdaf","isQueryDisabled()":"b4aef0ab","isQueryDisabledPermanently()":"13ef8a5d","isUnlocked()":"8380edb7","manualInitializePoolReentrancy(address,address,address[],uint256[],uint256,bytes)":"809846d1","manualRegisterPoolReentrancy(address,(address,uint8,address,bool)[],uint256,uint32,bool,(address,address,address),address,(bool,bool,bool,bool))":"e68010c6","mockExtensionHash(bytes)":"590e8145","quote(bytes)":"edfa3568","quoteAndRevert(bytes)":"757d64b3","reentrancyGuardEntered()":"d2c725e0","registerPool(address,(address,uint8,address,bool)[],uint256,uint32,bool,(address,address,address),address,(bool,bool,bool,bool))":"eeec802f","removeLiquidityRecovery(address,address,uint256,uint256[])":"a07d6040","totalSupply(address)":"e4dc2aa4","vault()":"fbfa77cf"},"id":955}