{"abi":[{"type":"constructor","inputs":[{"name":"vault","type":"address","internalType":"contract IVault"}],"stateMutability":"nonpayable"},{"type":"function","name":"getActionId","inputs":[{"name":"selector","type":"bytes4","internalType":"bytes4"}],"outputs":[{"name":"","type":"bytes32","internalType":"bytes32"}],"stateMutability":"view"},{"type":"function","name":"getAuthorizer","inputs":[],"outputs":[{"name":"","type":"address","internalType":"contract IAuthorizer"}],"stateMutability":"view"},{"type":"function","name":"getVault","inputs":[],"outputs":[{"name":"","type":"address","internalType":"contract IVault"}],"stateMutability":"view"},{"type":"function","name":"swapModifier","inputs":[{"name":"pool","type":"address","internalType":"address"}],"outputs":[],"stateMutability":"nonpayable"},{"type":"error","name":"SenderNotAllowed","inputs":[]},{"type":"error","name":"VaultNotSet","inputs":[]}],"bytecode":{"object":"0x60c060405234801561000f575f5ffd5b506040516105e93803806105e983398101604081905261002e91610074565b306080819052819081906001600160a01b03821661005f57604051630647140b60e51b815260040160405180910390fd5b506001600160a01b031660a052506100a19050565b5f60208284031215610084575f5ffd5b81516001600160a01b038116811461009a575f5ffd5b9392505050565b60805160a05161051a6100cf5f395f818160aa015281816101ae01526102ba01525f61014b015261051a5ff3fe608060405234801561000f575f5ffd5b506004361061004a575f3560e01c806343612af51461004e578063851c1bb3146100635780638d928af814610089578063aaabadc51461009e575b5f5ffd5b61006161005c3660046103d0565b6100a6565b005b6100766100713660046103f2565b610148565b6040519081526020015b60405180910390f35b6100916101ac565b6040516100809190610419565b6100916101d5565b805f7f00000000000000000000000000000000000000000000000000000000000000006001600160a01b031663e9ddeb26836040518263ffffffff1660e01b81526004016100f49190610419565b606060405180830381865afa15801561010f573d5f5f3e3d5ffd5b505050506040513d601f19601f82011682018060405250810190610133919061042d565b602001519050610143828261023d565b505050565b5f7f00000000000000000000000000000000000000000000000000000000000000008260405160200161018f9291909182526001600160e01b031916602082015260240190565b604051602081830303815290604052805190602001209050919050565b7f000000000000000000000000000000000000000000000000000000000000000090565b905090565b5f6101de6101ac565b6001600160a01b031663aaabadc56040518163ffffffff1660e01b8152600401602060405180830381865afa158015610219573d5f5f3e3d5ffd5b505050506040513d601f19601f820116820180604052508101906101d091906104aa565b6001600160a01b03811661028e576102696102625f356001600160e01b031916610148565b33846102b7565b15155f0361028a576040516323dada5360e01b815260040160405180910390fd5b5050565b336001600160a01b0382161461028a576040516323dada5360e01b815260040160405180910390fd5b5f7f00000000000000000000000000000000000000000000000000000000000000006001600160a01b031663aaabadc56040518163ffffffff1660e01b8152600401602060405180830381865afa158015610314573d5f5f3e3d5ffd5b505050506040513d601f19601f8201168201806040525081019061033891906104aa565b6040516326f8aa2160e21b8152600481018690526001600160a01b03858116602483015284811660448301529190911690639be2a88490606401602060405180830381865afa15801561038d573d5f5f3e3d5ffd5b505050506040513d601f19601f820116820180604052508101906103b191906104c5565b949350505050565b6001600160a01b03811681146103cd575f5ffd5b50565b5f602082840312156103e0575f5ffd5b81356103eb816103b9565b9392505050565b5f60208284031215610402575f5ffd5b81356001600160e01b0319811681146103eb575f5ffd5b6001600160a01b0391909116815260200190565b5f606082840312801561043e575f5ffd5b50604051606081016001600160401b038111828210171561046d57634e487b7160e01b5f52604160045260245ffd5b604052825161047b816103b9565b8152602083015161048b816103b9565b6020820152604083015161049e816103b9565b60408201529392505050565b5f602082840312156104ba575f5ffd5b81516103eb816103b9565b5f602082840312156104d5575f5ffd5b815180151581146103eb575f5ffdfea26469706673582212201150e242b59a24ac0bfaf161625ff931f7d0ca2148f8861a78fc3cb6b95b78b464736f6c634300081e0033","linkReferences":{}},"methodIdentifiers":{"getActionId(bytes4)":"851c1bb3","getAuthorizer()":"aaabadc5","getVault()":"8d928af8","swapModifier(address)":"43612af5"},"id":387}