{"abi":[{"type":"constructor","inputs":[{"name":"vault","type":"address","internalType":"contract IVault"},{"name":"weth","type":"address","internalType":"contract IWETH"},{"name":"permit2","type":"address","internalType":"contract IPermit2"},{"name":"routerVersion","type":"string","internalType":"string"}],"stateMutability":"nonpayable"},{"type":"receive","stateMutability":"payable"},{"type":"function","name":"addLiquidityHook","inputs":[{"name":"params","type":"tuple","internalType":"struct AddLiquidityHookParams","components":[{"name":"sender","type":"address","internalType":"address"},{"name":"pool","type":"address","internalType":"address"},{"name":"maxAmountsIn","type":"uint256[]","internalType":"uint256[]"},{"name":"minBptAmountOut","type":"uint256","internalType":"uint256"},{"name":"kind","type":"uint8","internalType":"enum AddLiquidityKind"},{"name":"wethIsEth","type":"bool","internalType":"bool"},{"name":"userData","type":"bytes","internalType":"bytes"}]}],"outputs":[{"name":"amountsIn","type":"uint256[]","internalType":"uint256[]"},{"name":"bptAmountOut","type":"uint256","internalType":"uint256"},{"name":"returnData","type":"bytes","internalType":"bytes"}],"stateMutability":"nonpayable"},{"type":"function","name":"addLiquidityUnbalanced","inputs":[{"name":"pool","type":"address","internalType":"address"},{"name":"deadline","type":"uint256","internalType":"uint256"},{"name":"wethIsEth","type":"bool","internalType":"bool"},{"name":"params","type":"tuple","internalType":"struct IUnbalancedAddViaSwapRouter.AddLiquidityAndSwapParams","components":[{"name":"exactBptAmountOut","type":"uint256","internalType":"uint256"},{"name":"exactToken","type":"address","internalType":"contract IERC20"},{"name":"exactAmount","type":"uint256","internalType":"uint256"},{"name":"maxAdjustableAmount","type":"uint256","internalType":"uint256"},{"name":"addLiquidityUserData","type":"bytes","internalType":"bytes"},{"name":"swapUserData","type":"bytes","internalType":"bytes"}]}],"outputs":[{"name":"amountsIn","type":"uint256[]","internalType":"uint256[]"}],"stateMutability":"payable"},{"type":"function","name":"addLiquidityUnbalancedHook","inputs":[{"name":"hookParams","type":"tuple","internalType":"struct IUnbalancedAddViaSwapRouter.AddLiquidityAndSwapHookParams","components":[{"name":"pool","type":"address","internalType":"address"},{"name":"sender","type":"address","internalType":"address"},{"name":"deadline","type":"uint256","internalType":"uint256"},{"name":"wethIsEth","type":"bool","internalType":"bool"},{"name":"operationParams","type":"tuple","internalType":"struct IUnbalancedAddViaSwapRouter.AddLiquidityAndSwapParams","components":[{"name":"exactBptAmountOut","type":"uint256","internalType":"uint256"},{"name":"exactToken","type":"address","internalType":"contract IERC20"},{"name":"exactAmount","type":"uint256","internalType":"uint256"},{"name":"maxAdjustableAmount","type":"uint256","internalType":"uint256"},{"name":"addLiquidityUserData","type":"bytes","internalType":"bytes"},{"name":"swapUserData","type":"bytes","internalType":"bytes"}]}]}],"outputs":[{"name":"amountsIn","type":"uint256[]","internalType":"uint256[]"}],"stateMutability":"nonpayable"},{"type":"function","name":"getPermit2","inputs":[],"outputs":[{"name":"","type":"address","internalType":"contract IPermit2"}],"stateMutability":"view"},{"type":"function","name":"getSender","inputs":[],"outputs":[{"name":"","type":"address","internalType":"address"}],"stateMutability":"view"},{"type":"function","name":"getVault","inputs":[],"outputs":[{"name":"","type":"address","internalType":"contract IVault"}],"stateMutability":"view"},{"type":"function","name":"getWeth","inputs":[],"outputs":[{"name":"","type":"address","internalType":"contract IWETH"}],"stateMutability":"view"},{"type":"function","name":"initializeHook","inputs":[{"name":"params","type":"tuple","internalType":"struct InitializeHookParams","components":[{"name":"sender","type":"address","internalType":"address"},{"name":"pool","type":"address","internalType":"address"},{"name":"tokens","type":"address[]","internalType":"contract IERC20[]"},{"name":"exactAmountsIn","type":"uint256[]","internalType":"uint256[]"},{"name":"minBptAmountOut","type":"uint256","internalType":"uint256"},{"name":"wethIsEth","type":"bool","internalType":"bool"},{"name":"userData","type":"bytes","internalType":"bytes"}]}],"outputs":[{"name":"bptAmountOut","type":"uint256","internalType":"uint256"}],"stateMutability":"nonpayable"},{"type":"function","name":"multicall","inputs":[{"name":"data","type":"bytes[]","internalType":"bytes[]"}],"outputs":[{"name":"results","type":"bytes[]","internalType":"bytes[]"}],"stateMutability":"payable"},{"type":"function","name":"permitBatchAndCall","inputs":[{"name":"permitBatch","type":"tuple[]","internalType":"struct IRouterCommon.PermitApproval[]","components":[{"name":"token","type":"address","internalType":"address"},{"name":"owner","type":"address","internalType":"address"},{"name":"spender","type":"address","internalType":"address"},{"name":"amount","type":"uint256","internalType":"uint256"},{"name":"nonce","type":"uint256","internalType":"uint256"},{"name":"deadline","type":"uint256","internalType":"uint256"}]},{"name":"permitSignatures","type":"bytes[]","internalType":"bytes[]"},{"name":"permit2Batch","type":"tuple","internalType":"struct IAllowanceTransfer.PermitBatch","components":[{"name":"details","type":"tuple[]","internalType":"struct IAllowanceTransfer.PermitDetails[]","components":[{"name":"token","type":"address","internalType":"address"},{"name":"amount","type":"uint160","internalType":"uint160"},{"name":"expiration","type":"uint48","internalType":"uint48"},{"name":"nonce","type":"uint48","internalType":"uint48"}]},{"name":"spender","type":"address","internalType":"address"},{"name":"sigDeadline","type":"uint256","internalType":"uint256"}]},{"name":"permit2Signature","type":"bytes","internalType":"bytes"},{"name":"multicallData","type":"bytes[]","internalType":"bytes[]"}],"outputs":[{"name":"","type":"bytes[]","internalType":"bytes[]"}],"stateMutability":"payable"},{"type":"function","name":"queryAddLiquidityHook","inputs":[{"name":"params","type":"tuple","internalType":"struct AddLiquidityHookParams","components":[{"name":"sender","type":"address","internalType":"address"},{"name":"pool","type":"address","internalType":"address"},{"name":"maxAmountsIn","type":"uint256[]","internalType":"uint256[]"},{"name":"minBptAmountOut","type":"uint256","internalType":"uint256"},{"name":"kind","type":"uint8","internalType":"enum AddLiquidityKind"},{"name":"wethIsEth","type":"bool","internalType":"bool"},{"name":"userData","type":"bytes","internalType":"bytes"}]}],"outputs":[{"name":"amountsIn","type":"uint256[]","internalType":"uint256[]"},{"name":"bptAmountOut","type":"uint256","internalType":"uint256"},{"name":"returnData","type":"bytes","internalType":"bytes"}],"stateMutability":"nonpayable"},{"type":"function","name":"queryAddLiquidityUnbalanced","inputs":[{"name":"pool","type":"address","internalType":"address"},{"name":"sender","type":"address","internalType":"address"},{"name":"params","type":"tuple","internalType":"struct IUnbalancedAddViaSwapRouter.AddLiquidityAndSwapParams","components":[{"name":"exactBptAmountOut","type":"uint256","internalType":"uint256"},{"name":"exactToken","type":"address","internalType":"contract IERC20"},{"name":"exactAmount","type":"uint256","internalType":"uint256"},{"name":"maxAdjustableAmount","type":"uint256","internalType":"uint256"},{"name":"addLiquidityUserData","type":"bytes","internalType":"bytes"},{"name":"swapUserData","type":"bytes","internalType":"bytes"}]}],"outputs":[{"name":"amountsIn","type":"uint256[]","internalType":"uint256[]"}],"stateMutability":"nonpayable"},{"type":"function","name":"queryAddLiquidityUnbalancedHook","inputs":[{"name":"params","type":"tuple","internalType":"struct IUnbalancedAddViaSwapRouter.AddLiquidityAndSwapHookParams","components":[{"name":"pool","type":"address","internalType":"address"},{"name":"sender","type":"address","internalType":"address"},{"name":"deadline","type":"uint256","internalType":"uint256"},{"name":"wethIsEth","type":"bool","internalType":"bool"},{"name":"operationParams","type":"tuple","internalType":"struct IUnbalancedAddViaSwapRouter.AddLiquidityAndSwapParams","components":[{"name":"exactBptAmountOut","type":"uint256","internalType":"uint256"},{"name":"exactToken","type":"address","internalType":"contract IERC20"},{"name":"exactAmount","type":"uint256","internalType":"uint256"},{"name":"maxAdjustableAmount","type":"uint256","internalType":"uint256"},{"name":"addLiquidityUserData","type":"bytes","internalType":"bytes"},{"name":"swapUserData","type":"bytes","internalType":"bytes"}]}]}],"outputs":[{"name":"amountsIn","type":"uint256[]","internalType":"uint256[]"}],"stateMutability":"nonpayable"},{"type":"function","name":"queryRemoveLiquidityHook","inputs":[{"name":"params","type":"tuple","internalType":"struct RemoveLiquidityHookParams","components":[{"name":"sender","type":"address","internalType":"address"},{"name":"pool","type":"address","internalType":"address"},{"name":"minAmountsOut","type":"uint256[]","internalType":"uint256[]"},{"name":"maxBptAmountIn","type":"uint256","internalType":"uint256"},{"name":"kind","type":"uint8","internalType":"enum RemoveLiquidityKind"},{"name":"wethIsEth","type":"bool","internalType":"bool"},{"name":"userData","type":"bytes","internalType":"bytes"}]}],"outputs":[{"name":"bptAmountIn","type":"uint256","internalType":"uint256"},{"name":"amountsOut","type":"uint256[]","internalType":"uint256[]"},{"name":"returnData","type":"bytes","internalType":"bytes"}],"stateMutability":"nonpayable"},{"type":"function","name":"queryRemoveLiquidityRecoveryHook","inputs":[{"name":"pool","type":"address","internalType":"address"},{"name":"sender","type":"address","internalType":"address"},{"name":"exactBptAmountIn","type":"uint256","internalType":"uint256"}],"outputs":[{"name":"amountsOut","type":"uint256[]","internalType":"uint256[]"}],"stateMutability":"nonpayable"},{"type":"function","name":"querySwapHook","inputs":[{"name":"params","type":"tuple","internalType":"struct SwapSingleTokenHookParams","components":[{"name":"sender","type":"address","internalType":"address"},{"name":"kind","type":"uint8","internalType":"enum SwapKind"},{"name":"pool","type":"address","internalType":"address"},{"name":"tokenIn","type":"address","internalType":"contract IERC20"},{"name":"tokenOut","type":"address","internalType":"contract IERC20"},{"name":"amountGiven","type":"uint256","internalType":"uint256"},{"name":"limit","type":"uint256","internalType":"uint256"},{"name":"deadline","type":"uint256","internalType":"uint256"},{"name":"wethIsEth","type":"bool","internalType":"bool"},{"name":"userData","type":"bytes","internalType":"bytes"}]}],"outputs":[{"name":"","type":"uint256","internalType":"uint256"}],"stateMutability":"nonpayable"},{"type":"function","name":"removeLiquidityHook","inputs":[{"name":"params","type":"tuple","internalType":"struct RemoveLiquidityHookParams","components":[{"name":"sender","type":"address","internalType":"address"},{"name":"pool","type":"address","internalType":"address"},{"name":"minAmountsOut","type":"uint256[]","internalType":"uint256[]"},{"name":"maxBptAmountIn","type":"uint256","internalType":"uint256"},{"name":"kind","type":"uint8","internalType":"enum RemoveLiquidityKind"},{"name":"wethIsEth","type":"bool","internalType":"bool"},{"name":"userData","type":"bytes","internalType":"bytes"}]}],"outputs":[{"name":"bptAmountIn","type":"uint256","internalType":"uint256"},{"name":"amountsOut","type":"uint256[]","internalType":"uint256[]"},{"name":"returnData","type":"bytes","internalType":"bytes"}],"stateMutability":"nonpayable"},{"type":"function","name":"removeLiquidityRecoveryHook","inputs":[{"name":"pool","type":"address","internalType":"address"},{"name":"sender","type":"address","internalType":"address"},{"name":"exactBptAmountIn","type":"uint256","internalType":"uint256"},{"name":"minAmountsOut","type":"uint256[]","internalType":"uint256[]"}],"outputs":[{"name":"amountsOut","type":"uint256[]","internalType":"uint256[]"}],"stateMutability":"nonpayable"},{"type":"function","name":"swapSingleTokenHook","inputs":[{"name":"params","type":"tuple","internalType":"struct SwapSingleTokenHookParams","components":[{"name":"sender","type":"address","internalType":"address"},{"name":"kind","type":"uint8","internalType":"enum SwapKind"},{"name":"pool","type":"address","internalType":"address"},{"name":"tokenIn","type":"address","internalType":"contract IERC20"},{"name":"tokenOut","type":"address","internalType":"contract IERC20"},{"name":"amountGiven","type":"uint256","internalType":"uint256"},{"name":"limit","type":"uint256","internalType":"uint256"},{"name":"deadline","type":"uint256","internalType":"uint256"},{"name":"wethIsEth","type":"bool","internalType":"bool"},{"name":"userData","type":"bytes","internalType":"bytes"}]}],"outputs":[{"name":"","type":"uint256","internalType":"uint256"}],"stateMutability":"nonpayable"},{"type":"function","name":"version","inputs":[],"outputs":[{"name":"","type":"string","internalType":"string"}],"stateMutability":"view"},{"type":"error","name":"AddressEmptyCode","inputs":[{"name":"target","type":"address","internalType":"address"}]},{"type":"error","name":"AmountInAboveMaxAdjustableAmount","inputs":[{"name":"amountIn","type":"uint256","internalType":"uint256"},{"name":"maxAdjustableAmount","type":"uint256","internalType":"uint256"}]},{"type":"error","name":"AmountInDoesNotMatchExact","inputs":[{"name":"amountIn","type":"uint256","internalType":"uint256"},{"name":"exactAmount","type":"uint256","internalType":"uint256"}]},{"type":"error","name":"ErrorSelectorNotFound","inputs":[]},{"type":"error","name":"EthTransfer","inputs":[]},{"type":"error","name":"FailedCall","inputs":[]},{"type":"error","name":"InputLengthMismatch","inputs":[]},{"type":"error","name":"InsufficientBalance","inputs":[{"name":"balance","type":"uint256","internalType":"uint256"},{"name":"needed","type":"uint256","internalType":"uint256"}]},{"type":"error","name":"InsufficientEth","inputs":[]},{"type":"error","name":"InsufficientPayment","inputs":[{"name":"token","type":"address","internalType":"contract IERC20"}]},{"type":"error","name":"NotTwoTokenPool","inputs":[]},{"type":"error","name":"OperationNotSupported","inputs":[]},{"type":"error","name":"ReentrancyGuardReentrantCall","inputs":[]},{"type":"error","name":"SenderIsNotVault","inputs":[{"name":"sender","type":"address","internalType":"address"}]},{"type":"error","name":"SwapDeadline","inputs":[]}],"bytecode":{"object":"0x600b6101409081526a14d95b99195c91dd585c9960aa1b610160526101c060405260066101809081526539b2b73232b960d11b6101a052610040919061010e565b608052604080518082018252600c81526b2937baba32b921b7b6b6b7b760a11b602080830191909152825180840190935260118352701a5cd4995d1d5c9b915d1a131bd8dad959607a1b908301526100979161010e565b60c0523480156100a5575f5ffd5b50604051614b7e380380614b7e8339810160408190526100c4916101b7565b6001600160a01b03841660a0528383838383838383806100e38161017d565b50506001600160a01b0391821660e05216610100819052156101205250610463975050505050505050565b5f60ff5f1b19600184846040516020016101299291906102b8565b604051602081830303815290604052805190602001205f1c61014b9190610306565b60405160200161015d91815260200190565b604051602081830303815290604052805190602001201690505b92915050565b5f61018882826103a9565b5050565b6001600160a01b03811681146101a0575f5ffd5b50565b634e487b7160e01b5f52604160045260245ffd5b5f5f5f5f608085870312156101ca575f5ffd5b84516101d58161018c565b60208601519094506101e68161018c565b60408601519093506101f78161018c565b60608601519092506001600160401b03811115610212575f5ffd5b8501601f81018713610222575f5ffd5b80516001600160401b0381111561023b5761023b6101a3565b604051601f8201601f19908116603f011681016001600160401b0381118282101715610269576102696101a3565b604052818152828201602001891015610280575f5ffd5b8160208401602083015e5f6020838301015280935050505092959194509250565b5f81518060208401855e5f93019283525090919050565b7f62616c616e6365722d6c6162732e76332e73746f726167652e0000000000000081525f6102e960198301856102a1565b601760f91b81526102fd60018201856102a1565b95945050505050565b8181038181111561017757634e487b7160e01b5f52601160045260245ffd5b600181811c9082168061033957607f821691505b60208210810361035757634e487b7160e01b5f52602260045260245ffd5b50919050565b601f8211156103a457805f5260205f20601f840160051c810160208510156103825750805b601f840160051c820191505b818110156103a1575f815560010161038e565b50505b505050565b81516001600160401b038111156103c2576103c26101a3565b6103d6816103d08454610325565b8461035d565b6020601f821160018114610408575f83156103f15750848201515b5f19600385901b1c1916600184901b1784556103a1565b5f84815260208120601f198516915b828110156104375787850151825560209485019460019092019101610417565b508482101561045457868401515f19600387901b60f8161c191681555b50505050600190811b01905550565b60805160a05160c05160e05161010051610120516145bc6105c25f395f818161043e0152818161078f0152818161133401526116a201525f81816101e00152818161102a0152612a1d01525f81816101010152818161018501528181611373015281816116eb015281816119060152818161298c015281816129ca01528181612dc00152612dfe01525f611e5b01525f818161030d015281816106100152818161095301528181610bfd01528181610c51015281816110ab0152818161124b015281816113fd0152818161151f01528181611606015281816117a80152818161196301528181611b0601528181611c1e01528181611ca001528181611d5f01528181611f36015281816120d4015281816122690152818161242801528181612685015281816129eb01528181612a4d01528181612af501528181612b7d01528181612e1f01528181612e5c0152612ef201525f6114f801526145bc5ff3fe6080604052600436106100f1575f3560e01c8063086fad6614610145578063107c279f1461017757806319c6989f146101b25780631bbf2e23146101d257806354fd4d50146102045780635b343791146102255780635e01eb5a146102535780635f9815ff1461026757806368a24fe0146102935780637b03c7ba146102b257806382cd54fb146102e05780638d928af8146102ff578063aba40fa714610331578063ac9650d814610344578063b24bd57114610357578063b5696b8514610376578063be5ae84114610395578063c1e85fb0146103b4578063d2ae94ac146103d3578063efd85f14146103f2575f5ffd5b3661014157336001600160a01b037f0000000000000000000000000000000000000000000000000000000000000000161461013f576040516302a06efb60e11b815260040160405180910390fd5b005b5f5ffd5b348015610150575f5ffd5b5061016461015f3660046133cf565b610411565b6040519081526020015b60405180910390f35b348015610182575f5ffd5b507f00000000000000000000000000000000000000000000000000000000000000005b60405161016e919061340d565b6101c56101c03660046134f5565b61043a565b60405161016e9190613618565b3480156101dd575f5ffd5b507f00000000000000000000000000000000000000000000000000000000000000006101a5565b34801561020f575f5ffd5b506102186104a2565b60405161016e919061367b565b348015610230575f5ffd5b5061024461023f3660046133cf565b610531565b60405161016e939291906136c7565b34801561025e575f5ffd5b506101a5610564565b348015610272575f5ffd5b5061028661028136600461371a565b610579565b60405161016e9190613758565b34801561029e575f5ffd5b506101646102ad36600461376a565b610598565b3480156102bd575f5ffd5b506102d16102cc3660046133cf565b6105b2565b60405161016e939291906137a1565b3480156102eb575f5ffd5b506102866102fa366004613859565b6105cf565b34801561030a575f5ffd5b507f00000000000000000000000000000000000000000000000000000000000000006101a5565b61028661033f36600461393b565b6105ff565b6101c56103523660046139a0565b610743565b348015610362575f5ffd5b506102d16103713660046133cf565b6108df565b348015610381575f5ffd5b506102866103903660046139de565b610901565b3480156103a0575f5ffd5b506101646103af36600461376a565b610928565b3480156103bf575f5ffd5b506102866103ce366004613a14565b610942565b3480156103de575f5ffd5b506102866103ed3660046139de565b610a8e565b3480156103fd575f5ffd5b5061024461040c3660046133cf565b610b95565b5f61041a610bab565b610422610bf2565b61042b82610c46565b9050610435610dcf565b919050565b60607f00000000000000000000000000000000000000000000000000000000000000001561047b576040516329a270f560e01b815260040160405180910390fd5b61048a8a8a8a8a8a8a8a610de6565b6104948383610743565b9a9950505050505050505050565b60605f80546104b090613a71565b80601f01602080910402602001604051908101604052809291908181526020018280546104dc90613a71565b80156105275780601f106104fe57610100808354040283529160200191610527565b820191905f5260205f20905b81548152906001019060200180831161050a57829003601f168201915b5050505050905090565b60605f606061053e610bab565b610546610bf2565b61054f846110a4565b92509250925061055d610dcf565b9193909250565b5f6105746105706114f6565b5c90565b905090565b6060610583610bf2565b61058e84848461151a565b90505b9392505050565b5f6105a1610bab565b6105a9610bf2565b61042b8261168c565b5f6060806105be610bab565b6105c6610bf2565b61054f8461195d565b60606105d9610bab565b6105e1610bf2565b6105ed85858585611c04565b90506105f7610dcf565b949350505050565b6060335f61060c82611e10565b90507f00000000000000000000000000000000000000000000000000000000000000006001600160a01b03166348c894916040518060a001604052808a6001600160a01b03168152602001336001600160a01b0316815260200189815260200188151581526020018761067e90613b16565b90526040516106909190602401613bb1565b60408051601f198184030181529181526020820180516001600160e01b03166334aba52b60e21b179052516001600160e01b031960e084901b1681526106d9919060040161367b565b5f604051808303815f875af11580156106f4573d5f5f3e3d5ffd5b505050506040513d5f823e601f3d908101601f1916820160405261071b9190810190613caf565b80602001905181019061072e9190613d45565b925061073981611e44565b5050949350505050565b60605f61074f33611e10565b905061075c610570611e59565b1561077a57604051633ee5aeb560e01b815260040160405180910390fd5b61078d6001610787611e59565b90611e7d565b7f0000000000000000000000000000000000000000000000000000000000000000156107cc576040516329a270f560e01b815260040160405180910390fd5b826001600160401b038111156107e4576107e46137cb565b60405190808252806020026020018201604052801561081757816020015b60608152602001906001900390816108025790505b5091505f5b838110156108aa576108853086868481811061083a5761083a613d76565b905060200281019061084c9190613d8a565b8080601f0160208091040260200160405190810160405280939291908181526020018383808284375f92019190915250611e8492505050565b83828151811061089757610897613d76565b602090810291909101015260010161081c565b506108b75f610787611e59565b5f6108c36105706114f6565b90506108ce82611e44565b6108d781611ef8565b505092915050565b5f6060806108eb610bf2565b6108f484611f30565b9250925092509193909250565b606061090b610bab565b610913610bf2565b61091c826120c7565b91506104359050610dcf565b5f610931610bab565b610939610bf2565b61042b8261296d565b6060825f61094f82611e10565b90507f00000000000000000000000000000000000000000000000000000000000000006001600160a01b031663edfa35686040518060a00160405280896001600160a01b03168152602001306001600160a01b031681526020016001600160801b03801681526020015f15158152602001876109ca90613b16565b90526040516109dc9190602401613bb1565b60408051601f198184030181529181526020820180516001600160e01b031663b5696b8560e01b179052516001600160e01b031960e084901b168152610a25919060040161367b565b5f604051808303815f875af1158015610a40573d5f5f3e3d5ffd5b505050506040513d5f823e601f3d908101601f19168201604052610a679190810190613caf565b806020019051810190610a7a9190613d45565b9250610a8581611e44565b50509392505050565b6060610a98610bab565b610aa0610bf2565b8160400135421115610ac557604051630e08b8af60e41b815260040160405180910390fd5b6060610ad0836120c7565b92509050610b33610ae76040850160208601613dcc565b825f81518110610af957610af9613d76565b6020026020010151845f81518110610b1357610b13613d76565b6020026020010151866060016020810190610b2e9190613de7565b612982565b610b74610b466040850160208601613dcc565b82600181518110610b5957610b59613d76565b602002602001015184600181518110610b1357610b13613d76565b610b8c610b876040850160208601613dcc565b611ef8565b50610435610dcf565b60605f6060610ba2610bf2565b6108f484612b76565b5f5160206145675f395f51905f525c15610bd857604051633ee5aeb560e01b815260040160405180910390fd5b610bf060015f5160206145675f395f51905f52610787565b565b336001600160a01b037f00000000000000000000000000000000000000000000000000000000000000001614610bf0573360405163089676d560e01b8152600401610c3d919061340d565b60405180910390fd5b5f6001600160a01b037f00000000000000000000000000000000000000000000000000000000000000001663ba8a2be0610c866040850160208601613dcc565b610c936020860186613dcc565b610ca06040870187613e00565b610cad6060890189613e00565b60808a0135610cbf60c08c018c613d8a565b6040518a63ffffffff1660e01b8152600401610ce399989796959493929190613e9d565b6020604051808303815f875af1158015610cff573d5f5f3e3d5ffd5b505050506040513d601f19601f82011682018060405250810190610d239190613f37565b90505f5b610d346040840184613e00565b9050811015610dbe57610db6610d4d6020850185613dcc565b610d5a6040860186613e00565b84818110610d6a57610d6a613d76565b9050602002016020810190610d7f9190613dcc565b610d8c6060870187613e00565b85818110610d9c57610d9c613d76565b905060200201358660a0016020810190610b2e9190613de7565b600101610d27565b50610435610b876020840184613dcc565b610bf05f5f5160206145675f395f51905f52610787565b610dee610bab565b610df88685612d18565b5f5b86811015610fff575f868683818110610e1557610e15613d76565b9050602002810190610e279190613d8a565b8080601f0160208091040260200160405190810160405280939291908181526020018383808284375f920182905250939450610e689250849150612d389050565b90505f8a8a85818110610e7d57610e7d613d76565b905060c00201803603810190610e939190613f4e565b8051602080830151606084015160a08501516040808901518951958a0151915163d505accf60e01b81526001600160a01b0395861660048201523060248201526044810194909452606484019290925260ff909116608483015260a482019390935260c481019290925292935091169063d505accf9060e4015f604051808303815f87803b158015610f23575f5ffd5b505af1925050508015610f34575060015b610ff1573d808015610f61576040519150601f19603f3d011682016040523d82523d5f602084013e610f66565b606091505b50606082015182516020840151604051636eb1769f60e11b81526001600160a01b03918216600482015230602482015291169063dd62ed3e90604401602060405180830381865afa158015610fbd573d5f5f3e3d5ffd5b505050506040513d601f19601f82011682018060405250810190610fe19190613f37565b14610fef57610fef81612d87565b505b505050806001019050610dfa565b505f61100b8480613fc2565b9050111561109357604051632a2d80d160e01b81526001600160a01b037f00000000000000000000000000000000000000000000000000000000000000001690632a2d80d19061106590339087908790879060040161401c565b5f604051808303815f87803b15801561107c575f5ffd5b505af115801561108e573d5f5f3e3d5ffd5b505050505b61109b610dcf565b50505050505050565b60605f60607f00000000000000000000000000000000000000000000000000000000000000006001600160a01b0316634af29ec46040518060c001604052808760200160208101906110f69190613dcc565b6001600160a01b0316815260209081019061111390890189613dcc565b6001600160a01b0316815260200161112e6040890189613e00565b808060200260200160405190810160405280939291908181526020018383602002808284375f920191909152505050908252506060880135602082015260400161117e60a0890160808a01614143565b600481111561118f5761118f614161565b81526020016111a160c0890189613d8a565b8080601f0160208091040260200160405190810160405280939291908181526020018383808284375f9201919091525050509152506040516001600160e01b031960e084901b1681526111f79190600401614175565b5f604051808303815f875af1158015611212573d5f5f3e3d5ffd5b505050506040513d5f823e601f3d908101601f1916820160405261123991908101906141f5565b919450925090505f6001600160a01b037f00000000000000000000000000000000000000000000000000000000000000001663ca4f28036112806040880160208901613dcc565b6040518263ffffffff1660e01b815260040161129c919061340d565b5f60405180830381865afa1580156112b6573d5f5f3e3d5ffd5b505050506040513d5f823e601f3d908101601f191682016040526112dd9190810190614258565b90505f5b81518110156114dd575f8282815181106112fd576112fd613d76565b602002602001015190505f86838151811061131a5761131a613d76565b60200260200101519050805f036113325750506114d5565b7f000000000000000000000000000000000000000000000000000000000000000015806113a7575061136a60c0890160a08a01613de7565b80156113a757507f00000000000000000000000000000000000000000000000000000000000000006001600160a01b0316826001600160a01b0316145b156113d3576113ce6113bc60208a018a613dcc565b8383610b2e60c08d0160a08e01613de7565b6114d2565b5f6113e160408a018a613e00565b858181106113f1576113f1613d76565b9050602002013590505f7f00000000000000000000000000000000000000000000000000000000000000006001600160a01b03166315afd40985846040518363ffffffff1660e01b81526004016114499291906142e7565b6020604051808303815f875af1158015611465573d5f5f3e3d5ffd5b505050506040513d601f19601f820116820180604052508101906114899190613f37565b9050818110156114ae57836040516302150b5560e01b8152600401610c3d919061340d565b6114cf6114be60208c018c613dcc565b856114c98685614314565b5f612db0565b50505b50505b6001016112e1565b506114ee610b876020870187613dcc565b509193909250565b7f000000000000000000000000000000000000000000000000000000000000000090565b60605f7f00000000000000000000000000000000000000000000000000000000000000006001600160a01b031663ca4f2803866040518263ffffffff1660e01b8152600401611569919061340d565b5f60405180830381865afa158015611583573d5f5f3e3d5ffd5b505050506040513d5f823e601f3d908101601f191682016040526115aa9190810190614258565b516001600160401b038111156115c2576115c26137cb565b6040519080825280602002602001820160405280156115eb578160200160208202803683370190505b50604051630281f58160e61b81529091506001600160a01b037f0000000000000000000000000000000000000000000000000000000000000000169063a07d604090611641908890889088908790600401614327565b5f604051808303815f875af115801561165c573d5f5f3e3d5ffd5b505050506040513d5f823e601f3d908101601f191682016040526116839190810190613d45565b95945050505050565b5f5f5f5f61169985612ec8565b919450925090507f0000000000000000000000000000000000000000000000000000000000000000158061172657506116da61012086016101008701613de7565b801561172657506001600160a01b037f00000000000000000000000000000000000000000000000000000000000000001661171b6080870160608801613dcc565b6001600160a01b0316145b156117635761175e61173b6020870187613dcc565b61174b6080880160608901613dcc565b84610b2e6101208a016101008b01613de7565b6118c4565b5f806117756040880160208901614359565b600181111561178657611786614161565b14611795578560c0013561179b565b8560a001355b90505f6001600160a01b037f0000000000000000000000000000000000000000000000000000000000000000166315afd4096117dd60808a0160608b01613dcc565b846040518363ffffffff1660e01b81526004016117fb9291906142e7565b6020604051808303815f875af1158015611817573d5f5f3e3d5ffd5b505050506040513d601f19601f8201168201806040525081019061183b9190613f37565b90508181101561186f576118556080880160608901613dcc565b6040516302150b5560e01b8152600401610c3d919061340d565b60016118816040890160208a01614359565b600181111561189257611892614161565b036118c1576118c16118a76020890189613dcc565b6118b760808a0160608b01613dcc565b6114c98785614314565b50505b6118fc6118d46020870187613dcc565b6118e460a0880160808901613dcc565b836118f76101208a016101008b01613de7565b612db0565b6001600160a01b037f0000000000000000000000000000000000000000000000000000000000000000166119366080870160608801613dcc565b6001600160a01b03160361195457611954610b876020870187613dcc565b50909392505050565b5f6060807f00000000000000000000000000000000000000000000000000000000000000006001600160a01b031663214578976040518060c001604052808760200160208101906119ae9190613dcc565b6001600160a01b031681526020908101906119cb90890189613dcc565b6001600160a01b03168152602001876060013581526020018780604001906119f39190613e00565b808060200260200160405190810160405280939291908181526020018383602002808284375f92019190915250505090825250602001611a3960a0890160808a01614377565b6003811115611a4a57611a4a614161565b8152602001611a5c60c0890189613d8a565b8080601f0160208091040260200160405190810160405280939291908181526020018383808284375f9201919091525050509152506040516001600160e01b031960e084901b168152611ab29190600401614395565b5f604051808303815f875af1158015611acd573d5f5f3e3d5ffd5b505050506040513d5f823e601f3d908101601f19168201604052611af491908101906143f5565b919450925090505f6001600160a01b037f00000000000000000000000000000000000000000000000000000000000000001663ca4f2803611b3b6040880160208901613dcc565b6040518263ffffffff1660e01b8152600401611b57919061340d565b5f60405180830381865afa158015611b71573d5f5f3e3d5ffd5b505050506040513d5f823e601f3d908101601f19168201604052611b989190810190614258565b90505f5b81518110156114dd57611bfc611bb56020880188613dcc565b838381518110611bc757611bc7613d76565b6020026020010151868481518110611be157611be1613d76565b60200260200101518960a00160208101906118f79190613de7565b600101611b9c565b604051630281f58160e61b81526060906001600160a01b037f0000000000000000000000000000000000000000000000000000000000000000169063a07d604090611c59908890889088908890600401614327565b5f604051808303815f875af1158015611c74573d5f5f3e3d5ffd5b505050506040513d5f823e601f3d908101601f19168201604052611c9b9190810190613d45565b90505f7f00000000000000000000000000000000000000000000000000000000000000006001600160a01b031663ca4f2803876040518263ffffffff1660e01b8152600401611cea919061340d565b5f60405180830381865afa158015611d04573d5f5f3e3d5ffd5b505050506040513d5f823e601f3d908101601f19168201604052611d2b9190810190614258565b90505f5b8151811015611dfd575f838281518110611d4b57611d4b613d76565b602002602001015190505f811115611df4577f00000000000000000000000000000000000000000000000000000000000000006001600160a01b031663ae639329848481518110611d9e57611d9e613d76565b602002602001015189846040518463ffffffff1660e01b8152600401611dc69392919061444d565b5f604051808303815f87803b158015611ddd575f5ffd5b505af1158015611def573d5f5f3e3d5ffd5b505050505b50600101611d2f565b50611e0785611ef8565b50949350505050565b5f5f611e1d6105706114f6565b90506001600160a01b038116611e3e57611e39836107876114f6565b600191505b50919050565b8015611e5657611e565f6107876114f6565b50565b7f000000000000000000000000000000000000000000000000000000000000000090565b80825d5050565b60605f5f846001600160a01b031684604051611ea09190614471565b5f60405180830381855af49150503d805f8114611ed8576040519150601f19603f3d011682016040523d82523d5f602084013e611edd565b606091505b5091509150611eed858383613065565b925050505b92915050565b475f819003611f05575050565b611f10610570611e59565b15611f19575050565b611f2c6001600160a01b038316826130b8565b5050565b5f6060807f00000000000000000000000000000000000000000000000000000000000000006001600160a01b031663214578976040518060c00160405280876020016020810190611f819190613dcc565b6001600160a01b03168152602090810190611f9e90890189613dcc565b6001600160a01b0316815260200187606001358152602001878060400190611fc69190613e00565b808060200260200160405190810160405280939291908181526020018383602002808284375f9201919091525050509082525060200161200c60a0890160808a01614377565b600381111561201d5761201d614161565b815260200161202f60c0890189613d8a565b8080601f0160208091040260200160405190810160405280939291908181526020018383808284375f9201919091525050509152506040516001600160e01b031960e084901b1681526120859190600401614395565b5f604051808303815f875af11580156120a0573d5f5f3e3d5ffd5b505050506040513d5f823e601f3d908101601f191682016040526108f491908101906143f5565b6060806001600160a01b037f00000000000000000000000000000000000000000000000000000000000000001663ca4f28036121066020860186613dcc565b6040518263ffffffff1660e01b8152600401612122919061340d565b5f60405180830381865afa15801561213c573d5f5f3e3d5ffd5b505050506040513d5f823e601f3d908101601f191682016040526121639190810190614258565b9150815160021461218757604051633f083e1960e21b815260040160405180910390fd5b5f5f835f8151811061219b5761219b613d76565b60200260200101516001600160a01b03168580608001906121bc9190614487565b6121cd906040810190602001613dcc565b6001600160a01b0316146121e35760015f6121e7565b5f60015b60408051600280825260608201835260ff94851696509290931693505f9291906020830190803683370190505090506001600160801b038016815f8151811061223257612232613d76565b6020026020010181815250506001600160801b0380168160018151811061225b5761225b613d76565b6020026020010181815250507f00000000000000000000000000000000000000000000000000000000000000006001600160a01b0316634af29ec46040518060c00160405280895f0160208101906122b39190613dcc565b6001600160a01b031681526020018960200160208101906122d49190613dcc565b6001600160a01b03168152602081018590526040016122f660808b018b614487565b3581526020015f815260200161230f60808b018b614487565b61231d906080810190613d8a565b8080601f0160208091040260200160405190810160405280939291908181526020018383808284375f9201919091525050509152506040516001600160e01b031960e084901b1681526123739190600401614175565b5f604051808303815f875af115801561238e573d5f5f3e3d5ffd5b505050506040513d5f823e601f3d908101601f191682016040526123b591908101906141f5565b509094506123c890506080870187614487565b604001358484815181106123de576123de613d76565b60200260200101511115612615575f6123fa6080880188614487565b6040013585858151811061241057612410613d76565b60200260200101516124229190614314565b90505f5f7f00000000000000000000000000000000000000000000000000000000000000006001600160a01b0316632bfb780c6040518060e0016040528060018081111561247257612472614161565b8152602090810190612486908e018e613dcc565b6001600160a01b031681526020018b89815181106124a6576124a6613d76565b60200260200101516001600160a01b031681526020018c80608001906124cc9190614487565b6124dd906040810190602001613dcc565b6001600160a01b03168152602081018790526001600160801b03604082015260600161250c60808e018e614487565b61251a9060a0810190613d8a565b8080601f0160208091040260200160405190810160405280939291908181526020018383808284375f9201919091525050509152506040516001600160e01b031960e084901b16815261257091906004016144a5565b6060604051808303815f875af115801561258c573d5f5f3e3d5ffd5b505050506040513d601f19601f820116820180604052508101906125b09190614528565b9250925050818786815181106125c8576125c8613d76565b602002602001018181516125dc9190614553565b905250865181908890889081106125f5576125f5613d76565b602002602001018181516126099190614314565b90525061286592505050565b6126226080870187614487565b6040013584848151811061263857612638613d76565b60200260200101511015612865575f84848151811061265957612659613d76565b60200260200101518780608001906126719190614487565b6040013561267f9190614314565b90505f5f7f00000000000000000000000000000000000000000000000000000000000000006001600160a01b0316632bfb780c6040518060e001604052805f60018111156126cf576126cf614161565b81526020908101906126e3908e018e613dcc565b6001600160a01b031681526020016126fe60808e018e614487565b61270f906040810190602001613dcc565b6001600160a01b031681526020018b898151811061272f5761272f613d76565b60200260200101516001600160a01b031681526020018681526020015f81526020018c80608001906127619190614487565b61276f9060a0810190613d8a565b8080601f0160208091040260200160405190810160405280939291908181526020018383808284375f9201919091525050509152506040516001600160e01b031960e084901b1681526127c591906004016144a5565b6060604051808303815f875af11580156127e1573d5f5f3e3d5ffd5b505050506040513d601f19601f820116820180604052508101906128059190614528565b92509250508187878151811061281d5761281d613d76565b602002602001018181516128319190614553565b9052508651819088908790811061284a5761284a613d76565b6020026020010181815161285e9190614314565b9052505050505b6128726080870187614487565b6060013584838151811061288857612888613d76565b602002602001015111156128e6578382815181106128a8576128a8613d76565b60200260200101518680608001906128c09190614487565b60405163be24bb3960e01b81526004810192909252606001356024820152604401610c3d565b6128f36080870187614487565b6040013584848151811061290957612909613d76565b6020026020010151146129655783838151811061292857612928613d76565b60200260200101518680608001906129409190614487565b6040805163c1820fbb60e01b8152600481019390935201356024820152604401610c3d565b505050915091565b5f5f61297883612ec8565b5090949350505050565b8080156129c057507f00000000000000000000000000000000000000000000000000000000000000006001600160a01b0316836001600160a01b0316145b15612a1557612a107f00000000000000000000000000000000000000000000000000000000000000007f000000000000000000000000000000000000000000000000000000000000000084613157565b612b70565b8115612b70577f00000000000000000000000000000000000000000000000000000000000000006001600160a01b03166336c78516857f0000000000000000000000000000000000000000000000000000000000000000612a758661324c565b6040516001600160e01b031960e086901b1681526001600160a01b03938416600482015291831660248301528216604482015290861660648201526084015f604051808303815f87803b158015612aca575f5ffd5b505af1158015612adc573d5f5f3e3d5ffd5b50506040516315afd40960e01b81526001600160a01b037f00000000000000000000000000000000000000000000000000000000000000001692506315afd4099150612b2e90869086906004016142e7565b6020604051808303815f875af1158015612b4a573d5f5f3e3d5ffd5b505050506040513d601f19601f82011682018060405250810190612b6e9190613f37565b505b50505050565b60605f60607f00000000000000000000000000000000000000000000000000000000000000006001600160a01b0316634af29ec46040518060c00160405280876020016020810190612bc89190613dcc565b6001600160a01b03168152602090810190612be590890189613dcc565b6001600160a01b03168152602001612c006040890189613e00565b808060200260200160405190810160405280939291908181526020018383602002808284375f9201919091525050509082525060608801356020820152604001612c5060a0890160808a01614143565b6004811115612c6157612c61614161565b8152602001612c7360c0890189613d8a565b8080601f0160208091040260200160405190810160405280939291908181526020018383808284375f9201919091525050509152506040516001600160e01b031960e084901b168152612cc99190600401614175565b5f604051808303815f875af1158015612ce4573d5f5f3e3d5ffd5b505050506040513d5f823e601f3d908101601f19168201604052612d0b91908101906141f5565b9196909550909350915050565b808214611f2c5760405163aaad13f760e01b815260040160405180910390fd5b612d5c60405180606001604052805f81526020015f81526020015f60ff1681525090565b602082810151604080850151606090950151918452918301939093525f9290921a9181019190915290565b805115612d975780518082602001fd5b60405163a728568960e01b815260040160405180910390fd5b8115612b7057808015612df457507f00000000000000000000000000000000000000000000000000000000000000006001600160a01b0316836001600160a01b0316145b15612e4557612a107f00000000000000000000000000000000000000000000000000000000000000007f00000000000000000000000000000000000000000000000000000000000000008685613256565b60405163ae63932960e01b81526001600160a01b037f0000000000000000000000000000000000000000000000000000000000000000169063ae63932990612e959086908890879060040161444d565b5f604051808303815f87803b158015612eac575f5ffd5b505af1158015612ebe573d5f5f3e3d5ffd5b5050505050505050565b5f5f5f8360e00135421115612ef057604051630e08b8af60e41b815260040160405180910390fd5b7f00000000000000000000000000000000000000000000000000000000000000006001600160a01b0316632bfb780c6040518060e00160405280876020016020810190612f3d9190614359565b6001811115612f4e57612f4e614161565b8152602001612f636060890160408a01613dcc565b6001600160a01b03168152602001612f816080890160608a01613dcc565b6001600160a01b03168152602001612f9f60a0890160808a01613dcc565b6001600160a01b0316815260a0880135602082015260c08801356040820152606001612fcf610120890189613d8a565b8080601f0160208091040260200160405190810160405280939291908181526020018383808284375f9201919091525050509152506040516001600160e01b031960e084901b16815261302591906004016144a5565b6060604051808303815f875af1158015613041573d5f5f3e3d5ffd5b505050506040513d601f19601f82011682018060405250810190612d0b9190614528565b60608261307a576130758261331c565b610591565b815115801561309157506001600160a01b0384163b155b156130b15783604051639996b31560e01b8152600401610c3d919061340d565b5080610591565b804710156130e25760405163cf47918160e01b815247600482015260248101829052604401610c3d565b5f826001600160a01b0316826040515f6040518083038185875af1925050503d805f811461312b576040519150601f19603f3d011682016040523d82523d5f602084013e613130565b606091505b50509050806131525760405163d6bda27560e01b815260040160405180910390fd5b505050565b804710156131785760405163500d4efb60e11b815260040160405180910390fd5b826001600160a01b031663d0e30db0826040518263ffffffff1660e01b81526004015f604051808303818588803b1580156131b1575f5ffd5b505af11580156131c3573d5f5f3e3d5ffd5b506131de935050506001600160a01b03851690508383613345565b6040516315afd40960e01b81526001600160a01b038316906315afd4099061320c90869085906004016142e7565b6020604051808303815f875af1158015613228573d5f5f3e3d5ffd5b505050506040513d601f19601f82011682018060405250810190612b709190613f37565b5f611ef282613350565b60405163ae63932960e01b81526001600160a01b0384169063ae639329906132869087903090869060040161444d565b5f604051808303815f87803b15801561329d575f5ffd5b505af11580156132af573d5f5f3e3d5ffd5b5050604051632e1a7d4d60e01b8152600481018490526001600160a01b0387169250632e1a7d4d91506024015f604051808303815f87803b1580156132f2575f5ffd5b505af1158015613304573d5f5f3e3d5ffd5b50612b70925050506001600160a01b038316826130b8565b80511561332c5780518082602001fd5b60405163d6bda27560e01b815260040160405180910390fd5b613152838383613368565b5f600160a01b8210613364576133646133b2565b5090565b816014528060345263a9059cbb60601b5f5260205f604460105f875af18060015f5114166133a857803d853b1517106133a8576390b8ec185f526004601cfd5b505f603452505050565b6335278d125f526004601cfd5b5f60e08284031215611e3e575f5ffd5b5f602082840312156133df575f5ffd5b81356001600160401b038111156133f4575f5ffd5b6105f7848285016133bf565b6001600160a01b03169052565b6001600160a01b0391909116815260200190565b5f5f83601f840112613431575f5ffd5b5081356001600160401b03811115613447575f5ffd5b60208301915083602060c083028501011115613461575f5ffd5b9250929050565b5f5f83601f840112613478575f5ffd5b5081356001600160401b0381111561348e575f5ffd5b6020830191508360208260051b8501011115613461575f5ffd5b5f60608284031215611e3e575f5ffd5b5f5f83601f8401126134c8575f5ffd5b5081356001600160401b038111156134de575f5ffd5b602083019150836020828501011115613461575f5ffd5b5f5f5f5f5f5f5f5f5f60a08a8c03121561350d575f5ffd5b89356001600160401b03811115613522575f5ffd5b61352e8c828d01613421565b909a5098505060208a01356001600160401b0381111561354c575f5ffd5b6135588c828d01613468565b90985096505060408a01356001600160401b03811115613576575f5ffd5b6135828c828d016134a8565b95505060608a01356001600160401b0381111561359d575f5ffd5b6135a98c828d016134b8565b90955093505060808a01356001600160401b038111156135c7575f5ffd5b6135d38c828d01613468565b915080935050809150509295985092959850929598565b5f81518084528060208401602086015e5f602082860101526020601f19601f83011685010191505092915050565b5f602082016020835280845180835260408501915060408160051b8601019250602086015f5b8281101561366f57603f1987860301845261365a8583516135ea565b9450602093840193919091019060010161363e565b50929695505050505050565b602081525f61059160208301846135ea565b5f8151808452602084019350602083015f5b828110156136bd57815186526020958601959091019060010161369f565b5093949350505050565b606081525f6136d9606083018661368d565b84602084015282810360408401526136f181856135ea565b9695505050505050565b6001600160a01b0381168114611e56575f5ffd5b8035610435816136fb565b5f5f5f6060848603121561372c575f5ffd5b8335613737816136fb565b92506020840135613747816136fb565b929592945050506040919091013590565b602081525f610591602083018461368d565b5f6020828403121561377a575f5ffd5b81356001600160401b0381111561378f575f5ffd5b82016101408185031215610591575f5ffd5b838152606060208201525f6137b9606083018561368d565b82810360408401526136f181856135ea565b634e487b7160e01b5f52604160045260245ffd5b60405160c081016001600160401b0381118282101715613801576138016137cb565b60405290565b604051601f8201601f191681016001600160401b038111828210171561382f5761382f6137cb565b604052919050565b5f6001600160401b0382111561384f5761384f6137cb565b5060051b60200190565b5f5f5f5f6080858703121561386c575f5ffd5b8435613877816136fb565b93506020850135613887816136fb565b92506040850135915060608501356001600160401b038111156138a8575f5ffd5b8501601f810187136138b8575f5ffd5b80356138cb6138c682613837565b613807565b8082825260208201915060208360051b8501019250898311156138ec575f5ffd5b6020840193505b8284101561390e5783358252602093840193909101906138f3565b969995985093965050505050565b80358015158114610435575f5ffd5b5f60c08284031215611e3e575f5ffd5b5f5f5f5f6080858703121561394e575f5ffd5b8435613959816136fb565b93506020850135925061396e6040860161391c565b915060608501356001600160401b03811115613988575f5ffd5b6139948782880161392b565b91505092959194509250565b5f5f602083850312156139b1575f5ffd5b82356001600160401b038111156139c6575f5ffd5b6139d285828601613468565b90969095509350505050565b5f602082840312156139ee575f5ffd5b81356001600160401b03811115613a03575f5ffd5b820160a08185031215610591575f5ffd5b5f5f5f60608486031215613a26575f5ffd5b8335613a31816136fb565b92506020840135613a41816136fb565b915060408401356001600160401b03811115613a5b575f5ffd5b613a678682870161392b565b9150509250925092565b600181811c90821680613a8557607f821691505b602082108103611e3e57634e487b7160e01b5f52602260045260245ffd5b5f6001600160401b03821115613abb57613abb6137cb565b50601f01601f191660200190565b5f82601f830112613ad8575f5ffd5b8135613ae66138c682613aa3565b818152846020838601011115613afa575f5ffd5b816020850160208301375f918101602001919091529392505050565b5f60c08236031215613b26575f5ffd5b613b2e6137df565b82358152613b3e6020840161370f565b6020820152604083810135908201526060808401359082015260808301356001600160401b03811115613b6f575f5ffd5b613b7b36828601613ac9565b60808301525060a08301356001600160401b03811115613b99575f5ffd5b613ba536828601613ac9565b60a08301525092915050565b6020815260018060a01b03825116602082015260018060a01b036020830151166040820152604082015160608201526060820151151560808201525f608083015160a080840152805160c084015260018060a01b0360208201511660e084015260408101516101008401526060810151610120840152608081015160c0610140850152613c426101808501826135ea565b905060a0820151915060bf1984820301610160850152611eed81836135ea565b5f82601f830112613c71575f5ffd5b8151613c7f6138c682613aa3565b818152846020838601011115613c93575f5ffd5b8160208501602083015e5f918101602001919091529392505050565b5f60208284031215613cbf575f5ffd5b81516001600160401b03811115613cd4575f5ffd5b6105f784828501613c62565b5f82601f830112613cef575f5ffd5b8151613cfd6138c682613837565b8082825260208201915060208360051b860101925085831115613d1e575f5ffd5b602085015b83811015613d3b578051835260209283019201613d23565b5095945050505050565b5f60208284031215613d55575f5ffd5b81516001600160401b03811115613d6a575f5ffd5b6105f784828501613ce0565b634e487b7160e01b5f52603260045260245ffd5b5f5f8335601e19843603018112613d9f575f5ffd5b8301803591506001600160401b03821115613db8575f5ffd5b602001915036819003821315613461575f5ffd5b5f60208284031215613ddc575f5ffd5b8135610591816136fb565b5f60208284031215613df7575f5ffd5b6105918261391c565b5f5f8335601e19843603018112613e15575f5ffd5b8301803591506001600160401b03821115613e2e575f5ffd5b6020019150600581901b3603821315613461575f5ffd5b8183525f6001600160fb1b03831115613e5c575f5ffd5b8260051b80836020870137939093016020019392505050565b81835281816020850137505f828201602090810191909152601f909101601f19169091010190565b6001600160a01b038a811682528916602082015260c06040820181905281018790525f8860e08301825b8a811015613ef7578235613eda816136fb565b6001600160a01b0316825260209283019290910190600101613ec7565b508381036060850152613f0b81898b613e45565b91505085608084015282810360a0840152613f27818587613e75565b9c9b505050505050505050505050565b5f60208284031215613f47575f5ffd5b5051919050565b5f60c0828403128015613f5f575f5ffd5b50613f686137df565b8235613f73816136fb565b81526020830135613f83816136fb565b60208201526040830135613f96816136fb565b6040820152606083810135908201526080808401359082015260a0928301359281019290925250919050565b5f5f8335601e19843603018112613fd7575f5ffd5b8301803591506001600160401b03821115613ff0575f5ffd5b6020019150600781901b3603821315613461575f5ffd5b803565ffffffffffff81168114610435575f5ffd5b6001600160a01b0385168152606060208201525f60c08201853536879003601e19018112614048575f5ffd5b86016020810190356001600160401b03811115614063575f5ffd5b8060071b3603821315614074575f5ffd5b60608581015291829052905f9060e085015b81831015614105578335614099816136fb565b6001600160a01b0316815260208401356140b2816136fb565b6001600160a01b0316602082015265ffffffffffff6140d360408601614007565b16604082015265ffffffffffff6140ec60608601614007565b1660608201526080938401936001939093019201614086565b61411160208a0161370f565b93506141206080870185613400565b5f9350604089013593508360a0870152858103604087015261049481888a613e75565b5f60208284031215614153575f5ffd5b813560058110610591575f5ffd5b634e487b7160e01b5f52602160045260245ffd5b602080825282516001600160a01b0390811683830152908301511660408083019190915282015160c060608301525f906141b260e084018261368d565b9050606084015160808401526080840151600581106141d3576141d3614161565b8060a08501525060a0840151601f198483030160c0850152611eed82826135ea565b5f5f5f60608486031215614207575f5ffd5b83516001600160401b0381111561421c575f5ffd5b61422886828701613ce0565b60208601516040870151919550935090506001600160401b0381111561424c575f5ffd5b613a6786828701613c62565b5f60208284031215614268575f5ffd5b81516001600160401b0381111561427d575f5ffd5b8201601f8101841361428d575f5ffd5b805161429b6138c682613837565b8082825260208201915060208360051b8501019250868311156142bc575f5ffd5b6020840193505b828410156136f15783516142d6816136fb565b8252602093840193909101906142c3565b6001600160a01b03929092168252602082015260400190565b634e487b7160e01b5f52601160045260245ffd5b81810381811115611ef257611ef2614300565b6001600160a01b03858116825284166020820152604081018390526080606082018190525f906136f19083018461368d565b5f60208284031215614369575f5ffd5b813560028110610591575f5ffd5b5f60208284031215614387575f5ffd5b813560048110610591575f5ffd5b6020815260018060a01b03825116602082015260018060a01b036020830151166040820152604082015160608201525f606083015160c060808401526143de60e084018261368d565b90506080840151600481106141d3576141d3614161565b5f5f5f60608486031215614407575f5ffd5b835160208501519093506001600160401b03811115614424575f5ffd5b61443086828701613ce0565b604086015190935090506001600160401b0381111561424c575f5ffd5b6001600160a01b039384168152919092166020820152604081019190915260600190565b5f82518060208501845e5f920191825250919050565b5f823560be1983360301811261449b575f5ffd5b9190910192915050565b602081525f8251600281106144bc576144bc614161565b8060208401525060018060a01b03602084015116604083015260408301516144e76060840182613400565b5060608301516144fa6080840182613400565b50608083015160a083015260a083015160c083015260c083015160e0808401526105f76101008401826135ea565b5f5f5f6060848603121561453a575f5ffd5b5050815160208301516040909301519094929350919050565b80820180821115611ef257611ef261430056fe9b779b17422d0df92223018b32b4d1fa46e071723d6817e2486d003becc55f00a264697066735822122006fa687d676e9fcec63deacded9f6c1be0c0dffe396897476104467f39b0200464736f6c634300081e0033","linkReferences":{}},"methodIdentifiers":{"addLiquidityHook((address,address,uint256[],uint256,uint8,bool,bytes))":"5b343791","addLiquidityUnbalanced(address,uint256,bool,(uint256,address,uint256,uint256,bytes,bytes))":"aba40fa7","addLiquidityUnbalancedHook((address,address,uint256,bool,(uint256,address,uint256,uint256,bytes,bytes)))":"d2ae94ac","getPermit2()":"1bbf2e23","getSender()":"5e01eb5a","getVault()":"8d928af8","getWeth()":"107c279f","initializeHook((address,address,address[],uint256[],uint256,bool,bytes))":"086fad66","multicall(bytes[])":"ac9650d8","permitBatchAndCall((address,address,address,uint256,uint256,uint256)[],bytes[],((address,uint160,uint48,uint48)[],address,uint256),bytes,bytes[])":"19c6989f","queryAddLiquidityHook((address,address,uint256[],uint256,uint8,bool,bytes))":"efd85f14","queryAddLiquidityUnbalanced(address,address,(uint256,address,uint256,uint256,bytes,bytes))":"c1e85fb0","queryAddLiquidityUnbalancedHook((address,address,uint256,bool,(uint256,address,uint256,uint256,bytes,bytes)))":"b5696b85","queryRemoveLiquidityHook((address,address,uint256[],uint256,uint8,bool,bytes))":"b24bd571","queryRemoveLiquidityRecoveryHook(address,address,uint256)":"5f9815ff","querySwapHook((address,uint8,address,address,address,uint256,uint256,uint256,bool,bytes))":"be5ae841","removeLiquidityHook((address,address,uint256[],uint256,uint8,bool,bytes))":"7b03c7ba","removeLiquidityRecoveryHook(address,address,uint256,uint256[])":"82cd54fb","swapSingleTokenHook((address,uint8,address,address,address,uint256,uint256,uint256,bool,bytes))":"68a24fe0","version()":"54fd4d50"},"id":342}