{"abi":[{"type":"constructor","inputs":[{"name":"_forwarder","type":"address","internalType":"address"},{"name":"_factoryRegistry","type":"address","internalType":"address"},{"name":"_factory","type":"address","internalType":"address"},{"name":"_voter","type":"address","internalType":"address"},{"name":"_weth","type":"address","internalType":"address"}],"stateMutability":"nonpayable"},{"type":"receive","stateMutability":"payable"},{"type":"function","name":"ETHER","inputs":[],"outputs":[{"name":"","type":"address","internalType":"address"}],"stateMutability":"view"},{"type":"function","name":"UNSAFE_swapExactTokensForTokens","inputs":[{"name":"amounts","type":"uint256[]","internalType":"uint256[]"},{"name":"routes","type":"tuple[]","internalType":"struct IRouter.Route[]","components":[{"name":"from","type":"address","internalType":"address"},{"name":"to","type":"address","internalType":"address"},{"name":"stable","type":"bool","internalType":"bool"},{"name":"factory","type":"address","internalType":"address"}]},{"name":"to","type":"address","internalType":"address"},{"name":"deadline","type":"uint256","internalType":"uint256"}],"outputs":[{"name":"","type":"uint256[]","internalType":"uint256[]"}],"stateMutability":"nonpayable"},{"type":"function","name":"addLiquidity","inputs":[{"name":"tokenA","type":"address","internalType":"address"},{"name":"tokenB","type":"address","internalType":"address"},{"name":"stable","type":"bool","internalType":"bool"},{"name":"amountADesired","type":"uint256","internalType":"uint256"},{"name":"amountBDesired","type":"uint256","internalType":"uint256"},{"name":"amountAMin","type":"uint256","internalType":"uint256"},{"name":"amountBMin","type":"uint256","internalType":"uint256"},{"name":"to","type":"address","internalType":"address"},{"name":"deadline","type":"uint256","internalType":"uint256"}],"outputs":[{"name":"amountA","type":"uint256","internalType":"uint256"},{"name":"amountB","type":"uint256","internalType":"uint256"},{"name":"liquidity","type":"uint256","internalType":"uint256"}],"stateMutability":"nonpayable"},{"type":"function","name":"addLiquidityETH","inputs":[{"name":"token","type":"address","internalType":"address"},{"name":"stable","type":"bool","internalType":"bool"},{"name":"amountTokenDesired","type":"uint256","internalType":"uint256"},{"name":"amountTokenMin","type":"uint256","internalType":"uint256"},{"name":"amountETHMin","type":"uint256","internalType":"uint256"},{"name":"to","type":"address","internalType":"address"},{"name":"deadline","type":"uint256","internalType":"uint256"}],"outputs":[{"name":"amountToken","type":"uint256","internalType":"uint256"},{"name":"amountETH","type":"uint256","internalType":"uint256"},{"name":"liquidity","type":"uint256","internalType":"uint256"}],"stateMutability":"payable"},{"type":"function","name":"defaultFactory","inputs":[],"outputs":[{"name":"","type":"address","internalType":"address"}],"stateMutability":"view"},{"type":"function","name":"factoryRegistry","inputs":[],"outputs":[{"name":"","type":"address","internalType":"address"}],"stateMutability":"view"},{"type":"function","name":"generateZapInParams","inputs":[{"name":"tokenA","type":"address","internalType":"address"},{"name":"tokenB","type":"address","internalType":"address"},{"name":"stable","type":"bool","internalType":"bool"},{"name":"_factory","type":"address","internalType":"address"},{"name":"amountInA","type":"uint256","internalType":"uint256"},{"name":"amountInB","type":"uint256","internalType":"uint256"},{"name":"routesA","type":"tuple[]","internalType":"struct IRouter.Route[]","components":[{"name":"from","type":"address","internalType":"address"},{"name":"to","type":"address","internalType":"address"},{"name":"stable","type":"bool","internalType":"bool"},{"name":"factory","type":"address","internalType":"address"}]},{"name":"routesB","type":"tuple[]","internalType":"struct IRouter.Route[]","components":[{"name":"from","type":"address","internalType":"address"},{"name":"to","type":"address","internalType":"address"},{"name":"stable","type":"bool","internalType":"bool"},{"name":"factory","type":"address","internalType":"address"}]}],"outputs":[{"name":"amountOutMinA","type":"uint256","internalType":"uint256"},{"name":"amountOutMinB","type":"uint256","internalType":"uint256"},{"name":"amountAMin","type":"uint256","internalType":"uint256"},{"name":"amountBMin","type":"uint256","internalType":"uint256"}],"stateMutability":"view"},{"type":"function","name":"generateZapOutParams","inputs":[{"name":"tokenA","type":"address","internalType":"address"},{"name":"tokenB","type":"address","internalType":"address"},{"name":"stable","type":"bool","internalType":"bool"},{"name":"_factory","type":"address","internalType":"address"},{"name":"liquidity","type":"uint256","internalType":"uint256"},{"name":"routesA","type":"tuple[]","internalType":"struct IRouter.Route[]","components":[{"name":"from","type":"address","internalType":"address"},{"name":"to","type":"address","internalType":"address"},{"name":"stable","type":"bool","internalType":"bool"},{"name":"factory","type":"address","internalType":"address"}]},{"name":"routesB","type":"tuple[]","internalType":"struct IRouter.Route[]","components":[{"name":"from","type":"address","internalType":"address"},{"name":"to","type":"address","internalType":"address"},{"name":"stable","type":"bool","internalType":"bool"},{"name":"factory","type":"address","internalType":"address"}]}],"outputs":[{"name":"amountOutMinA","type":"uint256","internalType":"uint256"},{"name":"amountOutMinB","type":"uint256","internalType":"uint256"},{"name":"amountAMin","type":"uint256","internalType":"uint256"},{"name":"amountBMin","type":"uint256","internalType":"uint256"}],"stateMutability":"view"},{"type":"function","name":"getAmountsOut","inputs":[{"name":"amountIn","type":"uint256","internalType":"uint256"},{"name":"routes","type":"tuple[]","internalType":"struct IRouter.Route[]","components":[{"name":"from","type":"address","internalType":"address"},{"name":"to","type":"address","internalType":"address"},{"name":"stable","type":"bool","internalType":"bool"},{"name":"factory","type":"address","internalType":"address"}]}],"outputs":[{"name":"amounts","type":"uint256[]","internalType":"uint256[]"}],"stateMutability":"view"},{"type":"function","name":"getReserves","inputs":[{"name":"tokenA","type":"address","internalType":"address"},{"name":"tokenB","type":"address","internalType":"address"},{"name":"stable","type":"bool","internalType":"bool"},{"name":"_factory","type":"address","internalType":"address"}],"outputs":[{"name":"reserveA","type":"uint256","internalType":"uint256"},{"name":"reserveB","type":"uint256","internalType":"uint256"}],"stateMutability":"view"},{"type":"function","name":"isTrustedForwarder","inputs":[{"name":"forwarder","type":"address","internalType":"address"}],"outputs":[{"name":"","type":"bool","internalType":"bool"}],"stateMutability":"view"},{"type":"function","name":"poolFor","inputs":[{"name":"tokenA","type":"address","internalType":"address"},{"name":"tokenB","type":"address","internalType":"address"},{"name":"stable","type":"bool","internalType":"bool"},{"name":"_factory","type":"address","internalType":"address"}],"outputs":[{"name":"pool","type":"address","internalType":"address"}],"stateMutability":"view"},{"type":"function","name":"quoteAddLiquidity","inputs":[{"name":"tokenA","type":"address","internalType":"address"},{"name":"tokenB","type":"address","internalType":"address"},{"name":"stable","type":"bool","internalType":"bool"},{"name":"_factory","type":"address","internalType":"address"},{"name":"amountADesired","type":"uint256","internalType":"uint256"},{"name":"amountBDesired","type":"uint256","internalType":"uint256"}],"outputs":[{"name":"amountA","type":"uint256","internalType":"uint256"},{"name":"amountB","type":"uint256","internalType":"uint256"},{"name":"liquidity","type":"uint256","internalType":"uint256"}],"stateMutability":"view"},{"type":"function","name":"quoteRemoveLiquidity","inputs":[{"name":"tokenA","type":"address","internalType":"address"},{"name":"tokenB","type":"address","internalType":"address"},{"name":"stable","type":"bool","internalType":"bool"},{"name":"_factory","type":"address","internalType":"address"},{"name":"liquidity","type":"uint256","internalType":"uint256"}],"outputs":[{"name":"amountA","type":"uint256","internalType":"uint256"},{"name":"amountB","type":"uint256","internalType":"uint256"}],"stateMutability":"view"},{"type":"function","name":"quoteStableLiquidityRatio","inputs":[{"name":"tokenA","type":"address","internalType":"address"},{"name":"tokenB","type":"address","internalType":"address"},{"name":"_factory","type":"address","internalType":"address"}],"outputs":[{"name":"ratio","type":"uint256","internalType":"uint256"}],"stateMutability":"view"},{"type":"function","name":"removeLiquidity","inputs":[{"name":"tokenA","type":"address","internalType":"address"},{"name":"tokenB","type":"address","internalType":"address"},{"name":"stable","type":"bool","internalType":"bool"},{"name":"liquidity","type":"uint256","internalType":"uint256"},{"name":"amountAMin","type":"uint256","internalType":"uint256"},{"name":"amountBMin","type":"uint256","internalType":"uint256"},{"name":"to","type":"address","internalType":"address"},{"name":"deadline","type":"uint256","internalType":"uint256"}],"outputs":[{"name":"amountA","type":"uint256","internalType":"uint256"},{"name":"amountB","type":"uint256","internalType":"uint256"}],"stateMutability":"nonpayable"},{"type":"function","name":"removeLiquidityETH","inputs":[{"name":"token","type":"address","internalType":"address"},{"name":"stable","type":"bool","internalType":"bool"},{"name":"liquidity","type":"uint256","internalType":"uint256"},{"name":"amountTokenMin","type":"uint256","internalType":"uint256"},{"name":"amountETHMin","type":"uint256","internalType":"uint256"},{"name":"to","type":"address","internalType":"address"},{"name":"deadline","type":"uint256","internalType":"uint256"}],"outputs":[{"name":"amountToken","type":"uint256","internalType":"uint256"},{"name":"amountETH","type":"uint256","internalType":"uint256"}],"stateMutability":"nonpayable"},{"type":"function","name":"removeLiquidityETHSupportingFeeOnTransferTokens","inputs":[{"name":"token","type":"address","internalType":"address"},{"name":"stable","type":"bool","internalType":"bool"},{"name":"liquidity","type":"uint256","internalType":"uint256"},{"name":"amountTokenMin","type":"uint256","internalType":"uint256"},{"name":"amountETHMin","type":"uint256","internalType":"uint256"},{"name":"to","type":"address","internalType":"address"},{"name":"deadline","type":"uint256","internalType":"uint256"}],"outputs":[{"name":"amountETH","type":"uint256","internalType":"uint256"}],"stateMutability":"nonpayable"},{"type":"function","name":"sortTokens","inputs":[{"name":"tokenA","type":"address","internalType":"address"},{"name":"tokenB","type":"address","internalType":"address"}],"outputs":[{"name":"token0","type":"address","internalType":"address"},{"name":"token1","type":"address","internalType":"address"}],"stateMutability":"pure"},{"type":"function","name":"swapExactETHForTokens","inputs":[{"name":"amountOutMin","type":"uint256","internalType":"uint256"},{"name":"routes","type":"tuple[]","internalType":"struct IRouter.Route[]","components":[{"name":"from","type":"address","internalType":"address"},{"name":"to","type":"address","internalType":"address"},{"name":"stable","type":"bool","internalType":"bool"},{"name":"factory","type":"address","internalType":"address"}]},{"name":"to","type":"address","internalType":"address"},{"name":"deadline","type":"uint256","internalType":"uint256"}],"outputs":[{"name":"amounts","type":"uint256[]","internalType":"uint256[]"}],"stateMutability":"payable"},{"type":"function","name":"swapExactETHForTokensSupportingFeeOnTransferTokens","inputs":[{"name":"amountOutMin","type":"uint256","internalType":"uint256"},{"name":"routes","type":"tuple[]","internalType":"struct IRouter.Route[]","components":[{"name":"from","type":"address","internalType":"address"},{"name":"to","type":"address","internalType":"address"},{"name":"stable","type":"bool","internalType":"bool"},{"name":"factory","type":"address","internalType":"address"}]},{"name":"to","type":"address","internalType":"address"},{"name":"deadline","type":"uint256","internalType":"uint256"}],"outputs":[],"stateMutability":"payable"},{"type":"function","name":"swapExactTokensForETH","inputs":[{"name":"amountIn","type":"uint256","internalType":"uint256"},{"name":"amountOutMin","type":"uint256","internalType":"uint256"},{"name":"routes","type":"tuple[]","internalType":"struct IRouter.Route[]","components":[{"name":"from","type":"address","internalType":"address"},{"name":"to","type":"address","internalType":"address"},{"name":"stable","type":"bool","internalType":"bool"},{"name":"factory","type":"address","internalType":"address"}]},{"name":"to","type":"address","internalType":"address"},{"name":"deadline","type":"uint256","internalType":"uint256"}],"outputs":[{"name":"amounts","type":"uint256[]","internalType":"uint256[]"}],"stateMutability":"nonpayable"},{"type":"function","name":"swapExactTokensForETHSupportingFeeOnTransferTokens","inputs":[{"name":"amountIn","type":"uint256","internalType":"uint256"},{"name":"amountOutMin","type":"uint256","internalType":"uint256"},{"name":"routes","type":"tuple[]","internalType":"struct IRouter.Route[]","components":[{"name":"from","type":"address","internalType":"address"},{"name":"to","type":"address","internalType":"address"},{"name":"stable","type":"bool","internalType":"bool"},{"name":"factory","type":"address","internalType":"address"}]},{"name":"to","type":"address","internalType":"address"},{"name":"deadline","type":"uint256","internalType":"uint256"}],"outputs":[],"stateMutability":"nonpayable"},{"type":"function","name":"swapExactTokensForTokens","inputs":[{"name":"amountIn","type":"uint256","internalType":"uint256"},{"name":"amountOutMin","type":"uint256","internalType":"uint256"},{"name":"routes","type":"tuple[]","internalType":"struct IRouter.Route[]","components":[{"name":"from","type":"address","internalType":"address"},{"name":"to","type":"address","internalType":"address"},{"name":"stable","type":"bool","internalType":"bool"},{"name":"factory","type":"address","internalType":"address"}]},{"name":"to","type":"address","internalType":"address"},{"name":"deadline","type":"uint256","internalType":"uint256"}],"outputs":[{"name":"amounts","type":"uint256[]","internalType":"uint256[]"}],"stateMutability":"nonpayable"},{"type":"function","name":"swapExactTokensForTokensSupportingFeeOnTransferTokens","inputs":[{"name":"amountIn","type":"uint256","internalType":"uint256"},{"name":"amountOutMin","type":"uint256","internalType":"uint256"},{"name":"routes","type":"tuple[]","internalType":"struct IRouter.Route[]","components":[{"name":"from","type":"address","internalType":"address"},{"name":"to","type":"address","internalType":"address"},{"name":"stable","type":"bool","internalType":"bool"},{"name":"factory","type":"address","internalType":"address"}]},{"name":"to","type":"address","internalType":"address"},{"name":"deadline","type":"uint256","internalType":"uint256"}],"outputs":[],"stateMutability":"nonpayable"},{"type":"function","name":"trustedForwarder","inputs":[],"outputs":[{"name":"","type":"address","internalType":"address"}],"stateMutability":"view"},{"type":"function","name":"voter","inputs":[],"outputs":[{"name":"","type":"address","internalType":"address"}],"stateMutability":"view"},{"type":"function","name":"weth","inputs":[],"outputs":[{"name":"","type":"address","internalType":"contract IWETH"}],"stateMutability":"view"},{"type":"function","name":"zapIn","inputs":[{"name":"tokenIn","type":"address","internalType":"address"},{"name":"amountInA","type":"uint256","internalType":"uint256"},{"name":"amountInB","type":"uint256","internalType":"uint256"},{"name":"zapInPool","type":"tuple","internalType":"struct IRouter.Zap","components":[{"name":"tokenA","type":"address","internalType":"address"},{"name":"tokenB","type":"address","internalType":"address"},{"name":"stable","type":"bool","internalType":"bool"},{"name":"factory","type":"address","internalType":"address"},{"name":"amountOutMinA","type":"uint256","internalType":"uint256"},{"name":"amountOutMinB","type":"uint256","internalType":"uint256"},{"name":"amountAMin","type":"uint256","internalType":"uint256"},{"name":"amountBMin","type":"uint256","internalType":"uint256"}]},{"name":"routesA","type":"tuple[]","internalType":"struct IRouter.Route[]","components":[{"name":"from","type":"address","internalType":"address"},{"name":"to","type":"address","internalType":"address"},{"name":"stable","type":"bool","internalType":"bool"},{"name":"factory","type":"address","internalType":"address"}]},{"name":"routesB","type":"tuple[]","internalType":"struct IRouter.Route[]","components":[{"name":"from","type":"address","internalType":"address"},{"name":"to","type":"address","internalType":"address"},{"name":"stable","type":"bool","internalType":"bool"},{"name":"factory","type":"address","internalType":"address"}]},{"name":"to","type":"address","internalType":"address"},{"name":"stake","type":"bool","internalType":"bool"}],"outputs":[{"name":"liquidity","type":"uint256","internalType":"uint256"}],"stateMutability":"payable"},{"type":"function","name":"zapOut","inputs":[{"name":"tokenOut","type":"address","internalType":"address"},{"name":"liquidity","type":"uint256","internalType":"uint256"},{"name":"zapOutPool","type":"tuple","internalType":"struct IRouter.Zap","components":[{"name":"tokenA","type":"address","internalType":"address"},{"name":"tokenB","type":"address","internalType":"address"},{"name":"stable","type":"bool","internalType":"bool"},{"name":"factory","type":"address","internalType":"address"},{"name":"amountOutMinA","type":"uint256","internalType":"uint256"},{"name":"amountOutMinB","type":"uint256","internalType":"uint256"},{"name":"amountAMin","type":"uint256","internalType":"uint256"},{"name":"amountBMin","type":"uint256","internalType":"uint256"}]},{"name":"routesA","type":"tuple[]","internalType":"struct IRouter.Route[]","components":[{"name":"from","type":"address","internalType":"address"},{"name":"to","type":"address","internalType":"address"},{"name":"stable","type":"bool","internalType":"bool"},{"name":"factory","type":"address","internalType":"address"}]},{"name":"routesB","type":"tuple[]","internalType":"struct IRouter.Route[]","components":[{"name":"from","type":"address","internalType":"address"},{"name":"to","type":"address","internalType":"address"},{"name":"stable","type":"bool","internalType":"bool"},{"name":"factory","type":"address","internalType":"address"}]}],"outputs":[],"stateMutability":"nonpayable"},{"type":"error","name":"ETHTransferFailed","inputs":[]},{"type":"error","name":"Expired","inputs":[]},{"type":"error","name":"InsufficientAmount","inputs":[]},{"type":"error","name":"InsufficientAmountA","inputs":[]},{"type":"error","name":"InsufficientAmountADesired","inputs":[]},{"type":"error","name":"InsufficientAmountAOptimal","inputs":[]},{"type":"error","name":"InsufficientAmountB","inputs":[]},{"type":"error","name":"InsufficientAmountBDesired","inputs":[]},{"type":"error","name":"InsufficientLiquidity","inputs":[]},{"type":"error","name":"InsufficientOutputAmount","inputs":[]},{"type":"error","name":"InvalidAmountInForETHDeposit","inputs":[]},{"type":"error","name":"InvalidPath","inputs":[]},{"type":"error","name":"InvalidRouteA","inputs":[]},{"type":"error","name":"InvalidRouteB","inputs":[]},{"type":"error","name":"InvalidTokenInForETHDeposit","inputs":[]},{"type":"error","name":"OnlyWETH","inputs":[]},{"type":"error","name":"PoolDoesNotExist","inputs":[]},{"type":"error","name":"PoolFactoryDoesNotExist","inputs":[]},{"type":"error","name":"SafeERC20FailedOperation","inputs":[{"name":"token","type":"address","internalType":"address"}]},{"type":"error","name":"SameAddresses","inputs":[]},{"type":"error","name":"ZeroAddress","inputs":[]}],"bytecode":{"object":"0x610120604052348015610010575f5ffd5b5060405161595238038061595283398101604081905261002f91610073565b6001600160a01b0394851660805292841660a05290831660c052821660e05216610100526100d4565b80516001600160a01b038116811461006e575f5ffd5b919050565b5f5f5f5f5f60a08688031215610087575f5ffd5b61009086610058565b945061009e60208701610058565b93506100ac60408701610058565b92506100ba60608701610058565b91506100c860808701610058565b90509295509295909350565b60805160a05160c05160e0516101005161574c6102065f395f818161016f015281816102ae015281816108c601528181610a9701528181610b4401528181610bc301528181610c4001528181610cb001528181611a4301528181611b5601528181611bdf01528181611d45015281816120290152818161205e015281816120b401528181612136015281816122710152818161243e0152818161294f0152818161299f01528181612cd201528181612cf50152818161304e0152818161310a01528181613ec30152613f5501525f81816103340152612e7601525f818161057f0152818161077301528181611204015281816114270152818161164e0152818161208001528181613a2c01528181613acb0152613b5101525f818161025b015261169f01525f611629015261574c5ff3fe60806040526004361061015f575f3560e01c806307db50fa146101b35780630dede6c4146101f757806312bc3aca1461022b5780633bf0c9fb1461024a5780633da5acba1461028a5780633fc8cef31461029d5780634111d597146102d057806342cb1fbc146102fc57806346c96aac14610323578063544caa56146103565780635509a1ac14610395578063572b6c05146103b45780635a47ddc3146103e35780637539d4131461041d5780637da0a8771461043c578063874029d91461045057806388cd821e1461046f5780638c0037dc1461048e578063903638a4146104ad578063a81b9159146104c0578063b7e0d4c0146104df578063c6b7f1b6146104f2578063c92de3ec14610511578063cac88ea914610530578063ce700c291461054f578063d4b6846d1461056e578063d7b0e0a5146105a1578063f5ba53c7146105c0578063fb49bafd146105ed578063fe411f1414610600575f5ffd5b366101af57336001600160a01b037f000000000000000000000000000000000000000000000000000000000000000016146101ad576040516301f180c960e01b815260040160405180910390fd5b005b5f5ffd5b3480156101be575f5ffd5b506101d26101cd3660046149bf565b61061f565b6040805194855260208501939093529183015260608201526080015b60405180910390f35b348015610202575f5ffd5b50610216610211366004614a8b565b61075e565b604080519283526020830191909152016101ee565b348015610236575f5ffd5b506101ad610245366004614b0b565b6108b2565b348015610255575f5ffd5b5061027d7f000000000000000000000000000000000000000000000000000000000000000081565b6040516101ee9190614b78565b6101ad610298366004614b8c565b610bb7565b3480156102a8575f5ffd5b5061027d7f000000000000000000000000000000000000000000000000000000000000000081565b3480156102db575f5ffd5b506102ef6102ea366004614c53565b610f26565b6040516101ee9190614d1e565b348015610307575f5ffd5b5061027d73eeeeeeeeeeeeeeeeeeeeeeeeeeeeeeeeeeeeeeee81565b34801561032e575f5ffd5b5061027d7f000000000000000000000000000000000000000000000000000000000000000081565b348015610361575f5ffd5b50610375610370366004614d60565b61107f565b604080516001600160a01b039384168152929091166020830152016101ee565b3480156103a0575f5ffd5b506102ef6103af366004614e1d565b611109565b3480156103bf575f5ffd5b506103d36103ce366004614ec3565b6113d9565b60405190151581526020016101ee565b3480156103ee575f5ffd5b506104026103fd366004614ede565b6113fd565b604080519384526020840192909252908201526060016101ee565b348015610428575f5ffd5b506101d2610437366004614f68565b6114f2565b348015610447575f5ffd5b5061027d611627565b34801561045b575f5ffd5b5061027d61046a366004615029565b61164b565b34801561047a575f5ffd5b506101ad610489366004614b0b565b61180a565b348015610499575f5ffd5b506102166104a8366004615029565b611980565b6102ef6104bb366004614b8c565b611a35565b3480156104cb575f5ffd5b506101ad6104da366004615099565b611cf5565b6104026104ed366004615136565b612016565b3480156104fd575f5ffd5b506102ef61050c366004614b0b565b61225b565b34801561051c575f5ffd5b5061021661052b3660046151a4565b612518565b34801561053b575f5ffd5b506102ef61054a366004614b0b565b612658565b34801561055a575f5ffd5b50610402610569366004615204565b612764565b348015610579575f5ffd5b5061027d7f000000000000000000000000000000000000000000000000000000000000000081565b3480156105ac575f5ffd5b506102166105bb366004615136565b61293d565b3480156105cb575f5ffd5b506105df6105da36600461526e565b612a15565b6040519081526020016101ee565b6105df6105fb3660046152b6565b612c7b565b34801561060b575f5ffd5b506105df61061a366004615136565b61303d565b85855f80606087156106b2576106868b8a8a808060200260200160405190810160405280939291908181526020015f905b8282101561067c5761066d60808302860136819003810190615383565b81526020019060010190610650565b5050505050611109565b9050806001825161069791906153b1565b815181106106a7576106a76153c4565b602002602001015194505b8515610735576107098a8888808060200260200160405190810160405280939291908181526020015f905b8282101561067c576106fa60808302860136819003810190615383565b815260200190600101906106dd565b9050806001825161071a91906153b1565b8151811061072a5761072a6153c4565b602002602001015193505b6107438f8f8f8f8989612764565b508093508194505050509a509a509a509a9650505050505050565b5f5f8261076a8161317f565b5f6107978c8c8c7f000000000000000000000000000000000000000000000000000000000000000061164b565b90506107b66107a46131a3565b6001600160a01b03831690838c6131e9565b505f5f826001600160a01b03166389afcb44896040518263ffffffff1660e01b81526004016107e59190614b78565b60408051808303815f875af1158015610800573d5f5f3e3d5ffd5b505050506040513d601f19601f8201168201806040525081019061082491906153d8565b915091505f6108338f8f61107f565b509050806001600160a01b03168f6001600160a01b031614610856578183610859565b82825b90975095508a87101561087f576040516323d9bb0560e21b815260040160405180910390fd5b898610156108a057604051630d32418960e21b815260040160405180910390fd5b50505050509850989650505050505050565b806108bc8161317f565b6001600160a01b037f00000000000000000000000000000000000000000000000000000000000000001685856108f36001826153b1565b818110610902576109026153c4565b905060800201602001602081019061091a9190614ec3565b6001600160a01b031614610941576040516320db826760e01b815260040160405180910390fd5b610a2385855f818110610956576109566153c4565b61096c9260206080909202019081019150614ec3565b6109746131a3565b610a1d88885f818110610989576109896153c4565b61099f9260206080909202019081019150614ec3565b89895f8181106109b1576109b16153c4565b90506080020160200160208101906109c99190614ec3565b8a8a5f8181106109db576109db6153c4565b90506080020160400160208101906109f391906153fa565b8b8b5f818110610a0557610a056153c4565b905060800201606001602081019061046a9190614ec3565b8a61320a565b610a7e8585808060200260200160405190810160405280939291908181526020015f905b82821015610a7357610a6460808302860136819003810190615383565b81526020019060010190610a47565b5050505050306132fa565b6040516370a0823160e01b81525f906001600160a01b037f000000000000000000000000000000000000000000000000000000000000000016906370a0823190610acc903090600401614b78565b602060405180830381865afa158015610ae7573d5f5f3e3d5ffd5b505050506040513d601f19601f82011682018060405250810190610b0b9190615415565b905086811015610b2e576040516342301c2360e01b815260040160405180910390fd5b604051632e1a7d4d60e01b8152600481018290527f00000000000000000000000000000000000000000000000000000000000000006001600160a01b031690632e1a7d4d906024015f604051808303815f87803b158015610b8d575f5ffd5b505af1158015610b9f573d5f5f3e3d5ffd5b50505050610bad84826136f7565b5050505050505050565b80610bc18161317f565b7f00000000000000000000000000000000000000000000000000000000000000006001600160a01b031685855f818110610bfd57610bfd6153c4565b610c139260206080909202019081019150614ec3565b6001600160a01b031614610c3a576040516320db826760e01b815260040160405180910390fd5b5f3490507f00000000000000000000000000000000000000000000000000000000000000006001600160a01b031663d0e30db0826040518263ffffffff1660e01b81526004015f604051808303818588803b158015610c97575f5ffd5b505af1158015610ca9573d5f5f3e3d5ffd5b50505050507f00000000000000000000000000000000000000000000000000000000000000006001600160a01b031663a9059cbb610cf288885f818110610989576109896153c4565b836040518363ffffffff1660e01b8152600401610d1092919061542c565b6020604051808303815f875af1158015610d2c573d5f5f3e3d5ffd5b505050506040513d601f19601f82011682018060405250810190610d509190615445565b610d5c57610d5c615460565b5f610d686001876153b1565b90505f878783818110610d7d57610d7d6153c4565b9050608002016020016020810190610d959190614ec3565b6001600160a01b03166370a08231876040518263ffffffff1660e01b8152600401610dc09190614b78565b602060405180830381865afa158015610ddb573d5f5f3e3d5ffd5b505050506040513d601f19601f82011682018060405250810190610dff9190615415565b9050610e5c8888808060200260200160405190810160405280939291908181526020015f905b82821015610e5157610e4260808302860136819003810190615383565b81526020019060010190610e25565b5050505050876132fa565b8881898985818110610e7057610e706153c4565b9050608002016020016020810190610e889190614ec3565b6001600160a01b03166370a08231896040518263ffffffff1660e01b8152600401610eb39190614b78565b602060405180830381865afa158015610ece573d5f5f3e3d5ffd5b505050506040513d601f19601f82011682018060405250810190610ef29190615415565b610efc91906153b1565b1015610f1b576040516342301c2360e01b815260040160405180910390fd5b505050505050505050565b606081610f328161317f565b61101586865f818110610f4757610f476153c4565b610f5d9260206080909202019081019150614ec3565b610f656131a3565b610ff689895f818110610f7a57610f7a6153c4565b610f909260206080909202019081019150614ec3565b8a8a5f818110610fa257610fa26153c4565b9050608002016020016020810190610fba9190614ec3565b8b8b5f818110610fcc57610fcc6153c4565b9050608002016040016020810190610fe491906153fa565b8c8c5f818110610a0557610a056153c4565b8a5f81518110611008576110086153c4565b602002602001015161320a565b611071878787808060200260200160405190810160405280939291908181526020015f905b828210156110665761105760808302860136819003810190615383565b8152602001906001019061103a565b505050505086613786565b8691505b5095945050505050565b5f5f826001600160a01b0316846001600160a01b0316036110b357604051633295f3fd60e21b815260040160405180910390fd5b826001600160a01b0316846001600160a01b0316106110d35782846110d6565b83835b90925090506001600160a01b0382166111025760405163d92e233d60e01b815260040160405180910390fd5b9250929050565b606060018251101561112e576040516320db826760e01b815260040160405180910390fd5b815161113b906001615474565b6001600160401b0381111561115257611152614bed565b60405190808252806020026020018201604052801561117b578160200160208202803683370190505b50905082815f81518110611191576111916153c4565b602090810291909101015281515f5b818110156113d1575f5f6001600160a01b03168583815181106111c5576111c56153c4565b6020026020010151606001516001600160a01b031614611202578482815181106111f1576111f16153c4565b602002602001015160600151611224565b7f00000000000000000000000000000000000000000000000000000000000000005b90505f61128986848151811061123c5761123c6153c4565b60200260200101515f0151878581518110611259576112596153c4565b602002602001015160200151888681518110611277576112776153c4565b6020026020010151604001518561164b565b604051635b16ebb760e01b81529091506001600160a01b03831690635b16ebb7906112b8908490600401614b78565b602060405180830381865afa1580156112d3573d5f5f3e3d5ffd5b505050506040513d601f19601f820116820180604052508101906112f79190615445565b156113c757806001600160a01b031663f140a35a86858151811061131d5761131d6153c4565b6020026020010151888681518110611337576113376153c4565b60200260200101515f01516040518363ffffffff1660e01b815260040161135f929190615487565b602060405180830381865afa15801561137a573d5f5f3e3d5ffd5b505050506040513d601f19601f8201168201806040525081019061139e9190615415565b856113aa856001615474565b815181106113ba576113ba6153c4565b6020026020010181815250505b50506001016111a0565b505092915050565b5f6113e2611627565b6001600160a01b0316826001600160a01b0316149050919050565b5f5f5f8361140a8161317f565b6114198d8d8d8d8d8d8d6139cf565b90945092505f61144b8e8e8e7f000000000000000000000000000000000000000000000000000000000000000061164b565b90506114608e6114596131a3565b838861320a565b6114738d61146c6131a3565b838761320a565b6040516335313c2160e11b81526001600160a01b03821690636a6278429061149f908a90600401614b78565b6020604051808303815f875af11580156114bb573d5f5f3e3d5ffd5b505050506040513d601f19601f820116820180604052508101906114df9190615415565b9250505099509950999650505050505050565b5f5f5f5f6115038d8d8d8d8d612518565b90945092508391508290506060871561159357611567838a8a808060200260200160405190810160405280939291908181526020015f905b8282101561067c5761155860808302860136819003810190615383565b8152602001906001019061153b565b9050806001825161157891906153b1565b81518110611588576115886153c4565b602002602001015194505b8515611616576115ea828888808060200260200160405190810160405280939291908181526020015f905b8282101561067c576115db60808302860136819003810190615383565b815260200190600101906115be565b905080600182516115fb91906153b1565b8151811061160b5761160b6153c4565b602002602001015193505b509950995099509995505050505050565b7f000000000000000000000000000000000000000000000000000000000000000090565b5f7f0000000000000000000000000000000000000000000000000000000000000000816001600160a01b038416156116835783611685565b815b60405163d1ea0a1d60e01b81529091506001600160a01b037f0000000000000000000000000000000000000000000000000000000000000000169063d1ea0a1d906116d4908490600401614b78565b602060405180830381865afa1580156116ef573d5f5f3e3d5ffd5b505050506040513d601f19601f820116820180604052508101906117139190615445565b61173057604051634d39d5a360e11b815260040160405180910390fd5b5f5f61173c898961107f565b6040516001600160601b0319606084811b8216602084015283901b16603482015289151560f81b604882015291935091505f9061179090604901604051602081830303815290604052805160209091012090565b90506117fc846001600160a01b0316635c60da1b6040518163ffffffff1660e01b8152600401602060405180830381865afa1580156117d1573d5f5f3e3d5ffd5b505050506040513d601f19601f820116820180604052508101906117f5919061549e565b8286613c2d565b9a9950505050505050505050565b806118148161317f565b61182985855f818110610956576109566153c4565b5f6118356001866153b1565b90505f86868381811061184a5761184a6153c4565b90506080020160200160208101906118629190614ec3565b6001600160a01b03166370a08231866040518263ffffffff1660e01b815260040161188d9190614b78565b602060405180830381865afa1580156118a8573d5f5f3e3d5ffd5b505050506040513d601f19601f820116820180604052508101906118cc9190615415565b90506119298787808060200260200160405190810160405280939291908181526020015f905b8282101561191e5761190f60808302860136819003810190615383565b815260200190600101906118f2565b5050505050866132fa565b878188888581811061193d5761193d6153c4565b90506080020160200160208101906119559190614ec3565b6001600160a01b03166370a08231886040518263ffffffff1660e01b8152600401610eb39190614b78565b5f5f5f61198d878761107f565b5090505f5f61199e8989898961164b565b6001600160a01b0316630902f1ac6040518163ffffffff1660e01b8152600401606060405180830381865afa1580156119d9573d5f5f3e3d5ffd5b505050506040513d601f19601f820116820180604052508101906119fd91906154b9565b5091509150826001600160a01b0316896001600160a01b031614611a22578082611a25565b81815b909a909950975050505050505050565b606081611a418161317f565b7f00000000000000000000000000000000000000000000000000000000000000006001600160a01b031686865f818110611a7d57611a7d6153c4565b611a939260206080909202019081019150614ec3565b6001600160a01b031614611aba576040516320db826760e01b815260040160405180910390fd5b611b0b348787808060200260200160405190810160405280939291908181526020015f905b8282101561067c57611afc60808302860136819003810190615383565b81526020019060010190611adf565b9150868260018451611b1d91906153b1565b81518110611b2d57611b2d6153c4565b60200260200101511015611b54576040516342301c2360e01b815260040160405180910390fd5b7f00000000000000000000000000000000000000000000000000000000000000006001600160a01b031663d0e30db0835f81518110611b9557611b956153c4565b60200260200101516040518263ffffffff1660e01b81526004015f604051808303818588803b158015611bc6575f5ffd5b505af1158015611bd8573d5f5f3e3d5ffd5b50505050507f00000000000000000000000000000000000000000000000000000000000000006001600160a01b031663a9059cbb611c2188885f818110610989576109896153c4565b845f81518110611c3357611c336153c4565b60200260200101516040518363ffffffff1660e01b8152600401611c5892919061542c565b6020604051808303815f875af1158015611c74573d5f5f3e3d5ffd5b505050506040513d601f19601f82011682018060405250810190611c989190615445565b611ca457611ca4615460565b611075828787808060200260200160405190810160405280939291908181526020015f905b8282101561106657611ce660808302860136819003810190615383565b81526020019060010190611cc9565b5f611d036020870187614ec3565b90505f611d166040880160208901614ec3565b90505f6001600160a01b038a1673eeeeeeeeeeeeeeeeeeeeeeeeeeeeeeeeeeeeeeee14611d435789611d65565b7f00000000000000000000000000000000000000000000000000000000000000005b9050611d718989613c41565b5f816001600160a01b0316846001600160a01b031614611ebe576040516370a0823160e01b81526001600160a01b038516906370a0823190611db7903090600401614b78565b602060405180830381865afa158015611dd2573d5f5f3e3d5ffd5b505050506040513d601f19601f82011682018060405250810190611df69190615415565b90506001600160a01b0382168888611e0f6001826153b1565b818110611e1e57611e1e6153c4565b9050608002016020016020810190611e369190614ec3565b6001600160a01b031614611e5d576040516309d41c6760e31b815260040160405180910390fd5b611ebe84828b608001358b8b808060200260200160405190810160405280939291908181526020015f905b82821015611eb457611ea560808302860136819003810190615383565b81526020019060010190611e88565b5050505050613da0565b816001600160a01b0316836001600160a01b031614612000576040516370a0823160e01b81526001600160a01b038416906370a0823190611f03903090600401614b78565b602060405180830381865afa158015611f1e573d5f5f3e3d5ffd5b505050506040513d601f19601f82011682018060405250810190611f429190615415565b90506001600160a01b0382168686611f5b6001826153b1565b818110611f6a57611f6a6153c4565b9050608002016020016020810190611f829190614ec3565b6001600160a01b031614611fa9576040516332b2410360e21b815260040160405180910390fd5b61200083828b60a001358989808060200260200160405190810160405280939291908181526020015f905b82821015611eb457611ff160808302860136819003810190615383565b81526020019060010190611fd4565b6120098b613e7b565b5050505050505050505050565b5f5f5f836120238161317f565b6120528b7f00000000000000000000000000000000000000000000000000000000000000008c8c348d8d6139cf565b90945092505f6120a48c7f00000000000000000000000000000000000000000000000000000000000000008d7f000000000000000000000000000000000000000000000000000000000000000061164b565b90506120b28c6114596131a3565b7f00000000000000000000000000000000000000000000000000000000000000006001600160a01b031663d0e30db0856040518263ffffffff1660e01b81526004015f604051808303818588803b15801561210b575f5ffd5b505af115801561211d573d5f5f3e3d5ffd5b505060405163a9059cbb60e01b81526001600160a01b037f000000000000000000000000000000000000000000000000000000000000000016935063a9059cbb925061217091508490889060040161542c565b6020604051808303815f875af115801561218c573d5f5f3e3d5ffd5b505050506040513d601f19601f820116820180604052508101906121b09190615445565b6121bc576121bc615460565b6040516335313c2160e11b81526001600160a01b03821690636a627842906121e8908a90600401614b78565b6020604051808303815f875af1158015612204573d5f5f3e3d5ffd5b505050506040513d601f19601f820116820180604052508101906122289190615415565b92508334111561224c5761224c61223d6131a3565b61224786346153b1565b6136f7565b50509750975097945050505050565b6060816122678161317f565b6001600160a01b037f000000000000000000000000000000000000000000000000000000000000000016868661229e6001826153b1565b8181106122ad576122ad6153c4565b90506080020160200160208101906122c59190614ec3565b6001600160a01b0316146122ec576040516320db826760e01b815260040160405180910390fd5b61233d888787808060200260200160405190810160405280939291908181526020015f905b8282101561067c5761232e60808302860136819003810190615383565b81526020019060010190612311565b915086826001845161234f91906153b1565b8151811061235f5761235f6153c4565b60200260200101511015612386576040516342301c2360e01b815260040160405180910390fd5b6123e086865f81811061239b5761239b6153c4565b6123b19260206080909202019081019150614ec3565b6123b96131a3565b6123ce89895f818110610f7a57610f7a6153c4565b855f81518110611008576110086153c4565b61243c828787808060200260200160405190810160405280939291908181526020015f905b828210156124315761242260808302860136819003810190615383565b81526020019060010190612405565b505050505030613786565b7f00000000000000000000000000000000000000000000000000000000000000006001600160a01b0316632e1a7d4d836001855161247a91906153b1565b8151811061248a5761248a6153c4565b60200260200101516040518263ffffffff1660e01b81526004016124b091815260200190565b5f604051808303815f87803b1580156124c7575f5ffd5b505af11580156124d9573d5f5f3e3d5ffd5b5050505061250d8483600185516124f091906153b1565b81518110612500576125006153c4565b60200260200101516136f7565b509695505050505050565b5f5f5f846001600160a01b03166379bc57d58989896040518463ffffffff1660e01b815260040161254b939291906154e4565b602060405180830381865afa158015612566573d5f5f3e3d5ffd5b505050506040513d601f19601f8201168201806040525081019061258a919061549e565b90506001600160a01b0381166125a6575f5f925092505061264e565b5f5f6125b48a8a8a8a611980565b915091505f836001600160a01b03166318160ddd6040518163ffffffff1660e01b8152600401602060405180830381865afa1580156125f5573d5f5f3e3d5ffd5b505050506040513d601f19601f820116820180604052508101906126199190615415565b9050806126268489615508565b612630919061551f565b95508061263d8389615508565b612647919061551f565b9450505050505b9550959350505050565b6060816126648161317f565b6126b5888787808060200260200160405190810160405280939291908181526020015f905b8282101561067c576126a660808302860136819003810190615383565b81526020019060010190612689565b91508682600184516126c791906153b1565b815181106126d7576126d76153c4565b602002602001015110156126fe576040516342301c2360e01b815260040160405180910390fd5b61271386865f81811061239b5761239b6153c4565b61250d828787808060200260200160405190810160405280939291908181526020015f905b828210156110665761275560808302860136819003810190615383565b81526020019060010190612738565b5f5f5f5f866001600160a01b03166379bc57d58b8b8b6040518463ffffffff1660e01b8152600401612798939291906154e4565b602060405180830381865afa1580156127b3573d5f5f3e3d5ffd5b505050506040513d601f19601f820116820180604052508101906127d7919061549e565b90505f80806001600160a01b0384161561285f57836001600160a01b03166318160ddd6040518163ffffffff1660e01b8152600401602060405180830381865afa158015612827573d5f5f3e3d5ffd5b505050506040513d601f19601f8201168201806040525081019061284b9190615415565b90506128598d8d8d8d611980565b90935091505b8215801561286b575081155b1561289c578896508795506103e861288b612886888a615508565b614045565b61289591906153b1565b945061292d565b5f6128a88a85856140d0565b90508881116128f0578997509550856128e9846128c5848b615508565b6128cf919061551f565b846128da858b615508565b6128e4919061551f565b61412f565b955061292b565b5f6128fc8a85876140d0565b9850899750889050612927856129128584615508565b61291c919061551f565b856128da868c615508565b9650505b505b5050505096509650969350505050565b5f5f826129498161317f565b6129798a7f00000000000000000000000000000000000000000000000000000000000000008b8b8b8b308b61075e565b90935091506129898a8685614141565b604051632e1a7d4d60e01b8152600481018390527f00000000000000000000000000000000000000000000000000000000000000006001600160a01b031690632e1a7d4d906024015f604051808303815f87803b1580156129e8575f5ffd5b505af11580156129fa573d5f5f3e3d5ffd5b50505050612a0885836136f7565b5097509795505050505050565b5f5f612a24858560018661164b565b90505f856001600160a01b031663313ce5676040518163ffffffff1660e01b8152600401602060405180830381865afa158015612a63573d5f5f3e3d5ffd5b505050506040513d601f19601f82011682018060405250810190612a87919061553e565b612a9290600a615641565b90505f856001600160a01b031663313ce5676040518163ffffffff1660e01b8152600401602060405180830381865afa158015612ad1573d5f5f3e3d5ffd5b505050506040513d601f19601f82011682018060405250810190612af5919061553e565b612b0090600a615641565b6040516378a051ad60e11b815290915082905f906001600160a01b0386169063f140a35a90612b359085908d90600401615487565b602060405180830381865afa158015612b50573d5f5f3e3d5ffd5b505050506040513d601f19601f82011682018060405250810190612b749190615415565b90505f5f612b878b8b60018c8888612764565b50909250905085612ba083670de0b6b3a7640000615508565b612baa919061551f565b915084612bbf82670de0b6b3a7640000615508565b612bc9919061551f565b905084612bde84670de0b6b3a7640000615508565b612be8919061551f565b925085612bfd85670de0b6b3a7640000615508565b612c07919061551f565b9350808285612c1e86670de0b6b3a7640000615508565b612c28919061551f565b612c329190615508565b612c3c919061551f565b9750612c5088670de0b6b3a7640000615474565b612c6285670de0b6b3a7640000615508565b612c6c919061551f565b9b9a5050505050505050505050565b5f80612c878a8c615474565b90508b3473eeeeeeeeeeeeeeeeeeeeeeeeeeeeeeeeeeeeeeed196001600160a01b03831601612d6857808314612cd057604051633851fdc960e11b815260040160405180910390fd5b7f000000000000000000000000000000000000000000000000000000000000000091507f00000000000000000000000000000000000000000000000000000000000000006001600160a01b031663d0e30db0826040518263ffffffff1660e01b81526004015f604051808303818588803b158015612d4c575f5ffd5b505af1158015612d5e573d5f5f3e3d5ffd5b5050505050612d9a565b8015612d875760405163ae6d566f60e01b815260040160405180910390fd5b612d9a82612d936131a3565b308661320a565b612daa828e8e8e8e8e8e8e61422b565b612db38b6144d6565b5f612dfd612dc460208e018e614ec3565b8d6020016020810190612dd79190614ec3565b8e6040016020810190612dea91906153fa565b8f606001602081019061046a9190614ec3565b90508515612f8b576040516335313c2160e11b81526001600160a01b03821690636a62784290612e31903090600401614b78565b6020604051808303815f875af1158015612e4d573d5f5f3e3d5ffd5b505050506040513d601f19601f82011682018060405250810190612e719190615415565b94505f7f00000000000000000000000000000000000000000000000000000000000000006001600160a01b031663b9a09fd5836040518263ffffffff1660e01b8152600401612ec09190614b78565b602060405180830381865afa158015612edb573d5f5f3e3d5ffd5b505050506040513d601f19601f82011682018060405250810190612eff919061549e565b9050612f156001600160a01b0383168288614636565b604051636e553f6560e01b81526001600160a01b03821690636e553f6590612f439089908c90600401615487565b5f604051808303815f87803b158015612f5a575f5ffd5b505af1158015612f6c573d5f5f3e3d5ffd5b50612f85925050506001600160a01b038316825f614636565b50612ffa565b6040516335313c2160e11b81526001600160a01b03821690636a62784290612fb7908a90600401614b78565b6020604051808303815f875af1158015612fd3573d5f5f3e3d5ffd5b505050506040513d601f19601f82011682018060405250810190612ff79190615415565b94505b6130038f613e7b565b61301861301360208e018e614ec3565b613e7b565b61302b61301360408e0160208f01614ec3565b505050509a9950505050505050505050565b5f816130488161317f565b613078897f00000000000000000000000000000000000000000000000000000000000000008a8a8a8a308a61075e565b6040516370a0823160e01b81529093506130f491508a9086906001600160a01b038316906370a08231906130b0903090600401614b78565b602060405180830381865afa1580156130cb573d5f5f3e3d5ffd5b505050506040513d601f19601f820116820180604052508101906130ef9190615415565b614141565b604051632e1a7d4d60e01b8152600481018390527f00000000000000000000000000000000000000000000000000000000000000006001600160a01b031690632e1a7d4d906024015f604051808303815f87803b158015613153575f5ffd5b505af1158015613165573d5f5f3e3d5ffd5b5050505061317384836136f7565b50979650505050505050565b428110156131a057604051630407b05b60e31b815260040160405180910390fd5b50565b5f3660148082108015906131bb57506131bb336113d9565b156131e1576131ce36828403815f61564f565b6131d791615676565b60601c9250505090565b339250505090565b5f6131ff6001600160a01b03861685858561468c565b506001949350505050565b5f846001600160a01b03163b1161321f575f5ffd5b604080516001600160a01b0385811660248301528481166044830152606480830185905283518084039091018152608490920183526020820180516001600160e01b03166323b872dd60e01b17905291515f9283929088169161328291906156ae565b5f604051808303815f865af19150503d805f81146132bb576040519150601f19603f3d011682016040523d82523d5f602084013e6132c0565b606091505b50915091508180156132ea5750805115806132ea5750808060200190518101906132ea9190615445565b6132f2575f5ffd5b505050505050565b81515f5b818110156136f1575f61334a85838151811061331c5761331c6153c4565b60200260200101515f0151868481518110613339576133396153c4565b60200260200101516020015161107f565b5090505f6133cd868481518110613363576133636153c4565b60200260200101515f0151878581518110613380576133806153c4565b60200260200101516020015188868151811061339e5761339e6153c4565b6020026020010151604001518987815181106133bc576133bc6153c4565b60200260200101516060015161164b565b90505f5f5f6134518987815181106133e7576133e76153c4565b60200260200101515f01518a8881518110613404576134046153c4565b6020026020010151602001518b8981518110613422576134226153c4565b6020026020010151604001518c8a81518110613440576134406153c4565b602002602001015160600151611980565b50905080898781518110613467576134676153c4565b60200260200101515f01516001600160a01b03166370a08231866040518263ffffffff1660e01b815260040161349d9190614b78565b602060405180830381865afa1580156134b8573d5f5f3e3d5ffd5b505050506040513d601f19601f820116820180604052508101906134dc9190615415565b6134e691906153b1565b925050826001600160a01b031663f140a35a838a888151811061350b5761350b6153c4565b60200260200101515f01516040518363ffffffff1660e01b8152600401613533929190615487565b602060405180830381865afa15801561354e573d5f5f3e3d5ffd5b505050506040513d601f19601f820116820180604052508101906135729190615415565b90505f5f856001600160a01b03168a8881518110613592576135926153c4565b60200260200101515f01516001600160a01b0316146135b257825f6135b5565b5f835b915091505f60018b516135c891906153b1565b88106135d45789613670565b6136708b6135e38a6001615474565b815181106135f3576135f36153c4565b60200260200101515f01518c8a600161360c9190615474565b8151811061361c5761361c6153c4565b6020026020010151602001518d8b60016136369190615474565b81518110613646576136466153c4565b6020026020010151604001518e8c60016136609190615474565b815181106133bc576133bc6153c4565b604080515f8152602081019182905263022c0d9f60e01b9091529091506001600160a01b0387169063022c0d9f906136b190869086908690602481016156c4565b5f604051808303815f87803b1580156136c8575f5ffd5b505af11580156136da573d5f5f3e3d5ffd5b5050600190990198506132fe975050505050505050565b50505050565b604080515f808252602082019092526001600160a01b03841690839060405161372091906156ae565b5f6040518083038185875af1925050503d805f811461375a576040519150601f19603f3d011682016040523d82523d5f602084013e61375f565b606091505b50509050806137815760405163b12d13eb60e01b815260040160405180910390fd5b505050565b81515f5b818110156139c8575f6137a885838151811061331c5761331c6153c4565b5090505f866137b8846001615474565b815181106137c8576137c86153c4565b602002602001015190505f5f836001600160a01b03168886815181106137f0576137f06153c4565b60200260200101515f01516001600160a01b03161461381057825f613813565b5f835b915091505f6001895161382691906153b1565b861061383257876138be565b6138be89613841886001615474565b81518110613851576138516153c4565b60200260200101515f01518a88600161386a9190615474565b8151811061387a5761387a6153c4565b6020026020010151602001518b8960016138949190615474565b815181106138a4576138a46153c4565b6020026020010151604001518c8a60016136609190615474565b905061392e8987815181106138d5576138d56153c4565b60200260200101515f01518a88815181106138f2576138f26153c4565b6020026020010151602001518b8981518110613910576139106153c4565b6020026020010151604001518c8a815181106133bc576133bc6153c4565b6001600160a01b031663022c0d9f8484845f6040519080825280601f01601f19166020018201604052801561396a576020820181803683370190505b506040518563ffffffff1660e01b815260040161398a94939291906156c4565b5f604051808303815f87803b1580156139a1575f5ffd5b505af11580156139b3573d5f5f3e3d5ffd5b50506001909701965061378a95505050505050565b5050505050565b5f5f838610156139f257604051636e35977960e11b815260040160405180910390fd5b82851015613a135760405163acee051360e01b815260040160405180910390fd5b6040516379bc57d560e01b81525f906001600160a01b037f000000000000000000000000000000000000000000000000000000000000000016906379bc57d590613a65908d908d908d906004016154e4565b602060405180830381865afa158015613a80573d5f5f3e3d5ffd5b505050506040513d601f19601f82011682018060405250810190613aa4919061549e565b90506001600160a01b038116613b47576040516301b5fcad60e51b81526001600160a01b037f000000000000000000000000000000000000000000000000000000000000000016906336bf95a090613b04908d908d908d906004016154e4565b6020604051808303815f875af1158015613b20573d5f5f3e3d5ffd5b505050506040513d601f19601f82011682018060405250810190613b44919061549e565b90505b5f5f613b758c8c8c7f0000000000000000000000000000000000000000000000000000000000000000611980565b91509150815f148015613b86575080155b15613b9657889450879350613c1e565b5f613ba28a84846140d0565b9050888111613bd75786811015613bcc57604051630d32418960e21b815260040160405180910390fd5b899550935083613c1c565b5f613be38a84866140d0565b90508a811115613bf557613bf5615460565b88811015613c16576040516323d9bb0560e21b815260040160405180910390fd5b95508894505b505b50505097509795505050505050565b5f613c39848484614698565b949350505050565b5f613c4f6020830183614ec3565b90505f613c626040840160208501614ec3565b90505f613c8a8383613c7a60608801604089016153fa565b61046a6080890160608a01614ec3565b9050613ca16001600160a01b0382163383886131e9565b505f613cad848461107f565b5090505f5f836001600160a01b03166389afcb44306040518263ffffffff1660e01b8152600401613cde9190614b78565b60408051808303815f875af1158015613cf9573d5f5f3e3d5ffd5b505050506040513d601f19601f82011682018060405250810190613d1d91906153d8565b915091505f5f846001600160a01b0316886001600160a01b031614613d43578284613d46565b83835b915091508860c00135821015613d6f576040516323d9bb0560e21b815260040160405180910390fd5b8860e00135811015613d9457604051630d32418960e21b815260040160405180910390fd5b50505050505050505050565b5f613dab8483611109565b9050828160018351613dbd91906153b1565b81518110613dcd57613dcd6153c4565b60200260200101511015613df4576040516342301c2360e01b815260040160405180910390fd5b5f613e63835f81518110613e0a57613e0a6153c4565b60200260200101515f0151845f81518110613e2757613e276153c4565b602002602001015160200151855f81518110613e4557613e456153c4565b602002602001015160400151865f815181106133bc576133bc6153c4565b9050613e70868287614141565b6132f2828430613786565b5f613e846131a3565b90505f73eeeeeeeeeeeeeeeeeeeeeeeeeeeeeeeeeeeeeeed196001600160a01b03841601613fbe576040516370a0823160e01b81526001600160a01b037f000000000000000000000000000000000000000000000000000000000000000016906370a0823190613ef8903090600401614b78565b602060405180830381865afa158015613f13573d5f5f3e3d5ffd5b505050506040513d601f19601f82011682018060405250810190613f379190615415565b9050801561378157604051632e1a7d4d60e01b8152600481018290527f00000000000000000000000000000000000000000000000000000000000000006001600160a01b031690632e1a7d4d906024015f604051808303815f87803b158015613f9e575f5ffd5b505af1158015613fb0573d5f5f3e3d5ffd5b5050505061378182826136f7565b6040516370a0823160e01b81526001600160a01b038416906370a0823190613fea903090600401614b78565b602060405180830381865afa158015614005573d5f5f3e3d5ffd5b505050506040513d601f19601f820116820180604052508101906140299190615415565b90508015613781576136f16001600160a01b03841683836146f1565b5f6140ca826001600160881b03811160071b81811c6001600160481b031060061b1781811c64ffffffffff1060051b1781811c62ffffff1060041b1781811c620100000160b5600192831c1b0260121c80830401811c80830401811c80830401811c80830401811c80830401811c80830401811c80830401901c908190048111900390565b92915050565b5f835f036140f157604051632ca2f52b60e11b815260040160405180910390fd5b8215806140fc575081155b1561411a5760405163bb55fd2760e01b815260040160405180910390fd5b826141258386615508565b613c39919061551f565b5f8183118284180283185b9392505050565b5f836001600160a01b03163b11614156575f5ffd5b5f5f846001600160a01b031663a9059cbb60e01b858560405160240161417d92919061542c565b60408051601f198184030181529181526020820180516001600160e01b03166001600160e01b03199094169390931790925290516141bb91906156ae565b5f604051808303815f865af19150503d805f81146141f4576040519150601f19603f3d011682016040523d82523d5f602084013e6141f9565b606091505b50915091508180156142235750805115806142235750808060200190518101906142239190615445565b6139c8575f5ffd5b5f6142396020870187614ec3565b90505f61424c6040880160208901614ec3565b90505f61425f6060890160408a016153fa565b90505f61427260808a0160608b01614ec3565b90505f6142818585858561164b565b90505f5f826001600160a01b0316630902f1ac6040518163ffffffff1660e01b8152600401606060405180830381865afa1580156142c1573d5f5f3e3d5ffd5b505050506040513d601f19601f820116820180604052508101906142e591906154b9565b50915091506103e8821115806142fd57506103e88111155b1561431b576040516302721e1f60e61b815260040160405180910390fd5b5050846001600160a01b03168d6001600160a01b0316146143f2576001600160a01b038516898961434d6001826153b1565b81811061435c5761435c6153c4565b90506080020160200160208101906143749190614ec3565b6001600160a01b03161461439b576040516309d41c6760e31b815260040160405180910390fd5b6143f28d8d8c608001358c8c808060200260200160405190810160405280939291908181526020015f905b82821015611eb4576143e360808302860136819003810190615383565b815260200190600101906143c6565b836001600160a01b03168d6001600160a01b0316146144c7576001600160a01b03841687876144226001826153b1565b818110614431576144316153c4565b90506080020160200160208101906144499190614ec3565b6001600160a01b031614614470576040516332b2410360e21b815260040160405180910390fd5b6144c78d8c8c60a001358a8a808060200260200160405190810160405280939291908181526020015f905b82821015611eb4576144b860808302860136819003810190615383565b8152602001906001019061449b565b50505050505050505050505050565b5f6144e46020830183614ec3565b90505f6144f76040840160208501614ec3565b90505f61450a60608501604086016153fa565b90505f61451d6080860160608701614ec3565b90505f61452c8585858561164b565b90505f5f61461c878787878b6001600160a01b03166370a08231306040518263ffffffff1660e01b81526004016145639190614b78565b602060405180830381865afa15801561457e573d5f5f3e3d5ffd5b505050506040513d601f19601f820116820180604052508101906145a29190615415565b6040516370a0823160e01b81526001600160a01b038d16906370a08231906145ce903090600401614b78565b602060405180830381865afa1580156145e9573d5f5f3e3d5ffd5b505050506040513d601f19601f8201168201806040525081019061460d9190615415565b8e60c001358f60e00135614710565b9150915061462b878484614141565b610bad868483614141565b6137818363095ea7b360e01b848460405160240161465592919061542c565b60408051601f198184030181529190526020810180516001600160e01b03166001600160e01b03199093169290921790915261481a565b6136f184848484614886565b5f5f6146db855f6c5af43d3d93803e602a57fd5bf36021528160145273602c3d8160093d39f33d3d3d3d363d3d37363d735f526035600c2090505f602152919050565b90506146e88185856148df565b95945050505050565b5f6147066001600160a01b03851684846148fe565b5060019392505050565b5f5f8386101561473357604051636e35977960e11b815260040160405180910390fd5b828510156147545760405163acee051360e01b815260040160405180910390fd5b5f5f6147628c8c8c8c611980565b91509150815f148015614773575080155b156147835787935086925061480b565b5f61478f8984846140d0565b90508781116147c457858110156147b957604051630d32418960e21b815260040160405180910390fd5b889450925082614809565b5f6147d08984866140d0565b9050898111156147e2576147e2615460565b87811015614803576040516323d9bb0560e21b815260040160405180910390fd5b94508793505b505b50509850989650505050505050565b5f5f60205f8451602086015f885af180614839576040513d5f823e3d81fd5b50505f513d9150811561485057806001141561485d565b6001600160a01b0384163b155b156136f15783604051635274afe760e01b815260040161487d9190614b78565b60405180910390fd5b60405181606052826040528360601b602c526323b872dd60601b600c5260205f6064601c5f895af18060015f5114166148d157803d873b1517106148d157637939f4245f526004601cfd5b505f60605260405250505050565b5f60ff5f5350603592835260601b60015260155260555f908120915290565b613781838383816014528060345263a9059cbb60601b5f5260205f604460105f875af18060015f51141661494457803d853b151710614944576390b8ec185f526004601cfd5b505f603452505050565b6001600160a01b03811681146131a0575f5ffd5b803561496d8161494e565b919050565b80151581146131a0575f5ffd5b5f5f83601f84011261498f575f5ffd5b5081356001600160401b038111156149a5575f5ffd5b6020830191508360208260071b8501011115611102575f5ffd5b5f5f5f5f5f5f5f5f5f5f6101008b8d0312156149d9575f5ffd5b8a356149e48161494e565b995060208b01356149f48161494e565b985060408b0135614a0481614972565b975060608b0135614a148161494e565b965060808b0135955060a08b0135945060c08b01356001600160401b03811115614a3c575f5ffd5b614a488d828e0161497f565b90955093505060e08b01356001600160401b03811115614a66575f5ffd5b614a728d828e0161497f565b915080935050809150509295989b9194979a5092959850565b5f5f5f5f5f5f5f5f610100898b031215614aa3575f5ffd5b8835614aae8161494e565b97506020890135614abe8161494e565b96506040890135614ace81614972565b9550606089013594506080890135935060a0890135925060c0890135614af38161494e565b979a969950949793969295919450919260e001359150565b5f5f5f5f5f5f60a08789031215614b20575f5ffd5b863595506020870135945060408701356001600160401b03811115614b43575f5ffd5b614b4f89828a0161497f565b9095509350506060870135614b638161494e565b95989497509295919493608090920135925050565b6001600160a01b0391909116815260200190565b5f5f5f5f5f60808688031215614ba0575f5ffd5b8535945060208601356001600160401b03811115614bbc575f5ffd5b614bc88882890161497f565b9095509350506040860135614bdc8161494e565b949793965091946060013592915050565b634e487b7160e01b5f52604160045260245ffd5b604051601f8201601f191681016001600160401b0381118282101715614c2957614c29614bed565b604052919050565b5f6001600160401b03821115614c4957614c49614bed565b5060051b60200190565b5f5f5f5f5f60808688031215614c67575f5ffd5b85356001600160401b03811115614c7c575f5ffd5b8601601f81018813614c8c575f5ffd5b8035614c9f614c9a82614c31565b614c01565b8082825260208201915060208360051b85010192508a831115614cc0575f5ffd5b6020840193505b82841015614ce2578335825260209384019390910190614cc7565b975050505060208601356001600160401b03811115614cff575f5ffd5b614d0b8882890161497f565b9095509350614bdc905060408701614962565b602080825282518282018190525f918401906040840190835b81811015614d55578351835260209384019390920191600101614d37565b509095945050505050565b5f5f60408385031215614d71575f5ffd5b8235614d7c8161494e565b91506020830135614d8c8161494e565b809150509250929050565b5f60808284031215614da7575f5ffd5b604051608081016001600160401b0381118282101715614dc957614dc9614bed565b6040529050808235614dda8161494e565b81526020830135614dea8161494e565b60208201526040830135614dfd81614972565b60408201526060830135614e108161494e565b6060919091015292915050565b5f5f60408385031215614e2e575f5ffd5b8235915060208301356001600160401b03811115614e4a575f5ffd5b8301601f81018513614e5a575f5ffd5b8035614e68614c9a82614c31565b8082825260208201915060208360071b850101925087831115614e89575f5ffd5b6020840193505b82841015614eb557614ea28885614d97565b8252602082019150608084019350614e90565b809450505050509250929050565b5f60208284031215614ed3575f5ffd5b813561413a8161494e565b5f5f5f5f5f5f5f5f5f6101208a8c031215614ef7575f5ffd5b8935614f028161494e565b985060208a0135614f128161494e565b975060408a0135614f2281614972565b965060608a0135955060808a0135945060a08a0135935060c08a0135925060e08a0135614f4e8161494e565b989b979a5095989497939692955090936101000135919050565b5f5f5f5f5f5f5f5f5f60e08a8c031215614f80575f5ffd5b8935614f8b8161494e565b985060208a0135614f9b8161494e565b975060408a0135614fab81614972565b965060608a0135614fbb8161494e565b955060808a0135945060a08a01356001600160401b03811115614fdc575f5ffd5b614fe88c828d0161497f565b90955093505060c08a01356001600160401b03811115615006575f5ffd5b6150128c828d0161497f565b915080935050809150509295985092959850929598565b5f5f5f5f6080858703121561503c575f5ffd5b84356150478161494e565b935060208501356150578161494e565b9250604085013561506781614972565b915060608501356150778161494e565b939692955090935050565b5f6101008284031215615093575f5ffd5b50919050565b5f5f5f5f5f5f5f610180888a0312156150b0575f5ffd5b87356150bb8161494e565b9650602088013595506150d18960408a01615082565b94506101408801356001600160401b038111156150ec575f5ffd5b6150f88a828b0161497f565b9095509350506101608801356001600160401b03811115615117575f5ffd5b6151238a828b0161497f565b989b979a50959850939692959293505050565b5f5f5f5f5f5f5f60e0888a03121561514c575f5ffd5b87356151578161494e565b9650602088013561516781614972565b955060408801359450606088013593506080880135925060a088013561518c8161494e565b96999598509396929591949193505060c09091013590565b5f5f5f5f5f60a086880312156151b8575f5ffd5b85356151c38161494e565b945060208601356151d38161494e565b935060408601356151e381614972565b925060608601356151f38161494e565b949793965091946080013592915050565b5f5f5f5f5f5f60c08789031215615219575f5ffd5b86356152248161494e565b955060208701356152348161494e565b9450604087013561524481614972565b935060608701356152548161494e565b9598949750929560808101359460a0909101359350915050565b5f5f5f60608486031215615280575f5ffd5b833561528b8161494e565b9250602084013561529b8161494e565b915060408401356152ab8161494e565b809150509250925092565b5f5f5f5f5f5f5f5f5f5f6101e08b8d0312156152d0575f5ffd5b8a356152db8161494e565b995060208b0135985060408b013597506152f88c60608d01615082565b96506101608b01356001600160401b03811115615313575f5ffd5b61531f8d828e0161497f565b9097509550506101808b01356001600160401b0381111561533e575f5ffd5b61534a8d828e0161497f565b9095509350506101a08b013561535f8161494e565b91506101c08b013561537081614972565b809150509295989b9194979a5092959850565b5f60808284031215615393575f5ffd5b61413a8383614d97565b634e487b7160e01b5f52601160045260245ffd5b818103818111156140ca576140ca61539d565b634e487b7160e01b5f52603260045260245ffd5b5f5f604083850312156153e9575f5ffd5b505080516020909101519092909150565b5f6020828403121561540a575f5ffd5b813561413a81614972565b5f60208284031215615425575f5ffd5b5051919050565b6001600160a01b03929092168252602082015260400190565b5f60208284031215615455575f5ffd5b815161413a81614972565b634e487b7160e01b5f52600160045260245ffd5b808201808211156140ca576140ca61539d565b9182526001600160a01b0316602082015260400190565b5f602082840312156154ae575f5ffd5b815161413a8161494e565b5f5f5f606084860312156154cb575f5ffd5b5050815160208301516040909301519094929350919050565b6001600160a01b039384168152919092166020820152901515604082015260600190565b80820281158282048414176140ca576140ca61539d565b5f8261553957634e487b7160e01b5f52601260045260245ffd5b500490565b5f6020828403121561554e575f5ffd5b815160ff8116811461413a575f5ffd5b6001815b60018411156155995780850481111561557d5761557d61539d565b600184161561558b57908102905b60019390931c928002615562565b935093915050565b5f826155af575060016140ca565b816155bb57505f6140ca565b81600181146155d157600281146155db576155f7565b60019150506140ca565b60ff8411156155ec576155ec61539d565b50506001821b6140ca565b5060208310610133831016604e8410600b841016171561561a575081810a6140ca565b6156265f19848461555e565b805f19048211156156395761563961539d565b029392505050565b5f61413a60ff8416836155a1565b5f5f8585111561565d575f5ffd5b83861115615669575f5ffd5b5050820193919092039150565b80356001600160601b031981169060148410156156a7576001600160601b0319601485900360031b81901b82161691505b5092915050565b5f82518060208501845e5f920191825250919050565b84815283602082015260018060a01b0383166040820152608060608201525f8251806080840152806020850160a085015e5f60a0828501015260a0601f19601f8301168401019150509594505050505056fea2646970667358221220d2ca9c828563c1eb721b5b34ab37ea54d973f719b790303a37e8b2276fc1002464736f6c634300081e0033","linkReferences":{}},"methodIdentifiers":{"ETHER()":"42cb1fbc","UNSAFE_swapExactTokensForTokens(uint256[],(address,address,bool,address)[],address,uint256)":"4111d597","addLiquidity(address,address,bool,uint256,uint256,uint256,uint256,address,uint256)":"5a47ddc3","addLiquidityETH(address,bool,uint256,uint256,uint256,address,uint256)":"b7e0d4c0","defaultFactory()":"d4b6846d","factoryRegistry()":"3bf0c9fb","generateZapInParams(address,address,bool,address,uint256,uint256,(address,address,bool,address)[],(address,address,bool,address)[])":"07db50fa","generateZapOutParams(address,address,bool,address,uint256,(address,address,bool,address)[],(address,address,bool,address)[])":"7539d413","getAmountsOut(uint256,(address,address,bool,address)[])":"5509a1ac","getReserves(address,address,bool,address)":"8c0037dc","isTrustedForwarder(address)":"572b6c05","poolFor(address,address,bool,address)":"874029d9","quoteAddLiquidity(address,address,bool,address,uint256,uint256)":"ce700c29","quoteRemoveLiquidity(address,address,bool,address,uint256)":"c92de3ec","quoteStableLiquidityRatio(address,address,address)":"f5ba53c7","removeLiquidity(address,address,bool,uint256,uint256,uint256,address,uint256)":"0dede6c4","removeLiquidityETH(address,bool,uint256,uint256,uint256,address,uint256)":"d7b0e0a5","removeLiquidityETHSupportingFeeOnTransferTokens(address,bool,uint256,uint256,uint256,address,uint256)":"fe411f14","sortTokens(address,address)":"544caa56","swapExactETHForTokens(uint256,(address,address,bool,address)[],address,uint256)":"903638a4","swapExactETHForTokensSupportingFeeOnTransferTokens(uint256,(address,address,bool,address)[],address,uint256)":"3da5acba","swapExactTokensForETH(uint256,uint256,(address,address,bool,address)[],address,uint256)":"c6b7f1b6","swapExactTokensForETHSupportingFeeOnTransferTokens(uint256,uint256,(address,address,bool,address)[],address,uint256)":"12bc3aca","swapExactTokensForTokens(uint256,uint256,(address,address,bool,address)[],address,uint256)":"cac88ea9","swapExactTokensForTokensSupportingFeeOnTransferTokens(uint256,uint256,(address,address,bool,address)[],address,uint256)":"88cd821e","trustedForwarder()":"7da0a877","voter()":"46c96aac","weth()":"3fc8cef3","zapIn(address,uint256,uint256,(address,address,bool,address,uint256,uint256,uint256,uint256),(address,address,bool,address)[],(address,address,bool,address)[],address,bool)":"fb49bafd","zapOut(address,uint256,(address,address,bool,address,uint256,uint256,uint256,uint256),(address,address,bool,address)[],(address,address,bool,address)[])":"a81b9159"},"id":814}