{"abi":[{"type":"function","name":"allowance","inputs":[{"name":"owner","type":"address","internalType":"address"},{"name":"spender","type":"address","internalType":"address"}],"outputs":[{"name":"","type":"uint256","internalType":"uint256"}],"stateMutability":"view"},{"type":"function","name":"approve","inputs":[{"name":"spender","type":"address","internalType":"address"},{"name":"amount","type":"uint256","internalType":"uint256"}],"outputs":[{"name":"","type":"bool","internalType":"bool"}],"stateMutability":"nonpayable"},{"type":"function","name":"balanceOf","inputs":[{"name":"account","type":"address","internalType":"address"}],"outputs":[{"name":"","type":"uint256","internalType":"uint256"}],"stateMutability":"view"},{"type":"function","name":"decimals","inputs":[],"outputs":[{"name":"","type":"uint8","internalType":"uint8"}],"stateMutability":"pure"},{"type":"function","name":"emitApproval","inputs":[{"name":"owner","type":"address","internalType":"address"},{"name":"spender","type":"address","internalType":"address"},{"name":"amount","type":"uint256","internalType":"uint256"}],"outputs":[],"stateMutability":"nonpayable"},{"type":"function","name":"emitTransfer","inputs":[{"name":"from","type":"address","internalType":"address"},{"name":"to","type":"address","internalType":"address"},{"name":"amount","type":"uint256","internalType":"uint256"}],"outputs":[],"stateMutability":"nonpayable"},{"type":"function","name":"getActionId","inputs":[{"name":"selector","type":"bytes4","internalType":"bytes4"}],"outputs":[{"name":"","type":"bytes32","internalType":"bytes32"}],"stateMutability":"view"},{"type":"function","name":"getAggregateFeePercentages","inputs":[],"outputs":[{"name":"aggregateSwapFeePercentage","type":"uint256","internalType":"uint256"},{"name":"aggregateYieldFeePercentage","type":"uint256","internalType":"uint256"}],"stateMutability":"view"},{"type":"function","name":"getCurrentLiveBalances","inputs":[],"outputs":[{"name":"balancesLiveScaled18","type":"uint256[]","internalType":"uint256[]"}],"stateMutability":"view"},{"type":"function","name":"getMaximumInvariantRatio","inputs":[],"outputs":[{"name":"","type":"uint256","internalType":"uint256"}],"stateMutability":"view"},{"type":"function","name":"getMaximumSwapFeePercentage","inputs":[],"outputs":[{"name":"","type":"uint256","internalType":"uint256"}],"stateMutability":"view"},{"type":"function","name":"getMinimumInvariantRatio","inputs":[],"outputs":[{"name":"","type":"uint256","internalType":"uint256"}],"stateMutability":"view"},{"type":"function","name":"getMinimumSwapFeePercentage","inputs":[],"outputs":[{"name":"","type":"uint256","internalType":"uint256"}],"stateMutability":"view"},{"type":"function","name":"getRate","inputs":[],"outputs":[{"name":"","type":"uint256","internalType":"uint256"}],"stateMutability":"view"},{"type":"function","name":"getStaticSwapFeePercentage","inputs":[],"outputs":[{"name":"","type":"uint256","internalType":"uint256"}],"stateMutability":"view"},{"type":"function","name":"getTokenInfo","inputs":[],"outputs":[{"name":"tokens","type":"address[]","internalType":"contract IERC20[]"},{"name":"tokenInfo","type":"tuple[]","internalType":"struct TokenInfo[]","components":[{"name":"tokenType","type":"uint8","internalType":"enum TokenType"},{"name":"rateProvider","type":"address","internalType":"contract IRateProvider"},{"name":"paysYieldFees","type":"bool","internalType":"bool"}]},{"name":"balancesRaw","type":"uint256[]","internalType":"uint256[]"},{"name":"lastBalancesLiveScaled18","type":"uint256[]","internalType":"uint256[]"}],"stateMutability":"view"},{"type":"function","name":"getTokens","inputs":[],"outputs":[{"name":"tokens","type":"address[]","internalType":"contract IERC20[]"}],"stateMutability":"view"},{"type":"function","name":"name","inputs":[],"outputs":[{"name":"","type":"string","internalType":"string"}],"stateMutability":"pure"},{"type":"function","name":"symbol","inputs":[],"outputs":[{"name":"","type":"string","internalType":"string"}],"stateMutability":"pure"},{"type":"function","name":"totalSupply","inputs":[],"outputs":[{"name":"","type":"uint256","internalType":"uint256"}],"stateMutability":"view"},{"type":"function","name":"transfer","inputs":[{"name":"recipient","type":"address","internalType":"address"},{"name":"amount","type":"uint256","internalType":"uint256"}],"outputs":[{"name":"","type":"bool","internalType":"bool"}],"stateMutability":"nonpayable"},{"type":"function","name":"transferFrom","inputs":[{"name":"owner","type":"address","internalType":"address"},{"name":"recipient","type":"address","internalType":"address"},{"name":"amount","type":"uint256","internalType":"uint256"}],"outputs":[{"name":"","type":"bool","internalType":"bool"}],"stateMutability":"nonpayable"},{"type":"event","name":"Approval","inputs":[{"name":"owner","type":"address","indexed":true,"internalType":"address"},{"name":"spender","type":"address","indexed":true,"internalType":"address"},{"name":"amount","type":"uint256","indexed":false,"internalType":"uint256"}],"anonymous":false},{"type":"event","name":"Transfer","inputs":[{"name":"from","type":"address","indexed":true,"internalType":"address"},{"name":"to","type":"address","indexed":true,"internalType":"address"},{"name":"amount","type":"uint256","indexed":false,"internalType":"uint256"}],"anonymous":false},{"type":"error","name":"NotBalancerV3Vault","inputs":[{"name":"caller","type":"address","internalType":"address"}]},{"type":"error","name":"SenderNotAllowed","inputs":[]}],"bytecode":{"object":"0x6080604052348015600e575f5ffd5b506112028061001c5f395ff3fe608060405234801561000f575f5ffd5b5060043610610110575f3560e01c806306fdde0314610114578063095ea7b31461014d57806318160ddd1461017057806323b872dd1461018657806323de665114610199578063273c1adf146101ae578063313ce567146101b65780635687f2b8146101c5578063654cf15d146101d8578063679aefce146101e057806370a08231146101e857806381fa807c146101fb578063851c1bb31461021857806395d89b411461022b578063a9059cbb1461024a578063aa6ca8081461025d578063abb1dc4414610272578063b156aa0a1461028a578063b677fa561461029f578063ce20ece7146102a7578063d335b0cf146102af578063dd62ed3e146102b7575b5f5ffd5b60408051808201909152600b81526a141858da1a5c984810941560aa1b60208201525b6040516101449190610a27565b60405180910390f35b61016061015b366004610a73565b6102ca565b6040519015158152602001610144565b61017861034c565b604051908152602001610144565b610160610194366004610a9d565b6103c4565b6101ac6101a7366004610a9d565b610458565b005b6101786104b2565b60405160128152602001610144565b6101ac6101d3366004610a9d565b6104bb565b610178610508565b610178610511565b6101786101f6366004610adb565b610545565b6102036105c4565b60408051928352602083019190915201610144565b610178610226366004610af6565b61064f565b60408051808201909152600381526210941560ea1b6020820152610137565b610160610258366004610a73565b610659565b610265610691565b6040516101449190610b60565b61027a610707565b6040516101449493929190610ba2565b61029261078f565b6040516101449190610c63565b610178610805565b61017861080e565b610178610817565b6101786102c5366004610c75565b61084b565b5f6102d36108d3565b6001600160a01b031663e1f21c673385856040518463ffffffff1660e01b815260040161030293929190610cac565b6020604051808303815f875af115801561031e573d5f5f3e3d5ffd5b505050506040513d601f19601f820116820180604052508101906103429190610ce4565b5060019392505050565b5f6103556108d3565b6001600160a01b031663e4dc2aa4306040518263ffffffff1660e01b81526004016103809190610cfd565b602060405180830381865afa15801561039b573d5f5f3e3d5ffd5b505050506040513d601f19601f820116820180604052508101906103bf9190610d11565b905090565b5f6103cd6108d3565b604051630aed65f560e11b81523360048201526001600160a01b03868116602483015285811660448301526064820185905291909116906315dacbea906084016020604051808303815f875af1158015610429573d5f5f3e3d5ffd5b505050506040513d601f19601f8201168201806040525081019061044d9190610ce4565b506001949350505050565b610460610905565b816001600160a01b0316836001600160a01b03167fddf252ad1be2c89b69c2b068fc378daa952ba7f163c4a11628f55a4df523b3ef836040516104a591815260200190565b60405180910390a3505050565b5f6103bf61094b565b6104c3610905565b816001600160a01b0316836001600160a01b03167f8c5be1e5ebec7d5bd14f71427d1e84f3dd0314c0f7b2291e5b200ac8c7c3b925836040516104a591815260200190565b5f6103bf61095e565b5f61051a6108d3565b6001600160a01b0316634f037ee7306040518263ffffffff1660e01b81526004016103809190610cfd565b5f61054e6108d3565b604051633de222bb60e21b81523060048201526001600160a01b038481166024830152919091169063f7888aec90604401602060405180830381865afa15801561059a573d5f5f3e3d5ffd5b505050506040513d601f19601f820116820180604052508101906105be9190610d11565b92915050565b5f5f5f6105cf6108d3565b6001600160a01b031663f29486a1306040518263ffffffff1660e01b81526004016105fa9190610cfd565b6101a060405180830381865afa158015610616573d5f5f3e3d5ffd5b505050506040513d601f19601f8201168201806040525081019061063a9190610e5b565b90508060400151925080606001519150509091565b5f6105be82610971565b5f6106626108d3565b6001600160a01b031663beabacc83385856040518463ffffffff1660e01b815260040161030293929190610cac565b606061069b6108d3565b6001600160a01b031663ca4f2803306040518263ffffffff1660e01b81526004016106c69190610cfd565b5f60405180830381865afa1580156106e0573d5f5f3e3d5ffd5b505050506040513d5f823e601f3d908101601f191682016040526103bf9190810190610fa9565b6060806060806107156108d3565b6001600160a01b03166367e0e076306040518263ffffffff1660e01b81526004016107409190610cfd565b5f60405180830381865afa15801561075a573d5f5f3e3d5ffd5b505050506040513d5f823e601f3d908101601f19168201604052610781919081019061103d565b935093509350935090919293565b60606107996108d3565b6001600160a01b031663535cfd8a306040518263ffffffff1660e01b81526004016107c49190610cfd565b5f60405180830381865afa1580156107de573d5f5f3e3d5ffd5b505050506040513d5f823e601f3d908101601f191682016040526103bf919081019061119b565b5f6103bf61099c565b5f6103bf6109ac565b5f6108206108d3565b6001600160a01b031663b45090f9306040518263ffffffff1660e01b81526004016103809190610cfd565b5f6108546108d3565b60405163927da10560e01b81523060048201526001600160a01b0385811660248301528481166044830152919091169063927da10590606401602060405180830381865afa1580156108a8573d5f5f3e3d5ffd5b505050506040513d601f19601f820116820180604052508101906108cc9190610d11565b9392505050565b5f6103bf7f392e49ca1983749c4549242b814e6592e6c2354a2bb55242596ce0ad2e7b1001546001600160a01b031690565b61090d6108d3565b6001600160a01b0316336001600160a01b03161461094957336040516373ea3fad60e11b81526004016109409190610cfd565b60405180910390fd5b565b5f6103bf6109576109bf565b6001015490565b5f6103bf61096a6109bf565b6003015490565b5f6105be7f82340927aad1ca6b5f8bb0037567f287e1bec629ab302d4e1debbc0d7543b1f8836109e3565b5f6103bf6109a86109bf565b5490565b5f6103bf6109b86109bf565b6002015490565b7fad058ae2c4fd2dc635a6531cef09fdcc7264c09c1ee65b9e398137189754ce7190565b5f6108cc6109ef845490565b6040805160208101929092526001600160e01b0319851690820152604401604051602081830303815290604052805160209091012090565b602081525f82518060208401528060208501604085015e5f604082850101526040601f19601f83011684010191505092915050565b6001600160a01b0381168114610a70575f5ffd5b50565b5f5f60408385031215610a84575f5ffd5b8235610a8f81610a5c565b946020939093013593505050565b5f5f5f60608486031215610aaf575f5ffd5b8335610aba81610a5c565b92506020840135610aca81610a5c565b929592945050506040919091013590565b5f60208284031215610aeb575f5ffd5b81356108cc81610a5c565b5f60208284031215610b06575f5ffd5b81356001600160e01b0319811681146108cc575f5ffd5b5f8151808452602084019350602083015f5b82811015610b565781516001600160a01b0316865260209586019590910190600101610b2f565b5093949350505050565b602081525f6108cc6020830184610b1d565b5f8151808452602084019350602083015f5b82811015610b56578151865260209586019590910190600101610b84565b608081525f610bb46080830187610b1d565b82810360208401528086518083526020830191506020880192505f5b81811015610c2f578351805160028110610bf857634e487b7160e01b5f52602160045260245ffd5b84526020818101516001600160a01b0316818601526040918201511515918501919091529390930192606090920191600101610bd0565b50508381036040850152610c438187610b72565b9150508281036060840152610c588185610b72565b979650505050505050565b602081525f6108cc6020830184610b72565b5f5f60408385031215610c86575f5ffd5b8235610c9181610a5c565b91506020830135610ca181610a5c565b809150509250929050565b6001600160a01b039384168152919092166020820152604081019190915260600190565b80518015158114610cdf575f5ffd5b919050565b5f60208284031215610cf4575f5ffd5b6108cc82610cd0565b6001600160a01b0391909116815260200190565b5f60208284031215610d21575f5ffd5b5051919050565b634e487b7160e01b5f52604160045260245ffd5b60405161014081016001600160401b0381118282101715610d5f57610d5f610d28565b60405290565b604051606081016001600160401b0381118282101715610d5f57610d5f610d28565b604051601f8201601f191681016001600160401b0381118282101715610daf57610daf610d28565b604052919050565b5f60808284031215610dc7575f5ffd5b604051608081016001600160401b0381118282101715610de957610de9610d28565b604052905080610df883610cd0565b8152610e0660208401610cd0565b6020820152610e1760408401610cd0565b6040820152610e2860608401610cd0565b60608201525092915050565b805164ffffffffff81168114610cdf575f5ffd5b805163ffffffff81168114610cdf575f5ffd5b5f6101a0828403128015610e6d575f5ffd5b50610e76610d3c565b610e808484610db7565b81526080830151602082015260a0830151604082015260c08301516060820152610eac60e08401610e34565b6080820152610ebe6101008401610e48565b60a0820152610ed06101208401610cd0565b60c0820152610ee26101408401610cd0565b60e0820152610ef46101608401610cd0565b610100820152610f076101808401610cd0565b6101208201529392505050565b5f6001600160401b03821115610f2c57610f2c610d28565b5060051b60200190565b5f82601f830112610f45575f5ffd5b8151610f58610f5382610f14565b610d87565b8082825260208201915060208360051b860101925085831115610f79575f5ffd5b602085015b83811015610f9f578051610f9181610a5c565b835260209283019201610f7e565b5095945050505050565b5f60208284031215610fb9575f5ffd5b81516001600160401b03811115610fce575f5ffd5b610fda84828501610f36565b949350505050565b5f82601f830112610ff1575f5ffd5b8151610fff610f5382610f14565b8082825260208201915060208360051b860101925085831115611020575f5ffd5b602085015b83811015610f9f578051835260209283019201611025565b5f5f5f5f60808587031215611050575f5ffd5b84516001600160401b03811115611065575f5ffd5b61107187828801610f36565b602087015190955090506001600160401b0381111561108e575f5ffd5b8501601f8101871361109e575f5ffd5b80516110ac610f5382610f14565b808282526020820191506020606084028501019250898311156110cd575f5ffd5b6020840193505b8284101561113b576060848b0312156110eb575f5ffd5b6110f3610d65565b845160028110611101575f5ffd5b8152602085015161111181610a5c565b602082015261112260408601610cd0565b60408201528252606093909301926020909101906110d4565b6040890151909650925050506001600160401b0381111561115a575f5ffd5b61116687828801610fe2565b606087015190935090506001600160401b03811115611183575f5ffd5b61118f87828801610fe2565b91505092959194509250565b5f602082840312156111ab575f5ffd5b81516001600160401b038111156111c0575f5ffd5b610fda84828501610fe256fea26469706673582212202ee642b52e53aeb35f21f3b3f006c832117defb1539a3017f0066e0af887b26764736f6c634300081e0033","linkReferences":{}},"methodIdentifiers":{"allowance(address,address)":"dd62ed3e","approve(address,uint256)":"095ea7b3","balanceOf(address)":"70a08231","decimals()":"313ce567","emitApproval(address,address,uint256)":"5687f2b8","emitTransfer(address,address,uint256)":"23de6651","getActionId(bytes4)":"851c1bb3","getAggregateFeePercentages()":"81fa807c","getCurrentLiveBalances()":"b156aa0a","getMaximumInvariantRatio()":"273c1adf","getMaximumSwapFeePercentage()":"654cf15d","getMinimumInvariantRatio()":"b677fa56","getMinimumSwapFeePercentage()":"ce20ece7","getRate()":"679aefce","getStaticSwapFeePercentage()":"d335b0cf","getTokenInfo()":"abb1dc44","getTokens()":"aa6ca808","name()":"06fdde03","symbol()":"95d89b41","totalSupply()":"18160ddd","transfer(address,uint256)":"a9059cbb","transferFrom(address,address,uint256)":"23b872dd"},"id":974}