{"abi":[{"type":"constructor","inputs":[{"name":"initialRoot","type":"address","internalType":"address"},{"name":"nextRoot","type":"address","internalType":"address"},{"name":"vault","type":"address","internalType":"contract IVault"},{"name":"rootTransferDelay","type":"uint256","internalType":"uint256"}],"stateMutability":"nonpayable"},{"type":"function","name":"EVERYWHERE","inputs":[],"outputs":[{"name":"","type":"address","internalType":"address"}],"stateMutability":"pure"},{"type":"function","name":"GLOBAL_CANCELER_SCHEDULED_EXECUTION_ID","inputs":[],"outputs":[{"name":"","type":"uint256","internalType":"uint256"}],"stateMutability":"pure"},{"type":"function","name":"MAX_DELAY","inputs":[],"outputs":[{"name":"","type":"uint256","internalType":"uint256"}],"stateMutability":"pure"},{"type":"function","name":"MINIMUM_CHANGE_DELAY_EXECUTION_DELAY","inputs":[],"outputs":[{"name":"","type":"uint256","internalType":"uint256"}],"stateMutability":"pure"},{"type":"function","name":"addCanceler","inputs":[{"name":"scheduledExecutionId","type":"uint256","internalType":"uint256"},{"name":"account","type":"address","internalType":"address"}],"outputs":[],"stateMutability":"nonpayable"},{"type":"function","name":"addGranter","inputs":[{"name":"actionId","type":"bytes32","internalType":"bytes32"},{"name":"account","type":"address","internalType":"address"},{"name":"where","type":"address","internalType":"address"}],"outputs":[],"stateMutability":"nonpayable"},{"type":"function","name":"addRevoker","inputs":[{"name":"account","type":"address","internalType":"address"},{"name":"where","type":"address","internalType":"address"}],"outputs":[],"stateMutability":"nonpayable"},{"type":"function","name":"canExecute","inputs":[{"name":"scheduledExecutionId","type":"uint256","internalType":"uint256"}],"outputs":[{"name":"","type":"bool","internalType":"bool"}],"stateMutability":"view"},{"type":"function","name":"canPerform","inputs":[{"name":"actionId","type":"bytes32","internalType":"bytes32"},{"name":"account","type":"address","internalType":"address"},{"name":"where","type":"address","internalType":"address"}],"outputs":[{"name":"","type":"bool","internalType":"bool"}],"stateMutability":"view"},{"type":"function","name":"cancel","inputs":[{"name":"scheduledExecutionId","type":"uint256","internalType":"uint256"}],"outputs":[],"stateMutability":"nonpayable"},{"type":"function","name":"claimRoot","inputs":[],"outputs":[],"stateMutability":"nonpayable"},{"type":"function","name":"execute","inputs":[{"name":"scheduledExecutionId","type":"uint256","internalType":"uint256"}],"outputs":[{"name":"result","type":"bytes","internalType":"bytes"}],"stateMutability":"nonpayable"},{"type":"function","name":"getActionIdDelay","inputs":[{"name":"actionId","type":"bytes32","internalType":"bytes32"}],"outputs":[{"name":"","type":"uint256","internalType":"uint256"}],"stateMutability":"view"},{"type":"function","name":"getActionIdGrantDelay","inputs":[{"name":"actionId","type":"bytes32","internalType":"bytes32"}],"outputs":[{"name":"","type":"uint256","internalType":"uint256"}],"stateMutability":"view"},{"type":"function","name":"getActionIdRevokeDelay","inputs":[{"name":"actionId","type":"bytes32","internalType":"bytes32"}],"outputs":[{"name":"","type":"uint256","internalType":"uint256"}],"stateMutability":"view"},{"type":"function","name":"getPendingRoot","inputs":[],"outputs":[{"name":"","type":"address","internalType":"address"}],"stateMutability":"view"},{"type":"function","name":"getRoot","inputs":[],"outputs":[{"name":"","type":"address","internalType":"address"}],"stateMutability":"view"},{"type":"function","name":"getRootTransferDelay","inputs":[],"outputs":[{"name":"","type":"uint256","internalType":"uint256"}],"stateMutability":"view"},{"type":"function","name":"getScheduledExecution","inputs":[{"name":"scheduledExecutionId","type":"uint256","internalType":"uint256"}],"outputs":[{"name":"","type":"tuple","internalType":"struct ITimelockAuthorizer.ScheduledExecution","components":[{"name":"where","type":"address","internalType":"address"},{"name":"data","type":"bytes","internalType":"bytes"},{"name":"executed","type":"bool","internalType":"bool"},{"name":"canceled","type":"bool","internalType":"bool"},{"name":"protected","type":"bool","internalType":"bool"},{"name":"executableAt","type":"uint256","internalType":"uint256"},{"name":"scheduledBy","type":"address","internalType":"address"},{"name":"scheduledAt","type":"uint256","internalType":"uint256"},{"name":"executedBy","type":"address","internalType":"address"},{"name":"executedAt","type":"uint256","internalType":"uint256"},{"name":"canceledBy","type":"address","internalType":"address"},{"name":"canceledAt","type":"uint256","internalType":"uint256"}]}],"stateMutability":"view"},{"type":"function","name":"getScheduledExecutions","inputs":[{"name":"skip","type":"uint256","internalType":"uint256"},{"name":"maxSize","type":"uint256","internalType":"uint256"},{"name":"reverseOrder","type":"bool","internalType":"bool"}],"outputs":[{"name":"","type":"tuple[]","internalType":"struct ITimelockAuthorizer.ScheduledExecution[]","components":[{"name":"where","type":"address","internalType":"address"},{"name":"data","type":"bytes","internalType":"bytes"},{"name":"executed","type":"bool","internalType":"bool"},{"name":"canceled","type":"bool","internalType":"bool"},{"name":"protected","type":"bool","internalType":"bool"},{"name":"executableAt","type":"uint256","internalType":"uint256"},{"name":"scheduledBy","type":"address","internalType":"address"},{"name":"scheduledAt","type":"uint256","internalType":"uint256"},{"name":"executedBy","type":"address","internalType":"address"},{"name":"executedAt","type":"uint256","internalType":"uint256"},{"name":"canceledBy","type":"address","internalType":"address"},{"name":"canceledAt","type":"uint256","internalType":"uint256"}]}],"stateMutability":"view"},{"type":"function","name":"getScheduledExecutionsCount","inputs":[],"outputs":[{"name":"","type":"uint256","internalType":"uint256"}],"stateMutability":"view"},{"type":"function","name":"getTimelockExecutionHelper","inputs":[],"outputs":[{"name":"","type":"address","internalType":"address"}],"stateMutability":"view"},{"type":"function","name":"getVault","inputs":[],"outputs":[{"name":"","type":"address","internalType":"address"}],"stateMutability":"view"},{"type":"function","name":"grantPermission","inputs":[{"name":"actionId","type":"bytes32","internalType":"bytes32"},{"name":"account","type":"address","internalType":"address"},{"name":"where","type":"address","internalType":"address"}],"outputs":[],"stateMutability":"nonpayable"},{"type":"function","name":"hasPermission","inputs":[{"name":"actionId","type":"bytes32","internalType":"bytes32"},{"name":"account","type":"address","internalType":"address"},{"name":"where","type":"address","internalType":"address"}],"outputs":[{"name":"","type":"bool","internalType":"bool"}],"stateMutability":"view"},{"type":"function","name":"isCanceler","inputs":[{"name":"scheduledExecutionId","type":"uint256","internalType":"uint256"},{"name":"account","type":"address","internalType":"address"}],"outputs":[{"name":"","type":"bool","internalType":"bool"}],"stateMutability":"view"},{"type":"function","name":"isExecutor","inputs":[{"name":"scheduledExecutionId","type":"uint256","internalType":"uint256"},{"name":"account","type":"address","internalType":"address"}],"outputs":[{"name":"","type":"bool","internalType":"bool"}],"stateMutability":"view"},{"type":"function","name":"isGranter","inputs":[{"name":"actionId","type":"bytes32","internalType":"bytes32"},{"name":"account","type":"address","internalType":"address"},{"name":"where","type":"address","internalType":"address"}],"outputs":[{"name":"","type":"bool","internalType":"bool"}],"stateMutability":"view"},{"type":"function","name":"isPendingRoot","inputs":[{"name":"account","type":"address","internalType":"address"}],"outputs":[{"name":"","type":"bool","internalType":"bool"}],"stateMutability":"view"},{"type":"function","name":"isPermissionGrantedOnTarget","inputs":[{"name":"actionId","type":"bytes32","internalType":"bytes32"},{"name":"account","type":"address","internalType":"address"},{"name":"where","type":"address","internalType":"address"}],"outputs":[{"name":"","type":"bool","internalType":"bool"}],"stateMutability":"view"},{"type":"function","name":"isRevoker","inputs":[{"name":"account","type":"address","internalType":"address"},{"name":"where","type":"address","internalType":"address"}],"outputs":[{"name":"","type":"bool","internalType":"bool"}],"stateMutability":"view"},{"type":"function","name":"isRoot","inputs":[{"name":"account","type":"address","internalType":"address"}],"outputs":[{"name":"","type":"bool","internalType":"bool"}],"stateMutability":"view"},{"type":"function","name":"removeCanceler","inputs":[{"name":"scheduledExecutionId","type":"uint256","internalType":"uint256"},{"name":"account","type":"address","internalType":"address"}],"outputs":[],"stateMutability":"nonpayable"},{"type":"function","name":"removeGranter","inputs":[{"name":"actionId","type":"bytes32","internalType":"bytes32"},{"name":"account","type":"address","internalType":"address"},{"name":"where","type":"address","internalType":"address"}],"outputs":[],"stateMutability":"nonpayable"},{"type":"function","name":"removeRevoker","inputs":[{"name":"account","type":"address","internalType":"address"},{"name":"where","type":"address","internalType":"address"}],"outputs":[],"stateMutability":"nonpayable"},{"type":"function","name":"renouncePermission","inputs":[{"name":"actionId","type":"bytes32","internalType":"bytes32"},{"name":"where","type":"address","internalType":"address"}],"outputs":[],"stateMutability":"nonpayable"},{"type":"function","name":"revokePermission","inputs":[{"name":"actionId","type":"bytes32","internalType":"bytes32"},{"name":"account","type":"address","internalType":"address"},{"name":"where","type":"address","internalType":"address"}],"outputs":[],"stateMutability":"nonpayable"},{"type":"function","name":"schedule","inputs":[{"name":"where","type":"address","internalType":"address"},{"name":"data","type":"bytes","internalType":"bytes"},{"name":"executors","type":"address[]","internalType":"address[]"}],"outputs":[{"name":"","type":"uint256","internalType":"uint256"}],"stateMutability":"nonpayable"},{"type":"function","name":"scheduleDelayChange","inputs":[{"name":"actionId","type":"bytes32","internalType":"bytes32"},{"name":"newDelay","type":"uint256","internalType":"uint256"},{"name":"executors","type":"address[]","internalType":"address[]"}],"outputs":[{"name":"","type":"uint256","internalType":"uint256"}],"stateMutability":"nonpayable"},{"type":"function","name":"scheduleGrantDelayChange","inputs":[{"name":"actionId","type":"bytes32","internalType":"bytes32"},{"name":"newDelay","type":"uint256","internalType":"uint256"},{"name":"executors","type":"address[]","internalType":"address[]"}],"outputs":[{"name":"","type":"uint256","internalType":"uint256"}],"stateMutability":"nonpayable"},{"type":"function","name":"scheduleGrantPermission","inputs":[{"name":"actionId","type":"bytes32","internalType":"bytes32"},{"name":"account","type":"address","internalType":"address"},{"name":"where","type":"address","internalType":"address"},{"name":"executors","type":"address[]","internalType":"address[]"}],"outputs":[{"name":"","type":"uint256","internalType":"uint256"}],"stateMutability":"nonpayable"},{"type":"function","name":"scheduleRevokeDelayChange","inputs":[{"name":"actionId","type":"bytes32","internalType":"bytes32"},{"name":"newDelay","type":"uint256","internalType":"uint256"},{"name":"executors","type":"address[]","internalType":"address[]"}],"outputs":[{"name":"","type":"uint256","internalType":"uint256"}],"stateMutability":"nonpayable"},{"type":"function","name":"scheduleRevokePermission","inputs":[{"name":"actionId","type":"bytes32","internalType":"bytes32"},{"name":"account","type":"address","internalType":"address"},{"name":"where","type":"address","internalType":"address"},{"name":"executors","type":"address[]","internalType":"address[]"}],"outputs":[{"name":"","type":"uint256","internalType":"uint256"}],"stateMutability":"nonpayable"},{"type":"function","name":"scheduleRootChange","inputs":[{"name":"newRoot","type":"address","internalType":"address"},{"name":"executors","type":"address[]","internalType":"address[]"}],"outputs":[{"name":"","type":"uint256","internalType":"uint256"}],"stateMutability":"nonpayable"},{"type":"function","name":"setDelay","inputs":[{"name":"actionId","type":"bytes32","internalType":"bytes32"},{"name":"delay","type":"uint256","internalType":"uint256"}],"outputs":[],"stateMutability":"nonpayable"},{"type":"function","name":"setGrantDelay","inputs":[{"name":"actionId","type":"bytes32","internalType":"bytes32"},{"name":"delay","type":"uint256","internalType":"uint256"}],"outputs":[],"stateMutability":"nonpayable"},{"type":"function","name":"setPendingRoot","inputs":[{"name":"pendingRoot","type":"address","internalType":"address"}],"outputs":[],"stateMutability":"nonpayable"},{"type":"function","name":"setRevokeDelay","inputs":[{"name":"actionId","type":"bytes32","internalType":"bytes32"},{"name":"delay","type":"uint256","internalType":"uint256"}],"outputs":[],"stateMutability":"nonpayable"},{"type":"event","name":"ActionDelaySet","inputs":[{"name":"actionId","type":"bytes32","indexed":true,"internalType":"bytes32"},{"name":"delay","type":"uint256","indexed":false,"internalType":"uint256"}],"anonymous":false},{"type":"event","name":"CancelerAdded","inputs":[{"name":"scheduledExecutionId","type":"uint256","indexed":true,"internalType":"uint256"},{"name":"canceler","type":"address","indexed":true,"internalType":"address"}],"anonymous":false},{"type":"event","name":"CancelerRemoved","inputs":[{"name":"scheduledExecutionId","type":"uint256","indexed":true,"internalType":"uint256"},{"name":"canceler","type":"address","indexed":true,"internalType":"address"}],"anonymous":false},{"type":"event","name":"DelayChangeScheduled","inputs":[{"name":"actionId","type":"bytes32","indexed":true,"internalType":"bytes32"},{"name":"newDelay","type":"uint256","indexed":true,"internalType":"uint256"},{"name":"scheduledExecutionId","type":"uint256","indexed":true,"internalType":"uint256"}],"anonymous":false},{"type":"event","name":"ExecutionCanceled","inputs":[{"name":"scheduledExecutionId","type":"uint256","indexed":true,"internalType":"uint256"}],"anonymous":false},{"type":"event","name":"ExecutionExecuted","inputs":[{"name":"scheduledExecutionId","type":"uint256","indexed":true,"internalType":"uint256"}],"anonymous":false},{"type":"event","name":"ExecutionScheduled","inputs":[{"name":"actionId","type":"bytes32","indexed":true,"internalType":"bytes32"},{"name":"scheduledExecutionId","type":"uint256","indexed":true,"internalType":"uint256"}],"anonymous":false},{"type":"event","name":"ExecutorAdded","inputs":[{"name":"scheduledExecutionId","type":"uint256","indexed":true,"internalType":"uint256"},{"name":"executor","type":"address","indexed":true,"internalType":"address"}],"anonymous":false},{"type":"event","name":"GrantDelayChangeScheduled","inputs":[{"name":"actionId","type":"bytes32","indexed":true,"internalType":"bytes32"},{"name":"newDelay","type":"uint256","indexed":true,"internalType":"uint256"},{"name":"scheduledExecutionId","type":"uint256","indexed":true,"internalType":"uint256"}],"anonymous":false},{"type":"event","name":"GrantDelaySet","inputs":[{"name":"actionId","type":"bytes32","indexed":true,"internalType":"bytes32"},{"name":"delay","type":"uint256","indexed":false,"internalType":"uint256"}],"anonymous":false},{"type":"event","name":"GrantPermissionScheduled","inputs":[{"name":"actionId","type":"bytes32","indexed":true,"internalType":"bytes32"},{"name":"account","type":"address","indexed":true,"internalType":"address"},{"name":"where","type":"address","indexed":true,"internalType":"address"},{"name":"scheduledExecutionId","type":"uint256","indexed":false,"internalType":"uint256"}],"anonymous":false},{"type":"event","name":"GranterAdded","inputs":[{"name":"actionId","type":"bytes32","indexed":true,"internalType":"bytes32"},{"name":"account","type":"address","indexed":true,"internalType":"address"},{"name":"where","type":"address","indexed":true,"internalType":"address"}],"anonymous":false},{"type":"event","name":"GranterRemoved","inputs":[{"name":"actionId","type":"bytes32","indexed":true,"internalType":"bytes32"},{"name":"account","type":"address","indexed":true,"internalType":"address"},{"name":"where","type":"address","indexed":true,"internalType":"address"}],"anonymous":false},{"type":"event","name":"PendingRootSet","inputs":[{"name":"pendingRoot","type":"address","indexed":true,"internalType":"address"}],"anonymous":false},{"type":"event","name":"PermissionGranted","inputs":[{"name":"actionId","type":"bytes32","indexed":true,"internalType":"bytes32"},{"name":"account","type":"address","indexed":true,"internalType":"address"},{"name":"where","type":"address","indexed":true,"internalType":"address"}],"anonymous":false},{"type":"event","name":"PermissionRevoked","inputs":[{"name":"actionId","type":"bytes32","indexed":true,"internalType":"bytes32"},{"name":"account","type":"address","indexed":true,"internalType":"address"},{"name":"where","type":"address","indexed":true,"internalType":"address"}],"anonymous":false},{"type":"event","name":"RevokeDelayChangeScheduled","inputs":[{"name":"actionId","type":"bytes32","indexed":true,"internalType":"bytes32"},{"name":"newDelay","type":"uint256","indexed":true,"internalType":"uint256"},{"name":"scheduledExecutionId","type":"uint256","indexed":true,"internalType":"uint256"}],"anonymous":false},{"type":"event","name":"RevokeDelaySet","inputs":[{"name":"actionId","type":"bytes32","indexed":true,"internalType":"bytes32"},{"name":"delay","type":"uint256","indexed":false,"internalType":"uint256"}],"anonymous":false},{"type":"event","name":"RevokePermissionScheduled","inputs":[{"name":"actionId","type":"bytes32","indexed":true,"internalType":"bytes32"},{"name":"account","type":"address","indexed":true,"internalType":"address"},{"name":"where","type":"address","indexed":true,"internalType":"address"},{"name":"scheduledExecutionId","type":"uint256","indexed":false,"internalType":"uint256"}],"anonymous":false},{"type":"event","name":"RevokerAdded","inputs":[{"name":"account","type":"address","indexed":true,"internalType":"address"},{"name":"where","type":"address","indexed":true,"internalType":"address"}],"anonymous":false},{"type":"event","name":"RevokerRemoved","inputs":[{"name":"account","type":"address","indexed":true,"internalType":"address"},{"name":"where","type":"address","indexed":true,"internalType":"address"}],"anonymous":false},{"type":"event","name":"RootChangeScheduled","inputs":[{"name":"newRoot","type":"address","indexed":true,"internalType":"address"},{"name":"scheduledExecutionId","type":"uint256","indexed":true,"internalType":"uint256"}],"anonymous":false},{"type":"event","name":"RootSet","inputs":[{"name":"root","type":"address","indexed":true,"internalType":"address"}],"anonymous":false}],"bytecode":{"object":"0x610100604052348015610010575f5ffd5b506040516140c63803806140c683398101604081905261002f916101b7565b8383838361003c84610103565b6100458361014a565b6001600160a01b03821660a05260405161005e90610193565b604051809103905ff080158015610077573d5f5f3e3d5ffd5b506001600160a01b0390811660805260c09190915260405163851c1bb360e01b815263058a628f60e01b6004820152908616935063851c1bb392506024019050602060405180830381865afa1580156100d2573d5f5f3e3d5ffd5b505050506040513d601f19601f820116820180604052508101906100f69190610207565b60e0525061021e92505050565b5f80546001600160a01b0319166001600160a01b038316908117825560405190917f39510b933a9d010f906528d6019d3f4e2450a10dc33b10887503b31ed82f111191a250565b600180546001600160a01b0319166001600160a01b0383169081179091556040517f566fe119ff450afc2580186c62762b6c1258245c8b1b6bb095e7276eb5a75b55905f90a250565b61048980613c3d83390190565b6001600160a01b03811681146101b4575f5ffd5b50565b5f5f5f5f608085870312156101ca575f5ffd5b84516101d5816101a0565b60208601519094506101e6816101a0565b60408601519093506101f7816101a0565b6060959095015193969295505050565b5f60208284031215610217575f5ffd5b5051919050565b60805160a05160c05160e0516139c261027b5f395f818161254d015261285001525f611d8901525f61048801525f818161066b01528181610ae701528181610b1401528181611e320152818161250e015261279501526139c25ff3fe608060405234801561000f575f5ffd5b506004361061022e575f3560e01c806304434606146102325780630df322a61461025a57806310d3ab2c1461027c57806314ea35e714610291578063169f14681461029957806318ef871a146102ba5780631b3c85eb146102cf5780632229edb4146102e25780632e3ed05b146102f55780633ac5d439146103085780633bf467971461031b5780633e1df46d1461033a57806340e58ee51461034d5780634125ff9014610360578063557a64031461036a5780635b78b7801461037d5780635ca1e16514610390578063608dd7e4146103a057806362cde1ba146103b357806363cdbf36146103bb5780636badd2ab146103ce57806372efb120146103ee578063863bac6b1461040157806386ff254b146104145780638bd6bbc9146104545780638cc3d072146104735780638d928af81461048657806390216812146104ac5780639299942e146104bf57806399a7f6e2146104c75780639be2a884146104da578063a44495d1146104ed578063a8eae12d14610500578063b1e31aa014610513578063b3eb281d1461051c578063b99db5261461052f578063c284b6b91461054e578063c6192ee314610556578063c80c23e114610569578063cc63604a1461057c578063d00bef4d1461058f578063e2b4146b146105a0578063e4c00f4f146105b3578063f0845522146105d3578063f0bb9406146105e6578063f23481e0146105f9578063f6ebcbaf14610601578063fe0d94c114610614575b5f5ffd5b610245610240366004612fc5565b610634565b60405190151581526020015b60405180910390f35b610245610268366004612fef565b6001546001600160a01b0391821691161490565b61028f61028a366004613008565b610660565b005b61028f610726565b6102ac6102a7366004613118565b610793565b604051908152602001610251565b6102c2610ae5565b60405161025191906131d7565b61028f6102dd366004612fef565b610b09565b61028f6102f03660046131eb565b610b5a565b6102ac610303366004613224565b610c3e565b61028f6103163660046131eb565b610d07565b6102ac61032936600461326e565b5f908152600a602052604090205490565b610245610348366004612fc5565b610db9565b61028f61035b36600461326e565b610e2f565b6303c267006102ac565b610245610378366004612fef565b610f6d565b6102ac61038b366004613285565b610f80565b5f546001600160a01b03166102c2565b6102ac6103ae3660046132e8565b6110b8565b6102c26111a4565b6102ac6103c93660046132e8565b6111af565b6103e16103dc36600461326e565b61129b565b6040516102519190613423565b61028f6103fc366004612fc5565b611404565b6102ac61040f366004613285565b6115b0565b6102456104223660046131eb565b5f9283526009602090815260408085206001600160a01b03948516865282528085209290931684525290205460ff1690565b6102ac61046236600461326e565b5f9081526007602052604090205490565b61028f6104813660046131eb565b6116d6565b7f00000000000000000000000000000000000000000000000000000000000000006102c2565b61028f6104ba366004613435565b611837565b6102ac6119f4565b61028f6104d5366004612fc5565b6119f9565b6102456104e83660046131eb565b611a08565b61028f6104fb366004613435565b611a4f565b61028f61050e3660046131eb565b611b24565b620697806102ac565b61024561052a3660046131eb565b611cfa565b6102ac61053d36600461326e565b5f9081526008602052604090205490565b6102ac611d87565b610245610564366004613435565b611dab565b61028f610577366004613008565b611e27565b61024561058a36600461326e565b611ed8565b6001546001600160a01b03166102c2565b6102456105ae3660046131eb565b611f54565b6105c66105c136600461345d565b611fd9565b6040516102519190613497565b6102ac6105e13660046132e8565b612417565b61028f6105f4366004613008565b612503565b6006546102ac565b61028f61060f366004612fc5565b6125db565b61062761062236600461326e565b61260a565b60405161025191906134fa565b5f8281526002602090815260408083206001600160a01b038516845290915290205460ff165b92915050565b336001600160a01b037f000000000000000000000000000000000000000000000000000000000000000016146106b15760405162461bcd60e51b81526004016106a89061350c565b60405180910390fd5b6106ba8161284e565b6106d65760405162461bcd60e51b81526004016106a89061353b565b5f82815260076020526040908190208290555182907f6922a4f4deeb55fdca50df28a72475aa87f9f1377ed93a95842ce8bc69dc01e89061071a9084815260200190565b60405180910390a25050565b6001546001600160a01b031633811461077e5760405162461bcd60e51b815260206004820152601a60248201527914d15391115497d254d7d393d517d4115391125391d7d493d3d560321b60448201526064016106a8565b61078781612882565b6107905f6128c9565b50565b5f306001600160a01b038516036107f75760405162461bcd60e51b815260206004820152602260248201527f43414e4e4f545f5343484544554c455f415554484f52495a45525f414354494f6044820152614e5360f01b60648201526084016106a8565b6107ff610ae5565b6001600160a01b0316846001600160a01b03160361086e5760405162461bcd60e51b815260206004820152602660248201527f415454454d5054494e475f455845435554494f4e5f48454c5045525f5245454e6044820152655452414e435960d01b60648201526084016106a8565b6004835110156108b15760405162461bcd60e51b815260206004820152600e60248201526d1110551057d513d3d7d4d213d49560921b60448201526064016106a8565b5f6018846003815181106108c7576108c7613571565b016020015185516001600160f81b031990911690911c90601090869060029081106108f4576108f4613571565b016020015186516001600160f81b031990911690911c906008908790600190811061092157610921613571565b016020015187516001600160f81b031990911690911c9087905f9061094857610948613571565b602001015160f81c60f81b6001600160f81b03191617171790505f856001600160a01b031663851c1bb3836040518263ffffffff1660e01b815260040161099f91906001600160e01b031991909116815260200190565b602060405180830381865afa1580156109ba573d5f5f3e3d5ffd5b505050506040513d601f19601f820116820180604052508101906109de9190613585565b90506109eb813388611f54565b610a375760405162461bcd60e51b815260206004820152601f60248201527f53454e4445525f444f45535f4e4f545f484156455f5045524d495353494f4e0060448201526064016106a8565b5f818152600a602052604090205480610a855760405162461bcd60e51b815260206004820152601060248201526f111153105657d254d7d393d517d4d15560821b60448201526064016106a8565b5f610a9288888489612912565b905080837f26ce5ffb7ab1ce72d9ca4a3e4f906d2b99194d6c53dd9832fd7a59d0b2fc6bed60405160405180910390a3610acc8133610db9565b610ada57610ada8133612c2b565b979650505050505050565b7f000000000000000000000000000000000000000000000000000000000000000090565b336001600160a01b037f00000000000000000000000000000000000000000000000000000000000000001614610b515760405162461bcd60e51b81526004016106a89061350c565b610790816128c9565b610b6333610f6d565b610b7f5760405162461bcd60e51b81526004016106a89061359c565b610b8a838383611cfa565b15610bd45760405162461bcd60e51b815260206004820152601a60248201527920a1a1a7aaa72a2fa4a9afa0a62922a0a22cafa3a920a72a22a960311b60448201526064016106a8565b5f8381526003602090815260408083206001600160a01b038087168086529184528285209086168086529352818420805460ff1916600117905590519192909186917f2d106cf4379aad979c25af765e6f7169b732d4c4660e41aa733a150c7fc0a6f791a4505050565b5f610c4833610f6d565b610c645760405162461bcd60e51b81526004016106a89061359c565b5f631b3c85eb60e01b84604051602401610c7e91906131d7565b60408051601f198184030181529190526020810180516001600160e01b03166001600160e01b03199093169290921790915290505f610cc63083610cc0611d87565b87612912565b905080856001600160a01b03167f7de09ff5f925ca34a396df31b30cdbdd0cd10b88833b4f7334cecc02454c1be760405160405180910390a3949350505050565b5f838152600860205260408120549003610d4657610d253382611dab565b610d415760405162461bcd60e51b81526004016106a8906135c8565b610da9565b610d4e610ae5565b6001600160a01b0316336001600160a01b031614610da95760405162461bcd60e51b815260206004820152601860248201527714915593d2d157d35554d517d09157d4d0d211511553115160421b60448201526064016106a8565b610db4838383612d97565b505050565b5f8281526005602090815260408083206001600160a01b038516845290915281205460ff1680610e19575060055f610def6119f4565b815260208082019290925260409081015f9081206001600160a01b038616825290925290205460ff165b80610e285750610e2882610f6d565b9392505050565b6006548110610e505760405162461bcd60e51b81526004016106a8906135f7565b5f60068281548110610e6457610e64613571565b5f9182526020909120600a90910201600281015490915060ff1615610e9b5760405162461bcd60e51b81526004016106a890613629565b6002810154610100900460ff1615610ec55760405162461bcd60e51b81526004016106a89061365d565b610ecf8233610db9565b610f145760405162461bcd60e51b815260206004820152601660248201527529a2a72222a92fa4a9afa727aa2fa1a0a721a2a622a960511b60448201526064016106a8565b60028101805461ff0019166101001790556008810180546001600160a01b0319163317905542600982015560405182907fe48f88ceada5a6ddb8ded9b5e457cb802e319a647eec8ff1f2a0512c0a741ed9905f90a25050565b5f546001600160a01b0391821691161490565b5f610f8b3384611dab565b610fa75760405162461bcd60e51b81526004016106a8906135c8565b5f8581526008602052604090205480610fff5760405162461bcd60e51b815260206004820152601a602482015279414354494f4e5f4841535f4e4f5f5245564f4b455f44454c415960301b60448201526064016106a8565b5f633ac5d43960e01b87878760405160240161101d93929190613691565b60408051601f198184030181529190526020810180516001600160e01b03166001600160e01b03199093169290921790915290505f61105e30838588612912565b9050856001600160a01b0316876001600160a01b0316897f645fdc5699106b1dffda57f54fdcca22ad57d87f0afd651edf857af3bfbd8784846040516110a691815260200190565b60405180910390a4610acc8133610db9565b5f6110c233610f6d565b6110de5760405162461bcd60e51b81526004016106a89061359c565b6303c267008311156111025760405162461bcd60e51b81526004016106a8906136b0565b5f8481526008602052604081205461111a9085612f01565b604080516024810188905260448082018890528251808303909101815260649091019091526020810180516001600160e01b031663c80c23e160e01b1790529091505f61116930838588612912565b90508086887f2f330faf5e23fc7ff1c46f2b1a3299d86249055a5bf74a8b747ab7fb66f6dc9f60405160405180910390a49695505050505050565b6001600160a01b0390565b5f6111b933610f6d565b6111d55760405162461bcd60e51b81526004016106a89061359c565b6303c267008311156111f95760405162461bcd60e51b81526004016106a8906136b0565b5f848152600760205260408120546112119085612f01565b604080516024810188905260448082018890528251808303909101815260649091019091526020810180516001600160e01b0316630434eacb60e21b1790529091505f61126030838588612912565b90508086887f3d8c3ad02346a1ddf099dd26578662fb8cf85903168ebfeb1f14473fed8ee48860405160405180910390a49695505050505050565b6112a3612f46565b600682815481106112b6576112b6613571565b5f918252602091829020604080516101808101909152600a9092020180546001600160a01b0316825260018101805492939192918401916112f6906136d9565b80601f0160208091040260200160405190810160405280929190818152602001828054611322906136d9565b801561136d5780601f106113445761010080835404028352916020019161136d565b820191905f5260205f20905b81548152906001019060200180831161135057829003601f168201915b5050509183525050600282015460ff808216151560208401526101008083048216151560408501526201000090920416151560608301526003830154608083015260048301546001600160a01b0390811660a0840152600584015460c08401526006840154811660e08401526007840154918301919091526008830154166101208201526009909101546101409091015292915050565b61140d33610f6d565b6114295760405162461bcd60e51b81526004016106a89061359c565b61143281610f6d565b1561147d5760405162461bcd60e51b815260206004820152601b60248201527a21a0a72727aa2fa922a6a7ab22afa927a7aa2fa1a0a721a2a622a960291b60448201526064016106a8565b6114878282610db9565b6114cd5760405162461bcd60e51b815260206004820152601760248201527620a1a1a7aaa72a2fa4a9afa727aa2fa1a0a721a2a622a960491b60448201526064016106a8565b60055f6114d86119f4565b815260208082019290925260409081015f9081206001600160a01b038516825290925290205460ff16156115595761150e6119f4565b82146115595760405162461bcd60e51b815260206004820152601a60248201527920a1a1a7aaa72a2fa4a9afa3a627a120a62fa1a0a721a2a622a960311b60448201526064016106a8565b5f8281526005602090815260408083206001600160a01b0385168085529252808320805460ff1916905551909184917fd6b522eb4b505a0843020e304ba27d827b52c89347e6176b2f2737e6e4015c2d9190a35050565b5f6115bc853385611cfa565b6115d85760405162461bcd60e51b81526004016106a890613711565b5f858152600760205260409020548061162f5760405162461bcd60e51b8152602060048201526019602482015278414354494f4e5f4841535f4e4f5f4752414e545f44454c415960381b60448201526064016106a8565b5f638cc3d07260e01b87878760405160240161164d93929190613691565b60408051601f198184030181529190526020810180516001600160e01b03166001600160e01b03199093169290921790915290505f61168e30838588612912565b9050856001600160a01b0316876001600160a01b0316897f185f04ff33c89687859342776c7fdcf04d9eb9444d65192bfebab5a5ac9874a8846040516110a691815260200190565b5f838152600760205260408120549003611716576116f5833383611cfa565b6117115760405162461bcd60e51b81526004016106a890613711565b611778565b61171e610ae5565b6001600160a01b0316336001600160a01b0316146117785760405162461bcd60e51b815260206004820152601760248201527611d490539517d35554d517d09157d4d0d2115115531151604a1b60448201526064016106a8565b611783838383611f54565b156117cd5760405162461bcd60e51b815260206004820152601a602482015279141154935254d4d253d397d053149150511657d1d4905395115160321b60448201526064016106a8565b5f8381526009602090815260408083206001600160a01b038087168086529184528285209086168086529352818420805460ff1916600117905590519192909186917fef6ee312a0062a24a46be2eba5284183a87ff848110e8d4df979bd690d9e9f6891a4505050565b61184033610f6d565b61185c5760405162461bcd60e51b81526004016106a89061359c565b6118668282611dab565b6118ab5760405162461bcd60e51b815260206004820152601660248201527520a1a1a7aaa72a2fa4a9afa727aa2fa922ab27a5a2a960511b60448201526064016106a8565b6118b482610f6d565b156118fe5760405162461bcd60e51b815260206004820152601a60248201527921a0a72727aa2fa922a6a7ab22afa927a7aa2fa922ab27a5a2a960311b60448201526064016106a8565b6001600160a01b0382165f9081526004602052604081209061191e6111a4565b6001600160a01b0316815260208101919091526040015f205460ff161561199b576119476111a4565b6001600160a01b0316816001600160a01b03161461199b5760405162461bcd60e51b815260206004820152601160248201527014915593d2d15497d254d7d1d313d09053607a1b60448201526064016106a8565b6001600160a01b038083165f81815260046020908152604080832094861680845294909152808220805460ff19169055517fb6fe3ab11eb9ab1d9f1d41c8f42a5d72d10122099ba1548e4a6d1a4d8cefec4b9190a35050565b5f1990565b611a04823383612d97565b5050565b5f838152600a602052604081205415611a3c57611a23610ae5565b6001600160a01b0316836001600160a01b031614611a47565b611a47848484611f54565b949350505050565b611a5833610f6d565b611a745760405162461bcd60e51b81526004016106a89061359c565b611a7e8282611dab565b15611ac85760405162461bcd60e51b815260206004820152601a60248201527920a1a1a7aaa72a2fa4a9afa0a62922a0a22cafa922ab27a5a2a960311b60448201526064016106a8565b6001600160a01b038083165f81815260046020908152604080832094861680845294909152808220805460ff19166001179055517f2b5f18afd9a7b21f41bf023b012b3d4c8a22a21b79fa425cd4494ecbe29701969190a35050565b611b2d33610f6d565b611b495760405162461bcd60e51b81526004016106a89061359c565b611b54838383611cfa565b611b995760405162461bcd60e51b815260206004820152601660248201527520a1a1a7aaa72a2fa4a9afa727aa2fa3a920a72a22a960511b60448201526064016106a8565b611ba282610f6d565b15611bec5760405162461bcd60e51b815260206004820152601a60248201527921a0a72727aa2fa922a6a7ab22afa927a7aa2fa3a920a72a22a960311b60448201526064016106a8565b5f8381526003602090815260408083206001600160a01b0386168452909152812090611c166111a4565b6001600160a01b0316815260208101919091526040015f205460ff1615611c9357611c3f6111a4565b6001600160a01b0316816001600160a01b031614611c935760405162461bcd60e51b815260206004820152601160248201527011d4905395115497d254d7d1d313d09053607a1b60448201526064016106a8565b5f8381526003602090815260408083206001600160a01b038087168086529184528285209086168086529352818420805460ff1916905590519192909186917ff8034293d5b4ed16b867ded8f122c475bc0d1b6bd9309a606609a754e5f3adc391a4505050565b5f8381526003602090815260408083206001600160a01b038087168552908352818420908516845290915281205460ff1680611d7857505f8481526003602090815260408083206001600160a01b0387168452909152812090611d5b6111a4565b6001600160a01b0316815260208101919091526040015f205460ff165b80611a475750611a4783610f6d565b7f000000000000000000000000000000000000000000000000000000000000000090565b6001600160a01b038083165f90815260046020908152604080832093851683529290529081205460ff1680611e1857506001600160a01b0383165f90815260046020526040812090611dfb6111a4565b6001600160a01b0316815260208101919091526040015f205460ff165b80610e285750610e2883610f6d565b336001600160a01b037f00000000000000000000000000000000000000000000000000000000000000001614611e6f5760405162461bcd60e51b81526004016106a89061350c565b611e788161284e565b611e945760405162461bcd60e51b81526004016106a89061353b565b5f82815260086020526040908190208290555182907f6aeebd84e31437f28a17927609991676c31c2b84875c601373da2c194e9d23419061071a9084815260200190565b6006545f908210611efb5760405162461bcd60e51b81526004016106a8906135f7565b5f60068381548110611f0f57611f0f613571565b5f9182526020909120600a90910201600281015490915060ff16158015611f4057506002810154610100900460ff16155b8015610e2857506003015442101592915050565b5f8381526009602090815260408083206001600160a01b038087168552908352818420908516845290915281205460ff1680611a4757505f8481526009602090815260408083206001600160a01b0387168452909152812090611fb56111a4565b6001600160a01b0316815260208101919091526040015f205460ff16949350505050565b60065460609084106120245760405162461bcd60e51b8152602060048201526014602482015273534b49505f56414c55455f544f4f5f4c4152474560601b60448201526064016106a8565b5f83116120695760405162461bcd60e51b81526020600482015260136024820152725a45524f5f4d41585f53495a455f56414c554560681b60448201526064016106a8565b6006545f90612079908690613754565b90505f6120868286612f28565b90505f816001600160401b038111156120a1576120a1613028565b6040519080825280602002602001820160405280156120da57816020015b6120c7612f46565b8152602001906001900390816120bf5790505b5090505f5b8281101561240c57856122745760066120f8828a613767565b8154811061210857612108613571565b5f918252602091829020604080516101808101909152600a9092020180546001600160a01b031682526001810180549293919291840191612148906136d9565b80601f0160208091040260200160405190810160405280929190818152602001828054612174906136d9565b80156121bf5780601f10612196576101008083540402835291602001916121bf565b820191905f5260205f20905b8154815290600101906020018083116121a257829003601f168201915b5050509183525050600282015460ff808216151560208401526101008083048216151560408501526201000090920416151560608301526003830154608083015260048301546001600160a01b0390811660a0840152600584015460c08401526006840154811660e084015260078401549183019190915260088301541661012082015260099091015461014090910152825183908390811061226457612264613571565b6020026020010181905250612404565b600681612282600187613754565b61228c9190613754565b8154811061229c5761229c613571565b5f918252602091829020604080516101808101909152600a9092020180546001600160a01b0316825260018101805492939192918401916122dc906136d9565b80601f0160208091040260200160405190810160405280929190818152602001828054612308906136d9565b80156123535780601f1061232a57610100808354040283529160200191612353565b820191905f5260205f20905b81548152906001019060200180831161233657829003601f168201915b5050509183525050600282015460ff808216151560208401526101008083048216151560408501526201000090920416151560608301526003830154608083015260048301546001600160a01b0390811660a0840152600584015460c08401526006840154811660e08401526007840154918301919091526008830154166101208201526009909101546101409091015282518390839081106123f8576123f8613571565b60200260200101819052505b6001016120df565b509695505050505050565b5f61242133610f6d565b61243d5760405162461bcd60e51b81526004016106a89061359c565b6303c267008311156124615760405162461bcd60e51b81526004016106a8906136b0565b5f848152600a60205260408120546124799085612f01565b604080516024810188905260448082018890528251808303909101815260649091019091526020810180516001600160e01b031663785dca0360e11b1790529091505f6124c830838588612912565b90508086887fbc72942fa810fe8985041bb36295502eddf2c163774be55e25d205958956072860405160405180910390a49695505050505050565b336001600160a01b037f0000000000000000000000000000000000000000000000000000000000000000161461254b5760405162461bcd60e51b81526004016106a89061350c565b7f000000000000000000000000000000000000000000000000000000000000000082146125975761257b8161284e565b6125975760405162461bcd60e51b81526004016106a89061353b565b5f828152600a6020526040908190208290555182907f0e182617f9e5f9ce5f761c791ec15ad52176d97f9706b5c2707ffda7b6bdf7909061071a9084815260200190565b6125e433610f6d565b6126005760405162461bcd60e51b81526004016106a89061359c565b611a048282612c2b565b600654606090821061262e5760405162461bcd60e51b81526004016106a8906135f7565b5f6006838154811061264257612642613571565b5f9182526020909120600a90910201600281015490915060ff16156126795760405162461bcd60e51b81526004016106a890613629565b6002810154610100900460ff16156126a35760405162461bcd60e51b81526004016106a89061365d565b80600301544210156126f65760405162461bcd60e51b815260206004820152601c60248201527b455845435554494f4e5f4e4f545f5945545f45584543555441424c4560201b60448201526064016106a8565b600281015462010000900460ff1615612758576127138333610634565b6127585760405162461bcd60e51b815260206004820152601660248201527529a2a72222a92fa4a9afa727aa2fa2ac22a1aaaa27a960511b60448201526064016106a8565b60028101805460ff191660019081179091556006820180546001600160a01b031916331790554260078301558154604051631cff79cd60e01b81527f00000000000000000000000000000000000000000000000000000000000000006001600160a01b0390811693631cff79cd936127d9939216919086019060040161377a565b5f604051808303815f875af11580156127f4573d5f5f3e3d5ffd5b505050506040513d5f823e601f3d908101601f1916820160405261281b9190810190613813565b60405190925083907f4fa5548c15e2d4a0b806eee962935acea143d79644d2340af39f4edf13b335a9905f90a250919050565b7f00000000000000000000000000000000000000000000000000000000000000005f908152600a6020526040902054101590565b5f80546001600160a01b0319166001600160a01b038316908117825560405190917f39510b933a9d010f906528d6019d3f4e2450a10dc33b10887503b31ed82f111191a250565b600180546001600160a01b0319166001600160a01b0383169081179091556040517f566fe119ff450afc2580186c62762b6c1258245c8b1b6bb095e7276eb5a75b55905f90a250565b6006545f6129208442613767565b835160408051610180810182526001600160a01b038a81168252602082018a81525f938301849052606083018490529315156080830181905260a083018690523360c08401524260e0840152610100830184905261012083018490526101408301849052610160830184905260068054600181018255945282517ff652222313e28459528d920b65115c16c04f3efc82aaedc97be59f3f377c0d3f600a90950294850180546001600160a01b03191691909316178255935194955092939092917ff652222313e28459528d920b65115c16c04f3efc82aaedc97be59f3f377c0d400190612a0d90826138d2565b5060408201516002820180546060850151608086015161ffff1990921693151561ff0019169390931761010093151584021762ff00001916620100009115159190910217905560a0830151600383015560c08301516004830180546001600160a01b03199081166001600160a01b039384161790915560e0850151600585015591840151600684018054841691831691909117905561012084015160078401556101408401516008840180549093169116179055610160909101516009909101555f5b8451811015612c205760025f8581526020019081526020015f205f868381518110612afd57612afd613571565b6020908102919091018101516001600160a01b031682528101919091526040015f205460ff1615612b665760405162461bcd60e51b81526020600482015260136024820152724455504c49434154455f4558454355544f525360681b60448201526064016106a8565b5f848152600260205260408120865160019290889085908110612b8b57612b8b613571565b60200260200101516001600160a01b03166001600160a01b031681526020019081526020015f205f6101000a81548160ff021916908315150217905550848181518110612bda57612bda613571565b60200260200101516001600160a01b0316847f2d0aa562da96ca6dd124fee5588e6f8545b0aa0b15cfd87cc231eff1ae7000e460405160405180910390a3600101612ad0565b505050949350505050565b612c358282610db9565b15612c805760405162461bcd60e51b815260206004820152601b60248201527a20a1a1a7aaa72a2fa4a9afa0a62922a0a22cafa1a0a721a2a622a960291b60448201526064016106a8565b612c886119f4565b8214612d3d576006548210612caf5760405162461bcd60e51b81526004016106a8906135f7565b5f60068381548110612cc357612cc3613571565b5f9182526020909120600a90910201600281015490915060ff16158015612cf457506002810154610100900460ff16155b612d3b5760405162461bcd60e51b8152602060048201526018602482015277455845435554494f4e5f49535f4e4f545f50454e44494e4760401b60448201526064016106a8565b505b5f8281526005602090815260408083206001600160a01b0385168085529252808320805460ff1916600117905551909184917f1b55562f9a67454174f758170aba47751c0af4c1f3b7d4e0b70667f1e82066069190a35050565b612da2838383611f54565b612de75760405162461bcd60e51b8152602060048201526016602482015275141154935254d4d253d397d393d517d1d4905395115160521b60448201526064016106a8565b5f8381526009602090815260408083206001600160a01b0386168452909152812090612e116111a4565b6001600160a01b0316815260208101919091526040015f205460ff1615612e9a57612e3a6111a4565b6001600160a01b0316816001600160a01b031614612e9a5760405162461bcd60e51b815260206004820152601d60248201527f4143434f554e545f4841535f474c4f42414c5f5045524d495353494f4e00000060448201526064016106a8565b5f8381526009602090815260408083206001600160a01b038087168086529184528285209086168086529352818420805460ff1916905590519192909186917f7b42e026d3b17cf41399915c285780d0f724b3464b269297aff73c0de0fe417f91a4505050565b5f828210612f125762069780610e28565b610e28612f1f8385613754565b62069780612f37565b5f818311828418028318610e28565b5f818310828418028318610e28565b60408051610180810182525f8082526060602083018190529282018190529181018290526080810182905260a0810182905260c0810182905260e0810182905261010081018290526101208101829052610140810182905261016081019190915290565b80356001600160a01b0381168114612fc0575f5ffd5b919050565b5f5f60408385031215612fd6575f5ffd5b82359150612fe660208401612faa565b90509250929050565b5f60208284031215612fff575f5ffd5b610e2882612faa565b5f5f60408385031215613019575f5ffd5b50508035926020909101359150565b634e487b7160e01b5f52604160045260245ffd5b604051601f8201601f191681016001600160401b038111828210171561306457613064613028565b604052919050565b5f6001600160401b0382111561308457613084613028565b50601f01601f191660200190565b5f82601f8301126130a1575f5ffd5b81356001600160401b038111156130ba576130ba613028565b8060051b6130ca6020820161303c565b918252602081850181019290810190868411156130e5575f5ffd5b6020860192505b8383101561310e576130fd83612faa565b8252602092830192909101906130ec565b9695505050505050565b5f5f5f6060848603121561312a575f5ffd5b61313384612faa565b925060208401356001600160401b0381111561314d575f5ffd5b8401601f8101861361315d575f5ffd5b803561317061316b8261306c565b61303c565b818152876020838501011115613184575f5ffd5b816020840160208301375f9181016020019190915292505060408401356001600160401b038111156131b4575f5ffd5b6131c086828701613092565b9150509250925092565b6001600160a01b03169052565b6001600160a01b0391909116815260200190565b5f5f5f606084860312156131fd575f5ffd5b8335925061320d60208501612faa565b915061321b60408501612faa565b90509250925092565b5f5f60408385031215613235575f5ffd5b61323e83612faa565b915060208301356001600160401b03811115613258575f5ffd5b61326485828601613092565b9150509250929050565b5f6020828403121561327e575f5ffd5b5035919050565b5f5f5f5f60808587031215613298575f5ffd5b843593506132a860208601612faa565b92506132b660408601612faa565b915060608501356001600160401b038111156132d0575f5ffd5b6132dc87828801613092565b91505092959194509250565b5f5f5f606084860312156132fa575f5ffd5b833592506020840135915060408401356001600160401b038111156131b4575f5ffd5b5f81518084528060208401602086015e5f602082860101526020601f19601f83011685010191505092915050565b6133568282516131ca565b5f6020820151610180602085015261337261018085018261331d565b90506040830151613387604086018215159052565b50606083015161339b606086018215159052565b5060808301516133af608086018215159052565b5060a083015160a085015260c08301516133cc60c08601826131ca565b5060e083015160e08501526101008301516133eb6101008601826131ca565b5061012083015161012085015261014083015161340c6101408601826131ca565b506101608301516101608501528091505092915050565b602081525f610e28602083018461334b565b5f5f60408385031215613446575f5ffd5b61344f83612faa565b9150612fe660208401612faa565b5f5f5f6060848603121561346f575f5ffd5b83359250602084013591506040840135801515811461348c575f5ffd5b809150509250925092565b5f602082016020835280845180835260408501915060408160051b8601019250602086015f5b828110156134ee57603f198786030184526134d985835161334b565b945060209384019391909101906001016134bd565b50929695505050505050565b602081525f610e28602083018461331d565b60208082526015908201527410d05397d3d3931657d09157d4d0d2115115531151605a1b604082015260600190565b6020808252601c908201527b2222a620acafa2ac21a2a2a229afa9a2aa2fa0aaaa2427a924ad22a960211b604082015260600190565b634e487b7160e01b5f52603260045260245ffd5b5f60208284031215613595575f5ffd5b5051919050565b60208082526012908201527114d15391115497d254d7d393d517d493d3d560721b604082015260600190565b60208082526015908201527429a2a72222a92fa4a9afa727aa2fa922ab27a5a2a960591b604082015260600190565b60208082526018908201527711561150d5551253d397d113d154d7d393d517d1561254d560421b604082015260600190565b6020808252601a908201527911561150d5551253d397d053149150511657d1561150d555115160321b604082015260600190565b6020808252601a908201527911561150d5551253d397d053149150511657d0d05390d153115160321b604082015260600190565b9283526001600160a01b03918216602084015216604082015260600190565b6020808252600f908201526e44454c41595f544f4f5f4c4152474560881b604082015260600190565b600181811c908216806136ed57607f821691505b60208210810361370b57634e487b7160e01b5f52602260045260245ffd5b50919050565b60208082526015908201527429a2a72222a92fa4a9afa727aa2fa3a920a72a22a960591b604082015260600190565b634e487b7160e01b5f52601160045260245ffd5b8181038181111561065a5761065a613740565b8082018082111561065a5761065a613740565b6001600160a01b03831681526040602082015281545f90819061379c816136d9565b806040860152600182165f81146137ba57600181146137d657613807565b60ff1983166060870152606082151560051b8701019350613807565b865f5260205f205f5b838110156137fe578154888201606001526001909101906020016137df565b87016060019450505b50919695505050505050565b5f60208284031215613823575f5ffd5b81516001600160401b03811115613838575f5ffd5b8201601f81018413613848575f5ffd5b805161385661316b8261306c565b81815285602083850101111561386a575f5ffd5b8160208401602083015e5f91810160200191909152949350505050565b601f821115610db457805f5260205f20601f840160051c810160208510156138ac5750805b601f840160051c820191505b818110156138cb575f81556001016138b8565b5050505050565b81516001600160401b038111156138eb576138eb613028565b6138ff816138f984546136d9565b84613887565b6020601f821160018114613931575f831561391a5750848201515b5f19600385901b1c1916600184901b1784556138cb565b5f84815260208120601f198516915b828110156139605787850151825560209485019460019092019101613940565b508482101561397d57868401515f19600387901b60f8161c191681555b50505050600190811b0190555056fea2646970667358221220524bb3e312a87cb07db57c98d23f1e346f4f2d8c55c46cb9c18397873d105b6c64736f6c634300081e003360a0604052348015600e575f5ffd5b50336080526080516104596100305f395f81816063015260a401526104595ff3fe608060405234801561000f575f5ffd5b5060043610610034575f3560e01c80631cff79cd14610038578063aaabadc514610061575b5f5ffd5b61004b6100463660046102d6565b61008f565b60405161005891906103a4565b60405180910390f35b7f000000000000000000000000000000000000000000000000000000000000000060405161005891906103d9565b606061009961012b565b336001600160a01b037f000000000000000000000000000000000000000000000000000000000000000016146101115760405162461bcd60e51b815260206004820152601860248201527729a2a72222a92fa4a9afa727aa2fa0aaaa2427a924ad22a960411b60448201526064015b60405180910390fd5b61011b8383610174565b9050610125610188565b92915050565b5f5160206104045f395f51905f525c1561015857604051633ee5aeb560e01b815260040160405180910390fd5b61017260015f5160206104045f395f51905f525b9061019f565b565b606061018183835f6101a6565b9392505050565b6101725f5f5160206104045f395f51905f5261016c565b80825d5050565b6060814710156101d25760405163cf47918160e01b815247600482015260248101839052604401610108565b5f5f856001600160a01b031684866040516101ed91906103ed565b5f6040518083038185875af1925050503d805f8114610227576040519150601f19603f3d011682016040523d82523d5f602084013e61022c565b606091505b509150915061023c868383610246565b9695505050505050565b60608261025b5761025682610299565b610181565b815115801561027257506001600160a01b0384163b155b156102925783604051639996b31560e01b815260040161010891906103d9565b5080610181565b8051156102a95780518082602001fd5b60405163d6bda27560e01b815260040160405180910390fd5b634e487b7160e01b5f52604160045260245ffd5b5f5f604083850312156102e7575f5ffd5b82356001600160a01b03811681146102fd575f5ffd5b915060208301356001600160401b03811115610317575f5ffd5b8301601f81018513610327575f5ffd5b80356001600160401b03811115610340576103406102c2565b604051601f8201601f19908116603f011681016001600160401b038111828210171561036e5761036e6102c2565b604052818152828201602001871015610385575f5ffd5b816020840160208301375f602083830101528093505050509250929050565b602081525f82518060208401528060208501604085015e5f604082850101526040601f19601f83011684010191505092915050565b6001600160a01b0391909116815260200190565b5f82518060208501845e5f92019182525091905056fe9b779b17422d0df92223018b32b4d1fa46e071723d6817e2486d003becc55f00a264697066735822122038f95bfbaf4165c90af53d307f5211bbad80d226eec6b7ad6cb74310fb16b09f64736f6c634300081e0033","linkReferences":{}},"methodIdentifiers":{"EVERYWHERE()":"62cde1ba","GLOBAL_CANCELER_SCHEDULED_EXECUTION_ID()":"9299942e","MAX_DELAY()":"4125ff90","MINIMUM_CHANGE_DELAY_EXECUTION_DELAY()":"b1e31aa0","addCanceler(uint256,address)":"f6ebcbaf","addGranter(bytes32,address,address)":"2229edb4","addRevoker(address,address)":"a44495d1","canExecute(uint256)":"cc63604a","canPerform(bytes32,address,address)":"9be2a884","cancel(uint256)":"40e58ee5","claimRoot()":"14ea35e7","execute(uint256)":"fe0d94c1","getActionIdDelay(bytes32)":"3bf46797","getActionIdGrantDelay(bytes32)":"8bd6bbc9","getActionIdRevokeDelay(bytes32)":"b99db526","getPendingRoot()":"d00bef4d","getRoot()":"5ca1e165","getRootTransferDelay()":"c284b6b9","getScheduledExecution(uint256)":"6badd2ab","getScheduledExecutions(uint256,uint256,bool)":"e4c00f4f","getScheduledExecutionsCount()":"f23481e0","getTimelockExecutionHelper()":"18ef871a","getVault()":"8d928af8","grantPermission(bytes32,address,address)":"8cc3d072","hasPermission(bytes32,address,address)":"e2b4146b","isCanceler(uint256,address)":"3e1df46d","isExecutor(uint256,address)":"04434606","isGranter(bytes32,address,address)":"b3eb281d","isPendingRoot(address)":"0df322a6","isPermissionGrantedOnTarget(bytes32,address,address)":"86ff254b","isRevoker(address,address)":"c6192ee3","isRoot(address)":"557a6403","removeCanceler(uint256,address)":"72efb120","removeGranter(bytes32,address,address)":"a8eae12d","removeRevoker(address,address)":"90216812","renouncePermission(bytes32,address)":"99a7f6e2","revokePermission(bytes32,address,address)":"3ac5d439","schedule(address,bytes,address[])":"169f1468","scheduleDelayChange(bytes32,uint256,address[])":"f0845522","scheduleGrantDelayChange(bytes32,uint256,address[])":"63cdbf36","scheduleGrantPermission(bytes32,address,address,address[])":"863bac6b","scheduleRevokeDelayChange(bytes32,uint256,address[])":"608dd7e4","scheduleRevokePermission(bytes32,address,address,address[])":"5b78b780","scheduleRootChange(address,address[])":"2e3ed05b","setDelay(bytes32,uint256)":"f0bb9406","setGrantDelay(bytes32,uint256)":"10d3ab2c","setPendingRoot(address)":"1b3c85eb","setRevokeDelay(bytes32,uint256)":"c80c23e1"},"id":353}