{"abi":[{"type":"constructor","inputs":[{"name":"vat_","type":"address","internalType":"address"}],"stateMutability":"nonpayable"},{"type":"function","name":"base","inputs":[],"outputs":[{"name":"","type":"uint256","internalType":"uint256"}],"stateMutability":"view"},{"type":"function","name":"deny","inputs":[{"name":"usr","type":"address","internalType":"address"}],"outputs":[],"stateMutability":"nonpayable"},{"type":"function","name":"drip","inputs":[{"name":"ilk","type":"bytes32","internalType":"bytes32"}],"outputs":[{"name":"rate","type":"uint256","internalType":"uint256"}],"stateMutability":"nonpayable"},{"type":"function","name":"file","inputs":[{"name":"ilk","type":"bytes32","internalType":"bytes32"},{"name":"what","type":"bytes32","internalType":"bytes32"},{"name":"data","type":"uint256","internalType":"uint256"}],"outputs":[],"stateMutability":"nonpayable"},{"type":"function","name":"file","inputs":[{"name":"what","type":"bytes32","internalType":"bytes32"},{"name":"data","type":"uint256","internalType":"uint256"}],"outputs":[],"stateMutability":"nonpayable"},{"type":"function","name":"file","inputs":[{"name":"what","type":"bytes32","internalType":"bytes32"},{"name":"data","type":"address","internalType":"address"}],"outputs":[],"stateMutability":"nonpayable"},{"type":"function","name":"ilks","inputs":[{"name":"","type":"bytes32","internalType":"bytes32"}],"outputs":[{"name":"duty","type":"uint256","internalType":"uint256"},{"name":"rho","type":"uint256","internalType":"uint256"}],"stateMutability":"view"},{"type":"function","name":"init","inputs":[{"name":"ilk","type":"bytes32","internalType":"bytes32"}],"outputs":[],"stateMutability":"nonpayable"},{"type":"function","name":"rely","inputs":[{"name":"usr","type":"address","internalType":"address"}],"outputs":[],"stateMutability":"nonpayable"},{"type":"function","name":"vat","inputs":[],"outputs":[{"name":"","type":"address","internalType":"contract VatLike"}],"stateMutability":"view"},{"type":"function","name":"vow","inputs":[],"outputs":[{"name":"","type":"address","internalType":"address"}],"stateMutability":"view"},{"type":"function","name":"wards","inputs":[{"name":"","type":"address","internalType":"address"}],"outputs":[{"name":"","type":"uint256","internalType":"uint256"}],"stateMutability":"view"}],"bytecode":{"object":"0x6080604052348015600e575f5ffd5b50604051610991380380610991833981016040819052602b916061565b335f90815260208190526040902060019055600280546001600160a01b0319166001600160a01b0392909216919091179055608c565b5f602082840312156070575f5ffd5b81516001600160a01b03811681146085575f5ffd5b9392505050565b6108f8806100995f395ff3fe608060405234801561000f575f5ffd5b50600436106100a2575f3560e01c80631a0b287e146100a657806329ae8114146100bb57806336569e77146100ce5780633b663195146100fe57806344e2a5a8146101115780635001f3b514610132578063626cb3c51461013b57806365fae35e1461014e5780639c52a7f114610161578063bf353dbb14610174578063d4e8be8314610193578063d9638d36146101a6575b5f5ffd5b6100b96100b436600461077c565b6101e1565b005b6100b96100c93660046107a5565b6102d7565b6002546100e1906001600160a01b031681565b6040516001600160a01b0390911681526020015b60405180910390f35b6100b961010c3660046107c5565b610319565b61012461011f3660046107c5565b6103b2565b6040519081526020016100f5565b61012460045481565b6003546100e1906001600160a01b031681565b6100b961015c3660046107f7565b61056d565b6100b961016f3660046107f7565b6105b7565b6101246101823660046107f7565b5f6020819052908152604090205481565b6100b96101a1366004610817565b6105fe565b6101cc6101b43660046107c5565b600160208190525f9182526040909120805491015482565b604080519283526020830191909152016100f5565b335f908152602081905260409020546001146102185760405162461bcd60e51b815260040161020f90610841565b60405180910390fd5b5f8381526001602081905260409091200154421461026e5760405162461bcd60e51b8152602060048201526013602482015272129d59cbdc9a1bcb5b9bdd0b5d5c19185d1959606a1b604482015260640161020f565b81636475747960e01b03610291575f838152600160205260409020819055505050565b60405162461bcd60e51b815260206004820152601b60248201527a4a75672f66696c652d756e7265636f676e697a65642d706172616d60281b604482015260640161020f565b335f908152602081905260409020546001146103055760405162461bcd60e51b815260040161020f90610841565b81636261736560e01b036102915760045550565b335f908152602081905260409020546001146103475760405162461bcd60e51b815260040161020f90610841565b5f81815260016020526040902080541561039a5760405162461bcd60e51b8152602060048201526014602482015273129d59cbda5b1acb585b1c9958591e4b5a5b9a5d60621b604482015260640161020f565b676765c793fa10079d601b1b81554260019091015550565b5f818152600160208190526040822001544210156104045760405162461bcd60e51b815260206004820152600f60248201526e4a75672f696e76616c69642d6e6f7760881b604482015260640161020f565b600254604051636cb1c69b60e11b8152600481018490525f916001600160a01b03169063d9638d369060240160408051808303815f875af115801561044b573d5f5f3e3d5ffd5b505050506040513d601f19601f8201168201806040525081019061046f919061086d565b6004545f868152600160205260409020549193506104c992506104c391610496919061065a565b5f86815260016020819052604090912001546104b2904261088f565b676765c793fa10079d601b1b61066f565b82610727565b6002546003549193506001600160a01b039081169163b65337df918691166104f18686610761565b6040516001600160e01b031960e086901b16815260048101939093526001600160a01b03909116602483015260448201526064015f604051808303815f87803b15801561053c575f5ffd5b505af115801561054e573d5f5f3e3d5ffd5b5050505f93845250506001602081905260409092204292019190915590565b335f9081526020819052604090205460011461059b5760405162461bcd60e51b815260040161020f90610841565b6001600160a01b03165f90815260208190526040902060019055565b335f908152602081905260409020546001146105e55760405162461bcd60e51b815260040161020f90610841565b6001600160a01b03165f90815260208190526040812055565b335f9081526020819052604090205460011461062c5760405162461bcd60e51b815260040161020f90610841565b8162766f7760e81b0361029157600380546001600160a01b0383166001600160a01b03199091161790555050565b81810182811015610669575f5ffd5b92915050565b5f83801561070a576001841680156106895785925061068d565b8392505b50600283046002850494505b84156107045785860286878204146106af575f5ffd5b818101818110156106be575f5ffd5b85900496505060018516156106f95785830283878204141587151516156106e3575f5ffd5b818101818110156106f2575f5ffd5b8590049350505b600285049450610699565b5061071f565b838015610719575f925061071d565b8392505b505b509392505050565b818102811580610745575082828281610742576107426108ae565b04145b61074d575f5ffd5b676765c793fa10079d601b1b900492915050565b8082035f831280159061077457505f8212155b610669575f5ffd5b5f5f5f6060848603121561078e575f5ffd5b505081359360208301359350604090920135919050565b5f5f604083850312156107b6575f5ffd5b50508035926020909101359150565b5f602082840312156107d5575f5ffd5b5035919050565b80356001600160a01b03811681146107f2575f5ffd5b919050565b5f60208284031215610807575f5ffd5b610810826107dc565b9392505050565b5f5f60408385031215610828575f5ffd5b82359150610838602084016107dc565b90509250929050565b602080825260129082015271129d59cbdb9bdd0b585d5d1a1bdc9a5e995960721b604082015260600190565b5f5f6040838503121561087e575f5ffd5b505080516020909101519092909150565b8181038181111561066957634e487b7160e01b5f52601160045260245ffd5b634e487b7160e01b5f52601260045260245ffdfea26469706673582212202c656a93a38ffc88c97d3c3dc35926332b3a2a7bf1553fd1bd47ab6bfd4f9e4164736f6c634300081e0033","linkReferences":{}},"methodIdentifiers":{"base()":"5001f3b5","deny(address)":"9c52a7f1","drip(bytes32)":"44e2a5a8","file(bytes32,address)":"d4e8be83","file(bytes32,bytes32,uint256)":"1a0b287e","file(bytes32,uint256)":"29ae8114","ilks(bytes32)":"d9638d36","init(bytes32)":"3b663195","rely(address)":"65fae35e","vat()":"36569e77","vow()":"626cb3c5","wards(address)":"bf353dbb"},"id":691}