{"abi":[{"type":"function","name":"addLiquidityToBuffer","inputs":[{"name":"wrappedToken","type":"address","internalType":"contract IERC4626"},{"name":"maxAmountUnderlyingInRaw","type":"uint256","internalType":"uint256"},{"name":"maxAmountWrappedInRaw","type":"uint256","internalType":"uint256"},{"name":"exactSharesToIssue","type":"uint256","internalType":"uint256"},{"name":"sharesOwner","type":"address","internalType":"address"}],"outputs":[{"name":"amountUnderlyingRaw","type":"uint256","internalType":"uint256"},{"name":"amountWrappedRaw","type":"uint256","internalType":"uint256"}],"stateMutability":"nonpayable"},{"type":"function","name":"areBuffersPaused","inputs":[],"outputs":[{"name":"","type":"bool","internalType":"bool"}],"stateMutability":"view"},{"type":"function","name":"collectAggregateFees","inputs":[{"name":"pool","type":"address","internalType":"address"}],"outputs":[{"name":"totalSwapFees","type":"uint256[]","internalType":"uint256[]"},{"name":"totalYieldFees","type":"uint256[]","internalType":"uint256[]"}],"stateMutability":"nonpayable"},{"type":"function","name":"disableQuery","inputs":[],"outputs":[],"stateMutability":"nonpayable"},{"type":"function","name":"disableQueryPermanently","inputs":[],"outputs":[],"stateMutability":"nonpayable"},{"type":"function","name":"disableRecoveryMode","inputs":[{"name":"pool","type":"address","internalType":"address"}],"outputs":[],"stateMutability":"nonpayable"},{"type":"function","name":"enableQuery","inputs":[],"outputs":[],"stateMutability":"nonpayable"},{"type":"function","name":"enableRecoveryMode","inputs":[{"name":"pool","type":"address","internalType":"address"}],"outputs":[],"stateMutability":"nonpayable"},{"type":"function","name":"facetFuncs","inputs":[],"outputs":[{"name":"funcs","type":"bytes4[]","internalType":"bytes4[]"}],"stateMutability":"pure"},{"type":"function","name":"facetInterfaces","inputs":[],"outputs":[{"name":"interfaces","type":"bytes4[]","internalType":"bytes4[]"}],"stateMutability":"pure"},{"type":"function","name":"facetMetadata","inputs":[],"outputs":[{"name":"name_","type":"string","internalType":"string"},{"name":"interfaces","type":"bytes4[]","internalType":"bytes4[]"},{"name":"functions","type":"bytes4[]","internalType":"bytes4[]"}],"stateMutability":"pure"},{"type":"function","name":"facetName","inputs":[],"outputs":[{"name":"name","type":"string","internalType":"string"}],"stateMutability":"pure"},{"type":"function","name":"getBufferMinimumTotalSupply","inputs":[],"outputs":[{"name":"","type":"uint256","internalType":"uint256"}],"stateMutability":"pure"},{"type":"function","name":"getMaximumPoolTokens","inputs":[],"outputs":[{"name":"","type":"uint256","internalType":"uint256"}],"stateMutability":"pure"},{"type":"function","name":"getMinimumPoolTokens","inputs":[],"outputs":[{"name":"","type":"uint256","internalType":"uint256"}],"stateMutability":"pure"},{"type":"function","name":"getPauseWindowEndTime","inputs":[],"outputs":[{"name":"","type":"uint32","internalType":"uint32"}],"stateMutability":"view"},{"type":"function","name":"getPoolMinimumTotalSupply","inputs":[],"outputs":[{"name":"","type":"uint256","internalType":"uint256"}],"stateMutability":"pure"},{"type":"function","name":"getVaultPausedState","inputs":[],"outputs":[{"name":"paused","type":"bool","internalType":"bool"},{"name":"pauseWindowEndTime","type":"uint32","internalType":"uint32"},{"name":"bufferPeriodEndTime","type":"uint32","internalType":"uint32"}],"stateMutability":"view"},{"type":"function","name":"initializeBuffer","inputs":[{"name":"wrappedToken","type":"address","internalType":"contract IERC4626"},{"name":"amountUnderlyingRaw","type":"uint256","internalType":"uint256"},{"name":"amountWrappedRaw","type":"uint256","internalType":"uint256"},{"name":"minIssuedShares","type":"uint256","internalType":"uint256"},{"name":"sharesOwner","type":"address","internalType":"address"}],"outputs":[{"name":"issuedShares","type":"uint256","internalType":"uint256"}],"stateMutability":"nonpayable"},{"type":"function","name":"isQueryDisabled","inputs":[],"outputs":[{"name":"","type":"bool","internalType":"bool"}],"stateMutability":"view"},{"type":"function","name":"isVaultPaused","inputs":[],"outputs":[{"name":"","type":"bool","internalType":"bool"}],"stateMutability":"view"},{"type":"function","name":"pausePool","inputs":[{"name":"pool","type":"address","internalType":"address"}],"outputs":[],"stateMutability":"nonpayable"},{"type":"function","name":"pauseVault","inputs":[],"outputs":[],"stateMutability":"nonpayable"},{"type":"function","name":"pauseVaultBuffers","inputs":[],"outputs":[],"stateMutability":"nonpayable"},{"type":"function","name":"removeLiquidityFromBuffer","inputs":[{"name":"wrappedToken","type":"address","internalType":"contract IERC4626"},{"name":"sharesToRemove","type":"uint256","internalType":"uint256"},{"name":"minAmountUnderlyingOutRaw","type":"uint256","internalType":"uint256"},{"name":"minAmountWrappedOutRaw","type":"uint256","internalType":"uint256"}],"outputs":[{"name":"removedUnderlyingBalanceRaw","type":"uint256","internalType":"uint256"},{"name":"removedWrappedBalanceRaw","type":"uint256","internalType":"uint256"}],"stateMutability":"nonpayable"},{"type":"function","name":"setAuthorizer","inputs":[{"name":"newAuthorizer","type":"address","internalType":"contract IAuthorizer"}],"outputs":[],"stateMutability":"nonpayable"},{"type":"function","name":"setProtocolFeeController","inputs":[{"name":"newProtocolFeeController","type":"address","internalType":"contract IProtocolFeeController"}],"outputs":[],"stateMutability":"nonpayable"},{"type":"function","name":"setStaticSwapFeePercentage","inputs":[{"name":"pool","type":"address","internalType":"address"},{"name":"swapFeePercentage","type":"uint256","internalType":"uint256"}],"outputs":[],"stateMutability":"nonpayable"},{"type":"function","name":"unpausePool","inputs":[{"name":"pool","type":"address","internalType":"address"}],"outputs":[],"stateMutability":"nonpayable"},{"type":"function","name":"unpauseVault","inputs":[],"outputs":[],"stateMutability":"nonpayable"},{"type":"function","name":"unpauseVaultBuffers","inputs":[],"outputs":[],"stateMutability":"nonpayable"},{"type":"function","name":"updateAggregateSwapFeePercentage","inputs":[{"name":"pool","type":"address","internalType":"address"},{"name":"newAggregateSwapFeePercentage","type":"uint256","internalType":"uint256"}],"outputs":[],"stateMutability":"nonpayable"},{"type":"function","name":"updateAggregateYieldFeePercentage","inputs":[{"name":"pool","type":"address","internalType":"address"},{"name":"newAggregateYieldFeePercentage","type":"uint256","internalType":"uint256"}],"outputs":[],"stateMutability":"nonpayable"},{"type":"event","name":"AggregateSwapFeePercentageChanged","inputs":[{"name":"pool","type":"address","indexed":true,"internalType":"address"},{"name":"aggregateSwapFeePercentage","type":"uint256","indexed":false,"internalType":"uint256"}],"anonymous":false},{"type":"event","name":"AggregateYieldFeePercentageChanged","inputs":[{"name":"pool","type":"address","indexed":true,"internalType":"address"},{"name":"aggregateYieldFeePercentage","type":"uint256","indexed":false,"internalType":"uint256"}],"anonymous":false},{"type":"event","name":"AuthorizerChanged","inputs":[{"name":"newAuthorizer","type":"address","indexed":true,"internalType":"contract IAuthorizer"}],"anonymous":false},{"type":"event","name":"BufferSharesBurned","inputs":[{"name":"wrappedToken","type":"address","indexed":true,"internalType":"contract IERC4626"},{"name":"from","type":"address","indexed":true,"internalType":"address"},{"name":"burnedShares","type":"uint256","indexed":false,"internalType":"uint256"}],"anonymous":false},{"type":"event","name":"BufferSharesMinted","inputs":[{"name":"wrappedToken","type":"address","indexed":true,"internalType":"contract IERC4626"},{"name":"to","type":"address","indexed":true,"internalType":"address"},{"name":"issuedShares","type":"uint256","indexed":false,"internalType":"uint256"}],"anonymous":false},{"type":"event","name":"LiquidityAdded","inputs":[{"name":"pool","type":"address","indexed":true,"internalType":"address"},{"name":"liquidityProvider","type":"address","indexed":true,"internalType":"address"},{"name":"kind","type":"uint8","indexed":true,"internalType":"enum AddLiquidityKind"},{"name":"totalSupply","type":"uint256","indexed":false,"internalType":"uint256"},{"name":"amountsAddedRaw","type":"uint256[]","indexed":false,"internalType":"uint256[]"},{"name":"swapFeeAmountsRaw","type":"uint256[]","indexed":false,"internalType":"uint256[]"}],"anonymous":false},{"type":"event","name":"LiquidityAddedToBuffer","inputs":[{"name":"wrappedToken","type":"address","indexed":true,"internalType":"contract IERC4626"},{"name":"amountUnderlying","type":"uint256","indexed":false,"internalType":"uint256"},{"name":"amountWrapped","type":"uint256","indexed":false,"internalType":"uint256"},{"name":"bufferBalances","type":"bytes32","indexed":false,"internalType":"bytes32"}],"anonymous":false},{"type":"event","name":"LiquidityRemoved","inputs":[{"name":"pool","type":"address","indexed":true,"internalType":"address"},{"name":"liquidityProvider","type":"address","indexed":true,"internalType":"address"},{"name":"kind","type":"uint8","indexed":true,"internalType":"enum RemoveLiquidityKind"},{"name":"totalSupply","type":"uint256","indexed":false,"internalType":"uint256"},{"name":"amountsRemovedRaw","type":"uint256[]","indexed":false,"internalType":"uint256[]"},{"name":"swapFeeAmountsRaw","type":"uint256[]","indexed":false,"internalType":"uint256[]"}],"anonymous":false},{"type":"event","name":"LiquidityRemovedFromBuffer","inputs":[{"name":"wrappedToken","type":"address","indexed":true,"internalType":"contract IERC4626"},{"name":"amountUnderlying","type":"uint256","indexed":false,"internalType":"uint256"},{"name":"amountWrapped","type":"uint256","indexed":false,"internalType":"uint256"},{"name":"bufferBalances","type":"bytes32","indexed":false,"internalType":"bytes32"}],"anonymous":false},{"type":"event","name":"PoolInitialized","inputs":[{"name":"pool","type":"address","indexed":true,"internalType":"address"}],"anonymous":false},{"type":"event","name":"PoolPausedStateChanged","inputs":[{"name":"pool","type":"address","indexed":true,"internalType":"address"},{"name":"paused","type":"bool","indexed":false,"internalType":"bool"}],"anonymous":false},{"type":"event","name":"PoolRecoveryModeStateChanged","inputs":[{"name":"pool","type":"address","indexed":true,"internalType":"address"},{"name":"recoveryMode","type":"bool","indexed":false,"internalType":"bool"}],"anonymous":false},{"type":"event","name":"PoolRegistered","inputs":[{"name":"pool","type":"address","indexed":true,"internalType":"address"},{"name":"factory","type":"address","indexed":true,"internalType":"address"},{"name":"tokenConfig","type":"tuple[]","indexed":false,"internalType":"struct TokenConfig[]","components":[{"name":"token","type":"address","internalType":"contract IERC20"},{"name":"tokenType","type":"uint8","internalType":"enum TokenType"},{"name":"rateProvider","type":"address","internalType":"contract IRateProvider"},{"name":"paysYieldFees","type":"bool","internalType":"bool"}]},{"name":"swapFeePercentage","type":"uint256","indexed":false,"internalType":"uint256"},{"name":"pauseWindowEndTime","type":"uint32","indexed":false,"internalType":"uint32"},{"name":"roleAccounts","type":"tuple","indexed":false,"internalType":"struct PoolRoleAccounts","components":[{"name":"pauseManager","type":"address","internalType":"address"},{"name":"swapFeeManager","type":"address","internalType":"address"},{"name":"poolCreator","type":"address","internalType":"address"}]},{"name":"hooksConfig","type":"tuple","indexed":false,"internalType":"struct HooksConfig","components":[{"name":"enableHookAdjustedAmounts","type":"bool","internalType":"bool"},{"name":"shouldCallBeforeInitialize","type":"bool","internalType":"bool"},{"name":"shouldCallAfterInitialize","type":"bool","internalType":"bool"},{"name":"shouldCallComputeDynamicSwapFee","type":"bool","internalType":"bool"},{"name":"shouldCallBeforeSwap","type":"bool","internalType":"bool"},{"name":"shouldCallAfterSwap","type":"bool","internalType":"bool"},{"name":"shouldCallBeforeAddLiquidity","type":"bool","internalType":"bool"},{"name":"shouldCallAfterAddLiquidity","type":"bool","internalType":"bool"},{"name":"shouldCallBeforeRemoveLiquidity","type":"bool","internalType":"bool"},{"name":"shouldCallAfterRemoveLiquidity","type":"bool","internalType":"bool"},{"name":"hooksContract","type":"address","internalType":"address"}]},{"name":"liquidityManagement","type":"tuple","indexed":false,"internalType":"struct LiquidityManagement","components":[{"name":"disableUnbalancedLiquidity","type":"bool","internalType":"bool"},{"name":"enableAddLiquidityCustom","type":"bool","internalType":"bool"},{"name":"enableRemoveLiquidityCustom","type":"bool","internalType":"bool"},{"name":"enableDonation","type":"bool","internalType":"bool"}]}],"anonymous":false},{"type":"event","name":"ProtocolFeeControllerChanged","inputs":[{"name":"newProtocolFeeController","type":"address","indexed":true,"internalType":"contract IProtocolFeeController"}],"anonymous":false},{"type":"event","name":"Swap","inputs":[{"name":"pool","type":"address","indexed":true,"internalType":"address"},{"name":"tokenIn","type":"address","indexed":true,"internalType":"contract IERC20"},{"name":"tokenOut","type":"address","indexed":true,"internalType":"contract IERC20"},{"name":"amountIn","type":"uint256","indexed":false,"internalType":"uint256"},{"name":"amountOut","type":"uint256","indexed":false,"internalType":"uint256"},{"name":"swapFeePercentage","type":"uint256","indexed":false,"internalType":"uint256"},{"name":"swapFeeAmount","type":"uint256","indexed":false,"internalType":"uint256"}],"anonymous":false},{"type":"event","name":"SwapFeePercentageChanged","inputs":[{"name":"pool","type":"address","indexed":true,"internalType":"address"},{"name":"swapFeePercentage","type":"uint256","indexed":false,"internalType":"uint256"}],"anonymous":false},{"type":"event","name":"Unwrap","inputs":[{"name":"wrappedToken","type":"address","indexed":true,"internalType":"contract IERC4626"},{"name":"burnedShares","type":"uint256","indexed":false,"internalType":"uint256"},{"name":"withdrawnUnderlying","type":"uint256","indexed":false,"internalType":"uint256"},{"name":"bufferBalances","type":"bytes32","indexed":false,"internalType":"bytes32"}],"anonymous":false},{"type":"event","name":"VaultAuxiliary","inputs":[{"name":"pool","type":"address","indexed":true,"internalType":"address"},{"name":"eventKey","type":"bytes32","indexed":true,"internalType":"bytes32"},{"name":"eventData","type":"bytes","indexed":false,"internalType":"bytes"}],"anonymous":false},{"type":"event","name":"VaultBuffersPausedStateChanged","inputs":[{"name":"paused","type":"bool","indexed":false,"internalType":"bool"}],"anonymous":false},{"type":"event","name":"VaultPausedStateChanged","inputs":[{"name":"paused","type":"bool","indexed":false,"internalType":"bool"}],"anonymous":false},{"type":"event","name":"VaultQueriesDisabled","inputs":[],"anonymous":false},{"type":"event","name":"VaultQueriesEnabled","inputs":[],"anonymous":false},{"type":"event","name":"Wrap","inputs":[{"name":"wrappedToken","type":"address","indexed":true,"internalType":"contract IERC4626"},{"name":"depositedUnderlying","type":"uint256","indexed":false,"internalType":"uint256"},{"name":"mintedShares","type":"uint256","indexed":false,"internalType":"uint256"},{"name":"bufferBalances","type":"bytes32","indexed":false,"internalType":"bytes32"}],"anonymous":false},{"type":"error","name":"AfterAddLiquidityHookFailed","inputs":[]},{"type":"error","name":"AfterInitializeHookFailed","inputs":[]},{"type":"error","name":"AfterRemoveLiquidityHookFailed","inputs":[]},{"type":"error","name":"AfterSwapHookFailed","inputs":[]},{"type":"error","name":"AmountGivenZero","inputs":[]},{"type":"error","name":"AmountInAboveMax","inputs":[{"name":"tokenIn","type":"address","internalType":"contract IERC20"},{"name":"amountIn","type":"uint256","internalType":"uint256"},{"name":"maxAmountIn","type":"uint256","internalType":"uint256"}]},{"type":"error","name":"AmountOutBelowMin","inputs":[{"name":"tokenOut","type":"address","internalType":"contract IERC20"},{"name":"amountOut","type":"uint256","internalType":"uint256"},{"name":"minAmountOut","type":"uint256","internalType":"uint256"}]},{"type":"error","name":"BalanceNotSettled","inputs":[]},{"type":"error","name":"BalanceOverflow","inputs":[]},{"type":"error","name":"BeforeAddLiquidityHookFailed","inputs":[]},{"type":"error","name":"BeforeInitializeHookFailed","inputs":[]},{"type":"error","name":"BeforeRemoveLiquidityHookFailed","inputs":[]},{"type":"error","name":"BeforeSwapHookFailed","inputs":[]},{"type":"error","name":"BptAmountInAboveMax","inputs":[{"name":"amountIn","type":"uint256","internalType":"uint256"},{"name":"maxAmountIn","type":"uint256","internalType":"uint256"}]},{"type":"error","name":"BptAmountOutBelowMin","inputs":[{"name":"amountOut","type":"uint256","internalType":"uint256"},{"name":"minAmountOut","type":"uint256","internalType":"uint256"}]},{"type":"error","name":"BufferAlreadyInitialized","inputs":[{"name":"wrappedToken","type":"address","internalType":"contract IERC4626"}]},{"type":"error","name":"BufferNotInitialized","inputs":[{"name":"wrappedToken","type":"address","internalType":"contract IERC4626"}]},{"type":"error","name":"BufferSharesInvalidOwner","inputs":[]},{"type":"error","name":"BufferSharesInvalidReceiver","inputs":[]},{"type":"error","name":"BufferTotalSupplyTooLow","inputs":[{"name":"totalSupply","type":"uint256","internalType":"uint256"}]},{"type":"error","name":"CannotReceiveEth","inputs":[]},{"type":"error","name":"CannotSwapSameToken","inputs":[]},{"type":"error","name":"CodecOverflow","inputs":[]},{"type":"error","name":"DoesNotSupportAddLiquidityCustom","inputs":[]},{"type":"error","name":"DoesNotSupportDonation","inputs":[]},{"type":"error","name":"DoesNotSupportRemoveLiquidityCustom","inputs":[]},{"type":"error","name":"DoesNotSupportUnbalancedLiquidity","inputs":[]},{"type":"error","name":"DynamicSwapFeeHookFailed","inputs":[]},{"type":"error","name":"FeePrecisionTooHigh","inputs":[]},{"type":"error","name":"HookAdjustedAmountInAboveMax","inputs":[{"name":"tokenIn","type":"address","internalType":"contract IERC20"},{"name":"amountIn","type":"uint256","internalType":"uint256"},{"name":"maxAmountIn","type":"uint256","internalType":"uint256"}]},{"type":"error","name":"HookAdjustedAmountOutBelowMin","inputs":[{"name":"tokenOut","type":"address","internalType":"contract IERC20"},{"name":"amountOut","type":"uint256","internalType":"uint256"},{"name":"minAmountOut","type":"uint256","internalType":"uint256"}]},{"type":"error","name":"HookAdjustedSwapLimit","inputs":[{"name":"amount","type":"uint256","internalType":"uint256"},{"name":"limit","type":"uint256","internalType":"uint256"}]},{"type":"error","name":"HookRegistrationFailed","inputs":[{"name":"poolHooksContract","type":"address","internalType":"address"},{"name":"pool","type":"address","internalType":"address"},{"name":"poolFactory","type":"address","internalType":"address"}]},{"type":"error","name":"InvalidAddLiquidityKind","inputs":[]},{"type":"error","name":"InvalidRemoveLiquidityKind","inputs":[]},{"type":"error","name":"InvalidToken","inputs":[]},{"type":"error","name":"InvalidTokenConfiguration","inputs":[]},{"type":"error","name":"InvalidTokenDecimals","inputs":[]},{"type":"error","name":"InvalidTokenType","inputs":[]},{"type":"error","name":"InvalidUnderlyingToken","inputs":[{"name":"wrappedToken","type":"address","internalType":"contract IERC4626"}]},{"type":"error","name":"IssuedSharesBelowMin","inputs":[{"name":"issuedShares","type":"uint256","internalType":"uint256"},{"name":"minIssuedShares","type":"uint256","internalType":"uint256"}]},{"type":"error","name":"MaxTokens","inputs":[]},{"type":"error","name":"MinTokens","inputs":[]},{"type":"error","name":"NotEnoughBufferShares","inputs":[]},{"type":"error","name":"NotEnoughUnderlying","inputs":[{"name":"wrappedToken","type":"address","internalType":"contract IERC4626"},{"name":"expectedUnderlyingAmount","type":"uint256","internalType":"uint256"},{"name":"actualUnderlyingAmount","type":"uint256","internalType":"uint256"}]},{"type":"error","name":"NotEnoughWrapped","inputs":[{"name":"wrappedToken","type":"address","internalType":"contract IERC4626"},{"name":"expectedWrappedAmount","type":"uint256","internalType":"uint256"},{"name":"actualWrappedAmount","type":"uint256","internalType":"uint256"}]},{"type":"error","name":"NotVaultDelegateCall","inputs":[]},{"type":"error","name":"OutOfBounds","inputs":[]},{"type":"error","name":"PauseBufferPeriodDurationTooLarge","inputs":[]},{"type":"error","name":"PercentageAboveMax","inputs":[]},{"type":"error","name":"PoolAlreadyInitialized","inputs":[{"name":"pool","type":"address","internalType":"address"}]},{"type":"error","name":"PoolAlreadyRegistered","inputs":[{"name":"pool","type":"address","internalType":"address"}]},{"type":"error","name":"PoolInRecoveryMode","inputs":[{"name":"pool","type":"address","internalType":"address"}]},{"type":"error","name":"PoolNotInRecoveryMode","inputs":[{"name":"pool","type":"address","internalType":"address"}]},{"type":"error","name":"PoolNotInitialized","inputs":[{"name":"pool","type":"address","internalType":"address"}]},{"type":"error","name":"PoolNotPaused","inputs":[{"name":"pool","type":"address","internalType":"address"}]},{"type":"error","name":"PoolNotRegistered","inputs":[{"name":"pool","type":"address","internalType":"address"}]},{"type":"error","name":"PoolPauseWindowExpired","inputs":[{"name":"pool","type":"address","internalType":"address"}]},{"type":"error","name":"PoolPaused","inputs":[{"name":"pool","type":"address","internalType":"address"}]},{"type":"error","name":"ProtocolFeesExceedTotalCollected","inputs":[]},{"type":"error","name":"ProtocolSwapFeePercentageTooHigh","inputs":[]},{"type":"error","name":"ProtocolYieldFeePercentageTooHigh","inputs":[]},{"type":"error","name":"QueriesDisabled","inputs":[]},{"type":"error","name":"QueriesDisabledPermanently","inputs":[]},{"type":"error","name":"QuoteResultSpoofed","inputs":[]},{"type":"error","name":"ReentrancyGuardReentrantCall","inputs":[]},{"type":"error","name":"RouterNotTrusted","inputs":[]},{"type":"error","name":"SenderIsNotVault","inputs":[{"name":"sender","type":"address","internalType":"address"}]},{"type":"error","name":"SenderNotAllowed","inputs":[]},{"type":"error","name":"SwapFeePercentageTooHigh","inputs":[]},{"type":"error","name":"SwapFeePercentageTooLow","inputs":[]},{"type":"error","name":"SwapLimit","inputs":[{"name":"amount","type":"uint256","internalType":"uint256"},{"name":"limit","type":"uint256","internalType":"uint256"}]},{"type":"error","name":"TokenAlreadyRegistered","inputs":[{"name":"token","type":"address","internalType":"contract IERC20"}]},{"type":"error","name":"TokenNotRegistered","inputs":[{"name":"token","type":"address","internalType":"contract IERC20"}]},{"type":"error","name":"TokensMismatch","inputs":[{"name":"pool","type":"address","internalType":"address"},{"name":"expectedToken","type":"address","internalType":"address"},{"name":"actualToken","type":"address","internalType":"address"}]},{"type":"error","name":"TradeAmountTooSmall","inputs":[]},{"type":"error","name":"VaultBuffersArePaused","inputs":[]},{"type":"error","name":"VaultIsNotUnlocked","inputs":[]},{"type":"error","name":"VaultNotPaused","inputs":[]},{"type":"error","name":"VaultPauseWindowDurationTooLarge","inputs":[]},{"type":"error","name":"VaultPauseWindowExpired","inputs":[]},{"type":"error","name":"VaultPaused","inputs":[]},{"type":"error","name":"WrapAmountTooSmall","inputs":[{"name":"wrappedToken","type":"address","internalType":"contract IERC4626"}]},{"type":"error","name":"WrongProtocolFeeControllerDeployment","inputs":[]},{"type":"error","name":"WrongUnderlyingToken","inputs":[{"name":"wrappedToken","type":"address","internalType":"contract IERC4626"},{"name":"underlyingToken","type":"address","internalType":"address"}]},{"type":"error","name":"WrongVaultAdminDeployment","inputs":[]},{"type":"error","name":"WrongVaultExtensionDeployment","inputs":[]}],"bytecode":{"object":"0x6080604052348015600e575f5ffd5b50612ece8061001c5f395ff3fe608060405234801561000f575f5ffd5b5060043610610189575f3560e01c8063058a628f1461018d578063098401f5146101a25780630b7562be146101bf57806326a8a991146101c75780632d771389146101d95780632e42f4d5146101ec5780632ea80826146101f357806355aca1ec1461020857806355cba7fe1461021b578063574a4cff146102235780635b6f4d011461022b5780635e0b06f414610240578063653eb3b014610253578063821440f21461026657806385c8c0151461026e5780638a8d123a1461029a5780638f4ab9ca146102b75780639e0879c2146102d8578063a8175b27146102e0578063b4aef0ab146102e7578063b9212b49146102ef578063bffb78b2146102f7578063d0965a6b1461030a578063d15126ba14610313578063dc3f574e14610326578063de1a36a614610339578063e085c5a814610341578063e0d5560514610349578063e253670a14610351578063e2a92b1a14610364578063ebc7955c1461038c578063f10d7a751461039f578063f21c38cd146103b6575b5f5ffd5b6101a061019b366004612aa9565b6103c9565b005b6101aa610432565b60405190151581526020015b60405180910390f35b6101a0610440565b6127105b6040519081526020016101b6565b6101a06101e7366004612aa9565b610453565b60086101cb565b6101fb6104c4565b6040516101b69190612b08565b6101a0610216366004612aa9565b61051c565b6101aa610535565b6101fb61054a565b610233610b8d565b6040516101b69190612b48565b6101a061024e366004612b5a565b610bb6565b6101cb610261366004612b84565b610c7f565b6101a0610df0565b610276610e55565b60408051931515845263ffffffff92831660208501529116908201526060016101b6565b6102a2610e93565b60405163ffffffff90911681526020016101b6565b6102ca6102c5366004612aa9565b610e9c565b6040516101b6929190612c06565b6101a0611134565b60026101cb565b6101aa611146565b6101a061115b565b6101a0610305366004612aa9565b61116c565b620f42406101cb565b6101a0610321366004612b5a565b61121b565b6101a0610334366004612aa9565b6112b4565b6101a0611396565b6101a06113ba565b6101a06113cc565b6101a061035f366004612b5a565b611445565b610377610372366004612b84565b611500565b604080519283526020830191909152016101b6565b61037761039a366004612c2a565b611695565b6103a7611845565b6040516101b693929190612c62565b6101a06103c4366004612aa9565b61186d565b6103d1611881565b5f6103da611950565b600c81018054610100600160a81b0319166101006001600160a01b03861690810291909117909155604051919250907f94b979b6831a51293e2641426f97747feed46f17779fed9cd18d1ecefcfe92ef905f90a25050565b5f61043b611974565b905090565b610448611881565b6104515f61199d565b565b61045b611881565b610463611a70565b5f61046c611950565b600d810180546001600160a01b0319166001600160a01b038516908117909155604051919250907f280a60b1e63c1774d397d35cce80eb80e51408ead755fb446e6f744ce98e5df0905f90a2506104c1611ab7565b50565b60408051600180825281830190925260609160208083019080368337019050509050632d25bb8d60e21b815f8151811061050057610500612cb8565b6001600160e01b03199092166020928302919091019091015290565b8061052681611ace565b610531826001611af6565b5050565b5f61043b610541611950565b600a0154611c1d565b60408051601d8082526103c08201909252606091602082016103a080368337019050509050639e0879c260e01b815f8151811061058957610589612cb8565b6001600160e01b03199092166020928302919091019091015280516305bab15f60e11b90829060019081106105c0576105c0612cb8565b6001600160e01b031990921660209283029190910190910152805163098401f560e01b90829060029081106105f7576105f7612cb8565b6001600160e01b03199092166020928302919091019091015280516385c8c01560e01b908290600390811061062e5761062e612cb8565b6001600160e01b031990921660209283029190910190910152805163156b287b60e21b908290600490811061066557610665612cb8565b6001600160e01b031990921660209283029190910190910152805163f21c38cd60e01b908290600590811061069c5761069c612cb8565b6001600160e01b0319909216602092830291909101909101528051631c10b8b560e31b90829060069081106106d3576106d3612cb8565b6001600160e01b031990921660209283029190910190910152805163b9212b4960e01b908290600790811061070a5761070a612cb8565b6001600160e01b0319909216602092830291909101909101528051632ae5d3ff60e11b908290600890811061074157610741612cb8565b6001600160e01b03199092166020928302919091019091015280516368a8935d60e11b908290600990811061077857610778612cb8565b6001600160e01b0319909216602092830291909101909101528051631782c1bd60e21b908290600a9081106107af576107af612cb8565b6001600160e01b0319909216602092830291909101909101528051637129b38560e11b908290600b9081106107e6576107e6612cb8565b6001600160e01b03199092166020928302919091019091015280516347a55ce560e11b908290600c90811061081d5761081d612cb8565b6001600160e01b0319909216602092830291909101909101528051636e1faba760e11b908290600d90811061085457610854612cb8565b6001600160e01b0319909216602092830291909101909101528051635ffdbc5960e11b908290600e90811061088b5761088b612cb8565b6001600160e01b0319909216602092830291909101909101528051636f0d1b5360e11b908290600f9081106108c2576108c2612cb8565b6001600160e01b031990921660209283029190910190910152805163410a207960e11b90829060109081106108f9576108f9612cb8565b6001600160e01b031990921660209283029190910190910152805163e0d5560560e01b908290601190811061093057610930612cb8565b6001600160e01b031990921660209283029190910190910152805163b4aef0ab60e01b908290601290811061096757610967612cb8565b6001600160e01b031990921660209283029190910190910152805163058a628f60e01b908290601390811061099e5761099e612cb8565b6001600160e01b0319909216602092830291909101909101528051632d77138960e01b90829060149081106109d5576109d5612cb8565b6001600160e01b0319909216602092830291909101909101528051634546891d60e11b9082906015908110610a0c57610a0c612cb8565b6001600160e01b031990921660209283029190910190910152805163a8175b2760e01b9082906016908110610a4357610a43612cb8565b6001600160e01b0319909216602092830291909101909101528051632e42f4d560e01b9082906017908110610a7a57610a7a612cb8565b6001600160e01b031990921660209283029190910190910152805163d0965a6b60e01b9082906018908110610ab157610ab1612cb8565b6001600160e01b03199092166020928302919091019091015280516326a8a99160e01b9082906019908110610ae857610ae8612cb8565b6001600160e01b0319909216602092830291909101909101528051630653eb3b60e41b908290601a908110610b1f57610b1f612cb8565b6001600160e01b0319909216602092830291909101909101528051637154958d60e11b908290601b908110610b5657610b56612cb8565b6001600160e01b0319909216602092830291909101909101528051633af1e55760e21b908290601c90811061050057610500612cb8565b60408051808201909152600f81526e15985d5b1d10591b5a5b919858d95d608a1b602082015290565b81610bc081611ace565b610bc8611c46565b670de0b6b3a7640000821115610bf157604051637e6eb7fb60e01b815260040160405180910390fd5b5f610bfa611950565b6001600160a01b0385165f908152600382016020526040902054909150610c219084611c7f565b6001600160a01b0385165f818152600384016020526040908190209290925590517fe4d371097beea42453a37406e2aef4c04f3c548f84ac50e72578662c0dcd735490610c719086815260200190565b60405180910390a250505050565b5f610c88611a70565b5f610c9287611da4565b6001600160a01b031614610cc35785604051625a43e960e61b8152600401610cba9190612ccc565b60405180910390fd5b5f866001600160a01b03166338d52e0f6040518163ffffffff1660e01b8152600401602060405180830381865afa158015610d00573d5f5f3e3d5ffd5b505050506040513d601f19601f82011682018060405250810190610d249190612ce0565b9050610d308782611dd2565b610d3a8587612d0f565b915083821015610d6757604051636d06583f60e11b81526004810183905260248101859052604401610cba565b5f610d7461271084612d0f565b9050610d808882611e11565b610d8b888585611e3c565b5f610d968888611e7a565b9050610da28982611ebe565b846001600160a01b0316896001600160a01b03165f516020612e795f395f51905f5286604051610dd491815260200190565b60405180910390a3505050610de7611ab7565b95945050505050565b610df8611881565b5f610e01611950565b600c8101805460ff19166001908117909155600a820154919250610e259190611ee9565b600a8201556040517fbd204090fd387f08e3076528bf09b4fc99d8100d749eace96c06002d3fedc625905f90a150565b5f5f5f5f610e61611950565b9050610e7081600a0154611ef6565b600290910154909463ffffffff8083169550600160201b90920490911692509050565b5f61043b611f05565b606080610ea7611f1e565b610eaf611c46565b82610eb981611ace565b5f610ec2611950565b6001600160a01b0386165f908152600682016020908152604080832080548251818502810185019093528083529495509293909291830182828015610f2e57602002820191905f5260205f20905b81546001600160a01b03168152600190910190602001808311610f10575b5050835193945083925050506001600160401b03811115610f5157610f51612ca4565b604051908082528060200260200182016040528015610f7a578160200160208202803683370190505b509550806001600160401b03811115610f9557610f95612ca4565b604051908082528060200260200182016040528015610fbe578160200160208202803683370190505b5094505f5b8181101561112a575f838281518110610fde57610fde612cb8565b6020908102919091018101516001600160a01b03808c165f90815260098901845260408082209284168252919093529091205490915061101d81611f61565b89848151811061102f5761102f612cb8565b6020026020010181815250506110458160801c90565b88848151811061105757611057612cb8565b6020026020010181815250505f89848151811061107657611076612cb8565b602002602001015111806110a257505f88848151811061109857611098612cb8565b6020026020010151115b15611120576001600160a01b03808b165f9081526009880160209081526040808320938616835292905290812081905588518990859081106110e6576110e6612cb8565b60200260200101518a858151811061110057611100612cb8565b60200260200101516111129190612d0f565b905061111e8382611f6d565b505b5050600101610fc3565b5050505050915091565b61113c611881565b610451600161199d565b5f61043b611152611950565b600a0154611f88565b611163611881565b6104515f611f92565b8061117681611ace565b61117e611881565b5f611187611950565b6001600160a01b0384165f9081526003820160205260409020549091506111ad81611fe4565b6111cc578360405163ef029adf60e01b8152600401610cba9190612ccc565b6111d584612015565b6111df815f612109565b6001600160a01b0385165f818152600385016020908152604080832094909455925190815290915f516020612e395f395f51905f529101610c71565b8161122581611ace565b61122e83612141565b5f611237611950565b6001600160a01b038086165f908152600483016020908152604091829020825160608101845281548516815260018201548516928101839052600290910154909316918301919091529192509033146112a3576040516323dada5360e01b815260040160405180910390fd5b6112ad8585612152565b5050505050565b806112be81611ace565b5f6112c7611950565b6001600160a01b0384165f9081526003820160205260409020549091506112ed81611fe4565b1561130d578360405163346d760760e01b8152600401610cba9190612ccc565b5f611317826122b9565b90505f61132784600a0154611ef6565b905081158015611335575080155b1561134257611342611881565b61134d836001612109565b6001600160a01b0387165f81815260038701602090815260409182902093909355516001815290915f516020612e395f395f51905f5291015b60405180910390a2505050505050565b61139e611881565b5f6113a7611950565b600a810154909150610e25906001611ee9565b6113c2611881565b6104516001611f92565b6113d4611881565b5f6113dd611950565b600c81015490915060ff1615611406576040516301a7e32f60e21b815260040160405180910390fd5b600a810154611415905f611ee9565b600a8201556040517f91d7478835f2b5adc315f5aad920f4a7f0a02f7fddf3042d17b2c80168ea17f5905f90a150565b8161144f81611ace565b611457611c46565b670de0b6b3a7640000821115611480576040516353c24f4760e11b815260040160405180910390fd5b5f611489611950565b6001600160a01b0385165f9081526003820160205260409020549091506114b090846122c8565b6001600160a01b0385165f818152600384016020526040908190209290925590517f606eb97d83164bd6b200d638cd49c14c65d94d4f2c674cfd85e24e0e202c3ca590610c719086815260200190565b5f5f61150a611a70565b5f61151488611da4565b6001600160a01b03160361153d57866040516385f4129960e01b8152600401610cba9190612ccc565b5f611547886123e7565b90505f61155382611f61565b90505f6115608360801c90565b90505f61156c8b612412565b905080156115a3578061157f8985612d22565b6115899190612d39565b9550806115968984612d22565b6115a09190612d39565b94505b898611806115b057508885115b156115e6578a6115c08688612d0f565b6115ca8b8d612d0f565b6040516323b6a17960e21b8152600401610cba93929190612d58565b6115f98b6115f48a84612d0f565b611e11565b5f6116048c8961243d565b905061161a8c896116158c85612d0f565b611e3c565b5f6116376116288987612d0f565b6116328987612d0f565b611e7a565b90506116438d82611ebe565b886001600160a01b03168d6001600160a01b03165f516020612e795f395f51905f528c60405161167591815260200190565b60405180910390a350505050505061168b611ab7565b9550959350505050565b5f5f61169f611a70565b5f6116a987611da4565b6001600160a01b0316036116d257856040516385f4129960e01b8152600401610cba9190612ccc565b5f6116dd873361243d565b90508581101561170057604051634c62edeb60e11b815260040160405180910390fd5b5f61170a886123e7565b90505f61171682611f61565b90505f6117238360801c90565b90505f61172f8b612412565b90508061173c8b85612d22565b6117469190612d39565b9650806117538b84612d22565b61175d9190612d39565b955088871015611786578a878a6040516317bc2f2360e11b8152600401610cba93929190612d58565b878610156117ad578a86896040516317bc2f2360e11b8152600401610cba93929190612d58565b6117bb8b6115f48c84612d79565b6117ca8b336116158d89612d79565b5f6117e26117d88986612d79565b6116328986612d79565b90506117ee8c82611ebe565b6040518b815233906001600160a01b038e16907f4e09f7f7fc37ce2897800e2c2a9099565edb0a133d19d84a6871b3530af8846b9060200160405180910390a350505050505061183c611ab7565b94509492505050565b6060806060611852610b8d565b925061185c6104c4565b915061186661054a565b9050909192565b8061187781611ace565b610531825f611af6565b60408051306020808301919091526001600160e01b03195f35168284015282518083036024018152604490920190925280519101206118be612476565b6040516326f8aa2160e21b8152600481018390523360248201523060448201526001600160a01b039190911690639be2a88490606401602060405180830381865afa15801561190f573d5f5f3e3d5ffd5b505050506040513d601f19601f820116820180604052508101906119339190612d8c565b6104c1576040516323dada5360e01b815260040160405180910390fd5b7f867cc37b1d81c6898e0381d9834d1320e6a009ceb8f1f455820783856710c6b590565b5f61197d612497565b63ffffffff16421115801561043b575061043b6119986124b7565b611ef6565b5f6119a6611950565b90506119b0611974565b156119d95781156119d4576040516336a7e2cd60e21b815260040160405180910390fd5b611a22565b8115611a0957600281015463ffffffff1642106119d457604051630e4460b760e01b815260040160405180910390fd5b604051637bffa6e560e11b815260040160405180910390fd5b600a810154611a3190836124ca565b600a82015560405182151581527fe0629fe656e45ad7fd63a24b899da368690024c07043b88e57aee5095b1d3d02906020015b60405180910390a15050565b5f516020612e595f395f51905f525c15611a9d57604051633ee5aeb560e01b815260040160405180910390fd5b61045160015f516020612e595f395f51905f525b906124e8565b6104515f5f516020612e595f395f51905f52611ab1565b611ad7816124ef565b6104c157806040516327946f5760e21b8152600401610cba9190612ccc565b5f611aff611950565b6001600160a01b038085165f908152600483016020908152604091829020825160608101845281548516808252600183015486169382019390935260029091015490931691830191909152919250903314611b6d576040516323dada5360e01b815260040160405180910390fd5b6001600160a01b0384165f90815260038301602052604081205490611b9182612501565b90508415611bc1578063ffffffff164210611bc1578560405163eb5a121760e01b8152600401610cba9190612ccc565b611bcb8286612608565b6001600160a01b0387165f818152600387016020526040908190209290925590517f57e20448028297190122571be7cb6c1b1ef85730c673f7c72f533c8662419aa79061138690881515815260200190565b5f611c40611c2c826001612d0f565b611c37906001612d0f565b83901c60011690565b92915050565b611c4e612618565b6001600160a01b0316336001600160a01b031614610451576040516323dada5360e01b815260040160405180910390fd5b5f670de0b5cad2bef000821115611ca9576040516301d1b96560e61b815260040160405180910390fd5b611cb864174876e80083612d39565b9150611d9d826018611ccb5f6001612dab565b611cd6906001612dab565b611ce1906001612dab565b611cec906001612dab565b611cf7906001612dab565b611d02906001612dab565b611d0d906001612dab565b611d18906001612dab565b611d23906001612dab565b611d2e906001612dab565b611d39906001612dab565b611d44906001612dab565b611d4f906001612dab565b611d5a906001612dab565b611d65906001612dab565b611d70906001612dab565b611d7b906001612dab565b611d86906001612dab565b60ff16611d939190612d0f565b8591906018612634565b9392505050565b5f611c40611db0611950565b6001600160a01b038085165f9081526011929092016020526040909120541690565b610531611ddd611950565b6001600160a01b038085165f908152601192909201602052604090912080546001600160a01b031916918416919091179055565b610531611e1c611950565b6001600160a01b0384165f90815260109190910160205260409020829055565b611e75611e47611950565b6001600160a01b038086165f908152600f929092016020908152604080842092871684529190529020829055565b505050565b5f6001600160801b03831180611e9657506001600160801b0382115b15611eb4576040516389560ca160e01b815260040160405180910390fd5b611d9d8383612655565b610531611ec9611950565b6001600160a01b0384165f908152600e9190910160205260409020829055565b5f60011983168217611d9d565b5f611c40611c37826001612d0f565b5f61043b611f11611950565b6002015463ffffffff1690565b7f1369d017453f080f2416efe5ae39c8a4b4655ea0634227aaab0afdb9a9f93f005c15155f036104515760405163604dd39b60e11b815260040160405180910390fd5b6001600160801b031690565b61053182611f7a83612664565b611f8390612dc4565b61266e565b5f60018216611c40565b5f611f9b611950565b600a810154909150611fad90836126e8565b600a82015560405182151581527f300c7ca619eb846386aa0a6e5916ac2a41406448b0a2e99ba9ccafeb899015a590602001611a64565b5f611c40611ff3826001612dab565b611ffe906001612dab565b612009906001612dab565b839060ff161c60011690565b5f61201e611950565b6001600160a01b0383165f90815260068201602090815260408083208054825181850281018501909352808352949550929390929183018282801561208a57602002820191905f5260205f20905b81546001600160a01b0316815260019091019060200180831161206c575b505083519394505f925050505b818110156112ad576001600160a01b0385165f9081526008850160209081526040808320848452909152812054906120ce82611f61565b90506120da8182611e7a565b6001600160a01b0388165f90815260088801602090815260408083208784529091529020555050600101612097565b5f611d9d82612119836001612dab565b612124906001612dab565b61212f906001612dab565b60ff1690811b600190911b1985161790565b612149612703565b6104c181612729565b816001600160a01b031663ce20ece76040518163ffffffff1660e01b8152600401602060405180830381865afa15801561218e573d5f5f3e3d5ffd5b505050506040513d601f19601f820116820180604052508101906121b29190612dde565b8110156121d2576040516317f640d160e31b815260040160405180910390fd5b816001600160a01b031663654cf15d6040518163ffffffff1660e01b8152600401602060405180830381865afa15801561220e573d5f5f3e3d5ffd5b505050506040513d601f19601f820116820180604052508101906122329190612dde565b81111561225257604051637f47834b60e01b815260040160405180910390fd5b5f61225c83612752565b90506122718361226c838561277d565b61288f565b826001600160a01b03167f89d41522342fabac1471ca6073a5623e5caf367b03ca6e9a001478d0cf8be4a1836040516122ac91815260200190565b60405180910390a2505050565b5f611c40611ffe826001612dab565b5f670de0b5cad2bef0008211156122f2576040516301d1b96560e61b815260040160405180910390fd5b61230164174876e80083612d39565b9150611d9d826018806123155f6001612dab565b612320906001612dab565b61232b906001612dab565b612336906001612dab565b612341906001612dab565b61234c906001612dab565b612357906001612dab565b612362906001612dab565b61236d906001612dab565b612378906001612dab565b612383906001612dab565b61238e906001612dab565b612399906001612dab565b6123a4906001612dab565b6123af906001612dab565b6123ba906001612dab565b6123c5906001612dab565b6123d0906001612dab565b60ff166123dd9190612d0f565b611d939190612d0f565b5f611c406123f3611950565b836001600160a01b03165f908152600e91909101602052604090205490565b5f611c4061241e611950565b836001600160a01b03165f908152601091909101602052604090205490565b5f611d9d612449611950565b6001600160a01b038086165f908152600f9290920160209081526040808420928716845291905290205490565b5f61043b612482611950565b600c015461010090046001600160a01b031690565b5f61043b6124a3611950565b60020154600160201b900463ffffffff1690565b5f61043b6124c3611950565b600a015490565b5f611d9d826124da836001612d0f565b6001811b19861691901b1790565b80825d5050565b5f611c406124fc83612752565b611f88565b5f611c40602860188080612516866001612dab565b612521906001612dab565b61252c906001612dab565b612537906001612dab565b612542906001612dab565b61254d906001612dab565b612558906001612dab565b612563906001612dab565b61256e906001612dab565b612579906001612dab565b612584906001612dab565b61258f906001612dab565b61259a906001612dab565b6125a5906001612dab565b6125b0906001612dab565b6125bb906001612dab565b6125c6906001612dab565b6125d1906001612dab565b60ff166125de9190612d0f565b6125e89190612d0f565b6125f29190612d0f565b6125fc9190612d0f565b83901c63ffffffff1690565b5f611d9d82612124836001612dab565b5f61043b612624611950565b600d01546001600160a01b031690565b5f6126408484846128ba565b506001901b5f1901811b1992909216911b1790565b5f611d9d83608084901b612d0f565b5f611c4082612940565b805f03612679575050565b5f61268c83612686612959565b9061297d565b90505f6126998383612df5565b9050805f036126b7576126b26126ad612990565b6129b4565b6126ce565b815f036126ce576126ce6126c9612990565b6129ca565b6126e284826126db612959565b91906129d9565b50505050565b5f611d9d826126f8836001612d0f565b6124da906001612d0f565b61270b611974565b15610451576040516336a7e2cd60e21b815260040160405180910390fd5b612732816129f1565b156104c1578060405163d971f59760e01b8152600401610cba9190612ccc565b5f611c4061275e611950565b836001600160a01b03165f908152600391909101602052604090205490565b5f670de0b5cad2bef0008211156127a7576040516301d1b96560e61b815260040160405180910390fd5b6127b664174876e80083612d39565b9150611d9d826127c75f6001612dab565b6127d2906001612dab565b6127dd906001612dab565b6127e8906001612dab565b6127f3906001612dab565b6127fe906001612dab565b612809906001612dab565b612814906001612dab565b61281f906001612dab565b61282a906001612dab565b612835906001612dab565b612840906001612dab565b61284b906001612dab565b612856906001612dab565b612861906001612dab565b61286c906001612dab565b612877906001612dab565b612882906001612dab565b85919060ff166018612634565b61053161289a611950565b6001600160a01b0384165f90815260039190910160205260409020829055565b61010082106128dc57604051632d0483c560e21b815260040160405180910390fd5b6001811015801561290257506128fe60ff6128f984610100612d79565b612a04565b8111155b61291f57604051632d0483c560e21b815260040160405180910390fd5b82811c15611e755760405163e4337c0560e01b815260040160405180910390fd5b5f5f821261294c575090565b612954612a13565b919050565b7ff74f46243717369ff9f20877dfc1ba8491e6be48bfe7acc5b65f5ac68f585c0090565b5f8181526020839052604081205c611d9d565b7fbcbf50c510014a975eac30806436734486f167c41af035c1645353d475d5710090565b6104c16129c36001835c612d79565b82906124e8565b6104c16129c3825c6001612d0f565b5f828152602084905260409020611e75908290611ab1565b5f5f6129fc83612a20565b509392505050565b5f818311828418028318611d9d565b6335278d125f526004601cfd5b5f5f5f612a2c84612752565b90505f612a38826122b9565b90505f612a4483612501565b9050818015612a6a5750612a56612a75565b612a609082612e1c565b63ffffffff164211155b969095509350505050565b5f61043b612a81611950565b60020154600160401b900463ffffffff1690565b6001600160a01b03811681146104c1575f5ffd5b5f60208284031215612ab9575f5ffd5b8135611d9d81612a95565b5f8151808452602084019350602083015f5b82811015612afe5781516001600160e01b031916865260209586019590910190600101612ad6565b5093949350505050565b602081525f611d9d6020830184612ac4565b5f81518084528060208401602086015e5f602082860101526020601f19601f83011685010191505092915050565b602081525f611d9d6020830184612b1a565b5f5f60408385031215612b6b575f5ffd5b8235612b7681612a95565b946020939093013593505050565b5f5f5f5f5f60a08688031215612b98575f5ffd5b8535612ba381612a95565b94506020860135935060408601359250606086013591506080860135612bc881612a95565b809150509295509295909350565b5f8151808452602084019350602083015f5b82811015612afe578151865260209586019590910190600101612be8565b604081525f612c186040830185612bd6565b8281036020840152610de78185612bd6565b5f5f5f5f60808587031215612c3d575f5ffd5b8435612c4881612a95565b966020860135965060408601359560600135945092505050565b606081525f612c746060830186612b1a565b8281036020840152612c868186612ac4565b90508281036040840152612c9a8185612ac4565b9695505050505050565b634e487b7160e01b5f52604160045260245ffd5b634e487b7160e01b5f52603260045260245ffd5b6001600160a01b0391909116815260200190565b5f60208284031215612cf0575f5ffd5b8151611d9d81612a95565b634e487b7160e01b5f52601160045260245ffd5b80820180821115611c4057611c40612cfb565b8082028115828204841417611c4057611c40612cfb565b5f82612d5357634e487b7160e01b5f52601260045260245ffd5b500490565b6001600160a01b039390931683526020830191909152604082015260600190565b81810381811115611c4057611c40612cfb565b5f60208284031215612d9c575f5ffd5b81518015158114611d9d575f5ffd5b60ff8181168382160190811115611c4057611c40612cfb565b5f600160ff1b8201612dd857612dd8612cfb565b505f0390565b5f60208284031215612dee575f5ffd5b5051919050565b8082018281125f831280158216821582161715612e1457612e14612cfb565b505092915050565b63ffffffff8181168382160190811115611c4057611c40612cfb56fec2354cc2f78ea57777e55ddd43a7f22b112ce98868596880edaeb22b4f9c73a99b779b17422d0df92223018b32b4d1fa46e071723d6817e2486d003becc55f00d66f031d33381c6408f0b32c884461e5de3df8808399b6f3a3d86b1368f8ec34a264697066735822122053dd6c19ccd76cc0dd5f13aad40048ae586a29aaec14891a8650aefaa62607ca64736f6c634300081e0033","linkReferences":{}},"methodIdentifiers":{"addLiquidityToBuffer(address,uint256,uint256,uint256,address)":"e2a92b1a","areBuffersPaused()":"55cba7fe","collectAggregateFees(address)":"8f4ab9ca","disableQuery()":"de1a36a6","disableQueryPermanently()":"821440f2","disableRecoveryMode(address)":"bffb78b2","enableQuery()":"e0d55605","enableRecoveryMode(address)":"dc3f574e","facetFuncs()":"574a4cff","facetInterfaces()":"2ea80826","facetMetadata()":"f10d7a75","facetName()":"5b6f4d01","getBufferMinimumTotalSupply()":"26a8a991","getMaximumPoolTokens()":"2e42f4d5","getMinimumPoolTokens()":"a8175b27","getPauseWindowEndTime()":"8a8d123a","getPoolMinimumTotalSupply()":"d0965a6b","getVaultPausedState()":"85c8c015","initializeBuffer(address,uint256,uint256,uint256,address)":"653eb3b0","isQueryDisabled()":"b4aef0ab","isVaultPaused()":"098401f5","pausePool(address)":"55aca1ec","pauseVault()":"9e0879c2","pauseVaultBuffers()":"e085c5a8","removeLiquidityFromBuffer(address,uint256,uint256,uint256)":"ebc7955c","setAuthorizer(address)":"058a628f","setProtocolFeeController(address)":"2d771389","setStaticSwapFeePercentage(address,uint256)":"d15126ba","unpausePool(address)":"f21c38cd","unpauseVault()":"0b7562be","unpauseVaultBuffers()":"b9212b49","updateAggregateSwapFeePercentage(address,uint256)":"5e0b06f4","updateAggregateYieldFeePercentage(address,uint256)":"e253670a"},"id":989}