{"abi":[{"type":"function","name":"eip712Domain","inputs":[],"outputs":[{"name":"fields","type":"bytes1","internalType":"bytes1"},{"name":"name","type":"string","internalType":"string"},{"name":"version","type":"string","internalType":"string"},{"name":"chainId","type":"uint256","internalType":"uint256"},{"name":"verifyingContract","type":"address","internalType":"address"},{"name":"salt","type":"bytes32","internalType":"bytes32"},{"name":"extensions","type":"uint256[]","internalType":"uint256[]"}],"stateMutability":"view"},{"type":"function","name":"facetFuncs","inputs":[],"outputs":[{"name":"funcs","type":"bytes4[]","internalType":"bytes4[]"}],"stateMutability":"pure"},{"type":"function","name":"facetInterfaces","inputs":[],"outputs":[{"name":"interfaces","type":"bytes4[]","internalType":"bytes4[]"}],"stateMutability":"pure"},{"type":"function","name":"facetMetadata","inputs":[],"outputs":[{"name":"name","type":"string","internalType":"string"},{"name":"interfaces","type":"bytes4[]","internalType":"bytes4[]"},{"name":"functions","type":"bytes4[]","internalType":"bytes4[]"}],"stateMutability":"pure"},{"type":"function","name":"facetName","inputs":[],"outputs":[{"name":"name","type":"string","internalType":"string"}],"stateMutability":"pure"},{"type":"event","name":"EIP712DomainChanged","inputs":[],"anonymous":false},{"type":"error","name":"InvalidShortString","inputs":[]}],"bytecode":{"object":"0x6080604052348015600e575f5ffd5b5061057a8061001c5f395ff3fe608060405234801561000f575f5ffd5b5060043610610055575f3560e01c80632ea8082614610059578063574a4cff146100775780635b6f4d011461007f57806384b0196e14610094578063f10d7a75146100af575b5f5ffd5b6100616100c6565b60405161006e91906103c7565b60405180910390f35b61006161011e565b61008761015a565b60405161006e919061040e565b61009c610180565b60405161006e9796959493929190610420565b6100b76101d0565b60405161006e939291906104b6565b604080516001808252818301909252606091602080830190803683370190505090506342580cb760e11b815f81518110610102576101026104f8565b6001600160e01b03199092166020928302919091019091015290565b604080516001808252818301909252606091602080830190803683370190505090506384b0196e60e01b815f81518110610102576101026104f8565b60408051808201909152600c81526b115490cd4c8d8dd19858d95d60a21b602082015290565b5f6060805f5f5f60605f6101926101f8565b905061019d81610249565b6101a682610264565b604080515f80825260208201909252600f60f81b9c939b5091995046985030975095509350915050565b60608060606101dd61015a565b92506101e76100c6565b91506101f161011e565b9050909192565b5f61024460405160200161022b906020808252600b908201526a32b4b81732b4b8171b989960a91b604082015260600190565b6040516020818303038152906040528051906020012090565b905090565b600581015460609061025e9060078401610275565b92915050565b600681015460609061025e90600884015b606060ff831461028f576102888361031f565b905061025e565b81805461029b9061050c565b80601f01602080910402602001604051908101604052809291908181526020018280546102c79061050c565b80156103125780601f106102e957610100808354040283529160200191610312565b820191905f5260205f20905b8154815290600101906020018083116102f557829003601f168201915b5050505050905092915050565b60605f61032b8361035c565b6040805160208082528183019092529192505f91906020820181803683375050509182525060208101929092525090565b5f60ff8216601f81111561025e57604051632cd44ac360e21b815260040160405180910390fd5b5f8151808452602084019350602083015f5b828110156103bd5781516001600160e01b031916865260209586019590910190600101610395565b5093949350505050565b602081525f6103d96020830184610383565b9392505050565b5f81518084528060208401602086015e5f602082860101526020601f19601f83011685010191505092915050565b602081525f6103d960208301846103e0565b60ff60f81b8816815260e060208201525f61043e60e08301896103e0565b828103604084015261045081896103e0565b606084018890526001600160a01b038716608085015260a0840186905283810360c0850152845180825260208087019350909101905f5b818110156104a5578351835260209384019390920191600101610487565b50909b9a5050505050505050505050565b606081525f6104c860608301866103e0565b82810360208401526104da8186610383565b905082810360408401526104ee8185610383565b9695505050505050565b634e487b7160e01b5f52603260045260245ffd5b600181811c9082168061052057607f821691505b60208210810361053e57634e487b7160e01b5f52602260045260245ffd5b5091905056fea2646970667358221220ef2cca53a24367fe79e1c6219072e322d21d1a12bda514bf7c494d3f86c649d964736f6c634300081e0033","linkReferences":{}},"methodIdentifiers":{"eip712Domain()":"84b0196e","facetFuncs()":"574a4cff","facetInterfaces()":"2ea80826","facetMetadata()":"f10d7a75","facetName()":"5b6f4d01"},"id":1391}