{"abi":[{"type":"function","name":"canPerform","inputs":[{"name":"","type":"bytes32","internalType":"bytes32"},{"name":"","type":"address","internalType":"address"},{"name":"","type":"address","internalType":"address"}],"outputs":[{"name":"","type":"bool","internalType":"bool"}],"stateMutability":"pure"}],"bytecode":{"object":"0x6080604052348015600e575f5ffd5b5060d680601a5f395ff3fe6080604052348015600e575f5ffd5b50600436106026575f3560e01c80639be2a88414602a575b5f5ffd5b603e6035366004606c565b60019392505050565b604051901515815260200160405180910390f35b80356001600160a01b03811681146067575f5ffd5b919050565b5f5f5f60608486031215607d575f5ffd5b83359250608b602085016052565b91506097604085016052565b9050925092509256fea264697066735822122020187b0062aa1b498b7adcb5e864b565d13cfbf5ac697c6aa59d650b6ed9d70764736f6c634300081e0033","linkReferences":{}},"methodIdentifiers":{"canPerform(bytes32,address,address)":"9be2a884"},"id":378}