{"abi":[{"type":"function","name":"facetFuncs","inputs":[],"outputs":[{"name":"funcs","type":"bytes4[]","internalType":"bytes4[]"}],"stateMutability":"pure"},{"type":"function","name":"facetInterfaces","inputs":[],"outputs":[{"name":"interfaces","type":"bytes4[]","internalType":"bytes4[]"}],"stateMutability":"pure"},{"type":"function","name":"facetMetadata","inputs":[],"outputs":[{"name":"name","type":"string","internalType":"string"},{"name":"interfaces","type":"bytes4[]","internalType":"bytes4[]"},{"name":"functions","type":"bytes4[]","internalType":"bytes4[]"}],"stateMutability":"pure"},{"type":"function","name":"facetName","inputs":[],"outputs":[{"name":"name","type":"string","internalType":"string"}],"stateMutability":"pure"},{"type":"function","name":"permit2","inputs":[],"outputs":[{"name":"","type":"address","internalType":"contract IPermit2"}],"stateMutability":"view"}],"bytecode":{"object":"0x6080604052348015600e575f5ffd5b5061035c8061001c5f395ff3fe608060405234801561000f575f5ffd5b5060043610610055575f3560e01c806312261ee7146100595780632ea808261461007e578063574a4cff146100935780635b6f4d011461009b578063f10d7a75146100b0575b5f5ffd5b6100616100c7565b6040516001600160a01b0390911681526020015b60405180910390f35b6100866100d5565b6040516100759190610277565b61008661012d565b6100a3610169565b60405161007591906102be565b6100b8610194565b604051610075939291906102d0565b5f6100d06101bc565b905090565b604080516001808252818301909252606091602080830190803683370190505090506312261ee760e01b815f8151811061011157610111610312565b6001600160e01b03199092166020928302919091019091015290565b604080516001808252818301909252606091602080830190803683370190505090506312261ee760e01b815f8151811061011157610111610312565b60408051808201909152601181527014195c9b5a5d0c905dd85c99519858d95d607a1b602082015290565b60608060606101a1610169565b92506101ab6100d5565b91506101b561012d565b9050909192565b5f6100d06101c86101d5565b546001600160a01b031690565b5f6100d060405160200161021a906020808252601d908201527f70726f746f636f6c732e7574696c732e7065726d6974322e6177617265000000604082015260600190565b6040516020818303038152906040528051906020012090565b5f8151808452602084019350602083015f5b8281101561026d5781516001600160e01b031916865260209586019590910190600101610245565b5093949350505050565b602081525f6102896020830184610233565b9392505050565b5f81518084528060208401602086015e5f602082860101526020601f19601f83011685010191505092915050565b602081525f6102896020830184610290565b606081525f6102e26060830186610290565b82810360208401526102f48186610233565b905082810360408401526103088185610233565b9695505050505050565b634e487b7160e01b5f52603260045260245ffdfea2646970667358221220fb75cc0405ccef8c1fe31105553c53c433d305239cf3178c77fba175e3bbae1764736f6c634300081e0033","linkReferences":{}},"methodIdentifiers":{"facetFuncs()":"574a4cff","facetInterfaces()":"2ea80826","facetMetadata()":"f10d7a75","facetName()":"5b6f4d01","permit2()":"12261ee7"},"id":1257}