{"abi":[{"type":"function","name":"clearWordAtPosition","inputs":[{"name":"word","type":"bytes32","internalType":"bytes32"},{"name":"offset","type":"uint256","internalType":"uint256"},{"name":"bitLength","type":"uint256","internalType":"uint256"}],"outputs":[{"name":"","type":"bytes32","internalType":"bytes32"}],"stateMutability":"pure"},{"type":"function","name":"decodeBool","inputs":[{"name":"word","type":"bytes32","internalType":"bytes32"},{"name":"offset","type":"uint256","internalType":"uint256"}],"outputs":[{"name":"result","type":"bool","internalType":"bool"}],"stateMutability":"pure"},{"type":"function","name":"decodeInt","inputs":[{"name":"value","type":"bytes32","internalType":"bytes32"},{"name":"offset","type":"uint256","internalType":"uint256"},{"name":"bitLength","type":"uint256","internalType":"uint256"}],"outputs":[{"name":"","type":"int256","internalType":"int256"}],"stateMutability":"pure"},{"type":"function","name":"decodeUint","inputs":[{"name":"value","type":"bytes32","internalType":"bytes32"},{"name":"offset","type":"uint256","internalType":"uint256"},{"name":"bitLength","type":"uint256","internalType":"uint256"}],"outputs":[{"name":"","type":"uint256","internalType":"uint256"}],"stateMutability":"pure"},{"type":"function","name":"encodeInt","inputs":[{"name":"value","type":"int256","internalType":"int256"},{"name":"offset","type":"uint256","internalType":"uint256"},{"name":"bitLength","type":"uint256","internalType":"uint256"}],"outputs":[{"name":"","type":"bytes32","internalType":"bytes32"}],"stateMutability":"pure"},{"type":"function","name":"encodeUint","inputs":[{"name":"value","type":"uint256","internalType":"uint256"},{"name":"offset","type":"uint256","internalType":"uint256"},{"name":"bitLength","type":"uint256","internalType":"uint256"}],"outputs":[{"name":"","type":"bytes32","internalType":"bytes32"}],"stateMutability":"pure"},{"type":"function","name":"insertBool","inputs":[{"name":"word","type":"bytes32","internalType":"bytes32"},{"name":"value","type":"bool","internalType":"bool"},{"name":"offset","type":"uint256","internalType":"uint256"}],"outputs":[{"name":"result","type":"bytes32","internalType":"bytes32"}],"stateMutability":"pure"},{"type":"function","name":"insertInt","inputs":[{"name":"word","type":"bytes32","internalType":"bytes32"},{"name":"value","type":"int256","internalType":"int256"},{"name":"offset","type":"uint256","internalType":"uint256"},{"name":"bitLength","type":"uint256","internalType":"uint256"}],"outputs":[{"name":"","type":"bytes32","internalType":"bytes32"}],"stateMutability":"pure"},{"type":"function","name":"insertUint","inputs":[{"name":"word","type":"bytes32","internalType":"bytes32"},{"name":"value","type":"uint256","internalType":"uint256"},{"name":"offset","type":"uint256","internalType":"uint256"},{"name":"bitLength","type":"uint256","internalType":"uint256"}],"outputs":[{"name":"","type":"bytes32","internalType":"bytes32"}],"stateMutability":"pure"},{"type":"function","name":"isOtherStateUnchanged","inputs":[{"name":"oldPoolState","type":"bytes32","internalType":"bytes32"},{"name":"newPoolState","type":"bytes32","internalType":"bytes32"},{"name":"offset","type":"uint256","internalType":"uint256"},{"name":"bitLength","type":"uint256","internalType":"uint256"}],"outputs":[{"name":"","type":"bool","internalType":"bool"}],"stateMutability":"pure"},{"type":"error","name":"CodecOverflow","inputs":[]},{"type":"error","name":"OutOfBounds","inputs":[]}],"bytecode":{"object":"0x6080604052348015600e575f5ffd5b506105d48061001c5f395ff3fe608060405234801561000f575f5ffd5b506004361061008c575f3560e01c80631bbdab7f146100905780632393cb9e146100b657806337b1cd81146100c95780634cf60a71146100dc5780634efc6d6f146100ef5780639223250a146101025780639d27645e14610115578063a427ee1e14610138578063ab2d3f471461014b578063e9b6a5631461015e575b5f5ffd5b6100a361009e36600461049f565b610171565b6040519081526020015b60405180910390f35b6100a36100c436600461049f565b610186565b6100a36100d736600461049f565b610192565b6100a36100ea3660046104c8565b61019e565b6100a36100fd36600461049f565b6101b4565b6100a361011036600461049f565b6101c0565b6101286101233660046104f7565b6101cc565b60405190151581526020016100ad565b6100a36101463660046104c8565b6101dd565b6101286101593660046104c8565b6101ea565b6100a361016c366004610517565b6101f7565b5f6001821b5f190184841c165b949350505050565b5f61017e848484610208565b5f61017e84848461024d565b5f6101ab85858585610274565b95945050505050565b5f61017e848484610295565b5f61017e8484846102b3565b5f600183831c165b90505b92915050565b5f6101ab858585856102c5565b5f6101ab858585856102f6565b5f6001821b19841683831b1761017e565b5f8060016102168185610564565b6001901b6102249190610564565b90505f610234600180861b610564565b9590941c85169081119419949094029093179392505050565b5f61025984848461031f565b5f610267600180851b610564565b90941690921b9392505050565b5f6102808484846103fa565b506001901b5f1901811b1992909216911b1790565b5f806102a4600180851b610564565b90931b19939093169392505050565b5f6102bf8484846103fa565b50501b90565b5f6102d184848461031f565b5f6102df600180851b610564565b858116851b90851b19871617915050949350505050565b5f5f610303868585610295565b90505f610311868686610295565b919091149695505050505050565b610100821061034157604051632d0483c560e21b815260040160405180910390fd5b60018110158015610367575061036360ff61035e84610100610564565b61047b565b8111155b61038457604051632d0483c560e21b815260040160405180910390fd5b5f83126103bc57610396600182610564565b83901d156103b75760405163e4337c0560e01b815260040160405180910390fd5b505050565b6103c7600182610564565b6103da6103d5856001610577565b61048a565b901c156103b75760405163e4337c0560e01b815260040160405180910390fd5b610100821061041c57604051632d0483c560e21b815260040160405180910390fd5b6001811015801561043d575061043960ff61035e84610100610564565b8111155b61045a57604051632d0483c560e21b815260040160405180910390fd5b82811c156103b75760405163e4337c0560e01b815260040160405180910390fd5b5f8183118284180283186101d4565b5f5f82121561049b57815f036101d7565b5090565b5f5f5f606084860312156104b1575f5ffd5b505081359360208301359350604090920135919050565b5f5f5f5f608085870312156104db575f5ffd5b5050823594602084013594506040840135936060013592509050565b5f5f60408385031215610508575f5ffd5b50508035926020909101359150565b5f5f5f60608486031215610529575f5ffd5b833592506020840135801515811461053f575f5ffd5b929592945050506040919091013590565b634e487b7160e01b5f52601160045260245ffd5b818103818111156101d7576101d7610550565b8082018281125f83128015821682158216171561059657610596610550565b50509291505056fea2646970667358221220574a908a763f2b7bf6a2ed3456c03c08e0112c65f0e6de63db349dea7a6484a664736f6c634300081e0033","linkReferences":{}},"methodIdentifiers":{"clearWordAtPosition(bytes32,uint256,uint256)":"4efc6d6f","decodeBool(bytes32,uint256)":"9d27645e","decodeInt(bytes32,uint256,uint256)":"2393cb9e","decodeUint(bytes32,uint256,uint256)":"1bbdab7f","encodeInt(int256,uint256,uint256)":"37b1cd81","encodeUint(uint256,uint256,uint256)":"9223250a","insertBool(bytes32,bool,uint256)":"e9b6a563","insertInt(bytes32,int256,uint256,uint256)":"a427ee1e","insertUint(bytes32,uint256,uint256,uint256)":"4cf60a71","isOtherStateUnchanged(bytes32,bytes32,uint256,uint256)":"ab2d3f47"},"id":287}