{"abi":[{"type":"function","name":"ABSTRACT","inputs":[],"outputs":[{"name":"","type":"address","internalType":"contract ChainlogAbstract"}],"stateMutability":"view"},{"type":"function","name":"ADDRESS","inputs":[],"outputs":[{"name":"","type":"address","internalType":"address"}],"stateMutability":"view"}],"bytecode":{"object":"0x6080604052348015600e575f5ffd5b5060a080601a5f395ff3fe6080604052348015600e575f5ffd5b50600436106030575f3560e01c8063a92d49af146034578063b51ce63d146034575b5f5ffd5b604e73da0ab1e0017debcd72be8599041a2aa3ba7e740f81565b6040516001600160a01b03909116815260200160405180910390f3fea2646970667358221220dde368fed5b8270fc07d0c8ad7f908bdc42876744aaab311f68797376a384e2564736f6c634300081e0033","linkReferences":{}},"methodIdentifiers":{"ABSTRACT()":"a92d49af","ADDRESS()":"b51ce63d"},"id":710}