{"abi":[{"type":"constructor","inputs":[{"name":"vault","type":"address","internalType":"contract IVault"},{"name":"defaultMaxSurgeFeePercentage","type":"uint256","internalType":"uint256"},{"name":"defaultSurgeThresholdPercentage","type":"uint256","internalType":"uint256"},{"name":"version","type":"string","internalType":"string"}],"stateMutability":"nonpayable"},{"type":"function","name":"MAX_IMBALANCE_SLOPE","inputs":[],"outputs":[{"name":"","type":"uint128","internalType":"uint128"}],"stateMutability":"view"},{"type":"function","name":"MIN_IMBALANCE_SLOPE","inputs":[],"outputs":[{"name":"","type":"uint128","internalType":"uint128"}],"stateMutability":"view"},{"type":"function","name":"computeImbalance","inputs":[{"name":"balancesScaled18","type":"uint256[]","internalType":"uint256[]"},{"name":"eclpParams","type":"tuple","internalType":"struct IGyroECLPPool.EclpParams","components":[{"name":"alpha","type":"int256","internalType":"int256"},{"name":"beta","type":"int256","internalType":"int256"},{"name":"c","type":"int256","internalType":"int256"},{"name":"s","type":"int256","internalType":"int256"},{"name":"lambda","type":"int256","internalType":"int256"}]},{"name":"a","type":"int256","internalType":"int256"},{"name":"b","type":"int256","internalType":"int256"}],"outputs":[{"name":"imbalance","type":"uint256","internalType":"uint256"}],"stateMutability":"pure"},{"type":"function","name":"computeImbalanceFromBalances","inputs":[{"name":"pool","type":"address","internalType":"address"},{"name":"balancesScaled18","type":"uint256[]","internalType":"uint256[]"},{"name":"imbalanceSlopeData","type":"tuple","internalType":"struct ECLPSurgeHook.ImbalanceSlopeData","components":[{"name":"imbalanceSlopeBelowPeak","type":"uint128","internalType":"uint128"},{"name":"imbalanceSlopeAbovePeak","type":"uint128","internalType":"uint128"}]}],"outputs":[{"name":"imbalance","type":"uint256","internalType":"uint256"}],"stateMutability":"view"},{"type":"function","name":"computeImbalanceFromBalancesAndParams","inputs":[{"name":"balancesScaled18","type":"uint256[]","internalType":"uint256[]"},{"name":"eclpParams","type":"tuple","internalType":"struct IGyroECLPPool.EclpParams","components":[{"name":"alpha","type":"int256","internalType":"int256"},{"name":"beta","type":"int256","internalType":"int256"},{"name":"c","type":"int256","internalType":"int256"},{"name":"s","type":"int256","internalType":"int256"},{"name":"lambda","type":"int256","internalType":"int256"}]},{"name":"derivedECLPParams","type":"tuple","internalType":"struct IGyroECLPPool.DerivedEclpParams","components":[{"name":"tauAlpha","type":"tuple","internalType":"struct IGyroECLPPool.Vector2","components":[{"name":"x","type":"int256","internalType":"int256"},{"name":"y","type":"int256","internalType":"int256"}]},{"name":"tauBeta","type":"tuple","internalType":"struct IGyroECLPPool.Vector2","components":[{"name":"x","type":"int256","internalType":"int256"},{"name":"y","type":"int256","internalType":"int256"}]},{"name":"u","type":"int256","internalType":"int256"},{"name":"v","type":"int256","internalType":"int256"},{"name":"w","type":"int256","internalType":"int256"},{"name":"z","type":"int256","internalType":"int256"},{"name":"dSq","type":"int256","internalType":"int256"}]},{"name":"imbalanceSlopeData","type":"tuple","internalType":"struct ECLPSurgeHook.ImbalanceSlopeData","components":[{"name":"imbalanceSlopeBelowPeak","type":"uint128","internalType":"uint128"},{"name":"imbalanceSlopeAbovePeak","type":"uint128","internalType":"uint128"}]}],"outputs":[{"name":"","type":"uint256","internalType":"uint256"}],"stateMutability":"pure"},{"type":"function","name":"computePriceFromBalances","inputs":[{"name":"balancesScaled18","type":"uint256[]","internalType":"uint256[]"},{"name":"eclpParams","type":"tuple","internalType":"struct IGyroECLPPool.EclpParams","components":[{"name":"alpha","type":"int256","internalType":"int256"},{"name":"beta","type":"int256","internalType":"int256"},{"name":"c","type":"int256","internalType":"int256"},{"name":"s","type":"int256","internalType":"int256"},{"name":"lambda","type":"int256","internalType":"int256"}]},{"name":"derivedECLPParams","type":"tuple","internalType":"struct IGyroECLPPool.DerivedEclpParams","components":[{"name":"tauAlpha","type":"tuple","internalType":"struct IGyroECLPPool.Vector2","components":[{"name":"x","type":"int256","internalType":"int256"},{"name":"y","type":"int256","internalType":"int256"}]},{"name":"tauBeta","type":"tuple","internalType":"struct IGyroECLPPool.Vector2","components":[{"name":"x","type":"int256","internalType":"int256"},{"name":"y","type":"int256","internalType":"int256"}]},{"name":"u","type":"int256","internalType":"int256"},{"name":"v","type":"int256","internalType":"int256"},{"name":"w","type":"int256","internalType":"int256"},{"name":"z","type":"int256","internalType":"int256"},{"name":"dSq","type":"int256","internalType":"int256"}]}],"outputs":[{"name":"","type":"uint256","internalType":"uint256"}],"stateMutability":"pure"},{"type":"function","name":"computeSwap","inputs":[{"name":"request","type":"tuple","internalType":"struct PoolSwapParams","components":[{"name":"kind","type":"uint8","internalType":"enum SwapKind"},{"name":"amountGivenScaled18","type":"uint256","internalType":"uint256"},{"name":"balancesScaled18","type":"uint256[]","internalType":"uint256[]"},{"name":"indexIn","type":"uint256","internalType":"uint256"},{"name":"indexOut","type":"uint256","internalType":"uint256"},{"name":"router","type":"address","internalType":"address"},{"name":"userData","type":"bytes","internalType":"bytes"}]},{"name":"eclpParams","type":"tuple","internalType":"struct IGyroECLPPool.EclpParams","components":[{"name":"alpha","type":"int256","internalType":"int256"},{"name":"beta","type":"int256","internalType":"int256"},{"name":"c","type":"int256","internalType":"int256"},{"name":"s","type":"int256","internalType":"int256"},{"name":"lambda","type":"int256","internalType":"int256"}]},{"name":"derivedECLPParams","type":"tuple","internalType":"struct IGyroECLPPool.DerivedEclpParams","components":[{"name":"tauAlpha","type":"tuple","internalType":"struct IGyroECLPPool.Vector2","components":[{"name":"x","type":"int256","internalType":"int256"},{"name":"y","type":"int256","internalType":"int256"}]},{"name":"tauBeta","type":"tuple","internalType":"struct IGyroECLPPool.Vector2","components":[{"name":"x","type":"int256","internalType":"int256"},{"name":"y","type":"int256","internalType":"int256"}]},{"name":"u","type":"int256","internalType":"int256"},{"name":"v","type":"int256","internalType":"int256"},{"name":"w","type":"int256","internalType":"int256"},{"name":"z","type":"int256","internalType":"int256"},{"name":"dSq","type":"int256","internalType":"int256"}]}],"outputs":[{"name":"amountCalculatedScaled18","type":"uint256","internalType":"uint256"},{"name":"a","type":"int256","internalType":"int256"},{"name":"b","type":"int256","internalType":"int256"}],"stateMutability":"pure"},{"type":"function","name":"computeSwapSurgeFeePercentage","inputs":[{"name":"params","type":"tuple","internalType":"struct PoolSwapParams","components":[{"name":"kind","type":"uint8","internalType":"enum SwapKind"},{"name":"amountGivenScaled18","type":"uint256","internalType":"uint256"},{"name":"balancesScaled18","type":"uint256[]","internalType":"uint256[]"},{"name":"indexIn","type":"uint256","internalType":"uint256"},{"name":"indexOut","type":"uint256","internalType":"uint256"},{"name":"router","type":"address","internalType":"address"},{"name":"userData","type":"bytes","internalType":"bytes"}]},{"name":"pool","type":"address","internalType":"address"},{"name":"staticSwapFeePercentage","type":"uint256","internalType":"uint256"}],"outputs":[{"name":"surgeFeePercentage","type":"uint256","internalType":"uint256"}],"stateMutability":"view"},{"type":"function","name":"getActionId","inputs":[{"name":"selector","type":"bytes4","internalType":"bytes4"}],"outputs":[{"name":"","type":"bytes32","internalType":"bytes32"}],"stateMutability":"view"},{"type":"function","name":"getAuthorizer","inputs":[],"outputs":[{"name":"","type":"address","internalType":"contract IAuthorizer"}],"stateMutability":"view"},{"type":"function","name":"getDefaultMaxSurgeFeePercentage","inputs":[],"outputs":[{"name":"","type":"uint256","internalType":"uint256"}],"stateMutability":"view"},{"type":"function","name":"getDefaultSurgeThresholdPercentage","inputs":[],"outputs":[{"name":"","type":"uint256","internalType":"uint256"}],"stateMutability":"view"},{"type":"function","name":"getHookFlags","inputs":[],"outputs":[{"name":"hookFlags","type":"tuple","internalType":"struct HookFlags","components":[{"name":"enableHookAdjustedAmounts","type":"bool","internalType":"bool"},{"name":"shouldCallBeforeInitialize","type":"bool","internalType":"bool"},{"name":"shouldCallAfterInitialize","type":"bool","internalType":"bool"},{"name":"shouldCallComputeDynamicSwapFee","type":"bool","internalType":"bool"},{"name":"shouldCallBeforeSwap","type":"bool","internalType":"bool"},{"name":"shouldCallAfterSwap","type":"bool","internalType":"bool"},{"name":"shouldCallBeforeAddLiquidity","type":"bool","internalType":"bool"},{"name":"shouldCallAfterAddLiquidity","type":"bool","internalType":"bool"},{"name":"shouldCallBeforeRemoveLiquidity","type":"bool","internalType":"bool"},{"name":"shouldCallAfterRemoveLiquidity","type":"bool","internalType":"bool"}]}],"stateMutability":"pure"},{"type":"function","name":"getImbalanceSlopes","inputs":[{"name":"pool","type":"address","internalType":"address"}],"outputs":[{"name":"","type":"uint256","internalType":"uint256"},{"name":"","type":"uint256","internalType":"uint256"}],"stateMutability":"view"},{"type":"function","name":"getMaxSurgeFeePercentage","inputs":[{"name":"pool","type":"address","internalType":"address"}],"outputs":[{"name":"","type":"uint256","internalType":"uint256"}],"stateMutability":"view"},{"type":"function","name":"getSurgeFeeData","inputs":[{"name":"pool","type":"address","internalType":"address"}],"outputs":[{"name":"","type":"tuple","internalType":"struct ISurgeHookCommon.SurgeFeeData","components":[{"name":"thresholdPercentage","type":"uint64","internalType":"uint64"},{"name":"maxSurgeFeePercentage","type":"uint64","internalType":"uint64"}]}],"stateMutability":"view"},{"type":"function","name":"getSurgeThresholdPercentage","inputs":[{"name":"pool","type":"address","internalType":"address"}],"outputs":[{"name":"","type":"uint256","internalType":"uint256"}],"stateMutability":"view"},{"type":"function","name":"getVault","inputs":[],"outputs":[{"name":"","type":"address","internalType":"contract IVault"}],"stateMutability":"view"},{"type":"function","name":"isSurging","inputs":[{"name":"thresholdPercentage","type":"uint64","internalType":"uint64"},{"name":"oldTotalImbalance","type":"uint256","internalType":"uint256"},{"name":"newTotalImbalance","type":"uint256","internalType":"uint256"}],"outputs":[{"name":"","type":"bool","internalType":"bool"}],"stateMutability":"pure"},{"type":"function","name":"isSurgingSwap","inputs":[{"name":"params","type":"tuple","internalType":"struct PoolSwapParams","components":[{"name":"kind","type":"uint8","internalType":"enum SwapKind"},{"name":"amountGivenScaled18","type":"uint256","internalType":"uint256"},{"name":"balancesScaled18","type":"uint256[]","internalType":"uint256[]"},{"name":"indexIn","type":"uint256","internalType":"uint256"},{"name":"indexOut","type":"uint256","internalType":"uint256"},{"name":"router","type":"address","internalType":"address"},{"name":"userData","type":"bytes","internalType":"bytes"}]},{"name":"pool","type":"address","internalType":"address"},{"name":"staticSwapFeePercentage","type":"uint256","internalType":"uint256"}],"outputs":[{"name":"isSurging","type":"bool","internalType":"bool"}],"stateMutability":"view"},{"type":"function","name":"manualSetSurgeMaxFeePercentage","inputs":[{"name":"pool","type":"address","internalType":"address"},{"name":"newMaxSurgeFeePercentage","type":"uint256","internalType":"uint256"}],"outputs":[],"stateMutability":"nonpayable"},{"type":"function","name":"onAfterAddLiquidity","inputs":[{"name":"","type":"address","internalType":"address"},{"name":"pool","type":"address","internalType":"address"},{"name":"kind","type":"uint8","internalType":"enum AddLiquidityKind"},{"name":"amountsInScaled18","type":"uint256[]","internalType":"uint256[]"},{"name":"amountsInRaw","type":"uint256[]","internalType":"uint256[]"},{"name":"","type":"uint256","internalType":"uint256"},{"name":"balancesScaled18","type":"uint256[]","internalType":"uint256[]"},{"name":"","type":"bytes","internalType":"bytes"}],"outputs":[{"name":"success","type":"bool","internalType":"bool"},{"name":"hookAdjustedAmountsInRaw","type":"uint256[]","internalType":"uint256[]"}],"stateMutability":"view"},{"type":"function","name":"onAfterInitialize","inputs":[{"name":"","type":"uint256[]","internalType":"uint256[]"},{"name":"","type":"uint256","internalType":"uint256"},{"name":"","type":"bytes","internalType":"bytes"}],"outputs":[{"name":"","type":"bool","internalType":"bool"}],"stateMutability":"nonpayable"},{"type":"function","name":"onAfterRemoveLiquidity","inputs":[{"name":"","type":"address","internalType":"address"},{"name":"pool","type":"address","internalType":"address"},{"name":"kind","type":"uint8","internalType":"enum RemoveLiquidityKind"},{"name":"","type":"uint256","internalType":"uint256"},{"name":"amountsOutScaled18","type":"uint256[]","internalType":"uint256[]"},{"name":"amountsOutRaw","type":"uint256[]","internalType":"uint256[]"},{"name":"balancesScaled18","type":"uint256[]","internalType":"uint256[]"},{"name":"","type":"bytes","internalType":"bytes"}],"outputs":[{"name":"success","type":"bool","internalType":"bool"},{"name":"hookAdjustedAmountsOutRaw","type":"uint256[]","internalType":"uint256[]"}],"stateMutability":"view"},{"type":"function","name":"onAfterSwap","inputs":[{"name":"","type":"tuple","internalType":"struct AfterSwapParams","components":[{"name":"kind","type":"uint8","internalType":"enum SwapKind"},{"name":"tokenIn","type":"address","internalType":"contract IERC20"},{"name":"tokenOut","type":"address","internalType":"contract IERC20"},{"name":"amountInScaled18","type":"uint256","internalType":"uint256"},{"name":"amountOutScaled18","type":"uint256","internalType":"uint256"},{"name":"tokenInBalanceScaled18","type":"uint256","internalType":"uint256"},{"name":"tokenOutBalanceScaled18","type":"uint256","internalType":"uint256"},{"name":"amountCalculatedScaled18","type":"uint256","internalType":"uint256"},{"name":"amountCalculatedRaw","type":"uint256","internalType":"uint256"},{"name":"router","type":"address","internalType":"address"},{"name":"pool","type":"address","internalType":"address"},{"name":"userData","type":"bytes","internalType":"bytes"}]}],"outputs":[{"name":"","type":"bool","internalType":"bool"},{"name":"","type":"uint256","internalType":"uint256"}],"stateMutability":"nonpayable"},{"type":"function","name":"onBeforeAddLiquidity","inputs":[{"name":"","type":"address","internalType":"address"},{"name":"","type":"address","internalType":"address"},{"name":"","type":"uint8","internalType":"enum AddLiquidityKind"},{"name":"","type":"uint256[]","internalType":"uint256[]"},{"name":"","type":"uint256","internalType":"uint256"},{"name":"","type":"uint256[]","internalType":"uint256[]"},{"name":"","type":"bytes","internalType":"bytes"}],"outputs":[{"name":"","type":"bool","internalType":"bool"}],"stateMutability":"nonpayable"},{"type":"function","name":"onBeforeInitialize","inputs":[{"name":"","type":"uint256[]","internalType":"uint256[]"},{"name":"","type":"bytes","internalType":"bytes"}],"outputs":[{"name":"","type":"bool","internalType":"bool"}],"stateMutability":"nonpayable"},{"type":"function","name":"onBeforeRemoveLiquidity","inputs":[{"name":"","type":"address","internalType":"address"},{"name":"","type":"address","internalType":"address"},{"name":"","type":"uint8","internalType":"enum RemoveLiquidityKind"},{"name":"","type":"uint256","internalType":"uint256"},{"name":"","type":"uint256[]","internalType":"uint256[]"},{"name":"","type":"uint256[]","internalType":"uint256[]"},{"name":"","type":"bytes","internalType":"bytes"}],"outputs":[{"name":"","type":"bool","internalType":"bool"}],"stateMutability":"nonpayable"},{"type":"function","name":"onBeforeSwap","inputs":[{"name":"","type":"tuple","internalType":"struct PoolSwapParams","components":[{"name":"kind","type":"uint8","internalType":"enum SwapKind"},{"name":"amountGivenScaled18","type":"uint256","internalType":"uint256"},{"name":"balancesScaled18","type":"uint256[]","internalType":"uint256[]"},{"name":"indexIn","type":"uint256","internalType":"uint256"},{"name":"indexOut","type":"uint256","internalType":"uint256"},{"name":"router","type":"address","internalType":"address"},{"name":"userData","type":"bytes","internalType":"bytes"}]},{"name":"","type":"address","internalType":"address"}],"outputs":[{"name":"","type":"bool","internalType":"bool"}],"stateMutability":"nonpayable"},{"type":"function","name":"onComputeDynamicSwapFeePercentage","inputs":[{"name":"params","type":"tuple","internalType":"struct PoolSwapParams","components":[{"name":"kind","type":"uint8","internalType":"enum SwapKind"},{"name":"amountGivenScaled18","type":"uint256","internalType":"uint256"},{"name":"balancesScaled18","type":"uint256[]","internalType":"uint256[]"},{"name":"indexIn","type":"uint256","internalType":"uint256"},{"name":"indexOut","type":"uint256","internalType":"uint256"},{"name":"router","type":"address","internalType":"address"},{"name":"userData","type":"bytes","internalType":"bytes"}]},{"name":"pool","type":"address","internalType":"address"},{"name":"staticSwapFeePercentage","type":"uint256","internalType":"uint256"}],"outputs":[{"name":"","type":"bool","internalType":"bool"},{"name":"","type":"uint256","internalType":"uint256"}],"stateMutability":"view"},{"type":"function","name":"onRegister","inputs":[{"name":"factory","type":"address","internalType":"address"},{"name":"pool","type":"address","internalType":"address"},{"name":"tokenConfig","type":"tuple[]","internalType":"struct TokenConfig[]","components":[{"name":"token","type":"address","internalType":"contract IERC20"},{"name":"tokenType","type":"uint8","internalType":"enum TokenType"},{"name":"rateProvider","type":"address","internalType":"contract IRateProvider"},{"name":"paysYieldFees","type":"bool","internalType":"bool"}]},{"name":"liquidityManagement","type":"tuple","internalType":"struct LiquidityManagement","components":[{"name":"disableUnbalancedLiquidity","type":"bool","internalType":"bool"},{"name":"enableAddLiquidityCustom","type":"bool","internalType":"bool"},{"name":"enableRemoveLiquidityCustom","type":"bool","internalType":"bool"},{"name":"enableDonation","type":"bool","internalType":"bool"}]}],"outputs":[{"name":"success","type":"bool","internalType":"bool"}],"stateMutability":"nonpayable"},{"type":"function","name":"setImbalanceSlopeAbovePeak","inputs":[{"name":"pool","type":"address","internalType":"address"},{"name":"newImbalanceSlopeAbovePeak","type":"uint256","internalType":"uint256"}],"outputs":[],"stateMutability":"nonpayable"},{"type":"function","name":"setImbalanceSlopeBelowPeak","inputs":[{"name":"pool","type":"address","internalType":"address"},{"name":"newImbalanceSlopeBelowPeak","type":"uint256","internalType":"uint256"}],"outputs":[],"stateMutability":"nonpayable"},{"type":"function","name":"setMaxSurgeFeePercentage","inputs":[{"name":"pool","type":"address","internalType":"address"},{"name":"newMaxSurgeSurgeFeePercentage","type":"uint256","internalType":"uint256"}],"outputs":[],"stateMutability":"nonpayable"},{"type":"function","name":"setSurgeThresholdPercentage","inputs":[{"name":"pool","type":"address","internalType":"address"},{"name":"newSurgeThresholdPercentage","type":"uint256","internalType":"uint256"}],"outputs":[],"stateMutability":"nonpayable"},{"type":"function","name":"version","inputs":[],"outputs":[{"name":"","type":"string","internalType":"string"}],"stateMutability":"view"},{"type":"event","name":"ECLPSurgeHookRegistered","inputs":[{"name":"pool","type":"address","indexed":true,"internalType":"address"},{"name":"factory","type":"address","indexed":true,"internalType":"address"}],"anonymous":false},{"type":"event","name":"ImbalanceSlopeAbovePeakChanged","inputs":[{"name":"pool","type":"address","indexed":true,"internalType":"address"},{"name":"newImbalanceSlopeAbovePeak","type":"uint128","indexed":false,"internalType":"uint128"}],"anonymous":false},{"type":"event","name":"ImbalanceSlopeBelowPeakChanged","inputs":[{"name":"pool","type":"address","indexed":true,"internalType":"address"},{"name":"newImbalanceSlopeBelowPeak","type":"uint128","indexed":false,"internalType":"uint128"}],"anonymous":false},{"type":"event","name":"MaxSurgeFeePercentageChanged","inputs":[{"name":"pool","type":"address","indexed":true,"internalType":"address"},{"name":"newMaxSurgeFeePercentage","type":"uint256","indexed":false,"internalType":"uint256"}],"anonymous":false},{"type":"event","name":"ThresholdSurgePercentageChanged","inputs":[{"name":"pool","type":"address","indexed":true,"internalType":"address"},{"name":"newSurgeThresholdPercentage","type":"uint256","indexed":false,"internalType":"uint256"}],"anonymous":false},{"type":"error","name":"AssetBoundsExceeded","inputs":[]},{"type":"error","name":"DivInterval","inputs":[]},{"type":"error","name":"InputLengthMismatch","inputs":[]},{"type":"error","name":"InvalidImbalanceSlope","inputs":[]},{"type":"error","name":"InvalidPercentage","inputs":[]},{"type":"error","name":"InvalidRotationAngle","inputs":[]},{"type":"error","name":"MaxAssetsExceeded","inputs":[]},{"type":"error","name":"MaxInvariantExceeded","inputs":[]},{"type":"error","name":"MulOverflow","inputs":[]},{"type":"error","name":"SenderIsNotVault","inputs":[{"name":"sender","type":"address","internalType":"address"}]},{"type":"error","name":"SenderNotAllowed","inputs":[]},{"type":"error","name":"VaultNotSet","inputs":[]},{"type":"error","name":"ZeroDivision","inputs":[]}],"bytecode":{"object":"0x610120604052348015610010575f5ffd5b5060405161517738038061517783398101604081905261002f9161010a565b6001600160a01b03841660808190523060a08190528591859185918591859185918591859182918691829161007757604051630647140b60e51b815260040160405180910390fd5b506001600160a01b031660c0525061008e816100bb565b50610098836100ca565b6100a1826100ca565b5060e091909152610100525061032a975050505050505050565b5f6100c68282610270565b5050565b670de0b6b3a76400008111156100f357604051631f3b85d360e01b815260040160405180910390fd5b50565b634e487b7160e01b5f52604160045260245ffd5b5f5f5f5f6080858703121561011d575f5ffd5b84516001600160a01b0381168114610133575f5ffd5b60208601516040870151606088015192965090945092506001600160401b0381111561015d575f5ffd5b8501601f8101871361016d575f5ffd5b80516001600160401b03811115610186576101866100f6565b604051601f8201601f19908116603f011681016001600160401b03811182821017156101b4576101b46100f6565b6040528181528282016020018910156101cb575f5ffd5b8160208401602083015e5f6020838301015280935050505092959194509250565b600181811c9082168061020057607f821691505b60208210810361021e57634e487b7160e01b5f52602260045260245ffd5b50919050565b601f82111561026b57805f5260205f20601f840160051c810160208510156102495750805b601f840160051c820191505b81811015610268575f8155600101610255565b50505b505050565b81516001600160401b03811115610289576102896100f6565b61029d8161029784546101ec565b84610224565b6020601f8211600181146102cf575f83156102b85750848201515b5f19600385901b1c1916600184901b178455610268565b5f84815260208120601f198516915b828110156102fe57878501518255602094850194600190920191016102de565b508482101561031b57868401515f19600387901b60f8161c191681555b50505050600190811b01905550565b60805160a05160c05160e05161010051614ddf6103985f395f81816103b301526110ca01525f818161047101526110a001525f818161076d015281816109aa01528181610ba001528181610c4701528181610d500152611c6001525f610ced01525f6110460152614ddf5ff3fe608060405234801561000f575f5ffd5b50600436106101aa575f3560e01c80630b89f182146101ae57806318b6eb55146101d65780631a4a64be146102025780631c149e28146102485780631fcb3b551461025b5780632754888d146102705780632a3ceff41461029157806338be241d146102a45780633a61bdea146102b757806345421ec7146102ca5780634e493cfd146102e45780634eeb5d08146102f75780635211fa771461030a57806354fd4d501461031857806357c47f901461032d57806359f004661461035b5780636073d3441461036e578063851c1bb314610381578063872aabd5146103945780638bc694ad146103b15780638d928af8146103d75780639408460d146103ec57806394920c94146103ff578063976907cc14610412578063a0e8f5ac14610425578063a9f0708114610438578063aaabadc51461044b578063ba5f9f4014610453578063bcf5a6c314610461578063c17ef2cc1461046f578063c88511a214610495578063d77153a7146104a8578063e238160214610501578063ee488f2614610532578063f253345f146105bb578063f32fdc7c14610622575b5f5ffd5b6101c16101bc366004613d7d565b610635565b60405190151581526020015b60405180910390f35b6101eb6101e4366004613ea8565b505f908190565b6040805192151583526020830191909152016101cd565b61023a610210366004613edf565b6001600160a01b03165f90815260016020526040902054600160401b90046001600160401b031690565b6040519081526020016101cd565b6101c1610256366004613fc0565b610761565b61026e610269366004614023565b610769565b005b61028361027e36600461405b565b610816565b6040516101cd92919061414a565b61023a61029f3660046142df565b610913565b6101c16102b2366004614343565b61093d565b6101c16102c53660046143be565b610946565b6101c16102d8366004614421565b5f979650505050505050565b61026e6102f2366004614023565b61099c565b61023a6103053660046144e8565b610a54565b6101c1610256366004614544565b610320610ae6565b6040516101cd9190614592565b61034061033b366004614675565b610b75565b604080519384526020840192909252908201526060016101cd565b61026e610369366004614023565b610b92565b61026e61037c366004614023565b610c43565b61023a61038f3660046146c8565b610cea565b6103a468056bc75e2d6310000081565b6040516101cd91906146ef565b7f000000000000000000000000000000000000000000000000000000000000000061023a565b6103df610d4e565b6040516101cd9190614703565b61023a6103fa366004614717565b610d77565b61023a61040d36600461474b565b610d9f565b6102836104203660046147a5565b610dc9565b6101eb6104333660046143be565b610ec3565b61026e610446366004614023565b610ede565b6103df610eec565b6101c16102d8366004614851565b6103a4662386f26fc1000081565b7f000000000000000000000000000000000000000000000000000000000000000061023a565b61023a6104a33660046143be565b610f54565b60408051610140810182525f808252602082018190528183018190526080820181905260a0820181905260c0820181905261010082015260016060820181905260e0820181905261012082015290516101cd91906148d6565b61023a61050f366004613edf565b6001600160a01b03165f908152600160205260409020546001600160401b031690565b610594610540366004613edf565b604080518082019091525f8082526020820152506001600160a01b03165f908152600160209081526040918290208251808401909352546001600160401b038082168452600160401b909104169082015290565b6040805182516001600160401b0390811682526020938401511692810192909252016101cd565b61060d6105c9366004613edf565b6001600160a01b03165f908152600260209081526040918290208251808401909352546001600160801b03808216808552600160801b909204169290910182905291565b604080519283526020830191909152016101cd565b6101c161063036600461499f565b611027565b5f61063e61103b565b5f846001600160a01b0316637be219a26040518163ffffffff1660e01b81526004016101c060405180830381865afa15801561067c573d5f5f3e3d5ffd5b505050506040513d601f19601f820116820180604052508101906106a09190614a0b565b5090506706f05b59d3b20000816060015112806106c857506706f05b59d3b200008160400151125b156106e657604051634988ec1560e01b815260040160405180910390fd5b6106f286868686611091565b915061070685670de0b6b3a76400006110f9565b61071885670de0b6b3a764000061117d565b856001600160a01b0316856001600160a01b03167f2240922c3e668d008789313de57a4bc99efe8593cc329b9b787d908f6df2fa0160405160405180910390a350949350505050565b5f5b92915050565b815f7f00000000000000000000000000000000000000000000000000000000000000006001600160a01b031663e9ddeb26836040518263ffffffff1660e01b81526004016107b79190614703565b606060405180830381865afa1580156107d2573d5f5f3e3d5ffd5b505050506040513d601f19601f820116820180604052508101906107f69190614adc565b60200151905061080682826111f3565b610810848461117d565b50505050565b5f60608188600381111561082c5761082c614b4d565b0361083c57506001905083610906565b5f84516001600160401b0381111561085657610856613c4f565b60405190808252806020026020018201604052801561087f578160200160208202803683370190505b5090505f5b85518110156108f05787818151811061089f5761089f614b61565b60200260200101518682815181106108b9576108b9614b61565b60200260200101516108cb9190614b89565b8282815181106108dd576108dd614b61565b6020908102919091010152600101610884565b505f6108fd8b8388611269565b15935086925050505b9850989650505050505050565b5f5f5f61092187878761139e565b91509150610932878784848861140a565b979650505050505050565b5f5b9392505050565b6001600160a01b0382165f9081526001602090815260408083208151808301909252546001600160401b038082168352600160401b90910416918101919091526109928585858461151e565b5095945050505050565b806109a68161185e565b825f7f00000000000000000000000000000000000000000000000000000000000000006001600160a01b031663e9ddeb26836040518263ffffffff1660e01b81526004016109f49190614703565b606060405180830381865afa158015610a0f573d5f5f3e3d5ffd5b505050506040513d601f19601f82011682018060405250810190610a339190614adc565b602001519050610a4382826111f3565b610a4d858561188a565b5050505050565b5f5f5f856001600160a01b0316637be219a26040518163ffffffff1660e01b81526004016101c060405180830381865afa158015610a94573d5f5f3e3d5ffd5b505050506040513d601f19601f82011682018060405250810190610ab89190614a0b565b915091505f5f610ac987858561139e565b91509150610ada878584848a61140a565b98975050505050505050565b60605f8054610af490614b9c565b80601f0160208091040260200160405190810160405280929190818152602001828054610b2090614b9c565b8015610b6b5780601f10610b4257610100808354040283529160200191610b6b565b820191905f5260205f20905b815481529060010190602001808311610b4e57829003601f168201915b5050505050905090565b5f5f5f610b83868686611913565b92509250925093509350939050565b80610b9c8161185e565b825f7f00000000000000000000000000000000000000000000000000000000000000006001600160a01b031663e9ddeb26836040518263ffffffff1660e01b8152600401610bea9190614703565b606060405180830381865afa158015610c05573d5f5f3e3d5ffd5b505050506040513d601f19601f82011682018060405250810190610c299190614adc565b602001519050610c3982826111f3565b610a4d85856119ce565b815f7f00000000000000000000000000000000000000000000000000000000000000006001600160a01b031663e9ddeb26836040518263ffffffff1660e01b8152600401610c919190614703565b606060405180830381865afa158015610cac573d5f5f3e3d5ffd5b505050506040513d601f19601f82011682018060405250810190610cd09190614adc565b602001519050610ce082826111f3565b61081084846110f9565b5f7f000000000000000000000000000000000000000000000000000000000000000082604051602001610d319291909182526001600160e01b031916602082015260240190565b604051602081830303815290604052805190602001209050919050565b7f000000000000000000000000000000000000000000000000000000000000000090565b905090565b5f5f5f610d8586868661139e565b91509150610d9586868484611a3f565b9695505050505050565b60408051808201909152670de0b6b3a764000080825260208201525f90610d95868686868561140a565b5f606081886004811115610ddf57610ddf614b4d565b03610def57506001905084610906565b5f84516001600160401b03811115610e0957610e09613c4f565b604051908082528060200260200182016040528015610e32578160200160208202803683370190505b5090505f5b8551811015610ea357888181518110610e5257610e52614b61565b6020026020010151868281518110610e6c57610e6c614b61565b6020026020010151610e7e9190614bce565b828281518110610e9057610e90614b61565b6020908102919091010152600101610e37565b505f610eb08b8388611269565b159c979b50969950505050505050505050565b5f5f6001610ed2868686610f54565b91509150935093915050565b610ee8828261188a565b5050565b5f610ef5610d4e565b6001600160a01b031663aaabadc56040518163ffffffff1660e01b8152600401602060405180830381865afa158015610f30573d5f5f3e3d5ffd5b505050506040513d601f19601f82011682018060405250810190610d729190614be1565b6001600160a01b0382165f9081526001602090815260408083208151808301909252546001600160401b038082168352600160401b90910416918101919091528180610fa28787878661151e565b91509150811561101957825161100890610fe9906001600160401b0316670de0b6b3a76400008181039110028551610fe3906001600160401b031685614bce565b90611bab565b8685602001516001600160401b03166110029190614bce565b90611bcb565b6110129086614b89565b935061101d565b8493505b5050509392505050565b5f611033848484611beb565b949350505050565b336001600160a01b037f0000000000000000000000000000000000000000000000000000000000000000161461108f573360405163089676d560e01b81526004016110869190614703565b60405180910390fd5b565b5f61109a61103b565b6110c4847f000000000000000000000000000000000000000000000000000000000000000061188a565b6110ee847f00000000000000000000000000000000000000000000000000000000000000006119ce565b506001949350505050565b61110281611c18565b5f61110c82611c53565b6001600160a01b0384165f818152600260205260409081902080546001600160801b0319166001600160801b03851617905551919250907fd30dbf6837456f1a37dae88165ddc54d6d55a21a3beeeac374f1cea2b0844860906111709084906146ef565b60405180910390a2505050565b61118681611c18565b5f61119082611c53565b6001600160a01b0384165f818152600260205260409081902080546001600160801b03808616600160801b02911617905551919250907f36ce2b1370e60ee748c7c060518fde097600a382a243bbfe2f7a168be6b6a729906111709084906146ef565b6001600160a01b0381166112405761121f6112185f356001600160e01b031916610cea565b3384611c5d565b15155f03610ee8576040516323dada5360e01b815260040160405180910390fd5b336001600160a01b03821614610ee8576040516323dada5360e01b815260040160405180910390fd5b6001600160a01b0383165f8181526001602090815260408083208151808301835290546001600160401b038082168352600160401b9091041681840152848452600283528184208251808401845290546001600160801b038082168352600160801b90910416938101939093528151633df10cd160e11b81529151939490938592839291637be219a2916004808201926101c0929091908290030181865afa158015611317573d5f5f3e3d5ffd5b505050506040513d601f19601f8201168201806040525081019061133b9190614a0b565b915091505f5f5f5f61134e8b878761139e565b9150915061135f8b8784848b61140a565b935061136c8a878761139e565b909250905061137e8a8784848b61140a565b925061138e885f01518585611beb565b9c9b505050505050505050505050565b5f5f6113a8613bf2565b5f5f6113b5888888611d57565b9150915060405180604001604052808260026113d19190614bfc565b6113db9085614c2b565b815260200183905292506113f0878785611fcf565b94506113fd878785612092565b9350505050935093915050565b5f5f61141887878787611a3f565b90505f61143e6114398860400151896060015161212c90919063ffffffff16565b6121ab565b905061144a81886121b5565b905080820361145d575f92505050611515565b808210156114aa578651611470906121ab565b61147a9082614bce565b84516001600160801b031661148f8484614bce565b6114999190614c52565b6114a39190614c7d565b92506114f1565b806114b888602001516121ab565b6114c29190614bce565b60208501516001600160801b03166114da8385614bce565b6114e49190614c52565b6114ee9190614c7d565b92505b670de0b6b3a764000083116115065782611510565b670de0b6b3a76400005b925050505b95945050505050565b5f5f8383602001516001600160401b0316101561153f57505f905080611855565b5f5f866001600160a01b0316637be219a26040518163ffffffff1660e01b81526004016101c060405180830381865afa15801561157e573d5f5f3e3d5ffd5b505050506040513d601f19601f820116820180604052508101906115a29190614a0b565b915091505f5f5f6115bd8b6115b690614c90565b8686611913565b919450925090505f6115d260408d018d614c9b565b90506001600160401b038111156115eb576115eb613c4f565b604051908082528060200260200182016040528015611614578160200160208202803683370190505b50905061165f61162760408e018e614c9b565b808060200260200160405190810160405280939291908181526020018383602002808284375f92019190915250859250612203915050565b5f61166d60208e018e614ce7565b600181111561167e5761167e614b4d565b036116eb578b60200135818d606001358151811061169e5761169e614b61565b602002602001018181516116b29190614b89565b90525080518490829060808f01359081106116cf576116cf614b61565b602002602001018181516116e39190614bce565b90525061174f565b83818d606001358151811061170257611702614b61565b602002602001018181516117169190614b89565b905250805160208d013590829060808f013590811061173757611737614b61565b6020026020010181815161174b9190614bce565b9052505b5f60025f8d6001600160a01b03166001600160a01b031681526020019081526020015f206040518060400160405290815f82015f9054906101000a90046001600160801b03166001600160801b03166001600160801b031681526020015f820160109054906101000a90046001600160801b03166001600160801b03166001600160801b03168152505090505f61182b8e80604001906117ef9190614c9b565b808060200260200160405190810160405280939291908181526020018383602002808284375f920191909152508c92508991508890508661140a565b905061183a838987878661140a565b985061184a8b5f0151828b611beb565b995050505050505050505b94509492505050565b670de0b6b3a764000081111561188757604051631f3b85d360e01b815260040160405180910390fd5b50565b61189381612224565b6001600160a01b0383165f818152600160205260409081902080546001600160401b0394909416600160401b02600160401b600160801b03199094169390931790925590517fcc7585f1dd40a0def67658a884745a1eca326ed902fe084d36e9e04084212032906119079084815260200190565b60405180910390a25050565b60608301515f908190819015611927613bf2565b5f5f6119388a604001518a8a611d57565b9150915060405180604001604052808260026119549190614bfc565b61195e9085614c2b565b815260200183905292505f8a51600181111561197c5761197c614b4d565b036119a3576119978a604001518b60200151868c8c8861222e565b919850965094506119c1565b6119b98a604001518b60200151868c8c886122ee565b919850965094505b5050505093509350939050565b6119d781612224565b6001600160a01b0383165f8181526001602090815260409182902080546001600160401b0319166001600160401b0395909516949094179093555183815290917f3b64afdb883fd4fa590572fb2db0b4d199d8ffb9703f5d32f4d87d1d468c026c9101611907565b5f5f83865f81518110611a5457611a54614b61565b6020026020010151611a669190614d02565b90505f8387600181518110611a7d57611a7d614b61565b6020026020010151611a8f9190614d02565b90505f8660800151876060015183611aa79190614bfc565b6040890151611ab69086614bfc565b611ac09190614d02565b611aca9190614d21565b90505f670de0b6b3a7640000886040015184611ae69190614bfc565b60608a0151611af59087614bfc565b611aff9190614c2b565b611b099190614d21565b90505f8860800151896040015184611b219190614bfc565b611b2b9190614d21565b60608a0151611b3b9084906123d8565b611b459190614c2b565b90505f89608001518a6060015185611b5d9190614bfc565b611b679190614d21565b60408b0151611b779085906123d8565b611b819190614d02565b9050611b90611439838361212c565b9650611b9c878b6121b5565b9b9a5050505050505050505050565b5f80611bbf670de0b6b3a764000085614c52565b90506110338382614c7d565b5f80611bd78385614c52565b9050611033670de0b6b3a764000082614c7d565b5f815f03611bfa57505f61093f565b82821180156110335750506001600160401b03909216909111919050565b68056bc75e2d63100000811180611c355750662386f26fc1000081105b156118875760405163450a9fed60e01b815260040160405180910390fd5b5f6107638261242a565b5f7f00000000000000000000000000000000000000000000000000000000000000006001600160a01b031663aaabadc56040518163ffffffff1660e01b8152600401602060405180830381865afa158015611cba573d5f5f3e3d5ffd5b505050506040513d601f19601f82011682018060405250810190611cde9190614be1565b6040516326f8aa2160e21b8152600481018690526001600160a01b03858116602483015284811660448301529190911690639be2a88490606401602060405180830381865afa158015611d33573d5f5f3e3d5ffd5b505050506040513d601f19601f820116820180604052508101906110339190614d4d565b5f5f5f5f611d7d875f81518110611d7057611d70614b61565b60200260200101516121ab565b611d9388600181518110611d7057611d70614b61565b9092509050697b426fab61f00de3639960221b611db08284614c2b565b1315611dcf57604051632da2a5e560e01b815260040160405180910390fd5b5f611ddc83838989612442565b90505f5f611dec85858b8b612598565b915091505f821315611e1e57611e17611e06836002614bfc565b611e11836001614c2b565b90612637565b9050611e48565b5f8113611e2f57633b9aca00611e45565b611e45611439611e3e836121ab565b60056126f5565b90505b806b012ced32a16a1b11e826288960261b611e71611e668789614c2b565b60808d015190612909565b611e7b9190614d21565b611e859190614c2b565b611e90906001614c2b565b611e9b906014614bfc565b90505f611edb6b012ced32a16a1b11e826288960261b611ebb8c8c61298a565b611ec59190614d02565b6b012ced32a16a1b11e826288960261b90612a81565b90505f611efd8284611eed8789614c2b565b611ef79190614d02565b90612ac6565b9050611f098383612b89565b60808c01519093506b012ced32a16a1b11e826288960261b906a0c097ce7bc90715b34b9f160241b90611f3c9080614bfc565b611f469190614d21565b611f508385612b89565b611f5a9190614bfc565b611f65906028614bfc565b611f6f9190614d21565b611f799084614c2b565b611f84906001614c2b565b92506ab48e51940c76a45816e51f60251b611f9f8483614c2b565b1315611fbe5760405163dc10196f60e01b815260040160405180910390fd5b9b919a509098505050505050505050565b60c08201516020830151515f918291611fe791612a81565b90505f84602001515f01511361202f5761202a81612024876040015161201e89608001518860200151612c2090919063ffffffff16565b90612c20565b90612b89565b612054565b6040850151608086015184516120549284926120249261204e91612909565b90612909565b91506120886120788560c00151866020015160200151612a8190919063ffffffff16565b6060870151855161202491612909565b6115159083614c2b565b60c08201518251515f9182916120a791612a81565b8451519091505f136120da576120d581612024876060015161201e8960800151886020015161201e90614d68565b612101565b6121016120e682614d68565b606087015160808801518651612024929161204e9190612909565b60c08501518551602001519193506120889161211c91612a81565b6040870151855161202491612909565b5f815f0361214d57604051630a0c22c760e01b815260040160405180910390fd5b825f0361215b57505f610763565b5f61216e670de0b6b3a764000085614bfc565b9050670de0b6b3a76400006121838583614d21565b146121a15760405163e03f5d5760e01b815260040160405180910390fd5b6110338382614d21565b5f61076382612c34565b5f6121c2825f01516121ab565b8310156121db5781516121d4906121ab565b9050610763565b6121e882602001516121ab565b8311156121fc576121d482602001516121ab565b5090919050565b81518151612212908290612c4d565b6020810260208401602084015e505050565b5f61076382612c6d565b5f5f5f613c0a5f5f891561224c5750612c8191505f90506001612258565b50612ce79150600190505f5b5f6122848c8e8560ff168151811061227257612272614b61565b60200260200101516114399190614b89565b90506122938a8a8a8487612d63565b5f6122a4828c8c8c8963ffffffff16565b909850965090506122b4816121ab565b8e8460ff16815181106122c9576122c9614b61565b60200260200101516122db9190614bce565b9750505050505096509650969350505050565b5f5f5f613c0a5f5f891561230c5750612ce791505f90506001612318565b50612c819150600190505f5b8b8160ff168151811061232d5761232d614b61565b60200260200101518b1115612355576040516301dd20c360e11b815260040160405180910390fd5b5f6123818c8e8460ff168151811061236f5761236f614b61565b60200260200101516114399190614bce565b90505f612394828c8c8c8963ffffffff16565b909850965090506123a88b8b8b8488612d63565b8d8460ff16815181106123bd576123bd614b61565b60200260200101516123ce826121ab565b6122db9190614bce565b5f806123e48385614bfc565b90508315806123fb5750826123f98583614d21565b145b6124185760405163066f361360e11b815260040160405180910390fd5b611033670de0b6b3a764000082614d21565b5f600160801b821061243e5761243e612e0b565b5090565b60c08101515f9081906124559080612e18565b90505f61249a8261249487608001518760a001516124848a608001518a60800151612e3390919063ffffffff16565b61248e9190614c2b565b90612e33565b90612a81565b90506124c7816124b7876060015189612c2090919063ffffffff16565b6040880151611eed908b90612c20565b92505f6124e9866040015161201e88608001518a612c2090919063ffffffff16565b612508876060015161201e89608001518c612c2090919063ffffffff16565b6125129190614c2b565b905061253561252e848760400151612a8190919063ffffffff16565b8290612ac6565b61253f9085614c2b565b9350612558866040015188612c2090919063ffffffff16565b6060870151612568908a90612c20565b6125729190614c2b565b905061258e61252e848760600151612a8190919063ffffffff16565b610ada9085614c2b565b5f5f6125a686868686612e67565b6125b287878787612fb4565b6125bc9190614c2b565b91506125ca868686866130fa565b6125d49083614c2b565b91506b012ced32a16a1b11e826288960261b6125f08680612909565b6125fa8880612909565b6126049190614c2b565b61260e9190614d21565b90505f821361261d575f61262c565b61262c611439611e3e846121ab565b915094509492505050565b5f815f0361265857604051630a0c22c760e01b815260040160405180910390fd5b825f0361266657505f610763565b5f8212156126855761267782614d68565b915061268283614d68565b92505b5f8313156126c1578160016126a2670de0b6b3a764000086614bfc565b6126ac9190614d02565b6126b69190614d21565b6121d4906001614c2b565b6001826126d6670de0b6b3a764000086614bfc565b6126e1906001614c2b565b6126eb9190614d21565b61093f9190614d02565b5f825f0361270457505f610763565b5f61270e8461322d565b9050600281612725670de0b6b3a764000087614c52565b61272f9190614c7d565b6127399083614b89565b6127439190614c7d565b905060028161275a670de0b6b3a764000087614c52565b6127649190614c7d565b61276e9083614b89565b6127789190614c7d565b905060028161278f670de0b6b3a764000087614c52565b6127999190614c7d565b6127a39083614b89565b6127ad9190614c7d565b90506002816127c4670de0b6b3a764000087614c52565b6127ce9190614c7d565b6127d89083614b89565b6127e29190614c7d565b90506002816127f9670de0b6b3a764000087614c52565b6128039190614c7d565b61280d9083614b89565b6128179190614c7d565b905060028161282e670de0b6b3a764000087614c52565b6128389190614c7d565b6128429083614b89565b61284c9190614c7d565b9050600281612863670de0b6b3a764000087614c52565b61286d9190614c7d565b6128779083614b89565b6128819190614c7d565b90505f61288e8280611bcb565b905061289a8285613404565b6128a49086614b89565b81111580156128c657506128b88285613404565b6128c29086614bce565b8110155b6129015760405162461bcd60e51b815260206004820152600c60248201526b17dcdc5c9d0811905253115160a21b6044820152606401611086565b509392505050565b5f806129158385614bfc565b90505f81131561295057670de0b6b3a7640000612933600183614d02565b61293d9190614d21565b612948906001614c2b565b915050610763565b5f811215612981576001670de0b6b3a764000061296d8383614c2b565b6129779190614d21565b6129489190614d02565b505f9392505050565b60c08101515f9081906129a7906129a18180612e18565b90612e18565b90506129d46129c9826124948660600151876040015160026129a19190614bfc565b608086015190612909565b9150612a0e846080015161204e866080015161204e85612494896040015160016129fe9190614c2b565b60408b01516129a1906001614c2b565b612a189083614c2b565b6060840151909250612a309082906124949080612e18565b612a3a9083614c2b565b91505f8360a00151612a5d8660800151866080015161263790919063ffffffff16565b612a679190614c2b565b9050612a77826124948380612e18565b6115159084614c2b565b5f815f03612aa257604051630a0c22c760e01b815260040160405180910390fd5b81612abc6b012ced32a16a1b11e826288960261b85614bfc565b61093f9190614d21565b5f80612ada678ac7230489e8000084614d21565b90505f612aef678ac7230489e8000085614d82565b90505f612afc8387614bfc565b90505f612b098388614bfc565b90505f8212158015612b1b57505f8112155b612b62576001678ac7230489e80000612b348184614d21565b612b3e9085614c2b565b612b49906001614c2b565b612b539190614d21565b612b5d9190614d02565b610932565b678ac7230489e80000612b758183614d21565b612b7f9084614c2b565b6109329190614d21565b5f80612b9d678ac7230489e8000084614d21565b90505f612bb2678ac7230489e8000085614d82565b90505f612bbf8387614bfc565b90505f612bcc8388614bfc565b90505f8213158015612bde57505f8113155b612b6257678ac7230489e800006001612bf78284614d21565b612c019085614c2b565b612c0b9190614d02565b612c159190614d21565b612b5d906001614c2b565b5f670de0b6b3a7640000612abc8385614bfc565b5f5f8212612c40575090565b612c48612e0b565b919050565b808214610ee85760405163aaad13f760e01b815260040160405180910390fd5b5f600160401b821061243e5761243e612e0b565b5f5f5f612c8f868686611fcf565b9150612c9c868686612092565b90505f6040518060400160405280848152602001838152509050612cda87608001518989606001518a6040015189868c602001518d60c00151613430565b9350509450945094915050565b5f5f5f612cf5868686611fcf565b9150612d02868686612092565b90505f6040518060400160405280838152602001848152509050612cda87608001518989604001518a60600151898660405180604001604052808e5f01515f0151612d4c90614d68565b81528e5160209081015191015260c08e0151613430565b8060ff165f03612dbb575f612d798686866136fa565b9050697b426fab61f00de3639960221b8313158015612d985750808313155b612db5576040516301dd20c360e11b815260040160405180910390fd5b50610a4d565b5f612dc78686866137a8565b9050697b426fab61f00de3639960221b8313158015612de65750808313155b612e03576040516301dd20c360e11b815260040160405180910390fd5b505050505050565b6335278d125f526004601cfd5b5f6b012ced32a16a1b11e826288960261b612abc8385614bfc565b5f815f03612e5457604051630a0c22c760e01b815260040160405180910390fd5b81612abc670de0b6b3a764000085614bfc565b5f5f612ea3846060015161201e86604001516002612e859190614bfc565b612e8f8980612909565b612e998b80612c20565b61201e9190614d02565b90505f612ebb612eb4886002614bfc565b8790612c20565b6060860151909150612ed19061201e8382612c20565b6040860151612ee49061201e8482612c20565b612eee9084614c2b565b612ef89190614d02565b91505f612f26866080015161248e886080015161248e89606001518a60800151612e1890919063ffffffff16565b604086015160a0870151612f3991612e18565b612f439190614c2b565b9050612f7b8660800151612f6887606001518860a00151612e1890919063ffffffff16565b6040880151608089015161248491612e18565b612f859082614c2b565b60c0860151909150612fa890612fa1906129a181818180612e18565b8290612a81565b9050610ada8382612ac6565b60608201515f908190612fcd9061204e81818980612909565b6040850151612fe29061204e81818b80612909565b612fec9190614c2b565b9050613014846060015161201e8660400151600261300a9190614bfc565b61201e8a8a612c20565b61301e9082614d02565b608085015160608501519192505f91613040919061248e908290829080612e18565b613061866080015161248e8760600151886040015160026129a19190614bfc565b60408601516130709080612e18565b61307a9190614c2b565b6130849190614c2b565b60c08501519091506130a090612fa1906129a181818180612e18565b90506130af81611ef784614d68565b92506130f06130da8560c001516b012ced32a16a1b11e826288960261b612a8190919063ffffffff16565b6080870151611ef79061248e8181600989614d02565b6109329084614c2b565b60408201515f9081906131139061204e81818980612909565b60608501516131289061204e81818b80612909565b6131329190614c2b565b905061315a846040015161204e866060015160026131509190614bfc565b61204e8a8a612909565b6131649082614c2b565b608080860151908501519192505f91613186919061248e908290829080612e18565b60a08501516131959080612e18565b61319f9190614c2b565b90506131c2856080015161248e86608001518760a0015160026129a19190614bfc565b6131cc9082614c2b565b60c08501519091506131e890612fa1906129a181818180612e18565b90506131f781611ef784614d68565b92506130f06132228560c001516b012ced32a16a1b11e826288960261b612a8190919063ffffffff16565b611ef7600985614d02565b5f670de0b6b3a7640000821061326657670de0b6b3a76400006132586132538285614c7d565b613847565b6001901b6107639190614c52565b600a8211613279575063bc7c871c919050565b6064821161328d57506402540be400919050565b6103e882116132a2575064075cdd4719919050565b61271082116132b7575064174876e800919050565b620186a082116132cd57506449a0a4c700919050565b620f424082116132e3575064e8d4a51000919050565b6298968082116132fa57506502e0466fc608919050565b6305f5e100821161331257506509184e72a000919050565b633b9aca00821161332a5750651cc2c05dbc53919050565b6402540be40082116133435750655af3107a4000919050565b64174876e800821161335d575066011f9b83a95b45919050565b64e8d4a510008211613377575066038d7ea4c68000919050565b6509184e72a00082116133925750660b3c13249d90bb919050565b655af3107a400082116133ad5750662386f26fc10000919050565b66038d7ea4c6800082116133c95750667058bf6e27a751919050565b662386f26fc1000082116133e6575067016345785d8a0000919050565b67016345785d8a0000821161243e5750670463777a4d8c892d919050565b5f806134108385614c52565b90506001670de0b6b3a76400006001830304018115150291505092915050565b5f613439613bf2565b6134568a61248e6b012ced32a16a1b11e826288960261b82612e33565b61346f906b012ced32a16a1b11e826288960261b614d02565b815261348e8a611e116b012ced32a16a1b11e826288960261b82612637565b6134a7906b012ced32a16a1b11e826288960261b614d02565b60208201526134b4613c12565b85515f906134c2908c614d02565b90505f8113156134f85760208301516134ee906134df9087612a81565b6120248b61201e8e8187614d68565b6020830152613528565b8251613522906135089087612a81565b613513906001614c2b565b6120248b61204e8e8187614d68565b60208301525b613530613bf2565b61354f866124948d61201e8f8960200151612c2090919063ffffffff16565b8152835161355d908c612909565b602082015261357f613570876001614c2b565b6020830151612494908e612909565b61358a906001614c2b565b602082015260408051808201909152815181906135b6906b012ced32a16a1b11e826288960261b614d02565b815260200182602001516b012ced32a16a1b11e826288960261b6135da9190614d02565b905290506135ed8c8a8f8e8e8c8c61391c565b6135f690614d68565b6040840152602080820151908a01516136149190611ef79080612c20565b83604001516136239190614c2b565b604084018190525f12613636575f613649565b613649611439611e3e85604001516121ab565b6040840181905260208401515f9161366091614d02565b13156136b5576136ae61368f82602001516b012ced32a16a1b11e826288960261b612a8190919063ffffffff16565b61369a906001614c2b565b846040015185602001516120249190614d02565b83526136d8565b80516136d59061369a906b012ced32a16a1b11e826288960261b90612a81565b83525b602088015183516136e99190614c2b565b9d9c50505050505050505050505050565b60c08201518251516020840151515f92839261371a926124949190614d02565b90505f6137408560c00151865f0151602001518760200151602001516124949190614d02565b905061376982611ef7886040015161201e8a608001518960200151612c2090919063ffffffff16565b925061379e815f831361378b576060880151865161378691612909565b611ef7565b60608801516020870151611ef791612c20565b610d959084614c2b565b60c08201518251516020840151515f9283926137c8926124949190614d02565b90505f6137ee8560c00151866020015160200151875f0151602001516124949190614d02565b905061381782611ef7886060015161201e8a608001518960200151612c2090919063ffffffff16565b925061379e815f8313613834576040880151865161378691612909565b60408801516020870151611ef791612c20565b5f600160801b82106138685760809190911c90613865604082614b89565b90505b600160401b82106138885760409190911c90613885602082614b89565b90505b600160201b82106138a85760209190911c906138a5601082614b89565b90505b6201000082106138c75760109190911c906138c4600882614b89565b90505b61010082106138e55760089190911c906138e2600482614b89565b90505b601082106139025760049190911c906138ff600282614b89565b90505b60048210612c485760029190911c90610763600182614b89565b5f5f604051806040016040528061393c8586612e1890919063ffffffff16565b815289516020909101906139509080612909565b9052905061395c613c12565b8151602086015186515f9261397692909161249491612e18565b90505f8113156139bc5761399961398e896002614bfc565b602085015190612909565b82526139b56139a9826007614c2b565b8351612024908a612909565b82526139ef565b6139d96139ca896002614bfc565b60208c015161201e9080612c20565b8083526139ec908290612024908a612c20565b82525b85515f1315613a4a578551613a4090613a089087612a81565b613a1190614d68565b613a1c906003614c2b565b612024613a2a8a6002614bfc565b61204e8f8f5f015161290990919063ffffffff16565b6020830152613a80565b8551613a7a90613a5a9087612a81565b612024613a688a6002614bfc565b61201e8f8f6020015161201e90614d68565b60208301525b60208201518251613a919190614c2b565b825282516020870151613aa991906124949080612e18565b613ab4906007614c2b565b6020840151909150613ac69089612909565b60208301819052613add908290612024908b612909565b602080840191909152860151613b0590613af79087612a81565b612024613a688b6002614bfc565b6040830152613b148b80612909565b82604001518360200151613b289190614c2b565b613b329190614c2b565b602083018190525f12613b53576020820151613b4e908a612e33565b613b62565b6020820151613b62908a612637565b602083018190528251613b759190614c2b565b8083525f12613b8f578151613b8a908a612e33565b613b9b565b8151613b9b908a612637565b825282518651613bb091906124949080612e18565b613bbb906007614c2b565b90505f613bd98861204e8a876020015161290990919063ffffffff16565b8351909150613be88284612b89565b61138e9190614c2b565b60405180604001604052805f81526020015f81525090565b61108f614d95565b60405180606001604052805f81526020015f81526020015f81525090565b6001600160a01b0381168114611887575f5ffd5b8035612c4881613c30565b634e487b7160e01b5f52604160045260245ffd5b604051608081016001600160401b0381118282101715613c8557613c85613c4f565b60405290565b60405160a081016001600160401b0381118282101715613c8557613c85613c4f565b604080519081016001600160401b0381118282101715613c8557613c85613c4f565b60405160e081016001600160401b0381118282101715613c8557613c85613c4f565b604051601f8201601f191681016001600160401b0381118282101715613d1957613d19613c4f565b604052919050565b5f6001600160401b03821115613d3957613d39613c4f565b5060051b60200190565b60028110611887575f5ffd5b8035612c4881613d43565b8015158114611887575f5ffd5b5f60808284031215613d77575f5ffd5b50919050565b5f5f5f5f60e08587031215613d90575f5ffd5b8435613d9b81613c30565b93506020850135613dab81613c30565b925060408501356001600160401b03811115613dc5575f5ffd5b8501601f81018713613dd5575f5ffd5b8035613de8613de382613d21565b613cf1565b8082825260208201915060208360071b850101925089831115613e09575f5ffd5b6020840193505b82841015613e89576080848b031215613e27575f5ffd5b613e2f613c63565b8435613e3a81613c30565b81526020850135613e4a81613d43565b60208201526040850135613e5d81613c30565b60408201526060850135613e7081613d5a565b6060820152825260809390930192602090910190613e10565b80955050505050613e9d8660608701613d67565b905092959194509250565b5f60208284031215613eb8575f5ffd5b81356001600160401b03811115613ecd575f5ffd5b8201610180818503121561093f575f5ffd5b5f60208284031215613eef575f5ffd5b813561093f81613c30565b5f82601f830112613f09575f5ffd5b8135613f17613de382613d21565b8082825260208201915060208360051b860101925085831115613f38575f5ffd5b602085015b83811015610992578035835260209283019201613f3d565b5f82601f830112613f64575f5ffd5b81356001600160401b03811115613f7d57613f7d613c4f565b613f90601f8201601f1916602001613cf1565b818152846020838601011115613fa4575f5ffd5b816020850160208301375f918101602001919091529392505050565b5f5f60408385031215613fd1575f5ffd5b82356001600160401b03811115613fe6575f5ffd5b613ff285828601613efa565b92505060208301356001600160401b0381111561400d575f5ffd5b61401985828601613f55565b9150509250929050565b5f5f60408385031215614034575f5ffd5b823561403f81613c30565b946020939093013593505050565b803560048110612c48575f5ffd5b5f5f5f5f5f5f5f5f610100898b031215614073575f5ffd5b61407c89613c44565b975061408a60208a01613c44565b965061409860408a0161404d565b95506060890135945060808901356001600160401b038111156140b9575f5ffd5b6140c58b828c01613efa565b94505060a08901356001600160401b038111156140e0575f5ffd5b6140ec8b828c01613efa565b93505060c08901356001600160401b03811115614107575f5ffd5b6141138b828c01613efa565b92505060e08901356001600160401b0381111561412e575f5ffd5b61413a8b828c01613f55565b9150509295985092959890939650565b5f604082018415158352604060208401528084518083526060850191506020860192505f5b8181101561418d57835183526020938401939092019160010161416f565b50909695505050505050565b5f60a082840312156141a9575f5ffd5b6141b1613c8b565b823581526020808401359082015260408084013590820152606080840135908201526080928301359281019290925250919050565b5f604082840312156141f6575f5ffd5b6141fe613cad565b823581526020928301359281019290925250919050565b5f6101208284031215614226575f5ffd5b61422e613ccf565b905061423a83836141e6565b815261424983604084016141e6565b6020820152608082810135604083015260a080840135606084015260c0808501359284019290925260e0840135908301526101009092013591810191909152919050565b80356001600160801b0381168114612c48575f5ffd5b5f604082840312156142b3575f5ffd5b6142bb613cad565b90506142c68261428d565b81526142d46020830161428d565b602082015292915050565b5f5f5f5f61022085870312156142f3575f5ffd5b84356001600160401b03811115614308575f5ffd5b61431487828801613efa565b9450506143248660208701614199565b92506143338660c08701614215565b9150613e9d866101e087016142a3565b5f5f5f60608486031215614355575f5ffd5b83356001600160401b0381111561436a575f5ffd5b61437686828701613efa565b9350506020840135915060408401356001600160401b03811115614398575f5ffd5b6143a486828701613f55565b9150509250925092565b5f60e08284031215613d77575f5ffd5b5f5f5f606084860312156143d0575f5ffd5b83356001600160401b038111156143e5575f5ffd5b6143f1868287016143ae565b935050602084013561440281613c30565b929592945050506040919091013590565b803560058110612c48575f5ffd5b5f5f5f5f5f5f5f60e0888a031215614437575f5ffd5b873561444281613c30565b965061445060208901613c44565b955061445e60408901614413565b945060608801356001600160401b03811115614478575f5ffd5b6144848a828b01613efa565b9450506080880135925060a08801356001600160401b038111156144a6575f5ffd5b6144b28a828b01613efa565b92505060c08801356001600160401b038111156144cd575f5ffd5b6144d98a828b01613f55565b91505092959891949750929550565b5f5f5f608084860312156144fa575f5ffd5b833561450581613c30565b925060208401356001600160401b0381111561451f575f5ffd5b61452b86828701613efa565b92505061453b85604086016142a3565b90509250925092565b5f5f60408385031215614555575f5ffd5b82356001600160401b0381111561456a575f5ffd5b614576858286016143ae565b925050602083013561458781613c30565b809150509250929050565b602081525f82518060208401528060208501604085015e5f604082850101526040601f19601f83011684010191505092915050565b5f60e082840312156145d7575f5ffd5b6145df613ccf565b90506145ea82613d4f565b81526020828101359082015260408201356001600160401b0381111561460e575f5ffd5b61461a84828501613efa565b604083015250606082810135908201526080808301359082015261464060a08301613c44565b60a082015260c08201356001600160401b0381111561465d575f5ffd5b61466984828501613f55565b60c08301525092915050565b5f5f5f6101e08486031215614688575f5ffd5b83356001600160401b0381111561469d575f5ffd5b6146a9868287016145c7565b9350506146b98560208601614199565b915061453b8560c08601614215565b5f602082840312156146d8575f5ffd5b81356001600160e01b03198116811461093f575f5ffd5b6001600160801b0391909116815260200190565b6001600160a01b0391909116815260200190565b5f5f5f6101e0848603121561472a575f5ffd5b83356001600160401b0381111561473f575f5ffd5b6146a986828701613efa565b5f5f5f5f610100858703121561475f575f5ffd5b84356001600160401b03811115614774575f5ffd5b61478087828801613efa565b9450506147908660208701614199565b939693955050505060c08201359160e0013590565b5f5f5f5f5f5f5f5f610100898b0312156147bd575f5ffd5b6147c689613c44565b97506147d460208a01613c44565b96506147e260408a01614413565b955060608901356001600160401b038111156147fc575f5ffd5b6148088b828c01613efa565b95505060808901356001600160401b03811115614823575f5ffd5b61482f8b828c01613efa565b94505060a0890135925060c08901356001600160401b03811115614107575f5ffd5b5f5f5f5f5f5f5f60e0888a031215614867575f5ffd5b873561487281613c30565b965061488060208901613c44565b955061488e6040890161404d565b94506060880135935060808801356001600160401b038111156148af575f5ffd5b6148bb8a828b01613efa565b93505060a08801356001600160401b038111156144a6575f5ffd5b815115158152610140810160208301516148f4602084018215159052565b506040830151614908604084018215159052565b50606083015161491c606084018215159052565b506080830151614930608084018215159052565b5060a083015161494460a084018215159052565b5060c083015161495860c084018215159052565b5060e083015161496c60e084018215159052565b5061010083015161498261010084018215159052565b5061012083015161499861012084018215159052565b5092915050565b5f5f5f606084860312156149b1575f5ffd5b83356001600160401b03811681146149c7575f5ffd5b95602085013595506040909401359392505050565b5f604082840312156149ec575f5ffd5b6149f4613cad565b825181526020928301519281019290925250919050565b5f5f8284036101c0811215614a1e575f5ffd5b60a0811215614a2b575f5ffd5b614a33613c8b565b84518152602080860151908201526040808601519082015260608086015190820152608080860151908201529250610120609f1982011215614a73575f5ffd5b50614a7c613ccf565b614a898560a086016149dc565b8152614a988560e086016149dc565b602082015261012084015160408201526101408401516060820152610160840151608082015261018084015160a08201526101a09093015160c08401525092909150565b5f6060828403128015614aed575f5ffd5b50604051606081016001600160401b0381118282101715614b1057614b10613c4f565b6040528251614b1e81613c30565b81526020830151614b2e81613c30565b60208201526040830151614b4181613c30565b60408201529392505050565b634e487b7160e01b5f52602160045260245ffd5b634e487b7160e01b5f52603260045260245ffd5b634e487b7160e01b5f52601160045260245ffd5b8082018082111561076357610763614b75565b600181811c90821680614bb057607f821691505b602082108103613d7757634e487b7160e01b5f52602260045260245ffd5b8181038181111561076357610763614b75565b5f60208284031215614bf1575f5ffd5b815161093f81613c30565b8082025f8212600160ff1b84141615614c1757614c17614b75565b818105831482151761076357610763614b75565b8082018281125f831280158216821582161715614c4a57614c4a614b75565b505092915050565b808202811582820484141761076357610763614b75565b634e487b7160e01b5f52601260045260245ffd5b5f82614c8b57614c8b614c69565b500490565b5f61076336836145c7565b5f5f8335601e19843603018112614cb0575f5ffd5b8301803591506001600160401b03821115614cc9575f5ffd5b6020019150600581901b3603821315614ce0575f5ffd5b9250929050565b5f60208284031215614cf7575f5ffd5b813561093f81613d43565b8181035f83128015838313168383128216171561499857614998614b75565b5f82614d2f57614d2f614c69565b600160ff1b82145f1984141615614d4857614d48614b75565b500590565b5f60208284031215614d5d575f5ffd5b815161093f81613d5a565b5f600160ff1b8201614d7c57614d7c614b75565b505f0390565b5f82614d9057614d90614c69565b500790565b634e487b7160e01b5f52605160045260245ffdfea264697066735822122013e73b3356a7aa10fa712215c3320fd39c06f0709c02e4574f3827986cfedd4764736f6c634300081e0033","linkReferences":{}},"methodIdentifiers":{"MAX_IMBALANCE_SLOPE()":"872aabd5","MIN_IMBALANCE_SLOPE()":"bcf5a6c3","computeImbalance(uint256[],(int256,int256,int256,int256,int256),int256,int256)":"94920c94","computeImbalanceFromBalances(address,uint256[],(uint128,uint128))":"4eeb5d08","computeImbalanceFromBalancesAndParams(uint256[],(int256,int256,int256,int256,int256),((int256,int256),(int256,int256),int256,int256,int256,int256,int256),(uint128,uint128))":"2a3ceff4","computePriceFromBalances(uint256[],(int256,int256,int256,int256,int256),((int256,int256),(int256,int256),int256,int256,int256,int256,int256))":"9408460d","computeSwap((uint8,uint256,uint256[],uint256,uint256,address,bytes),(int256,int256,int256,int256,int256),((int256,int256),(int256,int256),int256,int256,int256,int256,int256))":"57c47f90","computeSwapSurgeFeePercentage((uint8,uint256,uint256[],uint256,uint256,address,bytes),address,uint256)":"c88511a2","getActionId(bytes4)":"851c1bb3","getAuthorizer()":"aaabadc5","getDefaultMaxSurgeFeePercentage()":"c17ef2cc","getDefaultSurgeThresholdPercentage()":"8bc694ad","getHookFlags()":"d77153a7","getImbalanceSlopes(address)":"f253345f","getMaxSurgeFeePercentage(address)":"1a4a64be","getSurgeFeeData(address)":"ee488f26","getSurgeThresholdPercentage(address)":"e2381602","getVault()":"8d928af8","isSurging(uint64,uint256,uint256)":"f32fdc7c","isSurgingSwap((uint8,uint256,uint256[],uint256,uint256,address,bytes),address,uint256)":"3a61bdea","manualSetSurgeMaxFeePercentage(address,uint256)":"a9f07081","onAfterAddLiquidity(address,address,uint8,uint256[],uint256[],uint256,uint256[],bytes)":"976907cc","onAfterInitialize(uint256[],uint256,bytes)":"38be241d","onAfterRemoveLiquidity(address,address,uint8,uint256,uint256[],uint256[],uint256[],bytes)":"2754888d","onAfterSwap((uint8,address,address,uint256,uint256,uint256,uint256,uint256,uint256,address,address,bytes))":"18b6eb55","onBeforeAddLiquidity(address,address,uint8,uint256[],uint256,uint256[],bytes)":"45421ec7","onBeforeInitialize(uint256[],bytes)":"1c149e28","onBeforeRemoveLiquidity(address,address,uint8,uint256,uint256[],uint256[],bytes)":"ba5f9f40","onBeforeSwap((uint8,uint256,uint256[],uint256,uint256,address,bytes),address)":"5211fa77","onComputeDynamicSwapFeePercentage((uint8,uint256,uint256[],uint256,uint256,address,bytes),address,uint256)":"a0e8f5ac","onRegister(address,address,(address,uint8,address,bool)[],(bool,bool,bool,bool))":"0b89f182","setImbalanceSlopeAbovePeak(address,uint256)":"1fcb3b55","setImbalanceSlopeBelowPeak(address,uint256)":"6073d344","setMaxSurgeFeePercentage(address,uint256)":"4e493cfd","setSurgeThresholdPercentage(address,uint256)":"59f00466","version()":"54fd4d50"},"id":143}