{"abi":[{"type":"function","name":"SPOT_PRICE_PRECOMPILE_ADDRESS","inputs":[],"outputs":[{"name":"","type":"address","internalType":"address"}],"stateMutability":"view"},{"type":"error","name":"SpotPriceIsZero","inputs":[]},{"type":"error","name":"SpotPricePrecompileFailed","inputs":[]}],"bytecode":{"object":"0x60906032600b8282823980515f1a607314602657634e487b7160e01b5f525f60045260245ffd5b305f52607381538281f3fe73000000000000000000000000000000000000000030146080604052600436106032575f3560e01c8063ef89de08146036575b5f5ffd5b603e61080881565b6040516001600160a01b03909116815260200160405180910390f3fea264697066735822122047dc9abbc5bf518105a92f4c7c1788dc00e99be6edcdc94d78e9d2593f16aeba64736f6c634300081e0033","linkReferences":{}},"methodIdentifiers":{"SPOT_PRICE_PRECOMPILE_ADDRESS()":"ef89de08"},"id":324}