{"abi":[{"type":"function","name":"canPerform","inputs":[{"name":"role","type":"bytes32","internalType":"bytes32"},{"name":"account","type":"address","internalType":"address"},{"name":"where","type":"address","internalType":"address"}],"outputs":[{"name":"","type":"bool","internalType":"bool"}],"stateMutability":"view"},{"type":"function","name":"grantRole","inputs":[{"name":"role","type":"bytes32","internalType":"bytes32"},{"name":"account","type":"address","internalType":"address"}],"outputs":[],"stateMutability":"nonpayable"},{"type":"function","name":"grantSpecificRole","inputs":[{"name":"role","type":"bytes32","internalType":"bytes32"},{"name":"account","type":"address","internalType":"address"},{"name":"where","type":"address","internalType":"address"}],"outputs":[],"stateMutability":"nonpayable"},{"type":"function","name":"hasRole","inputs":[{"name":"role","type":"bytes32","internalType":"bytes32"},{"name":"account","type":"address","internalType":"address"}],"outputs":[{"name":"","type":"bool","internalType":"bool"}],"stateMutability":"view"},{"type":"function","name":"hasSpecificRole","inputs":[{"name":"role","type":"bytes32","internalType":"bytes32"},{"name":"account","type":"address","internalType":"address"},{"name":"where","type":"address","internalType":"address"}],"outputs":[{"name":"","type":"bool","internalType":"bool"}],"stateMutability":"view"},{"type":"function","name":"revokeRole","inputs":[{"name":"role","type":"bytes32","internalType":"bytes32"},{"name":"account","type":"address","internalType":"address"}],"outputs":[],"stateMutability":"nonpayable"},{"type":"function","name":"revokeSpecificRole","inputs":[{"name":"role","type":"bytes32","internalType":"bytes32"},{"name":"account","type":"address","internalType":"address"},{"name":"where","type":"address","internalType":"address"}],"outputs":[],"stateMutability":"nonpayable"}],"bytecode":{"object":"0x6080604052348015600e575f5ffd5b506102ef8061001c5f395ff3fe608060405234801561000f575f5ffd5b506004361061006b575f3560e01c80632f2ff15d1461006f578063686c7a1d146100ac57806391d14854146100ef5780639be2a88414610116578063b7cfddf614610129578063d547741f1461013c578063f5407f7714610174575b5f5ffd5b6100aa61007d366004610256565b5f918252602082815260408084206001600160a01b0390931684529190529020805460ff19166001179055565b005b6100aa6100ba366004610280565b5f9283526001602090815260408085206001600160a01b0394851686528252808520929093168452529020805460ff19169055565b6101026100fd366004610256565b6101bd565b604051901515815260200160405180910390f35b610102610124366004610280565b6101e5565b610102610137366004610280565b610209565b6100aa61014a366004610256565b5f918252602082815260408084206001600160a01b0390931684529190529020805460ff19169055565b6100aa610182366004610280565b5f9283526001602081815260408086206001600160a01b0395861687528252808620939094168552919091529120805460ff19169091179055565b5f918252602082815260408084206001600160a01b0393909316845291905290205460ff1690565b5f6101f1848484610209565b80610201575061020184846101bd565b949350505050565b5f9283526001602090815260408085206001600160a01b03948516865282528085209290931684525290205460ff1690565b80356001600160a01b0381168114610251575f5ffd5b919050565b5f5f60408385031215610267575f5ffd5b823591506102776020840161023b565b90509250929050565b5f5f5f60608486031215610292575f5ffd5b833592506102a26020850161023b565b91506102b06040850161023b565b9050925092509256fea2646970667358221220d0ea505104de14ecba0f8c21565432882b6565322e58469b0420d2e72673d1c164736f6c634300081e0033","linkReferences":{}},"methodIdentifiers":{"canPerform(bytes32,address,address)":"9be2a884","grantRole(bytes32,address)":"2f2ff15d","grantSpecificRole(bytes32,address,address)":"f5407f77","hasRole(bytes32,address)":"91d14854","hasSpecificRole(bytes32,address,address)":"b7cfddf6","revokeRole(bytes32,address)":"d547741f","revokeSpecificRole(bytes32,address,address)":"686c7a1d"},"id":940}