{"abi":[{"type":"constructor","inputs":[{"name":"_voter","type":"address","internalType":"address"},{"name":"_legacyCLFactory","type":"address","internalType":"address"},{"name":"_poolImplementation","type":"address","internalType":"address"}],"stateMutability":"nonpayable"},{"type":"function","name":"allPools","inputs":[{"name":"","type":"uint256","internalType":"uint256"}],"outputs":[{"name":"","type":"address","internalType":"address"}],"stateMutability":"view"},{"type":"function","name":"allPoolsLength","inputs":[],"outputs":[{"name":"","type":"uint256","internalType":"uint256"}],"stateMutability":"view"},{"type":"function","name":"createPool","inputs":[{"name":"tokenA","type":"address","internalType":"address"},{"name":"tokenB","type":"address","internalType":"address"},{"name":"tickSpacing","type":"int24","internalType":"int24"},{"name":"sqrtPriceX96","type":"uint160","internalType":"uint160"}],"outputs":[{"name":"pool","type":"address","internalType":"address"}],"stateMutability":"nonpayable"},{"type":"function","name":"defaultUnstakedFee","inputs":[],"outputs":[{"name":"","type":"uint24","internalType":"uint24"}],"stateMutability":"view"},{"type":"function","name":"enableTickSpacing","inputs":[{"name":"tickSpacing","type":"int24","internalType":"int24"},{"name":"fee","type":"uint24","internalType":"uint24"}],"outputs":[],"stateMutability":"nonpayable"},{"type":"function","name":"factoryRegistry","inputs":[],"outputs":[{"name":"","type":"address","internalType":"contract IFactoryRegistry"}],"stateMutability":"view"},{"type":"function","name":"getPool","inputs":[{"name":"","type":"address","internalType":"address"},{"name":"","type":"address","internalType":"address"},{"name":"","type":"int24","internalType":"int24"}],"outputs":[{"name":"","type":"address","internalType":"address"}],"stateMutability":"view"},{"type":"function","name":"getSwapFee","inputs":[{"name":"pool","type":"address","internalType":"address"}],"outputs":[{"name":"","type":"uint24","internalType":"uint24"}],"stateMutability":"view"},{"type":"function","name":"getUnstakedFee","inputs":[{"name":"pool","type":"address","internalType":"address"}],"outputs":[{"name":"","type":"uint24","internalType":"uint24"}],"stateMutability":"view"},{"type":"function","name":"isPool","inputs":[{"name":"pool","type":"address","internalType":"address"}],"outputs":[{"name":"","type":"bool","internalType":"bool"}],"stateMutability":"view"},{"type":"function","name":"legacyCLFactory","inputs":[],"outputs":[{"name":"","type":"address","internalType":"contract ICLFactory"}],"stateMutability":"view"},{"type":"function","name":"owner","inputs":[],"outputs":[{"name":"","type":"address","internalType":"address"}],"stateMutability":"view"},{"type":"function","name":"poolImplementation","inputs":[],"outputs":[{"name":"","type":"address","internalType":"address"}],"stateMutability":"view"},{"type":"function","name":"setDefaultUnstakedFee","inputs":[{"name":"_defaultUnstakedFee","type":"uint24","internalType":"uint24"}],"outputs":[],"stateMutability":"nonpayable"},{"type":"function","name":"setOwner","inputs":[{"name":"_owner","type":"address","internalType":"address"}],"outputs":[],"stateMutability":"nonpayable"},{"type":"function","name":"setSwapFeeManager","inputs":[{"name":"_swapFeeManager","type":"address","internalType":"address"}],"outputs":[],"stateMutability":"nonpayable"},{"type":"function","name":"setSwapFeeModule","inputs":[{"name":"_swapFeeModule","type":"address","internalType":"address"}],"outputs":[],"stateMutability":"nonpayable"},{"type":"function","name":"setUnstakedFeeManager","inputs":[{"name":"_unstakedFeeManager","type":"address","internalType":"address"}],"outputs":[],"stateMutability":"nonpayable"},{"type":"function","name":"setUnstakedFeeModule","inputs":[{"name":"_unstakedFeeModule","type":"address","internalType":"address"}],"outputs":[],"stateMutability":"nonpayable"},{"type":"function","name":"swapFeeManager","inputs":[],"outputs":[{"name":"","type":"address","internalType":"address"}],"stateMutability":"view"},{"type":"function","name":"swapFeeModule","inputs":[],"outputs":[{"name":"","type":"address","internalType":"address"}],"stateMutability":"view"},{"type":"function","name":"tickSpacingToFee","inputs":[{"name":"","type":"int24","internalType":"int24"}],"outputs":[{"name":"","type":"uint24","internalType":"uint24"}],"stateMutability":"view"},{"type":"function","name":"tickSpacings","inputs":[],"outputs":[{"name":"","type":"int24[]","internalType":"int24[]"}],"stateMutability":"view"},{"type":"function","name":"unstakedFeeManager","inputs":[],"outputs":[{"name":"","type":"address","internalType":"address"}],"stateMutability":"view"},{"type":"function","name":"unstakedFeeModule","inputs":[],"outputs":[{"name":"","type":"address","internalType":"address"}],"stateMutability":"view"},{"type":"function","name":"voter","inputs":[],"outputs":[{"name":"","type":"address","internalType":"contract IVoter"}],"stateMutability":"view"},{"type":"event","name":"DefaultUnstakedFeeChanged","inputs":[{"name":"oldUnstakedFee","type":"uint24","indexed":true,"internalType":"uint24"},{"name":"newUnstakedFee","type":"uint24","indexed":true,"internalType":"uint24"}],"anonymous":false},{"type":"event","name":"OwnerChanged","inputs":[{"name":"oldOwner","type":"address","indexed":true,"internalType":"address"},{"name":"newOwner","type":"address","indexed":true,"internalType":"address"}],"anonymous":false},{"type":"event","name":"PoolCreated","inputs":[{"name":"token0","type":"address","indexed":true,"internalType":"address"},{"name":"token1","type":"address","indexed":true,"internalType":"address"},{"name":"tickSpacing","type":"int24","indexed":true,"internalType":"int24"},{"name":"pool","type":"address","indexed":false,"internalType":"address"}],"anonymous":false},{"type":"event","name":"SwapFeeManagerChanged","inputs":[{"name":"oldFeeManager","type":"address","indexed":true,"internalType":"address"},{"name":"newFeeManager","type":"address","indexed":true,"internalType":"address"}],"anonymous":false},{"type":"event","name":"SwapFeeModuleChanged","inputs":[{"name":"oldFeeModule","type":"address","indexed":true,"internalType":"address"},{"name":"newFeeModule","type":"address","indexed":true,"internalType":"address"}],"anonymous":false},{"type":"event","name":"TickSpacingEnabled","inputs":[{"name":"tickSpacing","type":"int24","indexed":true,"internalType":"int24"},{"name":"fee","type":"uint24","indexed":true,"internalType":"uint24"}],"anonymous":false},{"type":"event","name":"UnstakedFeeManagerChanged","inputs":[{"name":"oldFeeManager","type":"address","indexed":true,"internalType":"address"},{"name":"newFeeManager","type":"address","indexed":true,"internalType":"address"}],"anonymous":false},{"type":"event","name":"UnstakedFeeModuleChanged","inputs":[{"name":"oldFeeModule","type":"address","indexed":true,"internalType":"address"},{"name":"newFeeModule","type":"address","indexed":true,"internalType":"address"}],"anonymous":false},{"type":"error","name":"ERC1167FailedCreateClone","inputs":[]}],"bytecode":{"object":"0x610100604052348015610010575f5ffd5b50604051611afd380380611afd83398101604081905261002f916103c9565b5f8054336001600160a01b03199182168117909255600180548216831790556003805490911690911790556001600160a01b038316608081905260408051633bf0c9fb60e01b81529051633bf0c9fb916004808201926020929091908290030181865afa1580156100a2573d5f5f3e3d5ffd5b505050506040513d601f19601f820116820180604052508101906100c69190610409565b6001600160a01b0390811660c05282811660e052811660a0526004805462ffffff60a01b1916610c3560a51b17905560405133905f907fb532073b38c83145e3e5135377a08bf9aab55bc0fd7c1179cd4fb995d2a5159c908290a360405133905f907f7ae0007229b3333719d97e8ef5829c888f560776012974f87409c158e5b7eb91908290a360405133905f907f3d7ebe96182c99643ca0c997a416a2a3409baab225f85f50c29fcf0591c820c1908290a3604051620186a0905f907fcbca61144322b913ada4febfb591864cad7617559d7ee0d3e29b48eb93fcc78e908290a36101b4600160646101f1565b6101c160326101f46101f1565b6101ce60646101f46101f1565b6101db60c8610bb86101f1565b6101e96107d06127106101f1565b505050610429565b5f8162ffffff1611801561020d5750620186a08162ffffff1611155b61024c5760405162461bcd60e51b815260206004820152600b60248201526a496e76616c69642066656560a81b60448201526064015b60405180910390fd5b5f8260020b13801561026257506140008260020b125b6102ae5760405162461bcd60e51b815260206004820152601460248201527f496e76616c6964207469636b2073706163696e670000000000000000000000006044820152606401610243565b600282900b5f9081526005602052604090205462ffffff16156103055760405162461bcd60e51b815260206004820152600f60248201526e105b1c9958591e48195b98589b1959608a1b6044820152606401610243565b600282900b5f81815260056020526040808220805462ffffff80871662ffffff19909216821790925560098054600181018255908552600a8082047f6e1540171b6c0c960b71a7020d9f60077f6af931a8bbf590da0223dacf75c7af018054858b16600393909406929092026101000a9283029290940219161790915590519092917febafae466a4a780a1d87f5fab2f52fad33be9151a7f69d099e8934c8de85b74791a35050565b80516001600160a01b03811681146103c4575f5ffd5b919050565b5f5f5f606084860312156103db575f5ffd5b6103e4846103ae565b92506103f2602085016103ae565b9150610400604085016103ae565b90509250925092565b5f60208284031215610419575f5ffd5b610422826103ae565b9392505050565b60805160a05160c05160e0516116776104865f395f81816103c5015281816106ac01526106ea01525f818161022d015261084901525f818161036201526107c301525f818161026701528181610bd30152610c7601526116775ff3fe608060405234801561000f575f5ffd5b506004361061013c575f3560e01c806313af4035146101405780631b31d87814610155578063232aa5ac1461016857806323c43a511461019157806328af8d0b146101a457806335458dcc146101dd578063380dc1c2146102045780633bf0c9fb1461022857806341d1de971461024f57806346c96aac1461026257806348cf7a43146102895780635b16ebb71461029c57806361b9c3ec146102d75780637693bc11146102ea57806382e189e0146102fd5780638da5cb5b1461031057806393ce8627146103225780639cbbbe8614610335578063a2f97f421461034a578063cefa77991461035d578063d574afa914610384578063e282483214610397578063eee0fdb4146103ad578063efca2d5d146103c0578063efde4e64146103e7578063ffb4d9d1146103f8575b5f5ffd5b61015361014e366004611353565b61040b565b005b610153610163366004611353565b6104c6565b61017b61017636600461137c565b610567565b60405161018891906113d5565b60405180910390f35b60025461017b906001600160a01b031681565b61017b6101b23660046113e9565b600660209081525f93845260408085208252928452828420905282529020546001600160a01b031681565b6101f06101eb366004611353565b610a88565b60405162ffffff9091168152602001610188565b6101f0610212366004611431565b60056020525f908152604090205462ffffff1681565b61017b7f000000000000000000000000000000000000000000000000000000000000000081565b61017b61025d36600461144c565b610ba7565b61017b7f000000000000000000000000000000000000000000000000000000000000000081565b6101f0610297366004611353565b610bcf565b6102c76102aa366004611353565b6001600160a01b03165f9081526007602052604090205460ff1690565b6040519015158152602001610188565b6101536102e5366004611353565b610dbc565b60045461017b906001600160a01b031681565b60035461017b906001600160a01b031681565b5f5461017b906001600160a01b031681565b610153610330366004611353565b610e5d565b61033d610efe565b6040516101889190611463565b6101536103583660046114b8565b610f76565b61017b7f000000000000000000000000000000000000000000000000000000000000000081565b60015461017b906001600160a01b031681565b6004546101f090600160a01b900462ffffff1681565b6101536103bb3660046114d3565b61103c565b61017b7f000000000000000000000000000000000000000000000000000000000000000081565b600854604051908152602001610188565b610153610406366004611353565b611073565b5f546001600160a01b031633811461043e5760405162461bcd60e51b81526004016104359061150a565b60405180910390fd5b6001600160a01b0382166104645760405162461bcd60e51b81526004016104359061152d565b816001600160a01b0316816001600160a01b03167fb532073b38c83145e3e5135377a08bf9aab55bc0fd7c1179cd4fb995d2a5159c60405160405180910390a3505f80546001600160a01b0319166001600160a01b0392909216919091179055565b6003546001600160a01b031633146104f05760405162461bcd60e51b815260040161043590611553565b6001600160a01b0381166105165760405162461bcd60e51b81526004016104359061152d565b600480546001600160a01b038381166001600160a01b0319831681179093556040519116919082907f6520f404f3831947cee8673060459cdfb181b7332aa7580bcce9bf90ef1f0e20905f90a35050565b5f836001600160a01b0316856001600160a01b0316036105b65760405162461bcd60e51b815260206004820152600a60248201526929b0b6b2903a37b5b2b760b11b6044820152606401610435565b5f5f856001600160a01b0316876001600160a01b0316106105d85785876105db565b86865b90925090506001600160a01b0382166106065760405162461bcd60e51b81526004016104359061152d565b600285900b5f9081526005602052604081205462ffffff16900361063c5760405162461bcd60e51b81526004016104359061157c565b6001600160a01b038281165f9081526006602090815260408083208585168452825280832060028a900b845290915290205416156106aa5760405162461bcd60e51b815260206004820152600b60248201526a506f6f6c2065786973747360a81b6044820152606401610435565b7f00000000000000000000000000000000000000000000000000000000000000006001600160a01b0316156107be576040516328af8d0b60e01b81525f907f00000000000000000000000000000000000000000000000000000000000000006001600160a01b0316906328af8d0b9061072b90869086908b906004016115aa565b602060405180830381865afa158015610746573d5f5f3e3d5ffd5b505050506040513d601f19601f8201168201806040525081019061076a91906115d1565b6001600160a01b0316146107be575f546001600160a01b031633146107be5760405162461bcd60e51b815260206004820152600a60248201526927b7363c9037bbb732b960b11b6044820152606401610435565b6108127f00000000000000000000000000000000000000000000000000000000000000008383886040516020016107f7939291906115aa565b60405160208183030381529060405280519060200120611114565b60405163081c762160e21b81523060048201526001600160a01b0384811660248301528381166044830152600288900b60648301527f00000000000000000000000000000000000000000000000000000000000000008116608483015286811660a483015291945090841690632071d8849060c4015f604051808303815f87803b15801561089e575f5ffd5b505af11580156108b0573d5f5f3e3d5ffd5b50505050600883908060018154018082558091505060019003905f5260205f20015f9091909190916101000a8154816001600160a01b0302191690836001600160a01b03160217905550600160075f856001600160a01b03166001600160a01b031681526020019081526020015f205f6101000a81548160ff0219169083151502179055508260065f846001600160a01b03166001600160a01b031681526020019081526020015f205f836001600160a01b03166001600160a01b031681526020019081526020015f205f8760020b60020b81526020019081526020015f205f6101000a8154816001600160a01b0302191690836001600160a01b031602179055508260065f836001600160a01b03166001600160a01b031681526020019081526020015f205f846001600160a01b03166001600160a01b031681526020019081526020015f205f8760020b60020b81526020019081526020015f205f6101000a8154816001600160a01b0302191690836001600160a01b031602179055508460020b816001600160a01b0316836001600160a01b03167fab0d57f0df537bb25e80245ef7748fa62353808c54d6e528a9dd20887aed9ac286604051610a7691906113d5565b60405180910390a45050949350505050565b6002545f906001600160a01b031615610b2657600254604051631711922960e31b81526001600160a01b039091169063b88c91489062030d4090610ad09086906004016113d5565b6020604051808303818786fa93505050508015610b0a575060408051601f3d908101601f19168201909252610b07918101906115ec565b60015b15610b2657620186a08162ffffff1611610b245792915050565b505b60055f836001600160a01b031663d0c93a7c6040518163ffffffff1660e01b8152600401602060405180830381865afa158015610b65573d5f5f3e3d5ffd5b505050506040513d601f19601f82011682018060405250810190610b899190611607565b60020b815260208101919091526040015f205462ffffff1692915050565b60088181548110610bb6575f80fd5b5f918252602090912001546001600160a01b0316905081565b5f5f7f00000000000000000000000000000000000000000000000000000000000000006001600160a01b031663b9a09fd5846040518263ffffffff1660e01b8152600401610c1d91906113d5565b602060405180830381865afa158015610c38573d5f5f3e3d5ffd5b505050506040513d601f19601f82011682018060405250810190610c5c91906115d1565b604051631703e5f960e01b81529091506001600160a01b037f00000000000000000000000000000000000000000000000000000000000000001690631703e5f990610cab9084906004016113d5565b602060405180830381865afa158015610cc6573d5f5f3e3d5ffd5b505050506040513d601f19601f82011682018060405250810190610cea9190611622565b1580610cfd57506001600160a01b038116155b15610d0a57505f92915050565b6004546001600160a01b031615610da65760048054604051631711922960e31b81526001600160a01b039091169163b88c91489162030d4091610d4f918891016113d5565b6020604051808303818786fa93505050508015610d89575060408051601f3d908101601f19168201909252610d86918101906115ec565b60015b15610da657620f42408162ffffff1611610da4579392505050565b505b5050600454600160a01b900462ffffff16919050565b6001546001600160a01b03163314610de65760405162461bcd60e51b815260040161043590611553565b6001600160a01b038116610e0c5760405162461bcd60e51b81526004016104359061152d565b600280546001600160a01b038381166001600160a01b0319831681179093556040519116919082907fdf24ed64a7bcd761cf1132e79f94ea269a1d570e7a6ca0ab99a8f5ccd6f5022f905f90a35050565b6003546001600160a01b0316338114610e885760405162461bcd60e51b815260040161043590611553565b6001600160a01b038216610eae5760405162461bcd60e51b81526004016104359061152d565b600380546001600160a01b0319166001600160a01b0384811691821790925560405190918316907f3d7ebe96182c99643ca0c997a416a2a3409baab225f85f50c29fcf0591c820c1905f90a35050565b60606009805480602002602001604051908101604052809291908181526020018280548015610f6c57602002820191905f5260205f20905f905b825461010083900a900460020b8152602060058301819004938401936001036003909301929092029101808411610f385790505b5050505050905090565b6003546001600160a01b03163314610fa05760405162461bcd60e51b815260040161043590611553565b6207a1208162ffffff161115610fe75760405162461bcd60e51b815260206004820152600c60248201526b08ccaca40e8dede40d0d2ced60a31b6044820152606401610435565b6004805462ffffff838116600160a01b81810262ffffff60a01b1985161790945560405193909204169182907fcbca61144322b913ada4febfb591864cad7617559d7ee0d3e29b48eb93fcc78e905f90a35050565b5f546001600160a01b031633146110655760405162461bcd60e51b81526004016104359061150a565b61106f828261114e565b5050565b6001546001600160a01b031633811461109e5760405162461bcd60e51b815260040161043590611553565b6001600160a01b0382166110c45760405162461bcd60e51b81526004016104359061152d565b600180546001600160a01b0319166001600160a01b0384811691821790925560405190918316907f7ae0007229b3333719d97e8ef5829c888f560776012974f87409c158e5b7eb91905f90a35050565b5f61111f83836112d6565b90506001600160a01b038116611148576040516330be1a3d60e21b815260040160405180910390fd5b92915050565b5f8162ffffff1611801561116a5750620186a08162ffffff1611155b6111a45760405162461bcd60e51b815260206004820152600b60248201526a496e76616c69642066656560a81b6044820152606401610435565b5f8260020b1380156111ba57506140008260020b125b6111d65760405162461bcd60e51b81526004016104359061157c565b600282900b5f9081526005602052604090205462ffffff161561122d5760405162461bcd60e51b815260206004820152600f60248201526e105b1c9958591e48195b98589b1959608a1b6044820152606401610435565b600282900b5f81815260056020526040808220805462ffffff80871662ffffff19909216821790925560098054600181018255908552600a8082047f6e1540171b6c0c960b71a7020d9f60077f6af931a8bbf590da0223dacf75c7af018054858b16600393909406929092026101000a9283029290940219161790915590519092917febafae466a4a780a1d87f5fab2f52fad33be9151a7f69d099e8934c8de85b74791a35050565b5f6112e25f84846112e9565b9392505050565b5f6c5af43d3d93803e602a57fd5bf36021528260145273602c3d8160093d39f33d3d3d3d363d3d37363d735f52816035600c86f59050806113315763301164255f526004601cfd5b5f6021529392505050565b6001600160a01b0381168114611350575f5ffd5b50565b5f60208284031215611363575f5ffd5b81356112e28161133c565b8060020b8114611350575f5ffd5b5f5f5f5f6080858703121561138f575f5ffd5b843561139a8161133c565b935060208501356113aa8161133c565b925060408501356113ba8161136e565b915060608501356113ca8161133c565b939692955090935050565b6001600160a01b0391909116815260200190565b5f5f5f606084860312156113fb575f5ffd5b83356114068161133c565b925060208401356114168161133c565b915060408401356114268161136e565b809150509250925092565b5f60208284031215611441575f5ffd5b81356112e28161136e565b5f6020828403121561145c575f5ffd5b5035919050565b602080825282518282018190525f918401906040840190835b8181101561149d57835160020b83526020938401939092019160010161147c565b509095945050505050565b62ffffff81168114611350575f5ffd5b5f602082840312156114c8575f5ffd5b81356112e2816114a8565b5f5f604083850312156114e4575f5ffd5b82356114ef8161136e565b915060208301356114ff816114a8565b809150509250929050565b6020808252600990820152682737ba1037bbb732b960b91b604082015260600190565b6020808252600c908201526b5a65726f206164647265737360a01b604082015260600190565b6020808252600f908201526e2737ba103332b29036b0b730b3b2b960891b604082015260600190565b602080825260149082015273496e76616c6964207469636b2073706163696e6760601b604082015260600190565b6001600160a01b03938416815291909216602082015260029190910b604082015260600190565b5f602082840312156115e1575f5ffd5b81516112e28161133c565b5f602082840312156115fc575f5ffd5b81516112e2816114a8565b5f60208284031215611617575f5ffd5b81516112e28161136e565b5f60208284031215611632575f5ffd5b815180151581146112e2575f5ffdfea26469706673582212205cdfc137982ed6e0816c49ee979523476690a9d8a4b586c8e3609d19b703949a64736f6c634300081e0033","linkReferences":{}},"methodIdentifiers":{"allPools(uint256)":"41d1de97","allPoolsLength()":"efde4e64","createPool(address,address,int24,uint160)":"232aa5ac","defaultUnstakedFee()":"e2824832","enableTickSpacing(int24,uint24)":"eee0fdb4","factoryRegistry()":"3bf0c9fb","getPool(address,address,int24)":"28af8d0b","getSwapFee(address)":"35458dcc","getUnstakedFee(address)":"48cf7a43","isPool(address)":"5b16ebb7","legacyCLFactory()":"efca2d5d","owner()":"8da5cb5b","poolImplementation()":"cefa7799","setDefaultUnstakedFee(uint24)":"a2f97f42","setOwner(address)":"13af4035","setSwapFeeManager(address)":"ffb4d9d1","setSwapFeeModule(address)":"61b9c3ec","setUnstakedFeeManager(address)":"93ce8627","setUnstakedFeeModule(address)":"1b31d878","swapFeeManager()":"d574afa9","swapFeeModule()":"23c43a51","tickSpacingToFee(int24)":"380dc1c2","tickSpacings()":"9cbbbe86","unstakedFeeManager()":"82e189e0","unstakedFeeModule()":"7693bc11","voter()":"46c96aac"},"id":765}