{"abi":[{"type":"constructor","inputs":[{"name":"reserveAsset","type":"address","internalType":"contract IERC20Metadata"},{"name":"decimalOffset","type":"uint8","internalType":"uint8"},{"name":"permit2","type":"address","internalType":"contract IPermit2"}],"stateMutability":"nonpayable"},{"type":"function","name":"DOMAIN_SEPARATOR","inputs":[],"outputs":[{"name":"","type":"bytes32","internalType":"bytes32"}],"stateMutability":"view"},{"type":"function","name":"allowance","inputs":[{"name":"owner","type":"address","internalType":"address"},{"name":"spender","type":"address","internalType":"address"}],"outputs":[{"name":"","type":"uint256","internalType":"uint256"}],"stateMutability":"view"},{"type":"function","name":"approve","inputs":[{"name":"spender","type":"address","internalType":"address"},{"name":"amount","type":"uint256","internalType":"uint256"}],"outputs":[{"name":"","type":"bool","internalType":"bool"}],"stateMutability":"nonpayable"},{"type":"function","name":"asset","inputs":[],"outputs":[{"name":"","type":"address","internalType":"address"}],"stateMutability":"view"},{"type":"function","name":"balanceOf","inputs":[{"name":"account","type":"address","internalType":"address"}],"outputs":[{"name":"","type":"uint256","internalType":"uint256"}],"stateMutability":"view"},{"type":"function","name":"convertToAssets","inputs":[{"name":"shares","type":"uint256","internalType":"uint256"}],"outputs":[{"name":"assets","type":"uint256","internalType":"uint256"}],"stateMutability":"view"},{"type":"function","name":"convertToShares","inputs":[{"name":"assets","type":"uint256","internalType":"uint256"}],"outputs":[{"name":"shares","type":"uint256","internalType":"uint256"}],"stateMutability":"view"},{"type":"function","name":"decimals","inputs":[],"outputs":[{"name":"","type":"uint8","internalType":"uint8"}],"stateMutability":"view"},{"type":"function","name":"deposit","inputs":[{"name":"assets","type":"uint256","internalType":"uint256"},{"name":"receiver","type":"address","internalType":"address"}],"outputs":[{"name":"shares","type":"uint256","internalType":"uint256"}],"stateMutability":"nonpayable"},{"type":"function","name":"eip712Domain","inputs":[],"outputs":[{"name":"fields","type":"bytes1","internalType":"bytes1"},{"name":"name","type":"string","internalType":"string"},{"name":"version","type":"string","internalType":"string"},{"name":"chainId","type":"uint256","internalType":"uint256"},{"name":"verifyingContract","type":"address","internalType":"address"},{"name":"salt","type":"bytes32","internalType":"bytes32"},{"name":"extensions","type":"uint256[]","internalType":"uint256[]"}],"stateMutability":"view"},{"type":"function","name":"maxDeposit","inputs":[{"name":"","type":"address","internalType":"address"}],"outputs":[{"name":"maxDeposit_","type":"uint256","internalType":"uint256"}],"stateMutability":"pure"},{"type":"function","name":"maxMint","inputs":[{"name":"","type":"address","internalType":"address"}],"outputs":[{"name":"maxMint_","type":"uint256","internalType":"uint256"}],"stateMutability":"pure"},{"type":"function","name":"maxRedeem","inputs":[{"name":"account","type":"address","internalType":"address"}],"outputs":[{"name":"maxRedeem_","type":"uint256","internalType":"uint256"}],"stateMutability":"view"},{"type":"function","name":"maxWithdraw","inputs":[{"name":"account","type":"address","internalType":"address"}],"outputs":[{"name":"maxWithdraw_","type":"uint256","internalType":"uint256"}],"stateMutability":"view"},{"type":"function","name":"mint","inputs":[{"name":"shares","type":"uint256","internalType":"uint256"},{"name":"receiver","type":"address","internalType":"address"}],"outputs":[{"name":"assets","type":"uint256","internalType":"uint256"}],"stateMutability":"nonpayable"},{"type":"function","name":"name","inputs":[],"outputs":[{"name":"","type":"string","internalType":"string"}],"stateMutability":"view"},{"type":"function","name":"nonces","inputs":[{"name":"owner","type":"address","internalType":"address"}],"outputs":[{"name":"","type":"uint256","internalType":"uint256"}],"stateMutability":"view"},{"type":"function","name":"permit","inputs":[{"name":"owner","type":"address","internalType":"address"},{"name":"spender","type":"address","internalType":"address"},{"name":"value","type":"uint256","internalType":"uint256"},{"name":"deadline","type":"uint256","internalType":"uint256"},{"name":"v","type":"uint8","internalType":"uint8"},{"name":"r","type":"bytes32","internalType":"bytes32"},{"name":"s","type":"bytes32","internalType":"bytes32"}],"outputs":[],"stateMutability":"nonpayable"},{"type":"function","name":"previewDeposit","inputs":[{"name":"assets","type":"uint256","internalType":"uint256"}],"outputs":[{"name":"shares","type":"uint256","internalType":"uint256"}],"stateMutability":"view"},{"type":"function","name":"previewMint","inputs":[{"name":"shares","type":"uint256","internalType":"uint256"}],"outputs":[{"name":"assets","type":"uint256","internalType":"uint256"}],"stateMutability":"view"},{"type":"function","name":"previewRedeem","inputs":[{"name":"shares","type":"uint256","internalType":"uint256"}],"outputs":[{"name":"assets","type":"uint256","internalType":"uint256"}],"stateMutability":"view"},{"type":"function","name":"previewWithdraw","inputs":[{"name":"assets","type":"uint256","internalType":"uint256"}],"outputs":[{"name":"shares","type":"uint256","internalType":"uint256"}],"stateMutability":"view"},{"type":"function","name":"redeem","inputs":[{"name":"shares","type":"uint256","internalType":"uint256"},{"name":"receiver","type":"address","internalType":"address"},{"name":"owner","type":"address","internalType":"address"}],"outputs":[{"name":"assets","type":"uint256","internalType":"uint256"}],"stateMutability":"nonpayable"},{"type":"function","name":"symbol","inputs":[],"outputs":[{"name":"","type":"string","internalType":"string"}],"stateMutability":"view"},{"type":"function","name":"totalAssets","inputs":[],"outputs":[{"name":"","type":"uint256","internalType":"uint256"}],"stateMutability":"view"},{"type":"function","name":"totalSupply","inputs":[],"outputs":[{"name":"","type":"uint256","internalType":"uint256"}],"stateMutability":"view"},{"type":"function","name":"transfer","inputs":[{"name":"recipient","type":"address","internalType":"address"},{"name":"amount","type":"uint256","internalType":"uint256"}],"outputs":[{"name":"","type":"bool","internalType":"bool"}],"stateMutability":"nonpayable"},{"type":"function","name":"transferFrom","inputs":[{"name":"owner","type":"address","internalType":"address"},{"name":"recipient","type":"address","internalType":"address"},{"name":"amount","type":"uint256","internalType":"uint256"}],"outputs":[{"name":"","type":"bool","internalType":"bool"}],"stateMutability":"nonpayable"},{"type":"function","name":"withdraw","inputs":[{"name":"assets","type":"uint256","internalType":"uint256"},{"name":"receiver","type":"address","internalType":"address"},{"name":"owner","type":"address","internalType":"address"}],"outputs":[{"name":"shares","type":"uint256","internalType":"uint256"}],"stateMutability":"nonpayable"},{"type":"event","name":"Approval","inputs":[{"name":"owner","type":"address","indexed":true,"internalType":"address"},{"name":"spender","type":"address","indexed":true,"internalType":"address"},{"name":"amount","type":"uint256","indexed":false,"internalType":"uint256"}],"anonymous":false},{"type":"event","name":"Deposit","inputs":[{"name":"sender","type":"address","indexed":true,"internalType":"address"},{"name":"owner","type":"address","indexed":true,"internalType":"address"},{"name":"assets","type":"uint256","indexed":false,"internalType":"uint256"},{"name":"shares","type":"uint256","indexed":false,"internalType":"uint256"}],"anonymous":false},{"type":"event","name":"EIP712DomainChanged","inputs":[],"anonymous":false},{"type":"event","name":"Transfer","inputs":[{"name":"from","type":"address","indexed":true,"internalType":"address"},{"name":"to","type":"address","indexed":true,"internalType":"address"},{"name":"amount","type":"uint256","indexed":false,"internalType":"uint256"}],"anonymous":false},{"type":"event","name":"Withdraw","inputs":[{"name":"sender","type":"address","indexed":true,"internalType":"address"},{"name":"receiver","type":"address","indexed":true,"internalType":"address"},{"name":"owner","type":"address","indexed":true,"internalType":"address"},{"name":"assets","type":"uint256","indexed":false,"internalType":"uint256"},{"name":"shares","type":"uint256","indexed":false,"internalType":"uint256"}],"anonymous":false},{"type":"error","name":"ERC20InsufficientAllowance","inputs":[{"name":"spender","type":"address","internalType":"address"},{"name":"allowance","type":"uint256","internalType":"uint256"},{"name":"needed","type":"uint256","internalType":"uint256"}]},{"type":"error","name":"ERC20InsufficientBalance","inputs":[{"name":"sender","type":"address","internalType":"address"},{"name":"balance","type":"uint256","internalType":"uint256"},{"name":"needed","type":"uint256","internalType":"uint256"}]},{"type":"error","name":"ERC20InvalidApprover","inputs":[{"name":"approver","type":"address","internalType":"address"}]},{"type":"error","name":"ERC20InvalidReceiver","inputs":[{"name":"receiver","type":"address","internalType":"address"}]},{"type":"error","name":"ERC20InvalidSender","inputs":[{"name":"sender","type":"address","internalType":"address"}]},{"type":"error","name":"ERC20InvalidSpender","inputs":[{"name":"spender","type":"address","internalType":"address"}]},{"type":"error","name":"ERC2612ExpiredSignature","inputs":[{"name":"deadline","type":"uint256","internalType":"uint256"}]},{"type":"error","name":"ERC2612InvalidSigner","inputs":[{"name":"signer","type":"address","internalType":"address"},{"name":"owner","type":"address","internalType":"address"}]},{"type":"error","name":"ERC4626TransferNotReceived","inputs":[{"name":"expected","type":"uint256","internalType":"uint256"},{"name":"actual","type":"uint256","internalType":"uint256"}]},{"type":"error","name":"InvalidAccountNonce","inputs":[{"name":"account","type":"address","internalType":"address"},{"name":"currentNonce","type":"uint256","internalType":"uint256"}]},{"type":"error","name":"InvalidShortString","inputs":[]},{"type":"error","name":"IsLocked","inputs":[]}],"bytecode":{"object":"0x608060405234801561000f575f5ffd5b5060405161259b38038061259b83398101604081905261002e91610372565b5f6100416001600160a01b038516610117565b90505f846001600160a01b03166306fdde036040518163ffffffff1660e01b81526004015f60405180830381865afa15801561007f573d5f5f3e3d5ffd5b505050506040513d5f823e601f3d908101601f191682016040526100a691908101906103d5565b90505f816040516020016100ba919061049c565b60408051601f19818403018152828201909152600782526622a9219a1b191b60c91b602083015291506100f89082906100f388876104c8565b6101e5565b6101038684876101fd565b61010c8461025e565b505050505050610652565b60408051600481526024810182526020810180516001600160e01b031663313ce56760e01b17905290515f91829182916001600160a01b0386169161015c91906104f3565b5f60405180830381855afa9150503d805f8114610194576040519150601f19603f3d011682016040523d82523d5f602084013e610199565b606091505b50915091508180156101ad57506020815110155b156101db575f818060200190518101906101c791906104fe565b905060ff81116101d957949350505050565b505b5060129392505050565b6101f86101f0610287565b8484846102df565b505050565b6101f87f14ce67821cd930247cda3561a8613121cef312aab4c97bcc298f53c085bd93e0805460ff808516600160a81b0260ff60a81b19918716600160a01b026001600160a81b03199093166001600160a01b038916179290921716179055565b610284610269610316565b80546001600160a01b0319166001600160a01b038416179055565b50565b5f6102da6040516020016102b9906020808252600a908201526906569702e6572632e32360b41b604082015260600190565b6040516020818303038152906040528051906020012061035b60201b60201c565b905090565b836102ea8482610598565b50600184016102f98382610598565b50600293909301805460ff191660ff909416939093179092555050565b5f6102da6040516020016102b9906020808252601d908201527f70726f746f636f6c732e7574696c732e7065726d6974322e6177617265000000604082015260600190565b90565b6001600160a01b0381168114610284575f5ffd5b5f5f5f60608486031215610384575f5ffd5b835161038f8161035e565b602085015190935060ff811681146103a5575f5ffd5b60408501519092506103b68161035e565b809150509250925092565b634e487b7160e01b5f52604160045260245ffd5b5f602082840312156103e5575f5ffd5b81516001600160401b038111156103fa575f5ffd5b8201601f8101841361040a575f5ffd5b80516001600160401b03811115610423576104236103c1565b604051601f8201601f19908116603f011681016001600160401b0381118282101715610451576104516103c1565b604052818152828201602001861015610468575f5ffd5b8160208401602083015e5f91810160200191909152949350505050565b5f81518060208401855e5f93019283525090919050565b70022a9219a1b191b102b30bab63a1037b31607d1b81525f6104c16011830184610485565b9392505050565b60ff81811683821601908111156104ed57634e487b7160e01b5f52601160045260245ffd5b92915050565b5f6104c18284610485565b5f6020828403121561050e575f5ffd5b5051919050565b600181811c9082168061052957607f821691505b60208210810361054757634e487b7160e01b5f52602260045260245ffd5b50919050565b601f8211156101f857805f5260205f20601f840160051c810160208510156105725750805b601f840160051c820191505b81811015610591575f815560010161057e565b5050505050565b81516001600160401b038111156105b1576105b16103c1565b6105c5816105bf8454610515565b8461054d565b6020601f8211600181146105f7575f83156105e05750848201515b5f19600385901b1c1916600184901b178455610591565b5f84815260208120601f198516915b828110156106265787850151825560209485019460019092019101610606565b508482101561064357868401515f19600387901b60f8161c191681555b50505050600190811b01905550565b611f3c8061065f5f395ff3fe608060405234801561000f575f5ffd5b506004361061015d575f3560e01c806301e1d1141461016157806306fdde031461017c57806307a2d13a14610191578063095ea7b3146101a45780630a28a477146101c757806318160ddd146101da57806323b872dd146101e2578063313ce567146101f55780633644e5151461020f57806338d52e0f14610217578063402d267d1461022c5780634cdad506146102405780636e553f651461025357806370a08231146102665780637ecebe001461027957806384b0196e1461028c57806394bf804d146102a757806395d89b41146102ba578063a9059cbb146102c2578063b3d7f6b9146102d5578063b460af94146102e8578063ba087652146102fb578063c63d75b61461022c578063c6e6f5921461030e578063ce96cb7714610321578063d505accf14610334578063d905777e14610266578063dd62ed3e14610349578063ef8b30f71461035c575b5f5ffd5b61016961036f565b6040519081526020015b60405180910390f35b61018461037d565b6040516101739190611a01565b61016961019f366004611a13565b610387565b6101b76101b2366004611a40565b6103c9565b6040519015158152602001610173565b6101696101d5366004611a13565b6103df565b610169610411565b6101b76101f0366004611a68565b61041a565b6101fd610431565b60405160ff9091168152602001610173565b61016961043a565b61021f610443565b6040516101739190611aa2565b61016961023a366004611ab6565b505f1990565b61016961024e366004611a13565b61044c565b610169610261366004611acf565b610471565b610169610274366004611ab6565b61052a565b610169610287366004611ab6565b610534565b61029461053e565b6040516101739796959493929190611af9565b6101696102b5366004611acf565b61058e565b610184610645565b6101b76102d0366004611a40565b61064f565b6101696102e3366004611a13565b61065b565b6101696102f6366004611b8f565b610680565b610169610309366004611b8f565b610807565b61016961031c366004611a13565b610978565b61016961032f366004611ab6565b6109ac565b610347610342366004611bc8565b6109dd565b005b610169610357366004611c35565b610af4565b61016961036a366004611a13565b610aff565b5f610378610b24565b905090565b6060610378610b36565b5f5f610391610b48565b90505f61039f826001015490565b90505f6103aa610b6c565b90506103c08583836103bb87610b7f565b610b8d565b95945050505050565b5f6103d5338484610b9b565b5060015b92915050565b5f5f6103e9610b24565b90505f6103f4610b6c565b9050610409848383610404610bb3565b610bcc565b949350505050565b5f610378610b6c565b5f610426848484610bdb565b5060015b9392505050565b5f610378610bee565b5f610378610c04565b5f610378610c15565b5f5f610456610b24565b90505f610461610b6c565b90506104098483836103bb610bb3565b5f61047a610c2d565b610482610c55565b5f61048b610b48565b90505f610499826001015490565b90505f6104a7838388610c8b565b90505f6104b2610ed1565b90505f6104c0826003015490565b90506104d68385836104d189610b7f565b610f03565b95506104e3828888610f11565b866001600160a01b0316336001600160a01b03165f516020611ee75f395f51905f528589604051610515929190611c5d565b60405180910390a350505050506103d9610f8c565b5f6103d982610fa2565b5f6103d982610fcd565b5f6060805f5f5f60605f610550610ff5565b905061055b81611028565b6105648261103d565b604080515f80825260208201909252600f60f81b9c939b5091995046985030975095509350915050565b5f610597610c2d565b61059f610c55565b5f6105a8610b48565b90505f6105b6826001015490565b90505f6105c1610ed1565b90505f6105cf826003015490565b90506105e58784836105e088610b7f565b611052565b94506105f2848487610c8b565b94506105ff828789610f11565b856001600160a01b0316336001600160a01b03165f516020611ee75f395f51905f52878a604051610631929190611c5d565b60405180910390a3505050506103d9610f8c565b6060610378611061565b5f6103d5338484611073565b5f5f610665610b24565b90505f610670610b6c565b90506104098483836105e0610bb3565b5f610689610c2d565b610691610c55565b5f61069a610b48565b90505f6106a8826001015490565b90505f6106b3610ed1565b90505f6106c1826003015490565b90506106d18884836104d1610bb3565b9450336001600160a01b03871614806106f257506001600160a01b03861630145b1561070757610702828787611086565b61071e565b610713828733886110f8565b61071e828787611086565b5f61072885611172565b905061073e6001600160a01b038216898b61117f565b506040516370a0823160e01b81525f906001600160a01b038316906370a082319061076d903090600401611aa2565b602060405180830381865afa158015610788573d5f5f3e3d5ffd5b505050506040513d601f19601f820116820180604052508101906107ac9190611c6b565b600187018190559050876001600160a01b0316896001600160a01b0316336001600160a01b03165f516020611ea75f395f51905f528d8b6040516107f1929190611c5d565b60405180910390a450505050505061042a610f8c565b5f610810610c2d565b610818610c55565b5f610821610b48565b90505f61082c610ed1565b90505f61083a836001015490565b90505f610848836003015490565b90506108588883836103bb610bb3565b9450336001600160a01b038716148061087957506001600160a01b03861630145b1561088e5761088983878a611086565b6108a5565b61089a8387338b6110f8565b6108a583878a611086565b5f6108af85611172565b90506108c56001600160a01b038216898861117f565b506040516370a0823160e01b81525f906001600160a01b038316906370a08231906108f4903090600401611aa2565b602060405180830381865afa15801561090f573d5f5f3e3d5ffd5b505050506040513d601f19601f820116820180604052508101906109339190611c6b565b600187018190559050876001600160a01b0316896001600160a01b0316336001600160a01b03165f516020611ea75f395f51905f528a8e6040516107f1929190611c5d565b5f5f610982610b48565b90505f610990826001015490565b90505f61099b610b6c565b90506103c08583836104d187610b7f565b5f5f6109b6610b24565b90505f6109c1610b6c565b90505f6109cd85610fa2565b90506103c08184846103bb610bb3565b83421115610a065760405163313c898160e11b8152600481018590526024015b60405180910390fd5b5f610a8a7f6e71edae12b1b97f4d1f60370fef10105fa2faae0126114a169c64845d6126c9898989610a378d611194565b6040805160208101969096526001600160a01b0394851690860152929091166060840152608083015260a082015260c0810187905260e0015b604051602081830303815290604052805160209091012090565b90505f610a96826111c4565b90505f610aa5828787876111d6565b9050896001600160a01b0316816001600160a01b031614610add57808a6040516325c0072360e11b81526004016109fd929190611c82565b610ae88a8a8a610b9b565b50505050505050505050565b5f61042a83836111e3565b5f5f610b09610b24565b90505f610b14610b6c565b90506104098483836104d1610bb3565b5f610b2d610b48565b60010154905090565b6060610378610b43610ed1565b6111f6565b7f14ce67821cd930247cda3561a8613121cef312aab4c97bcc298f53c085bd93e090565b5f610378610b78610ed1565b6003015490565b54600160a81b900460ff1690565b5f6103c0858585855f611289565b610bae610ba6610ed1565b8484846112c0565b505050565b5f610bbc610b48565b54600160a81b900460ff16919050565b5f6103c085858585600161134d565b610bae610be6610ed1565b848484611371565b5f610378610bfa610ed1565b6002015460ff1690565b5f610378610c10610ff5565b61138f565b5f610c1e610b48565b546001600160a01b0316919050565b610c356113c8565b15610c535760405163caa30f5560e01b815260040160405180910390fd5b565b610c536001610c85604051602001610c6c90611c9c565b6040516020818303038152906040528051906020012090565b906113e2565b5f5f610c9685611172565b90505f816001600160a01b03166370a08231306040518263ffffffff1660e01b8152600401610cc59190611aa2565b602060405180830381865afa158015610ce0573d5f5f3e3d5ffd5b505050506040513d601f19601f82011682018060405250810190610d049190611c6b565b9050610d108582611ce1565b9250838314610e9d57604051636eb1769f60e11b81525f906001600160a01b0384169063dd62ed3e90610d499033903090600401611c82565b602060405180830381865afa158015610d64573d5f5f3e3d5ffd5b505050506040513d601f19601f82011682018060405250810190610d889190611c6b565b905084811015610e0b57610d9a6113e9565b604051631b63c28b60e11b81523360048201523060248201526001600160a01b038781166044830152858116606483015291909116906336c78516906084015f604051808303815f87803b158015610df0575f5ffd5b505af1158015610e02573d5f5f3e3d5ffd5b50505050610e22565b610e206001600160a01b0384163330886113fa565b505b6040516370a0823160e01b81526001600160a01b038416906370a0823190610e4e903090600401611aa2565b602060405180830381865afa158015610e69573d5f5f3e3d5ffd5b505050506040513d601f19601f82011682018060405250810190610e8d9190611c6b565b9150610e998683611ce1565b9350505b838314610ec1578383604051630a1665cf60e31b81526004016109fd929190611c5d565b6001860181905550509392505050565b5f610378604051602001610c6c906020808252600a908201526906569702e6572632e32360b41b604082015260600190565b5f6103c0858585855f61134d565b6001600160a01b0382165f90815260048401602052604081208054839290610f3a908490611cf4565b9250508190555080836003015f828254610f549190611cf4565b90915550506040518181526001600160a01b038316905f905f516020611ec75f395f51905f52906020015b60405180910390a3505050565b610c535f610c85604051602001610c6c90611c9c565b5f6103d9610fae610ed1565b836001600160a01b03165f908152600491909101602052604090205490565b5f6103d9610fd961141b565b836001600160a01b03165f908152602091909152604090205490565b5f610378604051602001610c6c906020808252600b908201526a32b4b81732b4b8171b989960a91b604082015260600190565b60058101546060906103d9906007840161144f565b60068101546060906103d9906008840161144f565b5f6103c0858585856001611289565b606061037861106e610ed1565b6114f8565b610bae61107e610ed1565b848484611509565b6001600160a01b0382165f908152600484016020526040812080548392906110af908490611ce1565b9250508190555080836003015f8282546110c99190611ce1565b90915550506040518181525f906001600160a01b038416905f516020611ec75f395f51905f5290602001610f7f565b6001600160a01b0382166111215781604051634a1406b160e11b81526004016109fd9190611aa2565b5f61112d858585611571565b90508181101561115657828183604051637dc7a0d960e11b81526004016109fd93929190611d07565b61116b8585856111668686611ce1565b6112c0565b5050505050565b546001600160a01b031690565b5f6104266001600160a01b038516848461159d565b5f6103d96111a061141b565b836001600160a01b03165f9081526020919091526040902080546001810190915590565b5f6103d96111d0610ff5565b836115a8565b5f6103c0858585856115d5565b5f61042a6111ef610ed1565b8484611571565b6060815f01805461120690611d28565b80601f016020809104026020016040519081016040528092919081815260200182805461123290611d28565b801561127d5780601f106112545761010080835404028352916020019161127d565b820191905f5260205f20905b81548152906001019060200180831161126057829003601f168201915b50505050509050919050565b5f6112b6611298866001611cf4565b6112a385600a611e43565b6112ad9087611cf4565b8891908561161a565b9695505050505050565b6001600160a01b0382166112e95781604051634a1406b160e11b81526004016109fd9190611aa2565b6001600160a01b038381165f81815260058701602090815260408083209487168084529482529182902085905590518481527f8c5be1e5ebec7d5bd14f71427d1e84f3dd0314c0f7b2291e5b200ac8c7c3b92591015b60405180910390a350505050565b5f6112b661135c84600a611e43565b6113669086611cf4565b6112ad876001611cf4565b61137d848433846110f8565b61138984848484611509565b50505050565b60028101545f906001600160a01b0316301480156113b05750816001015446145b156113ba57505490565b6103d982611627565b919050565b5f6103786113de604051602001610c6c90611c9c565b5c90565b80825d5050565b5f6103786113f5611681565b611172565b5f6114106001600160a01b0386168585856116c6565b506001949350505050565b5f610378604051602001610c6c906020808252600c908201526b32b4b81732b93197191b189960a11b604082015260600190565b606060ff831461146957611462836116d2565b90506103d9565b81805461147590611d28565b80601f01602080910402602001604051908101604052809291908181526020018280546114a190611d28565b80156114ec5780601f106114c3576101008083540402835291602001916114ec565b820191905f5260205f20905b8154815290600101906020018083116114cf57829003601f168201915b505050505090506103d9565b606081600101805461120690611d28565b336115295733604051634a1406b160e11b81526004016109fd9190611aa2565b61153484848361170f565b61153f8483836117a4565b816001600160a01b0316836001600160a01b03165f516020611ec75f395f51905f528360405161133f91815260200190565b6001600160a01b039182165f908152600593909301602090815260408085209290931684525290205490565b610bae838383611800565b5f61042a6115b58461138f565b8360405161190160f01b8152600281019290925260228201526042902090565b5f604051855f5260ff851660205283604052826060526020600160805f60015afa5191503d61160b57638baa579f5f526004601cfd5b5f606052604052949350505050565b5f6103c08585858561184a565b60038101546004820154604080517f8b73c3c69bb8fe3d512ecc4cf759cc79239f7b179b0ffacaa9a75d522b39400f60208201529081019290925260608201524660808201523060a08201525f906103d99060c001610a70565b5f610378604051602001610c6c906020808252601d908201527f70726f746f636f6c732e7574696c732e7065726d6974322e6177617265000000604082015260600190565b6113898484848461188d565b60605f6116de836118e6565b6040805160208082528183019092529192505f91906020820181803683375050509182525060208101929092525090565b6001600160a01b0382166117385781604051634b637e8f60e11b81526004016109fd9190611aa2565b6001600160a01b0382165f908152600484016020526040902054818110156117795782818360405163391434e360e21b81526004016109fd93929190611d07565b6117838282611ce1565b6001600160a01b039093165f90815260049094016020525050604090912055565b6001600160a01b0382166117cd578160405163ec442f0560e01b81526004016109fd9190611aa2565b6001600160a01b0382165f908152600484016020526040812080548392906117f6908490611cf4565b9091555050505050565b816014528060345263a9059cbb60601b5f5260205f604460105f875af18060015f51141661184057803d853b151710611840576390b8ec185f526004601cfd5b505f603452505050565b5f5f61185786868661190d565b905061186283611919565b801561187d57505f848061187857611878611e51565b868809115b156103c0576112b6600182611cf4565b60405181606052826040528360601b602c526323b872dd60601b600c5260205f6064601c5f895af18060015f5114166118d857803d873b1517106118d857637939f4245f526004601cfd5b505f60605260405250505050565b5f60ff8216601f8111156103d957604051632cd44ac360e21b815260040160405180910390fd5b5f610409848484611945565b5f600282600381111561192e5761192e611e65565b6119389190611e79565b60ff166001149050919050565b828202818385830414851517026119cc575f198385098181108201900382848609835f03841682851161197f5763ae47f7025f526004601cfd5b93849004938382119092035f83900383900460010102920304176002600383028118808402820302808402820302808402820302808402820302808402820302808402909103020261042a565b0492915050565b5f81518084528060208401602086015e5f602082860101526020601f19601f83011685010191505092915050565b602081525f61042a60208301846119d3565b5f60208284031215611a23575f5ffd5b5035919050565b80356001600160a01b03811681146113c3575f5ffd5b5f5f60408385031215611a51575f5ffd5b611a5a83611a2a565b946020939093013593505050565b5f5f5f60608486031215611a7a575f5ffd5b611a8384611a2a565b9250611a9160208501611a2a565b929592945050506040919091013590565b6001600160a01b0391909116815260200190565b5f60208284031215611ac6575f5ffd5b61042a82611a2a565b5f5f60408385031215611ae0575f5ffd5b82359150611af060208401611a2a565b90509250929050565b60ff60f81b8816815260e060208201525f611b1760e08301896119d3565b8281036040840152611b2981896119d3565b606084018890526001600160a01b038716608085015260a0840186905283810360c0850152845180825260208087019350909101905f5b81811015611b7e578351835260209384019390920191600101611b60565b50909b9a5050505050505050505050565b5f5f5f60608486031215611ba1575f5ffd5b83359250611bb160208501611a2a565b9150611bbf60408501611a2a565b90509250925092565b5f5f5f5f5f5f5f60e0888a031215611bde575f5ffd5b611be788611a2a565b9650611bf560208901611a2a565b95506040880135945060608801359350608088013560ff81168114611c18575f5ffd5b9699959850939692959460a0840135945060c09093013592915050565b5f5f60408385031215611c46575f5ffd5b611c4f83611a2a565b9150611af060208401611a2a565b918252602082015260400190565b5f60208284031215611c7b575f5ffd5b5051919050565b6001600160a01b0392831681529116602082015260400190565b6020808252601790820152766372616e652e6163636573732e7265656e7472616e637960481b604082015260600190565b634e487b7160e01b5f52601160045260245ffd5b818103818111156103d9576103d9611ccd565b808201808211156103d9576103d9611ccd565b6001600160a01b039390931683526020830191909152604082015260600190565b600181811c90821680611d3c57607f821691505b602082108103611d5a57634e487b7160e01b5f52602260045260245ffd5b50919050565b6001815b6001841115611d9b57808504811115611d7f57611d7f611ccd565b6001841615611d8d57908102905b60019390931c928002611d64565b935093915050565b5f82611db1575060016103d9565b81611dbd57505f6103d9565b8160018114611dd35760028114611ddd57611df9565b60019150506103d9565b60ff841115611dee57611dee611ccd565b50506001821b6103d9565b5060208310610133831016604e8410600b8410161715611e1c575081810a6103d9565b611e285f198484611d60565b805f1904821115611e3b57611e3b611ccd565b029392505050565b5f61042a60ff841683611da3565b634e487b7160e01b5f52601260045260245ffd5b634e487b7160e01b5f52602160045260245ffd5b5f60ff831680611e9757634e487b7160e01b5f52601260045260245ffd5b8060ff8416069150509291505056fefbde797d201c681b91056529119e0b02407c7bb96a4a2c75c01fc9667232c8dbddf252ad1be2c89b69c2b068fc378daa952ba7f163c4a11628f55a4df523b3efdcbc1c05240f31ff3ad067ef1ee35ce4997762752e3a095284754544f4c709d7a26469706673582212203c770d0349eea9e4cd662940fb25a0bd54cbb3d2e72049d369d32ca7698d3b9e64736f6c634300081e0033","linkReferences":{}},"methodIdentifiers":{"DOMAIN_SEPARATOR()":"3644e515","allowance(address,address)":"dd62ed3e","approve(address,uint256)":"095ea7b3","asset()":"38d52e0f","balanceOf(address)":"70a08231","convertToAssets(uint256)":"07a2d13a","convertToShares(uint256)":"c6e6f592","decimals()":"313ce567","deposit(uint256,address)":"6e553f65","eip712Domain()":"84b0196e","maxDeposit(address)":"402d267d","maxMint(address)":"c63d75b6","maxRedeem(address)":"d905777e","maxWithdraw(address)":"ce96cb77","mint(uint256,address)":"94bf804d","name()":"06fdde03","nonces(address)":"7ecebe00","permit(address,address,uint256,uint256,uint8,bytes32,bytes32)":"d505accf","previewDeposit(uint256)":"ef8b30f7","previewMint(uint256)":"b3d7f6b9","previewRedeem(uint256)":"4cdad506","previewWithdraw(uint256)":"0a28a477","redeem(uint256,address,address)":"ba087652","symbol()":"95d89b41","totalAssets()":"01e1d114","totalSupply()":"18160ddd","transfer(address,uint256)":"a9059cbb","transferFrom(address,address,uint256)":"23b872dd","withdraw(uint256,address,address)":"b460af94"},"id":1340}