{"abi":[{"type":"constructor","inputs":[{"name":"mainVault","type":"address","internalType":"contract IVault"},{"name":"pauseWindowDuration","type":"uint32","internalType":"uint32"},{"name":"bufferPeriodDuration","type":"uint32","internalType":"uint32"},{"name":"minTradeAmount","type":"uint256","internalType":"uint256"},{"name":"minWrapAmount","type":"uint256","internalType":"uint256"}],"stateMutability":"nonpayable"},{"type":"fallback","stateMutability":"payable"},{"type":"receive","stateMutability":"payable"},{"type":"function","name":"addLiquidityToBuffer","inputs":[{"name":"wrappedToken","type":"address","internalType":"contract IERC4626"},{"name":"maxAmountUnderlyingInRaw","type":"uint256","internalType":"uint256"},{"name":"maxAmountWrappedInRaw","type":"uint256","internalType":"uint256"},{"name":"exactSharesToIssue","type":"uint256","internalType":"uint256"},{"name":"sharesOwner","type":"address","internalType":"address"}],"outputs":[{"name":"amountUnderlyingRaw","type":"uint256","internalType":"uint256"},{"name":"amountWrappedRaw","type":"uint256","internalType":"uint256"}],"stateMutability":"nonpayable"},{"type":"function","name":"addLiquidityToBufferUnbalancedForTests","inputs":[{"name":"wrappedToken","type":"address","internalType":"contract IERC4626"},{"name":"underlyingAmount","type":"uint256","internalType":"uint256"},{"name":"wrappedAmount","type":"uint256","internalType":"uint256"}],"outputs":[],"stateMutability":"nonpayable"},{"type":"function","name":"areBuffersPaused","inputs":[],"outputs":[{"name":"","type":"bool","internalType":"bool"}],"stateMutability":"view"},{"type":"function","name":"collectAggregateFees","inputs":[{"name":"pool","type":"address","internalType":"address"}],"outputs":[{"name":"totalSwapFees","type":"uint256[]","internalType":"uint256[]"},{"name":"totalYieldFees","type":"uint256[]","internalType":"uint256[]"}],"stateMutability":"nonpayable"},{"type":"function","name":"disableQuery","inputs":[],"outputs":[],"stateMutability":"nonpayable"},{"type":"function","name":"disableQueryPermanently","inputs":[],"outputs":[],"stateMutability":"nonpayable"},{"type":"function","name":"disableRecoveryMode","inputs":[{"name":"pool","type":"address","internalType":"address"}],"outputs":[],"stateMutability":"nonpayable"},{"type":"function","name":"enableQuery","inputs":[],"outputs":[],"stateMutability":"nonpayable"},{"type":"function","name":"enableRecoveryMode","inputs":[{"name":"pool","type":"address","internalType":"address"}],"outputs":[],"stateMutability":"nonpayable"},{"type":"function","name":"getActionId","inputs":[{"name":"selector","type":"bytes4","internalType":"bytes4"}],"outputs":[{"name":"","type":"bytes32","internalType":"bytes32"}],"stateMutability":"view"},{"type":"function","name":"getBufferAsset","inputs":[{"name":"wrappedToken","type":"address","internalType":"contract IERC4626"}],"outputs":[{"name":"underlyingToken","type":"address","internalType":"address"}],"stateMutability":"view"},{"type":"function","name":"getBufferBalance","inputs":[{"name":"token","type":"address","internalType":"contract IERC4626"}],"outputs":[{"name":"","type":"uint256","internalType":"uint256"},{"name":"","type":"uint256","internalType":"uint256"}],"stateMutability":"view"},{"type":"function","name":"getBufferMinimumTotalSupply","inputs":[],"outputs":[{"name":"","type":"uint256","internalType":"uint256"}],"stateMutability":"pure"},{"type":"function","name":"getBufferOwnerShares","inputs":[{"name":"token","type":"address","internalType":"contract IERC4626"},{"name":"user","type":"address","internalType":"address"}],"outputs":[{"name":"shares","type":"uint256","internalType":"uint256"}],"stateMutability":"view"},{"type":"function","name":"getBufferPeriodDuration","inputs":[],"outputs":[{"name":"","type":"uint32","internalType":"uint32"}],"stateMutability":"view"},{"type":"function","name":"getBufferPeriodEndTime","inputs":[],"outputs":[{"name":"","type":"uint32","internalType":"uint32"}],"stateMutability":"view"},{"type":"function","name":"getBufferTotalShares","inputs":[{"name":"token","type":"address","internalType":"contract IERC4626"}],"outputs":[{"name":"shares","type":"uint256","internalType":"uint256"}],"stateMutability":"view"},{"type":"function","name":"getMaximumPoolTokens","inputs":[],"outputs":[{"name":"","type":"uint256","internalType":"uint256"}],"stateMutability":"pure"},{"type":"function","name":"getMinimumPoolTokens","inputs":[],"outputs":[{"name":"","type":"uint256","internalType":"uint256"}],"stateMutability":"pure"},{"type":"function","name":"getMinimumTradeAmount","inputs":[],"outputs":[{"name":"","type":"uint256","internalType":"uint256"}],"stateMutability":"view"},{"type":"function","name":"getMinimumWrapAmount","inputs":[],"outputs":[{"name":"","type":"uint256","internalType":"uint256"}],"stateMutability":"view"},{"type":"function","name":"getPauseWindowEndTime","inputs":[],"outputs":[{"name":"","type":"uint32","internalType":"uint32"}],"stateMutability":"view"},{"type":"function","name":"getPoolMinimumTotalSupply","inputs":[],"outputs":[{"name":"","type":"uint256","internalType":"uint256"}],"stateMutability":"pure"},{"type":"function","name":"getVaultPausedState","inputs":[],"outputs":[{"name":"","type":"bool","internalType":"bool"},{"name":"","type":"uint32","internalType":"uint32"},{"name":"","type":"uint32","internalType":"uint32"}],"stateMutability":"view"},{"type":"function","name":"initializeBuffer","inputs":[{"name":"wrappedToken","type":"address","internalType":"contract IERC4626"},{"name":"amountUnderlyingRaw","type":"uint256","internalType":"uint256"},{"name":"amountWrappedRaw","type":"uint256","internalType":"uint256"},{"name":"minIssuedShares","type":"uint256","internalType":"uint256"},{"name":"sharesOwner","type":"address","internalType":"address"}],"outputs":[{"name":"issuedShares","type":"uint256","internalType":"uint256"}],"stateMutability":"nonpayable"},{"type":"function","name":"isVaultPaused","inputs":[],"outputs":[{"name":"","type":"bool","internalType":"bool"}],"stateMutability":"view"},{"type":"function","name":"manualBurnBufferShares","inputs":[{"name":"wrappedToken","type":"address","internalType":"contract IERC4626"},{"name":"from","type":"address","internalType":"address"},{"name":"amount","type":"uint256","internalType":"uint256"}],"outputs":[],"stateMutability":"nonpayable"},{"type":"function","name":"manualDisableRecoveryMode","inputs":[{"name":"pool","type":"address","internalType":"address"}],"outputs":[],"stateMutability":"nonpayable"},{"type":"function","name":"manualEnableRecoveryMode","inputs":[{"name":"pool","type":"address","internalType":"address"}],"outputs":[],"stateMutability":"nonpayable"},{"type":"function","name":"manualMintBufferShares","inputs":[{"name":"wrappedToken","type":"address","internalType":"contract IERC4626"},{"name":"to","type":"address","internalType":"address"},{"name":"amount","type":"uint256","internalType":"uint256"}],"outputs":[],"stateMutability":"nonpayable"},{"type":"function","name":"manualMintMinimumBufferSupplyReserve","inputs":[{"name":"wrappedToken","type":"address","internalType":"contract IERC4626"}],"outputs":[],"stateMutability":"nonpayable"},{"type":"function","name":"manualPausePool","inputs":[{"name":"pool","type":"address","internalType":"address"}],"outputs":[],"stateMutability":"nonpayable"},{"type":"function","name":"manualPauseVault","inputs":[],"outputs":[],"stateMutability":"nonpayable"},{"type":"function","name":"manualReentrancyAddLiquidityToBuffer","inputs":[{"name":"wrappedToken","type":"address","internalType":"contract IERC4626"},{"name":"maxAmountUnderlyingInRaw","type":"uint256","internalType":"uint256"},{"name":"maxAmountWrappedInRaw","type":"uint256","internalType":"uint256"},{"name":"exactSharesToIssue","type":"uint256","internalType":"uint256"},{"name":"sharesOwner","type":"address","internalType":"address"}],"outputs":[],"stateMutability":"nonpayable"},{"type":"function","name":"manualReentrancyDisableRecoveryMode","inputs":[{"name":"pool","type":"address","internalType":"address"}],"outputs":[],"stateMutability":"nonpayable"},{"type":"function","name":"manualReentrancyInitializeBuffer","inputs":[{"name":"wrappedToken","type":"address","internalType":"contract IERC4626"},{"name":"amountUnderlying","type":"uint256","internalType":"uint256"},{"name":"amountWrapped","type":"uint256","internalType":"uint256"},{"name":"minIssuedShares","type":"uint256","internalType":"uint256"},{"name":"sharesOwner","type":"address","internalType":"address"}],"outputs":[],"stateMutability":"nonpayable"},{"type":"function","name":"manualReentrancyRemoveLiquidityFromBufferHook","inputs":[{"name":"wrappedToken","type":"address","internalType":"contract IERC4626"},{"name":"sharesToRemove","type":"uint256","internalType":"uint256"},{"name":"minAmountUnderlyingOut","type":"uint256","internalType":"uint256"},{"name":"minAmountWrappedOut","type":"uint256","internalType":"uint256"},{"name":"sharesOwner","type":"address","internalType":"address"}],"outputs":[],"stateMutability":"nonpayable"},{"type":"function","name":"manualUnpausePool","inputs":[{"name":"pool","type":"address","internalType":"address"}],"outputs":[],"stateMutability":"nonpayable"},{"type":"function","name":"manualUnpauseVault","inputs":[],"outputs":[],"stateMutability":"nonpayable"},{"type":"function","name":"mockEnsurePoolNotInRecoveryMode","inputs":[{"name":"pool","type":"address","internalType":"address"}],"outputs":[],"stateMutability":"view"},{"type":"function","name":"mockWithValidPercentage","inputs":[{"name":"percentage","type":"uint256","internalType":"uint256"}],"outputs":[],"stateMutability":"pure"},{"type":"function","name":"pausePool","inputs":[{"name":"pool","type":"address","internalType":"address"}],"outputs":[],"stateMutability":"nonpayable"},{"type":"function","name":"pauseVault","inputs":[],"outputs":[],"stateMutability":"nonpayable"},{"type":"function","name":"pauseVaultBuffers","inputs":[],"outputs":[],"stateMutability":"nonpayable"},{"type":"function","name":"reentrancyGuardEntered","inputs":[],"outputs":[{"name":"","type":"bool","internalType":"bool"}],"stateMutability":"view"},{"type":"function","name":"removeLiquidityFromBuffer","inputs":[{"name":"wrappedToken","type":"address","internalType":"contract IERC4626"},{"name":"sharesToRemove","type":"uint256","internalType":"uint256"},{"name":"minAmountUnderlyingOutRaw","type":"uint256","internalType":"uint256"},{"name":"minAmountWrappedOutRaw","type":"uint256","internalType":"uint256"}],"outputs":[{"name":"removedUnderlyingBalanceRaw","type":"uint256","internalType":"uint256"},{"name":"removedWrappedBalanceRaw","type":"uint256","internalType":"uint256"}],"stateMutability":"nonpayable"},{"type":"function","name":"removeLiquidityFromBufferHook","inputs":[{"name":"wrappedToken","type":"address","internalType":"contract IERC4626"},{"name":"sharesToRemove","type":"uint256","internalType":"uint256"},{"name":"minAmountUnderlyingOutRaw","type":"uint256","internalType":"uint256"},{"name":"minAmountWrappedOutRaw","type":"uint256","internalType":"uint256"},{"name":"sharesOwner","type":"address","internalType":"address"}],"outputs":[{"name":"removedUnderlyingBalanceRaw","type":"uint256","internalType":"uint256"},{"name":"removedWrappedBalanceRaw","type":"uint256","internalType":"uint256"}],"stateMutability":"nonpayable"},{"type":"function","name":"setAuthorizer","inputs":[{"name":"newAuthorizer","type":"address","internalType":"contract IAuthorizer"}],"outputs":[],"stateMutability":"nonpayable"},{"type":"function","name":"setProtocolFeeController","inputs":[{"name":"newProtocolFeeController","type":"address","internalType":"contract IProtocolFeeController"}],"outputs":[],"stateMutability":"nonpayable"},{"type":"function","name":"setStaticSwapFeePercentage","inputs":[{"name":"pool","type":"address","internalType":"address"},{"name":"swapFeePercentage","type":"uint256","internalType":"uint256"}],"outputs":[],"stateMutability":"nonpayable"},{"type":"function","name":"unpausePool","inputs":[{"name":"pool","type":"address","internalType":"address"}],"outputs":[],"stateMutability":"nonpayable"},{"type":"function","name":"unpauseVault","inputs":[],"outputs":[],"stateMutability":"nonpayable"},{"type":"function","name":"unpauseVaultBuffers","inputs":[],"outputs":[],"stateMutability":"nonpayable"},{"type":"function","name":"updateAggregateSwapFeePercentage","inputs":[{"name":"pool","type":"address","internalType":"address"},{"name":"newAggregateSwapFeePercentage","type":"uint256","internalType":"uint256"}],"outputs":[],"stateMutability":"nonpayable"},{"type":"function","name":"updateAggregateYieldFeePercentage","inputs":[{"name":"pool","type":"address","internalType":"address"},{"name":"newAggregateYieldFeePercentage","type":"uint256","internalType":"uint256"}],"outputs":[],"stateMutability":"nonpayable"},{"type":"function","name":"vault","inputs":[],"outputs":[{"name":"","type":"address","internalType":"contract IVault"}],"stateMutability":"view"},{"type":"event","name":"AggregateSwapFeePercentageChanged","inputs":[{"name":"pool","type":"address","indexed":true,"internalType":"address"},{"name":"aggregateSwapFeePercentage","type":"uint256","indexed":false,"internalType":"uint256"}],"anonymous":false},{"type":"event","name":"AggregateYieldFeePercentageChanged","inputs":[{"name":"pool","type":"address","indexed":true,"internalType":"address"},{"name":"aggregateYieldFeePercentage","type":"uint256","indexed":false,"internalType":"uint256"}],"anonymous":false},{"type":"event","name":"Approval","inputs":[{"name":"pool","type":"address","indexed":true,"internalType":"address"},{"name":"owner","type":"address","indexed":true,"internalType":"address"},{"name":"spender","type":"address","indexed":true,"internalType":"address"},{"name":"value","type":"uint256","indexed":false,"internalType":"uint256"}],"anonymous":false},{"type":"event","name":"AuthorizerChanged","inputs":[{"name":"newAuthorizer","type":"address","indexed":true,"internalType":"contract IAuthorizer"}],"anonymous":false},{"type":"event","name":"BufferSharesBurned","inputs":[{"name":"wrappedToken","type":"address","indexed":true,"internalType":"contract IERC4626"},{"name":"from","type":"address","indexed":true,"internalType":"address"},{"name":"burnedShares","type":"uint256","indexed":false,"internalType":"uint256"}],"anonymous":false},{"type":"event","name":"BufferSharesMinted","inputs":[{"name":"wrappedToken","type":"address","indexed":true,"internalType":"contract IERC4626"},{"name":"to","type":"address","indexed":true,"internalType":"address"},{"name":"issuedShares","type":"uint256","indexed":false,"internalType":"uint256"}],"anonymous":false},{"type":"event","name":"LiquidityAdded","inputs":[{"name":"pool","type":"address","indexed":true,"internalType":"address"},{"name":"liquidityProvider","type":"address","indexed":true,"internalType":"address"},{"name":"kind","type":"uint8","indexed":true,"internalType":"enum AddLiquidityKind"},{"name":"totalSupply","type":"uint256","indexed":false,"internalType":"uint256"},{"name":"amountsAddedRaw","type":"uint256[]","indexed":false,"internalType":"uint256[]"},{"name":"swapFeeAmountsRaw","type":"uint256[]","indexed":false,"internalType":"uint256[]"}],"anonymous":false},{"type":"event","name":"LiquidityAddedToBuffer","inputs":[{"name":"wrappedToken","type":"address","indexed":true,"internalType":"contract IERC4626"},{"name":"amountUnderlying","type":"uint256","indexed":false,"internalType":"uint256"},{"name":"amountWrapped","type":"uint256","indexed":false,"internalType":"uint256"},{"name":"bufferBalances","type":"bytes32","indexed":false,"internalType":"bytes32"}],"anonymous":false},{"type":"event","name":"LiquidityRemoved","inputs":[{"name":"pool","type":"address","indexed":true,"internalType":"address"},{"name":"liquidityProvider","type":"address","indexed":true,"internalType":"address"},{"name":"kind","type":"uint8","indexed":true,"internalType":"enum RemoveLiquidityKind"},{"name":"totalSupply","type":"uint256","indexed":false,"internalType":"uint256"},{"name":"amountsRemovedRaw","type":"uint256[]","indexed":false,"internalType":"uint256[]"},{"name":"swapFeeAmountsRaw","type":"uint256[]","indexed":false,"internalType":"uint256[]"}],"anonymous":false},{"type":"event","name":"LiquidityRemovedFromBuffer","inputs":[{"name":"wrappedToken","type":"address","indexed":true,"internalType":"contract IERC4626"},{"name":"amountUnderlying","type":"uint256","indexed":false,"internalType":"uint256"},{"name":"amountWrapped","type":"uint256","indexed":false,"internalType":"uint256"},{"name":"bufferBalances","type":"bytes32","indexed":false,"internalType":"bytes32"}],"anonymous":false},{"type":"event","name":"PoolInitialized","inputs":[{"name":"pool","type":"address","indexed":true,"internalType":"address"}],"anonymous":false},{"type":"event","name":"PoolPausedStateChanged","inputs":[{"name":"pool","type":"address","indexed":true,"internalType":"address"},{"name":"paused","type":"bool","indexed":false,"internalType":"bool"}],"anonymous":false},{"type":"event","name":"PoolRecoveryModeStateChanged","inputs":[{"name":"pool","type":"address","indexed":true,"internalType":"address"},{"name":"recoveryMode","type":"bool","indexed":false,"internalType":"bool"}],"anonymous":false},{"type":"event","name":"PoolRegistered","inputs":[{"name":"pool","type":"address","indexed":true,"internalType":"address"},{"name":"factory","type":"address","indexed":true,"internalType":"address"},{"name":"tokenConfig","type":"tuple[]","indexed":false,"internalType":"struct TokenConfig[]","components":[{"name":"token","type":"address","internalType":"contract IERC20"},{"name":"tokenType","type":"uint8","internalType":"enum TokenType"},{"name":"rateProvider","type":"address","internalType":"contract IRateProvider"},{"name":"paysYieldFees","type":"bool","internalType":"bool"}]},{"name":"swapFeePercentage","type":"uint256","indexed":false,"internalType":"uint256"},{"name":"pauseWindowEndTime","type":"uint32","indexed":false,"internalType":"uint32"},{"name":"roleAccounts","type":"tuple","indexed":false,"internalType":"struct PoolRoleAccounts","components":[{"name":"pauseManager","type":"address","internalType":"address"},{"name":"swapFeeManager","type":"address","internalType":"address"},{"name":"poolCreator","type":"address","internalType":"address"}]},{"name":"hooksConfig","type":"tuple","indexed":false,"internalType":"struct HooksConfig","components":[{"name":"enableHookAdjustedAmounts","type":"bool","internalType":"bool"},{"name":"shouldCallBeforeInitialize","type":"bool","internalType":"bool"},{"name":"shouldCallAfterInitialize","type":"bool","internalType":"bool"},{"name":"shouldCallComputeDynamicSwapFee","type":"bool","internalType":"bool"},{"name":"shouldCallBeforeSwap","type":"bool","internalType":"bool"},{"name":"shouldCallAfterSwap","type":"bool","internalType":"bool"},{"name":"shouldCallBeforeAddLiquidity","type":"bool","internalType":"bool"},{"name":"shouldCallAfterAddLiquidity","type":"bool","internalType":"bool"},{"name":"shouldCallBeforeRemoveLiquidity","type":"bool","internalType":"bool"},{"name":"shouldCallAfterRemoveLiquidity","type":"bool","internalType":"bool"},{"name":"hooksContract","type":"address","internalType":"address"}]},{"name":"liquidityManagement","type":"tuple","indexed":false,"internalType":"struct LiquidityManagement","components":[{"name":"disableUnbalancedLiquidity","type":"bool","internalType":"bool"},{"name":"enableAddLiquidityCustom","type":"bool","internalType":"bool"},{"name":"enableRemoveLiquidityCustom","type":"bool","internalType":"bool"},{"name":"enableDonation","type":"bool","internalType":"bool"}]}],"anonymous":false},{"type":"event","name":"ProtocolFeeControllerChanged","inputs":[{"name":"newProtocolFeeController","type":"address","indexed":true,"internalType":"contract IProtocolFeeController"}],"anonymous":false},{"type":"event","name":"Swap","inputs":[{"name":"pool","type":"address","indexed":true,"internalType":"address"},{"name":"tokenIn","type":"address","indexed":true,"internalType":"contract IERC20"},{"name":"tokenOut","type":"address","indexed":true,"internalType":"contract IERC20"},{"name":"amountIn","type":"uint256","indexed":false,"internalType":"uint256"},{"name":"amountOut","type":"uint256","indexed":false,"internalType":"uint256"},{"name":"swapFeePercentage","type":"uint256","indexed":false,"internalType":"uint256"},{"name":"swapFeeAmount","type":"uint256","indexed":false,"internalType":"uint256"}],"anonymous":false},{"type":"event","name":"SwapFeePercentageChanged","inputs":[{"name":"pool","type":"address","indexed":true,"internalType":"address"},{"name":"swapFeePercentage","type":"uint256","indexed":false,"internalType":"uint256"}],"anonymous":false},{"type":"event","name":"Transfer","inputs":[{"name":"pool","type":"address","indexed":true,"internalType":"address"},{"name":"from","type":"address","indexed":true,"internalType":"address"},{"name":"to","type":"address","indexed":true,"internalType":"address"},{"name":"value","type":"uint256","indexed":false,"internalType":"uint256"}],"anonymous":false},{"type":"event","name":"Unwrap","inputs":[{"name":"wrappedToken","type":"address","indexed":true,"internalType":"contract IERC4626"},{"name":"burnedShares","type":"uint256","indexed":false,"internalType":"uint256"},{"name":"withdrawnUnderlying","type":"uint256","indexed":false,"internalType":"uint256"},{"name":"bufferBalances","type":"bytes32","indexed":false,"internalType":"bytes32"}],"anonymous":false},{"type":"event","name":"VaultAuxiliary","inputs":[{"name":"pool","type":"address","indexed":true,"internalType":"address"},{"name":"eventKey","type":"bytes32","indexed":true,"internalType":"bytes32"},{"name":"eventData","type":"bytes","indexed":false,"internalType":"bytes"}],"anonymous":false},{"type":"event","name":"VaultBuffersPausedStateChanged","inputs":[{"name":"paused","type":"bool","indexed":false,"internalType":"bool"}],"anonymous":false},{"type":"event","name":"VaultPausedStateChanged","inputs":[{"name":"paused","type":"bool","indexed":false,"internalType":"bool"}],"anonymous":false},{"type":"event","name":"VaultQueriesDisabled","inputs":[],"anonymous":false},{"type":"event","name":"VaultQueriesEnabled","inputs":[],"anonymous":false},{"type":"event","name":"Wrap","inputs":[{"name":"wrappedToken","type":"address","indexed":true,"internalType":"contract IERC4626"},{"name":"depositedUnderlying","type":"uint256","indexed":false,"internalType":"uint256"},{"name":"mintedShares","type":"uint256","indexed":false,"internalType":"uint256"},{"name":"bufferBalances","type":"bytes32","indexed":false,"internalType":"bytes32"}],"anonymous":false},{"type":"error","name":"AfterAddLiquidityHookFailed","inputs":[]},{"type":"error","name":"AfterInitializeHookFailed","inputs":[]},{"type":"error","name":"AfterRemoveLiquidityHookFailed","inputs":[]},{"type":"error","name":"AfterSwapHookFailed","inputs":[]},{"type":"error","name":"AmountGivenZero","inputs":[]},{"type":"error","name":"AmountInAboveMax","inputs":[{"name":"tokenIn","type":"address","internalType":"contract IERC20"},{"name":"amountIn","type":"uint256","internalType":"uint256"},{"name":"maxAmountIn","type":"uint256","internalType":"uint256"}]},{"type":"error","name":"AmountOutBelowMin","inputs":[{"name":"tokenOut","type":"address","internalType":"contract IERC20"},{"name":"amountOut","type":"uint256","internalType":"uint256"},{"name":"minAmountOut","type":"uint256","internalType":"uint256"}]},{"type":"error","name":"BalanceNotSettled","inputs":[]},{"type":"error","name":"BalanceOverflow","inputs":[]},{"type":"error","name":"BeforeAddLiquidityHookFailed","inputs":[]},{"type":"error","name":"BeforeInitializeHookFailed","inputs":[]},{"type":"error","name":"BeforeRemoveLiquidityHookFailed","inputs":[]},{"type":"error","name":"BeforeSwapHookFailed","inputs":[]},{"type":"error","name":"BptAmountInAboveMax","inputs":[{"name":"amountIn","type":"uint256","internalType":"uint256"},{"name":"maxAmountIn","type":"uint256","internalType":"uint256"}]},{"type":"error","name":"BptAmountOutBelowMin","inputs":[{"name":"amountOut","type":"uint256","internalType":"uint256"},{"name":"minAmountOut","type":"uint256","internalType":"uint256"}]},{"type":"error","name":"BufferAlreadyInitialized","inputs":[{"name":"wrappedToken","type":"address","internalType":"contract IERC4626"}]},{"type":"error","name":"BufferNotInitialized","inputs":[{"name":"wrappedToken","type":"address","internalType":"contract IERC4626"}]},{"type":"error","name":"BufferSharesInvalidOwner","inputs":[]},{"type":"error","name":"BufferSharesInvalidReceiver","inputs":[]},{"type":"error","name":"BufferTotalSupplyTooLow","inputs":[{"name":"totalSupply","type":"uint256","internalType":"uint256"}]},{"type":"error","name":"CannotReceiveEth","inputs":[]},{"type":"error","name":"CannotSwapSameToken","inputs":[]},{"type":"error","name":"CodecOverflow","inputs":[]},{"type":"error","name":"DoesNotSupportAddLiquidityCustom","inputs":[]},{"type":"error","name":"DoesNotSupportDonation","inputs":[]},{"type":"error","name":"DoesNotSupportRemoveLiquidityCustom","inputs":[]},{"type":"error","name":"DoesNotSupportUnbalancedLiquidity","inputs":[]},{"type":"error","name":"DynamicSwapFeeHookFailed","inputs":[]},{"type":"error","name":"ERC20InsufficientAllowance","inputs":[{"name":"spender","type":"address","internalType":"address"},{"name":"allowance","type":"uint256","internalType":"uint256"},{"name":"needed","type":"uint256","internalType":"uint256"}]},{"type":"error","name":"ERC20InsufficientBalance","inputs":[{"name":"sender","type":"address","internalType":"address"},{"name":"balance","type":"uint256","internalType":"uint256"},{"name":"needed","type":"uint256","internalType":"uint256"}]},{"type":"error","name":"ERC20InvalidApprover","inputs":[{"name":"approver","type":"address","internalType":"address"}]},{"type":"error","name":"ERC20InvalidReceiver","inputs":[{"name":"receiver","type":"address","internalType":"address"}]},{"type":"error","name":"ERC20InvalidSender","inputs":[{"name":"sender","type":"address","internalType":"address"}]},{"type":"error","name":"ERC20InvalidSpender","inputs":[{"name":"spender","type":"address","internalType":"address"}]},{"type":"error","name":"FeePrecisionTooHigh","inputs":[]},{"type":"error","name":"HookAdjustedAmountInAboveMax","inputs":[{"name":"tokenIn","type":"address","internalType":"contract IERC20"},{"name":"amountIn","type":"uint256","internalType":"uint256"},{"name":"maxAmountIn","type":"uint256","internalType":"uint256"}]},{"type":"error","name":"HookAdjustedAmountOutBelowMin","inputs":[{"name":"tokenOut","type":"address","internalType":"contract IERC20"},{"name":"amountOut","type":"uint256","internalType":"uint256"},{"name":"minAmountOut","type":"uint256","internalType":"uint256"}]},{"type":"error","name":"HookAdjustedSwapLimit","inputs":[{"name":"amount","type":"uint256","internalType":"uint256"},{"name":"limit","type":"uint256","internalType":"uint256"}]},{"type":"error","name":"HookRegistrationFailed","inputs":[{"name":"poolHooksContract","type":"address","internalType":"address"},{"name":"pool","type":"address","internalType":"address"},{"name":"poolFactory","type":"address","internalType":"address"}]},{"type":"error","name":"InvalidAddLiquidityKind","inputs":[]},{"type":"error","name":"InvalidRemoveLiquidityKind","inputs":[]},{"type":"error","name":"InvalidToken","inputs":[]},{"type":"error","name":"InvalidTokenConfiguration","inputs":[]},{"type":"error","name":"InvalidTokenDecimals","inputs":[]},{"type":"error","name":"InvalidTokenType","inputs":[]},{"type":"error","name":"InvalidUnderlyingToken","inputs":[{"name":"wrappedToken","type":"address","internalType":"contract IERC4626"}]},{"type":"error","name":"IssuedSharesBelowMin","inputs":[{"name":"issuedShares","type":"uint256","internalType":"uint256"},{"name":"minIssuedShares","type":"uint256","internalType":"uint256"}]},{"type":"error","name":"MaxTokens","inputs":[]},{"type":"error","name":"MinTokens","inputs":[]},{"type":"error","name":"NotEnoughBufferShares","inputs":[]},{"type":"error","name":"NotEnoughUnderlying","inputs":[{"name":"wrappedToken","type":"address","internalType":"contract IERC4626"},{"name":"expectedUnderlyingAmount","type":"uint256","internalType":"uint256"},{"name":"actualUnderlyingAmount","type":"uint256","internalType":"uint256"}]},{"type":"error","name":"NotEnoughWrapped","inputs":[{"name":"wrappedToken","type":"address","internalType":"contract IERC4626"},{"name":"expectedWrappedAmount","type":"uint256","internalType":"uint256"},{"name":"actualWrappedAmount","type":"uint256","internalType":"uint256"}]},{"type":"error","name":"NotStaticCall","inputs":[]},{"type":"error","name":"NotVaultDelegateCall","inputs":[]},{"type":"error","name":"OutOfBounds","inputs":[]},{"type":"error","name":"PauseBufferPeriodDurationTooLarge","inputs":[]},{"type":"error","name":"PercentageAboveMax","inputs":[]},{"type":"error","name":"PoolAlreadyInitialized","inputs":[{"name":"pool","type":"address","internalType":"address"}]},{"type":"error","name":"PoolAlreadyRegistered","inputs":[{"name":"pool","type":"address","internalType":"address"}]},{"type":"error","name":"PoolInRecoveryMode","inputs":[{"name":"pool","type":"address","internalType":"address"}]},{"type":"error","name":"PoolNotInRecoveryMode","inputs":[{"name":"pool","type":"address","internalType":"address"}]},{"type":"error","name":"PoolNotInitialized","inputs":[{"name":"pool","type":"address","internalType":"address"}]},{"type":"error","name":"PoolNotPaused","inputs":[{"name":"pool","type":"address","internalType":"address"}]},{"type":"error","name":"PoolNotRegistered","inputs":[{"name":"pool","type":"address","internalType":"address"}]},{"type":"error","name":"PoolPauseWindowExpired","inputs":[{"name":"pool","type":"address","internalType":"address"}]},{"type":"error","name":"PoolPaused","inputs":[{"name":"pool","type":"address","internalType":"address"}]},{"type":"error","name":"PoolTotalSupplyTooLow","inputs":[{"name":"totalSupply","type":"uint256","internalType":"uint256"}]},{"type":"error","name":"ProtocolFeesExceedTotalCollected","inputs":[]},{"type":"error","name":"QueriesDisabled","inputs":[]},{"type":"error","name":"QueriesDisabledPermanently","inputs":[]},{"type":"error","name":"QuoteResultSpoofed","inputs":[]},{"type":"error","name":"ReentrancyGuardReentrantCall","inputs":[]},{"type":"error","name":"RouterNotTrusted","inputs":[]},{"type":"error","name":"SenderIsNotVault","inputs":[{"name":"sender","type":"address","internalType":"address"}]},{"type":"error","name":"SenderNotAllowed","inputs":[]},{"type":"error","name":"SwapFeePercentageTooHigh","inputs":[]},{"type":"error","name":"SwapFeePercentageTooLow","inputs":[]},{"type":"error","name":"SwapLimit","inputs":[{"name":"amount","type":"uint256","internalType":"uint256"},{"name":"limit","type":"uint256","internalType":"uint256"}]},{"type":"error","name":"TokenAlreadyRegistered","inputs":[{"name":"token","type":"address","internalType":"contract IERC20"}]},{"type":"error","name":"TokenNotRegistered","inputs":[{"name":"token","type":"address","internalType":"contract IERC20"}]},{"type":"error","name":"TokensMismatch","inputs":[{"name":"pool","type":"address","internalType":"address"},{"name":"expectedToken","type":"address","internalType":"address"},{"name":"actualToken","type":"address","internalType":"address"}]},{"type":"error","name":"TradeAmountTooSmall","inputs":[]},{"type":"error","name":"VaultBuffersArePaused","inputs":[]},{"type":"error","name":"VaultIsNotUnlocked","inputs":[]},{"type":"error","name":"VaultNotPaused","inputs":[]},{"type":"error","name":"VaultPauseWindowDurationTooLarge","inputs":[]},{"type":"error","name":"VaultPauseWindowExpired","inputs":[]},{"type":"error","name":"VaultPaused","inputs":[]},{"type":"error","name":"WrapAmountTooSmall","inputs":[{"name":"wrappedToken","type":"address","internalType":"contract IERC4626"}]},{"type":"error","name":"WrongProtocolFeeControllerDeployment","inputs":[]},{"type":"error","name":"WrongUnderlyingToken","inputs":[{"name":"wrappedToken","type":"address","internalType":"contract IERC4626"},{"name":"underlyingToken","type":"address","internalType":"address"}]},{"type":"error","name":"WrongVaultAdminDeployment","inputs":[]},{"type":"error","name":"WrongVaultExtensionDeployment","inputs":[]},{"type":"error","name":"ZeroDivision","inputs":[]}],"bytecode":{"object":"0x610240604052600a610200908152691a5cd55b9b1bd8dad95960b21b61022052610028906101e2565b60c0526040805180820190915260118152701b9bdb96995c9bd1195b1d1850dbdd5b9d607a1b602082015261005c906101e2565b60e05260408051808201909152600b81526a746f6b656e44656c74617360a81b602082015261008a906101e2565b61010052604080518082019091526012815271185919131a5c5d5a591a5d1e50d85b1b195960721b60208201526100c0906101e2565b610120526040805180820190915260098152681cd95cdcda5bdb925960ba1b60208201526100ed906101e2565b610140523480156100fc575f5ffd5b506040516152ca3803806152ca83398101604081905261011b916102d3565b6001600160a01b0385166101c08190526101e0528484848484630784ce0063ffffffff8516111561015f5760405163cc0e8fe560e01b815260040160405180910390fd5b62ed4e008363ffffffff16111561018957604051634f5277f760e11b815260040160405180910390fd5b5f6101a261019d63ffffffff871642610346565b61021d565b63ffffffff8082166101605285166101a05290506101c08482610359565b63ffffffff16610180525060809190915260a052506103ed9650505050505050565b5f61021760405180604001604052600c8152806020016b5661756c7453746f7261676560a01b8152508361022760201b60201c565b92915050565b5f61021782610295565b5f60ff5f1b196001848460405160200161024292919061038c565b604051602081830303815290604052805190602001205f1c61026491906103da565b60405160200161027691815260200190565b6040516020818303038152906040528051906020012016905092915050565b5f64010000000082106102aa576102aa6102ae565b5090565b6335278d125f526004601cfd5b805163ffffffff811681146102ce575f5ffd5b919050565b5f5f5f5f5f60a086880312156102e7575f5ffd5b85516001600160a01b03811681146102fd575f5ffd5b945061030b602087016102bb565b9350610319604087016102bb565b6060870151608090970151959894975095949392505050565b634e487b7160e01b5f52601160045260245ffd5b8082018082111561021757610217610332565b63ffffffff818116838216019081111561021757610217610332565b5f81518060208401855e5f93019283525090919050565b7f62616c616e6365722d6c6162732e76332e73746f726167652e0000000000000081525f6103bd6019830185610375565b601760f91b81526103d16001820185610375565b95945050505050565b8181038181111561021757610217610332565b60805160a05160c05160e05161010051610120516101405161016051610180516101a0516101c0516101e051614d566105745f395f81816109de01528181610a0801528181610a5b01528181610af301528181610b3201528181610fda0152818161106c0152818161111601528181611162015281816111a1015281816113990152818161141d015281816114dc015281816115e5015281816118850152818161193b015281816119ed01528181611a7001528181611d5b01528181611dba01528181611e7001528181611eb301528181611f3d01528181611fbe0152818161203601528181612078015281816120bc0152818161215a0152818161225a015281816124700152818161249f01528181612595015281816125dc0152612a8401525f6118d201525f818161042601526138ff01525f81816107fe01528181611996015261277301525f81816106b50152818161197301526126c401525f50505f50505f613a8d01525f613ac401525f612ac601525f61052b01525f6109110152614d565ff3fe60806040526004361061027e575f3560e01c80630387587d146102fa578063058a628f1461032f578063071d8a0214610350578063098401f5146103645780630b7562be146103885780630b9df1f61461039c5780631558356e146103bb57806316df26cb146103da5780631f568ea3146103f957806320c1fb7a1461041857806326a8a9911461045b57806327521d0c146104795780632d771389146104985780632e42f4d5146104b75780634021fe0f146104ca57806352b9e33d146104fe57806353956aa21461051d57806355aca1ec1461054f57806355cba7fe1461056e5780635dcacd64146105825780635e0b06f4146105a1578063653eb3b0146105c05780636b230291146105df5780637578abb9146105fe578063821440f21461061d578063851c1bb31461063157806385c8c0151461065057806388e5101a146106885780638a8d123a146106a75780638f4ab9ca146106d95780639260d920146107065780639385e39a146107255780639e0879c214610744578063a8175b2714610758578063b61398cd1461076b578063b9212b491461078a578063bffb78b21461079e578063c7b3b3a9146107bd578063cc671ff7146107dc578063cd51c12f146107f0578063d0965a6b14610822578063d15126ba14610837578063d2c725e014610856578063dc3f574e1461086a578063de1a36a614610889578063e085c5a81461089d578063e0d55605146108b1578063e253670a146108c5578063e2a92b1a146108e4578063e2cb0ba014610903578063e833889414610935578063e99ac9a314610954578063ebc7955c14610973578063f21c38cd14610992578063f2784e07146109b1578063fbfa77cf146109d05761029c565b3661029c57604051637911c44b60e11b815260040160405180910390fd5b34156102bb57604051637911c44b60e11b815260040160405180910390fd5b60405162461bcd60e51b815260206004820152600f60248201526e139bdd081a5b5c1b195b595b9d1959608a1b60448201526064015b60405180910390fd5b348015610305575f5ffd5b506103196103143660046145b0565b610a02565b60405161032691906145cb565b60405180910390f35b34801561033a575f5ffd5b5061034e6103493660046145b0565b610a56565b005b34801561035b575f5ffd5b5061034e610ae1565b34801561036f575f5ffd5b50610378610aed565b6040519015158152602001610326565b348015610393575f5ffd5b5061034e610b2d565b3480156103a7575f5ffd5b5061034e6103b63660046145b0565b610b70565b3480156103c6575f5ffd5b5061034e6103d53660046145b0565b610b7c565b3480156103e5575f5ffd5b5061034e6103f43660046145b0565b610bb1565b348015610404575f5ffd5b5061034e6104133660046145df565b610c11565b348015610423575f5ffd5b507f00000000000000000000000000000000000000000000000000000000000000005b60405163ffffffff9091168152602001610326565b348015610466575f5ffd5b506127105b604051908152602001610326565b348015610484575f5ffd5b5061034e6104933660046145b0565b610fc1565b3480156104a3575f5ffd5b5061034e6104b23660046145b0565b610fd5565b3480156104c2575f5ffd5b50600861046b565b3480156104d5575f5ffd5b506104e96104e43660046145b0565b611065565b60408051928352602083019190915201610326565b348015610509575f5ffd5b5061034e6105183660046145b0565b6110df565b348015610528575f5ffd5b507f000000000000000000000000000000000000000000000000000000000000000061046b565b34801561055a575f5ffd5b5061034e6105693660046145b0565b611111565b348015610579575f5ffd5b5061037861115c565b34801561058d575f5ffd5b506104e961059c366004614611565b61119a565b3480156105ac575f5ffd5b5061034e6105bb366004614663565b6114d7565b3480156105cb575f5ffd5b5061046b6105da366004614611565b6115df565b3480156105ea575f5ffd5b5061034e6105f936600461468d565b61185d565b348015610609575f5ffd5b5061034e6106183660046145b0565b61186d565b348015610628575f5ffd5b5061034e611880565b34801561063c575f5ffd5b5061046b61064b3660046146cb565b6118cf565b34801561065b575f5ffd5b50610664611933565b60408051931515845263ffffffff9283166020850152911690820152606001610326565b348015610693575f5ffd5b5061034e6106a23660046146f2565b6119bb565b3480156106b2575f5ffd5b507f0000000000000000000000000000000000000000000000000000000000000000610446565b3480156106e4575f5ffd5b506106f86106f33660046145b0565b6119e5565b604051610326929190614743565b348015610711575f5ffd5b5061034e610720366004614611565b611cd2565b348015610730575f5ffd5b5061046b61073f366004614767565b611d55565b34801561074f575f5ffd5b5061034e611db5565b348015610763575f5ffd5b50600261046b565b348015610776575f5ffd5b5061034e610785366004614611565b611def565b348015610795575f5ffd5b5061034e611e6b565b3480156107a9575f5ffd5b5061034e6107b83660046145b0565b611eae565b3480156107c8575f5ffd5b5061034e6107d7366004614611565b611f05565b3480156107e7575f5ffd5b5061034e610b67565b3480156107fb575f5ffd5b507f0000000000000000000000000000000000000000000000000000000000000000610446565b34801561082d575f5ffd5b50620f424061046b565b348015610842575f5ffd5b5061034e610851366004614663565b611f38565b348015610861575f5ffd5b50610378611fb0565b348015610875575f5ffd5b5061034e6108843660046145b0565b611fb9565b348015610894575f5ffd5b5061034e612031565b3480156108a8575f5ffd5b5061034e612073565b3480156108bc575f5ffd5b5061034e6120b7565b3480156108d0575f5ffd5b5061034e6108df366004614663565b612155565b3480156108ef575f5ffd5b506104e96108fe366004614611565b612253565b34801561090e575f5ffd5b507f000000000000000000000000000000000000000000000000000000000000000061046b565b348015610940575f5ffd5b5061034e61094f36600461468d565b612455565b34801561095f575f5ffd5b5061034e61096e3660046145b0565b612460565b34801561097e575f5ffd5b506104e961098d36600461479e565b612469565b34801561099d575f5ffd5b5061034e6109ac3660046145b0565b612590565b3480156109bc575f5ffd5b5061046b6109cb3660046145b0565b6125d6565b3480156109db575f5ffd5b507f0000000000000000000000000000000000000000000000000000000000000000610319565b5f610a357f00000000000000000000000000000000000000000000000000000000000000006001600160a01b0316612624565b506001600160a01b038082165f908152600e6020526040902054165b919050565b610a887f00000000000000000000000000000000000000000000000000000000000000006001600160a01b0316612624565b610a9061264d565b60098054610100600160a81b0319166101006001600160a01b038416908102919091179091556040517f94b979b6831a51293e2641426f97747feed46f17779fed9cd18d1ecefcfe92ef905f90a250565b610aeb600161268b565b565b5f610b207f00000000000000000000000000000000000000000000000000000000000000006001600160a01b0316612624565b610b28612770565b905090565b610b5f7f00000000000000000000000000000000000000000000000000000000000000006001600160a01b0316612624565b610b6761264d565b610aeb5f61268b565b610b79816127ad565b50565b6001600160a01b0381165f90815260016020819052604090912080546001600160a01b03191633179055610b799082906127d6565b610bb96128f7565b604051635ffdbc5960e11b8152309063bffb78b290610bdc9084906004016145cb565b5f604051808303815f87803b158015610bf3575f5ffd5b505af1158015610c05573d5f5f3e3d5ffd5b50505050610b79612937565b6001600160a01b0383165f908152600b60205260409020548215610df957836001600160a01b03166338d52e0f6040518163ffffffff1660e01b8152600401602060405180830381865afa158015610c6b573d5f5f3e3d5ffd5b505050506040513d601f19601f82011682018060405250810190610c8f91906147d6565b6001600160a01b03166323b872dd3330866040518463ffffffff1660e01b8152600401610cbe939291906147f1565b6020604051808303815f875af1158015610cda573d5f5f3e3d5ffd5b505050506040513d601f19601f82011682018060405250810190610cfe9190614815565b508260085f866001600160a01b03166338d52e0f6040518163ffffffff1660e01b8152600401602060405180830381865afa158015610d3f573d5f5f3e3d5ffd5b505050506040513d601f19601f82011682018060405250810190610d6391906147d6565b6001600160a01b03166001600160a01b031681526020019081526020015f205f828254610d909190614848565b90915550506001600160a01b0384165f908152600d602052604081208054859290610dbc908490614848565b90915550506001600160a01b0384165f908152600c6020908152604080832033845290915281208054859290610df3908490614848565b90915550505b8115610f6f576040516323b872dd60e01b81526001600160a01b038516906323b872dd90610e2f903390309087906004016147f1565b6020604051808303815f875af1158015610e4b573d5f5f3e3d5ffd5b505050506040513d601f19601f82011682018060405250810190610e6f9190614815565b506001600160a01b0384165f9081526008602052604081208054849290610e97908490614848565b909155505060405163266d6a8360e11b8152600481018390525f906001600160a01b03861690634cdad50690602401602060405180830381865afa158015610ee1573d5f5f3e3d5ffd5b505050506040513d601f19601f82011682018060405250810190610f05919061485b565b6001600160a01b0386165f908152600d6020526040812080549293508392909190610f31908490614848565b90915550506001600160a01b0385165f908152600c6020908152604080832033845290915281208054839290610f68908490614848565b9091555050505b610fa083610f7c8361294e565b610f869190614848565b83610f918460801c90565b610f9b9190614848565b61295a565b6001600160a01b039094165f908152600b6020526040902093909355505050565b610fca816127ad565b610b798160016129a5565b6110077f00000000000000000000000000000000000000000000000000000000000000006001600160a01b0316612624565b61100f61264d565b6110176128f7565b600a80546001600160a01b0319166001600160a01b0383169081179091556040517f280a60b1e63c1774d397d35cce80eb80e51408ead755fb446e6f744ce98e5df0905f90a2610b79612937565b5f5f6110997f00000000000000000000000000000000000000000000000000000000000000006001600160a01b0316612624565b6001600160a01b0383165f908152600b60205260409020546110ba9061294e565b6001600160a01b0384165f908152600b602052604090205460801c5b91509150915091565b6001600160a01b0381165f90815260016020526040812080546001600160a01b03191633179055610b799082906127d6565b6111437f00000000000000000000000000000000000000000000000000000000000000006001600160a01b0316612624565b8061114d81612a2e565b6111588260016127d6565b5050565b5f61118f7f00000000000000000000000000000000000000000000000000000000000000006001600160a01b0316612624565b610b28600754612a56565b5f5f6111ce7f00000000000000000000000000000000000000000000000000000000000000006001600160a01b0316612624565b6111d6612a79565b6111de612ac4565b866111e881612b07565b6111f0612b40565b1561120057611200888589612b5b565b6001600160a01b038089165f908152600c602090815260408083209388168352929052205487111561124557604051634c62edeb60e11b815260040160405180910390fd5b6001600160a01b0388165f908152600b6020908152604080832054600d9092529091205480896112748461294e565b61127e9190614872565b6112889190614889565b945080896112968460801c90565b6112a09190614872565b6112aa9190614889565b6001600160a01b03808c165f908152600e602052604090205491955016888610156112ee5780868a6040516323b6a17960e21b81526004016102f1939291906148a8565b87851015611315578a85896040516323b6a17960e21b81526004016102f1939291906148a8565b61131f8187612bbc565b6113298b86612bbc565b611355866113368561294e565b61134091906148c9565b8661134b8660801c90565b610f9b91906148c9565b6001600160a01b038c165f908152600b60205260409020819055925061137c8b888c612bd7565b85156114005760405163ae63932960e01b81526001600160a01b037f0000000000000000000000000000000000000000000000000000000000000000169063ae639329906113d29084908b908b906004016147f1565b5f604051808303815f87803b1580156113e9575f5ffd5b505af11580156113fb573d5f5f3e3d5ffd5b505050505b84156114845760405163ae63932960e01b81526001600160a01b037f0000000000000000000000000000000000000000000000000000000000000000169063ae63932990611456908e908b908a906004016147f1565b5f604051808303815f87803b15801561146d575f5ffd5b505af115801561147f573d5f5f3e3d5ffd5b505050505b8a6001600160a01b03167f44d97b36e99b590b3d2875aad3b167b1d7fb1e063f3f1325a1eeac76caee51138787866040516114c1939291906148dc565b60405180910390a2505050509550959350505050565b6115097f00000000000000000000000000000000000000000000000000000000000000006001600160a01b0316612624565b8161151381612a2e565b81670de0b6b3a764000081111561153d57604051634c69ac5d60e01b815260040160405180910390fd5b600a546001600160a01b03163314611568576040516323dada5360e01b815260040160405180910390fd5b6001600160a01b0384165f9081526020819052604090205461158a9084612cc6565b6001600160a01b0385165f8181526020818152604091829020939093555185815290917fe4d371097beea42453a37406e2aef4c04f3c548f84ac50e72578662c0dcd735491015b60405180910390a250505050565b5f6116127f00000000000000000000000000000000000000000000000000000000000000006001600160a01b0316612624565b61161a612ac4565b611622612de4565b61162a6128f7565b6001600160a01b038681165f908152600e602052604090205416156116635785604051625a43e960e61b81526004016102f191906145cb565b5f866001600160a01b03166338d52e0f6040518163ffffffff1660e01b8152600401602060405180830381865afa1580156116a0573d5f5f3e3d5ffd5b505050506040513d601f19601f820116820180604052508101906116c491906147d6565b90506001600160a01b0381166116ef578660405163d407f9c560e01b81526004016102f191906145cb565b6001600160a01b038781165f908152600e6020526040902080546001600160a01b0319169183169190911790556117268187612e0d565b6117308786612e0d565b5f61173b878761295a565b6001600160a01b0389165f818152600b6020526040908190208390555163266d6a8360e11b8152600481018990529192508891634cdad50690602401602060405180830381865afa158015611792573d5f5f3e3d5ffd5b505050506040513d601f19601f820116820180604052508101906117b6919061485b565b6117c09190614848565b92506117cb83612e1a565b6117d7612710846148c9565b92506117e288612e40565b6117ed888585612e96565b8483101561181857604051636d06583f60e11b815260048101849052602481018690526044016102f1565b876001600160a01b03165f516020614cc15f395f51905f52888884604051611842939291906148dc565b60405180910390a25050611854612937565b95945050505050565b611868838383612e96565b505050565b61187681612f64565b610b79815f6129a5565b6118b27f00000000000000000000000000000000000000000000000000000000000000006001600160a01b0316612624565b6118ba61264d565b6009805460ff19166001179055610aeb612f8c565b5f7f0000000000000000000000000000000000000000000000000000000000000000826040516020016119169291909182526001600160e01b031916602082015260240190565b604051602081830303815290604052805190602001209050919050565b5f5f5f6119687f00000000000000000000000000000000000000000000000000000000000000006001600160a01b0316612624565b611970612770565b937f000000000000000000000000000000000000000000000000000000000000000093507f000000000000000000000000000000000000000000000000000000000000000092509050565b80670de0b6b3a764000081111561115857604051634c69ac5d60e01b815260040160405180910390fd5b606080611a1a7f00000000000000000000000000000000000000000000000000000000000000006001600160a01b0316612624565b611a22612ac4565b600a546001600160a01b03163314611a4d576040516323dada5360e01b815260040160405180910390fd5b82611a5781612a2e565b60405163ca4f280360e01b81525f906001600160a01b037f0000000000000000000000000000000000000000000000000000000000000000169063ca4f280390611aa59088906004016145cb565b5f60405180830381865afa158015611abf573d5f5f3e3d5ffd5b505050506040513d5f823e601f3d908101601f19168201604052611ae69190810190614936565b8051909150806001600160401b03811115611b0357611b036148f2565b604051908082528060200260200182016040528015611b2c578160200160208202803683370190505b509450806001600160401b03811115611b4757611b476148f2565b604051908082528060200260200182016040528015611b70578160200160208202803683370190505b5093505f5b8251811015611cc9575f838281518110611b9157611b916149e8565b6020908102919091018101516001600160a01b03808b165f90815260068452604080822092841682529190935290912054909150611bce90612fcd565b888481518110611be057611be06149e8565b60200260200101888581518110611bf957611bf96149e8565b60200260200101828152508281525050505f878381518110611c1d57611c1d6149e8565b60200260200101511180611c4957505f868381518110611c3f57611c3f6149e8565b6020026020010151115b15611cc0576001600160a01b038089165f9081526006602090815260408083209385168352929052908120558551611cc0908290889085908110611c8f57611c8f6149e8565b6020026020010151898581518110611ca957611ca96149e8565b6020026020010151611cbb9190614848565b612bbc565b50600101611b75565b50505050915091565b611cda6128f7565b604051637154958d60e11b8152309063e2a92b1a90611d0590889088908890889088906004016149fc565b60408051808303815f875af1158015611d20573d5f5f3e3d5ffd5b505050506040513d601f19601f82011682018060405250810190611d449190614a2c565b5050611d4e612937565b5050505050565b5f611d887f00000000000000000000000000000000000000000000000000000000000000006001600160a01b0316612624565b506001600160a01b038083165f908152600c60209081526040808320938516835292905220545b92915050565b611de77f00000000000000000000000000000000000000000000000000000000000000006001600160a01b0316612624565b610ae161264d565b611df76128f7565b604051630653eb3b60e41b8152309063653eb3b090611e2290889088908890889088906004016149fc565b6020604051808303815f875af1158015611e3e573d5f5f3e3d5ffd5b505050506040513d601f19601f82011682018060405250810190611e62919061485b565b50611d4e612937565b611e9d7f00000000000000000000000000000000000000000000000000000000000000006001600160a01b0316612624565b611ea561264d565b610aeb5f612fe2565b611ee07f00000000000000000000000000000000000000000000000000000000000000006001600160a01b0316612624565b80611eea81612a2e565b611ef261264d565b611efb82612f64565b611158825f6129a5565b611f0d6128f7565b604051631772b35960e21b81523090635dcacd6490611d0590889088908890889088906004016149fc565b611f6a7f00000000000000000000000000000000000000000000000000000000000000006001600160a01b0316612624565b81611f7481612a2e565b6001600160a01b038084165f9081526001602081905260409091200154611f9d91859116613029565b611fa683613069565b611868838361307a565b5f610b286131e7565b611feb7f00000000000000000000000000000000000000000000000000000000000000006001600160a01b0316612624565b80611ff581612a2e565b611ffe826127ad565b612007826131f9565b1580156120195750612017612770565b155b156120265761202661264d565b6111588260016129a5565b6120637f00000000000000000000000000000000000000000000000000000000000000006001600160a01b0316612624565b61206b61264d565b610aeb612f8c565b6120a57f00000000000000000000000000000000000000000000000000000000000000006001600160a01b0316612624565b6120ad61264d565b610aeb6001612fe2565b6120e97f00000000000000000000000000000000000000000000000000000000000000006001600160a01b0316612624565b6120f161264d565b60095460ff1615612115576040516301a7e32f60e21b815260040160405180910390fd5b600754612122815f61320c565b60078190556040519091507f91d7478835f2b5adc315f5aad920f4a7f0a02f7fddf3042d17b2c80168ea17f5905f90a150565b6121877f00000000000000000000000000000000000000000000000000000000000000006001600160a01b0316612624565b8161219181612a2e565b81670de0b6b3a76400008111156121bb57604051634c69ac5d60e01b815260040160405180910390fd5b600a546001600160a01b031633146121e6576040516323dada5360e01b815260040160405180910390fd5b6001600160a01b0384165f908152602081905260409020546122089084613219565b6001600160a01b0385165f8181526020818152604091829020939093555185815290917f606eb97d83164bd6b200d638cd49c14c65d94d4f2c674cfd85e24e0e202c3ca591016115d1565b5f5f6122877f00000000000000000000000000000000000000000000000000000000000000006001600160a01b0316612624565b61228f612ac4565b612297612de4565b866122a181612b07565b6122a96128f7565b5f886001600160a01b03166338d52e0f6040518163ffffffff1660e01b8152600401602060405180830381865afa1580156122e6573d5f5f3e3d5ffd5b505050506040513d601f19601f8201168201806040525081019061230a91906147d6565b90506123168982613338565b6001600160a01b0389165f908152600b6020908152604080832054600d9092529091205461234f88826123488561294e565b9190613387565b955061236088826123488560801c90565b9450898611156123895782868b6040516323b6a17960e21b81526004016102f1939291906148a8565b888511156123b0578a858a6040516323b6a17960e21b81526004016102f1939291906148a8565b6123ba8387612e0d565b6123c48b86612e0d565b6123e6866123d18461294e565b6123db9190614848565b86610f918560801c90565b6001600160a01b038c165f908152600b60205260409020819055915061240d8b888a612e96565b8a6001600160a01b03165f516020614cc15f395f51905f52878785604051612437939291906148dc565b60405180910390a250505061244a612937565b509550959350505050565b611868838383612bd7565b610b7981612e40565b5f5f61249d7f00000000000000000000000000000000000000000000000000000000000000006001600160a01b0316612624565b7f00000000000000000000000000000000000000000000000000000000000000006001600160a01b03166348c8949187878787336040516024016124e59594939291906149fc565b60408051601f198184030181529181526020820180516001600160e01b0316631772b35960e21b179052516001600160e01b031960e084901b16815261252e9190600401614a4e565b5f604051808303815f875af1158015612549573d5f5f3e3d5ffd5b505050506040513d5f823e601f3d908101601f191682016040526125709190810190614a83565b8060200190518101906125839190614a2c565b9150915094509492505050565b6125c27f00000000000000000000000000000000000000000000000000000000000000006001600160a01b0316612624565b806125cc81612a2e565b611158825f6127d6565b5f6126097f00000000000000000000000000000000000000000000000000000000000000006001600160a01b0316612624565b506001600160a01b03165f908152600d602052604090205490565b306001600160a01b03821614610b7957604051634fe92d9b60e11b815260040160405180910390fd5b5f6126625f356001600160e01b0319166118cf565b905061266e81336133cc565b610b79576040516323dada5360e01b815260040160405180910390fd5b612693612770565b156126bc5780156126b7576040516336a7e2cd60e21b815260040160405180910390fd5b612721565b8015612708577f000000000000000000000000000000000000000000000000000000000000000063ffffffff1642106126b757604051630e4460b760e01b815260040160405180910390fd5b604051637bffa6e560e11b815260040160405180910390fd5b60075461272e8183613444565b600781905560405183151581529091507fe0629fe656e45ad7fd63a24b899da368690024c07043b88e57aee5095b1d3d02906020015b60405180910390a15050565b5f7f000000000000000000000000000000000000000000000000000000000000000063ffffffff164211158015610b285750610b28600754613462565b6127b681613471565b15610b79578060405163346d760760e01b81526004016102f191906145cb565b6001600160a01b038083165f908152600160205260409020546127fb91849116613492565b6001600160a01b0382165f9081526020819052604090205461281c836131f9565b15612847578115612842578260405163d971f59760e01b81526004016102f191906145cb565b612898565b811561287d57612856816134af565b63ffffffff164210612842578260405163eb5a121760e01b81526004016102f191906145cb565b82604051633f735a2560e21b81526004016102f191906145cb565b6128a281836135b3565b6001600160a01b0384165f81815260208181526040918290209390935551841515815290917f57e20448028297190122571be7cb6c1b1ef85730c673f7c72f533c8662419aa7910160405180910390a2505050565b6128ff6131e7565b1561291d57604051633ee5aeb560e01b815260040160405180910390fd5b610aeb60015f516020614ce15f395f51905f525b906135e0565b610aeb5f5f516020614ce15f395f51905f52612931565b6001600160801b031690565b5f6001600160801b0383118061297657506001600160801b0382115b15612994576040516389560ca160e01b815260040160405180910390fd5b61299e83836135e7565b9392505050565b8015155f036129b7576129b7826135f6565b6001600160a01b0382165f908152602081905260409020546129d9908261361a565b6001600160a01b0383165f81815260208181526040918290209390935551831515815290917fc2354cc2f78ea57777e55ddd43a7f22b112ce98868596880edaeb22b4f9c73a991015b60405180910390a25050565b612a3781613635565b610b7957806040516327946f5760e21b81526004016102f191906145cb565b5f611daf612a65826001614848565b612a70906001614848565b83901c60011690565b336001600160a01b037f00000000000000000000000000000000000000000000000000000000000000001614610aeb573360405163089676d560e01b81526004016102f191906145cb565b7f00000000000000000000000000000000000000000000000000000000000000005c15155f03610aeb5760405163604dd39b60e11b815260040160405180910390fd5b6001600160a01b038181165f908152600e602052604090205416610b7957806040516385f4129960e01b81526004016102f191906145cb565b5f32158015610b285750612b55600754613652565b15905090565b32155f03612b7c576040516333fc255960e11b815260040160405180910390fd5b6001600160a01b038084165f908152600c6020908152604080832093861683529290529081208054839290612bb2908490614848565b9091555050505050565b61115882612bc98361365c565b612bd290614b15565b613666565b6001600160a01b038216612bfe5760405163586d06df60e01b815260040160405180910390fd5b6001600160a01b0383165f908152600d6020526040812054612c219083906148c9565b9050612c2c81612e1a565b6001600160a01b038085165f908152600d60209081526040808320859055600c825280832093871683529290529081208054849290612c6c9084906148c9565b92505081905550826001600160a01b0316846001600160a01b03167f4e09f7f7fc37ce2897800e2c2a9099565edb0a133d19d84a6871b3530af8846b84604051612cb891815260200190565b60405180910390a350505050565b5f670de0b5cad2bef000821115612cf0576040516301d1b96560e61b815260040160405180910390fd5b612cff64174876e80083614889565b915061299e826018612d125f6001614b2f565b612d1d906001614b2f565b612d28906001614b2f565b612d33906001614b2f565b612d3e906001614b2f565b612d49906001614b2f565b612d54906001614b2f565b612d5f906001614b2f565b612d6a906001614b2f565b612d75906001614b2f565b612d80906001614b2f565b612d8b906001614b2f565b612d96906001614b2f565b612da1906001614b2f565b612dac906001614b2f565b612db7906001614b2f565b612dc2906001614b2f565b612dcd906001614b2f565b60ff16612dda9190614848565b85919060186136e0565b612def600754612a56565b15610aeb57604051630f27df0960e01b815260040160405180910390fd5b61115882612bd28361365c565b612710811015610b7957604051631a5edfd560e11b8152600481018290526024016102f1565b6001600160a01b0381165f818152600d6020908152604080832061271090819055600c8352818420848052835281842081905590519081529192915f516020614d015f395f51905f52910160405180910390a350565b6001600160a01b038216612ebd57604051636df3588760e11b815260040160405180910390fd5b6001600160a01b0383165f908152600d6020526040812054612ee0908390614848565b9050612eeb81612e1a565b6001600160a01b038085165f908152600d60209081526040808320859055600c825280832093871683529290529081208054849290612f2b908490614848565b92505081905550826001600160a01b0316846001600160a01b03165f516020614d015f395f51905f5284604051612cb891815260200190565b612f6d81613471565b610b79578060405163ef029adf60e01b81526004016102f191906145cb565b600754612f9a81600161320c565b60078190556040519091507fbd204090fd387f08e3076528bf09b4fc99d8100d749eace96c06002d3fedc625905f90a150565b5f5f612fd88361294e565b6110d68460801c90565b600754612fef8183613701565b600781905560405183151581529091507f300c7ca619eb846386aa0a6e5916ac2a41406448b0a2e99ba9ccafeb899015a590602001612764565b6001600160a01b038116613040576111588261371c565b336001600160a01b03821614611158576040516323dada5360e01b815260040160405180910390fd5b61307161375f565b610b7981613785565b816001600160a01b031663ce20ece76040518163ffffffff1660e01b8152600401602060405180830381865afa1580156130b6573d5f5f3e3d5ffd5b505050506040513d601f19601f820116820180604052508101906130da919061485b565b8110156130fa576040516317f640d160e31b815260040160405180910390fd5b816001600160a01b031663654cf15d6040518163ffffffff1660e01b8152600401602060405180830381865afa158015613136573d5f5f3e3d5ffd5b505050506040513d601f19601f8201168201806040525081019061315a919061485b565b81111561317a57604051637f47834b60e01b815260040160405180910390fd5b6001600160a01b0382165f9081526020819052604090205461319c90826137ae565b6001600160a01b0383165f8181526020818152604091829020939093555183815290917f89d41522342fabac1471ca6073a5623e5caf367b03ca6e9a001478d0cf8be4a19101612a22565b5f516020614ce15f395f51905f525c90565b5f5f613204836138c0565b509392505050565b5f6001198316821761299e565b5f670de0b5cad2bef000821115613243576040516301d1b96560e61b815260040160405180910390fd5b61325264174876e80083614889565b915061299e826018806132665f6001614b2f565b613271906001614b2f565b61327c906001614b2f565b613287906001614b2f565b613292906001614b2f565b61329d906001614b2f565b6132a8906001614b2f565b6132b3906001614b2f565b6132be906001614b2f565b6132c9906001614b2f565b6132d4906001614b2f565b6132df906001614b2f565b6132ea906001614b2f565b6132f5906001614b2f565b613300906001614b2f565b61330b906001614b2f565b613316906001614b2f565b613321906001614b2f565b60ff1661332e9190614848565b612dda9190614848565b6001600160a01b038281165f908152600e6020526040902054811690821614611158576040516336b18d0960e01b81526001600160a01b038084166004830152821660248201526044016102f1565b5f815f036133a857604051630a0c22c760e01b815260040160405180910390fd5b5f6133b38486614872565b9050600183600183030401811515029150509392505050565b6009546040516326f8aa2160e21b81525f9161010090046001600160a01b031690639be2a8849061340590869086903090600401614b48565b602060405180830381865afa158015613420573d5f5f3e3d5ffd5b505050506040513d601f19601f8201168201806040525081019061299e9190614815565b5f61299e82613454836001614848565b6001811b19861691901b1790565b5f611daf612a70826001614848565b6001600160a01b0381165f90815260208190526040812054611daf90613939565b6001600160a01b03811633036134a6575050565b6111588261371c565b5f611daf6028601880806134c4866001614b2f565b6134cf906001614b2f565b6134da906001614b2f565b6134e5906001614b2f565b6134f0906001614b2f565b6134fb906001614b2f565b613506906001614b2f565b613511906001614b2f565b61351c906001614b2f565b613527906001614b2f565b613532906001614b2f565b61353d906001614b2f565b613548906001614b2f565b613553906001614b2f565b61355e906001614b2f565b613569906001614b2f565b613574906001614b2f565b61357f906001614b2f565b60ff1661358c9190614848565b6135969190614848565b6135a09190614848565b6135aa9190614848565b8390602061396a565b5f61299e826135c3836001614b2f565b6135ce906001614b2f565b60ff1690811b600190911b1985161790565b80825d5050565b5f61299e83608084901b614848565b6135fe6128f7565b6136128161360d836001613978565b6139f7565b610b79612937565b5f61299e8261362a836001614b2f565b6135c3906001614b2f565b6001600160a01b0381165f9081526020819052604081205461299e815b5f60018216611daf565b5f611daf82613a77565b805f03613671575050565b5f6136848361367e613a8b565b90613aaf565b90505f6136918383614b67565b9050805f036136af576136aa6136a5613ac2565b613ae6565b6136c6565b815f036136c6576136c66136c1613ac2565b613afc565b6136da84826136d3613a8b565b9190613b0b565b50505050565b5f6136ec848484613b23565b506001901b5f1901811b1992909216911b1790565b5f61299e82613711836001614848565b613454906001614848565b5f6137315f356001600160e01b0319166118cf565b905061373e813384613ba9565b15155f03611158576040516323dada5360e01b815260040160405180910390fd5b613767612770565b15610aeb576040516336a7e2cd60e21b815260040160405180910390fd5b61378e816131f9565b15610b79578060405163d971f59760e01b81526004016102f191906145cb565b5f670de0b5cad2bef0008211156137d8576040516301d1b96560e61b815260040160405180910390fd5b6137e764174876e80083614889565b915061299e826137f85f6001614b2f565b613803906001614b2f565b61380e906001614b2f565b613819906001614b2f565b613824906001614b2f565b61382f906001614b2f565b61383a906001614b2f565b613845906001614b2f565b613850906001614b2f565b61385b906001614b2f565b613866906001614b2f565b613871906001614b2f565b61387c906001614b2f565b613887906001614b2f565b613892906001614b2f565b61389d906001614b2f565b6138a8906001614b2f565b6138b3906001614b2f565b85919060ff1660186136e0565b6001600160a01b0381165f908152602081905260408120548190816138e482613c29565b90505f6138f0836134af565b905081801561392e57506139247f000000000000000000000000000000000000000000000000000000000000000082614b8e565b63ffffffff164211155b969095509350505050565b5f611daf613948826001614b2f565b613953906001614b2f565b61395e906001614b2f565b839060ff161c60011690565b6001901b5f190191901c1690565b6139b76040518060e001604052805f81526020016060815260200160608152602001606081526020016060815260200160608152602001606081525090565b6001600160a01b0383165f9081526005602090815260408083208383528184205460048452828520600390945291909320611daf93859390929187613c38565b6001600160a01b0382165f908152600560205260408120905b8260600151518110156136da57613a6183606001518281518110613a3657613a366149e8565b602002602001015184608001518381518110613a5457613a546149e8565b602002602001015161295a565b5f82815260208490526040902055600101613a10565b5f5f8212613a83575090565b610a51613ff4565b7f000000000000000000000000000000000000000000000000000000000000000090565b5f8181526020839052604081205c61299e565b7f000000000000000000000000000000000000000000000000000000000000000090565b610b79613af56001835c6148c9565b82906135e0565b610b79613af5825c6001614848565b5f828152602084905260409020611868908290612931565b6101008210613b4557604051632d0483c560e21b815260040160405180910390fd5b60018110158015613b6b5750613b6760ff613b62846101006148c9565b614001565b8111155b613b8857604051632d0483c560e21b815260040160405180910390fd5b82811c156118685760405163e4337c0560e01b815260040160405180910390fd5b6009546040516326f8aa2160e21b81525f9161010090046001600160a01b031690639be2a88490613be290879087908790600401614b48565b602060405180830381865afa158015613bfd573d5f5f3e3d5ffd5b505050506040513d601f19601f82011682018060405250810190613c219190614815565b949350505050565b5f611daf613953826001614b2f565b8154848752604080516020808402820181019092528281529084908390830182828015613c8c57602002820191905f5260205f20905b81546001600160a01b03168152600190910190602001808311613c6e575b50505050508760200181905250806001600160401b03811115613cb157613cb16148f2565b604051908082528060200260200182016040528015613cfa57816020015b604080516060810182525f80825260208083018290529282015282525f19909201910181613ccf5790505b506040880152806001600160401b03811115613d1857613d186148f2565b604051908082528060200260200182016040528015613d41578160200160208202803683370190505b506060880152806001600160401b03811115613d5f57613d5f6148f2565b604051908082528060200260200182016040528015613d88578160200160208202803683370190505b5060808801528651613d9a9082614010565b60c0880152806001600160401b03811115613db757613db76148f2565b604051908082528060200260200182016040528015613de0578160200160208202803683370190505b5060a088015286515f90613df3906140c9565b8015613e0957505f613e07895f01516140d8565b115b8015613e1d57508751613e1b90613939565b155b90505f5b82811015613fe9575f865f8b602001518481518110613e4257613e426149e8565b6020908102919091018101516001600160a01b0316825281019190915260409081015f208151606081019092528054829060ff166001811115613e8757613e87614baa565b6001811115613e9857613e98614baa565b8152905461010081046001600160a01b0316602080840191909152600160a81b90910460ff1615156040928301525f858152908c905281902054908c01518051929350909183919085908110613ef057613ef06149e8565b6020026020010181905250613f04826141d5565b8b60a001518481518110613f1a57613f1a6149e8565b602002602001018181525050613f3a8b84613f348461294e565b896142a4565b8315155f03613f4a575050613fe1565b5f82604001518015613f6e5750600183516001811115613f6c57613f6c614baa565b145b90508015613fdd575f613f838d5f01516140d8565b90505f8d606001518681518110613f9c57613f9c6149e8565b602002602001015190505f613fbc8f613fb58760801c90565b8986614361565b90508015613fd957613fd98f88613fd384866148c9565b8d6142a4565b5050505b5050505b600101613e21565b505050505050505050565b6335278d125f526004601cfd5b5f81831182841802831861299e565b60605f826001600160401b0381111561402b5761402b6148f2565b604051908082528060200260200182016040528015614054578160200160208202803683370190505b5090505f614061856143f6565b64ffffffffff1690505f5b848110156140bf575f61408c614083600584614872565b8490600561396a565b905061409981600a614ca1565b8483815181106140ab576140ab6149e8565b60209081029190910101525060010161406c565b5090949350505050565b5f611daf61395e826001614b2f565b5f64174876e8006141cb6018806140f0856001614b2f565b6140fb906001614b2f565b614106906001614b2f565b614111906001614b2f565b61411c906001614b2f565b614127906001614b2f565b614132906001614b2f565b61413d906001614b2f565b614148906001614b2f565b614153906001614b2f565b61415e906001614b2f565b614169906001614b2f565b614174906001614b2f565b61417f906001614b2f565b61418a906001614b2f565b614195906001614b2f565b6141a0906001614b2f565b6141ab906001614b2f565b60ff166141b89190614848565b6141c29190614848565b8490601861396a565b611daf9190614872565b80515f90818160018111156141ec576141ec614baa565b0361420157670de0b6b3a7640000915061429e565b600181600181111561421557614215614baa565b036142855782602001516001600160a01b031663679aefce6040518163ffffffff1660e01b8152600401602060405180830381865afa15801561425a573d5f5f3e3d5ffd5b505050506040513d601f19601f8201168201806040525081019061427e919061485b565b915061429e565b604051636fa2831960e11b815260040160405180910390fd5b50919050565b81846060015184815181106142bb576142bb6149e8565b60209081029190910101526145945f8260018111156142dc576142dc614baa565b146142e9576144ee6142ed565b6145035b9050614338838660c001518681518110614309576143096149e8565b60200260200101518760a001518781518110614327576143276149e8565b60200260200101518463ffffffff16565b8560800151858151811061434e5761434e6149e8565b6020026020010181815250505050505050565b5f5f85608001518481518110614379576143796149e8565b60200260200101519050848111156143ed575f61439886830385614514565b90506143e98760c0015186815181106143b3576143b36149e8565b60200260200101518860a0015187815181106143d1576143d16149e8565b6020026020010151836145409092919063ffffffff16565b9250505b50949350505050565b5f611daf60188080614409856001614b2f565b614414906001614b2f565b61441f906001614b2f565b61442a906001614b2f565b614435906001614b2f565b614440906001614b2f565b61444b906001614b2f565b614456906001614b2f565b614461906001614b2f565b61446c906001614b2f565b614477906001614b2f565b614482906001614b2f565b61448d906001614b2f565b614498906001614b2f565b6144a3906001614b2f565b6144ae906001614b2f565b6144b9906001614b2f565b6144c4906001614b2f565b60ff166144d19190614848565b6144db9190614848565b6144e59190614848565b8390602861396a565b5f613c21826144fd8587614872565b90614554565b5f613c21826145128587614872565b905b5f806145208385614872565b90506001670de0b6b3a76400006001830304018115150291505092915050565b5f613c218461454f8486614872565b614574565b5f806145608385614872565b9050613c21670de0b6b3a764000082614889565b5f80614588670de0b6b3a764000085614872565b9050613c218382614889565b610aeb614cac565b6001600160a01b0381168114610b79575f5ffd5b5f602082840312156145c0575f5ffd5b813561299e8161459c565b6001600160a01b0391909116815260200190565b5f5f5f606084860312156145f1575f5ffd5b83356145fc8161459c565b95602085013595506040909401359392505050565b5f5f5f5f5f60a08688031215614625575f5ffd5b85356146308161459c565b945060208601359350604086013592506060860135915060808601356146558161459c565b809150509295509295909350565b5f5f60408385031215614674575f5ffd5b823561467f8161459c565b946020939093013593505050565b5f5f5f6060848603121561469f575f5ffd5b83356146aa8161459c565b925060208401356146ba8161459c565b929592945050506040919091013590565b5f602082840312156146db575f5ffd5b81356001600160e01b03198116811461299e575f5ffd5b5f60208284031215614702575f5ffd5b5035919050565b5f8151808452602084019350602083015f5b8281101561473957815186526020958601959091019060010161471b565b5093949350505050565b604081525f6147556040830185614709565b82810360208401526118548185614709565b5f5f60408385031215614778575f5ffd5b82356147838161459c565b915060208301356147938161459c565b809150509250929050565b5f5f5f5f608085870312156147b1575f5ffd5b84356147bc8161459c565b966020860135965060408601359560600135945092505050565b5f602082840312156147e6575f5ffd5b815161299e8161459c565b6001600160a01b039384168152919092166020820152604081019190915260600190565b5f60208284031215614825575f5ffd5b8151801515811461299e575f5ffd5b634e487b7160e01b5f52601160045260245ffd5b80820180821115611daf57611daf614834565b5f6020828403121561486b575f5ffd5b5051919050565b8082028115828204841417611daf57611daf614834565b5f826148a357634e487b7160e01b5f52601260045260245ffd5b500490565b6001600160a01b039390931683526020830191909152604082015260600190565b81810381811115611daf57611daf614834565b9283526020830191909152604082015260600190565b634e487b7160e01b5f52604160045260245ffd5b604051601f8201601f191681016001600160401b038111828210171561492e5761492e6148f2565b604052919050565b5f60208284031215614946575f5ffd5b81516001600160401b0381111561495b575f5ffd5b8201601f8101841361496b575f5ffd5b80516001600160401b03811115614984576149846148f2565b8060051b61499460208201614906565b918252602081840181019290810190878411156149af575f5ffd5b6020850194505b838510156149dd57845192506149cb8361459c565b828252602094850194909101906149b6565b979650505050505050565b634e487b7160e01b5f52603260045260245ffd5b6001600160a01b039586168152602081019490945260408401929092526060830152909116608082015260a00190565b5f5f60408385031215614a3d575f5ffd5b505080516020909101519092909150565b602081525f82518060208401528060208501604085015e5f604082850101526040601f19601f83011684010191505092915050565b5f60208284031215614a93575f5ffd5b81516001600160401b03811115614aa8575f5ffd5b8201601f81018413614ab8575f5ffd5b80516001600160401b03811115614ad157614ad16148f2565b614ae4601f8201601f1916602001614906565b818152856020838501011115614af8575f5ffd5b8160208401602083015e5f91810160200191909152949350505050565b5f600160ff1b8201614b2957614b29614834565b505f0390565b60ff8181168382160190811115611daf57611daf614834565b9283526001600160a01b03918216602084015216604082015260600190565b8082018281125f831280158216821582161715614b8657614b86614834565b505092915050565b63ffffffff8181168382160190811115611daf57611daf614834565b634e487b7160e01b5f52602160045260245ffd5b6001815b6001841115614bf957808504811115614bdd57614bdd614834565b6001841615614beb57908102905b60019390931c928002614bc2565b935093915050565b5f82614c0f57506001611daf565b81614c1b57505f611daf565b8160018114614c315760028114614c3b57614c57565b6001915050611daf565b60ff841115614c4c57614c4c614834565b50506001821b611daf565b5060208310610133831016604e8410600b8410161715614c7a575081810a611daf565b614c865f198484614bbe565b805f1904821115614c9957614c99614834565b029392505050565b5f61299e8383614c01565b634e487b7160e01b5f52605160045260245ffdfe75c4dc5f23640eeba7d404d9165f515fc3d9e23a5c8b6e2d09b4b9da56ff00a99b779b17422d0df92223018b32b4d1fa46e071723d6817e2486d003becc55f00d66f031d33381c6408f0b32c884461e5de3df8808399b6f3a3d86b1368f8ec34a2646970667358221220b253cf655e1c05e1df5b2c9e8048c19428726db436ce54370fe53f899d31862864736f6c634300081e0033","linkReferences":{}},"methodIdentifiers":{"addLiquidityToBuffer(address,uint256,uint256,uint256,address)":"e2a92b1a","addLiquidityToBufferUnbalancedForTests(address,uint256,uint256)":"1f568ea3","areBuffersPaused()":"55cba7fe","collectAggregateFees(address)":"8f4ab9ca","disableQuery()":"de1a36a6","disableQueryPermanently()":"821440f2","disableRecoveryMode(address)":"bffb78b2","enableQuery()":"e0d55605","enableRecoveryMode(address)":"dc3f574e","getActionId(bytes4)":"851c1bb3","getBufferAsset(address)":"0387587d","getBufferBalance(address)":"4021fe0f","getBufferMinimumTotalSupply()":"26a8a991","getBufferOwnerShares(address,address)":"9385e39a","getBufferPeriodDuration()":"20c1fb7a","getBufferPeriodEndTime()":"cd51c12f","getBufferTotalShares(address)":"f2784e07","getMaximumPoolTokens()":"2e42f4d5","getMinimumPoolTokens()":"a8175b27","getMinimumTradeAmount()":"e2cb0ba0","getMinimumWrapAmount()":"53956aa2","getPauseWindowEndTime()":"8a8d123a","getPoolMinimumTotalSupply()":"d0965a6b","getVaultPausedState()":"85c8c015","initializeBuffer(address,uint256,uint256,uint256,address)":"653eb3b0","isVaultPaused()":"098401f5","manualBurnBufferShares(address,address,uint256)":"e8338894","manualDisableRecoveryMode(address)":"7578abb9","manualEnableRecoveryMode(address)":"27521d0c","manualMintBufferShares(address,address,uint256)":"6b230291","manualMintMinimumBufferSupplyReserve(address)":"e99ac9a3","manualPausePool(address)":"1558356e","manualPauseVault()":"071d8a02","manualReentrancyAddLiquidityToBuffer(address,uint256,uint256,uint256,address)":"9260d920","manualReentrancyDisableRecoveryMode(address)":"16df26cb","manualReentrancyInitializeBuffer(address,uint256,uint256,uint256,address)":"b61398cd","manualReentrancyRemoveLiquidityFromBufferHook(address,uint256,uint256,uint256,address)":"c7b3b3a9","manualUnpausePool(address)":"52b9e33d","manualUnpauseVault()":"cc671ff7","mockEnsurePoolNotInRecoveryMode(address)":"0b9df1f6","mockWithValidPercentage(uint256)":"88e5101a","pausePool(address)":"55aca1ec","pauseVault()":"9e0879c2","pauseVaultBuffers()":"e085c5a8","reentrancyGuardEntered()":"d2c725e0","removeLiquidityFromBuffer(address,uint256,uint256,uint256)":"ebc7955c","removeLiquidityFromBufferHook(address,uint256,uint256,uint256,address)":"5dcacd64","setAuthorizer(address)":"058a628f","setProtocolFeeController(address)":"2d771389","setStaticSwapFeePercentage(address,uint256)":"d15126ba","unpausePool(address)":"f21c38cd","unpauseVault()":"0b7562be","unpauseVaultBuffers()":"b9212b49","updateAggregateSwapFeePercentage(address,uint256)":"5e0b06f4","updateAggregateYieldFeePercentage(address,uint256)":"e253670a","vault()":"fbfa77cf"},"id":388}