{"abi":[{"type":"constructor","inputs":[],"stateMutability":"nonpayable"},{"type":"receive","stateMutability":"payable"},{"type":"function","name":"EIP712_DOMAIN_TYPE","inputs":[],"outputs":[{"name":"","type":"string","internalType":"string"}],"stateMutability":"view"},{"type":"function","name":"GENERIC_PARAMS","inputs":[],"outputs":[{"name":"","type":"string","internalType":"string"}],"stateMutability":"view"},{"type":"function","name":"_getEncoded","inputs":[{"name":"req","type":"tuple","internalType":"struct IForwarder.ForwardRequest","components":[{"name":"from","type":"address","internalType":"address"},{"name":"to","type":"address","internalType":"address"},{"name":"value","type":"uint256","internalType":"uint256"},{"name":"gas","type":"uint256","internalType":"uint256"},{"name":"nonce","type":"uint256","internalType":"uint256"},{"name":"data","type":"bytes","internalType":"bytes"},{"name":"validUntilTime","type":"uint256","internalType":"uint256"}]},{"name":"requestTypeHash","type":"bytes32","internalType":"bytes32"},{"name":"suffixData","type":"bytes","internalType":"bytes"}],"outputs":[{"name":"","type":"bytes","internalType":"bytes"}],"stateMutability":"pure"},{"type":"function","name":"domains","inputs":[{"name":"","type":"bytes32","internalType":"bytes32"}],"outputs":[{"name":"","type":"bool","internalType":"bool"}],"stateMutability":"view"},{"type":"function","name":"execute","inputs":[{"name":"req","type":"tuple","internalType":"struct IForwarder.ForwardRequest","components":[{"name":"from","type":"address","internalType":"address"},{"name":"to","type":"address","internalType":"address"},{"name":"value","type":"uint256","internalType":"uint256"},{"name":"gas","type":"uint256","internalType":"uint256"},{"name":"nonce","type":"uint256","internalType":"uint256"},{"name":"data","type":"bytes","internalType":"bytes"},{"name":"validUntilTime","type":"uint256","internalType":"uint256"}]},{"name":"domainSeparator","type":"bytes32","internalType":"bytes32"},{"name":"requestTypeHash","type":"bytes32","internalType":"bytes32"},{"name":"suffixData","type":"bytes","internalType":"bytes"},{"name":"sig","type":"bytes","internalType":"bytes"}],"outputs":[{"name":"success","type":"bool","internalType":"bool"},{"name":"ret","type":"bytes","internalType":"bytes"}],"stateMutability":"payable"},{"type":"function","name":"getNonce","inputs":[{"name":"from","type":"address","internalType":"address"}],"outputs":[{"name":"","type":"uint256","internalType":"uint256"}],"stateMutability":"view"},{"type":"function","name":"registerDomainSeparator","inputs":[{"name":"name","type":"string","internalType":"string"},{"name":"version","type":"string","internalType":"string"}],"outputs":[],"stateMutability":"nonpayable"},{"type":"function","name":"registerRequestType","inputs":[{"name":"typeName","type":"string","internalType":"string"},{"name":"typeSuffix","type":"string","internalType":"string"}],"outputs":[],"stateMutability":"nonpayable"},{"type":"function","name":"supportsInterface","inputs":[{"name":"interfaceId","type":"bytes4","internalType":"bytes4"}],"outputs":[{"name":"","type":"bool","internalType":"bool"}],"stateMutability":"view"},{"type":"function","name":"typeHashes","inputs":[{"name":"","type":"bytes32","internalType":"bytes32"}],"outputs":[{"name":"","type":"bool","internalType":"bool"}],"stateMutability":"view"},{"type":"function","name":"verify","inputs":[{"name":"req","type":"tuple","internalType":"struct IForwarder.ForwardRequest","components":[{"name":"from","type":"address","internalType":"address"},{"name":"to","type":"address","internalType":"address"},{"name":"value","type":"uint256","internalType":"uint256"},{"name":"gas","type":"uint256","internalType":"uint256"},{"name":"nonce","type":"uint256","internalType":"uint256"},{"name":"data","type":"bytes","internalType":"bytes"},{"name":"validUntilTime","type":"uint256","internalType":"uint256"}]},{"name":"domainSeparator","type":"bytes32","internalType":"bytes32"},{"name":"requestTypeHash","type":"bytes32","internalType":"bytes32"},{"name":"suffixData","type":"bytes","internalType":"bytes"},{"name":"sig","type":"bytes","internalType":"bytes"}],"outputs":[],"stateMutability":"view"},{"type":"event","name":"DomainRegistered","inputs":[{"name":"domainSeparator","type":"bytes32","indexed":true,"internalType":"bytes32"},{"name":"domainValue","type":"bytes","indexed":false,"internalType":"bytes"}],"anonymous":false},{"type":"event","name":"RequestTypeRegistered","inputs":[{"name":"typeHash","type":"bytes32","indexed":true,"internalType":"bytes32"},{"name":"typeStr","type":"string","indexed":false,"internalType":"string"}],"anonymous":false}],"bytecode":{"object":"0x608060405234801561000f575f5ffd5b505f6040518060a00160405280606181526020016111546061913960405160200161003a91906100bc565b60408051601f1981840301815291905290506100558161005b565b5061012b565b80516020808301919091205f81815291829052604091829020805460ff19166001179055905181907f64d6bce64323458c44643c51fe45113efc882082f7b7fd5f09f0d69d2eedb202906100b09085906100f6565b60405180910390a25050565b6e08cdee4eec2e4c8a4cae2eacae6e85608b1b81525f82518060208501600f85015e602960f81b600f939091019283015250601001919050565b602081525f82518060208401528060208501604085015e5f604082850101526040601f19601f83011684010191505092915050565b61101c806101385f395ff3fe60806040526004361061008e575f3560e01c806301ffc9a714610099578063066a310c146100cd57806321fe98df146100ee5780632d0335ab1461011c5780639c7b45921461015e578063ad9f99c71461017f578063c3f28abd1461019e578063c722f177146101b2578063d9210be5146101e0578063e024dc7f146101ff578063e2b62f2d14610220575f5ffd5b3661009557005b5f5ffd5b3480156100a4575f5ffd5b506100b86100b3366004610ad4565b61023f565b60405190151581526020015b60405180910390f35b3480156100d8575f5ffd5b506100e1610275565b6040516100c49190610b29565b3480156100f9575f5ffd5b506100b8610108366004610b3b565b5f6020819052908152604090205460ff1681565b348015610127575f5ffd5b50610150610136366004610b52565b6001600160a01b03165f9081526002602052604090205490565b6040519081526020016100c4565b348015610169575f5ffd5b5061017d610178366004610bbc565b610291565b005b34801561018a575f5ffd5b5061017d610199366004610c3c565b610385565b3480156101a9575f5ffd5b506100e16103a6565b3480156101bd575f5ffd5b506100b86101cc366004610b3b565b60016020525f908152604090205460ff1681565b3480156101eb575f5ffd5b5061017d6101fa366004610bbc565b6103c2565b61021261020d366004610c3c565b6104b8565b6040516100c4929190610ce5565b34801561022b575f5ffd5b506100e161023a366004610d07565b6106c5565b5f6001600160e01b031982166309788f9960e21b148061026f57506301ffc9a760e01b6001600160e01b03198316145b92915050565b6040518060a0016040528060618152602001610f346061913981565b5f4690505f604051806080016040528060528152602001610f95605291398051906020012086866040516102c6929190610d5d565b604051809103902085856040516102de929190610d5d565b6040805191829003822060208301949094528101919091526060810191909152608081018390523060a082015260c00160408051601f1981840301815282825280516020808301919091205f81815260019283905293909320805460ff1916909117905592509081907f4bc68689cbe89a4a6333a3ab0a70093874da3e5bfb71e93102027f3f073687d890610374908590610b29565b60405180910390a250505050505050565b61038e8761075f565b61039d878787878787876107b4565b50505050505050565b604051806080016040528060528152602001610f956052913981565b5f5b83811015610464575f8585838181106103df576103df610d6c565b909101356001600160f81b031916915050600560fb1b81148015906104125750602960f81b6001600160f81b0319821614155b61045b5760405162461bcd60e51b81526020600482015260156024820152744657443a20696e76616c696420747970656e616d6560581b60448201526064015b60405180910390fd5b506001016103c4565b505f84846040518060a0016040528060618152602001610f34606191398585604051602001610497959493929190610d97565b60405160208183030381529060405290506104b181610979565b5050505050565b5f60606104ca898989898989896107b4565b6104d3896109da565b60c089013515806104e75750428960c00135115b61052a5760405162461bcd60e51b81526020600482015260146024820152731195d10e881c995c5d595cdd08195e1c1a5c995960621b6044820152606401610452565b5f60408a01351561053a5750619c405b5f61054860a08c018c610dd7565b61055560208e018e610b52565b60405160200161056793929190610e19565b60408051601f1981840301815291905290506105878260608d0135610e4e565b60405a61059590603f610e61565b61059f9190610e78565b10156105e55760405162461bcd60e51b81526020600482015260156024820152744657443a20696e73756666696369656e742067617360581b6044820152606401610452565b6105f560408c0160208d01610b52565b6001600160a01b03168b606001358c60400135836040516106169190610e97565b5f60405180830381858888f193505050503d805f8114610651576040519150601f19603f3d011682016040523d82523d5f602084013e610656565b606091505b50909450925060408b01351580159061066e57505f47115b156106b75761068060208c018c610b52565b6001600160a01b03166108fc4790811502906040515f60405180830381858888f193505050501580156106b5573d5f5f3e3d5ffd5b505b505097509795505050505050565b6060836106d56020870187610b52565b6001600160a01b03166106ee6040880160208901610b52565b6001600160a01b03166040880135606089013560808a013561071360a08c018c610dd7565b604051610721929190610d5d565b6040519081900381206107469796959493929160c08e0135908c908c90602001610ea2565b6040516020818303038152906040529050949350505050565b608081013560025f6107746020850185610b52565b6001600160a01b03166001600160a01b031681526020019081526020015f2054146107b15760405162461bcd60e51b815260040161045290610eee565b50565b5f8681526001602052604090205460ff166108115760405162461bcd60e51b815260206004820152601d60248201527f4657443a20756e7265676973746572656420646f6d61696e207365702e0000006044820152606401610452565b5f8581526020819052604090205460ff1661086b5760405162461bcd60e51b815260206004820152601a60248201527908cae887440eadce4caced2e6e8cae4cac840e8f2e0cad0c2e6d60331b6044820152606401610452565b5f86610879898888886106c5565b80516020918201206040516108a593920161190160f01b81526002810192909252602282015260420190565b60408051601f198184030181529190528051602090910120905032158061092957506108d46020890189610b52565b6001600160a01b031661091e84848080601f0160208091040260200160405190810160405280939291908181526020018383808284375f920191909152508693925050610a369050565b6001600160a01b0316145b61096f5760405162461bcd60e51b815260206004820152601760248201527608cae887440e6d2cedcc2e8eae4ca40dad2e6dac2e8c6d604b1b6044820152606401610452565b5050505050505050565b80516020808301919091205f81815291829052604091829020805460ff19166001179055905181907f64d6bce64323458c44643c51fe45113efc882082f7b7fd5f09f0d69d2eedb202906109ce908590610b29565b60405180910390a25050565b608081013560025f6109ef6020850185610b52565b6001600160a01b0316815260208101919091526040015f908120805491610a1583610f1b565b91905055146107b15760405162461bcd60e51b815260040161045290610eee565b5f610a418383610a48565b9392505050565b5f604051825160408114610a645760418114610a855750610ac0565b604084015160ff81901c601b016020526001600160ff1b0316606052610a98565b60608401515f1a60205260408401516060525b50835f5260208301516040526020600160805f60015afa5191505f606052806040523d610acd575b638baa579f5f526004601cfd5b5092915050565b5f60208284031215610ae4575f5ffd5b81356001600160e01b031981168114610a41575f5ffd5b5f81518084528060208401602086015e5f602082860101526020601f19601f83011685010191505092915050565b602081525f610a416020830184610afb565b5f60208284031215610b4b575f5ffd5b5035919050565b5f60208284031215610b62575f5ffd5b81356001600160a01b0381168114610a41575f5ffd5b5f5f83601f840112610b88575f5ffd5b5081356001600160401b03811115610b9e575f5ffd5b602083019150836020828501011115610bb5575f5ffd5b9250929050565b5f5f5f5f60408587031215610bcf575f5ffd5b84356001600160401b03811115610be4575f5ffd5b610bf087828801610b78565b90955093505060208501356001600160401b03811115610c0e575f5ffd5b610c1a87828801610b78565b95989497509550505050565b5f60e08284031215610c36575f5ffd5b50919050565b5f5f5f5f5f5f5f60a0888a031215610c52575f5ffd5b87356001600160401b03811115610c67575f5ffd5b610c738a828b01610c26565b975050602088013595506040880135945060608801356001600160401b03811115610c9c575f5ffd5b610ca88a828b01610b78565b90955093505060808801356001600160401b03811115610cc6575f5ffd5b610cd28a828b01610b78565b989b979a50959850939692959293505050565b8215158152604060208201525f610cff6040830184610afb565b949350505050565b5f5f5f5f60608587031215610d1a575f5ffd5b84356001600160401b03811115610d2f575f5ffd5b610d3b87828801610c26565b9450506020850135925060408501356001600160401b03811115610c0e575f5ffd5b818382375f9101908152919050565b634e487b7160e01b5f52603260045260245ffd5b5f81518060208401855e5f93019283525090919050565b848682375f858201600560fb1b8152610db36001820187610d80565b9050600b60fa1b8152838560018301375f9301600101928352509095945050505050565b5f5f8335601e19843603018112610dec575f5ffd5b8301803591506001600160401b03821115610e05575f5ffd5b602001915036819003821315610bb5575f5ffd5b8284823760609190911b6001600160601b0319169101908152601401919050565b634e487b7160e01b5f52601160045260245ffd5b8082018082111561026f5761026f610e3a565b808202811582820484141761026f5761026f610e3a565b5f82610e9257634e487b7160e01b5f52601260045260245ffd5b500490565b5f610a418284610d80565b8a81528960208201528860408201528760608201528660808201528560a08201528460c08201528360e082015281836101008301375f9101610100019081529998505050505050505050565b60208082526013908201527208cae887440dcdedcc6ca40dad2e6dac2e8c6d606b1b604082015260600190565b5f60018201610f2c57610f2c610e3a565b506001019056fe616464726573732066726f6d2c6164647265737320746f2c75696e743235362076616c75652c75696e74323536206761732c75696e74323536206e6f6e63652c627974657320646174612c75696e743235362076616c6964556e74696c54696d65454950373132446f6d61696e28737472696e67206e616d652c737472696e672076657273696f6e2c75696e7432353620636861696e49642c6164647265737320766572696679696e67436f6e747261637429a2646970667358221220052735c55bcc8d421b98543f7f320eb12e5a1b7868068432b0a530c29dfe683c64736f6c634300081e0033616464726573732066726f6d2c6164647265737320746f2c75696e743235362076616c75652c75696e74323536206761732c75696e74323536206e6f6e63652c627974657320646174612c75696e743235362076616c6964556e74696c54696d65","linkReferences":{}},"methodIdentifiers":{"EIP712_DOMAIN_TYPE()":"c3f28abd","GENERIC_PARAMS()":"066a310c","_getEncoded((address,address,uint256,uint256,uint256,bytes,uint256),bytes32,bytes)":"e2b62f2d","domains(bytes32)":"c722f177","execute((address,address,uint256,uint256,uint256,bytes,uint256),bytes32,bytes32,bytes,bytes)":"e024dc7f","getNonce(address)":"2d0335ab","registerDomainSeparator(string,string)":"9c7b4592","registerRequestType(string,string)":"d9210be5","supportsInterface(bytes4)":"01ffc9a7","typeHashes(bytes32)":"21fe98df","verify((address,address,uint256,uint256,uint256,bytes,uint256),bytes32,bytes32,bytes,bytes)":"ad9f99c7"},"id":811}