{"abi":[{"type":"constructor","inputs":[{"name":"vat_","type":"address","internalType":"address"},{"name":"dai_","type":"address","internalType":"address"}],"stateMutability":"nonpayable"},{"type":"function","name":"cage","inputs":[],"outputs":[],"stateMutability":"nonpayable"},{"type":"function","name":"dai","inputs":[],"outputs":[{"name":"","type":"address","internalType":"contract DSTokenLike"}],"stateMutability":"view"},{"type":"function","name":"deny","inputs":[{"name":"usr","type":"address","internalType":"address"}],"outputs":[],"stateMutability":"nonpayable"},{"type":"function","name":"exit","inputs":[{"name":"usr","type":"address","internalType":"address"},{"name":"wad","type":"uint256","internalType":"uint256"}],"outputs":[],"stateMutability":"nonpayable"},{"type":"function","name":"join","inputs":[{"name":"usr","type":"address","internalType":"address"},{"name":"wad","type":"uint256","internalType":"uint256"}],"outputs":[],"stateMutability":"nonpayable"},{"type":"function","name":"live","inputs":[],"outputs":[{"name":"","type":"uint256","internalType":"uint256"}],"stateMutability":"view"},{"type":"function","name":"rely","inputs":[{"name":"usr","type":"address","internalType":"address"}],"outputs":[],"stateMutability":"nonpayable"},{"type":"function","name":"vat","inputs":[],"outputs":[{"name":"","type":"address","internalType":"contract VatLike"}],"stateMutability":"view"},{"type":"function","name":"wards","inputs":[{"name":"","type":"address","internalType":"address"}],"outputs":[{"name":"","type":"uint256","internalType":"uint256"}],"stateMutability":"view"}],"bytecode":{"object":"0x6080604052348015600e575f5ffd5b506040516105ef3803806105ef833981016040819052602b91608c565b335f908152602081905260409020600190819055600381905580546001600160a01b039384166001600160a01b0319918216179091556002805492909316911617905560b8565b80516001600160a01b03811681146087575f5ffd5b919050565b5f5f60408385031215609c575f5ffd5b60a3836072565b915060af602084016072565b90509250929050565b61052a806100c55f395ff3fe608060405234801561000f575f5ffd5b5060043610610081575f3560e01c806336569e77146100855780633b4da69f146100b557806365fae35e146100ca57806369245009146100dd578063957aa58c146100e55780639c52a7f1146100fc578063bf353dbb1461010f578063ef693bed1461012e578063f4b9fa7514610141575b5f5ffd5b600154610098906001600160a01b031681565b6040516001600160a01b0390911681526020015b60405180910390f35b6100c86100c336600461042b565b610154565b005b6100c86100d8366004610453565b61022a565b6100c861027d565b6100ee60035481565b6040519081526020016100ac565b6100c861010a366004610453565b6102b1565b6100ee61011d366004610453565b5f6020819052908152604090205481565b6100c861013c36600461042b565b6102f8565b600254610098906001600160a01b031681565b6001546001600160a01b031663bb35783b308461017c676765c793fa10079d601b1b866103e2565b6040518463ffffffff1660e01b815260040161019a93929190610473565b5f604051808303815f87803b1580156101b1575f5ffd5b505af11580156101c3573d5f5f3e3d5ffd5b5050600254604051632770a7eb60e21b81526001600160a01b039091169250639dc29fac91506101f99033908590600401610497565b5f604051808303815f87803b158015610210575f5ffd5b505af1158015610222573d5f5f3e3d5ffd5b505050505050565b335f908152602081905260409020546001146102615760405162461bcd60e51b8152600401610258906104b0565b60405180910390fd5b6001600160a01b03165f90815260208190526040902060019055565b335f908152602081905260409020546001146102ab5760405162461bcd60e51b8152600401610258906104b0565b5f600355565b335f908152602081905260409020546001146102df5760405162461bcd60e51b8152600401610258906104b0565b6001600160a01b03165f90815260208190526040812055565b60035460011461033d5760405162461bcd60e51b815260206004820152601060248201526f4461694a6f696e2f6e6f742d6c69766560801b6044820152606401610258565b6001546001600160a01b031663bb35783b3330610365676765c793fa10079d601b1b866103e2565b6040518463ffffffff1660e01b815260040161038393929190610473565b5f604051808303815f87803b15801561039a575f5ffd5b505af11580156103ac573d5f5f3e3d5ffd5b50506002546040516340c10f1960e01b81526001600160a01b0390911692506340c10f1991506101f99085908590600401610497565b5f811580610402575050808202828282816103ff576103ff6104e0565b04145b61040a575f5ffd5b92915050565b80356001600160a01b0381168114610426575f5ffd5b919050565b5f5f6040838503121561043c575f5ffd5b61044583610410565b946020939093013593505050565b5f60208284031215610463575f5ffd5b61046c82610410565b9392505050565b6001600160a01b039384168152919092166020820152604081019190915260600190565b6001600160a01b03929092168252602082015260400190565b60208082526016908201527511185a529bda5b8bdb9bdd0b585d5d1a1bdc9a5e995960521b604082015260600190565b634e487b7160e01b5f52601260045260245ffdfea26469706673582212207e8a7db4a2ba411132d431caad7f48cad997339648a6523c0553901bd72979b064736f6c634300081e0033","linkReferences":{}},"methodIdentifiers":{"cage()":"69245009","dai()":"f4b9fa75","deny(address)":"9c52a7f1","exit(address,uint256)":"ef693bed","join(address,uint256)":"3b4da69f","live()":"957aa58c","rely(address)":"65fae35e","vat()":"36569e77","wards(address)":"bf353dbb"},"id":690}