{"abi":[{"type":"constructor","inputs":[{"name":"vat_","type":"address","internalType":"address"},{"name":"ilk_","type":"bytes32","internalType":"bytes32"},{"name":"gem_","type":"address","internalType":"address"}],"stateMutability":"nonpayable"},{"type":"function","name":"cage","inputs":[],"outputs":[],"stateMutability":"nonpayable"},{"type":"function","name":"dec","inputs":[],"outputs":[{"name":"","type":"uint256","internalType":"uint256"}],"stateMutability":"view"},{"type":"function","name":"deny","inputs":[{"name":"usr","type":"address","internalType":"address"}],"outputs":[],"stateMutability":"nonpayable"},{"type":"function","name":"exit","inputs":[{"name":"usr","type":"address","internalType":"address"},{"name":"wad","type":"uint256","internalType":"uint256"}],"outputs":[],"stateMutability":"nonpayable"},{"type":"function","name":"gem","inputs":[],"outputs":[{"name":"","type":"address","internalType":"contract GemLike"}],"stateMutability":"view"},{"type":"function","name":"ilk","inputs":[],"outputs":[{"name":"","type":"bytes32","internalType":"bytes32"}],"stateMutability":"view"},{"type":"function","name":"join","inputs":[{"name":"usr","type":"address","internalType":"address"},{"name":"wad","type":"uint256","internalType":"uint256"}],"outputs":[],"stateMutability":"nonpayable"},{"type":"function","name":"live","inputs":[],"outputs":[{"name":"","type":"uint256","internalType":"uint256"}],"stateMutability":"view"},{"type":"function","name":"rely","inputs":[{"name":"usr","type":"address","internalType":"address"}],"outputs":[],"stateMutability":"nonpayable"},{"type":"function","name":"vat","inputs":[],"outputs":[{"name":"","type":"address","internalType":"contract VatLike"}],"stateMutability":"view"},{"type":"function","name":"wards","inputs":[{"name":"","type":"address","internalType":"address"}],"outputs":[{"name":"","type":"uint256","internalType":"uint256"}],"stateMutability":"view"}],"bytecode":{"object":"0x608060405234801561000f575f5ffd5b5060405161074838038061074883398101604081905261002e916100fa565b335f9081526020818152604091829020600190819055600581905580546001600160a01b038781166001600160a01b0319928316179092556002869055600380549286169290911682179055825163313ce56760e01b81529251909263313ce5679260048281019391928290030181865afa1580156100af573d5f5f3e3d5ffd5b505050506040513d601f19601f820116820180604052508101906100d39190610133565b6004555061014a915050565b80516001600160a01b03811681146100f5575f5ffd5b919050565b5f5f5f6060848603121561010c575f5ffd5b610115846100df565b92506020840151915061012a604085016100df565b90509250925092565b5f60208284031215610143575f5ffd5b5051919050565b6105f1806101575f395ff3fe608060405234801561000f575f5ffd5b5060043610610097575f3560e01c806336569e771461009b5780633b4da69f146100cb57806365fae35e146100e057806369245009146100f35780637bd2bea7146100fb578063957aa58c1461010e5780639c52a7f114610125578063b3bcfa8214610138578063bf353dbb14610141578063c5ce281e14610160578063ef693bed14610169575b5f5ffd5b6001546100ae906001600160a01b031681565b6040516001600160a01b0390911681526020015b60405180910390f35b6100de6100d93660046104b5565b61017c565b005b6100de6100ee3660046104dd565b61030b565b6100de610355565b6003546100ae906001600160a01b031681565b61011760055481565b6040519081526020016100c2565b6100de6101333660046104dd565b610389565b61011760045481565b61011761014f3660046104dd565b5f6020819052908152604090205481565b61011760025481565b6100de6101773660046104b5565b6103d0565b6005546001146101c65760405162461bcd60e51b815260206004820152601060248201526f47656d4a6f696e2f6e6f742d6c69766560801b60448201526064015b60405180910390fd5b5f8112156101e65760405162461bcd60e51b81526004016101bd906104fd565b600154600254604051633e6e9fef60e11b81526001600160a01b0390921691637cdd3fde9161021b9186908690600401610527565b5f604051808303815f87803b158015610232575f5ffd5b505af1158015610244573d5f5f3e3d5ffd5b50506003546040516323b872dd60e01b8152336004820152306024820152604481018590526001600160a01b0390911692506323b872dd91506064015b6020604051808303815f875af115801561029d573d5f5f3e3d5ffd5b505050506040513d601f19601f820116820180604052508101906102c19190610546565b6103075760405162461bcd60e51b815260206004820152601760248201527623b2b6a537b4b717b330b4b632b216ba3930b739b332b960491b60448201526064016101bd565b5050565b335f908152602081905260409020546001146103395760405162461bcd60e51b81526004016101bd90610565565b6001600160a01b03165f90815260208190526040902060019055565b335f908152602081905260409020546001146103835760405162461bcd60e51b81526004016101bd90610565565b5f600555565b335f908152602081905260409020546001146103b75760405162461bcd60e51b81526004016101bd90610565565b6001600160a01b03165f90815260208190526040812055565b600160ff1b8111156103f45760405162461bcd60e51b81526004016101bd906104fd565b6001546002546001600160a01b0390911690637cdd3fde903361041685610595565b6040518463ffffffff1660e01b815260040161043493929190610527565b5f604051808303815f87803b15801561044b575f5ffd5b505af115801561045d573d5f5f3e3d5ffd5b505060035460405163a9059cbb60e01b81526001600160a01b03868116600483015260248201869052909116925063a9059cbb9150604401610281565b80356001600160a01b03811681146104b0575f5ffd5b919050565b5f5f604083850312156104c6575f5ffd5b6104cf8361049a565b946020939093013593505050565b5f602082840312156104ed575f5ffd5b6104f68261049a565b9392505050565b60208082526010908201526f47656d4a6f696e2f6f766572666c6f7760801b604082015260600190565b9283526001600160a01b03919091166020830152604082015260600190565b5f60208284031215610556575f5ffd5b815180151581146104f6575f5ffd5b60208082526016908201527511d95b529bda5b8bdb9bdd0b585d5d1a1bdc9a5e995960521b604082015260600190565b5f600160ff1b82016105b557634e487b7160e01b5f52601160045260245ffd5b505f039056fea26469706673582212202dafb923108f89fc227e2b7407fd1365bb8f1781fe611c795040ba2bec27125364736f6c634300081e0033","linkReferences":{}},"methodIdentifiers":{"cage()":"69245009","dec()":"b3bcfa82","deny(address)":"9c52a7f1","exit(address,uint256)":"ef693bed","gem()":"7bd2bea7","ilk()":"c5ce281e","join(address,uint256)":"3b4da69f","live()":"957aa58c","rely(address)":"65fae35e","vat()":"36569e77","wards(address)":"bf353dbb"},"id":690}