{"abi":[{"type":"function","name":"facetFuncs","inputs":[],"outputs":[{"name":"funcs","type":"bytes4[]","internalType":"bytes4[]"}],"stateMutability":"pure"},{"type":"function","name":"facetInterfaces","inputs":[],"outputs":[{"name":"interfaces","type":"bytes4[]","internalType":"bytes4[]"}],"stateMutability":"pure"},{"type":"function","name":"facetMetadata","inputs":[],"outputs":[{"name":"name","type":"string","internalType":"string"},{"name":"interfaces","type":"bytes4[]","internalType":"bytes4[]"},{"name":"functions","type":"bytes4[]","internalType":"bytes4[]"}],"stateMutability":"pure"},{"type":"function","name":"facetName","inputs":[],"outputs":[{"name":"name","type":"string","internalType":"string"}],"stateMutability":"pure"},{"type":"function","name":"getActionId","inputs":[{"name":"selector","type":"bytes4","internalType":"bytes4"}],"outputs":[{"name":"","type":"bytes32","internalType":"bytes32"}],"stateMutability":"view"},{"type":"error","name":"SenderNotAllowed","inputs":[]}],"bytecode":{"object":"0x6080604052348015600e575f5ffd5b506103898061001c5f395ff3fe608060405234801561000f575f5ffd5b5060043610610055575f3560e01c80632ea8082614610059578063574a4cff146100775780635b6f4d011461007f578063851c1bb314610094578063f10d7a75146100b5575b5f5ffd5b6100616100cc565b60405161006e9190610284565b60405180910390f35b610061610124565b610087610160565b60405161006e91906102c4565b6100a76100a23660046102d6565b610197565b60405190815260200161006e565b6100bd6101a7565b60405161006e939291906102fd565b6040805160018082528183019092526060916020808301908036833701905050905063851c1bb360e01b815f815181106101085761010861033f565b6001600160e01b03199092166020928302919091019091015290565b6040805160018082528183019092526060916020808301908036833701905050905063851c1bb360e01b815f815181106101085761010861033f565b60408051808201909152601d81527f42616c616e636572563341757468656e7469636174696f6e4661636574000000602082015290565b5f6101a1826101cf565b92915050565b60608060606101b4610160565b92506101be6100cc565b91506101c8610124565b9050909192565b5f6101a17f82340927aad1ca6b5f8bb0037567f287e1bec629ab302d4e1debbc0d7543b1f8835f610239610201845490565b6040805160208101929092526001600160e01b0319851690820152604401604051602081830303815290604052805160209091012090565b9392505050565b5f8151808452602084019350602083015f5b8281101561027a5781516001600160e01b031916865260209586019590910190600101610252565b5093949350505050565b602081525f6102396020830184610240565b5f81518084528060208401602086015e5f602082860101526020601f19601f83011685010191505092915050565b602081525f6102396020830184610296565b5f602082840312156102e6575f5ffd5b81356001600160e01b031981168114610239575f5ffd5b606081525f61030f6060830186610296565b82810360208401526103218186610240565b905082810360408401526103358185610240565b9695505050505050565b634e487b7160e01b5f52603260045260245ffdfea2646970667358221220d97cda85768a34810e7ac553e6700979761ea9437857dabfd1ce87d5dec6e6e564736f6c634300081e0033","linkReferences":{}},"methodIdentifiers":{"facetFuncs()":"574a4cff","facetInterfaces()":"2ea80826","facetMetadata()":"f10d7a75","facetName()":"5b6f4d01","getActionId(bytes4)":"851c1bb3"},"id":967}