{"abi":[{"type":"constructor","inputs":[{"name":"pkgInit","type":"tuple","internalType":"struct IERC4626RateProviderFacetDFPkg.PkgInit","components":[{"name":"erc4626RateProviderFacet","type":"address","internalType":"contract IFacet"},{"name":"diamondPackageFactory","type":"address","internalType":"contract IDiamondPackageCallBackFactory"}]}],"stateMutability":"nonpayable"},{"type":"function","name":"DIAMOND_PACKAGE_FACTORY","inputs":[],"outputs":[{"name":"","type":"address","internalType":"contract IDiamondPackageCallBackFactory"}],"stateMutability":"view"},{"type":"function","name":"calcSalt","inputs":[{"name":"pkgArgs","type":"bytes","internalType":"bytes"}],"outputs":[{"name":"salt","type":"bytes32","internalType":"bytes32"}],"stateMutability":"pure"},{"type":"function","name":"deployRateProvider","inputs":[{"name":"erc4626Vault","type":"address","internalType":"contract IERC4626"}],"outputs":[{"name":"rateProvider","type":"address","internalType":"contract IERC4626RateProvider"}],"stateMutability":"nonpayable"},{"type":"function","name":"diamondConfig","inputs":[],"outputs":[{"name":"config","type":"tuple","internalType":"struct IDiamondFactoryPackage.DiamondConfig","components":[{"name":"facetCuts","type":"tuple[]","internalType":"struct IDiamond.FacetCut[]","components":[{"name":"facetAddress","type":"address","internalType":"address"},{"name":"action","type":"uint8","internalType":"enum IDiamond.FacetCutAction"},{"name":"functionSelectors","type":"bytes4[]","internalType":"bytes4[]"}]},{"name":"interfaces","type":"bytes4[]","internalType":"bytes4[]"}]}],"stateMutability":"view"},{"type":"function","name":"facetAddresses","inputs":[],"outputs":[{"name":"facetAddresses_","type":"address[]","internalType":"address[]"}],"stateMutability":"view"},{"type":"function","name":"facetCuts","inputs":[],"outputs":[{"name":"facetCuts_","type":"tuple[]","internalType":"struct IDiamond.FacetCut[]","components":[{"name":"facetAddress","type":"address","internalType":"address"},{"name":"action","type":"uint8","internalType":"enum IDiamond.FacetCutAction"},{"name":"functionSelectors","type":"bytes4[]","internalType":"bytes4[]"}]}],"stateMutability":"view"},{"type":"function","name":"facetInterfaces","inputs":[],"outputs":[{"name":"interfaces","type":"bytes4[]","internalType":"bytes4[]"}],"stateMutability":"pure"},{"type":"function","name":"initAccount","inputs":[{"name":"initArgs","type":"bytes","internalType":"bytes"}],"outputs":[],"stateMutability":"nonpayable"},{"type":"function","name":"packageMetadata","inputs":[],"outputs":[{"name":"name_","type":"string","internalType":"string"},{"name":"interfaces","type":"bytes4[]","internalType":"bytes4[]"},{"name":"facets","type":"address[]","internalType":"address[]"}],"stateMutability":"view"},{"type":"function","name":"packageName","inputs":[],"outputs":[{"name":"name_","type":"string","internalType":"string"}],"stateMutability":"pure"},{"type":"function","name":"postDeploy","inputs":[{"name":"","type":"address","internalType":"address"}],"outputs":[{"name":"","type":"bool","internalType":"bool"}],"stateMutability":"pure"},{"type":"function","name":"processArgs","inputs":[{"name":"pkgArgs","type":"bytes","internalType":"bytes"}],"outputs":[{"name":"processedPkgArgs","type":"bytes","internalType":"bytes"}],"stateMutability":"pure"},{"type":"function","name":"updatePkg","inputs":[{"name":"expectedProxy","type":"address","internalType":"address"},{"name":"pkgArgs","type":"bytes","internalType":"bytes"}],"outputs":[{"name":"","type":"bool","internalType":"bool"}],"stateMutability":"nonpayable"},{"type":"error","name":"ArgumentMustNotBeZero","inputs":[{"name":"argument","type":"uint256","internalType":"uint256"}]}],"bytecode":{"object":"0x60a060405234801561000f575f5ffd5b50604051610e22380380610e2283398101604081905261002e91610074565b80516001600160a01b039081166080526020909101515f80546001600160a01b031916919092161790556100de565b6001600160a01b0381168114610071575f5ffd5b50565b5f6040828403128015610085575f5ffd5b50604080519081016001600160401b03811182821017156100b457634e487b7160e01b5f52604160045260245ffd5b60405282516100c28161005d565b815260208301516100d28161005d565b60208201529392505050565b608051610d1e6101045f395f81816102ae0152818161045801526104890152610d1e5ff3fe608060405234801561000f575f5ffd5b50600436106100ad575f3560e01c80632ea80826146100b157806352ef6b2c146100cf57806365d375b3146100e457806370068fcf146100f9578063870d48381461011d57806387c3adb314610132578063a4b3ad3514610150578063a908923514610165578063ab6046ed1461017a578063abc8b346146101a4578063d82be56e146101ac578063ec5d2951146101cd578063f45469e7146101e0575b5f5ffd5b6100b96101f7565b6040516100c69190610797565b60405180910390f35b6100d761028a565b6040516100c691906107e9565b6100ec610302565b6040516100c691906107fb565b61010d6101073660046108e4565b50600190565b60405190151581526020016100c6565b61013061012b3660046109ae565b61033d565b005b6101436101403660046109ae565b90565b6040516100c69190610a15565b6101586103fe565b6040516100c69190610a27565b61010d610173366004610ad2565b5f92915050565b5f5461018c906001600160a01b031681565b6040516001600160a01b0390911681526020016100c6565b61014361052c565b6101bf6101ba3660046109ae565b610563565b6040519081526020016100c6565b61018c6101db3660046108e4565b610573565b6101e8610611565b6040516100c693929190610b1e565b60408051600280825260608083018452926020830190803683370190505090506333cd77e760e11b815f8151811061023157610231610b60565b60200260200101906001600160e01b03191690816001600160e01b03191681525050635920b22560e01b8160018151811061026e5761026e610b60565b6001600160e01b03199092166020928302919091019091015290565b604080516001808252818301909252606091602080830190803683370190505090507f0000000000000000000000000000000000000000000000000000000000000000815f815181106102df576102df610b60565b60200260200101906001600160a01b031690816001600160a01b03168152505090565b604080518082019091526060808252602082015260405180604001604052806103296103fe565b81526020016103366101f7565b9052919050565b5f818060200190518101906103529190610b74565b80519091506001600160a01b031661038357604051638ea81a8560e01b81525f600482015260240160405180910390fd5b6103fa815f01516103f5835f01516001600160a01b03166338d52e0f6040518163ffffffff1660e01b8152600401602060405180830381865afa1580156103cc573d5f5f3e3d5ffd5b505050506040513d601f19601f820116820180604052508101906103f09190610bbf565b610639565b610707565b5050565b604080516001808252818301909252606091816020015b60408051606080820183525f8083526020830152918101919091528152602001906001900390816104155790505060408051606081019091526001600160a01b037f0000000000000000000000000000000000000000000000000000000000000000168152909150602081015f81526020017f00000000000000000000000000000000000000000000000000000000000000006001600160a01b031663574a4cff6040518163ffffffff1660e01b81526004015f60405180830381865afa1580156104e2573d5f5f3e3d5ffd5b505050506040513d5f823e601f3d908101601f191682016040526105099190810190610bda565b815250815f8151811061051e5761051e610b60565b602002602001018190525090565b60408051808201909152601d81527f455243343632365261746550726f766964657246616365744446506b67000000602082015290565b805160208201205f905b92915050565b5f805460408051602080820183526001600160a01b038681169283905283519182019290925292169163e97fac05913091016040516020818303038152906040526040518363ffffffff1660e01b81526004016105d1929190610c98565b6020604051808303815f875af11580156105ed573d5f5f3e3d5ffd5b505050506040513d601f19601f8201168201806040525081019061056d9190610bbf565b606080606061061e61052c565b92506106286101f7565b915061063261028a565b9050909192565b60408051600481526024810182526020810180516001600160e01b031663313ce56760e01b17905290515f91829182916001600160a01b0386169161067e9190610cbb565b5f60405180830381855afa9150503d805f81146106b6576040519150601f19603f3d011682016040523d82523d5f602084013e6106bb565b606091505b50915091508180156106cf57506020815110155b156106fd575f818060200190518101906106e99190610cd1565b905060ff81116106fb57949350505050565b505b5060129392505050565b6103fa7f3959254c71754c6f405f8f9fef44e92a8e8775db2b2d636677df51628392ff4a80546001600160a01b0385166001600160a81b031990911617600160a01b60ff851602179055565b5f8151808452602084019350602083015f5b8281101561078d5781516001600160e01b031916865260209586019590910190600101610765565b5093949350505050565b602081525f6107a96020830184610753565b9392505050565b5f8151808452602084019350602083015f5b8281101561078d5781516001600160a01b03168652602095860195909101906001016107c2565b602081525f6107a960208301846107b0565b602081525f6060820183516040602085015281815180845260808601915060808160051b87010193506020830192505f5b818110156108a557868503607f19018352835180516001600160a01b0316865260208101516003811061086d57634e487b7160e01b5f52602160045260245ffd5b80602088015250604081015190506060604087015261088f6060870182610753565b955050602093840193929092019160010161082c565b505050506020840151838203601f190160408501526108c48282610753565b95945050505050565b6001600160a01b03811681146108e1575f5ffd5b50565b5f602082840312156108f4575f5ffd5b81356107a9816108cd565b634e487b7160e01b5f52604160045260245ffd5b604051601f8201601f191681016001600160401b038111828210171561093b5761093b6108ff565b604052919050565b5f82601f830112610952575f5ffd5b81356001600160401b0381111561096b5761096b6108ff565b61097e601f8201601f1916602001610913565b818152846020838601011115610992575f5ffd5b816020850160208301375f918101602001919091529392505050565b5f602082840312156109be575f5ffd5b81356001600160401b038111156109d3575f5ffd5b6109df84828501610943565b949350505050565b5f81518084528060208401602086015e5f602082860101526020601f19601f83011685010191505092915050565b602081525f6107a960208301846109e7565b5f602082016020835280845180835260408501915060408160051b8601019250602086015f5b82811015610ac657868503603f19018452815180516001600160a01b03168652602081015160038110610a8e57634e487b7160e01b5f52602160045260245ffd5b806020880152506040810151905060606040870152610ab06060870182610753565b9550506020938401939190910190600101610a4d565b50929695505050505050565b5f5f60408385031215610ae3575f5ffd5b8235610aee816108cd565b915060208301356001600160401b03811115610b08575f5ffd5b610b1485828601610943565b9150509250929050565b606081525f610b3060608301866109e7565b8281036020840152610b428186610753565b90508281036040840152610b5681856107b0565b9695505050505050565b634e487b7160e01b5f52603260045260245ffd5b5f6020828403128015610b85575f5ffd5b50604051602081016001600160401b0381118282101715610ba857610ba86108ff565b6040528251610bb6816108cd565b81529392505050565b5f60208284031215610bcf575f5ffd5b81516107a9816108cd565b5f60208284031215610bea575f5ffd5b81516001600160401b03811115610bff575f5ffd5b8201601f81018413610c0f575f5ffd5b80516001600160401b03811115610c2857610c286108ff565b8060051b610c3860208201610913565b91825260208184018101929081019087841115610c53575f5ffd5b6020850194505b83851015610c8d57845192506001600160e01b031983168314610c7b575f5ffd5b82825260209485019490910190610c5a565b979650505050505050565b6001600160a01b03831681526040602082018190525f906109df908301846109e7565b5f82518060208501845e5f920191825250919050565b5f60208284031215610ce1575f5ffd5b505191905056fea2646970667358221220e58dfcf65fa5e5dcf70834d9a8bbba0742331b48e417275ecf50f2415b671ec064736f6c634300081e0033","linkReferences":{}},"methodIdentifiers":{"DIAMOND_PACKAGE_FACTORY()":"ab6046ed","calcSalt(bytes)":"d82be56e","deployRateProvider(address)":"ec5d2951","diamondConfig()":"65d375b3","facetAddresses()":"52ef6b2c","facetCuts()":"a4b3ad35","facetInterfaces()":"2ea80826","initAccount(bytes)":"870d4838","packageMetadata()":"f45469e7","packageName()":"abc8b346","postDeploy(address)":"70068fcf","processArgs(bytes)":"87c3adb3","updatePkg(address,bytes)":"a9089235"},"id":902}