{"abi":[{"type":"function","name":"createRewards","inputs":[{"name":"_forwarder","type":"address","internalType":"address"},{"name":"_rewards","type":"address[]","internalType":"address[]"}],"outputs":[{"name":"feesVotingReward","type":"address","internalType":"address"},{"name":"bribeVotingReward","type":"address","internalType":"address"}],"stateMutability":"nonpayable"}],"bytecode":{"object":"0x6080604052348015600e575f5ffd5b506133308061001c5f395ff3fe608060405234801561000f575f5ffd5b5060043610610029575f3560e01c80634c455a971461002d575b5f5ffd5b61004061003b366004610124565b610064565b604080516001600160a01b0393841681529290911660208301520160405180910390f35b5f5f833384604051610075906100db565b61008193929190610201565b604051809103905ff08015801561009a573d5f5f3e3d5ffd5b5091508333846040516100ac906100e8565b6100b893929190610201565b604051809103905ff0801580156100d1573d5f5f3e3d5ffd5b5090509250929050565b6118288061026b83390190565b61186880611a9383390190565b80356001600160a01b038116811461010b575f5ffd5b919050565b634e487b7160e01b5f52604160045260245ffd5b5f5f60408385031215610135575f5ffd5b61013e836100f5565b915060208301356001600160401b03811115610158575f5ffd5b8301601f81018513610168575f5ffd5b80356001600160401b0381111561018157610181610110565b604051600582901b90603f8201601f191681016001600160401b03811182821017156101af576101af610110565b6040529182526020818401810192908101888411156101cc575f5ffd5b6020850194505b838510156101f2576101e4856100f5565b8152602094850194016101d3565b50809450505050509250929050565b6001600160a01b038481168252831660208083019190915260606040830181905283519083018190525f918401906080840190835b8181101561025d5783516001600160a01b0316835260209384019390920191600101610236565b509097965050505050505056fe60e060405234801561000f575f5ffd5b5060405161182838038061182883398101604081905261002e916101ff565b6001600160a01b03808416608052821660a081905260408051630fc2838b60e11b81529051859285928592859285929091631f850716916004808201926020929091908290030181865afa158015610088573d5f5f3e3d5ffd5b505050506040513d601f19601f820116820180604052508101906100ac91906102ec565b6001600160a01b031660c052505080515f5b818110156101a3575f6001600160a01b03168382815181106100e2576100e261030c565b60200260200101516001600160a01b03161461019b57600160065f85848151811061010f5761010f61030c565b60200260200101516001600160a01b03166001600160a01b031681526020019081526020015f205f6101000a81548160ff02191690831515021790555060058382815181106101605761016061030c565b60209081029190910181015182546001810184555f938452919092200180546001600160a01b0319166001600160a01b039092169190911790555b6001016100be565b50505f80546001600160a01b0319166001600160a01b039390931692909217909155506103209350505050565b80516001600160a01b03811681146101e6575f5ffd5b919050565b634e487b7160e01b5f52604160045260245ffd5b5f5f5f60608486031215610211575f5ffd5b61021a846101d0565b9250610228602085016101d0565b60408501519092506001600160401b03811115610243575f5ffd5b8401601f81018613610253575f5ffd5b80516001600160401b0381111561026c5761026c6101eb565b604051600582901b90603f8201601f191681016001600160401b038111828210171561029a5761029a6101eb565b6040529182526020818401810192908101898411156102b7575f5ffd5b6020850194505b838510156102dd576102cf856101d0565b8152602094850194016102be565b50809450505050509250925092565b5f602082840312156102fc575f5ffd5b610305826101d0565b9392505050565b634e487b7160e01b5f52603260045260245ffd5b60805160a05160c0516114c26103665f395f818161015501528181610b9d0152610c7e01525f81816101ae015281816109540152610c1301525f6106d501526114c25ff3fe608060405234801561000f575f5ffd5b5060043610610126575f3560e01c806318160ddd1461012a5780631be05289146101465780631f850716146101505780633e491d4714610184578063456cb7c61461019757806346c96aac146101a957806349dcc204146101d05780634d5ce038146102165780635058979314610248578063572b6c051461026757806376f4be361461027a5780637da0a8771461028d57806392777b29146102955780639cc7f708146102bf5780639e2bf22c146102de578063a28d4c9c146102f3578063b66503cf14610306578063e688639614610319578063e8111a1214610321578063f25e55a51461032a578063f301af4214610354578063f320772314610367578063f5f8d3651461037a578063f7412baf1461038d575b5f5ffd5b61013360015481565b6040519081526020015b60405180910390f35b61013362093a8081565b6101777f000000000000000000000000000000000000000000000000000000000000000081565b60405161013d91906111ce565b610133610192366004611209565b6103b3565b5f54610177906001600160a01b031681565b6101777f000000000000000000000000000000000000000000000000000000000000000081565b6102016101de366004611233565b600760209081525f92835260408084209091529082529020805460019091015482565b6040805192835260208301919091520161013d565b610238610224366004611253565b60066020525f908152604090205460ff1681565b604051901515815260200161013d565b61013361025636600461126e565b60086020525f908152604090205481565b610238610275366004611253565b610585565b61013361028836600461126e565b6105a9565b6101776106d3565b6101336102a3366004611209565b600360209081525f928352604080842090915290825290205481565b6101336102cd36600461126e565b60026020525f908152604090205481565b6102f16102ec366004611233565b6106f7565b005b610133610301366004611233565b6107d2565b6102f1610314366004611209565b61090d565b600554610133565b610133600a5481565b610133610338366004611209565b600460209081525f928352604080842090915290825290205481565b61017761036236600461126e565b610a4b565b6102f1610375366004611233565b610a73565b6102f1610388366004611299565b610b41565b61020161039b36600461126e565b60096020525f90815260409020805460019091015482565b5f8181526008602052604081205481036103ce57505f61057f565b6001600160a01b0383165f90815260046020908152604080832085845290915281205460019062093a80810690038261040786836107d2565b5f8781526007602090815260408083208484528252808320815180830190925280548083526001909101549282019290925262093a80808306909203868118908710029095189492935061046085428381069003611383565b61046a9190611396565b90508015610576575f5b818110156105745761049989600161048f62093a80896113b5565b6103019190611383565b5f8a815260076020908152604080832084845282528083208151808301909252805482526001908101549282019290925292965091945061051191600991906104f3906104e962093a808b6113b5565b6102889190611383565b81526020019081526020015f20600101546001818118908210021890565b6001600160a01b038b165f90815260036020908152604080832089845282529091205490850151919750879161054791906113c8565b6105519190611396565b61055b90886113b5565b965061056a62093a80866113b5565b9450600101610474565b505b50939450505050505b92915050565b5f61058e6106d3565b6001600160a01b0316826001600160a01b0316149050919050565b600a545f908082036105bd57505f92915050565b8260095f6105cc600185611383565b81526020019081526020015f205f0154116105f3576105ec600182611383565b9392505050565b5f805260096020527fec8156718a8372b1db44bb411437d0870f3e3790d4a08526d024ce1b0b668f6b5483101561062c57505f92915050565b5f80610639600184611383565b90505b818111156106cb575f60026106518484611383565b61065b9190611396565b6106659083611383565b5f818152600960209081526040918290208251808401909352805480845260019091015491830191909152919250908790036106a5575095945050505050565b80518711156106b6578193506106c4565b6106c1600183611383565b92505b505061063c565b509392505050565b7f000000000000000000000000000000000000000000000000000000000000000090565b5f610700610d0e565b5f549091506001600160a01b038083169116146107305760405163ea8e4eb560e01b815260040160405180910390fd5b8260015f8282546107419190611383565b90915550505f8281526002602052604081208054859290610763908490611383565b90915550505f82815260026020526040902054610781908390610d54565b610789610e56565b81816001600160a01b03167ff279e6a1f5e320cca91135676d9cb6e44ca8a08c0b88342bcdb1144f6511b568856040516107c591815260200190565b60405180910390a3505050565b5f828152600860205260408120548082036107f0575f91505061057f565b5f848152600760205260408120849161080a600185611383565b81526020019081526020015f205f0154116108325761082a600182611383565b91505061057f565b5f84815260076020908152604080832083805290915290205483101561085b575f91505061057f565b5f80610868600184611383565b90505b81811115610904575f60026108808484611383565b61088a9190611396565b6108949083611383565b5f8881526007602090815260408083208484528252918290208251808401909352805480845260019091015491830191909152919250908790036108de5750935061057f92505050565b80518711156108ef578193506108fd565b6108fa600183611383565b92505b505061086b565b50949350505050565b3068929eee149b4bd21268540361092b5763ab143c065f526004601cfd5b3068929eee149b4bd21268555f610940610d0e565b60405163c4f0816560e01b815290915030907f00000000000000000000000000000000000000000000000000000000000000006001600160a01b03169063c4f08165906109919085906004016111ce565b602060405180830381865afa1580156109ac573d5f5f3e3d5ffd5b505050506040513d601f19601f820116820180604052508101906109d091906113df565b6001600160a01b0316146109f7576040516304639b6160e11b815260040160405180910390fd5b6001600160a01b0383165f9081526006602052604090205460ff16610a2f576040516314414f4160e11b815260040160405180910390fd5b610a3a818484610f0d565b503868929eee149b4bd21268555050565b60058181548110610a5a575f80fd5b5f918252602090912001546001600160a01b0316905081565b5f610a7c610d0e565b5f549091506001600160a01b03808316911614610aac5760405163ea8e4eb560e01b815260040160405180910390fd5b8260015f828254610abd91906113b5565b90915550505f8281526002602052604081208054859290610adf9084906113b5565b90915550505f82815260026020526040902054610afd908390610d54565b610b05610e56565b81816001600160a01b03167f90890809c654f11d6e72a28fa60149770a0d11ec6c92319d6ceb2bb0a4ea1a15856040516107c591815260200190565b3068929eee149b4bd212685403610b5f5763ab143c065f526004601cfd5b3068929eee149b4bd21268555f610b74610d0e565b60405163430c208160e01b81526001600160a01b038083166004830152602482018690529192507f00000000000000000000000000000000000000000000000000000000000000009091169063430c2081906044016020604051808303815f875af1158015610be5573d5f5f3e3d5ffd5b505050506040513d601f19601f82011682018060405250810190610c0991906113fa565b158015610c4857507f00000000000000000000000000000000000000000000000000000000000000006001600160a01b0316816001600160a01b031614155b15610c665760405163ea8e4eb560e01b815260040160405180910390fd5b6040516331a9108f60e11b8152600481018490525f907f00000000000000000000000000000000000000000000000000000000000000006001600160a01b031690636352211e90602401602060405180830381865afa158015610ccb573d5f5f3e3d5ffd5b505050506040513d601f19601f82011682018060405250810190610cef91906113df565b9050610cfc818585610fe4565b50503868929eee149b4bd21268555050565b5f366014808210801590610d265750610d2633610585565b15610d4c57610d3936828403815f611419565b610d4291611440565b60601c9250505090565b339250505090565b5f82815260086020526040902054428115801590610dae575062093a80810681035f858152600760205260408120610dac91610d91600187611383565b81526020019081526020015f205f015462093a808106900390565b145b15610e025760408051808201825282815260208082018690525f87815260079091529182209091610de0600186611383565b81526020808201929092526040015f2082518155910151600190910155610e50565b60408051808201825282815260208082018681525f88815260078352848120878252909252929020905181559051600191820155610e419083906113b5565b5f858152600860205260409020555b50505050565b600a54428115801590610e7f575062093a8081068103610e7d60095f610d91600187611383565b145b15610ecc57604051806040016040528082815260200160015481525060095f600185610eab9190611383565b81526020808201929092526040015f20825181559101516001909101555050565b6040805180820182528281526001805460208084019182525f87815260099091529390932091518255915190820155610f069083906113b5565b600a555050565b805f03610f2d57604051631f2a200560e01b815260040160405180910390fd5b610f426001600160a01b03831684308461110f565b5f610f524262093a808106900390565b6001600160a01b0384165f908152600360209081526040808320848452909152812080549293508492909190610f899084906113b5565b9250508190555080836001600160a01b0316856001600160a01b03167f52977ea98a2220a03ee9ba5cb003ada08d394ea10155483c95dc2dc77a7eb24b85604051610fd691815260200190565b60405180910390a450505050565b80515f5b81811015611108575f61101484838151811061100657611006611478565b6020026020010151866103b3565b90504260045f86858151811061102c5761102c611478565b6020908102919091018101516001600160a01b031682528181019290925260409081015f908120898252909252902055801561109957611099868286858151811061107957611079611478565b60200260200101516001600160a01b031661111b9092919063ffffffff16565b8382815181106110ab576110ab611478565b60200260200101516001600160a01b0316866001600160a01b03167f9aa05b3d70a9e3e2f004f039648839560576334fb45c81f91b6db03ad9e2efc9836040516110f791815260200190565b60405180910390a350600101610fe8565b5050505050565b610e508484848461112b565b611126838383611184565b505050565b60405181606052826040528360601b602c526323b872dd60601b600c5260205f6064601c5f895af18060015f51141661117657803d873b15171061117657637939f4245f526004601cfd5b505f60605260405250505050565b816014528060345263a9059cbb60601b5f5260205f604460105f875af18060015f5114166111c457803d853b1517106111c4576390b8ec185f526004601cfd5b505f603452505050565b6001600160a01b0391909116815260200190565b6001600160a01b03811681146111f6575f5ffd5b50565b8035611204816111e2565b919050565b5f5f6040838503121561121a575f5ffd5b8235611225816111e2565b946020939093013593505050565b5f5f60408385031215611244575f5ffd5b50508035926020909101359150565b5f60208284031215611263575f5ffd5b81356105ec816111e2565b5f6020828403121561127e575f5ffd5b5035919050565b634e487b7160e01b5f52604160045260245ffd5b5f5f604083850312156112aa575f5ffd5b8235915060208301356001600160401b038111156112c6575f5ffd5b8301601f810185136112d6575f5ffd5b80356001600160401b038111156112ef576112ef611285565b604051600582901b90603f8201601f191681016001600160401b038111828210171561131d5761131d611285565b60405291825260208184018101929081018884111561133a575f5ffd5b6020850194505b8385101561136057611352856111f9565b815260209485019401611341565b50809450505050509250929050565b634e487b7160e01b5f52601160045260245ffd5b8181038181111561057f5761057f61136f565b5f826113b057634e487b7160e01b5f52601260045260245ffd5b500490565b8082018082111561057f5761057f61136f565b808202811582820484141761057f5761057f61136f565b5f602082840312156113ef575f5ffd5b81516105ec816111e2565b5f6020828403121561140a575f5ffd5b815180151581146105ec575f5ffd5b5f5f85851115611427575f5ffd5b83861115611433575f5ffd5b5050820193919092039150565b80356001600160601b03198116906014841015611471576001600160601b0319601485900360031b81901b82161691505b5092915050565b634e487b7160e01b5f52603260045260245ffdfea2646970667358221220ef4a5b4eeb51ea45da5191f20baaae7b5efd9780ee462ccc987842f74163f8dd64736f6c634300081e003360e060405234801561000f575f5ffd5b5060405161186838038061186883398101604081905261002e916101ff565b6001600160a01b03808416608052821660a081905260408051630fc2838b60e11b81529051859285928592859285929091631f850716916004808201926020929091908290030181865afa158015610088573d5f5f3e3d5ffd5b505050506040513d601f19601f820116820180604052508101906100ac91906102ec565b6001600160a01b031660c052505080515f5b818110156101a3575f6001600160a01b03168382815181106100e2576100e261030c565b60200260200101516001600160a01b03161461019b57600160065f85848151811061010f5761010f61030c565b60200260200101516001600160a01b03166001600160a01b031681526020019081526020015f205f6101000a81548160ff02191690831515021790555060058382815181106101605761016061030c565b60209081029190910181015182546001810184555f938452919092200180546001600160a01b0319166001600160a01b039092169190911790555b6001016100be565b50505f80546001600160a01b0319166001600160a01b039390931692909217909155506103209350505050565b80516001600160a01b03811681146101e6575f5ffd5b919050565b634e487b7160e01b5f52604160045260245ffd5b5f5f5f60608486031215610211575f5ffd5b61021a846101d0565b9250610228602085016101d0565b60408501519092506001600160401b03811115610243575f5ffd5b8401601f81018613610253575f5ffd5b80516001600160401b0381111561026c5761026c6101eb565b604051600582901b90603f8201601f191681016001600160401b038111828210171561029a5761029a6101eb565b6040529182526020818401810192908101898411156102b7575f5ffd5b6020850194505b838510156102dd576102cf856101d0565b8152602094850194016102be565b50809450505050509250925092565b5f602082840312156102fc575f5ffd5b610305826101d0565b9392505050565b634e487b7160e01b5f52603260045260245ffd5b60805160a05160c0516115026103665f395f818161015501528181610bdd0152610cbe01525f81816101ae015281816109790152610c5301525f6106d501526115025ff3fe608060405234801561000f575f5ffd5b5060043610610126575f3560e01c806318160ddd1461012a5780631be05289146101465780631f850716146101505780633e491d4714610184578063456cb7c61461019757806346c96aac146101a957806349dcc204146101d05780634d5ce038146102165780635058979314610248578063572b6c051461026757806376f4be361461027a5780637da0a8771461028d57806392777b29146102955780639cc7f708146102bf5780639e2bf22c146102de578063a28d4c9c146102f3578063b66503cf14610306578063e688639614610319578063e8111a1214610321578063f25e55a51461032a578063f301af4214610354578063f320772314610367578063f5f8d3651461037a578063f7412baf1461038d575b5f5ffd5b61013360015481565b6040519081526020015b60405180910390f35b61013362093a8081565b6101777f000000000000000000000000000000000000000000000000000000000000000081565b60405161013d919061120e565b610133610192366004611249565b6103b3565b5f54610177906001600160a01b031681565b6101777f000000000000000000000000000000000000000000000000000000000000000081565b6102016101de366004611273565b600760209081525f92835260408084209091529082529020805460019091015482565b6040805192835260208301919091520161013d565b610238610224366004611293565b60066020525f908152604090205460ff1681565b604051901515815260200161013d565b6101336102563660046112ae565b60086020525f908152604090205481565b610238610275366004611293565b610585565b6101336102883660046112ae565b6105a9565b6101776106d3565b6101336102a3366004611249565b600360209081525f928352604080842090915290825290205481565b6101336102cd3660046112ae565b60026020525f908152604090205481565b6102f16102ec366004611273565b6106f7565b005b610133610301366004611273565b6107d2565b6102f1610314366004611249565b61090d565b600554610133565b610133600a5481565b610133610338366004611249565b600460209081525f928352604080842090915290825290205481565b6101776103623660046112ae565b610a8b565b6102f1610375366004611273565b610ab3565b6102f16103883660046112d9565b610b81565b61020161039b3660046112ae565b60096020525f90815260409020805460019091015482565b5f8181526008602052604081205481036103ce57505f61057f565b6001600160a01b0383165f90815260046020908152604080832085845290915281205460019062093a80810690038261040786836107d2565b5f8781526007602090815260408083208484528252808320815180830190925280548083526001909101549282019290925262093a808083069092038681189087100290951894929350610460854283810690036113c3565b61046a91906113d6565b90508015610576575f5b818110156105745761049989600161048f62093a80896113f5565b61030191906113c3565b5f8a815260076020908152604080832084845282528083208151808301909252805482526001908101549282019290925292965091945061051191600991906104f3906104e962093a808b6113f5565b61028891906113c3565b81526020019081526020015f20600101546001818118908210021890565b6001600160a01b038b165f9081526003602090815260408083208984528252909120549085015191975087916105479190611408565b61055191906113d6565b61055b90886113f5565b965061056a62093a80866113f5565b9450600101610474565b505b50939450505050505b92915050565b5f61058e6106d3565b6001600160a01b0316826001600160a01b0316149050919050565b600a545f908082036105bd57505f92915050565b8260095f6105cc6001856113c3565b81526020019081526020015f205f0154116105f3576105ec6001826113c3565b9392505050565b5f805260096020527fec8156718a8372b1db44bb411437d0870f3e3790d4a08526d024ce1b0b668f6b5483101561062c57505f92915050565b5f806106396001846113c3565b90505b818111156106cb575f600261065184846113c3565b61065b91906113d6565b61066590836113c3565b5f818152600960209081526040918290208251808401909352805480845260019091015491830191909152919250908790036106a5575095945050505050565b80518711156106b6578193506106c4565b6106c16001836113c3565b92505b505061063c565b509392505050565b7f000000000000000000000000000000000000000000000000000000000000000090565b5f610700610d4e565b5f549091506001600160a01b038083169116146107305760405163ea8e4eb560e01b815260040160405180910390fd5b8260015f82825461074191906113c3565b90915550505f82815260026020526040812080548592906107639084906113c3565b90915550505f82815260026020526040902054610781908390610d94565b610789610e96565b81816001600160a01b03167ff279e6a1f5e320cca91135676d9cb6e44ca8a08c0b88342bcdb1144f6511b568856040516107c591815260200190565b60405180910390a3505050565b5f828152600860205260408120548082036107f0575f91505061057f565b5f848152600760205260408120849161080a6001856113c3565b81526020019081526020015f205f0154116108325761082a6001826113c3565b91505061057f565b5f84815260076020908152604080832083805290915290205483101561085b575f91505061057f565b5f806108686001846113c3565b90505b81811115610904575f600261088084846113c3565b61088a91906113d6565b61089490836113c3565b5f8881526007602090815260408083208484528252918290208251808401909352805480845260019091015491830191909152919250908790036108de5750935061057f92505050565b80518711156108ef578193506108fd565b6108fa6001836113c3565b92505b505061086b565b50949350505050565b3068929eee149b4bd21268540361092b5763ab143c065f526004601cfd5b3068929eee149b4bd21268555f610940610d4e565b6001600160a01b0384165f9081526006602052604090205490915060ff16610a6f5760405163559bfa4360e11b81526001600160a01b037f0000000000000000000000000000000000000000000000000000000000000000169063ab37f486906109ae90869060040161120e565b602060405180830381865afa1580156109c9573d5f5f3e3d5ffd5b505050506040513d601f19601f820116820180604052508101906109ed919061141f565b610a0a57604051630b094f2760e31b815260040160405180910390fd5b6001600160a01b0383165f818152600660205260408120805460ff191660019081179091556005805491820181559091527f036b6384b5eca791c62761152d0c79bb0604c104a5fb6f4eb0703f3154bb3db00180546001600160a01b03191690911790555b610a7a818484610f4d565b503868929eee149b4bd21268555050565b60058181548110610a9a575f80fd5b5f918252602090912001546001600160a01b0316905081565b5f610abc610d4e565b5f549091506001600160a01b03808316911614610aec5760405163ea8e4eb560e01b815260040160405180910390fd5b8260015f828254610afd91906113f5565b90915550505f8281526002602052604081208054859290610b1f9084906113f5565b90915550505f82815260026020526040902054610b3d908390610d94565b610b45610e96565b81816001600160a01b03167f90890809c654f11d6e72a28fa60149770a0d11ec6c92319d6ceb2bb0a4ea1a15856040516107c591815260200190565b3068929eee149b4bd212685403610b9f5763ab143c065f526004601cfd5b3068929eee149b4bd21268555f610bb4610d4e565b60405163430c208160e01b81526001600160a01b038083166004830152602482018690529192507f00000000000000000000000000000000000000000000000000000000000000009091169063430c2081906044016020604051808303815f875af1158015610c25573d5f5f3e3d5ffd5b505050506040513d601f19601f82011682018060405250810190610c49919061141f565b158015610c8857507f00000000000000000000000000000000000000000000000000000000000000006001600160a01b0316816001600160a01b031614155b15610ca65760405163ea8e4eb560e01b815260040160405180910390fd5b6040516331a9108f60e11b8152600481018490525f907f00000000000000000000000000000000000000000000000000000000000000006001600160a01b031690636352211e90602401602060405180830381865afa158015610d0b573d5f5f3e3d5ffd5b505050506040513d601f19601f82011682018060405250810190610d2f919061143e565b9050610d3c818585611024565b50503868929eee149b4bd21268555050565b5f366014808210801590610d665750610d6633610585565b15610d8c57610d7936828403815f611459565b610d8291611480565b60601c9250505090565b339250505090565b5f82815260086020526040902054428115801590610dee575062093a80810681035f858152600760205260408120610dec91610dd16001876113c3565b81526020019081526020015f205f015462093a808106900390565b145b15610e425760408051808201825282815260208082018690525f87815260079091529182209091610e206001866113c3565b81526020808201929092526040015f2082518155910151600190910155610e90565b60408051808201825282815260208082018681525f88815260078352848120878252909252929020905181559051600191820155610e819083906113f5565b5f858152600860205260409020555b50505050565b600a54428115801590610ebf575062093a8081068103610ebd60095f610dd16001876113c3565b145b15610f0c57604051806040016040528082815260200160015481525060095f600185610eeb91906113c3565b81526020808201929092526040015f20825181559101516001909101555050565b6040805180820182528281526001805460208084019182525f87815260099091529390932091518255915190820155610f469083906113f5565b600a555050565b805f03610f6d57604051631f2a200560e01b815260040160405180910390fd5b610f826001600160a01b03831684308461114f565b5f610f924262093a808106900390565b6001600160a01b0384165f908152600360209081526040808320848452909152812080549293508492909190610fc99084906113f5565b9250508190555080836001600160a01b0316856001600160a01b03167f52977ea98a2220a03ee9ba5cb003ada08d394ea10155483c95dc2dc77a7eb24b8560405161101691815260200190565b60405180910390a450505050565b80515f5b81811015611148575f611054848381518110611046576110466114b8565b6020026020010151866103b3565b90504260045f86858151811061106c5761106c6114b8565b6020908102919091018101516001600160a01b031682528181019290925260409081015f90812089825290925290205580156110d9576110d986828685815181106110b9576110b96114b8565b60200260200101516001600160a01b031661115b9092919063ffffffff16565b8382815181106110eb576110eb6114b8565b60200260200101516001600160a01b0316866001600160a01b03167f9aa05b3d70a9e3e2f004f039648839560576334fb45c81f91b6db03ad9e2efc98360405161113791815260200190565b60405180910390a350600101611028565b5050505050565b610e908484848461116b565b6111668383836111c4565b505050565b60405181606052826040528360601b602c526323b872dd60601b600c5260205f6064601c5f895af18060015f5114166111b657803d873b1517106111b657637939f4245f526004601cfd5b505f60605260405250505050565b816014528060345263a9059cbb60601b5f5260205f604460105f875af18060015f51141661120457803d853b151710611204576390b8ec185f526004601cfd5b505f603452505050565b6001600160a01b0391909116815260200190565b6001600160a01b0381168114611236575f5ffd5b50565b803561124481611222565b919050565b5f5f6040838503121561125a575f5ffd5b823561126581611222565b946020939093013593505050565b5f5f60408385031215611284575f5ffd5b50508035926020909101359150565b5f602082840312156112a3575f5ffd5b81356105ec81611222565b5f602082840312156112be575f5ffd5b5035919050565b634e487b7160e01b5f52604160045260245ffd5b5f5f604083850312156112ea575f5ffd5b8235915060208301356001600160401b03811115611306575f5ffd5b8301601f81018513611316575f5ffd5b80356001600160401b0381111561132f5761132f6112c5565b604051600582901b90603f8201601f191681016001600160401b038111828210171561135d5761135d6112c5565b60405291825260208184018101929081018884111561137a575f5ffd5b6020850194505b838510156113a05761139285611239565b815260209485019401611381565b50809450505050509250929050565b634e487b7160e01b5f52601160045260245ffd5b8181038181111561057f5761057f6113af565b5f826113f057634e487b7160e01b5f52601260045260245ffd5b500490565b8082018082111561057f5761057f6113af565b808202811582820484141761057f5761057f6113af565b5f6020828403121561142f575f5ffd5b815180151581146105ec575f5ffd5b5f6020828403121561144e575f5ffd5b81516105ec81611222565b5f5f85851115611467575f5ffd5b83861115611473575f5ffd5b5050820193919092039150565b80356001600160601b031981169060148410156114b1576001600160601b0319601485900360031b81901b82161691505b5092915050565b634e487b7160e01b5f52603260045260245ffdfea2646970667358221220db2abf24d9c30bfa58821af917b868571dca6941709273a0cb0c0a01e57b48e264736f6c634300081e0033a2646970667358221220ef0a73fb4baef9ee277cfa8503fc6551a4e0b8fea85e32cbe237c8cae2ce8ebe64736f6c634300081e0033","linkReferences":{}},"methodIdentifiers":{"createRewards(address,address[])":"4c455a97"},"id":826}