{"abi":[{"type":"constructor","inputs":[{"name":"vault","type":"address","internalType":"contract IVault"}],"stateMutability":"nonpayable"},{"type":"function","name":"getActionId","inputs":[{"name":"selector","type":"bytes4","internalType":"bytes4"}],"outputs":[{"name":"","type":"bytes32","internalType":"bytes32"}],"stateMutability":"view"},{"type":"function","name":"getAuthorizer","inputs":[],"outputs":[{"name":"","type":"address","internalType":"contract IAuthorizer"}],"stateMutability":"view"},{"type":"function","name":"getVault","inputs":[],"outputs":[{"name":"","type":"address","internalType":"contract IVault"}],"stateMutability":"view"},{"type":"function","name":"protectedFunction","inputs":[{"name":"data","type":"bytes","internalType":"bytes"}],"outputs":[{"name":"","type":"bytes","internalType":"bytes"}],"stateMutability":"nonpayable"},{"type":"function","name":"secondProtectedFunction","inputs":[{"name":"data","type":"bytes","internalType":"bytes"}],"outputs":[{"name":"","type":"bytes","internalType":"bytes"}],"stateMutability":"nonpayable"},{"type":"event","name":"ProtectedFunctionCalled","inputs":[{"name":"data","type":"bytes","indexed":false,"internalType":"bytes"}],"anonymous":false},{"type":"event","name":"SecondProtectedFunctionCalled","inputs":[{"name":"data","type":"bytes","indexed":false,"internalType":"bytes"}],"anonymous":false},{"type":"error","name":"SenderNotAllowed","inputs":[]},{"type":"error","name":"VaultNotSet","inputs":[]}],"bytecode":{"object":"0x60c060405234801561000f575f5ffd5b5060405161060838038061060883398101604081905261002e91610074565b306080819052819081906001600160a01b03821661005f57604051630647140b60e51b815260040160405180910390fd5b506001600160a01b031660a052506100a19050565b5f60208284031215610084575f5ffd5b81516001600160a01b038116811461009a575f5ffd5b9392505050565b60805160a05161053f6100c95f395f81816101c401526102d201525f610161015261053f5ff3fe608060405234801561000f575f5ffd5b5060043610610055575f3560e01c806344ed868a14610059578063851c1bb3146100825780638d928af8146100a3578063aaabadc5146100c3578063eaf75da6146100cb575b5f5ffd5b61006c6100673660046103ce565b6100de565b604051610079919061043a565b60405180910390f35b61009561009036600461046f565b61015e565b604051908152602001610079565b6100ab6101c2565b6040516001600160a01b039091168152602001610079565b6100ab6101eb565b61006c6100d93660046103ce565b610253565b60606100e861028e565b7fad425ca9de76acbfdb3bfdcd021628ce76f73c606d8bfc841ef54022170227dd8383604051610119929190610496565b60405180910390a182828080601f0160208091040260200160405190810160405280939291908181526020018383808284375f92019190915250929695505050505050565b5f7f0000000000000000000000000000000000000000000000000000000000000000826040516020016101a59291909182526001600160e01b031916602082015260240190565b604051602081830303815290604052805190602001209050919050565b7f000000000000000000000000000000000000000000000000000000000000000090565b905090565b5f6101f46101c2565b6001600160a01b031663aaabadc56040518163ffffffff1660e01b8152600401602060405180830381865afa15801561022f573d5f5f3e3d5ffd5b505050506040513d601f19601f820116820180604052508101906101e691906104c4565b606061025d61028e565b7f556b9a54a0bd68ccf3b420f1d91ff66912c731027a84f36dd353c7d0cd557a878383604051610119929190610496565b5f6102a35f356001600160e01b03191661015e565b90506102af81336102cf565b6102cc576040516323dada5360e01b815260040160405180910390fd5b50565b5f7f00000000000000000000000000000000000000000000000000000000000000006001600160a01b031663aaabadc56040518163ffffffff1660e01b8152600401602060405180830381865afa15801561032c573d5f5f3e3d5ffd5b505050506040513d601f19601f8201168201806040525081019061035091906104c4565b6040516326f8aa2160e21b8152600481018590526001600160a01b0384811660248301523060448301529190911690639be2a88490606401602060405180830381865afa1580156103a3573d5f5f3e3d5ffd5b505050506040513d601f19601f820116820180604052508101906103c791906104ea565b9392505050565b5f5f602083850312156103df575f5ffd5b82356001600160401b038111156103f4575f5ffd5b8301601f81018513610404575f5ffd5b80356001600160401b03811115610419575f5ffd5b85602082840101111561042a575f5ffd5b6020919091019590945092505050565b602081525f82518060208401528060208501604085015e5f604082850101526040601f19601f83011684010191505092915050565b5f6020828403121561047f575f5ffd5b81356001600160e01b0319811681146103c7575f5ffd5b60208152816020820152818360408301375f818301604090810191909152601f909201601f19160101919050565b5f602082840312156104d4575f5ffd5b81516001600160a01b03811681146103c7575f5ffd5b5f602082840312156104fa575f5ffd5b815180151581146103c7575f5ffdfea2646970667358221220f6a7c087eb9b0b384da3dd59fe1961b7e169c2723e16ea3e5d792926c38a3c0264736f6c634300081e0033","linkReferences":{}},"methodIdentifiers":{"getActionId(bytes4)":"851c1bb3","getAuthorizer()":"aaabadc5","getVault()":"8d928af8","protectedFunction(bytes)":"44ed868a","secondProtectedFunction(bytes)":"eaf75da6"},"id":364}