{"abi":[{"type":"function","name":"parameters","inputs":[],"outputs":[{"name":"factory","type":"address","internalType":"address"},{"name":"token0","type":"address","internalType":"address"},{"name":"token1","type":"address","internalType":"address"},{"name":"fee","type":"uint24","internalType":"uint24"},{"name":"tickSpacing","type":"int24","internalType":"int24"}],"stateMutability":"view"}],"bytecode":{"object":"0x6080604052348015600e575f5ffd5b5060db80601a5f395ff3fe6080604052348015600e575f5ffd5b50600436106026575f3560e01c80638903573014602a575b5f5ffd5b5f54600154600280546063936001600160a01b03908116938116929082169162ffffff600160a01b82041691600160b81b909104900b85565b604080516001600160a01b0396871681529486166020860152929094168383015262ffffff16606083015260029290920b608082015290519081900360a00190f3fea2646970667358221220655c01d3df51f4bade8ef6fd4878082fddc272b4305d3fcbfed0b06b02a484f864736f6c634300081e0033","linkReferences":{}},"methodIdentifiers":{"parameters()":"89035730"},"id":1032}