{"abi":[{"type":"constructor","inputs":[{"name":"vault","type":"address","internalType":"contract IVault"},{"name":"protocolFeePercentage","type":"uint256","internalType":"uint256"},{"name":"feeSweeper","type":"address","internalType":"address"}],"stateMutability":"nonpayable"},{"type":"function","name":"donate","inputs":[{"name":"pool","type":"address","internalType":"address"},{"name":"donationAmounts","type":"uint256[]","internalType":"uint256[]"},{"name":"userData","type":"bytes","internalType":"bytes"}],"outputs":[],"stateMutability":"nonpayable"},{"type":"function","name":"donateHook","inputs":[{"name":"params","type":"tuple","internalType":"struct ICowRouter.DonateHookParams","components":[{"name":"pool","type":"address","internalType":"address"},{"name":"sender","type":"address","internalType":"address"},{"name":"donationAmounts","type":"uint256[]","internalType":"uint256[]"},{"name":"userData","type":"bytes","internalType":"bytes"}]}],"outputs":[],"stateMutability":"nonpayable"},{"type":"function","name":"getActionId","inputs":[{"name":"selector","type":"bytes4","internalType":"bytes4"}],"outputs":[{"name":"","type":"bytes32","internalType":"bytes32"}],"stateMutability":"view"},{"type":"function","name":"getAuthorizer","inputs":[],"outputs":[{"name":"","type":"address","internalType":"contract IAuthorizer"}],"stateMutability":"view"},{"type":"function","name":"getCollectedProtocolFees","inputs":[{"name":"token","type":"address","internalType":"contract IERC20"}],"outputs":[{"name":"fees","type":"uint256","internalType":"uint256"}],"stateMutability":"view"},{"type":"function","name":"getFeeSweeper","inputs":[],"outputs":[{"name":"feeSweeper","type":"address","internalType":"address"}],"stateMutability":"view"},{"type":"function","name":"getMaxProtocolFeePercentage","inputs":[],"outputs":[{"name":"","type":"uint256","internalType":"uint256"}],"stateMutability":"pure"},{"type":"function","name":"getProtocolFeePercentage","inputs":[],"outputs":[{"name":"protocolFeePercentage","type":"uint256","internalType":"uint256"}],"stateMutability":"view"},{"type":"function","name":"getVault","inputs":[],"outputs":[{"name":"","type":"address","internalType":"contract IVault"}],"stateMutability":"view"},{"type":"function","name":"setFeeSweeper","inputs":[{"name":"newFeeSweeper","type":"address","internalType":"address"}],"outputs":[],"stateMutability":"nonpayable"},{"type":"function","name":"setProtocolFeePercentage","inputs":[{"name":"newProtocolFeePercentage","type":"uint256","internalType":"uint256"}],"outputs":[],"stateMutability":"nonpayable"},{"type":"function","name":"swapAndDonateSurplusHook","inputs":[{"name":"swapAndDonateParams","type":"tuple","internalType":"struct ICowRouter.SwapAndDonateHookParams","components":[{"name":"pool","type":"address","internalType":"address"},{"name":"sender","type":"address","internalType":"address"},{"name":"swapKind","type":"uint8","internalType":"enum SwapKind"},{"name":"swapTokenIn","type":"address","internalType":"contract IERC20"},{"name":"swapTokenOut","type":"address","internalType":"contract IERC20"},{"name":"swapAmountGiven","type":"uint256","internalType":"uint256"},{"name":"swapLimit","type":"uint256","internalType":"uint256"},{"name":"swapDeadline","type":"uint256","internalType":"uint256"},{"name":"donationAmounts","type":"uint256[]","internalType":"uint256[]"},{"name":"transferAmountHints","type":"uint256[]","internalType":"uint256[]"},{"name":"userData","type":"bytes","internalType":"bytes"}]}],"outputs":[{"name":"swapAmountIn","type":"uint256","internalType":"uint256"},{"name":"swapAmountOut","type":"uint256","internalType":"uint256"}],"stateMutability":"nonpayable"},{"type":"function","name":"swapExactInAndDonateSurplus","inputs":[{"name":"pool","type":"address","internalType":"address"},{"name":"swapTokenIn","type":"address","internalType":"contract IERC20"},{"name":"swapTokenOut","type":"address","internalType":"contract IERC20"},{"name":"swapExactAmountIn","type":"uint256","internalType":"uint256"},{"name":"swapMinAmountOut","type":"uint256","internalType":"uint256"},{"name":"swapDeadline","type":"uint256","internalType":"uint256"},{"name":"donationAmounts","type":"uint256[]","internalType":"uint256[]"},{"name":"transferAmountHints","type":"uint256[]","internalType":"uint256[]"},{"name":"userData","type":"bytes","internalType":"bytes"}],"outputs":[{"name":"exactAmountOut","type":"uint256","internalType":"uint256"}],"stateMutability":"nonpayable"},{"type":"function","name":"swapExactOutAndDonateSurplus","inputs":[{"name":"pool","type":"address","internalType":"address"},{"name":"swapTokenIn","type":"address","internalType":"contract IERC20"},{"name":"swapTokenOut","type":"address","internalType":"contract IERC20"},{"name":"swapMaxAmountIn","type":"uint256","internalType":"uint256"},{"name":"swapExactAmountOut","type":"uint256","internalType":"uint256"},{"name":"swapDeadline","type":"uint256","internalType":"uint256"},{"name":"donationAmounts","type":"uint256[]","internalType":"uint256[]"},{"name":"transferAmountHints","type":"uint256[]","internalType":"uint256[]"},{"name":"userData","type":"bytes","internalType":"bytes"}],"outputs":[{"name":"exactAmountIn","type":"uint256","internalType":"uint256"}],"stateMutability":"nonpayable"},{"type":"function","name":"withdrawCollectedProtocolFees","inputs":[{"name":"token","type":"address","internalType":"contract IERC20"}],"outputs":[],"stateMutability":"nonpayable"},{"type":"event","name":"CoWDonation","inputs":[{"name":"pool","type":"address","indexed":false,"internalType":"address"},{"name":"donationAfterFees","type":"uint256[]","indexed":false,"internalType":"uint256[]"},{"name":"protocolFeeAmounts","type":"uint256[]","indexed":false,"internalType":"uint256[]"},{"name":"userData","type":"bytes","indexed":false,"internalType":"bytes"}],"anonymous":false},{"type":"event","name":"CoWSwapAndDonation","inputs":[{"name":"pool","type":"address","indexed":false,"internalType":"address"},{"name":"swapTokenIn","type":"address","indexed":false,"internalType":"contract IERC20"},{"name":"swapTokenOut","type":"address","indexed":false,"internalType":"contract IERC20"},{"name":"swapAmountIn","type":"uint256","indexed":false,"internalType":"uint256"},{"name":"swapAmountOut","type":"uint256","indexed":false,"internalType":"uint256"},{"name":"donationAfterFees","type":"uint256[]","indexed":false,"internalType":"uint256[]"},{"name":"protocolFeeAmounts","type":"uint256[]","indexed":false,"internalType":"uint256[]"},{"name":"userData","type":"bytes","indexed":false,"internalType":"bytes"}],"anonymous":false},{"type":"event","name":"FeeSweeperChanged","inputs":[{"name":"newFeeSweeper","type":"address","indexed":false,"internalType":"address"}],"anonymous":false},{"type":"event","name":"ProtocolFeePercentageChanged","inputs":[{"name":"newProtocolFeePercentage","type":"uint256","indexed":false,"internalType":"uint256"}],"anonymous":false},{"type":"event","name":"ProtocolFeesWithdrawn","inputs":[{"name":"token","type":"address","indexed":false,"internalType":"contract IERC20"},{"name":"feeSweeper","type":"address","indexed":false,"internalType":"address"},{"name":"amountWithdrawn","type":"uint256","indexed":false,"internalType":"uint256"}],"anonymous":false},{"type":"error","name":"InsufficientFunds","inputs":[{"name":"token","type":"address","internalType":"contract IERC20"},{"name":"senderCredits","type":"uint256","internalType":"uint256"},{"name":"senderDebits","type":"uint256","internalType":"uint256"}]},{"type":"error","name":"InvalidFeeSweeper","inputs":[]},{"type":"error","name":"ProtocolFeePercentageAboveLimit","inputs":[{"name":"newProtocolFeePercentage","type":"uint256","internalType":"uint256"},{"name":"maxProtocolFeePercentage","type":"uint256","internalType":"uint256"}]},{"type":"error","name":"SenderIsNotVault","inputs":[{"name":"sender","type":"address","internalType":"address"}]},{"type":"error","name":"SenderNotAllowed","inputs":[]},{"type":"error","name":"SwapDeadline","inputs":[]},{"type":"error","name":"VaultNotSet","inputs":[]}],"bytecode":{"object":"0x60e060405234801561000f575f5ffd5b506040516125f83803806125f883398101604081905261002e91610196565b3060808190528390819081906001600160a01b03821661006157604051630647140b60e51b815260040160405180910390fd5b506001600160a01b0390811660a0529190911660c0525061008182610092565b61008a8161010c565b5050506101d6565b6706f05b59d3b200008111156100d05760405163e76c2b2360e01b8152600481018290526706f05b59d3b20000602482015260440160405180910390fd5b60018190556040518181527ff7887aa0e0216e820fdbb5a4442586a79fefd45648f0adc2bc91dcf6ed717244906020015b60405180910390a150565b6001600160a01b038116610133576040516302d1ccf160e11b815260040160405180910390fd5b5f80546001600160a01b0319166001600160a01b0383169081179091556040519081527e8c8c9cbd834aa4bc9856555e4a6af6df7553b18a704a068adb69ea00a81d4d90602001610101565b6001600160a01b0381168114610193575f5ffd5b50565b5f5f5f606084860312156101a8575f5ffd5b83516101b38161017f565b6020850151604086015191945092506101cb8161017f565b809150509250925092565b60805160a05160c0516123a46102545f395f818161024001528181610396015281816104ce015281816105f2015281816107e1015281816108a4015281816109b701528181610d2401528181610f100152818161106d0152818161111501526111b801525f8181610bc0015261148d01525f610b5d01526123a45ff3fe608060405234801561000f575f5ffd5b50600436106100c3575f3560e01c8063393cda9e146100c75780633c902945146100dc5780634c65a5b314610102578063591b76551461012a5780635a28ac201461013d5780635c6e74c71461015057806369f10de4146101695780636abe431a1461017c578063706d9f781461018f5780637aaa14aa146101975780637c255999146101a5578063851c1bb3146101cd5780638d928af8146101e0578063aaabadc5146101e8578063d8a5e936146101f0575b5f5ffd5b6100da6100d5366004611625565b610203565b005b6100ef6100ea3660046117f7565b610217565b6040519081526020015b60405180910390f35b6100ef610110366004611625565b6001600160a01b03165f9081526002602052604090205490565b6100ef6101383660046117f7565b61036d565b6100da61014b3660046118cf565b6104c4565b5f546001600160a01b03165b6040516100f99190611950565b6100da610177366004611964565b6105cf565b6100da61018a366004611625565b61072c565b6001546100ef565b6706f05b59d3b200006100ef565b6101b86101b3366004611a35565b6107bc565b604080519283526020830191909152016100f9565b6100ef6101db366004611b6d565b610b5a565b61015c610bbe565b61015c610be7565b6100da6101fe366004611b94565b610c4f565b61020b610c60565b61021481610c9e565b50565b5f610220610c60565b60408051610160810182526001600160a01b038c811682523360208301527f000000000000000000000000000000000000000000000000000000000000000016916348c89491919081015f81526020018c6001600160a01b031681526020018b6001600160a01b031681526020018a8152602001898152602001888152602001878152602001868152602001858152506040516024016102c09190611c3b565b60408051601f198184030181529181526020820180516001600160e01b0316637c25599960e01b179052516001600160e01b031960e084901b1681526103099190600401611d1e565b5f604051808303815f875af1158015610324573d5f5f3e3d5ffd5b505050506040513d5f823e601f3d908101601f1916820160405261034b9190810190611d7d565b80602001905181019061035e9190611db6565b9b9a5050505050505050505050565b5f610376610c60565b60408051610160810182526001600160a01b038c811682523360208301527f000000000000000000000000000000000000000000000000000000000000000016916348c8949191908101600181526020018c6001600160a01b031681526020018b6001600160a01b031681526020018981526020018a8152602001888152602001878152602001868152602001858152506040516024016104179190611c3b565b60408051601f198184030181529181526020820180516001600160e01b0316637c25599960e01b179052516001600160e01b031960e084901b1681526104609190600401611d1e565b5f604051808303815f875af115801561047b573d5f5f3e3d5ffd5b505050506040513d5f823e601f3d908101601f191682016040526104a29190810190611d7d565b8060200190518101906104b59190611db6565b509a9950505050505050505050565b6104cc610c60565b7f00000000000000000000000000000000000000000000000000000000000000006001600160a01b03166348c894916040518060800160405280866001600160a01b03168152602001336001600160a01b031681526020018581526020018481525060405160240161053e9190611dd8565b60408051601f198184030181529181526020820180516001600160e01b0316631a7c437960e21b179052516001600160e01b031960e084901b1681526105879190600401611d1e565b5f604051808303815f875af11580156105a2573d5f5f3e3d5ffd5b505050506040513d5f823e601f3d908101601f191682016040526105c99190810190611d7d565b50505050565b6105d7610d19565b80516040516333f0703b60e11b81525f916001600160a01b037f000000000000000000000000000000000000000000000000000000000000000016916367e0e0769161062591600401611950565b5f60405180830381865afa15801561063f573d5f5f3e3d5ffd5b505050506040513d5f823e601f3d908101601f191682016040526106669190810190611f3f565b50505090505f5f610684845f01518486604001518760600151610d6f565b915091506106e38460200151848660400151848860400151516001600160401b038111156106b4576106b4611647565b6040519080825280602002602001820160405280156106dd578160200160208202803683370190505b50610ffa565b835160608501516040517fc56206447dc4bc6b8f64bed42b94c55ae291564fe0ed7676f387f8c23887aa329261071e9290918691869161205a565b60405180910390a150505050565b6001600160a01b0381165f9081526002602052604090205480156107b8576001600160a01b038083165f81815260026020526040812081905554610771921683611237565b5f546040517f8fc241308ffc17817e6a8c6a52a8f7cd4931dfca0c539fd35a630311c7e4c57b916107af9185916001600160a01b03169085906120ae565b60405180910390a15b5050565b5f5f6107c6610d19565b82516040516333f0703b60e11b81525f916001600160a01b037f000000000000000000000000000000000000000000000000000000000000000016916367e0e0769161081491600401611950565b5f60405180830381865afa15801561082e573d5f5f3e3d5ffd5b505050506040513d5f823e601f3d908101601f191682016040526108559190810190611f3f565b50505090508360e0015142111561087f57604051630e08b8af60e41b815260040160405180910390fd5b5f8460400151600181111561089657610896611bab565b036109ae578360a0015192507f00000000000000000000000000000000000000000000000000000000000000006001600160a01b0316632bfb780c6040518060e001604052805f60018111156108ee576108ee611bab565b8152602001875f01516001600160a01b0316815260200187606001516001600160a01b0316815260200187608001516001600160a01b031681526020018760a0015181526020018760c0015181526020018761014001518152506040518263ffffffff1660e01b815260040161096491906120d2565b6060604051808303815f875af1158015610980573d5f5f3e3d5ffd5b505050506040513d601f19601f820116820180604052508101906109a49190612148565b9350610abc915050565b8360a0015191507f00000000000000000000000000000000000000000000000000000000000000006001600160a01b0316632bfb780c6040518060e00160405280600180811115610a0157610a01611bab565b8152602001875f01516001600160a01b0316815260200187606001516001600160a01b0316815260200187608001516001600160a01b031681526020018760a0015181526020018760c0015181526020018761014001518152506040518263ffffffff1660e01b8152600401610a7791906120d2565b6060604051808303815f875af1158015610a93573d5f5f3e3d5ffd5b505050506040513d601f19601f82011682018060405250810190610ab79190612148565b509350505b5f5f610ad7865f015184886101000151896101400151610d6f565b91509150610afd8660200151848860600151896080015189898c61012001518989611247565b7fff733223050308d0c920d58ee93cc7f1e4adab80ffcd6c88a28c7bfa7769dbe3865f015187606001518860800151888887878d6101400151604051610b4a989796959493929190612173565b60405180910390a1505050915091565b5f7f000000000000000000000000000000000000000000000000000000000000000082604051602001610ba19291909182526001600160e01b031916602082015260240190565b604051602081830303815290604052805190602001209050919050565b7f000000000000000000000000000000000000000000000000000000000000000090565b905090565b5f610bf0610bbe565b6001600160a01b031663aaabadc56040518163ffffffff1660e01b8152600401602060405180830381865afa158015610c2b573d5f5f3e3d5ffd5b505050506040513d601f19601f82011682018060405250810190610be291906121db565b610c57610c60565b6102148161141b565b5f610c755f356001600160e01b031916610b5a565b9050610c81813361148a565b610214576040516323dada5360e01b815260040160405180910390fd5b6001600160a01b038116610cc5576040516302d1ccf160e11b815260040160405180910390fd5b5f80546001600160a01b0319166001600160a01b0383161790556040517e8c8c9cbd834aa4bc9856555e4a6af6df7553b18a704a068adb69ea00a81d4d90610d0e908390611950565b60405180910390a150565b336001600160a01b037f00000000000000000000000000000000000000000000000000000000000000001614610d6d573360405163089676d560e01b8152600401610d649190611950565b60405180910390fd5b565b60608083516001600160401b03811115610d8b57610d8b611647565b604051908082528060200260200182016040528015610db4578160200160208202803683370190505b50915083516001600160401b03811115610dd057610dd0611647565b604051908082528060200260200182016040528015610df9578160200160208202803683370190505b5090505f805b8551811015610f07575f878281518110610e1b57610e1b6121f6565b602002602001015190505f878381518110610e3857610e386121f6565b602002602001015190505f610e586001548361158b90919063ffffffff16565b6001600160a01b0384165f90815260026020526040812080549293508392909190610e8490849061221e565b9250508190555080868581518110610e9e57610e9e6121f6565b6020908102919091010152610eb38183612231565b878581518110610ec557610ec56121f6565b602002602001018181525050868481518110610ee357610ee36121f6565b602002602001015185610ef6919061221e565b94505060019092019150610dff9050565b508015610ff0577f00000000000000000000000000000000000000000000000000000000000000006001600160a01b0316634af29ec46040518060c001604052808a6001600160a01b03168152602001306001600160a01b031681526020018681526020015f815260200160036004811115610f8557610f85611bab565b8152602001878152506040518263ffffffff1660e01b8152600401610faa9190612244565b5f604051808303815f875af1158015610fc5573d5f5f3e3d5ffd5b505050506040513d5f823e601f3d908101601f19168201604052610fec91908101906122c4565b5050505b5094509492505050565b5f5b845181101561122f575f858281518110611018576110186121f6565b602002602001015190505f858381518110611035576110356121f6565b602002602001015190505f8111156110d9576040516315afd40960e01b81526001600160a01b038381166004830152602482018390527f000000000000000000000000000000000000000000000000000000000000000016906315afd409906044016020604051808303815f875af11580156110b3573d5f5f3e3d5ffd5b505050506040513d601f19601f820116820180604052508101906110d79190612327565b505b5f8584815181106110ec576110ec6121f6565b602002602001015190505f81111561117c5760405163ae63932960e01b81526001600160a01b037f0000000000000000000000000000000000000000000000000000000000000000169063ae6393299061114e908690309086906004016120ae565b5f604051808303815f87803b158015611165575f5ffd5b505af1158015611177573d5f5f3e3d5ffd5b505050505b5f85858151811061118f5761118f6121f6565b602002602001015190505f81111561121f5760405163ae63932960e01b81526001600160a01b037f0000000000000000000000000000000000000000000000000000000000000000169063ae639329906111f19087908e9086906004016120ae565b5f604051808303815f87803b158015611208575f5ffd5b505af115801561121a573d5f5f3e3d5ffd5b505050505b505060019092019150610ffc9050565b505050505050565b6112428383836115b7565b505050565b5f88516001600160401b0381111561126157611261611647565b60405190808252806020026020018201604052801561128a578160200160208202803683370190505b5090505f5b8951811015611401575f8582815181106112ab576112ab6121f6565b602002602001015190505f8483815181106112c8576112c86121f6565b60200260200101518684815181106112e2576112e26121f6565b60200260200101516112f4919061221e565b90508a6001600160a01b03168c8481518110611312576113126121f6565b60200260200101516001600160a01b03160361133957611332898261221e565b9050611378565b896001600160a01b03168c8481518110611355576113556121f6565b60200260200101516001600160a01b03160361137857611375888361221e565b91505b808210156113d0578b8381518110611392576113926121f6565b6020908102919091010151604051632e2a182f60e11b81526001600160a01b0390911660048201526024810183905260448101829052606401610d64565b6113da8183612231565b8484815181106113ec576113ec6121f6565b6020908102919091010152505060010161128f565b5061140f8a8a868585610ffa565b50505050505050505050565b6706f05b59d3b200008111156114555760405163e76c2b2360e01b8152600481018290526706f05b59d3b200006024820152604401610d64565b60018190556040518181527ff7887aa0e0216e820fdbb5a4442586a79fefd45648f0adc2bc91dcf6ed71724490602001610d0e565b5f7f00000000000000000000000000000000000000000000000000000000000000006001600160a01b031663aaabadc56040518163ffffffff1660e01b8152600401602060405180830381865afa1580156114e7573d5f5f3e3d5ffd5b505050506040513d601f19601f8201168201806040525081019061150b91906121db565b6040516326f8aa2160e21b8152600481018590526001600160a01b0384811660248301523060448301529190911690639be2a88490606401602060405180830381865afa15801561155e573d5f5f3e3d5ffd5b505050506040513d601f19601f82011682018060405250810190611582919061233e565b90505b92915050565b5f806115978385612357565b90506001670de0b6b3a76400006001830304018115150291505092915050565b816014528060345263a9059cbb60601b5f5260205f604460105f875af18060015f5114166115f757803d853b1517106115f7576390b8ec185f526004601cfd5b505f603452505050565b6001600160a01b0381168114610214575f5ffd5b803561162081611601565b919050565b5f60208284031215611635575f5ffd5b813561164081611601565b9392505050565b634e487b7160e01b5f52604160045260245ffd5b604051608081016001600160401b038111828210171561167d5761167d611647565b60405290565b60405161016081016001600160401b038111828210171561167d5761167d611647565b604051606081016001600160401b038111828210171561167d5761167d611647565b604051601f8201601f191681016001600160401b03811182821017156116f0576116f0611647565b604052919050565b5f6001600160401b0382111561171057611710611647565b5060051b60200190565b5f82601f830112611729575f5ffd5b813561173c611737826116f8565b6116c8565b8082825260208201915060208360051b86010192508583111561175d575f5ffd5b602085015b8381101561177a578035835260209283019201611762565b5095945050505050565b5f6001600160401b0382111561179c5761179c611647565b50601f01601f191660200190565b5f82601f8301126117b9575f5ffd5b81356117c761173782611784565b8181528460208386010111156117db575f5ffd5b816020850160208301375f918101602001919091529392505050565b5f5f5f5f5f5f5f5f5f6101208a8c031215611810575f5ffd5b6118198a611615565b985061182760208b01611615565b975061183560408b01611615565b965060608a0135955060808a0135945060a08a0135935060c08a01356001600160401b03811115611864575f5ffd5b6118708c828d0161171a565b93505060e08a01356001600160401b0381111561188b575f5ffd5b6118978c828d0161171a565b9250506101008a01356001600160401b038111156118b3575f5ffd5b6118bf8c828d016117aa565b9150509295985092959850929598565b5f5f5f606084860312156118e1575f5ffd5b83356118ec81611601565b925060208401356001600160401b03811115611906575f5ffd5b6119128682870161171a565b92505060408401356001600160401b0381111561192d575f5ffd5b611939868287016117aa565b9150509250925092565b6001600160a01b03169052565b6001600160a01b0391909116815260200190565b5f60208284031215611974575f5ffd5b81356001600160401b03811115611989575f5ffd5b82016080818503121561199a575f5ffd5b6119a261165b565b81356119ad81611601565b815260208201356119bd81611601565b602082015260408201356001600160401b038111156119da575f5ffd5b6119e68682850161171a565b60408301525060608201356001600160401b03811115611a04575f5ffd5b611a10868285016117aa565b606083015250949350505050565b60028110610214575f5ffd5b803561162081611a1e565b5f60208284031215611a45575f5ffd5b81356001600160401b03811115611a5a575f5ffd5b82016101608185031215611a6c575f5ffd5b611a74611683565b611a7d82611615565b8152611a8b60208301611615565b6020820152611a9c60408301611a2a565b6040820152611aad60608301611615565b6060820152611abe60808301611615565b608082015260a0828101359082015260c0808301359082015260e080830135908201526101008201356001600160401b03811115611afa575f5ffd5b611b068682850161171a565b610100830152506101208201356001600160401b03811115611b26575f5ffd5b611b328682850161171a565b610120830152506101408201356001600160401b03811115611b52575f5ffd5b611b5e868285016117aa565b61014083015250949350505050565b5f60208284031215611b7d575f5ffd5b81356001600160e01b031981168114611640575f5ffd5b5f60208284031215611ba4575f5ffd5b5035919050565b634e487b7160e01b5f52602160045260245ffd5b60028110611bcf57611bcf611bab565b9052565b5f8151808452602084019350602083015f5b82811015611c03578151865260209586019590910190600101611be5565b5093949350505050565b5f81518084528060208401602086015e5f602082860101526020601f19601f83011685010191505092915050565b60208152611c4d602082018351611943565b5f6020830151611c606040840182611943565b506040830151611c736060840182611bbf565b506060830151611c866080840182611943565b506080830151611c9960a0840182611943565b5060a083015160c083015260c083015160e083015260e0830151610100830152610100830151610160610120840152611cd6610180840182611bd3565b9050610120840151601f1984830301610140850152611cf58282611bd3565b915050610140840151601f1984830301610160850152611d158282611c0d565b95945050505050565b602081525f6115826020830184611c0d565b5f82601f830112611d3f575f5ffd5b8151611d4d61173782611784565b818152846020838601011115611d61575f5ffd5b8160208501602083015e5f918101602001919091529392505050565b5f60208284031215611d8d575f5ffd5b81516001600160401b03811115611da2575f5ffd5b611dae84828501611d30565b949350505050565b5f5f60408385031215611dc7575f5ffd5b505080516020909101519092909150565b602080825282516001600160a01b03908116838301529083015116604080830191909152820151608060608301525f90611e1560a0840182611bd3565b90506060840151601f19848303016080850152611d158282611c0d565b80518015158114611620575f5ffd5b5f82601f830112611e50575f5ffd5b8151611e5e611737826116f8565b80828252602082019150602060608402860101925085831115611e7f575f5ffd5b602085015b8381101561177a5760608188031215611e9b575f5ffd5b611ea36116a6565b8151611eae81611a1e565b81526020820151611ebe81611601565b6020820152611ecf60408301611e32565b60408201528352602090920191606001611e84565b5f82601f830112611ef3575f5ffd5b8151611f01611737826116f8565b8082825260208201915060208360051b860101925085831115611f22575f5ffd5b602085015b8381101561177a578051835260209283019201611f27565b5f5f5f5f60808587031215611f52575f5ffd5b84516001600160401b03811115611f67575f5ffd5b8501601f81018713611f77575f5ffd5b8051611f85611737826116f8565b8082825260208201915060208360051b850101925089831115611fa6575f5ffd5b6020840193505b82841015611fd1578351611fc081611601565b825260209384019390910190611fad565b6020890151909750925050506001600160401b03811115611ff0575f5ffd5b611ffc87828801611e41565b604087015190945090506001600160401b03811115612019575f5ffd5b61202587828801611ee4565b606087015190935090506001600160401b03811115612042575f5ffd5b61204e87828801611ee4565b91505092959194509250565b6001600160a01b03851681526080602082018190525f9061207d90830186611bd3565b828103604084015261208f8186611bd3565b905082810360608401526120a38185611c0d565b979650505050505050565b6001600160a01b039384168152919092166020820152604081019190915260600190565b602081526120e4602082018351611bbf565b60018060a01b03602083015116604082015260018060a01b03604083015116606082015260018060a01b036060830151166080820152608082015160a082015260a082015160c08201525f60c083015160e080840152611dae610100840182611c0d565b5f5f5f6060848603121561215a575f5ffd5b5050815160208301516040909301519094929350919050565b6001600160a01b038981168252888116602083015287166040820152606081018690526080810185905261010060a082018190525f906121b590830186611bd3565b82810360c08401526121c78186611bd3565b905082810360e084015261035e8185611c0d565b5f602082840312156121eb575f5ffd5b815161164081611601565b634e487b7160e01b5f52603260045260245ffd5b634e487b7160e01b5f52601160045260245ffd5b808201808211156115855761158561220a565b818103818111156115855761158561220a565b602080825282516001600160a01b0390811683830152908301511660408083019190915282015160c060608301525f9061228160e0840182611bd3565b9050606084015160808401526080840151600581106122a2576122a2611bab565b8060a08501525060a0840151601f198483030160c0850152611d158282611c0d565b5f5f5f606084860312156122d6575f5ffd5b83516001600160401b038111156122eb575f5ffd5b6122f786828701611ee4565b60208601516040870151919550935090506001600160401b0381111561231b575f5ffd5b61193986828701611d30565b5f60208284031215612337575f5ffd5b5051919050565b5f6020828403121561234e575f5ffd5b61158282611e32565b80820281158282048414176115855761158561220a56fea26469706673582212208ded55e31320c1285a0f6c007f84e918ca6c3080ecc6dd642165ebaa8f35cba364736f6c634300081e0033","linkReferences":{}},"methodIdentifiers":{"donate(address,uint256[],bytes)":"5a28ac20","donateHook((address,address,uint256[],bytes))":"69f10de4","getActionId(bytes4)":"851c1bb3","getAuthorizer()":"aaabadc5","getCollectedProtocolFees(address)":"4c65a5b3","getFeeSweeper()":"5c6e74c7","getMaxProtocolFeePercentage()":"7aaa14aa","getProtocolFeePercentage()":"706d9f78","getVault()":"8d928af8","setFeeSweeper(address)":"393cda9e","setProtocolFeePercentage(uint256)":"d8a5e936","swapAndDonateSurplusHook((address,address,uint8,address,address,uint256,uint256,uint256,uint256[],uint256[],bytes))":"7c255999","swapExactInAndDonateSurplus(address,address,address,uint256,uint256,uint256,uint256[],uint256[],bytes)":"3c902945","swapExactOutAndDonateSurplus(address,address,address,uint256,uint256,uint256,uint256[],uint256[],bytes)":"591b7655","withdrawCollectedProtocolFees(address)":"6abe431a"},"id":115}