{"abi":[{"type":"constructor","inputs":[{"name":"_protocolFeeSweeper","type":"address","internalType":"contract IProtocolFeeSweeper"},{"name":"initialOwner","type":"address","internalType":"address"}],"stateMutability":"nonpayable"},{"type":"function","name":"acceptOwnership","inputs":[],"outputs":[],"stateMutability":"nonpayable"},{"type":"function","name":"cancelOwnershipHandover","inputs":[],"outputs":[],"stateMutability":"payable"},{"type":"function","name":"completeOwnershipHandover","inputs":[{"name":"pendingOwner","type":"address","internalType":"address"}],"outputs":[],"stateMutability":"payable"},{"type":"function","name":"owner","inputs":[],"outputs":[{"name":"","type":"address","internalType":"address"}],"stateMutability":"view"},{"type":"function","name":"ownershipHandoverExpiresAt","inputs":[{"name":"pendingOwner","type":"address","internalType":"address"}],"outputs":[{"name":"result","type":"uint256","internalType":"uint256"}],"stateMutability":"view"},{"type":"function","name":"pendingOwner","inputs":[],"outputs":[{"name":"","type":"address","internalType":"address"}],"stateMutability":"view"},{"type":"function","name":"protocolFeeSweeper","inputs":[],"outputs":[{"name":"","type":"address","internalType":"contract IProtocolFeeSweeper"}],"stateMutability":"view"},{"type":"function","name":"renounceOwnership","inputs":[],"outputs":[],"stateMutability":"payable"},{"type":"function","name":"requestOwnershipHandover","inputs":[],"outputs":[],"stateMutability":"payable"},{"type":"function","name":"transferOwnership","inputs":[{"name":"newOwner","type":"address","internalType":"address"}],"outputs":[],"stateMutability":"payable"},{"type":"event","name":"OwnershipHandoverCanceled","inputs":[{"name":"pendingOwner","type":"address","indexed":true,"internalType":"address"}],"anonymous":false},{"type":"event","name":"OwnershipHandoverRequested","inputs":[{"name":"pendingOwner","type":"address","indexed":true,"internalType":"address"}],"anonymous":false},{"type":"event","name":"OwnershipTransferStarted","inputs":[{"name":"previousOwner","type":"address","indexed":true,"internalType":"address"},{"name":"newOwner","type":"address","indexed":true,"internalType":"address"}],"anonymous":false},{"type":"event","name":"OwnershipTransferred","inputs":[{"name":"oldOwner","type":"address","indexed":true,"internalType":"address"},{"name":"newOwner","type":"address","indexed":true,"internalType":"address"}],"anonymous":false},{"type":"error","name":"AlreadyInitialized","inputs":[]},{"type":"error","name":"InvalidProtocolFeeSweeper","inputs":[]},{"type":"error","name":"NewOwnerIsZeroAddress","inputs":[]},{"type":"error","name":"NoHandoverRequest","inputs":[]},{"type":"error","name":"OwnableInvalidOwner","inputs":[{"name":"owner","type":"address","internalType":"address"}]},{"type":"error","name":"OwnableUnauthorizedAccount","inputs":[{"name":"account","type":"address","internalType":"address"}]},{"type":"error","name":"SenderNotAllowed","inputs":[]},{"type":"error","name":"Unauthorized","inputs":[]}],"bytecode":{"object":"0x60a060405234801561000f575f5ffd5b5060405161056d38038061056d83398101604081905261002e916100ef565b806001600160a01b03811661005c57604051631e4fbdf760e01b81525f600482015260240160405180910390fd5b6100658161009f565b506001600160a01b03821661008d5760405163932c92a560e01b815260040160405180910390fd5b506001600160a01b0316608052610127565b6001600160a01b0316638b78c6d819819055805f7f8be0079c531659141344cd1fd0a4f28419497f9722a3daafe3b4186f6b6457e08180a35b50565b6001600160a01b03811681146100d8575f5ffd5b5f5f60408385031215610100575f5ffd5b825161010b816100db565b602084015190925061011c816100db565b809150509250929050565b60805161042f61013e5f395f6095015261042f5ff3fe608060405260043610610080575f3560e01c8063178ac96e1461008457806325692962146100cd57806354d1f13d146100d7578063715018a6146100df57806379ba5097146100e75780638da5cb5b146100fb578063e30c39781461010f578063f04e283e14610123578063f2fde38b14610136578063fee81cf414610149575b5f5ffd5b34801561008f575f5ffd5b506100b77f000000000000000000000000000000000000000000000000000000000000000081565b6040516100c491906103b8565b60405180910390f35b6100d5610188565b005b6100d56101d4565b6100d561020d565b3480156100f2575f5ffd5b506100d5610220565b348015610106575f5ffd5b506100b7610268565b34801561011a575f5ffd5b506100b761027b565b6100d56101313660046103cc565b610289565b6100d56101443660046103cc565b6102c3565b348015610154575f5ffd5b5061017a6101633660046103cc565b63389a75e1600c9081525f91909152602090205490565b6040519081526020016100c4565b5f6202a3006001600160401b03164201905063389a75e1600c52335f52806020600c2055337fdbf36a107da19e49527a7176a1babf963b4b0ff8cde35ee35d6cd8f1f9ac7e1d5f5fa250565b63389a75e1600c52335f525f6020600c2055337ffa7b8eab7da67f412cc9575ed43464468f9bfbae89d1675917346ca6d8fe3c925f5fa2565b610215610328565b61021e5f610363565b565b338061022a61027b565b6001600160a01b03161461025c578060405163118cdaa760e01b815260040161025391906103b8565b60405180910390fd5b610265816103a0565b50565b5f610276638b78c6d8195490565b905090565b5f546001600160a01b031690565b610291610328565b63389a75e1600c52805f526020600c2080544211156102b757636f5e88185f526004601cfd5b5f905561026581610363565b6102cb610328565b5f80546001600160a01b0319166001600160a01b0383169081179091556102f0610268565b6001600160a01b03167f38d16b8cac22d99fc7c124b9cd0de2d3fa1faef420bfe791d8c362d765e2270060405160405180910390a350565b610330610268565b6001600160a01b0316336001600160a01b03161461021e573360405163118cdaa760e01b815260040161025391906103b8565b638b78c6d81980546001600160a01b039092169182907f8be0079c531659141344cd1fd0a4f28419497f9722a3daafe3b4186f6b6457e05f80a355565b5f80546001600160a01b031916905561026581610363565b6001600160a01b0391909116815260200190565b5f602082840312156103dc575f5ffd5b81356001600160a01b03811681146103f2575f5ffd5b939250505056fea264697066735822122053aa2908db09dbd1e5ffb7335207b396d90e22c99d9b127ab4e53f733074b5a064736f6c634300081e0033","linkReferences":{}},"methodIdentifiers":{"acceptOwnership()":"79ba5097","cancelOwnershipHandover()":"54d1f13d","completeOwnershipHandover(address)":"f04e283e","owner()":"8da5cb5b","ownershipHandoverExpiresAt(address)":"fee81cf4","pendingOwner()":"e30c3978","protocolFeeSweeper()":"178ac96e","renounceOwnership()":"715018a6","requestOwnershipHandover()":"25692962","transferOwnership(address)":"f2fde38b"},"id":306}