{"abi":[{"type":"function","name":"computeBalance","inputs":[{"name":"balancesLiveScaled18","type":"uint256[]","internalType":"uint256[]"},{"name":"tokenInIndex","type":"uint256","internalType":"uint256"},{"name":"invariantRatio","type":"uint256","internalType":"uint256"}],"outputs":[{"name":"newBalance","type":"uint256","internalType":"uint256"}],"stateMutability":"view"},{"type":"function","name":"computeInvariant","inputs":[{"name":"balancesLiveScaled18","type":"uint256[]","internalType":"uint256[]"},{"name":"rounding","type":"uint8","internalType":"enum Rounding"}],"outputs":[{"name":"invariant","type":"uint256","internalType":"uint256"}],"stateMutability":"view"},{"type":"function","name":"getECLPParams","inputs":[],"outputs":[{"name":"params","type":"tuple","internalType":"struct IGyroECLPPool.EclpParams","components":[{"name":"alpha","type":"int256","internalType":"int256"},{"name":"beta","type":"int256","internalType":"int256"},{"name":"c","type":"int256","internalType":"int256"},{"name":"s","type":"int256","internalType":"int256"},{"name":"lambda","type":"int256","internalType":"int256"}]},{"name":"derived","type":"tuple","internalType":"struct IGyroECLPPool.DerivedEclpParams","components":[{"name":"tauAlpha","type":"tuple","internalType":"struct IGyroECLPPool.Vector2","components":[{"name":"x","type":"int256","internalType":"int256"},{"name":"y","type":"int256","internalType":"int256"}]},{"name":"tauBeta","type":"tuple","internalType":"struct IGyroECLPPool.Vector2","components":[{"name":"x","type":"int256","internalType":"int256"},{"name":"y","type":"int256","internalType":"int256"}]},{"name":"u","type":"int256","internalType":"int256"},{"name":"v","type":"int256","internalType":"int256"},{"name":"w","type":"int256","internalType":"int256"},{"name":"z","type":"int256","internalType":"int256"},{"name":"dSq","type":"int256","internalType":"int256"}]}],"stateMutability":"view"},{"type":"function","name":"getMaximumInvariantRatio","inputs":[],"outputs":[{"name":"","type":"uint256","internalType":"uint256"}],"stateMutability":"pure"},{"type":"function","name":"getMaximumSwapFeePercentage","inputs":[],"outputs":[{"name":"","type":"uint256","internalType":"uint256"}],"stateMutability":"pure"},{"type":"function","name":"getMinimumInvariantRatio","inputs":[],"outputs":[{"name":"","type":"uint256","internalType":"uint256"}],"stateMutability":"pure"},{"type":"function","name":"getMinimumSwapFeePercentage","inputs":[],"outputs":[{"name":"","type":"uint256","internalType":"uint256"}],"stateMutability":"pure"},{"type":"function","name":"onSwap","inputs":[{"name":"params","type":"tuple","internalType":"struct PoolSwapParams","components":[{"name":"kind","type":"uint8","internalType":"enum SwapKind"},{"name":"amountGivenScaled18","type":"uint256","internalType":"uint256"},{"name":"balancesScaled18","type":"uint256[]","internalType":"uint256[]"},{"name":"indexIn","type":"uint256","internalType":"uint256"},{"name":"indexOut","type":"uint256","internalType":"uint256"},{"name":"router","type":"address","internalType":"address"},{"name":"userData","type":"bytes","internalType":"bytes"}]}],"outputs":[{"name":"amountCalculatedScaled18","type":"uint256","internalType":"uint256"}],"stateMutability":"view"},{"type":"error","name":"AssetBoundsExceeded","inputs":[]},{"type":"error","name":"MaxAssetsExceeded","inputs":[]},{"type":"error","name":"MaxInvariantExceeded","inputs":[]},{"type":"error","name":"ZeroDivision","inputs":[]}],"bytecode":{"object":"0x6080604052348015600e575f5ffd5b506127688061001c5f395ff3fe608060405234801561000f575f5ffd5b5060043610610076575f3560e01c806316a0b3e01461007a578063273c1adf146100a0578063654cf15d146100ae57806372c98186146100bc5780637be219a2146100cf578063984de9e81461016d578063b677fa5614610180578063ce20ece71461018e575b5f5ffd5b61008d610088366004612466565b610199565b6040519081526020015b60405180910390f35b674563918244f4000061008d565b670de0b6b3a764000061008d565b61008d6100ca3660046124af565b6102b7565b6100d761042c565b604080518351815260208085015181830152848301518284015260608086015181840152608095860151868401528451805160a0808601919091529083015160c08086019190915283870151805160e0870152909301516101008501529385015161012084015284015161014083015293830151610160820152908201516101808201529101516101a08201526101c001610097565b61008d61017b3660046124f4565b61044c565b670853a0d2313c000061008d565b64e8d4a5100061008d565b5f5f5f6101a46104b4565b915091506101b0612308565b5f5f6101bd8986866104ed565b9150915060405180604001604052806101ed6101e28a6101e786886101e29190612556565b610758565b90610768565b81526020016102046101e28a6101e782878961257d565b905280519093506ab48e51940c76a45816e51f60251b12156102395760405163dc10196f60e01b815260040160405180910390fd5b50505f865f0361027c576102716102698960018151811061025c5761025c6125a3565b6020026020010151610758565b858585610794565b509091506102a29050565b61029c610294895f8151811061025c5761025c6125a3565b85858561081d565b50909150505b6102ab81610758565b98975050505050505050565b5f60608201351581806102c86104b4565b915091506102d4612308565b5f806103206102e660408a018a6125b7565b808060200260200160405190810160405280939291908181526020018383602002808284375f920191909152508992508891506104ed9050565b91509150604051806040016040528082600261033c9190612603565b6103469085612556565b8152602001929092525090505f6103606020880188612646565b600181111561037157610371612632565b036103cf576103c461038660408801886125b7565b808060200260200160405190810160405280939291908181526020018383602002808284375f92019190915250505050602088013586868686610876565b509095506104239050565b61041d6103df60408801886125b7565b808060200260200160405190810160405280939291908181526020018383602002808284375f92019190915250505050602088013586868686610936565b50909550505b50505050919050565b610434612320565b61043c61234a565b6104446104b4565b915091509091565b5f5f5f6104576104b4565b915091505f5f6104688785856104ed565b9092509050600186600181111561048157610481612632565b0361049a576104936101e2828461257d565b94506104aa565b6104a76101e28284612556565b94505b5050505092915050565b6104bc612320565b6104c461234a565b6104447f646300f37812ad2c74ca119166990b8cd14e10adb9cb18589e087b082ded4981610a20565b5f5f5f5f610506875f8151811061025c5761025c6125a3565b61051c8860018151811061025c5761025c6125a3565b9092509050697b426fab61f00de3639960221b6105398284612556565b131561055857604051632da2a5e560e01b815260040160405180910390fd5b5f61056583838989610ad0565b90505f5f61057585858b8b610c2c565b915091505f8213156105a7576105a061058f836002612603565b61059a836001612556565b90610ccb565b90506105d1565b5f81136105b857633b9aca006105ce565b6105ce6101e26105c783610758565b6005610d97565b90505b806b012ced32a16a1b11e826288960261b6105fa6105ef8789612556565b60808d015190610faf565b6106049190612675565b61060e9190612556565b610619906001612556565b610624906014612603565b90505f6106646b012ced32a16a1b11e826288960261b6106448c8c611030565b61064e919061257d565b6b012ced32a16a1b11e826288960261b90611136565b90505f61068682846106768789612556565b610680919061257d565b9061117b565b9050610692838361123e565b60808c01519093506b012ced32a16a1b11e826288960261b906a0c097ce7bc90715b34b9f160241b906106c59080612603565b6106cf9190612675565b6106d9838561123e565b6106e39190612603565b6106ee906028612603565b6106f89190612675565b6107029084612556565b61070d906001612556565b92506ab48e51940c76a45816e51f60251b6107288483612556565b13156107475760405163dc10196f60e01b815260040160405180910390fd5b9b919a509098505050505050505050565b5f610762826112d5565b92915050565b5f8061077483856126a1565b90506001670de0b6b3a76400006001830304018115150291505092915050565b5f5f5f6107a28686866112ee565b91506107af8686866113a5565b90505f604051806040016040528083815260200184815250905061081087608001518989604001518a60600151898660405180604001604052808e5f01515f01516107f9906126b8565b81528e5160209081015191015260c08e015161143f565b9350509450945094915050565b5f5f5f61082b8686866112ee565b91506108388686866113a5565b90505f604051806040016040528084815260200183815250905061081087608001518989606001518a6040015189868c602001518d60c0015161143f565b5f5f5f61238e5f5f8915610894575061081d91505f905060016108a0565b506107949150600190505f5b5f6108cc8c8e8560ff16815181106108ba576108ba6125a3565b60200260200101516101e291906126d2565b90506108db8a8a8a8487611709565b5f6108ec828c8c8c8963ffffffff16565b909850965090506108fc81610758565b8e8460ff1681518110610911576109116125a3565b602002602001015161092391906126e5565b9750505050505096509650969350505050565b5f5f5f61238e5f5f8915610954575061079491505f90506001610960565b5061081d9150600190505f5b8b8160ff1681518110610975576109756125a3565b60200260200101518b111561099d576040516301dd20c360e11b815260040160405180910390fd5b5f6109c98c8e8460ff16815181106109b7576109b76125a3565b60200260200101516101e291906126e5565b90505f6109dc828c8c8c8963ffffffff16565b909850965090506109f08b8b8b8488611709565b8d8460ff1681518110610a0557610a056125a3565b6020026020010151610a1682610758565b61092391906126e5565b610a28612320565b610a3061234a565b82548252600183015460208084019190915260028401546040808501919091526003850154606080860191909152600486015460808087019190915260058701548551526006870154855185015260078701548585018051919091526008880154905190940193909352600986015491840191909152600a85015490830152600b84015490820152600c83015460a0820152600d9092015460c083015291565b60c08101515f908190610ae390806117b2565b90505f610b2882610b2287608001518760a00151610b128a608001518a608001516117cd90919063ffffffff16565b610b1c9190612556565b906117cd565b90611136565b9050610b5581610b4587606001518961180190919063ffffffff16565b6040880151610676908b90611801565b92505f610b7d8660400151610b7788608001518a61180190919063ffffffff16565b90611801565b610b9c8760600151610b7789608001518c61180190919063ffffffff16565b610ba69190612556565b9050610bc9610bc284876040015161113690919063ffffffff16565b829061117b565b610bd39085612556565b9350610bec86604001518861180190919063ffffffff16565b6060870151610bfc908a90611801565b610c069190612556565b9050610c22610bc284876060015161113690919063ffffffff16565b6102ab9085612556565b5f5f610c3a86868686611815565b610c4687878787611962565b610c509190612556565b9150610c5e86868686611ab3565b610c689083612556565b91506b012ced32a16a1b11e826288960261b610c848680610faf565b610c8e8880610faf565b610c989190612556565b610ca29190612675565b90505f8213610cb1575f610cc0565b610cc06101e26105c784610758565b915094509492505050565b5f815f03610cec57604051630a0c22c760e01b815260040160405180910390fd5b825f03610cfa57505f610762565b5f821215610d1957610d0b826126b8565b9150610d16836126b8565b92505b5f831315610d5c57816001610d36670de0b6b3a764000086612603565b610d40919061257d565b610d4a9190612675565b610d55906001612556565b9050610762565b600182610d71670de0b6b3a764000086612603565b610d7c906001612556565b610d869190612675565b610d90919061257d565b9392505050565b5f825f03610da657505f610762565b5f610db084611be6565b9050600281610dc7670de0b6b3a7640000876126a1565b610dd191906126f8565b610ddb90836126d2565b610de591906126f8565b9050600281610dfc670de0b6b3a7640000876126a1565b610e0691906126f8565b610e1090836126d2565b610e1a91906126f8565b9050600281610e31670de0b6b3a7640000876126a1565b610e3b91906126f8565b610e4590836126d2565b610e4f91906126f8565b9050600281610e66670de0b6b3a7640000876126a1565b610e7091906126f8565b610e7a90836126d2565b610e8491906126f8565b9050600281610e9b670de0b6b3a7640000876126a1565b610ea591906126f8565b610eaf90836126d2565b610eb991906126f8565b9050600281610ed0670de0b6b3a7640000876126a1565b610eda91906126f8565b610ee490836126d2565b610eee91906126f8565b9050600281610f05670de0b6b3a7640000876126a1565b610f0f91906126f8565b610f1990836126d2565b610f2391906126f8565b90505f610f308280611dc1565b9050610f3c8285610768565b610f4690866126d2565b8111158015610f685750610f5a8285610768565b610f6490866126e5565b8110155b610fa75760405162461bcd60e51b815260206004820152600c60248201526b17dcdc5c9d0811905253115160a21b604482015260640160405180910390fd5b509392505050565b5f80610fbb8385612603565b90505f811315610ff657670de0b6b3a7640000610fd960018361257d565b610fe39190612675565b610fee906001612556565b915050610762565b5f811215611027576001670de0b6b3a76400006110138383612556565b61101d9190612675565b610fee919061257d565b505f9392505050565b60c08101515f90819061104d9061104781806117b2565b906117b2565b905061107a61106f82610b228660600151876040015160026110479190612603565b608086015190610faf565b91506110ba84608001516110b486608001516110b485610b22896040015160016110a49190612556565b60408b0151611047906001612556565b90610faf565b6110c49083612556565b60608401519092506110dc908290610b2290806117b2565b6110e69083612556565b91505f8360a0015161110986608001518660800151610ccb90919063ffffffff16565b6111139190612556565b905061112382610b2283806117b2565b61112d9084612556565b95945050505050565b5f815f0361115757604051630a0c22c760e01b815260040160405180910390fd5b816111716b012ced32a16a1b11e826288960261b85612603565b610d909190612675565b5f8061118f678ac7230489e8000084612675565b90505f6111a4678ac7230489e800008561270b565b90505f6111b18387612603565b90505f6111be8388612603565b90505f82121580156111d057505f8112155b611217576001678ac7230489e800006111e98184612675565b6111f39085612556565b6111fe906001612556565b6112089190612675565b611212919061257d565b6104a7565b678ac7230489e8000061122a8183612675565b6112349084612556565b6104a79190612675565b5f80611252678ac7230489e8000084612675565b90505f611267678ac7230489e800008561270b565b90505f6112748387612603565b90505f6112818388612603565b90505f821315801561129357505f8113155b61121757678ac7230489e8000060016112ac8284612675565b6112b69085612556565b6112c0919061257d565b6112ca9190612675565b611212906001612556565b5f5f82126112e1575090565b6112e9611de9565b919050565b60c08201516020830151515f91829161130691611136565b90505f84602001515f015113611348576113438161133d8760400151610b778960800151886020015161180190919063ffffffff16565b9061123e565b611367565b60408501516080860151845161136792849261133d926110b491610faf565b915061139b61138b8560c0015186602001516020015161113690919063ffffffff16565b6060870151855161133d91610faf565b61112d9083612556565b60c08201518251515f9182916113ba91611136565b8451519091505f136113ed576113e88161133d8760600151610b7789608001518860200151610b77906126b8565b611414565b6114146113f9826126b8565b60608701516080880151865161133d92916110b49190610faf565b60c085015185516020015191935061139b9161142f91611136565b6040870151855161133d91610faf565b5f611448612308565b6114658a610b1c6b012ced32a16a1b11e826288960261b826117cd565b61147e906b012ced32a16a1b11e826288960261b61257d565b815261149d8a61059a6b012ced32a16a1b11e826288960261b82610ccb565b6114b6906b012ced32a16a1b11e826288960261b61257d565b60208201526114c3612398565b85515f906114d1908c61257d565b90505f8113156115075760208301516114fd906114ee9087611136565b61133d8b610b778e81876126b8565b6020830152611537565b8251611531906115179087611136565b611522906001612556565b61133d8b6110b48e81876126b8565b60208301525b61153f612308565b61155e86610b228d610b778f896020015161180190919063ffffffff16565b8152835161156c908c610faf565b602082015261158e61157f876001612556565b6020830151610b22908e610faf565b611599906001612556565b602082015260408051808201909152815181906115c5906b012ced32a16a1b11e826288960261b61257d565b815260200182602001516b012ced32a16a1b11e826288960261b6115e9919061257d565b905290506115fc8c8a8f8e8e8c8c611df6565b611605906126b8565b6040840152602080820151908a015161162391906106809080611801565b83604001516116329190612556565b604084018190525f12611645575f611658565b6116586101e26105c78560400151610758565b6040840181905260208401515f9161166f9161257d565b13156116c4576116bd61169e82602001516b012ced32a16a1b11e826288960261b61113690919063ffffffff16565b6116a9906001612556565b8460400151856020015161133d919061257d565b83526116e7565b80516116e4906116a9906b012ced32a16a1b11e826288960261b90611136565b83525b602088015183516116f89190612556565b9d9c50505050505050505050505050565b8060ff165f03611761575f61171f8686866120dc565b9050697b426fab61f00de3639960221b831315801561173e5750808313155b61175b576040516301dd20c360e11b815260040160405180910390fd5b506117ab565b5f61176d868686612194565b9050697b426fab61f00de3639960221b831315801561178c5750808313155b6117a9576040516301dd20c360e11b815260040160405180910390fd5b505b5050505050565b5f6b012ced32a16a1b11e826288960261b6111718385612603565b5f815f036117ee57604051630a0c22c760e01b815260040160405180910390fd5b81611171670de0b6b3a764000085612603565b5f670de0b6b3a76400006111718385612603565b5f5f6118518460600151610b77866040015160026118339190612603565b61183d8980610faf565b6118478b80611801565b610b77919061257d565b90505f611869611862886002612603565b8790611801565b606086015190915061187f90610b778382611801565b604086015161189290610b778482611801565b61189c9084612556565b6118a6919061257d565b91505f6118d48660800151610b1c8860800151610b1c89606001518a608001516117b290919063ffffffff16565b604086015160a08701516118e7916117b2565b6118f19190612556565b9050611929866080015161191687606001518860a001516117b290919063ffffffff16565b60408801516080890151610b12916117b2565b6119339082612556565b60c08601519091506119569061194f90611047818181806117b2565b8290611136565b90506102ab838261117b565b60608201515f90819061197b906110b481818980610faf565b6040850151611990906110b481818b80610faf565b61199a9190612556565b90506119c28460600151610b77866040015160026119b89190612603565b610b778a8a611801565b6119cc908261257d565b608085015160608501519192505f916119ee9190610b1c9082908290806117b2565b611a0f8660800151610b1c8760600151886040015160026110479190612603565b6040860151611a1e90806117b2565b611a289190612556565b611a329190612556565b60c0850151909150611a4e9061194f90611047818181806117b2565b9050611a5d81610680846126b8565b9250611a9e611a888560c001516b012ced32a16a1b11e826288960261b61113690919063ffffffff16565b608087015161068090610b1c818160098961257d565b611aa89084612556565b979650505050505050565b60408201515f908190611acc906110b481818980610faf565b6060850151611ae1906110b481818b80610faf565b611aeb9190612556565b9050611b1384604001516110b486606001516002611b099190612603565b6110b48a8a610faf565b611b1d9082612556565b608080860151908501519192505f91611b3f9190610b1c9082908290806117b2565b60a0850151611b4e90806117b2565b611b589190612556565b9050611b7b8560800151610b1c86608001518760a0015160026110479190612603565b611b859082612556565b60c0850151909150611ba19061194f90611047818181806117b2565b9050611bb081610680846126b8565b9250611a9e611bdb8560c001516b012ced32a16a1b11e826288960261b61113690919063ffffffff16565b61068060098561257d565b5f670de0b6b3a76400008210611c1f57670de0b6b3a7640000611c11611c0c82856126f8565b612233565b6001901b61076291906126a1565b600a8211611c32575063bc7c871c919050565b60648211611c4657506402540be400919050565b6103e88211611c5b575064075cdd4719919050565b6127108211611c70575064174876e800919050565b620186a08211611c8657506449a0a4c700919050565b620f42408211611c9c575064e8d4a51000919050565b629896808211611cb357506502e0466fc608919050565b6305f5e1008211611ccb57506509184e72a000919050565b633b9aca008211611ce35750651cc2c05dbc53919050565b6402540be4008211611cfc5750655af3107a4000919050565b64174876e8008211611d16575066011f9b83a95b45919050565b64e8d4a510008211611d30575066038d7ea4c68000919050565b6509184e72a0008211611d4b5750660b3c13249d90bb919050565b655af3107a40008211611d665750662386f26fc10000919050565b66038d7ea4c680008211611d825750667058bf6e27a751919050565b662386f26fc100008211611d9f575067016345785d8a0000919050565b67016345785d8a00008211611dbd5750670463777a4d8c892d919050565b5090565b5f80611dcd83856126a1565b9050611de1670de0b6b3a7640000826126f8565b949350505050565b6335278d125f526004601cfd5b5f5f6040518060400160405280611e1685866117b290919063ffffffff16565b81528951602090910190611e2a9080610faf565b90529050611e36612398565b8151602086015186515f92611e50929091610b22916117b2565b90505f811315611e9657611e73611e68896002612603565b602085015190610faf565b8252611e8f611e83826007612556565b835161133d908a610faf565b8252611ec9565b611eb3611ea4896002612603565b60208c0151610b779080611801565b808352611ec690829061133d908a611801565b82525b85515f1315611f24578551611f1a90611ee29087611136565b611eeb906126b8565b611ef6906003612556565b61133d611f048a6002612603565b6110b48f8f5f0151610faf90919063ffffffff16565b6020830152611f5a565b8551611f5490611f349087611136565b61133d611f428a6002612603565b610b778f8f60200151610b77906126b8565b60208301525b60208201518251611f6b9190612556565b825282516020870151611f839190610b2290806117b2565b611f8e906007612556565b6020840151909150611fa09089610faf565b60208301819052611fb790829061133d908b610faf565b602080840191909152860151611fdf90611fd19087611136565b61133d611f428b6002612603565b6040830152611fee8b80610faf565b826040015183602001516120029190612556565b61200c9190612556565b602083018190525f1261202d576020820151612028908a6117cd565b61203c565b602082015161203c908a610ccb565b60208301819052825161204f9190612556565b8083525f12612069578151612064908a6117cd565b612075565b8151612075908a610ccb565b82528251865161208a9190610b2290806117b2565b612095906007612556565b90505f6120b3886110b48a8760200151610faf90919063ffffffff16565b83519091506120c2828461123e565b6120cc9190612556565b9c9b505050505050505050505050565b60c08201518251516020840151515f9283926120fc92610b22919061257d565b90505f6121228560c00151865f015160200151876020015160200151610b22919061257d565b905061214b826106808860400151610b778a60800151896020015161180190919063ffffffff16565b9250612180815f831361216d576060880151865161216891610faf565b610680565b6060880151602087015161068091611801565b61218a9084612556565b9695505050505050565b60c08201518251516020840151515f9283926121b492610b22919061257d565b90505f6121da8560c00151866020015160200151875f015160200151610b22919061257d565b9050612203826106808860600151610b778a60800151896020015161180190919063ffffffff16565b9250612180815f8313612220576040880151865161216891610faf565b6040880151602087015161068091611801565b5f600160801b82106122545760809190911c906122516040826126d2565b90505b600160401b82106122745760409190911c906122716020826126d2565b90505b600160201b82106122945760209190911c906122916010826126d2565b90505b6201000082106122b35760109190911c906122b06008826126d2565b90505b61010082106122d15760089190911c906122ce6004826126d2565b90505b601082106122ee5760049190911c906122eb6002826126d2565b90505b600482106112e95760029190911c906107626001826126d2565b60405180604001604052805f81526020015f81525090565b6040518060a001604052805f81526020015f81526020015f81526020015f81526020015f81525090565b6040518060e0016040528061235d612308565b815260200161236a612308565b81526020015f81526020015f81526020015f81526020015f81526020015f81525090565b61239661271e565b565b60405180606001604052805f81526020015f81526020015f81525090565b634e487b7160e01b5f52604160045260245ffd5b5f82601f8301126123d9575f5ffd5b81356001600160401b038111156123f2576123f26123b6565b604051600582901b90603f8201601f191681016001600160401b0381118282101715612420576124206123b6565b60405291825260208185018101929081018684111561243d575f5ffd5b6020860192505b8383101561245c578235815260209283019201612444565b5095945050505050565b5f5f5f60608486031215612478575f5ffd5b83356001600160401b0381111561248d575f5ffd5b612499868287016123ca565b9660208601359650604090950135949350505050565b5f602082840312156124bf575f5ffd5b81356001600160401b038111156124d4575f5ffd5b820160e08185031215610d90575f5ffd5b600281106124f1575f5ffd5b50565b5f5f60408385031215612505575f5ffd5b82356001600160401b0381111561251a575f5ffd5b612526858286016123ca565b9250506020830135612537816124e5565b809150509250929050565b634e487b7160e01b5f52601160045260245ffd5b8082018281125f83128015821682158216171561257557612575612542565b505092915050565b8181035f83128015838313168383128216171561259c5761259c612542565b5092915050565b634e487b7160e01b5f52603260045260245ffd5b5f5f8335601e198436030181126125cc575f5ffd5b8301803591506001600160401b038211156125e5575f5ffd5b6020019150600581901b36038213156125fc575f5ffd5b9250929050565b8082025f8212600160ff1b8414161561261e5761261e612542565b818105831482151761076257610762612542565b634e487b7160e01b5f52602160045260245ffd5b5f60208284031215612656575f5ffd5b8135610d90816124e5565b634e487b7160e01b5f52601260045260245ffd5b5f8261268357612683612661565b600160ff1b82145f198414161561269c5761269c612542565b500590565b808202811582820484141761076257610762612542565b5f600160ff1b82016126cc576126cc612542565b505f0390565b8082018082111561076257610762612542565b8181038181111561076257610762612542565b5f8261270657612706612661565b500490565b5f8261271957612719612661565b500790565b634e487b7160e01b5f52605160045260245ffdfea2646970667358221220a29662afc1e7a6acd1128a8c8d9b93f4a66964c342e9f8d53a444b333222b45a64736f6c634300081e0033","linkReferences":{}},"methodIdentifiers":{"computeBalance(uint256[],uint256,uint256)":"16a0b3e0","computeInvariant(uint256[],uint8)":"984de9e8","getECLPParams()":"7be219a2","getMaximumInvariantRatio()":"273c1adf","getMaximumSwapFeePercentage()":"654cf15d","getMinimumInvariantRatio()":"b677fa56","getMinimumSwapFeePercentage()":"ce20ece7","onSwap((uint8,uint256,uint256[],uint256,uint256,address,bytes))":"72c98186"},"id":872}