{"abi":[{"type":"constructor","inputs":[{"name":"vault","type":"address","internalType":"contract IVault"},{"name":"weth","type":"address","internalType":"contract IWETH"},{"name":"permit2","type":"address","internalType":"contract IPermit2"},{"name":"routerVersion","type":"string","internalType":"string"}],"stateMutability":"nonpayable"},{"type":"receive","stateMutability":"payable"},{"type":"function","name":"getPermit2","inputs":[],"outputs":[{"name":"","type":"address","internalType":"contract IPermit2"}],"stateMutability":"view"},{"type":"function","name":"getSender","inputs":[],"outputs":[{"name":"","type":"address","internalType":"address"}],"stateMutability":"view"},{"type":"function","name":"getVault","inputs":[],"outputs":[{"name":"","type":"address","internalType":"contract IVault"}],"stateMutability":"view"},{"type":"function","name":"getWeth","inputs":[],"outputs":[{"name":"","type":"address","internalType":"contract IWETH"}],"stateMutability":"view"},{"type":"function","name":"multicall","inputs":[{"name":"data","type":"bytes[]","internalType":"bytes[]"}],"outputs":[{"name":"results","type":"bytes[]","internalType":"bytes[]"}],"stateMutability":"payable"},{"type":"function","name":"permitBatchAndCall","inputs":[{"name":"permitBatch","type":"tuple[]","internalType":"struct IRouterCommon.PermitApproval[]","components":[{"name":"token","type":"address","internalType":"address"},{"name":"owner","type":"address","internalType":"address"},{"name":"spender","type":"address","internalType":"address"},{"name":"amount","type":"uint256","internalType":"uint256"},{"name":"nonce","type":"uint256","internalType":"uint256"},{"name":"deadline","type":"uint256","internalType":"uint256"}]},{"name":"permitSignatures","type":"bytes[]","internalType":"bytes[]"},{"name":"permit2Batch","type":"tuple","internalType":"struct IAllowanceTransfer.PermitBatch","components":[{"name":"details","type":"tuple[]","internalType":"struct IAllowanceTransfer.PermitDetails[]","components":[{"name":"token","type":"address","internalType":"address"},{"name":"amount","type":"uint160","internalType":"uint160"},{"name":"expiration","type":"uint48","internalType":"uint48"},{"name":"nonce","type":"uint48","internalType":"uint48"}]},{"name":"spender","type":"address","internalType":"address"},{"name":"sigDeadline","type":"uint256","internalType":"uint256"}]},{"name":"permit2Signature","type":"bytes","internalType":"bytes"},{"name":"multicallData","type":"bytes[]","internalType":"bytes[]"}],"outputs":[{"name":"","type":"bytes[]","internalType":"bytes[]"}],"stateMutability":"payable"},{"type":"function","name":"querySwapExactIn","inputs":[{"name":"paths","type":"tuple[]","internalType":"struct SwapPathExactAmountIn[]","components":[{"name":"tokenIn","type":"address","internalType":"contract IERC20"},{"name":"steps","type":"tuple[]","internalType":"struct SwapPathStep[]","components":[{"name":"pool","type":"address","internalType":"address"},{"name":"tokenOut","type":"address","internalType":"contract IERC20"},{"name":"isBuffer","type":"bool","internalType":"bool"}]},{"name":"exactAmountIn","type":"uint256","internalType":"uint256"},{"name":"minAmountOut","type":"uint256","internalType":"uint256"}]},{"name":"sender","type":"address","internalType":"address"},{"name":"userData","type":"bytes","internalType":"bytes"}],"outputs":[{"name":"pathAmountsOut","type":"uint256[]","internalType":"uint256[]"},{"name":"tokensOut","type":"address[]","internalType":"address[]"},{"name":"amountsOut","type":"uint256[]","internalType":"uint256[]"}],"stateMutability":"nonpayable"},{"type":"function","name":"querySwapExactInHook","inputs":[{"name":"params","type":"tuple","internalType":"struct SwapExactInHookParams","components":[{"name":"sender","type":"address","internalType":"address"},{"name":"paths","type":"tuple[]","internalType":"struct SwapPathExactAmountIn[]","components":[{"name":"tokenIn","type":"address","internalType":"contract IERC20"},{"name":"steps","type":"tuple[]","internalType":"struct SwapPathStep[]","components":[{"name":"pool","type":"address","internalType":"address"},{"name":"tokenOut","type":"address","internalType":"contract IERC20"},{"name":"isBuffer","type":"bool","internalType":"bool"}]},{"name":"exactAmountIn","type":"uint256","internalType":"uint256"},{"name":"minAmountOut","type":"uint256","internalType":"uint256"}]},{"name":"deadline","type":"uint256","internalType":"uint256"},{"name":"wethIsEth","type":"bool","internalType":"bool"},{"name":"userData","type":"bytes","internalType":"bytes"}]}],"outputs":[{"name":"pathAmountsOut","type":"uint256[]","internalType":"uint256[]"},{"name":"tokensOut","type":"address[]","internalType":"address[]"},{"name":"amountsOut","type":"uint256[]","internalType":"uint256[]"}],"stateMutability":"nonpayable"},{"type":"function","name":"querySwapExactOut","inputs":[{"name":"paths","type":"tuple[]","internalType":"struct SwapPathExactAmountOut[]","components":[{"name":"tokenIn","type":"address","internalType":"contract IERC20"},{"name":"steps","type":"tuple[]","internalType":"struct SwapPathStep[]","components":[{"name":"pool","type":"address","internalType":"address"},{"name":"tokenOut","type":"address","internalType":"contract IERC20"},{"name":"isBuffer","type":"bool","internalType":"bool"}]},{"name":"maxAmountIn","type":"uint256","internalType":"uint256"},{"name":"exactAmountOut","type":"uint256","internalType":"uint256"}]},{"name":"sender","type":"address","internalType":"address"},{"name":"userData","type":"bytes","internalType":"bytes"}],"outputs":[{"name":"pathAmountsIn","type":"uint256[]","internalType":"uint256[]"},{"name":"tokensIn","type":"address[]","internalType":"address[]"},{"name":"amountsIn","type":"uint256[]","internalType":"uint256[]"}],"stateMutability":"nonpayable"},{"type":"function","name":"querySwapExactOutHook","inputs":[{"name":"params","type":"tuple","internalType":"struct SwapExactOutHookParams","components":[{"name":"sender","type":"address","internalType":"address"},{"name":"paths","type":"tuple[]","internalType":"struct SwapPathExactAmountOut[]","components":[{"name":"tokenIn","type":"address","internalType":"contract IERC20"},{"name":"steps","type":"tuple[]","internalType":"struct SwapPathStep[]","components":[{"name":"pool","type":"address","internalType":"address"},{"name":"tokenOut","type":"address","internalType":"contract IERC20"},{"name":"isBuffer","type":"bool","internalType":"bool"}]},{"name":"maxAmountIn","type":"uint256","internalType":"uint256"},{"name":"exactAmountOut","type":"uint256","internalType":"uint256"}]},{"name":"deadline","type":"uint256","internalType":"uint256"},{"name":"wethIsEth","type":"bool","internalType":"bool"},{"name":"userData","type":"bytes","internalType":"bytes"}]}],"outputs":[{"name":"pathAmountsIn","type":"uint256[]","internalType":"uint256[]"},{"name":"tokensIn","type":"address[]","internalType":"address[]"},{"name":"amountsIn","type":"uint256[]","internalType":"uint256[]"}],"stateMutability":"nonpayable"},{"type":"function","name":"swapExactIn","inputs":[{"name":"paths","type":"tuple[]","internalType":"struct SwapPathExactAmountIn[]","components":[{"name":"tokenIn","type":"address","internalType":"contract IERC20"},{"name":"steps","type":"tuple[]","internalType":"struct SwapPathStep[]","components":[{"name":"pool","type":"address","internalType":"address"},{"name":"tokenOut","type":"address","internalType":"contract IERC20"},{"name":"isBuffer","type":"bool","internalType":"bool"}]},{"name":"exactAmountIn","type":"uint256","internalType":"uint256"},{"name":"minAmountOut","type":"uint256","internalType":"uint256"}]},{"name":"deadline","type":"uint256","internalType":"uint256"},{"name":"wethIsEth","type":"bool","internalType":"bool"},{"name":"userData","type":"bytes","internalType":"bytes"}],"outputs":[{"name":"pathAmountsOut","type":"uint256[]","internalType":"uint256[]"},{"name":"tokensOut","type":"address[]","internalType":"address[]"},{"name":"amountsOut","type":"uint256[]","internalType":"uint256[]"}],"stateMutability":"payable"},{"type":"function","name":"swapExactInHook","inputs":[{"name":"params","type":"tuple","internalType":"struct SwapExactInHookParams","components":[{"name":"sender","type":"address","internalType":"address"},{"name":"paths","type":"tuple[]","internalType":"struct SwapPathExactAmountIn[]","components":[{"name":"tokenIn","type":"address","internalType":"contract IERC20"},{"name":"steps","type":"tuple[]","internalType":"struct SwapPathStep[]","components":[{"name":"pool","type":"address","internalType":"address"},{"name":"tokenOut","type":"address","internalType":"contract IERC20"},{"name":"isBuffer","type":"bool","internalType":"bool"}]},{"name":"exactAmountIn","type":"uint256","internalType":"uint256"},{"name":"minAmountOut","type":"uint256","internalType":"uint256"}]},{"name":"deadline","type":"uint256","internalType":"uint256"},{"name":"wethIsEth","type":"bool","internalType":"bool"},{"name":"userData","type":"bytes","internalType":"bytes"}]}],"outputs":[{"name":"pathAmountsOut","type":"uint256[]","internalType":"uint256[]"},{"name":"tokensOut","type":"address[]","internalType":"address[]"},{"name":"amountsOut","type":"uint256[]","internalType":"uint256[]"}],"stateMutability":"nonpayable"},{"type":"function","name":"swapExactOut","inputs":[{"name":"paths","type":"tuple[]","internalType":"struct SwapPathExactAmountOut[]","components":[{"name":"tokenIn","type":"address","internalType":"contract IERC20"},{"name":"steps","type":"tuple[]","internalType":"struct SwapPathStep[]","components":[{"name":"pool","type":"address","internalType":"address"},{"name":"tokenOut","type":"address","internalType":"contract IERC20"},{"name":"isBuffer","type":"bool","internalType":"bool"}]},{"name":"maxAmountIn","type":"uint256","internalType":"uint256"},{"name":"exactAmountOut","type":"uint256","internalType":"uint256"}]},{"name":"deadline","type":"uint256","internalType":"uint256"},{"name":"wethIsEth","type":"bool","internalType":"bool"},{"name":"userData","type":"bytes","internalType":"bytes"}],"outputs":[{"name":"pathAmountsIn","type":"uint256[]","internalType":"uint256[]"},{"name":"tokensIn","type":"address[]","internalType":"address[]"},{"name":"amountsIn","type":"uint256[]","internalType":"uint256[]"}],"stateMutability":"payable"},{"type":"function","name":"swapExactOutHook","inputs":[{"name":"params","type":"tuple","internalType":"struct SwapExactOutHookParams","components":[{"name":"sender","type":"address","internalType":"address"},{"name":"paths","type":"tuple[]","internalType":"struct SwapPathExactAmountOut[]","components":[{"name":"tokenIn","type":"address","internalType":"contract IERC20"},{"name":"steps","type":"tuple[]","internalType":"struct SwapPathStep[]","components":[{"name":"pool","type":"address","internalType":"address"},{"name":"tokenOut","type":"address","internalType":"contract IERC20"},{"name":"isBuffer","type":"bool","internalType":"bool"}]},{"name":"maxAmountIn","type":"uint256","internalType":"uint256"},{"name":"exactAmountOut","type":"uint256","internalType":"uint256"}]},{"name":"deadline","type":"uint256","internalType":"uint256"},{"name":"wethIsEth","type":"bool","internalType":"bool"},{"name":"userData","type":"bytes","internalType":"bytes"}]}],"outputs":[{"name":"pathAmountsIn","type":"uint256[]","internalType":"uint256[]"},{"name":"tokensIn","type":"address[]","internalType":"address[]"},{"name":"amountsIn","type":"uint256[]","internalType":"uint256[]"}],"stateMutability":"nonpayable"},{"type":"function","name":"version","inputs":[],"outputs":[{"name":"","type":"string","internalType":"string"}],"stateMutability":"view"},{"type":"error","name":"AddressEmptyCode","inputs":[{"name":"target","type":"address","internalType":"address"}]},{"type":"error","name":"ErrorSelectorNotFound","inputs":[]},{"type":"error","name":"EthTransfer","inputs":[]},{"type":"error","name":"FailedCall","inputs":[]},{"type":"error","name":"InputLengthMismatch","inputs":[]},{"type":"error","name":"InsufficientBalance","inputs":[{"name":"balance","type":"uint256","internalType":"uint256"},{"name":"needed","type":"uint256","internalType":"uint256"}]},{"type":"error","name":"InsufficientEth","inputs":[]},{"type":"error","name":"OperationNotSupported","inputs":[]},{"type":"error","name":"ReentrancyGuardReentrantCall","inputs":[]},{"type":"error","name":"SenderIsNotVault","inputs":[{"name":"sender","type":"address","internalType":"address"}]},{"type":"error","name":"SwapDeadline","inputs":[]},{"type":"error","name":"TransientIndexOutOfBounds","inputs":[]}],"bytecode":{"object":"0x600b6101e09081526a14d95b99195c91dd585c9960aa1b6102005261026060405260066102209081526539b2b73232b960d11b61024052610040919061025b565b608052604080518082018252600c81526b2937baba32b921b7b6b6b7b760a11b602080830191909152825180840190935260118352701a5cd4995d1d5c9b915d1a131bd8dad959607a1b908301526100979161025b565b60c05260408051808201909152601381527f63757272656e7453776170546f6b656e73496e0000000000000000000000000060208201526100d7906102ca565b6101405260408051808201909152601481527f63757272656e7453776170546f6b656e734f75740000000000000000000000006020820152610118906102ca565b6101605260408051808201909152601981527f63757272656e7453776170546f6b656e496e416d6f756e7473000000000000006020820152610159906102ca565b6101805260408051808201909152601a81527f63757272656e7453776170546f6b656e4f7574416d6f756e7473000000000000602082015261019a906102ca565b6101a05260408051808201909152601381527f736574746c6564546f6b656e416d6f756e74730000000000000000000000000060208201526101db906102ca565b6101c0523480156101ea575f5ffd5b5060405161569c38038061569c8339810160408190526102099161033e565b6001600160a01b03841660a0528383838383838383838383838061022c81610304565b50506001600160a01b0391821660e052166101008190521561012052506105ea9b505050505050505050505050565b5f60ff5f1b196001848460405160200161027692919061043f565b604051602081830303815290604052805190602001205f1c610298919061048d565b6040516020016102aa91815260200190565b604051602081830303815290604052805190602001201690505b92915050565b5f6102c4604051806040016040526011815280602001702130ba31b42937baba32b921b7b6b6b7b760791b8152508361025b60201b60201c565b5f61030f8282610530565b5050565b6001600160a01b0381168114610327575f5ffd5b50565b634e487b7160e01b5f52604160045260245ffd5b5f5f5f5f60808587031215610351575f5ffd5b845161035c81610313565b602086015190945061036d81610313565b604086015190935061037e81610313565b60608601519092506001600160401b03811115610399575f5ffd5b8501601f810187136103a9575f5ffd5b80516001600160401b038111156103c2576103c261032a565b604051601f8201601f19908116603f011681016001600160401b03811182821017156103f0576103f061032a565b604052818152828201602001891015610407575f5ffd5b8160208401602083015e5f6020838301015280935050505092959194509250565b5f81518060208401855e5f93019283525090919050565b7f62616c616e6365722d6c6162732e76332e73746f726167652e0000000000000081525f6104706019830185610428565b601760f91b81526104846001820185610428565b95945050505050565b818103818111156102c457634e487b7160e01b5f52601160045260245ffd5b600181811c908216806104c057607f821691505b6020821081036104de57634e487b7160e01b5f52602260045260245ffd5b50919050565b601f82111561052b57805f5260205f20601f840160051c810160208510156105095750805b601f840160051c820191505b81811015610528575f8155600101610515565b50505b505050565b81516001600160401b038111156105495761054961032a565b61055d8161055784546104ac565b846104e4565b6020601f82116001811461058f575f83156105785750848201515b5f19600385901b1c1916600184901b178455610528565b5f84815260208120601f198516915b828110156105be578785015182556020948501946001909201910161059e565b50848210156105db57868401515f19600387901b60f8161c191681555b50505050600190811b01905550565b60805160a05160c05160e05161010051610120516101405161016051610180516101a0516101c051614eb96107e35f395f6118d601525f61191501525f61198801525f61181101525f61194f01525f818161036a01528181610947015281816112f4015281816114800152818161150b015281816119ac01528181611d4e015281816125e101528181612ef801528181613047015281816131c90152818161377e01526138c401525f81816101ae0152818161112a015281816123470152818161271801526132ce01525f818160ca01528181610153015281816119dc01528181611b5801528181611b96015281816122bb01526122f901525f61135501525f8181610285015281816103e401528181610593015281816107f201528181610ae101528181610c1f01528181611a3d01528181611bb701528181611bf40152818161231a0152818161237701528181612401015281816124a00152818161261c015281816126ab015281816127e10152818161286801528181612999015281816129e701528181612ad401528181612b6001528181612f3f015281816130be0152818161314c015281816132040152818161329301528181613365015281816134be015281816134fa01528181613595015281816135e3015281816136f0015281816137c30152613a8601525f6113310152614eb95ff3fe6080604052600436106100ba575f3560e01c806308a465f61461010e578063107c279f1461014557806319c6989f146101805780631bbf2e23146101a0578063286f580d146101d25780632950286e146101e557806354fd4d50146102045780635a3c3987146102255780635e01eb5a146102445780638a12a08c146102585780638d928af8146102775780638eb1b65e146102a9578063945ed33f146102bc578063ac9650d8146102db578063e3b5dff4146102ee575f5ffd5b3661010a57336001600160a01b037f00000000000000000000000000000000000000000000000000000000000000001614610108576040516302a06efb60e11b815260040160405180910390fd5b005b5f5ffd5b348015610119575f5ffd5b5061012d610128366004613c2c565b61030d565b60405161013c93929190613cac565b60405180910390f35b348015610150575f5ffd5b507f00000000000000000000000000000000000000000000000000000000000000005b60405161013c9190613d15565b61019361018e366004613dfd565b610366565b60405161013c9190613f20565b3480156101ab575f5ffd5b507f0000000000000000000000000000000000000000000000000000000000000000610173565b61012d6101e03660046141fe565b6103d0565b3480156101f0575f5ffd5b5061012d6101ff366004614280565b610540565b34801561020f575f5ffd5b506102186106ef565b60405161013c91906142f7565b348015610230575f5ffd5b5061012d61023f366004613c2c565b61077e565b34801561024f575f5ffd5b506101736107ab565b348015610263575f5ffd5b5061012d610272366004613c2c565b6107c0565b348015610282575f5ffd5b507f0000000000000000000000000000000000000000000000000000000000000000610173565b61012d6102b73660046141fe565b6107de565b3480156102c7575f5ffd5b5061012d6102d6366004613c2c565b6108dd565b6101936102e9366004614309565b6108fb565b3480156102f9575f5ffd5b5061012d610308366004614280565b610a97565b606080606061031a610bcd565b610322610c14565b61032b84610c68565b919450925090506103576103426020860186614347565b6103526080870160608801614362565b610dbe565b61035f610ed1565b9193909250565b60607f0000000000000000000000000000000000000000000000000000000000000000156103a7576040516329a270f560e01b815260040160405180910390fd5b6103b68a8a8a8a8a8a8a610ee8565b6103c083836108fb565b90505b9998505050505050505050565b6060806060335f6103e0826111a4565b90507f00000000000000000000000000000000000000000000000000000000000000006001600160a01b03166348c894916040518060a00160405280336001600160a01b031681526020018d81526020018c81526020018b151581526020018a8a8080601f0160208091040260200160405190810160405280939291908181526020018383808284375f9201919091525050509152506040516104869190602401614419565b60408051601f198184030181529181526020820180516001600160e01b031663045232fb60e11b179052516001600160e01b031960e084901b1681526104cf91906004016142f7565b5f604051808303815f875af11580156104ea573d5f5f3e3d5ffd5b505050506040513d5f823e601f3d908101601f191682016040526105119190810190614532565b80602001905181019061052491906145c8565b945094509450610533816111d8565b5050955095509592505050565b6060806060855f610550826111a4565b90505f5b8951811015610590576001600160801b0380168a8281518110610579576105796146b7565b602090810291909101015160400152600101610554565b507f00000000000000000000000000000000000000000000000000000000000000006001600160a01b031663edfa35686040518060a00160405280306001600160a01b031681526020018c81526020015f1981526020015f151581526020018a8a8080601f0160208091040260200160405190810160405280939291908181526020018383808284375f92019190915250505091525060405161063691906024016146cb565b60408051601f198184030181529181526020820180516001600160e01b0316635a3c398760e01b179052516001600160e01b031960e084901b16815261067f91906004016142f7565b5f604051808303815f875af115801561069a573d5f5f3e3d5ffd5b505050506040513d5f823e601f3d908101601f191682016040526106c19190810190614532565b8060200190518101906106d491906145c8565b9450945094506106e3816111d8565b50509450945094915050565b60605f80546106fd9061473c565b80601f01602080910402602001604051908101604052809291908181526020018280546107299061473c565b80156107745780601f1061074b57610100808354040283529160200191610774565b820191905f5260205f20905b81548152906001019060200180831161075757829003601f168201915b5050505050905090565b606080606061078b610bcd565b610793610c14565b61079c846111ed565b9194509250905061035f610ed1565b5f6107bb6107b761132f565b5c90565b905090565b60608060606107cd610bcd565b6107d5610c14565b61079c84610c68565b6060806060335f6107ee826111a4565b90507f00000000000000000000000000000000000000000000000000000000000000006001600160a01b03166348c894916040518060a00160405280336001600160a01b031681526020018d81526020018c81526020018b151581526020018a8a8080601f0160208091040260200160405190810160405280939291908181526020018383808284375f92019190915250505091525060405161089491906024016146cb565b60408051601f198184030181529181526020820180516001600160e01b031663945ed33f60e01b179052516001600160e01b031960e084901b1681526104cf91906004016142f7565b60608060606108ea610bcd565b6108f2610c14565b61032b846111ed565b60605f610907336111a4565b90506109146107b7611353565b1561093257604051633ee5aeb560e01b815260040160405180910390fd5b610945600161093f611353565b90611377565b7f000000000000000000000000000000000000000000000000000000000000000015610984576040516329a270f560e01b815260040160405180910390fd5b826001600160401b0381111561099c5761099c613f83565b6040519080825280602002602001820160405280156109cf57816020015b60608152602001906001900390816109ba5790505b5091505f5b83811015610a6257610a3d308686848181106109f2576109f26146b7565b9050602002810190610a04919061476e565b8080601f0160208091040260200160405190810160405280939291908181526020018383808284375f9201919091525061137e92505050565b838281518110610a4f57610a4f6146b7565b60209081029190910101526001016109d4565b50610a6f5f61093f611353565b5f610a7b6107b761132f565b9050610a86826111d8565b610a8f816113f2565b505092915050565b6060806060855f610aa7826111a4565b90505f5b8951811015610ade575f8a8281518110610ac757610ac76146b7565b602090810291909101015160600152600101610aab565b507f00000000000000000000000000000000000000000000000000000000000000006001600160a01b031663edfa35686040518060a00160405280306001600160a01b031681526020018c81526020015f1981526020015f151581526020018a8a8080601f0160208091040260200160405190810160405280939291908181526020018383808284375f920191909152505050915250604051610b849190602401614419565b60408051601f198184030181529181526020820180516001600160e01b0316632284a82360e21b179052516001600160e01b031960e084901b16815261067f91906004016142f7565b5f516020614e645f395f51905f525c15610bfa57604051633ee5aeb560e01b815260040160405180910390fd5b610c1260015f516020614e645f395f51905f5261093f565b565b336001600160a01b037f00000000000000000000000000000000000000000000000000000000000000001614610c12573360405163089676d560e01b8152600401610c5f9190613d15565b60405180910390fd5b60608060608360400135421115610c9257604051630e08b8af60e41b815260040160405180910390fd5b610c9b8461142a565b9250610cad610ca861180f565b611833565b915081516001600160401b03811115610cc857610cc8613f83565b604051908082528060200260200182016040528015610cf1578160200160208202803683370190505b5090505f5b8251811015610db6575f610d2b848381518110610d1557610d156146b7565b6020026020010151610d256118d4565b906118f8565b905080610d53858481518110610d4357610d436146b7565b6020026020010151610d25611913565b610d5d91906147c4565b838381518110610d6f57610d6f6146b7565b60209081029190910101528015610dad57610dad848381518110610d9557610d956146b7565b60200260200101515f610da66118d4565b9190611937565b50600101610cf6565b509193909250565b5f610dcf610dca61194d565b611971565b90505f610ddd610dca61180f565b90505f610deb6001846147d7565b90505b5f8112610e58575f610e0882610e0261194d565b9061197b565b90505f610e1782610d25611986565b9050610e25878784846119aa565b610e32825f610da6611986565b610e4482610e3e61194d565b90611abb565b50505080610e51906147f6565b9050610dee565b505f610e656001836147d7565b90505b5f8112610ec1575f610e7c82610e0261180f565b9050610e958682610e8f84610d25611913565b88611b48565b610ea2815f610da6611913565b610eae81610e3e61180f565b505080610eba906147f6565b9050610e68565b50610ecb846113f2565b50505050565b610c125f5f516020614e645f395f51905f5261093f565b610ef0610bcd565b610efa8685611c60565b5f5b868110156110ff575f868683818110610f1757610f176146b7565b9050602002810190610f29919061476e565b8080601f0160208091040260200160405190810160405280939291908181526020018383808284375f920182905250939450610f6a9250849150611c809050565b90505f8a8a85818110610f7f57610f7f6146b7565b905060c00201803603810190610f959190614811565b8051602080830151606084015160a08501516040808901518951958a0151915163d505accf60e01b81526001600160a01b0395861660048201523060248201526044810194909452606484019290925260ff909116608483015260a482019390935260c481019290925292935091169063d505accf9060e4015f604051808303815f87803b158015611025575f5ffd5b505af1925050508015611036575060015b6110f1573d808015611063576040519150601f19603f3d011682016040523d82523d5f602084013e611068565b606091505b50606082015182516020840151604051636eb1769f60e11b81526001600160a01b039092169163dd62ed3e916110a29130906004016148a2565b602060405180830381865afa1580156110bd573d5f5f3e3d5ffd5b505050506040513d601f19601f820116820180604052508101906110e191906148bc565b146110ef576110ef81611ccf565b505b505050806001019050610efc565b505f61110b84806148d3565b9050111561119357604051632a2d80d160e01b81526001600160a01b037f00000000000000000000000000000000000000000000000000000000000000001690632a2d80d190611165903390879087908790600401614955565b5f604051808303815f87803b15801561117c575f5ffd5b505af115801561118e573d5f5f3e3d5ffd5b505050505b61119b610ed1565b50505050505050565b5f5f6111b16107b761132f565b90506001600160a01b0381166111d2576111cd8361093f61132f565b600191505b50919050565b80156111ea576111ea5f61093f61132f565b50565b6060806060836040013542111561121757604051630e08b8af60e41b815260040160405180910390fd5b61122084611cf8565b925061122d610ca861194d565b915081516001600160401b0381111561124857611248613f83565b604051908082528060200260200182016040528015611271578160200160208202803683370190505b5090505f5b8251811015610db6575f838281518110611292576112926146b7565b602002602001015190505f6112a982610d256118d4565b9050806112b883610d25611986565b6112c291906147c4565b8484815181106112d4576112d46146b7565b602090810291909101015280156112f2576112f2825f610da66118d4565b7f00000000000000000000000000000000000000000000000000000000000000001561132557611325825f610da6611986565b5050600101611276565b7f000000000000000000000000000000000000000000000000000000000000000090565b7f000000000000000000000000000000000000000000000000000000000000000090565b80825d5050565b60605f5f846001600160a01b03168460405161139a9190614a8a565b5f60405180830381855af49150503d805f81146113d2576040519150601f19603f3d011682016040523d82523d5f602084013e6113d7565b606091505b50915091506113e78583836120c7565b925050505b92915050565b475f8190036113ff575050565b61140a6107b7611353565b15611413575050565b6114266001600160a01b03831682612113565b5050565b60606114396020830183614aa0565b90506001600160401b0381111561145257611452613f83565b60405190808252806020026020018201604052801561147b578160200160208202803683370190505b5090507f0000000000000000000000000000000000000000000000000000000000000000156114ad576114ad826121ad565b5f5b6114bc6020840184614aa0565b90508110156111d2575f6114d36020850185614aa0565b838181106114e3576114e36146b7565b90506020028101906114f59190614ae5565b6114fe90614b03565b60408101518151919250907f000000000000000000000000000000000000000000000000000000000000000015155f036115b75782602001515f81518110611548576115486146b7565b602002602001015160400151801561155f57503215155b156115905761158b6115746020880188614347565b828461158660808b0160608c01614362565b6122b1565b6115b7565b6115a28161159c61194d565b9061243a565b506115b781836115b0611986565b9190612478565b5f5b836020015151811015611800575f60018560200151516115d99190614b0e565b8214905081155f826115eb575f6115f1565b86606001515b90505f5f8860200151868151811061160b5761160b6146b7565b6020026020010151905080604001511561163b57611634815f01518883602001518b878a61249d565b91506117bb565b805f01516001600160a01b0316876001600160a01b0316036116cd5761163461166760808e018e61476e565b8080601f0160208091040260200160405190810160405280939291908181526020018383808284375f81840152601f19601f820116905080830192505050505050508d5f0160208101906116bb9190614347565b835160208501518b908d898b8d6125bb565b805f01516001600160a01b031681602001516001600160a01b031603611762576116346116fd60808e018e61476e565b8080601f0160208091040260200160405190810160405280939291908181526020018383808284375f81840152601f19601f820116905080830192505050505050508d5f0160208101906117519190614347565b835160208501518b908d898c612986565b6117b861177260808e018e61476e565b8080601f0160208091040260200160405190810160405280939291908181526020018383808284375f9201919091525050845160208601519092508b91508c888b612b5d565b91505b84156117e557818b8b815181106117d4576117d46146b7565b6020026020010181815250506117f0565b819750806020015196505b50505050508060010190506115b9565b505050508060010190506114af565b7f000000000000000000000000000000000000000000000000000000000000000090565b60605f61183f83612c68565b9050806001600160401b0381111561185957611859613f83565b604051908082528060200260200182016040528015611882578160200160208202803683370190505b5091505f5b818110156118cd5761189b81855b90612c70565b8382815181106118ad576118ad6146b7565b6001600160a01b0390921660209283029190910190910152600101611887565b5050919050565b7f000000000000000000000000000000000000000000000000000000000000000090565b5f61190c6107b76119098585612c8e565b90565b9392505050565b7f000000000000000000000000000000000000000000000000000000000000000090565b6119488161093f6119098686612c8e565b505050565b7f000000000000000000000000000000000000000000000000000000000000000090565b5f6113ec82612c68565b5f61190c8284611895565b7f000000000000000000000000000000000000000000000000000000000000000090565b7f00000000000000000000000000000000000000000000000000000000000000001580611a105750828015611a1057507f00000000000000000000000000000000000000000000000000000000000000006001600160a01b0316826001600160a01b0316145b15611a2657611a21848383866122b1565b610ecb565b6040516315afd40960e01b81526001600160a01b037f000000000000000000000000000000000000000000000000000000000000000016906315afd40990611a749085908590600401614b21565b6020604051808303815f875af1158015611a90573d5f5f3e3d5ffd5b505050506040513d601f19601f82011682018060405250810190611ab491906148bc565b5050505050565b5f80611aca8360018601610d25565b90508015611b38575f1981015f6001611ae287612c68565b039050808214611b14575f611af78783612c9f565b9050611b04878483612cc3565b611b12818560018a01610da6565b505b611b1d86612ce7565b50611b2c855f60018901610da6565b600193505050506113ec565b5f9150506113ec565b5092915050565b8115610ecb57808015611b8c57507f00000000000000000000000000000000000000000000000000000000000000006001600160a01b0316836001600160a01b0316145b15611bdd57611a217f00000000000000000000000000000000000000000000000000000000000000007f00000000000000000000000000000000000000000000000000000000000000008685612d28565b60405163ae63932960e01b81526001600160a01b037f0000000000000000000000000000000000000000000000000000000000000000169063ae63932990611c2d90869088908790600401614b3a565b5f604051808303815f87803b158015611c44575f5ffd5b505af1158015611c56573d5f5f3e3d5ffd5b5050505050505050565b8082146114265760405163aaad13f760e01b815260040160405180910390fd5b611ca460405180606001604052805f81526020015f81526020015f60ff1681525090565b602082810151604080850151606090950151918452918301939093525f9290921a9181019190915290565b805115611cdf5780518082602001fd5b60405163a728568960e01b815260040160405180910390fd5b6060611d076020830183614aa0565b90506001600160401b03811115611d2057611d20613f83565b604051908082528060200260200182016040528015611d49578160200160208202803683370190505b5090507f000000000000000000000000000000000000000000000000000000000000000015611d7b57611d7b82612dee565b5f5b611d8a6020840184614aa0565b90508110156111d2575f611da16020850185614aa0565b83818110611db157611db16146b7565b9050602002810190611dc39190614ae5565b611dcc90614b03565b6060810151815191925090611de39061159c61194d565b505f6001836020015151611df79190614b0e565b90505b5f81126120b9575f83602001518281518110611e1857611e186146b7565b602002602001015190505f825f1490505f6001866020015151611e3b9190614b0e565b841490508015611e5357611e53836020015186612edb565b5f5f8315611e6957505060408601518651611ea2565b60208801516001600160801b039250611e836001886147d7565b81518110611e9357611e936146b7565b60200260200101516020015190505b5f856040015115611eeb57611ee4611ebd60208e018e614347565b8d6060016020810190611ed09190614362565b88518c5160408e015187908e908a8d612ef5565b9050612074565b855f01516001600160a01b0316826001600160a01b031603611f7d57611ee4611f1760808e018e61476e565b8080601f0160208091040260200160405190810160405280939291908181526020018383808284375f81840152601f19601f820116905080830192505050505050508d5f016020810190611f6b9190614347565b885f0151858c888c602001518c61309d565b855f01516001600160a01b031686602001516001600160a01b03160361201357611ee4611fad60808e018e61476e565b8080601f0160208091040260200160405190810160405280939291908181526020018383808284375f81840152601f19601f820116905080830192505050505050508d5f0160208101906120019190614347565b885160208a015186908d898b8d613581565b61207161202360808e018e61476e565b8080601f0160208091040260200160405190810160405280939291908181526020018383808284375f9201919091525050895160208b015160408f0151919350879250908d9089908c6137c0565b90505b841561209e57808b8b8151811061208d5761208d6146b7565b6020026020010181815250506120a2565b8097505b505050505050806120b2906147f6565b9050611dfa565b505050806001019050611d7d565b6060826120dc576120d7826138f6565b61190c565b81511580156120f357506001600160a01b0384163b155b15611b415783604051639996b31560e01b8152600401610c5f9190613d15565b8047101561213d5760405163cf47918160e01b815247600482015260248101829052604401610c5f565b5f826001600160a01b0316826040515f6040518083038185875af1925050503d805f8114612186576040519150601f19603f3d011682016040523d82523d5f602084013e61218b565b606091505b50509050806119485760405163d6bda27560e01b815260040160405180910390fd5b5f5b6121bc6020830183614aa0565b905081101561222d575f6121d36020840184614aa0565b838181106121e3576121e36146b7565b90506020028101906121f59190614ae5565b6121fe90614b03565b905061220f815f015161159c61194d565b50612224815f015182604001516115b0611986565b506001016121af565b505f61223a610ca861194d565b90505f5b8151811015611948575f82828151811061225a5761225a6146b7565b602002602001015190505f61227182610d25611986565b905061229a6122836020870187614347565b6122936080880160608901614362565b84846119aa565b6122a7825f610da6611986565b505060010161223e565b8080156122ef57507f00000000000000000000000000000000000000000000000000000000000000006001600160a01b0316836001600160a01b0316145b1561233f57611a217f00000000000000000000000000000000000000000000000000000000000000007f00000000000000000000000000000000000000000000000000000000000000008461391f565b8115610ecb577f00000000000000000000000000000000000000000000000000000000000000006001600160a01b03166336c78516857f000000000000000000000000000000000000000000000000000000000000000061239f86613a14565b876040518563ffffffff1660e01b81526004016123bf9493929190614b5e565b5f604051808303815f87803b1580156123d6575f5ffd5b505af11580156123e8573d5f5f3e3d5ffd5b50506040516315afd40960e01b81526001600160a01b037f00000000000000000000000000000000000000000000000000000000000000001692506315afd4099150611a749086908690600401614b21565b5f6124458383613a1e565b612471576124538383613a35565b6124698261246085612c68565b60018601610da6565b5060016113ec565b505f6113ec565b6119488161248685856118f8565b61249091906147c4565b61093f6119098686612c8e565b5f7f00000000000000000000000000000000000000000000000000000000000000006001600160a01b03166343583be56040518060a001604052805f60018111156124ea576124ea614b89565b8152602001896001600160a01b03168b6001600160a01b03161461250e575f612511565b60015b600181111561252257612522614b89565b81526020018a6001600160a01b03168152602001878152602001868152506040518263ffffffff1660e01b815260040161255c9190614bad565b6060604051808303815f875af1158015612578573d5f5f3e3d5ffd5b505050506040513d601f19601f8201168201806040525081019061259c9190614c00565b925050821590506125b1576125b18582612edb565b9695505050505050565b5f82156127ca575f851180156125da57506001600160a01b0389163014155b1561279e577f000000000000000000000000000000000000000000000000000000000000000015612716576040516315afd40960e01b81526001600160a01b037f000000000000000000000000000000000000000000000000000000000000000016906315afd40990612653908a908990600401614b21565b6020604051808303815f875af115801561266f573d5f5f3e3d5ffd5b505050506040513d601f19601f8201168201806040525081019061269391906148bc565b5060405163ae63932960e01b81526001600160a01b037f0000000000000000000000000000000000000000000000000000000000000000169063ae639329906126e4908a9030908a90600401614b3a565b5f604051808303815f87803b1580156126fb575f5ffd5b505af115801561270d573d5f5f3e3d5ffd5b5050505061279e565b7f00000000000000000000000000000000000000000000000000000000000000006001600160a01b03166336c785168a3061275089613a14565b8b6040518563ffffffff1660e01b81526004016127709493929190614b5e565b5f604051808303815f87803b158015612787575f5ffd5b505af1158015612799573d5f5f3e3d5ffd5b505050505b5f6127ab88610d25611986565b11156127c5576127c587866127be611986565b9190613a68565b612848565b60405163ae63932960e01b81526001600160a01b037f0000000000000000000000000000000000000000000000000000000000000000169063ae6393299061281a908b9030908a90600401614b3a565b5f604051808303815f87803b158015612831575f5ffd5b505af1158015612843573d5f5f3e3d5ffd5b505050505b5f806128628a89881561285b5788613a80565b6001613a80565b915091507f00000000000000000000000000000000000000000000000000000000000000006001600160a01b031663214578976040518060c001604052808d6001600160a01b03168152602001306001600160a01b031681526020018a8152602001858152602001600160038111156128dd576128dd614b89565b81526020018f8152506040518263ffffffff1660e01b81526004016129029190614c2b565b5f604051808303815f875af115801561291d573d5f5f3e3d5ffd5b505050506040513d5f823e601f3d908101601f191682016040526129449190810190614cad565b5080519093508391508290811061295d5761295d6146b7565b602002602001015192508315612977576129778884612edb565b50509998505050505050505050565b5f5f612993888887613a80565b5090505f7f00000000000000000000000000000000000000000000000000000000000000006001600160a01b0316634af29ec46040518060c001604052808c6001600160a01b0316815260200187612a0b577f0000000000000000000000000000000000000000000000000000000000000000612a0d565b8d5b6001600160a01b031681526020810186905260408101899052606001600181526020018e8152506040518263ffffffff1660e01b8152600401612a509190614d11565b5f604051808303815f875af1158015612a6b573d5f5f3e3d5ffd5b505050506040513d5f823e601f3d908101601f19168201604052612a929190810190614d6f565b509150508315612abd5786612aa98161159c61180f565b50612ab781836115b06118d4565b50612b4d565b6040516315afd40960e01b81526001600160a01b037f000000000000000000000000000000000000000000000000000000000000000016906315afd40990612b0b908c908590600401614b21565b6020604051808303815f875af1158015612b27573d5f5f3e3d5ffd5b505050506040513d601f19601f82011682018060405250810190612b4b91906148bc565b505b9150505b98975050505050505050565b5f7f00000000000000000000000000000000000000000000000000000000000000006001600160a01b0316632bfb780c6040518060e001604052805f6001811115612baa57612baa614b89565b81526020018a6001600160a01b03168152602001896001600160a01b03168152602001886001600160a01b031681526020018781526020018681526020018b8152506040518263ffffffff1660e01b8152600401612c089190614dc6565b6060604051808303815f875af1158015612c24573d5f5f3e3d5ffd5b505050506040513d601f19601f82011682018060405250810190612c489190614c00565b92505082159050612c5d57612c5d8582612edb565b979650505050505050565b5f815c6113ec565b5f61190c6107b761190984612c8a875f9081526020902090565b0190565b5f9081526020919091526040902090565b5f612caa8383613b80565b61190c6107b761190984612c8a875f9081526020902090565b612ccd8383613b80565b6119488161093f61190985612c8a885f9081526020902090565b5f80612cf56001845c614b0e565b9050612d01818461093f565b5f612d1861190983612c8a875f9081526020902090565b9050805c92506118cd815f611377565b60405163ae63932960e01b81526001600160a01b0384169063ae63932990612d5890879030908690600401614b3a565b5f604051808303815f87803b158015612d6f575f5ffd5b505af1158015612d81573d5f5f3e3d5ffd5b5050604051632e1a7d4d60e01b8152600481018490526001600160a01b0387169250632e1a7d4d91506024015f604051808303815f87803b158015612dc4575f5ffd5b505af1158015612dd6573d5f5f3e3d5ffd5b50610ecb925050506001600160a01b03831682612113565b5f5b612dfd6020830183614aa0565b9050811015612e6e575f612e146020840184614aa0565b83818110612e2457612e246146b7565b9050602002810190612e369190614ae5565b612e3f90614b03565b9050612e50815f015161159c61194d565b50612e65815f015182604001516115b0611986565b50600101612df0565b505f612e7b610ca861194d565b90505f5b8151811015611948575f828281518110612e9b57612e9b6146b7565b602002602001015190505f612eb282610d25611986565b9050612ec46122836020870187614347565b612ed1825f610da6611986565b5050600101612e7f565b612ee78261159c61180f565b5061142682826115b0611913565b5f7f0000000000000000000000000000000000000000000000000000000000000000158015612f215750815b8015612f2c57503215155b15612f3d57612f3d8a87868c6122b1565b7f00000000000000000000000000000000000000000000000000000000000000006001600160a01b03166343583be56040518060a00160405280600180811115612f8957612f89614b89565b8152602001896001600160a01b03168c6001600160a01b031614612fad575f612fb0565b60015b6001811115612fc157612fc1614b89565b81526020018b6001600160a01b03168152602001888152602001868152506040518263ffffffff1660e01b8152600401612ffb9190614bad565b6060604051808303815f875af1158015613017573d5f5f3e3d5ffd5b505050506040513d601f19601f8201168201806040525081019061303b9190614c00565b5091505081156103c3577f00000000000000000000000000000000000000000000000000000000000000001561307d5761307887826115b0611986565b61308a565b61308a87826115b06118d4565b6103c3866130988386614b0e565b612edb565b5f81151581036131b757604051634b3c384960e11b81526001600160a01b037f000000000000000000000000000000000000000000000000000000000000000016906396787092906130f3908990600401613d15565b602060405180830381865afa15801561310e573d5f5f3e3d5ffd5b505050506040513d601f19601f8201168201806040525081019061313291906148bc565b60405163ae63932960e01b81529094506001600160a01b037f0000000000000000000000000000000000000000000000000000000000000000169063ae63932990613185908a9030908990600401614b3a565b5f604051808303815f87803b15801561319c575f5ffd5b505af11580156131ae573d5f5f3e3d5ffd5b50505050613354565b6001600160a01b0388163014613354577f0000000000000000000000000000000000000000000000000000000000000000156132cc576040516315afd40960e01b81526001600160a01b037f000000000000000000000000000000000000000000000000000000000000000016906315afd4099061323b9089908890600401614b21565b6020604051808303815f875af1158015613257573d5f5f3e3d5ffd5b505050506040513d601f19601f8201168201806040525081019061327b91906148bc565b5060405163ae63932960e01b81526001600160a01b037f0000000000000000000000000000000000000000000000000000000000000000169063ae6393299061318590899030908990600401614b3a565b7f00000000000000000000000000000000000000000000000000000000000000006001600160a01b03166336c78516893061330688613a14565b8a6040518563ffffffff1660e01b81526004016133269493929190614b5e565b5f604051808303815f87803b15801561333d575f5ffd5b505af115801561334f573d5f5f3e3d5ffd5b505050505b5f613360888588613a80565b5090507f00000000000000000000000000000000000000000000000000000000000000006001600160a01b031663214578976040518060c001604052808b6001600160a01b03168152602001306001600160a01b03168152602001888152602001848152602001600260038111156133da576133da614b89565b81526020018d8152506040518263ffffffff1660e01b81526004016133ff9190614c2b565b5f604051808303815f875af115801561341a573d5f5f3e3d5ffd5b505050506040513d5f823e601f3d908101601f191682016040526134419190810190614cad565b5090925050821561349a5761345987836115b06118d4565b848210801561347157506001600160a01b0389163014155b1561349557613495896134848488614b0e565b6001600160a01b038a169190613ba2565b613574565b84821015613574575f6134ad8387614b0e565b90506134e36001600160a01b0389167f000000000000000000000000000000000000000000000000000000000000000083613ba2565b6040516315afd40960e01b81526001600160a01b037f000000000000000000000000000000000000000000000000000000000000000016906315afd40990613531908b908590600401614b21565b6020604051808303815f875af115801561354d573d5f5f3e3d5ffd5b505050506040513d601f19601f8201168201806040525081019061357191906148bc565b50505b5098975050505050505050565b5f5f5f61358f8a8a88613a80565b915091507f00000000000000000000000000000000000000000000000000000000000000006001600160a01b0316634af29ec46040518060c001604052808d6001600160a01b0316815260200188613607577f0000000000000000000000000000000000000000000000000000000000000000613609565b8e5b6001600160a01b0316815260208101869052604081018b9052606001600281526020018f8152506040518263ffffffff1660e01b815260040161364c9190614d11565b5f604051808303815f875af1158015613667573d5f5f3e3d5ffd5b505050506040513d5f823e601f3d908101601f1916820160405261368e9190810190614d6f565b905050809250508181815181106136a7576136a76146b7565b602002602001015192505f846136bd57836136bf565b875b905085156136d9576136d489826127be611913565b613769565b6040516315afd40960e01b81526001600160a01b037f000000000000000000000000000000000000000000000000000000000000000016906315afd40990613727908e908590600401614b21565b6020604051808303815f875af1158015613743573d5f5f3e3d5ffd5b505050506040513d601f19601f8201168201806040525081019061376791906148bc565b505b84156137b05761377c8a856115b0611986565b7f0000000000000000000000000000000000000000000000000000000000000000156137b0576137b08a613098868a614b0e565b5050509998505050505050505050565b5f7f00000000000000000000000000000000000000000000000000000000000000006001600160a01b0316632bfb780c6040518060e0016040528060018081111561380d5761380d614b89565b81526020018b6001600160a01b031681526020018a6001600160a01b03168152602001896001600160a01b031681526020018881526020018781526020018c8152506040518263ffffffff1660e01b815260040161386b9190614dc6565b6060604051808303815f875af1158015613887573d5f5f3e3d5ffd5b505050506040513d601f19601f820116820180604052508101906138ab9190614c00565b509150508115612b51576138c287826115b0611986565b7f000000000000000000000000000000000000000000000000000000000000000015612b5157612b51876130988386614b0e565b8051156139065780518082602001fd5b60405163d6bda27560e01b815260040160405180910390fd5b804710156139405760405163500d4efb60e11b815260040160405180910390fd5b826001600160a01b031663d0e30db0826040518263ffffffff1660e01b81526004015f604051808303818588803b158015613979575f5ffd5b505af115801561398b573d5f5f3e3d5ffd5b506139a6935050506001600160a01b03851690508383613ba2565b6040516315afd40960e01b81526001600160a01b038316906315afd409906139d49086908590600401614b21565b6020604051808303815f875af11580156139f0573d5f5f3e3d5ffd5b505050506040513d601f19601f82011682018060405250810190610ecb91906148bc565b5f6113ec82613bad565b5f613a2c8260018501610d25565b15159392505050565b5f825c9050613a548261093f61190984612c8a885f9081526020902090565b611948613a628260016147c4565b8461093f565b61194881613a7685856118f8565b6124909190614b0e565b60605f5f7f00000000000000000000000000000000000000000000000000000000000000006001600160a01b031663c9c1661b87876040518363ffffffff1660e01b8152600401613ad29291906148a2565b6040805180830381865afa158015613aec573d5f5f3e3d5ffd5b505050506040513d601f19601f82011682018060405250810190613b109190614e41565b92509050806001600160401b03811115613b2c57613b2c613f83565b604051908082528060200260200182016040528015613b55578160200160208202803683370190505b50925083838381518110613b6b57613b6b6146b7565b60200260200101818152505050935093915050565b815c808210611948576040516303d2b83960e21b815260040160405180910390fd5b611948838383613bc5565b5f600160a01b8210613bc157613bc1613c0f565b5090565b816014528060345263a9059cbb60601b5f5260205f604460105f875af18060015f511416613c0557803d853b151710613c05576390b8ec185f526004601cfd5b505f603452505050565b6335278d125f526004601cfd5b5f60a082840312156111d2575f5ffd5b5f60208284031215613c3c575f5ffd5b81356001600160401b03811115613c51575f5ffd5b613c5d84828501613c1c565b949350505050565b5f8151808452602084019350602083015f5b82811015613c95578151865260209586019590910190600101613c77565b5093949350505050565b6001600160a01b03169052565b606081525f613cbe6060830186613c65565b82810360208401528085518083526020830191506020870192505f5b81811015613d015783516001600160a01b0316835260209384019390920191600101613cda565b50508381036040850152612c5d8186613c65565b6001600160a01b0391909116815260200190565b5f5f83601f840112613d39575f5ffd5b5081356001600160401b03811115613d4f575f5ffd5b60208301915083602060c083028501011115613d69575f5ffd5b9250929050565b5f5f83601f840112613d80575f5ffd5b5081356001600160401b03811115613d96575f5ffd5b6020830191508360208260051b8501011115613d69575f5ffd5b5f606082840312156111d2575f5ffd5b5f5f83601f840112613dd0575f5ffd5b5081356001600160401b03811115613de6575f5ffd5b602083019150836020828501011115613d69575f5ffd5b5f5f5f5f5f5f5f5f5f60a08a8c031215613e15575f5ffd5b89356001600160401b03811115613e2a575f5ffd5b613e368c828d01613d29565b909a5098505060208a01356001600160401b03811115613e54575f5ffd5b613e608c828d01613d70565b90985096505060408a01356001600160401b03811115613e7e575f5ffd5b613e8a8c828d01613db0565b95505060608a01356001600160401b03811115613ea5575f5ffd5b613eb18c828d01613dc0565b90955093505060808a01356001600160401b03811115613ecf575f5ffd5b613edb8c828d01613d70565b915080935050809150509295985092959850929598565b5f81518084528060208401602086015e5f602082860101526020601f19601f83011685010191505092915050565b5f602082016020835280845180835260408501915060408160051b8601019250602086015f5b82811015613f7757603f19878603018452613f62858351613ef2565b94506020938401939190910190600101613f46565b50929695505050505050565b634e487b7160e01b5f52604160045260245ffd5b604051608081016001600160401b0381118282101715613fb957613fb9613f83565b60405290565b604051606081016001600160401b0381118282101715613fb957613fb9613f83565b604051601f8201601f191681016001600160401b038111828210171561400957614009613f83565b604052919050565b5f6001600160401b0382111561402957614029613f83565b5060051b60200190565b6001600160a01b03811681146111ea575f5ffd5b803561405281614033565b919050565b80358015158114614052575f5ffd5b5f60808284031215614076575f5ffd5b61407e613f97565b9050813561408b81614033565b815260208201356001600160401b038111156140a5575f5ffd5b8201601f810184136140b5575f5ffd5b80356140c86140c382614011565b613fe1565b808282526020820191506020606084028501019250868311156140e9575f5ffd5b6020840193505b828410156141545760608488031215614107575f5ffd5b61410f613fbf565b843561411a81614033565b8152602085013561412a81614033565b602082015261413b60408601614057565b60408201528252606093909301926020909101906140f0565b60208501525050506040828101359082015260609182013591810191909152919050565b5f82601f830112614187575f5ffd5b8135602083015f61419a6140c384614011565b83815260059390931b820192905060208101868411156141b8575f5ffd5b825b848110156141f25780356001600160401b038111156141d7575f5ffd5b6141e389828701614066565b835250602091820191016141ba565b50909695505050505050565b5f5f5f5f5f60808688031215614212575f5ffd5b85356001600160401b03811115614227575f5ffd5b61423388828901614178565b9550506020860135935061424960408701614057565b925060608601356001600160401b03811115614263575f5ffd5b61426f88828901613dc0565b969995985093965092949392505050565b5f5f5f5f60608587031215614293575f5ffd5b84356001600160401b038111156142a8575f5ffd5b6142b487828801614178565b94505060208501356142c581614033565b925060408501356001600160401b038111156142df575f5ffd5b6142eb87828801613dc0565b95989497509550505050565b602081525f61190c6020830184613ef2565b5f5f6020838503121561431a575f5ffd5b82356001600160401b0381111561432f575f5ffd5b61433b85828601613d70565b90969095509350505050565b5f60208284031215614357575f5ffd5b813561190c81614033565b5f60208284031215614372575f5ffd5b61190c82614057565b80516001600160a01b03168252602080820151608082850181905281519085018190525f929190910190829060a08601905b808310156143f857835180516001600160a01b0390811684526020808301519091168185015260409182015115159184019190915290930192600192909201916060909101906143ad565b50604085015160408701526060850151606087015280935050505092915050565b602080825282516001600160a01b0316828201528281015160a06040840152805160c084018190525f9260e0600583901b86018101939091019190850190845b8181101561448a5760df1987860301835261447585855161437b565b94506020938401939290920191600101614459565b505050506040840151606084015260608401516144ab608085018215159052565b506080840151838203601f190160a08501526113e78282613ef2565b5f82601f8301126144d6575f5ffd5b81516001600160401b038111156144ef576144ef613f83565b614502601f8201601f1916602001613fe1565b818152846020838601011115614516575f5ffd5b8160208501602083015e5f918101602001919091529392505050565b5f60208284031215614542575f5ffd5b81516001600160401b03811115614557575f5ffd5b613c5d848285016144c7565b5f82601f830112614572575f5ffd5b81516145806140c382614011565b8082825260208201915060208360051b8601019250858311156145a1575f5ffd5b602085015b838110156145be5780518352602092830192016145a6565b5095945050505050565b5f5f5f606084860312156145da575f5ffd5b83516001600160401b038111156145ef575f5ffd5b6145fb86828701614563565b602086015190945090506001600160401b03811115614618575f5ffd5b8401601f81018613614628575f5ffd5b80516146366140c382614011565b8082825260208201915060208360051b850101925088831115614657575f5ffd5b6020840193505b8284101561468257835161467181614033565b82526020938401939091019061465e565b6040880151909550925050506001600160401b038111156146a1575f5ffd5b6146ad86828701614563565b9150509250925092565b634e487b7160e01b5f52603260045260245ffd5b602080825282516001600160a01b0316828201528281015160a06040840152805160c084018190525f9260e0600583901b86018101939091019190850190845b8181101561448a5760df1987860301835261472785855161437b565b9450602093840193929092019160010161470b565b600181811c9082168061475057607f821691505b6020821081036111d257634e487b7160e01b5f52602260045260245ffd5b5f5f8335601e19843603018112614783575f5ffd5b8301803591506001600160401b0382111561479c575f5ffd5b602001915036819003821315613d69575f5ffd5b634e487b7160e01b5f52601160045260245ffd5b808201808211156113ec576113ec6147b0565b8181035f831280158383131683831282161715611b4157611b416147b0565b5f600160ff1b820161480a5761480a6147b0565b505f190190565b5f60c0828403128015614822575f5ffd5b5060405160c081016001600160401b038111828210171561484557614845613f83565b604052823561485381614033565b8152602083013561486381614033565b6020820152604083013561487681614033565b6040820152606083810135908201526080808401359082015260a0928301359281019290925250919050565b6001600160a01b0392831681529116602082015260400190565b5f602082840312156148cc575f5ffd5b5051919050565b5f5f8335601e198436030181126148e8575f5ffd5b8301803591506001600160401b03821115614901575f5ffd5b6020019150600781901b3603821315613d69575f5ffd5b803565ffffffffffff81168114614052575f5ffd5b81835281816020850137505f828201602090810191909152601f909101601f19169091010190565b6001600160a01b0385168152606060208201525f60c08201853536879003601e19018112614981575f5ffd5b86016020810190356001600160401b0381111561499c575f5ffd5b8060071b36038213156149ad575f5ffd5b60608581015291829052905f9060e085015b81831015614a3e5783356149d281614033565b6001600160a01b0316815260208401356149eb81614033565b6001600160a01b0316602082015265ffffffffffff614a0c60408601614918565b16604082015265ffffffffffff614a2560608601614918565b16606082015260809384019360019390930192016149bf565b614a4a60208a01614047565b9350614a596080870185613c9f565b5f9350604089013593508360a08701528581036040870152614a7c81888a61492d565b9a9950505050505050505050565b5f82518060208501845e5f920191825250919050565b5f5f8335601e19843603018112614ab5575f5ffd5b8301803591506001600160401b03821115614ace575f5ffd5b6020019150600581901b3603821315613d69575f5ffd5b5f8235607e19833603018112614af9575f5ffd5b9190910192915050565b5f6113ec3683614066565b818103818111156113ec576113ec6147b0565b6001600160a01b03929092168252602082015260400190565b6001600160a01b039384168152919092166020820152604081019190915260600190565b6001600160a01b03948516815292841660208401529083166040830152909116606082015260800190565b634e487b7160e01b5f52602160045260245ffd5b600281106111ea576111ea614b89565b815160a0820190614bbd81614b9d565b82526020830151614bcd81614b9d565b60208301526040838101516001600160a01b03169083015260608084015190830152608092830151929091019190915290565b5f5f5f60608486031215614c12575f5ffd5b5050815160208301516040909301519094929350919050565b6020815260018060a01b03825116602082015260018060a01b036020830151166040820152604082015160608201525f606083015160c06080840152614c7460e0840182613c65565b9050608084015160048110614c8b57614c8b614b89565b8060a08501525060a0840151601f198483030160c08501526113e78282613ef2565b5f5f5f60608486031215614cbf575f5ffd5b835160208501519093506001600160401b03811115614cdc575f5ffd5b614ce886828701614563565b604086015190935090506001600160401b03811115614d05575f5ffd5b6146ad868287016144c7565b602080825282516001600160a01b0390811683830152908301511660408083019190915282015160c060608301525f90614d4e60e0840182613c65565b905060608401516080840152608084015160058110614c8b57614c8b614b89565b5f5f5f60608486031215614d81575f5ffd5b83516001600160401b03811115614d96575f5ffd5b614da286828701614563565b60208601516040870151919550935090506001600160401b03811115614d05575f5ffd5b602081525f8251614dd681614b9d565b8060208401525060018060a01b03602084015116604083015260018060a01b0360408401511660608301526060830151614e136080840182613c9f565b50608083015160a083015260a083015160c083015260c083015160e080840152613c5d610100840182613ef2565b5f5f60408385031215614e52575f5ffd5b50508051602090910151909290915056fe9b779b17422d0df92223018b32b4d1fa46e071723d6817e2486d003becc55f00a26469706673582212204cac6ccb53b6046e8dd7a512001f9723d8dc46680183e2312ba460186588663164736f6c634300081e0033","linkReferences":{}},"methodIdentifiers":{"getPermit2()":"1bbf2e23","getSender()":"5e01eb5a","getVault()":"8d928af8","getWeth()":"107c279f","multicall(bytes[])":"ac9650d8","permitBatchAndCall((address,address,address,uint256,uint256,uint256)[],bytes[],((address,uint160,uint48,uint48)[],address,uint256),bytes,bytes[])":"19c6989f","querySwapExactIn((address,(address,address,bool)[],uint256,uint256)[],address,bytes)":"e3b5dff4","querySwapExactInHook((address,(address,(address,address,bool)[],uint256,uint256)[],uint256,bool,bytes))":"8a12a08c","querySwapExactOut((address,(address,address,bool)[],uint256,uint256)[],address,bytes)":"2950286e","querySwapExactOutHook((address,(address,(address,address,bool)[],uint256,uint256)[],uint256,bool,bytes))":"5a3c3987","swapExactIn((address,(address,address,bool)[],uint256,uint256)[],uint256,bool,bytes)":"286f580d","swapExactInHook((address,(address,(address,address,bool)[],uint256,uint256)[],uint256,bool,bytes))":"08a465f6","swapExactOut((address,(address,address,bool)[],uint256,uint256)[],uint256,bool,bytes)":"8eb1b65e","swapExactOutHook((address,(address,(address,address,bool)[],uint256,uint256)[],uint256,bool,bytes))":"945ed33f","version()":"54fd4d50"},"id":329}