{"abi":[{"type":"function","name":"donate","inputs":[{"name":"pool","type":"address","internalType":"address"},{"name":"donationAmounts","type":"uint256[]","internalType":"uint256[]"},{"name":"userData","type":"bytes","internalType":"bytes"}],"outputs":[],"stateMutability":"nonpayable"},{"type":"function","name":"donateHook","inputs":[{"name":"params","type":"tuple","internalType":"struct ICowRouter.DonateHookParams","components":[{"name":"pool","type":"address","internalType":"address"},{"name":"sender","type":"address","internalType":"address"},{"name":"donationAmounts","type":"uint256[]","internalType":"uint256[]"},{"name":"userData","type":"bytes","internalType":"bytes"}]}],"outputs":[],"stateMutability":"nonpayable"},{"type":"function","name":"facetFuncs","inputs":[],"outputs":[{"name":"funcs","type":"bytes4[]","internalType":"bytes4[]"}],"stateMutability":"pure"},{"type":"function","name":"facetInterfaces","inputs":[],"outputs":[{"name":"interfaces","type":"bytes4[]","internalType":"bytes4[]"}],"stateMutability":"pure"},{"type":"function","name":"facetMetadata","inputs":[],"outputs":[{"name":"name_","type":"string","internalType":"string"},{"name":"interfaces","type":"bytes4[]","internalType":"bytes4[]"},{"name":"functions","type":"bytes4[]","internalType":"bytes4[]"}],"stateMutability":"pure"},{"type":"function","name":"facetName","inputs":[],"outputs":[{"name":"name","type":"string","internalType":"string"}],"stateMutability":"pure"},{"type":"function","name":"getCollectedProtocolFees","inputs":[{"name":"token","type":"address","internalType":"contract IERC20"}],"outputs":[{"name":"fees","type":"uint256","internalType":"uint256"}],"stateMutability":"view"},{"type":"function","name":"getFeeSweeper","inputs":[],"outputs":[{"name":"feeSweeper","type":"address","internalType":"address"}],"stateMutability":"view"},{"type":"function","name":"getMaxProtocolFeePercentage","inputs":[],"outputs":[{"name":"","type":"uint256","internalType":"uint256"}],"stateMutability":"pure"},{"type":"function","name":"getProtocolFeePercentage","inputs":[],"outputs":[{"name":"protocolFeePercentage","type":"uint256","internalType":"uint256"}],"stateMutability":"view"},{"type":"function","name":"setFeeSweeper","inputs":[{"name":"newFeeSweeper","type":"address","internalType":"address"}],"outputs":[],"stateMutability":"nonpayable"},{"type":"function","name":"setProtocolFeePercentage","inputs":[{"name":"newProtocolFeePercentage","type":"uint256","internalType":"uint256"}],"outputs":[],"stateMutability":"nonpayable"},{"type":"function","name":"swapAndDonateSurplusHook","inputs":[{"name":"swapAndDonateParams","type":"tuple","internalType":"struct ICowRouter.SwapAndDonateHookParams","components":[{"name":"pool","type":"address","internalType":"address"},{"name":"sender","type":"address","internalType":"address"},{"name":"swapKind","type":"uint8","internalType":"enum SwapKind"},{"name":"swapTokenIn","type":"address","internalType":"contract IERC20"},{"name":"swapTokenOut","type":"address","internalType":"contract IERC20"},{"name":"swapAmountGiven","type":"uint256","internalType":"uint256"},{"name":"swapLimit","type":"uint256","internalType":"uint256"},{"name":"swapDeadline","type":"uint256","internalType":"uint256"},{"name":"donationAmounts","type":"uint256[]","internalType":"uint256[]"},{"name":"transferAmountHints","type":"uint256[]","internalType":"uint256[]"},{"name":"userData","type":"bytes","internalType":"bytes"}]}],"outputs":[{"name":"swapAmountIn","type":"uint256","internalType":"uint256"},{"name":"swapAmountOut","type":"uint256","internalType":"uint256"}],"stateMutability":"nonpayable"},{"type":"function","name":"swapExactInAndDonateSurplus","inputs":[{"name":"pool","type":"address","internalType":"address"},{"name":"swapTokenIn","type":"address","internalType":"contract IERC20"},{"name":"swapTokenOut","type":"address","internalType":"contract IERC20"},{"name":"swapExactAmountIn","type":"uint256","internalType":"uint256"},{"name":"swapMinAmountOut","type":"uint256","internalType":"uint256"},{"name":"swapDeadline","type":"uint256","internalType":"uint256"},{"name":"donationAmounts","type":"uint256[]","internalType":"uint256[]"},{"name":"transferAmountHints","type":"uint256[]","internalType":"uint256[]"},{"name":"userData","type":"bytes","internalType":"bytes"}],"outputs":[{"name":"exactAmountOut","type":"uint256","internalType":"uint256"}],"stateMutability":"nonpayable"},{"type":"function","name":"swapExactOutAndDonateSurplus","inputs":[{"name":"pool","type":"address","internalType":"address"},{"name":"swapTokenIn","type":"address","internalType":"contract IERC20"},{"name":"swapTokenOut","type":"address","internalType":"contract IERC20"},{"name":"swapMaxAmountIn","type":"uint256","internalType":"uint256"},{"name":"swapExactAmountOut","type":"uint256","internalType":"uint256"},{"name":"swapDeadline","type":"uint256","internalType":"uint256"},{"name":"donationAmounts","type":"uint256[]","internalType":"uint256[]"},{"name":"transferAmountHints","type":"uint256[]","internalType":"uint256[]"},{"name":"userData","type":"bytes","internalType":"bytes"}],"outputs":[{"name":"exactAmountIn","type":"uint256","internalType":"uint256"}],"stateMutability":"nonpayable"},{"type":"function","name":"withdrawCollectedProtocolFees","inputs":[{"name":"token","type":"address","internalType":"contract IERC20"}],"outputs":[],"stateMutability":"nonpayable"},{"type":"event","name":"CoWDonation","inputs":[{"name":"pool","type":"address","indexed":false,"internalType":"address"},{"name":"donationAfterFees","type":"uint256[]","indexed":false,"internalType":"uint256[]"},{"name":"protocolFeeAmounts","type":"uint256[]","indexed":false,"internalType":"uint256[]"},{"name":"userData","type":"bytes","indexed":false,"internalType":"bytes"}],"anonymous":false},{"type":"event","name":"CoWSwapAndDonation","inputs":[{"name":"pool","type":"address","indexed":false,"internalType":"address"},{"name":"swapTokenIn","type":"address","indexed":false,"internalType":"contract IERC20"},{"name":"swapTokenOut","type":"address","indexed":false,"internalType":"contract IERC20"},{"name":"swapAmountIn","type":"uint256","indexed":false,"internalType":"uint256"},{"name":"swapAmountOut","type":"uint256","indexed":false,"internalType":"uint256"},{"name":"donationAfterFees","type":"uint256[]","indexed":false,"internalType":"uint256[]"},{"name":"protocolFeeAmounts","type":"uint256[]","indexed":false,"internalType":"uint256[]"},{"name":"userData","type":"bytes","indexed":false,"internalType":"bytes"}],"anonymous":false},{"type":"event","name":"FeeSweeperChanged","inputs":[{"name":"newFeeSweeper","type":"address","indexed":false,"internalType":"address"}],"anonymous":false},{"type":"event","name":"ProtocolFeePercentageChanged","inputs":[{"name":"newProtocolFeePercentage","type":"uint256","indexed":false,"internalType":"uint256"}],"anonymous":false},{"type":"event","name":"ProtocolFeesWithdrawn","inputs":[{"name":"token","type":"address","indexed":false,"internalType":"contract IERC20"},{"name":"feeSweeper","type":"address","indexed":false,"internalType":"address"},{"name":"amountWithdrawn","type":"uint256","indexed":false,"internalType":"uint256"}],"anonymous":false},{"type":"error","name":"InsufficientFunds","inputs":[{"name":"token","type":"address","internalType":"contract IERC20"},{"name":"senderCredits","type":"uint256","internalType":"uint256"},{"name":"senderDebits","type":"uint256","internalType":"uint256"}]},{"type":"error","name":"InvalidFeeSweeper","inputs":[]},{"type":"error","name":"InvalidFeeSweeper","inputs":[]},{"type":"error","name":"NotBalancerV3Vault","inputs":[{"name":"caller","type":"address","internalType":"address"}]},{"type":"error","name":"ProtocolFeePercentageAboveLimit","inputs":[{"name":"newProtocolFeePercentage","type":"uint256","internalType":"uint256"},{"name":"maxProtocolFeePercentage","type":"uint256","internalType":"uint256"}]},{"type":"error","name":"ProtocolFeePercentageAboveLimit","inputs":[{"name":"newProtocolFeePercentage","type":"uint256","internalType":"uint256"},{"name":"maxProtocolFeePercentage","type":"uint256","internalType":"uint256"}]},{"type":"error","name":"SenderNotAllowed","inputs":[]},{"type":"error","name":"SwapDeadline","inputs":[]}],"bytecode":{"object":"0x6080604052348015600e575f5ffd5b506126e48061001c5f395ff3fe608060405234801561000f575f5ffd5b50600436106100ce575f3560e01c80632ea80826146100d2578063393cda9e146100f05780633c902945146101055780634c65a5b314610126578063574a4cff14610139578063591b7655146101415780635a28ac20146101545780635b6f4d01146101675780635c6e74c71461017c57806369f10de4146101915780636abe431a146101a4578063706d9f78146101b75780637aaa14aa146101bf5780637c255999146101cd578063d8a5e936146101f5578063f10d7a7514610208575b5f5ffd5b6100da61021f565b6040516100e7919061191e565b60405180910390f35b6101036100fe366004611954565b610277565b005b610118610113366004611b1f565b61028e565b6040519081526020016100e7565b610118610134366004611954565b6103d4565b6100da6103e4565b61011861014f366004611b1f565b610680565b610103610162366004611bf7565b6107c7565b61016f6108c1565b6040516100e79190611c99565b6101846108e9565b6040516100e79190611cb8565b61010361019f366004611ccc565b6108f7565b6101036101b2366004611954565b610a44565b610118610ab5565b6706f05b59d3b20000610118565b6101e06101db366004611d9d565b610abe565b604080519283526020830191909152016100e7565b610103610203366004611ed5565b610e0c565b610210610e1f565b6040516100e793929190611eec565b60408051600180825281830190925260609160208083019080368337019050509050632b92364960e21b815f8151811061025b5761025b611f2e565b6001600160e01b03199092166020928302919091019091015290565b3061028181610e47565b61028a82610e86565b5050565b5f3061029981610e47565b5f6102a2610e9a565b60408051610160810182526001600160a01b038f81168252336020830152929350918316916348c894919181015f81526020018e6001600160a01b031681526020018d6001600160a01b031681526020018c81526020018b81526020018a8152602001898152602001888152602001878152506040516024016103259190611f9a565b60408051601f198184030181529181526020820180516001600160e01b0316637c25599960e01b179052516001600160e01b031960e084901b16815261036e9190600401611c99565b5f604051808303815f875af1158015610389573d5f5f3e3d5ffd5b505050506040513d5f823e601f3d908101601f191682016040526103b091908101906120ca565b8060200190518101906103c391906120fb565b9d9c50505050505050505050505050565b5f6103de82610ecd565b92915050565b60408051600c8082526101a08201909252606091602082016101808036833701905050905063706d9f7860e01b815f8151811061042357610423611f2e565b6001600160e01b0319909216602092830291909101909101528051633d550a5560e11b908290600190811061045a5761045a611f2e565b6001600160e01b0319909216602092830291909101909101528051634c65a5b360e01b908290600290811061049157610491611f2e565b6001600160e01b0319909216602092830291909101909101528051635c6e74c760e01b90829060039081106104c8576104c8611f2e565b6001600160e01b0319909216602092830291909101909101528051636c52f49b60e11b90829060049081106104ff576104ff611f2e565b6001600160e01b0319909216602092830291909101909101528051631c9e6d4f60e11b908290600590811061053657610536611f2e565b6001600160e01b0319909216602092830291909101909101528051633c90294560e01b908290600690811061056d5761056d611f2e565b6001600160e01b031990921660209283029190910190910152805163591b765560e01b90829060079081106105a4576105a4611f2e565b6001600160e01b03199092166020928302919091019091015280516302d1456160e51b90829060089081106105db576105db611f2e565b6001600160e01b031990921660209283029190910190910152805163355f218d60e11b908290600990811061061257610612611f2e565b6001600160e01b0319909216602092830291909101909101528051637c25599960e01b908290600a90811061064957610649611f2e565b6001600160e01b0319909216602092830291909101909101528051631a7c437960e21b908290600b90811061025b5761025b611f2e565b5f3061068b81610e47565b5f610694610e9a565b60408051610160810182526001600160a01b038f81168252336020830152929350918316916348c89491918101600181526020018e6001600160a01b031681526020018d6001600160a01b031681526020018b81526020018c81526020018a8152602001898152602001888152602001878152506040516024016107189190611f9a565b60408051601f198184030181529181526020820180516001600160e01b0316637c25599960e01b179052516001600160e01b031960e084901b1681526107619190600401611c99565b5f604051808303815f875af115801561077c573d5f5f3e3d5ffd5b505050506040513d5f823e601f3d908101601f191682016040526107a391908101906120ca565b8060200190518101906107b691906120fb565b509c9b505050505050505050505050565b306107d181610e47565b5f6107da610e9a565b9050806001600160a01b03166348c894916040518060800160405280886001600160a01b03168152602001336001600160a01b031681526020018781526020018681525060405160240161082e919061211d565b60408051601f198184030181529181526020820180516001600160e01b0316631a7c437960e21b179052516001600160e01b031960e084901b1681526108779190600401611c99565b5f604051808303815f875af1158015610892573d5f5f3e3d5ffd5b505050506040513d5f823e601f3d908101601f191682016040526108b991908101906120ca565b505050505050565b60408051808201909152600e81526d10dbddd49bdd5d195c919858d95d60921b602082015290565b5f6108f2610ef8565b905090565b6108ff610f04565b5f610908610e9a565b82516040516333f0703b60e11b81529192505f916001600160a01b038416916367e0e0769161093a9190600401611cb8565b5f60405180830381865afa158015610954573d5f5f3e3d5ffd5b505050506040513d5f823e601f3d908101601f1916820160405261097b9190810190612284565b50505090505f5f61099a84865f01518588604001518960600151610f4a565b915091506109fa848660200151858860400151858a60400151516001600160401b038111156109cb576109cb61196f565b6040519080825280602002602001820160405280156109f4578160200160208202803683370190505b50611176565b845160608601516040517fc56206447dc4bc6b8f64bed42b94c55ae291564fe0ed7676f387f8c23887aa3292610a359290918691869161239f565b60405180910390a15050505050565b5f610a4e82611354565b9050801561028a575f610a5f610ef8565b9050610a756001600160a01b0384168284611366565b7f8fc241308ffc17817e6a8c6a52a8f7cd4931dfca0c539fd35a630311c7e4c57b838284604051610aa8939291906123f3565b60405180910390a1505050565b5f6108f2611376565b5f5f610ac8610f04565b5f610ad1610e9a565b84516040516333f0703b60e11b81529192505f916001600160a01b038416916367e0e07691610b039190600401611cb8565b5f60405180830381865afa158015610b1d573d5f5f3e3d5ffd5b505050506040513d5f823e601f3d908101601f19168201604052610b449190810190612284565b50505090508460e00151421115610b6e57604051630e08b8af60e41b815260040160405180910390fd5b5f85604001516001811115610b8557610b85611f42565b03610c7d578460a001519350816001600160a01b0316632bfb780c6040518060e001604052805f6001811115610bbd57610bbd611f42565b8152602001885f01516001600160a01b0316815260200188606001516001600160a01b0316815260200188608001516001600160a01b031681526020018860a0015181526020018860c0015181526020018861014001518152506040518263ffffffff1660e01b8152600401610c339190612417565b6060604051808303815f875af1158015610c4f573d5f5f3e3d5ffd5b505050506040513d601f19601f82011682018060405250810190610c73919061248d565b9450610d6b915050565b8460a001519250816001600160a01b0316632bfb780c6040518060e00160405280600180811115610cb057610cb0611f42565b8152602001885f01516001600160a01b0316815260200188606001516001600160a01b0316815260200188608001516001600160a01b031681526020018860a0015181526020018860c0015181526020018861014001518152506040518263ffffffff1660e01b8152600401610d269190612417565b6060604051808303815f875af1158015610d42573d5f5f3e3d5ffd5b505050506040513d601f19601f82011682018060405250810190610d66919061248d565b509450505b5f5f610d8784885f0151858a61010001518b6101400151610f4a565b91509150610dae848860200151858a606001518b608001518b8b8e61012001518a8a611389565b7fff733223050308d0c920d58ee93cc7f1e4adab80ffcd6c88a28c7bfa7769dbe3875f015188606001518960800151898987878e6101400151604051610dfb9897969594939291906124b8565b60405180910390a150505050915091565b30610e1681610e47565b61028a8261155f565b6060806060610e2c6108c1565b9250610e3661021f565b9150610e406103e4565b9050909192565b5f610e5c5f356001600160e01b031916611570565b9050610e6981338461159b565b61028a576040516323dada5360e01b815260040160405180910390fd5b610e97610e91611684565b826116a8565b50565b5f6108f27f392e49ca1983749c4549242b814e6592e6c2354a2bb55242596ce0ad2e7b10015b546001600160a01b031690565b5f6103de610ed9611684565b836001600160a01b03165f908152600291909101602052604090205490565b5f6108f2610ec0611684565b610f0c610e9a565b6001600160a01b0316336001600160a01b031614610f4857336040516373ea3fad60e11b8152600401610f3f9190611cb8565b60405180910390fd5b565b60608083516001600160401b03811115610f6657610f6661196f565b604051908082528060200260200182016040528015610f8f578160200160208202803683370190505b50915083516001600160401b03811115610fab57610fab61196f565b604051908082528060200260200182016040528015610fd4578160200160208202803683370190505b5090505f5f610fe1611376565b90505f5b86518110156110c4575f88828151811061100157611001611f2e565b602002602001015190505f88838151811061101e5761101e611f2e565b602002602001015190505f61103c858361172390919063ffffffff16565b9050611048838261174f565b8087858151811061105b5761105b611f2e565b60209081029190910101526110708183612543565b88858151811061108257611082611f2e565b6020026020010181815250508784815181106110a0576110a0611f2e565b6020026020010151866110b39190612556565b95505060019092019150610fe59050565b50811561116a576040805160c0810182526001600160a01b038a811682523060208301528183018790525f60608301526003608083015260a0820188905291516312bca7b160e21b8152918b1691634af29ec49161112491600401612569565b5f604051808303815f875af115801561113f573d5f5f3e3d5ffd5b505050506040513d5f823e601f3d908101601f1916820160405261116691908101906125e9565b5050505b50509550959350505050565b5f5b845181101561134b575f85828151811061119457611194611f2e565b602002602001015190505f8583815181106111b1576111b1611f2e565b602002602001015190505f811115611235576040516315afd40960e01b81526001600160a01b038381166004830152602482018390528a16906315afd409906044016020604051808303815f875af115801561120f573d5f5f3e3d5ffd5b505050506040513d601f19601f82011682018060405250810190611233919061264c565b505b5f85848151811061124857611248611f2e565b602002602001015190505f8111156112b85760405163ae63932960e01b81526001600160a01b038b169063ae6393299061128a908690309086906004016123f3565b5f604051808303815f87803b1580156112a1575f5ffd5b505af11580156112b3573d5f5f3e3d5ffd5b505050505b5f8585815181106112cb576112cb611f2e565b602002602001015190505f81111561133b5760405163ae63932960e01b81526001600160a01b038c169063ae6393299061130d9087908e9086906004016123f3565b5f604051808303815f87803b158015611324575f5ffd5b505af1158015611336573d5f5f3e3d5ffd5b505050505b5050600190920191506111789050565b50505050505050565b5f6103de611360611684565b83611761565b6113718383836117a1565b505050565b5f6108f2611382611684565b6001015490565b5f88516001600160401b038111156113a3576113a361196f565b6040519080825280602002602001820160405280156113cc578160200160208202803683370190505b5090505f5b8951811015611543575f8582815181106113ed576113ed611f2e565b602002602001015190505f84838151811061140a5761140a611f2e565b602002602001015186848151811061142457611424611f2e565b60200260200101516114369190612556565b90508a6001600160a01b03168c848151811061145457611454611f2e565b60200260200101516001600160a01b03160361147b576114748982612556565b90506114ba565b896001600160a01b03168c848151811061149757611497611f2e565b60200260200101516001600160a01b0316036114ba576114b78883612556565b91505b80821015611512578b83815181106114d4576114d4611f2e565b6020908102919091010151604051632e2a182f60e11b81526001600160a01b0390911660048201526024810183905260448101829052606401610f3f565b61151c8183612543565b84848151811061152e5761152e611f2e565b602090810291909101015250506001016113d1565b506115528b8b8b878686611176565b5050505050505050505050565b610e9761156a611684565b826117eb565b5f6103de7f82340927aad1ca6b5f8bb0037567f287e1bec629ab302d4e1debbc0d7543b1f88361185c565b5f6115a4610e9a565b6001600160a01b031663aaabadc56040518163ffffffff1660e01b8152600401602060405180830381865afa1580156115df573d5f5f3e3d5ffd5b505050506040513d601f19601f820116820180604052508101906116039190612663565b6040516326f8aa2160e21b8152600481018690526001600160a01b03858116602483015284811660448301529190911690639be2a88490606401602060405180830381865afa158015611658573d5f5f3e3d5ffd5b505050506040513d601f19601f8201168201806040525081019061167c919061267e565b949350505050565b7f4686cee39c0edfd2fa0e5ee9fd4e399a203dac433a6e69091c8fa60bc3f755a290565b6001600160a01b0381166116cf576040516302d1ccf160e11b815260040160405180910390fd5b81546001600160a01b0319166001600160a01b0382161782556040517e8c8c9cbd834aa4bc9856555e4a6af6df7553b18a704a068adb69ea00a81d4d90611717908390611cb8565b60405180910390a15050565b5f8061172f8385612697565b90506001670de0b6b3a76400006001830304018115150291505092915050565b61028a61175a611684565b83836118a7565b6001600160a01b0381165f90815260028301602052604090205480156103de576001600160a01b0382165f90815260028401602052604081205592915050565b816014528060345263a9059cbb60601b5f5260205f604460105f875af18060015f5114166117e157803d853b1517106117e1576390b8ec185f526004601cfd5b505f603452505050565b6706f05b59d3b200008111156118255760405163e76c2b2360e01b8152600481018290526706f05b59d3b200006024820152604401610f3f565b600182018190556040518181527ff7887aa0e0216e820fdbb5a4442586a79fefd45648f0adc2bc91dcf6ed71724490602001611717565b5f6118a0611868845490565b6040805160208101929092526001600160e01b0319851690820152604401604051602081830303815290604052805160209091012090565b9392505050565b6001600160a01b0382165f908152600284016020526040812080548392906118d0908490612556565b9091555050505050565b5f8151808452602084019350602083015f5b828110156119145781516001600160e01b0319168652602095860195909101906001016118ec565b5093949350505050565b602081525f6118a060208301846118da565b6001600160a01b0381168114610e97575f5ffd5b803561194f81611930565b919050565b5f60208284031215611964575f5ffd5b81356118a081611930565b634e487b7160e01b5f52604160045260245ffd5b604051608081016001600160401b03811182821017156119a5576119a561196f565b60405290565b60405161016081016001600160401b03811182821017156119a5576119a561196f565b604051606081016001600160401b03811182821017156119a5576119a561196f565b604051601f8201601f191681016001600160401b0381118282101715611a1857611a1861196f565b604052919050565b5f6001600160401b03821115611a3857611a3861196f565b5060051b60200190565b5f82601f830112611a51575f5ffd5b8135611a64611a5f82611a20565b6119f0565b8082825260208201915060208360051b860101925085831115611a85575f5ffd5b602085015b83811015611aa2578035835260209283019201611a8a565b5095945050505050565b5f6001600160401b03821115611ac457611ac461196f565b50601f01601f191660200190565b5f82601f830112611ae1575f5ffd5b8135611aef611a5f82611aac565b818152846020838601011115611b03575f5ffd5b816020850160208301375f918101602001919091529392505050565b5f5f5f5f5f5f5f5f5f6101208a8c031215611b38575f5ffd5b611b418a611944565b9850611b4f60208b01611944565b9750611b5d60408b01611944565b965060608a0135955060808a0135945060a08a0135935060c08a01356001600160401b03811115611b8c575f5ffd5b611b988c828d01611a42565b93505060e08a01356001600160401b03811115611bb3575f5ffd5b611bbf8c828d01611a42565b9250506101008a01356001600160401b03811115611bdb575f5ffd5b611be78c828d01611ad2565b9150509295985092959850929598565b5f5f5f60608486031215611c09575f5ffd5b8335611c1481611930565b925060208401356001600160401b03811115611c2e575f5ffd5b611c3a86828701611a42565b92505060408401356001600160401b03811115611c55575f5ffd5b611c6186828701611ad2565b9150509250925092565b5f81518084528060208401602086015e5f602082860101526020601f19601f83011685010191505092915050565b602081525f6118a06020830184611c6b565b6001600160a01b03169052565b6001600160a01b0391909116815260200190565b5f60208284031215611cdc575f5ffd5b81356001600160401b03811115611cf1575f5ffd5b820160808185031215611d02575f5ffd5b611d0a611983565b8135611d1581611930565b81526020820135611d2581611930565b602082015260408201356001600160401b03811115611d42575f5ffd5b611d4e86828501611a42565b60408301525060608201356001600160401b03811115611d6c575f5ffd5b611d7886828501611ad2565b606083015250949350505050565b60028110610e97575f5ffd5b803561194f81611d86565b5f60208284031215611dad575f5ffd5b81356001600160401b03811115611dc2575f5ffd5b82016101608185031215611dd4575f5ffd5b611ddc6119ab565b611de582611944565b8152611df360208301611944565b6020820152611e0460408301611d92565b6040820152611e1560608301611944565b6060820152611e2660808301611944565b608082015260a0828101359082015260c0808301359082015260e080830135908201526101008201356001600160401b03811115611e62575f5ffd5b611e6e86828501611a42565b610100830152506101208201356001600160401b03811115611e8e575f5ffd5b611e9a86828501611a42565b610120830152506101408201356001600160401b03811115611eba575f5ffd5b611ec686828501611ad2565b61014083015250949350505050565b5f60208284031215611ee5575f5ffd5b5035919050565b606081525f611efe6060830186611c6b565b8281036020840152611f1081866118da565b90508281036040840152611f2481856118da565b9695505050505050565b634e487b7160e01b5f52603260045260245ffd5b634e487b7160e01b5f52602160045260245ffd5b60028110611f6657611f66611f42565b9052565b5f8151808452602084019350602083015f5b82811015611914578151865260209586019590910190600101611f7c565b60208152611fac602082018351611cab565b5f6020830151611fbf6040840182611cab565b506040830151611fd26060840182611f56565b506060830151611fe56080840182611cab565b506080830151611ff860a0840182611cab565b5060a083015160c083015260c083015160e083015260e0830151610100830152610100830151610160610120840152612035610180840182611f6a565b9050610120840151601f19848303016101408501526120548282611f6a565b915050610140840151601f19848303016101608501526120748282611c6b565b95945050505050565b5f82601f83011261208c575f5ffd5b815161209a611a5f82611aac565b8181528460208386010111156120ae575f5ffd5b8160208501602083015e5f918101602001919091529392505050565b5f602082840312156120da575f5ffd5b81516001600160401b038111156120ef575f5ffd5b61167c8482850161207d565b5f5f6040838503121561210c575f5ffd5b505080516020909101519092909150565b602080825282516001600160a01b03908116838301529083015116604080830191909152820151608060608301525f9061215a60a0840182611f6a565b90506060840151601f198483030160808501526120748282611c6b565b8051801515811461194f575f5ffd5b5f82601f830112612195575f5ffd5b81516121a3611a5f82611a20565b808282526020820191506020606084028601019250858311156121c4575f5ffd5b602085015b83811015611aa257606081880312156121e0575f5ffd5b6121e86119ce565b81516121f381611d86565b8152602082015161220381611930565b602082015261221460408301612177565b604082015283526020909201916060016121c9565b5f82601f830112612238575f5ffd5b8151612246611a5f82611a20565b8082825260208201915060208360051b860101925085831115612267575f5ffd5b602085015b83811015611aa257805183526020928301920161226c565b5f5f5f5f60808587031215612297575f5ffd5b84516001600160401b038111156122ac575f5ffd5b8501601f810187136122bc575f5ffd5b80516122ca611a5f82611a20565b8082825260208201915060208360051b8501019250898311156122eb575f5ffd5b6020840193505b8284101561231657835161230581611930565b8252602093840193909101906122f2565b6020890151909750925050506001600160401b03811115612335575f5ffd5b61234187828801612186565b604087015190945090506001600160401b0381111561235e575f5ffd5b61236a87828801612229565b606087015190935090506001600160401b03811115612387575f5ffd5b61239387828801612229565b91505092959194509250565b6001600160a01b03851681526080602082018190525f906123c290830186611f6a565b82810360408401526123d48186611f6a565b905082810360608401526123e88185611c6b565b979650505050505050565b6001600160a01b039384168152919092166020820152604081019190915260600190565b60208152612429602082018351611f56565b60018060a01b03602083015116604082015260018060a01b03604083015116606082015260018060a01b036060830151166080820152608082015160a082015260a082015160c08201525f60c083015160e08084015261167c610100840182611c6b565b5f5f5f6060848603121561249f575f5ffd5b5050815160208301516040909301519094929350919050565b6001600160a01b038981168252888116602083015287166040820152606081018690526080810185905261010060a082018190525f906124fa90830186611f6a565b82810360c084015261250c8186611f6a565b905082810360e08401526125208185611c6b565b9b9a5050505050505050505050565b634e487b7160e01b5f52601160045260245ffd5b818103818111156103de576103de61252f565b808201808211156103de576103de61252f565b602080825282516001600160a01b0390811683830152908301511660408083019190915282015160c060608301525f906125a660e0840182611f6a565b9050606084015160808401526080840151600581106125c7576125c7611f42565b8060a08501525060a0840151601f198483030160c08501526120748282611c6b565b5f5f5f606084860312156125fb575f5ffd5b83516001600160401b03811115612610575f5ffd5b61261c86828701612229565b60208601516040870151919550935090506001600160401b03811115612640575f5ffd5b611c618682870161207d565b5f6020828403121561265c575f5ffd5b5051919050565b5f60208284031215612673575f5ffd5b81516118a081611930565b5f6020828403121561268e575f5ffd5b6118a082612177565b80820281158282048414176103de576103de61252f56fea26469706673582212206bb96c7c5b799c3cd1b96111d7adc9a2395074a1348f3b906c5c4a90b0cd437264736f6c634300081e0033","linkReferences":{}},"methodIdentifiers":{"donate(address,uint256[],bytes)":"5a28ac20","donateHook((address,address,uint256[],bytes))":"69f10de4","facetFuncs()":"574a4cff","facetInterfaces()":"2ea80826","facetMetadata()":"f10d7a75","facetName()":"5b6f4d01","getCollectedProtocolFees(address)":"4c65a5b3","getFeeSweeper()":"5c6e74c7","getMaxProtocolFeePercentage()":"7aaa14aa","getProtocolFeePercentage()":"706d9f78","setFeeSweeper(address)":"393cda9e","setProtocolFeePercentage(uint256)":"d8a5e936","swapAndDonateSurplusHook((address,address,uint8,address,address,uint256,uint256,uint256,uint256[],uint256[],bytes))":"7c255999","swapExactInAndDonateSurplus(address,address,address,uint256,uint256,uint256,uint256[],uint256[],bytes)":"3c902945","swapExactOutAndDonateSurplus(address,address,address,uint256,uint256,uint256,uint256[],uint256[],bytes)":"591b7655","withdrawCollectedProtocolFees(address)":"6abe431a"},"id":898}