{"abi":[{"type":"constructor","inputs":[{"name":"_factory","type":"address","internalType":"address"},{"name":"_WETH9","type":"address","internalType":"address"},{"name":"_nonfungiblePositionManager","type":"address","internalType":"address"}],"stateMutability":"nonpayable"},{"type":"receive","stateMutability":"payable"},{"type":"function","name":"WETH9","inputs":[],"outputs":[{"name":"","type":"address","internalType":"address"}],"stateMutability":"view"},{"type":"function","name":"createAndInitializePoolIfNecessary","inputs":[{"name":"token0","type":"address","internalType":"address"},{"name":"token1","type":"address","internalType":"address"},{"name":"fee","type":"uint24","internalType":"uint24"},{"name":"sqrtPriceX96","type":"uint160","internalType":"uint160"}],"outputs":[{"name":"pool","type":"address","internalType":"address"}],"stateMutability":"payable"},{"type":"function","name":"factory","inputs":[],"outputs":[{"name":"","type":"address","internalType":"address"}],"stateMutability":"view"},{"type":"function","name":"migrate","inputs":[{"name":"params","type":"tuple","internalType":"struct IV3Migrator.MigrateParams","components":[{"name":"pair","type":"address","internalType":"address"},{"name":"liquidityToMigrate","type":"uint256","internalType":"uint256"},{"name":"percentageToMigrate","type":"uint8","internalType":"uint8"},{"name":"token0","type":"address","internalType":"address"},{"name":"token1","type":"address","internalType":"address"},{"name":"fee","type":"uint24","internalType":"uint24"},{"name":"tickLower","type":"int24","internalType":"int24"},{"name":"tickUpper","type":"int24","internalType":"int24"},{"name":"amount0Min","type":"uint256","internalType":"uint256"},{"name":"amount1Min","type":"uint256","internalType":"uint256"},{"name":"recipient","type":"address","internalType":"address"},{"name":"deadline","type":"uint256","internalType":"uint256"},{"name":"refundAsETH","type":"bool","internalType":"bool"}]}],"outputs":[],"stateMutability":"nonpayable"},{"type":"function","name":"multicall","inputs":[{"name":"data","type":"bytes[]","internalType":"bytes[]"}],"outputs":[{"name":"results","type":"bytes[]","internalType":"bytes[]"}],"stateMutability":"payable"},{"type":"function","name":"nonfungiblePositionManager","inputs":[],"outputs":[{"name":"","type":"address","internalType":"address"}],"stateMutability":"view"},{"type":"function","name":"selfPermit","inputs":[{"name":"token","type":"address","internalType":"address"},{"name":"value","type":"uint256","internalType":"uint256"},{"name":"deadline","type":"uint256","internalType":"uint256"},{"name":"v","type":"uint8","internalType":"uint8"},{"name":"r","type":"bytes32","internalType":"bytes32"},{"name":"s","type":"bytes32","internalType":"bytes32"}],"outputs":[],"stateMutability":"payable"},{"type":"function","name":"selfPermitAllowed","inputs":[{"name":"token","type":"address","internalType":"address"},{"name":"nonce","type":"uint256","internalType":"uint256"},{"name":"expiry","type":"uint256","internalType":"uint256"},{"name":"v","type":"uint8","internalType":"uint8"},{"name":"r","type":"bytes32","internalType":"bytes32"},{"name":"s","type":"bytes32","internalType":"bytes32"}],"outputs":[],"stateMutability":"payable"},{"type":"function","name":"selfPermitAllowedIfNecessary","inputs":[{"name":"token","type":"address","internalType":"address"},{"name":"nonce","type":"uint256","internalType":"uint256"},{"name":"expiry","type":"uint256","internalType":"uint256"},{"name":"v","type":"uint8","internalType":"uint8"},{"name":"r","type":"bytes32","internalType":"bytes32"},{"name":"s","type":"bytes32","internalType":"bytes32"}],"outputs":[],"stateMutability":"payable"},{"type":"function","name":"selfPermitIfNecessary","inputs":[{"name":"token","type":"address","internalType":"address"},{"name":"value","type":"uint256","internalType":"uint256"},{"name":"deadline","type":"uint256","internalType":"uint256"},{"name":"v","type":"uint8","internalType":"uint8"},{"name":"r","type":"bytes32","internalType":"bytes32"},{"name":"s","type":"bytes32","internalType":"bytes32"}],"outputs":[],"stateMutability":"payable"}],"bytecode":{"object":"0x60e060405234801561000f575f5ffd5b5060405161199338038061199383398101604081905261002e91610066565b6001600160a01b0392831660805290821660a0521660c0526100a6565b80516001600160a01b0381168114610061575f5ffd5b919050565b5f5f5f60608486031215610078575f5ffd5b6100818461004b565b925061008f6020850161004b565b915061009d6040850161004b565b90509250925092565b60805160a05160c05161187761011c5f395f81816101aa015281816109f301528181610a2d01528181610a560152610bed01525f818160930152818161014401528181610c4201528181610c9801528181610d750152610dcb01525f81816101f001528181610279015261031801526118775ff3fe608060405260043610610083575f3560e01c806313ead562146100f75780634659a494146101205780634aa4a4fc14610133578063a4a78f0c14610166578063ac9650d814610179578063b44a272214610199578063c2e3140a146101cc578063c45a0155146101df578063d44f2bf214610212578063f3995c6714610231575f5ffd5b366100f357336001600160a01b037f000000000000000000000000000000000000000000000000000000000000000016146100f15760405162461bcd60e51b81526020600482015260096024820152684e6f7420574554483960b81b60448201526064015b60405180910390fd5b005b5f5ffd5b61010a610105366004611183565b610244565b60405161011791906111e7565b60405180910390f35b6100f161012e366004611209565b6104cf565b34801561013e575f5ffd5b5061010a7f000000000000000000000000000000000000000000000000000000000000000081565b6100f1610174366004611209565b61055f565b61018c610187366004611261565b6105eb565b60405161011791906112fe565b3480156101a4575f5ffd5b5061010a7f000000000000000000000000000000000000000000000000000000000000000081565b6100f16101da366004611209565b610731565b3480156101ea575f5ffd5b5061010a7f000000000000000000000000000000000000000000000000000000000000000081565b34801561021d575f5ffd5b506100f161022c366004611361565b6107b4565b6100f161023f366004611209565b610e57565b5f836001600160a01b0316856001600160a01b031610610262575f5ffd5b604051630b4c774160e11b81526001600160a01b037f00000000000000000000000000000000000000000000000000000000000000001690631698ee82906102b29088908890889060040161137b565b602060405180830381865afa1580156102cd573d5f5f3e3d5ffd5b505050506040513d601f19601f820116820180604052508101906102f191906113a3565b90506001600160a01b0381166103f25760405163a167129560e01b81526001600160a01b037f0000000000000000000000000000000000000000000000000000000000000000169063a1671295906103519088908890889060040161137b565b6020604051808303815f875af115801561036d573d5f5f3e3d5ffd5b505050506040513d601f19601f8201168201806040525081019061039191906113a3565b60405163f637731d60e01b81529091506001600160a01b0382169063f637731d906103c09085906004016111e7565b5f604051808303815f87803b1580156103d7575f5ffd5b505af11580156103e9573d5f5f3e3d5ffd5b505050506104c7565b5f816001600160a01b0316633850c7bd6040518163ffffffff1660e01b815260040160e060405180830381865afa15801561042f573d5f5f3e3d5ffd5b505050506040513d601f19601f8201168201806040525081019061045391906113f1565b5050505050509050806001600160a01b03165f036104c55760405163f637731d60e01b81526001600160a01b0383169063f637731d906104979086906004016111e7565b5f604051808303815f87803b1580156104ae575f5ffd5b505af11580156104c0573d5f5f3e3d5ffd5b505050505b505b949350505050565b6040516323f2ebc360e21b815233600482015230602482015260448101869052606481018590526001608482015260ff841660a482015260c4810183905260e481018290526001600160a01b03871690638fcbaf0c90610104015b5f604051808303815f87803b158015610541575f5ffd5b505af1158015610553573d5f5f3e3d5ffd5b50505050505050505050565b604051636eb1769f60e11b81525f19906001600160a01b0388169063dd62ed3e90610590903390309060040161147e565b602060405180830381865afa1580156105ab573d5f5f3e3d5ffd5b505050506040513d601f19601f820116820180604052508101906105cf9190611498565b10156105e3576105e38686868686866104cf565b505050505050565b6060816001600160401b03811115610605576106056114af565b60405190808252806020026020018201604052801561063857816020015b60608152602001906001900390816106235790505b5090505f5b8281101561072a575f803086868581811061065a5761065a6114c3565b905060200281019061066c91906114d7565b60405161067a929190611520565b5f60405180830381855af49150503d805f81146106b2576040519150601f19603f3d011682016040523d82523d5f602084013e6106b7565b606091505b509150915081610702576044815110156106cf575f5ffd5b600481019050808060200190518101906106e9919061152f565b60405162461bcd60e51b81526004016100e891906115df565b80848481518110610715576107156114c3565b6020908102919091010152505060010161063d565b5092915050565b604051636eb1769f60e11b815285906001600160a01b0388169063dd62ed3e90610761903390309060040161147e565b602060405180830381865afa15801561077c573d5f5f3e3d5ffd5b505050506040513d601f19601f820116820180604052508101906107a09190611498565b10156105e3576105e3868686868686610e57565b5f6107c560608301604084016115f1565b60ff161161080c5760405162461bcd60e51b815260206004820152601460248201527314195c98d95b9d1859d9481d1bdbc81cdb585b1b60621b60448201526064016100e8565b606461081e60608301604084016115f1565b60ff1611156108665760405162461bcd60e51b815260206004820152601460248201527350657263656e7461676520746f6f206c6172676560601b60448201526064016100e8565b610873602082018261160c565b6001600160a01b03166323b872dd3361088f602085018561160c565b6040516001600160e01b031960e085901b1681526001600160a01b03928316600482015291166024820152602084013560448201526064016020604051808303815f875af11580156108e3573d5f5f3e3d5ffd5b505050506040513d601f19601f820116820180604052508101906109079190611627565b505f80610917602084018461160c565b6001600160a01b03166389afcb44306040518263ffffffff1660e01b815260040161094291906111e7565b60408051808303815f875af115801561095d573d5f5f3e3d5ffd5b505050506040513d601f19601f820116820180604052508101906109819190611642565b90925090505f606461099960608601604087016115f1565b6109a69060ff1685611678565b6109b09190611695565b90505f60646109c560608701604088016115f1565b6109d29060ff1685611678565b6109dc9190611695565b9050610a186109f1608087016060880161160c565b7f000000000000000000000000000000000000000000000000000000000000000084610eae565b610a52610a2b60a087016080880161160c565b7f000000000000000000000000000000000000000000000000000000000000000083610eae565b5f5f7f00000000000000000000000000000000000000000000000000000000000000006001600160a01b031663883164566040518061016001604052808a6060016020810190610aa2919061160c565b6001600160a01b03168152602001610ac060a08c0160808d0161160c565b6001600160a01b03168152602001610ade60c08c0160a08d016116b4565b62ffffff168152602001610af860e08c0160c08d016116cd565b60020b8152602001610b116101008c0160e08d016116cd565b60020b815260208101889052604081018790526101008b013560608201526101208b0135608082015260a001610b4f6101608c016101408d0161160c565b6001600160a01b031681526020018a61016001358152506040518263ffffffff1660e01b8152600401610b8291906116e8565b6080604051808303815f875af1158015610b9e573d5f5f3e3d5ffd5b505050506040513d601f19601f82011682018060405250810190610bc2919061179d565b93509350505085821015610d225783821015610c1257610c12610beb6080890160608a0161160c565b7f00000000000000000000000000000000000000000000000000000000000000005f610eae565b5f610c1d83886117e4565b9050610c316101a089016101808a016117f7565b8015610c7d57506001600160a01b037f000000000000000000000000000000000000000000000000000000000000000016610c7260808a0160608b0161160c565b6001600160a01b0316145b15610d0657604051632e1a7d4d60e01b8152600481018290527f00000000000000000000000000000000000000000000000000000000000000006001600160a01b031690632e1a7d4d906024015f604051808303815f87803b158015610ce1575f5ffd5b505af1158015610cf3573d5f5f3e3d5ffd5b50505050610d013382610fb3565b610d20565b610d20610d1960808a0160608b0161160c565b3383611057565b505b84811015610e4e5782811015610d4557610d45610beb60a0890160808a0161160c565b5f610d5082876117e4565b9050610d646101a089016101808a016117f7565b8015610db057506001600160a01b037f000000000000000000000000000000000000000000000000000000000000000016610da560a08a0160808b0161160c565b6001600160a01b0316145b15610e3957604051632e1a7d4d60e01b8152600481018290527f00000000000000000000000000000000000000000000000000000000000000006001600160a01b031690632e1a7d4d906024015f604051808303815f87803b158015610e14575f5ffd5b505af1158015610e26573d5f5f3e3d5ffd5b50505050610e343382610fb3565b610e4c565b610e4c610d1960a08a0160808b0161160c565b505b50505050505050565b60405163d505accf60e01b8152336004820152306024820152604481018690526064810185905260ff8416608482015260a4810183905260c481018290526001600160a01b0387169063d505accf9060e40161052a565b5f5f846001600160a01b031663095ea7b360e01b8585604051602401610ed5929190611812565b60408051601f198184030181529181526020820180516001600160e01b03166001600160e01b0319909416939093179092529051610f13919061182b565b5f604051808303815f865af19150503d805f8114610f4c576040519150601f19603f3d011682016040523d82523d5f602084013e610f51565b606091505b5091509150818015610f7b575080511580610f7b575080806020019051810190610f7b9190611627565b610fac5760405162461bcd60e51b8152602060048201526002602482015261534160f01b60448201526064016100e8565b5050505050565b604080515f808252602082019092526001600160a01b038416908390604051610fdc919061182b565b5f6040518083038185875af1925050503d805f8114611016576040519150601f19603f3d011682016040523d82523d5f602084013e61101b565b606091505b50509050806110525760405162461bcd60e51b815260206004820152600360248201526253544560e81b60448201526064016100e8565b505050565b5f5f846001600160a01b031663a9059cbb60e01b858560405160240161107e929190611812565b60408051601f198184030181529181526020820180516001600160e01b03166001600160e01b03199094169390931790925290516110bc919061182b565b5f604051808303815f865af19150503d805f81146110f5576040519150601f19603f3d011682016040523d82523d5f602084013e6110fa565b606091505b50915091508180156111245750805115806111245750808060200190518101906111249190611627565b610fac5760405162461bcd60e51b815260206004820152600260248201526114d560f21b60448201526064016100e8565b6001600160a01b0381168114611169575f5ffd5b50565b803562ffffff8116811461117e575f5ffd5b919050565b5f5f5f5f60808587031215611196575f5ffd5b84356111a181611155565b935060208501356111b181611155565b92506111bf6040860161116c565b915060608501356111cf81611155565b939692955090935050565b6001600160a01b03169052565b6001600160a01b0391909116815260200190565b60ff81168114611169575f5ffd5b5f5f5f5f5f5f60c0878903121561121e575f5ffd5b863561122981611155565b955060208701359450604087013593506060870135611247816111fb565b9598949750929560808101359460a0909101359350915050565b5f5f60208385031215611272575f5ffd5b82356001600160401b03811115611287575f5ffd5b8301601f81018513611297575f5ffd5b80356001600160401b038111156112ac575f5ffd5b8560208260051b84010111156112c0575f5ffd5b6020919091019590945092505050565b5f81518084528060208401602086015e5f602082860101526020601f19601f83011685010191505092915050565b5f602082016020835280845180835260408501915060408160051b8601019250602086015f5b8281101561135557603f198786030184526113408583516112d0565b94506020938401939190910190600101611324565b50929695505050505050565b5f6101a0828403128015611373575f5ffd5b509092915050565b6001600160a01b03938416815291909216602082015262ffffff909116604082015260600190565b5f602082840312156113b3575f5ffd5b81516113be81611155565b9392505050565b8060020b8114611169575f5ffd5b805161ffff8116811461117e575f5ffd5b8015158114611169575f5ffd5b5f5f5f5f5f5f5f60e0888a031215611407575f5ffd5b875161141281611155565b6020890151909750611423816113c5565b9550611431604089016113d3565b945061143f606089016113d3565b935061144d608089016113d3565b925060a088015161145d816111fb565b60c089015190925061146e816113e4565b8091505092959891949750929550565b6001600160a01b0392831681529116602082015260400190565b5f602082840312156114a8575f5ffd5b5051919050565b634e487b7160e01b5f52604160045260245ffd5b634e487b7160e01b5f52603260045260245ffd5b5f5f8335601e198436030181126114ec575f5ffd5b8301803591506001600160401b03821115611505575f5ffd5b602001915036819003821315611519575f5ffd5b9250929050565b818382375f9101908152919050565b5f6020828403121561153f575f5ffd5b81516001600160401b03811115611554575f5ffd5b8201601f81018413611564575f5ffd5b80516001600160401b0381111561157d5761157d6114af565b604051601f8201601f19908116603f011681016001600160401b03811182821017156115ab576115ab6114af565b6040528181528282016020018610156115c2575f5ffd5b8160208401602083015e5f91810160200191909152949350505050565b602081525f6113be60208301846112d0565b5f60208284031215611601575f5ffd5b81356113be816111fb565b5f6020828403121561161c575f5ffd5b81356113be81611155565b5f60208284031215611637575f5ffd5b81516113be816113e4565b5f5f60408385031215611653575f5ffd5b505080516020909101519092909150565b634e487b7160e01b5f52601160045260245ffd5b808202811582820484141761168f5761168f611664565b92915050565b5f826116af57634e487b7160e01b5f52601260045260245ffd5b500490565b5f602082840312156116c4575f5ffd5b6113be8261116c565b5f602082840312156116dd575f5ffd5b81356113be816113c5565b5f610160820190506116fb8284516111da565b602083015161170d60208401826111da565b506040830151611724604084018262ffffff169052565b506060830151611739606084018260020b9052565b50608083015161174e608084018260020b9052565b5060a083015160a083015260c083015160c083015260e083015160e083015261010083015161010083015261012083015161178d6101208401826111da565b5061014092830151919092015290565b5f5f5f5f608085870312156117b0575f5ffd5b845160208601519094506001600160801b03811681146117ce575f5ffd5b6040860151606090960151949790965092505050565b8181038181111561168f5761168f611664565b5f60208284031215611807575f5ffd5b81356113be816113e4565b6001600160a01b03929092168252602082015260400190565b5f82518060208501845e5f92019182525091905056fea264697066735822122008cfba2beedfc6dffec02da705ec3136be412c9bc36f1a607485af0fc5e395b264736f6c634300081e0033","linkReferences":{}},"methodIdentifiers":{"WETH9()":"4aa4a4fc","createAndInitializePoolIfNecessary(address,address,uint24,uint160)":"13ead562","factory()":"c45a0155","migrate((address,uint256,uint8,address,address,uint24,int24,int24,uint256,uint256,address,uint256,bool))":"d44f2bf2","multicall(bytes[])":"ac9650d8","nonfungiblePositionManager()":"b44a2722","selfPermit(address,uint256,uint256,uint8,bytes32,bytes32)":"f3995c67","selfPermitAllowed(address,uint256,uint256,uint8,bytes32,bytes32)":"4659a494","selfPermitAllowedIfNecessary(address,uint256,uint256,uint8,bytes32,bytes32)":"a4a78f0c","selfPermitIfNecessary(address,uint256,uint256,uint8,bytes32,bytes32)":"c2e3140a"},"id":1065}