{"abi":[{"type":"receive","stateMutability":"payable"},{"type":"function","name":"facetFuncs","inputs":[],"outputs":[{"name":"funcs","type":"bytes4[]","internalType":"bytes4[]"}],"stateMutability":"pure"},{"type":"function","name":"facetInterfaces","inputs":[],"outputs":[{"name":"interfaces","type":"bytes4[]","internalType":"bytes4[]"}],"stateMutability":"pure"},{"type":"function","name":"facetMetadata","inputs":[],"outputs":[{"name":"name_","type":"string","internalType":"string"},{"name":"interfaces","type":"bytes4[]","internalType":"bytes4[]"},{"name":"functions","type":"bytes4[]","internalType":"bytes4[]"}],"stateMutability":"pure"},{"type":"function","name":"facetName","inputs":[],"outputs":[{"name":"name","type":"string","internalType":"string"}],"stateMutability":"pure"},{"type":"function","name":"getSender","inputs":[],"outputs":[{"name":"","type":"address","internalType":"address"}],"stateMutability":"view"},{"type":"function","name":"querySwapExactIn","inputs":[{"name":"paths","type":"tuple[]","internalType":"struct SwapPathExactAmountIn[]","components":[{"name":"tokenIn","type":"address","internalType":"contract IERC20"},{"name":"steps","type":"tuple[]","internalType":"struct SwapPathStep[]","components":[{"name":"pool","type":"address","internalType":"address"},{"name":"tokenOut","type":"address","internalType":"contract IERC20"},{"name":"isBuffer","type":"bool","internalType":"bool"}]},{"name":"exactAmountIn","type":"uint256","internalType":"uint256"},{"name":"minAmountOut","type":"uint256","internalType":"uint256"}]},{"name":"sender","type":"address","internalType":"address"},{"name":"userData","type":"bytes","internalType":"bytes"}],"outputs":[{"name":"pathAmountsOut","type":"uint256[]","internalType":"uint256[]"},{"name":"tokensOut","type":"address[]","internalType":"address[]"},{"name":"amountsOut","type":"uint256[]","internalType":"uint256[]"}],"stateMutability":"nonpayable"},{"type":"function","name":"querySwapExactInHook","inputs":[{"name":"params","type":"tuple","internalType":"struct SwapExactInHookParams","components":[{"name":"sender","type":"address","internalType":"address"},{"name":"paths","type":"tuple[]","internalType":"struct SwapPathExactAmountIn[]","components":[{"name":"tokenIn","type":"address","internalType":"contract IERC20"},{"name":"steps","type":"tuple[]","internalType":"struct SwapPathStep[]","components":[{"name":"pool","type":"address","internalType":"address"},{"name":"tokenOut","type":"address","internalType":"contract IERC20"},{"name":"isBuffer","type":"bool","internalType":"bool"}]},{"name":"exactAmountIn","type":"uint256","internalType":"uint256"},{"name":"minAmountOut","type":"uint256","internalType":"uint256"}]},{"name":"deadline","type":"uint256","internalType":"uint256"},{"name":"wethIsEth","type":"bool","internalType":"bool"},{"name":"userData","type":"bytes","internalType":"bytes"}]}],"outputs":[{"name":"pathAmountsOut","type":"uint256[]","internalType":"uint256[]"},{"name":"tokensOut","type":"address[]","internalType":"address[]"},{"name":"amountsOut","type":"uint256[]","internalType":"uint256[]"}],"stateMutability":"nonpayable"},{"type":"function","name":"querySwapExactOut","inputs":[{"name":"paths","type":"tuple[]","internalType":"struct SwapPathExactAmountOut[]","components":[{"name":"tokenIn","type":"address","internalType":"contract IERC20"},{"name":"steps","type":"tuple[]","internalType":"struct SwapPathStep[]","components":[{"name":"pool","type":"address","internalType":"address"},{"name":"tokenOut","type":"address","internalType":"contract IERC20"},{"name":"isBuffer","type":"bool","internalType":"bool"}]},{"name":"maxAmountIn","type":"uint256","internalType":"uint256"},{"name":"exactAmountOut","type":"uint256","internalType":"uint256"}]},{"name":"sender","type":"address","internalType":"address"},{"name":"userData","type":"bytes","internalType":"bytes"}],"outputs":[{"name":"pathAmountsIn","type":"uint256[]","internalType":"uint256[]"},{"name":"tokensIn","type":"address[]","internalType":"address[]"},{"name":"amountsIn","type":"uint256[]","internalType":"uint256[]"}],"stateMutability":"nonpayable"},{"type":"function","name":"querySwapExactOutHook","inputs":[{"name":"params","type":"tuple","internalType":"struct SwapExactOutHookParams","components":[{"name":"sender","type":"address","internalType":"address"},{"name":"paths","type":"tuple[]","internalType":"struct SwapPathExactAmountOut[]","components":[{"name":"tokenIn","type":"address","internalType":"contract IERC20"},{"name":"steps","type":"tuple[]","internalType":"struct SwapPathStep[]","components":[{"name":"pool","type":"address","internalType":"address"},{"name":"tokenOut","type":"address","internalType":"contract IERC20"},{"name":"isBuffer","type":"bool","internalType":"bool"}]},{"name":"maxAmountIn","type":"uint256","internalType":"uint256"},{"name":"exactAmountOut","type":"uint256","internalType":"uint256"}]},{"name":"deadline","type":"uint256","internalType":"uint256"},{"name":"wethIsEth","type":"bool","internalType":"bool"},{"name":"userData","type":"bytes","internalType":"bytes"}]}],"outputs":[{"name":"pathAmountsIn","type":"uint256[]","internalType":"uint256[]"},{"name":"tokensIn","type":"address[]","internalType":"address[]"},{"name":"amountsIn","type":"uint256[]","internalType":"uint256[]"}],"stateMutability":"nonpayable"},{"type":"function","name":"swapExactIn","inputs":[{"name":"paths","type":"tuple[]","internalType":"struct SwapPathExactAmountIn[]","components":[{"name":"tokenIn","type":"address","internalType":"contract IERC20"},{"name":"steps","type":"tuple[]","internalType":"struct SwapPathStep[]","components":[{"name":"pool","type":"address","internalType":"address"},{"name":"tokenOut","type":"address","internalType":"contract IERC20"},{"name":"isBuffer","type":"bool","internalType":"bool"}]},{"name":"exactAmountIn","type":"uint256","internalType":"uint256"},{"name":"minAmountOut","type":"uint256","internalType":"uint256"}]},{"name":"deadline","type":"uint256","internalType":"uint256"},{"name":"wethIsEth","type":"bool","internalType":"bool"},{"name":"userData","type":"bytes","internalType":"bytes"}],"outputs":[{"name":"pathAmountsOut","type":"uint256[]","internalType":"uint256[]"},{"name":"tokensOut","type":"address[]","internalType":"address[]"},{"name":"amountsOut","type":"uint256[]","internalType":"uint256[]"}],"stateMutability":"payable"},{"type":"function","name":"swapExactInHook","inputs":[{"name":"params","type":"tuple","internalType":"struct SwapExactInHookParams","components":[{"name":"sender","type":"address","internalType":"address"},{"name":"paths","type":"tuple[]","internalType":"struct SwapPathExactAmountIn[]","components":[{"name":"tokenIn","type":"address","internalType":"contract IERC20"},{"name":"steps","type":"tuple[]","internalType":"struct SwapPathStep[]","components":[{"name":"pool","type":"address","internalType":"address"},{"name":"tokenOut","type":"address","internalType":"contract IERC20"},{"name":"isBuffer","type":"bool","internalType":"bool"}]},{"name":"exactAmountIn","type":"uint256","internalType":"uint256"},{"name":"minAmountOut","type":"uint256","internalType":"uint256"}]},{"name":"deadline","type":"uint256","internalType":"uint256"},{"name":"wethIsEth","type":"bool","internalType":"bool"},{"name":"userData","type":"bytes","internalType":"bytes"}]}],"outputs":[{"name":"pathAmountsOut","type":"uint256[]","internalType":"uint256[]"},{"name":"tokensOut","type":"address[]","internalType":"address[]"},{"name":"amountsOut","type":"uint256[]","internalType":"uint256[]"}],"stateMutability":"nonpayable"},{"type":"function","name":"swapExactOut","inputs":[{"name":"paths","type":"tuple[]","internalType":"struct SwapPathExactAmountOut[]","components":[{"name":"tokenIn","type":"address","internalType":"contract IERC20"},{"name":"steps","type":"tuple[]","internalType":"struct SwapPathStep[]","components":[{"name":"pool","type":"address","internalType":"address"},{"name":"tokenOut","type":"address","internalType":"contract IERC20"},{"name":"isBuffer","type":"bool","internalType":"bool"}]},{"name":"maxAmountIn","type":"uint256","internalType":"uint256"},{"name":"exactAmountOut","type":"uint256","internalType":"uint256"}]},{"name":"deadline","type":"uint256","internalType":"uint256"},{"name":"wethIsEth","type":"bool","internalType":"bool"},{"name":"userData","type":"bytes","internalType":"bytes"}],"outputs":[{"name":"pathAmountsIn","type":"uint256[]","internalType":"uint256[]"},{"name":"tokensIn","type":"address[]","internalType":"address[]"},{"name":"amountsIn","type":"uint256[]","internalType":"uint256[]"}],"stateMutability":"payable"},{"type":"function","name":"swapExactOutHook","inputs":[{"name":"params","type":"tuple","internalType":"struct SwapExactOutHookParams","components":[{"name":"sender","type":"address","internalType":"address"},{"name":"paths","type":"tuple[]","internalType":"struct SwapPathExactAmountOut[]","components":[{"name":"tokenIn","type":"address","internalType":"contract IERC20"},{"name":"steps","type":"tuple[]","internalType":"struct SwapPathStep[]","components":[{"name":"pool","type":"address","internalType":"address"},{"name":"tokenOut","type":"address","internalType":"contract IERC20"},{"name":"isBuffer","type":"bool","internalType":"bool"}]},{"name":"maxAmountIn","type":"uint256","internalType":"uint256"},{"name":"exactAmountOut","type":"uint256","internalType":"uint256"}]},{"name":"deadline","type":"uint256","internalType":"uint256"},{"name":"wethIsEth","type":"bool","internalType":"bool"},{"name":"userData","type":"bytes","internalType":"bytes"}]}],"outputs":[{"name":"pathAmountsIn","type":"uint256[]","internalType":"uint256[]"},{"name":"tokensIn","type":"address[]","internalType":"address[]"},{"name":"amountsIn","type":"uint256[]","internalType":"uint256[]"}],"stateMutability":"nonpayable"},{"type":"error","name":"EthTransfer","inputs":[]},{"type":"error","name":"FailedCall","inputs":[]},{"type":"error","name":"InsufficientBalance","inputs":[{"name":"balance","type":"uint256","internalType":"uint256"},{"name":"needed","type":"uint256","internalType":"uint256"}]},{"type":"error","name":"InsufficientEth","inputs":[]},{"type":"error","name":"InsufficientPayment","inputs":[{"name":"token","type":"address","internalType":"contract IERC20"}]},{"type":"error","name":"ReentrancyGuardReentrantCall","inputs":[]},{"type":"error","name":"SenderIsNotVault","inputs":[{"name":"sender","type":"address","internalType":"address"}]},{"type":"error","name":"SwapDeadline","inputs":[]},{"type":"error","name":"TransientIndexOutOfBounds","inputs":[]}],"bytecode":{"object":"0x6080604052348015600e575f5ffd5b50612fd68061001c5f395ff3fe6080604052600436106100a4575f3560e01c806308a465f6146100e8578063286f580d1461011f5780632950286e146101325780632ea8082614610151578063574a4cff146101725780635a3c3987146101865780635b6f4d01146101a55780635e01eb5a146101c65780638a12a08c146101e75780638eb1b65e14610206578063945ed33f14610219578063e3b5dff414610238578063f10d7a7514610257575f5ffd5b366100e4576100b161027a565b6001600160a01b0316336001600160a01b0316146100e2576040516302a06efb60e11b815260040160405180910390fd5b005b5f5ffd5b3480156100f3575f5ffd5b5061010761010236600461231e565b610298565b60405161011693929190612391565b60405180910390f35b61010761012d3660046126b4565b6102fc565b34801561013d575f5ffd5b5061010761014c366004612738565b61046e565b34801561015c575f5ffd5b5061016561061f565b60405161011691906127e9565b34801561017d575f5ffd5b50610165610677565b348015610191575f5ffd5b506101076101a036600461231e565b6107c7565b3480156101b0575f5ffd5b506101b96107fe565b6040516101169190612829565b3480156101d1575f5ffd5b506101da610826565b604051610116919061283b565b3480156101f2575f5ffd5b5061010761020136600461231e565b61082f565b6101076102143660046126b4565b610857565b348015610224575f5ffd5b5061010761023336600461231e565b61090b565b348015610243575f5ffd5b50610107610252366004612738565b610933565b348015610262575f5ffd5b5061026b610a1e565b6040516101169392919061284f565b5f610293610286610a46565b546001600160a01b031690565b905090565b60608060606102a5610a6a565b6102af6001610a9e565b6102b7610ab3565b6102c084610af9565b919450925090506102ec6102d76020860186612891565b6102e760808701606088016128b3565b610c4f565b6102f55f610a9e565b9193909250565b6060806060335f61030c82610e2b565b90505f6040518060a00160405280336001600160a01b031681526020018c81526020018b81526020018a1515815260200189898080601f0160208091040260200160405190810160405280939291908181526020018383808284375f920182905250939094525092935091506103829050610e59565b6001600160a01b03166348c89491306001600160a01b03166308a465f6856040516024016103b0919061296c565b60408051808303601f1901815291815260208201805160e094851b6001600160e01b03909116179052519184901b6001600160e01b03191682526103f8925090600401612829565b5f604051808303815f875af1158015610413573d5f5f3e3d5ffd5b505050506040513d5f823e601f3d908101601f1916820160405261043a9190810190612a23565b9050808060200190518101906104509190612b1a565b965096509650505061046181610e75565b5050955095509592505050565b6060806060855f61047e82610e2b565b90505f5b89518110156104be576001600160801b0380168a82815181106104a7576104a7612c09565b602090810291909101015160400152600101610482565b505f6040518060a00160405280306001600160a01b031681526020018b81526020015f1981526020015f1515815260200189898080601f0160208091040260200160405190810160405280939291908181526020018383808284375f920182905250939094525092935091506105349050610e59565b6001600160a01b031663edfa3568306001600160a01b0316635a3c3987856040516024016105629190612c1d565b60408051808303601f1901815291815260208201805160e094851b6001600160e01b03909116179052519184901b6001600160e01b03191682526105aa925090600401612829565b5f604051808303815f875af11580156105c5573d5f5f3e3d5ffd5b505050506040513d5f823e601f3d908101601f191682016040526105ec9190810190612a23565b9050808060200190518101906106029190612b1a565b965096509650505061061381610e75565b50509450945094915050565b6040805160018082528183019092526060916020808301908036833701905050905063a6deee5360e01b815f8151811061065b5761065b612c09565b6001600160e01b03199092166020928302919091019091015290565b60408051600680825260e082019092526060916020820160c08036833701905050905063286f580d60e01b815f815181106106b4576106b4612c09565b6001600160e01b0319909216602092830291909101909101528051634758db2f60e11b90829060019081106106eb576106eb612c09565b6001600160e01b03199092166020928302919091019091015280516338ed77fd60e21b908290600290811061072257610722612c09565b6001600160e01b03199092166020928302919091019091015280516314a8143760e11b908290600390811061075957610759612c09565b6001600160e01b031990921660209283029190910190910152805163045232fb60e11b908290600490811061079057610790612c09565b6001600160e01b031990921660209283029190910190910152805163945ed33f60e01b908290600590811061065b5761065b612c09565b60608060606107d4610a6a565b6107de6001610a9e565b6107e6610ab3565b6107ef84610e87565b9250925092506102f55f610a9e565b60408051808201909152600e81526d10985d18da14ddd85c119858d95d60921b602082015290565b5f610293610fbd565b606080606061083c610a6a565b6108466001610a9e565b61084e610ab3565b6107ef84610af9565b6060806060335f61086782610e2b565b90505f6040518060a00160405280336001600160a01b031681526020018c81526020018b81526020018a1515815260200189898080601f0160208091040260200160405190810160405280939291908181526020018383808284375f920182905250939094525092935091506108dd9050610e59565b6001600160a01b03166348c89491306001600160a01b031663945ed33f856040516024016103b09190612c1d565b6060806060610918610a6a565b6109226001610a9e565b61092a610ab3565b6102c084610e87565b6060806060855f61094382610e2b565b90505f5b895181101561097a575f8a828151811061096357610963612c09565b602090810291909101015160600152600101610947565b505f6040518060a00160405280306001600160a01b031681526020018b81526020015f1981526020015f1515815260200189898080601f0160208091040260200160405190810160405280939291908181526020018383808284375f920182905250939094525092935091506109f09050610e59565b6001600160a01b031663edfa3568306001600160a01b0316638a12a08c85604051602401610562919061296c565b6060806060610a2b6107fe565b9250610a3561061f565b9150610a3f610677565b9050909192565b7f0e5e42310baee45bff0964e63930bd3ef41981ccc7a033d2803019558bd2313e90565b5f516020612f815f395f51905f52805c908115610a9a57604051633ee5aeb560e01b815260040160405180910390fd5b5050565b5f516020612f815f395f51905f5281815d5050565b610abb610e59565b6001600160a01b0316336001600160a01b031614610af7573360405163089676d560e01b8152600401610aee919061283b565b60405180910390fd5b565b60608060608360400135421115610b2357604051630e08b8af60e41b815260040160405180910390fd5b610b2c84610fc6565b9250610b3e610b396110c4565b6110e8565b915081516001600160401b03811115610b5957610b59612405565b604051908082528060200260200182016040528015610b82578160200160208202803683370190505b5090505f5b8251811015610c47575f610bbc848381518110610ba657610ba6612c09565b6020026020010151610bb6611189565b906111ad565b905080610be4858481518110610bd457610bd4612c09565b6020026020010151610bb66111ce565b610bee9190612ca2565b838381518110610c0057610c00612c09565b60209081029190910101528015610c3e57610c3e848381518110610c2657610c26612c09565b60200260200101515f610c37611189565b91906111f2565b50600101610b87565b509193909250565b5f610c60610c5b61120e565b611232565b90505f610c6e610c5b6110c4565b90505f610c79610e59565b90505f610c8461123c565b90505f610c8f61027a565b90505f610c9d600187612cb5565b90505b5f8112610daa575f610cba82610cb461120e565b90611259565b90505f610cc982610bb6611264565b9050841580610cf15750888015610cf15750836001600160a01b0316826001600160a01b0316145b15610d0757610d028a83838c611288565b610d77565b6040516315afd40960e01b81526001600160a01b038716906315afd40990610d359085908590600401612cd4565b6020604051808303815f875af1158015610d51573d5f5f3e3d5ffd5b505050506040513d601f19601f82011682018060405250810190610d759190612ced565b505b610d84825f610c37611264565b610d9682610d9061120e565b90611523565b50505080610da390612d04565b9050610ca0565b505f610db7600186612cb5565b90505b5f8112610e18575f610dce82610cb46110c4565b90505f610ddd82610bb66111ce565b9050610deb8a83838c6115b0565b610df8825f610c376111ce565b610e0482610d906110c4565b50505080610e1190612d04565b9050610dba565b50610e2287611721565b50505050505050565b5f5f610e3561176c565b90506001600160a01b038116610e5357610e4e8361177e565b600191505b50919050565b5f610293610e65610a46565b600201546001600160a01b031690565b8015610e8457610e845f61177e565b50565b60608060608360400135421115610eb157604051630e08b8af60e41b815260040160405180910390fd5b610eba84611793565b9250610ec7610b3961120e565b915081516001600160401b03811115610ee257610ee2612405565b604051908082528060200260200182016040528015610f0b578160200160208202803683370190505b5090505f610f1761123c565b90505f5b8351811015610fb4575f848281518110610f3757610f37612c09565b602002602001015190505f610f4e82610bb6611189565b905080610f5d83610bb6611264565b610f679190612ca2565b858481518110610f7957610f79612c09565b60209081029190910101528015610f9757610f97825f610c37611189565b8315610faa57610faa825f610c37611264565b5050600101610f1b565b50509193909250565b5f61029361176c565b6060610fd56020830183612d1f565b90506001600160401b03811115610fee57610fee612405565b604051908082528060200260200182016040528015611017578160200160208202803683370190505b5090505f611023610e59565b90505f61102e61123c565b90505f5b61103f6020860186612d1f565b90508110156110bc57611097836110596020880188612d1f565b8481811061106957611069612c09565b905060200281019061107b9190612d64565b61108490612d82565b8461109260808a018a612d8d565b61187d565b8482815181106110a9576110a9612c09565b6020908102919091010152600101611032565b505050919050565b7f64e2f1f3d8b16c89b88d35f5a8f7b5f6a7b8c9d0e1f2a3b4c5d6e7f8091a2c0090565b60605f6110f4836119f6565b9050806001600160401b0381111561110e5761110e612405565b604051908082528060200260200182016040528015611137578160200160208202803683370190505b5091505f5b818110156111825761115081855b906119fe565b83828151811061116257611162612c09565b6001600160a01b039092166020928302919091019091015260010161113c565b5050919050565b7f94e2f1f3d8b16c89b88d35f5a8f7b5f6a7b8c9d0e1f2a3b4c5d6e7f8091a2f0090565b5f6111c56111c16111be8585611a1c565b90565b5c90565b90505b92915050565b7f84e2f1f3d8b16c89b88d35f5a8f7b5f6a7b8c9d0e1f2a3b4c5d6e7f8091a2e0090565b611209816112036111be8686611a1c565b90611a2d565b505050565b7f54e2f1f3d8b16c89b88d35f5a8f7b5f6a7b8c9d0e1f2a3b4c5d6e7f8091a2b0090565b5f6111c8826119f6565b5f610293611248610a46565b60020154600160a01b900460ff1690565b5f6111c5828461114a565b7f74e2f1f3d8b16c89b88d35f5a8f7b5f6a7b8c9d0e1f2a3b4c5d6e7f8091a2d0090565b5f61129161027a565b90505f61129c610e59565b90505f6112a7611a34565b90508380156112c75750826001600160a01b0316866001600160a01b0316145b1561142057844710156112ed5760405163500d4efb60e11b815260040160405180910390fd5b826001600160a01b031663d0e30db0866040518263ffffffff1660e01b81526004015f604051808303818588803b158015611326575f5ffd5b505af1158015611338573d5f5f3e3d5ffd5b505060405163a9059cbb60e01b81526001600160a01b038716935063a9059cbb925061136b915085908990600401612cd4565b6020604051808303815f875af1158015611387573d5f5f3e3d5ffd5b505050506040513d601f19601f820116820180604052508101906113ab9190612dcf565b506040516315afd40960e01b81526001600160a01b038316906315afd409906113da9089908990600401612cd4565b6020604051808303815f875af11580156113f6573d5f5f3e3d5ffd5b505050506040513d601f19601f8201168201806040525081019061141a9190612ced565b50610e22565b8415610e2257806001600160a01b03166336c78516888461144089611a50565b6040516001600160e01b031960e086901b1681526001600160a01b03938416600482015291831660248301528216604482015290891660648201526084015f604051808303815f87803b158015611495575f5ffd5b505af11580156114a7573d5f5f3e3d5ffd5b50506040516315afd40960e01b81526001600160a01b03851692506315afd40991506114d99089908990600401612cd4565b6020604051808303815f875af11580156114f5573d5f5f3e3d5ffd5b505050506040513d601f19601f820116820180604052508101906115199190612ced565b5050505050505050565b5f806115328360018601610bb6565b905080156115a0575f1981015f600161154a876119f6565b03905080821461157c575f61155f8783611a5a565b905061156c878483611a7e565b61157a818560018a01610c37565b505b61158586611aa2565b50611594855f60018901610c37565b600193505050506111c8565b5f9150506111c8565b5092915050565b811561171b575f6115bf61027a565b90505f6115ca610e59565b90508280156115ea5750816001600160a01b0316856001600160a01b0316145b156116ba5760405163ae63932960e01b81526001600160a01b0382169063ae6393299061161f90889030908990600401612dea565b5f604051808303815f87803b158015611636575f5ffd5b505af1158015611648573d5f5f3e3d5ffd5b5050604051632e1a7d4d60e01b8152600481018790526001600160a01b0385169250632e1a7d4d91506024015f604051808303815f87803b15801561168b575f5ffd5b505af115801561169d573d5f5f3e3d5ffd5b506116b5925050506001600160a01b03871685611ae3565b611718565b60405163ae63932960e01b81526001600160a01b0382169063ae639329906116ea9088908a908990600401612dea565b5f604051808303815f87803b158015611701575f5ffd5b505af1158015611713573d5f5f3e3d5ffd5b505050505b50505b50505050565b475f81900361172e575050565b7f19c2f6f76e6091adc2e8f63fc8cd9da9e3a8e9d5d1c4ae5d8f8e0f6c7b8a9d005c15611759575050565b610a9a6001600160a01b03831682611ae3565b5f516020612f615f395f51905f525c90565b5f516020612f615f395f51905f5281815d5050565b60606117a26020830183612d1f565b90506001600160401b038111156117bb576117bb612405565b6040519080825280602002602001820160405280156117e4578160200160208202803683370190505b5090505f6117f0610e59565b90505f5b6118016020850185612d1f565b9050811015611182576118588261181b6020870187612d1f565b8481811061182b5761182b612c09565b905060200281019061183d9190612d64565b61184690612d82565b6118536080880188612d8d565b611b7d565b83828151811061186a5761186a612c09565b60209081029190910101526001016117f4565b604084015184515f9190856118b35761189e8161189861120e565b90611d50565b506118b381836118ac611264565b9190611d8e565b5f5b8760200151518110156119ea575f60018960200151516118d59190612e0e565b821490505f896020015183815181106118f0576118f0612c09565b602002602001015190505f6040518061012001604052808d6001600160a01b03168152602001835f01516001600160a01b03168152602001866001600160a01b0316815260200183602001516001600160a01b031681526020018781526020018461195b575f611961565b8c606001515b815260200184151581526020018360400151151581526020018a8a8080601f0160208091040260200160405190810160405280939291908181526020018383808284375f920182905250939094525092935091506119c0905082611db3565b905083156119d0578097506119db565b809650826020015195505b505050508060010190506118b5565b50505095945050505050565b5f815c6111c8565b5f6111c56111c16111be84611a18875f9081526020902090565b0190565b5f9081526020919091526040902090565b80825d5050565b5f610293611a40610a46565b600101546001600160a01b031690565b5f6111c882611e18565b5f611a658383611e30565b6111c56111c16111be84611a18875f9081526020902090565b611a888383611e30565b611209816112036111be85611a18885f9081526020902090565b5f80611ab06001845c612e0e565b9050611abc8184611203565b5f611ad36111be83611a18875f9081526020902090565b9050805c9250611182815f611a2d565b80471015611b0d5760405163cf47918160e01b815247600482015260248101829052604401610aee565b5f826001600160a01b0316826040515f6040518083038185875af1925050503d805f8114611b56576040519150601f19603f3d011682016040523d82523d5f602084013e611b5b565b606091505b50509050806112095760405163d6bda27560e01b815260040160405180910390fd5b5f5f846060015190505f6001866020015151611b999190612e0e565b90505f86602001518281518110611bb257611bb2612c09565b60200260200101516020015190505f8190505f88602001515190505b8015611d435760208901516001808314915f91611beb9085612e0e565b81518110611bfb57611bfb612c09565b602002602001015190505f82611c3c5760208c0151611c1b600286612e0e565b81518110611c2b57611c2b612c09565b602002602001015160200151611c3f565b8b515b90505f6040518061012001604052808f6001600160a01b03168152602001845f01516001600160a01b03168152602001836001600160a01b03168152602001876001600160a01b031681526020018a815260200185611c9f575f19611ca5565b8e604001515b815260200185151581526020018460400151151581526020018d8d8080601f0160208091040260200160405190810160405280939291908181526020018383808284375f92018290525093909452509293509150611d04905082611e52565b90508415611d2257809a50611d1d888f60600151611eb7565b611d2d565b809950836020015196505b505050505080611d3c90612e21565b9050611bce565b5050505050949350505050565b5f611d5b8383611ed1565b611d8757611d698383611ee8565b611d7f82611d76856119f6565b60018601610c37565b5060016111c8565b505f6111c8565b61120981611d9c85856111ad565b611da69190612ca2565b6112036111be8686611a1c565b5f8160e0015115611de8576111c8825f015183602001518460400151856060015186608001518760a001518860c00151611f1b565b6111c8825f015183602001518460400151856060015186608001518760a001518860c0015189610100015161201f565b5f600160a01b8210611e2c57611e2c61210b565b5090565b815c808210611209576040516303d2b83960e21b815260040160405180910390fd5b5f8160e0015115611e87576111c8825f015183602001518460400151856060015186608001518760a001518860c00151612118565b6111c8825f015183602001518460400151856060015186608001518760a001518860c0015189610100015161221f565b611ec3826118986110c4565b50610a9a82826118ac6111ce565b5f611edf8260018501610bb6565b15159392505050565b5f825c9050611f07826112036111be84611a18885f9081526020902090565b611209611f15826001612ca2565b84611203565b5f5f866001600160a01b0316886001600160a01b031614611f3c575f611f3f565b60015b9050886001600160a01b03166343583be56040518060a001604052805f6001811115611f6d57611f6d612e2f565b8152602001846001811115611f8457611f84612e2f565b81526020018b6001600160a01b03168152602001888152602001878152506040518263ffffffff1660e01b8152600401611fbe9190612e5f565b6060604051808303815f875af1158015611fda573d5f5f3e3d5ffd5b505050506040513d601f19601f82011682018060405250810190611ffe9190612eb2565b93505083159050612013576120138683611eb7565b50979650505050505050565b5f886001600160a01b0316632bfb780c6040518060e001604052805f600181111561204c5761204c612e2f565b81526020018b6001600160a01b031681526020018a6001600160a01b03168152602001896001600160a01b03168152602001888152602001878152602001858152506040518263ffffffff1660e01b81526004016120aa9190612edd565b6060604051808303815f875af11580156120c6573d5f5f3e3d5ffd5b505050506040513d601f19601f820116820180604052508101906120ea9190612eb2565b925050831590506120ff576120ff8682611eb7565b98975050505050505050565b6335278d125f526004601cfd5b5f5f866001600160a01b0316886001600160a01b031614612139575f61213c565b60015b9050886001600160a01b03166343583be56040518060a0016040528060018081111561216a5761216a612e2f565b815260200184600181111561218157612181612e2f565b81526020018b6001600160a01b03168152602001888152602001878152506040518263ffffffff1660e01b81526004016121bb9190612e5f565b6060604051808303815f875af11580156121d7573d5f5f3e3d5ffd5b505050506040513d601f19601f820116820180604052508101906121fb9190612eb2565b509250508215612013576122118761189861120e565b5061201387836118ac611264565b5f886001600160a01b0316632bfb780c6040518060e0016040528060018081111561224c5761224c612e2f565b81526020018b6001600160a01b031681526020018a6001600160a01b03168152602001896001600160a01b03168152602001888152602001878152602001858152506040518263ffffffff1660e01b81526004016122aa9190612edd565b6060604051808303815f875af11580156122c6573d5f5f3e3d5ffd5b505050506040513d601f19601f820116820180604052508101906122ea9190612eb2565b5091505082156120ff576123008761189861120e565b506120ff87826118ac611264565b5f60a08284031215610e53575f5ffd5b5f6020828403121561232e575f5ffd5b81356001600160401b03811115612343575f5ffd5b61234f8482850161230e565b949350505050565b5f8151808452602084019350602083015f5b82811015612387578151865260209586019590910190600101612369565b5093949350505050565b606081525f6123a36060830186612357565b82810360208401528085518083526020830191506020870192505f5b818110156123e65783516001600160a01b03168352602093840193909201916001016123bf565b505083810360408501526123fa8186612357565b979650505050505050565b634e487b7160e01b5f52604160045260245ffd5b604051608081016001600160401b038111828210171561243b5761243b612405565b60405290565b604051606081016001600160401b038111828210171561243b5761243b612405565b604051601f8201601f191681016001600160401b038111828210171561248b5761248b612405565b604052919050565b5f6001600160401b038211156124ab576124ab612405565b5060051b60200190565b6001600160a01b0381168114610e84575f5ffd5b8015158114610e84575f5ffd5b5f608082840312156124e6575f5ffd5b6124ee612419565b905081356124fb816124b5565b815260208201356001600160401b03811115612515575f5ffd5b8201601f81018413612525575f5ffd5b803561253861253382612493565b612463565b80828252602082019150602060608402850101925086831115612559575f5ffd5b6020840193505b828410156125c65760608488031215612577575f5ffd5b61257f612441565b843561258a816124b5565b8152602085013561259a816124b5565b602082015260408501356125ad816124c9565b6040820152825260609390930192602090910190612560565b60208501525050506040828101359082015260609182013591810191909152919050565b5f82601f8301126125f9575f5ffd5b8135602083015f61260c61253384612493565b83815260059390931b8201929050602081018684111561262a575f5ffd5b825b848110156126645780356001600160401b03811115612649575f5ffd5b612655898287016124d6565b8352506020918201910161262c565b50909695505050505050565b5f5f83601f840112612680575f5ffd5b5081356001600160401b03811115612696575f5ffd5b6020830191508360208285010111156126ad575f5ffd5b9250929050565b5f5f5f5f5f608086880312156126c8575f5ffd5b85356001600160401b038111156126dd575f5ffd5b6126e9888289016125ea565b955050602086013593506040860135612701816124c9565b925060608601356001600160401b0381111561271b575f5ffd5b61272788828901612670565b969995985093965092949392505050565b5f5f5f5f6060858703121561274b575f5ffd5b84356001600160401b03811115612760575f5ffd5b61276c878288016125ea565b945050602085013561277d816124b5565b925060408501356001600160401b03811115612797575f5ffd5b6127a387828801612670565b95989497509550505050565b5f8151808452602084019350602083015f5b828110156123875781516001600160e01b0319168652602095860195909101906001016127c1565b602081525f6111c560208301846127af565b5f81518084528060208401602086015e5f602082860101526020601f19601f83011685010191505092915050565b602081525f6111c560208301846127fb565b6001600160a01b0391909116815260200190565b606081525f61286160608301866127fb565b828103602084015261287381866127af565b9050828103604084015261288781856127af565b9695505050505050565b5f602082840312156128a1575f5ffd5b81356128ac816124b5565b9392505050565b5f602082840312156128c3575f5ffd5b81356128ac816124c9565b80516001600160a01b03168252602080820151608082850181905281519085018190525f929190910190829060a08601905b8083101561294b57835180516001600160a01b039081168452602080830151909116818501526040918201511515918401919091529093019260019290920191606090910190612900565b50604085015160408701526060850151606087015280935050505092915050565b602080825282516001600160a01b0316828201528281015160a06040840152805160c084018190525f9260e0600583901b86018101939091019190850190845b818110156129dd5760df198786030183526129c88585516128ce565b945060209384019392909201916001016129ac565b505050506040840151606084015260608401516129fe608085018215159052565b506080840151838203601f190160a0850152612a1a82826127fb565b95945050505050565b5f60208284031215612a33575f5ffd5b81516001600160401b03811115612a48575f5ffd5b8201601f81018413612a58575f5ffd5b80516001600160401b03811115612a7157612a71612405565b612a84601f8201601f1916602001612463565b818152856020838501011115612a98575f5ffd5b8160208401602083015e5f91810160200191909152949350505050565b5f82601f830112612ac4575f5ffd5b8151612ad261253382612493565b8082825260208201915060208360051b860101925085831115612af3575f5ffd5b602085015b83811015612b10578051835260209283019201612af8565b5095945050505050565b5f5f5f60608486031215612b2c575f5ffd5b83516001600160401b03811115612b41575f5ffd5b612b4d86828701612ab5565b602086015190945090506001600160401b03811115612b6a575f5ffd5b8401601f81018613612b7a575f5ffd5b8051612b8861253382612493565b8082825260208201915060208360051b850101925088831115612ba9575f5ffd5b6020840193505b82841015612bd4578351612bc3816124b5565b825260209384019390910190612bb0565b6040880151909550925050506001600160401b03811115612bf3575f5ffd5b612bff86828701612ab5565b9150509250925092565b634e487b7160e01b5f52603260045260245ffd5b602080825282516001600160a01b0316828201528281015160a06040840152805160c084018190525f9260e0600583901b86018101939091019190850190845b818110156129dd5760df19878603018352612c798585516128ce565b94506020938401939290920191600101612c5d565b634e487b7160e01b5f52601160045260245ffd5b808201808211156111c8576111c8612c8e565b8181035f8312801583831316838312821617156115a9576115a9612c8e565b6001600160a01b03929092168252602082015260400190565b5f60208284031215612cfd575f5ffd5b5051919050565b5f600160ff1b8201612d1857612d18612c8e565b505f190190565b5f5f8335601e19843603018112612d34575f5ffd5b8301803591506001600160401b03821115612d4d575f5ffd5b6020019150600581901b36038213156126ad575f5ffd5b5f8235607e19833603018112612d78575f5ffd5b9190910192915050565b5f6111c836836124d6565b5f5f8335601e19843603018112612da2575f5ffd5b8301803591506001600160401b03821115612dbb575f5ffd5b6020019150368190038213156126ad575f5ffd5b5f60208284031215612ddf575f5ffd5b81516128ac816124c9565b6001600160a01b039384168152919092166020820152604081019190915260600190565b818103818111156111c8576111c8612c8e565b5f81612d1857612d18612c8e565b634e487b7160e01b5f52602160045260245ffd5b60028110610e8457634e487b7160e01b5f52602160045260245ffd5b815160a0820190612e6f81612e43565b82526020830151612e7f81612e43565b60208301526040838101516001600160a01b03169083015260608084015190830152608092830151929091019190915290565b5f5f5f60608486031215612ec4575f5ffd5b5050815160208301516040909301519094929350919050565b602081525f8251612eed81612e43565b8060208401525060018060a01b03602084015116604083015260018060a01b0360408401511660608301526060830151612f3260808401826001600160a01b03169052565b50608083015160a083015260a083015160c083015260c083015160e08084015261234f6101008401826127fb56fe6c17b98ed641627be1f588a5e81d97edc6ddd1b560dfba5b46c2aa2c8ddd0d0085e416c3b4a964332bebb95fdf9a73cb8ded00cbd75143ad03246e01399c4247a264697066735822122074cbb08922073b4c7c9d244afcc9a851b9e251a5ff6d2924cb91501a9e48fbdb64736f6c634300081e0033","linkReferences":{}},"methodIdentifiers":{"facetFuncs()":"574a4cff","facetInterfaces()":"2ea80826","facetMetadata()":"f10d7a75","facetName()":"5b6f4d01","getSender()":"5e01eb5a","querySwapExactIn((address,(address,address,bool)[],uint256,uint256)[],address,bytes)":"e3b5dff4","querySwapExactInHook((address,(address,(address,address,bool)[],uint256,uint256)[],uint256,bool,bytes))":"8a12a08c","querySwapExactOut((address,(address,address,bool)[],uint256,uint256)[],address,bytes)":"2950286e","querySwapExactOutHook((address,(address,(address,address,bool)[],uint256,uint256)[],uint256,bool,bytes))":"5a3c3987","swapExactIn((address,(address,address,bool)[],uint256,uint256)[],uint256,bool,bytes)":"286f580d","swapExactInHook((address,(address,(address,address,bool)[],uint256,uint256)[],uint256,bool,bytes))":"08a465f6","swapExactOut((address,(address,address,bool)[],uint256,uint256)[],uint256,bool,bytes)":"8eb1b65e","swapExactOutHook((address,(address,(address,address,bool)[],uint256,uint256)[],uint256,bool,bytes))":"945ed33f"},"id":927}