{"abi":[{"type":"constructor","inputs":[{"name":"params","type":"tuple","internalType":"struct IGyro2CLPPool.GyroParams","components":[{"name":"name","type":"string","internalType":"string"},{"name":"symbol","type":"string","internalType":"string"},{"name":"sqrtAlpha","type":"uint256","internalType":"uint256"},{"name":"sqrtBeta","type":"uint256","internalType":"uint256"},{"name":"version","type":"string","internalType":"string"}]},{"name":"vault","type":"address","internalType":"contract IVault"}],"stateMutability":"nonpayable"},{"type":"function","name":"DOMAIN_SEPARATOR","inputs":[],"outputs":[{"name":"","type":"bytes32","internalType":"bytes32"}],"stateMutability":"view"},{"type":"function","name":"PERMIT_TYPEHASH","inputs":[],"outputs":[{"name":"","type":"bytes32","internalType":"bytes32"}],"stateMutability":"view"},{"type":"function","name":"allowance","inputs":[{"name":"owner","type":"address","internalType":"address"},{"name":"spender","type":"address","internalType":"address"}],"outputs":[{"name":"","type":"uint256","internalType":"uint256"}],"stateMutability":"view"},{"type":"function","name":"approve","inputs":[{"name":"spender","type":"address","internalType":"address"},{"name":"amount","type":"uint256","internalType":"uint256"}],"outputs":[{"name":"","type":"bool","internalType":"bool"}],"stateMutability":"nonpayable"},{"type":"function","name":"balanceOf","inputs":[{"name":"account","type":"address","internalType":"address"}],"outputs":[{"name":"","type":"uint256","internalType":"uint256"}],"stateMutability":"view"},{"type":"function","name":"computeBalance","inputs":[{"name":"balancesLiveScaled18","type":"uint256[]","internalType":"uint256[]"},{"name":"tokenInIndex","type":"uint256","internalType":"uint256"},{"name":"invariantRatio","type":"uint256","internalType":"uint256"}],"outputs":[{"name":"newBalance","type":"uint256","internalType":"uint256"}],"stateMutability":"view"},{"type":"function","name":"computeInvariant","inputs":[{"name":"balancesLiveScaled18","type":"uint256[]","internalType":"uint256[]"},{"name":"rounding","type":"uint8","internalType":"enum Rounding"}],"outputs":[{"name":"","type":"uint256","internalType":"uint256"}],"stateMutability":"view"},{"type":"function","name":"decimals","inputs":[],"outputs":[{"name":"","type":"uint8","internalType":"uint8"}],"stateMutability":"pure"},{"type":"function","name":"eip712Domain","inputs":[],"outputs":[{"name":"fields","type":"bytes1","internalType":"bytes1"},{"name":"name","type":"string","internalType":"string"},{"name":"version","type":"string","internalType":"string"},{"name":"chainId","type":"uint256","internalType":"uint256"},{"name":"verifyingContract","type":"address","internalType":"address"},{"name":"salt","type":"bytes32","internalType":"bytes32"},{"name":"extensions","type":"uint256[]","internalType":"uint256[]"}],"stateMutability":"view"},{"type":"function","name":"emitApproval","inputs":[{"name":"owner","type":"address","internalType":"address"},{"name":"spender","type":"address","internalType":"address"},{"name":"amount","type":"uint256","internalType":"uint256"}],"outputs":[],"stateMutability":"nonpayable"},{"type":"function","name":"emitTransfer","inputs":[{"name":"from","type":"address","internalType":"address"},{"name":"to","type":"address","internalType":"address"},{"name":"amount","type":"uint256","internalType":"uint256"}],"outputs":[],"stateMutability":"nonpayable"},{"type":"function","name":"getAggregateFeePercentages","inputs":[],"outputs":[{"name":"aggregateSwapFeePercentage","type":"uint256","internalType":"uint256"},{"name":"aggregateYieldFeePercentage","type":"uint256","internalType":"uint256"}],"stateMutability":"view"},{"type":"function","name":"getCurrentLiveBalances","inputs":[],"outputs":[{"name":"balancesLiveScaled18","type":"uint256[]","internalType":"uint256[]"}],"stateMutability":"view"},{"type":"function","name":"getGyro2CLPPoolDynamicData","inputs":[],"outputs":[{"name":"data","type":"tuple","internalType":"struct Gyro2CLPPoolDynamicData","components":[{"name":"balancesLiveScaled18","type":"uint256[]","internalType":"uint256[]"},{"name":"tokenRates","type":"uint256[]","internalType":"uint256[]"},{"name":"staticSwapFeePercentage","type":"uint256","internalType":"uint256"},{"name":"totalSupply","type":"uint256","internalType":"uint256"},{"name":"bptRate","type":"uint256","internalType":"uint256"},{"name":"isPoolInitialized","type":"bool","internalType":"bool"},{"name":"isPoolPaused","type":"bool","internalType":"bool"},{"name":"isPoolInRecoveryMode","type":"bool","internalType":"bool"}]}],"stateMutability":"view"},{"type":"function","name":"getGyro2CLPPoolImmutableData","inputs":[],"outputs":[{"name":"data","type":"tuple","internalType":"struct Gyro2CLPPoolImmutableData","components":[{"name":"tokens","type":"address[]","internalType":"contract IERC20[]"},{"name":"decimalScalingFactors","type":"uint256[]","internalType":"uint256[]"},{"name":"sqrtAlpha","type":"uint256","internalType":"uint256"},{"name":"sqrtBeta","type":"uint256","internalType":"uint256"}]}],"stateMutability":"view"},{"type":"function","name":"getMaximumInvariantRatio","inputs":[],"outputs":[{"name":"","type":"uint256","internalType":"uint256"}],"stateMutability":"pure"},{"type":"function","name":"getMaximumSwapFeePercentage","inputs":[],"outputs":[{"name":"","type":"uint256","internalType":"uint256"}],"stateMutability":"pure"},{"type":"function","name":"getMinimumInvariantRatio","inputs":[],"outputs":[{"name":"","type":"uint256","internalType":"uint256"}],"stateMutability":"pure"},{"type":"function","name":"getMinimumSwapFeePercentage","inputs":[],"outputs":[{"name":"","type":"uint256","internalType":"uint256"}],"stateMutability":"pure"},{"type":"function","name":"getRate","inputs":[],"outputs":[{"name":"","type":"uint256","internalType":"uint256"}],"stateMutability":"view"},{"type":"function","name":"getStaticSwapFeePercentage","inputs":[],"outputs":[{"name":"","type":"uint256","internalType":"uint256"}],"stateMutability":"view"},{"type":"function","name":"getTokenInfo","inputs":[],"outputs":[{"name":"tokens","type":"address[]","internalType":"contract IERC20[]"},{"name":"tokenInfo","type":"tuple[]","internalType":"struct TokenInfo[]","components":[{"name":"tokenType","type":"uint8","internalType":"enum TokenType"},{"name":"rateProvider","type":"address","internalType":"contract IRateProvider"},{"name":"paysYieldFees","type":"bool","internalType":"bool"}]},{"name":"balancesRaw","type":"uint256[]","internalType":"uint256[]"},{"name":"lastBalancesLiveScaled18","type":"uint256[]","internalType":"uint256[]"}],"stateMutability":"view"},{"type":"function","name":"getTokens","inputs":[],"outputs":[{"name":"tokens","type":"address[]","internalType":"contract IERC20[]"}],"stateMutability":"view"},{"type":"function","name":"getVault","inputs":[],"outputs":[{"name":"","type":"address","internalType":"contract IVault"}],"stateMutability":"view"},{"type":"function","name":"incrementNonce","inputs":[],"outputs":[],"stateMutability":"nonpayable"},{"type":"function","name":"name","inputs":[],"outputs":[{"name":"","type":"string","internalType":"string"}],"stateMutability":"view"},{"type":"function","name":"nonces","inputs":[{"name":"owner","type":"address","internalType":"address"}],"outputs":[{"name":"","type":"uint256","internalType":"uint256"}],"stateMutability":"view"},{"type":"function","name":"onSwap","inputs":[{"name":"request","type":"tuple","internalType":"struct PoolSwapParams","components":[{"name":"kind","type":"uint8","internalType":"enum SwapKind"},{"name":"amountGivenScaled18","type":"uint256","internalType":"uint256"},{"name":"balancesScaled18","type":"uint256[]","internalType":"uint256[]"},{"name":"indexIn","type":"uint256","internalType":"uint256"},{"name":"indexOut","type":"uint256","internalType":"uint256"},{"name":"router","type":"address","internalType":"address"},{"name":"userData","type":"bytes","internalType":"bytes"}]}],"outputs":[{"name":"","type":"uint256","internalType":"uint256"}],"stateMutability":"view"},{"type":"function","name":"permit","inputs":[{"name":"owner","type":"address","internalType":"address"},{"name":"spender","type":"address","internalType":"address"},{"name":"amount","type":"uint256","internalType":"uint256"},{"name":"deadline","type":"uint256","internalType":"uint256"},{"name":"v","type":"uint8","internalType":"uint8"},{"name":"r","type":"bytes32","internalType":"bytes32"},{"name":"s","type":"bytes32","internalType":"bytes32"}],"outputs":[],"stateMutability":"nonpayable"},{"type":"function","name":"supportsInterface","inputs":[{"name":"interfaceId","type":"bytes4","internalType":"bytes4"}],"outputs":[{"name":"","type":"bool","internalType":"bool"}],"stateMutability":"view"},{"type":"function","name":"symbol","inputs":[],"outputs":[{"name":"","type":"string","internalType":"string"}],"stateMutability":"view"},{"type":"function","name":"totalSupply","inputs":[],"outputs":[{"name":"","type":"uint256","internalType":"uint256"}],"stateMutability":"view"},{"type":"function","name":"transfer","inputs":[{"name":"to","type":"address","internalType":"address"},{"name":"amount","type":"uint256","internalType":"uint256"}],"outputs":[{"name":"","type":"bool","internalType":"bool"}],"stateMutability":"nonpayable"},{"type":"function","name":"transferFrom","inputs":[{"name":"from","type":"address","internalType":"address"},{"name":"to","type":"address","internalType":"address"},{"name":"amount","type":"uint256","internalType":"uint256"}],"outputs":[{"name":"","type":"bool","internalType":"bool"}],"stateMutability":"nonpayable"},{"type":"function","name":"version","inputs":[],"outputs":[{"name":"","type":"string","internalType":"string"}],"stateMutability":"view"},{"type":"event","name":"Approval","inputs":[{"name":"owner","type":"address","indexed":true,"internalType":"address"},{"name":"spender","type":"address","indexed":true,"internalType":"address"},{"name":"amount","type":"uint256","indexed":false,"internalType":"uint256"}],"anonymous":false},{"type":"event","name":"EIP712DomainChanged","inputs":[],"anonymous":false},{"type":"event","name":"Transfer","inputs":[{"name":"from","type":"address","indexed":true,"internalType":"address"},{"name":"to","type":"address","indexed":true,"internalType":"address"},{"name":"amount","type":"uint256","indexed":false,"internalType":"uint256"}],"anonymous":false},{"type":"error","name":"AssetBoundsExceeded","inputs":[]},{"type":"error","name":"ERC2612ExpiredSignature","inputs":[{"name":"deadline","type":"uint256","internalType":"uint256"}]},{"type":"error","name":"ERC2612InvalidSigner","inputs":[{"name":"signer","type":"address","internalType":"address"},{"name":"owner","type":"address","internalType":"address"}]},{"type":"error","name":"InvalidAccountNonce","inputs":[{"name":"account","type":"address","internalType":"address"},{"name":"currentNonce","type":"uint256","internalType":"uint256"}]},{"type":"error","name":"SenderIsNotVault","inputs":[{"name":"sender","type":"address","internalType":"address"}]},{"type":"error","name":"SqrtParamsWrong","inputs":[]},{"type":"error","name":"ZeroDivision","inputs":[]}],"bytecode":{"object":"0x610140604052348015610010575f5ffd5b506040516132c33803806132c383398101604081905261002f916101f8565b81608001518182845f015185602001518282604051806040016040528060018152602001603160f81b815250815f90816100699190610360565b5060016100768282610360565b508151602092830120608052805191012060a0526001600160a01b031660c05260036100a28382610360565b5060046100af8282610360565b505050506001600160a01b031660e0526100c881610108565b5081606001518260400151106100f1576040516302bcf0ed60e11b815260040160405180910390fd5b50604081015161010052606001516101205261041a565b60056101148282610360565b5050565b634e487b7160e01b5f52604160045260245ffd5b60405160a081016001600160401b038111828210171561014e5761014e610118565b60405290565b5f82601f830112610163575f5ffd5b81516001600160401b0381111561017c5761017c610118565b604051601f8201601f19908116603f011681016001600160401b03811182821017156101aa576101aa610118565b6040528181528382016020018510156101c1575f5ffd5b8160208501602083015e5f918101602001919091529392505050565b80516001600160a01b03811681146101f3575f5ffd5b919050565b5f5f60408385031215610209575f5ffd5b82516001600160401b0381111561021e575f5ffd5b830160a0818603121561022f575f5ffd5b61023761012c565b81516001600160401b0381111561024c575f5ffd5b61025887828501610154565b82525060208201516001600160401b03811115610273575f5ffd5b61027f87828501610154565b602083015250604082810151908201526060808301519082015260808201516001600160401b038111156102b1575f5ffd5b6102bd87828501610154565b60808301525092506102d39050602084016101dd565b90509250929050565b600181811c908216806102f057607f821691505b60208210810361030e57634e487b7160e01b5f52602260045260245ffd5b50919050565b601f82111561035b57805f5260205f20601f840160051c810160208510156103395750805b601f840160051c820191505b81811015610358575f8155600101610345565b50505b505050565b81516001600160401b0381111561037957610379610118565b61038d8161038784546102dc565b84610314565b6020601f8211600181146103bf575f83156103a85750848201515b5f19600385901b1c1916600184901b178455610358565b5f84815260208120601f198516915b828110156103ee57878501518255602094850194600190920191016103ce565b508482101561040b57868401515f19600387901b60f8161c191681555b50505050600190811b01905550565b60805160a05160c05160e0516101005161012051612dd66104ed5f395f8181610e0c015261143501525f8181610de6015261141301525f8181610e5501528181610ff9015281816110770152818161112a01526111b901525f81816104c801528181610643015281816106f20152818161088701528181610916015281816109a901528181610a5501528181610b4e01528181610cd901528181610d6801528181610f3801528181610fa6015281816112ea0152818161139f015261153b01525f6115d501525f6115ad0152612dd65ff3fe608060405234801561000f575f5ffd5b506004361061019f575f3560e01c806301ffc9a7146101a357806306fdde03146101dc578063095ea7b3146101f157806316a0b3e01461020457806318160ddd1461022557806323b872dd1461022d57806323de665114610240578063273c1adf1461025557806330adf81f1461025c578063313ce567146102705780633644e5151461027f57806354fd4d50146102875780635687f2b81461028f57806361f82d57146102a2578063627cdcb9146102b7578063654cf15d146102bf578063679aefce146102cd57806370a08231146102d557806372c98186146102e85780637e148d61146102fb5780637ecebe001461031057806381fa807c1461032357806384b0196e146103405780638d928af81461035b57806395d89b4114610370578063984de9e814610378578063a9059cbb1461038b578063aa6ca8081461039e578063abb1dc44146103b3578063b156aa0a146103cb578063b677fa56146103e0578063ce20ece7146103e6578063d335b0cf146103f1578063d505accf146103f9578063dd62ed3e1461040c575b5f5ffd5b6101c76101b1366004612126565b6001600160e01b0319166301ffc9a760e01b1490565b60405190151581526020015b60405180910390f35b6101e461041f565b6040516101d3919061217b565b6101c76101ff3660046121a1565b6104af565b6102176102123660046122e6565b61054d565b6040519081526020016101d3565b61021761062a565b6101c761023b36600461232f565b6106bc565b61025361024e36600461232f565b610769565b005b5f19610217565b6102175f516020612d815f395f51905f5281565b604051601281526020016101d3565b6102176107c3565b6101e46107cc565b61025361029d36600461232f565b6107db565b6102aa610828565b6040516101d391906123a7565b610253610af5565b670de0b6b3a7640000610217565b610217610b01565b6102176102e3366004612438565b610b35565b6102176102f6366004612453565b610bc4565b610303610c99565b6040516101d391906124c2565b61021761031e366004612438565b610e33565b61032b610e50565b604080519283526020830191909152016101d3565b610348610ef4565b6040516101d3979695949392919061251b565b610363610f36565b6040516101d3919061258a565b6101e4610f5a565b6102176103863660046125aa565b610f69565b6101c76103993660046121a1565b610f8d565b6103a6610fdf565b6040516101d391906125f8565b6103bb61106f565b6040516101d3949392919061261e565b6103d3611110565b6040516101d391906126df565b5f610217565b64e8d4a51000610217565b6102176111a0565b6102536104073660046126f1565b6111ee565b61021761041a366004612762565b611370565b60606003805461042e9061278e565b80601f016020809104026020016040519081016040528092919081815260200182805461045a9061278e565b80156104a55780601f1061047c576101008083540402835291602001916104a5565b820191905f5260205f20905b81548152906001019060200180831161048857829003601f168201915b5050505050905090565b60405163e1f21c6760e01b81525f906001600160a01b037f0000000000000000000000000000000000000000000000000000000000000000169063e1f21c6790610501903390879087906004016127c6565b6020604051808303815f875af115801561051d573d5f5f3e3d5ffd5b505050506040513d601f19601f8201168201806040525081019061054191906127f9565b50600190505b92915050565b5f5f5f610558611411565b915091505f6105698784845f611457565b9050610575818661148a565b90505f6105828280612826565b90505f61058f83856114b6565b90505f61059c84876114de565b9050885f036105e757816105d68b6001815181106105bc576105bc61283d565b6020026020010151836105cf9190612851565b85906114fe565b6105e09190612864565b965061061d565b806106108b5f815181106105fd576105fd61283d565b6020026020010151846105cf9190612851565b61061a9190612864565b96505b5050505050509392505050565b6040516339370aa960e21b81525f906001600160a01b037f0000000000000000000000000000000000000000000000000000000000000000169063e4dc2aa49061067890309060040161258a565b602060405180830381865afa158015610693573d5f5f3e3d5ffd5b505050506040513d601f19601f820116820180604052508101906106b79190612877565b905090565b604051630aed65f560e11b81523360048201526001600160a01b0384811660248301528381166044830152606482018390525f917f0000000000000000000000000000000000000000000000000000000000000000909116906315dacbea906084016020604051808303815f875af115801561073a573d5f5f3e3d5ffd5b505050506040513d601f19601f8201168201806040525081019061075e91906127f9565b506001949350505050565b610771611530565b816001600160a01b0316836001600160a01b03167fddf252ad1be2c89b69c2b068fc378daa952ba7f163c4a11628f55a4df523b3ef836040516107b691815260200190565b60405180910390a3505050565b5f6106b761157d565b60606005805461042e9061278e565b6107e3611530565b816001600160a01b0316836001600160a01b03167f8c5be1e5ebec7d5bd14f71427d1e84f3dd0314c0f7b2291e5b200ac8c7c3b925836040516107b691815260200190565b61087060405180610100016040528060608152602001606081526020015f81526020015f81526020015f81526020015f151581526020015f151581526020015f151581525090565b6040516329ae7ec560e11b81526001600160a01b037f0000000000000000000000000000000000000000000000000000000000000000169063535cfd8a906108bc90309060040161258a565b5f60405180830381865afa1580156108d6573d5f5f3e3d5ffd5b505050506040513d5f823e601f3d908101601f191682016040526108fd91908101906128e9565b8152604051633f1b0def60e11b81526001600160a01b037f00000000000000000000000000000000000000000000000000000000000000001690637e361bde9061094b90309060040161258a565b5f60405180830381865afa158015610965573d5f5f3e3d5ffd5b505050506040513d5f823e601f3d908101601f1916820160405261098c919081019061291a565b60208301525060405163b45090f960e01b81526001600160a01b037f0000000000000000000000000000000000000000000000000000000000000000169063b45090f9906109de90309060040161258a565b602060405180830381865afa1580156109f9573d5f5f3e3d5ffd5b505050506040513d601f19601f82011682018060405250810190610a1d9190612877565b6040820152610a2a61062a565b6060820152610a37610b01565b608082015260405163f29486a160e01b81525f906001600160a01b037f0000000000000000000000000000000000000000000000000000000000000000169063f29486a190610a8a90309060040161258a565b6101a060405180830381865afa158015610aa6573d5f5f3e3d5ffd5b505050506040513d601f19601f82011682018060405250810190610aca9190612a23565b60e080820151151560a0850152610100820151151560c0850152610120909101511515908301525090565b610afe33611625565b50565b5f610b0a610f36565b6001600160a01b0316634f037ee7306040518263ffffffff1660e01b8152600401610678919061258a565b604051633de222bb60e21b81525f906001600160a01b037f0000000000000000000000000000000000000000000000000000000000000000169063f7888aec90610b859030908690600401612adc565b602060405180830381865afa158015610ba0573d5f5f3e3d5ffd5b505050506040513d601f19601f820116820180604052508101906105479190612877565b5f610bcd611530565b6060820135155f610be16040850185612af6565b8560600135818110610bf557610bf561283d565b9050602002013590505f848060400190610c0f9190612af6565b8660800135818110610c2357610c2361283d565b9050602002013590505f5f610c39848487611647565b90925090505f610c4c6020890189612b42565b6001811115610c5d57610c5d61260a565b03610c82575f610c7485858a602001358686611730565b9650610c9495505050505050565b5f610c7485858a60200135868661178d565b919050565b610cc2604051806080016040528060608152602001606081526020015f81526020015f81525090565b60405163ca4f280360e01b81526001600160a01b037f0000000000000000000000000000000000000000000000000000000000000000169063ca4f280390610d0e90309060040161258a565b5f60405180830381865afa158015610d28573d5f5f3e3d5ffd5b505050506040513d5f823e601f3d908101601f19168201604052610d4f9190810190612bc1565b8152604051633f1b0def60e11b81526001600160a01b037f00000000000000000000000000000000000000000000000000000000000000001690637e361bde90610d9d90309060040161258a565b5f60405180830381865afa158015610db7573d5f5f3e3d5ffd5b505050506040513d5f823e601f3d908101601f19168201604052610dde919081019061291a565b5060208201527f000000000000000000000000000000000000000000000000000000000000000060408201527f0000000000000000000000000000000000000000000000000000000000000000606082015290565b6001600160a01b0381165f90815260026020526040812054610547565b5f5f5f7f00000000000000000000000000000000000000000000000000000000000000006001600160a01b031663f29486a1306040518263ffffffff1660e01b8152600401610e9f919061258a565b6101a060405180830381865afa158015610ebb573d5f5f3e3d5ffd5b505050506040513d601f19601f82011682018060405250810190610edf9190612a23565b90508060400151925080606001519150509091565b5f6060805f5f5f6060610f056117f2565b610f0d611800565b604080515f80825260208201909252600f60f81b9b939a50919850469750309650945092509050565b7f000000000000000000000000000000000000000000000000000000000000000090565b60606004805461042e9061278e565b5f5f5f610f74611411565b91509150610f8485838387611457565b95945050505050565b6040516317d5759960e31b81525f906001600160a01b037f0000000000000000000000000000000000000000000000000000000000000000169063beabacc890610501903390879087906004016127c6565b60405163ca4f280360e01b81526060906001600160a01b037f0000000000000000000000000000000000000000000000000000000000000000169063ca4f28039061102e90309060040161258a565b5f60405180830381865afa158015611048573d5f5f3e3d5ffd5b505050506040513d5f823e601f3d908101601f191682016040526106b79190810190612bc1565b6060806060807f00000000000000000000000000000000000000000000000000000000000000006001600160a01b03166367e0e076306040518263ffffffff1660e01b81526004016110c1919061258a565b5f60405180830381865afa1580156110db573d5f5f3e3d5ffd5b505050506040513d5f823e601f3d908101601f191682016040526111029190810190612bf2565b935093509350935090919293565b6040516329ae7ec560e11b81526060906001600160a01b037f0000000000000000000000000000000000000000000000000000000000000000169063535cfd8a9061115f90309060040161258a565b5f60405180830381865afa158015611179573d5f5f3e3d5ffd5b505050506040513d5f823e601f3d908101601f191682016040526106b791908101906128e9565b60405163b45090f960e01b81525f906001600160a01b037f0000000000000000000000000000000000000000000000000000000000000000169063b45090f99061067890309060040161258a565b834211156112175760405163313c898160e11b8152600481018590526024015b60405180910390fd5b5f5f516020612d815f395f51905f528888886112328c611625565b6040805160208101969096526001600160a01b0394851690860152929091166060840152608083015260a082015260c0810186905260e0016040516020818303038152906040528051906020012090505f61128c8261180f565b90505f61129b8287878761183b565b9050896001600160a01b0316816001600160a01b0316146112d357808a6040516325c0072360e11b815260040161120e929190612adc565b60405163e1f21c6760e01b81526001600160a01b037f0000000000000000000000000000000000000000000000000000000000000000169063e1f21c6790611323908d908d908d906004016127c6565b6020604051808303815f875af115801561133f573d5f5f3e3d5ffd5b505050506040513d601f19601f8201168201806040525081019061136391906127f9565b5050505050505050505050565b60405163927da10560e01b81523060048201526001600160a01b03838116602483015282811660448301525f917f00000000000000000000000000000000000000000000000000000000000000009091169063927da10590606401602060405180830381865afa1580156113e6573d5f5f3e3d5ffd5b505050506040513d601f19601f8201168201806040525081019061140a9190612877565b9392505050565b7f0000000000000000000000000000000000000000000000000000000000000000907f000000000000000000000000000000000000000000000000000000000000000090565b5f5f5f5f5f61146889898989611848565b935093509350935061147d848484848a611aa0565b9998505050505050505050565b5f806114968385612826565b90506001670de0b6b3a76400006001830304018115150291505092915050565b5f806114ca670de0b6b3a764000085612826565b90506114d68382612d4d565b949350505050565b5f806114ea8385612826565b90506114d6670de0b6b3a764000082612d4d565b5f815f0361151f57604051630a0c22c760e01b815260040160405180910390fd5b508115155f19909201046001010290565b336001600160a01b037f0000000000000000000000000000000000000000000000000000000000000000161461157b573360405163089676d560e01b815260040161120e919061258a565b565b5f6106b7604080517f8b73c3c69bb8fe3d512ecc4cf759cc79239f7b179b0ffacaa9a75d522b39400f60208201527f0000000000000000000000000000000000000000000000000000000000000000918101919091527f000000000000000000000000000000000000000000000000000000000000000060608201524660808201523060a08201525f9060c00160405160208183030381529060405280519060200120905090565b6001600160a01b03165f90815260026020526040902080546001810190915590565b6040805160028082526060820183525f9283928392909160208301908036833701905050905083611678578461167a565b855b815f8151811061168c5761168c61283d565b602002602001018181525050836116a357856116a5565b845b816001815181106116b8576116b861283d565b6020026020010181815250505f5f6116ce611411565b915091505f6116e08484846001611457565b90508615611708576116f381835f611b5b565b955061170181846001611b8e565b9450611724565b61171381845f611b8e565b955061172181836001611b5b565b94505b50505050935093915050565b5f8061173c8488612851565b90505f6117498488612851565b90506117686117588784612851565b61176283896114de565b906114b6565b9250505084811115610f84576040516301dd20c360e11b815260040160405180910390fd5b5f848411156117af576040516301dd20c360e11b815260040160405180910390fd5b5f6117ba8488612851565b90505f6117c78488612851565b90506117e66117d68783612864565b6117e0848961148a565b90611bbc565b98975050505050505050565b60605f805461042e9061278e565b60606001805461042e9061278e565b5f61054761181b61157d565b8360405161190160f01b8152600281019290925260228201526042902090565b5f610f8485858585611bd0565b5f80808061211e60018660018111156118635761186361260a565b1461187057611bbc611874565b6114b65b905061211e600187600181111561188d5761188d61260a565b1461189a5761148a61189e565b6114de5b905061211e60018860018111156118b7576118b761260a565b146118c4576114de6118c8565b61148a5b90506118d88a8a8563ffffffff16565b6118ea90670de0b6b3a7640000612864565b96505f6119158c6001815181106119035761190361283d565b60200260200101518b8663ffffffff16565b90505f61193f8d5f8151811061192d5761192d61283d565b60200260200101518d8663ffffffff16565b905061194b8183612851565b975061198e8d5f815181106119625761196261283d565b60200260200101518e60018151811061197d5761197d61283d565b60200260200101518663ffffffff16565b955050506119db6119d16119c78d5f815181106119ad576119ad61283d565b60200260200101518e5f8151811061197d5761197d61283d565b8c8563ffffffff16565b8b8463ffffffff16565b94505f611a44611a2f611a258e5f815181106119f9576119f961283d565b60200260200101518f600181518110611a1457611a1461283d565b60200260200101518763ffffffff16565b8d8663ffffffff16565b611a3a906002612826565b8b8663ffffffff16565b90505f611a77611a608e6001815181106119f9576119f961283d565b611a6e8d8e8763ffffffff16565b8763ffffffff16565b905080611a848389612851565b611a8e9190612851565b96505050505050945094509450949050565b5f61211e6001836001811115611ab857611ab861260a565b14611ac55761148a611ac9565b6114de5b905061211e6001846001811115611ae257611ae261260a565b14611aef57611bbc611af3565b6114b65b90505f611b01896002612826565b90505f611b12611a3a886004612826565b90505f611b1f828a612851565b90505f611b2d826005611c15565b90505f611b3a828d612851565b9050611b4a81868863ffffffff16565b9d9c50505050505050505050505050565b5f6001826001811115611b7057611b7061260a565b14611b8457611b7f8484611bbc565b6114d6565b6114d684846114b6565b5f6001826001811115611ba357611ba361260a565b14611bb257611b7f848461148a565b6114d684846114de565b5f61140a83670de0b6b3a764000084611e29565b5f604051855f5260ff851660205283604052826060526020600160805f60015afa5191503d611c0657638baa579f5f526004601cfd5b5f606052604052949350505050565b5f825f03611c2457505f610547565b5f611c2e84611e6e565b9050600281611c45670de0b6b3a764000087612826565b611c4f9190612d4d565b611c599083612851565b611c639190612d4d565b9050600281611c7a670de0b6b3a764000087612826565b611c849190612d4d565b611c8e9083612851565b611c989190612d4d565b9050600281611caf670de0b6b3a764000087612826565b611cb99190612d4d565b611cc39083612851565b611ccd9190612d4d565b9050600281611ce4670de0b6b3a764000087612826565b611cee9190612d4d565b611cf89083612851565b611d029190612d4d565b9050600281611d19670de0b6b3a764000087612826565b611d239190612d4d565b611d2d9083612851565b611d379190612d4d565b9050600281611d4e670de0b6b3a764000087612826565b611d589190612d4d565b611d629083612851565b611d6c9190612d4d565b9050600281611d83670de0b6b3a764000087612826565b611d8d9190612d4d565b611d979083612851565b611da19190612d4d565b90505f611dae82806114de565b9050611dba828561148a565b611dc49086612851565b8111158015611de65750611dd8828561148a565b611de29086612864565b8110155b611e215760405162461bcd60e51b815260206004820152600c60248201526b17dcdc5c9d0811905253115160a21b604482015260640161120e565b509392505050565b5f815f03611e4a57604051630a0c22c760e01b815260040160405180910390fd5b5f611e558486612826565b9050600183600183030401811515029150509392505050565b5f670de0b6b3a76400008210611ea757670de0b6b3a7640000611e99611e948285612d4d565b612049565b6001901b6105479190612826565b600a8211611eba575063bc7c871c919050565b60648211611ece57506402540be400919050565b6103e88211611ee3575064075cdd4719919050565b6127108211611ef8575064174876e800919050565b620186a08211611f0e57506449a0a4c700919050565b620f42408211611f24575064e8d4a51000919050565b629896808211611f3b57506502e0466fc608919050565b6305f5e1008211611f5357506509184e72a000919050565b633b9aca008211611f6b5750651cc2c05dbc53919050565b6402540be4008211611f845750655af3107a4000919050565b64174876e8008211611f9e575066011f9b83a95b45919050565b64e8d4a510008211611fb8575066038d7ea4c68000919050565b6509184e72a0008211611fd35750660b3c13249d90bb919050565b655af3107a40008211611fee5750662386f26fc10000919050565b66038d7ea4c68000821161200a5750667058bf6e27a751919050565b662386f26fc100008211612027575067016345785d8a0000919050565b67016345785d8a000082116120455750670463777a4d8c892d919050565b5090565b5f600160801b821061206a5760809190911c90612067604082612851565b90505b600160401b821061208a5760409190911c90612087602082612851565b90505b600160201b82106120aa5760209190911c906120a7601082612851565b90505b6201000082106120c95760109190911c906120c6600882612851565b90505b61010082106120e75760089190911c906120e4600482612851565b90505b601082106121045760049190911c90612101600282612851565b90505b60048210610c945760029190911c90610547600182612851565b61157b612d6c565b5f60208284031215612136575f5ffd5b81356001600160e01b03198116811461140a575f5ffd5b5f81518084528060208401602086015e5f602082860101526020601f19601f83011685010191505092915050565b602081525f61140a602083018461214d565b6001600160a01b0381168114610afe575f5ffd5b5f5f604083850312156121b2575f5ffd5b82356121bd8161218d565b946020939093013593505050565b634e487b7160e01b5f52604160045260245ffd5b60405161014081016001600160401b0381118282101715612202576122026121cb565b60405290565b604051606081016001600160401b0381118282101715612202576122026121cb565b604051601f8201601f191681016001600160401b0381118282101715612252576122526121cb565b604052919050565b5f6001600160401b03821115612272576122726121cb565b5060051b60200190565b5f82601f83011261228b575f5ffd5b813561229e6122998261225a565b61222a565b8082825260208201915060208360051b8601019250858311156122bf575f5ffd5b602085015b838110156122dc5780358352602092830192016122c4565b5095945050505050565b5f5f5f606084860312156122f8575f5ffd5b83356001600160401b0381111561230d575f5ffd5b6123198682870161227c565b9660208601359650604090950135949350505050565b5f5f5f60608486031215612341575f5ffd5b833561234c8161218d565b9250602084013561235c8161218d565b929592945050506040919091013590565b5f8151808452602084019350602083015f5b8281101561239d57815186526020958601959091019060010161237f565b5093949350505050565b602081525f825161010060208401526123c461012084018261236d565b90506020840151601f198483030160408501526123e1828261236d565b9150506040840151606084015260608401516080840152608084015160a084015260a0840151151560c084015260c084015161242160e085018215159052565b5060e0840151801515610100850152509392505050565b5f60208284031215612448575f5ffd5b813561140a8161218d565b5f60208284031215612463575f5ffd5b81356001600160401b03811115612478575f5ffd5b820160e0818503121561140a575f5ffd5b5f8151808452602084019350602083015f5b8281101561239d5781516001600160a01b031686526020958601959091019060010161249b565b602081525f8251608060208401526124dd60a0840182612489565b90506020840151601f198483030160408501526124fa828261236d565b91505060408401516060840152606084015160808401528091505092915050565b60ff60f81b8816815260e060208201525f61253960e083018961214d565b828103604084015261254b818961214d565b606084018890526001600160a01b038716608085015260a0840186905283810360c0850152905061257c818561236d565b9a9950505050505050505050565b6001600160a01b0391909116815260200190565b60028110610afe575f5ffd5b5f5f604083850312156125bb575f5ffd5b82356001600160401b038111156125d0575f5ffd5b6125dc8582860161227c565b92505060208301356125ed8161259e565b809150509250929050565b602081525f61140a6020830184612489565b634e487b7160e01b5f52602160045260245ffd5b608081525f6126306080830187612489565b82810360208401528086518083526020830191506020880192505f5b818110156126ab57835180516002811061267457634e487b7160e01b5f52602160045260245ffd5b84526020818101516001600160a01b031681860152604091820151151591850191909152939093019260609092019160010161264c565b505083810360408501526126bf818761236d565b91505082810360608401526126d4818561236d565b979650505050505050565b602081525f61140a602083018461236d565b5f5f5f5f5f5f5f60e0888a031215612707575f5ffd5b87356127128161218d565b965060208801356127228161218d565b95506040880135945060608801359350608088013560ff81168114612745575f5ffd5b9699959850939692959460a0840135945060c09093013592915050565b5f5f60408385031215612773575f5ffd5b823561277e8161218d565b915060208301356125ed8161218d565b600181811c908216806127a257607f821691505b6020821081036127c057634e487b7160e01b5f52602260045260245ffd5b50919050565b6001600160a01b039384168152919092166020820152604081019190915260600190565b80518015158114610c94575f5ffd5b5f60208284031215612809575f5ffd5b61140a826127ea565b634e487b7160e01b5f52601160045260245ffd5b808202811582820484141761054757610547612812565b634e487b7160e01b5f52603260045260245ffd5b8082018082111561054757610547612812565b8181038181111561054757610547612812565b5f60208284031215612887575f5ffd5b5051919050565b5f82601f83011261289d575f5ffd5b81516128ab6122998261225a565b8082825260208201915060208360051b8601019250858311156128cc575f5ffd5b602085015b838110156122dc5780518352602092830192016128d1565b5f602082840312156128f9575f5ffd5b81516001600160401b0381111561290e575f5ffd5b6114d68482850161288e565b5f5f6040838503121561292b575f5ffd5b82516001600160401b03811115612940575f5ffd5b61294c8582860161288e565b602085015190935090506001600160401b03811115612969575f5ffd5b6129758582860161288e565b9150509250929050565b5f6080828403121561298f575f5ffd5b604051608081016001600160401b03811182821017156129b1576129b16121cb565b6040529050806129c0836127ea565b81526129ce602084016127ea565b60208201526129df604084016127ea565b60408201526129f0606084016127ea565b60608201525092915050565b805164ffffffffff81168114610c94575f5ffd5b805163ffffffff81168114610c94575f5ffd5b5f6101a0828403128015612a35575f5ffd5b50612a3e6121df565b612a48848461297f565b81526080830151602082015260a0830151604082015260c08301516060820152612a7460e084016129fc565b6080820152612a866101008401612a10565b60a0820152612a9861012084016127ea565b60c0820152612aaa61014084016127ea565b60e0820152612abc61016084016127ea565b610100820152612acf61018084016127ea565b6101208201529392505050565b6001600160a01b0392831681529116602082015260400190565b5f5f8335601e19843603018112612b0b575f5ffd5b8301803591506001600160401b03821115612b24575f5ffd5b6020019150600581901b3603821315612b3b575f5ffd5b9250929050565b5f60208284031215612b52575f5ffd5b813561140a8161259e565b5f82601f830112612b6c575f5ffd5b8151612b7a6122998261225a565b8082825260208201915060208360051b860101925085831115612b9b575f5ffd5b602085015b838110156122dc578051612bb38161218d565b835260209283019201612ba0565b5f60208284031215612bd1575f5ffd5b81516001600160401b03811115612be6575f5ffd5b6114d684828501612b5d565b5f5f5f5f60808587031215612c05575f5ffd5b84516001600160401b03811115612c1a575f5ffd5b612c2687828801612b5d565b602087015190955090506001600160401b03811115612c43575f5ffd5b8501601f81018713612c53575f5ffd5b8051612c616122998261225a565b80828252602082019150602060608402850101925089831115612c82575f5ffd5b6020840193505b82841015612ced576060848b031215612ca0575f5ffd5b612ca8612208565b8451612cb38161259e565b81526020850151612cc38161218d565b6020820152612cd4604086016127ea565b6040820152825260609390930192602090910190612c89565b6040890151909650925050506001600160401b03811115612d0c575f5ffd5b612d188782880161288e565b606087015190935090506001600160401b03811115612d35575f5ffd5b612d418782880161288e565b91505092959194509250565b5f82612d6757634e487b7160e01b5f52601260045260245ffd5b500490565b634e487b7160e01b5f52605160045260245ffdfe6e71edae12b1b97f4d1f60370fef10105fa2faae0126114a169c64845d6126c9a264697066735822122067f1fdcfacf6618ed1170bcbea3f33e1945d862a6fdcbef300844fe50ef2a17764736f6c634300081e0033","linkReferences":{}},"methodIdentifiers":{"DOMAIN_SEPARATOR()":"3644e515","PERMIT_TYPEHASH()":"30adf81f","allowance(address,address)":"dd62ed3e","approve(address,uint256)":"095ea7b3","balanceOf(address)":"70a08231","computeBalance(uint256[],uint256,uint256)":"16a0b3e0","computeInvariant(uint256[],uint8)":"984de9e8","decimals()":"313ce567","eip712Domain()":"84b0196e","emitApproval(address,address,uint256)":"5687f2b8","emitTransfer(address,address,uint256)":"23de6651","getAggregateFeePercentages()":"81fa807c","getCurrentLiveBalances()":"b156aa0a","getGyro2CLPPoolDynamicData()":"61f82d57","getGyro2CLPPoolImmutableData()":"7e148d61","getMaximumInvariantRatio()":"273c1adf","getMaximumSwapFeePercentage()":"654cf15d","getMinimumInvariantRatio()":"b677fa56","getMinimumSwapFeePercentage()":"ce20ece7","getRate()":"679aefce","getStaticSwapFeePercentage()":"d335b0cf","getTokenInfo()":"abb1dc44","getTokens()":"aa6ca808","getVault()":"8d928af8","incrementNonce()":"627cdcb9","name()":"06fdde03","nonces(address)":"7ecebe00","onSwap((uint8,uint256,uint256[],uint256,uint256,address,bytes))":"72c98186","permit(address,address,uint256,uint256,uint8,bytes32,bytes32)":"d505accf","supportsInterface(bytes4)":"01ffc9a7","symbol()":"95d89b41","totalSupply()":"18160ddd","transfer(address,uint256)":"a9059cbb","transferFrom(address,address,uint256)":"23b872dd","version()":"54fd4d50"},"id":121}