{"abi":[{"type":"constructor","inputs":[{"name":"tokenIndex","type":"uint32","internalType":"uint32"},{"name":"pairIndex","type":"uint32","internalType":"uint32"}],"stateMutability":"nonpayable"},{"type":"function","name":"getPairIndex","inputs":[],"outputs":[{"name":"","type":"uint32","internalType":"uint32"}],"stateMutability":"view"},{"type":"function","name":"getRate","inputs":[],"outputs":[{"name":"","type":"uint256","internalType":"uint256"}],"stateMutability":"view"},{"type":"function","name":"getSpotPriceMultiplier","inputs":[],"outputs":[{"name":"","type":"uint256","internalType":"uint256"}],"stateMutability":"view"},{"type":"function","name":"getTokenIndex","inputs":[],"outputs":[{"name":"","type":"uint32","internalType":"uint32"}],"stateMutability":"view"},{"type":"error","name":"SpotPriceIsZero","inputs":[]},{"type":"error","name":"SpotPricePrecompileFailed","inputs":[]},{"type":"error","name":"TokenInfoPrecompileFailed","inputs":[]}],"bytecode":{"object":"0x60e060405234801561000f575f5ffd5b5060405161086638038061086683398101604081905261002e9161014e565b5f6100388361007a565b9050610045816008610193565b61005090600a610295565b61006290670de0b6b3a76400006102aa565b6080525063ffffffff90811660a0521660c052610584565b6040805163ffffffff831660208201525f918291829161080c910160408051601f19818403018152908290526100af916102c9565b5f60405180830381855afa9150503d805f81146100e7576040519150601f19603f3d011682016040523d82523d5f602084013e6100ec565b606091505b5090925090508115155f0361011457604051631870604d60e21b815260040160405180910390fd5b5f818060200190518101906101299190610489565b60a0015195945050505050565b805163ffffffff81168114610149575f5ffd5b919050565b5f5f6040838503121561015f575f5ffd5b61016883610136565b915061017660208401610136565b90509250929050565b634e487b7160e01b5f52601160045260245ffd5b60ff82811682821603908111156101ac576101ac61017f565b92915050565b6001815b60018411156101ed578085048111156101d1576101d161017f565b60018416156101df57908102905b60019390931c9280026101b6565b935093915050565b5f82610203575060016101ac565b8161020f57505f6101ac565b8160018114610225576002811461022f5761024b565b60019150506101ac565b60ff8411156102405761024061017f565b50506001821b6101ac565b5060208310610133831016604e8410600b841016171561026e575081810a6101ac565b61027a5f1984846101b2565b805f190482111561028d5761028d61017f565b029392505050565b5f6102a360ff8416836101f5565b9392505050565b5f826102c457634e487b7160e01b5f52601260045260245ffd5b500490565b5f82518060208501845e5f920191825250919050565b634e487b7160e01b5f52604160045260245ffd5b60405161010081016001600160401b0381118282101715610316576103166102df565b60405290565b604051601f8201601f191681016001600160401b0381118282101715610344576103446102df565b604052919050565b5f82601f83011261035b575f5ffd5b81516001600160401b03811115610374576103746102df565b610387601f8201601f191660200161031c565b81815284602083860101111561039b575f5ffd5b8160208501602083015e5f918101602001919091529392505050565b80516001600160401b0381168114610149575f5ffd5b5f82601f8301126103dc575f5ffd5b81516001600160401b038111156103f5576103f56102df565b8060051b6104056020820161031c565b91825260208185018101929081019086841115610420575f5ffd5b6020860192505b8383101561044957610438836103b7565b825260209283019290910190610427565b9695505050505050565b80516001600160a01b0381168114610149575f5ffd5b805160ff81168114610149575f5ffd5b80515f81900b8114610149575f5ffd5b5f60208284031215610499575f5ffd5b81516001600160401b038111156104ae575f5ffd5b820161010081850312156104c0575f5ffd5b6104c86102f3565b81516001600160401b038111156104dd575f5ffd5b6104e98682850161034c565b82525060208201516001600160401b03811115610504575f5ffd5b610510868285016103cd565b602083015250610522604083016103b7565b604082015261053360608301610453565b606082015261054460808301610453565b608082015261055560a08301610469565b60a082015261056660c08301610469565b60c082015261057760e08301610479565b60e0820152949350505050565b60805160a05160c0516102ae6105b85f395f605001525f818160a2015260f301525f818160c8015261011e01526102ae5ff3fe608060405234801561000f575f5ffd5b506004361061004a575f3560e01c8063295d3ee81461004e578063679aefce1461008a57806381bfa5d1146100a0578063a747d56f146100c6575b5f5ffd5b7f00000000000000000000000000000000000000000000000000000000000000005b60405163ffffffff90911681526020015b60405180910390f35b6100926100ec565b604051908152602001610081565b7f0000000000000000000000000000000000000000000000000000000000000000610070565b7f0000000000000000000000000000000000000000000000000000000000000000610092565b5f5f6101177f0000000000000000000000000000000000000000000000000000000000000000610149565b90506101437f000000000000000000000000000000000000000000000000000000000000000082610222565b91505090565b6040805163ffffffff831660208201525f9182918291610808910160408051601f198184030181529082905261017e9161024b565b5f60405180830381855afa9150503d805f81146101b6576040519150601f19603f3d011682016040523d82523d5f602084013e6101bb565b606091505b5090925090508115155f036101e3576040516379827df560e01b815260040160405180910390fd5b5f818060200190518101906101f89190610261565b9050805f0361021a576040516311149b0960e21b815260040160405180910390fd5b949350505050565b808202811582820484141761024557634e487b7160e01b5f52601160045260245ffd5b92915050565b5f82518060208501845e5f920191825250919050565b5f60208284031215610271575f5ffd5b505191905056fea264697066735822122004831ac41b1c400506c75bea1cb84aec78840ead75e00d0aff4815ffa1d19e5b64736f6c634300081e0033","linkReferences":{}},"methodIdentifiers":{"getPairIndex()":"81bfa5d1","getRate()":"679aefce","getSpotPriceMultiplier()":"a747d56f","getTokenIndex()":"295d3ee8"},"id":307}