{"abi":[{"type":"constructor","inputs":[{"name":"vault","type":"address","internalType":"contract IVault"},{"name":"name","type":"string","internalType":"string"},{"name":"symbol","type":"string","internalType":"string"}],"stateMutability":"nonpayable"},{"type":"function","name":"DOMAIN_SEPARATOR","inputs":[],"outputs":[{"name":"","type":"bytes32","internalType":"bytes32"}],"stateMutability":"view"},{"type":"function","name":"PERMIT_TYPEHASH","inputs":[],"outputs":[{"name":"","type":"bytes32","internalType":"bytes32"}],"stateMutability":"view"},{"type":"function","name":"allowance","inputs":[{"name":"owner","type":"address","internalType":"address"},{"name":"spender","type":"address","internalType":"address"}],"outputs":[{"name":"","type":"uint256","internalType":"uint256"}],"stateMutability":"view"},{"type":"function","name":"approve","inputs":[{"name":"spender","type":"address","internalType":"address"},{"name":"amount","type":"uint256","internalType":"uint256"}],"outputs":[{"name":"","type":"bool","internalType":"bool"}],"stateMutability":"nonpayable"},{"type":"function","name":"balanceOf","inputs":[{"name":"account","type":"address","internalType":"address"}],"outputs":[{"name":"","type":"uint256","internalType":"uint256"}],"stateMutability":"view"},{"type":"function","name":"computeBalance","inputs":[{"name":"balances","type":"uint256[]","internalType":"uint256[]"},{"name":"tokenInIndex","type":"uint256","internalType":"uint256"},{"name":"invariantRatio","type":"uint256","internalType":"uint256"}],"outputs":[{"name":"newBalance","type":"uint256","internalType":"uint256"}],"stateMutability":"pure"},{"type":"function","name":"computeInvariant","inputs":[{"name":"balances","type":"uint256[]","internalType":"uint256[]"},{"name":"","type":"uint8","internalType":"enum Rounding"}],"outputs":[{"name":"","type":"uint256","internalType":"uint256"}],"stateMutability":"pure"},{"type":"function","name":"decimals","inputs":[],"outputs":[{"name":"","type":"uint8","internalType":"uint8"}],"stateMutability":"pure"},{"type":"function","name":"eip712Domain","inputs":[],"outputs":[{"name":"fields","type":"bytes1","internalType":"bytes1"},{"name":"name","type":"string","internalType":"string"},{"name":"version","type":"string","internalType":"string"},{"name":"chainId","type":"uint256","internalType":"uint256"},{"name":"verifyingContract","type":"address","internalType":"address"},{"name":"salt","type":"bytes32","internalType":"bytes32"},{"name":"extensions","type":"uint256[]","internalType":"uint256[]"}],"stateMutability":"view"},{"type":"function","name":"emitApproval","inputs":[{"name":"owner","type":"address","internalType":"address"},{"name":"spender","type":"address","internalType":"address"},{"name":"amount","type":"uint256","internalType":"uint256"}],"outputs":[],"stateMutability":"nonpayable"},{"type":"function","name":"emitTransfer","inputs":[{"name":"from","type":"address","internalType":"address"},{"name":"to","type":"address","internalType":"address"},{"name":"amount","type":"uint256","internalType":"uint256"}],"outputs":[],"stateMutability":"nonpayable"},{"type":"function","name":"getAggregateFeePercentages","inputs":[],"outputs":[{"name":"aggregateSwapFeePercentage","type":"uint256","internalType":"uint256"},{"name":"aggregateYieldFeePercentage","type":"uint256","internalType":"uint256"}],"stateMutability":"view"},{"type":"function","name":"getDecimalScalingFactors","inputs":[],"outputs":[{"name":"scalingFactors","type":"uint256[]","internalType":"uint256[]"}],"stateMutability":"view"},{"type":"function","name":"getMaximumInvariantRatio","inputs":[],"outputs":[{"name":"","type":"uint256","internalType":"uint256"}],"stateMutability":"view"},{"type":"function","name":"getMaximumSwapFeePercentage","inputs":[],"outputs":[{"name":"","type":"uint256","internalType":"uint256"}],"stateMutability":"pure"},{"type":"function","name":"getMinimumInvariantRatio","inputs":[],"outputs":[{"name":"","type":"uint256","internalType":"uint256"}],"stateMutability":"view"},{"type":"function","name":"getMinimumSwapFeePercentage","inputs":[],"outputs":[{"name":"","type":"uint256","internalType":"uint256"}],"stateMutability":"pure"},{"type":"function","name":"getRate","inputs":[],"outputs":[{"name":"","type":"uint256","internalType":"uint256"}],"stateMutability":"view"},{"type":"function","name":"getTokenInfo","inputs":[],"outputs":[{"name":"tokens","type":"address[]","internalType":"contract IERC20[]"},{"name":"tokenInfo","type":"tuple[]","internalType":"struct TokenInfo[]","components":[{"name":"tokenType","type":"uint8","internalType":"enum TokenType"},{"name":"rateProvider","type":"address","internalType":"contract IRateProvider"},{"name":"paysYieldFees","type":"bool","internalType":"bool"}]},{"name":"balancesRaw","type":"uint256[]","internalType":"uint256[]"},{"name":"lastBalancesLiveScaled18","type":"uint256[]","internalType":"uint256[]"}],"stateMutability":"view"},{"type":"function","name":"getVault","inputs":[],"outputs":[{"name":"","type":"address","internalType":"contract IVault"}],"stateMutability":"view"},{"type":"function","name":"incrementNonce","inputs":[],"outputs":[],"stateMutability":"nonpayable"},{"type":"function","name":"mockEventFunction","inputs":[{"name":"testValue","type":"uint256","internalType":"uint256"}],"outputs":[],"stateMutability":"nonpayable"},{"type":"function","name":"name","inputs":[],"outputs":[{"name":"","type":"string","internalType":"string"}],"stateMutability":"view"},{"type":"function","name":"nonces","inputs":[{"name":"owner","type":"address","internalType":"address"}],"outputs":[{"name":"","type":"uint256","internalType":"uint256"}],"stateMutability":"view"},{"type":"function","name":"onAddLiquidityCustom","inputs":[{"name":"","type":"address","internalType":"address"},{"name":"maxAmountsInScaled18","type":"uint256[]","internalType":"uint256[]"},{"name":"minBptAmountOut","type":"uint256","internalType":"uint256"},{"name":"","type":"uint256[]","internalType":"uint256[]"},{"name":"userData","type":"bytes","internalType":"bytes"}],"outputs":[{"name":"","type":"uint256[]","internalType":"uint256[]"},{"name":"","type":"uint256","internalType":"uint256"},{"name":"","type":"uint256[]","internalType":"uint256[]"},{"name":"","type":"bytes","internalType":"bytes"}],"stateMutability":"pure"},{"type":"function","name":"onRemoveLiquidityCustom","inputs":[{"name":"","type":"address","internalType":"address"},{"name":"maxBptAmountIn","type":"uint256","internalType":"uint256"},{"name":"minAmountsOut","type":"uint256[]","internalType":"uint256[]"},{"name":"","type":"uint256[]","internalType":"uint256[]"},{"name":"userData","type":"bytes","internalType":"bytes"}],"outputs":[{"name":"","type":"uint256","internalType":"uint256"},{"name":"","type":"uint256[]","internalType":"uint256[]"},{"name":"","type":"uint256[]","internalType":"uint256[]"},{"name":"","type":"bytes","internalType":"bytes"}],"stateMutability":"pure"},{"type":"function","name":"onSwap","inputs":[{"name":"params","type":"tuple","internalType":"struct PoolSwapParams","components":[{"name":"kind","type":"uint8","internalType":"enum SwapKind"},{"name":"amountGivenScaled18","type":"uint256","internalType":"uint256"},{"name":"balancesScaled18","type":"uint256[]","internalType":"uint256[]"},{"name":"indexIn","type":"uint256","internalType":"uint256"},{"name":"indexOut","type":"uint256","internalType":"uint256"},{"name":"router","type":"address","internalType":"address"},{"name":"userData","type":"bytes","internalType":"bytes"}]}],"outputs":[{"name":"amountCalculated","type":"uint256","internalType":"uint256"}],"stateMutability":"view"},{"type":"function","name":"permit","inputs":[{"name":"owner","type":"address","internalType":"address"},{"name":"spender","type":"address","internalType":"address"},{"name":"amount","type":"uint256","internalType":"uint256"},{"name":"deadline","type":"uint256","internalType":"uint256"},{"name":"v","type":"uint8","internalType":"uint8"},{"name":"r","type":"bytes32","internalType":"bytes32"},{"name":"s","type":"bytes32","internalType":"bytes32"}],"outputs":[],"stateMutability":"nonpayable"},{"type":"function","name":"setMockRate","inputs":[{"name":"mockRate","type":"uint256","internalType":"uint256"}],"outputs":[],"stateMutability":"nonpayable"},{"type":"function","name":"setMultiplier","inputs":[{"name":"newMultiplier","type":"uint256","internalType":"uint256"}],"outputs":[],"stateMutability":"nonpayable"},{"type":"function","name":"supportsInterface","inputs":[{"name":"interfaceId","type":"bytes4","internalType":"bytes4"}],"outputs":[{"name":"","type":"bool","internalType":"bool"}],"stateMutability":"view"},{"type":"function","name":"symbol","inputs":[],"outputs":[{"name":"","type":"string","internalType":"string"}],"stateMutability":"view"},{"type":"function","name":"totalSupply","inputs":[],"outputs":[{"name":"","type":"uint256","internalType":"uint256"}],"stateMutability":"view"},{"type":"function","name":"transfer","inputs":[{"name":"to","type":"address","internalType":"address"},{"name":"amount","type":"uint256","internalType":"uint256"}],"outputs":[{"name":"","type":"bool","internalType":"bool"}],"stateMutability":"nonpayable"},{"type":"function","name":"transferFrom","inputs":[{"name":"from","type":"address","internalType":"address"},{"name":"to","type":"address","internalType":"address"},{"name":"amount","type":"uint256","internalType":"uint256"}],"outputs":[{"name":"","type":"bool","internalType":"bool"}],"stateMutability":"nonpayable"},{"type":"event","name":"Approval","inputs":[{"name":"owner","type":"address","indexed":true,"internalType":"address"},{"name":"spender","type":"address","indexed":true,"internalType":"address"},{"name":"amount","type":"uint256","indexed":false,"internalType":"uint256"}],"anonymous":false},{"type":"event","name":"EIP712DomainChanged","inputs":[],"anonymous":false},{"type":"event","name":"Transfer","inputs":[{"name":"from","type":"address","indexed":true,"internalType":"address"},{"name":"to","type":"address","indexed":true,"internalType":"address"},{"name":"amount","type":"uint256","indexed":false,"internalType":"uint256"}],"anonymous":false},{"type":"error","name":"ERC2612ExpiredSignature","inputs":[{"name":"deadline","type":"uint256","internalType":"uint256"}]},{"type":"error","name":"ERC2612InvalidSigner","inputs":[{"name":"signer","type":"address","internalType":"address"},{"name":"owner","type":"address","internalType":"address"}]},{"type":"error","name":"InvalidAccountNonce","inputs":[{"name":"account","type":"address","internalType":"address"},{"name":"currentNonce","type":"uint256","internalType":"uint256"}]},{"type":"error","name":"SenderIsNotVault","inputs":[{"name":"sender","type":"address","internalType":"address"}]}],"bytecode":{"object":"0x60e0604052670de0b6b3a764000060055534801561001b575f5ffd5b506040516121cb3803806121cb83398101604081905261003a91610156565b8282828282604051806040016040528060018152602001603160f81b815250815f9081610067919061025c565b506001610074828261025c565b508151602092830120608052805191012060a0526001600160a01b031660c05260036100a0838261025c565b5060046100ad828261025c565b50505050505050610316565b634e487b7160e01b5f52604160045260245ffd5b5f82601f8301126100dc575f5ffd5b81516001600160401b038111156100f5576100f56100b9565b604051601f8201601f19908116603f011681016001600160401b0381118282101715610123576101236100b9565b60405281815283820160200185101561013a575f5ffd5b8160208501602083015e5f918101602001919091529392505050565b5f5f5f60608486031215610168575f5ffd5b83516001600160a01b038116811461017e575f5ffd5b60208501519093506001600160401b03811115610199575f5ffd5b6101a5868287016100cd565b604086015190935090506001600160401b038111156101c2575f5ffd5b6101ce868287016100cd565b9150509250925092565b600181811c908216806101ec57607f821691505b60208210810361020a57634e487b7160e01b5f52602260045260245ffd5b50919050565b601f82111561025757805f5260205f20601f840160051c810160208510156102355750805b601f840160051c820191505b81811015610254575f8155600101610241565b50505b505050565b81516001600160401b03811115610275576102756100b9565b6102898161028384546101d8565b84610210565b6020601f8211600181146102bb575f83156102a45750848201515b5f19600385901b1c1916600184901b178455610254565b5f84815260208120601f198516915b828110156102ea57878501518255602094850194600190920191016102ca565b508482101561030757868401515f19600387901b60f8161c191681555b50505050600190811b01905550565b60805160a05160c051611e376103945f395f81816104fb015281816105ea0152818161069901528181610784015281816108940152818161097a01528181610a5d01528181610aeb01528181610b8b01528181610c2601528181610dbd01528181610e720152610f3801525f610fd201525f610faa0152611e375ff3fe608060405234801561000f575f5ffd5b506004361061019f575f3560e01c806301ffc9a7146101a357806306fdde03146101dc578063095ea7b3146101f157806316a0b3e01461020457806318160ddd1461022557806323b872dd1461022d57806323de665114610240578063273c1adf1461025557806330adf81f1461026a578063313ce5671461027e578063360c340f1461028d5780633644e515146102a25780634cfe8d1a146102aa5780635687f2b8146102bd578063627cdcb9146102d0578063641579a6146102d8578063654cf15d146102eb578063679aefce146102f957806370a082311461030157806372c98186146103145780637ecebe001461032757806381fa807c1461033a57806384b0196e146103575780638d928af81461037257806395d89b4114610387578063984de9e81461038f578063a9059cbb146103a2578063ab68e28c146103b5578063abb1dc44146103d8578063b0e2e403146103f0578063b677fa5614610403578063ce20ece714610403578063d505accf14610409578063dd62ed3e1461041c578063e4c436631461042f575b5f5ffd5b6101c76101b136600461112e565b6001600160e01b0319166301ffc9a760e01b1490565b60405190151581526020015b60405180910390f35b6101e4610452565b6040516101d39190611183565b6101c76101ff3660046111a9565b6104e2565b6102176102123660046112ee565b610580565b6040519081526020016101d3565b6102176105d1565b6101c761023b366004611337565b610663565b61025361024e366004611337565b610710565b005b6b1d6329f1c35ca4bfabb9f56160281b610217565b6102175f516020611de25f395f51905f5281565b604051601281526020016101d3565b61029561076a565b6040516101d391906113af565b610217610800565b6102536102b83660046113c1565b600655565b6102536102cb366004611337565b610809565b610253610856565b6102536102e63660046113c1565b600555565b670de0b6b3a7640000610217565b610217610862565b61021761030f3660046113d8565b61087b565b6102176103223660046113f3565b61090a565b6102176103353660046113d8565b610958565b610342610975565b604080519283526020830191909152016101d3565b61035f610a19565b6040516101d39796959493929190611429565b61037a610a5b565b6040516101d39190611498565b6101e4610a7f565b61021761039d3660046114b8565b610a8e565b6101c76103b03660046111a9565b610ad2565b6103c86103c3366004611571565b610b24565b6040516101d39493929190611618565b6103e0610b83565b6040516101d39493929190611675565b6102536103fe3660046113c1565b610c24565b5f610217565b610253610417366004611761565b610cc1565b61021761042a3660046117d2565b610e43565b61044261043d3660046117fe565b610ee4565b6040516101d39493929190611865565b6060600380546104619061188f565b80601f016020809104026020016040519081016040528092919081815260200182805461048d9061188f565b80156104d85780601f106104af576101008083540402835291602001916104d8565b820191905f5260205f20905b8154815290600101906020018083116104bb57829003601f168201915b5050505050905090565b60405163e1f21c6760e01b81525f906001600160a01b037f0000000000000000000000000000000000000000000000000000000000000000169063e1f21c6790610534903390879087906004016118c1565b6020604051808303815f875af1158015610550573d5f5f3e3d5ffd5b505050506040513d601f19601f8201168201806040525081019061057491906118f9565b50600190505b92915050565b5f5f61058d856001610a8e565b90508061059a8185610f05565b8686815181106105ac576105ac611912565b60200260200101516105be919061193a565b6105c8919061194d565b95945050505050565b6040516339370aa960e21b81525f906001600160a01b037f0000000000000000000000000000000000000000000000000000000000000000169063e4dc2aa49061061f903090600401611498565b602060405180830381865afa15801561063a573d5f5f3e3d5ffd5b505050506040513d601f19601f8201168201806040525081019061065e9190611960565b905090565b604051630aed65f560e11b81523360048201526001600160a01b0384811660248301528381166044830152606482018390525f917f0000000000000000000000000000000000000000000000000000000000000000909116906315dacbea906084016020604051808303815f875af11580156106e1573d5f5f3e3d5ffd5b505050506040513d601f19601f8201168201806040525081019061070591906118f9565b506001949350505050565b610718610f2d565b816001600160a01b0316836001600160a01b03167fddf252ad1be2c89b69c2b068fc378daa952ba7f163c4a11628f55a4df523b3ef8360405161075d91815260200190565b60405180910390a3505050565b604051633f1b0def60e11b81526060906001600160a01b037f00000000000000000000000000000000000000000000000000000000000000001690637e361bde906107b9903090600401611498565b5f60405180830381865afa1580156107d3573d5f5f3e3d5ffd5b505050506040513d5f823e601f3d908101601f191682016040526107fa91908101906119d2565b50919050565b5f61065e610f7a565b610811610f2d565b816001600160a01b0316836001600160a01b03167f8c5be1e5ebec7d5bd14f71427d1e84f3dd0314c0f7b2291e5b200ac8c7c3b9258360405161075d91815260200190565b61085f33611022565b50565b5f6006545f14610873575060065490565b61065e611044565b604051633de222bb60e21b81525f906001600160a01b037f0000000000000000000000000000000000000000000000000000000000000000169063f7888aec906108cb9030908690600401611a37565b602060405180830381865afa1580156108e6573d5f5f3e3d5ffd5b505050506040513d601f19601f8201168201806040525081019061057a9190611960565b5f806109196020840184611a51565b600181111561092a5761092a611661565b146109465760055461094190602084013590611078565b61057a565b60055461057a90602084013590610f05565b6001600160a01b0381165f9081526002602052604081205461057a565b5f5f5f7f00000000000000000000000000000000000000000000000000000000000000006001600160a01b031663f29486a1306040518263ffffffff1660e01b81526004016109c49190611498565b6101a060405180830381865afa1580156109e0573d5f5f3e3d5ffd5b505050506040513d601f19601f82011682018060405250810190610a049190611b10565b90508060400151925080606001519150509091565b5f6060805f5f5f6060610a2a611098565b610a326110a6565b604080515f80825260208201909252600f60f81b9b939a50919850469750309650945092509050565b7f000000000000000000000000000000000000000000000000000000000000000090565b6060600480546104619061188f565b5f80805b8451811015610aca57848181518110610aad57610aad611912565b602002602001015182610ac0919061193a565b9150600101610a92565b509392505050565b6040516317d5759960e31b81525f906001600160a01b037f0000000000000000000000000000000000000000000000000000000000000000169063beabacc890610534903390879087906004016118c1565b5f6060806060878788516001600160401b03811115610b4557610b456111d3565b604051908082528060200260200182016040528015610b6e578160200160208202803683370190505b50919b909a5090985094965093945050505050565b6060806060807f00000000000000000000000000000000000000000000000000000000000000006001600160a01b03166367e0e076306040518263ffffffff1660e01b8152600401610bd59190611498565b5f60405180830381865afa158015610bef573d5f5f3e3d5ffd5b505050506040513d5f823e601f3d908101601f19168201604052610c169190810190611c6c565b935093509350935090919293565b7f00000000000000000000000000000000000000000000000000000000000000006001600160a01b031663c808824782604051602001610c6691815260200190565b6040516020818303038152906040526040518263ffffffff1660e01b8152600401610c919190611d87565b5f604051808303815f87803b158015610ca8575f5ffd5b505af1158015610cba573d5f5f3e3d5ffd5b5050505050565b83421115610cea5760405163313c898160e11b8152600481018590526024015b60405180910390fd5b5f5f516020611de25f395f51905f52888888610d058c611022565b6040805160208101969096526001600160a01b0394851690860152929091166060840152608083015260a082015260c0810186905260e0016040516020818303038152906040528051906020012090505f610d5f826110b5565b90505f610d6e828787876110e1565b9050896001600160a01b0316816001600160a01b031614610da657808a6040516325c0072360e11b8152600401610ce1929190611a37565b60405163e1f21c6760e01b81526001600160a01b037f0000000000000000000000000000000000000000000000000000000000000000169063e1f21c6790610df6908d908d908d906004016118c1565b6020604051808303815f875af1158015610e12573d5f5f3e3d5ffd5b505050506040513d601f19601f82011682018060405250810190610e3691906118f9565b5050505050505050505050565b60405163927da10560e01b81523060048201526001600160a01b03838116602483015282811660448301525f917f00000000000000000000000000000000000000000000000000000000000000009091169063927da10590606401602060405180830381865afa158015610eb9573d5f5f3e3d5ffd5b505050506040513d601f19601f82011682018060405250810190610edd9190611960565b9392505050565b60605f606080878789516001600160401b03811115610b4557610b456111d3565b5f80610f118385611dab565b9050610f25670de0b6b3a764000082611dc2565b949350505050565b336001600160a01b037f00000000000000000000000000000000000000000000000000000000000000001614610f78573360405163089676d560e01b8152600401610ce19190611498565b565b5f61065e604080517f8b73c3c69bb8fe3d512ecc4cf759cc79239f7b179b0ffacaa9a75d522b39400f60208201527f0000000000000000000000000000000000000000000000000000000000000000918101919091527f000000000000000000000000000000000000000000000000000000000000000060608201524660808201523060a08201525f9060c00160405160208183030381529060405280519060200120905090565b6001600160a01b03165f90815260026020526040902080546001810190915590565b5f61104d610a5b565b6001600160a01b0316634f037ee7306040518263ffffffff1660e01b815260040161061f9190611498565b5f8061108c670de0b6b3a764000085611dab565b9050610f258382611dc2565b60605f80546104619061188f565b6060600180546104619061188f565b5f61057a6110c1610f7a565b8360405161190160f01b8152600281019290925260228201526042902090565b5f6105c8858585855f604051855f5260ff851660205283604052826060526020600160805f60015afa5191503d61111f57638baa579f5f526004601cfd5b5f606052604052949350505050565b5f6020828403121561113e575f5ffd5b81356001600160e01b031981168114610edd575f5ffd5b5f81518084528060208401602086015e5f602082860101526020601f19601f83011685010191505092915050565b602081525f610edd6020830184611155565b6001600160a01b038116811461085f575f5ffd5b5f5f604083850312156111ba575f5ffd5b82356111c581611195565b946020939093013593505050565b634e487b7160e01b5f52604160045260245ffd5b60405161014081016001600160401b038111828210171561120a5761120a6111d3565b60405290565b604051606081016001600160401b038111828210171561120a5761120a6111d3565b604051601f8201601f191681016001600160401b038111828210171561125a5761125a6111d3565b604052919050565b5f6001600160401b0382111561127a5761127a6111d3565b5060051b60200190565b5f82601f830112611293575f5ffd5b81356112a66112a182611262565b611232565b8082825260208201915060208360051b8601019250858311156112c7575f5ffd5b602085015b838110156112e45780358352602092830192016112cc565b5095945050505050565b5f5f5f60608486031215611300575f5ffd5b83356001600160401b03811115611315575f5ffd5b61132186828701611284565b9660208601359650604090950135949350505050565b5f5f5f60608486031215611349575f5ffd5b833561135481611195565b9250602084013561136481611195565b929592945050506040919091013590565b5f8151808452602084019350602083015f5b828110156113a5578151865260209586019590910190600101611387565b5093949350505050565b602081525f610edd6020830184611375565b5f602082840312156113d1575f5ffd5b5035919050565b5f602082840312156113e8575f5ffd5b8135610edd81611195565b5f60208284031215611403575f5ffd5b81356001600160401b03811115611418575f5ffd5b820160e08185031215610edd575f5ffd5b60ff60f81b8816815260e060208201525f61144760e0830189611155565b82810360408401526114598189611155565b606084018890526001600160a01b038716608085015260a0840186905283810360c0850152905061148a8185611375565b9a9950505050505050505050565b6001600160a01b0391909116815260200190565b6002811061085f575f5ffd5b5f5f604083850312156114c9575f5ffd5b82356001600160401b038111156114de575f5ffd5b6114ea85828601611284565b92505060208301356114fb816114ac565b809150509250929050565b5f82601f830112611515575f5ffd5b81356001600160401b0381111561152e5761152e6111d3565b611541601f8201601f1916602001611232565b818152846020838601011115611555575f5ffd5b816020850160208301375f918101602001919091529392505050565b5f5f5f5f5f60a08688031215611585575f5ffd5b853561159081611195565b94506020860135935060408601356001600160401b038111156115b1575f5ffd5b6115bd88828901611284565b93505060608601356001600160401b038111156115d8575f5ffd5b6115e488828901611284565b92505060808601356001600160401b038111156115ff575f5ffd5b61160b88828901611506565b9150509295509295909350565b848152608060208201525f6116306080830186611375565b82810360408401526116428186611375565b905082810360608401526116568185611155565b979650505050505050565b634e487b7160e01b5f52602160045260245ffd5b608080825285519082018190525f90602087019060a0840190835b818110156116b75783516001600160a01b0316835260209384019390920191600101611690565b505083810360208501528091505f87518083526020830193506020890192505f5b8181101561173757835180516002811061170057634e487b7160e01b5f52602160045260245ffd5b86526020818101516001600160a01b03168188015260409182015115159187019190915260609095019493909301926001016116d8565b50505050828103604084015261174d8186611375565b905082810360608401526116568185611375565b5f5f5f5f5f5f5f60e0888a031215611777575f5ffd5b873561178281611195565b9650602088013561179281611195565b95506040880135945060608801359350608088013560ff811681146117b5575f5ffd5b9699959850939692959460a0840135945060c09093013592915050565b5f5f604083850312156117e3575f5ffd5b82356117ee81611195565b915060208301356114fb81611195565b5f5f5f5f5f60a08688031215611812575f5ffd5b853561181d81611195565b945060208601356001600160401b03811115611837575f5ffd5b61184388828901611284565b9450506040860135925060608601356001600160401b038111156115d8575f5ffd5b608081525f6118776080830187611375565b85602084015282810360408401526116428186611375565b600181811c908216806118a357607f821691505b6020821081036107fa57634e487b7160e01b5f52602260045260245ffd5b6001600160a01b039384168152919092166020820152604081019190915260600190565b805180151581146118f4575f5ffd5b919050565b5f60208284031215611909575f5ffd5b610edd826118e5565b634e487b7160e01b5f52603260045260245ffd5b634e487b7160e01b5f52601160045260245ffd5b8082018082111561057a5761057a611926565b8181038181111561057a5761057a611926565b5f60208284031215611970575f5ffd5b5051919050565b5f82601f830112611986575f5ffd5b81516119946112a182611262565b8082825260208201915060208360051b8601019250858311156119b5575f5ffd5b602085015b838110156112e45780518352602092830192016119ba565b5f5f604083850312156119e3575f5ffd5b82516001600160401b038111156119f8575f5ffd5b611a0485828601611977565b602085015190935090506001600160401b03811115611a21575f5ffd5b611a2d85828601611977565b9150509250929050565b6001600160a01b0392831681529116602082015260400190565b5f60208284031215611a61575f5ffd5b8135610edd816114ac565b5f60808284031215611a7c575f5ffd5b604051608081016001600160401b0381118282101715611a9e57611a9e6111d3565b604052905080611aad836118e5565b8152611abb602084016118e5565b6020820152611acc604084016118e5565b6040820152611add606084016118e5565b60608201525092915050565b805164ffffffffff811681146118f4575f5ffd5b805163ffffffff811681146118f4575f5ffd5b5f6101a0828403128015611b22575f5ffd5b50611b2b6111e7565b611b358484611a6c565b81526080830151602082015260a0830151604082015260c08301516060820152611b6160e08401611ae9565b6080820152611b736101008401611afd565b60a0820152611b8561012084016118e5565b60c0820152611b9761014084016118e5565b60e0820152611ba961016084016118e5565b610100820152611bbc61018084016118e5565b6101208201529392505050565b5f82601f830112611bd8575f5ffd5b8151611be66112a182611262565b80828252602082019150602060608402860101925085831115611c07575f5ffd5b602085015b838110156112e45760608188031215611c23575f5ffd5b611c2b611210565b8151611c36816114ac565b81526020820151611c4681611195565b6020820152611c57604083016118e5565b60408201528352602090920191606001611c0c565b5f5f5f5f60808587031215611c7f575f5ffd5b84516001600160401b03811115611c94575f5ffd5b8501601f81018713611ca4575f5ffd5b8051611cb26112a182611262565b8082825260208201915060208360051b850101925089831115611cd3575f5ffd5b6020840193505b82841015611cfe578351611ced81611195565b825260209384019390910190611cda565b6020890151909750925050506001600160401b03811115611d1d575f5ffd5b611d2987828801611bc9565b604087015190945090506001600160401b03811115611d46575f5ffd5b611d5287828801611977565b606087015190935090506001600160401b03811115611d6f575f5ffd5b611d7b87828801611977565b91505092959194509250565b6815195cdd115d995b9d60ba1b8152604060208201525f610edd6040830184611155565b808202811582820484141761057a5761057a611926565b5f82611ddc57634e487b7160e01b5f52601260045260245ffd5b50049056fe6e71edae12b1b97f4d1f60370fef10105fa2faae0126114a169c64845d6126c9a2646970667358221220e42699734355d224dca2a5ff7e683e43a9b3a5726038360d6237ad8858d8a17664736f6c634300081e0033","linkReferences":{}},"methodIdentifiers":{"DOMAIN_SEPARATOR()":"3644e515","PERMIT_TYPEHASH()":"30adf81f","allowance(address,address)":"dd62ed3e","approve(address,uint256)":"095ea7b3","balanceOf(address)":"70a08231","computeBalance(uint256[],uint256,uint256)":"16a0b3e0","computeInvariant(uint256[],uint8)":"984de9e8","decimals()":"313ce567","eip712Domain()":"84b0196e","emitApproval(address,address,uint256)":"5687f2b8","emitTransfer(address,address,uint256)":"23de6651","getAggregateFeePercentages()":"81fa807c","getDecimalScalingFactors()":"360c340f","getMaximumInvariantRatio()":"273c1adf","getMaximumSwapFeePercentage()":"654cf15d","getMinimumInvariantRatio()":"b677fa56","getMinimumSwapFeePercentage()":"ce20ece7","getRate()":"679aefce","getTokenInfo()":"abb1dc44","getVault()":"8d928af8","incrementNonce()":"627cdcb9","mockEventFunction(uint256)":"b0e2e403","name()":"06fdde03","nonces(address)":"7ecebe00","onAddLiquidityCustom(address,uint256[],uint256,uint256[],bytes)":"e4c43663","onRemoveLiquidityCustom(address,uint256,uint256[],uint256[],bytes)":"ab68e28c","onSwap((uint8,uint256,uint256[],uint256,uint256,address,bytes))":"72c98186","permit(address,address,uint256,uint256,uint8,bytes32,bytes32)":"d505accf","setMockRate(uint256)":"4cfe8d1a","setMultiplier(uint256)":"641579a6","supportsInterface(bytes4)":"01ffc9a7","symbol()":"95d89b41","totalSupply()":"18160ddd","transfer(address,uint256)":"a9059cbb","transferFrom(address,address,uint256)":"23b872dd"},"id":950}