{"abi":[{"type":"constructor","inputs":[{"name":"vault","type":"address","internalType":"contract IVault"},{"name":"feeRecipient","type":"address","internalType":"address"}],"stateMutability":"nonpayable"},{"type":"fallback","stateMutability":"payable"},{"type":"receive","stateMutability":"payable"},{"type":"function","name":"addProtocolFeeBurner","inputs":[{"name":"protocolFeeBurner","type":"address","internalType":"contract IProtocolFeeBurner"}],"outputs":[],"stateMutability":"nonpayable"},{"type":"function","name":"getActionId","inputs":[{"name":"selector","type":"bytes4","internalType":"bytes4"}],"outputs":[{"name":"","type":"bytes32","internalType":"bytes32"}],"stateMutability":"view"},{"type":"function","name":"getAuthorizer","inputs":[],"outputs":[{"name":"","type":"address","internalType":"contract IAuthorizer"}],"stateMutability":"view"},{"type":"function","name":"getFeeRecipient","inputs":[],"outputs":[{"name":"","type":"address","internalType":"address"}],"stateMutability":"view"},{"type":"function","name":"getProtocolFeeController","inputs":[],"outputs":[{"name":"","type":"address","internalType":"contract IProtocolFeeController"}],"stateMutability":"view"},{"type":"function","name":"getTargetToken","inputs":[],"outputs":[{"name":"","type":"address","internalType":"contract IERC20"}],"stateMutability":"view"},{"type":"function","name":"getVault","inputs":[],"outputs":[{"name":"","type":"address","internalType":"contract IVault"}],"stateMutability":"view"},{"type":"function","name":"isApprovedProtocolFeeBurner","inputs":[{"name":"protocolFeeBurner","type":"address","internalType":"address"}],"outputs":[{"name":"","type":"bool","internalType":"bool"}],"stateMutability":"view"},{"type":"function","name":"recoverProtocolFees","inputs":[{"name":"feeTokens","type":"address[]","internalType":"contract IERC20[]"}],"outputs":[],"stateMutability":"nonpayable"},{"type":"function","name":"removeProtocolFeeBurner","inputs":[{"name":"protocolFeeBurner","type":"address","internalType":"contract IProtocolFeeBurner"}],"outputs":[],"stateMutability":"nonpayable"},{"type":"function","name":"setFeeRecipient","inputs":[{"name":"feeRecipient","type":"address","internalType":"address"}],"outputs":[],"stateMutability":"nonpayable"},{"type":"function","name":"setTargetToken","inputs":[{"name":"targetToken","type":"address","internalType":"contract IERC20"}],"outputs":[],"stateMutability":"nonpayable"},{"type":"function","name":"sweepProtocolFeesForToken","inputs":[{"name":"pool","type":"address","internalType":"address"},{"name":"feeToken","type":"address","internalType":"contract IERC20"},{"name":"minTargetTokenAmountOut","type":"uint256","internalType":"uint256"},{"name":"deadline","type":"uint256","internalType":"uint256"},{"name":"feeBurner","type":"address","internalType":"contract IProtocolFeeBurner"}],"outputs":[],"stateMutability":"nonpayable"},{"type":"function","name":"sweepProtocolFeesForWrappedToken","inputs":[{"name":"pool","type":"address","internalType":"address"},{"name":"feeToken","type":"address","internalType":"contract IERC4626"},{"name":"minTargetTokenAmountOut","type":"uint256","internalType":"uint256"},{"name":"deadline","type":"uint256","internalType":"uint256"},{"name":"feeBurner","type":"address","internalType":"contract IProtocolFeeBurner"}],"outputs":[],"stateMutability":"nonpayable"},{"type":"event","name":"FeeRecipientSet","inputs":[{"name":"feeRecipient","type":"address","indexed":true,"internalType":"address"}],"anonymous":false},{"type":"event","name":"ProtocolFeeBurnerAdded","inputs":[{"name":"protocolFeeBurner","type":"address","indexed":true,"internalType":"address"}],"anonymous":false},{"type":"event","name":"ProtocolFeeBurnerRemoved","inputs":[{"name":"protocolFeeBurner","type":"address","indexed":true,"internalType":"address"}],"anonymous":false},{"type":"event","name":"ProtocolFeeSwept","inputs":[{"name":"pool","type":"address","indexed":true,"internalType":"address"},{"name":"feeToken","type":"address","indexed":true,"internalType":"contract IERC20"},{"name":"feeTokenAmount","type":"uint256","indexed":false,"internalType":"uint256"},{"name":"recipient","type":"address","indexed":false,"internalType":"address"}],"anonymous":false},{"type":"event","name":"TargetTokenSet","inputs":[{"name":"token","type":"address","indexed":true,"internalType":"contract IERC20"}],"anonymous":false},{"type":"error","name":"BurnerDidNotConsumeAllowance","inputs":[]},{"type":"error","name":"CannotReceiveEth","inputs":[]},{"type":"error","name":"InvalidFeeRecipient","inputs":[]},{"type":"error","name":"InvalidProtocolFeeBurner","inputs":[]},{"type":"error","name":"InvalidTargetToken","inputs":[]},{"type":"error","name":"ProtocolFeeBurnerAlreadyAdded","inputs":[{"name":"protocolFeeBurner","type":"address","internalType":"address"}]},{"type":"error","name":"ProtocolFeeBurnerNotAdded","inputs":[{"name":"protocolFeeBurner","type":"address","internalType":"address"}]},{"type":"error","name":"ReentrancyGuardReentrantCall","inputs":[]},{"type":"error","name":"SenderNotAllowed","inputs":[]},{"type":"error","name":"UnsupportedProtocolFeeBurner","inputs":[{"name":"protocolFeeBurner","type":"address","internalType":"address"}]},{"type":"error","name":"UnwrapIsNotAllowed","inputs":[]},{"type":"error","name":"VaultNotSet","inputs":[]}],"bytecode":{"object":"0x60c060405234801561000f575f5ffd5b506040516113b73803806113b783398101604081905261002e91610104565b306080819052829081906001600160a01b03821661005f57604051630647140b60e51b815260040160405180910390fd5b506001600160a01b031660a052506100768161007d565b505061013c565b6001600160a01b0381166100a457604051630ed1b8b360e31b815260040160405180910390fd5b600180546001600160a01b0319166001600160a01b0383169081179091556040517fbf9a9534339a9d6b81696e05dcfb614b7dc518a31d48be3cfb757988381fb323905f90a250565b6001600160a01b0381168114610101575f5ffd5b50565b5f5f60408385031215610115575f5ffd5b8251610120816100ed565b6020840151909250610131816100ed565b809150509250929050565b60805160a0516112536101645f395f81816104700152610ce901525f61036301526112535ff3fe6080604052600436106100b0575f3560e01c80631b66cb001461012c5780634ccb20c01461014d57806380db0d511461017c578063851c1bb31461019857806385f2dbd4146101c557806388f6d2a4146101d95780638d928af8146101f85780639c5cee9b1461020c578063aaabadc514610253578063b0edcc5314610267578063b11f061e14610286578063b9746995146102a5578063e20c482f146102c4578063e74b981b146102e3576100ce565b366100ce57604051637911c44b60e11b815260040160405180910390fd5b34156100ed57604051637911c44b60e11b815260040160405180910390fd5b60405162461bcd60e51b815260206004820152600f60248201526e139bdd081a5b5c1b195b595b9d1959608a1b60448201526064015b60405180910390fd5b348015610137575f5ffd5b5061014b610146366004610fbe565b610302565b005b348015610158575f5ffd5b506001546001600160a01b03165b6040516101739190610fe0565b60405180910390f35b348015610187575f5ffd5b505f546001600160a01b0316610166565b3480156101a3575f5ffd5b506101b76101b2366004610ff4565b610360565b604051908152602001610173565b3480156101d0575f5ffd5b506101666103c4565b3480156101e4575f5ffd5b5061014b6101f336600461101b565b610431565b348015610203575f5ffd5b5061016661046e565b348015610217575f5ffd5b50610243610226366004610fbe565b6001600160a01b03165f9081526002602052604090205460ff1690565b6040519015158152602001610173565b34801561025e575f5ffd5b50610166610492565b348015610272575f5ffd5b5061014b61028136600461108a565b6104d6565b348015610291575f5ffd5b5061014b6102a0366004610fbe565b6105cf565b3480156102b0575f5ffd5b5061014b6102bf36600461101b565b61066c565b3480156102cf575f5ffd5b5061014b6102de366004610fbe565b610699565b3480156102ee575f5ffd5b5061014b6102fd366004610fbe565b61075d565b6001546103199030906001600160a01b031661077d565b5f80546001600160a01b0319166001600160a01b038316908117825560405190917f873950c2ac59c570001b99d815ffb260542df229d07132922e2e6f9941fd3da691a250565b5f7f0000000000000000000000000000000000000000000000000000000000000000826040516020016103a79291909182526001600160e01b031916602082015260240190565b604051602081830303815290604052805190602001209050919050565b5f6103cd61046e565b6001600160a01b03166385f2dbd46040518163ffffffff1660e01b8152600401602060405180830381865afa158015610408573d5f5f3e3d5ffd5b505050506040513d601f19601f8201168201806040525081019061042c9190611154565b905090565b6104396107d0565b6001546104509030906001600160a01b031661077d565b61045f85858585856001610819565b610467610c4f565b5050505050565b7f000000000000000000000000000000000000000000000000000000000000000090565b5f61049b61046e565b6001600160a01b031663aaabadc56040518163ffffffff1660e01b8152600401602060405180830381865afa158015610408573d5f5f3e3d5ffd5b6104de6107d0565b6001546001600160a01b03163314610509576040516323dada5360e01b815260040160405180910390fd5b5f5b81518110156105c3575f8282815181106105275761052761116f565b602002602001015190505f816001600160a01b03166370a08231306040518263ffffffff1660e01b815260040161055e9190610fe0565b602060405180830381865afa158015610579573d5f5f3e3d5ffd5b505050506040513d601f19601f8201168201806040525081019061059d9190611183565b905080156105b9576105b96001600160a01b0383163383610c66565b505060010161050b565b506105cc610c4f565b50565b6001546105e69030906001600160a01b031661077d565b6001600160a01b0381165f9081526002602052604081205460ff16151590036106245780604051632f296acd60e21b81526004016101239190610fe0565b6001600160a01b0381165f81815260026020526040808220805460ff19169055517f0ed3ea501d1a23f23a7dc56c2d33e1e5a6a97694c707ef67b1e0159f239746bf9190a250565b6106746107d0565b60015461068b9030906001600160a01b031661077d565b61045f85858585855f610819565b6001546106b09030906001600160a01b031661077d565b6001600160a01b0381165f9081526002602052604090205460ff16156106eb57806040516337f23d7b60e11b81526004016101239190610fe0565b6001600160a01b038116610712576040516318f6139b60e11b815260040160405180910390fd5b6001600160a01b0381165f81815260026020526040808220805460ff19166001179055517f0ef09fc346b7c2cae78d9a37ed785840e7d3c6072022cd8c41c3b37a239b7fd19190a250565b6001546107749030906001600160a01b031661077d565b6105cc81610c76565b336001600160a01b038216146107cc576107ab6107a45f356001600160e01b031916610360565b3384610ce6565b15155f036107cc576040516323dada5360e01b815260040160405180910390fd5b5050565b5f5160206111fe5f395f51905f525c156107fd57604051633ee5aeb560e01b815260040160405180910390fd5b61081760015f5160206111fe5f395f51905f525b90610ddd565b565b5f61082383610de4565b90505f866001600160a01b03166370a08231306040518263ffffffff1660e01b81526004016108529190610fe0565b602060405180830381865afa15801561086d573d5f5f3e3d5ffd5b505050506040513d601f19601f820116820180604052508101906108919190611183565b90505f61089c6103c4565b6040516347a55ce560e11b81529091506001600160a01b03821690638f4ab9ca906108cb908c90600401610fe0565b5f604051808303815f87803b1580156108e2575f5ffd5b505af11580156108f4573d5f5f3e3d5ffd5b5050604051635a9d385960e11b81526001600160a01b038c811660048301523060248301528b811660448301528416925063b53a70b291506064015f604051808303815f87803b158015610946575f5ffd5b505af1158015610958573d5f5f3e3d5ffd5b505050505f82896001600160a01b03166370a08231306040518263ffffffff1660e01b815260040161098a9190610fe0565b602060405180830381865afa1580156109a5573d5f5f3e3d5ffd5b505050506040513d601f19601f820116820180604052508101906109c99190611183565b6109d3919061119a565b90508015610c43578315610c38575f546001600160a01b03908116908a16819003610a27578515610a175760405163654f1d0f60e11b815260040160405180910390fd5b610a228b8b84610e5e565b610c32565b8515610b08575f8a9050806001600160a01b03166338d52e0f6040518163ffffffff1660e01b8152600401602060405180830381865afa158015610a6d573d5f5f3e3d5ffd5b505050506040513d601f19601f82011682018060405250810190610a919190611154565b604051635d043b2960e11b8152909b506001600160a01b0382169063ba08765290610ac4908690309081906004016111bf565b6020604051808303815f875af1158015610ae0573d5f5f3e3d5ffd5b505050506040513d601f19601f82011682018060405250810190610b049190611183565b9250505b610b1c6001600160a01b038b168884610eca565b600154604051636f2abd1960e11b81526001600160a01b038d811660048301528c81166024830152604482018590528381166064830152608482018c905291821660a482015260c481018a90529088169063de557a329060e4015f604051808303815f87803b158015610b8d575f5ffd5b505af1158015610b9f573d5f5f3e3d5ffd5b5050604051636eb1769f60e11b81523060048201526001600160a01b038a811660248301525f93508d16915063dd62ed3e90604401602060405180830381865afa158015610bef573d5f5f3e3d5ffd5b505050506040513d601f19601f82011682018060405250810190610c139190611183565b1115610c325760405163c5bc8d5160e01b815260040160405180910390fd5b50610c43565b610c438a8a83610e5e565b50505050505050505050565b6108175f5f5160206111fe5f395f51905f52610811565b610c71838383610ed5565b505050565b6001600160a01b038116610c9d57604051630ed1b8b360e31b815260040160405180910390fd5b600180546001600160a01b0319166001600160a01b0383169081179091556040517fbf9a9534339a9d6b81696e05dcfb614b7dc518a31d48be3cfb757988381fb323905f90a250565b5f7f00000000000000000000000000000000000000000000000000000000000000006001600160a01b031663aaabadc56040518163ffffffff1660e01b8152600401602060405180830381865afa158015610d43573d5f5f3e3d5ffd5b505050506040513d601f19601f82011682018060405250810190610d679190611154565b6001600160a01b0316639be2a8848585856040518463ffffffff1660e01b8152600401610d96939291906111bf565b602060405180830381865afa158015610db1573d5f5f3e3d5ffd5b505050506040513d601f19601f82011682018060405250810190610dd591906111de565b949350505050565b80825d5050565b6001600160a01b03811615801590610e3e576001600160a01b0382165f9081526002602052604090205460ff1615610e43575f546001600160a01b0316610e3e57604051638562eb4560e01b815260040160405180910390fd5b919050565b81604051630e154fdb60e21b81526004016101239190610fe0565b6001546001600160a01b0390811690610e7a9084168284610c66565b604080518381526001600160a01b03838116602083015280861692908716917fd6b9382ec1786c32610e376e8ee8f2f16abeda4ace3b6276ac958193c75bbbc8910160405180910390a350505050565b610c71838383610f1f565b816014528060345263a9059cbb60601b5f5260205f604460105f875af18060015f511416610f1557803d853b151710610f15576390b8ec185f526004601cfd5b505f603452505050565b816014528060345263095ea7b360601b5f5260205f604460105f875af18060015f511416610f1557803d853b151710610f15575f60345263095ea7b360601b5f525f38604460105f885af1508160345260205f604460105f885af190508060015f511416610f1557803d853b151710610f1557633e3f8f735f526004601cfd5b6001600160a01b03811681146105cc575f5ffd5b8035610e3e81610f9f565b5f60208284031215610fce575f5ffd5b8135610fd981610f9f565b9392505050565b6001600160a01b0391909116815260200190565b5f60208284031215611004575f5ffd5b81356001600160e01b031981168114610fd9575f5ffd5b5f5f5f5f5f60a0868803121561102f575f5ffd5b853561103a81610f9f565b9450602086013561104a81610f9f565b93506040860135925060608601359150608086013561106881610f9f565b809150509295509295909350565b634e487b7160e01b5f52604160045260245ffd5b5f6020828403121561109a575f5ffd5b81356001600160401b038111156110af575f5ffd5b8201601f810184136110bf575f5ffd5b80356001600160401b038111156110d8576110d8611076565b604051600582901b90603f8201601f191681016001600160401b038111828210171561110657611106611076565b604052918252602081840181019290810187841115611123575f5ffd5b6020850194505b838510156111495761113b85610fb3565b81526020948501940161112a565b509695505050505050565b5f60208284031215611164575f5ffd5b8151610fd981610f9f565b634e487b7160e01b5f52603260045260245ffd5b5f60208284031215611193575f5ffd5b5051919050565b818103818111156111b957634e487b7160e01b5f52601160045260245ffd5b92915050565b9283526001600160a01b03918216602084015216604082015260600190565b5f602082840312156111ee575f5ffd5b81518015158114610fd9575f5ffdfe9b779b17422d0df92223018b32b4d1fa46e071723d6817e2486d003becc55f00a2646970667358221220d6fe0e03278006207541bf7a8ec97fb5dd66916476aa706a68186c2b0cd1a3eb64736f6c634300081e0033","linkReferences":{}},"methodIdentifiers":{"addProtocolFeeBurner(address)":"e20c482f","getActionId(bytes4)":"851c1bb3","getAuthorizer()":"aaabadc5","getFeeRecipient()":"4ccb20c0","getProtocolFeeController()":"85f2dbd4","getTargetToken()":"80db0d51","getVault()":"8d928af8","isApprovedProtocolFeeBurner(address)":"9c5cee9b","recoverProtocolFees(address[])":"b0edcc53","removeProtocolFeeBurner(address)":"b11f061e","setFeeRecipient(address)":"e74b981b","setTargetToken(address)":"1b66cb00","sweepProtocolFeesForToken(address,address,uint256,uint256,address)":"b9746995","sweepProtocolFeesForWrappedToken(address,address,uint256,uint256,address)":"88f6d2a4"},"id":316}