{"abi":[{"type":"constructor","inputs":[{"name":"pkgInit","type":"tuple","internalType":"struct IBalancerV3LBPoolDFPkg.PkgInit","components":[{"name":"balancerV3VaultAwareFacet","type":"address","internalType":"contract IFacet"},{"name":"betterBalancerV3PoolTokenFacet","type":"address","internalType":"contract IFacet"},{"name":"defaultPoolInfoFacet","type":"address","internalType":"contract IFacet"},{"name":"standardSwapFeePercentageBoundsFacet","type":"address","internalType":"contract IFacet"},{"name":"unbalancedLiquidityInvariantRatioBoundsFacet","type":"address","internalType":"contract IFacet"},{"name":"balancerV3AuthenticationFacet","type":"address","internalType":"contract IFacet"},{"name":"balancerV3LBPoolFacet","type":"address","internalType":"contract IFacet"},{"name":"balancerV3Vault","type":"address","internalType":"contract IVault"},{"name":"diamondFactory","type":"address","internalType":"contract IDiamondPackageCallBackFactory"},{"name":"poolFeeManager","type":"address","internalType":"address"}]}],"stateMutability":"nonpayable"},{"type":"function","name":"BALANCER_V3_AUTHENTICATION_FACET","inputs":[],"outputs":[{"name":"","type":"address","internalType":"contract IFacet"}],"stateMutability":"view"},{"type":"function","name":"BALANCER_V3_LB_POOL_FACET","inputs":[],"outputs":[{"name":"","type":"address","internalType":"contract IFacet"}],"stateMutability":"view"},{"type":"function","name":"BALANCER_V3_VAULT","inputs":[],"outputs":[{"name":"","type":"address","internalType":"contract IVault"}],"stateMutability":"view"},{"type":"function","name":"BALANCER_V3_VAULT_AWARE_FACET","inputs":[],"outputs":[{"name":"","type":"address","internalType":"contract IFacet"}],"stateMutability":"view"},{"type":"function","name":"BETTER_BALANCER_V3_POOL_TOKEN_FACET","inputs":[],"outputs":[{"name":"","type":"address","internalType":"contract IFacet"}],"stateMutability":"view"},{"type":"function","name":"DEFAULT_POOL_INFO_FACET","inputs":[],"outputs":[{"name":"","type":"address","internalType":"contract IFacet"}],"stateMutability":"view"},{"type":"function","name":"DIAMOND_PACKAGE_FACTORY","inputs":[],"outputs":[{"name":"","type":"address","internalType":"contract IDiamondPackageCallBackFactory"}],"stateMutability":"view"},{"type":"function","name":"calcSalt","inputs":[{"name":"pkgArgs","type":"bytes","internalType":"bytes"}],"outputs":[{"name":"salt","type":"bytes32","internalType":"bytes32"}],"stateMutability":"pure"},{"type":"function","name":"deployPool","inputs":[{"name":"projectToken_","type":"address","internalType":"address"},{"name":"reserveToken_","type":"address","internalType":"address"},{"name":"projectTokenStartWeight_","type":"uint256","internalType":"uint256"},{"name":"projectTokenEndWeight_","type":"uint256","internalType":"uint256"},{"name":"startTime_","type":"uint256","internalType":"uint256"},{"name":"endTime_","type":"uint256","internalType":"uint256"},{"name":"blockProjectTokenSwapsIn_","type":"bool","internalType":"bool"},{"name":"reserveTokenVirtualBalance_","type":"uint256","internalType":"uint256"},{"name":"hooksContract_","type":"address","internalType":"address"}],"outputs":[{"name":"pool","type":"address","internalType":"address"}],"stateMutability":"nonpayable"},{"type":"function","name":"diamondConfig","inputs":[],"outputs":[{"name":"config","type":"tuple","internalType":"struct IDiamondFactoryPackage.DiamondConfig","components":[{"name":"facetCuts","type":"tuple[]","internalType":"struct IDiamond.FacetCut[]","components":[{"name":"facetAddress","type":"address","internalType":"address"},{"name":"action","type":"uint8","internalType":"enum IDiamond.FacetCutAction"},{"name":"functionSelectors","type":"bytes4[]","internalType":"bytes4[]"}]},{"name":"interfaces","type":"bytes4[]","internalType":"bytes4[]"}]}],"stateMutability":"view"},{"type":"function","name":"disable","inputs":[],"outputs":[],"stateMutability":"nonpayable"},{"type":"function","name":"facetAddresses","inputs":[],"outputs":[{"name":"facetAddresses_","type":"address[]","internalType":"address[]"}],"stateMutability":"view"},{"type":"function","name":"facetCuts","inputs":[],"outputs":[{"name":"facetCuts_","type":"tuple[]","internalType":"struct IDiamond.FacetCut[]","components":[{"name":"facetAddress","type":"address","internalType":"address"},{"name":"action","type":"uint8","internalType":"enum IDiamond.FacetCutAction"},{"name":"functionSelectors","type":"bytes4[]","internalType":"bytes4[]"}]}],"stateMutability":"view"},{"type":"function","name":"facetInterfaces","inputs":[],"outputs":[{"name":"interfaces","type":"bytes4[]","internalType":"bytes4[]"}],"stateMutability":"pure"},{"type":"function","name":"getActionId","inputs":[{"name":"selector","type":"bytes4","internalType":"bytes4"}],"outputs":[{"name":"","type":"bytes32","internalType":"bytes32"}],"stateMutability":"view"},{"type":"function","name":"getDeploymentAddress","inputs":[{"name":"constructorArgs","type":"bytes","internalType":"bytes"},{"name":"","type":"bytes32","internalType":"bytes32"}],"outputs":[{"name":"","type":"address","internalType":"address"}],"stateMutability":"view"},{"type":"function","name":"getNewPoolPauseWindowEndTime","inputs":[],"outputs":[{"name":"","type":"uint32","internalType":"uint32"}],"stateMutability":"view"},{"type":"function","name":"getOriginalPauseWindowEndTime","inputs":[],"outputs":[{"name":"","type":"uint32","internalType":"uint32"}],"stateMutability":"view"},{"type":"function","name":"getPauseWindowDuration","inputs":[],"outputs":[{"name":"","type":"uint32","internalType":"uint32"}],"stateMutability":"view"},{"type":"function","name":"getPoolCount","inputs":[],"outputs":[{"name":"","type":"uint256","internalType":"uint256"}],"stateMutability":"view"},{"type":"function","name":"getPools","inputs":[],"outputs":[{"name":"","type":"address[]","internalType":"address[]"}],"stateMutability":"view"},{"type":"function","name":"getPoolsInRange","inputs":[{"name":"start","type":"uint256","internalType":"uint256"},{"name":"count","type":"uint256","internalType":"uint256"}],"outputs":[{"name":"","type":"address[]","internalType":"address[]"}],"stateMutability":"view"},{"type":"function","name":"initAccount","inputs":[{"name":"initArgs","type":"bytes","internalType":"bytes"}],"outputs":[],"stateMutability":"nonpayable"},{"type":"function","name":"isDisabled","inputs":[],"outputs":[{"name":"","type":"bool","internalType":"bool"}],"stateMutability":"view"},{"type":"function","name":"isPoolFromFactory","inputs":[{"name":"pool","type":"address","internalType":"address"}],"outputs":[{"name":"","type":"bool","internalType":"bool"}],"stateMutability":"view"},{"type":"function","name":"packageMetadata","inputs":[],"outputs":[{"name":"name_","type":"string","internalType":"string"},{"name":"interfaces","type":"bytes4[]","internalType":"bytes4[]"},{"name":"facets","type":"address[]","internalType":"address[]"}],"stateMutability":"view"},{"type":"function","name":"packageName","inputs":[],"outputs":[{"name":"name_","type":"string","internalType":"string"}],"stateMutability":"pure"},{"type":"function","name":"postDeploy","inputs":[{"name":"proxy","type":"address","internalType":"address"}],"outputs":[{"name":"","type":"bool","internalType":"bool"}],"stateMutability":"nonpayable"},{"type":"function","name":"processArgs","inputs":[{"name":"pkgArgs","type":"bytes","internalType":"bytes"}],"outputs":[{"name":"processedPkgArgs","type":"bytes","internalType":"bytes"}],"stateMutability":"pure"},{"type":"function","name":"tokenConfigs","inputs":[{"name":"pool","type":"address","internalType":"address"}],"outputs":[{"name":"","type":"tuple[]","internalType":"struct TokenConfig[]","components":[{"name":"token","type":"address","internalType":"contract IERC20"},{"name":"tokenType","type":"uint8","internalType":"enum TokenType"},{"name":"rateProvider","type":"address","internalType":"contract IRateProvider"},{"name":"paysYieldFees","type":"bool","internalType":"bool"}]}],"stateMutability":"view"},{"type":"function","name":"updatePkg","inputs":[{"name":"expectedProxy","type":"address","internalType":"address"},{"name":"pkgArgs","type":"bytes","internalType":"bytes"}],"outputs":[{"name":"","type":"bool","internalType":"bool"}],"stateMutability":"nonpayable"},{"type":"event","name":"FactoryDisabled","inputs":[],"anonymous":false},{"type":"event","name":"PoolCreated","inputs":[{"name":"pool","type":"address","indexed":true,"internalType":"address"}],"anonymous":false},{"type":"error","name":"Disabled","inputs":[]},{"type":"error","name":"IndexOutOfBounds","inputs":[]},{"type":"error","name":"IndexOutOfBounds","inputs":[{"name":"length","type":"uint256","internalType":"uint256"},{"name":"invalidIndex","type":"uint256","internalType":"uint256"},{"name":"errorCode","type":"uint256","internalType":"uint256"}]},{"type":"error","name":"InvalidPageSize","inputs":[{"name":"start","type":"uint256","internalType":"uint256"},{"name":"end","type":"uint256","internalType":"uint256"}]},{"type":"error","name":"InvalidTimeRange","inputs":[]},{"type":"error","name":"InvalidTimeRange","inputs":[]},{"type":"error","name":"InvalidTokenCount","inputs":[]},{"type":"error","name":"InvalidWeights","inputs":[]},{"type":"error","name":"InvalidWeights","inputs":[]},{"type":"error","name":"PoolPauseWindowDurationOverflow","inputs":[]},{"type":"error","name":"SenderNotAllowed","inputs":[]},{"type":"error","name":"StringTooLong","inputs":[{"name":"str","type":"string","internalType":"string"}]}],"bytecode":{"object":"0x610160604052348015610010575f5ffd5b5060405161376a38038061376a83398101604081905261002f9161020b565b60e0808201516001600160a01b0390811660805261010080840151821660a09081528451831660c090815260208601518416909452604085015183169091528301518116610120908152918301511661014052810151610094906301e13380906100ca565b604080513060208201526100c49101604051602081830303815290604052805190602001206100f960201b60201c565b50610303565b6100f57f083b184f81c44d1555bdab2b99aeea4d11b107caca4883125bcb0b412d1f81328383610125565b5050565b6101227f82340927aad1ca6b5f8bb0037567f287e1bec629ab302d4e1debbc0d7543b1f8829055565b50565b5f61013083426102d5565b905063ffffffff8082161115610159576040516368755a1160e01b815260040160405180910390fd5b8354610100600160481b0319166501000000000063ffffffff9283160264ffffffff00191617610100939091169290920291909117600160481b600160e81b03191669010000000000000000006001600160a01b039290921691909102179055565b60405161014081016001600160401b03811182821017156101ea57634e487b7160e01b5f52604160045260245ffd5b60405290565b80516001600160a01b0381168114610206575f5ffd5b919050565b5f61014082840312801561021d575f5ffd5b506102266101bb565b61022f836101f0565b815261023d602084016101f0565b602082015261024e604084016101f0565b604082015261025f606084016101f0565b6060820152610270608084016101f0565b608082015261028160a084016101f0565b60a082015261029260c084016101f0565b60c08201526102a360e084016101f0565b60e08201526102b561010084016101f0565b6101008201526102c861012084016101f0565b6101208201529392505050565b63ffffffff81811683821601908111156102fd57634e487b7160e01b5f52601160045260245ffd5b92915050565b60805160a05160c05160e05161010051610120516101405161339f6103cb5f395f818161017c015281816109bd01528181611320015261136601525f8181610430015281816109690152818161122c015261127201525f81816103410152818161091501528181611138015261117e01525f8181610368015281816108c101528181611044015261108a01525f818161031a0152818161086e01528181610f660152610f9701525f81816103de015281816107cc0152610a2101525f6103a4015261339f5ff3fe608060405234801561000f575f5ffd5b5060043610610173575f3560e01c80630f0aaebd146101775780631b69dc5f146101b45780632ea80826146101d45780632f2770db146101e957806344f6fec7146101f357806352ef6b2c1461020657806353a72f7e1461021b57806363820b821461022e57806365d375b3146102415780636634b75314610256578063673a2a1f146102795780636c57f5a91461028157806370068fcf1461028957806378da80cb1461029c578063851c1bb3146102b9578063870d4838146102da57806387c3adb3146102ed5780638eec5d701461030d57806390d8c70514610315578063a2bebeb21461033c578063a378544d14610363578063a4b3ad351461038a578063a4c01bbb1461039f578063a9089235146103c6578063ab6046ed146103d9578063abc8b34614610400578063d82be56e14610408578063db035ebc1461041b578063e9d56e1914610423578063f07033251461042b578063f45469e714610452575b5f5ffd5b61019e7f000000000000000000000000000000000000000000000000000000000000000081565b6040516101ab9190612726565b60405180910390f35b6101c76101c236600461274e565b610469565b6040516101ab9190612803565b6101dc61047a565b6040516101ab919061284f565b6101f161076e565b005b61019e610201366004612946565b6107b3565b61020e610849565b6040516101ab91906129cd565b61020e6102293660046129df565b610a12565b61019e61023c366004612a0c565b610a1e565b610249610b36565b6040516101ab9190612b2b565b61026961026436600461274e565b610b71565b60405190151581526020016101ab565b61020e610b7b565b610269610b8a565b61026961029736600461274e565b610b93565b6102a4610c0a565b60405163ffffffff90911681526020016101ab565b6102cc6102c7366004612b81565b610c13565b6040519081526020016101ab565b6101f16102e8366004612b9c565b610c1d565b6103006102fb366004612b9c565b610eba565b6040516101ab9190612bfb565b6102cc610f02565b61019e7f000000000000000000000000000000000000000000000000000000000000000081565b61019e7f000000000000000000000000000000000000000000000000000000000000000081565b61019e7f000000000000000000000000000000000000000000000000000000000000000081565b610392610f0b565b6040516101ab9190612c0d565b61019e7f000000000000000000000000000000000000000000000000000000000000000081565b6102696103d4366004612c1f565b61140a565b61019e7f000000000000000000000000000000000000000000000000000000000000000081565b610300611568565b6102cc610416366004612b9c565b611597565b6102a4611693565b6102a461169c565b61019e7f000000000000000000000000000000000000000000000000000000000000000081565b61045a6116a5565b6040516101ab93929190612c6b565b6060610474826116cd565b92915050565b60408051600c8082526101a0820190925260609160208201610180803683370190505090506336372b0760e01b815f815181106104b9576104b9612ca3565b60200260200101906001600160e01b03191690816001600160e01b0319168152505063a219a02560e01b816001815181106104f6576104f6612ca3565b6001600160e01b0319909216602092830291909101909101528051634a17459160e11b908290600290811061052d5761052d612ca3565b60200260200101906001600160e01b03191690816001600160e01b03191681525050634ec7fbed60e11b8160038151811061056a5761056a612ca3565b60200260200101906001600160e01b03191690816001600160e01b031916815250506342580cb760e11b816004815181106105a7576105a7612ca3565b60200260200101906001600160e01b03191690816001600160e01b03191681525050634b12c34f60e01b816005815181106105e4576105e4612ca3565b60200260200101906001600160e01b03191690816001600160e01b0319168152505063e244eef560e01b8160068151811061062157610621612ca3565b60200260200101906001600160e01b03191690816001600160e01b03191681525050637e126dc760e11b8160078151811061065e5761065e612ca3565b60200260200101906001600160e01b03191690816001600160e01b031916815250506355b60edd60e11b8160088151811061069b5761069b612ca3565b60200260200101906001600160e01b03191690816001600160e01b0319168152505063914be08960e01b816009815181106106d8576106d8612ca3565b60200260200101906001600160e01b03191690816001600160e01b0319168152505063755994e960e01b81600a8151811061071557610715612ca3565b60200260200101906001600160e01b03191690816001600160e01b03191681525050638d41c11f60e01b81600b8151811061075257610752612ca3565b6001600160e01b03199092166020928302919091019091015290565b30610778816116e0565b610780611723565b61078861174b565b6040517f432acbfd662dbb5d8b378384a67159b47ca9d0f1b79f97cf64cf8585fa362d50905f90a150565b60405163033a41d760e41b81525f906001600160a01b037f000000000000000000000000000000000000000000000000000000000000000016906333a41d70906108039030908790600401612cb7565b602060405180830381865afa15801561081e573d5f5f3e3d5ffd5b505050506040513d601f19601f820116820180604052508101906108429190612cea565b9392505050565b60408051600580825260c082019092526060916020820160a0803683370190505090507f0000000000000000000000000000000000000000000000000000000000000000815f8151811061089f5761089f612ca3565b60200260200101906001600160a01b031690816001600160a01b0316815250507f0000000000000000000000000000000000000000000000000000000000000000816001815181106108f3576108f3612ca3565b60200260200101906001600160a01b031690816001600160a01b0316815250507f00000000000000000000000000000000000000000000000000000000000000008160028151811061094757610947612ca3565b60200260200101906001600160a01b031690816001600160a01b0316815250507f00000000000000000000000000000000000000000000000000000000000000008160038151811061099b5761099b612ca3565b60200260200101906001600160a01b031690816001600160a01b0316815250507f0000000000000000000000000000000000000000000000000000000000000000816004815181106109ef576109ef612ca3565b60200260200101906001600160a01b031690816001600160a01b03168152505090565b60606108428383611763565b5f7f00000000000000000000000000000000000000000000000000000000000000006001600160a01b031663e97fac05306040518061012001604052808e6001600160a01b031681526020018d6001600160a01b031681526020018c81526020018b81526020018a81526020018981526020018815158152602001878152602001866001600160a01b0316815250604051602001610abc9190612d05565b6040516020818303038152906040526040518363ffffffff1660e01b8152600401610ae8929190612cb7565b6020604051808303815f875af1158015610b04573d5f5f3e3d5ffd5b505050506040513d601f19601f82011682018060405250810190610b289190612cea565b9a9950505050505050505050565b60408051808201909152606080825260208201526040518060400160405280610b5d610f0b565b8152602001610b6a61047a565b9052919050565b5f61047482611777565b6060610b85611789565b905090565b5f610b8561179b565b5f610c0282610ba1846116cd565b66b1a2bc2ec500005f610bb26117ae565b610bbb886117fb565b60408051608080820183525f808352602080840182905283850182905260609384018290528451928301855260018352820181905292810183905290810191909152611829565b506001919050565b5f610b856118b0565b5f610474826118cb565b5f81806020019051810190610c329190612d93565b90505f5f82602001516001600160a01b0316835f01516001600160a01b031610610c5e5760015f610c62565b5f60015b6040805160028082526060820183529395509193505f929060208301908036833701905050905083602001516001600160a01b0316845f01516001600160a01b031610610cb3578360200151610cb6565b83515b815f81518110610cc857610cc8612ca3565b60200260200101906001600160a01b031690816001600160a01b03168152505083602001516001600160a01b0316845f01516001600160a01b031610610d0f578351610d15565b83602001515b81600181518110610d2857610d28612ca3565b60200260200101906001600160a01b031690816001600160a01b0316815250505f610d52826118dd565b9050610d7f81604051806040016040528060078152602001661310940b50941560ca1b81525060126119fd565b610da281604051806040016040528060018152602001603160f81b815250611a15565b610dcc670853a0d2313c0000674563918244f4000064e8d4a5100067016345785d8a000086611a27565b5f85602001516001600160a01b031663313ce5676040518163ffffffff1660e01b8152600401602060405180830381865afa158015610e0d573d5f5f3e3d5ffd5b505050506040513d601f19601f82011682018060405250810190610e319190612e27565b610e3c906012612e5b565b610e4790600a612f57565b90505f818760e00151610e5a9190612f65565b9050610e81868689604001518a606001518b608001518c60a001518d60c00151888a611a5c565b610eb030604051602001610e959190612726565b60405160208183030381529060405280519060200120611a99565b5050505050505050565b60605f82806020019051810190610ed19190612d93565b90508060a00151816080015110610efb5760405163536a71af60e01b815260040160405180910390fd5b5090919050565b5f610b85611aac565b60408051600580825260c08201909252606091816020015b60408051606080820183525f808352602083015291810191909152815260200190600190039081610f235790505060408051606081019091526001600160a01b037f0000000000000000000000000000000000000000000000000000000000000000168152909150602081015f81526020017f00000000000000000000000000000000000000000000000000000000000000006001600160a01b031663574a4cff6040518163ffffffff1660e01b81526004015f60405180830381865afa158015610ff0573d5f5f3e3d5ffd5b505050506040513d5f823e601f3d908101601f191682016040526110179190810190612f7c565b815250815f8151811061102c5761102c612ca3565b602002602001018190525060405180606001604052807f00000000000000000000000000000000000000000000000000000000000000006001600160a01b031681526020015f600281111561108357611083612769565b81526020017f00000000000000000000000000000000000000000000000000000000000000006001600160a01b031663574a4cff6040518163ffffffff1660e01b81526004015f60405180830381865afa1580156110e3573d5f5f3e3d5ffd5b505050506040513d5f823e601f3d908101601f1916820160405261110a9190810190612f7c565b8152508160018151811061112057611120612ca3565b602002602001018190525060405180606001604052807f00000000000000000000000000000000000000000000000000000000000000006001600160a01b031681526020015f600281111561117757611177612769565b81526020017f00000000000000000000000000000000000000000000000000000000000000006001600160a01b031663574a4cff6040518163ffffffff1660e01b81526004015f60405180830381865afa1580156111d7573d5f5f3e3d5ffd5b505050506040513d5f823e601f3d908101601f191682016040526111fe9190810190612f7c565b8152508160028151811061121457611214612ca3565b602002602001018190525060405180606001604052807f00000000000000000000000000000000000000000000000000000000000000006001600160a01b031681526020015f600281111561126b5761126b612769565b81526020017f00000000000000000000000000000000000000000000000000000000000000006001600160a01b031663574a4cff6040518163ffffffff1660e01b81526004015f60405180830381865afa1580156112cb573d5f5f3e3d5ffd5b505050506040513d5f823e601f3d908101601f191682016040526112f29190810190612f7c565b8152508160038151811061130857611308612ca3565b602002602001018190525060405180606001604052807f00000000000000000000000000000000000000000000000000000000000000006001600160a01b031681526020015f600281111561135f5761135f612769565b81526020017f00000000000000000000000000000000000000000000000000000000000000006001600160a01b031663574a4cff6040518163ffffffff1660e01b81526004015f60405180830381865afa1580156113bf573d5f5f3e3d5ffd5b505050506040513d5f823e601f3d908101601f191682016040526113e69190810190612f7c565b815250816004815181106113fc576113fc612ca3565b602002602001018190525090565b5f5f828060200190518101906114209190612d93565b604080516002808252606082019092529192505f9190816020015b6114436126ff565b81526020019060019003908161143b5790505090505f5f83602001516001600160a01b0316845f01516001600160a01b031610611486576020840151845161148e565b835160208501515b60408051608081019091526001600160a01b03831681529193509150602081015f81526020015f6001600160a01b031681526020015f1515815250835f815181106114db576114db612ca3565b60200260200101819052506040518060800160405280826001600160a01b031681526020015f600181111561151257611512612769565b81525f6020820181905260409091015283518490600190811061153757611537612ca3565b602002602001018190525061154c8784611abd565b61155b87856101000151611acf565b5060019695505050505050565b60408051808201909152601581527442616c616e63657256334c42506f6f6c4446506b6760581b602082015290565b5f5f828060200190518101906115ad9190612d93565b90508060a001518160800151106115d75760405163536a71af60e01b815260040160405180910390fd5b5f5f82602001516001600160a01b0316835f01516001600160a01b031610611605576020830151835161160d565b825160208401515b915091505f82828560400151866060015187608001518860a0015160405160200161166e969594939291906001600160a01b03968716815294909516602085015260408401929092526060830152608082015260a081019190915260c00190565b60408051601f19818403018152919052805160208201209091505b9695505050505050565b5f610b85611b0e565b5f610b85611b1f565b60608060606116b2611568565b92506116bc61047a565b91506116c6610849565b9050909192565b60606104746116da611b3c565b83611b60565b5f6116f55f356001600160e01b0319166118cb565b9050611702813384611cd6565b61171f576040516323dada5360e01b815260040160405180910390fd5b5050565b61172b61179b565b1561174957604051633ac4266d60e11b815260040160405180910390fd5b565b611749611756611b3c565b805460ff19166001179055565b6060610842611770611b3c565b8484611dbf565b5f610474611783611b3c565b83611dcf565b6060610b85611796611b3c565b611ddd565b5f610b856117a7611b3c565b5460ff1690565b604080516060810182525f80825260208201819052918101829052906117d2611e41565b604080516060810182526001600160a01b03909216808352602083018190529082015292915050565b5f610474611807611b3c565b6001600160a01b038085165f9081526007929092016020526040909120541690565b61183287611e61565b61183a611e72565b6001600160a01b031663eeec802f888888611853611693565b898989896040518963ffffffff1660e01b815260040161187a98979695949392919061302e565b5f604051808303815f87803b158015611891575f5ffd5b505af11580156118a3573d5f5f3e3d5ffd5b5050505050505050505050565b5f610b856118bc611b3c565b54610100900463ffffffff1690565b5f6104746118d7611ea4565b83611ec8565b6060815f815181106118f1576118f1612ca3565b60200260200101516001600160a01b03166306fdde036040518163ffffffff1660e01b81526004015f60405180830381865afa158015611933573d5f5f3e3d5ffd5b505050506040513d5f823e601f3d908101601f1916820160405261195a91908101906130e4565b8260018151811061196d5761196d612ca3565b60200260200101516001600160a01b03166306fdde036040518163ffffffff1660e01b81526004015f60405180830381865afa1580156119af573d5f5f3e3d5ffd5b505050506040513d5f823e601f3d908101601f191682016040526119d691908101906130e4565b6040516020016119e792919061316f565b6040516020818303038152906040529050919050565b611a10611a08611f0d565b848484611f58565b505050565b61171f611a20611f8f565b8383611fc2565b611a557fad058ae2c4fd2dc635a6531cef09fdcc7264c09c1ee65b9e398137189754ce718686868686612029565b5050505050565b611a8e7fd53c3e2fdabe48bf711f58c7df0c133f4da87092dfb6b9b0387c9021e3acd3ff8a8a8a8a8a8a8a8a8a612057565b505050505050505050565b611aa9611aa4611ea4565b829055565b50565b5f610b85611ab8611b3c565b61215c565b61171f611ac8611b3c565b8383612168565b61171f611ada611b3c565b6001600160a01b038085165f908152600792909201602052604090912080546001600160a01b031916918416919091179055565b5f610b85611b1a611b3c565b612386565b5f610b85611b2b611b3c565b54600160281b900463ffffffff1690565b7f083b184f81c44d1555bdab2b99aeea4d11b107caca4883125bcb0b412d1f813290565b6001600160a01b0381165f908152600383016020526040902060010154606090806001600160401b03811115611b9857611b98612861565b604051908082528060200260200182016040528015611bd157816020015b611bbe6126ff565b815260200190600190039081611bb65790505b5091505f5b81811015611cce576001600160a01b0384165f9081526003860160205260408120611c0190836123b3565b604080516080810182526001600160a01b038084168083529089165f90815260048b0160209081528482209282529182529290922054929350919082019060ff166001811115611c5357611c53612769565b81526001600160a01b038088165f81815260058b0160209081526040808320888616808552908352818420549095168287015292825260068c01815282822093825292909252908190205460ff1615159101528451859084908110611cba57611cba612ca3565b602090810291909101015250600101611bd6565b505092915050565b5f611cdf611e72565b6001600160a01b031663aaabadc56040518163ffffffff1660e01b8152600401602060405180830381865afa158015611d1a573d5f5f3e3d5ffd5b505050506040513d601f19601f82011682018060405250810190611d3e9190612cea565b6040516326f8aa2160e21b8152600481018690526001600160a01b03858116602483015284811660448301529190911690639be2a88490606401602060405180830381865afa158015611d93573d5f5f3e3d5ffd5b505050506040513d601f19601f82011682018060405250810190611db791906131b7565b949350505050565b6060611db76001850184846123f5565b5f6108426001840183612508565b606060028201805480602002602001604051908101604052809291908181526020018280548015611e3557602002820191905f5260205f20905b81546001600160a01b03168152600190910190602001808311611e17575b50505050509050919050565b5f610b85611e4d611b3c565b54600160481b90046001600160a01b031690565b611aa9611e6c611b3c565b82612525565b5f610b857f392e49ca1983749c4549242b814e6592e6c2354a2bb55242596ce0ad2e7b1001546001600160a01b031690565b7f82340927aad1ca6b5f8bb0037567f287e1bec629ab302d4e1debbc0d7543b1f890565b5f610842611ed4845490565b6040805160208101929092526001600160e01b03198516908201526044015b604051602081830303815290604052805160209091012090565b5f610b85604051602001611f3f906020808252600a908201526906569702e6572632e32360b41b604082015260600190565b6040516020818303038152906040528051906020012090565b83611f63848261324e565b5060018401611f72838261324e565b50600293909301805460ff191660ff909416939093179092555050565b5f610b85604051602001611f3f906020808252600b908201526a32b4b81732b4b8171b989960a91b604082015260600190565b611fcf8260078501612532565b6005840155611fe18160088501612532565b60068401558151602080840191909120600385015581519082012060048401554660018401556120108361258f565b8355505060020180546001600160a01b03191630179055565b84865560018601849055600286018390556003860182905561204e60048701826125e9565b50505050505050565b8385106120775760405163536a71af60e01b815260040160405180910390fd5b5f61208a88670de0b6b3a7640000613308565b90505f61209f88670de0b6b3a7640000613308565b9050662386f26fc10000808a10806120b657508089105b156120d45760405163108cef9d60e31b815260040160405180910390fd5b808310806120e157508082105b156120ff5760405163108cef9d60e31b815260040160405180910390fd5b50998b5560018b019890985560028a01969096556003890194909455600488019590955560058701959095556006860155600785019390935560088401805460ff1916921515929092179091556009830191909155600a90910155565b60028101545f90610474565b5f5b8151811015612380576121b582828151811061218857612188612ca3565b602090810291909101810151516001600160a01b0386165f90815260038801909252604090912090612634565b508181815181106121c8576121c8612ca3565b602002602001015160400151846005015f856001600160a01b03166001600160a01b031681526020019081526020015f205f84848151811061220c5761220c612ca3565b60200260200101515f01516001600160a01b03166001600160a01b031681526020019081526020015f205f6101000a8154816001600160a01b0302191690836001600160a01b0316021790555081818151811061226b5761226b612ca3565b602002602001015160200151846004015f856001600160a01b03166001600160a01b031681526020019081526020015f205f8484815181106122af576122af612ca3565b602090810291909101810151516001600160a01b031682528101919091526040015f20805460ff1916600183818111156122eb576122eb612769565b021790555081818151811061230257612302612ca3565b602002602001015160600151846006015f856001600160a01b03166001600160a01b031681526020019081526020015f205f84848151811061234657612346612ca3565b602090810291909101810151516001600160a01b031682528101919091526040015f20805460ff191691151591909117905560010161216a565b50505050565b5f5f61239e835463ffffffff600160281b9091041690565b90508063ffffffff164210610474575f610842565b60018201545f906123c49083612690565b508260010182815481106123da576123da612ca3565b5f918252602090912001546001600160a01b03169392505050565b6060828210156124275760405163dc78128f60e01b815260048101849052602481018390526044015b60405180910390fd5b5f612433856001015490565b905061243f8185612690565b5061244a8184612690565b505f6124568585613308565b61246190600161331b565b9050806001600160401b0381111561247b5761247b612861565b6040519080825280602002602001820160405280156124a4578160200160208202803683370190505b5092505f855b8581116124fd576124bb88826123b3565b8583815181106124cd576124cd612ca3565b6001600160a01b0390921660209283029190910190910152600190910190806124f58161332e565b9150506124aa565b505050509392505050565b6001600160a01b03165f9081526020919091526040902054151590565b611a106001830182612634565b5f60208351101561254d57612546836126c2565b9050610474565b825160018160011b178355825f5260205f20602085015f5b838110156125815781810151600582901c840155602001612565565b5060ff935061047492505050565b60038101546004820154604080517f8b73c3c69bb8fe3d512ecc4cf759cc79239f7b179b0ffacaa9a75d522b39400f60208201529081019290925260608201524660808201523060a08201525f906104749060c001611ef3565b5f805b825181101561262a5761262183828151811061260a5761260a612ca3565b60200260200101518561263490919063ffffffff16565b506001016125ec565b5060019392505050565b5f61263f8383612508565b612687576001838101805491820181555f818152602080822090930180546001600160a01b0319166001600160a01b0387169081179091559154918152918590526040909120555b50600192915050565b5f81831161268757604051635400feb960e01b815260048101849052602481018390526032604482015260640161241e565b5f5f829050601f815111156126ec578260405163305a27a960e01b815260040161241e9190612bfb565b80516126f782613346565b179392505050565b60408051608081019091525f808252602082019081525f6020820181905260409091015290565b6001600160a01b0391909116815260200190565b6001600160a01b0381168114611aa9575f5ffd5b5f6020828403121561275e575f5ffd5b81356108428161273a565b634e487b7160e01b5f52602160045260245ffd5b5f8151808452602084019350602083015f5b828110156127f957815180516001600160a01b031687526020810151600281106127bb576127bb612769565b6020888101919091526040828101516001600160a01b031690890152606091820151151591880191909152608090960195919091019060010161278f565b5093949350505050565b602081525f610842602083018461277d565b5f8151808452602084019350602083015f5b828110156127f95781516001600160e01b031916865260209586019590910190600101612827565b602081525f6108426020830184612815565b634e487b7160e01b5f52604160045260245ffd5b60405161012081016001600160401b038111828210171561289857612898612861565b60405290565b604051601f8201601f191681016001600160401b03811182821017156128c6576128c6612861565b604052919050565b5f6001600160401b038211156128e6576128e6612861565b50601f01601f191660200190565b5f82601f830112612903575f5ffd5b8135612916612911826128ce565b61289e565b81815284602083860101111561292a575f5ffd5b816020850160208301375f918101602001919091529392505050565b5f5f60408385031215612957575f5ffd5b82356001600160401b0381111561296c575f5ffd5b612978858286016128f4565b95602094909401359450505050565b6001600160a01b03169052565b5f8151808452602084019350602083015f5b828110156127f95781516001600160a01b03168652602095860195909101906001016129a6565b602081525f6108426020830184612994565b5f5f604083850312156129f0575f5ffd5b50508035926020909101359150565b8015158114611aa9575f5ffd5b5f5f5f5f5f5f5f5f5f6101208a8c031215612a25575f5ffd5b8935612a308161273a565b985060208a0135612a408161273a565b975060408a0135965060608a0135955060808a0135945060a08a0135935060c08a0135612a6c816129ff565b925060e08a013591506101008a0135612a848161273a565b809150509295985092959850929598565b5f82825180855260208501945060208160051b830101602085015f5b83811015612b1f57848303601f19018852815180516001600160a01b03168452602081015160038110612ae657612ae6612769565b806020860152506040810151905060606040850152612b086060850182612815565b6020998a0199909450929092019150600101612ab1565b50909695505050505050565b602081525f825160406020840152612b466060840182612a95565b90506020840151601f19848303016040850152612b638282612815565b95945050505050565b6001600160e01b031981168114611aa9575f5ffd5b5f60208284031215612b91575f5ffd5b813561084281612b6c565b5f60208284031215612bac575f5ffd5b81356001600160401b03811115612bc1575f5ffd5b611db7848285016128f4565b5f81518084528060208401602086015e5f602082860101526020601f19601f83011685010191505092915050565b602081525f6108426020830184612bcd565b602081525f6108426020830184612a95565b5f5f60408385031215612c30575f5ffd5b8235612c3b8161273a565b915060208301356001600160401b03811115612c55575f5ffd5b612c61858286016128f4565b9150509250929050565b606081525f612c7d6060830186612bcd565b8281036020840152612c8f8186612815565b905082810360408401526116898185612994565b634e487b7160e01b5f52603260045260245ffd5b6001600160a01b03831681526040602082018190525f90611db790830184612bcd565b8051612ce58161273a565b919050565b5f60208284031215612cfa575f5ffd5b81516108428161273a565b81516001600160a01b0390811682526020808401519091169082015260408083015190820152606080830151908201526080808301519082015260a0828101519082015260c080830151610120830191612d629084018215159052565b5060e083015160e0830152610100830151612d81610100840182612987565b5092915050565b8051612ce5816129ff565b5f610120828403128015612da5575f5ffd5b50612dae612875565b612db783612cda565b8152612dc560208401612cda565b602082015260408381015190820152606080840151908201526080808401519082015260a08084015190820152612dfe60c08401612d88565b60c082015260e08381015190820152612e1a6101008401612cda565b6101008201529392505050565b5f60208284031215612e37575f5ffd5b815160ff81168114610842575f5ffd5b634e487b7160e01b5f52601160045260245ffd5b60ff828116828216039081111561047457610474612e47565b6001815b6001841115612eaf57808504811115612e9357612e93612e47565b6001841615612ea157908102905b60019390931c928002612e78565b935093915050565b5f82612ec557506001610474565b81612ed157505f610474565b8160018114612ee75760028114612ef157612f0d565b6001915050610474565b60ff841115612f0257612f02612e47565b50506001821b610474565b5060208310610133831016604e8410600b8410161715612f30575081810a610474565b612f3c5f198484612e74565b805f1904821115612f4f57612f4f612e47565b029392505050565b5f61084260ff841683612eb7565b808202811582820484141761047457610474612e47565b5f60208284031215612f8c575f5ffd5b81516001600160401b03811115612fa1575f5ffd5b8201601f81018413612fb1575f5ffd5b80516001600160401b03811115612fca57612fca612861565b8060051b612fda6020820161289e565b91825260208184018101929081019087841115612ff5575f5ffd5b6020850194505b83851015613023578451925061301183612b6c565b82825260209485019490910190612ffc565b979650505050505050565b6001600160a01b03891681526101a0602082018190525f906130529083018a61277d565b60408381018a905263ffffffff89166060850152871515608085015286516001600160a01b0390811660a08601526020880151811660c0860152908701511660e084015290506130a6610100830185612987565b825115156101208301526020830151151561014083015260408301511515610160830152606083015115156101808301529998505050505050505050565b5f602082840312156130f4575f5ffd5b81516001600160401b03811115613109575f5ffd5b8201601f81018413613119575f5ffd5b8051613127612911826128ce565b81815285602083850101111561313b575f5ffd5b8160208401602083015e5f91810160200191909152949350505050565b5f81518060208401855e5f93019283525090919050565b6a084ac669884a040decc40560ab1b81525f61318e600b830185613158565b6201017960ed1b81526131a46003820185613158565b602960f81b815260010195945050505050565b5f602082840312156131c7575f5ffd5b8151610842816129ff565b600181811c908216806131e657607f821691505b60208210810361320457634e487b7160e01b5f52602260045260245ffd5b50919050565b601f821115611a1057805f5260205f20601f840160051c8101602085101561322f5750805b601f840160051c820191505b81811015611a55575f815560010161323b565b81516001600160401b0381111561326757613267612861565b61327b8161327584546131d2565b8461320a565b6020601f8211600181146132ad575f83156132965750848201515b5f19600385901b1c1916600184901b178455611a55565b5f84815260208120601f198516915b828110156132dc57878501518255602094850194600190920191016132bc565b50848210156132f957868401515f19600387901b60f8161c191681555b50505050600190811b01905550565b8181038181111561047457610474612e47565b8082018082111561047457610474612e47565b5f6001820161333f5761333f612e47565b5060010190565b80516020808301519190811015613204575f1960209190910360031b1b1691905056fea26469706673582212204f215bd18308fbeb9d34028f75fc1acc5a3cdf455eec1b7b2794e0edd47a781164736f6c634300081e0033","linkReferences":{}},"methodIdentifiers":{"BALANCER_V3_AUTHENTICATION_FACET()":"f0703325","BALANCER_V3_LB_POOL_FACET()":"0f0aaebd","BALANCER_V3_VAULT()":"a4c01bbb","BALANCER_V3_VAULT_AWARE_FACET()":"90d8c705","BETTER_BALANCER_V3_POOL_TOKEN_FACET()":"a378544d","DEFAULT_POOL_INFO_FACET()":"a2bebeb2","DIAMOND_PACKAGE_FACTORY()":"ab6046ed","calcSalt(bytes)":"d82be56e","deployPool(address,address,uint256,uint256,uint256,uint256,bool,uint256,address)":"63820b82","diamondConfig()":"65d375b3","disable()":"2f2770db","facetAddresses()":"52ef6b2c","facetCuts()":"a4b3ad35","facetInterfaces()":"2ea80826","getActionId(bytes4)":"851c1bb3","getDeploymentAddress(bytes,bytes32)":"44f6fec7","getNewPoolPauseWindowEndTime()":"db035ebc","getOriginalPauseWindowEndTime()":"e9d56e19","getPauseWindowDuration()":"78da80cb","getPoolCount()":"8eec5d70","getPools()":"673a2a1f","getPoolsInRange(uint256,uint256)":"53a72f7e","initAccount(bytes)":"870d4838","isDisabled()":"6c57f5a9","isPoolFromFactory(address)":"6634b753","packageMetadata()":"f45469e7","packageName()":"abc8b346","postDeploy(address)":"70068fcf","processArgs(bytes)":"87c3adb3","tokenConfigs(address)":"1b69dc5f","updatePkg(address,bytes)":"a9089235"},"id":887}