{"abi":[{"type":"function","name":"DOMAIN_SEPARATOR","inputs":[],"outputs":[{"name":"","type":"bytes32","internalType":"bytes32"}],"stateMutability":"view"},{"type":"function","name":"allowance","inputs":[{"name":"","type":"address","internalType":"address"},{"name":"","type":"address","internalType":"address"},{"name":"","type":"address","internalType":"address"}],"outputs":[{"name":"amount","type":"uint160","internalType":"uint160"},{"name":"expiration","type":"uint48","internalType":"uint48"},{"name":"nonce","type":"uint48","internalType":"uint48"}],"stateMutability":"view"},{"type":"function","name":"approve","inputs":[{"name":"token","type":"address","internalType":"address"},{"name":"spender","type":"address","internalType":"address"},{"name":"amount","type":"uint160","internalType":"uint160"},{"name":"expiration","type":"uint48","internalType":"uint48"}],"outputs":[],"stateMutability":"nonpayable"},{"type":"function","name":"invalidateNonces","inputs":[{"name":"token","type":"address","internalType":"address"},{"name":"spender","type":"address","internalType":"address"},{"name":"newNonce","type":"uint48","internalType":"uint48"}],"outputs":[],"stateMutability":"nonpayable"},{"type":"function","name":"invalidateUnorderedNonces","inputs":[{"name":"wordPos","type":"uint256","internalType":"uint256"},{"name":"mask","type":"uint256","internalType":"uint256"}],"outputs":[],"stateMutability":"nonpayable"},{"type":"function","name":"lockdown","inputs":[{"name":"approvals","type":"tuple[]","internalType":"struct IAllowanceTransfer.TokenSpenderPair[]","components":[{"name":"token","type":"address","internalType":"address"},{"name":"spender","type":"address","internalType":"address"}]}],"outputs":[],"stateMutability":"nonpayable"},{"type":"function","name":"nonceBitmap","inputs":[{"name":"","type":"address","internalType":"address"},{"name":"","type":"uint256","internalType":"uint256"}],"outputs":[{"name":"","type":"uint256","internalType":"uint256"}],"stateMutability":"view"},{"type":"function","name":"permit","inputs":[{"name":"owner","type":"address","internalType":"address"},{"name":"permitBatch","type":"tuple","internalType":"struct IAllowanceTransfer.PermitBatch","components":[{"name":"details","type":"tuple[]","internalType":"struct IAllowanceTransfer.PermitDetails[]","components":[{"name":"token","type":"address","internalType":"address"},{"name":"amount","type":"uint160","internalType":"uint160"},{"name":"expiration","type":"uint48","internalType":"uint48"},{"name":"nonce","type":"uint48","internalType":"uint48"}]},{"name":"spender","type":"address","internalType":"address"},{"name":"sigDeadline","type":"uint256","internalType":"uint256"}]},{"name":"signature","type":"bytes","internalType":"bytes"}],"outputs":[],"stateMutability":"nonpayable"},{"type":"function","name":"permit","inputs":[{"name":"owner","type":"address","internalType":"address"},{"name":"permitSingle","type":"tuple","internalType":"struct IAllowanceTransfer.PermitSingle","components":[{"name":"details","type":"tuple","internalType":"struct IAllowanceTransfer.PermitDetails","components":[{"name":"token","type":"address","internalType":"address"},{"name":"amount","type":"uint160","internalType":"uint160"},{"name":"expiration","type":"uint48","internalType":"uint48"},{"name":"nonce","type":"uint48","internalType":"uint48"}]},{"name":"spender","type":"address","internalType":"address"},{"name":"sigDeadline","type":"uint256","internalType":"uint256"}]},{"name":"signature","type":"bytes","internalType":"bytes"}],"outputs":[],"stateMutability":"nonpayable"},{"type":"function","name":"permitTransferFrom","inputs":[{"name":"permit","type":"tuple","internalType":"struct ISignatureTransfer.PermitTransferFrom","components":[{"name":"permitted","type":"tuple","internalType":"struct ISignatureTransfer.TokenPermissions","components":[{"name":"token","type":"address","internalType":"address"},{"name":"amount","type":"uint256","internalType":"uint256"}]},{"name":"nonce","type":"uint256","internalType":"uint256"},{"name":"deadline","type":"uint256","internalType":"uint256"}]},{"name":"transferDetails","type":"tuple","internalType":"struct ISignatureTransfer.SignatureTransferDetails","components":[{"name":"to","type":"address","internalType":"address"},{"name":"requestedAmount","type":"uint256","internalType":"uint256"}]},{"name":"owner","type":"address","internalType":"address"},{"name":"signature","type":"bytes","internalType":"bytes"}],"outputs":[],"stateMutability":"nonpayable"},{"type":"function","name":"permitTransferFrom","inputs":[{"name":"permit","type":"tuple","internalType":"struct ISignatureTransfer.PermitBatchTransferFrom","components":[{"name":"permitted","type":"tuple[]","internalType":"struct ISignatureTransfer.TokenPermissions[]","components":[{"name":"token","type":"address","internalType":"address"},{"name":"amount","type":"uint256","internalType":"uint256"}]},{"name":"nonce","type":"uint256","internalType":"uint256"},{"name":"deadline","type":"uint256","internalType":"uint256"}]},{"name":"transferDetails","type":"tuple[]","internalType":"struct ISignatureTransfer.SignatureTransferDetails[]","components":[{"name":"to","type":"address","internalType":"address"},{"name":"requestedAmount","type":"uint256","internalType":"uint256"}]},{"name":"owner","type":"address","internalType":"address"},{"name":"signature","type":"bytes","internalType":"bytes"}],"outputs":[],"stateMutability":"nonpayable"},{"type":"function","name":"permitWitnessTransferFrom","inputs":[{"name":"permit","type":"tuple","internalType":"struct ISignatureTransfer.PermitTransferFrom","components":[{"name":"permitted","type":"tuple","internalType":"struct ISignatureTransfer.TokenPermissions","components":[{"name":"token","type":"address","internalType":"address"},{"name":"amount","type":"uint256","internalType":"uint256"}]},{"name":"nonce","type":"uint256","internalType":"uint256"},{"name":"deadline","type":"uint256","internalType":"uint256"}]},{"name":"transferDetails","type":"tuple","internalType":"struct ISignatureTransfer.SignatureTransferDetails","components":[{"name":"to","type":"address","internalType":"address"},{"name":"requestedAmount","type":"uint256","internalType":"uint256"}]},{"name":"owner","type":"address","internalType":"address"},{"name":"witness","type":"bytes32","internalType":"bytes32"},{"name":"witnessTypeString","type":"string","internalType":"string"},{"name":"signature","type":"bytes","internalType":"bytes"}],"outputs":[],"stateMutability":"nonpayable"},{"type":"function","name":"permitWitnessTransferFrom","inputs":[{"name":"permit","type":"tuple","internalType":"struct ISignatureTransfer.PermitBatchTransferFrom","components":[{"name":"permitted","type":"tuple[]","internalType":"struct ISignatureTransfer.TokenPermissions[]","components":[{"name":"token","type":"address","internalType":"address"},{"name":"amount","type":"uint256","internalType":"uint256"}]},{"name":"nonce","type":"uint256","internalType":"uint256"},{"name":"deadline","type":"uint256","internalType":"uint256"}]},{"name":"transferDetails","type":"tuple[]","internalType":"struct ISignatureTransfer.SignatureTransferDetails[]","components":[{"name":"to","type":"address","internalType":"address"},{"name":"requestedAmount","type":"uint256","internalType":"uint256"}]},{"name":"owner","type":"address","internalType":"address"},{"name":"witness","type":"bytes32","internalType":"bytes32"},{"name":"witnessTypeString","type":"string","internalType":"string"},{"name":"signature","type":"bytes","internalType":"bytes"}],"outputs":[],"stateMutability":"nonpayable"},{"type":"function","name":"transferFrom","inputs":[{"name":"transferDetails","type":"tuple[]","internalType":"struct IAllowanceTransfer.AllowanceTransferDetails[]","components":[{"name":"from","type":"address","internalType":"address"},{"name":"to","type":"address","internalType":"address"},{"name":"amount","type":"uint160","internalType":"uint160"},{"name":"token","type":"address","internalType":"address"}]}],"outputs":[],"stateMutability":"nonpayable"},{"type":"function","name":"transferFrom","inputs":[{"name":"from","type":"address","internalType":"address"},{"name":"to","type":"address","internalType":"address"},{"name":"amount","type":"uint160","internalType":"uint160"},{"name":"token","type":"address","internalType":"address"}],"outputs":[],"stateMutability":"nonpayable"},{"type":"event","name":"Approval","inputs":[{"name":"owner","type":"address","indexed":true,"internalType":"address"},{"name":"token","type":"address","indexed":true,"internalType":"address"},{"name":"spender","type":"address","indexed":true,"internalType":"address"},{"name":"amount","type":"uint160","indexed":false,"internalType":"uint160"},{"name":"expiration","type":"uint48","indexed":false,"internalType":"uint48"}],"anonymous":false},{"type":"event","name":"Lockdown","inputs":[{"name":"owner","type":"address","indexed":true,"internalType":"address"},{"name":"token","type":"address","indexed":false,"internalType":"address"},{"name":"spender","type":"address","indexed":false,"internalType":"address"}],"anonymous":false},{"type":"event","name":"NonceInvalidation","inputs":[{"name":"owner","type":"address","indexed":true,"internalType":"address"},{"name":"token","type":"address","indexed":true,"internalType":"address"},{"name":"spender","type":"address","indexed":true,"internalType":"address"},{"name":"newNonce","type":"uint48","indexed":false,"internalType":"uint48"},{"name":"oldNonce","type":"uint48","indexed":false,"internalType":"uint48"}],"anonymous":false},{"type":"event","name":"Permit","inputs":[{"name":"owner","type":"address","indexed":true,"internalType":"address"},{"name":"token","type":"address","indexed":true,"internalType":"address"},{"name":"spender","type":"address","indexed":true,"internalType":"address"},{"name":"amount","type":"uint160","indexed":false,"internalType":"uint160"},{"name":"expiration","type":"uint48","indexed":false,"internalType":"uint48"},{"name":"nonce","type":"uint48","indexed":false,"internalType":"uint48"}],"anonymous":false},{"type":"event","name":"UnorderedNonceInvalidation","inputs":[{"name":"owner","type":"address","indexed":true,"internalType":"address"},{"name":"word","type":"uint256","indexed":false,"internalType":"uint256"},{"name":"mask","type":"uint256","indexed":false,"internalType":"uint256"}],"anonymous":false},{"type":"error","name":"AllowanceExpired","inputs":[{"name":"deadline","type":"uint256","internalType":"uint256"}]},{"type":"error","name":"ExcessiveInvalidation","inputs":[]},{"type":"error","name":"InsufficientAllowance","inputs":[{"name":"amount","type":"uint256","internalType":"uint256"}]},{"type":"error","name":"InvalidAmount","inputs":[{"name":"maxAmount","type":"uint256","internalType":"uint256"}]},{"type":"error","name":"InvalidContractSignature","inputs":[]},{"type":"error","name":"InvalidNonce","inputs":[]},{"type":"error","name":"InvalidSignature","inputs":[]},{"type":"error","name":"InvalidSignatureLength","inputs":[]},{"type":"error","name":"InvalidSigner","inputs":[]},{"type":"error","name":"LengthMismatch","inputs":[]},{"type":"error","name":"SignatureExpired","inputs":[{"name":"signatureDeadline","type":"uint256","internalType":"uint256"}]}],"bytecode":{"object":"0x60c060405234801561000f575f5ffd5b504660a05261005e7f8cad95687ba82c2ce50e74f7b754645e5117c3a5bec8151c0726d5857980a8667f9ac997416e8ff9d2ff6bebeb7149f65cdae5e32e2b90440b566bb3044041d36a610066565b6080526100ae565b60408051602081018490529081018290524660608201523060808201525f906100a79060a00160408051601f19818403018152919052805160209091012090565b9392505050565b60805160a05161217a6100cf5f395f61137201525f6113e4015261217a5ff3fe608060405234801561000f575f5ffd5b50600436106100c3575f3560e01c80630d58b1db146100c7578063137c29fe146100dc5780632a2d80d1146100ef5780632b67b5701461010257806330f28b7a146101155780633644e5151461012857806336c78516146101435780633ff9dcb1146101565780634fe02b441461016957806365d9723c1461019057806387517c45146101a3578063927da105146101b6578063cc53287f14610219578063edd9444b1461022c578063fe8ec1a71461023f575b5f5ffd5b6100da6100d5366004611496565b610252565b005b6100da6100ea3660046116ad565b6102b2565b6100da6100fd3660046117f4565b6102d5565b6100da61011036600461191b565b610373565b6100da61012336600461199d565b6103c1565b6101306103d7565b6040519081526020015b60405180910390f35b6100da610151366004611a12565b6103e5565b6100da610164366004611a6b565b6103f1565b610130610177366004611a8b565b5f60208181529281526040808220909352908152205481565b6100da61019e366004611ab5565b610449565b6100da6101b1366004611af9565b61057f565b61020a6101c4366004611b50565b600160209081525f93845260408085208252928452828420905282529020546001600160a01b0381169065ffffffffffff600160a01b8204811691600160d01b90041683565b60405161013a93929190611b98565b6100da610227366004611c01565b610613565b6100da61023a366004611cfa565b6106fc565b6100da61024d366004611da3565b61071b565b805f5b818110156102ac575f84848381811061027057610270611e84565b9050608002018036038101906102869190611e98565b90506102a3815f0151826020015183604001518460600151610745565b50600101610255565b50505050565b6102cb8888886102c4838a8a8a61082c565b86866108ba565b5050505050505050565b826040015142111561030b57826040015160405163cd21db4f60e01b815260040161030291815260200190565b60405180910390fd5b61032961031f61031a85610966565b610a5f565b8390839087610a96565b60208301518351515f5b8181101561036a57610362865f0151828151811061035357610353611e84565b60200260200101518885610ca0565b600101610333565b50505050505050565b82604001514211156103a057826040015160405163cd21db4f60e01b815260040161030291815260200190565b6103af61031f61031a85610d81565b6102ac835f0151858560200151610ca0565b6103d08585856102c489610dda565b5050505050565b5f6103e0610e2e565b905090565b6102ac84848484610745565b335f8181526020818152604080832086845282529182902080548517905581518581529081018490527f3704902f963766a4e561bbaab6e6cdc1b1dd12f6e9e99648da8843b3f46b918d910160405180910390a25050565b335f9081526001602090815260408083206001600160a01b038781168552908352818420908616845290915290205465ffffffffffff600160d01b909104811690821681106104ab57604051633ab3447f60e11b815260040160405180910390fd5b80820361ffff65ffffffffffff821611156104d957604051631269ad1360e11b815260040160405180910390fd5b50335f8181526001602090815260408083206001600160a01b03898116808652918452828520908916808652935292819020805465ffffffffffff8816600160d01b026001600160d01b03909116179055519092907f55eb90d810e1700b35a8e7e25395ff7f2b2259abd7415ca2284dfb1c246418f390610571908790879065ffffffffffff92831681529116602082015260400190565b60405180910390a450505050565b335f9081526001602090815260408083206001600160a01b038881168552908352818420908716845290915290206105b8818484610e37565b604080516001600160a01b03858116825265ffffffffffff85166020830152808716929088169133917fda9fa7c1b00402c17d0161b249b1ab8bbec047c5a52207b9c112deffd817036b910160405180910390a45050505050565b33815f5b818110156103d0575f85858381811061063257610632611e84565b6106489260206040909202019081019150611eff565b90505f86868481811061065d5761065d611e84565b90506040020160200160208101906106759190611eff565b6001600160a01b038681165f8181526001602090815260408083208886168085529083528184209587168085529583529281902080546001600160a01b0319169055805192835290820193909352929350917f89b1add15eff56b3dfe299ad94e01f2b52fbcb80ae1a3baea6ae8c04cb2b98a4910160405180910390a25050600101610617565b6107138686868661070c8b610e8e565b8787610f84565b505050505050565b5f6107288a8787876110c3565b90506107398a8a8a8a858888610f84565b50505050505050505050565b6001600160a01b038481165f90815260016020908152604080832093851683529281528282203383529052208054600160a01b900465ffffffffffff164211156107b5578054604051636c0d979760e11b8152600160a01b90910465ffffffffffff166004820152602401610302565b80546001600160a01b039081169081146108125780846001600160a01b031611156107f65760405163f96fb07160e01b815260048101829052602401610302565b81546001600160a01b0319168482036001600160a01b03161782555b61036a6001600160a01b03848116908890889088166111cd565b5f5f6108786040518060a00160405280606481526020016120e160649139858560405160200161085e93929190611f1a565b604051602081830303815290604052805160209091012090565b90505f610887875f01516111ee565b90506108af8282338a602001518b604001518b60405160200161085e96959493929190611f3e565b979650505050505050565b60408601516020860135904211156108ed57866040015160405163cd21db4f60e01b815260040161030291815260200190565b86516020015181111561091d57865160200151604051633728b83d60e01b81526004810191909152602401610302565b61092b858860200151611244565b61094161093785610a5f565b8490849088610a96565b6102cb856109526020890189611eff565b8951516001600160a01b03169190846111cd565b8051515f9081816001600160401b0381111561098457610984611505565b6040519080825280602002602001820160405280156109ad578160200160208202803683370190505b5090505f5b82811015610a04576109df855f015182815181106109d2576109d2611e84565b60200260200101516112a1565b8282815181106109f1576109f1611e84565b60209081029190910101526001016109b2565b50610a577faf1b0d30d2cab0380e68f0689007e3254993c596f2fdd0aaa7f4d04f79440863610a3d8360405160200161085e9190611f6f565b6020808801516040808a0151905161085e95949301611fa4565b949350505050565b5f610a90610a6b6103d7565b60405161190160f01b602082015260228101919091526042810184905260620161085e565b92915050565b5f5f5f836001600160a01b03163b5f03610bfc576041869003610ae857610abf86880188611a6b565b909350915086866040818110610ad757610ad7611e84565b919091013560f81c9150610b3f9050565b6040869003610b26575f610afe87890189611a6b565b9094506001600160ff1b03811693509050610b1e60ff82901c601b611fc8565b915050610b3f565b604051634be6321b60e01b815260040160405180910390fd5b604080515f8082526020820180845288905260ff841692820192909252606081018590526080810184905260019060a0016020604051602081039080840390855afa158015610b90573d5f5f3e3d5ffd5b5050604051601f1901519150506001600160a01b038116610bc457604051638baa579f60e01b815260040160405180910390fd5b846001600160a01b0316816001600160a01b031614610bf657604051632057875960e21b815260040160405180910390fd5b5061036a565b604051630b135d3f60e11b81525f906001600160a01b03861690631626ba7e90610c2e9089908c908c90600401611fed565b602060405180830381865afa158015610c49573d5f5f3e3d5ffd5b505050506040513d601f19601f82011682018060405250810190610c6d9190612022565b90506001600160e01b03198116630b135d3f60e11b146102cb57604051632c19a72f60e21b815260040160405180910390fd5b606083015183516020808601516040808801516001600160a01b038881165f9081526001865283812082881682528652838120918916815294529220805491929165ffffffffffff808716600160d01b9092041614610d1257604051633ab3447f60e11b815260040160405180910390fd5b610d1e8184848861131b565b856001600160a01b0316846001600160a01b0316886001600160a01b03167fc6a377bfc4eb120024a8ac08eef205be16b817020812c73223e81d1bdb9708ec86868a604051610d6f93929190611b98565b60405180910390a45050505050505050565b5f5f610d8f835f01516112a1565b9050610dd37ff3841cd1ff0085026a6327b620b67997ce40f282c88a8e905a7a5626e310f3d0828560200151866040015160405160200161085e9493929190611fa4565b9392505050565b5f5f610de8835f01516111ee565b9050610dd37f939c21a48a8dbe3a9a2404a1d46691e4d39f6583d6ec6b35714604c986d8010682338660200151876040015160405160200161085e959493929190612049565b5f6103e061136f565b65ffffffffffff811615610e4b5780610e4d565b425b83546001600160d01b031916600160a01b65ffffffffffff92909216919091026001600160a01b031916176001600160a01b03929092169190911790915550565b8051515f9081816001600160401b03811115610eac57610eac611505565b604051908082528060200260200182016040528015610ed5578160200160208202803683370190505b5090505f5b82811015610f2c57610f07855f01518281518110610efa57610efa611e84565b60200260200101516111ee565b828281518110610f1957610f19611e84565b6020908102919091010152600101610eda565b50610a577ffcf35f5ac6a2c28868dc44c302166470266239195f02b0ee408334829333b766610f658360405160200161085e9190611f6f565b338760200151886040015160405160200161085e959493929190612049565b8651516040880151421115610fb457876040015160405163cd21db4f60e01b815260040161030291815260200190565b808614610fd7576040516001621398b960e31b0319815260040160405180910390fd5b610fe5858960200151611244565b610ff161093785610a5f565b5f5b818110156110b8575f895f0151828151811061101157611011611e84565b602002602001015190505f89898481811061102e5761102e611e84565b9050604002016020013590508160200151811115611067578160200151604051633728b83d60e01b815260040161030291815260200190565b80156110ae576110ac888b8b8681811061108357611083611e84565b6110999260206040909202019081019150611eff565b84516001600160a01b03169190846111cd565b505b5050600101610ff3565b505050505050505050565b5f5f6110f56040518060a00160405280606b8152602001612076606b9139858560405160200161085e93929190611f1a565b8651519091505f816001600160401b0381111561111457611114611505565b60405190808252806020026020018201604052801561113d578160200160208202803683370190505b5090505f5b8281101561118757611162895f01518281518110610efa57610efa611e84565b82828151811061117457611174611e84565b6020908102919091010152600101611142565b506111c1836111a08360405160200161085e9190611f6f565b338b602001518c604001518c60405160200161085e96959493929190611f3e565b98975050505050505050565b5f6111e36001600160a01b038616858585611406565b506001949350505050565b5f610a907f618358ac3db8dc274f0cd8829da7e234bd48cd73c4a740aede1adec9846d06a18360405160200161085e92919091825280516001600160a01b03166020808401919091520151604082015260600190565b6001600160a01b0382165f90815260208181526040808320600885901c808552925282208054600160ff861690811b918218928390559293909190818316900361071357604051633ab3447f60e11b815260040160405180910390fd5b604080517f65626cad6cb96493bf6f5ebea28756c966f023ab9e8a83a7101849d5573b367860208083019190915283516001600160a01b039081168385015290840151166060808301919091529183015165ffffffffffff90811660808301529183015190911660a08201525f90610a909060c00161085e565b600181015f65ffffffffffff8416156113345783611336565b425b90505f6001600160a01b03861660a083901b65ffffffffffff60a01b1660d085901b6001600160d01b0319161717909655505050505050565b5f7f000000000000000000000000000000000000000000000000000000000000000046146113e1576103e07f8cad95687ba82c2ce50e74f7b754645e5117c3a5bec8151c0726d5857980a8667f9ac997416e8ff9d2ff6bebeb7149f65cdae5e32e2b90440b566bb3044041d36a611412565b507f000000000000000000000000000000000000000000000000000000000000000090565b6102ac8484848461143d565b60408051602081018490529081018290524660608201523060808201525f90610dd39060a00161085e565b60405181606052826040528360601b602c526323b872dd60601b600c5260205f6064601c5f895af18060015f51141661148857803d873b15171061148857637939f4245f526004601cfd5b505f60605260405250505050565b5f5f602083850312156114a7575f5ffd5b82356001600160401b038111156114bc575f5ffd5b8301601f810185136114cc575f5ffd5b80356001600160401b038111156114e1575f5ffd5b8560208260071b84010111156114f5575f5ffd5b6020919091019590945092505050565b634e487b7160e01b5f52604160045260245ffd5b604051606081016001600160401b038111828210171561153b5761153b611505565b60405290565b604051608081016001600160401b038111828210171561153b5761153b611505565b604051601f8201601f191681016001600160401b038111828210171561158b5761158b611505565b604052919050565b6001600160a01b03811681146115a7575f5ffd5b50565b80356115b581611593565b919050565b5f604082840312156115ca575f5ffd5b604080519081016001600160401b03811182821017156115ec576115ec611505565b60405290508082356115fd81611593565b8152602092830135920191909152919050565b5f60808284031215611620575f5ffd5b611628611519565b905061163483836115ba565b8152604082810135602083015260609092013591810191909152919050565b5f60408284031215611663575f5ffd5b50919050565b5f5f83601f840112611679575f5ffd5b5081356001600160401b0381111561168f575f5ffd5b6020830191508360208285010111156116a6575f5ffd5b9250929050565b5f5f5f5f5f5f5f5f610140898b0312156116c5575f5ffd5b6116cf8a8a611610565b97506116de8a60808b01611653565b965060c08901356116ee81611593565b955060e089013594506101008901356001600160401b03811115611710575f5ffd5b61171c8b828c01611669565b9095509350506101208901356001600160401b0381111561173b575f5ffd5b6117478b828c01611669565b999c989b5096995094979396929594505050565b5f6001600160401b0382111561177357611773611505565b5060051b60200190565b803565ffffffffffff811681146115b5575f5ffd5b5f608082840312156117a2575f5ffd5b6117aa611541565b905081356117b781611593565b815260208201356117c781611593565b60208201526117d86040830161177d565b60408201526117e96060830161177d565b606082015292915050565b5f5f5f5f60608587031215611807575f5ffd5b843561181281611593565b935060208501356001600160401b0381111561182c575f5ffd5b85016060818803121561183d575f5ffd5b611845611519565b81356001600160401b0381111561185a575f5ffd5b8201601f8101891361186a575f5ffd5b803561187d6118788261175b565b611563565b8082825260208201915060208360071b85010192508b83111561189e575f5ffd5b6020840193505b828410156118ca576118b78c85611792565b82526020820191506080840193506118a5565b8452506118dc915050602083016115aa565b60208201526040918201358282015293508501356001600160401b03811115611903575f5ffd5b61190f87828801611669565b95989497509550505050565b5f5f5f5f848603610100811215611930575f5ffd5b853561193b81611593565b945060c0601f198201121561194e575f5ffd5b50611957611519565b6119648760208801611792565b815260a086013561197481611593565b602082015260c08601356040820152925060e08501356001600160401b03811115611903575f5ffd5b5f5f5f5f5f61010086880312156119b2575f5ffd5b6119bc8787611610565b94506119cb8760808801611653565b935060c08601356119db81611593565b925060e08601356001600160401b038111156119f5575f5ffd5b611a0188828901611669565b969995985093965092949392505050565b5f5f5f5f60808587031215611a25575f5ffd5b8435611a3081611593565b93506020850135611a4081611593565b92506040850135611a5081611593565b91506060850135611a6081611593565b939692955090935050565b5f5f60408385031215611a7c575f5ffd5b50508035926020909101359150565b5f5f60408385031215611a9c575f5ffd5b8235611aa781611593565b946020939093013593505050565b5f5f5f60608486031215611ac7575f5ffd5b8335611ad281611593565b92506020840135611ae281611593565b9150611af06040850161177d565b90509250925092565b5f5f5f5f60808587031215611b0c575f5ffd5b8435611b1781611593565b93506020850135611b2781611593565b92506040850135611b3781611593565b9150611b456060860161177d565b905092959194509250565b5f5f5f60608486031215611b62575f5ffd5b8335611b6d81611593565b92506020840135611b7d81611593565b91506040840135611b8d81611593565b809150509250925092565b6001600160a01b0393909316835265ffffffffffff918216602084015216604082015260600190565b5f5f83601f840112611bd1575f5ffd5b5081356001600160401b03811115611be7575f5ffd5b6020830191508360208260061b85010111156116a6575f5ffd5b5f5f60208385031215611c12575f5ffd5b82356001600160401b03811115611c27575f5ffd5b611c3385828601611bc1565b90969095509350505050565b5f60608284031215611c4f575f5ffd5b611c57611519565b905081356001600160401b03811115611c6e575f5ffd5b8201601f81018413611c7e575f5ffd5b8035611c8c6118788261175b565b8082825260208201915060208360061b850101925086831115611cad575f5ffd5b6020840193505b82841015611cd957611cc687856115ba565b8252602082019150604084019350611cb4565b84525050506020828101359082015260409182013591810191909152919050565b5f5f5f5f5f5f60808789031215611d0f575f5ffd5b86356001600160401b03811115611d24575f5ffd5b611d3089828a01611c3f565b96505060208701356001600160401b03811115611d4b575f5ffd5b611d5789828a01611bc1565b9096509450506040870135611d6b81611593565b925060608701356001600160401b03811115611d85575f5ffd5b611d9189828a01611669565b979a9699509497509295939492505050565b5f5f5f5f5f5f5f5f5f60c08a8c031215611dbb575f5ffd5b89356001600160401b03811115611dd0575f5ffd5b611ddc8c828d01611c3f565b99505060208a01356001600160401b03811115611df7575f5ffd5b611e038c828d01611bc1565b9099509750611e16905060408b016115aa565b955060608a0135945060808a01356001600160401b03811115611e37575f5ffd5b611e438c828d01611669565b90955093505060a08a01356001600160401b03811115611e61575f5ffd5b611e6d8c828d01611669565b915080935050809150509295985092959850929598565b634e487b7160e01b5f52603260045260245ffd5b5f6080828403128015611ea9575f5ffd5b50611eb2611541565b8235611ebd81611593565b81526020830135611ecd81611593565b60208201526040830135611ee081611593565b60408201526060830135611ef381611593565b60608201529392505050565b5f60208284031215611f0f575f5ffd5b8135610dd381611593565b5f84518060208701845e5f908301908152838582375f930192835250909392505050565b95865260208601949094526001600160a01b039290921660408501526060840152608083015260a082015260c00190565b81515f90829060208501835b82811015611f99578151845260209384019390910190600101611f7b565b509195945050505050565b93845260208401929092526001600160a01b03166040830152606082015260800190565b60ff8181168382160190811115610a9057634e487b7160e01b5f52601160045260245ffd5b83815260406020820152816040820152818360608301375f818301606090810191909152601f909201601f1916010192915050565b5f60208284031215612032575f5ffd5b81516001600160e01b031981168114610dd3575f5ffd5b94855260208501939093526001600160a01b039190911660408401526060830152608082015260a0019056fe5065726d697442617463685769746e6573735472616e7366657246726f6d28546f6b656e5065726d697373696f6e735b5d207065726d69747465642c61646472657373207370656e6465722c75696e74323536206e6f6e63652c75696e7432353620646561646c696e652c5065726d69745769746e6573735472616e7366657246726f6d28546f6b656e5065726d697373696f6e73207065726d69747465642c61646472657373207370656e6465722c75696e74323536206e6f6e63652c75696e7432353620646561646c696e652ca2646970667358221220517ad80c196977a44cd556b54da09a75364d9d41d1c747091b8f0da53b5fa1b564736f6c634300081e0033","linkReferences":{}},"methodIdentifiers":{"DOMAIN_SEPARATOR()":"3644e515","allowance(address,address,address)":"927da105","approve(address,address,uint160,uint48)":"87517c45","invalidateNonces(address,address,uint48)":"65d9723c","invalidateUnorderedNonces(uint256,uint256)":"3ff9dcb1","lockdown((address,address)[])":"cc53287f","nonceBitmap(address,uint256)":"4fe02b44","permit(address,((address,uint160,uint48,uint48),address,uint256),bytes)":"2b67b570","permit(address,((address,uint160,uint48,uint48)[],address,uint256),bytes)":"2a2d80d1","permitTransferFrom(((address,uint256),uint256,uint256),(address,uint256),address,bytes)":"30f28b7a","permitTransferFrom(((address,uint256)[],uint256,uint256),(address,uint256)[],address,bytes)":"edd9444b","permitWitnessTransferFrom(((address,uint256),uint256,uint256),(address,uint256),address,bytes32,string,bytes)":"137c29fe","permitWitnessTransferFrom(((address,uint256)[],uint256,uint256),(address,uint256)[],address,bytes32,string,bytes)":"fe8ec1a7","transferFrom((address,address,uint160,address)[])":"0d58b1db","transferFrom(address,address,uint160,address)":"36c78516"},"id":1249}