{"abi":[{"type":"function","name":"computeCenteredness","inputs":[{"name":"balancesScaled18","type":"uint256[]","internalType":"uint256[]"},{"name":"virtualBalances","type":"uint256[]","internalType":"uint256[]"}],"outputs":[{"name":"","type":"uint256","internalType":"uint256"}],"stateMutability":"pure"},{"type":"function","name":"computeCurrentVirtualBalances","inputs":[{"name":"balancesScaled18","type":"uint256[]","internalType":"uint256[]"},{"name":"virtualBalances","type":"uint256[]","internalType":"uint256[]"},{"name":"dailyPriceShiftBase","type":"uint256","internalType":"uint256"},{"name":"lastTimestamp","type":"uint32","internalType":"uint32"},{"name":"centerednessMargin","type":"uint64","internalType":"uint64"}],"outputs":[{"name":"newVirtualBalances","type":"uint256[]","internalType":"uint256[]"},{"name":"changed","type":"bool","internalType":"bool"}],"stateMutability":"view"},{"type":"function","name":"computeFourthRootPriceRatio","inputs":[{"name":"currentTime","type":"uint32","internalType":"uint32"},{"name":"startFourthRootPriceRatio","type":"uint96","internalType":"uint96"},{"name":"endFourthRootPriceRatio","type":"uint96","internalType":"uint96"},{"name":"startTime","type":"uint32","internalType":"uint32"},{"name":"endTime","type":"uint32","internalType":"uint32"}],"outputs":[{"name":"","type":"uint96","internalType":"uint96"}],"stateMutability":"pure"},{"type":"function","name":"computeInGivenOut","inputs":[{"name":"balancesScaled18","type":"uint256[]","internalType":"uint256[]"},{"name":"virtualBalances","type":"uint256[]","internalType":"uint256[]"},{"name":"tokenInIndex","type":"uint256","internalType":"uint256"},{"name":"tokenOutIndex","type":"uint256","internalType":"uint256"},{"name":"amountGivenScaled18","type":"uint256","internalType":"uint256"}],"outputs":[{"name":"","type":"uint256","internalType":"uint256"}],"stateMutability":"pure"},{"type":"function","name":"computeInvariant","inputs":[{"name":"balancesScaled18","type":"uint256[]","internalType":"uint256[]"},{"name":"lastVirtualBalances","type":"uint256[]","internalType":"uint256[]"},{"name":"c","type":"uint256","internalType":"uint256"},{"name":"lastTimestamp","type":"uint32","internalType":"uint32"},{"name":"centerednessMargin","type":"uint64","internalType":"uint64"},{"name":"rounding","type":"uint8","internalType":"enum Rounding"}],"outputs":[{"name":"","type":"uint256","internalType":"uint256"}],"stateMutability":"view"},{"type":"function","name":"computeInvariant","inputs":[{"name":"balancesScaled18","type":"uint256[]","internalType":"uint256[]"},{"name":"virtualBalances","type":"uint256[]","internalType":"uint256[]"},{"name":"rounding","type":"uint8","internalType":"enum Rounding"}],"outputs":[{"name":"","type":"uint256","internalType":"uint256"}],"stateMutability":"pure"},{"type":"function","name":"computeOutGivenIn","inputs":[{"name":"balancesScaled18","type":"uint256[]","internalType":"uint256[]"},{"name":"virtualBalances","type":"uint256[]","internalType":"uint256[]"},{"name":"tokenInIndex","type":"uint256","internalType":"uint256"},{"name":"tokenOutIndex","type":"uint256","internalType":"uint256"},{"name":"amountGivenScaled18","type":"uint256","internalType":"uint256"}],"outputs":[{"name":"","type":"uint256","internalType":"uint256"}],"stateMutability":"pure"},{"type":"function","name":"computePriceRange","inputs":[{"name":"balancesScaled18","type":"uint256[]","internalType":"uint256[]"},{"name":"virtualBalanceA","type":"uint256","internalType":"uint256"},{"name":"virtualBalanceB","type":"uint256","internalType":"uint256"}],"outputs":[{"name":"","type":"uint256","internalType":"uint256"},{"name":"","type":"uint256","internalType":"uint256"}],"stateMutability":"pure"},{"type":"function","name":"computePriceRatio","inputs":[{"name":"balancesScaled18","type":"uint256[]","internalType":"uint256[]"},{"name":"virtualBalanceA","type":"uint256","internalType":"uint256"},{"name":"virtualBalanceB","type":"uint256","internalType":"uint256"}],"outputs":[{"name":"","type":"uint256","internalType":"uint256"}],"stateMutability":"pure"},{"type":"function","name":"computeTheoreticalPriceRatioAndBalances","inputs":[{"name":"minPrice","type":"uint256","internalType":"uint256"},{"name":"maxPrice","type":"uint256","internalType":"uint256"},{"name":"targetPrice","type":"uint256","internalType":"uint256"}],"outputs":[{"name":"realBalances","type":"uint256[]","internalType":"uint256[]"},{"name":"virtualBalances","type":"uint256[]","internalType":"uint256[]"},{"name":"priceRatio","type":"uint256","internalType":"uint256"}],"stateMutability":"pure"},{"type":"function","name":"isAboveCenter","inputs":[{"name":"balancesScaled18","type":"uint256[]","internalType":"uint256[]"},{"name":"virtualBalances","type":"uint256[]","internalType":"uint256[]"}],"outputs":[{"name":"isPoolAboveCenter","type":"bool","internalType":"bool"}],"stateMutability":"pure"},{"type":"function","name":"isPoolWithinTargetRange","inputs":[{"name":"balancesScaled18","type":"uint256[]","internalType":"uint256[]"},{"name":"virtualBalances","type":"uint256[]","internalType":"uint256[]"},{"name":"centerednessMargin","type":"uint256","internalType":"uint256"}],"outputs":[{"name":"","type":"bool","internalType":"bool"}],"stateMutability":"pure"},{"type":"function","name":"sqrtScaled18","inputs":[{"name":"value","type":"uint256","internalType":"uint256"}],"outputs":[{"name":"","type":"uint256","internalType":"uint256"}],"stateMutability":"pure"},{"type":"function","name":"startPriceRatioUpdate","inputs":[{"name":"priceRatioState","type":"tuple","internalType":"struct PriceRatioState","components":[{"name":"startFourthRootPriceRatio","type":"uint96","internalType":"uint96"},{"name":"endFourthRootPriceRatio","type":"uint96","internalType":"uint96"},{"name":"priceRatioUpdateStartTime","type":"uint32","internalType":"uint32"},{"name":"priceRatioUpdateEndTime","type":"uint32","internalType":"uint32"}]}],"outputs":[],"stateMutability":"nonpayable"},{"type":"function","name":"toDailyPriceShiftBase","inputs":[{"name":"dailyPriceShiftExponent","type":"uint256","internalType":"uint256"}],"outputs":[{"name":"","type":"uint256","internalType":"uint256"}],"stateMutability":"pure"},{"type":"function","name":"toDailyPriceShiftExponent","inputs":[{"name":"dailyPriceShiftBase","type":"uint256","internalType":"uint256"}],"outputs":[{"name":"","type":"uint256","internalType":"uint256"}],"stateMutability":"pure"},{"type":"error","name":"AmountOutGreaterThanBalance","inputs":[]},{"type":"error","name":"BaseOutOfBounds","inputs":[]},{"type":"error","name":"ExponentOutOfBounds","inputs":[]},{"type":"error","name":"InvalidExponent","inputs":[]},{"type":"error","name":"ProductOutOfBounds","inputs":[]},{"type":"error","name":"ZeroDivision","inputs":[]}],"bytecode":{"object":"0x6080604052348015600e575f5ffd5b506123d28061001c5f395ff3fe608060405234801561000f575f5ffd5b50600436106100ce575f3560e01c80632824cf03146100d25780634137c751146100f857806351ee0fb81461011a57806360b502bf1461019e578063727f79bf146101b157806372be4a84146101d45780637ca83b56146101e75780638ca0644f1461020f578063976c2d731461022257806398e701f8146102355780639c37ffe114610260578063b601b4ee14610281578063d629395e14610294578063e4736727146102a7578063f33d1410146102ba578063faa7c78a146102cd575b5f5ffd5b6100e56100e0366004611dda565b6102e0565b6040519081526020015b60405180910390f35b61010b610106366004611e75565b61032f565b6040516100ef93929190611ed8565b61019c610128366004611f23565b80515f8054602084015160408501516060909501516001600160601b039485166001600160c01b031990931692909217600160601b9490911693909302929092176001600160c01b0316600160c01b63ffffffff948516026001600160e01b031617600160e01b9390921692909202179055565b005b6100e56101ac366004611f9f565b6103ac565b6101c46101bf366004611fe8565b6103c0565b60405190151581526020016100ef565b6100e56101e236600461204b565b6103ff565b6101fa6101f5366004611f9f565b61040f565b604080519283526020830191909152016100ef565b6100e561021d36600461204b565b610429565b6101c4610230366004612062565b610433565b6102486102433660046120ce565b610473565b6040516001600160601b0390911681526020016100ef565b61027361026e36600461212f565b61048d565b6040516100ef9291906121af565b6100e561028f366004611fe8565b61053e565b6100e56102a236600461204b565b61057a565b6100e56102b53660046121d2565b610584565b6100e56102c836600461224e565b6105c6565b6100e56102db3660046121d2565b610606565b5f61032487875f815181106102f7576102f76122c0565b602002602001015188600181518110610312576103126122c0565b60200260200101518888885f89610648565b979650505050505050565b604080516002808252606082810190935282915f9181602001602082028036833701905050915061036186868661067a565b855f81518110610373576103736122c0565b602002602001018660018151811061038d5761038d6122c0565b6020908102919091010192909252919052909792965094509092505050565b5f6103b88484846107c4565b949350505050565b5f6103b883835f815181106103d7576103d76122c0565b6020026020010151846001815181106103f2576103f26122c0565b60200260200101516107eb565b5f610409826108ca565b92915050565b5f5f61041c8585856108ea565b915091505b935093915050565b5f61040982610932565b5f6103b884845f8151811061044a5761044a6122c0565b602002602001015185600181518110610465576104656122c0565b602002602001015185610953565b5f610481868686868661096e565b90505b95945050505050565b60408051600280825260608083018452925f9291906020830190803683370190505091506104f387875f815181106104c7576104c76122c0565b6020026020010151886001815181106104e2576104e26122c0565b60200260200101518888885f610a4b565b845f81518110610505576105056122c0565b602002602001018560018151811061051f5761051f6122c0565b6020026020010182955083815250838152505050509550959350505050565b5f5f61057184845f81518110610556576105566122c0565b6020026020010151856001815181106103f2576103f26122c0565b50949350505050565b5f61040982610b87565b5f61048186865f8151811061059b5761059b6122c0565b6020026020010151876001815181106105b6576105b66122c0565b6020026020010151878787610ba2565b5f6103b884845f815181106105dd576105dd6122c0565b6020026020010151856001815181106105f8576105f86122c0565b602002602001015185610c51565b5f61048186865f8151811061061d5761061d6122c0565b602002602001015187600181518110610638576106386122c0565b6020026020010151878787610cd3565b5f5f5f61065a8b8b8b8b8b8b8b610a4b565b509150915061066b8b838387610c51565b9b9a5050505050505050505050565b60605f80806106898688610d9c565b90505f61069582610b87565b90506106bd6106ac670de0b6b3a7640000836122e8565b69d3c21bcecceda100000090610d9c565b93506106dd6106d669d3c21bcecceda1000000866122fb565b8990610dbc565b60408051600280825260608201835292955091906020830190803683370190505094508261073061072b61071b8769d3c21bcecceda10000006122fb565b6107258a88610ddc565b90610ddc565b610b87565b61073a91906122e8565b8560018151811061074d5761074d6122c0565b602090810291909101015261079c866107668682610dbc565b858860018151811061077a5761077a6122c0565b602002602001015161078c91906122fb565b61079691906122e8565b90610d9c565b855f815181106107ae576107ae6122c0565b6020026020010181815250505093509350935093565b5f5f5f6107d28686866108ea565b90925090506107e18183610e08565b9695505050505050565b5f5f845f815181106107ff576107ff6122c0565b60200260200101515f0361081757505f905080610421565b8460018151811061082a5761082a6122c0565b60200260200101515f0361084357505f90506001610421565b5f83865f81518110610857576108576122c0565b6020026020010151610869919061230e565b90505f8660018151811061087f5761087f6122c0565b602002602001015186610892919061230e565b90508082116108af576108a58282610d9c565b93505f92506108c0565b6108b98183610d9c565b9350600192505b5050935093915050565b5f6108d86201e6e983612339565b61040990670de0b6b3a76400006122e8565b5f5f5f6108fa8686866001610c51565b905080610907858061230e565b6109119190612339565b92506109276109208680610dbc565b8290610d9c565b915050935093915050565b5f6201e6e961094983670de0b6b3a76400006122e8565b610409919061230e565b5f5f6109608686866107eb565b509092111595945050505050565b5f8163ffffffff168663ffffffff1610610989575082610484565b8263ffffffff168663ffffffff16116109a3575083610484565b5f6109d56109b18585612358565b63ffffffff166109c1868a612358565b63ffffffff16610d9c90919063ffffffff16565b90505f610a0b6109fb836109f56001600160601b038a8116908c16610d9c565b90610e23565b6001600160601b03891690610dbc565b90505f610a2a886001600160601b0316886001600160601b0316610ede565b9050610a3e610a398284610eed565b610efc565b9998505050505050505050565b5f5f5f5f610a5842610f06565b90508063ffffffff168763ffffffff1603610a7c5789895f93509350935050610b7a565b6040805160808101825286546001600160601b03808216808452600160601b83049091166020840181905263ffffffff600160c01b84048116958501869052600160e01b909304909216606084018190528e98508d975092935f93610ae593879392909161096e565b6001600160601b03169050816040015163ffffffff168363ffffffff16118015610b1e5750816060015163ffffffff168963ffffffff16105b15610b3957610b2f818e8e8e610f10565b9096509450600193505b50505f5f610b488d87876107eb565b91509150876001600160401b0316821015610b7657610b6c8d8787848e888f611057565b9096509450600193505b5050505b9750975097945050505050565b5f610409610b9d670de0b6b3a76400008461230e565b6111e3565b5f868381518110610bb557610bb56122c0565b6020026020010151821115610bdd57604051635a09f12960e11b815260040160405180910390fd5b5f808515610bec578688610bef565b87875b91509150610a3e828a8881518110610c0957610c096122c0565b6020026020010151610c1b91906122fb565b8586848d8a81518110610c3057610c306122c0565b6020026020010151610c4291906122fb565b610c4c91906122e8565b611268565b5f611cdb6001836001811115610c6957610c69612374565b14610c7657610ddc610c7a565b610dbc5b90506107e185875f81518110610c9257610c926122c0565b6020026020010151610ca491906122fb565b8588600181518110610cb857610cb86122c0565b6020026020010151610cca91906122fb565b8363ffffffff16565b5f80808515610ce3578688610ce6565b87875b9150915083828a8881518110610cfe57610cfe6122c0565b6020026020010151610d1091906122fb565b610d1a91906122fb565b84828b8881518110610d2e57610d2e6122c0565b6020026020010151610d4091906122fb565b610d4a919061230e565b610d549190612339565b9250888581518110610d6857610d686122c0565b6020026020010151831115610d9057604051635a09f12960e11b815260040160405180910390fd5b50509695505050505050565b5f80610db0670de0b6b3a76400008561230e565b90506103b88382612339565b5f80610dc8838561230e565b90506103b8670de0b6b3a764000082612339565b5f80610de8838561230e565b90506001670de0b6b3a76400006001830304018115150291505092915050565b5f610e1c83670de0b6b3a764000084611268565b9392505050565b5f670de0b6b3a76400008203610e3a575081610409565b610e4d670de0b6b3a7640000600261230e565b8203610e6457610e5d8384610dbc565b9050610409565b610e77670de0b6b3a7640000600461230e565b8203610e9c575f610e888485610dbc565b9050610e948182610dbc565b915050610409565b5f610ea784846112ad565b90505f610eb682612710610ddc565b610ec19060016122fb565b905080821015610ed5575f92505050610409565b90039050610409565b5f818311828418028318610e1c565b5f818310828418028318610e1c565b5f610409826113e3565b5f610409826113fb565b5f5f5f5f610f1f8787876107eb565b915091505f5f5f83610f4d5789600181518110610f3e57610f3e6122c0565b6020026020010151888a610f6a565b895f81518110610f5f57610f5f6122c0565b602002602001015189895b919450925090505f610f7c8c80610dbc565b90505f610f91670de0b6b3a7640000836122e8565b610f9c90600261230e565b610fe9671bc16d674ec80000610fb385600461230e565b610fbd908b6122fb565b610fc791906122e8565b610fd1908a61230e565b610b9d906a0c097ce7bc90715b34b9f160241b6122fb565b610ffb89670de0b6b3a76400006122fb565b61100591906122fb565b61100f908761230e565b6110199190612339565b90505f84611027858461230e565b6110319190612339565b90508661103f578082611042565b81815b909f909e509c50505050505050505050505050565b5f5f5f61106861072b8b8b8b6107c4565b90505f5f886110ab578b600181518110611084576110846122c0565b60200260200101518c5f8151811061109e5761109e6122c0565b60200260200101516110e1565b8b5f815181106110bd576110bd6122c0565b60200260200101518c6001815181106110d8576110d86122c0565b60200260200101515b915091505f5f8a6110f3578b8d6110f6565b8c8c5b90925090505f6111186111098a8c612358565b63ffffffff1662278d00610ede565b9050611140611139611132670de0b6b3a76400008461230e565b8d90610e23565b8390610dbc565b91506111718261116c670de0b6b3a764000061115b8a610b87565b61116591906122e8565b8790610d9c565b610eed565b9150836111908361118a670de0b6b3a76400008a6122e8565b90610dbc565b61119a91906122e8565b6111a485846122fb565b6111ae908761230e565b6111b89190612339565b92508b6111c65781836111c9565b82825b809850819950505050505050505097509795505050505050565b5f610409826001600160881b03811160071b81811c6001600160481b031060061b1781811c64ffffffffff1060051b1781811c62ffffff1060041b1781811c620100000160b5600192831c1b0260121c80830401811c80830401811c80830401811c80830401811c80830401811c80830401811c80830401901c908190048111900390565b5f815f0361128957604051630a0c22c760e01b815260040160405180910390fd5b5f611294848661230e565b9050600183600183030401811515029150509392505050565b5f815f036112c45750670de0b6b3a7640000610409565b825f036112d257505f610409565b60ff83901c156112f4576040516211380f60e51b815260040160405180910390fd5b8261130c68056bc75e2d63100000600160fe1b612339565b831061132b5760405163d831731160e01b815260040160405180910390fd5b825f670c7d713b49da00008313801561134b5750670f43fc2c04ee000083125b15611381575f61135a8461140f565b9050670de0b6b3a764000080820784020583670de0b6b3a76400008305020191505061138f565b8161138b8461152c565b0290505b670de0b6b3a76400009005680238fd42c5cf03ffff1981128015906113bd575068070c1cc73b00c800008113155b6113da5760405163a2f9f7e360e01b815260040160405180910390fd5b6107e1816118d3565b5f600160601b82106113f7576113f7611cce565b5090565b5f600160201b82106113f7576113f7611cce565b670de0b6b3a7640000025f806a0c097ce7bc90715b34b9f160241b808401906ec097ce7bc90715b34b9f0fffffffff198501028161144f5761144f612325565b0590505f6a0c097ce7bc90715b34b9f160241b82800205905081806a0c097ce7bc90715b34b9f160241b81840205915060038205016a0c097ce7bc90715b34b9f160241b82840205915060058205016a0c097ce7bc90715b34b9f160241b82840205915060078205016a0c097ce7bc90715b34b9f160241b82840205915060098205016a0c097ce7bc90715b34b9f160241b828402059150600b8205016a0c097ce7bc90715b34b9f160241b828402059150600d8205016a0c097ce7bc90715b34b9f160241b828402059150600f82050160020295945050505050565b5f80670de0b6b3a764000083121561156357826a0c097ce7bc90715b34b9f160241b8161155b5761155b612325565b059250600190505b5f775803bcc5cb9634ba4cfb2213f784019318ed4dcb6017880f60361b84126115ad5772195e54c5dd42177f53a27172fa9ec63026282760241b840593506806f05b59d3b2000000015b6f8bcc0026baae9e45e470190267a230cf60191b84126115e4576b1425982cf597cd205cef7380840593506803782dace9d9000000015b606493840293026e01855144814a7ff805980ff0084000841261162c576e01855144814a7ff805980ff008400068056bc75e2d63100000850205935068ad78ebc5ac62000000015b6b02df0ab5a80a22c61ab5a7008412611667576b02df0ab5a80a22c61ab5a70068056bc75e2d6310000085020593506856bc75e2d631000000015b693f1fce3da636ea5cf850841261169e57693f1fce3da636ea5cf85068056bc75e2d631000008502059350682b5e3af16b18800000015b690127fa27722cc06cc5e284126116d557690127fa27722cc06cc5e268056bc75e2d6310000085020593506815af1d78b58c400000015b68280e60114edb805d03841261170a5768280e60114edb805d0368056bc75e2d631000008502059350680ad78ebc5ac6200000015b680ebc5fb41746121110841261173557680ebc5fb4174612111068056bc75e2d631000009485020593015b6808f00f760a4b2db55d841261176a576808f00f760a4b2db55d68056bc75e2d6310000085020593506802b5e3af16b1880000015b6806f5f1775788937937841261179f576806f5f177578893793768056bc75e2d63100000850205935068015af1d78b58c40000015b6806248f33704b28660384126117d3576806248f33704b28660368056bc75e2d63100000850205935067ad78ebc5ac620000015b6805c548670b9510e7ac8412611807576805c548670b9510e7ac68056bc75e2d6310000085020593506756bc75e2d6310000015b5f68056bc75e2d63100000850168056bc75e2d63100000808703028161182f5761182f612325565b0590505f68056bc75e2d63100000828002059050818068056bc75e2d63100000818402059150600382050168056bc75e2d63100000828402059150600582050168056bc75e2d63100000828402059150600782050168056bc75e2d63100000828402059150600982050168056bc75e2d63100000828402059150600b8205016002025f6064868301059050866118c55780610a3e565b5f0398975050505050505050565b5f680238fd42c5cf03ffff1982121580156118f7575068070c1cc73b00c800008213155b6119145760405163d4794efd60e01b815260040160405180910390fd5b5f8083121561192757825f039250600190505b5f6806f05b59d3b2000000841261196457506806f05b59d3b1ffffff199092019172195e54c5dd42177f53a27172fa9ec63026282760241b61199a565b6803782dace9d9000000841261199657506803782dace9d8ffffff19909201916b1425982cf597cd205cef738061199a565b5060015b6064939093029268056bc75e2d6310000068ad78ebc5ac6200000085126119ea5768ad78ebc5ac61ffffff199094019368056bc75e2d631000006e01855144814a7ff805980ff008400082020590505b6856bc75e2d6310000008512611a26576856bc75e2d630ffffff199094019368056bc75e2d631000006b02df0ab5a80a22c61ab5a70082020590505b682b5e3af16b188000008512611a6057682b5e3af16b187fffff199094019368056bc75e2d63100000693f1fce3da636ea5cf85082020590505b6815af1d78b58c4000008512611a9a576815af1d78b58c3fffff199094019368056bc75e2d63100000690127fa27722cc06cc5e282020590505b680ad78ebc5ac62000008512611ad357680ad78ebc5ac61fffff199094019368056bc75e2d6310000068280e60114edb805d0382020590505b68056bc75e2d631000008512611b0c5768056bc75e2d630fffff199094019368056bc75e2d63100000680ebc5fb4174612111082020590505b6802b5e3af16b18800008512611b45576802b5e3af16b187ffff199094019368056bc75e2d631000006808f00f760a4b2db55d82020590505b68015af1d78b58c400008512611b7e5768015af1d78b58c3ffff199094019368056bc75e2d631000006806f5f177578893793782020590505b68056bc75e2d631000008581019086906002908280020505918201919050600368056bc75e2d631000008883020505918201919050600468056bc75e2d631000008883020505918201919050600568056bc75e2d631000008883020505918201919050600668056bc75e2d631000008883020505918201919050600768056bc75e2d631000008883020505918201919050600868056bc75e2d631000008883020505918201919050600968056bc75e2d631000008883020505918201919050600a68056bc75e2d631000008883020505918201919050600b68056bc75e2d631000008883020505918201919050600c68056bc75e2d6310000088830205059182019190505f606468056bc75e2d6310000085850205860205905085611ca35780611cc2565b806a0c097ce7bc90715b34b9f160241b81611cc057611cc0612325565b055b98975050505050505050565b6335278d125f526004601cfd5b611ce3612388565b565b634e487b7160e01b5f52604160045260245ffd5b604051601f8201601f191681016001600160401b0381118282101715611d2157611d21611ce5565b604052919050565b5f82601f830112611d38575f5ffd5b81356001600160401b03811115611d5157611d51611ce5565b8060051b611d6160208201611cf9565b91825260208185018101929081019086841115611d7c575f5ffd5b6020860192505b838310156107e1578235825260209283019290910190611d83565b803563ffffffff81168114611db1575f5ffd5b919050565b80356001600160401b0381168114611db1575f5ffd5b803560028110611db1575f5ffd5b5f5f5f5f5f5f60c08789031215611def575f5ffd5b86356001600160401b03811115611e04575f5ffd5b611e1089828a01611d29565b96505060208701356001600160401b03811115611e2b575f5ffd5b611e3789828a01611d29565b95505060408701359350611e4d60608801611d9e565b9250611e5b60808801611db6565b9150611e6960a08801611dcc565b90509295509295509295565b5f5f5f60608486031215611e87575f5ffd5b505081359360208301359350604090920135919050565b5f8151808452602084019350602083015f5b82811015611ece578151865260209586019590910190600101611eb0565b5093949350505050565b606081525f611eea6060830186611e9e565b8281036020840152611efc8186611e9e565b915050826040830152949350505050565b80356001600160601b0381168114611db1575f5ffd5b5f6080828403128015611f34575f5ffd5b50604051608081016001600160401b0381118282101715611f5757611f57611ce5565b604052611f6383611f0d565b8152611f7160208401611f0d565b6020820152611f8260408401611d9e565b6040820152611f9360608401611d9e565b60608201529392505050565b5f5f5f60608486031215611fb1575f5ffd5b83356001600160401b03811115611fc6575f5ffd5b611fd286828701611d29565b9660208601359650604090950135949350505050565b5f5f60408385031215611ff9575f5ffd5b82356001600160401b0381111561200e575f5ffd5b61201a85828601611d29565b92505060208301356001600160401b03811115612035575f5ffd5b61204185828601611d29565b9150509250929050565b5f6020828403121561205b575f5ffd5b5035919050565b5f5f5f60608486031215612074575f5ffd5b83356001600160401b03811115612089575f5ffd5b61209586828701611d29565b93505060208401356001600160401b038111156120b0575f5ffd5b6120bc86828701611d29565b93969395505050506040919091013590565b5f5f5f5f5f60a086880312156120e2575f5ffd5b6120eb86611d9e565b94506120f960208701611f0d565b935061210760408701611f0d565b925061211560608701611d9e565b915061212360808701611d9e565b90509295509295909350565b5f5f5f5f5f60a08688031215612143575f5ffd5b85356001600160401b03811115612158575f5ffd5b61216488828901611d29565b95505060208601356001600160401b0381111561217f575f5ffd5b61218b88828901611d29565b945050604086013592506121a160608701611d9e565b915061212360808701611db6565b604081525f6121c16040830185611e9e565b905082151560208301529392505050565b5f5f5f5f5f60a086880312156121e6575f5ffd5b85356001600160401b038111156121fb575f5ffd5b61220788828901611d29565b95505060208601356001600160401b03811115612222575f5ffd5b61222e88828901611d29565b959895975050505060408401359360608101359360809091013592509050565b5f5f5f60608486031215612260575f5ffd5b83356001600160401b03811115612275575f5ffd5b61228186828701611d29565b93505060208401356001600160401b0381111561229c575f5ffd5b6122a886828701611d29565b9250506122b760408501611dcc565b90509250925092565b634e487b7160e01b5f52603260045260245ffd5b634e487b7160e01b5f52601160045260245ffd5b81810381811115610409576104096122d4565b80820180821115610409576104096122d4565b8082028115828204841417610409576104096122d4565b634e487b7160e01b5f52601260045260245ffd5b5f8261235357634e487b7160e01b5f52601260045260245ffd5b500490565b63ffffffff8281168282160390811115610409576104096122d4565b634e487b7160e01b5f52602160045260245ffd5b634e487b7160e01b5f52605160045260245ffdfea2646970667358221220a514c32e17f4d7e385c6a9bcfe416be2fd89333281643017ef0f41c89cc93d6264736f6c634300081e0033","linkReferences":{}},"methodIdentifiers":{"computeCenteredness(uint256[],uint256[])":"b601b4ee","computeCurrentVirtualBalances(uint256[],uint256[],uint256,uint32,uint64)":"9c37ffe1","computeFourthRootPriceRatio(uint32,uint96,uint96,uint32,uint32)":"98e701f8","computeInGivenOut(uint256[],uint256[],uint256,uint256,uint256)":"e4736727","computeInvariant(uint256[],uint256[],uint256,uint32,uint64,uint8)":"2824cf03","computeInvariant(uint256[],uint256[],uint8)":"f33d1410","computeOutGivenIn(uint256[],uint256[],uint256,uint256,uint256)":"faa7c78a","computePriceRange(uint256[],uint256,uint256)":"7ca83b56","computePriceRatio(uint256[],uint256,uint256)":"60b502bf","computeTheoreticalPriceRatioAndBalances(uint256,uint256,uint256)":"4137c751","isAboveCenter(uint256[],uint256[])":"727f79bf","isPoolWithinTargetRange(uint256[],uint256[],uint256)":"976c2d73","sqrtScaled18(uint256)":"d629395e","startPriceRatioUpdate((uint96,uint96,uint32,uint32))":"51ee0fb8","toDailyPriceShiftBase(uint256)":"72be4a84","toDailyPriceShiftExponent(uint256)":"8ca0644f"},"id":918}