{"abi":[{"type":"function","name":"callAfterAddLiquidityHook","inputs":[{"name":"config","type":"bytes32","internalType":"PoolConfigBits"},{"name":"router","type":"address","internalType":"address"},{"name":"amountsInScaled18","type":"uint256[]","internalType":"uint256[]"},{"name":"amountsInRaw","type":"uint256[]","internalType":"uint256[]"},{"name":"bptAmountOut","type":"uint256","internalType":"uint256"},{"name":"params","type":"tuple","internalType":"struct AddLiquidityParams","components":[{"name":"pool","type":"address","internalType":"address"},{"name":"to","type":"address","internalType":"address"},{"name":"maxAmountsIn","type":"uint256[]","internalType":"uint256[]"},{"name":"minBptAmountOut","type":"uint256","internalType":"uint256"},{"name":"kind","type":"uint8","internalType":"enum AddLiquidityKind"},{"name":"userData","type":"bytes","internalType":"bytes"}]},{"name":"poolData","type":"tuple","internalType":"struct PoolData","components":[{"name":"poolConfigBits","type":"bytes32","internalType":"PoolConfigBits"},{"name":"tokens","type":"address[]","internalType":"contract IERC20[]"},{"name":"tokenInfo","type":"tuple[]","internalType":"struct TokenInfo[]","components":[{"name":"tokenType","type":"uint8","internalType":"enum TokenType"},{"name":"rateProvider","type":"address","internalType":"contract IRateProvider"},{"name":"paysYieldFees","type":"bool","internalType":"bool"}]},{"name":"balancesRaw","type":"uint256[]","internalType":"uint256[]"},{"name":"balancesLiveScaled18","type":"uint256[]","internalType":"uint256[]"},{"name":"tokenRates","type":"uint256[]","internalType":"uint256[]"},{"name":"decimalScalingFactors","type":"uint256[]","internalType":"uint256[]"}]},{"name":"hooksContract","type":"address","internalType":"contract IHooks"}],"outputs":[{"name":"","type":"uint256[]","internalType":"uint256[]"}],"stateMutability":"nonpayable"},{"type":"function","name":"callAfterInitializeHook","inputs":[{"name":"amountsInScaled18","type":"uint256[]","internalType":"uint256[]"},{"name":"bptAmountOut","type":"uint256","internalType":"uint256"},{"name":"userData","type":"bytes","internalType":"bytes"},{"name":"hooksContract","type":"address","internalType":"contract IHooks"}],"outputs":[],"stateMutability":"nonpayable"},{"type":"function","name":"callAfterRemoveLiquidityHook","inputs":[{"name":"config","type":"bytes32","internalType":"PoolConfigBits"},{"name":"router","type":"address","internalType":"address"},{"name":"amountsOutScaled18","type":"uint256[]","internalType":"uint256[]"},{"name":"amountsOutRaw","type":"uint256[]","internalType":"uint256[]"},{"name":"bptAmountIn","type":"uint256","internalType":"uint256"},{"name":"params","type":"tuple","internalType":"struct RemoveLiquidityParams","components":[{"name":"pool","type":"address","internalType":"address"},{"name":"from","type":"address","internalType":"address"},{"name":"maxBptAmountIn","type":"uint256","internalType":"uint256"},{"name":"minAmountsOut","type":"uint256[]","internalType":"uint256[]"},{"name":"kind","type":"uint8","internalType":"enum RemoveLiquidityKind"},{"name":"userData","type":"bytes","internalType":"bytes"}]},{"name":"poolData","type":"tuple","internalType":"struct PoolData","components":[{"name":"poolConfigBits","type":"bytes32","internalType":"PoolConfigBits"},{"name":"tokens","type":"address[]","internalType":"contract IERC20[]"},{"name":"tokenInfo","type":"tuple[]","internalType":"struct TokenInfo[]","components":[{"name":"tokenType","type":"uint8","internalType":"enum TokenType"},{"name":"rateProvider","type":"address","internalType":"contract IRateProvider"},{"name":"paysYieldFees","type":"bool","internalType":"bool"}]},{"name":"balancesRaw","type":"uint256[]","internalType":"uint256[]"},{"name":"balancesLiveScaled18","type":"uint256[]","internalType":"uint256[]"},{"name":"tokenRates","type":"uint256[]","internalType":"uint256[]"},{"name":"decimalScalingFactors","type":"uint256[]","internalType":"uint256[]"}]},{"name":"hooksContract","type":"address","internalType":"contract IHooks"}],"outputs":[{"name":"","type":"uint256[]","internalType":"uint256[]"}],"stateMutability":"nonpayable"},{"type":"function","name":"callAfterSwapHook","inputs":[{"name":"config","type":"bytes32","internalType":"PoolConfigBits"},{"name":"amountCalculatedScaled18","type":"uint256","internalType":"uint256"},{"name":"amountCalculatedRaw","type":"uint256","internalType":"uint256"},{"name":"router","type":"address","internalType":"address"},{"name":"vaultSwapParams","type":"tuple","internalType":"struct VaultSwapParams","components":[{"name":"kind","type":"uint8","internalType":"enum SwapKind"},{"name":"pool","type":"address","internalType":"address"},{"name":"tokenIn","type":"address","internalType":"contract IERC20"},{"name":"tokenOut","type":"address","internalType":"contract IERC20"},{"name":"amountGivenRaw","type":"uint256","internalType":"uint256"},{"name":"limitRaw","type":"uint256","internalType":"uint256"},{"name":"userData","type":"bytes","internalType":"bytes"}]},{"name":"state","type":"tuple","internalType":"struct SwapState","components":[{"name":"indexIn","type":"uint256","internalType":"uint256"},{"name":"indexOut","type":"uint256","internalType":"uint256"},{"name":"amountGivenScaled18","type":"uint256","internalType":"uint256"},{"name":"swapFeePercentage","type":"uint256","internalType":"uint256"}]},{"name":"poolData","type":"tuple","internalType":"struct PoolData","components":[{"name":"poolConfigBits","type":"bytes32","internalType":"PoolConfigBits"},{"name":"tokens","type":"address[]","internalType":"contract IERC20[]"},{"name":"tokenInfo","type":"tuple[]","internalType":"struct TokenInfo[]","components":[{"name":"tokenType","type":"uint8","internalType":"enum TokenType"},{"name":"rateProvider","type":"address","internalType":"contract IRateProvider"},{"name":"paysYieldFees","type":"bool","internalType":"bool"}]},{"name":"balancesRaw","type":"uint256[]","internalType":"uint256[]"},{"name":"balancesLiveScaled18","type":"uint256[]","internalType":"uint256[]"},{"name":"tokenRates","type":"uint256[]","internalType":"uint256[]"},{"name":"decimalScalingFactors","type":"uint256[]","internalType":"uint256[]"}]},{"name":"hooksContract","type":"address","internalType":"contract IHooks"}],"outputs":[{"name":"","type":"uint256","internalType":"uint256"}],"stateMutability":"nonpayable"},{"type":"function","name":"callBeforeAddLiquidityHook","inputs":[{"name":"router","type":"address","internalType":"address"},{"name":"maxAmountsInScaled18","type":"uint256[]","internalType":"uint256[]"},{"name":"params","type":"tuple","internalType":"struct AddLiquidityParams","components":[{"name":"pool","type":"address","internalType":"address"},{"name":"to","type":"address","internalType":"address"},{"name":"maxAmountsIn","type":"uint256[]","internalType":"uint256[]"},{"name":"minBptAmountOut","type":"uint256","internalType":"uint256"},{"name":"kind","type":"uint8","internalType":"enum AddLiquidityKind"},{"name":"userData","type":"bytes","internalType":"bytes"}]},{"name":"poolData","type":"tuple","internalType":"struct PoolData","components":[{"name":"poolConfigBits","type":"bytes32","internalType":"PoolConfigBits"},{"name":"tokens","type":"address[]","internalType":"contract IERC20[]"},{"name":"tokenInfo","type":"tuple[]","internalType":"struct TokenInfo[]","components":[{"name":"tokenType","type":"uint8","internalType":"enum TokenType"},{"name":"rateProvider","type":"address","internalType":"contract IRateProvider"},{"name":"paysYieldFees","type":"bool","internalType":"bool"}]},{"name":"balancesRaw","type":"uint256[]","internalType":"uint256[]"},{"name":"balancesLiveScaled18","type":"uint256[]","internalType":"uint256[]"},{"name":"tokenRates","type":"uint256[]","internalType":"uint256[]"},{"name":"decimalScalingFactors","type":"uint256[]","internalType":"uint256[]"}]},{"name":"hooksContract","type":"address","internalType":"contract IHooks"}],"outputs":[],"stateMutability":"nonpayable"},{"type":"function","name":"callBeforeInitializeHook","inputs":[{"name":"exactAmountsInScaled18","type":"uint256[]","internalType":"uint256[]"},{"name":"userData","type":"bytes","internalType":"bytes"},{"name":"hooksContract","type":"address","internalType":"contract IHooks"}],"outputs":[],"stateMutability":"nonpayable"},{"type":"function","name":"callBeforeRemoveLiquidityHook","inputs":[{"name":"minAmountsOutScaled18","type":"uint256[]","internalType":"uint256[]"},{"name":"router","type":"address","internalType":"address"},{"name":"params","type":"tuple","internalType":"struct RemoveLiquidityParams","components":[{"name":"pool","type":"address","internalType":"address"},{"name":"from","type":"address","internalType":"address"},{"name":"maxBptAmountIn","type":"uint256","internalType":"uint256"},{"name":"minAmountsOut","type":"uint256[]","internalType":"uint256[]"},{"name":"kind","type":"uint8","internalType":"enum RemoveLiquidityKind"},{"name":"userData","type":"bytes","internalType":"bytes"}]},{"name":"poolData","type":"tuple","internalType":"struct PoolData","components":[{"name":"poolConfigBits","type":"bytes32","internalType":"PoolConfigBits"},{"name":"tokens","type":"address[]","internalType":"contract IERC20[]"},{"name":"tokenInfo","type":"tuple[]","internalType":"struct TokenInfo[]","components":[{"name":"tokenType","type":"uint8","internalType":"enum TokenType"},{"name":"rateProvider","type":"address","internalType":"contract IRateProvider"},{"name":"paysYieldFees","type":"bool","internalType":"bool"}]},{"name":"balancesRaw","type":"uint256[]","internalType":"uint256[]"},{"name":"balancesLiveScaled18","type":"uint256[]","internalType":"uint256[]"},{"name":"tokenRates","type":"uint256[]","internalType":"uint256[]"},{"name":"decimalScalingFactors","type":"uint256[]","internalType":"uint256[]"}]},{"name":"hooksContract","type":"address","internalType":"contract IHooks"}],"outputs":[],"stateMutability":"nonpayable"},{"type":"function","name":"callBeforeSwapHook","inputs":[{"name":"swapParams","type":"tuple","internalType":"struct PoolSwapParams","components":[{"name":"kind","type":"uint8","internalType":"enum SwapKind"},{"name":"amountGivenScaled18","type":"uint256","internalType":"uint256"},{"name":"balancesScaled18","type":"uint256[]","internalType":"uint256[]"},{"name":"indexIn","type":"uint256","internalType":"uint256"},{"name":"indexOut","type":"uint256","internalType":"uint256"},{"name":"router","type":"address","internalType":"address"},{"name":"userData","type":"bytes","internalType":"bytes"}]},{"name":"pool","type":"address","internalType":"address"},{"name":"hooksContract","type":"address","internalType":"contract IHooks"}],"outputs":[],"stateMutability":"nonpayable"},{"type":"function","name":"callComputeDynamicSwapFeeHook","inputs":[{"name":"swapParams","type":"tuple","internalType":"struct PoolSwapParams","components":[{"name":"kind","type":"uint8","internalType":"enum SwapKind"},{"name":"amountGivenScaled18","type":"uint256","internalType":"uint256"},{"name":"balancesScaled18","type":"uint256[]","internalType":"uint256[]"},{"name":"indexIn","type":"uint256","internalType":"uint256"},{"name":"indexOut","type":"uint256","internalType":"uint256"},{"name":"router","type":"address","internalType":"address"},{"name":"userData","type":"bytes","internalType":"bytes"}]},{"name":"pool","type":"address","internalType":"address"},{"name":"staticSwapFeePercentage","type":"uint256","internalType":"uint256"},{"name":"hooksContract","type":"address","internalType":"contract IHooks"}],"outputs":[{"name":"","type":"uint256","internalType":"uint256"}],"stateMutability":"view"},{"type":"error","name":"AfterAddLiquidityHookFailed","inputs":[]},{"type":"error","name":"AfterInitializeHookFailed","inputs":[]},{"type":"error","name":"AfterRemoveLiquidityHookFailed","inputs":[]},{"type":"error","name":"AfterSwapHookFailed","inputs":[]},{"type":"error","name":"BeforeAddLiquidityHookFailed","inputs":[]},{"type":"error","name":"BeforeInitializeHookFailed","inputs":[]},{"type":"error","name":"BeforeRemoveLiquidityHookFailed","inputs":[]},{"type":"error","name":"BeforeSwapHookFailed","inputs":[]},{"type":"error","name":"DynamicSwapFeeHookFailed","inputs":[]},{"type":"error","name":"HookAdjustedAmountInAboveMax","inputs":[{"name":"tokenIn","type":"address","internalType":"contract IERC20"},{"name":"amountIn","type":"uint256","internalType":"uint256"},{"name":"maxAmountIn","type":"uint256","internalType":"uint256"}]},{"type":"error","name":"HookAdjustedAmountOutBelowMin","inputs":[{"name":"tokenOut","type":"address","internalType":"contract IERC20"},{"name":"amountOut","type":"uint256","internalType":"uint256"},{"name":"minAmountOut","type":"uint256","internalType":"uint256"}]},{"type":"error","name":"HookAdjustedSwapLimit","inputs":[{"name":"amount","type":"uint256","internalType":"uint256"},{"name":"limit","type":"uint256","internalType":"uint256"}]},{"type":"error","name":"PercentageAboveMax","inputs":[]}],"bytecode":{"object":"0x6080604052348015600e575f5ffd5b50611dc08061001c5f395ff3fe608060405234801561000f575f5ffd5b5060043610610081575f3560e01c80630d1c36791461008557806343a958d21461009a5780635f7b1c8b146100c057806361beb53e146100d35780637b4ce289146100e6578063af6be573146100f9578063c09b084a14610119578063c454bdbc1461012c578063fba45a021461013f575b5f5ffd5b6100986100933660046110b7565b610152565b005b6100ad6100a836600461120b565b610166565b6040519081526020015b60405180910390f35b6100ad6100ce3660046112d2565b61017c565b6100986100e1366004611410565b61019c565b6100986100f4366004611507565b6101ae565b61010c610107366004611573565b6101bb565b6040516100b79190611686565b61010c61012736600461169f565b6101cd565b61009861013a366004611742565b6101df565b61009861014d3660046117b8565b6101ef565b61015f85858585856101fa565b5050505050565b5f610173858585856102a5565b95945050505050565b5f61018d8989898989898989610370565b90505b98975050505050505050565b6101a8848484846105c3565b50505050565b61015f8585858585610654565b606061018d89898989898989896106ff565b606061018d89898989898989896108ad565b6101ea838383610a4c565b505050565b6101ea838383610adb565b825160808085015160608601519185015160a08701516040516345421ec760e01b81526001600160a01b038716956345421ec795610244958d95929490938d93919060040161186f565b6020604051808303815f875af1158015610260573d5f5f3e3d5ffd5b505050506040513d601f19601f8201168201806040525081019061028491906118df565b15155f0361015f576040516305975b2960e11b815260040160405180910390fd5b5f5f5f836001600160a01b031663a0e8f5ac8888886040518463ffffffff1660e01b81526004016102d8939291906119ac565b6040805180830381865afa1580156102f2573d5f5f3e3d5ffd5b505050506040513d601f19601f8201168201806040525081019061031691906119d9565b90925090508115155f0361033d576040516314fe5db560e21b815260040160405180910390fd5b670de0b5cad2bef000811115610366576040516301d1b96560e61b815260040160405180910390fd5b9695505050505050565b5f8080808751600181111561038757610387611819565b146103975789866040015161039e565b85604001518a5b915091505f5f856001600160a01b03166318b6eb556040518061018001604052808c5f015160018111156103d4576103d4611819565b81526020018c604001516001600160a01b031681526020018c606001516001600160a01b031681526020018781526020018681526020018a608001518c5f01518151811061042457610424611a05565b602002602001015181526020018a608001518c602001518151811061044b5761044b611a05565b602002602001015181526020018f81526020018e81526020018d6001600160a01b031681526020018c602001516001600160a01b031681526020018c60c001518152506040518263ffffffff1660e01b81526004016104aa9190611a19565b60408051808303815f875af11580156104c5573d5f5f3e3d5ffd5b505050506040513d601f19601f820116820180604052508101906104e991906119d9565b90925090508115155f0361051057604051630568a77b60e21b815260040160405180910390fd5b6105198d610b6a565b15155f0361052d578a945050505050610190565b5f8951600181111561054157610541611819565b14801561055157508860a0015181105b8061057c575060018951600181111561056c5761056c611819565b14801561057c57508860a0015181115b156105b35760a089015160405163cc0e4a9960e01b81526105aa918391600401918252602082015260400190565b60405180910390fd5b9c9b505050505050505050505050565b6040516338be241d60e01b81526001600160a01b038216906338be241d906105f390879087908790600401611ade565b6020604051808303815f875af115801561060f573d5f5f3e3d5ffd5b505050506040513d601f19601f8201168201806040525081019061063391906118df565b15155f036101a857604051630791ede360e11b815260040160405180910390fd5b82516080808501516040808701519286015160a088015191516302e97e7d60e61b81526001600160a01b0387169563ba5f9f409561069e958c959294909391928e92600401611b18565b6020604051808303815f875af11580156106ba573d5f5f3e3d5ffd5b505050506040513d601f19601f820116820180604052508101906106de91906118df565b15155f0361015f57604051631557c43360e11b815260040160405180910390fd5b60605f5f836001600160a01b0316632754888d8b885f015189608001518b8e8e8c608001518e60a001516040518963ffffffff1660e01b815260040161074c989796959493929190611b66565b5f604051808303815f875af1158015610767573d5f5f3e3d5ffd5b505050506040513d5f823e601f3d908101601f1916820160405261078e9190810190611bed565b90925090508115806107a257508751815114155b156107c0576040516303a6723b60e31b815260040160405180910390fd5b6107c98b610b6a565b15155f036107db578792505050610190565b5f5b815181101561089e57866060015181815181106107fc576107fc611a05565b602002602001015182828151811061081657610816611a05565b60200260200101511015610896578560200151818151811061083a5761083a611a05565b602002602001015182828151811061085457610854611a05565b60200260200101518860600151838151811061087257610872611a05565b6020026020010151604051633ef629c960e21b81526004016105aa93929190611c93565b6001016107dd565b509a9950505050505050505050565b60605f5f836001600160a01b031663976907cc8b885f015189608001518d8d8d8c608001518e60a001516040518963ffffffff1660e01b81526004016108fa989796959493929190611cb4565b5f604051808303815f875af1158015610915573d5f5f3e3d5ffd5b505050506040513d5f823e601f3d908101601f1916820160405261093c9190810190611bed565b909250905081158061095057508751815114155b1561096e5760405163e124916560e01b815260040160405180910390fd5b6109778b610b6a565b15155f03610989578792505050610190565b5f5b815181101561089e57866040015181815181106109aa576109aa611a05565b60200260200101518282815181106109c4576109c4611a05565b60200260200101511115610a4457856020015181815181106109e8576109e8611a05565b6020026020010151828281518110610a0257610a02611a05565b602002602001015188604001518381518110610a2057610a20611a05565b602002602001015160405163677d1d7d60e11b81526004016105aa93929190611c93565b60010161098b565b60405163038293c560e31b81526001600160a01b03821690631c149e2890610a7a9086908690600401611d18565b6020604051808303815f875af1158015610a96573d5f5f3e3d5ffd5b505050506040513d601f19601f82011682018060405250810190610aba91906118df565b15155f036101ea57604051636061292560e01b815260040160405180910390fd5b604051635211fa7760e01b81526001600160a01b03821690635211fa7790610b099086908690600401611d3c565b6020604051808303815f875af1158015610b25573d5f5f3e3d5ffd5b505050506040513d601f19601f82011682018060405250810190610b4991906118df565b15155f036101ea5760405163e91e17e760e01b815260040160405180910390fd5b5f610bdd610b79826001611d65565b610b84906001611d65565b610b8f906001611d65565b610b9a906001611d65565b610ba5906001611d65565b610bb0906001611d65565b610bbb906001611d65565b610bc6906001611d65565b610bd1906001611d65565b839060ff161c60011690565b92915050565b6001600160a01b0381168114610bf7575f5ffd5b50565b8035610c0581610be3565b919050565b634e487b7160e01b5f52604160045260245ffd5b60405160c081016001600160401b0381118282101715610c4057610c40610c0a565b60405290565b604051606081016001600160401b0381118282101715610c4057610c40610c0a565b60405160e081016001600160401b0381118282101715610c4057610c40610c0a565b604051601f8201601f191681016001600160401b0381118282101715610cb257610cb2610c0a565b604052919050565b5f6001600160401b03821115610cd257610cd2610c0a565b5060051b60200190565b5f82601f830112610ceb575f5ffd5b8135610cfe610cf982610cba565b610c8a565b8082825260208201915060208360051b860101925085831115610d1f575f5ffd5b602085015b83811015610d3c578035835260209283019201610d24565b5095945050505050565b803560058110610c05575f5ffd5b5f82601f830112610d63575f5ffd5b81356001600160401b03811115610d7c57610d7c610c0a565b610d8f601f8201601f1916602001610c8a565b818152846020838601011115610da3575f5ffd5b816020850160208301375f918101602001919091529392505050565b5f60c08284031215610dcf575f5ffd5b610dd7610c1e565b9050610de282610bfa565b8152610df060208301610bfa565b602082015260408201356001600160401b03811115610e0d575f5ffd5b610e1984828501610cdc565b60408301525060608281013590820152610e3560808301610d46565b608082015260a08201356001600160401b03811115610e52575f5ffd5b610e5e84828501610d54565b60a08301525092915050565b5f82601f830112610e79575f5ffd5b8135610e87610cf982610cba565b8082825260208201915060208360051b860101925085831115610ea8575f5ffd5b602085015b83811015610d3c578035610ec081610be3565b835260209283019201610ead565b60028110610bf7575f5ffd5b8035610c0581610ece565b8015158114610bf7575f5ffd5b5f82601f830112610f01575f5ffd5b8135610f0f610cf982610cba565b80828252602082019150602060608402860101925085831115610f30575f5ffd5b602085015b83811015610d3c5760608188031215610f4c575f5ffd5b610f54610c46565b8135610f5f81610ece565b81526020820135610f6f81610be3565b60208201526040820135610f8281610ee5565b60408201528352602090920191606001610f35565b5f60e08284031215610fa7575f5ffd5b610faf610c68565b82358152905060208201356001600160401b03811115610fcd575f5ffd5b610fd984828501610e6a565b60208301525060408201356001600160401b03811115610ff7575f5ffd5b61100384828501610ef2565b60408301525060608201356001600160401b03811115611021575f5ffd5b61102d84828501610cdc565b60608301525060808201356001600160401b0381111561104b575f5ffd5b61105784828501610cdc565b60808301525060a08201356001600160401b03811115611075575f5ffd5b61108184828501610cdc565b60a08301525060c08201356001600160401b0381111561109f575f5ffd5b6110ab84828501610cdc565b60c08301525092915050565b5f5f5f5f5f60a086880312156110cb575f5ffd5b85356110d681610be3565b945060208601356001600160401b038111156110f0575f5ffd5b6110fc88828901610cdc565b94505060408601356001600160401b03811115611117575f5ffd5b61112388828901610dbf565b93505060608601356001600160401b0381111561113e575f5ffd5b61114a88828901610f97565b925050608086013561115b81610be3565b809150509295509295909350565b5f60e08284031215611179575f5ffd5b611181610c68565b905061118c82610eda565b81526020828101359082015260408201356001600160401b038111156111b0575f5ffd5b6111bc84828501610cdc565b60408301525060608281013590820152608080830135908201526111e260a08301610bfa565b60a082015260c08201356001600160401b038111156111ff575f5ffd5b6110ab84828501610d54565b5f5f5f5f6080858703121561121e575f5ffd5b84356001600160401b03811115611233575f5ffd5b61123f87828801611169565b945050602085013561125081610be3565b925060408501359150606085013561126781610be3565b939692955090935050565b5f60808284031215611282575f5ffd5b604051608081016001600160401b03811182821017156112a4576112a4610c0a565b6040908152833582526020808501359083015283810135908201526060928301359281019290925250919050565b5f5f5f5f5f5f5f5f610160898b0312156112ea575f5ffd5b883597506020890135965060408901359550606089013561130a81610be3565b945060808901356001600160401b03811115611324575f5ffd5b890160e0818c031215611335575f5ffd5b61133d610c68565b61134682610eda565b815261135460208301610bfa565b602082015261136560408301610bfa565b604082015261137660608301610bfa565b60608201526080828101359082015260a0808301359082015260c08201356001600160401b038111156113a7575f5ffd5b6113b38d828501610d54565b60c08301525094506113ca90508a60a08b01611272565b92506101208901356001600160401b038111156113e5575f5ffd5b6113f18b828c01610f97565b9250506114016101408a01610bfa565b90509295985092959890939650565b5f5f5f5f60808587031215611423575f5ffd5b84356001600160401b03811115611438575f5ffd5b61144487828801610cdc565b9450506020850135925060408501356001600160401b03811115611466575f5ffd5b61147287828801610d54565b925050606085013561126781610be3565b803560048110610c05575f5ffd5b5f60c082840312156114a1575f5ffd5b6114a9610c1e565b90506114b482610bfa565b81526114c260208301610bfa565b60208201526040828101359082015260608201356001600160401b038111156114e9575f5ffd5b6114f584828501610cdc565b606083015250610e3560808301611483565b5f5f5f5f5f60a0868803121561151b575f5ffd5b85356001600160401b03811115611530575f5ffd5b61153c88828901610cdc565b955050602086013561154d81610be3565b935060408601356001600160401b03811115611567575f5ffd5b61112388828901611491565b5f5f5f5f5f5f5f5f610100898b03121561158b575f5ffd5b8835975061159b60208a01610bfa565b965060408901356001600160401b038111156115b5575f5ffd5b6115c18b828c01610cdc565b96505060608901356001600160401b038111156115dc575f5ffd5b6115e88b828c01610cdc565b9550506080890135935060a08901356001600160401b0381111561160a575f5ffd5b6116168b828c01611491565b93505060c08901356001600160401b03811115611631575f5ffd5b61163d8b828c01610f97565b92505061140160e08a01610bfa565b5f8151808452602084019350602083015f5b8281101561167c57815186526020958601959091019060010161165e565b5093949350505050565b602081525f611698602083018461164c565b9392505050565b5f5f5f5f5f5f5f5f610100898b0312156116b7575f5ffd5b883597506116c760208a01610bfa565b965060408901356001600160401b038111156116e1575f5ffd5b6116ed8b828c01610cdc565b96505060608901356001600160401b03811115611708575f5ffd5b6117148b828c01610cdc565b9550506080890135935060a08901356001600160401b03811115611736575f5ffd5b6116168b828c01610dbf565b5f5f5f60608486031215611754575f5ffd5b83356001600160401b03811115611769575f5ffd5b61177586828701610cdc565b93505060208401356001600160401b03811115611790575f5ffd5b61179c86828701610d54565b92505060408401356117ad81610be3565b809150509250925092565b5f5f5f606084860312156117ca575f5ffd5b83356001600160401b038111156117df575f5ffd5b6117eb86828701611169565b93505060208401356117fc81610be3565b915060408401356117ad81610be3565b6001600160a01b03169052565b634e487b7160e01b5f52602160045260245ffd5b6005811061183d5761183d611819565b9052565b5f81518084528060208401602086015e5f602082860101526020601f19601f83011685010191505092915050565b6001600160a01b03888116825287166020820152611890604082018761182d565b60e060608201525f6118a560e083018761164c565b85608084015282810360a08401526118bd818661164c565b905082810360c08401526118d18185611841565b9a9950505050505050505050565b5f602082840312156118ef575f5ffd5b815161169881610ee5565b6002811061183d5761183d611819565b5f60e0830161191a8484516118fa565b60208301516020850152604083015160e06040860152818151808452610100870191506020830193505f92505b8083101561196a5783518252602082019150602084019350600183019250611947565b50606085015160608701526080850151608087015260a0850151925061199360a087018461180c565b60c0850151925085810360c08701526103668184611841565b606081525f6119be606083018661190a565b6001600160a01b039490941660208301525060400152919050565b5f5f604083850312156119ea575f5ffd5b82516119f581610ee5565b6020939093015192949293505050565b634e487b7160e01b5f52603260045260245ffd5b60208152611a2b6020820183516118fa565b5f6020830151611a3e604084018261180c565b506040830151611a51606084018261180c565b5060608301516080830152608083015160a083015260a083015160c083015260c083015160e083015260e0830151610100830152610100830151610120830152610120830151611aa561014084018261180c565b50610140830151611aba61016084018261180c565b5061016083015161018080840152611ad66101a0840182611841565b949350505050565b606081525f611af0606083018661164c565b84602084015282810360408401526103668185611841565b6004811061183d5761183d611819565b6001600160a01b03888116825287166020820152611b396040820187611b08565b84606082015260e060808201525f611b5460e083018661164c565b82810360a08401526118bd818661164c565b6001600160a01b03898116825288166020820152611b876040820188611b08565b85606082015261010060808201525f611ba461010083018761164c565b82810360a0840152611bb6818761164c565b905082810360c0840152611bca818661164c565b905082810360e0840152611bde8185611841565b9b9a5050505050505050505050565b5f5f60408385031215611bfe575f5ffd5b8251611c0981610ee5565b60208401519092506001600160401b03811115611c24575f5ffd5b8301601f81018513611c34575f5ffd5b8051611c42610cf982610cba565b8082825260208201915060208360051b850101925087831115611c63575f5ffd5b6020840193505b82841015611c85578351825260209384019390910190611c6a565b809450505050509250929050565b6001600160a01b039390931683526020830191909152604082015260600190565b6001600160a01b03898116825288166020820152611cd5604082018861182d565b61010060608201525f611cec61010083018861164c565b8281036080840152611cfe818861164c565b90508560a084015282810360c0840152611bca818661164c565b604081525f611d2a604083018561164c565b82810360208401526101738185611841565b604081525f611d4e604083018561190a565b905060018060a01b03831660208301529392505050565b60ff8181168382160190811115610bdd57634e487b7160e01b5f52601160045260245ffdfea2646970667358221220d0d5c3d2c1d3135a9cb63bffab557348e33dd7fdb4e55cf0cb940224d259f7ad64736f6c634300081e0033","linkReferences":{}},"methodIdentifiers":{"callAfterAddLiquidityHook(bytes32,address,uint256[],uint256[],uint256,(address,address,uint256[],uint256,uint8,bytes),(bytes32,address[],(uint8,address,bool)[],uint256[],uint256[],uint256[],uint256[]),address)":"c09b084a","callAfterInitializeHook(uint256[],uint256,bytes,address)":"61beb53e","callAfterRemoveLiquidityHook(bytes32,address,uint256[],uint256[],uint256,(address,address,uint256,uint256[],uint8,bytes),(bytes32,address[],(uint8,address,bool)[],uint256[],uint256[],uint256[],uint256[]),address)":"af6be573","callAfterSwapHook(bytes32,uint256,uint256,address,(uint8,address,address,address,uint256,uint256,bytes),(uint256,uint256,uint256,uint256),(bytes32,address[],(uint8,address,bool)[],uint256[],uint256[],uint256[],uint256[]),address)":"5f7b1c8b","callBeforeAddLiquidityHook(address,uint256[],(address,address,uint256[],uint256,uint8,bytes),(bytes32,address[],(uint8,address,bool)[],uint256[],uint256[],uint256[],uint256[]),address)":"0d1c3679","callBeforeInitializeHook(uint256[],bytes,address)":"c454bdbc","callBeforeRemoveLiquidityHook(uint256[],address,(address,address,uint256,uint256[],uint8,bytes),(bytes32,address[],(uint8,address,bool)[],uint256[],uint256[],uint256[],uint256[]),address)":"7b4ce289","callBeforeSwapHook((uint8,uint256,uint256[],uint256,uint256,address,bytes),address,address)":"fba45a02","callComputeDynamicSwapFeeHook((uint8,uint256,uint256[],uint256,uint256,address,bytes),address,uint256,address)":"43a958d2"},"id":374}