{"abi":[{"type":"function","name":"computeBalance","inputs":[{"name":"","type":"uint256[]","internalType":"uint256[]"},{"name":"","type":"uint256","internalType":"uint256"},{"name":"","type":"uint256","internalType":"uint256"}],"outputs":[{"name":"","type":"uint256","internalType":"uint256"}],"stateMutability":"pure"},{"type":"function","name":"computeInvariant","inputs":[{"name":"balancesLiveScaled18","type":"uint256[]","internalType":"uint256[]"},{"name":"rounding","type":"uint8","internalType":"enum Rounding"}],"outputs":[{"name":"invariant","type":"uint256","internalType":"uint256"}],"stateMutability":"view"},{"type":"function","name":"getGradualWeightUpdateParams","inputs":[],"outputs":[{"name":"startTime","type":"uint256","internalType":"uint256"},{"name":"endTime","type":"uint256","internalType":"uint256"},{"name":"startWeights","type":"uint256[]","internalType":"uint256[]"},{"name":"endWeights","type":"uint256[]","internalType":"uint256[]"}],"stateMutability":"view"},{"type":"function","name":"getNormalizedWeights","inputs":[],"outputs":[{"name":"weights","type":"uint256[]","internalType":"uint256[]"}],"stateMutability":"view"},{"type":"function","name":"getTokenIndices","inputs":[],"outputs":[{"name":"projectTokenIndex","type":"uint256","internalType":"uint256"},{"name":"reserveTokenIndex","type":"uint256","internalType":"uint256"}],"stateMutability":"view"},{"type":"function","name":"isProjectTokenSwapInBlocked","inputs":[],"outputs":[{"name":"","type":"bool","internalType":"bool"}],"stateMutability":"view"},{"type":"function","name":"isSwapEnabled","inputs":[],"outputs":[{"name":"","type":"bool","internalType":"bool"}],"stateMutability":"view"},{"type":"function","name":"onSwap","inputs":[{"name":"params","type":"tuple","internalType":"struct PoolSwapParams","components":[{"name":"kind","type":"uint8","internalType":"enum SwapKind"},{"name":"amountGivenScaled18","type":"uint256","internalType":"uint256"},{"name":"balancesScaled18","type":"uint256[]","internalType":"uint256[]"},{"name":"indexIn","type":"uint256","internalType":"uint256"},{"name":"indexOut","type":"uint256","internalType":"uint256"},{"name":"router","type":"address","internalType":"address"},{"name":"userData","type":"bytes","internalType":"bytes"}]}],"outputs":[{"name":"amountCalculatedScaled18","type":"uint256","internalType":"uint256"}],"stateMutability":"view"},{"type":"error","name":"BaseOutOfBounds","inputs":[]},{"type":"error","name":"ExponentOutOfBounds","inputs":[]},{"type":"error","name":"InsufficientRealReserveBalance","inputs":[{"name":"requested","type":"uint256","internalType":"uint256"},{"name":"available","type":"uint256","internalType":"uint256"}]},{"type":"error","name":"InvalidExponent","inputs":[]},{"type":"error","name":"MaxInRatio","inputs":[]},{"type":"error","name":"MaxOutRatio","inputs":[]},{"type":"error","name":"ProductOutOfBounds","inputs":[]},{"type":"error","name":"SwapOfProjectTokenIn","inputs":[]},{"type":"error","name":"SwapsDisabled","inputs":[]},{"type":"error","name":"ZeroDivision","inputs":[]},{"type":"error","name":"ZeroInvariant","inputs":[]}],"bytecode":{"object":"0x6080604052348015600e575f5ffd5b50611a238061001c5f395ff3fe608060405234801561000f575f5ffd5b5060043610610076575f3560e01c806316a0b3e01461007a578063351a964d146100a057806372c98186146100b85780637beed220146100cb57806395146efb146100e3578063984de9e8146100eb578063ae3ecc64146100fe578063f89f27ed1461011b575b5f5ffd5b61008d610088366004611777565b610130565b6040519081526020015b60405180910390f35b6100a861017c565b6040519015158152602001610097565b61008d6100c63660046117c0565b61018a565b6100d36103be565b6040516100979493929190611830565b6100a86103d9565b61008d6100f936600461187a565b6103e2565b6101066104ed565b60408051928352602083019190915201610097565b610123610507565b60405161009791906118c8565b60405162461bcd60e51b815260206004820152601a6024820152792621281d103ab739bab83837b93a32b21037b832b930ba34b7b760311b60448201525f906064015b60405180910390fd5b5f610185610511565b905090565b5f610193610511565b6101b05760405163fdf7984560e01b815260040160405180910390fd5b5f6101b9610522565b90506101c3610532565b80156101d3575080836080013514155b156101f157604051630934a1c560e11b815260040160405180910390fd5b5f6101fa610548565b90505f610205610610565b90505f610210610623565b90505f61022060408801886118da565b886060013581811061023457610234611926565b9050602002013590505f87806040019061024e91906118da565b896080013581811061026257610262611926565b9050602002013590505f8411156102a3578288606001350361028b57610288848361194e565b91505b828860800135036102a3576102a0848261194e565b90505b5f858960600135815181106102ba576102ba611926565b602002602001015190505f868a60800135815181106102db576102db611926565b602002602001015190505f60018111156102f7576102f7611961565b61030460208c018c611975565b600181111561031557610315611961565b036103325761032b848385848e60200135610636565b9850610346565b610343848385848e602001356106c5565b98505b5f861180156103585750848a60800135145b156103b1575f61036b60408c018c6118da565b8781811061037b5761037b611926565b905060200201359050808a11156103af57604051633715344960e01b8152600481018b905260248101829052604401610173565b505b5050505050505050919050565b5f5f6060806103cb610748565b935093509350935090919293565b5f610185610532565b5f5f6103ec610548565b90505f6103f7610610565b905080156104ae575f610408610623565b90505f86828151811061041d5761041d611926565b602002602001015190508287838151811061043a5761043a611926565b6020026020010181815161044e919061194e565b905250600186600181111561046557610465611961565b0361047b57610474848861075d565b9450610488565b61048584886107f1565b94505b8087838151811061049b5761049b611926565b60200260200101818152505050506104e5565b60018460018111156104c2576104c2611961565b036104d8576104d1828661075d565b92506104e5565b6104e282866107f1565b92505b505092915050565b5f5f6104f7610522565b9150610501610623565b90509091565b6060610185610548565b5f61018561051d61085e565b610882565b5f61018561052e61085e565b5490565b5f61018561053e61085e565b6008015460ff1690565b60605f61055361089d565b90505f61055e6108b0565b90505f610569610522565b90505f610574610623565b90505f6105916105826108c3565b61058a6108d6565b87876108e9565b90505f6105a682670de0b6b3a7640000611990565b6040805160028082526060820183529293509190602083019080368337019050509650818785815181106105dc576105dc611926565b602002602001018181525050808784815181106105fb576105fb611926565b60200260200101818152505050505050505090565b5f61018561061c61085e565b6009015490565b5f61018561062f61085e565b6001015490565b5f61064986670429d069189e000061090c565b8211156106695760405163340a453360e01b815260040160405180910390fd5b5f610674838861194e565b90505f6106818883610934565b90505f61068e888761094f565b90505f61069b838361096f565b90506106b7670de0b6b3a764000082810390831002899061090c565b9a9950505050505050505050565b5f6106d884670429d069189e000061090c565b8211156106f8576040516364590b9f60e01b815260040160405180910390fd5b5f61070d6107068487611990565b8690610934565b90505f61071a8588610934565b90505f610727838361096f565b90505f61073c670de0b6b3a764000083611990565b90506106b78a82610a22565b5f5f6060806103cb61075861085e565b610a4e565b670de0b6b3a76400005f5b83518110156107ca576107c06107b985838151811061078957610789611926565b60200260200101518584815181106107a3576107a3611926565b6020026020010151610b3f90919063ffffffff16565b839061090c565b9150600101610768565b50805f036107eb57604051632654368960e01b815260040160405180910390fd5b92915050565b670de0b6b3a76400005f5b83518110156107ca5761085461084d85838151811061081d5761081d611926565b602002602001015185848151811061083757610837611926565b602002602001015161096f90919063ffffffff16565b8390610a22565b91506001016107fc565b7fd53c3e2fdabe48bf711f58c7df0c133f4da87092dfb6b9b0387c9021e3acd3ff90565b5f816006015442101580156107eb5750506007015442111590565b5f6101856108a961085e565b6006015490565b5f6101856108bc61085e565b6007015490565b5f6101856108cf61085e565b6002015490565b5f6101856108e261085e565b6003015490565b5f5f6108f58484610beb565b9050610902868683610c21565b9695505050505050565b5f8061091883856119a3565b905061092c670de0b6b3a7640000826119ce565b949350505050565b5f61094883670de0b6b3a764000084610c8a565b9392505050565b5f80610963670de0b6b3a7640000856119a3565b905061092c83826119ce565b5f670de0b6b3a764000082036109865750816107eb565b610999670de0b6b3a764000060026119a3565b82036109b0576109a98384610a22565b90506107eb565b6109c3670de0b6b3a764000060046119a3565b82036109e8575f6109d48485610a22565b90506109e08182610a22565b9150506107eb565b5f6109f38484610ccf565b90505f610a0282612710610a22565b610a0d90600161194e565b9050610a19818361194e565b925050506107eb565b5f80610a2e83856119a3565b90506001670de0b6b3a76400006001830304018115150291505092915050565b60068101546007820154604080516002808252606080830184529283929190602083019080368337019050509150846002015482865f015481518110610a9657610a96611926565b602002602001018181525050846004015482866001015481518110610abd57610abd611926565b60209081029190910101526040805160028082526060820190925290816020016020820280368337019050509050846003015481865f015481518110610b0557610b05611926565b602002602001018181525050846005015481866001015481518110610b2c57610b2c611926565b6020026020010181815250509193509193565b5f670de0b6b3a76400008203610b565750816107eb565b610b69670de0b6b3a764000060026119a3565b8203610b79576109a9838461090c565b610b8c670de0b6b3a764000060046119a3565b8203610ba9575f610b9d848561090c565b90506109e0818261090c565b5f610bb48484610ccf565b90505f610bc382612710610a22565b610bce90600161194e565b905080821015610be2575f925050506107eb565b900390506107eb565b5f814210610c025750670de0b6b3a76400006107eb565b824211610c1057505f6107eb565b828203428490036104e2818361094f565b5f670de0b6b3a764000082101580610c3857508284145b15610c44575081610948565b815f03610c52575082610948565b82841115610c72575f610c678385870361090c565b850391506109489050565b5f610c7f8386860361090c565b850191506109489050565b5f815f03610cab57604051630a0c22c760e01b815260040160405180910390fd5b5f610cb684866119a3565b9050600183600183030401811515029150509392505050565b5f815f03610ce65750670de0b6b3a76400006107eb565b825f03610cf457505f6107eb565b60ff83901c15610d16576040516211380f60e51b815260040160405180910390fd5b82610d2e68056bc75e2d63100000600160fe1b6119ce565b8310610d4d5760405163d831731160e01b815260040160405180910390fd5b825f670c7d713b49da000083138015610d6d5750670f43fc2c04ee000083125b15610da3575f610d7c84610e05565b9050670de0b6b3a764000080820784020583670de0b6b3a764000083050201915050610db1565b81610dad84610f22565b0290505b670de0b6b3a76400009005680238fd42c5cf03ffff198112801590610ddf575068070c1cc73b00c800008113155b610dfc5760405163a2f9f7e360e01b815260040160405180910390fd5b610902816112cc565b670de0b6b3a7640000025f806a0c097ce7bc90715b34b9f160241b808401906ec097ce7bc90715b34b9f0fffffffff1985010281610e4557610e456119ba565b0590505f6a0c097ce7bc90715b34b9f160241b82800205905081806a0c097ce7bc90715b34b9f160241b81840205915060038205016a0c097ce7bc90715b34b9f160241b82840205915060058205016a0c097ce7bc90715b34b9f160241b82840205915060078205016a0c097ce7bc90715b34b9f160241b82840205915060098205016a0c097ce7bc90715b34b9f160241b828402059150600b8205016a0c097ce7bc90715b34b9f160241b828402059150600d8205016a0c097ce7bc90715b34b9f160241b828402059150600f82050160020295945050505050565b5f80670de0b6b3a7640000831215610f5957826a0c097ce7bc90715b34b9f160241b81610f5157610f516119ba565b059250600190505b5f775803bcc5cb9634ba4cfb2213f784019318ed4dcb6017880f60361b8412610fa35772195e54c5dd42177f53a27172fa9ec63026282760241b840593506806f05b59d3b2000000015b6f8bcc0026baae9e45e470190267a230cf60191b8412610fda576b1425982cf597cd205cef7380840593506803782dace9d9000000015b606493840293026e01855144814a7ff805980ff00840008412611022576e01855144814a7ff805980ff008400068056bc75e2d63100000850205935068ad78ebc5ac62000000015b6b02df0ab5a80a22c61ab5a700841261105d576b02df0ab5a80a22c61ab5a70068056bc75e2d6310000085020593506856bc75e2d631000000015b693f1fce3da636ea5cf850841261109457693f1fce3da636ea5cf85068056bc75e2d631000008502059350682b5e3af16b18800000015b690127fa27722cc06cc5e284126110cb57690127fa27722cc06cc5e268056bc75e2d6310000085020593506815af1d78b58c400000015b68280e60114edb805d0384126111005768280e60114edb805d0368056bc75e2d631000008502059350680ad78ebc5ac6200000015b680ebc5fb41746121110841261112b57680ebc5fb4174612111068056bc75e2d631000009485020593015b6808f00f760a4b2db55d8412611160576808f00f760a4b2db55d68056bc75e2d6310000085020593506802b5e3af16b1880000015b6806f5f17757889379378412611195576806f5f177578893793768056bc75e2d63100000850205935068015af1d78b58c40000015b6806248f33704b28660384126111c9576806248f33704b28660368056bc75e2d63100000850205935067ad78ebc5ac620000015b6805c548670b9510e7ac84126111fd576805c548670b9510e7ac68056bc75e2d6310000085020593506756bc75e2d6310000015b5f68056bc75e2d63100000850168056bc75e2d631000008087030281611225576112256119ba565b0590505f68056bc75e2d63100000828002059050818068056bc75e2d63100000818402059150600382050168056bc75e2d63100000828402059150600582050168056bc75e2d63100000828402059150600782050168056bc75e2d63100000828402059150600982050168056bc75e2d63100000828402059150600b8205016002025f6064868301059050866112bb57806112bf565b805f035b9998505050505050505050565b5f680238fd42c5cf03ffff1982121580156112f0575068070c1cc73b00c800008213155b61130d5760405163d4794efd60e01b815260040160405180910390fd5b5f8083121561132057825f039250600190505b5f6806f05b59d3b2000000841261135d57506806f05b59d3b1ffffff199092019172195e54c5dd42177f53a27172fa9ec63026282760241b611393565b6803782dace9d9000000841261138f57506803782dace9d8ffffff19909201916b1425982cf597cd205cef7380611393565b5060015b6064939093029268056bc75e2d6310000068ad78ebc5ac6200000085126113e35768ad78ebc5ac61ffffff199094019368056bc75e2d631000006e01855144814a7ff805980ff008400082020590505b6856bc75e2d631000000851261141f576856bc75e2d630ffffff199094019368056bc75e2d631000006b02df0ab5a80a22c61ab5a70082020590505b682b5e3af16b18800000851261145957682b5e3af16b187fffff199094019368056bc75e2d63100000693f1fce3da636ea5cf85082020590505b6815af1d78b58c4000008512611493576815af1d78b58c3fffff199094019368056bc75e2d63100000690127fa27722cc06cc5e282020590505b680ad78ebc5ac620000085126114cc57680ad78ebc5ac61fffff199094019368056bc75e2d6310000068280e60114edb805d0382020590505b68056bc75e2d6310000085126115055768056bc75e2d630fffff199094019368056bc75e2d63100000680ebc5fb4174612111082020590505b6802b5e3af16b1880000851261153e576802b5e3af16b187ffff199094019368056bc75e2d631000006808f00f760a4b2db55d82020590505b68015af1d78b58c4000085126115775768015af1d78b58c3ffff199094019368056bc75e2d631000006806f5f177578893793782020590505b68056bc75e2d631000008581019086906002908280020505918201919050600368056bc75e2d631000008883020505918201919050600468056bc75e2d631000008883020505918201919050600568056bc75e2d631000008883020505918201919050600668056bc75e2d631000008883020505918201919050600768056bc75e2d631000008883020505918201919050600868056bc75e2d631000008883020505918201919050600968056bc75e2d631000008883020505918201919050600a68056bc75e2d631000008883020505918201919050600b68056bc75e2d631000008883020505918201919050600c68056bc75e2d6310000088830205059182019190505f606468056bc75e2d631000008585020586020590508561169c57806116bb565b806a0c097ce7bc90715b34b9f160241b816116b9576116b96119ba565b055b98975050505050505050565b634e487b7160e01b5f52604160045260245ffd5b5f82601f8301126116ea575f5ffd5b81356001600160401b03811115611703576117036116c7565b604051600582901b90603f8201601f191681016001600160401b0381118282101715611731576117316116c7565b60405291825260208185018101929081018684111561174e575f5ffd5b6020860192505b8383101561176d578235815260209283019201611755565b5095945050505050565b5f5f5f60608486031215611789575f5ffd5b83356001600160401b0381111561179e575f5ffd5b6117aa868287016116db565b9660208601359650604090950135949350505050565b5f602082840312156117d0575f5ffd5b81356001600160401b038111156117e5575f5ffd5b820160e08185031215610948575f5ffd5b5f8151808452602084019350602083015f5b82811015611826578151865260209586019590910190600101611808565b5093949350505050565b848152836020820152608060408201525f61184e60808301856117f6565b828103606084015261186081856117f6565b979650505050505050565b60028110611877575f5ffd5b50565b5f5f6040838503121561188b575f5ffd5b82356001600160401b038111156118a0575f5ffd5b6118ac858286016116db565b92505060208301356118bd8161186b565b809150509250929050565b602081525f61094860208301846117f6565b5f5f8335601e198436030181126118ef575f5ffd5b8301803591506001600160401b03821115611908575f5ffd5b6020019150600581901b360382131561191f575f5ffd5b9250929050565b634e487b7160e01b5f52603260045260245ffd5b634e487b7160e01b5f52601160045260245ffd5b808201808211156107eb576107eb61193a565b634e487b7160e01b5f52602160045260245ffd5b5f60208284031215611985575f5ffd5b81356109488161186b565b818103818111156107eb576107eb61193a565b80820281158282048414176107eb576107eb61193a565b634e487b7160e01b5f52601260045260245ffd5b5f826119e857634e487b7160e01b5f52601260045260245ffd5b50049056fea2646970667358221220d80a5bd1b2b10225a3ff228841f58c5499ae247d79ca1eeaa5b240af0c24224264736f6c634300081e0033","linkReferences":{}},"methodIdentifiers":{"computeBalance(uint256[],uint256,uint256)":"16a0b3e0","computeInvariant(uint256[],uint8)":"984de9e8","getGradualWeightUpdateParams()":"7beed220","getNormalizedWeights()":"f89f27ed","getTokenIndices()":"ae3ecc64","isProjectTokenSwapInBlocked()":"95146efb","isSwapEnabled()":"351a964d","onSwap((uint8,uint256,uint256[],uint256,uint256,address,bytes))":"72c98186"},"id":890}