{"abi":[{"type":"constructor","inputs":[{"name":"authorizer","type":"address","internalType":"contract IAuthorizer"},{"name":"pauseWindowDuration","type":"uint32","internalType":"uint32"},{"name":"bufferPeriodDuration","type":"uint32","internalType":"uint32"},{"name":"minTradeAmount","type":"uint256","internalType":"uint256"},{"name":"minWrapAmount","type":"uint256","internalType":"uint256"},{"name":"vaultCreationCodeHash_","type":"bytes32","internalType":"bytes32"},{"name":"vaultExtensionCreationCodeHash_","type":"bytes32","internalType":"bytes32"},{"name":"vaultAdminCreationCodeHash_","type":"bytes32","internalType":"bytes32"}],"stateMutability":"nonpayable"},{"type":"function","name":"acceptOwnership","inputs":[],"outputs":[],"stateMutability":"nonpayable"},{"type":"function","name":"cancelOwnershipHandover","inputs":[],"outputs":[],"stateMutability":"payable"},{"type":"function","name":"completeOwnershipHandover","inputs":[{"name":"pendingOwner","type":"address","internalType":"address"}],"outputs":[],"stateMutability":"payable"},{"type":"function","name":"create","inputs":[{"name":"salt","type":"bytes32","internalType":"bytes32"},{"name":"targetAddress","type":"address","internalType":"address"},{"name":"protocolFeeController","type":"address","internalType":"contract IProtocolFeeController"},{"name":"vaultCreationCode","type":"bytes","internalType":"bytes"},{"name":"vaultExtensionCreationCode","type":"bytes","internalType":"bytes"},{"name":"vaultAdminCreationCode","type":"bytes","internalType":"bytes"}],"outputs":[],"stateMutability":"nonpayable"},{"type":"function","name":"deployedVaultAdmins","inputs":[{"name":"vaultAddress","type":"address","internalType":"address"}],"outputs":[{"name":"","type":"address","internalType":"contract VaultAdmin"}],"stateMutability":"view"},{"type":"function","name":"deployedVaultExtensions","inputs":[{"name":"vaultAddress","type":"address","internalType":"address"}],"outputs":[{"name":"","type":"address","internalType":"contract VaultExtension"}],"stateMutability":"view"},{"type":"function","name":"getDeploymentAddress","inputs":[{"name":"salt","type":"bytes32","internalType":"bytes32"}],"outputs":[{"name":"","type":"address","internalType":"address"}],"stateMutability":"view"},{"type":"function","name":"isDeployed","inputs":[{"name":"vaultAddress","type":"address","internalType":"address"}],"outputs":[{"name":"deployed","type":"bool","internalType":"bool"}],"stateMutability":"view"},{"type":"function","name":"owner","inputs":[],"outputs":[{"name":"","type":"address","internalType":"address"}],"stateMutability":"view"},{"type":"function","name":"ownershipHandoverExpiresAt","inputs":[{"name":"pendingOwner","type":"address","internalType":"address"}],"outputs":[{"name":"result","type":"uint256","internalType":"uint256"}],"stateMutability":"view"},{"type":"function","name":"pendingOwner","inputs":[],"outputs":[{"name":"","type":"address","internalType":"address"}],"stateMutability":"view"},{"type":"function","name":"renounceOwnership","inputs":[],"outputs":[],"stateMutability":"payable"},{"type":"function","name":"requestOwnershipHandover","inputs":[],"outputs":[],"stateMutability":"payable"},{"type":"function","name":"transferOwnership","inputs":[{"name":"newOwner","type":"address","internalType":"address"}],"outputs":[],"stateMutability":"payable"},{"type":"function","name":"vaultAdminCreationCodeHash","inputs":[],"outputs":[{"name":"","type":"bytes32","internalType":"bytes32"}],"stateMutability":"view"},{"type":"function","name":"vaultCreationCodeHash","inputs":[],"outputs":[{"name":"","type":"bytes32","internalType":"bytes32"}],"stateMutability":"view"},{"type":"function","name":"vaultExtensionCreationCodeHash","inputs":[],"outputs":[{"name":"","type":"bytes32","internalType":"bytes32"}],"stateMutability":"view"},{"type":"event","name":"OwnershipHandoverCanceled","inputs":[{"name":"pendingOwner","type":"address","indexed":true,"internalType":"address"}],"anonymous":false},{"type":"event","name":"OwnershipHandoverRequested","inputs":[{"name":"pendingOwner","type":"address","indexed":true,"internalType":"address"}],"anonymous":false},{"type":"event","name":"OwnershipTransferStarted","inputs":[{"name":"previousOwner","type":"address","indexed":true,"internalType":"address"},{"name":"newOwner","type":"address","indexed":true,"internalType":"address"}],"anonymous":false},{"type":"event","name":"OwnershipTransferred","inputs":[{"name":"oldOwner","type":"address","indexed":true,"internalType":"address"},{"name":"newOwner","type":"address","indexed":true,"internalType":"address"}],"anonymous":false},{"type":"event","name":"VaultCreated","inputs":[{"name":"vault","type":"address","indexed":false,"internalType":"address"}],"anonymous":false},{"type":"error","name":"AlreadyInitialized","inputs":[]},{"type":"error","name":"Create2EmptyBytecode","inputs":[]},{"type":"error","name":"Create2FailedDeployment","inputs":[]},{"type":"error","name":"Create2InsufficientBalance","inputs":[{"name":"balance","type":"uint256","internalType":"uint256"},{"name":"needed","type":"uint256","internalType":"uint256"}]},{"type":"error","name":"InvalidBytecode","inputs":[{"name":"contractName","type":"string","internalType":"string"}]},{"type":"error","name":"InvalidProtocolFeeController","inputs":[]},{"type":"error","name":"NewOwnerIsZeroAddress","inputs":[]},{"type":"error","name":"NoHandoverRequest","inputs":[]},{"type":"error","name":"OwnableInvalidOwner","inputs":[{"name":"owner","type":"address","internalType":"address"}]},{"type":"error","name":"OwnableUnauthorizedAccount","inputs":[{"name":"account","type":"address","internalType":"address"}]},{"type":"error","name":"ReentrancyGuardReentrantCall","inputs":[]},{"type":"error","name":"Unauthorized","inputs":[]},{"type":"error","name":"VaultAddressMismatch","inputs":[]},{"type":"error","name":"VaultAlreadyDeployed","inputs":[{"name":"vault","type":"address","internalType":"address"}]}],"bytecode":{"object":"0x610180604052348015610010575f5ffd5b5060405161111538038061111583398101604081905261002f916100ed565b338061005457604051631e4fbdf760e01b81525f600482015260240160405180910390fd5b61005d8161009a565b5060809290925260a09190915260c0526001600160a01b0390941660e05263ffffffff92831661010052911661012052610140526101605261016a565b6001600160a01b0316638b78c6d819819055805f7f8be0079c531659141344cd1fd0a4f28419497f9722a3daafe3b4186f6b6457e08180a350565b805163ffffffff811681146100e8575f5ffd5b919050565b5f5f5f5f5f5f5f5f610100898b031215610105575f5ffd5b88516001600160a01b038116811461011b575f5ffd5b975061012960208a016100d5565b965061013760408a016100d5565b60608a015160808b015160a08c015160c08d015160e0909d01519b9e9a9d50929b919a9099929850909650945092505050565b60805160a05160c05160e05161010051610120516101405161016051610f3b6101da5f395f6106aa01525f61068401525f61065a01525f61063001525f6107a201525f818161022b015261055701525f818161025e01526104e301525f818161014501526104740152610f3b5ff3fe6080604052600436106100cd575f3560e01c806325692962146100d1578063337d4010146100db57806354d1f13d14610110578063715018a61461011857806379ba5097146101205780638108101a146101345780638b79f6bb146101755780638da5cb5b146101945780638fb027e3146101a857806390184b02146101dc578063a65be7d01461021a578063cfa4dd8d1461024d578063d1b76f8714610280578063e30c3978146102b4578063f04e283e146102c8578063f2fde38b146102db578063fee81cf4146102ee575b5f5ffd5b6100d961031f565b005b3480156100e6575f5ffd5b506100fa6100f5366004610d2c565b61036b565b6040516101079190610d43565b60405180910390f35b6100d961037b565b6100d96103b4565b34801561012b575f5ffd5b506100d96103c7565b34801561013f575f5ffd5b506101677f000000000000000000000000000000000000000000000000000000000000000081565b604051908152602001610107565b348015610180575f5ffd5b506100d961018f366004610daf565b61040f565b34801561019f575f5ffd5b506100fa6108b6565b3480156101b3575f5ffd5b506100fa6101c2366004610e7a565b60026020525f90815260409020546001600160a01b031681565b3480156101e7575f5ffd5b5061020a6101f6366004610e7a565b60036020525f908152604090205460ff1681565b6040519015158152602001610107565b348015610225575f5ffd5b506101677f000000000000000000000000000000000000000000000000000000000000000081565b348015610258575f5ffd5b506101677f000000000000000000000000000000000000000000000000000000000000000081565b34801561028b575f5ffd5b506100fa61029a366004610e7a565b60016020525f90815260409020546001600160a01b031681565b3480156102bf575f5ffd5b506100fa6108c9565b6100d96102d6366004610e7a565b6108d7565b6100d96102e9366004610e7a565b610911565b3480156102f9575f5ffd5b50610167610308366004610e7a565b63389a75e1600c9081525f91909152602090205490565b5f6202a3006001600160401b03164201905063389a75e1600c52335f52806020600c2055337fdbf36a107da19e49527a7176a1babf963b4b0ff8cde35ee35d6cd8f1f9ac7e1d5f5fa250565b5f61037582610976565b92915050565b63389a75e1600c52335f525f6020600c2055337ffa7b8eab7da67f412cc9575ed43464468f9bfbae89d1675917346ca6d8fe3c925f5fa2565b6103bc610981565b6103c55f6109bc565b565b33806103d16108c9565b6001600160a01b031614610403578060405163118cdaa760e01b81526004016103fa9190610d43565b60405180910390fd5b61040c816109f9565b50565b610417610981565b61041f610a11565b6001600160a01b0388165f9081526003602052604090205460ff161561045a578760405163e254a88b60e01b81526004016103fa9190610d43565b858560405161046a929190610e95565b60405180910390207f0000000000000000000000000000000000000000000000000000000000000000146104c9576040516363fa3cb760e11b815260206004820152600560248201526415985d5b1d60da1b60448201526064016103fa565b81816040516104d9929190610e95565b60405180910390207f00000000000000000000000000000000000000000000000000000000000000001461053d576040516363fa3cb760e11b815260206004820152600a6024820152692b30bab63a20b236b4b760b11b60448201526064016103fa565b838360405161054d929190610e95565b60405180910390207f0000000000000000000000000000000000000000000000000000000000000000146105b5576040516363fa3cb760e11b815260206004820152600e60248201526d2b30bab63a22bc3a32b739b4b7b760911b60448201526064016103fa565b6105be8961036b565b6001600160a01b0316886001600160a01b0316146105ef5760405163b4c1be7b60e01b815260040160405180910390fd5b6001600160a01b0387166106165760405163d8b6cbcf60e01b815260040160405180910390fd5b604080516001600160a01b038a16602082015263ffffffff7f00000000000000000000000000000000000000000000000000000000000000008116928201929092527f00000000000000000000000000000000000000000000000000000000000000009190911660608201527f000000000000000000000000000000000000000000000000000000000000000060808201527f000000000000000000000000000000000000000000000000000000000000000060a08201525f906107139082908c908690869060c0015b60408051601f19818403018152908290526106ff939291602001610ebb565b604051602081830303815290604052610a58565b6001600160a01b038a81165f81815260026020908152604080832080546001600160a01b0319169587169586179055805191820193909352918201929092529192509061076a9082908d90899089906060016106e0565b6001600160a01b038b81165f90815260016020908152604080832080546001600160a01b0319168686169081179091558151928301527f0000000000000000000000000000000000000000000000000000000000000000841690820152918c166060830152919250610813908d908b908b9060800160408051601f19818403018152908290526107fe939291602001610ebb565b6040516020818303038152906040525f610add565b90508a6001600160a01b0316816001600160a01b0316146108475760405163b4c1be7b60e01b815260040160405180910390fd5b7f2e49a5810fda2439a23771848b4acec786b0a64d4de3d124ac57fc8739c388758b6040516108769190610d43565b60405180910390a15050506001600160a01b0388165f908152600360205260409020805460ff191660011790556108ab610c2c565b505050505050505050565b5f6108c4638b78c6d8195490565b905090565b5f546001600160a01b031690565b6108df610981565b63389a75e1600c52805f526020600c20805442111561090557636f5e88185f526004601cfd5b5f905561040c816109bc565b610919610981565b5f80546001600160a01b0319166001600160a01b03831690811790915561093e6108b6565b6001600160a01b03167f38d16b8cac22d99fc7c124b9cd0de2d3fa1faef420bfe791d8c362d765e2270060405160405180910390a350565b5f6103758230610c43565b6109896108b6565b6001600160a01b0316336001600160a01b0316146103c5573360405163118cdaa760e01b81526004016103fa9190610d43565b638b78c6d81980546001600160a01b039092169182907f8be0079c531659141344cd1fd0a4f28419497f9722a3daafe3b4186f6b6457e05f80a355565b5f80546001600160a01b031916905561040c816109bc565b5f516020610ee65f395f51905f525c15610a3e57604051633ee5aeb560e01b815260040160405180910390fd5b6103c560015f516020610ee65f395f51905f525b90610d25565b5f83471015610a835760405163392efb2b60e21b8152476004820152602481018590526044016103fa565b81515f03610aa457604051631328927760e21b815260040160405180910390fd5b8282516020840186f590506001600160a01b038116610ad657604051633a0ba96160e11b815260040160405180910390fd5b9392505050565b5f5f6040518060400160405280601081526020016f67363d3d37363d34f03d5260086018f360801b81525090505f858251602084015ff590506001600160a01b038116610b605760405162461bcd60e51b81526020600482015260116024820152701111541313d65351539517d19052531151607a1b60448201526064016103fa565b610b6986610976565b92505f816001600160a01b03168587604051610b859190610eda565b5f6040518083038185875af1925050503d805f8114610bbf576040519150601f19603f3d011682016040523d82523d5f602084013e610bc4565b606091505b50509050808015610bde57506001600160a01b0384163b15155b610c225760405162461bcd60e51b815260206004820152601560248201527412539255125053125690551253d397d19052531151605a1b60448201526064016103fa565b5050509392505050565b6103c55f5f516020610ee65f395f51905f52610a52565b604080518082018252601081526f67363d3d37363d34f03d5260086018f360801b60209182015290516001600160f81b0319918101919091526001600160601b0319606083901b166021820152603581018390527f21c35dbe1b344a2488cf3321d6ce542f8e9f305544ff09e4993a62319a497c1f60558201525f908190610ce2906075015b6040516020818303038152906040528051906020012090565b6040516135a560f21b60208201526001600160601b0319606083901b166022820152600160f81b6036820152909150610d1d90603701610cc9565b949350505050565b80825d5050565b5f60208284031215610d3c575f5ffd5b5035919050565b6001600160a01b0391909116815260200190565b6001600160a01b038116811461040c575f5ffd5b5f5f83601f840112610d7b575f5ffd5b5081356001600160401b03811115610d91575f5ffd5b602083019150836020828501011115610da8575f5ffd5b9250929050565b5f5f5f5f5f5f5f5f5f60c08a8c031215610dc7575f5ffd5b8935985060208a0135610dd981610d57565b975060408a0135610de981610d57565b965060608a01356001600160401b03811115610e03575f5ffd5b610e0f8c828d01610d6b565b90975095505060808a01356001600160401b03811115610e2d575f5ffd5b610e398c828d01610d6b565b90955093505060a08a01356001600160401b03811115610e57575f5ffd5b610e638c828d01610d6b565b915080935050809150509295985092959850929598565b5f60208284031215610e8a575f5ffd5b8135610ad681610d57565b818382375f9101908152919050565b5f81518060208401855e5f93019283525090919050565b828482375f8382015f8152610ed08185610ea4565b9695505050505050565b5f610ad68284610ea456fe9b779b17422d0df92223018b32b4d1fa46e071723d6817e2486d003becc55f00a2646970667358221220edc98779df2a6b1dc7464bf4cfd7dfca1199be6637cf04eb8ea4873bc7ed063a64736f6c634300081e0033","linkReferences":{}},"methodIdentifiers":{"acceptOwnership()":"79ba5097","cancelOwnershipHandover()":"54d1f13d","completeOwnershipHandover(address)":"f04e283e","create(bytes32,address,address,bytes,bytes,bytes)":"8b79f6bb","deployedVaultAdmins(address)":"8fb027e3","deployedVaultExtensions(address)":"d1b76f87","getDeploymentAddress(bytes32)":"337d4010","isDeployed(address)":"90184b02","owner()":"8da5cb5b","ownershipHandoverExpiresAt(address)":"fee81cf4","pendingOwner()":"e30c3978","renounceOwnership()":"715018a6","requestOwnershipHandover()":"25692962","transferOwnership(address)":"f2fde38b","vaultAdminCreationCodeHash()":"cfa4dd8d","vaultCreationCodeHash()":"8108101a","vaultExtensionCreationCodeHash()":"a65be7d0"},"id":348}