{"abi":[{"type":"constructor","inputs":[{"name":"vault","type":"address","internalType":"contract IVault"},{"name":"pauseWindowDuration","type":"uint32","internalType":"uint32"},{"name":"factoryVersion","type":"string","internalType":"string"},{"name":"poolVersion","type":"string","internalType":"string"}],"stateMutability":"nonpayable"},{"type":"function","name":"create","inputs":[{"name":"name","type":"string","internalType":"string"},{"name":"symbol","type":"string","internalType":"string"},{"name":"tokens","type":"tuple[]","internalType":"struct TokenConfig[]","components":[{"name":"token","type":"address","internalType":"contract IERC20"},{"name":"tokenType","type":"uint8","internalType":"enum TokenType"},{"name":"rateProvider","type":"address","internalType":"contract IRateProvider"},{"name":"paysYieldFees","type":"bool","internalType":"bool"}]},{"name":"roleAccounts","type":"tuple","internalType":"struct PoolRoleAccounts","components":[{"name":"pauseManager","type":"address","internalType":"address"},{"name":"swapFeeManager","type":"address","internalType":"address"},{"name":"poolCreator","type":"address","internalType":"address"}]},{"name":"swapFeePercentage","type":"uint256","internalType":"uint256"},{"name":"hookContract","type":"address","internalType":"address"},{"name":"priceParams","type":"tuple","internalType":"struct ReClammPriceParams","components":[{"name":"initialMinPrice","type":"uint256","internalType":"uint256"},{"name":"initialMaxPrice","type":"uint256","internalType":"uint256"},{"name":"initialTargetPrice","type":"uint256","internalType":"uint256"},{"name":"tokenAPriceIncludesRate","type":"bool","internalType":"bool"},{"name":"tokenBPriceIncludesRate","type":"bool","internalType":"bool"}]},{"name":"dailyPriceShiftExponent","type":"uint256","internalType":"uint256"},{"name":"centerednessMargin","type":"uint256","internalType":"uint256"},{"name":"salt","type":"bytes32","internalType":"bytes32"}],"outputs":[{"name":"pool","type":"address","internalType":"address"}],"stateMutability":"nonpayable"},{"type":"function","name":"disable","inputs":[],"outputs":[],"stateMutability":"nonpayable"},{"type":"function","name":"getActionId","inputs":[{"name":"selector","type":"bytes4","internalType":"bytes4"}],"outputs":[{"name":"","type":"bytes32","internalType":"bytes32"}],"stateMutability":"view"},{"type":"function","name":"getAuthorizer","inputs":[],"outputs":[{"name":"","type":"address","internalType":"contract IAuthorizer"}],"stateMutability":"view"},{"type":"function","name":"getCreationCode","inputs":[],"outputs":[{"name":"","type":"bytes","internalType":"bytes"}],"stateMutability":"view"},{"type":"function","name":"getCreationCodeContracts","inputs":[],"outputs":[{"name":"contractA","type":"address","internalType":"address"},{"name":"contractB","type":"address","internalType":"address"}],"stateMutability":"view"},{"type":"function","name":"getDefaultLiquidityManagement","inputs":[],"outputs":[{"name":"liquidityManagement","type":"tuple","internalType":"struct LiquidityManagement","components":[{"name":"disableUnbalancedLiquidity","type":"bool","internalType":"bool"},{"name":"enableAddLiquidityCustom","type":"bool","internalType":"bool"},{"name":"enableRemoveLiquidityCustom","type":"bool","internalType":"bool"},{"name":"enableDonation","type":"bool","internalType":"bool"}]}],"stateMutability":"pure"},{"type":"function","name":"getDefaultPoolHooksContract","inputs":[],"outputs":[{"name":"","type":"address","internalType":"address"}],"stateMutability":"pure"},{"type":"function","name":"getDeploymentAddress","inputs":[{"name":"salt","type":"bytes32","internalType":"bytes32"}],"outputs":[{"name":"","type":"address","internalType":"address"}],"stateMutability":"view"},{"type":"function","name":"getDeploymentAddress","inputs":[{"name":"constructorArgs","type":"bytes","internalType":"bytes"},{"name":"salt","type":"bytes32","internalType":"bytes32"}],"outputs":[{"name":"","type":"address","internalType":"address"}],"stateMutability":"view"},{"type":"function","name":"getNewPoolPauseWindowEndTime","inputs":[],"outputs":[{"name":"","type":"uint32","internalType":"uint32"}],"stateMutability":"view"},{"type":"function","name":"getOriginalPauseWindowEndTime","inputs":[],"outputs":[{"name":"","type":"uint32","internalType":"uint32"}],"stateMutability":"view"},{"type":"function","name":"getPauseWindowDuration","inputs":[],"outputs":[{"name":"","type":"uint32","internalType":"uint32"}],"stateMutability":"view"},{"type":"function","name":"getPoolCount","inputs":[],"outputs":[{"name":"","type":"uint256","internalType":"uint256"}],"stateMutability":"view"},{"type":"function","name":"getPoolVersion","inputs":[],"outputs":[{"name":"","type":"string","internalType":"string"}],"stateMutability":"view"},{"type":"function","name":"getPools","inputs":[],"outputs":[{"name":"","type":"address[]","internalType":"address[]"}],"stateMutability":"view"},{"type":"function","name":"getPoolsInRange","inputs":[{"name":"start","type":"uint256","internalType":"uint256"},{"name":"count","type":"uint256","internalType":"uint256"}],"outputs":[{"name":"pools","type":"address[]","internalType":"address[]"}],"stateMutability":"view"},{"type":"function","name":"getVault","inputs":[],"outputs":[{"name":"","type":"address","internalType":"contract IVault"}],"stateMutability":"view"},{"type":"function","name":"isDisabled","inputs":[],"outputs":[{"name":"","type":"bool","internalType":"bool"}],"stateMutability":"view"},{"type":"function","name":"isPoolFromFactory","inputs":[{"name":"pool","type":"address","internalType":"address"}],"outputs":[{"name":"","type":"bool","internalType":"bool"}],"stateMutability":"view"},{"type":"function","name":"version","inputs":[],"outputs":[{"name":"","type":"string","internalType":"string"}],"stateMutability":"view"},{"type":"event","name":"FactoryDisabled","inputs":[],"anonymous":false},{"type":"event","name":"PoolCreated","inputs":[{"name":"pool","type":"address","indexed":true,"internalType":"address"}],"anonymous":false},{"type":"error","name":"CodeDeploymentFailed","inputs":[]},{"type":"error","name":"Disabled","inputs":[]},{"type":"error","name":"IndexOutOfBounds","inputs":[]},{"type":"error","name":"InvalidInitialPrice","inputs":[]},{"type":"error","name":"InvalidTokenType","inputs":[]},{"type":"error","name":"MaxTokens","inputs":[]},{"type":"error","name":"PoolAddressMismatch","inputs":[]},{"type":"error","name":"PoolPauseWindowDurationOverflow","inputs":[]},{"type":"error","name":"SenderNotAllowed","inputs":[]},{"type":"error","name":"StandardPoolWithCreator","inputs":[]},{"type":"error","name":"VaultNotSet","inputs":[]}],"bytecode":{"object":"0x610180604052348015610010575f5ffd5b50604051620138cb380380620138cb833981016040819052610031916102c4565b8184846040518060200161004490610219565b601f1982820381018352601f9091011660405280518290849081903090819086905f610071600283610376565b60a081905290505f6100838284610395565b60e08190528285529050835f6100998282610179565b6001600160a01b0316608052508483018051838252600191906100bc8284610179565b6001600160a01b0390811660c0529690935291909152505050610100929092525082166100fc57604051630647140b60e51b815260040160405180910390fd5b506001600160a01b031661012052505f61011c63ffffffff8316426103ae565b905063ffffffff811115610143576040516368755a1160e01b815260040160405180910390fd5b63ffffffff918216610140521661016052506101629150829050610209565b50600461016f8282610445565b50505050506104ff565b5f5f826101a6577f602038038060206000396000f3fefefefefefefefefefefefefefefefefefefe6101c8565b7f60fe600053602038038060206001396001016000f3fefefefefefefefefefefe5b9050835181855260208101855ff090855291506001600160a01b0382166102025760405163fef8220760e01b815260040160405180910390fd5b5092915050565b60036102158282610445565b5050565b616b57806200cd7483390190565b634e487b7160e01b5f52604160045260245ffd5b5f82601f83011261024a575f5ffd5b81516001600160401b0381111561026357610263610227565b604051601f8201601f19908116603f011681016001600160401b038111828210171561029157610291610227565b6040528181528382016020018510156102a8575f5ffd5b8160208501602083015e5f918101602001919091529392505050565b5f5f5f5f608085870312156102d7575f5ffd5b84516001600160a01b03811681146102ed575f5ffd5b602086015190945063ffffffff81168114610306575f5ffd5b60408601519093506001600160401b03811115610321575f5ffd5b61032d8782880161023b565b606087015190935090506001600160401b0381111561034a575f5ffd5b6103568782880161023b565b91505092959194509250565b634e487b7160e01b5f52601160045260245ffd5b5f8261039057634e487b7160e01b5f52601260045260245ffd5b500490565b818103818111156103a8576103a8610362565b92915050565b808201808211156103a8576103a8610362565b600181811c908216806103d557607f821691505b6020821081036103f357634e487b7160e01b5f52602260045260245ffd5b50919050565b601f82111561044057805f5260205f20601f840160051c8101602085101561041e5750805b601f840160051c820191505b8181101561043d575f815560010161042a565b50505b505050565b81516001600160401b0381111561045e5761045e610227565b6104728161046c84546103c1565b846103f9565b6020601f8211600181146104a4575f831561048d5750848201515b5f19600385901b1c1916600184901b17845561043d565b5f84815260208120601f198516915b828110156104d357878501518255602094850194600190920191016104b3565b50848210156104f057868401515f19600387901b60f8161c191681555b50505050600190811b01905550565b60805160a05160c05160e0516101005161012051610140516101605161c7f66200057e5f395f81816102d9015281816106d1015261070401525f61026101525f81816106440152610e9501525f6105e101525f610a0901525f818161015901526109e801525f6109c701525f818161013401526109a6015261c7f65ff3fe608060405234801561000f575f5ffd5b5060043610610104575f3560e01c8062c194db14610108578063174481fa14610126578063193ad50f146101845780632f2770db14610199578063337d4010146101a35780633f819b6f146101ce57806344f6fec7146101d657806353a72f7e146101e957806354fd4d50146102095780636634b75314610211578063673a2a1f1461024c5780636c57f5a91461025457806378da80cb1461025f578063851c1bb3146102965780638d928af8146102b75780638eec5d70146102bf578063aaabadc5146102c7578063db035ebc146102cf578063e9d56e19146102d7578063ec888061146102fd578063eed211b114610303575b5f5ffd5b610110610316565b60405161011d9190611179565b60405180910390f35b604080516001600160a01b037f0000000000000000000000000000000000000000000000000000000000000000811682527f00000000000000000000000000000000000000000000000000000000000000001660208201520161011d565b61018c610334565b60405161011d91906111b9565b6101a161035a565b005b6101b66101b13660046111c7565b6103a1565b6040516001600160a01b03909116815260200161011d565b6101106103b9565b6101b66101e43660046112a2565b610449565b6101fc6101f73660046112f6565b610468565b60405161011d9190611316565b610110610570565b61023c61021f366004611385565b6001600160a01b03165f9081526020819052604090205460ff1690565b604051901515815260200161011d565b6101fc61057f565b60025460ff1661023c565b7f00000000000000000000000000000000000000000000000000000000000000005b60405163ffffffff909116815260200161011d565b6102a96102a43660046113a0565b6105de565b60405190815260200161011d565b6101b6610642565b6001546102a9565b6101b6610666565b6102816106ce565b7f0000000000000000000000000000000000000000000000000000000000000000610281565b5f6101b6565b6101b66103113660046115c2565b610726565b606061032f60405180602001604052805f8152506109a2565b905090565b604080516080810182525f80825260208201819052918101829052606081019190915290565b610362610a84565b61036a610ac5565b6002805460ff191660011790556040517f432acbfd662dbb5d8b378384a67159b47ca9d0f1b79f97cf64cf8585fa362d50905f90a1565b5f6103b36103ae83610aeb565b610b0e565b92915050565b6060600480546103c8906116ac565b80601f01602080910402602001604051908101604052809291908181526020018280546103f4906116ac565b801561043f5780601f106104165761010080835404028352916020019161043f565b820191905f5260205f20905b81548152906001019060200180831161042257829003601f168201915b5050505050905090565b5f5f61045483610aeb565b90506104608482610b19565b949350505050565b60015460609080841061048e57604051634e23d03560e01b815260040160405180910390fd5b5f61049984866116f8565b9050818111156104b0576104ad858361170b565b93505b836001600160401b038111156104c8576104c86111de565b6040519080825280602002602001820160405280156104f1578160200160208202803683370190505b5092505f5b8481101561056757600161050a82886116f8565b8154811061051a5761051a61171e565b905f5260205f20015f9054906101000a90046001600160a01b03168482815181106105475761054761171e565b6001600160a01b03909216602092830291909101909101526001016104f6565b50505092915050565b6060600380546103c8906116ac565b6060600180548060200260200160405190810160405280929190818152602001828054801561043f57602002820191905f5260205f20905b81546001600160a01b031681526001909101906020018083116105b7575050505050905090565b5f7f0000000000000000000000000000000000000000000000000000000000000000826040516020016106259291909182526001600160e01b031916602082015260240190565b604051602081830303815290604052805190602001209050919050565b7f000000000000000000000000000000000000000000000000000000000000000090565b5f61066f610642565b6001600160a01b031663aaabadc56040518163ffffffff1660e01b8152600401602060405180830381865afa1580156106aa573d5f5f3e3d5ffd5b505050506040513d601f19601f8201168201806040525081019061032f9190611732565b5f7f000000000000000000000000000000000000000000000000000000000000000063ffffffff16421061070157505f90565b507f000000000000000000000000000000000000000000000000000000000000000090565b60408701515f906001600160a01b0316156107545760405163187b85d960e21b815260040160405180910390fd5b61075e8986610b37565b5f61076883610aeb565b905061077381610b0e565b91505f6040518061014001604052808e81526020018d81526020016004805461079b906116ac565b80601f01602080910402602001604051908101604052809291908181526020018280546107c7906116ac565b80156108125780601f106107e957610100808354040283529160200191610812565b820191905f5260205f20905b8154815290600101906020018083116107f557829003601f168201915b5050505050815260200187815260200161082b87610c24565b6001600160401b03168152602001885f0151815260200188602001518152602001886040015181526020018860600151151581526020018860800151151581525090505f83610878610642565b838b60405161088690611131565b610893949392919061180f565b604051809103905ff0801580156108ac573d5f5f3e3d5ffd5b5090505f61092884604051806020016108c49061113e565b601f1982820381018352601f90910116604052856108e0610642565b868f6040516020016108f59493929190611853565b60408051601f198184030181529082905261091392916020016118a5565b6040516020818303038152906040525f610c2e565b9050846001600160a01b0316816001600160a01b03161461095c5760405163078f264160e31b815260040160405180910390fd5b50505061096882610d82565b5f610971610334565b5f60608201819052600182529091506109929084908d908c908e8487610e14565b50509a9950505050505050505050565b60607f00000000000000000000000000000000000000000000000000000000000000007f00000000000000000000000000000000000000000000000000000000000000007f00000000000000000000000000000000000000000000000000000000000000007f00000000000000000000000000000000000000000000000000000000000000005f610a3382856116f8565b87519091505f610a4382846116f8565b9050604051975060208101880160405280885260208801865f828a3c846001888301883c50602089810190898501018382825e505050505050505050919050565b5f610a995f356001600160e01b0319166105de565b9050610aa58133610e92565b610ac2576040516323dada5360e01b815260040160405180910390fd5b50565b60025460ff1615610ae957604051633ac4266d60e11b815260040160405180910390fd5b565b604080513360208201524691810191909152606081018290525f90608001610625565b5f6103b38230610f91565b5f5f610b24846109a2565b905061046083828051906020012061106b565b600282511115610b5a57604051630e0f7beb60e31b815260040160405180910390fd5b80606001518015610b9a57506001825f81518110610b7a57610b7a61171e565b6020026020010151602001516001811115610b9757610b976118b9565b14155b15610bb85760405163a1e9dd9d60e01b815260040160405180910390fd5b80608001518015610bf95750600182600181518110610bd957610bd961171e565b6020026020010151602001516001811115610bf657610bf66118b9565b14155b15610c175760405163a1e9dd9d60e01b815260040160405180910390fd5b610c2081611077565b5050565b5f6103b3826110e3565b5f5f6040518060400160405280601081526020016f67363d3d37363d34f03d5260086018f360801b81525090505f858251602084015ff590506001600160a01b038116610cb65760405162461bcd60e51b81526020600482015260116024820152701111541313d65351539517d19052531151607a1b60448201526064015b60405180910390fd5b610cbf86610b0e565b92505f816001600160a01b03168587604051610cdb91906118cd565b5f6040518083038185875af1925050503d805f8114610d15576040519150601f19603f3d011682016040523d82523d5f602084013e610d1a565b606091505b50509050808015610d3457506001600160a01b0384163b15155b610d785760405162461bcd60e51b815260206004820152601560248201527412539255125053125690551253d397d19052531151605a1b6044820152606401610cad565b5050509392505050565b610d8a610ac5565b6001600160a01b0381165f81815260208190526040808220805460ff19166001908117909155805480820182559083527fb10e2d527612073b26eecdfd717e6a320cf44b4afac2b0732d9fcbe2b7fa0cf60180546001600160a01b03191684179055517f83a48fbcfc991335314e74d0496aab6a1987e992ddc85dddbcc4d6dd6ef2e9fc9190a250565b610e1c610642565b6001600160a01b031663eeec802f888888610e356106ce565b898989896040518963ffffffff1660e01b8152600401610e5c9897969594939291906118d8565b5f604051808303815f87803b158015610e73575f5ffd5b505af1158015610e85573d5f5f3e3d5ffd5b5050505050505050505050565b5f7f00000000000000000000000000000000000000000000000000000000000000006001600160a01b031663aaabadc56040518163ffffffff1660e01b8152600401602060405180830381865afa158015610eef573d5f5f3e3d5ffd5b505050506040513d601f19601f82011682018060405250810190610f139190611732565b6040516326f8aa2160e21b8152600481018590526001600160a01b0384811660248301523060448301529190911690639be2a88490606401602060405180830381865afa158015610f66573d5f5f3e3d5ffd5b505050506040513d601f19601f82011682018060405250810190610f8a91906119f5565b9392505050565b604080518082018252601081526f67363d3d37363d34f03d5260086018f360801b60209182015290516001600160f81b0319918101919091526001600160601b0319606083901b166021820152603581018390527f21c35dbe1b344a2488cf3321d6ce542f8e9f305544ff09e4993a62319a497c1f60558201525f908190611030906075015b6040516020818303038152906040528051906020012090565b6040516135a560f21b60208201526001600160601b0319606083901b166022820152600160f81b603682015290915061046090603701611017565b5f610f8a8383306110fb565b8051158061108757506020810151155b8061109457506040810151155b806110a3575080516040820151105b806110b5575080602001518160400151115b806110c557506020810151815110155b15610ac2576040516359e6ae3360e11b815260040160405180910390fd5b5f600160401b82106110f7576110f7611124565b5090565b5f604051836040820152846020820152828152600b8101905060ff815360559020949350505050565b6335278d125f526004601cfd5b61425980611a1183390190565b616b5780615c6a83390190565b5f81518084528060208401602086015e5f602082860101526020601f19601f83011685010191505092915050565b602081525f610f8a602083018461114b565b8051151582526020810151151560208301526040810151151560408301526060810151151560608301525050565b608081016103b3828461118b565b5f602082840312156111d7575f5ffd5b5035919050565b634e487b7160e01b5f52604160045260245ffd5b604051608081016001600160401b0381118282101715611214576112146111de565b60405290565b604051601f8201601f191681016001600160401b0381118282101715611242576112426111de565b604052919050565b5f806001600160401b03841115611263576112636111de565b50601f8301601f19166020016112788161121a565b91505082815283838301111561128c575f5ffd5b828260208301375f602084830101529392505050565b5f5f604083850312156112b3575f5ffd5b82356001600160401b038111156112c8575f5ffd5b8301601f810185136112d8575f5ffd5b6112e78582356020840161124a565b95602094909401359450505050565b5f5f60408385031215611307575f5ffd5b50508035926020909101359150565b602080825282518282018190525f918401906040840190835b818110156113565783516001600160a01b031683526020938401939092019160010161132f565b509095945050505050565b6001600160a01b0381168114610ac2575f5ffd5b803561138081611361565b919050565b5f60208284031215611395575f5ffd5b8135610f8a81611361565b5f602082840312156113b0575f5ffd5b81356001600160e01b031981168114610f8a575f5ffd5b5f82601f8301126113d6575f5ffd5b610f8a8383356020850161124a565b8015158114610ac2575f5ffd5b5f82601f830112611401575f5ffd5b81356001600160401b0381111561141a5761141a6111de565b61142960208260051b0161121a565b8082825260208201915060208360071b86010192508583111561144a575f5ffd5b602085015b838110156114c75760808188031215611466575f5ffd5b61146e6111f2565b813561147981611361565b815260208201356002811061148c575f5ffd5b6020820152604082013561149f81611361565b604082015260608201356114b2816113e5565b6060820152835260209092019160800161144f565b5095945050505050565b5f606082840312156114e1575f5ffd5b604051606081016001600160401b0381118282101715611503576115036111de565b604052905080823561151481611361565b8152602083013561152481611361565b6020820152604083013561153781611361565b6040919091015292915050565b5f60a08284031215611554575f5ffd5b60405160a081016001600160401b0381118282101715611576576115766111de565b60409081528335825260208085013590830152838101359082015290508060608301356115a2816113e5565b606082015260808301356115b5816113e5565b6080919091015292915050565b5f5f5f5f5f5f5f5f5f5f6102008b8d0312156115dc575f5ffd5b8a356001600160401b038111156115f1575f5ffd5b6115fd8d828e016113c7565b9a505060208b01356001600160401b03811115611618575f5ffd5b6116248d828e016113c7565b99505060408b01356001600160401b0381111561163f575f5ffd5b61164b8d828e016113f2565b98505061165b8c60608d016114d1565b965060c08b0135955061167060e08c01611375565b94506116808c6101008d01611544565b999c989b5096999598949793965093946101a081013594506101c0810135936101e09091013592509050565b600181811c908216806116c057607f821691505b6020821081036116de57634e487b7160e01b5f52602260045260245ffd5b50919050565b634e487b7160e01b5f52601160045260245ffd5b808201808211156103b3576103b36116e4565b818103818111156103b3576103b36116e4565b634e487b7160e01b5f52603260045260245ffd5b5f60208284031215611742575f5ffd5b8151610f8a81611361565b5f8151610140845261176361014085018261114b565b90506020830151848203602086015261177c828261114b565b91505060408301518482036040860152611796828261114b565b9150506060830151606085015260808301516117bd60808601826001600160401b03169052565b5060a083015160a085015260c083015160c085015260e083015160e08501526101008301516117f161010086018215159052565b5061012083015161180761012086018215159052565b509392505050565b6001600160a01b038581168252841660208201526080604082018190525f9061183a9083018561174d565b905060018060a01b038316606083015295945050505050565b608081525f611865608083018761174d565b6001600160a01b0395861660208401529385166040830152509216606090920191909152919050565b5f81518060208401855e5f93019283525090919050565b5f6104606118b3838661188e565b8461188e565b634e487b7160e01b5f52602160045260245ffd5b5f610f8a828461188e565b6001600160a01b03891681526101a0602080830182905289519183018290525f91908a01906101c0840190835b8181101561197b57835180516001600160a01b0316845260208101516002811061193d57634e487b7160e01b5f52602160045260245ffd5b6020858101919091526040828101516001600160a01b0316908601526060918201511515918501919091529390930192608090920191600101611905565b5050604084018a905263ffffffff8916606085015291506119999050565b851515608083015284516001600160a01b0390811660a08401526020860151811660c084015260408601511660e08301526001600160a01b0384166101008301526119e861012083018461118b565b9998505050505050505050565b5f60208284031215611a05575f5ffd5b8151610f8a816113e556fe6101e0604052348015610010575f5ffd5b5060405161425938038061425983398101604081905261002f916101b4565b6001600160a01b039283166101808190529383166101a0526101c09390935260a080820151608090815260c08084015190925260e08084015190925260608301519091528101516001600160401b031661010090815281015115156101209081520151151561014052166101605261030a565b6001600160a01b03811681146100b6575f5ffd5b50565b634e487b7160e01b5f52604160045260245ffd5b60405161014081016001600160401b03811182821017156100f0576100f06100b9565b60405290565b5f82601f830112610105575f5ffd5b81516001600160401b0381111561011e5761011e6100b9565b604051601f8201601f19908116603f011681016001600160401b038111828210171561014c5761014c6100b9565b604052818152838201602001851015610163575f5ffd5b8160208501602083015e5f918101602001919091529392505050565b80516001600160401b0381168114610195575f5ffd5b919050565b80518015158114610195575f5ffd5b8051610195816100a2565b5f5f5f5f608085870312156101c7575f5ffd5b84516101d2816100a2565b60208601519094506101e3816100a2565b60408601519093506001600160401b038111156101fe575f5ffd5b85016101408188031215610210575f5ffd5b6102186100cd565b81516001600160401b0381111561022d575f5ffd5b610239898285016100f6565b82525060208201516001600160401b03811115610254575f5ffd5b610260898285016100f6565b60208301525060408201516001600160401b0381111561027e575f5ffd5b61028a898285016100f6565b604083015250606082810151908201526102a66080830161017f565b608082015260a0828101519082015260c0808301519082015260e080830151908201526102d6610100830161019a565b6101008201526102e9610120830161019a565b61012082015292506102ff9050606086016101a9565b905092959194509250565b60805160a05160c05160e05161010051610120516101405161016051610180516101a0516101c051613e3c61041d5f395f818161071c015281816107ab0152818161083e015281816109b101528181610d6901528181610df801528181611041015281816110d30152818161137c01528181611458015281816115ff01528181611729015261180401525f818161019a015261150b01525f61159d01525f81816104ef015281816105d601528181610aba01528181610bad01528181610fa9015281816111e90152818161124d015261154d01525f610e9e01525f610e7601525f610f7a01525f610f5301525f610f2c01525f8181610f06015261119c01525f8181610ee0015261117a0152613e3c5ff3fe608060405260043610610108575f3560e01c8063105ae7ad1461015e57806316f0115b1461018c57806318b6eb55146101c65780631d8a5e7e146101fc578063215666a81461021e5780632754888d146102325780632c3576881461025f578063378997701461028057806338be241d146102a95780634efd88c9146102d85780634f149b3f146102ec5780635211fa771461031d578063569ee3501461033c5780636bd838c7146103505780637f118b90146103af57806384254cf9146103d0578063976907cc146103e4578063a0e8f5ac14610403578063a103b04414610422578063c0209f1d14610436578063c480b9e61461044a578063cd80a1af1461047557610126565b3661012657604051637911c44b60e11b815260040160405180910390fd5b341561014557604051637911c44b60e11b815260040160405180910390fd5b60405163d623472560e01b815260040160405180910390fd5b348015610169575f5ffd5b5061017261049e565b604080519283526020830191909152015b60405180910390f35b348015610197575f5ffd5b507f00000000000000000000000000000000000000000000000000000000000000006040516101839190612c70565b3480156101d1575f5ffd5b506101e56101e0366004612c84565b6104c6565b604080519215158352602083019190915201610183565b348015610207575f5ffd5b5061021061056c565b604051908152602001610183565b348015610229575f5ffd5b5061021061058c565b34801561023d575f5ffd5b5061025161024c366004612e7d565b6105ac565b604051610183929190612fa6565b34801561026a575f5ffd5b5061027361066c565b6040516101839190612fc0565b34801561028b575f5ffd5b50610294610a7c565b60405163ffffffff9091168152602001610183565b3480156102b4575f5ffd5b506102c86102c33660046130ef565b610a92565b6040519015158152602001610183565b3480156102e3575f5ffd5b50610210610b3b565b3480156102f7575f5ffd5b50610300610b65565b604080519384526020840192909252151590820152606001610183565b348015610328575f5ffd5b506102c8610337366004613170565b610b85565b348015610347575f5ffd5b50610210610c2d565b34801561035b575f5ffd5b50610364610c46565b6040805182516001600160601b039081168252602080850151909116908201528282015163ffffffff9081169282019290925260609283015190911691810191909152608001610183565b3480156103ba575f5ffd5b506103c3610cbf565b60405161018391906131f7565b3480156103db575f5ffd5b50610172611020565b3480156103ef575f5ffd5b506102516103fe366004613318565b6111bf565b34801561040e575f5ffd5b506101e561041d3660046133c4565b61122c565b34801561042d575f5ffd5b506102106112d1565b348015610441575f5ffd5b506102106112e2565b348015610455575f5ffd5b5061045e611359565b604080519215158352901515602083015201610183565b348015610480575f5ffd5b50610489611435565b60408051928352901515602083015201610183565b5f5f6104a8611500565b50506002546001600160801b0380821691600160801b9004165b9091565b5f5f6104d061154b565b6104d8611592565b6040516318b6eb5560e01b81526001600160a01b037f000000000000000000000000000000000000000000000000000000000000000016906318b6eb55906105249086906004016134c8565b60408051808303815f875af115801561053f573d5f5f3e3d5ffd5b505050506040513d601f19601f8201168201806040525081019061056391906135cb565b91509150915091565b5f610575611500565b50600154600160a01b90046001600160401b031690565b5f610595611500565b50600154600160201b90046001600160801b031690565b5f60606105b761154b565b6105bf611592565b604051632754888d60e01b81526001600160a01b037f00000000000000000000000000000000000000000000000000000000000000001690632754888d90610619908d908d908d908d908d908d908d908d90600401613623565b5f604051808303815f875af1158015610634573d5f5f3e3d5ffd5b505050506040513d5f823e601f3d908101601f1916820160405261065b919081019061370e565b915091509850989650505050505050565b6106fd60405180610240016040528060608152602001606081526020015f81526020015f81526020015f8152602001606081526020015f81526020015f81526020015f81526020015f81526020015f81526020015f81526020015f81526020015f63ffffffff1681526020015f63ffffffff1681526020015f151581526020015f151581526020015f151581525090565b610705611500565b6040516329ae7ec560e11b81526001600160a01b037f0000000000000000000000000000000000000000000000000000000000000000169063535cfd8a90610751903090600401612c70565b5f60405180830381865afa15801561076b573d5f5f3e3d5ffd5b505050506040513d5f823e601f3d908101601f191682016040526107929190810190613759565b8152604051633f1b0def60e11b81526001600160a01b037f00000000000000000000000000000000000000000000000000000000000000001690637e361bde906107e0903090600401612c70565b5f60405180830381865afa1580156107fa573d5f5f3e3d5ffd5b505050506040513d5f823e601f3d908101601f19168201604052610821919081019061378a565b60208301525060405163b45090f960e01b81526001600160a01b037f0000000000000000000000000000000000000000000000000000000000000000169063b45090f990610873903090600401612c70565b602060405180830381865afa15801561088e573d5f5f3e3d5ffd5b505050506040513d601f19601f820116820180604052508101906108b291906137d9565b60408201526108bf6115e6565b606082015260015463ffffffff1660808201526108da611673565b60a0820152600154600160201b90046001600160801b031660e0820181905261090290611704565b60c08201526001546001600160401b03600160a01b90910416610100820152604080516080810182525f80546001600160601b03808216808552600160601b830482166020860190815263ffffffff600160c01b85048116878901908152600160e01b9095048116606088019081526101608a01939093529051909216610180880152915181166101a08701529051166101c0850152915163f29486a160e01b81529091906001600160a01b037f0000000000000000000000000000000000000000000000000000000000000000169063f29486a1906109e6903090600401612c70565b6101a060405180830381865afa158015610a02573d5f5f3e3d5ffd5b505050506040513d601f19601f82011682018060405250810190610a269190613894565b60e08101511580156101e086015261010082015115156102008601526101208201511515610220860152909150610a7757610a5f611725565b6101208401819052610a70906117d4565b6101408401525b505090565b5f610a85611500565b5060015463ffffffff1690565b5f610a9b61154b565b610aa3611592565b6040516338be241d60e01b81526001600160a01b037f000000000000000000000000000000000000000000000000000000000000000016906338be241d90610af39087908790879060040161394d565b6020604051808303815f875af1158015610b0f573d5f5f3e3d5ffd5b505050506040513d601f19601f82011682018060405250810190610b339190613977565b949350505050565b5f610b44611500565b600154610b6090600160201b90046001600160801b0316611704565b905090565b5f5f5f610b70611500565b610b786117fd565b9196909550909350915050565b5f610b8e61154b565b610b96611592565b604051635211fa7760e01b81526001600160a01b037f00000000000000000000000000000000000000000000000000000000000000001690635211fa7790610be49086908690600401613a8b565b6020604051808303815f875af1158015610c00573d5f5f3e3d5ffd5b505050506040513d601f19601f82011682018060405250810190610c249190613977565b90505b92915050565b5f610c36611500565b610b60610c41611725565b6117d4565b604080516080810182525f808252602082018190529181018290526060810191909152610c71611500565b50604080516080810182525f546001600160601b038082168352600160601b820416602083015263ffffffff600160c01b8204811693830193909352600160e01b9004909116606082015290565b610d4a60405180610240016040528060608152602001606081526020015f151581526020015f151581526020015f81526020015f81526020015f81526020015f81526020015f81526020015f81526020015f81526020015f6001600160a01b031681526020015f81526020015f81526020015f81526020015f81526020015f81526020015f81525090565b610d52611500565b60405163ca4f280360e01b81526001600160a01b037f0000000000000000000000000000000000000000000000000000000000000000169063ca4f280390610d9e903090600401612c70565b5f60405180830381865afa158015610db8573d5f5f3e3d5ffd5b505050506040513d5f823e601f3d908101601f19168201604052610ddf9190810190613b18565b8152604051633f1b0def60e11b81526001600160a01b037f00000000000000000000000000000000000000000000000000000000000000001690637e361bde90610e2d903090600401612c70565b5f60405180830381865afa158015610e47573d5f5f3e3d5ffd5b505050506040513d5f823e601f3d908101601f19168201604052610e6e919081019061378a565b5060208201527f0000000000000000000000000000000000000000000000000000000000000000151560408201527f0000000000000000000000000000000000000000000000000000000000000000151560608201526509184e72a000608082015267016345785d8a000060a08201527f000000000000000000000000000000000000000000000000000000000000000060c08201527f000000000000000000000000000000000000000000000000000000000000000060e08201527f00000000000000000000000000000000000000000000000000000000000000006101008201527f00000000000000000000000000000000000000000000000000000000000000006101208201527f00000000000000000000000000000000000000000000000000000000000000006101408201526001600160a01b037f000000000000000000000000000000000000000000000000000000000000000016610160820152670c7d713b49da0000610180820152670de0b6b3a76400006101a0820152671bc16d674ec800006101c0820152620151806101e0820152620f4240610200820152655af3107a400061022082015290565b5f5f61102a611500565b6040516314cb3b1f60e21b81526001600160a01b037f0000000000000000000000000000000000000000000000000000000000000000169063532cec7c90611076903090600401612c70565b602060405180830381865afa158015611091573d5f5f3e3d5ffd5b505050506040513d601f19601f820116820180604052508101906110b59190613977565b15611177576040516333f0703b60e11b81525f906001600160a01b037f000000000000000000000000000000000000000000000000000000000000000016906367e0e07690611108903090600401612c70565b5f60405180830381865afa158015611122573d5f5f3e3d5ffd5b505050506040513d5f823e601f3d908101601f191682016040526111499190810190613b49565b93505050505f5f611159836118ad565b50915091506111698383836118ff565b90955093506104c292505050565b507f0000000000000000000000000000000000000000000000000000000000000000917f00000000000000000000000000000000000000000000000000000000000000009150565b5f60606111ca61154b565b6111d2611592565b6040516325da41f360e21b81526001600160a01b037f0000000000000000000000000000000000000000000000000000000000000000169063976907cc90610619908d908d908d908d908d908d908d908d90600401613ca4565b5f5f61123661154b565b60405163283a3d6b60e21b81526001600160a01b037f0000000000000000000000000000000000000000000000000000000000000000169063a0e8f5ac9061128690889088908890600401613d11565b6040805180830381865afa1580156112a0573d5f5f3e3d5ffd5b505050506040513d601f19601f820116820180604052508101906112c491906135cb565b915091505b935093915050565b5f6112da611500565b610b60611725565b5f6112eb611500565b5f5f5f6112f66117fd565b5092509250925061135182845f8151811061131357611313613d3e565b60200260200101516113259190613d66565b828560018151811061133957611339613d3e565b602002602001015161134b9190613d66565b90611947565b935050505090565b5f5f611363611500565b6040516333f0703b60e11b81525f906001600160a01b037f000000000000000000000000000000000000000000000000000000000000000016906367e0e076906113b1903090600401612c70565b5f60405180830381865afa1580156113cb573d5f5f3e3d5ffd5b505050506040513d5f823e601f3d908101601f191682016040526113f29190810190613b49565b93505050505f5f611402836118ad565b600154909650919350915061142c90849084908490600160a01b90046001600160401b0316611967565b94505050509091565b5f5f61143f611500565b6040516333f0703b60e11b81525f906001600160a01b037f000000000000000000000000000000000000000000000000000000000000000016906367e0e0769061148d903090600401612c70565b5f60405180830381865afa1580156114a7573d5f5f3e3d5ffd5b505050506040513d5f823e601f3d908101601f191682016040526114ce9190810190613b49565b6002549094506114f793508492506001600160801b038082169250600160801b90910416611982565b92509250509091565b306001600160a01b037f0000000000000000000000000000000000000000000000000000000000000000161461154957604051631af3033f60e11b815260040160405180910390fd5b565b7f00000000000000000000000000000000000000000000000000000000000000006001600160a01b03166115495760405163d623472560e01b815260040160405180910390fd5b336001600160a01b037f00000000000000000000000000000000000000000000000000000000000000001614611549573360405163089676d560e01b81526004016115dd9190612c70565b60405180910390fd5b6040516339370aa960e21b81525f906001600160a01b037f0000000000000000000000000000000000000000000000000000000000000000169063e4dc2aa490611634903090600401612c70565b602060405180830381865afa15801561164f573d5f5f3e3d5ffd5b505050506040513d601f19601f82011682018060405250810190610b6091906137d9565b60408051600280825260608083018452925f929190602083019080368337505060025482519293506001600160801b0316918391505f906116b6576116b6613d3e565b602002602001018181525050600260109054906101000a90046001600160801b03166001600160801b0316816001815181106116f4576116f4613d3e565b6020908102919091010152919050565b5f6201e6e961171b83670de0b6b3a7640000613d79565b610c279190613d8c565b5f807f00000000000000000000000000000000000000000000000000000000000000006001600160a01b03166367e0e076306040518263ffffffff1660e01b81526004016117739190612c70565b5f60405180830381865afa15801561178d573d5f5f3e3d5ffd5b505050506040513d5f823e601f3d908101601f191682016040526117b49190810190613b49565b93505050505f5f6117c4836118ad565b5091509150611351838383611a61565b5f610c27670de0b6b3a76400006117f36117ee8286613d8c565b611a88565b6117ee9190613d8c565b60605f5f5f7f00000000000000000000000000000000000000000000000000000000000000006001600160a01b03166367e0e076306040518263ffffffff1660e01b815260040161184e9190612c70565b5f60405180830381865afa158015611868573d5f5f3e3d5ffd5b505050506040513d5f823e601f3d908101601f1916820160405261188f9190810190613b49565b96506118a092508691506118ad9050565b9596919590945092509050565b6002546001545f9182918291610b789186916001600160801b0380821692600160801b909204811691600160201b81049091169063ffffffff811690600160a01b90046001600160401b031687611b0d565b5f5f5f61190f8686866001611c49565b90508061191c8580613d8c565b6119269190613db7565b925061193c6119358680611ccb565b8290611947565b915050935093915050565b5f8061195b670de0b6b3a764000085613d8c565b9050610b338382613db7565b5f5f611974868686611982565b509092111595945050505050565b5f5f845f8151811061199657611996613d3e565b60200260200101515f036119ae57505f9050806112c9565b846001815181106119c1576119c1613d3e565b60200260200101515f036119da57505f905060016112c9565b5f83865f815181106119ee576119ee613d3e565b6020026020010151611a009190613d8c565b90505f86600181518110611a1657611a16613d3e565b602002602001015186611a299190613d8c565b9050808211611a4657611a3c8282611947565b93505f9250611a57565b611a508183611947565b9350600192505b5050935093915050565b5f5f5f611a6f8686866118ff565b9092509050611a7e8183611ceb565b9695505050505050565b5f610c27826001600160881b03811160071b81811c6001600160481b031060061b1781811c64ffffffffff1060051b1781811c62ffffff1060041b1781811c620100000160b5600192831c1b0260121c80830401811c80830401811c80830401811c80830401811c80830401811c80830401811c80830401901c908190048111900390565b5f5f5f5f611b1a42611cff565b90508063ffffffff168763ffffffff1603611b3e5789895f93509350935050611c3c565b6040805160808101825286546001600160601b03808216808452600160601b83049091166020840181905263ffffffff600160c01b84048116958501869052600160e01b909304909216606084018190528e98508d975092935f93611ba7938793929091611d09565b6001600160601b03169050816040015163ffffffff168363ffffffff16118015611be05750816060015163ffffffff168963ffffffff16105b15611bfb57611bf1818e8e8e611de8565b9096509450600193505b50505f5f611c0a8d8787611982565b91509150876001600160401b0316821015611c3857611c2e8d8787848e888f611f2f565b9096509450600193505b5050505b9750975097945050505050565b5f612c5b6001836001811115611c6157611c61613430565b14611c6e576120c0611c72565b611ccb5b9050611a7e85875f81518110611c8a57611c8a613d3e565b6020026020010151611c9c9190613d66565b8588600181518110611cb057611cb0613d3e565b6020026020010151611cc29190613d66565b8363ffffffff16565b5f80611cd78385613d8c565b9050610b33670de0b6b3a764000082613db7565b5f610c2483670de0b6b3a7640000846120ec565b5f610c2782612131565b5f8163ffffffff168663ffffffff1610611d24575082611ddf565b8263ffffffff168663ffffffff1611611d3e575083611ddf565b5f611d70611d4c8585613dd6565b63ffffffff16611d5c868a613dd6565b63ffffffff1661194790919063ffffffff16565b90505f611da6611d9683611d906001600160601b038a8116908c16611947565b90612149565b6001600160601b03891690611ccb565b90505f611dc5886001600160601b0316886001600160601b0316612204565b9050611dd9611dd48284612213565b612222565b93505050505b95945050505050565b5f5f5f5f611df7878787611982565b915091505f5f5f83611e255789600181518110611e1657611e16613d3e565b6020026020010151888a611e42565b895f81518110611e3757611e37613d3e565b602002602001015189895b919450925090505f611e548c80611ccb565b90505f611e69670de0b6b3a764000083613d79565b611e74906002613d8c565b611ec1671bc16d674ec80000611e8b856004613d8c565b611e95908b613d66565b611e9f9190613d79565b611ea9908a613d8c565b6117ee906a0c097ce7bc90715b34b9f160241b613d66565b611ed389670de0b6b3a7640000613d66565b611edd9190613d66565b611ee79087613d8c565b611ef19190613db7565b90505f84611eff8584613d8c565b611f099190613db7565b905086611f17578082611f1a565b81815b909f909e509c50505050505050505050505050565b5f5f5f611f45611f408b8b8b611a61565b61222c565b90505f5f88611f88578b600181518110611f6157611f61613d3e565b60200260200101518c5f81518110611f7b57611f7b613d3e565b6020026020010151611fbe565b8b5f81518110611f9a57611f9a613d3e565b60200260200101518c600181518110611fb557611fb5613d3e565b60200260200101515b915091505f5f8a611fd0578b8d611fd3565b8c8c5b90925090505f611ff5611fe68a8c613dd6565b63ffffffff1662278d00612204565b905061201d61201661200f670de0b6b3a764000084613d8c565b8d90612149565b8390611ccb565b915061204e82612049670de0b6b3a76400006120388a61222c565b6120429190613d79565b8790611947565b612213565b91508361206d83612067670de0b6b3a76400008a613d79565b90611ccb565b6120779190613d79565b6120818584613d66565b61208b9087613d8c565b6120959190613db7565b92508b6120a35781836120a6565b82825b809850819950505050505050505097509795505050505050565b5f806120cc8385613d8c565b90506001670de0b6b3a76400006001830304018115150291505092915050565b5f815f0361210d57604051630a0c22c760e01b815260040160405180910390fd5b5f6121188486613d8c565b9050600183600183030401811515029150509392505050565b5f600160201b821061214557612145612242565b5090565b5f670de0b6b3a76400008203612160575081610c27565b612173670de0b6b3a76400006002613d8c565b820361218a576121838384611ccb565b9050610c27565b61219d670de0b6b3a76400006004613d8c565b82036121c2575f6121ae8485611ccb565b90506121ba8182611ccb565b915050610c27565b5f6121cd848461224f565b90505f6121dc826127106120c0565b6121e7906001613d66565b9050808210156121fb575f92505050610c27565b90039050610c27565b5f818311828418028318610c24565b5f818310828418028318610c24565b5f610c2782612385565b5f610c276117ee670de0b6b3a764000084613d8c565b6335278d125f526004601cfd5b5f815f036122665750670de0b6b3a7640000610c27565b825f0361227457505f610c27565b60ff83901c15612296576040516211380f60e51b815260040160405180910390fd5b826122ae68056bc75e2d63100000600160fe1b613db7565b83106122cd5760405163d831731160e01b815260040160405180910390fd5b825f670c7d713b49da0000831380156122ed5750670f43fc2c04ee000083125b15612323575f6122fc84612399565b9050670de0b6b3a764000080820784020583670de0b6b3a764000083050201915050612331565b8161232d846124b6565b0290505b670de0b6b3a76400009005680238fd42c5cf03ffff19811280159061235f575068070c1cc73b00c800008113155b61237c5760405163a2f9f7e360e01b815260040160405180910390fd5b611a7e81612860565b5f600160601b821061214557612145612242565b670de0b6b3a7640000025f806a0c097ce7bc90715b34b9f160241b808401906ec097ce7bc90715b34b9f0fffffffff19850102816123d9576123d9613da3565b0590505f6a0c097ce7bc90715b34b9f160241b82800205905081806a0c097ce7bc90715b34b9f160241b81840205915060038205016a0c097ce7bc90715b34b9f160241b82840205915060058205016a0c097ce7bc90715b34b9f160241b82840205915060078205016a0c097ce7bc90715b34b9f160241b82840205915060098205016a0c097ce7bc90715b34b9f160241b828402059150600b8205016a0c097ce7bc90715b34b9f160241b828402059150600d8205016a0c097ce7bc90715b34b9f160241b828402059150600f82050160020295945050505050565b5f80670de0b6b3a76400008312156124ed57826a0c097ce7bc90715b34b9f160241b816124e5576124e5613da3565b059250600190505b5f775803bcc5cb9634ba4cfb2213f784019318ed4dcb6017880f60361b84126125375772195e54c5dd42177f53a27172fa9ec63026282760241b840593506806f05b59d3b2000000015b6f8bcc0026baae9e45e470190267a230cf60191b841261256e576b1425982cf597cd205cef7380840593506803782dace9d9000000015b606493840293026e01855144814a7ff805980ff008400084126125b6576e01855144814a7ff805980ff008400068056bc75e2d63100000850205935068ad78ebc5ac62000000015b6b02df0ab5a80a22c61ab5a70084126125f1576b02df0ab5a80a22c61ab5a70068056bc75e2d6310000085020593506856bc75e2d631000000015b693f1fce3da636ea5cf850841261262857693f1fce3da636ea5cf85068056bc75e2d631000008502059350682b5e3af16b18800000015b690127fa27722cc06cc5e2841261265f57690127fa27722cc06cc5e268056bc75e2d6310000085020593506815af1d78b58c400000015b68280e60114edb805d0384126126945768280e60114edb805d0368056bc75e2d631000008502059350680ad78ebc5ac6200000015b680ebc5fb4174612111084126126bf57680ebc5fb4174612111068056bc75e2d631000009485020593015b6808f00f760a4b2db55d84126126f4576808f00f760a4b2db55d68056bc75e2d6310000085020593506802b5e3af16b1880000015b6806f5f17757889379378412612729576806f5f177578893793768056bc75e2d63100000850205935068015af1d78b58c40000015b6806248f33704b286603841261275d576806248f33704b28660368056bc75e2d63100000850205935067ad78ebc5ac620000015b6805c548670b9510e7ac8412612791576805c548670b9510e7ac68056bc75e2d6310000085020593506756bc75e2d6310000015b5f68056bc75e2d63100000850168056bc75e2d6310000080870302816127b9576127b9613da3565b0590505f68056bc75e2d63100000828002059050818068056bc75e2d63100000818402059150600382050168056bc75e2d63100000828402059150600582050168056bc75e2d63100000828402059150600782050168056bc75e2d63100000828402059150600982050168056bc75e2d63100000828402059150600b8205016002025f60648683010590508661284f5780612853565b805f035b9998505050505050505050565b5f680238fd42c5cf03ffff198212158015612884575068070c1cc73b00c800008213155b6128a15760405163d4794efd60e01b815260040160405180910390fd5b5f808312156128b457825f039250600190505b5f6806f05b59d3b200000084126128f157506806f05b59d3b1ffffff199092019172195e54c5dd42177f53a27172fa9ec63026282760241b612927565b6803782dace9d9000000841261292357506803782dace9d8ffffff19909201916b1425982cf597cd205cef7380612927565b5060015b6064939093029268056bc75e2d6310000068ad78ebc5ac6200000085126129775768ad78ebc5ac61ffffff199094019368056bc75e2d631000006e01855144814a7ff805980ff008400082020590505b6856bc75e2d63100000085126129b3576856bc75e2d630ffffff199094019368056bc75e2d631000006b02df0ab5a80a22c61ab5a70082020590505b682b5e3af16b1880000085126129ed57682b5e3af16b187fffff199094019368056bc75e2d63100000693f1fce3da636ea5cf85082020590505b6815af1d78b58c4000008512612a27576815af1d78b58c3fffff199094019368056bc75e2d63100000690127fa27722cc06cc5e282020590505b680ad78ebc5ac62000008512612a6057680ad78ebc5ac61fffff199094019368056bc75e2d6310000068280e60114edb805d0382020590505b68056bc75e2d631000008512612a995768056bc75e2d630fffff199094019368056bc75e2d63100000680ebc5fb4174612111082020590505b6802b5e3af16b18800008512612ad2576802b5e3af16b187ffff199094019368056bc75e2d631000006808f00f760a4b2db55d82020590505b68015af1d78b58c400008512612b0b5768015af1d78b58c3ffff199094019368056bc75e2d631000006806f5f177578893793782020590505b68056bc75e2d631000008581019086906002908280020505918201919050600368056bc75e2d631000008883020505918201919050600468056bc75e2d631000008883020505918201919050600568056bc75e2d631000008883020505918201919050600668056bc75e2d631000008883020505918201919050600768056bc75e2d631000008883020505918201919050600868056bc75e2d631000008883020505918201919050600968056bc75e2d631000008883020505918201919050600a68056bc75e2d631000008883020505918201919050600b68056bc75e2d631000008883020505918201919050600c68056bc75e2d6310000088830205059182019190505f606468056bc75e2d6310000085850205860205905085612c305780612c4f565b806a0c097ce7bc90715b34b9f160241b81612c4d57612c4d613da3565b055b98975050505050505050565b611549613df2565b6001600160a01b03169052565b6001600160a01b0391909116815260200190565b5f60208284031215612c94575f5ffd5b81356001600160401b03811115612ca9575f5ffd5b82016101808185031215612cbb575f5ffd5b9392505050565b6001600160a01b0381168114612cd6575f5ffd5b50565b8035612ce481612cc2565b919050565b803560048110612ce4575f5ffd5b634e487b7160e01b5f52604160045260245ffd5b60405161014081016001600160401b0381118282101715612d2e57612d2e612cf7565b60405290565b604051606081016001600160401b0381118282101715612d2e57612d2e612cf7565b604051601f8201601f191681016001600160401b0381118282101715612d7e57612d7e612cf7565b604052919050565b5f6001600160401b03821115612d9e57612d9e612cf7565b5060051b60200190565b5f82601f830112612db7575f5ffd5b8135612dca612dc582612d86565b612d56565b8082825260208201915060208360051b860101925085831115612deb575f5ffd5b602085015b83811015612e08578035835260209283019201612df0565b5095945050505050565b5f82601f830112612e21575f5ffd5b81356001600160401b03811115612e3a57612e3a612cf7565b612e4d601f8201601f1916602001612d56565b818152846020838601011115612e61575f5ffd5b816020850160208301375f918101602001919091529392505050565b5f5f5f5f5f5f5f5f610100898b031215612e95575f5ffd5b612e9e89612cd9565b9750612eac60208a01612cd9565b9650612eba60408a01612ce9565b95506060890135945060808901356001600160401b03811115612edb575f5ffd5b612ee78b828c01612da8565b94505060a08901356001600160401b03811115612f02575f5ffd5b612f0e8b828c01612da8565b93505060c08901356001600160401b03811115612f29575f5ffd5b612f358b828c01612da8565b92505060e08901356001600160401b03811115612f50575f5ffd5b612f5c8b828c01612e12565b9150509295985092959890939650565b5f8151808452602084019350602083015f5b82811015612f9c578151865260209586019590910190600101612f7e565b5093949350505050565b8215158152604060208201525f610b336040830184612f6c565b602081525f82516102406020840152612fdd610260840182612f6c565b90506020840151601f19848303016040850152612ffa8282612f6c565b9150506040840151606084015260608401516080840152608084015160a084015260a0840151601f198483030160c08501526130368282612f6c565b91505060c084015160e084015260e08401516101008401526101008401516101208401526101208401516101408401526101408401516101608401526101608401516101808401526101808401516101a08401526101a08401516130a36101c085018263ffffffff169052565b506101c084015163ffffffff81166101e0850152506101e08401518015156102008501525061020084015180151561022085015250610220840151801515610240850152509392505050565b5f5f5f60608486031215613101575f5ffd5b83356001600160401b03811115613116575f5ffd5b61312286828701612da8565b9350506020840135915060408401356001600160401b03811115613144575f5ffd5b61315086828701612e12565b9150509250925092565b5f60e0828403121561316a575f5ffd5b50919050565b5f5f60408385031215613181575f5ffd5b82356001600160401b03811115613196575f5ffd5b6131a28582860161315a565b92505060208301356131b381612cc2565b809150509250929050565b5f8151808452602084019350602083015f5b82811015612f9c5781516001600160a01b03168652602095860195909101906001016131d0565b602081525f825161024060208401526132146102608401826131be565b90506020840151601f198483030160408501526132318282612f6c565b9150506040840151613247606085018215159052565b506060840151801515608085015250608084015160a084015260a084015160c084015260c084015160e084015260e08401516101008401526101008401516101208401526101208401516101408401526101408401516101608401526101608401516132b7610180850182612c63565b506101808401516101a08401526101a08401516101c08401526101c08401516101e08401526101e08401516102008401526102008401516102208401526102208401516102408401528091505092915050565b803560058110612ce4575f5ffd5b5f5f5f5f5f5f5f5f610100898b031215613330575f5ffd5b61333989612cd9565b975061334760208a01612cd9565b965061335560408a0161330a565b955060608901356001600160401b0381111561336f575f5ffd5b61337b8b828c01612da8565b95505060808901356001600160401b03811115613396575f5ffd5b6133a28b828c01612da8565b94505060a0890135925060c08901356001600160401b03811115612f29575f5ffd5b5f5f5f606084860312156133d6575f5ffd5b83356001600160401b038111156133eb575f5ffd5b6133f78682870161315a565b935050602084013561340881612cc2565b929592945050506040919091013590565b60028110612cd6575f5ffd5b8035612ce481613419565b634e487b7160e01b5f52602160045260245ffd5b6002811061345457613454613430565b9052565b5f5f8335601e1984360301811261346d575f5ffd5b83016020810192503590506001600160401b0381111561348b575f5ffd5b803603821315613499575f5ffd5b9250929050565b81835281816020850137505f828201602090810191909152601f909101601f19169091010190565b602081526134e1602082016134dc84613425565b613444565b5f6134ee60208401612cd9565b6134fb6040840182612c63565b5061350860408401612cd9565b6135156060840182612c63565b50606083013560808381019190915283013560a08084019190915283013560c08084019190915283013560e080840191909152830135610100808401919091528301356101208084019190915261356d908401612cd9565b61357b610140840182612c63565b506135896101408401612cd9565b613597610160840182612c63565b506135a6610160840184613458565b61018080850152611ddf6101a0850182846134a0565b80518015158114612ce4575f5ffd5b5f5f604083850312156135dc575f5ffd5b6135e5836135bc565b6020939093015192949293505050565b5f81518084528060208401602086015e5f602082860101526020601f19601f83011685010191505092915050565b6001600160a01b038981168252881660208201525f6004881061364857613648613430565b876040830152866060830152610100608083015261366a610100830187612f6c565b82810360a084015261367c8187612f6c565b905082810360c08401526136908186612f6c565b905082810360e08401526136a481856135f5565b9b9a5050505050505050505050565b5f82601f8301126136c2575f5ffd5b81516136d0612dc582612d86565b8082825260208201915060208360051b8601019250858311156136f1575f5ffd5b602085015b83811015612e085780518352602092830192016136f6565b5f5f6040838503121561371f575f5ffd5b613728836135bc565b60208401519092506001600160401b03811115613743575f5ffd5b61374f858286016136b3565b9150509250929050565b5f60208284031215613769575f5ffd5b81516001600160401b0381111561377e575f5ffd5b610b33848285016136b3565b5f5f6040838503121561379b575f5ffd5b82516001600160401b038111156137b0575f5ffd5b6137bc858286016136b3565b602085015190935090506001600160401b03811115613743575f5ffd5b5f602082840312156137e9575f5ffd5b5051919050565b5f60808284031215613800575f5ffd5b604051608081016001600160401b038111828210171561382257613822612cf7565b604052905080613831836135bc565b815261383f602084016135bc565b6020820152613850604084016135bc565b6040820152613861606084016135bc565b60608201525092915050565b805164ffffffffff81168114612ce4575f5ffd5b805163ffffffff81168114612ce4575f5ffd5b5f6101a08284031280156138a6575f5ffd5b506138af612d0b565b6138b984846137f0565b81526080830151602082015260a0830151604082015260c083015160608201526138e560e0840161386d565b60808201526138f76101008401613881565b60a082015261390961012084016135bc565b60c082015261391b61014084016135bc565b60e082015261392d61016084016135bc565b61010082015261394061018084016135bc565b6101208201529392505050565b606081525f61395f6060830186612f6c565b8460208401528281036040840152611a7e81856135f5565b5f60208284031215613987575f5ffd5b610c24826135bc565b8183525f6001600160fb1b038311156139a7575f5ffd5b8260051b80836020870137939093016020019392505050565b5f81356139cc81613419565b6139d68482613444565b5060208281013590840152604082013536839003601e190181126139f8575f5ffd5b82016020810190356001600160401b03811115613a13575f5ffd5b8060051b3603821315613a24575f5ffd5b60e06040860152613a3960e086018284613990565b60608581013590870152608080860135908701529150613a5d905060a08401612cd9565b613a6a60a0860182612c63565b50613a7860c0840184613458565b85830360c0870152611a7e8382846134a0565b604081525f613a9d60408301856139c0565b905060018060a01b03831660208301529392505050565b5f82601f830112613ac3575f5ffd5b8151613ad1612dc582612d86565b8082825260208201915060208360051b860101925085831115613af2575f5ffd5b602085015b83811015612e08578051613b0a81612cc2565b835260209283019201613af7565b5f60208284031215613b28575f5ffd5b81516001600160401b03811115613b3d575f5ffd5b610b3384828501613ab4565b5f5f5f5f60808587031215613b5c575f5ffd5b84516001600160401b03811115613b71575f5ffd5b613b7d87828801613ab4565b602087015190955090506001600160401b03811115613b9a575f5ffd5b8501601f81018713613baa575f5ffd5b8051613bb8612dc582612d86565b80828252602082019150602060608402850101925089831115613bd9575f5ffd5b6020840193505b82841015613c44576060848b031215613bf7575f5ffd5b613bff612d34565b8451613c0a81613419565b81526020850151613c1a81612cc2565b6020820152613c2b604086016135bc565b6040820152825260609390930192602090910190613be0565b6040890151909650925050506001600160401b03811115613c63575f5ffd5b613c6f878288016136b3565b606087015190935090506001600160401b03811115613c8c575f5ffd5b613c98878288016136b3565b91505092959194509250565b6001600160a01b038981168252881660208201525f60058810613cc957613cc9613430565b8760408301526101006060830152613ce5610100830188612f6c565b8281036080840152613cf78188612f6c565b90508560a084015282810360c08401526136908186612f6c565b606081525f613d2360608301866139c0565b6001600160a01b039490941660208301525060400152919050565b634e487b7160e01b5f52603260045260245ffd5b634e487b7160e01b5f52601160045260245ffd5b80820180821115610c2757610c27613d52565b81810381811115610c2757610c27613d52565b8082028115828204841417610c2757610c27613d52565b634e487b7160e01b5f52601260045260245ffd5b5f82613dd157634e487b7160e01b5f52601260045260245ffd5b500490565b63ffffffff8281168282160390811115610c2757610c27613d52565b634e487b7160e01b5f52605160045260245ffdfea2646970667358221220261b965f69fa42c4c30d45a1660cacde7ced69fe139afd63abf6424a052afd5264736f6c634300081e0033610280604052348015610010575f5ffd5b50604051616b57380380616b5783398101604081905261002f916103f5565b8360400151833381816001600160a01b03165f1b8088898b5f01518c602001518282604051806040016040528060018152602001603160f81b815250816003908161007a91906105c9565b50600461008782826105c9565b5081516020928301206101805280519101206101a0526001600160a01b03166101c05260066100b683826105c9565b5060076100c382826105c9565b5050506001600160a01b039182166101e052506102009190915282166100fc57604051630647140b60e51b815260040160405180910390fd5b506001600160a01b03166102205250610116905081610267565b506101486040518060a001604052805f81526020015f81526020015f81526020015f151581526020015f151581525090565b60a0850151815260c0850151602082015260e0850151604082015261016c81610277565b306001600160a01b0316836001600160a01b03166316f0115b6040518163ffffffff1660e01b8152600401602060405180830381865afa1580156101b2573d5f5f3e3d5ffd5b505050506040513d601f19601f820116820180604052508101906101d69190610683565b6001600160a01b0316146101fd5760405163e3c533f560e01b815260040160405180910390fd5b506001600160a01b039182166102605260a080850151608090815260c08087015190925260e08087015190925260608601519091528401516001600160401b03166101009081528401511515610120908152909301511515610140529190911661016052506106a5565b600861027382826105c9565b5050565b8051158061028757506020810151155b8061029457506040810151155b806102a3575080516040820151105b806102b5575080602001518160400151115b806102c557506020810151815110155b156102e3576040516359e6ae3360e11b815260040160405180910390fd5b50565b634e487b7160e01b5f52604160045260245ffd5b60405161014081016001600160401b038111828210171561031d5761031d6102e6565b60405290565b5f82601f830112610332575f5ffd5b81516001600160401b0381111561034b5761034b6102e6565b604051601f8201601f19908116603f011681016001600160401b0381118282101715610379576103796102e6565b604052818152838201602001851015610390575f5ffd5b8160208501602083015e5f918101602001919091529392505050565b80516001600160401b03811681146103c2575f5ffd5b919050565b805180151581146103c2575f5ffd5b6001600160a01b03811681146102e3575f5ffd5b80516103c2816103d6565b5f5f5f5f60808587031215610408575f5ffd5b84516001600160401b0381111561041d575f5ffd5b8501610140818803121561042f575f5ffd5b6104376102fa565b81516001600160401b0381111561044c575f5ffd5b61045889828501610323565b82525060208201516001600160401b03811115610473575f5ffd5b61047f89828501610323565b60208301525060408201516001600160401b0381111561049d575f5ffd5b6104a989828501610323565b604083015250606082810151908201526104c5608083016103ac565b608082015260a0828101519082015260c0808301519082015260e080830151908201526104f561010083016103c7565b61010082015261050861012083016103c7565b610120820152945061051e9050602086016103ea565b925061052c604086016103ea565b915061053a606086016103ea565b905092959194509250565b600181811c9082168061055957607f821691505b60208210810361057757634e487b7160e01b5f52602260045260245ffd5b50919050565b601f8211156105c457805f5260205f20601f840160051c810160208510156105a25750805b601f840160051c820191505b818110156105c1575f81556001016105ae565b50505b505050565b81516001600160401b038111156105e2576105e26102e6565b6105f6816105f08454610545565b8461057d565b6020601f821160018114610628575f83156106115750848201515b5f19600385901b1c1916600184901b1784556105c1565b5f84815260208120601f198516915b828110156106575787850151825560209485019460019092019101610637565b508482101561067457868401515f19600387901b60f8161c191681555b50505050600190811b01905550565b5f60208284031215610693575f5ffd5b815161069e816103d6565b9392505050565b60805160a05160c05160e05161010051610120516101405161016051610180516101a0516101c0516101e051610200516102205161024051610260516162f961085e5f395f61229801525f50505f81816107bc0152818161147e015281816119d001528181611acc015261377401525f61138701525f81816112a30152818161169701528181611715015281816117c80152611a8b01525f818161091401528181610ae001528181610e1d01528181610f220152818161116d015281816113ea015281816116440152818161186001528181611ced01528181611ebe01528181611f37015281816122ef01528181612386015281816124e00152818161252501528181612aa001528181612bba01528181612d6501528181612eb601528181612fd7015281816130dd01528181613479015261362501525f61318801525f61316001525f81816109e001528181610a2701528181610d1901528181610d5d01528181610ff80152818161103c015281816119360152818161197a01528181611dc50152611df401525f61263201525f6125fb01525f610ceb01525f610cc101525f6126dc01525f6126a501525f61266e01526162f95ff3fe608060405260043610610210575f3560e01c806301ffc9a7146102575780630673d09a1461029c57806306fdde03146102bb578063095ea7b3146102dc5780630b89f182146102fb57806316a0b3e01461031a57806318160ddd146103475780631c149e281461035b57806323b872dd1461037a57806323de665114610399578063273c1adf146103b857806329e8fb05146103ca57806330adf81f146103eb578063313ce5671461040b5780633644e5151461042657806345421ec71461043a57806354fd4d50146104595780635687f2b81461046d578063627cdcb91461048c578063654cf15d146104a0578063679aefce146104ba57806370a08231146104ce57806372c98186146104ed5780637ecebe001461050c57806381fa807c1461052b57806384b0196e1461054d578063851c1bb3146105745780638d928af81461059357806395d89b41146105a7578063984de9e8146105bb578063a6d2e718146105da578063a9059cbb146105f9578063aa6ca80814610618578063abb1dc4414610639578063b156aa0a1461065d578063b677fa56146103b8578063ba5f9f401461067e578063c66dbc4b1461069d578063ce20ece7146106bc578063d335b0cf146106d4578063d4a5b63a146106e8578063d505accf146106fc578063d77153a71461071b578063dd62ed3e1461073c578063dfba38181461075b578063e45801da1461076f5761022e565b3661022e57604051637911c44b60e11b815260040160405180910390fd5b341561024d57604051637911c44b60e11b815260040160405180910390fd5b61025561078e565b005b348015610262575f5ffd5b50610287610271366004614d19565b6001600160e01b0319166301ffc9a760e01b1490565b60405190151581526020015b60405180910390f35b3480156102a7575f5ffd5b506102556102b6366004614d40565b6107a0565b3480156102c6575f5ffd5b506102cf61086b565b6040516102939190614d85565b3480156102e7575f5ffd5b506102876102f6366004614dbb565b6108fb565b348015610306575f5ffd5b50610287610315366004614f14565b610999565b348015610325575f5ffd5b506103396103343660046150a4565b610aad565b604051908152602001610293565b348015610352575f5ffd5b50610339610ac7565b348015610366575f5ffd5b50610287610375366004615158565b610b59565b348015610385575f5ffd5b506102876103943660046151bb565b610de7565b3480156103a4575f5ffd5b506102556103b33660046151bb565b610e94565b3480156103c3575f5ffd5b505f610339565b3480156103d5575f5ffd5b506103de610eee565b60405161029391906151f9565b3480156103f6575f5ffd5b506103395f5160206162a45f395f51905f5281565b348015610416575f5ffd5b5060405160128152602001610293565b348015610431575f5ffd5b50610339610ef7565b348015610445575f5ffd5b5061028761045436600461521b565b610f00565b348015610464575f5ffd5b506102cf6110d5565b348015610478575f5ffd5b506102556104873660046151bb565b6110e4565b348015610497575f5ffd5b50610255611131565b3480156104ab575f5ffd5b5067016345785d8a0000610339565b3480156104c5575f5ffd5b5061033961113a565b3480156104d9575f5ffd5b506103396104e83660046152e2565b611154565b3480156104f8575f5ffd5b506103396105073660046152fd565b6111e3565b348015610517575f5ffd5b506103396105263660046152e2565b611281565b348015610536575f5ffd5b5061053f61129e565b6040516102939291906153d1565b348015610558575f5ffd5b50610561611342565b6040516102939796959493929190615419565b34801561057f575f5ffd5b5061033961058e366004614d19565b611384565b34801561059e575f5ffd5b506103de6113e8565b3480156105b2575f5ffd5b506102cf61140c565b3480156105c6575f5ffd5b506103396105d5366004615488565b61141b565b3480156105e5575f5ffd5b506103396105f43660046154d6565b611471565b348015610604575f5ffd5b50610287610613366004614dbb565b61162b565b348015610623575f5ffd5b5061062c61167d565b6040516102939190615538565b348015610644575f5ffd5b5061064d61170d565b6040516102939493929190615572565b348015610668575f5ffd5b506106716117ae565b6040516102939190615613565b348015610689575f5ffd5b50610287610698366004615633565b61183e565b3480156106a8575f5ffd5b506103396106b7366004614d40565b6119bb565b3480156106c7575f5ffd5b506509184e72a000610339565b3480156106df575f5ffd5b50610339611a72565b3480156106f3575f5ffd5b50610255611ac0565b348015610707575f5ffd5b506102556107163660046156c6565b611bf6565b348015610726575f5ffd5b5061072f611d73565b6040516102939190615732565b348015610747575f5ffd5b506103396107563660046157fb565b611e8f565b348015610766575f5ffd5b50610287611f29565b34801561077a575f5ffd5b50610671610789366004614dbb565b611f32565b61079e610799612296565b6122ba565b565b6107a86122d8565b6107b0612384565b6107b8612422565b305f7f00000000000000000000000000000000000000000000000000000000000000006001600160a01b031663e9ddeb26836040518263ffffffff1660e01b815260040161080691906151f9565b606060405180830381865afa158015610821573d5f5f3e3d5ffd5b505050506040513d601f19601f820116820180604052508101906108459190615827565b602001519050610855828261244a565b61085e836124c4565b5050610868612422565b50565b60606006805461087a9061587b565b80601f01602080910402602001604051908101604052809291908181526020018280546108a69061587b565b80156108f15780601f106108c8576101008083540402835291602001916108f1565b820191905f5260205f20905b8154815290600101906020018083116108d457829003601f168201915b5050505050905090565b60405163e1f21c6760e01b81525f906001600160a01b037f0000000000000000000000000000000000000000000000000000000000000000169063e1f21c679061094d903390879087906004016158ad565b6020604051808303815f875af1158015610969573d5f5f3e3d5ffd5b505050506040513d601f19601f8201168201806040525081019061098d91906158dc565b50600190505b92915050565b5f6109a26124d5565b825160021480156109bb57506109bb60208301836158f7565b80156109d457506109d260808301606084016158f7565b155b9050808015610a0b57507f00000000000000000000000000000000000000000000000000000000000000006001600160a01b031615155b15610aa5576040516305c4f8c160e11b81526001600160a01b037f00000000000000000000000000000000000000000000000000000000000000001690630b89f18290610a62908890889088908890600401615966565b6020604051808303815f875af1158015610a7e573d5f5f3e3d5ffd5b505050506040513d601f19601f82011682018060405250810190610aa291906158dc565b90505b949350505050565b5f60405163d623472560e01b815260040160405180910390fd5b6040516339370aa960e21b81525f906001600160a01b037f0000000000000000000000000000000000000000000000000000000000000000169063e4dc2aa490610b159030906004016151f9565b602060405180830381865afa158015610b30573d5f5f3e3d5ffd5b505050506040513d601f19601f82011682018060405250810190610b549190615a0f565b905090565b5f610b626124d5565b610ba96040518061012001604052805f81526020015f81526020015f81526020015f81526020015f8152602001606081526020015f81526020015f81526020015f81525090565b610bb1612520565b60208301819052818352610bc591906125f6565b608084018190526060840182905260408401839052610be5929190612713565b61010085015260e084015260c083015260a08201819052610c0790859061285d565b5f610c518260a001515f81518110610c2157610c21615a26565b6020026020010151865f81518110610c3b57610c3b615a26565b602002602001015161292590919063ffffffff16565b90505f610c6b828460c0015161294590919063ffffffff16565b90505f610c85838560e0015161294590919063ffffffff16565b9050610ca1878560400151866060015187608001518686612965565b610cab8282612a15565b610cbb8461010001514242612b34565b50610ce57f0000000000000000000000000000000000000000000000000000000000000000612e0b565b50610d0f7f0000000000000000000000000000000000000000000000000000000000000000612f55565b610d1761306b565b7f00000000000000000000000000000000000000000000000000000000000000006001600160a01b031615610dd95760405163038293c560e31b81526001600160a01b037f00000000000000000000000000000000000000000000000000000000000000001690631c149e2890610d94908a908a90600401615a3a565b6020604051808303815f875af1158015610db0573d5f5f3e3d5ffd5b505050506040513d601f19601f82011682018060405250810190610dd491906158dc565b610ddc565b60015b979650505050505050565b604051630aed65f560e11b81523360048201526001600160a01b0384811660248301528381166044830152606482018390525f917f0000000000000000000000000000000000000000000000000000000000000000909116906315dacbea906084016020604051808303815f875af1158015610e65573d5f5f3e3d5ffd5b505050506040513d601f19601f82011682018060405250810190610e8991906158dc565b506001949350505050565b610e9c6124d5565b816001600160a01b0316836001600160a01b03167fddf252ad1be2c89b69c2b068fc378daa952ba7f163c4a11628f55a4df523b3ef83604051610ee191815260200190565b60405180910390a3505050565b5f610b54612296565b5f610b54613130565b5f610f096124d5565b6040516339370aa960e21b81525f906001600160a01b037f0000000000000000000000000000000000000000000000000000000000000000169063e4dc2aa490610f57908b906004016151f9565b602060405180830381865afa158015610f72573d5f5f3e3d5ffd5b505050506040513d601f19601f82011682018060405250810190610f969190615a0f565b90505f610fa38287615a72565b90505f5f610fb0876131d8565b50909250905083610fc18484615a85565b610fcb9190615ab0565b915083610fd88483615a85565b610fe29190615ab0565b9050610fee8282612a15565b610ff661306b565b7f00000000000000000000000000000000000000000000000000000000000000006001600160a01b0316156110c2576040516345421ec760e01b81526001600160a01b037f000000000000000000000000000000000000000000000000000000000000000016906345421ec79061107d908f908f908f908f908f908f908f90600401615acf565b6020604051808303815f875af1158015611099573d5f5f3e3d5ffd5b505050506040513d601f19601f820116820180604052508101906110bd91906158dc565b6110c5565b60015b9c9b505050505050505050505050565b60606008805461087a9061587b565b6110ec6124d5565b816001600160a01b0316836001600160a01b03167f8c5be1e5ebec7d5bd14f71427d1e84f3dd0314c0f7b2291e5b200ac8c7c3b92583604051610ee191815260200190565b61086833613237565b5f6040516356b7fcdb60e01b815260040160405180910390fd5b604051633de222bb60e21b81525f906001600160a01b037f0000000000000000000000000000000000000000000000000000000000000000169063f7888aec906111a49030908690600401615b3a565b602060405180830381865afa1580156111bf573d5f5f3e3d5ffd5b505050506040513d601f19601f820116820180604052508101906109939190615a0f565b5f6111ec6124d5565b5f5f5f6111fc85604001516131d8565b9250925092508015611212576112128383612a15565b61121a61306b565b5f8551600181111561122e5761122e61554a565b036112585761125185604001518484886060015189608001518a60200151613259565b9350611279565b61127685604001518484886060015189608001518a60200151613322565b93505b505050919050565b6001600160a01b0381165f90815260056020526040812054610993565b5f5f5f7f00000000000000000000000000000000000000000000000000000000000000006001600160a01b031663f29486a1306040518263ffffffff1660e01b81526004016112ed91906151f9565b6101a060405180830381865afa158015611309573d5f5f3e3d5ffd5b505050506040513d601f19601f8201168201806040525081019061132d9190615be1565b90508060400151925080606001519150509091565b5f6060805f5f5f60606113536133de565b61135b6133ed565b604080515f80825260208201909252600f60f81b9b939a50919850469750309650945092509050565b5f7f0000000000000000000000000000000000000000000000000000000000000000826040516020016113cb9291909182526001600160e01b031916602082015260240190565b604051602081830303815290604052805190602001209050919050565b7f000000000000000000000000000000000000000000000000000000000000000090565b60606007805461087a9061587b565b6002546001545f9161146a9185916001600160801b0380821692600160801b909204811691600160201b81049091169063ffffffff811690600160a01b90046001600160401b031687896133fc565b9392505050565b5f61147a6122d8565b305f7f00000000000000000000000000000000000000000000000000000000000000006001600160a01b031663e9ddeb26836040518263ffffffff1660e01b81526004016114c891906151f9565b606060405180830381865afa1580156114e3573d5f5f3e3d5ffd5b505050506040513d601f19601f820116820180604052508101906115079190615827565b602001519050611517828261244a565b611521858561342e565b92505f61152e8486615c9a565b905062015180811015611554576040516319f8e85560e11b815260040160405180910390fd5b61155c613460565b5f611568888688612b34565b90505f8189101561157b5788820361157f565b8189035b9050620f42408110156115ad5760405163119d853760e21b8152600481018290526024015b60405180910390fd5b5f828a116115d9576115d46115c58462015180615a85565b6115cf868d615a85565b613524565b6115f3565b6115f36115e98b62015180615a85565b6115cf8686615a85565b9050671bc16d674ec8000081111561161e57604051632b85f91760e11b815260040160405180910390fd5b5050505050509392505050565b6040516317d5759960e31b81525f906001600160a01b037f0000000000000000000000000000000000000000000000000000000000000000169063beabacc89061094d903390879087906004016158ad565b60405163ca4f280360e01b81526060906001600160a01b037f0000000000000000000000000000000000000000000000000000000000000000169063ca4f2803906116cc9030906004016151f9565b5f60405180830381865afa1580156116e6573d5f5f3e3d5ffd5b505050506040513d5f823e601f3d908101601f19168201604052610b549190810190615d11565b6060806060807f00000000000000000000000000000000000000000000000000000000000000006001600160a01b03166367e0e076306040518263ffffffff1660e01b815260040161175f91906151f9565b5f60405180830381865afa158015611779573d5f5f3e3d5ffd5b505050506040513d5f823e601f3d908101601f191682016040526117a09190810190615d9d565b935093509350935090919293565b6040516329ae7ec560e11b81526060906001600160a01b037f0000000000000000000000000000000000000000000000000000000000000000169063535cfd8a906117fd9030906004016151f9565b5f60405180830381865afa158015611817573d5f5f3e3d5ffd5b505050506040513d5f823e601f3d908101601f19168201604052610b549190810190615efa565b5f6118476124d5565b6040516339370aa960e21b81525f906001600160a01b037f0000000000000000000000000000000000000000000000000000000000000000169063e4dc2aa490611895908b906004016151f9565b602060405180830381865afa1580156118b0573d5f5f3e3d5ffd5b505050506040513d601f19601f820116820180604052508101906118d49190615a0f565b90505f6118e18783615c9a565b90505f5f6118ee876131d8565b509092509050836118ff8484615a85565b6119099190615ab0565b9150836119168483615a85565b6119209190615ab0565b905061192c8282612a15565b61193461306b565b7f00000000000000000000000000000000000000000000000000000000000000006001600160a01b0316156110c2576040516302e97e7d60e61b81526001600160a01b037f0000000000000000000000000000000000000000000000000000000000000000169063ba5f9f409061107d908f908f908f908f908f908f908f90600401615f2b565b5f6119c46122d8565b6119cc612384565b305f7f00000000000000000000000000000000000000000000000000000000000000006001600160a01b031663e9ddeb26836040518263ffffffff1660e01b8152600401611a1a91906151f9565b606060405180830381865afa158015611a35573d5f5f3e3d5ffd5b505050506040513d601f19601f82011682018060405250810190611a599190615827565b602001519050611a69828261244a565b610aa584613538565b60405163b45090f960e01b81525f906001600160a01b037f0000000000000000000000000000000000000000000000000000000000000000169063b45090f990610b159030906004016151f9565b611ac86122d8565b305f7f00000000000000000000000000000000000000000000000000000000000000006001600160a01b031663e9ddeb26836040518263ffffffff1660e01b8152600401611b1691906151f9565b606060405180830381865afa158015611b31573d5f5f3e3d5ffd5b505050506040513d601f19601f82011682018060405250810190611b559190615827565b602001519050611b65828261244a565b611b6d613460565b604080516080810182525f546001600160601b038082168352600160601b820416602083015263ffffffff600160c01b8204811693830193909352600160e01b900490911660608201819052421115611bd95760405163771cef4f60e01b815260040160405180910390fd5b5f611be261354a565b9050611bef814242612b34565b5050505050565b83421115611c1a5760405163313c898160e11b8152600481018590526024016115a4565b5f5f5160206162a45f395f51905f52888888611c358c613237565b6040805160208101969096526001600160a01b0394851690860152929091166060840152608083015260a082015260c0810186905260e0016040516020818303038152906040528051906020012090505f611c8f826135e8565b90505f611c9e82878787613614565b9050896001600160a01b0316816001600160a01b031614611cd657808a6040516325c0072360e11b81526004016115a4929190615b3a565b60405163e1f21c6760e01b81526001600160a01b037f0000000000000000000000000000000000000000000000000000000000000000169063e1f21c6790611d26908d908d908d906004016158ad565b6020604051808303815f875af1158015611d42573d5f5f3e3d5ffd5b505050506040513d601f19601f82011682018060405250810190611d6691906158dc565b5050505050505050505050565b60408051610140810182525f80825260208201819052918101829052606081018290526080810182905260a0810182905260c0810182905260e0810182905261010081018290526101208101919091527f00000000000000000000000000000000000000000000000000000000000000006001600160a01b031615611e76577f00000000000000000000000000000000000000000000000000000000000000006001600160a01b031663d77153a76040518163ffffffff1660e01b815260040161014060405180830381865afa158015611e4f573d5f5f3e3d5ffd5b505050506040513d601f19601f82011682018060405250810190611e739190615f82565b90505b60016020820181905260c0820181905261010082015290565b60405163927da10560e01b81523060048201526001600160a01b03838116602483015282811660448301525f917f00000000000000000000000000000000000000000000000000000000000000009091169063927da10590606401602060405180830381865afa158015611f05573d5f5f3e3d5ffd5b505050506040513d601f19601f8201168201806040525081019061146a9190615a0f565b5f610b54613621565b60605f7f00000000000000000000000000000000000000000000000000000000000000006001600160a01b031663ca4f2803306040518263ffffffff1660e01b8152600401611f8191906151f9565b5f60405180830381865afa158015611f9b573d5f5f3e3d5ffd5b505050506040513d5f823e601f3d908101601f19168201604052611fc29190810190615d11565b90505f5f856001600160a01b0316835f81518110611fe257611fe2615a26565b60200260200101516001600160a01b0316146120005760015f612004565b5f60015b9150915060018214801561204457508260018151811061202657612026615a26565b60200260200101516001600160a01b0316866001600160a01b031614155b156120625760405163c1ab6dc160e01b815260040160405180910390fd5b5f5f61206c612520565b915091505f61207b83836136f3565b90505f5f8a6001600160a01b0316885f8151811061209b5761209b615a26565b60200260200101516001600160a01b0316146120b85783856120bb565b84845b915091505f8888815181106120d2576120d2615a26565b60200260200101516001600160a01b031663313ce5676040518163ffffffff1660e01b8152600401602060405180830381865afa158015612115573d5f5f3e3d5ffd5b505050506040513d601f19601f82011682018060405250810190612139919061603f565b90505f89888151811061214e5761214e615a26565b60200260200101516001600160a01b031663313ce5676040518163ffffffff1660e01b8152600401602060405180830381865afa158015612191573d5f5f3e3d5ffd5b505050506040513d601f19601f820116820180604052508101906121b5919061603f565b90505f6121dc6121c960ff85166012615c9a565b6121d490600a616135565b8e9087613748565b6040805160028082526060820183529293509190602083019080368337019050509b508c8c8b8151811061221257612212615a26565b6020908102919091010152614d118a1561222e57612925612232565b6129455b905061226661224560ff85166012615c9a565b61225090600a616135565b8661225f858b8663ffffffff16565b919061375d565b8d8b8151811061227857612278615a26565b60200260200101818152505050505050505050505050505092915050565b7f000000000000000000000000000000000000000000000000000000000000000090565b365f5f375f5f365f845af43d5f5f3e8080156122d4573d5ff35b3d5ffd5b6040516314cb3b1f60e21b81526001600160a01b037f0000000000000000000000000000000000000000000000000000000000000000169063532cec7c906123249030906004016151f9565b602060405180830381865afa15801561233f573d5f5f3e3d5ffd5b505050506040513d601f19601f8201168201806040525081019061236391906158dc565b15155f0361079e5760405163486aa30760e01b815260040160405180910390fd5b7f00000000000000000000000000000000000000000000000000000000000000006001600160a01b0316638380edb76040518163ffffffff1660e01b8152600401602060405180830381865afa1580156123e0573d5f5f3e3d5ffd5b505050506040513d601f19601f8201168201806040525081019061240491906158dc565b1561079e57604051633915d7f960e21b815260040160405180910390fd5b61242a613621565b15155f0361079e5760405162f656ad60e21b815260040160405180910390fd5b6001600160a01b03811661249b5761247661246f5f356001600160e01b031916611384565b3384613771565b15155f03612497576040516323dada5360e01b815260040160405180910390fd5b5050565b336001600160a01b03821614612497576040516323dada5360e01b815260040160405180910390fd5b6124cc613460565b61086881612f55565b336001600160a01b037f0000000000000000000000000000000000000000000000000000000000000000161461079e573360405163089676d560e01b81526004016115a491906151f9565b5f5f5f7f00000000000000000000000000000000000000000000000000000000000000006001600160a01b03166367e0e076306040518263ffffffff1660e01b815260040161256f91906151f9565b5f60405180830381865afa158015612589573d5f5f3e3d5ffd5b505050506040513d5f823e601f3d908101601f191682016040526125b09190810190615d9d565b50509150506125d7815f815181106125ca576125ca615a26565b602002602001015161386b565b92506125ef816001815181106125ca576125ca615a26565b9150509091565b5f5f5f7f0000000000000000000000000000000000000000000000000000000000000000612624578461262e565b670de0b6b3a76400005b94507f000000000000000000000000000000000000000000000000000000000000000061265b5783612665565b670de0b6b3a76400005b935084612692857f0000000000000000000000000000000000000000000000000000000000000000615a85565b61269c9190615ab0565b9250846126c9857f0000000000000000000000000000000000000000000000000000000000000000615a85565b6126d39190615ab0565b915084612700857f0000000000000000000000000000000000000000000000000000000000000000615a85565b61270a9190615ab0565b90509250925092565b60605f80806127228688612925565b90505f61272e826138d4565b9050612756612745670de0b6b3a764000083615c9a565b69d3c21bcecceda100000090612925565b935061277661276f69d3c21bcecceda100000086615a72565b8990612945565b6040805160028082526060820183529295509190602083019080368337019050509450826127c96127c46127b48769d3c21bcecceda1000000615a72565b6127be8a886138ef565b906138ef565b6138d4565b6127d39190615c9a565b856001815181106127e6576127e6615a26565b6020908102919091010152612835866127ff8682612945565b858860018151811061281357612813615a26565b60200260200101516128259190615a72565b61282f9190615c9a565b90612925565b855f8151811061284757612847615a26565b6020026020010181815250505093509350935093565b5f61288e835f8151811061287357612873615a26565b602002602001015184600181518110610c3b57610c3b615a26565b90505f6128a6835f8151811061287357612873615a26565b90505f6128cb6128c4655af3107a4000670de0b6b3a7640000615c9a565b8390612945565b90505f6128f06128e9655af3107a4000670de0b6b3a7640000615a72565b8490612945565b9050818410806128ff57508084115b1561291d576040516304f512cb60e41b815260040160405180910390fd5b505050505050565b5f80612939670de0b6b3a764000085615a85565b9050610aa58382615ab0565b5f806129518385615a85565b9050610aa5670de0b6b3a764000082615ab0565b5f6129b483885f8151811061297c5761297c615a26565b602002602001015161298e9190615a72565b83896001815181106129a2576129a2615a26565b602002602001015161282f9190615a72565b90506129c0818561391b565b5f6129ce8885856001613982565b90505f816129dc8580615a85565b6129e69190615ab0565b90506129f2818961391b565b5f6129fd8387613a0e565b9050612a09818961391b565b50505050505050505050565b612a1e82613a23565b600280546001600160801b0319166001600160801b0392909216919091179055612a4781613a23565b600280546001600160801b03928316600160801b0292169190911790556040517ff36b0fd05d55ca91fb3ebd8493adf78a3405a11c145c054a092d0994b665b63790612a9690849084906153d1565b60405180910390a17f00000000000000000000000000000000000000000000000000000000000000006001600160a01b031663c80882478383604051602001612ae09291906153d1565b6040516020818303038152906040526040518263ffffffff1660e01b8152600401612b0b9190616140565b5f604051808303815f87803b158015612b22575f5ffd5b505af115801561291d573d5f5f3e3d5ffd5b5f81831180612b4257504283105b15612b6057604051632ca4094f60e21b815260040160405180910390fd5b604080516080810182525f80546001600160601b038082168452600160601b820416602084015263ffffffff600160c01b8204811694840194909452600160e01b9004909216606082015290612bb586613a2d565b90505f7f00000000000000000000000000000000000000000000000000000000000000006001600160a01b031663532cec7c306040518263ffffffff1660e01b8152600401612c0491906151f9565b602060405180830381865afa158015612c1f573d5f5f3e3d5ffd5b505050506040513d601f19601f82011682018060405250810190612c4391906158dc565b15612c6257612c5061354a565b9350612c5b84613a2d565b9050612c68565b50859250805b612c7181613a51565b6001600160601b03168352612c8582613a51565b6001600160601b03166020840152612c9c86613a5b565b63ffffffff166040840152612cb085613a5b565b63ffffffff9081166060850181905284515f805460208801516040808a01516001600160601b039586166001600160c01b031990941693909317600160601b9590921694909402176001600160c01b0316600160c01b91909516026001600160e01b031693909317600160e01b90920291909117909155517fa18562ea402e57cc2b437f8d7a139c6c38958adc1ecbb706ec37a7a64ff6e7a590612d5b90839085908a908a90616171565b60405180910390a17f00000000000000000000000000000000000000000000000000000000000000006001600160a01b031663c808824782848989604051602001612da99493929190616171565b6040516020818303038152906040526040518263ffffffff1660e01b8152600401612dd4919061618c565b5f604051808303815f87803b158015612deb575f5ffd5b505af1158015612dfd573d5f5f3e3d5ffd5b505050505050509392505050565b5f670de0b6b3a7640000821115612e3557604051632b5b4f3560e01b815260040160405180910390fd5b5f612e3f83613a65565b9050612e4a81613a85565b9250612e5581613a23565b600160046101000a8154816001600160801b0302191690836001600160801b031602179055507f7ee46b38be05f748de1c0fb2002ac48fe50a26a0017c654a92c0bf92280588478382604051612eac9291906153d1565b60405180910390a17f00000000000000000000000000000000000000000000000000000000000000006001600160a01b031663c80882478483604051602001612ef69291906153d1565b6040516020818303038152906040526040518263ffffffff1660e01b8152600401612f2191906161bd565b5f604051808303815f87803b158015612f38575f5ffd5b505af1158015612f4a573d5f5f3e3d5ffd5b509495945050505050565b670c7d713b49da0000811115612f7e57604051637304fac760e01b815260040160405180910390fd5b60018054600160a01b600160e01b031916600160a01b6001600160401b038416021790556040518181527f74d468c8e414c37c502176a45cce93c85eaa0abf608e40641dc6664ca5efcab09060200160405180910390a17f00000000000000000000000000000000000000000000000000000000000000006001600160a01b031663c80882478260405160200161301791815260200190565b6040516020818303038152906040526040518263ffffffff1660e01b815260040161304291906161f5565b5f604051808303815f87803b158015613059575f5ffd5b505af1158015611bef573d5f5f3e3d5ffd5b5f61307542613a5b565b6001805463ffffffff191663ffffffff83169081179091556040519081529091507f32a9fd44bdf167703f584bd25098494d3d18a4653a2d97116d28da05209444d49060200160405180910390a16040805163ffffffff831660208201526001600160a01b037f0000000000000000000000000000000000000000000000000000000000000000169163c808824791016040516020818303038152906040526040518263ffffffff1660e01b81526004016130429190616229565b5f610b54604080517f8b73c3c69bb8fe3d512ecc4cf759cc79239f7b179b0ffacaa9a75d522b39400f60208201527f0000000000000000000000000000000000000000000000000000000000000000918101919091527f000000000000000000000000000000000000000000000000000000000000000060608201524660808201523060a08201525f9060c00160405160208183030381529060405280519060200120905090565b6002546001545f918291829161322a9186916001600160801b0380821692600160801b909204811691600160201b81049091169063ffffffff811690600160a01b90046001600160401b031687613aa6565b9196909550909350915050565b6001600160a01b03165f90815260056020526040902080546001810190915590565b5f8080851561326957868861326c565b87875b9150915083828a888151811061328457613284615a26565b60200260200101516132969190615a72565b6132a09190615a72565b84828b88815181106132b4576132b4615a26565b60200260200101516132c69190615a72565b6132d09190615a85565b6132da9190615ab0565b92508885815181106132ee576132ee615a26565b602002602001015183111561331657604051635a09f12960e11b815260040160405180910390fd5b50509695505050505050565b5f86838151811061333557613335615a26565b602002602001015182111561335d57604051635a09f12960e11b815260040160405180910390fd5b5f80851561336c57868861336f565b87875b915091506133d1828a888151811061338957613389615a26565b602002602001015161339b9190615a72565b8586848d8a815181106133b0576133b0615a26565b60200260200101516133c29190615a72565b6133cc9190615c9a565b613be2565b9998505050505050505050565b60606003805461087a9061587b565b60606004805461087a9061587b565b5f5f5f61340e8b8b8b8b8b8b8b613aa6565b509150915061341f8b838387613982565b9b9a5050505050505050505050565b5f6134394284613c27565b9050818111156109935780826040516364bb3b8360e11b81526004016115a49291906153d1565b6040516333f0703b60e11b81525f906001600160a01b037f000000000000000000000000000000000000000000000000000000000000000016906367e0e076906134ae9030906004016151f9565b5f60405180830381865afa1580156134c8573d5f5f3e3d5ffd5b505050506040513d5f823e601f3d908101601f191682016040526134ef9190810190615d9d565b93505050505f5f5f613500846131d8565b9250925092508015613516576135168383612a15565b61351e61306b565b50505050565b5f61146a83670de0b6b3a764000084613be2565b5f613541613460565b61099382612e0b565b5f5f6135546113e8565b6001600160a01b03166367e0e076306040518263ffffffff1660e01b815260040161357f91906151f9565b5f60405180830381865afa158015613599573d5f5f3e3d5ffd5b505050506040513d5f823e601f3d908101601f191682016040526135c09190810190615d9d565b93505050505f5f6135d0836131d8565b50915091506135e0838383613c36565b935050505090565b5f6109936135f4613130565b8360405161190160f01b8152600281019290925260228201526042902090565b5f610aa285858585613c53565b5f5f7f00000000000000000000000000000000000000000000000000000000000000006001600160a01b03166367e0e076306040518263ffffffff1660e01b815260040161366f91906151f9565b5f60405180830381865afa158015613689573d5f5f3e3d5ffd5b505050506040513d5f823e601f3d908101601f191682016040526136b09190810190615d9d565b6002546001549195506136ed94508593506001600160801b038082169350600160801b9091041690600160a01b90046001600160401b0316613c98565b91505090565b5f5f5f5f61370186866125f6565b9250925092505f613713848484612713565b5050509050610ddc815f8151811061372d5761372d615a26565b602002602001015182600181518110610c3b57610c3b615a26565b5f610aa5826137578587615a85565b90612945565b5f610aa58461376c8486615a85565b612925565b5f7f00000000000000000000000000000000000000000000000000000000000000006001600160a01b031663aaabadc56040518163ffffffff1660e01b8152600401602060405180830381865afa1580156137ce573d5f5f3e3d5ffd5b505050506040513d601f19601f820116820180604052508101906137f29190616258565b6040516326f8aa2160e21b8152600481018690526001600160a01b03858116602483015284811660448301529190911690639be2a88490606401602060405180830381865afa158015613847573d5f5f3e3d5ffd5b505050506040513d601f19601f82011682018060405250810190610aa591906158dc565b5f6001825160018111156138815761388161554a565b1461389457670de0b6b3a7640000610993565b81602001516001600160a01b031663679aefce6040518163ffffffff1660e01b8152600401602060405180830381865afa1580156111bf573d5f5f3e3d5ffd5b5f6109936138ea670de0b6b3a764000084615a85565b613cb3565b5f806138fb8385615a85565b90506001670de0b6b3a76400006001830304018115150291505092915050565b5f6139376128c4655af3107a4000670de0b6b3a7640000615c9a565b90505f6139556128e9655af3107a4000670de0b6b3a7640000615a72565b90508184108061396457508084115b1561351e57604051633d9f09df60e21b815260040160405180910390fd5b5f614d11600183600181111561399a5761399a61554a565b146139a7576138ef6139ab565b6129455b9050613a0485875f815181106139c3576139c3615a26565b60200260200101516139d59190615a72565b85886001815181106139e9576139e9615a26565b60200260200101516139fb9190615a72565b8363ffffffff16565b9695505050505050565b5f61146a613a1c8380612945565b8490612925565b5f61099382613d38565b5f610993670de0b6b3a7640000613a476138ea8286615a85565b6138ea9190615a85565b5f61099382613d50565b5f61099382613d64565b5f613a736201e6e983615ab0565b61099390670de0b6b3a7640000615c9a565b5f6201e6e9613a9c83670de0b6b3a7640000615c9a565b6109939190615a85565b5f5f5f5f613ab342613a5b565b90508063ffffffff168763ffffffff1603613ad75789895f93509350935050613bd5565b6040805160808101825286546001600160601b03808216808452600160601b83049091166020840181905263ffffffff600160c01b84048116958501869052600160e01b909304909216606084018190528e98508d975092935f93613b40938793929091613d78565b6001600160601b03169050816040015163ffffffff168363ffffffff16118015613b795750816060015163ffffffff168963ffffffff16105b15613b9457613b8a818e8e8e613e57565b9096509450600193505b50505f5f613ba38d8787613f9e565b91509150876001600160401b0316821015613bd157613bc78d8787848e888f61407e565b9096509450600193505b5050505b9750975097945050505050565b5f815f03613c0357604051630a0c22c760e01b815260040160405180910390fd5b5f613c0e8486615a85565b9050600183600183030401811515029150509392505050565b5f81831082841802831861146a565b5f5f5f613c448686866141fd565b9092509050613a048183613524565b5f604051855f5260ff851660205283604052826060526020600160805f60015afa5191503d613c8957638baa579f5f526004601cfd5b5f606052604052949350505050565b5f5f613ca5868686613f9e565b509092111595945050505050565b5f610993826001600160881b03811160071b81811c6001600160481b031060061b1781811c64ffffffffff1060051b1781811c62ffffff1060041b1781811c620100000160b5600192831c1b0260121c80830401811c80830401811c80830401811c80830401811c80830401811c80830401811c80830401901c908190048111900390565b5f600160801b8210613d4c57613d4c614245565b5090565b5f600160601b8210613d4c57613d4c614245565b5f600160201b8210613d4c57613d4c614245565b5f8163ffffffff168663ffffffff1610613d93575082613e4e565b8263ffffffff168663ffffffff1611613dad575083613e4e565b5f613ddf613dbb8585616273565b63ffffffff16613dcb868a616273565b63ffffffff1661292590919063ffffffff16565b90505f613e15613e0583613dff6001600160601b038a8116908c16612925565b90614252565b6001600160601b03891690612945565b90505f613e34886001600160601b0316886001600160601b031661430d565b9050613e48613e438284613c27565b613a51565b93505050505b95945050505050565b5f5f5f5f613e66878787613f9e565b915091505f5f5f83613e945789600181518110613e8557613e85615a26565b6020026020010151888a613eb1565b895f81518110613ea657613ea6615a26565b602002602001015189895b919450925090505f613ec38c80612945565b90505f613ed8670de0b6b3a764000083615c9a565b613ee3906002615a85565b613f30671bc16d674ec80000613efa856004615a85565b613f04908b615a72565b613f0e9190615c9a565b613f18908a615a85565b6138ea906a0c097ce7bc90715b34b9f160241b615a72565b613f4289670de0b6b3a7640000615a72565b613f4c9190615a72565b613f569087615a85565b613f609190615ab0565b90505f84613f6e8584615a85565b613f789190615ab0565b905086613f86578082613f89565b81815b909f909e509c50505050505050505050505050565b5f5f845f81518110613fb257613fb2615a26565b60200260200101515f03613fca57505f905080614076565b84600181518110613fdd57613fdd615a26565b60200260200101515f03613ff657505f90506001614076565b5f83865f8151811061400a5761400a615a26565b602002602001015161401c9190615a85565b90505f8660018151811061403257614032615a26565b6020026020010151866140459190615a85565b9050808211614062576140588282612925565b93505f9250614073565b61406c8183612925565b9350600192505b50505b935093915050565b5f5f5f61408f6127c48b8b8b613c36565b90505f5f886140d2578b6001815181106140ab576140ab615a26565b60200260200101518c5f815181106140c5576140c5615a26565b6020026020010151614108565b8b5f815181106140e4576140e4615a26565b60200260200101518c6001815181106140ff576140ff615a26565b60200260200101515b915091505f5f8a61411a578b8d61411d565b8c8c5b90925090505f61413f6141308a8c616273565b63ffffffff1662278d0061430d565b90506141606128c4614159670de0b6b3a764000084615a85565b8d90614252565b91506141918261418c670de0b6b3a764000061417b8a6138d4565b6141859190615c9a565b8790612925565b613c27565b9150836141aa83613757670de0b6b3a76400008a615c9a565b6141b49190615c9a565b6141be8584615a72565b6141c89087615a85565b6141d29190615ab0565b92508b6141e05781836141e3565b82825b809850819950505050505050505097509795505050505050565b5f5f5f61420d8686866001613982565b90508061421a8580615a85565b6142249190615ab0565b925061423a6142338680612945565b8290612925565b915050935093915050565b6335278d125f526004601cfd5b5f670de0b6b3a76400008203614269575081610993565b61427c670de0b6b3a76400006002615a85565b82036142935761428c8384612945565b9050610993565b6142a6670de0b6b3a76400006004615a85565b82036142cb575f6142b78485612945565b90506142c38182612945565b915050610993565b5f6142d6848461431c565b90505f6142e5826127106138ef565b6142f0906001615a72565b905080821015614304575f92505050610993565b90039050610993565b5f81831182841802831861146a565b5f815f036143335750670de0b6b3a7640000610993565b825f0361434157505f610993565b60ff83901c15614363576040516211380f60e51b815260040160405180910390fd5b8261437b68056bc75e2d63100000600160fe1b615ab0565b831061439a5760405163d831731160e01b815260040160405180910390fd5b825f670c7d713b49da0000831380156143ba5750670f43fc2c04ee000083125b156143f0575f6143c984614452565b9050670de0b6b3a764000080820784020583670de0b6b3a7640000830502019150506143fe565b816143fa8461456f565b0290505b670de0b6b3a76400009005680238fd42c5cf03ffff19811280159061442c575068070c1cc73b00c800008113155b6144495760405163a2f9f7e360e01b815260040160405180910390fd5b613a0481614916565b670de0b6b3a7640000025f806a0c097ce7bc90715b34b9f160241b808401906ec097ce7bc90715b34b9f0fffffffff198501028161449257614492615a9c565b0590505f6a0c097ce7bc90715b34b9f160241b82800205905081806a0c097ce7bc90715b34b9f160241b81840205915060038205016a0c097ce7bc90715b34b9f160241b82840205915060058205016a0c097ce7bc90715b34b9f160241b82840205915060078205016a0c097ce7bc90715b34b9f160241b82840205915060098205016a0c097ce7bc90715b34b9f160241b828402059150600b8205016a0c097ce7bc90715b34b9f160241b828402059150600d8205016a0c097ce7bc90715b34b9f160241b828402059150600f82050160020295945050505050565b5f80670de0b6b3a76400008312156145a657826a0c097ce7bc90715b34b9f160241b8161459e5761459e615a9c565b059250600190505b5f775803bcc5cb9634ba4cfb2213f784019318ed4dcb6017880f60361b84126145f05772195e54c5dd42177f53a27172fa9ec63026282760241b840593506806f05b59d3b2000000015b6f8bcc0026baae9e45e470190267a230cf60191b8412614627576b1425982cf597cd205cef7380840593506803782dace9d9000000015b606493840293026e01855144814a7ff805980ff0084000841261466f576e01855144814a7ff805980ff008400068056bc75e2d63100000850205935068ad78ebc5ac62000000015b6b02df0ab5a80a22c61ab5a70084126146aa576b02df0ab5a80a22c61ab5a70068056bc75e2d6310000085020593506856bc75e2d631000000015b693f1fce3da636ea5cf85084126146e157693f1fce3da636ea5cf85068056bc75e2d631000008502059350682b5e3af16b18800000015b690127fa27722cc06cc5e2841261471857690127fa27722cc06cc5e268056bc75e2d6310000085020593506815af1d78b58c400000015b68280e60114edb805d03841261474d5768280e60114edb805d0368056bc75e2d631000008502059350680ad78ebc5ac6200000015b680ebc5fb41746121110841261477857680ebc5fb4174612111068056bc75e2d631000009485020593015b6808f00f760a4b2db55d84126147ad576808f00f760a4b2db55d68056bc75e2d6310000085020593506802b5e3af16b1880000015b6806f5f177578893793784126147e2576806f5f177578893793768056bc75e2d63100000850205935068015af1d78b58c40000015b6806248f33704b2866038412614816576806248f33704b28660368056bc75e2d63100000850205935067ad78ebc5ac620000015b6805c548670b9510e7ac841261484a576805c548670b9510e7ac68056bc75e2d6310000085020593506756bc75e2d6310000015b5f68056bc75e2d63100000850168056bc75e2d63100000808703028161487257614872615a9c565b0590505f68056bc75e2d63100000828002059050818068056bc75e2d63100000818402059150600382050168056bc75e2d63100000828402059150600582050168056bc75e2d63100000828402059150600782050168056bc75e2d63100000828402059150600982050168056bc75e2d63100000828402059150600b8205016002025f60648683010590508661490857806133d1565b5f0398975050505050505050565b5f680238fd42c5cf03ffff19821215801561493a575068070c1cc73b00c800008213155b6149575760405163d4794efd60e01b815260040160405180910390fd5b5f8083121561496a57825f039250600190505b5f6806f05b59d3b200000084126149a757506806f05b59d3b1ffffff199092019172195e54c5dd42177f53a27172fa9ec63026282760241b6149dd565b6803782dace9d900000084126149d957506803782dace9d8ffffff19909201916b1425982cf597cd205cef73806149dd565b5060015b6064939093029268056bc75e2d6310000068ad78ebc5ac620000008512614a2d5768ad78ebc5ac61ffffff199094019368056bc75e2d631000006e01855144814a7ff805980ff008400082020590505b6856bc75e2d6310000008512614a69576856bc75e2d630ffffff199094019368056bc75e2d631000006b02df0ab5a80a22c61ab5a70082020590505b682b5e3af16b188000008512614aa357682b5e3af16b187fffff199094019368056bc75e2d63100000693f1fce3da636ea5cf85082020590505b6815af1d78b58c4000008512614add576815af1d78b58c3fffff199094019368056bc75e2d63100000690127fa27722cc06cc5e282020590505b680ad78ebc5ac62000008512614b1657680ad78ebc5ac61fffff199094019368056bc75e2d6310000068280e60114edb805d0382020590505b68056bc75e2d631000008512614b4f5768056bc75e2d630fffff199094019368056bc75e2d63100000680ebc5fb4174612111082020590505b6802b5e3af16b18800008512614b88576802b5e3af16b187ffff199094019368056bc75e2d631000006808f00f760a4b2db55d82020590505b68015af1d78b58c400008512614bc15768015af1d78b58c3ffff199094019368056bc75e2d631000006806f5f177578893793782020590505b68056bc75e2d631000008581019086906002908280020505918201919050600368056bc75e2d631000008883020505918201919050600468056bc75e2d631000008883020505918201919050600568056bc75e2d631000008883020505918201919050600668056bc75e2d631000008883020505918201919050600768056bc75e2d631000008883020505918201919050600868056bc75e2d631000008883020505918201919050600968056bc75e2d631000008883020505918201919050600a68056bc75e2d631000008883020505918201919050600b68056bc75e2d631000008883020505918201919050600c68056bc75e2d6310000088830205059182019190505f606468056bc75e2d6310000085850205860205905085614ce65780614d05565b806a0c097ce7bc90715b34b9f160241b81614d0357614d03615a9c565b055b98975050505050505050565b61079e61628f565b5f60208284031215614d29575f5ffd5b81356001600160e01b03198116811461146a575f5ffd5b5f60208284031215614d50575f5ffd5b5035919050565b5f81518084528060208401602086015e5f602082860101526020601f19601f83011685010191505092915050565b602081525f61146a6020830184614d57565b6001600160a01b0381168114610868575f5ffd5b8035614db681614d97565b919050565b5f5f60408385031215614dcc575f5ffd5b8235614dd781614d97565b946020939093013593505050565b634e487b7160e01b5f52604160045260245ffd5b604051608081016001600160401b0381118282101715614e1b57614e1b614de5565b60405290565b60405160e081016001600160401b0381118282101715614e1b57614e1b614de5565b604051606081016001600160401b0381118282101715614e1b57614e1b614de5565b60405161014081016001600160401b0381118282101715614e1b57614e1b614de5565b604051601f8201601f191681016001600160401b0381118282101715614eb057614eb0614de5565b604052919050565b5f6001600160401b03821115614ed057614ed0614de5565b5060051b60200190565b60028110610868575f5ffd5b8035614db681614eda565b8015158114610868575f5ffd5b5f60808284031215614f0e575f5ffd5b50919050565b5f5f5f5f60e08587031215614f27575f5ffd5b8435614f3281614d97565b93506020850135614f4281614d97565b925060408501356001600160401b03811115614f5c575f5ffd5b8501601f81018713614f6c575f5ffd5b8035614f7f614f7a82614eb8565b614e88565b8082825260208201915060208360071b850101925089831115614fa0575f5ffd5b6020840193505b82841015615020576080848b031215614fbe575f5ffd5b614fc6614df9565b8435614fd181614d97565b81526020850135614fe181614eda565b60208201526040850135614ff481614d97565b6040820152606085013561500781614ef1565b6060820152825260809390930192602090910190614fa7565b809550505050506150348660608701614efe565b905092959194509250565b5f82601f83011261504e575f5ffd5b813561505c614f7a82614eb8565b8082825260208201915060208360051b86010192508583111561507d575f5ffd5b602085015b8381101561509a578035835260209283019201615082565b5095945050505050565b5f5f5f606084860312156150b6575f5ffd5b83356001600160401b038111156150cb575f5ffd5b6150d78682870161503f565b9660208601359650604090950135949350505050565b5f82601f8301126150fc575f5ffd5b81356001600160401b0381111561511557615115614de5565b615128601f8201601f1916602001614e88565b81815284602083860101111561513c575f5ffd5b816020850160208301375f918101602001919091529392505050565b5f5f60408385031215615169575f5ffd5b82356001600160401b0381111561517e575f5ffd5b61518a8582860161503f565b92505060208301356001600160401b038111156151a5575f5ffd5b6151b1858286016150ed565b9150509250929050565b5f5f5f606084860312156151cd575f5ffd5b83356151d881614d97565b925060208401356151e881614d97565b929592945050506040919091013590565b6001600160a01b0391909116815260200190565b803560058110614db6575f5ffd5b5f5f5f5f5f5f5f60e0888a031215615231575f5ffd5b873561523c81614d97565b965061524a60208901614dab565b95506152586040890161520d565b945060608801356001600160401b03811115615272575f5ffd5b61527e8a828b0161503f565b9450506080880135925060a08801356001600160401b038111156152a0575f5ffd5b6152ac8a828b0161503f565b92505060c08801356001600160401b038111156152c7575f5ffd5b6152d38a828b016150ed565b91505092959891949750929550565b5f602082840312156152f2575f5ffd5b813561146a81614d97565b5f6020828403121561530d575f5ffd5b81356001600160401b03811115615322575f5ffd5b820160e08185031215615333575f5ffd5b61533b614e21565b61534482614ee6565b81526020828101359082015260408201356001600160401b03811115615368575f5ffd5b6153748682850161503f565b604083015250606082810135908201526080808301359082015261539a60a08301614dab565b60a082015260c08201356001600160401b038111156153b7575f5ffd5b6153c3868285016150ed565b60c083015250949350505050565b918252602082015260400190565b5f8151808452602084019350602083015f5b8281101561540f5781518652602095860195909101906001016153f1565b5093949350505050565b60ff60f81b8816815260e060208201525f61543760e0830189614d57565b82810360408401526154498189614d57565b606084018890526001600160a01b038716608085015260a0840186905283810360c0850152905061547a81856153df565b9a9950505050505050505050565b5f5f60408385031215615499575f5ffd5b82356001600160401b038111156154ae575f5ffd5b6154ba8582860161503f565b92505060208301356154cb81614eda565b809150509250929050565b5f5f5f606084860312156154e8575f5ffd5b505081359360208301359350604090920135919050565b5f8151808452602084019350602083015f5b8281101561540f5781516001600160a01b0316865260209586019590910190600101615511565b602081525f61146a60208301846154ff565b634e487b7160e01b5f52602160045260245ffd5b6002811061556e5761556e61554a565b9052565b608081525f61558460808301876154ff565b82810360208401528086518083526020830191506020880192505f5b818110156155ea5783516155b584825161555e565b6020818101516001600160a01b03168582015260409182015115159185019190915293909301926060909201916001016155a0565b505083810360408501526155fe81876153df565b9150508281036060840152610ddc81856153df565b602081525f61146a60208301846153df565b803560048110614db6575f5ffd5b5f5f5f5f5f5f5f60e0888a031215615649575f5ffd5b873561565481614d97565b965061566260208901614dab565b955061567060408901615625565b94506060880135935060808801356001600160401b03811115615691575f5ffd5b61569d8a828b0161503f565b93505060a08801356001600160401b038111156152a0575f5ffd5b60ff81168114610868575f5ffd5b5f5f5f5f5f5f5f60e0888a0312156156dc575f5ffd5b87356156e781614d97565b965060208801356156f781614d97565b955060408801359450606088013593506080880135615715816156b8565b9699959850939692959460a0840135945060c09093013592915050565b81511515815261014081016020830151615750602084018215159052565b506040830151615764604084018215159052565b506060830151615778606084018215159052565b50608083015161578c608084018215159052565b5060a08301516157a060a084018215159052565b5060c08301516157b460c084018215159052565b5060e08301516157c860e084018215159052565b506101008301516157de61010084018215159052565b506101208301516157f461012084018215159052565b5092915050565b5f5f6040838503121561580c575f5ffd5b823561581781614d97565b915060208301356154cb81614d97565b5f6060828403128015615838575f5ffd5b50615841614e43565b825161584c81614d97565b8152602083015161585c81614d97565b6020820152604083015161586f81614d97565b60408201529392505050565b600181811c9082168061588f57607f821691505b602082108103614f0e57634e487b7160e01b5f52602260045260245ffd5b6001600160a01b039384168152919092166020820152604081019190915260600190565b8051614db681614ef1565b5f602082840312156158ec575f5ffd5b815161146a81614ef1565b5f60208284031215615907575f5ffd5b813561146a81614ef1565b803561591d81614ef1565b15158252602081013561592f81614ef1565b15156020830152604081013561594481614ef1565b15156040830152606081013561595981614ef1565b8015156060840152505050565b6001600160a01b038581168252841660208083019190915260e06040830181905284519083018190525f91850190610100840190835b818110156159fb57835180516001600160a01b03168452602080820151906159c69086018261555e565b506040818101516001600160a01b0316908501526060908101511515908401526020939093019260809092019160010161599c565b50508092505050613e4e6060830184615912565b5f60208284031215615a1f575f5ffd5b5051919050565b634e487b7160e01b5f52603260045260245ffd5b604081525f615a4c60408301856153df565b8281036020840152613e4e8185614d57565b634e487b7160e01b5f52601160045260245ffd5b8082018082111561099357610993615a5e565b808202811582820484141761099357610993615a5e565b634e487b7160e01b5f52601260045260245ffd5b5f82615aca57634e487b7160e01b5f52601260045260245ffd5b500490565b6001600160a01b038881168252871660208201525f60058710615af457615af461554a565b86604083015260e06060830152615b0e60e08301876153df565b85608084015282810360a0840152615b2681866153df565b905082810360c084015261547a8185614d57565b6001600160a01b0392831681529116602082015260400190565b5f60808284031215615b64575f5ffd5b615b6c614df9565b90508151615b7981614ef1565b81526020820151615b8981614ef1565b60208201526040820151615b9c81614ef1565b60408201526060820151615baf81614ef1565b606082015292915050565b805164ffffffffff81168114614db6575f5ffd5b805163ffffffff81168114614db6575f5ffd5b5f6101a0828403128015615bf3575f5ffd5b50615bfc614e65565b615c068484615b54565b81526080830151602082015260a0830151604082015260c08301516060820152615c3260e08401615bba565b6080820152615c446101008401615bce565b60a0820152615c5661012084016158d1565b60c0820152615c6861014084016158d1565b60e0820152615c7a61016084016158d1565b610100820152615c8d61018084016158d1565b6101208201529392505050565b8181038181111561099357610993615a5e565b5f82601f830112615cbc575f5ffd5b8151615cca614f7a82614eb8565b8082825260208201915060208360051b860101925085831115615ceb575f5ffd5b602085015b8381101561509a578051615d0381614d97565b835260209283019201615cf0565b5f60208284031215615d21575f5ffd5b81516001600160401b03811115615d36575f5ffd5b610aa584828501615cad565b5f82601f830112615d51575f5ffd5b8151615d5f614f7a82614eb8565b8082825260208201915060208360051b860101925085831115615d80575f5ffd5b602085015b8381101561509a578051835260209283019201615d85565b5f5f5f5f60808587031215615db0575f5ffd5b84516001600160401b03811115615dc5575f5ffd5b615dd187828801615cad565b602087015190955090506001600160401b03811115615dee575f5ffd5b8501601f81018713615dfe575f5ffd5b8051615e0c614f7a82614eb8565b80828252602082019150602060608402850101925089831115615e2d575f5ffd5b6020840193505b82841015615e9a576060848b031215615e4b575f5ffd5b615e53614e43565b8451615e5e81614eda565b81526020850151615e6e81614d97565b60208201526040850151615e8181614ef1565b6040820152825260609390930192602090910190615e34565b6040890151909650925050506001600160401b03811115615eb9575f5ffd5b615ec587828801615d42565b606087015190935090506001600160401b03811115615ee2575f5ffd5b615eee87828801615d42565b91505092959194509250565b5f60208284031215615f0a575f5ffd5b81516001600160401b03811115615f1f575f5ffd5b610aa584828501615d42565b6001600160a01b038881168252871660208201525f60048710615f5057615f5061554a565b86604083015285606083015260e06080830152615f7060e08301866153df565b82810360a0840152615b2681866153df565b5f610140828403128015615f94575f5ffd5b50615f9d614e65565b615fa6836158d1565b8152615fb4602084016158d1565b6020820152615fc5604084016158d1565b6040820152615fd6606084016158d1565b6060820152615fe7608084016158d1565b6080820152615ff860a084016158d1565b60a082015261600960c084016158d1565b60c082015261601a60e084016158d1565b60e082015261602c61010084016158d1565b610100820152615c8d61012084016158d1565b5f6020828403121561604f575f5ffd5b815161146a816156b8565b6001815b60018411156140765780850481111561607957616079615a5e565b600184161561608757908102905b60019390931c92800261605e565b5f826160a357506001610993565b816160af57505f610993565b81600181146160c557600281146160cf576160eb565b6001915050610993565b60ff8411156160e0576160e0615a5e565b50506001821b610993565b5060208310610133831016604e8410600b841016171561610e575081810a610993565b61611a5f19848461605a565b805f190482111561612d5761612d615a5e565b029392505050565b5f61146a8383616095565b75159a5c9d1d585b10985b185b98d95cd55c19185d195960521b8152604060208201525f61146a6040830184614d57565b93845260208401929092526040830152606082015260800190565b75141c9a58d954985d1a5bd4dd185d19555c19185d195960521b8152604060208201525f61146a6040830184614d57565b7f4461696c79507269636553686966744578706f6e656e745570646174656400008152604060208201525f61146a6040830184614d57565b7810d95b9d195c99591b995cdcd3585c99da5b955c19185d1959603a1b8152604060208201525f61146a6040830184614d57565b7313185cdd151a5b595cdd185b5c155c19185d195960621b8152604060208201525f61146a6040830184614d57565b5f60208284031215616268575f5ffd5b815161146a81614d97565b63ffffffff828116828216039081111561099357610993615a5e565b634e487b7160e01b5f52605160045260245ffdfe6e71edae12b1b97f4d1f60370fef10105fa2faae0126114a169c64845d6126c9a264697066735822122003e57b9c85eebbb3622b755c8365912089721ac0b23dded4d3620fc895b867ad64736f6c634300081e0033a264697066735822122002060d889a4a5d7decc2cd8967f97bbc0fd1dc832879e26d4912eb403862f8a964736f6c634300081e0033610280604052348015610010575f5ffd5b50604051616b57380380616b5783398101604081905261002f916103f5565b8360400151833381816001600160a01b03165f1b8088898b5f01518c602001518282604051806040016040528060018152602001603160f81b815250816003908161007a91906105c9565b50600461008782826105c9565b5081516020928301206101805280519101206101a0526001600160a01b03166101c05260066100b683826105c9565b5060076100c382826105c9565b5050506001600160a01b039182166101e052506102009190915282166100fc57604051630647140b60e51b815260040160405180910390fd5b506001600160a01b03166102205250610116905081610267565b506101486040518060a001604052805f81526020015f81526020015f81526020015f151581526020015f151581525090565b60a0850151815260c0850151602082015260e0850151604082015261016c81610277565b306001600160a01b0316836001600160a01b03166316f0115b6040518163ffffffff1660e01b8152600401602060405180830381865afa1580156101b2573d5f5f3e3d5ffd5b505050506040513d601f19601f820116820180604052508101906101d69190610683565b6001600160a01b0316146101fd5760405163e3c533f560e01b815260040160405180910390fd5b506001600160a01b039182166102605260a080850151608090815260c08087015190925260e08087015190925260608601519091528401516001600160401b03166101009081528401511515610120908152909301511515610140529190911661016052506106a5565b600861027382826105c9565b5050565b8051158061028757506020810151155b8061029457506040810151155b806102a3575080516040820151105b806102b5575080602001518160400151115b806102c557506020810151815110155b156102e3576040516359e6ae3360e11b815260040160405180910390fd5b50565b634e487b7160e01b5f52604160045260245ffd5b60405161014081016001600160401b038111828210171561031d5761031d6102e6565b60405290565b5f82601f830112610332575f5ffd5b81516001600160401b0381111561034b5761034b6102e6565b604051601f8201601f19908116603f011681016001600160401b0381118282101715610379576103796102e6565b604052818152838201602001851015610390575f5ffd5b8160208501602083015e5f918101602001919091529392505050565b80516001600160401b03811681146103c2575f5ffd5b919050565b805180151581146103c2575f5ffd5b6001600160a01b03811681146102e3575f5ffd5b80516103c2816103d6565b5f5f5f5f60808587031215610408575f5ffd5b84516001600160401b0381111561041d575f5ffd5b8501610140818803121561042f575f5ffd5b6104376102fa565b81516001600160401b0381111561044c575f5ffd5b61045889828501610323565b82525060208201516001600160401b03811115610473575f5ffd5b61047f89828501610323565b60208301525060408201516001600160401b0381111561049d575f5ffd5b6104a989828501610323565b604083015250606082810151908201526104c5608083016103ac565b608082015260a0828101519082015260c0808301519082015260e080830151908201526104f561010083016103c7565b61010082015261050861012083016103c7565b610120820152945061051e9050602086016103ea565b925061052c604086016103ea565b915061053a606086016103ea565b905092959194509250565b600181811c9082168061055957607f821691505b60208210810361057757634e487b7160e01b5f52602260045260245ffd5b50919050565b601f8211156105c457805f5260205f20601f840160051c810160208510156105a25750805b601f840160051c820191505b818110156105c1575f81556001016105ae565b50505b505050565b81516001600160401b038111156105e2576105e26102e6565b6105f6816105f08454610545565b8461057d565b6020601f821160018114610628575f83156106115750848201515b5f19600385901b1c1916600184901b1784556105c1565b5f84815260208120601f198516915b828110156106575787850151825560209485019460019092019101610637565b508482101561067457868401515f19600387901b60f8161c191681555b50505050600190811b01905550565b5f60208284031215610693575f5ffd5b815161069e816103d6565b9392505050565b60805160a05160c05160e05161010051610120516101405161016051610180516101a0516101c0516101e051610200516102205161024051610260516162f961085e5f395f61229801525f50505f81816107bc0152818161147e015281816119d001528181611acc015261377401525f61138701525f81816112a30152818161169701528181611715015281816117c80152611a8b01525f818161091401528181610ae001528181610e1d01528181610f220152818161116d015281816113ea015281816116440152818161186001528181611ced01528181611ebe01528181611f37015281816122ef01528181612386015281816124e00152818161252501528181612aa001528181612bba01528181612d6501528181612eb601528181612fd7015281816130dd01528181613479015261362501525f61318801525f61316001525f81816109e001528181610a2701528181610d1901528181610d5d01528181610ff80152818161103c015281816119360152818161197a01528181611dc50152611df401525f61263201525f6125fb01525f610ceb01525f610cc101525f6126dc01525f6126a501525f61266e01526162f95ff3fe608060405260043610610210575f3560e01c806301ffc9a7146102575780630673d09a1461029c57806306fdde03146102bb578063095ea7b3146102dc5780630b89f182146102fb57806316a0b3e01461031a57806318160ddd146103475780631c149e281461035b57806323b872dd1461037a57806323de665114610399578063273c1adf146103b857806329e8fb05146103ca57806330adf81f146103eb578063313ce5671461040b5780633644e5151461042657806345421ec71461043a57806354fd4d50146104595780635687f2b81461046d578063627cdcb91461048c578063654cf15d146104a0578063679aefce146104ba57806370a08231146104ce57806372c98186146104ed5780637ecebe001461050c57806381fa807c1461052b57806384b0196e1461054d578063851c1bb3146105745780638d928af81461059357806395d89b41146105a7578063984de9e8146105bb578063a6d2e718146105da578063a9059cbb146105f9578063aa6ca80814610618578063abb1dc4414610639578063b156aa0a1461065d578063b677fa56146103b8578063ba5f9f401461067e578063c66dbc4b1461069d578063ce20ece7146106bc578063d335b0cf146106d4578063d4a5b63a146106e8578063d505accf146106fc578063d77153a71461071b578063dd62ed3e1461073c578063dfba38181461075b578063e45801da1461076f5761022e565b3661022e57604051637911c44b60e11b815260040160405180910390fd5b341561024d57604051637911c44b60e11b815260040160405180910390fd5b61025561078e565b005b348015610262575f5ffd5b50610287610271366004614d19565b6001600160e01b0319166301ffc9a760e01b1490565b60405190151581526020015b60405180910390f35b3480156102a7575f5ffd5b506102556102b6366004614d40565b6107a0565b3480156102c6575f5ffd5b506102cf61086b565b6040516102939190614d85565b3480156102e7575f5ffd5b506102876102f6366004614dbb565b6108fb565b348015610306575f5ffd5b50610287610315366004614f14565b610999565b348015610325575f5ffd5b506103396103343660046150a4565b610aad565b604051908152602001610293565b348015610352575f5ffd5b50610339610ac7565b348015610366575f5ffd5b50610287610375366004615158565b610b59565b348015610385575f5ffd5b506102876103943660046151bb565b610de7565b3480156103a4575f5ffd5b506102556103b33660046151bb565b610e94565b3480156103c3575f5ffd5b505f610339565b3480156103d5575f5ffd5b506103de610eee565b60405161029391906151f9565b3480156103f6575f5ffd5b506103395f5160206162a45f395f51905f5281565b348015610416575f5ffd5b5060405160128152602001610293565b348015610431575f5ffd5b50610339610ef7565b348015610445575f5ffd5b5061028761045436600461521b565b610f00565b348015610464575f5ffd5b506102cf6110d5565b348015610478575f5ffd5b506102556104873660046151bb565b6110e4565b348015610497575f5ffd5b50610255611131565b3480156104ab575f5ffd5b5067016345785d8a0000610339565b3480156104c5575f5ffd5b5061033961113a565b3480156104d9575f5ffd5b506103396104e83660046152e2565b611154565b3480156104f8575f5ffd5b506103396105073660046152fd565b6111e3565b348015610517575f5ffd5b506103396105263660046152e2565b611281565b348015610536575f5ffd5b5061053f61129e565b6040516102939291906153d1565b348015610558575f5ffd5b50610561611342565b6040516102939796959493929190615419565b34801561057f575f5ffd5b5061033961058e366004614d19565b611384565b34801561059e575f5ffd5b506103de6113e8565b3480156105b2575f5ffd5b506102cf61140c565b3480156105c6575f5ffd5b506103396105d5366004615488565b61141b565b3480156105e5575f5ffd5b506103396105f43660046154d6565b611471565b348015610604575f5ffd5b50610287610613366004614dbb565b61162b565b348015610623575f5ffd5b5061062c61167d565b6040516102939190615538565b348015610644575f5ffd5b5061064d61170d565b6040516102939493929190615572565b348015610668575f5ffd5b506106716117ae565b6040516102939190615613565b348015610689575f5ffd5b50610287610698366004615633565b61183e565b3480156106a8575f5ffd5b506103396106b7366004614d40565b6119bb565b3480156106c7575f5ffd5b506509184e72a000610339565b3480156106df575f5ffd5b50610339611a72565b3480156106f3575f5ffd5b50610255611ac0565b348015610707575f5ffd5b506102556107163660046156c6565b611bf6565b348015610726575f5ffd5b5061072f611d73565b6040516102939190615732565b348015610747575f5ffd5b506103396107563660046157fb565b611e8f565b348015610766575f5ffd5b50610287611f29565b34801561077a575f5ffd5b50610671610789366004614dbb565b611f32565b61079e610799612296565b6122ba565b565b6107a86122d8565b6107b0612384565b6107b8612422565b305f7f00000000000000000000000000000000000000000000000000000000000000006001600160a01b031663e9ddeb26836040518263ffffffff1660e01b815260040161080691906151f9565b606060405180830381865afa158015610821573d5f5f3e3d5ffd5b505050506040513d601f19601f820116820180604052508101906108459190615827565b602001519050610855828261244a565b61085e836124c4565b5050610868612422565b50565b60606006805461087a9061587b565b80601f01602080910402602001604051908101604052809291908181526020018280546108a69061587b565b80156108f15780601f106108c8576101008083540402835291602001916108f1565b820191905f5260205f20905b8154815290600101906020018083116108d457829003601f168201915b5050505050905090565b60405163e1f21c6760e01b81525f906001600160a01b037f0000000000000000000000000000000000000000000000000000000000000000169063e1f21c679061094d903390879087906004016158ad565b6020604051808303815f875af1158015610969573d5f5f3e3d5ffd5b505050506040513d601f19601f8201168201806040525081019061098d91906158dc565b50600190505b92915050565b5f6109a26124d5565b825160021480156109bb57506109bb60208301836158f7565b80156109d457506109d260808301606084016158f7565b155b9050808015610a0b57507f00000000000000000000000000000000000000000000000000000000000000006001600160a01b031615155b15610aa5576040516305c4f8c160e11b81526001600160a01b037f00000000000000000000000000000000000000000000000000000000000000001690630b89f18290610a62908890889088908890600401615966565b6020604051808303815f875af1158015610a7e573d5f5f3e3d5ffd5b505050506040513d601f19601f82011682018060405250810190610aa291906158dc565b90505b949350505050565b5f60405163d623472560e01b815260040160405180910390fd5b6040516339370aa960e21b81525f906001600160a01b037f0000000000000000000000000000000000000000000000000000000000000000169063e4dc2aa490610b159030906004016151f9565b602060405180830381865afa158015610b30573d5f5f3e3d5ffd5b505050506040513d601f19601f82011682018060405250810190610b549190615a0f565b905090565b5f610b626124d5565b610ba96040518061012001604052805f81526020015f81526020015f81526020015f81526020015f8152602001606081526020015f81526020015f81526020015f81525090565b610bb1612520565b60208301819052818352610bc591906125f6565b608084018190526060840182905260408401839052610be5929190612713565b61010085015260e084015260c083015260a08201819052610c0790859061285d565b5f610c518260a001515f81518110610c2157610c21615a26565b6020026020010151865f81518110610c3b57610c3b615a26565b602002602001015161292590919063ffffffff16565b90505f610c6b828460c0015161294590919063ffffffff16565b90505f610c85838560e0015161294590919063ffffffff16565b9050610ca1878560400151866060015187608001518686612965565b610cab8282612a15565b610cbb8461010001514242612b34565b50610ce57f0000000000000000000000000000000000000000000000000000000000000000612e0b565b50610d0f7f0000000000000000000000000000000000000000000000000000000000000000612f55565b610d1761306b565b7f00000000000000000000000000000000000000000000000000000000000000006001600160a01b031615610dd95760405163038293c560e31b81526001600160a01b037f00000000000000000000000000000000000000000000000000000000000000001690631c149e2890610d94908a908a90600401615a3a565b6020604051808303815f875af1158015610db0573d5f5f3e3d5ffd5b505050506040513d601f19601f82011682018060405250810190610dd491906158dc565b610ddc565b60015b979650505050505050565b604051630aed65f560e11b81523360048201526001600160a01b0384811660248301528381166044830152606482018390525f917f0000000000000000000000000000000000000000000000000000000000000000909116906315dacbea906084016020604051808303815f875af1158015610e65573d5f5f3e3d5ffd5b505050506040513d601f19601f82011682018060405250810190610e8991906158dc565b506001949350505050565b610e9c6124d5565b816001600160a01b0316836001600160a01b03167fddf252ad1be2c89b69c2b068fc378daa952ba7f163c4a11628f55a4df523b3ef83604051610ee191815260200190565b60405180910390a3505050565b5f610b54612296565b5f610b54613130565b5f610f096124d5565b6040516339370aa960e21b81525f906001600160a01b037f0000000000000000000000000000000000000000000000000000000000000000169063e4dc2aa490610f57908b906004016151f9565b602060405180830381865afa158015610f72573d5f5f3e3d5ffd5b505050506040513d601f19601f82011682018060405250810190610f969190615a0f565b90505f610fa38287615a72565b90505f5f610fb0876131d8565b50909250905083610fc18484615a85565b610fcb9190615ab0565b915083610fd88483615a85565b610fe29190615ab0565b9050610fee8282612a15565b610ff661306b565b7f00000000000000000000000000000000000000000000000000000000000000006001600160a01b0316156110c2576040516345421ec760e01b81526001600160a01b037f000000000000000000000000000000000000000000000000000000000000000016906345421ec79061107d908f908f908f908f908f908f908f90600401615acf565b6020604051808303815f875af1158015611099573d5f5f3e3d5ffd5b505050506040513d601f19601f820116820180604052508101906110bd91906158dc565b6110c5565b60015b9c9b505050505050505050505050565b60606008805461087a9061587b565b6110ec6124d5565b816001600160a01b0316836001600160a01b03167f8c5be1e5ebec7d5bd14f71427d1e84f3dd0314c0f7b2291e5b200ac8c7c3b92583604051610ee191815260200190565b61086833613237565b5f6040516356b7fcdb60e01b815260040160405180910390fd5b604051633de222bb60e21b81525f906001600160a01b037f0000000000000000000000000000000000000000000000000000000000000000169063f7888aec906111a49030908690600401615b3a565b602060405180830381865afa1580156111bf573d5f5f3e3d5ffd5b505050506040513d601f19601f820116820180604052508101906109939190615a0f565b5f6111ec6124d5565b5f5f5f6111fc85604001516131d8565b9250925092508015611212576112128383612a15565b61121a61306b565b5f8551600181111561122e5761122e61554a565b036112585761125185604001518484886060015189608001518a60200151613259565b9350611279565b61127685604001518484886060015189608001518a60200151613322565b93505b505050919050565b6001600160a01b0381165f90815260056020526040812054610993565b5f5f5f7f00000000000000000000000000000000000000000000000000000000000000006001600160a01b031663f29486a1306040518263ffffffff1660e01b81526004016112ed91906151f9565b6101a060405180830381865afa158015611309573d5f5f3e3d5ffd5b505050506040513d601f19601f8201168201806040525081019061132d9190615be1565b90508060400151925080606001519150509091565b5f6060805f5f5f60606113536133de565b61135b6133ed565b604080515f80825260208201909252600f60f81b9b939a50919850469750309650945092509050565b5f7f0000000000000000000000000000000000000000000000000000000000000000826040516020016113cb9291909182526001600160e01b031916602082015260240190565b604051602081830303815290604052805190602001209050919050565b7f000000000000000000000000000000000000000000000000000000000000000090565b60606007805461087a9061587b565b6002546001545f9161146a9185916001600160801b0380821692600160801b909204811691600160201b81049091169063ffffffff811690600160a01b90046001600160401b031687896133fc565b9392505050565b5f61147a6122d8565b305f7f00000000000000000000000000000000000000000000000000000000000000006001600160a01b031663e9ddeb26836040518263ffffffff1660e01b81526004016114c891906151f9565b606060405180830381865afa1580156114e3573d5f5f3e3d5ffd5b505050506040513d601f19601f820116820180604052508101906115079190615827565b602001519050611517828261244a565b611521858561342e565b92505f61152e8486615c9a565b905062015180811015611554576040516319f8e85560e11b815260040160405180910390fd5b61155c613460565b5f611568888688612b34565b90505f8189101561157b5788820361157f565b8189035b9050620f42408110156115ad5760405163119d853760e21b8152600481018290526024015b60405180910390fd5b5f828a116115d9576115d46115c58462015180615a85565b6115cf868d615a85565b613524565b6115f3565b6115f36115e98b62015180615a85565b6115cf8686615a85565b9050671bc16d674ec8000081111561161e57604051632b85f91760e11b815260040160405180910390fd5b5050505050509392505050565b6040516317d5759960e31b81525f906001600160a01b037f0000000000000000000000000000000000000000000000000000000000000000169063beabacc89061094d903390879087906004016158ad565b60405163ca4f280360e01b81526060906001600160a01b037f0000000000000000000000000000000000000000000000000000000000000000169063ca4f2803906116cc9030906004016151f9565b5f60405180830381865afa1580156116e6573d5f5f3e3d5ffd5b505050506040513d5f823e601f3d908101601f19168201604052610b549190810190615d11565b6060806060807f00000000000000000000000000000000000000000000000000000000000000006001600160a01b03166367e0e076306040518263ffffffff1660e01b815260040161175f91906151f9565b5f60405180830381865afa158015611779573d5f5f3e3d5ffd5b505050506040513d5f823e601f3d908101601f191682016040526117a09190810190615d9d565b935093509350935090919293565b6040516329ae7ec560e11b81526060906001600160a01b037f0000000000000000000000000000000000000000000000000000000000000000169063535cfd8a906117fd9030906004016151f9565b5f60405180830381865afa158015611817573d5f5f3e3d5ffd5b505050506040513d5f823e601f3d908101601f19168201604052610b549190810190615efa565b5f6118476124d5565b6040516339370aa960e21b81525f906001600160a01b037f0000000000000000000000000000000000000000000000000000000000000000169063e4dc2aa490611895908b906004016151f9565b602060405180830381865afa1580156118b0573d5f5f3e3d5ffd5b505050506040513d601f19601f820116820180604052508101906118d49190615a0f565b90505f6118e18783615c9a565b90505f5f6118ee876131d8565b509092509050836118ff8484615a85565b6119099190615ab0565b9150836119168483615a85565b6119209190615ab0565b905061192c8282612a15565b61193461306b565b7f00000000000000000000000000000000000000000000000000000000000000006001600160a01b0316156110c2576040516302e97e7d60e61b81526001600160a01b037f0000000000000000000000000000000000000000000000000000000000000000169063ba5f9f409061107d908f908f908f908f908f908f908f90600401615f2b565b5f6119c46122d8565b6119cc612384565b305f7f00000000000000000000000000000000000000000000000000000000000000006001600160a01b031663e9ddeb26836040518263ffffffff1660e01b8152600401611a1a91906151f9565b606060405180830381865afa158015611a35573d5f5f3e3d5ffd5b505050506040513d601f19601f82011682018060405250810190611a599190615827565b602001519050611a69828261244a565b610aa584613538565b60405163b45090f960e01b81525f906001600160a01b037f0000000000000000000000000000000000000000000000000000000000000000169063b45090f990610b159030906004016151f9565b611ac86122d8565b305f7f00000000000000000000000000000000000000000000000000000000000000006001600160a01b031663e9ddeb26836040518263ffffffff1660e01b8152600401611b1691906151f9565b606060405180830381865afa158015611b31573d5f5f3e3d5ffd5b505050506040513d601f19601f82011682018060405250810190611b559190615827565b602001519050611b65828261244a565b611b6d613460565b604080516080810182525f546001600160601b038082168352600160601b820416602083015263ffffffff600160c01b8204811693830193909352600160e01b900490911660608201819052421115611bd95760405163771cef4f60e01b815260040160405180910390fd5b5f611be261354a565b9050611bef814242612b34565b5050505050565b83421115611c1a5760405163313c898160e11b8152600481018590526024016115a4565b5f5f5160206162a45f395f51905f52888888611c358c613237565b6040805160208101969096526001600160a01b0394851690860152929091166060840152608083015260a082015260c0810186905260e0016040516020818303038152906040528051906020012090505f611c8f826135e8565b90505f611c9e82878787613614565b9050896001600160a01b0316816001600160a01b031614611cd657808a6040516325c0072360e11b81526004016115a4929190615b3a565b60405163e1f21c6760e01b81526001600160a01b037f0000000000000000000000000000000000000000000000000000000000000000169063e1f21c6790611d26908d908d908d906004016158ad565b6020604051808303815f875af1158015611d42573d5f5f3e3d5ffd5b505050506040513d601f19601f82011682018060405250810190611d6691906158dc565b5050505050505050505050565b60408051610140810182525f80825260208201819052918101829052606081018290526080810182905260a0810182905260c0810182905260e0810182905261010081018290526101208101919091527f00000000000000000000000000000000000000000000000000000000000000006001600160a01b031615611e76577f00000000000000000000000000000000000000000000000000000000000000006001600160a01b031663d77153a76040518163ffffffff1660e01b815260040161014060405180830381865afa158015611e4f573d5f5f3e3d5ffd5b505050506040513d601f19601f82011682018060405250810190611e739190615f82565b90505b60016020820181905260c0820181905261010082015290565b60405163927da10560e01b81523060048201526001600160a01b03838116602483015282811660448301525f917f00000000000000000000000000000000000000000000000000000000000000009091169063927da10590606401602060405180830381865afa158015611f05573d5f5f3e3d5ffd5b505050506040513d601f19601f8201168201806040525081019061146a9190615a0f565b5f610b54613621565b60605f7f00000000000000000000000000000000000000000000000000000000000000006001600160a01b031663ca4f2803306040518263ffffffff1660e01b8152600401611f8191906151f9565b5f60405180830381865afa158015611f9b573d5f5f3e3d5ffd5b505050506040513d5f823e601f3d908101601f19168201604052611fc29190810190615d11565b90505f5f856001600160a01b0316835f81518110611fe257611fe2615a26565b60200260200101516001600160a01b0316146120005760015f612004565b5f60015b9150915060018214801561204457508260018151811061202657612026615a26565b60200260200101516001600160a01b0316866001600160a01b031614155b156120625760405163c1ab6dc160e01b815260040160405180910390fd5b5f5f61206c612520565b915091505f61207b83836136f3565b90505f5f8a6001600160a01b0316885f8151811061209b5761209b615a26565b60200260200101516001600160a01b0316146120b85783856120bb565b84845b915091505f8888815181106120d2576120d2615a26565b60200260200101516001600160a01b031663313ce5676040518163ffffffff1660e01b8152600401602060405180830381865afa158015612115573d5f5f3e3d5ffd5b505050506040513d601f19601f82011682018060405250810190612139919061603f565b90505f89888151811061214e5761214e615a26565b60200260200101516001600160a01b031663313ce5676040518163ffffffff1660e01b8152600401602060405180830381865afa158015612191573d5f5f3e3d5ffd5b505050506040513d601f19601f820116820180604052508101906121b5919061603f565b90505f6121dc6121c960ff85166012615c9a565b6121d490600a616135565b8e9087613748565b6040805160028082526060820183529293509190602083019080368337019050509b508c8c8b8151811061221257612212615a26565b6020908102919091010152614d118a1561222e57612925612232565b6129455b905061226661224560ff85166012615c9a565b61225090600a616135565b8661225f858b8663ffffffff16565b919061375d565b8d8b8151811061227857612278615a26565b60200260200101818152505050505050505050505050505092915050565b7f000000000000000000000000000000000000000000000000000000000000000090565b365f5f375f5f365f845af43d5f5f3e8080156122d4573d5ff35b3d5ffd5b6040516314cb3b1f60e21b81526001600160a01b037f0000000000000000000000000000000000000000000000000000000000000000169063532cec7c906123249030906004016151f9565b602060405180830381865afa15801561233f573d5f5f3e3d5ffd5b505050506040513d601f19601f8201168201806040525081019061236391906158dc565b15155f0361079e5760405163486aa30760e01b815260040160405180910390fd5b7f00000000000000000000000000000000000000000000000000000000000000006001600160a01b0316638380edb76040518163ffffffff1660e01b8152600401602060405180830381865afa1580156123e0573d5f5f3e3d5ffd5b505050506040513d601f19601f8201168201806040525081019061240491906158dc565b1561079e57604051633915d7f960e21b815260040160405180910390fd5b61242a613621565b15155f0361079e5760405162f656ad60e21b815260040160405180910390fd5b6001600160a01b03811661249b5761247661246f5f356001600160e01b031916611384565b3384613771565b15155f03612497576040516323dada5360e01b815260040160405180910390fd5b5050565b336001600160a01b03821614612497576040516323dada5360e01b815260040160405180910390fd5b6124cc613460565b61086881612f55565b336001600160a01b037f0000000000000000000000000000000000000000000000000000000000000000161461079e573360405163089676d560e01b81526004016115a491906151f9565b5f5f5f7f00000000000000000000000000000000000000000000000000000000000000006001600160a01b03166367e0e076306040518263ffffffff1660e01b815260040161256f91906151f9565b5f60405180830381865afa158015612589573d5f5f3e3d5ffd5b505050506040513d5f823e601f3d908101601f191682016040526125b09190810190615d9d565b50509150506125d7815f815181106125ca576125ca615a26565b602002602001015161386b565b92506125ef816001815181106125ca576125ca615a26565b9150509091565b5f5f5f7f0000000000000000000000000000000000000000000000000000000000000000612624578461262e565b670de0b6b3a76400005b94507f000000000000000000000000000000000000000000000000000000000000000061265b5783612665565b670de0b6b3a76400005b935084612692857f0000000000000000000000000000000000000000000000000000000000000000615a85565b61269c9190615ab0565b9250846126c9857f0000000000000000000000000000000000000000000000000000000000000000615a85565b6126d39190615ab0565b915084612700857f0000000000000000000000000000000000000000000000000000000000000000615a85565b61270a9190615ab0565b90509250925092565b60605f80806127228688612925565b90505f61272e826138d4565b9050612756612745670de0b6b3a764000083615c9a565b69d3c21bcecceda100000090612925565b935061277661276f69d3c21bcecceda100000086615a72565b8990612945565b6040805160028082526060820183529295509190602083019080368337019050509450826127c96127c46127b48769d3c21bcecceda1000000615a72565b6127be8a886138ef565b906138ef565b6138d4565b6127d39190615c9a565b856001815181106127e6576127e6615a26565b6020908102919091010152612835866127ff8682612945565b858860018151811061281357612813615a26565b60200260200101516128259190615a72565b61282f9190615c9a565b90612925565b855f8151811061284757612847615a26565b6020026020010181815250505093509350935093565b5f61288e835f8151811061287357612873615a26565b602002602001015184600181518110610c3b57610c3b615a26565b90505f6128a6835f8151811061287357612873615a26565b90505f6128cb6128c4655af3107a4000670de0b6b3a7640000615c9a565b8390612945565b90505f6128f06128e9655af3107a4000670de0b6b3a7640000615a72565b8490612945565b9050818410806128ff57508084115b1561291d576040516304f512cb60e41b815260040160405180910390fd5b505050505050565b5f80612939670de0b6b3a764000085615a85565b9050610aa58382615ab0565b5f806129518385615a85565b9050610aa5670de0b6b3a764000082615ab0565b5f6129b483885f8151811061297c5761297c615a26565b602002602001015161298e9190615a72565b83896001815181106129a2576129a2615a26565b602002602001015161282f9190615a72565b90506129c0818561391b565b5f6129ce8885856001613982565b90505f816129dc8580615a85565b6129e69190615ab0565b90506129f2818961391b565b5f6129fd8387613a0e565b9050612a09818961391b565b50505050505050505050565b612a1e82613a23565b600280546001600160801b0319166001600160801b0392909216919091179055612a4781613a23565b600280546001600160801b03928316600160801b0292169190911790556040517ff36b0fd05d55ca91fb3ebd8493adf78a3405a11c145c054a092d0994b665b63790612a9690849084906153d1565b60405180910390a17f00000000000000000000000000000000000000000000000000000000000000006001600160a01b031663c80882478383604051602001612ae09291906153d1565b6040516020818303038152906040526040518263ffffffff1660e01b8152600401612b0b9190616140565b5f604051808303815f87803b158015612b22575f5ffd5b505af115801561291d573d5f5f3e3d5ffd5b5f81831180612b4257504283105b15612b6057604051632ca4094f60e21b815260040160405180910390fd5b604080516080810182525f80546001600160601b038082168452600160601b820416602084015263ffffffff600160c01b8204811694840194909452600160e01b9004909216606082015290612bb586613a2d565b90505f7f00000000000000000000000000000000000000000000000000000000000000006001600160a01b031663532cec7c306040518263ffffffff1660e01b8152600401612c0491906151f9565b602060405180830381865afa158015612c1f573d5f5f3e3d5ffd5b505050506040513d601f19601f82011682018060405250810190612c4391906158dc565b15612c6257612c5061354a565b9350612c5b84613a2d565b9050612c68565b50859250805b612c7181613a51565b6001600160601b03168352612c8582613a51565b6001600160601b03166020840152612c9c86613a5b565b63ffffffff166040840152612cb085613a5b565b63ffffffff9081166060850181905284515f805460208801516040808a01516001600160601b039586166001600160c01b031990941693909317600160601b9590921694909402176001600160c01b0316600160c01b91909516026001600160e01b031693909317600160e01b90920291909117909155517fa18562ea402e57cc2b437f8d7a139c6c38958adc1ecbb706ec37a7a64ff6e7a590612d5b90839085908a908a90616171565b60405180910390a17f00000000000000000000000000000000000000000000000000000000000000006001600160a01b031663c808824782848989604051602001612da99493929190616171565b6040516020818303038152906040526040518263ffffffff1660e01b8152600401612dd4919061618c565b5f604051808303815f87803b158015612deb575f5ffd5b505af1158015612dfd573d5f5f3e3d5ffd5b505050505050509392505050565b5f670de0b6b3a7640000821115612e3557604051632b5b4f3560e01b815260040160405180910390fd5b5f612e3f83613a65565b9050612e4a81613a85565b9250612e5581613a23565b600160046101000a8154816001600160801b0302191690836001600160801b031602179055507f7ee46b38be05f748de1c0fb2002ac48fe50a26a0017c654a92c0bf92280588478382604051612eac9291906153d1565b60405180910390a17f00000000000000000000000000000000000000000000000000000000000000006001600160a01b031663c80882478483604051602001612ef69291906153d1565b6040516020818303038152906040526040518263ffffffff1660e01b8152600401612f2191906161bd565b5f604051808303815f87803b158015612f38575f5ffd5b505af1158015612f4a573d5f5f3e3d5ffd5b509495945050505050565b670c7d713b49da0000811115612f7e57604051637304fac760e01b815260040160405180910390fd5b60018054600160a01b600160e01b031916600160a01b6001600160401b038416021790556040518181527f74d468c8e414c37c502176a45cce93c85eaa0abf608e40641dc6664ca5efcab09060200160405180910390a17f00000000000000000000000000000000000000000000000000000000000000006001600160a01b031663c80882478260405160200161301791815260200190565b6040516020818303038152906040526040518263ffffffff1660e01b815260040161304291906161f5565b5f604051808303815f87803b158015613059575f5ffd5b505af1158015611bef573d5f5f3e3d5ffd5b5f61307542613a5b565b6001805463ffffffff191663ffffffff83169081179091556040519081529091507f32a9fd44bdf167703f584bd25098494d3d18a4653a2d97116d28da05209444d49060200160405180910390a16040805163ffffffff831660208201526001600160a01b037f0000000000000000000000000000000000000000000000000000000000000000169163c808824791016040516020818303038152906040526040518263ffffffff1660e01b81526004016130429190616229565b5f610b54604080517f8b73c3c69bb8fe3d512ecc4cf759cc79239f7b179b0ffacaa9a75d522b39400f60208201527f0000000000000000000000000000000000000000000000000000000000000000918101919091527f000000000000000000000000000000000000000000000000000000000000000060608201524660808201523060a08201525f9060c00160405160208183030381529060405280519060200120905090565b6002546001545f918291829161322a9186916001600160801b0380821692600160801b909204811691600160201b81049091169063ffffffff811690600160a01b90046001600160401b031687613aa6565b9196909550909350915050565b6001600160a01b03165f90815260056020526040902080546001810190915590565b5f8080851561326957868861326c565b87875b9150915083828a888151811061328457613284615a26565b60200260200101516132969190615a72565b6132a09190615a72565b84828b88815181106132b4576132b4615a26565b60200260200101516132c69190615a72565b6132d09190615a85565b6132da9190615ab0565b92508885815181106132ee576132ee615a26565b602002602001015183111561331657604051635a09f12960e11b815260040160405180910390fd5b50509695505050505050565b5f86838151811061333557613335615a26565b602002602001015182111561335d57604051635a09f12960e11b815260040160405180910390fd5b5f80851561336c57868861336f565b87875b915091506133d1828a888151811061338957613389615a26565b602002602001015161339b9190615a72565b8586848d8a815181106133b0576133b0615a26565b60200260200101516133c29190615a72565b6133cc9190615c9a565b613be2565b9998505050505050505050565b60606003805461087a9061587b565b60606004805461087a9061587b565b5f5f5f61340e8b8b8b8b8b8b8b613aa6565b509150915061341f8b838387613982565b9b9a5050505050505050505050565b5f6134394284613c27565b9050818111156109935780826040516364bb3b8360e11b81526004016115a49291906153d1565b6040516333f0703b60e11b81525f906001600160a01b037f000000000000000000000000000000000000000000000000000000000000000016906367e0e076906134ae9030906004016151f9565b5f60405180830381865afa1580156134c8573d5f5f3e3d5ffd5b505050506040513d5f823e601f3d908101601f191682016040526134ef9190810190615d9d565b93505050505f5f5f613500846131d8565b9250925092508015613516576135168383612a15565b61351e61306b565b50505050565b5f61146a83670de0b6b3a764000084613be2565b5f613541613460565b61099382612e0b565b5f5f6135546113e8565b6001600160a01b03166367e0e076306040518263ffffffff1660e01b815260040161357f91906151f9565b5f60405180830381865afa158015613599573d5f5f3e3d5ffd5b505050506040513d5f823e601f3d908101601f191682016040526135c09190810190615d9d565b93505050505f5f6135d0836131d8565b50915091506135e0838383613c36565b935050505090565b5f6109936135f4613130565b8360405161190160f01b8152600281019290925260228201526042902090565b5f610aa285858585613c53565b5f5f7f00000000000000000000000000000000000000000000000000000000000000006001600160a01b03166367e0e076306040518263ffffffff1660e01b815260040161366f91906151f9565b5f60405180830381865afa158015613689573d5f5f3e3d5ffd5b505050506040513d5f823e601f3d908101601f191682016040526136b09190810190615d9d565b6002546001549195506136ed94508593506001600160801b038082169350600160801b9091041690600160a01b90046001600160401b0316613c98565b91505090565b5f5f5f5f61370186866125f6565b9250925092505f613713848484612713565b5050509050610ddc815f8151811061372d5761372d615a26565b602002602001015182600181518110610c3b57610c3b615a26565b5f610aa5826137578587615a85565b90612945565b5f610aa58461376c8486615a85565b612925565b5f7f00000000000000000000000000000000000000000000000000000000000000006001600160a01b031663aaabadc56040518163ffffffff1660e01b8152600401602060405180830381865afa1580156137ce573d5f5f3e3d5ffd5b505050506040513d601f19601f820116820180604052508101906137f29190616258565b6040516326f8aa2160e21b8152600481018690526001600160a01b03858116602483015284811660448301529190911690639be2a88490606401602060405180830381865afa158015613847573d5f5f3e3d5ffd5b505050506040513d601f19601f82011682018060405250810190610aa591906158dc565b5f6001825160018111156138815761388161554a565b1461389457670de0b6b3a7640000610993565b81602001516001600160a01b031663679aefce6040518163ffffffff1660e01b8152600401602060405180830381865afa1580156111bf573d5f5f3e3d5ffd5b5f6109936138ea670de0b6b3a764000084615a85565b613cb3565b5f806138fb8385615a85565b90506001670de0b6b3a76400006001830304018115150291505092915050565b5f6139376128c4655af3107a4000670de0b6b3a7640000615c9a565b90505f6139556128e9655af3107a4000670de0b6b3a7640000615a72565b90508184108061396457508084115b1561351e57604051633d9f09df60e21b815260040160405180910390fd5b5f614d11600183600181111561399a5761399a61554a565b146139a7576138ef6139ab565b6129455b9050613a0485875f815181106139c3576139c3615a26565b60200260200101516139d59190615a72565b85886001815181106139e9576139e9615a26565b60200260200101516139fb9190615a72565b8363ffffffff16565b9695505050505050565b5f61146a613a1c8380612945565b8490612925565b5f61099382613d38565b5f610993670de0b6b3a7640000613a476138ea8286615a85565b6138ea9190615a85565b5f61099382613d50565b5f61099382613d64565b5f613a736201e6e983615ab0565b61099390670de0b6b3a7640000615c9a565b5f6201e6e9613a9c83670de0b6b3a7640000615c9a565b6109939190615a85565b5f5f5f5f613ab342613a5b565b90508063ffffffff168763ffffffff1603613ad75789895f93509350935050613bd5565b6040805160808101825286546001600160601b03808216808452600160601b83049091166020840181905263ffffffff600160c01b84048116958501869052600160e01b909304909216606084018190528e98508d975092935f93613b40938793929091613d78565b6001600160601b03169050816040015163ffffffff168363ffffffff16118015613b795750816060015163ffffffff168963ffffffff16105b15613b9457613b8a818e8e8e613e57565b9096509450600193505b50505f5f613ba38d8787613f9e565b91509150876001600160401b0316821015613bd157613bc78d8787848e888f61407e565b9096509450600193505b5050505b9750975097945050505050565b5f815f03613c0357604051630a0c22c760e01b815260040160405180910390fd5b5f613c0e8486615a85565b9050600183600183030401811515029150509392505050565b5f81831082841802831861146a565b5f5f5f613c448686866141fd565b9092509050613a048183613524565b5f604051855f5260ff851660205283604052826060526020600160805f60015afa5191503d613c8957638baa579f5f526004601cfd5b5f606052604052949350505050565b5f5f613ca5868686613f9e565b509092111595945050505050565b5f610993826001600160881b03811160071b81811c6001600160481b031060061b1781811c64ffffffffff1060051b1781811c62ffffff1060041b1781811c620100000160b5600192831c1b0260121c80830401811c80830401811c80830401811c80830401811c80830401811c80830401811c80830401901c908190048111900390565b5f600160801b8210613d4c57613d4c614245565b5090565b5f600160601b8210613d4c57613d4c614245565b5f600160201b8210613d4c57613d4c614245565b5f8163ffffffff168663ffffffff1610613d93575082613e4e565b8263ffffffff168663ffffffff1611613dad575083613e4e565b5f613ddf613dbb8585616273565b63ffffffff16613dcb868a616273565b63ffffffff1661292590919063ffffffff16565b90505f613e15613e0583613dff6001600160601b038a8116908c16612925565b90614252565b6001600160601b03891690612945565b90505f613e34886001600160601b0316886001600160601b031661430d565b9050613e48613e438284613c27565b613a51565b93505050505b95945050505050565b5f5f5f5f613e66878787613f9e565b915091505f5f5f83613e945789600181518110613e8557613e85615a26565b6020026020010151888a613eb1565b895f81518110613ea657613ea6615a26565b602002602001015189895b919450925090505f613ec38c80612945565b90505f613ed8670de0b6b3a764000083615c9a565b613ee3906002615a85565b613f30671bc16d674ec80000613efa856004615a85565b613f04908b615a72565b613f0e9190615c9a565b613f18908a615a85565b6138ea906a0c097ce7bc90715b34b9f160241b615a72565b613f4289670de0b6b3a7640000615a72565b613f4c9190615a72565b613f569087615a85565b613f609190615ab0565b90505f84613f6e8584615a85565b613f789190615ab0565b905086613f86578082613f89565b81815b909f909e509c50505050505050505050505050565b5f5f845f81518110613fb257613fb2615a26565b60200260200101515f03613fca57505f905080614076565b84600181518110613fdd57613fdd615a26565b60200260200101515f03613ff657505f90506001614076565b5f83865f8151811061400a5761400a615a26565b602002602001015161401c9190615a85565b90505f8660018151811061403257614032615a26565b6020026020010151866140459190615a85565b9050808211614062576140588282612925565b93505f9250614073565b61406c8183612925565b9350600192505b50505b935093915050565b5f5f5f61408f6127c48b8b8b613c36565b90505f5f886140d2578b6001815181106140ab576140ab615a26565b60200260200101518c5f815181106140c5576140c5615a26565b6020026020010151614108565b8b5f815181106140e4576140e4615a26565b60200260200101518c6001815181106140ff576140ff615a26565b60200260200101515b915091505f5f8a61411a578b8d61411d565b8c8c5b90925090505f61413f6141308a8c616273565b63ffffffff1662278d0061430d565b90506141606128c4614159670de0b6b3a764000084615a85565b8d90614252565b91506141918261418c670de0b6b3a764000061417b8a6138d4565b6141859190615c9a565b8790612925565b613c27565b9150836141aa83613757670de0b6b3a76400008a615c9a565b6141b49190615c9a565b6141be8584615a72565b6141c89087615a85565b6141d29190615ab0565b92508b6141e05781836141e3565b82825b809850819950505050505050505097509795505050505050565b5f5f5f61420d8686866001613982565b90508061421a8580615a85565b6142249190615ab0565b925061423a6142338680612945565b8290612925565b915050935093915050565b6335278d125f526004601cfd5b5f670de0b6b3a76400008203614269575081610993565b61427c670de0b6b3a76400006002615a85565b82036142935761428c8384612945565b9050610993565b6142a6670de0b6b3a76400006004615a85565b82036142cb575f6142b78485612945565b90506142c38182612945565b915050610993565b5f6142d6848461431c565b90505f6142e5826127106138ef565b6142f0906001615a72565b905080821015614304575f92505050610993565b90039050610993565b5f81831182841802831861146a565b5f815f036143335750670de0b6b3a7640000610993565b825f0361434157505f610993565b60ff83901c15614363576040516211380f60e51b815260040160405180910390fd5b8261437b68056bc75e2d63100000600160fe1b615ab0565b831061439a5760405163d831731160e01b815260040160405180910390fd5b825f670c7d713b49da0000831380156143ba5750670f43fc2c04ee000083125b156143f0575f6143c984614452565b9050670de0b6b3a764000080820784020583670de0b6b3a7640000830502019150506143fe565b816143fa8461456f565b0290505b670de0b6b3a76400009005680238fd42c5cf03ffff19811280159061442c575068070c1cc73b00c800008113155b6144495760405163a2f9f7e360e01b815260040160405180910390fd5b613a0481614916565b670de0b6b3a7640000025f806a0c097ce7bc90715b34b9f160241b808401906ec097ce7bc90715b34b9f0fffffffff198501028161449257614492615a9c565b0590505f6a0c097ce7bc90715b34b9f160241b82800205905081806a0c097ce7bc90715b34b9f160241b81840205915060038205016a0c097ce7bc90715b34b9f160241b82840205915060058205016a0c097ce7bc90715b34b9f160241b82840205915060078205016a0c097ce7bc90715b34b9f160241b82840205915060098205016a0c097ce7bc90715b34b9f160241b828402059150600b8205016a0c097ce7bc90715b34b9f160241b828402059150600d8205016a0c097ce7bc90715b34b9f160241b828402059150600f82050160020295945050505050565b5f80670de0b6b3a76400008312156145a657826a0c097ce7bc90715b34b9f160241b8161459e5761459e615a9c565b059250600190505b5f775803bcc5cb9634ba4cfb2213f784019318ed4dcb6017880f60361b84126145f05772195e54c5dd42177f53a27172fa9ec63026282760241b840593506806f05b59d3b2000000015b6f8bcc0026baae9e45e470190267a230cf60191b8412614627576b1425982cf597cd205cef7380840593506803782dace9d9000000015b606493840293026e01855144814a7ff805980ff0084000841261466f576e01855144814a7ff805980ff008400068056bc75e2d63100000850205935068ad78ebc5ac62000000015b6b02df0ab5a80a22c61ab5a70084126146aa576b02df0ab5a80a22c61ab5a70068056bc75e2d6310000085020593506856bc75e2d631000000015b693f1fce3da636ea5cf85084126146e157693f1fce3da636ea5cf85068056bc75e2d631000008502059350682b5e3af16b18800000015b690127fa27722cc06cc5e2841261471857690127fa27722cc06cc5e268056bc75e2d6310000085020593506815af1d78b58c400000015b68280e60114edb805d03841261474d5768280e60114edb805d0368056bc75e2d631000008502059350680ad78ebc5ac6200000015b680ebc5fb41746121110841261477857680ebc5fb4174612111068056bc75e2d631000009485020593015b6808f00f760a4b2db55d84126147ad576808f00f760a4b2db55d68056bc75e2d6310000085020593506802b5e3af16b1880000015b6806f5f177578893793784126147e2576806f5f177578893793768056bc75e2d63100000850205935068015af1d78b58c40000015b6806248f33704b2866038412614816576806248f33704b28660368056bc75e2d63100000850205935067ad78ebc5ac620000015b6805c548670b9510e7ac841261484a576805c548670b9510e7ac68056bc75e2d6310000085020593506756bc75e2d6310000015b5f68056bc75e2d63100000850168056bc75e2d63100000808703028161487257614872615a9c565b0590505f68056bc75e2d63100000828002059050818068056bc75e2d63100000818402059150600382050168056bc75e2d63100000828402059150600582050168056bc75e2d63100000828402059150600782050168056bc75e2d63100000828402059150600982050168056bc75e2d63100000828402059150600b8205016002025f60648683010590508661490857806133d1565b5f0398975050505050505050565b5f680238fd42c5cf03ffff19821215801561493a575068070c1cc73b00c800008213155b6149575760405163d4794efd60e01b815260040160405180910390fd5b5f8083121561496a57825f039250600190505b5f6806f05b59d3b200000084126149a757506806f05b59d3b1ffffff199092019172195e54c5dd42177f53a27172fa9ec63026282760241b6149dd565b6803782dace9d900000084126149d957506803782dace9d8ffffff19909201916b1425982cf597cd205cef73806149dd565b5060015b6064939093029268056bc75e2d6310000068ad78ebc5ac620000008512614a2d5768ad78ebc5ac61ffffff199094019368056bc75e2d631000006e01855144814a7ff805980ff008400082020590505b6856bc75e2d6310000008512614a69576856bc75e2d630ffffff199094019368056bc75e2d631000006b02df0ab5a80a22c61ab5a70082020590505b682b5e3af16b188000008512614aa357682b5e3af16b187fffff199094019368056bc75e2d63100000693f1fce3da636ea5cf85082020590505b6815af1d78b58c4000008512614add576815af1d78b58c3fffff199094019368056bc75e2d63100000690127fa27722cc06cc5e282020590505b680ad78ebc5ac62000008512614b1657680ad78ebc5ac61fffff199094019368056bc75e2d6310000068280e60114edb805d0382020590505b68056bc75e2d631000008512614b4f5768056bc75e2d630fffff199094019368056bc75e2d63100000680ebc5fb4174612111082020590505b6802b5e3af16b18800008512614b88576802b5e3af16b187ffff199094019368056bc75e2d631000006808f00f760a4b2db55d82020590505b68015af1d78b58c400008512614bc15768015af1d78b58c3ffff199094019368056bc75e2d631000006806f5f177578893793782020590505b68056bc75e2d631000008581019086906002908280020505918201919050600368056bc75e2d631000008883020505918201919050600468056bc75e2d631000008883020505918201919050600568056bc75e2d631000008883020505918201919050600668056bc75e2d631000008883020505918201919050600768056bc75e2d631000008883020505918201919050600868056bc75e2d631000008883020505918201919050600968056bc75e2d631000008883020505918201919050600a68056bc75e2d631000008883020505918201919050600b68056bc75e2d631000008883020505918201919050600c68056bc75e2d6310000088830205059182019190505f606468056bc75e2d6310000085850205860205905085614ce65780614d05565b806a0c097ce7bc90715b34b9f160241b81614d0357614d03615a9c565b055b98975050505050505050565b61079e61628f565b5f60208284031215614d29575f5ffd5b81356001600160e01b03198116811461146a575f5ffd5b5f60208284031215614d50575f5ffd5b5035919050565b5f81518084528060208401602086015e5f602082860101526020601f19601f83011685010191505092915050565b602081525f61146a6020830184614d57565b6001600160a01b0381168114610868575f5ffd5b8035614db681614d97565b919050565b5f5f60408385031215614dcc575f5ffd5b8235614dd781614d97565b946020939093013593505050565b634e487b7160e01b5f52604160045260245ffd5b604051608081016001600160401b0381118282101715614e1b57614e1b614de5565b60405290565b60405160e081016001600160401b0381118282101715614e1b57614e1b614de5565b604051606081016001600160401b0381118282101715614e1b57614e1b614de5565b60405161014081016001600160401b0381118282101715614e1b57614e1b614de5565b604051601f8201601f191681016001600160401b0381118282101715614eb057614eb0614de5565b604052919050565b5f6001600160401b03821115614ed057614ed0614de5565b5060051b60200190565b60028110610868575f5ffd5b8035614db681614eda565b8015158114610868575f5ffd5b5f60808284031215614f0e575f5ffd5b50919050565b5f5f5f5f60e08587031215614f27575f5ffd5b8435614f3281614d97565b93506020850135614f4281614d97565b925060408501356001600160401b03811115614f5c575f5ffd5b8501601f81018713614f6c575f5ffd5b8035614f7f614f7a82614eb8565b614e88565b8082825260208201915060208360071b850101925089831115614fa0575f5ffd5b6020840193505b82841015615020576080848b031215614fbe575f5ffd5b614fc6614df9565b8435614fd181614d97565b81526020850135614fe181614eda565b60208201526040850135614ff481614d97565b6040820152606085013561500781614ef1565b6060820152825260809390930192602090910190614fa7565b809550505050506150348660608701614efe565b905092959194509250565b5f82601f83011261504e575f5ffd5b813561505c614f7a82614eb8565b8082825260208201915060208360051b86010192508583111561507d575f5ffd5b602085015b8381101561509a578035835260209283019201615082565b5095945050505050565b5f5f5f606084860312156150b6575f5ffd5b83356001600160401b038111156150cb575f5ffd5b6150d78682870161503f565b9660208601359650604090950135949350505050565b5f82601f8301126150fc575f5ffd5b81356001600160401b0381111561511557615115614de5565b615128601f8201601f1916602001614e88565b81815284602083860101111561513c575f5ffd5b816020850160208301375f918101602001919091529392505050565b5f5f60408385031215615169575f5ffd5b82356001600160401b0381111561517e575f5ffd5b61518a8582860161503f565b92505060208301356001600160401b038111156151a5575f5ffd5b6151b1858286016150ed565b9150509250929050565b5f5f5f606084860312156151cd575f5ffd5b83356151d881614d97565b925060208401356151e881614d97565b929592945050506040919091013590565b6001600160a01b0391909116815260200190565b803560058110614db6575f5ffd5b5f5f5f5f5f5f5f60e0888a031215615231575f5ffd5b873561523c81614d97565b965061524a60208901614dab565b95506152586040890161520d565b945060608801356001600160401b03811115615272575f5ffd5b61527e8a828b0161503f565b9450506080880135925060a08801356001600160401b038111156152a0575f5ffd5b6152ac8a828b0161503f565b92505060c08801356001600160401b038111156152c7575f5ffd5b6152d38a828b016150ed565b91505092959891949750929550565b5f602082840312156152f2575f5ffd5b813561146a81614d97565b5f6020828403121561530d575f5ffd5b81356001600160401b03811115615322575f5ffd5b820160e08185031215615333575f5ffd5b61533b614e21565b61534482614ee6565b81526020828101359082015260408201356001600160401b03811115615368575f5ffd5b6153748682850161503f565b604083015250606082810135908201526080808301359082015261539a60a08301614dab565b60a082015260c08201356001600160401b038111156153b7575f5ffd5b6153c3868285016150ed565b60c083015250949350505050565b918252602082015260400190565b5f8151808452602084019350602083015f5b8281101561540f5781518652602095860195909101906001016153f1565b5093949350505050565b60ff60f81b8816815260e060208201525f61543760e0830189614d57565b82810360408401526154498189614d57565b606084018890526001600160a01b038716608085015260a0840186905283810360c0850152905061547a81856153df565b9a9950505050505050505050565b5f5f60408385031215615499575f5ffd5b82356001600160401b038111156154ae575f5ffd5b6154ba8582860161503f565b92505060208301356154cb81614eda565b809150509250929050565b5f5f5f606084860312156154e8575f5ffd5b505081359360208301359350604090920135919050565b5f8151808452602084019350602083015f5b8281101561540f5781516001600160a01b0316865260209586019590910190600101615511565b602081525f61146a60208301846154ff565b634e487b7160e01b5f52602160045260245ffd5b6002811061556e5761556e61554a565b9052565b608081525f61558460808301876154ff565b82810360208401528086518083526020830191506020880192505f5b818110156155ea5783516155b584825161555e565b6020818101516001600160a01b03168582015260409182015115159185019190915293909301926060909201916001016155a0565b505083810360408501526155fe81876153df565b9150508281036060840152610ddc81856153df565b602081525f61146a60208301846153df565b803560048110614db6575f5ffd5b5f5f5f5f5f5f5f60e0888a031215615649575f5ffd5b873561565481614d97565b965061566260208901614dab565b955061567060408901615625565b94506060880135935060808801356001600160401b03811115615691575f5ffd5b61569d8a828b0161503f565b93505060a08801356001600160401b038111156152a0575f5ffd5b60ff81168114610868575f5ffd5b5f5f5f5f5f5f5f60e0888a0312156156dc575f5ffd5b87356156e781614d97565b965060208801356156f781614d97565b955060408801359450606088013593506080880135615715816156b8565b9699959850939692959460a0840135945060c09093013592915050565b81511515815261014081016020830151615750602084018215159052565b506040830151615764604084018215159052565b506060830151615778606084018215159052565b50608083015161578c608084018215159052565b5060a08301516157a060a084018215159052565b5060c08301516157b460c084018215159052565b5060e08301516157c860e084018215159052565b506101008301516157de61010084018215159052565b506101208301516157f461012084018215159052565b5092915050565b5f5f6040838503121561580c575f5ffd5b823561581781614d97565b915060208301356154cb81614d97565b5f6060828403128015615838575f5ffd5b50615841614e43565b825161584c81614d97565b8152602083015161585c81614d97565b6020820152604083015161586f81614d97565b60408201529392505050565b600181811c9082168061588f57607f821691505b602082108103614f0e57634e487b7160e01b5f52602260045260245ffd5b6001600160a01b039384168152919092166020820152604081019190915260600190565b8051614db681614ef1565b5f602082840312156158ec575f5ffd5b815161146a81614ef1565b5f60208284031215615907575f5ffd5b813561146a81614ef1565b803561591d81614ef1565b15158252602081013561592f81614ef1565b15156020830152604081013561594481614ef1565b15156040830152606081013561595981614ef1565b8015156060840152505050565b6001600160a01b038581168252841660208083019190915260e06040830181905284519083018190525f91850190610100840190835b818110156159fb57835180516001600160a01b03168452602080820151906159c69086018261555e565b506040818101516001600160a01b0316908501526060908101511515908401526020939093019260809092019160010161599c565b50508092505050613e4e6060830184615912565b5f60208284031215615a1f575f5ffd5b5051919050565b634e487b7160e01b5f52603260045260245ffd5b604081525f615a4c60408301856153df565b8281036020840152613e4e8185614d57565b634e487b7160e01b5f52601160045260245ffd5b8082018082111561099357610993615a5e565b808202811582820484141761099357610993615a5e565b634e487b7160e01b5f52601260045260245ffd5b5f82615aca57634e487b7160e01b5f52601260045260245ffd5b500490565b6001600160a01b038881168252871660208201525f60058710615af457615af461554a565b86604083015260e06060830152615b0e60e08301876153df565b85608084015282810360a0840152615b2681866153df565b905082810360c084015261547a8185614d57565b6001600160a01b0392831681529116602082015260400190565b5f60808284031215615b64575f5ffd5b615b6c614df9565b90508151615b7981614ef1565b81526020820151615b8981614ef1565b60208201526040820151615b9c81614ef1565b60408201526060820151615baf81614ef1565b606082015292915050565b805164ffffffffff81168114614db6575f5ffd5b805163ffffffff81168114614db6575f5ffd5b5f6101a0828403128015615bf3575f5ffd5b50615bfc614e65565b615c068484615b54565b81526080830151602082015260a0830151604082015260c08301516060820152615c3260e08401615bba565b6080820152615c446101008401615bce565b60a0820152615c5661012084016158d1565b60c0820152615c6861014084016158d1565b60e0820152615c7a61016084016158d1565b610100820152615c8d61018084016158d1565b6101208201529392505050565b8181038181111561099357610993615a5e565b5f82601f830112615cbc575f5ffd5b8151615cca614f7a82614eb8565b8082825260208201915060208360051b860101925085831115615ceb575f5ffd5b602085015b8381101561509a578051615d0381614d97565b835260209283019201615cf0565b5f60208284031215615d21575f5ffd5b81516001600160401b03811115615d36575f5ffd5b610aa584828501615cad565b5f82601f830112615d51575f5ffd5b8151615d5f614f7a82614eb8565b8082825260208201915060208360051b860101925085831115615d80575f5ffd5b602085015b8381101561509a578051835260209283019201615d85565b5f5f5f5f60808587031215615db0575f5ffd5b84516001600160401b03811115615dc5575f5ffd5b615dd187828801615cad565b602087015190955090506001600160401b03811115615dee575f5ffd5b8501601f81018713615dfe575f5ffd5b8051615e0c614f7a82614eb8565b80828252602082019150602060608402850101925089831115615e2d575f5ffd5b6020840193505b82841015615e9a576060848b031215615e4b575f5ffd5b615e53614e43565b8451615e5e81614eda565b81526020850151615e6e81614d97565b60208201526040850151615e8181614ef1565b6040820152825260609390930192602090910190615e34565b6040890151909650925050506001600160401b03811115615eb9575f5ffd5b615ec587828801615d42565b606087015190935090506001600160401b03811115615ee2575f5ffd5b615eee87828801615d42565b91505092959194509250565b5f60208284031215615f0a575f5ffd5b81516001600160401b03811115615f1f575f5ffd5b610aa584828501615d42565b6001600160a01b038881168252871660208201525f60048710615f5057615f5061554a565b86604083015285606083015260e06080830152615f7060e08301866153df565b82810360a0840152615b2681866153df565b5f610140828403128015615f94575f5ffd5b50615f9d614e65565b615fa6836158d1565b8152615fb4602084016158d1565b6020820152615fc5604084016158d1565b6040820152615fd6606084016158d1565b6060820152615fe7608084016158d1565b6080820152615ff860a084016158d1565b60a082015261600960c084016158d1565b60c082015261601a60e084016158d1565b60e082015261602c61010084016158d1565b610100820152615c8d61012084016158d1565b5f6020828403121561604f575f5ffd5b815161146a816156b8565b6001815b60018411156140765780850481111561607957616079615a5e565b600184161561608757908102905b60019390931c92800261605e565b5f826160a357506001610993565b816160af57505f610993565b81600181146160c557600281146160cf576160eb565b6001915050610993565b60ff8411156160e0576160e0615a5e565b50506001821b610993565b5060208310610133831016604e8410600b841016171561610e575081810a610993565b61611a5f19848461605a565b805f190482111561612d5761612d615a5e565b029392505050565b5f61146a8383616095565b75159a5c9d1d585b10985b185b98d95cd55c19185d195960521b8152604060208201525f61146a6040830184614d57565b93845260208401929092526040830152606082015260800190565b75141c9a58d954985d1a5bd4dd185d19555c19185d195960521b8152604060208201525f61146a6040830184614d57565b7f4461696c79507269636553686966744578706f6e656e745570646174656400008152604060208201525f61146a6040830184614d57565b7810d95b9d195c99591b995cdcd3585c99da5b955c19185d1959603a1b8152604060208201525f61146a6040830184614d57565b7313185cdd151a5b595cdd185b5c155c19185d195960621b8152604060208201525f61146a6040830184614d57565b5f60208284031215616268575f5ffd5b815161146a81614d97565b63ffffffff828116828216039081111561099357610993615a5e565b634e487b7160e01b5f52605160045260245ffdfe6e71edae12b1b97f4d1f60370fef10105fa2faae0126114a169c64845d6126c9a264697066735822122003e57b9c85eebbb3622b755c8365912089721ac0b23dded4d3620fc895b867ad64736f6c634300081e0033","linkReferences":{}},"methodIdentifiers":{"create(string,string,(address,uint8,address,bool)[],(address,address,address),uint256,address,(uint256,uint256,uint256,bool,bool),uint256,uint256,bytes32)":"eed211b1","disable()":"2f2770db","getActionId(bytes4)":"851c1bb3","getAuthorizer()":"aaabadc5","getCreationCode()":"00c194db","getCreationCodeContracts()":"174481fa","getDefaultLiquidityManagement()":"193ad50f","getDefaultPoolHooksContract()":"ec888061","getDeploymentAddress(bytes,bytes32)":"44f6fec7","getDeploymentAddress(bytes32)":"337d4010","getNewPoolPauseWindowEndTime()":"db035ebc","getOriginalPauseWindowEndTime()":"e9d56e19","getPauseWindowDuration()":"78da80cb","getPoolCount()":"8eec5d70","getPoolVersion()":"3f819b6f","getPools()":"673a2a1f","getPoolsInRange(uint256,uint256)":"53a72f7e","getVault()":"8d928af8","isDisabled()":"6c57f5a9","isPoolFromFactory(address)":"6634b753","version()":"54fd4d50"},"id":909}