{"abi":[{"type":"constructor","inputs":[{"name":"vat_","type":"address","internalType":"address"}],"stateMutability":"nonpayable"},{"type":"function","name":"bite","inputs":[{"name":"ilk","type":"bytes32","internalType":"bytes32"},{"name":"urn","type":"address","internalType":"address"}],"outputs":[{"name":"id","type":"uint256","internalType":"uint256"}],"stateMutability":"nonpayable"},{"type":"function","name":"box","inputs":[],"outputs":[{"name":"","type":"uint256","internalType":"uint256"}],"stateMutability":"view"},{"type":"function","name":"cage","inputs":[],"outputs":[],"stateMutability":"nonpayable"},{"type":"function","name":"claw","inputs":[{"name":"rad","type":"uint256","internalType":"uint256"}],"outputs":[],"stateMutability":"nonpayable"},{"type":"function","name":"deny","inputs":[{"name":"usr","type":"address","internalType":"address"}],"outputs":[],"stateMutability":"nonpayable"},{"type":"function","name":"file","inputs":[{"name":"ilk","type":"bytes32","internalType":"bytes32"},{"name":"what","type":"bytes32","internalType":"bytes32"},{"name":"data","type":"uint256","internalType":"uint256"}],"outputs":[],"stateMutability":"nonpayable"},{"type":"function","name":"file","inputs":[{"name":"what","type":"bytes32","internalType":"bytes32"},{"name":"data","type":"uint256","internalType":"uint256"}],"outputs":[],"stateMutability":"nonpayable"},{"type":"function","name":"file","inputs":[{"name":"what","type":"bytes32","internalType":"bytes32"},{"name":"data","type":"address","internalType":"address"}],"outputs":[],"stateMutability":"nonpayable"},{"type":"function","name":"file","inputs":[{"name":"ilk","type":"bytes32","internalType":"bytes32"},{"name":"what","type":"bytes32","internalType":"bytes32"},{"name":"flip","type":"address","internalType":"address"}],"outputs":[],"stateMutability":"nonpayable"},{"type":"function","name":"ilks","inputs":[{"name":"","type":"bytes32","internalType":"bytes32"}],"outputs":[{"name":"flip","type":"address","internalType":"address"},{"name":"chop","type":"uint256","internalType":"uint256"},{"name":"dunk","type":"uint256","internalType":"uint256"}],"stateMutability":"view"},{"type":"function","name":"litter","inputs":[],"outputs":[{"name":"","type":"uint256","internalType":"uint256"}],"stateMutability":"view"},{"type":"function","name":"live","inputs":[],"outputs":[{"name":"","type":"uint256","internalType":"uint256"}],"stateMutability":"view"},{"type":"function","name":"rely","inputs":[{"name":"usr","type":"address","internalType":"address"}],"outputs":[],"stateMutability":"nonpayable"},{"type":"function","name":"vat","inputs":[],"outputs":[{"name":"","type":"address","internalType":"contract VatLike"}],"stateMutability":"view"},{"type":"function","name":"vow","inputs":[],"outputs":[{"name":"","type":"address","internalType":"contract VowLike"}],"stateMutability":"view"},{"type":"function","name":"wards","inputs":[{"name":"","type":"address","internalType":"address"}],"outputs":[{"name":"","type":"uint256","internalType":"uint256"}],"stateMutability":"view"},{"type":"event","name":"Bite","inputs":[{"name":"ilk","type":"bytes32","indexed":true,"internalType":"bytes32"},{"name":"urn","type":"address","indexed":true,"internalType":"address"},{"name":"ink","type":"uint256","indexed":false,"internalType":"uint256"},{"name":"art","type":"uint256","indexed":false,"internalType":"uint256"},{"name":"tab","type":"uint256","indexed":false,"internalType":"uint256"},{"name":"flip","type":"address","indexed":false,"internalType":"address"},{"name":"id","type":"uint256","indexed":false,"internalType":"uint256"}],"anonymous":false}],"bytecode":{"object":"0x6080604052348015600e575f5ffd5b50604051610eba380380610eba833981016040819052602b916067565b335f908152602081905260409020600190819055600380546001600160a01b0319166001600160a01b0393909316929092179091556002556092565b5f602082840312156076575f5ffd5b81516001600160a01b0381168114608b575f5ffd5b9392505050565b610e1b8061009f5f395ff3fe608060405234801561000f575f5ffd5b50600436106100ce575f3560e01c80631a0b287e146100d257806329ae8114146100e757806336569e77146100fa57806345cf223014610123578063626cb3c51461014457806365fae35e14610157578063692450091461016a578063754215a114610172578063957aa58c1461017b5780639c52a7f114610184578063a4fe8caf14610197578063bf353dbb146101a0578063d4e8be83146101bf578063d9638d36146101d2578063e66d279b14610230578063ebecb39d14610243575b5f5ffd5b6100e56100e0366004610be0565b610256565b005b6100e56100f5366004610c09565b610320565b60035461010d906001600160a01b031681565b60405161011a9190610c29565b60405180910390f35b610136610131366004610c58565b610361565b60405190815260200161011a565b60045461010d906001600160a01b031681565b6100e5610165366004610c82565b6108ee565b6100e5610938565b61013660055481565b61013660025481565b6100e5610192366004610c82565b61096c565b61013660065481565b6101366101ae366004610c82565b5f6020819052908152604090205481565b6100e56101cd366004610c58565b6109b3565b61020b6101e0366004610ca2565b600160208190525f91825260409091208054918101546002909101546001600160a01b039092169183565b604080516001600160a01b03909416845260208401929092529082015260600161011a565b6100e561023e366004610ca2565b610a0f565b6100e5610251366004610cb9565b610a4f565b335f9081526020819052604090205460011461028d5760405162461bcd60e51b815260040161028490610ceb565b60405180910390fd5b8163063686f760e41b036102b4575f83815260016020819052604090912001819055505050565b816364756e6b60e01b036102da575f838152600160205260409020600201819055505050565b60405162461bcd60e51b815260206004820152601b60248201527a4361742f66696c652d756e7265636f676e697a65642d706172616d60281b6044820152606401610284565b335f9081526020819052604090205460011461034e5760405162461bcd60e51b815260040161028490610ceb565b81620c4def60eb1b036102da5760055550565b600354604051636cb1c69b60e11b8152600481018490525f918291829182916001600160a01b039091169063d9638d369060240160a060405180830381865afa1580156103b0573d5f5f3e3d5ffd5b505050506040513d601f19601f820116820180604052508101906103d49190610d17565b6003546040516309092f9760e21b8152600481018d90526001600160a01b038c811660248301529599509397509095505f945084931691632424be5c91506044016040805180830381865afa15801561042f573d5f5f3e3d5ffd5b505050506040513d601f19601f820116820180604052508101906104539190610d53565b915091506002546001146104985760405162461bcd60e51b815260206004820152600c60248201526b4361742f6e6f742d6c69766560a01b6044820152606401610284565b5f841180156104b857506104ac8186610b7d565b6104b68386610b7d565b105b6104f55760405162461bcd60e51b815260206004820152600e60248201526d4361742f6e6f742d756e7361666560901b6044820152606401610284565b5f888152600160208181526040808420815160608101835281546001600160a01b03168152938101549284019290925260029091015490820152600554600654919291829161054391610bab565b90506005546006541080156105585750858110155b6105a05760405162461bcd60e51b815260206004820152601960248201527810d85d0bdb1a5c5d5a59185d1a5bdb8b5b1a5b5a5d0b5a1a5d603a1b6044820152606401610284565b6105e28484602001518a6105c96105bb886040015187610bba565b670de0b6b3a7640000610b7d565b6105d39190610d89565b6105dd9190610d89565b610bba565b9150505f6105f585856105d38886610b7d565b90505f8211801561060557505f81115b6106445760405162461bcd60e51b815260206004820152601060248201526f21b0ba17b73ab63616b0bab1ba34b7b760811b6044820152606401610284565b600160ff1b821115801561065c5750600160ff1b8111155b6106975760405162461bcd60e51b815260206004820152600c60248201526b4361742f6f766572666c6f7760a01b6044820152606401610284565b6003546004546001600160a01b0391821691637bab3f40918e918e913091166106bf87610da8565b6106c889610da8565b6040516001600160e01b031960e089901b16815260048101969096526001600160a01b039485166024870152928416604486015292166064840152608483019190915260a482015260c4015f604051808303815f87803b15801561072a575f5ffd5b505af115801561073c573d5f5f3e3d5ffd5b50506004546001600160a01b0316915063697efb78905061075d848b610b7d565b6040518263ffffffff1660e01b815260040161077b91815260200190565b5f604051808303815f87803b158015610792575f5ffd5b505af11580156107a4573d5f5f3e3d5ffd5b505050505f670de0b6b3a76400006107c96107bf858c610b7d565b8660200151610b7d565b6107d39190610d89565b90506107e160065482610bd1565b600655835160048054604051621a8ef360e91b81526001600160a01b038f811693820193909352908216602482015260448101849052606481018590525f608482015291169063351de6009060a4016020604051808303815f875af115801561084c573d5f5f3e3d5ffd5b505050506040513d601f19601f820116820180604052508101906108709190610dce565b995050896001600160a01b03168b7fa716da86bc1fb6d43d1493373f34d7a418b619681cd7b90f7ea667ba1489be2883856108ab878e610b7d565b8851604080519485526020850193909352918301526001600160a01b03166060820152608081018d905260a00160405180910390a3505050505050505092915050565b335f9081526020819052604090205460011461091c5760405162461bcd60e51b815260040161028490610ceb565b6001600160a01b03165f90815260208190526040902060019055565b335f908152602081905260409020546001146109665760405162461bcd60e51b815260040161028490610ceb565b5f600255565b335f9081526020819052604090205460011461099a5760405162461bcd60e51b815260040161028490610ceb565b6001600160a01b03165f90815260208190526040812055565b335f908152602081905260409020546001146109e15760405162461bcd60e51b815260040161028490610ceb565b8162766f7760e81b036102da57600480546001600160a01b0383166001600160a01b03199091161790555050565b335f90815260208190526040902054600114610a3d5760405162461bcd60e51b815260040161028490610ceb565b610a4960065482610bab565b60065550565b335f90815260208190526040902054600114610a7d5760405162461bcd60e51b815260040161028490610ceb565b81630666c69760e41b036102da576003545f8481526001602052604090819020549051636e26907d60e11b81526001600160a01b039283169263dc4d20fa92610acb92911690600401610c29565b5f604051808303815f87803b158015610ae2575f5ffd5b505af1158015610af4573d5f5f3e3d5ffd5b5050505f848152600160205260409081902080546001600160a01b0319166001600160a01b038581169190911790915560035491516328ec8bf160e21b81529116915063a3b22fc490610b4b908490600401610c29565b5f604051808303815f87803b158015610b62575f5ffd5b505af1158015610b74573d5f5f3e3d5ffd5b50505050505050565b5f811580610b9d57505080820282828281610b9a57610b9a610d75565b04145b610ba5575f5ffd5b92915050565b80820382811115610ba5575f5ffd5b5f81831115610bca575080610ba5565b5090919050565b80820182811015610ba5575f5ffd5b5f5f5f60608486031215610bf2575f5ffd5b505081359360208301359350604090920135919050565b5f5f60408385031215610c1a575f5ffd5b50508035926020909101359150565b6001600160a01b0391909116815260200190565b80356001600160a01b0381168114610c53575f5ffd5b919050565b5f5f60408385031215610c69575f5ffd5b82359150610c7960208401610c3d565b90509250929050565b5f60208284031215610c92575f5ffd5b610c9b82610c3d565b9392505050565b5f60208284031215610cb2575f5ffd5b5035919050565b5f5f5f60608486031215610ccb575f5ffd5b8335925060208401359150610ce260408501610c3d565b90509250925092565b60208082526012908201527110d85d0bdb9bdd0b585d5d1a1bdc9a5e995960721b604082015260600190565b5f5f5f5f5f60a08688031215610d2b575f5ffd5b5050835160208501516040860151606087015160809097015192989197509594509092509050565b5f5f60408385031215610d64575f5ffd5b505080516020909101519092909150565b634e487b7160e01b5f52601260045260245ffd5b5f82610da357634e487b7160e01b5f52601260045260245ffd5b500490565b5f600160ff1b8201610dc857634e487b7160e01b5f52601160045260245ffd5b505f0390565b5f60208284031215610dde575f5ffd5b505191905056fea26469706673582212202f6362c45c73b9ed2f828d3d9fd69745313496254b5dcfe9936a32ab1571e99a64736f6c634300081e0033","linkReferences":{}},"methodIdentifiers":{"bite(bytes32,address)":"45cf2230","box()":"754215a1","cage()":"69245009","claw(uint256)":"e66d279b","deny(address)":"9c52a7f1","file(bytes32,address)":"d4e8be83","file(bytes32,bytes32,address)":"ebecb39d","file(bytes32,bytes32,uint256)":"1a0b287e","file(bytes32,uint256)":"29ae8114","ilks(bytes32)":"d9638d36","litter()":"a4fe8caf","live()":"957aa58c","rely(address)":"65fae35e","vat()":"36569e77","vow()":"626cb3c5","wards(address)":"bf353dbb"},"id":682}