{"abi":[{"type":"constructor","inputs":[{"name":"_poolManager","type":"address","internalType":"contract IPoolManager"},{"name":"_permit2","type":"address","internalType":"contract IAllowanceTransfer"},{"name":"_unsubscribeGasLimit","type":"uint256","internalType":"uint256"},{"name":"_tokenDescriptor","type":"address","internalType":"contract IPositionDescriptor"},{"name":"_weth9","type":"address","internalType":"contract IWETH9"}],"stateMutability":"nonpayable"},{"type":"receive","stateMutability":"payable"},{"type":"function","name":"DOMAIN_SEPARATOR","inputs":[],"outputs":[{"name":"","type":"bytes32","internalType":"bytes32"}],"stateMutability":"view"},{"type":"function","name":"WETH9","inputs":[],"outputs":[{"name":"","type":"address","internalType":"contract IWETH9"}],"stateMutability":"view"},{"type":"function","name":"approve","inputs":[{"name":"spender","type":"address","internalType":"address"},{"name":"id","type":"uint256","internalType":"uint256"}],"outputs":[],"stateMutability":"nonpayable"},{"type":"function","name":"balanceOf","inputs":[{"name":"owner","type":"address","internalType":"address"}],"outputs":[{"name":"","type":"uint256","internalType":"uint256"}],"stateMutability":"view"},{"type":"function","name":"getApproved","inputs":[{"name":"","type":"uint256","internalType":"uint256"}],"outputs":[{"name":"","type":"address","internalType":"address"}],"stateMutability":"view"},{"type":"function","name":"getPoolAndPositionInfo","inputs":[{"name":"tokenId","type":"uint256","internalType":"uint256"}],"outputs":[{"name":"poolKey","type":"tuple","internalType":"struct PoolKey","components":[{"name":"currency0","type":"address","internalType":"Currency"},{"name":"currency1","type":"address","internalType":"Currency"},{"name":"fee","type":"uint24","internalType":"uint24"},{"name":"tickSpacing","type":"int24","internalType":"int24"},{"name":"hooks","type":"address","internalType":"contract IHooks"}]},{"name":"info","type":"uint256","internalType":"PositionInfo"}],"stateMutability":"view"},{"type":"function","name":"getPositionLiquidity","inputs":[{"name":"tokenId","type":"uint256","internalType":"uint256"}],"outputs":[{"name":"liquidity","type":"uint128","internalType":"uint128"}],"stateMutability":"view"},{"type":"function","name":"initializePool","inputs":[{"name":"key","type":"tuple","internalType":"struct PoolKey","components":[{"name":"currency0","type":"address","internalType":"Currency"},{"name":"currency1","type":"address","internalType":"Currency"},{"name":"fee","type":"uint24","internalType":"uint24"},{"name":"tickSpacing","type":"int24","internalType":"int24"},{"name":"hooks","type":"address","internalType":"contract IHooks"}]},{"name":"sqrtPriceX96","type":"uint160","internalType":"uint160"}],"outputs":[{"name":"","type":"int24","internalType":"int24"}],"stateMutability":"payable"},{"type":"function","name":"isApprovedForAll","inputs":[{"name":"","type":"address","internalType":"address"},{"name":"","type":"address","internalType":"address"}],"outputs":[{"name":"","type":"bool","internalType":"bool"}],"stateMutability":"view"},{"type":"function","name":"modifyLiquidities","inputs":[{"name":"unlockData","type":"bytes","internalType":"bytes"},{"name":"deadline","type":"uint256","internalType":"uint256"}],"outputs":[],"stateMutability":"payable"},{"type":"function","name":"modifyLiquiditiesWithoutUnlock","inputs":[{"name":"actions","type":"bytes","internalType":"bytes"},{"name":"params","type":"bytes[]","internalType":"bytes[]"}],"outputs":[],"stateMutability":"payable"},{"type":"function","name":"msgSender","inputs":[],"outputs":[{"name":"","type":"address","internalType":"address"}],"stateMutability":"view"},{"type":"function","name":"multicall","inputs":[{"name":"data","type":"bytes[]","internalType":"bytes[]"}],"outputs":[{"name":"results","type":"bytes[]","internalType":"bytes[]"}],"stateMutability":"payable"},{"type":"function","name":"name","inputs":[],"outputs":[{"name":"","type":"string","internalType":"string"}],"stateMutability":"view"},{"type":"function","name":"nextTokenId","inputs":[],"outputs":[{"name":"","type":"uint256","internalType":"uint256"}],"stateMutability":"view"},{"type":"function","name":"nonces","inputs":[{"name":"owner","type":"address","internalType":"address"},{"name":"word","type":"uint256","internalType":"uint256"}],"outputs":[{"name":"bitmap","type":"uint256","internalType":"uint256"}],"stateMutability":"view"},{"type":"function","name":"ownerOf","inputs":[{"name":"id","type":"uint256","internalType":"uint256"}],"outputs":[{"name":"owner","type":"address","internalType":"address"}],"stateMutability":"view"},{"type":"function","name":"permit","inputs":[{"name":"spender","type":"address","internalType":"address"},{"name":"tokenId","type":"uint256","internalType":"uint256"},{"name":"deadline","type":"uint256","internalType":"uint256"},{"name":"nonce","type":"uint256","internalType":"uint256"},{"name":"signature","type":"bytes","internalType":"bytes"}],"outputs":[],"stateMutability":"payable"},{"type":"function","name":"permit","inputs":[{"name":"owner","type":"address","internalType":"address"},{"name":"permitSingle","type":"tuple","internalType":"struct IAllowanceTransfer.PermitSingle","components":[{"name":"details","type":"tuple","internalType":"struct IAllowanceTransfer.PermitDetails","components":[{"name":"token","type":"address","internalType":"address"},{"name":"amount","type":"uint160","internalType":"uint160"},{"name":"expiration","type":"uint48","internalType":"uint48"},{"name":"nonce","type":"uint48","internalType":"uint48"}]},{"name":"spender","type":"address","internalType":"address"},{"name":"sigDeadline","type":"uint256","internalType":"uint256"}]},{"name":"signature","type":"bytes","internalType":"bytes"}],"outputs":[{"name":"err","type":"bytes","internalType":"bytes"}],"stateMutability":"payable"},{"type":"function","name":"permit2","inputs":[],"outputs":[{"name":"","type":"address","internalType":"contract IAllowanceTransfer"}],"stateMutability":"view"},{"type":"function","name":"permitBatch","inputs":[{"name":"owner","type":"address","internalType":"address"},{"name":"_permitBatch","type":"tuple","internalType":"struct IAllowanceTransfer.PermitBatch","components":[{"name":"details","type":"tuple[]","internalType":"struct IAllowanceTransfer.PermitDetails[]","components":[{"name":"token","type":"address","internalType":"address"},{"name":"amount","type":"uint160","internalType":"uint160"},{"name":"expiration","type":"uint48","internalType":"uint48"},{"name":"nonce","type":"uint48","internalType":"uint48"}]},{"name":"spender","type":"address","internalType":"address"},{"name":"sigDeadline","type":"uint256","internalType":"uint256"}]},{"name":"signature","type":"bytes","internalType":"bytes"}],"outputs":[{"name":"err","type":"bytes","internalType":"bytes"}],"stateMutability":"payable"},{"type":"function","name":"permitForAll","inputs":[{"name":"owner","type":"address","internalType":"address"},{"name":"operator","type":"address","internalType":"address"},{"name":"approved","type":"bool","internalType":"bool"},{"name":"deadline","type":"uint256","internalType":"uint256"},{"name":"nonce","type":"uint256","internalType":"uint256"},{"name":"signature","type":"bytes","internalType":"bytes"}],"outputs":[],"stateMutability":"payable"},{"type":"function","name":"poolKeys","inputs":[{"name":"poolId","type":"bytes25","internalType":"bytes25"}],"outputs":[{"name":"currency0","type":"address","internalType":"Currency"},{"name":"currency1","type":"address","internalType":"Currency"},{"name":"fee","type":"uint24","internalType":"uint24"},{"name":"tickSpacing","type":"int24","internalType":"int24"},{"name":"hooks","type":"address","internalType":"contract IHooks"}],"stateMutability":"view"},{"type":"function","name":"poolManager","inputs":[],"outputs":[{"name":"","type":"address","internalType":"contract IPoolManager"}],"stateMutability":"view"},{"type":"function","name":"positionInfo","inputs":[{"name":"tokenId","type":"uint256","internalType":"uint256"}],"outputs":[{"name":"info","type":"uint256","internalType":"PositionInfo"}],"stateMutability":"view"},{"type":"function","name":"revokeNonce","inputs":[{"name":"nonce","type":"uint256","internalType":"uint256"}],"outputs":[],"stateMutability":"payable"},{"type":"function","name":"safeTransferFrom","inputs":[{"name":"from","type":"address","internalType":"address"},{"name":"to","type":"address","internalType":"address"},{"name":"id","type":"uint256","internalType":"uint256"}],"outputs":[],"stateMutability":"nonpayable"},{"type":"function","name":"safeTransferFrom","inputs":[{"name":"from","type":"address","internalType":"address"},{"name":"to","type":"address","internalType":"address"},{"name":"id","type":"uint256","internalType":"uint256"},{"name":"data","type":"bytes","internalType":"bytes"}],"outputs":[],"stateMutability":"nonpayable"},{"type":"function","name":"setApprovalForAll","inputs":[{"name":"operator","type":"address","internalType":"address"},{"name":"approved","type":"bool","internalType":"bool"}],"outputs":[],"stateMutability":"nonpayable"},{"type":"function","name":"subscribe","inputs":[{"name":"tokenId","type":"uint256","internalType":"uint256"},{"name":"newSubscriber","type":"address","internalType":"address"},{"name":"data","type":"bytes","internalType":"bytes"}],"outputs":[],"stateMutability":"payable"},{"type":"function","name":"subscriber","inputs":[{"name":"tokenId","type":"uint256","internalType":"uint256"}],"outputs":[{"name":"subscriber","type":"address","internalType":"contract ISubscriber"}],"stateMutability":"view"},{"type":"function","name":"supportsInterface","inputs":[{"name":"interfaceId","type":"bytes4","internalType":"bytes4"}],"outputs":[{"name":"","type":"bool","internalType":"bool"}],"stateMutability":"view"},{"type":"function","name":"symbol","inputs":[],"outputs":[{"name":"","type":"string","internalType":"string"}],"stateMutability":"view"},{"type":"function","name":"tokenDescriptor","inputs":[],"outputs":[{"name":"","type":"address","internalType":"contract IPositionDescriptor"}],"stateMutability":"view"},{"type":"function","name":"tokenURI","inputs":[{"name":"tokenId","type":"uint256","internalType":"uint256"}],"outputs":[{"name":"","type":"string","internalType":"string"}],"stateMutability":"view"},{"type":"function","name":"transferFrom","inputs":[{"name":"from","type":"address","internalType":"address"},{"name":"to","type":"address","internalType":"address"},{"name":"id","type":"uint256","internalType":"uint256"}],"outputs":[],"stateMutability":"nonpayable"},{"type":"function","name":"unlockCallback","inputs":[{"name":"data","type":"bytes","internalType":"bytes"}],"outputs":[{"name":"","type":"bytes","internalType":"bytes"}],"stateMutability":"nonpayable"},{"type":"function","name":"unsubscribe","inputs":[{"name":"tokenId","type":"uint256","internalType":"uint256"}],"outputs":[],"stateMutability":"payable"},{"type":"function","name":"unsubscribeGasLimit","inputs":[],"outputs":[{"name":"","type":"uint256","internalType":"uint256"}],"stateMutability":"view"},{"type":"event","name":"Approval","inputs":[{"name":"owner","type":"address","indexed":true,"internalType":"address"},{"name":"spender","type":"address","indexed":true,"internalType":"address"},{"name":"id","type":"uint256","indexed":true,"internalType":"uint256"}],"anonymous":false},{"type":"event","name":"ApprovalForAll","inputs":[{"name":"owner","type":"address","indexed":true,"internalType":"address"},{"name":"operator","type":"address","indexed":true,"internalType":"address"},{"name":"approved","type":"bool","indexed":false,"internalType":"bool"}],"anonymous":false},{"type":"event","name":"Subscription","inputs":[{"name":"tokenId","type":"uint256","indexed":true,"internalType":"uint256"},{"name":"subscriber","type":"address","indexed":true,"internalType":"address"}],"anonymous":false},{"type":"event","name":"Transfer","inputs":[{"name":"from","type":"address","indexed":true,"internalType":"address"},{"name":"to","type":"address","indexed":true,"internalType":"address"},{"name":"id","type":"uint256","indexed":true,"internalType":"uint256"}],"anonymous":false},{"type":"event","name":"Unsubscription","inputs":[{"name":"tokenId","type":"uint256","indexed":true,"internalType":"uint256"},{"name":"subscriber","type":"address","indexed":true,"internalType":"address"}],"anonymous":false},{"type":"error","name":"AlreadySubscribed","inputs":[{"name":"tokenId","type":"uint256","internalType":"uint256"},{"name":"subscriber","type":"address","internalType":"address"}]},{"type":"error","name":"BurnNotificationReverted","inputs":[{"name":"subscriber","type":"address","internalType":"address"},{"name":"selector","type":"bytes4","internalType":"bytes4"}]},{"type":"error","name":"ContractLocked","inputs":[]},{"type":"error","name":"DeadlinePassed","inputs":[{"name":"deadline","type":"uint256","internalType":"uint256"}]},{"type":"error","name":"DeltaNotNegative","inputs":[{"name":"currency","type":"address","internalType":"Currency"}]},{"type":"error","name":"DeltaNotPositive","inputs":[{"name":"currency","type":"address","internalType":"Currency"}]},{"type":"error","name":"GasLimitTooLow","inputs":[]},{"type":"error","name":"InputLengthMismatch","inputs":[]},{"type":"error","name":"InsufficientBalance","inputs":[]},{"type":"error","name":"InvalidContractSignature","inputs":[]},{"type":"error","name":"InvalidEthSender","inputs":[]},{"type":"error","name":"InvalidSignature","inputs":[]},{"type":"error","name":"InvalidSignatureLength","inputs":[]},{"type":"error","name":"InvalidSigner","inputs":[]},{"type":"error","name":"InvalidTick","inputs":[{"name":"tick","type":"int24","internalType":"int24"}]},{"type":"error","name":"MaximumAmountExceeded","inputs":[{"name":"maximumAmount","type":"uint128","internalType":"uint128"},{"name":"amountRequested","type":"uint128","internalType":"uint128"}]},{"type":"error","name":"MinimumAmountInsufficient","inputs":[{"name":"minimumAmount","type":"uint128","internalType":"uint128"},{"name":"amountReceived","type":"uint128","internalType":"uint128"}]},{"type":"error","name":"ModifyLiquidityNotificationReverted","inputs":[{"name":"subscriber","type":"address","internalType":"address"},{"name":"selector","type":"bytes4","internalType":"bytes4"}]},{"type":"error","name":"NoCodeSubscriber","inputs":[]},{"type":"error","name":"NoSelfPermit","inputs":[]},{"type":"error","name":"NonceAlreadyUsed","inputs":[]},{"type":"error","name":"NotApproved","inputs":[{"name":"caller","type":"address","internalType":"address"}]},{"type":"error","name":"NotPoolManager","inputs":[]},{"type":"error","name":"NotSubscribed","inputs":[]},{"type":"error","name":"PoolManagerMustBeLocked","inputs":[]},{"type":"error","name":"SafeCastOverflow","inputs":[]},{"type":"error","name":"SignatureDeadlineExpired","inputs":[]},{"type":"error","name":"SubscriptionReverted","inputs":[{"name":"subscriber","type":"address","internalType":"address"},{"name":"selector","type":"bytes4","internalType":"bytes4"}]},{"type":"error","name":"Unauthorized","inputs":[]},{"type":"error","name":"UnsupportedAction","inputs":[{"name":"action","type":"uint256","internalType":"uint256"}]}],"bytecode":{"object":"0x6101806040526001600855348015610015575f5ffd5b506040516153ef3803806153ef8339810160408190526100349161017a565b80848487806040518060400160405280601881526020017f556e697377617020763420506f736974696f6e73204e465400000000000000008152506040518060400160405280600b81526020016a554e492d56342d504f534d60a81b81525082828383815f90816100a59190610279565b5060016100b28282610279565b50508151602083012060c052504660a05261012660c051604080517f8cad95687ba82c2ce50e74f7b754645e5117c3a5bec8151c0726d5857980a8666020820152908101919091524660608201523060808201525f9060a00160405160208183030381529060405280519060200120905090565b608052506001600160a01b0390811660e0526101009590955250505050908116610120529081166101405291909116610160525061033392505050565b6001600160a01b0381168114610177575f5ffd5b50565b5f5f5f5f5f60a0868803121561018e575f5ffd5b855161019981610163565b60208701519095506101aa81610163565b6040870151606088015191955093506101c281610163565b60808701519092506101d381610163565b809150509295509295909350565b634e487b7160e01b5f52604160045260245ffd5b600181811c9082168061020957607f821691505b60208210810361022757634e487b7160e01b5f52602260045260245ffd5b50919050565b601f82111561027457805f5260205f20601f840160051c810160208510156102525750805b601f840160051c820191505b81811015610271575f815560010161025e565b50505b505050565b81516001600160401b03811115610292576102926101e1565b6102a6816102a084546101f5565b8461022d565b6020601f8211600181146102d8575f83156102c15750848201515b5f19600385901b1c1916600184901b178455610271565b5f84815260208120601f198516915b8281101561030757878501518255602094850194600190920191016102e7565b508482101561032457868401515f19600387901b60f8161c191681555b50505050600190811b01905550565b60805160a05160c05160e05161010051610120516101405161016051614f8161046e5f395f8181610535015261149701525f81816101d1015281816104b9015281816123510152818161239701528181612faa015261302f01525f818161034f0152818161083801528181610bcd0152613c0601525f818161048601528181611c3c0152611ca201525f81816102050152818161078a01528181610b3e01528181610c0d015281816111bf0152818161133c015281816115a30152818161198501528181611f8c015281816125f901528181612a2d01528181612beb01528181612c6601528181612cf401528181612dbc01528181612e3b01528181612ec60152818161312e0152818161368c01528181613a7f01528181613b8a0152613bce01525f610e0d01525f610db901525f610e670152614f815ff3fe6080604052600436106101c1575f3560e01c80622a3e3a1461024c57806301ffc9a71461027557806305c1ee20146102a457806306fdde03146102b7578063081812fc146102cb578063095ea7b31461030c5780630f5730f11461032b57806312261ee71461033e57806316a24131146103715780631efeed33146103a557806323b872dd146103dc5780632b67b570146103fb5780632b9261de1461040e5780633644e515146104215780633aea60f01461044357806342842e0e146104565780634767565f146104755780634aa4a4fc146104a85780634afe393c146104db578063502e1a16146104ee5780635a9d7a68146105245780636352211e1461055757806370a082311461057657806375794a3c146105955780637ba03aad146105aa57806386b6be7d146105d757806389097a6a1461067757806391dd7346146106a257806395d89b41146106c1578063a22cb465146106d5578063ac9650d8146106f4578063ad0b27fb14610714578063b88d4fde14610727578063c87b56dd14610746578063d737d0c714610765578063dc4c90d314610779578063dd46508f146107ac578063e985e9c5146107bf578063f7020405146107f8575f5ffd5b3661024857336001600160a01b037f000000000000000000000000000000000000000000000000000000000000000016148015906102285750336001600160a01b037f00000000000000000000000000000000000000000000000000000000000000001614155b1561024657604051631c5deabb60e11b815260040160405180910390fd5b005b5f5ffd5b61025f61025a3660046140e9565b61081e565b60405161026c9190614192565b60405180910390f35b348015610280575f5ffd5b5061029461028f3660046141b9565b6108d9565b604051901515815260200161026c565b6102466102b23660046141d4565b61092a565b3480156102c2575f5ffd5b5061025f610937565b3480156102d6575f5ffd5b506102ff6102e53660046141d4565b60046020525f90815260409020546001600160a01b031681565b60405161026c91906141f8565b348015610317575f5ffd5b5061024661032636600461420c565b6109c2565b610246610339366004614236565b610a39565b348015610349575f5ffd5b506102ff7f000000000000000000000000000000000000000000000000000000000000000081565b34801561037c575f5ffd5b506102ff61038b3660046141d4565b60076020525f90815260409020546001600160a01b031681565b3480156103b0575f5ffd5b506103c46103bf3660046141d4565b610b05565b6040516001600160801b03909116815260200161026c565b3480156103e7575f5ffd5b506102466103f63660046142a3565b610b39565b61025f6104093660046142e1565b610bb3565b61024661041c366004614333565b610c08565b34801561042c575f5ffd5b50610435610db6565b60405190815260200161026c565b610246610451366004614367565b610e89565b348015610461575f5ffd5b506102466104703660046142a3565b610f3c565b348015610480575f5ffd5b506104357f000000000000000000000000000000000000000000000000000000000000000081565b3480156104b3575f5ffd5b506102ff7f000000000000000000000000000000000000000000000000000000000000000081565b6102466104e936600461442d565b611008565b3480156104f9575f5ffd5b5061043561050836600461420c565b600660209081525f928352604080842090915290825290205481565b34801561052f575f5ffd5b506102ff7f000000000000000000000000000000000000000000000000000000000000000081565b348015610562575f5ffd5b506102ff6105713660046141d4565b61105c565b348015610581575f5ffd5b5061043561059036600461448b565b611095565b3480156105a0575f5ffd5b5061043560085481565b3480156105b5575f5ffd5b506105c96105c43660046141d4565b6110f6565b60405161026c9291906144e9565b3480156105e2575f5ffd5b506106376105f1366004614504565b600a6020525f90815260409020805460018201546002928301546001600160a01b03928316938284169362ffffff600160a01b85041693600160b81b900490910b911685565b604080516001600160a01b039687168152948616602086015262ffffff9093169284019290925260020b606083015291909116608082015260a00161026c565b348015610682575f5ffd5b506104356106913660046141d4565b60096020525f908152604090205481565b3480156106ad575f5ffd5b5061025f6106bc36600461452b565b6111b2565b3480156106cc575f5ffd5b5061025f61120e565b3480156106e0575f5ffd5b506102466106ef366004614569565b61121b565b61070761070236600461459c565b61122a565b60405161026c91906145ce565b6102466107223660046141d4565b611337565b348015610732575f5ffd5b50610246610741366004614631565b6113bb565b348015610751575f5ffd5b5061025f6107603660046141d4565b61147d565b348015610770575f5ffd5b506102ff61150f565b348015610784575f5ffd5b506102ff7f000000000000000000000000000000000000000000000000000000000000000081565b6102466107ba36600461469e565b611518565b3480156107ca575f5ffd5b506102946107d93660046146e5565b600560209081525f928352604080842090915290825290205460ff1681565b61080b61080636600461471c565b61158a565b60405160029190910b815260200161026c565b604051632a2d80d160e01b81526060906001600160a01b037f00000000000000000000000000000000000000000000000000000000000000001690632a2d80d1906108739088908890889088906004016147f2565b5f604051808303815f87803b15801561088a575f5ffd5b505af192505050801561089b575060015b6108d1573d8080156108c8576040519150601f19603f3d011682016040523d82523d5f602084013e6108cd565b606091505b5090505b949350505050565b5f6301ffc9a760e01b6001600160e01b03198316148061090957506380ac58cd60e01b6001600160e01b03198316145b806109245750635b5e139f60e01b6001600160e01b03198316145b92915050565b6109343382611629565b50565b5f8054610943906148cd565b80601f016020809104026020016040519081016040528092919081815260200182805461096f906148cd565b80156109ba5780601f10610991576101008083540402835291602001916109ba565b820191905f5260205f20905b81548152906001019060200180831161099d57829003601f168201915b505050505081565b5f818152600260205260409020546001600160a01b0316338114801590610a0c57506001600160a01b0381165f90815260056020908152604080832033845290915290205460ff16155b15610a29576040516282b42960e81b815260040160405180910390fd5b610a3481848461168f565b505050565b8380421115610a5b57604051635a9165ff60e01b815260040160405180910390fd5b5f8681526002602090815260408083205481517f49ecf333e5b8c95c40fdafc95c1ad136e8914a8fb55e9dc8bb01eaa83a2df9ad81526001600160a01b038c81169482019485529281018b8152606082018a8152608083018c815260a08420938890529587905290869052859052939092521690610ae5610adb826116ea565b8690869085611729565b610aef8287611629565b610afa828a8a61168f565b505050505050505050565b5f5f5f610b11846110f6565b915091506108d18483610b278460081c60020b90565b610b348560201c60020b90565b61193e565b610b6b7f00000000000000000000000000000000000000000000000000000000000000006001600160a01b03166119b6565b15610b89576040516306a582ff60e51b815260040160405180910390fd5b610b94838383611a46565b5f8181526009602052604090205460ff1615610a3457610a3481611bd1565b6040516302b67b5760e41b81526060906001600160a01b037f00000000000000000000000000000000000000000000000000000000000000001690632b67b57090610873908890889088908890600401614905565b610c3a7f00000000000000000000000000000000000000000000000000000000000000006001600160a01b03166119b6565b15610c58576040516306a582ff60e51b815260040160405180910390fd5b3384610c648282611d29565b610c8c57816040516301952d1b60e31b8152600401610c8391906141f8565b60405180910390fd5b5f868152600760205260409020546001600160a01b03168015610cd4576040516312fdec5f60e11b8152600481018890526001600160a01b0382166024820152604401610c83565b610cdd87611db0565b5f8781526007602052604080822080546001600160a01b0319166001600160a01b038a1617905551610d4c908890610d1d908b908a908a9060240161495e565b60408051601f198184030181529190526020810180516001600160e01b03166346abfb5960e11b179052611dd3565b905080610d775760405163210c699f60e21b8152610c839088906346abfb5960e11b90600401614977565b6040516001600160a01b0388169089907f9709492381f90bdc5938bb4e3b8e35b7e0eac8af058619e27191c5a40ce79fa9905f90a35050505050505050565b5f7f00000000000000000000000000000000000000000000000000000000000000004614610e6457610e5f604080517f8cad95687ba82c2ce50e74f7b754645e5117c3a5bec8151c0726d5857980a86660208201527f0000000000000000000000000000000000000000000000000000000000000000918101919091524660608201523060808201525f9060a00160405160208183030381529060405280519060200120905090565b905090565b507f000000000000000000000000000000000000000000000000000000000000000090565b8380421115610eab57604051635a9165ff60e01b815260040160405180910390fd5b604080517f6673cb397ee2a50b6b8401653d3638b4ac8b3db9c28aa6870ffceb7574ec2f7681526001600160a01b0389166020820190815260018916928201928352606082018781526080830189815260a084205f9485905292849052938390528290529152610f27610f1d826116ea565b859085908c611729565b610f318986611629565b610afa898989611e11565b610f47838383610b39565b6001600160a01b0382163b1580610fec5750604051630a85bd0160e11b8082523360048301526001600160a01b03858116602484015260448301849052608060648401525f608484015290919084169063150b7a029060a4016020604051808303815f875af1158015610fbc573d5f5f3e3d5ffd5b505050506040513d601f19601f82011682018060405250810190610fe0919061499a565b6001600160e01b031916145b610a345760405162461bcd60e51b8152600401610c83906149b5565b5f611011611e7d565b6001600160a01b031614611038576040516337affdbf60e11b815260040160405180910390fd5b61104133611e8f565b61104d84848484611ea2565b6110565f611e8f565b50505050565b5f818152600260205260409020546001600160a01b0316806110905760405162461bcd60e51b8152600401610c83906149df565b919050565b5f6001600160a01b0382166110db5760405162461bcd60e51b815260206004820152600c60248201526b5a45524f5f4144445245535360a01b6044820152606401610c83565b506001600160a01b03165f9081526003602052604090205490565b6040805160a0810182525f808252602082018190529181018290526060810182905260808101919091525f8281526009602052604081205490600a9061113b83611f22565b66ffffffffffffff1916815260208082019290925260409081015f20815160a08101835281546001600160a01b03908116825260018301548082169583019590955262ffffff600160a01b86041693820193909352600160b81b909304600290810b60608501520154166080820152939092509050565b6060336001600160a01b037f000000000000000000000000000000000000000000000000000000000000000016146111fd5760405163570c108560e11b815260040160405180910390fd5b6112078383611f2f565b9392505050565b60018054610943906148cd565b611226338383611e11565b5050565b6060816001600160401b0381111561124457611244614a03565b60405190808252806020026020018201604052801561127757816020015b60608152602001906001900390816112625790505b5090505f5b82811015611330575f803086868581811061129957611299614a17565b90506020028101906112ab9190614a2b565b6040516112b9929190614a6d565b5f60405180830381855af49150503d805f81146112f1576040519150601f19603f3d011682016040523d82523d5f602084013e6112f6565b606091505b50915091508161130857805160208201fd5b8084848151811061131b5761131b614a17565b6020908102919091010152505060010161127c565b5092915050565b6113697f00000000000000000000000000000000000000000000000000000000000000006001600160a01b03166119b6565b15611387576040516306a582ff60e51b815260040160405180910390fd5b33816113938282611d29565b6113b257816040516301952d1b60e31b8152600401610c8391906141f8565b610a3483611bd1565b6113c6858585610b39565b6001600160a01b0384163b158061145a5750604051630a85bd0160e11b808252906001600160a01b0386169063150b7a029061140e9033908a90899089908990600401614a7c565b6020604051808303815f875af115801561142a573d5f5f3e3d5ffd5b505050506040513d601f19601f8201168201806040525081019061144e919061499a565b6001600160e01b031916145b6114765760405162461bcd60e51b8152600401610c83906149b5565b5050505050565b60405163e9dc637560e01b81526060906001600160a01b037f0000000000000000000000000000000000000000000000000000000000000000169063e9dc6375906114ce9030908690600401614aba565b5f60405180830381865afa1580156114e8573d5f5f3e3d5ffd5b505050506040513d5f823e601f3d908101601f191682016040526109249190810190614b48565b5f610e5f611f6c565b5f611521611e7d565b6001600160a01b031614611548576040516337affdbf60e11b815260040160405180910390fd5b61155133611e8f565b80804211156115765760405163bfb22adf60e01b815260048101829052602401610c83565b6115808484611f75565b50610a345f611e8f565b60405163313b65df60e11b81525f906001600160a01b037f00000000000000000000000000000000000000000000000000000000000000001690636276cbbe906115da9086908690600401614baa565b6020604051808303815f875af1925050508015611614575060408051601f3d908101601f1916820190925261161191810190614c42565b60015b6116225750627fffff610924565b9050610924565b6001600160a01b0382165f908152600660209081526040808320600885901c808552925282208054600160ff861690811b918218928390559293909190818316900361168757604051623f613760e71b815260040160405180910390fd5b505050505050565b5f8181526004602052604080822080546001600160a01b0319166001600160a01b0386811691821790925591518493918716917f8c5be1e5ebec7d5bd14f71427d1e84f3dd0314c0f7b2291e5b200ac8c7c3b92591a4505050565b5f5f6116f4610db6565b905060405161190160f01b81528160028201528360228201526042812092505f81525f60208201525f60408201525050919050565b5f5f5f836001600160a01b03163b5f0361188f57604186900361177b5761175286880188614c5d565b90935091508686604081811061176a5761176a614a17565b919091013560f81c91506117d29050565b60408690036117b9575f61179187890189614c5d565b9094506001600160ff1b038116935090506117b160ff82901c601b614c91565b9150506117d2565b604051634be6321b60e01b815260040160405180910390fd5b604080515f8082526020820180845288905260ff841692820192909252606081018590526080810184905260019060a0016020604051602081039080840390855afa158015611823573d5f5f3e3d5ffd5b5050604051601f1901519150506001600160a01b03811661185757604051638baa579f60e01b815260040160405180910390fd5b846001600160a01b0316816001600160a01b03161461188957604051632057875960e21b815260040160405180910390fd5b50611935565b604051630b135d3f60e11b81525f906001600160a01b03861690631626ba7e906118c19089908c908c9060040161495e565b602060405180830381865afa1580156118dc573d5f5f3e3d5ffd5b505050506040513d601f19601f82011682018060405250810190611900919061499a565b90506001600160e01b03198116630b135d3f60e11b1461193357604051632c19a72f60e21b815260040160405180910390fd5b505b50505050505050565b60408051602681018690526006810183905260038101849052308152603a600c8201205f928201839052602082018390529082905260a085206119ac906001600160a01b037f0000000000000000000000000000000000000000000000000000000000000000169083612005565b9695505050505050565b60405163789add5560e11b81527fc090fc4683624cfc3884e9d8de5eca132f2d0ec062aff75d43c0465d5ceeab2360048201525f906001600160a01b0383169063f135baaa90602401602060405180830381865afa158015611a1a573d5f5f3e3d5ffd5b505050506040513d601f19601f82011682018060405250810190611a3e9190614caa565b151592915050565b5f818152600260205260409020546001600160a01b03848116911614611a9b5760405162461bcd60e51b815260206004820152600a60248201526957524f4e475f46524f4d60b01b6044820152606401610c83565b6001600160a01b038216611ac15760405162461bcd60e51b8152600401610c8390614cc1565b336001600160a01b0384161480611afa57506001600160a01b0383165f90815260056020908152604080832033845290915290205460ff165b80611b1a57505f818152600460205260409020546001600160a01b031633145b611b575760405162461bcd60e51b815260206004820152600e60248201526d1393d517d055551213d49256915160921b6044820152606401610c83565b6001600160a01b038084165f81815260036020908152604080832080545f19019055938616808352848320805460010190558583526002825284832080546001600160a01b03199081168317909155600490925284832080549092169091559251849392915f516020614f2c5f395f51905f5291a4505050565b5f818152600760205260409020546001600160a01b031680611c065760405163046fcd8560e31b815260040160405180910390fd5b611c0f82612085565b5f82815260076020526040902080546001600160a01b03191690556001600160a01b0381163b15611cf0577f00000000000000000000000000000000000000000000000000000000000000005a1015611c7b576040516376a1e1d360e11b815260040160405180910390fd5b604051632bd1774560e21b8152600481018390526001600160a01b0382169063af45dd14907f0000000000000000000000000000000000000000000000000000000000000000906024015f604051808303815f88803b158015611cdc575f5ffd5b5087f193505050508015611cee575060015b505b6040516001600160a01b0382169083907fa0ebb1de82db929a9153472f37d3a66dbede4436258311ad0f52a35a2c91d150905f90a35050565b5f611d338261105c565b6001600160a01b0316836001600160a01b03161480611d6a57505f828152600460205260409020546001600160a01b038481169116145b80611207575060055f611d7c8461105c565b6001600160a01b03908116825260208083019390935260409182015f9081209187168152925290205460ff16905092915050565b5f818152600960205260409020546001175b5f9182526009602052604090912055565b5f826001600160a01b03163b5f03611dfe57604051637c402b2160e01b815260040160405180910390fd5b5f5f8351602085015f875af19392505050565b6001600160a01b038381165f81815260056020908152604080832094871680845294825291829020805460ff191686151590811790915591519182527f17307eab39ab6107e8899845ad3d59bd9653f200f220920489ca2b5937696c31910160405180910390a3505050565b5f516020614f0c5f395f51905f525c90565b805f516020614f0c5f395f51905f525d50565b82818114611ec35760405163aaad13f760e01b815260040160405180910390fd5b5f5b81811015611687575f868683818110611ee057611ee0614a17565b919091013560f81c9150611f19905081868685818110611f0257611f02614a17565b9050602002810190611f149190614a2b565b61209c565b50600101611ec5565b66ffffffffffffff191690565b6060365f365f611f3f87876123de565b9350935093509350611f5384848484611ea2565b505060408051602081019091525f815295945050505050565b5f610e5f611e7d565b6040516348c8949160e01b81526001600160a01b037f000000000000000000000000000000000000000000000000000000000000000016906348c8949190611fc39085908590600401614cec565b5f604051808303815f875af1158015611fde573d5f5f3e3d5ffd5b505050506040513d5f823e601f3d908101601f19168201604052610a349190810190614b48565b5f5f6120118484612486565b604051631e2eaeaf60e01b8152600481018290529091506001600160a01b03861690631e2eaeaf906024015b602060405180830381865afa158015612058573d5f5f3e3d5ffd5b505050506040513d601f19601f8201168201806040525081019061207c9190614caa565b95945050505050565b5f8181526009602052604090205460ff1916611dc2565b600b83101561220a57826120d4575f5f5f5f365f6120ba88886124d6565b955095509550955095509550610afa868686868686612503565b60048303612102575f5f5f365f6120eb8787612576565b94509450945094509450611933858585858561259e565b60018303612134575f5f5f5f365f61211a88886124d6565b955095509550955095509550610afa8686868686866126a1565b6002830361218857365f5f5f5f5f5f365f61214f8b8b612715565b98509850985098509850985098509850985061217a8989898989896121738a612756565b898961278d565b505050505050505050505050565b600583036121d757365f5f5f5f5f365f6121a28a8a612873565b975097509750975097509750975097506121ca88888888886121c389612756565b88886128ae565b5050505050505050505050565b60038303612205575f5f5f365f6121ee8787612576565b94509450945094509450611933858585858561293f565b6123c2565b600d830361222c575f5f61221e8484612ae8565b915091506114768282612b10565b6011830361225a575f5f5f6122418585612b37565b925092509250611687838361225584612756565b612b65565b600b8303612291575f5f5f61226f8585612b37565b9250925092506116878361228283612b81565b61228c8587612b95565b612bc8565b600e83036122c8575f5f5f6122a68585612b37565b925092509250611687836122b984612756565b6122c38487612d73565b612d82565b601283036122e6575f6122db8383612e10565b905061105681612e2d565b60138303612308575f5f6122fa8484612ae8565b915091506114768282612e90565b60148303612332575f5f61231c8484612ae8565b915091506114768261232d83612756565b612f0f565b6015830361237a575f6123458383612e10565b90506110566123755f837f0000000000000000000000000000000000000000000000000000000000000000612f3e565b612fa2565b601683036123c2575f61238d8383612e10565b90506110566123bd7f0000000000000000000000000000000000000000000000000000000000000000835f612f3e565b613013565b604051635cda29d760e01b815260048101849052602401610c83565b365f365f604086351860608701945063ffffffff6040880135169350606063ffffffe0601f860116018060208901351882179150808801905063ffffffff8135169250602081019350508160051b805f5b8281101561245e57858101358281189490941793860135601f0163ffffffe0169091016020908101910161242f565b508085018989011083171561247a57633b99b53d5f526004601cfd5b50505092959194509250565b5f5f6124918461308a565b90505f61249f600683614cff565b6040805160208101879052908101829052909150606001604051602081830303815290604052805190602001209250505092915050565b8135602083013560408401356060850135365f6124f5888860046130c6565b915091509295509295509295565b61250b61150f565b866125168282611d29565b61253557816040516301952d1b60e31b8152600401610c8391906141f8565b5f5f6125408a6110f6565b915091505f5f61255c83856125548e613108565b8f8c8c61312a565b9150915061217a8a8a61256f858561321f565b919061325c565b813560208301356040840135365f612590878760036130c6565b915091509295509295909350565b6125a661150f565b856125b18282611d29565b6125d057816040516301952d1b60e31b8152600401610c8391906141f8565b5f5f6125db896110f6565b915091505f5f61261f6125ef8560a0902090565b6001600160a01b037f00000000000000000000000000000000000000000000000000000000000000001690613305565b505050905061266a8161263d6126388660081c60020b90565b6133b7565b61264d6126388760201c60020b90565b87516126589061367d565b612665896020015161367d565b6136d8565b6001600160801b03169150505f5f61268e848661268686613108565b8f8d8d61312a565b9150915061217a8b8b61256f858561321f565b6126a961150f565b866126b48282611d29565b6126d357816040516301952d1b60e31b8152600401610c8391906141f8565b5f5f6126de8a6110f6565b915091505f5f6126fb83856126f28e613108565b61255490614d12565b9150915061217a8a8a61270e858561321f565b919061378d565b8160a081013560c082013560e0830135610100840135610120850135610140860135365f612745898b600b6130c6565b915091509295985092959850929598565b5f5f196001600160a01b038316016127705761092461150f565b6001196001600160a01b03831601612789575030919050565b5090565b60088054600181019091556127a28482613818565b5f6127bc6127b5368d90038d018d614d2c565b8b8b6138ea565b5f8381526009602052604081208290559091506127d882611f22565b66ffffffffffffff1981165f908152600a6020526040812060010154919250600160b81b90910460020b900361282f5766ffffffffffffff1981165f908152600a602052604090208c9061282c8282614de3565b50505b5f612856838e8036038101906128459190614d2c565b61284e8d613108565b878a8a61312a565b509050612864818a8a61325c565b50505050505050505050505050565b8160a081013560c082013560e0830135610100840135610120850135365f61289d888a600a6130c6565b915091509295985092959890939650565b5f6128cb6125ef6128c4368c90038c018c614d2c565b60a0902090565b50505090505f612917826128de8b6133b7565b6128e78b6133b7565b6129018e5f0160208101906128fc919061448b565b61367d565b6126658f60200160208101906128fc919061448b565b6001600160801b031690506129338a8a8a848b8b8b8b8b61278d565b50505050505050505050565b61294761150f565b856129528282611d29565b61297157816040516301952d1b60e31b8152600401610c8391906141f8565b5f5f61297c896110f6565b915091505f6129a08a846129938560081c60020b90565b610b348660201c60020b90565b6001600160801b031690505f6129b58b61105c565b5f8c81526009602052604081205590506129ce8b613922565b5f8215612ad2575f5f60405180608001604052806129ef8860081c60020b90565b60020b8152602001612a048860201c60020b90565b60020b8152602001612a1587613108565b612a1e90614d12565b81526020018f5f1b81525090507f00000000000000000000000000000000000000000000000000000000000000006001600160a01b0316635a6bcfda88838e8e6040518563ffffffff1660e01b8152600401612a7d9493929190614e80565b60408051808303815f875af1158015612a98573d5f5f3e3d5ffd5b505050506040513d601f19601f82011682018060405250810190612abc9190614ecf565b93509150612acf8d8d61270e858761321f565b50505b60ff84161561217a5761217a8c838686856139bc565b5f5f6040831015612b0057633b99b53d5f526004601cfd5b5050813592602090920135919050565b5f612b1961150f565b9050612b29838261228c86613a70565b610a34828261228c85613a70565b5f5f5f6060841015612b5057633b99b53d5f526004601cfd5b50508235936020840135936040013592509050565b612b7383826122c38661367d565b610a3482826122c38561367d565b5f81612b8d5730610924565b61092461150f565b5f600160ff1b8303612bb357611622826001600160a01b0316613ad4565b82612bc15761162282613a70565b5081610924565b805f03612bd457505050565b604051632961046560e21b81526001600160a01b037f0000000000000000000000000000000000000000000000000000000000000000169063a584119490612c209086906004016141f8565b5f604051808303815f87803b158015612c37575f5ffd5b505af1158015612c49573d5f5f3e3d5ffd5b50505050612c5f836001600160a01b0316613b5e565b15612ce7577f00000000000000000000000000000000000000000000000000000000000000006001600160a01b03166311da60b4826040518263ffffffff1660e01b815260040160206040518083038185885af1158015612cc2573d5f5f3e3d5ffd5b50505050506040513d601f19601f820116820180604052508101906110569190614caa565b612cf2838383613b6b565b7f00000000000000000000000000000000000000000000000000000000000000006001600160a01b03166311da60b46040518163ffffffff1660e01b81526004016020604051808303815f875af1158015612d4f573d5f5f3e3d5ffd5b505050506040513d601f19601f820116820180604052508101906110569190614caa565b5f82612bc1576116228261367d565b805f03612d8e57505050565b604051630b0d9c0960e01b81526001600160a01b0384811660048301528381166024830152604482018390527f00000000000000000000000000000000000000000000000000000000000000001690630b0d9c09906064015b5f604051808303815f87803b158015612dfe575f5ffd5b505af1158015611935573d5f5f3e3d5ffd5b5f6020821015612e2757633b99b53d5f526004601cfd5b50503590565b5f612e626001600160a01b037f0000000000000000000000000000000000000000000000000000000000000000163084613c35565b90505f612e6d61150f565b90505f821215612e8557610a34838261228c85614d12565b610a34838284612d82565b5f612e9a8361367d565b9050805f03612ea857505050565b818111612efd5760405163203c2d1360e21b81526001600160a01b037f000000000000000000000000000000000000000000000000000000000000000016906380f0b44c90612de79086908590600401614aba565b610a3483612f0961150f565b83612d82565b5f612f22836001600160a01b0316613ad4565b90508015610a3457610a346001600160a01b0384168383613c84565b5f80612f536001600160a01b03861630613d2c565b9050600160ff1b8403612f67579050611207565b83612f7857612f7583613a70565b93505b80841115612f9957604051631e9acf1760e31b815260040160405180910390fd5b50919392505050565b8015610934577f00000000000000000000000000000000000000000000000000000000000000006001600160a01b031663d0e30db0826040518263ffffffff1660e01b81526004015f604051808303818588803b158015613001575f5ffd5b505af1158015611687573d5f5f3e3d5ffd5b801561093457604051632e1a7d4d60e01b8152600481018290527f00000000000000000000000000000000000000000000000000000000000000006001600160a01b031690632e1a7d4d906024015f604051808303815f87803b158015613078575f5ffd5b505af1158015611476573d5f5f3e3d5ffd5b6040515f906130a9908390600690602001918252602082015260400190565b604051602081830303815290604052805190602001209050919050565b63ffffffff600582901b84013581168401602081810192823516918291849183010186880110156130fe57633b99b53d5f526004601cfd5b5050935093915050565b805f811215611090576040516393dafdf160e01b815260040160405180910390fd5b5f5f7f00000000000000000000000000000000000000000000000000000000000000006001600160a01b0316635a6bcfda8860405180608001604052806131748d60081c60020b90565b60020b81526020016131898d60201c60020b90565b60020b81526020018a81526020018981525087876040518563ffffffff1660e01b81526004016131bc9493929190614e80565b60408051808303815f875af11580156131d7573d5f5f3e3d5ffd5b505050506040513d601f19601f820116820180604052508101906131fb9190614ecf565b909250905060ff88161561321457613214858783613dc0565b965096945050505050565b5f608082811d9084901d03600f83810b9085900b0361207c61324083613e56565b61324983613e56565b6001600160801b031660809190911b1790565b5f6132678460801d90565b600f0b90505f61327785600f0b90565b600f0b90505f821280156132a4575061328f82614d12565b6001600160801b0316846001600160801b0316105b156132ce57836132b383614d12565b60405163031e30ad60e41b8152600401610c83929190614ef1565b5f811280156132f657506132e181614d12565b6001600160801b0316836001600160801b0316105b1561147657826132b382614d12565b5f5f5f5f5f6133138661308a565b604051631e2eaeaf60e01b8152600481018290529091505f906001600160a01b03891690631e2eaeaf90602401602060405180830381865afa15801561335b573d5f5f3e3d5ffd5b505050506040513d601f19601f8201168201806040525081019061337f9190614caa565b90506001600160a01b03811695508060a01c60020b945062ffffff8160b81c16935062ffffff8160d01c169250505092959194509250565b60020b5f60ff82901d80830118620d89e88111156133ee576040516345c3193d60e11b8152600284900b6004820152602401610c83565b7001fffcb933bd6fad37aa2d162d1a5940016001821602600160801b18600282161561342a576ffff97272373d413259a46990580e213a0260801c5b6004821615613449576ffff2e50f5f656932ef12357cf3c7fdcc0260801c5b6008821615613468576fffe5caca7e10e4e61c3624eaa0941cd00260801c5b6010821615613487576fffcb9843d60f6159c9db58835c9266440260801c5b60208216156134a6576fff973b41fa98c081472e6896dfb254c00260801c5b60408216156134c5576fff2ea16466c96a3843ec78b326b528610260801c5b60808216156134e4576ffe5dee046a99a2a811c461f1969c30530260801c5b610100821615613504576ffcbe86c7900a88aedcffc83b479aa3a40260801c5b610200821615613524576ff987a7253ac413176f2b074cf7815e540260801c5b610400821615613544576ff3392b0822b70005940c7a398e4b70f30260801c5b610800821615613564576fe7159475a2c29b7443b29c7fa6e889d90260801c5b611000821615613584576fd097f3bdfd2022b8845ad8f792aa58250260801c5b6120008216156135a4576fa9f746462d870fdf8a65dc1f90e061e50260801c5b6140008216156135c4576f70d869a156d2a1b890bb3df62baf32f70260801c5b6180008216156135e4576f31be135f97d08fd981231505542fcfa60260801c5b62010000821615613605576f09aa508b5b7a84e1c677de54f3e99bc90260801c5b62020000821615613625576e5d6af8dedb81196699c329225ee6040260801c5b62040000821615613644576d2216e584f5fa1ea926041bedfe980260801c5b62080000821615613661576b048a170391f7dc42444e8fa20260801c5b5f84131561366d575f19045b63ffffffff0160201c9392505050565b5f806136b36001600160a01b037f0000000000000000000000000000000000000000000000000000000000000000163085613c35565b90505f8112156109245782604051634c085bf160e01b8152600401610c8391906141f8565b5f836001600160a01b0316856001600160a01b031611156136f7579293925b846001600160a01b0316866001600160a01b0316116137225761371b858585613e7b565b905061207c565b836001600160a01b0316866001600160a01b03161015613782575f613748878686613e7b565b90505f613756878986613edc565b9050806001600160801b0316826001600160801b0316106137775780613779565b815b9250505061207c565b6119ac858584613edc565b816001600160801b03166137ac6137a48560801d90565b600f0b613f18565b6001600160801b031610156137e457816137c96137a48560801d90565b604051630940b79160e11b8152600401610c83929190614ef1565b806001600160801b03166137fb6137a485600f0b90565b6001600160801b03161015610a3457806137c96137a485600f0b90565b6001600160a01b03821661383e5760405162461bcd60e51b8152600401610c8390614cc1565b5f818152600260205260409020546001600160a01b0316156138935760405162461bcd60e51b815260206004820152600e60248201526d1053149150511657d3525395115160921b6044820152606401610c83565b6001600160a01b0382165f81815260036020908152604080832080546001019055848352600290915280822080546001600160a01b0319168417905551839291905f516020614f2c5f395f51905f52908290a45050565b5f5f6138f78560a0902090565b90508362ffffff1660081b8362ffffff1660201b8266ffffffffffffff191617179150509392505050565b5f818152600260205260409020546001600160a01b0316806139565760405162461bcd60e51b8152600401610c83906149df565b6001600160a01b0381165f81815260036020908152604080832080545f190190558583526002825280832080546001600160a01b031990811690915560049092528083208054909216909155518492905f516020614f2c5f395f51905f52908390a45050565b5f8581526007602052604080822080546001600160a01b031981169091559051602481018890526001600160a01b038781166044830152606482018790526084820186905260a482018590529091169190613a4590839060c40160408051601f198184030181529190526020810180516001600160e01b031663b1a9116f60e01b179052611dd3565b90508061193557604051632a82400760e01b8152610c8390839063b1a9116f60e01b90600401614977565b5f80613aa66001600160a01b037f0000000000000000000000000000000000000000000000000000000000000000163085613c35565b90505f811315613acb578260405163019a8d9360e51b8152600401610c8391906141f8565b61120781614d12565b5f613ae7826001600160a01b0316613b5e565b15613af3575047919050565b6040516370a0823160e01b81526001600160a01b038316906370a0823190613b1f9030906004016141f8565b602060405180830381865afa158015613b3a573d5f5f3e3d5ffd5b505050506040513d601f19601f820116820180604052508101906109249190614caa565b6001600160a01b03161590565b306001600160a01b03831603613baf57610a346001600160a01b0384167f000000000000000000000000000000000000000000000000000000000000000083613c84565b604051631b63c28b60e11b81526001600160a01b0383811660048301527f000000000000000000000000000000000000000000000000000000000000000081166024830152828116604483015284811660648301527f000000000000000000000000000000000000000000000000000000000000000016906336c7851690608401612de7565b5f5f6001600160a01b0384165f526001600160a01b03831660205260405f209050846001600160a01b031663f135baaa826040518263ffffffff1660e01b815260040161203d91815260200190565b5f613c97846001600160a01b0316613b5e565b15613cc2575f5f5f5f85875af1905080613cbd57613cbd835f633d2cec6f60e21b613f3d565b611056565b60405163a9059cbb60e01b81526001600160a01b038416600482015282602482015260205f6044835f895af13d15601f3d1160015f511416171691505f81525f60208201525f60408201525080611056576110568463a9059cbb60e01b633c9fd93960e21b613f3d565b5f613d3f836001600160a01b0316613b5e565b15613d5557506001600160a01b03811631610924565b6040516370a0823160e01b81526001600160a01b038416906370a0823190613d819085906004016141f8565b602060405180830381865afa158015613d9c573d5f5f3e3d5ffd5b505050506040513d601f19601f820116820180604052508101906116229190614caa565b5f838152600760205260408082205490516024810186905260448101859052606481018490526001600160a01b039091169190613e2b90839060840160408051601f198184030181529190526020810180516001600160e01b031663d8865c2760e01b179052611dd3565b90508061147657604051634ae57ba160e01b8152610c8390839063d8865c2760e01b90600401614977565b80600f81900b8114611090576040516393dafdf160e01b815260040160405180910390fd5b5f826001600160a01b0316846001600160a01b03161115613e9a579192915b5f613ebc856001600160a01b0316856001600160a01b0316600160601b613fb5565b905061207c613ed784838888036001600160a01b0316613fb5565b61405c565b5f826001600160a01b0316846001600160a01b03161115613efb579192915b6108d1613ed783600160601b8787036001600160a01b0316613fb5565b5f5f82600f0b1215612789576040516393dafdf160e01b815260040160405180910390fd5b6040516390bfb86560e01b8082526001600160a01b03851660048301526001600160e01b031984166024830152608060448301526020601f3d018190040260a0810160648401523d608484015290913d5f60a483013e60048260a4018201526001600160e01b031984168260c4018201528160e40181fd5b5f838302815f1985870982811083820303915050805f03613fe6575f8411613fdb575f5ffd5b508290049050611207565b808411613ff1575f5ffd5b5f848688095f868103871696879004966002600389028118808a02820302808a02820302808a02820302808a02820302808a02820302808a02909103029181900381900460010186841190950394909402919094039290920491909117919091029150509392505050565b806001600160801b0381168114611090576040516393dafdf160e01b815260040160405180910390fd5b6001600160a01b0381168114610934575f5ffd5b803561109081614086565b5f5f83601f8401126140b5575f5ffd5b5081356001600160401b038111156140cb575f5ffd5b6020830191508360208285010111156140e2575f5ffd5b9250929050565b5f5f5f5f606085870312156140fc575f5ffd5b843561410781614086565b935060208501356001600160401b03811115614121575f5ffd5b850160608188031215614132575f5ffd5b925060408501356001600160401b0381111561414c575f5ffd5b614158878288016140a5565b95989497509550505050565b5f81518084528060208401602086015e5f602082860101526020601f19601f83011685010191505092915050565b602081525f6112076020830184614164565b6001600160e01b031981168114610934575f5ffd5b5f602082840312156141c9575f5ffd5b8135611207816141a4565b5f602082840312156141e4575f5ffd5b5035919050565b6001600160a01b03169052565b6001600160a01b0391909116815260200190565b5f5f6040838503121561421d575f5ffd5b823561422881614086565b946020939093013593505050565b5f5f5f5f5f5f60a0878903121561424b575f5ffd5b863561425681614086565b955060208701359450604087013593506060870135925060808701356001600160401b03811115614285575f5ffd5b61429189828a016140a5565b979a9699509497509295939492505050565b5f5f5f606084860312156142b5575f5ffd5b83356142c081614086565b925060208401356142d081614086565b929592945050506040919091013590565b5f5f5f5f8486036101008112156142f6575f5ffd5b853561430181614086565b945060c0601f1982011215614314575f5ffd5b5060208501925060e08501356001600160401b0381111561414c575f5ffd5b5f5f5f5f60608587031215614346575f5ffd5b84359350602085013561413281614086565b80358015158114611090575f5ffd5b5f5f5f5f5f5f5f60c0888a03121561437d575f5ffd5b873561438881614086565b9650602088013561439881614086565b95506143a660408901614358565b9450606088013593506080880135925060a08801356001600160401b038111156143ce575f5ffd5b6143da8a828b016140a5565b989b979a50959850939692959293505050565b5f5f83601f8401126143fd575f5ffd5b5081356001600160401b03811115614413575f5ffd5b6020830191508360208260051b85010111156140e2575f5ffd5b5f5f5f5f60408587031215614440575f5ffd5b84356001600160401b03811115614455575f5ffd5b614461878288016140a5565b90955093505060208501356001600160401b0381111561447f575f5ffd5b614158878288016143ed565b5f6020828403121561449b575f5ffd5b813561120781614086565b80516001600160a01b03908116835260208083015182169084015260408083015162ffffff169084015260608083015160020b9084015260809182015116910152565b60c081016144f782856144a6565b8260a08301529392505050565b5f60208284031215614514575f5ffd5b813566ffffffffffffff1981168114611207575f5ffd5b5f5f6020838503121561453c575f5ffd5b82356001600160401b03811115614551575f5ffd5b61455d858286016140a5565b90969095509350505050565b5f5f6040838503121561457a575f5ffd5b823561458581614086565b915061459360208401614358565b90509250929050565b5f5f602083850312156145ad575f5ffd5b82356001600160401b038111156145c2575f5ffd5b61455d858286016143ed565b5f602082016020835280845180835260408501915060408160051b8601019250602086015f5b8281101561462557603f19878603018452614610858351614164565b945060209384019391909101906001016145f4565b50929695505050505050565b5f5f5f5f5f60808688031215614645575f5ffd5b853561465081614086565b9450602086013561466081614086565b93506040860135925060608601356001600160401b03811115614681575f5ffd5b61468d888289016140a5565b969995985093965092949392505050565b5f5f5f604084860312156146b0575f5ffd5b83356001600160401b038111156146c5575f5ffd5b6146d1868287016140a5565b909790965060209590950135949350505050565b5f5f604083850312156146f6575f5ffd5b823561470181614086565b9150602083013561471181614086565b809150509250929050565b5f5f82840360c081121561472e575f5ffd5b60a081121561473b575f5ffd5b5082915060a083013561471181614086565b803565ffffffffffff81168114611090575f5ffd5b803561476d81614086565b6001600160a01b03168252602081013561478681614086565b6001600160a01b0316602083015265ffffffffffff6147a76040830161474d565b16604083015265ffffffffffff6147c06060830161474d565b1660608301525050565b81835281816020850137505f828201602090810191909152601f909101601f19169091010190565b6001600160a01b0385168152606060208201525f60c08201853536879003601e1901811261481e575f5ffd5b86016020810190356001600160401b03811115614839575f5ffd5b8060071b360382131561484a575f5ffd5b60608581015291829052905f9060e085015b818310156148815761486e8185614762565b608093840193600193909301920161485c565b61488d60208a0161409a565b935061489c60808701856141eb565b5f9350604089013593508360a087015285810360408701526148bf81888a6147ca565b9a9950505050505050505050565b600181811c908216806148e157607f821691505b6020821081036148ff57634e487b7160e01b5f52602260045260245ffd5b50919050565b6001600160a01b038516815261491e6020820185614762565b5f608085013561492d81614086565b6001600160a01b031660a08381019190915285013560c083015261010060e083018190526119ac90830184866147ca565b838152604060208201525f61207c6040830184866147ca565b6001600160a01b039290921682526001600160e01b031916602082015260400190565b5f602082840312156149aa575f5ffd5b8151611207816141a4565b60208082526010908201526f155394d0519157d49150d2541251539560821b604082015260600190565b6020808252600a90820152691393d517d3525395115160b21b604082015260600190565b634e487b7160e01b5f52604160045260245ffd5b634e487b7160e01b5f52603260045260245ffd5b5f5f8335601e19843603018112614a40575f5ffd5b8301803591506001600160401b03821115614a59575f5ffd5b6020019150368190038213156140e2575f5ffd5b818382375f9101908152919050565b6001600160a01b03868116825285166020820152604081018490526080606082018190525f90614aaf90830184866147ca565b979650505050505050565b6001600160a01b03929092168252602082015260400190565b5f806001600160401b03841115614aec57614aec614a03565b50604051601f19601f85018116603f011681018181106001600160401b0382111715614b1a57614b1a614a03565b604052838152905080828401851015614b31575f5ffd5b8383602083015e5f60208583010152509392505050565b5f60208284031215614b58575f5ffd5b81516001600160401b03811115614b6d575f5ffd5b8201601f81018413614b7d575f5ffd5b6108d184825160208401614ad3565b62ffffff81168114610934575f5ffd5b8060020b8114610934575f5ffd5b60c081018335614bb981614086565b6001600160a01b031682526020840135614bd281614086565b6001600160a01b031660208301526040840135614bee81614b8c565b62ffffff1660408301526060840135614c0681614b9c565b60020b60608301526080840135614c1c81614086565b614c2960808401826141eb565b506001600160a01b039290921660a09190910152919050565b5f60208284031215614c52575f5ffd5b815161120781614b9c565b5f5f60408385031215614c6e575f5ffd5b50508035926020909101359150565b634e487b7160e01b5f52601160045260245ffd5b60ff818116838216019081111561092457610924614c7d565b5f60208284031215614cba575f5ffd5b5051919050565b6020808252601190820152701253959053125117d49150d25412515395607a1b604082015260600190565b602081525f6108d16020830184866147ca565b8082018082111561092457610924614c7d565b5f600160ff1b8201614d2657614d26614c7d565b505f0390565b5f60a0828403128015614d3d575f5ffd5b5060405160a081016001600160401b0381118282101715614d6057614d60614a03565b6040528235614d6e81614086565b81526020830135614d7e81614086565b60208201526040830135614d9181614b8c565b60408201526060830135614da481614b9c565b60608201526080830135614db781614086565b60808201529392505050565b80546001600160a01b0319166001600160a01b0392909216919091179055565b8135614dee81614086565b614df88183614dc3565b50600181016020830135614e0b81614086565b614e158183614dc3565b506040830135614e2481614b8c565b81546060850135614e3481614b9c565b8060b81b62ffffff60b81b1662ffffff60a01b8460a01b1665ffffffffffff60a01b19841617178455505050505f6080830135614e7081614086565b8091506110568160028501614dc3565b614e8a81866144a6565b835160020b60a0820152602084015160020b60c0820152604084015160e082015260608401516101008201526101406101208201525f6119ac610140830184866147ca565b5f5f60408385031215614ee0575f5ffd5b505080516020909101519092909150565b6001600160801b039283168152911660208201526040019056fe0aedd6bde10e3aa2adec092b02a3e3e805795516cda41f27aa145b8f300af87addf252ad1be2c89b69c2b068fc378daa952ba7f163c4a11628f55a4df523b3efa26469706673582212201b3ee88ff0616683aadfeff387c9526042432cdc2cc822f6c0f4e1a1baf1e1e464736f6c634300081e0033","linkReferences":{}},"methodIdentifiers":{"DOMAIN_SEPARATOR()":"3644e515","WETH9()":"4aa4a4fc","approve(address,uint256)":"095ea7b3","balanceOf(address)":"70a08231","getApproved(uint256)":"081812fc","getPoolAndPositionInfo(uint256)":"7ba03aad","getPositionLiquidity(uint256)":"1efeed33","initializePool((address,address,uint24,int24,address),uint160)":"f7020405","isApprovedForAll(address,address)":"e985e9c5","modifyLiquidities(bytes,uint256)":"dd46508f","modifyLiquiditiesWithoutUnlock(bytes,bytes[])":"4afe393c","msgSender()":"d737d0c7","multicall(bytes[])":"ac9650d8","name()":"06fdde03","nextTokenId()":"75794a3c","nonces(address,uint256)":"502e1a16","ownerOf(uint256)":"6352211e","permit(address,((address,uint160,uint48,uint48),address,uint256),bytes)":"2b67b570","permit(address,uint256,uint256,uint256,bytes)":"0f5730f1","permit2()":"12261ee7","permitBatch(address,((address,uint160,uint48,uint48)[],address,uint256),bytes)":"002a3e3a","permitForAll(address,address,bool,uint256,uint256,bytes)":"3aea60f0","poolKeys(bytes25)":"86b6be7d","poolManager()":"dc4c90d3","positionInfo(uint256)":"89097a6a","revokeNonce(uint256)":"05c1ee20","safeTransferFrom(address,address,uint256)":"42842e0e","safeTransferFrom(address,address,uint256,bytes)":"b88d4fde","setApprovalForAll(address,bool)":"a22cb465","subscribe(uint256,address,bytes)":"2b9261de","subscriber(uint256)":"16a24131","supportsInterface(bytes4)":"01ffc9a7","symbol()":"95d89b41","tokenDescriptor()":"5a9d7a68","tokenURI(uint256)":"c87b56dd","transferFrom(address,address,uint256)":"23b872dd","unlockCallback(bytes)":"91dd7346","unsubscribe(uint256)":"ad0b27fb","unsubscribeGasLimit()":"4767565f"},"id":1125}