{"abi":[{"type":"constructor","inputs":[{"name":"vault","type":"address","internalType":"contract IVault"},{"name":"factoryVersion","type":"string","internalType":"string"},{"name":"rateProviderVersion","type":"uint256","internalType":"uint256"}],"stateMutability":"nonpayable"},{"type":"function","name":"create","inputs":[{"name":"tokenIndex","type":"uint32","internalType":"uint32"},{"name":"pairIndex","type":"uint32","internalType":"uint32"}],"outputs":[{"name":"rateProvider","type":"address","internalType":"contract IHyperEVMRateProvider"}],"stateMutability":"nonpayable"},{"type":"function","name":"disable","inputs":[],"outputs":[],"stateMutability":"nonpayable"},{"type":"function","name":"getActionId","inputs":[{"name":"selector","type":"bytes4","internalType":"bytes4"}],"outputs":[{"name":"","type":"bytes32","internalType":"bytes32"}],"stateMutability":"view"},{"type":"function","name":"getAuthorizer","inputs":[],"outputs":[{"name":"","type":"address","internalType":"contract IAuthorizer"}],"stateMutability":"view"},{"type":"function","name":"getRateProvider","inputs":[{"name":"tokenIndex","type":"uint32","internalType":"uint32"},{"name":"pairIndex","type":"uint32","internalType":"uint32"}],"outputs":[{"name":"rateProvider","type":"address","internalType":"contract IHyperEVMRateProvider"}],"stateMutability":"view"},{"type":"function","name":"getRateProviderVersion","inputs":[],"outputs":[{"name":"","type":"uint256","internalType":"uint256"}],"stateMutability":"view"},{"type":"function","name":"getVault","inputs":[],"outputs":[{"name":"","type":"address","internalType":"contract IVault"}],"stateMutability":"view"},{"type":"function","name":"isRateProviderFromFactory","inputs":[{"name":"rateProvider","type":"address","internalType":"contract IHyperEVMRateProvider"}],"outputs":[{"name":"","type":"bool","internalType":"bool"}],"stateMutability":"view"},{"type":"function","name":"version","inputs":[],"outputs":[{"name":"","type":"string","internalType":"string"}],"stateMutability":"view"},{"type":"event","name":"RateProviderCreated","inputs":[{"name":"tokenIndex","type":"uint256","indexed":true,"internalType":"uint256"},{"name":"pairIndex","type":"uint256","indexed":true,"internalType":"uint256"},{"name":"rateProvider","type":"address","indexed":true,"internalType":"address"}],"anonymous":false},{"type":"event","name":"RateProviderFactoryDisabled","inputs":[],"anonymous":false},{"type":"error","name":"RateProviderAlreadyExists","inputs":[{"name":"tokenIndex","type":"uint32","internalType":"uint32"},{"name":"pairIndex","type":"uint32","internalType":"uint32"},{"name":"rateProvider","type":"address","internalType":"address"}]},{"type":"error","name":"RateProviderFactoryIsDisabled","inputs":[]},{"type":"error","name":"RateProviderNotFound","inputs":[{"name":"tokenIndex","type":"uint32","internalType":"uint32"},{"name":"pairIndex","type":"uint32","internalType":"uint32"}]},{"type":"error","name":"SenderNotAllowed","inputs":[]},{"type":"error","name":"VaultNotSet","inputs":[]}],"bytecode":{"object":"0x60e060405234801561000f575f5ffd5b5060405161134038038061134083398101604081905261002e916100a7565b3060808190528290849081906001600160a01b03821661006157604051630647140b60e51b815260040160405180910390fd5b506001600160a01b031660a0525061007881610084565b5060c052506102bf9050565b5f61008f8282610205565b5050565b634e487b7160e01b5f52604160045260245ffd5b5f5f5f606084860312156100b9575f5ffd5b83516001600160a01b03811681146100cf575f5ffd5b60208501519093506001600160401b038111156100ea575f5ffd5b8401601f810186136100fa575f5ffd5b80516001600160401b0381111561011357610113610093565b604051601f8201601f19908116603f011681016001600160401b038111828210171561014157610141610093565b604052818152828201602001881015610158575f5ffd5b8160208401602083015e5f91810160200191909152604095909501519396949550929392505050565b600181811c9082168061019557607f821691505b6020821081036101b357634e487b7160e01b5f52602260045260245ffd5b50919050565b601f82111561020057805f5260205f20601f840160051c810160208510156101de5750805b601f840160051c820191505b818110156101fd575f81556001016101ea565b50505b505050565b81516001600160401b0381111561021e5761021e610093565b6102328161022c8454610181565b846101b9565b6020601f821160018114610264575f831561024d5750848201515b5f19600385901b1c1916600184901b1784556101fd565b5f84815260208120601f198516915b828110156102935787850151825560209485019460019092019101610273565b50848210156102b057868401515f19600387901b60f8161c191681555b50505050600190811b01905550565b60805160a05160c0516110516102ef5f395f60d101525f81816103d4015261054f01525f61037101526110515ff3fe608060405234801561000f575f5ffd5b5060043610610081575f3560e01c806319912f71146100855780632f2770db146100c5578063381c7a4f146100cf57806354fd4d50146100ff578063568acb7914610114578063851c1bb31461013f5780638d928af81461015257806399b8113f1461015a578063aaabadc51461016d575b5f5ffd5b6100b061009336600461066c565b6001600160a01b03165f9081526003602052604090205460ff1690565b60405190151581526020015b60405180910390f35b6100cd610175565b005b7f00000000000000000000000000000000000000000000000000000000000000005b6040519081526020016100bc565b6101076101bb565b6040516100bc9190610687565b6101276101223660046106d4565b61024a565b6040516001600160a01b0390911681526020016100bc565b6100f161014d366004610705565b61036e565b6101276103d2565b6101276101683660046106d4565b6103fb565b61012761044b565b61017d6104b3565b6101856104f4565b6001805460ff1916811790556040517f1e8641758c70961d246979e3c073388b65a37bad9cc604ec5511e7200e7d144b905f90a1565b60605f80546101c99061072c565b80601f01602080910402602001604051908101604052809291908181526020018280546101f59061072c565b80156102405780601f1061021757610100808354040283529160200191610240565b820191905f5260205f20905b81548152906001019060200180831161022357829003601f168201915b5050505050905090565b5f6102536104f4565b5f61025e848461051a565b5f818152600260205260409020549091506001600160a01b031680156102bb5760405163f4c64ee160e01b815263ffffffff8087166004830152851660248201526001600160a01b03821660448201526064015b60405180910390fd5b84846040516102c99061064b565b6102d4929190610764565b604051809103905ff0801580156102ed573d5f5f3e3d5ffd5b505f83815260026020908152604080832080546001600160a01b0319166001600160a01b0386169081179091558084526003909252808320805460ff19166001179055519295509163ffffffff87811692908916917fd2dc19a986df7300887ed27436ca60160b58dcbcc7a657427d35cbf60154ba029190a4505092915050565b5f7f0000000000000000000000000000000000000000000000000000000000000000826040516020016103b59291909182526001600160e01b031916602082015260240190565b604051602081830303815290604052805190602001209050919050565b7f000000000000000000000000000000000000000000000000000000000000000090565b905090565b5f5f610407848461051a565b5f818152600260205260409020546001600160a01b0316925090508161044457838360405163dc120e7760e01b81526004016102b2929190610764565b5092915050565b5f6104546103d2565b6001600160a01b031663aaabadc56040518163ffffffff1660e01b8152600401602060405180830381865afa15801561048f573d5f5f3e3d5ffd5b505050506040513d601f19601f820116820180604052508101906103f6919061077b565b5f6104c85f356001600160e01b03191661036e565b90506104d4813361054c565b6104f1576040516323dada5360e01b815260040160405180910390fd5b50565b60015460ff16156105185760405163085f713760e31b815260040160405180910390fd5b565b5f828260405160200161052e929190610764565b60405160208183030381529060405280519060200120905092915050565b5f7f00000000000000000000000000000000000000000000000000000000000000006001600160a01b031663aaabadc56040518163ffffffff1660e01b8152600401602060405180830381865afa1580156105a9573d5f5f3e3d5ffd5b505050506040513d601f19601f820116820180604052508101906105cd919061077b565b6040516326f8aa2160e21b8152600481018590526001600160a01b0384811660248301523060448301529190911690639be2a88490606401602060405180830381865afa158015610620573d5f5f3e3d5ffd5b505050506040513d601f19601f820116820180604052508101906106449190610796565b9392505050565b610866806107b683390190565b6001600160a01b03811681146104f1575f5ffd5b5f6020828403121561067c575f5ffd5b813561064481610658565b602081525f82518060208401528060208501604085015e5f604082850101526040601f19601f83011684010191505092915050565b803563ffffffff811681146106cf575f5ffd5b919050565b5f5f604083850312156106e5575f5ffd5b6106ee836106bc565b91506106fc602084016106bc565b90509250929050565b5f60208284031215610715575f5ffd5b81356001600160e01b031981168114610644575f5ffd5b600181811c9082168061074057607f821691505b60208210810361075e57634e487b7160e01b5f52602260045260245ffd5b50919050565b63ffffffff92831681529116602082015260400190565b5f6020828403121561078b575f5ffd5b815161064481610658565b5f602082840312156107a6575f5ffd5b81518015158114610644575f5ffdfe60e060405234801561000f575f5ffd5b5060405161086638038061086683398101604081905261002e9161014e565b5f6100388361007a565b9050610045816008610193565b61005090600a610295565b61006290670de0b6b3a76400006102aa565b6080525063ffffffff90811660a0521660c052610584565b6040805163ffffffff831660208201525f918291829161080c910160408051601f19818403018152908290526100af916102c9565b5f60405180830381855afa9150503d805f81146100e7576040519150601f19603f3d011682016040523d82523d5f602084013e6100ec565b606091505b5090925090508115155f0361011457604051631870604d60e21b815260040160405180910390fd5b5f818060200190518101906101299190610489565b60a0015195945050505050565b805163ffffffff81168114610149575f5ffd5b919050565b5f5f6040838503121561015f575f5ffd5b61016883610136565b915061017660208401610136565b90509250929050565b634e487b7160e01b5f52601160045260245ffd5b60ff82811682821603908111156101ac576101ac61017f565b92915050565b6001815b60018411156101ed578085048111156101d1576101d161017f565b60018416156101df57908102905b60019390931c9280026101b6565b935093915050565b5f82610203575060016101ac565b8161020f57505f6101ac565b8160018114610225576002811461022f5761024b565b60019150506101ac565b60ff8411156102405761024061017f565b50506001821b6101ac565b5060208310610133831016604e8410600b841016171561026e575081810a6101ac565b61027a5f1984846101b2565b805f190482111561028d5761028d61017f565b029392505050565b5f6102a360ff8416836101f5565b9392505050565b5f826102c457634e487b7160e01b5f52601260045260245ffd5b500490565b5f82518060208501845e5f920191825250919050565b634e487b7160e01b5f52604160045260245ffd5b60405161010081016001600160401b0381118282101715610316576103166102df565b60405290565b604051601f8201601f191681016001600160401b0381118282101715610344576103446102df565b604052919050565b5f82601f83011261035b575f5ffd5b81516001600160401b03811115610374576103746102df565b610387601f8201601f191660200161031c565b81815284602083860101111561039b575f5ffd5b8160208501602083015e5f918101602001919091529392505050565b80516001600160401b0381168114610149575f5ffd5b5f82601f8301126103dc575f5ffd5b81516001600160401b038111156103f5576103f56102df565b8060051b6104056020820161031c565b91825260208185018101929081019086841115610420575f5ffd5b6020860192505b8383101561044957610438836103b7565b825260209283019290910190610427565b9695505050505050565b80516001600160a01b0381168114610149575f5ffd5b805160ff81168114610149575f5ffd5b80515f81900b8114610149575f5ffd5b5f60208284031215610499575f5ffd5b81516001600160401b038111156104ae575f5ffd5b820161010081850312156104c0575f5ffd5b6104c86102f3565b81516001600160401b038111156104dd575f5ffd5b6104e98682850161034c565b82525060208201516001600160401b03811115610504575f5ffd5b610510868285016103cd565b602083015250610522604083016103b7565b604082015261053360608301610453565b606082015261054460808301610453565b608082015261055560a08301610469565b60a082015261056660c08301610469565b60c082015261057760e08301610479565b60e0820152949350505050565b60805160a05160c0516102ae6105b85f395f605001525f818160a2015260f301525f818160c8015261011e01526102ae5ff3fe608060405234801561000f575f5ffd5b506004361061004a575f3560e01c8063295d3ee81461004e578063679aefce1461008a57806381bfa5d1146100a0578063a747d56f146100c6575b5f5ffd5b7f00000000000000000000000000000000000000000000000000000000000000005b60405163ffffffff90911681526020015b60405180910390f35b6100926100ec565b604051908152602001610081565b7f0000000000000000000000000000000000000000000000000000000000000000610070565b7f0000000000000000000000000000000000000000000000000000000000000000610092565b5f5f6101177f0000000000000000000000000000000000000000000000000000000000000000610149565b90506101437f000000000000000000000000000000000000000000000000000000000000000082610222565b91505090565b6040805163ffffffff831660208201525f9182918291610808910160408051601f198184030181529082905261017e9161024b565b5f60405180830381855afa9150503d805f81146101b6576040519150601f19603f3d011682016040523d82523d5f602084013e6101bb565b606091505b5090925090508115155f036101e3576040516379827df560e01b815260040160405180910390fd5b5f818060200190518101906101f89190610261565b9050805f0361021a576040516311149b0960e21b815260040160405180910390fd5b949350505050565b808202811582820484141761024557634e487b7160e01b5f52601160045260245ffd5b92915050565b5f82518060208501845e5f920191825250919050565b5f60208284031215610271575f5ffd5b505191905056fea264697066735822122004831ac41b1c400506c75bea1cb84aec78840ead75e00d0aff4815ffa1d19e5b64736f6c634300081e0033a2646970667358221220a28309d50b2d498a3956e5ee71e650114b7622b676ecb4c61a4ac05db15bc7f964736f6c634300081e0033","linkReferences":{}},"methodIdentifiers":{"create(uint32,uint32)":"568acb79","disable()":"2f2770db","getActionId(bytes4)":"851c1bb3","getAuthorizer()":"aaabadc5","getRateProvider(uint32,uint32)":"99b8113f","getRateProviderVersion()":"381c7a4f","getVault()":"8d928af8","isRateProviderFromFactory(address)":"19912f71","version()":"54fd4d50"},"id":308}