{"abi":[{"type":"constructor","inputs":[{"name":"vault_","type":"address","internalType":"contract IVault"},{"name":"registry_","type":"address","internalType":"contract IBalancerContractRegistry"},{"name":"defaultMevTaxMultiplier_","type":"uint256","internalType":"uint256"},{"name":"defaultMevTaxThreshold_","type":"uint256","internalType":"uint256"}],"stateMutability":"nonpayable"},{"type":"function","name":"addMevTaxExemptSenders","inputs":[{"name":"senders","type":"address[]","internalType":"address[]"}],"outputs":[],"stateMutability":"nonpayable"},{"type":"function","name":"disableMevTax","inputs":[],"outputs":[],"stateMutability":"nonpayable"},{"type":"function","name":"enableMevTax","inputs":[],"outputs":[],"stateMutability":"nonpayable"},{"type":"function","name":"getActionId","inputs":[{"name":"selector","type":"bytes4","internalType":"bytes4"}],"outputs":[{"name":"","type":"bytes32","internalType":"bytes32"}],"stateMutability":"view"},{"type":"function","name":"getAuthorizer","inputs":[],"outputs":[{"name":"","type":"address","internalType":"contract IAuthorizer"}],"stateMutability":"view"},{"type":"function","name":"getBalancerContractRegistry","inputs":[],"outputs":[{"name":"","type":"address","internalType":"contract IBalancerContractRegistry"}],"stateMutability":"view"},{"type":"function","name":"getDefaultMevTaxMultiplier","inputs":[],"outputs":[{"name":"","type":"uint256","internalType":"uint256"}],"stateMutability":"view"},{"type":"function","name":"getDefaultMevTaxThreshold","inputs":[],"outputs":[{"name":"","type":"uint256","internalType":"uint256"}],"stateMutability":"view"},{"type":"function","name":"getHookFlags","inputs":[],"outputs":[{"name":"hookFlags","type":"tuple","internalType":"struct HookFlags","components":[{"name":"enableHookAdjustedAmounts","type":"bool","internalType":"bool"},{"name":"shouldCallBeforeInitialize","type":"bool","internalType":"bool"},{"name":"shouldCallAfterInitialize","type":"bool","internalType":"bool"},{"name":"shouldCallComputeDynamicSwapFee","type":"bool","internalType":"bool"},{"name":"shouldCallBeforeSwap","type":"bool","internalType":"bool"},{"name":"shouldCallAfterSwap","type":"bool","internalType":"bool"},{"name":"shouldCallBeforeAddLiquidity","type":"bool","internalType":"bool"},{"name":"shouldCallAfterAddLiquidity","type":"bool","internalType":"bool"},{"name":"shouldCallBeforeRemoveLiquidity","type":"bool","internalType":"bool"},{"name":"shouldCallAfterRemoveLiquidity","type":"bool","internalType":"bool"}]}],"stateMutability":"pure"},{"type":"function","name":"getMaxMevSwapFeePercentage","inputs":[],"outputs":[{"name":"","type":"uint256","internalType":"uint256"}],"stateMutability":"view"},{"type":"function","name":"getPoolMevTaxMultiplier","inputs":[{"name":"pool","type":"address","internalType":"address"}],"outputs":[{"name":"","type":"uint256","internalType":"uint256"}],"stateMutability":"view"},{"type":"function","name":"getPoolMevTaxThreshold","inputs":[{"name":"pool","type":"address","internalType":"address"}],"outputs":[{"name":"","type":"uint256","internalType":"uint256"}],"stateMutability":"view"},{"type":"function","name":"getVault","inputs":[],"outputs":[{"name":"","type":"address","internalType":"contract IVault"}],"stateMutability":"view"},{"type":"function","name":"isMevTaxEnabled","inputs":[],"outputs":[{"name":"","type":"bool","internalType":"bool"}],"stateMutability":"view"},{"type":"function","name":"isMevTaxExemptSender","inputs":[{"name":"sender","type":"address","internalType":"address"}],"outputs":[{"name":"","type":"bool","internalType":"bool"}],"stateMutability":"view"},{"type":"function","name":"onAfterAddLiquidity","inputs":[{"name":"","type":"address","internalType":"address"},{"name":"","type":"address","internalType":"address"},{"name":"","type":"uint8","internalType":"enum AddLiquidityKind"},{"name":"","type":"uint256[]","internalType":"uint256[]"},{"name":"amountsInRaw","type":"uint256[]","internalType":"uint256[]"},{"name":"","type":"uint256","internalType":"uint256"},{"name":"","type":"uint256[]","internalType":"uint256[]"},{"name":"","type":"bytes","internalType":"bytes"}],"outputs":[{"name":"","type":"bool","internalType":"bool"},{"name":"","type":"uint256[]","internalType":"uint256[]"}],"stateMutability":"nonpayable"},{"type":"function","name":"onAfterInitialize","inputs":[{"name":"","type":"uint256[]","internalType":"uint256[]"},{"name":"","type":"uint256","internalType":"uint256"},{"name":"","type":"bytes","internalType":"bytes"}],"outputs":[{"name":"","type":"bool","internalType":"bool"}],"stateMutability":"nonpayable"},{"type":"function","name":"onAfterRemoveLiquidity","inputs":[{"name":"","type":"address","internalType":"address"},{"name":"","type":"address","internalType":"address"},{"name":"","type":"uint8","internalType":"enum RemoveLiquidityKind"},{"name":"","type":"uint256","internalType":"uint256"},{"name":"","type":"uint256[]","internalType":"uint256[]"},{"name":"amountsOutRaw","type":"uint256[]","internalType":"uint256[]"},{"name":"","type":"uint256[]","internalType":"uint256[]"},{"name":"","type":"bytes","internalType":"bytes"}],"outputs":[{"name":"","type":"bool","internalType":"bool"},{"name":"","type":"uint256[]","internalType":"uint256[]"}],"stateMutability":"nonpayable"},{"type":"function","name":"onAfterSwap","inputs":[{"name":"","type":"tuple","internalType":"struct AfterSwapParams","components":[{"name":"kind","type":"uint8","internalType":"enum SwapKind"},{"name":"tokenIn","type":"address","internalType":"contract IERC20"},{"name":"tokenOut","type":"address","internalType":"contract IERC20"},{"name":"amountInScaled18","type":"uint256","internalType":"uint256"},{"name":"amountOutScaled18","type":"uint256","internalType":"uint256"},{"name":"tokenInBalanceScaled18","type":"uint256","internalType":"uint256"},{"name":"tokenOutBalanceScaled18","type":"uint256","internalType":"uint256"},{"name":"amountCalculatedScaled18","type":"uint256","internalType":"uint256"},{"name":"amountCalculatedRaw","type":"uint256","internalType":"uint256"},{"name":"router","type":"address","internalType":"address"},{"name":"pool","type":"address","internalType":"address"},{"name":"userData","type":"bytes","internalType":"bytes"}]}],"outputs":[{"name":"","type":"bool","internalType":"bool"},{"name":"","type":"uint256","internalType":"uint256"}],"stateMutability":"nonpayable"},{"type":"function","name":"onBeforeAddLiquidity","inputs":[{"name":"","type":"address","internalType":"address"},{"name":"pool","type":"address","internalType":"address"},{"name":"kind","type":"uint8","internalType":"enum AddLiquidityKind"},{"name":"","type":"uint256[]","internalType":"uint256[]"},{"name":"","type":"uint256","internalType":"uint256"},{"name":"","type":"uint256[]","internalType":"uint256[]"},{"name":"","type":"bytes","internalType":"bytes"}],"outputs":[{"name":"success","type":"bool","internalType":"bool"}],"stateMutability":"view"},{"type":"function","name":"onBeforeInitialize","inputs":[{"name":"","type":"uint256[]","internalType":"uint256[]"},{"name":"","type":"bytes","internalType":"bytes"}],"outputs":[{"name":"","type":"bool","internalType":"bool"}],"stateMutability":"nonpayable"},{"type":"function","name":"onBeforeRemoveLiquidity","inputs":[{"name":"","type":"address","internalType":"address"},{"name":"pool","type":"address","internalType":"address"},{"name":"kind","type":"uint8","internalType":"enum RemoveLiquidityKind"},{"name":"","type":"uint256","internalType":"uint256"},{"name":"","type":"uint256[]","internalType":"uint256[]"},{"name":"","type":"uint256[]","internalType":"uint256[]"},{"name":"","type":"bytes","internalType":"bytes"}],"outputs":[{"name":"success","type":"bool","internalType":"bool"}],"stateMutability":"view"},{"type":"function","name":"onBeforeSwap","inputs":[{"name":"","type":"tuple","internalType":"struct PoolSwapParams","components":[{"name":"kind","type":"uint8","internalType":"enum SwapKind"},{"name":"amountGivenScaled18","type":"uint256","internalType":"uint256"},{"name":"balancesScaled18","type":"uint256[]","internalType":"uint256[]"},{"name":"indexIn","type":"uint256","internalType":"uint256"},{"name":"indexOut","type":"uint256","internalType":"uint256"},{"name":"router","type":"address","internalType":"address"},{"name":"userData","type":"bytes","internalType":"bytes"}]},{"name":"","type":"address","internalType":"address"}],"outputs":[{"name":"","type":"bool","internalType":"bool"}],"stateMutability":"nonpayable"},{"type":"function","name":"onComputeDynamicSwapFeePercentage","inputs":[{"name":"params","type":"tuple","internalType":"struct PoolSwapParams","components":[{"name":"kind","type":"uint8","internalType":"enum SwapKind"},{"name":"amountGivenScaled18","type":"uint256","internalType":"uint256"},{"name":"balancesScaled18","type":"uint256[]","internalType":"uint256[]"},{"name":"indexIn","type":"uint256","internalType":"uint256"},{"name":"indexOut","type":"uint256","internalType":"uint256"},{"name":"router","type":"address","internalType":"address"},{"name":"userData","type":"bytes","internalType":"bytes"}]},{"name":"pool","type":"address","internalType":"address"},{"name":"staticSwapFeePercentage","type":"uint256","internalType":"uint256"}],"outputs":[{"name":"","type":"bool","internalType":"bool"},{"name":"","type":"uint256","internalType":"uint256"}],"stateMutability":"view"},{"type":"function","name":"onRegister","inputs":[{"name":"","type":"address","internalType":"address"},{"name":"pool","type":"address","internalType":"address"},{"name":"","type":"tuple[]","internalType":"struct TokenConfig[]","components":[{"name":"token","type":"address","internalType":"contract IERC20"},{"name":"tokenType","type":"uint8","internalType":"enum TokenType"},{"name":"rateProvider","type":"address","internalType":"contract IRateProvider"},{"name":"paysYieldFees","type":"bool","internalType":"bool"}]},{"name":"","type":"tuple","internalType":"struct LiquidityManagement","components":[{"name":"disableUnbalancedLiquidity","type":"bool","internalType":"bool"},{"name":"enableAddLiquidityCustom","type":"bool","internalType":"bool"},{"name":"enableRemoveLiquidityCustom","type":"bool","internalType":"bool"},{"name":"enableDonation","type":"bool","internalType":"bool"}]}],"outputs":[{"name":"","type":"bool","internalType":"bool"}],"stateMutability":"nonpayable"},{"type":"function","name":"removeMevTaxExemptSenders","inputs":[{"name":"senders","type":"address[]","internalType":"address[]"}],"outputs":[],"stateMutability":"nonpayable"},{"type":"function","name":"setDefaultMevTaxMultiplier","inputs":[{"name":"newDefaultMevTaxMultiplier","type":"uint256","internalType":"uint256"}],"outputs":[],"stateMutability":"nonpayable"},{"type":"function","name":"setDefaultMevTaxThreshold","inputs":[{"name":"newDefaultMevTaxThreshold","type":"uint256","internalType":"uint256"}],"outputs":[],"stateMutability":"nonpayable"},{"type":"function","name":"setMaxMevSwapFeePercentage","inputs":[{"name":"maxMevSwapFeePercentage","type":"uint256","internalType":"uint256"}],"outputs":[],"stateMutability":"nonpayable"},{"type":"function","name":"setPoolMevTaxMultiplier","inputs":[{"name":"pool","type":"address","internalType":"address"},{"name":"newPoolMevTaxMultiplier","type":"uint256","internalType":"uint256"}],"outputs":[],"stateMutability":"nonpayable"},{"type":"function","name":"setPoolMevTaxThreshold","inputs":[{"name":"pool","type":"address","internalType":"address"},{"name":"newPoolMevTaxThreshold","type":"uint256","internalType":"uint256"}],"outputs":[],"stateMutability":"nonpayable"},{"type":"event","name":"DefaultMevTaxMultiplierSet","inputs":[{"name":"defaultMevTaxMultiplier","type":"uint256","indexed":false,"internalType":"uint256"}],"anonymous":false},{"type":"event","name":"DefaultMevTaxThresholdSet","inputs":[{"name":"defaultMevTaxThreshold","type":"uint256","indexed":false,"internalType":"uint256"}],"anonymous":false},{"type":"event","name":"MaxMevSwapFeePercentageSet","inputs":[{"name":"maxMevSwapFeePercentage","type":"uint256","indexed":false,"internalType":"uint256"}],"anonymous":false},{"type":"event","name":"MevTaxEnabledSet","inputs":[{"name":"enabled","type":"bool","indexed":false,"internalType":"bool"}],"anonymous":false},{"type":"event","name":"MevTaxExemptSenderAdded","inputs":[{"name":"sender","type":"address","indexed":true,"internalType":"address"}],"anonymous":false},{"type":"event","name":"MevTaxExemptSenderRemoved","inputs":[{"name":"sender","type":"address","indexed":true,"internalType":"address"}],"anonymous":false},{"type":"event","name":"PoolMevTaxMultiplierSet","inputs":[{"name":"pool","type":"address","indexed":true,"internalType":"address"},{"name":"poolMevTaxMultiplier","type":"uint256","indexed":false,"internalType":"uint256"}],"anonymous":false},{"type":"event","name":"PoolMevTaxThresholdSet","inputs":[{"name":"pool","type":"address","indexed":true,"internalType":"address"},{"name":"poolMevTaxThreshold","type":"uint256","indexed":false,"internalType":"uint256"}],"anonymous":false},{"type":"error","name":"InvalidBalancerContractRegistry","inputs":[]},{"type":"error","name":"MevCaptureHookNotRegisteredInPool","inputs":[{"name":"pool","type":"address","internalType":"address"}]},{"type":"error","name":"MevSwapFeePercentageAboveMax","inputs":[{"name":"feePercentage","type":"uint256","internalType":"uint256"},{"name":"maxAllowed","type":"uint256","internalType":"uint256"}]},{"type":"error","name":"MevTaxExemptSenderAlreadyAdded","inputs":[{"name":"sender","type":"address","internalType":"address"}]},{"type":"error","name":"SenderIsNotVault","inputs":[{"name":"sender","type":"address","internalType":"address"}]},{"type":"error","name":"SenderNotAllowed","inputs":[]},{"type":"error","name":"SenderNotRegisteredAsMevTaxExempt","inputs":[{"name":"sender","type":"address","internalType":"address"}]},{"type":"error","name":"VaultNotSet","inputs":[]}],"bytecode":{"object":"0x610100604052348015610010575f5ffd5b5060405161235738038061235783398101604081905261002f91610268565b6001600160a01b03841660808190523060a0819052859182919061006657604051630647140b60e51b815260040160405180910390fd5b506001600160a01b0390811660c052841660e081905260405163013274bf60e51b81525f600482015290915063264e97e090602401602060405180830381865afa1580156100b6573d5f5f3e3d5ffd5b505050506040513d601f19601f820116820180604052508101906100da91906102ad565b156100f857604051635c84f39b60e01b815260040160405180910390fd5b610102600161012e565b61010b82610175565b610114816101aa565b610125670de0b5cad2bef0006101df565b505050506102d3565b5f805460ff19168215159081179091556040519081527f53525c548bd046e97a02f1d25bcc45701433dd7f01925c0618b36d1859681abe906020015b60405180910390a150565b60018190556040518181527f9bf787e2aefecf377c7a9d187bf4a25477b7bf79e1e5e12b2cdf5d6920725ce29060200161016a565b60028190556040518181527fab04e788572c89101fd68f2d1e18084f3116ce893d04f941b6b0a2728c3eef759060200161016a565b670de0b5cad2bef00081111561021c576040516220fb3f60e81b815260048101829052670de0b5cad2bef000602482015260440160405180910390fd5b60038190556040518181527fdebbe20e15c981690db2afeed0eaafd8c8b77ea80503b0dbda6ba059a0bb67e09060200161016a565b6001600160a01b0381168114610265575f5ffd5b50565b5f5f5f5f6080858703121561027b575f5ffd5b845161028681610251565b602086015190945061029781610251565b6040860151606090960151949790965092505050565b5f602082840312156102bd575f5ffd5b815180151581146102cc575f5ffd5b9392505050565b60805160a05160c05160e0516120126103455f395f8181610410015261082e01525f818161076401528181610b1701528181610cd10152818161119401526112b501525f6106f001525f81816104a00152818161059901528181610a5601528181610c100152610e4c01526120125ff3fe608060405234801561000f575f5ffd5b5060043610610173575f3560e01c8063042cd514146101775780630b89f1821461018c578063166f1aad146101b457806318b6eb55146101d55780631c149e281461020157806325e52319146102145780632754888d1461021c57806338be241d146102475780633a7602621461025a57806345421ec71461026d5780635211fa771461028057806362c6d3d31461028e57806362f57cd814610296578063851c1bb31461029e5780638c55613e146102b15780638d928af8146102b95780638dd6e098146102ce578063976907cc146102d85780639b157919146102f55780639f64fd6314610308578063a0e8f5ac1461031b578063a4e5de3c1461032e578063aaabadc514610341578063b20541c614610349578063ba5f9f4014610374578063bcc6951b14610387578063c4407f1f1461038f578063d403a47d146103a2578063d77153a7146103b5578063deb27a7a1461040e578063e289e38014610434575b5f5ffd5b61018a6101853660046113a9565b610447565b005b61019f61019a3660046114b8565b61045b565b60405190151581526020015b60405180910390f35b6101c76101c23660046115e6565b61049b565b6040519081526020016101ab565b6101ea6101e3366004611601565b505f908190565b6040805192151583526020830191909152016101ab565b61019f61020f366004611708565b610583565b6001546101c7565b61023961022a366004611779565b5f839850989650505050505050565b6040516101ab929190611868565b61019f6102553660046118b7565b61058b565b6101c76102683660046115e6565b610594565b61019f61027b366004611930565b610673565b61019f61020f366004611a07565b6003546101c7565b61018a6106d9565b6101c76102ac366004611a55565b6106ed565b61018a610751565b6102c1610762565b6040516101ab9190611a7c565b5f5460ff1661019f565b6102396102e6366004611a90565b5f849850989650505050505050565b61018a610303366004611b3c565b61078b565b61018a610316366004611b3c565b6107cc565b6101ea610329366004611bd5565b610809565b61018a61033c3660046113a9565b6109a5565b6102c16109b6565b61019f6103573660046115e6565b6001600160a01b03165f9081526004602052604090205460ff1690565b61019f610382366004611c2a565b610a1e565b6002546101c7565b61018a61039d366004611caf565b610a52565b61018a6103b0366004611caf565b610c0c565b60408051610140810182525f808252602082018190528183018190526080820181905260a0820181905260e0820181905261012082015260016060820181905260c0820181905261010082015290516101ab9190611cd9565b7f00000000000000000000000000000000000000000000000000000000000000006102c1565b61018a6104423660046113a9565b610db6565b61044f610dc7565b61045881610e05565b50565b5f610464610e41565b50600180546001600160a01b0385165f90815260066020908152604080832093909355600254600590915291902055949350505050565b5f815f7f00000000000000000000000000000000000000000000000000000000000000006001600160a01b031663ce8630d4836040518263ffffffff1660e01b81526004016104ea9190611a7c565b61016060405180830381865afa158015610506573d5f5f3e3d5ffd5b505050506040513d601f19601f8201168201806040525081019061052a9190611db8565b6101408101519091506001600160a01b031630146105665781604051630ea0359b60e31b815260040161055d9190611a7c565b60405180910390fd5b5050506001600160a01b03165f9081526005602052604090205490565b5f5b92915050565b5f5b9392505050565b5f815f7f00000000000000000000000000000000000000000000000000000000000000006001600160a01b031663ce8630d4836040518263ffffffff1660e01b81526004016105e39190611a7c565b61016060405180830381865afa1580156105ff573d5f5f3e3d5ffd5b505050506040513d601f19601f820116820180604052508101906106239190611db8565b6101408101519091506001600160a01b031630146106565781604051630ea0359b60e31b815260040161055d9190611a7c565b5050506001600160a01b03165f9081526006602052604090205490565b5f805460ff1615158103610689575060016106ce565b5f610692610e8c565b90505f8760048111156106a7576106a7611e95565b14806106ca57506001600160a01b0388165f908152600560205260409020548111155b9150505b979650505050505050565b6106e1610dc7565b6106eb6001610e97565b565b5f7f0000000000000000000000000000000000000000000000000000000000000000826040516020016107349291909182526001600160e01b031916602082015260240190565b604051602081830303815290604052805190602001209050919050565b610759610dc7565b6106eb5f610e97565b7f000000000000000000000000000000000000000000000000000000000000000090565b905090565b610793610dc7565b5f5b81518110156107c8576107c08282815181106107b3576107b3611ea9565b6020026020010151610ed7565b600101610795565b5050565b6107d4610dc7565b5f5b81518110156107c8576108018282815181106107f4576107f4611ea9565b6020026020010151610f5d565b6001016107d6565b5f8054819060ff16151581036108245750600190508161099d565b6001600160a01b037f00000000000000000000000000000000000000000000000000000000000000001663264e97e061086360c0880160a089016115e6565b6040518263ffffffff1660e01b815260040161087f9190611a7c565b602060405180830381865afa15801561089a573d5f5f3e3d5ffd5b505050506040513d601f19601f820116820180604052508101906108be9190611ebd565b15610965575f6108d460c0870160a088016115e6565b6001600160a01b0316635e01eb5a6040518163ffffffff1660e01b8152600401602060405180830381865afa15801561090f573d5f5f3e3d5ffd5b505050506040513d601f19601f820116820180604052508101906109339190611ed8565b6001600160a01b0381165f9081526004602052604090205490915060ff161561096357600184925092505061099d565b505b6001600160a01b0384165f9081526006602090815260408083205460059092529091205460019161099891869190610fe3565b915091505b935093915050565b6109ad610dc7565b61045881611078565b5f6109bf610762565b6001600160a01b031663aaabadc56040518163ffffffff1660e01b8152600401602060405180830381865afa1580156109fa573d5f5f3e3d5ffd5b505050506040513d601f19601f820116820180604052508101906107869190611ed8565b5f805460ff1615158103610a34575060016106ce565b5f610a3d610e8c565b90505f8760038111156106a7576106a7611e95565b815f7f00000000000000000000000000000000000000000000000000000000000000006001600160a01b031663ce8630d4836040518263ffffffff1660e01b8152600401610aa09190611a7c565b61016060405180830381865afa158015610abc573d5f5f3e3d5ffd5b505050506040513d601f19601f82011682018060405250810190610ae09190611db8565b6101408101519091506001600160a01b03163014610b135781604051630ea0359b60e31b815260040161055d9190611a7c565b835f7f00000000000000000000000000000000000000000000000000000000000000006001600160a01b031663e9ddeb26836040518263ffffffff1660e01b8152600401610b619190611a7c565b606060405180830381865afa158015610b7c573d5f5f3e3d5ffd5b505050506040513d601f19601f82011682018060405250810190610ba09190611ef3565b602001519050610bb082826110ad565b6001600160a01b0386165f8181526005602052604090819020879055517f907112dd6d17a8468828c40efc60143bdd909e18011cac76b8e296222b3d594f90610bfc9088815260200190565b60405180910390a2505050505050565b815f7f00000000000000000000000000000000000000000000000000000000000000006001600160a01b031663ce8630d4836040518263ffffffff1660e01b8152600401610c5a9190611a7c565b61016060405180830381865afa158015610c76573d5f5f3e3d5ffd5b505050506040513d601f19601f82011682018060405250810190610c9a9190611db8565b6101408101519091506001600160a01b03163014610ccd5781604051630ea0359b60e31b815260040161055d9190611a7c565b835f7f00000000000000000000000000000000000000000000000000000000000000006001600160a01b031663e9ddeb26836040518263ffffffff1660e01b8152600401610d1b9190611a7c565b606060405180830381865afa158015610d36573d5f5f3e3d5ffd5b505050506040513d601f19601f82011682018060405250810190610d5a9190611ef3565b602001519050610d6a82826110ad565b6001600160a01b0386165f8181526006602052604090819020879055517ff7f1a750162ea954c7d18a19baa6b79aa1428f8dc433bb39d22da648efb6013690610bfc9088815260200190565b610dbe610dc7565b61045881611123565b5f610ddc5f356001600160e01b0319166106ed565b9050610de88133611191565b610458576040516323dada5360e01b815260040160405180910390fd5b60018190556040518181527f9bf787e2aefecf377c7a9d187bf4a25477b7bf79e1e5e12b2cdf5d6920725ce2906020015b60405180910390a150565b336001600160a01b037f000000000000000000000000000000000000000000000000000000000000000016146106eb573360405163089676d560e01b815260040161055d9190611a7c565b5f610786483a611f78565b5f805460ff19168215159081179091556040519081527f53525c548bd046e97a02f1d25bcc45701433dd7f01925c0618b36d1859681abe90602001610e36565b6001600160a01b0381165f9081526004602052604081205460ff1615159003610f1557806040516301147f3f60e01b815260040161055d9190611a7c565b6001600160a01b0381165f81815260046020526040808220805460ff19169055517fa6c039d6f5be3cc83645e895e73091c938efd27001eace48704833c45b6c994c9190a250565b6001600160a01b0381165f9081526004602052604090205460ff1615610f98578060405163041be96960e21b815260040161055d9190611a7c565b6001600160a01b0381165f81815260046020526040808220805460ff19166001179055517fbdf65067094f886eb7cdc0306e2305d7978636a08c7c473b76883f6144fb21299190a250565b5f5f610fed610e8c565b60035490915083821115806110025750858111155b1561101157859250505061058d565b5f806110266110208786611f78565b88611280565b90925090508115155f03611040578294505050505061058d565b611052670de0b6b3a764000082611f8b565b90505f61105f828a611faa565b905061106b81856112a3565b9998505050505050505050565b60028190556040518181527fab04e788572c89101fd68f2d1e18084f3116ce893d04f941b6b0a2728c3eef7590602001610e36565b6001600160a01b0381166110fa576110d96110d25f356001600160e01b0319166106ed565b33846112b2565b15155f036107c8576040516323dada5360e01b815260040160405180910390fd5b336001600160a01b038216146107c8576040516323dada5360e01b815260040160405180910390fd5b670de0b5cad2bef00081111561115c576040516220fb3f60e81b815260048101829052670de0b5cad2bef000602482015260440161055d565b60038190556040518181527fdebbe20e15c981690db2afeed0eaafd8c8b77ea80503b0dbda6ba059a0bb67e090602001610e36565b5f7f00000000000000000000000000000000000000000000000000000000000000006001600160a01b031663aaabadc56040518163ffffffff1660e01b8152600401602060405180830381865afa1580156111ee573d5f5f3e3d5ffd5b505050506040513d601f19601f820116820180604052508101906112129190611ed8565b6001600160a01b0316639be2a8848484306040518463ffffffff1660e01b815260040161124193929190611fbd565b602060405180830381865afa15801561125c573d5f5f3e3d5ffd5b505050506040513d601f19601f8201168201806040525081019061058d9190611ebd565b8181028281048214831517905f9061129783151590565b81029150509250929050565b5f81831182841802831861058d565b5f7f00000000000000000000000000000000000000000000000000000000000000006001600160a01b031663aaabadc56040518163ffffffff1660e01b8152600401602060405180830381865afa15801561130f573d5f5f3e3d5ffd5b505050506040513d601f19601f820116820180604052508101906113339190611ed8565b6001600160a01b0316639be2a8848585856040518463ffffffff1660e01b815260040161136293929190611fbd565b602060405180830381865afa15801561137d573d5f5f3e3d5ffd5b505050506040513d601f19601f820116820180604052508101906113a19190611ebd565b949350505050565b5f602082840312156113b9575f5ffd5b5035919050565b6001600160a01b0381168114610458575f5ffd5b80356113df816113c0565b919050565b634e487b7160e01b5f52604160045260245ffd5b604051608081016001600160401b038111828210171561141a5761141a6113e4565b60405290565b60405161016081016001600160401b038111828210171561141a5761141a6113e4565b604051601f8201601f191681016001600160401b038111828210171561146b5761146b6113e4565b604052919050565b5f6001600160401b0382111561148b5761148b6113e4565b5060051b60200190565b8015158114610458575f5ffd5b5f608082840312156114b2575f5ffd5b50919050565b5f5f5f5f60e085870312156114cb575f5ffd5b84356114d6816113c0565b935060208501356114e6816113c0565b925060408501356001600160401b03811115611500575f5ffd5b8501601f81018713611510575f5ffd5b803561152361151e82611473565b611443565b8082825260208201915060208360071b850101925089831115611544575f5ffd5b6020840193505b828410156115c7576080848b031215611562575f5ffd5b61156a6113f8565b8435611575816113c0565b8152602085013560028110611588575f5ffd5b6020820152604085013561159b816113c0565b604082015260608501356115ae81611495565b606082015282526080939093019260209091019061154b565b809550505050506115db86606087016114a2565b905092959194509250565b5f602082840312156115f6575f5ffd5b813561058d816113c0565b5f60208284031215611611575f5ffd5b81356001600160401b03811115611626575f5ffd5b8201610180818503121561058d575f5ffd5b5f82601f830112611647575f5ffd5b813561165561151e82611473565b8082825260208201915060208360051b860101925085831115611676575f5ffd5b602085015b8381101561169357803583526020928301920161167b565b5095945050505050565b5f82601f8301126116ac575f5ffd5b81356001600160401b038111156116c5576116c56113e4565b6116d8601f8201601f1916602001611443565b8181528460208386010111156116ec575f5ffd5b816020850160208301375f918101602001919091529392505050565b5f5f60408385031215611719575f5ffd5b82356001600160401b0381111561172e575f5ffd5b61173a85828601611638565b92505060208301356001600160401b03811115611755575f5ffd5b6117618582860161169d565b9150509250929050565b8035600481106113df575f5ffd5b5f5f5f5f5f5f5f5f610100898b031215611791575f5ffd5b61179a896113d4565b97506117a860208a016113d4565b96506117b660408a0161176b565b95506060890135945060808901356001600160401b038111156117d7575f5ffd5b6117e38b828c01611638565b94505060a08901356001600160401b038111156117fe575f5ffd5b61180a8b828c01611638565b93505060c08901356001600160401b03811115611825575f5ffd5b6118318b828c01611638565b92505060e08901356001600160401b0381111561184c575f5ffd5b6118588b828c0161169d565b9150509295985092959890939650565b5f604082018415158352604060208401528084518083526060850191506020860192505f5b818110156118ab57835183526020938401939092019160010161188d565b50909695505050505050565b5f5f5f606084860312156118c9575f5ffd5b83356001600160401b038111156118de575f5ffd5b6118ea86828701611638565b9350506020840135915060408401356001600160401b0381111561190c575f5ffd5b6119188682870161169d565b9150509250925092565b8035600581106113df575f5ffd5b5f5f5f5f5f5f5f60e0888a031215611946575f5ffd5b8735611951816113c0565b965061195f602089016113d4565b955061196d60408901611922565b945060608801356001600160401b03811115611987575f5ffd5b6119938a828b01611638565b9450506080880135925060a08801356001600160401b038111156119b5575f5ffd5b6119c18a828b01611638565b92505060c08801356001600160401b038111156119dc575f5ffd5b6119e88a828b0161169d565b91505092959891949750929550565b5f60e082840312156114b2575f5ffd5b5f5f60408385031215611a18575f5ffd5b82356001600160401b03811115611a2d575f5ffd5b611a39858286016119f7565b9250506020830135611a4a816113c0565b809150509250929050565b5f60208284031215611a65575f5ffd5b81356001600160e01b03198116811461058d575f5ffd5b6001600160a01b0391909116815260200190565b5f5f5f5f5f5f5f5f610100898b031215611aa8575f5ffd5b611ab1896113d4565b9750611abf60208a016113d4565b9650611acd60408a01611922565b955060608901356001600160401b03811115611ae7575f5ffd5b611af38b828c01611638565b95505060808901356001600160401b03811115611b0e575f5ffd5b611b1a8b828c01611638565b94505060a0890135925060c08901356001600160401b03811115611825575f5ffd5b5f60208284031215611b4c575f5ffd5b81356001600160401b03811115611b61575f5ffd5b8201601f81018413611b71575f5ffd5b8035611b7f61151e82611473565b8082825260208201915060208360051b850101925086831115611ba0575f5ffd5b6020840193505b82841015611bcb578335611bba816113c0565b825260209384019390910190611ba7565b9695505050505050565b5f5f5f60608486031215611be7575f5ffd5b83356001600160401b03811115611bfc575f5ffd5b611c08868287016119f7565b9350506020840135611c19816113c0565b929592945050506040919091013590565b5f5f5f5f5f5f5f60e0888a031215611c40575f5ffd5b8735611c4b816113c0565b9650611c59602089016113d4565b9550611c676040890161176b565b94506060880135935060808801356001600160401b03811115611c88575f5ffd5b611c948a828b01611638565b93505060a08801356001600160401b038111156119b5575f5ffd5b5f5f60408385031215611cc0575f5ffd5b8235611ccb816113c0565b946020939093013593505050565b81511515815261014081016020830151611cf7602084018215159052565b506040830151611d0b604084018215159052565b506060830151611d1f606084018215159052565b506080830151611d33608084018215159052565b5060a0830151611d4760a084018215159052565b5060c0830151611d5b60c084018215159052565b5060e0830151611d6f60e084018215159052565b50610100830151611d8561010084018215159052565b50610120830151611d9b61012084018215159052565b5092915050565b80516113df81611495565b80516113df816113c0565b5f610160828403128015611dca575f5ffd5b50611dd3611420565b611ddc83611da2565b8152611dea60208401611da2565b6020820152611dfb60408401611da2565b6040820152611e0c60608401611da2565b6060820152611e1d60808401611da2565b6080820152611e2e60a08401611da2565b60a0820152611e3f60c08401611da2565b60c0820152611e5060e08401611da2565b60e0820152611e626101008401611da2565b610100820152611e756101208401611da2565b610120820152611e886101408401611dad565b6101408201529392505050565b634e487b7160e01b5f52602160045260245ffd5b634e487b7160e01b5f52603260045260245ffd5b5f60208284031215611ecd575f5ffd5b815161058d81611495565b5f60208284031215611ee8575f5ffd5b815161058d816113c0565b5f6060828403128015611f04575f5ffd5b50604051606081016001600160401b0381118282101715611f2757611f276113e4565b6040528251611f35816113c0565b81526020830151611f45816113c0565b60208201526040830151611f58816113c0565b60408201529392505050565b634e487b7160e01b5f52601160045260245ffd5b8181038181111561058557610585611f64565b5f82611fa557634e487b7160e01b5f52601260045260245ffd5b500490565b8082018082111561058557610585611f64565b9283526001600160a01b0391821660208401521660408201526060019056fea2646970667358221220b531ed0287d0dd17ab174f22d2f5c99e0e71364d70d1d4bb1f60a2165bc3be6f64736f6c634300081e0033","linkReferences":{}},"methodIdentifiers":{"addMevTaxExemptSenders(address[])":"9f64fd63","disableMevTax()":"8c55613e","enableMevTax()":"62f57cd8","getActionId(bytes4)":"851c1bb3","getAuthorizer()":"aaabadc5","getBalancerContractRegistry()":"deb27a7a","getDefaultMevTaxMultiplier()":"25e52319","getDefaultMevTaxThreshold()":"bcc6951b","getHookFlags()":"d77153a7","getMaxMevSwapFeePercentage()":"62c6d3d3","getPoolMevTaxMultiplier(address)":"3a760262","getPoolMevTaxThreshold(address)":"166f1aad","getVault()":"8d928af8","isMevTaxEnabled()":"8dd6e098","isMevTaxExemptSender(address)":"b20541c6","onAfterAddLiquidity(address,address,uint8,uint256[],uint256[],uint256,uint256[],bytes)":"976907cc","onAfterInitialize(uint256[],uint256,bytes)":"38be241d","onAfterRemoveLiquidity(address,address,uint8,uint256,uint256[],uint256[],uint256[],bytes)":"2754888d","onAfterSwap((uint8,address,address,uint256,uint256,uint256,uint256,uint256,uint256,address,address,bytes))":"18b6eb55","onBeforeAddLiquidity(address,address,uint8,uint256[],uint256,uint256[],bytes)":"45421ec7","onBeforeInitialize(uint256[],bytes)":"1c149e28","onBeforeRemoveLiquidity(address,address,uint8,uint256,uint256[],uint256[],bytes)":"ba5f9f40","onBeforeSwap((uint8,uint256,uint256[],uint256,uint256,address,bytes),address)":"5211fa77","onComputeDynamicSwapFeePercentage((uint8,uint256,uint256[],uint256,uint256,address,bytes),address,uint256)":"a0e8f5ac","onRegister(address,address,(address,uint8,address,bool)[],(bool,bool,bool,bool))":"0b89f182","removeMevTaxExemptSenders(address[])":"9b157919","setDefaultMevTaxMultiplier(uint256)":"042cd514","setDefaultMevTaxThreshold(uint256)":"a4e5de3c","setMaxMevSwapFeePercentage(uint256)":"e289e380","setPoolMevTaxMultiplier(address,uint256)":"d403a47d","setPoolMevTaxThreshold(address,uint256)":"c4407f1f"},"id":855}