{"abi":[{"type":"constructor","inputs":[],"stateMutability":"nonpayable"},{"type":"function","name":"addOwner","inputs":[{"name":"owner_","type":"address","internalType":"address"}],"outputs":[],"stateMutability":"nonpayable"},{"type":"function","name":"canPerform","inputs":[{"name":"","type":"bytes32","internalType":"bytes32"},{"name":"account","type":"address","internalType":"address"},{"name":"","type":"address","internalType":"address"}],"outputs":[{"name":"","type":"bool","internalType":"bool"}],"stateMutability":"view"},{"type":"function","name":"canPerform","inputs":[{"name":"","type":"bytes32","internalType":"bytes32"},{"name":"account","type":"address","internalType":"address"}],"outputs":[{"name":"","type":"bool","internalType":"bool"}],"stateMutability":"view"},{"type":"function","name":"collectAggregateFees","inputs":[{"name":"","type":"address","internalType":"address"}],"outputs":[],"stateMutability":"nonpayable"},{"type":"function","name":"getAuthorizer","inputs":[],"outputs":[{"name":"authorizer","type":"address","internalType":"contract IAuthorizer"}],"stateMutability":"view"},{"type":"function","name":"getProtocolFeeController","inputs":[],"outputs":[{"name":"protocolFeeController","type":"address","internalType":"contract IProtocolFeeController"}],"stateMutability":"view"},{"type":"function","name":"owners","inputs":[{"name":"","type":"address","internalType":"address"}],"outputs":[{"name":"","type":"bool","internalType":"bool"}],"stateMutability":"view"},{"type":"function","name":"removeOwner","inputs":[{"name":"owner_","type":"address","internalType":"address"}],"outputs":[],"stateMutability":"nonpayable"},{"type":"function","name":"withdrawProtocolFeesForToken","inputs":[{"name":"","type":"address","internalType":"address"},{"name":"recipient","type":"address","internalType":"address"},{"name":"token","type":"address","internalType":"contract IERC20"}],"outputs":[],"stateMutability":"nonpayable"}],"bytecode":{"object":"0x6080604052348015600e575f5ffd5b50335f908152602081905260409020805460ff19166001179055610491806100355f395ff3fe608060405234801561000f575f5ffd5b5060043610610081575f3560e01c8063022914a714610085578063173825d9146100bc5780637065cb48146100d157806385f2dbd4146100e45780638f4ab9ca146100f25780639be2a88414610103578063aaabadc5146100e4578063b53a70b214610131578063c6a92e1614610144575b5f5ffd5b6100a7610093366004610330565b5f6020819052908152604090205460ff1681565b60405190151581526020015b60405180910390f35b6100cf6100ca366004610330565b610171565b005b6100cf6100df366004610330565b6101c8565b306040516100b39190610352565b6100cf610100366004610330565b50565b6100a7610111366004610366565b506001600160a01b03165f9081526020819052604090205460ff16919050565b6100cf61013f3660046103a5565b610219565b6100a76101523660046103d2565b6001600160a01b03165f9081526020819052604090205460ff16919050565b335f9081526020819052604090205460ff166101a85760405162461bcd60e51b815260040161019f90610400565b60405180910390fd5b6001600160a01b03165f908152602081905260409020805460ff19169055565b335f9081526020819052604090205460ff166101f65760405162461bcd60e51b815260040161019f90610400565b6001600160a01b03165f908152602081905260409020805460ff19166001179055565b335f9081526020819052604090205460ff166102475760405162461bcd60e51b815260040161019f90610400565b6102c782826001600160a01b03166370a08231306040518263ffffffff1660e01b81526004016102779190610352565b602060405180830381865afa158015610292573d5f5f3e3d5ffd5b505050506040513d601f19601f820116820180604052508101906102b69190610444565b6001600160a01b03841691906102cc565b505050565b6102c7838383816014528060345263a9059cbb60601b5f5260205f604460105f875af18060015f51141661031257803d853b151710610312576390b8ec185f526004601cfd5b505f603452505050565b6001600160a01b0381168114610100575f5ffd5b5f60208284031215610340575f5ffd5b813561034b8161031c565b9392505050565b6001600160a01b0391909116815260200190565b5f5f5f60608486031215610378575f5ffd5b83359250602084013561038a8161031c565b9150604084013561039a8161031c565b809150509250925092565b5f5f5f606084860312156103b7575f5ffd5b83356103c28161031c565b9250602084013561038a8161031c565b5f5f604083850312156103e3575f5ffd5b8235915060208301356103f58161031c565b809150509250929050565b60208082526024908201527f5661756c744d6f636b466f72466565537765657065723a204e6f7420616e206f6040820152633bb732b960e11b606082015260800190565b5f60208284031215610454575f5ffd5b505191905056fea26469706673582212201fd8ee1badf5a67ae28a32a5970fb95d4ee0b5121bc741e35adac9e7b0e8b1b164736f6c634300081e0033","linkReferences":{}},"methodIdentifiers":{"addOwner(address)":"7065cb48","canPerform(bytes32,address)":"c6a92e16","canPerform(bytes32,address,address)":"9be2a884","collectAggregateFees(address)":"8f4ab9ca","getAuthorizer()":"aaabadc5","getProtocolFeeController()":"85f2dbd4","owners(address)":"022914a7","removeOwner(address)":"173825d9","withdrawProtocolFeesForToken(address,address,address)":"b53a70b2"},"id":323}