{"abi":[{"type":"receive","stateMutability":"payable"},{"type":"function","name":"facetFuncs","inputs":[],"outputs":[{"name":"funcs","type":"bytes4[]","internalType":"bytes4[]"}],"stateMutability":"pure"},{"type":"function","name":"facetInterfaces","inputs":[],"outputs":[{"name":"interfaces","type":"bytes4[]","internalType":"bytes4[]"}],"stateMutability":"pure"},{"type":"function","name":"facetMetadata","inputs":[],"outputs":[{"name":"name_","type":"string","internalType":"string"},{"name":"interfaces","type":"bytes4[]","internalType":"bytes4[]"},{"name":"functions","type":"bytes4[]","internalType":"bytes4[]"}],"stateMutability":"pure"},{"type":"function","name":"facetName","inputs":[],"outputs":[{"name":"name","type":"string","internalType":"string"}],"stateMutability":"pure"},{"type":"function","name":"getSender","inputs":[],"outputs":[{"name":"","type":"address","internalType":"address"}],"stateMutability":"view"},{"type":"function","name":"initialize","inputs":[{"name":"pool","type":"address","internalType":"address"},{"name":"tokens","type":"address[]","internalType":"contract IERC20[]"},{"name":"exactAmountsIn","type":"uint256[]","internalType":"uint256[]"},{"name":"minBptAmountOut","type":"uint256","internalType":"uint256"},{"name":"wethIsEth","type":"bool","internalType":"bool"},{"name":"userData","type":"bytes","internalType":"bytes"}],"outputs":[{"name":"bptAmountOut","type":"uint256","internalType":"uint256"}],"stateMutability":"payable"},{"type":"function","name":"initializeHook","inputs":[{"name":"params","type":"tuple","internalType":"struct InitializeHookParams","components":[{"name":"sender","type":"address","internalType":"address"},{"name":"pool","type":"address","internalType":"address"},{"name":"tokens","type":"address[]","internalType":"contract IERC20[]"},{"name":"exactAmountsIn","type":"uint256[]","internalType":"uint256[]"},{"name":"minBptAmountOut","type":"uint256","internalType":"uint256"},{"name":"wethIsEth","type":"bool","internalType":"bool"},{"name":"userData","type":"bytes","internalType":"bytes"}]}],"outputs":[{"name":"bptAmountOut","type":"uint256","internalType":"uint256"}],"stateMutability":"nonpayable"},{"type":"error","name":"EthTransfer","inputs":[]},{"type":"error","name":"FailedCall","inputs":[]},{"type":"error","name":"InsufficientBalance","inputs":[{"name":"balance","type":"uint256","internalType":"uint256"},{"name":"needed","type":"uint256","internalType":"uint256"}]},{"type":"error","name":"InsufficientEth","inputs":[]},{"type":"error","name":"InsufficientPayment","inputs":[{"name":"token","type":"address","internalType":"contract IERC20"}]},{"type":"error","name":"ReentrancyGuardReentrantCall","inputs":[]},{"type":"error","name":"SenderIsNotVault","inputs":[{"name":"sender","type":"address","internalType":"address"}]},{"type":"error","name":"SwapDeadline","inputs":[]}],"bytecode":{"object":"0x6080604052348015600e575f5ffd5b506112748061001c5f395ff3fe608060405260043610610062575f3560e01c8063026b3d95146100a6578063086fad66146100cc5780632ea80826146100eb578063574a4cff1461010c5780635b6f4d01146101205780635e01eb5a14610141578063f10d7a7514610169575f5ffd5b366100a25761006f61018c565b6001600160a01b0316336001600160a01b0316146100a0576040516302a06efb60e11b815260040160405180910390fd5b005b5f5ffd5b6100b96100b4366004610c2d565b6101aa565b6040519081526020015b60405180910390f35b3480156100d7575f5ffd5b506100b96100e6366004610d43565b6102ed565b3480156100f6575f5ffd5b506100ff610321565b6040516100c39190610dc4565b348015610117575f5ffd5b506100ff610379565b34801561012b575f5ffd5b506101346103ea565b6040516100c39190610e04565b34801561014c575f5ffd5b505f5160206111ff5f395f51905f525c6040516100c39190610e16565b348015610174575f5ffd5b5061017d610419565b6040516100c393929190610e2a565b5f6101a5610198610441565b546001600160a01b031690565b905090565b5f335f6101b682610465565b90505f6101c1610497565b9050806001600160a01b03166348c89491306001600160a01b031663086fad666040518060e00160405280336001600160a01b031681526020018f6001600160a01b031681526020018e81526020018d81526020018c81526020018b151581526020018a8152506040516024016102389190610ed5565b60408051808303601f1901815291815260208201805160e094851b6001600160e01b03909116179052519184901b6001600160e01b0319168252610280925090600401610e04565b5f604051808303815f875af115801561029b573d5f5f3e3d5ffd5b505050506040513d5f823e601f3d908101601f191682016040526102c29190810190610f75565b8060200190518101906102d59190610fe9565b9350506102e1816104b3565b50509695505050505050565b5f6102f66104c5565b61030060016104f9565b61030861050e565b61031182610554565b905061031c5f6104f9565b919050565b60408051600180825281830190925260609160208083019080368337019050509050637a1dbb1f60e01b815f8151811061035d5761035d611000565b6001600160e01b03199092166020928302919091019091015290565b604080516002808252606080830184529260208301908036833701905050905063026b3d9560e01b815f815181106103b3576103b3611000565b6001600160e01b0319909216602092830291909101909101528051630437d6b360e11b908290600190811061035d5761035d611000565b604080518082019091526015815274149bdd5d195c925b9a5d1a585b1a5e99519858d95d605a1b602082015290565b60608060606104266103ea565b9250610430610321565b915061043a610379565b9050909192565b7f0e5e42310baee45bff0964e63930bd3ef41981ccc7a033d2803019558bd2313e90565b5f5f5160206111ff5f395f51905f525c6001600160a01b0381166104915761048c836106d2565b600191505b50919050565b5f6101a56104a3610441565b600201546001600160a01b031690565b80156104c2576104c25f6106d2565b50565b5f51602061121f5f395f51905f52805c9081156104f557604051633ee5aeb560e01b815260040160405180910390fd5b5050565b5f51602061121f5f395f51905f5281815d5050565b610516610497565b6001600160a01b0316336001600160a01b031614610552573360405163089676d560e01b81526004016105499190610e16565b60405180910390fd5b565b5f5f61055e610497565b90506001600160a01b03811663ba8a2be061057f6040860160208701611014565b61058c6020870187611014565b610599604088018861102f565b6105a660608a018a61102f565b60808b01356105b860c08d018d61107b565b6040518a63ffffffff1660e01b81526004016105dc99989796959493929190611115565b6020604051808303815f875af11580156105f8573d5f5f3e3d5ffd5b505050506040513d601f19601f8201168201806040525081019061061c9190610fe9565b91505f5b61062d604085018561102f565b90508110156106bc576106b46106466020860186611014565b610653604087018761102f565b8481811061066357610663611000565b90506020020160208101906106789190611014565b610685606088018861102f565b8581811061069557610695611000565b905060200201358760a00160208101906106af91906111af565b6106e7565b600101610620565b506104916106cd6020850185611014565b610983565b5f5160206111ff5f395f51905f5281815d5050565b5f6106f061018c565b90505f6106fb610497565b90505f6107066109ce565b90508380156107265750826001600160a01b0316866001600160a01b0316145b1561087f578447101561074c5760405163500d4efb60e11b815260040160405180910390fd5b826001600160a01b031663d0e30db0866040518263ffffffff1660e01b81526004015f604051808303818588803b158015610785575f5ffd5b505af1158015610797573d5f5f3e3d5ffd5b505060405163a9059cbb60e01b81526001600160a01b038716935063a9059cbb92506107ca9150859089906004016111ca565b6020604051808303815f875af11580156107e6573d5f5f3e3d5ffd5b505050506040513d601f19601f8201168201806040525081019061080a91906111e3565b506040516315afd40960e01b81526001600160a01b038316906315afd4099061083990899089906004016111ca565b6020604051808303815f875af1158015610855573d5f5f3e3d5ffd5b505050506040513d601f19601f820116820180604052508101906108799190610fe9565b5061097a565b841561097a57806001600160a01b03166336c78516888461089f896109ea565b6040516001600160e01b031960e086901b1681526001600160a01b03938416600482015291831660248301528216604482015290891660648201526084015f604051808303815f87803b1580156108f4575f5ffd5b505af1158015610906573d5f5f3e3d5ffd5b50506040516315afd40960e01b81526001600160a01b03851692506315afd409915061093890899089906004016111ca565b6020604051808303815f875af1158015610954573d5f5f3e3d5ffd5b505050506040513d601f19601f820116820180604052508101906109789190610fe9565b505b50505050505050565b475f819003610990575050565b7f19c2f6f76e6091adc2e8f63fc8cd9da9e3a8e9d5d1c4ae5d8f8e0f6c7b8a9d005c156109bb575050565b6104f56001600160a01b038316826109fa565b5f6101a56109da610441565b600101546001600160a01b031690565b5f6109f482610a99565b92915050565b80471015610a245760405163cf47918160e01b815247600482015260248101829052604401610549565b5f826001600160a01b0316826040515f6040518083038185875af1925050503d805f8114610a6d576040519150601f19603f3d011682016040523d82523d5f602084013e610a72565b606091505b5050905080610a945760405163d6bda27560e01b815260040160405180910390fd5b505050565b5f600160a01b8210610aad57610aad610ab1565b5090565b6335278d125f526004601cfd5b6001600160a01b03811681146104c2575f5ffd5b634e487b7160e01b5f52604160045260245ffd5b604051601f8201601f191681016001600160401b0381118282101715610b0e57610b0e610ad2565b604052919050565b5f6001600160401b03821115610b2e57610b2e610ad2565b5060051b60200190565b5f82601f830112610b47575f5ffd5b8135610b5a610b5582610b16565b610ae6565b8082825260208201915060208360051b860101925085831115610b7b575f5ffd5b602085015b83811015610b98578035835260209283019201610b80565b5095945050505050565b80151581146104c2575f5ffd5b803561031c81610ba2565b5f6001600160401b03821115610bd257610bd2610ad2565b50601f01601f191660200190565b5f82601f830112610bef575f5ffd5b8135610bfd610b5582610bba565b818152846020838601011115610c11575f5ffd5b816020850160208301375f918101602001919091529392505050565b5f5f5f5f5f5f60c08789031215610c42575f5ffd5b8635610c4d81610abe565b955060208701356001600160401b03811115610c67575f5ffd5b8701601f81018913610c77575f5ffd5b8035610c85610b5582610b16565b8082825260208201915060208360051b85010192508b831115610ca6575f5ffd5b6020840193505b82841015610cd1578335610cc081610abe565b825260209384019390910190610cad565b975050505060408701356001600160401b03811115610cee575f5ffd5b610cfa89828a01610b38565b94505060608701359250610d1060808801610baf565b915060a08701356001600160401b03811115610d2a575f5ffd5b610d3689828a01610be0565b9150509295509295509295565b5f60208284031215610d53575f5ffd5b81356001600160401b03811115610d68575f5ffd5b820160e08185031215610d79575f5ffd5b9392505050565b5f8151808452602084019350602083015f5b82811015610dba5781516001600160e01b031916865260209586019590910190600101610d92565b5093949350505050565b602081525f610d796020830184610d80565b5f81518084528060208401602086015e5f602082860101526020601f19601f83011685010191505092915050565b602081525f610d796020830184610dd6565b6001600160a01b0391909116815260200190565b606081525f610e3c6060830186610dd6565b8281036020840152610e4e8186610d80565b90508281036040840152610e628185610d80565b9695505050505050565b5f8151808452602084019350602083015f5b82811015610dba5781516001600160a01b0316865260209586019590910190600101610e7e565b5f8151808452602084019350602083015f5b82811015610dba578151865260209586019590910190600101610eb7565b602080825282516001600160a01b0390811683830152908301511660408083019190915282015160e060608301525f90610f13610100840182610e6c565b90506060840151601f19848303016080850152610f308282610ea5565b915050608084015160a084015260a0840151610f5060c085018215159052565b5060c0840151838203601f190160e0850152610f6c8282610dd6565b95945050505050565b5f60208284031215610f85575f5ffd5b81516001600160401b03811115610f9a575f5ffd5b8201601f81018413610faa575f5ffd5b8051610fb8610b5582610bba565b818152856020838501011115610fcc575f5ffd5b8160208401602083015e5f91810160200191909152949350505050565b5f60208284031215610ff9575f5ffd5b5051919050565b634e487b7160e01b5f52603260045260245ffd5b5f60208284031215611024575f5ffd5b8135610d7981610abe565b5f5f8335601e19843603018112611044575f5ffd5b8301803591506001600160401b0382111561105d575f5ffd5b6020019150600581901b3603821315611074575f5ffd5b9250929050565b5f5f8335601e19843603018112611090575f5ffd5b8301803591506001600160401b038211156110a9575f5ffd5b602001915036819003821315611074575f5ffd5b8183525f6001600160fb1b038311156110d4575f5ffd5b8260051b80836020870137939093016020019392505050565b81835281816020850137505f828201602090810191909152601f909101601f19169091010190565b6001600160a01b038a811682528916602082015260c06040820181905281018790525f8860e08301825b8a81101561116f57823561115281610abe565b6001600160a01b031682526020928301929091019060010161113f565b50838103606085015261118381898b6110bd565b91505085608084015282810360a084015261119f8185876110ed565b9c9b505050505050505050505050565b5f602082840312156111bf575f5ffd5b8135610d7981610ba2565b6001600160a01b03929092168252602082015260400190565b5f602082840312156111f3575f5ffd5b8151610d7981610ba256fe6c17b98ed641627be1f588a5e81d97edc6ddd1b560dfba5b46c2aa2c8ddd0d0085e416c3b4a964332bebb95fdf9a73cb8ded00cbd75143ad03246e01399c4247a264697066735822122096fe4d0f7d7270f3b0a1f5cec3c1625220803910794e526ba62ca11b4e3810da64736f6c634300081e0033","linkReferences":{}},"methodIdentifiers":{"facetFuncs()":"574a4cff","facetInterfaces()":"2ea80826","facetMetadata()":"f10d7a75","facetName()":"5b6f4d01","getSender()":"5e01eb5a","initialize(address,address[],uint256[],uint256,bool,bytes)":"026b3d95","initializeHook((address,address,address[],uint256[],uint256,bool,bytes))":"086fad66"},"id":933}