{"abi":[{"type":"function","name":"ADD_LIQUIDITY_CUSTOM_OFFSET","inputs":[],"outputs":[{"name":"","type":"uint8","internalType":"uint8"}],"stateMutability":"view"},{"type":"function","name":"AFTER_ADD_LIQUIDITY_OFFSET","inputs":[],"outputs":[{"name":"","type":"uint8","internalType":"uint8"}],"stateMutability":"view"},{"type":"function","name":"AFTER_INITIALIZE_OFFSET","inputs":[],"outputs":[{"name":"","type":"uint8","internalType":"uint8"}],"stateMutability":"view"},{"type":"function","name":"AFTER_REMOVE_LIQUIDITY_OFFSET","inputs":[],"outputs":[{"name":"","type":"uint8","internalType":"uint8"}],"stateMutability":"view"},{"type":"function","name":"AFTER_SWAP_OFFSET","inputs":[],"outputs":[{"name":"","type":"uint8","internalType":"uint8"}],"stateMutability":"view"},{"type":"function","name":"AGGREGATE_SWAP_FEE_OFFSET","inputs":[],"outputs":[{"name":"","type":"uint256","internalType":"uint256"}],"stateMutability":"view"},{"type":"function","name":"AGGREGATE_YIELD_FEE_OFFSET","inputs":[],"outputs":[{"name":"","type":"uint256","internalType":"uint256"}],"stateMutability":"view"},{"type":"function","name":"BEFORE_ADD_LIQUIDITY_OFFSET","inputs":[],"outputs":[{"name":"","type":"uint8","internalType":"uint8"}],"stateMutability":"view"},{"type":"function","name":"BEFORE_INITIALIZE_OFFSET","inputs":[],"outputs":[{"name":"","type":"uint8","internalType":"uint8"}],"stateMutability":"view"},{"type":"function","name":"BEFORE_REMOVE_LIQUIDITY_OFFSET","inputs":[],"outputs":[{"name":"","type":"uint8","internalType":"uint8"}],"stateMutability":"view"},{"type":"function","name":"BEFORE_SWAP_OFFSET","inputs":[],"outputs":[{"name":"","type":"uint8","internalType":"uint8"}],"stateMutability":"view"},{"type":"function","name":"DECIMAL_DIFF_BITLENGTH","inputs":[],"outputs":[{"name":"","type":"uint8","internalType":"uint8"}],"stateMutability":"view"},{"type":"function","name":"DECIMAL_SCALING_FACTORS_OFFSET","inputs":[],"outputs":[{"name":"","type":"uint256","internalType":"uint256"}],"stateMutability":"view"},{"type":"function","name":"DONATION_OFFSET","inputs":[],"outputs":[{"name":"","type":"uint8","internalType":"uint8"}],"stateMutability":"view"},{"type":"function","name":"DYNAMIC_SWAP_FEE_OFFSET","inputs":[],"outputs":[{"name":"","type":"uint8","internalType":"uint8"}],"stateMutability":"view"},{"type":"function","name":"ENABLE_HOOK_ADJUSTED_AMOUNTS_OFFSET","inputs":[],"outputs":[{"name":"","type":"uint8","internalType":"uint8"}],"stateMutability":"view"},{"type":"function","name":"PAUSE_WINDOW_END_TIME_OFFSET","inputs":[],"outputs":[{"name":"","type":"uint256","internalType":"uint256"}],"stateMutability":"view"},{"type":"function","name":"POOL_INITIALIZED_OFFSET","inputs":[],"outputs":[{"name":"","type":"uint8","internalType":"uint8"}],"stateMutability":"view"},{"type":"function","name":"POOL_PAUSED_OFFSET","inputs":[],"outputs":[{"name":"","type":"uint8","internalType":"uint8"}],"stateMutability":"view"},{"type":"function","name":"POOL_RECOVERY_MODE_OFFSET","inputs":[],"outputs":[{"name":"","type":"uint8","internalType":"uint8"}],"stateMutability":"view"},{"type":"function","name":"POOL_REGISTERED_OFFSET","inputs":[],"outputs":[{"name":"","type":"uint8","internalType":"uint8"}],"stateMutability":"view"},{"type":"function","name":"REMOVE_LIQUIDITY_CUSTOM_OFFSET","inputs":[],"outputs":[{"name":"","type":"uint8","internalType":"uint8"}],"stateMutability":"view"},{"type":"function","name":"STATIC_SWAP_FEE_OFFSET","inputs":[],"outputs":[{"name":"","type":"uint8","internalType":"uint8"}],"stateMutability":"view"},{"type":"function","name":"TIMESTAMP_BITLENGTH","inputs":[],"outputs":[{"name":"","type":"uint8","internalType":"uint8"}],"stateMutability":"view"},{"type":"function","name":"TOKEN_DECIMAL_DIFFS_BITLENGTH","inputs":[],"outputs":[{"name":"","type":"uint8","internalType":"uint8"}],"stateMutability":"view"},{"type":"function","name":"UNBALANCED_LIQUIDITY_OFFSET","inputs":[],"outputs":[{"name":"","type":"uint8","internalType":"uint8"}],"stateMutability":"view"}],"bytecode":{"object":"0x6107b8610034600b8282823980515f1a607314602857634e487b7160e01b5f525f60045260245ffd5b305f52607381538281f3fe7300000000000000000000000000000000000000003014608060405260043610610147575f3560e01c80631294794b1461014b578063185186281461016657806328b161ce146101805780632d6724e1146101885780633dc52c43146101905780633f60345a14610198578063547acb16146101a05780636801b442146101a857806368aa2524146101af5780637e3edbf1146101b75780637ea0cde9146101bf57806380b1c55b146101c757806384efbfd5146101cf578063a22425b6146101d7578063aa6cda91146101df578063af815f04146101e7578063b2cb247c146101ef578063bc848769146101f7578063bdefaf71146101ff578063d982721714610207578063d9cebbd91461020f578063dde7b13f14610217578063df9d385b1461021f578063e2ce6c6c14610227578063fab868701461022f578063fd5da01014610237575b5f5ffd5b61015361023f565b6040519081526020015b60405180910390f35b61016e610317565b60405160ff909116815260200161015d565b61016e600581565b61016e610322565b610153610343565b61016e61042e565b61016e610486565b61016e5f81565b610153610491565b61016e610574565b61016e602881565b61016e61057f565b61016e6105d7565b61016e6105e2565b61016e6105ed565b61016e6105f8565b61016e610603565b61016e61060e565b61016e610619565b61016e610624565b61015361062f565b61016e610705565b61016e602081565b61016e610710565b61016e61071b565b61016e610726565b601861024c5f6001610750565b610257906001610750565b610262906001610750565b61026d906001610750565b610278906001610750565b610283906001610750565b61028e906001610750565b610299906001610750565b6102a4906001610750565b6102af906001610750565b6102ba906001610750565b6102c5906001610750565b6102d0906001610750565b6102db906001610750565b6102e6906001610750565b6102f1906001610750565b6102fc906001610750565b610307906001610750565b60ff16610314919061076f565b81565b6103145f6001610750565b61032d5f6001610750565b610338906001610750565b610314906001610750565b601880806103525f6001610750565b61035d906001610750565b610368906001610750565b610373906001610750565b61037e906001610750565b610389906001610750565b610394906001610750565b61039f906001610750565b6103aa906001610750565b6103b5906001610750565b6103c0906001610750565b6103cb906001610750565b6103d6906001610750565b6103e1906001610750565b6103ec906001610750565b6103f7906001610750565b610402906001610750565b61040d906001610750565b60ff1661041a919061076f565b610424919061076f565b610314919061076f565b6104395f6001610750565b610444906001610750565b61044f906001610750565b61045a906001610750565b610465906001610750565b610470906001610750565b61047b906001610750565b61032d906001610750565b61044f5f6001610750565b6028601880806104a25f6001610750565b6104ad906001610750565b6104b8906001610750565b6104c3906001610750565b6104ce906001610750565b6104d9906001610750565b6104e4906001610750565b6104ef906001610750565b6104fa906001610750565b610505906001610750565b610510906001610750565b61051b906001610750565b610526906001610750565b610531906001610750565b61053c906001610750565b610547906001610750565b610552906001610750565b61055d906001610750565b60ff1661056a919061076f565b61041a919061076f565b6104655f6001610750565b61058a5f6001610750565b610595906001610750565b6105a0906001610750565b6105ab906001610750565b6105b6906001610750565b6105c1906001610750565b6105cc906001610750565b610439906001610750565b6105cc5f6001610750565b6105c15f6001610750565b6105a05f6001610750565b6103385f6001610750565b6104705f6001610750565b6105955f6001610750565b6105b65f6001610750565b61047b5f6001610750565b60188061063d5f6001610750565b610648906001610750565b610653906001610750565b61065e906001610750565b610669906001610750565b610674906001610750565b61067f906001610750565b61068a906001610750565b610695906001610750565b6106a0906001610750565b6106ab906001610750565b6106b6906001610750565b6106c1906001610750565b6106cc906001610750565b6106d7906001610750565b6106e2906001610750565b6106ed906001610750565b6106f8906001610750565b60ff16610424919061076f565b6105ab5f6001610750565b61045a5f6001610750565b6104445f6001610750565b6107315f6001610750565b61058a906001610750565b634e487b7160e01b5f52601160045260245ffd5b60ff81811683821601908111156107695761076961073c565b92915050565b808201808211156107695761076961073c56fea26469706673582212203f0edc5af17232394741ab971b7684b6c2731c992520844ddcc2311d02cf5a5964736f6c634300081e0033","linkReferences":{}},"methodIdentifiers":{"ADD_LIQUIDITY_CUSTOM_OFFSET()":"b2cb247c","AFTER_ADD_LIQUIDITY_OFFSET()":"aa6cda91","AFTER_INITIALIZE_OFFSET()":"3f60345a","AFTER_REMOVE_LIQUIDITY_OFFSET()":"80b1c55b","AFTER_SWAP_OFFSET()":"bdefaf71","AGGREGATE_SWAP_FEE_OFFSET()":"1294794b","AGGREGATE_YIELD_FEE_OFFSET()":"d9cebbd9","BEFORE_ADD_LIQUIDITY_OFFSET()":"dde7b13f","BEFORE_INITIALIZE_OFFSET()":"547acb16","BEFORE_REMOVE_LIQUIDITY_OFFSET()":"bc848769","BEFORE_SWAP_OFFSET()":"a22425b6","DECIMAL_DIFF_BITLENGTH()":"28b161ce","DECIMAL_SCALING_FACTORS_OFFSET()":"3dc52c43","DONATION_OFFSET()":"e2ce6c6c","DYNAMIC_SWAP_FEE_OFFSET()":"84efbfd5","ENABLE_HOOK_ADJUSTED_AMOUNTS_OFFSET()":"fab86870","PAUSE_WINDOW_END_TIME_OFFSET()":"68aa2524","POOL_INITIALIZED_OFFSET()":"18518628","POOL_PAUSED_OFFSET()":"af815f04","POOL_RECOVERY_MODE_OFFSET()":"2d6724e1","POOL_REGISTERED_OFFSET()":"6801b442","REMOVE_LIQUIDITY_CUSTOM_OFFSET()":"7e3edbf1","STATIC_SWAP_FEE_OFFSET()":"fd5da010","TIMESTAMP_BITLENGTH()":"df9d385b","TOKEN_DECIMAL_DIFFS_BITLENGTH()":"7ea0cde9","UNBALANCED_LIQUIDITY_OFFSET()":"d9827217"},"id":358}