{"abi":[{"type":"constructor","inputs":[{"name":"vault","type":"address","internalType":"contract IVault"}],"stateMutability":"nonpayable"},{"type":"function","name":"addLiquidityHookDiscountPercentage","inputs":[],"outputs":[{"name":"","type":"uint256","internalType":"uint256"}],"stateMutability":"view"},{"type":"function","name":"addLiquidityHookFeePercentage","inputs":[],"outputs":[{"name":"","type":"uint256","internalType":"uint256"}],"stateMutability":"view"},{"type":"function","name":"allowFactory","inputs":[{"name":"factory","type":"address","internalType":"address"}],"outputs":[],"stateMutability":"nonpayable"},{"type":"function","name":"changePoolBalancesOnBeforeAddLiquidityHook","inputs":[],"outputs":[{"name":"","type":"bool","internalType":"bool"}],"stateMutability":"view"},{"type":"function","name":"changePoolBalancesOnBeforeRemoveLiquidityHook","inputs":[],"outputs":[{"name":"","type":"bool","internalType":"bool"}],"stateMutability":"view"},{"type":"function","name":"changePoolBalancesOnBeforeSwapHook","inputs":[],"outputs":[{"name":"","type":"bool","internalType":"bool"}],"stateMutability":"view"},{"type":"function","name":"changeTokenRateOnBeforeAddLiquidity","inputs":[],"outputs":[{"name":"","type":"bool","internalType":"bool"}],"stateMutability":"view"},{"type":"function","name":"changeTokenRateOnBeforeInitialize","inputs":[],"outputs":[{"name":"","type":"bool","internalType":"bool"}],"stateMutability":"view"},{"type":"function","name":"changeTokenRateOnBeforeRemoveLiquidity","inputs":[],"outputs":[{"name":"","type":"bool","internalType":"bool"}],"stateMutability":"view"},{"type":"function","name":"changeTokenRateOnBeforeSwapHook","inputs":[],"outputs":[{"name":"","type":"bool","internalType":"bool"}],"stateMutability":"view"},{"type":"function","name":"denyFactory","inputs":[{"name":"factory","type":"address","internalType":"address"}],"outputs":[],"stateMutability":"nonpayable"},{"type":"function","name":"disableForcedHookAdjustedAmounts","inputs":[],"outputs":[],"stateMutability":"nonpayable"},{"type":"function","name":"enableForcedHookAdjustedAmountsLiquidity","inputs":[{"name":"hookAdjustedAmountsLiquidity","type":"uint256[]","internalType":"uint256[]"}],"outputs":[],"stateMutability":"nonpayable"},{"type":"function","name":"failOnAfterAddLiquidity","inputs":[],"outputs":[{"name":"","type":"bool","internalType":"bool"}],"stateMutability":"view"},{"type":"function","name":"failOnAfterInitialize","inputs":[],"outputs":[{"name":"","type":"bool","internalType":"bool"}],"stateMutability":"view"},{"type":"function","name":"failOnAfterRemoveLiquidity","inputs":[],"outputs":[{"name":"","type":"bool","internalType":"bool"}],"stateMutability":"view"},{"type":"function","name":"failOnAfterSwapHook","inputs":[],"outputs":[{"name":"","type":"bool","internalType":"bool"}],"stateMutability":"view"},{"type":"function","name":"failOnBeforeAddLiquidity","inputs":[],"outputs":[{"name":"","type":"bool","internalType":"bool"}],"stateMutability":"view"},{"type":"function","name":"failOnBeforeInitialize","inputs":[],"outputs":[{"name":"","type":"bool","internalType":"bool"}],"stateMutability":"view"},{"type":"function","name":"failOnBeforeRemoveLiquidity","inputs":[],"outputs":[{"name":"","type":"bool","internalType":"bool"}],"stateMutability":"view"},{"type":"function","name":"failOnBeforeSwapHook","inputs":[],"outputs":[{"name":"","type":"bool","internalType":"bool"}],"stateMutability":"view"},{"type":"function","name":"failOnComputeDynamicSwapFeeHook","inputs":[],"outputs":[{"name":"","type":"bool","internalType":"bool"}],"stateMutability":"view"},{"type":"function","name":"forcedHookAdjustedAmountsLiquidity","inputs":[{"name":"","type":"uint256","internalType":"uint256"}],"outputs":[{"name":"","type":"uint256","internalType":"uint256"}],"stateMutability":"view"},{"type":"function","name":"getHookFlags","inputs":[],"outputs":[{"name":"","type":"tuple","internalType":"struct HookFlags","components":[{"name":"enableHookAdjustedAmounts","type":"bool","internalType":"bool"},{"name":"shouldCallBeforeInitialize","type":"bool","internalType":"bool"},{"name":"shouldCallAfterInitialize","type":"bool","internalType":"bool"},{"name":"shouldCallComputeDynamicSwapFee","type":"bool","internalType":"bool"},{"name":"shouldCallBeforeSwap","type":"bool","internalType":"bool"},{"name":"shouldCallAfterSwap","type":"bool","internalType":"bool"},{"name":"shouldCallBeforeAddLiquidity","type":"bool","internalType":"bool"},{"name":"shouldCallAfterAddLiquidity","type":"bool","internalType":"bool"},{"name":"shouldCallBeforeRemoveLiquidity","type":"bool","internalType":"bool"},{"name":"shouldCallAfterRemoveLiquidity","type":"bool","internalType":"bool"}]}],"stateMutability":"view"},{"type":"function","name":"getSavedSender","inputs":[],"outputs":[{"name":"","type":"address","internalType":"address"}],"stateMutability":"view"},{"type":"function","name":"hookSwapDiscountPercentage","inputs":[],"outputs":[{"name":"","type":"uint256","internalType":"uint256"}],"stateMutability":"view"},{"type":"function","name":"hookSwapFeePercentage","inputs":[],"outputs":[{"name":"","type":"uint256","internalType":"uint256"}],"stateMutability":"view"},{"type":"function","name":"onAfterAddLiquidity","inputs":[{"name":"","type":"address","internalType":"address"},{"name":"pool","type":"address","internalType":"address"},{"name":"","type":"uint8","internalType":"enum AddLiquidityKind"},{"name":"","type":"uint256[]","internalType":"uint256[]"},{"name":"amountsInRaw","type":"uint256[]","internalType":"uint256[]"},{"name":"","type":"uint256","internalType":"uint256"},{"name":"","type":"uint256[]","internalType":"uint256[]"},{"name":"","type":"bytes","internalType":"bytes"}],"outputs":[{"name":"","type":"bool","internalType":"bool"},{"name":"hookAdjustedAmountsInRaw","type":"uint256[]","internalType":"uint256[]"}],"stateMutability":"nonpayable"},{"type":"function","name":"onAfterInitialize","inputs":[{"name":"","type":"uint256[]","internalType":"uint256[]"},{"name":"","type":"uint256","internalType":"uint256"},{"name":"","type":"bytes","internalType":"bytes"}],"outputs":[{"name":"","type":"bool","internalType":"bool"}],"stateMutability":"view"},{"type":"function","name":"onAfterRemoveLiquidity","inputs":[{"name":"","type":"address","internalType":"address"},{"name":"pool","type":"address","internalType":"address"},{"name":"","type":"uint8","internalType":"enum RemoveLiquidityKind"},{"name":"","type":"uint256","internalType":"uint256"},{"name":"","type":"uint256[]","internalType":"uint256[]"},{"name":"amountsOutRaw","type":"uint256[]","internalType":"uint256[]"},{"name":"","type":"uint256[]","internalType":"uint256[]"},{"name":"","type":"bytes","internalType":"bytes"}],"outputs":[{"name":"","type":"bool","internalType":"bool"},{"name":"hookAdjustedAmountsOutRaw","type":"uint256[]","internalType":"uint256[]"}],"stateMutability":"nonpayable"},{"type":"function","name":"onAfterSwap","inputs":[{"name":"params","type":"tuple","internalType":"struct AfterSwapParams","components":[{"name":"kind","type":"uint8","internalType":"enum SwapKind"},{"name":"tokenIn","type":"address","internalType":"contract IERC20"},{"name":"tokenOut","type":"address","internalType":"contract IERC20"},{"name":"amountInScaled18","type":"uint256","internalType":"uint256"},{"name":"amountOutScaled18","type":"uint256","internalType":"uint256"},{"name":"tokenInBalanceScaled18","type":"uint256","internalType":"uint256"},{"name":"tokenOutBalanceScaled18","type":"uint256","internalType":"uint256"},{"name":"amountCalculatedScaled18","type":"uint256","internalType":"uint256"},{"name":"amountCalculatedRaw","type":"uint256","internalType":"uint256"},{"name":"router","type":"address","internalType":"address"},{"name":"pool","type":"address","internalType":"address"},{"name":"userData","type":"bytes","internalType":"bytes"}]}],"outputs":[{"name":"","type":"bool","internalType":"bool"},{"name":"","type":"uint256","internalType":"uint256"}],"stateMutability":"nonpayable"},{"type":"function","name":"onBeforeAddLiquidity","inputs":[{"name":"router","type":"address","internalType":"address"},{"name":"","type":"address","internalType":"address"},{"name":"","type":"uint8","internalType":"enum AddLiquidityKind"},{"name":"","type":"uint256[]","internalType":"uint256[]"},{"name":"","type":"uint256","internalType":"uint256"},{"name":"","type":"uint256[]","internalType":"uint256[]"},{"name":"","type":"bytes","internalType":"bytes"}],"outputs":[{"name":"","type":"bool","internalType":"bool"}],"stateMutability":"nonpayable"},{"type":"function","name":"onBeforeInitialize","inputs":[{"name":"","type":"uint256[]","internalType":"uint256[]"},{"name":"","type":"bytes","internalType":"bytes"}],"outputs":[{"name":"","type":"bool","internalType":"bool"}],"stateMutability":"nonpayable"},{"type":"function","name":"onBeforeRemoveLiquidity","inputs":[{"name":"router","type":"address","internalType":"address"},{"name":"","type":"address","internalType":"address"},{"name":"","type":"uint8","internalType":"enum RemoveLiquidityKind"},{"name":"","type":"uint256","internalType":"uint256"},{"name":"","type":"uint256[]","internalType":"uint256[]"},{"name":"","type":"uint256[]","internalType":"uint256[]"},{"name":"","type":"bytes","internalType":"bytes"}],"outputs":[{"name":"","type":"bool","internalType":"bool"}],"stateMutability":"nonpayable"},{"type":"function","name":"onBeforeSwap","inputs":[{"name":"params","type":"tuple","internalType":"struct PoolSwapParams","components":[{"name":"kind","type":"uint8","internalType":"enum SwapKind"},{"name":"amountGivenScaled18","type":"uint256","internalType":"uint256"},{"name":"balancesScaled18","type":"uint256[]","internalType":"uint256[]"},{"name":"indexIn","type":"uint256","internalType":"uint256"},{"name":"indexOut","type":"uint256","internalType":"uint256"},{"name":"router","type":"address","internalType":"address"},{"name":"userData","type":"bytes","internalType":"bytes"}]},{"name":"","type":"address","internalType":"address"}],"outputs":[{"name":"","type":"bool","internalType":"bool"}],"stateMutability":"nonpayable"},{"type":"function","name":"onComputeDynamicSwapFeePercentage","inputs":[{"name":"params","type":"tuple","internalType":"struct PoolSwapParams","components":[{"name":"kind","type":"uint8","internalType":"enum SwapKind"},{"name":"amountGivenScaled18","type":"uint256","internalType":"uint256"},{"name":"balancesScaled18","type":"uint256[]","internalType":"uint256[]"},{"name":"indexIn","type":"uint256","internalType":"uint256"},{"name":"indexOut","type":"uint256","internalType":"uint256"},{"name":"router","type":"address","internalType":"address"},{"name":"userData","type":"bytes","internalType":"bytes"}]},{"name":"","type":"address","internalType":"address"},{"name":"","type":"uint256","internalType":"uint256"}],"outputs":[{"name":"","type":"bool","internalType":"bool"},{"name":"","type":"uint256","internalType":"uint256"}],"stateMutability":"view"},{"type":"function","name":"onRegister","inputs":[{"name":"factory","type":"address","internalType":"address"},{"name":"","type":"address","internalType":"address"},{"name":"","type":"tuple[]","internalType":"struct TokenConfig[]","components":[{"name":"token","type":"address","internalType":"contract IERC20"},{"name":"tokenType","type":"uint8","internalType":"enum TokenType"},{"name":"rateProvider","type":"address","internalType":"contract IRateProvider"},{"name":"paysYieldFees","type":"bool","internalType":"bool"}]},{"name":"","type":"tuple","internalType":"struct LiquidityManagement","components":[{"name":"disableUnbalancedLiquidity","type":"bool","internalType":"bool"},{"name":"enableAddLiquidityCustom","type":"bool","internalType":"bool"},{"name":"enableRemoveLiquidityCustom","type":"bool","internalType":"bool"},{"name":"enableDonation","type":"bool","internalType":"bool"}]}],"outputs":[{"name":"","type":"bool","internalType":"bool"}],"stateMutability":"view"},{"type":"function","name":"removeLiquidityHookDiscountPercentage","inputs":[],"outputs":[{"name":"","type":"uint256","internalType":"uint256"}],"stateMutability":"view"},{"type":"function","name":"removeLiquidityHookFeePercentage","inputs":[],"outputs":[{"name":"","type":"uint256","internalType":"uint256"}],"stateMutability":"view"},{"type":"function","name":"setAddLiquidityHookDiscountPercentage","inputs":[{"name":"hookDiscountPercentage","type":"uint256","internalType":"uint256"}],"outputs":[],"stateMutability":"nonpayable"},{"type":"function","name":"setAddLiquidityHookFeePercentage","inputs":[{"name":"hookFeePercentage_","type":"uint256","internalType":"uint256"}],"outputs":[],"stateMutability":"nonpayable"},{"type":"function","name":"setChangePoolBalancesOnBeforeAddLiquidityHook","inputs":[{"name":"changeBalances","type":"bool","internalType":"bool"},{"name":"newBalancesRaw","type":"uint256[]","internalType":"uint256[]"}],"outputs":[],"stateMutability":"nonpayable"},{"type":"function","name":"setChangePoolBalancesOnBeforeRemoveLiquidityHook","inputs":[{"name":"changeBalances","type":"bool","internalType":"bool"},{"name":"newBalancesRaw","type":"uint256[]","internalType":"uint256[]"}],"outputs":[],"stateMutability":"nonpayable"},{"type":"function","name":"setChangePoolBalancesOnBeforeSwapHook","inputs":[{"name":"changeBalances","type":"bool","internalType":"bool"},{"name":"newBalancesRaw","type":"uint256[]","internalType":"uint256[]"}],"outputs":[],"stateMutability":"nonpayable"},{"type":"function","name":"setChangeTokenRateOnBeforeAddLiquidityHook","inputs":[{"name":"changeRate","type":"bool","internalType":"bool"},{"name":"rateProvider","type":"address","internalType":"contract RateProviderMock"},{"name":"newTokenRate","type":"uint256","internalType":"uint256"}],"outputs":[],"stateMutability":"nonpayable"},{"type":"function","name":"setChangeTokenRateOnBeforeInitializeHook","inputs":[{"name":"changeRate","type":"bool","internalType":"bool"},{"name":"rateProvider","type":"address","internalType":"contract RateProviderMock"},{"name":"newTokenRate","type":"uint256","internalType":"uint256"}],"outputs":[],"stateMutability":"nonpayable"},{"type":"function","name":"setChangeTokenRateOnBeforeRemoveLiquidityHook","inputs":[{"name":"changeRate","type":"bool","internalType":"bool"},{"name":"rateProvider","type":"address","internalType":"contract RateProviderMock"},{"name":"newTokenRate","type":"uint256","internalType":"uint256"}],"outputs":[],"stateMutability":"nonpayable"},{"type":"function","name":"setChangeTokenRateOnBeforeSwapHook","inputs":[{"name":"changeRate","type":"bool","internalType":"bool"},{"name":"rateProvider","type":"address","internalType":"contract RateProviderMock"},{"name":"newTokenRate","type":"uint256","internalType":"uint256"}],"outputs":[],"stateMutability":"nonpayable"},{"type":"function","name":"setDynamicSwapFeePercentage","inputs":[{"name":"dynamicSwapFee","type":"uint256","internalType":"uint256"}],"outputs":[],"stateMutability":"nonpayable"},{"type":"function","name":"setFailOnAfterAddLiquidityHook","inputs":[{"name":"fail","type":"bool","internalType":"bool"}],"outputs":[],"stateMutability":"nonpayable"},{"type":"function","name":"setFailOnAfterInitializeHook","inputs":[{"name":"fail","type":"bool","internalType":"bool"}],"outputs":[],"stateMutability":"nonpayable"},{"type":"function","name":"setFailOnAfterRemoveLiquidityHook","inputs":[{"name":"fail","type":"bool","internalType":"bool"}],"outputs":[],"stateMutability":"nonpayable"},{"type":"function","name":"setFailOnAfterSwapHook","inputs":[{"name":"fail","type":"bool","internalType":"bool"}],"outputs":[],"stateMutability":"nonpayable"},{"type":"function","name":"setFailOnBeforeAddLiquidityHook","inputs":[{"name":"fail","type":"bool","internalType":"bool"}],"outputs":[],"stateMutability":"nonpayable"},{"type":"function","name":"setFailOnBeforeInitializeHook","inputs":[{"name":"fail","type":"bool","internalType":"bool"}],"outputs":[],"stateMutability":"nonpayable"},{"type":"function","name":"setFailOnBeforeRemoveLiquidityHook","inputs":[{"name":"fail","type":"bool","internalType":"bool"}],"outputs":[],"stateMutability":"nonpayable"},{"type":"function","name":"setFailOnBeforeSwapHook","inputs":[{"name":"fail","type":"bool","internalType":"bool"}],"outputs":[],"stateMutability":"nonpayable"},{"type":"function","name":"setFailOnComputeDynamicSwapFeeHook","inputs":[{"name":"fail","type":"bool","internalType":"bool"}],"outputs":[],"stateMutability":"nonpayable"},{"type":"function","name":"setHookFlags","inputs":[{"name":"hookFlags","type":"tuple","internalType":"struct HookFlags","components":[{"name":"enableHookAdjustedAmounts","type":"bool","internalType":"bool"},{"name":"shouldCallBeforeInitialize","type":"bool","internalType":"bool"},{"name":"shouldCallAfterInitialize","type":"bool","internalType":"bool"},{"name":"shouldCallComputeDynamicSwapFee","type":"bool","internalType":"bool"},{"name":"shouldCallBeforeSwap","type":"bool","internalType":"bool"},{"name":"shouldCallAfterSwap","type":"bool","internalType":"bool"},{"name":"shouldCallBeforeAddLiquidity","type":"bool","internalType":"bool"},{"name":"shouldCallAfterAddLiquidity","type":"bool","internalType":"bool"},{"name":"shouldCallBeforeRemoveLiquidity","type":"bool","internalType":"bool"},{"name":"shouldCallAfterRemoveLiquidity","type":"bool","internalType":"bool"}]}],"outputs":[],"stateMutability":"nonpayable"},{"type":"function","name":"setHookSwapDiscountPercentage","inputs":[{"name":"discountPercentage","type":"uint256","internalType":"uint256"}],"outputs":[],"stateMutability":"nonpayable"},{"type":"function","name":"setHookSwapFeePercentage","inputs":[{"name":"feePercentage","type":"uint256","internalType":"uint256"}],"outputs":[],"stateMutability":"nonpayable"},{"type":"function","name":"setPool","inputs":[{"name":"pool","type":"address","internalType":"address"}],"outputs":[],"stateMutability":"nonpayable"},{"type":"function","name":"setRemoveLiquidityHookDiscountPercentage","inputs":[{"name":"hookDiscountPercentage","type":"uint256","internalType":"uint256"}],"outputs":[],"stateMutability":"nonpayable"},{"type":"function","name":"setRemoveLiquidityHookFeePercentage","inputs":[{"name":"hookFeePercentage_","type":"uint256","internalType":"uint256"}],"outputs":[],"stateMutability":"nonpayable"},{"type":"function","name":"setShouldIgnoreSavedSender","inputs":[{"name":"value","type":"bool","internalType":"bool"}],"outputs":[],"stateMutability":"nonpayable"},{"type":"function","name":"setShouldSettleDiscount","inputs":[{"name":"shouldSettleDiscountFlag","type":"bool","internalType":"bool"}],"outputs":[],"stateMutability":"nonpayable"},{"type":"function","name":"setSpecialSender","inputs":[{"name":"sender","type":"address","internalType":"address"}],"outputs":[],"stateMutability":"nonpayable"},{"type":"function","name":"setSwapReentrancyHook","inputs":[{"name":"hookContract","type":"address","internalType":"address"},{"name":"data","type":"bytes","internalType":"bytes"}],"outputs":[],"stateMutability":"nonpayable"},{"type":"function","name":"setSwapReentrancyHookActive","inputs":[{"name":"swapReentrancyHookActive_","type":"bool","internalType":"bool"}],"outputs":[],"stateMutability":"nonpayable"},{"type":"function","name":"shouldForceHookAdjustedAmounts","inputs":[],"outputs":[{"name":"","type":"bool","internalType":"bool"}],"stateMutability":"view"},{"type":"function","name":"shouldIgnoreSavedSender","inputs":[],"outputs":[{"name":"","type":"bool","internalType":"bool"}],"stateMutability":"view"},{"type":"function","name":"shouldSettleDiscount","inputs":[],"outputs":[{"name":"","type":"bool","internalType":"bool"}],"stateMutability":"view"},{"type":"function","name":"swapReentrancyHookActive","inputs":[],"outputs":[{"name":"","type":"bool","internalType":"bool"}],"stateMutability":"view"},{"type":"error","name":"AddressEmptyCode","inputs":[{"name":"target","type":"address","internalType":"address"}]},{"type":"error","name":"FailedCall","inputs":[]},{"type":"error","name":"InsufficientBalance","inputs":[{"name":"balance","type":"uint256","internalType":"uint256"},{"name":"needed","type":"uint256","internalType":"uint256"}]}],"bytecode":{"object":"0x60a060405234801561000f575f5ffd5b506040516139c63803806139c683398101604081905261002e91610056565b6001600160a01b03166080526002805460ff60381b1916670100000000000000179055610083565b5f60208284031215610066575f5ffd5b81516001600160a01b038116811461007c575f5ffd5b9392505050565b6080516138ad6101195f395f8181610d5101528181610dee01528181610e9a015281816111b20152818161124f01528181611361015281816113e9015281816114c20152818161154a015281816116c2015281816117bb015281816118d60152818161198201528181611ea601528181611f89015281816120a20152818161214e0152818161246701526124fb01526138ad5ff3fe608060405234801561000f575f5ffd5b506004361061033f575f3560e01c80625b449c14610343578062d332fd1461036c5780630227346714610380578063039388ba146103975780630b89f182146103c45780630c54b1de146103f25780631064dfdd1461040557806318b6eb55146104355780631c149e281461045f578063214ff4c514610472578063232b59f7146104855780632352c2ed146104965780632754888d1461049f5780632e55a841146104c057806331378f4f146104d3578063335d4126146104e05780633478db731461052f57806334a168ec1461055b57806334e3a8c31461056e57806335f7290e1461058157806338be241d146105945780633d05719a146105a757806340dc21d4146105b9578063423ef816146105cc5780634392312a146105df5780634437152a146105e857806345421ec7146106185780634f0367561461062b5780635211fa77146106385780635351b2301461064b5780635991de931461065e5780635cd00746146106ab578063677db20e146106b757806368c6db6a146106ca5780636a9a0611146106eb5780636e7d75e51461070957806371eff9d2146107345780637b695d101461074757806380c554c11461077257806382fb5d211461078657806387ac5691146107b15780638f5fae62146107da57806393c4b2861461080b578063976907cc1461081e5780639f94c52214610831578063a0e8f5ac14610845578063a5098f1014610858578063a55e47be1461086b578063a975dda01461087e578063af72105d14610891578063b127e385146108a4578063b298157b146108c4578063b3a763b9146108d1578063b445fbe7146108fc578063ba5f9f401461090f578063bd825f6b14610922578063c25dade81461092b578063d3fca63714610970578063d4f8318214610997578063d77153a7146109c2578063da09aacf14610ad1578063dc7776ca14610ae4578063dda1c15b14610b12578063e326f03a14610b25578063e4c593d714610b37578063e5e3b67e14610b4b578063e62eecdd14610b6c578063e908e85d14610bbd578063e9f7c59114610bc6578063eb49927014610cda578063f5279d9c14610ce3578063f8b5ef8514610cf4578063fc6e0f5914610d07575b5f5ffd5b60025461035790600160281b900460ff1681565b60405190151581526020015b60405180910390f35b60025461035790600160301b900460ff1681565b61038960055481565b604051908152602001610363565b6103c26103a536600461272e565b5f8054911515600160401b0260ff60401b19909216919091179055565b005b6103576103d236600461285d565b5050506001600160a01b03165f9081526012602052604090205460ff1690565b6103c26104003660046129ed565b610d1a565b6103c2610413366004612a1e565b600f80546001600160a01b0319166001600160a01b0392909216919091179055565b610448610443366004612a39565b610d43565b604080519215158352602083019190915201610363565b61035761046d366004612adb565b61160b565b6103c2610480366004612b3e565b600d55565b6103c25f805460ff60481b19169055565b61038960045481565b6104b26104ad366004612b63565b611638565b604051610363929190612c52565b6103c26104ce366004612b3e565b600555565b6009546103579060ff1681565b6103c26104ee366004612ca1565b60028054931515620100000262ff00001990941693909317909255600b80546001600160a01b039092166001600160a01b0319909216919091179055600c55565b6103c261053d36600461272e565b60028054911515600160381b0260ff60381b19909216919091179055565b6103c2610569366004612b3e565b600855565b6103c261057c366004612cdf565b611a25565b5f5461035790600160281b900460ff1681565b6103576105a2366004612d21565b611a54565b60025461035790610100900460ff1681565b5f5461035790600160301b900460ff1681565b6103c26105da366004612d8c565b611a62565b61038960035481565b6103c26105f6366004612a1e565b600e80546001600160a01b0319166001600160a01b0392909216919091179055565b610357610626366004612e18565b611a95565b6011546103579060ff1681565b610357610646366004612eef565b611b78565b5f54610357906301000000900460ff1681565b6103c261066c366004612ca1565b600280549315156101000261ff001990941693909317909255600b80546001600160a01b039092166001600160a01b0319909216919091179055600c55565b5f546103579060ff1681565b5f5461035790600160381b900460ff1681565b6103c26106d836600461272e565b6011805460ff1916911515919091179055565b60115461010090046001600160a01b03166040516103639190612f3d565b6103c261071736600461272e565b5f8054911515600160301b0260ff60301b19909216919091179055565b6103c2610742366004612cdf565b611dca565b6103c261075536600461272e565b5f8054911515600160201b0260ff60201b19909216919091179055565b60025461035790600160381b900460ff1681565b6103c261079436600461272e565b5f8054911515600160281b0260ff60281b19909216919091179055565b6103c26107bf36600461272e565b5f8054911515620100000262ff000019909216919091179055565b6103c26107e8366004612a1e565b6001600160a01b03165f908152601260205260409020805460ff19166001179055565b6103c2610819366004612cdf565b611df4565b6104b261082c366004612f51565b611e1e565b600254610357906301000000900460ff1681565b610448610853366004612ffd565b6121f0565b5f5461035790600160201b900460ff1681565b610389610879366004612b3e565b6122ae565b5f5461035790600160401b900460ff1681565b6002546103579062010000900460ff1681565b6103c26108b236600461272e565b5f805460ff1916911515919091179055565b6002546103579060ff1681565b6103c26108df36600461272e565b5f805491151563010000000263ff00000019909216919091179055565b6103c261090a366004612b3e565b600755565b61035761091d366004613041565b6122cd565b61038960085481565b6103c2610939366004612ca1565b6002805460ff191693151593909317909255600b80546001600160a01b0319166001600160a01b0392909216919091179055600c55565b6103c261097e36600461272e565b5f80549115156101000261ff0019909216919091179055565b6103c26109a536600461272e565b5f8054911515600160381b0260ff60381b19909216919091179055565b610ac460408051610140810182525f80825260208201819052918101829052606081018290526080810182905260a0810182905260c0810182905260e08101829052610100810182905261012081019190915250604080516101408101825260135460ff80821615158352610100808304821615156020850152620100008304821615159484019490945263010000008204811615156060840152600160201b8204811615156080840152600160281b82048116151560a0840152600160301b82048116151560c0840152600160381b82048116151560e0840152600160401b82048116151593830193909352600160481b9004909116151561012082015290565b60405161036391906130c6565b6103c2610adf366004612b3e565b600355565b6103c2610af2366004612a1e565b6001600160a01b03165f908152601260205260409020805460ff19169055565b6103c2610b20366004612b3e565b600655565b5f546103579062010000900460ff1681565b60025461035790600160201b900460ff1681565b6103c2610b5936600461272e565b6009805460ff1916911515919091179055565b6103c2610b7a366004612ca1565b6002805493151563010000000263ff0000001990941693909317909255600b80546001600160a01b039092166001600160a01b0319909216919091179055600c55565b61038960065481565b6103c2610bd436600461318f565b805160138054602084015160408501516060860151608087015160a088015160c089015160e08a0151610100808c0151610120909c015161ffff199099169a151561ff0019169a909a179615159099029590951763ffff00001916620100009415159490940263ff0000001916939093176301000000921515929092029190911761ffff60201b1916600160201b9115159190910260ff60281b191617600160281b911515919091021761ffff60301b1916600160301b9115159190910260ff60381b191617600160381b931515939093029290921761ffff60401b1916600160401b9315159390930260ff60481b191692909217600160481b91151591909102179055565b61038960075481565b5f5461035790610100900460ff1681565b5f5461035790600160481b900460ff1681565b6103c2610d15366004612b3e565b600455565b5f805460ff60481b1916600160481b1790558051610d3f9060019060208401906126b4565b5050565b5f8080806001600160a01b037f0000000000000000000000000000000000000000000000000000000000000000166367e0e076610d8861016088016101408901612a1e565b6040518263ffffffff1660e01b8152600401610da49190612f3d565b5f60405180830381865afa158015610dbe573d5f5f3e3d5ffd5b505050506040513d5f823e601f3d908101601f19168201604052610de59190810190613318565b5092505091505f7f00000000000000000000000000000000000000000000000000000000000000006001600160a01b031663535cfd8a87610140016020810190610e2f9190612a1e565b6040518263ffffffff1660e01b8152600401610e4b9190612f3d565b5f60405180830381865afa158015610e65573d5f5f3e3d5ffd5b505050506040513d5f823e601f3d908101601f19168201604052610e8c9190810190613475565b90505f806001600160a01b037f000000000000000000000000000000000000000000000000000000000000000016637e361bde610ed16101608b016101408c01612a1e565b6040518263ffffffff1660e01b8152600401610eed9190612f3d565b5f60405180830381865afa158015610f07573d5f5f3e3d5ffd5b505050506040513d5f823e601f3d908101601f19168201604052610f2e91908101906134a6565b90925090505f5b855181101561114a57610f4e60408a0160208b01612a1e565b6001600160a01b0316868281518110610f6957610f69613501565b60200260200101516001600160a01b03160361104257838181518110610f9157610f91613501565b60200260200101518960a0013514610fb857505f9861010090980135979650505050505050565b5f611004848381518110610fce57610fce613501565b6020026020010151848481518110610fe857610fe8613501565b60200260200101518c60a001356123b19092919063ffffffff16565b905085828151811061101857611018613501565b6020026020010151811461103c57505f996101009099013598975050505050505050565b50611142565b61105260608a0160408b01612a1e565b6001600160a01b031686828151811061106d5761106d613501565b60200260200101516001600160a01b0316036111425783818151811061109557611095613501565b60200260200101518960c00135146110bc57505f9861010090980135979650505050505050565b5f6111088483815181106110d2576110d2613501565b60200260200101518484815181106110ec576110ec613501565b60200260200101518c60c001356123b19092919063ffffffff16565b905085828151811061111c5761111c613501565b6020026020010151811461114057505f996101009099013598975050505050505050565b505b600101610f35565b5060035461010089013590156112d8575f611170600354836123cd90919063ffffffff16565b905080156112d2575f61118660208c018c613529565b600181111561119757611197613515565b03611239576111a68183613558565b91506001600160a01b037f00000000000000000000000000000000000000000000000000000000000000001663ae6393296111e760608d0160408e01612a1e565b30846040518463ffffffff1660e01b81526004016112079392919061356b565b5f604051808303815f87803b15801561121e575f5ffd5b505af1158015611230573d5f5f3e3d5ffd5b505050506112d2565b611243818361358f565b91506001600160a01b037f00000000000000000000000000000000000000000000000000000000000000001663ae63932961128460408d0160208e01612a1e565b30846040518463ffffffff1660e01b81526004016112a49392919061356b565b5f604051808303815f87803b1580156112bb575f5ffd5b505af11580156112cd573d5f5f3e3d5ffd5b505050505b506115e1565b600454156115e1575f6112f6600454836123cd90919063ffffffff16565b905080156115df575f61130c60208c018c613529565b600181111561131d5761131d613515565b036114835761132c818361358f565b600254909250600160381b900460ff161561147e5761135160608b0160408c01612a1e565b6001600160a01b031663a9059cbb7f0000000000000000000000000000000000000000000000000000000000000000836040518363ffffffff1660e01b815260040161139e9291906135a2565b6020604051808303815f875af11580156113ba573d5f5f3e3d5ffd5b505050506040513d601f19601f820116820180604052508101906113de91906135bb565b506001600160a01b037f0000000000000000000000000000000000000000000000000000000000000000166315afd40961141e60608d0160408e01612a1e565b836040518363ffffffff1660e01b815260040161143c9291906135a2565b6020604051808303815f875af1158015611458573d5f5f3e3d5ffd5b505050506040513d601f19601f8201168201806040525081019061147c91906135d6565b505b6115df565b61148d8183613558565b600254909250600160381b900460ff16156115df576114b260408b0160208c01612a1e565b6001600160a01b031663a9059cbb7f0000000000000000000000000000000000000000000000000000000000000000836040518363ffffffff1660e01b81526004016114ff9291906135a2565b6020604051808303815f875af115801561151b573d5f5f3e3d5ffd5b505050506040513d601f19601f8201168201806040525081019061153f91906135bb565b506001600160a01b037f0000000000000000000000000000000000000000000000000000000000000000166315afd40961157f60408d0160208e01612a1e565b836040518363ffffffff1660e01b815260040161159d9291906135a2565b6020604051808303815f875af11580156115b9573d5f5f3e3d5ffd5b505050506040513d601f19601f820116820180604052508101906115dd91906135d6565b505b505b5f8960e001351180156115fd57505f54600160201b900460ff16155b999098509650505050505050565b6002545f90610100900460ff1615611625576116256123ed565b505f54610100900460ff16155b92915050565b5f8054606090600160481b900460ff16156116a9576001808080548060200260200160405190810160405280929190818152602001828054801561169957602002820191905f5260205f20905b815481526020019060010190808311611685575b5050505050905091509150611a18565b6040516333f0703b60e11b81525f906001600160a01b037f000000000000000000000000000000000000000000000000000000000000000016906367e0e076906116f7908d90600401612f3d565b5f60405180830381865afa158015611711573d5f5f3e3d5ffd5b505050506040513d5f823e601f3d908101601f191682016040526117389190810190613318565b5050600754889450919250501561185f575f5b8651811015611859575f61178360075489848151811061176d5761176d613501565b60200260200101516123cd90919063ffffffff16565b90508015611850578084838151811061179e5761179e613501565b602002602001018181516117b29190613558565b915081815250507f00000000000000000000000000000000000000000000000000000000000000006001600160a01b031663ae6393298484815181106117fa576117fa613501565b602002602001015130846040518463ffffffff1660e01b81526004016118229392919061356b565b5f604051808303815f87803b158015611839575f5ffd5b505af115801561184b573d5f5f3e3d5ffd5b505050505b5060010161174b565b50611a07565b60085415611a07575f5b8651811015611a05575f61188b60085489848151811061176d5761176d613501565b90505f8383815181106118a0576118a0613501565b602002602001015190505f8211156119fb5760405163a9059cbb60e01b81526001600160a01b0382169063a9059cbb90611900907f00000000000000000000000000000000000000000000000000000000000000009086906004016135a2565b6020604051808303815f875af115801561191c573d5f5f3e3d5ffd5b505050506040513d601f19601f8201168201806040525081019061194091906135bb565b508185848151811061195457611954613501565b60200260200101818151611968919061358f565b9052506040516315afd40960e01b81526001600160a01b037f000000000000000000000000000000000000000000000000000000000000000016906315afd409906119b990849086906004016135a2565b6020604051808303815f875af11580156119d5573d5f5f3e3d5ffd5b505050506040513d601f19601f820116820180604052508101906119f991906135d6565b505b5050600101611869565b505b505f54600160401b900460ff161591505b9850989650505050505050565b6002805460ff60201b1916600160201b841515021790558051611a4f9060109060208401906126b4565b505050565b5f5460ff16155b9392505050565b60098054610100600160a81b0319166101006001600160a01b03861602179055600a611a8f828483613663565b50505050565b6011545f9060ff1615158103611b2c57876001600160a01b0316635e01eb5a6040518163ffffffff1660e01b8152600401602060405180830381865afa158015611ae1573d5f5f3e3d5ffd5b505050506040513d601f19601f82011682018060405250810190611b05919061371c565b601160016101000a8154816001600160a01b0302191690836001600160a01b031602179055505b60025462010000900460ff1615611b4557611b456123ed565b600254600160281b900460ff1615611b5f57611b5f61244b565b50505f54600160281b900460ff16159695505050505050565b6011545f9060ff1615158103611c1e57611b9860c0840160a08501612a1e565b6001600160a01b0316635e01eb5a6040518163ffffffff1660e01b8152600401602060405180830381865afa158015611bd3573d5f5f3e3d5ffd5b505050506040513d601f19601f82011682018060405250810190611bf7919061371c565b601160016101000a8154816001600160a01b0302191690836001600160a01b031602179055505b60025460ff1615611c3157611c316123ed565b600254600160201b900460ff1615611c4b57611c4b61244b565b60095460ff1615611db65760095461010090046001600160a01b0316611cb05760405162461bcd60e51b8152602060048201526015602482015274121bdbdac818dbdb9d1c9858dd081b9bdd081cd95d605a1b60448201526064015b60405180910390fd5b600a8054611cbd906135ed565b90505f03611d065760405162461bcd60e51b8152602060048201526016602482015275486f6f6b2063616c6c6461746120697320656d70747960501b6044820152606401611ca7565b6009805460ff191690819055600a8054611db49261010090046001600160a01b03169190611d33906135ed565b80601f0160208091040260200160405190810160405280929190818152602001828054611d5f906135ed565b8015611daa5780601f10611d8157610100808354040283529160200191611daa565b820191905f5260205f20905b815481529060010190602001808311611d8d57829003601f168201915b5050505050612568565b505b50505f546301000000900460ff1615919050565b6002805460ff60301b1916600160301b841515021790558051611a4f9060109060208401906126b4565b6002805460ff60281b1916600160281b841515021790558051611a4f9060109060208401906126b4565b5f8054606090600160481b900460ff1615611e8d576001808080548060200260200160405190810160405280929190818152602001828054801561169957602002820191905f5260205f2090815481526020019060010190808311611685575050505050905091509150611a18565b6040516333f0703b60e11b81525f906001600160a01b037f000000000000000000000000000000000000000000000000000000000000000016906367e0e07690611edb908d90600401612f3d565b5f60405180830381865afa158015611ef5573d5f5f3e3d5ffd5b505050506040513d5f823e601f3d908101601f19168201604052611f1c9190810190613318565b5050600554899450919250501561202d575f5b8751811015612027575f611f516005548a848151811061176d5761176d613501565b9050801561201e5780848381518110611f6c57611f6c613501565b60200260200101818151611f80919061358f565b915081815250507f00000000000000000000000000000000000000000000000000000000000000006001600160a01b031663ae639329848481518110611fc857611fc8613501565b602002602001015130846040518463ffffffff1660e01b8152600401611ff09392919061356b565b5f604051808303815f87803b158015612007575f5ffd5b505af1158015612019573d5f5f3e3d5ffd5b505050505b50600101611f2f565b506121d3565b600654156121d3575f5b87518110156121d1575f82828151811061205357612053613501565b602002602001015190505f6120766006548b858151811061176d5761176d613501565b905080156121c75760405163a9059cbb60e01b81526001600160a01b0383169063a9059cbb906120cc907f00000000000000000000000000000000000000000000000000000000000000009085906004016135a2565b6020604051808303815f875af11580156120e8573d5f5f3e3d5ffd5b505050506040513d601f19601f8201168201806040525081019061210c91906135bb565b508085848151811061212057612120613501565b602002602001018181516121349190613558565b9052506040516315afd40960e01b81526001600160a01b037f000000000000000000000000000000000000000000000000000000000000000016906315afd4099061218590859085906004016135a2565b6020604051808303815f875af11580156121a1573d5f5f3e3d5ffd5b505050506040513d601f19601f820116820180604052508101906121c591906135d6565b505b5050600101612037565b505b505f54600160301b900460ff16159a909950975050505050505050565b600d54600f545f9182916001600160a01b031615612297575f61221960c0880160a08901612a1e565b6001600160a01b0316635e01eb5a6040518163ffffffff1660e01b8152600401602060405180830381865afa158015612254573d5f5f3e3d5ffd5b505050506040513d601f19601f82011682018060405250810190612278919061371c565b600f549091506001600160a01b0390811690821603612295575f91505b505b5f5462010000900460ff1615969095509350505050565b600181815481106122bd575f80fd5b5f91825260209091200154905081565b6011545f9060ff161515810361236457876001600160a01b0316635e01eb5a6040518163ffffffff1660e01b8152600401602060405180830381865afa158015612319573d5f5f3e3d5ffd5b505050506040513d601f19601f8201168201806040525081019061233d919061371c565b601160016101000a8154816001600160a01b0302191690836001600160a01b031602179055505b6002546301000000900460ff161561237e5761237e6123ed565b600254600160301b900460ff16156123985761239861244b565b50505f54600160381b900460ff16159695505050505050565b5f6123c5846123c08486613737565b612575565b949350505050565b5f806123d98385613737565b90506123c5670de0b6b3a76400008261374e565b600b54600c5460405163a1cfa04160e01b81526001600160a01b039092169163a1cfa041916124229160040190815260200190565b5f604051808303815f87803b158015612439575f5ffd5b505af1158015611a8f573d5f5f3e3d5ffd5b600e5460405163ca4f280360e01b81525f916001600160a01b037f000000000000000000000000000000000000000000000000000000000000000081169263ca4f28039261249d921690600401612f3d565b5f60405180830381865afa1580156124b7573d5f5f3e3d5ffd5b505050506040513d5f823e601f3d908101601f191682016040526124de919081019061376d565b600e5460405163363d33cf60e21b81529192506001600160a01b037f000000000000000000000000000000000000000000000000000000000000000081169263d8f4cf3c92612538921690859060109081906004016137db565b5f604051808303815f87803b15801561254f575f5ffd5b505af1158015612561573d5f5f3e3d5ffd5b5050505050565b6060611a5b83835f612595565b5f80612589670de0b6b3a764000085613737565b90506123c5838261374e565b6060814710156125c15760405163cf47918160e01b815247600482015260248101839052604401611ca7565b5f5f856001600160a01b031684866040516125dc9190613861565b5f6040518083038185875af1925050503d805f8114612616576040519150601f19603f3d011682016040523d82523d5f602084013e61261b565b606091505b509150915061262b868383612635565b9695505050505050565b60608261264a5761264582612688565b611a5b565b815115801561266157506001600160a01b0384163b155b156126815783604051639996b31560e01b8152600401611ca79190612f3d565b5080611a5b565b8051156126985780518082602001fd5b60405163d6bda27560e01b815260040160405180910390fd5b50565b828054828255905f5260205f209081019282156126ed579160200282015b828111156126ed5782518255916020019190600101906126d2565b506126f99291506126fd565b5090565b5b808211156126f9575f81556001016126fe565b80151581146126b1575f5ffd5b803561272981612711565b919050565b5f6020828403121561273e575f5ffd5b8135611a5b81612711565b6001600160a01b03811681146126b1575f5ffd5b803561272981612749565b634e487b7160e01b5f52604160045260245ffd5b604051608081016001600160401b038111828210171561279e5761279e612768565b60405290565b60405161014081016001600160401b038111828210171561279e5761279e612768565b604051606081016001600160401b038111828210171561279e5761279e612768565b604051601f8201601f191681016001600160401b038111828210171561281157612811612768565b604052919050565b5f6001600160401b0382111561283157612831612768565b5060051b60200190565b600281106126b1575f5ffd5b5f60808284031215612857575f5ffd5b50919050565b5f5f5f5f60e08587031215612870575f5ffd5b843561287b81612749565b9350602085013561288b81612749565b925060408501356001600160401b038111156128a5575f5ffd5b8501601f810187136128b5575f5ffd5b80356128c86128c382612819565b6127e9565b8082825260208201915060208360071b8501019250898311156128e9575f5ffd5b6020840193505b82841015612969576080848b031215612907575f5ffd5b61290f61277c565b843561291a81612749565b8152602085013561292a8161283b565b6020820152604085013561293d81612749565b6040820152606085013561295081612711565b60608201528252608093909301926020909101906128f0565b8095505050505061297d8660608701612847565b905092959194509250565b5f82601f830112612997575f5ffd5b81356129a56128c382612819565b8082825260208201915060208360051b8601019250858311156129c6575f5ffd5b602085015b838110156129e35780358352602092830192016129cb565b5095945050505050565b5f602082840312156129fd575f5ffd5b81356001600160401b03811115612a12575f5ffd5b6123c584828501612988565b5f60208284031215612a2e575f5ffd5b8135611a5b81612749565b5f60208284031215612a49575f5ffd5b81356001600160401b03811115612a5e575f5ffd5b82016101808185031215611a5b575f5ffd5b5f82601f830112612a7f575f5ffd5b81356001600160401b03811115612a9857612a98612768565b612aab601f8201601f19166020016127e9565b818152846020838601011115612abf575f5ffd5b816020850160208301375f918101602001919091529392505050565b5f5f60408385031215612aec575f5ffd5b82356001600160401b03811115612b01575f5ffd5b612b0d85828601612988565b92505060208301356001600160401b03811115612b28575f5ffd5b612b3485828601612a70565b9150509250929050565b5f60208284031215612b4e575f5ffd5b5035919050565b803560048110612729575f5ffd5b5f5f5f5f5f5f5f5f610100898b031215612b7b575f5ffd5b612b848961275d565b9750612b9260208a0161275d565b9650612ba060408a01612b55565b95506060890135945060808901356001600160401b03811115612bc1575f5ffd5b612bcd8b828c01612988565b94505060a08901356001600160401b03811115612be8575f5ffd5b612bf48b828c01612988565b93505060c08901356001600160401b03811115612c0f575f5ffd5b612c1b8b828c01612988565b92505060e08901356001600160401b03811115612c36575f5ffd5b612c428b828c01612a70565b9150509295985092959890939650565b5f604082018415158352604060208401528084518083526060850191506020860192505f5b81811015612c95578351835260209384019390920191600101612c77565b50909695505050505050565b5f5f5f60608486031215612cb3575f5ffd5b8335612cbe81612711565b92506020840135612cce81612749565b929592945050506040919091013590565b5f5f60408385031215612cf0575f5ffd5b8235612cfb81612711565b915060208301356001600160401b03811115612d15575f5ffd5b612b3485828601612988565b5f5f5f60608486031215612d33575f5ffd5b83356001600160401b03811115612d48575f5ffd5b612d5486828701612988565b9350506020840135915060408401356001600160401b03811115612d76575f5ffd5b612d8286828701612a70565b9150509250925092565b5f5f5f60408486031215612d9e575f5ffd5b8335612da981612749565b925060208401356001600160401b03811115612dc3575f5ffd5b8401601f81018613612dd3575f5ffd5b80356001600160401b03811115612de8575f5ffd5b866020828401011115612df9575f5ffd5b939660209190910195509293505050565b803560058110612729575f5ffd5b5f5f5f5f5f5f5f60e0888a031215612e2e575f5ffd5b8735612e3981612749565b9650612e476020890161275d565b9550612e5560408901612e0a565b945060608801356001600160401b03811115612e6f575f5ffd5b612e7b8a828b01612988565b9450506080880135925060a08801356001600160401b03811115612e9d575f5ffd5b612ea98a828b01612988565b92505060c08801356001600160401b03811115612ec4575f5ffd5b612ed08a828b01612a70565b91505092959891949750929550565b5f60e08284031215612857575f5ffd5b5f5f60408385031215612f00575f5ffd5b82356001600160401b03811115612f15575f5ffd5b612f2185828601612edf565b9250506020830135612f3281612749565b809150509250929050565b6001600160a01b0391909116815260200190565b5f5f5f5f5f5f5f5f610100898b031215612f69575f5ffd5b612f728961275d565b9750612f8060208a0161275d565b9650612f8e60408a01612e0a565b955060608901356001600160401b03811115612fa8575f5ffd5b612fb48b828c01612988565b95505060808901356001600160401b03811115612fcf575f5ffd5b612fdb8b828c01612988565b94505060a0890135925060c08901356001600160401b03811115612c0f575f5ffd5b5f5f5f6060848603121561300f575f5ffd5b83356001600160401b03811115613024575f5ffd5b61303086828701612edf565b9350506020840135612cce81612749565b5f5f5f5f5f5f5f60e0888a031215613057575f5ffd5b873561306281612749565b96506130706020890161275d565b955061307e60408901612b55565b94506060880135935060808801356001600160401b0381111561309f575f5ffd5b6130ab8a828b01612988565b93505060a08801356001600160401b03811115612e9d575f5ffd5b815115158152610140810160208301516130e4602084018215159052565b5060408301516130f8604084018215159052565b50606083015161310c606084018215159052565b506080830151613120608084018215159052565b5060a083015161313460a084018215159052565b5060c083015161314860c084018215159052565b5060e083015161315c60e084018215159052565b5061010083015161317261010084018215159052565b5061012083015161318861012084018215159052565b5092915050565b5f6101408284031280156131a1575f5ffd5b506131aa6127a4565b6131b38361271e565b81526131c16020840161271e565b60208201526131d26040840161271e565b60408201526131e36060840161271e565b60608201526131f46080840161271e565b608082015261320560a0840161271e565b60a082015261321660c0840161271e565b60c082015261322760e0840161271e565b60e0820152613239610100840161271e565b61010082015261324c610120840161271e565b6101208201529392505050565b5f82601f830112613268575f5ffd5b81516132766128c382612819565b8082825260208201915060208360051b860101925085831115613297575f5ffd5b602085015b838110156129e35780516132af81612749565b83526020928301920161329c565b5f82601f8301126132cc575f5ffd5b81516132da6128c382612819565b8082825260208201915060208360051b8601019250858311156132fb575f5ffd5b602085015b838110156129e3578051835260209283019201613300565b5f5f5f5f6080858703121561332b575f5ffd5b84516001600160401b03811115613340575f5ffd5b61334c87828801613259565b602087015190955090506001600160401b03811115613369575f5ffd5b8501601f81018713613379575f5ffd5b80516133876128c382612819565b808282526020820191506020606084028501019250898311156133a8575f5ffd5b6020840193505b82841015613415576060848b0312156133c6575f5ffd5b6133ce6127c7565b84516133d98161283b565b815260208501516133e981612749565b602082015260408501516133fc81612711565b60408201528252606093909301926020909101906133af565b6040890151909650925050506001600160401b03811115613434575f5ffd5b613440878288016132bd565b606087015190935090506001600160401b0381111561345d575f5ffd5b613469878288016132bd565b91505092959194509250565b5f60208284031215613485575f5ffd5b81516001600160401b0381111561349a575f5ffd5b6123c5848285016132bd565b5f5f604083850312156134b7575f5ffd5b82516001600160401b038111156134cc575f5ffd5b6134d8858286016132bd565b602085015190935090506001600160401b038111156134f5575f5ffd5b612b34858286016132bd565b634e487b7160e01b5f52603260045260245ffd5b634e487b7160e01b5f52602160045260245ffd5b5f60208284031215613539575f5ffd5b8135611a5b8161283b565b634e487b7160e01b5f52601160045260245ffd5b8181038181111561163257611632613544565b6001600160a01b039384168152919092166020820152604081019190915260600190565b8082018082111561163257611632613544565b6001600160a01b03929092168252602082015260400190565b5f602082840312156135cb575f5ffd5b8151611a5b81612711565b5f602082840312156135e6575f5ffd5b5051919050565b600181811c9082168061360157607f821691505b60208210810361285757634e487b7160e01b5f52602260045260245ffd5b601f821115611a4f57805f5260205f20601f840160051c810160208510156136445750805b601f840160051c820191505b81811015612561575f8155600101613650565b6001600160401b0383111561367a5761367a612768565b61368e8361368883546135ed565b8361361f565b5f601f8411600181146136bf575f85156136a85750838201355b5f19600387901b1c1916600186901b178355612561565b5f83815260208120601f198716915b828110156136ee57868501358255602094850194600190920191016136ce565b508682101561370a575f1960f88860031b161c19848701351681555b505060018560011b0183555050505050565b5f6020828403121561372c575f5ffd5b8151611a5b81612749565b808202811582820484141761163257611632613544565b5f8261376857634e487b7160e01b5f52601260045260245ffd5b500490565b5f6020828403121561377d575f5ffd5b81516001600160401b03811115613792575f5ffd5b6123c584828501613259565b5f8154808452602084019350825f5260205f205f5b828110156137d15781548652602090950194600191820191016137b3565b5093949350505050565b6001600160a01b03851681526080602080830182905285519183018290525f919086019060a0840190835b8181101561382d5783516001600160a01b0316835260209384019390920191600101613806565b50508381036040850152613841818761379e565b9150508281036060840152613856818561379e565b979650505050505050565b5f82518060208501845e5f92019182525091905056fea2646970667358221220f6b15c1d56ca19a2a969d94740e434ccf1bde8b3309b6105a9ca0bd923f1637a64736f6c634300081e0033","linkReferences":{}},"methodIdentifiers":{"addLiquidityHookDiscountPercentage()":"e908e85d","addLiquidityHookFeePercentage()":"02273467","allowFactory(address)":"8f5fae62","changePoolBalancesOnBeforeAddLiquidityHook()":"005b449c","changePoolBalancesOnBeforeRemoveLiquidityHook()":"00d332fd","changePoolBalancesOnBeforeSwapHook()":"e4c593d7","changeTokenRateOnBeforeAddLiquidity()":"af72105d","changeTokenRateOnBeforeInitialize()":"3d05719a","changeTokenRateOnBeforeRemoveLiquidity()":"9f94c522","changeTokenRateOnBeforeSwapHook()":"b298157b","denyFactory(address)":"dc7776ca","disableForcedHookAdjustedAmounts()":"232b59f7","enableForcedHookAdjustedAmountsLiquidity(uint256[])":"0c54b1de","failOnAfterAddLiquidity()":"40dc21d4","failOnAfterInitialize()":"5cd00746","failOnAfterRemoveLiquidity()":"a975dda0","failOnAfterSwapHook()":"a5098f10","failOnBeforeAddLiquidity()":"35f7290e","failOnBeforeInitialize()":"f5279d9c","failOnBeforeRemoveLiquidity()":"677db20e","failOnBeforeSwapHook()":"5351b230","failOnComputeDynamicSwapFeeHook()":"e326f03a","forcedHookAdjustedAmountsLiquidity(uint256)":"a55e47be","getHookFlags()":"d77153a7","getSavedSender()":"6a9a0611","hookSwapDiscountPercentage()":"2352c2ed","hookSwapFeePercentage()":"4392312a","onAfterAddLiquidity(address,address,uint8,uint256[],uint256[],uint256,uint256[],bytes)":"976907cc","onAfterInitialize(uint256[],uint256,bytes)":"38be241d","onAfterRemoveLiquidity(address,address,uint8,uint256,uint256[],uint256[],uint256[],bytes)":"2754888d","onAfterSwap((uint8,address,address,uint256,uint256,uint256,uint256,uint256,uint256,address,address,bytes))":"18b6eb55","onBeforeAddLiquidity(address,address,uint8,uint256[],uint256,uint256[],bytes)":"45421ec7","onBeforeInitialize(uint256[],bytes)":"1c149e28","onBeforeRemoveLiquidity(address,address,uint8,uint256,uint256[],uint256[],bytes)":"ba5f9f40","onBeforeSwap((uint8,uint256,uint256[],uint256,uint256,address,bytes),address)":"5211fa77","onComputeDynamicSwapFeePercentage((uint8,uint256,uint256[],uint256,uint256,address,bytes),address,uint256)":"a0e8f5ac","onRegister(address,address,(address,uint8,address,bool)[],(bool,bool,bool,bool))":"0b89f182","removeLiquidityHookDiscountPercentage()":"bd825f6b","removeLiquidityHookFeePercentage()":"eb499270","setAddLiquidityHookDiscountPercentage(uint256)":"dda1c15b","setAddLiquidityHookFeePercentage(uint256)":"2e55a841","setChangePoolBalancesOnBeforeAddLiquidityHook(bool,uint256[])":"93c4b286","setChangePoolBalancesOnBeforeRemoveLiquidityHook(bool,uint256[])":"71eff9d2","setChangePoolBalancesOnBeforeSwapHook(bool,uint256[])":"34e3a8c3","setChangeTokenRateOnBeforeAddLiquidityHook(bool,address,uint256)":"335d4126","setChangeTokenRateOnBeforeInitializeHook(bool,address,uint256)":"5991de93","setChangeTokenRateOnBeforeRemoveLiquidityHook(bool,address,uint256)":"e62eecdd","setChangeTokenRateOnBeforeSwapHook(bool,address,uint256)":"c25dade8","setDynamicSwapFeePercentage(uint256)":"214ff4c5","setFailOnAfterAddLiquidityHook(bool)":"6e7d75e5","setFailOnAfterInitializeHook(bool)":"b127e385","setFailOnAfterRemoveLiquidityHook(bool)":"039388ba","setFailOnAfterSwapHook(bool)":"7b695d10","setFailOnBeforeAddLiquidityHook(bool)":"82fb5d21","setFailOnBeforeInitializeHook(bool)":"d3fca637","setFailOnBeforeRemoveLiquidityHook(bool)":"d4f83182","setFailOnBeforeSwapHook(bool)":"b3a763b9","setFailOnComputeDynamicSwapFeeHook(bool)":"87ac5691","setHookFlags((bool,bool,bool,bool,bool,bool,bool,bool,bool,bool))":"e9f7c591","setHookSwapDiscountPercentage(uint256)":"fc6e0f59","setHookSwapFeePercentage(uint256)":"da09aacf","setPool(address)":"4437152a","setRemoveLiquidityHookDiscountPercentage(uint256)":"34a168ec","setRemoveLiquidityHookFeePercentage(uint256)":"b445fbe7","setShouldIgnoreSavedSender(bool)":"68c6db6a","setShouldSettleDiscount(bool)":"3478db73","setSpecialSender(address)":"1064dfdd","setSwapReentrancyHook(address,bytes)":"423ef816","setSwapReentrancyHookActive(bool)":"e5e3b67e","shouldForceHookAdjustedAmounts()":"f8b5ef85","shouldIgnoreSavedSender()":"4f036756","shouldSettleDiscount()":"80c554c1","swapReentrancyHookActive()":"31378f4f"},"id":949}