{"abi":[{"type":"constructor","inputs":[{"name":"vault","type":"address","internalType":"contract IVault"},{"name":"initialOwner","type":"address","internalType":"address"}],"stateMutability":"nonpayable"},{"type":"function","name":"acceptOwnership","inputs":[],"outputs":[],"stateMutability":"nonpayable"},{"type":"function","name":"addPath","inputs":[{"name":"tokenIn","type":"address","internalType":"address"},{"name":"steps","type":"tuple[]","internalType":"struct SwapPathStep[]","components":[{"name":"pool","type":"address","internalType":"address"},{"name":"tokenOut","type":"address","internalType":"contract IERC20"},{"name":"isBuffer","type":"bool","internalType":"bool"}]}],"outputs":[],"stateMutability":"nonpayable"},{"type":"function","name":"addSimplePath","inputs":[{"name":"poolOrBuffer","type":"address","internalType":"address"}],"outputs":[],"stateMutability":"nonpayable"},{"type":"function","name":"cancelOwnershipHandover","inputs":[],"outputs":[],"stateMutability":"payable"},{"type":"function","name":"completeOwnershipHandover","inputs":[{"name":"pendingOwner","type":"address","internalType":"address"}],"outputs":[],"stateMutability":"payable"},{"type":"function","name":"forceTransferOwnership","inputs":[{"name":"newOwner","type":"address","internalType":"address"}],"outputs":[],"stateMutability":"nonpayable"},{"type":"function","name":"getActionId","inputs":[{"name":"selector","type":"bytes4","internalType":"bytes4"}],"outputs":[{"name":"","type":"bytes32","internalType":"bytes32"}],"stateMutability":"view"},{"type":"function","name":"getAuthorizer","inputs":[],"outputs":[{"name":"","type":"address","internalType":"contract IAuthorizer"}],"stateMutability":"view"},{"type":"function","name":"getPathAt","inputs":[{"name":"tokenIn","type":"address","internalType":"address"},{"name":"tokenOut","type":"address","internalType":"address"},{"name":"index","type":"uint256","internalType":"uint256"}],"outputs":[{"name":"","type":"tuple[]","internalType":"struct SwapPathStep[]","components":[{"name":"pool","type":"address","internalType":"address"},{"name":"tokenOut","type":"address","internalType":"contract IERC20"},{"name":"isBuffer","type":"bool","internalType":"bool"}]}],"stateMutability":"view"},{"type":"function","name":"getPathCount","inputs":[{"name":"tokenIn","type":"address","internalType":"address"},{"name":"tokenOut","type":"address","internalType":"address"}],"outputs":[{"name":"","type":"uint256","internalType":"uint256"}],"stateMutability":"view"},{"type":"function","name":"getPaths","inputs":[{"name":"tokenIn","type":"address","internalType":"address"},{"name":"tokenOut","type":"address","internalType":"address"}],"outputs":[{"name":"","type":"tuple[][]","internalType":"struct SwapPathStep[][]","components":[{"name":"pool","type":"address","internalType":"address"},{"name":"tokenOut","type":"address","internalType":"contract IERC20"},{"name":"isBuffer","type":"bool","internalType":"bool"}]}],"stateMutability":"view"},{"type":"function","name":"owner","inputs":[],"outputs":[{"name":"","type":"address","internalType":"address"}],"stateMutability":"view"},{"type":"function","name":"ownershipHandoverExpiresAt","inputs":[{"name":"pendingOwner","type":"address","internalType":"address"}],"outputs":[{"name":"result","type":"uint256","internalType":"uint256"}],"stateMutability":"view"},{"type":"function","name":"pendingOwner","inputs":[],"outputs":[{"name":"","type":"address","internalType":"address"}],"stateMutability":"view"},{"type":"function","name":"removePathAtIndex","inputs":[{"name":"tokenIn","type":"address","internalType":"address"},{"name":"tokenOut","type":"address","internalType":"address"},{"name":"index","type":"uint256","internalType":"uint256"}],"outputs":[],"stateMutability":"nonpayable"},{"type":"function","name":"removeSimplePath","inputs":[{"name":"poolOrBuffer","type":"address","internalType":"address"}],"outputs":[],"stateMutability":"nonpayable"},{"type":"function","name":"renounceOwnership","inputs":[],"outputs":[],"stateMutability":"payable"},{"type":"function","name":"requestOwnershipHandover","inputs":[],"outputs":[],"stateMutability":"payable"},{"type":"function","name":"transferOwnership","inputs":[{"name":"newOwner","type":"address","internalType":"address"}],"outputs":[],"stateMutability":"payable"},{"type":"function","name":"vault","inputs":[],"outputs":[{"name":"","type":"address","internalType":"contract IVault"}],"stateMutability":"view"},{"type":"event","name":"OwnershipHandoverCanceled","inputs":[{"name":"pendingOwner","type":"address","indexed":true,"internalType":"address"}],"anonymous":false},{"type":"event","name":"OwnershipHandoverRequested","inputs":[{"name":"pendingOwner","type":"address","indexed":true,"internalType":"address"}],"anonymous":false},{"type":"event","name":"OwnershipTransferStarted","inputs":[{"name":"previousOwner","type":"address","indexed":true,"internalType":"address"},{"name":"newOwner","type":"address","indexed":true,"internalType":"address"}],"anonymous":false},{"type":"event","name":"OwnershipTransferred","inputs":[{"name":"oldOwner","type":"address","indexed":true,"internalType":"address"},{"name":"newOwner","type":"address","indexed":true,"internalType":"address"}],"anonymous":false},{"type":"event","name":"PathAdded","inputs":[{"name":"tokenIn","type":"address","indexed":true,"internalType":"address"},{"name":"tokenOut","type":"address","indexed":true,"internalType":"address"},{"name":"pathsLength","type":"uint256","indexed":false,"internalType":"uint256"}],"anonymous":false},{"type":"event","name":"PathRemoved","inputs":[{"name":"tokenIn","type":"address","indexed":true,"internalType":"address"},{"name":"tokenOut","type":"address","indexed":true,"internalType":"address"},{"name":"pathsLength","type":"uint256","indexed":false,"internalType":"uint256"}],"anonymous":false},{"type":"error","name":"AlreadyInitialized","inputs":[]},{"type":"error","name":"BufferNotInitialized","inputs":[{"name":"buffer","type":"address","internalType":"address"}]},{"type":"error","name":"EmptyPath","inputs":[]},{"type":"error","name":"IndexOutOfBounds","inputs":[]},{"type":"error","name":"InvalidBufferPath","inputs":[{"name":"buffer","type":"address","internalType":"address"},{"name":"tokenIn","type":"address","internalType":"address"},{"name":"tokenOut","type":"address","internalType":"address"}]},{"type":"error","name":"InvalidRemovePath","inputs":[{"name":"poolOrBuffer","type":"address","internalType":"address"},{"name":"tokenIn","type":"address","internalType":"address"},{"name":"tokenOut","type":"address","internalType":"address"}]},{"type":"error","name":"InvalidSimplePath","inputs":[{"name":"path","type":"address","internalType":"address"}]},{"type":"error","name":"NewOwnerIsZeroAddress","inputs":[]},{"type":"error","name":"NoHandoverRequest","inputs":[]},{"type":"error","name":"OwnableInvalidOwner","inputs":[{"name":"owner","type":"address","internalType":"address"}]},{"type":"error","name":"OwnableUnauthorizedAccount","inputs":[{"name":"account","type":"address","internalType":"address"}]},{"type":"error","name":"SenderNotAllowed","inputs":[]},{"type":"error","name":"Unauthorized","inputs":[]},{"type":"error","name":"VaultNotSet","inputs":[]}],"bytecode":{"object":"0x60c060405234801561000f575f5ffd5b5060405161209b38038061209b83398101604081905261002e916100f8565b818130816001600160a01b03811661005f57604051631e4fbdf760e01b81525f600482015260240160405180910390fd5b610068816100a8565b506080526001600160a01b03821661009357604051630647140b60e51b815260040160405180910390fd5b506001600160a01b031660a052506101309050565b6001600160a01b0316638b78c6d819819055805f7f8be0079c531659141344cd1fd0a4f28419497f9722a3daafe3b4186f6b6457e08180a35b50565b6001600160a01b03811681146100e1575f5ffd5b5f5f60408385031215610109575f5ffd5b8251610114816100e4565b6020840151909250610125816100e4565b809150509250929050565b60805160a051611ef66101a55f395f81816102e8015281816109a601528181610a4301528181610adc01528181610c4501528181610cde01528181610e8b0152818161100f0152818161115701528181611269015281816113070152818161141a01526114c801525f6108d50152611ef65ff3fe6080604052600436106100ee575f3560e01c8063057074ff146100f2578063256929621461012757806332fffdbd1461013157806354d1f13d14610150578063715018a61461015857806379ba5097146101605780637c7d370a14610174578063815ca70f146101a0578063851c1bb3146101bf5780638da5cb5b146101ec57806394ee0a3b1461020d578063a89b11281461022c578063aaabadc51461024b578063bc138aa31461025f578063e30c39781461027e578063f04e283e14610292578063f2fde38b146102a5578063f335b520146102b8578063fbfa77cf146102d7578063fee81cf41461030a575b5f5ffd5b3480156100fd575f5ffd5b5061011161010c3660046119c9565b61033b565b60405161011e9190611a35565b60405180910390f35b61012f6103ff565b005b34801561013c575f5ffd5b5061012f61014b3660046119c9565b61044b565b61012f61056f565b61012f6105a8565b34801561016b575f5ffd5b5061012f6105bb565b34801561017f575f5ffd5b5061019361018e366004611a7d565b610603565b60405161011e9190611ab4565b3480156101ab575f5ffd5b5061012f6101ba366004611be1565b6106f3565b3480156101ca575f5ffd5b506101de6101d9366004611cd6565b6108d2565b60405190815260200161011e565b3480156101f7575f5ffd5b50610200610936565b60405161011e9190611cfd565b348015610218575f5ffd5b506101de610227366004611a7d565b610949565b348015610237575f5ffd5b5061012f610246366004611d11565b61096b565b348015610256575f5ffd5b506102006109a3565b34801561026a575f5ffd5b5061012f610279366004611d11565b610a24565b348015610289575f5ffd5b50610200610b79565b61012f6102a0366004611d11565b610b87565b61012f6102b3366004611d11565b610bc1565b3480156102c3575f5ffd5b5061012f6102d2366004611d11565b610c26565b3480156102e2575f5ffd5b506102007f000000000000000000000000000000000000000000000000000000000000000081565b348015610315575f5ffd5b506101de610324366004611d11565b63389a75e1600c9081525f91909152602090205490565b60605f6103488585610d60565b5f8181526001602052604090208054919250908490811061036b5761036b611d2c565b905f5260205f2001805480602002602001604051908101604052809291908181526020015f905b828210156103f1575f848152602090819020604080516060810182526002860290920180546001600160a01b03908116845260019182015490811684860152600160a01b900460ff161515918301919091529083529092019101610392565b505050509150509392505050565b5f6202a3006001600160401b03164201905063389a75e1600c52335f52806020600c2055337fdbf36a107da19e49527a7176a1babf963b4b0ff8cde35ee35d6cd8f1f9ac7e1d5f5fa250565b610453610da4565b5f61045e8484610d60565b5f81815260016020526040902080549192509080841061049157604051634e23d03560e01b815260040160405180910390fd5b6001811180156104ab57506104a7600182611d54565b8414155b156104fe57816104bc600183611d54565b815481106104cc576104cc611d2c565b905f5260205f20018285815481106104e6576104e6611d2c565b905f5260205f20019080546104fc9291906118c6565b505b8180548061050e5761050e611d67565b600190038181905f5260205f20015f610527919061196a565b9055846001600160a01b0316866001600160a01b03165f516020611e815f395f51905f52848054905060405161055f91815260200190565b60405180910390a3505050505050565b63389a75e1600c52335f525f6020600c2055337ffa7b8eab7da67f412cc9575ed43464468f9bfbae89d1675917346ca6d8fe3c925f5fa2565b6105b0610de2565b6105b95f610e1d565b565b33806105c5610b79565b6001600160a01b0316146105f7578060405163118cdaa760e01b81526004016105ee9190611cfd565b60405180910390fd5b61060081610e5a565b50565b60605f6106108484610d60565b905060015f8281526020019081526020015f20805480602002602001604051908101604052809291908181526020015f905b828210156106e5578382905f5260205f2001805480602002602001604051908101604052809291908181526020015f905b828210156106d2575f848152602090819020604080516060810182526002860290920180546001600160a01b03908116845260019182015490811684860152600160a01b900460ff161515918301919091529083529092019101610673565b5050505081526020019060010190610642565b505050509150505b92915050565b6106fb610da4565b80515f0361071c576040516320a2d33d60e01b815260040160405180910390fd5b5f816001835161072c9190611d54565b8151811061073c5761073c611d2c565b60200260200101516020015190505f6107558483610d60565b9050835f5b84518110156107c1575f85828151811061077657610776611d2c565b602002602001015190508060400151156107a15761079c815f0151848360200151610e72565b6107b3565b6107b3815f0151848360200151610ff6565b60200151915060010161075a565b505f828152600160208190526040822080549091018155808252905b855181101561089557815482906107f690600190611d54565b8154811061080657610806611d2c565b905f5260205f200186828151811061082057610820611d2c565b6020908102919091018101518254600181810185555f94855293839020825160029092020180546001600160a01b039283166001600160a01b03199091161781559282015192840180546040909301511515600160a01b026001600160a81b03199093169390911692909217179055016107dd565b505f838152600160209081526040918290205491519182526001600160a01b0386811692908916915f516020611ea15f395f51905f52910161055f565b5f7f0000000000000000000000000000000000000000000000000000000000000000826040516020016109199291909182526001600160e01b031916602082015260240190565b604051602081830303815290604052805190602001209050919050565b5f610944638b78c6d8195490565b905090565b5f5f6109558484610d60565b5f90815260016020526040902054949350505050565b610973610da4565b61097b610936565b6001600160a01b031633036105f7576040516323dada5360e01b815260040160405180910390fd5b5f7f00000000000000000000000000000000000000000000000000000000000000006001600160a01b031663aaabadc56040518163ffffffff1660e01b8152600401602060405180830381865afa158015610a00573d5f5f3e3d5ffd5b505050506040513d601f19601f820116820180604052508101906109449190611d7b565b610a2c610da4565b60405163c673bdaf60e01b81526001600160a01b037f0000000000000000000000000000000000000000000000000000000000000000169063c673bdaf90610a78908490600401611cfd565b602060405180830381865afa158015610a93573d5f5f3e3d5ffd5b505050506040513d601f19601f82011682018060405250810190610ab79190611d96565b15610ac5576106008161113e565b604051636844846b60e01b81526001600160a01b037f00000000000000000000000000000000000000000000000000000000000000001690636844846b90610b11908490600401611cfd565b602060405180830381865afa158015610b2c573d5f5f3e3d5ffd5b505050506040513d601f19601f82011682018060405250810190610b509190611d96565b15610b5e5761060081611250565b8060405163b309199b60e01b81526004016105ee9190611cfd565b5f546001600160a01b031690565b610b8f610de2565b63389a75e1600c52805f526020600c208054421115610bb557636f5e88185f526004601cfd5b5f905561060081610e1d565b610bc9610de2565b5f80546001600160a01b0319166001600160a01b038316908117909155610bee610936565b6001600160a01b03167f38d16b8cac22d99fc7c124b9cd0de2d3fa1faef420bfe791d8c362d765e2270060405160405180910390a350565b610c2e610da4565b60405163c673bdaf60e01b81526001600160a01b037f0000000000000000000000000000000000000000000000000000000000000000169063c673bdaf90610c7a908490600401611cfd565b602060405180830381865afa158015610c95573d5f5f3e3d5ffd5b505050506040513d601f19601f82011682018060405250810190610cb99190611d96565b15610cc757610600816112ee565b604051636844846b60e01b81526001600160a01b037f00000000000000000000000000000000000000000000000000000000000000001690636844846b90610d13908490600401611cfd565b602060405180830381865afa158015610d2e573d5f5f3e3d5ffd5b505050506040513d601f19601f82011682018060405250810190610d529190611d96565b15610b5e5761060081611401565b6040516001600160601b0319606084811b8216602084015283901b1660348201525f9060480160405160208183030381529060405280519060200120905092915050565b5f610db95f356001600160e01b0319166108d2565b9050610dc5813361149d565b610600576040516323dada5360e01b815260040160405180910390fd5b610dea610936565b6001600160a01b0316336001600160a01b0316146105b9573360405163118cdaa760e01b81526004016105ee9190611cfd565b638b78c6d81980546001600160a01b039092169182907f8be0079c531659141344cd1fd0a4f28419497f9722a3daafe3b4186f6b6457e05f80a355565b5f80546001600160a01b031916905561060081610e1d565b604051630387587d60e01b81525f906001600160a01b037f00000000000000000000000000000000000000000000000000000000000000001690630387587d90610ec0908790600401611cfd565b602060405180830381865afa158015610edb573d5f5f3e3d5ffd5b505050506040513d601f19601f82011682018060405250810190610eff9190611d7b565b90506001600160a01b038116610f2a57836040516385f4129960e01b81526004016105ee9190611cfd565b806001600160a01b0316836001600160a01b031603610f8057836001600160a01b0316826001600160a01b031614610f7b578383836040516329198c3d60e01b81526004016105ee93929190611db1565b610ff0565b836001600160a01b0316836001600160a01b031603610fd157806001600160a01b0316826001600160a01b031614610f7b578383836040516329198c3d60e01b81526004016105ee93929190611db1565b8383836040516329198c3d60e01b81526004016105ee93929190611db1565b50505050565b60405163ca4f280360e01b81525f906001600160a01b037f0000000000000000000000000000000000000000000000000000000000000000169063ca4f280390611044908790600401611cfd565b5f60405180830381865afa15801561105e573d5f5f3e3d5ffd5b505050506040513d5f823e601f3d908101601f191682016040526110859190810190611dd4565b90505f80805b835181101561110a57856001600160a01b03168482815181106110b0576110b0611d2c565b60200260200101516001600160a01b0316036110cb57600192505b846001600160a01b03168482815181106110e7576110e7611d2c565b60200260200101516001600160a01b03160361110257600191505b60010161108b565b50811580611116575080155b15611136578560405163b309199b60e01b81526004016105ee9190611cfd565b505050505050565b60405163ca4f280360e01b81525f906001600160a01b037f0000000000000000000000000000000000000000000000000000000000000000169063ca4f28039061118c908590600401611cfd565b5f60405180830381865afa1580156111a6573d5f5f3e3d5ffd5b505050506040513d5f823e601f3d908101601f191682016040526111cd9190810190611dd4565b90505f600182516111de9190611d54565b90505f5b81811015610ff0575f6111f6826001611e6d565b90505b83518110156112475761123f8585848151811061121857611218611d2c565b602002602001015186848151811061123257611232611d2c565b60200260200101516115c4565b6001016111f9565b506001016111e2565b604051630387587d60e01b81525f906001600160a01b037f00000000000000000000000000000000000000000000000000000000000000001690630387587d9061129e908590600401611cfd565b602060405180830381865afa1580156112b9573d5f5f3e3d5ffd5b505050506040513d601f19601f820116820180604052508101906112dd9190611d7b565b90506112ea8282846115c4565b5050565b60405163ca4f280360e01b81525f906001600160a01b037f0000000000000000000000000000000000000000000000000000000000000000169063ca4f28039061133c908590600401611cfd565b5f60405180830381865afa158015611356573d5f5f3e3d5ffd5b505050506040513d5f823e601f3d908101601f1916820160405261137d9190810190611dd4565b90505f6001825161138e9190611d54565b90505f5b81811015610ff0575f6113a6826001611e6d565b90505b83518110156113f8576113f0858584815181106113c8576113c8611d2c565b60200260200101518684815181106113e2576113e2611d2c565b60200260200101515f6115df565b6001016113a9565b50600101611392565b604051630387587d60e01b81525f906001600160a01b037f00000000000000000000000000000000000000000000000000000000000000001690630387587d9061144f908590600401611cfd565b602060405180830381865afa15801561146a573d5f5f3e3d5ffd5b505050506040513d601f19601f8201168201806040525081019061148e9190611d7b565b90506112ea82828460016115df565b5f6114a6610936565b6001600160a01b0316826001600160a01b0316036114c6575060016106ed565b7f00000000000000000000000000000000000000000000000000000000000000006001600160a01b031663aaabadc56040518163ffffffff1660e01b8152600401602060405180830381865afa158015611522573d5f5f3e3d5ffd5b505050506040513d601f19601f820116820180604052508101906115469190611d7b565b6040516326f8aa2160e21b8152600481018590526001600160a01b0384811660248301523060448301529190911690639be2a88490606401602060405180830381865afa158015611599573d5f5f3e3d5ffd5b505050506040513d601f19601f820116820180604052508101906115bd9190611d96565b9392505050565b6115cf8383836115f7565b6115da8382846115f7565b505050565b6115eb848484846117bc565b610ff0848385846117bc565b5f6116028383610d60565b5f8181526001602052604081209192505b815481101561179c575f82828154811061162f5761162f611d2c565b905f5260205f200190508080549050600114801561167f5750866001600160a01b0316815f8154811061166457611664611d2c565b5f9182526020909120600290910201546001600160a01b0316145b80156116c05750846001600160a01b0316815f815481106116a2576116a2611d2c565b5f9182526020909120600160029092020101546001600160a01b0316145b156117935782546001101561172157825483906116df90600190611d54565b815481106116ef576116ef611d2c565b905f5260205f200183838154811061170957611709611d2c565b905f5260205f200190805461171f9291906118c6565b505b8280548061173157611731611d67565b600190038181905f5260205f20015f61174a919061196a565b9055846001600160a01b0316866001600160a01b03165f516020611e815f395f51905f52858054905060405161178291815260200190565b60405180910390a350505050505050565b50600101611613565b50848484604051633a9458d960e01b81526004016105ee93929190611db1565b5f6117c78484610d60565b604080516060810182526001600160a01b0380891682528616602080830191909152851515828401525f8481526001918290529283208054820180825593819052939450909291829161181991611d54565b8154811061182957611829611d2c565b5f9182526020808320909101805460018181018355918452828420865160029092020180546001600160a01b039283166001600160a01b03199091161781558684015190830180546040808a01511515600160a01b026001600160a81b031990921693851693909317179055878552919092529182902054915187821692918916915f516020611ea15f395f51905f529161178291815260200190565b828054828255905f5260205f2090600202810192821561195a575f5260205f209160020282015b8281111561195a57825482546001600160a01b03199081166001600160a01b039283161784556001808601805491860180549384169290941691821784555460ff600160a01b91829004161515026001600160a81b031990921617179055600292830192909101906118ed565b50611966929150611984565b5090565b5080545f8255600202905f5260205f209081019061060091905b5b808211156119665780546001600160a01b03191681556001810180546001600160a81b0319169055600201611985565b6001600160a01b0381168114610600575f5ffd5b5f5f5f606084860312156119db575f5ffd5b83356119e6816119b5565b925060208401356119f6816119b5565b929592945050506040919091013590565b80516001600160a01b0390811683526020808301519091169083015260409081015115159082015260600190565b602080825282518282018190525f918401906040840190835b81811015611a7257611a61838551611a07565b602094909401939250600101611a4e565b509095945050505050565b5f5f60408385031215611a8e575f5ffd5b8235611a99816119b5565b91506020830135611aa9816119b5565b809150509250929050565b5f602082016020835280845180835260408501915060408160051b8601019250602086015f5b82811015611b3a57868503603f19018452815180518087526020918201918701905f5b81811015611b2157611b10838551611a07565b602094909401939250600101611afd565b5090965050506020938401939190910190600101611ada565b50929695505050505050565b634e487b7160e01b5f52604160045260245ffd5b604051606081016001600160401b0381118282101715611b7c57611b7c611b46565b60405290565b604051601f8201601f191681016001600160401b0381118282101715611baa57611baa611b46565b604052919050565b5f6001600160401b03821115611bca57611bca611b46565b5060051b60200190565b8015158114610600575f5ffd5b5f5f60408385031215611bf2575f5ffd5b8235611bfd816119b5565b915060208301356001600160401b03811115611c17575f5ffd5b8301601f81018513611c27575f5ffd5b8035611c3a611c3582611bb2565b611b82565b80828252602082019150602060608402850101925087831115611c5b575f5ffd5b6020840193505b82841015611cc85760608489031215611c79575f5ffd5b611c81611b5a565b8435611c8c816119b5565b81526020850135611c9c816119b5565b60208201526040850135611caf81611bd4565b6040820152825260609390930192602090910190611c62565b809450505050509250929050565b5f60208284031215611ce6575f5ffd5b81356001600160e01b0319811681146115bd575f5ffd5b6001600160a01b0391909116815260200190565b5f60208284031215611d21575f5ffd5b81356115bd816119b5565b634e487b7160e01b5f52603260045260245ffd5b634e487b7160e01b5f52601160045260245ffd5b818103818111156106ed576106ed611d40565b634e487b7160e01b5f52603160045260245ffd5b5f60208284031215611d8b575f5ffd5b81516115bd816119b5565b5f60208284031215611da6575f5ffd5b81516115bd81611bd4565b6001600160a01b0393841681529183166020830152909116604082015260600190565b5f60208284031215611de4575f5ffd5b81516001600160401b03811115611df9575f5ffd5b8201601f81018413611e09575f5ffd5b8051611e17611c3582611bb2565b8082825260208201915060208360051b850101925086831115611e38575f5ffd5b6020840193505b82841015611e63578351611e52816119b5565b825260209384019390910190611e3f565b9695505050505050565b808201808211156106ed576106ed611d4056fea38fb2ba0cd6ce518df558e7765144874cc0dfaabfcc9742d6fc5183b6c039da0836045dc838da47be101a8d10036b82ec004688d856daa53cd0e56807d3bfcaa2646970667358221220dce0f7bbddf79036afa8fc0a06657067815a655e449914a4bb5c9ac53bdc7fbf64736f6c634300081e0033","linkReferences":{}},"methodIdentifiers":{"acceptOwnership()":"79ba5097","addPath(address,(address,address,bool)[])":"815ca70f","addSimplePath(address)":"f335b520","cancelOwnershipHandover()":"54d1f13d","completeOwnershipHandover(address)":"f04e283e","forceTransferOwnership(address)":"a89b1128","getActionId(bytes4)":"851c1bb3","getAuthorizer()":"aaabadc5","getPathAt(address,address,uint256)":"057074ff","getPathCount(address,address)":"94ee0a3b","getPaths(address,address)":"7c7d370a","owner()":"8da5cb5b","ownershipHandoverExpiresAt(address)":"fee81cf4","pendingOwner()":"e30c3978","removePathAtIndex(address,address,uint256)":"32fffdbd","removeSimplePath(address)":"bc138aa3","renounceOwnership()":"715018a6","requestOwnershipHandover()":"25692962","transferOwnership(address)":"f2fde38b","vault()":"fbfa77cf"},"id":317}