{"abi":[{"type":"function","name":"facetFuncs","inputs":[],"outputs":[{"name":"funcs_","type":"bytes4[]","internalType":"bytes4[]"}],"stateMutability":"pure"},{"type":"function","name":"facetInterfaces","inputs":[],"outputs":[{"name":"interfaces_","type":"bytes4[]","internalType":"bytes4[]"}],"stateMutability":"pure"},{"type":"function","name":"facetMetadata","inputs":[],"outputs":[{"name":"name","type":"string","internalType":"string"},{"name":"interfaces","type":"bytes4[]","internalType":"bytes4[]"},{"name":"functions","type":"bytes4[]","internalType":"bytes4[]"}],"stateMutability":"pure"},{"type":"function","name":"facetName","inputs":[],"outputs":[{"name":"name","type":"string","internalType":"string"}],"stateMutability":"pure"},{"type":"function","name":"isLocked","inputs":[],"outputs":[{"name":"","type":"bool","internalType":"bool"}],"stateMutability":"view"},{"type":"error","name":"IsLocked","inputs":[]}],"bytecode":{"object":"0x6080604052348015600e575f5ffd5b506102fe8061001c5f395ff3fe608060405234801561000f575f5ffd5b5060043610610055575f3560e01c80632ea8082614610059578063574a4cff146100595780635b6f4d0114610077578063a4e2d6341461008c578063f10d7a75146100a4575b5f5ffd5b6100616100bb565b60405161006e9190610219565b60405180910390f35b61007f610113565b60405161006e9190610260565b610094610140565b604051901515815260200161006e565b6100ac61014e565b60405161006e93929190610272565b6040805160018082528183019092526060916020808301908036833701905050905063a4e2d63460e01b815f815181106100f7576100f76102b4565b6001600160e01b03199092166020928302919091019091015290565b6040805180820190915260138152721499595b9d1c985b98de531bd8dad19858d95d606a1b602082015290565b5f610149610176565b905090565b606080606061015b610113565b92506101656100bb565b915061016f6100bb565b9050909192565b5f6101496101d16040516020016101b8906020808252601790820152766372616e652e6163636573732e7265656e7472616e637960481b604082015260600190565b6040516020818303038152906040528051906020012090565b5c90565b5f8151808452602084019350602083015f5b8281101561020f5781516001600160e01b0319168652602095860195909101906001016101e7565b5093949350505050565b602081525f61022b60208301846101d5565b9392505050565b5f81518084528060208401602086015e5f602082860101526020601f19601f83011685010191505092915050565b602081525f61022b6020830184610232565b606081525f6102846060830186610232565b828103602084015261029681866101d5565b905082810360408401526102aa81856101d5565b9695505050505050565b634e487b7160e01b5f52603260045260245ffdfea26469706673582212205d0028a2f700006cbb965f1f1e92d8e1664f11f13edc5c63f144e9ea12e96cc964736f6c634300081e0033","linkReferences":{}},"methodIdentifiers":{"facetFuncs()":"574a4cff","facetInterfaces()":"2ea80826","facetMetadata()":"f10d7a75","facetName()":"5b6f4d01","isLocked()":"a4e2d634"},"id":19}