{"abi":[{"type":"constructor","inputs":[{"name":"lbpCommonParams","type":"tuple","internalType":"struct LBPCommonParams","components":[{"name":"name","type":"string","internalType":"string"},{"name":"symbol","type":"string","internalType":"string"},{"name":"owner","type":"address","internalType":"address"},{"name":"projectToken","type":"address","internalType":"contract IERC20"},{"name":"reserveToken","type":"address","internalType":"contract IERC20"},{"name":"startTime","type":"uint256","internalType":"uint256"},{"name":"endTime","type":"uint256","internalType":"uint256"},{"name":"blockProjectTokenSwapsIn","type":"bool","internalType":"bool"}]},{"name":"factoryParams","type":"tuple","internalType":"struct FactoryParams","components":[{"name":"vault","type":"address","internalType":"contract IVault"},{"name":"trustedRouter","type":"address","internalType":"address"},{"name":"poolVersion","type":"string","internalType":"string"}]},{"name":"projectTokenRate","type":"uint256","internalType":"uint256"}],"stateMutability":"nonpayable"},{"type":"function","name":"DOMAIN_SEPARATOR","inputs":[],"outputs":[{"name":"","type":"bytes32","internalType":"bytes32"}],"stateMutability":"view"},{"type":"function","name":"PERMIT_TYPEHASH","inputs":[],"outputs":[{"name":"","type":"bytes32","internalType":"bytes32"}],"stateMutability":"view"},{"type":"function","name":"acceptOwnership","inputs":[],"outputs":[],"stateMutability":"nonpayable"},{"type":"function","name":"allowance","inputs":[{"name":"owner","type":"address","internalType":"address"},{"name":"spender","type":"address","internalType":"address"}],"outputs":[{"name":"","type":"uint256","internalType":"uint256"}],"stateMutability":"view"},{"type":"function","name":"approve","inputs":[{"name":"spender","type":"address","internalType":"address"},{"name":"amount","type":"uint256","internalType":"uint256"}],"outputs":[{"name":"","type":"bool","internalType":"bool"}],"stateMutability":"nonpayable"},{"type":"function","name":"balanceOf","inputs":[{"name":"account","type":"address","internalType":"address"}],"outputs":[{"name":"","type":"uint256","internalType":"uint256"}],"stateMutability":"view"},{"type":"function","name":"cancelOwnershipHandover","inputs":[],"outputs":[],"stateMutability":"payable"},{"type":"function","name":"completeOwnershipHandover","inputs":[{"name":"pendingOwner","type":"address","internalType":"address"}],"outputs":[],"stateMutability":"payable"},{"type":"function","name":"computeBalance","inputs":[{"name":"","type":"uint256[]","internalType":"uint256[]"},{"name":"","type":"uint256","internalType":"uint256"},{"name":"","type":"uint256","internalType":"uint256"}],"outputs":[{"name":"","type":"uint256","internalType":"uint256"}],"stateMutability":"pure"},{"type":"function","name":"computeInvariant","inputs":[{"name":"balances","type":"uint256[]","internalType":"uint256[]"},{"name":"rounding","type":"uint8","internalType":"enum Rounding"}],"outputs":[{"name":"invariant","type":"uint256","internalType":"uint256"}],"stateMutability":"view"},{"type":"function","name":"decimals","inputs":[],"outputs":[{"name":"","type":"uint8","internalType":"uint8"}],"stateMutability":"pure"},{"type":"function","name":"eip712Domain","inputs":[],"outputs":[{"name":"fields","type":"bytes1","internalType":"bytes1"},{"name":"name","type":"string","internalType":"string"},{"name":"version","type":"string","internalType":"string"},{"name":"chainId","type":"uint256","internalType":"uint256"},{"name":"verifyingContract","type":"address","internalType":"address"},{"name":"salt","type":"bytes32","internalType":"bytes32"},{"name":"extensions","type":"uint256[]","internalType":"uint256[]"}],"stateMutability":"view"},{"type":"function","name":"emitApproval","inputs":[{"name":"owner","type":"address","internalType":"address"},{"name":"spender","type":"address","internalType":"address"},{"name":"amount","type":"uint256","internalType":"uint256"}],"outputs":[],"stateMutability":"nonpayable"},{"type":"function","name":"emitTransfer","inputs":[{"name":"from","type":"address","internalType":"address"},{"name":"to","type":"address","internalType":"address"},{"name":"amount","type":"uint256","internalType":"uint256"}],"outputs":[],"stateMutability":"nonpayable"},{"type":"function","name":"getAggregateFeePercentages","inputs":[],"outputs":[{"name":"aggregateSwapFeePercentage","type":"uint256","internalType":"uint256"},{"name":"aggregateYieldFeePercentage","type":"uint256","internalType":"uint256"}],"stateMutability":"view"},{"type":"function","name":"getCurrentLiveBalances","inputs":[],"outputs":[{"name":"balancesLiveScaled18","type":"uint256[]","internalType":"uint256[]"}],"stateMutability":"view"},{"type":"function","name":"getFixedPriceLBPoolDynamicData","inputs":[],"outputs":[{"name":"data","type":"tuple","internalType":"struct FixedPriceLBPoolDynamicData","components":[{"name":"balancesLiveScaled18","type":"uint256[]","internalType":"uint256[]"},{"name":"staticSwapFeePercentage","type":"uint256","internalType":"uint256"},{"name":"totalSupply","type":"uint256","internalType":"uint256"},{"name":"isPoolInitialized","type":"bool","internalType":"bool"},{"name":"isPoolPaused","type":"bool","internalType":"bool"},{"name":"isPoolInRecoveryMode","type":"bool","internalType":"bool"},{"name":"isSwapEnabled","type":"bool","internalType":"bool"}]}],"stateMutability":"view"},{"type":"function","name":"getFixedPriceLBPoolImmutableData","inputs":[],"outputs":[{"name":"data","type":"tuple","internalType":"struct FixedPriceLBPoolImmutableData","components":[{"name":"tokens","type":"address[]","internalType":"contract IERC20[]"},{"name":"decimalScalingFactors","type":"uint256[]","internalType":"uint256[]"},{"name":"startTime","type":"uint256","internalType":"uint256"},{"name":"endTime","type":"uint256","internalType":"uint256"},{"name":"projectTokenIndex","type":"uint256","internalType":"uint256"},{"name":"reserveTokenIndex","type":"uint256","internalType":"uint256"},{"name":"projectTokenRate","type":"uint256","internalType":"uint256"}]}],"stateMutability":"view"},{"type":"function","name":"getHookFlags","inputs":[],"outputs":[{"name":"hookFlags","type":"tuple","internalType":"struct HookFlags","components":[{"name":"enableHookAdjustedAmounts","type":"bool","internalType":"bool"},{"name":"shouldCallBeforeInitialize","type":"bool","internalType":"bool"},{"name":"shouldCallAfterInitialize","type":"bool","internalType":"bool"},{"name":"shouldCallComputeDynamicSwapFee","type":"bool","internalType":"bool"},{"name":"shouldCallBeforeSwap","type":"bool","internalType":"bool"},{"name":"shouldCallAfterSwap","type":"bool","internalType":"bool"},{"name":"shouldCallBeforeAddLiquidity","type":"bool","internalType":"bool"},{"name":"shouldCallAfterAddLiquidity","type":"bool","internalType":"bool"},{"name":"shouldCallBeforeRemoveLiquidity","type":"bool","internalType":"bool"},{"name":"shouldCallAfterRemoveLiquidity","type":"bool","internalType":"bool"}]}],"stateMutability":"pure"},{"type":"function","name":"getMaximumInvariantRatio","inputs":[],"outputs":[{"name":"","type":"uint256","internalType":"uint256"}],"stateMutability":"pure"},{"type":"function","name":"getMaximumSwapFeePercentage","inputs":[],"outputs":[{"name":"","type":"uint256","internalType":"uint256"}],"stateMutability":"pure"},{"type":"function","name":"getMigrationParameters","inputs":[],"outputs":[{"name":"","type":"tuple","internalType":"struct MigrationParams","components":[{"name":"migrationRouter","type":"address","internalType":"address"},{"name":"lockDurationAfterMigration","type":"uint256","internalType":"uint256"},{"name":"bptPercentageToMigrate","type":"uint256","internalType":"uint256"},{"name":"migrationWeightProjectToken","type":"uint256","internalType":"uint256"},{"name":"migrationWeightReserveToken","type":"uint256","internalType":"uint256"}]}],"stateMutability":"view"},{"type":"function","name":"getMigrationRouter","inputs":[],"outputs":[{"name":"","type":"address","internalType":"address"}],"stateMutability":"view"},{"type":"function","name":"getMinimumInvariantRatio","inputs":[],"outputs":[{"name":"","type":"uint256","internalType":"uint256"}],"stateMutability":"pure"},{"type":"function","name":"getMinimumSwapFeePercentage","inputs":[],"outputs":[{"name":"","type":"uint256","internalType":"uint256"}],"stateMutability":"pure"},{"type":"function","name":"getProjectToken","inputs":[],"outputs":[{"name":"","type":"address","internalType":"contract IERC20"}],"stateMutability":"view"},{"type":"function","name":"getProjectTokenRate","inputs":[],"outputs":[{"name":"","type":"uint256","internalType":"uint256"}],"stateMutability":"view"},{"type":"function","name":"getRate","inputs":[],"outputs":[{"name":"","type":"uint256","internalType":"uint256"}],"stateMutability":"view"},{"type":"function","name":"getReserveToken","inputs":[],"outputs":[{"name":"","type":"address","internalType":"contract IERC20"}],"stateMutability":"view"},{"type":"function","name":"getStaticSwapFeePercentage","inputs":[],"outputs":[{"name":"","type":"uint256","internalType":"uint256"}],"stateMutability":"view"},{"type":"function","name":"getTokenIndices","inputs":[],"outputs":[{"name":"","type":"uint256","internalType":"uint256"},{"name":"","type":"uint256","internalType":"uint256"}],"stateMutability":"view"},{"type":"function","name":"getTokenInfo","inputs":[],"outputs":[{"name":"tokens","type":"address[]","internalType":"contract IERC20[]"},{"name":"tokenInfo","type":"tuple[]","internalType":"struct TokenInfo[]","components":[{"name":"tokenType","type":"uint8","internalType":"enum TokenType"},{"name":"rateProvider","type":"address","internalType":"contract IRateProvider"},{"name":"paysYieldFees","type":"bool","internalType":"bool"}]},{"name":"balancesRaw","type":"uint256[]","internalType":"uint256[]"},{"name":"lastBalancesLiveScaled18","type":"uint256[]","internalType":"uint256[]"}],"stateMutability":"view"},{"type":"function","name":"getTokens","inputs":[],"outputs":[{"name":"tokens","type":"address[]","internalType":"contract IERC20[]"}],"stateMutability":"view"},{"type":"function","name":"getTrustedRouter","inputs":[],"outputs":[{"name":"","type":"address","internalType":"address"}],"stateMutability":"view"},{"type":"function","name":"getVault","inputs":[],"outputs":[{"name":"","type":"address","internalType":"contract IVault"}],"stateMutability":"view"},{"type":"function","name":"incrementNonce","inputs":[],"outputs":[],"stateMutability":"nonpayable"},{"type":"function","name":"isProjectTokenSwapInBlocked","inputs":[],"outputs":[{"name":"","type":"bool","internalType":"bool"}],"stateMutability":"view"},{"type":"function","name":"isSwapEnabled","inputs":[],"outputs":[{"name":"","type":"bool","internalType":"bool"}],"stateMutability":"view"},{"type":"function","name":"name","inputs":[],"outputs":[{"name":"","type":"string","internalType":"string"}],"stateMutability":"view"},{"type":"function","name":"nonces","inputs":[{"name":"owner","type":"address","internalType":"address"}],"outputs":[{"name":"","type":"uint256","internalType":"uint256"}],"stateMutability":"view"},{"type":"function","name":"onAfterAddLiquidity","inputs":[{"name":"","type":"address","internalType":"address"},{"name":"","type":"address","internalType":"address"},{"name":"","type":"uint8","internalType":"enum AddLiquidityKind"},{"name":"","type":"uint256[]","internalType":"uint256[]"},{"name":"amountsInRaw","type":"uint256[]","internalType":"uint256[]"},{"name":"","type":"uint256","internalType":"uint256"},{"name":"","type":"uint256[]","internalType":"uint256[]"},{"name":"","type":"bytes","internalType":"bytes"}],"outputs":[{"name":"","type":"bool","internalType":"bool"},{"name":"","type":"uint256[]","internalType":"uint256[]"}],"stateMutability":"nonpayable"},{"type":"function","name":"onAfterInitialize","inputs":[{"name":"","type":"uint256[]","internalType":"uint256[]"},{"name":"","type":"uint256","internalType":"uint256"},{"name":"","type":"bytes","internalType":"bytes"}],"outputs":[{"name":"","type":"bool","internalType":"bool"}],"stateMutability":"nonpayable"},{"type":"function","name":"onAfterRemoveLiquidity","inputs":[{"name":"","type":"address","internalType":"address"},{"name":"","type":"address","internalType":"address"},{"name":"","type":"uint8","internalType":"enum RemoveLiquidityKind"},{"name":"","type":"uint256","internalType":"uint256"},{"name":"","type":"uint256[]","internalType":"uint256[]"},{"name":"amountsOutRaw","type":"uint256[]","internalType":"uint256[]"},{"name":"","type":"uint256[]","internalType":"uint256[]"},{"name":"","type":"bytes","internalType":"bytes"}],"outputs":[{"name":"","type":"bool","internalType":"bool"},{"name":"","type":"uint256[]","internalType":"uint256[]"}],"stateMutability":"nonpayable"},{"type":"function","name":"onAfterSwap","inputs":[{"name":"","type":"tuple","internalType":"struct AfterSwapParams","components":[{"name":"kind","type":"uint8","internalType":"enum SwapKind"},{"name":"tokenIn","type":"address","internalType":"contract IERC20"},{"name":"tokenOut","type":"address","internalType":"contract IERC20"},{"name":"amountInScaled18","type":"uint256","internalType":"uint256"},{"name":"amountOutScaled18","type":"uint256","internalType":"uint256"},{"name":"tokenInBalanceScaled18","type":"uint256","internalType":"uint256"},{"name":"tokenOutBalanceScaled18","type":"uint256","internalType":"uint256"},{"name":"amountCalculatedScaled18","type":"uint256","internalType":"uint256"},{"name":"amountCalculatedRaw","type":"uint256","internalType":"uint256"},{"name":"router","type":"address","internalType":"address"},{"name":"pool","type":"address","internalType":"address"},{"name":"userData","type":"bytes","internalType":"bytes"}]}],"outputs":[{"name":"","type":"bool","internalType":"bool"},{"name":"","type":"uint256","internalType":"uint256"}],"stateMutability":"nonpayable"},{"type":"function","name":"onBeforeAddLiquidity","inputs":[{"name":"router","type":"address","internalType":"address"},{"name":"","type":"address","internalType":"address"},{"name":"","type":"uint8","internalType":"enum AddLiquidityKind"},{"name":"","type":"uint256[]","internalType":"uint256[]"},{"name":"","type":"uint256","internalType":"uint256"},{"name":"","type":"uint256[]","internalType":"uint256[]"},{"name":"","type":"bytes","internalType":"bytes"}],"outputs":[{"name":"","type":"bool","internalType":"bool"}],"stateMutability":"view"},{"type":"function","name":"onBeforeInitialize","inputs":[{"name":"exactAmountsInScaled18","type":"uint256[]","internalType":"uint256[]"},{"name":"","type":"bytes","internalType":"bytes"}],"outputs":[{"name":"","type":"bool","internalType":"bool"}],"stateMutability":"view"},{"type":"function","name":"onBeforeRemoveLiquidity","inputs":[{"name":"router","type":"address","internalType":"address"},{"name":"","type":"address","internalType":"address"},{"name":"","type":"uint8","internalType":"enum RemoveLiquidityKind"},{"name":"","type":"uint256","internalType":"uint256"},{"name":"","type":"uint256[]","internalType":"uint256[]"},{"name":"","type":"uint256[]","internalType":"uint256[]"},{"name":"","type":"bytes","internalType":"bytes"}],"outputs":[{"name":"","type":"bool","internalType":"bool"}],"stateMutability":"view"},{"type":"function","name":"onBeforeSwap","inputs":[{"name":"","type":"tuple","internalType":"struct PoolSwapParams","components":[{"name":"kind","type":"uint8","internalType":"enum SwapKind"},{"name":"amountGivenScaled18","type":"uint256","internalType":"uint256"},{"name":"balancesScaled18","type":"uint256[]","internalType":"uint256[]"},{"name":"indexIn","type":"uint256","internalType":"uint256"},{"name":"indexOut","type":"uint256","internalType":"uint256"},{"name":"router","type":"address","internalType":"address"},{"name":"userData","type":"bytes","internalType":"bytes"}]},{"name":"","type":"address","internalType":"address"}],"outputs":[{"name":"","type":"bool","internalType":"bool"}],"stateMutability":"nonpayable"},{"type":"function","name":"onComputeDynamicSwapFeePercentage","inputs":[{"name":"","type":"tuple","internalType":"struct PoolSwapParams","components":[{"name":"kind","type":"uint8","internalType":"enum SwapKind"},{"name":"amountGivenScaled18","type":"uint256","internalType":"uint256"},{"name":"balancesScaled18","type":"uint256[]","internalType":"uint256[]"},{"name":"indexIn","type":"uint256","internalType":"uint256"},{"name":"indexOut","type":"uint256","internalType":"uint256"},{"name":"router","type":"address","internalType":"address"},{"name":"userData","type":"bytes","internalType":"bytes"}]},{"name":"","type":"address","internalType":"address"},{"name":"","type":"uint256","internalType":"uint256"}],"outputs":[{"name":"","type":"bool","internalType":"bool"},{"name":"","type":"uint256","internalType":"uint256"}],"stateMutability":"view"},{"type":"function","name":"onRegister","inputs":[{"name":"","type":"address","internalType":"address"},{"name":"pool","type":"address","internalType":"address"},{"name":"tokenConfig","type":"tuple[]","internalType":"struct TokenConfig[]","components":[{"name":"token","type":"address","internalType":"contract IERC20"},{"name":"tokenType","type":"uint8","internalType":"enum TokenType"},{"name":"rateProvider","type":"address","internalType":"contract IRateProvider"},{"name":"paysYieldFees","type":"bool","internalType":"bool"}]},{"name":"","type":"tuple","internalType":"struct LiquidityManagement","components":[{"name":"disableUnbalancedLiquidity","type":"bool","internalType":"bool"},{"name":"enableAddLiquidityCustom","type":"bool","internalType":"bool"},{"name":"enableRemoveLiquidityCustom","type":"bool","internalType":"bool"},{"name":"enableDonation","type":"bool","internalType":"bool"}]}],"outputs":[{"name":"","type":"bool","internalType":"bool"}],"stateMutability":"view"},{"type":"function","name":"onSwap","inputs":[{"name":"request","type":"tuple","internalType":"struct PoolSwapParams","components":[{"name":"kind","type":"uint8","internalType":"enum SwapKind"},{"name":"amountGivenScaled18","type":"uint256","internalType":"uint256"},{"name":"balancesScaled18","type":"uint256[]","internalType":"uint256[]"},{"name":"indexIn","type":"uint256","internalType":"uint256"},{"name":"indexOut","type":"uint256","internalType":"uint256"},{"name":"router","type":"address","internalType":"address"},{"name":"userData","type":"bytes","internalType":"bytes"}]}],"outputs":[{"name":"amountCalculatedScaled18","type":"uint256","internalType":"uint256"}],"stateMutability":"view"},{"type":"function","name":"owner","inputs":[],"outputs":[{"name":"","type":"address","internalType":"address"}],"stateMutability":"view"},{"type":"function","name":"ownershipHandoverExpiresAt","inputs":[{"name":"pendingOwner","type":"address","internalType":"address"}],"outputs":[{"name":"result","type":"uint256","internalType":"uint256"}],"stateMutability":"view"},{"type":"function","name":"pendingOwner","inputs":[],"outputs":[{"name":"","type":"address","internalType":"address"}],"stateMutability":"view"},{"type":"function","name":"permit","inputs":[{"name":"owner","type":"address","internalType":"address"},{"name":"spender","type":"address","internalType":"address"},{"name":"amount","type":"uint256","internalType":"uint256"},{"name":"deadline","type":"uint256","internalType":"uint256"},{"name":"v","type":"uint8","internalType":"uint8"},{"name":"r","type":"bytes32","internalType":"bytes32"},{"name":"s","type":"bytes32","internalType":"bytes32"}],"outputs":[],"stateMutability":"nonpayable"},{"type":"function","name":"renounceOwnership","inputs":[],"outputs":[],"stateMutability":"payable"},{"type":"function","name":"requestOwnershipHandover","inputs":[],"outputs":[],"stateMutability":"payable"},{"type":"function","name":"supportsInterface","inputs":[{"name":"interfaceId","type":"bytes4","internalType":"bytes4"}],"outputs":[{"name":"","type":"bool","internalType":"bool"}],"stateMutability":"view"},{"type":"function","name":"symbol","inputs":[],"outputs":[{"name":"","type":"string","internalType":"string"}],"stateMutability":"view"},{"type":"function","name":"totalSupply","inputs":[],"outputs":[{"name":"","type":"uint256","internalType":"uint256"}],"stateMutability":"view"},{"type":"function","name":"transfer","inputs":[{"name":"to","type":"address","internalType":"address"},{"name":"amount","type":"uint256","internalType":"uint256"}],"outputs":[{"name":"","type":"bool","internalType":"bool"}],"stateMutability":"nonpayable"},{"type":"function","name":"transferFrom","inputs":[{"name":"from","type":"address","internalType":"address"},{"name":"to","type":"address","internalType":"address"},{"name":"amount","type":"uint256","internalType":"uint256"}],"outputs":[{"name":"","type":"bool","internalType":"bool"}],"stateMutability":"nonpayable"},{"type":"function","name":"transferOwnership","inputs":[{"name":"newOwner","type":"address","internalType":"address"}],"outputs":[],"stateMutability":"payable"},{"type":"function","name":"version","inputs":[],"outputs":[{"name":"","type":"string","internalType":"string"}],"stateMutability":"view"},{"type":"event","name":"Approval","inputs":[{"name":"owner","type":"address","indexed":true,"internalType":"address"},{"name":"spender","type":"address","indexed":true,"internalType":"address"},{"name":"amount","type":"uint256","indexed":false,"internalType":"uint256"}],"anonymous":false},{"type":"event","name":"EIP712DomainChanged","inputs":[],"anonymous":false},{"type":"event","name":"OwnershipHandoverCanceled","inputs":[{"name":"pendingOwner","type":"address","indexed":true,"internalType":"address"}],"anonymous":false},{"type":"event","name":"OwnershipHandoverRequested","inputs":[{"name":"pendingOwner","type":"address","indexed":true,"internalType":"address"}],"anonymous":false},{"type":"event","name":"OwnershipTransferStarted","inputs":[{"name":"previousOwner","type":"address","indexed":true,"internalType":"address"},{"name":"newOwner","type":"address","indexed":true,"internalType":"address"}],"anonymous":false},{"type":"event","name":"OwnershipTransferred","inputs":[{"name":"oldOwner","type":"address","indexed":true,"internalType":"address"},{"name":"newOwner","type":"address","indexed":true,"internalType":"address"}],"anonymous":false},{"type":"event","name":"Transfer","inputs":[{"name":"from","type":"address","indexed":true,"internalType":"address"},{"name":"to","type":"address","indexed":true,"internalType":"address"},{"name":"amount","type":"uint256","indexed":false,"internalType":"uint256"}],"anonymous":false},{"type":"error","name":"AddingLiquidityNotAllowed","inputs":[]},{"type":"error","name":"AlreadyInitialized","inputs":[]},{"type":"error","name":"ERC2612ExpiredSignature","inputs":[{"name":"deadline","type":"uint256","internalType":"uint256"}]},{"type":"error","name":"ERC2612InvalidSigner","inputs":[{"name":"signer","type":"address","internalType":"address"},{"name":"owner","type":"address","internalType":"address"}]},{"type":"error","name":"InputLengthMismatch","inputs":[]},{"type":"error","name":"InvalidAccountNonce","inputs":[{"name":"account","type":"address","internalType":"address"},{"name":"currentNonce","type":"uint256","internalType":"uint256"}]},{"type":"error","name":"InvalidBptLockDuration","inputs":[]},{"type":"error","name":"InvalidBptPercentageToMigrate","inputs":[]},{"type":"error","name":"InvalidInitializationAmount","inputs":[]},{"type":"error","name":"InvalidMigrationWeights","inputs":[]},{"type":"error","name":"InvalidOwner","inputs":[]},{"type":"error","name":"InvalidProjectToken","inputs":[]},{"type":"error","name":"InvalidProjectTokenRate","inputs":[]},{"type":"error","name":"InvalidReserveToken","inputs":[]},{"type":"error","name":"InvalidStartTime","inputs":[{"name":"resolvedStartTime","type":"uint256","internalType":"uint256"},{"name":"endTime","type":"uint256","internalType":"uint256"}]},{"type":"error","name":"InvalidTokenConfiguration","inputs":[]},{"type":"error","name":"MigrationRouterRequired","inputs":[]},{"type":"error","name":"NewOwnerIsZeroAddress","inputs":[]},{"type":"error","name":"NoHandoverRequest","inputs":[]},{"type":"error","name":"OwnableInvalidOwner","inputs":[{"name":"owner","type":"address","internalType":"address"}]},{"type":"error","name":"OwnableUnauthorizedAccount","inputs":[{"name":"account","type":"address","internalType":"address"}]},{"type":"error","name":"RemovingLiquidityNotAllowed","inputs":[]},{"type":"error","name":"SenderIsNotVault","inputs":[{"name":"sender","type":"address","internalType":"address"}]},{"type":"error","name":"SwapOfProjectTokenIn","inputs":[]},{"type":"error","name":"SwapsDisabled","inputs":[]},{"type":"error","name":"TokenSwapsInUnsupported","inputs":[]},{"type":"error","name":"TokensMustBeDifferent","inputs":[]},{"type":"error","name":"Unauthorized","inputs":[]},{"type":"error","name":"UnsupportedOperation","inputs":[]}],"bytecode":{"object":"0x6102c0604052348015610010575f5ffd5b506040516144b33803806144b383398101604081905261002f9161067c565b8160400151825f0151835f0151855f015186602001518282604051806040016040528060018152602001603160f81b8152508a61007061022760201b60201c565b60208c015160408301515f906001600160a01b0381166100aa57604051631e4fbdf760e01b81525f60048201526024015b60405180910390fd5b6100b381610260565b506100bd8461029c565b60a08501526100cc8382610377565b506001600160a01b03808316608090815282821660a0908152606087018051841660c09081529288018051851660e090815292890151610140529288015161016052908701511515610180529051905190821691161061012e5760015f610132565b5f60015b60ff908116610120521661010052505060208101516101a05260408101516101c05260608101516101e05260800151610200525060016101728382610824565b50600261017f8282610824565b508151602092830120610220528051910120610240526001600160a01b03166102605260046101ae8382610824565b5060056101bb8282610824565b505050506001600160a01b0316610280526101d5816104b4565b50805f036101f5576040516205b11360eb1b815260040160405180910390fd5b60e083015115155f0361021b57604051630569342560e11b815260040160405180910390fd5b6102a052506108fd9050565b61025d6040518060a001604052805f6001600160a01b031681526020015f81526020015f81526020015f81526020015f81525090565b90565b6001600160a01b0316638b78c6d819819055805f7f8be0079c531659141344cd1fd0a4f28419497f9722a3daafe3b4186f6b6457e08180a35b50565b60408101515f906001600160a01b03166102c9576040516349e27cff60e01b815260040160405180910390fd5b60608201516001600160a01b03166102f4576040516359977db360e01b815260040160405180910390fd5b60808201516001600160a01b031661031f57604051635577403d60e11b815260040160405180910390fd5b81608001516001600160a01b031682606001516001600160a01b0316036103595760405163fbfc7a9160e01b815260040160405180910390fd5b6103718260a001518360c001516104c460201b60201c565b92915050565b5f82604001515f14158061038e5750602083015115155b8061039c5750606083015115155b806103aa5750608083015115155b90508015610371576001600160a01b0382166103d9576040516358cce8fd60e11b815260040160405180910390fd5b5f836080015184606001516103ee91906108de565b9050670de0b6b3a76400008114158061040957506060840151155b8061041f57506702c68af0bb1400008460800151105b1561043d5760405163063ecd6560e41b815260040160405180910390fd5b670de0b6b3a76400008460400151118061045957506040840151155b1561047757604051631453342160e01b815260040160405180910390fd5b6301e133808460200151118061048f57506020840151155b156104ad5760405163638ac49560e11b815260040160405180910390fd5b5092915050565b60066104c08282610824565b5050565b42828118838210021881811115610371576040516364bb3b8360e11b815260048101829052602481018390526044016100a1565b634e487b7160e01b5f52604160045260245ffd5b60405161010081016001600160401b038111828210171561052f5761052f6104f8565b60405290565b5f82601f830112610544575f5ffd5b81516001600160401b0381111561055d5761055d6104f8565b604051601f8201601f19908116603f011681016001600160401b038111828210171561058b5761058b6104f8565b6040528181528382016020018510156105a2575f5ffd5b8160208501602083015e5f918101602001919091529392505050565b6001600160a01b0381168114610299575f5ffd5b80516105dd816105be565b919050565b805180151581146105dd575f5ffd5b5f60608284031215610601575f5ffd5b604051606081016001600160401b0381118282101715610623576106236104f8565b80604052508091508251610636816105be565b81526020830151610646816105be565b602082015260408301516001600160401b03811115610663575f5ffd5b61066f85828601610535565b6040830152505092915050565b5f5f5f6060848603121561068e575f5ffd5b83516001600160401b038111156106a3575f5ffd5b840161010081870312156106b5575f5ffd5b6106bd61050c565b81516001600160401b038111156106d2575f5ffd5b6106de88828501610535565b82525060208201516001600160401b038111156106f9575f5ffd5b61070588828501610535565b602083015250610717604083016105d2565b6040820152610728606083016105d2565b6060820152610739608083016105d2565b608082015260a0828101519082015260c0808301519082015261075e60e083016105e2565b60e0820152602086015190945090506001600160401b03811115610780575f5ffd5b61078c868287016105f1565b604095909501519396949550929392505050565b600181811c908216806107b457607f821691505b6020821081036107d257634e487b7160e01b5f52602260045260245ffd5b50919050565b601f82111561081f57805f5260205f20601f840160051c810160208510156107fd5750805b601f840160051c820191505b8181101561081c575f8155600101610809565b50505b505050565b81516001600160401b0381111561083d5761083d6104f8565b6108518161084b84546107a0565b846107d8565b6020601f821160018114610883575f831561086c5750848201515b5f19600385901b1c1916600184901b17845561081c565b5f84815260208120601f198516915b828110156108b25787850151825560209485019460019092019101610892565b50848210156108cf57868401515f19600387901b60f8161c191681555b50505050600190811b01905550565b8082018082111561037157634e487b7160e01b5f52601160045260245ffd5b60805160a05160c05160e05161010051610120516101405161016051610180516101a0516101c0516101e05161020051610220516102405161026051610280516102a0516139d8610adb5f395f8181610591015281816115a6015281816117010152818161173501528181611901015261197201525f81816117c001528181611a9401528181611d3e01528181611df10152611f6201525f8181610bfc01528181610d6001528181610fa601528181611401015281816114dc015281816115e6015281816118a301528181611a4101528181611b4e01528181611be501528181611c860152818161208e01528181612143015261229101525f61237d01525f61235501525f6112b301525f61128d01525f61126701525f61124101525f6107ff01525f818161158001528181611e95015261230001525f8181610ddc015281816110cd0152818161155a01528181611e6a01526122d401525f818161095701528181610f01015281816114a101526119de01525f818161093601528181610ec40152818161147b0152818161169b01528181611923015261199401525f610ad801525f61055601525f81816107a50152818161121201528181611ed80152611f0901525f818161098901528181610e2d015261110d01526139d85ff3fe6080604052600436106102d2575f3560e01c806301ffc9a7146102d657806306fdde031461031b578063095ea7b31461033c5780630b89f1821461035b57806316a0b3e01461037a57806318160ddd146103a757806318b6eb55146103bb5780631c149e28146103f357806323b872dd1461041257806323de6651146104315780632569296214610452578063273c1adf1461045a5780632754888d1461046d57806330adf81f146104a4578063313ce567146104c4578063351a964d146104df5780633644e515146104f357806338be241d1461050757806345421ec7146105295780634837c59614610548578063483aac9b146105835780634e5bb408146105b55780635211fa771461060f57806354d1f13d1461063057806354fd4d50146106385780635687f2b81461064c578063627cdcb91461066b578063654cf15d1461067f578063679aefce1461069957806369a7ad8c146106ad57806370a08231146106ce578063715018a6146106ed57806372c98186146106f557806379ba5097146107145780637ecebe001461072857806381fa807c1461074757806384b0196e1461077057806386a2d875146107975780638d928af8146107c95780638da5cb5b146107dd57806395146efb146107f157806395d89b4114610823578063976907cc14610837578063984de9e814610860578063a0e8f5ac1461087f578063a9059cbb146108a3578063aa6ca808146108c2578063aaff392c146108e3578063abb1dc4414610904578063ae3ecc6414610928578063af905d151461097b578063b156aa0a146109ad578063b677fa56146109ce578063ba5f9f40146109e0578063ce20ece7146109ce578063d335b0cf146109ff578063d505accf14610a13578063d77153a714610a32578063dd62ed3e14610a97578063e30c397814610ab6578063e594203d14610aca578063f04e283e14610afc578063f2fde38b14610b0f578063fee81cf414610b22575b5f5ffd5b3480156102e1575f5ffd5b506103066102f0366004612590565b6001600160e01b0319166301ffc9a760e01b1490565b60405190151581526020015b60405180910390f35b348015610326575f5ffd5b5061032f610b53565b60405161031291906125e5565b348015610347575f5ffd5b5061030661035636600461261b565b610be3565b348015610366575f5ffd5b50610306610375366004612774565b610c81565b348015610385575f5ffd5b50610399610394366004612904565b610d2d565b604051908152602001610312565b3480156103b2575f5ffd5b50610399610d47565b3480156103c6575f5ffd5b506103dc6103d536600461294d565b505f908190565b604080519215158352602083019190915201610312565b3480156103fe575f5ffd5b5061030661040d3660046129ef565b610dd9565b34801561041d575f5ffd5b5061030661042c366004612a52565b610f70565b34801561043c575f5ffd5b5061045061044b366004612a52565b611012565b005b61045061106c565b348015610465575f5ffd5b505f19610399565b348015610478575f5ffd5b50610496610487366004612a9e565b5f839850989650505050505050565b604051610312929190612bc7565b3480156104af575f5ffd5b506103995f5160206139835f395f51905f5281565b3480156104cf575f5ffd5b5060405160128152602001610312565b3480156104ea575f5ffd5b506103066110b8565b3480156104fe575f5ffd5b506103996110c1565b348015610512575f5ffd5b50610306610521366004612be1565b5f9392505050565b348015610534575f5ffd5b50610306610543366004612c5a565b6110ca565b348015610553575f5ffd5b507f00000000000000000000000000000000000000000000000000000000000000005b6040516103129190612d21565b34801561058e575f5ffd5b507f0000000000000000000000000000000000000000000000000000000000000000610399565b3480156105c0575f5ffd5b506105c96111cf565b604051610312919081516001600160a01b031681526020808301519082015260408083015190820152606080830151908201526080918201519181019190915260a00190565b34801561061a575f5ffd5b50610306610629366004612d45565b5f92915050565b6104506112da565b348015610643575f5ffd5b5061032f611313565b348015610657575f5ffd5b50610450610666366004612a52565b611322565b348015610676575f5ffd5b5061045061136f565b34801561068a575f5ffd5b5067016345785d8a0000610399565b3480156106a4575f5ffd5b5061039961137b565b3480156106b8575f5ffd5b506106c16113af565b6040516103129190612dcc565b3480156106d9575f5ffd5b506103996106e8366004612e44565b6115cd565b61045061165c565b348015610700575f5ffd5b5061039961070f366004612e5f565b61166f565b34801561071f575f5ffd5b50610450611759565b348015610733575f5ffd5b50610399610742366004612e44565b61179e565b348015610752575f5ffd5b5061075b6117bb565b60408051928352602083019190915201610312565b34801561077b575f5ffd5b5061078461185f565b6040516103129796959493929190612f33565b3480156107a2575f5ffd5b507f0000000000000000000000000000000000000000000000000000000000000000610576565b3480156107d4575f5ffd5b506105766118a1565b3480156107e8575f5ffd5b506105766118c5565b3480156107fc575f5ffd5b507f0000000000000000000000000000000000000000000000000000000000000000610306565b34801561082e575f5ffd5b5061032f6118d3565b348015610842575f5ffd5b50610496610851366004612fa2565b5f849850989650505050505050565b34801561086b575f5ffd5b5061039961087a36600461304e565b6118e2565b34801561088a575f5ffd5b506103dc610899366004613091565b5f80935093915050565b3480156108ae575f5ffd5b506103066108bd36600461261b565b611a28565b3480156108cd575f5ffd5b506108d6611a7a565b60405161031291906130d5565b3480156108ee575f5ffd5b506108f7611b0a565b60405161031291906130e7565b34801561090f575f5ffd5b50610918611d36565b604051610312949392919061316c565b348015610933575f5ffd5b507f00000000000000000000000000000000000000000000000000000000000000007f000000000000000000000000000000000000000000000000000000000000000061075b565b348015610986575f5ffd5b507f0000000000000000000000000000000000000000000000000000000000000000610576565b3480156109b8575f5ffd5b506109c1611dd7565b604051610312919061322d565b3480156109d9575f5ffd5b505f610399565b3480156109eb575f5ffd5b506103066109fa36600461323f565b611e67565b348015610a0a575f5ffd5b50610399611f49565b348015610a1e575f5ffd5b50610450610a2d3660046132c4565b611f97565b348015610a3d575f5ffd5b5060408051610140810182525f808252818301819052606082018190526080820181905260a0820181905260e0820181905261012082015260016020820181905260c0820181905261010082015290516103129190613335565b348015610aa2575f5ffd5b50610399610ab13660046133fe565b612114565b348015610ac1575f5ffd5b506105766121b5565b348015610ad5575f5ffd5b507f0000000000000000000000000000000000000000000000000000000000000000610576565b610450610b0a366004612e44565b6121c3565b610450610b1d366004612e44565b6121fd565b348015610b2d575f5ffd5b50610399610b3c366004612e44565b63389a75e1600c9081525f91909152602090205490565b606060048054610b629061342a565b80601f0160208091040260200160405190810160405280929190818152602001828054610b8e9061342a565b8015610bd95780601f10610bb057610100808354040283529160200191610bd9565b820191905f5260205f20905b815481529060010190602001808311610bbc57829003601f168201915b5050505050905090565b60405163e1f21c6760e01b81525f906001600160a01b037f0000000000000000000000000000000000000000000000000000000000000000169063e1f21c6790610c359033908790879060040161345c565b6020604051808303815f875af1158015610c51573d5f5f3e3d5ffd5b505050506040513d601f19601f82011682018060405250810190610c75919061348b565b50600190505b92915050565b5f610c8e60028451612262565b5f835f81518110610ca157610ca16134a6565b6020026020010151602001516001811115610cbe57610cbe613158565b141580610cfa57505f83600181518110610cda57610cda6134a6565b6020026020010151602001516001811115610cf757610cf7613158565b14155b15610d1857604051636fa2831960e11b815260040160405180910390fd5b506001600160a01b0383163014949350505050565b5f604051639ba6061b60e01b815260040160405180910390fd5b6040516339370aa960e21b81525f906001600160a01b037f0000000000000000000000000000000000000000000000000000000000000000169063e4dc2aa490610d95903090600401612d21565b602060405180830381865afa158015610db0573d5f5f3e3d5ffd5b505050506040513d601f19601f82011682018060405250810190610dd491906134ba565b905090565b5f7f00000000000000000000000000000000000000000000000000000000000000004210610e1a57604051633eee08c760e01b815260040160405180910390fd5b610e226118c5565b6001600160a01b03167f00000000000000000000000000000000000000000000000000000000000000006001600160a01b0316635e01eb5a6040518163ffffffff1660e01b8152600401602060405180830381865afa158015610e87573d5f5f3e3d5ffd5b505050506040513d601f19601f82011682018060405250810190610eab91906134d1565b6001600160a01b031614610ec057505f610c7b565b5f837f000000000000000000000000000000000000000000000000000000000000000081518110610ef357610ef36134a6565b602002602001015190505f847f000000000000000000000000000000000000000000000000000000000000000081518110610f3057610f306134a6565b60200260200101519050815f1480610f4757508015155b15610f655760405163fc3e9be760e01b815260040160405180910390fd5b506001949350505050565b604051630aed65f560e11b81523360048201526001600160a01b0384811660248301528381166044830152606482018390525f917f0000000000000000000000000000000000000000000000000000000000000000909116906315dacbea906084016020604051808303815f875af1158015610fee573d5f5f3e3d5ffd5b505050506040513d601f19601f82011682018060405250810190610f65919061348b565b61101a612286565b816001600160a01b0316836001600160a01b03167fddf252ad1be2c89b69c2b068fc378daa952ba7f163c4a11628f55a4df523b3ef8360405161105f91815260200190565b60405180910390a3505050565b5f6202a3006001600160401b03164201905063389a75e1600c52335f52806020600c2055337fdbf36a107da19e49527a7176a1babf963b4b0ff8cde35ee35d6cd8f1f9ac7e1d5f5fa250565b5f610dd46122d1565b5f610dd4612325565b5f7f0000000000000000000000000000000000000000000000000000000000000000421061110b57604051633eee08c760e01b815260040160405180910390fd5b7f00000000000000000000000000000000000000000000000000000000000000006001600160a01b0316886001600160a01b03161480156111c3575061114f6118c5565b6001600160a01b0316886001600160a01b0316635e01eb5a6040518163ffffffff1660e01b8152600401602060405180830381865afa158015611194573d5f5f3e3d5ffd5b505050506040513d601f19601f820116820180604052508101906111b891906134d1565b6001600160a01b0316145b98975050505050505050565b6112056040518060a001604052805f6001600160a01b031681526020015f81526020015f81526020015f81526020015f81525090565b6040518060a001604052807f00000000000000000000000000000000000000000000000000000000000000006001600160a01b031681526020017f000000000000000000000000000000000000000000000000000000000000000081526020017f000000000000000000000000000000000000000000000000000000000000000081526020017f000000000000000000000000000000000000000000000000000000000000000081526020017f0000000000000000000000000000000000000000000000000000000000000000815250905090565b63389a75e1600c52335f525f6020600c2055337ffa7b8eab7da67f412cc9575ed43464468f9bfbae89d1675917346ca6d8fe3c925f5fa2565b606060068054610b629061342a565b61132a612286565b816001600160a01b0316836001600160a01b03167f8c5be1e5ebec7d5bd14f71427d1e84f3dd0314c0f7b2291e5b200ac8c7c3b9258360405161105f91815260200190565b611378336123cd565b50565b5f6113846118a1565b6001600160a01b0316634f037ee7306040518263ffffffff1660e01b8152600401610d959190612d21565b6113ea6040518060e0016040528060608152602001606081526020015f81526020015f81526020015f81526020015f81526020015f81525090565b60405163ca4f280360e01b81526001600160a01b037f0000000000000000000000000000000000000000000000000000000000000000169063ca4f280390611436903090600401612d21565b5f60405180830381865afa158015611450573d5f5f3e3d5ffd5b505050506040513d5f823e601f3d908101601f191682016040526114779190810190613550565b81527f000000000000000000000000000000000000000000000000000000000000000060808201527f000000000000000000000000000000000000000000000000000000000000000060a0820152604051633f1b0def60e11b81526001600160a01b037f00000000000000000000000000000000000000000000000000000000000000001690637e361bde90611511903090600401612d21565b5f60405180830381865afa15801561152b573d5f5f3e3d5ffd5b505050506040513d5f823e601f3d908101601f1916820160405261155291908101906135dc565b5060208201527f000000000000000000000000000000000000000000000000000000000000000060408201527f000000000000000000000000000000000000000000000000000000000000000060608201527f000000000000000000000000000000000000000000000000000000000000000060c082015290565b604051633de222bb60e21b81525f906001600160a01b037f0000000000000000000000000000000000000000000000000000000000000000169063f7888aec9061161d9030908690600401613637565b602060405180830381865afa158015611638573d5f5f3e3d5ffd5b505050506040513d601f19601f82011682018060405250810190610c7b91906134ba565b6116646123ef565b61166d5f61242a565b565b5f6116786122d1565b15155f036116995760405163fdf7984560e01b815260040160405180910390fd5b7f00000000000000000000000000000000000000000000000000000000000000008260600151036116dd57604051630934a1c560e11b815260040160405180910390fd5b5f825160018111156116f1576116f1613158565b1461172a576020820151611725907f0000000000000000000000000000000000000000000000000000000000000000612467565b610c7b565b6020820151610c7b907f0000000000000000000000000000000000000000000000000000000000000000612493565b33806117636121b5565b6001600160a01b031614611795578060405163118cdaa760e01b815260040161178c9190612d21565b60405180910390fd5b611378816124b3565b6001600160a01b0381165f90815260036020526040812054610c7b565b5f5f5f7f00000000000000000000000000000000000000000000000000000000000000006001600160a01b031663f29486a1306040518263ffffffff1660e01b815260040161180a9190612d21565b6101a060405180830381865afa158015611826573d5f5f3e3d5ffd5b505050506040513d601f19601f8201168201806040525081019061184a91906136de565b90508060400151925080606001519150509091565b5f6060805f5f5f60606118706124cb565b6118786124da565b604080515f80825260208201909252600f60f81b9b939a50919850469750309650945092509050565b7f000000000000000000000000000000000000000000000000000000000000000090565b5f610dd4638b78c6d8195490565b606060058054610b629061342a565b5f80808360018111156118f7576118f7613158565b1461196d576119687f0000000000000000000000000000000000000000000000000000000000000000857f000000000000000000000000000000000000000000000000000000000000000081518110611952576119526134a6565b60200260200101516124e990919063ffffffff16565b6119d9565b6119d97f0000000000000000000000000000000000000000000000000000000000000000857f0000000000000000000000000000000000000000000000000000000000000000815181106119c3576119c36134a6565b602002602001015161246790919063ffffffff16565b9050837f000000000000000000000000000000000000000000000000000000000000000081518110611a0d57611a0d6134a6565b602002602001015181611a2091906137ab565b949350505050565b6040516317d5759960e31b81525f906001600160a01b037f0000000000000000000000000000000000000000000000000000000000000000169063beabacc890610c359033908790879060040161345c565b60405163ca4f280360e01b81526060906001600160a01b037f0000000000000000000000000000000000000000000000000000000000000000169063ca4f280390611ac9903090600401612d21565b5f60405180830381865afa158015611ae3573d5f5f3e3d5ffd5b505050506040513d5f823e601f3d908101601f19168201604052610dd49190810190613550565b6040805160e08101825260608082525f602083018190528284018190529082018190526080820181905260a0820181905260c082015290516329ae7ec560e11b81527f00000000000000000000000000000000000000000000000000000000000000006001600160a01b03169063535cfd8a90611b8b903090600401612d21565b5f60405180830381865afa158015611ba5573d5f5f3e3d5ffd5b505050506040513d5f823e601f3d908101601f19168201604052611bcc91908101906137be565b815260405163b45090f960e01b81526001600160a01b037f0000000000000000000000000000000000000000000000000000000000000000169063b45090f990611c1a903090600401612d21565b602060405180830381865afa158015611c35573d5f5f3e3d5ffd5b505050506040513d601f19601f82011682018060405250810190611c5991906134ba565b6020820152611c66610d47565b6040808301919091525163f29486a160e01b81525f906001600160a01b037f0000000000000000000000000000000000000000000000000000000000000000169063f29486a190611cbb903090600401612d21565b6101a060405180830381865afa158015611cd7573d5f5f3e3d5ffd5b505050506040513d601f19601f82011682018060405250810190611cfb91906136de565b60e08101511515606084015261010081015115156080840152610120810151151560a08401529050611d2b6122d1565b151560c08301525090565b6060806060807f00000000000000000000000000000000000000000000000000000000000000006001600160a01b03166367e0e076306040518263ffffffff1660e01b8152600401611d889190612d21565b5f60405180830381865afa158015611da2573d5f5f3e3d5ffd5b505050506040513d5f823e601f3d908101601f19168201604052611dc991908101906137ef565b935093509350935090919293565b6040516329ae7ec560e11b81526060906001600160a01b037f0000000000000000000000000000000000000000000000000000000000000000169063535cfd8a90611e26903090600401612d21565b5f60405180830381865afa158015611e40573d5f5f3e3d5ffd5b505050506040513d5f823e601f3d908101601f19168201604052610dd491908101906137be565b5f7f00000000000000000000000000000000000000000000000000000000000000004210158015611eb857507f00000000000000000000000000000000000000000000000000000000000000004211155b15611ed657604051630f38b57760e41b815260040160405180910390fd5b7f00000000000000000000000000000000000000000000000000000000000000006001600160a01b031615806111c357507f00000000000000000000000000000000000000000000000000000000000000006001600160a01b0316886001600160a01b0316149050979650505050505050565b60405163b45090f960e01b81525f906001600160a01b037f0000000000000000000000000000000000000000000000000000000000000000169063b45090f990610d95903090600401612d21565b83421115611fbb5760405163313c898160e11b81526004810185905260240161178c565b5f5f5160206139835f395f51905f52888888611fd68c6123cd565b6040805160208101969096526001600160a01b0394851690860152929091166060840152608083015260a082015260c0810186905260e0016040516020818303038152906040528051906020012090505f61203082612509565b90505f61203f82878787612535565b9050896001600160a01b0316816001600160a01b03161461207757808a6040516325c0072360e11b815260040161178c929190613637565b60405163e1f21c6760e01b81526001600160a01b037f0000000000000000000000000000000000000000000000000000000000000000169063e1f21c67906120c7908d908d908d9060040161345c565b6020604051808303815f875af11580156120e3573d5f5f3e3d5ffd5b505050506040513d601f19601f82011682018060405250810190612107919061348b565b5050505050505050505050565b60405163927da10560e01b81523060048201526001600160a01b03838116602483015282811660448301525f917f00000000000000000000000000000000000000000000000000000000000000009091169063927da10590606401602060405180830381865afa15801561218a573d5f5f3e3d5ffd5b505050506040513d601f19601f820116820180604052508101906121ae91906134ba565b9392505050565b5f546001600160a01b031690565b6121cb6123ef565b63389a75e1600c52805f526020600c2080544211156121f157636f5e88185f526004601cfd5b5f90556113788161242a565b6122056123ef565b5f80546001600160a01b0319166001600160a01b03831690811790915561222a6118c5565b6001600160a01b03167f38d16b8cac22d99fc7c124b9cd0de2d3fa1faef420bfe791d8c362d765e2270060405160405180910390a350565b8082146122825760405163aaad13f760e01b815260040160405180910390fd5b5050565b336001600160a01b037f0000000000000000000000000000000000000000000000000000000000000000161461166d573360405163089676d560e01b815260040161178c9190612d21565b5f7f00000000000000000000000000000000000000000000000000000000000000004210158015610dd45750507f000000000000000000000000000000000000000000000000000000000000000042111590565b5f610dd4604080517f8b73c3c69bb8fe3d512ecc4cf759cc79239f7b179b0ffacaa9a75d522b39400f60208201527f0000000000000000000000000000000000000000000000000000000000000000918101919091527f000000000000000000000000000000000000000000000000000000000000000060608201524660808201523060a08201525f9060c00160405160208183030381529060405280519060200120905090565b6001600160a01b03165f90815260036020526040902080546001810190915590565b6123f76118c5565b6001600160a01b0316336001600160a01b03161461166d573360405163118cdaa760e01b815260040161178c9190612d21565b638b78c6d81980546001600160a01b039092169182907f8be0079c531659141344cd1fd0a4f28419497f9722a3daafe3b4186f6b6457e05f80a355565b5f80612473838561394c565b90506001670de0b6b3a76400006001830304018115150291505092915050565b5f806124a7670de0b6b3a76400008561394c565b9050611a208382613963565b5f80546001600160a01b03191690556113788161242a565b606060018054610b629061342a565b606060028054610b629061342a565b5f806124f5838561394c565b9050611a20670de0b6b3a764000082613963565b5f610c7b612515612325565b8360405161190160f01b8152600281019290925260228201526042902090565b5f6125428585858561254b565b95945050505050565b5f604051855f5260ff851660205283604052826060526020600160805f60015afa5191503d61258157638baa579f5f526004601cfd5b5f606052604052949350505050565b5f602082840312156125a0575f5ffd5b81356001600160e01b0319811681146121ae575f5ffd5b5f81518084528060208401602086015e5f602082860101526020601f19601f83011685010191505092915050565b602081525f6121ae60208301846125b7565b6001600160a01b0381168114611378575f5ffd5b8035612616816125f7565b919050565b5f5f6040838503121561262c575f5ffd5b8235612637816125f7565b946020939093013593505050565b634e487b7160e01b5f52604160045260245ffd5b604051608081016001600160401b038111828210171561267b5761267b612645565b60405290565b60405160e081016001600160401b038111828210171561267b5761267b612645565b60405161014081016001600160401b038111828210171561267b5761267b612645565b604051606081016001600160401b038111828210171561267b5761267b612645565b604051601f8201601f191681016001600160401b038111828210171561271057612710612645565b604052919050565b5f6001600160401b0382111561273057612730612645565b5060051b60200190565b60028110611378575f5ffd5b80356126168161273a565b8015158114611378575f5ffd5b5f6080828403121561276e575f5ffd5b50919050565b5f5f5f5f60e08587031215612787575f5ffd5b8435612792816125f7565b935060208501356127a2816125f7565b925060408501356001600160401b038111156127bc575f5ffd5b8501601f810187136127cc575f5ffd5b80356127df6127da82612718565b6126e8565b8082825260208201915060208360071b850101925089831115612800575f5ffd5b6020840193505b82841015612880576080848b03121561281e575f5ffd5b612826612659565b8435612831816125f7565b815260208501356128418161273a565b60208201526040850135612854816125f7565b6040820152606085013561286781612751565b6060820152825260809390930192602090910190612807565b80955050505050612894866060870161275e565b905092959194509250565b5f82601f8301126128ae575f5ffd5b81356128bc6127da82612718565b8082825260208201915060208360051b8601019250858311156128dd575f5ffd5b602085015b838110156128fa5780358352602092830192016128e2565b5095945050505050565b5f5f5f60608486031215612916575f5ffd5b83356001600160401b0381111561292b575f5ffd5b6129378682870161289f565b9660208601359650604090950135949350505050565b5f6020828403121561295d575f5ffd5b81356001600160401b03811115612972575f5ffd5b820161018081850312156121ae575f5ffd5b5f82601f830112612993575f5ffd5b81356001600160401b038111156129ac576129ac612645565b6129bf601f8201601f19166020016126e8565b8181528460208386010111156129d3575f5ffd5b816020850160208301375f918101602001919091529392505050565b5f5f60408385031215612a00575f5ffd5b82356001600160401b03811115612a15575f5ffd5b612a218582860161289f565b92505060208301356001600160401b03811115612a3c575f5ffd5b612a4885828601612984565b9150509250929050565b5f5f5f60608486031215612a64575f5ffd5b8335612a6f816125f7565b92506020840135612a7f816125f7565b929592945050506040919091013590565b803560048110612616575f5ffd5b5f5f5f5f5f5f5f5f610100898b031215612ab6575f5ffd5b612abf8961260b565b9750612acd60208a0161260b565b9650612adb60408a01612a90565b95506060890135945060808901356001600160401b03811115612afc575f5ffd5b612b088b828c0161289f565b94505060a08901356001600160401b03811115612b23575f5ffd5b612b2f8b828c0161289f565b93505060c08901356001600160401b03811115612b4a575f5ffd5b612b568b828c0161289f565b92505060e08901356001600160401b03811115612b71575f5ffd5b612b7d8b828c01612984565b9150509295985092959890939650565b5f8151808452602084019350602083015f5b82811015612bbd578151865260209586019590910190600101612b9f565b5093949350505050565b8215158152604060208201525f611a206040830184612b8d565b5f5f5f60608486031215612bf3575f5ffd5b83356001600160401b03811115612c08575f5ffd5b612c148682870161289f565b9350506020840135915060408401356001600160401b03811115612c36575f5ffd5b612c4286828701612984565b9150509250925092565b803560058110612616575f5ffd5b5f5f5f5f5f5f5f60e0888a031215612c70575f5ffd5b8735612c7b816125f7565b9650612c896020890161260b565b9550612c9760408901612c4c565b945060608801356001600160401b03811115612cb1575f5ffd5b612cbd8a828b0161289f565b9450506080880135925060a08801356001600160401b03811115612cdf575f5ffd5b612ceb8a828b0161289f565b92505060c08801356001600160401b03811115612d06575f5ffd5b612d128a828b01612984565b91505092959891949750929550565b6001600160a01b0391909116815260200190565b5f60e0828403121561276e575f5ffd5b5f5f60408385031215612d56575f5ffd5b82356001600160401b03811115612d6b575f5ffd5b612d7785828601612d35565b9250506020830135612d88816125f7565b809150509250929050565b5f8151808452602084019350602083015f5b82811015612bbd5781516001600160a01b0316865260209586019590910190600101612da5565b602081525f825160e06020840152612de8610100840182612d93565b90506020840151601f19848303016040850152612e058282612b8d565b9150506040840151606084015260608401516080840152608084015160a084015260a084015160c084015260c084015160e08401528091505092915050565b5f60208284031215612e54575f5ffd5b81356121ae816125f7565b5f60208284031215612e6f575f5ffd5b81356001600160401b03811115612e84575f5ffd5b820160e08185031215612e95575f5ffd5b612e9d612681565b612ea682612746565b81526020828101359082015260408201356001600160401b03811115612eca575f5ffd5b612ed68682850161289f565b6040830152506060828101359082015260808083013590820152612efc60a0830161260b565b60a082015260c08201356001600160401b03811115612f19575f5ffd5b612f2586828501612984565b60c083015250949350505050565b60ff60f81b8816815260e060208201525f612f5160e08301896125b7565b8281036040840152612f6381896125b7565b606084018890526001600160a01b038716608085015260a0840186905283810360c08501529050612f948185612b8d565b9a9950505050505050505050565b5f5f5f5f5f5f5f5f610100898b031215612fba575f5ffd5b612fc38961260b565b9750612fd160208a0161260b565b9650612fdf60408a01612c4c565b955060608901356001600160401b03811115612ff9575f5ffd5b6130058b828c0161289f565b95505060808901356001600160401b03811115613020575f5ffd5b61302c8b828c0161289f565b94505060a0890135925060c08901356001600160401b03811115612b4a575f5ffd5b5f5f6040838503121561305f575f5ffd5b82356001600160401b03811115613074575f5ffd5b6130808582860161289f565b9250506020830135612d888161273a565b5f5f5f606084860312156130a3575f5ffd5b83356001600160401b038111156130b8575f5ffd5b6130c486828701612d35565b9350506020840135612a7f816125f7565b602081525f6121ae6020830184612d93565b602081525f825160e06020840152613103610100840182612b8d565b905060208401516040840152604084015160608401526060840151151560808401526080840151151560a084015260a0840151151560c084015260c084015161315060e085018215159052565b509392505050565b634e487b7160e01b5f52602160045260245ffd5b608081525f61317e6080830187612d93565b82810360208401528086518083526020830191506020880192505f5b818110156131f95783518051600281106131c257634e487b7160e01b5f52602160045260245ffd5b84526020818101516001600160a01b031681860152604091820151151591850191909152939093019260609092019160010161319a565b5050838103604085015261320d8187612b8d565b91505082810360608401526132228185612b8d565b979650505050505050565b602081525f6121ae6020830184612b8d565b5f5f5f5f5f5f5f60e0888a031215613255575f5ffd5b8735613260816125f7565b965061326e6020890161260b565b955061327c60408901612a90565b94506060880135935060808801356001600160401b0381111561329d575f5ffd5b6132a98a828b0161289f565b93505060a08801356001600160401b03811115612cdf575f5ffd5b5f5f5f5f5f5f5f60e0888a0312156132da575f5ffd5b87356132e5816125f7565b965060208801356132f5816125f7565b95506040880135945060608801359350608088013560ff81168114613318575f5ffd5b9699959850939692959460a0840135945060c09093013592915050565b81511515815261014081016020830151613353602084018215159052565b506040830151613367604084018215159052565b50606083015161337b606084018215159052565b50608083015161338f608084018215159052565b5060a08301516133a360a084018215159052565b5060c08301516133b760c084018215159052565b5060e08301516133cb60e084018215159052565b506101008301516133e161010084018215159052565b506101208301516133f761012084018215159052565b5092915050565b5f5f6040838503121561340f575f5ffd5b823561341a816125f7565b91506020830135612d88816125f7565b600181811c9082168061343e57607f821691505b60208210810361276e57634e487b7160e01b5f52602260045260245ffd5b6001600160a01b039384168152919092166020820152604081019190915260600190565b805161261681612751565b5f6020828403121561349b575f5ffd5b81516121ae81612751565b634e487b7160e01b5f52603260045260245ffd5b5f602082840312156134ca575f5ffd5b5051919050565b5f602082840312156134e1575f5ffd5b81516121ae816125f7565b5f82601f8301126134fb575f5ffd5b81516135096127da82612718565b8082825260208201915060208360051b86010192508583111561352a575f5ffd5b602085015b838110156128fa578051613542816125f7565b83526020928301920161352f565b5f60208284031215613560575f5ffd5b81516001600160401b03811115613575575f5ffd5b611a20848285016134ec565b5f82601f830112613590575f5ffd5b815161359e6127da82612718565b8082825260208201915060208360051b8601019250858311156135bf575f5ffd5b602085015b838110156128fa5780518352602092830192016135c4565b5f5f604083850312156135ed575f5ffd5b82516001600160401b03811115613602575f5ffd5b61360e85828601613581565b602085015190935090506001600160401b0381111561362b575f5ffd5b612a4885828601613581565b6001600160a01b0392831681529116602082015260400190565b5f60808284031215613661575f5ffd5b613669612659565b9050815161367681612751565b8152602082015161368681612751565b6020820152604082015161369981612751565b604082015260608201516136ac81612751565b606082015292915050565b805164ffffffffff81168114612616575f5ffd5b805163ffffffff81168114612616575f5ffd5b5f6101a08284031280156136f0575f5ffd5b506136f96126a3565b6137038484613651565b81526080830151602082015260a0830151604082015260c0830151606082015261372f60e084016136b7565b608082015261374161010084016136cb565b60a08201526137536101208401613480565b60c08201526137656101408401613480565b60e08201526137776101608401613480565b61010082015261378a6101808401613480565b6101208201529392505050565b634e487b7160e01b5f52601160045260245ffd5b80820180821115610c7b57610c7b613797565b5f602082840312156137ce575f5ffd5b81516001600160401b038111156137e3575f5ffd5b611a2084828501613581565b5f5f5f5f60808587031215613802575f5ffd5b84516001600160401b03811115613817575f5ffd5b613823878288016134ec565b602087015190955090506001600160401b03811115613840575f5ffd5b8501601f81018713613850575f5ffd5b805161385e6127da82612718565b8082825260208201915060206060840285010192508983111561387f575f5ffd5b6020840193505b828410156138ec576060848b03121561389d575f5ffd5b6138a56126c6565b84516138b08161273a565b815260208501516138c0816125f7565b602082015260408501516138d381612751565b6040820152825260609390930192602090910190613886565b6040890151909650925050506001600160401b0381111561390b575f5ffd5b61391787828801613581565b606087015190935090506001600160401b03811115613934575f5ffd5b61394087828801613581565b91505092959194509250565b8082028115828204841417610c7b57610c7b613797565b5f8261397d57634e487b7160e01b5f52601260045260245ffd5b50049056fe6e71edae12b1b97f4d1f60370fef10105fa2faae0126114a169c64845d6126c9a264697066735822122024499254ddb5f778d912f85bb56e954ad3ef2680d377c6d8a8bb15d10d11869764736f6c634300081e0033","linkReferences":{}},"methodIdentifiers":{"DOMAIN_SEPARATOR()":"3644e515","PERMIT_TYPEHASH()":"30adf81f","acceptOwnership()":"79ba5097","allowance(address,address)":"dd62ed3e","approve(address,uint256)":"095ea7b3","balanceOf(address)":"70a08231","cancelOwnershipHandover()":"54d1f13d","completeOwnershipHandover(address)":"f04e283e","computeBalance(uint256[],uint256,uint256)":"16a0b3e0","computeInvariant(uint256[],uint8)":"984de9e8","decimals()":"313ce567","eip712Domain()":"84b0196e","emitApproval(address,address,uint256)":"5687f2b8","emitTransfer(address,address,uint256)":"23de6651","getAggregateFeePercentages()":"81fa807c","getCurrentLiveBalances()":"b156aa0a","getFixedPriceLBPoolDynamicData()":"aaff392c","getFixedPriceLBPoolImmutableData()":"69a7ad8c","getHookFlags()":"d77153a7","getMaximumInvariantRatio()":"273c1adf","getMaximumSwapFeePercentage()":"654cf15d","getMigrationParameters()":"4e5bb408","getMigrationRouter()":"86a2d875","getMinimumInvariantRatio()":"b677fa56","getMinimumSwapFeePercentage()":"ce20ece7","getProjectToken()":"4837c596","getProjectTokenRate()":"483aac9b","getRate()":"679aefce","getReserveToken()":"e594203d","getStaticSwapFeePercentage()":"d335b0cf","getTokenIndices()":"ae3ecc64","getTokenInfo()":"abb1dc44","getTokens()":"aa6ca808","getTrustedRouter()":"af905d15","getVault()":"8d928af8","incrementNonce()":"627cdcb9","isProjectTokenSwapInBlocked()":"95146efb","isSwapEnabled()":"351a964d","name()":"06fdde03","nonces(address)":"7ecebe00","onAfterAddLiquidity(address,address,uint8,uint256[],uint256[],uint256,uint256[],bytes)":"976907cc","onAfterInitialize(uint256[],uint256,bytes)":"38be241d","onAfterRemoveLiquidity(address,address,uint8,uint256,uint256[],uint256[],uint256[],bytes)":"2754888d","onAfterSwap((uint8,address,address,uint256,uint256,uint256,uint256,uint256,uint256,address,address,bytes))":"18b6eb55","onBeforeAddLiquidity(address,address,uint8,uint256[],uint256,uint256[],bytes)":"45421ec7","onBeforeInitialize(uint256[],bytes)":"1c149e28","onBeforeRemoveLiquidity(address,address,uint8,uint256,uint256[],uint256[],bytes)":"ba5f9f40","onBeforeSwap((uint8,uint256,uint256[],uint256,uint256,address,bytes),address)":"5211fa77","onComputeDynamicSwapFeePercentage((uint8,uint256,uint256[],uint256,uint256,address,bytes),address,uint256)":"a0e8f5ac","onRegister(address,address,(address,uint8,address,bool)[],(bool,bool,bool,bool))":"0b89f182","onSwap((uint8,uint256,uint256[],uint256,uint256,address,bytes))":"72c98186","owner()":"8da5cb5b","ownershipHandoverExpiresAt(address)":"fee81cf4","pendingOwner()":"e30c3978","permit(address,address,uint256,uint256,uint8,bytes32,bytes32)":"d505accf","renounceOwnership()":"715018a6","requestOwnershipHandover()":"25692962","supportsInterface(bytes4)":"01ffc9a7","symbol()":"95d89b41","totalSupply()":"18160ddd","transfer(address,uint256)":"a9059cbb","transferFrom(address,address,uint256)":"23b872dd","transferOwnership(address)":"f2fde38b","version()":"54fd4d50"},"id":198}