{"abi":[{"type":"function","name":"allowance","inputs":[{"name":"owner","type":"address","internalType":"address"},{"name":"spender","type":"address","internalType":"address"}],"outputs":[{"name":"","type":"uint256","internalType":"uint256"}],"stateMutability":"view"},{"type":"function","name":"approve","inputs":[{"name":"spender","type":"address","internalType":"address"},{"name":"amount","type":"uint256","internalType":"uint256"}],"outputs":[{"name":"","type":"bool","internalType":"bool"}],"stateMutability":"nonpayable"},{"type":"function","name":"balanceOf","inputs":[{"name":"account","type":"address","internalType":"address"}],"outputs":[{"name":"","type":"uint256","internalType":"uint256"}],"stateMutability":"view"},{"type":"function","name":"decimals","inputs":[],"outputs":[{"name":"","type":"uint8","internalType":"uint8"}],"stateMutability":"pure"},{"type":"function","name":"emitApproval","inputs":[{"name":"owner","type":"address","internalType":"address"},{"name":"spender","type":"address","internalType":"address"},{"name":"amount","type":"uint256","internalType":"uint256"}],"outputs":[],"stateMutability":"nonpayable"},{"type":"function","name":"emitTransfer","inputs":[{"name":"from","type":"address","internalType":"address"},{"name":"to","type":"address","internalType":"address"},{"name":"amount","type":"uint256","internalType":"uint256"}],"outputs":[],"stateMutability":"nonpayable"},{"type":"function","name":"facetFuncs","inputs":[],"outputs":[{"name":"funcs","type":"bytes4[]","internalType":"bytes4[]"}],"stateMutability":"pure"},{"type":"function","name":"facetInterfaces","inputs":[],"outputs":[{"name":"interfaces","type":"bytes4[]","internalType":"bytes4[]"}],"stateMutability":"pure"},{"type":"function","name":"facetMetadata","inputs":[],"outputs":[{"name":"name_","type":"string","internalType":"string"},{"name":"interfaceIds","type":"bytes4[]","internalType":"bytes4[]"},{"name":"functions","type":"bytes4[]","internalType":"bytes4[]"}],"stateMutability":"pure"},{"type":"function","name":"facetName","inputs":[],"outputs":[{"name":"","type":"string","internalType":"string"}],"stateMutability":"pure"},{"type":"function","name":"getActionId","inputs":[{"name":"selector","type":"bytes4","internalType":"bytes4"}],"outputs":[{"name":"","type":"bytes32","internalType":"bytes32"}],"stateMutability":"view"},{"type":"function","name":"getAggregateFeePercentages","inputs":[],"outputs":[{"name":"aggregateSwapFeePercentage","type":"uint256","internalType":"uint256"},{"name":"aggregateYieldFeePercentage","type":"uint256","internalType":"uint256"}],"stateMutability":"view"},{"type":"function","name":"getCurrentLiveBalances","inputs":[],"outputs":[{"name":"balancesLiveScaled18","type":"uint256[]","internalType":"uint256[]"}],"stateMutability":"view"},{"type":"function","name":"getMaximumInvariantRatio","inputs":[],"outputs":[{"name":"","type":"uint256","internalType":"uint256"}],"stateMutability":"view"},{"type":"function","name":"getMaximumSwapFeePercentage","inputs":[],"outputs":[{"name":"","type":"uint256","internalType":"uint256"}],"stateMutability":"view"},{"type":"function","name":"getMinimumInvariantRatio","inputs":[],"outputs":[{"name":"","type":"uint256","internalType":"uint256"}],"stateMutability":"view"},{"type":"function","name":"getMinimumSwapFeePercentage","inputs":[],"outputs":[{"name":"","type":"uint256","internalType":"uint256"}],"stateMutability":"view"},{"type":"function","name":"getRate","inputs":[],"outputs":[{"name":"","type":"uint256","internalType":"uint256"}],"stateMutability":"view"},{"type":"function","name":"getStaticSwapFeePercentage","inputs":[],"outputs":[{"name":"","type":"uint256","internalType":"uint256"}],"stateMutability":"view"},{"type":"function","name":"getTokenInfo","inputs":[],"outputs":[{"name":"tokens","type":"address[]","internalType":"contract IERC20[]"},{"name":"tokenInfo","type":"tuple[]","internalType":"struct TokenInfo[]","components":[{"name":"tokenType","type":"uint8","internalType":"enum TokenType"},{"name":"rateProvider","type":"address","internalType":"contract IRateProvider"},{"name":"paysYieldFees","type":"bool","internalType":"bool"}]},{"name":"balancesRaw","type":"uint256[]","internalType":"uint256[]"},{"name":"lastBalancesLiveScaled18","type":"uint256[]","internalType":"uint256[]"}],"stateMutability":"view"},{"type":"function","name":"getTokens","inputs":[],"outputs":[{"name":"tokens","type":"address[]","internalType":"contract IERC20[]"}],"stateMutability":"view"},{"type":"function","name":"name","inputs":[],"outputs":[{"name":"","type":"string","internalType":"string"}],"stateMutability":"pure"},{"type":"function","name":"symbol","inputs":[],"outputs":[{"name":"","type":"string","internalType":"string"}],"stateMutability":"pure"},{"type":"function","name":"totalSupply","inputs":[],"outputs":[{"name":"","type":"uint256","internalType":"uint256"}],"stateMutability":"view"},{"type":"function","name":"transfer","inputs":[{"name":"recipient","type":"address","internalType":"address"},{"name":"amount","type":"uint256","internalType":"uint256"}],"outputs":[{"name":"","type":"bool","internalType":"bool"}],"stateMutability":"nonpayable"},{"type":"function","name":"transferFrom","inputs":[{"name":"owner","type":"address","internalType":"address"},{"name":"recipient","type":"address","internalType":"address"},{"name":"amount","type":"uint256","internalType":"uint256"}],"outputs":[{"name":"","type":"bool","internalType":"bool"}],"stateMutability":"nonpayable"},{"type":"event","name":"Approval","inputs":[{"name":"owner","type":"address","indexed":true,"internalType":"address"},{"name":"spender","type":"address","indexed":true,"internalType":"address"},{"name":"amount","type":"uint256","indexed":false,"internalType":"uint256"}],"anonymous":false},{"type":"event","name":"Transfer","inputs":[{"name":"from","type":"address","indexed":true,"internalType":"address"},{"name":"to","type":"address","indexed":true,"internalType":"address"},{"name":"amount","type":"uint256","indexed":false,"internalType":"uint256"}],"anonymous":false},{"type":"error","name":"NotBalancerV3Vault","inputs":[{"name":"caller","type":"address","internalType":"address"}]},{"type":"error","name":"SenderNotAllowed","inputs":[]}],"bytecode":{"object":"0x6080604052348015600e575f5ffd5b50611a6b8061001c5f395ff3fe608060405234801561000f575f5ffd5b506004361061013c575f3560e01c806306fdde0314610140578063095ea7b31461017957806318160ddd1461019c57806323b872dd146101b257806323de6651146101c5578063273c1adf146101da5780632ea80826146101e2578063313ce567146101f75780635687f2b814610206578063574a4cff146102195780635b6f4d0114610221578063654cf15d14610229578063679aefce1461023157806370a082311461023957806381fa807c1461024c578063851c1bb31461026957806395d89b411461027c578063a9059cbb1461029b578063aa6ca808146102ae578063abb1dc44146102c3578063b156aa0a146102db578063b677fa56146102f0578063ce20ece7146102f8578063d335b0cf14610300578063dd62ed3e14610308578063f10d7a751461031b575b5f5ffd5b60408051808201909152600b81526a141858da1a5c984810941560aa1b60208201525b6040516101709190611211565b60405180910390f35b61018c61018736600461123a565b610332565b6040519015158152602001610170565b6101a46103b4565b604051908152602001610170565b61018c6101c0366004611264565b61042c565b6101d86101d3366004611264565b6104c0565b005b6101a461051a565b6101ea610523565b60405161017091906112e6565b60405160128152602001610170565b6101d8610214366004611264565b610760565b6101ea6107ad565b610163610c6f565b6101a4610c9c565b6101a4610ca5565b6101a46102473660046112f8565b610cd9565b610254610d58565b60408051928352602083019190915201610170565b6101a4610277366004611313565b610de3565b60408051808201909152600381526210941560ea1b6020820152610163565b61018c6102a936600461123a565b610ded565b6102b6610e25565b6040516101709190611373565b6102cb610e9b565b60405161017094939291906113b5565b6102e3610f23565b6040516101709190611476565b6101a4610f99565b6101a4610fa2565b6101a4610fab565b6101a4610316366004611488565b610fdf565b610323611067565b604051610170939291906114bf565b5f61033b61108f565b6001600160a01b031663e1f21c673385856040518463ffffffff1660e01b815260040161036a93929190611501565b6020604051808303815f875af1158015610386573d5f5f3e3d5ffd5b505050506040513d601f19601f820116820180604052508101906103aa9190611539565b5060019392505050565b5f6103bd61108f565b6001600160a01b031663e4dc2aa4306040518263ffffffff1660e01b81526004016103e89190611552565b602060405180830381865afa158015610403573d5f5f3e3d5ffd5b505050506040513d601f19601f820116820180604052508101906104279190611566565b905090565b5f61043561108f565b604051630aed65f560e11b81523360048201526001600160a01b03868116602483015285811660448301526064820185905291909116906315dacbea906084016020604051808303815f875af1158015610491573d5f5f3e3d5ffd5b505050506040513d601f19601f820116820180604052508101906104b59190611539565b506001949350505050565b6104c86110c1565b816001600160a01b0316836001600160a01b03167fddf252ad1be2c89b69c2b068fc378daa952ba7f163c4a11628f55a4df523b3ef8360405161050d91815260200190565b60405180910390a3505050565b5f610427611107565b604080516009808252610140820190925260609160208201610120803683370190505090506336372b0760e01b815f8151811061056257610562611591565b60200260200101906001600160e01b03191690816001600160e01b0319168152505063a219a02560e01b8160018151811061059f5761059f611591565b6001600160e01b0319909216602092830291909101909101528051634a17459160e11b90829060029081106105d6576105d6611591565b60200260200101906001600160e01b03191690816001600160e01b031916815250506333cd77e760e11b8160038151811061061357610613611591565b60200260200101906001600160e01b03191690816001600160e01b0319168152505063755994e960e01b8160048151811061065057610650611591565b60200260200101906001600160e01b03191690816001600160e01b0319168152505063e244eef560e01b8160058151811061068d5761068d611591565b60200260200101906001600160e01b03191690816001600160e01b031916815250506355b60edd60e11b816006815181106106ca576106ca611591565b60200260200101906001600160e01b03191690816001600160e01b0319168152505063914be08960e01b8160078151811061070757610707611591565b60200260200101906001600160e01b03191690816001600160e01b0319168152505063851c1bb360e01b8160088151811061074457610744611591565b6001600160e01b03199092166020928302919091019091015290565b6107686110c1565b816001600160a01b0316836001600160a01b03167f8c5be1e5ebec7d5bd14f71427d1e84f3dd0314c0f7b2291e5b200ac8c7c3b9258360405161050d91815260200190565b6040805160168082526102e08201909252606091602082016102c0803683370190505090506306fdde0360e01b815f815181106107ec576107ec611591565b6001600160e01b03199092166020928302919091019091015280516395d89b4160e01b908290600190811061082357610823611591565b6001600160e01b031990921660209283029190910190910152805163313ce56760e01b908290600290811061085a5761085a611591565b6001600160e01b03199092166020928302919091019091015280516318160ddd60e01b908290600390811061089157610891611591565b6001600160e01b03199092166020928302919091019091015280516370a0823160e01b90829060049081106108c8576108c8611591565b6001600160e01b0319909216602092830291909101909101528051636eb1769f60e11b90829060059081106108ff576108ff611591565b6001600160e01b031990921660209283029190910190910152805163095ea7b360e01b908290600690811061093657610936611591565b6001600160e01b031990921660209283029190910190910152805163a9059cbb60e01b908290600790811061096d5761096d611591565b6001600160e01b03199092166020928302919091019091015280516323b872dd60e01b90829060089081106109a4576109a4611591565b6001600160e01b03199092166020928302919091019091015280516333cd77e760e11b90829060099081106109db576109db611591565b6001600160e01b03199092166020928302919091019091015280516323de665160e01b908290600a908110610a1257610a12611591565b6001600160e01b0319909216602092830291909101909101528051630ad0fe5760e31b908290600b908110610a4957610a49611591565b6001600160e01b031990921660209283029190910190910152805163154d950160e31b908290600c908110610a8057610a80611591565b6001600160e01b0319909216602092830291909101909101528051632aec771160e21b908290600d908110610ab757610ab7611591565b6001600160e01b03199092166020928302919091019091015280516358ab550560e11b908290600e908110610aee57610aee611591565b6001600160e01b031990921660209283029190910190910152805163d335b0cf60e01b908290600f908110610b2557610b25611591565b6001600160e01b031990921660209283029190910190910152805163207ea01f60e21b9082906010908110610b5c57610b5c611591565b6001600160e01b031990921660209283029190910190910152805163ce20ece760e01b9082906011908110610b9357610b93611591565b6001600160e01b031990921660209283029190910190910152805163654cf15d60e01b9082906012908110610bca57610bca611591565b6001600160e01b0319909216602092830291909101909101528051635b3bfd2b60e11b9082906013908110610c0157610c01611591565b6001600160e01b031990921660209283029190910190910152805163273c1adf60e01b9082906014908110610c3857610c38611591565b6001600160e01b031990921660209283029190910190910152805163851c1bb360e01b908290601590811061074457610744611591565b60408051808201909152601381527210985b185b98d95c958cd41bdbdb119858d95d606a1b602082015290565b5f61042761111a565b5f610cae61108f565b6001600160a01b0316634f037ee7306040518263ffffffff1660e01b81526004016103e89190611552565b5f610ce261108f565b604051633de222bb60e21b81523060048201526001600160a01b038481166024830152919091169063f7888aec90604401602060405180830381865afa158015610d2e573d5f5f3e3d5ffd5b505050506040513d601f19601f82011682018060405250810190610d529190611566565b92915050565b5f5f5f610d6361108f565b6001600160a01b031663f29486a1306040518263ffffffff1660e01b8152600401610d8e9190611552565b6101a060405180830381865afa158015610daa573d5f5f3e3d5ffd5b505050506040513d601f19601f82011682018060405250810190610dce91906116c4565b90508060400151925080606001519150509091565b5f610d528261112d565b5f610df661108f565b6001600160a01b031663beabacc83385856040518463ffffffff1660e01b815260040161036a93929190611501565b6060610e2f61108f565b6001600160a01b031663ca4f2803306040518263ffffffff1660e01b8152600401610e5a9190611552565b5f60405180830381865afa158015610e74573d5f5f3e3d5ffd5b505050506040513d5f823e601f3d908101601f191682016040526104279190810190611812565b606080606080610ea961108f565b6001600160a01b03166367e0e076306040518263ffffffff1660e01b8152600401610ed49190611552565b5f60405180830381865afa158015610eee573d5f5f3e3d5ffd5b505050506040513d5f823e601f3d908101601f19168201604052610f1591908101906118a6565b935093509350935090919293565b6060610f2d61108f565b6001600160a01b031663535cfd8a306040518263ffffffff1660e01b8152600401610f589190611552565b5f60405180830381865afa158015610f72573d5f5f3e3d5ffd5b505050506040513d5f823e601f3d908101601f191682016040526104279190810190611a04565b5f610427611158565b5f610427611168565b5f610fb461108f565b6001600160a01b031663b45090f9306040518263ffffffff1660e01b81526004016103e89190611552565b5f610fe861108f565b60405163927da10560e01b81523060048201526001600160a01b0385811660248301528481166044830152919091169063927da10590606401602060405180830381865afa15801561103c573d5f5f3e3d5ffd5b505050506040513d601f19601f820116820180604052508101906110609190611566565b9392505050565b6060806060611074610c6f565b925061107e610523565b91506110886107ad565b9050909192565b5f6104277f392e49ca1983749c4549242b814e6592e6c2354a2bb55242596ce0ad2e7b1001546001600160a01b031690565b6110c961108f565b6001600160a01b0316336001600160a01b03161461110557336040516373ea3fad60e11b81526004016110fc9190611552565b60405180910390fd5b565b5f61042761111361117b565b6001015490565b5f61042761112661117b565b6003015490565b5f610d527f82340927aad1ca6b5f8bb0037567f287e1bec629ab302d4e1debbc0d7543b1f88361119f565b5f61042761116461117b565b5490565b5f61042761117461117b565b6002015490565b7fad058ae2c4fd2dc635a6531cef09fdcc7264c09c1ee65b9e398137189754ce7190565b5f6110606111ab845490565b6040805160208101929092526001600160e01b0319851690820152604401604051602081830303815290604052805160209091012090565b5f81518084528060208401602086015e5f602082860101526020601f19601f83011685010191505092915050565b602081525f61106060208301846111e3565b6001600160a01b0381168114611237575f5ffd5b50565b5f5f6040838503121561124b575f5ffd5b823561125681611223565b946020939093013593505050565b5f5f5f60608486031215611276575f5ffd5b833561128181611223565b9250602084013561129181611223565b929592945050506040919091013590565b5f8151808452602084019350602083015f5b828110156112dc5781516001600160e01b0319168652602095860195909101906001016112b4565b5093949350505050565b602081525f61106060208301846112a2565b5f60208284031215611308575f5ffd5b813561106081611223565b5f60208284031215611323575f5ffd5b81356001600160e01b031981168114611060575f5ffd5b5f8151808452602084019350602083015f5b828110156112dc5781516001600160a01b031686526020958601959091019060010161134c565b602081525f611060602083018461133a565b5f8151808452602084019350602083015f5b828110156112dc578151865260209586019590910190600101611397565b608081525f6113c7608083018761133a565b82810360208401528086518083526020830191506020880192505f5b8181101561144257835180516002811061140b57634e487b7160e01b5f52602160045260245ffd5b84526020818101516001600160a01b03168186015260409182015115159185019190915293909301926060909201916001016113e3565b505083810360408501526114568187611385565b915050828103606084015261146b8185611385565b979650505050505050565b602081525f6110606020830184611385565b5f5f60408385031215611499575f5ffd5b82356114a481611223565b915060208301356114b481611223565b809150509250929050565b606081525f6114d160608301866111e3565b82810360208401526114e381866112a2565b905082810360408401526114f781856112a2565b9695505050505050565b6001600160a01b039384168152919092166020820152604081019190915260600190565b80518015158114611534575f5ffd5b919050565b5f60208284031215611549575f5ffd5b61106082611525565b6001600160a01b0391909116815260200190565b5f60208284031215611576575f5ffd5b5051919050565b634e487b7160e01b5f52604160045260245ffd5b634e487b7160e01b5f52603260045260245ffd5b60405161014081016001600160401b03811182821017156115c8576115c861157d565b60405290565b604051606081016001600160401b03811182821017156115c8576115c861157d565b604051601f8201601f191681016001600160401b03811182821017156116185761161861157d565b604052919050565b5f60808284031215611630575f5ffd5b604051608081016001600160401b03811182821017156116525761165261157d565b60405290508061166183611525565b815261166f60208401611525565b602082015261168060408401611525565b604082015261169160608401611525565b60608201525092915050565b805164ffffffffff81168114611534575f5ffd5b805163ffffffff81168114611534575f5ffd5b5f6101a08284031280156116d6575f5ffd5b506116df6115a5565b6116e98484611620565b81526080830151602082015260a0830151604082015260c0830151606082015261171560e0840161169d565b608082015261172761010084016116b1565b60a08201526117396101208401611525565b60c082015261174b6101408401611525565b60e082015261175d6101608401611525565b6101008201526117706101808401611525565b6101208201529392505050565b5f6001600160401b038211156117955761179561157d565b5060051b60200190565b5f82601f8301126117ae575f5ffd5b81516117c16117bc8261177d565b6115f0565b8082825260208201915060208360051b8601019250858311156117e2575f5ffd5b602085015b838110156118085780516117fa81611223565b8352602092830192016117e7565b5095945050505050565b5f60208284031215611822575f5ffd5b81516001600160401b03811115611837575f5ffd5b6118438482850161179f565b949350505050565b5f82601f83011261185a575f5ffd5b81516118686117bc8261177d565b8082825260208201915060208360051b860101925085831115611889575f5ffd5b602085015b8381101561180857805183526020928301920161188e565b5f5f5f5f608085870312156118b9575f5ffd5b84516001600160401b038111156118ce575f5ffd5b6118da8782880161179f565b602087015190955090506001600160401b038111156118f7575f5ffd5b8501601f81018713611907575f5ffd5b80516119156117bc8261177d565b80828252602082019150602060608402850101925089831115611936575f5ffd5b6020840193505b828410156119a4576060848b031215611954575f5ffd5b61195c6115ce565b84516002811061196a575f5ffd5b8152602085015161197a81611223565b602082015261198b60408601611525565b604082015282526060939093019260209091019061193d565b6040890151909650925050506001600160401b038111156119c3575f5ffd5b6119cf8782880161184b565b606087015190935090506001600160401b038111156119ec575f5ffd5b6119f88782880161184b565b91505092959194509250565b5f60208284031215611a14575f5ffd5b81516001600160401b03811115611a29575f5ffd5b6118438482850161184b56fea2646970667358221220e7dfe864ee1ead761af2b917c2161ae40879e4c607faf37781a0fc87590b84f364736f6c634300081e0033","linkReferences":{}},"methodIdentifiers":{"allowance(address,address)":"dd62ed3e","approve(address,uint256)":"095ea7b3","balanceOf(address)":"70a08231","decimals()":"313ce567","emitApproval(address,address,uint256)":"5687f2b8","emitTransfer(address,address,uint256)":"23de6651","facetFuncs()":"574a4cff","facetInterfaces()":"2ea80826","facetMetadata()":"f10d7a75","facetName()":"5b6f4d01","getActionId(bytes4)":"851c1bb3","getAggregateFeePercentages()":"81fa807c","getCurrentLiveBalances()":"b156aa0a","getMaximumInvariantRatio()":"273c1adf","getMaximumSwapFeePercentage()":"654cf15d","getMinimumInvariantRatio()":"b677fa56","getMinimumSwapFeePercentage()":"ce20ece7","getRate()":"679aefce","getStaticSwapFeePercentage()":"d335b0cf","getTokenInfo()":"abb1dc44","getTokens()":"aa6ca808","name()":"06fdde03","symbol()":"95d89b41","totalSupply()":"18160ddd","transfer(address,uint256)":"a9059cbb","transferFrom(address,address,uint256)":"23b872dd"},"id":972}