{"abi":[{"type":"receive","stateMutability":"payable"},{"type":"function","name":"facetFuncs","inputs":[],"outputs":[{"name":"funcs","type":"bytes4[]","internalType":"bytes4[]"}],"stateMutability":"pure"},{"type":"function","name":"facetInterfaces","inputs":[],"outputs":[{"name":"interfaces","type":"bytes4[]","internalType":"bytes4[]"}],"stateMutability":"pure"},{"type":"function","name":"facetMetadata","inputs":[],"outputs":[{"name":"name_","type":"string","internalType":"string"},{"name":"interfaces","type":"bytes4[]","internalType":"bytes4[]"},{"name":"functions","type":"bytes4[]","internalType":"bytes4[]"}],"stateMutability":"pure"},{"type":"function","name":"facetName","inputs":[],"outputs":[{"name":"name","type":"string","internalType":"string"}],"stateMutability":"pure"},{"type":"function","name":"getPermit2","inputs":[],"outputs":[{"name":"","type":"address","internalType":"contract IPermit2"}],"stateMutability":"view"},{"type":"function","name":"getSender","inputs":[],"outputs":[{"name":"","type":"address","internalType":"address"}],"stateMutability":"view"},{"type":"function","name":"getVault","inputs":[],"outputs":[{"name":"","type":"address","internalType":"contract IVault"}],"stateMutability":"view"},{"type":"function","name":"getWeth","inputs":[],"outputs":[{"name":"","type":"address","internalType":"contract IWETH"}],"stateMutability":"view"},{"type":"function","name":"multicall","inputs":[{"name":"data","type":"bytes[]","internalType":"bytes[]"}],"outputs":[{"name":"results","type":"bytes[]","internalType":"bytes[]"}],"stateMutability":"payable"},{"type":"function","name":"permitBatchAndCall","inputs":[{"name":"permitBatch","type":"tuple[]","internalType":"struct IRouterCommon.PermitApproval[]","components":[{"name":"token","type":"address","internalType":"address"},{"name":"owner","type":"address","internalType":"address"},{"name":"spender","type":"address","internalType":"address"},{"name":"amount","type":"uint256","internalType":"uint256"},{"name":"nonce","type":"uint256","internalType":"uint256"},{"name":"deadline","type":"uint256","internalType":"uint256"}]},{"name":"permitSignatures","type":"bytes[]","internalType":"bytes[]"},{"name":"permit2Batch","type":"tuple","internalType":"struct IAllowanceTransfer.PermitBatch","components":[{"name":"details","type":"tuple[]","internalType":"struct IAllowanceTransfer.PermitDetails[]","components":[{"name":"token","type":"address","internalType":"address"},{"name":"amount","type":"uint160","internalType":"uint160"},{"name":"expiration","type":"uint48","internalType":"uint48"},{"name":"nonce","type":"uint48","internalType":"uint48"}]},{"name":"spender","type":"address","internalType":"address"},{"name":"sigDeadline","type":"uint256","internalType":"uint256"}]},{"name":"permit2Signature","type":"bytes","internalType":"bytes"},{"name":"multicallData","type":"bytes[]","internalType":"bytes[]"}],"outputs":[{"name":"","type":"bytes[]","internalType":"bytes[]"}],"stateMutability":"payable"},{"type":"function","name":"version","inputs":[],"outputs":[{"name":"","type":"string","internalType":"string"}],"stateMutability":"view"},{"type":"error","name":"AddressEmptyCode","inputs":[{"name":"target","type":"address","internalType":"address"}]},{"type":"error","name":"ErrorSelectorNotFound","inputs":[]},{"type":"error","name":"EthTransfer","inputs":[]},{"type":"error","name":"FailedCall","inputs":[]},{"type":"error","name":"InputLengthMismatch","inputs":[]},{"type":"error","name":"InsufficientBalance","inputs":[{"name":"balance","type":"uint256","internalType":"uint256"},{"name":"needed","type":"uint256","internalType":"uint256"}]},{"type":"error","name":"InsufficientEth","inputs":[]},{"type":"error","name":"InsufficientPayment","inputs":[{"name":"token","type":"address","internalType":"contract IERC20"}]},{"type":"error","name":"OperationNotSupported","inputs":[]},{"type":"error","name":"ReentrancyGuardReentrantCall","inputs":[]},{"type":"error","name":"SenderIsNotVault","inputs":[{"name":"sender","type":"address","internalType":"address"}]},{"type":"error","name":"SwapDeadline","inputs":[]}],"bytecode":{"object":"0x6080604052348015600e575f5ffd5b506114a48061001c5f395ff3fe60806040526004361061008e575f3560e01c8063107c279f146100d257806319c6989f146100fc5780631bbf2e231461011c5780632ea808261461013057806354fd4d5014610151578063574a4cff146101725780635b6f4d01146101865780635e01eb5a1461019a5780638d928af8146101ae578063ac9650d8146101c2578063f10d7a75146101d5575f5ffd5b366100ce5761009b6101f8565b6001600160a01b0316336001600160a01b0316146100cc576040516302a06efb60e11b815260040160405180910390fd5b005b5f5ffd5b3480156100dd575f5ffd5b506100e6610216565b6040516100f39190610d8b565b60405180910390f35b61010f61010a366004610e73565b61021f565b6040516100f39190610f96565b348015610127575f5ffd5b506100e661026e565b34801561013b575f5ffd5b50610144610277565b6040516100f3919061103d565b34801561015c575f5ffd5b5061016561030a565b6040516100f3919061104f565b34801561017d575f5ffd5b50610144610314565b348015610191575f5ffd5b5061016561049c565b3480156101a5575f5ffd5b506100e66104c7565b3480156101b9575f5ffd5b506100e66104d0565b61010f6101d0366004611061565b6104d9565b3480156101e0575f5ffd5b506101e961064c565b6040516100f39392919061109f565b5f610211610204610674565b546001600160a01b031690565b905090565b5f6102116101f8565b6060610229610698565b15610247576040516329a270f560e01b815260040160405180910390fd5b6102568a8a8a8a8a8a8a6106b5565b61026083836104d9565b9a9950505050505050505050565b5f61021161096b565b60408051600280825260608083018452926020830190803683370190505090506333014b0360e01b815f815181106102b1576102b16110f5565b60200260200101906001600160e01b03191690816001600160e01b03191681525050632f00f5ad60e11b816001815181106102ee576102ee6110f5565b6001600160e01b03199092166020928302919091019091015290565b6060610211610987565b60408051600780825261010082019092526060916020820160e08036833701905050905063107c279f60e01b815f81518110610352576103526110f5565b6001600160e01b0319909216602092830291909101909101528051631bbf2e2360e01b9082906001908110610389576103896110f5565b6001600160e01b03199092166020928302919091019091015280516311b2515f60e31b90829060029081106103c0576103c06110f5565b6001600160e01b0319909216602092830291909101909101528051632f00f5ad60e11b90829060039081106103f7576103f76110f5565b6001600160e01b031990921660209283029190910190910152805163054fd4d560e41b908290600490811061042e5761042e6110f5565b6001600160e01b03199092166020928302919091019091015280516319c6989f60e01b9082906005908110610465576104656110f5565b6001600160e01b0319909216602092830291909101909101528051631592ca1b60e31b90829060069081106102ee576102ee6110f5565b604080518082019091526011815270149bdd5d195c90dbdb5b5bdb919858d95d607a1b602082015290565b5f610211610999565b5f6102116109a2565b60605f6104e5336109be565b90506104ef6109ec565b1561050d57604051633ee5aeb560e01b815260040160405180910390fd5b61051760016109fe565b61051f610698565b1561053d576040516329a270f560e01b815260040160405180910390fd5b826001600160401b03811115610555576105556110e1565b60405190808252806020026020018201604052801561058857816020015b60608152602001906001900390816105735790505b5091505f5b8381101561061d576105f88585838181106105aa576105aa6110f5565b90506020028101906105bc9190611109565b8080601f0160208091040260200160405190810160405280939291908181526020018383808284375f920191909152503093925050610a139050565b83828151811061060a5761060a6110f5565b602090810291909101015260010161058d565b506106275f6109fe565b5f610630610999565b905061063b82610a85565b61064481610a97565b505092915050565b606080606061065961049c565b9250610663610277565b915061066d610314565b9050909192565b7f0e5e42310baee45bff0964e63930bd3ef41981ccc7a033d2803019558bd2313e90565b5f6102116106a4610674565b60020154600160a01b900460ff1690565b6106bd610acc565b6106c76001610afc565b6106d18685610b11565b5f5b868110156108d8575f8686838181106106ee576106ee6110f5565b90506020028101906107009190611109565b8080601f0160208091040260200160405190810160405280939291908181526020018383808284375f9201829052509394506107419250849150610b319050565b90505f8a8a85818110610756576107566110f5565b905060c0020180360381019061076c919061116f565b8051602080830151606084015160a08501516040808901518951958a0151915163d505accf60e01b81526001600160a01b0395861660048201523060248201526044810194909452606484019290925260ff909116608483015260a482019390935260c481019290925292935091169063d505accf9060e4015f604051808303815f87803b1580156107fc575f5ffd5b505af192505050801561080d575060015b6108ca573d80801561083a576040519150601f19603f3d011682016040523d82523d5f602084013e61083f565b606091505b50606082015182516020840151604051636eb1769f60e11b81526001600160a01b03918216600482015230602482015291169063dd62ed3e90604401602060405180830381865afa158015610896573d5f5f3e3d5ffd5b505050506040513d601f19601f820116820180604052508101906108ba9190611206565b146108c8576108c881610b80565b505b5050508060010190506106d3565b505f6108e4848061121d565b90501115610959575f6108f561096b565b604051632a2d80d160e01b81529091506001600160a01b03821690632a2d80d19061092a90339088908890889060040161129f565b5f604051808303815f87803b158015610941575f5ffd5b505af1158015610953573d5f5f3e3d5ffd5b50505050505b6109625f610afc565b50505050505050565b5f610211610977610674565b600101546001600160a01b031690565b6060610211610994610674565b610ba9565b5f610211610c3d565b5f6102116109ae610674565b600201546001600160a01b031690565b5f5f6109c8610c3d565b90506001600160a01b0381166109e6576109e183610c4f565b600191505b50919050565b5f51602061144f5f395f51905f525c90565b5f51602061144f5f395f51905f5281815d5050565b60605f5f846001600160a01b031684604051610a2f91906113c6565b5f60405180830381855af49150503d805f8114610a67576040519150601f19603f3d011682016040523d82523d5f602084013e610a6c565b606091505b5091509150610a7c858383610c64565b95945050505050565b8015610a9457610a945f610c4f565b50565b475f819003610aa4575050565b610aac6109ec565b15610ab5575050565b610ac86001600160a01b03831682610cc3565b5050565b5f51602061142f5f395f51905f52805c908115610ac857604051633ee5aeb560e01b815260040160405180910390fd5b5f51602061142f5f395f51905f5281815d5050565b808214610ac85760405163aaad13f760e01b815260040160405180910390fd5b610b5560405180606001604052805f81526020015f81526020015f60ff1681525090565b602082810151604080850151606090950151918452918301939093525f9290921a9181019190915290565b805115610b905780518082602001fd5b60405163a728568960e01b815260040160405180910390fd5b6060816003018054610bba906113dc565b80601f0160208091040260200160405190810160405280929190818152602001828054610be6906113dc565b8015610c315780601f10610c0857610100808354040283529160200191610c31565b820191905f5260205f20905b815481529060010190602001808311610c1457829003601f168201915b50505050509050919050565b5f51602061140f5f395f51905f525c90565b5f51602061140f5f395f51905f5281815d5050565b606082610c7957610c7482610d62565b610cbc565b8151158015610c9057506001600160a01b0384163b155b15610cb95783604051639996b31560e01b8152600401610cb09190610d8b565b60405180910390fd5b50805b9392505050565b80471015610ced5760405163cf47918160e01b815247600482015260248101829052604401610cb0565b5f826001600160a01b0316826040515f6040518083038185875af1925050503d805f8114610d36576040519150601f19603f3d011682016040523d82523d5f602084013e610d3b565b606091505b5050905080610d5d5760405163d6bda27560e01b815260040160405180910390fd5b505050565b805115610d725780518082602001fd5b60405163d6bda27560e01b815260040160405180910390fd5b6001600160a01b0391909116815260200190565b5f5f83601f840112610daf575f5ffd5b5081356001600160401b03811115610dc5575f5ffd5b60208301915083602060c083028501011115610ddf575f5ffd5b9250929050565b5f5f83601f840112610df6575f5ffd5b5081356001600160401b03811115610e0c575f5ffd5b6020830191508360208260051b8501011115610ddf575f5ffd5b5f606082840312156109e6575f5ffd5b5f5f83601f840112610e46575f5ffd5b5081356001600160401b03811115610e5c575f5ffd5b602083019150836020828501011115610ddf575f5ffd5b5f5f5f5f5f5f5f5f5f60a08a8c031215610e8b575f5ffd5b89356001600160401b03811115610ea0575f5ffd5b610eac8c828d01610d9f565b909a5098505060208a01356001600160401b03811115610eca575f5ffd5b610ed68c828d01610de6565b90985096505060408a01356001600160401b03811115610ef4575f5ffd5b610f008c828d01610e26565b95505060608a01356001600160401b03811115610f1b575f5ffd5b610f278c828d01610e36565b90955093505060808a01356001600160401b03811115610f45575f5ffd5b610f518c828d01610de6565b915080935050809150509295985092959850929598565b5f81518084528060208401602086015e5f602082860101526020601f19601f83011685010191505092915050565b5f602082016020835280845180835260408501915060408160051b8601019250602086015f5b82811015610fed57603f19878603018452610fd8858351610f68565b94506020938401939190910190600101610fbc565b50929695505050505050565b5f8151808452602084019350602083015f5b828110156110335781516001600160e01b03191686526020958601959091019060010161100b565b5093949350505050565b602081525f610cbc6020830184610ff9565b602081525f610cbc6020830184610f68565b5f5f60208385031215611072575f5ffd5b82356001600160401b03811115611087575f5ffd5b61109385828601610de6565b90969095509350505050565b606081525f6110b16060830186610f68565b82810360208401526110c38186610ff9565b905082810360408401526110d78185610ff9565b9695505050505050565b634e487b7160e01b5f52604160045260245ffd5b634e487b7160e01b5f52603260045260245ffd5b5f5f8335601e1984360301811261111e575f5ffd5b8301803591506001600160401b03821115611137575f5ffd5b602001915036819003821315610ddf575f5ffd5b6001600160a01b0381168114610a94575f5ffd5b803561116a8161114b565b919050565b5f60c0828403128015611180575f5ffd5b5060405160c081016001600160401b03811182821017156111af57634e487b7160e01b5f52604160045260245ffd5b6040526111bb8361115f565b81526111c96020840161115f565b60208201526111da6040840161115f565b6040820152606083810135908201526080808401359082015260a0928301359281019290925250919050565b5f60208284031215611216575f5ffd5b5051919050565b5f5f8335601e19843603018112611232575f5ffd5b8301803591506001600160401b0382111561124b575f5ffd5b6020019150600781901b3603821315610ddf575f5ffd5b803565ffffffffffff8116811461116a575f5ffd5b81835281816020850137505f828201602090810191909152601f909101601f19169091010190565b6001600160a01b0385168152606060208201525f60c08201853536879003601e190181126112cb575f5ffd5b86016020810190356001600160401b038111156112e6575f5ffd5b8060071b36038213156112f7575f5ffd5b60608581015291829052905f9060e085015b8183101561138857833561131c8161114b565b6001600160a01b0316815260208401356113358161114b565b6001600160a01b0316602082015265ffffffffffff61135660408601611262565b16604082015265ffffffffffff61136f60608601611262565b1660608201526080938401936001939093019201611309565b61139460208a0161115f565b6001600160a01b0316608087015260408981013560a0880181905287830391880191909152935061026081888a611277565b5f82518060208501845e5f920191825250919050565b600181811c908216806113f057607f821691505b6020821081036109e657634e487b7160e01b5f52602260045260245ffdfe6c17b98ed641627be1f588a5e81d97edc6ddd1b560dfba5b46c2aa2c8ddd0d0085e416c3b4a964332bebb95fdf9a73cb8ded00cbd75143ad03246e01399c424719c2f6f76e6091adc2e8f63fc8cd9da9e3a8e9d5d1c4ae5d8f8e0f6c7b8a9d00a264697066735822122091a283fd55790c5c279e29886ad5d6b9b84ee7fe5461ff605a6b6c2d3ce75f1f64736f6c634300081e0033","linkReferences":{}},"methodIdentifiers":{"facetFuncs()":"574a4cff","facetInterfaces()":"2ea80826","facetMetadata()":"f10d7a75","facetName()":"5b6f4d01","getPermit2()":"1bbf2e23","getSender()":"5e01eb5a","getVault()":"8d928af8","getWeth()":"107c279f","multicall(bytes[])":"ac9650d8","permitBatchAndCall((address,address,address,uint256,uint256,uint256)[],bytes[],((address,uint160,uint48,uint48)[],address,uint256),bytes,bytes[])":"19c6989f","version()":"54fd4d50"},"id":932}