{"abi":[{"type":"function","name":"MAX_STABLE_TOKENS","inputs":[],"outputs":[{"name":"","type":"uint256","internalType":"uint256"}],"stateMutability":"view"},{"type":"error","name":"MaxImbalanceRatioExceeded","inputs":[]},{"type":"error","name":"StableComputeBalanceDidNotConverge","inputs":[]},{"type":"error","name":"StableInvariantDidNotConverge","inputs":[]}],"bytecode":{"object":"0x60856032600b8282823980515f1a607314602657634e487b7160e01b5f525f60045260245ffd5b305f52607381538281f3fe73000000000000000000000000000000000000000030146080604052600436106032575f3560e01c80631551cee7146036575b5f5ffd5b603d600581565b60405190815260200160405180910390f3fea2646970667358221220329e20b8a5907accbc94776275d55b6473f44ecb8e49918db39df3c31ead39f564736f6c634300081e0033","linkReferences":{}},"methodIdentifiers":{"MAX_STABLE_TOKENS()":"1551cee7"},"id":260}