{"abi":[{"type":"constructor","inputs":[{"name":"vault","type":"address","internalType":"contract IVault"},{"name":"weth","type":"address","internalType":"contract IWETH"},{"name":"permit2","type":"address","internalType":"contract IPermit2"},{"name":"routerVersion","type":"string","internalType":"string"}],"stateMutability":"nonpayable"},{"type":"receive","stateMutability":"payable"},{"type":"function","name":"addLiquidityCustom","inputs":[{"name":"pool","type":"address","internalType":"address"},{"name":"maxAmountsIn","type":"uint256[]","internalType":"uint256[]"},{"name":"minBptAmountOut","type":"uint256","internalType":"uint256"},{"name":"wethIsEth","type":"bool","internalType":"bool"},{"name":"userData","type":"bytes","internalType":"bytes"}],"outputs":[{"name":"amountsIn","type":"uint256[]","internalType":"uint256[]"},{"name":"bptAmountOut","type":"uint256","internalType":"uint256"},{"name":"returnData","type":"bytes","internalType":"bytes"}],"stateMutability":"payable"},{"type":"function","name":"addLiquidityHook","inputs":[{"name":"params","type":"tuple","internalType":"struct AddLiquidityHookParams","components":[{"name":"sender","type":"address","internalType":"address"},{"name":"pool","type":"address","internalType":"address"},{"name":"maxAmountsIn","type":"uint256[]","internalType":"uint256[]"},{"name":"minBptAmountOut","type":"uint256","internalType":"uint256"},{"name":"kind","type":"uint8","internalType":"enum AddLiquidityKind"},{"name":"wethIsEth","type":"bool","internalType":"bool"},{"name":"userData","type":"bytes","internalType":"bytes"}]}],"outputs":[{"name":"amountsIn","type":"uint256[]","internalType":"uint256[]"},{"name":"bptAmountOut","type":"uint256","internalType":"uint256"},{"name":"returnData","type":"bytes","internalType":"bytes"}],"stateMutability":"nonpayable"},{"type":"function","name":"addLiquidityProportional","inputs":[{"name":"pool","type":"address","internalType":"address"},{"name":"maxAmountsIn","type":"uint256[]","internalType":"uint256[]"},{"name":"exactBptAmountOut","type":"uint256","internalType":"uint256"},{"name":"wethIsEth","type":"bool","internalType":"bool"},{"name":"userData","type":"bytes","internalType":"bytes"}],"outputs":[{"name":"amountsIn","type":"uint256[]","internalType":"uint256[]"}],"stateMutability":"payable"},{"type":"function","name":"addLiquiditySingleTokenExactOut","inputs":[{"name":"pool","type":"address","internalType":"address"},{"name":"tokenIn","type":"address","internalType":"contract IERC20"},{"name":"maxAmountIn","type":"uint256","internalType":"uint256"},{"name":"exactBptAmountOut","type":"uint256","internalType":"uint256"},{"name":"wethIsEth","type":"bool","internalType":"bool"},{"name":"userData","type":"bytes","internalType":"bytes"}],"outputs":[{"name":"amountIn","type":"uint256","internalType":"uint256"}],"stateMutability":"payable"},{"type":"function","name":"addLiquidityUnbalanced","inputs":[{"name":"pool","type":"address","internalType":"address"},{"name":"exactAmountsIn","type":"uint256[]","internalType":"uint256[]"},{"name":"minBptAmountOut","type":"uint256","internalType":"uint256"},{"name":"wethIsEth","type":"bool","internalType":"bool"},{"name":"userData","type":"bytes","internalType":"bytes"}],"outputs":[{"name":"bptAmountOut","type":"uint256","internalType":"uint256"}],"stateMutability":"payable"},{"type":"function","name":"donate","inputs":[{"name":"pool","type":"address","internalType":"address"},{"name":"amountsIn","type":"uint256[]","internalType":"uint256[]"},{"name":"wethIsEth","type":"bool","internalType":"bool"},{"name":"userData","type":"bytes","internalType":"bytes"}],"outputs":[],"stateMutability":"payable"},{"type":"function","name":"getPermit2","inputs":[],"outputs":[{"name":"","type":"address","internalType":"contract IPermit2"}],"stateMutability":"view"},{"type":"function","name":"getSender","inputs":[],"outputs":[{"name":"","type":"address","internalType":"address"}],"stateMutability":"view"},{"type":"function","name":"getVault","inputs":[],"outputs":[{"name":"","type":"address","internalType":"contract IVault"}],"stateMutability":"view"},{"type":"function","name":"getWeth","inputs":[],"outputs":[{"name":"","type":"address","internalType":"contract IWETH"}],"stateMutability":"view"},{"type":"function","name":"initialize","inputs":[{"name":"pool","type":"address","internalType":"address"},{"name":"tokens","type":"address[]","internalType":"contract IERC20[]"},{"name":"exactAmountsIn","type":"uint256[]","internalType":"uint256[]"},{"name":"minBptAmountOut","type":"uint256","internalType":"uint256"},{"name":"wethIsEth","type":"bool","internalType":"bool"},{"name":"userData","type":"bytes","internalType":"bytes"}],"outputs":[{"name":"bptAmountOut","type":"uint256","internalType":"uint256"}],"stateMutability":"payable"},{"type":"function","name":"initializeHook","inputs":[{"name":"params","type":"tuple","internalType":"struct InitializeHookParams","components":[{"name":"sender","type":"address","internalType":"address"},{"name":"pool","type":"address","internalType":"address"},{"name":"tokens","type":"address[]","internalType":"contract IERC20[]"},{"name":"exactAmountsIn","type":"uint256[]","internalType":"uint256[]"},{"name":"minBptAmountOut","type":"uint256","internalType":"uint256"},{"name":"wethIsEth","type":"bool","internalType":"bool"},{"name":"userData","type":"bytes","internalType":"bytes"}]}],"outputs":[{"name":"bptAmountOut","type":"uint256","internalType":"uint256"}],"stateMutability":"nonpayable"},{"type":"function","name":"multicall","inputs":[{"name":"data","type":"bytes[]","internalType":"bytes[]"}],"outputs":[{"name":"results","type":"bytes[]","internalType":"bytes[]"}],"stateMutability":"payable"},{"type":"function","name":"permitBatchAndCall","inputs":[{"name":"permitBatch","type":"tuple[]","internalType":"struct IRouterCommon.PermitApproval[]","components":[{"name":"token","type":"address","internalType":"address"},{"name":"owner","type":"address","internalType":"address"},{"name":"spender","type":"address","internalType":"address"},{"name":"amount","type":"uint256","internalType":"uint256"},{"name":"nonce","type":"uint256","internalType":"uint256"},{"name":"deadline","type":"uint256","internalType":"uint256"}]},{"name":"permitSignatures","type":"bytes[]","internalType":"bytes[]"},{"name":"permit2Batch","type":"tuple","internalType":"struct IAllowanceTransfer.PermitBatch","components":[{"name":"details","type":"tuple[]","internalType":"struct IAllowanceTransfer.PermitDetails[]","components":[{"name":"token","type":"address","internalType":"address"},{"name":"amount","type":"uint160","internalType":"uint160"},{"name":"expiration","type":"uint48","internalType":"uint48"},{"name":"nonce","type":"uint48","internalType":"uint48"}]},{"name":"spender","type":"address","internalType":"address"},{"name":"sigDeadline","type":"uint256","internalType":"uint256"}]},{"name":"permit2Signature","type":"bytes","internalType":"bytes"},{"name":"multicallData","type":"bytes[]","internalType":"bytes[]"}],"outputs":[{"name":"","type":"bytes[]","internalType":"bytes[]"}],"stateMutability":"payable"},{"type":"function","name":"queryAddLiquidityCustom","inputs":[{"name":"pool","type":"address","internalType":"address"},{"name":"maxAmountsIn","type":"uint256[]","internalType":"uint256[]"},{"name":"minBptAmountOut","type":"uint256","internalType":"uint256"},{"name":"sender","type":"address","internalType":"address"},{"name":"userData","type":"bytes","internalType":"bytes"}],"outputs":[{"name":"amountsIn","type":"uint256[]","internalType":"uint256[]"},{"name":"bptAmountOut","type":"uint256","internalType":"uint256"},{"name":"returnData","type":"bytes","internalType":"bytes"}],"stateMutability":"nonpayable"},{"type":"function","name":"queryAddLiquidityHook","inputs":[{"name":"params","type":"tuple","internalType":"struct AddLiquidityHookParams","components":[{"name":"sender","type":"address","internalType":"address"},{"name":"pool","type":"address","internalType":"address"},{"name":"maxAmountsIn","type":"uint256[]","internalType":"uint256[]"},{"name":"minBptAmountOut","type":"uint256","internalType":"uint256"},{"name":"kind","type":"uint8","internalType":"enum AddLiquidityKind"},{"name":"wethIsEth","type":"bool","internalType":"bool"},{"name":"userData","type":"bytes","internalType":"bytes"}]}],"outputs":[{"name":"amountsIn","type":"uint256[]","internalType":"uint256[]"},{"name":"bptAmountOut","type":"uint256","internalType":"uint256"},{"name":"returnData","type":"bytes","internalType":"bytes"}],"stateMutability":"nonpayable"},{"type":"function","name":"queryAddLiquidityProportional","inputs":[{"name":"pool","type":"address","internalType":"address"},{"name":"exactBptAmountOut","type":"uint256","internalType":"uint256"},{"name":"sender","type":"address","internalType":"address"},{"name":"userData","type":"bytes","internalType":"bytes"}],"outputs":[{"name":"amountsIn","type":"uint256[]","internalType":"uint256[]"}],"stateMutability":"nonpayable"},{"type":"function","name":"queryAddLiquiditySingleTokenExactOut","inputs":[{"name":"pool","type":"address","internalType":"address"},{"name":"tokenIn","type":"address","internalType":"contract IERC20"},{"name":"exactBptAmountOut","type":"uint256","internalType":"uint256"},{"name":"sender","type":"address","internalType":"address"},{"name":"userData","type":"bytes","internalType":"bytes"}],"outputs":[{"name":"amountIn","type":"uint256","internalType":"uint256"}],"stateMutability":"nonpayable"},{"type":"function","name":"queryAddLiquidityUnbalanced","inputs":[{"name":"pool","type":"address","internalType":"address"},{"name":"exactAmountsIn","type":"uint256[]","internalType":"uint256[]"},{"name":"sender","type":"address","internalType":"address"},{"name":"userData","type":"bytes","internalType":"bytes"}],"outputs":[{"name":"bptAmountOut","type":"uint256","internalType":"uint256"}],"stateMutability":"nonpayable"},{"type":"function","name":"queryRemoveLiquidityCustom","inputs":[{"name":"pool","type":"address","internalType":"address"},{"name":"maxBptAmountIn","type":"uint256","internalType":"uint256"},{"name":"minAmountsOut","type":"uint256[]","internalType":"uint256[]"},{"name":"sender","type":"address","internalType":"address"},{"name":"userData","type":"bytes","internalType":"bytes"}],"outputs":[{"name":"bptAmountIn","type":"uint256","internalType":"uint256"},{"name":"amountsOut","type":"uint256[]","internalType":"uint256[]"},{"name":"returnData","type":"bytes","internalType":"bytes"}],"stateMutability":"nonpayable"},{"type":"function","name":"queryRemoveLiquidityHook","inputs":[{"name":"params","type":"tuple","internalType":"struct RemoveLiquidityHookParams","components":[{"name":"sender","type":"address","internalType":"address"},{"name":"pool","type":"address","internalType":"address"},{"name":"minAmountsOut","type":"uint256[]","internalType":"uint256[]"},{"name":"maxBptAmountIn","type":"uint256","internalType":"uint256"},{"name":"kind","type":"uint8","internalType":"enum RemoveLiquidityKind"},{"name":"wethIsEth","type":"bool","internalType":"bool"},{"name":"userData","type":"bytes","internalType":"bytes"}]}],"outputs":[{"name":"bptAmountIn","type":"uint256","internalType":"uint256"},{"name":"amountsOut","type":"uint256[]","internalType":"uint256[]"},{"name":"returnData","type":"bytes","internalType":"bytes"}],"stateMutability":"nonpayable"},{"type":"function","name":"queryRemoveLiquidityProportional","inputs":[{"name":"pool","type":"address","internalType":"address"},{"name":"exactBptAmountIn","type":"uint256","internalType":"uint256"},{"name":"sender","type":"address","internalType":"address"},{"name":"userData","type":"bytes","internalType":"bytes"}],"outputs":[{"name":"amountsOut","type":"uint256[]","internalType":"uint256[]"}],"stateMutability":"nonpayable"},{"type":"function","name":"queryRemoveLiquidityRecovery","inputs":[{"name":"pool","type":"address","internalType":"address"},{"name":"exactBptAmountIn","type":"uint256","internalType":"uint256"}],"outputs":[{"name":"amountsOut","type":"uint256[]","internalType":"uint256[]"}],"stateMutability":"nonpayable"},{"type":"function","name":"queryRemoveLiquidityRecoveryHook","inputs":[{"name":"pool","type":"address","internalType":"address"},{"name":"sender","type":"address","internalType":"address"},{"name":"exactBptAmountIn","type":"uint256","internalType":"uint256"}],"outputs":[{"name":"amountsOut","type":"uint256[]","internalType":"uint256[]"}],"stateMutability":"nonpayable"},{"type":"function","name":"queryRemoveLiquiditySingleTokenExactIn","inputs":[{"name":"pool","type":"address","internalType":"address"},{"name":"exactBptAmountIn","type":"uint256","internalType":"uint256"},{"name":"tokenOut","type":"address","internalType":"contract IERC20"},{"name":"sender","type":"address","internalType":"address"},{"name":"userData","type":"bytes","internalType":"bytes"}],"outputs":[{"name":"amountOut","type":"uint256","internalType":"uint256"}],"stateMutability":"nonpayable"},{"type":"function","name":"queryRemoveLiquiditySingleTokenExactOut","inputs":[{"name":"pool","type":"address","internalType":"address"},{"name":"tokenOut","type":"address","internalType":"contract IERC20"},{"name":"exactAmountOut","type":"uint256","internalType":"uint256"},{"name":"sender","type":"address","internalType":"address"},{"name":"userData","type":"bytes","internalType":"bytes"}],"outputs":[{"name":"bptAmountIn","type":"uint256","internalType":"uint256"}],"stateMutability":"nonpayable"},{"type":"function","name":"querySwapHook","inputs":[{"name":"params","type":"tuple","internalType":"struct SwapSingleTokenHookParams","components":[{"name":"sender","type":"address","internalType":"address"},{"name":"kind","type":"uint8","internalType":"enum SwapKind"},{"name":"pool","type":"address","internalType":"address"},{"name":"tokenIn","type":"address","internalType":"contract IERC20"},{"name":"tokenOut","type":"address","internalType":"contract IERC20"},{"name":"amountGiven","type":"uint256","internalType":"uint256"},{"name":"limit","type":"uint256","internalType":"uint256"},{"name":"deadline","type":"uint256","internalType":"uint256"},{"name":"wethIsEth","type":"bool","internalType":"bool"},{"name":"userData","type":"bytes","internalType":"bytes"}]}],"outputs":[{"name":"","type":"uint256","internalType":"uint256"}],"stateMutability":"nonpayable"},{"type":"function","name":"querySwapSingleTokenExactIn","inputs":[{"name":"pool","type":"address","internalType":"address"},{"name":"tokenIn","type":"address","internalType":"contract IERC20"},{"name":"tokenOut","type":"address","internalType":"contract IERC20"},{"name":"exactAmountIn","type":"uint256","internalType":"uint256"},{"name":"sender","type":"address","internalType":"address"},{"name":"userData","type":"bytes","internalType":"bytes"}],"outputs":[{"name":"amountCalculated","type":"uint256","internalType":"uint256"}],"stateMutability":"nonpayable"},{"type":"function","name":"querySwapSingleTokenExactOut","inputs":[{"name":"pool","type":"address","internalType":"address"},{"name":"tokenIn","type":"address","internalType":"contract IERC20"},{"name":"tokenOut","type":"address","internalType":"contract IERC20"},{"name":"exactAmountOut","type":"uint256","internalType":"uint256"},{"name":"sender","type":"address","internalType":"address"},{"name":"userData","type":"bytes","internalType":"bytes"}],"outputs":[{"name":"amountCalculated","type":"uint256","internalType":"uint256"}],"stateMutability":"nonpayable"},{"type":"function","name":"removeLiquidityCustom","inputs":[{"name":"pool","type":"address","internalType":"address"},{"name":"maxBptAmountIn","type":"uint256","internalType":"uint256"},{"name":"minAmountsOut","type":"uint256[]","internalType":"uint256[]"},{"name":"wethIsEth","type":"bool","internalType":"bool"},{"name":"userData","type":"bytes","internalType":"bytes"}],"outputs":[{"name":"bptAmountIn","type":"uint256","internalType":"uint256"},{"name":"amountsOut","type":"uint256[]","internalType":"uint256[]"},{"name":"returnData","type":"bytes","internalType":"bytes"}],"stateMutability":"payable"},{"type":"function","name":"removeLiquidityHook","inputs":[{"name":"params","type":"tuple","internalType":"struct RemoveLiquidityHookParams","components":[{"name":"sender","type":"address","internalType":"address"},{"name":"pool","type":"address","internalType":"address"},{"name":"minAmountsOut","type":"uint256[]","internalType":"uint256[]"},{"name":"maxBptAmountIn","type":"uint256","internalType":"uint256"},{"name":"kind","type":"uint8","internalType":"enum RemoveLiquidityKind"},{"name":"wethIsEth","type":"bool","internalType":"bool"},{"name":"userData","type":"bytes","internalType":"bytes"}]}],"outputs":[{"name":"bptAmountIn","type":"uint256","internalType":"uint256"},{"name":"amountsOut","type":"uint256[]","internalType":"uint256[]"},{"name":"returnData","type":"bytes","internalType":"bytes"}],"stateMutability":"nonpayable"},{"type":"function","name":"removeLiquidityProportional","inputs":[{"name":"pool","type":"address","internalType":"address"},{"name":"exactBptAmountIn","type":"uint256","internalType":"uint256"},{"name":"minAmountsOut","type":"uint256[]","internalType":"uint256[]"},{"name":"wethIsEth","type":"bool","internalType":"bool"},{"name":"userData","type":"bytes","internalType":"bytes"}],"outputs":[{"name":"amountsOut","type":"uint256[]","internalType":"uint256[]"}],"stateMutability":"payable"},{"type":"function","name":"removeLiquidityRecovery","inputs":[{"name":"pool","type":"address","internalType":"address"},{"name":"exactBptAmountIn","type":"uint256","internalType":"uint256"},{"name":"minAmountsOut","type":"uint256[]","internalType":"uint256[]"}],"outputs":[{"name":"amountsOut","type":"uint256[]","internalType":"uint256[]"}],"stateMutability":"payable"},{"type":"function","name":"removeLiquidityRecoveryHook","inputs":[{"name":"pool","type":"address","internalType":"address"},{"name":"sender","type":"address","internalType":"address"},{"name":"exactBptAmountIn","type":"uint256","internalType":"uint256"},{"name":"minAmountsOut","type":"uint256[]","internalType":"uint256[]"}],"outputs":[{"name":"amountsOut","type":"uint256[]","internalType":"uint256[]"}],"stateMutability":"nonpayable"},{"type":"function","name":"removeLiquiditySingleTokenExactIn","inputs":[{"name":"pool","type":"address","internalType":"address"},{"name":"exactBptAmountIn","type":"uint256","internalType":"uint256"},{"name":"tokenOut","type":"address","internalType":"contract IERC20"},{"name":"minAmountOut","type":"uint256","internalType":"uint256"},{"name":"wethIsEth","type":"bool","internalType":"bool"},{"name":"userData","type":"bytes","internalType":"bytes"}],"outputs":[{"name":"amountOut","type":"uint256","internalType":"uint256"}],"stateMutability":"payable"},{"type":"function","name":"removeLiquiditySingleTokenExactOut","inputs":[{"name":"pool","type":"address","internalType":"address"},{"name":"maxBptAmountIn","type":"uint256","internalType":"uint256"},{"name":"tokenOut","type":"address","internalType":"contract IERC20"},{"name":"exactAmountOut","type":"uint256","internalType":"uint256"},{"name":"wethIsEth","type":"bool","internalType":"bool"},{"name":"userData","type":"bytes","internalType":"bytes"}],"outputs":[{"name":"bptAmountIn","type":"uint256","internalType":"uint256"}],"stateMutability":"payable"},{"type":"function","name":"swapSingleTokenExactIn","inputs":[{"name":"pool","type":"address","internalType":"address"},{"name":"tokenIn","type":"address","internalType":"contract IERC20"},{"name":"tokenOut","type":"address","internalType":"contract IERC20"},{"name":"exactAmountIn","type":"uint256","internalType":"uint256"},{"name":"minAmountOut","type":"uint256","internalType":"uint256"},{"name":"deadline","type":"uint256","internalType":"uint256"},{"name":"wethIsEth","type":"bool","internalType":"bool"},{"name":"userData","type":"bytes","internalType":"bytes"}],"outputs":[{"name":"","type":"uint256","internalType":"uint256"}],"stateMutability":"payable"},{"type":"function","name":"swapSingleTokenExactOut","inputs":[{"name":"pool","type":"address","internalType":"address"},{"name":"tokenIn","type":"address","internalType":"contract IERC20"},{"name":"tokenOut","type":"address","internalType":"contract IERC20"},{"name":"exactAmountOut","type":"uint256","internalType":"uint256"},{"name":"maxAmountIn","type":"uint256","internalType":"uint256"},{"name":"deadline","type":"uint256","internalType":"uint256"},{"name":"wethIsEth","type":"bool","internalType":"bool"},{"name":"userData","type":"bytes","internalType":"bytes"}],"outputs":[{"name":"","type":"uint256","internalType":"uint256"}],"stateMutability":"payable"},{"type":"function","name":"swapSingleTokenHook","inputs":[{"name":"params","type":"tuple","internalType":"struct SwapSingleTokenHookParams","components":[{"name":"sender","type":"address","internalType":"address"},{"name":"kind","type":"uint8","internalType":"enum SwapKind"},{"name":"pool","type":"address","internalType":"address"},{"name":"tokenIn","type":"address","internalType":"contract IERC20"},{"name":"tokenOut","type":"address","internalType":"contract IERC20"},{"name":"amountGiven","type":"uint256","internalType":"uint256"},{"name":"limit","type":"uint256","internalType":"uint256"},{"name":"deadline","type":"uint256","internalType":"uint256"},{"name":"wethIsEth","type":"bool","internalType":"bool"},{"name":"userData","type":"bytes","internalType":"bytes"}]}],"outputs":[{"name":"","type":"uint256","internalType":"uint256"}],"stateMutability":"nonpayable"},{"type":"function","name":"version","inputs":[],"outputs":[{"name":"","type":"string","internalType":"string"}],"stateMutability":"view"},{"type":"error","name":"AddressEmptyCode","inputs":[{"name":"target","type":"address","internalType":"address"}]},{"type":"error","name":"ErrorSelectorNotFound","inputs":[]},{"type":"error","name":"EthTransfer","inputs":[]},{"type":"error","name":"FailedCall","inputs":[]},{"type":"error","name":"InputLengthMismatch","inputs":[]},{"type":"error","name":"InsufficientBalance","inputs":[{"name":"balance","type":"uint256","internalType":"uint256"},{"name":"needed","type":"uint256","internalType":"uint256"}]},{"type":"error","name":"InsufficientEth","inputs":[]},{"type":"error","name":"InsufficientPayment","inputs":[{"name":"token","type":"address","internalType":"contract IERC20"}]},{"type":"error","name":"OperationNotSupported","inputs":[]},{"type":"error","name":"ReentrancyGuardReentrantCall","inputs":[]},{"type":"error","name":"SenderIsNotVault","inputs":[{"name":"sender","type":"address","internalType":"address"}]},{"type":"error","name":"SwapDeadline","inputs":[]}],"bytecode":{"object":"0x600b6101409081526a14d95b99195c91dd585c9960aa1b610160526101c060405260066101809081526539b2b73232b960d11b6101a052610040919061010e565b608052604080518082018252600c81526b2937baba32b921b7b6b6b7b760a11b602080830191909152825180840190935260118352701a5cd4995d1d5c9b915d1a131bd8dad959607a1b908301526100979161010e565b60c0523480156100a5575f5ffd5b506040516168683803806168688339810160408190526100c4916101b7565b6001600160a01b03841660a0528383838383838383806100e38161017d565b50506001600160a01b0391821660e05216610100819052156101205250610463975050505050505050565b5f60ff5f1b19600184846040516020016101299291906102b8565b604051602081830303815290604052805190602001205f1c61014b9190610306565b60405160200161015d91815260200190565b604051602081830303815290604052805190602001201690505b92915050565b5f61018882826103a9565b5050565b6001600160a01b03811681146101a0575f5ffd5b50565b634e487b7160e01b5f52604160045260245ffd5b5f5f5f5f608085870312156101ca575f5ffd5b84516101d58161018c565b60208601519094506101e68161018c565b60408601519093506101f78161018c565b60608601519092506001600160401b03811115610212575f5ffd5b8501601f81018713610222575f5ffd5b80516001600160401b0381111561023b5761023b6101a3565b604051601f8201601f19908116603f011681016001600160401b0381118282101715610269576102696101a3565b604052818152828201602001891015610280575f5ffd5b8160208401602083015e5f6020838301015280935050505092959194509250565b5f81518060208401855e5f93019283525090919050565b7f62616c616e6365722d6c6162732e76332e73746f726167652e0000000000000081525f6102e960198301856102a1565b601760f91b81526102fd60018201856102a1565b95945050505050565b8181038181111561017757634e487b7160e01b5f52601160045260245ffd5b600181811c9082168061033957607f821691505b60208210810361035757634e487b7160e01b5f52602260045260245ffd5b50919050565b601f8211156103a457805f5260205f20601f840160051c810160208510156103825750805b601f840160051c820191505b818110156103a1575f815560010161038e565b50505b505050565b81516001600160401b038111156103c2576103c26101a3565b6103d6816103d08454610325565b8461035d565b6020601f821160018114610408575f83156103f15750848201515b5f19600385901b1c1916600184901b1784556103a1565b5f84815260208120601f198516915b828110156104375787850151825560209485019460019092019101610417565b508482101561045457868401515f19600387901b60f8161c191681555b50505050600190811b01905550565b60805160a05160c05160e05161010051610120516162136106555f395f8181610dac01528181611e4c0152818161310a015261347801525f818161034f01528181612d0001526141b201525f81816101dd015281816102d501528181613149015281816134c1015281816136dc015281816141210152818161415f015281816143b301526143f101525f613cff01525f818161055a015281816106d90152818161083f0152818161093d01528181610a9e01528181610b6f01528181610d2a01528181610e3901528181610fc401528181611133015281816111dc015281816112c8015281816114590152818161166f015281816117d30152818161195b01528181611b0301528181611c8601528181611cc901528181611fa0015281816120fe015281816121f901528181612340015281816124550152818161256b015281816126d0015281816128cb0152818161291f01528181612d8001528181612e8101528181613021015281816131d3015281816132f5015281816133dc0152818161357e01528181613739015281816138dc015281816139f401528181613a7601528181613b3501528181613beb01528181613dcf01528181613f7c01528181614180015281816141e20152818161428a015281816144120152818161444f01526144e501525f6132ce01526162135ff3fe6080604052600436106101cd575f3560e01c8063026b3d9514610221578063086fad661461024757806308c04793146102665780630ca078ec146102865780630f710888146102a8578063107c279f146102c7578063175d44081461030257806319c6989f146103215780631bbf2e23146103415780631d56798d1461037357806323b39241146103925780633ebc54e5146103b1578063452db952146103d057806351682750146103ef57806353d0bb981461040257806354fd4d50146104215780635b343791146104425780635e01eb5a146104615780635f9815ff1461047557806368a24fe014610494578063724dba33146104b357806372657d17146104c6578063750283bc146104d95780637b03c7ba146104ec57806382bf2b241461051a57806382cd54fb1461052d5780638d928af81461054c57806394e86ef81461057e5780639de9051814610591578063ac9650d8146105b0578063b037ed36146105c3578063b24bd571146105e2578063be5ae84114610601578063bf6ee3fd14610620578063c08bc85114610633578063c330c7be14610646578063da001f7d14610665578063e7326def14610684578063ecb2182c14610697578063efd85f14146106aa575f5ffd5b3661021d57336001600160a01b037f0000000000000000000000000000000000000000000000000000000000000000161461021b576040516302a06efb60e11b815260040160405180910390fd5b005b5f5ffd5b61023461022f366004614b23565b6106c9565b6040519081526020015b60405180910390f35b348015610252575f5ffd5b50610234610261366004614c49565b610812565b610279610274366004614c7a565b61083b565b60405161023e9190614d08565b610299610294366004614d1a565b610929565b60405161023e93929190614dd6565b3480156102b3575f5ffd5b506102796102c2366004614e0a565b610a8c565b3480156102d2575f5ffd5b507f00000000000000000000000000000000000000000000000000000000000000005b60405161023e9190614e7e565b34801561030d575f5ffd5b5061023461031c366004614e92565b610cb9565b61033461032f366004614fbd565b610da8565b60405161023e91906150b2565b34801561034c575f5ffd5b507f00000000000000000000000000000000000000000000000000000000000000006102f5565b34801561037e575f5ffd5b5061023461038d366004615115565b610e10565b34801561039d575f5ffd5b506102346103ac36600461515b565b610fa1565b3480156103bc575f5ffd5b506102346103cb366004614e92565b61110b565b3480156103db575f5ffd5b506102996103ea3660046151a1565b6111c8565b6102796103fd3660046151fe565b6112b7565b34801561040d575f5ffd5b5061023461041c366004615115565b611409565b34801561042c575f5ffd5b50610435611551565b60405161023e9190615259565b34801561044d575f5ffd5b5061029961045c366004614c49565b6115e0565b34801561046c575f5ffd5b506102f5611613565b348015610480575f5ffd5b5061027961048f36600461526b565b611628565b34801561049f575f5ffd5b506102346104ae3660046152a9565b611644565b6102796104c1366004614d1a565b61165e565b6102346104d43660046152e0565b6117b1565b6102346104e736600461532c565b611933565b3480156104f7575f5ffd5b5061050b610506366004614c49565b611ad3565b60405161023e939291906153b9565b61050b6105283660046151fe565b611af0565b348015610538575f5ffd5b506102796105473660046153e3565b611c36565b348015610557575f5ffd5b507f00000000000000000000000000000000000000000000000000000000000000006102f5565b61023461058c36600461532c565b611c5e565b34801561059c575f5ffd5b506102796105ab366004614e0a565b611cb8565b6103346105be36600461543e565b611e00565b3480156105ce575f5ffd5b506102796105dd36600461547c565b611f9c565b3480156105ed575f5ffd5b5061050b6105fc366004614c49565b612089565b34801561060c575f5ffd5b5061023461061b3660046152a9565b6120ab565b61021b61062e3660046154a6565b6120c5565b610234610641366004614d1a565b6121e9565b348015610651575f5ffd5b5061050b6106603660046154f9565b61232d565b348015610670575f5ffd5b5061023461067f366004615556565b61241b565b6102346106923660046155ab565b61254c565b6102346106a53660046155ab565b6126ae565b3480156106b5575f5ffd5b506102996106c4366004614c49565b61281a565b5f335f6106d582612830565b90507f00000000000000000000000000000000000000000000000000000000000000006001600160a01b03166348c894916040518060e00160405280336001600160a01b031681526020018c6001600160a01b031681526020018b81526020018a815260200189815260200188151581526020018781525060405160240161075d9190615630565b60408051601f198184030181529181526020820180516001600160e01b0316630437d6b360e11b179052516001600160e01b031960e084901b1681526107a69190600401615259565b5f604051808303815f875af11580156107c1573d5f5f3e3d5ffd5b505050506040513d5f823e601f3d908101601f191682016040526107e89190810190615714565b8060200190518101906107fb9190615745565b925061080681612864565b50509695505050505050565b5f61081b612879565b6108236128c0565b61082c82612914565b9050610836612aa7565b919050565b60607f00000000000000000000000000000000000000000000000000000000000000006001600160a01b03166348c8949185338686604051602401610883949392919061575c565b60408051601f198184030181529181526020820180516001600160e01b03166382cd54fb60e01b179052516001600160e01b031960e084901b1681526108cc9190600401615259565b5f604051808303815f875af11580156108e7573d5f5f3e3d5ffd5b505050506040513d5f823e601f3d908101601f1916820160405261090e9190810190615714565b80602001905181019061092191906157e9565b949350505050565b60605f6060335f61093982612830565b90507f00000000000000000000000000000000000000000000000000000000000000006001600160a01b03166348c894916040518060e00160405280336001600160a01b031681526020018d6001600160a01b031681526020018c81526020018b81526020016004808111156109b1576109b161581a565b81526020018a15158152602001898152506040516024016109d29190615842565b60408051601f198184030181529181526020820180516001600160e01b0316635b34379160e01b179052516001600160e01b031960e084901b168152610a1b9190600401615259565b5f604051808303815f875af1158015610a36573d5f5f3e3d5ffd5b505050506040513d5f823e601f3d908101601f19168201604052610a5d9190810190615714565b806020019051810190610a7091906158c6565b945094509450610a7f81612864565b5050955095509592505050565b6060825f610a9982612830565b90505f7f00000000000000000000000000000000000000000000000000000000000000006001600160a01b031663ca4f2803896040518263ffffffff1660e01b8152600401610ae89190614e7e565b5f60405180830381865afa158015610b02573d5f5f3e3d5ffd5b505050506040513d5f823e601f3d908101601f19168201604052610b299190810190615929565b516001600160401b03811115610b4157610b416149d1565b604051908082528060200260200182016040528015610b6a578160200160208202803683370190505b5090507f00000000000000000000000000000000000000000000000000000000000000006001600160a01b031663edfa35686040518060e00160405280306001600160a01b031681526020018b6001600160a01b031681526020018481526020018a81526020015f6003811115610be357610be361581a565b81525f6020820152604090810189905251610c0191906024016159c8565b60408051601f198184030181529181526020820180516001600160e01b031663b24bd57160e01b179052516001600160e01b031960e084901b168152610c4a9190600401615259565b5f604051808303815f875af1158015610c65573d5f5f3e3d5ffd5b505050506040513d5f823e601f3d908101601f19168201604052610c8c9190810190615714565b806020019051810190610c9f9190615a24565b509450610caf9150829050612864565b5050949350505050565b5f825f610cc582612830565b6040805161014081018252338152600160208201526001600160a01b038c8116828401528b811660608301528a8116608083015260a082018a90526001600160801b0360c08301525f1960e08301525f610100830152610120820188905291519293507f00000000000000000000000000000000000000000000000000000000000000009091169163edfa356891610d5f91602401615a8c565b60408051601f198184030181529181526020820180516001600160e01b031663be5ae84160e01b179052516001600160e01b031960e084901b1681526107a69190600401615259565b60607f000000000000000000000000000000000000000000000000000000000000000015610de9576040516329a270f560e01b815260040160405180910390fd5b610df88a8a8a8a8a8a8a612abe565b610e028383611e00565b9a9950505050505050505050565b5f825f610e1c82612830565b90505f80610e328a8a6001600160801b03612d7a565b915091505f7f00000000000000000000000000000000000000000000000000000000000000006001600160a01b031663edfa35686040518060e00160405280306001600160a01b031681526020018e6001600160a01b031681526020018681526020018c815260200160026004811115610eae57610eae61581a565b81525f602082015260409081018b905251610ecc9190602401615842565b60408051601f198184030181529181526020820180516001600160e01b0316633bf617c560e21b179052516001600160e01b031960e084901b168152610f159190600401615259565b5f604051808303815f875af1158015610f30573d5f5f3e3d5ffd5b505050506040513d5f823e601f3d908101601f19168201604052610f579190810190615714565b806020019051810190610f6a91906158c6565b50509050808281518110610f8057610f80615b3b565b60200260200101519550505050610f9681612864565b505095945050505050565b5f825f610fad82612830565b90505f5f610fbd8a896001612d7a565b915091505f7f00000000000000000000000000000000000000000000000000000000000000006001600160a01b031663edfa35686040518060e00160405280306001600160a01b031681526020018e6001600160a01b031681526020018681526020018d8152602001600160038111156110395761103961581a565b81525f602082015260409081018b90525161105791906024016159c8565b60408051601f198184030181529181526020820180516001600160e01b031663b24bd57160e01b179052516001600160e01b031960e084901b1681526110a09190600401615259565b5f604051808303815f875af11580156110bb573d5f5f3e3d5ffd5b505050506040513d5f823e601f3d908101601f191682016040526110e29190810190615714565b8060200190518101906110f59190615a24565b50915050808281518110610f8057610f80615b3b565b5f825f61111782612830565b6040805161014081019091523381529091506001600160a01b037f0000000000000000000000000000000000000000000000000000000000000000169063edfa356890602081015f81526020018c6001600160a01b031681526020018b6001600160a01b031681526020018a6001600160a01b031681526020018981526020015f81526020016001600160801b03801681526020015f1515815260200187815250604051602401610d5f9190615a8c565b60605f6060845f6111d882612830565b90507f00000000000000000000000000000000000000000000000000000000000000006001600160a01b031663edfa35686040518060e00160405280306001600160a01b031681526020018d6001600160a01b031681526020018c81526020018b81526020016004808111156112505761125061581a565b81525f602082015260409081018a90525161126e9190602401615842565b60408051601f198184030181529181526020820180516001600160e01b0316633bf617c560e21b179052516001600160e01b031960e084901b168152610a1b9190600401615259565b6060335f6112c482612830565b90507f00000000000000000000000000000000000000000000000000000000000000006001600160a01b03166348c894916040518060e00160405280336001600160a01b031681526020018b6001600160a01b031681526020018981526020018a81526020015f600381111561133c5761133c61581a565b815260200188151581526020018781525060405160240161135d91906159c8565b60408051601f198184030181529181526020820180516001600160e01b0316633d81e3dd60e11b179052516001600160e01b031960e084901b1681526113a69190600401615259565b5f604051808303815f875af11580156113c1573d5f5f3e3d5ffd5b505050506040513d5f823e601f3d908101601f191682016040526113e89190810190615714565b8060200190518101906113fb9190615a24565b509350610f96905081612864565b5f825f61141582612830565b90505f611423898989612d7a565b506040805160e0810182523081526001600160a01b038c811660208301529181018390526001600160801b0360608201529192507f0000000000000000000000000000000000000000000000000000000000000000169063edfa35689060808101600281525f60208201526040908101899052516114a491906024016159c8565b60408051601f198184030181529181526020820180516001600160e01b031663b24bd57160e01b179052516001600160e01b031960e084901b1681526114ed9190600401615259565b5f604051808303815f875af1158015611508573d5f5f3e3d5ffd5b505050506040513d5f823e601f3d908101601f1916820160405261152f9190810190615714565b8060200190518101906115429190615a24565b509094505050610f9681612864565b60605f805461155f90615b4f565b80601f016020809104026020016040519081016040528092919081815260200182805461158b90615b4f565b80156115d65780601f106115ad576101008083540402835291602001916115d6565b820191905f5260205f20905b8154815290600101906020018083116115b957829003601f168201915b5050505050905090565b60605f60606115ed612879565b6115f56128c0565b6115fe84612e7a565b92509250925061160c612aa7565b9193909250565b5f61162361161f6132cc565b5c90565b905090565b60606116326128c0565b6109218484846132f0565b9392505050565b5f61164d612879565b6116556128c0565b61082c82613462565b6060335f61166b82612830565b90507f00000000000000000000000000000000000000000000000000000000000000006001600160a01b03166348c894916040518060e00160405280336001600160a01b031681526020018b6001600160a01b031681526020018a81526020018981526020015f60048111156116e3576116e361581a565b81526020018815158152602001878152506040516024016117049190615842565b60408051601f198184030181529181526020820180516001600160e01b0316635b34379160e01b179052516001600160e01b031960e084901b16815261174d9190600401615259565b5f604051808303815f875af1158015611768573d5f5f3e3d5ffd5b505050506040513d5f823e601f3d908101601f1916820160405261178f9190810190615714565b8060200190518101906117a291906158c6565b50909350610f96905081612864565b5f335f6117bd82612830565b90505f5f6117cc8b8b8b612d7a565b915091505f7f00000000000000000000000000000000000000000000000000000000000000006001600160a01b03166348c894916040518060e00160405280336001600160a01b031681526020018f6001600160a01b031681526020018681526020018c8152602001600260048111156118485761184861581a565b81526020018b151581526020018a8152506040516024016118699190615842565b60408051601f198184030181529181526020820180516001600160e01b0316635b34379160e01b179052516001600160e01b031960e084901b1681526118b29190600401615259565b5f604051808303815f875af11580156118cd573d5f5f3e3d5ffd5b505050506040513d5f823e601f3d908101601f191682016040526118f49190810190615714565b80602001905181019061190791906158c6565b5050905080828151811061191d5761191d615b3b565b6020026020010151955050505061080681612864565b5f335f61193f82612830565b6040805161014081019091523381529091506001600160a01b037f000000000000000000000000000000000000000000000000000000000000000016906348c8949190602081015f5b81526020018f6001600160a01b031681526020018e6001600160a01b031681526020018d6001600160a01b031681526020018c81526020018b81526020018a8152602001891515815260200188888080601f0160208091040260200160405190810160405280939291908181526020018383808284375f920191909152505050915250604051611a1b9190602401615a8c565b60408051601f198184030181529181526020820180516001600160e01b0316630345127f60e51b179052516001600160e01b031960e084901b168152611a649190600401615259565b5f604051808303815f875af1158015611a7f573d5f5f3e3d5ffd5b505050506040513d5f823e601f3d908101601f19168201604052611aa69190810190615714565b806020019051810190611ab99190615745565b9250611ac481612864565b50509998505050505050505050565b5f606080611adf612879565b611ae76128c0565b6115fe84613733565b5f606080335f611aff82612830565b90507f00000000000000000000000000000000000000000000000000000000000000006001600160a01b03166348c894916040518060e00160405280336001600160a01b031681526020018d6001600160a01b031681526020018b81526020018c8152602001600380811115611b7757611b7761581a565b81526020018a1515815260200189815250604051602401611b9891906159c8565b60408051601f198184030181529181526020820180516001600160e01b0316633d81e3dd60e11b179052516001600160e01b031960e084901b168152611be19190600401615259565b5f604051808303815f875af1158015611bfc573d5f5f3e3d5ffd5b505050506040513d5f823e601f3d908101601f19168201604052611c239190810190615714565b806020019051810190610a709190615a24565b6060611c40612879565b611c486128c0565b611c54858585856139da565b9050610921612aa7565b5f335f611c6a82612830565b6040805161014081019091523381529091506001600160a01b037f000000000000000000000000000000000000000000000000000000000000000016906348c8949190602081016001611988565b6060825f611cc582612830565b90507f00000000000000000000000000000000000000000000000000000000000000006001600160a01b031663edfa35686040518060e00160405280306001600160a01b031681526020018a6001600160a01b03168152602001611d288b613be6565b8152602081018a90526040015f81525f6020820152604090810188905251611d539190602401615842565b60408051601f198184030181529181526020820180516001600160e01b0316633bf617c560e21b179052516001600160e01b031960e084901b168152611d9c9190600401615259565b5f604051808303815f875af1158015611db7573d5f5f3e3d5ffd5b505050506040513d5f823e601f3d908101601f19168201604052611dde9190810190615714565b806020019051810190611df191906158c6565b50909350610caf905081612864565b60605f611e0c33612830565b9050611e1961161f613cfd565b15611e3757604051633ee5aeb560e01b815260040160405180910390fd5b611e4a6001611e44613cfd565b90613d21565b7f000000000000000000000000000000000000000000000000000000000000000015611e89576040516329a270f560e01b815260040160405180910390fd5b826001600160401b03811115611ea157611ea16149d1565b604051908082528060200260200182016040528015611ed457816020015b6060815260200190600190039081611ebf5790505b5091505f5b83811015611f6757611f4230868684818110611ef757611ef7615b3b565b9050602002810190611f099190615b81565b8080601f0160208091040260200160405190810160405280939291908181526020018383808284375f92019190915250613d2892505050565b838281518110611f5457611f54615b3b565b6020908102919091010152600101611ed9565b50611f745f611e44613cfd565b5f611f8061161f6132cc565b9050611f8b82612864565b611f9481613d91565b505092915050565b60607f00000000000000000000000000000000000000000000000000000000000000006001600160a01b031663edfa3568843085604051602401611fe293929190615bc3565b60408051601f198184030181529181526020820180516001600160e01b0316635f9815ff60e01b179052516001600160e01b031960e084901b16815261202b9190600401615259565b5f604051808303815f875af1158015612046573d5f5f3e3d5ffd5b505050506040513d5f823e601f3d908101601f1916820160405261206d9190810190615714565b80602001905181019061208091906157e9565b90505b92915050565b5f6060806120956128c0565b61209e84613dc9565b9250925092509193909250565b5f6120b4612879565b6120bc6128c0565b61082c82613f60565b335f6120d082612830565b6040805160e0810182523381526001600160a01b0389811660208301529181018890525f60608201529192507f000000000000000000000000000000000000000000000000000000000000000016906348c8949190608081016003815260200187151581526020018681525060405160240161214c9190615842565b60408051601f198184030181529181526020820180516001600160e01b0316635b34379160e01b179052516001600160e01b031960e084901b1681526121959190600401615259565b5f604051808303815f875af11580156121b0573d5f5f3e3d5ffd5b505050506040513d5f823e601f3d908101601f191682016040526121d79190810190615714565b506121e181612864565b505050505050565b5f335f6121f582612830565b90507f00000000000000000000000000000000000000000000000000000000000000006001600160a01b03166348c894916040518060e00160405280336001600160a01b031681526020018b6001600160a01b031681526020018a81526020018981526020016001600481111561226e5761226e61581a565b815260200188151581526020018781525060405160240161228f9190615842565b60408051601f198184030181529181526020820180516001600160e01b0316635b34379160e01b179052516001600160e01b031960e084901b1681526122d89190600401615259565b5f604051808303815f875af11580156122f3573d5f5f3e3d5ffd5b505050506040513d5f823e601f3d908101601f1916820160405261231a9190810190615714565b8060200190518101906113fb91906158c6565b5f606080845f61233c82612830565b90507f00000000000000000000000000000000000000000000000000000000000000006001600160a01b031663edfa35686040518060e00160405280306001600160a01b031681526020018d6001600160a01b031681526020018b81526020018c81526020016003808111156123b4576123b461581a565b81525f602082015260409081018a9052516123d291906024016159c8565b60408051601f198184030181529181526020820180516001600160e01b031663b24bd57160e01b179052516001600160e01b031960e084901b168152611be19190600401615259565b5f825f61242782612830565b6040805160e0810182523081526001600160a01b038a811660208301529181018990525f60608201529192507f0000000000000000000000000000000000000000000000000000000000000000169063edfa35689060808101600181525f60208201526040908101889052516124a09190602401615842565b60408051601f198184030181529181526020820180516001600160e01b0316633bf617c560e21b179052516001600160e01b031960e084901b1681526124e99190600401615259565b5f604051808303815f875af1158015612504573d5f5f3e3d5ffd5b505050506040513d5f823e601f3d908101601f1916820160405261252b9190810190615714565b80602001905181019061253e91906158c6565b509350610caf905081612864565b5f335f61255882612830565b90505f6125668a8989612d7a565b5090507f00000000000000000000000000000000000000000000000000000000000000006001600160a01b03166348c894916040518060e00160405280336001600160a01b031681526020018d6001600160a01b031681526020018481526020018c8152602001600260038111156125e0576125e061581a565b815260200189151581526020018881525060405160240161260191906159c8565b60408051601f198184030181529181526020820180516001600160e01b0316633d81e3dd60e11b179052516001600160e01b031960e084901b16815261264a9190600401615259565b5f604051808303815f875af1158015612665573d5f5f3e3d5ffd5b505050506040513d5f823e601f3d908101601f1916820160405261268c9190810190615714565b80602001905181019061269f9190615a24565b50909450505061080681612864565b5f335f6126ba82612830565b90505f5f6126c98b8a8a612d7a565b915091505f7f00000000000000000000000000000000000000000000000000000000000000006001600160a01b03166348c894916040518060e00160405280336001600160a01b031681526020018f6001600160a01b031681526020018681526020018e8152602001600160038111156127455761274561581a565b81526020018b151581526020018a81525060405160240161276691906159c8565b60408051601f198184030181529181526020820180516001600160e01b0316633d81e3dd60e11b179052516001600160e01b031960e084901b1681526127af9190600401615259565b5f604051808303815f875af11580156127ca573d5f5f3e3d5ffd5b505050506040513d5f823e601f3d908101601f191682016040526127f19190810190615714565b8060200190518101906128049190615a24565b5091505080828151811061191d5761191d615b3b565b60605f60606128276128c0565b61209e84613f75565b5f5f61283d61161f6132cc565b90506001600160a01b03811661285e5761285983611e446132cc565b600191505b50919050565b8015612876576128765f611e446132cc565b50565b5f5160206161be5f395f51905f525c156128a657604051633ee5aeb560e01b815260040160405180910390fd5b6128be60015f5160206161be5f395f51905f52611e44565b565b336001600160a01b037f000000000000000000000000000000000000000000000000000000000000000016146128be573360405163089676d560e01b815260040161290b9190614e7e565b60405180910390fd5b5f6001600160a01b037f00000000000000000000000000000000000000000000000000000000000000001663ba8a2be06129546040850160208601615be7565b6129616020860186615be7565b61296e6040870187615c02565b61297b6060890189615c02565b60808a013561298d60c08c018c615b81565b6040518a63ffffffff1660e01b81526004016129b199989796959493929190615c9f565b6020604051808303815f875af11580156129cd573d5f5f3e3d5ffd5b505050506040513d601f19601f820116820180604052508101906129f19190615745565b90505f5b612a026040840184615c02565b9050811015612a9157612a89612a1b6020850185615be7565b612a286040860186615c02565b84818110612a3857612a38615b3b565b9050602002016020810190612a4d9190615be7565b612a5a6060870187615c02565b85818110612a6a57612a6a615b3b565b905060200201358660a0016020810190612a849190615d39565b614117565b6001016129f5565b50610836612aa26020840184615be7565b613d91565b6128be5f5f5160206161be5f395f51905f52611e44565b612ac6612879565b612ad0868561430b565b5f5b86811015612cd5575f868683818110612aed57612aed615b3b565b9050602002810190612aff9190615b81565b8080601f0160208091040260200160405190810160405280939291908181526020018383808284375f920182905250939450612b40925084915061432b9050565b90505f8a8a85818110612b5557612b55615b3b565b905060c00201803603810190612b6b9190615d52565b8051602080830151606084015160a08501516040808901518951958a0151915163d505accf60e01b81526001600160a01b0395861660048201523060248201526044810194909452606484019290925260ff909116608483015260a482019390935260c481019290925292935091169063d505accf9060e4015f604051808303815f87803b158015612bfb575f5ffd5b505af1925050508015612c0c575060015b612cc7573d808015612c39576040519150601f19603f3d011682016040523d82523d5f602084013e612c3e565b606091505b50606082015182516020840151604051636eb1769f60e11b81526001600160a01b039092169163dd62ed3e91612c78913090600401615de3565b602060405180830381865afa158015612c93573d5f5f3e3d5ffd5b505050506040513d601f19601f82011682018060405250810190612cb79190615745565b14612cc557612cc58161437a565b505b505050806001019050612ad2565b505f612ce18480615dfd565b90501115612d6957604051632a2d80d160e01b81526001600160a01b037f00000000000000000000000000000000000000000000000000000000000000001690632a2d80d190612d3b903390879087908790600401615e57565b5f604051808303815f87803b158015612d52575f5ffd5b505af1158015612d64573d5f5f3e3d5ffd5b505050505b612d71612aa7565b50505050505050565b60605f5f7f00000000000000000000000000000000000000000000000000000000000000006001600160a01b031663c9c1661b87876040518363ffffffff1660e01b8152600401612dcc929190615de3565b6040805180830381865afa158015612de6573d5f5f3e3d5ffd5b505050506040513d601f19601f82011682018060405250810190612e0a9190615f7e565b92509050806001600160401b03811115612e2657612e266149d1565b604051908082528060200260200182016040528015612e4f578160200160208202803683370190505b50925083838381518110612e6557612e65615b3b565b60200260200101818152505050935093915050565b60605f60607f00000000000000000000000000000000000000000000000000000000000000006001600160a01b0316634af29ec46040518060c00160405280876020016020810190612ecc9190615be7565b6001600160a01b03168152602090810190612ee990890189615be7565b6001600160a01b03168152602001612f046040890189615c02565b808060200260200160405190810160405280939291908181526020018383602002808284375f9201919091525050509082525060608801356020820152604001612f5460a0890160808a01615fa0565b6004811115612f6557612f6561581a565b8152602001612f7760c0890189615b81565b8080601f0160208091040260200160405190810160405280939291908181526020018383808284375f9201919091525050509152506040516001600160e01b031960e084901b168152612fcd9190600401615fbe565b5f604051808303815f875af1158015612fe8573d5f5f3e3d5ffd5b505050506040513d5f823e601f3d908101601f1916820160405261300f91908101906158c6565b919450925090505f6001600160a01b037f00000000000000000000000000000000000000000000000000000000000000001663ca4f28036130566040880160208901615be7565b6040518263ffffffff1660e01b81526004016130729190614e7e565b5f60405180830381865afa15801561308c573d5f5f3e3d5ffd5b505050506040513d5f823e601f3d908101601f191682016040526130b39190810190615929565b90505f5b81518110156132b3575f8282815181106130d3576130d3615b3b565b602002602001015190505f8683815181106130f0576130f0615b3b565b60200260200101519050805f036131085750506132ab565b7f0000000000000000000000000000000000000000000000000000000000000000158061317d575061314060c0890160a08a01615d39565b801561317d57507f00000000000000000000000000000000000000000000000000000000000000006001600160a01b0316826001600160a01b0316145b156131a9576131a461319260208a018a615be7565b8383612a8460c08d0160a08e01615d39565b6132a8565b5f6131b760408a018a615c02565b858181106131c7576131c7615b3b565b9050602002013590505f7f00000000000000000000000000000000000000000000000000000000000000006001600160a01b03166315afd40985846040518363ffffffff1660e01b815260040161321f929190616035565b6020604051808303815f875af115801561323b573d5f5f3e3d5ffd5b505050506040513d601f19601f8201168201806040525081019061325f9190615745565b90508181101561328457836040516302150b5560e01b815260040161290b9190614e7e565b6132a561329460208c018c615be7565b8561329f868561604e565b5f6143a3565b50505b50505b6001016130b7565b506132c4612aa26020870187615be7565b509193909250565b7f000000000000000000000000000000000000000000000000000000000000000090565b60605f7f00000000000000000000000000000000000000000000000000000000000000006001600160a01b031663ca4f2803866040518263ffffffff1660e01b815260040161333f9190614e7e565b5f60405180830381865afa158015613359573d5f5f3e3d5ffd5b505050506040513d5f823e601f3d908101601f191682016040526133809190810190615929565b516001600160401b03811115613398576133986149d1565b6040519080825280602002602001820160405280156133c1578160200160208202803683370190505b50604051630281f58160e61b81529091506001600160a01b037f0000000000000000000000000000000000000000000000000000000000000000169063a07d60409061341790889088908890879060040161575c565b5f604051808303815f875af1158015613432573d5f5f3e3d5ffd5b505050506040513d5f823e601f3d908101601f1916820160405261345991908101906157e9565b95945050505050565b5f5f5f5f61346f856144bb565b919450925090507f000000000000000000000000000000000000000000000000000000000000000015806134fc57506134b061012086016101008701615d39565b80156134fc57506001600160a01b037f0000000000000000000000000000000000000000000000000000000000000000166134f16080870160608801615be7565b6001600160a01b0316145b15613539576135346135116020870187615be7565b6135216080880160608901615be7565b84612a846101208a016101008b01615d39565b61369a565b5f8061354b604088016020890161606d565b600181111561355c5761355c61581a565b1461356b578560c00135613571565b8560a001355b90505f6001600160a01b037f0000000000000000000000000000000000000000000000000000000000000000166315afd4096135b360808a0160608b01615be7565b846040518363ffffffff1660e01b81526004016135d1929190616035565b6020604051808303815f875af11580156135ed573d5f5f3e3d5ffd5b505050506040513d601f19601f820116820180604052508101906136119190615745565b9050818110156136455761362b6080880160608901615be7565b6040516302150b5560e01b815260040161290b9190614e7e565b60016136576040890160208a0161606d565b60018111156136685761366861581a565b036136975761369761367d6020890189615be7565b61368d60808a0160608b01615be7565b61329f878561604e565b50505b6136d26136aa6020870187615be7565b6136ba60a0880160808901615be7565b836136cd6101208a016101008b01615d39565b6143a3565b6001600160a01b037f00000000000000000000000000000000000000000000000000000000000000001661370c6080870160608801615be7565b6001600160a01b03160361372a5761372a612aa26020870187615be7565b50909392505050565b5f6060807f00000000000000000000000000000000000000000000000000000000000000006001600160a01b031663214578976040518060c001604052808760200160208101906137849190615be7565b6001600160a01b031681526020908101906137a190890189615be7565b6001600160a01b03168152602001876060013581526020018780604001906137c99190615c02565b808060200260200160405190810160405280939291908181526020018383602002808284375f9201919091525050509082525060200161380f60a0890160808a0161608b565b60038111156138205761382061581a565b815260200161383260c0890189615b81565b8080601f0160208091040260200160405190810160405280939291908181526020018383808284375f9201919091525050509152506040516001600160e01b031960e084901b16815261388891906004016160a9565b5f604051808303815f875af11580156138a3573d5f5f3e3d5ffd5b505050506040513d5f823e601f3d908101601f191682016040526138ca9190810190615a24565b919450925090505f6001600160a01b037f00000000000000000000000000000000000000000000000000000000000000001663ca4f28036139116040880160208901615be7565b6040518263ffffffff1660e01b815260040161392d9190614e7e565b5f60405180830381865afa158015613947573d5f5f3e3d5ffd5b505050506040513d5f823e601f3d908101601f1916820160405261396e9190810190615929565b90505f5b81518110156132b3576139d261398b6020880188615be7565b83838151811061399d5761399d615b3b565b60200260200101518684815181106139b7576139b7615b3b565b60200260200101518960a00160208101906136cd9190615d39565b600101613972565b604051630281f58160e61b81526060906001600160a01b037f0000000000000000000000000000000000000000000000000000000000000000169063a07d604090613a2f90889088908890889060040161575c565b5f604051808303815f875af1158015613a4a573d5f5f3e3d5ffd5b505050506040513d5f823e601f3d908101601f19168201604052613a7191908101906157e9565b90505f7f00000000000000000000000000000000000000000000000000000000000000006001600160a01b031663ca4f2803876040518263ffffffff1660e01b8152600401613ac09190614e7e565b5f60405180830381865afa158015613ada573d5f5f3e3d5ffd5b505050506040513d5f823e601f3d908101601f19168201604052613b019190810190615929565b90505f5b8151811015613bd3575f838281518110613b2157613b21615b3b565b602002602001015190505f811115613bca577f00000000000000000000000000000000000000000000000000000000000000006001600160a01b031663ae639329848481518110613b7457613b74615b3b565b602002602001015189846040518463ffffffff1660e01b8152600401613b9c93929190615bc3565b5f604051808303815f87803b158015613bb3575f5ffd5b505af1158015613bc5573d5f5f3e3d5ffd5b505050505b50600101613b05565b50613bdd85613d91565b50949350505050565b60605f7f00000000000000000000000000000000000000000000000000000000000000006001600160a01b031663ca4f2803846040518263ffffffff1660e01b8152600401613c359190614e7e565b5f60405180830381865afa158015613c4f573d5f5f3e3d5ffd5b505050506040513d5f823e601f3d908101601f19168201604052613c769190810190615929565b519050806001600160401b03811115613c9157613c916149d1565b604051908082528060200260200182016040528015613cba578160200160208202803683370190505b5091505f5b81811015613cf6576001600160801b038016838281518110613ce357613ce3615b3b565b6020908102919091010152600101613cbf565b5050919050565b7f000000000000000000000000000000000000000000000000000000000000000090565b80825d5050565b60605f5f846001600160a01b031684604051613d449190616106565b5f60405180830381855af49150503d805f8114613d7c576040519150601f19603f3d011682016040523d82523d5f602084013e613d81565b606091505b5091509150613459858383614658565b475f819003613d9e575050565b613da961161f613cfd565b15613db2575050565b613dc56001600160a01b038316826146ab565b5050565b5f6060807f00000000000000000000000000000000000000000000000000000000000000006001600160a01b031663214578976040518060c00160405280876020016020810190613e1a9190615be7565b6001600160a01b03168152602090810190613e3790890189615be7565b6001600160a01b0316815260200187606001358152602001878060400190613e5f9190615c02565b808060200260200160405190810160405280939291908181526020018383602002808284375f92019190915250505090825250602001613ea560a0890160808a0161608b565b6003811115613eb657613eb661581a565b8152602001613ec860c0890189615b81565b8080601f0160208091040260200160405190810160405280939291908181526020018383808284375f9201919091525050509152506040516001600160e01b031960e084901b168152613f1e91906004016160a9565b5f604051808303815f875af1158015613f39573d5f5f3e3d5ffd5b505050506040513d5f823e601f3d908101601f1916820160405261209e9190810190615a24565b5f5f613f6b836144bb565b5090949350505050565b60605f60607f00000000000000000000000000000000000000000000000000000000000000006001600160a01b0316634af29ec46040518060c00160405280876020016020810190613fc79190615be7565b6001600160a01b03168152602090810190613fe490890189615be7565b6001600160a01b03168152602001613fff6040890189615c02565b808060200260200160405190810160405280939291908181526020018383602002808284375f920191909152505050908252506060880135602082015260400161404f60a0890160808a01615fa0565b60048111156140605761406061581a565b815260200161407260c0890189615b81565b8080601f0160208091040260200160405190810160405280939291908181526020018383808284375f9201919091525050509152506040516001600160e01b031960e084901b1681526140c89190600401615fbe565b5f604051808303815f875af11580156140e3573d5f5f3e3d5ffd5b505050506040513d5f823e601f3d908101601f1916820160405261410a91908101906158c6565b9196909550909350915050565b80801561415557507f00000000000000000000000000000000000000000000000000000000000000006001600160a01b0316836001600160a01b0316145b156141aa576141a57f00000000000000000000000000000000000000000000000000000000000000007f00000000000000000000000000000000000000000000000000000000000000008461474a565b614305565b8115614305577f00000000000000000000000000000000000000000000000000000000000000006001600160a01b03166336c78516857f000000000000000000000000000000000000000000000000000000000000000061420a8661483f565b6040516001600160e01b031960e086901b1681526001600160a01b03938416600482015291831660248301528216604482015290861660648201526084015f604051808303815f87803b15801561425f575f5ffd5b505af1158015614271573d5f5f3e3d5ffd5b50506040516315afd40960e01b81526001600160a01b037f00000000000000000000000000000000000000000000000000000000000000001692506315afd40991506142c39086908690600401616035565b6020604051808303815f875af11580156142df573d5f5f3e3d5ffd5b505050506040513d601f19601f820116820180604052508101906143039190615745565b505b50505050565b808214613dc55760405163aaad13f760e01b815260040160405180910390fd5b61434f60405180606001604052805f81526020015f81526020015f60ff1681525090565b602082810151604080850151606090950151918452918301939093525f9290921a9181019190915290565b80511561438a5780518082602001fd5b60405163a728568960e01b815260040160405180910390fd5b8115614305578080156143e757507f00000000000000000000000000000000000000000000000000000000000000006001600160a01b0316836001600160a01b0316145b15614438576141a57f00000000000000000000000000000000000000000000000000000000000000007f00000000000000000000000000000000000000000000000000000000000000008685614849565b60405163ae63932960e01b81526001600160a01b037f0000000000000000000000000000000000000000000000000000000000000000169063ae6393299061448890869088908790600401615bc3565b5f604051808303815f87803b15801561449f575f5ffd5b505af11580156144b1573d5f5f3e3d5ffd5b5050505050505050565b5f5f5f8360e001354211156144e357604051630e08b8af60e41b815260040160405180910390fd5b7f00000000000000000000000000000000000000000000000000000000000000006001600160a01b0316632bfb780c6040518060e00160405280876020016020810190614530919061606d565b60018111156145415761454161581a565b81526020016145566060890160408a01615be7565b6001600160a01b031681526020016145746080890160608a01615be7565b6001600160a01b0316815260200161459260a0890160808a01615be7565b6001600160a01b0316815260a0880135602082015260c088013560408201526060016145c2610120890189615b81565b8080601f0160208091040260200160405190810160405280939291908181526020018383808284375f9201919091525050509152506040516001600160e01b031960e084901b168152614618919060040161611c565b6060604051808303815f875af1158015614634573d5f5f3e3d5ffd5b505050506040513d601f19601f8201168201806040525081019061410a9190616192565b60608261466d576146688261490f565b61163d565b815115801561468457506001600160a01b0384163b155b156146a45783604051639996b31560e01b815260040161290b9190614e7e565b508061163d565b804710156146d55760405163cf47918160e01b81524760048201526024810182905260440161290b565b5f826001600160a01b0316826040515f6040518083038185875af1925050503d805f811461471e576040519150601f19603f3d011682016040523d82523d5f602084013e614723565b606091505b50509050806147455760405163d6bda27560e01b815260040160405180910390fd5b505050565b8047101561476b5760405163500d4efb60e11b815260040160405180910390fd5b826001600160a01b031663d0e30db0826040518263ffffffff1660e01b81526004015f604051808303818588803b1580156147a4575f5ffd5b505af11580156147b6573d5f5f3e3d5ffd5b506147d1935050506001600160a01b03851690508383614938565b6040516315afd40960e01b81526001600160a01b038316906315afd409906147ff9086908590600401616035565b6020604051808303815f875af115801561481b573d5f5f3e3d5ffd5b505050506040513d601f19601f820116820180604052508101906143059190615745565b5f61208382614943565b60405163ae63932960e01b81526001600160a01b0384169063ae6393299061487990879030908690600401615bc3565b5f604051808303815f87803b158015614890575f5ffd5b505af11580156148a2573d5f5f3e3d5ffd5b5050604051632e1a7d4d60e01b8152600481018490526001600160a01b0387169250632e1a7d4d91506024015f604051808303815f87803b1580156148e5575f5ffd5b505af11580156148f7573d5f5f3e3d5ffd5b50614305925050506001600160a01b038316826146ab565b80511561491f5780518082602001fd5b60405163d6bda27560e01b815260040160405180910390fd5b61474583838361495b565b5f600160a01b8210614957576149576149a5565b5090565b816014528060345263a9059cbb60601b5f5260205f604460105f875af18060015f51141661499b57803d853b15171061499b576390b8ec185f526004601cfd5b505f603452505050565b6335278d125f526004601cfd5b6001600160a01b0381168114612876575f5ffd5b8035610836816149b2565b634e487b7160e01b5f52604160045260245ffd5b604051601f8201601f191681016001600160401b0381118282101715614a0d57614a0d6149d1565b604052919050565b5f6001600160401b03821115614a2d57614a2d6149d1565b5060051b60200190565b5f82601f830112614a46575f5ffd5b8135614a59614a5482614a15565b6149e5565b8082825260208201915060208360051b860101925085831115614a7a575f5ffd5b602085015b83811015614a97578035835260209283019201614a7f565b5095945050505050565b80358015158114610836575f5ffd5b5f6001600160401b03821115614ac857614ac86149d1565b50601f01601f191660200190565b5f82601f830112614ae5575f5ffd5b8135614af3614a5482614ab0565b818152846020838601011115614b07575f5ffd5b816020850160208301375f918101602001919091529392505050565b5f5f5f5f5f5f60c08789031215614b38575f5ffd5b8635614b43816149b2565b955060208701356001600160401b03811115614b5d575f5ffd5b8701601f81018913614b6d575f5ffd5b8035614b7b614a5482614a15565b8082825260208201915060208360051b85010192508b831115614b9c575f5ffd5b6020840193505b82841015614bc7578335614bb6816149b2565b825260209384019390910190614ba3565b975050505060408701356001600160401b03811115614be4575f5ffd5b614bf089828a01614a37565b94505060608701359250614c0660808801614aa1565b915060a08701356001600160401b03811115614c20575f5ffd5b614c2c89828a01614ad6565b9150509295509295509295565b5f60e0828403121561285e575f5ffd5b5f60208284031215614c59575f5ffd5b81356001600160401b03811115614c6e575f5ffd5b61092184828501614c39565b5f5f5f60608486031215614c8c575f5ffd5b8335614c97816149b2565b92506020840135915060408401356001600160401b03811115614cb8575f5ffd5b614cc486828701614a37565b9150509250925092565b5f8151808452602084019350602083015f5b82811015614cfe578151865260209586019590910190600101614ce0565b5093949350505050565b602081525f6120806020830184614cce565b5f5f5f5f5f60a08688031215614d2e575f5ffd5b8535614d39816149b2565b945060208601356001600160401b03811115614d53575f5ffd5b614d5f88828901614a37565b94505060408601359250614d7560608701614aa1565b915060808601356001600160401b03811115614d8f575f5ffd5b614d9b88828901614ad6565b9150509295509295909350565b5f81518084528060208401602086015e5f602082860101526020601f19601f83011685010191505092915050565b606081525f614de86060830186614cce565b8460208401528281036040840152614e008185614da8565b9695505050505050565b5f5f5f5f60808587031215614e1d575f5ffd5b8435614e28816149b2565b9350602085013592506040850135614e3f816149b2565b915060608501356001600160401b03811115614e59575f5ffd5b614e6587828801614ad6565b91505092959194509250565b6001600160a01b03169052565b6001600160a01b0391909116815260200190565b5f5f5f5f5f5f60c08789031215614ea7575f5ffd5b8635614eb2816149b2565b95506020870135614ec2816149b2565b94506040870135614ed2816149b2565b9350606087013592506080870135614c06816149b2565b5f5f83601f840112614ef9575f5ffd5b5081356001600160401b03811115614f0f575f5ffd5b60208301915083602060c083028501011115614f29575f5ffd5b9250929050565b5f5f83601f840112614f40575f5ffd5b5081356001600160401b03811115614f56575f5ffd5b6020830191508360208260051b8501011115614f29575f5ffd5b5f6060828403121561285e575f5ffd5b5f5f83601f840112614f90575f5ffd5b5081356001600160401b03811115614fa6575f5ffd5b602083019150836020828501011115614f29575f5ffd5b5f5f5f5f5f5f5f5f5f60a08a8c031215614fd5575f5ffd5b89356001600160401b03811115614fea575f5ffd5b614ff68c828d01614ee9565b909a5098505060208a01356001600160401b03811115615014575f5ffd5b6150208c828d01614f30565b90985096505060408a01356001600160401b0381111561503e575f5ffd5b61504a8c828d01614f70565b95505060608a01356001600160401b03811115615065575f5ffd5b6150718c828d01614f80565b90955093505060808a01356001600160401b0381111561508f575f5ffd5b61509b8c828d01614f30565b915080935050809150509295985092959850929598565b5f602082016020835280845180835260408501915060408160051b8601019250602086015f5b8281101561510957603f198786030184526150f4858351614da8565b945060209384019391909101906001016150d8565b50929695505050505050565b5f5f5f5f5f60a08688031215615129575f5ffd5b8535615134816149b2565b94506020860135615144816149b2565b9350604086013592506060860135614d75816149b2565b5f5f5f5f5f60a0868803121561516f575f5ffd5b853561517a816149b2565b9450602086013593506040860135615191816149b2565b92506060860135614d75816149b2565b5f5f5f5f5f60a086880312156151b5575f5ffd5b85356151c0816149b2565b945060208601356001600160401b038111156151da575f5ffd5b6151e688828901614a37565b945050604086013592506060860135614d75816149b2565b5f5f5f5f5f60a08688031215615212575f5ffd5b853561521d816149b2565b94506020860135935060408601356001600160401b0381111561523e575f5ffd5b61524a88828901614a37565b935050614d7560608701614aa1565b602081525f6120806020830184614da8565b5f5f5f6060848603121561527d575f5ffd5b8335615288816149b2565b92506020840135615298816149b2565b929592945050506040919091013590565b5f602082840312156152b9575f5ffd5b81356001600160401b038111156152ce575f5ffd5b8201610140818503121561163d575f5ffd5b5f5f5f5f5f5f60c087890312156152f5575f5ffd5b8635615300816149b2565b95506020870135615310816149b2565b94506040870135935060608701359250614c0660808801614aa1565b5f5f5f5f5f5f5f5f5f6101008a8c031215615345575f5ffd5b8935615350816149b2565b985060208a0135615360816149b2565b975060408a0135615370816149b2565b965060608a0135955060808a0135945060a08a0135935061539360c08b01614aa1565b925060e08a01356001600160401b038111156153ad575f5ffd5b61509b8c828d01614f80565b838152606060208201525f6153d16060830185614cce565b8281036040840152614e008185614da8565b5f5f5f5f608085870312156153f6575f5ffd5b8435615401816149b2565b93506020850135615411816149b2565b92506040850135915060608501356001600160401b03811115615432575f5ffd5b614e6587828801614a37565b5f5f6020838503121561544f575f5ffd5b82356001600160401b03811115615464575f5ffd5b61547085828601614f30565b90969095509350505050565b5f5f6040838503121561548d575f5ffd5b8235615498816149b2565b946020939093013593505050565b5f5f5f5f608085870312156154b9575f5ffd5b84356154c4816149b2565b935060208501356001600160401b038111156154de575f5ffd5b6154ea87828801614a37565b935050614e3f60408601614aa1565b5f5f5f5f5f60a0868803121561550d575f5ffd5b8535615518816149b2565b94506020860135935060408601356001600160401b03811115615539575f5ffd5b61554588828901614a37565b9350506060860135614d75816149b2565b5f5f5f5f60808587031215615569575f5ffd5b8435615574816149b2565b935060208501356001600160401b0381111561558e575f5ffd5b61559a87828801614a37565b9350506040850135614e3f816149b2565b5f5f5f5f5f5f60c087890312156155c0575f5ffd5b86356155cb816149b2565b95506020870135945060408701356155e2816149b2565b935060608701359250614c0660808801614aa1565b5f8151808452602084019350602083015f5b82811015614cfe5781516001600160a01b0316865260209586019590910190600101615609565b602080825282516001600160a01b0390811683830152908301511660408083019190915282015160e060608301525f9061566e6101008401826155f7565b90506060840151601f1984830301608085015261568b8282614cce565b915050608084015160a084015260a08401516156ab60c085018215159052565b5060c0840151838203601f190160e08501526134598282614da8565b5f82601f8301126156d6575f5ffd5b81516156e4614a5482614ab0565b8181528460208386010111156156f8575f5ffd5b8160208501602083015e5f918101602001919091529392505050565b5f60208284031215615724575f5ffd5b81516001600160401b03811115615739575f5ffd5b610921848285016156c7565b5f60208284031215615755575f5ffd5b5051919050565b6001600160a01b03858116825284166020820152604081018390526080606082018190525f90614e0090830184614cce565b5f82601f83011261579d575f5ffd5b81516157ab614a5482614a15565b8082825260208201915060208360051b8601019250858311156157cc575f5ffd5b602085015b83811015614a975780518352602092830192016157d1565b5f602082840312156157f9575f5ffd5b81516001600160401b0381111561580e575f5ffd5b6109218482850161578e565b634e487b7160e01b5f52602160045260245ffd5b6005811061583e5761583e61581a565b9052565b602080825282516001600160a01b0390811683830152908301511660408083019190915282015160e060608301525f90615880610100840182614cce565b905060608401516080840152608084015161589e60a085018261582e565b5060a0840151151560c084015260c0840151601f198483030160e08501526134598282614da8565b5f5f5f606084860312156158d8575f5ffd5b83516001600160401b038111156158ed575f5ffd5b6158f98682870161578e565b60208601516040870151919550935090506001600160401b0381111561591d575f5ffd5b614cc4868287016156c7565b5f60208284031215615939575f5ffd5b81516001600160401b0381111561594e575f5ffd5b8201601f8101841361595e575f5ffd5b805161596c614a5482614a15565b8082825260208201915060208360051b85010192508683111561598d575f5ffd5b6020840193505b82841015614e005783516159a7816149b2565b825260209384019390910190615994565b6004811061583e5761583e61581a565b602080825282516001600160a01b0390811683830152908301511660408083019190915282015160e060608301525f90615a06610100840182614cce565b905060608401516080840152608084015161589e60a08501826159b8565b5f5f5f60608486031215615a36575f5ffd5b835160208501519093506001600160401b03811115615a53575f5ffd5b615a5f8682870161578e565b604086015190935090506001600160401b0381111561591d575f5ffd5b6002811061583e5761583e61581a565b60208152615a9e602082018351614e71565b5f6020830151615ab16040840182615a7c565b506040830151615ac46060840182614e71565b506060830151615ad76080840182614e71565b506080830151615aea60a0840182614e71565b5060a083015160c083015260c083015160e083015260e0830151610100830152610100830151615b1f61012084018215159052565b5061012083015161014080840152610921610160840182614da8565b634e487b7160e01b5f52603260045260245ffd5b600181811c90821680615b6357607f821691505b60208210810361285e57634e487b7160e01b5f52602260045260245ffd5b5f5f8335601e19843603018112615b96575f5ffd5b8301803591506001600160401b03821115615baf575f5ffd5b602001915036819003821315614f29575f5ffd5b6001600160a01b039384168152919092166020820152604081019190915260600190565b5f60208284031215615bf7575f5ffd5b813561163d816149b2565b5f5f8335601e19843603018112615c17575f5ffd5b8301803591506001600160401b03821115615c30575f5ffd5b6020019150600581901b3603821315614f29575f5ffd5b8183525f6001600160fb1b03831115615c5e575f5ffd5b8260051b80836020870137939093016020019392505050565b81835281816020850137505f828201602090810191909152601f909101601f19169091010190565b6001600160a01b038a811682528916602082015260c06040820181905281018790525f8860e08301825b8a811015615cf9578235615cdc816149b2565b6001600160a01b0316825260209283019290910190600101615cc9565b508381036060850152615d0d81898b615c47565b91505085608084015282810360a0840152615d29818587615c77565b9c9b505050505050505050505050565b5f60208284031215615d49575f5ffd5b61208082614aa1565b5f60c0828403128015615d63575f5ffd5b5060405160c081016001600160401b0381118282101715615d8657615d866149d1565b6040528235615d94816149b2565b81526020830135615da4816149b2565b60208201526040830135615db7816149b2565b6040820152606083810135908201526080808401359082015260a0928301359281019290925250919050565b6001600160a01b0392831681529116602082015260400190565b5f5f8335601e19843603018112615e12575f5ffd5b8301803591506001600160401b03821115615e2b575f5ffd5b6020019150600781901b3603821315614f29575f5ffd5b803565ffffffffffff81168114610836575f5ffd5b6001600160a01b0385168152606060208201525f60c08201853536879003601e19018112615e83575f5ffd5b86016020810190356001600160401b03811115615e9e575f5ffd5b8060071b3603821315615eaf575f5ffd5b60608581015291829052905f9060e085015b81831015615f40578335615ed4816149b2565b6001600160a01b031681526020840135615eed816149b2565b6001600160a01b0316602082015265ffffffffffff615f0e60408601615e42565b16604082015265ffffffffffff615f2760608601615e42565b1660608201526080938401936001939093019201615ec1565b615f4c60208a016149c6565b9350615f5b6080870185614e71565b5f9350604089013593508360a08701528581036040870152610e0281888a615c77565b5f5f60408385031215615f8f575f5ffd5b505080516020909101519092909150565b5f60208284031215615fb0575f5ffd5b81356005811061163d575f5ffd5b602080825282516001600160a01b0390811683830152908301511660408083019190915282015160c060608301525f90615ffb60e0840182614cce565b905060608401516080840152608084015161601960a085018261582e565b5060a0840151838203601f190160c08501526134598282614da8565b6001600160a01b03929092168252602082015260400190565b8181038181111561208357634e487b7160e01b5f52601160045260245ffd5b5f6020828403121561607d575f5ffd5b81356002811061163d575f5ffd5b5f6020828403121561609b575f5ffd5b81356004811061163d575f5ffd5b6020815260018060a01b03825116602082015260018060a01b036020830151166040820152604082015160608201525f606083015160c060808401526160f260e0840182614cce565b9050608084015161601960a08501826159b8565b5f82518060208501845e5f920191825250919050565b6020815261612e602082018351615a7c565b60018060a01b03602083015116604082015260018060a01b03604083015116606082015260018060a01b036060830151166080820152608082015160a082015260a082015160c08201525f60c083015160e080840152610921610100840182614da8565b5f5f5f606084860312156161a4575f5ffd5b505081516020830151604090930151909492935091905056fe9b779b17422d0df92223018b32b4d1fa46e071723d6817e2486d003becc55f00a26469706673582212205ae3d88c369e980bcdaa859ccd46463f026d76d04045e4a6a48d3be22c2edb1a64736f6c634300081e0033","linkReferences":{}},"methodIdentifiers":{"addLiquidityCustom(address,uint256[],uint256,bool,bytes)":"0ca078ec","addLiquidityHook((address,address,uint256[],uint256,uint8,bool,bytes))":"5b343791","addLiquidityProportional(address,uint256[],uint256,bool,bytes)":"724dba33","addLiquiditySingleTokenExactOut(address,address,uint256,uint256,bool,bytes)":"72657d17","addLiquidityUnbalanced(address,uint256[],uint256,bool,bytes)":"c08bc851","donate(address,uint256[],bool,bytes)":"bf6ee3fd","getPermit2()":"1bbf2e23","getSender()":"5e01eb5a","getVault()":"8d928af8","getWeth()":"107c279f","initialize(address,address[],uint256[],uint256,bool,bytes)":"026b3d95","initializeHook((address,address,address[],uint256[],uint256,bool,bytes))":"086fad66","multicall(bytes[])":"ac9650d8","permitBatchAndCall((address,address,address,uint256,uint256,uint256)[],bytes[],((address,uint160,uint48,uint48)[],address,uint256),bytes,bytes[])":"19c6989f","queryAddLiquidityCustom(address,uint256[],uint256,address,bytes)":"452db952","queryAddLiquidityHook((address,address,uint256[],uint256,uint8,bool,bytes))":"efd85f14","queryAddLiquidityProportional(address,uint256,address,bytes)":"9de90518","queryAddLiquiditySingleTokenExactOut(address,address,uint256,address,bytes)":"1d56798d","queryAddLiquidityUnbalanced(address,uint256[],address,bytes)":"da001f7d","queryRemoveLiquidityCustom(address,uint256,uint256[],address,bytes)":"c330c7be","queryRemoveLiquidityHook((address,address,uint256[],uint256,uint8,bool,bytes))":"b24bd571","queryRemoveLiquidityProportional(address,uint256,address,bytes)":"0f710888","queryRemoveLiquidityRecovery(address,uint256)":"b037ed36","queryRemoveLiquidityRecoveryHook(address,address,uint256)":"5f9815ff","queryRemoveLiquiditySingleTokenExactIn(address,uint256,address,address,bytes)":"23b39241","queryRemoveLiquiditySingleTokenExactOut(address,address,uint256,address,bytes)":"53d0bb98","querySwapHook((address,uint8,address,address,address,uint256,uint256,uint256,bool,bytes))":"be5ae841","querySwapSingleTokenExactIn(address,address,address,uint256,address,bytes)":"3ebc54e5","querySwapSingleTokenExactOut(address,address,address,uint256,address,bytes)":"175d4408","removeLiquidityCustom(address,uint256,uint256[],bool,bytes)":"82bf2b24","removeLiquidityHook((address,address,uint256[],uint256,uint8,bool,bytes))":"7b03c7ba","removeLiquidityProportional(address,uint256,uint256[],bool,bytes)":"51682750","removeLiquidityRecovery(address,uint256,uint256[])":"08c04793","removeLiquidityRecoveryHook(address,address,uint256,uint256[])":"82cd54fb","removeLiquiditySingleTokenExactIn(address,uint256,address,uint256,bool,bytes)":"ecb2182c","removeLiquiditySingleTokenExactOut(address,uint256,address,uint256,bool,bytes)":"e7326def","swapSingleTokenExactIn(address,address,address,uint256,uint256,uint256,bool,bytes)":"750283bc","swapSingleTokenExactOut(address,address,address,uint256,uint256,uint256,bool,bytes)":"94e86ef8","swapSingleTokenHook((address,uint8,address,address,address,uint256,uint256,uint256,bool,bytes))":"68a24fe0","version()":"54fd4d50"},"id":337}