{"abi":[{"type":"constructor","inputs":[{"name":"vault","type":"address","internalType":"contract IVault"},{"name":"registry","type":"address","internalType":"contract IBalancerContractRegistry"},{"name":"defaultMevTaxMultiplier","type":"uint256","internalType":"uint256"},{"name":"defaultMevTaxThreshold","type":"uint256","internalType":"uint256"}],"stateMutability":"nonpayable"},{"type":"function","name":"addMevTaxExemptSenders","inputs":[{"name":"senders","type":"address[]","internalType":"address[]"}],"outputs":[],"stateMutability":"nonpayable"},{"type":"function","name":"calculateSwapFeePercentageExternal","inputs":[{"name":"staticSwapFeePercentage","type":"uint256","internalType":"uint256"},{"name":"multiplier","type":"uint256","internalType":"uint256"},{"name":"threshold","type":"uint256","internalType":"uint256"}],"outputs":[{"name":"feePercentage","type":"uint256","internalType":"uint256"}],"stateMutability":"view"},{"type":"function","name":"disableMevTax","inputs":[],"outputs":[],"stateMutability":"nonpayable"},{"type":"function","name":"enableMevTax","inputs":[],"outputs":[],"stateMutability":"nonpayable"},{"type":"function","name":"getActionId","inputs":[{"name":"selector","type":"bytes4","internalType":"bytes4"}],"outputs":[{"name":"","type":"bytes32","internalType":"bytes32"}],"stateMutability":"view"},{"type":"function","name":"getAuthorizer","inputs":[],"outputs":[{"name":"","type":"address","internalType":"contract IAuthorizer"}],"stateMutability":"view"},{"type":"function","name":"getBalancerContractRegistry","inputs":[],"outputs":[{"name":"","type":"address","internalType":"contract IBalancerContractRegistry"}],"stateMutability":"view"},{"type":"function","name":"getDefaultMevTaxMultiplier","inputs":[],"outputs":[{"name":"","type":"uint256","internalType":"uint256"}],"stateMutability":"view"},{"type":"function","name":"getDefaultMevTaxThreshold","inputs":[],"outputs":[{"name":"","type":"uint256","internalType":"uint256"}],"stateMutability":"view"},{"type":"function","name":"getHookFlags","inputs":[],"outputs":[{"name":"","type":"tuple","internalType":"struct HookFlags","components":[{"name":"enableHookAdjustedAmounts","type":"bool","internalType":"bool"},{"name":"shouldCallBeforeInitialize","type":"bool","internalType":"bool"},{"name":"shouldCallAfterInitialize","type":"bool","internalType":"bool"},{"name":"shouldCallComputeDynamicSwapFee","type":"bool","internalType":"bool"},{"name":"shouldCallBeforeSwap","type":"bool","internalType":"bool"},{"name":"shouldCallAfterSwap","type":"bool","internalType":"bool"},{"name":"shouldCallBeforeAddLiquidity","type":"bool","internalType":"bool"},{"name":"shouldCallAfterAddLiquidity","type":"bool","internalType":"bool"},{"name":"shouldCallBeforeRemoveLiquidity","type":"bool","internalType":"bool"},{"name":"shouldCallAfterRemoveLiquidity","type":"bool","internalType":"bool"}]}],"stateMutability":"pure"},{"type":"function","name":"getMaxMevSwapFeePercentage","inputs":[],"outputs":[{"name":"","type":"uint256","internalType":"uint256"}],"stateMutability":"view"},{"type":"function","name":"getPoolMevTaxMultiplier","inputs":[{"name":"pool","type":"address","internalType":"address"}],"outputs":[{"name":"","type":"uint256","internalType":"uint256"}],"stateMutability":"view"},{"type":"function","name":"getPoolMevTaxThreshold","inputs":[{"name":"pool","type":"address","internalType":"address"}],"outputs":[{"name":"","type":"uint256","internalType":"uint256"}],"stateMutability":"view"},{"type":"function","name":"getVault","inputs":[],"outputs":[{"name":"","type":"address","internalType":"contract IVault"}],"stateMutability":"view"},{"type":"function","name":"isMevTaxEnabled","inputs":[],"outputs":[{"name":"","type":"bool","internalType":"bool"}],"stateMutability":"view"},{"type":"function","name":"isMevTaxExemptSender","inputs":[{"name":"sender","type":"address","internalType":"address"}],"outputs":[{"name":"","type":"bool","internalType":"bool"}],"stateMutability":"view"},{"type":"function","name":"onAfterAddLiquidity","inputs":[{"name":"","type":"address","internalType":"address"},{"name":"","type":"address","internalType":"address"},{"name":"","type":"uint8","internalType":"enum AddLiquidityKind"},{"name":"","type":"uint256[]","internalType":"uint256[]"},{"name":"amountsInRaw","type":"uint256[]","internalType":"uint256[]"},{"name":"","type":"uint256","internalType":"uint256"},{"name":"","type":"uint256[]","internalType":"uint256[]"},{"name":"","type":"bytes","internalType":"bytes"}],"outputs":[{"name":"","type":"bool","internalType":"bool"},{"name":"","type":"uint256[]","internalType":"uint256[]"}],"stateMutability":"nonpayable"},{"type":"function","name":"onAfterInitialize","inputs":[{"name":"","type":"uint256[]","internalType":"uint256[]"},{"name":"","type":"uint256","internalType":"uint256"},{"name":"","type":"bytes","internalType":"bytes"}],"outputs":[{"name":"","type":"bool","internalType":"bool"}],"stateMutability":"nonpayable"},{"type":"function","name":"onAfterRemoveLiquidity","inputs":[{"name":"","type":"address","internalType":"address"},{"name":"","type":"address","internalType":"address"},{"name":"","type":"uint8","internalType":"enum RemoveLiquidityKind"},{"name":"","type":"uint256","internalType":"uint256"},{"name":"","type":"uint256[]","internalType":"uint256[]"},{"name":"amountsOutRaw","type":"uint256[]","internalType":"uint256[]"},{"name":"","type":"uint256[]","internalType":"uint256[]"},{"name":"","type":"bytes","internalType":"bytes"}],"outputs":[{"name":"","type":"bool","internalType":"bool"},{"name":"","type":"uint256[]","internalType":"uint256[]"}],"stateMutability":"nonpayable"},{"type":"function","name":"onAfterSwap","inputs":[{"name":"","type":"tuple","internalType":"struct AfterSwapParams","components":[{"name":"kind","type":"uint8","internalType":"enum SwapKind"},{"name":"tokenIn","type":"address","internalType":"contract IERC20"},{"name":"tokenOut","type":"address","internalType":"contract IERC20"},{"name":"amountInScaled18","type":"uint256","internalType":"uint256"},{"name":"amountOutScaled18","type":"uint256","internalType":"uint256"},{"name":"tokenInBalanceScaled18","type":"uint256","internalType":"uint256"},{"name":"tokenOutBalanceScaled18","type":"uint256","internalType":"uint256"},{"name":"amountCalculatedScaled18","type":"uint256","internalType":"uint256"},{"name":"amountCalculatedRaw","type":"uint256","internalType":"uint256"},{"name":"router","type":"address","internalType":"address"},{"name":"pool","type":"address","internalType":"address"},{"name":"userData","type":"bytes","internalType":"bytes"}]}],"outputs":[{"name":"","type":"bool","internalType":"bool"},{"name":"","type":"uint256","internalType":"uint256"}],"stateMutability":"nonpayable"},{"type":"function","name":"onBeforeAddLiquidity","inputs":[{"name":"","type":"address","internalType":"address"},{"name":"pool","type":"address","internalType":"address"},{"name":"kind","type":"uint8","internalType":"enum AddLiquidityKind"},{"name":"","type":"uint256[]","internalType":"uint256[]"},{"name":"","type":"uint256","internalType":"uint256"},{"name":"","type":"uint256[]","internalType":"uint256[]"},{"name":"","type":"bytes","internalType":"bytes"}],"outputs":[{"name":"success","type":"bool","internalType":"bool"}],"stateMutability":"view"},{"type":"function","name":"onBeforeInitialize","inputs":[{"name":"","type":"uint256[]","internalType":"uint256[]"},{"name":"","type":"bytes","internalType":"bytes"}],"outputs":[{"name":"","type":"bool","internalType":"bool"}],"stateMutability":"nonpayable"},{"type":"function","name":"onBeforeRemoveLiquidity","inputs":[{"name":"","type":"address","internalType":"address"},{"name":"pool","type":"address","internalType":"address"},{"name":"kind","type":"uint8","internalType":"enum RemoveLiquidityKind"},{"name":"","type":"uint256","internalType":"uint256"},{"name":"","type":"uint256[]","internalType":"uint256[]"},{"name":"","type":"uint256[]","internalType":"uint256[]"},{"name":"","type":"bytes","internalType":"bytes"}],"outputs":[{"name":"success","type":"bool","internalType":"bool"}],"stateMutability":"view"},{"type":"function","name":"onBeforeSwap","inputs":[{"name":"","type":"tuple","internalType":"struct PoolSwapParams","components":[{"name":"kind","type":"uint8","internalType":"enum SwapKind"},{"name":"amountGivenScaled18","type":"uint256","internalType":"uint256"},{"name":"balancesScaled18","type":"uint256[]","internalType":"uint256[]"},{"name":"indexIn","type":"uint256","internalType":"uint256"},{"name":"indexOut","type":"uint256","internalType":"uint256"},{"name":"router","type":"address","internalType":"address"},{"name":"userData","type":"bytes","internalType":"bytes"}]},{"name":"","type":"address","internalType":"address"}],"outputs":[{"name":"","type":"bool","internalType":"bool"}],"stateMutability":"nonpayable"},{"type":"function","name":"onComputeDynamicSwapFeePercentage","inputs":[{"name":"params","type":"tuple","internalType":"struct PoolSwapParams","components":[{"name":"kind","type":"uint8","internalType":"enum SwapKind"},{"name":"amountGivenScaled18","type":"uint256","internalType":"uint256"},{"name":"balancesScaled18","type":"uint256[]","internalType":"uint256[]"},{"name":"indexIn","type":"uint256","internalType":"uint256"},{"name":"indexOut","type":"uint256","internalType":"uint256"},{"name":"router","type":"address","internalType":"address"},{"name":"userData","type":"bytes","internalType":"bytes"}]},{"name":"pool","type":"address","internalType":"address"},{"name":"staticSwapFeePercentage","type":"uint256","internalType":"uint256"}],"outputs":[{"name":"","type":"bool","internalType":"bool"},{"name":"","type":"uint256","internalType":"uint256"}],"stateMutability":"view"},{"type":"function","name":"onRegister","inputs":[{"name":"","type":"address","internalType":"address"},{"name":"pool","type":"address","internalType":"address"},{"name":"","type":"tuple[]","internalType":"struct TokenConfig[]","components":[{"name":"token","type":"address","internalType":"contract IERC20"},{"name":"tokenType","type":"uint8","internalType":"enum TokenType"},{"name":"rateProvider","type":"address","internalType":"contract IRateProvider"},{"name":"paysYieldFees","type":"bool","internalType":"bool"}]},{"name":"","type":"tuple","internalType":"struct LiquidityManagement","components":[{"name":"disableUnbalancedLiquidity","type":"bool","internalType":"bool"},{"name":"enableAddLiquidityCustom","type":"bool","internalType":"bool"},{"name":"enableRemoveLiquidityCustom","type":"bool","internalType":"bool"},{"name":"enableDonation","type":"bool","internalType":"bool"}]}],"outputs":[{"name":"","type":"bool","internalType":"bool"}],"stateMutability":"nonpayable"},{"type":"function","name":"removeMevTaxExemptSenders","inputs":[{"name":"senders","type":"address[]","internalType":"address[]"}],"outputs":[],"stateMutability":"nonpayable"},{"type":"function","name":"setDefaultMevTaxMultiplier","inputs":[{"name":"newDefaultMevTaxMultiplier","type":"uint256","internalType":"uint256"}],"outputs":[],"stateMutability":"nonpayable"},{"type":"function","name":"setDefaultMevTaxThreshold","inputs":[{"name":"newDefaultMevTaxThreshold","type":"uint256","internalType":"uint256"}],"outputs":[],"stateMutability":"nonpayable"},{"type":"function","name":"setMaxMevSwapFeePercentage","inputs":[{"name":"maxMevSwapFeePercentage","type":"uint256","internalType":"uint256"}],"outputs":[],"stateMutability":"nonpayable"},{"type":"function","name":"setPoolMevTaxMultiplier","inputs":[{"name":"pool","type":"address","internalType":"address"},{"name":"newPoolMevTaxMultiplier","type":"uint256","internalType":"uint256"}],"outputs":[],"stateMutability":"nonpayable"},{"type":"function","name":"setPoolMevTaxThreshold","inputs":[{"name":"pool","type":"address","internalType":"address"},{"name":"newPoolMevTaxThreshold","type":"uint256","internalType":"uint256"}],"outputs":[],"stateMutability":"nonpayable"},{"type":"event","name":"DefaultMevTaxMultiplierSet","inputs":[{"name":"newDefaultMevTaxMultiplier","type":"uint256","indexed":false,"internalType":"uint256"}],"anonymous":false},{"type":"event","name":"DefaultMevTaxThresholdSet","inputs":[{"name":"newDefaultMevTaxThreshold","type":"uint256","indexed":false,"internalType":"uint256"}],"anonymous":false},{"type":"event","name":"MaxMevSwapFeePercentageSet","inputs":[{"name":"maxMevSwapFeePercentage","type":"uint256","indexed":false,"internalType":"uint256"}],"anonymous":false},{"type":"event","name":"MevTaxEnabledSet","inputs":[{"name":"enabled","type":"bool","indexed":false,"internalType":"bool"}],"anonymous":false},{"type":"event","name":"MevTaxExemptSenderAdded","inputs":[{"name":"sender","type":"address","indexed":false,"internalType":"address"}],"anonymous":false},{"type":"event","name":"MevTaxExemptSenderRemoved","inputs":[{"name":"sender","type":"address","indexed":false,"internalType":"address"}],"anonymous":false},{"type":"event","name":"PoolMevTaxMultiplierSet","inputs":[{"name":"pool","type":"address","indexed":false,"internalType":"address"},{"name":"newPoolMevTaxMultiplier","type":"uint256","indexed":false,"internalType":"uint256"}],"anonymous":false},{"type":"event","name":"PoolMevTaxThresholdSet","inputs":[{"name":"pool","type":"address","indexed":false,"internalType":"address"},{"name":"newPoolMevTaxThreshold","type":"uint256","indexed":false,"internalType":"uint256"}],"anonymous":false},{"type":"error","name":"InvalidBalancerContractRegistry","inputs":[]},{"type":"error","name":"MevCaptureHookNotRegisteredInPool","inputs":[{"name":"pool","type":"address","internalType":"address"}]},{"type":"error","name":"MevSwapFeePercentageAboveMax","inputs":[{"name":"feePercentage","type":"uint256","internalType":"uint256"},{"name":"maxFeePercentage","type":"uint256","internalType":"uint256"}]},{"type":"error","name":"MevTaxExemptSenderAlreadyAdded","inputs":[{"name":"sender","type":"address","internalType":"address"}]},{"type":"error","name":"SenderIsNotVault","inputs":[{"name":"sender","type":"address","internalType":"address"}]},{"type":"error","name":"SenderNotAllowed","inputs":[]},{"type":"error","name":"SenderNotRegisteredAsMevTaxExempt","inputs":[{"name":"sender","type":"address","internalType":"address"}]},{"type":"error","name":"VaultNotSet","inputs":[]}],"bytecode":{"object":"0x610100604052348015610010575f5ffd5b5060405161243738038061243783398101604081905261002f91610274565b30608081905284908490849084908490819081906001600160a01b03821661006a57604051630647140b60e51b815260040160405180910390fd5b506001600160a01b0390811660a05291821660c05250831660e081905260405163013274bf60e51b81525f600482015263264e97e090602401602060405180830381865afa1580156100be573d5f5f3e3d5ffd5b505050506040513d601f19601f820116820180604052508101906100e291906102b9565b1561010057604051635c84f39b60e01b815260040160405180910390fd5b61010a600161013a565b61011382610181565b61011c816101b6565b61012d670de0b5cad2bef0006101eb565b50505050505050506102df565b5f805460ff19168215159081179091556040519081527f53525c548bd046e97a02f1d25bcc45701433dd7f01925c0618b36d1859681abe906020015b60405180910390a150565b60028190556040518181527f9bf787e2aefecf377c7a9d187bf4a25477b7bf79e1e5e12b2cdf5d6920725ce290602001610176565b60018190556040518181527fab04e788572c89101fd68f2d1e18084f3116ce893d04f941b6b0a2728c3eef7590602001610176565b670de0b5cad2bef000811115610228576040516220fb3f60e81b815260048101829052670de0b5cad2bef000602482015260440160405180910390fd5b60038190556040518181527fdebbe20e15c981690db2afeed0eaafd8c8b77ea80503b0dbda6ba059a0bb67e090602001610176565b6001600160a01b0381168114610271575f5ffd5b50565b5f5f5f5f60808587031215610287575f5ffd5b84516102928161025d565b60208601519094506102a38161025d565b6040860151606090960151949790965092505050565b5f602082840312156102c9575f5ffd5b815180151581146102d8575f5ffd5b9392505050565b60805160a05160c05160e0516120e66103515f395f81816103ea015261082001525f818161047b0152818161057401528181610a4801528181610bb80152610ddd01525f818161075301528181610b0901528181610c79015281816111db01526112fc01525f6106df01526120e65ff3fe608060405234801561000f575f5ffd5b506004361061017e575f3560e01c8063042cd514146101825780630b89f18214610197578063166f1aad146101bf57806318b6eb55146101e05780631c149e281461020c57806325e523191461021f5780632754888d1461022757806338be241d146102525780633a7602621461026557806345421ec7146102785780635211fa771461028b57806362c6d3d31461029957806362f57cd8146102a15780636fa956b5146102a9578063851c1bb3146102bc5780638c55613e146102cf5780638d928af8146102d75780638dd6e098146102ec578063976907cc146102f65780639b157919146103135780639f64fd6314610326578063a0e8f5ac14610339578063a4e5de3c1461034c578063aaabadc51461035f578063b20541c614610367578063ba5f9f4014610392578063bcc6951b146103a5578063c4407f1f146103ad578063d403a47d146103c0578063d77153a7146103d3578063deb27a7a146103e8578063e289e3801461040e575b5f5ffd5b61019561019036600461143b565b610421565b005b6101aa6101a536600461154a565b610435565b60405190151581526020015b60405180910390f35b6101d26101cd366004611678565b610476565b6040519081526020016101b6565b6101f56101ee366004611693565b505f908190565b6040805192151583526020830191909152016101b6565b6101aa61021a36600461179a565b61055e565b6002546101d2565b61024461023536600461180b565b5f839850989650505050505050565b6040516101b69291906118fa565b6101aa610260366004611949565b610566565b6101d2610273366004611678565b61056f565b6101aa6102863660046119c2565b61064e565b6101aa61021a366004611a99565b6003546101d2565b6101956106b4565b6101d26102b7366004611ae7565b6106c8565b6101d26102ca366004611b10565b6106dc565b610195610740565b6102df610751565b6040516101b69190611b37565b5f5460ff166101aa565b610244610304366004611b4b565b5f849850989650505050505050565b610195610321366004611bf7565b61077a565b610195610334366004611bf7565b6107bd565b6101f5610347366004611c90565b6107fb565b61019561035a36600461143b565b610997565b6102df6109a8565b6101aa610375366004611678565b6001600160a01b03165f9081526004602052604090205460ff1690565b6101aa6103a0366004611ce5565b610a10565b6001546101d2565b6101956103bb366004611d6a565b610a44565b6101956103ce366004611d6a565b610bb4565b6103db610d1c565b6040516101b69190611d94565b7f00000000000000000000000000000000000000000000000000000000000000006102df565b61019561041c36600461143b565b610d47565b610429610d58565b61043281610d96565b50565b5f61043e610dd2565b506002546001600160a01b0384165f908152600660209081526040808320939093556001805460059092529290912055949350505050565b5f815f7f00000000000000000000000000000000000000000000000000000000000000006001600160a01b031663ce8630d4836040518263ffffffff1660e01b81526004016104c59190611b37565b61016060405180830381865afa1580156104e1573d5f5f3e3d5ffd5b505050506040513d601f19601f820116820180604052508101906105059190611e73565b6101408101519091506001600160a01b031630146105415781604051630ea0359b60e31b81526004016105389190611b37565b60405180910390fd5b5050506001600160a01b03165f9081526005602052604090205490565b5f5b92915050565b5f5b9392505050565b5f815f7f00000000000000000000000000000000000000000000000000000000000000006001600160a01b031663ce8630d4836040518263ffffffff1660e01b81526004016105be9190611b37565b61016060405180830381865afa1580156105da573d5f5f3e3d5ffd5b505050506040513d601f19601f820116820180604052508101906105fe9190611e73565b6101408101519091506001600160a01b031630146106315781604051630ea0359b60e31b81526004016105389190611b37565b5050506001600160a01b03165f9081526006602052604090205490565b5f805460ff1615158103610664575060016106a9565b5f61066d610e1d565b90505f87600481111561068257610682611f50565b14806106a557506001600160a01b0388165f908152600560205260409020548111155b9150505b979650505050505050565b6106bc610d58565b6106c66001610e28565b565b5f6106d4848484610e68565b949350505050565b5f7f0000000000000000000000000000000000000000000000000000000000000000826040516020016107239291909182526001600160e01b031916602082015260240190565b604051602081830303815290604052805190602001209050919050565b610748610d58565b6106c65f610e28565b7f000000000000000000000000000000000000000000000000000000000000000090565b905090565b610782610d58565b80515f5b818110156107b8576107b08382815181106107a3576107a3611f64565b6020026020010151610efd565b600101610786565b505050565b6107c5610d58565b80515f5b818110156107b8576107f38382815181106107e6576107e6611f64565b6020026020010151610f8a565b6001016107c9565b5f8054819060ff16151581036108165750600190508161098f565b6001600160a01b037f00000000000000000000000000000000000000000000000000000000000000001663264e97e061085560c0880160a08901611678565b6040518263ffffffff1660e01b81526004016108719190611b37565b602060405180830381865afa15801561088c573d5f5f3e3d5ffd5b505050506040513d601f19601f820116820180604052508101906108b09190611f78565b15610957575f6108c660c0870160a08801611678565b6001600160a01b0316635e01eb5a6040518163ffffffff1660e01b8152600401602060405180830381865afa158015610901573d5f5f3e3d5ffd5b505050506040513d601f19601f820116820180604052508101906109259190611f93565b6001600160a01b0381165f9081526004602052604090205490915060ff161561095557600184925092505061098f565b505b6001600160a01b0384165f9081526006602090815260408083205460059092529091205460019161098a91869190610e68565b915091505b935093915050565b61099f610d58565b61043281611017565b5f6109b1610751565b6001600160a01b031663aaabadc56040518163ffffffff1660e01b8152600401602060405180830381865afa1580156109ec573d5f5f3e3d5ffd5b505050506040513d601f19601f820116820180604052508101906107759190611f93565b5f805460ff1615158103610a26575060016106a9565b5f610a2f610e1d565b90505f87600381111561068257610682611f50565b815f7f00000000000000000000000000000000000000000000000000000000000000006001600160a01b031663ce8630d4836040518263ffffffff1660e01b8152600401610a929190611b37565b61016060405180830381865afa158015610aae573d5f5f3e3d5ffd5b505050506040513d601f19601f82011682018060405250810190610ad29190611e73565b6101408101519091506001600160a01b03163014610b055781604051630ea0359b60e31b81526004016105389190611b37565b835f7f00000000000000000000000000000000000000000000000000000000000000006001600160a01b031663e9ddeb26836040518263ffffffff1660e01b8152600401610b539190611b37565b606060405180830381865afa158015610b6e573d5f5f3e3d5ffd5b505050506040513d601f19601f82011682018060405250810190610b929190611fae565b602001519050610ba2828261104c565b610bac86866110c6565b505050505050565b815f7f00000000000000000000000000000000000000000000000000000000000000006001600160a01b031663ce8630d4836040518263ffffffff1660e01b8152600401610c029190611b37565b61016060405180830381865afa158015610c1e573d5f5f3e3d5ffd5b505050506040513d601f19601f82011682018060405250810190610c429190611e73565b6101408101519091506001600160a01b03163014610c755781604051630ea0359b60e31b81526004016105389190611b37565b835f7f00000000000000000000000000000000000000000000000000000000000000006001600160a01b031663e9ddeb26836040518263ffffffff1660e01b8152600401610cc39190611b37565b606060405180830381865afa158015610cde573d5f5f3e3d5ffd5b505050506040513d601f19601f82011682018060405250810190610d029190611fae565b602001519050610d12828261104c565b610bac868661111e565b610d246113e8565b610d2c6113e8565b60016060820181905260c08201819052610100820152919050565b610d4f610d58565b6104328161116a565b5f610d6d5f356001600160e01b0319166106dc565b9050610d7981336111d8565b610432576040516323dada5360e01b815260040160405180910390fd5b60028190556040518181527f9bf787e2aefecf377c7a9d187bf4a25477b7bf79e1e5e12b2cdf5d6920725ce2906020015b60405180910390a150565b336001600160a01b037f000000000000000000000000000000000000000000000000000000000000000016146106c6573360405163089676d560e01b81526004016105389190611b37565b5f610775483a612033565b5f805460ff19168215159081179091556040519081527f53525c548bd046e97a02f1d25bcc45701433dd7f01925c0618b36d1859681abe90602001610dc7565b5f5f610e72610e1d565b6003549091508382111580610e875750858111155b15610e96578592505050610568565b5f80610eab610ea58786612033565b886112c7565b90925090508115155f03610ec55782945050505050610568565b610ed7670de0b6b3a764000082612046565b90505f610ee4828a612065565b9050610ef081856112ea565b9998505050505050505050565b6001600160a01b0381165f9081526004602052604081205460ff1615159003610f3b57806040516301147f3f60e01b81526004016105389190611b37565b6001600160a01b0381165f9081526004602052604090819020805460ff19169055517fa6c039d6f5be3cc83645e895e73091c938efd27001eace48704833c45b6c994c90610dc7908390611b37565b6001600160a01b0381165f9081526004602052604090205460ff1615610fc5578060405163041be96960e21b81526004016105389190611b37565b6001600160a01b0381165f9081526004602052604090819020805460ff19166001179055517fbdf65067094f886eb7cdc0306e2305d7978636a08c7c473b76883f6144fb212990610dc7908390611b37565b60018190556040518181527fab04e788572c89101fd68f2d1e18084f3116ce893d04f941b6b0a2728c3eef7590602001610dc7565b6001600160a01b03811661109d576110786110715f356001600160e01b0319166106dc565b33846112f9565b15155f03611099576040516323dada5360e01b815260040160405180910390fd5b5050565b336001600160a01b03821614611099576040516323dada5360e01b815260040160405180910390fd5b6001600160a01b0382165f9081526005602052604090819020829055517f907112dd6d17a8468828c40efc60143bdd909e18011cac76b8e296222b3d594f906111129084908490612078565b60405180910390a15050565b6001600160a01b0382165f9081526006602052604090819020829055517ff7f1a750162ea954c7d18a19baa6b79aa1428f8dc433bb39d22da648efb60136906111129084908490612078565b670de0b5cad2bef0008111156111a3576040516220fb3f60e81b815260048101829052670de0b5cad2bef0006024820152604401610538565b60038190556040518181527fdebbe20e15c981690db2afeed0eaafd8c8b77ea80503b0dbda6ba059a0bb67e090602001610dc7565b5f7f00000000000000000000000000000000000000000000000000000000000000006001600160a01b031663aaabadc56040518163ffffffff1660e01b8152600401602060405180830381865afa158015611235573d5f5f3e3d5ffd5b505050506040513d601f19601f820116820180604052508101906112599190611f93565b6001600160a01b0316639be2a8848484306040518463ffffffff1660e01b815260040161128893929190612091565b602060405180830381865afa1580156112a3573d5f5f3e3d5ffd5b505050506040513d601f19601f820116820180604052508101906105689190611f78565b8181028281048214831517905f906112de83151590565b81029150509250929050565b5f818311828418028318610568565b5f7f00000000000000000000000000000000000000000000000000000000000000006001600160a01b031663aaabadc56040518163ffffffff1660e01b8152600401602060405180830381865afa158015611356573d5f5f3e3d5ffd5b505050506040513d601f19601f8201168201806040525081019061137a9190611f93565b6001600160a01b0316639be2a8848585856040518463ffffffff1660e01b81526004016113a993929190612091565b602060405180830381865afa1580156113c4573d5f5f3e3d5ffd5b505050506040513d601f19601f820116820180604052508101906106d49190611f78565b60408051610140810182525f80825260208201819052918101829052606081018290526080810182905260a0810182905260c0810182905260e08101829052610100810182905261012081019190915290565b5f6020828403121561144b575f5ffd5b5035919050565b6001600160a01b0381168114610432575f5ffd5b803561147181611452565b919050565b634e487b7160e01b5f52604160045260245ffd5b604051608081016001600160401b03811182821017156114ac576114ac611476565b60405290565b60405161016081016001600160401b03811182821017156114ac576114ac611476565b604051601f8201601f191681016001600160401b03811182821017156114fd576114fd611476565b604052919050565b5f6001600160401b0382111561151d5761151d611476565b5060051b60200190565b8015158114610432575f5ffd5b5f60808284031215611544575f5ffd5b50919050565b5f5f5f5f60e0858703121561155d575f5ffd5b843561156881611452565b9350602085013561157881611452565b925060408501356001600160401b03811115611592575f5ffd5b8501601f810187136115a2575f5ffd5b80356115b56115b082611505565b6114d5565b8082825260208201915060208360071b8501019250898311156115d6575f5ffd5b6020840193505b82841015611659576080848b0312156115f4575f5ffd5b6115fc61148a565b843561160781611452565b815260208501356002811061161a575f5ffd5b6020820152604085013561162d81611452565b6040820152606085013561164081611527565b60608201528252608093909301926020909101906115dd565b8095505050505061166d8660608701611534565b905092959194509250565b5f60208284031215611688575f5ffd5b813561056881611452565b5f602082840312156116a3575f5ffd5b81356001600160401b038111156116b8575f5ffd5b82016101808185031215610568575f5ffd5b5f82601f8301126116d9575f5ffd5b81356116e76115b082611505565b8082825260208201915060208360051b860101925085831115611708575f5ffd5b602085015b8381101561172557803583526020928301920161170d565b5095945050505050565b5f82601f83011261173e575f5ffd5b81356001600160401b0381111561175757611757611476565b61176a601f8201601f19166020016114d5565b81815284602083860101111561177e575f5ffd5b816020850160208301375f918101602001919091529392505050565b5f5f604083850312156117ab575f5ffd5b82356001600160401b038111156117c0575f5ffd5b6117cc858286016116ca565b92505060208301356001600160401b038111156117e7575f5ffd5b6117f38582860161172f565b9150509250929050565b803560048110611471575f5ffd5b5f5f5f5f5f5f5f5f610100898b031215611823575f5ffd5b61182c89611466565b975061183a60208a01611466565b965061184860408a016117fd565b95506060890135945060808901356001600160401b03811115611869575f5ffd5b6118758b828c016116ca565b94505060a08901356001600160401b03811115611890575f5ffd5b61189c8b828c016116ca565b93505060c08901356001600160401b038111156118b7575f5ffd5b6118c38b828c016116ca565b92505060e08901356001600160401b038111156118de575f5ffd5b6118ea8b828c0161172f565b9150509295985092959890939650565b5f604082018415158352604060208401528084518083526060850191506020860192505f5b8181101561193d57835183526020938401939092019160010161191f565b50909695505050505050565b5f5f5f6060848603121561195b575f5ffd5b83356001600160401b03811115611970575f5ffd5b61197c868287016116ca565b9350506020840135915060408401356001600160401b0381111561199e575f5ffd5b6119aa8682870161172f565b9150509250925092565b803560058110611471575f5ffd5b5f5f5f5f5f5f5f60e0888a0312156119d8575f5ffd5b87356119e381611452565b96506119f160208901611466565b95506119ff604089016119b4565b945060608801356001600160401b03811115611a19575f5ffd5b611a258a828b016116ca565b9450506080880135925060a08801356001600160401b03811115611a47575f5ffd5b611a538a828b016116ca565b92505060c08801356001600160401b03811115611a6e575f5ffd5b611a7a8a828b0161172f565b91505092959891949750929550565b5f60e08284031215611544575f5ffd5b5f5f60408385031215611aaa575f5ffd5b82356001600160401b03811115611abf575f5ffd5b611acb85828601611a89565b9250506020830135611adc81611452565b809150509250929050565b5f5f5f60608486031215611af9575f5ffd5b505081359360208301359350604090920135919050565b5f60208284031215611b20575f5ffd5b81356001600160e01b031981168114610568575f5ffd5b6001600160a01b0391909116815260200190565b5f5f5f5f5f5f5f5f610100898b031215611b63575f5ffd5b611b6c89611466565b9750611b7a60208a01611466565b9650611b8860408a016119b4565b955060608901356001600160401b03811115611ba2575f5ffd5b611bae8b828c016116ca565b95505060808901356001600160401b03811115611bc9575f5ffd5b611bd58b828c016116ca565b94505060a0890135925060c08901356001600160401b038111156118b7575f5ffd5b5f60208284031215611c07575f5ffd5b81356001600160401b03811115611c1c575f5ffd5b8201601f81018413611c2c575f5ffd5b8035611c3a6115b082611505565b8082825260208201915060208360051b850101925086831115611c5b575f5ffd5b6020840193505b82841015611c86578335611c7581611452565b825260209384019390910190611c62565b9695505050505050565b5f5f5f60608486031215611ca2575f5ffd5b83356001600160401b03811115611cb7575f5ffd5b611cc386828701611a89565b9350506020840135611cd481611452565b929592945050506040919091013590565b5f5f5f5f5f5f5f60e0888a031215611cfb575f5ffd5b8735611d0681611452565b9650611d1460208901611466565b9550611d22604089016117fd565b94506060880135935060808801356001600160401b03811115611d43575f5ffd5b611d4f8a828b016116ca565b93505060a08801356001600160401b03811115611a47575f5ffd5b5f5f60408385031215611d7b575f5ffd5b8235611d8681611452565b946020939093013593505050565b81511515815261014081016020830151611db2602084018215159052565b506040830151611dc6604084018215159052565b506060830151611dda606084018215159052565b506080830151611dee608084018215159052565b5060a0830151611e0260a084018215159052565b5060c0830151611e1660c084018215159052565b5060e0830151611e2a60e084018215159052565b50610100830151611e4061010084018215159052565b50610120830151611e5661012084018215159052565b5092915050565b805161147181611527565b805161147181611452565b5f610160828403128015611e85575f5ffd5b50611e8e6114b2565b611e9783611e5d565b8152611ea560208401611e5d565b6020820152611eb660408401611e5d565b6040820152611ec760608401611e5d565b6060820152611ed860808401611e5d565b6080820152611ee960a08401611e5d565b60a0820152611efa60c08401611e5d565b60c0820152611f0b60e08401611e5d565b60e0820152611f1d6101008401611e5d565b610100820152611f306101208401611e5d565b610120820152611f436101408401611e68565b6101408201529392505050565b634e487b7160e01b5f52602160045260245ffd5b634e487b7160e01b5f52603260045260245ffd5b5f60208284031215611f88575f5ffd5b815161056881611527565b5f60208284031215611fa3575f5ffd5b815161056881611452565b5f6060828403128015611fbf575f5ffd5b50604051606081016001600160401b0381118282101715611fe257611fe2611476565b6040528251611ff081611452565b8152602083015161200081611452565b6020820152604083015161201381611452565b60408201529392505050565b634e487b7160e01b5f52601160045260245ffd5b818103818111156105605761056061201f565b5f8261206057634e487b7160e01b5f52601260045260245ffd5b500490565b808201808211156105605761056061201f565b6001600160a01b03929092168252602082015260400190565b9283526001600160a01b0391821660208401521660408201526060019056fea2646970667358221220071e9957ad0bc81304ff6a70d6f339d0ede51efc5545e49e8d43d3818c9b3aa864736f6c634300081e0033","linkReferences":{}},"methodIdentifiers":{"addMevTaxExemptSenders(address[])":"9f64fd63","calculateSwapFeePercentageExternal(uint256,uint256,uint256)":"6fa956b5","disableMevTax()":"8c55613e","enableMevTax()":"62f57cd8","getActionId(bytes4)":"851c1bb3","getAuthorizer()":"aaabadc5","getBalancerContractRegistry()":"deb27a7a","getDefaultMevTaxMultiplier()":"25e52319","getDefaultMevTaxThreshold()":"bcc6951b","getHookFlags()":"d77153a7","getMaxMevSwapFeePercentage()":"62c6d3d3","getPoolMevTaxMultiplier(address)":"3a760262","getPoolMevTaxThreshold(address)":"166f1aad","getVault()":"8d928af8","isMevTaxEnabled()":"8dd6e098","isMevTaxExemptSender(address)":"b20541c6","onAfterAddLiquidity(address,address,uint8,uint256[],uint256[],uint256,uint256[],bytes)":"976907cc","onAfterInitialize(uint256[],uint256,bytes)":"38be241d","onAfterRemoveLiquidity(address,address,uint8,uint256,uint256[],uint256[],uint256[],bytes)":"2754888d","onAfterSwap((uint8,address,address,uint256,uint256,uint256,uint256,uint256,uint256,address,address,bytes))":"18b6eb55","onBeforeAddLiquidity(address,address,uint8,uint256[],uint256,uint256[],bytes)":"45421ec7","onBeforeInitialize(uint256[],bytes)":"1c149e28","onBeforeRemoveLiquidity(address,address,uint8,uint256,uint256[],uint256[],bytes)":"ba5f9f40","onBeforeSwap((uint8,uint256,uint256[],uint256,uint256,address,bytes),address)":"5211fa77","onComputeDynamicSwapFeePercentage((uint8,uint256,uint256[],uint256,uint256,address,bytes),address,uint256)":"a0e8f5ac","onRegister(address,address,(address,uint8,address,bool)[],(bool,bool,bool,bool))":"0b89f182","removeMevTaxExemptSenders(address[])":"9b157919","setDefaultMevTaxMultiplier(uint256)":"042cd514","setDefaultMevTaxThreshold(uint256)":"a4e5de3c","setMaxMevSwapFeePercentage(uint256)":"e289e380","setPoolMevTaxMultiplier(address,uint256)":"d403a47d","setPoolMevTaxThreshold(address,uint256)":"c4407f1f"},"id":144}