{"abi":[{"type":"receive","stateMutability":"payable"},{"type":"function","name":"facetFuncs","inputs":[],"outputs":[{"name":"funcs","type":"bytes4[]","internalType":"bytes4[]"}],"stateMutability":"pure"},{"type":"function","name":"facetInterfaces","inputs":[],"outputs":[{"name":"interfaces","type":"bytes4[]","internalType":"bytes4[]"}],"stateMutability":"pure"},{"type":"function","name":"facetMetadata","inputs":[],"outputs":[{"name":"name_","type":"string","internalType":"string"},{"name":"interfaces","type":"bytes4[]","internalType":"bytes4[]"},{"name":"functions","type":"bytes4[]","internalType":"bytes4[]"}],"stateMutability":"pure"},{"type":"function","name":"facetName","inputs":[],"outputs":[{"name":"name","type":"string","internalType":"string"}],"stateMutability":"pure"},{"type":"function","name":"getSender","inputs":[],"outputs":[{"name":"","type":"address","internalType":"address"}],"stateMutability":"view"},{"type":"function","name":"querySwapHook","inputs":[{"name":"params","type":"tuple","internalType":"struct SwapSingleTokenHookParams","components":[{"name":"sender","type":"address","internalType":"address"},{"name":"kind","type":"uint8","internalType":"enum SwapKind"},{"name":"pool","type":"address","internalType":"address"},{"name":"tokenIn","type":"address","internalType":"contract IERC20"},{"name":"tokenOut","type":"address","internalType":"contract IERC20"},{"name":"amountGiven","type":"uint256","internalType":"uint256"},{"name":"limit","type":"uint256","internalType":"uint256"},{"name":"deadline","type":"uint256","internalType":"uint256"},{"name":"wethIsEth","type":"bool","internalType":"bool"},{"name":"userData","type":"bytes","internalType":"bytes"}]}],"outputs":[{"name":"","type":"uint256","internalType":"uint256"}],"stateMutability":"nonpayable"},{"type":"function","name":"querySwapSingleTokenExactIn","inputs":[{"name":"pool","type":"address","internalType":"address"},{"name":"tokenIn","type":"address","internalType":"contract IERC20"},{"name":"tokenOut","type":"address","internalType":"contract IERC20"},{"name":"exactAmountIn","type":"uint256","internalType":"uint256"},{"name":"sender","type":"address","internalType":"address"},{"name":"userData","type":"bytes","internalType":"bytes"}],"outputs":[{"name":"","type":"uint256","internalType":"uint256"}],"stateMutability":"nonpayable"},{"type":"function","name":"querySwapSingleTokenExactOut","inputs":[{"name":"pool","type":"address","internalType":"address"},{"name":"tokenIn","type":"address","internalType":"contract IERC20"},{"name":"tokenOut","type":"address","internalType":"contract IERC20"},{"name":"exactAmountOut","type":"uint256","internalType":"uint256"},{"name":"sender","type":"address","internalType":"address"},{"name":"userData","type":"bytes","internalType":"bytes"}],"outputs":[{"name":"","type":"uint256","internalType":"uint256"}],"stateMutability":"nonpayable"},{"type":"function","name":"swapSingleTokenExactIn","inputs":[{"name":"pool","type":"address","internalType":"address"},{"name":"tokenIn","type":"address","internalType":"contract IERC20"},{"name":"tokenOut","type":"address","internalType":"contract IERC20"},{"name":"exactAmountIn","type":"uint256","internalType":"uint256"},{"name":"minAmountOut","type":"uint256","internalType":"uint256"},{"name":"deadline","type":"uint256","internalType":"uint256"},{"name":"wethIsEth","type":"bool","internalType":"bool"},{"name":"userData","type":"bytes","internalType":"bytes"}],"outputs":[{"name":"","type":"uint256","internalType":"uint256"}],"stateMutability":"payable"},{"type":"function","name":"swapSingleTokenExactOut","inputs":[{"name":"pool","type":"address","internalType":"address"},{"name":"tokenIn","type":"address","internalType":"contract IERC20"},{"name":"tokenOut","type":"address","internalType":"contract IERC20"},{"name":"exactAmountOut","type":"uint256","internalType":"uint256"},{"name":"maxAmountIn","type":"uint256","internalType":"uint256"},{"name":"deadline","type":"uint256","internalType":"uint256"},{"name":"wethIsEth","type":"bool","internalType":"bool"},{"name":"userData","type":"bytes","internalType":"bytes"}],"outputs":[{"name":"","type":"uint256","internalType":"uint256"}],"stateMutability":"payable"},{"type":"function","name":"swapSingleTokenHook","inputs":[{"name":"params","type":"tuple","internalType":"struct SwapSingleTokenHookParams","components":[{"name":"sender","type":"address","internalType":"address"},{"name":"kind","type":"uint8","internalType":"enum SwapKind"},{"name":"pool","type":"address","internalType":"address"},{"name":"tokenIn","type":"address","internalType":"contract IERC20"},{"name":"tokenOut","type":"address","internalType":"contract IERC20"},{"name":"amountGiven","type":"uint256","internalType":"uint256"},{"name":"limit","type":"uint256","internalType":"uint256"},{"name":"deadline","type":"uint256","internalType":"uint256"},{"name":"wethIsEth","type":"bool","internalType":"bool"},{"name":"userData","type":"bytes","internalType":"bytes"}]}],"outputs":[{"name":"","type":"uint256","internalType":"uint256"}],"stateMutability":"nonpayable"},{"type":"error","name":"EthTransfer","inputs":[]},{"type":"error","name":"FailedCall","inputs":[]},{"type":"error","name":"InsufficientBalance","inputs":[{"name":"balance","type":"uint256","internalType":"uint256"},{"name":"needed","type":"uint256","internalType":"uint256"}]},{"type":"error","name":"InsufficientEth","inputs":[]},{"type":"error","name":"InsufficientPayment","inputs":[{"name":"token","type":"address","internalType":"contract IERC20"}]},{"type":"error","name":"ReentrancyGuardReentrantCall","inputs":[]},{"type":"error","name":"SenderIsNotVault","inputs":[{"name":"sender","type":"address","internalType":"address"}]},{"type":"error","name":"SwapDeadline","inputs":[]}],"bytecode":{"object":"0x6080604052348015600e575f5ffd5b50611a928061001c5f395ff3fe60806040526004361061008e575f3560e01c8063175d4408146100d25780632ea80826146101045780633ebc54e514610125578063574a4cff146101445780635b6f4d01146101585780635e01eb5a1461017957806368a24fe01461019a578063750283bc146101b957806394e86ef8146101cc578063be5ae841146101df578063f10d7a75146101fe575f5ffd5b366100ce5761009b610221565b6001600160a01b0316336001600160a01b0316146100cc576040516302a06efb60e11b815260040160405180910390fd5b005b5f5ffd5b3480156100dd575f5ffd5b506100f16100ec3660046113fe565b61023f565b6040519081526020015b60405180910390f35b34801561010f575f5ffd5b5061011861027e565b6040516100fb919061150c565b348015610130575f5ffd5b506100f161013f3660046113fe565b6102d6565b34801561014f575f5ffd5b506101186102fc565b348015610163575f5ffd5b5061016c61044c565b6040516100fb9190611553565b348015610184575f5ffd5b5061018d610475565b6040516100fb9190611572565b3480156101a5575f5ffd5b506100f16101b4366004611586565b61047e565b6100f16101c73660046115ca565b6104b2565b6100f16101da3660046115ca565b610521565b3480156101ea575f5ffd5b506100f16101f9366004611586565b610577565b348015610209575f5ffd5b5061021261059b565b6040516100fb9392919061169b565b5f61023a61022d6105c3565b546001600160a01b031690565b905090565b5f825f61024b826105e7565b90506102673360018b8b8b8b6001600160801b035f198c610615565b92506102728161077d565b50509695505050505050565b60408051600180825281830190925260609160208083019080368337019050509050637a1dbb1f60e01b815f815181106102ba576102ba6116dd565b6001600160e01b03199092166020928302919091019091015290565b5f825f6102e2826105e7565b9050610267335f8b8b8b8b846001600160801b038c610615565b60408051600680825260e082019092526060916020820160c08036833701905050905063750283bc60e01b815f81518110610339576103396116dd565b6001600160e01b031990921660209283029190910190910152805163129d0ddf60e31b9082906001908110610370576103706116dd565b6001600160e01b0319909216602092830291909101909101528051633ebc54e560e01b90829060029081106103a7576103a76116dd565b6001600160e01b03199092166020928302919091019091015280516302eba88160e31b90829060039081106103de576103de6116dd565b6001600160e01b0319909216602092830291909101909101528051630345127f60e51b9082906004908110610415576104156116dd565b6001600160e01b031990921660209283029190910190910152805163be5ae84160e01b90829060059081106102ba576102ba6116dd565b60408051808201909152600f81526e149bdd5d195c94ddd85c119858d95d608a1b602082015290565b5f61023a61078f565b5f610487610798565b61049160016107cc565b6104996107e1565b6104a282610827565b90506104ad5f6107cc565b919050565b5f335f6104be826105e7565b9050610507335f8e8e8e8e8e8e8e8e8e8080601f0160208091040260200160405190810160405280939291908181526020018383808284375f9201919091525061084e92505050565b92506105128161077d565b50509998505050505050505050565b5f335f61052d826105e7565b90506105073360018e8e8e8e8e8e8e8e8e8080601f0160208091040260200160405190810160405280939291908181526020018383808284375f9201919091525061084e92505050565b5f610580610798565b61058a60016107cc565b6105926107e1565b6104a2826109b7565b60608060606105a861044c565b92506105b261027e565b91506105bc6102fc565b9050909192565b7f0e5e42310baee45bff0964e63930bd3ef41981ccc7a033d2803019558bd2313e90565b5f5f6105f16109cc565b90506001600160a01b03811661060f5761060a836109de565b600191505b50919050565b5f5f6040518061014001604052808c6001600160a01b031681526020018b6001811115610644576106446116f1565b81526020018a6001600160a01b03168152602001896001600160a01b03168152602001886001600160a01b031681526020018781526020018681526020018581526020015f151581526020018481525090505f61069f6109f3565b6001600160a01b031663edfa3568306001600160a01b031663be5ae841856040516024016106cd9190611725565b60408051808303601f1901815291815260208201805160e094851b6001600160e01b03909116179052519184901b6001600160e01b0319168252610715925090600401611553565b5f604051808303815f875af1158015610730573d5f5f3e3d5ffd5b505050506040513d5f823e601f3d908101601f1916820160405261075791908101906117dc565b90508080602001905181019061076d9190611850565b9c9b505050505050505050505050565b801561078c5761078c5f6109de565b50565b5f61023a6109cc565b5f516020611a3d5f395f51905f52805c9081156107c857604051633ee5aeb560e01b815260040160405180910390fd5b5050565b5f516020611a3d5f395f51905f5281815d5050565b6107e96109f3565b6001600160a01b0316336001600160a01b031614610825573360405163089676d560e01b815260040161081c9190611572565b60405180910390fd5b565b5f5f5f5f61083485610a0f565b925092509250610845858383610ba0565b50909392505050565b5f5f6040518061014001604052808d6001600160a01b031681526020018c600181111561087d5761087d6116f1565b81526020018b6001600160a01b031681526020018a6001600160a01b03168152602001896001600160a01b0316815260200188815260200187815260200186815260200185151581526020018481525090505f6108d86109f3565b6001600160a01b03166348c89491306001600160a01b03166368a24fe0856040516024016109069190611725565b60408051808303601f1901815291815260208201805160e094851b6001600160e01b03909116179052519184901b6001600160e01b031916825261094e925090600401611553565b5f604051808303815f875af1158015610969573d5f5f3e3d5ffd5b505050506040513d5f823e601f3d908101601f1916820160405261099091908101906117dc565b9050808060200190518101906109a69190611850565b9d9c50505050505050505050505050565b5f5f6109c283610a0f565b5090949350505050565b5f516020611a1d5f395f51905f525c90565b5f516020611a1d5f395f51905f5281815d5050565b5f61023a6109ff6105c3565b600201546001600160a01b031690565b5f5f5f8360e00135421115610a3757604051630e08b8af60e41b815260040160405180910390fd5b5f6040518060e00160405280866020016020810190610a569190611867565b6001811115610a6757610a676116f1565b8152602001610a7c6060880160408901611885565b6001600160a01b03168152602001610a9a6080880160608901611885565b6001600160a01b03168152602001610ab860a0880160808901611885565b6001600160a01b0316815260a0870135602082015260c08701356040820152606001610ae86101208801886118a0565b8080601f0160208091040260200160405190810160405280939291908181526020018383808284375f9201919091525050509152509050610b276109f3565b6001600160a01b0316632bfb780c826040518263ffffffff1660e01b8152600401610b5291906118e9565b6060604051808303815f875af1158015610b6e573d5f5f3e3d5ffd5b505050506040513d601f19601f82011682018060405250810190610b92919061195f565b935093509350509193909250565b5f610ba9610cd1565b90505f610bb4610221565b90505f610bbf6109f3565b9050821580610c075750610bdb6101208701610100880161198a565b8015610c0757506001600160a01b038216610bfc6080880160608901611885565b6001600160a01b0316145b15610c4957610c44610c1c6020880188611885565b610c2c6080890160608a01611885565b87610c3f6101208b016101008c0161198a565b610cee565b610c54565b610c54868287610f8a565b610c8c610c646020880188611885565b610c7460a0890160808a01611885565b86610c876101208b016101008c0161198a565b6110d5565b6001600160a01b038216610ca66080880160608901611885565b6001600160a01b031603610cc957610cc9610cc46020880188611885565b611245565b505050505050565b5f61023a610cdd6105c3565b60020154600160a01b900460ff1690565b5f610cf7610221565b90505f610d026109f3565b90505f610d0d611290565b9050838015610d2d5750826001600160a01b0316866001600160a01b0316145b15610e865784471015610d535760405163500d4efb60e11b815260040160405180910390fd5b826001600160a01b031663d0e30db0866040518263ffffffff1660e01b81526004015f604051808303818588803b158015610d8c575f5ffd5b505af1158015610d9e573d5f5f3e3d5ffd5b505060405163a9059cbb60e01b81526001600160a01b038716935063a9059cbb9250610dd19150859089906004016119a5565b6020604051808303815f875af1158015610ded573d5f5f3e3d5ffd5b505050506040513d601f19601f82011682018060405250810190610e1191906119be565b506040516315afd40960e01b81526001600160a01b038316906315afd40990610e4090899089906004016119a5565b6020604051808303815f875af1158015610e5c573d5f5f3e3d5ffd5b505050506040513d601f19601f82011682018060405250810190610e809190611850565b50610f81565b8415610f8157806001600160a01b03166336c785168884610ea6896112ac565b6040516001600160e01b031960e086901b1681526001600160a01b03938416600482015291831660248301528216604482015290891660648201526084015f604051808303815f87803b158015610efb575f5ffd5b505af1158015610f0d573d5f5f3e3d5ffd5b50506040516315afd40960e01b81526001600160a01b03851692506315afd4099150610f3f90899089906004016119a5565b6020604051808303815f875af1158015610f5b573d5f5f3e3d5ffd5b505050506040513d601f19601f82011682018060405250810190610f7f9190611850565b505b50505050505050565b5f80610f9c6040860160208701611867565b6001811115610fad57610fad6116f1565b14610fbc578360c00135610fc2565b8360a001355b90505f6001600160a01b0384166315afd409610fe46080880160608901611885565b846040518363ffffffff1660e01b81526004016110029291906119a5565b6020604051808303815f875af115801561101e573d5f5f3e3d5ffd5b505050506040513d601f19601f820116820180604052508101906110429190611850565b9050818110156110765761105c6080860160608701611885565b6040516302150b5560e01b815260040161081c9190611572565b60016110886040870160208801611867565b6001811115611099576110996116f1565b036110ce576110ce6110ae6020870187611885565b6110be6080880160608901611885565b6110c886856119d9565b5f6110d5565b5050505050565b811561123f575f6110e4610221565b90505f6110ef6109f3565b905082801561110f5750816001600160a01b0316856001600160a01b0316145b156111df5760405163ae63932960e01b81526001600160a01b0382169063ae63932990611144908890309089906004016119f8565b5f604051808303815f87803b15801561115b575f5ffd5b505af115801561116d573d5f5f3e3d5ffd5b5050604051632e1a7d4d60e01b8152600481018790526001600160a01b0385169250632e1a7d4d91506024015f604051808303815f87803b1580156111b0575f5ffd5b505af11580156111c2573d5f5f3e3d5ffd5b506111da925050506001600160a01b038716856112bc565b610cc9565b60405163ae63932960e01b81526001600160a01b0382169063ae6393299061120f9088908a9089906004016119f8565b5f604051808303815f87803b158015611226575f5ffd5b505af1158015611238573d5f5f3e3d5ffd5b5050505050505b50505050565b475f819003611252575050565b7f19c2f6f76e6091adc2e8f63fc8cd9da9e3a8e9d5d1c4ae5d8f8e0f6c7b8a9d005c1561127d575050565b6107c86001600160a01b038316826112bc565b5f61023a61129c6105c3565b600101546001600160a01b031690565b5f6112b68261135b565b92915050565b804710156112e65760405163cf47918160e01b81524760048201526024810182905260440161081c565b5f826001600160a01b0316826040515f6040518083038185875af1925050503d805f811461132f576040519150601f19603f3d011682016040523d82523d5f602084013e611334565b606091505b50509050806113565760405163d6bda27560e01b815260040160405180910390fd5b505050565b5f600160a01b821061136f5761136f611373565b5090565b6335278d125f526004601cfd5b6001600160a01b038116811461078c575f5ffd5b634e487b7160e01b5f52604160045260245ffd5b604051601f8201601f191681016001600160401b03811182821017156113d0576113d0611394565b604052919050565b5f6001600160401b038211156113f0576113f0611394565b50601f01601f191660200190565b5f5f5f5f5f5f60c08789031215611413575f5ffd5b863561141e81611380565b9550602087013561142e81611380565b9450604087013561143e81611380565b935060608701359250608087013561145581611380565b915060a08701356001600160401b0381111561146f575f5ffd5b8701601f8101891361147f575f5ffd5b803561149261148d826113d8565b6113a8565b8181528a60208385010111156114a6575f5ffd5b816020840160208301375f602083830101528093505050509295509295509295565b5f8151808452602084019350602083015f5b828110156115025781516001600160e01b0319168652602095860195909101906001016114da565b5093949350505050565b602081525f61151e60208301846114c8565b9392505050565b5f81518084528060208401602086015e5f602082860101526020601f19601f83011685010191505092915050565b602081525f61151e6020830184611525565b6001600160a01b03169052565b6001600160a01b0391909116815260200190565b5f60208284031215611596575f5ffd5b81356001600160401b038111156115ab575f5ffd5b8201610140818503121561151e575f5ffd5b801515811461078c575f5ffd5b5f5f5f5f5f5f5f5f5f6101008a8c0312156115e3575f5ffd5b89356115ee81611380565b985060208a01356115fe81611380565b975060408a013561160e81611380565b965060608a0135955060808a0135945060a08a0135935060c08a0135611633816115bd565b925060e08a01356001600160401b0381111561164d575f5ffd5b8a01601f81018c1361165d575f5ffd5b80356001600160401b03811115611672575f5ffd5b8c6020828401011115611683575f5ffd5b60208201935080925050509295985092959850929598565b606081525f6116ad6060830186611525565b82810360208401526116bf81866114c8565b905082810360408401526116d381856114c8565b9695505050505050565b634e487b7160e01b5f52603260045260245ffd5b634e487b7160e01b5f52602160045260245ffd5b6002811061172157634e487b7160e01b5f52602160045260245ffd5b9052565b60208152611737602082018351611565565b5f602083015161174a6040840182611705565b50604083015161175d6060840182611565565b5060608301516117706080840182611565565b50608083015161178360a0840182611565565b5060a083015160c083015260c083015160e083015260e08301516101008301526101008301516117b861012084018215159052565b50610120830151610140808401526117d4610160840182611525565b949350505050565b5f602082840312156117ec575f5ffd5b81516001600160401b03811115611801575f5ffd5b8201601f81018413611811575f5ffd5b805161181f61148d826113d8565b818152856020838501011115611833575f5ffd5b8160208401602083015e5f91810160200191909152949350505050565b5f60208284031215611860575f5ffd5b5051919050565b5f60208284031215611877575f5ffd5b81356002811061151e575f5ffd5b5f60208284031215611895575f5ffd5b813561151e81611380565b5f5f8335601e198436030181126118b5575f5ffd5b8301803591506001600160401b038211156118ce575f5ffd5b6020019150368190038213156118e2575f5ffd5b9250929050565b602081526118fb602082018351611705565b60018060a01b03602083015116604082015260018060a01b03604083015116606082015260018060a01b036060830151166080820152608082015160a082015260a082015160c08201525f60c083015160e0808401526117d4610100840182611525565b5f5f5f60608486031215611971575f5ffd5b5050815160208301516040909301519094929350919050565b5f6020828403121561199a575f5ffd5b813561151e816115bd565b6001600160a01b03929092168252602082015260400190565b5f602082840312156119ce575f5ffd5b815161151e816115bd565b818103818111156112b657634e487b7160e01b5f52601160045260245ffd5b6001600160a01b03938416815291909216602082015260408101919091526060019056fe6c17b98ed641627be1f588a5e81d97edc6ddd1b560dfba5b46c2aa2c8ddd0d0085e416c3b4a964332bebb95fdf9a73cb8ded00cbd75143ad03246e01399c4247a2646970667358221220d92d18cae41bc3db088ddcd6376105a64be7d227d7b874c28492d0781faae35d64736f6c634300081e0033","linkReferences":{}},"methodIdentifiers":{"facetFuncs()":"574a4cff","facetInterfaces()":"2ea80826","facetMetadata()":"f10d7a75","facetName()":"5b6f4d01","getSender()":"5e01eb5a","querySwapHook((address,uint8,address,address,address,uint256,uint256,uint256,bool,bytes))":"be5ae841","querySwapSingleTokenExactIn(address,address,address,uint256,address,bytes)":"3ebc54e5","querySwapSingleTokenExactOut(address,address,address,uint256,address,bytes)":"175d4408","swapSingleTokenExactIn(address,address,address,uint256,uint256,uint256,bool,bytes)":"750283bc","swapSingleTokenExactOut(address,address,address,uint256,uint256,uint256,bool,bytes)":"94e86ef8","swapSingleTokenHook((address,uint8,address,address,address,uint256,uint256,uint256,bool,bytes))":"68a24fe0"},"id":935}