{"abi":[{"type":"constructor","inputs":[{"name":"initialOwner","type":"address","internalType":"address"},{"name":"ownershipBufferPeriod","type":"uint256","internalType":"uint256"}],"stateMutability":"nonpayable"},{"type":"function","name":"acceptOwnershipTransfer","inputs":[],"outputs":[],"stateMutability":"nonpayable"},{"type":"function","name":"cancelPendingOwnershipTransfer","inputs":[],"outputs":[],"stateMutability":"nonpayable"},{"type":"function","name":"confirmOwnershipTransfer","inputs":[{"name":"pendingOwner_","type":"address","internalType":"address"}],"outputs":[],"stateMutability":"nonpayable"},{"type":"function","name":"facetFuncs","inputs":[],"outputs":[{"name":"funcs","type":"bytes4[]","internalType":"bytes4[]"}],"stateMutability":"pure"},{"type":"function","name":"facetInterfaces","inputs":[],"outputs":[{"name":"interfaces","type":"bytes4[]","internalType":"bytes4[]"}],"stateMutability":"pure"},{"type":"function","name":"facetMetadata","inputs":[],"outputs":[{"name":"name","type":"string","internalType":"string"},{"name":"interfaces","type":"bytes4[]","internalType":"bytes4[]"},{"name":"functions","type":"bytes4[]","internalType":"bytes4[]"}],"stateMutability":"pure"},{"type":"function","name":"facetName","inputs":[],"outputs":[{"name":"name","type":"string","internalType":"string"}],"stateMutability":"pure"},{"type":"function","name":"getOwnershipTransferBuffer","inputs":[],"outputs":[{"name":"","type":"uint256","internalType":"uint256"}],"stateMutability":"view"},{"type":"function","name":"initiateOwnershipTransfer","inputs":[{"name":"pendingOwner_","type":"address","internalType":"address"}],"outputs":[],"stateMutability":"nonpayable"},{"type":"function","name":"owner","inputs":[],"outputs":[{"name":"","type":"address","internalType":"address"}],"stateMutability":"view"},{"type":"function","name":"pendingOwner","inputs":[],"outputs":[{"name":"","type":"address","internalType":"address"}],"stateMutability":"view"},{"type":"function","name":"preConfirmedOwner","inputs":[],"outputs":[{"name":"","type":"address","internalType":"address"}],"stateMutability":"view"},{"type":"event","name":"OwnershipTransferConfirmed","inputs":[{"name":"prevOwner","type":"address","indexed":true,"internalType":"address"},{"name":"newOwner","type":"address","indexed":true,"internalType":"address"}],"anonymous":false},{"type":"event","name":"OwnershipTransferInitiated","inputs":[{"name":"prevOwner","type":"address","indexed":true,"internalType":"address"},{"name":"newOwner","type":"address","indexed":true,"internalType":"address"}],"anonymous":false},{"type":"event","name":"OwnershipTransferred","inputs":[{"name":"prevOwner","type":"address","indexed":true,"internalType":"address"},{"name":"newOwner","type":"address","indexed":true,"internalType":"address"}],"anonymous":false},{"type":"error","name":"BufferPeriodNotElapsed","inputs":[{"name":"currentTime","type":"uint256","internalType":"uint256"},{"name":"bufferEndTime","type":"uint256","internalType":"uint256"}]},{"type":"error","name":"NotOwner","inputs":[{"name":"caller","type":"address","internalType":"address"}]},{"type":"error","name":"NotPending","inputs":[{"name":"caller","type":"address","internalType":"address"}]}],"bytecode":{"object":"0x6080604052348015600e575f5ffd5b506040516109c53803806109c5833981016040819052602b916081565b603382826039565b505060b6565b607d7f552e522d4f9b6a3d443b47299f900b7b1bce2dacca532b0186b605495413451d80546001600160a01b0319166001600160a01b038516178155600201829055565b5050565b5f5f604083850312156091575f5ffd5b82516001600160a01b038116811460a6575f5ffd5b6020939093015192949293505050565b610902806100c35f395ff3fe608060405234801561000f575f5ffd5b50600436106100a2575f3560e01c80630f9f2530146100a65780631af1b0c4146100c15780632ea80826146100d65780633c213957146100eb578063574a4cff146101005780635b6f4d0114610108578063737293e21461011d5780638da5cb5b14610125578063b842e87f1461012d578063c0b6f56114610135578063e30c397814610148578063f10d7a7514610150575b5f5ffd5b6100ae610167565b6040519081526020015b60405180910390f35b6100c9610175565b6040516100b8919061077a565b6100de61017e565b6040516100b891906107d2565b6100fe6100f93660046107eb565b6101d6565b005b6100de6101e2565b6101106103a1565b6040516100b8919061083f565b6100fe6103d0565b6100c96103da565b6100fe6103e3565b6100fe6101433660046107eb565b6103eb565b6100c96103f4565b6101586103fd565b6040516100b893929190610851565b5f610170610425565b905090565b5f610170610438565b60408051600180825281830190925260609160208083019080368337019050509050631318341f60e21b815f815181106101ba576101ba610893565b6001600160e01b03199092166020928302919091019091015290565b6101df81610449565b50565b6040805160088082526101208201909252606091602082016101008036833701905050905063c0b6f56160e01b815f8151811061022157610221610893565b6001600160e01b0319909216602092830291909101909101528051633c21395760e01b908290600190811061025857610258610893565b6001600160e01b03199092166020928302919091019091015280516339b949f160e11b908290600290811061028f5761028f610893565b6001600160e01b031990921660209283029190910190910152805163b842e87f60e01b90829060039081106102c6576102c6610893565b6001600160e01b0319909216602092830291909101909101528051638da5cb5b60e01b90829060049081106102fd576102fd610893565b6001600160e01b0319909216602092830291909101909101528051631c61872f60e31b908290600590811061033457610334610893565b6001600160e01b03199092166020928302919091019091015280516306bc6c3160e21b908290600690811061036b5761036b610893565b6001600160e01b031990921660209283029190910190910152805162f9f25360e41b90829060079081106101ba576101ba610893565b604080518082019091526015815274135d5b1d1a54dd195c13dddb98589b19519858d95d605a1b602082015290565b6103d861045a565b565b5f61017061046a565b6103d8610483565b6101df81610493565b5f6101706104a4565b606080606061040a6103a1565b925061041461017e565b915061041e6101e2565b9050909192565b5f6101706104316104c0565b6002015490565b5f6101706104446104c0565b6104e4565b6101df6104546104c0565b82610511565b6103d86104656104c0565b610603565b5f6101706104766104c0565b546001600160a01b031690565b6103d861048e6104c0565b61064c565b6101df61049e6104c0565b826106e6565b5f6101706104b06104c0565b600101546001600160a01b031690565b7f552e522d4f9b6a3d443b47299f900b7b1bce2dacca532b0186b605495413451d90565b60018101545f90600160a01b900460ff1661050057505f919050565b50600101546001600160a01b031690565b81546001600160a01b0316338114610547573360405163245aecd360e01b815260040161053e919061077a565b60405180910390fd5b826003015442101561057b57600383015460405163d64ede7360e01b8152426004820152602481019190915260440161053e565b60018301546001600160a01b0390811690831681146105af578260405163a7fa19b160e01b815260040161053e919061077a565b60018401805460ff60a01b198116600160a01b179091556040516001600160a01b03918216918416907f646fe5eeb20d96ea45a9caafcb508854a2fb5660885ced7772e12a633c974571905f90a350505050565b80546001600160a01b0316338114610630573360405163245aecd360e01b815260040161053e919061077a565b506001810180546001600160a81b03191690555f600390910155565b60018101546001600160a01b031633811461067c573360405163a7fa19b160e01b815260040161053e919061077a565b81546001600160a01b038281166001600160a01b03198316811785556001850180546001600160a81b03191690555f600386018190556040519290931692909183917f8be0079c531659141344cd1fd0a4f28419497f9722a3daafe3b4186f6b6457e091a3505050565b81546001600160a01b0316338114610713573360405163245aecd360e01b815260040161053e919061077a565b600283015461072290426108a7565b60038401556001830180546001600160a01b0319166001600160a01b0384811691821790925560405190918316907fb150023a879fd806e3599b6ca8ee3b60f0e360ab3846d128d67ebce1a391639a905f90a3505050565b6001600160a01b0391909116815260200190565b5f8151808452602084019350602083015f5b828110156107c85781516001600160e01b0319168652602095860195909101906001016107a0565b5093949350505050565b602081525f6107e4602083018461078e565b9392505050565b5f602082840312156107fb575f5ffd5b81356001600160a01b03811681146107e4575f5ffd5b5f81518084528060208401602086015e5f602082860101526020601f19601f83011685010191505092915050565b602081525f6107e46020830184610811565b606081525f6108636060830186610811565b8281036020840152610875818661078e565b90508281036040840152610889818561078e565b9695505050505050565b634e487b7160e01b5f52603260045260245ffd5b808201808211156108c657634e487b7160e01b5f52601160045260245ffd5b9291505056fea2646970667358221220ad9fc2c2b9834f15090d819ac33d468bbf4cf0d904315d55f27917f8899e764f64736f6c634300081e0033","linkReferences":{}},"methodIdentifiers":{"acceptOwnershipTransfer()":"b842e87f","cancelPendingOwnershipTransfer()":"737293e2","confirmOwnershipTransfer(address)":"3c213957","facetFuncs()":"574a4cff","facetInterfaces()":"2ea80826","facetMetadata()":"f10d7a75","facetName()":"5b6f4d01","getOwnershipTransferBuffer()":"0f9f2530","initiateOwnershipTransfer(address)":"c0b6f561","owner()":"8da5cb5b","pendingOwner()":"e30c3978","preConfirmedOwner()":"1af1b0c4"},"id":6}