{"abi":[{"type":"constructor","inputs":[{"name":"_voter","type":"address","internalType":"address"},{"name":"_ve","type":"address","internalType":"address"},{"name":"_rewardsDistributor","type":"address","internalType":"address"}],"stateMutability":"nonpayable"},{"type":"function","name":"MAXIMUM_TAIL_RATE","inputs":[],"outputs":[{"name":"","type":"uint256","internalType":"uint256"}],"stateMutability":"view"},{"type":"function","name":"MAXIMUM_TEAM_RATE","inputs":[],"outputs":[{"name":"","type":"uint256","internalType":"uint256"}],"stateMutability":"view"},{"type":"function","name":"MAX_BPS","inputs":[],"outputs":[{"name":"","type":"uint256","internalType":"uint256"}],"stateMutability":"view"},{"type":"function","name":"MINIMUM_TAIL_RATE","inputs":[],"outputs":[{"name":"","type":"uint256","internalType":"uint256"}],"stateMutability":"view"},{"type":"function","name":"NUDGE","inputs":[],"outputs":[{"name":"","type":"uint256","internalType":"uint256"}],"stateMutability":"view"},{"type":"function","name":"TAIL_START","inputs":[],"outputs":[{"name":"","type":"uint256","internalType":"uint256"}],"stateMutability":"view"},{"type":"function","name":"WEEK","inputs":[],"outputs":[{"name":"","type":"uint256","internalType":"uint256"}],"stateMutability":"view"},{"type":"function","name":"WEEKLY_DECAY","inputs":[],"outputs":[{"name":"","type":"uint256","internalType":"uint256"}],"stateMutability":"view"},{"type":"function","name":"WEEKLY_GROWTH","inputs":[],"outputs":[{"name":"","type":"uint256","internalType":"uint256"}],"stateMutability":"view"},{"type":"function","name":"acceptTeam","inputs":[],"outputs":[],"stateMutability":"nonpayable"},{"type":"function","name":"activePeriod","inputs":[],"outputs":[{"name":"","type":"uint256","internalType":"uint256"}],"stateMutability":"view"},{"type":"function","name":"aero","inputs":[],"outputs":[{"name":"","type":"address","internalType":"contract IAero"}],"stateMutability":"view"},{"type":"function","name":"calculateGrowth","inputs":[{"name":"_minted","type":"uint256","internalType":"uint256"}],"outputs":[{"name":"_growth","type":"uint256","internalType":"uint256"}],"stateMutability":"view"},{"type":"function","name":"epochCount","inputs":[],"outputs":[{"name":"","type":"uint256","internalType":"uint256"}],"stateMutability":"view"},{"type":"function","name":"initialize","inputs":[{"name":"params","type":"tuple","internalType":"struct IMinter.AirdropParams","components":[{"name":"liquidWallets","type":"address[]","internalType":"address[]"},{"name":"liquidAmounts","type":"uint256[]","internalType":"uint256[]"},{"name":"lockedWallets","type":"address[]","internalType":"address[]"},{"name":"lockedAmounts","type":"uint256[]","internalType":"uint256[]"}]}],"outputs":[],"stateMutability":"nonpayable"},{"type":"function","name":"initialized","inputs":[],"outputs":[{"name":"","type":"bool","internalType":"bool"}],"stateMutability":"view"},{"type":"function","name":"nudge","inputs":[],"outputs":[],"stateMutability":"nonpayable"},{"type":"function","name":"pendingTeam","inputs":[],"outputs":[{"name":"","type":"address","internalType":"address"}],"stateMutability":"view"},{"type":"function","name":"proposals","inputs":[{"name":"","type":"uint256","internalType":"uint256"}],"outputs":[{"name":"","type":"bool","internalType":"bool"}],"stateMutability":"view"},{"type":"function","name":"rewardsDistributor","inputs":[],"outputs":[{"name":"","type":"address","internalType":"contract IRewardsDistributor"}],"stateMutability":"view"},{"type":"function","name":"setTeam","inputs":[{"name":"_team","type":"address","internalType":"address"}],"outputs":[],"stateMutability":"nonpayable"},{"type":"function","name":"setTeamRate","inputs":[{"name":"_rate","type":"uint256","internalType":"uint256"}],"outputs":[],"stateMutability":"nonpayable"},{"type":"function","name":"tailEmissionRate","inputs":[],"outputs":[{"name":"","type":"uint256","internalType":"uint256"}],"stateMutability":"view"},{"type":"function","name":"team","inputs":[],"outputs":[{"name":"","type":"address","internalType":"address"}],"stateMutability":"view"},{"type":"function","name":"teamRate","inputs":[],"outputs":[{"name":"","type":"uint256","internalType":"uint256"}],"stateMutability":"view"},{"type":"function","name":"updatePeriod","inputs":[],"outputs":[{"name":"_period","type":"uint256","internalType":"uint256"}],"stateMutability":"nonpayable"},{"type":"function","name":"ve","inputs":[],"outputs":[{"name":"","type":"address","internalType":"contract IVotingEscrow"}],"stateMutability":"view"},{"type":"function","name":"voter","inputs":[],"outputs":[{"name":"","type":"address","internalType":"contract IVoter"}],"stateMutability":"view"},{"type":"function","name":"weekly","inputs":[],"outputs":[{"name":"","type":"uint256","internalType":"uint256"}],"stateMutability":"view"},{"type":"event","name":"AcceptTeam","inputs":[{"name":"_newTeam","type":"address","indexed":true,"internalType":"address"}],"anonymous":false},{"type":"event","name":"DistributeLiquid","inputs":[{"name":"_destination","type":"address","indexed":true,"internalType":"address"},{"name":"_amount","type":"uint256","indexed":false,"internalType":"uint256"}],"anonymous":false},{"type":"event","name":"DistributeLocked","inputs":[{"name":"_destination","type":"address","indexed":true,"internalType":"address"},{"name":"_amount","type":"uint256","indexed":false,"internalType":"uint256"},{"name":"_tokenId","type":"uint256","indexed":false,"internalType":"uint256"}],"anonymous":false},{"type":"event","name":"Mint","inputs":[{"name":"_sender","type":"address","indexed":true,"internalType":"address"},{"name":"_weekly","type":"uint256","indexed":false,"internalType":"uint256"},{"name":"_circulating_supply","type":"uint256","indexed":false,"internalType":"uint256"},{"name":"_tail","type":"bool","indexed":true,"internalType":"bool"}],"anonymous":false},{"type":"event","name":"Nudge","inputs":[{"name":"_period","type":"uint256","indexed":true,"internalType":"uint256"},{"name":"_oldRate","type":"uint256","indexed":false,"internalType":"uint256"},{"name":"_newRate","type":"uint256","indexed":false,"internalType":"uint256"}],"anonymous":false},{"type":"error","name":"AlreadyInitialized","inputs":[]},{"type":"error","name":"AlreadyNudged","inputs":[]},{"type":"error","name":"InvalidParams","inputs":[]},{"type":"error","name":"NotEpochGovernor","inputs":[]},{"type":"error","name":"NotPendingTeam","inputs":[]},{"type":"error","name":"NotTeam","inputs":[]},{"type":"error","name":"RateTooHigh","inputs":[]},{"type":"error","name":"SafeERC20FailedOperation","inputs":[{"name":"token","type":"address","internalType":"address"}]},{"type":"error","name":"TailEmissionsInactive","inputs":[]},{"type":"error","name":"ZeroAddress","inputs":[]}],"bytecode":{"object":"0x61010060405260435f556101f46001556a084595161401484a000000600255348015610029575f5ffd5b50604051611bdb380380611bdb83398101604081905261004891610118565b816001600160a01b031663fc0c546a6040518163ffffffff1660e01b8152600401602060405180830381865afa158015610084573d5f5f3e3d5ffd5b505050506040513d601f19601f820116820180604052508101906100a89190610158565b6001600160a01b0390811660805283811660a05282811660c052600680546001600160a01b03191633179055811660e05262093a806100e78142610178565b6100f19190610197565b600355506101c0915050565b80516001600160a01b0381168114610113575f5ffd5b919050565b5f5f5f6060848603121561012a575f5ffd5b610133846100fd565b9250610141602085016100fd565b915061014f604085016100fd565b90509250925092565b5f60208284031215610168575f5ffd5b610171826100fd565b9392505050565b5f8261019257634e487b7160e01b5f52601260045260245ffd5b500490565b80820281158282048414176101ba57634e487b7160e01b5f52601160045260245ffd5b92915050565b60805160a05160c05160e0516119476102945f395f8181610265015281816109d201526109fa01525f81816101e601528181610f8601528181610fb70152818161107c015281816110dd01528181611243015261127201525f818161028c0152818161043501528181610a970152610ad201525f818161021a015281816106df0152818161083c015281816108d901528181610979015281816109b001528181610a7301528181610b6201528181610d3601528181610edf01528181610f6401528181611221015261131001526119475ff3fe608060405234801561000f575f5ffd5b506004361061015d575f3560e01c8063013cf08b14610161578063095cf5c6146101985780630a441f7b146101ad578063158ef93e146101c4578063172a0a60146101d85780631f850716146101e157806326837eda1461021557806326cfc17b1461023c5780632e8f7b1f146102455780633a6d93a4146102585780633f2a55401461026057806346c96aac1461028757806359d46ffc146102ae57806378ef7f02146102c1578063817ad595146102ca578063829965cc146102d357806385f2aef2146102dc5780639008a642146102ef5780639ba6f976146102f75780639fa8cbf1146102ff578063a83627de14610307578063ac68da44146102ff578063b5cc143a1461030f578063dc03d0c114610317578063e4a091da1461032a578063ea64743d1461033d578063ef74b74c14610346578063f4359ce514610358578063fd967f4714610362575b5f5ffd5b61018361016f36600461151d565b60056020525f908152604090205460ff1681565b60405190151581526020015b60405180910390f35b6101ab6101a636600461154b565b61036b565b005b6101b660035481565b60405190815260200161018f565b60075461018390600160a01b900460ff1681565b6101b661283c81565b6102087f000000000000000000000000000000000000000000000000000000000000000081565b60405161018f919061156d565b6102087f000000000000000000000000000000000000000000000000000000000000000081565b6101b660025481565b6101ab61025336600461151d565b6103df565b6101b6606481565b6102087f000000000000000000000000000000000000000000000000000000000000000081565b6102087f000000000000000000000000000000000000000000000000000000000000000081565b600754610208906001600160a01b031681565b6101b660015481565b6101b66101f481565b6101b660045481565b600654610208906001600160a01b031681565b6101ab610432565b6101b65f5481565b6101b6600181565b6101b6610689565b6101ab610c03565b6101ab6103253660046116dd565b610c81565b6101b661033836600461151d565b61126e565b6101b66126ac81565b6101b66a076b4a988436a8c838000081565b6101b662093a8081565b6101b661271081565b6006546001600160a01b0316331461039657604051633a7cfa5d60e21b815260040160405180910390fd5b6001600160a01b0381166103bd5760405163d92e233d60e01b815260040160405180910390fd5b600780546001600160a01b0319166001600160a01b0392909216919091179055565b6006546001600160a01b0316331461040a57604051633a7cfa5d60e21b815260040160405180910390fd5b6101f481111561042d576040516347765d3b60e11b815260040160405180910390fd5b600155565b5f7f00000000000000000000000000000000000000000000000000000000000000006001600160a01b0316633aae971f6040518163ffffffff1660e01b8152600401602060405180830381865afa15801561048f573d5f5f3e3d5ffd5b505050506040513d601f19601f820116820180604052508101906104b391906117c5565b9050336001600160a01b038216146104de576040516349bb6a7d60e11b815260040160405180910390fd5b5f816001600160a01b031663653721476040518163ffffffff1660e01b81526004016020604051808303815f875af115801561051c573d5f5f3e3d5ffd5b505050506040513d601f19601f8201168201806040525081019061054091906117e0565b90506a076b4a988436a8c83800006002541061056f576040516360d6b4d960e01b815260040160405180910390fd5b6003545f8181526005602052604090205460ff16156105a15760405163b292ec6560e01b815260040160405180910390fd5b5f548060068460078111156105b8576105b86117fe565b1461062e5760048460078111156105d1576105d16117fe565b036106025760646105e3600183611826565b116105f8576105f3600182611826565b6105fb565b60645b9150610629565b600161060e818361183f565b106106235761061e60018261183f565b610626565b60015b91505b5f8290555b5f8381526005602052604090819020805460ff191660011790555183907f89f7f67bc867b6d7eefd5bd92b0df77051c2507700c7994efc25cfc679a0c5269061067a9084908690611852565b60405180910390a25050505050565b60035461069962093a8082611826565b4210610c005760048054905f6106ae83611860565b9091555062093a8090506106c28142611878565b6106cc9190611897565b9050806003819055505f60025490505f5f7f00000000000000000000000000000000000000000000000000000000000000006001600160a01b03166318160ddd6040518163ffffffff1660e01b8152600401602060405180830381865afa158015610739573d5f5f3e3d5ffd5b505050506040513d601f19601f8201168201806040525081019061075d91906118ae565b90506a076b4a988436a8c838000083108015610794576127105f54836107839190611897565b61078d9190611878565b92506107e4565b839250600f60045410156107c2576127106107b161283c86611897565b6107bb9190611878565b93506107de565b6127106107d16126ac86611897565b6107db9190611878565b93505b60028490555b5f6107ee8461126e565b6001549091505f6108018261271061183f565b61080b8885611826565b6108159084611897565b61081f9190611878565b90505f8161082d8886611826565b6108379190611826565b90505f7f00000000000000000000000000000000000000000000000000000000000000006001600160a01b03166370a08231306040518263ffffffff1660e01b8152600401610886919061156d565b602060405180830381865afa1580156108a1573d5f5f3e3d5ffd5b505050506040513d601f19601f820116820180604052508101906108c591906118ae565b905081811015610968576001600160a01b037f0000000000000000000000000000000000000000000000000000000000000000166340c10f1930610909848661183f565b6040518363ffffffff1660e01b81526004016109269291906118c5565b6020604051808303815f875af1158015610942573d5f5f3e3d5ffd5b505050506040513d601f19601f8201168201806040525081019061096691906118de565b505b6006546109a2906001600160a01b037f000000000000000000000000000000000000000000000000000000000000000081169116856113e2565b506109f76001600160a01b037f0000000000000000000000000000000000000000000000000000000000000000167f0000000000000000000000000000000000000000000000000000000000000000876113e2565b507f00000000000000000000000000000000000000000000000000000000000000006001600160a01b031663bee5dc326040518163ffffffff1660e01b81526004015f604051808303815f87803b158015610a50575f5ffd5b505af1158015610a62573d5f5f3e3d5ffd5b50610abc9250506001600160a01b037f00000000000000000000000000000000000000000000000000000000000000001690507f00000000000000000000000000000000000000000000000000000000000000008a611401565b604051633c6b16ab60e01b8152600481018990527f00000000000000000000000000000000000000000000000000000000000000006001600160a01b031690633c6b16ab906024015f604051808303815f87803b158015610b1b575f5ffd5b505af1158015610b2d573d5f5f3e3d5ffd5b50505050851515336001600160a01b03167fcd2127828092f586df56003faf212897e901bb47f89a227e1acd3a0738f1fe5f8a7f00000000000000000000000000000000000000000000000000000000000000006001600160a01b03166318160ddd6040518163ffffffff1660e01b8152600401602060405180830381865afa158015610bbc573d5f5f3e3d5ffd5b505050506040513d601f19601f82011682018060405250810190610be091906118ae565b604051610bee929190611852565b60405180910390a35050505050505050505b90565b6007546001600160a01b03163314610c2e5760405163071110c760e51b815260040160405180910390fd5b60078054600680546001600160a01b0383166001600160a01b031991821681179092559091169091556040517fe25466fe8250322bee73bc230e10775fe0da57be723ebdabfdc8b62b4ba0d10c905f90a2565b600754600160a01b900460ff1615610cab5760405162dc149f60e41b815260040160405180910390fd5b6006546001600160a01b03163314610cd657604051633a7cfa5d60e21b815260040160405180910390fd5b602081015151815151141580610cf6575080606001515181604001515114155b15610d1457604051635435b28960e11b815260040160405180910390fd5b6007805460ff60a01b1916600160a01b1790558051515f5b81811015610e7f577f00000000000000000000000000000000000000000000000000000000000000006001600160a01b03166340c10f19845f01518381518110610d7857610d786118fd565b602002602001015185602001518481518110610d9657610d966118fd565b60200260200101516040518363ffffffff1660e01b8152600401610dbb9291906118c5565b6020604051808303815f875af1158015610dd7573d5f5f3e3d5ffd5b505050506040513d601f19601f82011682018060405250810190610dfb91906118de565b508251805182908110610e1057610e106118fd565b60200260200101516001600160a01b03167fad55b70c3adab3ed0dbd5a6924908c58a5c6f7ef36086ea57a46ecbea914bf9284602001518381518110610e5857610e586118fd565b6020026020010151604051610e6f91815260200190565b60405180910390a2600101610d2c565b50506040810151515f805b82811015610ec55783606001518181518110610ea857610ea86118fd565b602002602001015182610ebb9190611826565b9150600101610e8a565b506040516340c10f1960e01b81525f906001600160a01b037f000000000000000000000000000000000000000000000000000000000000000016906340c10f1990610f1690309086906004016118c5565b6020604051808303815f875af1158015610f32573d5f5f3e3d5ffd5b505050506040513d601f19601f82011682018060405250810190610f5691906118de565b50610fab6001600160a01b037f0000000000000000000000000000000000000000000000000000000000000000167f000000000000000000000000000000000000000000000000000000000000000084611401565b5f5b83811015611213577f00000000000000000000000000000000000000000000000000000000000000006001600160a01b031663b52c05fe86606001518381518110610ffa57610ffa6118fd565b602002602001015162093a806040518363ffffffff1660e01b8152600401611023929190611852565b6020604051808303815f875af115801561103f573d5f5f3e3d5ffd5b505050506040513d601f19601f8201168201806040525081019061106391906118ae565b6040516373ad8e1760e11b8152600481018290529092507f00000000000000000000000000000000000000000000000000000000000000006001600160a01b03169063e75b1c2e906024015f604051808303815f87803b1580156110c5575f5ffd5b505af11580156110d7573d5f5f3e3d5ffd5b505050507f00000000000000000000000000000000000000000000000000000000000000006001600160a01b03166342842e0e3087604001518481518110611121576111216118fd565b60209081029190910101516040516001600160e01b031960e085901b1681526001600160a01b03928316600482015291166024820152604481018590526064015f604051808303815f87803b158015611178575f5ffd5b505af115801561118a573d5f5f3e3d5ffd5b50505050846040015181815181106111a4576111a46118fd565b60200260200101516001600160a01b03167feaf2fed4f7f20988cb8090e5cb6ca6867a5e85be3d3a2b70691e8329ae96d618866060015183815181106111ec576111ec6118fd565b602002602001015184604051611203929190611852565b60405180910390a2600101610fad565b506112686001600160a01b037f0000000000000000000000000000000000000000000000000000000000000000167f00000000000000000000000000000000000000000000000000000000000000005f611401565b50505050565b5f5f7f00000000000000000000000000000000000000000000000000000000000000006001600160a01b031663981b24d060016003546112ae919061183f565b6040518263ffffffff1660e01b81526004016112cc91815260200190565b602060405180830381865afa1580156112e7573d5f5f3e3d5ffd5b505050506040513d601f19601f8201168201806040525081019061130b91906118ae565b90505f7f00000000000000000000000000000000000000000000000000000000000000006001600160a01b03166318160ddd6040518163ffffffff1660e01b8152600401602060405180830381865afa15801561136a573d5f5f3e3d5ffd5b505050506040513d601f19601f8201168201806040525081019061138e91906118ae565b905060028161139d848261183f565b836113a8868261183f565b6113b29089611897565b6113bc9190611878565b6113c69190611897565b6113d09190611878565b6113da9190611878565b949350505050565b5f6113f76001600160a01b038516848461145c565b5060019392505050565b6114578363095ea7b360e01b84846040516024016114209291906118c5565b60408051601f198184030181529190526020810180516001600160e01b03166001600160e01b031990931692909217909152611467565b505050565b6114578383836114d3565b5f5f60205f8451602086015f885af180611486576040513d5f823e3d81fd5b50505f513d9150811561149d5780600114156114aa565b6001600160a01b0384163b155b156112685783604051635274afe760e01b81526004016114ca919061156d565b60405180910390fd5b816014528060345263a9059cbb60601b5f5260205f604460105f875af18060015f51141661151357803d853b151710611513576390b8ec185f526004601cfd5b505f603452505050565b5f6020828403121561152d575f5ffd5b5035919050565b6001600160a01b0381168114611548575f5ffd5b50565b5f6020828403121561155b575f5ffd5b813561156681611534565b9392505050565b6001600160a01b0391909116815260200190565b634e487b7160e01b5f52604160045260245ffd5b604051608081016001600160401b03811182821017156115b7576115b7611581565b60405290565b604051601f8201601f191681016001600160401b03811182821017156115e5576115e5611581565b604052919050565b5f6001600160401b0382111561160557611605611581565b5060051b60200190565b5f82601f83011261161e575f5ffd5b813561163161162c826115ed565b6115bd565b8082825260208201915060208360051b860101925085831115611652575f5ffd5b602085015b8381101561167857803561166a81611534565b835260209283019201611657565b5095945050505050565b5f82601f830112611691575f5ffd5b813561169f61162c826115ed565b8082825260208201915060208360051b8601019250858311156116c0575f5ffd5b602085015b838110156116785780358352602092830192016116c5565b5f602082840312156116ed575f5ffd5b81356001600160401b03811115611702575f5ffd5b820160808185031215611713575f5ffd5b61171b611595565b81356001600160401b03811115611730575f5ffd5b61173c8682850161160f565b82525060208201356001600160401b03811115611757575f5ffd5b61176386828501611682565b60208301525060408201356001600160401b03811115611781575f5ffd5b61178d8682850161160f565b60408301525060608201356001600160401b038111156117ab575f5ffd5b6117b786828501611682565b606083015250949350505050565b5f602082840312156117d5575f5ffd5b815161156681611534565b5f602082840312156117f0575f5ffd5b815160088110611566575f5ffd5b634e487b7160e01b5f52602160045260245ffd5b634e487b7160e01b5f52601160045260245ffd5b8082018082111561183957611839611812565b92915050565b8181038181111561183957611839611812565b918252602082015260400190565b5f6001820161187157611871611812565b5060010190565b5f8261189257634e487b7160e01b5f52601260045260245ffd5b500490565b808202811582820484141761183957611839611812565b5f602082840312156118be575f5ffd5b5051919050565b6001600160a01b03929092168252602082015260400190565b5f602082840312156118ee575f5ffd5b81518015158114611566575f5ffd5b634e487b7160e01b5f52603260045260245ffdfea26469706673582212207ee7b985d48edd90f37c63cdd6b22878675e9661e4971aab0482ddb2886b0fc664736f6c634300081e0033","linkReferences":{}},"methodIdentifiers":{"MAXIMUM_TAIL_RATE()":"3a6d93a4","MAXIMUM_TEAM_RATE()":"817ad595","MAX_BPS()":"fd967f47","MINIMUM_TAIL_RATE()":"9fa8cbf1","NUDGE()":"ac68da44","TAIL_START()":"ef74b74c","WEEK()":"f4359ce5","WEEKLY_DECAY()":"ea64743d","WEEKLY_GROWTH()":"172a0a60","acceptTeam()":"b5cc143a","activePeriod()":"0a441f7b","aero()":"26837eda","calculateGrowth(uint256)":"e4a091da","epochCount()":"829965cc","initialize((address[],uint256[],address[],uint256[]))":"dc03d0c1","initialized()":"158ef93e","nudge()":"9008a642","pendingTeam()":"59d46ffc","proposals(uint256)":"013cf08b","rewardsDistributor()":"3f2a5540","setTeam(address)":"095cf5c6","setTeamRate(uint256)":"2e8f7b1f","tailEmissionRate()":"9ba6f976","team()":"85f2aef2","teamRate()":"78ef7f02","updatePeriod()":"a83627de","ve()":"1f850716","voter()":"46c96aac","weekly()":"26cfc17b"},"id":808}