{"abi":[{"type":"constructor","inputs":[{"name":"vault","type":"address","internalType":"contract IVault"},{"name":"registry","type":"address","internalType":"contract IBalancerContractRegistry"},{"name":"defaultMevTaxMultiplier","type":"uint256","internalType":"uint256"},{"name":"defaultMevTaxThreshold","type":"uint256","internalType":"uint256"}],"stateMutability":"nonpayable"},{"type":"function","name":"addMevTaxExemptSenders","inputs":[{"name":"senders","type":"address[]","internalType":"address[]"}],"outputs":[],"stateMutability":"nonpayable"},{"type":"function","name":"disableMevTax","inputs":[],"outputs":[],"stateMutability":"nonpayable"},{"type":"function","name":"enableMevTax","inputs":[],"outputs":[],"stateMutability":"nonpayable"},{"type":"function","name":"getActionId","inputs":[{"name":"selector","type":"bytes4","internalType":"bytes4"}],"outputs":[{"name":"","type":"bytes32","internalType":"bytes32"}],"stateMutability":"view"},{"type":"function","name":"getAuthorizer","inputs":[],"outputs":[{"name":"","type":"address","internalType":"contract IAuthorizer"}],"stateMutability":"view"},{"type":"function","name":"getBalancerContractRegistry","inputs":[],"outputs":[{"name":"","type":"address","internalType":"contract IBalancerContractRegistry"}],"stateMutability":"view"},{"type":"function","name":"getDefaultMevTaxMultiplier","inputs":[],"outputs":[{"name":"","type":"uint256","internalType":"uint256"}],"stateMutability":"view"},{"type":"function","name":"getDefaultMevTaxThreshold","inputs":[],"outputs":[{"name":"","type":"uint256","internalType":"uint256"}],"stateMutability":"view"},{"type":"function","name":"getHookFlags","inputs":[],"outputs":[{"name":"","type":"tuple","internalType":"struct HookFlags","components":[{"name":"enableHookAdjustedAmounts","type":"bool","internalType":"bool"},{"name":"shouldCallBeforeInitialize","type":"bool","internalType":"bool"},{"name":"shouldCallAfterInitialize","type":"bool","internalType":"bool"},{"name":"shouldCallComputeDynamicSwapFee","type":"bool","internalType":"bool"},{"name":"shouldCallBeforeSwap","type":"bool","internalType":"bool"},{"name":"shouldCallAfterSwap","type":"bool","internalType":"bool"},{"name":"shouldCallBeforeAddLiquidity","type":"bool","internalType":"bool"},{"name":"shouldCallAfterAddLiquidity","type":"bool","internalType":"bool"},{"name":"shouldCallBeforeRemoveLiquidity","type":"bool","internalType":"bool"},{"name":"shouldCallAfterRemoveLiquidity","type":"bool","internalType":"bool"}]}],"stateMutability":"pure"},{"type":"function","name":"getMaxMevSwapFeePercentage","inputs":[],"outputs":[{"name":"","type":"uint256","internalType":"uint256"}],"stateMutability":"view"},{"type":"function","name":"getPoolMevTaxMultiplier","inputs":[{"name":"pool","type":"address","internalType":"address"}],"outputs":[{"name":"","type":"uint256","internalType":"uint256"}],"stateMutability":"view"},{"type":"function","name":"getPoolMevTaxThreshold","inputs":[{"name":"pool","type":"address","internalType":"address"}],"outputs":[{"name":"","type":"uint256","internalType":"uint256"}],"stateMutability":"view"},{"type":"function","name":"getVault","inputs":[],"outputs":[{"name":"","type":"address","internalType":"contract IVault"}],"stateMutability":"view"},{"type":"function","name":"isMevTaxEnabled","inputs":[],"outputs":[{"name":"","type":"bool","internalType":"bool"}],"stateMutability":"view"},{"type":"function","name":"isMevTaxExemptSender","inputs":[{"name":"sender","type":"address","internalType":"address"}],"outputs":[{"name":"","type":"bool","internalType":"bool"}],"stateMutability":"view"},{"type":"function","name":"onAfterAddLiquidity","inputs":[{"name":"","type":"address","internalType":"address"},{"name":"","type":"address","internalType":"address"},{"name":"","type":"uint8","internalType":"enum AddLiquidityKind"},{"name":"","type":"uint256[]","internalType":"uint256[]"},{"name":"amountsInRaw","type":"uint256[]","internalType":"uint256[]"},{"name":"","type":"uint256","internalType":"uint256"},{"name":"","type":"uint256[]","internalType":"uint256[]"},{"name":"","type":"bytes","internalType":"bytes"}],"outputs":[{"name":"","type":"bool","internalType":"bool"},{"name":"","type":"uint256[]","internalType":"uint256[]"}],"stateMutability":"nonpayable"},{"type":"function","name":"onAfterInitialize","inputs":[{"name":"","type":"uint256[]","internalType":"uint256[]"},{"name":"","type":"uint256","internalType":"uint256"},{"name":"","type":"bytes","internalType":"bytes"}],"outputs":[{"name":"","type":"bool","internalType":"bool"}],"stateMutability":"nonpayable"},{"type":"function","name":"onAfterRemoveLiquidity","inputs":[{"name":"","type":"address","internalType":"address"},{"name":"","type":"address","internalType":"address"},{"name":"","type":"uint8","internalType":"enum RemoveLiquidityKind"},{"name":"","type":"uint256","internalType":"uint256"},{"name":"","type":"uint256[]","internalType":"uint256[]"},{"name":"amountsOutRaw","type":"uint256[]","internalType":"uint256[]"},{"name":"","type":"uint256[]","internalType":"uint256[]"},{"name":"","type":"bytes","internalType":"bytes"}],"outputs":[{"name":"","type":"bool","internalType":"bool"},{"name":"","type":"uint256[]","internalType":"uint256[]"}],"stateMutability":"nonpayable"},{"type":"function","name":"onAfterSwap","inputs":[{"name":"","type":"tuple","internalType":"struct AfterSwapParams","components":[{"name":"kind","type":"uint8","internalType":"enum SwapKind"},{"name":"tokenIn","type":"address","internalType":"contract IERC20"},{"name":"tokenOut","type":"address","internalType":"contract IERC20"},{"name":"amountInScaled18","type":"uint256","internalType":"uint256"},{"name":"amountOutScaled18","type":"uint256","internalType":"uint256"},{"name":"tokenInBalanceScaled18","type":"uint256","internalType":"uint256"},{"name":"tokenOutBalanceScaled18","type":"uint256","internalType":"uint256"},{"name":"amountCalculatedScaled18","type":"uint256","internalType":"uint256"},{"name":"amountCalculatedRaw","type":"uint256","internalType":"uint256"},{"name":"router","type":"address","internalType":"address"},{"name":"pool","type":"address","internalType":"address"},{"name":"userData","type":"bytes","internalType":"bytes"}]}],"outputs":[{"name":"","type":"bool","internalType":"bool"},{"name":"","type":"uint256","internalType":"uint256"}],"stateMutability":"nonpayable"},{"type":"function","name":"onBeforeAddLiquidity","inputs":[{"name":"","type":"address","internalType":"address"},{"name":"pool","type":"address","internalType":"address"},{"name":"kind","type":"uint8","internalType":"enum AddLiquidityKind"},{"name":"","type":"uint256[]","internalType":"uint256[]"},{"name":"","type":"uint256","internalType":"uint256"},{"name":"","type":"uint256[]","internalType":"uint256[]"},{"name":"","type":"bytes","internalType":"bytes"}],"outputs":[{"name":"success","type":"bool","internalType":"bool"}],"stateMutability":"view"},{"type":"function","name":"onBeforeInitialize","inputs":[{"name":"","type":"uint256[]","internalType":"uint256[]"},{"name":"","type":"bytes","internalType":"bytes"}],"outputs":[{"name":"","type":"bool","internalType":"bool"}],"stateMutability":"nonpayable"},{"type":"function","name":"onBeforeRemoveLiquidity","inputs":[{"name":"","type":"address","internalType":"address"},{"name":"pool","type":"address","internalType":"address"},{"name":"kind","type":"uint8","internalType":"enum RemoveLiquidityKind"},{"name":"","type":"uint256","internalType":"uint256"},{"name":"","type":"uint256[]","internalType":"uint256[]"},{"name":"","type":"uint256[]","internalType":"uint256[]"},{"name":"","type":"bytes","internalType":"bytes"}],"outputs":[{"name":"success","type":"bool","internalType":"bool"}],"stateMutability":"view"},{"type":"function","name":"onBeforeSwap","inputs":[{"name":"","type":"tuple","internalType":"struct PoolSwapParams","components":[{"name":"kind","type":"uint8","internalType":"enum SwapKind"},{"name":"amountGivenScaled18","type":"uint256","internalType":"uint256"},{"name":"balancesScaled18","type":"uint256[]","internalType":"uint256[]"},{"name":"indexIn","type":"uint256","internalType":"uint256"},{"name":"indexOut","type":"uint256","internalType":"uint256"},{"name":"router","type":"address","internalType":"address"},{"name":"userData","type":"bytes","internalType":"bytes"}]},{"name":"","type":"address","internalType":"address"}],"outputs":[{"name":"","type":"bool","internalType":"bool"}],"stateMutability":"nonpayable"},{"type":"function","name":"onComputeDynamicSwapFeePercentage","inputs":[{"name":"params","type":"tuple","internalType":"struct PoolSwapParams","components":[{"name":"kind","type":"uint8","internalType":"enum SwapKind"},{"name":"amountGivenScaled18","type":"uint256","internalType":"uint256"},{"name":"balancesScaled18","type":"uint256[]","internalType":"uint256[]"},{"name":"indexIn","type":"uint256","internalType":"uint256"},{"name":"indexOut","type":"uint256","internalType":"uint256"},{"name":"router","type":"address","internalType":"address"},{"name":"userData","type":"bytes","internalType":"bytes"}]},{"name":"pool","type":"address","internalType":"address"},{"name":"staticSwapFeePercentage","type":"uint256","internalType":"uint256"}],"outputs":[{"name":"","type":"bool","internalType":"bool"},{"name":"","type":"uint256","internalType":"uint256"}],"stateMutability":"view"},{"type":"function","name":"onRegister","inputs":[{"name":"","type":"address","internalType":"address"},{"name":"pool","type":"address","internalType":"address"},{"name":"","type":"tuple[]","internalType":"struct TokenConfig[]","components":[{"name":"token","type":"address","internalType":"contract IERC20"},{"name":"tokenType","type":"uint8","internalType":"enum TokenType"},{"name":"rateProvider","type":"address","internalType":"contract IRateProvider"},{"name":"paysYieldFees","type":"bool","internalType":"bool"}]},{"name":"","type":"tuple","internalType":"struct LiquidityManagement","components":[{"name":"disableUnbalancedLiquidity","type":"bool","internalType":"bool"},{"name":"enableAddLiquidityCustom","type":"bool","internalType":"bool"},{"name":"enableRemoveLiquidityCustom","type":"bool","internalType":"bool"},{"name":"enableDonation","type":"bool","internalType":"bool"}]}],"outputs":[{"name":"","type":"bool","internalType":"bool"}],"stateMutability":"nonpayable"},{"type":"function","name":"removeMevTaxExemptSenders","inputs":[{"name":"senders","type":"address[]","internalType":"address[]"}],"outputs":[],"stateMutability":"nonpayable"},{"type":"function","name":"setDefaultMevTaxMultiplier","inputs":[{"name":"newDefaultMevTaxMultiplier","type":"uint256","internalType":"uint256"}],"outputs":[],"stateMutability":"nonpayable"},{"type":"function","name":"setDefaultMevTaxThreshold","inputs":[{"name":"newDefaultMevTaxThreshold","type":"uint256","internalType":"uint256"}],"outputs":[],"stateMutability":"nonpayable"},{"type":"function","name":"setMaxMevSwapFeePercentage","inputs":[{"name":"maxMevSwapFeePercentage","type":"uint256","internalType":"uint256"}],"outputs":[],"stateMutability":"nonpayable"},{"type":"function","name":"setPoolMevTaxMultiplier","inputs":[{"name":"pool","type":"address","internalType":"address"},{"name":"newPoolMevTaxMultiplier","type":"uint256","internalType":"uint256"}],"outputs":[],"stateMutability":"nonpayable"},{"type":"function","name":"setPoolMevTaxThreshold","inputs":[{"name":"pool","type":"address","internalType":"address"},{"name":"newPoolMevTaxThreshold","type":"uint256","internalType":"uint256"}],"outputs":[],"stateMutability":"nonpayable"},{"type":"event","name":"DefaultMevTaxMultiplierSet","inputs":[{"name":"newDefaultMevTaxMultiplier","type":"uint256","indexed":false,"internalType":"uint256"}],"anonymous":false},{"type":"event","name":"DefaultMevTaxThresholdSet","inputs":[{"name":"newDefaultMevTaxThreshold","type":"uint256","indexed":false,"internalType":"uint256"}],"anonymous":false},{"type":"event","name":"MaxMevSwapFeePercentageSet","inputs":[{"name":"maxMevSwapFeePercentage","type":"uint256","indexed":false,"internalType":"uint256"}],"anonymous":false},{"type":"event","name":"MevTaxEnabledSet","inputs":[{"name":"enabled","type":"bool","indexed":false,"internalType":"bool"}],"anonymous":false},{"type":"event","name":"MevTaxExemptSenderAdded","inputs":[{"name":"sender","type":"address","indexed":false,"internalType":"address"}],"anonymous":false},{"type":"event","name":"MevTaxExemptSenderRemoved","inputs":[{"name":"sender","type":"address","indexed":false,"internalType":"address"}],"anonymous":false},{"type":"event","name":"PoolMevTaxMultiplierSet","inputs":[{"name":"pool","type":"address","indexed":false,"internalType":"address"},{"name":"newPoolMevTaxMultiplier","type":"uint256","indexed":false,"internalType":"uint256"}],"anonymous":false},{"type":"event","name":"PoolMevTaxThresholdSet","inputs":[{"name":"pool","type":"address","indexed":false,"internalType":"address"},{"name":"newPoolMevTaxThreshold","type":"uint256","indexed":false,"internalType":"uint256"}],"anonymous":false},{"type":"error","name":"InvalidBalancerContractRegistry","inputs":[]},{"type":"error","name":"MevCaptureHookNotRegisteredInPool","inputs":[{"name":"pool","type":"address","internalType":"address"}]},{"type":"error","name":"MevSwapFeePercentageAboveMax","inputs":[{"name":"feePercentage","type":"uint256","internalType":"uint256"},{"name":"maxFeePercentage","type":"uint256","internalType":"uint256"}]},{"type":"error","name":"MevTaxExemptSenderAlreadyAdded","inputs":[{"name":"sender","type":"address","internalType":"address"}]},{"type":"error","name":"SenderIsNotVault","inputs":[{"name":"sender","type":"address","internalType":"address"}]},{"type":"error","name":"SenderNotAllowed","inputs":[]},{"type":"error","name":"SenderNotRegisteredAsMevTaxExempt","inputs":[{"name":"sender","type":"address","internalType":"address"}]},{"type":"error","name":"VaultNotSet","inputs":[]}],"bytecode":{"object":"0x610100604052348015610010575f5ffd5b506040516123d83803806123d883398101604081905261002f91610268565b3060808190528490819081906001600160a01b03821661006257604051630647140b60e51b815260040160405180910390fd5b506001600160a01b0390811660a05291821660c05250831660e081905260405163013274bf60e51b81525f600482015263264e97e090602401602060405180830381865afa1580156100b6573d5f5f3e3d5ffd5b505050506040513d601f19601f820116820180604052508101906100da91906102ad565b156100f857604051635c84f39b60e01b815260040160405180910390fd5b610102600161012e565b61010b82610175565b610114816101aa565b610125670de0b5cad2bef0006101df565b505050506102d3565b5f805460ff19168215159081179091556040519081527f53525c548bd046e97a02f1d25bcc45701433dd7f01925c0618b36d1859681abe906020015b60405180910390a150565b60028190556040518181527f9bf787e2aefecf377c7a9d187bf4a25477b7bf79e1e5e12b2cdf5d6920725ce29060200161016a565b60018190556040518181527fab04e788572c89101fd68f2d1e18084f3116ce893d04f941b6b0a2728c3eef759060200161016a565b670de0b5cad2bef00081111561021c576040516220fb3f60e81b815260048101829052670de0b5cad2bef000602482015260440160405180910390fd5b60038190556040518181527fdebbe20e15c981690db2afeed0eaafd8c8b77ea80503b0dbda6ba059a0bb67e09060200161016a565b6001600160a01b0381168114610265575f5ffd5b50565b5f5f5f5f6080858703121561027b575f5ffd5b845161028681610251565b602086015190945061029781610251565b6040860151606090960151949790965092505050565b5f602082840312156102bd575f5ffd5b815180151581146102cc575f5ffd5b9392505050565b60805160a05160c05160e0516120936103455f395f81816103cc01526107ee01525f818161045d0152818161055601528181610a1601528181610b860152610dab01525f818161072101528181610ad701528181610c47015281816111a901526112ca01525f6106ad01526120935ff3fe608060405234801561000f575f5ffd5b5060043610610173575f3560e01c8063042cd514146101775780630b89f1821461018c578063166f1aad146101b457806318b6eb55146101d55780631c149e281461020157806325e52319146102145780632754888d1461021c57806338be241d146102475780633a7602621461025a57806345421ec71461026d5780635211fa771461028057806362c6d3d31461028e57806362f57cd814610296578063851c1bb31461029e5780638c55613e146102b15780638d928af8146102b95780638dd6e098146102ce578063976907cc146102d85780639b157919146102f55780639f64fd6314610308578063a0e8f5ac1461031b578063a4e5de3c1461032e578063aaabadc514610341578063b20541c614610349578063ba5f9f4014610374578063bcc6951b14610387578063c4407f1f1461038f578063d403a47d146103a2578063d77153a7146103b5578063deb27a7a146103ca578063e289e380146103f0575b5f5ffd5b61018a610185366004611411565b610403565b005b61019f61019a366004611520565b610417565b60405190151581526020015b60405180910390f35b6101c76101c236600461164e565b610458565b6040519081526020016101ab565b6101ea6101e3366004611669565b505f908190565b6040805192151583526020830191909152016101ab565b61019f61020f366004611770565b610540565b6002546101c7565b61023961022a3660046117e1565b5f839850989650505050505050565b6040516101ab9291906118d0565b61019f61025536600461191f565b610548565b6101c761026836600461164e565b610551565b61019f61027b366004611998565b610630565b61019f61020f366004611a6f565b6003546101c7565b61018a610696565b6101c76102ac366004611abd565b6106aa565b61018a61070e565b6102c161071f565b6040516101ab9190611ae4565b5f5460ff1661019f565b6102396102e6366004611af8565b5f849850989650505050505050565b61018a610303366004611ba4565b610748565b61018a610316366004611ba4565b61078b565b6101ea610329366004611c3d565b6107c9565b61018a61033c366004611411565b610965565b6102c1610976565b61019f61035736600461164e565b6001600160a01b03165f9081526004602052604090205460ff1690565b61019f610382366004611c92565b6109de565b6001546101c7565b61018a61039d366004611d17565b610a12565b61018a6103b0366004611d17565b610b82565b6103bd610cea565b6040516101ab9190611d41565b7f00000000000000000000000000000000000000000000000000000000000000006102c1565b61018a6103fe366004611411565b610d15565b61040b610d26565b61041481610d64565b50565b5f610420610da0565b506002546001600160a01b0384165f908152600660209081526040808320939093556001805460059092529290912055949350505050565b5f815f7f00000000000000000000000000000000000000000000000000000000000000006001600160a01b031663ce8630d4836040518263ffffffff1660e01b81526004016104a79190611ae4565b61016060405180830381865afa1580156104c3573d5f5f3e3d5ffd5b505050506040513d601f19601f820116820180604052508101906104e79190611e20565b6101408101519091506001600160a01b031630146105235781604051630ea0359b60e31b815260040161051a9190611ae4565b60405180910390fd5b5050506001600160a01b03165f9081526005602052604090205490565b5f5b92915050565b5f5b9392505050565b5f815f7f00000000000000000000000000000000000000000000000000000000000000006001600160a01b031663ce8630d4836040518263ffffffff1660e01b81526004016105a09190611ae4565b61016060405180830381865afa1580156105bc573d5f5f3e3d5ffd5b505050506040513d601f19601f820116820180604052508101906105e09190611e20565b6101408101519091506001600160a01b031630146106135781604051630ea0359b60e31b815260040161051a9190611ae4565b5050506001600160a01b03165f9081526006602052604090205490565b5f805460ff16151581036106465750600161068b565b5f61064f610deb565b90505f87600481111561066457610664611efd565b148061068757506001600160a01b0388165f908152600560205260409020548111155b9150505b979650505050505050565b61069e610d26565b6106a86001610df6565b565b5f7f0000000000000000000000000000000000000000000000000000000000000000826040516020016106f19291909182526001600160e01b031916602082015260240190565b604051602081830303815290604052805190602001209050919050565b610716610d26565b6106a85f610df6565b7f000000000000000000000000000000000000000000000000000000000000000090565b905090565b610750610d26565b80515f5b818110156107865761077e83828151811061077157610771611f11565b6020026020010151610e36565b600101610754565b505050565b610793610d26565b80515f5b81811015610786576107c18382815181106107b4576107b4611f11565b6020026020010151610ec3565b600101610797565b5f8054819060ff16151581036107e45750600190508161095d565b6001600160a01b037f00000000000000000000000000000000000000000000000000000000000000001663264e97e061082360c0880160a0890161164e565b6040518263ffffffff1660e01b815260040161083f9190611ae4565b602060405180830381865afa15801561085a573d5f5f3e3d5ffd5b505050506040513d601f19601f8201168201806040525081019061087e9190611f25565b15610925575f61089460c0870160a0880161164e565b6001600160a01b0316635e01eb5a6040518163ffffffff1660e01b8152600401602060405180830381865afa1580156108cf573d5f5f3e3d5ffd5b505050506040513d601f19601f820116820180604052508101906108f39190611f40565b6001600160a01b0381165f9081526004602052604090205490915060ff161561092357600184925092505061095d565b505b6001600160a01b0384165f9081526006602090815260408083205460059092529091205460019161095891869190610f50565b915091505b935093915050565b61096d610d26565b61041481610fe5565b5f61097f61071f565b6001600160a01b031663aaabadc56040518163ffffffff1660e01b8152600401602060405180830381865afa1580156109ba573d5f5f3e3d5ffd5b505050506040513d601f19601f820116820180604052508101906107439190611f40565b5f805460ff16151581036109f45750600161068b565b5f6109fd610deb565b90505f87600381111561066457610664611efd565b815f7f00000000000000000000000000000000000000000000000000000000000000006001600160a01b031663ce8630d4836040518263ffffffff1660e01b8152600401610a609190611ae4565b61016060405180830381865afa158015610a7c573d5f5f3e3d5ffd5b505050506040513d601f19601f82011682018060405250810190610aa09190611e20565b6101408101519091506001600160a01b03163014610ad35781604051630ea0359b60e31b815260040161051a9190611ae4565b835f7f00000000000000000000000000000000000000000000000000000000000000006001600160a01b031663e9ddeb26836040518263ffffffff1660e01b8152600401610b219190611ae4565b606060405180830381865afa158015610b3c573d5f5f3e3d5ffd5b505050506040513d601f19601f82011682018060405250810190610b609190611f5b565b602001519050610b70828261101a565b610b7a8686611094565b505050505050565b815f7f00000000000000000000000000000000000000000000000000000000000000006001600160a01b031663ce8630d4836040518263ffffffff1660e01b8152600401610bd09190611ae4565b61016060405180830381865afa158015610bec573d5f5f3e3d5ffd5b505050506040513d601f19601f82011682018060405250810190610c109190611e20565b6101408101519091506001600160a01b03163014610c435781604051630ea0359b60e31b815260040161051a9190611ae4565b835f7f00000000000000000000000000000000000000000000000000000000000000006001600160a01b031663e9ddeb26836040518263ffffffff1660e01b8152600401610c919190611ae4565b606060405180830381865afa158015610cac573d5f5f3e3d5ffd5b505050506040513d601f19601f82011682018060405250810190610cd09190611f5b565b602001519050610ce0828261101a565b610b7a86866110ec565b610cf26113be565b610cfa6113be565b60016060820181905260c08201819052610100820152919050565b610d1d610d26565b61041481611138565b5f610d3b5f356001600160e01b0319166106aa565b9050610d4781336111a6565b610414576040516323dada5360e01b815260040160405180910390fd5b60028190556040518181527f9bf787e2aefecf377c7a9d187bf4a25477b7bf79e1e5e12b2cdf5d6920725ce2906020015b60405180910390a150565b336001600160a01b037f000000000000000000000000000000000000000000000000000000000000000016146106a8573360405163089676d560e01b815260040161051a9190611ae4565b5f610743483a611fe0565b5f805460ff19168215159081179091556040519081527f53525c548bd046e97a02f1d25bcc45701433dd7f01925c0618b36d1859681abe90602001610d95565b6001600160a01b0381165f9081526004602052604081205460ff1615159003610e7457806040516301147f3f60e01b815260040161051a9190611ae4565b6001600160a01b0381165f9081526004602052604090819020805460ff19169055517fa6c039d6f5be3cc83645e895e73091c938efd27001eace48704833c45b6c994c90610d95908390611ae4565b6001600160a01b0381165f9081526004602052604090205460ff1615610efe578060405163041be96960e21b815260040161051a9190611ae4565b6001600160a01b0381165f9081526004602052604090819020805460ff19166001179055517fbdf65067094f886eb7cdc0306e2305d7978636a08c7c473b76883f6144fb212990610d95908390611ae4565b5f5f610f5a610deb565b6003549091508382111580610f6f5750858111155b15610f7e57859250505061054a565b5f80610f93610f8d8786611fe0565b88611295565b90925090508115155f03610fad578294505050505061054a565b610fbf670de0b6b3a764000082611ff3565b90505f610fcc828a612012565b9050610fd881856112b8565b9998505050505050505050565b60018190556040518181527fab04e788572c89101fd68f2d1e18084f3116ce893d04f941b6b0a2728c3eef7590602001610d95565b6001600160a01b03811661106b5761104661103f5f356001600160e01b0319166106aa565b33846112c7565b15155f03611067576040516323dada5360e01b815260040160405180910390fd5b5050565b336001600160a01b03821614611067576040516323dada5360e01b815260040160405180910390fd5b6001600160a01b0382165f9081526005602052604090819020829055517f907112dd6d17a8468828c40efc60143bdd909e18011cac76b8e296222b3d594f906110e09084908490612025565b60405180910390a15050565b6001600160a01b0382165f9081526006602052604090819020829055517ff7f1a750162ea954c7d18a19baa6b79aa1428f8dc433bb39d22da648efb60136906110e09084908490612025565b670de0b5cad2bef000811115611171576040516220fb3f60e81b815260048101829052670de0b5cad2bef000602482015260440161051a565b60038190556040518181527fdebbe20e15c981690db2afeed0eaafd8c8b77ea80503b0dbda6ba059a0bb67e090602001610d95565b5f7f00000000000000000000000000000000000000000000000000000000000000006001600160a01b031663aaabadc56040518163ffffffff1660e01b8152600401602060405180830381865afa158015611203573d5f5f3e3d5ffd5b505050506040513d601f19601f820116820180604052508101906112279190611f40565b6001600160a01b0316639be2a8848484306040518463ffffffff1660e01b81526004016112569392919061203e565b602060405180830381865afa158015611271573d5f5f3e3d5ffd5b505050506040513d601f19601f8201168201806040525081019061054a9190611f25565b8181028281048214831517905f906112ac83151590565b81029150509250929050565b5f81831182841802831861054a565b5f7f00000000000000000000000000000000000000000000000000000000000000006001600160a01b031663aaabadc56040518163ffffffff1660e01b8152600401602060405180830381865afa158015611324573d5f5f3e3d5ffd5b505050506040513d601f19601f820116820180604052508101906113489190611f40565b6001600160a01b0316639be2a8848585856040518463ffffffff1660e01b81526004016113779392919061203e565b602060405180830381865afa158015611392573d5f5f3e3d5ffd5b505050506040513d601f19601f820116820180604052508101906113b69190611f25565b949350505050565b60408051610140810182525f80825260208201819052918101829052606081018290526080810182905260a0810182905260c0810182905260e08101829052610100810182905261012081019190915290565b5f60208284031215611421575f5ffd5b5035919050565b6001600160a01b0381168114610414575f5ffd5b803561144781611428565b919050565b634e487b7160e01b5f52604160045260245ffd5b604051608081016001600160401b03811182821017156114825761148261144c565b60405290565b60405161016081016001600160401b03811182821017156114825761148261144c565b604051601f8201601f191681016001600160401b03811182821017156114d3576114d361144c565b604052919050565b5f6001600160401b038211156114f3576114f361144c565b5060051b60200190565b8015158114610414575f5ffd5b5f6080828403121561151a575f5ffd5b50919050565b5f5f5f5f60e08587031215611533575f5ffd5b843561153e81611428565b9350602085013561154e81611428565b925060408501356001600160401b03811115611568575f5ffd5b8501601f81018713611578575f5ffd5b803561158b611586826114db565b6114ab565b8082825260208201915060208360071b8501019250898311156115ac575f5ffd5b6020840193505b8284101561162f576080848b0312156115ca575f5ffd5b6115d2611460565b84356115dd81611428565b81526020850135600281106115f0575f5ffd5b6020820152604085013561160381611428565b60408201526060850135611616816114fd565b60608201528252608093909301926020909101906115b3565b80955050505050611643866060870161150a565b905092959194509250565b5f6020828403121561165e575f5ffd5b813561054a81611428565b5f60208284031215611679575f5ffd5b81356001600160401b0381111561168e575f5ffd5b8201610180818503121561054a575f5ffd5b5f82601f8301126116af575f5ffd5b81356116bd611586826114db565b8082825260208201915060208360051b8601019250858311156116de575f5ffd5b602085015b838110156116fb5780358352602092830192016116e3565b5095945050505050565b5f82601f830112611714575f5ffd5b81356001600160401b0381111561172d5761172d61144c565b611740601f8201601f19166020016114ab565b818152846020838601011115611754575f5ffd5b816020850160208301375f918101602001919091529392505050565b5f5f60408385031215611781575f5ffd5b82356001600160401b03811115611796575f5ffd5b6117a2858286016116a0565b92505060208301356001600160401b038111156117bd575f5ffd5b6117c985828601611705565b9150509250929050565b803560048110611447575f5ffd5b5f5f5f5f5f5f5f5f610100898b0312156117f9575f5ffd5b6118028961143c565b975061181060208a0161143c565b965061181e60408a016117d3565b95506060890135945060808901356001600160401b0381111561183f575f5ffd5b61184b8b828c016116a0565b94505060a08901356001600160401b03811115611866575f5ffd5b6118728b828c016116a0565b93505060c08901356001600160401b0381111561188d575f5ffd5b6118998b828c016116a0565b92505060e08901356001600160401b038111156118b4575f5ffd5b6118c08b828c01611705565b9150509295985092959890939650565b5f604082018415158352604060208401528084518083526060850191506020860192505f5b818110156119135783518352602093840193909201916001016118f5565b50909695505050505050565b5f5f5f60608486031215611931575f5ffd5b83356001600160401b03811115611946575f5ffd5b611952868287016116a0565b9350506020840135915060408401356001600160401b03811115611974575f5ffd5b61198086828701611705565b9150509250925092565b803560058110611447575f5ffd5b5f5f5f5f5f5f5f60e0888a0312156119ae575f5ffd5b87356119b981611428565b96506119c76020890161143c565b95506119d56040890161198a565b945060608801356001600160401b038111156119ef575f5ffd5b6119fb8a828b016116a0565b9450506080880135925060a08801356001600160401b03811115611a1d575f5ffd5b611a298a828b016116a0565b92505060c08801356001600160401b03811115611a44575f5ffd5b611a508a828b01611705565b91505092959891949750929550565b5f60e0828403121561151a575f5ffd5b5f5f60408385031215611a80575f5ffd5b82356001600160401b03811115611a95575f5ffd5b611aa185828601611a5f565b9250506020830135611ab281611428565b809150509250929050565b5f60208284031215611acd575f5ffd5b81356001600160e01b03198116811461054a575f5ffd5b6001600160a01b0391909116815260200190565b5f5f5f5f5f5f5f5f610100898b031215611b10575f5ffd5b611b198961143c565b9750611b2760208a0161143c565b9650611b3560408a0161198a565b955060608901356001600160401b03811115611b4f575f5ffd5b611b5b8b828c016116a0565b95505060808901356001600160401b03811115611b76575f5ffd5b611b828b828c016116a0565b94505060a0890135925060c08901356001600160401b0381111561188d575f5ffd5b5f60208284031215611bb4575f5ffd5b81356001600160401b03811115611bc9575f5ffd5b8201601f81018413611bd9575f5ffd5b8035611be7611586826114db565b8082825260208201915060208360051b850101925086831115611c08575f5ffd5b6020840193505b82841015611c33578335611c2281611428565b825260209384019390910190611c0f565b9695505050505050565b5f5f5f60608486031215611c4f575f5ffd5b83356001600160401b03811115611c64575f5ffd5b611c7086828701611a5f565b9350506020840135611c8181611428565b929592945050506040919091013590565b5f5f5f5f5f5f5f60e0888a031215611ca8575f5ffd5b8735611cb381611428565b9650611cc16020890161143c565b9550611ccf604089016117d3565b94506060880135935060808801356001600160401b03811115611cf0575f5ffd5b611cfc8a828b016116a0565b93505060a08801356001600160401b03811115611a1d575f5ffd5b5f5f60408385031215611d28575f5ffd5b8235611d3381611428565b946020939093013593505050565b81511515815261014081016020830151611d5f602084018215159052565b506040830151611d73604084018215159052565b506060830151611d87606084018215159052565b506080830151611d9b608084018215159052565b5060a0830151611daf60a084018215159052565b5060c0830151611dc360c084018215159052565b5060e0830151611dd760e084018215159052565b50610100830151611ded61010084018215159052565b50610120830151611e0361012084018215159052565b5092915050565b8051611447816114fd565b805161144781611428565b5f610160828403128015611e32575f5ffd5b50611e3b611488565b611e4483611e0a565b8152611e5260208401611e0a565b6020820152611e6360408401611e0a565b6040820152611e7460608401611e0a565b6060820152611e8560808401611e0a565b6080820152611e9660a08401611e0a565b60a0820152611ea760c08401611e0a565b60c0820152611eb860e08401611e0a565b60e0820152611eca6101008401611e0a565b610100820152611edd6101208401611e0a565b610120820152611ef06101408401611e15565b6101408201529392505050565b634e487b7160e01b5f52602160045260245ffd5b634e487b7160e01b5f52603260045260245ffd5b5f60208284031215611f35575f5ffd5b815161054a816114fd565b5f60208284031215611f50575f5ffd5b815161054a81611428565b5f6060828403128015611f6c575f5ffd5b50604051606081016001600160401b0381118282101715611f8f57611f8f61144c565b6040528251611f9d81611428565b81526020830151611fad81611428565b60208201526040830151611fc081611428565b60408201529392505050565b634e487b7160e01b5f52601160045260245ffd5b8181038181111561054257610542611fcc565b5f8261200d57634e487b7160e01b5f52601260045260245ffd5b500490565b8082018082111561054257610542611fcc565b6001600160a01b03929092168252602082015260400190565b9283526001600160a01b0391821660208401521660408201526060019056fea26469706673582212200668bbd7d982c048abc0c950ca02a8025adf4eefacb3d720837819b432dc5cca64736f6c634300081e0033","linkReferences":{}},"methodIdentifiers":{"addMevTaxExemptSenders(address[])":"9f64fd63","disableMevTax()":"8c55613e","enableMevTax()":"62f57cd8","getActionId(bytes4)":"851c1bb3","getAuthorizer()":"aaabadc5","getBalancerContractRegistry()":"deb27a7a","getDefaultMevTaxMultiplier()":"25e52319","getDefaultMevTaxThreshold()":"bcc6951b","getHookFlags()":"d77153a7","getMaxMevSwapFeePercentage()":"62c6d3d3","getPoolMevTaxMultiplier(address)":"3a760262","getPoolMevTaxThreshold(address)":"166f1aad","getVault()":"8d928af8","isMevTaxEnabled()":"8dd6e098","isMevTaxExemptSender(address)":"b20541c6","onAfterAddLiquidity(address,address,uint8,uint256[],uint256[],uint256,uint256[],bytes)":"976907cc","onAfterInitialize(uint256[],uint256,bytes)":"38be241d","onAfterRemoveLiquidity(address,address,uint8,uint256,uint256[],uint256[],uint256[],bytes)":"2754888d","onAfterSwap((uint8,address,address,uint256,uint256,uint256,uint256,uint256,uint256,address,address,bytes))":"18b6eb55","onBeforeAddLiquidity(address,address,uint8,uint256[],uint256,uint256[],bytes)":"45421ec7","onBeforeInitialize(uint256[],bytes)":"1c149e28","onBeforeRemoveLiquidity(address,address,uint8,uint256,uint256[],uint256[],bytes)":"ba5f9f40","onBeforeSwap((uint8,uint256,uint256[],uint256,uint256,address,bytes),address)":"5211fa77","onComputeDynamicSwapFeePercentage((uint8,uint256,uint256[],uint256,uint256,address,bytes),address,uint256)":"a0e8f5ac","onRegister(address,address,(address,uint8,address,bool)[],(bool,bool,bool,bool))":"0b89f182","removeMevTaxExemptSenders(address[])":"9b157919","setDefaultMevTaxMultiplier(uint256)":"042cd514","setDefaultMevTaxThreshold(uint256)":"a4e5de3c","setMaxMevSwapFeePercentage(uint256)":"e289e380","setPoolMevTaxMultiplier(address,uint256)":"d403a47d","setPoolMevTaxThreshold(address,uint256)":"c4407f1f"},"id":136}