{"abi":[{"type":"function","name":"run_hasValid","inputs":[{"name":"subject","type":"address","internalType":"address"}],"outputs":[{"name":"","type":"bool","internalType":"bool"}],"stateMutability":"nonpayable"},{"type":"error","name":"IndexOutOfBounds","inputs":[{"name":"length","type":"uint256","internalType":"uint256"},{"name":"invalidIndex","type":"uint256","internalType":"uint256"},{"name":"errorCode","type":"uint256","internalType":"uint256"}]}],"bytecode":{"object":"0x6080604052348015600e575f5ffd5b50612bf18061001c5f395ff3fe608060405234801561000f575f5ffd5b5060043610610029575f3560e01c80631262831b1461002d575b5f5ffd5b61004061003b366004611ffd565b610054565b604051901515815260200160405180910390f35b5f61005e82610064565b92915050565b5f73__$6733481873bfefcce6891d74f60ba0cf99$__637965c501610087610863565b6040518263ffffffff1660e01b81526004016100a3919061206f565b5f6040518083038186803b1580156100b9575f5ffd5b505af41580156100cb573d5f5f3e3d5ffd5b50505050600190505f826001600160a01b0316637a0ed6276040518163ffffffff1660e01b81526004015f60405180830381865afa15801561010f573d5f5f3e3d5ffd5b505050506040513d5f823e601f3d908101601f19168201604052610136919081019061219f565b90505f6102108461014686610893565b846101e5610152610863565b6040805180820182526008815267666163657473282960c01b6020820152905163028a249b60e41b81525f516020612b4c5f395f51905f52906328a249b09061019f908e906004016122a0565b5f60405180830381865afa1580156101b9573d5f5f3e3d5ffd5b505050506040513d5f823e601f3d908101601f191682016040526101e091908101906122b4565b610a29565b60408051808201909152600681526566616365747360d01b602082015261020b8a610a5f565b610af9565b905080610285575f925073__$6733481873bfefcce6891d74f60ba0cf99$__63967677df61023c610863565b6040518263ffffffff1660e01b81526004016102589190612346565b5f6040518083038186803b15801561026e575f5ffd5b505af4158015610280573d5f5f3e3d5ffd5b505050505b5f846001600160a01b03166352ef6b2c6040518163ffffffff1660e01b81526004015f60405180830381865afa1580156102c1573d5f5f3e3d5ffd5b505050506040513d5f823e601f3d908101601f191682016040526102e891908101906123e1565b90505f61036686610309610303826314bbdacb60e21b610b4a565b60010190565b80548060200260200160405190810160405280929190818152602001828054801561035b57602002820191905f5260205f20905b81546001600160a01b0316815260019091019060200180831161033d575b505050505084610b96565b905080610371575f94505b5f5b8251811015610783575f6103aa61030385848151811061039557610395612470565b602002602001015163adfca15e60e01b610c1c565b80548060200260200160405190810160405280929190818152602001828054801561041e57602002820191905f5260205f20905f905b82829054906101000a900460e01b6001600160e01b031916815260200190600401906020826003010492830192600103820291508084116103e05790505b5050505050905061057d81896001600160a01b031663adfca15e87868151811061044a5761044a612470565b60200260200101516040518263ffffffff1660e01b815260040161046e91906122a0565b5f60405180830381865afa158015610488573d5f5f3e3d5ffd5b505050506040513d5f823e601f3d908101601f191682016040526104af9190810190612484565b6104f46104ba610863565b60408051808201909152601f81527f666163657446756e6374696f6e53656c6563746f72732861646472657373290060208201528d610c37565b6105785f516020612b9c5f395f51905f525f1c6001600160a01b03166328a249b08e6040518263ffffffff1660e01b815260040161053291906122a0565b5f60405180830381865afa15801561054c573d5f5f3e3d5ffd5b505050506040513d5f823e601f3d908101601f1916820160405261057391908101906122b4565b610c72565b610c85565b945084610688575f965073__$6733481873bfefcce6891d74f60ba0cf99$__63967677df6105a9610863565b5f516020612b9c5f395f51905f525f1c6001600160a01b03166328a249b08887815181106105d9576105d9612470565b60200260200101516040518263ffffffff1660e01b81526004016105fd91906122a0565b5f60405180830381865afa158015610617573d5f5f3e3d5ffd5b505050506040513d5f823e601f3d908101601f1916820160405261063e91908101906122b4565b6040518363ffffffff1660e01b815260040161065b9291906124b5565b5f6040518083038186803b158015610671575f5ffd5b505af4158015610683573d5f5f3e3d5ffd5b505050505b5f5b8151811015610779575f6107658a8484815181106106aa576106aa612470565b60200260200101518c6001600160a01b031663cdffacc68787815181106106d3576106d3612470565b60200260200101516040518263ffffffff1660e01b815260040161070791906001600160e01b031991909116815260200190565b602060405180830381865afa158015610722573d5f5f3e3d5ffd5b505050506040513d601f19601f820116820180604052508101906107469190612521565b89888151811061075857610758612470565b6020026020010151610d8f565b905080610770575f98505b5060010161068a565b5050600101610373565b5073__$6733481873bfefcce6891d74f60ba0cf99$__6355444d406107a6610863565b876040518363ffffffff1660e01b81526004016107c492919061253c565b5f6040518083038186803b1580156107da575f5ffd5b505af41580156107ec573d5f5f3e3d5ffd5b5050505073__$6733481873bfefcce6891d74f60ba0cf99$__63738d4cc9610812610863565b6040518263ffffffff1660e01b815260040161082e919061206f565b5f6040518083038186803b158015610844575f5ffd5b505af4158015610856573d5f5f3e3d5ffd5b5050505050505050919050565b6040805180820190915260168152754265686176696f725f494469616d6f6e644c6f75706560501b602082015290565b60605f6108b16108aa84637a0ed62760e01b610b4a565b6001015490565b9050806001600160401b038111156108cb576108cb612092565b60405190808252806020026020018201604052801561091057816020015b604080518082019091525f8152606060208201528152602001906001900390816108e95790505b5091505f5b81811015610a225760405180604001604052806109438361093d88637a0ed62760e01b610b4a565b90610e17565b6001600160a01b0316815260200161098161030386858151811061096957610969612470565b60200260200101515f0151637a0ed62760e01b610c1c565b8054806020026020016040519081016040528092919081815260200182805480156109f557602002820191905f5260205f20905f905b82829054906101000a900460e01b6001600160e01b031916815260200190600401906020826003010492830192600103820291508084116109b75790505b5050505050815250838281518110610a0f57610a0f612470565b6020908102919091010152600101610915565b5050919050565b6060610a358484610e59565b82604051602001610a479291906125b1565b60405160208183030381529060405290509392505050565b60405163028a249b60e41b81526060905f516020612b4c5f395f51905f52906328a249b090610a929085906004016122a0565b5f60405180830381865afa158015610aac573d5f5f3e3d5ffd5b505050506040513d5f823e601f3d908101601f19168201604052610ad391908101906122b4565b604051602001610ae391906125c5565b6040516020818303038152906040529050919050565b5f8451865114610b1157610b11865186518686610e85565b6060610b208888888887610f22565b90925090505f610b3289838888611270565b90508215610b3e578092505b50509695505050505050565b5f610b65610b60846001600160a01b03166112e7565b6112f3565b6001600160a01b0384165f908152602091825260408082206001600160e01b03198616835290925220905092915050565b60405163028a249b60e41b81525f90610c14905f516020612b4c5f395f51905f52906328a249b090610bcc9088906004016122a0565b5f60405180830381865afa158015610be6573d5f5f3e3d5ffd5b505050506040513d5f823e601f3d908101601f19168201604052610c0d91908101906122b4565b8484611353565b949350505050565b5f610b65610c32846001600160a01b03166112e7565b6113bc565b60405163028a249b60e41b8152606090610c1490859085905f516020612b4c5f395f51905f52906328a249b09061019f9088906004016122a0565b606081604051602001610ae391906125f4565b604051635777d9bd60e01b81525f9073__$6733481873bfefcce6891d74f60ba0cf99$__90635777d9bd90610cbe908890600401612666565b5f6040518083038186803b158015610cd4575f5ffd5b505af4158015610ce6573d5f5f3e3d5ffd5b5050604051635777d9bd60e01b815273__$6733481873bfefcce6891d74f60ba0cf99$__9250635777d9bd9150610d2190879060040161269f565b5f6040518083038186803b158015610d37575f5ffd5b505af4158015610d49573d5f5f3e3d5ffd5b505050505f610d856040518060600160405280888152602001878152602001604051806040016040528088815260200187815250815250611400565b9695505050505050565b60405163028a249b60e41b81525f90610e0e905f516020612b4c5f395f51905f52906328a249b090610dc59089906004016122a0565b5f60405180830381865afa158015610ddf573d5f5f3e3d5ffd5b505050506040513d5f823e601f3d908101601f19168201604052610e0691908101906122b4565b858585611433565b95945050505050565b60018201545f90610e289083611618565b50826001018281548110610e3e57610e3e612470565b5f918252602090912001546001600160a01b03169392505050565b60608282604051602001610e6e9291906126d6565b604051602081830303815290604052905092915050565b610f1c82610e9b610e968688611657565b611673565b868611610ece576040518060400160405280600e81526020016d0102727aa102222a1a620a922a2160951b815250610ef4565b6040518060400160405280600c81526020016b0102aa722ac2822a1aa22a2160a51b8152505b84604051602001610f089493929190612709565b60405160208183030381529060405261176f565b50505050565b82516001906060906001600160401b03811115610f4157610f41612092565b604051908082528060200260200182016040528015610f6a578160200160208202803683370190505b5090508451865114610fe757610f84865186518686610e85565b5f9150815b8551811015610fe157858181518110610fa457610fa4612470565b60200260200101515f0151828281518110610fc157610fc1612470565b6001600160a01b0390921660209283029190910190910152600101610f89565b50611266565b5f5b85518110156112645785818151811061100457611004612470565b60200260200101515f015182828151811061102157611021612470565b60200260200101906001600160a01b031690816001600160a01b03168152505061106f88637a0ed62760e01b89848151811061105f5761105f612470565b60200260200101515f015161177b565b85818151811061108157611081612470565b602002602001015160200151518782815181106110a0576110a0612470565b6020026020010151602001515114611102576110fa8782815181106110c7576110c7612470565b602002602001015160200151518783815181106110e6576110e6612470565b602002602001015160200151518787610e85565b5f925061125c565b5f6111638988848151811061111957611119612470565b60200260200101515f015160405160200161114a9291906001600160a01b0392831681529116602082015260400190565b6040516020818303038152906040528051906020012090565b905061119481637a0ed62760e01b8a858151811061118357611183612470565b6020026020010151602001516117c3565b5f61124a6111ac61030384637a0ed62760e01b610c1c565b80548060200260200160405190810160405280929190818152602001828054801561122057602002820191905f5260205f20905f905b82829054906101000a900460e01b6001600160e01b031916815260200190600401906020826003010492830192600103820291508084116111e25790505b505050505089858151811061123757611237612470565b6020026020010151602001518989610c85565b90508015155f03611259575f94505b50505b600101610fe9565b505b9550959350505050565b5f610e0e61128861030387637a0ed62760e01b610b4a565b8054806020026020016040519081016040528092919081815260200182805480156112da57602002820191905f5260205f20905b81546001600160a01b031681526001909101906020018083116112bc575b5050505050858585611810565b6001600160a01b031690565b5f61005e6040518060400160405260188152806020017741646472657373536574436f6d70617261746f725265706f60401b8152506040516020016113389190612764565b60405160208183030381529060405280519060200120831890565b5f610c148383611391611364610863565b60408051808201909152601081526f6661636574416464726573736573282960801b602082015289610a29565b60408051808201909152600f81526e66616365742061646472657373657360881b6020820152611810565b5f61005e60405180604001604052601781528060200176427974657334536574436f6d70617261746f725265706f60481b8152506040516020016113389190612764565b5f5f611413835f01518460200151611848565b905061142c836040015182611a4d90919063ffffffff16565b9392505050565b6001600160a01b038281169082161480610c1457611496611486611455610863565b604080518082019091526014815273666163657441646472657373286279746573342960601b602082015288610a29565b604051602001610f089190612776565b73__$6733481873bfefcce6891d74f60ba0cf99$__63ddd6cd86866114c46001600160e01b03198816611ab3565b6040516020016114d491906127c8565b60408051601f198184030181529082905263028a249b60e41b8252905f516020612b4c5f395f51905f52906328a249b090611513908a906004016122a0565b5f60405180830381865afa15801561152d573d5f5f3e3d5ffd5b505050506040513d5f823e601f3d908101601f1916820160405261155491908101906122b4565b60405163028a249b60e41b81525f516020612b4c5f395f51905f52906328a249b090611584908a906004016122a0565b5f60405180830381865afa15801561159e573d5f5f3e3d5ffd5b505050506040513d5f823e601f3d908101601f191682016040526115c591908101906122b4565b6040518563ffffffff1660e01b81526004016115e494939291906127e2565b5f6040518083038186803b1580156115fa575f5ffd5b505af415801561160c573d5f5f3e3d5ffd5b50505050949350505050565b5f81831161164e57604051635400feb960e01b815260048101849052602481018390526032604482015260640160405180910390fd5b50600192915050565b5f5f5f6116648585611ae9565b9092509050610e0e828261284d565b6060815f036116995750506040805180820190915260018152600360fc1b602082015290565b815f5b81156116c257806116ac81612860565b91506116bb9050600a8361288c565b915061169c565b5f816001600160401b038111156116db576116db612092565b6040519080825280601f01601f191660200182016040528015611705576020820181803683370190505b5090505b8415610c145761171a60018361284d565b9150611727600a8661289f565b6117329060306128b2565b60f81b81838151811061174757611747612470565b60200101906001600160f81b03191690815f1a905350611768600a8661288c565b9450611709565b61177881611b1a565b50565b610f1c81611794610b60866001600160a01b03166112e7565b6001600160a01b0386165f908152602091825260408082206001600160e01b0319881683529092522090611b5d565b61180b816117dc610c32866001600160a01b03166112e7565b6001600160a01b0386165f908152602091825260408082206001600160e01b0319881683529092522090611bb4565b505050565b5f610e0e6040518060600160405280878152602001868152602001604051806040016040528087815260200186815250815250611bea565b611850611fb7565b5f61187f8360405160200161186591906128c5565b604051602081830303815290604052805160209091012090565b83516020840152905061189b8461189583611c0d565b90611bb4565b6118a76108aa82611c0d565b84511461194c57604051635777d9bd60e01b815273__$6733481873bfefcce6891d74f60ba0cf99$__90635777d9bd906118e5908790600401612911565b5f6040518083038186803b1580156118fb575f5ffd5b505af415801561190d573d5f5f3e3d5ffd5b5050855191505f90506119226108aa84611c0d565b90508082101561193457818103611938565b8082035b60808501525050825160a08301525061005e565b6119598361189583611c20565b6119656108aa82611c20565b60408301526119766108aa82611c0d565b60608301525f5b6119896108aa83611c0d565b8110156119d5576119b56119a6826119a085611c0d565b90611c33565b6119af84611c20565b90611c83565b6119cd57608083018051906119c982612860565b9052505b60010161197d565b505f5b6119e46108aa83611c20565b811015611a2457611a046119fb826119a085611c20565b6119af84611c0d565b611a1c5760a08301805190611a1882612860565b9052505b6001016119d8565b50611a46604051806060016040528060308152602001612b6c6030913961176f565b5092915050565b604082015160208301516001911015611a6c57505f611a6c8383611ca1565b8260600151836040015114611a8757505f611a878383611cd8565b608083015115611a9d57505f611a9d8383611cf3565b60a08301511561005e57505f61005e8383611d1c565b6040516001600160e01b03198216602082015260609060240160408051601f1981840301815290829052610ae3916020016129a1565b5f5f828403611af6575f5ffd5b611b008484611d45565b9150838214611b0f5783611b11565b825b90509250929050565b61177881604051602401611b2e9190612764565b60408051601f198184030181529190526020810180516001600160e01b031663104c13eb60e21b179052611d50565b5f611b688383611d59565b61164e57506001828101805480830182555f828152602080822090920180546001600160a01b0319166001600160a01b0396909616958617905591549382529390935260409092205590565b5f5b815181101561180b57611be283838381518110611bd557611bd5612470565b6020026020010151611d76565b600101611bb6565b5f5f611bfd835f01518460200151611de1565b905061142c818460400151611a4d565b5f611c17826113bc565b60010192915050565b5f611c2a826113bc565b60030192915050565b60018201545f90611c449083611618565b50826001018281548110611c5a57611c5a612470565b905f5260205f2090600891828204019190066004029054906101000a900460e01b905092915050565b6001600160e01b0319165f9081526020919091526040902054151590565b611cd4815f0151611cbf84604001518560200151610e96919061284d565b602080850151604051610f08949392016129b7565b5050565b611cd482606001518360400151835f01518460200151610e85565b611cd4815f0151611d078460800151611673565b602080850151604051610f0894939201612a13565b611cd4815f0151611d308460a00151611673565b602080850151604051610f0894939201612a62565b5f61142c8383611f2a565b61177881611f39565b6001600160a01b03165f9081526020919091526040902054151590565b611d808282611c83565b611cd4576001828101805491820181555f81815260208082206008850401805463ffffffff60079096166004026101000a958602191660e087901c959095029490941790935590546001600160e01b03199093168152929052604090912055565b611de9611fb7565b5f611dfe836040516020016118659190612aaf565b835160208401529050611e1a84611e1483611f58565b90611f62565b50611e276108aa82611f58565b845114611e4f576100296040518060800160405280605c8152602001612af0605c913961176f565b611e5c83611e1483611fad565b50611e696108aa82611fad565b6040830152611e7a6108aa82611f58565b60608301525f5b611e8d6108aa83611f58565b811015611ed357611eb3611ea48261093d85611f58565b611ead84611fad565b90611d59565b611ecb5760808301805190611ec782612860565b9052505b600101611e81565b505f5b611ee26108aa83611fad565b811015611f2257611f02611ef98261093d85611fad565b611ead84611f58565b611f1a5760a08301805190611f1682612860565b9052505b600101611ed6565b505092915050565b5f81831182841802831861142c565b5f6a636f6e736f6c652e6c6f6790505f5f835160208501845afa505050565b5f611c17826112f3565b5f805b8251811015611fa357611f9a838281518110611f8357611f83612470565b602002602001015185611b5d90919063ffffffff16565b50600101611f65565b5060019392505050565b5f611c2a826112f3565b6040518060c001604052805f151581526020015f81526020015f81526020015f81526020015f81526020015f81525090565b6001600160a01b0381168114611778575f5ffd5b5f6020828403121561200d575f5ffd5b813561142c81611fe9565b5f81518084528060208401602086015e5f602082860101526020601f19601f83011685010191505092915050565b601681527568617356616c69645f494469616d6f6e644c6f75706560501b602082015260400190565b604081525f6120816040830184612018565b8281036020840152610c1481612046565b634e487b7160e01b5f52604160045260245ffd5b604080519081016001600160401b03811182821017156120c8576120c8612092565b60405290565b604051601f8201601f191681016001600160401b03811182821017156120f6576120f6612092565b604052919050565b5f6001600160401b0382111561211657612116612092565b5060051b60200190565b5f82601f83011261212f575f5ffd5b815161214261213d826120fe565b6120ce565b8082825260208201915060208360051b860101925085831115612163575f5ffd5b602085015b838110156121955780516001600160e01b031981168114612187575f5ffd5b835260209283019201612168565b5095945050505050565b5f602082840312156121af575f5ffd5b81516001600160401b038111156121c4575f5ffd5b8201601f810184136121d4575f5ffd5b80516121e261213d826120fe565b8082825260208201915060208360051b850101925086831115612203575f5ffd5b602084015b838110156122955780516001600160401b03811115612225575f5ffd5b85016040818a03601f1901121561223a575f5ffd5b6122426120a6565b602082015161225081611fe9565b815260408201516001600160401b0381111561226a575f5ffd5b6122798b602083860101612120565b6020830152508085525050602083019250602081019050612208565b509695505050505050565b6001600160a01b0391909116815260200190565b5f602082840312156122c4575f5ffd5b81516001600160401b038111156122d9575f5ffd5b8201601f810184136122e9575f5ffd5b80516001600160401b0381111561230257612302612092565b612315601f8201601f19166020016120ce565b818152856020838501011115612329575f5ffd5b8160208401602083015e5f91810160200191909152949350505050565b608081525f6123586080830184612018565b828103602084015261236981612046565b9050828103806040850152601c82527b08cc2c6cae840c6dedcccd2ceeae4c2e8d2dedc40dad2e6dac2e8c6d60231b602083015260408101606085015250602060408201527f45787065637465642076732061637475616c206661636574732064696666657260608201526080810191505092915050565b5f602082840312156123f1575f5ffd5b81516001600160401b03811115612406575f5ffd5b8201601f81018413612416575f5ffd5b805161242461213d826120fe565b8082825260208201915060208360051b850101925086831115612445575f5ffd5b6020840193505b82841015610d8557835161245f81611fe9565b82526020938401939091019061244c565b634e487b7160e01b5f52603260045260245ffd5b5f60208284031215612494575f5ffd5b81516001600160401b038111156124a9575f5ffd5b610c1484828501612120565b608081525f6124c76080830185612018565b82810360208401526124d881612046565b9050828103806040850152601a82527908ceadcc6e8d2dedc40e6cad8cac6e8dee440dad2e6dac2e8c6d60331b602083015260408101606085015250610e0e6040820185612018565b5f60208284031215612531575f5ffd5b815161142c81611fe9565b608081525f61254e6080830185612018565b828103602084015261255f81612046565b90508281036040840152600e81526d66756c6c20696e7465726661636560901b60208201526040810191505082151560608301529392505050565b5f81518060208401855e5f93019283525090919050565b5f610c146125bf838661259a565b8461259a565b7a03330b1b2ba3990333ab731ba34b7b739903337b9103330b1b2ba1602d1b81525f61142c601b83018461259a565b7903330b1b2ba10333ab731ba34b7b739903337b9103330b1b2ba160351b81525f61142c601a83018461259a565b5f8151808452602084019350602083015f5b8281101561265c5781516001600160e01b031916865260209586019590910190600101612634565b5093949350505050565b60408152601060408201526f22bc3832b1ba32b2103b30b63ab2b99d60811b6060820152608060208201525f61142c6080830184612622565b60408152600e60408201526d20b1ba3ab0b6103b30b63ab2b99d60911b6060820152608060208201525f61142c6080830184612622565b5f6126e1828561259a565b601d60f91b81526126f5600182018561259a565b611d1d60f11b815260020195945050505050565b5f612714828761259a565b750103232b1b630b930ba34b7b71036b4b9b6b0ba31b4160551b815261274f612749612743601684018961259a565b8761259a565b8561259a565b601760f91b8152600101979650505050505050565b602081525f61142c6020830184612018565b5f612781828461259a565b7f206465636c617265732074686520696e636f727265637420666163657420666f815270039103a3430ba10333ab731ba34b7b7171607d1b60208201526031019392505050565b650333ab7319d160d51b81525f61142c600683018461259a565b608081525f6127f46080830187612018565b82810360208401526128068187612018565b9050828103604084015261281a8186612018565b9050828103606084015261282e8185612018565b979650505050505050565b634e487b7160e01b5f52601160045260245ffd5b8181038181111561005e5761005e612839565b5f6001820161287157612871612839565b5060010190565b634e487b7160e01b5f52601260045260245ffd5b5f8261289a5761289a612878565b500490565b5f826128ad576128ad612878565b500690565b8082018082111561005e5761005e612839565b602080825282518282018190525f918401906040840190835b818110156129065783516001600160e01b0319168352602093840193909201916001016128de565b509095945050505050565b60408152605b60408201527f427974657334536574206578706563746174696f6e73204d555354204e4f542060608201527f636f6e7461696e206475706c6963617465732e2050726f76696465206578706560808201527a31ba30ba34b7b7399030b9902324a929aa1030b933bab6b2b73a1760291b60a082015260c060208201525f61142c60c0830184612622565b61060f60f31b81525f61142c600283018461259a565b5f6129c2828661259a565b690103232b1b630b932b9960b51b81526129df600a82018661259a565b90506a010323ab83634b1b0ba32960ad1b81526129ff600b82018561259a565b601760f91b81526001019695505050505050565b5f612a1e828661259a565b710103237b2b9902727aa103232b1b630b932960751b8152612a43601282018661259a565b90506901032bc3832b1ba32b2160b51b81526129ff600a82018561259a565b5f612a6d828661259a565b6d0102227a2a9903232b1b630b932960951b8152612a8e600e82018661259a565b90506b0102aa722ac2822a1aa22a2160a51b81526129ff600c82018561259a565b602080825282518282018190525f918401906040840190835b818110156129065783516001600160a01b0316835260209384019390920191600101612ac856fe41646472657373536574206578706563746174696f6e73204d555354204e4f5420636f6e7461696e206475706c6963617465732e2050726f76696465206578706563746174696f6e7320617320464952535420617267756d656e742e0000000000000000000000007109709ecfa91a80626ff3989d68f67f5b1dd12d427974657334536574436f6d70617261746f723a5f636f6d706172653a3a2045786974696e672066756e6374696f6e2e885cb69240a935d632d79c317109709ecfa91a80626ff3989d68f67f5b1dd12da264697066735822122066dbf02cd254bb1076b22fbb8e364a1eb83eb42bcb630662631d28273cb701ad64736f6c634300081e0033","linkReferences":{"contracts/utils/vm/foundry/tools/betterconsole.sol":{"betterconsole":[{"start":131,"length":20},{"start":568,"length":20},{"start":1445,"length":20},{"start":1954,"length":20},{"start":2062,"length":20},{"start":3250,"length":20},{"start":3347,"length":20},{"start":5300,"length":20},{"start":6361,"length":20}]}}},"methodIdentifiers":{"run_hasValid(address)":"1262831b"},"id":945}