{"abi":[{"type":"constructor","inputs":[{"name":"a","type":"address","internalType":"address"},{"name":"b","type":"address","internalType":"address"}],"stateMutability":"nonpayable"},{"type":"function","name":"facetAddress","inputs":[{"name":"selector","type":"bytes4","internalType":"bytes4"}],"outputs":[{"name":"","type":"address","internalType":"address"}],"stateMutability":"view"},{"type":"function","name":"facetAddresses","inputs":[],"outputs":[{"name":"","type":"address[]","internalType":"address[]"}],"stateMutability":"view"},{"type":"function","name":"facetFunctionSelectors","inputs":[{"name":"facet","type":"address","internalType":"address"}],"outputs":[{"name":"","type":"bytes4[]","internalType":"bytes4[]"}],"stateMutability":"view"},{"type":"function","name":"facets","inputs":[],"outputs":[{"name":"out","type":"tuple[]","internalType":"struct IDiamondLoupe.Facet[]","components":[{"name":"facetAddress","type":"address","internalType":"address"},{"name":"functionSelectors","type":"bytes4[]","internalType":"bytes4[]"}]}],"stateMutability":"view"},{"type":"error","name":"FacetAlreadyPresent","inputs":[{"name":"facet","type":"address","internalType":"address"}]},{"type":"error","name":"FacetNotPresent","inputs":[{"name":"facet","type":"address","internalType":"address"}]},{"type":"error","name":"FunctionAlreadyPresent","inputs":[{"name":"functionSelector","type":"bytes4","internalType":"bytes4"}]},{"type":"error","name":"FunctionNotPresent","inputs":[{"name":"functionSelector","type":"bytes4","internalType":"bytes4"}]},{"type":"error","name":"SelectorFacetMismatch","inputs":[{"name":"functionSelector","type":"bytes4","internalType":"bytes4"},{"name":"expectedFacet","type":"address","internalType":"address"},{"name":"actualFacet","type":"address","internalType":"address"}]}],"bytecode":{"object":"0x608060405234801561000f575f5ffd5b5060405161086f38038061086f83398101604081905261002e9161023a565b5f8054600181810183557f290decd9548b62a8d60345a988386fc84ba6bc95484008f6362f93160ef3e56391820180546001600160a01b039687166001600160a01b03199182168117909255845480840186559093018054969095169583168617909455838352602081815260408085208054808501825581875283872060088083048201805460046007958616810261010090810a63119552a1810263ffffffff91820219909416939093179093558654808b018855848104860180549188168302850a63969e9d0c8102908502199092169190911790558d8c52968b208054808b018255908c52888c208482040180549187168902840a63ee4950028102908402199092169190911790557f45f8a05f597588d7b209b1358c38d6191b7ebeb5c2fe67e7b1dd91e1df4816b980548b168d1790557fd4fdf46c2ad63b1c1d906c029ff8afc3d02af278983afabbc9507fa8ab3c58c980548b168d1790557fb6738d596ba1f88b06231454a9857e0c8e333876358e099005486d5d1e89b73d80548b16909d17909c558454978801909455860401805495909116909202900a63cafebabe810297021990921695909517905563657f5d5f60e11b90915260029092527f771ec57f744653a18728dba58f9b7afd744ff253abe67c5b34fd9d5d49d5ce95805490921617905561026b565b80516001600160a01b0381168114610235575f5ffd5b919050565b5f5f6040838503121561024b575f5ffd5b6102548361021f565b91506102626020840161021f565b90509250929050565b6105f7806102785f395ff3fe608060405234801561000f575f5ffd5b506004361061004a575f3560e01c806352ef6b2c1461004e5780637a0ed6271461006c578063adfca15e14610081578063cdffacc6146100a1575b5f5ffd5b6100566100eb565b6040516100639190610421565b60405180910390f35b61007461014a565b60405161006391906104b0565b61009461008f366004610533565b61031d565b6040516100639190610560565b6100d36100af366004610572565b6001600160e01b0319165f908152600260205260409020546001600160a01b031690565b6040516001600160a01b039091168152602001610063565b60605f80548060200260200160405190810160405280929190818152602001828054801561014057602002820191905f5260205f20905b81546001600160a01b03168152600190910190602001808311610122575b5050505050905090565b5f546060906001600160401b0381111561016657610166610599565b6040519080825280602002602001820160405280156101ab57816020015b604080518082019091525f8152606060208201528152602001906001900390816101845790505b5090505f5b5f54811015610319575f5f82815481106101cc576101cc6105ad565b5f9182526020808320909101546001600160a01b0316808352600190915260408220549092506001600160401b0381111561020957610209610599565b604051908082528060200260200182016040528015610232578160200160208202803683370190505b5090505f5b6001600160a01b0383165f908152600160205260409020548110156102d3576001600160a01b0383165f90815260016020526040902080548290811061027f5761027f6105ad565b905f5260205f2090600891828204019190066004029054906101000a900460e01b8282815181106102b2576102b26105ad565b6001600160e01b031990921660209283029190910190910152600101610237565b506040518060400160405280836001600160a01b0316815260200182815250848481518110610304576103046105ad565b602090810291909101015250506001016101b0565b5090565b6001600160a01b0381165f90815260016020526040812054606091906001600160401b0381111561035057610350610599565b604051908082528060200260200182016040528015610379578160200160208202803683370190505b5090505f5b6001600160a01b0384165f9081526001602052604090205481101561041a576001600160a01b0384165f9081526001602052604090208054829081106103c6576103c66105ad565b905f5260205f2090600891828204019190066004029054906101000a900460e01b8282815181106103f9576103f96105ad565b6001600160e01b03199092166020928302919091019091015260010161037e565b5092915050565b602080825282518282018190525f918401906040840190835b818110156104615783516001600160a01b031683526020938401939092019160010161043a565b509095945050505050565b5f8151808452602084019350602083015f5b828110156104a65781516001600160e01b03191686526020958601959091019060010161047e565b5093949350505050565b5f602082016020835280845180835260408501915060408160051b8601019250602086015f5b8281101561052757868503603f19018452815180516001600160a01b031686526020908101516040918701829052906105119087018261046c565b95505060209384019391909101906001016104d6565b50929695505050505050565b5f60208284031215610543575f5ffd5b81356001600160a01b0381168114610559575f5ffd5b9392505050565b602081525f610559602083018461046c565b5f60208284031215610582575f5ffd5b81356001600160e01b031981168114610559575f5ffd5b634e487b7160e01b5f52604160045260245ffd5b634e487b7160e01b5f52603260045260245ffdfea26469706673582212200646d800ddd1bafe194fc77c78778b65f017debd3f5c08d2700687d9884bfde464736f6c634300081e0033","linkReferences":{}},"methodIdentifiers":{"facetAddress(bytes4)":"cdffacc6","facetAddresses()":"52ef6b2c","facetFunctionSelectors(address)":"adfca15e","facets()":"7a0ed627"},"id":945}