{"abi":[{"type":"function","name":"a1","inputs":[],"outputs":[],"stateMutability":"nonpayable"},{"type":"function","name":"a2","inputs":[],"outputs":[],"stateMutability":"nonpayable"}],"bytecode":{"object":"0x6080604052348015600e575f5ffd5b50606c80601a5f395ff3fe6080604052348015600e575f5ffd5b50600436106030575f3560e01c8063119552a1146034578063969e9d0c146034575b5f5ffd5b00fea2646970667358221220ef99c4eeca17a342b3f8fda2e6191b250a7d303feb52eb6252057ab429cf9c9964736f6c634300081e0033","linkReferences":{}},"methodIdentifiers":{"a1()":"119552a1","a2()":"969e9d0c"},"id":945}