{"abi":[{"type":"constructor","inputs":[{"name":"pauseWindowDuration","type":"uint32","internalType":"uint32"}],"stateMutability":"nonpayable"},{"type":"function","name":"getNewPoolPauseWindowEndTime","inputs":[],"outputs":[{"name":"","type":"uint32","internalType":"uint32"}],"stateMutability":"view"},{"type":"function","name":"getOriginalPauseWindowEndTime","inputs":[],"outputs":[{"name":"","type":"uint32","internalType":"uint32"}],"stateMutability":"view"},{"type":"function","name":"getPauseWindowDuration","inputs":[],"outputs":[{"name":"","type":"uint32","internalType":"uint32"}],"stateMutability":"view"},{"type":"error","name":"PoolPauseWindowDurationOverflow","inputs":[]}],"bytecode":{"object":"0x60c060405234801561000f575f5ffd5b5060405161022538038061022583398101604081905261002e9161007a565b5f61003f63ffffffff8316426100a4565b905063ffffffff811115610066576040516368755a1160e01b815260040160405180910390fd5b63ffffffff9182166080521660a0526100c9565b5f6020828403121561008a575f5ffd5b815163ffffffff8116811461009d575f5ffd5b9392505050565b808201808211156100c357634e487b7160e01b5f52601160045260245ffd5b92915050565b60805160a0516101316100f45f395f818160810152818160a7015260d901525f604001526101315ff3fe6080604052348015600e575f5ffd5b5060043610603a575f3560e01c806378da80cb14603e578063db035ebc146079578063e9d56e1914607f575b5f5ffd5b7f00000000000000000000000000000000000000000000000000000000000000005b60405163ffffffff909116815260200160405180910390f35b606060a4565b7f00000000000000000000000000000000000000000000000000000000000000006060565b5f7f000000000000000000000000000000000000000000000000000000000000000063ffffffff16421060d657505f90565b507f00000000000000000000000000000000000000000000000000000000000000009056fea2646970667358221220b44fc7befaf820e087574d969fd26b62faee417123e889f782e07a09554d40c964736f6c634300081e0033","linkReferences":{}},"methodIdentifiers":{"getNewPoolPauseWindowEndTime()":"db035ebc","getOriginalPauseWindowEndTime()":"e9d56e19","getPauseWindowDuration()":"78da80cb"},"id":250}