{"abi":[{"type":"function","name":"TOKEN_INFO_PRECOMPILE_ADDRESS","inputs":[],"outputs":[{"name":"","type":"address","internalType":"address"}],"stateMutability":"view"},{"type":"error","name":"TokenInfoPrecompileFailed","inputs":[]}],"bytecode":{"object":"0x60906032600b8282823980515f1a607314602657634e487b7160e01b5f525f60045260245ffd5b305f52607381538281f3fe73000000000000000000000000000000000000000030146080604052600436106032575f3560e01c806319dd39d3146036575b5f5ffd5b603e61080c81565b6040516001600160a01b03909116815260200160405180910390f3fea264697066735822122094d0477bb08ad2d0065e92c96deaedbc3c734c3bd04e4875fa01cf3d805c675164736f6c634300081e0033","linkReferences":{}},"methodIdentifiers":{"TOKEN_INFO_PRECOMPILE_ADDRESS()":"19dd39d3"},"id":325}