{"abi":[{"type":"constructor","inputs":[{"name":"pkgInit","type":"tuple","internalType":"struct IBalancerV3Gyro2CLPPoolDFPkg.PkgInit","components":[{"name":"balancerV3VaultAwareFacet","type":"address","internalType":"contract IFacet"},{"name":"betterBalancerV3PoolTokenFacet","type":"address","internalType":"contract IFacet"},{"name":"defaultPoolInfoFacet","type":"address","internalType":"contract IFacet"},{"name":"balancerV3AuthenticationFacet","type":"address","internalType":"contract IFacet"},{"name":"balancerV3Gyro2CLPPoolFacet","type":"address","internalType":"contract IFacet"},{"name":"balancerV3Vault","type":"address","internalType":"contract IVault"},{"name":"diamondFactory","type":"address","internalType":"contract IDiamondPackageCallBackFactory"},{"name":"poolFeeManager","type":"address","internalType":"address"}]}],"stateMutability":"nonpayable"},{"type":"function","name":"BALANCER_V3_AUTHENTICATION_FACET","inputs":[],"outputs":[{"name":"","type":"address","internalType":"contract IFacet"}],"stateMutability":"view"},{"type":"function","name":"BALANCER_V3_GYRO_2CLP_POOL_FACET","inputs":[],"outputs":[{"name":"","type":"address","internalType":"contract IFacet"}],"stateMutability":"view"},{"type":"function","name":"BALANCER_V3_VAULT","inputs":[],"outputs":[{"name":"","type":"address","internalType":"contract IVault"}],"stateMutability":"view"},{"type":"function","name":"BALANCER_V3_VAULT_AWARE_FACET","inputs":[],"outputs":[{"name":"","type":"address","internalType":"contract IFacet"}],"stateMutability":"view"},{"type":"function","name":"BETTER_BALANCER_V3_POOL_TOKEN_FACET","inputs":[],"outputs":[{"name":"","type":"address","internalType":"contract IFacet"}],"stateMutability":"view"},{"type":"function","name":"DEFAULT_POOL_INFO_FACET","inputs":[],"outputs":[{"name":"","type":"address","internalType":"contract IFacet"}],"stateMutability":"view"},{"type":"function","name":"DIAMOND_PACKAGE_FACTORY","inputs":[],"outputs":[{"name":"","type":"address","internalType":"contract IDiamondPackageCallBackFactory"}],"stateMutability":"view"},{"type":"function","name":"calcSalt","inputs":[{"name":"pkgArgs","type":"bytes","internalType":"bytes"}],"outputs":[{"name":"salt","type":"bytes32","internalType":"bytes32"}],"stateMutability":"pure"},{"type":"function","name":"deployPool","inputs":[{"name":"tokenConfigs_","type":"tuple[]","internalType":"struct TokenConfig[]","components":[{"name":"token","type":"address","internalType":"contract IERC20"},{"name":"tokenType","type":"uint8","internalType":"enum TokenType"},{"name":"rateProvider","type":"address","internalType":"contract IRateProvider"},{"name":"paysYieldFees","type":"bool","internalType":"bool"}]},{"name":"sqrtAlpha_","type":"uint256","internalType":"uint256"},{"name":"sqrtBeta_","type":"uint256","internalType":"uint256"},{"name":"hooksContract","type":"address","internalType":"address"}],"outputs":[{"name":"vault","type":"address","internalType":"address"}],"stateMutability":"nonpayable"},{"type":"function","name":"diamondConfig","inputs":[],"outputs":[{"name":"config","type":"tuple","internalType":"struct IDiamondFactoryPackage.DiamondConfig","components":[{"name":"facetCuts","type":"tuple[]","internalType":"struct IDiamond.FacetCut[]","components":[{"name":"facetAddress","type":"address","internalType":"address"},{"name":"action","type":"uint8","internalType":"enum IDiamond.FacetCutAction"},{"name":"functionSelectors","type":"bytes4[]","internalType":"bytes4[]"}]},{"name":"interfaces","type":"bytes4[]","internalType":"bytes4[]"}]}],"stateMutability":"view"},{"type":"function","name":"disable","inputs":[],"outputs":[],"stateMutability":"nonpayable"},{"type":"function","name":"facetAddresses","inputs":[],"outputs":[{"name":"facetAddresses_","type":"address[]","internalType":"address[]"}],"stateMutability":"view"},{"type":"function","name":"facetCuts","inputs":[],"outputs":[{"name":"facetCuts_","type":"tuple[]","internalType":"struct IDiamond.FacetCut[]","components":[{"name":"facetAddress","type":"address","internalType":"address"},{"name":"action","type":"uint8","internalType":"enum IDiamond.FacetCutAction"},{"name":"functionSelectors","type":"bytes4[]","internalType":"bytes4[]"}]}],"stateMutability":"view"},{"type":"function","name":"facetInterfaces","inputs":[],"outputs":[{"name":"interfaces","type":"bytes4[]","internalType":"bytes4[]"}],"stateMutability":"pure"},{"type":"function","name":"getActionId","inputs":[{"name":"selector","type":"bytes4","internalType":"bytes4"}],"outputs":[{"name":"","type":"bytes32","internalType":"bytes32"}],"stateMutability":"view"},{"type":"function","name":"getDeploymentAddress","inputs":[{"name":"constructorArgs","type":"bytes","internalType":"bytes"},{"name":"","type":"bytes32","internalType":"bytes32"}],"outputs":[{"name":"","type":"address","internalType":"address"}],"stateMutability":"view"},{"type":"function","name":"getNewPoolPauseWindowEndTime","inputs":[],"outputs":[{"name":"","type":"uint32","internalType":"uint32"}],"stateMutability":"view"},{"type":"function","name":"getOriginalPauseWindowEndTime","inputs":[],"outputs":[{"name":"","type":"uint32","internalType":"uint32"}],"stateMutability":"view"},{"type":"function","name":"getPauseWindowDuration","inputs":[],"outputs":[{"name":"","type":"uint32","internalType":"uint32"}],"stateMutability":"view"},{"type":"function","name":"getPoolCount","inputs":[],"outputs":[{"name":"","type":"uint256","internalType":"uint256"}],"stateMutability":"view"},{"type":"function","name":"getPools","inputs":[],"outputs":[{"name":"","type":"address[]","internalType":"address[]"}],"stateMutability":"view"},{"type":"function","name":"getPoolsInRange","inputs":[{"name":"start","type":"uint256","internalType":"uint256"},{"name":"count","type":"uint256","internalType":"uint256"}],"outputs":[{"name":"","type":"address[]","internalType":"address[]"}],"stateMutability":"view"},{"type":"function","name":"initAccount","inputs":[{"name":"initArgs","type":"bytes","internalType":"bytes"}],"outputs":[],"stateMutability":"nonpayable"},{"type":"function","name":"isDisabled","inputs":[],"outputs":[{"name":"","type":"bool","internalType":"bool"}],"stateMutability":"view"},{"type":"function","name":"isPoolFromFactory","inputs":[{"name":"pool","type":"address","internalType":"address"}],"outputs":[{"name":"","type":"bool","internalType":"bool"}],"stateMutability":"view"},{"type":"function","name":"packageMetadata","inputs":[],"outputs":[{"name":"name_","type":"string","internalType":"string"},{"name":"interfaces","type":"bytes4[]","internalType":"bytes4[]"},{"name":"facets","type":"address[]","internalType":"address[]"}],"stateMutability":"view"},{"type":"function","name":"packageName","inputs":[],"outputs":[{"name":"name_","type":"string","internalType":"string"}],"stateMutability":"pure"},{"type":"function","name":"postDeploy","inputs":[{"name":"proxy","type":"address","internalType":"address"}],"outputs":[{"name":"","type":"bool","internalType":"bool"}],"stateMutability":"nonpayable"},{"type":"function","name":"processArgs","inputs":[{"name":"pkgArgs","type":"bytes","internalType":"bytes"}],"outputs":[{"name":"processedPkgArgs","type":"bytes","internalType":"bytes"}],"stateMutability":"pure"},{"type":"function","name":"tokenConfigs","inputs":[{"name":"pool","type":"address","internalType":"address"}],"outputs":[{"name":"","type":"tuple[]","internalType":"struct TokenConfig[]","components":[{"name":"token","type":"address","internalType":"contract IERC20"},{"name":"tokenType","type":"uint8","internalType":"enum TokenType"},{"name":"rateProvider","type":"address","internalType":"contract IRateProvider"},{"name":"paysYieldFees","type":"bool","internalType":"bool"}]}],"stateMutability":"view"},{"type":"function","name":"updatePkg","inputs":[{"name":"expectedProxy","type":"address","internalType":"address"},{"name":"pkgArgs","type":"bytes","internalType":"bytes"}],"outputs":[{"name":"","type":"bool","internalType":"bool"}],"stateMutability":"nonpayable"},{"type":"event","name":"FactoryDisabled","inputs":[],"anonymous":false},{"type":"event","name":"PoolCreated","inputs":[{"name":"pool","type":"address","indexed":true,"internalType":"address"}],"anonymous":false},{"type":"error","name":"Disabled","inputs":[]},{"type":"error","name":"IndexOutOfBounds","inputs":[]},{"type":"error","name":"IndexOutOfBounds","inputs":[{"name":"length","type":"uint256","internalType":"uint256"},{"name":"invalidIndex","type":"uint256","internalType":"uint256"},{"name":"errorCode","type":"uint256","internalType":"uint256"}]},{"type":"error","name":"InvalidPageSize","inputs":[{"name":"start","type":"uint256","internalType":"uint256"},{"name":"end","type":"uint256","internalType":"uint256"}]},{"type":"error","name":"InvalidTokensLength","inputs":[{"name":"requiredLength","type":"uint256","internalType":"uint256"},{"name":"providedLength","type":"uint256","internalType":"uint256"}]},{"type":"error","name":"PoolPauseWindowDurationOverflow","inputs":[]},{"type":"error","name":"SenderNotAllowed","inputs":[]},{"type":"error","name":"SqrtParamsWrong","inputs":[]},{"type":"error","name":"SqrtParamsWrong","inputs":[]},{"type":"error","name":"StringTooLong","inputs":[{"name":"str","type":"string","internalType":"string"}]}],"bytecode":{"object":"0x610160604052348015610010575f5ffd5b5060405161352538038061352583398101604081905261002f91610223565b60a0808201516001600160a01b03908116608090815260c0808501518316909352835182169092526020830151811660e090815260408401518216610100526060840151821661012052918301511661014052810151610094906301e13380906100d8565b604080513060208201526100c491016040516020818303038152906040528051906020012061010760201b60201c565b60a08101516100d290610133565b5061031f565b6101037f083b184f81c44d1555bdab2b99aeea4d11b107caca4883125bcb0b412d1f81328383610172565b5050565b6101307f82340927aad1ca6b5f8bb0037567f287e1bec629ab302d4e1debbc0d7543b1f8829055565b50565b6101307f392e49ca1983749c4549242b814e6592e6c2354a2bb55242596ce0ad2e7b100180546001600160a01b0319166001600160a01b038416179055565b5f61017d83426102f1565b905063ffffffff80821611156101a6576040516368755a1160e01b815260040160405180910390fd5b8354610100600160481b0319166501000000000063ffffffff9283160264ffffffff00191617610100939091169290920291909117600160481b600160e81b03191669010000000000000000006001600160a01b039290921691909102179055565b80516001600160a01b038116811461021e575f5ffd5b919050565b5f610100828403128015610235575f5ffd5b5060405161010081016001600160401b038111828210171561026557634e487b7160e01b5f52604160045260245ffd5b60405261027183610208565b815261027f60208401610208565b602082015261029060408401610208565b60408201526102a160608401610208565b60608201526102b260808401610208565b60808201526102c360a08401610208565b60a08201526102d460c08401610208565b60c08201526102e560e08401610208565b60e08201529392505050565b63ffffffff818116838216019081111561031957634e487b7160e01b5f52601160045260245ffd5b92915050565b60805160a05160c05160e05161010051610120516101405161313e6103e75f395f818161024c01528181610980015281816111dc015261122201525f81816104300152818161092c015281816110e8015261112e01525f8181610341015281816108d801528181610ff4015261103a01525f81816103680152818161088401528181610f000152610f4601525f818161031a0152818161083101528181610e220152610e5301525f81816103de0152818161078f0152610ac001525f6103a4015261313e5ff3fe608060405234801561000f575f5ffd5b5060043610610173575f3560e01c80631b69dc5f146101775780632ea80826146101a05780632f2770db146101b557806344f6fec7146101bf57806352ef6b2c146101df57806353a72f7e146101f457806365d375b3146102075780636634b7531461021c578063673a2a1f1461023f57806368e88217146102475780636c57f5a91461026e57806370068fcf1461027657806378da80cb146102895780637daccf1b146102a6578063851c1bb3146102b9578063870d4838146102da57806387c3adb3146102ed5780638eec5d701461030d57806390d8c70514610315578063a2bebeb21461033c578063a378544d14610363578063a4b3ad351461038a578063a4c01bbb1461039f578063a9089235146103c6578063ab6046ed146103d9578063abc8b34614610400578063d82be56e14610408578063db035ebc1461041b578063e9d56e1914610423578063f07033251461042b578063f45469e714610452575b5f5ffd5b61018a6101853660046124e1565b610469565b604051610197919061259f565b60405180910390f35b6101a861047a565b60405161019791906125eb565b6101bd610731565b005b6101d26101cd3660046126e1565b610776565b6040516101979190612722565b6101e761080c565b604051610197919061276f565b6101e7610202366004612781565b6109d5565b61020f6109e1565b6040516101979190612837565b61022f61022a3660046124e1565b610a1c565b6040519015158152602001610197565b6101e7610a26565b6101d27f000000000000000000000000000000000000000000000000000000000000000081565b61022f610a35565b61022f6102843660046124e1565b610a3e565b610291610ab4565b60405163ffffffff9091168152602001610197565b6101d26102b436600461286f565b610abd565b6102cc6102c7366004612913565b610bef565b604051908152602001610197565b6101bd6102e836600461292e565b610bf9565b6103006102fb36600461292e565b610d6f565b604051610197919061298d565b6102cc610dbe565b6101d27f000000000000000000000000000000000000000000000000000000000000000081565b6101d27f000000000000000000000000000000000000000000000000000000000000000081565b6101d27f000000000000000000000000000000000000000000000000000000000000000081565b610392610dc7565b604051610197919061299f565b6101d27f000000000000000000000000000000000000000000000000000000000000000081565b61022f6103d43660046129b1565b6112c6565b6101d27f000000000000000000000000000000000000000000000000000000000000000081565b610300611303565b6102cc61041636600461292e565b611338565b610291611401565b61029161140a565b6101d27f000000000000000000000000000000000000000000000000000000000000000081565b61045a611413565b604051610197939291906129fd565b60606104748261143b565b92915050565b60408051600b808252610180820190925260609160208201610160803683370190505090506336372b0760e01b815f815181106104b9576104b9612a35565b60200260200101906001600160e01b03191690816001600160e01b0319168152505063a219a02560e01b816001815181106104f6576104f6612a35565b6001600160e01b0319909216602092830291909101909101528051634a17459160e11b908290600290811061052d5761052d612a35565b60200260200101906001600160e01b03191690816001600160e01b03191681525050634ec7fbed60e11b8160038151811061056a5761056a612a35565b60200260200101906001600160e01b03191690816001600160e01b031916815250506342580cb760e11b816004815181106105a7576105a7612a35565b60200260200101906001600160e01b03191690816001600160e01b03191681525050634b12c34f60e01b816005815181106105e4576105e4612a35565b60200260200101906001600160e01b03191690816001600160e01b0319168152505063e244eef560e01b8160068151811061062157610621612a35565b60200260200101906001600160e01b03191690816001600160e01b03191681525050637e126dc760e11b8160078151811061065e5761065e612a35565b60200260200101906001600160e01b03191690816001600160e01b031916815250506355b60edd60e11b8160088151811061069b5761069b612a35565b60200260200101906001600160e01b03191690816001600160e01b0319168152505063914be08960e01b816009815181106106d8576106d8612a35565b60200260200101906001600160e01b03191690816001600160e01b0319168152505063755994e960e01b81600a8151811061071557610715612a35565b6001600160e01b03199092166020928302919091019091015290565b3061073b8161144e565b610743611491565b61074b6114b9565b6040517f432acbfd662dbb5d8b378384a67159b47ca9d0f1b79f97cf64cf8585fa362d50905f90a150565b60405163033a41d760e41b81525f906001600160a01b037f000000000000000000000000000000000000000000000000000000000000000016906333a41d70906107c69030908790600401612a49565b602060405180830381865afa1580156107e1573d5f5f3e3d5ffd5b505050506040513d601f19601f820116820180604052508101906108059190612a77565b9392505050565b60408051600580825260c082019092526060916020820160a0803683370190505090507f0000000000000000000000000000000000000000000000000000000000000000815f8151811061086257610862612a35565b60200260200101906001600160a01b031690816001600160a01b0316815250507f0000000000000000000000000000000000000000000000000000000000000000816001815181106108b6576108b6612a35565b60200260200101906001600160a01b031690816001600160a01b0316815250507f00000000000000000000000000000000000000000000000000000000000000008160028151811061090a5761090a612a35565b60200260200101906001600160a01b031690816001600160a01b0316815250507f00000000000000000000000000000000000000000000000000000000000000008160038151811061095e5761095e612a35565b60200260200101906001600160a01b031690816001600160a01b0316815250507f0000000000000000000000000000000000000000000000000000000000000000816004815181106109b2576109b2612a35565b60200260200101906001600160a01b031690816001600160a01b03168152505090565b606061080583836114d1565b60408051808201909152606080825260208201526040518060400160405280610a08610dc7565b8152602001610a1561047a565b9052919050565b5f610474826114e5565b6060610a306114f7565b905090565b5f610a30611509565b5f610aac82610a4c8461143b565b66b1a2bc2ec500005f610a5d61151c565b610a6688611569565b60408051608080820183525f8083526020808401829052838501829052606093840182905284519283018552818352820181905292810192909252600190820152611597565b506001919050565b5f610a3061161e565b5f7f00000000000000000000000000000000000000000000000000000000000000006001600160a01b031663e97fac053060405180608001604052808a8a808060200260200160405190810160405280939291908181526020015f905b82821015610b4657610b3760808302860136819003810190612aab565b81526020019060010190610b1a565b50505050508152602001888152602001878152602001866001600160a01b0316815250604051602001610b799190612b12565b6040516020818303038152906040526040518363ffffffff1660e01b8152600401610ba5929190612a49565b6020604051808303815f875af1158015610bc1573d5f5f3e3d5ffd5b505050506040513d601f19601f82011682018060405250810190610be59190612a77565b9695505050505050565b5f61047482611639565b5f81806020019051810190610c0e9190612bb2565b90505f815f0151516001600160401b03811115610c2d57610c2d6125fd565b604051908082528060200260200182016040528015610c56578160200160208202803683370190505b5090505f5b825151811015610cb6578251805182908110610c7957610c79612a35565b60200260200101515f0151828281518110610c9657610c96612a35565b6001600160a01b0390921660209283029190910190910152600101610c5b565b505f610cc18261164b565b9050610cea816040518060400160405280600381526020016210941560ea1b815250601261176b565b610d0d81604051806040016040528060018152602001603160f81b815250611783565b610d285f5f1964e8d4a51000670de0b6b3a764000086611795565b610d3a836020015184604001516117ca565b610d6930604051602001610d4e9190612722565b604051602081830303815290604052805190602001206117f5565b50505050565b60605f82806020019051810190610d869190612bb2565b9050610d94815f0151611808565b8152604051610da7908290602001612b12565b604051602081830303815290604052915050919050565b5f610a30611942565b60408051600580825260c08201909252606091816020015b60408051606080820183525f808352602083015291810191909152815260200190600190039081610ddf5790505060408051606081019091526001600160a01b037f0000000000000000000000000000000000000000000000000000000000000000168152909150602081015f81526020017f00000000000000000000000000000000000000000000000000000000000000006001600160a01b031663574a4cff6040518163ffffffff1660e01b81526004015f60405180830381865afa158015610eac573d5f5f3e3d5ffd5b505050506040513d5f823e601f3d908101601f19168201604052610ed39190810190612cf6565b815250815f81518110610ee857610ee8612a35565b602002602001018190525060405180606001604052807f00000000000000000000000000000000000000000000000000000000000000006001600160a01b031681526020015f6002811115610f3f57610f3f6124fc565b81526020017f00000000000000000000000000000000000000000000000000000000000000006001600160a01b031663574a4cff6040518163ffffffff1660e01b81526004015f60405180830381865afa158015610f9f573d5f5f3e3d5ffd5b505050506040513d5f823e601f3d908101601f19168201604052610fc69190810190612cf6565b81525081600181518110610fdc57610fdc612a35565b602002602001018190525060405180606001604052807f00000000000000000000000000000000000000000000000000000000000000006001600160a01b031681526020015f6002811115611033576110336124fc565b81526020017f00000000000000000000000000000000000000000000000000000000000000006001600160a01b031663574a4cff6040518163ffffffff1660e01b81526004015f60405180830381865afa158015611093573d5f5f3e3d5ffd5b505050506040513d5f823e601f3d908101601f191682016040526110ba9190810190612cf6565b815250816002815181106110d0576110d0612a35565b602002602001018190525060405180606001604052807f00000000000000000000000000000000000000000000000000000000000000006001600160a01b031681526020015f6002811115611127576111276124fc565b81526020017f00000000000000000000000000000000000000000000000000000000000000006001600160a01b031663574a4cff6040518163ffffffff1660e01b81526004015f60405180830381865afa158015611187573d5f5f3e3d5ffd5b505050506040513d5f823e601f3d908101601f191682016040526111ae9190810190612cf6565b815250816003815181106111c4576111c4612a35565b602002602001018190525060405180606001604052807f00000000000000000000000000000000000000000000000000000000000000006001600160a01b031681526020015f600281111561121b5761121b6124fc565b81526020017f00000000000000000000000000000000000000000000000000000000000000006001600160a01b031663574a4cff6040518163ffffffff1660e01b81526004015f60405180830381865afa15801561127b573d5f5f3e3d5ffd5b505050506040513d5f823e601f3d908101601f191682016040526112a29190810190612cf6565b815250816004815181106112b8576112b8612a35565b602002602001018190525090565b5f5f828060200190518101906112dc9190612bb2565b90506112eb84825f0151611953565b6112f9848260600151611965565b5060019392505050565b60408051808201909152601b81527a42616c616e63657256334779726f32434c50506f6f6c4446506b6760281b602082015290565b5f5f8280602001905181019061134e9190612bb2565b805151909150600281146113845760405163804c2b5160e01b815260026004820152602481018290526044015b60405180910390fd5b81604001518260200151106113ac576040516302bcf0ed60e11b815260040160405180910390fd5b81516113b790611808565b808352602080840151604080860151606087015191515f956113dd959094939101612d85565b60408051601f19818403018152919052805160208201209091505b95945050505050565b5f610a306119a4565b5f610a306119b5565b6060806060611420611303565b925061142a61047a565b915061143461080c565b9050909192565b60606104746114486119d2565b836119f6565b5f6114635f356001600160e01b031916611639565b9050611470813384611b83565b61148d576040516323dada5360e01b815260040160405180910390fd5b5050565b611499611509565b156114b757604051633ac4266d60e11b815260040160405180910390fd5b565b6114b76114c46119d2565b805460ff19166001179055565b60606108056114de6119d2565b8484611c6c565b5f6104746114f16119d2565b83611c7c565b6060610a306115046119d2565b611c8a565b5f610a306115156119d2565b5460ff1690565b604080516060810182525f8082526020820181905291810182905290611540611cee565b604080516060810182526001600160a01b03909216808352602083018190529082015292915050565b5f6104746115756119d2565b6001600160a01b038085165f9081526007929092016020526040909120541690565b6115a087611d0e565b6115a8611d1f565b6001600160a01b031663eeec802f8888886115c1611401565b898989896040518963ffffffff1660e01b81526004016115e8989796959493929190612dbc565b5f604051808303815f87803b1580156115ff575f5ffd5b505af1158015611611573d5f5f3e3d5ffd5b5050505050505050505050565b5f610a3061162a6119d2565b54610100900463ffffffff1690565b5f610474611645611d51565b83611d75565b6060815f8151811061165f5761165f612a35565b60200260200101516001600160a01b03166306fdde036040518163ffffffff1660e01b81526004015f60405180830381865afa1580156116a1573d5f5f3e3d5ffd5b505050506040513d5f823e601f3d908101601f191682016040526116c89190810190612e6d565b826001815181106116db576116db612a35565b60200260200101516001600160a01b03166306fdde036040518163ffffffff1660e01b81526004015f60405180830381865afa15801561171d573d5f5f3e3d5ffd5b505050506040513d5f823e601f3d908101601f191682016040526117449190810190612e6d565b604051602001611755929190612ef8565b6040516020818303038152906040529050919050565b61177e611776611dba565b848484611e05565b505050565b61148d61178e611e3c565b8383611e6f565b6117c37fad058ae2c4fd2dc635a6531cef09fdcc7264c09c1ee65b9e398137189754ce718686868686611ed6565b5050505050565b61148d7f0e608ce83d5ad53eaabbef5644dd88ffe25c904c499deca068a8868b93a5bb238383611f04565b611805611800611d51565b829055565b50565b60605f60015b835181101561193a575f9150815b8185516118299190612f56565b8110156119245784818151811061184257611842612a35565b60200260200101515f01516001600160a01b0316858260016118649190612f69565b8151811061187457611874612a35565b60200260200101515f01516001600160a01b0316101561191c575f8582815181106118a1576118a1612a35565b60200260200101519050858260016118b99190612f69565b815181106118c9576118c9612a35565b60200260200101518683815181106118e3576118e3612a35565b602090810291909101015280866118fb846001612f69565b8151811061190b5761190b612a35565b602002602001018190525060019350505b60010161181c565b508161193257509192915050565b60010161180e565b509192915050565b5f610a3061194e6119d2565b611f2f565b61148d61195e6119d2565b8383611f3b565b61148d6119706119d2565b6001600160a01b038085165f908152600792909201602052604090912080546001600160a01b031916918416919091179055565b5f610a306119b06119d2565b612153565b5f610a306119c16119d2565b54600160281b900463ffffffff1690565b7f083b184f81c44d1555bdab2b99aeea4d11b107caca4883125bcb0b412d1f813290565b6001600160a01b0381165f908152600383016020526040902060010154606090806001600160401b03811115611a2e57611a2e6125fd565b604051908082528060200260200182016040528015611a7e57816020015b604080516080810182525f8082526020808301829052928201819052606082015282525f19909201910181611a4c5790505b5091505f5b81811015611b7b576001600160a01b0384165f9081526003860160205260408120611aae9083612180565b604080516080810182526001600160a01b038084168083529089165f90815260048b0160209081528482209282529182529290922054929350919082019060ff166001811115611b0057611b006124fc565b81526001600160a01b038088165f81815260058b0160209081526040808320888616808552908352818420549095168287015292825260068c01815282822093825292909252908190205460ff1615159101528451859084908110611b6757611b67612a35565b602090810291909101015250600101611a83565b505092915050565b5f611b8c611d1f565b6001600160a01b031663aaabadc56040518163ffffffff1660e01b8152600401602060405180830381865afa158015611bc7573d5f5f3e3d5ffd5b505050506040513d601f19601f82011682018060405250810190611beb9190612a77565b6040516326f8aa2160e21b8152600481018690526001600160a01b03858116602483015284811660448301529190911690639be2a88490606401602060405180830381865afa158015611c40573d5f5f3e3d5ffd5b505050506040513d601f19601f82011682018060405250810190611c649190612f7c565b949350505050565b6060611c646001850184846121c2565b5f61080560018401836122d0565b606060028201805480602002602001604051908101604052809291908181526020018280548015611ce257602002820191905f5260205f20905b81546001600160a01b03168152600190910190602001808311611cc4575b50505050509050919050565b5f610a30611cfa6119d2565b54600160481b90046001600160a01b031690565b611805611d196119d2565b826122ed565b5f610a307f392e49ca1983749c4549242b814e6592e6c2354a2bb55242596ce0ad2e7b1001546001600160a01b031690565b7f82340927aad1ca6b5f8bb0037567f287e1bec629ab302d4e1debbc0d7543b1f890565b5f610805611d81845490565b6040805160208101929092526001600160e01b03198516908201526044015b604051602081830303815290604052805160209091012090565b5f610a30604051602001611dec906020808252600a908201526906569702e6572632e32360b41b604082015260600190565b6040516020818303038152906040528051906020012090565b83611e108482613013565b5060018401611e1f8382613013565b50600293909301805460ff191660ff909416939093179092555050565b5f610a30604051602001611dec906020808252600b908201526a32b4b81732b4b8171b989960a91b604082015260600190565b611e7c82600785016122fa565b6005840155611e8e81600885016122fa565b6006840155815160208084019190912060038501558151908201206004840155466001840155611ebd83612357565b8355505060020180546001600160a01b03191630179055565b848655600186018490556002860183905560038601829055611efb60048701826123b1565b50505050505050565b808210611f24576040516302bcf0ed60e11b815260040160405180910390fd5b908255600190910155565b60028101545f90610474565b5f5b8151811015610d6957611f88828281518110611f5b57611f5b612a35565b602090810291909101810151516001600160a01b0386165f908152600388019092526040909120906123f2565b50818181518110611f9b57611f9b612a35565b602002602001015160400151846005015f856001600160a01b03166001600160a01b031681526020019081526020015f205f848481518110611fdf57611fdf612a35565b60200260200101515f01516001600160a01b03166001600160a01b031681526020019081526020015f205f6101000a8154816001600160a01b0302191690836001600160a01b0316021790555081818151811061203e5761203e612a35565b602002602001015160200151846004015f856001600160a01b03166001600160a01b031681526020019081526020015f205f84848151811061208257612082612a35565b602090810291909101810151516001600160a01b031682528101919091526040015f20805460ff1916600183818111156120be576120be6124fc565b02179055508181815181106120d5576120d5612a35565b602002602001015160600151846006015f856001600160a01b03166001600160a01b031681526020019081526020015f205f84848151811061211957612119612a35565b602090810291909101810151516001600160a01b031682528101919091526040015f20805460ff1916911515919091179055600101611f3d565b5f5f61216b835463ffffffff600160281b9091041690565b90508063ffffffff164210610474575f610805565b60018201545f90612191908361244e565b508260010182815481106121a7576121a7612a35565b5f918252602090912001546001600160a01b03169392505050565b6060828210156121ef5760405163dc78128f60e01b8152600481018490526024810183905260440161137b565b5f6121fb856001015490565b9050612207818561244e565b50612212818461244e565b505f61221e8585612f56565b612229906001612f69565b9050806001600160401b03811115612243576122436125fd565b60405190808252806020026020018201604052801561226c578160200160208202803683370190505b5092505f855b8581116122c5576122838882612180565b85838151811061229557612295612a35565b6001600160a01b0390921660209283029190910190910152600190910190806122bd816130cd565b915050612272565b505050509392505050565b6001600160a01b03165f9081526020919091526040902054151590565b61177e60018301826123f2565b5f6020835110156123155761230e83612480565b9050610474565b825160018160011b178355825f5260205f20602085015f5b838110156123495781810151600582901c84015560200161232d565b5060ff935061047492505050565b60038101546004820154604080517f8b73c3c69bb8fe3d512ecc4cf759cc79239f7b179b0ffacaa9a75d522b39400f60208201529081019290925260608201524660808201523060a08201525f906104749060c001611da0565b5f805b82518110156112f9576123e98382815181106123d2576123d2612a35565b6020026020010151856123f290919063ffffffff16565b506001016123b4565b5f6123fd83836122d0565b612445576001838101805491820181555f818152602080822090930180546001600160a01b0319166001600160a01b0387169081179091559154918152918590526040909120555b50600192915050565b5f81831161244557604051635400feb960e01b815260048101849052602481018390526032604482015260640161137b565b5f5f829050601f815111156124aa578260405163305a27a960e01b815260040161137b919061298d565b80516124b5826130e5565b179392505050565b6001600160a01b0381168114611805575f5ffd5b80356124dc816124bd565b919050565b5f602082840312156124f1575f5ffd5b8135610805816124bd565b634e487b7160e01b5f52602160045260245ffd5b80516001600160a01b0316825260208101515f9060028110612534576125346124fc565b6020840152506040818101516001600160a01b03169083015260609081015115159082015260800190565b5f8151808452602084019350602083015f5b8281101561259557612584868351612510565b955060209190910190600101612571565b5093949350505050565b602081525f610805602083018461255f565b5f8151808452602084019350602083015f5b828110156125955781516001600160e01b0319168652602095860195909101906001016125c3565b602081525f61080560208301846125b1565b634e487b7160e01b5f52604160045260245ffd5b604051608081016001600160401b0381118282101715612633576126336125fd565b60405290565b604051601f8201601f191681016001600160401b0381118282101715612661576126616125fd565b604052919050565b5f6001600160401b03821115612681576126816125fd565b50601f01601f191660200190565b5f82601f83011261269e575f5ffd5b81356126b16126ac82612669565b612639565b8181528460208386010111156126c5575f5ffd5b816020850160208301375f918101602001919091529392505050565b5f5f604083850312156126f2575f5ffd5b82356001600160401b03811115612707575f5ffd5b6127138582860161268f565b95602094909401359450505050565b6001600160a01b0391909116815260200190565b5f8151808452602084019350602083015f5b828110156125955781516001600160a01b0316865260209586019590910190600101612748565b602081525f6108056020830184612736565b5f5f60408385031215612792575f5ffd5b50508035926020909101359150565b5f82825180855260208501945060208160051b830101602085015f5b8381101561282b57848303601f19018852815180516001600160a01b031684526020810151600381106127f2576127f26124fc565b80602086015250604081015190506060604085015261281460608501826125b1565b6020998a01999094509290920191506001016127bd565b50909695505050505050565b602081525f82516040602084015261285260608401826127a1565b90506020840151601f198483030160408501526113f882826125b1565b5f5f5f5f5f60808688031215612883575f5ffd5b85356001600160401b03811115612898575f5ffd5b8601601f810188136128a8575f5ffd5b80356001600160401b038111156128bd575f5ffd5b8860208260071b84010111156128d1575f5ffd5b6020918201965094508601359250604086013591506128f2606087016124d1565b90509295509295909350565b6001600160e01b031981168114611805575f5ffd5b5f60208284031215612923575f5ffd5b8135610805816128fe565b5f6020828403121561293e575f5ffd5b81356001600160401b03811115612953575f5ffd5b611c648482850161268f565b5f81518084528060208401602086015e5f602082860101526020601f19601f83011685010191505092915050565b602081525f610805602083018461295f565b602081525f61080560208301846127a1565b5f5f604083850312156129c2575f5ffd5b82356129cd816124bd565b915060208301356001600160401b038111156129e7575f5ffd5b6129f38582860161268f565b9150509250929050565b606081525f612a0f606083018661295f565b8281036020840152612a2181866125b1565b90508281036040840152610be58185612736565b634e487b7160e01b5f52603260045260245ffd5b6001600160a01b03831681526040602082018190525f90611c649083018461295f565b80516124dc816124bd565b5f60208284031215612a87575f5ffd5b8151610805816124bd565b60028110611805575f5ffd5b8015158114611805575f5ffd5b5f6080828403128015612abc575f5ffd5b50612ac5612611565b8235612ad0816124bd565b81526020830135612ae081612a92565b60208201526040830135612af3816124bd565b60408201526060830135612b0681612a9e565b60608201529392505050565b60208082528251608083830152805160a084018190525f929190910190829060c08501905b80831015612b5d57612b4a828551612510565b9150602084019350600183019250612b37565b50602086015160408601526040860151606086015260018060a01b03606087015116608086015280935050505092915050565b5f6001600160401b03821115612ba857612ba86125fd565b5060051b60200190565b5f60208284031215612bc2575f5ffd5b81516001600160401b03811115612bd7575f5ffd5b820160808185031215612be8575f5ffd5b612bf0612611565b81516001600160401b03811115612c05575f5ffd5b8201601f81018613612c15575f5ffd5b8051612c236126ac82612b90565b8082825260208201915060208360071b850101925088831115612c44575f5ffd5b6020840193505b82841015612cc4576080848a031215612c62575f5ffd5b612c6a612611565b8451612c75816124bd565b81526020850151612c8581612a92565b60208201526040850151612c98816124bd565b60408201526060850151612cab81612a9e565b6060820152825260809390930192602090910190612c4b565b84525050506020828101519082015260408083015190820152612ce960608301612a6c565b6060820152949350505050565b5f60208284031215612d06575f5ffd5b81516001600160401b03811115612d1b575f5ffd5b8201601f81018413612d2b575f5ffd5b8051612d396126ac82612b90565b8082825260208201915060208360051b850101925086831115612d5a575f5ffd5b6020840193505b82841015610be5578351612d74816128fe565b825260209384019390910190612d61565b608081525f612d97608083018761255f565b60208301959095525060408101929092526001600160a01b0316606090910152919050565b6001600160a01b03891681526101a0602082018190525f90612de09083018a61255f565b60408381018a905263ffffffff89166060850152871515608085015286516001600160a01b0390811660a08601526020880151811660c086015290870151811660e085015285166101008401529050825115156101208301526020830151151561014083015260408301511515610160830152606083015115156101808301529998505050505050505050565b5f60208284031215612e7d575f5ffd5b81516001600160401b03811115612e92575f5ffd5b8201601f81018413612ea2575f5ffd5b8051612eb06126ac82612669565b818152856020838501011115612ec4575f5ffd5b8160208401602083015e5f91810160200191909152949350505050565b5f81518060208401855e5f93019283525090919050565b6c084ac665a648698a040decc405609b1b81525f612f19600d830185612ee1565b6201017960ed1b8152612f2f6003820185612ee1565b602960f81b815260010195945050505050565b634e487b7160e01b5f52601160045260245ffd5b8181038181111561047457610474612f42565b8082018082111561047457610474612f42565b5f60208284031215612f8c575f5ffd5b815161080581612a9e565b600181811c90821680612fab57607f821691505b602082108103612fc957634e487b7160e01b5f52602260045260245ffd5b50919050565b601f82111561177e57805f5260205f20601f840160051c81016020851015612ff45750805b601f840160051c820191505b818110156117c3575f8155600101613000565b81516001600160401b0381111561302c5761302c6125fd565b6130408161303a8454612f97565b84612fcf565b6020601f821160018114613072575f831561305b5750848201515b5f19600385901b1c1916600184901b1784556117c3565b5f84815260208120601f198516915b828110156130a15787850151825560209485019460019092019101613081565b50848210156130be57868401515f19600387901b60f8161c191681555b50505050600190811b01905550565b5f600182016130de576130de612f42565b5060010190565b80516020808301519190811015612fc9575f1960209190910360031b1b1691905056fea26469706673582212205081a0b0fd002b05509f43f5cb6cbf17105974ba3c6f3d83f8f41374ca23aa0864736f6c634300081e0033","linkReferences":{}},"methodIdentifiers":{"BALANCER_V3_AUTHENTICATION_FACET()":"f0703325","BALANCER_V3_GYRO_2CLP_POOL_FACET()":"68e88217","BALANCER_V3_VAULT()":"a4c01bbb","BALANCER_V3_VAULT_AWARE_FACET()":"90d8c705","BETTER_BALANCER_V3_POOL_TOKEN_FACET()":"a378544d","DEFAULT_POOL_INFO_FACET()":"a2bebeb2","DIAMOND_PACKAGE_FACTORY()":"ab6046ed","calcSalt(bytes)":"d82be56e","deployPool((address,uint8,address,bool)[],uint256,uint256,address)":"7daccf1b","diamondConfig()":"65d375b3","disable()":"2f2770db","facetAddresses()":"52ef6b2c","facetCuts()":"a4b3ad35","facetInterfaces()":"2ea80826","getActionId(bytes4)":"851c1bb3","getDeploymentAddress(bytes,bytes32)":"44f6fec7","getNewPoolPauseWindowEndTime()":"db035ebc","getOriginalPauseWindowEndTime()":"e9d56e19","getPauseWindowDuration()":"78da80cb","getPoolCount()":"8eec5d70","getPools()":"673a2a1f","getPoolsInRange(uint256,uint256)":"53a72f7e","initAccount(bytes)":"870d4838","isDisabled()":"6c57f5a9","isPoolFromFactory(address)":"6634b753","packageMetadata()":"f45469e7","packageName()":"abc8b346","postDeploy(address)":"70068fcf","processArgs(bytes)":"87c3adb3","tokenConfigs(address)":"1b69dc5f","updatePkg(address,bytes)":"a9089235"},"id":864}