{"abi":[{"type":"receive","stateMutability":"payable"},{"type":"function","name":"execute","inputs":[{"name":"calls","type":"tuple[]","internalType":"struct SimpleEIP7702Contract.Call[]","components":[{"name":"data","type":"bytes","internalType":"bytes"},{"name":"to","type":"address","internalType":"address"},{"name":"value","type":"uint256","internalType":"uint256"}]}],"outputs":[{"name":"results","type":"bytes[]","internalType":"bytes[]"}],"stateMutability":"payable"}],"bytecode":{"object":"0x6080604052348015600e575f5ffd5b5061045a8061001c5f395ff3fe608060405260043610610020575f3560e01c8063a6d0ad611461002b575f5ffd5b3661002757005b5f5ffd5b61003e6100393660046101fc565b610054565b60405161004b9190610376565b60405180910390f35b606081516001600160401b0381111561006f5761006f610175565b6040519080825280602002602001820160405280156100a257816020015b606081526020019060019003908161008d5790505b5090505f5b825181101561016f575f8382815181106100c3576100c36103fa565b602002602001015190505f5f82602001516001600160a01b03168360400151845f01516040516100f3919061040e565b5f6040518083038185875af1925050503d805f811461012d576040519150601f19603f3d011682016040523d82523d5f602084013e610132565b606091505b509092509050600182151514610146575f5ffd5b80858581518110610159576101596103fa565b60209081029190910101525050506001016100a7565b50919050565b634e487b7160e01b5f52604160045260245ffd5b604051606081016001600160401b03811182821017156101ab576101ab610175565b60405290565b604051601f8201601f191681016001600160401b03811182821017156101d9576101d9610175565b604052919050565b80356001600160a01b03811681146101f7575f5ffd5b919050565b5f6020828403121561020c575f5ffd5b81356001600160401b03811115610221575f5ffd5b8201601f81018413610231575f5ffd5b80356001600160401b0381111561024a5761024a610175565b8060051b61025a602082016101b1565b91825260208184018101929081019087841115610275575f5ffd5b6020850192505b8383101561036b5782356001600160401b03811115610299575f5ffd5b85016060818a03601f190112156102ae575f5ffd5b6102b6610189565b60208201356001600160401b038111156102ce575f5ffd5b82016020810190603f018b136102e2575f5ffd5b80356001600160401b038111156102fb576102fb610175565b61030e601f8201601f19166020016101b1565b8181528c6020838501011115610322575f5ffd5b816020840160208301375f60208383010152808452505050610346604083016101e1565b602082810191909152606092909201356040820152835292830192919091019061027c565b979650505050505050565b5f602082016020835280845180835260408501915060408160051b8601019250602086015f5b828110156103ee57603f19878603018452815180518087528060208301602089015e5f602082890101526020601f19601f8301168801019650505060208201915060208401935060018101905061039c565b50929695505050505050565b634e487b7160e01b5f52603260045260245ffd5b5f82518060208501845e5f92019182525091905056fea2646970667358221220d7832eac85cfd573db791d9851132740841a7a3131f3f8f97369383ff72ac1cb64736f6c634300081e0033","linkReferences":{}},"methodIdentifiers":{"execute((bytes,address,uint256)[])":"a6d0ad61"},"id":492}