{"abi":[{"type":"function","name":"areValid_facetSizes","inputs":[{"name":"facets","type":"address[]","internalType":"address[]"}],"outputs":[{"name":"valid","type":"bool","internalType":"bool"}],"stateMutability":"view"},{"type":"function","name":"errSuffix_IRouterCommon_getVault","inputs":[],"outputs":[{"name":"","type":"string","internalType":"string"}],"stateMutability":"pure"},{"type":"function","name":"errSuffix_IRouter_interfaces","inputs":[],"outputs":[{"name":"","type":"string","internalType":"string"}],"stateMutability":"pure"},{"type":"function","name":"funcSig_IRouterCommon_getVault","inputs":[],"outputs":[{"name":"","type":"string","internalType":"string"}],"stateMutability":"pure"},{"type":"function","name":"funcSig_IRouter_interfaces","inputs":[],"outputs":[{"name":"","type":"string","internalType":"string"}],"stateMutability":"pure"},{"type":"function","name":"funcSig_deployRouter","inputs":[],"outputs":[{"name":"","type":"string","internalType":"string"}],"stateMutability":"pure"},{"type":"function","name":"funcSig_facetCuts","inputs":[],"outputs":[{"name":"","type":"string","internalType":"string"}],"stateMutability":"pure"},{"type":"function","name":"funcSig_facetSize","inputs":[],"outputs":[{"name":"","type":"string","internalType":"string"}],"stateMutability":"pure"},{"type":"function","name":"hasValid_IRouterCommon_getVault","inputs":[{"name":"router","type":"IRouterCommon","internalType":"contract IRouterCommon"}],"outputs":[{"name":"isValid_","type":"bool","internalType":"bool"}],"stateMutability":"view"},{"type":"function","name":"isValid_IRouterCommon_getVault","inputs":[{"name":"router","type":"IRouterCommon","internalType":"contract IRouterCommon"},{"name":"expectedVault","type":"address","internalType":"address"}],"outputs":[{"name":"valid","type":"bool","internalType":"bool"}],"stateMutability":"view"},{"type":"function","name":"isValid_IRouterCommon_getVault","inputs":[{"name":"subjectLabel","type":"string","internalType":"string"},{"name":"expected","type":"address","internalType":"address"},{"name":"actual","type":"address","internalType":"address"}],"outputs":[{"name":"valid","type":"bool","internalType":"bool"}],"stateMutability":"pure"},{"type":"function","name":"isValid_deployRouter_deterministic","inputs":[{"name":"subjectLabel","type":"string","internalType":"string"},{"name":"expectedAddress","type":"address","internalType":"address"},{"name":"actualAddress","type":"address","internalType":"address"}],"outputs":[{"name":"valid","type":"bool","internalType":"bool"}],"stateMutability":"pure"},{"type":"function","name":"isValid_deployRouter_idempotent","inputs":[{"name":"router1","type":"address","internalType":"address"},{"name":"router2","type":"address","internalType":"address"}],"outputs":[{"name":"valid","type":"bool","internalType":"bool"}],"stateMutability":"pure"},{"type":"function","name":"isValid_deployRouter_uniqueParams","inputs":[{"name":"router1","type":"address","internalType":"address"},{"name":"router2","type":"address","internalType":"address"}],"outputs":[{"name":"valid","type":"bool","internalType":"bool"}],"stateMutability":"pure"},{"type":"function","name":"isValid_facetCut_hasSelectors","inputs":[{"name":"facetLabel","type":"string","internalType":"string"},{"name":"selectorCount","type":"uint256","internalType":"uint256"}],"outputs":[{"name":"valid","type":"bool","internalType":"bool"}],"stateMutability":"pure"},{"type":"function","name":"isValid_facetSize","inputs":[{"name":"facetLabel","type":"string","internalType":"string"},{"name":"facetAddress","type":"address","internalType":"address"}],"outputs":[{"name":"valid","type":"bool","internalType":"bool"}],"stateMutability":"view"},{"type":"error","name":"IndexOutOfBounds","inputs":[{"name":"length","type":"uint256","internalType":"uint256"},{"name":"invalidIndex","type":"uint256","internalType":"uint256"},{"name":"errorCode","type":"uint256","internalType":"uint256"}]}],"bytecode":{"object":"0x6139cf610034600b8282823980515f1a607314602857634e487b7160e01b5f525f60045260245ffd5b305f52607381538281f3fe73000000000000000000000000000000000000000030146080604052600436106100fa575f3560e01c806301e1bf25146100fe57806310fc2b5e1461011f57806314b8f0a71461014757806316698e561461017757806319f23d9d1461017f578063266d2dcd1461019257806327483abd146101a5578063323b6e4a146101b857806356c7dc74146101cb57806358b5677b146101ea57806375e0fb1c1461021457806394c11d7d146102275780639631fb8c1461023a578063a1fef0d31461024d578063ae49056814610255578063b42955be1461025d578063c75eab3914610270578063ce64099114610278578063f16e224714610297575b5f5ffd5b818015610109575f5ffd5b5061011d6101183660046125b5565b6102bc565b005b61013261012d366004612674565b610434565b60405190151581526020015b60405180910390f35b60408051808201909152600b81526a666163657443757473282960a81b60208201525b60405161013e91906126e3565b61016a610614565b61013261018d3660046126f5565b61063f565b6101326101a036600461272c565b61071e565b6101326101b33660046126f5565b610a5c565b6101326101c636600461278b565b610bf9565b8180156101d6575f5ffd5b506101326101e53660046127a6565b610e09565b60408051808201909152600e81526d6465706c6f79526f75746572282960901b602082015261016a565b610132610222366004612831565b610f43565b6101326102353660046126f5565b61119e565b61013261024836600461272c565b61133a565b61016a611639565b61016a611667565b61013261026b3660046128c0565b611695565b61016a6118ae565b818015610283575f5ffd5b5061011d6102923660046126f5565b6118d2565b604080518082019091526009815268666163657453697a6560b81b602082015261016a565b73__$6733481873bfefcce6891d74f60ba0cf99$__637965c5016102de611a68565b6040518263ffffffff1660e01b81526004016102fa919061292f565b5f6040518083038186803b158015610310575f5ffd5b505af4158015610322573d5f5f3e3d5ffd5b5050505073__$6733481873bfefcce6891d74f60ba0cf99$__63ce9f6069610348611a68565b6103528451611a92565b6040518363ffffffff1660e01b815260040161036f929190612952565b5f6040518083038186803b158015610385575f5ffd5b505af4158015610397573d5f5f3e3d5ffd5b505050506103c6827f38526692ef540bc2d509ed738725f4ed800fc6612e9cf009ba5cdf7ea8b12b3883611b96565b73__$6733481873bfefcce6891d74f60ba0cf99$__63738d4cc96103e8611a68565b6040518263ffffffff1660e01b8152600401610404919061292f565b5f6040518083038186803b15801561041a575f5ffd5b505af415801561042c573d5f5f3e3d5ffd5b505050505050565b5f73__$6733481873bfefcce6891d74f60ba0cf99$__637965c501610457611a68565b6040518263ffffffff1660e01b815260040161047391906129e3565b5f6040518083038186803b158015610489575f5ffd5b505af415801561049b573d5f5f3e3d5ffd5b505050505f82119050806105355773__$6733481873bfefcce6891d74f60ba0cf99$__63967677df6104cb611a68565b856040516020016104dc9190612a1d565b6040516020818303038152906040526040518363ffffffff1660e01b8152600401610508929190612a49565b5f6040518083038186803b15801561051e575f5ffd5b505af4158015610530573d5f5f3e3d5ffd5b505050505b73__$6733481873bfefcce6891d74f60ba0cf99$__6355444d40610557611a68565b85846040518463ffffffff1660e01b815260040161057793929190612ad2565b5f6040518083038186803b15801561058d575f5ffd5b505af415801561059f573d5f5f3e3d5ffd5b5050505073__$6733481873bfefcce6891d74f60ba0cf99$__63738d4cc96105c5611a68565b6040518263ffffffff1660e01b81526004016105e191906129e3565b5f6040518083038186803b1580156105f7575f5ffd5b505af4158015610609573d5f5f3e3d5ffd5b505050505b92915050565b6040805180820190915260118152706661636574496e7465726661636573282960781b602082015290565b60405163028a249b60e41b81525f90610717905f51602061394a5f395f51905f52906328a249b090610675908790600401612b1c565b5f60405180830381865afa15801561068f573d5f5f3e3d5ffd5b505050506040513d5f823e601f3d908101601f191682016040526106b69190810190612b30565b83856001600160a01b0316638d928af86040518163ffffffff1660e01b8152600401602060405180830381865afa1580156106f3573d5f5f3e3d5ffd5b505050506040513d601f19601f820116820180604052508101906102489190612ba4565b9392505050565b5f73__$6733481873bfefcce6891d74f60ba0cf99$__637965c501610741611a68565b6040518263ffffffff1660e01b815260040161075d9190612bfa565b5f6040518083038186803b158015610773575f5ffd5b505af4158015610785573d5f5f3e3d5ffd5b50505050816001600160a01b0316836001600160a01b03161490508061097f5773__$6733481873bfefcce6891d74f60ba0cf99$__63967677df6107c7611a68565b866040516020016107d89190612c1d565b6040516020818303038152906040526040518363ffffffff1660e01b8152600401610804929190612c49565b5f6040518083038186803b15801561081a575f5ffd5b505af415801561082c573d5f5f3e3d5ffd5b5050505073__$6733481873bfefcce6891d74f60ba0cf99$__63e3feae87610852611a68565b604051632b65311f60e11b81525f51602061394a5f395f51905f52906356ca623e90610882908990600401612b1c565b5f60405180830381865afa15801561089c573d5f5f3e3d5ffd5b505050506040513d5f823e601f3d908101601f191682016040526108c39190810190612b30565b604051632b65311f60e11b81525f51602061394a5f395f51905f52906356ca623e906108f3908990600401612b1c565b5f60405180830381865afa15801561090d573d5f5f3e3d5ffd5b505050506040513d5f823e601f3d908101601f191682016040526109349190810190612b30565b6040518463ffffffff1660e01b815260040161095293929190612cca565b5f6040518083038186803b158015610968575f5ffd5b505af415801561097a573d5f5f3e3d5ffd5b505050505b73__$6733481873bfefcce6891d74f60ba0cf99$__6355444d406109a1611a68565b836040518363ffffffff1660e01b81526004016109bf929190612d3e565b5f6040518083038186803b1580156109d5575f5ffd5b505af41580156109e7573d5f5f3e3d5ffd5b5050505073__$6733481873bfefcce6891d74f60ba0cf99$__63738d4cc9610a0d611a68565b6040518263ffffffff1660e01b8152600401610a299190612bfa565b5f6040518083038186803b158015610a3f575f5ffd5b505af4158015610a51573d5f5f3e3d5ffd5b505050509392505050565b5f73__$6733481873bfefcce6891d74f60ba0cf99$__637965c501610a7f611a68565b6040518263ffffffff1660e01b8152600401610a9b9190612ddd565b5f6040518083038186803b158015610ab1575f5ffd5b505af4158015610ac3573d5f5f3e3d5ffd5b50505050816001600160a01b0316836001600160a01b03161415905080610b4f5773__$6733481873bfefcce6891d74f60ba0cf99$__63967677df610b06611a68565b6040518263ffffffff1660e01b8152600401610b229190612e00565b5f6040518083038186803b158015610b38575f5ffd5b505af4158015610b4a573d5f5f3e3d5ffd5b505050505b73__$6733481873bfefcce6891d74f60ba0cf99$__6355444d40610b71611a68565b836040518363ffffffff1660e01b8152600401610b8f929190612ed0565b5f6040518083038186803b158015610ba5575f5ffd5b505af4158015610bb7573d5f5f3e3d5ffd5b5050505073__$6733481873bfefcce6891d74f60ba0cf99$__63738d4cc9610bdd611a68565b6040518263ffffffff1660e01b81526004016105e19190612ddd565b5f73__$6733481873bfefcce6891d74f60ba0cf99$__637965c501610c1c611a68565b6040518263ffffffff1660e01b8152600401610c389190612f5d565b5f6040518083038186803b158015610c4e575f5ffd5b505af4158015610c60573d5f5f3e3d5ffd5b505050505f610c7683638d928af860e01b611be0565b60405163028a249b60e41b8152909150610d2b905f51602061394a5f395f51905f52906328a249b090610cad908790600401612b1c565b5f60405180830381865afa158015610cc7573d5f5f3e3d5ffd5b505050506040513d5f823e601f3d908101601f19168201604052610cee9190810190612b30565b82856001600160a01b0316638d928af86040518163ffffffff1660e01b8152600401602060405180830381865afa1580156106f3573d5f5f3e3d5ffd5b915073__$6733481873bfefcce6891d74f60ba0cf99$__6355444d40610d4f611a68565b846040518363ffffffff1660e01b8152600401610d6d929190612f80565b5f6040518083038186803b158015610d83575f5ffd5b505af4158015610d95573d5f5f3e3d5ffd5b5050505073__$6733481873bfefcce6891d74f60ba0cf99$__63738d4cc9610dbb611a68565b6040518263ffffffff1660e01b8152600401610dd79190612f5d565b5f6040518083038186803b158015610ded575f5ffd5b505af4158015610dff573d5f5f3e3d5ffd5b5050505050919050565b5f73__$6733481873bfefcce6891d74f60ba0cf99$__637965c501610e2c611a68565b6040518263ffffffff1660e01b8152600401610e489190613011565b5f6040518083038186803b158015610e5e575f5ffd5b505af4158015610e70573d5f5f3e3d5ffd5b50505050610e978383610e8a610e84610614565b88611c20565b610e92611667565b611c54565b905073__$6733481873bfefcce6891d74f60ba0cf99$__6355444d40610ebb611a68565b836040518363ffffffff1660e01b8152600401610ed9929190613034565b5f6040518083038186803b158015610eef575f5ffd5b505af4158015610f01573d5f5f3e3d5ffd5b5050505073__$6733481873bfefcce6891d74f60ba0cf99$__63738d4cc9610f27611a68565b6040518263ffffffff1660e01b8152600401610a299190613011565b5f73__$6733481873bfefcce6891d74f60ba0cf99$__637965c501610f66611a68565b6040518263ffffffff1660e01b8152600401610f8291906130b7565b5f6040518083038186803b158015610f98575f5ffd5b505af4158015610faa573d5f5f3e3d5ffd5b50600193505f925050505b8251811015611098576110887f885cb69240a935d632d79c317109709ecfa91a80626ff3989d68f67f5b1dd12d5f1c6001600160a01b03166328a249b0858481518110611004576110046130da565b60200260200101516040518263ffffffff1660e01b81526004016110289190612b1c565b5f60405180830381865afa158015611042573d5f5f3e3d5ffd5b505050506040513d5f823e601f3d908101601f191682016040526110699190810190612b30565b84838151811061107b5761107b6130da565b6020026020010151611695565b611090575f91505b600101610fb5565b5073__$6733481873bfefcce6891d74f60ba0cf99$__6355444d406110bb611a68565b6110c58551611a92565b6040516020016110d591906130ee565b604051602081830303815290604052846040518463ffffffff1660e01b81526004016111039392919061311d565b5f6040518083038186803b158015611119575f5ffd5b505af415801561112b573d5f5f3e3d5ffd5b5050505073__$6733481873bfefcce6891d74f60ba0cf99$__63738d4cc9611151611a68565b6040518263ffffffff1660e01b815260040161116d91906130b7565b5f6040518083038186803b158015611183575f5ffd5b505af4158015611195573d5f5f3e3d5ffd5b50505050919050565b5f73__$6733481873bfefcce6891d74f60ba0cf99$__637965c5016111c1611a68565b6040518263ffffffff1660e01b81526004016111dd9190613170565b5f6040518083038186803b1580156111f3575f5ffd5b505af4158015611205573d5f5f3e3d5ffd5b50505050816001600160a01b0316836001600160a01b0316149050806112905773__$6733481873bfefcce6891d74f60ba0cf99$__63967677df611247611a68565b6040518263ffffffff1660e01b81526004016112639190613193565b5f6040518083038186803b158015611279575f5ffd5b505af415801561128b573d5f5f3e3d5ffd5b505050505b73__$6733481873bfefcce6891d74f60ba0cf99$__6355444d406112b2611a68565b836040518363ffffffff1660e01b81526004016112d0929190613249565b5f6040518083038186803b1580156112e6575f5ffd5b505af41580156112f8573d5f5f3e3d5ffd5b5050505073__$6733481873bfefcce6891d74f60ba0cf99$__63738d4cc961131e611a68565b6040518263ffffffff1660e01b81526004016105e19190613170565b5f73__$6733481873bfefcce6891d74f60ba0cf99$__637965c50161135d611a68565b6040518263ffffffff1660e01b815260040161137991906132de565b5f6040518083038186803b15801561138f575f5ffd5b505af41580156113a1573d5f5f3e3d5ffd5b50505050816001600160a01b0316836001600160a01b03161490508061158f5773__$6733481873bfefcce6891d74f60ba0cf99$__63967677df6113e3611a68565b6113ee610e846118ae565b6113f6611639565b6040518463ffffffff1660e01b815260040161141493929190613301565b5f6040518083038186803b15801561142a575f5ffd5b505af415801561143c573d5f5f3e3d5ffd5b5050505073__$6733481873bfefcce6891d74f60ba0cf99$__63e3feae87611462611a68565b604051632b65311f60e11b81525f51602061394a5f395f51905f52906356ca623e90611492908990600401612b1c565b5f60405180830381865afa1580156114ac573d5f5f3e3d5ffd5b505050506040513d5f823e601f3d908101601f191682016040526114d39190810190612b30565b604051632b65311f60e11b81525f51602061394a5f395f51905f52906356ca623e90611503908990600401612b1c565b5f60405180830381865afa15801561151d573d5f5f3e3d5ffd5b505050506040513d5f823e601f3d908101601f191682016040526115449190810190612b30565b6040518463ffffffff1660e01b81526004016115629392919061336c565b5f6040518083038186803b158015611578575f5ffd5b505af415801561158a573d5f5f3e3d5ffd5b505050505b73__$6733481873bfefcce6891d74f60ba0cf99$__6355444d406115b1611a68565b836040518363ffffffff1660e01b81526004016115cf9291906133b6565b5f6040518083038186803b1580156115e5575f5ffd5b505af41580156115f7573d5f5f3e3d5ffd5b5050505073__$6733481873bfefcce6891d74f60ba0cf99$__63738d4cc961161d611a68565b6040518263ffffffff1660e01b8152600401610a2991906132de565b604080518082019091526014815273726f75746572207661756c74206164647265737360601b602082015290565b604080518082019091526014815273726f7574657220696e746572666163652049447360601b602082015290565b5f73__$6733481873bfefcce6891d74f60ba0cf99$__637965c5016116b8611a68565b6040518263ffffffff1660e01b81526004016116d49190613422565b5f6040518083038186803b1580156116ea575f5ffd5b505af41580156116fc573d5f5f3e3d5ffd5b505050505f826001600160a01b03163b905061600081109150816117cf5773__$6733481873bfefcce6891d74f60ba0cf99$__63967677df61173c611a68565b8660405160200161174d9190613445565b60405160208183030381529060405261176585611a92565b6040516020016117759190613473565b6040516020818303038152906040526040518463ffffffff1660e01b81526004016117a2939291906134a3565b5f6040518083038186803b1580156117b8575f5ffd5b505af41580156117ca573d5f5f3e3d5ffd5b505050505b73__$6733481873bfefcce6891d74f60ba0cf99$__6355444d406117f1611a68565b86856040518463ffffffff1660e01b8152600401611811939291906134c6565b5f6040518083038186803b158015611827575f5ffd5b505af4158015611839573d5f5f3e3d5ffd5b5050505073__$6733481873bfefcce6891d74f60ba0cf99$__63738d4cc961185f611a68565b6040518263ffffffff1660e01b815260040161187b9190613422565b5f6040518083038186803b158015611891575f5ffd5b505af41580156118a3573d5f5f3e3d5ffd5b505050505092915050565b60408051808201909152600a8152696765745661756c74282960b01b602082015290565b73__$6733481873bfefcce6891d74f60ba0cf99$__637965c5016118f4611a68565b6040518263ffffffff1660e01b81526004016119109190613519565b5f6040518083038186803b158015611926575f5ffd5b505af4158015611938573d5f5f3e3d5ffd5b5050505073__$6733481873bfefcce6891d74f60ba0cf99$__63ce9f606961195e611a68565b604051632b65311f60e11b81525f51602061394a5f395f51905f52906356ca623e9061198e908790600401612b1c565b5f60405180830381865afa1580156119a8573d5f5f3e3d5ffd5b505050506040513d5f823e601f3d908101601f191682016040526119cf9190810190612b30565b6040518363ffffffff1660e01b81526004016119ec92919061353c565b5f6040518083038186803b158015611a02575f5ffd5b505af4158015611a14573d5f5f3e3d5ffd5b50505050611a2a82638d928af860e01b83611d5e565b73__$6733481873bfefcce6891d74f60ba0cf99$__63738d4cc9611a4c611a68565b6040518263ffffffff1660e01b81526004016104049190613519565b60408051808201909152601081526f2132b430bb34b7b92fa4a937baba32b960811b602082015290565b6060815f03611ab85750506040805180820190915260018152600360fc1b602082015290565b815f5b8115611ae15780611acb816135a7565b9150611ada9050600a836135d3565b9150611abb565b5f816001600160401b03811115611afa57611afa6124d0565b6040519080825280601f01601f191660200182016040528015611b24576020820181803683370190505b5090505b8415611b8e57611b396001836135e6565b9150611b46600a866135f9565b611b5190603061360c565b60f81b818381518110611b6657611b666130da565b60200101906001600160f81b03191690815f1a905350611b87600a866135d3565b9450611b28565b949350505050565b611bdb81611bac6001600160a01b038616611db1565b6001600160a01b0386165f908152602091825260408082206001600160e01b0319881683529092522090611e10565b505050565b5f611be9611e46565b6001600160a01b038085165f908152602092835260408082206001600160e01b031987168352909352919091205416905092915050565b6060611c2b83611e6a565b82604051602001611c3d92919061361f565b604051602081830303815290604052905092915050565b604051635777d9bd60e01b81525f9073__$6733481873bfefcce6891d74f60ba0cf99$__90635777d9bd90611c8d908890600401613677565b5f6040518083038186803b158015611ca3575f5ffd5b505af4158015611cb5573d5f5f3e3d5ffd5b5050604051635777d9bd60e01b815273__$6733481873bfefcce6891d74f60ba0cf99$__9250635777d9bd9150611cf09087906004016136b0565b5f6040518083038186803b158015611d06575f5ffd5b505af4158015611d18573d5f5f3e3d5ffd5b505050505f611d546040518060600160405280888152602001878152602001604051806040016040528088815260200187815250815250611e7d565b9695505050505050565b80611d67611e46565b6001600160a01b039485165f908152602091825260408082206001600160e01b0319969096168252949091529290922080546001600160a01b031916929093169190911790915550565b5f61060e60405180604001604052601781528060200176427974657334536574436f6d70617261746f725265706f60481b815250604051602001611df591906126e3565b60405160208183030381529060405280519060200120831890565b5f5b8151811015611bdb57611e3e83838381518110611e3157611e316130da565b6020026020010151611ea9565b600101611e12565b7f09caf678fe81b8fbc0cfd6aaae7dc55b01851089cfb2326af579dd12b4ff76c590565b606061060e611e77611a68565b83611f16565b5f5f611e90835f01518460200151611f2b565b905061071783604001518261216490919063ffffffff16565b611eb382826121ca565b611f12576001828101805491820181555f81815260208082206008850401805463ffffffff60079096166004026101000a958602191660e087901c959095029490941790935590546001600160e01b0319841682529184905260409020555b5050565b60608282604051602001611c3d9291906136e7565b611f606040518060c001604052805f151581526020015f81526020015f81526020015f81526020015f81526020015f81525090565b5f611f8f83604051602001611f75919061371a565b604051602081830303815290604052805160209091012090565b835160208401529050611fab84611fa5836121e8565b90611e10565b611fbe611fb7826121e8565b6001015490565b84511461206357604051635777d9bd60e01b815273__$6733481873bfefcce6891d74f60ba0cf99$__90635777d9bd90611ffc908790600401613766565b5f6040518083038186803b158015612012575f5ffd5b505af4158015612024573d5f5f3e3d5ffd5b5050855191505f9050612039611fb7846121e8565b90508082101561204b5781810361204f565b8082035b60808501525050825160a08301525061060e565b61207083611fa5836121fb565b61207c611fb7826121fb565b604083015261208d611fb7826121e8565b60608301525f5b6120a0611fb7836121e8565b8110156120ec576120cc6120bd826120b7856121e8565b9061220e565b6120c6846121fb565b906121ca565b6120e457608083018051906120e0826135a7565b9052505b600101612094565b505f5b6120fb611fb7836121fb565b81101561213b5761211b612112826120b7856121fb565b6120c6846121e8565b6121335760a0830180519061212f826135a7565b9052505b6001016120ef565b5061215d60405180606001604052806030815260200161396a6030913961225e565b5092915050565b60408201516020830151600191101561218357505f612183838361226a565b826060015183604001511461219e57505f61219e83836122b6565b6080830151156121b457505f6121b483836122d1565b60a08301511561060e57505f61060e83836122fa565b6001600160e01b0319165f9081526020919091526040902054151590565b5f6121f282611db1565b60010192915050565b5f61220582611db1565b60030192915050565b60018201545f9061221f9083612323565b50826001018281548110612235576122356130da565b905f5260205f2090600891828204019190066004029054906101000a900460e01b905092915050565b61226781612362565b50565b611f12815f015161228d8460400151856020015161228891906135e6565b611a92565b6020808501516040516122a2949392016137f6565b60405160208183030381529060405261225e565b611f1282606001518360400151835f015184602001516123a5565b611f12815f01516122e58460800151611a92565b6020808501516040516122a294939201613852565b611f12815f015161230e8460a00151611a92565b6020808501516040516122a2949392016138a1565b5f81831161235957604051635400feb960e01b815260048101849052602481018390526032604482015260640160405180910390fd5b50600192915050565b6122678160405160240161237691906126e3565b60408051601f198184030181529190526020810180516001600160e01b031663104c13eb60e21b179052612429565b612423826123b66122888688612432565b8686116123e9576040518060400160405280600e81526020016d0102727aa102222a1a620a922a2160951b81525061240f565b6040518060400160405280600c81526020016b0102aa722ac2822a1aa22a2160a51b8152505b846040516020016122a294939291906138ee565b50505050565b61226781612457565b5f5f5f61243f8585612476565b909250905061244e82826135e6565b95945050505050565b5f6a636f6e736f6c652e6c6f6790505f5f835160208501845afa505050565b5f5f828403612483575f5ffd5b61248d84846124a7565b915083821461249c578361249e565b825b90509250929050565b5f61071783835f818311828418028318610717565b6001600160a01b0381168114612267575f5ffd5b634e487b7160e01b5f52604160045260245ffd5b604051601f8201601f191681016001600160401b038111828210171561250c5761250c6124d0565b604052919050565b5f6001600160401b0382111561252c5761252c6124d0565b5060051b60200190565b5f82601f830112612545575f5ffd5b813561255861255382612514565b6124e4565b8082825260208201915060208360051b860101925085831115612579575f5ffd5b602085015b838110156125ab5780356001600160e01b03198116811461259d575f5ffd5b83526020928301920161257e565b5095945050505050565b5f5f604083850312156125c6575f5ffd5b82356125d1816124bc565b915060208301356001600160401b038111156125eb575f5ffd5b6125f785828601612536565b9150509250929050565b5f6001600160401b03821115612619576126196124d0565b50601f01601f191660200190565b5f82601f830112612636575f5ffd5b813561264461255382612601565b818152846020838601011115612658575f5ffd5b816020850160208301375f918101602001919091529392505050565b5f5f60408385031215612685575f5ffd5b82356001600160401b0381111561269a575f5ffd5b6126a685828601612627565b95602094909401359450505050565b5f81518084528060208401602086015e5f602082860101526020601f19601f83011685010191505092915050565b602081525f61071760208301846126b5565b5f5f60408385031215612706575f5ffd5b8235612711816124bc565b91506020830135612721816124bc565b809150509250929050565b5f5f5f6060848603121561273e575f5ffd5b83356001600160401b03811115612753575f5ffd5b61275f86828701612627565b9350506020840135612770816124bc565b91506040840135612780816124bc565b809150509250925092565b5f6020828403121561279b575f5ffd5b8135610717816124bc565b5f5f5f606084860312156127b8575f5ffd5b83356001600160401b038111156127cd575f5ffd5b6127d986828701612627565b93505060208401356001600160401b038111156127f4575f5ffd5b61280086828701612536565b92505060408401356001600160401b0381111561281b575f5ffd5b61282786828701612536565b9150509250925092565b5f60208284031215612841575f5ffd5b81356001600160401b03811115612856575f5ffd5b8201601f81018413612866575f5ffd5b803561287461255382612514565b8082825260208201915060208360051b850101925086831115612895575f5ffd5b6020840193505b82841015611d545783356128af816124bc565b82526020938401939091019061289c565b5f5f604083850312156128d1575f5ffd5b82356001600160401b038111156128e6575f5ffd5b6128f285828601612627565b9250506020830135612721816124bc565b60198152786578706563745f49526f757465725f696e746572666163657360381b602082015260400190565b604081525f61294160408301846126b5565b8281036020840152611b8e81612903565b608081525f61296460808301856126b5565b828103602084015261297581612903565b9050828103806040850152600f82526e1a5b9d195c999858d94818dbdd5b9d608a1b60208301526040810160608501525061244e60408201856126b5565b601d81527f697356616c69645f66616365744375745f68617353656c6563746f7273000000602082015260400190565b604081525f6129f560408301846126b5565b8281036020840152611b8e816129b3565b5f81518060208401855e5f93019283525090919050565b5f612a288284612a06565b7020686173206e6f2073656c6563746f727360781b81526011019392505050565b608081525f612a5b60808301856126b5565b8281036020840152612a6c816129b3565b90508281036040840152612a8081856126b5565b838103606094850152602a81527f66616365742063757473206d7573742068617665206174206c65617374206f6e602082015269329039b2b632b1ba37b960b11b604082015292909201949350505050565b608081525f612ae460808301866126b5565b8281036020840152612af5816129b3565b90508281036040840152612b0981866126b5565b9150508215156060830152949350505050565b6001600160a01b0391909116815260200190565b5f60208284031215612b40575f5ffd5b81516001600160401b03811115612b55575f5ffd5b8201601f81018413612b65575f5ffd5b8051612b7361255382612601565b818152856020838501011115612b87575f5ffd5b8160208401602083015e5f91810160200191909152949350505050565b5f60208284031215612bb4575f5ffd5b8151610717816124bc565b602281527f697356616c69645f6465706c6f79526f757465725f64657465726d696e697374602082015261696360f01b604082015260600190565b604081525f612c0c60408301846126b5565b8281036020840152611b8e81612bbf565b5f612c288284612a06565b70040c2c8c8e4cae6e640dad2e6dac2e8c6d607b1b81526011019392505050565b608081525f612c5b60808301856126b5565b8281036020840152612c6c81612bbf565b90508281036040840152612c8081856126b5565b838103606094850152602281527f6465706c6f796d656e742073686f756c642062652064657465726d696e697374602082015261696360f01b604082015292909201949350505050565b60a081525f612cdc60a08301866126b5565b8281036020840152612ced81612bbf565b9050828103806040850152600e82526d726f75746572206164647265737360901b602083015260408101606085015250612d2a60408201866126b5565b90508281036080840152611d5481856126b5565b608081525f612d5060808301856126b5565b8281036020840152612d6181612bbf565b90508281036040840152601581527464657465726d696e6973746963206164647265737360581b60208201526040810191505082151560608301529392505050565b602181527f697356616c69645f6465706c6f79526f757465725f756e69717565506172616d6020820152607360f81b604082015260600190565b604081525f612def60408301846126b5565b8281036020840152611b8e81612da3565b608081525f612e1260808301846126b5565b8281036020840152612e2381612da3565b9050828103806040850152602682527f646966666572656e7420706172616d732070726f64756365642073616d65206160208301526564647265737360d01b604083015260608101606085015250603c60608201527f646966666572656e74206465706c6f796d656e7420617267732073686f756c6460808201527b2070726f6475636520646966666572656e742061646472657373657360201b60a082015260c0810191505092915050565b608081525f612ee260808301856126b5565b8281036020840152612ef381612da3565b90508281036040840152600d81526c756e6971756520706172616d7360981b60208201526040810191505082151560608301529392505050565b601f81527f68617356616c69645f49526f75746572436f6d6d6f6e5f6765745661756c7400602082015260400190565b604081525f612f6f60408301846126b5565b8281036020840152611b8e81612f2d565b608081525f612f9260808301856126b5565b8281036020840152612fa381612f2d565b9050828103604084015260138152723b30bab63a1031b7b73334b3bab930ba34b7b760691b60208201526040810191505082151560608301529392505050565b601b81527a61726556616c69645f49526f757465725f696e746572666163657360281b602082015260400190565b604081525f61302360408301846126b5565b8281036020840152611b8e81612fe3565b608081525f61304660808301856126b5565b828103602084015261305781612fe3565b90508281036040840152600d81526c696e746572666163652049447360981b60208201526040810191505082151560608301529392505050565b601381527261726556616c69645f666163657453697a657360681b602082015260400190565b604081525f6130c960408301846126b5565b8281036020840152611b8e81613091565b634e487b7160e01b5f52603260045260245ffd5b63030b636160e51b81525f6131066004830184612a06565b662066616365747360c81b81526007019392505050565b608081525f61312f60808301866126b5565b8281036020840152612af581613091565b601f81527f697356616c69645f6465706c6f79526f757465725f6964656d706f74656e7400602082015260400190565b604081525f61318260408301846126b5565b8281036020840152611b8e81613140565b608081525f6131a560808301846126b5565b82810360208401526131b681613140565b9050828103806040850152602782527f72656465706c6f796d656e742072657475726e656420646966666572656e74206020830152666164647265737360c81b604083015260608101606085015250602160608201527f6465706c6f79526f757465722073686f756c64206265206964656d706f74656e6080820152601d60fa1b60a082015260c0810191505092915050565b608081525f61325b60808301856126b5565b828103602084015261326c81613140565b9050828103604084015260158152741a59195b5c1bdd195b9d0819195c1b1bde5b595b9d605a1b60208201526040810191505082151560608301529392505050565b601e81527f697356616c69645f49526f75746572436f6d6d6f6e5f6765745661756c740000602082015260400190565b604081525f6132f060408301846126b5565b8281036020840152611b8e816132ae565b608081525f61331360808301866126b5565b8281036020840152613324816132ae565b9050828103604084015261333881866126b5565b90508281036060840152611d5481856126b5565b600d81526c7661756c74206164647265737360981b602082015260400190565b60a081525f61337e60a08301866126b5565b828103602084015261338f816132ae565b905082810360408401526133a28161334c565b90508281036060840152612d2a81866126b5565b608081525f6133c860808301856126b5565b82810360208401526133d9816132ae565b905082810360408401526133ec8161334c565b91505082151560608301529392505050565b6011815270697356616c69645f666163657453697a6560781b602082015260400190565b604081525f61343460408301846126b5565b8281036020840152611b8e816133fe565b5f6134508284612a06565b7208195e18d959591cc80c8d12d0881b1a5b5a5d606a1b81526013019392505050565b65039b4bd329d160d51b81525f61348d6006830184612a06565b6520627974657360d01b81526006019392505050565b608081525f6134b560808301866126b5565b8281036020840152613324816133fe565b608081525f6134d860808301866126b5565b8281036020840152612af5816133fe565b601d81527f6578706563745f49526f75746572436f6d6d6f6e5f6765745661756c74000000602082015260400190565b604081525f61352b60408301846126b5565b8281036020840152611b8e816134e9565b608081525f61354e60808301856126b5565b828103602084015261355f816134e9565b905082810380604085015260058252641d985d5b1d60da1b60208301526040810160608501525061244e60408201856126b5565b634e487b7160e01b5f52601160045260245ffd5b5f600182016135b8576135b8613593565b5060010190565b634e487b7160e01b5f52601260045260245ffd5b5f826135e1576135e16135bf565b500490565b8181038181111561060e5761060e613593565b5f82613607576136076135bf565b500690565b8082018082111561060e5761060e613593565b5f611b8e61362d8386612a06565b84612a06565b5f8151808452602084019350602083015f5b8281101561366d5781516001600160e01b031916865260209586019590910190600101613645565b5093949350505050565b60408152601060408201526f22bc3832b1ba32b2103b30b63ab2b99d60811b6060820152608060208201525f6107176080830184613633565b60408152600e60408201526d20b1ba3ab0b6103b30b63ab2b99d60911b6060820152608060208201525f6107176080830184613633565b5f6136f28285612a06565b601d60f91b81526137066001820185612a06565b611d1d60f11b815260020195945050505050565b602080825282518282018190525f918401906040840190835b8181101561375b5783516001600160e01b031916835260209384019390920191600101613733565b509095945050505050565b60408152605b60408201527f427974657334536574206578706563746174696f6e73204d555354204e4f542060608201527f636f6e7461696e206475706c6963617465732e2050726f76696465206578706560808201527a31ba30ba34b7b7399030b9902324a929aa1030b933bab6b2b73a1760291b60a082015260c060208201525f61071760c0830184613633565b5f6138018286612a06565b690103232b1b630b932b9960b51b815261381e600a820186612a06565b90506a010323ab83634b1b0ba32960ad1b815261383e600b820185612a06565b601760f91b81526001019695505050505050565b5f61385d8286612a06565b710103237b2b9902727aa103232b1b630b932960751b81526138826012820186612a06565b90506901032bc3832b1ba32b2160b51b815261383e600a820185612a06565b5f6138ac8286612a06565b6d0102227a2a9903232b1b630b932960951b81526138cd600e820186612a06565b90506b0102aa722ac2822a1aa22a2160a51b815261383e600c820185612a06565b5f6138f98287612a06565b750103232b1b630b930ba34b7b71036b4b9b6b0ba31b4160551b815261393461392e6139286016840189612a06565b87612a06565b85612a06565b601760f91b815260010197965050505050505056fe0000000000000000000000007109709ecfa91a80626ff3989d68f67f5b1dd12d427974657334536574436f6d70617261746f723a5f636f6d706172653a3a2045786974696e672066756e6374696f6e2ea26469706673582212204f1468ec2aa35a1564a195afc7dcfbdafd26d2923ad95fc90d425702f3a95dab64736f6c634300081e0033","linkReferences":{"contracts/utils/vm/foundry/tools/betterconsole.sol":{"betterconsole":[{"start":754,"length":20},{"start":860,"length":20},{"start":1020,"length":20},{"start":1131,"length":20},{"start":1247,"length":20},{"start":1387,"length":20},{"start":1497,"length":20},{"start":1877,"length":20},{"start":2011,"length":20},{"start":2150,"length":20},{"start":2485,"length":20},{"start":2593,"length":20},{"start":2707,"length":20},{"start":2842,"length":20},{"start":2949,"length":20},{"start":3057,"length":20},{"start":3120,"length":20},{"start":3427,"length":20},{"start":3535,"length":20},{"start":3648,"length":20},{"start":3791,"length":20},{"start":3899,"length":20},{"start":3962,"length":20},{"start":4303,"length":20},{"start":4453,"length":20},{"start":4565,"length":20},{"start":4699,"length":20},{"start":4806,"length":20},{"start":4914,"length":20},{"start":4977,"length":20},{"start":5111,"length":20},{"start":5238,"length":20},{"start":5573,"length":20},{"start":5681,"length":20},{"start":5836,"length":20},{"start":5968,"length":20},{"start":6149,"length":20},{"start":6259,"length":20},{"start":6408,"length":20},{"start":6514,"length":20},{"start":6752,"length":20},{"start":7321,"length":20},{"start":7418,"length":20},{"start":8200,"length":20}]}}},"methodIdentifiers":{"areValid_IRouter_interfaces(string,bytes4[],bytes4[])":"56c7dc74","areValid_facetSizes(address[])":"75e0fb1c","errSuffix_IRouterCommon_getVault()":"a1fef0d3","errSuffix_IRouter_interfaces()":"ae490568","expect_IRouterCommon_getVault(address,address)":"ce640991","expect_IRouter_interfaces(address,bytes4[])":"01e1bf25","funcSig_IRouterCommon_getVault()":"c75eab39","funcSig_IRouter_interfaces()":"16698e56","funcSig_deployRouter()":"58b5677b","funcSig_facetCuts()":"14b8f0a7","funcSig_facetSize()":"f16e2247","hasValid_IRouterCommon_getVault(IRouterCommon)":"323b6e4a","isValid_IRouterCommon_getVault(IRouterCommon,address)":"19f23d9d","isValid_IRouterCommon_getVault(string,address,address)":"9631fb8c","isValid_deployRouter_deterministic(string,address,address)":"266d2dcd","isValid_deployRouter_idempotent(address,address)":"94c11d7d","isValid_deployRouter_uniqueParams(address,address)":"27483abd","isValid_facetCut_hasSelectors(string,uint256)":"10fc2b5e","isValid_facetSize(string,address)":"b42955be"},"id":925}