{"abi":[{"type":"constructor","inputs":[{"name":"_dss","type":"tuple","internalType":"struct DssInstance","components":[{"name":"chainlog","type":"address","internalType":"contract ChainlogAbstract"},{"name":"vat","type":"address","internalType":"contract VatAbstract"},{"name":"daiJoin","type":"address","internalType":"contract DaiJoinAbstract"},{"name":"dai","type":"address","internalType":"contract DaiAbstract"},{"name":"vow","type":"address","internalType":"contract VowAbstract"},{"name":"dog","type":"address","internalType":"contract DogAbstract"},{"name":"pot","type":"address","internalType":"contract PotAbstract"},{"name":"jug","type":"address","internalType":"contract JugAbstract"},{"name":"spotter","type":"address","internalType":"contract SpotAbstract"},{"name":"end","type":"address","internalType":"contract EndAbstract"},{"name":"cure","type":"address","internalType":"contract CureAbstract"},{"name":"flap","type":"address","internalType":"contract FlapAbstract"},{"name":"flop","type":"address","internalType":"contract FlopAbstract"},{"name":"esm","type":"address","internalType":"contract ESMAbstract"}]}],"stateMutability":"nonpayable"},{"type":"function","name":"createAuction","inputs":[{"name":"join","type":"address","internalType":"contract GemJoinAbstract"},{"name":"amount","type":"uint256","internalType":"uint256"}],"outputs":[],"stateMutability":"nonpayable"}],"bytecode":{"object":"0x608060405234801561000f575f5ffd5b506040516114e73803806114e783398101604081905261002e916101ab565b80515f80546001600160a01b03199081166001600160a01b0393841617909155602083015160018054831691841691909117905560408301516002805483169184169190911790556060830151600380548316918416919091179055608083015160048054831691841691909117905560a083015160058054831691841691909117905560c083015160068054831691841691909117905560e0830151600780548316918416919091179055610100830151600880548316918416919091179055610120830151600980548316918416919091179055610140830151600a80548316918416919091179055610160830151600b80548316918416919091179055610180830151600c805483169184169190911790556101a090920151600d805490931691161790556102c1565b6040516101c081016001600160401b038111828210171561018a57634e487b7160e01b5f52604160045260245ffd5b60405290565b80516001600160a01b03811681146101a6575f5ffd5b919050565b5f6101c08284031280156101bd575f5ffd5b506101c661015b565b6101cf83610190565b81526101dd60208401610190565b60208201526101ee60408401610190565b60408201526101ff60608401610190565b606082015261021060808401610190565b608082015261022160a08401610190565b60a082015261023260c08401610190565b60c082015261024360e08401610190565b60e08201526102556101008401610190565b6101008201526102686101208401610190565b61012082015261027b6101408401610190565b61014082015261028e6101608401610190565b6101608201526102a16101808401610190565b6101808201526102b46101a08401610190565b6101a08201529392505050565b611219806102ce5f395ff3fe608060405234801561000f575f5ffd5b5060043610610029575f3560e01c8063f7e882981461002d575b5f5ffd5b61004061003b366004610f54565b610042565b005b5f826001600160a01b0316637bd2bea76040518163ffffffff1660e01b8152600401602060405180830381865afa15801561007f573d5f5f3e3d5ffd5b505050506040513d601f19601f820116820180604052508101906100a39190610f7e565b90505f836001600160a01b031663c5ce281e6040518163ffffffff1660e01b8152600401602060405180830381865afa1580156100e2573d5f5f3e3d5ffd5b505050506040513d601f19601f820116820180604052508101906101069190610fa0565b90505f826001600160a01b03166370a08231306040518263ffffffff1660e01b81526004016101359190610fb7565b602060405180830381865afa158015610150573d5f5f3e3d5ffd5b505050506040513d601f19601f820116820180604052508101906101749190610fa0565b905061018a6001600160a01b03841630866106cb565b604051636eb1769f60e11b81523060048201526001600160a01b0386811660248301525f919085169063dd62ed3e90604401602060405180830381865afa1580156101d7573d5f5f3e3d5ffd5b505050506040513d601f19601f820116820180604052508101906101fb9190610fa0565b60405163095ea7b360e01b81529091506001600160a01b0385169063095ea7b39061022c9089908990600401610fcb565b6020604051808303815f875af1158015610248573d5f5f3e3d5ffd5b505050506040513d601f19601f8201168201806040525081019061026c9190610fe4565b50604051633b4da69f60e01b81526001600160a01b03871690633b4da69f9061029b9030908990600401610fcb565b5f604051808303815f87803b1580156102b2575f5ffd5b505af11580156102c4573d5f5f3e3d5ffd5b506102dd925050506001600160a01b03851630846106cb565b60405163095ea7b360e01b81526001600160a01b0385169063095ea7b39061030b9089908590600401610fcb565b6020604051808303815f875af1158015610327573d5f5f3e3d5ffd5b505050506040513d601f19601f8201168201806040525081019061034b9190610fe4565b50600154604051636cb1c69b60e11b8152600481018590525f9182916001600160a01b039091169063d9638d369060240160a060405180830381865afa158015610397573d5f5f3e3d5ffd5b505050506040513d601f19601f820116820180604052508101906103bb9190611003565b505092509250505f8288836103d09190611053565b6103da9190611070565b90505f876001600160a01b031663313ce5676040518163ffffffff1660e01b8152600401602060405180830381865afa158015610419573d5f5f3e3d5ffd5b505050506040513d601f19601f8201168201806040525081019061043d9190610fa0565b61044890601261108f565b61045390600a611185565b61045d908a611053565b600154604051637608870360e01b8152600481018a905230602482018190526044820181905260648201526084810183905260a481018590529192506001600160a01b03169063760887039060c4015f604051808303815f87803b1580156104c3575f5ffd5b505af11580156104d5573d5f5f3e3d5ffd5b505060015460405163bf353dbb60e01b81525f93506001600160a01b03909116915063bf353dbb9061050b903090600401610fb7565b602060405180830381865afa158015610526573d5f5f3e3d5ffd5b505050506040513d601f19601f8201168201806040525081019061054a9190610fa0565b60018054919250610566916001600160a01b03169030906106db565b6001546001600160a01b0316631a0b287e89610583600288611070565b6040518363ffffffff1660e01b81526004016105a0929190611190565b5f604051808303815f87803b1580156105b7575f5ffd5b505af11580156105c9573d5f5f3e3d5ffd5b5050600554604051631db3312160e31b8152600481018c9052306024820181905260448201526001600160a01b03909116925063ed99890891506064016020604051808303815f875af1158015610622573d5f5f3e3d5ffd5b505050506040513d601f19601f820116820180604052508101906106469190610fa0565b50600154604051630d05943f60e11b81526001600160a01b0390911690631a0b287e90610679908b908890600401611190565b5f604051808303815f87803b158015610690575f5ffd5b505af11580156106a2573d5f5f3e3d5ffd5b50506001546106be92506001600160a01b0316905030836106db565b5050505050505050505050565b6106d68383836106e6565b505050565b6106d6838383610c20565b6040516370a0823160e01b815281906001600160a01b038516906370a0823190610714908690600401610fb7565b602060405180830381865afa15801561072f573d5f5f3e3d5ffd5b505050506040513d601f19601f820116820180604052508101906107539190610fa0565b0361075d57505050565b5f5b60c8811015610bda575f610771610f25565b6001600160a01b031663667f9d70868685604051602001610793929190610fcb565b604051602081830303815290604052805190602001206040518363ffffffff1660e01b81526004016107c6929190610fcb565b602060405180830381865afa1580156107e1573d5f5f3e3d5ffd5b505050506040513d601f19601f820116820180604052508101906108059190610fa0565b905061080f610f25565b6001600160a01b03166370ca10bb868685604051602001610831929190610fcb565b60408051601f198184030181529082905280516020909101206001600160e01b031960e085901b16825261086a929188906004016111ab565b5f604051808303815f87803b158015610881575f5ffd5b505af1158015610893573d5f5f3e3d5ffd5b50506040516370a0823160e01b81528592506001600160a01b03881691506370a08231906108c5908890600401610fb7565b602060405180830381865afa1580156108e0573d5f5f3e3d5ffd5b505050506040513d601f19601f820116820180604052508101906109049190610fa0565b03610910575050505050565b610918610f25565b6001600160a01b03166370ca10bb86868560405160200161093a929190610fcb565b60405160208183030381529060405280519060200120846040518463ffffffff1660e01b815260040161096f939291906111ab565b5f604051808303815f87803b158015610986575f5ffd5b505af1158015610998573d5f5f3e3d5ffd5b50505050505f6109a6610f25565b6001600160a01b031663667f9d708684876040516020016109c89291906111cc565b604051602081830303815290604052805190602001206040518363ffffffff1660e01b81526004016109fb929190610fcb565b602060405180830381865afa158015610a16573d5f5f3e3d5ffd5b505050506040513d601f19601f82011682018060405250810190610a3a9190610fa0565b9050610a44610f25565b6001600160a01b03166370ca10bb868487604051602001610a669291906111cc565b60408051601f198184030181529082905280516020909101206001600160e01b031960e085901b168252610a9f929188906004016111ab565b5f604051808303815f87803b158015610ab6575f5ffd5b505af1158015610ac8573d5f5f3e3d5ffd5b50506040516370a0823160e01b81528592506001600160a01b03881691506370a0823190610afa908890600401610fb7565b602060405180830381865afa158015610b15573d5f5f3e3d5ffd5b505050506040513d601f19601f82011682018060405250810190610b399190610fa0565b03610b45575050505050565b610b4d610f25565b6001600160a01b03166370ca10bb868487604051602001610b6f9291906111cc565b60405160208183030381529060405280519060200120846040518463ffffffff1660e01b8152600401610ba4939291906111ab565b5f604051808303815f87803b158015610bbb575f5ffd5b505af1158015610bcd573d5f5f3e3d5ffd5b505050505060010161075f565b5060405162461bcd60e51b8152602060048201526015602482015274436f756c64206e6f74206769766520746f6b656e7360581b60448201526064015b60405180910390fd5b60405163bf353dbb60e01b815281906001600160a01b0385169063bf353dbb90610c4e908690600401610fb7565b602060405180830381865afa158015610c69573d5f5f3e3d5ffd5b505050506040513d601f19601f82011682018060405250810190610c8d9190610fa0565b03610c9757505050565b5f5b6064811215610edf575f610cab610f25565b6001600160a01b031663667f9d70868685604051602001610ccd929190610fcb565b604051602081830303815290604052805190602001206040518363ffffffff1660e01b8152600401610d00929190610fcb565b602060405180830381865afa158015610d1b573d5f5f3e3d5ffd5b505050506040513d601f19601f82011682018060405250810190610d3f9190610fa0565b9050610d49610f25565b6001600160a01b03166370ca10bb868685604051602001610d6b929190610fcb565b60408051601f198184030181529082905280516020909101206001600160e01b031960e085901b168252610da4929188906004016111ab565b5f604051808303815f87803b158015610dbb575f5ffd5b505af1158015610dcd573d5f5f3e3d5ffd5b505060405163bf353dbb60e01b81528592506001600160a01b038816915063bf353dbb90610dff908890600401610fb7565b602060405180830381865afa158015610e1a573d5f5f3e3d5ffd5b505050506040513d601f19601f82011682018060405250810190610e3e9190610fa0565b03610e4a575050505050565b610e52610f25565b6001600160a01b03166370ca10bb868685604051602001610e74929190610fcb565b60405160208183030381529060405280519060200120846040518463ffffffff1660e01b8152600401610ea9939291906111ab565b5f604051808303815f87803b158015610ec0575f5ffd5b505af1158015610ed2573d5f5f3e3d5ffd5b5050505050600101610c99565b5060405162461bcd60e51b815260206004820152601a602482015279436f756c64206e6f74206769766520617574682061636365737360301b6044820152606401610c17565b737109709ecfa91a80626ff3989d68f67f5b1dd12d90565b6001600160a01b0381168114610f51575f5ffd5b50565b5f5f60408385031215610f65575f5ffd5b8235610f7081610f3d565b946020939093013593505050565b5f60208284031215610f8e575f5ffd5b8151610f9981610f3d565b9392505050565b5f60208284031215610fb0575f5ffd5b5051919050565b6001600160a01b0391909116815260200190565b6001600160a01b03929092168252602082015260400190565b5f60208284031215610ff4575f5ffd5b81518015158114610f99575f5ffd5b5f5f5f5f5f60a08688031215611017575f5ffd5b5050835160208501516040860151606087015160809097015192989197509594509092509050565b634e487b7160e01b5f52601160045260245ffd5b808202811582820484141761106a5761106a61103f565b92915050565b5f8261108a57634e487b7160e01b5f52601260045260245ffd5b500490565b8181038181111561106a5761106a61103f565b6001815b60018411156110dd578085048111156110c1576110c161103f565b60018416156110cf57908102905b60019390931c9280026110a6565b935093915050565b5f826110f35750600161106a565b816110ff57505f61106a565b8160018114611115576002811461111f5761113b565b600191505061106a565b60ff8411156111305761113061103f565b50506001821b61106a565b5060208310610133831016604e8410600b841016171561115e575081810a61106a565b61116a5f1984846110a2565b805f190482111561117d5761117d61103f565b029392505050565b5f610f9983836110e5565b918252631cdc1bdd60e21b6020830152604082015260600190565b6001600160a01b039390931683526020830191909152604082015260600190565b9182526001600160a01b031660208201526040019056fea264697066735822122089e08c1d0916d3b27a3123f0183611da87896f88af1b787323395eaf29c6955e64736f6c634300081e0033","linkReferences":{}},"methodIdentifiers":{"createAuction(address,uint256)":"f7e88298"},"id":761}