{"abi":[{"type":"function","name":"facetFuncs","inputs":[],"outputs":[{"name":"facetFuncs_","type":"bytes4[]","internalType":"bytes4[]"}],"stateMutability":"pure"},{"type":"function","name":"facetInterfaces","inputs":[],"outputs":[{"name":"facetInterfaces_","type":"bytes4[]","internalType":"bytes4[]"}],"stateMutability":"pure"},{"type":"function","name":"facetMetadata","inputs":[],"outputs":[{"name":"name_","type":"string","internalType":"string"},{"name":"interfaces","type":"bytes4[]","internalType":"bytes4[]"},{"name":"functions","type":"bytes4[]","internalType":"bytes4[]"}],"stateMutability":"pure"},{"type":"function","name":"facetName","inputs":[],"outputs":[{"name":"name","type":"string","internalType":"string"}],"stateMutability":"pure"},{"type":"function","name":"func0","inputs":[],"outputs":[],"stateMutability":"nonpayable"},{"type":"function","name":"func1","inputs":[],"outputs":[],"stateMutability":"nonpayable"},{"type":"function","name":"func2","inputs":[],"outputs":[],"stateMutability":"nonpayable"}],"bytecode":{"object":"0x6080604052348015600e575f5ffd5b506103498061001c5f395ff3fe608060405234801561000f575f5ffd5b506004361061006b575f3560e01c80632ea808261461006f578063574a4cff1461008d5780635b6f4d011461009557806374135154146100aa578063b1ade4db146100aa578063f10d7a75146100ac578063fb01fd94146100aa575b5f5ffd5b6100776100c3565b6040516100849190610264565b60405180910390f35b61007761011b565b61009d6101c5565b60405161008491906102ab565b005b6100b46101f8565b604051610084939291906102bd565b60408051600180825281830190925260609160208083019080368337019050509050633ebf481b60e01b815f815181106100ff576100ff6102ff565b6001600160e01b03199092166020928302919091019091015290565b6040805160038082526080820190925260609160208201838036833701905050905063fb01fd9460e01b815f81518110610157576101576102ff565b6001600160e01b0319909216602092830291909101909101528051631d04d45560e21b908290600190811061018e5761018e6102ff565b6001600160e01b031990921660209283029190910190910152805163b1ade4db60e01b90829060029081106100ff576100ff6102ff565b60408051808201909152601981527810995a185d9a5bdc97d4dd1d5897d2519858d95d17d1dbdbd9603a1b602082015290565b60608060606102056101c5565b925061020f6100c3565b915061021961011b565b9050909192565b5f8151808452602084019350602083015f5b8281101561025a5781516001600160e01b031916865260209586019590910190600101610232565b5093949350505050565b602081525f6102766020830184610220565b9392505050565b5f81518084528060208401602086015e5f602082860101526020601f19601f83011685010191505092915050565b602081525f610276602083018461027d565b606081525f6102cf606083018661027d565b82810360208401526102e18186610220565b905082810360408401526102f58185610220565b9695505050505050565b634e487b7160e01b5f52603260045260245ffdfea2646970667358221220058d7d4f00cf45182688e4fcbc1c0b9a2565c10aa7197ab217501c215b2c13d564736f6c634300081e0033","linkReferences":{}},"methodIdentifiers":{"facetFuncs()":"574a4cff","facetInterfaces()":"2ea80826","facetMetadata()":"f10d7a75","facetName()":"5b6f4d01","func0()":"fb01fd94","func1()":"74135154","func2()":"b1ade4db"},"id":937}