{"abi":[{"type":"constructor","inputs":[{"name":"vat_","type":"address","internalType":"address"}],"stateMutability":"nonpayable"},{"type":"function","name":"Dirt","inputs":[],"outputs":[{"name":"","type":"uint256","internalType":"uint256"}],"stateMutability":"view"},{"type":"function","name":"Hole","inputs":[],"outputs":[{"name":"","type":"uint256","internalType":"uint256"}],"stateMutability":"view"},{"type":"function","name":"bark","inputs":[{"name":"ilk","type":"bytes32","internalType":"bytes32"},{"name":"urn","type":"address","internalType":"address"},{"name":"kpr","type":"address","internalType":"address"}],"outputs":[{"name":"id","type":"uint256","internalType":"uint256"}],"stateMutability":"nonpayable"},{"type":"function","name":"cage","inputs":[],"outputs":[],"stateMutability":"nonpayable"},{"type":"function","name":"chop","inputs":[{"name":"ilk","type":"bytes32","internalType":"bytes32"}],"outputs":[{"name":"","type":"uint256","internalType":"uint256"}],"stateMutability":"view"},{"type":"function","name":"deny","inputs":[{"name":"usr","type":"address","internalType":"address"}],"outputs":[],"stateMutability":"nonpayable"},{"type":"function","name":"digs","inputs":[{"name":"ilk","type":"bytes32","internalType":"bytes32"},{"name":"rad","type":"uint256","internalType":"uint256"}],"outputs":[],"stateMutability":"nonpayable"},{"type":"function","name":"file","inputs":[{"name":"ilk","type":"bytes32","internalType":"bytes32"},{"name":"what","type":"bytes32","internalType":"bytes32"},{"name":"data","type":"uint256","internalType":"uint256"}],"outputs":[],"stateMutability":"nonpayable"},{"type":"function","name":"file","inputs":[{"name":"what","type":"bytes32","internalType":"bytes32"},{"name":"data","type":"uint256","internalType":"uint256"}],"outputs":[],"stateMutability":"nonpayable"},{"type":"function","name":"file","inputs":[{"name":"what","type":"bytes32","internalType":"bytes32"},{"name":"data","type":"address","internalType":"address"}],"outputs":[],"stateMutability":"nonpayable"},{"type":"function","name":"file","inputs":[{"name":"ilk","type":"bytes32","internalType":"bytes32"},{"name":"what","type":"bytes32","internalType":"bytes32"},{"name":"clip","type":"address","internalType":"address"}],"outputs":[],"stateMutability":"nonpayable"},{"type":"function","name":"ilks","inputs":[{"name":"","type":"bytes32","internalType":"bytes32"}],"outputs":[{"name":"clip","type":"address","internalType":"address"},{"name":"chop","type":"uint256","internalType":"uint256"},{"name":"hole","type":"uint256","internalType":"uint256"},{"name":"dirt","type":"uint256","internalType":"uint256"}],"stateMutability":"view"},{"type":"function","name":"live","inputs":[],"outputs":[{"name":"","type":"uint256","internalType":"uint256"}],"stateMutability":"view"},{"type":"function","name":"rely","inputs":[{"name":"usr","type":"address","internalType":"address"}],"outputs":[],"stateMutability":"nonpayable"},{"type":"function","name":"vat","inputs":[],"outputs":[{"name":"","type":"address","internalType":"contract VatLike"}],"stateMutability":"view"},{"type":"function","name":"vow","inputs":[],"outputs":[{"name":"","type":"address","internalType":"contract VowLike"}],"stateMutability":"view"},{"type":"function","name":"wards","inputs":[{"name":"","type":"address","internalType":"address"}],"outputs":[{"name":"","type":"uint256","internalType":"uint256"}],"stateMutability":"view"},{"type":"event","name":"Bark","inputs":[{"name":"ilk","type":"bytes32","indexed":true,"internalType":"bytes32"},{"name":"urn","type":"address","indexed":true,"internalType":"address"},{"name":"ink","type":"uint256","indexed":false,"internalType":"uint256"},{"name":"art","type":"uint256","indexed":false,"internalType":"uint256"},{"name":"due","type":"uint256","indexed":false,"internalType":"uint256"},{"name":"clip","type":"address","indexed":false,"internalType":"address"},{"name":"id","type":"uint256","indexed":true,"internalType":"uint256"}],"anonymous":false},{"type":"event","name":"Cage","inputs":[],"anonymous":false},{"type":"event","name":"Deny","inputs":[{"name":"usr","type":"address","indexed":true,"internalType":"address"}],"anonymous":false},{"type":"event","name":"Digs","inputs":[{"name":"ilk","type":"bytes32","indexed":true,"internalType":"bytes32"},{"name":"rad","type":"uint256","indexed":false,"internalType":"uint256"}],"anonymous":false},{"type":"event","name":"File","inputs":[{"name":"what","type":"bytes32","indexed":true,"internalType":"bytes32"},{"name":"data","type":"uint256","indexed":false,"internalType":"uint256"}],"anonymous":false},{"type":"event","name":"File","inputs":[{"name":"what","type":"bytes32","indexed":true,"internalType":"bytes32"},{"name":"data","type":"address","indexed":false,"internalType":"address"}],"anonymous":false},{"type":"event","name":"File","inputs":[{"name":"ilk","type":"bytes32","indexed":true,"internalType":"bytes32"},{"name":"what","type":"bytes32","indexed":true,"internalType":"bytes32"},{"name":"data","type":"uint256","indexed":false,"internalType":"uint256"}],"anonymous":false},{"type":"event","name":"File","inputs":[{"name":"ilk","type":"bytes32","indexed":true,"internalType":"bytes32"},{"name":"what","type":"bytes32","indexed":true,"internalType":"bytes32"},{"name":"clip","type":"address","indexed":false,"internalType":"address"}],"anonymous":false},{"type":"event","name":"Rely","inputs":[{"name":"usr","type":"address","indexed":true,"internalType":"address"}],"anonymous":false}],"bytecode":{"object":"0x60a060405234801561000f575f5ffd5b5060405161126538038061126583398101604081905261002e91610082565b6001600160a01b03811660805260016003819055335f8181526020819052604080822093909355915190917fdd0e34038ac38b2a1ce960229778ac48a8719bc900b6c4f8d0475c6e8b385a6091a2506100af565b5f60208284031215610092575f5ffd5b81516001600160a01b03811681146100a8575f5ffd5b9392505050565b6080516111896100dc5f395f818161010a0152818161088a0152818161095a0152610c4301526111895ff3fe608060405234801561000f575f5ffd5b50600436106100d9575f3560e01c80631a0b287e146100dd57806329ae8114146100f257806336569e7714610105578063626cb3c51461014257806365fae35e146101555780636924500914610168578063957aa58c146101705780639c52a7f114610187578063af7cfeb11461019a578063bf353dbb146101a3578063c87193f4146101c2578063d4e8be83146101d5578063d7926538146101e8578063d9638d361461020b578063ebecb39d14610276578063ed99890814610289578063eda6e1211461029c575b5f5ffd5b6100f06100eb366004610f0a565b6102a5565b005b6100f0610100366004610f33565b6103fe565b61012c7f000000000000000000000000000000000000000000000000000000000000000081565b6040516101399190610f53565b60405180910390f35b60025461012c906001600160a01b031681565b6100f0610163366004610f82565b61047d565b6100f06104ef565b61017960035481565b604051908152602001610139565b6100f0610195366004610f82565b61054c565b61017960045481565b6101796101b1366004610f82565b5f6020819052908152604090205481565b6100f06101d0366004610f33565b6105bd565b6100f06101e3366004610f9b565b61065b565b6101796101f6366004610fc5565b5f908152600160208190526040909120015490565b61024c610219366004610fc5565b600160208190525f918252604090912080549181015460028201546003909201546001600160a01b039093169290919084565b604080516001600160a01b0390951685526020850193909352918301526060820152608001610139565b6100f0610284366004610fdc565b6106e1565b61017961029736600461100e565b61081e565b61017960055481565b335f908152602081905260409020546001146102dc5760405162461bcd60e51b81526004016102d39061103e565b60405180910390fd5b8163063686f760e41b0361035257670de0b6b3a76400008110156103395760405162461bcd60e51b8152602060048201526014602482015273111bd9cbd99a5b194b58da1bdc0b5b1d0b55d05160621b60448201526064016102d3565b5f838152600160208190526040909120018190556103be565b8163686f6c6560e01b03610378575f8381526001602052604090206002018190556103be565b60405162461bcd60e51b815260206004820152601b60248201527a446f672f66696c652d756e7265636f676e697a65642d706172616d60281b60448201526064016102d3565b81837f851aa1caf4888170ad8875449d18f0f512fd6deb2a6571ea1a41fb9f95acbcd1836040516103f191815260200190565b60405180910390a3505050565b335f9081526020819052604090205460011461042c5760405162461bcd60e51b81526004016102d39061103e565b8163486f6c6560e01b03610378576004819055817fe986e40cc8c151830d4f61050f4fb2e4add8567caad2d5f5496f9158e91fe4c78260405161047191815260200190565b60405180910390a25050565b335f908152602081905260409020546001146104ab5760405162461bcd60e51b81526004016102d39061103e565b6001600160a01b0381165f8181526020819052604080822060019055517fdd0e34038ac38b2a1ce960229778ac48a8719bc900b6c4f8d0475c6e8b385a609190a250565b335f9081526020819052604090205460011461051d5760405162461bcd60e51b81526004016102d39061103e565b5f60038190556040517f2308ed18a14e800c39b86eb6ea43270105955ca385b603b64eca89f98ae8fbda9190a1565b335f9081526020819052604090205460011461057a5760405162461bcd60e51b81526004016102d39061103e565b6001600160a01b0381165f81815260208190526040808220829055517f184450df2e323acec0ed3b5c7531b81f9b4cdef7914dfd4c0a4317416bb5251b9190a250565b335f908152602081905260409020546001146105eb5760405162461bcd60e51b81526004016102d39061103e565b6105f760055482610ea6565b6005555f828152600160205260409020600301546106159082610ea6565b5f83815260016020908152604091829020600301929092555182815283917f54f095dc7308776bf01e8580e4dd40fd959ea4bf50b069975768320ef8d77d8a9101610471565b335f908152602081905260409020546001146106895760405162461bcd60e51b81526004016102d39061103e565b8162766f7760e81b0361037857600280546001600160a01b0319166001600160a01b038316179055817f8fef588b5fc1afbf5b2f06c1a435d513f208da2e6704c3d8f0e0ec91167066ba826040516104719190610f53565b335f9081526020819052604090205460011461070f5760405162461bcd60e51b81526004016102d39061103e565b81630636c69760e41b0361037857806001600160a01b031663c5ce281e6040518163ffffffff1660e01b8152600401602060405180830381865afa158015610759573d5f5f3e3d5ffd5b505050506040513d601f19601f8201168201806040525081019061077d919061106a565b83146107c75760405162461bcd60e51b8152602060048201526019602482015278446f672f66696c652d696c6b2d6e65712d636c69702e696c6b60381b60448201526064016102d3565b5f83815260016020526040902080546001600160a01b0319166001600160a01b03831617905581837f4ff2caaa972a7c6629ea01fae9c93d73cc307d13ea4c369f9bbbb7f9b7e9461d836040516103f19190610f53565b5f6003546001146108605760405162461bcd60e51b815260206004820152600c60248201526b446f672f6e6f742d6c69766560a01b60448201526064016102d3565b6040516309092f9760e21b8152600481018590526001600160a01b0384811660248301525f9182917f00000000000000000000000000000000000000000000000000000000000000001690632424be5c906044016040805180830381865afa1580156108ce573d5f5f3e3d5ffd5b505050506040513d601f19601f820116820180604052508101906108f29190611081565b5f888152600160208181526040808420815160808101835281546001600160a01b039081168252948201549381019390935260028101548383015260030154606083015251636cb1c69b60e11b8152600481018c9052949650929450919290918291829182917f00000000000000000000000000000000000000000000000000000000000000009091169063d9638d369060240160a060405180830381865afa1580156109a1573d5f5f3e3d5ffd5b505050506040513d601f19601f820116820180604052508101906109c591906110a3565b9296509194509250505080158015906109ef57506109e38684610ebb565b6109ed8883610ebb565b105b610a2c5760405162461bcd60e51b815260206004820152600e60248201526d446f672f6e6f742d756e7361666560901b60448201526064016102d3565b600554600454118015610a46575084606001518560400151115b610a8e5760405162461bcd60e51b8152602060048201526019602482015278111bd9cbdb1a5c5d5a59185d1a5bdb8b5b1a5b5a5d0b5a1a5d603a1b60448201526064016102d3565b5f610abb600554600454610aa291906110f3565b87606001518860400151610ab691906110f3565b610ee3565b9050610aed87876020015186610ad985670de0b6b3a7640000610ebb565b610ae3919061111a565b610ab6919061111a565b945084871115610b855782610b0b610b05878a6110f3565b86610ebb565b1015610b1957869450610b85565b82610b248686610ebb565b1015610b855760405162461bcd60e51b815260206004820152602a60248201527f446f672f64757374792d61756374696f6e2d66726f6d2d7061727469616c2d6c60448201526934b8bab4b230ba34b7b760b11b60648201526084016102d3565b50505f85610b938886610ebb565b610b9d919061111a565b90505f8111610be15760405162461bcd60e51b815260206004820152601060248201526f2237b397b73ab63616b0bab1ba34b7b760811b60448201526064016102d3565b600160ff1b8411158015610bf95750600160ff1b8111155b610c345760405162461bcd60e51b815260206004820152600c60248201526b446f672f6f766572666c6f7760a01b60448201526064016102d3565b84516002546001600160a01b037f0000000000000000000000000000000000000000000000000000000000000000811692637bab3f40928f928f929116610c7a87611139565b610c838b611139565b6040516001600160e01b031960e089901b16815260048101969096526001600160a01b039485166024870152928416604486015292166064840152608483019190915260a482015260c4015f604051808303815f87803b158015610ce5575f5ffd5b505af1158015610cf7573d5f5f3e3d5ffd5b505050505f610d068585610ebb565b600254604051630d2fdf6f60e31b8152600481018390529192506001600160a01b03169063697efb78906024015f604051808303815f87803b158015610d4a575f5ffd5b505af1158015610d5c573d5f5f3e3d5ffd5b505050505f670de0b6b3a7640000610d78838960200151610ebb565b610d82919061111a565b9050610d9060055482610efb565b6005556060870151610da29082610efb565b5f8e81526001602052604090819020600301919091558751905163898eb26760e01b815260048101839052602481018590526001600160a01b038e811660448301528d811660648301529091169063898eb267906084016020604051808303815f875af1158015610e15573d5f5f3e3d5ffd5b505050506040513d601f19601f82011682018060405250810190610e39919061106a565b875160408051868152602081018a90529081018590526001600160a01b039182166060820152919b508b92508d16908e907f85258d09e1e4ef299ff3fc11e74af99563f022d21f3f940db982229dc2a3358c9060800160405180910390a450505050505050509392505050565b80820382811115610eb5575f5ffd5b92915050565b5f811580610edb57505080820282828281610ed857610ed8611106565b04145b610eb5575f5ffd5b5f81831115610ef25781610ef4565b825b9392505050565b80820182811015610eb5575f5ffd5b5f5f5f60608486031215610f1c575f5ffd5b505081359360208301359350604090920135919050565b5f5f60408385031215610f44575f5ffd5b50508035926020909101359150565b6001600160a01b0391909116815260200190565b80356001600160a01b0381168114610f7d575f5ffd5b919050565b5f60208284031215610f92575f5ffd5b610ef482610f67565b5f5f60408385031215610fac575f5ffd5b82359150610fbc60208401610f67565b90509250929050565b5f60208284031215610fd5575f5ffd5b5035919050565b5f5f5f60608486031215610fee575f5ffd5b833592506020840135915061100560408501610f67565b90509250925092565b5f5f5f60608486031215611020575f5ffd5b8335925061103060208501610f67565b915061100560408501610f67565b602080825260129082015271111bd9cbdb9bdd0b585d5d1a1bdc9a5e995960721b604082015260600190565b5f6020828403121561107a575f5ffd5b5051919050565b5f5f60408385031215611092575f5ffd5b505080516020909101519092909150565b5f5f5f5f5f60a086880312156110b7575f5ffd5b5050835160208501516040860151606087015160809097015192989197509594509092509050565b634e487b7160e01b5f52601160045260245ffd5b81810381811115610eb557610eb56110df565b634e487b7160e01b5f52601260045260245ffd5b5f8261113457634e487b7160e01b5f52601260045260245ffd5b500490565b5f600160ff1b820161114d5761114d6110df565b505f039056fea264697066735822122063102dcf1aac5457a1ccf385f6134cdecfd5539937a2ecbe55938fb4dbc5346764736f6c634300081e0033","linkReferences":{}},"methodIdentifiers":{"Dirt()":"eda6e121","Hole()":"af7cfeb1","bark(bytes32,address,address)":"ed998908","cage()":"69245009","chop(bytes32)":"d7926538","deny(address)":"9c52a7f1","digs(bytes32,uint256)":"c87193f4","file(bytes32,address)":"d4e8be83","file(bytes32,bytes32,address)":"ebecb39d","file(bytes32,bytes32,uint256)":"1a0b287e","file(bytes32,uint256)":"29ae8114","ilks(bytes32)":"d9638d36","live()":"957aa58c","rely(address)":"65fae35e","vat()":"36569e77","vow()":"626cb3c5","wards(address)":"bf353dbb"},"id":685}