{"abi":[{"type":"constructor","inputs":[{"name":"_poolManager","type":"address","internalType":"contract IPoolManager"}],"stateMutability":"nonpayable"},{"type":"function","name":"getFeeGrowthGlobals","inputs":[{"name":"poolId","type":"bytes32","internalType":"PoolId"}],"outputs":[{"name":"feeGrowthGlobal0","type":"uint256","internalType":"uint256"},{"name":"feeGrowthGlobal1","type":"uint256","internalType":"uint256"}],"stateMutability":"view"},{"type":"function","name":"getFeeGrowthInside","inputs":[{"name":"poolId","type":"bytes32","internalType":"PoolId"},{"name":"tickLower","type":"int24","internalType":"int24"},{"name":"tickUpper","type":"int24","internalType":"int24"}],"outputs":[{"name":"feeGrowthInside0X128","type":"uint256","internalType":"uint256"},{"name":"feeGrowthInside1X128","type":"uint256","internalType":"uint256"}],"stateMutability":"view"},{"type":"function","name":"getLiquidity","inputs":[{"name":"poolId","type":"bytes32","internalType":"PoolId"}],"outputs":[{"name":"liquidity","type":"uint128","internalType":"uint128"}],"stateMutability":"view"},{"type":"function","name":"getPositionInfo","inputs":[{"name":"poolId","type":"bytes32","internalType":"PoolId"},{"name":"positionId","type":"bytes32","internalType":"bytes32"}],"outputs":[{"name":"liquidity","type":"uint128","internalType":"uint128"},{"name":"feeGrowthInside0LastX128","type":"uint256","internalType":"uint256"},{"name":"feeGrowthInside1LastX128","type":"uint256","internalType":"uint256"}],"stateMutability":"view"},{"type":"function","name":"getPositionInfo","inputs":[{"name":"poolId","type":"bytes32","internalType":"PoolId"},{"name":"owner","type":"address","internalType":"address"},{"name":"tickLower","type":"int24","internalType":"int24"},{"name":"tickUpper","type":"int24","internalType":"int24"},{"name":"salt","type":"bytes32","internalType":"bytes32"}],"outputs":[{"name":"liquidity","type":"uint128","internalType":"uint128"},{"name":"feeGrowthInside0LastX128","type":"uint256","internalType":"uint256"},{"name":"feeGrowthInside1LastX128","type":"uint256","internalType":"uint256"}],"stateMutability":"view"},{"type":"function","name":"getPositionLiquidity","inputs":[{"name":"poolId","type":"bytes32","internalType":"PoolId"},{"name":"positionId","type":"bytes32","internalType":"bytes32"}],"outputs":[{"name":"liquidity","type":"uint128","internalType":"uint128"}],"stateMutability":"view"},{"type":"function","name":"getSlot0","inputs":[{"name":"poolId","type":"bytes32","internalType":"PoolId"}],"outputs":[{"name":"sqrtPriceX96","type":"uint160","internalType":"uint160"},{"name":"tick","type":"int24","internalType":"int24"},{"name":"protocolFee","type":"uint24","internalType":"uint24"},{"name":"lpFee","type":"uint24","internalType":"uint24"}],"stateMutability":"view"},{"type":"function","name":"getTickBitmap","inputs":[{"name":"poolId","type":"bytes32","internalType":"PoolId"},{"name":"tick","type":"int16","internalType":"int16"}],"outputs":[{"name":"tickBitmap","type":"uint256","internalType":"uint256"}],"stateMutability":"view"},{"type":"function","name":"getTickFeeGrowthOutside","inputs":[{"name":"poolId","type":"bytes32","internalType":"PoolId"},{"name":"tick","type":"int24","internalType":"int24"}],"outputs":[{"name":"feeGrowthOutside0X128","type":"uint256","internalType":"uint256"},{"name":"feeGrowthOutside1X128","type":"uint256","internalType":"uint256"}],"stateMutability":"view"},{"type":"function","name":"getTickInfo","inputs":[{"name":"poolId","type":"bytes32","internalType":"PoolId"},{"name":"tick","type":"int24","internalType":"int24"}],"outputs":[{"name":"liquidityGross","type":"uint128","internalType":"uint128"},{"name":"liquidityNet","type":"int128","internalType":"int128"},{"name":"feeGrowthOutside0X128","type":"uint256","internalType":"uint256"},{"name":"feeGrowthOutside1X128","type":"uint256","internalType":"uint256"}],"stateMutability":"view"},{"type":"function","name":"getTickLiquidity","inputs":[{"name":"poolId","type":"bytes32","internalType":"PoolId"},{"name":"tick","type":"int24","internalType":"int24"}],"outputs":[{"name":"liquidityGross","type":"uint128","internalType":"uint128"},{"name":"liquidityNet","type":"int128","internalType":"int128"}],"stateMutability":"view"},{"type":"function","name":"poolManager","inputs":[],"outputs":[{"name":"","type":"address","internalType":"contract IPoolManager"}],"stateMutability":"view"},{"type":"error","name":"NotPoolManager","inputs":[]}],"bytecode":{"object":"0x60a060405234801561000f575f5ffd5b50604051610f4f380380610f4f83398101604081905261002e9161003f565b6001600160a01b031660805261006c565b5f6020828403121561004f575f5ffd5b81516001600160a01b0381168114610065575f5ffd5b9392505050565b608051610e7e6100d15f395f8181610223015281816102a9015281816102e80152818161032d01528181610373015281816103b5015281816103f8015281816104380152818161047c015281816104b3015281816104fc01526105310152610e7e5ff3fe608060405234801561000f575f5ffd5b50600436106100a2575f3560e01c80631c7ccb4c146100a657806353e9c1fb146100cc5780637c40f1fe146100ed5780638a2bb9e61461012d57806397fd7b42146101405780639ec538c814610178578063c815641c1461018b578063caedab54146101d6578063dacf1d2f1461020b578063dc4c90d31461021e578063f0928f291461025d578063fa6793d514610288575b5f5ffd5b6100b96100b4366004610be7565b61029b565b6040519081526020015b60405180910390f35b6100df6100da366004610c31565b6102d9565b6040516100c3929190610c6a565b6101006100fb366004610c78565b61031c565b604080516001600160801b039095168552600f9390930b60208501529183015260608201526080016100c3565b6100df61013b366004610c78565b610364565b61015361014e366004610ca2565b6103a5565b604080516001600160801b0390941684526020840192909252908201526060016100c3565b6100df610186366004610cc2565b6103e9565b61019e610199366004610cc2565b610427565b604080516001600160a01b03909516855260029390930b602085015262ffffff918216928401929092521660608201526080016100c3565b6101e96101e4366004610c78565b61046d565b604080516001600160801b039093168352600f9190910b6020830152016100c3565b610153610219366004610cd9565b6104a3565b6102457f000000000000000000000000000000000000000000000000000000000000000081565b6040516001600160a01b0390911681526020016100c3565b61027061026b366004610ca2565b6104ee565b6040516001600160801b0390911681526020016100c3565b610270610296366004610cc2565b610523565b5f6102d06001600160a01b037f0000000000000000000000000000000000000000000000000000000000000000168484610557565b90505b92915050565b5f806103106001600160a01b037f000000000000000000000000000000000000000000000000000000000000000016868686610615565b91509150935093915050565b5f8080806103546001600160a01b037f00000000000000000000000000000000000000000000000000000000000000001687876106b1565b9299919850965090945092505050565b5f8061039a6001600160a01b037f0000000000000000000000000000000000000000000000000000000000000000168585610765565b915091509250929050565b5f80806103dc6001600160a01b037f000000000000000000000000000000000000000000000000000000000000000016868661080d565b9250925092509250925092565b5f8061041e6001600160a01b037f000000000000000000000000000000000000000000000000000000000000000016846108ae565b91509150915091565b5f80808061045e6001600160a01b037f000000000000000000000000000000000000000000000000000000000000000016866108fc565b93509350935093509193509193565b5f8061039a6001600160a01b037f00000000000000000000000000000000000000000000000000000000000000001685856109ae565b5f80806104dd6001600160a01b037f0000000000000000000000000000000000000000000000000000000000000000168989898989610a43565b925092509250955095509592505050565b5f6102d06001600160a01b037f0000000000000000000000000000000000000000000000000000000000000000168484610a9a565b5f6102d36001600160a01b037f00000000000000000000000000000000000000000000000000000000000000001683610b19565b5f5f61056284610b32565b90505f610570600583610d37565b5f1b90505f8460010b8260405160200161058b929190610c6a565b60408051808303601f19018152908290528051602090910120631e2eaeaf60e01b82526004820181905291506001600160a01b03881690631e2eaeaf90602401602060405180830381865afa1580156105e6573d5f5f3e3d5ffd5b505050506040513d601f19601f8201168201806040525081019061060a9190610d56565b979650505050505050565b5f5f5f5f61062388886108ae565b915091505f5f6106348a8a8a610765565b915091505f5f6106458c8c8b610765565b915091505f6106548d8d6108fc565b50509150508a60020b8160020b121561067657828503985081840397506106a1565b8960020b8160020b1261069257848303985083820397506106a1565b82858803039850818487030397505b5050505050505094509492505050565b5f5f5f5f5f6106c08787610b65565b90505f886001600160a01b03166335fd631a8360036040518363ffffffff1660e01b81526004016106f2929190610c6a565b5f60405180830381865afa15801561070c573d5f5f3e3d5ffd5b505050506040513d5f823e601f3d908101601f191682016040526107339190810190610d81565b602081015160408201516060909201516001600160801b0382169c60809290921d9b5091995090975095505050505050565b5f5f5f6107728585610b65565b90505f6001600160a01b0387166335fd631a61078f846001610d37565b6040516001600160e01b031960e084901b1681526107b39190600290600401610c6a565b5f60405180830381865afa1580156107cd573d5f5f3e3d5ffd5b505050506040513d5f823e601f3d908101601f191682016040526107f49190810190610d81565b6020810151604090910151909890975095505050505050565b5f5f5f5f61081b8686610bb8565b90505f876001600160a01b03166335fd631a8360036040518363ffffffff1660e01b815260040161084d929190610c6a565b5f60405180830381865afa158015610867573d5f5f3e3d5ffd5b505050506040513d5f823e601f3d908101601f1916820160405261088e9190810190610d81565b60208101516040820151606090920151909a919950975095505050505050565b5f5f5f6108ba84610b32565b90505f6108c8600183610d37565b604051631afeb18d60e11b81529091505f906001600160a01b038816906335fd631a906107b3908590600290600401610c6a565b5f5f5f5f5f61090a86610b32565b604051631e2eaeaf60e01b8152600481018290529091505f906001600160a01b03891690631e2eaeaf90602401602060405180830381865afa158015610952573d5f5f3e3d5ffd5b505050506040513d601f19601f820116820180604052508101906109769190610d56565b90506001600160a01b03811695508060a01c60020b945062ffffff8160b81c16935062ffffff8160d01c169250505092959194509250565b5f5f5f6109bb8585610b65565b604051631e2eaeaf60e01b8152600481018290529091505f906001600160a01b03881690631e2eaeaf90602401602060405180830381865afa158015610a03573d5f5f3e3d5ffd5b505050506040513d601f19601f82011682018060405250810190610a279190610d56565b6001600160801b0381169860809190911d975095505050505050565b60408051602681018390526006810184905260038101859052858152603a600c8201205f928201839052602082018390529082905281908190610a878a8a8361080d565b919c909b50909950975050505050505050565b5f5f610aa68484610bb8565b604051631e2eaeaf60e01b8152600481018290529091506001600160a01b03861690631e2eaeaf90602401602060405180830381865afa158015610aec573d5f5f3e3d5ffd5b505050506040513d601f19601f82011682018060405250810190610b109190610d56565b95945050505050565b5f5f610b2483610b32565b90505f610aa6600383610d37565b6040515f90610b48908390600690602001610c6a565b604051602081830303815290604052805190602001209050919050565b5f5f610b7084610b32565b90505f610b7e600483610d37565b5f1b90508360020b81604051602001610b98929190610c6a565b604051602081830303815290604052805190602001209250505092915050565b5f5f610bc384610b32565b90505f610bd1600683610d37565b604051909150610b989085908390602001610c6a565b5f5f60408385031215610bf8575f5ffd5b823591506020830135600181900b8114610c10575f5ffd5b809150509250929050565b8035600281900b8114610c2c575f5ffd5b919050565b5f5f5f60608486031215610c43575f5ffd5b83359250610c5360208501610c1b565b9150610c6160408501610c1b565b90509250925092565b918252602082015260400190565b5f5f60408385031215610c89575f5ffd5b82359150610c9960208401610c1b565b90509250929050565b5f5f60408385031215610cb3575f5ffd5b50508035926020909101359150565b5f60208284031215610cd2575f5ffd5b5035919050565b5f5f5f5f5f60a08688031215610ced575f5ffd5b8535945060208601356001600160a01b0381168114610d0a575f5ffd5b9350610d1860408701610c1b565b9250610d2660608701610c1b565b949793965091946080013592915050565b808201808211156102d357634e487b7160e01b5f52601160045260245ffd5b5f60208284031215610d66575f5ffd5b5051919050565b634e487b7160e01b5f52604160045260245ffd5b5f60208284031215610d91575f5ffd5b81516001600160401b03811115610da6575f5ffd5b8201601f81018413610db6575f5ffd5b80516001600160401b03811115610dcf57610dcf610d6d565b604051600582901b90603f8201601f191681016001600160401b0381118282101715610dfd57610dfd610d6d565b604052918252602081840181019290810187841115610e1a575f5ffd5b6020850194505b83851015610e3d57845180825260209586019590935001610e21565b50969550505050505056fea26469706673582212205952312e960e96181cfbb2d6bd5d9eb9566f4e7ea5c31c01cbae9a8fb79dffe764736f6c634300081e0033","linkReferences":{}},"methodIdentifiers":{"getFeeGrowthGlobals(bytes32)":"9ec538c8","getFeeGrowthInside(bytes32,int24,int24)":"53e9c1fb","getLiquidity(bytes32)":"fa6793d5","getPositionInfo(bytes32,address,int24,int24,bytes32)":"dacf1d2f","getPositionInfo(bytes32,bytes32)":"97fd7b42","getPositionLiquidity(bytes32,bytes32)":"f0928f29","getSlot0(bytes32)":"c815641c","getTickBitmap(bytes32,int16)":"1c7ccb4c","getTickFeeGrowthOutside(bytes32,int24)":"8a2bb9e6","getTickInfo(bytes32,int24)":"7c40f1fe","getTickLiquidity(bytes32,int24)":"caedab54","poolManager()":"dc4c90d3"},"id":1181}