{"abi":[{"type":"constructor","inputs":[{"name":"vat_","type":"address","internalType":"address"},{"name":"flapper_","type":"address","internalType":"address"},{"name":"flopper_","type":"address","internalType":"address"}],"stateMutability":"nonpayable"},{"type":"function","name":"Ash","inputs":[],"outputs":[{"name":"","type":"uint256","internalType":"uint256"}],"stateMutability":"view"},{"type":"function","name":"Sin","inputs":[],"outputs":[{"name":"","type":"uint256","internalType":"uint256"}],"stateMutability":"view"},{"type":"function","name":"bump","inputs":[],"outputs":[{"name":"","type":"uint256","internalType":"uint256"}],"stateMutability":"view"},{"type":"function","name":"cage","inputs":[],"outputs":[],"stateMutability":"nonpayable"},{"type":"function","name":"deny","inputs":[{"name":"usr","type":"address","internalType":"address"}],"outputs":[],"stateMutability":"nonpayable"},{"type":"function","name":"dump","inputs":[],"outputs":[{"name":"","type":"uint256","internalType":"uint256"}],"stateMutability":"view"},{"type":"function","name":"fess","inputs":[{"name":"tab","type":"uint256","internalType":"uint256"}],"outputs":[],"stateMutability":"nonpayable"},{"type":"function","name":"file","inputs":[{"name":"what","type":"bytes32","internalType":"bytes32"},{"name":"data","type":"uint256","internalType":"uint256"}],"outputs":[],"stateMutability":"nonpayable"},{"type":"function","name":"file","inputs":[{"name":"what","type":"bytes32","internalType":"bytes32"},{"name":"data","type":"address","internalType":"address"}],"outputs":[],"stateMutability":"nonpayable"},{"type":"function","name":"flap","inputs":[],"outputs":[{"name":"id","type":"uint256","internalType":"uint256"}],"stateMutability":"nonpayable"},{"type":"function","name":"flapper","inputs":[],"outputs":[{"name":"","type":"address","internalType":"contract FlapLike"}],"stateMutability":"view"},{"type":"function","name":"flog","inputs":[{"name":"era","type":"uint256","internalType":"uint256"}],"outputs":[],"stateMutability":"nonpayable"},{"type":"function","name":"flop","inputs":[],"outputs":[{"name":"id","type":"uint256","internalType":"uint256"}],"stateMutability":"nonpayable"},{"type":"function","name":"flopper","inputs":[],"outputs":[{"name":"","type":"address","internalType":"contract FlopLike"}],"stateMutability":"view"},{"type":"function","name":"heal","inputs":[{"name":"rad","type":"uint256","internalType":"uint256"}],"outputs":[],"stateMutability":"nonpayable"},{"type":"function","name":"hump","inputs":[],"outputs":[{"name":"","type":"uint256","internalType":"uint256"}],"stateMutability":"view"},{"type":"function","name":"kiss","inputs":[{"name":"rad","type":"uint256","internalType":"uint256"}],"outputs":[],"stateMutability":"nonpayable"},{"type":"function","name":"live","inputs":[],"outputs":[{"name":"","type":"uint256","internalType":"uint256"}],"stateMutability":"view"},{"type":"function","name":"rely","inputs":[{"name":"usr","type":"address","internalType":"address"}],"outputs":[],"stateMutability":"nonpayable"},{"type":"function","name":"sin","inputs":[{"name":"","type":"uint256","internalType":"uint256"}],"outputs":[{"name":"","type":"uint256","internalType":"uint256"}],"stateMutability":"view"},{"type":"function","name":"sump","inputs":[],"outputs":[{"name":"","type":"uint256","internalType":"uint256"}],"stateMutability":"view"},{"type":"function","name":"vat","inputs":[],"outputs":[{"name":"","type":"address","internalType":"contract VatLike"}],"stateMutability":"view"},{"type":"function","name":"wait","inputs":[],"outputs":[{"name":"","type":"uint256","internalType":"uint256"}],"stateMutability":"view"},{"type":"function","name":"wards","inputs":[{"name":"","type":"address","internalType":"address"}],"outputs":[{"name":"","type":"uint256","internalType":"uint256"}],"stateMutability":"view"}],"bytecode":{"object":"0x608060405234801561000f575f5ffd5b5060405161128538038061128583398101604081905261002e91610102565b335f908152602081905260409081902060019081905580546001600160a01b038681166001600160a01b0319928316811790935560028054878316908416179055600380549186169190921617905590516328ec8bf160e21b815263a3b22fc4906100ac9085906004016001600160a01b0391909116815260200190565b5f604051808303815f87803b1580156100c3575f5ffd5b505af11580156100d5573d5f5f3e3d5ffd5b50506001600c55506101429350505050565b80516001600160a01b03811681146100fd575f5ffd5b919050565b5f5f5f60608486031215610114575f5ffd5b61011d846100e7565b925061012b602085016100e7565b9150610139604085016100e7565b90509250925092565b6111368061014f5f395ff3fe608060405234801561000f575f5ffd5b5060043610610126575f3560e01c80630e01198b1461012a5780631b8e8cfa146101455780632506855a1461014e57806329ae8114146101635780632a1d2b3c1461017657806336569e771461017f5780634081d73a1461019f5780635ca0d723146101b257806364bd7013146101c557806365fae35e146101ce57806368110b2f146101e157806369245009146101ea578063697efb78146101f2578063957aa58c146102055780639c52a7f11461020e578063bbbb0d7b14610221578063bf353dbb14610229578063c349d36214610248578063cb5cc10914610251578063d0adc35f14610270578063d4e8be8314610279578063d7ee674b1461028c578063e43305451461029f578063f37ac61c146102a8575b5f5ffd5b6101326102bb565b6040519081526020015b60405180910390f35b610132600b5481565b61016161015c366004610f8d565b61051c565b005b610161610171366004610fa4565b61065d565b61013260065481565b600154610192906001600160a01b031681565b60405161013c9190610fc4565b600354610192906001600160a01b031681565b600254610192906001600160a01b031681565b61013260075481565b6101616101dc366004610ff3565b610735565b610132600a5481565b6101616107a1565b610161610200366004610f8d565b610a62565b610132600c5481565b61016161021c366004610ff3565b610acb565b610132610b12565b610132610237366004610ff3565b5f6020819052908152604090205481565b61013260095481565b61013261025f366004610f8d565b60046020525f908152604090205481565b61013260055481565b61016161028736600461100c565b610c72565b61016161029a366004610f8d565b610dba565b61013260085481565b6101616102b6366004610f8d565b610e3b565b60015460405163782c909560e11b81525f916103429161033a916001600160a01b03169063f059212a906102f3903090600401610fc4565b602060405180830381865afa15801561030e573d5f5f3e3d5ffd5b505050506040513d601f19601f820116820180604052508101906103329190611036565b600a54610f51565b600b54610f51565b600154604051633612d9a360e11b81526001600160a01b0390911690636c25b34690610372903090600401610fc4565b602060405180830381865afa15801561038d573d5f5f3e3d5ffd5b505050506040513d601f19601f820116820180604052508101906103b19190611036565b10156103d85760405162461bcd60e51b81526004016103cf9061104d565b60405180910390fd5b60015460405163782c909560e11b815261045f91610457916001600160a01b039091169063f059212a90610410903090600401610fc4565b602060405180830381865afa15801561042b573d5f5f3e3d5ffd5b505050506040513d601f19601f8201168201806040525081019061044f9190611036565b600554610f66565b600654610f66565b156104a05760405162461bcd60e51b8152602060048201526011602482015270566f772f646562742d6e6f742d7a65726f60781b60448201526064016103cf565b600254600a5460405163ca40c41960e01b815260048101919091525f60248201526001600160a01b039091169063ca40c419906044015b6020604051808303815f875af11580156104f3573d5f5f3e3d5ffd5b505050506040513d601f19601f820116820180604052508101906105179190611036565b905090565b6006548111156105635760405162461bcd60e51b81526020600482015260126024820152710acdeee5edcdee85acadcdeeaced05ac2e6d60731b60448201526064016103cf565b600154604051633612d9a360e11b81526001600160a01b0390911690636c25b34690610593903090600401610fc4565b602060405180830381865afa1580156105ae573d5f5f3e3d5ffd5b505050506040513d601f19601f820116820180604052508101906105d29190611036565b8111156105f15760405162461bcd60e51b81526004016103cf9061104d565b6105fd60065482610f66565b600655600154604051633cdeb18760e21b8152600481018390526001600160a01b039091169063f37ac61c906024015b5f604051808303815f87803b158015610644575f5ffd5b505af1158015610656573d5f5f3e3d5ffd5b5050505050565b335f9081526020819052604090205460011461068b5760405162461bcd60e51b81526004016103cf9061107f565b81631dd85a5d60e21b0361069f5760075550565b8163062756d760e41b036106b357600a5550565b8163073756d760e41b036106c75760095550565b8163064756d760e41b036106db5760085550565b8163068756d760e41b036106ef57600b5550565b60405162461bcd60e51b815260206004820152601b60248201527a566f772f66696c652d756e7265636f676e697a65642d706172616d60281b60448201526064016103cf565b335f908152602081905260409020546001146107635760405162461bcd60e51b81526004016103cf9061107f565b600c546001146107855760405162461bcd60e51b81526004016103cf906110ab565b6001600160a01b03165f90815260208190526040902060019055565b335f908152602081905260409020546001146107cf5760405162461bcd60e51b81526004016103cf9061107f565b600c546001146107f15760405162461bcd60e51b81526004016103cf906110ab565b5f600c8190556005819055600655600254600154604051633612d9a360e11b81526001600160a01b039283169263a2f91af2921690636c25b3469061083a908590600401610fc4565b602060405180830381865afa158015610855573d5f5f3e3d5ffd5b505050506040513d601f19601f820116820180604052508101906108799190611036565b6040518263ffffffff1660e01b815260040161089791815260200190565b5f604051808303815f87803b1580156108ae575f5ffd5b505af11580156108c0573d5f5f3e3d5ffd5b5050505060035f9054906101000a90046001600160a01b03166001600160a01b031663692450096040518163ffffffff1660e01b81526004015f604051808303815f87803b158015610910575f5ffd5b505af1158015610922573d5f5f3e3d5ffd5b5050600154604051633612d9a360e11b81526001600160a01b03909116925063f37ac61c9150610a15908390636c25b34690610962903090600401610fc4565b602060405180830381865afa15801561097d573d5f5f3e3d5ffd5b505050506040513d601f19601f820116820180604052508101906109a19190611036565b60015460405163782c909560e11b81526001600160a01b039091169063f059212a906109d1903090600401610fc4565b602060405180830381865afa1580156109ec573d5f5f3e3d5ffd5b505050506040513d601f19601f82011682018060405250810190610a109190611036565b610f75565b6040518263ffffffff1660e01b8152600401610a3391815260200190565b5f604051808303815f87803b158015610a4a575f5ffd5b505af1158015610a5c573d5f5f3e3d5ffd5b50505050565b335f90815260208190526040902054600114610a905760405162461bcd60e51b81526004016103cf9061107f565b425f90815260046020526040902054610aa99082610f51565b425f90815260046020526040902055600554610ac59082610f51565b60055550565b335f90815260208190526040902054600114610af95760405162461bcd60e51b81526004016103cf9061107f565b6001600160a01b03165f90815260208190526040812055565b60015460405163782c909560e11b81525f91610b4a91610457916001600160a01b03169063f059212a90610410903090600401610fc4565b6009541115610b6b5760405162461bcd60e51b81526004016103cf906110d1565b600154604051633612d9a360e11b81526001600160a01b0390911690636c25b34690610b9b903090600401610fc4565b602060405180830381865afa158015610bb6573d5f5f3e3d5ffd5b505050506040513d601f19601f82011682018060405250810190610bda9190611036565b15610c1e5760405162461bcd60e51b8152602060048201526014602482015273566f772f737572706c75732d6e6f742d7a65726f60601b60448201526064016103cf565b610c2c600654600954610f51565b600655600354600854600954604051632dfa734960e21b8152306004820152602481019290925260448201526001600160a01b039091169063b7e9cd24906064016104d7565b335f90815260208190526040902054600114610ca05760405162461bcd60e51b81526004016103cf9061107f565b8166333630b83832b960c91b03610d8a57600154600254604051636e26907d60e11b81526001600160a01b039283169263dc4d20fa92610ce592911690600401610fc4565b5f604051808303815f87803b158015610cfc575f5ffd5b505af1158015610d0e573d5f5f3e3d5ffd5b5050600280546001600160a01b0319166001600160a01b03858116919091179091556001546040516328ec8bf160e21b81529116925063a3b22fc49150610d59908490600401610fc4565b5f604051808303815f87803b158015610d70575f5ffd5b505af1158015610d82573d5f5f3e3d5ffd5b505050505050565b8166333637b83832b960c91b036106ef57600380546001600160a01b0319166001600160a01b0383161790555050565b42610dc782600754610f51565b1115610e0d5760405162461bcd60e51b8152602060048201526015602482015274159bddcbddd85a5d0b5b9bdd0b599a5b9a5cda1959605a1b60448201526064016103cf565b6005545f82815260046020526040902054610e289190610f66565b6005555f90815260046020526040812055565b600154604051633612d9a360e11b81526001600160a01b0390911690636c25b34690610e6b903090600401610fc4565b602060405180830381865afa158015610e86573d5f5f3e3d5ffd5b505050506040513d601f19601f82011682018060405250810190610eaa9190611036565b811115610ec95760405162461bcd60e51b81526004016103cf9061104d565b60015460405163782c909560e11b8152610f0191610457916001600160a01b039091169063f059212a90610410903090600401610fc4565b811115610f205760405162461bcd60e51b81526004016103cf906110d1565b600154604051633cdeb18760e21b8152600481018390526001600160a01b039091169063f37ac61c9060240161062d565b80820182811015610f60575f5ffd5b92915050565b80820382811115610f60575f5ffd5b5f81831115610f845781610f86565b825b9392505050565b5f60208284031215610f9d575f5ffd5b5035919050565b5f5f60408385031215610fb5575f5ffd5b50508035926020909101359150565b6001600160a01b0391909116815260200190565b80356001600160a01b0381168114610fee575f5ffd5b919050565b5f60208284031215611003575f5ffd5b610f8682610fd8565b5f5f6040838503121561101d575f5ffd5b8235915061102d60208401610fd8565b90509250929050565b5f60208284031215611046575f5ffd5b5051919050565b602080825260189082015277566f772f696e73756666696369656e742d737572706c757360401b604082015260600190565b602080825260129082015271159bddcbdb9bdd0b585d5d1a1bdc9a5e995960721b604082015260600190565b6020808252600c908201526b566f772f6e6f742d6c69766560a01b604082015260600190565b602080825260159082015274159bddcbda5b9cdd59999a58da595b9d0b5919589d605a1b60408201526060019056fea26469706673582212200edb24e952ff03d4c3067af23d1953735ed50073755a2efbe9a79b545c9eef1564736f6c634300081e0033","linkReferences":{}},"methodIdentifiers":{"Ash()":"2a1d2b3c","Sin()":"d0adc35f","bump()":"68110b2f","cage()":"69245009","deny(address)":"9c52a7f1","dump()":"e4330545","fess(uint256)":"697efb78","file(bytes32,address)":"d4e8be83","file(bytes32,uint256)":"29ae8114","flap()":"0e01198b","flapper()":"5ca0d723","flog(uint256)":"d7ee674b","flop()":"bbbb0d7b","flopper()":"4081d73a","heal(uint256)":"f37ac61c","hump()":"1b8e8cfa","kiss(uint256)":"2506855a","live()":"957aa58c","rely(address)":"65fae35e","sin(uint256)":"cb5cc109","sump()":"c349d362","vat()":"36569e77","wait()":"64bd7013","wards(address)":"bf353dbb"},"id":695}