{"abi":[{"type":"constructor","inputs":[{"name":"feeTo_","type":"address","internalType":"address"}],"stateMutability":"nonpayable"},{"type":"function","name":"OWNER_FEE_SHARE_MAX","inputs":[],"outputs":[{"name":"","type":"uint256","internalType":"uint256"}],"stateMutability":"view"},{"type":"function","name":"REFERER_FEE_SHARE_MAX","inputs":[],"outputs":[{"name":"","type":"uint256","internalType":"uint256"}],"stateMutability":"view"},{"type":"function","name":"allPairs","inputs":[{"name":"","type":"uint256","internalType":"uint256"}],"outputs":[{"name":"","type":"address","internalType":"address"}],"stateMutability":"view"},{"type":"function","name":"allPairsLength","inputs":[],"outputs":[{"name":"","type":"uint256","internalType":"uint256"}],"stateMutability":"view"},{"type":"function","name":"createPair","inputs":[{"name":"tokenA","type":"address","internalType":"address"},{"name":"tokenB","type":"address","internalType":"address"}],"outputs":[{"name":"pair","type":"address","internalType":"address"}],"stateMutability":"nonpayable"},{"type":"function","name":"feeInfo","inputs":[],"outputs":[{"name":"_ownerFeeShare","type":"uint256","internalType":"uint256"},{"name":"_feeTo","type":"address","internalType":"address"}],"stateMutability":"view"},{"type":"function","name":"feePercentOwner","inputs":[],"outputs":[{"name":"","type":"address","internalType":"address"}],"stateMutability":"view"},{"type":"function","name":"feeTo","inputs":[],"outputs":[{"name":"","type":"address","internalType":"address"}],"stateMutability":"view"},{"type":"function","name":"getPair","inputs":[{"name":"","type":"address","internalType":"address"},{"name":"","type":"address","internalType":"address"}],"outputs":[{"name":"","type":"address","internalType":"address"}],"stateMutability":"view"},{"type":"function","name":"owner","inputs":[],"outputs":[{"name":"","type":"address","internalType":"address"}],"stateMutability":"view"},{"type":"function","name":"ownerFeeShare","inputs":[],"outputs":[{"name":"","type":"uint256","internalType":"uint256"}],"stateMutability":"view"},{"type":"function","name":"referrersFeeShare","inputs":[{"name":"","type":"address","internalType":"address"}],"outputs":[{"name":"","type":"uint256","internalType":"uint256"}],"stateMutability":"view"},{"type":"function","name":"setFeePercentOwner","inputs":[{"name":"_feePercentOwner","type":"address","internalType":"address"}],"outputs":[],"stateMutability":"nonpayable"},{"type":"function","name":"setFeeTo","inputs":[{"name":"_feeTo","type":"address","internalType":"address"}],"outputs":[],"stateMutability":"nonpayable"},{"type":"function","name":"setOwner","inputs":[{"name":"_owner","type":"address","internalType":"address"}],"outputs":[],"stateMutability":"nonpayable"},{"type":"function","name":"setOwnerFeeShare","inputs":[{"name":"newOwnerFeeShare","type":"uint256","internalType":"uint256"}],"outputs":[],"stateMutability":"nonpayable"},{"type":"function","name":"setReferrerFeeShare","inputs":[{"name":"referrer","type":"address","internalType":"address"},{"name":"referrerFeeShare","type":"uint256","internalType":"uint256"}],"outputs":[],"stateMutability":"nonpayable"},{"type":"function","name":"setSetStableOwner","inputs":[{"name":"_setStableOwner","type":"address","internalType":"address"}],"outputs":[],"stateMutability":"nonpayable"},{"type":"function","name":"setStableOwner","inputs":[],"outputs":[{"name":"","type":"address","internalType":"address"}],"stateMutability":"view"},{"type":"event","name":"FeePercentOwnershipTransferred","inputs":[{"name":"prevOwner","type":"address","indexed":true,"internalType":"address"},{"name":"newOwner","type":"address","indexed":true,"internalType":"address"}],"anonymous":false},{"type":"event","name":"FeeToTransferred","inputs":[{"name":"prevFeeTo","type":"address","indexed":true,"internalType":"address"},{"name":"newFeeTo","type":"address","indexed":true,"internalType":"address"}],"anonymous":false},{"type":"event","name":"OwnerFeeShareUpdated","inputs":[{"name":"prevOwnerFeeShare","type":"uint256","indexed":false,"internalType":"uint256"},{"name":"ownerFeeShare","type":"uint256","indexed":false,"internalType":"uint256"}],"anonymous":false},{"type":"event","name":"OwnershipTransferred","inputs":[{"name":"prevOwner","type":"address","indexed":true,"internalType":"address"},{"name":"newOwner","type":"address","indexed":true,"internalType":"address"}],"anonymous":false},{"type":"event","name":"PairCreated","inputs":[{"name":"token0","type":"address","indexed":true,"internalType":"address"},{"name":"token1","type":"address","indexed":true,"internalType":"address"},{"name":"pair","type":"address","indexed":false,"internalType":"address"},{"name":"","type":"uint256","indexed":false,"internalType":"uint256"}],"anonymous":false},{"type":"event","name":"ReferrerFeeShareUpdated","inputs":[{"name":"referrer","type":"address","indexed":false,"internalType":"address"},{"name":"prevReferrerFeeShare","type":"uint256","indexed":false,"internalType":"uint256"},{"name":"referrerFeeShare","type":"uint256","indexed":false,"internalType":"uint256"}],"anonymous":false},{"type":"event","name":"SetStableOwnershipTransferred","inputs":[{"name":"prevOwner","type":"address","indexed":true,"internalType":"address"},{"name":"newOwner","type":"address","indexed":true,"internalType":"address"}],"anonymous":false}],"bytecode":{"object":"0x608060405261c350600455348015610015575f5ffd5b50604051614b84380380614b848339810160408190526100349161012f565b5f8054336001600160a01b0319918216811783556001805483168217905560028054831682179055600380549092166001600160a01b038516179091556040519091907f8be0079c531659141344cd1fd0a4f28419497f9722a3daafe3b4186f6b6457e0908290a360405133905f907ff14fcb76f5835c1d416cc224ffc209c65749cede0d23fd6e6035d4dd1c2e0f8c908290a360405133905f907fabdd76bd5d5532d19d3e93704ac3544f45f03dc956b39995d3436d2d166855e5908290a36040516001600160a01b038216905f907f941bed5eb8a4f7abb41f1a8547c6b5fded98a6fbe47dbd60aee080690de5f0d5908290a35061015c565b5f6020828403121561013f575f5ffd5b81516001600160a01b0381168114610155575f5ffd5b9392505050565b614a1b806101695f395ff3fe608060405234801561000f575f5ffd5b50600436106100ef575f3560e01c8063017e7e58146100f357806313af4035146101235780631850bd76146101385780631e3dd18b1461014f5780634c21771514610162578063574f2ba31461017557806369c8b5721461017d5780637183d47c146101865780638692fa7d146101a55780638da5cb5b146101b857806390fd0687146101ca57806391b83178146101d4578063995b5aae146101e7578063c1cf3c7f1461020a578063c9c653961461021d578063e6a4390514610230578063e93f658514610263578063f46901ed14610276578063fc39026a14610289575b5f5ffd5b600354610106906001600160a01b031681565b6040516001600160a01b0390911681526020015b60405180910390f35b610136610131366004610b56565b61029c565b005b610141614e2081565b60405190815260200161011a565b61010661015d366004610b76565b61034d565b600154610106906001600160a01b031681565b600754610141565b61014160045481565b610141610194366004610b56565b60056020525f908152604090205481565b6101366101b3366004610b56565b610375565b5f54610106906001600160a01b031681565b610141620186a081565b6101366101e2366004610b76565b61045b565b600454600354604080519283526001600160a01b0390911660208301520161011a565b610136610218366004610b8d565b61057b565b61010661022b366004610bb5565b6106ae565b61010661023e366004610bb5565b600660209081525f92835260408084209091529082529020546001600160a01b031681565b610136610271366004610b56565b610a00565b610136610284366004610b56565b610aaa565b600254610106906001600160a01b031681565b5f546001600160a01b031633146102ce5760405162461bcd60e51b81526004016102c590610be6565b60405180910390fd5b6001600160a01b0381166102f45760405162461bcd60e51b81526004016102c590610c2d565b5f80546040516001600160a01b03808516939216917f8be0079c531659141344cd1fd0a4f28419497f9722a3daafe3b4186f6b6457e091a35f80546001600160a01b0319166001600160a01b0392909216919091179055565b6007818154811061035c575f80fd5b5f918252602090912001546001600160a01b0316905081565b6002546001600160a01b031633146103da5760405162461bcd60e51b815260206004820152602260248201527f43616d656c6f74466163746f72793a206e6f7420736574537461626c654f776e60448201526132b960f11b60648201526084016102c5565b6001600160a01b0381166104005760405162461bcd60e51b81526004016102c590610c2d565b6002546040516001600160a01b038084169216907fabdd76bd5d5532d19d3e93704ac3544f45f03dc956b39995d3436d2d166855e5905f90a3600280546001600160a01b0319166001600160a01b0392909216919091179055565b5f546001600160a01b031633146104845760405162461bcd60e51b81526004016102c590610be6565b5f81116104dd5760405162461bcd60e51b815260206004820152603460248201525f5160206149c65f395f51905f5260448201527373746e277420657863656564206d696e696d756d60601b60648201526084016102c5565b620186a081111561053a5760405162461bcd60e51b815260206004820152603460248201525f5160206149c65f395f51905f5260448201527373746e277420657863656564206d6178696d756d60601b60648201526084016102c5565b60045460408051918252602082018390527fd739f5afb7778b0c4f4e62b13ac0a94ccc1556dbcb8dc2d0b907daed378e1e23910160405180910390a1600455565b5f546001600160a01b031633146105a45760405162461bcd60e51b81526004016102c590610be6565b6001600160a01b0382166105ca5760405162461bcd60e51b81526004016102c590610c2d565b614e2081111561063c5760405162461bcd60e51b815260206004820152603760248201527f43616d656c6f74466163746f72793a2072656665727265724665655368617265604482015276206d7573746e277420657863656564206d6178696d756d60481b60648201526084016102c5565b6001600160a01b0382165f818152600560209081526040918290205482519384529083015281018290527f4deb2bb31aaa8475916c8556f3e3287795da71076b7419d627eeef223b7dcc589060600160405180910390a16001600160a01b039091165f90815260056020526040902055565b5f816001600160a01b0316836001600160a01b03160361071c5760405162461bcd60e51b815260206004820152602360248201527f43616d656c6f74466163746f72793a204944454e544943414c5f41444452455360448201526253455360e81b60648201526084016102c5565b5f5f836001600160a01b0316856001600160a01b03161061073e578385610741565b84845b90925090506001600160a01b03821661079b5760405162461bcd60e51b815260206004820152601c60248201527b43616d656c6f74466163746f72793a205a45524f5f4144445245535360201b60448201526064016102c5565b6001600160a01b038281165f9081526006602090815260408083208585168452909152902054161561080d5760405162461bcd60e51b815260206004820152601b60248201527a43616d656c6f74466163746f72793a20504149525f45584953545360281b60448201526064016102c5565b5f6040518060200161081e90610b2e565b601f1982820381018352601f9091011660408190526001600160601b0319606086811b8216602084015285901b1660348201529091505f9061087790604801604051602081830303815290604052805160209091012090565b9050808251602084015ff594506001600160a01b0385166108d35760405162461bcd60e51b815260206004820152601660248201527510d85b595b1bdd119858dd1bdc9e4e8811905253115160521b60448201526064016102c5565b60405163485cc95560e01b81526001600160a01b038581166004830152848116602483015286169063485cc955906044015f604051808303815f87803b15801561091b575f5ffd5b505af115801561092d573d5f5f3e3d5ffd5b505050506001600160a01b038481165f8181526006602081815260408084208987168086529083528185208054978d166001600160a01b031998891681179091559383528185208686528352818520805488168517905560078054600181018255958190527fa66cc928b5edb82af9bd49922954155ab7b0942694bea4ce44661d9a8736c6889095018054909716841790965592548351928352908201527f0d3648bd0f6ba80134a33ba9275ac585d9d315f0ad8355cddefde31afa28d0e9910160405180910390a35050505092915050565b5f546001600160a01b03163314610a295760405162461bcd60e51b81526004016102c590610be6565b6001600160a01b038116610a4f5760405162461bcd60e51b81526004016102c590610c2d565b6001546040516001600160a01b038084169216907ff14fcb76f5835c1d416cc224ffc209c65749cede0d23fd6e6035d4dd1c2e0f8c905f90a3600180546001600160a01b0319166001600160a01b0392909216919091179055565b5f546001600160a01b03163314610ad35760405162461bcd60e51b81526004016102c590610be6565b6003546040516001600160a01b038084169216907f941bed5eb8a4f7abb41f1a8547c6b5fded98a6fbe47dbd60aee080690de5f0d5905f90a3600380546001600160a01b0319166001600160a01b0392909216919091179055565b613d6280610c6483390190565b80356001600160a01b0381168114610b51575f5ffd5b919050565b5f60208284031215610b66575f5ffd5b610b6f82610b3b565b9392505050565b5f60208284031215610b86575f5ffd5b5035919050565b5f5f60408385031215610b9e575f5ffd5b610ba783610b3b565b946020939093013593505050565b5f5f60408385031215610bc6575f5ffd5b610bcf83610b3b565b9150610bdd60208401610b3b565b90509250929050565b60208082526027908201527f43616d656c6f74466163746f72793a2063616c6c6572206973206e6f74207468604082015266329037bbb732b960c91b606082015260800190565b6020808252601c908201527b43616d656c6f74466163746f72793a207a65726f206164647265737360201b60408201526060019056fe6080604052600880546001600160e01b0316627d007d60e21b1790556001600d5534801561002b575f5ffd5b505f469050610057604051806080016040528060528152602001613d1060529139805160209091012090565b604080518082018252600a815269043616d656c6f74204c560b41b6020918201528151808301835260018152603160f81b908201528151808201939093527fd76c82bc6723d724b871e570045a7319276e62ab33aa5923ccca28a79bbf7411838301527fc89efdaa54c0f20c7adf612882df0950f5a951637e0307cdcb4c672f298b8bc6606084015260808301939093523060a0808401919091528151808403909101815260c090920190528051910120600355600580546001600160a01b03191633179055613be68061012a5f395ff3fe608060405234801561000f575f5ffd5b50600436106101ec575f3560e01c8063022c0d9f146101f057806306fdde03146102055780630902f1ac14610244578063095ea7b3146102815780630dfe1681146102a4578063158ef93e146102c457806318160ddd146102d857806323b872dd146102ee578063288e5d02146103015780632fcd16921461030a5780633029e5d41461033257806330adf81f14610345578063313ce567146103595780633644e515146103735780633b9f1dc01461037c5780633ba1707714610385578063485cc9551461038d57806348e5d260146103a057806362ecec03146103b357806367d81740146103c85780636a627842146103d15780636e1fdd7f146103e457806370a08231146103f75780637464fc3d146104165780637ecebe001461041f57806384b0196e1461043e57806389afcb441461045957806395d89b41146104815780639e548b7f146104a7578063a9059cbb146104b4578063b4f40c61146104c7578063b6200b07146104cf578063ba9a7a56146104e1578063bc25cf77146104ea578063c45a0155146104fd578063d21220a714610510578063d505accf14610523578063d73792a914610536578063dd62ed3e14610540578063f140a35a1461056a578063f39ac11f1461057d578063fff6cae914610590575b5f5ffd5b6102036101fe366004613452565b610598565b005b61022e6040518060400160405280600a815260200169043616d656c6f74204c560b41b81525081565b60405161023b91906134e4565b60405180910390f35b61024c61062e565b604080516001600160701b03958616815294909316602085015261ffff9182169284019290925216606082015260800161023b565b61029461028f3660046134f6565b610661565b604051901515815260200161023b565b6006546102b7906001600160a01b031681565b60405161023b9190613520565b60075461029490600160a01b900460ff1681565b6102e05f5481565b60405190815260200161023b565b6102946102fc366004613534565b610677565b6102e0600a5481565b60085461031f90600160f01b900461ffff1681565b60405161ffff909116815260200161023b565b610203610340366004613595565b61072f565b6102e05f516020613b315f395f51905f5281565b610361601281565b60405160ff909116815260200161023b565b6102e060035481565b6102e060095481565b610203610a0e565b61020361039b3660046135d7565b610b66565b6102036103ae36600461361f565b610cf6565b60085461031f90600160e01b900461ffff1681565b6102e06107d081565b6102e06103df366004613650565b610f4f565b6102036103f236600461366b565b611207565b6102e0610405366004613650565b60016020525f908152604090205481565b6102e0600b5481565b6102e061042d366004613650565b60046020525f908152604090205481565b6104466112a0565b60405161023b97969594939291906136e1565b61046c610467366004613650565b6112f0565b6040805192835260208301919091520161023b565b61022e604051806040016040528060078152602001660434d4c542d4c560cc1b81525081565b600c546102949060ff1681565b6102946104c23660046134f6565b611646565b6102e0611652565b600c5461029490610100900460ff1681565b6102e06103e881565b6102036104f8366004613650565b611679565b6005546102b7906001600160a01b031681565b6007546102b7906001600160a01b031681565b610203610531366004613785565b6117bc565b6102e0620186a081565b6102e061054e3660046135d7565b600260209081525f928352604080842090915290825290205481565b6102e06105783660046137f1565b6119c3565b61020361058b3660046135d7565b611a32565b610203611c23565b60408051610100810182526006546001600160a01b03908116825260075416602080830191909152818301889052606082018790525f6080830181905260a0830181905260c0830181905260e08301528251601f85018290048202810182019093528383529091610626918391879187908790819084018382808284375f9201829052509250611db2915050565b505050505050565b6008546001600160701b0380821692600160701b83049091169161ffff600160e01b8204811692600160f01b9092041690565b5f61066d3384846126c5565b5060015b92915050565b6001600160a01b0383165f9081526002602090815260408083203384529091528120545f1914610719576001600160a01b0384165f9081526002602090815260408083203384529091528120546106ce9084612713565b6001600160a01b0386165f81815260026020908152604080832033808552908352928190208590555184815293945090925f516020613b515f395f51905f52910160405180910390a3505b610724848484612768565b5060015b9392505050565b600d5460011461075a5760405162461bcd60e51b815260040161075190613814565b60405180910390fd5b5f600d5560055460408051637e1c813560e11b815290516001600160a01b039092169163fc39026a916004808201926020929091908290030181865afa1580156107a6573d5f5f3e3d5ffd5b505050506040513d601f19601f820116820180604052508101906107ca9190613841565b6001600160a01b0316336001600160a01b03161461083d5760405162461bcd60e51b815260206004820152602a60248201527f43616d656c6f74506169723a206f6e6c7920666163746f7279277320736574536044820152693a30b13632a7bbb732b960b11b6064820152608401610751565b600c54610100900460ff161561088e5760405162461bcd60e51b815260206004820152601660248201527543616d656c6f74506169723a20696d6d757461626c6560501b6044820152606401610751565b600c5460ff161515831515036108df5760405162461bcd60e51b815260206004820152601660248201527543616d656c6f74506169723a206e6f2075706461746560501b6044820152606401610751565b6008546001600160701b03838116911614801561091057506008546001600160701b03828116600160701b90920416145b6109525760405162461bcd60e51b815260206004820152601360248201527210d85b595b1bdd14185a5c8e8819985a5b1959606a1b6044820152606401610751565b6008545f90610974906001600160701b0380821691600160701b9004166127f8565b600c546040805160ff9092161515825286151560208301529192507fb6a86710bde53aa7fb1b3856279e2af5b476d53e2dd0902cf17a0911b5a43a8b910160405180910390a1600c805460ff1916851580159190911790915584906109d65750805b6109e0575f610a00565b600854610a00906001600160701b0380821691600160701b90041661296c565b600b5550506001600d555050565b600d54600114610a305760405162461bcd60e51b815260040161075190613814565b5f600d5560055460408051638da5cb5b60e01b815290516001600160a01b0390921691638da5cb5b916004808201926020929091908290030181865afa158015610a7c573d5f5f3e3d5ffd5b505050506040513d601f19601f82011682018060405250810190610aa09190613841565b6001600160a01b0316336001600160a01b031614610ad05760405162461bcd60e51b81526004016107519061385c565b600c54610100900460ff1615610b285760405162461bcd60e51b815260206004820152601e60248201527f43616d656c6f74506169723a20616c726561647920696d6d757461626c6500006044820152606401610751565b600c805461ff0019166101001790556040517f09122c41ae733a4d7740324d50e35fbd6ee85be3c1312a45596d8045150ab2f2905f90a16001600d55565b6005546001600160a01b031633148015610b8a5750600754600160a01b900460ff16155b610bcf5760405162461bcd60e51b815260206004820152601660248201527521b0b6b2b637ba2830b4b91d102327a92124a22222a760511b6044820152606401610751565b600680546001600160a01b038085166001600160a01b0319928316811790935560078054918516919092161790556040805163313ce56760e01b8152905163313ce567916004808201926020929091908290030181865afa158015610c36573d5f5f3e3d5ffd5b505050506040513d601f19601f82011682018060405250810190610c5a919061389d565b610c689060ff16600a6139af565b600981905550806001600160a01b031663313ce5676040518163ffffffff1660e01b8152600401602060405180830381865afa158015610caa573d5f5f3e3d5ffd5b505050506040513d601f19601f82011682018060405250810190610cce919061389d565b610cdc9060ff16600a6139af565b600a5550506007805460ff60a01b1916600160a01b179055565b600d54600114610d185760405162461bcd60e51b815260040161075190613814565b5f600d5560055460408051634c21771560e01b815290516001600160a01b0390921691634c217715916004808201926020929091908290030181865afa158015610d64573d5f5f3e3d5ffd5b505050506040513d601f19601f82011682018060405250810190610d889190613841565b6001600160a01b0316336001600160a01b031614610dfb5760405162461bcd60e51b815260206004820152602a60248201527f43616d656c6f74506169723a206f6e6c7920666163746f72792773206665654160448201526936b7bab73a27bbb732b960b11b6064820152608401610751565b6107d08261ffff1611158015610e1757506107d08161ffff1611155b610e6b5760405162461bcd60e51b815260206004820152603260248201525f516020613b915f395f51905f5260448201527165786365656420746865206d6178696d756d60701b6064820152608401610751565b5f8261ffff16118015610e8157505f8161ffff16115b610ed55760405162461bcd60e51b815260206004820152603260248201525f516020613b915f395f51905f5260448201527165786365656420746865206d696e696d756d60701b6064820152608401610751565b600880546001600160e01b0316600160e01b61ffff8581169182026001600160f01b031692909217600160f01b928516928302179092556040805192835260208301919091527fa4877b8ecb5a00ba277e4bceeeb187a669e7113649774dfbea05c259ce27f17b910160405180910390a150506001600d55565b5f600d54600114610f725760405162461bcd60e51b815260040161075190613814565b5f600d81905580610f8161062e565b50506006546040516370a0823160e01b81529294509092505f916001600160a01b03909116906370a0823190610fbb903090600401613520565b602060405180830381865afa158015610fd6573d5f5f3e3d5ffd5b505050506040513d601f19601f82011682018060405250810190610ffa91906139ba565b6007546040516370a0823160e01b81529192505f916001600160a01b03909116906370a082319061102f903090600401613520565b602060405180830381865afa15801561104a573d5f5f3e3d5ffd5b505050506040513d601f19601f8201168201806040525081019061106e91906139ba565b90505f611084836001600160701b038716612713565b90505f61109a836001600160701b038716612713565b90505f6110a787876127f8565b5f80549192508190036110e5576110d26103e86110cc6110c78787612a4e565b612ab4565b90612713565b98506110e05f6103e8612b22565b61112c565b6111296001600160701b0389166110fc8684612a4e565b61110691906139d1565b6001600160701b03891661111a8685612a4e565b61112491906139d1565b612b9b565b98505b5f891161117b5760405162461bcd60e51b815260206004820152602a60248201525f516020613b715f395f51905f5260448201526912551657d3525395115160b21b6064820152608401610751565b6111858a8a612b22565b61118f8686612bb0565b81156111b9576008546111b5906001600160701b0380821691600160701b90041661296c565b600b555b604080518581526020810185905233917f4c209b5fc8ad50758f13e2e1088ba56a560dff690a1c6fef26394f4c03821c4f910160405180910390a250506001600d5550949695505050505050565b60408051610100810182526006546001600160a01b03908116825260075416602080830191909152818301899052606082018890525f6080830181905260a0830181905260c0830181905260e08301528251601f86018290048202810182019093528483529091611297918391889188908890819084018382808284375f92019190915250889250611db2915050565b50505050505050565b5f6060805f5f5f60605f6112b2612c7c565b90506112bd81612cc8565b6112c682612cdd565b604080515f80825260208201909252600f60f81b9c939b5091995046985030975095509350915050565b5f5f600d546001146113145760405162461bcd60e51b815260040161075190613814565b5f600d8190558061132361062e565b50506006546007546040516370a0823160e01b81529395509193506001600160a01b03908116929116905f9083906370a0823190611365903090600401613520565b602060405180830381865afa158015611380573d5f5f3e3d5ffd5b505050506040513d601f19601f820116820180604052508101906113a491906139ba565b90505f826001600160a01b03166370a08231306040518263ffffffff1660e01b81526004016113d39190613520565b602060405180830381865afa1580156113ee573d5f5f3e3d5ffd5b505050506040513d601f19601f8201168201806040525081019061141291906139ba565b305f9081526001602052604081205491925061142e88886127f8565b5f549091508061143e8487612a4e565b61144891906139d1565b9a50806114558486612a4e565b61145f91906139d1565b99505f8b11801561146f57505f8a115b6114bb5760405162461bcd60e51b815260206004820152602a60248201525f516020613b715f395f51905f5260448201526912551657d0955493915160b21b6064820152608401610751565b6114c53084612cf2565b6114d0878d8d612d66565b6114db868d8c612d66565b6040516370a0823160e01b81526001600160a01b038816906370a0823190611507903090600401613520565b602060405180830381865afa158015611522573d5f5f3e3d5ffd5b505050506040513d601f19601f8201168201806040525081019061154691906139ba565b6040516370a0823160e01b81529095506001600160a01b038716906370a0823190611575903090600401613520565b602060405180830381865afa158015611590573d5f5f3e3d5ffd5b505050506040513d601f19601f820116820180604052508101906115b491906139ba565b93506115c08585612bb0565b81156115ea576008546115e6906001600160701b0380821691600160701b90041661296c565b600b555b604080518c8152602081018c90526001600160a01b038e169133917fdccd412f0b1252819cb1fd330b93224ca42612892bb3f4f789976e6d81936496910160405180910390a35050505050505050506001600d81905550915091565b5f61066d338484612768565b6008545f90611674906001600160701b0380821691600160701b90041661296c565b905090565b600d5460011461169b5760405162461bcd60e51b815260040161075190613814565b5f600d556006546007546008546040516370a0823160e01b81526001600160a01b0393841693909216916117379184918691611732916001600160701b039091169084906370a08231906116f3903090600401613520565b602060405180830381865afa15801561170e573d5f5f3e3d5ffd5b505050506040513d601f19601f820116820180604052508101906110cc91906139ba565b612d66565b61178a81846117326008600e9054906101000a90046001600160701b03166001600160701b0316856001600160a01b03166370a08231306040518263ffffffff1660e01b81526004016116f39190613520565b6040517f21ad22495c9c75cd1c94756f91824e779c0c8a8e168b267c790df464fe056b79905f90a150506001600d5550565b428410156118015760405162461bcd60e51b8152602060048201526012602482015271155b9a5cddd85c158c8e881156141254915160721b6044820152606401610751565b6003546001600160a01b0388165f908152600460205260408120805491926118d79290915f516020613b315f395f51905f52918c918c918c9188611844836139f0565b909155506040805160208101969096526001600160a01b0394851690860152929091166060840152608083015260a082015260c0810188905260e001604051602081830303815290604052805190602001206040516020016118bd92919061190160f01b81526002810192909252602282015260420190565b604051602081830303815290604052805160209091012090565b604080515f8082526020820180845284905260ff88169282019290925260608101869052608081018590529192509060019060a0016020604051602081039080840390855afa15801561192c573d5f5f3e3d5ffd5b5050604051601f1901519150506001600160a01b038116158015906119625750886001600160a01b0316816001600160a01b0316145b6119ad5760405162461bcd60e51b815260206004820152601c60248201527b556e697377617056323a20494e56414c49445f5349474e415455524560201b6044820152606401610751565b6119b88989896126c5565b505050505050505050565b6006545f9081906001600160a01b038481169116146119ef57600854600160f01b900461ffff166119fe565b600854600160e01b900461ffff165b600854909150611a2a90859085906001600160701b0380821691600160701b90041661ffff8616612ea7565b949350505050565b600d54600114611a545760405162461bcd60e51b815260040161075190613814565b5f600d5560055460408051638da5cb5b60e01b815290516001600160a01b0390921691638da5cb5b916004808201926020929091908290030181865afa158015611aa0573d5f5f3e3d5ffd5b505050506040513d601f19601f82011682018060405250810190611ac49190613841565b6001600160a01b0316336001600160a01b031614611af45760405162461bcd60e51b81526004016107519061385c565b6006546001600160a01b03838116911614801590611b2057506007546001600160a01b03838116911614155b611b695760405162461bcd60e51b815260206004820152601a60248201527921b0b6b2b637ba2830b4b91d1034b73b30b634b2103a37b5b2b760311b6044820152606401610751565b611bd98282846001600160a01b03166370a08231306040518263ffffffff1660e01b8152600401611b9a9190613520565b602060405180830381865afa158015611bb5573d5f5f3e3d5ffd5b505050506040513d601f19601f8201168201806040525081019061173291906139ba565b816001600160a01b03167f368a9dc863ecb94b5ba32a682e26295b10d9c2666fad7d785ebdf262c3c5241382604051611c129190613520565b60405180910390a250506001600d55565b600d54600114611c455760405162461bcd60e51b815260040161075190613814565b5f600d8190556006546040516370a0823160e01b81526001600160a01b03909116906370a0823190611c7b903090600401613520565b602060405180830381865afa158015611c96573d5f5f3e3d5ffd5b505050506040513d601f19601f82011682018060405250810190611cba91906139ba565b6007546040516370a0823160e01b81529192505f916001600160a01b03909116906370a0823190611cef903090600401613520565b602060405180830381865afa158015611d0a573d5f5f3e3d5ffd5b505050506040513d601f19601f82011682018060405250810190611d2e91906139ba565b90508115801590611d3e57508015155b611d9f5760405162461bcd60e51b815260206004820152602c60248201527f43616d656c6f74506169723a206c697175696469747920726174696f206e6f7460448201526b081a5b9a5d1a585b1a5e995960a21b6064820152608401610751565b611da98282612bb0565b50506001600d55565b600d54600114611dd45760405162461bcd60e51b815260040161075190613814565b5f600d556040840151151580611ded57505f8460600151115b611e495760405162461bcd60e51b815260206004820152602760248201527f43616d656c6f74506169723a20494e53554646494349454e545f4f555450555460448201526617d05353d5539560ca1b6064820152608401610751565b5f5f5f5f611e5561062e565b9350935093509350836001600160701b03168860400151108015611e855750826001600160701b03168860600151105b611eca5760405162461bcd60e51b815260206004820152602360248201525f516020613b715f395f51905f5260448201526249545960e81b6064820152608401610751565b87516001600160a01b03888116911614801590611efd575087602001516001600160a01b0316876001600160a01b031614155b611f435760405162461bcd60e51b815260206004820152601760248201527643616d656c6f74506169723a20494e56414c49445f544f60481b6044820152606401610751565b604088015115611f5f57611f5f885f0151888a60400151612d66565b606088015115611f7c57611f7c8860200151888a60600151612d66565b855115611fea5760408089015160608a015191516304347a1760e21b81526001600160a01b038a16926310d1e85c92611fbc923392908c90600401613a08565b5f604051808303815f87803b158015611fd3575f5ffd5b505af1158015611fe5573d5f5f3e3d5ffd5b505050505b87516040516370a0823160e01b81526001600160a01b03909116906370a0823190612019903090600401613520565b602060405180830381865afa158015612034573d5f5f3e3d5ffd5b505050506040513d601f19601f8201168201806040525081019061205891906139ba565b608089015260208801516040516370a0823160e01b81526001600160a01b03909116906370a082319061208f903090600401613520565b602060405180830381865afa1580156120aa573d5f5f3e3d5ffd5b505050506040513d601f19601f820116820180604052508101906120ce91906139ba565b60a089015260408801515f906120ed906001600160701b038716613a3e565b8960800151116120fd575f612124565b6040890151612115906001600160701b038716613a3e565b89608001516121249190613a3e565b90505f8960600151856001600160701b03166121409190613a3e565b8a60a0015111612150575f612177565b60608a0151612168906001600160701b038716613a3e565b8a60a001516121779190613a3e565b90505f82118061218657505f81115b6121e15760405162461bcd60e51b815260206004820152602660248201527f43616d656c6f74506169723a20494e53554646494349454e545f494e5055545f604482015265105353d5539560d21b6064820152608401610751565b620186a06121f38361ffff8716612a4e565b6121fd91906139d1565b60c08b0152620186a06122148261ffff8616612a4e565b61221e91906139d1565b60e08b01525f806001600160a01b038916612239575f6122a8565b600554604051631c60f51f60e21b81526001600160a01b0390911690637183d47c90612269908c90600401613520565b602060405180830381865afa158015612284573d5f5f3e3d5ffd5b505050506040513d601f19601f820116820180604052508101906122a891906139ba565b9050801561236157831561230a576122c46002620186a0613a51565b6122dc61ffff88166122d68785612a4e565b90612a4e565b6122e691906139d1565b60c08d01519092506122f89083612713565b60c08d01528b5161230a908a84612d66565b82156123615761231e6002620186a0613a51565b61233061ffff87166122d68685612a4e565b61233a91906139d1565b60e08d015190925061234c9083612713565b60e08d015260208c0151612361908a84612d66565b600c5460ff16156124ac5760055460408051634cadad5760e11b815281515f9384936001600160a01b039091169263995b5aae92600480830193928290030181865afa1580156123b3573d5f5f3e3d5ffd5b505050506040513d601f19601f820116820180604052508101906123d79190613a5f565b90925090506001600160a01b038116156124a9576123fc826122d6620186a086612713565b91508515612452576124126003620186a0613a51565b61242461ffff8a166122d68986612a4e565b61242e91906139d1565b60c08f01519094506124409085612713565b60c08f01528d51612452908286612d66565b84156124a9576124666003620186a0613a51565b61247861ffff89166122d68886612a4e565b61248291906139d1565b60e08f01519094506124949085612713565b60e08f015260208e01516124a9908286612d66565b50505b8315612526578b516040516370a0823160e01b81526001600160a01b03909116906370a08231906124e1903090600401613520565b602060405180830381865afa1580156124fc573d5f5f3e3d5ffd5b505050506040513d601f19601f8201168201806040525081019061252091906139ba565b60808d01525b82156125a1578b602001516001600160a01b03166370a08231306040518263ffffffff1660e01b815260040161255c9190613520565b602060405180830381865afa158015612577573d5f5f3e3d5ffd5b505050506040513d601f19601f8201168201806040525081019061259b91906139ba565b60a08d01525b50505f6125bf8b60c001518c6080015161271390919063ffffffff16565b90505f6125dd8c60e001518d60a0015161271390919063ffffffff16565b90506125fb886001600160701b0316886001600160701b031661296c565b612605838361296c565b10156126445760405162461bcd60e51b815260206004820152600e60248201526d43616d656c6f74506169723a204b60901b6044820152606401610751565b50506126588a608001518b60a00151612bb0565b6040808b01516060808d0151835186815260208101869052938401929092528201526001600160a01b038a169033907fd78ad95fa46c994b6551d0da85fc275fe613ce37657fb8d5e3d130840159d8229060800160405180910390a350506001600d555050505050505050565b6001600160a01b038381165f8181526002602090815260408083209487168084529482529182902085905590518481525f516020613b515f395f51905f5291015b60405180910390a3505050565b5f8261271f8382613a3e565b91508111156106715760405162461bcd60e51b815260206004820152601560248201527464732d6d6174682d7375622d756e646572666c6f7760581b6044820152606401610751565b6001600160a01b0383165f9081526001602052604090205461278a9082612713565b6001600160a01b038085165f9081526001602052604080822093909355908416815220546127b89082613093565b6001600160a01b038084165f8181526001602052604090819020939093559151908516905f516020613b115f395f51905f52906127069085815260200190565b600c545f9060ff161561280c57505f610671565b60055460408051634cadad5760e11b815281515f9384936001600160a01b039091169263995b5aae92600480830193928290030181865afa158015612853573d5f5f3e3d5ffd5b505050506040513d601f19601f820116820180604052508101906128779190613a5f565b600b546001600160a01b038216158015965092945090925090612958578015612953575f6128ba6110c7886001600160701b0316886001600160701b031661296c565b90505f6128c683612ab4565b905080821115612950575f6128ee6064876128e4620186a083612a4e565b6110cc91906139d1565b90505f61290b60646122d66129038787612713565b5f5490612a4e565b90505f61292c61291c856064612a4e565b6129268786612a4e565b90613093565b90505f61293982846139d1565b9050801561294b5761294b8882612b22565b505050505b50505b612963565b8015612963575f600b555b50505092915050565b600c545f9060ff1615612a48576009545f9061299085670de0b6b3a7640000612a4e565b61299a91906139d1565b600a549091505f906129b485670de0b6b3a7640000612a4e565b6129be91906139d1565b90505f670de0b6b3a76400006129d48484612a4e565b6129de91906139d1565b90505f612a1e670de0b6b3a76400006129f78580612a4e565b612a0191906139d1565b670de0b6b3a7640000612a148780612a4e565b61292691906139d1565b9050670de0b6b3a7640000612a338383612a4e565b612a3d91906139d1565b945050505050610671565b61072883835b5f811580612a7157508282612a638183613a83565b9250612a6f90836139d1565b145b6106715760405162461bcd60e51b815260206004820152601460248201527364732d6d6174682d6d756c2d6f766572666c6f7760601b6044820152606401610751565b5f6003821115612b135750805f612acc6002836139d1565b612ad7906001613a9a565b90505b81811015612b0d57905080600281612af281866139d1565b612afc9190613a9a565b612b0691906139d1565b9050612ada565b50919050565b8115612b1d575060015b919050565b5f54612b2e9082613093565b5f9081556001600160a01b038316815260016020526040902054612b529082613093565b6001600160a01b0383165f818152600160205260408082209390935591519091905f516020613b115f395f51905f5290612b8f9085815260200190565b60405180910390a35050565b5f818310612ba95781610728565b5090919050565b6001600160701b038211801590612bce57506001600160701b038111155b612c125760405162461bcd60e51b815260206004820152601560248201527443616d656c6f74506169723a204f564552464c4f5760581b6044820152606401610751565b600880546001600160701b038481166001600160e01b03199092168217600160701b918516918202179092556040805191825260208201929092527f1c411e9a96e071241c2f21f7726b17ae89e3cab4c78be50e062b03a9fffbbad1910160405180910390a15050565b5f611674604051602001612caf906020808252600b908201526a32b4b81732b4b8171b989960a91b604082015260600190565b6040516020818303038152906040528051906020012090565b600581015460609061067190600784016130e7565b600681015460609061067190600884016130e7565b6001600160a01b0382165f90815260016020526040902054612d149082612713565b6001600160a01b0383165f9081526001602052604081209190915554612d3a9082612713565b5f9081556040518281526001600160a01b038416905f516020613b115f395f51905f5290602001612b8f565b60408051808201825260198152787472616e7366657228616464726573732c75696e743235362960381b60209182015281516001600160a01b0385811660248301526044808301869052845180840390910181526064909201845291810180516001600160e01b031663a9059cbb60e01b17905291515f928392871691612ded9190613aad565b5f604051808303815f865af19150503d805f8114612e26576040519150601f19603f3d011682016040523d82523d5f602084013e612e2b565b606091505b5091509150818015612e55575080511580612e55575080806020019051810190612e559190613ac3565b612ea05760405162461bcd60e51b815260206004820152601c60248201527b10d85b595b1bdd14185a5c8e881514905394d1915497d1905253115160221b6044820152606401610751565b5050505050565b600c545f9060ff161561301857612ed6620186a0612ec58885612a4e565b612ecf91906139d1565b8790612713565b95505f612ee3858561296c565b600954909150612efb86670de0b6b3a7640000613a83565b612f0591906139d1565b600a54909550612f1d85670de0b6b3a7640000613a83565b612f2791906139d1565b6006549094505f9081906001600160a01b03898116911614612f4a578587612f4d565b86865b60065491935091506001600160a01b03898116911614612f8b57600a54612f7c8a670de0b6b3a7640000613a83565b612f8691906139d1565b612faa565b600954612fa08a670de0b6b3a7640000613a83565b612faa91906139d1565b98505f612fc1612fba848c613a9a565b8584613190565b612fcb9083613a3e565b600654909150670de0b6b3a7640000906001600160a01b038b8116911614612ff557600954612ff9565b600a545b6130039083613a83565b61300d91906139d1565b94505050505061308a565b6006545f9081906001600160a01b0388811691161461303857848661303b565b85855b9092509050613057613050620186a086612713565b8990612a4e565b97505f61306b8961292685620186a0612a4e565b6130758a84612a4e565b61307f91906139d1565b935061308a92505050565b95945050505050565b5f8261309f8382613a9a565b91508110156106715760405162461bcd60e51b815260206004820152601460248201527364732d6d6174682d6164642d6f766572666c6f7760601b6044820152606401610751565b606060ff8314613101576130fa83613290565b9050610671565b81805461310d90613ade565b80601f016020809104026020016040519081016040528092919081815260200182805461313990613ade565b80156131845780601f1061315b57610100808354040283529160200191613184565b820191905f5260205f20905b81548152906001019060200180831161316757829003601f168201915b50505050509050610671565b5f805b60ff81101561328757825f6131a887836132cd565b9050858110156131f7575f6131bd8887613369565b6131c78389613a3e565b6131d990670de0b6b3a7640000613a83565b6131e391906139d1565b90506131ef8187613a9a565b955050613238565b5f6132028887613369565b61320c8884613a3e565b61321e90670de0b6b3a7640000613a83565b61322891906139d1565b90506132348187613a3e565b9550505b8185111561326157600161324c8387613a3e565b1161325c57849350505050610728565b61327d565b600161326d8684613a3e565b1161327d57849350505050610728565b5050600101613193565b50909392505050565b60605f61329c836133d0565b6040805160208082528183019092529192505f91906020820181803683375050509182525060208101929092525090565b5f670de0b6b3a7640000828185816132e58280613a83565b6132ef91906139d1565b6132f99190613a83565b61330391906139d1565b61330d9190613a83565b61331791906139d1565b670de0b6b3a764000080848161332d8280613a83565b61333791906139d1565b6133419190613a83565b61334b91906139d1565b6133559086613a83565b61335f91906139d1565b6107289190613a9a565b5f670de0b6b3a7640000838161337f8280613a83565b61338991906139d1565b6133939190613a83565b61339d91906139d1565b670de0b6b3a7640000806133b18580613a83565b6133bb91906139d1565b6133c6866003613a83565b6133559190613a83565b5f60ff8216601f81111561067157604051632cd44ac360e21b815260040160405180910390fd5b6001600160a01b038116811461340b575f5ffd5b50565b5f5f83601f84011261341e575f5ffd5b5081356001600160401b03811115613434575f5ffd5b60208301915083602082850101111561344b575f5ffd5b9250929050565b5f5f5f5f5f60808688031215613466575f5ffd5b8535945060208601359350604086013561347f816133f7565b925060608601356001600160401b03811115613499575f5ffd5b6134a58882890161340e565b969995985093965092949392505050565b5f81518084528060208401602086015e5f602082860101526020601f19601f83011685010191505092915050565b602081525f61072860208301846134b6565b5f5f60408385031215613507575f5ffd5b8235613512816133f7565b946020939093013593505050565b6001600160a01b0391909116815260200190565b5f5f5f60608486031215613546575f5ffd5b8335613551816133f7565b92506020840135613561816133f7565b929592945050506040919091013590565b801515811461340b575f5ffd5b80356001600160701b0381168114612b1d575f5ffd5b5f5f5f606084860312156135a7575f5ffd5b83356135b281613572565b92506135c06020850161357f565b91506135ce6040850161357f565b90509250925092565b5f5f604083850312156135e8575f5ffd5b82356135f3816133f7565b91506020830135613603816133f7565b809150509250929050565b803561ffff81168114612b1d575f5ffd5b5f5f60408385031215613630575f5ffd5b6136398361360e565b91506136476020840161360e565b90509250929050565b5f60208284031215613660575f5ffd5b8135610728816133f7565b5f5f5f5f5f5f60a08789031215613680575f5ffd5b86359550602087013594506040870135613699816133f7565b935060608701356001600160401b038111156136b3575f5ffd5b6136bf89828a0161340e565b90945092505060808701356136d3816133f7565b809150509295509295509295565b60ff60f81b8816815260e060208201525f6136ff60e08301896134b6565b828103604084015261371181896134b6565b606084018890526001600160a01b038716608085015260a0840186905283810360c0850152845180825260208087019350909101905f5b81811015613766578351835260209384019390920191600101613748565b50909b9a5050505050505050505050565b60ff8116811461340b575f5ffd5b5f5f5f5f5f5f5f60e0888a03121561379b575f5ffd5b87356137a6816133f7565b965060208801356137b6816133f7565b9550604088013594506060880135935060808801356137d481613777565b9699959850939692959460a0840135945060c09093013592915050565b5f5f60408385031215613802575f5ffd5b823591506020830135613603816133f7565b60208082526013908201527210d85b595b1bdd14185a5c8e881313d0d2d151606a1b604082015260600190565b5f60208284031215613851575f5ffd5b8151610728816133f7565b60208082526021908201527f43616d656c6f74506169723a206f6e6c7920666163746f72792773206f776e656040820152603960f91b606082015260800190565b5f602082840312156138ad575f5ffd5b815161072881613777565b634e487b7160e01b5f52601160045260245ffd5b6001815b6001841115613907578085048111156138eb576138eb6138b8565b60018416156138f957908102905b60019390931c9280026138d0565b935093915050565b5f8261391d57506001610671565b8161392957505f610671565b816001811461393f576002811461394957613965565b6001915050610671565b60ff84111561395a5761395a6138b8565b50506001821b610671565b5060208310610133831016604e8410600b8410161715613988575081810a610671565b6139945f1984846138cc565b805f19048211156139a7576139a76138b8565b029392505050565b5f610728838361390f565b5f602082840312156139ca575f5ffd5b5051919050565b5f826139eb57634e487b7160e01b5f52601260045260245ffd5b500490565b5f60018201613a0157613a016138b8565b5060010190565b60018060a01b0385168152836020820152826040820152608060608201525f613a3460808301846134b6565b9695505050505050565b81810381811115610671576106716138b8565b5f61072860ff84168361390f565b5f5f60408385031215613a70575f5ffd5b82516020840151909250613603816133f7565b8082028115828204841417610671576106716138b8565b80820180821115610671576106716138b8565b5f82518060208501845e5f920191825250919050565b5f60208284031215613ad3575f5ffd5b815161072881613572565b600181811c90821680613af257607f821691505b602082108103612b0d57634e487b7160e01b5f52602260045260245ffdfeddf252ad1be2c89b69c2b068fc378daa952ba7f163c4a11628f55a4df523b3ef6e71edae12b1b97f4d1f60370fef10105fa2faae0126114a169c64845d6126c98c5be1e5ebec7d5bd14f71427d1e84f3dd0314c0f7b2291e5b200ac8c7c3b92543616d656c6f74506169723a20494e53554646494349454e545f4c495155494443616d656c6f74506169723a2066656550657263656e74206d7573746e277420a26469706673582212203802bccf7ed2aedbdbaadf72f14977e2ef925bd9255b2bdc2ae72075d2e260fa64736f6c634300081e0033454950373132446f6d61696e28737472696e67206e616d652c737472696e672076657273696f6e2c75696e7432353620636861696e49642c6164647265737320766572696679696e67436f6e74726163742943616d656c6f74466163746f72793a206f776e65724665655368617265206d75a264697066735822122092269868498e1f8d6e13a5fb3813991c3990d3ba0d538c704688443480e25b7f64736f6c634300081e0033","linkReferences":{}},"methodIdentifiers":{"OWNER_FEE_SHARE_MAX()":"90fd0687","REFERER_FEE_SHARE_MAX()":"1850bd76","allPairs(uint256)":"1e3dd18b","allPairsLength()":"574f2ba3","createPair(address,address)":"c9c65396","feeInfo()":"995b5aae","feePercentOwner()":"4c217715","feeTo()":"017e7e58","getPair(address,address)":"e6a43905","owner()":"8da5cb5b","ownerFeeShare()":"69c8b572","referrersFeeShare(address)":"7183d47c","setFeePercentOwner(address)":"e93f6585","setFeeTo(address)":"f46901ed","setOwner(address)":"13af4035","setOwnerFeeShare(uint256)":"91b83178","setReferrerFeeShare(address,uint256)":"c1cf3c7f","setSetStableOwner(address)":"8692fa7d","setStableOwner()":"fc39026a"},"id":26}