{"abi":[{"type":"constructor","inputs":[{"name":"feeTo_","type":"address","internalType":"address"}],"stateMutability":"nonpayable"},{"type":"function","name":"OWNER_FEE_SHARE_MAX","inputs":[],"outputs":[{"name":"","type":"uint256","internalType":"uint256"}],"stateMutability":"view"},{"type":"function","name":"REFERER_FEE_SHARE_MAX","inputs":[],"outputs":[{"name":"","type":"uint256","internalType":"uint256"}],"stateMutability":"view"},{"type":"function","name":"allPairs","inputs":[{"name":"","type":"uint256","internalType":"uint256"}],"outputs":[{"name":"","type":"address","internalType":"address"}],"stateMutability":"view"},{"type":"function","name":"allPairsLength","inputs":[],"outputs":[{"name":"","type":"uint256","internalType":"uint256"}],"stateMutability":"view"},{"type":"function","name":"createPair","inputs":[{"name":"tokenA","type":"address","internalType":"address"},{"name":"tokenB","type":"address","internalType":"address"}],"outputs":[{"name":"pair","type":"address","internalType":"address"}],"stateMutability":"nonpayable"},{"type":"function","name":"feeInfo","inputs":[],"outputs":[{"name":"_ownerFeeShare","type":"uint256","internalType":"uint256"},{"name":"_feeTo","type":"address","internalType":"address"}],"stateMutability":"view"},{"type":"function","name":"feePercentOwner","inputs":[],"outputs":[{"name":"","type":"address","internalType":"address"}],"stateMutability":"view"},{"type":"function","name":"feeTo","inputs":[],"outputs":[{"name":"","type":"address","internalType":"address"}],"stateMutability":"view"},{"type":"function","name":"getPair","inputs":[{"name":"","type":"address","internalType":"address"},{"name":"","type":"address","internalType":"address"}],"outputs":[{"name":"","type":"address","internalType":"address"}],"stateMutability":"view"},{"type":"function","name":"owner","inputs":[],"outputs":[{"name":"","type":"address","internalType":"address"}],"stateMutability":"view"},{"type":"function","name":"ownerFeeShare","inputs":[],"outputs":[{"name":"","type":"uint256","internalType":"uint256"}],"stateMutability":"view"},{"type":"function","name":"referrersFeeShare","inputs":[{"name":"","type":"address","internalType":"address"}],"outputs":[{"name":"","type":"uint256","internalType":"uint256"}],"stateMutability":"view"},{"type":"function","name":"setFeePercentOwner","inputs":[{"name":"_feePercentOwner","type":"address","internalType":"address"}],"outputs":[],"stateMutability":"nonpayable"},{"type":"function","name":"setFeeTo","inputs":[{"name":"_feeTo","type":"address","internalType":"address"}],"outputs":[],"stateMutability":"nonpayable"},{"type":"function","name":"setOwner","inputs":[{"name":"_owner","type":"address","internalType":"address"}],"outputs":[],"stateMutability":"nonpayable"},{"type":"function","name":"setOwnerFeeShare","inputs":[{"name":"newOwnerFeeShare","type":"uint256","internalType":"uint256"}],"outputs":[],"stateMutability":"nonpayable"},{"type":"function","name":"setReferrerFeeShare","inputs":[{"name":"referrer","type":"address","internalType":"address"},{"name":"referrerFeeShare","type":"uint256","internalType":"uint256"}],"outputs":[],"stateMutability":"nonpayable"},{"type":"function","name":"setSetStableOwner","inputs":[{"name":"_setStableOwner","type":"address","internalType":"address"}],"outputs":[],"stateMutability":"nonpayable"},{"type":"function","name":"setStableOwner","inputs":[],"outputs":[{"name":"","type":"address","internalType":"address"}],"stateMutability":"view"},{"type":"event","name":"FeePercentOwnershipTransferred","inputs":[{"name":"prevOwner","type":"address","indexed":true,"internalType":"address"},{"name":"newOwner","type":"address","indexed":true,"internalType":"address"}],"anonymous":false},{"type":"event","name":"FeeToTransferred","inputs":[{"name":"prevFeeTo","type":"address","indexed":true,"internalType":"address"},{"name":"newFeeTo","type":"address","indexed":true,"internalType":"address"}],"anonymous":false},{"type":"event","name":"OwnerFeeShareUpdated","inputs":[{"name":"prevOwnerFeeShare","type":"uint256","indexed":false,"internalType":"uint256"},{"name":"ownerFeeShare","type":"uint256","indexed":false,"internalType":"uint256"}],"anonymous":false},{"type":"event","name":"OwnershipTransferred","inputs":[{"name":"prevOwner","type":"address","indexed":true,"internalType":"address"},{"name":"newOwner","type":"address","indexed":true,"internalType":"address"}],"anonymous":false},{"type":"event","name":"PairCreated","inputs":[{"name":"token0","type":"address","indexed":true,"internalType":"address"},{"name":"token1","type":"address","indexed":true,"internalType":"address"},{"name":"pair","type":"address","indexed":false,"internalType":"address"},{"name":"","type":"uint256","indexed":false,"internalType":"uint256"}],"anonymous":false},{"type":"event","name":"ReferrerFeeShareUpdated","inputs":[{"name":"referrer","type":"address","indexed":false,"internalType":"address"},{"name":"prevReferrerFeeShare","type":"uint256","indexed":false,"internalType":"uint256"},{"name":"referrerFeeShare","type":"uint256","indexed":false,"internalType":"uint256"}],"anonymous":false},{"type":"event","name":"SetStableOwnershipTransferred","inputs":[{"name":"prevOwner","type":"address","indexed":true,"internalType":"address"},{"name":"newOwner","type":"address","indexed":true,"internalType":"address"}],"anonymous":false}],"bytecode":{"object":"0x608060405261c350600455348015610015575f5ffd5b50604051618c52380380618c5283398181016040528101906100379190610302565b335f5f6101000a81548173ffffffffffffffffffffffffffffffffffffffff021916908373ffffffffffffffffffffffffffffffffffffffff1602179055503360015f6101000a81548173ffffffffffffffffffffffffffffffffffffffff021916908373ffffffffffffffffffffffffffffffffffffffff1602179055503360025f6101000a81548173ffffffffffffffffffffffffffffffffffffffff021916908373ffffffffffffffffffffffffffffffffffffffff1602179055508060035f6101000a81548173ffffffffffffffffffffffffffffffffffffffff021916908373ffffffffffffffffffffffffffffffffffffffff1602179055503373ffffffffffffffffffffffffffffffffffffffff165f73ffffffffffffffffffffffffffffffffffffffff167f8be0079c531659141344cd1fd0a4f28419497f9722a3daafe3b4186f6b6457e060405160405180910390a33373ffffffffffffffffffffffffffffffffffffffff165f73ffffffffffffffffffffffffffffffffffffffff167ff14fcb76f5835c1d416cc224ffc209c65749cede0d23fd6e6035d4dd1c2e0f8c60405160405180910390a33373ffffffffffffffffffffffffffffffffffffffff165f73ffffffffffffffffffffffffffffffffffffffff167fabdd76bd5d5532d19d3e93704ac3544f45f03dc956b39995d3436d2d166855e560405160405180910390a38073ffffffffffffffffffffffffffffffffffffffff165f73ffffffffffffffffffffffffffffffffffffffff167f941bed5eb8a4f7abb41f1a8547c6b5fded98a6fbe47dbd60aee080690de5f0d560405160405180910390a35061032d565b5f5ffd5b5f73ffffffffffffffffffffffffffffffffffffffff82169050919050565b5f6102d1826102a8565b9050919050565b6102e1816102c7565b81146102eb575f5ffd5b50565b5f815190506102fc816102d8565b92915050565b5f60208284031215610317576103166102a4565b5b5f610324848285016102ee565b91505092915050565b6189188061033a5f395ff3fe608060405234801561000f575f5ffd5b506004361061011f575f3560e01c80638da5cb5b116100ab578063c9c653961161006f578063c9c65396146102e4578063e6a4390514610314578063e93f658514610344578063f46901ed14610360578063fc39026a1461037c5761011f565b80638da5cb5b1461025157806390fd06871461026f57806391b831781461028d578063995b5aae146102a9578063c1cf3c7f146102c85761011f565b80634c217715116100f25780634c217715146101ab578063574f2ba3146101c957806369c8b572146101e75780637183d47c146102055780638692fa7d146102355761011f565b8063017e7e581461012357806313af4035146101415780631850bd761461015d5780631e3dd18b1461017b575b5f5ffd5b61012b61039a565b60405161013891906114c2565b60405180910390f35b61015b60048036038101906101569190611509565b6103bf565b005b610165610577565b604051610172919061154c565b60405180910390f35b6101956004803603810190610190919061158f565b61057d565b6040516101a291906114c2565b60405180910390f35b6101b36105b8565b6040516101c091906114c2565b60405180910390f35b6101d16105dd565b6040516101de919061154c565b60405180910390f35b6101ef6105e9565b6040516101fc919061154c565b60405180910390f35b61021f600480360381019061021a9190611509565b6105ef565b60405161022c919061154c565b60405180910390f35b61024f600480360381019061024a9190611509565b610604565b005b6102596107bf565b60405161026691906114c2565b60405180910390f35b6102776107e3565b604051610284919061154c565b60405180910390f35b6102a760048036038101906102a2919061158f565b6107ea565b005b6102b1610945565b6040516102bf9291906115ba565b60405180910390f35b6102e260048036038101906102dd91906115e1565b610974565b005b6102fe60048036038101906102f9919061161f565b610b73565b60405161030b91906114c2565b60405180910390f35b61032e6004803603810190610329919061161f565b61110e565b60405161033b91906114c2565b60405180910390f35b61035e60048036038101906103599190611509565b61114b565b005b61037a60048036038101906103759190611509565b611305565b005b610384611451565b60405161039191906114c2565b60405180910390f35b60035f9054906101000a900473ffffffffffffffffffffffffffffffffffffffff1681565b3373ffffffffffffffffffffffffffffffffffffffff165f5f9054906101000a900473ffffffffffffffffffffffffffffffffffffffff1673ffffffffffffffffffffffffffffffffffffffff161461044d576040517f08c379a0000000000000000000000000000000000000000000000000000000008152600401610444906116dd565b60405180910390fd5b5f73ffffffffffffffffffffffffffffffffffffffff168173ffffffffffffffffffffffffffffffffffffffff16036104bb576040517f08c379a00000000000000000000000000000000000000000000000000000000081526004016104b290611745565b60405180910390fd5b8073ffffffffffffffffffffffffffffffffffffffff165f5f9054906101000a900473ffffffffffffffffffffffffffffffffffffffff1673ffffffffffffffffffffffffffffffffffffffff167f8be0079c531659141344cd1fd0a4f28419497f9722a3daafe3b4186f6b6457e060405160405180910390a3805f5f6101000a81548173ffffffffffffffffffffffffffffffffffffffff021916908373ffffffffffffffffffffffffffffffffffffffff16021790555050565b614e2081565b6007818154811061058c575f80fd5b905f5260205f20015f915054906101000a900473ffffffffffffffffffffffffffffffffffffffff1681565b60015f9054906101000a900473ffffffffffffffffffffffffffffffffffffffff1681565b5f600780549050905090565b60045481565b6005602052805f5260405f205f915090505481565b60025f9054906101000a900473ffffffffffffffffffffffffffffffffffffffff1673ffffffffffffffffffffffffffffffffffffffff163373ffffffffffffffffffffffffffffffffffffffff1614610693576040517f08c379a000000000000000000000000000000000000000000000000000000000815260040161068a906117d3565b60405180910390fd5b5f73ffffffffffffffffffffffffffffffffffffffff168173ffffffffffffffffffffffffffffffffffffffff1603610701576040517f08c379a00000000000000000000000000000000000000000000000000000000081526004016106f890611745565b60405180910390fd5b8073ffffffffffffffffffffffffffffffffffffffff1660025f9054906101000a900473ffffffffffffffffffffffffffffffffffffffff1673ffffffffffffffffffffffffffffffffffffffff167fabdd76bd5d5532d19d3e93704ac3544f45f03dc956b39995d3436d2d166855e560405160405180910390a38060025f6101000a81548173ffffffffffffffffffffffffffffffffffffffff021916908373ffffffffffffffffffffffffffffffffffffffff16021790555050565b5f5f9054906101000a900473ffffffffffffffffffffffffffffffffffffffff1681565b620186a081565b3373ffffffffffffffffffffffffffffffffffffffff165f5f9054906101000a900473ffffffffffffffffffffffffffffffffffffffff1673ffffffffffffffffffffffffffffffffffffffff1614610878576040517f08c379a000000000000000000000000000000000000000000000000000000000815260040161086f906116dd565b60405180910390fd5b5f81116108ba576040517f08c379a00000000000000000000000000000000000000000000000000000000081526004016108b190611861565b60405180910390fd5b620186a0811115610900576040517f08c379a00000000000000000000000000000000000000000000000000000000081526004016108f7906118ef565b60405180910390fd5b7fd739f5afb7778b0c4f4e62b13ac0a94ccc1556dbcb8dc2d0b907daed378e1e236004548260405161093392919061190d565b60405180910390a18060048190555050565b5f5f600454915060035f9054906101000a900473ffffffffffffffffffffffffffffffffffffffff1690509091565b3373ffffffffffffffffffffffffffffffffffffffff165f5f9054906101000a900473ffffffffffffffffffffffffffffffffffffffff1673ffffffffffffffffffffffffffffffffffffffff1614610a02576040517f08c379a00000000000000000000000000000000000000000000000000000000081526004016109f9906116dd565b60405180910390fd5b5f73ffffffffffffffffffffffffffffffffffffffff168273ffffffffffffffffffffffffffffffffffffffff1603610a70576040517f08c379a0000000000000000000000000000000000000000000000000000000008152600401610a6790611745565b60405180910390fd5b614e20811115610ab5576040517f08c379a0000000000000000000000000000000000000000000000000000000008152600401610aac906119a4565b60405180910390fd5b7f4deb2bb31aaa8475916c8556f3e3287795da71076b7419d627eeef223b7dcc588260055f8573ffffffffffffffffffffffffffffffffffffffff1673ffffffffffffffffffffffffffffffffffffffff1681526020019081526020015f205483604051610b25939291906119c2565b60405180910390a18060055f8473ffffffffffffffffffffffffffffffffffffffff1673ffffffffffffffffffffffffffffffffffffffff1681526020019081526020015f20819055505050565b5f8173ffffffffffffffffffffffffffffffffffffffff168373ffffffffffffffffffffffffffffffffffffffff1603610be2576040517f08c379a0000000000000000000000000000000000000000000000000000000008152600401610bd990611a67565b60405180910390fd5b5f5f8373ffffffffffffffffffffffffffffffffffffffff168573ffffffffffffffffffffffffffffffffffffffff1610610c1e578385610c21565b84845b915091505f73ffffffffffffffffffffffffffffffffffffffff168273ffffffffffffffffffffffffffffffffffffffff1603610c93576040517f08c379a0000000000000000000000000000000000000000000000000000000008152600401610c8a90611acf565b60405180910390fd5b5f73ffffffffffffffffffffffffffffffffffffffff1660065f8473ffffffffffffffffffffffffffffffffffffffff1673ffffffffffffffffffffffffffffffffffffffff1681526020019081526020015f205f8373ffffffffffffffffffffffffffffffffffffffff1673ffffffffffffffffffffffffffffffffffffffff1681526020019081526020015f205f9054906101000a900473ffffffffffffffffffffffffffffffffffffffff1673ffffffffffffffffffffffffffffffffffffffff1614610d98576040517f08c379a0000000000000000000000000000000000000000000000000000000008152600401610d8f90611b37565b60405180910390fd5b5f60405180602001610da990611476565b6020820181038252601f19601f8201166040525090505f8383604051602001610dd3929190611b9a565b604051602081830303815290604052805190602001209050808251602084015ff594505f73ffffffffffffffffffffffffffffffffffffffff168573ffffffffffffffffffffffffffffffffffffffff1603610e64576040517f08c379a0000000000000000000000000000000000000000000000000000000008152600401610e5b90611c0f565b60405180910390fd5b8473ffffffffffffffffffffffffffffffffffffffff1663485cc95585856040518363ffffffff1660e01b8152600401610e9f929190611c2d565b5f604051808303815f87803b158015610eb6575f5ffd5b505af1158015610ec8573d5f5f3e3d5ffd5b505050508460065f8673ffffffffffffffffffffffffffffffffffffffff1673ffffffffffffffffffffffffffffffffffffffff1681526020019081526020015f205f8573ffffffffffffffffffffffffffffffffffffffff1673ffffffffffffffffffffffffffffffffffffffff1681526020019081526020015f205f6101000a81548173ffffffffffffffffffffffffffffffffffffffff021916908373ffffffffffffffffffffffffffffffffffffffff1602179055508460065f8573ffffffffffffffffffffffffffffffffffffffff1673ffffffffffffffffffffffffffffffffffffffff1681526020019081526020015f205f8673ffffffffffffffffffffffffffffffffffffffff1673ffffffffffffffffffffffffffffffffffffffff1681526020019081526020015f205f6101000a81548173ffffffffffffffffffffffffffffffffffffffff021916908373ffffffffffffffffffffffffffffffffffffffff160217905550600785908060018154018082558091505060019003905f5260205f20015f9091909190916101000a81548173ffffffffffffffffffffffffffffffffffffffff021916908373ffffffffffffffffffffffffffffffffffffffff1602179055508273ffffffffffffffffffffffffffffffffffffffff168473ffffffffffffffffffffffffffffffffffffffff167f0d3648bd0f6ba80134a33ba9275ac585d9d315f0ad8355cddefde31afa28d0e9876007805490506040516110fc929190611c54565b60405180910390a35050505092915050565b6006602052815f5260405f20602052805f5260405f205f915091509054906101000a900473ffffffffffffffffffffffffffffffffffffffff1681565b3373ffffffffffffffffffffffffffffffffffffffff165f5f9054906101000a900473ffffffffffffffffffffffffffffffffffffffff1673ffffffffffffffffffffffffffffffffffffffff16146111d9576040517f08c379a00000000000000000000000000000000000000000000000000000000081526004016111d0906116dd565b60405180910390fd5b5f73ffffffffffffffffffffffffffffffffffffffff168173ffffffffffffffffffffffffffffffffffffffff1603611247576040517f08c379a000000000000000000000000000000000000000000000000000000000815260040161123e90611745565b60405180910390fd5b8073ffffffffffffffffffffffffffffffffffffffff1660015f9054906101000a900473ffffffffffffffffffffffffffffffffffffffff1673ffffffffffffffffffffffffffffffffffffffff167ff14fcb76f5835c1d416cc224ffc209c65749cede0d23fd6e6035d4dd1c2e0f8c60405160405180910390a38060015f6101000a81548173ffffffffffffffffffffffffffffffffffffffff021916908373ffffffffffffffffffffffffffffffffffffffff16021790555050565b3373ffffffffffffffffffffffffffffffffffffffff165f5f9054906101000a900473ffffffffffffffffffffffffffffffffffffffff1673ffffffffffffffffffffffffffffffffffffffff1614611393576040517f08c379a000000000000000000000000000000000000000000000000000000000815260040161138a906116dd565b60405180910390fd5b8073ffffffffffffffffffffffffffffffffffffffff1660035f9054906101000a900473ffffffffffffffffffffffffffffffffffffffff1673ffffffffffffffffffffffffffffffffffffffff167f941bed5eb8a4f7abb41f1a8547c6b5fded98a6fbe47dbd60aee080690de5f0d560405160405180910390a38060035f6101000a81548173ffffffffffffffffffffffffffffffffffffffff021916908373ffffffffffffffffffffffffffffffffffffffff16021790555050565b60025f9054906101000a900473ffffffffffffffffffffffffffffffffffffffff1681565b616c6780611c7c83390190565b5f73ffffffffffffffffffffffffffffffffffffffff82169050919050565b5f6114ac82611483565b9050919050565b6114bc816114a2565b82525050565b5f6020820190506114d55f8301846114b3565b92915050565b5f5ffd5b6114e8816114a2565b81146114f2575f5ffd5b50565b5f81359050611503816114df565b92915050565b5f6020828403121561151e5761151d6114db565b5b5f61152b848285016114f5565b91505092915050565b5f819050919050565b61154681611534565b82525050565b5f60208201905061155f5f83018461153d565b92915050565b61156e81611534565b8114611578575f5ffd5b50565b5f8135905061158981611565565b92915050565b5f602082840312156115a4576115a36114db565b5b5f6115b18482850161157b565b91505092915050565b5f6040820190506115cd5f83018561153d565b6115da60208301846114b3565b9392505050565b5f5f604083850312156115f7576115f66114db565b5b5f611604858286016114f5565b92505060206116158582860161157b565b9150509250929050565b5f5f60408385031215611635576116346114db565b5b5f611642858286016114f5565b9250506020611653858286016114f5565b9150509250929050565b5f82825260208201905092915050565b7f43616d656c6f74466163746f72793a2063616c6c6572206973206e6f742074685f8201527f65206f776e657200000000000000000000000000000000000000000000000000602082015250565b5f6116c760278361165d565b91506116d28261166d565b604082019050919050565b5f6020820190508181035f8301526116f4816116bb565b9050919050565b7f43616d656c6f74466163746f72793a207a65726f2061646472657373000000005f82015250565b5f61172f601c8361165d565b915061173a826116fb565b602082019050919050565b5f6020820190508181035f83015261175c81611723565b9050919050565b7f43616d656c6f74466163746f72793a206e6f7420736574537461626c654f776e5f8201527f6572000000000000000000000000000000000000000000000000000000000000602082015250565b5f6117bd60228361165d565b91506117c882611763565b604082019050919050565b5f6020820190508181035f8301526117ea816117b1565b9050919050565b7f43616d656c6f74466163746f72793a206f776e65724665655368617265206d755f8201527f73746e277420657863656564206d696e696d756d000000000000000000000000602082015250565b5f61184b60348361165d565b9150611856826117f1565b604082019050919050565b5f6020820190508181035f8301526118788161183f565b9050919050565b7f43616d656c6f74466163746f72793a206f776e65724665655368617265206d755f8201527f73746e277420657863656564206d6178696d756d000000000000000000000000602082015250565b5f6118d960348361165d565b91506118e48261187f565b604082019050919050565b5f6020820190508181035f830152611906816118cd565b9050919050565b5f6040820190506119205f83018561153d565b61192d602083018461153d565b9392505050565b7f43616d656c6f74466163746f72793a20726566657272657246656553686172655f8201527f206d7573746e277420657863656564206d6178696d756d000000000000000000602082015250565b5f61198e60378361165d565b915061199982611934565b604082019050919050565b5f6020820190508181035f8301526119bb81611982565b9050919050565b5f6060820190506119d55f8301866114b3565b6119e2602083018561153d565b6119ef604083018461153d565b949350505050565b7f43616d656c6f74466163746f72793a204944454e544943414c5f4144445245535f8201527f5345530000000000000000000000000000000000000000000000000000000000602082015250565b5f611a5160238361165d565b9150611a5c826119f7565b604082019050919050565b5f6020820190508181035f830152611a7e81611a45565b9050919050565b7f43616d656c6f74466163746f72793a205a45524f5f41444452455353000000005f82015250565b5f611ab9601c8361165d565b9150611ac482611a85565b602082019050919050565b5f6020820190508181035f830152611ae681611aad565b9050919050565b7f43616d656c6f74466163746f72793a20504149525f45584953545300000000005f82015250565b5f611b21601b8361165d565b9150611b2c82611aed565b602082019050919050565b5f6020820190508181035f830152611b4e81611b15565b9050919050565b5f8160601b9050919050565b5f611b6b82611b55565b9050919050565b5f611b7c82611b61565b9050919050565b611b94611b8f826114a2565b611b72565b82525050565b5f611ba58285611b83565b601482019150611bb58284611b83565b6014820191508190509392505050565b7f43616d656c6f74466163746f72793a204641494c4544000000000000000000005f82015250565b5f611bf960168361165d565b9150611c0482611bc5565b602082019050919050565b5f6020820190508181035f830152611c2681611bed565b9050919050565b5f604082019050611c405f8301856114b3565b611c4d60208301846114b3565b9392505050565b5f604082019050611c675f8301856114b3565b611c74602083018461153d565b939250505056fe60806040526101f46008601c6101000a81548161ffff021916908361ffff1602179055506101f46008601e6101000a81548161ffff021916908361ffff1602179055506001600d55348015610052575f5ffd5b505f4690507f8b73c3c69bb8fe3d512ecc4cf759cc79239f7b179b0ffacaa9a75d522b39400f6040518060400160405280600a81526020017f43616d656c6f74204c5000000000000000000000000000000000000000000000815250805190602001206040518060400160405280600181526020017f31000000000000000000000000000000000000000000000000000000000000008152508051906020012083306040516020016101089594939291906101d9565b60405160208183030381529060405280519060200120600381905550503360055f6101000a81548173ffffffffffffffffffffffffffffffffffffffff021916908373ffffffffffffffffffffffffffffffffffffffff16021790555061022a565b5f819050919050565b61017c8161016a565b82525050565b5f819050919050565b61019481610182565b82525050565b5f73ffffffffffffffffffffffffffffffffffffffff82169050919050565b5f6101c38261019a565b9050919050565b6101d3816101b9565b82525050565b5f60a0820190506101ec5f830188610173565b6101f96020830187610173565b6102066040830186610173565b610213606083018561018b565b61022060808301846101ca565b9695505050505050565b616a30806102375f395ff3fe608060405234801561000f575f5ffd5b5060043610610251575f3560e01c80636a62784211610144578063b6200b07116100c1578063d505accf11610085578063d505accf146106d7578063d73792a9146106f3578063dd62ed3e14610711578063f140a35a14610741578063f39ac11f14610771578063fff6cae91461078d57610251565b8063b6200b0714610643578063ba9a7a5614610661578063bc25cf771461067f578063c45a01551461069b578063d21220a7146106b957610251565b806384b0196e1161010857806384b0196e1461058257806389afcb44146105a657806395d89b41146105d75780639e548b7f146105f5578063a9059cbb1461061357610251565b80636a627842146104b85780636e1fdd7f146104e857806370a08231146105045780637464fc3d146105345780637ecebe001461055257610251565b80633029e5d4116101d25780633ba17077116101965780633ba170771461043a578063485cc9551461044457806348e5d2601461046057806362ecec031461047c57806367d817401461049a57610251565b80633029e5d4146103a657806330adf81f146103c2578063313ce567146103e05780633644e515146103fe5780633b9f1dc01461041c57610251565b8063158ef93e11610219578063158ef93e146102fe57806318160ddd1461031c57806323b872dd1461033a578063288e5d021461036a5780632fcd16921461038857610251565b8063022c0d9f1461025557806306fdde03146102715780630902f1ac1461028f578063095ea7b3146102b05780630dfe1681146102e0575b5f5ffd5b61026f600480360381019061026a9190614d25565b610797565b005b610279610899565b6040516102869190614e19565b60405180910390f35b6102976108d2565b6040516102a79493929190614e7d565b60405180910390f35b6102ca60048036038101906102c59190614ec0565b61093f565b6040516102d79190614f18565b60405180910390f35b6102e8610955565b6040516102f59190614f40565b60405180910390f35b61030661097a565b6040516103139190614f18565b60405180910390f35b61032461098d565b6040516103319190614f68565b60405180910390f35b610354600480360381019061034f9190614f81565b610992565b6040516103619190614f18565b60405180910390f35b610372610bba565b60405161037f9190614f68565b60405180910390f35b610390610bc0565b60405161039d9190614fd1565b60405180910390f35b6103c060048036038101906103bb919061503e565b610bd4565b005b6103ca610fb1565b6040516103d791906150a6565b60405180910390f35b6103e8610fd7565b6040516103f591906150da565b60405180910390f35b610406610fdc565b60405161041391906150a6565b60405180910390f35b610424610fe2565b6040516104319190614f68565b60405180910390f35b610442610fe8565b005b61045e600480360381019061045991906150f3565b6111d0565b005b61047a6004803603810190610475919061515b565b61141b565b005b610484611691565b6040516104919190614fd1565b60405180910390f35b6104a26116a5565b6040516104af9190614f68565b60405180910390f35b6104d260048036038101906104cd9190615199565b6116ab565b6040516104df9190614f68565b60405180910390f35b61050260048036038101906104fd91906151c4565b611a77565b005b61051e60048036038101906105199190615199565b611b7a565b60405161052b9190614f68565b60405180910390f35b61053c611b8f565b6040516105499190614f68565b60405180910390f35b61056c60048036038101906105679190615199565b611b95565b6040516105799190614f68565b60405180910390f35b61058a611baa565b60405161059d979695949392919061534b565b60405180910390f35b6105c060048036038101906105bb9190615199565b611c4f565b6040516105ce9291906153cd565b60405180910390f35b6105df6120d6565b6040516105ec9190614e19565b60405180910390f35b6105fd61210f565b60405161060a9190614f18565b60405180910390f35b61062d60048036038101906106289190614ec0565b612121565b60405161063a9190614f18565b60405180910390f35b61064b612137565b6040516106589190614f18565b60405180910390f35b61066961214a565b6040516106769190614f68565b60405180910390f35b61069960048036038101906106949190615199565b612150565b005b6106a361239e565b6040516106b09190614f40565b60405180910390f35b6106c16123c3565b6040516106ce9190614f40565b60405180910390f35b6106f160048036038101906106ec9190615448565b6123e8565b005b6106fb612606565b6040516107089190614f68565b60405180910390f35b61072b600480360381019061072691906150f3565b61260d565b6040516107389190614f68565b60405180910390f35b61075b600480360381019061075691906154e5565b61262d565b6040516107689190614f68565b60405180910390f35b61078b600480360381019061078691906150f3565b61271e565b005b610795612a2a565b005b5f60405180610100016040528060065f9054906101000a900473ffffffffffffffffffffffffffffffffffffffff1673ffffffffffffffffffffffffffffffffffffffff16815260200160075f9054906101000a900473ffffffffffffffffffffffffffffffffffffffff1673ffffffffffffffffffffffffffffffffffffffff1681526020018781526020018681526020015f81526020015f81526020015f81526020015f8152509050610891818585858080601f0160208091040260200160405190810160405280939291908181526020018383808284375f81840152601f19601f820116905080830192505050505050505f612c13565b505050505050565b6040518060400160405280600a81526020017f43616d656c6f74204c500000000000000000000000000000000000000000000081525081565b5f5f5f5f60085f9054906101000a90046dffffffffffffffffffffffffffff1693506008600e9054906101000a90046dffffffffffffffffffffffffffff1692506008601c9054906101000a900461ffff1691506008601e9054906101000a900461ffff16905090919293565b5f61094b338484613764565b6001905092915050565b60065f9054906101000a900473ffffffffffffffffffffffffffffffffffffffff1681565b600760149054906101000a900460ff1681565b5f5481565b5f7fffffffffffffffffffffffffffffffffffffffffffffffffffffffffffffffff60025f8673ffffffffffffffffffffffffffffffffffffffff1673ffffffffffffffffffffffffffffffffffffffff1681526020019081526020015f205f3373ffffffffffffffffffffffffffffffffffffffff1673ffffffffffffffffffffffffffffffffffffffff1681526020019081526020015f205414610ba4575f610abe8360025f8873ffffffffffffffffffffffffffffffffffffffff1673ffffffffffffffffffffffffffffffffffffffff1681526020019081526020015f205f3373ffffffffffffffffffffffffffffffffffffffff1673ffffffffffffffffffffffffffffffffffffffff1681526020019081526020015f205461384b90919063ffffffff16565b90508060025f8773ffffffffffffffffffffffffffffffffffffffff1673ffffffffffffffffffffffffffffffffffffffff1681526020019081526020015f205f3373ffffffffffffffffffffffffffffffffffffffff1673ffffffffffffffffffffffffffffffffffffffff1681526020019081526020015f20819055503373ffffffffffffffffffffffffffffffffffffffff168573ffffffffffffffffffffffffffffffffffffffff167f8c5be1e5ebec7d5bd14f71427d1e84f3dd0314c0f7b2291e5b200ac8c7c3b92583604051610b9a9190614f68565b60405180910390a3505b610baf8484846138a3565b600190509392505050565b600a5481565b6008601e9054906101000a900461ffff1681565b6001600d5414610c19576040517f08c379a0000000000000000000000000000000000000000000000000000000008152600401610c109061556d565b60405180910390fd5b5f600d8190555060055f9054906101000a900473ffffffffffffffffffffffffffffffffffffffff1673ffffffffffffffffffffffffffffffffffffffff1663fc39026a6040518163ffffffff1660e01b8152600401602060405180830381865afa158015610c8a573d5f5f3e3d5ffd5b505050506040513d601f19601f82011682018060405250810190610cae919061559f565b73ffffffffffffffffffffffffffffffffffffffff163373ffffffffffffffffffffffffffffffffffffffff1614610d1b576040517f08c379a0000000000000000000000000000000000000000000000000000000008152600401610d129061563a565b60405180910390fd5b600c60019054906101000a900460ff1615610d6b576040517f08c379a0000000000000000000000000000000000000000000000000000000008152600401610d62906156a2565b60405180910390fd5b600c5f9054906101000a900460ff16151583151503610dbf576040517f08c379a0000000000000000000000000000000000000000000000000000000008152600401610db69061570a565b60405180910390fd5b60085f9054906101000a90046dffffffffffffffffffffffffffff166dffffffffffffffffffffffffffff16826dffffffffffffffffffffffffffff16148015610e4457506008600e9054906101000a90046dffffffffffffffffffffffffffff166dffffffffffffffffffffffffffff16816dffffffffffffffffffffffffffff16145b610e83576040517f08c379a0000000000000000000000000000000000000000000000000000000008152600401610e7a90615772565b60405180910390fd5b5f610ec560085f9054906101000a90046dffffffffffffffffffffffffffff166008600e9054906101000a90046dffffffffffffffffffffffffffff16613a2f565b90507fb6a86710bde53aa7fb1b3856279e2af5b476d53e2dd0902cf17a0911b5a43a8b600c5f9054906101000a900460ff1685604051610f06929190615790565b60405180910390a183600c5f6101000a81548160ff021916908315150217905550838015610f315750805b610f3b575f610f9d565b610f9c60085f9054906101000a90046dffffffffffffffffffffffffffff166dffffffffffffffffffffffffffff166008600e9054906101000a90046dffffffffffffffffffffffffffff166dffffffffffffffffffffffffffff16613c65565b5b600b81905550506001600d81905550505050565b7f6e71edae12b1b97f4d1f60370fef10105fa2faae0126114a169c64845d6126c95f1b81565b601281565b60035481565b60095481565b6001600d541461102d576040517f08c379a00000000000000000000000000000000000000000000000000000000081526004016110249061556d565b60405180910390fd5b5f600d8190555060055f9054906101000a900473ffffffffffffffffffffffffffffffffffffffff1673ffffffffffffffffffffffffffffffffffffffff16638da5cb5b6040518163ffffffff1660e01b8152600401602060405180830381865afa15801561109e573d5f5f3e3d5ffd5b505050506040513d601f19601f820116820180604052508101906110c2919061559f565b73ffffffffffffffffffffffffffffffffffffffff163373ffffffffffffffffffffffffffffffffffffffff161461112f576040517f08c379a000000000000000000000000000000000000000000000000000000000815260040161112690615827565b60405180910390fd5b600c60019054906101000a900460ff161561117f576040517f08c379a00000000000000000000000000000000000000000000000000000000081526004016111769061588f565b60405180910390fd5b6001600c60016101000a81548160ff0219169083151502179055507f09122c41ae733a4d7740324d50e35fbd6ee85be3c1312a45596d8045150ab2f260405160405180910390a16001600d81905550565b60055f9054906101000a900473ffffffffffffffffffffffffffffffffffffffff1673ffffffffffffffffffffffffffffffffffffffff163373ffffffffffffffffffffffffffffffffffffffff161480156112395750600760149054906101000a900460ff16155b611278576040517f08c379a000000000000000000000000000000000000000000000000000000000815260040161126f906158f7565b60405180910390fd5b8160065f6101000a81548173ffffffffffffffffffffffffffffffffffffffff021916908373ffffffffffffffffffffffffffffffffffffffff1602179055508060075f6101000a81548173ffffffffffffffffffffffffffffffffffffffff021916908373ffffffffffffffffffffffffffffffffffffffff1602179055508173ffffffffffffffffffffffffffffffffffffffff1663313ce5676040518163ffffffff1660e01b8152600401602060405180830381865afa158015611341573d5f5f3e3d5ffd5b505050506040513d601f19601f820116820180604052508101906113659190615929565b60ff16600a6113749190615ab0565b6009819055508073ffffffffffffffffffffffffffffffffffffffff1663313ce5676040518163ffffffff1660e01b8152600401602060405180830381865afa1580156113c3573d5f5f3e3d5ffd5b505050506040513d601f19601f820116820180604052508101906113e79190615929565b60ff16600a6113f69190615ab0565b600a819055506001600760146101000a81548160ff0219169083151502179055505050565b6001600d5414611460576040517f08c379a00000000000000000000000000000000000000000000000000000000081526004016114579061556d565b60405180910390fd5b5f600d8190555060055f9054906101000a900473ffffffffffffffffffffffffffffffffffffffff1673ffffffffffffffffffffffffffffffffffffffff16634c2177156040518163ffffffff1660e01b8152600401602060405180830381865afa1580156114d1573d5f5f3e3d5ffd5b505050506040513d601f19601f820116820180604052508101906114f5919061559f565b73ffffffffffffffffffffffffffffffffffffffff163373ffffffffffffffffffffffffffffffffffffffff1614611562576040517f08c379a000000000000000000000000000000000000000000000000000000000815260040161155990615b6a565b60405180910390fd5b6107d08261ffff161115801561157e57506107d08161ffff1611155b6115bd576040517f08c379a00000000000000000000000000000000000000000000000000000000081526004016115b490615bf8565b60405180910390fd5b5f8261ffff161180156115d357505f8161ffff16115b611612576040517f08c379a000000000000000000000000000000000000000000000000000000000815260040161160990615c86565b60405180910390fd5b816008601c6101000a81548161ffff021916908361ffff160217905550806008601e6101000a81548161ffff021916908361ffff1602179055507fa4877b8ecb5a00ba277e4bceeeb187a669e7113649774dfbea05c259ce27f17b828260405161167d929190615ca4565b60405180910390a16001600d819055505050565b6008601c9054906101000a900461ffff1681565b6107d081565b5f6001600d54146116f1576040517f08c379a00000000000000000000000000000000000000000000000000000000081526004016116e89061556d565b60405180910390fd5b5f600d819055505f5f6117026108d2565b5050915091505f60065f9054906101000a900473ffffffffffffffffffffffffffffffffffffffff1673ffffffffffffffffffffffffffffffffffffffff166370a08231306040518263ffffffff1660e01b81526004016117639190614f40565b602060405180830381865afa15801561177e573d5f5f3e3d5ffd5b505050506040513d601f19601f820116820180604052508101906117a29190615cdf565b90505f60075f9054906101000a900473ffffffffffffffffffffffffffffffffffffffff1673ffffffffffffffffffffffffffffffffffffffff166370a08231306040518263ffffffff1660e01b81526004016117ff9190614f40565b602060405180830381865afa15801561181a573d5f5f3e3d5ffd5b505050506040513d601f19601f8201168201806040525081019061183e9190615cdf565b90505f611864856dffffffffffffffffffffffffffff168461384b90919063ffffffff16565b90505f61188a856dffffffffffffffffffffffffffff168461384b90919063ffffffff16565b90505f6118978787613a2f565b90505f5f5490505f81036118e7576118d46103e86118c66118c18688613da690919063ffffffff16565b613e12565b61384b90919063ffffffff16565b98506118e25f6103e8613e89565b61194e565b61194b886dffffffffffffffffffffffffffff1661190e8387613da690919063ffffffff16565b6119189190615d37565b886dffffffffffffffffffffffffffff1661193c8487613da690919063ffffffff16565b6119469190615d37565b613f9c565b98505b5f8911611990576040517f08c379a000000000000000000000000000000000000000000000000000000000815260040161198790615dd7565b60405180910390fd5b61199a8a8a613e89565b6119a48686613fb4565b8115611a1257611a0b60085f9054906101000a90046dffffffffffffffffffffffffffff166dffffffffffffffffffffffffffff166008600e9054906101000a90046dffffffffffffffffffffffffffff166dffffffffffffffffffffffffffff16613c65565b600b819055505b3373ffffffffffffffffffffffffffffffffffffffff167f4c209b5fc8ad50758f13e2e1088ba56a560dff690a1c6fef26394f4c03821c4f8585604051611a5a9291906153cd565b60405180910390a250505050505050506001600d81905550919050565b5f60405180610100016040528060065f9054906101000a900473ffffffffffffffffffffffffffffffffffffffff1673ffffffffffffffffffffffffffffffffffffffff16815260200160075f9054906101000a900473ffffffffffffffffffffffffffffffffffffffff1673ffffffffffffffffffffffffffffffffffffffff1681526020018881526020018781526020015f81526020015f81526020015f81526020015f8152509050611b71818686868080601f0160208091040260200160405190810160405280939291908181526020018383808284375f81840152601f19601f8201169050808301925050505050505085612c13565b50505050505050565b6001602052805f5260405f205f915090505481565b600b5481565b6004602052805f5260405f205f915090505481565b5f6060805f5f5f6060611bbb6140c9565b611bc36140f8565b46305f5f1b5f67ffffffffffffffff811115611be257611be1615df5565b5b604051908082528060200260200182016040528015611c105781602001602082028036833780820191505090505b507f0f00000000000000000000000000000000000000000000000000000000000000959493929190965096509650965096509650965090919293949596565b5f5f6001600d5414611c96576040517f08c379a0000000000000000000000000000000000000000000000000000000008152600401611c8d9061556d565b60405180910390fd5b5f600d819055505f5f611ca76108d2565b5050915091505f60065f9054906101000a900473ffffffffffffffffffffffffffffffffffffffff1690505f60075f9054906101000a900473ffffffffffffffffffffffffffffffffffffffff1690505f8273ffffffffffffffffffffffffffffffffffffffff166370a08231306040518263ffffffff1660e01b8152600401611d319190614f40565b602060405180830381865afa158015611d4c573d5f5f3e3d5ffd5b505050506040513d601f19601f82011682018060405250810190611d709190615cdf565b90505f8273ffffffffffffffffffffffffffffffffffffffff166370a08231306040518263ffffffff1660e01b8152600401611dac9190614f40565b602060405180830381865afa158015611dc7573d5f5f3e3d5ffd5b505050506040513d601f19601f82011682018060405250810190611deb9190615cdf565b90505f60015f3073ffffffffffffffffffffffffffffffffffffffff1673ffffffffffffffffffffffffffffffffffffffff1681526020019081526020015f205490505f611e398888613a2f565b90505f5f54905080611e548685613da690919063ffffffff16565b611e5e9190615d37565b9a5080611e748585613da690919063ffffffff16565b611e7e9190615d37565b99505f8b118015611e8e57505f8a115b611ecd576040517f08c379a0000000000000000000000000000000000000000000000000000000008152600401611ec490615e92565b60405180910390fd5b611ed73084614127565b611ee2878d8d61423a565b611eed868d8c61423a565b8673ffffffffffffffffffffffffffffffffffffffff166370a08231306040518263ffffffff1660e01b8152600401611f269190614f40565b602060405180830381865afa158015611f41573d5f5f3e3d5ffd5b505050506040513d601f19601f82011682018060405250810190611f659190615cdf565b94508573ffffffffffffffffffffffffffffffffffffffff166370a08231306040518263ffffffff1660e01b8152600401611fa09190614f40565b602060405180830381865afa158015611fbb573d5f5f3e3d5ffd5b505050506040513d601f19601f82011682018060405250810190611fdf9190615cdf565b9350611feb8585613fb4565b81156120595761205260085f9054906101000a90046dffffffffffffffffffffffffffff166dffffffffffffffffffffffffffff166008600e9054906101000a90046dffffffffffffffffffffffffffff166dffffffffffffffffffffffffffff16613c65565b600b819055505b8b73ffffffffffffffffffffffffffffffffffffffff163373ffffffffffffffffffffffffffffffffffffffff167fdccd412f0b1252819cb1fd330b93224ca42612892bb3f4f789976e6d819364968d8d6040516120b89291906153cd565b60405180910390a35050505050505050506001600d81905550915091565b6040518060400160405280600781526020017f434d4c542d4c500000000000000000000000000000000000000000000000000081525081565b600c5f9054906101000a900460ff1681565b5f61212d3384846138a3565b6001905092915050565b600c60019054906101000a900460ff1681565b6103e881565b6001600d5414612195576040517f08c379a000000000000000000000000000000000000000000000000000000000815260040161218c9061556d565b60405180910390fd5b5f600d819055505f60065f9054906101000a900473ffffffffffffffffffffffffffffffffffffffff1690505f60075f9054906101000a900473ffffffffffffffffffffffffffffffffffffffff1690506122a582846122a060085f9054906101000a90046dffffffffffffffffffffffffffff166dffffffffffffffffffffffffffff168673ffffffffffffffffffffffffffffffffffffffff166370a08231306040518263ffffffff1660e01b81526004016122539190614f40565b602060405180830381865afa15801561226e573d5f5f3e3d5ffd5b505050506040513d601f19601f820116820180604052508101906122929190615cdf565b61384b90919063ffffffff16565b61423a565b61236581846123606008600e9054906101000a90046dffffffffffffffffffffffffffff166dffffffffffffffffffffffffffff168573ffffffffffffffffffffffffffffffffffffffff166370a08231306040518263ffffffff1660e01b81526004016123139190614f40565b602060405180830381865afa15801561232e573d5f5f3e3d5ffd5b505050506040513d601f19601f820116820180604052508101906123529190615cdf565b61384b90919063ffffffff16565b61423a565b7f21ad22495c9c75cd1c94756f91824e779c0c8a8e168b267c790df464fe056b7960405160405180910390a150506001600d8190555050565b60055f9054906101000a900473ffffffffffffffffffffffffffffffffffffffff1681565b60075f9054906101000a900473ffffffffffffffffffffffffffffffffffffffff1681565b4284101561242b576040517f08c379a000000000000000000000000000000000000000000000000000000000815260040161242290615efa565b60405180910390fd5b5f6003547f6e71edae12b1b97f4d1f60370fef10105fa2faae0126114a169c64845d6126c95f1b89898960045f8e73ffffffffffffffffffffffffffffffffffffffff1673ffffffffffffffffffffffffffffffffffffffff1681526020019081526020015f205f8154809291906124a290615f18565b919050558a6040516020016124bc96959493929190615f5f565b604051602081830303815290604052805190602001206040516020016124e3929190616032565b6040516020818303038152906040528051906020012090505f6001828686866040515f815260200160405260405161251e9493929190616068565b6020604051602081039080840390855afa15801561253e573d5f5f3e3d5ffd5b5050506020604051035190505f73ffffffffffffffffffffffffffffffffffffffff168173ffffffffffffffffffffffffffffffffffffffff16141580156125b157508873ffffffffffffffffffffffffffffffffffffffff168173ffffffffffffffffffffffffffffffffffffffff16145b6125f0576040517f08c379a00000000000000000000000000000000000000000000000000000000081526004016125e7906160f5565b60405180910390fd5b6125fb898989613764565b505050505050505050565b620186a081565b6002602052815f5260405f20602052805f5260405f205f91509150505481565b5f5f60065f9054906101000a900473ffffffffffffffffffffffffffffffffffffffff1673ffffffffffffffffffffffffffffffffffffffff168373ffffffffffffffffffffffffffffffffffffffff1614612699576008601e9054906101000a900461ffff166126ab565b6008601c9054906101000a900461ffff165b9050612715848460085f9054906101000a90046dffffffffffffffffffffffffffff166dffffffffffffffffffffffffffff166008600e9054906101000a90046dffffffffffffffffffffffffffff166dffffffffffffffffffffffffffff168561ffff166143be565b91505092915050565b6001600d5414612763576040517f08c379a000000000000000000000000000000000000000000000000000000000815260040161275a9061556d565b60405180910390fd5b5f600d8190555060055f9054906101000a900473ffffffffffffffffffffffffffffffffffffffff1673ffffffffffffffffffffffffffffffffffffffff16638da5cb5b6040518163ffffffff1660e01b8152600401602060405180830381865afa1580156127d4573d5f5f3e3d5ffd5b505050506040513d601f19601f820116820180604052508101906127f8919061559f565b73ffffffffffffffffffffffffffffffffffffffff163373ffffffffffffffffffffffffffffffffffffffff1614612865576040517f08c379a000000000000000000000000000000000000000000000000000000000815260040161285c90615827565b60405180910390fd5b60065f9054906101000a900473ffffffffffffffffffffffffffffffffffffffff1673ffffffffffffffffffffffffffffffffffffffff168273ffffffffffffffffffffffffffffffffffffffff161415801561290f575060075f9054906101000a900473ffffffffffffffffffffffffffffffffffffffff1673ffffffffffffffffffffffffffffffffffffffff168273ffffffffffffffffffffffffffffffffffffffff1614155b61294e576040517f08c379a00000000000000000000000000000000000000000000000000000000081526004016129459061615d565b60405180910390fd5b6129d082828473ffffffffffffffffffffffffffffffffffffffff166370a08231306040518263ffffffff1660e01b815260040161298c9190614f40565b602060405180830381865afa1580156129a7573d5f5f3e3d5ffd5b505050506040513d601f19601f820116820180604052508101906129cb9190615cdf565b61423a565b8173ffffffffffffffffffffffffffffffffffffffff167f368a9dc863ecb94b5ba32a682e26295b10d9c2666fad7d785ebdf262c3c5241382604051612a169190614f40565b60405180910390a26001600d819055505050565b6001600d5414612a6f576040517f08c379a0000000000000000000000000000000000000000000000000000000008152600401612a669061556d565b60405180910390fd5b5f600d819055505f60065f9054906101000a900473ffffffffffffffffffffffffffffffffffffffff1673ffffffffffffffffffffffffffffffffffffffff166370a08231306040518263ffffffff1660e01b8152600401612ad19190614f40565b602060405180830381865afa158015612aec573d5f5f3e3d5ffd5b505050506040513d601f19601f82011682018060405250810190612b109190615cdf565b90505f60075f9054906101000a900473ffffffffffffffffffffffffffffffffffffffff1673ffffffffffffffffffffffffffffffffffffffff166370a08231306040518263ffffffff1660e01b8152600401612b6d9190614f40565b602060405180830381865afa158015612b88573d5f5f3e3d5ffd5b505050506040513d601f19601f82011682018060405250810190612bac9190615cdf565b90505f8214158015612bbe57505f8114155b612bfd576040517f08c379a0000000000000000000000000000000000000000000000000000000008152600401612bf4906161eb565b60405180910390fd5b612c078282613fb4565b50506001600d81905550565b6001600d5414612c58576040517f08c379a0000000000000000000000000000000000000000000000000000000008152600401612c4f9061556d565b60405180910390fd5b5f600d819055505f84604001511180612c7457505f8460600151115b612cb3576040517f08c379a0000000000000000000000000000000000000000000000000000000008152600401612caa90616279565b60405180910390fd5b5f5f5f5f612cbf6108d2565b9350935093509350836dffffffffffffffffffffffffffff168860400151108015612cfd5750826dffffffffffffffffffffffffffff168860600151105b612d3c576040517f08c379a0000000000000000000000000000000000000000000000000000000008152600401612d3390616307565b60405180910390fd5b875f015173ffffffffffffffffffffffffffffffffffffffff168773ffffffffffffffffffffffffffffffffffffffff1614158015612dab5750876020015173ffffffffffffffffffffffffffffffffffffffff168773ffffffffffffffffffffffffffffffffffffffff1614155b612dea576040517f08c379a0000000000000000000000000000000000000000000000000000000008152600401612de19061636f565b60405180910390fd5b5f88604001511115612e0957612e08885f0151888a6040015161423a565b5b5f88606001511115612e2957612e288860200151888a6060015161423a565b5b5f86511115612ea7578673ffffffffffffffffffffffffffffffffffffffff166310d1e85c338a604001518b606001518a6040518563ffffffff1660e01b8152600401612e7994939291906163df565b5f604051808303815f87803b158015612e90575f5ffd5b505af1158015612ea2573d5f5f3e3d5ffd5b505050505b875f015173ffffffffffffffffffffffffffffffffffffffff166370a08231306040518263ffffffff1660e01b8152600401612ee39190614f40565b602060405180830381865afa158015612efe573d5f5f3e3d5ffd5b505050506040513d601f19601f82011682018060405250810190612f229190615cdf565b886080018181525050876020015173ffffffffffffffffffffffffffffffffffffffff166370a08231306040518263ffffffff1660e01b8152600401612f689190614f40565b602060405180830381865afa158015612f83573d5f5f3e3d5ffd5b505050506040513d601f19601f82011682018060405250810190612fa79190615cdf565b8860a00181815250505f8860400151856dffffffffffffffffffffffffffff16612fd19190616429565b896080015111612fe1575f613011565b8860400151856dffffffffffffffffffffffffffff166130019190616429565b89608001516130109190616429565b5b90505f8960600151856dffffffffffffffffffffffffffff166130349190616429565b8a60a0015111613044575f613074565b8960600151856dffffffffffffffffffffffffffff166130649190616429565b8a60a001516130739190616429565b5b90505f82118061308357505f81115b6130c2576040517f08c379a00000000000000000000000000000000000000000000000000000000081526004016130b9906164cc565b60405180910390fd5b620186a06130dd8561ffff1684613da690919063ffffffff16565b6130e79190615d37565b8a60c0018181525050620186a061310b8461ffff1683613da690919063ffffffff16565b6131159190615d37565b8a60e00181815250505f5f90505f5f73ffffffffffffffffffffffffffffffffffffffff168973ffffffffffffffffffffffffffffffffffffffff160361315c575f6131f6565b60055f9054906101000a900473ffffffffffffffffffffffffffffffffffffffff1673ffffffffffffffffffffffffffffffffffffffff16637183d47c8a6040518263ffffffff1660e01b81526004016131b69190614f40565b602060405180830381865afa1580156131d1573d5f5f3e3d5ffd5b505050506040513d601f19601f820116820180604052508101906131f59190615cdf565b5b90505f8111156132fa575f84111561327c576002620186a061321891906164ea565b6132418761ffff166132338488613da690919063ffffffff16565b613da690919063ffffffff16565b61324b9190615d37565b9150613264828d60c0015161384b90919063ffffffff16565b8c60c001818152505061327b8c5f01518a8461423a565b5b5f8311156132f9576002620186a061329491906164ea565b6132bd8661ffff166132af8487613da690919063ffffffff16565b613da690919063ffffffff16565b6132c79190615d37565b91506132e0828d60e0015161384b90919063ffffffff16565b8c60e00181815250506132f88c602001518a8461423a565b5b5b600c5f9054906101000a900460ff16156134fb575f5f60055f9054906101000a900473ffffffffffffffffffffffffffffffffffffffff1673ffffffffffffffffffffffffffffffffffffffff1663995b5aae6040518163ffffffff1660e01b81526004016040805180830381865afa158015613379573d5f5f3e3d5ffd5b505050506040513d601f19601f8201168201806040525081019061339d9190616534565b915091505f73ffffffffffffffffffffffffffffffffffffffff168173ffffffffffffffffffffffffffffffffffffffff16146134f8576133fc826133ee85620186a061384b90919063ffffffff16565b613da690919063ffffffff16565b91505f86111561347a576003620186a061341691906164ea565b61343f8961ffff16613431858a613da690919063ffffffff16565b613da690919063ffffffff16565b6134499190615d37565b9350613462848f60c0015161384b90919063ffffffff16565b8e60c00181815250506134798e5f0151828661423a565b5b5f8511156134f7576003620186a061349291906164ea565b6134bb8861ffff166134ad8589613da690919063ffffffff16565b613da690919063ffffffff16565b6134c59190615d37565b93506134de848f60e0015161384b90919063ffffffff16565b8e60e00181815250506134f68e60200151828661423a565b5b5b50505b5f841115613588578b5f015173ffffffffffffffffffffffffffffffffffffffff166370a08231306040518263ffffffff1660e01b815260040161353f9190614f40565b602060405180830381865afa15801561355a573d5f5f3e3d5ffd5b505050506040513d601f19601f8201168201806040525081019061357e9190615cdf565b8c60800181815250505b5f831115613616578b6020015173ffffffffffffffffffffffffffffffffffffffff166370a08231306040518263ffffffff1660e01b81526004016135cd9190614f40565b602060405180830381865afa1580156135e8573d5f5f3e3d5ffd5b505050506040513d601f19601f8201168201806040525081019061360c9190615cdf565b8c60a00181815250505b50505f6136348b60c001518c6080015161384b90919063ffffffff16565b90505f6136528c60e001518d60a0015161384b90919063ffffffff16565b905061367e886dffffffffffffffffffffffffffff16886dffffffffffffffffffffffffffff16613c65565b6136888383613c65565b10156136c9576040517f08c379a00000000000000000000000000000000000000000000000000000000081526004016136c0906165bc565b60405180910390fd5b50506136dd8a608001518b60a00151613fb4565b8873ffffffffffffffffffffffffffffffffffffffff163373ffffffffffffffffffffffffffffffffffffffff167fd78ad95fa46c994b6551d0da85fc275fe613ce37657fb8d5e3d130840159d82284848e604001518f6060015160405161374894939291906165da565b60405180910390a35050505050506001600d8190555050505050565b8060025f8573ffffffffffffffffffffffffffffffffffffffff1673ffffffffffffffffffffffffffffffffffffffff1681526020019081526020015f205f8473ffffffffffffffffffffffffffffffffffffffff1673ffffffffffffffffffffffffffffffffffffffff1681526020019081526020015f20819055508173ffffffffffffffffffffffffffffffffffffffff168373ffffffffffffffffffffffffffffffffffffffff167f8c5be1e5ebec7d5bd14f71427d1e84f3dd0314c0f7b2291e5b200ac8c7c3b9258360405161383e9190614f68565b60405180910390a3505050565b5f8282846138599190616429565b915081111561389d576040517f08c379a000000000000000000000000000000000000000000000000000000000815260040161389490616667565b60405180910390fd5b92915050565b6138f38160015f8673ffffffffffffffffffffffffffffffffffffffff1673ffffffffffffffffffffffffffffffffffffffff1681526020019081526020015f205461384b90919063ffffffff16565b60015f8573ffffffffffffffffffffffffffffffffffffffff1673ffffffffffffffffffffffffffffffffffffffff1681526020019081526020015f20819055506139848160015f8573ffffffffffffffffffffffffffffffffffffffff1673ffffffffffffffffffffffffffffffffffffffff1681526020019081526020015f20546146eb90919063ffffffff16565b60015f8473ffffffffffffffffffffffffffffffffffffffff1673ffffffffffffffffffffffffffffffffffffffff1681526020019081526020015f20819055508173ffffffffffffffffffffffffffffffffffffffff168373ffffffffffffffffffffffffffffffffffffffff167fddf252ad1be2c89b69c2b068fc378daa952ba7f163c4a11628f55a4df523b3ef83604051613a229190614f68565b60405180910390a3505050565b5f600c5f9054906101000a900460ff1615613a4c575f9050613c5f565b5f5f60055f9054906101000a900473ffffffffffffffffffffffffffffffffffffffff1673ffffffffffffffffffffffffffffffffffffffff1663995b5aae6040518163ffffffff1660e01b81526004016040805180830381865afa158015613ab7573d5f5f3e3d5ffd5b505050506040513d601f19601f82011682018060405250810190613adb9190616534565b915091505f73ffffffffffffffffffffffffffffffffffffffff168173ffffffffffffffffffffffffffffffffffffffff16141592505f600b5490508315613c4b575f8114613c46575f613b57613b52886dffffffffffffffffffffffffffff16886dffffffffffffffffffffffffffff16613c65565b613e12565b90505f613b6383613e12565b905080821115613c43575f613ba3606487613b8b6064620186a0613da690919063ffffffff16565b613b959190615d37565b61384b90919063ffffffff16565b90505f613bdf6064613bd1613bc1868861384b90919063ffffffff16565b5f54613da690919063ffffffff16565b613da690919063ffffffff16565b90505f613c1a613bf9606486613da690919063ffffffff16565b613c0c8588613da690919063ffffffff16565b6146eb90919063ffffffff16565b90505f8183613c299190615d37565b90505f811115613c3e57613c3d8882613e89565b5b505050505b50505b613c5b565b5f8114613c5a575f600b819055505b5b5050505b92915050565b5f600c5f9054906101000a900460ff1615613d8a575f600954613c99670de0b6b3a764000086613da690919063ffffffff16565b613ca39190615d37565b90505f600a54613cc4670de0b6b3a764000086613da690919063ffffffff16565b613cce9190615d37565b90505f670de0b6b3a7640000613ced8385613da690919063ffffffff16565b613cf79190615d37565b90505f613d57670de0b6b3a7640000613d198586613da690919063ffffffff16565b613d239190615d37565b670de0b6b3a7640000613d3f8788613da690919063ffffffff16565b613d499190615d37565b6146eb90919063ffffffff16565b9050670de0b6b3a7640000613d758284613da690919063ffffffff16565b613d7f9190615d37565b945050505050613da0565b613d9d8284613da690919063ffffffff16565b90505b92915050565b5f5f821480613dcd575082828385613dbe9190616685565b925082613dcb9190615d37565b145b613e0c576040517f08c379a0000000000000000000000000000000000000000000000000000000008152600401613e0390616710565b60405180910390fd5b92915050565b5f6003821115613e77578190505f6001600284613e2f9190615d37565b613e39919061672e565b90505b81811015613e71578091506002818285613e569190615d37565b613e60919061672e565b613e6a9190615d37565b9050613e3c565b50613e84565b5f8214613e8357600190505b5b919050565b613e9d815f546146eb90919063ffffffff16565b5f81905550613ef28160015f8573ffffffffffffffffffffffffffffffffffffffff1673ffffffffffffffffffffffffffffffffffffffff1681526020019081526020015f20546146eb90919063ffffffff16565b60015f8473ffffffffffffffffffffffffffffffffffffffff1673ffffffffffffffffffffffffffffffffffffffff1681526020019081526020015f20819055508173ffffffffffffffffffffffffffffffffffffffff165f73ffffffffffffffffffffffffffffffffffffffff167fddf252ad1be2c89b69c2b068fc378daa952ba7f163c4a11628f55a4df523b3ef83604051613f909190614f68565b60405180910390a35050565b5f818310613faa5781613fac565b825b905092915050565b6dffffffffffffffffffffffffffff80168211158015613fe457506dffffffffffffffffffffffffffff80168111155b614023576040517f08c379a000000000000000000000000000000000000000000000000000000000815260040161401a906167ab565b60405180910390fd5b8160085f6101000a8154816dffffffffffffffffffffffffffff02191690836dffffffffffffffffffffffffffff160217905550806008600e6101000a8154816dffffffffffffffffffffffffffff02191690836dffffffffffffffffffffffffffff1602179055507f1c411e9a96e071241c2f21f7726b17ae89e3cab4c78be50e062b03a9fffbbad182826040516140bd9291906167c9565b60405180910390a15050565b60606140f36140d6614743565b6007016140e1614743565b6005015461484a90919063ffffffff16565b905090565b6060614122614105614743565b600801614110614743565b6006015461484a90919063ffffffff16565b905090565b6141778160015f8573ffffffffffffffffffffffffffffffffffffffff1673ffffffffffffffffffffffffffffffffffffffff1681526020019081526020015f205461384b90919063ffffffff16565b60015f8473ffffffffffffffffffffffffffffffffffffffff1673ffffffffffffffffffffffffffffffffffffffff1681526020019081526020015f20819055506141cc815f5461384b90919063ffffffff16565b5f819055505f73ffffffffffffffffffffffffffffffffffffffff168273ffffffffffffffffffffffffffffffffffffffff167fddf252ad1be2c89b69c2b068fc378daa952ba7f163c4a11628f55a4df523b3ef8360405161422e9190614f68565b60405180910390a35050565b5f5f8473ffffffffffffffffffffffffffffffffffffffff166040518060400160405280601981526020017f7472616e7366657228616464726573732c75696e7432353629000000000000008152508051906020012085856040516024016142a39291906167f0565b604051602081830303815290604052907bffffffffffffffffffffffffffffffffffffffffffffffffffffffff19166020820180517bffffffffffffffffffffffffffffffffffffffffffffffffffffffff838183161783525050505060405161430d9190616851565b5f604051808303815f865af19150503d805f8114614346576040519150601f19603f3d011682016040523d82523d5f602084013e61434b565b606091505b509150915081801561437857505f81511480614377575080806020019051810190614376919061687b565b5b5b6143b7576040517f08c379a00000000000000000000000000000000000000000000000000000000081526004016143ae906168f0565b60405180910390fd5b5050505050565b5f600c5f9054906101000a900460ff161561460a57614406620186a06143ed8489613da690919063ffffffff16565b6143f79190615d37565b8761384b90919063ffffffff16565b95505f6144138585613c65565b9050600954670de0b6b3a76400008661442c9190616685565b6144369190615d37565b9450600a54670de0b6b3a76400008561444f9190616685565b6144599190615d37565b93505f5f60065f9054906101000a900473ffffffffffffffffffffffffffffffffffffffff1673ffffffffffffffffffffffffffffffffffffffff168873ffffffffffffffffffffffffffffffffffffffff16146144b85785876144bb565b86865b9150915060065f9054906101000a900473ffffffffffffffffffffffffffffffffffffffff1673ffffffffffffffffffffffffffffffffffffffff168873ffffffffffffffffffffffffffffffffffffffff161461453957600a54670de0b6b3a76400008a61452a9190616685565b6145349190615d37565b61455b565b600954670de0b6b3a76400008a6145509190616685565b61455a9190615d37565b5b98505f614574838b61456d919061672e565b85846148f7565b8261457f9190616429565b9050670de0b6b3a764000060065f9054906101000a900473ffffffffffffffffffffffffffffffffffffffff1673ffffffffffffffffffffffffffffffffffffffff168a73ffffffffffffffffffffffffffffffffffffffff16146145e6576009546145ea565b600a545b826145f59190616685565b6145ff9190615d37565b9450505050506146e2565b5f5f60065f9054906101000a900473ffffffffffffffffffffffffffffffffffffffff1673ffffffffffffffffffffffffffffffffffffffff168773ffffffffffffffffffffffffffffffffffffffff161461466757848661466a565b85855b9150915061469661468785620186a061384b90919063ffffffff16565b89613da690919063ffffffff16565b97506146c0886146b2620186a085613da690919063ffffffff16565b6146eb90919063ffffffff16565b6146d3828a613da690919063ffffffff16565b6146dd9190615d37565b925050505b95945050505050565b5f8282846146f9919061672e565b915081101561473d576040517f08c379a000000000000000000000000000000000000000000000000000000000815260040161473490616958565b60405180910390fd5b92915050565b5f6148457f84b0196e000000000000000000000000000000000000000000000000000000007bffffffffffffffffffffffffffffffffffffffffffffffffffffffff1916600160405180604001604052600a8152806020017f4549503731325265706f000000000000000000000000000000000000000000008152506040516020016147cf9190614e19565b604051602081830303815290604052805190602001206040516020016147f591906150a6565b604051602081830303815290604052805190602001205f1c6148179190616429565b5f1b60405160200161482a929190616976565b60405160208183030381529060405280519060200120614a14565b905090565b606060ff5f1b83146148665761485f83614a1d565b90506148f1565b818054614872906169ca565b80601f016020809104026020016040519081016040528092919081815260200182805461489e906169ca565b80156148e95780601f106148c0576101008083540402835291602001916148e9565b820191905f5260205f20905b8154815290600101906020018083116148cc57829003601f168201915b505050505090505b92915050565b5f5f5f90505b60ff811015614a08575f8390505f6149158786614a8f565b905085811015614969575f61492a8887614b50565b670de0b6b3a7640000838961493f9190616429565b6149499190616685565b6149539190615d37565b90508086614961919061672e565b9550506149af565b5f6149748887614b50565b670de0b6b3a764000088846149899190616429565b6149939190616685565b61499d9190615d37565b905080866149ab9190616429565b9550505b818511156149da57600182866149c59190616429565b116149d557849350505050614a0d565b6149f9565b600185836149e89190616429565b116149f857849350505050614a0d565b5b505080806001019150506148fd565b508190505b9392505050565b5f819050919050565b60605f614a2983614be1565b90505f602067ffffffffffffffff811115614a4757614a46615df5565b5b6040519080825280601f01601f191660200182016040528015614a795781602001600182028036833780820191505090505b5090508181528360208201528092505050919050565b5f670de0b6b3a764000082670de0b6b3a764000085670de0b6b3a76400008788614ab99190616685565b614ac39190615d37565b614acd9190616685565b614ad79190615d37565b614ae19190616685565b614aeb9190615d37565b670de0b6b3a76400008084670de0b6b3a76400008687614b0b9190616685565b614b159190615d37565b614b1f9190616685565b614b299190615d37565b85614b349190616685565b614b3e9190615d37565b614b48919061672e565b905092915050565b5f670de0b6b3a764000083670de0b6b3a76400008586614b709190616685565b614b7a9190615d37565b614b849190616685565b614b8e9190615d37565b670de0b6b3a7640000808485614ba49190616685565b614bae9190615d37565b856003614bbb9190616685565b614bc59190616685565b614bcf9190615d37565b614bd9919061672e565b905092915050565b5f5f60ff835f1c169050601f811115614c26576040517fb3512b0c00000000000000000000000000000000000000000000000000000000815260040160405180910390fd5b80915050919050565b5f5ffd5b5f5ffd5b5f819050919050565b614c4981614c37565b8114614c53575f5ffd5b50565b5f81359050614c6481614c40565b92915050565b5f73ffffffffffffffffffffffffffffffffffffffff82169050919050565b5f614c9382614c6a565b9050919050565b614ca381614c89565b8114614cad575f5ffd5b50565b5f81359050614cbe81614c9a565b92915050565b5f5ffd5b5f5ffd5b5f5ffd5b5f5f83601f840112614ce557614ce4614cc4565b5b8235905067ffffffffffffffff811115614d0257614d01614cc8565b5b602083019150836001820283011115614d1e57614d1d614ccc565b5b9250929050565b5f5f5f5f5f60808688031215614d3e57614d3d614c2f565b5b5f614d4b88828901614c56565b9550506020614d5c88828901614c56565b9450506040614d6d88828901614cb0565b935050606086013567ffffffffffffffff811115614d8e57614d8d614c33565b5b614d9a88828901614cd0565b92509250509295509295909350565b5f81519050919050565b5f82825260208201905092915050565b8281835e5f83830152505050565b5f601f19601f8301169050919050565b5f614deb82614da9565b614df58185614db3565b9350614e05818560208601614dc3565b614e0e81614dd1565b840191505092915050565b5f6020820190508181035f830152614e318184614de1565b905092915050565b5f6dffffffffffffffffffffffffffff82169050919050565b614e5b81614e39565b82525050565b5f61ffff82169050919050565b614e7781614e61565b82525050565b5f608082019050614e905f830187614e52565b614e9d6020830186614e52565b614eaa6040830185614e6e565b614eb76060830184614e6e565b95945050505050565b5f5f60408385031215614ed657614ed5614c2f565b5b5f614ee385828601614cb0565b9250506020614ef485828601614c56565b9150509250929050565b5f8115159050919050565b614f1281614efe565b82525050565b5f602082019050614f2b5f830184614f09565b92915050565b614f3a81614c89565b82525050565b5f602082019050614f535f830184614f31565b92915050565b614f6281614c37565b82525050565b5f602082019050614f7b5f830184614f59565b92915050565b5f5f5f60608486031215614f9857614f97614c2f565b5b5f614fa586828701614cb0565b9350506020614fb686828701614cb0565b9250506040614fc786828701614c56565b9150509250925092565b5f602082019050614fe45f830184614e6e565b92915050565b614ff381614efe565b8114614ffd575f5ffd5b50565b5f8135905061500e81614fea565b92915050565b61501d81614e39565b8114615027575f5ffd5b50565b5f8135905061503881615014565b92915050565b5f5f5f6060848603121561505557615054614c2f565b5b5f61506286828701615000565b93505060206150738682870161502a565b92505060406150848682870161502a565b9150509250925092565b5f819050919050565b6150a08161508e565b82525050565b5f6020820190506150b95f830184615097565b92915050565b5f60ff82169050919050565b6150d4816150bf565b82525050565b5f6020820190506150ed5f8301846150cb565b92915050565b5f5f6040838503121561510957615108614c2f565b5b5f61511685828601614cb0565b925050602061512785828601614cb0565b9150509250929050565b61513a81614e61565b8114615144575f5ffd5b50565b5f8135905061515581615131565b92915050565b5f5f6040838503121561517157615170614c2f565b5b5f61517e85828601615147565b925050602061518f85828601615147565b9150509250929050565b5f602082840312156151ae576151ad614c2f565b5b5f6151bb84828501614cb0565b91505092915050565b5f5f5f5f5f5f60a087890312156151de576151dd614c2f565b5b5f6151eb89828a01614c56565b96505060206151fc89828a01614c56565b955050604061520d89828a01614cb0565b945050606087013567ffffffffffffffff81111561522e5761522d614c33565b5b61523a89828a01614cd0565b9350935050608061524d89828a01614cb0565b9150509295509295509295565b5f7fff0000000000000000000000000000000000000000000000000000000000000082169050919050565b61528e8161525a565b82525050565b5f81519050919050565b5f82825260208201905092915050565b5f819050602082019050919050565b6152c681614c37565b82525050565b5f6152d783836152bd565b60208301905092915050565b5f602082019050919050565b5f6152f982615294565b615303818561529e565b935061530e836152ae565b805f5b8381101561533e57815161532588826152cc565b9750615330836152e3565b925050600181019050615311565b5085935050505092915050565b5f60e08201905061535e5f83018a615285565b81810360208301526153708189614de1565b905081810360408301526153848188614de1565b90506153936060830187614f59565b6153a06080830186614f31565b6153ad60a0830185615097565b81810360c08301526153bf81846152ef565b905098975050505050505050565b5f6040820190506153e05f830185614f59565b6153ed6020830184614f59565b9392505050565b6153fd816150bf565b8114615407575f5ffd5b50565b5f81359050615418816153f4565b92915050565b6154278161508e565b8114615431575f5ffd5b50565b5f813590506154428161541e565b92915050565b5f5f5f5f5f5f5f60e0888a03121561546357615462614c2f565b5b5f6154708a828b01614cb0565b97505060206154818a828b01614cb0565b96505060406154928a828b01614c56565b95505060606154a38a828b01614c56565b94505060806154b48a828b0161540a565b93505060a06154c58a828b01615434565b92505060c06154d68a828b01615434565b91505092959891949750929550565b5f5f604083850312156154fb576154fa614c2f565b5b5f61550885828601614c56565b925050602061551985828601614cb0565b9150509250929050565b7f43616d656c6f74506169723a204c4f434b4544000000000000000000000000005f82015250565b5f615557601383614db3565b915061556282615523565b602082019050919050565b5f6020820190508181035f8301526155848161554b565b9050919050565b5f8151905061559981614c9a565b92915050565b5f602082840312156155b4576155b3614c2f565b5b5f6155c18482850161558b565b91505092915050565b7f43616d656c6f74506169723a206f6e6c7920666163746f7279277320736574535f8201527f7461626c654f776e657200000000000000000000000000000000000000000000602082015250565b5f615624602a83614db3565b915061562f826155ca565b604082019050919050565b5f6020820190508181035f83015261565181615618565b9050919050565b7f43616d656c6f74506169723a20696d6d757461626c65000000000000000000005f82015250565b5f61568c601683614db3565b915061569782615658565b602082019050919050565b5f6020820190508181035f8301526156b981615680565b9050919050565b7f43616d656c6f74506169723a206e6f20757064617465000000000000000000005f82015250565b5f6156f4601683614db3565b91506156ff826156c0565b602082019050919050565b5f6020820190508181035f830152615721816156e8565b9050919050565b7f43616d656c6f74506169723a206661696c6564000000000000000000000000005f82015250565b5f61575c601383614db3565b915061576782615728565b602082019050919050565b5f6020820190508181035f83015261578981615750565b9050919050565b5f6040820190506157a35f830185614f09565b6157b06020830184614f09565b9392505050565b7f43616d656c6f74506169723a206f6e6c7920666163746f72792773206f776e655f8201527f7200000000000000000000000000000000000000000000000000000000000000602082015250565b5f615811602183614db3565b915061581c826157b7565b604082019050919050565b5f6020820190508181035f83015261583e81615805565b9050919050565b7f43616d656c6f74506169723a20616c726561647920696d6d757461626c6500005f82015250565b5f615879601e83614db3565b915061588482615845565b602082019050919050565b5f6020820190508181035f8301526158a68161586d565b9050919050565b7f43616d656c6f74506169723a20464f5242494444454e000000000000000000005f82015250565b5f6158e1601683614db3565b91506158ec826158ad565b602082019050919050565b5f6020820190508181035f83015261590e816158d5565b9050919050565b5f81519050615923816153f4565b92915050565b5f6020828403121561593e5761593d614c2f565b5b5f61594b84828501615915565b91505092915050565b7f4e487b71000000000000000000000000000000000000000000000000000000005f52601160045260245ffd5b5f8160011c9050919050565b5f5f8291508390505b60018511156159d6578086048111156159b2576159b1615954565b5b60018516156159c15780820291505b80810290506159cf85615981565b9450615996565b94509492505050565b5f826159ee5760019050615aa9565b816159fb575f9050615aa9565b8160018114615a115760028114615a1b57615a4a565b6001915050615aa9565b60ff841115615a2d57615a2c615954565b5b8360020a915084821115615a4457615a43615954565b5b50615aa9565b5060208310610133831016604e8410600b8410161715615a7f5782820a905083811115615a7a57615a79615954565b5b615aa9565b615a8c848484600161598d565b92509050818404811115615aa357615aa2615954565b5b81810290505b9392505050565b5f615aba82614c37565b9150615ac583614c37565b9250615af27fffffffffffffffffffffffffffffffffffffffffffffffffffffffffffffffff84846159df565b905092915050565b7f43616d656c6f74506169723a206f6e6c7920666163746f7279277320666565415f8201527f6d6f756e744f776e657200000000000000000000000000000000000000000000602082015250565b5f615b54602a83614db3565b9150615b5f82615afa565b604082019050919050565b5f6020820190508181035f830152615b8181615b48565b9050919050565b7f43616d656c6f74506169723a2066656550657263656e74206d7573746e2774205f8201527f65786365656420746865206d6178696d756d0000000000000000000000000000602082015250565b5f615be2603283614db3565b9150615bed82615b88565b604082019050919050565b5f6020820190508181035f830152615c0f81615bd6565b9050919050565b7f43616d656c6f74506169723a2066656550657263656e74206d7573746e2774205f8201527f65786365656420746865206d696e696d756d0000000000000000000000000000602082015250565b5f615c70603283614db3565b9150615c7b82615c16565b604082019050919050565b5f6020820190508181035f830152615c9d81615c64565b9050919050565b5f604082019050615cb75f830185614e6e565b615cc46020830184614e6e565b9392505050565b5f81519050615cd981614c40565b92915050565b5f60208284031215615cf457615cf3614c2f565b5b5f615d0184828501615ccb565b91505092915050565b7f4e487b71000000000000000000000000000000000000000000000000000000005f52601260045260245ffd5b5f615d4182614c37565b9150615d4c83614c37565b925082615d5c57615d5b615d0a565b5b828204905092915050565b7f43616d656c6f74506169723a20494e53554646494349454e545f4c49515549445f8201527f4954595f4d494e54454400000000000000000000000000000000000000000000602082015250565b5f615dc1602a83614db3565b9150615dcc82615d67565b604082019050919050565b5f6020820190508181035f830152615dee81615db5565b9050919050565b7f4e487b71000000000000000000000000000000000000000000000000000000005f52604160045260245ffd5b7f43616d656c6f74506169723a20494e53554646494349454e545f4c49515549445f8201527f4954595f4255524e454400000000000000000000000000000000000000000000602082015250565b5f615e7c602a83614db3565b9150615e8782615e22565b604082019050919050565b5f6020820190508181035f830152615ea981615e70565b9050919050565b7f556e697377617056323a204558504952454400000000000000000000000000005f82015250565b5f615ee4601283614db3565b9150615eef82615eb0565b602082019050919050565b5f6020820190508181035f830152615f1181615ed8565b9050919050565b5f615f2282614c37565b91507fffffffffffffffffffffffffffffffffffffffffffffffffffffffffffffffff8203615f5457615f53615954565b5b600182019050919050565b5f60c082019050615f725f830189615097565b615f7f6020830188614f31565b615f8c6040830187614f31565b615f996060830186614f59565b615fa66080830185614f59565b615fb360a0830184614f59565b979650505050505050565b5f81905092915050565b7f19010000000000000000000000000000000000000000000000000000000000005f82015250565b5f615ffc600283615fbe565b915061600782615fc8565b600282019050919050565b5f819050919050565b61602c6160278261508e565b616012565b82525050565b5f61603c82615ff0565b9150616048828561601b565b602082019150616058828461601b565b6020820191508190509392505050565b5f60808201905061607b5f830187615097565b61608860208301866150cb565b6160956040830185615097565b6160a26060830184615097565b95945050505050565b7f556e697377617056323a20494e56414c49445f5349474e4154555245000000005f82015250565b5f6160df601c83614db3565b91506160ea826160ab565b602082019050919050565b5f6020820190508181035f83015261610c816160d3565b9050919050565b7f43616d656c6f74506169723a20696e76616c696420746f6b656e0000000000005f82015250565b5f616147601a83614db3565b915061615282616113565b602082019050919050565b5f6020820190508181035f8301526161748161613b565b9050919050565b7f43616d656c6f74506169723a206c697175696469747920726174696f206e6f745f8201527f20696e697469616c697a65640000000000000000000000000000000000000000602082015250565b5f6161d5602c83614db3565b91506161e08261617b565b604082019050919050565b5f6020820190508181035f830152616202816161c9565b9050919050565b7f43616d656c6f74506169723a20494e53554646494349454e545f4f55545055545f8201527f5f414d4f554e5400000000000000000000000000000000000000000000000000602082015250565b5f616263602783614db3565b915061626e82616209565b604082019050919050565b5f6020820190508181035f83015261629081616257565b9050919050565b7f43616d656c6f74506169723a20494e53554646494349454e545f4c49515549445f8201527f4954590000000000000000000000000000000000000000000000000000000000602082015250565b5f6162f1602383614db3565b91506162fc82616297565b604082019050919050565b5f6020820190508181035f83015261631e816162e5565b9050919050565b7f43616d656c6f74506169723a20494e56414c49445f544f0000000000000000005f82015250565b5f616359601783614db3565b915061636482616325565b602082019050919050565b5f6020820190508181035f8301526163868161634d565b9050919050565b5f81519050919050565b5f82825260208201905092915050565b5f6163b18261638d565b6163bb8185616397565b93506163cb818560208601614dc3565b6163d481614dd1565b840191505092915050565b5f6080820190506163f25f830187614f31565b6163ff6020830186614f59565b61640c6040830185614f59565b818103606083015261641e81846163a7565b905095945050505050565b5f61643382614c37565b915061643e83614c37565b925082820390508181111561645657616455615954565b5b92915050565b7f43616d656c6f74506169723a20494e53554646494349454e545f494e5055545f5f8201527f414d4f554e540000000000000000000000000000000000000000000000000000602082015250565b5f6164b6602683614db3565b91506164c18261645c565b604082019050919050565b5f6020820190508181035f8301526164e3816164aa565b9050919050565b5f6164f482614c37565b91506164ff836150bf565b925061652c7fffffffffffffffffffffffffffffffffffffffffffffffffffffffffffffffff84846159df565b905092915050565b5f5f6040838503121561654a57616549614c2f565b5b5f61655785828601615ccb565b92505060206165688582860161558b565b9150509250929050565b7f43616d656c6f74506169723a204b0000000000000000000000000000000000005f82015250565b5f6165a6600e83614db3565b91506165b182616572565b602082019050919050565b5f6020820190508181035f8301526165d38161659a565b9050919050565b5f6080820190506165ed5f830187614f59565b6165fa6020830186614f59565b6166076040830185614f59565b6166146060830184614f59565b95945050505050565b7f64732d6d6174682d7375622d756e646572666c6f7700000000000000000000005f82015250565b5f616651601583614db3565b915061665c8261661d565b602082019050919050565b5f6020820190508181035f83015261667e81616645565b9050919050565b5f61668f82614c37565b915061669a83614c37565b92508282026166a881614c37565b915082820484148315176166bf576166be615954565b5b5092915050565b7f64732d6d6174682d6d756c2d6f766572666c6f770000000000000000000000005f82015250565b5f6166fa601483614db3565b9150616705826166c6565b602082019050919050565b5f6020820190508181035f830152616727816166ee565b9050919050565b5f61673882614c37565b915061674383614c37565b925082820190508082111561675b5761675a615954565b5b92915050565b7f43616d656c6f74506169723a204f564552464c4f5700000000000000000000005f82015250565b5f616795601583614db3565b91506167a082616761565b602082019050919050565b5f6020820190508181035f8301526167c281616789565b9050919050565b5f6040820190506167dc5f830185614e52565b6167e96020830184614e52565b9392505050565b5f6040820190506168035f830185614f31565b6168106020830184614f59565b9392505050565b5f81905092915050565b5f61682b8261638d565b6168358185616817565b9350616845818560208601614dc3565b80840191505092915050565b5f61685c8284616821565b915081905092915050565b5f8151905061687581614fea565b92915050565b5f602082840312156168905761688f614c2f565b5b5f61689d84828501616867565b91505092915050565b7f43616d656c6f74506169723a205452414e534645525f4641494c4544000000005f82015250565b5f6168da601c83614db3565b91506168e5826168a6565b602082019050919050565b5f6020820190508181035f830152616907816168ce565b9050919050565b7f64732d6d6174682d6164642d6f766572666c6f770000000000000000000000005f82015250565b5f616942601483614db3565b915061694d8261690e565b602082019050919050565b5f6020820190508181035f83015261696f81616936565b9050919050565b5f6040820190506169895f830185615097565b6169966020830184615097565b9392505050565b7f4e487b71000000000000000000000000000000000000000000000000000000005f52602260045260245ffd5b5f60028204905060018216806169e157607f821691505b6020821081036169f4576169f361699d565b5b5091905056fea2646970667358221220269f96ffed111392cccd527fd16261fd2c2505c8b488487c1c7c526184cad94764736f6c634300081c0033a26469706673582212206338caf987f2796e75503a7dbb2ef94cfeaf369c1dedaeeadced12b848b5f83964736f6c634300081c0033","linkReferences":{}},"methodIdentifiers":{"OWNER_FEE_SHARE_MAX()":"90fd0687","REFERER_FEE_SHARE_MAX()":"1850bd76","allPairs(uint256)":"1e3dd18b","allPairsLength()":"574f2ba3","createPair(address,address)":"c9c65396","feeInfo()":"995b5aae","feePercentOwner()":"4c217715","feeTo()":"017e7e58","getPair(address,address)":"e6a43905","owner()":"8da5cb5b","ownerFeeShare()":"69c8b572","referrersFeeShare(address)":"7183d47c","setFeePercentOwner(address)":"e93f6585","setFeeTo(address)":"f46901ed","setOwner(address)":"13af4035","setOwnerFeeShare(uint256)":"91b83178","setReferrerFeeShare(address,uint256)":"c1cf3c7f","setSetStableOwner(address)":"8692fa7d","setStableOwner()":"fc39026a"},"id":8}