{"abi":[{"type":"constructor","inputs":[{"name":"_token0","type":"address","internalType":"address"},{"name":"_token1","type":"address","internalType":"address"}],"stateMutability":"nonpayable"},{"type":"function","name":"claimFeesFor","inputs":[{"name":"_recipient","type":"address","internalType":"address"},{"name":"_amount0","type":"uint256","internalType":"uint256"},{"name":"_amount1","type":"uint256","internalType":"uint256"}],"outputs":[],"stateMutability":"nonpayable"},{"type":"error","name":"NotPool","inputs":[]}],"bytecode":{"object":"0x60e060405234801561000f575f5ffd5b5060405161028338038061028383398101604081905261002e91610064565b336080526001600160a01b0391821660a0521660c052610095565b80516001600160a01b038116811461005f575f5ffd5b919050565b5f5f60408385031215610075575f5ffd5b61007e83610049565b915061008c60208401610049565b90509250929050565b60805160a05160c0516101c76100bc5f395f60d801525f609e01525f604d01526101c75ff3fe608060405234801561000f575f5ffd5b5060043610610029575f3560e01c8063533cf5ce1461002d575b5f5ffd5b61004061003b366004610154565b610042565b005b336001600160a01b037f0000000000000000000000000000000000000000000000000000000000000000161461008b57604051636f61f64160e01b815260040160405180910390fd5b81156100c5576100c56001600160a01b037f0000000000000000000000000000000000000000000000000000000000000000168484610104565b80156100ff576100ff6001600160a01b037f0000000000000000000000000000000000000000000000000000000000000000168483610104565b505050565b6100ff838383816014528060345263a9059cbb60601b5f5260205f604460105f875af18060015f51141661014a57803d853b15171061014a576390b8ec185f526004601cfd5b505f603452505050565b5f5f5f60608486031215610166575f5ffd5b83356001600160a01b038116811461017c575f5ffd5b9560208501359550604090940135939250505056fea264697066735822122065210b648b5422a28bbfc0a92ad92f31cc9e1a1ba94280abf757826138e78f5a64736f6c634300081e0033","linkReferences":{}},"methodIdentifiers":{"claimFeesFor(address,uint256,uint256)":"533cf5ce"},"id":810}