{"abi":[{"type":"function","name":"burn","inputs":[{"name":"account","type":"address","internalType":"address"},{"name":"amount","type":"uint256","internalType":"uint256"}],"outputs":[{"name":"","type":"bool","internalType":"bool"}],"stateMutability":"nonpayable"},{"type":"function","name":"mint","inputs":[{"name":"account","type":"address","internalType":"address"},{"name":"amount","type":"uint256","internalType":"uint256"}],"outputs":[{"name":"","type":"bool","internalType":"bool"}],"stateMutability":"nonpayable"},{"type":"event","name":"Transfer","inputs":[{"name":"from","type":"address","indexed":true,"internalType":"address"},{"name":"to","type":"address","indexed":true,"internalType":"address"},{"name":"amount","type":"uint256","indexed":false,"internalType":"uint256"}],"anonymous":false},{"type":"error","name":"NotOperator","inputs":[{"name":"caller","type":"address","internalType":"address"}]}],"bytecode":{"object":"0x6080604052348015600e575f5ffd5b506103d58061001c5f395ff3fe608060405234801561000f575f5ffd5b5060043610610034575f3560e01c806340c10f19146100385780639dc29fac1461005f575b5f5ffd5b61004b610046366004610310565b610072565b604051901515815260200160405180910390f35b61004b61006d366004610310565b61008f565b5f61007b6100a2565b61008583836100b4565b5060015b92915050565b5f6100986100a2565b61008583836100ca565b6100b26100ad6100dc565b610137565b565b6100c66100bf6101bf565b83836101f1565b5050565b6100c66100d56101bf565b838361026c565b5f610132604051602001610119906020808252601590820152746372616e652e6163636573732e6f70657261626c6560581b604082015260600190565b6040516020818303038152906040528051906020012090565b905090565b336101406102de565b6001600160a01b0316141580156101665750335f9081526020829052604090205460ff16155b801561019857505f80356001600160e01b0319168152600182016020908152604080832033845290915290205460ff16155b156101bc57604051633b63649d60e11b815233600482015260240160405180910390fd5b50565b5f610132604051602001610119906020808252600a908201526906569702e6572632e32360b41b604082015260600190565b6001600160a01b0382165f9081526004840160205260408120805483929061021a908490610359565b9250508190555080836003015f8282546102349190610359565b90915550506040518181526001600160a01b038316905f905f5160206103805f395f51905f52906020015b60405180910390a3505050565b6001600160a01b0382165f9081526004840160205260408120805483929061029590849061036c565b9250508190555080836003015f8282546102af919061036c565b90915550506040518181525f906001600160a01b038416905f5160206103805f395f51905f529060200161025f565b5f6101327f552e522d4f9b6a3d443b47299f900b7b1bce2dacca532b0186b605495413451d546001600160a01b031690565b5f5f60408385031215610321575f5ffd5b82356001600160a01b0381168114610337575f5ffd5b946020939093013593505050565b634e487b7160e01b5f52601160045260245ffd5b8082018082111561008957610089610345565b818103818111156100895761008961034556feddf252ad1be2c89b69c2b068fc378daa952ba7f163c4a11628f55a4df523b3efa2646970667358221220f7ea544b4f76a05ecd050479f4afd164c86ed9662f30ff62adb34ce3ffdf6e9864736f6c634300081e0033","linkReferences":{}},"methodIdentifiers":{"burn(address,uint256)":"9dc29fac","mint(address,uint256)":"40c10f19"},"id":1310}