{"abi":[{"type":"function","name":"DOMAIN_SEPARATOR","inputs":[],"outputs":[{"name":"","type":"bytes32","internalType":"bytes32"}],"stateMutability":"view"},{"type":"function","name":"allowance","inputs":[{"name":"owner","type":"address","internalType":"address"},{"name":"spender","type":"address","internalType":"address"}],"outputs":[{"name":"","type":"uint256","internalType":"uint256"}],"stateMutability":"view"},{"type":"function","name":"approve","inputs":[{"name":"spender","type":"address","internalType":"address"},{"name":"amount","type":"uint256","internalType":"uint256"}],"outputs":[{"name":"result","type":"bool","internalType":"bool"}],"stateMutability":"nonpayable"},{"type":"function","name":"balanceOf","inputs":[{"name":"account","type":"address","internalType":"address"}],"outputs":[{"name":"balance","type":"uint256","internalType":"uint256"}],"stateMutability":"view"},{"type":"function","name":"burn","inputs":[{"name":"account","type":"address","internalType":"address"},{"name":"amount","type":"uint256","internalType":"uint256"}],"outputs":[{"name":"","type":"bool","internalType":"bool"}],"stateMutability":"nonpayable"},{"type":"function","name":"decimals","inputs":[],"outputs":[{"name":"","type":"uint8","internalType":"uint8"}],"stateMutability":"view"},{"type":"function","name":"decreaseAllowance","inputs":[{"name":"spender","type":"address","internalType":"address"},{"name":"subtractedValue","type":"uint256","internalType":"uint256"}],"outputs":[{"name":"","type":"bool","internalType":"bool"}],"stateMutability":"nonpayable"},{"type":"function","name":"eip712Domain","inputs":[],"outputs":[{"name":"fields","type":"bytes1","internalType":"bytes1"},{"name":"name","type":"string","internalType":"string"},{"name":"version","type":"string","internalType":"string"},{"name":"chainId","type":"uint256","internalType":"uint256"},{"name":"verifyingContract","type":"address","internalType":"address"},{"name":"salt","type":"bytes32","internalType":"bytes32"},{"name":"extensions","type":"uint256[]","internalType":"uint256[]"}],"stateMutability":"view"},{"type":"function","name":"increaseAllowance","inputs":[{"name":"spender","type":"address","internalType":"address"},{"name":"addedValue","type":"uint256","internalType":"uint256"}],"outputs":[{"name":"","type":"bool","internalType":"bool"}],"stateMutability":"nonpayable"},{"type":"function","name":"mint","inputs":[{"name":"account","type":"address","internalType":"address"},{"name":"amount","type":"uint256","internalType":"uint256"}],"outputs":[{"name":"","type":"bool","internalType":"bool"}],"stateMutability":"nonpayable"},{"type":"function","name":"name","inputs":[],"outputs":[{"name":"","type":"string","internalType":"string"}],"stateMutability":"view"},{"type":"function","name":"nonces","inputs":[{"name":"owner","type":"address","internalType":"address"}],"outputs":[{"name":"","type":"uint256","internalType":"uint256"}],"stateMutability":"view"},{"type":"function","name":"permit","inputs":[{"name":"owner","type":"address","internalType":"address"},{"name":"spender","type":"address","internalType":"address"},{"name":"value","type":"uint256","internalType":"uint256"},{"name":"deadline","type":"uint256","internalType":"uint256"},{"name":"v","type":"uint8","internalType":"uint8"},{"name":"r","type":"bytes32","internalType":"bytes32"},{"name":"s","type":"bytes32","internalType":"bytes32"}],"outputs":[],"stateMutability":"nonpayable"},{"type":"function","name":"symbol","inputs":[],"outputs":[{"name":"tokenSymbol","type":"string","internalType":"string"}],"stateMutability":"view"},{"type":"function","name":"totalSupply","inputs":[],"outputs":[{"name":"supply","type":"uint256","internalType":"uint256"}],"stateMutability":"view"},{"type":"function","name":"transfer","inputs":[{"name":"recipient","type":"address","internalType":"address"},{"name":"amount","type":"uint256","internalType":"uint256"}],"outputs":[{"name":"result","type":"bool","internalType":"bool"}],"stateMutability":"nonpayable"},{"type":"function","name":"transferFrom","inputs":[{"name":"sender","type":"address","internalType":"address"},{"name":"recipient","type":"address","internalType":"address"},{"name":"amount","type":"uint256","internalType":"uint256"}],"outputs":[{"name":"result","type":"bool","internalType":"bool"}],"stateMutability":"nonpayable"},{"type":"event","name":"Approval","inputs":[{"name":"owner","type":"address","indexed":true,"internalType":"address"},{"name":"spender","type":"address","indexed":true,"internalType":"address"},{"name":"value","type":"uint256","indexed":false,"internalType":"uint256"}],"anonymous":false},{"type":"event","name":"EIP712DomainChanged","inputs":[],"anonymous":false},{"type":"event","name":"Transfer","inputs":[{"name":"from","type":"address","indexed":true,"internalType":"address"},{"name":"to","type":"address","indexed":true,"internalType":"address"},{"name":"value","type":"uint256","indexed":false,"internalType":"uint256"}],"anonymous":false},{"type":"error","name":"ECDSAInvalidSignature","inputs":[]},{"type":"error","name":"ECDSAInvalidSignatureLength","inputs":[{"name":"length","type":"uint256","internalType":"uint256"}]},{"type":"error","name":"ECDSAInvalidSignatureS","inputs":[{"name":"s","type":"bytes32","internalType":"bytes32"}]},{"type":"error","name":"ERC20InsufficientAllowance","inputs":[{"name":"spender","type":"address","internalType":"address"},{"name":"allowance","type":"uint256","internalType":"uint256"},{"name":"needed","type":"uint256","internalType":"uint256"}]},{"type":"error","name":"ERC20InsufficientBalance","inputs":[{"name":"sender","type":"address","internalType":"address"},{"name":"balance","type":"uint256","internalType":"uint256"},{"name":"needed","type":"uint256","internalType":"uint256"}]},{"type":"error","name":"ERC20InvalidApprover","inputs":[{"name":"approver","type":"address","internalType":"address"}]},{"type":"error","name":"ERC20InvalidReceiver","inputs":[{"name":"receiver","type":"address","internalType":"address"}]},{"type":"error","name":"ERC20InvalidSender","inputs":[{"name":"sender","type":"address","internalType":"address"}]},{"type":"error","name":"ERC20InvalidSpender","inputs":[{"name":"spender","type":"address","internalType":"address"}]},{"type":"error","name":"ERC2612ExpiredSignature","inputs":[{"name":"deadline","type":"uint256","internalType":"uint256"}]},{"type":"error","name":"ERC2612InvalidSigner","inputs":[{"name":"signer","type":"address","internalType":"address"},{"name":"owner","type":"address","internalType":"address"}]},{"type":"error","name":"InvalidAccountNonce","inputs":[{"name":"account","type":"address","internalType":"address"},{"name":"currentNonce","type":"uint256","internalType":"uint256"}]},{"type":"error","name":"InvalidShortString","inputs":[]},{"type":"error","name":"NotOperator","inputs":[{"name":"caller","type":"address","internalType":"address"}]}],"bytecode":{"object":"0x6080604052348015600e575f5ffd5b506127d98061001c5f395ff3fe608060405234801561000f575f5ffd5b5060043610610109575f3560e01c806370a08231116100a05780639dc29fac1161006f5780639dc29fac146102e7578063a457c2d714610317578063a9059cbb14610347578063d505accf14610377578063dd62ed3e1461039357610109565b806370a08231146102455780637ecebe001461027557806384b0196e146102a557806395d89b41146102c957610109565b8063313ce567116100dc578063313ce567146101a95780633644e515146101c757806339509351146101e557806340c10f191461021557610109565b806306fdde031461010d578063095ea7b31461012b57806318160ddd1461015b57806323b872dd14610179575b5f5ffd5b6101156103c3565b6040516101229190611fef565b60405180910390f35b610145600480360381019061014091906120a0565b61045b565b60405161015291906120f8565b60405180910390f35b6101636104d6565b6040516101709190612120565b60405180910390f35b610193600480360381019061018e9190612139565b6104e8565b6040516101a091906120f8565b60405180910390f35b6101b1610565565b6040516101be91906121a4565b60405180910390f35b6101cf610583565b6040516101dc91906121d5565b60405180910390f35b6101ff60048036038101906101fa91906120a0565b610591565b60405161020c91906120f8565b60405180910390f35b61022f600480360381019061022a91906120a0565b6105a7565b60405161023c91906120f8565b60405180910390f35b61025f600480360381019061025a91906121ee565b6106e6565b60405161026c9190612120565b60405180910390f35b61028f600480360381019061028a91906121ee565b610735565b60405161029c9190612120565b60405180910390f35b6102ad610783565b6040516102c09796959493929190612319565b60405180910390f35b6102d1610828565b6040516102de9190611fef565b60405180910390f35b61030160048036038101906102fc91906120a0565b6108c1565b60405161030e91906120f8565b60405180910390f35b610331600480360381019061032c91906120a0565b610a00565b60405161033e91906120f8565b60405180910390f35b610361600480360381019061035c91906120a0565b610a16565b60405161036e91906120f8565b60405180910390f35b610391600480360381019061038c91906123ef565b610a91565b005b6103ad60048036038101906103a8919061248c565b610bd6565b6040516103ba9190612120565b60405180910390f35b60606103cd610c61565b5f0180546103da906124f7565b80601f0160208091040260200160405190810160405280929190818152602001828054610406906124f7565b80156104515780601f1061042857610100808354040283529160200191610451565b820191905f5260205f20905b81548152906001019060200180831161043457829003601f168201915b5050505050905090565b5f610467338484610d68565b8273ffffffffffffffffffffffffffffffffffffffff163373ffffffffffffffffffffffffffffffffffffffff167f8c5be1e5ebec7d5bd14f71427d1e84f3dd0314c0f7b2291e5b200ac8c7c3b925846040516104c49190612120565b60405180910390a36001905092915050565b5f6104df610c61565b60030154905090565b5f6104f533858585610ed3565b8273ffffffffffffffffffffffffffffffffffffffff168473ffffffffffffffffffffffffffffffffffffffff167fddf252ad1be2c89b69c2b068fc378daa952ba7f163c4a11628f55a4df523b3ef846040516105529190612120565b60405180910390a3600190509392505050565b5f61056e610c61565b6002015f9054906101000a900460ff16905090565b5f61058c610ef2565b905090565b5f61059d338484610f87565b6001905092915050565b5f6105b133611023565b15801561067e57506105c161107d565b6001015f5f357fffffffff00000000000000000000000000000000000000000000000000000000167bffffffffffffffffffffffffffffffffffffffffffffffffffffffff19167bffffffffffffffffffffffffffffffffffffffffffffffffffffffff191681526020019081526020015f205f3373ffffffffffffffffffffffffffffffffffffffff1673ffffffffffffffffffffffffffffffffffffffff1681526020019081526020015f205f9054906101000a900460ff16155b8015610690575061068e33611184565b155b156106d257336040517f76c6c93a0000000000000000000000000000000000000000000000000000000081526004016106c99190612527565b60405180910390fd5b6106dc83836111c2565b6001905092915050565b5f6106ef610c61565b6004015f8373ffffffffffffffffffffffffffffffffffffffff1673ffffffffffffffffffffffffffffffffffffffff1681526020019081526020015f20549050919050565b5f61073e6111dc565b5f015f8373ffffffffffffffffffffffffffffffffffffffff1673ffffffffffffffffffffffffffffffffffffffff1681526020019081526020015f20549050919050565b5f6060805f5f5f60606107946112e3565b61079c611312565b46305f5f1b5f67ffffffffffffffff8111156107bb576107ba612540565b5b6040519080825280602002602001820160405280156107e95781602001602082028036833780820191505090505b507f0f00000000000000000000000000000000000000000000000000000000000000959493929190965096509650965096509650965090919293949596565b6060610832610c61565b6001018054610840906124f7565b80601f016020809104026020016040519081016040528092919081815260200182805461086c906124f7565b80156108b75780601f1061088e576101008083540402835291602001916108b7565b820191905f5260205f20905b81548152906001019060200180831161089a57829003601f168201915b5050505050905090565b5f6108cb33611023565b15801561099857506108db61107d565b6001015f5f357fffffffff00000000000000000000000000000000000000000000000000000000167bffffffffffffffffffffffffffffffffffffffffffffffffffffffff19167bffffffffffffffffffffffffffffffffffffffffffffffffffffffff191681526020019081526020015f205f3373ffffffffffffffffffffffffffffffffffffffff1673ffffffffffffffffffffffffffffffffffffffff1681526020019081526020015f205f9054906101000a900460ff16155b80156109aa57506109a833611184565b155b156109ec57336040517f76c6c93a0000000000000000000000000000000000000000000000000000000081526004016109e39190612527565b60405180910390fd5b6109f68383611341565b6001905092915050565b5f610a0c33848461135b565b6001905092915050565b5f610a223384846113f7565b8273ffffffffffffffffffffffffffffffffffffffff163373ffffffffffffffffffffffffffffffffffffffff167fddf252ad1be2c89b69c2b068fc378daa952ba7f163c4a11628f55a4df523b3ef84604051610a7f9190612120565b60405180910390a36001905092915050565b83421115610ad657836040517f62791302000000000000000000000000000000000000000000000000000000008152600401610acd9190612120565b60405180910390fd5b5f7f6e71edae12b1b97f4d1f60370fef10105fa2faae0126114a169c64845d6126c9888888610b048c611480565b89604051602001610b1a9695949392919061256d565b6040516020818303038152906040528051906020012090505f610b3c826114db565b90505f610b4b828787876114f4565b90508973ffffffffffffffffffffffffffffffffffffffff168173ffffffffffffffffffffffffffffffffffffffff1614610bbf57808a6040517f4b800e46000000000000000000000000000000000000000000000000000000008152600401610bb69291906125cc565b60405180910390fd5b610bca8a8a8a610d68565b50505050505050505050565b5f610bdf610c61565b6005015f8473ffffffffffffffffffffffffffffffffffffffff1673ffffffffffffffffffffffffffffffffffffffff1681526020019081526020015f205f8373ffffffffffffffffffffffffffffffffffffffff1673ffffffffffffffffffffffffffffffffffffffff1681526020019081526020015f2054905092915050565b5f610d637f942e8b22000000000000000000000000000000000000000000000000000000007bffffffffffffffffffffffffffffffffffffffffffffffffffffffff191660016040518060400160405260098152806020017f45524332305265706f0000000000000000000000000000000000000000000000815250604051602001610ced9190611fef565b60405160208183030381529060405280519060200120604051602001610d1391906121d5565b604051602081830303815290604052805190602001205f1c610d359190612620565b5f1b604051602001610d48929190612653565b60405160208183030381529060405280519060200120611522565b905090565b5f73ffffffffffffffffffffffffffffffffffffffff168373ffffffffffffffffffffffffffffffffffffffff1603610dd857826040517fec442f05000000000000000000000000000000000000000000000000000000008152600401610dcf9190612527565b60405180910390fd5b5f73ffffffffffffffffffffffffffffffffffffffff168273ffffffffffffffffffffffffffffffffffffffff1603610e4857816040517fec442f05000000000000000000000000000000000000000000000000000000008152600401610e3f9190612527565b60405180910390fd5b80610e51610c61565b6005015f8573ffffffffffffffffffffffffffffffffffffffff1673ffffffffffffffffffffffffffffffffffffffff1681526020019081526020015f205f8473ffffffffffffffffffffffffffffffffffffffff1673ffffffffffffffffffffffffffffffffffffffff1681526020019081526020015f2081905550505050565b8281610edf828261152b565b610eea8585856113f7565b505050505050565b5f610efb6115c5565b6002015f9054906101000a900473ffffffffffffffffffffffffffffffffffffffff1673ffffffffffffffffffffffffffffffffffffffff163073ffffffffffffffffffffffffffffffffffffffff16148015610f625750610f5b6115c5565b6001015446145b15610f7957610f6f6115c5565b5f01549050610f84565b610f816116cc565b90505b90565b61101e838383610f95610c61565b6005015f8873ffffffffffffffffffffffffffffffffffffffff1673ffffffffffffffffffffffffffffffffffffffff1681526020019081526020015f205f8773ffffffffffffffffffffffffffffffffffffffff1673ffffffffffffffffffffffffffffffffffffffff1681526020019081526020015f2054611019919061267a565b610d68565b505050565b5f61102c61107d565b5f015f8373ffffffffffffffffffffffffffffffffffffffff1673ffffffffffffffffffffffffffffffffffffffff1681526020019081526020015f205f9054906101000a900460ff169050919050565b5f61117f7fa7f11160000000000000000000000000000000000000000000000000000000007bffffffffffffffffffffffffffffffffffffffffffffffffffffffff1916600160405180604001604052600c8152806020017f4f70657261626c655265706f00000000000000000000000000000000000000008152506040516020016111099190611fef565b6040516020818303038152906040528051906020012060405160200161112f91906121d5565b604051602081830303815290604052805190602001205f1c6111519190612620565b5f1b604051602001611164929190612653565b60405160208183030381529060405280519060200120611737565b905090565b5f61118d611740565b73ffffffffffffffffffffffffffffffffffffffff168273ffffffffffffffffffffffffffffffffffffffff16149050919050565b6111d881836111cf610c61565b60030154611770565b5050565b5f6112de7f9d8ff7da000000000000000000000000000000000000000000000000000000007bffffffffffffffffffffffffffffffffffffffffffffffffffffffff1916600160405180604001604052600b8152806020017f455243323631325265706f0000000000000000000000000000000000000000008152506040516020016112689190611fef565b6040516020818303038152906040528051906020012060405160200161128e91906121d5565b604051602081830303815290604052805190602001205f1c6112b09190612620565b5f1b6040516020016112c3929190612653565b604051602081830303815290604052805190602001206117ff565b905090565b606061130d6112f06115c5565b6007016112fb6115c5565b6005015461180890919063ffffffff16565b905090565b606061133c61131f6115c5565b60080161132a6115c5565b6006015461180890919063ffffffff16565b905090565b611357818361134e610c61565b600301546118b5565b5050565b6113f2838383611369610c61565b6005015f8873ffffffffffffffffffffffffffffffffffffffff1673ffffffffffffffffffffffffffffffffffffffff1681526020019081526020015f205f8773ffffffffffffffffffffffffffffffffffffffff1673ffffffffffffffffffffffffffffffffffffffff1681526020019081526020015f20546113ed9190612620565b610d68565b505050565b5f73ffffffffffffffffffffffffffffffffffffffff163373ffffffffffffffffffffffffffffffffffffffff160361146757336040517f94280d6200000000000000000000000000000000000000000000000000000000815260040161145e9190612527565b60405180910390fd5b6114718382611944565b61147b8282611a32565b505050565b5f6114896111dc565b5f015f8373ffffffffffffffffffffffffffffffffffffffff1673ffffffffffffffffffffffffffffffffffffffff1681526020019081526020015f205f815480929190600101919050559050919050565b5f6114ed6114e7610ef2565b83611a92565b9050919050565b5f5f5f5f61150488888888611ad2565b9250925092506115148282611bb9565b829350505050949350505050565b5f819050919050565b3373ffffffffffffffffffffffffffffffffffffffff168273ffffffffffffffffffffffffffffffffffffffff16146115c1575f6115698333611d1b565b9050818110156115b4578281836040517ffb8f41b20000000000000000000000000000000000000000000000000000000081526004016115ab939291906126ad565b60405180910390fd5b6115bf83338461135b565b505b5050565b5f6116c77f84b0196e000000000000000000000000000000000000000000000000000000007bffffffffffffffffffffffffffffffffffffffffffffffffffffffff1916600160405180604001604052600a8152806020017f4549503731325265706f000000000000000000000000000000000000000000008152506040516020016116519190611fef565b6040516020818303038152906040528051906020012060405160200161167791906121d5565b604051602081830303815290604052805190602001205f1c6116999190612620565b5f1b6040516020016116ac929190612653565b60405160208183030381529060405280519060200120611da6565b905090565b5f7f8b73c3c69bb8fe3d512ecc4cf759cc79239f7b179b0ffacaa9a75d522b39400f6116f66115c5565b600301546117026115c5565b60040154463060405160200161171c9594939291906126e2565b60405160208183030381529060405280519060200120905090565b5f819050919050565b5f611749611daf565b5f015f9054906101000a900473ffffffffffffffffffffffffffffffffffffffff16905090565b828161177c919061267a565b611784610c61565b600301819055506117958284611a32565b8173ffffffffffffffffffffffffffffffffffffffff165f73ffffffffffffffffffffffffffffffffffffffff167fddf252ad1be2c89b69c2b068fc378daa952ba7f163c4a11628f55a4df523b3ef856040516117f29190612120565b60405180910390a3505050565b5f819050919050565b606060ff5f1b83146118245761181d83611eb6565b90506118af565b818054611830906124f7565b80601f016020809104026020016040519081016040528092919081815260200182805461185c906124f7565b80156118a75780601f1061187e576101008083540402835291602001916118a7565b820191905f5260205f20905b81548152906001019060200180831161188a57829003601f168201915b505050505090505b92915050565b82816118c19190612620565b6118c9610c61565b600301819055506118da8284611944565b5f73ffffffffffffffffffffffffffffffffffffffff168273ffffffffffffffffffffffffffffffffffffffff167fddf252ad1be2c89b69c2b068fc378daa952ba7f163c4a11628f55a4df523b3ef856040516119379190612120565b60405180910390a3505050565b5f61194d610c61565b6004015f8473ffffffffffffffffffffffffffffffffffffffff1673ffffffffffffffffffffffffffffffffffffffff1681526020019081526020015f20549050818110156119d7578281836040517fe450d38c0000000000000000000000000000000000000000000000000000000081526004016119ce939291906126ad565b60405180910390fd5b81816119e39190612620565b6119eb610c61565b6004015f8573ffffffffffffffffffffffffffffffffffffffff1673ffffffffffffffffffffffffffffffffffffffff1681526020019081526020015f2081905550505050565b80611a3b610c61565b6004015f8473ffffffffffffffffffffffffffffffffffffffff1673ffffffffffffffffffffffffffffffffffffffff1681526020019081526020015f205f828254611a87919061267a565b925050819055505050565b5f6040517f190100000000000000000000000000000000000000000000000000000000000081528360028201528260228201526042812091505092915050565b5f5f5f7f7fffffffffffffffffffffffffffffff5d576e7357a4501ddfe92f46681b20a0845f1c1115611b0e575f600385925092509250611baf565b5f6001888888886040515f8152602001604052604051611b319493929190612733565b6020604051602081039080840390855afa158015611b51573d5f5f3e3d5ffd5b5050506020604051035190505f73ffffffffffffffffffffffffffffffffffffffff168173ffffffffffffffffffffffffffffffffffffffff1603611ba2575f60015f5f1b93509350935050611baf565b805f5f5f1b935093509350505b9450945094915050565b5f6003811115611bcc57611bcb612776565b5b826003811115611bdf57611bde612776565b5b0315611d175760016003811115611bf957611bf8612776565b5b826003811115611c0c57611c0b612776565b5b03611c43576040517ff645eedf00000000000000000000000000000000000000000000000000000000815260040160405180910390fd5b60026003811115611c5757611c56612776565b5b826003811115611c6a57611c69612776565b5b03611cae57805f1c6040517ffce698f7000000000000000000000000000000000000000000000000000000008152600401611ca59190612120565b60405180910390fd5b600380811115611cc157611cc0612776565b5b826003811115611cd457611cd3612776565b5b03611d1657806040517fd78bce0c000000000000000000000000000000000000000000000000000000008152600401611d0d91906121d5565b60405180910390fd5b5b5050565b5f611d24610c61565b6005015f8473ffffffffffffffffffffffffffffffffffffffff1673ffffffffffffffffffffffffffffffffffffffff1681526020019081526020015f205f8373ffffffffffffffffffffffffffffffffffffffff1673ffffffffffffffffffffffffffffffffffffffff1681526020019081526020015f2054905092915050565b5f819050919050565b5f611eb17fa6e1d6ed000000000000000000000000000000000000000000000000000000007bffffffffffffffffffffffffffffffffffffffffffffffffffffffff1916600160405180604001604052600b8152806020017f4f776e61626c655265706f000000000000000000000000000000000000000000815250604051602001611e3b9190611fef565b60405160208183030381529060405280519060200120604051602001611e6191906121d5565b604051602081830303815290604052805190602001205f1c611e839190612620565b5f1b604051602001611e96929190612653565b60405160208183030381529060405280519060200120611f28565b905090565b60605f611ec283611f31565b90505f602067ffffffffffffffff811115611ee057611edf612540565b5b6040519080825280601f01601f191660200182016040528015611f125781602001600182028036833780820191505090505b5090508181528360208201528092505050919050565b5f819050919050565b5f5f60ff835f1c169050601f811115611f76576040517fb3512b0c00000000000000000000000000000000000000000000000000000000815260040160405180910390fd5b80915050919050565b5f81519050919050565b5f82825260208201905092915050565b8281835e5f83830152505050565b5f601f19601f8301169050919050565b5f611fc182611f7f565b611fcb8185611f89565b9350611fdb818560208601611f99565b611fe481611fa7565b840191505092915050565b5f6020820190508181035f8301526120078184611fb7565b905092915050565b5f5ffd5b5f73ffffffffffffffffffffffffffffffffffffffff82169050919050565b5f61203c82612013565b9050919050565b61204c81612032565b8114612056575f5ffd5b50565b5f8135905061206781612043565b92915050565b5f819050919050565b61207f8161206d565b8114612089575f5ffd5b50565b5f8135905061209a81612076565b92915050565b5f5f604083850312156120b6576120b561200f565b5b5f6120c385828601612059565b92505060206120d48582860161208c565b9150509250929050565b5f8115159050919050565b6120f2816120de565b82525050565b5f60208201905061210b5f8301846120e9565b92915050565b61211a8161206d565b82525050565b5f6020820190506121335f830184612111565b92915050565b5f5f5f606084860312156121505761214f61200f565b5b5f61215d86828701612059565b935050602061216e86828701612059565b925050604061217f8682870161208c565b9150509250925092565b5f60ff82169050919050565b61219e81612189565b82525050565b5f6020820190506121b75f830184612195565b92915050565b5f819050919050565b6121cf816121bd565b82525050565b5f6020820190506121e85f8301846121c6565b92915050565b5f602082840312156122035761220261200f565b5b5f61221084828501612059565b91505092915050565b5f7fff0000000000000000000000000000000000000000000000000000000000000082169050919050565b61224d81612219565b82525050565b61225c81612032565b82525050565b5f81519050919050565b5f82825260208201905092915050565b5f819050602082019050919050565b6122948161206d565b82525050565b5f6122a5838361228b565b60208301905092915050565b5f602082019050919050565b5f6122c782612262565b6122d1818561226c565b93506122dc8361227c565b805f5b8381101561230c5781516122f3888261229a565b97506122fe836122b1565b9250506001810190506122df565b5085935050505092915050565b5f60e08201905061232c5f83018a612244565b818103602083015261233e8189611fb7565b905081810360408301526123528188611fb7565b90506123616060830187612111565b61236e6080830186612253565b61237b60a08301856121c6565b81810360c083015261238d81846122bd565b905098975050505050505050565b6123a481612189565b81146123ae575f5ffd5b50565b5f813590506123bf8161239b565b92915050565b6123ce816121bd565b81146123d8575f5ffd5b50565b5f813590506123e9816123c5565b92915050565b5f5f5f5f5f5f5f60e0888a03121561240a5761240961200f565b5b5f6124178a828b01612059565b97505060206124288a828b01612059565b96505060406124398a828b0161208c565b955050606061244a8a828b0161208c565b945050608061245b8a828b016123b1565b93505060a061246c8a828b016123db565b92505060c061247d8a828b016123db565b91505092959891949750929550565b5f5f604083850312156124a2576124a161200f565b5b5f6124af85828601612059565b92505060206124c085828601612059565b9150509250929050565b7f4e487b71000000000000000000000000000000000000000000000000000000005f52602260045260245ffd5b5f600282049050600182168061250e57607f821691505b602082108103612521576125206124ca565b5b50919050565b5f60208201905061253a5f830184612253565b92915050565b7f4e487b71000000000000000000000000000000000000000000000000000000005f52604160045260245ffd5b5f60c0820190506125805f8301896121c6565b61258d6020830188612253565b61259a6040830187612253565b6125a76060830186612111565b6125b46080830185612111565b6125c160a0830184612111565b979650505050505050565b5f6040820190506125df5f830185612253565b6125ec6020830184612253565b9392505050565b7f4e487b71000000000000000000000000000000000000000000000000000000005f52601160045260245ffd5b5f61262a8261206d565b91506126358361206d565b925082820390508181111561264d5761264c6125f3565b5b92915050565b5f6040820190506126665f8301856121c6565b61267360208301846121c6565b9392505050565b5f6126848261206d565b915061268f8361206d565b92508282019050808211156126a7576126a66125f3565b5b92915050565b5f6060820190506126c05f830186612253565b6126cd6020830185612111565b6126da6040830184612111565b949350505050565b5f60a0820190506126f55f8301886121c6565b61270260208301876121c6565b61270f60408301866121c6565b61271c6060830185612111565b6127296080830184612253565b9695505050505050565b5f6080820190506127465f8301876121c6565b6127536020830186612195565b61276060408301856121c6565b61276d60608301846121c6565b95945050505050565b7f4e487b71000000000000000000000000000000000000000000000000000000005f52602160045260245ffdfea26469706673582212204fbd9529c383e16623b15a779edc34fe3502b48aafa6d29855c1706916c8f95264736f6c634300081c0033","linkReferences":{}},"methodIdentifiers":{"DOMAIN_SEPARATOR()":"3644e515","allowance(address,address)":"dd62ed3e","approve(address,uint256)":"095ea7b3","balanceOf(address)":"70a08231","burn(address,uint256)":"9dc29fac","decimals()":"313ce567","decreaseAllowance(address,uint256)":"a457c2d7","eip712Domain()":"84b0196e","increaseAllowance(address,uint256)":"39509351","mint(address,uint256)":"40c10f19","name()":"06fdde03","nonces(address)":"7ecebe00","permit(address,address,uint256,uint256,uint8,bytes32,bytes32)":"d505accf","symbol()":"95d89b41","totalSupply()":"18160ddd","transfer(address,uint256)":"a9059cbb","transferFrom(address,address,uint256)":"23b872dd"},"id":47}