{"abi":[{"type":"constructor","inputs":[{"name":"_forwarder","type":"address","internalType":"address"},{"name":"_token","type":"address","internalType":"address"},{"name":"_factoryRegistry","type":"address","internalType":"address"}],"stateMutability":"nonpayable"},{"type":"function","name":"CLOCK_MODE","inputs":[],"outputs":[{"name":"","type":"string","internalType":"string"}],"stateMutability":"pure"},{"type":"function","name":"DELEGATION_TYPEHASH","inputs":[],"outputs":[{"name":"","type":"bytes32","internalType":"bytes32"}],"stateMutability":"view"},{"type":"function","name":"DOMAIN_TYPEHASH","inputs":[],"outputs":[{"name":"","type":"bytes32","internalType":"bytes32"}],"stateMutability":"view"},{"type":"function","name":"allowedManager","inputs":[],"outputs":[{"name":"","type":"address","internalType":"address"}],"stateMutability":"view"},{"type":"function","name":"approve","inputs":[{"name":"_approved","type":"address","internalType":"address"},{"name":"_tokenId","type":"uint256","internalType":"uint256"}],"outputs":[],"stateMutability":"payable"},{"type":"function","name":"artProxy","inputs":[],"outputs":[{"name":"","type":"address","internalType":"address"}],"stateMutability":"view"},{"type":"function","name":"balanceOf","inputs":[{"name":"_owner","type":"address","internalType":"address"}],"outputs":[{"name":"","type":"uint256","internalType":"uint256"}],"stateMutability":"view"},{"type":"function","name":"balanceOfNFT","inputs":[{"name":"_tokenId","type":"uint256","internalType":"uint256"}],"outputs":[{"name":"","type":"uint256","internalType":"uint256"}],"stateMutability":"view"},{"type":"function","name":"balanceOfNFTAt","inputs":[{"name":"_tokenId","type":"uint256","internalType":"uint256"},{"name":"_t","type":"uint256","internalType":"uint256"}],"outputs":[{"name":"","type":"uint256","internalType":"uint256"}],"stateMutability":"view"},{"type":"function","name":"canSplit","inputs":[{"name":"","type":"address","internalType":"address"}],"outputs":[{"name":"","type":"bool","internalType":"bool"}],"stateMutability":"view"},{"type":"function","name":"checkpoint","inputs":[],"outputs":[],"stateMutability":"nonpayable"},{"type":"function","name":"checkpoints","inputs":[{"name":"_tokenId","type":"uint256","internalType":"uint256"},{"name":"_index","type":"uint48","internalType":"uint48"}],"outputs":[{"name":"","type":"tuple","internalType":"struct IVotingEscrow.Checkpoint","components":[{"name":"fromTimestamp","type":"uint256","internalType":"uint256"},{"name":"owner","type":"address","internalType":"address"},{"name":"delegatedBalance","type":"uint256","internalType":"uint256"},{"name":"delegatee","type":"uint256","internalType":"uint256"}]}],"stateMutability":"view"},{"type":"function","name":"clock","inputs":[],"outputs":[{"name":"","type":"uint48","internalType":"uint48"}],"stateMutability":"view"},{"type":"function","name":"createLock","inputs":[{"name":"_value","type":"uint256","internalType":"uint256"},{"name":"_lockDuration","type":"uint256","internalType":"uint256"}],"outputs":[{"name":"","type":"uint256","internalType":"uint256"}],"stateMutability":"nonpayable"},{"type":"function","name":"createLockFor","inputs":[{"name":"_value","type":"uint256","internalType":"uint256"},{"name":"_lockDuration","type":"uint256","internalType":"uint256"},{"name":"_to","type":"address","internalType":"address"}],"outputs":[{"name":"","type":"uint256","internalType":"uint256"}],"stateMutability":"nonpayable"},{"type":"function","name":"createManagedLockFor","inputs":[{"name":"_to","type":"address","internalType":"address"}],"outputs":[{"name":"_mTokenId","type":"uint256","internalType":"uint256"}],"stateMutability":"nonpayable"},{"type":"function","name":"deactivated","inputs":[{"name":"","type":"uint256","internalType":"uint256"}],"outputs":[{"name":"","type":"bool","internalType":"bool"}],"stateMutability":"view"},{"type":"function","name":"decimals","inputs":[],"outputs":[{"name":"","type":"uint8","internalType":"uint8"}],"stateMutability":"view"},{"type":"function","name":"delegate","inputs":[{"name":"delegator","type":"uint256","internalType":"uint256"},{"name":"delegatee","type":"uint256","internalType":"uint256"}],"outputs":[],"stateMutability":"nonpayable"},{"type":"function","name":"delegateBySig","inputs":[{"name":"delegator","type":"uint256","internalType":"uint256"},{"name":"delegatee","type":"uint256","internalType":"uint256"},{"name":"nonce","type":"uint256","internalType":"uint256"},{"name":"expiry","type":"uint256","internalType":"uint256"},{"name":"v","type":"uint8","internalType":"uint8"},{"name":"r","type":"bytes32","internalType":"bytes32"},{"name":"s","type":"bytes32","internalType":"bytes32"}],"outputs":[],"stateMutability":"nonpayable"},{"type":"function","name":"delegates","inputs":[{"name":"delegator","type":"uint256","internalType":"uint256"}],"outputs":[{"name":"","type":"uint256","internalType":"uint256"}],"stateMutability":"view"},{"type":"function","name":"depositFor","inputs":[{"name":"_tokenId","type":"uint256","internalType":"uint256"},{"name":"_value","type":"uint256","internalType":"uint256"}],"outputs":[],"stateMutability":"nonpayable"},{"type":"function","name":"depositManaged","inputs":[{"name":"_tokenId","type":"uint256","internalType":"uint256"},{"name":"_mTokenId","type":"uint256","internalType":"uint256"}],"outputs":[],"stateMutability":"nonpayable"},{"type":"function","name":"distributor","inputs":[],"outputs":[{"name":"","type":"address","internalType":"address"}],"stateMutability":"view"},{"type":"function","name":"epoch","inputs":[],"outputs":[{"name":"","type":"uint256","internalType":"uint256"}],"stateMutability":"view"},{"type":"function","name":"escrowType","inputs":[{"name":"","type":"uint256","internalType":"uint256"}],"outputs":[{"name":"","type":"uint8","internalType":"enum IVotingEscrow.EscrowType"}],"stateMutability":"view"},{"type":"function","name":"factoryRegistry","inputs":[],"outputs":[{"name":"","type":"address","internalType":"address"}],"stateMutability":"view"},{"type":"function","name":"forwarder","inputs":[],"outputs":[{"name":"","type":"address","internalType":"address"}],"stateMutability":"view"},{"type":"function","name":"getApproved","inputs":[{"name":"_tokenId","type":"uint256","internalType":"uint256"}],"outputs":[{"name":"","type":"address","internalType":"address"}],"stateMutability":"view"},{"type":"function","name":"getPastTotalSupply","inputs":[{"name":"_timestamp","type":"uint256","internalType":"uint256"}],"outputs":[{"name":"","type":"uint256","internalType":"uint256"}],"stateMutability":"view"},{"type":"function","name":"getPastVotes","inputs":[{"name":"_account","type":"address","internalType":"address"},{"name":"_tokenId","type":"uint256","internalType":"uint256"},{"name":"_timestamp","type":"uint256","internalType":"uint256"}],"outputs":[{"name":"","type":"uint256","internalType":"uint256"}],"stateMutability":"view"},{"type":"function","name":"idToManaged","inputs":[{"name":"","type":"uint256","internalType":"uint256"}],"outputs":[{"name":"","type":"uint256","internalType":"uint256"}],"stateMutability":"view"},{"type":"function","name":"increaseAmount","inputs":[{"name":"_tokenId","type":"uint256","internalType":"uint256"},{"name":"_value","type":"uint256","internalType":"uint256"}],"outputs":[],"stateMutability":"nonpayable"},{"type":"function","name":"increaseUnlockTime","inputs":[{"name":"_tokenId","type":"uint256","internalType":"uint256"},{"name":"_lockDuration","type":"uint256","internalType":"uint256"}],"outputs":[],"stateMutability":"nonpayable"},{"type":"function","name":"isApprovedForAll","inputs":[{"name":"_owner","type":"address","internalType":"address"},{"name":"_operator","type":"address","internalType":"address"}],"outputs":[{"name":"","type":"bool","internalType":"bool"}],"stateMutability":"view"},{"type":"function","name":"isApprovedOrOwner","inputs":[{"name":"_spender","type":"address","internalType":"address"},{"name":"_tokenId","type":"uint256","internalType":"uint256"}],"outputs":[{"name":"","type":"bool","internalType":"bool"}],"stateMutability":"view"},{"type":"function","name":"isTrustedForwarder","inputs":[{"name":"forwarder","type":"address","internalType":"address"}],"outputs":[{"name":"","type":"bool","internalType":"bool"}],"stateMutability":"view"},{"type":"function","name":"lockPermanent","inputs":[{"name":"_tokenId","type":"uint256","internalType":"uint256"}],"outputs":[],"stateMutability":"nonpayable"},{"type":"function","name":"locked","inputs":[{"name":"_tokenId","type":"uint256","internalType":"uint256"}],"outputs":[{"name":"","type":"tuple","internalType":"struct IVotingEscrow.LockedBalance","components":[{"name":"amount","type":"int128","internalType":"int128"},{"name":"end","type":"uint256","internalType":"uint256"},{"name":"isPermanent","type":"bool","internalType":"bool"}]}],"stateMutability":"view"},{"type":"function","name":"managedToFree","inputs":[{"name":"","type":"uint256","internalType":"uint256"}],"outputs":[{"name":"","type":"address","internalType":"address"}],"stateMutability":"view"},{"type":"function","name":"managedToLocked","inputs":[{"name":"","type":"uint256","internalType":"uint256"}],"outputs":[{"name":"","type":"address","internalType":"address"}],"stateMutability":"view"},{"type":"function","name":"merge","inputs":[{"name":"_from","type":"uint256","internalType":"uint256"},{"name":"_to","type":"uint256","internalType":"uint256"}],"outputs":[],"stateMutability":"nonpayable"},{"type":"function","name":"name","inputs":[],"outputs":[{"name":"","type":"string","internalType":"string"}],"stateMutability":"view"},{"type":"function","name":"nonces","inputs":[{"name":"","type":"address","internalType":"address"}],"outputs":[{"name":"","type":"uint256","internalType":"uint256"}],"stateMutability":"view"},{"type":"function","name":"numCheckpoints","inputs":[{"name":"","type":"uint256","internalType":"uint256"}],"outputs":[{"name":"","type":"uint48","internalType":"uint48"}],"stateMutability":"view"},{"type":"function","name":"ownerOf","inputs":[{"name":"_tokenId","type":"uint256","internalType":"uint256"}],"outputs":[{"name":"","type":"address","internalType":"address"}],"stateMutability":"view"},{"type":"function","name":"ownerToNFTokenIdList","inputs":[{"name":"","type":"address","internalType":"address"},{"name":"","type":"uint256","internalType":"uint256"}],"outputs":[{"name":"","type":"uint256","internalType":"uint256"}],"stateMutability":"view"},{"type":"function","name":"permanentLockBalance","inputs":[],"outputs":[{"name":"","type":"uint256","internalType":"uint256"}],"stateMutability":"view"},{"type":"function","name":"pointHistory","inputs":[{"name":"_loc","type":"uint256","internalType":"uint256"}],"outputs":[{"name":"","type":"tuple","internalType":"struct IVotingEscrow.GlobalPoint","components":[{"name":"bias","type":"int128","internalType":"int128"},{"name":"slope","type":"int128","internalType":"int128"},{"name":"ts","type":"uint256","internalType":"uint256"},{"name":"blk","type":"uint256","internalType":"uint256"},{"name":"permanentLockBalance","type":"uint256","internalType":"uint256"}]}],"stateMutability":"view"},{"type":"function","name":"safeTransferFrom","inputs":[{"name":"_from","type":"address","internalType":"address"},{"name":"_to","type":"address","internalType":"address"},{"name":"_tokenId","type":"uint256","internalType":"uint256"}],"outputs":[],"stateMutability":"payable"},{"type":"function","name":"safeTransferFrom","inputs":[{"name":"_from","type":"address","internalType":"address"},{"name":"_to","type":"address","internalType":"address"},{"name":"_tokenId","type":"uint256","internalType":"uint256"},{"name":"_data","type":"bytes","internalType":"bytes"}],"outputs":[],"stateMutability":"payable"},{"type":"function","name":"setAllowedManager","inputs":[{"name":"_allowedManager","type":"address","internalType":"address"}],"outputs":[],"stateMutability":"nonpayable"},{"type":"function","name":"setApprovalForAll","inputs":[{"name":"_operator","type":"address","internalType":"address"},{"name":"_approved","type":"bool","internalType":"bool"}],"outputs":[],"stateMutability":"nonpayable"},{"type":"function","name":"setArtProxy","inputs":[{"name":"_proxy","type":"address","internalType":"address"}],"outputs":[],"stateMutability":"nonpayable"},{"type":"function","name":"setManagedState","inputs":[{"name":"_mTokenId","type":"uint256","internalType":"uint256"},{"name":"_state","type":"bool","internalType":"bool"}],"outputs":[],"stateMutability":"nonpayable"},{"type":"function","name":"setTeam","inputs":[{"name":"_team","type":"address","internalType":"address"}],"outputs":[],"stateMutability":"nonpayable"},{"type":"function","name":"setVoterAndDistributor","inputs":[{"name":"_voter","type":"address","internalType":"address"},{"name":"_distributor","type":"address","internalType":"address"}],"outputs":[],"stateMutability":"nonpayable"},{"type":"function","name":"slopeChanges","inputs":[{"name":"","type":"uint256","internalType":"uint256"}],"outputs":[{"name":"","type":"int128","internalType":"int128"}],"stateMutability":"view"},{"type":"function","name":"split","inputs":[{"name":"_from","type":"uint256","internalType":"uint256"},{"name":"_amount","type":"uint256","internalType":"uint256"}],"outputs":[{"name":"_tokenId1","type":"uint256","internalType":"uint256"},{"name":"_tokenId2","type":"uint256","internalType":"uint256"}],"stateMutability":"nonpayable"},{"type":"function","name":"supply","inputs":[],"outputs":[{"name":"","type":"uint256","internalType":"uint256"}],"stateMutability":"view"},{"type":"function","name":"supportsInterface","inputs":[{"name":"_interfaceID","type":"bytes4","internalType":"bytes4"}],"outputs":[{"name":"","type":"bool","internalType":"bool"}],"stateMutability":"view"},{"type":"function","name":"symbol","inputs":[],"outputs":[{"name":"","type":"string","internalType":"string"}],"stateMutability":"view"},{"type":"function","name":"team","inputs":[],"outputs":[{"name":"","type":"address","internalType":"address"}],"stateMutability":"view"},{"type":"function","name":"toggleSplit","inputs":[{"name":"_account","type":"address","internalType":"address"},{"name":"_bool","type":"bool","internalType":"bool"}],"outputs":[],"stateMutability":"nonpayable"},{"type":"function","name":"token","inputs":[],"outputs":[{"name":"","type":"address","internalType":"address"}],"stateMutability":"view"},{"type":"function","name":"tokenId","inputs":[],"outputs":[{"name":"","type":"uint256","internalType":"uint256"}],"stateMutability":"view"},{"type":"function","name":"tokenURI","inputs":[{"name":"_tokenId","type":"uint256","internalType":"uint256"}],"outputs":[{"name":"","type":"string","internalType":"string"}],"stateMutability":"view"},{"type":"function","name":"totalSupply","inputs":[],"outputs":[{"name":"","type":"uint256","internalType":"uint256"}],"stateMutability":"view"},{"type":"function","name":"totalSupplyAt","inputs":[{"name":"_timestamp","type":"uint256","internalType":"uint256"}],"outputs":[{"name":"","type":"uint256","internalType":"uint256"}],"stateMutability":"view"},{"type":"function","name":"transferFrom","inputs":[{"name":"_from","type":"address","internalType":"address"},{"name":"_to","type":"address","internalType":"address"},{"name":"_tokenId","type":"uint256","internalType":"uint256"}],"outputs":[],"stateMutability":"payable"},{"type":"function","name":"trustedForwarder","inputs":[],"outputs":[{"name":"","type":"address","internalType":"address"}],"stateMutability":"view"},{"type":"function","name":"unlockPermanent","inputs":[{"name":"_tokenId","type":"uint256","internalType":"uint256"}],"outputs":[],"stateMutability":"nonpayable"},{"type":"function","name":"userPointEpoch","inputs":[{"name":"","type":"uint256","internalType":"uint256"}],"outputs":[{"name":"","type":"uint256","internalType":"uint256"}],"stateMutability":"view"},{"type":"function","name":"userPointHistory","inputs":[{"name":"_tokenId","type":"uint256","internalType":"uint256"},{"name":"_loc","type":"uint256","internalType":"uint256"}],"outputs":[{"name":"","type":"tuple","internalType":"struct IVotingEscrow.UserPoint","components":[{"name":"bias","type":"int128","internalType":"int128"},{"name":"slope","type":"int128","internalType":"int128"},{"name":"ts","type":"uint256","internalType":"uint256"},{"name":"blk","type":"uint256","internalType":"uint256"},{"name":"permanent","type":"uint256","internalType":"uint256"}]}],"stateMutability":"view"},{"type":"function","name":"version","inputs":[],"outputs":[{"name":"","type":"string","internalType":"string"}],"stateMutability":"view"},{"type":"function","name":"voted","inputs":[{"name":"","type":"uint256","internalType":"uint256"}],"outputs":[{"name":"","type":"bool","internalType":"bool"}],"stateMutability":"view"},{"type":"function","name":"voter","inputs":[],"outputs":[{"name":"","type":"address","internalType":"address"}],"stateMutability":"view"},{"type":"function","name":"voting","inputs":[{"name":"_tokenId","type":"uint256","internalType":"uint256"},{"name":"_voted","type":"bool","internalType":"bool"}],"outputs":[],"stateMutability":"nonpayable"},{"type":"function","name":"weights","inputs":[{"name":"","type":"uint256","internalType":"uint256"},{"name":"","type":"uint256","internalType":"uint256"}],"outputs":[{"name":"","type":"uint256","internalType":"uint256"}],"stateMutability":"view"},{"type":"function","name":"withdraw","inputs":[{"name":"_tokenId","type":"uint256","internalType":"uint256"}],"outputs":[],"stateMutability":"nonpayable"},{"type":"function","name":"withdrawManaged","inputs":[{"name":"_tokenId","type":"uint256","internalType":"uint256"}],"outputs":[],"stateMutability":"nonpayable"},{"type":"event","name":"Approval","inputs":[{"name":"owner","type":"address","indexed":true,"internalType":"address"},{"name":"account","type":"address","indexed":true,"internalType":"address"},{"name":"id","type":"uint256","indexed":true,"internalType":"uint256"}],"anonymous":false},{"type":"event","name":"ApprovalForAll","inputs":[{"name":"owner","type":"address","indexed":true,"internalType":"address"},{"name":"operator","type":"address","indexed":true,"internalType":"address"},{"name":"isApproved","type":"bool","indexed":false,"internalType":"bool"}],"anonymous":false},{"type":"event","name":"BatchMetadataUpdate","inputs":[{"name":"_fromTokenId","type":"uint256","indexed":false,"internalType":"uint256"},{"name":"_toTokenId","type":"uint256","indexed":false,"internalType":"uint256"}],"anonymous":false},{"type":"event","name":"CreateManaged","inputs":[{"name":"_to","type":"address","indexed":true,"internalType":"address"},{"name":"_mTokenId","type":"uint256","indexed":true,"internalType":"uint256"},{"name":"_from","type":"address","indexed":true,"internalType":"address"},{"name":"_lockedManagedReward","type":"address","indexed":false,"internalType":"address"},{"name":"_freeManagedReward","type":"address","indexed":false,"internalType":"address"}],"anonymous":false},{"type":"event","name":"DelegateChanged","inputs":[{"name":"delegator","type":"address","indexed":true,"internalType":"address"},{"name":"fromDelegate","type":"uint256","indexed":true,"internalType":"uint256"},{"name":"toDelegate","type":"uint256","indexed":true,"internalType":"uint256"}],"anonymous":false},{"type":"event","name":"DelegateVotesChanged","inputs":[{"name":"delegate","type":"address","indexed":true,"internalType":"address"},{"name":"previousBalance","type":"uint256","indexed":false,"internalType":"uint256"},{"name":"newBalance","type":"uint256","indexed":false,"internalType":"uint256"}],"anonymous":false},{"type":"event","name":"Deposit","inputs":[{"name":"provider","type":"address","indexed":true,"internalType":"address"},{"name":"tokenId","type":"uint256","indexed":true,"internalType":"uint256"},{"name":"depositType","type":"uint8","indexed":true,"internalType":"enum IVotingEscrow.DepositType"},{"name":"value","type":"uint256","indexed":false,"internalType":"uint256"},{"name":"locktime","type":"uint256","indexed":false,"internalType":"uint256"},{"name":"ts","type":"uint256","indexed":false,"internalType":"uint256"}],"anonymous":false},{"type":"event","name":"DepositManaged","inputs":[{"name":"_owner","type":"address","indexed":true,"internalType":"address"},{"name":"_tokenId","type":"uint256","indexed":true,"internalType":"uint256"},{"name":"_mTokenId","type":"uint256","indexed":true,"internalType":"uint256"},{"name":"_weight","type":"uint256","indexed":false,"internalType":"uint256"},{"name":"_ts","type":"uint256","indexed":false,"internalType":"uint256"}],"anonymous":false},{"type":"event","name":"LockPermanent","inputs":[{"name":"_owner","type":"address","indexed":true,"internalType":"address"},{"name":"_tokenId","type":"uint256","indexed":true,"internalType":"uint256"},{"name":"amount","type":"uint256","indexed":false,"internalType":"uint256"},{"name":"_ts","type":"uint256","indexed":false,"internalType":"uint256"}],"anonymous":false},{"type":"event","name":"Merge","inputs":[{"name":"_sender","type":"address","indexed":true,"internalType":"address"},{"name":"_from","type":"uint256","indexed":true,"internalType":"uint256"},{"name":"_to","type":"uint256","indexed":true,"internalType":"uint256"},{"name":"_amountFrom","type":"uint256","indexed":false,"internalType":"uint256"},{"name":"_amountTo","type":"uint256","indexed":false,"internalType":"uint256"},{"name":"_amountFinal","type":"uint256","indexed":false,"internalType":"uint256"},{"name":"_locktime","type":"uint256","indexed":false,"internalType":"uint256"},{"name":"_ts","type":"uint256","indexed":false,"internalType":"uint256"}],"anonymous":false},{"type":"event","name":"MetadataUpdate","inputs":[{"name":"_tokenId","type":"uint256","indexed":false,"internalType":"uint256"}],"anonymous":false},{"type":"event","name":"SetAllowedManager","inputs":[{"name":"_allowedManager","type":"address","indexed":true,"internalType":"address"}],"anonymous":false},{"type":"event","name":"Split","inputs":[{"name":"_from","type":"uint256","indexed":true,"internalType":"uint256"},{"name":"_tokenId1","type":"uint256","indexed":true,"internalType":"uint256"},{"name":"_tokenId2","type":"uint256","indexed":true,"internalType":"uint256"},{"name":"_sender","type":"address","indexed":false,"internalType":"address"},{"name":"_splitAmount1","type":"uint256","indexed":false,"internalType":"uint256"},{"name":"_splitAmount2","type":"uint256","indexed":false,"internalType":"uint256"},{"name":"_locktime","type":"uint256","indexed":false,"internalType":"uint256"},{"name":"_ts","type":"uint256","indexed":false,"internalType":"uint256"}],"anonymous":false},{"type":"event","name":"Supply","inputs":[{"name":"prevSupply","type":"uint256","indexed":false,"internalType":"uint256"},{"name":"supply","type":"uint256","indexed":false,"internalType":"uint256"}],"anonymous":false},{"type":"event","name":"Transfer","inputs":[{"name":"from","type":"address","indexed":true,"internalType":"address"},{"name":"to","type":"address","indexed":true,"internalType":"address"},{"name":"id","type":"uint256","indexed":true,"internalType":"uint256"}],"anonymous":false},{"type":"event","name":"UnlockPermanent","inputs":[{"name":"_owner","type":"address","indexed":true,"internalType":"address"},{"name":"_tokenId","type":"uint256","indexed":true,"internalType":"uint256"},{"name":"amount","type":"uint256","indexed":false,"internalType":"uint256"},{"name":"_ts","type":"uint256","indexed":false,"internalType":"uint256"}],"anonymous":false},{"type":"event","name":"Withdraw","inputs":[{"name":"provider","type":"address","indexed":true,"internalType":"address"},{"name":"tokenId","type":"uint256","indexed":true,"internalType":"uint256"},{"name":"value","type":"uint256","indexed":false,"internalType":"uint256"},{"name":"ts","type":"uint256","indexed":false,"internalType":"uint256"}],"anonymous":false},{"type":"event","name":"WithdrawManaged","inputs":[{"name":"_owner","type":"address","indexed":true,"internalType":"address"},{"name":"_tokenId","type":"uint256","indexed":true,"internalType":"uint256"},{"name":"_mTokenId","type":"uint256","indexed":true,"internalType":"uint256"},{"name":"_weight","type":"uint256","indexed":false,"internalType":"uint256"},{"name":"_ts","type":"uint256","indexed":false,"internalType":"uint256"}],"anonymous":false},{"type":"error","name":"AlreadyVoted","inputs":[]},{"type":"error","name":"AmountTooBig","inputs":[]},{"type":"error","name":"ERC721ReceiverRejectedTokens","inputs":[]},{"type":"error","name":"ERC721TransferToNonERC721ReceiverImplementer","inputs":[]},{"type":"error","name":"InvalidManagedNFTId","inputs":[]},{"type":"error","name":"InvalidNonce","inputs":[]},{"type":"error","name":"InvalidSignature","inputs":[]},{"type":"error","name":"InvalidSignatureS","inputs":[]},{"type":"error","name":"LockDurationNotInFuture","inputs":[]},{"type":"error","name":"LockDurationTooLong","inputs":[]},{"type":"error","name":"LockExpired","inputs":[]},{"type":"error","name":"LockNotExpired","inputs":[]},{"type":"error","name":"NoLockFound","inputs":[]},{"type":"error","name":"NonExistentToken","inputs":[]},{"type":"error","name":"NotApprovedOrOwner","inputs":[]},{"type":"error","name":"NotDistributor","inputs":[]},{"type":"error","name":"NotEmergencyCouncilOrGovernor","inputs":[]},{"type":"error","name":"NotGovernor","inputs":[]},{"type":"error","name":"NotGovernorOrManager","inputs":[]},{"type":"error","name":"NotLockedNFT","inputs":[]},{"type":"error","name":"NotManagedNFT","inputs":[]},{"type":"error","name":"NotManagedOrNormalNFT","inputs":[]},{"type":"error","name":"NotNormalNFT","inputs":[]},{"type":"error","name":"NotOwner","inputs":[]},{"type":"error","name":"NotPermanentLock","inputs":[]},{"type":"error","name":"NotTeam","inputs":[]},{"type":"error","name":"NotVoter","inputs":[]},{"type":"error","name":"OwnershipChange","inputs":[]},{"type":"error","name":"PermanentLock","inputs":[]},{"type":"error","name":"Reentrancy","inputs":[]},{"type":"error","name":"SafeCastOverflow","inputs":[]},{"type":"error","name":"SafeCastUnderflow","inputs":[]},{"type":"error","name":"SafeERC20FailedOperation","inputs":[{"name":"token","type":"address","internalType":"address"}]},{"type":"error","name":"SameAddress","inputs":[]},{"type":"error","name":"SameNFT","inputs":[]},{"type":"error","name":"SameState","inputs":[]},{"type":"error","name":"SignatureExpired","inputs":[]},{"type":"error","name":"SplitNoOwner","inputs":[]},{"type":"error","name":"SplitNotAllowed","inputs":[]},{"type":"error","name":"TooManyTokenIDs","inputs":[]},{"type":"error","name":"ZeroAddress","inputs":[]},{"type":"error","name":"ZeroAmount","inputs":[]},{"type":"error","name":"ZeroBalance","inputs":[]}],"bytecode":{"object":"0x610100604052348015610010575f5ffd5b506040516163cd3803806163cd83398101604081905261002f9161028e565b6001600160a01b03808416608081905260a05282811660e052811660c052610055610208565b600280546001600160a01b0319166001600160a01b039290921691909117905561007d610208565b600180546001600160a01b0319166001600160a01b0392909216919091178155437f05b8ccbb9d4d8fb16ea74ce3c29a41f1b461fbdaff4714a0d9a8eb05499746be55427f05b8ccbb9d4d8fb16ea74ce3c29a41f1b461fbdaff4714a0d9a8eb05499746bd5560066020527f477a984de5936bcb02475f64e0ea676103106ac0785c67bf7e9e846450b51ef6805460ff1990811683179091557fd544553a2e70858ffdf1e1169f6f124859d29ddf2686bcabf4e6f71bc630442280548216831790557fcc41b8fe3dd37df8e4a56c49f4e83a8fb6899f1fe8f1ddc40678281e8ec6221280548216831790557fb36a33d86f1fff914d4fda13267a0db975e3da4eca355a41c694440a4b38a6e3805482168317905563da287a1d60e01b5f9081527f340064a3e6d3079fa141d778c6527db724b180efb190cdf165ccf1bf228fc8a380549092169092179055600754604051909130915f5160206163ad5f395f51905f52908290a46007546040515f9030905f5160206163ad5f395f51905f52908390a450505061032d565b5f36601480821080159061022057506102203361024e565b156102465761023336828403815f6102ce565b61023c916102f5565b60601c9250505090565b339250505090565b5f61025860805190565b6001600160a01b0316826001600160a01b0316149050919050565b80516001600160a01b0381168114610289575f5ffd5b919050565b5f5f5f606084860312156102a0575f5ffd5b6102a984610273565b92506102b760208501610273565b91506102c560408501610273565b90509250925092565b5f5f858511156102dc575f5ffd5b838611156102e8575f5ffd5b5050820193919092039150565b80356001600160601b03198116906014841015610326576001600160601b0319601485900360031b81901b82161691505b5092915050565b60805160a05160c05160e05161601c6103915f395f8181610f3c015281816114680152818161199f01528181611a66015281816140880152614f0401525f81816106db01526121c701525f8181610f09015261225801525f6128ca015261601c5ff3fe60806040526004361061038d575f3560e01c806301ffc9a714610391578063047fc9aa146103de57806306fdde0314610401578063081812fc1461043e578063095cf5c61461047f578063095ea7b3146104a05780630ec84dda146104b357806317d70f7c146104d257806318160ddd146104e757806319a0a9d5146104fb57806320606b701461052657806323b872dd1461054657806327a6ee98146105595780632d0485ec1461058d5780632e1a7d4d146105ac5780632e720f7d146105cb5780632f7f9ba9146105ea578063313ce5671461060957806333230dc01461062f57806335b0f6bd1461064e578063370fb5fa1461066d57806337b1f5001461068c5780633a6396a5146106ab5780633bf0c9fb146106ca5780633d085a37146106fd57806342842e0e1461072b578063430c20811461073e57806344acb42a1461075d57806346c96aac146107895780634b19becc146107a85780634bf5d7e9146107d55780634d01cb661461080b5780634d6fb77514610820578063505897931461083f578063515857d41461088857806354fd4d50146108be5780635594a045146108ee578063572b6c051461090d5780635a4f459a1461092c5780636352211e1461094b57806370a082311461096a5780637c7280001461099e5780637da0a877146109d95780637ecebe00146109ed578063834b0b6914610a1857806385f2aef214610a375780638ad4c44714610a565780638bf9d84c14610a755780638e539e8c14610aab5780638fbb38ff14610aca578063900cf0cf14610af857806391ddadf414610b0d57806395d89b4114610401578063981b24d014610aab5780639954a98914610b1f5780639d507b8b14610b3e578063a22cb46514610b5d578063a738da8214610b7c578063a899b36c14610bb0578063b1548afc14610bde578063b2383e5514610c09578063b45a3c0e14610c28578063b52c05fe14610c6e578063b88d4fde14610c8d578063bfe1092814610ca0578063c2c4c5c114610cbe578063c87b56dd14610cd2578063d1c2babb14610cf1578063d9a3495214610d10578063e0514aba14610d2f578063e0c11f9a14610d4e578063e58f594714610d6d578063e75b1c2e14610d98578063e7a324dc14610db7578063e7e242d414610dd7578063e985e9c514610df6578063ec32e6df14610e3d578063f04cb3a814610e5c578063f52a36f714610eb7578063f645d4f914610ef8578063fc0c546a14610f2b575b5f5ffd5b34801561039c575f5ffd5b506103c96103ab366004615746565b6001600160e01b0319165f9081526006602052604090205460ff1690565b60405190151581526020015b60405180910390f35b3480156103e9575f5ffd5b506103f360165481565b6040519081526020016103d5565b34801561040c575f5ffd5b50610431604051806040016040528060058152602001641d9953919560da1b81525081565b6040516103d59190615796565b348015610449575f5ffd5b506104726104583660046157a8565b5f908152601060205260409020546001600160a01b031690565b6040516103d591906157bf565b34801561048a575f5ffd5b5061049e6104993660046157e7565b610f5e565b005b61049e6104ae366004615802565b610fe2565b3480156104be575f5ffd5b5061049e6104cd36600461582c565b61111e565b3480156104dd575f5ffd5b506103f360075481565b3480156104f2575f5ffd5b506103f36111cc565b348015610506575f5ffd5b506103f36105153660046157a8565b60096020525f908152604090205481565b348015610531575f5ffd5b506103f35f516020615f475f395f51905f5281565b61049e61055436600461584c565b6111db565b348015610564575f5ffd5b506104726105733660046157a8565b600d6020525f90815260409020546001600160a01b031681565b348015610598575f5ffd5b5061049e6105a736600461588a565b6111f3565b3480156105b7575f5ffd5b5061049e6105c63660046157a8565b61125b565b3480156105d6575f5ffd5b5061049e6105e53660046157e7565b611516565b3480156105f5575f5ffd5b50600454610472906001600160a01b031681565b348015610614575f5ffd5b5061061d601281565b60405160ff90911681526020016103d5565b34801561063a575f5ffd5b5061049e6106493660046158d5565b6115aa565b348015610659575f5ffd5b5061049e6106683660046157a8565b61160f565b348015610678575f5ffd5b5061049e6106873660046157a8565b611872565b348015610697575f5ffd5b5061049e6106a6366004615908565b611e6f565b3480156106b6575f5ffd5b506103f36106c53660046157e7565b61204c565b3480156106d5575f5ffd5b506104727f000000000000000000000000000000000000000000000000000000000000000081565b348015610708575f5ffd5b506103c96107173660046157e7565b601b6020525f908152604090205460ff1681565b61049e61073936600461584c565b612362565b348015610749575f5ffd5b506103c9610758366004615802565b61237c565b348015610768575f5ffd5b5061077c61077736600461582c565b612390565b6040516103d59190615929565b348015610794575f5ffd5b50600154610472906001600160a01b031681565b3480156107b3575f5ffd5b506107c76107c236600461582c565b61240d565b6040516103d5929190615968565b3480156107e0575f5ffd5b5060408051808201909152600e81526d06d6f64653d74696d657374616d760941b6020820152610431565b348015610816575f5ffd5b506103f3601c5481565b34801561082b575f5ffd5b506103f361083a366004615976565b6127a0565b34801561084a575f5ffd5b506108716108593660046157a8565b602080525f908152604090205465ffffffffffff1681565b60405165ffffffffffff90911681526020016103d5565b348015610893575f5ffd5b506103f36108a236600461582c565b600a60209081525f928352604080842090915290825290205481565b3480156108c9575f5ffd5b50610431604051806040016040528060058152602001640322e302e360dc1b81525081565b3480156108f9575f5ffd5b50600354610472906001600160a01b031681565b348015610918575f5ffd5b506103c96109273660046157e7565b612840565b348015610937575f5ffd5b5061049e610946366004615908565b612864565b348015610956575f5ffd5b506104726109653660046157a8565b6128be565b348015610975575f5ffd5b506103f36109843660046157e7565b6001600160a01b03165f908152600f602052604090205490565b3480156109a9575f5ffd5b506109cc6109b83660046157a8565b60086020525f908152604090205460ff1681565b6040516103d591906159bc565b3480156109e4575f5ffd5b506104726128c8565b3480156109f8575f5ffd5b506103f3610a073660046157e7565b60216020525f908152604090205481565b348015610a23575f5ffd5b5061049e610a323660046159e2565b6128ec565b348015610a42575f5ffd5b50600254610472906001600160a01b031681565b348015610a61575f5ffd5b5061077c610a703660046157a8565b612b73565b348015610a80575f5ffd5b506103f3610a8f366004615802565b601360209081525f928352604080842090915290825290205481565b348015610ab6575f5ffd5b506103f3610ac53660046157a8565b612bfe565b348015610ad5575f5ffd5b506103c9610ae43660046157a8565b601d6020525f908152604090205460ff1681565b348015610b03575f5ffd5b506103f360155481565b348015610b18575f5ffd5b5042610871565b348015610b2a575f5ffd5b5061049e610b393660046157e7565b612c08565b348015610b49575f5ffd5b5061049e610b5836600461582c565b612d53565b348015610b68575f5ffd5b5061049e610b773660046158d5565b612f48565b348015610b87575f5ffd5b50610472610b963660046157a8565b600c6020525f90815260409020546001600160a01b031681565b348015610bbb575f5ffd5b506103c9610bca3660046157a8565b600b6020525f908152604090205460ff1681565b348015610be9575f5ffd5b506103f3610bf83660046157a8565b5f908152601e602052604090205490565b348015610c14575f5ffd5b5061049e610c2336600461582c565b612ff1565b348015610c33575f5ffd5b50610c47610c423660046157a8565b61304f565b604080518251600f0b815260208084015190820152918101511515908201526060016103d5565b348015610c79575f5ffd5b506103f3610c8836600461582c565b613097565b61049e610c9b366004615a41565b6130e7565b348015610cab575f5ffd5b505f54610472906001600160a01b031681565b348015610cc9575f5ffd5b5061049e61312f565b348015610cdd575f5ffd5b50610431610cec3660046157a8565b6131a4565b348015610cfc575f5ffd5b5061049e610d0b36600461582c565b613244565b348015610d1b575f5ffd5b5061049e610d2a36600461582c565b61369c565b348015610d3a575f5ffd5b506103f3610d4936600461582c565b6136d2565b348015610d59575f5ffd5b5061049e610d6836600461582c565b6136dd565b348015610d78575f5ffd5b506103f3610d873660046157a8565b60196020525f908152604090205481565b348015610da3575f5ffd5b5061049e610db23660046157a8565b613b97565b348015610dc2575f5ffd5b506103f35f516020615f875f395f51905f5281565b348015610de2575f5ffd5b506103f3610df13660046157a8565b613db7565b348015610e01575f5ffd5b506103c9610e1036600461588a565b6001600160a01b039182165f90815260116020908152604080832093909416825291909152205460ff1690565b348015610e48575f5ffd5b506103f3610e57366004615ad8565b613ddd565b348015610e67575f5ffd5b50610e7b610e76366004615b0e565b613e27565b6040516103d59190815181526020808301516001600160a01b031690820152604080830151908201526060918201519181019190915260800190565b348015610ec2575f5ffd5b50610ee5610ed13660046157a8565b601a6020525f9081526040902054600f0b81565b604051600f9190910b81526020016103d5565b348015610f03575f5ffd5b506104727f000000000000000000000000000000000000000000000000000000000000000081565b348015610f36575f5ffd5b506104727f000000000000000000000000000000000000000000000000000000000000000081565b6002546001600160a01b0316610f72613eb5565b6001600160a01b031614610f9957604051633a7cfa5d60e21b815260040160405180910390fd5b6001600160a01b038116610fc05760405163d92e233d60e01b815260040160405180910390fd5b600280546001600160a01b0319166001600160a01b0392909216919091179055565b5f610feb613eb5565b90505f610ff783613efb565b90506001600160a01b0381166110205760405163d92e233d60e01b815260040160405180910390fd5b836001600160a01b0316816001600160a01b0316036110525760405163367558c360e01b815260040160405180910390fd5b5f826001600160a01b031661106685613efb565b6001600160a01b038481165f9081526011602090815260408083208985168452909152902054911691909114915060ff168115826110a2575080155b156110c05760405163390cdd9b60e21b815260040160405180910390fd5b5f8581526010602052604080822080546001600160a01b0319166001600160a01b038a811691821790925591518893918716917f8c5be1e5ebec7d5bd14f71427d1e84f3dd0314c0f7b2291e5b200ac8c7c3b92591a4505050505050565b3068929eee149b4bd21268540361113c5763ab143c065f526004601cfd5b3068929eee149b4bd212685560025f8381526008602052604090205460ff16600281111561116c5761116c6159a8565b14801561119357505f546001600160a01b0316611187613eb5565b6001600160a01b031614155b156111b15760405163385296d560e01b815260040160405180910390fd5b6111bc82825f613f15565b3868929eee149b4bd21268555050565b5f6111d64261414f565b905090565b6111ee8383836111e9613eb5565b6141d0565b505050565b6001546001600160a01b0316611207613eb5565b6001600160a01b03161461122e5760405163c18384c160e01b815260040160405180910390fd5b600180546001600160a01b039384166001600160a01b0319918216179091555f8054929093169116179055565b3068929eee149b4bd2126854036112795763ab143c065f526004601cfd5b3068929eee149b4bd21268555f61128e613eb5565b905061129a81836142e7565b6112b75760405163390cdd9b60e21b815260040160405180910390fd5b5f828152601d602052604090205460ff16156112e657604051637c9a1cf960e01b815260040160405180910390fd5b5f8281526008602052604081205460ff166002811115611308576113086159a8565b14611326576040516317a66f3760e01b815260040160405180910390fd5b5f8281526017602090815260409182902082516060810184528154600f0b81526001820154928101929092526002015460ff161580159282019290925290611381576040516334d10f9560e11b815260040160405180910390fd5b80602001514210156113a65760405163342ad40160e11b815260040160405180910390fd5b5f6113b6825f0151600f0b61434f565b90506113c18461437a565b604080516060810182525f8082526020808301828152838501838152898452601790925293909120915182546001600160801b0319166001600160801b039091161782559151600182015590516002909101805460ff191691151591909117905560165461142f8282615b4f565b601655604080516060810182525f808252602082018190529181019190915261145b9086908590614413565b61148f6001600160a01b037f0000000000000000000000000000000000000000000000000000000000000000168584614bad565b5084846001600160a01b03167f02f25270a4d87bea75db541cdfe559334a275b4a233520ed6c0a2429667cca9484426040516114cc929190615968565b60405180910390a35f516020615f675f395f51905f52816114ed8482615b4f565b6040516114fb929190615968565b60405180910390a1505050503868929eee149b4bd212685550565b6002546001600160a01b031661152a613eb5565b6001600160a01b03161461155157604051633a7cfa5d60e21b815260040160405180910390fd5b600380546001600160a01b0319166001600160a01b0383161790556040517f6bd5c950a8d8df17f772f5af37cb3655737899cbf903264b9795592da439661c9061159f905f905f1990615968565b60405180910390a150565b6002546001600160a01b03166115be613eb5565b6001600160a01b0316146115e557604051633a7cfa5d60e21b815260040160405180910390fd5b6001600160a01b03919091165f908152601b60205260409020805460ff1916911515919091179055565b5f611618613eb5565b905061162481836142e7565b6116415760405163390cdd9b60e21b815260040160405180910390fd5b5f8281526008602052604081205460ff166002811115611663576116636159a8565b14611681576040516317a66f3760e01b815260040160405180910390fd5b5f828152601d602052604090205460ff16156116b057604051637c9a1cf960e01b815260040160405180910390fd5b5f8281526017602090815260409182902082516060810184528154600f0b81526001820154928101929092526002015460ff1615159181018290529061170957604051632188f8ab60e01b815260040160405180910390fd5b5f611719825f0151600f0b61434f565b905080601c5f82825461172c9190615b4f565b9091555062093a80905080611745630784ce0042615b62565b61174f9190615b89565b6117599190615b9c565b60208301525f60408301819052611771908590614bcc565b5f8481526017602090815260409182902082516060810184528154600f0b81526001820154928101929092526002015460ff161515918101919091526117b990859084614413565b5f84815260176020908152604091829020845181546001600160801b0319166001600160801b03909116178155908401516001820155838201516002909101805460ff19169115159190911790555184906001600160a01b038516907f668d293c0a181c1f163fd0d3c757239a9c17bd26c5e483150e374455433b27fa906118449085904290615968565b60405180910390a36040518481525f516020615fc75f395f51905f529060200160405180910390a150505050565b3068929eee149b4bd2126854036118905763ab143c065f526004601cfd5b3068929eee149b4bd21268555f818152600960205260409020546001546001600160a01b03166118be613eb5565b6001600160a01b0316146118e55760405163c18384c160e01b815260040160405180910390fd5b805f036119055760405163d7caa26160e01b815260040160405180910390fd5b60015f8381526008602052604090205460ff166002811115611929576119296159a8565b1461194757604051630fd82f7760e11b815260040160405180910390fd5b5f818152600c6020908152604080832054600d835281842054868552600a8452828520868652909352818420549151633e491d4760e01b81526001600160a01b039182169491909316928490633e491d47906119c9907f0000000000000000000000000000000000000000000000000000000000000000908a90600401615bb3565b602060405180830381865afa1580156119e4573d5f5f3e3d5ffd5b505050506040513d601f19601f82011682018060405250810190611a089190615bcc565b90505f611a158284615b62565b90505f62093a8080611a2b630784ce0042615b62565b611a359190615b89565b611a3f9190615b9c565b6040805160018082528183019092529192505f9190602080830190803683370190505090507f0000000000000000000000000000000000000000000000000000000000000000815f81518110611a9757611a97615bf7565b6001600160a01b03928316602091820292909201015260405163f5f8d36560e01b81529088169063f5f8d36590611ad4908c908590600401615c0b565b5f604051808303815f87803b158015611aeb575f5ffd5b505af1158015611afd573d5f5f3e3d5ffd5b505050505f6040518060600160405280611b1686614d2d565b600f90810b825260208083018790525f60409384018190528e8152601782528390208351606081018552815490930b83526001810154918301919091526002015460ff16151591810191909152909150611b72908b9083614413565b5f8a8152601760209081526040808320845181546001600160801b0319166001600160801b0390911617815584830151600180830191909155858301516002928301805460ff19169115159190911790558d85529382902082516060810184528154600f0b8082529582015494810194909452015460ff1615159082015290611bfa86614d2d565b600f0b12611c09578051611c12565b611c1285614d2d565b81518290611c21908390615c61565b600f0b905250601c548510611c3857601c54611c3a565b845b601c5f828254611c4a9190615b4f565b90915550505f8a8152601e6020526040812054611c68918790614d5a565b5f8a81526017602090815260409182902082516060810184528154600f0b81526001820154928101929092526002015460ff16151591810191909152611cb0908b9083614413565b5f8a815260176020908152604091829020835181546001600160801b0319166001600160801b03909116178155908301516001820155828201516002909101805460ff19169115159190911790555163278afc8b60e21b81526001600160a01b038a1690639e2bf22c90611d2a908a908f90600401615968565b5f604051808303815f87803b158015611d41575f5ffd5b505af1158015611d53573d5f5f3e3d5ffd5b505060405163278afc8b60e21b81526001600160a01b038b169250639e2bf22c9150611d85908a908f90600401615968565b5f604051808303815f87803b158015611d9c575f5ffd5b505af1158015611dae573d5f5f3e3d5ffd5b5050505f8c8152600960209081526040808320839055600a82528083208e845282528083208390558e835260089091529020805460ff1916905550898b611df481613efb565b6001600160a01b03167f5319474ec1e9d118585a40e615ea37be254007e6bb5b039756c3813c2d1354898842604051611e2e929190615968565b60405180910390a46040518b81525f516020615fc75f395f51905f529060200160405180910390a1505050505050505050503868929eee149b4bd212685550565b60015f9054906101000a90046001600160a01b03166001600160a01b0316637778960e6040518163ffffffff1660e01b8152600401602060405180830381865afa158015611ebf573d5f5f3e3d5ffd5b505050506040513d601f19601f82011682018060405250810190611ee39190615c8e565b6001600160a01b0316611ef4613eb5565b6001600160a01b031614158015611f97575060015f9054906101000a90046001600160a01b03166001600160a01b0316630c340a246040518163ffffffff1660e01b8152600401602060405180830381865afa158015611f56573d5f5f3e3d5ffd5b505050506040513d601f19601f82011682018060405250810190611f7a9190615c8e565b6001600160a01b0316611f8b613eb5565b6001600160a01b031614155b15611fb55760405163459d6a3f60e01b815260040160405180910390fd5b60025f8381526008602052604090205460ff166002811115611fd957611fd96159a8565b14611ff75760405163054b1e0160e51b815260040160405180910390fd5b5f828152600b602052604090205481151560ff90911615150361202d57604051631490ad1160e01b815260040160405180910390fd5b5f918252600b6020526040909120805460ff1916911515919091179055565b5f3068929eee149b4bd21268540361206b5763ab143c065f526004601cfd5b3068929eee149b4bd21268555f612080613eb5565b6004549091506001600160a01b03808316911614801590612126575060015f9054906101000a90046001600160a01b03166001600160a01b0316630c340a246040518163ffffffff1660e01b8152600401602060405180830381865afa1580156120ec573d5f5f3e3d5ffd5b505050506040513d601f19601f820116820180604052508101906121109190615c8e565b6001600160a01b0316816001600160a01b031614155b1561214457604051633bc1d15f60e01b815260040160405180910390fd5b60075f815461215290615ca9565b918290555091506121638383614dd3565b50612192825f5f60405180606001604052805f600f0b81526020015f8152602001600115158152506001614e2c565b5f828152600860209081526040808320805460ff1916600217905580516301a15ccf60e31b8152905183926001600160a01b037f00000000000000000000000000000000000000000000000000000000000000001692630d0ae67892600480830193928290030181865afa15801561220c573d5f5f3e3d5ffd5b505050506040513d601f19601f820116820180604052508101906122309190615c8e565b60015460405163dabc8e8360e01b81526001600160a01b039283169263dabc8e8392612284927f00000000000000000000000000000000000000000000000000000000000000009290911690600401615cc1565b60408051808303815f875af115801561229f573d5f5f3e3d5ffd5b505050506040513d601f19601f820116820180604052508101906122c39190615cdb565b5f868152600c6020908152604080832080546001600160a01b038088166001600160a01b031992831617909255600d909352928190208054848616931692909217909155519294509092508481169186918816907fae65a147ec014982132ce8b32019735e3c5f41457848d2ce2e2c3e0cbc9df7bc906123469087908790615cc1565b60405180910390a45050503868929eee149b4bd2126855919050565b6111ee83838360405180602001604052805f815250614fca565b5f61238783836142e7565b90505b92915050565b6123986156df565b5f83815260186020526040902082633b9aca0081106123b9576123b9615bf7565b6040805160a081018252600492909202929092018054600f81810b8452600160801b909104900b60208301526001810154928201929092526002820154606082015260039091015460808201529392505050565b5f5f3068929eee149b4bd21268540361242d5763ab143c065f526004601cfd5b3068929eee149b4bd21268555f612442613eb5565b90505f61244e86613efb565b90506001600160a01b03811661247757604051632c2151ef60e11b815260040160405180910390fd5b6001600160a01b0381165f908152601b602052604090205460ff161580156124c957505f8052601b6020527f584f46c60af19681376031579adb04a2416e54ee5505351c2a8435e3766026ea5460ff16155b156124e757604051633df16fd960e21b815260040160405180910390fd5b5f8681526008602052604081205460ff166002811115612509576125096159a8565b14612527576040516317a66f3760e01b815260040160405180910390fd5b5f868152601d602052604090205460ff161561255657604051637c9a1cf960e01b815260040160405180910390fd5b61256082876142e7565b61257d5760405163390cdd9b60e21b815260040160405180910390fd5b5f8681526017602090815260409182902082516060810184528154600f0b8152600182015492810183905260029091015460ff1615159281019290925242108015906125cb57508060400151155b156125e9576040516307b7d7dd60e51b815260040160405180910390fd5b5f6125f387614d2d565b905080600f0b5f0361261857604051631f2a200560e01b815260040160405180910390fd5b80600f0b825f0151600f0b1361264157604051636b2f218360e01b815260040160405180910390fd5b61264a8861437a565b60408051606080820183525f80835260208084018281528486018381528e845260178352868420955186546001600160801b0319166001600160801b0390911617865590516001860155516002909401805460ff19169415159490941790935583519182018452808252918101829052918201526126cb9089908490614413565b80825f018181516126dc9190615c61565b600f0b9052506126ec83836150e8565b600f82900b835295506126ff83836150e8565b5f87815260176020526040902054909550859087908a907f8303de8187a6102fdc3fe20c756dddd68df0ae027b77e2391c19a855e0821f3390889061274690600f0b61434f565b61275287600f0b61434f565b6020808a0151604080516001600160a01b03909616865291850193909352830152606082015242608082015260a00160405180910390a4505050503868929eee149b4bd21268559250929050565b6040516332b53f5360e11b815260206004820152601f60248201526001600160a01b038416604482015260648101839052608481018290525f9073__$db28791ea9ebcaec6ee10f1000b0fce8fa$__9063656a7ea69060a401602060405180830381865af4158015612814573d5f5f3e3d5ffd5b505050506040513d601f19601f820116820180604052508101906128389190615bcc565b949350505050565b5f6128496128c8565b6001600160a01b0316826001600160a01b0316149050919050565b6001546001600160a01b0316612878613eb5565b6001600160a01b03161461289f5760405163c18384c160e01b815260040160405180910390fd5b5f918252601d6020526040909120805460ff1916911515919091179055565b5f61238a82613efb565b7f000000000000000000000000000000000000000000000000000000000000000090565b6fa2a8918ca85bafe22016d0b997e4df60600160ff1b03811115612923576040516317e97eb760e31b815260040160405180910390fd5b6040805180820182526005808252641d9953919560da1b60209283015282518084018452908152640322e302e360dc1b9082015281515f516020615f475f395f51905f52918101919091527fc792e9874e7b42c234d1e8448cec020a0f065019c8cd6f7ccdb65b8c110157e9918101919091527fb4bcb154e38601c389396fa918314da42d4626f13ef6d0ceb07e5f5d26b2fbc360608201524660808201523060a08201525f906129ec9060c0015b604051602081830303815290604052805160209091012090565b90505f612a185f516020615f875f395f51905f528a8a8a8a6040516020016129d2959493929190615d08565b60405161190160f01b602082015260228101849052604281018290529091505f90612a45906062016129d2565b604080515f8082526020820180845284905260ff8a169282019290925260608101889052608081018790529192509060019060a0016020604051602081039080840390855afa158015612a9a573d5f5f3e3d5ffd5b505050602060405103519050612ab0818c6142e7565b612acd5760405163390cdd9b60e21b815260040160405180910390fd5b6001600160a01b038116612af457604051638baa579f60e01b815260040160405180910390fd5b6001600160a01b0381165f908152602160205260408120805491612b1783615ca9565b919050558914612b3a57604051633ab3447f60e11b815260040160405180910390fd5b87421115612b5b57604051630819bdcd60e01b815260040160405180910390fd5b612b658b8b614bcc565b505050505b50505050505050565b612ba66040518060a001604052805f600f0b81526020015f600f0b81526020015f81526020015f81526020015f81525090565b505f90815260056020908152604091829020825160a0810184528154600f81810b8352600160801b909104900b9281019290925260018101549282019290925260028201546060820152600390910154608082015290565b5f61238a8261414f565b60015f9054906101000a90046001600160a01b03166001600160a01b0316630c340a246040518163ffffffff1660e01b8152600401602060405180830381865afa158015612c58573d5f5f3e3d5ffd5b505050506040513d601f19601f82011682018060405250810190612c7c9190615c8e565b6001600160a01b0316612c8d613eb5565b6001600160a01b031614612cb457604051633b8d9d7560e21b815260040160405180910390fd5b6004546001600160a01b0390811690821603612ce35760405163367558c360e01b815260040160405180910390fd5b6001600160a01b038116612d0a5760405163d92e233d60e01b815260040160405180910390fd5b600480546001600160a01b0319166001600160a01b0383169081179091556040517f1a6ce72407c68def4b7d2e724c896070d89cf2b2a2dd56b6897b5febd88420f5905f90a250565b3068929eee149b4bd212685403612d715763ab143c065f526004601cfd5b3068929eee149b4bd2126855612d8e612d88613eb5565b836142e7565b612dab5760405163390cdd9b60e21b815260040160405180910390fd5b5f8281526008602052604081205460ff166002811115612dcd57612dcd6159a8565b14612deb576040516317a66f3760e01b815260040160405180910390fd5b5f8281526017602090815260409182902082516060810184528154600f0b81526001820154928101929092526002015460ff161580159282019290925290612e46576040516334d10f9560e11b815260040160405180910390fd5b5f62093a8080612e568542615b62565b612e609190615b89565b612e6a9190615b9c565b905042826020015111612e90576040516307b7d7dd60e51b815260040160405180910390fd5b5f825f0151600f0b13612eb65760405163f90e998d60e01b815260040160405180910390fd5b81602001518111612eda57604051638e6b5b6760e01b815260040160405180910390fd5b612ee8630784ce0042615b62565b811115612f085760405163f761f1cd60e01b815260040160405180910390fd5b612f16845f83856003614e2c565b6040518481525f516020615fc75f395f51905f529060200160405180910390a150503868929eee149b4bd21268555050565b5f612f51613eb5565b9050806001600160a01b0316836001600160a01b031603612f855760405163367558c360e01b815260040160405180910390fd5b6001600160a01b038181165f81815260116020908152604080832094881680845294825291829020805460ff191687151590811790915591519182527f17307eab39ab6107e8899845ad3d59bd9653f200f220920489ca2b5937696c31910160405180910390a3505050565b3068929eee149b4bd21268540361300f5763ab143c065f526004601cfd5b3068929eee149b4bd2126855613026612d88613eb5565b6130435760405163390cdd9b60e21b815260040160405180910390fd5b6111bc82826002613f15565b61305761570f565b505f9081526017602090815260409182902082516060810184528154600f0b81526001820154928101929092526002015460ff1615159181019190915290565b5f3068929eee149b4bd2126854036130b65763ab143c065f526004601cfd5b3068929eee149b4bd21268556130d483836130cf613eb5565b615180565b3868929eee149b4bd21268559392505050565b61312885858585858080601f0160208091040260200160405190810160405280939291908181526020018383808284375f92019190915250614fca92505050565b5050505050565b3068929eee149b4bd21268540361314d5763ab143c065f526004601cfd5b3068929eee149b4bd212685560408051606080820183525f8083526020808401829052838501829052845192830185528183528201819052928101839052613196929190614413565b3868929eee149b4bd2126855565b60605f6131b083613efb565b6001600160a01b0316036131d757604051634a1850bf60e11b815260040160405180910390fd5b60035460405163c87b56dd60e01b8152600481018490526001600160a01b039091169063c87b56dd906024015f60405180830381865afa15801561321d573d5f5f3e3d5ffd5b505050506040513d5f823e601f3d908101601f1916820160405261238a9190810190615d2b565b3068929eee149b4bd2126854036132625763ab143c065f526004601cfd5b3068929eee149b4bd21268555f613277613eb5565b5f848152601d602052604090205490915060ff16156132a957604051637c9a1cf960e01b815260040160405180910390fd5b5f8381526008602052604081205460ff1660028111156132cb576132cb6159a8565b146132e9576040516317a66f3760e01b815260040160405180910390fd5b5f8281526008602052604081205460ff16600281111561330b5761330b6159a8565b14613329576040516317a66f3760e01b815260040160405180910390fd5b818303613349576040516349da877960e11b815260040160405180910390fd5b61335381846142e7565b6133705760405163390cdd9b60e21b815260040160405180910390fd5b61337a81836142e7565b6133975760405163390cdd9b60e21b815260040160405180910390fd5b5f8281526017602090815260409182902082516060810184528154600f0b8152600182015492810183905260029091015460ff1615159281019290925242108015906133e557508060400151155b15613403576040516307b7d7dd60e51b815260040160405180910390fd5b5f8481526017602090815260409182902082516060810184528154600f0b81526001820154928101929092526002015460ff16158015928201929092529061345e576040516334d10f9560e11b815260040160405180910390fd5b5f82602001518260200151101561347957826020015161347f565b81602001515b905061348a8661437a565b60408051606080820183525f80835260208084018281528486018381528c845260178352868420955186546001600160801b0319166001600160801b0390911617865590516001860155516002909401805460ff191694151594909417909355835191820184528082529181018290529182015261350b9087908490614413565b61351361570f565b825184516135219190615ddb565b600f0b81526040808501511580159183019190915261356357825161354890600f0b61434f565b601c5f8282546135589190615b62565b9091555061356b9050565b602081018290525b5f868152601e60205260409020548351613593919061358c90600f0b61434f565b6001614d5a565b61359e868583614413565b5f86815260176020908152604091829020835181546001600160801b0319166001600160801b03909116178155908301516001820155908201516002909101805460ff19169115159190911790558251869088906001600160a01b038816907f986e3c958e3bdf1f58c2150357fc94624dd4e77b08f9802d8e2e885fa0d6a1989061362b90600f0b61434f565b885161363990600f0b61434f565b865161364790600f0b61434f565b87602001514260405161365e959493929190615d08565b60405180910390a46040518681525f516020615fc75f395f51905f52906020015b60405180910390a150505050503868929eee149b4bd21268555050565b6136a7612d88613eb5565b6136c45760405163390cdd9b60e21b815260040160405180910390fd5b6136ce8282614bcc565b5050565b5f612387838361528d565b3068929eee149b4bd2126854036136fb5763ab143c065f526004601cfd5b3068929eee149b4bd21268556001546001600160a01b031661371b613eb5565b6001600160a01b0316146137425760405163c18384c160e01b815260040160405180910390fd5b60025f8281526008602052604090205460ff166002811115613766576137666159a8565b146137845760405163054b1e0160e51b815260040160405180910390fd5b5f8281526008602052604081205460ff1660028111156137a6576137a66159a8565b146137c4576040516317a66f3760e01b815260040160405180910390fd5b6137ce824261528d565b5f036137ed5760405163334ab3f560e11b815260040160405180910390fd5b5f8281526017602052604090208054600290910154600f9190910b9060ff161561383d5761381d81600f0b61434f565b601c5f82825461382d9190615b4f565b9091555061383d9050835f614bcc565b5f8381526017602090815260408083208151606080820184528254600f0b825260018301548286015260029092015460ff16151581840152825191820183528482529281018490529081019290925261389891859190614413565b604080516060810182525f80825260208083018281528385018381528884526017909252938220925183546001600160801b0319166001600160801b039091161783559251600183015591516002909101805460ff1916911515919091179055613905600f83900b61434f565b905080601c5f8282546139189190615b62565b90915550505f8381526017602090815260409182902082516060810184528154600f0b80825260018301549382019390935260029091015460ff161515928101929092528390829061396b908390615ddb565b600f0b9052505f848152601e602052604090205461398b90836001614d5a565b5f8481526017602090815260409182902082516060810184528154600f0b81526001820154928101929092526002015460ff161515918101919091526139d390859083614413565b5f848152601760209081526040808320845181546001600160801b039091166001600160801b031990911617815584830151600180830191909155858301516002909201805492151560ff19938416179055898552600a8452828520898652845282852087905589855260098452828520899055600884528285208054909216179055868352600c9091529081902054905163f320772360e01b81526001600160a01b0390911690819063f320772390613a939086908a90600401615968565b5f604051808303815f87803b158015613aaa575f5ffd5b505af1158015613abc573d5f5f3e3d5ffd5b5050505f868152600d60205260409081902054905163f320772360e01b81526001600160a01b039091169150819063f320772390613b009087908b90600401615968565b5f604051808303815f87803b158015613b17575f5ffd5b505af1158015613b29573d5f5f3e3d5ffd5b505050508587613b3889613efb565b6001600160a01b03167ff7757ce35992f4ee014dee2e0c97ed6245758960a6ecc9e124897a5fb7b014238742604051613b72929190615968565b60405180910390a46040518781525f516020615fc75f395f51905f529060200161367f565b5f613ba0613eb5565b9050613bac81836142e7565b613bc95760405163390cdd9b60e21b815260040160405180910390fd5b5f8281526008602052604081205460ff166002811115613beb57613beb6159a8565b14613c09576040516317a66f3760e01b815260040160405180910390fd5b5f8281526017602090815260409182902082516060810184528154600f0b81526001820154928101929092526002015460ff161580159282019290925290613c64576040516334d10f9560e11b815260040160405180910390fd5b42816020015111613c88576040516307b7d7dd60e51b815260040160405180910390fd5b5f815f0151600f0b13613cae5760405163f90e998d60e01b815260040160405180910390fd5b5f613cbe825f0151600f0b61434f565b905080601c5f828254613cd19190615b62565b90915550505f602080840182905260016040808601829052878452601783529283902083516060810185528154600f0b8152918101549282019290925260029091015460ff16151591810191909152613d2c90859084614413565b5f84815260176020908152604091829020845181546001600160801b0319166001600160801b03909116178155908401516001820155838201516002909101805460ff19169115159190911790555184906001600160a01b038516907f793cb7a30a4bb8669ec607dfcbdc93f5a3e9d282f38191fddab43ccaf79efb80906118449085904290615968565b5f81815260126020526040812054439003613dd357505f919050565b61238a824261528d565b5f3068929eee149b4bd212685403613dfc5763ab143c065f526004601cfd5b3068929eee149b4bd2126855613e13848484615180565b3868929eee149b4bd2126855949350505050565b613e5760405180608001604052805f81526020015f6001600160a01b031681526020015f81526020015f81525090565b505f918252601f6020908152604080842065ffffffffffff9390931684529181529181902081516080810183528154815260018201546001600160a01b03169381019390935260028101549183019190915260030154606082015290565b5f366014808210801590613ecd5750613ecd33612840565b15613ef357613ee036828403815f615e08565b613ee991615e2f565b60601c9250505090565b339250505090565b5f908152600e60205260409020546001600160a01b031690565b5f8381526008602052604090205460ff166001816002811115613f3a57613f3a6159a8565b03613f5857604051635eb32db160e11b815260040160405180910390fd5b5f84815260176020908152604080832081516060810183528154600f0b81526001820154938101939093526002015460ff1615159082015290849003613fb157604051631f2a200560e01b815260040160405180910390fd5b5f815f0151600f0b13613fd75760405163f90e998d60e01b815260040160405180910390fd5b42816020015111158015613fed57508060400151155b1561400b576040516307b7d7dd60e51b815260040160405180910390fd5b80604001511561402c5783601c5f8282546140269190615b62565b90915550505b5f858152601e602052604090205461404690856001614d5a565b61405385855f8487614e2c565b6002826002811115614067576140676159a8565b03614128575f858152600c60205260409020546001600160a01b03908116907f0000000000000000000000000000000000000000000000000000000000000000906140b5908216838861530d565b60405163b66503cf60e01b81526001600160a01b0383169063b66503cf906140e39084908a90600401615bb3565b5f604051808303815f87803b1580156140fa575f5ffd5b505af115801561410c573d5f5f3e3d5ffd5b50614125925050506001600160a01b038216835f61530d565b50505b6040518581525f516020615fc75f395f51905f529060200160405180910390a15050505050565b601554604051637259b01960e01b81525f9173__$dd5118279098511311b519b2f6722d0404$__91637259b0199161419191601a916005918890600401615e65565b602060405180830381865af41580156141ac573d5f5f3e3d5ffd5b505050506040513d601f19601f8201168201806040525081019061238a9190615bcc565b60015f8381526008602052604090205460ff1660028111156141f4576141f46159a8565b0361421257604051635eb32db160e11b815260040160405180910390fd5b61421c81836142e7565b6142395760405163390cdd9b60e21b815260040160405180910390fd5b836001600160a01b031661424c83613efb565b6001600160a01b031614614273576040516330cd747160e01b815260040160405180910390fd5b5f82815260106020526040902080546001600160a01b03191690556142988483615363565b6142a3825f856153e2565b6142ad838361544c565b5f828152601260205260408082204390555183916001600160a01b0380871692908816915f516020615fa75f395f51905f5291a450505050565b5f5f6142f283613efb565b5f848152601060209081526040808320546001600160a01b0380861680865260118552838620828c1680885295529290942054949550908214939216149060ff16828061433c5750815b806143445750805b979650505050505050565b5f5f82600f0b12156143735760405162406f5d60e21b815260040160405180910390fd5b50600f0b90565b5f614383613eb5565b905061438f81836142e7565b6143ac5760405163390cdd9b60e21b815260040160405180910390fd5b5f6143b683613efb565b5f84815260106020526040812080546001600160a01b03191690559091506143e0908490806153e2565b6143ea8184615363565b60405183905f906001600160a01b038416905f516020615fa75f395f51905f52908390a4505050565b61441b6156df565b6144236156df565b6015545f908190871561456e57856040015161443f575f61444d565b855161444d90600f0b61434f565b608085015260208701514210801561446a57505f875f0151600f0b135b156144b857865161448090630784ce0090615e80565b600f0b6020808701919091528701516144a39061449e904290615b4f565b614d2d565b85602001516144b29190615ebc565b600f0b85525b4286602001511180156144d057505f865f0151600f0b135b156145195785516144e690630784ce0090615e80565b600f0b6020808601919091528601516145049061449e904290615b4f565b84602001516145139190615ebc565b600f0b84525b6020808801515f908152601a8252604090205490870151600f9190910b93501561456e5786602001518660200151036145545782915061456e565b6020808701515f908152601a9091526040902054600f0b91505b6040805160a0810182525f808252602082018190524292820192909252436060820152608081019190915281156145f557505f81815260056020908152604091829020825160a0810184528154600f81810b8352600160801b909104900b928101929092526001810154928201929092526002820154606082015260039091015460808201525b60408082018051825160a0810184528451600f90810b825260208087015190910b90820152825193810193909352606080850151908401526080808501519084015290519091905f904211156146825760408401516146549042615b4f565b60608501516146639043615b4f565b61467590670de0b6b3a7640000615b9c565b61467f9190615b89565b90505b5f62093a806146918186615b89565b61469b9190615b9c565b90505f5b60ff811015614812576146b562093a8083615b62565b91505f428311156146c8574292506146db565b505f828152601a6020526040902054600f0b5b6146e861449e8785615b4f565b87602001516146f79190615ebc565b87518890614706908390615c61565b600f0b905250602087018051829190614720908390615ddb565b600f90810b90915288515f910b12159050614739575f87525b5f8760200151600f0b121561474f575f60208801525b60408088018490528501519295508592670de0b6b3a7640000906147739085615b4f565b61477d9086615b9c565b6147879190615b89565b85606001516147969190615b62565b60608801526147a6600189615b62565b97504283036147bb5750436060870152614812565b5f888152600560209081526040918290208951918a01516001600160801b03908116600160801b0292169190911781559088015160018201556060880151600282015560808801516003909101555060010161469f565b50508b1561489c578860200151886020015161482e9190615c61565b8460200181815161483f9190615ddb565b600f0b905250885188516148539190615c61565b84518590614862908390615ddb565b600f90810b90915260208601515f910b12159050614881575f60208501525b5f845f0151600f0b1215614893575f84525b601c5460808501525b846001141580156148ca57504260055f6148b7600189615b4f565b81526020019081526020015f2060010154145b15614932578360055f6148de600189615b4f565b815260208082019290925260409081015f208351928401516001600160801b03908116600160801b029316929092178255820151600182015560608201516002820155608090910151600390910155614986565b60158590555f858152600560209081526040918290208651918701516001600160801b03908116600160801b0292169190911781559085015160018201556060850151600282015560808501516003909101555b8b15614b9f57428b6020015111156149f75760208901516149a79088615ddb565b96508a602001518a60200151036149ca5760208801516149c79088615c61565b96505b60208b8101515f908152601a9091526040902080546001600160801b0319166001600160801b0389161790555b428a602001511115614a51578a602001518a602001511115614a51576020880151614a229087615c61565b60208b8101515f908152601a9091526040902080546001600160801b0319166001600160801b03831617905595505b426040808a01919091524360608a01525f8d8152601960205220548015801590614aa357505f8d8152601860205260409020429082633b9aca008110614a9957614a99615bf7565b6004020160010154145b15614b18575f8d8152601860205260409020899082633b9aca008110614acb57614acb615bf7565b825160208401516001600160801b03908116600160801b02911617600491909102919091019081556040820151600182015560608201516002820155608090910151600390910155614b9d565b614b2181615ca9565b5f8e815260196020908152604080832084905560189091529020909150899082633b9aca008110614b5457614b54615bf7565b825160208401516001600160801b03908116600160801b029116176004919091029190910190815560408201516001820155606082015160028201556080909101516003909101555b505b505050505050505050505050565b5f614bc26001600160a01b03851684846154dc565b5060019392505050565b5f8281526017602090815260409182902082516060810184528154600f0b81526001820154928101929092526002015460ff16151591810182905290614c2557604051632188f8ab60e01b815260040160405180910390fd5b8115801590614c4457505f614c3983613efb565b6001600160a01b0316145b15614c6257604051634a1850bf60e11b815260040160405180910390fd5b5f83815260126020526040902054439003614c90576040516342d6fce760e01b815260040160405180910390fd5b828203614c9b575f91505b5f838152601e6020526040902054828103614cb65750505050565b5f614cc6835f0151600f0b61434f565b9050614cdb8585614cd688613efb565b6153e2565b614ce784826001614d5a565b8382614cf1613eb5565b6001600160a01b03167ff1aa2a9e40138176a3ee6099df056f5c175f8511a0d8b8275d94d1ea5de4677360405160405180910390a45050505050565b5f60016001607f1b03821115614d56576040516393dafdf160e01b815260040160405180910390fd5b5090565b6040516375f199b960e11b815260206004820152601f60248201526044810184905260648101839052811515608482015273__$db28791ea9ebcaec6ee10f1000b0fce8fa$__9063ebe333729060a4015b5f6040518083038186803b158015614dc1575f5ffd5b505af4158015612b6a573d5f5f3e3d5ffd5b5f6001600160a01b038316614dea57614dea615edb565b614df4838361544c565b614dff825f856153e2565b60405182906001600160a01b038516905f905f516020615fa75f395f51905f52908290a450600192915050565b601654614e398582615b62565b601655614e4461570f565b835160208086015160408088015115159085015290830152600f0b8152614e6a86614d2d565b81518290614e79908390615ddb565b600f0b9052508415614e8d57602081018590525b5f87815260176020908152604091829020835181546001600160801b0319166001600160801b03909116178155908301516001820155908201516002909101805460ff1916911515919091179055614ee6878583614413565b5f614eef613eb5565b90508615614f2e57614f2c6001600160a01b037f00000000000000000000000000000000000000000000000000000000000000001682308a6154e7565b505b836003811115614f4057614f406159a8565b602083810151604080518b8152928301919091524282820152518a916001600160a01b038516917f8835c22a0c751188de86681e15904223c054bedd5c68ec8858945b78312902739181900360600190a45f516020615f675f395f51905f5283614faa8982615b62565b604051614fb8929190615968565b60405180910390a15050505050505050565b5f614fd3613eb5565b9050614fe1858585846141d0565b833b1561312857604051630a85bd0160e11b81526001600160a01b0385169063150b7a029061501a908490899088908890600401615eef565b6020604051808303815f875af1925050508015615054575060408051601f3d908101601f1916820190925261505191810190615f2b565b60015b6150af573d808015615081576040519150601f19603f3d011682016040523d82523d5f602084013e615086565b606091505b5080515f036150a757604051626b5e2960e61b815260040160405180910390fd5b805181602001fd5b6001600160e01b03198116630a85bd0160e11b146150e05760405163279929b160e21b815260040160405180910390fd5b505050505050565b5f60075f81546150f790615ca9565b91829055505f818152601760209081526040808320865181546001600160801b0319166001600160801b03909116178155868301516001820155868201516002909101805460ff1916911515919091179055805160608101825283815291820183905281019190915290915061516f90829084614413565b6151798382614dd3565b5092915050565b5f8062093a80806151918642615b62565b61519b9190615b89565b6151a59190615b9c565b9050845f036151c757604051631f2a200560e01b815260040160405180910390fd5b4281116151e757604051638e6b5b6760e01b815260040160405180910390fd5b6151f5630784ce0042615b62565b8111156152155760405163f761f1cd60e01b815260040160405180910390fd5b5f60075f815461522490615ca9565b918290555090506152358482614dd3565b505f8181526017602090815260409182902082516060810184528154600f0b81526001808301549382019390935260029091015460ff1615159281019290925261528491839189918691614e2c565b95945050505050565b604051637b29b3d160e01b81525f9073__$dd5118279098511311b519b2f6722d0404$__90637b29b3d1906152ce9060199060189088908890600401615e65565b602060405180830381865af41580156152e9573d5f5f3e3d5ffd5b505050506040513d601f19601f820116820180604052508101906123879190615bcc565b6111ee8363095ea7b360e01b848460405160240161532c929190615bb3565b60408051601f198184030181529190526020810180516001600160e01b03166001600160e01b031990931692909217909152615508565b816001600160a01b031661537682613efb565b6001600160a01b03161461538c5761538c615edb565b5f818152600e6020526040902080546001600160a01b03191690556153b1828261557a565b6001600160a01b0382165f908152600f602052604081208054600192906153d9908490615b4f565b90915550505050565b60405163690f66bf60e01b81526017600482015260206024820152601f6044820152601e60648201526084810184905260a481018390526001600160a01b03821660c482015273__$db28791ea9ebcaec6ee10f1000b0fce8fa$__9063690f66bf9060e401614dab565b5f61545682613efb565b6001600160a01b03161461546c5761546c615edb565b5f818152600e6020908152604080832080546001600160a01b0319166001600160a01b038716908117909155808452600f808452828520805460138652848720818852865284872088905587875260148652938620939093559084529091528054600192906153d9908490615b62565b6111ee838383615635565b5f6154fd6001600160a01b03861685858561567f565b506001949350505050565b5f5f60205f8451602086015f885af180615527576040513d5f823e3d81fd5b50505f513d9150811561553e57806001141561554b565b6001600160a01b0384163b155b156155745783604051635274afe760e01b815260040161556b91906157bf565b60405180910390fd5b50505050565b6001600160a01b0382165f908152600f602052604081205461559e90600190615b4f565b5f838152601460205260409020549091508082036155eb576001600160a01b0384165f90815260136020908152604080832085845282528083208390558583526014909152812055615574565b6001600160a01b03939093165f9081526013602090815260408083209383529281528282208054868452848420819055835260149091528282209490945592839055908252812055565b816014528060345263a9059cbb60601b5f5260205f604460105f875af18060015f51141661567557803d853b151710615675576390b8ec185f526004601cfd5b505f603452505050565b6155748484848460405181606052826040528360601b602c526323b872dd60601b600c5260205f6064601c5f895af18060015f5114166156d157803d873b1517106156d157637939f4245f526004601cfd5b505f60605260405250505050565b6040518060a001604052805f600f0b81526020015f600f0b81526020015f81526020015f81526020015f81525090565b604080516060810182525f808252602082018190529181019190915290565b6001600160e01b031981168114615743575f5ffd5b50565b5f60208284031215615756575f5ffd5b81356157618161572e565b9392505050565b5f81518084528060208401602086015e5f602082860101526020601f19601f83011685010191505092915050565b602081525f6123876020830184615768565b5f602082840312156157b8575f5ffd5b5035919050565b6001600160a01b0391909116815260200190565b6001600160a01b0381168114615743575f5ffd5b5f602082840312156157f7575f5ffd5b8135615761816157d3565b5f5f60408385031215615813575f5ffd5b823561581e816157d3565b946020939093013593505050565b5f5f6040838503121561583d575f5ffd5b50508035926020909101359150565b5f5f5f6060848603121561585e575f5ffd5b8335615869816157d3565b92506020840135615879816157d3565b929592945050506040919091013590565b5f5f6040838503121561589b575f5ffd5b82356158a6816157d3565b915060208301356158b6816157d3565b809150509250929050565b803580151581146158d0575f5ffd5b919050565b5f5f604083850312156158e6575f5ffd5b82356158f1816157d3565b91506158ff602084016158c1565b90509250929050565b5f5f60408385031215615919575f5ffd5b823591506158ff602084016158c1565b60a0810161238a82848051600f0b82526020810151600f0b60208301526040810151604083015260608101516060830152608081015160808301525050565b918252602082015260400190565b5f5f5f60608486031215615988575f5ffd5b8335615993816157d3565b95602085013595506040909401359392505050565b634e487b7160e01b5f52602160045260245ffd5b60208101600383106159dc57634e487b7160e01b5f52602160045260245ffd5b91905290565b5f5f5f5f5f5f5f60e0888a0312156159f8575f5ffd5b87359650602088013595506040880135945060608801359350608088013560ff81168114615a24575f5ffd5b9699959850939692959460a0840135945060c09093013592915050565b5f5f5f5f5f60808688031215615a55575f5ffd5b8535615a60816157d3565b94506020860135615a70816157d3565b93506040860135925060608601356001600160401b03811115615a91575f5ffd5b8601601f81018813615aa1575f5ffd5b80356001600160401b03811115615ab6575f5ffd5b886020828401011115615ac7575f5ffd5b959894975092955050506020019190565b5f5f5f60608486031215615aea575f5ffd5b83359250602084013591506040840135615b03816157d3565b809150509250925092565b5f5f60408385031215615b1f575f5ffd5b82359150602083013565ffffffffffff811681146158b6575f5ffd5b634e487b7160e01b5f52601160045260245ffd5b8181038181111561238a5761238a615b3b565b8082018082111561238a5761238a615b3b565b634e487b7160e01b5f52601260045260245ffd5b5f82615b9757615b97615b75565b500490565b808202811582820484141761238a5761238a615b3b565b6001600160a01b03929092168252602082015260400190565b5f60208284031215615bdc575f5ffd5b5051919050565b634e487b7160e01b5f52604160045260245ffd5b634e487b7160e01b5f52603260045260245ffd5b5f60408201848352604060208401528084518083526060850191506020860192505f5b81811015615c555783516001600160a01b0316835260209384019390920191600101615c2e565b50909695505050505050565b600f82810b9082900b0360016001607f1b0319811260016001607f1b038213171561238a5761238a615b3b565b5f60208284031215615c9e575f5ffd5b8151615761816157d3565b5f60018201615cba57615cba615b3b565b5060010190565b6001600160a01b0392831681529116602082015260400190565b5f5f60408385031215615cec575f5ffd5b8251615cf7816157d3565b60208401519092506158b6816157d3565b948552602085019390935260408401919091526060830152608082015260a00190565b5f60208284031215615d3b575f5ffd5b81516001600160401b03811115615d50575f5ffd5b8201601f81018413615d60575f5ffd5b80516001600160401b03811115615d7957615d79615be3565b604051601f8201601f19908116603f011681016001600160401b0381118282101715615da757615da7615be3565b604052818152828201602001861015615dbe575f5ffd5b8160208401602083015e5f91810160200191909152949350505050565b600f81810b9083900b0160016001607f1b03811360016001607f1b03198212171561238a5761238a615b3b565b5f5f85851115615e16575f5ffd5b83861115615e22575f5ffd5b5050820193919092039150565b80356001600160601b03198116906014841015615179576001600160601b031960149490940360031b84901b1690921692915050565b93845260208401929092526040830152606082015260800190565b5f81600f0b83600f0b80615e9657615e96615b75565b60016001607f1b031982145f1982141615615eb357615eb3615b3b565b90059392505050565b5f82600f0b82600f0b0280600f0b915080821461517957615179615b3b565b634e487b7160e01b5f52600160045260245ffd5b6001600160a01b03858116825284166020820152604081018390526080606082018190525f90615f2190830184615768565b9695505050505050565b5f60208284031215615f3b575f5ffd5b81516157618161572e56fe8cad95687ba82c2ce50e74f7b754645e5117c3a5bec8151c0726d5857980a8665e2aa66efd74cce82b21852e317e5490d9ecc9e6bb953ae24d90851258cc2f5c9947d5709c1682eaa3946b2d84115c9c0d1c946b149d76e69b457458b42ea29eddf252ad1be2c89b69c2b068fc378daa952ba7f163c4a11628f55a4df523b3eff8e1a15aba9398e019f0b49df1a4fde98ee17ae345cb5f6b5e2c27f5033e8ce7a2646970667358221220f014c2f2477e4f92e9b76f0b98ea42b33d310d33ec5067cc202643562c27afb164736f6c634300081e0033ddf252ad1be2c89b69c2b068fc378daa952ba7f163c4a11628f55a4df523b3ef","linkReferences":{"contracts/protocols/dexes/aerodrome/v1/stubs/libraries/BalanceLogicLibrary.sol":{"BalanceLogicLibrary":[{"start":17652,"length":20},{"start":22063,"length":20}]},"contracts/protocols/dexes/aerodrome/v1/stubs/libraries/DelegationLogicLibrary.sol":{"DelegationLogicLibrary":[{"start":11117,"length":20},{"start":20766,"length":20},{"start":22459,"length":20}]}}},"methodIdentifiers":{"CLOCK_MODE()":"4bf5d7e9","DELEGATION_TYPEHASH()":"e7a324dc","DOMAIN_TYPEHASH()":"20606b70","allowedManager()":"2f7f9ba9","approve(address,uint256)":"095ea7b3","artProxy()":"5594a045","balanceOf(address)":"70a08231","balanceOfNFT(uint256)":"e7e242d4","balanceOfNFTAt(uint256,uint256)":"e0514aba","canSplit(address)":"3d085a37","checkpoint()":"c2c4c5c1","checkpoints(uint256,uint48)":"f04cb3a8","clock()":"91ddadf4","createLock(uint256,uint256)":"b52c05fe","createLockFor(uint256,uint256,address)":"ec32e6df","createManagedLockFor(address)":"3a6396a5","deactivated(uint256)":"a899b36c","decimals()":"313ce567","delegate(uint256,uint256)":"d9a34952","delegateBySig(uint256,uint256,uint256,uint256,uint8,bytes32,bytes32)":"834b0b69","delegates(uint256)":"b1548afc","depositFor(uint256,uint256)":"0ec84dda","depositManaged(uint256,uint256)":"e0c11f9a","distributor()":"bfe10928","epoch()":"900cf0cf","escrowType(uint256)":"7c728000","factoryRegistry()":"3bf0c9fb","forwarder()":"f645d4f9","getApproved(uint256)":"081812fc","getPastTotalSupply(uint256)":"8e539e8c","getPastVotes(address,uint256,uint256)":"4d6fb775","idToManaged(uint256)":"19a0a9d5","increaseAmount(uint256,uint256)":"b2383e55","increaseUnlockTime(uint256,uint256)":"9d507b8b","isApprovedForAll(address,address)":"e985e9c5","isApprovedOrOwner(address,uint256)":"430c2081","isTrustedForwarder(address)":"572b6c05","lockPermanent(uint256)":"e75b1c2e","locked(uint256)":"b45a3c0e","managedToFree(uint256)":"27a6ee98","managedToLocked(uint256)":"a738da82","merge(uint256,uint256)":"d1c2babb","name()":"06fdde03","nonces(address)":"7ecebe00","numCheckpoints(uint256)":"50589793","ownerOf(uint256)":"6352211e","ownerToNFTokenIdList(address,uint256)":"8bf9d84c","permanentLockBalance()":"4d01cb66","pointHistory(uint256)":"8ad4c447","safeTransferFrom(address,address,uint256)":"42842e0e","safeTransferFrom(address,address,uint256,bytes)":"b88d4fde","setAllowedManager(address)":"9954a989","setApprovalForAll(address,bool)":"a22cb465","setArtProxy(address)":"2e720f7d","setManagedState(uint256,bool)":"37b1f500","setTeam(address)":"095cf5c6","setVoterAndDistributor(address,address)":"2d0485ec","slopeChanges(uint256)":"f52a36f7","split(uint256,uint256)":"4b19becc","supply()":"047fc9aa","supportsInterface(bytes4)":"01ffc9a7","symbol()":"95d89b41","team()":"85f2aef2","toggleSplit(address,bool)":"33230dc0","token()":"fc0c546a","tokenId()":"17d70f7c","tokenURI(uint256)":"c87b56dd","totalSupply()":"18160ddd","totalSupplyAt(uint256)":"981b24d0","transferFrom(address,address,uint256)":"23b872dd","trustedForwarder()":"7da0a877","unlockPermanent(uint256)":"35b0f6bd","userPointEpoch(uint256)":"e58f5947","userPointHistory(uint256,uint256)":"44acb42a","version()":"54fd4d50","voted(uint256)":"8fbb38ff","voter()":"46c96aac","voting(uint256,bool)":"5a4f459a","weights(uint256,uint256)":"515857d4","withdraw(uint256)":"2e1a7d4d","withdrawManaged(uint256)":"370fb5fa"},"id":817}