{"abi":[{"type":"function","name":"isOperator","inputs":[{"name":"query","type":"address","internalType":"address"}],"outputs":[{"name":"","type":"bool","internalType":"bool"}],"stateMutability":"view"},{"type":"function","name":"isOperatorFor","inputs":[{"name":"func","type":"bytes4","internalType":"bytes4"},{"name":"query","type":"address","internalType":"address"}],"outputs":[{"name":"","type":"bool","internalType":"bool"}],"stateMutability":"view"},{"type":"function","name":"setOperator","inputs":[{"name":"operator","type":"address","internalType":"address"},{"name":"status","type":"bool","internalType":"bool"}],"outputs":[{"name":"","type":"bool","internalType":"bool"}],"stateMutability":"nonpayable"},{"type":"function","name":"setOperatorFor","inputs":[{"name":"func","type":"bytes4","internalType":"bytes4"},{"name":"newOperator","type":"address","internalType":"address"},{"name":"approval","type":"bool","internalType":"bool"}],"outputs":[{"name":"","type":"bool","internalType":"bool"}],"stateMutability":"nonpayable"},{"type":"event","name":"NewFunctionOperatorStatus","inputs":[{"name":"operator","type":"address","indexed":false,"internalType":"address"},{"name":"func","type":"bytes4","indexed":false,"internalType":"bytes4"},{"name":"status","type":"bool","indexed":false,"internalType":"bool"}],"anonymous":false},{"type":"event","name":"NewGlobalOperatorStatus","inputs":[{"name":"operator","type":"address","indexed":false,"internalType":"address"},{"name":"status","type":"bool","indexed":false,"internalType":"bool"}],"anonymous":false},{"type":"error","name":"NotOperator","inputs":[{"name":"caller","type":"address","internalType":"address"}]},{"type":"error","name":"NotOwner","inputs":[{"name":"caller","type":"address","internalType":"address"}]}],"bytecode":{"object":"0x6080604052348015600e575f5ffd5b5061047c8061001c5f395ff3fe608060405234801561000f575f5ffd5b506004361061004a575f3560e01c8063558a72971461004e5780636d70f7ae14610075578063755dbe7c14610088578063ea562a251461009b575b5f5ffd5b61006161005c36600461037d565b6100ae565b604051901515815260200160405180910390f35b6100616100833660046103ae565b6100ca565b6100616100963660046103de565b6100da565b6100616100a936600461041e565b6100f8565b5f6100b761010a565b6100c18383610135565b50600192915050565b5f6100d48261014b565b92915050565b5f6100e361010a565b6100ee848484610176565b5060019392505050565b5f610103838361018e565b9392505050565b6101337f552e522d4f9b6a3d443b47299f900b7b1bce2dacca532b0186b605495413451d6101d6565b565b610147610140610209565b838361025f565b5050565b5f6100d4610157610209565b836001600160a01b03165f908152602091909152604090205460ff1690565b610189610181610209565b8484846102c8565b505050565b5f61010361019a610209565b6001600160e01b031985165f908152600191909101602090815260408083206001600160a01b038716845290915290205460ff1690565b905090565b80546001600160a01b031633146102065760405163245aecd360e01b815233600482015260240160405180910390fd5b50565b5f6101d1604051602001610246906020808252601590820152746372616e652e6163636573732e6f70657261626c6560581b604082015260600190565b6040516020818303038152906040528051906020012090565b61026761010a565b6001600160a01b0382165f8181526020858152604091829020805460ff19168515159081179091558251938452908301527f26ba28058a3c072a70c8fd315037fe9b3957237cef5c61a9652a8da41c673daa910160405180910390a1505050565b6102d061010a565b6001600160e01b031983165f81815260018601602090815260408083206001600160a01b03871680855290835292819020805486151560ff1990911681179091558151938452918301939093528183015290517ff071216dc06459e77b915d1883909d92f41239172000b60261dfdc03518895699181900360600190a150505050565b80356001600160a01b0381168114610369575f5ffd5b919050565b80358015158114610369575f5ffd5b5f5f6040838503121561038e575f5ffd5b61039783610353565b91506103a56020840161036e565b90509250929050565b5f602082840312156103be575f5ffd5b61010382610353565b80356001600160e01b031981168114610369575f5ffd5b5f5f5f606084860312156103f0575f5ffd5b6103f9846103c7565b925061040760208501610353565b91506104156040850161036e565b90509250925092565b5f5f6040838503121561042f575f5ffd5b610438836103c7565b91506103a56020840161035356fea26469706673582212206330eec435c75aaa50d6599378d6f04a063ed59ad4548ef225b15d840ec1f98e64736f6c634300081e0033","linkReferences":{}},"methodIdentifiers":{"isOperator(address)":"6d70f7ae","isOperatorFor(bytes4,address)":"ea562a25","setOperator(address,bool)":"558a7297","setOperatorFor(bytes4,address,bool)":"755dbe7c"},"id":17}