{"abi":[{"type":"function","name":"isOperator","inputs":[{"name":"query","type":"address","internalType":"address"}],"outputs":[{"name":"","type":"bool","internalType":"bool"}],"stateMutability":"view"},{"type":"function","name":"isOperatorFor","inputs":[{"name":"func","type":"bytes4","internalType":"bytes4"},{"name":"query","type":"address","internalType":"address"}],"outputs":[{"name":"","type":"bool","internalType":"bool"}],"stateMutability":"view"},{"type":"function","name":"setOperator","inputs":[{"name":"operator","type":"address","internalType":"address"},{"name":"status","type":"bool","internalType":"bool"}],"outputs":[{"name":"","type":"bool","internalType":"bool"}],"stateMutability":"nonpayable"},{"type":"function","name":"setOperatorFor","inputs":[{"name":"func","type":"bytes4","internalType":"bytes4"},{"name":"newOperator","type":"address","internalType":"address"},{"name":"approval","type":"bool","internalType":"bool"}],"outputs":[{"name":"","type":"bool","internalType":"bool"}],"stateMutability":"nonpayable"},{"type":"event","name":"NewFunctionOperator","inputs":[{"name":"newOperator","type":"address","indexed":false,"internalType":"address"},{"name":"func","type":"bytes4","indexed":false,"internalType":"bytes4"}],"anonymous":false},{"type":"event","name":"NewGlobalOperator","inputs":[{"name":"newOperator","type":"address","indexed":false,"internalType":"address"}],"anonymous":false},{"type":"error","name":"NotOperator","inputs":[{"name":"caller","type":"address","internalType":"address"}]},{"type":"error","name":"NotOwner","inputs":[{"name":"caller","type":"address","internalType":"address"}]}],"bytecode":{"object":"0x6080604052348015600e575f5ffd5b50610b1e8061001c5f395ff3fe608060405234801561000f575f5ffd5b506004361061004a575f3560e01c8063558a72971461004e5780636d70f7ae1461007e578063755dbe7c146100ae578063ea562a25146100de575b5f5ffd5b610068600480360381019061006391906107c5565b61010e565b6040516100759190610812565b60405180910390f35b6100986004803603810190610093919061082b565b6101bc565b6040516100a59190610812565b60405180910390f35b6100c860048036038101906100c391906108ab565b6101cd565b6040516100d59190610812565b60405180910390f35b6100f860048036038101906100f391906108fb565b61027d565b6040516101059190610812565b60405180910390f35b5f610117610290565b5f015f9054906101000a900473ffffffffffffffffffffffffffffffffffffffff1673ffffffffffffffffffffffffffffffffffffffff163373ffffffffffffffffffffffffffffffffffffffff16146101a857336040517f245aecd300000000000000000000000000000000000000000000000000000000815260040161019f9190610948565b60405180910390fd5b6101b28383610397565b6001905092915050565b5f6101c68261042e565b9050919050565b5f6101d6610290565b5f015f9054906101000a900473ffffffffffffffffffffffffffffffffffffffff1673ffffffffffffffffffffffffffffffffffffffff163373ffffffffffffffffffffffffffffffffffffffff161461026757336040517f245aecd300000000000000000000000000000000000000000000000000000000815260040161025e9190610948565b60405180910390fd5b610272848484610488565b600190509392505050565b5f6102888383610570565b905092915050565b5f6103927fa6e1d6ed000000000000000000000000000000000000000000000000000000007bffffffffffffffffffffffffffffffffffffffffffffffffffffffff1916600160405180604001604052600b8152806020017f4f776e61626c655265706f00000000000000000000000000000000000000000081525060405160200161031c91906109d1565b604051602081830303815290604052805190602001206040516020016103429190610a09565b604051602081830303815290604052805190602001205f1c6103649190610a58565b5f1b604051602001610377929190610a8b565b60405160208183030381529060405280519060200120610619565b905090565b806103a0610622565b5f015f8473ffffffffffffffffffffffffffffffffffffffff1673ffffffffffffffffffffffffffffffffffffffff1681526020019081526020015f205f6101000a81548160ff0219169083151502179055507fd4c017fd7a44859527d3f9802413141ee31ba7dfd63781a4c7e4e0df7c772f64826040516104229190610948565b60405180910390a15050565b5f610437610622565b5f015f8373ffffffffffffffffffffffffffffffffffffffff1673ffffffffffffffffffffffffffffffffffffffff1681526020019081526020015f205f9054906101000a900460ff169050919050565b80610491610622565b6001015f857bffffffffffffffffffffffffffffffffffffffffffffffffffffffff19167bffffffffffffffffffffffffffffffffffffffffffffffffffffffff191681526020019081526020015f205f8473ffffffffffffffffffffffffffffffffffffffff1673ffffffffffffffffffffffffffffffffffffffff1681526020019081526020015f205f6101000a81548160ff0219169083151502179055507f7d81336073fc76b1a8f027dbeb6733b1b64e94bfc3c57f8e92eb3dc3b14d47528284604051610563929190610ac1565b60405180910390a1505050565b5f610579610622565b6001015f847bffffffffffffffffffffffffffffffffffffffffffffffffffffffff19167bffffffffffffffffffffffffffffffffffffffffffffffffffffffff191681526020019081526020015f205f8373ffffffffffffffffffffffffffffffffffffffff1673ffffffffffffffffffffffffffffffffffffffff1681526020019081526020015f205f9054906101000a900460ff16905092915050565b5f819050919050565b5f6107247fa7f11160000000000000000000000000000000000000000000000000000000007bffffffffffffffffffffffffffffffffffffffffffffffffffffffff1916600160405180604001604052600c8152806020017f4f70657261626c655265706f00000000000000000000000000000000000000008152506040516020016106ae91906109d1565b604051602081830303815290604052805190602001206040516020016106d49190610a09565b604051602081830303815290604052805190602001205f1c6106f69190610a58565b5f1b604051602001610709929190610a8b565b60405160208183030381529060405280519060200120610729565b905090565b5f819050919050565b5f5ffd5b5f73ffffffffffffffffffffffffffffffffffffffff82169050919050565b5f61075f82610736565b9050919050565b61076f81610755565b8114610779575f5ffd5b50565b5f8135905061078a81610766565b92915050565b5f8115159050919050565b6107a481610790565b81146107ae575f5ffd5b50565b5f813590506107bf8161079b565b92915050565b5f5f604083850312156107db576107da610732565b5b5f6107e88582860161077c565b92505060206107f9858286016107b1565b9150509250929050565b61080c81610790565b82525050565b5f6020820190506108255f830184610803565b92915050565b5f602082840312156108405761083f610732565b5b5f61084d8482850161077c565b91505092915050565b5f7fffffffff0000000000000000000000000000000000000000000000000000000082169050919050565b61088a81610856565b8114610894575f5ffd5b50565b5f813590506108a581610881565b92915050565b5f5f5f606084860312156108c2576108c1610732565b5b5f6108cf86828701610897565b93505060206108e08682870161077c565b92505060406108f1868287016107b1565b9150509250925092565b5f5f6040838503121561091157610910610732565b5b5f61091e85828601610897565b925050602061092f8582860161077c565b9150509250929050565b61094281610755565b82525050565b5f60208201905061095b5f830184610939565b92915050565b5f81519050919050565b5f82825260208201905092915050565b8281835e5f83830152505050565b5f601f19601f8301169050919050565b5f6109a382610961565b6109ad818561096b565b93506109bd81856020860161097b565b6109c681610989565b840191505092915050565b5f6020820190508181035f8301526109e98184610999565b905092915050565b5f819050919050565b610a03816109f1565b82525050565b5f602082019050610a1c5f8301846109fa565b92915050565b5f819050919050565b7f4e487b71000000000000000000000000000000000000000000000000000000005f52601160045260245ffd5b5f610a6282610a22565b9150610a6d83610a22565b9250828203905081811115610a8557610a84610a2b565b5b92915050565b5f604082019050610a9e5f8301856109fa565b610aab60208301846109fa565b9392505050565b610abb81610856565b82525050565b5f604082019050610ad45f830185610939565b610ae16020830184610ab2565b939250505056fea26469706673582212203fdfc43c9dc242634ff1f9afa6835a9aeafa10ec5e68596423ce502ca5cf046d64736f6c634300081c0033","linkReferences":{}},"methodIdentifiers":{"isOperator(address)":"6d70f7ae","isOperatorFor(bytes4,address)":"ea562a25","setOperator(address,bool)":"558a7297","setOperatorFor(bytes4,address,bool)":"755dbe7c"},"id":12}