{"abi":[{"type":"constructor","inputs":[{"name":"pkgInit","type":"tuple","internalType":"struct IBalancerV3GyroECLPPoolDFPkg.PkgInit","components":[{"name":"balancerV3VaultAwareFacet","type":"address","internalType":"contract IFacet"},{"name":"betterBalancerV3PoolTokenFacet","type":"address","internalType":"contract IFacet"},{"name":"defaultPoolInfoFacet","type":"address","internalType":"contract IFacet"},{"name":"balancerV3AuthenticationFacet","type":"address","internalType":"contract IFacet"},{"name":"balancerV3GyroECLPPoolFacet","type":"address","internalType":"contract IFacet"},{"name":"balancerV3Vault","type":"address","internalType":"contract IVault"},{"name":"diamondFactory","type":"address","internalType":"contract IDiamondPackageCallBackFactory"},{"name":"poolFeeManager","type":"address","internalType":"address"}]}],"stateMutability":"nonpayable"},{"type":"function","name":"BALANCER_V3_AUTHENTICATION_FACET","inputs":[],"outputs":[{"name":"","type":"address","internalType":"contract IFacet"}],"stateMutability":"view"},{"type":"function","name":"BALANCER_V3_GYRO_ECLP_POOL_FACET","inputs":[],"outputs":[{"name":"","type":"address","internalType":"contract IFacet"}],"stateMutability":"view"},{"type":"function","name":"BALANCER_V3_VAULT","inputs":[],"outputs":[{"name":"","type":"address","internalType":"contract IVault"}],"stateMutability":"view"},{"type":"function","name":"BALANCER_V3_VAULT_AWARE_FACET","inputs":[],"outputs":[{"name":"","type":"address","internalType":"contract IFacet"}],"stateMutability":"view"},{"type":"function","name":"BETTER_BALANCER_V3_POOL_TOKEN_FACET","inputs":[],"outputs":[{"name":"","type":"address","internalType":"contract IFacet"}],"stateMutability":"view"},{"type":"function","name":"DEFAULT_POOL_INFO_FACET","inputs":[],"outputs":[{"name":"","type":"address","internalType":"contract IFacet"}],"stateMutability":"view"},{"type":"function","name":"DIAMOND_PACKAGE_FACTORY","inputs":[],"outputs":[{"name":"","type":"address","internalType":"contract IDiamondPackageCallBackFactory"}],"stateMutability":"view"},{"type":"function","name":"calcSalt","inputs":[{"name":"pkgArgs","type":"bytes","internalType":"bytes"}],"outputs":[{"name":"salt","type":"bytes32","internalType":"bytes32"}],"stateMutability":"pure"},{"type":"function","name":"deployPool","inputs":[{"name":"tokenConfigs_","type":"tuple[]","internalType":"struct TokenConfig[]","components":[{"name":"token","type":"address","internalType":"contract IERC20"},{"name":"tokenType","type":"uint8","internalType":"enum TokenType"},{"name":"rateProvider","type":"address","internalType":"contract IRateProvider"},{"name":"paysYieldFees","type":"bool","internalType":"bool"}]},{"name":"eclpParams_","type":"tuple","internalType":"struct IGyroECLPPool.EclpParams","components":[{"name":"alpha","type":"int256","internalType":"int256"},{"name":"beta","type":"int256","internalType":"int256"},{"name":"c","type":"int256","internalType":"int256"},{"name":"s","type":"int256","internalType":"int256"},{"name":"lambda","type":"int256","internalType":"int256"}]},{"name":"derivedEclpParams_","type":"tuple","internalType":"struct IGyroECLPPool.DerivedEclpParams","components":[{"name":"tauAlpha","type":"tuple","internalType":"struct IGyroECLPPool.Vector2","components":[{"name":"x","type":"int256","internalType":"int256"},{"name":"y","type":"int256","internalType":"int256"}]},{"name":"tauBeta","type":"tuple","internalType":"struct IGyroECLPPool.Vector2","components":[{"name":"x","type":"int256","internalType":"int256"},{"name":"y","type":"int256","internalType":"int256"}]},{"name":"u","type":"int256","internalType":"int256"},{"name":"v","type":"int256","internalType":"int256"},{"name":"w","type":"int256","internalType":"int256"},{"name":"z","type":"int256","internalType":"int256"},{"name":"dSq","type":"int256","internalType":"int256"}]},{"name":"hooksContract","type":"address","internalType":"address"}],"outputs":[{"name":"vault","type":"address","internalType":"address"}],"stateMutability":"nonpayable"},{"type":"function","name":"diamondConfig","inputs":[],"outputs":[{"name":"config","type":"tuple","internalType":"struct IDiamondFactoryPackage.DiamondConfig","components":[{"name":"facetCuts","type":"tuple[]","internalType":"struct IDiamond.FacetCut[]","components":[{"name":"facetAddress","type":"address","internalType":"address"},{"name":"action","type":"uint8","internalType":"enum IDiamond.FacetCutAction"},{"name":"functionSelectors","type":"bytes4[]","internalType":"bytes4[]"}]},{"name":"interfaces","type":"bytes4[]","internalType":"bytes4[]"}]}],"stateMutability":"view"},{"type":"function","name":"disable","inputs":[],"outputs":[],"stateMutability":"nonpayable"},{"type":"function","name":"facetAddresses","inputs":[],"outputs":[{"name":"facetAddresses_","type":"address[]","internalType":"address[]"}],"stateMutability":"view"},{"type":"function","name":"facetCuts","inputs":[],"outputs":[{"name":"facetCuts_","type":"tuple[]","internalType":"struct IDiamond.FacetCut[]","components":[{"name":"facetAddress","type":"address","internalType":"address"},{"name":"action","type":"uint8","internalType":"enum IDiamond.FacetCutAction"},{"name":"functionSelectors","type":"bytes4[]","internalType":"bytes4[]"}]}],"stateMutability":"view"},{"type":"function","name":"facetInterfaces","inputs":[],"outputs":[{"name":"interfaces","type":"bytes4[]","internalType":"bytes4[]"}],"stateMutability":"pure"},{"type":"function","name":"getActionId","inputs":[{"name":"selector","type":"bytes4","internalType":"bytes4"}],"outputs":[{"name":"","type":"bytes32","internalType":"bytes32"}],"stateMutability":"view"},{"type":"function","name":"getDeploymentAddress","inputs":[{"name":"constructorArgs","type":"bytes","internalType":"bytes"},{"name":"","type":"bytes32","internalType":"bytes32"}],"outputs":[{"name":"","type":"address","internalType":"address"}],"stateMutability":"view"},{"type":"function","name":"getNewPoolPauseWindowEndTime","inputs":[],"outputs":[{"name":"","type":"uint32","internalType":"uint32"}],"stateMutability":"view"},{"type":"function","name":"getOriginalPauseWindowEndTime","inputs":[],"outputs":[{"name":"","type":"uint32","internalType":"uint32"}],"stateMutability":"view"},{"type":"function","name":"getPauseWindowDuration","inputs":[],"outputs":[{"name":"","type":"uint32","internalType":"uint32"}],"stateMutability":"view"},{"type":"function","name":"getPoolCount","inputs":[],"outputs":[{"name":"","type":"uint256","internalType":"uint256"}],"stateMutability":"view"},{"type":"function","name":"getPools","inputs":[],"outputs":[{"name":"","type":"address[]","internalType":"address[]"}],"stateMutability":"view"},{"type":"function","name":"getPoolsInRange","inputs":[{"name":"start","type":"uint256","internalType":"uint256"},{"name":"count","type":"uint256","internalType":"uint256"}],"outputs":[{"name":"","type":"address[]","internalType":"address[]"}],"stateMutability":"view"},{"type":"function","name":"initAccount","inputs":[{"name":"initArgs","type":"bytes","internalType":"bytes"}],"outputs":[],"stateMutability":"nonpayable"},{"type":"function","name":"isDisabled","inputs":[],"outputs":[{"name":"","type":"bool","internalType":"bool"}],"stateMutability":"view"},{"type":"function","name":"isPoolFromFactory","inputs":[{"name":"pool","type":"address","internalType":"address"}],"outputs":[{"name":"","type":"bool","internalType":"bool"}],"stateMutability":"view"},{"type":"function","name":"packageMetadata","inputs":[],"outputs":[{"name":"name_","type":"string","internalType":"string"},{"name":"interfaces","type":"bytes4[]","internalType":"bytes4[]"},{"name":"facets","type":"address[]","internalType":"address[]"}],"stateMutability":"view"},{"type":"function","name":"packageName","inputs":[],"outputs":[{"name":"name_","type":"string","internalType":"string"}],"stateMutability":"pure"},{"type":"function","name":"postDeploy","inputs":[{"name":"proxy","type":"address","internalType":"address"}],"outputs":[{"name":"","type":"bool","internalType":"bool"}],"stateMutability":"nonpayable"},{"type":"function","name":"processArgs","inputs":[{"name":"pkgArgs","type":"bytes","internalType":"bytes"}],"outputs":[{"name":"processedPkgArgs","type":"bytes","internalType":"bytes"}],"stateMutability":"pure"},{"type":"function","name":"tokenConfigs","inputs":[{"name":"pool","type":"address","internalType":"address"}],"outputs":[{"name":"","type":"tuple[]","internalType":"struct TokenConfig[]","components":[{"name":"token","type":"address","internalType":"contract IERC20"},{"name":"tokenType","type":"uint8","internalType":"enum TokenType"},{"name":"rateProvider","type":"address","internalType":"contract IRateProvider"},{"name":"paysYieldFees","type":"bool","internalType":"bool"}]}],"stateMutability":"view"},{"type":"function","name":"updatePkg","inputs":[{"name":"expectedProxy","type":"address","internalType":"address"},{"name":"pkgArgs","type":"bytes","internalType":"bytes"}],"outputs":[{"name":"","type":"bool","internalType":"bool"}],"stateMutability":"nonpayable"},{"type":"event","name":"FactoryDisabled","inputs":[],"anonymous":false},{"type":"event","name":"PoolCreated","inputs":[{"name":"pool","type":"address","indexed":true,"internalType":"address"}],"anonymous":false},{"type":"error","name":"DerivedDsqWrong","inputs":[]},{"type":"error","name":"DerivedTauAlphaNotNormalized","inputs":[]},{"type":"error","name":"DerivedTauAlphaYWrong","inputs":[]},{"type":"error","name":"DerivedTauBetaNotNormalized","inputs":[]},{"type":"error","name":"DerivedTauBetaYWrong","inputs":[]},{"type":"error","name":"DerivedTauXWrong","inputs":[]},{"type":"error","name":"DerivedUWrong","inputs":[]},{"type":"error","name":"DerivedVWrong","inputs":[]},{"type":"error","name":"DerivedWWrong","inputs":[]},{"type":"error","name":"DerivedZWrong","inputs":[]},{"type":"error","name":"Disabled","inputs":[]},{"type":"error","name":"IndexOutOfBounds","inputs":[]},{"type":"error","name":"IndexOutOfBounds","inputs":[{"name":"length","type":"uint256","internalType":"uint256"},{"name":"invalidIndex","type":"uint256","internalType":"uint256"},{"name":"errorCode","type":"uint256","internalType":"uint256"}]},{"type":"error","name":"InvalidECLPParams","inputs":[]},{"type":"error","name":"InvalidPageSize","inputs":[{"name":"start","type":"uint256","internalType":"uint256"},{"name":"end","type":"uint256","internalType":"uint256"}]},{"type":"error","name":"InvalidTokensLength","inputs":[{"name":"requiredLength","type":"uint256","internalType":"uint256"},{"name":"providedLength","type":"uint256","internalType":"uint256"}]},{"type":"error","name":"InvariantDenominatorWrong","inputs":[]},{"type":"error","name":"MulOverflow","inputs":[]},{"type":"error","name":"PoolPauseWindowDurationOverflow","inputs":[]},{"type":"error","name":"RotationVectorCWrong","inputs":[]},{"type":"error","name":"RotationVectorNotNormalized","inputs":[]},{"type":"error","name":"RotationVectorSWrong","inputs":[]},{"type":"error","name":"SenderNotAllowed","inputs":[]},{"type":"error","name":"StretchingFactorWrong","inputs":[]},{"type":"error","name":"StringTooLong","inputs":[{"name":"str","type":"string","internalType":"string"}]},{"type":"error","name":"ZeroDivision","inputs":[]}],"bytecode":{"object":"0x610160604052348015610010575f5ffd5b5060405161438f38038061438f83398101604081905261002f91610223565b60a0808201516001600160a01b03908116608090815260c0808501518316909352835182169092526020830151811660e090815260408401518216610100526060840151821661012052918301511661014052810151610094906301e13380906100d8565b604080513060208201526100c491016040516020818303038152906040528051906020012061010760201b60201c565b60a08101516100d290610133565b5061031f565b6101037f083b184f81c44d1555bdab2b99aeea4d11b107caca4883125bcb0b412d1f81328383610172565b5050565b6101307f82340927aad1ca6b5f8bb0037567f287e1bec629ab302d4e1debbc0d7543b1f8829055565b50565b6101307f392e49ca1983749c4549242b814e6592e6c2354a2bb55242596ce0ad2e7b100180546001600160a01b0319166001600160a01b038416179055565b5f61017d83426102f1565b905063ffffffff80821611156101a6576040516368755a1160e01b815260040160405180910390fd5b8354610100600160481b0319166501000000000063ffffffff9283160264ffffffff00191617610100939091169290920291909117600160481b600160e81b03191669010000000000000000006001600160a01b039290921691909102179055565b80516001600160a01b038116811461021e575f5ffd5b919050565b5f610100828403128015610235575f5ffd5b5060405161010081016001600160401b038111828210171561026557634e487b7160e01b5f52604160045260245ffd5b60405261027183610208565b815261027f60208401610208565b602082015261029060408401610208565b60408201526102a160608401610208565b60608201526102b260808401610208565b60808201526102c360a08401610208565b60a08201526102d460c08401610208565b60c08201526102e560e08401610208565b60e08201529392505050565b63ffffffff818116838216019081111561031957634e487b7160e01b5f52601160045260245ffd5b92915050565b60805160a05160c05160e051610100516101205161014051613fa86103e75f395f81816103e6015281816109800152818161143b015261148101525f81816104300152818161092c01528181611347015261138d01525f818161031a015281816108d801528181611253015261129901525f8181610341015281816108840152818161115f01526111a501525f81816102f3015281816108310152818161108101526110b201525f81816103b70152818161078f01526109e401525f61037d0152613fa85ff3fe608060405234801561000f575f5ffd5b5060043610610173575f3560e01c80631b69dc5f146101775780632ea80826146101a05780632f2770db146101b557806344f6fec7146101bf57806352ef6b2c146101df57806353a72f7e146101f457806363b50f971461020757806365d375b31461021a5780636634b7531461022f578063673a2a1f146102525780636c57f5a91461025a57806370068fcf1461026257806378da80cb14610275578063851c1bb314610292578063870d4838146102b357806387c3adb3146102c65780638eec5d70146102e657806390d8c705146102ee578063a2bebeb214610315578063a378544d1461033c578063a4b3ad3514610363578063a4c01bbb14610378578063a90892351461039f578063ab6046ed146103b2578063abc8b346146103d9578063c4444a90146103e1578063d82be56e14610408578063db035ebc1461041b578063e9d56e1914610423578063f07033251461042b578063f45469e714610452575b5f5ffd5b61018a610185366004612f29565b610469565b6040516101979190612fe7565b60405180910390f35b6101a861047a565b6040516101979190613033565b6101bd610731565b005b6101d26101cd36600461318f565b610776565b60405161019791906131d0565b6101e761080c565b604051610197919061321d565b6101e761020236600461322f565b6109d5565b6101d2610215366004613276565b6109e1565b610222610b2e565b60405161019791906133af565b61024261023d366004612f29565b610b69565b6040519015158152602001610197565b6101e7610b73565b610242610b82565b610242610270366004612f29565b610b8b565b61027d610c01565b60405163ffffffff9091168152602001610197565b6102a56102a03660046133fc565b610c0a565b604051908152602001610197565b6101bd6102c1366004613417565b610c14565b6102d96102d4366004613417565b610fce565b6040516101979190613476565b6102a561101d565b6101d27f000000000000000000000000000000000000000000000000000000000000000081565b6101d27f000000000000000000000000000000000000000000000000000000000000000081565b6101d27f000000000000000000000000000000000000000000000000000000000000000081565b61036b611026565b6040516101979190613488565b6101d27f000000000000000000000000000000000000000000000000000000000000000081565b6102426103ad36600461349a565b611525565b6101d27f000000000000000000000000000000000000000000000000000000000000000081565b6102d9611562565b6101d27f000000000000000000000000000000000000000000000000000000000000000081565b6102a5610416366004613417565b611597565b61027d611692565b61027d61169b565b6101d27f000000000000000000000000000000000000000000000000000000000000000081565b61045a6116a4565b604051610197939291906134e6565b6060610474826116cc565b92915050565b60408051600b808252610180820190925260609160208201610160803683370190505090506336372b0760e01b815f815181106104b9576104b961351e565b60200260200101906001600160e01b03191690816001600160e01b0319168152505063a219a02560e01b816001815181106104f6576104f661351e565b6001600160e01b0319909216602092830291909101909101528051634a17459160e11b908290600290811061052d5761052d61351e565b60200260200101906001600160e01b03191690816001600160e01b03191681525050634ec7fbed60e11b8160038151811061056a5761056a61351e565b60200260200101906001600160e01b03191690816001600160e01b031916815250506342580cb760e11b816004815181106105a7576105a761351e565b60200260200101906001600160e01b03191690816001600160e01b03191681525050634b12c34f60e01b816005815181106105e4576105e461351e565b60200260200101906001600160e01b03191690816001600160e01b0319168152505063e244eef560e01b816006815181106106215761062161351e565b60200260200101906001600160e01b03191690816001600160e01b03191681525050637e126dc760e11b8160078151811061065e5761065e61351e565b60200260200101906001600160e01b03191690816001600160e01b031916815250506355b60edd60e11b8160088151811061069b5761069b61351e565b60200260200101906001600160e01b03191690816001600160e01b0319168152505063914be08960e01b816009815181106106d8576106d861351e565b60200260200101906001600160e01b03191690816001600160e01b0319168152505063755994e960e01b81600a815181106107155761071561351e565b6001600160e01b03199092166020928302919091019091015290565b3061073b816116df565b610743611722565b61074b61174a565b6040517f432acbfd662dbb5d8b378384a67159b47ca9d0f1b79f97cf64cf8585fa362d50905f90a150565b60405163033a41d760e41b81525f906001600160a01b037f000000000000000000000000000000000000000000000000000000000000000016906333a41d70906107c69030908790600401613532565b602060405180830381865afa1580156107e1573d5f5f3e3d5ffd5b505050506040513d601f19601f820116820180604052508101906108059190613560565b9392505050565b60408051600580825260c082019092526060916020820160a0803683370190505090507f0000000000000000000000000000000000000000000000000000000000000000815f815181106108625761086261351e565b60200260200101906001600160a01b031690816001600160a01b0316815250507f0000000000000000000000000000000000000000000000000000000000000000816001815181106108b6576108b661351e565b60200260200101906001600160a01b031690816001600160a01b0316815250507f00000000000000000000000000000000000000000000000000000000000000008160028151811061090a5761090a61351e565b60200260200101906001600160a01b031690816001600160a01b0316815250507f00000000000000000000000000000000000000000000000000000000000000008160038151811061095e5761095e61351e565b60200260200101906001600160a01b031690816001600160a01b0316815250507f0000000000000000000000000000000000000000000000000000000000000000816004815181106109b2576109b261351e565b60200260200101906001600160a01b031690816001600160a01b03168152505090565b60606108058383611762565b5f7f00000000000000000000000000000000000000000000000000000000000000006001600160a01b031663e97fac053060405180608001604052808a8a808060200260200160405190810160405280939291908181526020015f905b82821015610a6a57610a5b60808302860136819003810190613594565b81526020019060010190610a3e565b5050509183525050602001610a84368a90038a018a6135fb565b8152602001610a9836899003890189613679565b81526001600160a01b038716602091820152604051610ab8929101613785565b6040516020818303038152906040526040518363ffffffff1660e01b8152600401610ae4929190613532565b6020604051808303815f875af1158015610b00573d5f5f3e3d5ffd5b505050506040513d601f19601f82011682018060405250810190610b249190613560565b9695505050505050565b60408051808201909152606080825260208201526040518060400160405280610b55611026565b8152602001610b6261047a565b9052919050565b5f61047482611776565b6060610b7d611788565b905090565b5f610b7d61179a565b5f610bf982610b99846116cc565b66b1a2bc2ec500005f610baa6117ad565b610bb3886117fa565b60408051608080820183525f8083526020808401829052838501829052606093840182905284519283018552818352820181905292810192909252600190820152611828565b506001919050565b5f610b7d6118af565b5f610474826118ca565b5f81806020019051810190610c299190613935565b9050610c3881602001516118dc565b610c4a81602001518260400151611a14565b8051515f906001600160401b03811115610c6657610c66613045565b604051908082528060200260200182016040528015610c8f578160200160208202803683370190505b5090505f5b825151811015610cef578251805182908110610cb257610cb261351e565b60200260200101515f0151828281518110610ccf57610ccf61351e565b6001600160a01b0390921660209283029190910190910152600101610c94565b505f610cfa82611d45565b9050610d23816040518060400160405280600381526020016210941560ea1b8152506012611e65565b610d4681604051806040016040528060018152602001603160f81b815250611e78565b610d70670853a0d2313c0000674563918244f4000064e8d4a51000670de0b6b3a764000086611e8a565b610f998360200151846040015181517f646300f37812ad2c74ca119166990b8cd14e10adb9cb18589e087b082ded4981556020808301517f646300f37812ad2c74ca119166990b8cd14e10adb9cb18589e087b082ded4982556040808401517f646300f37812ad2c74ca119166990b8cd14e10adb9cb18589e087b082ded4983556060808501517f646300f37812ad2c74ca119166990b8cd14e10adb9cb18589e087b082ded4984556080948501517f646300f37812ad2c74ca119166990b8cd14e10adb9cb18589e087b082ded498555835180517f646300f37812ad2c74ca119166990b8cd14e10adb9cb18589e087b082ded4986558301517f646300f37812ad2c74ca119166990b8cd14e10adb9cb18589e087b082ded4987558383015180517f646300f37812ad2c74ca119166990b8cd14e10adb9cb18589e087b082ded498855909201517f646300f37812ad2c74ca119166990b8cd14e10adb9cb18589e087b082ded4989558201517f646300f37812ad2c74ca119166990b8cd14e10adb9cb18589e087b082ded498a558101517f646300f37812ad2c74ca119166990b8cd14e10adb9cb18589e087b082ded498b55908101517f646300f37812ad2c74ca119166990b8cd14e10adb9cb18589e087b082ded498c5560a08101517f646300f37812ad2c74ca119166990b8cd14e10adb9cb18589e087b082ded498d5560c001517f646300f37812ad2c74ca119166990b8cd14e10adb9cb18589e087b082ded498e55565b610fc830604051602001610fad91906131d0565b60405160208183030381529060405280519060200120611ebf565b50505050565b60605f82806020019051810190610fe59190613935565b9050610ff3815f0151611ed2565b8152604051611006908290602001613785565b604051602081830303815290604052915050919050565b5f610b7d61200c565b60408051600580825260c08201909252606091816020015b60408051606080820183525f80835260208301529181019190915281526020019060019003908161103e5790505060408051606081019091526001600160a01b037f0000000000000000000000000000000000000000000000000000000000000000168152909150602081015f81526020017f00000000000000000000000000000000000000000000000000000000000000006001600160a01b031663574a4cff6040518163ffffffff1660e01b81526004015f60405180830381865afa15801561110b573d5f5f3e3d5ffd5b505050506040513d5f823e601f3d908101601f191682016040526111329190810190613a8d565b815250815f815181106111475761114761351e565b602002602001018190525060405180606001604052807f00000000000000000000000000000000000000000000000000000000000000006001600160a01b031681526020015f600281111561119e5761119e612f44565b81526020017f00000000000000000000000000000000000000000000000000000000000000006001600160a01b031663574a4cff6040518163ffffffff1660e01b81526004015f60405180830381865afa1580156111fe573d5f5f3e3d5ffd5b505050506040513d5f823e601f3d908101601f191682016040526112259190810190613a8d565b8152508160018151811061123b5761123b61351e565b602002602001018190525060405180606001604052807f00000000000000000000000000000000000000000000000000000000000000006001600160a01b031681526020015f600281111561129257611292612f44565b81526020017f00000000000000000000000000000000000000000000000000000000000000006001600160a01b031663574a4cff6040518163ffffffff1660e01b81526004015f60405180830381865afa1580156112f2573d5f5f3e3d5ffd5b505050506040513d5f823e601f3d908101601f191682016040526113199190810190613a8d565b8152508160028151811061132f5761132f61351e565b602002602001018190525060405180606001604052807f00000000000000000000000000000000000000000000000000000000000000006001600160a01b031681526020015f600281111561138657611386612f44565b81526020017f00000000000000000000000000000000000000000000000000000000000000006001600160a01b031663574a4cff6040518163ffffffff1660e01b81526004015f60405180830381865afa1580156113e6573d5f5f3e3d5ffd5b505050506040513d5f823e601f3d908101601f1916820160405261140d9190810190613a8d565b815250816003815181106114235761142361351e565b602002602001018190525060405180606001604052807f00000000000000000000000000000000000000000000000000000000000000006001600160a01b031681526020015f600281111561147a5761147a612f44565b81526020017f00000000000000000000000000000000000000000000000000000000000000006001600160a01b031663574a4cff6040518163ffffffff1660e01b81526004015f60405180830381865afa1580156114da573d5f5f3e3d5ffd5b505050506040513d5f823e601f3d908101601f191682016040526115019190810190613a8d565b815250816004815181106115175761151761351e565b602002602001018190525090565b5f5f8280602001905181019061153b9190613935565b905061154a84825f015161201d565b61155884826060015161202f565b5060019392505050565b60408051808201909152601b81527a42616c616e63657256334779726f45434c50506f6f6c4446506b6760281b602082015290565b5f5f828060200190518101906115ad9190613935565b805151909150600281146115e35760405163804c2b5160e01b815260026004820152602481018290526044015b60405180910390fd5b6020820151515f1215806116005750602080830151805191015113155b1561161e5760405163309b2fd760e01b815260040160405180910390fd5b61162b82602001516118dc565b61163d82602001518360400151611a14565b815161164890611ed2565b808352602080840151604080860151606087015191515f9561166e959094939101613b1c565b60408051601f19818403018152919052805160208201209091505b95945050505050565b5f610b7d61206e565b5f610b7d61207f565b60608060606116b1611562565b92506116bb61047a565b91506116c561080c565b9050909192565b60606104746116d961209c565b836120c0565b5f6116f45f356001600160e01b0319166118ca565b905061170181338461224d565b61171e576040516323dada5360e01b815260040160405180910390fd5b5050565b61172a61179a565b1561174857604051633ac4266d60e11b815260040160405180910390fd5b565b61174861175561209c565b805460ff19166001179055565b606061080561176f61209c565b8484612336565b5f61047461178261209c565b83612346565b6060610b7d61179561209c565b612354565b5f610b7d6117a661209c565b5460ff1690565b604080516060810182525f80825260208201819052918101829052906117d16123b8565b604080516060810182526001600160a01b03909216808352602083018190529082015292915050565b5f61047461180661209c565b6001600160a01b038085165f9081526007929092016020526040909120541690565b611831876123d8565b6118396123e9565b6001600160a01b031663eeec802f888888611852611692565b898989896040518963ffffffff1660e01b8152600401611879989796959493929190613b67565b5f604051808303815f87803b158015611890575f5ffd5b505af11580156118a2573d5f5f3e3d5ffd5b5050505050505050505050565b5f610b7d6118bb61209c565b54610100900463ffffffff1690565b5f6104746118d661241b565b8361243f565b80606001515f131580156118fc5750670de0b6b3a7640000816060015113155b61191957604051632a561e9d60e21b815260040160405180910390fd5b80604001515f131580156119395750670de0b6b3a7640000816040015113155b611956576040516332c31cd560e11b815260040160405180910390fd5b604080518082018252606083015181529082015160208201525f61197a8280612484565b9050806119916103e8670de0b6b3a7640000613c2c565b131580156119b257506119ae6103e8670de0b6b3a7640000613c52565b8113155b6119cf57604051635136c61760e11b815260040160405180910390fd5b82608001515f131580156119f257506a52b7d2dcc80cd2e4000000836080015113155b611a0f57604051633befd18960e11b815260040160405180910390fd5b505050565b8051602001515f12611a3957604051633b04cd8b60e21b815260040160405180910390fd5b5f81602001516020015113611a615760405163fa40768d60e01b815260040160405180910390fd5b80515160208201515113611a885760405163080e38b560e31b815260040160405180910390fd5b80515f90611a9690806124b7565b905080611abc69152d02c7e14af68000006b012ced32a16a1b11e826288960261b613c2c565b13158015611aec5750611ae869152d02c7e14af68000006b012ced32a16a1b11e826288960261b613c52565b8113155b611b09576040516360cb724b60e11b815260040160405180910390fd5b6020820151611b1890806124b7565b905080611b3e69152d02c7e14af68000006b012ced32a16a1b11e826288960261b613c2c565b13158015611b6e5750611b6a69152d02c7e14af68000006b012ced32a16a1b11e826288960261b613c52565b8113155b611b8b576040516304b77ae160e31b815260040160405180910390fd5b6b012ced32a16a1b11e826288960261b82604001511315611bbf57604051633e1352d160e21b815260040160405180910390fd5b6b012ced32a16a1b11e826288960261b82606001511315611bf35760405163cfb498d560e01b815260040160405180910390fd5b6b012ced32a16a1b11e826288960261b82608001511315611c27576040516341a2359b60e11b815260040160405180910390fd5b6b012ced32a16a1b11e826288960261b8260a001511315611c5b576040516312e3e41160e01b815260040160405180910390fd5b60c0820151611c8369152d02c7e14af68000006b012ced32a16a1b11e826288960261b613c2c565b13158015611cb75750611caf69152d02c7e14af68000006b012ced32a16a1b11e826288960261b613c52565b8260c0015113155b611cd457604051630fb154af60e41b815260040160405180910390fd5b5f611d126b012ced32a16a1b11e826288960261b611cf286866124e0565b611cfc9190613c2c565b6b012ced32a16a1b11e826288960261b906125e3565b90506c0e596b7b0c643c7196d9ccd05d602b1b811315610fc85760405163d1c1799360e01b815260040160405180910390fd5b6060815f81518110611d5957611d5961351e565b60200260200101516001600160a01b03166306fdde036040518163ffffffff1660e01b81526004015f60405180830381865afa158015611d9b573d5f5f3e3d5ffd5b505050506040513d5f823e601f3d908101601f19168201604052611dc29190810190613c71565b82600181518110611dd557611dd561351e565b60200260200101516001600160a01b03166306fdde036040518163ffffffff1660e01b81526004015f60405180830381865afa158015611e17573d5f5f3e3d5ffd5b505050506040513d5f823e601f3d908101601f19168201604052611e3e9190810190613c71565b604051602001611e4f929190613cfc565b6040516020818303038152906040529050919050565b611a0f611e70612628565b848484612673565b61171e611e836126aa565b83836126dd565b611eb87fad058ae2c4fd2dc635a6531cef09fdcc7264c09c1ee65b9e398137189754ce718686868686612744565b5050505050565b611ecf611eca61241b565b829055565b50565b60605f60015b8351811015612004575f9150815b818551611ef39190613d45565b811015611fee57848181518110611f0c57611f0c61351e565b60200260200101515f01516001600160a01b031685826001611f2e9190613d58565b81518110611f3e57611f3e61351e565b60200260200101515f01516001600160a01b03161015611fe6575f858281518110611f6b57611f6b61351e565b6020026020010151905085826001611f839190613d58565b81518110611f9357611f9361351e565b6020026020010151868381518110611fad57611fad61351e565b60209081029190910101528086611fc5846001613d58565b81518110611fd557611fd561351e565b602002602001018190525060019350505b600101611ee6565b5081611ffc57509192915050565b600101611ed8565b509192915050565b5f610b7d61201861209c565b612772565b61171e61202861209c565b838361277e565b61171e61203a61209c565b6001600160a01b038085165f908152600792909201602052604090912080546001600160a01b031916918416919091179055565b5f610b7d61207a61209c565b612996565b5f610b7d61208b61209c565b54600160281b900463ffffffff1690565b7f083b184f81c44d1555bdab2b99aeea4d11b107caca4883125bcb0b412d1f813290565b6001600160a01b0381165f908152600383016020526040902060010154606090806001600160401b038111156120f8576120f8613045565b60405190808252806020026020018201604052801561214857816020015b604080516080810182525f8082526020808301829052928201819052606082015282525f199092019101816121165790505b5091505f5b81811015612245576001600160a01b0384165f908152600386016020526040812061217890836129c3565b604080516080810182526001600160a01b038084168083529089165f90815260048b0160209081528482209282529182529290922054929350919082019060ff1660018111156121ca576121ca612f44565b81526001600160a01b038088165f81815260058b0160209081526040808320888616808552908352818420549095168287015292825260068c01815282822093825292909252908190205460ff16151591015284518590849081106122315761223161351e565b60209081029190910101525060010161214d565b505092915050565b5f6122566123e9565b6001600160a01b031663aaabadc56040518163ffffffff1660e01b8152600401602060405180830381865afa158015612291573d5f5f3e3d5ffd5b505050506040513d601f19601f820116820180604052508101906122b59190613560565b6040516326f8aa2160e21b8152600481018690526001600160a01b03858116602483015284811660448301529190911690639be2a88490606401602060405180830381865afa15801561230a573d5f5f3e3d5ffd5b505050506040513d601f19601f8201168201806040525081019061232e9190613d6b565b949350505050565b606061232e600185018484612a05565b5f6108056001840183612b13565b6060600282018054806020026020016040519081016040528092919081815260200182805480156123ac57602002820191905f5260205f20905b81546001600160a01b0316815260019091019060200180831161238e575b50505050509050919050565b5f610b7d6123c461209c565b54600160481b90046001600160a01b031690565b611ecf6123e361209c565b82612b30565b5f610b7d7f392e49ca1983749c4549242b814e6592e6c2354a2bb55242596ce0ad2e7b1001546001600160a01b031690565b7f82340927aad1ca6b5f8bb0037567f287e1bec629ab302d4e1debbc0d7543b1f890565b5f61080561244b845490565b6040805160208101929092526001600160e01b03198516908201526044015b604051602081830303815290604052805160209091012090565b5f6124a082602001518460200151612b3d90919063ffffffff16565b825184516124ad91612b3d565b6108059190613c52565b5f6124d382602001518460200151612b8f90919063ffffffff16565b825184516124ad91612b8f565b60c08101515f9081906124fd906124f78180612be8565b90612be8565b90506125306125258261251f8660600151876040015160026124f79190613d86565b906125e3565b608086015190612c03565b9150612570846080015161256a866080015161256a8561251f8960400151600161255a9190613c52565b60408b01516124f7906001613c52565b90612c03565b61257a9083613c52565b606084015190925061259290829061251f9080612be8565b61259c9083613c52565b91505f8360a001516125bf86608001518660800151612c8490919063ffffffff16565b6125c99190613c52565b90506125d98261251f8380612be8565b6116899084613c52565b5f815f0361260457604051630a0c22c760e01b815260040160405180910390fd5b8161261e6b012ced32a16a1b11e826288960261b85613d86565b6108059190613db5565b5f610b7d60405160200161265a906020808252600a908201526906569702e6572632e32360b41b604082015260600190565b6040516020818303038152906040528051906020012090565b8361267e8482613e63565b506001840161268d8382613e63565b50600293909301805460ff191660ff909416939093179092555050565b5f610b7d60405160200161265a906020808252600b908201526a32b4b81732b4b8171b989960a91b604082015260600190565b6126ea8260078501612d49565b60058401556126fc8160088501612d49565b600684015581516020808401919091206003850155815190820120600484015546600184015561272b83612d9f565b8355505060020180546001600160a01b03191630179055565b8486556001860184905560028601839055600386018290556127696004870182612df9565b50505050505050565b60028101545f90610474565b5f5b8151811015610fc8576127cb82828151811061279e5761279e61351e565b602090810291909101810151516001600160a01b0386165f90815260038801909252604090912090612e3a565b508181815181106127de576127de61351e565b602002602001015160400151846005015f856001600160a01b03166001600160a01b031681526020019081526020015f205f8484815181106128225761282261351e565b60200260200101515f01516001600160a01b03166001600160a01b031681526020019081526020015f205f6101000a8154816001600160a01b0302191690836001600160a01b031602179055508181815181106128815761288161351e565b602002602001015160200151846004015f856001600160a01b03166001600160a01b031681526020019081526020015f205f8484815181106128c5576128c561351e565b602090810291909101810151516001600160a01b031682528101919091526040015f20805460ff19166001838181111561290157612901612f44565b02179055508181815181106129185761291861351e565b602002602001015160600151846006015f856001600160a01b03166001600160a01b031681526020019081526020015f205f84848151811061295c5761295c61351e565b602090810291909101810151516001600160a01b031682528101919091526040015f20805460ff1916911515919091179055600101612780565b5f5f6129ae835463ffffffff600160281b9091041690565b90508063ffffffff164210610474575f610805565b60018201545f906129d49083612e96565b508260010182815481106129ea576129ea61351e565b5f918252602090912001546001600160a01b03169392505050565b606082821015612a325760405163dc78128f60e01b815260048101849052602481018390526044016115da565b5f612a3e856001015490565b9050612a4a8185612e96565b50612a558184612e96565b505f612a618585613d45565b612a6c906001613d58565b9050806001600160401b03811115612a8657612a86613045565b604051908082528060200260200182016040528015612aaf578160200160208202803683370190505b5092505f855b858111612b0857612ac688826129c3565b858381518110612ad857612ad861351e565b6001600160a01b039092166020928302919091019091015260019091019080612b0081613f1d565b915050612ab5565b505050509392505050565b6001600160a01b03165f9081526020919091526040902054151590565b611a0f6001830182612e3a565b5f80612b498385613d86565b9050831580612b60575082612b5e8583613db5565b145b612b7d5760405163066f361360e11b815260040160405180910390fd5b61232e670de0b6b3a764000082613db5565b5f80612b9b8385613d86565b9050831580612bb2575082612bb08583613db5565b145b612bcf5760405163066f361360e11b815260040160405180910390fd5b61232e6b012ced32a16a1b11e826288960261b82613db5565b5f6b012ced32a16a1b11e826288960261b61261e8385613d86565b5f80612c0f8385613d86565b90505f811315612c4a57670de0b6b3a7640000612c2d600183613c2c565b612c379190613db5565b612c42906001613c52565b915050610474565b5f811215612c7b576001670de0b6b3a7640000612c678383613c52565b612c719190613db5565b612c429190613c2c565b505f9392505050565b5f815f03612ca557604051630a0c22c760e01b815260040160405180910390fd5b825f03612cb357505f610474565b5f821215612cd257612cc482613f35565b9150612ccf83613f35565b92505b5f831315612d1557816001612cef670de0b6b3a764000086613d86565b612cf99190613c2c565b612d039190613db5565b612d0e906001613c52565b9050610474565b600182612d2a670de0b6b3a764000086613d86565b612d35906001613c52565b612d3f9190613db5565b6108059190613c2c565b5f602083511015612d5d57612d0e83612ec8565b825160018160011b178355825f5260205f20602085015f5b83811015612d915781810151600582901c840155602001612d75565b5060ff935061047492505050565b60038101546004820154604080517f8b73c3c69bb8fe3d512ecc4cf759cc79239f7b179b0ffacaa9a75d522b39400f60208201529081019290925260608201524660808201523060a08201525f906104749060c00161246a565b5f805b825181101561155857612e31838281518110612e1a57612e1a61351e565b602002602001015185612e3a90919063ffffffff16565b50600101612dfc565b5f612e458383612b13565b612e8d576001838101805491820181555f818152602080822090930180546001600160a01b0319166001600160a01b0387169081179091559154918152918590526040909120555b50600192915050565b5f818311612e8d57604051635400feb960e01b81526004810184905260248101839052603260448201526064016115da565b5f5f829050601f81511115612ef2578260405163305a27a960e01b81526004016115da9190613476565b8051612efd82613f4f565b179392505050565b6001600160a01b0381168114611ecf575f5ffd5b8035612f2481612f05565b919050565b5f60208284031215612f39575f5ffd5b813561080581612f05565b634e487b7160e01b5f52602160045260245ffd5b80516001600160a01b0316825260208101515f9060028110612f7c57612f7c612f44565b6020840152506040818101516001600160a01b03169083015260609081015115159082015260800190565b5f8151808452602084019350602083015f5b82811015612fdd57612fcc868351612f58565b955060209190910190600101612fb9565b5093949350505050565b602081525f6108056020830184612fa7565b5f8151808452602084019350602083015f5b82811015612fdd5781516001600160e01b03191686526020958601959091019060010161300b565b602081525f6108056020830184612ff9565b634e487b7160e01b5f52604160045260245ffd5b604051608081016001600160401b038111828210171561307b5761307b613045565b60405290565b60405160a081016001600160401b038111828210171561307b5761307b613045565b604080519081016001600160401b038111828210171561307b5761307b613045565b60405160e081016001600160401b038111828210171561307b5761307b613045565b604051601f8201601f191681016001600160401b038111828210171561310f5761310f613045565b604052919050565b5f6001600160401b0382111561312f5761312f613045565b50601f01601f191660200190565b5f82601f83011261314c575f5ffd5b813561315f61315a82613117565b6130e7565b818152846020838601011115613173575f5ffd5b816020850160208301375f918101602001919091529392505050565b5f5f604083850312156131a0575f5ffd5b82356001600160401b038111156131b5575f5ffd5b6131c18582860161313d565b95602094909401359450505050565b6001600160a01b0391909116815260200190565b5f8151808452602084019350602083015f5b82811015612fdd5781516001600160a01b03168652602095860195909101906001016131f6565b602081525f61080560208301846131e4565b5f5f60408385031215613240575f5ffd5b50508035926020909101359150565b5f60a0828403121561325f575f5ffd5b50919050565b5f610120828403121561325f575f5ffd5b5f5f5f5f5f610200868803121561328b575f5ffd5b85356001600160401b038111156132a0575f5ffd5b8601601f810188136132b0575f5ffd5b80356001600160401b038111156132c5575f5ffd5b8860208260071b84010111156132d9575f5ffd5b6020918201965094506132ef908890880161324f565b92506132fe8760c08801613265565b915061330d6101e08701612f19565b90509295509295909350565b5f82825180855260208501945060208160051b830101602085015f5b838110156133a357848303601f19018852815180516001600160a01b0316845260208101516003811061336a5761336a612f44565b80602086015250604081015190506060604085015261338c6060850182612ff9565b6020998a0199909450929092019150600101613335565b50909695505050505050565b602081525f8251604060208401526133ca6060840182613319565b90506020840151601f198483030160408501526116898282612ff9565b6001600160e01b031981168114611ecf575f5ffd5b5f6020828403121561340c575f5ffd5b8135610805816133e7565b5f60208284031215613427575f5ffd5b81356001600160401b0381111561343c575f5ffd5b61232e8482850161313d565b5f81518084528060208401602086015e5f602082860101526020601f19601f83011685010191505092915050565b602081525f6108056020830184613448565b602081525f6108056020830184613319565b5f5f604083850312156134ab575f5ffd5b82356134b681612f05565b915060208301356001600160401b038111156134d0575f5ffd5b6134dc8582860161313d565b9150509250929050565b606081525f6134f86060830186613448565b828103602084015261350a8186612ff9565b90508281036040840152610b2481856131e4565b634e487b7160e01b5f52603260045260245ffd5b6001600160a01b03831681526040602082018190525f9061232e90830184613448565b8051612f2481612f05565b5f60208284031215613570575f5ffd5b815161080581612f05565b60028110611ecf575f5ffd5b8015158114611ecf575f5ffd5b5f60808284031280156135a5575f5ffd5b506135ae613059565b82356135b981612f05565b815260208301356135c98161357b565b602082015260408301356135dc81612f05565b604082015260608301356135ef81613587565b60608201529392505050565b5f60a082840312801561360c575f5ffd5b50613615613081565b823581526020808401359082015260408084013590820152606080840135908201526080928301359281019290925250919050565b5f6040828403121561365a575f5ffd5b6136626130a3565b823581526020928301359281019290925250919050565b5f61012082840312801561368b575f5ffd5b506136946130c5565b61369e848461364a565b81526136ad846040850161364a565b6020820152608083810135604083015260a080850135606084015260c0808601359284019290925260e085013590830152610100909301359281019290925250919050565b80518252602081015160208301526040810151604083015260608101516060830152608081015160808301525050565b61373782825180518252602090810151910152565b602081810151805160408501529081015160608401525060408101516080830152606081015160a0830152608081015160c083015260a081015160e083015260c08101516101008301525050565b6020808252825161020083830152805161022084018190525f92919091019082906102408501905b808310156137d3576137c0828551612f58565b91506020840193506001830192506137ad565b50602086015192506137e860408601846136f2565b604086015192506137fc60e0860184613722565b606095909501516001600160a01b03166102009490940193909352509192915050565b5f6001600160401b0382111561383757613837613045565b5060051b60200190565b5f60a08284031215613851575f5ffd5b613859613081565b825181526020808401519082015260408084015190820152606080840151908201526080928301519281019290925250919050565b5f6040828403121561389e575f5ffd5b6138a66130a3565b825181526020928301519281019290925250919050565b5f61012082840312156138ce575f5ffd5b6138d66130c5565b90506138e2838361388e565b81526138f1836040840161388e565b6020820152608082810151604083015260a080840151606084015260c0808501519284019290925260e0840151908301526101009092015191810191909152919050565b5f60208284031215613945575f5ffd5b81516001600160401b0381111561395a575f5ffd5b8201610200818503121561396c575f5ffd5b613974613059565b81516001600160401b03811115613989575f5ffd5b8201601f81018613613999575f5ffd5b80516139a761315a8261381f565b8082825260208201915060208360071b8501019250888311156139c8575f5ffd5b6020840193505b82841015613a48576080848a0312156139e6575f5ffd5b6139ee613059565b84516139f981612f05565b81526020850151613a098161357b565b60208201526040850151613a1c81612f05565b60408201526060850151613a2f81613587565b60608201528252608093909301926020909101906139cf565b80855250505050613a5c8560208401613841565b6020820152613a6e8560c084016138bd565b6040820152613a806101e08301613555565b6060820152949350505050565b5f60208284031215613a9d575f5ffd5b81516001600160401b03811115613ab2575f5ffd5b8201601f81018413613ac2575f5ffd5b8051613ad061315a8261381f565b8082825260208201915060208360051b850101925086831115613af1575f5ffd5b6020840193505b82841015610b24578351613b0b816133e7565b825260209384019390910190613af8565b61020081525f613b30610200830187612fa7565b9050613b3f60208301866136f2565b613b4c60c0830185613722565b6001600160a01b03929092166101e091909101529392505050565b6001600160a01b03891681526101a0602082018190525f90613b8b9083018a612fa7565b60408381018a905263ffffffff89166060850152871515608085015286516001600160a01b0390811660a08601526020880151811660c086015290870151811660e085015285166101008401529050825115156101208301526020830151151561014083015260408301511515610160830152606083015115156101808301529998505050505050505050565b634e487b7160e01b5f52601160045260245ffd5b8181035f831280158383131683831282161715613c4b57613c4b613c18565b5092915050565b8082018281125f83128015821682158216171561224557612245613c18565b5f60208284031215613c81575f5ffd5b81516001600160401b03811115613c96575f5ffd5b8201601f81018413613ca6575f5ffd5b8051613cb461315a82613117565b818152856020838501011115613cc8575f5ffd5b8160208401602083015e5f91810160200191909152949350505050565b5f81518060208401855e5f93019283525090919050565b6b084ac668a8698a040decc40560a31b81525f613d1c600c830185613ce5565b6201017960ed1b8152613d326003820185613ce5565b602960f81b815260010195945050505050565b8181038181111561047457610474613c18565b8082018082111561047457610474613c18565b5f60208284031215613d7b575f5ffd5b815161080581613587565b8082025f8212600160ff1b84141615613da157613da1613c18565b818105831482151761047457610474613c18565b5f82613dcf57634e487b7160e01b5f52601260045260245ffd5b600160ff1b82145f1984141615613de857613de8613c18565b500590565b600181811c90821680613e0157607f821691505b60208210810361325f57634e487b7160e01b5f52602260045260245ffd5b601f821115611a0f57805f5260205f20601f840160051c81016020851015613e445750805b601f840160051c820191505b81811015611eb8575f8155600101613e50565b81516001600160401b03811115613e7c57613e7c613045565b613e9081613e8a8454613ded565b84613e1f565b6020601f821160018114613ec2575f8315613eab5750848201515b5f19600385901b1c1916600184901b178455611eb8565b5f84815260208120601f198516915b82811015613ef15787850151825560209485019460019092019101613ed1565b5084821015613f0e57868401515f19600387901b60f8161c191681555b50505050600190811b01905550565b5f60018201613f2e57613f2e613c18565b5060010190565b5f600160ff1b8201613f4957613f49613c18565b505f0390565b8051602080830151919081101561325f575f1960209190910360031b1b1691905056fea2646970667358221220226b90b3dff2ae975014598efef7dac66ac93d57ed7f1d59bff71e8634d9c16964736f6c634300081e0033","linkReferences":{}},"methodIdentifiers":{"BALANCER_V3_AUTHENTICATION_FACET()":"f0703325","BALANCER_V3_GYRO_ECLP_POOL_FACET()":"c4444a90","BALANCER_V3_VAULT()":"a4c01bbb","BALANCER_V3_VAULT_AWARE_FACET()":"90d8c705","BETTER_BALANCER_V3_POOL_TOKEN_FACET()":"a378544d","DEFAULT_POOL_INFO_FACET()":"a2bebeb2","DIAMOND_PACKAGE_FACTORY()":"ab6046ed","calcSalt(bytes)":"d82be56e","deployPool((address,uint8,address,bool)[],(int256,int256,int256,int256,int256),((int256,int256),(int256,int256),int256,int256,int256,int256,int256),address)":"63b50f97","diamondConfig()":"65d375b3","disable()":"2f2770db","facetAddresses()":"52ef6b2c","facetCuts()":"a4b3ad35","facetInterfaces()":"2ea80826","getActionId(bytes4)":"851c1bb3","getDeploymentAddress(bytes,bytes32)":"44f6fec7","getNewPoolPauseWindowEndTime()":"db035ebc","getOriginalPauseWindowEndTime()":"e9d56e19","getPauseWindowDuration()":"78da80cb","getPoolCount()":"8eec5d70","getPools()":"673a2a1f","getPoolsInRange(uint256,uint256)":"53a72f7e","initAccount(bytes)":"870d4838","isDisabled()":"6c57f5a9","isPoolFromFactory(address)":"6634b753","packageMetadata()":"f45469e7","packageName()":"abc8b346","postDeploy(address)":"70068fcf","processArgs(bytes)":"87c3adb3","tokenConfigs(address)":"1b69dc5f","updatePkg(address,bytes)":"a9089235"},"id":869}