{"abi":[{"type":"constructor","inputs":[{"name":"protocolFeeSweeper","type":"address","internalType":"contract IProtocolFeeSweeper"},{"name":"initialOwner","type":"address","internalType":"address"}],"stateMutability":"nonpayable"},{"type":"function","name":"acceptOwnership","inputs":[],"outputs":[],"stateMutability":"nonpayable"},{"type":"function","name":"cancelOwnershipHandover","inputs":[],"outputs":[],"stateMutability":"payable"},{"type":"function","name":"completeOwnershipHandover","inputs":[{"name":"pendingOwner","type":"address","internalType":"address"}],"outputs":[],"stateMutability":"payable"},{"type":"function","name":"manualOnlyFeeRecipientOrOwner","inputs":[],"outputs":[],"stateMutability":"nonpayable"},{"type":"function","name":"manualOnlyProtocolFeeSweeper","inputs":[],"outputs":[],"stateMutability":"nonpayable"},{"type":"function","name":"owner","inputs":[],"outputs":[{"name":"","type":"address","internalType":"address"}],"stateMutability":"view"},{"type":"function","name":"ownershipHandoverExpiresAt","inputs":[{"name":"pendingOwner","type":"address","internalType":"address"}],"outputs":[{"name":"result","type":"uint256","internalType":"uint256"}],"stateMutability":"view"},{"type":"function","name":"pendingOwner","inputs":[],"outputs":[{"name":"","type":"address","internalType":"address"}],"stateMutability":"view"},{"type":"function","name":"protocolFeeSweeper","inputs":[],"outputs":[{"name":"","type":"address","internalType":"contract IProtocolFeeSweeper"}],"stateMutability":"view"},{"type":"function","name":"renounceOwnership","inputs":[],"outputs":[],"stateMutability":"payable"},{"type":"function","name":"requestOwnershipHandover","inputs":[],"outputs":[],"stateMutability":"payable"},{"type":"function","name":"transferOwnership","inputs":[{"name":"newOwner","type":"address","internalType":"address"}],"outputs":[],"stateMutability":"payable"},{"type":"event","name":"OwnershipHandoverCanceled","inputs":[{"name":"pendingOwner","type":"address","indexed":true,"internalType":"address"}],"anonymous":false},{"type":"event","name":"OwnershipHandoverRequested","inputs":[{"name":"pendingOwner","type":"address","indexed":true,"internalType":"address"}],"anonymous":false},{"type":"event","name":"OwnershipTransferStarted","inputs":[{"name":"previousOwner","type":"address","indexed":true,"internalType":"address"},{"name":"newOwner","type":"address","indexed":true,"internalType":"address"}],"anonymous":false},{"type":"event","name":"OwnershipTransferred","inputs":[{"name":"oldOwner","type":"address","indexed":true,"internalType":"address"},{"name":"newOwner","type":"address","indexed":true,"internalType":"address"}],"anonymous":false},{"type":"error","name":"AlreadyInitialized","inputs":[]},{"type":"error","name":"InvalidProtocolFeeSweeper","inputs":[]},{"type":"error","name":"NewOwnerIsZeroAddress","inputs":[]},{"type":"error","name":"NoHandoverRequest","inputs":[]},{"type":"error","name":"OwnableInvalidOwner","inputs":[{"name":"owner","type":"address","internalType":"address"}]},{"type":"error","name":"OwnableUnauthorizedAccount","inputs":[{"name":"account","type":"address","internalType":"address"}]},{"type":"error","name":"SenderNotAllowed","inputs":[]},{"type":"error","name":"Unauthorized","inputs":[]}],"bytecode":{"object":"0x60a060405234801561000f575f5ffd5b5060405161070338038061070383398101604081905261002e916100f4565b8181806001600160a01b03811661005e57604051631e4fbdf760e01b81525f600482015260240160405180910390fd5b610067816100a4565b506001600160a01b03821661008f5760405163932c92a560e01b815260040160405180910390fd5b506001600160a01b03166080525061012c9050565b6001600160a01b0316638b78c6d819819055805f7f8be0079c531659141344cd1fd0a4f28419497f9722a3daafe3b4186f6b6457e08180a35b50565b6001600160a01b03811681146100dd575f5ffd5b5f5f60408385031215610105575f5ffd5b8251610110816100e0565b6020840151909250610121816100e0565b809150509250929050565b6080516105b26101515f395f818160ab015281816102c401526103b101526105b25ff3fe608060405260043610610096575f3560e01c8063178ac96e1461009a57806325692962146100e357806354d1f13d146100ed578063715018a6146100f557806379ba5097146100fd5780638da5cb5b146101115780638ec2083314610125578063e30c397814610139578063f04e283e1461014d578063f2fde38b14610160578063f405ce4414610173578063fee81cf414610187575b5f5ffd5b3480156100a5575f5ffd5b506100cd7f000000000000000000000000000000000000000000000000000000000000000081565b6040516100da9190610517565b60405180910390f35b6100eb6101c6565b005b6100eb610212565b6100eb61024b565b348015610108575f5ffd5b506100eb61025e565b34801561011c575f5ffd5b506100cd6102a6565b348015610130575f5ffd5b506100eb6102b9565b348015610144575f5ffd5b506100cd610302565b6100eb61015b36600461053f565b610310565b6100eb61016e36600461053f565b61034a565b34801561017e575f5ffd5b506100eb6103af565b348015610192575f5ffd5b506101b86101a136600461053f565b63389a75e1600c9081525f91909152602090205490565b6040519081526020016100da565b5f6202a3006001600160401b03164201905063389a75e1600c52335f52806020600c2055337fdbf36a107da19e49527a7176a1babf963b4b0ff8cde35ee35d6cd8f1f9ac7e1d5f5fa250565b63389a75e1600c52335f525f6020600c2055337ffa7b8eab7da67f412cc9575ed43464468f9bfbae89d1675917346ca6d8fe3c925f5fa2565b610253610487565b61025c5f6104c2565b565b3380610268610302565b6001600160a01b03161461029a578060405163118cdaa760e01b81526004016102919190610517565b60405180910390fd5b6102a3816104ff565b50565b5f6102b4638b78c6d8195490565b905090565b336001600160a01b037f0000000000000000000000000000000000000000000000000000000000000000161461025c576040516323dada5360e01b815260040160405180910390fd5b5f546001600160a01b031690565b610318610487565b63389a75e1600c52805f526020600c20805442111561033e57636f5e88185f526004601cfd5b5f90556102a3816104c2565b610352610487565b5f80546001600160a01b0319166001600160a01b0383169081179091556103776102a6565b6001600160a01b03167f38d16b8cac22d99fc7c124b9cd0de2d3fa1faef420bfe791d8c362d765e2270060405160405180910390a350565b7f00000000000000000000000000000000000000000000000000000000000000006001600160a01b0316634ccb20c06040518163ffffffff1660e01b8152600401602060405180830381865afa15801561040b573d5f5f3e3d5ffd5b505050506040513d601f19601f8201168201806040525081019061042f9190610561565b6001600160a01b0316336001600160a01b03161415801561046957506104536102a6565b6001600160a01b0316336001600160a01b031614155b1561025c576040516323dada5360e01b815260040160405180910390fd5b61048f6102a6565b6001600160a01b0316336001600160a01b03161461025c573360405163118cdaa760e01b81526004016102919190610517565b638b78c6d81980546001600160a01b039092169182907f8be0079c531659141344cd1fd0a4f28419497f9722a3daafe3b4186f6b6457e05f80a355565b5f80546001600160a01b03191690556102a3816104c2565b6001600160a01b0391909116815260200190565b6001600160a01b03811681146102a3575f5ffd5b5f6020828403121561054f575f5ffd5b813561055a8161052b565b9392505050565b5f60208284031215610571575f5ffd5b815161055a8161052b56fea264697066735822122002458244606dd9b2447ca254ecdfaaae3e3192bf2708637e821e6b24548318ee64736f6c634300081e0033","linkReferences":{}},"methodIdentifiers":{"acceptOwnership()":"79ba5097","cancelOwnershipHandover()":"54d1f13d","completeOwnershipHandover(address)":"f04e283e","manualOnlyFeeRecipientOrOwner()":"f405ce44","manualOnlyProtocolFeeSweeper()":"8ec20833","owner()":"8da5cb5b","ownershipHandoverExpiresAt(address)":"fee81cf4","pendingOwner()":"e30c3978","protocolFeeSweeper()":"178ac96e","renounceOwnership()":"715018a6","requestOwnershipHandover()":"25692962","transferOwnership(address)":"f2fde38b"},"id":318}