{"abi":[{"type":"function","name":"computeBalance","inputs":[{"name":"","type":"uint256[]","internalType":"uint256[]"},{"name":"","type":"uint256","internalType":"uint256"},{"name":"","type":"uint256","internalType":"uint256"}],"outputs":[{"name":"","type":"uint256","internalType":"uint256"}],"stateMutability":"pure"},{"type":"function","name":"computeInvariant","inputs":[{"name":"balancesLiveScaled18","type":"uint256[]","internalType":"uint256[]"},{"name":"rounding","type":"uint8","internalType":"enum Rounding"}],"outputs":[{"name":"invariant","type":"uint256","internalType":"uint256"}],"stateMutability":"view"},{"type":"function","name":"facetFuncs","inputs":[],"outputs":[{"name":"funcs","type":"bytes4[]","internalType":"bytes4[]"}],"stateMutability":"pure"},{"type":"function","name":"facetInterfaces","inputs":[],"outputs":[{"name":"interfaces","type":"bytes4[]","internalType":"bytes4[]"}],"stateMutability":"pure"},{"type":"function","name":"facetMetadata","inputs":[],"outputs":[{"name":"name_","type":"string","internalType":"string"},{"name":"interfaces","type":"bytes4[]","internalType":"bytes4[]"},{"name":"functions","type":"bytes4[]","internalType":"bytes4[]"}],"stateMutability":"pure"},{"type":"function","name":"facetName","inputs":[],"outputs":[{"name":"name","type":"string","internalType":"string"}],"stateMutability":"pure"},{"type":"function","name":"getGradualWeightUpdateParams","inputs":[],"outputs":[{"name":"startTime","type":"uint256","internalType":"uint256"},{"name":"endTime","type":"uint256","internalType":"uint256"},{"name":"startWeights","type":"uint256[]","internalType":"uint256[]"},{"name":"endWeights","type":"uint256[]","internalType":"uint256[]"}],"stateMutability":"view"},{"type":"function","name":"getNormalizedWeights","inputs":[],"outputs":[{"name":"weights","type":"uint256[]","internalType":"uint256[]"}],"stateMutability":"view"},{"type":"function","name":"getTokenIndices","inputs":[],"outputs":[{"name":"projectTokenIndex","type":"uint256","internalType":"uint256"},{"name":"reserveTokenIndex","type":"uint256","internalType":"uint256"}],"stateMutability":"view"},{"type":"function","name":"isProjectTokenSwapInBlocked","inputs":[],"outputs":[{"name":"","type":"bool","internalType":"bool"}],"stateMutability":"view"},{"type":"function","name":"isSwapEnabled","inputs":[],"outputs":[{"name":"","type":"bool","internalType":"bool"}],"stateMutability":"view"},{"type":"function","name":"onSwap","inputs":[{"name":"params","type":"tuple","internalType":"struct PoolSwapParams","components":[{"name":"kind","type":"uint8","internalType":"enum SwapKind"},{"name":"amountGivenScaled18","type":"uint256","internalType":"uint256"},{"name":"balancesScaled18","type":"uint256[]","internalType":"uint256[]"},{"name":"indexIn","type":"uint256","internalType":"uint256"},{"name":"indexOut","type":"uint256","internalType":"uint256"},{"name":"router","type":"address","internalType":"address"},{"name":"userData","type":"bytes","internalType":"bytes"}]}],"outputs":[{"name":"amountCalculatedScaled18","type":"uint256","internalType":"uint256"}],"stateMutability":"view"},{"type":"error","name":"BaseOutOfBounds","inputs":[]},{"type":"error","name":"ExponentOutOfBounds","inputs":[]},{"type":"error","name":"InsufficientRealReserveBalance","inputs":[{"name":"requested","type":"uint256","internalType":"uint256"},{"name":"available","type":"uint256","internalType":"uint256"}]},{"type":"error","name":"InvalidExponent","inputs":[]},{"type":"error","name":"MaxInRatio","inputs":[]},{"type":"error","name":"MaxOutRatio","inputs":[]},{"type":"error","name":"ProductOutOfBounds","inputs":[]},{"type":"error","name":"SwapOfProjectTokenIn","inputs":[]},{"type":"error","name":"SwapsDisabled","inputs":[]},{"type":"error","name":"ZeroDivision","inputs":[]},{"type":"error","name":"ZeroInvariant","inputs":[]}],"bytecode":{"object":"0x6080604052348015600e575f5ffd5b50611e058061001c5f395ff3fe608060405234801561000f575f5ffd5b50600436106100a2575f3560e01c806316a0b3e0146100a65780632ea80826146100cc578063351a964d146100e1578063574a4cff146100f95780635b6f4d011461010157806372c98186146101165780637beed2201461012957806395146efb14610141578063984de9e814610149578063ae3ecc641461015c578063f10d7a7514610179578063f89f27ed14610190575b5f5ffd5b6100b96100b4366004611a95565b6101a5565b6040519081526020015b60405180910390f35b6100d46101f1565b6040516100c39190611b22565b6100e9610284565b60405190151581526020016100c3565b6100d4610292565b610109610451565b6040516100c39190611b62565b6100b9610124366004611b74565b610480565b6101316106b4565b6040516100c39493929190611bda565b6100e96106cf565b6100b9610157366004611c24565b6106d8565b6101646107e3565b604080519283526020830191909152016100c3565b6101816107fd565b6040516100c393929190611c72565b610198610825565b6040516100c39190611caa565b60405162461bcd60e51b815260206004820152601a6024820152792621281d103ab739bab83837b93a32b21037b832b930ba34b7b760311b60448201525f906064015b60405180910390fd5b6040805160028082526060808301845292602083019080368337019050509050637e126dc760e11b815f8151811061022b5761022b611cbc565b60200260200101906001600160e01b03191690816001600160e01b03191681525050638d41c11f60e01b8160018151811061026857610268611cbc565b6001600160e01b03199092166020928302919091019091015290565b5f61028d61082f565b905090565b6040805160088082526101208201909252606091602082016101008036833701905050905063984de9e860e01b815f815181106102d1576102d1611cbc565b6001600160e01b031990921660209283029190910190910152805162b5059f60e51b908290600190811061030757610307611cbc565b6001600160e01b0319909216602092830291909101909101528051633964c0c360e11b908290600290811061033e5761033e611cbc565b6001600160e01b031990921660209283029190910190910152805163f89f27ed60e01b908290600390811061037557610375611cbc565b6001600160e01b03199092166020928302919091019091015280516303df769160e51b90829060049081106103ac576103ac611cbc565b6001600160e01b031990921660209283029190910190910152805163351a964d60e01b90829060059081106103e3576103e3611cbc565b6001600160e01b0319909216602092830291909101909101528051632b8fb31960e21b908290600690811061041a5761041a611cbc565b6001600160e01b03199092166020928302919091019091015280516395146efb60e01b908290600790811061026857610268611cbc565b60408051808201909152601581527410985b185b98d95c958cd310941bdbdb119858d95d605a1b602082015290565b5f61048961082f565b6104a65760405163fdf7984560e01b815260040160405180910390fd5b5f6104af610840565b90506104b9610850565b80156104c9575080836080013514155b156104e757604051630934a1c560e11b815260040160405180910390fd5b5f6104f0610866565b90505f6104fb61092e565b90505f610506610941565b90505f6105166040880188611cd0565b886060013581811061052a5761052a611cbc565b9050602002013590505f8780604001906105449190611cd0565b896080013581811061055857610558611cbc565b9050602002013590505f84111561059957828860600135036105815761057e8483611d30565b91505b82886080013503610599576105968482611d30565b90505b5f858960600135815181106105b0576105b0611cbc565b602002602001015190505f868a60800135815181106105d1576105d1611cbc565b602002602001015190505f60018111156105ed576105ed611d43565b6105fa60208c018c611d57565b600181111561060b5761060b611d43565b0361062857610621848385848e60200135610954565b985061063c565b610639848385848e602001356109e3565b98505b5f8611801561064e5750848a60800135145b156106a7575f61066160408c018c611cd0565b8781811061067157610671611cbc565b905060200201359050808a11156106a557604051633715344960e01b8152600481018b9052602481018290526044016101e8565b505b5050505050505050919050565b5f5f6060806106c1610a66565b935093509350935090919293565b5f61028d610850565b5f5f6106e2610866565b90505f6106ed61092e565b905080156107a4575f6106fe610941565b90505f86828151811061071357610713611cbc565b602002602001015190508287838151811061073057610730611cbc565b602002602001018181516107449190611d30565b905250600186600181111561075b5761075b611d43565b036107715761076a8488610a7b565b945061077e565b61077b8488610b0f565b94505b8087838151811061079157610791611cbc565b60200260200101818152505050506107db565b60018460018111156107b8576107b8611d43565b036107ce576107c78286610a7b565b92506107db565b6107d88286610b0f565b92505b505092915050565b5f5f6107ed610840565b91506107f7610941565b90509091565b606080606061080a610451565b92506108146101f1565b915061081e610292565b9050909192565b606061028d610866565b5f61028d61083b610b7c565b610ba0565b5f61028d61084c610b7c565b5490565b5f61028d61085c610b7c565b6008015460ff1690565b60605f610871610bbb565b90505f61087c610bce565b90505f610887610840565b90505f610892610941565b90505f6108af6108a0610be1565b6108a8610bf4565b8787610c07565b90505f6108c482670de0b6b3a7640000611d72565b6040805160028082526060820183529293509190602083019080368337019050509650818785815181106108fa576108fa611cbc565b6020026020010181815250508087848151811061091957610919611cbc565b60200260200101818152505050505050505090565b5f61028d61093a610b7c565b6009015490565b5f61028d61094d610b7c565b6001015490565b5f61096786670429d069189e0000610c2a565b8211156109875760405163340a453360e01b815260040160405180910390fd5b5f6109928388611d30565b90505f61099f8883610c52565b90505f6109ac8887610c6d565b90505f6109b98383610c8d565b90506109d5670de0b6b3a7640000828103908310028990610c2a565b9a9950505050505050505050565b5f6109f684670429d069189e0000610c2a565b821115610a16576040516364590b9f60e01b815260040160405180910390fd5b5f610a2b610a248487611d72565b8690610c52565b90505f610a388588610c52565b90505f610a458383610c8d565b90505f610a5a670de0b6b3a764000083611d72565b90506109d58a82610d40565b5f5f6060806106c1610a76610b7c565b610d6c565b670de0b6b3a76400005f5b8351811015610ae857610ade610ad7858381518110610aa757610aa7611cbc565b6020026020010151858481518110610ac157610ac1611cbc565b6020026020010151610e5d90919063ffffffff16565b8390610c2a565b9150600101610a86565b50805f03610b0957604051632654368960e01b815260040160405180910390fd5b92915050565b670de0b6b3a76400005f5b8351811015610ae857610b72610b6b858381518110610b3b57610b3b611cbc565b6020026020010151858481518110610b5557610b55611cbc565b6020026020010151610c8d90919063ffffffff16565b8390610d40565b9150600101610b1a565b7fd53c3e2fdabe48bf711f58c7df0c133f4da87092dfb6b9b0387c9021e3acd3ff90565b5f81600601544210158015610b095750506007015442111590565b5f61028d610bc7610b7c565b6006015490565b5f61028d610bda610b7c565b6007015490565b5f61028d610bed610b7c565b6002015490565b5f61028d610c00610b7c565b6003015490565b5f5f610c138484610f09565b9050610c20868683610f3f565b9695505050505050565b5f80610c368385611d85565b9050610c4a670de0b6b3a764000082611db0565b949350505050565b5f610c6683670de0b6b3a764000084610fa8565b9392505050565b5f80610c81670de0b6b3a764000085611d85565b9050610c4a8382611db0565b5f670de0b6b3a76400008203610ca4575081610b09565b610cb7670de0b6b3a76400006002611d85565b8203610cce57610cc78384610d40565b9050610b09565b610ce1670de0b6b3a76400006004611d85565b8203610d06575f610cf28485610d40565b9050610cfe8182610d40565b915050610b09565b5f610d118484610fed565b90505f610d2082612710610d40565b610d2b906001611d30565b9050610d378183611d30565b92505050610b09565b5f80610d4c8385611d85565b90506001670de0b6b3a76400006001830304018115150291505092915050565b60068101546007820154604080516002808252606080830184529283929190602083019080368337019050509150846002015482865f015481518110610db457610db4611cbc565b602002602001018181525050846004015482866001015481518110610ddb57610ddb611cbc565b60209081029190910101526040805160028082526060820190925290816020016020820280368337019050509050846003015481865f015481518110610e2357610e23611cbc565b602002602001018181525050846005015481866001015481518110610e4a57610e4a611cbc565b6020026020010181815250509193509193565b5f670de0b6b3a76400008203610e74575081610b09565b610e87670de0b6b3a76400006002611d85565b8203610e9757610cc78384610c2a565b610eaa670de0b6b3a76400006004611d85565b8203610ec7575f610ebb8485610c2a565b9050610cfe8182610c2a565b5f610ed28484610fed565b90505f610ee182612710610d40565b610eec906001611d30565b905080821015610f00575f92505050610b09565b90039050610b09565b5f814210610f205750670de0b6b3a7640000610b09565b824211610f2e57505f610b09565b828203428490036107d88183610c6d565b5f670de0b6b3a764000082101580610f5657508284145b15610f62575081610c66565b815f03610f70575082610c66565b82841115610f90575f610f8583858703610c2a565b85039150610c669050565b5f610f9d83868603610c2a565b85019150610c669050565b5f815f03610fc957604051630a0c22c760e01b815260040160405180910390fd5b5f610fd48486611d85565b9050600183600183030401811515029150509392505050565b5f815f036110045750670de0b6b3a7640000610b09565b825f0361101257505f610b09565b60ff83901c15611034576040516211380f60e51b815260040160405180910390fd5b8261104c68056bc75e2d63100000600160fe1b611db0565b831061106b5760405163d831731160e01b815260040160405180910390fd5b825f670c7d713b49da00008313801561108b5750670f43fc2c04ee000083125b156110c1575f61109a84611123565b9050670de0b6b3a764000080820784020583670de0b6b3a7640000830502019150506110cf565b816110cb84611240565b0290505b670de0b6b3a76400009005680238fd42c5cf03ffff1981128015906110fd575068070c1cc73b00c800008113155b61111a5760405163a2f9f7e360e01b815260040160405180910390fd5b610c20816115ea565b670de0b6b3a7640000025f806a0c097ce7bc90715b34b9f160241b808401906ec097ce7bc90715b34b9f0fffffffff198501028161116357611163611d9c565b0590505f6a0c097ce7bc90715b34b9f160241b82800205905081806a0c097ce7bc90715b34b9f160241b81840205915060038205016a0c097ce7bc90715b34b9f160241b82840205915060058205016a0c097ce7bc90715b34b9f160241b82840205915060078205016a0c097ce7bc90715b34b9f160241b82840205915060098205016a0c097ce7bc90715b34b9f160241b828402059150600b8205016a0c097ce7bc90715b34b9f160241b828402059150600d8205016a0c097ce7bc90715b34b9f160241b828402059150600f82050160020295945050505050565b5f80670de0b6b3a764000083121561127757826a0c097ce7bc90715b34b9f160241b8161126f5761126f611d9c565b059250600190505b5f775803bcc5cb9634ba4cfb2213f784019318ed4dcb6017880f60361b84126112c15772195e54c5dd42177f53a27172fa9ec63026282760241b840593506806f05b59d3b2000000015b6f8bcc0026baae9e45e470190267a230cf60191b84126112f8576b1425982cf597cd205cef7380840593506803782dace9d9000000015b606493840293026e01855144814a7ff805980ff00840008412611340576e01855144814a7ff805980ff008400068056bc75e2d63100000850205935068ad78ebc5ac62000000015b6b02df0ab5a80a22c61ab5a700841261137b576b02df0ab5a80a22c61ab5a70068056bc75e2d6310000085020593506856bc75e2d631000000015b693f1fce3da636ea5cf85084126113b257693f1fce3da636ea5cf85068056bc75e2d631000008502059350682b5e3af16b18800000015b690127fa27722cc06cc5e284126113e957690127fa27722cc06cc5e268056bc75e2d6310000085020593506815af1d78b58c400000015b68280e60114edb805d03841261141e5768280e60114edb805d0368056bc75e2d631000008502059350680ad78ebc5ac6200000015b680ebc5fb41746121110841261144957680ebc5fb4174612111068056bc75e2d631000009485020593015b6808f00f760a4b2db55d841261147e576808f00f760a4b2db55d68056bc75e2d6310000085020593506802b5e3af16b1880000015b6806f5f177578893793784126114b3576806f5f177578893793768056bc75e2d63100000850205935068015af1d78b58c40000015b6806248f33704b28660384126114e7576806248f33704b28660368056bc75e2d63100000850205935067ad78ebc5ac620000015b6805c548670b9510e7ac841261151b576805c548670b9510e7ac68056bc75e2d6310000085020593506756bc75e2d6310000015b5f68056bc75e2d63100000850168056bc75e2d63100000808703028161154357611543611d9c565b0590505f68056bc75e2d63100000828002059050818068056bc75e2d63100000818402059150600382050168056bc75e2d63100000828402059150600582050168056bc75e2d63100000828402059150600782050168056bc75e2d63100000828402059150600982050168056bc75e2d63100000828402059150600b8205016002025f6064868301059050866115d957806115dd565b805f035b9998505050505050505050565b5f680238fd42c5cf03ffff19821215801561160e575068070c1cc73b00c800008213155b61162b5760405163d4794efd60e01b815260040160405180910390fd5b5f8083121561163e57825f039250600190505b5f6806f05b59d3b2000000841261167b57506806f05b59d3b1ffffff199092019172195e54c5dd42177f53a27172fa9ec63026282760241b6116b1565b6803782dace9d900000084126116ad57506803782dace9d8ffffff19909201916b1425982cf597cd205cef73806116b1565b5060015b6064939093029268056bc75e2d6310000068ad78ebc5ac6200000085126117015768ad78ebc5ac61ffffff199094019368056bc75e2d631000006e01855144814a7ff805980ff008400082020590505b6856bc75e2d631000000851261173d576856bc75e2d630ffffff199094019368056bc75e2d631000006b02df0ab5a80a22c61ab5a70082020590505b682b5e3af16b18800000851261177757682b5e3af16b187fffff199094019368056bc75e2d63100000693f1fce3da636ea5cf85082020590505b6815af1d78b58c40000085126117b1576815af1d78b58c3fffff199094019368056bc75e2d63100000690127fa27722cc06cc5e282020590505b680ad78ebc5ac620000085126117ea57680ad78ebc5ac61fffff199094019368056bc75e2d6310000068280e60114edb805d0382020590505b68056bc75e2d6310000085126118235768056bc75e2d630fffff199094019368056bc75e2d63100000680ebc5fb4174612111082020590505b6802b5e3af16b1880000851261185c576802b5e3af16b187ffff199094019368056bc75e2d631000006808f00f760a4b2db55d82020590505b68015af1d78b58c4000085126118955768015af1d78b58c3ffff199094019368056bc75e2d631000006806f5f177578893793782020590505b68056bc75e2d631000008581019086906002908280020505918201919050600368056bc75e2d631000008883020505918201919050600468056bc75e2d631000008883020505918201919050600568056bc75e2d631000008883020505918201919050600668056bc75e2d631000008883020505918201919050600768056bc75e2d631000008883020505918201919050600868056bc75e2d631000008883020505918201919050600968056bc75e2d631000008883020505918201919050600a68056bc75e2d631000008883020505918201919050600b68056bc75e2d631000008883020505918201919050600c68056bc75e2d6310000088830205059182019190505f606468056bc75e2d63100000858502058602059050856119ba57806119d9565b806a0c097ce7bc90715b34b9f160241b816119d7576119d7611d9c565b055b98975050505050505050565b634e487b7160e01b5f52604160045260245ffd5b5f82601f830112611a08575f5ffd5b81356001600160401b03811115611a2157611a216119e5565b604051600582901b90603f8201601f191681016001600160401b0381118282101715611a4f57611a4f6119e5565b604052918252602081850181019290810186841115611a6c575f5ffd5b6020860192505b83831015611a8b578235815260209283019201611a73565b5095945050505050565b5f5f5f60608486031215611aa7575f5ffd5b83356001600160401b03811115611abc575f5ffd5b611ac8868287016119f9565b9660208601359650604090950135949350505050565b5f8151808452602084019350602083015f5b82811015611b185781516001600160e01b031916865260209586019590910190600101611af0565b5093949350505050565b602081525f610c666020830184611ade565b5f81518084528060208401602086015e5f602082860101526020601f19601f83011685010191505092915050565b602081525f610c666020830184611b34565b5f60208284031215611b84575f5ffd5b81356001600160401b03811115611b99575f5ffd5b820160e08185031215610c66575f5ffd5b5f8151808452602084019350602083015f5b82811015611b18578151865260209586019590910190600101611bbc565b848152836020820152608060408201525f611bf86080830185611baa565b8281036060840152611c0a8185611baa565b979650505050505050565b60028110611c21575f5ffd5b50565b5f5f60408385031215611c35575f5ffd5b82356001600160401b03811115611c4a575f5ffd5b611c56858286016119f9565b9250506020830135611c6781611c15565b809150509250929050565b606081525f611c846060830186611b34565b8281036020840152611c968186611ade565b90508281036040840152610c208185611ade565b602081525f610c666020830184611baa565b634e487b7160e01b5f52603260045260245ffd5b5f5f8335601e19843603018112611ce5575f5ffd5b8301803591506001600160401b03821115611cfe575f5ffd5b6020019150600581901b3603821315611d15575f5ffd5b9250929050565b634e487b7160e01b5f52601160045260245ffd5b80820180821115610b0957610b09611d1c565b634e487b7160e01b5f52602160045260245ffd5b5f60208284031215611d67575f5ffd5b8135610c6681611c15565b81810381811115610b0957610b09611d1c565b8082028115828204841417610b0957610b09611d1c565b634e487b7160e01b5f52601260045260245ffd5b5f82611dca57634e487b7160e01b5f52601260045260245ffd5b50049056fea264697066735822122083d65ba933750979dcf29882f2c41d72f144ce6babc9c9a35853f434ccc2994364736f6c634300081e0033","linkReferences":{}},"methodIdentifiers":{"computeBalance(uint256[],uint256,uint256)":"16a0b3e0","computeInvariant(uint256[],uint8)":"984de9e8","facetFuncs()":"574a4cff","facetInterfaces()":"2ea80826","facetMetadata()":"f10d7a75","facetName()":"5b6f4d01","getGradualWeightUpdateParams()":"7beed220","getNormalizedWeights()":"f89f27ed","getTokenIndices()":"ae3ecc64","isProjectTokenSwapInBlocked()":"95146efb","isSwapEnabled()":"351a964d","onSwap((uint8,uint256,uint256[],uint256,uint256,address,bytes))":"72c98186"},"id":888}