{"abi":[{"type":"function","name":"approve","inputs":[{"name":"to","type":"address","internalType":"address"},{"name":"tokenId","type":"uint256","internalType":"uint256"}],"outputs":[],"stateMutability":"payable"},{"type":"function","name":"balanceOf","inputs":[{"name":"owner","type":"address","internalType":"address"}],"outputs":[{"name":"","type":"uint256","internalType":"uint256"}],"stateMutability":"view"},{"type":"function","name":"burn","inputs":[{"name":"tokenId","type":"uint256","internalType":"uint256"}],"outputs":[],"stateMutability":"nonpayable"},{"type":"function","name":"burn","inputs":[{"name":"owner","type":"address","internalType":"address"},{"name":"tokenId","type":"uint256","internalType":"uint256"}],"outputs":[],"stateMutability":"nonpayable"},{"type":"function","name":"getApproved","inputs":[{"name":"tokenId","type":"uint256","internalType":"uint256"}],"outputs":[{"name":"","type":"address","internalType":"address"}],"stateMutability":"view"},{"type":"function","name":"isApprovedForAll","inputs":[{"name":"owner","type":"address","internalType":"address"},{"name":"operator","type":"address","internalType":"address"}],"outputs":[{"name":"","type":"bool","internalType":"bool"}],"stateMutability":"view"},{"type":"function","name":"mint","inputs":[{"name":"to","type":"address","internalType":"address"}],"outputs":[{"name":"tokenId","type":"uint256","internalType":"uint256"}],"stateMutability":"nonpayable"},{"type":"function","name":"ownerOf","inputs":[{"name":"tokenId","type":"uint256","internalType":"uint256"}],"outputs":[{"name":"","type":"address","internalType":"address"}],"stateMutability":"view"},{"type":"function","name":"safeTransferFrom","inputs":[{"name":"from","type":"address","internalType":"address"},{"name":"to","type":"address","internalType":"address"},{"name":"tokenId","type":"uint256","internalType":"uint256"}],"outputs":[],"stateMutability":"payable"},{"type":"function","name":"safeTransferFrom","inputs":[{"name":"from","type":"address","internalType":"address"},{"name":"to","type":"address","internalType":"address"},{"name":"tokenId","type":"uint256","internalType":"uint256"},{"name":"data","type":"bytes","internalType":"bytes"}],"outputs":[],"stateMutability":"payable"},{"type":"function","name":"setApprovalForAll","inputs":[{"name":"operator","type":"address","internalType":"address"},{"name":"approved","type":"bool","internalType":"bool"}],"outputs":[],"stateMutability":"nonpayable"},{"type":"function","name":"transferFrom","inputs":[{"name":"from","type":"address","internalType":"address"},{"name":"to","type":"address","internalType":"address"},{"name":"tokenId","type":"uint256","internalType":"uint256"}],"outputs":[],"stateMutability":"payable"},{"type":"event","name":"Approval","inputs":[{"name":"owner","type":"address","indexed":true,"internalType":"address"},{"name":"account","type":"address","indexed":true,"internalType":"address"},{"name":"id","type":"uint256","indexed":true,"internalType":"uint256"}],"anonymous":false},{"type":"event","name":"ApprovalForAll","inputs":[{"name":"owner","type":"address","indexed":true,"internalType":"address"},{"name":"operator","type":"address","indexed":true,"internalType":"address"},{"name":"isApproved","type":"bool","indexed":false,"internalType":"bool"}],"anonymous":false},{"type":"event","name":"Transfer","inputs":[{"name":"from","type":"address","indexed":true,"internalType":"address"},{"name":"to","type":"address","indexed":true,"internalType":"address"},{"name":"id","type":"uint256","indexed":true,"internalType":"uint256"}],"anonymous":false},{"type":"error","name":"ERC721IncorrectOwner","inputs":[{"name":"sender","type":"address","internalType":"address"},{"name":"tokenId","type":"uint256","internalType":"uint256"},{"name":"owner","type":"address","internalType":"address"}]},{"type":"error","name":"ERC721InsufficientApproval","inputs":[{"name":"operator","type":"address","internalType":"address"},{"name":"tokenId","type":"uint256","internalType":"uint256"}]},{"type":"error","name":"ERC721InvalidOperator","inputs":[{"name":"operator","type":"address","internalType":"address"}]},{"type":"error","name":"ERC721InvalidOwner","inputs":[{"name":"owner","type":"address","internalType":"address"}]},{"type":"error","name":"ERC721InvalidReceiver","inputs":[{"name":"receiver","type":"address","internalType":"address"}]},{"type":"error","name":"ERC721NonexistentToken","inputs":[{"name":"tokenId","type":"uint256","internalType":"uint256"}]}],"bytecode":{"object":"0x6080604052348015600e575f5ffd5b50610fa38061001c5f395ff3fe608060405260043610610096575f3560e01c8063081812fc1461009a578063095ea7b3146100cf57806323b872dd146100e457806342842e0e146100f757806342966c681461010a5780636352211e146101295780636a6278421461014857806370a08231146101755780639dc29fac14610194578063a22cb465146101b3578063b88d4fde146101d2578063e985e9c5146101e5575b5f5ffd5b3480156100a5575f5ffd5b506100b96100b4366004610c43565b610214565b6040516100c69190610c5a565b60405180910390f35b6100e26100dd366004610c89565b610224565b005b6100e26100f2366004610cb1565b610232565b6100e2610105366004610cb1565b610242565b348015610115575f5ffd5b506100e2610124366004610c43565b61024d565b348015610134575f5ffd5b506100b9610143366004610c43565b610259565b348015610153575f5ffd5b50610167610162366004610ceb565b610263565b6040519081526020016100c6565b348015610180575f5ffd5b5061016761018f366004610ceb565b61026d565b34801561019f575f5ffd5b506100e26101ae366004610c89565b610277565b3480156101be575f5ffd5b506100e26101cd366004610d04565b610281565b6100e26101e0366004610d3d565b61028b565b3480156101f0575f5ffd5b506102046101ff366004610dd0565b6102d3565b60405190151581526020016100c6565b5f61021e826102e5565b92915050565b61022e828261030f565b5050565b61023d838383610321565b505050565b61023d838383610334565b61025681610356565b50565b5f61021e82610367565b5f61021e82610379565b5f61021e8261038b565b61022e82826103b6565b61022e82826103c8565b6102cc85858585858080601f0160208091040260200160405190810160405280939291908181526020018383808284375f920191909152506103da92505050565b5050505050565b5f6102de83836103f4565b9392505050565b5f61021e6102f1610430565b5f84815260069190910160205260409020546001600160a01b031690565b61022e61031a610430565b8383610481565b61023d61032c610430565b84848461054d565b61023d61033f610430565b84848460405180602001604052805f815250610750565b610256610361610430565b8261082c565b5f61021e610373610430565b83610850565b5f61021e610385610430565b8361086e565b5f61021e610397610430565b836001600160a01b03165f908152600591909101602052604090205490565b61022e6103c1610430565b838361092d565b61022e6103d3610430565b8383610a73565b6103ee6103e5610430565b85858585610750565b50505050565b5f6102de610400610430565b6001600160a01b038086165f90815260079290920160209081526040808420928716845291905290205460ff1690565b5f61047c604051602001610463906020808252600b908201526a6569702e6572632e37323160a81b604082015260600190565b6040516020818303038152906040528051906020012090565b905090565b6001600160a01b0382166104b35781604051630b61174360e31b81526004016104aa9190610c5a565b60405180910390fd5b5f6104be8483610850565b90506001600160a01b03811633146104ef573382826040516364283d7b60e01b81526004016104aa93929190610e01565b5f82815260068501602052604080822080546001600160a01b0319166001600160a01b0387811691821790925591518593918516917f8c5be1e5ebec7d5bd14f71427d1e84f3dd0314c0f7b2291e5b200ac8c7c3b92591a450505050565b6001600160a01b03831661057657826040516322718ad960e21b81526004016104aa9190610c5a565b6001600160a01b03821661059f57816040516322718ad960e21b81526004016104aa9190610c5a565b6105ac6001850182610b0a565b6105cc57604051637e27328960e01b8152600481018290526024016104aa565b5f8181526004850160205260409020546001600160a01b03908116908416811461060f578382826040516364283d7b60e01b81526004016104aa93929190610e01565b6001600160a01b038416331480159061064057505f8281526006860160205260409020546001600160a01b03163314155b801561067157506001600160a01b0384165f908152600786016020908152604080832033845290915290205460ff16155b1561069357338260405163177e802f60e01b81526004016104aa929190610e24565b5f828152600686016020908152604080832080546001600160a01b031990811690915560048901835281842080546001600160a01b0389811691909316179055871683526005880190915281208054916106ec83610e51565b90915550506001600160a01b0383165f908152600586016020526040812080549161071683610e66565b919050555081836001600160a01b0316856001600160a01b03165f516020610f4e5f395f51905f5260405160405180910390a45050505050565b6001600160a01b0383163b1561082057604051630a85bd0160e11b81526001600160a01b0384169063150b7a0290610792903390889087908790600401610e7e565b6020604051808303815f875af19250505080156107cc575060408051601f3d908101601f191682019092526107c991810190610ed8565b60015b6107eb5782604051633250574960e11b81526004016104aa9190610c5a565b6001600160e01b03198116630a85bd0160e11b1461081e5783604051633250574960e11b81526004016104aa9190610c5a565b505b6102cc8585858561054d565b5f8181526004830160205260409020546001600160a01b031661023d83828461092d565b5f90815260049190910160205260409020546001600160a01b031690565b5f6001600160a01b03821661089857816040516322718ad960e21b81526004016104aa9190610c5a565b8254835f6108a583610e66565b9091555090506108b86001840182610b1e565b505f818152600484016020908152604080832080546001600160a01b0319166001600160a01b03871690811790915583526005860190915281208054916108fe83610e66565b909155505060405181906001600160a01b038416905f905f516020610f4e5f395f51905f52908290a492915050565b61093a6001840182610b0a565b61095a57604051637e27328960e01b8152600481018290526024016104aa565b6001600160a01b038216331480159061098b57505f8181526006840160205260409020546001600160a01b03163314155b80156109bc57506001600160a01b0382165f908152600784016020908152604080832033845290915290205460ff16155b156109de57338160405163177e802f60e01b81526004016104aa929190610e24565b5f818152600484016020908152604080832080546001600160a01b03199081169091556006870190925290912080549091169055610a1f6001840182610b73565b506001600160a01b0382165f9081526005840160205260408120805491610a4583610e51565b909155505060405181905f906001600160a01b038516905f516020610f4e5f395f51905f52908390a4505050565b6001600160a01b038216610a9c5781604051630b61174360e31b81526004016104aa9190610c5a565b335f81815260078501602090815260408083206001600160a01b03871680855290835292819020805460ff191686151590811790915590519081529192917f17307eab39ab6107e8899845ad3d59bd9653f200f220920489ca2b5937696c31910160405180910390a3505050565b5f9081526020919091526040902054151590565b5f610b298383610b0a565b610b6a576001808401805491820181555f818152602080822090930185905590548482529185905260409020556002830154821115610b6a57600283018290555b50600192915050565b5f818152602083905260408120548015610c39575f610b93600183610eff565b600180870180549293505f929091610baa91610eff565b81548110610bba57610bba610f12565b905f5260205f200154905080866001018381548110610bdb57610bdb610f12565b5f91825260209091200155610bf1826001610f26565b5f8281526020889052604090205560018601805480610c1257610c12610f39565b5f828152602080822083015f19908101839055909201909255868252879052604081205550505b5060019392505050565b5f60208284031215610c53575f5ffd5b5035919050565b6001600160a01b0391909116815260200190565b80356001600160a01b0381168114610c84575f5ffd5b919050565b5f5f60408385031215610c9a575f5ffd5b610ca383610c6e565b946020939093013593505050565b5f5f5f60608486031215610cc3575f5ffd5b610ccc84610c6e565b9250610cda60208501610c6e565b929592945050506040919091013590565b5f60208284031215610cfb575f5ffd5b6102de82610c6e565b5f5f60408385031215610d15575f5ffd5b610d1e83610c6e565b915060208301358015158114610d32575f5ffd5b809150509250929050565b5f5f5f5f5f60808688031215610d51575f5ffd5b610d5a86610c6e565b9450610d6860208701610c6e565b93506040860135925060608601356001600160401b03811115610d89575f5ffd5b8601601f81018813610d99575f5ffd5b80356001600160401b03811115610dae575f5ffd5b886020828401011115610dbf575f5ffd5b959894975092955050506020019190565b5f5f60408385031215610de1575f5ffd5b610dea83610c6e565b9150610df860208401610c6e565b90509250929050565b6001600160a01b0393841681526020810192909252909116604082015260600190565b6001600160a01b03929092168252602082015260400190565b634e487b7160e01b5f52601160045260245ffd5b5f81610e5f57610e5f610e3d565b505f190190565b5f60018201610e7757610e77610e3d565b5060010190565b60018060a01b038516815260018060a01b0384166020820152826040820152608060608201525f8251806080840152806020850160a085015e5f60a0828501015260a0601f19601f83011684010191505095945050505050565b5f60208284031215610ee8575f5ffd5b81516001600160e01b0319811681146102de575f5ffd5b8181038181111561021e5761021e610e3d565b634e487b7160e01b5f52603260045260245ffd5b8082018082111561021e5761021e610e3d565b634e487b7160e01b5f52603160045260245ffdfeddf252ad1be2c89b69c2b068fc378daa952ba7f163c4a11628f55a4df523b3efa264697066735822122052d3e3003dc42aa0e3d2b9768e7d85eeb77e4ae433b58db8b70a268beb61c8b564736f6c634300081e0033","linkReferences":{}},"methodIdentifiers":{"approve(address,uint256)":"095ea7b3","balanceOf(address)":"70a08231","burn(address,uint256)":"9dc29fac","burn(uint256)":"42966c68","getApproved(uint256)":"081812fc","isApprovedForAll(address,address)":"e985e9c5","mint(address)":"6a627842","ownerOf(uint256)":"6352211e","safeTransferFrom(address,address,uint256)":"42842e0e","safeTransferFrom(address,address,uint256,bytes)":"b88d4fde","setApprovalForAll(address,bool)":"a22cb465","transferFrom(address,address,uint256)":"23b872dd"},"id":1353}