{"abi":[{"type":"function","name":"has","inputs":[],"outputs":[{"name":"","type":"bool","internalType":"bool"}],"stateMutability":"view"},{"type":"function","name":"peek","inputs":[],"outputs":[{"name":"","type":"bytes32","internalType":"bytes32"},{"name":"","type":"bool","internalType":"bool"}],"stateMutability":"view"},{"type":"function","name":"poke","inputs":[{"name":"wut","type":"bytes32","internalType":"bytes32"}],"outputs":[],"stateMutability":"nonpayable"},{"type":"function","name":"read","inputs":[],"outputs":[{"name":"","type":"bytes32","internalType":"bytes32"}],"stateMutability":"view"},{"type":"function","name":"val","inputs":[],"outputs":[{"name":"","type":"bytes32","internalType":"bytes32"}],"stateMutability":"view"},{"type":"function","name":"void","inputs":[],"outputs":[],"stateMutability":"nonpayable"}],"bytecode":{"object":"0x6080604052348015600e575f5ffd5b506101948061001c5f395ff3fe608060405234801561000f575f5ffd5b5060043610610060575f3560e01c80631504460f146100645780633c6bb4361461008757806357de26a4146100a357806359e02dd7146100ab578063ac4c25b2146100c8578063b689d5ac146100db575b5f5ffd5b610085610072366004610147565b60019081555f805460ff19169091179055565b005b61009060015481565b6040519081526020015b60405180910390f35b6100906100f7565b6001545f5460ff166040805192835290151560208301520161009a565b6100855f6001819055805460ff19169055565b5f546100e79060ff1681565b604051901515815260200161009a565b5f805460ff166101405760405162461bcd60e51b815260206004820152601060248201526f445356616c75652f6e6f2d76616c756560801b604482015260640160405180910390fd5b5060015490565b5f60208284031215610157575f5ffd5b503591905056fea2646970667358221220c058361523bc352fab8e909cc04ed6046f6a916869c1d0867db36a3cbb2d5fc264736f6c634300081e0033","linkReferences":{}},"methodIdentifiers":{"has()":"b689d5ac","peek()":"59e02dd7","poke(bytes32)":"1504460f","read()":"57de26a4","val()":"3c6bb436","void()":"ac4c25b2"},"id":763}