{"abi":[{"type":"function","name":"allowance","inputs":[{"name":"owner","type":"address","internalType":"address"},{"name":"spender","type":"address","internalType":"address"}],"outputs":[{"name":"","type":"uint256","internalType":"uint256"}],"stateMutability":"view"},{"type":"function","name":"approve","inputs":[{"name":"spender","type":"address","internalType":"address"},{"name":"amount","type":"uint256","internalType":"uint256"}],"outputs":[{"name":"","type":"bool","internalType":"bool"}],"stateMutability":"nonpayable"},{"type":"function","name":"balanceOf","inputs":[{"name":"account","type":"address","internalType":"address"}],"outputs":[{"name":"","type":"uint256","internalType":"uint256"}],"stateMutability":"view"},{"type":"function","name":"decimals","inputs":[],"outputs":[{"name":"","type":"uint8","internalType":"uint8"}],"stateMutability":"view"},{"type":"function","name":"facetFuncs","inputs":[],"outputs":[{"name":"funcs","type":"bytes4[]","internalType":"bytes4[]"}],"stateMutability":"pure"},{"type":"function","name":"facetInterfaces","inputs":[],"outputs":[{"name":"interfaces","type":"bytes4[]","internalType":"bytes4[]"}],"stateMutability":"pure"},{"type":"function","name":"facetMetadata","inputs":[],"outputs":[{"name":"name_","type":"string","internalType":"string"},{"name":"interfaces","type":"bytes4[]","internalType":"bytes4[]"},{"name":"functions","type":"bytes4[]","internalType":"bytes4[]"}],"stateMutability":"pure"},{"type":"function","name":"facetName","inputs":[],"outputs":[{"name":"name","type":"string","internalType":"string"}],"stateMutability":"pure"},{"type":"function","name":"name","inputs":[],"outputs":[{"name":"","type":"string","internalType":"string"}],"stateMutability":"view"},{"type":"function","name":"symbol","inputs":[],"outputs":[{"name":"","type":"string","internalType":"string"}],"stateMutability":"view"},{"type":"function","name":"totalSupply","inputs":[],"outputs":[{"name":"","type":"uint256","internalType":"uint256"}],"stateMutability":"view"},{"type":"function","name":"transfer","inputs":[{"name":"recipient","type":"address","internalType":"address"},{"name":"amount","type":"uint256","internalType":"uint256"}],"outputs":[{"name":"","type":"bool","internalType":"bool"}],"stateMutability":"nonpayable"},{"type":"function","name":"transferFrom","inputs":[{"name":"owner","type":"address","internalType":"address"},{"name":"recipient","type":"address","internalType":"address"},{"name":"amount","type":"uint256","internalType":"uint256"}],"outputs":[{"name":"","type":"bool","internalType":"bool"}],"stateMutability":"nonpayable"},{"type":"event","name":"Approval","inputs":[{"name":"owner","type":"address","indexed":true,"internalType":"address"},{"name":"spender","type":"address","indexed":true,"internalType":"address"},{"name":"amount","type":"uint256","indexed":false,"internalType":"uint256"}],"anonymous":false},{"type":"event","name":"Transfer","inputs":[{"name":"from","type":"address","indexed":true,"internalType":"address"},{"name":"to","type":"address","indexed":true,"internalType":"address"},{"name":"amount","type":"uint256","indexed":false,"internalType":"uint256"}],"anonymous":false},{"type":"error","name":"ERC20InsufficientAllowance","inputs":[{"name":"spender","type":"address","internalType":"address"},{"name":"allowance","type":"uint256","internalType":"uint256"},{"name":"needed","type":"uint256","internalType":"uint256"}]},{"type":"error","name":"ERC20InsufficientBalance","inputs":[{"name":"sender","type":"address","internalType":"address"},{"name":"balance","type":"uint256","internalType":"uint256"},{"name":"needed","type":"uint256","internalType":"uint256"}]},{"type":"error","name":"ERC20InvalidApprover","inputs":[{"name":"approver","type":"address","internalType":"address"}]},{"type":"error","name":"ERC20InvalidReceiver","inputs":[{"name":"receiver","type":"address","internalType":"address"}]},{"type":"error","name":"ERC20InvalidSender","inputs":[{"name":"sender","type":"address","internalType":"address"}]},{"type":"error","name":"ERC20InvalidSpender","inputs":[{"name":"spender","type":"address","internalType":"address"}]}],"bytecode":{"object":"0x6080604052348015600e575f5ffd5b50610c4e8061001c5f395ff3fe608060405234801561000f575f5ffd5b50600436106100ad575f3560e01c806306fdde03146100b1578063095ea7b3146100cf57806318160ddd146100f257806323b872dd146101085780632ea808261461011b578063313ce56714610130578063574a4cff1461014a5780635b6f4d011461015257806370a082311461015a57806395d89b411461016d578063a9059cbb14610175578063dd62ed3e14610188578063f10d7a751461019b575b5f5ffd5b6100b96101b2565b6040516100c691906109ec565b60405180910390f35b6100e26100dd366004610a19565b6101c1565b60405190151581526020016100c6565b6100fa6101d7565b6040519081526020016100c6565b6100e2610116366004610a41565b6101e0565b6101236101f6565b6040516100c69190610abf565b6101386102c2565b60405160ff90911681526020016100c6565b6101236102cb565b6100b96104c2565b6100fa610168366004610ad1565b6104e6565b6100b96104f0565b6100e2610183366004610a19565b6104fa565b6100fa610196366004610aea565b610506565b6101a3610518565b6040516100c693929190610b1b565b60606101bc610540565b905090565b5f6101cd338484610552565b5060015b92915050565b5f6101bc61056a565b5f6101ec84848461057d565b5060019392505050565b604080516003808252608082019092526060916020820183803683370190505090506336372b0760e01b815f8151811061023257610232610b5d565b60200260200101906001600160e01b03191690816001600160e01b0319168152505063a219a02560e01b8160018151811061026f5761026f610b5d565b6001600160e01b0319909216602092830291909101909101528051634a17459160e11b90829060029081106102a6576102a6610b5d565b6001600160e01b03199092166020928302919091019091015290565b5f6101bc610590565b604080516009808252610140820190925260609160208201610120803683370190505090506306fdde0360e01b815f8151811061030a5761030a610b5d565b6001600160e01b03199092166020928302919091019091015280516395d89b4160e01b908290600190811061034157610341610b5d565b6001600160e01b031990921660209283029190910190910152805163313ce56760e01b908290600290811061037857610378610b5d565b6001600160e01b03199092166020928302919091019091015280516318160ddd60e01b90829060039081106103af576103af610b5d565b6001600160e01b03199092166020928302919091019091015280516370a0823160e01b90829060049081106103e6576103e6610b5d565b6001600160e01b0319909216602092830291909101909101528051636eb1769f60e11b908290600590811061041d5761041d610b5d565b6001600160e01b031990921660209283029190910190910152805163095ea7b360e01b908290600690811061045457610454610b5d565b6001600160e01b031990921660209283029190910190910152805163a9059cbb60e01b908290600790811061048b5761048b610b5d565b6001600160e01b03199092166020928302919091019091015280516323b872dd60e01b90829060089081106102a6576102a6610b5d565b60408051808201909152600a815269115490cc8c119858d95d60b21b602082015290565b5f6101d1826105a6565b60606101bc6105d1565b5f6101cd3384846105e3565b5f61051183836105f6565b9392505050565b60608060606105256104c2565b925061052f6101f6565b91506105396102cb565b9050909192565b60606101bc61054d610609565b610654565b61056561055d610609565b8484846106e7565b505050565b5f6101bc610576610609565b6003015490565b610565610588610609565b84848461077d565b5f6101bc61059c610609565b6002015460ff1690565b5f6101d16105b2610609565b836001600160a01b03165f908152600491909101602052604090205490565b60606101bc6105de610609565b61079b565b6105656105ee610609565b8484846107ac565b5f610511610602610609565b8484610827565b5f6101bc60405160200161063b906020808252600a908201526906569702e6572632e32360b41b604082015260600190565b6040516020818303038152906040528051906020012090565b6060815f01805461066490610b71565b80601f016020809104026020016040519081016040528092919081815260200182805461069090610b71565b80156106db5780601f106106b2576101008083540402835291602001916106db565b820191905f5260205f20905b8154815290600101906020018083116106be57829003601f168201915b50505050509050919050565b6001600160a01b0382166107195781604051634a1406b160e11b81526004016107109190610ba9565b60405180910390fd5b6001600160a01b038381165f81815260058701602090815260408083209487168084529482529182902085905590518481527f8c5be1e5ebec7d5bd14f71427d1e84f3dd0314c0f7b2291e5b200ac8c7c3b92591015b60405180910390a350505050565b61078984843384610853565b610795848484846107ac565b50505050565b606081600101805461066490610b71565b336107cc5733604051634a1406b160e11b81526004016107109190610ba9565b6107d78484836108cd565b6107e2848383610962565b816001600160a01b0316836001600160a01b03167fddf252ad1be2c89b69c2b068fc378daa952ba7f163c4a11628f55a4df523b3ef8360405161076f91815260200190565b6001600160a01b039182165f908152600593909301602090815260408085209290931684525290205490565b6001600160a01b03821661087c5781604051634a1406b160e11b81526004016107109190610ba9565b5f610888858585610827565b9050818110156108b157828183604051637dc7a0d960e11b815260040161071093929190610bbd565b6108c68585856108c18686610bf2565b6106e7565b5050505050565b6001600160a01b0382166108f65781604051634b637e8f60e11b81526004016107109190610ba9565b6001600160a01b0382165f908152600484016020526040902054818110156109375782818360405163391434e360e21b815260040161071093929190610bbd565b6109418282610bf2565b6001600160a01b039093165f90815260049094016020525050604090912055565b6001600160a01b03821661098b578160405163ec442f0560e01b81526004016107109190610ba9565b6001600160a01b0382165f908152600484016020526040812080548392906109b4908490610c05565b9091555050505050565b5f81518084528060208401602086015e5f602082860101526020601f19601f83011685010191505092915050565b602081525f61051160208301846109be565b80356001600160a01b0381168114610a14575f5ffd5b919050565b5f5f60408385031215610a2a575f5ffd5b610a33836109fe565b946020939093013593505050565b5f5f5f60608486031215610a53575f5ffd5b610a5c846109fe565b9250610a6a602085016109fe565b929592945050506040919091013590565b5f8151808452602084019350602083015f5b82811015610ab55781516001600160e01b031916865260209586019590910190600101610a8d565b5093949350505050565b602081525f6105116020830184610a7b565b5f60208284031215610ae1575f5ffd5b610511826109fe565b5f5f60408385031215610afb575f5ffd5b610b04836109fe565b9150610b12602084016109fe565b90509250929050565b606081525f610b2d60608301866109be565b8281036020840152610b3f8186610a7b565b90508281036040840152610b538185610a7b565b9695505050505050565b634e487b7160e01b5f52603260045260245ffd5b600181811c90821680610b8557607f821691505b602082108103610ba357634e487b7160e01b5f52602260045260245ffd5b50919050565b6001600160a01b0391909116815260200190565b6001600160a01b039390931683526020830191909152604082015260600190565b634e487b7160e01b5f52601160045260245ffd5b818103818111156101d1576101d1610bde565b808201808211156101d1576101d1610bde56fea26469706673582212208285e6103bb46f977a6a955100265192c5a17ea24398f7cdebdfd8b4f03467dd64736f6c634300081e0033","linkReferences":{}},"methodIdentifiers":{"allowance(address,address)":"dd62ed3e","approve(address,uint256)":"095ea7b3","balanceOf(address)":"70a08231","decimals()":"313ce567","facetFuncs()":"574a4cff","facetInterfaces()":"2ea80826","facetMetadata()":"f10d7a75","facetName()":"5b6f4d01","name()":"06fdde03","symbol()":"95d89b41","totalSupply()":"18160ddd","transfer(address,uint256)":"a9059cbb","transferFrom(address,address,uint256)":"23b872dd"},"id":1308}