{"abi":[{"type":"constructor","inputs":[{"name":"vault","type":"address","internalType":"contract IVault"},{"name":"initialOwner","type":"address","internalType":"address"}],"stateMutability":"nonpayable"},{"type":"function","name":"acceptOwnership","inputs":[],"outputs":[],"stateMutability":"nonpayable"},{"type":"function","name":"addPoolsToSet","inputs":[{"name":"poolSetId","type":"uint256","internalType":"uint256"},{"name":"newPools","type":"address[]","internalType":"address[]"}],"outputs":[],"stateMutability":"nonpayable"},{"type":"function","name":"cancelOwnershipHandover","inputs":[],"outputs":[],"stateMutability":"payable"},{"type":"function","name":"completeOwnershipHandover","inputs":[{"name":"pendingOwner","type":"address","internalType":"address"}],"outputs":[],"stateMutability":"payable"},{"type":"function","name":"createPoolSet","inputs":[{"name":"initialManager","type":"address","internalType":"address"},{"name":"newPools","type":"address[]","internalType":"address[]"}],"outputs":[{"name":"poolSetId","type":"uint256","internalType":"uint256"}],"stateMutability":"nonpayable"},{"type":"function","name":"createPoolSet","inputs":[{"name":"initialManager","type":"address","internalType":"address"}],"outputs":[{"name":"","type":"uint256","internalType":"uint256"}],"stateMutability":"nonpayable"},{"type":"function","name":"destroyPoolSet","inputs":[{"name":"poolSetId","type":"uint256","internalType":"uint256"}],"outputs":[],"stateMutability":"nonpayable"},{"type":"function","name":"forceTransferOwnership","inputs":[{"name":"newOwner","type":"address","internalType":"address"}],"outputs":[],"stateMutability":"nonpayable"},{"type":"function","name":"getActionId","inputs":[{"name":"selector","type":"bytes4","internalType":"bytes4"}],"outputs":[{"name":"","type":"bytes32","internalType":"bytes32"}],"stateMutability":"view"},{"type":"function","name":"getAllPoolsInSet","inputs":[{"name":"poolSetId","type":"uint256","internalType":"uint256"}],"outputs":[{"name":"pools","type":"address[]","internalType":"address[]"}],"stateMutability":"view"},{"type":"function","name":"getAuthorizer","inputs":[],"outputs":[{"name":"","type":"address","internalType":"contract IAuthorizer"}],"stateMutability":"view"},{"type":"function","name":"getManagerForPoolSet","inputs":[{"name":"poolSetId","type":"uint256","internalType":"uint256"}],"outputs":[{"name":"","type":"address","internalType":"address"}],"stateMutability":"view"},{"type":"function","name":"getNextPoolSetId","inputs":[],"outputs":[{"name":"","type":"uint256","internalType":"uint256"}],"stateMutability":"view"},{"type":"function","name":"getPoolCountForSet","inputs":[{"name":"poolSetId","type":"uint256","internalType":"uint256"}],"outputs":[{"name":"","type":"uint256","internalType":"uint256"}],"stateMutability":"view"},{"type":"function","name":"getPoolSetIdForCaller","inputs":[],"outputs":[{"name":"","type":"uint256","internalType":"uint256"}],"stateMutability":"view"},{"type":"function","name":"getPoolSetIdForManager","inputs":[{"name":"manager","type":"address","internalType":"address"}],"outputs":[{"name":"","type":"uint256","internalType":"uint256"}],"stateMutability":"view"},{"type":"function","name":"getPoolsInSet","inputs":[{"name":"poolSetId","type":"uint256","internalType":"uint256"},{"name":"from","type":"uint256","internalType":"uint256"},{"name":"to","type":"uint256","internalType":"uint256"}],"outputs":[{"name":"pools","type":"address[]","internalType":"address[]"}],"stateMutability":"view"},{"type":"function","name":"isPoolInSet","inputs":[{"name":"pool","type":"address","internalType":"address"},{"name":"poolSetId","type":"uint256","internalType":"uint256"}],"outputs":[{"name":"","type":"bool","internalType":"bool"}],"stateMutability":"view"},{"type":"function","name":"isValidPoolSetId","inputs":[{"name":"poolSetId","type":"uint256","internalType":"uint256"}],"outputs":[{"name":"","type":"bool","internalType":"bool"}],"stateMutability":"view"},{"type":"function","name":"owner","inputs":[],"outputs":[{"name":"","type":"address","internalType":"address"}],"stateMutability":"view"},{"type":"function","name":"ownershipHandoverExpiresAt","inputs":[{"name":"pendingOwner","type":"address","internalType":"address"}],"outputs":[{"name":"result","type":"uint256","internalType":"uint256"}],"stateMutability":"view"},{"type":"function","name":"pausePools","inputs":[{"name":"pools","type":"address[]","internalType":"address[]"}],"outputs":[],"stateMutability":"nonpayable"},{"type":"function","name":"pendingOwner","inputs":[],"outputs":[{"name":"","type":"address","internalType":"address"}],"stateMutability":"view"},{"type":"function","name":"removePoolsFromSet","inputs":[{"name":"poolSetId","type":"uint256","internalType":"uint256"},{"name":"pools","type":"address[]","internalType":"address[]"}],"outputs":[],"stateMutability":"nonpayable"},{"type":"function","name":"renounceOwnership","inputs":[],"outputs":[],"stateMutability":"payable"},{"type":"function","name":"requestOwnershipHandover","inputs":[],"outputs":[],"stateMutability":"payable"},{"type":"function","name":"transferOwnership","inputs":[{"name":"newOwner","type":"address","internalType":"address"}],"outputs":[],"stateMutability":"payable"},{"type":"function","name":"transferPoolSetOwnership","inputs":[{"name":"newManager","type":"address","internalType":"address"}],"outputs":[],"stateMutability":"nonpayable"},{"type":"function","name":"vault","inputs":[],"outputs":[{"name":"","type":"address","internalType":"contract IVault"}],"stateMutability":"view"},{"type":"event","name":"OwnershipHandoverCanceled","inputs":[{"name":"pendingOwner","type":"address","indexed":true,"internalType":"address"}],"anonymous":false},{"type":"event","name":"OwnershipHandoverRequested","inputs":[{"name":"pendingOwner","type":"address","indexed":true,"internalType":"address"}],"anonymous":false},{"type":"event","name":"OwnershipTransferStarted","inputs":[{"name":"previousOwner","type":"address","indexed":true,"internalType":"address"},{"name":"newOwner","type":"address","indexed":true,"internalType":"address"}],"anonymous":false},{"type":"event","name":"OwnershipTransferred","inputs":[{"name":"oldOwner","type":"address","indexed":true,"internalType":"address"},{"name":"newOwner","type":"address","indexed":true,"internalType":"address"}],"anonymous":false},{"type":"event","name":"PoolAddedToSet","inputs":[{"name":"pool","type":"address","indexed":true,"internalType":"address"},{"name":"poolSetId","type":"uint256","indexed":true,"internalType":"uint256"}],"anonymous":false},{"type":"event","name":"PoolRemovedFromSet","inputs":[{"name":"pool","type":"address","indexed":true,"internalType":"address"},{"name":"poolSetId","type":"uint256","indexed":true,"internalType":"uint256"}],"anonymous":false},{"type":"event","name":"PoolSetCreated","inputs":[{"name":"poolSetId","type":"uint256","indexed":true,"internalType":"uint256"},{"name":"initialManager","type":"address","indexed":true,"internalType":"address"}],"anonymous":false},{"type":"event","name":"PoolSetDestroyed","inputs":[{"name":"poolSetId","type":"uint256","indexed":true,"internalType":"uint256"},{"name":"manager","type":"address","indexed":true,"internalType":"address"}],"anonymous":false},{"type":"event","name":"PoolSetOwnershipTransferred","inputs":[{"name":"poolSetId","type":"uint256","indexed":true,"internalType":"uint256"},{"name":"oldManager","type":"address","indexed":true,"internalType":"address"},{"name":"newManager","type":"address","indexed":true,"internalType":"address"}],"anonymous":false},{"type":"error","name":"AlreadyInitialized","inputs":[]},{"type":"error","name":"IndexOutOfBounds","inputs":[{"name":"poolSetId","type":"uint256","internalType":"uint256"}]},{"type":"error","name":"InvalidPoolSetId","inputs":[{"name":"poolSetId","type":"uint256","internalType":"uint256"}]},{"type":"error","name":"InvalidPoolSetManager","inputs":[]},{"type":"error","name":"NewOwnerIsZeroAddress","inputs":[]},{"type":"error","name":"NoHandoverRequest","inputs":[]},{"type":"error","name":"OwnableInvalidOwner","inputs":[{"name":"owner","type":"address","internalType":"address"}]},{"type":"error","name":"OwnableUnauthorizedAccount","inputs":[{"name":"account","type":"address","internalType":"address"}]},{"type":"error","name":"PoolAlreadyInSet","inputs":[{"name":"pool","type":"address","internalType":"address"},{"name":"poolSetId","type":"uint256","internalType":"uint256"}]},{"type":"error","name":"PoolNotInSet","inputs":[{"name":"pool","type":"address","internalType":"address"},{"name":"poolSetId","type":"uint256","internalType":"uint256"}]},{"type":"error","name":"PoolNotRegistered","inputs":[{"name":"pool","type":"address","internalType":"address"}]},{"type":"error","name":"PoolSetManagerNotUnique","inputs":[{"name":"poolSetManager","type":"address","internalType":"address"}]},{"type":"error","name":"SenderIsNotPoolSetManager","inputs":[]},{"type":"error","name":"SenderNotAllowed","inputs":[]},{"type":"error","name":"Unauthorized","inputs":[]},{"type":"error","name":"VaultNotSet","inputs":[]}],"bytecode":{"object":"0x60c060405260018055348015610013575f5ffd5b506040516118cc3803806118cc83398101604081905261003291610100565b8181818130816001600160a01b03811661006557604051631e4fbdf760e01b81525f600482015260240160405180910390fd5b61006e816100b0565b506080526001600160a01b03821661009957604051630647140b60e51b815260040160405180910390fd5b506001600160a01b031660a0525061013892505050565b6001600160a01b0316638b78c6d819819055805f7f8be0079c531659141344cd1fd0a4f28419497f9722a3daafe3b4186f6b6457e08180a35b50565b6001600160a01b03811681146100e9575f5ffd5b5f5f60408385031215610111575f5ffd5b825161011c816100ec565b602084015190925061012d816100ec565b809150509250929050565b60805160a0516117576101755f395f818161049801528181610a8b01528181610b3b01528181610c2001526110eb01525f61088f01526117575ff3fe608060405260043610610151575f3560e01c8063182551da14610155578063255dae411461018957806325692962146101bf57806325c427ed146101c95780632da55a1d1461020b5780633700f9871461022a5780633e035f9b1461024957806354d1f13d1461026857806362d5346214610270578063715018a61461028f57806379ba5097146102975780637c1ec460146102ab578063851c1bb3146102ca5780638c60ebd0146102e95780638da5cb5b1461031557806394fc405814610336578063a20dc52914610355578063a89b112814610374578063aaabadc514610393578063c482e822146103a7578063ce998aba146103bb578063e30c3978146103db578063e909c19b146103ef578063ebf3a8d01461040e578063f04e283e1461042d578063f167a1e614610440578063f2fde38b14610474578063fbfa77cf14610487578063fee81cf4146104ba575b5f5ffd5b348015610160575f5ffd5b5061017461016f3660046113db565b6104eb565b60405190151581526020015b60405180910390f35b348015610194575f5ffd5b506101746101a3366004611405565b5f908152600260205260409020546001600160a01b0316151590565b6101c7610517565b005b3480156101d4575f5ffd5b506101fd6101e336600461141c565b6001600160a01b03165f9081526003602052604090205490565b604051908152602001610180565b348015610216575f5ffd5b506101c76102253660046114ee565b610563565b348015610235575f5ffd5b506101c761024436600461141c565b610621565b348015610254575f5ffd5b506101fd610263366004611531565b6106ab565b6101c76106db565b34801561027b575f5ffd5b506101fd61028a366004611405565b610714565b6101c761073c565b3480156102a2575f5ffd5b506101c761074f565b3480156102b6575f5ffd5b506101c76102c5366004611405565b61078e565b3480156102d5575f5ffd5b506101fd6102e4366004611567565b61088c565b3480156102f4575f5ffd5b5061030861030336600461158e565b6108f0565b60405161018091906115b7565b348015610320575f5ffd5b50610329610a00565b6040516101809190611602565b348015610341575f5ffd5b50610308610350366004611405565b610a13565b348015610360575f5ffd5b506101c761036f366004611616565b610a35565b34801561037f575f5ffd5b506101c761038e36600461141c565b610b00565b34801561039e575f5ffd5b50610329610b38565b3480156103b2575f5ffd5b506001546101fd565b3480156103c6575f5ffd5b50335f908152600360205260409020546101fd565b3480156103e6575f5ffd5b50610329610bb9565b3480156103fa575f5ffd5b506101fd61040936600461141c565b610bc7565b348015610419575f5ffd5b506101c76104283660046114ee565b610be3565b6101c761043b36600461141c565b610d46565b34801561044b575f5ffd5b5061032961045a366004611405565b5f908152600260205260409020546001600160a01b031690565b6101c761048236600461141c565b610d80565b348015610492575f5ffd5b506103297f000000000000000000000000000000000000000000000000000000000000000081565b3480156104c5575f5ffd5b506101fd6104d436600461141c565b63389a75e1600c9081525f91909152602090205490565b5f816104f681610de5565b5f83815260046020526040902061050d9085610e27565b91505b5092915050565b5f6202a3006001600160401b03164201905063389a75e1600c52335f52806020600c2055337fdbf36a107da19e49527a7176a1babf963b4b0ff8cde35ee35d6cd8f1f9ac7e1d5f5fa250565b61056b610e44565b8161057581610de5565b81515f5b8181101561061a575f84828151811061059457610594611647565b602002602001015190506105c18160045f8981526020019081526020015f20610e8290919063ffffffff16565b15155f036105ef57808660405163400a2eb960e11b81526004016105e692919061165b565b60405180910390fd5b60405186906001600160a01b038316905f5160206117025f395f51905f52905f90a350600101610579565b5050505050565b8061062b81610e96565b5f610634610ef5565b5f81815260026020908152604080832080546001600160a01b0319166001600160a01b038916908117909155338085526003909352818420849055808452818420859055905193945092909184917f8a5583d08cb82be0e3e26d52a1941f10fe2fdd1bb7cc5e085a0ba35b3d7972059190a4505050565b5f6106b4610e44565b826106be81610e96565b6106c784610f28565b835190925015610510576105108284610be3565b63389a75e1600c52335f525f6020600c2055337ffa7b8eab7da67f412cc9575ed43464468f9bfbae89d1675917346ca6d8fe3c925f5fa2565b5f8161071f81610de5565b5f83815260046020526040902061073590610fa5565b9392505050565b610744610fae565b61074d5f610fe9565b565b3380610759610bb9565b6001600160a01b031614610782578060405163118cdaa760e01b81526004016105e69190611602565b61078b81611026565b50565b610796610e44565b806107a081610de5565b5f828152600460205260408120906107b782610fa5565b90505b8015610805575f19015f6107ce838361103e565b905084816001600160a01b03165f5160206117025f395f51905f5260405160405180910390a36107fe8382610e82565b50506107ba565b5f84815260046020526040812090818161081f8282611389565b5050505f85815260026020908152604080832080546001600160a01b031981169091556001600160a01b0316808452600390925280832083905551909250829187917f79baa5e19a392c29299f3a0871dfaa49cb3bcce18826d5d6df199c9e0846a6c09190a35050505050565b5f7f0000000000000000000000000000000000000000000000000000000000000000826040516020016108d39291909182526001600160e01b031916602082015260240190565b604051602081830303815290604052805190602001209050919050565b6060836108fc81610de5565b5f85815260046020526040812061091290610fa5565b90508385118061092157508084115b8061092c5750808510155b1561094d5760405163112517f360e21b8152600481018790526024016105e6565b6109578585611688565b6001600160401b0381111561096e5761096e611437565b604051908082528060200260200182016040528015610997578160200160208202803683370190505b509250845b848110156109f6575f8781526004602052604090206109bb908261103e565b846109c68884611688565b815181106109d6576109d6611647565b6001600160a01b039092166020928302919091019091015260010161099c565b5050509392505050565b5f610a0e638b78c6d8195490565b905090565b606081610a1f81610de5565b5f83815260046020526040902061073590611049565b5f610a3e610ef5565b82519091505f5b81811015610afa575f848281518110610a6057610a60611647565b60200260200101519050610a748482611055565b60405163156b287b60e21b81526001600160a01b037f000000000000000000000000000000000000000000000000000000000000000016906355aca1ec90610ac0908490600401611602565b5f604051808303815f87803b158015610ad7575f5ffd5b505af1158015610ae9573d5f5f3e3d5ffd5b505060019093019250610a45915050565b50505050565b610b08610e44565b610b10610a00565b6001600160a01b03163303610782576040516323dada5360e01b815260040160405180910390fd5b5f7f00000000000000000000000000000000000000000000000000000000000000006001600160a01b031663aaabadc56040518163ffffffff1660e01b8152600401602060405180830381865afa158015610b95573d5f5f3e3d5ffd5b505050506040513d601f19601f82011682018060405250810190610a0e919061169b565b5f546001600160a01b031690565b5f610bd0610e44565b81610bda81610e96565b61073583610f28565b610beb610e44565b81610bf581610de5565b81515f5b8181101561061a575f848281518110610c1457610c14611647565b602002602001015190507f00000000000000000000000000000000000000000000000000000000000000006001600160a01b031663c673bdaf826040518263ffffffff1660e01b8152600401610c6a9190611602565b602060405180830381865afa158015610c85573d5f5f3e3d5ffd5b505050506040513d601f19601f82011682018060405250810190610ca991906116b6565b15155f03610ccc57806040516327946f5760e21b81526004016105e69190611602565b5f868152600460205260409020610ce39082611095565b15155f03610d08578086604051635a17aa8d60e01b81526004016105e692919061165b565b60405186906001600160a01b038316907f5cda7ebcbcc755c3ef1c6cf035a6e26bf48b6421f72f932756d942c896287b69905f90a350600101610bf9565b610d4e610fae565b63389a75e1600c52805f526020600c208054421115610d7457636f5e88185f526004601cfd5b5f905561078b81610fe9565b610d88610fae565b5f80546001600160a01b0319166001600160a01b038316908117909155610dad610a00565b6001600160a01b03167f38d16b8cac22d99fc7c124b9cd0de2d3fa1faef420bfe791d8c362d765e2270060405160405180910390a350565b801580610e0657505f818152600260205260409020546001600160a01b0316155b1561078b576040516398592ddb60e01b8152600481018290526024016105e6565b5f610e3b836001600160a01b0384166110a9565b90505b92915050565b5f610e595f356001600160e01b03191661088c565b9050610e6581336110c0565b61078b576040516323dada5360e01b815260040160405180910390fd5b5f610e3b836001600160a01b0384166111e0565b6001600160a01b038116610ebd576040516316f292b760e11b815260040160405180910390fd5b6001600160a01b0381165f908152600360205260409020541561078b578060405163161ad54b60e11b81526004016105e69190611602565b335f9081526003602052604081205490819003610f2557604051632f3023dd60e21b815260040160405180910390fd5b90565b600180545f9182610f38836116d5565b909155505f81815260026020908152604080832080546001600160a01b0319166001600160a01b0388169081179091558084526003909252808320849055519293509183917fdc91443db112ae1beb8fab12e3fa2dedea028e9eb6a8e92776a1aa2343007be291a3919050565b5f610e3e825490565b610fb6610a00565b6001600160a01b0316336001600160a01b03161461074d573360405163118cdaa760e01b81526004016105e69190611602565b638b78c6d81980546001600160a01b039092169182907f8be0079c531659141344cd1fd0a4f28419497f9722a3daafe3b4186f6b6457e05f80a355565b5f80546001600160a01b031916905561078b81610fe9565b5f610e3b83836112c3565b60605f610735836112e9565b5f82815260046020526040902061106c9082610e27565b15155f0361109157808260405163400a2eb960e11b81526004016105e692919061165b565b5050565b5f610e3b836001600160a01b038416611342565b5f9081526001919091016020526040902054151590565b5f6110c9610a00565b6001600160a01b0316826001600160a01b0316036110e957506001610e3e565b7f00000000000000000000000000000000000000000000000000000000000000006001600160a01b031663aaabadc56040518163ffffffff1660e01b8152600401602060405180830381865afa158015611145573d5f5f3e3d5ffd5b505050506040513d601f19601f82011682018060405250810190611169919061169b565b6040516326f8aa2160e21b8152600481018590526001600160a01b0384811660248301523060448301529190911690639be2a88490606401602060405180830381865afa1580156111bc573d5f5f3e3d5ffd5b505050506040513d601f19601f82011682018060405250810190610e3b91906116b6565b5f81815260018301602052604081205480156112ba575f611202600183611688565b85549091505f9061121590600190611688565b9050808214611274575f865f01828154811061123357611233611647565b905f5260205f200154905080875f01848154811061125357611253611647565b5f918252602080832090910192909255918252600188019052604090208390555b8554869080611285576112856116ed565b600190038181905f5260205f20015f90559055856001015f8681526020019081526020015f205f905560019350505050610e3e565b5f915050610e3e565b5f825f0182815481106112d8576112d8611647565b905f5260205f200154905092915050565b6060815f0180548060200260200160405190810160405280929190818152602001828054801561133657602002820191905f5260205f20905b815481526020019060010190808311611322575b50505050509050919050565b5f61134d83836110a9565b61138257508154600181810184555f848152602080822090930184905584548482528286019093526040902091909155610e3e565b505f610e3e565b5080545f8255905f5260205f209081019061078b91905b808211156113b3575f81556001016113a0565b5090565b6001600160a01b038116811461078b575f5ffd5b80356113d6816113b7565b919050565b5f5f604083850312156113ec575f5ffd5b82356113f7816113b7565b946020939093013593505050565b5f60208284031215611415575f5ffd5b5035919050565b5f6020828403121561142c575f5ffd5b8135610735816113b7565b634e487b7160e01b5f52604160045260245ffd5b5f82601f83011261145a575f5ffd5b81356001600160401b0381111561147357611473611437565b604051600582901b90603f8201601f191681016001600160401b03811182821017156114a1576114a1611437565b6040529182526020818501810192908101868411156114be575f5ffd5b6020860192505b838310156114e4576114d6836113cb565b8152602092830192016114c5565b5095945050505050565b5f5f604083850312156114ff575f5ffd5b8235915060208301356001600160401b0381111561151b575f5ffd5b6115278582860161144b565b9150509250929050565b5f5f60408385031215611542575f5ffd5b823561154d816113b7565b915060208301356001600160401b0381111561151b575f5ffd5b5f60208284031215611577575f5ffd5b81356001600160e01b031981168114610735575f5ffd5b5f5f5f606084860312156115a0575f5ffd5b505081359360208301359350604090920135919050565b602080825282518282018190525f918401906040840190835b818110156115f75783516001600160a01b03168352602093840193909201916001016115d0565b509095945050505050565b6001600160a01b0391909116815260200190565b5f60208284031215611626575f5ffd5b81356001600160401b0381111561163b575f5ffd5b61050d8482850161144b565b634e487b7160e01b5f52603260045260245ffd5b6001600160a01b03929092168252602082015260400190565b634e487b7160e01b5f52601160045260245ffd5b81810381811115610e3e57610e3e611674565b5f602082840312156116ab575f5ffd5b8151610735816113b7565b5f602082840312156116c6575f5ffd5b81518015158114610735575f5ffd5b5f600182016116e6576116e6611674565b5060010190565b634e487b7160e01b5f52603160045260245ffdfee632b6be71c5c7f5d98ba00da8b648a72422f750973138bc6474de6fe711b66ea2646970667358221220c03b192c2bbfe0d765535d1ba83b3520bc99d54ddf0b327c222eb3a046bb35f464736f6c634300081e0033","linkReferences":{}},"methodIdentifiers":{"acceptOwnership()":"79ba5097","addPoolsToSet(uint256,address[])":"ebf3a8d0","cancelOwnershipHandover()":"54d1f13d","completeOwnershipHandover(address)":"f04e283e","createPoolSet(address)":"e909c19b","createPoolSet(address,address[])":"3e035f9b","destroyPoolSet(uint256)":"7c1ec460","forceTransferOwnership(address)":"a89b1128","getActionId(bytes4)":"851c1bb3","getAllPoolsInSet(uint256)":"94fc4058","getAuthorizer()":"aaabadc5","getManagerForPoolSet(uint256)":"f167a1e6","getNextPoolSetId()":"c482e822","getPoolCountForSet(uint256)":"62d53462","getPoolSetIdForCaller()":"ce998aba","getPoolSetIdForManager(address)":"25c427ed","getPoolsInSet(uint256,uint256,uint256)":"8c60ebd0","isPoolInSet(address,uint256)":"182551da","isValidPoolSetId(uint256)":"255dae41","owner()":"8da5cb5b","ownershipHandoverExpiresAt(address)":"fee81cf4","pausePools(address[])":"a20dc529","pendingOwner()":"e30c3978","removePoolsFromSet(uint256,address[])":"2da55a1d","renounceOwnership()":"715018a6","requestOwnershipHandover()":"25692962","transferOwnership(address)":"f2fde38b","transferPoolSetOwnership(address)":"3700f987","vault()":"fbfa77cf"},"id":311}