{"abi":[{"type":"constructor","inputs":[{"name":"id","type":"bytes32","internalType":"bytes32"}],"stateMutability":"nonpayable"},{"type":"function","name":"getId","inputs":[],"outputs":[{"name":"","type":"bytes32","internalType":"bytes32"}],"stateMutability":"view"}],"bytecode":{"object":"0x6080604052348015600e575f5ffd5b50604051610108380380610108833981016040819052602b916072565b5f819003606c5760405162461bcd60e51b815260206004820152600b60248201526a1393d397d6915493d7d25160aa1b604482015260640160405180910390fd5b5f556088565b5f602082840312156081575f5ffd5b5051919050565b6074806100945f395ff3fe6080604052348015600e575f5ffd5b50600436106026575f3560e01c80635d1ca63114602a575b5f5ffd5b5f5460405190815260200160405180910390f3fea264697066735822122052214ee64ad68a0d74cb11648a51581ec3400eb342628b0c4820db61ba3528f964736f6c634300081e0033","linkReferences":{}},"methodIdentifiers":{"getId()":"5d1ca631"},"id":280}