{"abi":[{"type":"constructor","inputs":[],"stateMutability":"nonpayable"},{"type":"function","name":"create","inputs":[{"name":"id","type":"bytes32","internalType":"bytes32"},{"name":"salt","type":"bytes32","internalType":"bytes32"}],"outputs":[{"name":"","type":"address","internalType":"address"}],"stateMutability":"nonpayable"},{"type":"function","name":"getCreationCode","inputs":[],"outputs":[{"name":"","type":"bytes","internalType":"bytes"}],"stateMutability":"view"},{"type":"function","name":"getCreationCodeContracts","inputs":[],"outputs":[{"name":"contractA","type":"address","internalType":"address"},{"name":"contractB","type":"address","internalType":"address"}],"stateMutability":"view"},{"type":"event","name":"ContractCreated","inputs":[{"name":"destination","type":"address","indexed":false,"internalType":"address"}],"anonymous":false},{"type":"error","name":"CodeDeploymentFailed","inputs":[]},{"type":"error","name":"Create2EmptyBytecode","inputs":[]},{"type":"error","name":"Create2FailedDeployment","inputs":[]},{"type":"error","name":"Create2InsufficientBalance","inputs":[{"name":"balance","type":"uint256","internalType":"uint256"},{"name":"needed","type":"uint256","internalType":"uint256"}]}],"bytecode":{"object":"0x610100604052348015610010575f5ffd5b506040516100206020820161013a565b601f1982820381018352601f9091011660405280515f610041600283610147565b60a081905290505f6100538284610166565b60e08190528285529050835f61006982826100aa565b6001600160a01b03166080525084830180518382526001919061008c82846100aa565b6001600160a01b031660c0529590925250929092525061018b915050565b5f5f826100d7577f602038038060206000396000f3fefefefefefefefefefefefefefefefefefefe6100f9565b7f60fe600053602038038060206001396001016000f3fefefefefefefefefefefe5b9050835181855260208101855ff090855291506001600160a01b0382166101335760405163fef8220760e01b815260040160405180910390fd5b5092915050565b6101088061057e83390190565b5f8261016157634e487b7160e01b5f52601260045260245ffd5b500490565b8181038181111561018557634e487b7160e01b5f52601160045260245ffd5b92915050565b60805160a05160c05160e0516103b46101ca5f395f6101d201525f8181609301526101b101525f61019001525f8181606e015261016f01526103b45ff3fe608060405234801561000f575f5ffd5b506004361061003e575f3560e01c8062c194db14610042578063174481fa14610060578063634bc7db146100be575b5f5ffd5b61004a6100de565b60405161005791906102f6565b60405180910390f35b604080516001600160a01b037f0000000000000000000000000000000000000000000000000000000000000000811682527f000000000000000000000000000000000000000000000000000000000000000016602082015201610057565b6100d16100cc36600461032b565b6100fc565b604051610057919061034b565b60606100f760405180602001604052805f81525061016b565b905090565b5f5f6101298460405160200161011491815260200190565b6040516020818303038152906040528461024d565b90507fcf78cf0d6f3d8371e1075c69c492ab4ec5d8cf23a1a239b6a51a1d00be7ca3128160405161015a919061034b565b60405180910390a190505b92915050565b60607f00000000000000000000000000000000000000000000000000000000000000007f00000000000000000000000000000000000000000000000000000000000000007f00000000000000000000000000000000000000000000000000000000000000007f00000000000000000000000000000000000000000000000000000000000000005f6101fc828561035f565b87519091505f61020c828461035f565b9050604051975060208101880160405280885260208801865f828a3c846001888301883c50602089810190898501018382825e505050505050505050919050565b5f5f6102588461016b565b90506102655f848361026d565b949350505050565b5f8347101561029c5760405163392efb2b60e21b81524760048201526024810185905260440160405180910390fd5b81515f036102bd57604051631328927760e21b815260040160405180910390fd5b8282516020840186f590506001600160a01b0381166102ef57604051633a0ba96160e11b815260040160405180910390fd5b9392505050565b602081525f82518060208401528060208501604085015e5f604082850101526040601f19601f83011684010191505092915050565b5f5f6040838503121561033c575f5ffd5b50508035926020909101359150565b6001600160a01b0391909116815260200190565b8082018082111561016557634e487b7160e01b5f52601160045260245ffdfea26469706673582212209620b4872c5e9a83714f95c3df67f3d34e32971343d79105d4853d7c1f588a4a64736f6c634300081e00336080604052348015600e575f5ffd5b50604051610108380380610108833981016040819052602b916072565b5f819003606c5760405162461bcd60e51b815260206004820152600b60248201526a1393d397d6915493d7d25160aa1b604482015260640160405180910390fd5b5f556088565b5f602082840312156081575f5ffd5b5051919050565b6074806100945f395ff3fe6080604052348015600e575f5ffd5b50600436106026575f3560e01c80635d1ca63114602a575b5f5ffd5b5f5460405190815260200160405180910390f3fea264697066735822122052214ee64ad68a0d74cb11648a51581ec3400eb342628b0c4820db61ba3528f964736f6c634300081e0033","linkReferences":{}},"methodIdentifiers":{"create(bytes32,bytes32)":"634bc7db","getCreationCode()":"00c194db","getCreationCodeContracts()":"174481fa"},"id":280}