{"abi":[{"type":"constructor","inputs":[{"name":"vault","type":"address","internalType":"contract IVault"},{"name":"pauseWindowDuration","type":"uint32","internalType":"uint32"},{"name":"factoryVersion","type":"string","internalType":"string"},{"name":"poolVersion","type":"string","internalType":"string"},{"name":"trustedRouter","type":"address","internalType":"address"},{"name":"migrationRouter","type":"address","internalType":"address"}],"stateMutability":"nonpayable"},{"type":"function","name":"create","inputs":[{"name":"lbpCommonParams","type":"tuple","internalType":"struct LBPCommonParams","components":[{"name":"name","type":"string","internalType":"string"},{"name":"symbol","type":"string","internalType":"string"},{"name":"owner","type":"address","internalType":"address"},{"name":"projectToken","type":"address","internalType":"contract IERC20"},{"name":"reserveToken","type":"address","internalType":"contract IERC20"},{"name":"startTime","type":"uint256","internalType":"uint256"},{"name":"endTime","type":"uint256","internalType":"uint256"},{"name":"blockProjectTokenSwapsIn","type":"bool","internalType":"bool"}]},{"name":"lbpParams","type":"tuple","internalType":"struct LBPParams","components":[{"name":"projectTokenStartWeight","type":"uint256","internalType":"uint256"},{"name":"reserveTokenStartWeight","type":"uint256","internalType":"uint256"},{"name":"projectTokenEndWeight","type":"uint256","internalType":"uint256"},{"name":"reserveTokenEndWeight","type":"uint256","internalType":"uint256"},{"name":"reserveTokenVirtualBalance","type":"uint256","internalType":"uint256"}]},{"name":"swapFeePercentage","type":"uint256","internalType":"uint256"},{"name":"salt","type":"bytes32","internalType":"bytes32"},{"name":"poolCreator","type":"address","internalType":"address"}],"outputs":[{"name":"pool","type":"address","internalType":"address"}],"stateMutability":"nonpayable"},{"type":"function","name":"createWithMigration","inputs":[{"name":"lbpCommonParams","type":"tuple","internalType":"struct LBPCommonParams","components":[{"name":"name","type":"string","internalType":"string"},{"name":"symbol","type":"string","internalType":"string"},{"name":"owner","type":"address","internalType":"address"},{"name":"projectToken","type":"address","internalType":"contract IERC20"},{"name":"reserveToken","type":"address","internalType":"contract IERC20"},{"name":"startTime","type":"uint256","internalType":"uint256"},{"name":"endTime","type":"uint256","internalType":"uint256"},{"name":"blockProjectTokenSwapsIn","type":"bool","internalType":"bool"}]},{"name":"migrationParams","type":"tuple","internalType":"struct MigrationParams","components":[{"name":"migrationRouter","type":"address","internalType":"address"},{"name":"lockDurationAfterMigration","type":"uint256","internalType":"uint256"},{"name":"bptPercentageToMigrate","type":"uint256","internalType":"uint256"},{"name":"migrationWeightProjectToken","type":"uint256","internalType":"uint256"},{"name":"migrationWeightReserveToken","type":"uint256","internalType":"uint256"}]},{"name":"lbpParams","type":"tuple","internalType":"struct LBPParams","components":[{"name":"projectTokenStartWeight","type":"uint256","internalType":"uint256"},{"name":"reserveTokenStartWeight","type":"uint256","internalType":"uint256"},{"name":"projectTokenEndWeight","type":"uint256","internalType":"uint256"},{"name":"reserveTokenEndWeight","type":"uint256","internalType":"uint256"},{"name":"reserveTokenVirtualBalance","type":"uint256","internalType":"uint256"}]},{"name":"swapFeePercentage","type":"uint256","internalType":"uint256"},{"name":"salt","type":"bytes32","internalType":"bytes32"},{"name":"poolCreator","type":"address","internalType":"address"}],"outputs":[{"name":"pool","type":"address","internalType":"address"}],"stateMutability":"nonpayable"},{"type":"function","name":"disable","inputs":[],"outputs":[],"stateMutability":"nonpayable"},{"type":"function","name":"getActionId","inputs":[{"name":"selector","type":"bytes4","internalType":"bytes4"}],"outputs":[{"name":"","type":"bytes32","internalType":"bytes32"}],"stateMutability":"view"},{"type":"function","name":"getAuthorizer","inputs":[],"outputs":[{"name":"","type":"address","internalType":"contract IAuthorizer"}],"stateMutability":"view"},{"type":"function","name":"getCreationCode","inputs":[],"outputs":[{"name":"","type":"bytes","internalType":"bytes"}],"stateMutability":"view"},{"type":"function","name":"getCreationCodeContracts","inputs":[],"outputs":[{"name":"contractA","type":"address","internalType":"address"},{"name":"contractB","type":"address","internalType":"address"}],"stateMutability":"view"},{"type":"function","name":"getDefaultLiquidityManagement","inputs":[],"outputs":[{"name":"liquidityManagement","type":"tuple","internalType":"struct LiquidityManagement","components":[{"name":"disableUnbalancedLiquidity","type":"bool","internalType":"bool"},{"name":"enableAddLiquidityCustom","type":"bool","internalType":"bool"},{"name":"enableRemoveLiquidityCustom","type":"bool","internalType":"bool"},{"name":"enableDonation","type":"bool","internalType":"bool"}]}],"stateMutability":"pure"},{"type":"function","name":"getDefaultPoolHooksContract","inputs":[],"outputs":[{"name":"","type":"address","internalType":"address"}],"stateMutability":"pure"},{"type":"function","name":"getDeploymentAddress","inputs":[{"name":"constructorArgs","type":"bytes","internalType":"bytes"},{"name":"salt","type":"bytes32","internalType":"bytes32"}],"outputs":[{"name":"","type":"address","internalType":"address"}],"stateMutability":"view"},{"type":"function","name":"getMaxBptLockDuration","inputs":[],"outputs":[{"name":"","type":"uint256","internalType":"uint256"}],"stateMutability":"pure"},{"type":"function","name":"getMigrationRouter","inputs":[],"outputs":[{"name":"","type":"address","internalType":"address"}],"stateMutability":"view"},{"type":"function","name":"getMinReserveTokenMigrationWeight","inputs":[],"outputs":[{"name":"","type":"uint256","internalType":"uint256"}],"stateMutability":"pure"},{"type":"function","name":"getNewPoolPauseWindowEndTime","inputs":[],"outputs":[{"name":"","type":"uint32","internalType":"uint32"}],"stateMutability":"view"},{"type":"function","name":"getOriginalPauseWindowEndTime","inputs":[],"outputs":[{"name":"","type":"uint32","internalType":"uint32"}],"stateMutability":"view"},{"type":"function","name":"getPauseWindowDuration","inputs":[],"outputs":[{"name":"","type":"uint32","internalType":"uint32"}],"stateMutability":"view"},{"type":"function","name":"getPoolCount","inputs":[],"outputs":[{"name":"","type":"uint256","internalType":"uint256"}],"stateMutability":"view"},{"type":"function","name":"getPoolVersion","inputs":[],"outputs":[{"name":"","type":"string","internalType":"string"}],"stateMutability":"view"},{"type":"function","name":"getPools","inputs":[],"outputs":[{"name":"","type":"address[]","internalType":"address[]"}],"stateMutability":"view"},{"type":"function","name":"getPoolsInRange","inputs":[{"name":"start","type":"uint256","internalType":"uint256"},{"name":"count","type":"uint256","internalType":"uint256"}],"outputs":[{"name":"pools","type":"address[]","internalType":"address[]"}],"stateMutability":"view"},{"type":"function","name":"getTrustedRouter","inputs":[],"outputs":[{"name":"","type":"address","internalType":"address"}],"stateMutability":"view"},{"type":"function","name":"getVault","inputs":[],"outputs":[{"name":"","type":"address","internalType":"contract IVault"}],"stateMutability":"view"},{"type":"function","name":"isDisabled","inputs":[],"outputs":[{"name":"","type":"bool","internalType":"bool"}],"stateMutability":"view"},{"type":"function","name":"isPoolFromFactory","inputs":[{"name":"pool","type":"address","internalType":"address"}],"outputs":[{"name":"","type":"bool","internalType":"bool"}],"stateMutability":"view"},{"type":"function","name":"version","inputs":[],"outputs":[{"name":"","type":"string","internalType":"string"}],"stateMutability":"view"},{"type":"event","name":"FactoryDisabled","inputs":[],"anonymous":false},{"type":"event","name":"LBPoolCreated","inputs":[{"name":"pool","type":"address","indexed":true,"internalType":"address"},{"name":"projectToken","type":"address","indexed":true,"internalType":"contract IERC20"},{"name":"reserveToken","type":"address","indexed":true,"internalType":"contract IERC20"}],"anonymous":false},{"type":"event","name":"MigrationParamsSet","inputs":[{"name":"pool","type":"address","indexed":true,"internalType":"address"},{"name":"lockDurationAfterMigration","type":"uint256","indexed":false,"internalType":"uint256"},{"name":"bptPercentageToMigrate","type":"uint256","indexed":false,"internalType":"uint256"},{"name":"migrationWeightProjectToken","type":"uint256","indexed":false,"internalType":"uint256"},{"name":"migrationWeightReserveToken","type":"uint256","indexed":false,"internalType":"uint256"}],"anonymous":false},{"type":"event","name":"PoolCreated","inputs":[{"name":"pool","type":"address","indexed":true,"internalType":"address"}],"anonymous":false},{"type":"event","name":"WeightedLBPoolCreated","inputs":[{"name":"pool","type":"address","indexed":true,"internalType":"address"},{"name":"owner","type":"address","indexed":true,"internalType":"address"},{"name":"blockProjectTokenSwapsIn","type":"bool","indexed":false,"internalType":"bool"},{"name":"hasMigration","type":"bool","indexed":false,"internalType":"bool"},{"name":"isSeedless","type":"bool","indexed":false,"internalType":"bool"}],"anonymous":false},{"type":"error","name":"CodeDeploymentFailed","inputs":[]},{"type":"error","name":"Create2EmptyBytecode","inputs":[]},{"type":"error","name":"Create2FailedDeployment","inputs":[]},{"type":"error","name":"Create2InsufficientBalance","inputs":[{"name":"balance","type":"uint256","internalType":"uint256"},{"name":"needed","type":"uint256","internalType":"uint256"}]},{"type":"error","name":"Disabled","inputs":[]},{"type":"error","name":"IndexOutOfBounds","inputs":[]},{"type":"error","name":"InvalidBptLockDuration","inputs":[]},{"type":"error","name":"InvalidBptPercentageToMigrate","inputs":[]},{"type":"error","name":"InvalidMigrationWeights","inputs":[]},{"type":"error","name":"InvalidOwner","inputs":[]},{"type":"error","name":"InvalidProjectToken","inputs":[]},{"type":"error","name":"InvalidReserveToken","inputs":[]},{"type":"error","name":"InvalidStartTime","inputs":[{"name":"resolvedStartTime","type":"uint256","internalType":"uint256"},{"name":"endTime","type":"uint256","internalType":"uint256"}]},{"type":"error","name":"InvalidTrustedRouter","inputs":[]},{"type":"error","name":"MigrationRouterRequired","inputs":[]},{"type":"error","name":"MinWeight","inputs":[]},{"type":"error","name":"NormalizedWeightInvariant","inputs":[]},{"type":"error","name":"PoolPauseWindowDurationOverflow","inputs":[]},{"type":"error","name":"ReentrancyGuardReentrantCall","inputs":[]},{"type":"error","name":"SenderNotAllowed","inputs":[]},{"type":"error","name":"StandardPoolWithCreator","inputs":[]},{"type":"error","name":"TokensMustBeDifferent","inputs":[]},{"type":"error","name":"VaultNotSet","inputs":[]}],"bytecode":{"object":"0x6101c0604052348015610010575f5ffd5b50604051619c25380380619c2583398101604081905261002f9161032f565b858585858585604051806020016100459061026e565b6020820181038252601f19601f8201166040525084878783818380306001600160a01b03165f1b80855f815190505f60028261008191906103fc565b60a081905290505f610093828461041b565b60e08190528285529050835f6100a982826101ce565b6001600160a01b0316608052508483018051838252600191906100cc82846101ce565b6001600160a01b0390811660c05296909352919091525050506101009290925250821661010c57604051630647140b60e51b815260040160405180910390fd5b506001600160a01b031661012052505f61012c63ffffffff831642610434565b905063ffffffff811115610153576040516368755a1160e01b815260040160405180910390fd5b63ffffffff91821661014052166101605250610172915082905061025e565b506001600160a01b03831661019a57604051630307417b60e01b815260040160405180910390fd5b6001600160a01b038084166101805282166101a05260046101bb85826104cb565b5050505050505050505050505050610585565b5f5f826101fb577f602038038060206000396000f3fefefefefefefefefefefefefefefefefefefe61021d565b7f60fe600053602038038060206001396001016000f3fefefefefefefefefefefe5b9050835181855260208101855ff090855291506001600160a01b0382166102575760405163fef8220760e01b815260040160405180910390fd5b5092915050565b600361026a82826104cb565b5050565b617940806122e583390190565b6001600160a01b038116811461028f575f5ffd5b50565b634e487b7160e01b5f52604160045260245ffd5b5f82601f8301126102b5575f5ffd5b81516001600160401b038111156102ce576102ce610292565b604051601f8201601f19908116603f011681016001600160401b03811182821017156102fc576102fc610292565b604052818152838201602001851015610313575f5ffd5b8160208501602083015e5f918101602001919091529392505050565b5f5f5f5f5f5f60c08789031215610344575f5ffd5b865161034f8161027b565b602088015190965063ffffffff81168114610368575f5ffd5b60408801519095506001600160401b03811115610383575f5ffd5b61038f89828a016102a6565b606089015190955090506001600160401b038111156103ac575f5ffd5b6103b889828a016102a6565b93505060808701516103c98161027b565b60a08801519092506103da8161027b565b809150509295509295509295565b634e487b7160e01b5f52601160045260245ffd5b5f8261041657634e487b7160e01b5f52601260045260245ffd5b500490565b8181038181111561042e5761042e6103e8565b92915050565b8082018082111561042e5761042e6103e8565b600181811c9082168061045b57607f821691505b60208210810361047957634e487b7160e01b5f52602260045260245ffd5b50919050565b601f8211156104c657805f5260205f20601f840160051c810160208510156104a45750805b601f840160051c820191505b818110156104c3575f81556001016104b0565b50505b505050565b81516001600160401b038111156104e4576104e4610292565b6104f8816104f28454610447565b8461047f565b6020601f82116001811461052a575f83156105135750848201515b5f19600385901b1c1916600184901b1784556104c3565b5f84815260208120601f198516915b828110156105595787850151825560209485019460019092019101610539565b508482101561057657868401515f19600387901b60f8161c191681555b50505050600190811b01905550565b60805160a05160c05160e05161010051610120516101405161016051610180516101a051611cc06106255f395f81816102eb015261098601525f818161033c01526109da01525f8181610378015281816107d3015261080601525f6102a101525f8181610746015261103c01525f6106b801525f61088f01525f8181610185015261086e01525f61084d01525f8181610160015261082c0152611cc05ff3fe608060405234801561000f575f5ffd5b5060043610610130575f3560e01c8062c194db14610134578063174481fa14610152578063193ad50f146101b057806325e82bf3146101c55780632f2770db146101f05780633f819b6f146101fa57806344f6fec71461020257806353a72f7e1461021557806354fd4d5014610235578063598593951461023d5780636634b75314610251578063673a2a1f1461028c5780636c57f5a91461029457806378da80cb1461029f578063851c1bb3146102d657806386a2d875146102e95780638ce9cb3e1461030f5780638d928af8146103225780638eec5d701461032a578063aaabadc514610332578063af905d151461033a578063b3f8836714610360578063db035ebc1461036e578063e9d56e1914610376578063ec8880611461039c575b5f5ffd5b61013c6103a2565b604051610149919061144b565b60405180910390f35b604080516001600160a01b037f0000000000000000000000000000000000000000000000000000000000000000811682527f000000000000000000000000000000000000000000000000000000000000000016602082015201610149565b6101b86103c0565b6040516101499190611498565b6101d86101d33660046116e8565b6103e6565b6040516001600160a01b039091168152602001610149565b6101f8610447565b005b61013c61048e565b6101d861021036600461175b565b61051e565b6102286102233660046117af565b61053f565b60405161014991906117cf565b61013c610647565b6301e133805b604051908152602001610149565b61027c61025f36600461181a565b6001600160a01b03165f9081526020819052604090205460ff1690565b6040519015158152602001610149565b610228610656565b60025460ff1661027c565b7f00000000000000000000000000000000000000000000000000000000000000005b60405163ffffffff9091168152602001610149565b6102436102e4366004611835565b6106b5565b7f00000000000000000000000000000000000000000000000000000000000000006101d8565b6101d861031d36600461185c565b610719565b6101d8610744565b600154610243565b6101d8610768565b7f00000000000000000000000000000000000000000000000000000000000000006101d8565b6702c68af0bb140000610243565b6102c16107d0565b7f00000000000000000000000000000000000000000000000000000000000000006102c1565b5f6101d8565b60606103bb60405180602001604052805f815250610828565b905090565b604080516080810182525f80825260208201819052918101829052606081019190915290565b5f6103ef61090a565b6104256040518060a001604052805f6001600160a01b031681526020015f81526020015f81526020015f81526020015f81525090565b610433878288888888610953565b91505061043e610b60565b95945050505050565b61044f610b77565b610457610bb8565b6002805460ff191660011790556040517f432acbfd662dbb5d8b378384a67159b47ca9d0f1b79f97cf64cf8585fa362d50905f90a1565b60606004805461049d90611929565b80601f01602080910402602001604051908101604052809291908181526020018280546104c990611929565b80156105145780601f106104eb57610100808354040283529160200191610514565b820191905f5260205f20905b8154815290600101906020018083116104f757829003601f168201915b5050505050905090565b5f5f61052983610bdc565b90506105358482610bff565b9150505b92915050565b60015460609080841061056557604051634e23d03560e01b815260040160405180910390fd5b5f6105708486611975565b905081811115610587576105848583611988565b93505b836001600160401b0381111561059f5761059f6114a6565b6040519080825280602002602001820160405280156105c8578160200160208202803683370190505b5092505f5b8481101561063e5760016105e18288611975565b815481106105f1576105f161199b565b905f5260205f20015f9054906101000a90046001600160a01b031684828151811061061e5761061e61199b565b6001600160a01b03909216602092830291909101909101526001016105cd565b50505092915050565b60606003805461049d90611929565b6060600180548060200260200160405190810160405280929190818152602001828054801561051457602002820191905f5260205f20905b81546001600160a01b0316815260019091019060200180831161068e575050505050905090565b5f7f0000000000000000000000000000000000000000000000000000000000000000826040516020016106fc9291909182526001600160e01b031916602082015260240190565b604051602081830303815290604052805190602001209050919050565b5f61072261090a565b610730878787878787610953565b905061073a610b60565b9695505050505050565b7f000000000000000000000000000000000000000000000000000000000000000090565b5f610771610744565b6001600160a01b031663aaabadc56040518163ffffffff1660e01b8152600401602060405180830381865afa1580156107ac573d5f5f3e3d5ffd5b505050506040513d601f19601f820116820180604052508101906103bb91906119af565b5f7f000000000000000000000000000000000000000000000000000000000000000063ffffffff16421061080357505f90565b507f000000000000000000000000000000000000000000000000000000000000000090565b60607f00000000000000000000000000000000000000000000000000000000000000007f00000000000000000000000000000000000000000000000000000000000000007f00000000000000000000000000000000000000000000000000000000000000007f00000000000000000000000000000000000000000000000000000000000000005f6108b98285611975565b87519091505f6108c98284611975565b9050604051975060208101880160405280885260208801865f828a3c846001888301883c50602089810190898501018382825e505050505050505050919050565b5f516020611c6b5f395f51905f525c1561093757604051633ee5aeb560e01b815260040160405180910390fd5b61095160015f516020611c6b5f395f51905f525b90610c1d565b565b5f61095d87610c24565b60a0880152845160208601516040870151606088015161097f93929190610cf3565b5f6109aa877f0000000000000000000000000000000000000000000000000000000000000000610da3565b90505f5f87608001511190505f60405180606001604052806109ca610744565b6001600160a01b031681526020017f00000000000000000000000000000000000000000000000000000000000000006001600160a01b0316815260200160048054610a1490611929565b80601f0160208091040260200160405190810160405280929190818152602001828054610a4090611929565b8015610a8b5780601f10610a6257610100808354040283529160200191610a8b565b820191905f5260205f20905b815481529060010190602001808311610a6e57829003601f168201915b50505050508152509050610ac48a8a8a84604051602001610aaf9493929190611a02565b60405160208183030381529060405287610ee0565b9350610ad2848b8988610f02565b89604001516001600160a01b0316846001600160a01b03167fbd4db908c3f530ed896bf7c45fbd48f78ff6094804a0cd5e6a8bb153668311318c60e001518686604051610b3693929190921515835290151560208301521515604082015260600190565b60405180910390a3610b53848b606001518c608001518c87610f74565b5050509695505050505050565b6109515f5f516020611c6b5f395f51905f5261094b565b5f610b8c5f356001600160e01b0319166106b5565b9050610b988133611039565b610bb5576040516323dada5360e01b815260040160405180910390fd5b50565b60025460ff161561095157604051633ac4266d60e11b815260040160405180910390fd5b604080513360208201524691810191909152606081018290525f906080016106fc565b5f5f610c0a84610828565b9050610535838280519060200120611138565b80825d5050565b60408101515f906001600160a01b0316610c51576040516349e27cff60e01b815260040160405180910390fd5b60608201516001600160a01b0316610c7c576040516359977db360e01b815260040160405180910390fd5b60808201516001600160a01b0316610ca757604051635577403d60e11b815260040160405180910390fd5b81608001516001600160a01b031682606001516001600160a01b031603610ce15760405163fbfc7a9160e01b815260040160405180910390fd5b6105398260a001518360c00151611144565b662386f26fc10000841080610d0e5750662386f26fc1000083105b80610d1f5750662386f26fc1000082105b80610d305750662386f26fc1000081105b15610d4e5760405163bd39358360e01b815260040160405180910390fd5b670de0b6b3a7640000610d618486611975565b141580610d7f5750670de0b6b3a7640000610d7c8284611975565b14155b15610d9d57604051631ce788a760e11b815260040160405180910390fd5b50505050565b5f82604001515f141580610dba5750602083015115155b80610dc85750606083015115155b80610dd65750608083015115155b90508015610539576001600160a01b038216610e05576040516358cce8fd60e11b815260040160405180910390fd5b5f83608001518460600151610e1a9190611975565b9050670de0b6b3a764000081141580610e3557506060840151155b80610e4b57506702c68af0bb1400008460800151105b15610e695760405163063ecd6560e41b815260040160405180910390fd5b670de0b6b3a764000084604001511180610e8557506040840151155b15610ea357604051631453342160e01b815260040160405180910390fd5b6301e1338084602001511180610ebb57506020840151155b15610ed95760405163638ac49560e11b815260040160405180910390fd5b5092915050565b5f5f610eeb83610bdc565b9050610ef78482611181565b9150610ed982611199565b604080516060810182525f8082526020820181905291810182905290610f266103c0565b600181526040808701516001600160a01b03908116602086015285169084015260608601516080870151919250610f6c918891610f629161122b565b865f868b876112e9565b505050505050565b826001600160a01b0316846001600160a01b0316866001600160a01b03167f6b01c8c0b16cf8e7a1a9158019b5fe7d40b415d756710eb0fdcb577701dfee8460405160405180910390a4801561103257846001600160a01b03167fefacf6961627002b9ddb197c362cb69fd417ca3441f3b8ff59a832d0027f81b68360200151846040015185606001518660800151604051611029949392919093845260208401929092526040830152606082015260800190565b60405180910390a25b5050505050565b5f7f00000000000000000000000000000000000000000000000000000000000000006001600160a01b031663aaabadc56040518163ffffffff1660e01b8152600401602060405180830381865afa158015611096573d5f5f3e3d5ffd5b505050506040513d601f19601f820116820180604052508101906110ba91906119af565b6040516326f8aa2160e21b8152600481018590526001600160a01b0384811660248301523060448301529190911690639be2a88490606401602060405180830381865afa15801561110d573d5f5f3e3d5ffd5b505050506040513d601f19601f820116820180604052508101906111319190611b34565b9392505050565b5f611131838330611367565b5f61114f4284611390565b905081811115610539576040516364bb3b8360e11b815260048101829052602481018390526044015b60405180910390fd5b5f5f61118c84610828565b90506105355f848361139f565b6111a1610bb8565b6001600160a01b0381165f81815260208190526040808220805460ff19166001908117909155805480820182559083527fb10e2d527612073b26eecdfd717e6a320cf44b4afac2b0732d9fcbe2b7fa0cf60180546001600160a01b03191684179055517f83a48fbcfc991335314e74d0496aab6a1987e992ddc85dddbcc4d6dd6ef2e9fc9190a250565b6040805160028082526060828101909352816020015b604080516080810182525f8082526020808301829052928201819052606082015282525f19909201910181611241579050509050816001600160a01b0316836001600160a01b031610611295578183611298565b82825b825f815181106112aa576112aa61199b565b60200260200101515f01836001815181106112c7576112c761199b565b60209081029190910101516001600160a01b0392831690529116905292915050565b6112f1610744565b6001600160a01b031663eeec802f88888861130a6107d0565b898989896040518963ffffffff1660e01b8152600401611331989796959493929190611b4f565b5f604051808303815f87803b158015611348575f5ffd5b505af115801561135a573d5f5f3e3d5ffd5b5050505050505050505050565b5f604051836040820152846020820152828152600b8101905060ff815360559020949350505050565b5f818310828418028318611131565b5f834710156113ca5760405163392efb2b60e21b815247600482015260248101859052604401611178565b81515f036113eb57604051631328927760e21b815260040160405180910390fd5b8282516020840186f590506001600160a01b03811661113157604051633a0ba96160e11b815260040160405180910390fd5b5f81518084528060208401602086015e5f602082860101526020601f19601f83011685010191505092915050565b602081525f611131602083018461141d565b6001600160a01b03169052565b8051151582526020810151151560208301526040810151151560408301526060810151151560608301525050565b60808101610539828461146a565b634e487b7160e01b5f52604160045260245ffd5b60405161010081016001600160401b03811182821017156114dd576114dd6114a6565b60405290565b60405160a081016001600160401b03811182821017156114dd576114dd6114a6565b5f806001600160401b0384111561151e5761151e6114a6565b50604051601f19601f85018116603f011681018181106001600160401b038211171561154c5761154c6114a6565b604052838152905080828401851015611563575f5ffd5b838360208301375f60208583010152509392505050565b5f82601f830112611589575f5ffd5b61113183833560208501611505565b6001600160a01b0381168114610bb5575f5ffd5b80356115b781611598565b919050565b8015158114610bb5575f5ffd5b80356115b7816115bc565b5f61010082840312156115e5575f5ffd5b6115ed6114ba565b905081356001600160401b03811115611604575f5ffd5b6116108482850161157a565b82525060208201356001600160401b0381111561162b575f5ffd5b6116378482850161157a565b602083015250611649604083016115ac565b604082015261165a606083016115ac565b606082015261166b608083016115ac565b608082015260a0828101359082015260c0808301359082015261169060e083016115c9565b60e082015292915050565b5f60a082840312156116ab575f5ffd5b6116b36114e3565b823581526020808401359082015260408084013590820152606080840135908201526080928301359281019290925250919050565b5f5f5f5f5f61012086880312156116fd575f5ffd5b85356001600160401b03811115611712575f5ffd5b61171e888289016115d4565b95505061172e876020880161169b565b935060c0860135925060e0860135915061010086013561174d81611598565b809150509295509295909350565b5f5f6040838503121561176c575f5ffd5b82356001600160401b03811115611781575f5ffd5b8301601f81018513611791575f5ffd5b6117a085823560208401611505565b95602094909401359450505050565b5f5f604083850312156117c0575f5ffd5b50508035926020909101359150565b602080825282518282018190525f918401906040840190835b8181101561180f5783516001600160a01b03168352602093840193909201916001016117e8565b509095945050505050565b5f6020828403121561182a575f5ffd5b813561113181611598565b5f60208284031215611845575f5ffd5b81356001600160e01b031981168114611131575f5ffd5b5f5f5f5f5f5f8688036101c0811215611873575f5ffd5b87356001600160401b03811115611888575f5ffd5b6118948a828b016115d4565b97505060a0601f19820112156118a8575f5ffd5b506118b16114e3565b60208801356118bf81611598565b815260408881013560208301526060808a0135918301919091526080808a01359183019190915260a08901359082015294506118fe8860c0890161169b565b93506101608701359250610180870135915061191d6101a088016115ac565b90509295509295509295565b600181811c9082168061193d57607f821691505b60208210810361195b57634e487b7160e01b5f52602260045260245ffd5b50919050565b634e487b7160e01b5f52601160045260245ffd5b8082018082111561053957610539611961565b8181038181111561053957610539611961565b634e487b7160e01b5f52603260045260245ffd5b5f602082840312156119bf575f5ffd5b815161113181611598565b60018060a01b03815116825260018060a01b0360208201511660208301525f604082015160606040850152610535606085018261141d565b61018081525f8551610100610180840152611a2161028084018261141d565b9050602087015161017f19848303016101a0850152611a40828261141d565b60408901516001600160a01b03166101c086015260608901519092509050611a6c6101e085018261145d565b506080870151611a8061020085018261145d565b5060a087015161022084015260c087015161024084015260e087015180151561026085015250611ae4602084018780516001600160a01b03168252602080820151908301526040808201519083015260608082015190830152608090810151910152565b845160c0840152602085015160e0840152604085015161010084015260608501516101208401526080850151610140840152828103610160840152611b2981856119ca565b979650505050505050565b5f60208284031215611b44575f5ffd5b8151611131816115bc565b6001600160a01b03891681526101a0602080830182905289519183018290525f91908a01906101c0840190835b81811015611bf257835180516001600160a01b03168452602081015160028110611bb457634e487b7160e01b5f52602160045260245ffd5b6020858101919091526040828101516001600160a01b0316908601526060918201511515918501919091529390930192608090920191600101611b7c565b5050604084018a905263ffffffff891660608501529150611c109050565b851515608083015284516001600160a01b0390811660a08401526020860151811660c084015260408601511660e0830152611c4f61010083018561145d565b611c5d61012083018461146a565b999850505050505050505056fe9b779b17422d0df92223018b32b4d1fa46e071723d6817e2486d003becc55f00a2646970667358221220d61d68437f9856ffd89ffcfd7cfea5f735e66ca34c9e4332d15fa1385e80196f64736f6c634300081e0033610580604052348015610010575f5ffd5b5060405161794038038061794083398101604081905261002f91610ead565b6100448483836040015161055860201b60201c565b815f015181608001518182845f015185602001518282604051806040016040528060018152602001603160f81b8152508d8d8c602001518f5f015183604001515f6001600160a01b0316816001600160a01b0316036100bd57604051631e4fbdf760e01b81525f60048201526024015b60405180910390fd5b6100c681610726565b506100d084610762565b60a08501526100df838261083d565b506001600160a01b03808316608090815282821660a0908152606087018051841660c09081529288018051851660e09081529289015161014052928801516101605290870151151561018052905190519082169116106101415760015f610145565b5f60015b60ff908116610120521661010052505060208101516101a05260408101516101c05260608101516101e0526080015161020052506001610185838261106e565b506002610192828261106e565b508151602092830120610220528051910120610240526001600160a01b03166102605260046101c1838261106e565b5060056101ce828261106e565b505050506001600160a01b0316610280526101e88161097a565b5060408201516102a0819052606083015151610204919061098a565b5f805b6102a0518160ff1610156103a3575f84606001518260ff168151811061022f5761022f611128565b60200260200101519050662386f26fc100008110156102615760405163bd39358360e01b815260040160405180910390fd5b61026b8184611150565b92505f8560a001518360ff168151811061028757610287611128565b60200260200101519050620f42408110156102b557604051633bdab6b560e21b815260040160405180910390fd5b8260ff165f036102d0576102c08290526103c0819052610390565b8260ff166001036102ec576102e08290526103e0819052610390565b8260ff1660020361030857610300829052610400819052610390565b8260ff1660030361032457610320829052610420819052610390565b8260ff1660040361034057610340829052610440819052610390565b8260ff1660050361035c57610360829052610460819052610390565b8260ff1660060361037857610380829052610480819052610390565b8260ff16600703610390576103a08290526104a08190525b50508061039c90611163565b9050610207565b50670de0b6b3a764000081146103cc57604051631ce788a760e11b815260040160405180910390fd5b505082516020840151604085015160608601516103e994506109aa565b81516104c05260208201516104e052604082015161050052606082015161052052608084015161041890610a5a565b610560819052608083015161042c91610ad1565b610540526040805160028082526060820183525f9260208301908036833750506040805160028082526060820183529394505f9390925090602083019080368337019050509050835f0151846020015183610100518151811061049157610491611128565b602002602001018461012051815181106104ad576104ad611128565b6020026020010182815250828152505050836040015184606001518261010051815181106104dd576104dd611128565b602002602001018361012051815181106104f9576104f9611128565b60200260200101828152508281525050507f0f3631f9dab08169d1db21c6dc5f32536fb2b0a6b9bb5330d71c52132f968be06101405161016051848460405161054594939291906111bb565b60405180910390a1505050505050611355565b6105906040518060c0016040528060608152602001606081526020015f81526020016060815260200160608152602001606081525090565b5f5f85608001516001600160a01b031686606001516001600160a01b0316106105bb5760015f6105bf565b5f60015b60408051600280825260608201835260ff94851696509290931693505f929190602083019080368337019050509050855f015181848151811061060457610604611128565b602002602001018181525050856020015181838151811061062757610627611128565b6020908102919091010152604080516002808252606082019092525f91816020015b604080516080810182525f8082526020808301829052928201819052606082015282525f19909201910181610649579050509050876060015181858151811061069457610694611128565b60209081029190910101516001600160a01b039091169052608088015181518290859081106106c5576106c5611128565b60209081029190910101516001600160a01b0390911690525f6106e782610ae3565b6040805160c0810182528b51815260209b8c01519b81019b909b526002908b015260608a01939093525050608087019490945250505060a08301525090565b6001600160a01b0316638b78c6d819819055805f7f8be0079c531659141344cd1fd0a4f28419497f9722a3daafe3b4186f6b6457e08180a35b50565b60408101515f906001600160a01b031661078f576040516349e27cff60e01b815260040160405180910390fd5b60608201516001600160a01b03166107ba576040516359977db360e01b815260040160405180910390fd5b60808201516001600160a01b03166107e557604051635577403d60e11b815260040160405180910390fd5b81608001516001600160a01b031682606001516001600160a01b03160361081f5760405163fbfc7a9160e01b815260040160405180910390fd5b6108378260a001518360c00151610c2160201b60201c565b92915050565b5f82604001515f1415806108545750602083015115155b806108625750606083015115155b806108705750608083015115155b90508015610837576001600160a01b03821661089f576040516358cce8fd60e11b815260040160405180910390fd5b5f836080015184606001516108b49190611150565b9050670de0b6b3a7640000811415806108cf57506060840151155b806108e557506702c68af0bb1400008460800151105b156109035760405163063ecd6560e41b815260040160405180910390fd5b670de0b6b3a76400008460400151118061091f57506040840151155b1561093d57604051631453342160e01b815260040160405180910390fd5b6301e133808460200151118061095557506020840151155b156109735760405163638ac49560e11b815260040160405180910390fd5b5092915050565b6006610986828261106e565b5050565b8082146109865760405163aaad13f760e01b815260040160405180910390fd5b662386f26fc100008410806109c55750662386f26fc1000083105b806109d65750662386f26fc1000082105b806109e75750662386f26fc1000081105b15610a055760405163bd39358360e01b815260040160405180910390fd5b670de0b6b3a7640000610a188486611150565b141580610a365750670de0b6b3a7640000610a338284611150565b14155b15610a5457604051631ce788a760e11b815260040160405180910390fd5b50505050565b5f816001600160a01b031663313ce5676040518163ffffffff1660e01b8152600401602060405180830381865afa158015610a97573d5f5f3e3d5ffd5b505050506040513d601f19601f82011682018060405250810190610abb91906111f6565b610ac6906012611216565b61083790600a611312565b5f610adc8284611320565b9392505050565b8051606090806001600160401b03811115610b0057610b00610c63565b604051908082528060200260200182016040528015610b29578160200160208202803683370190505b509150620f42405f5b82811015610c19575f858281518110610b4d57610b4d611128565b60200260200101515f015190505f816001600160a01b031663313ce5676040518163ffffffff1660e01b8152600401602060405180830381865afa158015610b97573d5f5f3e3d5ffd5b505050506040513d601f19601f82011682018060405250810190610bbb91906111f6565b60ff1690505f610bcc826012611337565b610bd790600a61134a565b9050610bed85825f818310828418028318610adc565b878581518110610bff57610bff611128565b602002602001018181525050505050806001019050610b32565b505050919050565b5f610c3642845f818310828418028318610adc565b905081811115610837576040516364bb3b8360e11b815260048101829052602481018390526044016100b4565b634e487b7160e01b5f52604160045260245ffd5b60405160a081016001600160401b0381118282101715610c9957610c99610c63565b60405290565b60405161010081016001600160401b0381118282101715610c9957610c99610c63565b5f82601f830112610cd1575f5ffd5b81516001600160401b03811115610cea57610cea610c63565b604051601f8201601f19908116603f011681016001600160401b0381118282101715610d1857610d18610c63565b604052818152838201602001851015610d2f575f5ffd5b8160208501602083015e5f918101602001919091529392505050565b6001600160a01b038116811461075f575f5ffd5b8051610d6a81610d4b565b919050565b80518015158114610d6a575f5ffd5b5f60a08284031215610d8e575f5ffd5b610d96610c77565b90508151610da381610d4b565b815260208281015190820152604080830151908201526060808301519082015260809182015191810191909152919050565b5f60a08284031215610de5575f5ffd5b610ded610c77565b825181526020808401519082015260408084015190820152606080840151908201526080928301519281019290925250919050565b5f60608284031215610e32575f5ffd5b604051606081016001600160401b0381118282101715610e5457610e54610c63565b80604052508091508251610e6781610d4b565b81526020830151610e7781610d4b565b602082015260408301516001600160401b03811115610e94575f5ffd5b610ea085828601610cc2565b6040830152505092915050565b5f5f5f5f6101808587031215610ec1575f5ffd5b84516001600160401b03811115610ed6575f5ffd5b85016101008188031215610ee8575f5ffd5b610ef0610c9f565b81516001600160401b03811115610f05575f5ffd5b610f1189828501610cc2565b82525060208201516001600160401b03811115610f2c575f5ffd5b610f3889828501610cc2565b602083015250610f4a60408301610d5f565b6040820152610f5b60608301610d5f565b6060820152610f6c60808301610d5f565b608082015260a0828101519082015260c08083015190820152610f9160e08301610d6f565b60e08201529450610fa790508660208701610d7e565b9250610fb68660c08701610dd5565b6101608601519092506001600160401b03811115610fd2575f5ffd5b610fde87828801610e22565b91505092959194509250565b600181811c90821680610ffe57607f821691505b60208210810361101c57634e487b7160e01b5f52602260045260245ffd5b50919050565b601f82111561106957805f5260205f20601f840160051c810160208510156110475750805b601f840160051c820191505b81811015611066575f8155600101611053565b50505b505050565b81516001600160401b0381111561108757611087610c63565b61109b816110958454610fea565b84611022565b6020601f8211600181146110cd575f83156110b65750848201515b5f19600385901b1c1916600184901b178455611066565b5f84815260208120601f198516915b828110156110fc57878501518255602094850194600190920191016110dc565b508482101561111957868401515f19600387901b60f8161c191681555b50505050600190811b01905550565b634e487b7160e01b5f52603260045260245ffd5b634e487b7160e01b5f52601160045260245ffd5b808201808211156108375761083761113c565b5f60ff821660ff81036111785761117861113c565b60010192915050565b5f8151808452602084019350602083015f5b828110156111b1578151865260209586019590910190600101611193565b5093949350505050565b848152836020820152608060408201525f6111d96080830185611181565b82810360608401526111eb8185611181565b979650505050505050565b5f60208284031215611206575f5ffd5b815160ff81168114610adc575f5ffd5b60ff82811682821603908111156108375761083761113c565b6001815b600184111561126a5780850481111561124e5761124e61113c565b600184161561125c57908102905b60019390931c928002611233565b935093915050565b5f8261128057506001610837565b8161128c57505f610837565b81600181146112a257600281146112ac576112c8565b6001915050610837565b60ff8411156112bd576112bd61113c565b50506001821b610837565b5060208310610133831016604e8410600b84101617156112eb575081810a610837565b6112f75f19848461122f565b805f190482111561130a5761130a61113c565b029392505050565b5f610adc60ff841683611272565b80820281158282048414176108375761083761113c565b818103818111156108375761083761113c565b5f610adc8383611272565b60805160a05160c05160e05161010051610120516101405161016051610180516101a0516101c0516101e05161020051610220516102405161026051610280516102a0516102c0516102e05161030051610320516103405161036051610380516103a0516103c0516103e05161040051610420516104405161046051610480516104a0516104c0516104e051610500516105205161054051610560516161696117d75f395f81816112a2015281816123bc0152612c0b01525f8181611258015281816112810152818161148b01528181611b5d01528181611bce01528181612058015281816120cd015281816123080152818161232e0152818161239b015281816124c4015281816124ea01528181612bea0152612c3201525f81816111f50152611e9401525f818161119601528181611e730152613e0f01525f818161110a0152611db501525f81816110ab01528181611d940152613dee01525f8181613318015281816135a001528181613bc10152613c2001525f81816132cf0152818161357901528181613b1c0152613b7b01525f81816132860152818161354a01528181613a770152613ad601525f818161323d0152818161351b015281816139d20152613a3101525f81816131f4015281816134ec0152818161392d015261398c01525f81816131a1015281816134bd0152818161388801526138e701525f81816131580152818161348e015281816137e3015261384201525f81816131190152818161345f0152818161374d01526137a601525f50505f50505f50505f50505f50505f50505f50505f50505f50505f8181611f57015281816121f3015261269201525f818161082801528181610ce801528181610ea901528181610f84015281816113cf015281816115e101528181611a39015281816121a0015281816122710152818161244a015281816127be0152818161287d01528181612957015281816129f301528181612a9401528181612c9b015261304301525f612d8701525f612d5f01525f818161137401526118fb01525f818161134d01526118d501525f818161132601526118af01525f81816112ff015261188901525f818161086e015281816110020152611aee01525f818161105001528181611d5e0152818161258401528181612d0a0152613dc301525f818161102a0152818161144b0152818161171501528181611d3c0152818161255901528181612cde0152613da201525f81816109a501528181610f49015281816111300152818161121c015281816114b301528181611b9301528181611bf401528181611c4801528181611cad01528181611e1001528181611eef01528181612092015281816120ef0152818161214501528181612350015281816123e30152818161250c015261341501525f818161098401528181610f23015281816110ce015281816111b901528181611b1601528181611dd701528181611eb60152818161338a01526133c801525f610b9c01525f6105b501525f81816107f6015281816112d70152818161185a015281816125c701526125f801525f81816109d70152818161151c015261175501526161695ff3fe608060405260043610610309575f3560e01c806301ffc9a71461030d57806306fdde0314610352578063095ea7b3146103735780630b89f182146103925780630ca89848146103b157806316a0b3e0146103d257806318160ddd146103ff57806318b6eb55146104135780631c149e281461044b57806323b872dd1461046a57806323de66511461048957806325692962146104aa578063273c1adf146104b25780632754888d146104cc57806330adf81f14610503578063313ce56714610523578063351a964d1461053e5780633644e5151461055257806338be241d1461056657806345421ec7146105885780634837c596146105a75780634e5bb408146105e25780635211fa771461063c57806353b79bd71461065d57806354d1f13d1461067e57806354fd4d50146106865780635687f2b81461069a578063627cdcb9146106b9578063654cf15d146106cd578063679aefce146106e757806370a08231146106fb578063715018a61461071a57806372c981861461072257806379ba5097146107415780637beed220146107555780637ecebe001461077957806381fa807c1461079857806384b0196e146107c157806386a2d875146107e85780638d928af81461081a5780638da5cb5b1461084c57806395146efb1461086057806395d89b4114610892578063976907cc146108a6578063984de9e8146108cf578063a0e8f5ac146108ee578063a9059cbb14610912578063aa6ca80814610931578063abb1dc4414610952578063ae3ecc6414610976578063af905d15146109c9578063b156aa0a146109fb578063b677fa5614610a1c578063ba5f9f4014610a36578063c0bc6f3314610a55578063ce20ece714610a76578063d335b0cf14610a8e578063d505accf14610aa2578063d67f280b14610ac1578063d77153a714610ad5578063dd62ed3e14610b3a578063e30c397814610b59578063e565c29e14610b6d578063e594203d14610b8e578063f04e283e14610bc0578063f2fde38b14610bd3578063f898f16e14610be6578063f89f27ed14610bfa578063fee81cf414610c0e575b5f5ffd5b348015610318575f5ffd5b5061033d610327366004614aff565b6001600160e01b0319166301ffc9a760e01b1490565b60405190151581526020015b60405180910390f35b34801561035d575f5ffd5b50610366610c3f565b6040516103499190614b54565b34801561037e575f5ffd5b5061033d61038d366004614b8a565b610ccf565b34801561039d575f5ffd5b5061033d6103ac366004614ce3565b610d6d565b3480156103bc575f5ffd5b506103c5610e19565b6040516103499190614e81565b3480156103dd575f5ffd5b506103f16103ec366004615001565b61139c565b604051908152602001610349565b34801561040a575f5ffd5b506103f16113b6565b34801561041e575f5ffd5b5061043461042d36600461504a565b505f908190565b604080519215158352602083019190915201610349565b348015610456575f5ffd5b5061033d6104653660046150ec565b611448565b348015610475575f5ffd5b5061033d61048436600461514f565b6115ab565b348015610494575f5ffd5b506104a86104a336600461514f565b61165a565b005b6104a86116b4565b3480156104bd575f5ffd5b506729a2241af62c00006103f1565b3480156104d7575f5ffd5b506104f56104e636600461519b565b5f839850989650505050505050565b60405161034992919061528a565b34801561050e575f5ffd5b506103f15f5160206161145f395f51905f5281565b34801561052e575f5ffd5b5060405160128152602001610349565b348015610549575f5ffd5b5061033d611700565b34801561055d575f5ffd5b506103f1611709565b348015610571575f5ffd5b5061033d6105803660046152a4565b5f9392505050565b348015610593575f5ffd5b5061033d6105a236600461531d565b611712565b3480156105b2575f5ffd5b507f00000000000000000000000000000000000000000000000000000000000000005b60405161034991906153e4565b3480156105ed575f5ffd5b506105f6611817565b604051610349919081516001600160a01b031681526020808301519082015260408083015190820152606080830151908201526080918201519181019190915260a00190565b348015610647575f5ffd5b5061033d610656366004615408565b5f92915050565b348015610668575f5ffd5b50610671611922565b6040516103499190615456565b6104a8611966565b348015610691575f5ffd5b5061036661199f565b3480156106a5575f5ffd5b506104a86106b436600461514f565b6119ae565b3480156106c4575f5ffd5b506104a86119fb565b3480156106d8575f5ffd5b5067016345785d8a00006103f1565b3480156106f2575f5ffd5b506103f1611a07565b348015610706575f5ffd5b506103f16107153660046154ca565b611a20565b6104a8611aaf565b34801561072d575f5ffd5b506103f161073c3660046154e5565b611ac2565b34801561074c575f5ffd5b506104a8611cee565b348015610760575f5ffd5b50610769611d2a565b60405161034994939291906155b9565b348015610784575f5ffd5b506103f16107933660046154ca565b611f35565b3480156107a3575f5ffd5b506107ac611f52565b60408051928352602083019190915201610349565b3480156107cc575f5ffd5b506107d5611ff6565b60405161034997969594939291906155f4565b3480156107f3575f5ffd5b507f00000000000000000000000000000000000000000000000000000000000000006105d5565b348015610825575f5ffd5b507f00000000000000000000000000000000000000000000000000000000000000006105d5565b348015610857575f5ffd5b506105d5612038565b34801561086b575f5ffd5b507f000000000000000000000000000000000000000000000000000000000000000061033d565b34801561089d575f5ffd5b50610366612046565b3480156108b1575f5ffd5b506104f56108c0366004615655565b5f849850989650505050505050565b3480156108da575f5ffd5b506103f16108e9366004615701565b612055565b3480156108f9575f5ffd5b50610434610908366004615744565b5f80935093915050565b34801561091d575f5ffd5b5061033d61092c366004614b8a565b612187565b34801561093c575f5ffd5b506109456121d9565b6040516103499190615788565b34801561095d575f5ffd5b50610966612269565b60405161034994939291906157ae565b348015610981575f5ffd5b507f00000000000000000000000000000000000000000000000000000000000000007f00000000000000000000000000000000000000000000000000000000000000006107ac565b3480156109d4575f5ffd5b507f00000000000000000000000000000000000000000000000000000000000000006105d5565b348015610a06575f5ffd5b50610a0f612430565b6040516103499190615864565b348015610a27575f5ffd5b506709b6e64a8ec600006103f1565b348015610a41575f5ffd5b5061033d610a50366004615876565b612556565b348015610a60575f5ffd5b50610a69612638565b60405161034991906158fb565b348015610a81575f5ffd5b506509184e72a0006103f1565b348015610a99575f5ffd5b506103f1612679565b348015610aad575f5ffd5b506104a8610abc366004615979565b6126c7565b348015610acc575f5ffd5b50610a0f612844565b348015610ae0575f5ffd5b5060408051610140810182525f808252818301819052606082018190526080820181905260a0820181905260e0820181905261012082015260016020820181905260c08201819052610100820152905161034991906159ea565b348015610b45575f5ffd5b506103f1610b54366004615ab3565b61284e565b348015610b64575f5ffd5b506105d56128e8565b348015610b78575f5ffd5b50610b816128f6565b6040516103499190615adf565b348015610b99575f5ffd5b507f00000000000000000000000000000000000000000000000000000000000000006105d5565b6104a8610bce3660046154ca565b612b44565b6104a8610be13660046154ca565b612b7e565b348015610bf1575f5ffd5b506107ac612be3565b348015610c05575f5ffd5b50610a0f612c57565b348015610c19575f5ffd5b506103f1610c283660046154ca565b63389a75e1600c9081525f91909152602090205490565b606060048054610c4e90615b6a565b80601f0160208091040260200160405190810160405280929190818152602001828054610c7a90615b6a565b8015610cc55780601f10610c9c57610100808354040283529160200191610cc5565b820191905f5260205f20905b815481529060010190602001808311610ca857829003601f168201915b5050505050905090565b60405163e1f21c6760e01b81525f906001600160a01b037f0000000000000000000000000000000000000000000000000000000000000000169063e1f21c6790610d2190339087908790600401615b9c565b6020604051808303815f875af1158015610d3d573d5f5f3e3d5ffd5b505050506040513d601f19601f82011682018060405250810190610d619190615bcb565b50600190505b92915050565b5f610d7a60028451612c61565b5f835f81518110610d8d57610d8d615be6565b6020026020010151602001516001811115610daa57610daa61579a565b141580610de657505f83600181518110610dc657610dc6615be6565b6020026020010151602001516001811115610de357610de361579a565b14155b15610e0457604051636fa2831960e11b815260040160405180910390fd5b506001600160a01b0383163014949350505050565b610e92604051806101e0016040528060608152602001606081526020015f81526020015f81526020015f81526020015f81526020015f1515815260200160608152602001606081526020015f81526020015f6001600160a01b031681526020015f81526020015f81526020015f81526020015f81525090565b60405163ca4f280360e01b81526001600160a01b037f0000000000000000000000000000000000000000000000000000000000000000169063ca4f280390610ede9030906004016153e4565b5f60405180830381865afa158015610ef8573d5f5f3e3d5ffd5b505050506040513d5f823e601f3d908101601f19168201604052610f1f9190810190615c5e565b81527f000000000000000000000000000000000000000000000000000000000000000060808201527f000000000000000000000000000000000000000000000000000000000000000060a0820152604051633f1b0def60e11b81526001600160a01b037f00000000000000000000000000000000000000000000000000000000000000001690637e361bde90610fb99030906004016153e4565b5f60405180830381865afa158015610fd3573d5f5f3e3d5ffd5b505050506040513d5f823e601f3d908101601f19168201604052610ffa9190810190615cea565b5060208201527f0000000000000000000000000000000000000000000000000000000000000000151560c08201527f000000000000000000000000000000000000000000000000000000000000000060408201527f00000000000000000000000000000000000000000000000000000000000000006060820152600260405190808252806020026020018201604052801561109f578160200160208202803683370190505b5060e0820181905280517f000000000000000000000000000000000000000000000000000000000000000091907f00000000000000000000000000000000000000000000000000000000000000009081106110fc576110fc615be6565b6020026020010181815250507f00000000000000000000000000000000000000000000000000000000000000008160e001517f00000000000000000000000000000000000000000000000000000000000000008151811061115f5761115f615be6565b60209081029190910101526040805160028082526060820190925290816020016020820280368337505050610100820181905280517f000000000000000000000000000000000000000000000000000000000000000091907f00000000000000000000000000000000000000000000000000000000000000009081106111e7576111e7615be6565b6020026020010181815250507f00000000000000000000000000000000000000000000000000000000000000008161010001517f00000000000000000000000000000000000000000000000000000000000000008151811061124b5761124b615be6565b60209081029190910101527f0000000000000000000000000000000000000000000000000000000000000000156112cd576112c67f00000000000000000000000000000000000000000000000000000000000000007f0000000000000000000000000000000000000000000000000000000000000000612c85565b6101208201525b6001600160a01b037f0000000000000000000000000000000000000000000000000000000000000000166101408201527f00000000000000000000000000000000000000000000000000000000000000006101608201527f00000000000000000000000000000000000000000000000000000000000000006101808201527f00000000000000000000000000000000000000000000000000000000000000006101a08201527f00000000000000000000000000000000000000000000000000000000000000006101c082015290565b5f604051639ba6061b60e01b815260040160405180910390fd5b6040516339370aa960e21b81525f906001600160a01b037f0000000000000000000000000000000000000000000000000000000000000000169063e4dc2aa4906114049030906004016153e4565b602060405180830381865afa15801561141f573d5f5f3e3d5ffd5b505050506040513d601f19601f820116820180604052508101906114439190615d45565b905090565b5f7f0000000000000000000000000000000000000000000000000000000000000000421061148957604051633eee08c760e01b815260040160405180910390fd5b7f000000000000000000000000000000000000000000000000000000000000000015611509575f837f0000000000000000000000000000000000000000000000000000000000000000815181106114e2576114e2615be6565b602002602001015111156115095760405163099c13c760e21b815260040160405180910390fd5b611511612038565b6001600160a01b03167f00000000000000000000000000000000000000000000000000000000000000006001600160a01b0316635e01eb5a6040518163ffffffff1660e01b8152600401602060405180830381865afa158015611576573d5f5f3e3d5ffd5b505050506040513d601f19601f8201168201806040525081019061159a9190615d5c565b6001600160a01b0316149392505050565b604051630aed65f560e11b81523360048201526001600160a01b0384811660248301528381166044830152606482018390525f917f0000000000000000000000000000000000000000000000000000000000000000909116906315dacbea906084016020604051808303815f875af1158015611629573d5f5f3e3d5ffd5b505050506040513d601f19601f8201168201806040525081019061164d9190615bcb565b50600190505b9392505050565b611662612c90565b816001600160a01b0316836001600160a01b03167fddf252ad1be2c89b69c2b068fc378daa952ba7f163c4a11628f55a4df523b3ef836040516116a791815260200190565b60405180910390a3505050565b5f6202a3006001600160401b03164201905063389a75e1600c52335f52806020600c2055337fdbf36a107da19e49527a7176a1babf963b4b0ff8cde35ee35d6cd8f1f9ac7e1d5f5fa250565b5f611443612cdb565b5f611443612d2f565b5f7f0000000000000000000000000000000000000000000000000000000000000000421061175357604051633eee08c760e01b815260040160405180910390fd5b7f00000000000000000000000000000000000000000000000000000000000000006001600160a01b0316886001600160a01b031614801561180b5750611797612038565b6001600160a01b0316886001600160a01b0316635e01eb5a6040518163ffffffff1660e01b8152600401602060405180830381865afa1580156117dc573d5f5f3e3d5ffd5b505050506040513d601f19601f820116820180604052508101906118009190615d5c565b6001600160a01b0316145b98975050505050505050565b61184d6040518060a001604052805f6001600160a01b031681526020015f81526020015f81526020015f81526020015f81525090565b6040518060a001604052807f00000000000000000000000000000000000000000000000000000000000000006001600160a01b031681526020017f000000000000000000000000000000000000000000000000000000000000000081526020017f000000000000000000000000000000000000000000000000000000000000000081526020017f000000000000000000000000000000000000000000000000000000000000000081526020017f0000000000000000000000000000000000000000000000000000000000000000815250905090565b61194d6040518060800160405280606081526020016060815260200160608152602001606081525090565b60405163d623472560e01b815260040160405180910390fd5b63389a75e1600c52335f525f6020600c2055337ffa7b8eab7da67f412cc9575ed43464468f9bfbae89d1675917346ca6d8fe3c925f5fa2565b606060068054610c4e90615b6a565b6119b6612c90565b816001600160a01b0316836001600160a01b03167f8c5be1e5ebec7d5bd14f71427d1e84f3dd0314c0f7b2291e5b200ac8c7c3b925836040516116a791815260200190565b611a0433612dd7565b50565b5f60405162c73cd160e51b815260040160405180910390fd5b604051633de222bb60e21b81525f906001600160a01b037f0000000000000000000000000000000000000000000000000000000000000000169063f7888aec90611a709030908690600401615d77565b602060405180830381865afa158015611a8b573d5f5f3e3d5ffd5b505050506040513d601f19601f82011682018060405250810190610d679190615d45565b611ab7612df9565b611ac05f612e34565b565b5f611acb612cdb565b15155f03611aec5760405163fdf7984560e01b815260040160405180910390fd5b7f00000000000000000000000000000000000000000000000000000000000000008015611b3d57507f0000000000000000000000000000000000000000000000000000000000000000826080015114155b15611b5b57604051630934a1c560e11b815260040160405180910390fd5b7f00000000000000000000000000000000000000000000000000000000000000005f03611b8b57610d6782612e71565b5f82604001517f000000000000000000000000000000000000000000000000000000000000000081518110611bc257611bc2615be6565b602002602001015190507f000000000000000000000000000000000000000000000000000000000000000083604001517f000000000000000000000000000000000000000000000000000000000000000081518110611c2357611c23615be6565b60200260200101818151611c379190615da5565b9052505f611c4484612e71565b90507f00000000000000000000000000000000000000000000000000000000000000008460800151148015611c7857508181115b15611ca557604051633715344960e01b815260048101829052602481018390526044015b60405180910390fd5b8184604001517f000000000000000000000000000000000000000000000000000000000000000081518110611cdc57611cdc615be6565b60209081029190910101529392505050565b3380611cf86128e8565b6001600160a01b031614611d21578060405163118cdaa760e01b8152600401611c9c91906153e4565b611a0481612f76565b604080516002808252606080830184527f0000000000000000000000000000000000000000000000000000000000000000937f00000000000000000000000000000000000000000000000000000000000000009391928392916020830190803683370190505091507f00000000000000000000000000000000000000000000000000000000000000007f0000000000000000000000000000000000000000000000000000000000000000837f000000000000000000000000000000000000000000000000000000000000000081518110611e0657611e06615be6565b60200260200101847f000000000000000000000000000000000000000000000000000000000000000081518110611e3f57611e3f615be6565b60209081029190910101919091525260408051600280825260608201909252908160200160208202803683370190505090507f00000000000000000000000000000000000000000000000000000000000000007f0000000000000000000000000000000000000000000000000000000000000000827f000000000000000000000000000000000000000000000000000000000000000081518110611ee557611ee5615be6565b60200260200101837f000000000000000000000000000000000000000000000000000000000000000081518110611f1e57611f1e615be6565b602002602001018281525082815250505090919293565b6001600160a01b0381165f90815260036020526040812054610d67565b5f5f5f7f00000000000000000000000000000000000000000000000000000000000000006001600160a01b031663f29486a1306040518263ffffffff1660e01b8152600401611fa191906153e4565b6101a060405180830381865afa158015611fbd573d5f5f3e3d5ffd5b505050506040513d601f19601f82011682018060405250810190611fe19190615e45565b90508060400151925080606001519150509091565b5f6060805f5f5f6060612007612f8e565b61200f612f9d565b604080515f80825260208201909252600f60f81b9b939a50919850469750309650945092509050565b5f611443638b78c6d8195490565b606060058054610c4e90615b6a565b5f7f00000000000000000000000000000000000000000000000000000000000000005f0361208e576120878383612fac565b9050610d67565b5f837f0000000000000000000000000000000000000000000000000000000000000000815181106120c1576120c1615be6565b602002602001015190507f0000000000000000000000000000000000000000000000000000000000000000847f00000000000000000000000000000000000000000000000000000000000000008151811061211e5761211e615be6565b602002602001018181516121329190615da5565b90525061213f8484612fac565b915080847f00000000000000000000000000000000000000000000000000000000000000008151811061217457612174615be6565b6020026020010181815250505092915050565b6040516317d5759960e31b81525f906001600160a01b037f0000000000000000000000000000000000000000000000000000000000000000169063beabacc890610d2190339087908790600401615b9c565b60405163ca4f280360e01b81526060906001600160a01b037f0000000000000000000000000000000000000000000000000000000000000000169063ca4f2803906122289030906004016153e4565b5f60405180830381865afa158015612242573d5f5f3e3d5ffd5b505050506040513d5f823e601f3d908101601f191682016040526114439190810190615c5e565b6060806060807f00000000000000000000000000000000000000000000000000000000000000006001600160a01b03166367e0e076306040518263ffffffff1660e01b81526004016122bb91906153e4565b5f60405180830381865afa1580156122d5573d5f5f3e3d5ffd5b505050506040513d5f823e601f3d908101601f191682016040526122fc9190810190615efe565b929650909450925090507f00000000000000000000000000000000000000000000000000000000000000001561242a577f0000000000000000000000000000000000000000000000000000000000000000817f00000000000000000000000000000000000000000000000000000000000000008151811061237f5761237f615be6565b602002602001018181516123939190615da5565b9052506123e07f00000000000000000000000000000000000000000000000000000000000000007f0000000000000000000000000000000000000000000000000000000000000000612c85565b827f00000000000000000000000000000000000000000000000000000000000000008151811061241257612412615be6565b602002602001018181516124269190615da5565b9052505b90919293565b6040516329ae7ec560e11b81526060906001600160a01b037f0000000000000000000000000000000000000000000000000000000000000000169063535cfd8a9061247f9030906004016153e4565b5f60405180830381865afa158015612499573d5f5f3e3d5ffd5b505050506040513d5f823e601f3d908101601f191682016040526124c0919081019061605b565b90507f000000000000000000000000000000000000000000000000000000000000000015612553577f0000000000000000000000000000000000000000000000000000000000000000817f00000000000000000000000000000000000000000000000000000000000000008151811061253b5761253b615be6565b6020026020010181815161254f9190615da5565b9052505b90565b5f7f000000000000000000000000000000000000000000000000000000000000000042101580156125a757507f00000000000000000000000000000000000000000000000000000000000000004211155b156125c557604051630f38b57760e41b815260040160405180910390fd5b7f00000000000000000000000000000000000000000000000000000000000000006001600160a01b0316158061180b57507f00000000000000000000000000000000000000000000000000000000000000006001600160a01b0316886001600160a01b0316149050979650505050505050565b61194d6040518060e0016040528060608152602001606081526020015f81526020015f81526020015f151581526020015f151581526020015f151581525090565b60405163b45090f960e01b81525f906001600160a01b037f0000000000000000000000000000000000000000000000000000000000000000169063b45090f9906114049030906004016153e4565b834211156126eb5760405163313c898160e11b815260048101859052602401611c9c565b5f5f5160206161145f395f51905f528888886127068c612dd7565b6040805160208101969096526001600160a01b0394851690860152929091166060840152608083015260a082015260c0810186905260e0016040516020818303038152906040528051906020012090505f61276082612ffc565b90505f61276f82878787613028565b9050896001600160a01b0316816001600160a01b0316146127a757808a6040516325c0072360e11b8152600401611c9c929190615d77565b60405163e1f21c6760e01b81526001600160a01b037f0000000000000000000000000000000000000000000000000000000000000000169063e1f21c67906127f7908d908d908d90600401615b9c565b6020604051808303815f875af1158015612813573d5f5f3e3d5ffd5b505050506040513d601f19601f820116820180604052508101906128379190615bcb565b5050505050505050505050565b606061144361303e565b60405163927da10560e01b81523060048201526001600160a01b03838116602483015282811660448301525f917f00000000000000000000000000000000000000000000000000000000000000009091169063927da10590606401602060405180830381865afa1580156128c4573d5f5f3e3d5ffd5b505050506040513d601f19601f820116820180604052508101906116539190615d45565b5f546001600160a01b031690565b612940604051806101000160405280606081526020015f81526020015f81526020015f151581526020015f151581526020015f151581526020015f15158152602001606081525090565b6040516329ae7ec560e11b81526001600160a01b037f0000000000000000000000000000000000000000000000000000000000000000169063535cfd8a9061298c9030906004016153e4565b5f60405180830381865afa1580156129a6573d5f5f3e3d5ffd5b505050506040513d5f823e601f3d908101601f191682016040526129cd919081019061605b565b81526129d761335b565b60e082015260405163b45090f960e01b81526001600160a01b037f0000000000000000000000000000000000000000000000000000000000000000169063b45090f990612a289030906004016153e4565b602060405180830381865afa158015612a43573d5f5f3e3d5ffd5b505050506040513d601f19601f82011682018060405250810190612a679190615d45565b6020820152612a746113b6565b6040808301919091525163f29486a160e01b81525f906001600160a01b037f0000000000000000000000000000000000000000000000000000000000000000169063f29486a190612ac99030906004016153e4565b6101a060405180830381865afa158015612ae5573d5f5f3e3d5ffd5b505050506040513d601f19601f82011682018060405250810190612b099190615e45565b60e08101511515606084015261010081015115156080840152610120810151151560a08401529050612b39612cdb565b151560c08301525090565b612b4c612df9565b63389a75e1600c52805f526020600c208054421115612b7257636f5e88185f526004601cfd5b5f9055611a0481612e34565b612b86612df9565b5f80546001600160a01b0319166001600160a01b038316908117909155612bab612038565b6001600160a01b03167f38d16b8cac22d99fc7c124b9cd0de2d3fa1faef420bfe791d8c362d765e2270060405160405180910390a350565b5f5f612c2f7f00000000000000000000000000000000000000000000000000000000000000007f0000000000000000000000000000000000000000000000000000000000000000612c85565b927f000000000000000000000000000000000000000000000000000000000000000092509050565b606061144361335b565b808214612c815760405163aaad13f760e01b815260040160405180910390fd5b5050565b5f61165382846160a0565b336001600160a01b037f00000000000000000000000000000000000000000000000000000000000000001614611ac0573360405163089676d560e01b8152600401611c9c91906153e4565b5f7f000000000000000000000000000000000000000000000000000000000000000042101580156114435750507f000000000000000000000000000000000000000000000000000000000000000042111590565b5f611443604080517f8b73c3c69bb8fe3d512ecc4cf759cc79239f7b179b0ffacaa9a75d522b39400f60208201527f0000000000000000000000000000000000000000000000000000000000000000918101919091527f000000000000000000000000000000000000000000000000000000000000000060608201524660808201523060a08201525f9060c00160405160208183030381529060405280519060200120905090565b6001600160a01b03165f90815260036020526040902080546001810190915590565b612e01612038565b6001600160a01b0316336001600160a01b031614611ac0573360405163118cdaa760e01b8152600401611c9c91906153e4565b638b78c6d81980546001600160a01b039092169182907f8be0079c531659141344cd1fd0a4f28419497f9722a3daafe3b4186f6b6457e05f80a355565b5f5f8260400151836060015181518110612e8d57612e8d615be6565b60200260200101516001612ea19190615da5565b90505f8360400151846080015181518110612ebe57612ebe615be6565b602002602001015190505f612ed7856060015184613454565b5f85516001811115612eeb57612eeb61579a565b03612f2357612f1983612f0187606001516135ec565b84612f0f89608001516135ec565b8960200151613637565b9350839050612f56565b612f4c83612f3487606001516135ec565b84612f4289608001516135ec565b89602001516136c6565b9350846020015190505b6080850151612f6e90612f6983856160bf565b613454565b505050919050565b5f80546001600160a01b0319169055611a0481612e34565b606060018054610c4e90615b6a565b606060028054610c4e90615b6a565b5f612fb683613749565b614af75f836001811115612fcc57612fcc61579a565b14612fd957613c5b612fdd565b613ce95b9050612ff4612fea61335b565b858363ffffffff16565b949350505050565b5f610d67613008612d2f565b8360405161190160f01b8152600281019290925260228201526042902090565b5f61303585858585613d56565b95945050505050565b60605f7f00000000000000000000000000000000000000000000000000000000000000006001600160a01b031663ca4f2803306040518263ffffffff1660e01b815260040161308d91906153e4565b5f60405180830381865afa1580156130a7573d5f5f3e3d5ffd5b505050506040513d5f823e601f3d908101601f191682016040526130ce9190810190615c5e565b8051909150806001600160401b038111156130eb576130eb614bb4565b604051908082528060200260200182016040528015613114578160200160208202803683370190505b5092507f0000000000000000000000000000000000000000000000000000000000000000835f8151811061314a5761314a615be6565b6020026020010181815250507f00000000000000000000000000000000000000000000000000000000000000008360018151811061318a5761318a615be6565b60200260200101818152505060028111156131e4577f0000000000000000000000000000000000000000000000000000000000000000836002815181106131d3576131d3615be6565b6020026020010181815250506131e9565b505090565b60038111156131e4577f00000000000000000000000000000000000000000000000000000000000000008360038151811061322657613226615be6565b60200260200101818152505060048111156131e4577f00000000000000000000000000000000000000000000000000000000000000008360048151811061326f5761326f615be6565b60200260200101818152505060058111156131e4577f0000000000000000000000000000000000000000000000000000000000000000836005815181106132b8576132b8615be6565b60200260200101818152505060068111156131e4577f00000000000000000000000000000000000000000000000000000000000000008360068151811061330157613301615be6565b60200260200101818152505060078111156131e4577f00000000000000000000000000000000000000000000000000000000000000008360078151811061334a5761334a615be6565b602002602001018181525050505090565b60408051600280825260608083018452925f929190602083019080368337019050509050613387613d9b565b817f0000000000000000000000000000000000000000000000000000000000000000815181106133b9576133b9615be6565b602002602001018181525050807f0000000000000000000000000000000000000000000000000000000000000000815181106133f7576133f7615be6565b6020026020010151670de0b6b3a764000061341291906160bf565b817f00000000000000000000000000000000000000000000000000000000000000008151811061344457613444615be6565b6020908102919091010152919050565b5f825f0361348357507f00000000000000000000000000000000000000000000000000000000000000006135c0565b826001036134b257507f00000000000000000000000000000000000000000000000000000000000000006135c0565b826002036134e157507f00000000000000000000000000000000000000000000000000000000000000006135c0565b8260030361351057507f00000000000000000000000000000000000000000000000000000000000000006135c0565b8260040361353f57507f00000000000000000000000000000000000000000000000000000000000000006135c0565b8260050361356e57507f00000000000000000000000000000000000000000000000000000000000000006135c0565b8260060361359d57507f00000000000000000000000000000000000000000000000000000000000000006135c0565b507f00000000000000000000000000000000000000000000000000000000000000005b808210156135e75782828260405163d63c023360e01b8152600401611c9c939291906160d2565b505050565b5f600282101561361e576135fe61335b565b828151811061360f5761360f615be6565b60200260200101519050919050565b60405163c1ab6dc160e01b815260040160405180910390fd5b5f61364a86670429d069189e0000613e3a565b82111561366a5760405163340a453360e01b815260040160405180910390fd5b5f6136758388615da5565b90505f6136828883613e5a565b90505f61368f8887613e6e565b90505f61369c8383613e8e565b90506136b8670de0b6b3a7640000828103908310028990613e3a565b9a9950505050505050505050565b5f6136d984670429d069189e0000613e3a565b8211156136f9576040516364590b9f60e01b815260040160405180910390fd5b5f61370e61370784876160bf565b8690613e5a565b90505f61371b8588613e5a565b90505f6137288383613e8e565b90505f61373d670de0b6b3a7640000836160bf565b90506136b88a82613f3a565b80517f0000000000000000000000000000000000000000000000000000000000000000825f8361377b5761377b615be6565b602002602001015110156137e1575f825f8151811061379c5761379c615be6565b60200260200101517f000000000000000000000000000000000000000000000000000000000000000060405163d63c023360e01b8152600401611c9c939291906160d2565b7f00000000000000000000000000000000000000000000000000000000000000008260018151811061381557613815615be6565b6020026020010151101561387d5760018260018151811061383857613838615be6565b60200260200101517f000000000000000000000000000000000000000000000000000000000000000060405163d63c023360e01b8152600401611c9c939291906160d2565b6002811115612c81577f0000000000000000000000000000000000000000000000000000000000000000826002815181106138ba576138ba615be6565b60200260200101511015613922576002826002815181106138dd576138dd615be6565b60200260200101517f000000000000000000000000000000000000000000000000000000000000000060405163d63c023360e01b8152600401611c9c939291906160d2565b6003811115612c81577f00000000000000000000000000000000000000000000000000000000000000008260038151811061395f5761395f615be6565b602002602001015110156139c75760038260038151811061398257613982615be6565b60200260200101517f000000000000000000000000000000000000000000000000000000000000000060405163d63c023360e01b8152600401611c9c939291906160d2565b6004811115612c81577f000000000000000000000000000000000000000000000000000000000000000082600481518110613a0457613a04615be6565b60200260200101511015613a6c57600482600481518110613a2757613a27615be6565b60200260200101517f000000000000000000000000000000000000000000000000000000000000000060405163d63c023360e01b8152600401611c9c939291906160d2565b6005811115612c81577f000000000000000000000000000000000000000000000000000000000000000082600581518110613aa957613aa9615be6565b60200260200101511015613b1157600582600581518110613acc57613acc615be6565b60200260200101517f000000000000000000000000000000000000000000000000000000000000000060405163d63c023360e01b8152600401611c9c939291906160d2565b6006811115612c81577f000000000000000000000000000000000000000000000000000000000000000082600681518110613b4e57613b4e615be6565b60200260200101511015613bb657600682600681518110613b7157613b71615be6565b60200260200101517f000000000000000000000000000000000000000000000000000000000000000060405163d63c023360e01b8152600401611c9c939291906160d2565b6007811115612c81577f000000000000000000000000000000000000000000000000000000000000000082600781518110613bf357613bf3615be6565b60200260200101511015612c8157600782600781518110613c1657613c16615be6565b60200260200101517f000000000000000000000000000000000000000000000000000000000000000060405163d63c023360e01b8152600401611c9c939291906160d2565b670de0b6b3a76400005f5b8351811015613cc857613cbe613cb7858381518110613c8757613c87615be6565b6020026020010151858481518110613ca157613ca1615be6565b6020026020010151613f6690919063ffffffff16565b8390613e3a565b9150600101613c66565b50805f03610d6757604051632654368960e01b815260040160405180910390fd5b670de0b6b3a76400005f5b8351811015613cc857613d4c613d45858381518110613d1557613d15615be6565b6020026020010151858481518110613d2f57613d2f615be6565b6020026020010151613e8e90919063ffffffff16565b8390613f3a565b9150600101613cf4565b5f604051855f5260ff851660205283604052826060526020600160805f60015afa5191503d613d8c57638baa579f5f526004601cfd5b5f606052604052949350505050565b5f5f613de77f00000000000000000000000000000000000000000000000000000000000000007f0000000000000000000000000000000000000000000000000000000000000000614012565b9050613e347f00000000000000000000000000000000000000000000000000000000000000007f000000000000000000000000000000000000000000000000000000000000000083614048565b91505090565b5f80613e4683856160e8565b9050612ff4670de0b6b3a7640000826160a0565b5f61165383670de0b6b3a7640000846140b1565b5f80613e82670de0b6b3a7640000856160e8565b9050612ff483826160a0565b5f670de0b6b3a76400008203613ea5575081610d67565b613eb8670de0b6b3a764000060026160e8565b8203613ec8576120878384613f3a565b613edb670de0b6b3a764000060046160e8565b8203613f00575f613eec8485613f3a565b9050613ef88182613f3a565b915050610d67565b5f613f0b84846140f6565b90505f613f1a82612710613f3a565b613f25906001615da5565b9050613f318183615da5565b92505050610d67565b5f80613f4683856160e8565b90506001670de0b6b3a76400006001830304018115150291505092915050565b5f670de0b6b3a76400008203613f7d575081610d67565b613f90670de0b6b3a764000060026160e8565b8203613fa0576120878384613e3a565b613fb3670de0b6b3a764000060046160e8565b8203613fd0575f613fc48485613e3a565b9050613ef88182613e3a565b5f613fdb84846140f6565b90505f613fea82612710613f3a565b613ff5906001615da5565b905080821015614009575f92505050610d67565b90039050610d67565b5f8142106140295750670de0b6b3a7640000610d67565b82421161403757505f610d67565b828203428490036130358183613e6e565b5f670de0b6b3a76400008210158061405f57508284145b1561406b575081611653565b815f03614079575082611653565b82841115614099575f61408e83858703613e3a565b850391506116539050565b5f6140a683868603613e3a565b850191506116539050565b5f815f036140d257604051630a0c22c760e01b815260040160405180910390fd5b5f6140dd84866160e8565b9050600183600183030401811515029150509392505050565b5f815f0361410d5750670de0b6b3a7640000610d67565b825f0361411b57505f610d67565b60ff83901c1561413d576040516211380f60e51b815260040160405180910390fd5b8261415568056bc75e2d63100000600160fe1b6160a0565b83106141745760405163d831731160e01b815260040160405180910390fd5b825f670c7d713b49da0000831380156141945750670f43fc2c04ee000083125b156141ca575f6141a384614236565b9050670de0b6b3a764000080820784020583670de0b6b3a7640000830502019150506141d8565b816141d484614353565b0290505b670de0b6b3a76400009005680238fd42c5cf03ffff198112801590614206575068070c1cc73b00c800008113155b6142235760405163a2f9f7e360e01b815260040160405180910390fd5b61422c816146fd565b9695505050505050565b670de0b6b3a7640000025f806a0c097ce7bc90715b34b9f160241b808401906ec097ce7bc90715b34b9f0fffffffff19850102816142765761427661608c565b0590505f6a0c097ce7bc90715b34b9f160241b82800205905081806a0c097ce7bc90715b34b9f160241b81840205915060038205016a0c097ce7bc90715b34b9f160241b82840205915060058205016a0c097ce7bc90715b34b9f160241b82840205915060078205016a0c097ce7bc90715b34b9f160241b82840205915060098205016a0c097ce7bc90715b34b9f160241b828402059150600b8205016a0c097ce7bc90715b34b9f160241b828402059150600d8205016a0c097ce7bc90715b34b9f160241b828402059150600f82050160020295945050505050565b5f80670de0b6b3a764000083121561438a57826a0c097ce7bc90715b34b9f160241b816143825761438261608c565b059250600190505b5f775803bcc5cb9634ba4cfb2213f784019318ed4dcb6017880f60361b84126143d45772195e54c5dd42177f53a27172fa9ec63026282760241b840593506806f05b59d3b2000000015b6f8bcc0026baae9e45e470190267a230cf60191b841261440b576b1425982cf597cd205cef7380840593506803782dace9d9000000015b606493840293026e01855144814a7ff805980ff00840008412614453576e01855144814a7ff805980ff008400068056bc75e2d63100000850205935068ad78ebc5ac62000000015b6b02df0ab5a80a22c61ab5a700841261448e576b02df0ab5a80a22c61ab5a70068056bc75e2d6310000085020593506856bc75e2d631000000015b693f1fce3da636ea5cf85084126144c557693f1fce3da636ea5cf85068056bc75e2d631000008502059350682b5e3af16b18800000015b690127fa27722cc06cc5e284126144fc57690127fa27722cc06cc5e268056bc75e2d6310000085020593506815af1d78b58c400000015b68280e60114edb805d0384126145315768280e60114edb805d0368056bc75e2d631000008502059350680ad78ebc5ac6200000015b680ebc5fb41746121110841261455c57680ebc5fb4174612111068056bc75e2d631000009485020593015b6808f00f760a4b2db55d8412614591576808f00f760a4b2db55d68056bc75e2d6310000085020593506802b5e3af16b1880000015b6806f5f177578893793784126145c6576806f5f177578893793768056bc75e2d63100000850205935068015af1d78b58c40000015b6806248f33704b28660384126145fa576806248f33704b28660368056bc75e2d63100000850205935067ad78ebc5ac620000015b6805c548670b9510e7ac841261462e576805c548670b9510e7ac68056bc75e2d6310000085020593506756bc75e2d6310000015b5f68056bc75e2d63100000850168056bc75e2d6310000080870302816146565761465661608c565b0590505f68056bc75e2d63100000828002059050818068056bc75e2d63100000818402059150600382050168056bc75e2d63100000828402059150600582050168056bc75e2d63100000828402059150600782050168056bc75e2d63100000828402059150600982050168056bc75e2d63100000828402059150600b8205016002025f6064868301059050866146ec57806146f0565b805f035b9998505050505050505050565b5f680238fd42c5cf03ffff198212158015614721575068070c1cc73b00c800008213155b61473e5760405163d4794efd60e01b815260040160405180910390fd5b5f8083121561475157825f039250600190505b5f6806f05b59d3b2000000841261478e57506806f05b59d3b1ffffff199092019172195e54c5dd42177f53a27172fa9ec63026282760241b6147c4565b6803782dace9d900000084126147c057506803782dace9d8ffffff19909201916b1425982cf597cd205cef73806147c4565b5060015b6064939093029268056bc75e2d6310000068ad78ebc5ac6200000085126148145768ad78ebc5ac61ffffff199094019368056bc75e2d631000006e01855144814a7ff805980ff008400082020590505b6856bc75e2d6310000008512614850576856bc75e2d630ffffff199094019368056bc75e2d631000006b02df0ab5a80a22c61ab5a70082020590505b682b5e3af16b18800000851261488a57682b5e3af16b187fffff199094019368056bc75e2d63100000693f1fce3da636ea5cf85082020590505b6815af1d78b58c40000085126148c4576815af1d78b58c3fffff199094019368056bc75e2d63100000690127fa27722cc06cc5e282020590505b680ad78ebc5ac620000085126148fd57680ad78ebc5ac61fffff199094019368056bc75e2d6310000068280e60114edb805d0382020590505b68056bc75e2d6310000085126149365768056bc75e2d630fffff199094019368056bc75e2d63100000680ebc5fb4174612111082020590505b6802b5e3af16b1880000851261496f576802b5e3af16b187ffff199094019368056bc75e2d631000006808f00f760a4b2db55d82020590505b68015af1d78b58c4000085126149a85768015af1d78b58c3ffff199094019368056bc75e2d631000006806f5f177578893793782020590505b68056bc75e2d631000008581019086906002908280020505918201919050600368056bc75e2d631000008883020505918201919050600468056bc75e2d631000008883020505918201919050600568056bc75e2d631000008883020505918201919050600668056bc75e2d631000008883020505918201919050600768056bc75e2d631000008883020505918201919050600868056bc75e2d631000008883020505918201919050600968056bc75e2d631000008883020505918201919050600a68056bc75e2d631000008883020505918201919050600b68056bc75e2d631000008883020505918201919050600c68056bc75e2d6310000088830205059182019190505f606468056bc75e2d6310000085850205860205905085614acd578061180b565b806a0c097ce7bc90715b34b9f160241b81614aea57614aea61608c565b0598975050505050505050565b611ac06160ff565b5f60208284031215614b0f575f5ffd5b81356001600160e01b031981168114611653575f5ffd5b5f81518084528060208401602086015e5f602082860101526020601f19601f83011685010191505092915050565b602081525f6116536020830184614b26565b6001600160a01b0381168114611a04575f5ffd5b8035614b8581614b66565b919050565b5f5f60408385031215614b9b575f5ffd5b8235614ba681614b66565b946020939093013593505050565b634e487b7160e01b5f52604160045260245ffd5b604051608081016001600160401b0381118282101715614bea57614bea614bb4565b60405290565b60405160e081016001600160401b0381118282101715614bea57614bea614bb4565b60405161014081016001600160401b0381118282101715614bea57614bea614bb4565b604051606081016001600160401b0381118282101715614bea57614bea614bb4565b604051601f8201601f191681016001600160401b0381118282101715614c7f57614c7f614bb4565b604052919050565b5f6001600160401b03821115614c9f57614c9f614bb4565b5060051b60200190565b60028110611a04575f5ffd5b8035614b8581614ca9565b8015158114611a04575f5ffd5b5f60808284031215614cdd575f5ffd5b50919050565b5f5f5f5f60e08587031215614cf6575f5ffd5b8435614d0181614b66565b93506020850135614d1181614b66565b925060408501356001600160401b03811115614d2b575f5ffd5b8501601f81018713614d3b575f5ffd5b8035614d4e614d4982614c87565b614c57565b8082825260208201915060208360071b850101925089831115614d6f575f5ffd5b6020840193505b82841015614def576080848b031215614d8d575f5ffd5b614d95614bc8565b8435614da081614b66565b81526020850135614db081614ca9565b60208201526040850135614dc381614b66565b60408201526060850135614dd681614cc0565b6060820152825260809390930192602090910190614d76565b80955050505050614e038660608701614ccd565b905092959194509250565b5f8151808452602084019350602083015f5b82811015614e475781516001600160a01b0316865260209586019590910190600101614e20565b5093949350505050565b5f8151808452602084019350602083015f5b82811015614e47578151865260209586019590910190600101614e63565b602081525f82516101e06020840152614e9e610200840182614e0e565b90506020840151601f19848303016040850152614ebb8282614e51565b9150506040840151606084015260608401516080840152608084015160a084015260a084015160c084015260c0840151614ef960e085018215159052565b5060e0840151838203601f1901610100850152614f168282614e51565b915050610100840151601f1984830301610120850152614f368282614e51565b915050610120840151610140840152610140840151614f616101608501826001600160a01b03169052565b506101608401516101808401526101808401516101a08401526101a08401516101c08401526101c08401516101e08401528091505092915050565b5f82601f830112614fab575f5ffd5b8135614fb9614d4982614c87565b8082825260208201915060208360051b860101925085831115614fda575f5ffd5b602085015b83811015614ff7578035835260209283019201614fdf565b5095945050505050565b5f5f5f60608486031215615013575f5ffd5b83356001600160401b03811115615028575f5ffd5b61503486828701614f9c565b9660208601359650604090950135949350505050565b5f6020828403121561505a575f5ffd5b81356001600160401b0381111561506f575f5ffd5b82016101808185031215611653575f5ffd5b5f82601f830112615090575f5ffd5b81356001600160401b038111156150a9576150a9614bb4565b6150bc601f8201601f1916602001614c57565b8181528460208386010111156150d0575f5ffd5b816020850160208301375f918101602001919091529392505050565b5f5f604083850312156150fd575f5ffd5b82356001600160401b03811115615112575f5ffd5b61511e85828601614f9c565b92505060208301356001600160401b03811115615139575f5ffd5b61514585828601615081565b9150509250929050565b5f5f5f60608486031215615161575f5ffd5b833561516c81614b66565b9250602084013561517c81614b66565b929592945050506040919091013590565b803560048110614b85575f5ffd5b5f5f5f5f5f5f5f5f610100898b0312156151b3575f5ffd5b6151bc89614b7a565b97506151ca60208a01614b7a565b96506151d860408a0161518d565b95506060890135945060808901356001600160401b038111156151f9575f5ffd5b6152058b828c01614f9c565b94505060a08901356001600160401b03811115615220575f5ffd5b61522c8b828c01614f9c565b93505060c08901356001600160401b03811115615247575f5ffd5b6152538b828c01614f9c565b92505060e08901356001600160401b0381111561526e575f5ffd5b61527a8b828c01615081565b9150509295985092959890939650565b8215158152604060208201525f612ff46040830184614e51565b5f5f5f606084860312156152b6575f5ffd5b83356001600160401b038111156152cb575f5ffd5b6152d786828701614f9c565b9350506020840135915060408401356001600160401b038111156152f9575f5ffd5b61530586828701615081565b9150509250925092565b803560058110614b85575f5ffd5b5f5f5f5f5f5f5f60e0888a031215615333575f5ffd5b873561533e81614b66565b965061534c60208901614b7a565b955061535a6040890161530f565b945060608801356001600160401b03811115615374575f5ffd5b6153808a828b01614f9c565b9450506080880135925060a08801356001600160401b038111156153a2575f5ffd5b6153ae8a828b01614f9c565b92505060c08801356001600160401b038111156153c9575f5ffd5b6153d58a828b01615081565b91505092959891949750929550565b6001600160a01b0391909116815260200190565b5f60e08284031215614cdd575f5ffd5b5f5f60408385031215615419575f5ffd5b82356001600160401b0381111561542e575f5ffd5b61543a858286016153f8565b925050602083013561544b81614b66565b809150509250929050565b602081525f82516080602084015261547160a0840182614e0e565b90506020840151601f1984830301604085015261548e8282614e51565b9150506040840151601f198483030160608501526154ac8282614e51565b9150506060840151601f198483030160808501526130358282614e51565b5f602082840312156154da575f5ffd5b813561165381614b66565b5f602082840312156154f5575f5ffd5b81356001600160401b0381111561550a575f5ffd5b820160e0818503121561551b575f5ffd5b615523614bf0565b61552c82614cb5565b81526020828101359082015260408201356001600160401b03811115615550575f5ffd5b61555c86828501614f9c565b604083015250606082810135908201526080808301359082015261558260a08301614b7a565b60a082015260c08201356001600160401b0381111561559f575f5ffd5b6155ab86828501615081565b60c083015250949350505050565b848152836020820152608060408201525f6155d76080830185614e51565b82810360608401526155e98185614e51565b979650505050505050565b60ff60f81b8816815260e060208201525f61561260e0830189614b26565b82810360408401526156248189614b26565b606084018890526001600160a01b038716608085015260a0840186905283810360c085015290506136b88185614e51565b5f5f5f5f5f5f5f5f610100898b03121561566d575f5ffd5b61567689614b7a565b975061568460208a01614b7a565b965061569260408a0161530f565b955060608901356001600160401b038111156156ac575f5ffd5b6156b88b828c01614f9c565b95505060808901356001600160401b038111156156d3575f5ffd5b6156df8b828c01614f9c565b94505060a0890135925060c08901356001600160401b03811115615247575f5ffd5b5f5f60408385031215615712575f5ffd5b82356001600160401b03811115615727575f5ffd5b61573385828601614f9c565b925050602083013561544b81614ca9565b5f5f5f60608486031215615756575f5ffd5b83356001600160401b0381111561576b575f5ffd5b615777868287016153f8565b935050602084013561517c81614b66565b602081525f6116536020830184614e0e565b634e487b7160e01b5f52602160045260245ffd5b608081525f6157c06080830187614e0e565b82810360208401528086518083526020830191506020880192505f5b8181101561583b57835180516002811061580457634e487b7160e01b5f52602160045260245ffd5b84526020818101516001600160a01b03168186015260409182015115159185019190915293909301926060909201916001016157dc565b5050838103604085015261584f8187614e51565b91505082810360608401526155e98185614e51565b602081525f6116536020830184614e51565b5f5f5f5f5f5f5f60e0888a03121561588c575f5ffd5b873561589781614b66565b96506158a560208901614b7a565b95506158b36040890161518d565b94506060880135935060808801356001600160401b038111156158d4575f5ffd5b6158e08a828b01614f9c565b93505060a08801356001600160401b038111156153a2575f5ffd5b602081525f825160e06020840152615917610100840182614e51565b90506020840151601f198483030160408501526159348282614e51565b91505060408401516060840152606084015160808401526080840151151560a084015260a0840151151560c084015260c0840151151560e08401528091505092915050565b5f5f5f5f5f5f5f60e0888a03121561598f575f5ffd5b873561599a81614b66565b965060208801356159aa81614b66565b95506040880135945060608801359350608088013560ff811681146159cd575f5ffd5b9699959850939692959460a0840135945060c09093013592915050565b81511515815261014081016020830151615a08602084018215159052565b506040830151615a1c604084018215159052565b506060830151615a30606084018215159052565b506080830151615a44608084018215159052565b5060a0830151615a5860a084018215159052565b5060c0830151615a6c60c084018215159052565b5060e0830151615a8060e084018215159052565b50610100830151615a9661010084018215159052565b50610120830151615aac61012084018215159052565b5092915050565b5f5f60408385031215615ac4575f5ffd5b8235615acf81614b66565b9150602083013561544b81614b66565b602081525f82516101006020840152615afc610120840182614e51565b905060208401516040840152604084015160608401526060840151151560808401526080840151615b3160a085018215159052565b5060a084015180151560c08501525060c084015180151560e08501525060e0840151838203601f19016101008501526130358282614e51565b600181811c90821680615b7e57607f821691505b602082108103614cdd57634e487b7160e01b5f52602260045260245ffd5b6001600160a01b039384168152919092166020820152604081019190915260600190565b8051614b8581614cc0565b5f60208284031215615bdb575f5ffd5b815161165381614cc0565b634e487b7160e01b5f52603260045260245ffd5b5f82601f830112615c09575f5ffd5b8151615c17614d4982614c87565b8082825260208201915060208360051b860101925085831115615c38575f5ffd5b602085015b83811015614ff7578051615c5081614b66565b835260209283019201615c3d565b5f60208284031215615c6e575f5ffd5b81516001600160401b03811115615c83575f5ffd5b612ff484828501615bfa565b5f82601f830112615c9e575f5ffd5b8151615cac614d4982614c87565b8082825260208201915060208360051b860101925085831115615ccd575f5ffd5b602085015b83811015614ff7578051835260209283019201615cd2565b5f5f60408385031215615cfb575f5ffd5b82516001600160401b03811115615d10575f5ffd5b615d1c85828601615c8f565b602085015190935090506001600160401b03811115615d39575f5ffd5b61514585828601615c8f565b5f60208284031215615d55575f5ffd5b5051919050565b5f60208284031215615d6c575f5ffd5b815161165381614b66565b6001600160a01b0392831681529116602082015260400190565b634e487b7160e01b5f52601160045260245ffd5b80820180821115610d6757610d67615d91565b5f60808284031215615dc8575f5ffd5b615dd0614bc8565b90508151615ddd81614cc0565b81526020820151615ded81614cc0565b60208201526040820151615e0081614cc0565b60408201526060820151615e1381614cc0565b606082015292915050565b805164ffffffffff81168114614b85575f5ffd5b805163ffffffff81168114614b85575f5ffd5b5f6101a0828403128015615e57575f5ffd5b50615e60614c12565b615e6a8484615db8565b81526080830151602082015260a0830151604082015260c08301516060820152615e9660e08401615e1e565b6080820152615ea86101008401615e32565b60a0820152615eba6101208401615bc0565b60c0820152615ecc6101408401615bc0565b60e0820152615ede6101608401615bc0565b610100820152615ef16101808401615bc0565b6101208201529392505050565b5f5f5f5f60808587031215615f11575f5ffd5b84516001600160401b03811115615f26575f5ffd5b615f3287828801615bfa565b602087015190955090506001600160401b03811115615f4f575f5ffd5b8501601f81018713615f5f575f5ffd5b8051615f6d614d4982614c87565b80828252602082019150602060608402850101925089831115615f8e575f5ffd5b6020840193505b82841015615ffb576060848b031215615fac575f5ffd5b615fb4614c35565b8451615fbf81614ca9565b81526020850151615fcf81614b66565b60208201526040850151615fe281614cc0565b6040820152825260609390930192602090910190615f95565b6040890151909650925050506001600160401b0381111561601a575f5ffd5b61602687828801615c8f565b606087015190935090506001600160401b03811115616043575f5ffd5b61604f87828801615c8f565b91505092959194509250565b5f6020828403121561606b575f5ffd5b81516001600160401b03811115616080575f5ffd5b612ff484828501615c8f565b634e487b7160e01b5f52601260045260245ffd5b5f826160ba57634e487b7160e01b5f52601260045260245ffd5b500490565b81810381811115610d6757610d67615d91565b9283526020830191909152604082015260600190565b8082028115828204841417610d6757610d67615d91565b634e487b7160e01b5f52605160045260245ffdfe6e71edae12b1b97f4d1f60370fef10105fa2faae0126114a169c64845d6126c9a2646970667358221220670f225e363172026cc554345d6ea178f3008a30fd6b48ef0f84445d5ef517f064736f6c634300081e0033","linkReferences":{}},"methodIdentifiers":{"create((string,string,address,address,address,uint256,uint256,bool),(uint256,uint256,uint256,uint256,uint256),uint256,bytes32,address)":"25e82bf3","createWithMigration((string,string,address,address,address,uint256,uint256,bool),(address,uint256,uint256,uint256,uint256),(uint256,uint256,uint256,uint256,uint256),uint256,bytes32,address)":"8ce9cb3e","disable()":"2f2770db","getActionId(bytes4)":"851c1bb3","getAuthorizer()":"aaabadc5","getCreationCode()":"00c194db","getCreationCodeContracts()":"174481fa","getDefaultLiquidityManagement()":"193ad50f","getDefaultPoolHooksContract()":"ec888061","getDeploymentAddress(bytes,bytes32)":"44f6fec7","getMaxBptLockDuration()":"59859395","getMigrationRouter()":"86a2d875","getMinReserveTokenMigrationWeight()":"b3f88367","getNewPoolPauseWindowEndTime()":"db035ebc","getOriginalPauseWindowEndTime()":"e9d56e19","getPauseWindowDuration()":"78da80cb","getPoolCount()":"8eec5d70","getPoolVersion()":"3f819b6f","getPools()":"673a2a1f","getPoolsInRange(uint256,uint256)":"53a72f7e","getTrustedRouter()":"af905d15","getVault()":"8d928af8","isDisabled()":"6c57f5a9","isPoolFromFactory(address)":"6634b753","version()":"54fd4d50"},"id":204}