{"abi":[{"type":"function","name":"facetFuncs","inputs":[],"outputs":[{"name":"funcs","type":"bytes4[]","internalType":"bytes4[]"}],"stateMutability":"pure"},{"type":"function","name":"facetInterfaces","inputs":[],"outputs":[{"name":"interfaces","type":"bytes4[]","internalType":"bytes4[]"}],"stateMutability":"pure"},{"type":"function","name":"facetMetadata","inputs":[],"outputs":[{"name":"name","type":"string","internalType":"string"},{"name":"interfaces","type":"bytes4[]","internalType":"bytes4[]"},{"name":"functions","type":"bytes4[]","internalType":"bytes4[]"}],"stateMutability":"pure"},{"type":"function","name":"facetName","inputs":[],"outputs":[{"name":"","type":"string","internalType":"string"}],"stateMutability":"pure"},{"type":"function","name":"mockFunctionA","inputs":[],"outputs":[{"name":"","type":"uint256","internalType":"uint256"}],"stateMutability":"pure"},{"type":"function","name":"mockFunctionB","inputs":[],"outputs":[{"name":"","type":"uint256","internalType":"uint256"}],"stateMutability":"pure"}],"bytecode":{"object":"0x6080604052348015600e575f5ffd5b5061038a8061001c5f395ff3fe608060405234801561000f575f5ffd5b5060043610610060575f3560e01c80632ea8082614610064578063574a4cff146100895780635b6f4d0114610091578063f08565a8146100bc578063f10d7a75146100cd578063faeb48bb146100e4575b5f5ffd5b604080515f8152602081019091525b60405161008091906102a5565b60405180910390f35b6100736100eb565b6040805180820182526009815268135bd8dad19858d95d60ba1b6020820152905161008091906102ec565b60025b604051908152602001610080565b6100d5610178565b604051610080939291906102fe565b60016100bf565b604080516002808252606080830184529260208301908036833701905050905063faeb48bb60e01b815f8151811061012557610125610340565b6001600160e01b0319909216602092830291909101909101528051631e10acb560e31b908290600190811061015c5761015c610340565b6001600160e01b03199092166020928302919091019091015290565b604080518082019091526009815268135bd8dad19858d95d60ba1b60208201526060805f6040519080825280602002602001820160405280156101c5578160200160208202803683370190505b50604080516002808252606082018352929450919060208301908036833701905050905063faeb48bb60e01b815f8151811061020357610203610340565b6001600160e01b0319909216602092830291909101909101528051631e10acb560e31b908290600190811061023a5761023a610340565b60200260200101906001600160e01b03191690816001600160e01b03191681525050909192565b5f8151808452602084019350602083015f5b8281101561029b5781516001600160e01b031916865260209586019590910190600101610273565b5093949350505050565b602081525f6102b76020830184610261565b9392505050565b5f81518084528060208401602086015e5f602082860101526020601f19601f83011685010191505092915050565b602081525f6102b760208301846102be565b606081525f61031060608301866102be565b82810360208401526103228186610261565b905082810360408401526103368185610261565b9695505050505050565b634e487b7160e01b5f52603260045260245ffdfea2646970667358221220decc3b9d07bb839552b5bc27044cfa38b71dbd3c8d226d0f51d952bd7f37761d64736f6c634300081e0033","linkReferences":{}},"methodIdentifiers":{"facetFuncs()":"574a4cff","facetInterfaces()":"2ea80826","facetMetadata()":"f10d7a75","facetName()":"5b6f4d01","mockFunctionA()":"faeb48bb","mockFunctionB()":"f08565a8"},"id":1295}