{"abi":[{"type":"function","name":"facetFuncs","inputs":[],"outputs":[{"name":"funcs","type":"bytes4[]","internalType":"bytes4[]"}],"stateMutability":"pure"},{"type":"function","name":"facetInterfaces","inputs":[],"outputs":[{"name":"interfaces","type":"bytes4[]","internalType":"bytes4[]"}],"stateMutability":"pure"},{"type":"function","name":"facetMetadata","inputs":[],"outputs":[{"name":"name","type":"string","internalType":"string"},{"name":"interfaces","type":"bytes4[]","internalType":"bytes4[]"},{"name":"functions","type":"bytes4[]","internalType":"bytes4[]"}],"stateMutability":"pure"},{"type":"function","name":"facetName","inputs":[],"outputs":[{"name":"","type":"string","internalType":"string"}],"stateMutability":"pure"},{"type":"function","name":"mockFunctionC","inputs":[],"outputs":[{"name":"","type":"uint256","internalType":"uint256"}],"stateMutability":"pure"}],"bytecode":{"object":"0x6080604052348015600e575f5ffd5b5061030b8061001c5f395ff3fe608060405234801561000f575f5ffd5b5060043610610055575f3560e01c80632ea8082614610059578063574a4cff1461007e5780635b6f4d011461008657806378943099146100b2578063f10d7a75146100c1575b5f5ffd5b604080515f8152602081019091525b6040516100759190610226565b60405180910390f35b6100686100d8565b604080518082018252600a8152694d6f636b46616365744360b01b60208201529051610075919061026d565b60405160038152602001610075565b6100c9610130565b6040516100759392919061027f565b60408051600180825281830190925260609160208083019080368337019050509050637894309960e01b815f81518110610114576101146102c1565b6001600160e01b03199092166020928302919091019091015290565b60408051808201909152600a8152694d6f636b46616365744360b01b60208201526060805f60405190808252806020026020018201604052801561017e578160200160208202803683370190505b5060408051600180825281830190925291935060208083019080368337019050509050637894309960e01b815f815181106101bb576101bb6102c1565b60200260200101906001600160e01b03191690816001600160e01b03191681525050909192565b5f8151808452602084019350602083015f5b8281101561021c5781516001600160e01b0319168652602095860195909101906001016101f4565b5093949350505050565b602081525f61023860208301846101e2565b9392505050565b5f81518084528060208401602086015e5f602082860101526020601f19601f83011685010191505092915050565b602081525f610238602083018461023f565b606081525f610291606083018661023f565b82810360208401526102a381866101e2565b905082810360408401526102b781856101e2565b9695505050505050565b634e487b7160e01b5f52603260045260245ffdfea2646970667358221220346dd177ce93c8052156ab6490812f611f6dab0905a02b097070c98e6efed17864736f6c634300081e0033","linkReferences":{}},"methodIdentifiers":{"facetFuncs()":"574a4cff","facetInterfaces()":"2ea80826","facetMetadata()":"f10d7a75","facetName()":"5b6f4d01","mockFunctionC()":"78943099"},"id":1295}