{"abi":[{"type":"function","name":"facetFuncs","inputs":[],"outputs":[{"name":"funcs","type":"bytes4[]","internalType":"bytes4[]"}],"stateMutability":"pure"},{"type":"function","name":"facetInterfaces","inputs":[],"outputs":[{"name":"interfaces","type":"bytes4[]","internalType":"bytes4[]"}],"stateMutability":"pure"},{"type":"function","name":"facetMetadata","inputs":[],"outputs":[{"name":"name","type":"string","internalType":"string"},{"name":"interfaces","type":"bytes4[]","internalType":"bytes4[]"},{"name":"functions","type":"bytes4[]","internalType":"bytes4[]"}],"stateMutability":"pure"},{"type":"function","name":"facetName","inputs":[],"outputs":[{"name":"","type":"string","internalType":"string"}],"stateMutability":"pure"},{"type":"function","name":"mockFunctionA","inputs":[],"outputs":[{"name":"","type":"uint256","internalType":"uint256"}],"stateMutability":"pure"},{"type":"function","name":"mockFunctionB","inputs":[],"outputs":[{"name":"","type":"uint256","internalType":"uint256"}],"stateMutability":"pure"}],"bytecode":{"object":"0x6080604052348015600e575f5ffd5b5061038e8061001c5f395ff3fe608060405234801561000f575f5ffd5b5060043610610060575f3560e01c80632ea8082614610064578063574a4cff146100895780635b6f4d0114610091578063f08565a8146100be578063f10d7a75146100cf578063faeb48bb146100e6575b5f5ffd5b604080515f8152602081019091525b60405161008091906102a9565b60405180910390f35b6100736100ed565b604080518082018252600b81526a26b7b1b5a330b1b2ba2b1960a91b6020820152905161008091906102f0565b60c85b604051908152602001610080565b6100d761017a565b60405161008093929190610302565b60646100c1565b604080516002808252606080830184529260208301908036833701905050905063faeb48bb60e01b815f8151811061012757610127610344565b6001600160e01b0319909216602092830291909101909101528051631e10acb560e31b908290600190811061015e5761015e610344565b6001600160e01b03199092166020928302919091019091015290565b60408051808201909152600b81526a26b7b1b5a330b1b2ba2b1960a91b60208201526060805f6040519080825280602002602001820160405280156101c9578160200160208202803683370190505b50604080516002808252606082018352929450919060208301908036833701905050905063faeb48bb60e01b815f8151811061020757610207610344565b6001600160e01b0319909216602092830291909101909101528051631e10acb560e31b908290600190811061023e5761023e610344565b60200260200101906001600160e01b03191690816001600160e01b03191681525050909192565b5f8151808452602084019350602083015f5b8281101561029f5781516001600160e01b031916865260209586019590910190600101610277565b5093949350505050565b602081525f6102bb6020830184610265565b9392505050565b5f81518084528060208401602086015e5f602082860101526020601f19601f83011685010191505092915050565b602081525f6102bb60208301846102c2565b606081525f61031460608301866102c2565b82810360208401526103268186610265565b9050828103604084015261033a8185610265565b9695505050505050565b634e487b7160e01b5f52603260045260245ffdfea26469706673582212204bf3e2d9ca3a62eeab30b4336a4564a141bb77ea8528220a40b9ed6e5842a14c64736f6c634300081e0033","linkReferences":{}},"methodIdentifiers":{"facetFuncs()":"574a4cff","facetInterfaces()":"2ea80826","facetMetadata()":"f10d7a75","facetName()":"5b6f4d01","mockFunctionA()":"faeb48bb","mockFunctionB()":"f08565a8"},"id":1295}