{"abi":[{"type":"function","name":"init","inputs":[{"name":"value","type":"uint256","internalType":"uint256"}],"outputs":[],"stateMutability":"nonpayable"},{"type":"function","name":"initRevert","inputs":[],"outputs":[],"stateMutability":"pure"},{"type":"function","name":"lastInitValue","inputs":[],"outputs":[{"name":"","type":"uint256","internalType":"uint256"}],"stateMutability":"view"},{"type":"event","name":"Initialized","inputs":[{"name":"value","type":"uint256","indexed":false,"internalType":"uint256"}],"anonymous":false}],"bytecode":{"object":"0x6080604052348015600e575f5ffd5b5061014d8061001c5f395ff3fe608060405234801561000f575f5ffd5b506004361061003f575f3560e01c80636865377914610043578063b7b0422d1461004d578063e09261c514610060575b5f5ffd5b61004b61007a565b005b61004b61005b366004610100565b6100c6565b6100685f5481565b60405190815260200160405180910390f35b60405162461bcd60e51b815260206004820152601d60248201527f4d6f636b496e69745461726765743a20666f7263656420726576657274000000604482015260640160405180910390fd5b5f8190556040518181527fbe9b076dc5b65990cca9dd9d7366682482e7817a6f6bc7f4faf4dc32af497f329060200160405180910390a150565b5f60208284031215610110575f5ffd5b503591905056fea2646970667358221220915ca5c0583aecd7b467991e4ed39b7b6826d33378a8e83d3b7a7eb773275e3864736f6c634300081e0033","linkReferences":{}},"methodIdentifiers":{"init(uint256)":"b7b0422d","initRevert()":"68653779","lastInitValue()":"e09261c5"},"id":1295}