{"abi":[{"type":"function","name":"deploy","inputs":[{"name":"data","type":"bytes","internalType":"bytes"},{"name":"preventExecution","type":"bool","internalType":"bool"}],"outputs":[],"stateMutability":"nonpayable"},{"type":"event","name":"CodeDeployed","inputs":[{"name":"destination","type":"address","indexed":false,"internalType":"address"}],"anonymous":false},{"type":"error","name":"CodeDeploymentFailed","inputs":[]}],"bytecode":{"object":"0x6080604052348015600e575f5ffd5b506102408061001c5f395ff3fe608060405234801561000f575f5ffd5b5060043610610029575f3560e01c8063561529601461002d575b5f5ffd5b61004061003b366004610149565b610042565b005b5f61004d8383610091565b6040516001600160a01b03821681529091507fea3e8fadbb616efc14cb41f88bca45fca14e4eb41f13eb4c8d2ffcf8695a62c49060200160405180910390a1505050565b5f5f826100be577f602038038060206000396000f3fefefefefefefefefefefefefefefefefefefe6100e0565b7f60fe600053602038038060206001396001016000f3fefefefefefefefefefefe5b9050835181855260208101855ff090855291506001600160a01b03821661011a5760405163fef8220760e01b815260040160405180910390fd5b5092915050565b634e487b7160e01b5f52604160045260245ffd5b80358015158114610144575f5ffd5b919050565b5f5f6040838503121561015a575f5ffd5b82356001600160401b0381111561016f575f5ffd5b8301601f8101851361017f575f5ffd5b80356001600160401b0381111561019857610198610121565b604051601f8201601f19908116603f011681016001600160401b03811182821017156101c6576101c6610121565b6040528181528282016020018710156101dd575f5ffd5b816020840160208301375f6020838301015280945050505061020160208401610135565b9050925092905056fea264697066735822122074c31d05d04f8d1d9e5f3d79202625e02651f0d8a6cefd4cf7a40097792d40dd64736f6c634300081e0033","linkReferences":{}},"methodIdentifiers":{"deploy(bytes,bool)":"56152960"},"id":272}