{"abi":[{"type":"constructor","inputs":[],"stateMutability":"nonpayable"},{"type":"function","name":"DOMAIN_SEPARATOR","inputs":[],"outputs":[{"name":"","type":"bytes32","internalType":"bytes32"}],"stateMutability":"view"},{"type":"function","name":"allowance","inputs":[{"name":"owner","type":"address","internalType":"address"},{"name":"spender","type":"address","internalType":"address"}],"outputs":[{"name":"","type":"uint256","internalType":"uint256"}],"stateMutability":"view"},{"type":"function","name":"approve","inputs":[{"name":"spender","type":"address","internalType":"address"},{"name":"value","type":"uint256","internalType":"uint256"}],"outputs":[{"name":"","type":"bool","internalType":"bool"}],"stateMutability":"nonpayable"},{"type":"function","name":"balanceOf","inputs":[{"name":"account","type":"address","internalType":"address"}],"outputs":[{"name":"","type":"uint256","internalType":"uint256"}],"stateMutability":"view"},{"type":"function","name":"blockTimestampLast","inputs":[],"outputs":[{"name":"","type":"uint256","internalType":"uint256"}],"stateMutability":"view"},{"type":"function","name":"burn","inputs":[{"name":"to","type":"address","internalType":"address"}],"outputs":[{"name":"amount0","type":"uint256","internalType":"uint256"},{"name":"amount1","type":"uint256","internalType":"uint256"}],"stateMutability":"nonpayable"},{"type":"function","name":"claimFees","inputs":[],"outputs":[{"name":"claimed0","type":"uint256","internalType":"uint256"},{"name":"claimed1","type":"uint256","internalType":"uint256"}],"stateMutability":"nonpayable"},{"type":"function","name":"claimable0","inputs":[{"name":"","type":"address","internalType":"address"}],"outputs":[{"name":"","type":"uint256","internalType":"uint256"}],"stateMutability":"view"},{"type":"function","name":"claimable1","inputs":[{"name":"","type":"address","internalType":"address"}],"outputs":[{"name":"","type":"uint256","internalType":"uint256"}],"stateMutability":"view"},{"type":"function","name":"currentCumulativePrices","inputs":[],"outputs":[{"name":"reserve0Cumulative","type":"uint256","internalType":"uint256"},{"name":"reserve1Cumulative","type":"uint256","internalType":"uint256"},{"name":"blockTimestamp","type":"uint256","internalType":"uint256"}],"stateMutability":"view"},{"type":"function","name":"decimals","inputs":[],"outputs":[{"name":"","type":"uint8","internalType":"uint8"}],"stateMutability":"view"},{"type":"function","name":"eip712Domain","inputs":[],"outputs":[{"name":"fields","type":"bytes1","internalType":"bytes1"},{"name":"name","type":"string","internalType":"string"},{"name":"version","type":"string","internalType":"string"},{"name":"chainId","type":"uint256","internalType":"uint256"},{"name":"verifyingContract","type":"address","internalType":"address"},{"name":"salt","type":"bytes32","internalType":"bytes32"},{"name":"extensions","type":"uint256[]","internalType":"uint256[]"}],"stateMutability":"view"},{"type":"function","name":"factory","inputs":[],"outputs":[{"name":"","type":"address","internalType":"address"}],"stateMutability":"view"},{"type":"function","name":"getAmountOut","inputs":[{"name":"amountIn","type":"uint256","internalType":"uint256"},{"name":"tokenIn","type":"address","internalType":"address"}],"outputs":[{"name":"","type":"uint256","internalType":"uint256"}],"stateMutability":"view"},{"type":"function","name":"getK","inputs":[],"outputs":[{"name":"","type":"uint256","internalType":"uint256"}],"stateMutability":"nonpayable"},{"type":"function","name":"getReserves","inputs":[],"outputs":[{"name":"_reserve0","type":"uint256","internalType":"uint256"},{"name":"_reserve1","type":"uint256","internalType":"uint256"},{"name":"_blockTimestampLast","type":"uint256","internalType":"uint256"}],"stateMutability":"view"},{"type":"function","name":"index0","inputs":[],"outputs":[{"name":"","type":"uint256","internalType":"uint256"}],"stateMutability":"view"},{"type":"function","name":"index1","inputs":[],"outputs":[{"name":"","type":"uint256","internalType":"uint256"}],"stateMutability":"view"},{"type":"function","name":"initialize","inputs":[{"name":"_token0","type":"address","internalType":"address"},{"name":"_token1","type":"address","internalType":"address"},{"name":"_stable","type":"bool","internalType":"bool"}],"outputs":[],"stateMutability":"nonpayable"},{"type":"function","name":"lastObservation","inputs":[],"outputs":[{"name":"","type":"tuple","internalType":"struct IPool.Observation","components":[{"name":"timestamp","type":"uint256","internalType":"uint256"},{"name":"reserve0Cumulative","type":"uint256","internalType":"uint256"},{"name":"reserve1Cumulative","type":"uint256","internalType":"uint256"}]}],"stateMutability":"view"},{"type":"function","name":"metadata","inputs":[],"outputs":[{"name":"dec0","type":"uint256","internalType":"uint256"},{"name":"dec1","type":"uint256","internalType":"uint256"},{"name":"r0","type":"uint256","internalType":"uint256"},{"name":"r1","type":"uint256","internalType":"uint256"},{"name":"st","type":"bool","internalType":"bool"},{"name":"t0","type":"address","internalType":"address"},{"name":"t1","type":"address","internalType":"address"}],"stateMutability":"view"},{"type":"function","name":"mint","inputs":[{"name":"to","type":"address","internalType":"address"}],"outputs":[{"name":"liquidity","type":"uint256","internalType":"uint256"}],"stateMutability":"nonpayable"},{"type":"function","name":"name","inputs":[],"outputs":[{"name":"","type":"string","internalType":"string"}],"stateMutability":"view"},{"type":"function","name":"nonces","inputs":[{"name":"owner","type":"address","internalType":"address"}],"outputs":[{"name":"","type":"uint256","internalType":"uint256"}],"stateMutability":"view"},{"type":"function","name":"observationLength","inputs":[],"outputs":[{"name":"","type":"uint256","internalType":"uint256"}],"stateMutability":"view"},{"type":"function","name":"observations","inputs":[{"name":"","type":"uint256","internalType":"uint256"}],"outputs":[{"name":"timestamp","type":"uint256","internalType":"uint256"},{"name":"reserve0Cumulative","type":"uint256","internalType":"uint256"},{"name":"reserve1Cumulative","type":"uint256","internalType":"uint256"}],"stateMutability":"view"},{"type":"function","name":"periodSize","inputs":[],"outputs":[{"name":"","type":"uint256","internalType":"uint256"}],"stateMutability":"view"},{"type":"function","name":"permit","inputs":[{"name":"owner","type":"address","internalType":"address"},{"name":"spender","type":"address","internalType":"address"},{"name":"value","type":"uint256","internalType":"uint256"},{"name":"deadline","type":"uint256","internalType":"uint256"},{"name":"v","type":"uint8","internalType":"uint8"},{"name":"r","type":"bytes32","internalType":"bytes32"},{"name":"s","type":"bytes32","internalType":"bytes32"}],"outputs":[],"stateMutability":"nonpayable"},{"type":"function","name":"poolFees","inputs":[],"outputs":[{"name":"","type":"address","internalType":"address"}],"stateMutability":"view"},{"type":"function","name":"prices","inputs":[{"name":"tokenIn","type":"address","internalType":"address"},{"name":"amountIn","type":"uint256","internalType":"uint256"},{"name":"points","type":"uint256","internalType":"uint256"}],"outputs":[{"name":"","type":"uint256[]","internalType":"uint256[]"}],"stateMutability":"view"},{"type":"function","name":"quote","inputs":[{"name":"tokenIn","type":"address","internalType":"address"},{"name":"amountIn","type":"uint256","internalType":"uint256"},{"name":"granularity","type":"uint256","internalType":"uint256"}],"outputs":[{"name":"amountOut","type":"uint256","internalType":"uint256"}],"stateMutability":"view"},{"type":"function","name":"reserve0","inputs":[],"outputs":[{"name":"","type":"uint256","internalType":"uint256"}],"stateMutability":"view"},{"type":"function","name":"reserve0CumulativeLast","inputs":[],"outputs":[{"name":"","type":"uint256","internalType":"uint256"}],"stateMutability":"view"},{"type":"function","name":"reserve1","inputs":[],"outputs":[{"name":"","type":"uint256","internalType":"uint256"}],"stateMutability":"view"},{"type":"function","name":"reserve1CumulativeLast","inputs":[],"outputs":[{"name":"","type":"uint256","internalType":"uint256"}],"stateMutability":"view"},{"type":"function","name":"sample","inputs":[{"name":"tokenIn","type":"address","internalType":"address"},{"name":"amountIn","type":"uint256","internalType":"uint256"},{"name":"points","type":"uint256","internalType":"uint256"},{"name":"window","type":"uint256","internalType":"uint256"}],"outputs":[{"name":"","type":"uint256[]","internalType":"uint256[]"}],"stateMutability":"view"},{"type":"function","name":"setName","inputs":[{"name":"__name","type":"string","internalType":"string"}],"outputs":[],"stateMutability":"nonpayable"},{"type":"function","name":"setSymbol","inputs":[{"name":"__symbol","type":"string","internalType":"string"}],"outputs":[],"stateMutability":"nonpayable"},{"type":"function","name":"skim","inputs":[{"name":"to","type":"address","internalType":"address"}],"outputs":[],"stateMutability":"nonpayable"},{"type":"function","name":"stable","inputs":[],"outputs":[{"name":"","type":"bool","internalType":"bool"}],"stateMutability":"view"},{"type":"function","name":"supplyIndex0","inputs":[{"name":"","type":"address","internalType":"address"}],"outputs":[{"name":"","type":"uint256","internalType":"uint256"}],"stateMutability":"view"},{"type":"function","name":"supplyIndex1","inputs":[{"name":"","type":"address","internalType":"address"}],"outputs":[{"name":"","type":"uint256","internalType":"uint256"}],"stateMutability":"view"},{"type":"function","name":"swap","inputs":[{"name":"amount0Out","type":"uint256","internalType":"uint256"},{"name":"amount1Out","type":"uint256","internalType":"uint256"},{"name":"to","type":"address","internalType":"address"},{"name":"data","type":"bytes","internalType":"bytes"}],"outputs":[],"stateMutability":"nonpayable"},{"type":"function","name":"symbol","inputs":[],"outputs":[{"name":"","type":"string","internalType":"string"}],"stateMutability":"view"},{"type":"function","name":"sync","inputs":[],"outputs":[],"stateMutability":"nonpayable"},{"type":"function","name":"token0","inputs":[],"outputs":[{"name":"","type":"address","internalType":"address"}],"stateMutability":"view"},{"type":"function","name":"token1","inputs":[],"outputs":[{"name":"","type":"address","internalType":"address"}],"stateMutability":"view"},{"type":"function","name":"tokens","inputs":[],"outputs":[{"name":"","type":"address","internalType":"address"},{"name":"","type":"address","internalType":"address"}],"stateMutability":"view"},{"type":"function","name":"totalSupply","inputs":[],"outputs":[{"name":"","type":"uint256","internalType":"uint256"}],"stateMutability":"view"},{"type":"function","name":"transfer","inputs":[{"name":"to","type":"address","internalType":"address"},{"name":"value","type":"uint256","internalType":"uint256"}],"outputs":[{"name":"","type":"bool","internalType":"bool"}],"stateMutability":"nonpayable"},{"type":"function","name":"transferFrom","inputs":[{"name":"from","type":"address","internalType":"address"},{"name":"to","type":"address","internalType":"address"},{"name":"value","type":"uint256","internalType":"uint256"}],"outputs":[{"name":"","type":"bool","internalType":"bool"}],"stateMutability":"nonpayable"},{"type":"event","name":"Approval","inputs":[{"name":"owner","type":"address","indexed":true,"internalType":"address"},{"name":"spender","type":"address","indexed":true,"internalType":"address"},{"name":"value","type":"uint256","indexed":false,"internalType":"uint256"}],"anonymous":false},{"type":"event","name":"Burn","inputs":[{"name":"sender","type":"address","indexed":true,"internalType":"address"},{"name":"to","type":"address","indexed":true,"internalType":"address"},{"name":"amount0","type":"uint256","indexed":false,"internalType":"uint256"},{"name":"amount1","type":"uint256","indexed":false,"internalType":"uint256"}],"anonymous":false},{"type":"event","name":"Claim","inputs":[{"name":"sender","type":"address","indexed":true,"internalType":"address"},{"name":"recipient","type":"address","indexed":true,"internalType":"address"},{"name":"amount0","type":"uint256","indexed":false,"internalType":"uint256"},{"name":"amount1","type":"uint256","indexed":false,"internalType":"uint256"}],"anonymous":false},{"type":"event","name":"EIP712DomainChanged","inputs":[],"anonymous":false},{"type":"event","name":"Fees","inputs":[{"name":"sender","type":"address","indexed":true,"internalType":"address"},{"name":"amount0","type":"uint256","indexed":false,"internalType":"uint256"},{"name":"amount1","type":"uint256","indexed":false,"internalType":"uint256"}],"anonymous":false},{"type":"event","name":"Mint","inputs":[{"name":"sender","type":"address","indexed":true,"internalType":"address"},{"name":"amount0","type":"uint256","indexed":false,"internalType":"uint256"},{"name":"amount1","type":"uint256","indexed":false,"internalType":"uint256"}],"anonymous":false},{"type":"event","name":"Swap","inputs":[{"name":"sender","type":"address","indexed":true,"internalType":"address"},{"name":"to","type":"address","indexed":true,"internalType":"address"},{"name":"amount0In","type":"uint256","indexed":false,"internalType":"uint256"},{"name":"amount1In","type":"uint256","indexed":false,"internalType":"uint256"},{"name":"amount0Out","type":"uint256","indexed":false,"internalType":"uint256"},{"name":"amount1Out","type":"uint256","indexed":false,"internalType":"uint256"}],"anonymous":false},{"type":"event","name":"Sync","inputs":[{"name":"reserve0","type":"uint256","indexed":false,"internalType":"uint256"},{"name":"reserve1","type":"uint256","indexed":false,"internalType":"uint256"}],"anonymous":false},{"type":"event","name":"Transfer","inputs":[{"name":"from","type":"address","indexed":true,"internalType":"address"},{"name":"to","type":"address","indexed":true,"internalType":"address"},{"name":"value","type":"uint256","indexed":false,"internalType":"uint256"}],"anonymous":false},{"type":"error","name":"BelowMinimumK","inputs":[]},{"type":"error","name":"DepositsNotEqual","inputs":[]},{"type":"error","name":"ECDSAInvalidSignature","inputs":[]},{"type":"error","name":"ECDSAInvalidSignatureLength","inputs":[{"name":"length","type":"uint256","internalType":"uint256"}]},{"type":"error","name":"ECDSAInvalidSignatureS","inputs":[{"name":"s","type":"bytes32","internalType":"bytes32"}]},{"type":"error","name":"ERC20InsufficientAllowance","inputs":[{"name":"spender","type":"address","internalType":"address"},{"name":"allowance","type":"uint256","internalType":"uint256"},{"name":"needed","type":"uint256","internalType":"uint256"}]},{"type":"error","name":"ERC20InsufficientBalance","inputs":[{"name":"sender","type":"address","internalType":"address"},{"name":"balance","type":"uint256","internalType":"uint256"},{"name":"needed","type":"uint256","internalType":"uint256"}]},{"type":"error","name":"ERC20InvalidApprover","inputs":[{"name":"approver","type":"address","internalType":"address"}]},{"type":"error","name":"ERC20InvalidReceiver","inputs":[{"name":"receiver","type":"address","internalType":"address"}]},{"type":"error","name":"ERC20InvalidSender","inputs":[{"name":"sender","type":"address","internalType":"address"}]},{"type":"error","name":"ERC20InvalidSpender","inputs":[{"name":"spender","type":"address","internalType":"address"}]},{"type":"error","name":"ERC2612ExpiredSignature","inputs":[{"name":"deadline","type":"uint256","internalType":"uint256"}]},{"type":"error","name":"ERC2612InvalidSigner","inputs":[{"name":"signer","type":"address","internalType":"address"},{"name":"owner","type":"address","internalType":"address"}]},{"type":"error","name":"FactoryAlreadySet","inputs":[]},{"type":"error","name":"InsufficientInputAmount","inputs":[]},{"type":"error","name":"InsufficientLiquidity","inputs":[]},{"type":"error","name":"InsufficientLiquidityBurned","inputs":[]},{"type":"error","name":"InsufficientLiquidityMinted","inputs":[]},{"type":"error","name":"InsufficientOutputAmount","inputs":[]},{"type":"error","name":"InvalidAccountNonce","inputs":[{"name":"account","type":"address","internalType":"address"},{"name":"currentNonce","type":"uint256","internalType":"uint256"}]},{"type":"error","name":"InvalidShortString","inputs":[]},{"type":"error","name":"InvalidTo","inputs":[]},{"type":"error","name":"IsPaused","inputs":[]},{"type":"error","name":"K","inputs":[]},{"type":"error","name":"NotEmergencyCouncil","inputs":[]},{"type":"error","name":"Reentrancy","inputs":[]},{"type":"error","name":"StringTooLong","inputs":[{"name":"str","type":"string","internalType":"string"}]}],"bytecode":{"object":"0x6101606040525f6017555f601855348015610018575f5ffd5b5060408051602080820183525f8083528351808501855260018152603160f81b81840152845180840186528281528551938401909552908252919283929160036100628382610239565b50600461006f8282610239565b5061007f91508390506005610129565b6101205261008e816006610129565b61014052815160208084019190912060e052815190820120610100524660a05261011a60e05161010051604080517f8b73c3c69bb8fe3d512ecc4cf759cc79239f7b179b0ffacaa9a75d522b39400f60208201529081019290925260608201524660808201523060a08201525f9060c00160405160208183030381529060405280519060200120905090565b60805250503060c0525061034b565b5f6020835110156101445761013d8361015b565b9050610155565b8161014f8482610239565b5060ff90505b92915050565b5f5f829050601f8151111561018e578260405163305a27a960e01b815260040161018591906102f3565b60405180910390fd5b805161019982610328565b179392505050565b634e487b7160e01b5f52604160045260245ffd5b600181811c908216806101c957607f821691505b6020821081036101e757634e487b7160e01b5f52602260045260245ffd5b50919050565b601f82111561023457805f5260205f20601f840160051c810160208510156102125750805b601f840160051c820191505b81811015610231575f815560010161021e565b50505b505050565b81516001600160401b03811115610252576102526101a1565b6102668161026084546101b5565b846101ed565b6020601f821160018114610298575f83156102815750848201515b5f19600385901b1c1916600184901b178455610231565b5f84815260208120601f198516915b828110156102c757878501518255602094850194600190920191016102a7565b50848210156102e457868401515f19600387901b60f8161c191681555b50505050600190811b01905550565b602081525f82518060208401528060208501604085015e5f604082850101526040601f19601f83011684010191505092915050565b805160208083015191908110156101e7575f1960209190910360031b1b16919050565b60805160a05160c05160e0516101005161012051610140516141de61039c5f395f612b4b01525f612b1e01525f612a0a01525f6129e201525f61293d01525f61296701525f61299101526141de5ff3fe608060405234801561000f575f5ffd5b506004361061024f575f3560e01c8063022c0d9f1461025357806306fdde03146102685780630902f1ac14610286578063095ea7b3146102ab5780630dfe1681146102ce57806313345fe1146102ee57806318160ddd1461030e5780631df8c71714610320578063205aabf11461032857806322be3de11461034757806323b872dd1461035b578063252c09d71461036e578063313ce5671461038157806332c0defd1461039057806333580959146103995780633644e515146103ac578063392f37e9146103b4578063443cb4bc146104165780634d5a9f8a1461041f5780635881c4751461043e5780635a76f25e146104515780636a6278421461045a57806370a082311461046d5780637ecebe001461048057806384b0196e1461049357806389afcb44146104ae5780638a7b8cf2146104cf57806395d89b41146104f95780639d63848a146105015780639e8cc04b146105215780639f767c8814610534578063a1ac4d1314610553578063a9059cbb14610572578063b84c824614610585578063bc25cf7714610598578063bda39cad146105ab578063bf944dbc146105b4578063c245febc146105bd578063c45a0155146105c6578063c47f0027146105d9578063c5700a02146105ec578063d21220a7146105f5578063d294f09314610608578063d505accf14610610578063dd62ed3e14610623578063e4463eb214610636578063e4bbb5a81461063f578063ebeb31db14610652578063ee39e7a01461065a578063f140a35a14610662578063fff6cae914610675575b5f5ffd5b6102666102613660046134c2565b61067d565b005b610270610cd1565b60405161027d9190613554565b60405180910390f35b6012546013546014545b6040805193845260208401929092529082015260600161027d565b6102be6102b9366004613566565b610d61565b604051901515815260200161027d565b600b546102e1906001600160a01b031681565b60405161027d9190613590565b6103016102fc3660046135a4565b610d7a565b60405161027d9190613616565b6002545b60405190815260200161027d565b610290610f60565b610312610336366004613628565b601a6020525f908152604090205481565b600a546102be90600160a01b900460ff1681565b6102be610369366004613643565b610fcd565b61029061037c366004613681565b610ff2565b6040516012815260200161027d565b61031260175481565b600d546102e1906001600160a01b031681565b610312611023565b601054601154601254601354600a54600b54600c54604080519788526020880196909652948601939093526060850191909152600160a01b900460ff16151560808401526001600160a01b0390811660a08401521660c082015260e00161027d565b61031260125481565b61031261042d366004613628565b601b6020525f908152604090205481565b61030161044c366004613698565b611031565b61031260135481565b610312610468366004613628565b611040565b61031261047b366004613628565b611325565b61031261048e366004613628565b61133f565b61049b61135c565b60405161027d97969594939291906136ca565b6104c16104bc366004613628565b61139e565b60405161027d929190613739565b6104d76116ad565b604080518251815260208084015190820152918101519082015260600161027d565b610270611727565b600b54600c5460405161027d926001600160a01b03908116921690613747565b61031261052f366004613698565b611736565b610312610542366004613628565b60196020525f908152604090205481565b610312610561366004613628565b601c6020525f908152604090205481565b6102be610580366004613566565b61179b565b610266610593366004613761565b6117a8565b6102666105a6366004613628565b61185f565b61031260185481565b61031260155481565b61031260165481565b600e546102e1906001600160a01b031681565b6102666105e7366004613761565b6119c5565b61031260145481565b600c546102e1906001600160a01b031681565b6104c1611a77565b61026661061e3660046137ad565b611b92565b610312610631366004613819565b611cbe565b61031261070881565b61026661064d36600461385d565b611ce8565b600f54610312565b610312612113565b6103126106703660046138a5565b61215d565b61026661221d565b3068929eee149b4bd21268540361069b5763ab143c065f526004601cfd5b3068929eee149b4bd2126855600e5f9054906101000a90046001600160a01b03166001600160a01b031663b187bd266040518163ffffffff1660e01b8152600401602060405180830381865afa1580156106f7573d5f5f3e3d5ffd5b505050506040513d601f19601f8201168201806040525081019061071b91906138c8565b1561073957604051631309a56360e01b815260040160405180910390fd5b84158015610745575083155b15610763576040516342301c2360e01b815260040160405180910390fd5b60125460135481871015806107785750808610155b156107965760405163bb55fd2760e01b815260040160405180910390fd5b600b54600c545f9182916001600160a01b03918216919081169089168214806107d05750806001600160a01b0316896001600160a01b0316145b156107ee57604051630521f43160e31b815260040160405180910390fd5b8a15610808576108086001600160a01b0383168a8d612343565b8915610822576108226001600160a01b0382168a8c612343565b861561088a57604051639a7bff7960e01b81526001600160a01b038a1690639a7bff799061085c9033908f908f908e908e906004016138e3565b5f604051808303815f87803b158015610873575f5ffd5b505af1158015610885573d5f5f3e3d5ffd5b505050505b6040516370a0823160e01b81526001600160a01b038316906370a08231906108b6903090600401613590565b602060405180830381865afa1580156108d1573d5f5f3e3d5ffd5b505050506040513d601f19601f820116820180604052508101906108f5919061392e565b6040516370a0823160e01b81529094506001600160a01b038216906370a0823190610924903090600401613590565b602060405180830381865afa15801561093f573d5f5f3e3d5ffd5b505050506040513d601f19601f82011682018060405250810190610963919061392e565b925050505f89856109749190613959565b8311610980575f610994565b61098a8a86613959565b6109949084613959565b90505f6109a18a86613959565b83116109ad575f6109c1565b6109b78a86613959565b6109c19084613959565b9050811580156109cf575080155b156109ed5760405163098fb56160e01b815260040160405180910390fd5b600b54600c546001600160a01b0391821691168315610aa457600e54600a5460405163cc56b2c560e01b8152610aa492612710926001600160a01b039091169163cc56b2c591610a4c913091600160a01b900460ff169060040161396c565b602060405180830381865afa158015610a67573d5f5f3e3d5ffd5b505050506040513d601f19601f82011682018060405250810190610a8b919061392e565b610a959087613987565b610a9f919061399e565b61234e565b8215610b4857600e54600a5460405163cc56b2c560e01b8152610b4892612710926001600160a01b039091169163cc56b2c591610af0913091600160a01b900460ff169060040161396c565b602060405180830381865afa158015610b0b573d5f5f3e3d5ffd5b505050506040513d601f19601f82011682018060405250810190610b2f919061392e565b610b399086613987565b610b43919061399e565b6123ee565b6040516370a0823160e01b81526001600160a01b038316906370a0823190610b74903090600401613590565b602060405180830381865afa158015610b8f573d5f5f3e3d5ffd5b505050506040513d601f19601f82011682018060405250810190610bb3919061392e565b6040516370a0823160e01b81529096506001600160a01b038216906370a0823190610be2903090600401613590565b602060405180830381865afa158015610bfd573d5f5f3e3d5ffd5b505050506040513d601f19601f82011682018060405250810190610c21919061392e565b9450610c2d8888612482565b610c378787612482565b1015610c565760405163a932492f60e01b815260040160405180910390fd5b5050610c648484888861257d565b60408051838152602081018390528082018d9052606081018c905290516001600160a01b038b169133917fb3e2773606abfd36b5bd91394b3a54d1398336c65005baf7bf7a05efeffaf75b9181900360800190a35050505050503868929eee149b4bd21268555050505050565b606060088054610ce0906139bd565b80601f0160208091040260200160405190810160405280929190818152602001828054610d0c906139bd565b8015610d575780601f10610d2e57610100808354040283529160200191610d57565b820191905f5260205f20905b815481529060010190602001808311610d3a57829003601f168201915b5050505050905090565b5f33610d6e8185856126d3565b60019150505b92915050565b60605f836001600160401b03811115610d9557610d956139f5565b604051908082528060200260200182016040528015610dbe578160200160208202803683370190505b50600f549091505f90610dd390600190613959565b90505f610de08587613987565b610dea9083613959565b90505f805b83831015610f5057610e018784613a09565b91505f600f8481548110610e1757610e17613a1c565b905f5260205f2090600302015f0154600f8481548110610e3957610e39613a1c565b905f5260205f2090600302015f0154610e529190613959565b90505f81600f8681548110610e6957610e69613a1c565b905f5260205f20906003020160010154600f8681548110610e8c57610e8c613a1c565b905f5260205f20906003020160010154610ea69190613959565b610eb0919061399e565b90505f82600f8781548110610ec757610ec7613a1c565b905f5260205f20906003020160020154600f8781548110610eea57610eea613a1c565b905f5260205f20906003020160020154610f049190613959565b610f0e919061399e565b9050610f1c8c8e84846126e0565b888581518110610f2e57610f2e613a1c565b6020908102919091010152505050600101610f498784613a09565b9250610def565b509293505050505b949350505050565b601554601654425f8080610f7d6012546013546014549192909190565b925092509250838114610fc5575f610f958286613959565b9050610fa18185613987565b610fab9088613a09565b9650610fb78184613987565b610fc19087613a09565b9550505b505050909192565b5f33610fda858285612883565b610fe58585856128d4565b60019150505b9392505050565b600f8181548110611001575f80fd5b5f91825260209091206003909102018054600182015460029092015490925083565b5f61102c612931565b905090565b6060610f588484846001610d7a565b5f3068929eee149b4bd21268540361105f5763ab143c065f526004601cfd5b3068929eee149b4bd21268819055601254601354600b546040516370a0823160e01b8152929391925f926001600160a01b03909216916370a08231916110a89190600401613590565b602060405180830381865afa1580156110c3573d5f5f3e3d5ffd5b505050506040513d601f19601f820116820180604052508101906110e7919061392e565b600c546040516370a0823160e01b81529192505f916001600160a01b03909116906370a082319061111c903090600401613590565b602060405180830381865afa158015611137573d5f5f3e3d5ffd5b505050506040513d601f19601f8201168201806040525081019061115b919061392e565b90505f6111688584613959565b90505f6111758584613959565b90505f61118160025490565b9050805f03611259576103e861119f61119a8486613987565b612a5a565b6111a99190613959565b97506111b860016103e8612adf565b600a54600160a01b900460ff1615611254576011546111df83670de0b6b3a7640000613987565b6111e9919061399e565b6010546111fe85670de0b6b3a7640000613987565b611208919061399e565b14611226576040516305026bfd60e11b815260040160405180910390fd5b6402540be4006112368484612482565b11611254576040516321c69d6f60e11b815260040160405180910390fd5b611294565b611291876112678386613987565b611271919061399e565b8761127c8486613987565b611286919061399e565b818118908211021890565b97505b875f036112b457604051633489be7560e21b815260040160405180910390fd5b6112be8989612adf565b6112ca8585898961257d565b336001600160a01b03167f4c209b5fc8ad50758f13e2e1088ba56a560dff690a1c6fef26394f4c03821c4f8484604051611305929190613739565b60405180910390a2505050505050503868929eee149b4bd2126855919050565b6001600160a01b03165f9081526020819052604090205490565b6001600160a01b0381165f90815260076020526040812054610d74565b5f6060805f5f5f606061136d612b17565b611375612b44565b604080515f80825260208201909252600f60f81b9b939a50919850469750309650945092509050565b5f5f3068929eee149b4bd2126854036113be5763ab143c065f526004601cfd5b3068929eee149b4bd21268819055601254601354600b54600c546040516370a0823160e01b8152939492936001600160a01b039283169391909216915f9184916370a082319161141091600401613590565b602060405180830381865afa15801561142b573d5f5f3e3d5ffd5b505050506040513d601f19601f8201168201806040525081019061144f919061392e565b90505f826001600160a01b03166370a08231306040518263ffffffff1660e01b815260040161147e9190613590565b602060405180830381865afa158015611499573d5f5f3e3d5ffd5b505050506040513d601f19601f820116820180604052508101906114bd919061392e565b90505f6114c930611325565b90505f6114d560025490565b9050806114e28584613987565b6114ec919061399e565b9950806114f98484613987565b611503919061399e565b9850891580611510575088155b1561152e5760405163749383ad60e01b815260040160405180910390fd5b6115383083612b71565b61154c6001600160a01b0387168c8c612343565b6115606001600160a01b0386168c8b612343565b6040516370a0823160e01b81526001600160a01b038716906370a082319061158c903090600401613590565b602060405180830381865afa1580156115a7573d5f5f3e3d5ffd5b505050506040513d601f19601f820116820180604052508101906115cb919061392e565b6040516370a0823160e01b81529094506001600160a01b038616906370a08231906115fa903090600401613590565b602060405180830381865afa158015611615573d5f5f3e3d5ffd5b505050506040513d601f19601f82011682018060405250810190611639919061392e565b925061164784848a8a61257d565b6001600160a01b038b16336001600160a01b03167f5d624aa9c148153ab3446c1b154f660ee7701e549fe9b62dab7171b1c80e6fa28c8c60405161168c929190613739565b60405180910390a350505050505050503868929eee149b4bd2126855915091565b6116ce60405180606001604052805f81526020015f81526020015f81525090565b600f80546116de90600190613959565b815481106116ee576116ee613a1c565b905f5260205f2090600302016040518060600160405290815f820154815260200160018201548152602001600282015481525050905090565b606060098054610ce0906139bd565b5f5f6117458585856001610d7a565b80519091505f90815b818110156117855783818151811061176857611768613a1c565b60200260200101518361177b9190613a09565b925060010161174e565b50611790858361399e565b979650505050505050565b5f33610d6e8185856128d4565b600a5f9054906101000a90046001600160a01b03166001600160a01b0316637778960e6040518163ffffffff1660e01b8152600401602060405180830381865afa1580156117f8573d5f5f3e3d5ffd5b505050506040513d601f19601f8201168201806040525081019061181c9190613a30565b6001600160a01b0316336001600160a01b03161461184d5760405163c560129360e01b815260040160405180910390fd5b600961185a828483613aaa565b505050565b3068929eee149b4bd21268540361187d5763ab143c065f526004601cfd5b3068929eee149b4bd21268819055600b54600c546012546040516370a0823160e01b81526001600160a01b039384169493909216926119279286929186916370a08231916118cd91600401613590565b602060405180830381865afa1580156118e8573d5f5f3e3d5ffd5b505050506040513d601f19601f8201168201806040525081019061190c919061392e565b6119169190613959565b6001600160a01b0385169190612343565b6119b483601354836001600160a01b03166370a08231306040518263ffffffff1660e01b815260040161195a9190613590565b602060405180830381865afa158015611975573d5f5f3e3d5ffd5b505050506040513d601f19601f82011682018060405250810190611999919061392e565b6119a39190613959565b6001600160a01b0384169190612343565b50503868929eee149b4bd212685550565b600a5f9054906101000a90046001600160a01b03166001600160a01b0316637778960e6040518163ffffffff1660e01b8152600401602060405180830381865afa158015611a15573d5f5f3e3d5ffd5b505050506040513d601f19601f82011682018060405250810190611a399190613a30565b6001600160a01b0316336001600160a01b031614611a6a5760405163c560129360e01b815260040160405180910390fd5b600861185a828483613aaa565b5f8033611a8381612ba5565b6001600160a01b0381165f908152601b6020908152604080832054601c90925290912054909350915082151580611ab957505f82115b15611b8d576001600160a01b038082165f908152601b60209081526040808320839055601c90915280822091909155600d54905163299e7ae760e11b815291169063533cf5ce90611b1290849087908790600401613b5e565b5f604051808303815f87803b158015611b29575f5ffd5b505af1158015611b3b573d5f5f3e3d5ffd5b50505050806001600160a01b0316816001600160a01b03167f865ca08d59f5cb456e85cd2f7ef63664ea4f73327414e9d8152c4158b0e946458585604051611b84929190613739565b60405180910390a35b509091565b83421115611bbb5760405163313c898160e11b8152600481018590526024015b60405180910390fd5b5f7f6e71edae12b1b97f4d1f60370fef10105fa2faae0126114a169c64845d6126c9888888611c068c6001600160a01b03165f90815260076020526040902080546001810190915590565b6040805160208101969096526001600160a01b0394851690860152929091166060840152608083015260a082015260c0810186905260e0016040516020818303038152906040528051906020012090505f611c6082612cf1565b90505f611c6f82878787612d1d565b9050896001600160a01b0316816001600160a01b031614611ca757808a6040516325c0072360e11b8152600401611bb2929190613747565b611cb28a8a8a6126d3565b50505050505050505050565b6001600160a01b039182165f90815260016020908152604080832093909416825291909152205490565b600e546001600160a01b031615611d12576040516302a98a3760e31b815260040160405180910390fd5b600e80546001600160a01b03191633908117909155604080516311b25aab60e21b815290516346c96aac916004808201926020929091908290030181865afa158015611d60573d5f5f3e3d5ffd5b505050506040513d601f19601f82011682018060405250810190611d849190613a30565b600a80546001600160a01b039283166001600160a81b031990911617600160a01b84151502179055600c80546001600160a01b031990811685841617909155600b805490911691851691909117905560405183908390611de39061345a565b611dee929190613747565b604051809103905ff080158015611e07573d5f5f3e3d5ffd5b50600d5f6101000a8154816001600160a01b0302191690836001600160a01b031602179055505f836001600160a01b03166395d89b416040518163ffffffff1660e01b81526004015f60405180830381865afa158015611e69573d5f5f3e3d5ffd5b505050506040513d5f823e601f3d908101601f19168201604052611e909190810190613b7f565b90505f836001600160a01b03166395d89b416040518163ffffffff1660e01b81526004015f60405180830381865afa158015611ece573d5f5f3e3d5ffd5b505050506040513d5f823e601f3d908101601f19168201604052611ef59190810190613b7f565b90508215611f64578181604051602001611f10929190613c46565b60405160208183030381529060405260089081611f2d9190613c7b565b508181604051602001611f41929190613d30565b60405160208183030381529060405260099081611f5e9190613c7b565b50611fc7565b8181604051602001611f77929190613d49565b60405160208183030381529060405260089081611f949190613c7b565b508181604051602001611fa8929190613d6c565b60405160208183030381529060405260099081611fc59190613c7b565b505b846001600160a01b031663313ce5676040518163ffffffff1660e01b8152600401602060405180830381865afa158015612003573d5f5f3e3d5ffd5b505050506040513d601f19601f820116820180604052508101906120279190613d85565b61203290600a613e83565b601081905550836001600160a01b031663313ce5676040518163ffffffff1660e01b8152600401602060405180830381865afa158015612074573d5f5f3e3d5ffd5b505050506040513d601f19601f820116820180604052508101906120989190613d85565b6120a390600a613e83565b6011555050604080516060810182524281525f60208201818152928201818152600f8054600181018255925291515f5160206141895f395f51905f5260039092029182015591515f5160206141495f395f51905f52830155515f5160206141295f395f51905f5290910155505050565b5f3068929eee149b4bd2126854036121325763ab143c065f526004601cfd5b3068929eee149b4bd212685561214c601254601354612482565b90503868929eee149b4bd212685590565b601254601354600e54600a5460405163cc56b2c560e01b81525f949392612710926001600160a01b039091169163cc56b2c5916121a9913091600160a01b900460ff169060040161396c565b602060405180830381865afa1580156121c4573d5f5f3e3d5ffd5b505050506040513d601f19601f820116820180604052508101906121e8919061392e565b6121f29087613987565b6121fc919061399e565b6122069086613959565b9450612214858584846126e0565b95945050505050565b3068929eee149b4bd21268540361223b5763ab143c065f526004601cfd5b3068929eee149b4bd21268819055600b546040516370a0823160e01b8152612335926001600160a01b03909216916370a082319161227c9190600401613590565b602060405180830381865afa158015612297573d5f5f3e3d5ffd5b505050506040513d601f19601f820116820180604052508101906122bb919061392e565b600c546040516370a0823160e01b81526001600160a01b03909116906370a08231906122eb903090600401613590565b602060405180830381865afa158015612306573d5f5f3e3d5ffd5b505050506040513d601f19601f8201168201806040525081019061232a919061392e565b60125460135461257d565b3868929eee149b4bd2126855565b61185a838383612d49565b805f036123585750565b600d54600b54612375916001600160a01b03918216911683612343565b5f61237f60025490565b61239183670de0b6b3a7640000613987565b61239b919061399e565b905080156123ba578060175f8282546123b49190613a09565b90915550505b336001600160a01b03165f5160206141695f395f51905f52835f6040516123e2929190613739565b60405180910390a25050565b805f036123f85750565b600d54600c54612415916001600160a01b03918216911683612343565b5f61241f60025490565b61243183670de0b6b3a7640000613987565b61243b919061399e565b9050801561245a578060185f8282546124549190613a09565b90915550505b336001600160a01b03165f5160206141695f395f51905f525f846040516123e2929190613739565b600a545f90600160a01b900460ff161561256c576010545f906124ad85670de0b6b3a7640000613987565b6124b7919061399e565b90505f60115484670de0b6b3a76400006124d19190613987565b6124db919061399e565b90505f670de0b6b3a76400006124f18385613987565b6124fb919061399e565b90505f670de0b6b3a76400006125118480613987565b61251b919061399e565b670de0b6b3a764000061252e8680613987565b612538919061399e565b6125429190613a09565b9050670de0b6b3a76400006125578284613987565b612561919061399e565b945050505050610d74565b6125768284613987565b9050610d74565b60145442905f9061258e9083613959565b90505f8111801561259e57508315155b80156125a957508215155b156125ee576125b88185613987565b60155f8282546125c89190613a09565b909155506125d890508184613987565b60165f8282546125e89190613a09565b90915550505b5f6125f76116ad565b80519091506126069084613959565b9150610708821115612681576040805160608101825284815260155460208201908152601654928201928352600f80546001810182555f9190915291515f5160206141895f395f51905f52600390930292830155515f5160206141495f395f51905f5282015590515f5160206141295f395f51905f52909101555b6012879055601386905560148390556040517fcf2aa50876cdfbb541206f89af0ee78d44a2abf8d328e37fa4917f982149848a906126c29089908990613739565b60405180910390a150505050505050565b61185a8383836001612d93565b600a545f90600160a01b900460ff1615612834575f6126ff8484612482565b60105490915061271785670de0b6b3a7640000613987565b612721919061399e565b60115490945061273984670de0b6b3a7640000613987565b612743919061399e565b600b549093505f9081906001600160a01b03888116911614612766578486612769565b85855b600b5491935091506001600160a01b038881169116146127a75760115461279889670de0b6b3a7640000613987565b6127a2919061399e565b6127c6565b6010546127bc89670de0b6b3a7640000613987565b6127c6919061399e565b97505f6127dd6127d6848b613a09565b8584612e65565b6127e79083613959565b600b54909150670de0b6b3a7640000906001600160a01b038a811691161461281157601054612815565b6011545b61281f9083613987565b612829919061399e565b945050505050610f58565b600b545f9081906001600160a01b03878116911614612854578385612857565b84845b90925090506128668783613a09565b6128708289613987565b61287a919061399e565b92505050610f58565b5f61288e8484611cbe565b90505f198110156128ce57818110156128c057828183604051637dc7a0d960e11b8152600401611bb293929190613b5e565b6128ce84848484035f612d93565b50505050565b6001600160a01b0383166128fd575f604051634b637e8f60e11b8152600401611bb29190613590565b6001600160a01b038216612926575f60405163ec442f0560e01b8152600401611bb29190613590565b61185a838383612fcb565b5f306001600160a01b037f00000000000000000000000000000000000000000000000000000000000000001614801561298957507f000000000000000000000000000000000000000000000000000000000000000046145b156129b357507f000000000000000000000000000000000000000000000000000000000000000090565b61102c604080517f8b73c3c69bb8fe3d512ecc4cf759cc79239f7b179b0ffacaa9a75d522b39400f60208201527f0000000000000000000000000000000000000000000000000000000000000000918101919091527f000000000000000000000000000000000000000000000000000000000000000060608201524660808201523060a08201525f9060c00160405160208183030381529060405280519060200120905090565b5f610d74826001600160881b03811160071b81811c6001600160481b031060061b1781811c64ffffffffff1060051b1781811c62ffffff1060041b1781811c620100000160b5600192831c1b0260121c80830401811c80830401811c80830401811c80830401811c80830401811c80830401811c80830401901c908190048111900390565b6001600160a01b038216612b08575f60405163ec442f0560e01b8152600401611bb29190613590565b612b135f8383612fcb565b5050565b606061102c7f000000000000000000000000000000000000000000000000000000000000000060056130de565b606061102c7f000000000000000000000000000000000000000000000000000000000000000060066130de565b6001600160a01b038216612b9a575f604051634b637e8f60e11b8152600401611bb29190613590565b612b13825f83612fcb565b5f612baf82611325565b90508015612cc0576001600160a01b0382165f9081526019602090815260408083208054601a8085529285208054601754601854948190559490955282905593612bf98584613959565b90505f612c068584613959565b90508115612c5f575f670de0b6b3a7640000612c22848a613987565b612c2c919061399e565b6001600160a01b038a165f908152601b6020526040812080549293508392909190612c58908490613a09565b9091555050505b8015612cb6575f670de0b6b3a7640000612c79838a613987565b612c83919061399e565b6001600160a01b038a165f908152601c6020526040812080549293508392909190612caf908490613a09565b9091555050505b5050505050505050565b6017546001600160a01b0383165f90815260196020908152604080832093909355601854601a909152919020555050565b5f610d74612cfd612931565b8360405161190160f01b8152600281019290925260228201526042902090565b5f5f5f5f612d2d88888888613180565b925092509250612d3d828261323e565b50909695505050505050565b816014528060345263a9059cbb60601b5f5260205f604460105f875af18060015f511416612d8957803d853b151710612d89576390b8ec185f526004601cfd5b505f603452505050565b6001600160a01b038416612dbc575f60405163e602df0560e01b8152600401611bb29190613590565b6001600160a01b038316612de5575f604051634a1406b160e11b8152600401611bb29190613590565b6001600160a01b038085165f90815260016020908152604080832093871683529290522082905580156128ce57826001600160a01b0316846001600160a01b03167f8c5be1e5ebec7d5bd14f71427d1e84f3dd0314c0f7b2291e5b200ac8c7c3b92584604051612e5791815260200190565b60405180910390a350505050565b5f805b60ff811015612f9d575f612e7c86856132f6565b905084811015612f18575f612e91878661337b565b612e9b8388613959565b612ead90670de0b6b3a7640000613987565b612eb7919061399e565b9050805f03612f0657858203612ed257849350505050610feb565b85612ee788612ee2886001613a09565b612482565b1115612f0257612ef8856001613a09565b9350505050610feb565b5060015b612f108186613a09565b945050612f94565b5f612f23878661337b565b612f2d8784613959565b612f3f90670de0b6b3a7640000613987565b612f49919061399e565b9050805f03612f865785821480612f72575085612f7088612f6b600189613959565b6132f6565b105b15612f8257849350505050610feb565b5060015b612f908186613959565b9450505b50600101612e68565b5060405162461bcd60e51b8152602060048201526002602482015261217960f01b6044820152606401611bb2565b6001600160a01b038316612ff5578060025f828254612fea9190613a09565b909155506130529050565b6001600160a01b0383165f90815260208190526040902054818110156130345783818360405163391434e360e21b8152600401611bb293929190613b5e565b6001600160a01b0384165f9081526020819052604090209082900390555b6001600160a01b03821661306e5760028054829003905561308c565b6001600160a01b0382165f9081526020819052604090208054820190555b816001600160a01b0316836001600160a01b03167fddf252ad1be2c89b69c2b068fc378daa952ba7f163c4a11628f55a4df523b3ef836040516130d191815260200190565b60405180910390a3505050565b606060ff83146130f157612576836133f6565b8180546130fd906139bd565b80601f0160208091040260200160405190810160405280929190818152602001828054613129906139bd565b80156131745780601f1061314b57610100808354040283529160200191613174565b820191905f5260205f20905b81548152906001019060200180831161315757829003601f168201915b50505050509050610d74565b5f80806fa2a8918ca85bafe22016d0b997e4df60600160ff1b038411156131af57505f91506003905082613234565b604080515f808252602082018084528a905260ff891692820192909252606081018790526080810186905260019060a0016020604051602081039080840390855afa158015613200573d5f5f3e3d5ffd5b5050604051601f1901519150506001600160a01b03811661322b57505f925060019150829050613234565b92505f91508190505b9450945094915050565b5f82600381111561325157613251613e91565b0361325a575050565b600182600381111561326e5761326e613e91565b0361328c5760405163f645eedf60e01b815260040160405180910390fd5b60028260038111156132a0576132a0613e91565b036132c15760405163fce698f760e01b815260048101829052602401611bb2565b60038260038111156132d5576132d5613e91565b03612b13576040516335e2f38360e21b815260048101829052602401611bb2565b5f80670de0b6b3a764000061330b8486613987565b613315919061399e565b90505f670de0b6b3a764000061332b8580613987565b613335919061399e565b670de0b6b3a76400006133488780613987565b613352919061399e565b61335c9190613a09565b9050670de0b6b3a76400006133718284613987565b612214919061399e565b5f670de0b6b3a764000083816133918280613987565b61339b919061399e565b6133a59190613987565b6133af919061399e565b670de0b6b3a7640000806133c38580613987565b6133cd919061399e565b6133d8866003613987565b6133e29190613987565b6133ec919061399e565b610feb9190613a09565b60605f61340283613433565b6040805160208082528183019092529192505f91906020820181803683375050509182525060208101929092525090565b5f60ff8216601f811115610d7457604051632cd44ac360e21b815260040160405180910390fd5b61028380613ea683390190565b6001600160a01b038116811461347b575f5ffd5b50565b5f5f83601f84011261348e575f5ffd5b5081356001600160401b038111156134a4575f5ffd5b6020830191508360208285010111156134bb575f5ffd5b9250929050565b5f5f5f5f5f608086880312156134d6575f5ffd5b853594506020860135935060408601356134ef81613467565b925060608601356001600160401b03811115613509575f5ffd5b6135158882890161347e565b969995985093965092949392505050565b5f81518084528060208401602086015e5f602082860101526020601f19601f83011685010191505092915050565b602081525f610feb6020830184613526565b5f5f60408385031215613577575f5ffd5b823561358281613467565b946020939093013593505050565b6001600160a01b0391909116815260200190565b5f5f5f5f608085870312156135b7575f5ffd5b84356135c281613467565b966020860135965060408601359560600135945092505050565b5f8151808452602084019350602083015f5b8281101561360c5781518652602095860195909101906001016135ee565b5093949350505050565b602081525f610feb60208301846135dc565b5f60208284031215613638575f5ffd5b8135610feb81613467565b5f5f5f60608486031215613655575f5ffd5b833561366081613467565b9250602084013561367081613467565b929592945050506040919091013590565b5f60208284031215613691575f5ffd5b5035919050565b5f5f5f606084860312156136aa575f5ffd5b83356136b581613467565b95602085013595506040909401359392505050565b60ff60f81b8816815260e060208201525f6136e860e0830189613526565b82810360408401526136fa8189613526565b606084018890526001600160a01b038716608085015260a0840186905283810360c0850152905061372b81856135dc565b9a9950505050505050505050565b918252602082015260400190565b6001600160a01b0392831681529116602082015260400190565b5f5f60208385031215613772575f5ffd5b82356001600160401b03811115613787575f5ffd5b6137938582860161347e565b90969095509350505050565b60ff8116811461347b575f5ffd5b5f5f5f5f5f5f5f60e0888a0312156137c3575f5ffd5b87356137ce81613467565b965060208801356137de81613467565b9550604088013594506060880135935060808801356137fc8161379f565b9699959850939692959460a0840135945060c09093013592915050565b5f5f6040838503121561382a575f5ffd5b823561383581613467565b9150602083013561384581613467565b809150509250929050565b801515811461347b575f5ffd5b5f5f5f6060848603121561386f575f5ffd5b833561387a81613467565b9250602084013561388a81613467565b9150604084013561389a81613850565b809150509250925092565b5f5f604083850312156138b6575f5ffd5b82359150602083013561384581613467565b5f602082840312156138d8575f5ffd5b8151610feb81613850565b60018060a01b038616815284602082015283604082015260806060820152816080820152818360a08301375f81830160a090810191909152601f909201601f19160101949350505050565b5f6020828403121561393e575f5ffd5b5051919050565b634e487b7160e01b5f52601160045260245ffd5b81810381811115610d7457610d74613945565b6001600160a01b039290921682521515602082015260400190565b8082028115828204841417610d7457610d74613945565b5f826139b857634e487b7160e01b5f52601260045260245ffd5b500490565b600181811c908216806139d157607f821691505b6020821081036139ef57634e487b7160e01b5f52602260045260245ffd5b50919050565b634e487b7160e01b5f52604160045260245ffd5b80820180821115610d7457610d74613945565b634e487b7160e01b5f52603260045260245ffd5b5f60208284031215613a40575f5ffd5b8151610feb81613467565b601f82111561185a57805f5260205f20601f840160051c81016020851015613a705750805b601f840160051c820191505b81811015613a8f575f8155600101613a7c565b5050505050565b5f19600383901b1c191660019190911b1790565b6001600160401b03831115613ac157613ac16139f5565b613ad583613acf83546139bd565b83613a4b565b5f601f841160018114613b01575f8515613aef5750838201355b613af98682613a96565b845550613a8f565b5f83815260208120601f198716915b82811015613b305786850135825560209485019460019092019101613b10565b5086821015613b4c575f1960f88860031b161c19848701351681555b505060018560011b0183555050505050565b6001600160a01b039390931683526020830191909152604082015260600190565b5f60208284031215613b8f575f5ffd5b81516001600160401b03811115613ba4575f5ffd5b8201601f81018413613bb4575f5ffd5b80516001600160401b03811115613bcd57613bcd6139f5565b604051601f8201601f19908116603f011681016001600160401b0381118282101715613bfb57613bfb6139f5565b604052818152828201602001861015613c12575f5ffd5b8160208401602083015e5f91810160200191909152949350505050565b5f81518060208401855e5f93019283525090919050565b6c029ba30b136329020a6a690169609d1b81525f613c67600d830185613c2f565b602f60f81b81526122146001820185613c2f565b81516001600160401b03811115613c9457613c946139f5565b613ca881613ca284546139bd565b84613a4b565b6020601f821160018114613cd5575f8315613cc35750848201515b613ccd8482613a96565b855550613a8f565b5f84815260208120601f198516915b82811015613d045787850151825560209485019460019092019101613ce4565b5084821015613d2157868401515f19600387901b60f8161c191681555b50505050600190811b01905550565b6473414d4d2d60d81b81525f613c676005830185613c2f565b6e02b37b630ba34b6329020a6a690169608d1b81525f613c67600f830185613c2f565b6476414d4d2d60d81b81525f613c676005830185613c2f565b5f60208284031215613d95575f5ffd5b8151610feb8161379f565b6001815b6001841115613ddb57808504811115613dbf57613dbf613945565b6001841615613dcd57908102905b60019390931c928002613da4565b935093915050565b5f82613df157506001610d74565b81613dfd57505f610d74565b8160018114613e135760028114613e1d57613e39565b6001915050610d74565b60ff841115613e2e57613e2e613945565b50506001821b610d74565b5060208310610133831016604e8410600b8410161715613e5c575081810a610d74565b613e685f198484613da0565b805f1904821115613e7b57613e7b613945565b029392505050565b5f610feb60ff841683613de3565b634e487b7160e01b5f52602160045260245ffdfe60e060405234801561000f575f5ffd5b5060405161028338038061028383398101604081905261002e91610064565b336080526001600160a01b0391821660a0521660c052610095565b80516001600160a01b038116811461005f575f5ffd5b919050565b5f5f60408385031215610075575f5ffd5b61007e83610049565b915061008c60208401610049565b90509250929050565b60805160a05160c0516101c76100bc5f395f60d801525f609e01525f604d01526101c75ff3fe608060405234801561000f575f5ffd5b5060043610610029575f3560e01c8063533cf5ce1461002d575b5f5ffd5b61004061003b366004610154565b610042565b005b336001600160a01b037f0000000000000000000000000000000000000000000000000000000000000000161461008b57604051636f61f64160e01b815260040160405180910390fd5b81156100c5576100c56001600160a01b037f0000000000000000000000000000000000000000000000000000000000000000168484610104565b80156100ff576100ff6001600160a01b037f0000000000000000000000000000000000000000000000000000000000000000168483610104565b505050565b6100ff838383816014528060345263a9059cbb60601b5f5260205f604460105f875af18060015f51141661014a57803d853b15171061014a576390b8ec185f526004601cfd5b505f603452505050565b5f5f5f60608486031215610166575f5ffd5b83356001600160a01b038116811461017c575f5ffd5b9560208501359550604090940135939250505056fea264697066735822122065210b648b5422a28bbfc0a92ad92f31cc9e1a1ba94280abf757826138e78f5a64736f6c634300081e00338d1108e10bcb7c27dddfc02ed9d693a074039d026cf4ea4240b40f7d581ac8048d1108e10bcb7c27dddfc02ed9d693a074039d026cf4ea4240b40f7d581ac803112c256902bf554b6ed882d2936687aaeb4225e8cd5b51303c90ca6cf43a86028d1108e10bcb7c27dddfc02ed9d693a074039d026cf4ea4240b40f7d581ac802a26469706673582212202e27632e0d5d667035d8d426cfa384ff14cd535bbf160a5dd0c51c39a2c5098864736f6c634300081e0033","linkReferences":{}},"methodIdentifiers":{"DOMAIN_SEPARATOR()":"3644e515","allowance(address,address)":"dd62ed3e","approve(address,uint256)":"095ea7b3","balanceOf(address)":"70a08231","blockTimestampLast()":"c5700a02","burn(address)":"89afcb44","claimFees()":"d294f093","claimable0(address)":"4d5a9f8a","claimable1(address)":"a1ac4d13","currentCumulativePrices()":"1df8c717","decimals()":"313ce567","eip712Domain()":"84b0196e","factory()":"c45a0155","getAmountOut(uint256,address)":"f140a35a","getK()":"ee39e7a0","getReserves()":"0902f1ac","index0()":"32c0defd","index1()":"bda39cad","initialize(address,address,bool)":"e4bbb5a8","lastObservation()":"8a7b8cf2","metadata()":"392f37e9","mint(address)":"6a627842","name()":"06fdde03","nonces(address)":"7ecebe00","observationLength()":"ebeb31db","observations(uint256)":"252c09d7","periodSize()":"e4463eb2","permit(address,address,uint256,uint256,uint8,bytes32,bytes32)":"d505accf","poolFees()":"33580959","prices(address,uint256,uint256)":"5881c475","quote(address,uint256,uint256)":"9e8cc04b","reserve0()":"443cb4bc","reserve0CumulativeLast()":"bf944dbc","reserve1()":"5a76f25e","reserve1CumulativeLast()":"c245febc","sample(address,uint256,uint256,uint256)":"13345fe1","setName(string)":"c47f0027","setSymbol(string)":"b84c8246","skim(address)":"bc25cf77","stable()":"22be3de1","supplyIndex0(address)":"9f767c88","supplyIndex1(address)":"205aabf1","swap(uint256,uint256,address,bytes)":"022c0d9f","symbol()":"95d89b41","sync()":"fff6cae9","token0()":"0dfe1681","token1()":"d21220a7","tokens()":"9d63848a","totalSupply()":"18160ddd","transfer(address,uint256)":"a9059cbb","transferFrom(address,address,uint256)":"23b872dd"},"id":809}