{"abi":[{"type":"constructor","inputs":[{"name":"vault","type":"address","internalType":"contract IVault"},{"name":"weth","type":"address","internalType":"contract IWETH"},{"name":"permit2","type":"address","internalType":"contract IPermit2"},{"name":"routerVersion","type":"string","internalType":"string"}],"stateMutability":"nonpayable"},{"type":"receive","stateMutability":"payable"},{"type":"function","name":"addLiquidityToBuffer","inputs":[{"name":"wrappedToken","type":"address","internalType":"contract IERC4626"},{"name":"maxAmountUnderlyingIn","type":"uint256","internalType":"uint256"},{"name":"maxAmountWrappedIn","type":"uint256","internalType":"uint256"},{"name":"exactSharesToIssue","type":"uint256","internalType":"uint256"}],"outputs":[{"name":"amountUnderlyingIn","type":"uint256","internalType":"uint256"},{"name":"amountWrappedIn","type":"uint256","internalType":"uint256"}],"stateMutability":"nonpayable"},{"type":"function","name":"addLiquidityToBufferHook","inputs":[{"name":"wrappedToken","type":"address","internalType":"contract IERC4626"},{"name":"maxAmountUnderlyingIn","type":"uint256","internalType":"uint256"},{"name":"maxAmountWrappedIn","type":"uint256","internalType":"uint256"},{"name":"exactSharesToIssue","type":"uint256","internalType":"uint256"},{"name":"sharesOwner","type":"address","internalType":"address"}],"outputs":[{"name":"amountUnderlyingIn","type":"uint256","internalType":"uint256"},{"name":"amountWrappedIn","type":"uint256","internalType":"uint256"}],"stateMutability":"nonpayable"},{"type":"function","name":"getPermit2","inputs":[],"outputs":[{"name":"","type":"address","internalType":"contract IPermit2"}],"stateMutability":"view"},{"type":"function","name":"getSender","inputs":[],"outputs":[{"name":"","type":"address","internalType":"address"}],"stateMutability":"view"},{"type":"function","name":"getVault","inputs":[],"outputs":[{"name":"","type":"address","internalType":"contract IVault"}],"stateMutability":"view"},{"type":"function","name":"getWeth","inputs":[],"outputs":[{"name":"","type":"address","internalType":"contract IWETH"}],"stateMutability":"view"},{"type":"function","name":"initializeBuffer","inputs":[{"name":"wrappedToken","type":"address","internalType":"contract IERC4626"},{"name":"exactAmountUnderlyingIn","type":"uint256","internalType":"uint256"},{"name":"exactAmountWrappedIn","type":"uint256","internalType":"uint256"},{"name":"minIssuedShares","type":"uint256","internalType":"uint256"}],"outputs":[{"name":"issuedShares","type":"uint256","internalType":"uint256"}],"stateMutability":"nonpayable"},{"type":"function","name":"initializeBufferHook","inputs":[{"name":"wrappedToken","type":"address","internalType":"contract IERC4626"},{"name":"exactAmountUnderlyingIn","type":"uint256","internalType":"uint256"},{"name":"exactAmountWrappedIn","type":"uint256","internalType":"uint256"},{"name":"minIssuedShares","type":"uint256","internalType":"uint256"},{"name":"sharesOwner","type":"address","internalType":"address"}],"outputs":[{"name":"issuedShares","type":"uint256","internalType":"uint256"}],"stateMutability":"nonpayable"},{"type":"function","name":"multicall","inputs":[{"name":"data","type":"bytes[]","internalType":"bytes[]"}],"outputs":[{"name":"results","type":"bytes[]","internalType":"bytes[]"}],"stateMutability":"payable"},{"type":"function","name":"permitBatchAndCall","inputs":[{"name":"permitBatch","type":"tuple[]","internalType":"struct IRouterCommon.PermitApproval[]","components":[{"name":"token","type":"address","internalType":"address"},{"name":"owner","type":"address","internalType":"address"},{"name":"spender","type":"address","internalType":"address"},{"name":"amount","type":"uint256","internalType":"uint256"},{"name":"nonce","type":"uint256","internalType":"uint256"},{"name":"deadline","type":"uint256","internalType":"uint256"}]},{"name":"permitSignatures","type":"bytes[]","internalType":"bytes[]"},{"name":"permit2Batch","type":"tuple","internalType":"struct IAllowanceTransfer.PermitBatch","components":[{"name":"details","type":"tuple[]","internalType":"struct IAllowanceTransfer.PermitDetails[]","components":[{"name":"token","type":"address","internalType":"address"},{"name":"amount","type":"uint160","internalType":"uint160"},{"name":"expiration","type":"uint48","internalType":"uint48"},{"name":"nonce","type":"uint48","internalType":"uint48"}]},{"name":"spender","type":"address","internalType":"address"},{"name":"sigDeadline","type":"uint256","internalType":"uint256"}]},{"name":"permit2Signature","type":"bytes","internalType":"bytes"},{"name":"multicallData","type":"bytes[]","internalType":"bytes[]"}],"outputs":[{"name":"","type":"bytes[]","internalType":"bytes[]"}],"stateMutability":"payable"},{"type":"function","name":"queryAddLiquidityToBuffer","inputs":[{"name":"wrappedToken","type":"address","internalType":"contract IERC4626"},{"name":"exactSharesToIssue","type":"uint256","internalType":"uint256"}],"outputs":[{"name":"amountUnderlyingIn","type":"uint256","internalType":"uint256"},{"name":"amountWrappedIn","type":"uint256","internalType":"uint256"}],"stateMutability":"nonpayable"},{"type":"function","name":"queryAddLiquidityToBufferHook","inputs":[{"name":"wrappedToken","type":"address","internalType":"contract IERC4626"},{"name":"exactSharesToIssue","type":"uint256","internalType":"uint256"}],"outputs":[{"name":"amountUnderlyingIn","type":"uint256","internalType":"uint256"},{"name":"amountWrappedIn","type":"uint256","internalType":"uint256"}],"stateMutability":"nonpayable"},{"type":"function","name":"queryInitializeBuffer","inputs":[{"name":"wrappedToken","type":"address","internalType":"contract IERC4626"},{"name":"exactAmountUnderlyingIn","type":"uint256","internalType":"uint256"},{"name":"exactAmountWrappedIn","type":"uint256","internalType":"uint256"}],"outputs":[{"name":"issuedShares","type":"uint256","internalType":"uint256"}],"stateMutability":"nonpayable"},{"type":"function","name":"queryInitializeBufferHook","inputs":[{"name":"wrappedToken","type":"address","internalType":"contract IERC4626"},{"name":"exactAmountUnderlyingIn","type":"uint256","internalType":"uint256"},{"name":"exactAmountWrappedIn","type":"uint256","internalType":"uint256"}],"outputs":[{"name":"issuedShares","type":"uint256","internalType":"uint256"}],"stateMutability":"nonpayable"},{"type":"function","name":"queryRemoveLiquidityFromBuffer","inputs":[{"name":"wrappedToken","type":"address","internalType":"contract IERC4626"},{"name":"exactSharesToRemove","type":"uint256","internalType":"uint256"}],"outputs":[{"name":"removedUnderlyingBalanceOut","type":"uint256","internalType":"uint256"},{"name":"removedWrappedBalanceOut","type":"uint256","internalType":"uint256"}],"stateMutability":"nonpayable"},{"type":"function","name":"queryRemoveLiquidityFromBufferHook","inputs":[{"name":"wrappedToken","type":"address","internalType":"contract IERC4626"},{"name":"exactSharesToRemove","type":"uint256","internalType":"uint256"}],"outputs":[{"name":"removedUnderlyingBalanceOut","type":"uint256","internalType":"uint256"},{"name":"removedWrappedBalanceOut","type":"uint256","internalType":"uint256"}],"stateMutability":"nonpayable"},{"type":"function","name":"version","inputs":[],"outputs":[{"name":"","type":"string","internalType":"string"}],"stateMutability":"view"},{"type":"error","name":"AddressEmptyCode","inputs":[{"name":"target","type":"address","internalType":"address"}]},{"type":"error","name":"ErrorSelectorNotFound","inputs":[]},{"type":"error","name":"EthTransfer","inputs":[]},{"type":"error","name":"FailedCall","inputs":[]},{"type":"error","name":"InputLengthMismatch","inputs":[]},{"type":"error","name":"InsufficientBalance","inputs":[{"name":"balance","type":"uint256","internalType":"uint256"},{"name":"needed","type":"uint256","internalType":"uint256"}]},{"type":"error","name":"InsufficientEth","inputs":[]},{"type":"error","name":"OperationNotSupported","inputs":[]},{"type":"error","name":"ReentrancyGuardReentrantCall","inputs":[]},{"type":"error","name":"SenderIsNotVault","inputs":[{"name":"sender","type":"address","internalType":"address"}]},{"type":"error","name":"SwapDeadline","inputs":[]}],"bytecode":{"object":"0x600b6101409081526a14d95b99195c91dd585c9960aa1b610160526101c060405260066101809081526539b2b73232b960d11b6101a0526100409190610106565b608052604080518082018252600c81526b2937baba32b921b7b6b6b7b760a11b602080830191909152825180840190935260118352701a5cd4995d1d5c9b915d1a131bd8dad959607a1b9083015261009791610106565b60c0523480156100a5575f5ffd5b506040516126e23803806126e28339810160408190526100c4916101af565b6001600160a01b03841660a05283838383806100df81610175565b50506001600160a01b0391821660e0521661010081905215610120525061045b9350505050565b5f60ff5f1b19600184846040516020016101219291906102b0565b604051602081830303815290604052805190602001205f1c61014391906102fe565b60405160200161015591815260200190565b604051602081830303815290604052805190602001201690505b92915050565b5f61018082826103a1565b5050565b6001600160a01b0381168114610198575f5ffd5b50565b634e487b7160e01b5f52604160045260245ffd5b5f5f5f5f608085870312156101c2575f5ffd5b84516101cd81610184565b60208601519094506101de81610184565b60408601519093506101ef81610184565b60608601519092506001600160401b0381111561020a575f5ffd5b8501601f8101871361021a575f5ffd5b80516001600160401b038111156102335761023361019b565b604051601f8201601f19908116603f011681016001600160401b03811182821017156102615761026161019b565b604052818152828201602001891015610278575f5ffd5b8160208401602083015e5f6020838301015280935050505092959194509250565b5f81518060208401855e5f93019283525090919050565b7f62616c616e6365722d6c6162732e76332e73746f726167652e0000000000000081525f6102e16019830185610299565b601760f91b81526102f56001820185610299565b95945050505050565b8181038181111561016f57634e487b7160e01b5f52601160045260245ffd5b600181811c9082168061033157607f821691505b60208210810361034f57634e487b7160e01b5f52602260045260245ffd5b50919050565b601f82111561039c57805f5260205f20601f840160051c8101602085101561037a5750805b601f840160051c820191505b81811015610399575f8155600101610386565b50505b505050565b81516001600160401b038111156103ba576103ba61019b565b6103ce816103c8845461031d565b84610355565b6020601f821160018114610400575f83156103e95750848201515b5f19600385901b1c1916600184901b178455610399565b5f84815260208120601f198516915b8281101561042f578785015182556020948501946001909201910161040f565b508482101561044c57868401515f19600387901b60f8161c191681555b50505050600190811b01905550565b60805160a05160c05160e05161010051610120516121a761053b5f395f818161047f0152610a3701525f81816101ca015281816111ba015261138101525f818160e001528181610132015281816112f0015261132e01525f61153401525f81816102ad0152818161039101528181610535015281816105d40152818161066e01528181610713015281816108ac0152818161095d01528181610b8a01528181610cbc01528181610d5901528181610ddb01528181610ee5015281816112860152818161134f015281816113b1015261145901525f6114dc01526121a75ff3fe6080604052600436106100d0575f3560e01c8063107c279f1461012457806313f7bb4d1461016857806319c6989f1461019c5780631bbf2e23146101bc578063400f230d146101ee5780634fe56ed61461020d578063502383f41461022c57806354fd4d501461024b5780635e01eb5a1461026c578063662727cc146102805780638d928af81461029f578063a3902604146102d1578063ac9650d8146102fe578063b365a3c214610311578063d96af07014610330578063d9f708691461034f578063e0fefe351461036e575f5ffd5b3661012057336001600160a01b037f0000000000000000000000000000000000000000000000000000000000000000161461011e576040516302a06efb60e11b815260040160405180910390fd5b005b5f5ffd5b34801561012f575f5ffd5b507f00000000000000000000000000000000000000000000000000000000000000005b60405161015f9190611945565b60405180910390f35b348015610173575f5ffd5b5061018761018236600461196d565b61038d565b6040805192835260208301919091520161015f565b6101af6101aa366004611a64565b61047b565b60405161015f9190611b87565b3480156101c7575f5ffd5b507f0000000000000000000000000000000000000000000000000000000000000000610152565b3480156101f9575f5ffd5b5061018761020836600461196d565b6104e3565b348015610218575f5ffd5b50610187610227366004611bfa565b6105ab565b348015610237575f5ffd5b50610187610246366004611c4c565b61070f565b348015610256575f5ffd5b5061025f610804565b60405161015f9190611c84565b348015610277575f5ffd5b50610152610893565b34801561028b575f5ffd5b5061018761029a36600461196d565b6108a8565b3480156102aa575f5ffd5b507f0000000000000000000000000000000000000000000000000000000000000000610152565b3480156102dc575f5ffd5b506102f06102eb366004611c96565b610935565b60405190815260200161015f565b6101af61030c366004611cc8565b6109eb565b34801561031c575f5ffd5b506102f061032b366004611c4c565b610b87565b34801561033b575f5ffd5b5061018761034a36600461196d565b610c77565b34801561035a575f5ffd5b506102f0610369366004611bfa565b610d31565b348015610379575f5ffd5b506102f0610388366004611c96565b610e87565b5f5f7f00000000000000000000000000000000000000000000000000000000000000006001600160a01b031663edfa356885856040516024016103d1929190611d06565b60408051601f198184030181529181526020820180516001600160e01b0316630d96af0760e41b179052516001600160e01b031960e084901b16815261041a9190600401611c84565b5f604051808303815f875af1158015610435573d5f5f3e3d5ffd5b505050506040513d5f823e601f3d908101601f1916820160405261045c9190810190611d63565b80602001905181019061046f9190611df5565b915091505b9250929050565b60607f0000000000000000000000000000000000000000000000000000000000000000156104bc576040516329a270f560e01b815260040160405180910390fd5b6104cb8a8a8a8a8a8a8a610f76565b6104d583836109eb565b9a9950505050505050505050565b5f5f6104ed611234565b6104f561127b565b604051637154958d60e11b81526001600160a01b0385811660048301526001600160801b03602483018190526044830152606482018590523060848301527f0000000000000000000000000000000000000000000000000000000000000000169063e2a92b1a9060a40160408051808303815f875af115801561057a573d5f5f3e3d5ffd5b505050506040513d601f19601f8201168201806040525081019061059e9190611df5565b90925090506104746112cf565b5f5f6105b5611234565b6105bd61127b565b604051637154958d60e11b81526001600160a01b037f0000000000000000000000000000000000000000000000000000000000000000169063e2a92b1a90610611908a908a908a908a908a90600401611e17565b60408051808303815f875af115801561062c573d5f5f3e3d5ffd5b505050506040513d601f19601f820116820180604052508101906106509190611df5565b60405163257dd7ad60e11b815291935091505f906001600160a01b037f00000000000000000000000000000000000000000000000000000000000000001690634afbaf5a906106a3908b90600401611945565b602060405180830381865afa1580156106be573d5f5f3e3d5ffd5b505050506040513d601f19601f820116820180604052508101906106e29190611e47565b90506106f08482855f6112e6565b6106fc8489845f6112e6565b506107056112cf565b9550959350505050565b5f5f7f00000000000000000000000000000000000000000000000000000000000000006001600160a01b03166348c894918787878733604051602401610759959493929190611e17565b60408051601f198184030181529181526020820180516001600160e01b03166327f2b76b60e11b179052516001600160e01b031960e084901b1681526107a29190600401611c84565b5f604051808303815f875af11580156107bd573d5f5f3e3d5ffd5b505050506040513d5f823e601f3d908101601f191682016040526107e49190810190611d63565b8060200190518101906107f79190611df5565b9150915094509492505050565b60605f805461081290611e62565b80601f016020809104026020016040519081016040528092919081815260200182805461083e90611e62565b80156108895780601f1061086057610100808354040283529160200191610889565b820191905f5260205f20905b81548152906001019060200180831161086c57829003601f168201915b5050505050905090565b5f6108a361089f6114da565b5c90565b905090565b5f5f7f00000000000000000000000000000000000000000000000000000000000000006001600160a01b031663edfa356885856040516024016108ec929190611d06565b60408051601f198184030181529181526020820180516001600160e01b031663400f230d60e01b179052516001600160e01b031960e084901b16815261041a9190600401611c84565b5f61093e611234565b61094661127b565b604051630653eb3b60e41b81526001600160a01b037f0000000000000000000000000000000000000000000000000000000000000000169063653eb3b09061099a908790879087905f903090600401611e17565b6020604051808303815f875af11580156109b6573d5f5f3e3d5ffd5b505050506040513d601f19601f820116820180604052508101906109da9190611e94565b90506109e46112cf565b9392505050565b60605f6109f7336114fe565b9050610a0461089f611532565b15610a2257604051633ee5aeb560e01b815260040160405180910390fd5b610a356001610a2f611532565b90611556565b7f000000000000000000000000000000000000000000000000000000000000000015610a74576040516329a270f560e01b815260040160405180910390fd5b826001600160401b03811115610a8c57610a8c611d1f565b604051908082528060200260200182016040528015610abf57816020015b6060815260200190600190039081610aaa5790505b5091505f5b83811015610b5257610b2d30868684818110610ae257610ae2611eab565b9050602002810190610af49190611ebf565b8080601f0160208091040260200160405190810160405280939291908181526020018383808284375f9201919091525061155d92505050565b838281518110610b3f57610b3f611eab565b6020908102919091010152600101610ac4565b50610b5f5f610a2f611532565b5f610b6b61089f6114da565b9050610b76826115c6565b610b7f816115db565b505092915050565b5f7f00000000000000000000000000000000000000000000000000000000000000006001600160a01b03166348c894918686868633604051602401610bd0959493929190611e17565b60408051601f198184030181529181526020820180516001600160e01b031663d9f7086960e01b179052516001600160e01b031960e084901b168152610c199190600401611c84565b5f604051808303815f875af1158015610c34573d5f5f3e3d5ffd5b505050506040513d5f823e601f3d908101601f19168201604052610c5b9190810190611d63565b806020019051810190610c6e9190611e94565b95945050505050565b5f5f610c81611234565b610c8961127b565b604051633af1e55760e21b81526001600160a01b038581166004830152602482018590525f6044830181905260648301527f0000000000000000000000000000000000000000000000000000000000000000169063ebc7955c9060840160408051808303815f875af1158015610d01573d5f5f3e3d5ffd5b505050506040513d601f19601f82011682018060405250810190610d259190611df5565b915091506104746112cf565b5f610d3a611234565b610d4261127b565b604051630653eb3b60e41b81526001600160a01b037f0000000000000000000000000000000000000000000000000000000000000000169063653eb3b090610d969089908990899089908990600401611e17565b6020604051808303815f875af1158015610db2573d5f5f3e3d5ffd5b505050506040513d601f19601f82011682018060405250810190610dd69190611e94565b90505f7f00000000000000000000000000000000000000000000000000000000000000006001600160a01b0316634afbaf5a886040518263ffffffff1660e01b8152600401610e259190611945565b602060405180830381865afa158015610e40573d5f5f3e3d5ffd5b505050506040513d601f19601f82011682018060405250810190610e649190611e47565b9050610e728382885f6112e6565b610e7e8388875f6112e6565b50610c6e6112cf565b604080516001600160a01b03858116602483015260448201859052606480830185905283518084039091018152608490920183526020820180516001600160e01b03166328e4098160e21b1790529151631dbf46ad60e31b81525f927f0000000000000000000000000000000000000000000000000000000000000000169163edfa356891610f199190600401611c84565b5f604051808303815f875af1158015610f34573d5f5f3e3d5ffd5b505050506040513d5f823e601f3d908101601f19168201604052610f5b9190810190611d63565b806020019051810190610f6e9190611e94565b949350505050565b610f7e611234565b610f888685611613565b5f5b8681101561118f575f868683818110610fa557610fa5611eab565b9050602002810190610fb79190611ebf565b8080601f0160208091040260200160405190810160405280939291908181526020018383808284375f920182905250939450610ff892508491506116339050565b90505f8a8a8581811061100d5761100d611eab565b905060c002018036038101906110239190611f01565b8051602080830151606084015160a08501516040808901518951958a0151915163d505accf60e01b81526001600160a01b0395861660048201523060248201526044810194909452606484019290925260ff909116608483015260a482019390935260c481019290925292935091169063d505accf9060e4015f604051808303815f87803b1580156110b3575f5ffd5b505af19250505080156110c4575060015b611181573d8080156110f1576040519150601f19603f3d011682016040523d82523d5f602084013e6110f6565b606091505b50606082015182516020840151604051636eb1769f60e11b81526001600160a01b03918216600482015230602482015291169063dd62ed3e90604401602060405180830381865afa15801561114d573d5f5f3e3d5ffd5b505050506040513d601f19601f820116820180604052508101906111719190611e94565b1461117f5761117f81611682565b505b505050806001019050610f8a565b505f61119b8480611f92565b9050111561122357604051632a2d80d160e01b81526001600160a01b037f00000000000000000000000000000000000000000000000000000000000000001690632a2d80d1906111f5903390879087908790600401612014565b5f604051808303815f87803b15801561120c575f5ffd5b505af115801561121e573d5f5f3e3d5ffd5b505050505b61122b6112cf565b50505050505050565b5f5160206121525f395f51905f525c1561126157604051633ee5aeb560e01b815260040160405180910390fd5b61127960015f5160206121525f395f51905f52610a2f565b565b336001600160a01b037f00000000000000000000000000000000000000000000000000000000000000001614611279573360405163089676d560e01b81526004016112c69190611945565b60405180910390fd5b6112795f5f5160206121525f395f51905f52610a2f565b80801561132457507f00000000000000000000000000000000000000000000000000000000000000006001600160a01b0316836001600160a01b0316145b15611379576113747f00000000000000000000000000000000000000000000000000000000000000007f0000000000000000000000000000000000000000000000000000000000000000846116ab565b6114d4565b81156114d4577f00000000000000000000000000000000000000000000000000000000000000006001600160a01b03166336c78516857f00000000000000000000000000000000000000000000000000000000000000006113d9866117a0565b6040516001600160e01b031960e086901b1681526001600160a01b03938416600482015291831660248301528216604482015290861660648201526084015f604051808303815f87803b15801561142e575f5ffd5b505af1158015611440573d5f5f3e3d5ffd5b50506040516315afd40960e01b81526001600160a01b037f00000000000000000000000000000000000000000000000000000000000000001692506315afd40991506114929086908690600401611d06565b6020604051808303815f875af11580156114ae573d5f5f3e3d5ffd5b505050506040513d601f19601f820116820180604052508101906114d29190611e94565b505b50505050565b7f000000000000000000000000000000000000000000000000000000000000000090565b5f5f61150b61089f6114da565b90506001600160a01b03811661152c5761152783610a2f6114da565b600191505b50919050565b7f000000000000000000000000000000000000000000000000000000000000000090565b80825d5050565b60605f5f846001600160a01b031684604051611579919061213b565b5f60405180830381855af49150503d805f81146115b1576040519150601f19603f3d011682016040523d82523d5f602084013e6115b6565b606091505b5091509150610c6e8583836117b0565b80156115d8576115d85f610a2f6114da565b50565b475f8190036115e8575050565b6115f361089f611532565b156115fc575050565b61160f6001600160a01b03831682611803565b5050565b80821461160f5760405163aaad13f760e01b815260040160405180910390fd5b61165760405180606001604052805f81526020015f81526020015f60ff1681525090565b602082810151604080850151606090950151918452918301939093525f9290921a9181019190915290565b8051156116925780518082602001fd5b60405163a728568960e01b815260040160405180910390fd5b804710156116cc5760405163500d4efb60e11b815260040160405180910390fd5b826001600160a01b031663d0e30db0826040518263ffffffff1660e01b81526004015f604051808303818588803b158015611705575f5ffd5b505af1158015611717573d5f5f3e3d5ffd5b50611732935050506001600160a01b038516905083836118a2565b6040516315afd40960e01b81526001600160a01b038316906315afd409906117609086908590600401611d06565b6020604051808303815f875af115801561177c573d5f5f3e3d5ffd5b505050506040513d601f19601f820116820180604052508101906114d49190611e94565b5f6117aa826118ad565b92915050565b6060826117c5576117c0826118c5565b6109e4565b81511580156117dc57506001600160a01b0384163b155b156117fc5783604051639996b31560e01b81526004016112c69190611945565b50806109e4565b8047101561182d5760405163cf47918160e01b8152476004820152602481018290526044016112c6565b5f826001600160a01b0316826040515f6040518083038185875af1925050503d805f8114611876576040519150601f19603f3d011682016040523d82523d5f602084013e61187b565b606091505b505090508061189d5760405163d6bda27560e01b815260040160405180910390fd5b505050565b61189d8383836118ee565b5f600160a01b82106118c1576118c1611938565b5090565b8051156118d55780518082602001fd5b60405163d6bda27560e01b815260040160405180910390fd5b816014528060345263a9059cbb60601b5f5260205f604460105f875af18060015f51141661192e57803d853b15171061192e576390b8ec185f526004601cfd5b505f603452505050565b6335278d125f526004601cfd5b6001600160a01b0391909116815260200190565b6001600160a01b03811681146115d8575f5ffd5b5f5f6040838503121561197e575f5ffd5b823561198981611959565b946020939093013593505050565b5f5f83601f8401126119a7575f5ffd5b5081356001600160401b038111156119bd575f5ffd5b60208301915083602060c083028501011115610474575f5ffd5b5f5f83601f8401126119e7575f5ffd5b5081356001600160401b038111156119fd575f5ffd5b6020830191508360208260051b8501011115610474575f5ffd5b5f6060828403121561152c575f5ffd5b5f5f83601f840112611a37575f5ffd5b5081356001600160401b03811115611a4d575f5ffd5b602083019150836020828501011115610474575f5ffd5b5f5f5f5f5f5f5f5f5f60a08a8c031215611a7c575f5ffd5b89356001600160401b03811115611a91575f5ffd5b611a9d8c828d01611997565b909a5098505060208a01356001600160401b03811115611abb575f5ffd5b611ac78c828d016119d7565b90985096505060408a01356001600160401b03811115611ae5575f5ffd5b611af18c828d01611a17565b95505060608a01356001600160401b03811115611b0c575f5ffd5b611b188c828d01611a27565b90955093505060808a01356001600160401b03811115611b36575f5ffd5b611b428c828d016119d7565b915080935050809150509295985092959850929598565b5f81518084528060208401602086015e5f602082860101526020601f19601f83011685010191505092915050565b5f602082016020835280845180835260408501915060408160051b8601019250602086015f5b82811015611bde57603f19878603018452611bc9858351611b59565b94506020938401939190910190600101611bad565b50929695505050505050565b8035611bf581611959565b919050565b5f5f5f5f5f60a08688031215611c0e575f5ffd5b8535611c1981611959565b94506020860135935060408601359250606086013591506080860135611c3e81611959565b809150509295509295909350565b5f5f5f5f60808587031215611c5f575f5ffd5b8435611c6a81611959565b966020860135965060408601359560600135945092505050565b602081525f6109e46020830184611b59565b5f5f5f60608486031215611ca8575f5ffd5b8335611cb381611959565b95602085013595506040909401359392505050565b5f5f60208385031215611cd9575f5ffd5b82356001600160401b03811115611cee575f5ffd5b611cfa858286016119d7565b90969095509350505050565b6001600160a01b03929092168252602082015260400190565b634e487b7160e01b5f52604160045260245ffd5b604051601f8201601f191681016001600160401b0381118282101715611d5b57611d5b611d1f565b604052919050565b5f60208284031215611d73575f5ffd5b81516001600160401b03811115611d88575f5ffd5b8201601f81018413611d98575f5ffd5b80516001600160401b03811115611db157611db1611d1f565b611dc4601f8201601f1916602001611d33565b818152856020838501011115611dd8575f5ffd5b8160208401602083015e5f91810160200191909152949350505050565b5f5f60408385031215611e06575f5ffd5b505080516020909101519092909150565b6001600160a01b039586168152602081019490945260408401929092526060830152909116608082015260a00190565b5f60208284031215611e57575f5ffd5b81516109e481611959565b600181811c90821680611e7657607f821691505b60208210810361152c57634e487b7160e01b5f52602260045260245ffd5b5f60208284031215611ea4575f5ffd5b5051919050565b634e487b7160e01b5f52603260045260245ffd5b5f5f8335601e19843603018112611ed4575f5ffd5b8301803591506001600160401b03821115611eed575f5ffd5b602001915036819003821315610474575f5ffd5b5f60c0828403128015611f12575f5ffd5b5060405160c081016001600160401b0381118282101715611f3557611f35611d1f565b6040528235611f4381611959565b81526020830135611f5381611959565b60208201526040830135611f6681611959565b6040820152606083810135908201526080808401359082015260a0928301359281019290925250919050565b5f5f8335601e19843603018112611fa7575f5ffd5b8301803591506001600160401b03821115611fc0575f5ffd5b6020019150600781901b3603821315610474575f5ffd5b803565ffffffffffff81168114611bf5575f5ffd5b81835281816020850137505f828201602090810191909152601f909101601f19169091010190565b6001600160a01b0385168152606060208201525f60c08201853536879003601e19018112612040575f5ffd5b86016020810190356001600160401b0381111561205b575f5ffd5b8060071b360382131561206c575f5ffd5b60608581015291829052905f9060e085015b818310156120fd57833561209181611959565b6001600160a01b0316815260208401356120aa81611959565b6001600160a01b0316602082015265ffffffffffff6120cb60408601611fd7565b16604082015265ffffffffffff6120e460608601611fd7565b166060820152608093840193600193909301920161207e565b61210960208a01611bea565b6001600160a01b0316608087015260408981013560a088018190528783039188019190915293506104d581888a611fec565b5f82518060208501845e5f92019182525091905056fe9b779b17422d0df92223018b32b4d1fa46e071723d6817e2486d003becc55f00a264697066735822122079a892b1d1607498cde2595cc8d30cb9f3de4e8e8e81197d685749bd2e85819b64736f6c634300081e0033","linkReferences":{}},"methodIdentifiers":{"addLiquidityToBuffer(address,uint256,uint256,uint256)":"502383f4","addLiquidityToBufferHook(address,uint256,uint256,uint256,address)":"4fe56ed6","getPermit2()":"1bbf2e23","getSender()":"5e01eb5a","getVault()":"8d928af8","getWeth()":"107c279f","initializeBuffer(address,uint256,uint256,uint256)":"b365a3c2","initializeBufferHook(address,uint256,uint256,uint256,address)":"d9f70869","multicall(bytes[])":"ac9650d8","permitBatchAndCall((address,address,address,uint256,uint256,uint256)[],bytes[],((address,uint160,uint48,uint48)[],address,uint256),bytes,bytes[])":"19c6989f","queryAddLiquidityToBuffer(address,uint256)":"662727cc","queryAddLiquidityToBufferHook(address,uint256)":"400f230d","queryInitializeBuffer(address,uint256,uint256)":"e0fefe35","queryInitializeBufferHook(address,uint256,uint256)":"a3902604","queryRemoveLiquidityFromBuffer(address,uint256)":"13f7bb4d","queryRemoveLiquidityFromBufferHook(address,uint256)":"d96af070","version()":"54fd4d50"},"id":332}