{"abi":[{"type":"function","name":"erc4626Vault","inputs":[],"outputs":[{"name":"","type":"address","internalType":"contract IERC4626"}],"stateMutability":"view"},{"type":"function","name":"getRate","inputs":[],"outputs":[{"name":"rate","type":"uint256","internalType":"uint256"}],"stateMutability":"view"}],"bytecode":{"object":"0x6080604052348015600e575f5ffd5b5061030a8061001c5f395ff3fe608060405234801561000f575f5ffd5b5060043610610034575f3560e01c80635920b22514610038578063679aefce1461005d575b5f5ffd5b610040610073565b6040516001600160a01b0390911681526020015b60405180910390f35b610065610081565b604051908152602001610054565b5f61007c610124565b905090565b5f61008a610124565b60405163266d6a8360e11b8152670de0b6b3a764000060048201526001600160a01b039190911690634cdad50690602401602060405180830381865afa1580156100d6573d5f5f3e3d5ffd5b505050506040513d601f19601f820116820180604052508101906100fa919061017b565b905061010461013d565b61010f9060126101a6565b61011a90600a6102a8565b61007c90826102bd565b5f61007c610130610157565b546001600160a01b031690565b5f61007c610149610157565b54600160a01b900460ff1690565b7f3959254c71754c6f405f8f9fef44e92a8e8775db2b2d636677df51628392ff4a90565b5f6020828403121561018b575f5ffd5b5051919050565b634e487b7160e01b5f52601160045260245ffd5b60ff82811682821603908111156101bf576101bf610192565b92915050565b6001815b6001841115610200578085048111156101e4576101e4610192565b60018416156101f257908102905b60019390931c9280026101c9565b935093915050565b5f82610216575060016101bf565b8161022257505f6101bf565b816001811461023857600281146102425761025e565b60019150506101bf565b60ff84111561025357610253610192565b50506001821b6101bf565b5060208310610133831016604e8410600b8410161715610281575081810a6101bf565b61028d5f1984846101c5565b805f19048211156102a0576102a0610192565b029392505050565b5f6102b660ff841683610208565b9392505050565b80820281158282048414176101bf576101bf61019256fea264697066735822122084e6122160d5ca75025dbf43a29563adf6da775e7160cd1ded102cad29e4f10c64736f6c634300081e0033","linkReferences":{}},"methodIdentifiers":{"erc4626Vault()":"5920b225","getRate()":"679aefce"},"id":905}