{"abi":[{"type":"constructor","inputs":[{"name":"params","type":"tuple","internalType":"struct StablePool.NewPoolParams","components":[{"name":"name","type":"string","internalType":"string"},{"name":"symbol","type":"string","internalType":"string"},{"name":"amplificationParameter","type":"uint256","internalType":"uint256"},{"name":"version","type":"string","internalType":"string"}]},{"name":"vault","type":"address","internalType":"contract IVault"}],"stateMutability":"nonpayable"},{"type":"function","name":"DOMAIN_SEPARATOR","inputs":[],"outputs":[{"name":"","type":"bytes32","internalType":"bytes32"}],"stateMutability":"view"},{"type":"function","name":"PERMIT_TYPEHASH","inputs":[],"outputs":[{"name":"","type":"bytes32","internalType":"bytes32"}],"stateMutability":"view"},{"type":"function","name":"allowance","inputs":[{"name":"owner","type":"address","internalType":"address"},{"name":"spender","type":"address","internalType":"address"}],"outputs":[{"name":"","type":"uint256","internalType":"uint256"}],"stateMutability":"view"},{"type":"function","name":"approve","inputs":[{"name":"spender","type":"address","internalType":"address"},{"name":"amount","type":"uint256","internalType":"uint256"}],"outputs":[{"name":"","type":"bool","internalType":"bool"}],"stateMutability":"nonpayable"},{"type":"function","name":"balanceOf","inputs":[{"name":"account","type":"address","internalType":"address"}],"outputs":[{"name":"","type":"uint256","internalType":"uint256"}],"stateMutability":"view"},{"type":"function","name":"computeBalance","inputs":[{"name":"balancesLiveScaled18","type":"uint256[]","internalType":"uint256[]"},{"name":"tokenInIndex","type":"uint256","internalType":"uint256"},{"name":"invariantRatio","type":"uint256","internalType":"uint256"}],"outputs":[{"name":"newBalance","type":"uint256","internalType":"uint256"}],"stateMutability":"view"},{"type":"function","name":"computeInvariant","inputs":[{"name":"balancesLiveScaled18","type":"uint256[]","internalType":"uint256[]"},{"name":"rounding","type":"uint8","internalType":"enum Rounding"}],"outputs":[{"name":"invariant","type":"uint256","internalType":"uint256"}],"stateMutability":"view"},{"type":"function","name":"decimals","inputs":[],"outputs":[{"name":"","type":"uint8","internalType":"uint8"}],"stateMutability":"pure"},{"type":"function","name":"eip712Domain","inputs":[],"outputs":[{"name":"fields","type":"bytes1","internalType":"bytes1"},{"name":"name","type":"string","internalType":"string"},{"name":"version","type":"string","internalType":"string"},{"name":"chainId","type":"uint256","internalType":"uint256"},{"name":"verifyingContract","type":"address","internalType":"address"},{"name":"salt","type":"bytes32","internalType":"bytes32"},{"name":"extensions","type":"uint256[]","internalType":"uint256[]"}],"stateMutability":"view"},{"type":"function","name":"emitApproval","inputs":[{"name":"owner","type":"address","internalType":"address"},{"name":"spender","type":"address","internalType":"address"},{"name":"amount","type":"uint256","internalType":"uint256"}],"outputs":[],"stateMutability":"nonpayable"},{"type":"function","name":"emitTransfer","inputs":[{"name":"from","type":"address","internalType":"address"},{"name":"to","type":"address","internalType":"address"},{"name":"amount","type":"uint256","internalType":"uint256"}],"outputs":[],"stateMutability":"nonpayable"},{"type":"function","name":"getActionId","inputs":[{"name":"selector","type":"bytes4","internalType":"bytes4"}],"outputs":[{"name":"","type":"bytes32","internalType":"bytes32"}],"stateMutability":"view"},{"type":"function","name":"getAggregateFeePercentages","inputs":[],"outputs":[{"name":"aggregateSwapFeePercentage","type":"uint256","internalType":"uint256"},{"name":"aggregateYieldFeePercentage","type":"uint256","internalType":"uint256"}],"stateMutability":"view"},{"type":"function","name":"getAmplificationParameter","inputs":[],"outputs":[{"name":"value","type":"uint256","internalType":"uint256"},{"name":"isUpdating","type":"bool","internalType":"bool"},{"name":"precision","type":"uint256","internalType":"uint256"}],"stateMutability":"view"},{"type":"function","name":"getAmplificationState","inputs":[],"outputs":[{"name":"amplificationState","type":"tuple","internalType":"struct AmplificationState","components":[{"name":"startValue","type":"uint64","internalType":"uint64"},{"name":"endValue","type":"uint64","internalType":"uint64"},{"name":"startTime","type":"uint32","internalType":"uint32"},{"name":"endTime","type":"uint32","internalType":"uint32"}]},{"name":"precision","type":"uint256","internalType":"uint256"}],"stateMutability":"view"},{"type":"function","name":"getCurrentLiveBalances","inputs":[],"outputs":[{"name":"balancesLiveScaled18","type":"uint256[]","internalType":"uint256[]"}],"stateMutability":"view"},{"type":"function","name":"getMaximumInvariantRatio","inputs":[],"outputs":[{"name":"","type":"uint256","internalType":"uint256"}],"stateMutability":"pure"},{"type":"function","name":"getMaximumSwapFeePercentage","inputs":[],"outputs":[{"name":"","type":"uint256","internalType":"uint256"}],"stateMutability":"pure"},{"type":"function","name":"getMinimumInvariantRatio","inputs":[],"outputs":[{"name":"","type":"uint256","internalType":"uint256"}],"stateMutability":"pure"},{"type":"function","name":"getMinimumSwapFeePercentage","inputs":[],"outputs":[{"name":"","type":"uint256","internalType":"uint256"}],"stateMutability":"pure"},{"type":"function","name":"getRate","inputs":[],"outputs":[{"name":"","type":"uint256","internalType":"uint256"}],"stateMutability":"view"},{"type":"function","name":"getStablePoolDynamicData","inputs":[],"outputs":[{"name":"data","type":"tuple","internalType":"struct StablePoolDynamicData","components":[{"name":"balancesLiveScaled18","type":"uint256[]","internalType":"uint256[]"},{"name":"tokenRates","type":"uint256[]","internalType":"uint256[]"},{"name":"staticSwapFeePercentage","type":"uint256","internalType":"uint256"},{"name":"totalSupply","type":"uint256","internalType":"uint256"},{"name":"bptRate","type":"uint256","internalType":"uint256"},{"name":"amplificationParameter","type":"uint256","internalType":"uint256"},{"name":"startValue","type":"uint256","internalType":"uint256"},{"name":"endValue","type":"uint256","internalType":"uint256"},{"name":"startTime","type":"uint32","internalType":"uint32"},{"name":"endTime","type":"uint32","internalType":"uint32"},{"name":"isAmpUpdating","type":"bool","internalType":"bool"},{"name":"isPoolInitialized","type":"bool","internalType":"bool"},{"name":"isPoolPaused","type":"bool","internalType":"bool"},{"name":"isPoolInRecoveryMode","type":"bool","internalType":"bool"}]}],"stateMutability":"view"},{"type":"function","name":"getStablePoolImmutableData","inputs":[],"outputs":[{"name":"data","type":"tuple","internalType":"struct StablePoolImmutableData","components":[{"name":"tokens","type":"address[]","internalType":"contract IERC20[]"},{"name":"decimalScalingFactors","type":"uint256[]","internalType":"uint256[]"},{"name":"amplificationParameterPrecision","type":"uint256","internalType":"uint256"}]}],"stateMutability":"view"},{"type":"function","name":"getStaticSwapFeePercentage","inputs":[],"outputs":[{"name":"","type":"uint256","internalType":"uint256"}],"stateMutability":"view"},{"type":"function","name":"getTokenInfo","inputs":[],"outputs":[{"name":"tokens","type":"address[]","internalType":"contract IERC20[]"},{"name":"tokenInfo","type":"tuple[]","internalType":"struct TokenInfo[]","components":[{"name":"tokenType","type":"uint8","internalType":"enum TokenType"},{"name":"rateProvider","type":"address","internalType":"contract IRateProvider"},{"name":"paysYieldFees","type":"bool","internalType":"bool"}]},{"name":"balancesRaw","type":"uint256[]","internalType":"uint256[]"},{"name":"lastBalancesLiveScaled18","type":"uint256[]","internalType":"uint256[]"}],"stateMutability":"view"},{"type":"function","name":"getTokens","inputs":[],"outputs":[{"name":"tokens","type":"address[]","internalType":"contract IERC20[]"}],"stateMutability":"view"},{"type":"function","name":"getVault","inputs":[],"outputs":[{"name":"","type":"address","internalType":"contract IVault"}],"stateMutability":"view"},{"type":"function","name":"incrementNonce","inputs":[],"outputs":[],"stateMutability":"nonpayable"},{"type":"function","name":"name","inputs":[],"outputs":[{"name":"","type":"string","internalType":"string"}],"stateMutability":"view"},{"type":"function","name":"nonces","inputs":[{"name":"owner","type":"address","internalType":"address"}],"outputs":[{"name":"","type":"uint256","internalType":"uint256"}],"stateMutability":"view"},{"type":"function","name":"onSwap","inputs":[{"name":"request","type":"tuple","internalType":"struct PoolSwapParams","components":[{"name":"kind","type":"uint8","internalType":"enum SwapKind"},{"name":"amountGivenScaled18","type":"uint256","internalType":"uint256"},{"name":"balancesScaled18","type":"uint256[]","internalType":"uint256[]"},{"name":"indexIn","type":"uint256","internalType":"uint256"},{"name":"indexOut","type":"uint256","internalType":"uint256"},{"name":"router","type":"address","internalType":"address"},{"name":"userData","type":"bytes","internalType":"bytes"}]}],"outputs":[{"name":"amountCalculatedScaled18","type":"uint256","internalType":"uint256"}],"stateMutability":"view"},{"type":"function","name":"permit","inputs":[{"name":"owner","type":"address","internalType":"address"},{"name":"spender","type":"address","internalType":"address"},{"name":"amount","type":"uint256","internalType":"uint256"},{"name":"deadline","type":"uint256","internalType":"uint256"},{"name":"v","type":"uint8","internalType":"uint8"},{"name":"r","type":"bytes32","internalType":"bytes32"},{"name":"s","type":"bytes32","internalType":"bytes32"}],"outputs":[],"stateMutability":"nonpayable"},{"type":"function","name":"startAmplificationParameterUpdate","inputs":[{"name":"rawEndValue","type":"uint256","internalType":"uint256"},{"name":"endTime","type":"uint256","internalType":"uint256"}],"outputs":[],"stateMutability":"nonpayable"},{"type":"function","name":"stopAmplificationParameterUpdate","inputs":[],"outputs":[],"stateMutability":"nonpayable"},{"type":"function","name":"supportsInterface","inputs":[{"name":"interfaceId","type":"bytes4","internalType":"bytes4"}],"outputs":[{"name":"","type":"bool","internalType":"bool"}],"stateMutability":"view"},{"type":"function","name":"symbol","inputs":[],"outputs":[{"name":"","type":"string","internalType":"string"}],"stateMutability":"view"},{"type":"function","name":"totalSupply","inputs":[],"outputs":[{"name":"","type":"uint256","internalType":"uint256"}],"stateMutability":"view"},{"type":"function","name":"transfer","inputs":[{"name":"to","type":"address","internalType":"address"},{"name":"amount","type":"uint256","internalType":"uint256"}],"outputs":[{"name":"","type":"bool","internalType":"bool"}],"stateMutability":"nonpayable"},{"type":"function","name":"transferFrom","inputs":[{"name":"from","type":"address","internalType":"address"},{"name":"to","type":"address","internalType":"address"},{"name":"amount","type":"uint256","internalType":"uint256"}],"outputs":[{"name":"","type":"bool","internalType":"bool"}],"stateMutability":"nonpayable"},{"type":"function","name":"version","inputs":[],"outputs":[{"name":"","type":"string","internalType":"string"}],"stateMutability":"view"},{"type":"event","name":"AmpUpdateStarted","inputs":[{"name":"startValue","type":"uint256","indexed":false,"internalType":"uint256"},{"name":"endValue","type":"uint256","indexed":false,"internalType":"uint256"},{"name":"startTime","type":"uint256","indexed":false,"internalType":"uint256"},{"name":"endTime","type":"uint256","indexed":false,"internalType":"uint256"}],"anonymous":false},{"type":"event","name":"AmpUpdateStopped","inputs":[{"name":"currentValue","type":"uint256","indexed":false,"internalType":"uint256"}],"anonymous":false},{"type":"event","name":"Approval","inputs":[{"name":"owner","type":"address","indexed":true,"internalType":"address"},{"name":"spender","type":"address","indexed":true,"internalType":"address"},{"name":"amount","type":"uint256","indexed":false,"internalType":"uint256"}],"anonymous":false},{"type":"event","name":"EIP712DomainChanged","inputs":[],"anonymous":false},{"type":"event","name":"Transfer","inputs":[{"name":"from","type":"address","indexed":true,"internalType":"address"},{"name":"to","type":"address","indexed":true,"internalType":"address"},{"name":"amount","type":"uint256","indexed":false,"internalType":"uint256"}],"anonymous":false},{"type":"error","name":"AmpUpdateAlreadyStarted","inputs":[]},{"type":"error","name":"AmpUpdateDurationTooShort","inputs":[]},{"type":"error","name":"AmpUpdateNotStarted","inputs":[]},{"type":"error","name":"AmpUpdateRateTooFast","inputs":[]},{"type":"error","name":"AmplificationFactorTooHigh","inputs":[]},{"type":"error","name":"AmplificationFactorTooLow","inputs":[]},{"type":"error","name":"ERC2612ExpiredSignature","inputs":[{"name":"deadline","type":"uint256","internalType":"uint256"}]},{"type":"error","name":"ERC2612InvalidSigner","inputs":[{"name":"signer","type":"address","internalType":"address"},{"name":"owner","type":"address","internalType":"address"}]},{"type":"error","name":"InvalidAccountNonce","inputs":[{"name":"account","type":"address","internalType":"address"},{"name":"currentNonce","type":"uint256","internalType":"uint256"}]},{"type":"error","name":"MaxImbalanceRatioExceeded","inputs":[]},{"type":"error","name":"SenderIsNotVault","inputs":[{"name":"sender","type":"address","internalType":"address"}]},{"type":"error","name":"SenderNotAllowed","inputs":[]},{"type":"error","name":"StableComputeBalanceDidNotConverge","inputs":[]},{"type":"error","name":"StableInvariantDidNotConverge","inputs":[]},{"type":"error","name":"VaultNotSet","inputs":[]},{"type":"error","name":"ZeroDivision","inputs":[]}],"bytecode":{"object":"0x610160604052348015610010575f5ffd5b50604051613c3e380380613c3e83398101604081905261002f9161038c565b816060015181823381816001600160a01b03165f1b8087895f01518a602001518282604051806040016040528060018152602001603160f81b815250815f908161007991906104ea565b50600161008682826104ea565b508151602092830120608052805191012060a0526001600160a01b031660c05260036100b283826104ea565b5060046100bf82826104ea565b50505060e091909152506001600160a01b0382166100f057604051630647140b60e51b815260040160405180910390fd5b506001600160a01b0390811661010052929092166101405250610114905081610188565b5060018260400151101561013b5760405163ab92332360e01b815260040160405180910390fd5b61c35082604001511115610162576040516309b80d3960e41b815260040160405180910390fd5b5f6103e8836040015161017591906105a4565b905061018081610198565b5050506105c7565b600561019482826104ea565b5050565b5f6101a282610257565b60068054680100000000000000006001600160401b0384169081026001600160801b03199092161717905590505f6101d942610267565b60068054600160801b600160c01b031916600160801b63ffffffff841690810263ffffffff60a01b191691909117600160a01b919091021790556040516001600160401b03841681529091507fa0d01593e47e69d07e0ccd87bece09411e07dd1ed40ca8f2e7af2976542a02339060200160405180910390a1505050565b5f61026182610271565b92915050565b5f6102618261028e565b5f68010000000000000000821061028a5761028a61029f565b5090565b5f640100000000821061028a5761028a5b6335278d125f526004601cfd5b634e487b7160e01b5f52604160045260245ffd5b604051608081016001600160401b03811182821017156102e2576102e26102ac565b60405290565b5f82601f8301126102f7575f5ffd5b81516001600160401b03811115610310576103106102ac565b604051601f8201601f19908116603f011681016001600160401b038111828210171561033e5761033e6102ac565b604052818152838201602001851015610355575f5ffd5b8160208501602083015e5f918101602001919091529392505050565b80516001600160a01b0381168114610387575f5ffd5b919050565b5f5f6040838503121561039d575f5ffd5b82516001600160401b038111156103b2575f5ffd5b8301608081860312156103c3575f5ffd5b6103cb6102c0565b81516001600160401b038111156103e0575f5ffd5b6103ec878285016102e8565b82525060208201516001600160401b03811115610407575f5ffd5b610413878285016102e8565b6020830152506040828101519082015260608201516001600160401b0381111561043b575f5ffd5b610447878285016102e8565b606083015250925061045d905060208401610371565b90509250929050565b600181811c9082168061047a57607f821691505b60208210810361049857634e487b7160e01b5f52602260045260245ffd5b50919050565b601f8211156104e557805f5260205f20601f840160051c810160208510156104c35750805b601f840160051c820191505b818110156104e2575f81556001016104cf565b50505b505050565b81516001600160401b03811115610503576105036102ac565b610517816105118454610466565b8461049e565b6020601f821160018114610549575f83156105325750848201515b5f19600385901b1c1916600184901b1784556104e2565b5f84815260208120601f198516915b828110156105785787850151825560209485019460019092019101610558565b508482101561059557868401515f19600387901b60f8161c191681555b50505050600190811b01905550565b808202811582820484141761026157634e487b7160e01b5f52601160045260245ffd5b60805160a05160c05160e05161010051610120516101405161358f6106af5f395f8181610fe6015281816112050152818161128301528181611336015261175101525f50505f81816108ba015281816119a601526124e901525f6110ca01525f818161062801528181610734015281816107e301528181610b4501528181610c8f01528181610d1e01528181610e170152818161112d015281816111b20152818161143d015281816114cc0152818161155f01528181611694015281816118820152818161193701528181611a7b0152611f3201525f61208c01525f612064015261358f5ff3fe608060405234801561000f575f5ffd5b50600436106101d6575f3560e01c806301ffc9a7146101da57806306fdde0314610213578063095ea7b31461022857806316a0b3e01461023b57806318160ddd1461025c57806321da5e191461026457806323b872dd1461032d57806323de665114610340578063273c1adf146103555780632f1a0bc91461036357806330adf81f14610376578063313ce5671461038a5780633644e5151461039957806354fd4d50146103a15780635687f2b8146103a95780635c1e6259146103bc578063627cdcb9146103d1578063654cf15d146103d9578063679aefce146103e75780636daccffa146103ef57806370a082311461041257806372c98186146104255780637ecebe001461043857806381fa807c1461044b57806384b0196e14610468578063851c1bb3146104835780638d928af81461049657806395d89b41146104ab578063984de9e8146104b3578063a9059cbb146104c6578063aa6ca808146104d9578063abb1dc44146104ee578063b156aa0a14610506578063b677fa561461051b578063cbd4e28014610529578063ce20ece71461053e578063d335b0cf14610549578063d505accf14610551578063dd62ed3e14610564578063eb0f24d614610577575b5f5ffd5b6101fe6101e836600461265e565b6001600160e01b0319166301ffc9a760e01b1490565b60405190151581526020015b60405180910390f35b61021b61057f565b60405161020a91906126b3565b6101fe6102363660046126e9565b61060f565b61024e610249366004612850565b6106ad565b60405190815260200161020a565b61024e61071b565b6102dd604080516080810182525f80825260208201819052918101829052606081019190915250604080516080810182526006546001600160401b038082168352600160401b820416602083015263ffffffff600160801b8204811693830193909352600160a01b90049091166060820152906103e890565b6040805183516001600160401b039081168252602080860151909116908201528382015163ffffffff9081169282019290925260609384015190911692810192909252608082015260a00161020a565b6101fe61033b366004612899565b6107ad565b61035361034e366004612899565b61085c565b005b674563918244f4000061024e565b6103536103713660046128d7565b6108b6565b61024e5f51602061353a5f395f51905f5281565b6040516012815260200161020a565b61024e610bf0565b61021b610bf9565b6103536103b7366004612899565b610c08565b6103c4610c55565b60405161020a9190612931565b610353610da5565b67016345785d8a000061024e565b61024e610db1565b6103f7610de5565b6040805193845291151560208401529082015260600161020a565b61024e6104203660046129b8565b610dfe565b61024e610433366004612a55565b610e8d565b61024e6104463660046129b8565b610fc4565b610453610fe1565b6040805192835260208301919091520161020a565b610470611085565b60405161020a9796959493929190612b29565b61024e61049136600461265e565b6110c7565b61049e61112b565b60405161020a9190612b98565b61021b61114f565b61024e6104c1366004612bac565b61115e565b6101fe6104d43660046126e9565b611199565b6104e16111eb565b60405161020a9190612c33565b6104f661127b565b60405161020a9493929190612c59565b61050e61131c565b60405161020a9190612d1a565b670853a0d2313c000061024e565b6105316113ac565b60405161020a9190612d2c565b64e8d4a5100061024e565b61024e611738565b61035361055f366004612e1b565b611786565b61024e610572366004612e8c565b611908565b6103536119a2565b60606003805461058e90612eb8565b80601f01602080910402602001604051908101604052809291908181526020018280546105ba90612eb8565b80156106055780601f106105dc57610100808354040283529160200191610605565b820191905f5260205f20905b8154815290600101906020018083116105e857829003601f168201915b5050505050905090565b60405163e1f21c6760e01b81525f906001600160a01b037f0000000000000000000000000000000000000000000000000000000000000000169063e1f21c679061066190339087908790600401612ef0565b6020604051808303815f875af115801561067d573d5f5f3e3d5ffd5b505050506040513d601f19601f820116820180604052508101906106a19190612f23565b50600190505b92915050565b5f5f5f6106b986611b19565b915091505f6106c6611b90565b5090506106e981886106e3886106dd8c875f611c4e565b90611c94565b89611cc0565b9350828410156106fb57839250610707565b81841115610707578391505b6107118383611ef3565b5050509392505050565b6040516339370aa960e21b81525f906001600160a01b037f0000000000000000000000000000000000000000000000000000000000000000169063e4dc2aa490610769903090600401612b98565b602060405180830381865afa158015610784573d5f5f3e3d5ffd5b505050506040513d601f19601f820116820180604052508101906107a89190612f3c565b905090565b604051630aed65f560e11b81523360048201526001600160a01b0384811660248301528381166044830152606482018390525f917f0000000000000000000000000000000000000000000000000000000000000000909116906315dacbea906084016020604051808303815f875af115801561082b573d5f5f3e3d5ffd5b505050506040513d601f19601f8201168201806040525081019061084f9190612f23565b50600190505b9392505050565b610864611f27565b816001600160a01b0316836001600160a01b03167fddf252ad1be2c89b69c2b068fc378daa952ba7f163c4a11628f55a4df523b3ef836040516108a991815260200190565b60405180910390a3505050565b305f7f00000000000000000000000000000000000000000000000000000000000000006001600160a01b031663e9ddeb26836040518263ffffffff1660e01b81526004016109049190612b98565b606060405180830381865afa15801561091f573d5f5f3e3d5ffd5b505050506040513d601f19601f820116820180604052508101906109439190612f53565b6020015190506109538282611f74565b60018410156109755760405163ab92332360e01b815260040160405180910390fd5b61c350841115610998576040516309b80d3960e41b815260040160405180910390fd5b5f6109a34285612fbb565b9050620151808110156109c9576040516366b5811560e11b815260040160405180910390fd5b5f5f6109d3611b90565b9150915080156109f6576040516317980f3f60e11b815260040160405180910390fd5b5f610a036103e889612fce565b90505f838211610a3257610a2d610a1a8684612fce565b610a278662015180612fce565b90611fee565b610a4c565b610a4c610a3f8686612fce565b610a278462015180612fce565b90506002811115610a7057604051630e3845c960e11b815260040160405180910390fd5b5f610a7a85612020565b90505f610a8684612020565b90505f610a924261202a565b90505f610a9e8c61202a565b6006805463ffffffff808416600160a01b0263ffffffff60a01b19918716600160801b0291909116600160801b600160c01b03196001600160401b03898116600160401b026001600160801b0319909516908b16179390931792909216919091171790556040519091507f1835882ee7a34ac194f717a35e09bb1d24c82a3b9d854ab6c9749525b714cdf290610b3b908690869086908690612fe5565b60405180910390a17f00000000000000000000000000000000000000000000000000000000000000006001600160a01b031663c808824785858585604051602001610b899493929190612fe5565b6040516020818303038152906040526040518263ffffffff1660e01b8152600401610bb49190613016565b5f604051808303815f87803b158015610bcb575f5ffd5b505af1158015610bdd573d5f5f3e3d5ffd5b5050505050505050505050505050505050565b5f6107a8612034565b60606005805461058e90612eb8565b610c10611f27565b816001600160a01b0316836001600160a01b03167f8c5be1e5ebec7d5bd14f71427d1e84f3dd0314c0f7b2291e5b200ac8c7c3b925836040516108a991815260200190565b610c78604051806060016040528060608152602001606081526020015f81525090565b60405163ca4f280360e01b81526001600160a01b037f0000000000000000000000000000000000000000000000000000000000000000169063ca4f280390610cc4903090600401612b98565b5f60405180830381865afa158015610cde573d5f5f3e3d5ffd5b505050506040513d5f823e601f3d908101601f19168201604052610d0591908101906130a5565b8152604051633f1b0def60e11b81526001600160a01b037f00000000000000000000000000000000000000000000000000000000000000001690637e361bde90610d53903090600401612b98565b5f60405180830381865afa158015610d6d573d5f5f3e3d5ffd5b505050506040513d5f823e601f3d908101601f19168201604052610d949190810190613131565b5060208201526103e8604082015290565b610dae336120dc565b50565b5f610dba61112b565b6001600160a01b0316634f037ee7306040518263ffffffff1660e01b81526004016107699190612b98565b5f5f5f610df0611b90565b90949093506103e892509050565b604051633de222bb60e21b81525f906001600160a01b037f0000000000000000000000000000000000000000000000000000000000000000169063f7888aec90610e4e9030908690600401613196565b602060405180830381865afa158015610e69573d5f5f3e3d5ffd5b505050506040513d601f19601f820116820180604052508101906106a79190612f3c565b5f5f5f610e9d8460400151611b19565b915091505f610eaa611b90565b5090505f610ebe8660400151836001611c4e565b90505f808088516001811115610ed657610ed6612c45565b03610f0a5787602001519050610f008489604001518a606001518b608001518c60200151886120fe565b9150819650610f35565b610f288489604001518a606001518b608001518c602001518861219a565b9050876020015191508096505b5f8189604001518a6060015181518110610f5157610f516131b0565b6020026020010151610f6391906131c4565b90505f838a604001518b6080015181518110610f8157610f816131b0565b6020026020010151610f939190612fbb565b905086821115610fa1578196505b87811015610fad578097505b610fb78888611ef3565b5050505050505050919050565b6001600160a01b0381165f908152600260205260408120546106a7565b5f5f5f7f00000000000000000000000000000000000000000000000000000000000000006001600160a01b031663f29486a1306040518263ffffffff1660e01b81526004016110309190612b98565b6101a060405180830381865afa15801561104c573d5f5f3e3d5ffd5b505050506040513d601f19601f82011682018060405250810190611070919061327b565b90508060400151925080606001519150509091565b5f6060805f5f5f6060611096612229565b61109e612237565b604080515f80825260208201909252600f60f81b9b939a50919850469750309650945092509050565b5f7f00000000000000000000000000000000000000000000000000000000000000008260405160200161110e9291909182526001600160e01b031916602082015260240190565b604051602081830303815290604052805190602001209050919050565b7f000000000000000000000000000000000000000000000000000000000000000090565b60606004805461058e90612eb8565b5f5f611168611b90565b5090505f5f61117686611b19565b915091506111848282611ef3565b61118f868487611c4e565b9695505050505050565b6040516317d5759960e31b81525f906001600160a01b037f0000000000000000000000000000000000000000000000000000000000000000169063beabacc89061066190339087908790600401612ef0565b60405163ca4f280360e01b81526060906001600160a01b037f0000000000000000000000000000000000000000000000000000000000000000169063ca4f28039061123a903090600401612b98565b5f60405180830381865afa158015611254573d5f5f3e3d5ffd5b505050506040513d5f823e601f3d908101601f191682016040526107a891908101906130a5565b6060806060807f00000000000000000000000000000000000000000000000000000000000000006001600160a01b03166367e0e076306040518263ffffffff1660e01b81526004016112cd9190612b98565b5f60405180830381865afa1580156112e7573d5f5f3e3d5ffd5b505050506040513d5f823e601f3d908101601f1916820160405261130e9190810190613334565b935093509350935090919293565b6040516329ae7ec560e11b81526060906001600160a01b037f0000000000000000000000000000000000000000000000000000000000000000169063535cfd8a9061136b903090600401612b98565b5f60405180830381865afa158015611385573d5f5f3e3d5ffd5b505050506040513d5f823e601f3d908101601f191682016040526107a8919081019061348f565b611426604051806101c0016040528060608152602001606081526020015f81526020015f81526020015f81526020015f81526020015f81526020015f81526020015f63ffffffff1681526020015f63ffffffff1681526020015f151581526020015f151581526020015f151581526020015f151581525090565b6040516329ae7ec560e11b81526001600160a01b037f0000000000000000000000000000000000000000000000000000000000000000169063535cfd8a90611472903090600401612b98565b5f60405180830381865afa15801561148c573d5f5f3e3d5ffd5b505050506040513d5f823e601f3d908101601f191682016040526114b3919081019061348f565b8152604051633f1b0def60e11b81526001600160a01b037f00000000000000000000000000000000000000000000000000000000000000001690637e361bde90611501903090600401612b98565b5f60405180830381865afa15801561151b573d5f5f3e3d5ffd5b505050506040513d5f823e601f3d908101601f191682016040526115429190810190613131565b60208301525060405163b45090f960e01b81526001600160a01b037f0000000000000000000000000000000000000000000000000000000000000000169063b45090f990611594903090600401612b98565b602060405180830381865afa1580156115af573d5f5f3e3d5ffd5b505050506040513d601f19601f820116820180604052508101906115d39190612f3c565b60408201526115e061071b565b60608201526115ed610db1565b60808201526115fa611b90565b151561014083015260a0820152604080516080810182526006546001600160401b03808216808452600160401b830482166020850190815263ffffffff600160801b85048116868801908152600160a01b90950481166060870190815260c0890193909352905190921660e087015291518116610100860152905116610120840152905163f29486a160e01b81525f906001600160a01b037f0000000000000000000000000000000000000000000000000000000000000000169063f29486a1906116c9903090600401612b98565b6101a060405180830381865afa1580156116e5573d5f5f3e3d5ffd5b505050506040513d601f19601f82011682018060405250810190611709919061327b565b60e081015115156101608501526101008101511515610180850152610120015115156101a08401525090919050565b60405163b45090f960e01b81525f906001600160a01b037f0000000000000000000000000000000000000000000000000000000000000000169063b45090f990610769903090600401612b98565b834211156117af5760405163313c898160e11b8152600481018590526024015b60405180910390fd5b5f5f51602061353a5f395f51905f528888886117ca8c6120dc565b6040805160208101969096526001600160a01b0394851690860152929091166060840152608083015260a082015260c0810186905260e0016040516020818303038152906040528051906020012090505f61182482612246565b90505f61183382878787612272565b9050896001600160a01b0316816001600160a01b03161461186b57808a6040516325c0072360e11b81526004016117a6929190613196565b60405163e1f21c6760e01b81526001600160a01b037f0000000000000000000000000000000000000000000000000000000000000000169063e1f21c67906118bb908d908d908d90600401612ef0565b6020604051808303815f875af11580156118d7573d5f5f3e3d5ffd5b505050506040513d601f19601f820116820180604052508101906118fb9190612f23565b5050505050505050505050565b60405163927da10560e01b81523060048201526001600160a01b03838116602483015282811660448301525f917f00000000000000000000000000000000000000000000000000000000000000009091169063927da10590606401602060405180830381865afa15801561197e573d5f5f3e3d5ffd5b505050506040513d601f19601f820116820180604052508101906108559190612f3c565b305f7f00000000000000000000000000000000000000000000000000000000000000006001600160a01b031663e9ddeb26836040518263ffffffff1660e01b81526004016119f09190612b98565b606060405180830381865afa158015611a0b573d5f5f3e3d5ffd5b505050506040513d601f19601f82011682018060405250810190611a2f9190612f53565b602001519050611a3f8282611f74565b5f5f611a49611b90565b90925090508015155f03611a7057604051634673a67560e01b815260040160405180910390fd5b611a7982612288565b7f00000000000000000000000000000000000000000000000000000000000000006001600160a01b031663c808824783604051602001611abb91815260200190565b6040516020818303038152906040526040518263ffffffff1660e01b8152600401611ae691906134c0565b5f604051808303815f87803b158015611afd575f5ffd5b505af1158015611b0f573d5f5f3e3d5ffd5b5050505050505050565b5f5f825f81518110611b2d57611b2d6131b0565b6020908102919091010151835190925082915060015b81811015611b89575f858281518110611b5e57611b5e6131b0565b6020026020010151905084811015611b74578094505b83811115611b80578093505b50600101611b43565b5050915091565b604080516080810182526006546001600160401b03808216808452600160401b83049091166020840181905263ffffffff600160801b84048116958501869052600160a01b909304909216606084018190525f948594939142811115611c3e576001955083831115611c1d578181038242038585030281611c1357611c136134eb565b0484019650611c45565b8181038242038486030281611c3457611c346134eb565b0484039650611c45565b5f95508296505b50505050509091565b5f611c598385612342565b90508015610855576001826001811115611c7557611c75612c45565b14611c8a57611c858160016131c4565b611c8c565b805b949350505050565b5f80611ca08385612fce565b90506001670de0b6b3a76400006001830304018115150291505092915050565b82515f9081611ccf8288612fce565b90505f865f81518110611ce457611ce46131b0565b602002602001015190505f83885f81518110611d0257611d026131b0565b6020026020010151611d149190612fce565b905060015b84811015611d8d5787858a8381518110611d3557611d356131b0565b602002602001015184611d489190612fce565b611d529190612fce565b611d5c91906134ff565b9150888181518110611d7057611d706131b0565b602002602001015183611d8391906131c4565b9250600101611d19565b50878681518110611da057611da06131b0565b602002602001015182611db39190612fbb565b91505f611dc08880612fce565b90505f898881518110611dd557611dd56131b0565b6020026020010151611df88487611dec9190612fce565b610a276103e886612fce565b611e029190612fce565b90505f85611e126103e88c612fce565b611e1c91906134ff565b611e2690866131c4565b90505f80611e41611e37848e6131c4565b610a2786886131c4565b90505f5b60ff811015611ed957819250611e8c8d85846002611e639190612fce565b611e6d91906131c4565b611e779190612fbb565b86611e828580612fce565b610a2791906131c4565b915082821115611eb657600183830311611eb157509850611c8c975050505050505050565b611ed1565b600182840311611ed157509850611c8c975050505050505050565b600101611e45565b5060405163372f681760e21b815260040160405180910390fd5b5f611efe83836134ff565b90506127108110611f2257604051638a3b7ff160e01b815260040160405180910390fd5b505050565b336001600160a01b037f00000000000000000000000000000000000000000000000000000000000000001614611f72573360405163089676d560e01b81526004016117a69190612b98565b565b6001600160a01b038116611fc557611fa0611f995f356001600160e01b0319166110c7565b33846124e6565b15155f03611fc1576040516323dada5360e01b815260040160405180910390fd5b5050565b336001600160a01b03821614611fc1576040516323dada5360e01b815260040160405180910390fd5b5f815f0361200f57604051630a0c22c760e01b815260040160405180910390fd5b508115155f19909201046001010290565b5f6106a7826125e0565b5f6106a7826125f8565b5f6107a8604080517f8b73c3c69bb8fe3d512ecc4cf759cc79239f7b179b0ffacaa9a75d522b39400f60208201527f0000000000000000000000000000000000000000000000000000000000000000918101919091527f000000000000000000000000000000000000000000000000000000000000000060608201524660808201523060a08201525f9060c00160405160208183030381529060405280519060200120905090565b6001600160a01b03165f90815260026020526040902080546001810190915590565b5f82868681518110612112576121126131b0565b6020026020010181815161212691906131c4565b9052505f61213688888588611cc0565b90508387878151811061214b5761214b6131b0565b602002602001018181510391508181525050600181888781518110612172576121726131b0565b60200260200101516121849190612fbb565b61218e9190612fbb565b98975050505050505050565b5f828685815181106121ae576121ae6131b0565b602002602001018181516121c29190612fbb565b9052505f6121d288888589611cc0565b9050838786815181106121e7576121e76131b0565b60200260200101818151019150818152505086868151811061220b5761220b6131b0565b60200260200101518161221e9190612fbb565b61218e9060016131c4565b60605f805461058e90612eb8565b60606001805461058e90612eb8565b5f6106a7612252612034565b8360405161190160f01b8152600281019290925260228201526042902090565b5f61227f8585858561260c565b95945050505050565b5f61229282612020565b60068054600160401b6001600160401b0384169081026001600160801b03199092161717905590505f6122c44261202a565b60068054600160801b600160c01b031916600160801b63ffffffff841690810263ffffffff60a01b191691909117600160a01b919091021790556040516001600160401b03841681529091507fa0d01593e47e69d07e0ccd87bece09411e07dd1ed40ca8f2e7af2976542a02339060200160405180910390a1505050565b80515f908190815b8181101561238157848181518110612364576123646131b0565b60200260200101518361237791906131c4565b925060010161234a565b50815f03612393575f925050506106a7565b5f82816123a08489612fce565b90505f5b60ff8110156124cd57825f5b868110156123fb57868a82815181106123cb576123cb6131b0565b60200260200101516123dd9190612fce565b6123e78684612fce565b6123f191906134ff565b91506001016123b0565b508394508086600161240d91906131c4565b6124179190612fce565b6103e8856124258287612fbb565b61242f9190612fce565b61243991906134ff565b61244391906131c4565b8461244e8884612fce565b6103e861245b8b88612fce565b61246591906134ff565b61246f91906131c4565b6124799190612fce565b61248391906134ff565b9350848411156124ab576001858503116124a657839750505050505050506106a7565b6124c4565b6001848603116124c457839750505050505050506106a7565b506001016123a4565b506040516208651960e51b815260040160405180910390fd5b5f7f00000000000000000000000000000000000000000000000000000000000000006001600160a01b031663aaabadc56040518163ffffffff1660e01b8152600401602060405180830381865afa158015612543573d5f5f3e3d5ffd5b505050506040513d601f19601f82011682018060405250810190612567919061351e565b6040516326f8aa2160e21b8152600481018690526001600160a01b03858116602483015284811660448301529190911690639be2a88490606401602060405180830381865afa1580156125bc573d5f5f3e3d5ffd5b505050506040513d601f19601f82011682018060405250810190611c8c9190612f23565b5f600160401b82106125f4576125f4612651565b5090565b5f600160201b82106125f4576125f4612651565b5f604051855f5260ff851660205283604052826060526020600160805f60015afa5191503d61264257638baa579f5f526004601cfd5b5f606052604052949350505050565b6335278d125f526004601cfd5b5f6020828403121561266e575f5ffd5b81356001600160e01b031981168114610855575f5ffd5b5f81518084528060208401602086015e5f602082860101526020601f19601f83011685010191505092915050565b602081525f6108556020830184612685565b6001600160a01b0381168114610dae575f5ffd5b80356126e4816126c5565b919050565b5f5f604083850312156126fa575f5ffd5b8235612705816126c5565b946020939093013593505050565b634e487b7160e01b5f52604160045260245ffd5b60405160e081016001600160401b038111828210171561274957612749612713565b60405290565b604051606081016001600160401b038111828210171561274957612749612713565b60405161014081016001600160401b038111828210171561274957612749612713565b604051601f8201601f191681016001600160401b03811182821017156127bc576127bc612713565b604052919050565b5f6001600160401b038211156127dc576127dc612713565b5060051b60200190565b5f82601f8301126127f5575f5ffd5b8135612808612803826127c4565b612794565b8082825260208201915060208360051b860101925085831115612829575f5ffd5b602085015b8381101561284657803583526020928301920161282e565b5095945050505050565b5f5f5f60608486031215612862575f5ffd5b83356001600160401b03811115612877575f5ffd5b612883868287016127e6565b9660208601359650604090950135949350505050565b5f5f5f606084860312156128ab575f5ffd5b83356128b6816126c5565b925060208401356128c6816126c5565b929592945050506040919091013590565b5f5f604083850312156128e8575f5ffd5b50508035926020909101359150565b5f8151808452602084019350602083015f5b82811015612927578151865260209586019590910190600101612909565b5093949350505050565b602080825282516060838301528051608084018190525f929190910190829060a08501905b808310156129825783516001600160a01b03168252602082019150602084019350600183019250612956565b506020860151858203601f1901604087015292506129a081846128f7565b92505050604084015160608401528091505092915050565b5f602082840312156129c8575f5ffd5b8135610855816126c5565b60028110610dae575f5ffd5b80356126e4816129d3565b5f82601f8301126129f9575f5ffd5b81356001600160401b03811115612a1257612a12612713565b612a25601f8201601f1916602001612794565b818152846020838601011115612a39575f5ffd5b816020850160208301375f918101602001919091529392505050565b5f60208284031215612a65575f5ffd5b81356001600160401b03811115612a7a575f5ffd5b820160e08185031215612a8b575f5ffd5b612a93612727565b612a9c826129df565b81526020828101359082015260408201356001600160401b03811115612ac0575f5ffd5b612acc868285016127e6565b6040830152506060828101359082015260808083013590820152612af260a083016126d9565b60a082015260c08201356001600160401b03811115612b0f575f5ffd5b612b1b868285016129ea565b60c083015250949350505050565b60ff60f81b8816815260e060208201525f612b4760e0830189612685565b8281036040840152612b598189612685565b606084018890526001600160a01b038716608085015260a0840186905283810360c08501529050612b8a81856128f7565b9a9950505050505050505050565b6001600160a01b0391909116815260200190565b5f5f60408385031215612bbd575f5ffd5b82356001600160401b03811115612bd2575f5ffd5b612bde858286016127e6565b9250506020830135612bef816129d3565b809150509250929050565b5f8151808452602084019350602083015f5b828110156129275781516001600160a01b0316865260209586019590910190600101612c0c565b602081525f6108556020830184612bfa565b634e487b7160e01b5f52602160045260245ffd5b608081525f612c6b6080830187612bfa565b82810360208401528086518083526020830191506020880192505f5b81811015612ce6578351805160028110612caf57634e487b7160e01b5f52602160045260245ffd5b84526020818101516001600160a01b0316818601526040918201511515918501919091529390930192606090920191600101612c87565b50508381036040850152612cfa81876128f7565b9150508281036060840152612d0f81856128f7565b979650505050505050565b602081525f61085560208301846128f7565b602081525f82516101c06020840152612d496101e08401826128f7565b90506020840151601f19848303016040850152612d6682826128f7565b9150506040840151606084015260608401516080840152608084015160a084015260a084015160c084015260c084015160e084015260e0840151610100840152610100840151612dbf61012085018263ffffffff169052565b5061012084015163ffffffff81166101408501525061014084015180151561016085015250610160840151801515610180850152506101808401518015156101a0850152506101a08401518015156101c0850152509392505050565b5f5f5f5f5f5f5f60e0888a031215612e31575f5ffd5b8735612e3c816126c5565b96506020880135612e4c816126c5565b95506040880135945060608801359350608088013560ff81168114612e6f575f5ffd5b9699959850939692959460a0840135945060c09093013592915050565b5f5f60408385031215612e9d575f5ffd5b8235612ea8816126c5565b91506020830135612bef816126c5565b600181811c90821680612ecc57607f821691505b602082108103612eea57634e487b7160e01b5f52602260045260245ffd5b50919050565b6001600160a01b039384168152919092166020820152604081019190915260600190565b805180151581146126e4575f5ffd5b5f60208284031215612f33575f5ffd5b61085582612f14565b5f60208284031215612f4c575f5ffd5b5051919050565b5f6060828403128015612f64575f5ffd5b50612f6d61274f565b8251612f78816126c5565b81526020830151612f88816126c5565b60208201526040830151612f9b816126c5565b60408201529392505050565b634e487b7160e01b5f52601160045260245ffd5b818103818111156106a7576106a7612fa7565b80820281158282048414176106a7576106a7612fa7565b6001600160401b03948516815292909316602083015263ffffffff9081166040830152909116606082015260800190565b6f105b5c155c19185d1954dd185c9d195960821b8152604060208201525f6108556040830184612685565b5f82601f830112613050575f5ffd5b815161305e612803826127c4565b8082825260208201915060208360051b86010192508583111561307f575f5ffd5b602085015b83811015612846578051613097816126c5565b835260209283019201613084565b5f602082840312156130b5575f5ffd5b81516001600160401b038111156130ca575f5ffd5b611c8c84828501613041565b5f82601f8301126130e5575f5ffd5b81516130f3612803826127c4565b8082825260208201915060208360051b860101925085831115613114575f5ffd5b602085015b83811015612846578051835260209283019201613119565b5f5f60408385031215613142575f5ffd5b82516001600160401b03811115613157575f5ffd5b613163858286016130d6565b602085015190935090506001600160401b03811115613180575f5ffd5b61318c858286016130d6565b9150509250929050565b6001600160a01b0392831681529116602082015260400190565b634e487b7160e01b5f52603260045260245ffd5b808201808211156106a7576106a7612fa7565b5f608082840312156131e7575f5ffd5b604051608081016001600160401b038111828210171561320957613209612713565b60405290508061321883612f14565b815261322660208401612f14565b602082015261323760408401612f14565b604082015261324860608401612f14565b60608201525092915050565b805164ffffffffff811681146126e4575f5ffd5b805163ffffffff811681146126e4575f5ffd5b5f6101a082840312801561328d575f5ffd5b50613296612771565b6132a084846131d7565b81526080830151602082015260a0830151604082015260c083015160608201526132cc60e08401613254565b60808201526132de6101008401613268565b60a08201526132f06101208401612f14565b60c08201526133026101408401612f14565b60e08201526133146101608401612f14565b6101008201526133276101808401612f14565b6101208201529392505050565b5f5f5f5f60808587031215613347575f5ffd5b84516001600160401b0381111561335c575f5ffd5b61336887828801613041565b602087015190955090506001600160401b03811115613385575f5ffd5b8501601f81018713613395575f5ffd5b80516133a3612803826127c4565b808282526020820191506020606084028501019250898311156133c4575f5ffd5b6020840193505b8284101561342f576060848b0312156133e2575f5ffd5b6133ea61274f565b84516133f5816129d3565b81526020850151613405816126c5565b602082015261341660408601612f14565b60408201528252606093909301926020909101906133cb565b6040890151909650925050506001600160401b0381111561344e575f5ffd5b61345a878288016130d6565b606087015190935090506001600160401b03811115613477575f5ffd5b613483878288016130d6565b91505092959194509250565b5f6020828403121561349f575f5ffd5b81516001600160401b038111156134b4575f5ffd5b611c8c848285016130d6565b6f105b5c155c19185d1954dd1bdc1c195960821b8152604060208201525f6108556040830184612685565b634e487b7160e01b5f52601260045260245ffd5b5f8261351957634e487b7160e01b5f52601260045260245ffd5b500490565b5f6020828403121561352e575f5ffd5b8151610855816126c556fe6e71edae12b1b97f4d1f60370fef10105fa2faae0126114a169c64845d6126c9a264697066735822122047e98d8d65cf60ab3c1924812d790a92620c0c322edd49a0842b6c2835ffc2aa64736f6c634300081e0033","linkReferences":{}},"methodIdentifiers":{"DOMAIN_SEPARATOR()":"3644e515","PERMIT_TYPEHASH()":"30adf81f","allowance(address,address)":"dd62ed3e","approve(address,uint256)":"095ea7b3","balanceOf(address)":"70a08231","computeBalance(uint256[],uint256,uint256)":"16a0b3e0","computeInvariant(uint256[],uint8)":"984de9e8","decimals()":"313ce567","eip712Domain()":"84b0196e","emitApproval(address,address,uint256)":"5687f2b8","emitTransfer(address,address,uint256)":"23de6651","getActionId(bytes4)":"851c1bb3","getAggregateFeePercentages()":"81fa807c","getAmplificationParameter()":"6daccffa","getAmplificationState()":"21da5e19","getCurrentLiveBalances()":"b156aa0a","getMaximumInvariantRatio()":"273c1adf","getMaximumSwapFeePercentage()":"654cf15d","getMinimumInvariantRatio()":"b677fa56","getMinimumSwapFeePercentage()":"ce20ece7","getRate()":"679aefce","getStablePoolDynamicData()":"cbd4e280","getStablePoolImmutableData()":"5c1e6259","getStaticSwapFeePercentage()":"d335b0cf","getTokenInfo()":"abb1dc44","getTokens()":"aa6ca808","getVault()":"8d928af8","incrementNonce()":"627cdcb9","name()":"06fdde03","nonces(address)":"7ecebe00","onSwap((uint8,uint256,uint256[],uint256,uint256,address,bytes))":"72c98186","permit(address,address,uint256,uint256,uint8,bytes32,bytes32)":"d505accf","startAmplificationParameterUpdate(uint256,uint256)":"2f1a0bc9","stopAmplificationParameterUpdate()":"eb0f24d6","supportsInterface(bytes4)":"01ffc9a7","symbol()":"95d89b41","totalSupply()":"18160ddd","transfer(address,uint256)":"a9059cbb","transferFrom(address,address,uint256)":"23b872dd","version()":"54fd4d50"},"id":170}