{"abi":[{"type":"constructor","inputs":[{"name":"vault","type":"address","internalType":"contract IVault"},{"name":"defaultMaxSurgeFeePercentage","type":"uint256","internalType":"uint256"},{"name":"defaultSurgeThresholdPercentage","type":"uint256","internalType":"uint256"},{"name":"version","type":"string","internalType":"string"}],"stateMutability":"nonpayable"},{"type":"function","name":"computeSwapSurgeFeePercentage","inputs":[{"name":"params","type":"tuple","internalType":"struct PoolSwapParams","components":[{"name":"kind","type":"uint8","internalType":"enum SwapKind"},{"name":"amountGivenScaled18","type":"uint256","internalType":"uint256"},{"name":"balancesScaled18","type":"uint256[]","internalType":"uint256[]"},{"name":"indexIn","type":"uint256","internalType":"uint256"},{"name":"indexOut","type":"uint256","internalType":"uint256"},{"name":"router","type":"address","internalType":"address"},{"name":"userData","type":"bytes","internalType":"bytes"}]},{"name":"pool","type":"address","internalType":"address"},{"name":"staticSwapFeePercentage","type":"uint256","internalType":"uint256"}],"outputs":[{"name":"surgeFeePercentage","type":"uint256","internalType":"uint256"}],"stateMutability":"view"},{"type":"function","name":"getActionId","inputs":[{"name":"selector","type":"bytes4","internalType":"bytes4"}],"outputs":[{"name":"","type":"bytes32","internalType":"bytes32"}],"stateMutability":"view"},{"type":"function","name":"getAuthorizer","inputs":[],"outputs":[{"name":"","type":"address","internalType":"contract IAuthorizer"}],"stateMutability":"view"},{"type":"function","name":"getDefaultMaxSurgeFeePercentage","inputs":[],"outputs":[{"name":"","type":"uint256","internalType":"uint256"}],"stateMutability":"view"},{"type":"function","name":"getDefaultSurgeThresholdPercentage","inputs":[],"outputs":[{"name":"","type":"uint256","internalType":"uint256"}],"stateMutability":"view"},{"type":"function","name":"getHookFlags","inputs":[],"outputs":[{"name":"hookFlags","type":"tuple","internalType":"struct HookFlags","components":[{"name":"enableHookAdjustedAmounts","type":"bool","internalType":"bool"},{"name":"shouldCallBeforeInitialize","type":"bool","internalType":"bool"},{"name":"shouldCallAfterInitialize","type":"bool","internalType":"bool"},{"name":"shouldCallComputeDynamicSwapFee","type":"bool","internalType":"bool"},{"name":"shouldCallBeforeSwap","type":"bool","internalType":"bool"},{"name":"shouldCallAfterSwap","type":"bool","internalType":"bool"},{"name":"shouldCallBeforeAddLiquidity","type":"bool","internalType":"bool"},{"name":"shouldCallAfterAddLiquidity","type":"bool","internalType":"bool"},{"name":"shouldCallBeforeRemoveLiquidity","type":"bool","internalType":"bool"},{"name":"shouldCallAfterRemoveLiquidity","type":"bool","internalType":"bool"}]}],"stateMutability":"pure"},{"type":"function","name":"getMaxSurgeFeePercentage","inputs":[{"name":"pool","type":"address","internalType":"address"}],"outputs":[{"name":"","type":"uint256","internalType":"uint256"}],"stateMutability":"view"},{"type":"function","name":"getSurgeFeeData","inputs":[{"name":"pool","type":"address","internalType":"address"}],"outputs":[{"name":"","type":"tuple","internalType":"struct ISurgeHookCommon.SurgeFeeData","components":[{"name":"thresholdPercentage","type":"uint64","internalType":"uint64"},{"name":"maxSurgeFeePercentage","type":"uint64","internalType":"uint64"}]}],"stateMutability":"view"},{"type":"function","name":"getSurgeFeePercentage","inputs":[{"name":"params","type":"tuple","internalType":"struct PoolSwapParams","components":[{"name":"kind","type":"uint8","internalType":"enum SwapKind"},{"name":"amountGivenScaled18","type":"uint256","internalType":"uint256"},{"name":"balancesScaled18","type":"uint256[]","internalType":"uint256[]"},{"name":"indexIn","type":"uint256","internalType":"uint256"},{"name":"indexOut","type":"uint256","internalType":"uint256"},{"name":"router","type":"address","internalType":"address"},{"name":"userData","type":"bytes","internalType":"bytes"}]},{"name":"pool","type":"address","internalType":"address"},{"name":"staticSwapFeePercentage","type":"uint256","internalType":"uint256"}],"outputs":[{"name":"surgeFeePercentage","type":"uint256","internalType":"uint256"}],"stateMutability":"view"},{"type":"function","name":"getSurgeThresholdPercentage","inputs":[{"name":"pool","type":"address","internalType":"address"}],"outputs":[{"name":"","type":"uint256","internalType":"uint256"}],"stateMutability":"view"},{"type":"function","name":"getVault","inputs":[],"outputs":[{"name":"","type":"address","internalType":"contract IVault"}],"stateMutability":"view"},{"type":"function","name":"isSurging","inputs":[{"name":"thresholdPercentage","type":"uint64","internalType":"uint64"},{"name":"oldTotalImbalance","type":"uint256","internalType":"uint256"},{"name":"newTotalImbalance","type":"uint256","internalType":"uint256"}],"outputs":[{"name":"","type":"bool","internalType":"bool"}],"stateMutability":"pure"},{"type":"function","name":"isSurgingSwap","inputs":[{"name":"params","type":"tuple","internalType":"struct PoolSwapParams","components":[{"name":"kind","type":"uint8","internalType":"enum SwapKind"},{"name":"amountGivenScaled18","type":"uint256","internalType":"uint256"},{"name":"balancesScaled18","type":"uint256[]","internalType":"uint256[]"},{"name":"indexIn","type":"uint256","internalType":"uint256"},{"name":"indexOut","type":"uint256","internalType":"uint256"},{"name":"router","type":"address","internalType":"address"},{"name":"userData","type":"bytes","internalType":"bytes"}]},{"name":"pool","type":"address","internalType":"address"},{"name":"staticSwapFeePercentage","type":"uint256","internalType":"uint256"}],"outputs":[{"name":"isSurging","type":"bool","internalType":"bool"}],"stateMutability":"view"},{"type":"function","name":"onAfterAddLiquidity","inputs":[{"name":"","type":"address","internalType":"address"},{"name":"pool","type":"address","internalType":"address"},{"name":"kind","type":"uint8","internalType":"enum AddLiquidityKind"},{"name":"amountsInScaled18","type":"uint256[]","internalType":"uint256[]"},{"name":"amountsInRaw","type":"uint256[]","internalType":"uint256[]"},{"name":"","type":"uint256","internalType":"uint256"},{"name":"balancesScaled18","type":"uint256[]","internalType":"uint256[]"},{"name":"","type":"bytes","internalType":"bytes"}],"outputs":[{"name":"success","type":"bool","internalType":"bool"},{"name":"hookAdjustedAmountsInRaw","type":"uint256[]","internalType":"uint256[]"}],"stateMutability":"view"},{"type":"function","name":"onAfterInitialize","inputs":[{"name":"","type":"uint256[]","internalType":"uint256[]"},{"name":"","type":"uint256","internalType":"uint256"},{"name":"","type":"bytes","internalType":"bytes"}],"outputs":[{"name":"","type":"bool","internalType":"bool"}],"stateMutability":"nonpayable"},{"type":"function","name":"onAfterRemoveLiquidity","inputs":[{"name":"","type":"address","internalType":"address"},{"name":"pool","type":"address","internalType":"address"},{"name":"kind","type":"uint8","internalType":"enum RemoveLiquidityKind"},{"name":"","type":"uint256","internalType":"uint256"},{"name":"amountsOutScaled18","type":"uint256[]","internalType":"uint256[]"},{"name":"amountsOutRaw","type":"uint256[]","internalType":"uint256[]"},{"name":"balancesScaled18","type":"uint256[]","internalType":"uint256[]"},{"name":"","type":"bytes","internalType":"bytes"}],"outputs":[{"name":"success","type":"bool","internalType":"bool"},{"name":"hookAdjustedAmountsOutRaw","type":"uint256[]","internalType":"uint256[]"}],"stateMutability":"view"},{"type":"function","name":"onAfterSwap","inputs":[{"name":"","type":"tuple","internalType":"struct AfterSwapParams","components":[{"name":"kind","type":"uint8","internalType":"enum SwapKind"},{"name":"tokenIn","type":"address","internalType":"contract IERC20"},{"name":"tokenOut","type":"address","internalType":"contract IERC20"},{"name":"amountInScaled18","type":"uint256","internalType":"uint256"},{"name":"amountOutScaled18","type":"uint256","internalType":"uint256"},{"name":"tokenInBalanceScaled18","type":"uint256","internalType":"uint256"},{"name":"tokenOutBalanceScaled18","type":"uint256","internalType":"uint256"},{"name":"amountCalculatedScaled18","type":"uint256","internalType":"uint256"},{"name":"amountCalculatedRaw","type":"uint256","internalType":"uint256"},{"name":"router","type":"address","internalType":"address"},{"name":"pool","type":"address","internalType":"address"},{"name":"userData","type":"bytes","internalType":"bytes"}]}],"outputs":[{"name":"","type":"bool","internalType":"bool"},{"name":"","type":"uint256","internalType":"uint256"}],"stateMutability":"nonpayable"},{"type":"function","name":"onBeforeAddLiquidity","inputs":[{"name":"","type":"address","internalType":"address"},{"name":"","type":"address","internalType":"address"},{"name":"","type":"uint8","internalType":"enum AddLiquidityKind"},{"name":"","type":"uint256[]","internalType":"uint256[]"},{"name":"","type":"uint256","internalType":"uint256"},{"name":"","type":"uint256[]","internalType":"uint256[]"},{"name":"","type":"bytes","internalType":"bytes"}],"outputs":[{"name":"","type":"bool","internalType":"bool"}],"stateMutability":"nonpayable"},{"type":"function","name":"onBeforeInitialize","inputs":[{"name":"","type":"uint256[]","internalType":"uint256[]"},{"name":"","type":"bytes","internalType":"bytes"}],"outputs":[{"name":"","type":"bool","internalType":"bool"}],"stateMutability":"nonpayable"},{"type":"function","name":"onBeforeRemoveLiquidity","inputs":[{"name":"","type":"address","internalType":"address"},{"name":"","type":"address","internalType":"address"},{"name":"","type":"uint8","internalType":"enum RemoveLiquidityKind"},{"name":"","type":"uint256","internalType":"uint256"},{"name":"","type":"uint256[]","internalType":"uint256[]"},{"name":"","type":"uint256[]","internalType":"uint256[]"},{"name":"","type":"bytes","internalType":"bytes"}],"outputs":[{"name":"","type":"bool","internalType":"bool"}],"stateMutability":"nonpayable"},{"type":"function","name":"onBeforeSwap","inputs":[{"name":"","type":"tuple","internalType":"struct PoolSwapParams","components":[{"name":"kind","type":"uint8","internalType":"enum SwapKind"},{"name":"amountGivenScaled18","type":"uint256","internalType":"uint256"},{"name":"balancesScaled18","type":"uint256[]","internalType":"uint256[]"},{"name":"indexIn","type":"uint256","internalType":"uint256"},{"name":"indexOut","type":"uint256","internalType":"uint256"},{"name":"router","type":"address","internalType":"address"},{"name":"userData","type":"bytes","internalType":"bytes"}]},{"name":"","type":"address","internalType":"address"}],"outputs":[{"name":"","type":"bool","internalType":"bool"}],"stateMutability":"nonpayable"},{"type":"function","name":"onComputeDynamicSwapFeePercentage","inputs":[{"name":"params","type":"tuple","internalType":"struct PoolSwapParams","components":[{"name":"kind","type":"uint8","internalType":"enum SwapKind"},{"name":"amountGivenScaled18","type":"uint256","internalType":"uint256"},{"name":"balancesScaled18","type":"uint256[]","internalType":"uint256[]"},{"name":"indexIn","type":"uint256","internalType":"uint256"},{"name":"indexOut","type":"uint256","internalType":"uint256"},{"name":"router","type":"address","internalType":"address"},{"name":"userData","type":"bytes","internalType":"bytes"}]},{"name":"pool","type":"address","internalType":"address"},{"name":"staticSwapFeePercentage","type":"uint256","internalType":"uint256"}],"outputs":[{"name":"","type":"bool","internalType":"bool"},{"name":"","type":"uint256","internalType":"uint256"}],"stateMutability":"view"},{"type":"function","name":"onRegister","inputs":[{"name":"factory","type":"address","internalType":"address"},{"name":"pool","type":"address","internalType":"address"},{"name":"tokenConfig","type":"tuple[]","internalType":"struct TokenConfig[]","components":[{"name":"token","type":"address","internalType":"contract IERC20"},{"name":"tokenType","type":"uint8","internalType":"enum TokenType"},{"name":"rateProvider","type":"address","internalType":"contract IRateProvider"},{"name":"paysYieldFees","type":"bool","internalType":"bool"}]},{"name":"liquidityManagement","type":"tuple","internalType":"struct LiquidityManagement","components":[{"name":"disableUnbalancedLiquidity","type":"bool","internalType":"bool"},{"name":"enableAddLiquidityCustom","type":"bool","internalType":"bool"},{"name":"enableRemoveLiquidityCustom","type":"bool","internalType":"bool"},{"name":"enableDonation","type":"bool","internalType":"bool"}]}],"outputs":[{"name":"success","type":"bool","internalType":"bool"}],"stateMutability":"nonpayable"},{"type":"function","name":"setMaxSurgeFeePercentage","inputs":[{"name":"pool","type":"address","internalType":"address"},{"name":"newMaxSurgeSurgeFeePercentage","type":"uint256","internalType":"uint256"}],"outputs":[],"stateMutability":"nonpayable"},{"type":"function","name":"setSurgeThresholdPercentage","inputs":[{"name":"pool","type":"address","internalType":"address"},{"name":"newSurgeThresholdPercentage","type":"uint256","internalType":"uint256"}],"outputs":[],"stateMutability":"nonpayable"},{"type":"function","name":"version","inputs":[],"outputs":[{"name":"","type":"string","internalType":"string"}],"stateMutability":"view"},{"type":"event","name":"MaxSurgeFeePercentageChanged","inputs":[{"name":"pool","type":"address","indexed":true,"internalType":"address"},{"name":"newMaxSurgeFeePercentage","type":"uint256","indexed":false,"internalType":"uint256"}],"anonymous":false},{"type":"event","name":"StableSurgeHookRegistered","inputs":[{"name":"pool","type":"address","indexed":true,"internalType":"address"},{"name":"factory","type":"address","indexed":true,"internalType":"address"}],"anonymous":false},{"type":"event","name":"ThresholdSurgePercentageChanged","inputs":[{"name":"pool","type":"address","indexed":true,"internalType":"address"},{"name":"newSurgeThresholdPercentage","type":"uint256","indexed":false,"internalType":"uint256"}],"anonymous":false},{"type":"error","name":"InputLengthMismatch","inputs":[]},{"type":"error","name":"InvalidPercentage","inputs":[]},{"type":"error","name":"SenderIsNotVault","inputs":[{"name":"sender","type":"address","internalType":"address"}]},{"type":"error","name":"SenderNotAllowed","inputs":[]},{"type":"error","name":"VaultNotSet","inputs":[]}],"bytecode":{"object":"0x610120604052348015610010575f5ffd5b5060405161259f38038061259f83398101604081905261002f9161010a565b6001600160a01b03841660808190523060a08190528591859185918591859185918591859182918691829161007757604051630647140b60e51b815260040160405180910390fd5b506001600160a01b031660c0525061008e816100bb565b50610098836100ca565b6100a1826100ca565b5060e091909152610100525061032a975050505050505050565b5f6100c68282610270565b5050565b670de0b6b3a76400008111156100f357604051631f3b85d360e01b815260040160405180910390fd5b50565b634e487b7160e01b5f52604160045260245ffd5b5f5f5f5f6080858703121561011d575f5ffd5b84516001600160a01b0381168114610133575f5ffd5b60208601516040870151606088015192965090945092506001600160401b0381111561015d575f5ffd5b8501601f8101871361016d575f5ffd5b80516001600160401b03811115610186576101866100f6565b604051601f8201601f19908116603f011681016001600160401b03811182821017156101b4576101b46100f6565b6040528181528282016020018910156101cb575f5ffd5b8160208401602083015e5f6020838301015280935050505092959194509250565b600181811c9082168061020057607f821691505b60208210810361021e57634e487b7160e01b5f52602260045260245ffd5b50919050565b601f82111561026b57805f5260205f20601f840160051c810160208510156102495750805b601f840160051c820191505b81811015610268575f8155600101610255565b50505b505050565b81516001600160401b03811115610289576102896100f6565b61029d8161029784546101ec565b84610224565b6020601f8211600181146102cf575f83156102b85750848201515b5f19600385901b1c1916600184901b178455610268565b5f84815260208120601f198516915b828110156102fe57878501518255602094850194600190920191016102de565b508482101561031b57868401515f19600387901b60f8161c191681555b50505050600190811b01905550565b60805160a05160c05160e0516101005161221561038a5f395f81816102c40152610bd801525f818161033b0152610bae01525f8181610676015281816107bd015281816108c601526111c901525f61086301525f610b5401526122155ff3fe608060405234801561000f575f5ffd5b506004361061013c575f3560e01c80630b89f1821461014057806318b6eb55146101685780631a4a64be146101945780631c149e28146101da578063249d6761146101ed5780632754888d1461020057806338be241d146102215780633a61bdea1461023757806345421ec71461024a5780634e493cfd146102645780635211fa771461027957806354fd4d501461028757806359f004661461029c578063851c1bb3146102af5780638bc694ad146102c25780638d928af8146102e8578063976907cc146102fd578063a0e8f5ac14610310578063aaabadc514610323578063ba5f9f401461032b578063c17ef2cc14610339578063c88511a21461035f578063d77153a714610372578063e2381602146103cb578063ee488f26146103fc578063f32fdc7c14610485575b5f5ffd5b61015361014e366004611576565b610498565b60405190151581526020015b60405180910390f35b61017d6101763660046116a1565b505f908190565b60408051921515835260208301919091520161015f565b6101cc6101a23660046116d8565b6001600160a01b03165f90815260016020526040902054600160401b90046001600160401b031690565b60405190815260200161015f565b6101536101e83660046117b9565b6104f7565b6101cc6101fb36600461182c565b6104ff565b61021361020e36600461188f565b610515565b60405161015f92919061197e565b61015361022f3660046119cd565b5f9392505050565b61015361024536600461182c565b610612565b610153610258366004611a46565b5f979650505050505050565b610277610272366004611b0d565b610668565b005b6101536101e8366004611b37565b61028f610720565b60405161015f9190611b85565b6102776102aa366004611b0d565b6107af565b6101cc6102bd366004611bba565b610860565b7f00000000000000000000000000000000000000000000000000000000000000006101cc565b6102f06108c4565b60405161015f9190611be1565b61021361030b366004611bf5565b6108ed565b61017d61031e36600461182c565b6109e7565b6102f0610a02565b610153610258366004611ca1565b7f00000000000000000000000000000000000000000000000000000000000000006101cc565b6101cc61036d36600461182c565b610a6a565b60408051610140810182525f808252602082018190528183018190526080820181905260a0820181905260c0820181905261010082015260016060820181905260e08201819052610120820152905161015f9190611d26565b6101cc6103d93660046116d8565b6001600160a01b03165f908152600160205260409020546001600160401b031690565b61045e61040a3660046116d8565b604080518082019091525f8082526020820152506001600160a01b03165f908152600160209081526040918290208251808401909352546001600160401b038082168452600160401b909104169082015290565b6040805182516001600160401b03908116825260209384015116928101929092520161015f565b610153610493366004611def565b610b3d565b5f6104a1610b49565b6104ad85858585610b9f565b9050846001600160a01b0316846001600160a01b03167ffd42028b1ab0233596a5bfda7bb185da4a89e41288da447e5135765d4b50d46b60405160405180910390a3949350505050565b5f5b92915050565b5f61050b848484610a6a565b90505b9392505050565b5f60608188600381111561052b5761052b611e2c565b0361053b57506001905083610605565b5f84516001600160401b03811115610555576105556114b9565b60405190808252806020026020018201604052801561057e578160200160208202803683370190505b5090505f5b85518110156105ef5787818151811061059e5761059e611e40565b60200260200101518682815181106105b8576105b8611e40565b60200260200101516105ca9190611e68565b8282815181106105dc576105dc611e40565b6020908102919091010152600101610583565b505f6105fc8b8388610c07565b15935086925050505b9850989650505050505050565b6001600160a01b0382165f9081526001602090815260408083208151808301909252546001600160401b038082168352600160401b909104169181019190915261065e85858584610c78565b5095945050505050565b8061067281610f04565b825f7f00000000000000000000000000000000000000000000000000000000000000006001600160a01b031663e9ddeb26836040518263ffffffff1660e01b81526004016106c09190611be1565b606060405180830381865afa1580156106db573d5f5f3e3d5ffd5b505050506040513d601f19601f820116820180604052508101906106ff9190611e7b565b60200151905061070f8282610f30565b6107198585610faa565b5050505050565b60605f805461072e90611eec565b80601f016020809104026020016040519081016040528092919081815260200182805461075a90611eec565b80156107a55780601f1061077c576101008083540402835291602001916107a5565b820191905f5260205f20905b81548152906001019060200180831161078857829003601f168201915b5050505050905090565b806107b981610f04565b825f7f00000000000000000000000000000000000000000000000000000000000000006001600160a01b031663e9ddeb26836040518263ffffffff1660e01b81526004016108079190611be1565b606060405180830381865afa158015610822573d5f5f3e3d5ffd5b505050506040513d601f19601f820116820180604052508101906108469190611e7b565b6020015190506108568282610f30565b6107198585611033565b5f7f0000000000000000000000000000000000000000000000000000000000000000826040516020016108a79291909182526001600160e01b031916602082015260240190565b604051602081830303815290604052805190602001209050919050565b7f000000000000000000000000000000000000000000000000000000000000000090565b905090565b5f60608188600481111561090357610903611e2c565b0361091357506001905084610605565b5f84516001600160401b0381111561092d5761092d6114b9565b604051908082528060200260200182016040528015610956578160200160208202803683370190505b5090505f5b85518110156109c75788818151811061097657610976611e40565b602002602001015186828151811061099057610990611e40565b60200260200101516109a29190611f1e565b8282815181106109b4576109b4611e40565b602090810291909101015260010161095b565b505f6109d48b8388610c07565b159c979b50969950505050505050505050565b5f5f60016109f6868686610a6a565b91509150935093915050565b5f610a0b6108c4565b6001600160a01b031663aaabadc56040518163ffffffff1660e01b8152600401602060405180830381865afa158015610a46573d5f5f3e3d5ffd5b505050506040513d601f19601f820116820180604052508101906108e89190611f31565b6001600160a01b0382165f9081526001602090815260408083208151808301909252546001600160401b038082168352600160401b90910416918101919091528180610ab887878786610c78565b915091508115610b2f578251610b1e90610aff906001600160401b0316670de0b6b3a76400008181039110028551610af9906001600160401b031685611f1e565b906110a4565b8685602001516001600160401b0316610b189190611f1e565b906110cc565b610b289086611e68565b9350610b33565b8493505b5050509392505050565b5f61050b8484846110ec565b336001600160a01b037f00000000000000000000000000000000000000000000000000000000000000001614610b9d573360405163089676d560e01b8152600401610b949190611be1565b60405180910390fd5b565b5f610ba8610b49565b610bd2847f0000000000000000000000000000000000000000000000000000000000000000610faa565b610bfc847f0000000000000000000000000000000000000000000000000000000000000000611033565b506001949350505050565b6001600160a01b0383165f9081526001602090815260408083208151808301909252546001600160401b038082168352600160401b909104169181019190915281610c5185611119565b90505f610c5d85611119565b9050610c6d835f015183836110ec565b979650505050505050565b5f5f8383602001516001600160401b03161015610c9957505f905080610efb565b604051633964c0c360e11b81525f906001600160a01b038716906372c9818690610cc7908a90600401612030565b602060405180830381865afa158015610ce2573d5f5f3e3d5ffd5b505050506040513d601f19601f82011682018060405250810190610d0691906120fc565b90505f610d166040890189612113565b90506001600160401b03811115610d2f57610d2f6114b9565b604051908082528060200260200182016040528015610d58578160200160208202803683370190505b509050610da3610d6b60408a018a612113565b808060200260200160405190810160405280939291908181526020018383602002808284375f920191909152508592506111a5915050565b5f610db160208a018a612158565b6001811115610dc257610dc2611e2c565b03610e2f57876020013581896060013581518110610de257610de2611e40565b60200260200101818151610df69190611e68565b90525080518290829060808b0135908110610e1357610e13611e40565b60200260200101818151610e279190611f1e565b905250610e93565b8181896060013581518110610e4657610e46611e40565b60200260200101818151610e5a9190611e68565b9052508051602089013590829060808b0135908110610e7b57610e7b611e40565b60200260200101818151610e8f9190611f1e565b9052505b5f610eda610ea460408b018b612113565b808060200260200160405190810160405280939291908181526020018383602002808284375f9201919091525061111992505050565b9050610ee582611119565b9350610ef5865f015182866110ec565b94505050505b94509492505050565b670de0b6b3a7640000811115610f2d57604051631f3b85d360e01b815260040160405180910390fd5b50565b6001600160a01b038116610f8157610f5c610f555f356001600160e01b031916610860565b33846111c6565b15155f03610f7d576040516323dada5360e01b815260040160405180910390fd5b5050565b336001600160a01b03821614610f7d576040516323dada5360e01b815260040160405180910390fd5b610fb3816112c0565b6001600160a01b0383165f818152600160205260409081902080546001600160401b0394909416600160401b02600160401b600160801b03199094169390931790925590517fcc7585f1dd40a0def67658a884745a1eca326ed902fe084d36e9e04084212032906110279084815260200190565b60405180910390a25050565b61103c816112c0565b6001600160a01b0383165f8181526001602090815260409182902080546001600160401b0319166001600160401b0395909516949094179093555183815290917f3b64afdb883fd4fa590572fb2db0b4d199d8ffb9703f5d32f4d87d1d468c026c9101611027565b5f806110b8670de0b6b3a764000085612173565b90506110c4838261219e565b949350505050565b5f806110d88385612173565b90506110c4670de0b6b3a76400008261219e565b5f815f036110fb57505f61050e565b828211801561050b5750506001600160401b03909216909111919050565b5f5f611124836112ca565b90505f80805b85518110156111915785818151811061114557611145611e40565b6020026020010151836111589190611e68565b925061117d86828151811061116f5761116f611e40565b602002602001015185611375565b6111879083611e68565b915060010161112a565b5061119c81836110a4565b95945050505050565b815181516111b490829061138b565b6020810260208401602084015e505050565b5f7f00000000000000000000000000000000000000000000000000000000000000006001600160a01b031663aaabadc56040518163ffffffff1660e01b8152600401602060405180830381865afa158015611223573d5f5f3e3d5ffd5b505050506040513d601f19601f820116820180604052508101906112479190611f31565b6040516326f8aa2160e21b8152600481018690526001600160a01b03858116602483015284811660448301529190911690639be2a88490606401602060405180830381865afa15801561129c573d5f5f3e3d5ffd5b505050506040513d601f19601f8201168201806040525081019061050b91906121b1565b5f6104f9826113ab565b5f5f6112d5836113c3565b90505f600282516112e6919061219e565b9050600282516112f691906121cc565b5f0361135257600282828151811061131057611310611e40565b6020026020010151836001846113269190611f1e565b8151811061133657611336611e40565b60200260200101516113489190611e68565b6110c4919061219e565b81818151811061136457611364611e40565b602002602001015192505050919050565b5f8183116113855782820361050e565b50900390565b808214610f7d5760405163aaad13f760e01b815260040160405180910390fd5b5f600160401b82106113bf576113bf6113d8565b5090565b60606113d1826113e56113e9565b5090919050565b6335278d125f526004601cfd5b1190565b60606113d1602084016113fb85611401565b84611418565b5f81516020026114118360200190565b0192915050565b6040838303101561142857505050565b5f611431845190565b905083602081015b848110156114735761145661144c825190565b848663ffffffff16565b1561146b576020919091018051825182528252905b602001611439565b508451815186528152611487858285611418565b610719816020018585611418565b6001600160a01b0381168114610f2d575f5ffd5b80356114b481611495565b919050565b634e487b7160e01b5f52604160045260245ffd5b604051608081016001600160401b03811182821017156114ef576114ef6114b9565b60405290565b604051601f8201601f191681016001600160401b038111828210171561151d5761151d6114b9565b604052919050565b5f6001600160401b0382111561153d5761153d6114b9565b5060051b60200190565b60028110610f2d575f5ffd5b8015158114610f2d575f5ffd5b5f60808284031215611570575f5ffd5b50919050565b5f5f5f5f60e08587031215611589575f5ffd5b843561159481611495565b935060208501356115a481611495565b925060408501356001600160401b038111156115be575f5ffd5b8501601f810187136115ce575f5ffd5b80356115e16115dc82611525565b6114f5565b8082825260208201915060208360071b850101925089831115611602575f5ffd5b6020840193505b82841015611682576080848b031215611620575f5ffd5b6116286114cd565b843561163381611495565b8152602085013561164381611547565b6020820152604085013561165681611495565b6040820152606085013561166981611553565b6060820152825260809390930192602090910190611609565b809550505050506116968660608701611560565b905092959194509250565b5f602082840312156116b1575f5ffd5b81356001600160401b038111156116c6575f5ffd5b8201610180818503121561050e575f5ffd5b5f602082840312156116e8575f5ffd5b813561050e81611495565b5f82601f830112611702575f5ffd5b81356117106115dc82611525565b8082825260208201915060208360051b860101925085831115611731575f5ffd5b602085015b8381101561065e578035835260209283019201611736565b5f82601f83011261175d575f5ffd5b81356001600160401b03811115611776576117766114b9565b611789601f8201601f19166020016114f5565b81815284602083860101111561179d575f5ffd5b816020850160208301375f918101602001919091529392505050565b5f5f604083850312156117ca575f5ffd5b82356001600160401b038111156117df575f5ffd5b6117eb858286016116f3565b92505060208301356001600160401b03811115611806575f5ffd5b6118128582860161174e565b9150509250929050565b5f60e08284031215611570575f5ffd5b5f5f5f6060848603121561183e575f5ffd5b83356001600160401b03811115611853575f5ffd5b61185f8682870161181c565b935050602084013561187081611495565b929592945050506040919091013590565b8035600481106114b4575f5ffd5b5f5f5f5f5f5f5f5f610100898b0312156118a7575f5ffd5b6118b0896114a9565b97506118be60208a016114a9565b96506118cc60408a01611881565b95506060890135945060808901356001600160401b038111156118ed575f5ffd5b6118f98b828c016116f3565b94505060a08901356001600160401b03811115611914575f5ffd5b6119208b828c016116f3565b93505060c08901356001600160401b0381111561193b575f5ffd5b6119478b828c016116f3565b92505060e08901356001600160401b03811115611962575f5ffd5b61196e8b828c0161174e565b9150509295985092959890939650565b5f604082018415158352604060208401528084518083526060850191506020860192505f5b818110156119c15783518352602093840193909201916001016119a3565b50909695505050505050565b5f5f5f606084860312156119df575f5ffd5b83356001600160401b038111156119f4575f5ffd5b611a00868287016116f3565b9350506020840135915060408401356001600160401b03811115611a22575f5ffd5b611a2e8682870161174e565b9150509250925092565b8035600581106114b4575f5ffd5b5f5f5f5f5f5f5f60e0888a031215611a5c575f5ffd5b8735611a6781611495565b9650611a75602089016114a9565b9550611a8360408901611a38565b945060608801356001600160401b03811115611a9d575f5ffd5b611aa98a828b016116f3565b9450506080880135925060a08801356001600160401b03811115611acb575f5ffd5b611ad78a828b016116f3565b92505060c08801356001600160401b03811115611af2575f5ffd5b611afe8a828b0161174e565b91505092959891949750929550565b5f5f60408385031215611b1e575f5ffd5b8235611b2981611495565b946020939093013593505050565b5f5f60408385031215611b48575f5ffd5b82356001600160401b03811115611b5d575f5ffd5b611b698582860161181c565b9250506020830135611b7a81611495565b809150509250929050565b602081525f82518060208401528060208501604085015e5f604082850101526040601f19601f83011684010191505092915050565b5f60208284031215611bca575f5ffd5b81356001600160e01b03198116811461050e575f5ffd5b6001600160a01b0391909116815260200190565b5f5f5f5f5f5f5f5f610100898b031215611c0d575f5ffd5b611c16896114a9565b9750611c2460208a016114a9565b9650611c3260408a01611a38565b955060608901356001600160401b03811115611c4c575f5ffd5b611c588b828c016116f3565b95505060808901356001600160401b03811115611c73575f5ffd5b611c7f8b828c016116f3565b94505060a0890135925060c08901356001600160401b0381111561193b575f5ffd5b5f5f5f5f5f5f5f60e0888a031215611cb7575f5ffd5b8735611cc281611495565b9650611cd0602089016114a9565b9550611cde60408901611881565b94506060880135935060808801356001600160401b03811115611cff575f5ffd5b611d0b8a828b016116f3565b93505060a08801356001600160401b03811115611acb575f5ffd5b81511515815261014081016020830151611d44602084018215159052565b506040830151611d58604084018215159052565b506060830151611d6c606084018215159052565b506080830151611d80608084018215159052565b5060a0830151611d9460a084018215159052565b5060c0830151611da860c084018215159052565b5060e0830151611dbc60e084018215159052565b50610100830151611dd261010084018215159052565b50610120830151611de861012084018215159052565b5092915050565b5f5f5f60608486031215611e01575f5ffd5b83356001600160401b0381168114611e17575f5ffd5b95602085013595506040909401359392505050565b634e487b7160e01b5f52602160045260245ffd5b634e487b7160e01b5f52603260045260245ffd5b634e487b7160e01b5f52601160045260245ffd5b808201808211156104f9576104f9611e54565b5f6060828403128015611e8c575f5ffd5b50604051606081016001600160401b0381118282101715611eaf57611eaf6114b9565b6040528251611ebd81611495565b81526020830151611ecd81611495565b60208201526040830151611ee081611495565b60408201529392505050565b600181811c90821680611f0057607f821691505b60208210810361157057634e487b7160e01b5f52602260045260245ffd5b818103818111156104f9576104f9611e54565b5f60208284031215611f41575f5ffd5b815161050e81611495565b5f5f8335601e19843603018112611f61575f5ffd5b83016020810192503590506001600160401b03811115611f7f575f5ffd5b8060051b3603821315611f90575f5ffd5b9250929050565b8183525f6001600160fb1b03831115611fae575f5ffd5b8260051b80836020870137939093016020019392505050565b5f5f8335601e19843603018112611fdc575f5ffd5b83016020810192503590506001600160401b03811115611ffa575f5ffd5b803603821315611f90575f5ffd5b81835281816020850137505f828201602090810191909152601f909101601f19169091010190565b602081525f823561204081611547565b6002811061205c57634e487b7160e01b5f52602160045260245ffd5b806020840152505f602084013590508060408401525061207f6040840184611f4c565b60e0606085015261209561010085018284611f97565b606086013560808681019190915286013560a0808701919091529092506120be915085016114a9565b6001600160a01b03811660c0850152506120db60c0850185611fc7565b848303601f190160e08601526120f2838284612008565b9695505050505050565b5f6020828403121561210c575f5ffd5b5051919050565b5f5f8335601e19843603018112612128575f5ffd5b8301803591506001600160401b03821115612141575f5ffd5b6020019150600581901b3603821315611f90575f5ffd5b5f60208284031215612168575f5ffd5b813561050e81611547565b80820281158282048414176104f9576104f9611e54565b634e487b7160e01b5f52601260045260245ffd5b5f826121ac576121ac61218a565b500490565b5f602082840312156121c1575f5ffd5b815161050e81611553565b5f826121da576121da61218a565b50069056fea2646970667358221220452282dc9a2743788de0b54f0fcfdd6c3c09996142c65b34554cb83e8e5e09aa64736f6c634300081e0033","linkReferences":{}},"methodIdentifiers":{"computeSwapSurgeFeePercentage((uint8,uint256,uint256[],uint256,uint256,address,bytes),address,uint256)":"c88511a2","getActionId(bytes4)":"851c1bb3","getAuthorizer()":"aaabadc5","getDefaultMaxSurgeFeePercentage()":"c17ef2cc","getDefaultSurgeThresholdPercentage()":"8bc694ad","getHookFlags()":"d77153a7","getMaxSurgeFeePercentage(address)":"1a4a64be","getSurgeFeeData(address)":"ee488f26","getSurgeFeePercentage((uint8,uint256,uint256[],uint256,uint256,address,bytes),address,uint256)":"249d6761","getSurgeThresholdPercentage(address)":"e2381602","getVault()":"8d928af8","isSurging(uint64,uint256,uint256)":"f32fdc7c","isSurgingSwap((uint8,uint256,uint256[],uint256,uint256,address,bytes),address,uint256)":"3a61bdea","onAfterAddLiquidity(address,address,uint8,uint256[],uint256[],uint256,uint256[],bytes)":"976907cc","onAfterInitialize(uint256[],uint256,bytes)":"38be241d","onAfterRemoveLiquidity(address,address,uint8,uint256,uint256[],uint256[],uint256[],bytes)":"2754888d","onAfterSwap((uint8,address,address,uint256,uint256,uint256,uint256,uint256,uint256,address,address,bytes))":"18b6eb55","onBeforeAddLiquidity(address,address,uint8,uint256[],uint256,uint256[],bytes)":"45421ec7","onBeforeInitialize(uint256[],bytes)":"1c149e28","onBeforeRemoveLiquidity(address,address,uint8,uint256,uint256[],uint256[],bytes)":"ba5f9f40","onBeforeSwap((uint8,uint256,uint256[],uint256,uint256,address,bytes),address)":"5211fa77","onComputeDynamicSwapFeePercentage((uint8,uint256,uint256[],uint256,uint256,address,bytes),address,uint256)":"a0e8f5ac","onRegister(address,address,(address,uint8,address,bool)[],(bool,bool,bool,bool))":"0b89f182","setMaxSurgeFeePercentage(address,uint256)":"4e493cfd","setSurgeThresholdPercentage(address,uint256)":"59f00466","version()":"54fd4d50"},"id":145}