{"abi":[{"type":"function","name":"log","inputs":[{"name":"logMsg1","type":"string","internalType":"string"},{"name":"addr1","type":"address","internalType":"address"},{"name":"logMsgs2","type":"string","internalType":"string"},{"name":"addr2","type":"address","internalType":"address"},{"name":"logMsgs3","type":"string","internalType":"string"},{"name":"num","type":"uint256","internalType":"uint256"}],"outputs":[],"stateMutability":"pure"},{"type":"function","name":"log","inputs":[{"name":"logMsg","type":"string","internalType":"string"},{"name":"data","type":"bytes","internalType":"bytes"}],"outputs":[],"stateMutability":"pure"},{"type":"function","name":"log","inputs":[{"name":"logMsg","type":"string","internalType":"string"},{"name":"value","type":"bytes32","internalType":"bytes32"}],"outputs":[],"stateMutability":"pure"},{"type":"function","name":"log","inputs":[{"name":"logMsg","type":"string","internalType":"string"},{"name":"values","type":"bytes4[]","internalType":"bytes4[]"}],"outputs":[],"stateMutability":"pure"},{"type":"function","name":"log","inputs":[{"name":"logMsg1","type":"string","internalType":"string"},{"name":"addr1","type":"address","internalType":"address"},{"name":"logMsgs2","type":"string","internalType":"string"},{"name":"addr2","type":"address","internalType":"address"},{"name":"logMsgs3","type":"string","internalType":"string"},{"name":"num","type":"uint256","internalType":"uint256"},{"name":"logMsg4","type":"string","internalType":"string"},{"name":"addr3","type":"address","internalType":"address"}],"outputs":[],"stateMutability":"pure"},{"type":"function","name":"logBehaviorCompare","inputs":[{"name":"behaviorName","type":"string","internalType":"string"},{"name":"functionName","type":"string","internalType":"string"},{"name":"compareType","type":"string","internalType":"string"},{"name":"expected","type":"address","internalType":"address"},{"name":"actual","type":"address","internalType":"address"}],"outputs":[],"stateMutability":"view"},{"type":"function","name":"logBehaviorCompare","inputs":[{"name":"behaviorName","type":"string","internalType":"string"},{"name":"functionName","type":"string","internalType":"string"},{"name":"compareType","type":"string","internalType":"string"},{"name":"expected","type":"bytes32","internalType":"bytes32"},{"name":"actual","type":"bytes32","internalType":"bytes32"}],"outputs":[],"stateMutability":"pure"},{"type":"function","name":"logBehaviorCompare","inputs":[{"name":"behaviorName","type":"string","internalType":"string"},{"name":"functionName","type":"string","internalType":"string"},{"name":"compareType","type":"string","internalType":"string"},{"name":"expected","type":"string","internalType":"string"},{"name":"actual","type":"string","internalType":"string"}],"outputs":[],"stateMutability":"pure"},{"type":"function","name":"logBehaviorEntry","inputs":[{"name":"behaviorName","type":"string","internalType":"string"},{"name":"functionName","type":"string","internalType":"string"}],"outputs":[],"stateMutability":"pure"},{"type":"function","name":"logBehaviorError","inputs":[{"name":"behaviorName","type":"string","internalType":"string"},{"name":"functionName","type":"string","internalType":"string"},{"name":"errorPrefix","type":"string","internalType":"string"},{"name":"errorSuffix","type":"string","internalType":"string"}],"outputs":[],"stateMutability":"pure"},{"type":"function","name":"logBehaviorExit","inputs":[{"name":"behaviorName","type":"string","internalType":"string"},{"name":"functionName","type":"string","internalType":"string"}],"outputs":[],"stateMutability":"pure"},{"type":"function","name":"logBehaviorExpectation","inputs":[{"name":"behaviorName","type":"string","internalType":"string"},{"name":"functionName","type":"string","internalType":"string"},{"name":"expectationType","type":"string","internalType":"string"},{"name":"expectedValue","type":"string","internalType":"string"}],"outputs":[],"stateMutability":"pure"},{"type":"function","name":"logBehaviorProcessing","inputs":[{"name":"behaviorName","type":"string","internalType":"string"},{"name":"functionName","type":"string","internalType":"string"},{"name":"processType","type":"string","internalType":"string"},{"name":"processValue","type":"string","internalType":"string"}],"outputs":[],"stateMutability":"pure"},{"type":"function","name":"logBehaviorValidation","inputs":[{"name":"behaviorName","type":"string","internalType":"string"},{"name":"functionName","type":"string","internalType":"string"},{"name":"validationType","type":"string","internalType":"string"},{"name":"isValid","type":"bool","internalType":"bool"}],"outputs":[],"stateMutability":"pure"},{"type":"function","name":"logCompare","inputs":[{"name":"subjectLabel","type":"string","internalType":"string"},{"name":"logBody","type":"string","internalType":"string"},{"name":"expected","type":"bytes32","internalType":"bytes32"},{"name":"actual","type":"bytes32","internalType":"bytes32"}],"outputs":[],"stateMutability":"pure"},{"type":"function","name":"logCompare","inputs":[{"name":"subjectLabel","type":"string","internalType":"string"},{"name":"logBody","type":"string","internalType":"string"},{"name":"expected","type":"address","internalType":"address"},{"name":"actual","type":"address","internalType":"address"}],"outputs":[],"stateMutability":"view"},{"type":"function","name":"logCompare","inputs":[{"name":"subjectLabel","type":"string","internalType":"string"},{"name":"logBody","type":"string","internalType":"string"},{"name":"expectedLog","type":"string","internalType":"string"},{"name":"actualLog","type":"string","internalType":"string"}],"outputs":[],"stateMutability":"pure"},{"type":"function","name":"logEntry","inputs":[{"name":"contractName","type":"string","internalType":"string"},{"name":"functionSig","type":"string","internalType":"string"}],"outputs":[],"stateMutability":"pure"},{"type":"function","name":"logExit","inputs":[{"name":"contractName","type":"string","internalType":"string"},{"name":"functionSig","type":"string","internalType":"string"}],"outputs":[],"stateMutability":"pure"},{"type":"function","name":"logFuncMsg","inputs":[{"name":"contractName","type":"string","internalType":"string"},{"name":"functionSig","type":"string","internalType":"string"},{"name":"logMsg","type":"string","internalType":"string"}],"outputs":[],"stateMutability":"pure"}],"bytecode":{"object":"0x611edf610034600b8282823980515f1a607314602857634e487b7160e01b5f525f60045260245ffd5b305f52607381538281f3fe7300000000000000000000000000000000000000003014608060405260043610610105575f3560e01c8063073eeb7a1461010957806322810bf41461011e57806323cdd8e8146101315780633692d61a14610144578063528843bd1461015757806355444d401461016a5780635777d9bd1461017d57806363cbdce514610190578063738d4cc9146101a35780637965c501146101b6578063967677df146101c95780639ac1238d146101dc578063a1643a0e146101ef578063b6487c3f14610202578063b930909414610215578063ce9f606914610228578063d83578f81461023b578063ddd6cd861461024e578063e3feae8714610261578063eaba1a2214610274575b5f5ffd5b61011c6101173660046110b5565b610287565b005b61011c61012c366004611133565b6102c3565b61011c61013f3660046111e9565b610327565b61011c610152366004611255565b61037b565b61011c6101653660046110b5565b6103ad565b61011c610178366004611296565b6103e4565b61011c61018b366004611338565b61044c565b61011c61019e366004611422565b610500565b61011c6101b13660046110b5565b610554565b61011c6101c43660046110b5565b61056a565b61011c6101d73660046114ce565b610580565b61011c6101ea366004611583565b61059a565b61011c6101fd36600461161f565b6105e7565b61011c6102103660046116aa565b610604565b61011c61022336600461171c565b61061b565b61011c6102363660046114ce565b61077c565b61011c61024936600461179f565b610796565b61011c61025c3660046114ce565b6108e0565b61011c61026f36600461188e565b610971565b61011c6102823660046114ce565b6109be565b6102bf8282604051806040016040528060158152602001741d1d1022b73a32b934b73390333ab731ba34b7b71760591b8152506105e7565b5050565b61031f866102d9876001600160a01b03166109d8565b866102ec876001600160a01b03166109d8565b866102f6876109f4565b60405160200161030b96959493929190611983565b604051602081830303815290604052610af8565b505050505050565b61033082610b3e565b610351604051806080016040528060508152602001611e5a60509139610b3e565b61035a81610b47565b6102bf604051806080016040528060508152602001611e5a60509139610b3e565b6102bf8261038883610b8a565b6040516020016103999291906119c7565b604051602081830303815290604052610b3e565b6102bf8282604051806040016040528060148152602001731d1d1022bc34ba34b73390333ab731ba34b7b71760611b8152506105e7565b6104468484848461041457604051806040016040528060078152602001661a5b9d985b1a5960ca1b815250610433565b604051806040016040528060058152602001641d985b1a5960da1b8152505b60405160200161039994939291906119d5565b50505050565b61045582610b3e565b6104886040518060400160405280601081526020016f03b30b63ab2b9903632b733ba34101e960851b8152508251610d11565b6104a9604051806080016040528060508152602001611e5a60509139610b3e565b5f5b81518110156104de576104d68282815181106104c9576104c9611a30565b6020026020010151610d1b565b6001016104ab565b506102bf604051806080016040528060508152602001611e5a60509139610b3e565b61051885858560405160200161039993929190611a44565b61054d858560405160200161052e929190611a8f565b60408051601f19818403018152602083019091525f825290848461061b565b5050505050565b6102bf8282604051602001610399929190611ab7565b6102bf8282604051602001610399929190611afc565b610446848484846040516020016103999493929190611b42565b6105b285858560405160200161039993929190611a44565b61054d85856040516020016105c8929190611a8f565b60408051601f19818403018152602083019091525f8252908484610604565b6105ff83838360405160200161039993929190611b9a565b505050565b610446848461061285610d64565b61025c85610d64565b60405163028a249b60e41b81526104469085908590737109709ecfa91a80626ff3989d68f67f5b1dd12d906328a249b09061065a908890600401611bd1565b5f60405180830381865afa158015610674573d5f5f3e3d5ffd5b505050506040513d5f823e601f3d908101601f1916820160405261069b9190810190611be5565b6106ad866001600160a01b03166109d8565b6040516020016106be929190611c59565b60408051601f198184030181529082905263028a249b60e41b825290737109709ecfa91a80626ff3989d68f67f5b1dd12d906328a249b090610704908890600401611bd1565b5f60405180830381865afa15801561071e573d5f5f3e3d5ffd5b505050506040513d5f823e601f3d908101601f191682016040526107459190810190611be5565b610757866001600160a01b03166109d8565b604051602001610768929190611c59565b6040516020818303038152906040526108e0565b610446848484846040516020016103999493929190611c7b565b876107a9886001600160a01b03166109d8565b6040516020016107ba9291906119c7565b604051602081830303815290604052975087866040516020016107de9291906119c7565b604051602081830303815290604052975087610802866001600160a01b03166109d8565b6040516020016108139291906119c7565b604051602081830303815290604052975087846040516020016108379291906119c7565b604051602081830303815290604052975087610852846109f4565b6040516020016108639291906119c7565b604051602081830303815290604052975087826040516020016108879291906119c7565b6040516020818303038152906040529750876108ab826001600160a01b03166109d8565b6040516020016108bc9291906119c7565b60405160208183030381529060405297506108d688610af8565b5050505050505050565b61090b60405180604001604052806009815260200168039bab13532b1ba1d160bd1b81525085610db6565b82511561091b5761091b83610af8565b6109476040518060400160405280600a815260200169032bc3832b1ba32b21d160b51b81525083610db6565b61044660405180604001604052806008815260200167030b1ba3ab0b61d160c51b81525082610db6565b61098985858560405160200161039993929190611a44565b61054d858560405160200161099f929190611a8f565b60408051601f19818403018152602083019091525f82529084846108e0565b610446848484846040516020016103999493929190611cd8565b60606109ee6001600160a01b0383166014610dfb565b92915050565b6060815f03610a1a5750506040805180820190915260018152600360fc1b602082015290565b815f5b8115610a435780610a2d81611d45565b9150610a3c9050600a83611d71565b9150610a1d565b5f816001600160401b03811115610a5c57610a5c610ff2565b6040519080825280601f01601f191660200182016040528015610a86576020820181803683370190505b5090505b8415610af057610a9b600183611d84565b9150610aa8600a86611d97565b610ab3906030611daa565b60f81b818381518110610ac857610ac8611a30565b60200101906001600160f81b03191690815f1a905350610ae9600a86611d71565b9450610a8a565b949350505050565b610b3b81604051602401610b0c9190611deb565b60408051601f198184030181529190526020810180516001600160e01b031663104c13eb60e21b179052610f85565b50565b610b3b81610af8565b610b3b81604051602401610b5b9190611deb565b60408051601f198184030181529190526020810180516001600160e01b03166305f3bfab60e11b179052610f85565b604080516042808252608082019092526060915f9190602082018180368337019050509050600360fc1b815f81518110610bc657610bc6611a30565b60200101906001600160f81b03191690815f1a905350600f60fb1b81600181518110610bf457610bf4611a30565b60200101906001600160f81b03191690815f1a9053505f5b6020811015610d0a575f848260208110610c2857610c28611a30565b1a90506f181899199a1a9b1b9c1cb0b131b232b360811b600482901c60ff1660108110610c5757610c57611a30565b1a60f81b83610c67846002611dfd565b610c72906002611daa565b81518110610c8257610c82611a30565b60200101906001600160f81b03191690815f1a9053506f181899199a1a9b1b9c1cb0b131b232b360811b600f821660108110610cc057610cc0611a30565b1a60f81b83610cd0846002611dfd565b610cdb906003611daa565b81518110610ceb57610ceb611a30565b60200101906001600160f81b03191690815f1a90535050600101610c0c565b5092915050565b6102bf8282610f8e565b6040516001600160e01b031982166024820152610b3b9060440160408051601f198184030181529190526020810180516001600160e01b031663e05f48d160e01b179052610f85565b6060815f03610d8d5750506040805180820190915260048152630307830360e41b602082015290565b5f825b8015610da45760019091019060081c610d90565b50610daf8382610dfb565b9392505050565b6102bf8282604051602401610dcc929190611e14565b60408051601f198184030181529190526020810180516001600160e01b0316634b5c427760e01b179052610f85565b60605f610e09836002611dfd565b610e14906002611daa565b6001600160401b03811115610e2b57610e2b610ff2565b6040519080825280601f01601f191660200182016040528015610e55576020820181803683370190505b509050600360fc1b815f81518110610e6f57610e6f611a30565b60200101906001600160f81b03191690815f1a905350600f60fb1b81600181518110610e9d57610e9d611a30565b60200101906001600160f81b03191690815f1a905350600160028402015b6001811115610f27576f181899199a1a9b1b9c1cb0b131b232b360811b85600f1660108110610eec57610eec611a30565b1a60f81b828281518110610f0257610f02611a30565b60200101906001600160f81b03191690815f1a90535060049490941c935f1901610ebb565b508315610daf5760405162461bcd60e51b815260206004820152602260248201527f55696e745574696c733a20686578206c656e67746820696e73756666696369656044820152611b9d60f21b606482015260840160405180910390fd5b610b3b81610fd3565b6102bf8282604051602401610fa4929190611e38565b60408051601f198184030181529190526020810180516001600160e01b0316632d839cb360e21b179052610f85565b5f6a636f6e736f6c652e6c6f6790505f5f835160208501845afa505050565b634e487b7160e01b5f52604160045260245ffd5b604051601f8201601f191681016001600160401b038111828210171561102e5761102e610ff2565b604052919050565b5f6001600160401b0382111561104e5761104e610ff2565b50601f01601f191660200190565b5f61106e61106984611036565b611006565b9050828152838383011115611081575f5ffd5b828260208301375f602084830101529392505050565b5f82601f8301126110a6575f5ffd5b610daf8383356020850161105c565b5f5f604083850312156110c6575f5ffd5b82356001600160401b038111156110db575f5ffd5b6110e785828601611097565b92505060208301356001600160401b03811115611102575f5ffd5b61110e85828601611097565b9150509250929050565b80356001600160a01b038116811461112e575f5ffd5b919050565b5f5f5f5f5f5f60c08789031215611148575f5ffd5b86356001600160401b0381111561115d575f5ffd5b61116989828a01611097565b96505061117860208801611118565b945060408701356001600160401b03811115611192575f5ffd5b61119e89828a01611097565b9450506111ad60608801611118565b925060808701356001600160401b038111156111c7575f5ffd5b6111d389828a01611097565b9699959850939692959460a09093013593505050565b5f5f604083850312156111fa575f5ffd5b82356001600160401b0381111561120f575f5ffd5b61121b85828601611097565b92505060208301356001600160401b03811115611236575f5ffd5b8301601f81018513611246575f5ffd5b61110e8582356020840161105c565b5f5f60408385031215611266575f5ffd5b82356001600160401b0381111561127b575f5ffd5b61128785828601611097565b95602094909401359450505050565b5f5f5f5f608085870312156112a9575f5ffd5b84356001600160401b038111156112be575f5ffd5b6112ca87828801611097565b94505060208501356001600160401b038111156112e5575f5ffd5b6112f187828801611097565b93505060408501356001600160401b0381111561130c575f5ffd5b61131887828801611097565b9250506060850135801515811461132d575f5ffd5b939692955090935050565b5f5f60408385031215611349575f5ffd5b82356001600160401b0381111561135e575f5ffd5b61136a85828601611097565b92505060208301356001600160401b03811115611385575f5ffd5b8301601f81018513611395575f5ffd5b80356001600160401b038111156113ae576113ae610ff2565b8060051b6113be60208201611006565b918252602081840181019290810190888411156113d9575f5ffd5b6020850194505b8385101561141357843592506001600160e01b031983168314611401575f5ffd5b828252602094850194909101906113e0565b80955050505050509250929050565b5f5f5f5f5f60a08688031215611436575f5ffd5b85356001600160401b0381111561144b575f5ffd5b61145788828901611097565b95505060208601356001600160401b03811115611472575f5ffd5b61147e88828901611097565b94505060408601356001600160401b03811115611499575f5ffd5b6114a588828901611097565b9350506114b460608701611118565b91506114c260808701611118565b90509295509295909350565b5f5f5f5f608085870312156114e1575f5ffd5b84356001600160401b038111156114f6575f5ffd5b61150287828801611097565b94505060208501356001600160401b0381111561151d575f5ffd5b61152987828801611097565b93505060408501356001600160401b03811115611544575f5ffd5b61155087828801611097565b92505060608501356001600160401b0381111561156b575f5ffd5b61157787828801611097565b91505092959194509250565b5f5f5f5f5f60a08688031215611597575f5ffd5b85356001600160401b038111156115ac575f5ffd5b6115b888828901611097565b95505060208601356001600160401b038111156115d3575f5ffd5b6115df88828901611097565b94505060408601356001600160401b038111156115fa575f5ffd5b61160688828901611097565b9598949750949560608101359550608001359392505050565b5f5f5f60608486031215611631575f5ffd5b83356001600160401b03811115611646575f5ffd5b61165286828701611097565b93505060208401356001600160401b0381111561166d575f5ffd5b61167986828701611097565b92505060408401356001600160401b03811115611694575f5ffd5b6116a086828701611097565b9150509250925092565b5f5f5f5f608085870312156116bd575f5ffd5b84356001600160401b038111156116d2575f5ffd5b6116de87828801611097565b94505060208501356001600160401b038111156116f9575f5ffd5b61170587828801611097565b949794965050505060408301359260600135919050565b5f5f5f5f6080858703121561172f575f5ffd5b84356001600160401b03811115611744575f5ffd5b61175087828801611097565b94505060208501356001600160401b0381111561176b575f5ffd5b61177787828801611097565b93505061178660408601611118565b915061179460608601611118565b905092959194509250565b5f5f5f5f5f5f5f5f610100898b0312156117b7575f5ffd5b88356001600160401b038111156117cc575f5ffd5b6117d88b828c01611097565b9850506117e760208a01611118565b965060408901356001600160401b03811115611801575f5ffd5b61180d8b828c01611097565b96505061181c60608a01611118565b945060808901356001600160401b03811115611836575f5ffd5b6118428b828c01611097565b94505060a0890135925060c08901356001600160401b03811115611864575f5ffd5b6118708b828c01611097565b92505061187f60e08a01611118565b90509295985092959890939650565b5f5f5f5f5f60a086880312156118a2575f5ffd5b85356001600160401b038111156118b7575f5ffd5b6118c388828901611097565b95505060208601356001600160401b038111156118de575f5ffd5b6118ea88828901611097565b94505060408601356001600160401b03811115611905575f5ffd5b61191188828901611097565b93505060608601356001600160401b0381111561192c575f5ffd5b61193888828901611097565b92505060808601356001600160401b03811115611953575f5ffd5b61195f88828901611097565b9150509295509295909350565b5f81518060208401855e5f93019283525090919050565b5f6119bb6119b56119af6119a96119a361199d878e61196c565b8c61196c565b8a61196c565b8861196c565b8661196c565b8461196c565b98975050505050505050565b5f610af06119b5838661196c565b5f6119e0828761196c565b601d60f91b81526119f4600182018761196c565b90506201d1d160ed1b8152611a0c600382018661196c565b90506301034b9960e51b8152611a25600482018561196c565b979650505050505050565b634e487b7160e01b5f52603260045260245ffd5b5f611a4f828661196c565b601d60f91b8152611a63600182018661196c565b90506c01d1d1021b7b6b830b934b7339609d1b8152611a85600d82018561196c565b9695505050505050565b5f611a9a828561196c565b601d60f91b8152611aae600182018561196c565b95945050505050565b5f611ac2828561196c565b601d60f91b8152611ad6600182018561196c565b731d1d1022bc34ba34b73390333ab731ba34b7b71760611b815260140195945050505050565b5f611b07828561196c565b601d60f91b8152611b1b600182018561196c565b741d1d1022b73a32b934b73390333ab731ba34b7b71760591b815260150195945050505050565b5f611b4d828761196c565b601d60f91b8152611b61600182018761196c565b90506201d1d160ed1b8152611b79600382018661196c565b90506b0102aa722ac2822a1aa22a2160a51b8152611a25600c82018561196c565b5f611ba5828661196c565b601d60f91b8152611bb9600182018661196c565b90506201d1d160ed1b8152611a85600382018561196c565b6001600160a01b0391909116815260200190565b5f60208284031215611bf5575f5ffd5b81516001600160401b03811115611c0a575f5ffd5b8201601f81018413611c1a575f5ffd5b8051611c2861106982611036565b818152856020838501011115611c3c575f5ffd5b8160208401602083015e5f91810160200191909152949350505050565b5f611c64828561196c565b630101d1d160e51b8152611aae600482018561196c565b5f611c86828761196c565b601d60f91b8152611c9a600182018761196c565b90506c01d1d1022bc3832b1ba34b7339609d1b8152611cbc600d82018661196c565b9050660103a37903132960cd1b8152611a25600782018561196c565b5f611ce3828761196c565b601d60f91b8152611cf7600182018761196c565b90506d01d1d10283937b1b2b9b9b4b733960951b8152611d1a600e82018661196c565b90506101d160f51b8152611a25600282018561196c565b634e487b7160e01b5f52601160045260245ffd5b5f60018201611d5657611d56611d31565b5060010190565b634e487b7160e01b5f52601260045260245ffd5b5f82611d7f57611d7f611d5d565b500490565b818103818111156109ee576109ee611d31565b5f82611da557611da5611d5d565b500690565b808201808211156109ee576109ee611d31565b5f81518084528060208401602086015e5f602082860101526020601f19601f83011685010191505092915050565b602081525f610daf6020830184611dbd565b80820281158282048414176109ee576109ee611d31565b604081525f611e266040830185611dbd565b8281036020840152611aae8185611dbd565b604081525f611e4a6040830185611dbd565b9050826020830152939250505056fe2d2d2d2d2d2d2d2d2d2d2d2d2d2d2d2d2d2d2d2d2d2d2d2d2d2d2d2d2d2d2d2d2d2d2d2d2d2d2d2d2d2d2d2d2d2d2d2d2d2d2d2d2d2d2d2d2d2d2d2d2d2d2d2d2d2d2d2d2d2d2d2d2d2d2d2d2d2d2d2da264697066735822122092da9badb10024d2ace8ec8c6cbfb7858bc8b0dcad9cd8a4234d740072ecf09664736f6c634300081e0033","linkReferences":{}},"methodIdentifiers":{"log(string,address,string,address,string,uint256)":"22810bf4","log(string,address,string,address,string,uint256,string,address)":"d83578f8","log(string,bytes)":"23cdd8e8","log(string,bytes32)":"3692d61a","log(string,bytes4[])":"5777d9bd","logBehaviorCompare(string,string,string,address,address)":"63cbdce5","logBehaviorCompare(string,string,string,bytes32,bytes32)":"9ac1238d","logBehaviorCompare(string,string,string,string,string)":"e3feae87","logBehaviorEntry(string,string)":"7965c501","logBehaviorError(string,string,string,string)":"967677df","logBehaviorExit(string,string)":"738d4cc9","logBehaviorExpectation(string,string,string,string)":"ce9f6069","logBehaviorProcessing(string,string,string,string)":"eaba1a22","logBehaviorValidation(string,string,string,bool)":"55444d40","logCompare(string,string,address,address)":"b9309094","logCompare(string,string,bytes32,bytes32)":"b6487c3f","logCompare(string,string,string,string)":"ddd6cd86","logEntry(string,string)":"073eeb7a","logExit(string,string)":"528843bd","logFuncMsg(string,string,string)":"a1643a0e"},"id":1409}