{"abi":[{"type":"function","name":"computeBalance","inputs":[{"name":"amplificationParameter","type":"uint256","internalType":"uint256"},{"name":"balances","type":"uint256[]","internalType":"uint256[]"},{"name":"invariant","type":"uint256","internalType":"uint256"},{"name":"tokenIndex","type":"uint256","internalType":"uint256"}],"outputs":[{"name":"","type":"uint256","internalType":"uint256"}],"stateMutability":"pure"},{"type":"function","name":"computeInGivenExactOut","inputs":[{"name":"amplificationParameter","type":"uint256","internalType":"uint256"},{"name":"balances","type":"uint256[]","internalType":"uint256[]"},{"name":"tokenIndexIn","type":"uint256","internalType":"uint256"},{"name":"tokenIndexOut","type":"uint256","internalType":"uint256"},{"name":"tokenAmountOut","type":"uint256","internalType":"uint256"},{"name":"invariant","type":"uint256","internalType":"uint256"}],"outputs":[{"name":"","type":"uint256","internalType":"uint256"}],"stateMutability":"pure"},{"type":"function","name":"computeInvariant","inputs":[{"name":"amplificationParameter","type":"uint256","internalType":"uint256"},{"name":"balances","type":"uint256[]","internalType":"uint256[]"},{"name":"rounding","type":"uint8","internalType":"enum Rounding"}],"outputs":[{"name":"invariant","type":"uint256","internalType":"uint256"}],"stateMutability":"pure"},{"type":"function","name":"computeOutGivenExactIn","inputs":[{"name":"amplificationParameter","type":"uint256","internalType":"uint256"},{"name":"balances","type":"uint256[]","internalType":"uint256[]"},{"name":"tokenIndexIn","type":"uint256","internalType":"uint256"},{"name":"tokenIndexOut","type":"uint256","internalType":"uint256"},{"name":"tokenAmountIn","type":"uint256","internalType":"uint256"},{"name":"invariant","type":"uint256","internalType":"uint256"}],"outputs":[{"name":"","type":"uint256","internalType":"uint256"}],"stateMutability":"pure"},{"type":"function","name":"ensureBalancesWithinMaxImbalanceRange","inputs":[{"name":"balancesLiveScaled18","type":"uint256[]","internalType":"uint256[]"}],"outputs":[],"stateMutability":"pure"},{"type":"function","name":"mockComputeBalance","inputs":[{"name":"amplificationParameter","type":"uint256","internalType":"uint256"},{"name":"balances","type":"uint256[]","internalType":"uint256[]"},{"name":"invariant","type":"uint256","internalType":"uint256"},{"name":"tokenIndex","type":"uint256","internalType":"uint256"},{"name":"roundingPermutation","type":"bool[3]","internalType":"bool[3]"}],"outputs":[{"name":"","type":"uint256","internalType":"uint256"}],"stateMutability":"pure"},{"type":"function","name":"mockComputeBalance","inputs":[{"name":"amplificationParameter","type":"uint256","internalType":"uint256"},{"name":"balances","type":"uint256[]","internalType":"uint256[]"},{"name":"invariant","type":"uint256","internalType":"uint256"},{"name":"tokenIndex","type":"uint256","internalType":"uint256"}],"outputs":[{"name":"","type":"uint256","internalType":"uint256"}],"stateMutability":"pure"},{"type":"function","name":"mockComputeInGivenExactOut","inputs":[{"name":"amplificationParameter","type":"uint256","internalType":"uint256"},{"name":"balances","type":"uint256[]","internalType":"uint256[]"},{"name":"tokenIndexIn","type":"uint256","internalType":"uint256"},{"name":"tokenIndexOut","type":"uint256","internalType":"uint256"},{"name":"tokenAmountOut","type":"uint256","internalType":"uint256"},{"name":"invariant","type":"uint256","internalType":"uint256"}],"outputs":[{"name":"","type":"uint256","internalType":"uint256"}],"stateMutability":"pure"},{"type":"function","name":"mockComputeInGivenExactOut","inputs":[{"name":"amplificationParameter","type":"uint256","internalType":"uint256"},{"name":"balances","type":"uint256[]","internalType":"uint256[]"},{"name":"tokenIndexIn","type":"uint256","internalType":"uint256"},{"name":"tokenIndexOut","type":"uint256","internalType":"uint256"},{"name":"tokenAmountOut","type":"uint256","internalType":"uint256"},{"name":"invariant","type":"uint256","internalType":"uint256"},{"name":"roundingPermutation","type":"bool[3]","internalType":"bool[3]"}],"outputs":[{"name":"","type":"uint256","internalType":"uint256"}],"stateMutability":"pure"},{"type":"function","name":"mockComputeOutGivenExactIn","inputs":[{"name":"amplificationParameter","type":"uint256","internalType":"uint256"},{"name":"balances","type":"uint256[]","internalType":"uint256[]"},{"name":"tokenIndexIn","type":"uint256","internalType":"uint256"},{"name":"tokenIndexOut","type":"uint256","internalType":"uint256"},{"name":"tokenAmountIn","type":"uint256","internalType":"uint256"},{"name":"invariant","type":"uint256","internalType":"uint256"},{"name":"roundingPermutation","type":"bool[3]","internalType":"bool[3]"}],"outputs":[{"name":"","type":"uint256","internalType":"uint256"}],"stateMutability":"pure"},{"type":"function","name":"mockComputeOutGivenExactIn","inputs":[{"name":"amplificationParameter","type":"uint256","internalType":"uint256"},{"name":"balances","type":"uint256[]","internalType":"uint256[]"},{"name":"tokenIndexIn","type":"uint256","internalType":"uint256"},{"name":"tokenIndexOut","type":"uint256","internalType":"uint256"},{"name":"tokenAmountIn","type":"uint256","internalType":"uint256"},{"name":"invariant","type":"uint256","internalType":"uint256"}],"outputs":[{"name":"","type":"uint256","internalType":"uint256"}],"stateMutability":"pure"},{"type":"error","name":"MaxImbalanceRatioExceeded","inputs":[]},{"type":"error","name":"StableComputeBalanceDidNotConverge","inputs":[]},{"type":"error","name":"StableInvariantDidNotConverge","inputs":[]},{"type":"error","name":"ZeroDivision","inputs":[]}],"bytecode":{"object":"0x6080604052348015600e575f5ffd5b506110978061001c5f395ff3fe608060405234801561000f575f5ffd5b5060043610610097575f3560e01c8063024a19551461009b5780630f20ff64146100c05780632290c7fa146100d35780634ffe19d8146100e657806356767273146100fb57806361f78dfc1461010e5780636ee8ef13146101215780639250813d14610134578063986cc98414610147578063a3b0492a1461015a578063c7a03c711461016d575b5f5ffd5b6100ae6100a9366004610d33565b610180565b60405190815260200160405180910390f35b6100ae6100ce366004610d33565b6101ba565b6100ae6100e1366004610d97565b6101d4565b6100f96100f4366004610df0565b61021c565b005b6100ae610109366004610e98565b61023a565b6100ae61011c366004610efe565b610254565b6100ae61012f366004610d33565b610264565b6100ae610142366004610f77565b610292565b6100ae610155366004610d33565b6102aa565b6100ae610168366004610f77565b6102b9565b6100ae61017b366004610efe565b6102ef565b60408051606081018252600180825260208201819052918101919091525f906101ae888888888888876102fb565b98975050505050505050565b5f6101c987878787878761039f565b979650505050505050565b5f6101df848461042f565b905080156102155760018260018111156101fb576101fb610fc9565b146102105761020b816001610ff1565b610212565b805b90505b9392505050565b5f5f610227836105d9565b915091506102358282610650565b505050565b5f610248868686868661067f565b90505b95945050505050565b5f6101ae888888888888886108d3565b60408051606081018252600180825260208201819052918101919091525f906101ae888888888888876108d3565b5f61029f8585858561096d565b90505b949350505050565b5f6101c9878787878787610b8c565b60408051606081018252600180825260208201819052918101919091525f906102e5868686868561067f565b9695505050505050565b5f6101ae888888888888885b5f8387868151811061030f5761030f611004565b602002602001018181516103239190611018565b9052505f6103348989868a8761067f565b90508488878151811061034957610349611004565b6020026020010181815161035d9190610ff1565b905250875188908890811061037457610374611004565b6020026020010151816103879190611018565b610392906001610ff1565b9998505050505050505050565b5f828686815181106103b3576103b3611004565b602002602001018181516103c79190610ff1565b9052505f6103d78888858861096d565b9050838787815181106103ec576103ec611004565b60200260200101818151039150818152505060018188878151811061041357610413611004565b60200260200101516104259190611018565b6101ae9190611018565b80515f908190815b8181101561046e5784818151811061045157610451611004565b6020026020010151836104649190610ff1565b9250600101610437565b50815f03610480575f925050506105d3565b5f828161048d848961102b565b90505f5b60ff8110156105ba57825f5b868110156104e857868a82815181106104b8576104b8611004565b60200260200101516104ca919061102b565b6104d4868461102b565b6104de9190611042565b915060010161049d565b50839450808660016104fa9190610ff1565b610504919061102b565b6103e8856105128287611018565b61051c919061102b565b6105269190611042565b6105309190610ff1565b8461053b888461102b565b6103e86105488b8861102b565b6105529190611042565b61055c9190610ff1565b610566919061102b565b6105709190611042565b9350848411156105985760018585031161059357839750505050505050506105d3565b6105b1565b6001848603116105b157839750505050505050506105d3565b50600101610491565b506040516208651960e51b815260040160405180910390fd5b92915050565b5f5f825f815181106105ed576105ed611004565b6020908102919091010151835190925082915060015b81811015610649575f85828151811061061e5761061e611004565b6020026020010151905084811015610634578094505b83811115610640578093505b50600101610603565b5050915091565b5f61065b8383611042565b9050612710811061023557604051638a3b7ff160e01b815260040160405180910390fd5b83515f908161068e828961102b565b90505f875f815181106106a3576106a3611004565b602002602001015190505f83895f815181106106c1576106c1611004565b60200260200101516106d3919061102b565b905060015b8481101561074c5788858b83815181106106f4576106f4611004565b602002602001015184610707919061102b565b610711919061102b565b61071b9190611042565b915089818151811061072f5761072f611004565b6020026020010151836107429190610ff1565b92506001016106d8565b5088878151811061075f5761075f611004565b6020026020010151826107729190611018565b91505f61077f898061102b565b90505f8a898151811061079457610794611004565b60200260200101516107c084876107ab919061102b565b8a516107b96103e88761102b565b9190610c1b565b6107ca919061102b565b90505f856107da6103e88d61102b565b6107e49190611042565b6107ee9086610ff1565b90505f8061080e6107ff848f610ff1565b60208d01516107b98789610ff1565b90505f5b60ff8110156108b95781925061085e8e85846002610830919061102b565b61083a9190610ff1565b6108449190611018565b60408e015187610854868061102b565b6107b99190610ff1565b91508282111561088f5760016108748484611018565b1161088a5750985061024b975050505050505050565b6108b1565b600161089b8385611018565b116108b15750985061024b975050505050505050565b600101610812565b5060405163372f681760e21b815260040160405180910390fd5b5f838787815181106108e7576108e7611004565b602002602001018181516108fb9190610ff1565b9052505f61090c898986898761067f565b90508488888151811061092157610921611004565b602002602001018181516109359190611018565b9150818152505060018189888151811061095157610951611004565b60200260200101516109639190611018565b6103929190611018565b82515f908161097c828861102b565b90505f865f8151811061099157610991611004565b602002602001015190505f83885f815181106109af576109af611004565b60200260200101516109c1919061102b565b905060015b84811015610a3a5787858a83815181106109e2576109e2611004565b6020026020010151846109f5919061102b565b6109ff919061102b565b610a099190611042565b9150888181518110610a1d57610a1d611004565b602002602001015183610a309190610ff1565b92506001016109c6565b50878681518110610a4d57610a4d611004565b602002602001015182610a609190611018565b91505f610a6d888061102b565b90505f898881518110610a8257610a82611004565b6020026020010151610aab8487610a99919061102b565b610aa56103e88661102b565b90610c3d565b610ab5919061102b565b90505f85610ac56103e88c61102b565b610acf9190611042565b610ad99086610ff1565b90505f80610af4610aea848e610ff1565b610aa58688610ff1565b90505f5b60ff8110156108b957819250610b3f8d85846002610b16919061102b565b610b209190610ff1565b610b2a9190611018565b86610b35858061102b565b610aa59190610ff1565b915082821115610b6957600183830311610b64575098506102a2975050505050505050565b610b84565b600182840311610b84575098506102a2975050505050505050565b600101610af8565b5f82868581518110610ba057610ba0611004565b60200260200101818151610bb49190611018565b9052505f610bc48888858961096d565b905083878681518110610bd957610bd9611004565b602002602001018181510191508181525050868681518110610bfd57610bfd611004565b602002602001015181610c109190611018565b6101ae906001610ff1565b5f8115610c3357610c2c8484610c3d565b9050610215565b610c2c8484610c6f565b5f815f03610c5e57604051630a0c22c760e01b815260040160405180910390fd5b508115155f19909201046001010290565b5f6102158284611042565b634e487b7160e01b5f52604160045260245ffd5b604051601f8201601f191681016001600160401b0381118282101715610cb657610cb6610c7a565b604052919050565b5f82601f830112610ccd575f5ffd5b81356001600160401b03811115610ce657610ce6610c7a565b8060051b610cf660208201610c8e565b91825260208185018101929081019086841115610d11575f5ffd5b6020860192505b838310156102e5578235825260209283019290910190610d18565b5f5f5f5f5f5f60c08789031215610d48575f5ffd5b8635955060208701356001600160401b03811115610d64575f5ffd5b610d7089828a01610cbe565b96999698505050506040850135946060810135946080820135945060a09091013592509050565b5f5f5f60608486031215610da9575f5ffd5b8335925060208401356001600160401b03811115610dc5575f5ffd5b610dd186828701610cbe565b925050604084013560028110610de5575f5ffd5b809150509250925092565b5f60208284031215610e00575f5ffd5b81356001600160401b03811115610e15575f5ffd5b6102a284828501610cbe565b5f82601f830112610e30575f5ffd5b604051606081016001600160401b0381118282101715610e5257610e52610c7a565b604052806060840185811115610e66575f5ffd5b845b81811015610e8d5780358015158114610e7f575f5ffd5b835260209283019201610e68565b509195945050505050565b5f5f5f5f5f60e08688031215610eac575f5ffd5b8535945060208601356001600160401b03811115610ec8575f5ffd5b610ed488828901610cbe565b9450506040860135925060608601359150610ef28760808801610e21565b90509295509295909350565b5f5f5f5f5f5f5f610120888a031215610f15575f5ffd5b8735965060208801356001600160401b03811115610f31575f5ffd5b610f3d8a828b01610cbe565b96505060408801359450606088013593506080880135925060a08801359150610f698960c08a01610e21565b905092959891949750929550565b5f5f5f5f60808587031215610f8a575f5ffd5b8435935060208501356001600160401b03811115610fa6575f5ffd5b610fb287828801610cbe565b949794965050505060408301359260600135919050565b634e487b7160e01b5f52602160045260245ffd5b634e487b7160e01b5f52601160045260245ffd5b808201808211156105d3576105d3610fdd565b634e487b7160e01b5f52603260045260245ffd5b818103818111156105d3576105d3610fdd565b80820281158282048414176105d3576105d3610fdd565b5f8261105c57634e487b7160e01b5f52601260045260245ffd5b50049056fea2646970667358221220a0181071961341a79fdb85f28e9b3f49447a936ba483ca6b9d593c825eaf4d2364736f6c634300081e0033","linkReferences":{}},"methodIdentifiers":{"computeBalance(uint256,uint256[],uint256,uint256)":"9250813d","computeInGivenExactOut(uint256,uint256[],uint256,uint256,uint256,uint256)":"986cc984","computeInvariant(uint256,uint256[],uint8)":"2290c7fa","computeOutGivenExactIn(uint256,uint256[],uint256,uint256,uint256,uint256)":"0f20ff64","ensureBalancesWithinMaxImbalanceRange(uint256[])":"4ffe19d8","mockComputeBalance(uint256,uint256[],uint256,uint256)":"a3b0492a","mockComputeBalance(uint256,uint256[],uint256,uint256,bool[3])":"56767273","mockComputeInGivenExactOut(uint256,uint256[],uint256,uint256,uint256,uint256)":"024a1955","mockComputeInGivenExactOut(uint256,uint256[],uint256,uint256,uint256,uint256,bool[3])":"c7a03c71","mockComputeOutGivenExactIn(uint256,uint256[],uint256,uint256,uint256,uint256)":"6ee8ef13","mockComputeOutGivenExactIn(uint256,uint256[],uint256,uint256,uint256,uint256,bool[3])":"61f78dfc"},"id":284}