{"abi":[{"type":"function","name":"createRewards","inputs":[{"name":"_forwarder","type":"address","internalType":"address"},{"name":"_voter","type":"address","internalType":"address"}],"outputs":[{"name":"lockedManagedReward","type":"address","internalType":"address"},{"name":"freeManagedReward","type":"address","internalType":"address"}],"stateMutability":"nonpayable"},{"type":"event","name":"ManagedRewardCreated","inputs":[{"name":"voter","type":"address","indexed":true,"internalType":"address"},{"name":"lockedManagedReward","type":"address","indexed":true,"internalType":"address"},{"name":"freeManagedReward","type":"address","indexed":true,"internalType":"address"}],"anonymous":false}],"bytecode":{"object":"0x6080604052348015600e575f5ffd5b5061304b8061001c5f395ff3fe608060405234801561000f575f5ffd5b5060043610610029575f3560e01c8063dabc8e831461002d575b5f5ffd5b61004061003b366004610149565b610057565b60405161004e92919061017a565b60405180910390f35b5f5f838360405161006790610114565b61007292919061017a565b604051809103905ff08015801561008b573d5f5f3e3d5ffd5b509150838360405161009c90610121565b6100a792919061017a565b604051809103905ff0801580156100c0573d5f5f3e3d5ffd5b509050806001600160a01b0316826001600160a01b0316846001600160a01b03167f951f6f2ffc705efc870b0c6023fb94c7edece24c87077884b6d08a5cd44e6aa760405160405180910390a49250929050565b6117198061019583390190565b611768806118ae83390190565b80356001600160a01b0381168114610144575f5ffd5b919050565b5f5f6040838503121561015a575f5ffd5b6101638361012e565b91506101716020840161012e565b90509250929050565b6001600160a01b039283168152911660208201526040019056fe60e060405234801561000f575f5ffd5b5060405161171938038061171983398101604081905261002e91610221565b6001600160a01b03808316608052811660a081905260408051630fc2838b60e11b81529051849284928492849291631f8507169160048083019260209291908290030181865afa158015610084573d5f5f3e3d5ffd5b505050506040513d601f19601f820116820180604052508101906100a89190610252565b6001600160a01b031660c0816001600160a01b03168152505050505f816001600160a01b0316631f8507166040518163ffffffff1660e01b8152600401602060405180830381865afa158015610100573d5f5f3e3d5ffd5b505050506040513d601f19601f820116820180604052508101906101249190610252565b90505f816001600160a01b031663fc0c546a6040518163ffffffff1660e01b8152600401602060405180830381865afa158015610163573d5f5f3e3d5ffd5b505050506040513d601f19601f820116820180604052508101906101879190610252565b6005805460018181019092557f036b6384b5eca791c62761152d0c79bb0604c104a5fb6f4eb0703f3154bb3db00180546001600160a01b039384166001600160a01b031991821681179092555f918252600660205260408220805460ff1916909317909255805494909216931692909217909155506102729350505050565b80516001600160a01b038116811461021c575f5ffd5b919050565b5f5f60408385031215610232575f5ffd5b61023b83610206565b915061024960208401610206565b90509250929050565b5f60208284031215610262575f5ffd5b61026b82610206565b9392505050565b60805160a05160c0516114616102b85f395f81816101550152818161094f015281816109a101528181610b990152610c0d01525f6101b901525f6106e001526114615ff3fe608060405234801561000f575f5ffd5b5060043610610126575f3560e01c806318160ddd1461012a5780631be05289146101465780631f850716146101505780633e491d471461018f578063456cb7c6146101a257806346c96aac146101b457806349dcc204146101db5780634d5ce038146102215780635058979314610253578063572b6c051461027257806376f4be36146102855780637da0a8771461029857806392777b29146102a05780639cc7f708146102ca5780639e2bf22c146102e9578063a28d4c9c146102fe578063b66503cf14610311578063e688639614610324578063e8111a121461032c578063f25e55a514610335578063f301af421461035f578063f320772314610372578063f5f8d36514610385578063f7412baf14610398575b5f5ffd5b61013360015481565b6040519081526020015b60405180910390f35b61013362093a8081565b6101777f000000000000000000000000000000000000000000000000000000000000000081565b6040516001600160a01b03909116815260200161013d565b61013361019d3660046111c7565b6103be565b5f54610177906001600160a01b031681565b6101777f000000000000000000000000000000000000000000000000000000000000000081565b61020c6101e93660046111f1565b600760209081525f92835260408084209091529082529020805460019091015482565b6040805192835260208301919091520161013d565b61024361022f366004611211565b60066020525f908152604090205460ff1681565b604051901515815260200161013d565b61013361026136600461122c565b60086020525f908152604090205481565b610243610280366004611211565b610590565b61013361029336600461122c565b6105b4565b6101776106de565b6101336102ae3660046111c7565b600360209081525f928352604080842090915290825290205481565b6101336102d836600461122c565b60026020525f908152604090205481565b6102fc6102f73660046111f1565b610702565b005b61013361030c3660046111f1565b6107dd565b6102fc61031f3660046111c7565b610918565b600554610133565b610133600a5481565b6101336103433660046111c7565b600460209081525f928352604080842090915290825290205481565b61017761036d36600461122c565b610a6c565b6102fc6103803660046111f1565b610a94565b6102fc610393366004611257565b610b62565b61020c6103a636600461122c565b60096020525f90815260409020805460019091015482565b5f8181526008602052604081205481036103d957505f61058a565b6001600160a01b0383165f90815260046020908152604080832085845290915281205460019062093a80810690038261041286836107dd565b5f8781526007602090815260408083208484528252808320815180830190925280548083526001909101549282019290925262093a80808306909203868118908710029095189492935061046b85428381069003611341565b6104759190611354565b90508015610581575f5b8181101561057f576104a489600161049a62093a8089611373565b61030c9190611341565b5f8a815260076020908152604080832084845282528083208151808301909252805482526001908101549282019290925292965091945061051c91600991906104fe906104f462093a808b611373565b6102939190611341565b81526020019081526020015f20600101546001818118908210021890565b6001600160a01b038b165f9081526003602090815260408083208984528252909120549085015191975087916105529190611386565b61055c9190611354565b6105669088611373565b965061057562093a8086611373565b945060010161047f565b505b50939450505050505b92915050565b5f6105996106de565b6001600160a01b0316826001600160a01b0316149050919050565b600a545f908082036105c857505f92915050565b8260095f6105d7600185611341565b81526020019081526020015f205f0154116105fe576105f7600182611341565b9392505050565b5f805260096020527fec8156718a8372b1db44bb411437d0870f3e3790d4a08526d024ce1b0b668f6b5483101561063757505f92915050565b5f80610644600184611341565b90505b818111156106d6575f600261065c8484611341565b6106669190611354565b6106709083611341565b5f818152600960209081526040918290208251808401909352805480845260019091015491830191909152919250908790036106b0575095945050505050565b80518711156106c1578193506106cf565b6106cc600183611341565b92505b5050610647565b509392505050565b7f000000000000000000000000000000000000000000000000000000000000000090565b5f61070b610ce0565b5f549091506001600160a01b0380831691161461073b5760405163ea8e4eb560e01b815260040160405180910390fd5b8260015f82825461074c9190611341565b90915550505f828152600260205260408120805485929061076e908490611341565b90915550505f8281526002602052604090205461078c908390610d26565b610794610e28565b81816001600160a01b03167ff279e6a1f5e320cca91135676d9cb6e44ca8a08c0b88342bcdb1144f6511b568856040516107d091815260200190565b60405180910390a3505050565b5f828152600860205260408120548082036107fb575f91505061058a565b5f8481526007602052604081208491610815600185611341565b81526020019081526020015f205f01541161083d57610835600182611341565b91505061058a565b5f848152600760209081526040808320838052909152902054831015610866575f91505061058a565b5f80610873600184611341565b90505b8181111561090f575f600261088b8484611341565b6108959190611354565b61089f9083611341565b5f8881526007602090815260408083208484528252918290208251808401909352805480845260019091015491830191909152919250908790036108e95750935061058a92505050565b80518711156108fa57819350610908565b610905600183611341565b92505b5050610876565b50949350505050565b3068929eee149b4bd2126854036109365763ab143c065f526004601cfd5b3068929eee149b4bd21268555f61094b610ce0565b90507f00000000000000000000000000000000000000000000000000000000000000006001600160a01b0316816001600160a01b03161461099f576040516306b746df60e51b815260040160405180910390fd5b7f00000000000000000000000000000000000000000000000000000000000000006001600160a01b031663fc0c546a6040518163ffffffff1660e01b8152600401602060405180830381865afa1580156109fb573d5f5f3e3d5ffd5b505050506040513d601f19601f82011682018060405250810190610a1f919061139d565b6001600160a01b0316836001600160a01b031614610a5057604051630b9eb1c560e41b815260040160405180910390fd5b610a5b818484610edf565b503868929eee149b4bd21268555050565b60058181548110610a7b575f80fd5b5f918252602090912001546001600160a01b0316905081565b5f610a9d610ce0565b5f549091506001600160a01b03808316911614610acd5760405163ea8e4eb560e01b815260040160405180910390fd5b8260015f828254610ade9190611373565b90915550505f8281526002602052604081208054859290610b00908490611373565b90915550505f82815260026020526040902054610b1e908390610d26565b610b26610e28565b81816001600160a01b03167f90890809c654f11d6e72a28fa60149770a0d11ec6c92319d6ceb2bb0a4ea1a15856040516107d091815260200190565b3068929eee149b4bd212685403610b805763ab143c065f526004601cfd5b3068929eee149b4bd21268555f610b95610ce0565b90507f00000000000000000000000000000000000000000000000000000000000000006001600160a01b0316816001600160a01b031614610be9576040516306b746df60e51b815260040160405180910390fd5b8151600114610c0b5760405163801f099f60e01b815260040160405180910390fd5b7f00000000000000000000000000000000000000000000000000000000000000006001600160a01b031663fc0c546a6040518163ffffffff1660e01b8152600401602060405180830381865afa158015610c67573d5f5f3e3d5ffd5b505050506040513d601f19601f82011682018060405250810190610c8b919061139d565b6001600160a01b0316825f81518110610ca657610ca66113b8565b60200260200101516001600160a01b031614610cd557604051630b9eb1c560e41b815260040160405180910390fd5b610a5b818484610fb6565b5f366014808210801590610cf85750610cf833610590565b15610d1e57610d0b36828403815f6113cc565b610d14916113f3565b60601c9250505090565b339250505090565b5f82815260086020526040902054428115801590610d80575062093a80810681035f858152600760205260408120610d7e91610d63600187611341565b81526020019081526020015f205f015462093a808106900390565b145b15610dd45760408051808201825282815260208082018690525f87815260079091529182209091610db2600186611341565b81526020808201929092526040015f2082518155910151600190910155610e22565b60408051808201825282815260208082018681525f88815260078352848120878252909252929020905181559051600191820155610e13908390611373565b5f858152600860205260409020555b50505050565b600a54428115801590610e51575062093a8081068103610e4f60095f610d63600187611341565b145b15610e9e57604051806040016040528082815260200160015481525060095f600185610e7d9190611341565b81526020808201929092526040015f20825181559101516001909101555050565b6040805180820182528281526001805460208084019182525f87815260099091529390932091518255915190820155610ed8908390611373565b600a555050565b805f03610eff57604051631f2a200560e01b815260040160405180910390fd5b610f146001600160a01b0383168430846110e1565b5f610f244262093a808106900390565b6001600160a01b0384165f908152600360209081526040808320848452909152812080549293508492909190610f5b908490611373565b9250508190555080836001600160a01b0316856001600160a01b03167f52977ea98a2220a03ee9ba5cb003ada08d394ea10155483c95dc2dc77a7eb24b85604051610fa891815260200190565b60405180910390a450505050565b80515f5b818110156110da575f610fe6848381518110610fd857610fd86113b8565b6020026020010151866103be565b90504260045f868581518110610ffe57610ffe6113b8565b6020908102919091018101516001600160a01b031682528181019290925260409081015f908120898252909252902055801561106b5761106b868286858151811061104b5761104b6113b8565b60200260200101516001600160a01b03166110ed9092919063ffffffff16565b83828151811061107d5761107d6113b8565b60200260200101516001600160a01b0316866001600160a01b03167f9aa05b3d70a9e3e2f004f039648839560576334fb45c81f91b6db03ad9e2efc9836040516110c991815260200190565b60405180910390a350600101610fba565b5050505050565b610e22848484846110fd565b6110f8838383611156565b505050565b60405181606052826040528360601b602c526323b872dd60601b600c5260205f6064601c5f895af18060015f51141661114857803d873b15171061114857637939f4245f526004601cfd5b505f60605260405250505050565b816014528060345263a9059cbb60601b5f5260205f604460105f875af18060015f51141661119657803d853b151710611196576390b8ec185f526004601cfd5b505f603452505050565b6001600160a01b03811681146111b4575f5ffd5b50565b80356111c2816111a0565b919050565b5f5f604083850312156111d8575f5ffd5b82356111e3816111a0565b946020939093013593505050565b5f5f60408385031215611202575f5ffd5b50508035926020909101359150565b5f60208284031215611221575f5ffd5b81356105f7816111a0565b5f6020828403121561123c575f5ffd5b5035919050565b634e487b7160e01b5f52604160045260245ffd5b5f5f60408385031215611268575f5ffd5b8235915060208301356001600160401b03811115611284575f5ffd5b8301601f81018513611294575f5ffd5b80356001600160401b038111156112ad576112ad611243565b604051600582901b90603f8201601f191681016001600160401b03811182821017156112db576112db611243565b6040529182526020818401810192908101888411156112f8575f5ffd5b6020850194505b8385101561131e57611310856111b7565b8152602094850194016112ff565b50809450505050509250929050565b634e487b7160e01b5f52601160045260245ffd5b8181038181111561058a5761058a61132d565b5f8261136e57634e487b7160e01b5f52601260045260245ffd5b500490565b8082018082111561058a5761058a61132d565b808202811582820484141761058a5761058a61132d565b5f602082840312156113ad575f5ffd5b81516105f7816111a0565b634e487b7160e01b5f52603260045260245ffd5b5f5f858511156113da575f5ffd5b838611156113e6575f5ffd5b5050820193919092039150565b80356001600160601b03198116906014841015611424576001600160601b0319601485900360031b81901b82161691505b509291505056fea2646970667358221220697b5b266d4e88513ccd8eb809209a6aee794b787380a9b362cf1c70e6a7744c64736f6c634300081e003360e060405234801561000f575f5ffd5b5060405161176838038061176883398101604081905261002e91610221565b6001600160a01b03808316608052811660a081905260408051630fc2838b60e11b81529051849284928492849291631f8507169160048083019260209291908290030181865afa158015610084573d5f5f3e3d5ffd5b505050506040513d601f19601f820116820180604052508101906100a89190610252565b6001600160a01b031660c0816001600160a01b03168152505050505f816001600160a01b0316631f8507166040518163ffffffff1660e01b8152600401602060405180830381865afa158015610100573d5f5f3e3d5ffd5b505050506040513d601f19601f820116820180604052508101906101249190610252565b90505f816001600160a01b031663fc0c546a6040518163ffffffff1660e01b8152600401602060405180830381865afa158015610163573d5f5f3e3d5ffd5b505050506040513d601f19601f820116820180604052508101906101879190610252565b6005805460018181019092557f036b6384b5eca791c62761152d0c79bb0604c104a5fb6f4eb0703f3154bb3db00180546001600160a01b039384166001600160a01b031991821681179092555f918252600660205260408220805460ff1916909317909255805494909216931692909217909155506102729350505050565b80516001600160a01b038116811461021c575f5ffd5b919050565b5f5f60408385031215610232575f5ffd5b61023b83610206565b915061024960208401610206565b90509250929050565b5f60208284031215610262575f5ffd5b61026b82610206565b9392505050565b60805160a05160c0516114b76102b15f395f818161015501528181610bad0152610c8501525f81816101ae015261097901525f6106d501526114b75ff3fe608060405234801561000f575f5ffd5b5060043610610126575f3560e01c806318160ddd1461012a5780631be05289146101465780631f850716146101505780633e491d4714610184578063456cb7c61461019757806346c96aac146101a957806349dcc204146101d05780634d5ce038146102165780635058979314610248578063572b6c051461026757806376f4be361461027a5780637da0a8771461028d57806392777b29146102955780639cc7f708146102bf5780639e2bf22c146102de578063a28d4c9c146102f3578063b66503cf14610306578063e688639614610319578063e8111a1214610321578063f25e55a51461032a578063f301af4214610354578063f320772314610367578063f5f8d3651461037a578063f7412baf1461038d575b5f5ffd5b61013360015481565b6040519081526020015b60405180910390f35b61013362093a8081565b6101777f000000000000000000000000000000000000000000000000000000000000000081565b60405161013d91906111c3565b6101336101923660046111fe565b6103b3565b5f54610177906001600160a01b031681565b6101777f000000000000000000000000000000000000000000000000000000000000000081565b6102016101de366004611228565b600760209081525f92835260408084209091529082529020805460019091015482565b6040805192835260208301919091520161013d565b610238610224366004611248565b60066020525f908152604090205460ff1681565b604051901515815260200161013d565b610133610256366004611263565b60086020525f908152604090205481565b610238610275366004611248565b610585565b610133610288366004611263565b6105a9565b6101776106d3565b6101336102a33660046111fe565b600360209081525f928352604080842090915290825290205481565b6101336102cd366004611263565b60026020525f908152604090205481565b6102f16102ec366004611228565b6106f7565b005b610133610301366004611228565b6107d2565b6102f16103143660046111fe565b61090d565b600554610133565b610133600a5481565b6101336103383660046111fe565b600460209081525f928352604080842090915290825290205481565b610177610362366004611263565b610a8b565b6102f1610375366004611228565b610ab3565b6102f161038836600461128e565b610b81565b61020161039b366004611263565b60096020525f90815260409020805460019091015482565b5f8181526008602052604081205481036103ce57505f61057f565b6001600160a01b0383165f90815260046020908152604080832085845290915281205460019062093a80810690038261040786836107d2565b5f8781526007602090815260408083208484528252808320815180830190925280548083526001909101549282019290925262093a80808306909203868118908710029095189492935061046085428381069003611378565b61046a919061138b565b90508015610576575f5b818110156105745761049989600161048f62093a80896113aa565b6103019190611378565b5f8a815260076020908152604080832084845282528083208151808301909252805482526001908101549282019290925292965091945061051191600991906104f3906104e962093a808b6113aa565b6102889190611378565b81526020019081526020015f20600101546001818118908210021890565b6001600160a01b038b165f90815260036020908152604080832089845282529091205490850151919750879161054791906113bd565b610551919061138b565b61055b90886113aa565b965061056a62093a80866113aa565b9450600101610474565b505b50939450505050505b92915050565b5f61058e6106d3565b6001600160a01b0316826001600160a01b0316149050919050565b600a545f908082036105bd57505f92915050565b8260095f6105cc600185611378565b81526020019081526020015f205f0154116105f3576105ec600182611378565b9392505050565b5f805260096020527fec8156718a8372b1db44bb411437d0870f3e3790d4a08526d024ce1b0b668f6b5483101561062c57505f92915050565b5f80610639600184611378565b90505b818111156106cb575f60026106518484611378565b61065b919061138b565b6106659083611378565b5f818152600960209081526040918290208251808401909352805480845260019091015491830191909152919250908790036106a5575095945050505050565b80518711156106b6578193506106c4565b6106c1600183611378565b92505b505061063c565b509392505050565b7f000000000000000000000000000000000000000000000000000000000000000090565b5f610700610d03565b5f549091506001600160a01b038083169116146107305760405163ea8e4eb560e01b815260040160405180910390fd5b8260015f8282546107419190611378565b90915550505f8281526002602052604081208054859290610763908490611378565b90915550505f82815260026020526040902054610781908390610d49565b610789610e4b565b81816001600160a01b03167ff279e6a1f5e320cca91135676d9cb6e44ca8a08c0b88342bcdb1144f6511b568856040516107c591815260200190565b60405180910390a3505050565b5f828152600860205260408120548082036107f0575f91505061057f565b5f848152600760205260408120849161080a600185611378565b81526020019081526020015f205f0154116108325761082a600182611378565b91505061057f565b5f84815260076020908152604080832083805290915290205483101561085b575f91505061057f565b5f80610868600184611378565b90505b81811115610904575f60026108808484611378565b61088a919061138b565b6108949083611378565b5f8881526007602090815260408083208484528252918290208251808401909352805480845260019091015491830191909152919250908790036108de5750935061057f92505050565b80518711156108ef578193506108fd565b6108fa600183611378565b92505b505061086b565b50949350505050565b3068929eee149b4bd21268540361092b5763ab143c065f526004601cfd5b3068929eee149b4bd21268555f610940610d03565b6001600160a01b0384165f9081526006602052604090205490915060ff16610a6f5760405163559bfa4360e11b81526001600160a01b037f0000000000000000000000000000000000000000000000000000000000000000169063ab37f486906109ae9086906004016111c3565b602060405180830381865afa1580156109c9573d5f5f3e3d5ffd5b505050506040513d601f19601f820116820180604052508101906109ed91906113d4565b610a0a57604051630b094f2760e31b815260040160405180910390fd5b6001600160a01b0383165f818152600660205260408120805460ff191660019081179091556005805491820181559091527f036b6384b5eca791c62761152d0c79bb0604c104a5fb6f4eb0703f3154bb3db00180546001600160a01b03191690911790555b610a7a818484610f02565b503868929eee149b4bd21268555050565b60058181548110610a9a575f80fd5b5f918252602090912001546001600160a01b0316905081565b5f610abc610d03565b5f549091506001600160a01b03808316911614610aec5760405163ea8e4eb560e01b815260040160405180910390fd5b8260015f828254610afd91906113aa565b90915550505f8281526002602052604081208054859290610b1f9084906113aa565b90915550505f82815260026020526040902054610b3d908390610d49565b610b45610e4b565b81816001600160a01b03167f90890809c654f11d6e72a28fa60149770a0d11ec6c92319d6ceb2bb0a4ea1a15856040516107c591815260200190565b3068929eee149b4bd212685403610b9f5763ab143c065f526004601cfd5b3068929eee149b4bd21268557f00000000000000000000000000000000000000000000000000000000000000006001600160a01b031663430c2081610be2610d03565b6040516001600160e01b031960e084901b1681526001600160a01b039091166004820152602481018590526044016020604051808303815f875af1158015610c2c573d5f5f3e3d5ffd5b505050506040513d601f19601f82011682018060405250810190610c5091906113d4565b610c6d5760405163ea8e4eb560e01b815260040160405180910390fd5b6040516331a9108f60e11b8152600481018390525f907f00000000000000000000000000000000000000000000000000000000000000006001600160a01b031690636352211e90602401602060405180830381865afa158015610cd2573d5f5f3e3d5ffd5b505050506040513d601f19601f82011682018060405250810190610cf691906113f3565b9050610a7a818484610fd9565b5f366014808210801590610d1b5750610d1b33610585565b15610d4157610d2e36828403815f61140e565b610d3791611435565b60601c9250505090565b339250505090565b5f82815260086020526040902054428115801590610da3575062093a80810681035f858152600760205260408120610da191610d86600187611378565b81526020019081526020015f205f015462093a808106900390565b145b15610df75760408051808201825282815260208082018690525f87815260079091529182209091610dd5600186611378565b81526020808201929092526040015f2082518155910151600190910155610e45565b60408051808201825282815260208082018681525f88815260078352848120878252909252929020905181559051600191820155610e369083906113aa565b5f858152600860205260409020555b50505050565b600a54428115801590610e74575062093a8081068103610e7260095f610d86600187611378565b145b15610ec157604051806040016040528082815260200160015481525060095f600185610ea09190611378565b81526020808201929092526040015f20825181559101516001909101555050565b6040805180820182528281526001805460208084019182525f87815260099091529390932091518255915190820155610efb9083906113aa565b600a555050565b805f03610f2257604051631f2a200560e01b815260040160405180910390fd5b610f376001600160a01b038316843084611104565b5f610f474262093a808106900390565b6001600160a01b0384165f908152600360209081526040808320848452909152812080549293508492909190610f7e9084906113aa565b9250508190555080836001600160a01b0316856001600160a01b03167f52977ea98a2220a03ee9ba5cb003ada08d394ea10155483c95dc2dc77a7eb24b85604051610fcb91815260200190565b60405180910390a450505050565b80515f5b818110156110fd575f611009848381518110610ffb57610ffb61146d565b6020026020010151866103b3565b90504260045f8685815181106110215761102161146d565b6020908102919091018101516001600160a01b031682528181019290925260409081015f908120898252909252902055801561108e5761108e868286858151811061106e5761106e61146d565b60200260200101516001600160a01b03166111109092919063ffffffff16565b8382815181106110a0576110a061146d565b60200260200101516001600160a01b0316866001600160a01b03167f9aa05b3d70a9e3e2f004f039648839560576334fb45c81f91b6db03ad9e2efc9836040516110ec91815260200190565b60405180910390a350600101610fdd565b5050505050565b610e4584848484611120565b61111b838383611179565b505050565b60405181606052826040528360601b602c526323b872dd60601b600c5260205f6064601c5f895af18060015f51141661116b57803d873b15171061116b57637939f4245f526004601cfd5b505f60605260405250505050565b816014528060345263a9059cbb60601b5f5260205f604460105f875af18060015f5114166111b957803d853b1517106111b9576390b8ec185f526004601cfd5b505f603452505050565b6001600160a01b0391909116815260200190565b6001600160a01b03811681146111eb575f5ffd5b50565b80356111f9816111d7565b919050565b5f5f6040838503121561120f575f5ffd5b823561121a816111d7565b946020939093013593505050565b5f5f60408385031215611239575f5ffd5b50508035926020909101359150565b5f60208284031215611258575f5ffd5b81356105ec816111d7565b5f60208284031215611273575f5ffd5b5035919050565b634e487b7160e01b5f52604160045260245ffd5b5f5f6040838503121561129f575f5ffd5b8235915060208301356001600160401b038111156112bb575f5ffd5b8301601f810185136112cb575f5ffd5b80356001600160401b038111156112e4576112e461127a565b604051600582901b90603f8201601f191681016001600160401b03811182821017156113125761131261127a565b60405291825260208184018101929081018884111561132f575f5ffd5b6020850194505b8385101561135557611347856111ee565b815260209485019401611336565b50809450505050509250929050565b634e487b7160e01b5f52601160045260245ffd5b8181038181111561057f5761057f611364565b5f826113a557634e487b7160e01b5f52601260045260245ffd5b500490565b8082018082111561057f5761057f611364565b808202811582820484141761057f5761057f611364565b5f602082840312156113e4575f5ffd5b815180151581146105ec575f5ffd5b5f60208284031215611403575f5ffd5b81516105ec816111d7565b5f5f8585111561141c575f5ffd5b83861115611428575f5ffd5b5050820193919092039150565b80356001600160601b03198116906014841015611466576001600160601b0319601485900360031b81901b82161691505b5092915050565b634e487b7160e01b5f52603260045260245ffdfea2646970667358221220ab2a2c4e32fb5905ac88098d54978277b2b3abe6af058b27050448c86d1136f264736f6c634300081e0033a264697066735822122017f9b45e1485092bd8e84867f714dde566b5d2fb2486a180d35de813f20f9a3f64736f6c634300081e0033","linkReferences":{}},"methodIdentifiers":{"createRewards(address,address)":"dabc8e83"},"id":824}