{"abi":[{"type":"constructor","inputs":[{"name":"vault","type":"address","internalType":"contract IVault"},{"name":"weth","type":"address","internalType":"contract IWETH"},{"name":"permit2","type":"address","internalType":"contract IPermit2"}],"stateMutability":"nonpayable"},{"type":"receive","stateMutability":"payable"},{"type":"function","name":"addLiquidityCustom","inputs":[{"name":"pool","type":"address","internalType":"address"},{"name":"maxAmountsIn","type":"uint256[]","internalType":"uint256[]"},{"name":"minBptAmountOut","type":"uint256","internalType":"uint256"},{"name":"wethIsEth","type":"bool","internalType":"bool"},{"name":"userData","type":"bytes","internalType":"bytes"}],"outputs":[{"name":"amountsIn","type":"uint256[]","internalType":"uint256[]"},{"name":"bptAmountOut","type":"uint256","internalType":"uint256"},{"name":"returnData","type":"bytes","internalType":"bytes"}],"stateMutability":"payable"},{"type":"function","name":"addLiquidityHook","inputs":[{"name":"params","type":"tuple","internalType":"struct AddLiquidityHookParams","components":[{"name":"sender","type":"address","internalType":"address"},{"name":"pool","type":"address","internalType":"address"},{"name":"maxAmountsIn","type":"uint256[]","internalType":"uint256[]"},{"name":"minBptAmountOut","type":"uint256","internalType":"uint256"},{"name":"kind","type":"uint8","internalType":"enum AddLiquidityKind"},{"name":"wethIsEth","type":"bool","internalType":"bool"},{"name":"userData","type":"bytes","internalType":"bytes"}]}],"outputs":[{"name":"amountsIn","type":"uint256[]","internalType":"uint256[]"},{"name":"bptAmountOut","type":"uint256","internalType":"uint256"},{"name":"returnData","type":"bytes","internalType":"bytes"}],"stateMutability":"nonpayable"},{"type":"function","name":"addLiquidityProportional","inputs":[{"name":"pool","type":"address","internalType":"address"},{"name":"maxAmountsIn","type":"uint256[]","internalType":"uint256[]"},{"name":"exactBptAmountOut","type":"uint256","internalType":"uint256"},{"name":"wethIsEth","type":"bool","internalType":"bool"},{"name":"userData","type":"bytes","internalType":"bytes"}],"outputs":[{"name":"amountsIn","type":"uint256[]","internalType":"uint256[]"}],"stateMutability":"payable"},{"type":"function","name":"addLiquiditySingleTokenExactOut","inputs":[{"name":"pool","type":"address","internalType":"address"},{"name":"tokenIn","type":"address","internalType":"contract IERC20"},{"name":"maxAmountIn","type":"uint256","internalType":"uint256"},{"name":"exactBptAmountOut","type":"uint256","internalType":"uint256"},{"name":"wethIsEth","type":"bool","internalType":"bool"},{"name":"userData","type":"bytes","internalType":"bytes"}],"outputs":[{"name":"amountIn","type":"uint256","internalType":"uint256"}],"stateMutability":"payable"},{"type":"function","name":"addLiquidityUnbalanced","inputs":[{"name":"pool","type":"address","internalType":"address"},{"name":"exactAmountsIn","type":"uint256[]","internalType":"uint256[]"},{"name":"minBptAmountOut","type":"uint256","internalType":"uint256"},{"name":"wethIsEth","type":"bool","internalType":"bool"},{"name":"userData","type":"bytes","internalType":"bytes"}],"outputs":[{"name":"bptAmountOut","type":"uint256","internalType":"uint256"}],"stateMutability":"payable"},{"type":"function","name":"donate","inputs":[{"name":"pool","type":"address","internalType":"address"},{"name":"amountsIn","type":"uint256[]","internalType":"uint256[]"},{"name":"wethIsEth","type":"bool","internalType":"bool"},{"name":"userData","type":"bytes","internalType":"bytes"}],"outputs":[],"stateMutability":"payable"},{"type":"function","name":"getPermit2","inputs":[],"outputs":[{"name":"","type":"address","internalType":"contract IPermit2"}],"stateMutability":"view"},{"type":"function","name":"getSender","inputs":[],"outputs":[{"name":"","type":"address","internalType":"address"}],"stateMutability":"view"},{"type":"function","name":"getSingleInputArrayAndTokenIndex","inputs":[{"name":"pool","type":"address","internalType":"address"},{"name":"token","type":"address","internalType":"contract IERC20"},{"name":"amountGiven","type":"uint256","internalType":"uint256"}],"outputs":[{"name":"amountsGiven","type":"uint256[]","internalType":"uint256[]"},{"name":"tokenIndex","type":"uint256","internalType":"uint256"}],"stateMutability":"view"},{"type":"function","name":"getVault","inputs":[],"outputs":[{"name":"","type":"address","internalType":"contract IVault"}],"stateMutability":"view"},{"type":"function","name":"getWeth","inputs":[],"outputs":[{"name":"","type":"address","internalType":"contract IWETH"}],"stateMutability":"view"},{"type":"function","name":"initialize","inputs":[{"name":"pool","type":"address","internalType":"address"},{"name":"tokens","type":"address[]","internalType":"contract IERC20[]"},{"name":"exactAmountsIn","type":"uint256[]","internalType":"uint256[]"},{"name":"minBptAmountOut","type":"uint256","internalType":"uint256"},{"name":"wethIsEth","type":"bool","internalType":"bool"},{"name":"userData","type":"bytes","internalType":"bytes"}],"outputs":[{"name":"bptAmountOut","type":"uint256","internalType":"uint256"}],"stateMutability":"payable"},{"type":"function","name":"initializeHook","inputs":[{"name":"params","type":"tuple","internalType":"struct InitializeHookParams","components":[{"name":"sender","type":"address","internalType":"address"},{"name":"pool","type":"address","internalType":"address"},{"name":"tokens","type":"address[]","internalType":"contract IERC20[]"},{"name":"exactAmountsIn","type":"uint256[]","internalType":"uint256[]"},{"name":"minBptAmountOut","type":"uint256","internalType":"uint256"},{"name":"wethIsEth","type":"bool","internalType":"bool"},{"name":"userData","type":"bytes","internalType":"bytes"}]}],"outputs":[{"name":"bptAmountOut","type":"uint256","internalType":"uint256"}],"stateMutability":"nonpayable"},{"type":"function","name":"manualAddAndRemoveLiquidity","inputs":[{"name":"params","type":"tuple","internalType":"struct RouterMock.ManualAddRemoveLiquidityParams","components":[{"name":"pool","type":"address","internalType":"address"},{"name":"sender","type":"address","internalType":"address"},{"name":"maxAmountsIn","type":"uint256[]","internalType":"uint256[]"},{"name":"minBptAmountOut","type":"uint256","internalType":"uint256"}]}],"outputs":[{"name":"amountsIn","type":"uint256[]","internalType":"uint256[]"},{"name":"bptAmountOut","type":"uint256","internalType":"uint256"},{"name":"bptAmountIn","type":"uint256","internalType":"uint256"},{"name":"amountsOut","type":"uint256[]","internalType":"uint256[]"}],"stateMutability":"nonpayable"},{"type":"function","name":"manualAddAndRemoveLiquidityHook","inputs":[{"name":"params","type":"tuple","internalType":"struct RouterMock.ManualAddRemoveLiquidityParams","components":[{"name":"pool","type":"address","internalType":"address"},{"name":"sender","type":"address","internalType":"address"},{"name":"maxAmountsIn","type":"uint256[]","internalType":"uint256[]"},{"name":"minBptAmountOut","type":"uint256","internalType":"uint256"}]}],"outputs":[{"name":"amountsIn","type":"uint256[]","internalType":"uint256[]"},{"name":"bptAmountOut","type":"uint256","internalType":"uint256"},{"name":"bptAmountIn","type":"uint256","internalType":"uint256"},{"name":"amountsOut","type":"uint256[]","internalType":"uint256[]"}],"stateMutability":"nonpayable"},{"type":"function","name":"manualReentrancyAddLiquidityHook","inputs":[],"outputs":[],"stateMutability":"nonpayable"},{"type":"function","name":"manualReentrancyInitializeHook","inputs":[],"outputs":[],"stateMutability":"nonpayable"},{"type":"function","name":"manualReentrancyQuerySwapHook","inputs":[],"outputs":[],"stateMutability":"nonpayable"},{"type":"function","name":"manualReentrancyRemoveLiquidityHook","inputs":[],"outputs":[],"stateMutability":"nonpayable"},{"type":"function","name":"manualReentrancyRemoveLiquidityRecoveryHook","inputs":[],"outputs":[],"stateMutability":"nonpayable"},{"type":"function","name":"manualReentrancySwapSingleTokenHook","inputs":[],"outputs":[],"stateMutability":"nonpayable"},{"type":"function","name":"multicall","inputs":[{"name":"data","type":"bytes[]","internalType":"bytes[]"}],"outputs":[{"name":"results","type":"bytes[]","internalType":"bytes[]"}],"stateMutability":"payable"},{"type":"function","name":"permitBatchAndCall","inputs":[{"name":"permitBatch","type":"tuple[]","internalType":"struct IRouterCommon.PermitApproval[]","components":[{"name":"token","type":"address","internalType":"address"},{"name":"owner","type":"address","internalType":"address"},{"name":"spender","type":"address","internalType":"address"},{"name":"amount","type":"uint256","internalType":"uint256"},{"name":"nonce","type":"uint256","internalType":"uint256"},{"name":"deadline","type":"uint256","internalType":"uint256"}]},{"name":"permitSignatures","type":"bytes[]","internalType":"bytes[]"},{"name":"permit2Batch","type":"tuple","internalType":"struct IAllowanceTransfer.PermitBatch","components":[{"name":"details","type":"tuple[]","internalType":"struct IAllowanceTransfer.PermitDetails[]","components":[{"name":"token","type":"address","internalType":"address"},{"name":"amount","type":"uint160","internalType":"uint160"},{"name":"expiration","type":"uint48","internalType":"uint48"},{"name":"nonce","type":"uint48","internalType":"uint48"}]},{"name":"spender","type":"address","internalType":"address"},{"name":"sigDeadline","type":"uint256","internalType":"uint256"}]},{"name":"permit2Signature","type":"bytes","internalType":"bytes"},{"name":"multicallData","type":"bytes[]","internalType":"bytes[]"}],"outputs":[{"name":"","type":"bytes[]","internalType":"bytes[]"}],"stateMutability":"payable"},{"type":"function","name":"queryAddLiquidityCustom","inputs":[{"name":"pool","type":"address","internalType":"address"},{"name":"maxAmountsIn","type":"uint256[]","internalType":"uint256[]"},{"name":"minBptAmountOut","type":"uint256","internalType":"uint256"},{"name":"sender","type":"address","internalType":"address"},{"name":"userData","type":"bytes","internalType":"bytes"}],"outputs":[{"name":"amountsIn","type":"uint256[]","internalType":"uint256[]"},{"name":"bptAmountOut","type":"uint256","internalType":"uint256"},{"name":"returnData","type":"bytes","internalType":"bytes"}],"stateMutability":"nonpayable"},{"type":"function","name":"queryAddLiquidityHook","inputs":[{"name":"params","type":"tuple","internalType":"struct AddLiquidityHookParams","components":[{"name":"sender","type":"address","internalType":"address"},{"name":"pool","type":"address","internalType":"address"},{"name":"maxAmountsIn","type":"uint256[]","internalType":"uint256[]"},{"name":"minBptAmountOut","type":"uint256","internalType":"uint256"},{"name":"kind","type":"uint8","internalType":"enum AddLiquidityKind"},{"name":"wethIsEth","type":"bool","internalType":"bool"},{"name":"userData","type":"bytes","internalType":"bytes"}]}],"outputs":[{"name":"amountsIn","type":"uint256[]","internalType":"uint256[]"},{"name":"bptAmountOut","type":"uint256","internalType":"uint256"},{"name":"returnData","type":"bytes","internalType":"bytes"}],"stateMutability":"nonpayable"},{"type":"function","name":"queryAddLiquidityProportional","inputs":[{"name":"pool","type":"address","internalType":"address"},{"name":"exactBptAmountOut","type":"uint256","internalType":"uint256"},{"name":"sender","type":"address","internalType":"address"},{"name":"userData","type":"bytes","internalType":"bytes"}],"outputs":[{"name":"amountsIn","type":"uint256[]","internalType":"uint256[]"}],"stateMutability":"nonpayable"},{"type":"function","name":"queryAddLiquiditySingleTokenExactOut","inputs":[{"name":"pool","type":"address","internalType":"address"},{"name":"tokenIn","type":"address","internalType":"contract IERC20"},{"name":"exactBptAmountOut","type":"uint256","internalType":"uint256"},{"name":"sender","type":"address","internalType":"address"},{"name":"userData","type":"bytes","internalType":"bytes"}],"outputs":[{"name":"amountIn","type":"uint256","internalType":"uint256"}],"stateMutability":"nonpayable"},{"type":"function","name":"queryAddLiquidityUnbalanced","inputs":[{"name":"pool","type":"address","internalType":"address"},{"name":"exactAmountsIn","type":"uint256[]","internalType":"uint256[]"},{"name":"sender","type":"address","internalType":"address"},{"name":"userData","type":"bytes","internalType":"bytes"}],"outputs":[{"name":"bptAmountOut","type":"uint256","internalType":"uint256"}],"stateMutability":"nonpayable"},{"type":"function","name":"queryRemoveLiquidityCustom","inputs":[{"name":"pool","type":"address","internalType":"address"},{"name":"maxBptAmountIn","type":"uint256","internalType":"uint256"},{"name":"minAmountsOut","type":"uint256[]","internalType":"uint256[]"},{"name":"sender","type":"address","internalType":"address"},{"name":"userData","type":"bytes","internalType":"bytes"}],"outputs":[{"name":"bptAmountIn","type":"uint256","internalType":"uint256"},{"name":"amountsOut","type":"uint256[]","internalType":"uint256[]"},{"name":"returnData","type":"bytes","internalType":"bytes"}],"stateMutability":"nonpayable"},{"type":"function","name":"queryRemoveLiquidityHook","inputs":[{"name":"params","type":"tuple","internalType":"struct RemoveLiquidityHookParams","components":[{"name":"sender","type":"address","internalType":"address"},{"name":"pool","type":"address","internalType":"address"},{"name":"minAmountsOut","type":"uint256[]","internalType":"uint256[]"},{"name":"maxBptAmountIn","type":"uint256","internalType":"uint256"},{"name":"kind","type":"uint8","internalType":"enum RemoveLiquidityKind"},{"name":"wethIsEth","type":"bool","internalType":"bool"},{"name":"userData","type":"bytes","internalType":"bytes"}]}],"outputs":[{"name":"bptAmountIn","type":"uint256","internalType":"uint256"},{"name":"amountsOut","type":"uint256[]","internalType":"uint256[]"},{"name":"returnData","type":"bytes","internalType":"bytes"}],"stateMutability":"nonpayable"},{"type":"function","name":"queryRemoveLiquidityProportional","inputs":[{"name":"pool","type":"address","internalType":"address"},{"name":"exactBptAmountIn","type":"uint256","internalType":"uint256"},{"name":"sender","type":"address","internalType":"address"},{"name":"userData","type":"bytes","internalType":"bytes"}],"outputs":[{"name":"amountsOut","type":"uint256[]","internalType":"uint256[]"}],"stateMutability":"nonpayable"},{"type":"function","name":"queryRemoveLiquidityRecovery","inputs":[{"name":"pool","type":"address","internalType":"address"},{"name":"exactBptAmountIn","type":"uint256","internalType":"uint256"}],"outputs":[{"name":"amountsOut","type":"uint256[]","internalType":"uint256[]"}],"stateMutability":"nonpayable"},{"type":"function","name":"queryRemoveLiquidityRecoveryHook","inputs":[{"name":"pool","type":"address","internalType":"address"},{"name":"sender","type":"address","internalType":"address"},{"name":"exactBptAmountIn","type":"uint256","internalType":"uint256"}],"outputs":[{"name":"amountsOut","type":"uint256[]","internalType":"uint256[]"}],"stateMutability":"nonpayable"},{"type":"function","name":"queryRemoveLiquiditySingleTokenExactIn","inputs":[{"name":"pool","type":"address","internalType":"address"},{"name":"exactBptAmountIn","type":"uint256","internalType":"uint256"},{"name":"tokenOut","type":"address","internalType":"contract IERC20"},{"name":"sender","type":"address","internalType":"address"},{"name":"userData","type":"bytes","internalType":"bytes"}],"outputs":[{"name":"amountOut","type":"uint256","internalType":"uint256"}],"stateMutability":"nonpayable"},{"type":"function","name":"queryRemoveLiquiditySingleTokenExactOut","inputs":[{"name":"pool","type":"address","internalType":"address"},{"name":"tokenOut","type":"address","internalType":"contract IERC20"},{"name":"exactAmountOut","type":"uint256","internalType":"uint256"},{"name":"sender","type":"address","internalType":"address"},{"name":"userData","type":"bytes","internalType":"bytes"}],"outputs":[{"name":"bptAmountIn","type":"uint256","internalType":"uint256"}],"stateMutability":"nonpayable"},{"type":"function","name":"queryRevertErrorCode","inputs":[],"outputs":[{"name":"","type":"uint256","internalType":"uint256"}],"stateMutability":"nonpayable"},{"type":"function","name":"queryRevertErrorCodeHook","inputs":[],"outputs":[],"stateMutability":"pure"},{"type":"function","name":"queryRevertLegacy","inputs":[],"outputs":[{"name":"","type":"uint256","internalType":"uint256"}],"stateMutability":"nonpayable"},{"type":"function","name":"queryRevertLegacyHook","inputs":[],"outputs":[],"stateMutability":"pure"},{"type":"function","name":"queryRevertNoReason","inputs":[],"outputs":[{"name":"","type":"uint256","internalType":"uint256"}],"stateMutability":"nonpayable"},{"type":"function","name":"queryRevertNoReasonHook","inputs":[],"outputs":[{"name":"","type":"uint256","internalType":"uint256"}],"stateMutability":"pure"},{"type":"function","name":"queryRevertPanic","inputs":[],"outputs":[{"name":"","type":"uint256","internalType":"uint256"}],"stateMutability":"nonpayable"},{"type":"function","name":"queryRevertPanicHook","inputs":[],"outputs":[{"name":"","type":"uint256","internalType":"uint256"}],"stateMutability":"pure"},{"type":"function","name":"querySpoof","inputs":[],"outputs":[{"name":"","type":"uint256","internalType":"uint256"}],"stateMutability":"nonpayable"},{"type":"function","name":"querySpoofHook","inputs":[],"outputs":[],"stateMutability":"pure"},{"type":"function","name":"querySwapHook","inputs":[{"name":"params","type":"tuple","internalType":"struct SwapSingleTokenHookParams","components":[{"name":"sender","type":"address","internalType":"address"},{"name":"kind","type":"uint8","internalType":"enum SwapKind"},{"name":"pool","type":"address","internalType":"address"},{"name":"tokenIn","type":"address","internalType":"contract IERC20"},{"name":"tokenOut","type":"address","internalType":"contract IERC20"},{"name":"amountGiven","type":"uint256","internalType":"uint256"},{"name":"limit","type":"uint256","internalType":"uint256"},{"name":"deadline","type":"uint256","internalType":"uint256"},{"name":"wethIsEth","type":"bool","internalType":"bool"},{"name":"userData","type":"bytes","internalType":"bytes"}]}],"outputs":[{"name":"","type":"uint256","internalType":"uint256"}],"stateMutability":"nonpayable"},{"type":"function","name":"querySwapSingleTokenExactIn","inputs":[{"name":"pool","type":"address","internalType":"address"},{"name":"tokenIn","type":"address","internalType":"contract IERC20"},{"name":"tokenOut","type":"address","internalType":"contract IERC20"},{"name":"exactAmountIn","type":"uint256","internalType":"uint256"},{"name":"sender","type":"address","internalType":"address"},{"name":"userData","type":"bytes","internalType":"bytes"}],"outputs":[{"name":"amountCalculated","type":"uint256","internalType":"uint256"}],"stateMutability":"nonpayable"},{"type":"function","name":"querySwapSingleTokenExactInAndRevert","inputs":[{"name":"pool","type":"address","internalType":"address"},{"name":"tokenIn","type":"address","internalType":"contract IERC20"},{"name":"tokenOut","type":"address","internalType":"contract IERC20"},{"name":"exactAmountIn","type":"uint256","internalType":"uint256"},{"name":"userData","type":"bytes","internalType":"bytes"}],"outputs":[{"name":"amountCalculated","type":"uint256","internalType":"uint256"}],"stateMutability":"nonpayable"},{"type":"function","name":"querySwapSingleTokenExactOut","inputs":[{"name":"pool","type":"address","internalType":"address"},{"name":"tokenIn","type":"address","internalType":"contract IERC20"},{"name":"tokenOut","type":"address","internalType":"contract IERC20"},{"name":"exactAmountOut","type":"uint256","internalType":"uint256"},{"name":"sender","type":"address","internalType":"address"},{"name":"userData","type":"bytes","internalType":"bytes"}],"outputs":[{"name":"amountCalculated","type":"uint256","internalType":"uint256"}],"stateMutability":"nonpayable"},{"type":"function","name":"removeLiquidityCustom","inputs":[{"name":"pool","type":"address","internalType":"address"},{"name":"maxBptAmountIn","type":"uint256","internalType":"uint256"},{"name":"minAmountsOut","type":"uint256[]","internalType":"uint256[]"},{"name":"wethIsEth","type":"bool","internalType":"bool"},{"name":"userData","type":"bytes","internalType":"bytes"}],"outputs":[{"name":"bptAmountIn","type":"uint256","internalType":"uint256"},{"name":"amountsOut","type":"uint256[]","internalType":"uint256[]"},{"name":"returnData","type":"bytes","internalType":"bytes"}],"stateMutability":"payable"},{"type":"function","name":"removeLiquidityHook","inputs":[{"name":"params","type":"tuple","internalType":"struct RemoveLiquidityHookParams","components":[{"name":"sender","type":"address","internalType":"address"},{"name":"pool","type":"address","internalType":"address"},{"name":"minAmountsOut","type":"uint256[]","internalType":"uint256[]"},{"name":"maxBptAmountIn","type":"uint256","internalType":"uint256"},{"name":"kind","type":"uint8","internalType":"enum RemoveLiquidityKind"},{"name":"wethIsEth","type":"bool","internalType":"bool"},{"name":"userData","type":"bytes","internalType":"bytes"}]}],"outputs":[{"name":"bptAmountIn","type":"uint256","internalType":"uint256"},{"name":"amountsOut","type":"uint256[]","internalType":"uint256[]"},{"name":"returnData","type":"bytes","internalType":"bytes"}],"stateMutability":"nonpayable"},{"type":"function","name":"removeLiquidityProportional","inputs":[{"name":"pool","type":"address","internalType":"address"},{"name":"exactBptAmountIn","type":"uint256","internalType":"uint256"},{"name":"minAmountsOut","type":"uint256[]","internalType":"uint256[]"},{"name":"wethIsEth","type":"bool","internalType":"bool"},{"name":"userData","type":"bytes","internalType":"bytes"}],"outputs":[{"name":"amountsOut","type":"uint256[]","internalType":"uint256[]"}],"stateMutability":"payable"},{"type":"function","name":"removeLiquidityRecovery","inputs":[{"name":"pool","type":"address","internalType":"address"},{"name":"exactBptAmountIn","type":"uint256","internalType":"uint256"},{"name":"minAmountsOut","type":"uint256[]","internalType":"uint256[]"}],"outputs":[{"name":"amountsOut","type":"uint256[]","internalType":"uint256[]"}],"stateMutability":"payable"},{"type":"function","name":"removeLiquidityRecoveryHook","inputs":[{"name":"pool","type":"address","internalType":"address"},{"name":"sender","type":"address","internalType":"address"},{"name":"exactBptAmountIn","type":"uint256","internalType":"uint256"},{"name":"minAmountsOut","type":"uint256[]","internalType":"uint256[]"}],"outputs":[{"name":"amountsOut","type":"uint256[]","internalType":"uint256[]"}],"stateMutability":"nonpayable"},{"type":"function","name":"removeLiquiditySingleTokenExactIn","inputs":[{"name":"pool","type":"address","internalType":"address"},{"name":"exactBptAmountIn","type":"uint256","internalType":"uint256"},{"name":"tokenOut","type":"address","internalType":"contract IERC20"},{"name":"minAmountOut","type":"uint256","internalType":"uint256"},{"name":"wethIsEth","type":"bool","internalType":"bool"},{"name":"userData","type":"bytes","internalType":"bytes"}],"outputs":[{"name":"amountOut","type":"uint256","internalType":"uint256"}],"stateMutability":"payable"},{"type":"function","name":"removeLiquiditySingleTokenExactOut","inputs":[{"name":"pool","type":"address","internalType":"address"},{"name":"maxBptAmountIn","type":"uint256","internalType":"uint256"},{"name":"tokenOut","type":"address","internalType":"contract IERC20"},{"name":"exactAmountOut","type":"uint256","internalType":"uint256"},{"name":"wethIsEth","type":"bool","internalType":"bool"},{"name":"userData","type":"bytes","internalType":"bytes"}],"outputs":[{"name":"bptAmountIn","type":"uint256","internalType":"uint256"}],"stateMutability":"payable"},{"type":"function","name":"swapSingleTokenExactIn","inputs":[{"name":"pool","type":"address","internalType":"address"},{"name":"tokenIn","type":"address","internalType":"contract IERC20"},{"name":"tokenOut","type":"address","internalType":"contract IERC20"},{"name":"exactAmountIn","type":"uint256","internalType":"uint256"},{"name":"minAmountOut","type":"uint256","internalType":"uint256"},{"name":"deadline","type":"uint256","internalType":"uint256"},{"name":"wethIsEth","type":"bool","internalType":"bool"},{"name":"userData","type":"bytes","internalType":"bytes"}],"outputs":[{"name":"","type":"uint256","internalType":"uint256"}],"stateMutability":"payable"},{"type":"function","name":"swapSingleTokenExactOut","inputs":[{"name":"pool","type":"address","internalType":"address"},{"name":"tokenIn","type":"address","internalType":"contract IERC20"},{"name":"tokenOut","type":"address","internalType":"contract IERC20"},{"name":"exactAmountOut","type":"uint256","internalType":"uint256"},{"name":"maxAmountIn","type":"uint256","internalType":"uint256"},{"name":"deadline","type":"uint256","internalType":"uint256"},{"name":"wethIsEth","type":"bool","internalType":"bool"},{"name":"userData","type":"bytes","internalType":"bytes"}],"outputs":[{"name":"","type":"uint256","internalType":"uint256"}],"stateMutability":"payable"},{"type":"function","name":"swapSingleTokenHook","inputs":[{"name":"params","type":"tuple","internalType":"struct SwapSingleTokenHookParams","components":[{"name":"sender","type":"address","internalType":"address"},{"name":"kind","type":"uint8","internalType":"enum SwapKind"},{"name":"pool","type":"address","internalType":"address"},{"name":"tokenIn","type":"address","internalType":"contract IERC20"},{"name":"tokenOut","type":"address","internalType":"contract IERC20"},{"name":"amountGiven","type":"uint256","internalType":"uint256"},{"name":"limit","type":"uint256","internalType":"uint256"},{"name":"deadline","type":"uint256","internalType":"uint256"},{"name":"wethIsEth","type":"bool","internalType":"bool"},{"name":"userData","type":"bytes","internalType":"bytes"}]}],"outputs":[{"name":"","type":"uint256","internalType":"uint256"}],"stateMutability":"nonpayable"},{"type":"function","name":"version","inputs":[],"outputs":[{"name":"","type":"string","internalType":"string"}],"stateMutability":"view"},{"type":"error","name":"AddressEmptyCode","inputs":[{"name":"target","type":"address","internalType":"address"}]},{"type":"error","name":"ErrorSelectorNotFound","inputs":[]},{"type":"error","name":"EthTransfer","inputs":[]},{"type":"error","name":"FailedCall","inputs":[]},{"type":"error","name":"InputLengthMismatch","inputs":[]},{"type":"error","name":"InsufficientBalance","inputs":[{"name":"balance","type":"uint256","internalType":"uint256"},{"name":"needed","type":"uint256","internalType":"uint256"}]},{"type":"error","name":"InsufficientEth","inputs":[]},{"type":"error","name":"InsufficientPayment","inputs":[{"name":"token","type":"address","internalType":"contract IERC20"}]},{"type":"error","name":"MockErrorCode","inputs":[]},{"type":"error","name":"OperationNotSupported","inputs":[]},{"type":"error","name":"ReentrancyGuardReentrantCall","inputs":[]},{"type":"error","name":"Result","inputs":[{"name":"result","type":"bytes","internalType":"bytes"}]},{"type":"error","name":"SenderIsNotVault","inputs":[{"name":"sender","type":"address","internalType":"address"}]},{"type":"error","name":"SwapDeadline","inputs":[]}],"bytecode":{"object":"0x600b6101409081526a14d95b99195c91dd585c9960aa1b610160526101c060405260066101809081526539b2b73232b960d11b6101a052610040919061013c565b608052604080518082018252600c81526b2937baba32b921b7b6b6b7b760a11b602080830191909152825180840190935260118352701a5cd4995d1d5c9b915d1a131bd8dad959607a1b908301526100979161013c565b60c0523480156100a5575f5ffd5b50604051617df3380380617df38339810160408190526100c4916101d1565b60408051808201909152600e81526d4d6f636b20526f7574657220763160901b60208201526001600160a01b03841660a05283908390839083838383838383838061010e816101ab565b50506001600160a01b0391821660e052166101008190521561012052506103f19a5050505050505050505050565b5f60ff5f1b1960018484604051602001610157929190610232565b604051602081830303815290604052805190602001205f1c6101799190610280565b60405160200161018b91815260200190565b604051602081830303815290604052805190602001201690505b92915050565b5f6101b68282610337565b5050565b6001600160a01b03811681146101ce575f5ffd5b50565b5f5f5f606084860312156101e3575f5ffd5b83516101ee816101ba565b60208501519093506101ff816101ba565b6040850151909250610210816101ba565b809150509250925092565b5f81518060208401855e5f93019283525090919050565b7f62616c616e6365722d6c6162732e76332e73746f726167652e0000000000000081525f610263601983018561021b565b601760f91b8152610277600182018561021b565b95945050505050565b818103818111156101a557634e487b7160e01b5f52601160045260245ffd5b634e487b7160e01b5f52604160045260245ffd5b600181811c908216806102c757607f821691505b6020821081036102e557634e487b7160e01b5f52602260045260245ffd5b50919050565b601f82111561033257805f5260205f20601f840160051c810160208510156103105750805b601f840160051c820191505b8181101561032f575f815560010161031c565b50505b505050565b81516001600160401b038111156103505761035061029f565b6103648161035e84546102b3565b846102eb565b6020601f821160018114610396575f831561037f5750848201515b5f19600385901b1c1916600184901b17845561032f565b5f84815260208120601f198516915b828110156103c557878501518255602094850194600190920191016103a5565b50848210156103e257868401515f19600387901b60f8161c191681555b50505050600190811b01905550565b60805160a05160c05160e05161010051610120516177ae6106455f395f81816110e401528181612d320152818161436601526146d401525f818161043f015281816117f701528181613f01015261540e01525f81816102b9015281816103c5015281816143a50152818161471d015281816149380152818161537d015281816153bb01528181615635015261567301525f614f5b01525f81816107380152818161098e01528181610af401528181610c7501528181610dd601528181610ea7015281816110620152818161117101528181611340015281816114c8015281816115bb015281816117090152818161182e015281816118b80152818161195301528181611b6501528181611c2301528181611ccc01528181611e0101528181611eef0152818161208001528181612301015281816123ff01528181612563015281816126eb015281816128a40152818161290501528181612aa101528181612afa01528181612b3d01528181612cb501528181612efb01528181613021015281816132a8015281816133a3015281816134ea0152818161364701528181613777015281816138dc01528181613ad501528181613b2001528181613f81015281816140dd0152818161427d0152818161442f0152818161455101528181614638015281816147da0152818161499501528181614b3801528181614c5001528181614cd201528181614d9101528181614e470152818161502b015281816151d8015281816153dc0152818161543e015281816154c801528181615694015281816156d1015261576701525f61452a01526177ae5ff3fe6080604052600436106102a9575f3560e01c8063026b3d95146102fd578063086fad661461032357806308c04793146103425780630c3b846f146103625780630ca078ec146103765780630f71088814610398578063107c279f146103b7578063175d4408146103f257806319c6989f146104115780631bbf2e23146104315780631d56798d1461046357806322717db21461048257806323b3924114610496578063339f3838146104b55780633a1b05de146104c95780633ebc54e5146104f8578063452db9521461051757806345d132fe146105365780634aeecca91461054a5780634b59d17c1461055e578063516827501461057257806353d0bb981461058557806354fd4d50146105a457806358307e44146105c55780635b343791146105d95780635e01eb5a146105f85780635f9815ff1461060c57806364c907071461062b57806368a24fe01461063f57806368d5e16a1461065e578063724dba331461067d57806372657d1714610690578063750283bc146106a35780637ae30960146106b65780637b03c7ba146106ca57806382bf2b24146106f857806382cd54fb1461070b5780638d928af81461072a57806390aa9f761461075c57806394e86ef8146107705780639de9051814610783578063aaf51ea3146107a2578063ac9650d8146107b6578063ad6d59f3146107c9578063b037ed36146107dd578063b24bd571146107fc578063b29a62a71461081b578063b3b0a7a71461083a578063be5ae8411461084d578063beb91feb1461086c578063bf6ee3fd14610880578063c08bc85114610893578063c330c7be146108a6578063c3ec0efc146108c5578063d3a5152a146108d9578063da001f7d146108ed578063e178073e1461090c578063e7326def14610939578063ecb2182c1461094c578063efd85f141461095f575f5ffd5b366102f957336001600160a01b037f000000000000000000000000000000000000000000000000000000000000000016146102f7576040516302a06efb60e11b815260040160405180910390fd5b005b5f5ffd5b61031061030b366004615e52565b61097e565b6040519081526020015b60405180910390f35b34801561032e575f5ffd5b5061031061033d366004615f78565b610ac7565b610355610350366004615fa9565b610af0565b60405161031a9190616037565b34801561036d575f5ffd5b506102f7610bde565b610389610384366004616049565b610c61565b60405161031a93929190616105565b3480156103a3575f5ffd5b506103556103b236600461612f565b610dc4565b3480156103c2575f5ffd5b507f00000000000000000000000000000000000000000000000000000000000000005b60405161031a91906161a3565b3480156103fd575f5ffd5b5061031061040c3660046161b7565b610ff1565b61042461041f3660046162e2565b6110e0565b60405161031a91906163d7565b34801561043c575f5ffd5b507f00000000000000000000000000000000000000000000000000000000000000006103e5565b34801561046e575f5ffd5b5061031061047d36600461643a565b611148565b34801561048d575f5ffd5b506102f76112d9565b3480156104a1575f5ffd5b506103106104b0366004616480565b61131d565b3480156104c0575f5ffd5b50610310611487565b3480156104d4575f5ffd5b506104e86104e33660046164c6565b6115b3565b60405161031a94939291906164fc565b348015610503575f5ffd5b506103106105123660046161b7565b611bfb565b348015610522575f5ffd5b50610389610531366004616537565b611cb8565b348015610541575f5ffd5b506102f7611da7565b348015610555575f5ffd5b50610310611dc0565b348015610569575f5ffd5b506102f7611e32565b610355610580366004616594565b611ede565b348015610590575f5ffd5b5061031061059f36600461643a565b612030565b3480156105af575f5ffd5b506105b8612178565b60405161031a91906165ef565b3480156105d0575f5ffd5b506102f7612207565b3480156105e4575f5ffd5b506103896105f3366004615f78565b61223b565b348015610603575f5ffd5b506103e561226e565b348015610617575f5ffd5b50610355610626366004616601565b612283565b348015610636575f5ffd5b506102f761229f565b34801561064a575f5ffd5b5061031061065936600461663f565b6122d2565b348015610669575f5ffd5b506104e86106783660046164c6565b6122ec565b61035561068b366004616049565b6123ee565b61031061069e366004616676565b612541565b6103106106b13660046166c2565b6126c3565b3480156106c1575f5ffd5b50610310612863565b3480156106d5575f5ffd5b506106e96106e4366004615f78565b6128d5565b60405161031a9392919061674f565b6106e9610706366004616594565b6128f2565b348015610716575f5ffd5b50610355610725366004616779565b612a38565b348015610735575f5ffd5b507f00000000000000000000000000000000000000000000000000000000000000006103e5565b348015610767575f5ffd5b50610310612a60565b61031061077e3660046166c2565b612ad2565b34801561078e575f5ffd5b5061035561079d36600461612f565b612b2c565b3480156107ad575f5ffd5b50610310612c74565b6104246107c43660046167d4565b612ce6565b3480156107d4575f5ffd5b506102f7612e82565b3480156107e8575f5ffd5b506103556107f7366004616812565b612ef7565b348015610807575f5ffd5b506106e9610816366004615f78565b612fe4565b348015610826575f5ffd5b5061031061083536600461683c565b613006565b348015610845575f5ffd5b506103105f5ffd5b348015610858575f5ffd5b5061031061086736600461663f565b6131b7565b348015610877575f5ffd5b506102f76131d1565b6102f761088e3660046168bb565b61326f565b6103106108a1366004616049565b613393565b3480156108b1575f5ffd5b506106e96108c036600461690e565b6134d7565b3480156108d0575f5ffd5b506102f76135c5565b3480156108e4575f5ffd5b506103106135f8565b3480156108f8575f5ffd5b5061031061090736600461696b565b61360d565b348015610917575f5ffd5b5061092b610926366004616601565b61373e565b60405161031a9291906169c0565b6103106109473660046169e1565b613758565b61031061095a3660046169e1565b6138ba565b34801561096a575f5ffd5b50610389610979366004615f78565b613a26565b5f335f61098a82613a3c565b90507f00000000000000000000000000000000000000000000000000000000000000006001600160a01b03166348c894916040518060e00160405280336001600160a01b031681526020018c6001600160a01b031681526020018b81526020018a8152602001898152602001881515815260200187815250604051602401610a129190616a66565b60408051601f198184030181529181526020820180516001600160e01b0316630437d6b360e11b179052516001600160e01b031960e084901b168152610a5b91906004016165ef565b5f604051808303815f875af1158015610a76573d5f5f3e3d5ffd5b505050506040513d5f823e601f3d908101601f19168201604052610a9d9190810190616b4a565b806020019051810190610ab09190616b7b565b9250610abb81613a70565b50509695505050505050565b5f610ad0613a85565b610ad8613aca565b610ae182613b15565b9050610aeb613ca8565b919050565b60607f00000000000000000000000000000000000000000000000000000000000000006001600160a01b03166348c8949185338686604051602401610b389493929190616b92565b60408051601f198184030181529181526020820180516001600160e01b03166382cd54fb60e01b179052516001600160e01b031960e084901b168152610b8191906004016165ef565b5f604051808303815f875af1158015610b9c573d5f5f3e3d5ffd5b505050506040513d5f823e601f3d908101601f19168201604052610bc39190810190616b4a565b806020019051810190610bd69190616c1f565b949350505050565b610be6613a85565b610bee615c0d565b604051635b34379160e01b81523090635b34379190610c11908490600401616c78565b5f604051808303815f875af1158015610c2c573d5f5f3e3d5ffd5b505050506040513d5f823e601f3d908101601f19168201604052610c539190810190616cfc565b50505050610c5f613ca8565b565b60605f6060335f610c7182613a3c565b90507f00000000000000000000000000000000000000000000000000000000000000006001600160a01b03166348c894916040518060e00160405280336001600160a01b031681526020018d6001600160a01b031681526020018c81526020018b8152602001600480811115610ce957610ce9616c50565b81526020018a1515815260200189815250604051602401610d0a9190616c78565b60408051601f198184030181529181526020820180516001600160e01b0316635b34379160e01b179052516001600160e01b031960e084901b168152610d5391906004016165ef565b5f604051808303815f875af1158015610d6e573d5f5f3e3d5ffd5b505050506040513d5f823e601f3d908101601f19168201604052610d959190810190616b4a565b806020019051810190610da89190616cfc565b945094509450610db781613a70565b5050955095509592505050565b6060825f610dd182613a3c565b90505f7f00000000000000000000000000000000000000000000000000000000000000006001600160a01b031663ca4f2803896040518263ffffffff1660e01b8152600401610e2091906161a3565b5f60405180830381865afa158015610e3a573d5f5f3e3d5ffd5b505050506040513d5f823e601f3d908101601f19168201604052610e619190810190616d5f565b516001600160401b03811115610e7957610e79615d00565b604051908082528060200260200182016040528015610ea2578160200160208202803683370190505b5090507f00000000000000000000000000000000000000000000000000000000000000006001600160a01b031663edfa35686040518060e00160405280306001600160a01b031681526020018b6001600160a01b031681526020018481526020018a81526020015f6003811115610f1b57610f1b616c50565b81525f6020820152604090810189905251610f399190602401616dfe565b60408051601f198184030181529181526020820180516001600160e01b031663b24bd57160e01b179052516001600160e01b031960e084901b168152610f8291906004016165ef565b5f604051808303815f875af1158015610f9d573d5f5f3e3d5ffd5b505050506040513d5f823e601f3d908101601f19168201604052610fc49190810190616b4a565b806020019051810190610fd79190616e5a565b509450610fe79150829050613a70565b5050949350505050565b5f825f610ffd82613a3c565b6040805161014081018252338152600160208201526001600160a01b038c8116828401528b811660608301528a8116608083015260a082018a90526001600160801b0360c08301525f1960e08301525f610100830152610120820188905291519293507f00000000000000000000000000000000000000000000000000000000000000009091169163edfa35689161109791602401616ec2565b60408051601f198184030181529181526020820180516001600160e01b031663be5ae84160e01b179052516001600160e01b031960e084901b168152610a5b91906004016165ef565b60607f000000000000000000000000000000000000000000000000000000000000000015611121576040516329a270f560e01b815260040160405180910390fd5b6111308a8a8a8a8a8a8a613cbf565b61113a8383612ce6565b9a9950505050505050505050565b5f825f61115482613a3c565b90505f8061116a8a8a6001600160801b03613f7b565b915091505f7f00000000000000000000000000000000000000000000000000000000000000006001600160a01b031663edfa35686040518060e00160405280306001600160a01b031681526020018e6001600160a01b031681526020018681526020018c8152602001600260048111156111e6576111e6616c50565b81525f602082015260409081018b9052516112049190602401616c78565b60408051601f198184030181529181526020820180516001600160e01b0316633bf617c560e21b179052516001600160e01b031960e084901b16815261124d91906004016165ef565b5f604051808303815f875af1158015611268573d5f5f3e3d5ffd5b505050506040513d5f823e601f3d908101601f1916820160405261128f9190810190616b4a565b8060200190518101906112a29190616cfc565b505090508082815181106112b8576112b8616f71565b602002602001015195505050506112ce81613a70565b505095945050505050565b60405162461bcd60e51b81526020600482015260146024820152732632b3b0b1bc903932bb32b93a103932b0b9b7b760611b60448201526064015b60405180910390fd5b5f825f61132982613a3c565b90505f5f6113398a896001613f7b565b915091505f7f00000000000000000000000000000000000000000000000000000000000000006001600160a01b031663edfa35686040518060e00160405280306001600160a01b031681526020018e6001600160a01b031681526020018681526020018d8152602001600160038111156113b5576113b5616c50565b81525f602082015260409081018b9052516113d39190602401616dfe565b60408051601f198184030181529181526020820180516001600160e01b031663b24bd57160e01b179052516001600160e01b031960e084901b16815261141c91906004016165ef565b5f604051808303815f875af1158015611437573d5f5f3e3d5ffd5b505050506040513d5f823e601f3d908101601f1916820160405261145e9190810190616b4a565b8060200190518101906114719190616e5a565b509150508082815181106112b8576112b8616f71565b6040805160048082526024820183526020820180516001600160e01b0316631138bed960e11b179052915163757d64b360e01b81525f926001600160a01b037f0000000000000000000000000000000000000000000000000000000000000000169263757d64b3926114f992016165ef565b5f604051808303815f87803b158015611510575f5ffd5b505af1925050508015611521575060015b611576573d80801561154e576040519150601f19603f3d011682016040523d82523d5f602084013e611553565b606091505b5061155d8161407b565b8060200190518101906115709190616b7b565b91505090565b60405162461bcd60e51b8152602060048201526012602482015271556e6578706563746564207375636365737360701b6044820152606401611314565b60605f5f60607f00000000000000000000000000000000000000000000000000000000000000006001600160a01b0316634af29ec46040518060c00160405280885f0160208101906116059190616f85565b6001600160a01b031681526020018860200160208101906116269190616f85565b6001600160a01b0316815260200161164160408a018a616fa0565b808060200260200160405190810160405280939291908181526020018383602002808284375f92018290525093855250505060608a01356020830152604090910190815260200160405180602001604052805f8152508152506040518263ffffffff1660e01b81526004016116b69190616fe5565b5f604051808303815f875af11580156116d1573d5f5f3e3d5ffd5b505050506040513d5f823e601f3d908101601f191682016040526116f89190810190616cfc565b5090945092505f6001600160a01b037f00000000000000000000000000000000000000000000000000000000000000001663ca4f280361173b6020890189616f85565b6040518263ffffffff1660e01b815260040161175791906161a3565b5f60405180830381865afa158015611771573d5f5f3e3d5ffd5b505050506040513d5f823e601f3d908101601f191682016040526117989190810190616d5f565b90505f5b815181101561193d575f8282815181106117b8576117b8616f71565b602002602001015190505f8783815181106117d5576117d5616f71565b60200260200101519050805f036117ed575050611935565b6001600160a01b037f0000000000000000000000000000000000000000000000000000000000000000166336c7851661182c60408c0160208d01616f85565b7f0000000000000000000000000000000000000000000000000000000000000000611856856140cc565b866040518563ffffffff1660e01b8152600401611876949392919061705c565b5f604051808303815f87803b15801561188d575f5ffd5b505af115801561189f573d5f5f3e3d5ffd5b50506040516315afd40960e01b81526001600160a01b037f00000000000000000000000000000000000000000000000000000000000000001692506315afd40991506118f19085908590600401617087565b6020604051808303815f875af115801561190d573d5f5f3e3d5ffd5b505050506040513d601f19601f820116820180604052508101906119319190616b7b565b5050505b60010161179c565b506040805160c081019091526001600160a01b037f000000000000000000000000000000000000000000000000000000000000000016906321457897908061198860208b018b616f85565b6001600160a01b031681526020018960200160208101906119a99190616f85565b6001600160a01b031681526020908101906119c6908b018b616f85565b6001600160a01b03166370a082316119e460408d0160208e01616f85565b6040518263ffffffff1660e01b8152600401611a0091906161a3565b602060405180830381865afa158015611a1b573d5f5f3e3d5ffd5b505050506040513d601f19601f82011682018060405250810190611a3f9190616b7b565b815260200184516001600160401b03811115611a5d57611a5d615d00565b604051908082528060200260200182016040528015611a86578160200160208202803683370190505b5081526020015f815260200160405180602001604052805f8152508152506040518263ffffffff1660e01b8152600401611ac091906170a0565b5f604051808303815f875af1158015611adb573d5f5f3e3d5ffd5b505050506040513d5f823e601f3d908101601f19168201604052611b029190810190616e5a565b5090935091505f5b8151811015611bf2575f828281518110611b2657611b26616f71565b602002602001015190505f848381518110611b4357611b43616f71565b60200260200101519050805f03611b5b575050611bea565b6001600160a01b037f00000000000000000000000000000000000000000000000000000000000000001663ae63932983611b9b60408d0160208e01616f85565b846040518463ffffffff1660e01b8152600401611bba939291906170fd565b5f604051808303815f87803b158015611bd1575f5ffd5b505af1158015611be3573d5f5f3e3d5ffd5b5050505050505b600101611b0a565b50509193509193565b5f825f611c0782613a3c565b6040805161014081019091523381529091506001600160a01b037f0000000000000000000000000000000000000000000000000000000000000000169063edfa356890602081015f81526020018c6001600160a01b031681526020018b6001600160a01b031681526020018a6001600160a01b031681526020018981526020015f81526020016001600160801b03801681526020015f15158152602001878152506040516024016110979190616ec2565b60605f6060845f611cc882613a3c565b90507f00000000000000000000000000000000000000000000000000000000000000006001600160a01b031663edfa35686040518060e00160405280306001600160a01b031681526020018d6001600160a01b031681526020018c81526020018b8152602001600480811115611d4057611d40616c50565b81525f602082015260409081018a905251611d5e9190602401616c78565b60408051601f198184030181529181526020820180516001600160e01b0316633bf617c560e21b179052516001600160e01b031960e084901b168152610d5391906004016165ef565b60405163f5ab33e560e01b815260040160405180910390fd5b6040805160048082526024820183526020820180516001600160e01b031663160c1f9160e21b179052915163757d64b360e01b81525f926001600160a01b037f0000000000000000000000000000000000000000000000000000000000000000169263757d64b3926114f992016165ef565b611e3a613a85565b6040805160e0810182525f8082526020820181905260609282018390528282018390526080820181905260a082015260c0810191909152604051630437d6b360e11b8152309063086fad6690611e94908490600401616a66565b6020604051808303815f875af1158015611eb0573d5f5f3e3d5ffd5b505050506040513d601f19601f82011682018060405250810190611ed49190616b7b565b5050610c5f613ca8565b6060335f611eeb82613a3c565b90507f00000000000000000000000000000000000000000000000000000000000000006001600160a01b03166348c894916040518060e00160405280336001600160a01b031681526020018b6001600160a01b031681526020018981526020018a81526020015f6003811115611f6357611f63616c50565b8152602001881515815260200187815250604051602401611f849190616dfe565b60408051601f198184030181529181526020820180516001600160e01b0316633d81e3dd60e11b179052516001600160e01b031960e084901b168152611fcd91906004016165ef565b5f604051808303815f875af1158015611fe8573d5f5f3e3d5ffd5b505050506040513d5f823e601f3d908101601f1916820160405261200f9190810190616b4a565b8060200190518101906120229190616e5a565b5093506112ce905081613a70565b5f825f61203c82613a3c565b90505f61204a898989613f7b565b506040805160e0810182523081526001600160a01b038c811660208301529181018390526001600160801b0360608201529192507f0000000000000000000000000000000000000000000000000000000000000000169063edfa35689060808101600281525f60208201526040908101899052516120cb9190602401616dfe565b60408051601f198184030181529181526020820180516001600160e01b031663b24bd57160e01b179052516001600160e01b031960e084901b16815261211491906004016165ef565b5f604051808303815f875af115801561212f573d5f5f3e3d5ffd5b505050506040513d5f823e601f3d908101601f191682016040526121569190810190616b4a565b8060200190518101906121699190616e5a565b5090945050506112ce81613a70565b60605f805461218690617121565b80601f01602080910402602001604051908101604052809291908181526020018280546121b290617121565b80156121fd5780601f106121d4576101008083540402835291602001916121fd565b820191905f5260205f20905b8154815290600101906020018083116121e057829003601f168201915b5050505050905090565b604080516104d260208201520160408051601f1981840301815290829052630b56c9f760e31b8252611314916004016165ef565b60605f6060612248613a85565b612250613aca565b612259846140d6565b925092509250612267613ca8565b9193909250565b5f61227e61227a614528565b5c90565b905090565b606061228d613aca565b610bd684848461454c565b9392505050565b6122a7613a85565b6122af615c4a565b60405163be5ae84160e01b8152309063be5ae84190611e94908490600401616ec2565b5f6122db613a85565b6122e3613aca565b610ae1826146be565b60605f5f6060335f6122fd82613a3c565b90507f00000000000000000000000000000000000000000000000000000000000000006001600160a01b03166348c894918860405160240161233f9190617183565b60408051601f198184030181529181526020820180516001600160e01b0316631d0d82ef60e11b179052516001600160e01b031960e084901b16815261238891906004016165ef565b5f604051808303815f875af11580156123a3573d5f5f3e3d5ffd5b505050506040513d5f823e601f3d908101601f191682016040526123ca9190810190616b4a565b8060200190518101906123dd9190617232565b9550955095509550611bf281613a70565b6060335f6123fb82613a3c565b90507f00000000000000000000000000000000000000000000000000000000000000006001600160a01b03166348c894916040518060e00160405280336001600160a01b031681526020018b6001600160a01b031681526020018a81526020018981526020015f600481111561247357612473616c50565b81526020018815158152602001878152506040516024016124949190616c78565b60408051601f198184030181529181526020820180516001600160e01b0316635b34379160e01b179052516001600160e01b031960e084901b1681526124dd91906004016165ef565b5f604051808303815f875af11580156124f8573d5f5f3e3d5ffd5b505050506040513d5f823e601f3d908101601f1916820160405261251f9190810190616b4a565b8060200190518101906125329190616cfc565b509093506112ce905081613a70565b5f335f61254d82613a3c565b90505f5f61255c8b8b8b613f7b565b915091505f7f00000000000000000000000000000000000000000000000000000000000000006001600160a01b03166348c894916040518060e00160405280336001600160a01b031681526020018f6001600160a01b031681526020018681526020018c8152602001600260048111156125d8576125d8616c50565b81526020018b151581526020018a8152506040516024016125f99190616c78565b60408051601f198184030181529181526020820180516001600160e01b0316635b34379160e01b179052516001600160e01b031960e084901b16815261264291906004016165ef565b5f604051808303815f875af115801561265d573d5f5f3e3d5ffd5b505050506040513d5f823e601f3d908101601f191682016040526126849190810190616b4a565b8060200190518101906126979190616cfc565b505090508082815181106126ad576126ad616f71565b60200260200101519550505050610abb81613a70565b5f335f6126cf82613a3c565b6040805161014081019091523381529091506001600160a01b037f000000000000000000000000000000000000000000000000000000000000000016906348c8949190602081015f5b81526020018f6001600160a01b031681526020018e6001600160a01b031681526020018d6001600160a01b031681526020018c81526020018b81526020018a8152602001891515815260200188888080601f0160208091040260200160405190810160405280939291908181526020018383808284375f9201919091525050509152506040516127ab9190602401616ec2565b60408051601f198184030181529181526020820180516001600160e01b0316630345127f60e51b179052516001600160e01b031960e084901b1681526127f491906004016165ef565b5f604051808303815f875af115801561280f573d5f5f3e3d5ffd5b505050506040513d5f823e601f3d908101601f191682016040526128369190810190616b4a565b8060200190518101906128499190616b7b565b925061285481613a70565b50509998505050505050505050565b6040805160048082526024820183526020820180516001600160e01b03166322e8997f60e11b179052915163757d64b360e01b81525f926001600160a01b037f0000000000000000000000000000000000000000000000000000000000000000169263757d64b3926114f992016165ef565b5f6060806128e1613a85565b6128e9613aca565b6122598461498f565b5f606080335f61290182613a3c565b90507f00000000000000000000000000000000000000000000000000000000000000006001600160a01b03166348c894916040518060e00160405280336001600160a01b031681526020018d6001600160a01b031681526020018b81526020018c815260200160038081111561297957612979616c50565b81526020018a151581526020018981525060405160240161299a9190616dfe565b60408051601f198184030181529181526020820180516001600160e01b0316633d81e3dd60e11b179052516001600160e01b031960e084901b1681526129e391906004016165ef565b5f604051808303815f875af11580156129fe573d5f5f3e3d5ffd5b505050506040513d5f823e601f3d908101601f19168201604052612a259190810190616b4a565b806020019051810190610da89190616e5a565b6060612a42613a85565b612a4a613aca565b612a5685858585614c36565b9050610bd6613ca8565b6040805160048082526024820183526020820180516001600160e01b031663b3b0a7a760e01b179052915163757d64b360e01b81525f926001600160a01b037f0000000000000000000000000000000000000000000000000000000000000000169263757d64b3926114f992016165ef565b5f335f612ade82613a3c565b6040805161014081019091523381529091506001600160a01b037f000000000000000000000000000000000000000000000000000000000000000016906348c8949190602081016001612718565b6060825f612b3982613a3c565b90507f00000000000000000000000000000000000000000000000000000000000000006001600160a01b031663edfa35686040518060e00160405280306001600160a01b031681526020018a6001600160a01b03168152602001612b9c8b614e42565b8152602081018a90526040015f81525f6020820152604090810188905251612bc79190602401616c78565b60408051601f198184030181529181526020820180516001600160e01b0316633bf617c560e21b179052516001600160e01b031960e084901b168152612c1091906004016165ef565b5f604051808303815f875af1158015612c2b573d5f5f3e3d5ffd5b505050506040513d5f823e601f3d908101601f19168201604052612c529190810190616b4a565b806020019051810190612c659190616cfc565b50909350610fe7905081613a70565b6040805160048082526024820183526020820180516001600160e01b03166369d28a9560e11b179052915163757d64b360e01b81525f926001600160a01b037f0000000000000000000000000000000000000000000000000000000000000000169263757d64b3926114f992016165ef565b60605f612cf233613a3c565b9050612cff61227a614f59565b15612d1d57604051633ee5aeb560e01b815260040160405180910390fd5b612d306001612d2a614f59565b90614f7d565b7f000000000000000000000000000000000000000000000000000000000000000015612d6f576040516329a270f560e01b815260040160405180910390fd5b826001600160401b03811115612d8757612d87615d00565b604051908082528060200260200182016040528015612dba57816020015b6060815260200190600190039081612da55790505b5091505f5b83811015612e4d57612e2830868684818110612ddd57612ddd616f71565b9050602002810190612def919061729e565b8080601f0160208091040260200160405190810160405280939291908181526020018383808284375f92019190915250614f8492505050565b838281518110612e3a57612e3a616f71565b6020908102919091010152600101612dbf565b50612e5a5f612d2a614f59565b5f612e6661227a614528565b9050612e7182613a70565b612e7a81614fed565b505092915050565b612e8a613a85565b612e92615cb3565b604051633d81e3dd60e11b81523090637b03c7ba90612eb5908490600401616dfe565b5f604051808303815f875af1158015612ed0573d5f5f3e3d5ffd5b505050506040513d5f823e601f3d908101601f19168201604052610c539190810190616e5a565b60607f00000000000000000000000000000000000000000000000000000000000000006001600160a01b031663edfa3568843085604051602401612f3d939291906170fd565b60408051601f198184030181529181526020820180516001600160e01b0316635f9815ff60e01b179052516001600160e01b031960e084901b168152612f8691906004016165ef565b5f604051808303815f875af1158015612fa1573d5f5f3e3d5ffd5b505050506040513d5f823e601f3d908101601f19168201604052612fc89190810190616b4a565b806020019051810190612fdb9190616c1f565b90505b92915050565b5f606080612ff0613aca565b612ff984615025565b9250925092509193909250565b6040805161014081019091523381525f906001600160a01b037f0000000000000000000000000000000000000000000000000000000000000000169063757d64b390602081018481526020018a6001600160a01b03168152602001896001600160a01b03168152602001886001600160a01b031681526020018781526020015f81526020016001600160801b03801681526020015f1515815260200186868080601f0160208091040260200160405190810160405280939291908181526020018383808284375f9201919091525050509152506040516130e99190602401616ec2565b60408051601f198184030181529181526020820180516001600160e01b031663be5ae84160e01b179052516001600160e01b031960e084901b16815261313291906004016165ef565b5f604051808303815f87803b158015613149575f5ffd5b505af192505050801561315a575060015b611576573d808015613187576040519150601f19603f3d011682016040523d82523d5f602084013e61318c565b606091505b506131968161407b565b8060200190518101906131a99190616b7b565b9150505b9695505050505050565b5f6131c0613a85565b6131c8613aca565b610ae1826151bc565b6131d9613a85565b60408051600280825260608201835230926382cd54fb925f92839283929190602083019080368337019050506040518563ffffffff1660e01b81526004016132249493929190616b92565b5f604051808303815f875af115801561323f573d5f5f3e3d5ffd5b505050506040513d5f823e601f3d908101601f191682016040526132669190810190616c1f565b50610c5f613ca8565b335f61327a82613a3c565b6040805160e0810182523381526001600160a01b0389811660208301529181018890525f60608201529192507f000000000000000000000000000000000000000000000000000000000000000016906348c894919060808101600381526020018715158152602001868152506040516024016132f69190616c78565b60408051601f198184030181529181526020820180516001600160e01b0316635b34379160e01b179052516001600160e01b031960e084901b16815261333f91906004016165ef565b5f604051808303815f875af115801561335a573d5f5f3e3d5ffd5b505050506040513d5f823e601f3d908101601f191682016040526133819190810190616b4a565b5061338b81613a70565b505050505050565b5f335f61339f82613a3c565b90507f00000000000000000000000000000000000000000000000000000000000000006001600160a01b03166348c894916040518060e00160405280336001600160a01b031681526020018b6001600160a01b031681526020018a81526020018981526020016001600481111561341857613418616c50565b81526020018815158152602001878152506040516024016134399190616c78565b60408051601f198184030181529181526020820180516001600160e01b0316635b34379160e01b179052516001600160e01b031960e084901b16815261348291906004016165ef565b5f604051808303815f875af115801561349d573d5f5f3e3d5ffd5b505050506040513d5f823e601f3d908101601f191682016040526134c49190810190616b4a565b8060200190518101906120229190616cfc565b5f606080845f6134e682613a3c565b90507f00000000000000000000000000000000000000000000000000000000000000006001600160a01b031663edfa35686040518060e00160405280306001600160a01b031681526020018d6001600160a01b031681526020018b81526020018c815260200160038081111561355e5761355e616c50565b81525f602082015260409081018a90525161357c9190602401616dfe565b60408051601f198184030181529181526020820180516001600160e01b031663b24bd57160e01b179052516001600160e01b031960e084901b1681526129e391906004016165ef565b6135cd613a85565b6135d5615c4a565b604051630345127f60e51b815230906368a24fe090611e94908490600401616ec2565b5f600a8161360681836172e0565b9250505090565b5f825f61361982613a3c565b6040805160e0810182523081526001600160a01b038a811660208301529181018990525f60608201529192507f0000000000000000000000000000000000000000000000000000000000000000169063edfa35689060808101600181525f60208201526040908101889052516136929190602401616c78565b60408051601f198184030181529181526020820180516001600160e01b0316633bf617c560e21b179052516001600160e01b031960e084901b1681526136db91906004016165ef565b5f604051808303815f875af11580156136f6573d5f5f3e3d5ffd5b505050506040513d5f823e601f3d908101601f1916820160405261371d9190810190616b4a565b8060200190518101906137309190616cfc565b509350610fe7905081613a70565b60605f61374c858585613f7b565b91509150935093915050565b5f335f61376482613a3c565b90505f6137728a8989613f7b565b5090507f00000000000000000000000000000000000000000000000000000000000000006001600160a01b03166348c894916040518060e00160405280336001600160a01b031681526020018d6001600160a01b031681526020018481526020018c8152602001600260038111156137ec576137ec616c50565b815260200189151581526020018881525060405160240161380d9190616dfe565b60408051601f198184030181529181526020820180516001600160e01b0316633d81e3dd60e11b179052516001600160e01b031960e084901b16815261385691906004016165ef565b5f604051808303815f875af1158015613871573d5f5f3e3d5ffd5b505050506040513d5f823e601f3d908101601f191682016040526138989190810190616b4a565b8060200190518101906138ab9190616e5a565b509094505050610abb81613a70565b5f335f6138c682613a3c565b90505f5f6138d58b8a8a613f7b565b915091505f7f00000000000000000000000000000000000000000000000000000000000000006001600160a01b03166348c894916040518060e00160405280336001600160a01b031681526020018f6001600160a01b031681526020018681526020018e81526020016001600381111561395157613951616c50565b81526020018b151581526020018a8152506040516024016139729190616dfe565b60408051601f198184030181529181526020820180516001600160e01b0316633d81e3dd60e11b179052516001600160e01b031960e084901b1681526139bb91906004016165ef565b5f604051808303815f875af11580156139d6573d5f5f3e3d5ffd5b505050506040513d5f823e601f3d908101601f191682016040526139fd9190810190616b4a565b806020019051810190613a109190616e5a565b509150508082815181106126ad576126ad616f71565b60605f6060613a33613aca565b612ff9846151d1565b5f5f613a4961227a614528565b90506001600160a01b038116613a6a57613a6583612d2a614528565b600191505b50919050565b8015613a8257613a825f612d2a614528565b50565b5f5160206177595f395f51905f525c15613ab257604051633ee5aeb560e01b815260040160405180910390fd5b610c5f60015f5160206177595f395f51905f52612d2a565b336001600160a01b037f00000000000000000000000000000000000000000000000000000000000000001614610c5f573360405163089676d560e01b815260040161131491906161a3565b5f6001600160a01b037f00000000000000000000000000000000000000000000000000000000000000001663ba8a2be0613b556040850160208601616f85565b613b626020860186616f85565b613b6f6040870187616fa0565b613b7c6060890189616fa0565b60808a0135613b8e60c08c018c61729e565b6040518a63ffffffff1660e01b8152600401613bb299989796959493929190617327565b6020604051808303815f875af1158015613bce573d5f5f3e3d5ffd5b505050506040513d601f19601f82011682018060405250810190613bf29190616b7b565b90505f5b613c036040840184616fa0565b9050811015613c9257613c8a613c1c6020850185616f85565b613c296040860186616fa0565b84818110613c3957613c39616f71565b9050602002016020810190613c4e9190616f85565b613c5b6060870187616fa0565b85818110613c6b57613c6b616f71565b905060200201358660a0016020810190613c8591906173c1565b615373565b600101613bf6565b50610aeb613ca36020840184616f85565b614fed565b610c5f5f5f5160206177595f395f51905f52612d2a565b613cc7613a85565b613cd18685615549565b5f5b86811015613ed6575f868683818110613cee57613cee616f71565b9050602002810190613d00919061729e565b8080601f0160208091040260200160405190810160405280939291908181526020018383808284375f920182905250939450613d4192508491506155699050565b90505f8a8a85818110613d5657613d56616f71565b905060c00201803603810190613d6c91906173da565b8051602080830151606084015160a08501516040808901518951958a0151915163d505accf60e01b81526001600160a01b0395861660048201523060248201526044810194909452606484019290925260ff909116608483015260a482019390935260c481019290925292935091169063d505accf9060e4015f604051808303815f87803b158015613dfc575f5ffd5b505af1925050508015613e0d575060015b613ec8573d808015613e3a576040519150601f19603f3d011682016040523d82523d5f602084013e613e3f565b606091505b50606082015182516020840151604051636eb1769f60e11b81526001600160a01b039092169163dd62ed3e91613e7991309060040161746b565b602060405180830381865afa158015613e94573d5f5f3e3d5ffd5b505050506040513d601f19601f82011682018060405250810190613eb89190616b7b565b14613ec657613ec6816155b8565b505b505050806001019050613cd3565b505f613ee28480617485565b90501115613f6a57604051632a2d80d160e01b81526001600160a01b037f00000000000000000000000000000000000000000000000000000000000000001690632a2d80d190613f3c9033908790879087906004016174df565b5f604051808303815f87803b158015613f53575f5ffd5b505af1158015613f65573d5f5f3e3d5ffd5b505050505b613f72613ca8565b50505050505050565b60605f5f7f00000000000000000000000000000000000000000000000000000000000000006001600160a01b031663c9c1661b87876040518363ffffffff1660e01b8152600401613fcd92919061746b565b6040805180830381865afa158015613fe7573d5f5f3e3d5ffd5b505050506040513d601f19601f8201168201806040525081019061400b9190617606565b92509050806001600160401b0381111561402757614027615d00565b604051908082528060200260200182016040528015614050578160200160208202803683370190505b5092508383838151811061406657614066616f71565b60200260200101818152505050935093915050565b60605f614087836155e1565b90506001600160e01b03198116630b56c9f760e31b146140aa576140aa836155b8565b825160031981016004850190815293610bd69082810160200190602401616b4a565b5f612fde8261560d565b60605f60607f00000000000000000000000000000000000000000000000000000000000000006001600160a01b0316634af29ec46040518060c001604052808760200160208101906141289190616f85565b6001600160a01b0316815260209081019061414590890189616f85565b6001600160a01b031681526020016141606040890189616fa0565b808060200260200160405190810160405280939291908181526020018383602002808284375f92019190915250505090825250606088013560208201526040016141b060a0890160808a01617628565b60048111156141c1576141c1616c50565b81526020016141d360c089018961729e565b8080601f0160208091040260200160405190810160405280939291908181526020018383808284375f9201919091525050509152506040516001600160e01b031960e084901b1681526142299190600401616fe5565b5f604051808303815f875af1158015614244573d5f5f3e3d5ffd5b505050506040513d5f823e601f3d908101601f1916820160405261426b9190810190616cfc565b919450925090505f6001600160a01b037f00000000000000000000000000000000000000000000000000000000000000001663ca4f28036142b26040880160208901616f85565b6040518263ffffffff1660e01b81526004016142ce91906161a3565b5f60405180830381865afa1580156142e8573d5f5f3e3d5ffd5b505050506040513d5f823e601f3d908101601f1916820160405261430f9190810190616d5f565b90505f5b815181101561450f575f82828151811061432f5761432f616f71565b602002602001015190505f86838151811061434c5761434c616f71565b60200260200101519050805f03614364575050614507565b7f000000000000000000000000000000000000000000000000000000000000000015806143d9575061439c60c0890160a08a016173c1565b80156143d957507f00000000000000000000000000000000000000000000000000000000000000006001600160a01b0316826001600160a01b0316145b15614405576144006143ee60208a018a616f85565b8383613c8560c08d0160a08e016173c1565b614504565b5f61441360408a018a616fa0565b8581811061442357614423616f71565b9050602002013590505f7f00000000000000000000000000000000000000000000000000000000000000006001600160a01b03166315afd40985846040518363ffffffff1660e01b815260040161447b929190617087565b6020604051808303815f875af1158015614497573d5f5f3e3d5ffd5b505050506040513d601f19601f820116820180604052508101906144bb9190616b7b565b9050818110156144e057836040516302150b5560e01b815260040161131491906161a3565b6145016144f060208c018c616f85565b856144fb8685617646565b5f615625565b50505b50505b600101614313565b50614520613ca36020870187616f85565b509193909250565b7f000000000000000000000000000000000000000000000000000000000000000090565b60605f7f00000000000000000000000000000000000000000000000000000000000000006001600160a01b031663ca4f2803866040518263ffffffff1660e01b815260040161459b91906161a3565b5f60405180830381865afa1580156145b5573d5f5f3e3d5ffd5b505050506040513d5f823e601f3d908101601f191682016040526145dc9190810190616d5f565b516001600160401b038111156145f4576145f4615d00565b60405190808252806020026020018201604052801561461d578160200160208202803683370190505b50604051630281f58160e61b81529091506001600160a01b037f0000000000000000000000000000000000000000000000000000000000000000169063a07d604090614673908890889088908790600401616b92565b5f604051808303815f875af115801561468e573d5f5f3e3d5ffd5b505050506040513d5f823e601f3d908101601f191682016040526146b59190810190616c1f565b95945050505050565b5f5f5f5f6146cb8561573d565b919450925090507f00000000000000000000000000000000000000000000000000000000000000001580614758575061470c610120860161010087016173c1565b801561475857506001600160a01b037f00000000000000000000000000000000000000000000000000000000000000001661474d6080870160608801616f85565b6001600160a01b0316145b156147955761479061476d6020870187616f85565b61477d6080880160608901616f85565b84613c856101208a016101008b016173c1565b6148f6565b5f806147a76040880160208901617665565b60018111156147b8576147b8616c50565b146147c7578560c001356147cd565b8560a001355b90505f6001600160a01b037f0000000000000000000000000000000000000000000000000000000000000000166315afd40961480f60808a0160608b01616f85565b846040518363ffffffff1660e01b815260040161482d929190617087565b6020604051808303815f875af1158015614849573d5f5f3e3d5ffd5b505050506040513d601f19601f8201168201806040525081019061486d9190616b7b565b9050818110156148a1576148876080880160608901616f85565b6040516302150b5560e01b815260040161131491906161a3565b60016148b36040890160208a01617665565b60018111156148c4576148c4616c50565b036148f3576148f36148d96020890189616f85565b6148e960808a0160608b01616f85565b6144fb8785617646565b50505b61492e6149066020870187616f85565b61491660a0880160808901616f85565b836149296101208a016101008b016173c1565b615625565b6001600160a01b037f0000000000000000000000000000000000000000000000000000000000000000166149686080870160608801616f85565b6001600160a01b03160361498657614986613ca36020870187616f85565b50909392505050565b5f6060807f00000000000000000000000000000000000000000000000000000000000000006001600160a01b031663214578976040518060c001604052808760200160208101906149e09190616f85565b6001600160a01b031681526020908101906149fd90890189616f85565b6001600160a01b0316815260200187606001358152602001878060400190614a259190616fa0565b808060200260200160405190810160405280939291908181526020018383602002808284375f92019190915250505090825250602001614a6b60a0890160808a01617683565b6003811115614a7c57614a7c616c50565b8152602001614a8e60c089018961729e565b8080601f0160208091040260200160405190810160405280939291908181526020018383808284375f9201919091525050509152506040516001600160e01b031960e084901b168152614ae491906004016170a0565b5f604051808303815f875af1158015614aff573d5f5f3e3d5ffd5b505050506040513d5f823e601f3d908101601f19168201604052614b269190810190616e5a565b919450925090505f6001600160a01b037f00000000000000000000000000000000000000000000000000000000000000001663ca4f2803614b6d6040880160208901616f85565b6040518263ffffffff1660e01b8152600401614b8991906161a3565b5f60405180830381865afa158015614ba3573d5f5f3e3d5ffd5b505050506040513d5f823e601f3d908101601f19168201604052614bca9190810190616d5f565b90505f5b815181101561450f57614c2e614be76020880188616f85565b838381518110614bf957614bf9616f71565b6020026020010151868481518110614c1357614c13616f71565b60200260200101518960a001602081019061492991906173c1565b600101614bce565b604051630281f58160e61b81526060906001600160a01b037f0000000000000000000000000000000000000000000000000000000000000000169063a07d604090614c8b908890889088908890600401616b92565b5f604051808303815f875af1158015614ca6573d5f5f3e3d5ffd5b505050506040513d5f823e601f3d908101601f19168201604052614ccd9190810190616c1f565b90505f7f00000000000000000000000000000000000000000000000000000000000000006001600160a01b031663ca4f2803876040518263ffffffff1660e01b8152600401614d1c91906161a3565b5f60405180830381865afa158015614d36573d5f5f3e3d5ffd5b505050506040513d5f823e601f3d908101601f19168201604052614d5d9190810190616d5f565b90505f5b8151811015614e2f575f838281518110614d7d57614d7d616f71565b602002602001015190505f811115614e26577f00000000000000000000000000000000000000000000000000000000000000006001600160a01b031663ae639329848481518110614dd057614dd0616f71565b602002602001015189846040518463ffffffff1660e01b8152600401614df8939291906170fd565b5f604051808303815f87803b158015614e0f575f5ffd5b505af1158015614e21573d5f5f3e3d5ffd5b505050505b50600101614d61565b50614e3985614fed565b50949350505050565b60605f7f00000000000000000000000000000000000000000000000000000000000000006001600160a01b031663ca4f2803846040518263ffffffff1660e01b8152600401614e9191906161a3565b5f60405180830381865afa158015614eab573d5f5f3e3d5ffd5b505050506040513d5f823e601f3d908101601f19168201604052614ed29190810190616d5f565b519050806001600160401b03811115614eed57614eed615d00565b604051908082528060200260200182016040528015614f16578160200160208202803683370190505b5091505f5b81811015614f52576001600160801b038016838281518110614f3f57614f3f616f71565b6020908102919091010152600101614f1b565b5050919050565b7f000000000000000000000000000000000000000000000000000000000000000090565b80825d5050565b60605f5f846001600160a01b031684604051614fa091906176a1565b5f60405180830381855af49150503d805f8114614fd8576040519150601f19603f3d011682016040523d82523d5f602084013e614fdd565b606091505b50915091506146b58583836158da565b475f819003614ffa575050565b61500561227a614f59565b1561500e575050565b6150216001600160a01b0383168261592d565b5050565b5f6060807f00000000000000000000000000000000000000000000000000000000000000006001600160a01b031663214578976040518060c001604052808760200160208101906150769190616f85565b6001600160a01b0316815260209081019061509390890189616f85565b6001600160a01b03168152602001876060013581526020018780604001906150bb9190616fa0565b808060200260200160405190810160405280939291908181526020018383602002808284375f9201919091525050509082525060200161510160a0890160808a01617683565b600381111561511257615112616c50565b815260200161512460c089018961729e565b8080601f0160208091040260200160405190810160405280939291908181526020018383808284375f9201919091525050509152506040516001600160e01b031960e084901b16815261517a91906004016170a0565b5f604051808303815f875af1158015615195573d5f5f3e3d5ffd5b505050506040513d5f823e601f3d908101601f19168201604052612ff99190810190616e5a565b5f5f6151c78361573d565b5090949350505050565b60605f60607f00000000000000000000000000000000000000000000000000000000000000006001600160a01b0316634af29ec46040518060c001604052808760200160208101906152239190616f85565b6001600160a01b0316815260209081019061524090890189616f85565b6001600160a01b0316815260200161525b6040890189616fa0565b808060200260200160405190810160405280939291908181526020018383602002808284375f92019190915250505090825250606088013560208201526040016152ab60a0890160808a01617628565b60048111156152bc576152bc616c50565b81526020016152ce60c089018961729e565b8080601f0160208091040260200160405190810160405280939291908181526020018383808284375f9201919091525050509152506040516001600160e01b031960e084901b1681526153249190600401616fe5565b5f604051808303815f875af115801561533f573d5f5f3e3d5ffd5b505050506040513d5f823e601f3d908101601f191682016040526153669190810190616cfc565b9196909550909350915050565b8080156153b157507f00000000000000000000000000000000000000000000000000000000000000006001600160a01b0316836001600160a01b0316145b15615406576154017f00000000000000000000000000000000000000000000000000000000000000007f0000000000000000000000000000000000000000000000000000000000000000846159cc565b615543565b8115615543577f00000000000000000000000000000000000000000000000000000000000000006001600160a01b03166336c78516857f0000000000000000000000000000000000000000000000000000000000000000615466866140cc565b876040518563ffffffff1660e01b8152600401615486949392919061705c565b5f604051808303815f87803b15801561549d575f5ffd5b505af11580156154af573d5f5f3e3d5ffd5b50506040516315afd40960e01b81526001600160a01b037f00000000000000000000000000000000000000000000000000000000000000001692506315afd40991506155019086908690600401617087565b6020604051808303815f875af115801561551d573d5f5f3e3d5ffd5b505050506040513d601f19601f820116820180604052508101906155419190616b7b565b505b50505050565b8082146150215760405163aaad13f760e01b815260040160405180910390fd5b61558d60405180606001604052805f81526020015f81526020015f60ff1681525090565b602082810151604080850151606090950151918452918301939093525f9290921a9181019190915290565b8051156155c85780518082602001fd5b60405163a728568960e01b815260040160405180910390fd5b5f6004825110156156055760405163a728568960e01b815260040160405180910390fd5b506020015190565b5f600160a01b821061562157615621615ac1565b5090565b81156155435780801561566957507f00000000000000000000000000000000000000000000000000000000000000006001600160a01b0316836001600160a01b0316145b156156ba576154017f00000000000000000000000000000000000000000000000000000000000000007f00000000000000000000000000000000000000000000000000000000000000008685615ace565b60405163ae63932960e01b81526001600160a01b037f0000000000000000000000000000000000000000000000000000000000000000169063ae6393299061570a908690889087906004016170fd565b5f604051808303815f87803b158015615721575f5ffd5b505af1158015615733573d5f5f3e3d5ffd5b5050505050505050565b5f5f5f8360e0013542111561576557604051630e08b8af60e41b815260040160405180910390fd5b7f00000000000000000000000000000000000000000000000000000000000000006001600160a01b0316632bfb780c6040518060e001604052808760200160208101906157b29190617665565b60018111156157c3576157c3616c50565b81526020016157d86060890160408a01616f85565b6001600160a01b031681526020016157f66080890160608a01616f85565b6001600160a01b0316815260200161581460a0890160808a01616f85565b6001600160a01b0316815260a0880135602082015260c0880135604082015260600161584461012089018961729e565b8080601f0160208091040260200160405190810160405280939291908181526020018383808284375f9201919091525050509152506040516001600160e01b031960e084901b16815261589a91906004016176b7565b6060604051808303815f875af11580156158b6573d5f5f3e3d5ffd5b505050506040513d601f19601f82011682018060405250810190615366919061772d565b6060826158ef576158ea82615b94565b612298565b815115801561590657506001600160a01b0384163b155b156159265783604051639996b31560e01b815260040161131491906161a3565b5080612298565b804710156159575760405163cf47918160e01b815247600482015260248101829052604401611314565b5f826001600160a01b0316826040515f6040518083038185875af1925050503d805f81146159a0576040519150601f19603f3d011682016040523d82523d5f602084013e6159a5565b606091505b50509050806159c75760405163d6bda27560e01b815260040160405180910390fd5b505050565b804710156159ed5760405163500d4efb60e11b815260040160405180910390fd5b826001600160a01b031663d0e30db0826040518263ffffffff1660e01b81526004015f604051808303818588803b158015615a26575f5ffd5b505af1158015615a38573d5f5f3e3d5ffd5b50615a53935050506001600160a01b03851690508383615bbd565b6040516315afd40960e01b81526001600160a01b038316906315afd40990615a819086908590600401617087565b6020604051808303815f875af1158015615a9d573d5f5f3e3d5ffd5b505050506040513d601f19601f820116820180604052508101906155439190616b7b565b6335278d125f526004601cfd5b60405163ae63932960e01b81526001600160a01b0384169063ae63932990615afe908790309086906004016170fd565b5f604051808303815f87803b158015615b15575f5ffd5b505af1158015615b27573d5f5f3e3d5ffd5b5050604051632e1a7d4d60e01b8152600481018490526001600160a01b0387169250632e1a7d4d91506024015f604051808303815f87803b158015615b6a575f5ffd5b505af1158015615b7c573d5f5f3e3d5ffd5b50615543925050506001600160a01b0383168261592d565b805115615ba45780518082602001fd5b60405163d6bda27560e01b815260040160405180910390fd5b6159c7838383816014528060345263a9059cbb60601b5f5260205f604460105f875af18060015f511416615c0357803d853b151710615c03576390b8ec185f526004601cfd5b505f603452505050565b6040805160e0810182525f8082526020820181905260609282018390529181018290529060808201905b81525f6020820152606060409091015290565b6040805161014081019091525f808252602082019081526020015f6001600160a01b031681526020015f6001600160a01b031681526020015f6001600160a01b031681526020015f81526020015f81526020015f81526020015f15158152602001606081525090565b6040805160e0810182525f808252602082018190526060928201839052918101829052906080820190615c37565b6001600160a01b0381168114613a82575f5ffd5b8035610aeb81615ce1565b634e487b7160e01b5f52604160045260245ffd5b604051601f8201601f191681016001600160401b0381118282101715615d3c57615d3c615d00565b604052919050565b5f6001600160401b03821115615d5c57615d5c615d00565b5060051b60200190565b5f82601f830112615d75575f5ffd5b8135615d88615d8382615d44565b615d14565b8082825260208201915060208360051b860101925085831115615da9575f5ffd5b602085015b83811015615dc6578035835260209283019201615dae565b5095945050505050565b80358015158114610aeb575f5ffd5b5f6001600160401b03821115615df757615df7615d00565b50601f01601f191660200190565b5f82601f830112615e14575f5ffd5b8135615e22615d8382615ddf565b818152846020838601011115615e36575f5ffd5b816020850160208301375f918101602001919091529392505050565b5f5f5f5f5f5f60c08789031215615e67575f5ffd5b8635615e7281615ce1565b955060208701356001600160401b03811115615e8c575f5ffd5b8701601f81018913615e9c575f5ffd5b8035615eaa615d8382615d44565b8082825260208201915060208360051b85010192508b831115615ecb575f5ffd5b6020840193505b82841015615ef6578335615ee581615ce1565b825260209384019390910190615ed2565b975050505060408701356001600160401b03811115615f13575f5ffd5b615f1f89828a01615d66565b94505060608701359250615f3560808801615dd0565b915060a08701356001600160401b03811115615f4f575f5ffd5b615f5b89828a01615e05565b9150509295509295509295565b5f60e08284031215613a6a575f5ffd5b5f60208284031215615f88575f5ffd5b81356001600160401b03811115615f9d575f5ffd5b610bd684828501615f68565b5f5f5f60608486031215615fbb575f5ffd5b8335615fc681615ce1565b92506020840135915060408401356001600160401b03811115615fe7575f5ffd5b615ff386828701615d66565b9150509250925092565b5f8151808452602084019350602083015f5b8281101561602d57815186526020958601959091019060010161600f565b5093949350505050565b602081525f612fdb6020830184615ffd565b5f5f5f5f5f60a0868803121561605d575f5ffd5b853561606881615ce1565b945060208601356001600160401b03811115616082575f5ffd5b61608e88828901615d66565b945050604086013592506160a460608701615dd0565b915060808601356001600160401b038111156160be575f5ffd5b6160ca88828901615e05565b9150509295509295909350565b5f81518084528060208401602086015e5f602082860101526020601f19601f83011685010191505092915050565b606081525f6161176060830186615ffd565b84602084015282810360408401526131ad81856160d7565b5f5f5f5f60808587031215616142575f5ffd5b843561614d81615ce1565b935060208501359250604085013561616481615ce1565b915060608501356001600160401b0381111561617e575f5ffd5b61618a87828801615e05565b91505092959194509250565b6001600160a01b03169052565b6001600160a01b0391909116815260200190565b5f5f5f5f5f5f60c087890312156161cc575f5ffd5b86356161d781615ce1565b955060208701356161e781615ce1565b945060408701356161f781615ce1565b9350606087013592506080870135615f3581615ce1565b5f5f83601f84011261621e575f5ffd5b5081356001600160401b03811115616234575f5ffd5b60208301915083602060c08302850101111561624e575f5ffd5b9250929050565b5f5f83601f840112616265575f5ffd5b5081356001600160401b0381111561627b575f5ffd5b6020830191508360208260051b850101111561624e575f5ffd5b5f60608284031215613a6a575f5ffd5b5f5f83601f8401126162b5575f5ffd5b5081356001600160401b038111156162cb575f5ffd5b60208301915083602082850101111561624e575f5ffd5b5f5f5f5f5f5f5f5f5f60a08a8c0312156162fa575f5ffd5b89356001600160401b0381111561630f575f5ffd5b61631b8c828d0161620e565b909a5098505060208a01356001600160401b03811115616339575f5ffd5b6163458c828d01616255565b90985096505060408a01356001600160401b03811115616363575f5ffd5b61636f8c828d01616295565b95505060608a01356001600160401b0381111561638a575f5ffd5b6163968c828d016162a5565b90955093505060808a01356001600160401b038111156163b4575f5ffd5b6163c08c828d01616255565b915080935050809150509295985092959850929598565b5f602082016020835280845180835260408501915060408160051b8601019250602086015f5b8281101561642e57603f198786030184526164198583516160d7565b945060209384019391909101906001016163fd565b50929695505050505050565b5f5f5f5f5f60a0868803121561644e575f5ffd5b853561645981615ce1565b9450602086013561646981615ce1565b93506040860135925060608601356160a481615ce1565b5f5f5f5f5f60a08688031215616494575f5ffd5b853561649f81615ce1565b94506020860135935060408601356164b681615ce1565b925060608601356160a481615ce1565b5f602082840312156164d6575f5ffd5b81356001600160401b038111156164eb575f5ffd5b820160808185031215612298575f5ffd5b608081525f61650e6080830187615ffd565b856020840152846040840152828103606084015261652c8185615ffd565b979650505050505050565b5f5f5f5f5f60a0868803121561654b575f5ffd5b853561655681615ce1565b945060208601356001600160401b03811115616570575f5ffd5b61657c88828901615d66565b9450506040860135925060608601356160a481615ce1565b5f5f5f5f5f60a086880312156165a8575f5ffd5b85356165b381615ce1565b94506020860135935060408601356001600160401b038111156165d4575f5ffd5b6165e088828901615d66565b9350506160a460608701615dd0565b602081525f612fdb60208301846160d7565b5f5f5f60608486031215616613575f5ffd5b833561661e81615ce1565b9250602084013561662e81615ce1565b929592945050506040919091013590565b5f6020828403121561664f575f5ffd5b81356001600160401b03811115616664575f5ffd5b82016101408185031215612298575f5ffd5b5f5f5f5f5f5f60c0878903121561668b575f5ffd5b863561669681615ce1565b955060208701356166a681615ce1565b94506040870135935060608701359250615f3560808801615dd0565b5f5f5f5f5f5f5f5f5f6101008a8c0312156166db575f5ffd5b89356166e681615ce1565b985060208a01356166f681615ce1565b975060408a013561670681615ce1565b965060608a0135955060808a0135945060a08a0135935061672960c08b01615dd0565b925060e08a01356001600160401b03811115616743575f5ffd5b6163c08c828d016162a5565b838152606060208201525f6167676060830185615ffd565b82810360408401526131ad81856160d7565b5f5f5f5f6080858703121561678c575f5ffd5b843561679781615ce1565b935060208501356167a781615ce1565b92506040850135915060608501356001600160401b038111156167c8575f5ffd5b61618a87828801615d66565b5f5f602083850312156167e5575f5ffd5b82356001600160401b038111156167fa575f5ffd5b61680685828601616255565b90969095509350505050565b5f5f60408385031215616823575f5ffd5b823561682e81615ce1565b946020939093013593505050565b5f5f5f5f5f5f60a08789031215616851575f5ffd5b863561685c81615ce1565b9550602087013561686c81615ce1565b9450604087013561687c81615ce1565b93506060870135925060808701356001600160401b0381111561689d575f5ffd5b6168a989828a016162a5565b979a9699509497509295939492505050565b5f5f5f5f608085870312156168ce575f5ffd5b84356168d981615ce1565b935060208501356001600160401b038111156168f3575f5ffd5b6168ff87828801615d66565b93505061616460408601615dd0565b5f5f5f5f5f60a08688031215616922575f5ffd5b853561692d81615ce1565b94506020860135935060408601356001600160401b0381111561694e575f5ffd5b61695a88828901615d66565b93505060608601356160a481615ce1565b5f5f5f5f6080858703121561697e575f5ffd5b843561698981615ce1565b935060208501356001600160401b038111156169a3575f5ffd5b6169af87828801615d66565b935050604085013561616481615ce1565b604081525f6169d26040830185615ffd565b90508260208301529392505050565b5f5f5f5f5f5f60c087890312156169f6575f5ffd5b8635616a0181615ce1565b9550602087013594506040870135616a1881615ce1565b935060608701359250615f3560808801615dd0565b5f8151808452602084019350602083015f5b8281101561602d5781516001600160a01b0316865260209586019590910190600101616a3f565b602080825282516001600160a01b0390811683830152908301511660408083019190915282015160e060608301525f90616aa4610100840182616a2d565b90506060840151601f19848303016080850152616ac18282615ffd565b915050608084015160a084015260a0840151616ae160c085018215159052565b5060c0840151838203601f190160e08501526146b582826160d7565b5f82601f830112616b0c575f5ffd5b8151616b1a615d8382615ddf565b818152846020838601011115616b2e575f5ffd5b8160208501602083015e5f918101602001919091529392505050565b5f60208284031215616b5a575f5ffd5b81516001600160401b03811115616b6f575f5ffd5b610bd684828501616afd565b5f60208284031215616b8b575f5ffd5b5051919050565b6001600160a01b03858116825284166020820152604081018390526080606082018190525f906131ad90830184615ffd565b5f82601f830112616bd3575f5ffd5b8151616be1615d8382615d44565b8082825260208201915060208360051b860101925085831115616c02575f5ffd5b602085015b83811015615dc6578051835260209283019201616c07565b5f60208284031215616c2f575f5ffd5b81516001600160401b03811115616c44575f5ffd5b610bd684828501616bc4565b634e487b7160e01b5f52602160045260245ffd5b60058110616c7457616c74616c50565b9052565b602080825282516001600160a01b0390811683830152908301511660408083019190915282015160e060608301525f90616cb6610100840182615ffd565b9050606084015160808401526080840151616cd460a0850182616c64565b5060a0840151151560c084015260c0840151601f198483030160e08501526146b582826160d7565b5f5f5f60608486031215616d0e575f5ffd5b83516001600160401b03811115616d23575f5ffd5b616d2f86828701616bc4565b60208601516040870151919550935090506001600160401b03811115616d53575f5ffd5b615ff386828701616afd565b5f60208284031215616d6f575f5ffd5b81516001600160401b03811115616d84575f5ffd5b8201601f81018413616d94575f5ffd5b8051616da2615d8382615d44565b8082825260208201915060208360051b850101925086831115616dc3575f5ffd5b6020840193505b828410156131ad578351616ddd81615ce1565b825260209384019390910190616dca565b60048110616c7457616c74616c50565b602080825282516001600160a01b0390811683830152908301511660408083019190915282015160e060608301525f90616e3c610100840182615ffd565b9050606084015160808401526080840151616cd460a0850182616dee565b5f5f5f60608486031215616e6c575f5ffd5b835160208501519093506001600160401b03811115616e89575f5ffd5b616e9586828701616bc4565b604086015190935090506001600160401b03811115616d53575f5ffd5b60028110616c7457616c74616c50565b60208152616ed4602082018351616196565b5f6020830151616ee76040840182616eb2565b506040830151616efa6060840182616196565b506060830151616f0d6080840182616196565b506080830151616f2060a0840182616196565b5060a083015160c083015260c083015160e083015260e0830151610100830152610100830151616f5561012084018215159052565b5061012083015161014080840152610bd66101608401826160d7565b634e487b7160e01b5f52603260045260245ffd5b5f60208284031215616f95575f5ffd5b813561229881615ce1565b5f5f8335601e19843603018112616fb5575f5ffd5b8301803591506001600160401b03821115616fce575f5ffd5b6020019150600581901b360382131561624e575f5ffd5b602080825282516001600160a01b0390811683830152908301511660408083019190915282015160c060608301525f9061702260e0840182615ffd565b905060608401516080840152608084015161704060a0850182616c64565b5060a0840151838203601f190160c08501526146b582826160d7565b6001600160a01b03948516815292841660208401529083166040830152909116606082015260800190565b6001600160a01b03929092168252602082015260400190565b6020815260018060a01b03825116602082015260018060a01b036020830151166040820152604082015160608201525f606083015160c060808401526170e960e0840182615ffd565b9050608084015161704060a0850182616dee565b6001600160a01b039384168152919092166020820152604081019190915260600190565b600181811c9082168061713557607f821691505b602082108103613a6a57634e487b7160e01b5f52602260045260245ffd5b8183525f6001600160fb1b0383111561716a575f5ffd5b8260051b80836020870137939093016020019392505050565b602081525f823561719381615ce1565b6001600160a01b03166020838101919091528301356171b181615ce1565b6001600160a01b031660408381019190915283013536849003601e190181126171d8575f5ffd5b83016020810190356001600160401b038111156171f3575f5ffd5b8060051b3603821315617204575f5ffd5b6080606085015261721960a085018284617153565b6060959095013560809490940193909352509192915050565b5f5f5f5f60808587031215617245575f5ffd5b84516001600160401b0381111561725a575f5ffd5b61726687828801616bc4565b602087015160408801516060890151929750909550935090506001600160401b03811115617292575f5ffd5b61618a87828801616bc4565b5f5f8335601e198436030181126172b3575f5ffd5b8301803591506001600160401b038211156172cc575f5ffd5b60200191503681900382131561624e575f5ffd5b5f826172fa57634e487b7160e01b5f52601260045260245ffd5b500490565b81835281816020850137505f828201602090810191909152601f909101601f19169091010190565b6001600160a01b038a811682528916602082015260c06040820181905281018790525f8860e08301825b8a81101561738157823561736481615ce1565b6001600160a01b0316825260209283019290910190600101617351565b50838103606085015261739581898b617153565b91505085608084015282810360a08401526173b18185876172ff565b9c9b505050505050505050505050565b5f602082840312156173d1575f5ffd5b612fdb82615dd0565b5f60c08284031280156173eb575f5ffd5b5060405160c081016001600160401b038111828210171561740e5761740e615d00565b604052823561741c81615ce1565b8152602083013561742c81615ce1565b6020820152604083013561743f81615ce1565b6040820152606083810135908201526080808401359082015260a0928301359281019290925250919050565b6001600160a01b0392831681529116602082015260400190565b5f5f8335601e1984360301811261749a575f5ffd5b8301803591506001600160401b038211156174b3575f5ffd5b6020019150600781901b360382131561624e575f5ffd5b803565ffffffffffff81168114610aeb575f5ffd5b6001600160a01b0385168152606060208201525f60c08201853536879003601e1901811261750b575f5ffd5b86016020810190356001600160401b03811115617526575f5ffd5b8060071b3603821315617537575f5ffd5b60608581015291829052905f9060e085015b818310156175c857833561755c81615ce1565b6001600160a01b03168152602084013561757581615ce1565b6001600160a01b0316602082015265ffffffffffff617596604086016174ca565b16604082015265ffffffffffff6175af606086016174ca565b1660608201526080938401936001939093019201617549565b6175d460208a01615cf5565b93506175e36080870185616196565b5f9350604089013593508360a0870152858103604087015261113a81888a6172ff565b5f5f60408385031215617617575f5ffd5b505080516020909101519092909150565b5f60208284031215617638575f5ffd5b813560058110612298575f5ffd5b81810381811115612fde57634e487b7160e01b5f52601160045260245ffd5b5f60208284031215617675575f5ffd5b813560028110612298575f5ffd5b5f60208284031215617693575f5ffd5b813560048110612298575f5ffd5b5f82518060208501845e5f920191825250919050565b602081526176c9602082018351616eb2565b60018060a01b03602083015116604082015260018060a01b03604083015116606082015260018060a01b036060830151166080820152608082015160a082015260a082015160c08201525f60c083015160e080840152610bd66101008401826160d7565b5f5f5f6060848603121561773f575f5ffd5b505081516020830151604090930151909492935091905056fe9b779b17422d0df92223018b32b4d1fa46e071723d6817e2486d003becc55f00a2646970667358221220806efd45d233ab4730a0d961f63ee4282730488a4cf1e80eda4d4d044f4999c164736f6c634300081e0033","linkReferences":{}},"methodIdentifiers":{"addLiquidityCustom(address,uint256[],uint256,bool,bytes)":"0ca078ec","addLiquidityHook((address,address,uint256[],uint256,uint8,bool,bytes))":"5b343791","addLiquidityProportional(address,uint256[],uint256,bool,bytes)":"724dba33","addLiquiditySingleTokenExactOut(address,address,uint256,uint256,bool,bytes)":"72657d17","addLiquidityUnbalanced(address,uint256[],uint256,bool,bytes)":"c08bc851","donate(address,uint256[],bool,bytes)":"bf6ee3fd","getPermit2()":"1bbf2e23","getSender()":"5e01eb5a","getSingleInputArrayAndTokenIndex(address,address,uint256)":"e178073e","getVault()":"8d928af8","getWeth()":"107c279f","initialize(address,address[],uint256[],uint256,bool,bytes)":"026b3d95","initializeHook((address,address,address[],uint256[],uint256,bool,bytes))":"086fad66","manualAddAndRemoveLiquidity((address,address,uint256[],uint256))":"68d5e16a","manualAddAndRemoveLiquidityHook((address,address,uint256[],uint256))":"3a1b05de","manualReentrancyAddLiquidityHook()":"0c3b846f","manualReentrancyInitializeHook()":"4b59d17c","manualReentrancyQuerySwapHook()":"64c90707","manualReentrancyRemoveLiquidityHook()":"ad6d59f3","manualReentrancyRemoveLiquidityRecoveryHook()":"beb91feb","manualReentrancySwapSingleTokenHook()":"c3ec0efc","multicall(bytes[])":"ac9650d8","permitBatchAndCall((address,address,address,uint256,uint256,uint256)[],bytes[],((address,uint160,uint48,uint48)[],address,uint256),bytes,bytes[])":"19c6989f","queryAddLiquidityCustom(address,uint256[],uint256,address,bytes)":"452db952","queryAddLiquidityHook((address,address,uint256[],uint256,uint8,bool,bytes))":"efd85f14","queryAddLiquidityProportional(address,uint256,address,bytes)":"9de90518","queryAddLiquiditySingleTokenExactOut(address,address,uint256,address,bytes)":"1d56798d","queryAddLiquidityUnbalanced(address,uint256[],address,bytes)":"da001f7d","queryRemoveLiquidityCustom(address,uint256,uint256[],address,bytes)":"c330c7be","queryRemoveLiquidityHook((address,address,uint256[],uint256,uint8,bool,bytes))":"b24bd571","queryRemoveLiquidityProportional(address,uint256,address,bytes)":"0f710888","queryRemoveLiquidityRecovery(address,uint256)":"b037ed36","queryRemoveLiquidityRecoveryHook(address,address,uint256)":"5f9815ff","queryRemoveLiquiditySingleTokenExactIn(address,uint256,address,address,bytes)":"23b39241","queryRemoveLiquiditySingleTokenExactOut(address,address,uint256,address,bytes)":"53d0bb98","queryRevertErrorCode()":"7ae30960","queryRevertErrorCodeHook()":"45d132fe","queryRevertLegacy()":"339f3838","queryRevertLegacyHook()":"22717db2","queryRevertNoReason()":"90aa9f76","queryRevertNoReasonHook()":"b3b0a7a7","queryRevertPanic()":"aaf51ea3","queryRevertPanicHook()":"d3a5152a","querySpoof()":"4aeecca9","querySpoofHook()":"58307e44","querySwapHook((address,uint8,address,address,address,uint256,uint256,uint256,bool,bytes))":"be5ae841","querySwapSingleTokenExactIn(address,address,address,uint256,address,bytes)":"3ebc54e5","querySwapSingleTokenExactInAndRevert(address,address,address,uint256,bytes)":"b29a62a7","querySwapSingleTokenExactOut(address,address,address,uint256,address,bytes)":"175d4408","removeLiquidityCustom(address,uint256,uint256[],bool,bytes)":"82bf2b24","removeLiquidityHook((address,address,uint256[],uint256,uint8,bool,bytes))":"7b03c7ba","removeLiquidityProportional(address,uint256,uint256[],bool,bytes)":"51682750","removeLiquidityRecovery(address,uint256,uint256[])":"08c04793","removeLiquidityRecoveryHook(address,address,uint256,uint256[])":"82cd54fb","removeLiquiditySingleTokenExactIn(address,uint256,address,uint256,bool,bytes)":"ecb2182c","removeLiquiditySingleTokenExactOut(address,uint256,address,uint256,bool,bytes)":"e7326def","swapSingleTokenExactIn(address,address,address,uint256,uint256,uint256,bool,bytes)":"750283bc","swapSingleTokenExactOut(address,address,address,uint256,uint256,uint256,bool,bytes)":"94e86ef8","swapSingleTokenHook((address,uint8,address,address,address,uint256,uint256,uint256,bool,bytes))":"68a24fe0","version()":"54fd4d50"},"id":953}