{"abi":[{"type":"constructor","inputs":[{"name":"_manager","type":"address","internalType":"contract IPoolManager"},{"name":"_weth","type":"address","internalType":"address payable"}],"stateMutability":"nonpayable"},{"type":"receive","stateMutability":"payable"},{"type":"function","name":"afterAddLiquidity","inputs":[{"name":"sender","type":"address","internalType":"address"},{"name":"key","type":"tuple","internalType":"struct PoolKey","components":[{"name":"currency0","type":"address","internalType":"Currency"},{"name":"currency1","type":"address","internalType":"Currency"},{"name":"fee","type":"uint24","internalType":"uint24"},{"name":"tickSpacing","type":"int24","internalType":"int24"},{"name":"hooks","type":"address","internalType":"contract IHooks"}]},{"name":"params","type":"tuple","internalType":"struct ModifyLiquidityParams","components":[{"name":"tickLower","type":"int24","internalType":"int24"},{"name":"tickUpper","type":"int24","internalType":"int24"},{"name":"liquidityDelta","type":"int256","internalType":"int256"},{"name":"salt","type":"bytes32","internalType":"bytes32"}]},{"name":"delta","type":"int256","internalType":"BalanceDelta"},{"name":"feesAccrued","type":"int256","internalType":"BalanceDelta"},{"name":"hookData","type":"bytes","internalType":"bytes"}],"outputs":[{"name":"","type":"bytes4","internalType":"bytes4"},{"name":"","type":"int256","internalType":"BalanceDelta"}],"stateMutability":"nonpayable"},{"type":"function","name":"afterDonate","inputs":[{"name":"sender","type":"address","internalType":"address"},{"name":"key","type":"tuple","internalType":"struct PoolKey","components":[{"name":"currency0","type":"address","internalType":"Currency"},{"name":"currency1","type":"address","internalType":"Currency"},{"name":"fee","type":"uint24","internalType":"uint24"},{"name":"tickSpacing","type":"int24","internalType":"int24"},{"name":"hooks","type":"address","internalType":"contract IHooks"}]},{"name":"amount0","type":"uint256","internalType":"uint256"},{"name":"amount1","type":"uint256","internalType":"uint256"},{"name":"hookData","type":"bytes","internalType":"bytes"}],"outputs":[{"name":"","type":"bytes4","internalType":"bytes4"}],"stateMutability":"nonpayable"},{"type":"function","name":"afterInitialize","inputs":[{"name":"sender","type":"address","internalType":"address"},{"name":"key","type":"tuple","internalType":"struct PoolKey","components":[{"name":"currency0","type":"address","internalType":"Currency"},{"name":"currency1","type":"address","internalType":"Currency"},{"name":"fee","type":"uint24","internalType":"uint24"},{"name":"tickSpacing","type":"int24","internalType":"int24"},{"name":"hooks","type":"address","internalType":"contract IHooks"}]},{"name":"sqrtPriceX96","type":"uint160","internalType":"uint160"},{"name":"tick","type":"int24","internalType":"int24"}],"outputs":[{"name":"","type":"bytes4","internalType":"bytes4"}],"stateMutability":"nonpayable"},{"type":"function","name":"afterRemoveLiquidity","inputs":[{"name":"sender","type":"address","internalType":"address"},{"name":"key","type":"tuple","internalType":"struct PoolKey","components":[{"name":"currency0","type":"address","internalType":"Currency"},{"name":"currency1","type":"address","internalType":"Currency"},{"name":"fee","type":"uint24","internalType":"uint24"},{"name":"tickSpacing","type":"int24","internalType":"int24"},{"name":"hooks","type":"address","internalType":"contract IHooks"}]},{"name":"params","type":"tuple","internalType":"struct ModifyLiquidityParams","components":[{"name":"tickLower","type":"int24","internalType":"int24"},{"name":"tickUpper","type":"int24","internalType":"int24"},{"name":"liquidityDelta","type":"int256","internalType":"int256"},{"name":"salt","type":"bytes32","internalType":"bytes32"}]},{"name":"delta","type":"int256","internalType":"BalanceDelta"},{"name":"feesAccrued","type":"int256","internalType":"BalanceDelta"},{"name":"hookData","type":"bytes","internalType":"bytes"}],"outputs":[{"name":"","type":"bytes4","internalType":"bytes4"},{"name":"","type":"int256","internalType":"BalanceDelta"}],"stateMutability":"nonpayable"},{"type":"function","name":"afterSwap","inputs":[{"name":"sender","type":"address","internalType":"address"},{"name":"key","type":"tuple","internalType":"struct PoolKey","components":[{"name":"currency0","type":"address","internalType":"Currency"},{"name":"currency1","type":"address","internalType":"Currency"},{"name":"fee","type":"uint24","internalType":"uint24"},{"name":"tickSpacing","type":"int24","internalType":"int24"},{"name":"hooks","type":"address","internalType":"contract IHooks"}]},{"name":"params","type":"tuple","internalType":"struct SwapParams","components":[{"name":"zeroForOne","type":"bool","internalType":"bool"},{"name":"amountSpecified","type":"int256","internalType":"int256"},{"name":"sqrtPriceLimitX96","type":"uint160","internalType":"uint160"}]},{"name":"delta","type":"int256","internalType":"BalanceDelta"},{"name":"hookData","type":"bytes","internalType":"bytes"}],"outputs":[{"name":"","type":"bytes4","internalType":"bytes4"},{"name":"","type":"int128","internalType":"int128"}],"stateMutability":"nonpayable"},{"type":"function","name":"beforeAddLiquidity","inputs":[{"name":"sender","type":"address","internalType":"address"},{"name":"key","type":"tuple","internalType":"struct PoolKey","components":[{"name":"currency0","type":"address","internalType":"Currency"},{"name":"currency1","type":"address","internalType":"Currency"},{"name":"fee","type":"uint24","internalType":"uint24"},{"name":"tickSpacing","type":"int24","internalType":"int24"},{"name":"hooks","type":"address","internalType":"contract IHooks"}]},{"name":"params","type":"tuple","internalType":"struct ModifyLiquidityParams","components":[{"name":"tickLower","type":"int24","internalType":"int24"},{"name":"tickUpper","type":"int24","internalType":"int24"},{"name":"liquidityDelta","type":"int256","internalType":"int256"},{"name":"salt","type":"bytes32","internalType":"bytes32"}]},{"name":"hookData","type":"bytes","internalType":"bytes"}],"outputs":[{"name":"","type":"bytes4","internalType":"bytes4"}],"stateMutability":"nonpayable"},{"type":"function","name":"beforeDonate","inputs":[{"name":"sender","type":"address","internalType":"address"},{"name":"key","type":"tuple","internalType":"struct PoolKey","components":[{"name":"currency0","type":"address","internalType":"Currency"},{"name":"currency1","type":"address","internalType":"Currency"},{"name":"fee","type":"uint24","internalType":"uint24"},{"name":"tickSpacing","type":"int24","internalType":"int24"},{"name":"hooks","type":"address","internalType":"contract IHooks"}]},{"name":"amount0","type":"uint256","internalType":"uint256"},{"name":"amount1","type":"uint256","internalType":"uint256"},{"name":"hookData","type":"bytes","internalType":"bytes"}],"outputs":[{"name":"","type":"bytes4","internalType":"bytes4"}],"stateMutability":"nonpayable"},{"type":"function","name":"beforeInitialize","inputs":[{"name":"sender","type":"address","internalType":"address"},{"name":"key","type":"tuple","internalType":"struct PoolKey","components":[{"name":"currency0","type":"address","internalType":"Currency"},{"name":"currency1","type":"address","internalType":"Currency"},{"name":"fee","type":"uint24","internalType":"uint24"},{"name":"tickSpacing","type":"int24","internalType":"int24"},{"name":"hooks","type":"address","internalType":"contract IHooks"}]},{"name":"sqrtPriceX96","type":"uint160","internalType":"uint160"}],"outputs":[{"name":"","type":"bytes4","internalType":"bytes4"}],"stateMutability":"nonpayable"},{"type":"function","name":"beforeRemoveLiquidity","inputs":[{"name":"sender","type":"address","internalType":"address"},{"name":"key","type":"tuple","internalType":"struct PoolKey","components":[{"name":"currency0","type":"address","internalType":"Currency"},{"name":"currency1","type":"address","internalType":"Currency"},{"name":"fee","type":"uint24","internalType":"uint24"},{"name":"tickSpacing","type":"int24","internalType":"int24"},{"name":"hooks","type":"address","internalType":"contract IHooks"}]},{"name":"params","type":"tuple","internalType":"struct ModifyLiquidityParams","components":[{"name":"tickLower","type":"int24","internalType":"int24"},{"name":"tickUpper","type":"int24","internalType":"int24"},{"name":"liquidityDelta","type":"int256","internalType":"int256"},{"name":"salt","type":"bytes32","internalType":"bytes32"}]},{"name":"hookData","type":"bytes","internalType":"bytes"}],"outputs":[{"name":"","type":"bytes4","internalType":"bytes4"}],"stateMutability":"nonpayable"},{"type":"function","name":"beforeSwap","inputs":[{"name":"sender","type":"address","internalType":"address"},{"name":"key","type":"tuple","internalType":"struct PoolKey","components":[{"name":"currency0","type":"address","internalType":"Currency"},{"name":"currency1","type":"address","internalType":"Currency"},{"name":"fee","type":"uint24","internalType":"uint24"},{"name":"tickSpacing","type":"int24","internalType":"int24"},{"name":"hooks","type":"address","internalType":"contract IHooks"}]},{"name":"params","type":"tuple","internalType":"struct SwapParams","components":[{"name":"zeroForOne","type":"bool","internalType":"bool"},{"name":"amountSpecified","type":"int256","internalType":"int256"},{"name":"sqrtPriceLimitX96","type":"uint160","internalType":"uint160"}]},{"name":"hookData","type":"bytes","internalType":"bytes"}],"outputs":[{"name":"","type":"bytes4","internalType":"bytes4"},{"name":"","type":"int256","internalType":"BeforeSwapDelta"},{"name":"","type":"uint24","internalType":"uint24"}],"stateMutability":"nonpayable"},{"type":"function","name":"getHookPermissions","inputs":[],"outputs":[{"name":"","type":"tuple","internalType":"struct Hooks.Permissions","components":[{"name":"beforeInitialize","type":"bool","internalType":"bool"},{"name":"afterInitialize","type":"bool","internalType":"bool"},{"name":"beforeAddLiquidity","type":"bool","internalType":"bool"},{"name":"afterAddLiquidity","type":"bool","internalType":"bool"},{"name":"beforeRemoveLiquidity","type":"bool","internalType":"bool"},{"name":"afterRemoveLiquidity","type":"bool","internalType":"bool"},{"name":"beforeSwap","type":"bool","internalType":"bool"},{"name":"afterSwap","type":"bool","internalType":"bool"},{"name":"beforeDonate","type":"bool","internalType":"bool"},{"name":"afterDonate","type":"bool","internalType":"bool"},{"name":"beforeSwapReturnDelta","type":"bool","internalType":"bool"},{"name":"afterSwapReturnDelta","type":"bool","internalType":"bool"},{"name":"afterAddLiquidityReturnDelta","type":"bool","internalType":"bool"},{"name":"afterRemoveLiquidityReturnDelta","type":"bool","internalType":"bool"}]}],"stateMutability":"pure"},{"type":"function","name":"poolManager","inputs":[],"outputs":[{"name":"","type":"address","internalType":"contract IPoolManager"}],"stateMutability":"view"},{"type":"function","name":"underlyingCurrency","inputs":[],"outputs":[{"name":"","type":"address","internalType":"Currency"}],"stateMutability":"view"},{"type":"function","name":"weth","inputs":[],"outputs":[{"name":"","type":"address","internalType":"contract WETH"}],"stateMutability":"view"},{"type":"function","name":"wrapZeroForOne","inputs":[],"outputs":[{"name":"","type":"bool","internalType":"bool"}],"stateMutability":"view"},{"type":"function","name":"wrapperCurrency","inputs":[],"outputs":[{"name":"","type":"address","internalType":"Currency"}],"stateMutability":"view"},{"type":"error","name":"DeltaNotNegative","inputs":[{"name":"currency","type":"address","internalType":"Currency"}]},{"type":"error","name":"DeltaNotPositive","inputs":[{"name":"currency","type":"address","internalType":"Currency"}]},{"type":"error","name":"ExactInputNotSupported","inputs":[]},{"type":"error","name":"ExactOutputNotSupported","inputs":[]},{"type":"error","name":"HookNotImplemented","inputs":[]},{"type":"error","name":"InsufficientBalance","inputs":[]},{"type":"error","name":"InvalidPoolFee","inputs":[]},{"type":"error","name":"InvalidPoolToken","inputs":[]},{"type":"error","name":"LiquidityNotAllowed","inputs":[]},{"type":"error","name":"NotPoolManager","inputs":[]},{"type":"error","name":"SafeCastOverflow","inputs":[]}],"bytecode":{"object":"0x610120604052348015610010575f5ffd5b50604051611b8a380380611b8a83398101604081905261002f916103d2565b6001600160a01b03821660805281815f8261004930610076565b506001600160a01b0391821660a081905290821660c08190521060e05291909116610100525061040a9050565b61016681610161604080516101c0810182525f80825260208201819052918101829052606081018290526080810182905260a0810182905260c0810182905260e08101829052610100810182905261012081018290526101408101829052610160810182905261018081018290526101a081019190915250604080516101c08101825260018082525f60208301819052928201819052606082018390526080820183905260a0820183905260c0820181905260e0820183905261010082018390526101208201839052610140820152610160810182905261018081018290526101a081019190915290565b610169565b50565b61017e6001600160a01b03831661200061039a565b815115159015151415806101ae57506101a26001600160a01b03831661100061039a565b15158160200151151514155b806101d557506101c96001600160a01b03831661080061039a565b15158160400151151514155b806101fc57506101f06001600160a01b03831661040061039a565b15158160600151151514155b8061022357506102176001600160a01b03831661020061039a565b15158160800151151514155b8061024a575061023e6001600160a01b03831661010061039a565b15158160a00151151514155b8061027057506102646001600160a01b038316608061039a565b15158160c00151151514155b80610296575061028a6001600160a01b038316604061039a565b15158160e00151151514155b806102bd57506102b06001600160a01b038316602061039a565b1515816101000151151514155b806102e457506102d76001600160a01b038316601061039a565b1515816101200151151514155b8061030b57506102fe6001600160a01b038316600861039a565b1515816101400151151514155b8061033257506103256001600160a01b038316600461039a565b1515816101600151151514155b80610359575061034c6001600160a01b038316600261039a565b1515816101800151151514155b8061038057506103736001600160a01b038316600161039a565b1515816101a00151151514155b1561039657610396630732d7b560e51b836103a9565b5050565b166001600160a01b0316151590565b815f526001600160a01b03811660045260245ffd5b6001600160a01b0381168114610166575f5ffd5b5f5f604083850312156103e3575f5ffd5b82516103ee816103be565b60208401519092506103ff816103be565b809150509250929050565b60805160a05160c05160e051610100516116956104f55f395f818161018101528181610b7b0152610cba01525f81816101fe01528181610827015261098e01525f818160e101528181610a0301528181610b5a0152610d1e01525f8181610400015281816109c301528181610aed0152610c7e01525f818161043301528181610480015281816104e10152818161053a015281816105a30152818161060c0152818161066c015281816106d30152818161073601528181610abe01528181610ba201528181610d9701528181610e1601528181610e9101528181610f250152610fc501526116955ff3fe6080604052600436106100c5575f3560e01c80630bc6bffc146100d057806321d0ee7014610119578063259982e5146101515780633fc8cef314610170578063575e24b4146101a35780635d5711a5146101ed5780636c2bbe7e146102305780636fe7e6eb1461026f5780639f063efc14610230578063b47b2fb11461028e578063b6a8b0fa146102d0578063c4e833ce146102ef578063d52f63cf146103ef578063dc4c90d314610422578063dc98354e14610455578063e1b4af69146102d0575f5ffd5b366100cc57005b5f5ffd5b3480156100db575f5ffd5b506101037f000000000000000000000000000000000000000000000000000000000000000081565b60405161011091906110f8565b60405180910390f35b348015610124575f5ffd5b5061013861013336600461118d565b610474565b6040516001600160e01b03199091168152602001610110565b34801561015c575f5ffd5b5061013861016b36600461118d565b6104d5565b34801561017b575f5ffd5b506101037f000000000000000000000000000000000000000000000000000000000000000081565b3480156101ae575f5ffd5b506101c26101bd366004611213565b61052c565b604080516001600160e01b03199094168452602084019290925262ffffff1690820152606001610110565b3480156101f8575f5ffd5b506102207f000000000000000000000000000000000000000000000000000000000000000081565b6040519015158152602001610110565b34801561023b575f5ffd5b5061024f61024a36600461126c565b610596565b604080516001600160e01b03199093168352602083019190915201610110565b34801561027a575f5ffd5b506101386102893660046112f6565b610600565b348015610299575f5ffd5b506102ad6102a8366004611355565b61065f565b604080516001600160e01b03199093168352600f9190910b602083015201610110565b3480156102db575f5ffd5b506101386102ea3660046113d5565b6106c7565b3480156102fa575f5ffd5b506103e2604080516101c0810182525f80825260208201819052918101829052606081018290526080810182905260a0810182905260c0810182905260e08101829052610100810182905261012081018290526101408101829052610160810182905261018081018290526101a081019190915250604080516101c08101825260018082525f60208301819052928201819052606082018390526080820183905260a0820183905260c0820181905260e0820183905261010082018390526101208201839052610140820152610160810182905261018081018290526101a081019190915290565b604051610110919061142e565b3480156103fa575f5ffd5b506101037f000000000000000000000000000000000000000000000000000000000000000081565b34801561042d575f5ffd5b506101037f000000000000000000000000000000000000000000000000000000000000000081565b348015610460575f5ffd5b5061013861046f36600461154f565b61072a565b5f336001600160a01b037f000000000000000000000000000000000000000000000000000000000000000016146104be5760405163570c108560e11b815260040160405180910390fd5b6104cb8686868686610787565b9695505050505050565b5f336001600160a01b037f0000000000000000000000000000000000000000000000000000000000000000161461051f5760405163570c108560e11b815260040160405180910390fd5b6104cb86868686866107a1565b5f8080336001600160a01b037f000000000000000000000000000000000000000000000000000000000000000016146105785760405163570c108560e11b815260040160405180910390fd5b61058588888888886107bb565b925092509250955095509592505050565b5f80336001600160a01b037f000000000000000000000000000000000000000000000000000000000000000016146105e15760405163570c108560e11b815260040160405180910390fd5b6105f08989898989898961096f565b9150915097509795505050505050565b5f336001600160a01b037f0000000000000000000000000000000000000000000000000000000000000000161461064a5760405163570c108560e11b815260040160405180910390fd5b61065685858585610787565b95945050505050565b5f80336001600160a01b037f000000000000000000000000000000000000000000000000000000000000000016146106aa5760405163570c108560e11b815260040160405180910390fd5b6106b888888888888861096f565b91509150965096945050505050565b5f336001600160a01b037f000000000000000000000000000000000000000000000000000000000000000016146107115760405163570c108560e11b815260040160405180910390fd5b61071f878787878787610787565b979650505050505050565b5f336001600160a01b037f000000000000000000000000000000000000000000000000000000000000000016146107745760405163570c108560e11b815260040160405180910390fd5b61077f84848461098a565b949350505050565b5f604051630a85dc2960e01b815260040160405180910390fd5b5f6040516378895c1360e01b815260040160405180910390fd5b5f8080602086013581138080156107cf57505f5b156107ed57604051630ace433b60e01b815260040160405180910390fd5b801580156107f857505f5b15610816576040516321b865b360e01b815260040160405180910390fd5b6108236020880188611596565b15157f00000000000000000000000000000000000000000000000000000000000000001515036108e3575f8161085d57602088013561086a565b61086a60208901356115d0565b90505f5f61087783610aba565b915091505f846108975761089261088d84610c2b565b610c52565b6108ac565b6108a361088d83610c2b565b6108ac906115ea565b90506108d86108be8c60200135610c52565b6108c7906115ea565b60801b6001600160801b0383161790565b965050505050610956565b5f816108f3576020880135610900565b61090060208901356115d0565b90505f5f61090d83610c77565b915091505f846109285761092361088d84610c2b565b61093d565b61093461088d83610c2b565b61093d906115ea565b905061094f6108be8c60200135610c52565b9650505050505b506315d7892d60e21b92505f9050955095509592505050565b5f5f604051630a85dc2960e01b815260040160405180910390fd5b5f5f7f0000000000000000000000000000000000000000000000000000000000000000610a2c576109e76109c1602086018661160b565b7f0000000000000000000000000000000000000000000000000000000000000000610d4c565b8015610a275750610a27610a01604086016020870161160b565b7f0000000000000000000000000000000000000000000000000000000000000000610d4c565b610a56565b610a3c610a01602086018661160b565b8015610a565750610a566109c1604086016020870161160b565b905080610a765760405163dcdedda960e01b815260040160405180910390fd5b610a866060850160408601611626565b62ffffff1615610aa957604051631213a0ab60e01b815260040160405180910390fd5b50636e4c1aa760e11b949350505050565b5f5f7f00000000000000000000000000000000000000000000000000000000000000006001600160a01b031663a58411947f00000000000000000000000000000000000000000000000000000000000000006040518263ffffffff1660e01b8152600401610b2891906110f8565b5f604051808303815f87803b158015610b3f575f5ffd5b505af1158015610b51573d5f5f3e3d5ffd5b50505050610ba07f00000000000000000000000000000000000000000000000000000000000000007f000000000000000000000000000000000000000000000000000000000000000085610d5d565b7f00000000000000000000000000000000000000000000000000000000000000006001600160a01b03166311da60b46040518163ffffffff1660e01b81526004016020604051808303815f875af1158015610bfd573d5f5f3e3d5ffd5b505050506040513d601f19601f82011682018060405250810190610c219190611648565b5091928392509050565b805f811215610c4d576040516393dafdf160e01b815260040160405180910390fd5b919050565b80600f81900b8114610c4d576040516393dafdf160e01b815260040160405180910390fd5b5f5f610ca47f00000000000000000000000000000000000000000000000000000000000000003085610d5d565b604051632e1a7d4d60e01b8152600481018490527f00000000000000000000000000000000000000000000000000000000000000006001600160a01b031690632e1a7d4d906024015f604051808303815f87803b158015610d03575f5ffd5b505af1158015610d15573d5f5f3e3d5ffd5b50505050610d447f00000000000000000000000000000000000000000000000000000000000000003085610df3565b509091829150565b6001600160a01b0390811691161490565b805f03610d6957505050565b604051630b0d9c0960e01b81526001600160a01b0384811660048301528381166024830152604482018390527f00000000000000000000000000000000000000000000000000000000000000001690630b0d9c09906064015f604051808303815f87803b158015610dd8575f5ffd5b505af1158015610dea573d5f5f3e3d5ffd5b50505050505050565b805f03610dff57505050565b604051632961046560e21b81526001600160a01b037f0000000000000000000000000000000000000000000000000000000000000000169063a584119490610e4b9086906004016110f8565b5f604051808303815f87803b158015610e62575f5ffd5b505af1158015610e74573d5f5f3e3d5ffd5b50505050610e8a836001600160a01b0316610fa9565b15610f18577f00000000000000000000000000000000000000000000000000000000000000006001600160a01b03166311da60b4826040518263ffffffff1660e01b815260040160206040518083038185885af1158015610eed573d5f5f3e3d5ffd5b50505050506040513d601f19601f82011682018060405250810190610f129190611648565b50505050565b610f23838383610fb6565b7f00000000000000000000000000000000000000000000000000000000000000006001600160a01b03166311da60b46040518163ffffffff1660e01b81526004016020604051808303815f875af1158015610f80573d5f5f3e3d5ffd5b505050506040513d601f19601f82011682018060405250810190610f129190611648565b505050565b6001600160a01b03161590565b610fa46001600160a01b0384167f0000000000000000000000000000000000000000000000000000000000000000835f610fef84610fa9565b1561101a575f5f5f5f85875af190508061101557611015835f633d2cec6f60e21b611080565b610f12565b60405163a9059cbb60e01b81526001600160a01b038416600482015282602482015260205f6044835f895af13d15601f3d1160015f511416171691505f81525f60208201525f60408201525080610f1257610f128463a9059cbb60e01b633c9fd93960e21b5b6040516390bfb86560e01b8082526001600160a01b03851660048301526001600160e01b031984166024830152608060448301526020601f3d018190040260a0810160648401523d608484015290913d5f60a483013e60048260a4018201526001600160e01b031984168260c4018201528160e40181fd5b6001600160a01b0391909116815260200190565b6001600160a01b0381168114611120575f5ffd5b50565b5f60a08284031215611133575f5ffd5b50919050565b5f60808284031215611133575f5ffd5b5f5f83601f840112611159575f5ffd5b5081356001600160401b0381111561116f575f5ffd5b602083019150836020828501011115611186575f5ffd5b9250929050565b5f5f5f5f5f61016086880312156111a2575f5ffd5b85356111ad8161110c565b94506111bc8760208801611123565b93506111cb8760c08801611139565b92506101408601356001600160401b038111156111e6575f5ffd5b6111f288828901611149565b969995985093965092949392505050565b5f60608284031215611133575f5ffd5b5f5f5f5f5f6101408688031215611228575f5ffd5b85356112338161110c565b94506112428760208801611123565b93506112518760c08801611203565b92506101208601356001600160401b038111156111e6575f5ffd5b5f5f5f5f5f5f5f6101a0888a031215611283575f5ffd5b873561128e8161110c565b965061129d8960208a01611123565b95506112ac8960c08a01611139565b9450610140880135935061016088013592506101808801356001600160401b038111156112d7575f5ffd5b6112e38a828b01611149565b989b979a50959850939692959293505050565b5f5f5f5f610100858703121561130a575f5ffd5b84356113158161110c565b93506113248660208701611123565b925060c08501356113348161110c565b915060e0850135600281900b811461134a575f5ffd5b939692955090935050565b5f5f5f5f5f5f610160878903121561136b575f5ffd5b86356113768161110c565b95506113858860208901611123565b94506113948860c08901611203565b935061012087013592506101408701356001600160401b038111156113b7575f5ffd5b6113c389828a01611149565b979a9699509497509295939492505050565b5f5f5f5f5f5f61012087890312156113eb575f5ffd5b86356113f68161110c565b95506114058860208901611123565b945060c0870135935060e087013592506101008701356001600160401b038111156113b7575f5ffd5b8151151581526101c08101602083015161144c602084018215159052565b506040830151611460604084018215159052565b506060830151611474606084018215159052565b506080830151611488608084018215159052565b5060a083015161149c60a084018215159052565b5060c08301516114b060c084018215159052565b5060e08301516114c460e084018215159052565b506101008301516114da61010084018215159052565b506101208301516114f061012084018215159052565b5061014083015161150661014084018215159052565b5061016083015161151c61016084018215159052565b5061018083015161153261018084018215159052565b506101a08301516115486101a084018215159052565b5092915050565b5f5f5f60e08486031215611561575f5ffd5b833561156c8161110c565b925061157b8560208601611123565b915060c084013561158b8161110c565b809150509250925092565b5f602082840312156115a6575f5ffd5b813580151581146115b5575f5ffd5b9392505050565b634e487b7160e01b5f52601160045260245ffd5b5f600160ff1b82016115e4576115e46115bc565b505f0390565b5f600f82900b6001607f1b8101611603576116036115bc565b5f0392915050565b5f6020828403121561161b575f5ffd5b81356115b58161110c565b5f60208284031215611636575f5ffd5b813562ffffff811681146115b5575f5ffd5b5f60208284031215611658575f5ffd5b505191905056fea264697066735822122034f01710a4861bc4fd2982a891bf85ca071622eaa38a7a30e02285128f59ccf164736f6c634300081e0033","linkReferences":{}},"methodIdentifiers":{"afterAddLiquidity(address,(address,address,uint24,int24,address),(int24,int24,int256,bytes32),int256,int256,bytes)":"9f063efc","afterDonate(address,(address,address,uint24,int24,address),uint256,uint256,bytes)":"e1b4af69","afterInitialize(address,(address,address,uint24,int24,address),uint160,int24)":"6fe7e6eb","afterRemoveLiquidity(address,(address,address,uint24,int24,address),(int24,int24,int256,bytes32),int256,int256,bytes)":"6c2bbe7e","afterSwap(address,(address,address,uint24,int24,address),(bool,int256,uint160),int256,bytes)":"b47b2fb1","beforeAddLiquidity(address,(address,address,uint24,int24,address),(int24,int24,int256,bytes32),bytes)":"259982e5","beforeDonate(address,(address,address,uint24,int24,address),uint256,uint256,bytes)":"b6a8b0fa","beforeInitialize(address,(address,address,uint24,int24,address),uint160)":"dc98354e","beforeRemoveLiquidity(address,(address,address,uint24,int24,address),(int24,int24,int256,bytes32),bytes)":"21d0ee70","beforeSwap(address,(address,address,uint24,int24,address),(bool,int256,uint160),bytes)":"575e24b4","getHookPermissions()":"c4e833ce","poolManager()":"dc4c90d3","underlyingCurrency()":"0bc6bffc","weth()":"3fc8cef3","wrapZeroForOne()":"5d5711a5","wrapperCurrency()":"d52f63cf"},"id":1152}