{"abi":[{"type":"function","name":"DOMAIN_SEPARATOR","inputs":[],"outputs":[{"name":"","type":"bytes32","internalType":"bytes32"}],"stateMutability":"view"},{"type":"function","name":"invalidateUnorderedNonces","inputs":[{"name":"wordPos","type":"uint256","internalType":"uint256"},{"name":"mask","type":"uint256","internalType":"uint256"}],"outputs":[],"stateMutability":"nonpayable"},{"type":"function","name":"nonceBitmap","inputs":[{"name":"","type":"address","internalType":"address"},{"name":"","type":"uint256","internalType":"uint256"}],"outputs":[{"name":"","type":"uint256","internalType":"uint256"}],"stateMutability":"view"},{"type":"function","name":"permitTransferFrom","inputs":[{"name":"permit","type":"tuple","internalType":"struct ISignatureTransfer.PermitTransferFrom","components":[{"name":"permitted","type":"tuple","internalType":"struct ISignatureTransfer.TokenPermissions","components":[{"name":"token","type":"address","internalType":"address"},{"name":"amount","type":"uint256","internalType":"uint256"}]},{"name":"nonce","type":"uint256","internalType":"uint256"},{"name":"deadline","type":"uint256","internalType":"uint256"}]},{"name":"transferDetails","type":"tuple","internalType":"struct ISignatureTransfer.SignatureTransferDetails","components":[{"name":"to","type":"address","internalType":"address"},{"name":"requestedAmount","type":"uint256","internalType":"uint256"}]},{"name":"owner","type":"address","internalType":"address"},{"name":"signature","type":"bytes","internalType":"bytes"}],"outputs":[],"stateMutability":"nonpayable"},{"type":"function","name":"permitTransferFrom","inputs":[{"name":"permit","type":"tuple","internalType":"struct ISignatureTransfer.PermitBatchTransferFrom","components":[{"name":"permitted","type":"tuple[]","internalType":"struct ISignatureTransfer.TokenPermissions[]","components":[{"name":"token","type":"address","internalType":"address"},{"name":"amount","type":"uint256","internalType":"uint256"}]},{"name":"nonce","type":"uint256","internalType":"uint256"},{"name":"deadline","type":"uint256","internalType":"uint256"}]},{"name":"transferDetails","type":"tuple[]","internalType":"struct ISignatureTransfer.SignatureTransferDetails[]","components":[{"name":"to","type":"address","internalType":"address"},{"name":"requestedAmount","type":"uint256","internalType":"uint256"}]},{"name":"owner","type":"address","internalType":"address"},{"name":"signature","type":"bytes","internalType":"bytes"}],"outputs":[],"stateMutability":"nonpayable"},{"type":"function","name":"permitWitnessTransferFrom","inputs":[{"name":"permit","type":"tuple","internalType":"struct ISignatureTransfer.PermitTransferFrom","components":[{"name":"permitted","type":"tuple","internalType":"struct ISignatureTransfer.TokenPermissions","components":[{"name":"token","type":"address","internalType":"address"},{"name":"amount","type":"uint256","internalType":"uint256"}]},{"name":"nonce","type":"uint256","internalType":"uint256"},{"name":"deadline","type":"uint256","internalType":"uint256"}]},{"name":"transferDetails","type":"tuple","internalType":"struct ISignatureTransfer.SignatureTransferDetails","components":[{"name":"to","type":"address","internalType":"address"},{"name":"requestedAmount","type":"uint256","internalType":"uint256"}]},{"name":"owner","type":"address","internalType":"address"},{"name":"witness","type":"bytes32","internalType":"bytes32"},{"name":"witnessTypeString","type":"string","internalType":"string"},{"name":"signature","type":"bytes","internalType":"bytes"}],"outputs":[],"stateMutability":"nonpayable"},{"type":"function","name":"permitWitnessTransferFrom","inputs":[{"name":"permit","type":"tuple","internalType":"struct ISignatureTransfer.PermitBatchTransferFrom","components":[{"name":"permitted","type":"tuple[]","internalType":"struct ISignatureTransfer.TokenPermissions[]","components":[{"name":"token","type":"address","internalType":"address"},{"name":"amount","type":"uint256","internalType":"uint256"}]},{"name":"nonce","type":"uint256","internalType":"uint256"},{"name":"deadline","type":"uint256","internalType":"uint256"}]},{"name":"transferDetails","type":"tuple[]","internalType":"struct ISignatureTransfer.SignatureTransferDetails[]","components":[{"name":"to","type":"address","internalType":"address"},{"name":"requestedAmount","type":"uint256","internalType":"uint256"}]},{"name":"owner","type":"address","internalType":"address"},{"name":"witness","type":"bytes32","internalType":"bytes32"},{"name":"witnessTypeString","type":"string","internalType":"string"},{"name":"signature","type":"bytes","internalType":"bytes"}],"outputs":[],"stateMutability":"nonpayable"},{"type":"event","name":"UnorderedNonceInvalidation","inputs":[{"name":"owner","type":"address","indexed":true,"internalType":"address"},{"name":"word","type":"uint256","indexed":false,"internalType":"uint256"},{"name":"mask","type":"uint256","indexed":false,"internalType":"uint256"}],"anonymous":false},{"type":"error","name":"InvalidAmount","inputs":[{"name":"maxAmount","type":"uint256","internalType":"uint256"}]},{"type":"error","name":"InvalidContractSignature","inputs":[]},{"type":"error","name":"InvalidNonce","inputs":[]},{"type":"error","name":"InvalidSignature","inputs":[]},{"type":"error","name":"InvalidSignatureLength","inputs":[]},{"type":"error","name":"InvalidSigner","inputs":[]},{"type":"error","name":"LengthMismatch","inputs":[]},{"type":"error","name":"SignatureExpired","inputs":[{"name":"signatureDeadline","type":"uint256","internalType":"uint256"}]}],"bytecode":{"object":"0x60c060405234801561000f575f5ffd5b504660a05261005e7f8cad95687ba82c2ce50e74f7b754645e5117c3a5bec8151c0726d5857980a8667f9ac997416e8ff9d2ff6bebeb7149f65cdae5e32e2b90440b566bb3044041d36a610066565b6080526100ae565b60408051602081018490529081018290524660608201523060808201525f906100a79060a00160408051601f19818403018152919052805160209091012090565b9392505050565b60805160a05161130f6100cf5f395f61039a01525f61040c015261130f5ff3fe608060405234801561000f575f5ffd5b506004361061006b575f3560e01c8063137c29fe1461006f57806330f28b7a146100845780633644e515146100975780633ff9dcb1146100b15780634fe02b44146100c4578063edd9444b146100eb578063fe8ec1a7146100fe575b5f5ffd5b61008261007d366004610ca1565b610111565b005b610082610092366004610d4d565b610134565b61009f61014a565b60405190815260200160405180910390f35b6100826100bf366004610dc0565b610158565b61009f6100d2366004610de0565b5f60208181529281526040808220909352908152205481565b6100826100f9366004610f1d565b6101b0565b61008261010c366004610fc5565b6101cf565b61012a888888610123838a8a8a6101f9565b8686610287565b5050505050505050565b6101438585856101238961033c565b5050505050565b5f610153610397565b905090565b335f8181526020818152604080832086845282529182902080548517905581518581529081018490527f3704902f963766a4e561bbaab6e6cdc1b1dd12f6e9e99648da8843b3f46b918d910160405180910390a25050565b6101c7868686866101c08b61042e565b878761052c565b505050505050565b5f6101dc8a87878761066b565b90506101ed8a8a8a8a85888861052c565b50505050505050505050565b5f5f6102456040518060a001604052806064815260200161127660649139858560405160200161022b939291906110a6565b604051602081830303815290604052805160209091012090565b90505f610254875f0151610775565b905061027c8282338a602001518b604001518b60405160200161022b969594939291906110ca565b979650505050505050565b60408601516020860135904211156102c357866040015160405163cd21db4f60e01b81526004016102ba91815260200190565b60405180910390fd5b8651602001518111156102f357865160200151604051633728b83d60e01b815260048101919091526024016102ba565b6103018588602001516107d1565b61031761030d8561082e565b849084908861085f565b61012a8561032860208901896110fb565b8951516001600160a01b0316919084610a72565b5f5f61034a835f0151610775565b90506103907f939c21a48a8dbe3a9a2404a1d46691e4d39f6583d6ec6b35714604c986d8010682338660200151876040015160405160200161022b959493929190611114565b9392505050565b5f7f00000000000000000000000000000000000000000000000000000000000000004614610409576101537f8cad95687ba82c2ce50e74f7b754645e5117c3a5bec8151c0726d5857980a8667f9ac997416e8ff9d2ff6bebeb7149f65cdae5e32e2b90440b566bb3044041d36a610a93565b507f000000000000000000000000000000000000000000000000000000000000000090565b8051515f9081816001600160401b0381111561044c5761044c610b29565b604051908082528060200260200182016040528015610475578160200160208202803683370190505b5090505f5b828110156104cc576104a7855f0151828151811061049a5761049a611140565b6020026020010151610775565b8282815181106104b9576104b9611140565b602090810291909101015260010161047a565b506105247ffcf35f5ac6a2c28868dc44c302166470266239195f02b0ee408334829333b7666105058360405160200161022b9190611154565b338760200151886040015160405160200161022b959493929190611114565b949350505050565b865151604088015142111561055c57876040015160405163cd21db4f60e01b81526004016102ba91815260200190565b80861461057f576040516001621398b960e31b0319815260040160405180910390fd5b61058d8589602001516107d1565b61059961030d8561082e565b5f5b81811015610660575f895f015182815181106105b9576105b9611140565b602002602001015190505f8989848181106105d6576105d6611140565b905060400201602001359050816020015181111561060f578160200151604051633728b83d60e01b81526004016102ba91815260200190565b801561065657610654888b8b8681811061062b5761062b611140565b61064192602060409092020190810191506110fb565b84516001600160a01b0316919084610a72565b505b505060010161059b565b505050505050505050565b5f5f61069d6040518060a00160405280606b815260200161120b606b9139858560405160200161022b939291906110a6565b8651519091505f816001600160401b038111156106bc576106bc610b29565b6040519080825280602002602001820160405280156106e5578160200160208202803683370190505b5090505f5b8281101561072f5761070a895f0151828151811061049a5761049a611140565b82828151811061071c5761071c611140565b60209081029190910101526001016106ea565b50610769836107488360405160200161022b9190611154565b338b602001518c604001518c60405160200161022b969594939291906110ca565b98975050505050505050565b5f6107cb7f618358ac3db8dc274f0cd8829da7e234bd48cd73c4a740aede1adec9846d06a18360405160200161022b92919091825280516001600160a01b03166020808401919091520151604082015260600190565b92915050565b6001600160a01b0382165f90815260208181526040808320600885901c808552925282208054600160ff861690811b91821892839055929390919081831690036101c757604051633ab3447f60e11b815260040160405180910390fd5b5f6107cb61083a61014a565b60405161190160f01b602082015260228101919091526042810184905260620161022b565b5f5f5f836001600160a01b03163b5f036109c55760418690036108b15761088886880188610dc0565b9093509150868660408181106108a0576108a0611140565b919091013560f81c91506109089050565b60408690036108ef575f6108c787890189610dc0565b9094506001600160ff1b038116935090506108e760ff82901c601b611189565b915050610908565b604051634be6321b60e01b815260040160405180910390fd5b604080515f8082526020820180845288905260ff841692820192909252606081018590526080810184905260019060a0016020604051602081039080840390855afa158015610959573d5f5f3e3d5ffd5b5050604051601f1901519150506001600160a01b03811661098d57604051638baa579f60e01b815260040160405180910390fd5b846001600160a01b0316816001600160a01b0316146109bf57604051632057875960e21b815260040160405180910390fd5b50610a69565b604051630b135d3f60e11b81525f906001600160a01b03861690631626ba7e906109f79089908c908c906004016111ae565b602060405180830381865afa158015610a12573d5f5f3e3d5ffd5b505050506040513d601f19601f82011682018060405250810190610a3691906111e3565b90506001600160e01b03198116630b135d3f60e11b1461012a57604051632c19a72f60e21b815260040160405180910390fd5b50505050505050565b5f610a886001600160a01b038616858585610abe565b506001949350505050565b60408051602081018490529081018290524660608201523060808201525f906103909060a00161022b565b610aca84848484610ad0565b50505050565b60405181606052826040528360601b602c526323b872dd60601b600c5260205f6064601c5f895af18060015f511416610b1b57803d873b151710610b1b57637939f4245f526004601cfd5b505f60605260405250505050565b634e487b7160e01b5f52604160045260245ffd5b604051606081016001600160401b0381118282101715610b5f57610b5f610b29565b60405290565b604051601f8201601f191681016001600160401b0381118282101715610b8d57610b8d610b29565b604052919050565b80356001600160a01b0381168114610bab575f5ffd5b919050565b5f60408284031215610bc0575f5ffd5b604080519081016001600160401b0381118282101715610be257610be2610b29565b604052905080610bf183610b95565b8152602092830135920191909152919050565b5f60808284031215610c14575f5ffd5b610c1c610b3d565b9050610c288383610bb0565b8152604082810135602083015260609092013591810191909152919050565b5f60408284031215610c57575f5ffd5b50919050565b5f5f83601f840112610c6d575f5ffd5b5081356001600160401b03811115610c83575f5ffd5b602083019150836020828501011115610c9a575f5ffd5b9250929050565b5f5f5f5f5f5f5f5f610140898b031215610cb9575f5ffd5b610cc38a8a610c04565b9750610cd28a60808b01610c47565b9650610ce060c08a01610b95565b955060e089013594506101008901356001600160401b03811115610d02575f5ffd5b610d0e8b828c01610c5d565b9095509350506101208901356001600160401b03811115610d2d575f5ffd5b610d398b828c01610c5d565b999c989b5096995094979396929594505050565b5f5f5f5f5f6101008688031215610d62575f5ffd5b610d6c8787610c04565b9450610d7b8760808801610c47565b9350610d8960c08701610b95565b925060e08601356001600160401b03811115610da3575f5ffd5b610daf88828901610c5d565b969995985093965092949392505050565b5f5f60408385031215610dd1575f5ffd5b50508035926020909101359150565b5f5f60408385031215610df1575f5ffd5b610dfa83610b95565b946020939093013593505050565b5f60608284031215610e18575f5ffd5b610e20610b3d565b905081356001600160401b03811115610e37575f5ffd5b8201601f81018413610e47575f5ffd5b80356001600160401b03811115610e6057610e60610b29565b610e6f60208260051b01610b65565b8082825260208201915060208360061b850101925086831115610e90575f5ffd5b6020840193505b82841015610ebc57610ea98785610bb0565b8252602082019150604084019350610e97565b84525050506020828101359082015260409182013591810191909152919050565b5f5f83601f840112610eed575f5ffd5b5081356001600160401b03811115610f03575f5ffd5b6020830191508360208260061b8501011115610c9a575f5ffd5b5f5f5f5f5f5f60808789031215610f32575f5ffd5b86356001600160401b03811115610f47575f5ffd5b610f5389828a01610e08565b96505060208701356001600160401b03811115610f6e575f5ffd5b610f7a89828a01610edd565b9096509450610f8d905060408801610b95565b925060608701356001600160401b03811115610fa7575f5ffd5b610fb389828a01610c5d565b979a9699509497509295939492505050565b5f5f5f5f5f5f5f5f5f60c08a8c031215610fdd575f5ffd5b89356001600160401b03811115610ff2575f5ffd5b610ffe8c828d01610e08565b99505060208a01356001600160401b03811115611019575f5ffd5b6110258c828d01610edd565b9099509750611038905060408b01610b95565b955060608a0135945060808a01356001600160401b03811115611059575f5ffd5b6110658c828d01610c5d565b90955093505060a08a01356001600160401b03811115611083575f5ffd5b61108f8c828d01610c5d565b915080935050809150509295985092959850929598565b5f84518060208701845e5f908301908152838582375f930192835250909392505050565b95865260208601949094526001600160a01b039290921660408501526060840152608083015260a082015260c00190565b5f6020828403121561110b575f5ffd5b61039082610b95565b94855260208501939093526001600160a01b039190911660408401526060830152608082015260a00190565b634e487b7160e01b5f52603260045260245ffd5b81515f90829060208501835b8281101561117e578151845260209384019390910190600101611160565b509195945050505050565b60ff81811683821601908111156107cb57634e487b7160e01b5f52601160045260245ffd5b83815260406020820152816040820152818360608301375f818301606090810191909152601f909201601f1916010192915050565b5f602082840312156111f3575f5ffd5b81516001600160e01b031981168114610390575f5ffdfe5065726d697442617463685769746e6573735472616e7366657246726f6d28546f6b656e5065726d697373696f6e735b5d207065726d69747465642c61646472657373207370656e6465722c75696e74323536206e6f6e63652c75696e7432353620646561646c696e652c5065726d69745769746e6573735472616e7366657246726f6d28546f6b656e5065726d697373696f6e73207065726d69747465642c61646472657373207370656e6465722c75696e74323536206e6f6e63652c75696e7432353620646561646c696e652ca26469706673582212202e946473439bf6a1ee4ccdb99b8a41f73998b8482a94e60f94f7f41437d1d2e264736f6c634300081e0033","linkReferences":{}},"methodIdentifiers":{"DOMAIN_SEPARATOR()":"3644e515","invalidateUnorderedNonces(uint256,uint256)":"3ff9dcb1","nonceBitmap(address,uint256)":"4fe02b44","permitTransferFrom(((address,uint256),uint256,uint256),(address,uint256),address,bytes)":"30f28b7a","permitTransferFrom(((address,uint256)[],uint256,uint256),(address,uint256)[],address,bytes)":"edd9444b","permitWitnessTransferFrom(((address,uint256),uint256,uint256),(address,uint256),address,bytes32,string,bytes)":"137c29fe","permitWitnessTransferFrom(((address,uint256)[],uint256,uint256),(address,uint256)[],address,bytes32,string,bytes)":"fe8ec1a7"},"id":1255}