{"abi":[{"type":"function","name":"erc4626BufferWrapOrUnwrap","inputs":[{"name":"params","type":"tuple","internalType":"struct BufferWrapOrUnwrapParams","components":[{"name":"kind","type":"uint8","internalType":"enum SwapKind"},{"name":"direction","type":"uint8","internalType":"enum WrappingDirection"},{"name":"wrappedToken","type":"address","internalType":"contract IERC4626"},{"name":"amountGivenRaw","type":"uint256","internalType":"uint256"},{"name":"limitRaw","type":"uint256","internalType":"uint256"}]}],"outputs":[{"name":"amountCalculatedRaw","type":"uint256","internalType":"uint256"},{"name":"amountInRaw","type":"uint256","internalType":"uint256"},{"name":"amountOutRaw","type":"uint256","internalType":"uint256"}],"stateMutability":"nonpayable"},{"type":"function","name":"facetFuncs","inputs":[],"outputs":[{"name":"funcs","type":"bytes4[]","internalType":"bytes4[]"}],"stateMutability":"pure"},{"type":"function","name":"facetInterfaces","inputs":[],"outputs":[{"name":"interfaces","type":"bytes4[]","internalType":"bytes4[]"}],"stateMutability":"pure"},{"type":"function","name":"facetMetadata","inputs":[],"outputs":[{"name":"name_","type":"string","internalType":"string"},{"name":"interfaces","type":"bytes4[]","internalType":"bytes4[]"},{"name":"functions","type":"bytes4[]","internalType":"bytes4[]"}],"stateMutability":"pure"},{"type":"function","name":"facetName","inputs":[],"outputs":[{"name":"name","type":"string","internalType":"string"}],"stateMutability":"pure"},{"type":"event","name":"AggregateSwapFeePercentageChanged","inputs":[{"name":"pool","type":"address","indexed":true,"internalType":"address"},{"name":"aggregateSwapFeePercentage","type":"uint256","indexed":false,"internalType":"uint256"}],"anonymous":false},{"type":"event","name":"AggregateYieldFeePercentageChanged","inputs":[{"name":"pool","type":"address","indexed":true,"internalType":"address"},{"name":"aggregateYieldFeePercentage","type":"uint256","indexed":false,"internalType":"uint256"}],"anonymous":false},{"type":"event","name":"AuthorizerChanged","inputs":[{"name":"newAuthorizer","type":"address","indexed":true,"internalType":"contract IAuthorizer"}],"anonymous":false},{"type":"event","name":"BufferSharesBurned","inputs":[{"name":"wrappedToken","type":"address","indexed":true,"internalType":"contract IERC4626"},{"name":"from","type":"address","indexed":true,"internalType":"address"},{"name":"burnedShares","type":"uint256","indexed":false,"internalType":"uint256"}],"anonymous":false},{"type":"event","name":"BufferSharesMinted","inputs":[{"name":"wrappedToken","type":"address","indexed":true,"internalType":"contract IERC4626"},{"name":"to","type":"address","indexed":true,"internalType":"address"},{"name":"issuedShares","type":"uint256","indexed":false,"internalType":"uint256"}],"anonymous":false},{"type":"event","name":"LiquidityAdded","inputs":[{"name":"pool","type":"address","indexed":true,"internalType":"address"},{"name":"liquidityProvider","type":"address","indexed":true,"internalType":"address"},{"name":"kind","type":"uint8","indexed":true,"internalType":"enum AddLiquidityKind"},{"name":"totalSupply","type":"uint256","indexed":false,"internalType":"uint256"},{"name":"amountsAddedRaw","type":"uint256[]","indexed":false,"internalType":"uint256[]"},{"name":"swapFeeAmountsRaw","type":"uint256[]","indexed":false,"internalType":"uint256[]"}],"anonymous":false},{"type":"event","name":"LiquidityAddedToBuffer","inputs":[{"name":"wrappedToken","type":"address","indexed":true,"internalType":"contract IERC4626"},{"name":"amountUnderlying","type":"uint256","indexed":false,"internalType":"uint256"},{"name":"amountWrapped","type":"uint256","indexed":false,"internalType":"uint256"},{"name":"bufferBalances","type":"bytes32","indexed":false,"internalType":"bytes32"}],"anonymous":false},{"type":"event","name":"LiquidityRemoved","inputs":[{"name":"pool","type":"address","indexed":true,"internalType":"address"},{"name":"liquidityProvider","type":"address","indexed":true,"internalType":"address"},{"name":"kind","type":"uint8","indexed":true,"internalType":"enum RemoveLiquidityKind"},{"name":"totalSupply","type":"uint256","indexed":false,"internalType":"uint256"},{"name":"amountsRemovedRaw","type":"uint256[]","indexed":false,"internalType":"uint256[]"},{"name":"swapFeeAmountsRaw","type":"uint256[]","indexed":false,"internalType":"uint256[]"}],"anonymous":false},{"type":"event","name":"LiquidityRemovedFromBuffer","inputs":[{"name":"wrappedToken","type":"address","indexed":true,"internalType":"contract IERC4626"},{"name":"amountUnderlying","type":"uint256","indexed":false,"internalType":"uint256"},{"name":"amountWrapped","type":"uint256","indexed":false,"internalType":"uint256"},{"name":"bufferBalances","type":"bytes32","indexed":false,"internalType":"bytes32"}],"anonymous":false},{"type":"event","name":"PoolInitialized","inputs":[{"name":"pool","type":"address","indexed":true,"internalType":"address"}],"anonymous":false},{"type":"event","name":"PoolPausedStateChanged","inputs":[{"name":"pool","type":"address","indexed":true,"internalType":"address"},{"name":"paused","type":"bool","indexed":false,"internalType":"bool"}],"anonymous":false},{"type":"event","name":"PoolRecoveryModeStateChanged","inputs":[{"name":"pool","type":"address","indexed":true,"internalType":"address"},{"name":"recoveryMode","type":"bool","indexed":false,"internalType":"bool"}],"anonymous":false},{"type":"event","name":"PoolRegistered","inputs":[{"name":"pool","type":"address","indexed":true,"internalType":"address"},{"name":"factory","type":"address","indexed":true,"internalType":"address"},{"name":"tokenConfig","type":"tuple[]","indexed":false,"internalType":"struct TokenConfig[]","components":[{"name":"token","type":"address","internalType":"contract IERC20"},{"name":"tokenType","type":"uint8","internalType":"enum TokenType"},{"name":"rateProvider","type":"address","internalType":"contract IRateProvider"},{"name":"paysYieldFees","type":"bool","internalType":"bool"}]},{"name":"swapFeePercentage","type":"uint256","indexed":false,"internalType":"uint256"},{"name":"pauseWindowEndTime","type":"uint32","indexed":false,"internalType":"uint32"},{"name":"roleAccounts","type":"tuple","indexed":false,"internalType":"struct PoolRoleAccounts","components":[{"name":"pauseManager","type":"address","internalType":"address"},{"name":"swapFeeManager","type":"address","internalType":"address"},{"name":"poolCreator","type":"address","internalType":"address"}]},{"name":"hooksConfig","type":"tuple","indexed":false,"internalType":"struct HooksConfig","components":[{"name":"enableHookAdjustedAmounts","type":"bool","internalType":"bool"},{"name":"shouldCallBeforeInitialize","type":"bool","internalType":"bool"},{"name":"shouldCallAfterInitialize","type":"bool","internalType":"bool"},{"name":"shouldCallComputeDynamicSwapFee","type":"bool","internalType":"bool"},{"name":"shouldCallBeforeSwap","type":"bool","internalType":"bool"},{"name":"shouldCallAfterSwap","type":"bool","internalType":"bool"},{"name":"shouldCallBeforeAddLiquidity","type":"bool","internalType":"bool"},{"name":"shouldCallAfterAddLiquidity","type":"bool","internalType":"bool"},{"name":"shouldCallBeforeRemoveLiquidity","type":"bool","internalType":"bool"},{"name":"shouldCallAfterRemoveLiquidity","type":"bool","internalType":"bool"},{"name":"hooksContract","type":"address","internalType":"address"}]},{"name":"liquidityManagement","type":"tuple","indexed":false,"internalType":"struct LiquidityManagement","components":[{"name":"disableUnbalancedLiquidity","type":"bool","internalType":"bool"},{"name":"enableAddLiquidityCustom","type":"bool","internalType":"bool"},{"name":"enableRemoveLiquidityCustom","type":"bool","internalType":"bool"},{"name":"enableDonation","type":"bool","internalType":"bool"}]}],"anonymous":false},{"type":"event","name":"ProtocolFeeControllerChanged","inputs":[{"name":"newProtocolFeeController","type":"address","indexed":true,"internalType":"contract IProtocolFeeController"}],"anonymous":false},{"type":"event","name":"Swap","inputs":[{"name":"pool","type":"address","indexed":true,"internalType":"address"},{"name":"tokenIn","type":"address","indexed":true,"internalType":"contract IERC20"},{"name":"tokenOut","type":"address","indexed":true,"internalType":"contract IERC20"},{"name":"amountIn","type":"uint256","indexed":false,"internalType":"uint256"},{"name":"amountOut","type":"uint256","indexed":false,"internalType":"uint256"},{"name":"swapFeePercentage","type":"uint256","indexed":false,"internalType":"uint256"},{"name":"swapFeeAmount","type":"uint256","indexed":false,"internalType":"uint256"}],"anonymous":false},{"type":"event","name":"SwapFeePercentageChanged","inputs":[{"name":"pool","type":"address","indexed":true,"internalType":"address"},{"name":"swapFeePercentage","type":"uint256","indexed":false,"internalType":"uint256"}],"anonymous":false},{"type":"event","name":"Unwrap","inputs":[{"name":"wrappedToken","type":"address","indexed":true,"internalType":"contract IERC4626"},{"name":"burnedShares","type":"uint256","indexed":false,"internalType":"uint256"},{"name":"withdrawnUnderlying","type":"uint256","indexed":false,"internalType":"uint256"},{"name":"bufferBalances","type":"bytes32","indexed":false,"internalType":"bytes32"}],"anonymous":false},{"type":"event","name":"VaultAuxiliary","inputs":[{"name":"pool","type":"address","indexed":true,"internalType":"address"},{"name":"eventKey","type":"bytes32","indexed":true,"internalType":"bytes32"},{"name":"eventData","type":"bytes","indexed":false,"internalType":"bytes"}],"anonymous":false},{"type":"event","name":"VaultBuffersPausedStateChanged","inputs":[{"name":"paused","type":"bool","indexed":false,"internalType":"bool"}],"anonymous":false},{"type":"event","name":"VaultPausedStateChanged","inputs":[{"name":"paused","type":"bool","indexed":false,"internalType":"bool"}],"anonymous":false},{"type":"event","name":"VaultQueriesDisabled","inputs":[],"anonymous":false},{"type":"event","name":"VaultQueriesEnabled","inputs":[],"anonymous":false},{"type":"event","name":"Wrap","inputs":[{"name":"wrappedToken","type":"address","indexed":true,"internalType":"contract IERC4626"},{"name":"depositedUnderlying","type":"uint256","indexed":false,"internalType":"uint256"},{"name":"mintedShares","type":"uint256","indexed":false,"internalType":"uint256"},{"name":"bufferBalances","type":"bytes32","indexed":false,"internalType":"bytes32"}],"anonymous":false},{"type":"error","name":"AfterAddLiquidityHookFailed","inputs":[]},{"type":"error","name":"AfterInitializeHookFailed","inputs":[]},{"type":"error","name":"AfterRemoveLiquidityHookFailed","inputs":[]},{"type":"error","name":"AfterSwapHookFailed","inputs":[]},{"type":"error","name":"AmountGivenZero","inputs":[]},{"type":"error","name":"AmountInAboveMax","inputs":[{"name":"tokenIn","type":"address","internalType":"contract IERC20"},{"name":"amountIn","type":"uint256","internalType":"uint256"},{"name":"maxAmountIn","type":"uint256","internalType":"uint256"}]},{"type":"error","name":"AmountOutBelowMin","inputs":[{"name":"tokenOut","type":"address","internalType":"contract IERC20"},{"name":"amountOut","type":"uint256","internalType":"uint256"},{"name":"minAmountOut","type":"uint256","internalType":"uint256"}]},{"type":"error","name":"BalanceNotSettled","inputs":[]},{"type":"error","name":"BalanceOverflow","inputs":[]},{"type":"error","name":"BeforeAddLiquidityHookFailed","inputs":[]},{"type":"error","name":"BeforeInitializeHookFailed","inputs":[]},{"type":"error","name":"BeforeRemoveLiquidityHookFailed","inputs":[]},{"type":"error","name":"BeforeSwapHookFailed","inputs":[]},{"type":"error","name":"BptAmountInAboveMax","inputs":[{"name":"amountIn","type":"uint256","internalType":"uint256"},{"name":"maxAmountIn","type":"uint256","internalType":"uint256"}]},{"type":"error","name":"BptAmountOutBelowMin","inputs":[{"name":"amountOut","type":"uint256","internalType":"uint256"},{"name":"minAmountOut","type":"uint256","internalType":"uint256"}]},{"type":"error","name":"BufferAlreadyInitialized","inputs":[{"name":"wrappedToken","type":"address","internalType":"contract IERC4626"}]},{"type":"error","name":"BufferNotInitialized","inputs":[{"name":"wrappedToken","type":"address","internalType":"contract IERC4626"}]},{"type":"error","name":"BufferSharesInvalidOwner","inputs":[]},{"type":"error","name":"BufferSharesInvalidReceiver","inputs":[]},{"type":"error","name":"BufferTotalSupplyTooLow","inputs":[{"name":"totalSupply","type":"uint256","internalType":"uint256"}]},{"type":"error","name":"CannotReceiveEth","inputs":[]},{"type":"error","name":"CannotSwapSameToken","inputs":[]},{"type":"error","name":"DoesNotSupportAddLiquidityCustom","inputs":[]},{"type":"error","name":"DoesNotSupportDonation","inputs":[]},{"type":"error","name":"DoesNotSupportRemoveLiquidityCustom","inputs":[]},{"type":"error","name":"DoesNotSupportUnbalancedLiquidity","inputs":[]},{"type":"error","name":"DynamicSwapFeeHookFailed","inputs":[]},{"type":"error","name":"FeePrecisionTooHigh","inputs":[]},{"type":"error","name":"HookAdjustedAmountInAboveMax","inputs":[{"name":"tokenIn","type":"address","internalType":"contract IERC20"},{"name":"amountIn","type":"uint256","internalType":"uint256"},{"name":"maxAmountIn","type":"uint256","internalType":"uint256"}]},{"type":"error","name":"HookAdjustedAmountOutBelowMin","inputs":[{"name":"tokenOut","type":"address","internalType":"contract IERC20"},{"name":"amountOut","type":"uint256","internalType":"uint256"},{"name":"minAmountOut","type":"uint256","internalType":"uint256"}]},{"type":"error","name":"HookAdjustedSwapLimit","inputs":[{"name":"amount","type":"uint256","internalType":"uint256"},{"name":"limit","type":"uint256","internalType":"uint256"}]},{"type":"error","name":"HookRegistrationFailed","inputs":[{"name":"poolHooksContract","type":"address","internalType":"address"},{"name":"pool","type":"address","internalType":"address"},{"name":"poolFactory","type":"address","internalType":"address"}]},{"type":"error","name":"InvalidAddLiquidityKind","inputs":[]},{"type":"error","name":"InvalidRemoveLiquidityKind","inputs":[]},{"type":"error","name":"InvalidToken","inputs":[]},{"type":"error","name":"InvalidTokenConfiguration","inputs":[]},{"type":"error","name":"InvalidTokenDecimals","inputs":[]},{"type":"error","name":"InvalidTokenType","inputs":[]},{"type":"error","name":"InvalidUnderlyingToken","inputs":[{"name":"wrappedToken","type":"address","internalType":"contract IERC4626"}]},{"type":"error","name":"IssuedSharesBelowMin","inputs":[{"name":"issuedShares","type":"uint256","internalType":"uint256"},{"name":"minIssuedShares","type":"uint256","internalType":"uint256"}]},{"type":"error","name":"MaxTokens","inputs":[]},{"type":"error","name":"MinTokens","inputs":[]},{"type":"error","name":"NotEnoughBufferShares","inputs":[]},{"type":"error","name":"NotEnoughUnderlying","inputs":[{"name":"wrappedToken","type":"address","internalType":"contract IERC4626"},{"name":"expectedUnderlyingAmount","type":"uint256","internalType":"uint256"},{"name":"actualUnderlyingAmount","type":"uint256","internalType":"uint256"}]},{"type":"error","name":"NotEnoughWrapped","inputs":[{"name":"wrappedToken","type":"address","internalType":"contract IERC4626"},{"name":"expectedWrappedAmount","type":"uint256","internalType":"uint256"},{"name":"actualWrappedAmount","type":"uint256","internalType":"uint256"}]},{"type":"error","name":"NotVaultDelegateCall","inputs":[]},{"type":"error","name":"PauseBufferPeriodDurationTooLarge","inputs":[]},{"type":"error","name":"PercentageAboveMax","inputs":[]},{"type":"error","name":"PoolAlreadyInitialized","inputs":[{"name":"pool","type":"address","internalType":"address"}]},{"type":"error","name":"PoolAlreadyRegistered","inputs":[{"name":"pool","type":"address","internalType":"address"}]},{"type":"error","name":"PoolInRecoveryMode","inputs":[{"name":"pool","type":"address","internalType":"address"}]},{"type":"error","name":"PoolNotInRecoveryMode","inputs":[{"name":"pool","type":"address","internalType":"address"}]},{"type":"error","name":"PoolNotInitialized","inputs":[{"name":"pool","type":"address","internalType":"address"}]},{"type":"error","name":"PoolNotPaused","inputs":[{"name":"pool","type":"address","internalType":"address"}]},{"type":"error","name":"PoolNotRegistered","inputs":[{"name":"pool","type":"address","internalType":"address"}]},{"type":"error","name":"PoolPauseWindowExpired","inputs":[{"name":"pool","type":"address","internalType":"address"}]},{"type":"error","name":"PoolPaused","inputs":[{"name":"pool","type":"address","internalType":"address"}]},{"type":"error","name":"ProtocolFeesExceedTotalCollected","inputs":[]},{"type":"error","name":"QueriesDisabled","inputs":[]},{"type":"error","name":"QueriesDisabledPermanently","inputs":[]},{"type":"error","name":"QuoteResultSpoofed","inputs":[]},{"type":"error","name":"ReentrancyGuardReentrantCall","inputs":[]},{"type":"error","name":"RouterNotTrusted","inputs":[]},{"type":"error","name":"SenderIsNotVault","inputs":[{"name":"sender","type":"address","internalType":"address"}]},{"type":"error","name":"SwapFeePercentageTooHigh","inputs":[]},{"type":"error","name":"SwapFeePercentageTooLow","inputs":[]},{"type":"error","name":"SwapLimit","inputs":[{"name":"amount","type":"uint256","internalType":"uint256"},{"name":"limit","type":"uint256","internalType":"uint256"}]},{"type":"error","name":"TokenAlreadyRegistered","inputs":[{"name":"token","type":"address","internalType":"contract IERC20"}]},{"type":"error","name":"TokenNotRegistered","inputs":[{"name":"token","type":"address","internalType":"contract IERC20"}]},{"type":"error","name":"TokensMismatch","inputs":[{"name":"pool","type":"address","internalType":"address"},{"name":"expectedToken","type":"address","internalType":"address"},{"name":"actualToken","type":"address","internalType":"address"}]},{"type":"error","name":"TradeAmountTooSmall","inputs":[]},{"type":"error","name":"VaultBuffersArePaused","inputs":[]},{"type":"error","name":"VaultIsNotUnlocked","inputs":[]},{"type":"error","name":"VaultNotPaused","inputs":[]},{"type":"error","name":"VaultPauseWindowDurationTooLarge","inputs":[]},{"type":"error","name":"VaultPauseWindowExpired","inputs":[]},{"type":"error","name":"VaultPaused","inputs":[]},{"type":"error","name":"WrapAmountTooSmall","inputs":[{"name":"wrappedToken","type":"address","internalType":"contract IERC4626"}]},{"type":"error","name":"WrongProtocolFeeControllerDeployment","inputs":[]},{"type":"error","name":"WrongUnderlyingToken","inputs":[{"name":"wrappedToken","type":"address","internalType":"contract IERC4626"},{"name":"underlyingToken","type":"address","internalType":"address"}]},{"type":"error","name":"WrongVaultAdminDeployment","inputs":[]},{"type":"error","name":"WrongVaultExtensionDeployment","inputs":[]}],"bytecode":{"object":"0x6080604052348015600e575f5ffd5b506117358061001c5f395ff3fe608060405234801561000f575f5ffd5b5060043610610055575f3560e01c80632ea808261461005957806343583be514610077578063574a4cff146100995780635b6f4d01146100a1578063f10d7a75146100b6575b5f5ffd5b6100616100cd565b60405161006e91906113dd565b60405180910390f35b61008a61008536600461141c565b610125565b60405161006e939291906114a9565b610061610395565b6100a96103d1565b60405161006e91906114ed565b6100be6103fb565b60405161006e939291906114ff565b60408051600180825281830190925260609160208083019080368337019050509050630561131960e31b815f8151811061010957610109611541565b6001600160e01b03199092166020928302919091019091015290565b5f5f5f610130610423565b610138610468565b836040015161014681610496565b61014e6104cc565b5f610157610513565b90505f86604001516001600160a01b03166338d52e0f6040518163ffffffff1660e01b8152600401602060405180830381865afa15801561019a573d5f5f3e3d5ffd5b505050506040513d601f19601f820116820180604052508101906101be9190611555565b90506101ce87604001518261053c565b6101e08760400151886060015161058d565b6001876020015160018111156101f8576101f8611570565b0361026f575f61021683895f0151848b604001518c606001516105b7565b6040808c0151905193995091975092506001600160a01b0316907feeb740c90bf2b18c9532eb7d473137767036d893dff3e009f32718f821b2a4c090610261908990899086906114a9565b60405180910390a2506102dd565b5f61028883895f0151848b604001518c60600151610956565b6040808c0151905193995091975092506001600160a01b0316907f3771d13c67011e31e12031c54bb59b0bf544a80b81d280a3711e172aa8b7f47b906102d3908990899086906114a9565b60405180910390a2505b5f875160018111156102f1576102f1611570565b0361033c57866080015184101561033457608087015160405163e2ea151b60e01b815261032b918691600401918252602082015260400190565b60405180910390fd5b839550610375565b866080015185111561037157608087015160405163e2ea151b60e01b815261032b918791600401918252602082015260400190565b8495505b61038387604001518761058d565b505061038d610d5e565b509193909250565b604080516001808252818301909252606091602080830190803683370190505090506343583be560e01b815f8151811061010957610109611541565b60408051808201909152601081526f15985d5b1d109d5999995c919858d95d60821b602082015290565b60608060606104086103d1565b92506104126100cd565b915061041c610395565b9050909192565b7f1369d017453f080f2416efe5ae39c8a4b4655ea0634227aaab0afdb9a9f93f005c15155f036104665760405163604dd39b60e11b815260040160405180910390fd5b565b610478610473610d75565b610d88565b1561046657604051630f27df0960e01b815260040160405180910390fd5b5f6104a082610db1565b6001600160a01b0316036104c957806040516385f4129960e01b815260040161032b9190611584565b50565b5f5160206116e05f395f51905f525c156104f957604051633ee5aeb560e01b815260040160405180910390fd5b61046660015f5160206116e05f395f51905f525b90610ddf565b7f867cc37b1d81c6898e0381d9834d1320e6a009ceb8f1f455820783856710c6b590565b905090565b806001600160a01b031661054f83610db1565b6001600160a01b031614610589576040516336b18d0960e01b81526001600160a01b0380841660048301528216602482015260440161032b565b5050565b610595610de6565b81101561058957816040516318fe738560e01b815260040161032b9190611584565b5f8080808760018111156105cd576105cd611570565b0361065f578360016001600160a01b038716634cdad5066105ee83856115ac565b6040518263ffffffff1660e01b815260040161060c91815260200190565b602060405180830381865afa158015610627573d5f5f3e3d5ffd5b505050506040513d601f19601f8201168201806040525081019061064b91906115bf565b61065591906115ac565b90935091506106e7565b6001600160a01b038516630a28a4776106798660016115d6565b6040518263ffffffff1660e01b815260040161069791815260200190565b602060405180830381865afa1580156106b2573d5f5f3e3d5ffd5b505050506040513d601f19601f820116820180604052508101906106d691906115bf565b6106e19060016115d6565b92508391505b506001600160a01b0384165f908152600e8801602052604090205461070a610df9565b61094b578161071882610e19565b1061076e575f8261072883610e19565b039050610749818561073a8560801c90565b61074491906115d6565b610e25565b6001600160a01b0387165f908152600e8b016020526040902081905591506109379050565b5f808089600181111561078357610783611570565b0361082c575f6107938489610e70565b90506107b1816107a288610f2c565b6107ac91906115e9565b610f2c565b604051635d043b2960e11b81529092506001600160a01b0389169063ba087652906107e490859030908190600401611610565b6020604051808303815f875af1158015610800573d5f5f3e3d5ffd5b505050506040513d601f19601f8201168201806040525081019061082491906115bf565b9250506108c7565b5f6108378489610f36565b90506108508161084687610f2c565b6107ac919061162f565b604051632d182be560e21b81529093506001600160a01b0389169063b460af949061088390869030908190600401611610565b6020604051808303815f875af115801561089f573d5f5f3e3d5ffd5b505050506040513d601f19601f820116820180604052508101906108c391906115bf565b9150505b6108d48a89898585610f74565b61091684836108e286610e19565b6108ec91906115d6565b6108f691906115ac565b82876109028760801c90565b61090c91906115d6565b61074491906115ac565b6001600160a01b0388165f908152600e8c0160205260409020819055925050505b6109418584610fda565b61094b8683610fec565b955095509592505050565b5f80808087600181111561096c5761096c611570565b036109fe578360016001600160a01b03871663ef8b30f761098d83856115ac565b6040518263ffffffff1660e01b81526004016109ab91815260200190565b602060405180830381865afa1580156109c6573d5f5f3e3d5ffd5b505050506040513d601f19601f820116820180604052508101906109ea91906115bf565b6109f491906115ac565b9093509150610a86565b6001600160a01b03851663b3d7f6b9610a188660016115d6565b6040518263ffffffff1660e01b8152600401610a3691815260200190565b602060405180830381865afa158015610a51573d5f5f3e3d5ffd5b505050506040513d601f19601f82011682018060405250810190610a7591906115bf565b610a809060016115d6565b92508391505b506001600160a01b0384165f908152600e88016020526040902054610aa9610df9565b61094b5781610ab88260801c90565b10610b0e575f82610ac98360801c90565b039050610ae984610ad984610e19565b610ae391906115d6565b82610e25565b6001600160a01b0387165f908152600e8b01602052604090208190559150610d4a9050565b5f8080896001811115610b2357610b23611570565b03610bce575f610b338489610f36565b9050610b42816107a288610f2c565b9250610b586001600160a01b038a168985611002565b604051636e553f6560e01b81526001600160a01b03891690636e553f6590610b869086903090600401611655565b6020604051808303815f875af1158015610ba2573d5f5f3e3d5ffd5b505050506040513d601f19601f82011682018060405250810190610bc691906115bf565b915050610cda565b5f610bd98489610e70565b9050610be88161084687610f2c565b60405163b3d7f6b960e01b8152600481018290529092506001600160a01b0389169063b3d7f6b990602401602060405180830381865afa158015610c2e573d5f5f3e3d5ffd5b505050506040513d601f19601f82011682018060405250810190610c5291906115bf565b9250610c686001600160a01b038a168985611002565b6040516394bf804d60e01b81526001600160a01b038916906394bf804d90610c969085903090600401611655565b6020604051808303815f875af1158015610cb2573d5f5f3e3d5ffd5b505050506040513d601f19601f82011682018060405250810190610cd691906115bf565b9250505b610cee6001600160a01b038916885f611002565b610cfb8a89898585611012565b610d298286610d0986610e19565b610d1391906115d6565b610d1d91906115ac565b85836109028760801c90565b6001600160a01b0388165f908152600e8c0160205260409020819055925050505b610d548684610fda565b61094b8583610fec565b6104665f5f5160206116e05f395f51905f5261050d565b5f610537610d81610513565b600a015490565b5f610dab610d978260016115d6565b610da29060016115d6565b83901c60011690565b92915050565b5f610dab610dbd610513565b6001600160a01b038085165f9081526011929092016020526040909120541690565b80825d5050565b5f610537610df2610513565b6001015490565b5f321580156105375750610e13610e0e610d75565b611060565b15905090565b6001600160801b031690565b5f6001600160801b03831180610e4157506001600160801b0382115b15610e5f576040516389560ca160e01b815260040160405180910390fd5b610e69838361106a565b9392505050565b5f5f610e7f6107ac8560801c90565b90505f80610e8c86610e19565b1115610f0d57610f0a846001600160a01b0316630a28a477610ead88610e19565b6040518263ffffffff1660e01b8152600401610ecb91815260200190565b602060405180830381865afa158015610ee6573d5f5f3e3d5ffd5b505050506040513d601f19601f820116820180604052508101906107ac91906115bf565b90505b6002610f19828461162f565b610f23919061166c565b95945050505050565b5f610dab82611079565b5f5f610f446107ac85610e19565b90505f80610f528660801c90565b1115610f0d57610f0a846001600160a01b031663b3d7f6b9610ead8860801c90565b6001600160a01b0384165f908152600b86016020526040812054610f999084906115d6565b6001600160a01b0385165f908152600b8801602052604081205491925090610fc29084906115ac565b9050610fd18787878585611092565b50505050505050565b61058982610fe783610f2c565b6111f5565b61058982610ff983610f2c565b610fe7906116a4565b61100d838383611282565b505050565b6001600160a01b0384165f908152600b860160205260408120546110379084906115ac565b6001600160a01b0385165f908152600b8801602052604081205491925090610fc29084906115d6565b5f60018216610dab565b5f610e6983608084901b6115d6565b5f5f8212611085575090565b61108d61130c565b919050565b6040516370a0823160e01b81525f906001600160a01b038616906370a08231906110c0903090600401611584565b602060405180830381865afa1580156110db573d5f5f3e3d5ffd5b505050506040513d601f19601f820116820180604052508101906110ff91906115bf565b90508281101561112857838382604051631c6a537560e01b815260040161032b939291906116be565b6001600160a01b038086165f908152600b88016020526040808220849055516370a0823160e01b815290918616906370a082319061116a903090600401611584565b602060405180830381865afa158015611185573d5f5f3e3d5ffd5b505050506040513d601f19601f820116820180604052508101906111a991906115bf565b9050828110156111d257848382604051631149424d60e01b815260040161032b939291906116be565b6001600160a01b039094165f908152600b90960160205250506040909320555050565b805f03611200575050565b5f6112138361120d611319565b9061133d565b90505f61122083836115e9565b9050805f0361123e57611239611234611350565b611374565b611255565b815f0361125557611255611250611350565b61138a565b61127c8482611262611319565b91905f82815260208490526040902061100d90829061050d565b50505050565b816014528060345263095ea7b360601b5f5260205f604460105f875af18060015f51141661130257803d853b151710611302575f60345263095ea7b360601b5f525f38604460105f885af1508160345260205f604460105f885af190508060015f51141661130257803d853b15171061130257633e3f8f735f526004601cfd5b505f603452505050565b6335278d125f526004601cfd5b7ff74f46243717369ff9f20877dfc1ba8491e6be48bfe7acc5b65f5ac68f585c0090565b5f8181526020839052604081205c610e69565b7fbcbf50c510014a975eac30806436734486f167c41af035c1645353d475d5710090565b6104c96113836001835c6115ac565b8290610ddf565b6104c9611383825c60016115d6565b5f8151808452602084019350602083015f5b828110156113d35781516001600160e01b0319168652602095860195909101906001016113ab565b5093949350505050565b602081525f610e696020830184611399565b80356002811061108d575f5ffd5b6001600160a01b03811681146104c9575f5ffd5b803561108d816113fd565b5f60a082840312801561142d575f5ffd5b5060405160a081016001600160401b038111828210171561145c57634e487b7160e01b5f52604160045260245ffd5b604052611468836113ef565b8152611476602084016113ef565b602082015261148760408401611411565b6040820152606083810135908201526080928301359281019290925250919050565b9283526020830191909152604082015260600190565b5f81518084528060208401602086015e5f602082860101526020601f19601f83011685010191505092915050565b602081525f610e6960208301846114bf565b606081525f61151160608301866114bf565b82810360208401526115238186611399565b905082810360408401526115378185611399565b9695505050505050565b634e487b7160e01b5f52603260045260245ffd5b5f60208284031215611565575f5ffd5b8151610e69816113fd565b634e487b7160e01b5f52602160045260245ffd5b6001600160a01b0391909116815260200190565b634e487b7160e01b5f52601160045260245ffd5b81810381811115610dab57610dab611598565b5f602082840312156115cf575f5ffd5b5051919050565b80820180821115610dab57610dab611598565b8082018281125f83128015821682158216171561160857611608611598565b505092915050565b9283526001600160a01b03918216602084015216604082015260600190565b8181035f83128015838313168383128216171561164e5761164e611598565b5092915050565b9182526001600160a01b0316602082015260400190565b5f8261168657634e487b7160e01b5f52601260045260245ffd5b600160ff1b82145f198414161561169f5761169f611598565b500590565b5f600160ff1b82016116b8576116b8611598565b505f0390565b6001600160a01b03939093168352602083019190915260408201526060019056fe9b779b17422d0df92223018b32b4d1fa46e071723d6817e2486d003becc55f00a2646970667358221220a6132c342998c59e7cf81186afdddffcec3bd8274a94b51137e8657aa141586e64736f6c634300081e0033","linkReferences":{}},"methodIdentifiers":{"erc4626BufferWrapOrUnwrap((uint8,uint8,address,uint256,uint256))":"43583be5","facetFuncs()":"574a4cff","facetInterfaces()":"2ea80826","facetMetadata()":"f10d7a75","facetName()":"5b6f4d01"},"id":990}