{"abi":[{"type":"function","name":"computeInGivenExactOut","inputs":[{"name":"balanceIn","type":"uint256","internalType":"uint256"},{"name":"weightIn","type":"uint256","internalType":"uint256"},{"name":"balanceOut","type":"uint256","internalType":"uint256"},{"name":"weightOut","type":"uint256","internalType":"uint256"},{"name":"amountOut","type":"uint256","internalType":"uint256"}],"outputs":[{"name":"","type":"uint256","internalType":"uint256"}],"stateMutability":"pure"},{"type":"function","name":"computeInvariant","inputs":[{"name":"normalizedWeights","type":"uint256[]","internalType":"uint256[]"},{"name":"balances","type":"uint256[]","internalType":"uint256[]"},{"name":"rounding","type":"uint8","internalType":"enum Rounding"}],"outputs":[{"name":"","type":"uint256","internalType":"uint256"}],"stateMutability":"pure"},{"type":"function","name":"computeOutGivenExactIn","inputs":[{"name":"balanceIn","type":"uint256","internalType":"uint256"},{"name":"weightIn","type":"uint256","internalType":"uint256"},{"name":"balanceOut","type":"uint256","internalType":"uint256"},{"name":"weightOut","type":"uint256","internalType":"uint256"},{"name":"amountIn","type":"uint256","internalType":"uint256"}],"outputs":[{"name":"","type":"uint256","internalType":"uint256"}],"stateMutability":"pure"},{"type":"error","name":"BaseOutOfBounds","inputs":[]},{"type":"error","name":"ExponentOutOfBounds","inputs":[]},{"type":"error","name":"InvalidExponent","inputs":[]},{"type":"error","name":"MaxInRatio","inputs":[]},{"type":"error","name":"MaxOutRatio","inputs":[]},{"type":"error","name":"ProductOutOfBounds","inputs":[]},{"type":"error","name":"ZeroDivision","inputs":[]},{"type":"error","name":"ZeroInvariant","inputs":[]}],"bytecode":{"object":"0x6080604052348015600e575f5ffd5b506111698061001c5f395ff3fe608060405234801561000f575f5ffd5b506004361061003f575f3560e01c8063388f6bd0146100435780633c42a2d614610068578063f33d14101461007b575b5f5ffd5b610056610051366004610f27565b61008e565b60405190815260200160405180910390f35b610056610076366004610f27565b6100a6565b61005661008936600461100e565b6100b4565b5f61009c86868686866100f0565b9695505050505050565b5f61009c8686868686610181565b5f60018260018111156100c9576100c9611087565b036100df576100d88484610202565b90506100e9565b6100d88484610296565b9392505050565b5f61010384670429d069189e0000610303565b821115610123576040516364590b9f60e01b815260040160405180910390fd5b5f61013861013184876110af565b869061032b565b90505f610145858861032b565b90505f610152838361033f565b90505f610167670de0b6b3a7640000836110af565b90506101738a826103f2565b9a9950505050505050505050565b5f61019486670429d069189e0000610303565b8211156101b45760405163340a453360e01b815260040160405180910390fd5b5f6101bf83886110c2565b90505f6101cc888361032b565b90505f6101d9888761041e565b90505f6101e6838361033f565b9050610173670de0b6b3a7640000828103908310028990610303565b670de0b6b3a76400005f5b835181101561026f5761026561025e85838151811061022e5761022e6110d5565b6020026020010151858481518110610248576102486110d5565b602002602001015161043e90919063ffffffff16565b8390610303565b915060010161020d565b50805f0361029057604051632654368960e01b815260040160405180910390fd5b92915050565b670de0b6b3a76400005f5b835181101561026f576102f96102f28583815181106102c2576102c26110d5565b60200260200101518584815181106102dc576102dc6110d5565b602002602001015161033f90919063ffffffff16565b83906103f2565b91506001016102a1565b5f8061030f83856110e9565b9050610323670de0b6b3a764000082611114565b949350505050565b5f6100e983670de0b6b3a7640000846104ea565b5f670de0b6b3a76400008203610356575081610290565b610369670de0b6b3a764000060026110e9565b82036103805761037983846103f2565b9050610290565b610393670de0b6b3a764000060046110e9565b82036103b8575f6103a484856103f2565b90506103b081826103f2565b915050610290565b5f6103c3848461052f565b90505f6103d2826127106103f2565b6103dd9060016110c2565b90506103e981836110c2565b92505050610290565b5f806103fe83856110e9565b90506001670de0b6b3a76400006001830304018115150291505092915050565b5f80610432670de0b6b3a7640000856110e9565b90506103238382611114565b5f670de0b6b3a76400008203610455575081610290565b610468670de0b6b3a764000060026110e9565b8203610478576103798384610303565b61048b670de0b6b3a764000060046110e9565b82036104a8575f61049c8485610303565b90506103b08182610303565b5f6104b3848461052f565b90505f6104c2826127106103f2565b6104cd9060016110c2565b9050808210156104e1575f92505050610290565b90039050610290565b5f815f0361050b57604051630a0c22c760e01b815260040160405180910390fd5b5f61051684866110e9565b9050600183600183030401811515029150509392505050565b5f815f036105465750670de0b6b3a7640000610290565b825f0361055457505f610290565b60ff83901c15610576576040516211380f60e51b815260040160405180910390fd5b8261058e68056bc75e2d63100000600160fe1b611114565b83106105ad5760405163d831731160e01b815260040160405180910390fd5b825f670c7d713b49da0000831380156105cd5750670f43fc2c04ee000083125b15610603575f6105dc84610665565b9050670de0b6b3a764000080820784020583670de0b6b3a764000083050201915050610611565b8161060d84610782565b0290505b670de0b6b3a76400009005680238fd42c5cf03ffff19811280159061063f575068070c1cc73b00c800008113155b61065c5760405163a2f9f7e360e01b815260040160405180910390fd5b61009c81610b2c565b670de0b6b3a7640000025f806a0c097ce7bc90715b34b9f160241b808401906ec097ce7bc90715b34b9f0fffffffff19850102816106a5576106a5611100565b0590505f6a0c097ce7bc90715b34b9f160241b82800205905081806a0c097ce7bc90715b34b9f160241b81840205915060038205016a0c097ce7bc90715b34b9f160241b82840205915060058205016a0c097ce7bc90715b34b9f160241b82840205915060078205016a0c097ce7bc90715b34b9f160241b82840205915060098205016a0c097ce7bc90715b34b9f160241b828402059150600b8205016a0c097ce7bc90715b34b9f160241b828402059150600d8205016a0c097ce7bc90715b34b9f160241b828402059150600f82050160020295945050505050565b5f80670de0b6b3a76400008312156107b957826a0c097ce7bc90715b34b9f160241b816107b1576107b1611100565b059250600190505b5f775803bcc5cb9634ba4cfb2213f784019318ed4dcb6017880f60361b84126108035772195e54c5dd42177f53a27172fa9ec63026282760241b840593506806f05b59d3b2000000015b6f8bcc0026baae9e45e470190267a230cf60191b841261083a576b1425982cf597cd205cef7380840593506803782dace9d9000000015b606493840293026e01855144814a7ff805980ff00840008412610882576e01855144814a7ff805980ff008400068056bc75e2d63100000850205935068ad78ebc5ac62000000015b6b02df0ab5a80a22c61ab5a70084126108bd576b02df0ab5a80a22c61ab5a70068056bc75e2d6310000085020593506856bc75e2d631000000015b693f1fce3da636ea5cf85084126108f457693f1fce3da636ea5cf85068056bc75e2d631000008502059350682b5e3af16b18800000015b690127fa27722cc06cc5e2841261092b57690127fa27722cc06cc5e268056bc75e2d6310000085020593506815af1d78b58c400000015b68280e60114edb805d0384126109605768280e60114edb805d0368056bc75e2d631000008502059350680ad78ebc5ac6200000015b680ebc5fb41746121110841261098b57680ebc5fb4174612111068056bc75e2d631000009485020593015b6808f00f760a4b2db55d84126109c0576808f00f760a4b2db55d68056bc75e2d6310000085020593506802b5e3af16b1880000015b6806f5f177578893793784126109f5576806f5f177578893793768056bc75e2d63100000850205935068015af1d78b58c40000015b6806248f33704b2866038412610a29576806248f33704b28660368056bc75e2d63100000850205935067ad78ebc5ac620000015b6805c548670b9510e7ac8412610a5d576805c548670b9510e7ac68056bc75e2d6310000085020593506756bc75e2d6310000015b5f68056bc75e2d63100000850168056bc75e2d631000008087030281610a8557610a85611100565b0590505f68056bc75e2d63100000828002059050818068056bc75e2d63100000818402059150600382050168056bc75e2d63100000828402059150600582050168056bc75e2d63100000828402059150600782050168056bc75e2d63100000828402059150600982050168056bc75e2d63100000828402059150600b8205016002025f606486830105905086610b1b5780610b1f565b805f035b9998505050505050505050565b5f680238fd42c5cf03ffff198212158015610b50575068070c1cc73b00c800008213155b610b6d5760405163d4794efd60e01b815260040160405180910390fd5b5f80831215610b8057825f039250600190505b5f6806f05b59d3b20000008412610bbd57506806f05b59d3b1ffffff199092019172195e54c5dd42177f53a27172fa9ec63026282760241b610bf3565b6803782dace9d90000008412610bef57506803782dace9d8ffffff19909201916b1425982cf597cd205cef7380610bf3565b5060015b6064939093029268056bc75e2d6310000068ad78ebc5ac620000008512610c435768ad78ebc5ac61ffffff199094019368056bc75e2d631000006e01855144814a7ff805980ff008400082020590505b6856bc75e2d6310000008512610c7f576856bc75e2d630ffffff199094019368056bc75e2d631000006b02df0ab5a80a22c61ab5a70082020590505b682b5e3af16b188000008512610cb957682b5e3af16b187fffff199094019368056bc75e2d63100000693f1fce3da636ea5cf85082020590505b6815af1d78b58c4000008512610cf3576815af1d78b58c3fffff199094019368056bc75e2d63100000690127fa27722cc06cc5e282020590505b680ad78ebc5ac62000008512610d2c57680ad78ebc5ac61fffff199094019368056bc75e2d6310000068280e60114edb805d0382020590505b68056bc75e2d631000008512610d655768056bc75e2d630fffff199094019368056bc75e2d63100000680ebc5fb4174612111082020590505b6802b5e3af16b18800008512610d9e576802b5e3af16b187ffff199094019368056bc75e2d631000006808f00f760a4b2db55d82020590505b68015af1d78b58c400008512610dd75768015af1d78b58c3ffff199094019368056bc75e2d631000006806f5f177578893793782020590505b68056bc75e2d631000008581019086906002908280020505918201919050600368056bc75e2d631000008883020505918201919050600468056bc75e2d631000008883020505918201919050600568056bc75e2d631000008883020505918201919050600668056bc75e2d631000008883020505918201919050600768056bc75e2d631000008883020505918201919050600868056bc75e2d631000008883020505918201919050600968056bc75e2d631000008883020505918201919050600a68056bc75e2d631000008883020505918201919050600b68056bc75e2d631000008883020505918201919050600c68056bc75e2d6310000088830205059182019190505f606468056bc75e2d6310000085850205860205905085610efc5780610f1b565b806a0c097ce7bc90715b34b9f160241b81610f1957610f19611100565b055b98975050505050505050565b5f5f5f5f5f60a08688031215610f3b575f5ffd5b505083359560208501359550604085013594606081013594506080013592509050565b634e487b7160e01b5f52604160045260245ffd5b5f82601f830112610f81575f5ffd5b81356001600160401b03811115610f9a57610f9a610f5e565b604051600582901b90603f8201601f191681016001600160401b0381118282101715610fc857610fc8610f5e565b604052918252602081850181019290810186841115610fe5575f5ffd5b6020860192505b83831015611004578235815260209283019201610fec565b5095945050505050565b5f5f5f60608486031215611020575f5ffd5b83356001600160401b03811115611035575f5ffd5b61104186828701610f72565b93505060208401356001600160401b0381111561105c575f5ffd5b61106886828701610f72565b92505060408401356002811061107c575f5ffd5b809150509250925092565b634e487b7160e01b5f52602160045260245ffd5b634e487b7160e01b5f52601160045260245ffd5b818103818111156102905761029061109b565b808201808211156102905761029061109b565b634e487b7160e01b5f52603260045260245ffd5b80820281158282048414176102905761029061109b565b634e487b7160e01b5f52601260045260245ffd5b5f8261112e57634e487b7160e01b5f52601260045260245ffd5b50049056fea26469706673582212200417fd7a9c6f08730920534896f8718259b245323db0803853f4ff764383846864736f6c634300081e0033","linkReferences":{}},"methodIdentifiers":{"computeInGivenExactOut(uint256,uint256,uint256,uint256,uint256)":"388f6bd0","computeInvariant(uint256[],uint256[],uint8)":"f33d1410","computeOutGivenExactIn(uint256,uint256,uint256,uint256,uint256)":"3c42a2d6"},"id":210}