{"abi":[{"type":"function","name":"computeBalance","inputs":[{"name":"balancesLiveScaled18","type":"uint256[]","internalType":"uint256[]"},{"name":"tokenInIndex","type":"uint256","internalType":"uint256"},{"name":"invariantRatio","type":"uint256","internalType":"uint256"}],"outputs":[{"name":"newBalance","type":"uint256","internalType":"uint256"}],"stateMutability":"view"},{"type":"function","name":"computeInvariant","inputs":[{"name":"balancesLiveScaled18","type":"uint256[]","internalType":"uint256[]"},{"name":"rounding","type":"uint8","internalType":"enum Rounding"}],"outputs":[{"name":"invariant","type":"uint256","internalType":"uint256"}],"stateMutability":"view"},{"type":"function","name":"facetFuncs","inputs":[],"outputs":[{"name":"funcs","type":"bytes4[]","internalType":"bytes4[]"}],"stateMutability":"pure"},{"type":"function","name":"facetInterfaces","inputs":[],"outputs":[{"name":"interfaces","type":"bytes4[]","internalType":"bytes4[]"}],"stateMutability":"pure"},{"type":"function","name":"facetMetadata","inputs":[],"outputs":[{"name":"name_","type":"string","internalType":"string"},{"name":"interfaces","type":"bytes4[]","internalType":"bytes4[]"},{"name":"functions","type":"bytes4[]","internalType":"bytes4[]"}],"stateMutability":"pure"},{"type":"function","name":"facetName","inputs":[],"outputs":[{"name":"name","type":"string","internalType":"string"}],"stateMutability":"pure"},{"type":"function","name":"getAmplificationParameter","inputs":[],"outputs":[{"name":"value","type":"uint256","internalType":"uint256"},{"name":"isUpdating","type":"bool","internalType":"bool"},{"name":"precision","type":"uint256","internalType":"uint256"}],"stateMutability":"view"},{"type":"function","name":"getAmplificationState","inputs":[],"outputs":[{"name":"startValue","type":"uint256","internalType":"uint256"},{"name":"endValue","type":"uint256","internalType":"uint256"},{"name":"startTime","type":"uint256","internalType":"uint256"},{"name":"endTime","type":"uint256","internalType":"uint256"},{"name":"precision","type":"uint256","internalType":"uint256"}],"stateMutability":"view"},{"type":"function","name":"onSwap","inputs":[{"name":"params","type":"tuple","internalType":"struct PoolSwapParams","components":[{"name":"kind","type":"uint8","internalType":"enum SwapKind"},{"name":"amountGivenScaled18","type":"uint256","internalType":"uint256"},{"name":"balancesScaled18","type":"uint256[]","internalType":"uint256[]"},{"name":"indexIn","type":"uint256","internalType":"uint256"},{"name":"indexOut","type":"uint256","internalType":"uint256"},{"name":"router","type":"address","internalType":"address"},{"name":"userData","type":"bytes","internalType":"bytes"}]}],"outputs":[{"name":"amountCalculatedScaled18","type":"uint256","internalType":"uint256"}],"stateMutability":"view"},{"type":"error","name":"StableComputeBalanceDidNotConverge","inputs":[]},{"type":"error","name":"StableInvariantDidNotConverge","inputs":[]},{"type":"error","name":"ZeroDivision","inputs":[]}],"bytecode":{"object":"0x6080604052348015600e575f5ffd5b50610fc98061001c5f395ff3fe608060405234801561000f575f5ffd5b5060043610610081575f3560e01c806316a0b3e01461008557806321da5e19146100ab5780632ea80826146100db578063574a4cff146100f05780635b6f4d01146100f85780636daccffa1461010d57806372c9818614610130578063984de9e814610143578063f10d7a7514610156575b5f5ffd5b610098610093366004610ccf565b61016d565b6040519081526020015b60405180910390f35b6100b36101ba565b604080519586526020860194909452928401919091526060830152608082015260a0016100a2565b6100e36101da565b6040516100a29190610d5c565b6100e361026d565b610100610385565b6040516100a29190610da3565b6101156103b8565b604080519384529115156020840152908201526060016100a2565b61009861013e366004610db5565b6103d1565b610098610151366004610dfa565b610509565b61015e61055b565b6040516100a293929190610e48565b5f5f610177610583565b5090505f610185828761059d565b9050801561019b57610198816001610e94565b90505b6101b082876101aa8488610747565b88610773565b9695505050505050565b5f5f5f5f5f6101c76109b4565b929891975095509093506103e892509050565b6040805160028082526060808301845292602083019080368337019050509050637e126dc760e11b815f8151811061021457610214610ea7565b60200260200101906001600160e01b03191690816001600160e01b03191681525050634c7691e360e01b8160018151811061025157610251610ea7565b6001600160e01b03199092166020928302919091019091015290565b60408051600580825260c082019092526060916020820160a08036833701905050905063984de9e860e01b815f815181106102aa576102aa610ea7565b6001600160e01b031990921660209283029190910190910152805162b5059f60e51b90829060019081106102e0576102e0610ea7565b6001600160e01b0319909216602092830291909101909101528051633964c0c360e11b908290600290811061031757610317610ea7565b6001600160e01b03199092166020928302919091019091015280516336d667fd60e11b908290600390811061034e5761034e610ea7565b6001600160e01b03199092166020928302919091019091015280516321da5e1960e01b908290600490811061025157610251610ea7565b60408051808201909152601981527810985b185b98d95c958cd4dd18589b19541bdbdb119858d95d603a1b602082015290565b5f5f5f6103c3610583565b90949093506103e892509050565b5f5f6103db610583565b5090505f610426826103f06040870187610ebb565b808060200260200160405190810160405280939291908181526020018383602002808284375f9201919091525061059d92505050565b90505f6104366020860186610f1b565b600181111561044757610447610f07565b036104a9576104a28261045d6040870187610ebb565b808060200260200160405190810160405280939291908181526020018383602002808284375f9201919091525050505060608701356080880135602089013586610a04565b9250610502565b6104ff826104ba6040870187610ebb565b808060200260200160405190810160405280939291908181526020018383602002808284375f9201919091525050505060608701356080880135602089013586610aa0565b92505b5050919050565b5f5f610513610583565b509050610520818561059d565b91505f8211801561054157505f83600181111561053f5761053f610f07565b145b1561055457610551826001610e94565b91505b5092915050565b6060806060610568610385565b92506105726101da565b915061057c61026d565b9050909192565b5f5f610595610590610b2f565b610b53565b915091509091565b80515f908190815b818110156105dc578481815181106105bf576105bf610ea7565b6020026020010151836105d29190610e94565b92506001016105a5565b50815f036105ee575f92505050610741565b5f82816105fb8489610f36565b90505f5b60ff81101561072857825f5b8681101561065657868a828151811061062657610626610ea7565b60200260200101516106389190610f36565b6106428684610f36565b61064c9190610f61565b915060010161060b565b50839450808660016106689190610e94565b6106729190610f36565b6103e8856106808287610f80565b61068a9190610f36565b6106949190610f61565b61069e9190610e94565b846106a98884610f36565b6103e86106b68b88610f36565b6106c09190610f61565b6106ca9190610e94565b6106d49190610f36565b6106de9190610f61565b935084841115610706576001858503116107015783975050505050505050610741565b61071f565b60018486031161071f5783975050505050505050610741565b506001016105ff565b506040516208651960e51b815260040160405180910390fd5b92915050565b5f806107538385610f36565b90506001670de0b6b3a76400006001830304018115150291505092915050565b82515f90816107828288610f36565b90505f865f8151811061079757610797610ea7565b602002602001015190505f83885f815181106107b5576107b5610ea7565b60200260200101516107c79190610f36565b905060015b848110156108405787858a83815181106107e8576107e8610ea7565b6020026020010151846107fb9190610f36565b6108059190610f36565b61080f9190610f61565b915088818151811061082357610823610ea7565b6020026020010151836108369190610e94565b92506001016107cc565b5087868151811061085357610853610ea7565b6020026020010151826108669190610f80565b91505f6108738880610f36565b90505f89888151811061088857610888610ea7565b60200260200101516108b1848761089f9190610f36565b6108ab6103e886610f36565b90610bed565b6108bb9190610f36565b90505f856108cb6103e88c610f36565b6108d59190610f61565b6108df9086610e94565b90505f806108fa6108f0848e610e94565b6108ab8688610e94565b90505f5b60ff811015610992578192506109458d8584600261091c9190610f36565b6109269190610e94565b6109309190610f80565b8661093b8580610f36565b6108ab9190610e94565b91508282111561096f5760018383031161096a575098506109ac975050505050505050565b61098a565b60018284031161098a575098506109ac975050505050505050565b6001016108fe565b5060405163372f681760e21b815260040160405180910390fd5b949350505050565b5f5f5f5f6109f66109c3610b2f565b546001600160401b0380821692600160401b83049091169163ffffffff600160801b8204811692600160a01b9092041690565b935093509350935090919293565b5f82868681518110610a1857610a18610ea7565b60200260200101818151610a2c9190610e94565b9052505f610a3c88888588610773565b905083878781518110610a5157610a51610ea7565b602002602001018181510391508181525050600181888781518110610a7857610a78610ea7565b6020026020010151610a8a9190610f80565b610a949190610f80565b98975050505050505050565b5f82868581518110610ab457610ab4610ea7565b60200260200101818151610ac89190610f80565b9052505f610ad888888589610773565b905083878681518110610aed57610aed610ea7565b602002602001018181510191508181525050868681518110610b1157610b11610ea7565b602002602001015181610b249190610f80565b610a94906001610e94565b7f4069f3526645903a5a030f5bf0c2cdf6b41ae31fd783d174908193a7b8ff234390565b80545f9081906001600160401b0380821691600160401b81049091169063ffffffff600160801b8204811691600160a01b90041642811115610bdd576001945083831115610bbc578181038242038585030281610bb257610bb2610f4d565b0484019550610be4565b8181038242038486030281610bd357610bd3610f4d565b0484039550610be4565b5f94508295505b50505050915091565b5f815f03610c0e57604051630a0c22c760e01b815260040160405180910390fd5b508115155f19909201046001010290565b634e487b7160e01b5f52604160045260245ffd5b5f82601f830112610c42575f5ffd5b81356001600160401b03811115610c5b57610c5b610c1f565b604051600582901b90603f8201601f191681016001600160401b0381118282101715610c8957610c89610c1f565b604052918252602081850181019290810186841115610ca6575f5ffd5b6020860192505b83831015610cc5578235815260209283019201610cad565b5095945050505050565b5f5f5f60608486031215610ce1575f5ffd5b83356001600160401b03811115610cf6575f5ffd5b610d0286828701610c33565b9660208601359650604090950135949350505050565b5f8151808452602084019350602083015f5b82811015610d525781516001600160e01b031916865260209586019590910190600101610d2a565b5093949350505050565b602081525f610d6e6020830184610d18565b9392505050565b5f81518084528060208401602086015e5f602082860101526020601f19601f83011685010191505092915050565b602081525f610d6e6020830184610d75565b5f60208284031215610dc5575f5ffd5b81356001600160401b03811115610dda575f5ffd5b820160e08185031215610d6e575f5ffd5b60028110610df7575f5ffd5b50565b5f5f60408385031215610e0b575f5ffd5b82356001600160401b03811115610e20575f5ffd5b610e2c85828601610c33565b9250506020830135610e3d81610deb565b809150509250929050565b606081525f610e5a6060830186610d75565b8281036020840152610e6c8186610d18565b905082810360408401526101b08185610d18565b634e487b7160e01b5f52601160045260245ffd5b8082018082111561074157610741610e80565b634e487b7160e01b5f52603260045260245ffd5b5f5f8335601e19843603018112610ed0575f5ffd5b8301803591506001600160401b03821115610ee9575f5ffd5b6020019150600581901b3603821315610f00575f5ffd5b9250929050565b634e487b7160e01b5f52602160045260245ffd5b5f60208284031215610f2b575f5ffd5b8135610d6e81610deb565b808202811582820484141761074157610741610e80565b634e487b7160e01b5f52601260045260245ffd5b5f82610f7b57634e487b7160e01b5f52601260045260245ffd5b500490565b8181038181111561074157610741610e8056fea2646970667358221220ae578dd99eb32182007a9379847becd0235ac1363b8b1de056066fe90b2e624364736f6c634300081e0033","linkReferences":{}},"methodIdentifiers":{"computeBalance(uint256[],uint256,uint256)":"16a0b3e0","computeInvariant(uint256[],uint8)":"984de9e8","facetFuncs()":"574a4cff","facetInterfaces()":"2ea80826","facetMetadata()":"f10d7a75","facetName()":"5b6f4d01","getAmplificationParameter()":"6daccffa","getAmplificationState()":"21da5e19","onSwap((uint8,uint256,uint256[],uint256,uint256,address,bytes))":"72c98186"},"id":874}