{"abi":[{"type":"function","name":"computeBalance","inputs":[{"name":"balancesLiveScaled18","type":"uint256[]","internalType":"uint256[]"},{"name":"tokenInIndex","type":"uint256","internalType":"uint256"},{"name":"invariantRatio","type":"uint256","internalType":"uint256"}],"outputs":[{"name":"newBalance","type":"uint256","internalType":"uint256"}],"stateMutability":"view"},{"type":"function","name":"computeInvariant","inputs":[{"name":"balancesLiveScaled18","type":"uint256[]","internalType":"uint256[]"},{"name":"rounding","type":"uint8","internalType":"enum Rounding"}],"outputs":[{"name":"invariant","type":"uint256","internalType":"uint256"}],"stateMutability":"view"},{"type":"function","name":"facetFuncs","inputs":[],"outputs":[{"name":"funcs","type":"bytes4[]","internalType":"bytes4[]"}],"stateMutability":"pure"},{"type":"function","name":"facetInterfaces","inputs":[],"outputs":[{"name":"interfaces","type":"bytes4[]","internalType":"bytes4[]"}],"stateMutability":"pure"},{"type":"function","name":"facetMetadata","inputs":[],"outputs":[{"name":"name_","type":"string","internalType":"string"},{"name":"interfaces","type":"bytes4[]","internalType":"bytes4[]"},{"name":"functions","type":"bytes4[]","internalType":"bytes4[]"}],"stateMutability":"pure"},{"type":"function","name":"facetName","inputs":[],"outputs":[{"name":"name","type":"string","internalType":"string"}],"stateMutability":"pure"},{"type":"function","name":"getCowPoolDynamicData","inputs":[],"outputs":[{"name":"data","type":"tuple","internalType":"struct ICowPool.CoWPoolDynamicData","components":[{"name":"balancesLiveScaled18","type":"uint256[]","internalType":"uint256[]"},{"name":"tokenRates","type":"uint256[]","internalType":"uint256[]"},{"name":"staticSwapFeePercentage","type":"uint256","internalType":"uint256"},{"name":"totalSupply","type":"uint256","internalType":"uint256"},{"name":"trustedCowRouter","type":"address","internalType":"address"},{"name":"isPoolInitialized","type":"bool","internalType":"bool"},{"name":"isPoolPaused","type":"bool","internalType":"bool"},{"name":"isPoolInRecoveryMode","type":"bool","internalType":"bool"}]}],"stateMutability":"view"},{"type":"function","name":"getCowPoolImmutableData","inputs":[],"outputs":[{"name":"data","type":"tuple","internalType":"struct ICowPool.CoWPoolImmutableData","components":[{"name":"tokens","type":"address[]","internalType":"contract IERC20[]"},{"name":"decimalScalingFactors","type":"uint256[]","internalType":"uint256[]"},{"name":"normalizedWeights","type":"uint256[]","internalType":"uint256[]"}]}],"stateMutability":"view"},{"type":"function","name":"getHookFlags","inputs":[],"outputs":[{"name":"hookFlags","type":"tuple","internalType":"struct HookFlags","components":[{"name":"enableHookAdjustedAmounts","type":"bool","internalType":"bool"},{"name":"shouldCallBeforeInitialize","type":"bool","internalType":"bool"},{"name":"shouldCallAfterInitialize","type":"bool","internalType":"bool"},{"name":"shouldCallComputeDynamicSwapFee","type":"bool","internalType":"bool"},{"name":"shouldCallBeforeSwap","type":"bool","internalType":"bool"},{"name":"shouldCallAfterSwap","type":"bool","internalType":"bool"},{"name":"shouldCallBeforeAddLiquidity","type":"bool","internalType":"bool"},{"name":"shouldCallAfterAddLiquidity","type":"bool","internalType":"bool"},{"name":"shouldCallBeforeRemoveLiquidity","type":"bool","internalType":"bool"},{"name":"shouldCallAfterRemoveLiquidity","type":"bool","internalType":"bool"}]}],"stateMutability":"pure"},{"type":"function","name":"getNormalizedWeights","inputs":[],"outputs":[{"name":"weights","type":"uint256[]","internalType":"uint256[]"}],"stateMutability":"view"},{"type":"function","name":"getTrustedCowRouter","inputs":[],"outputs":[{"name":"","type":"address","internalType":"address"}],"stateMutability":"view"},{"type":"function","name":"onAfterAddLiquidity","inputs":[{"name":"","type":"address","internalType":"address"},{"name":"","type":"address","internalType":"address"},{"name":"","type":"uint8","internalType":"enum AddLiquidityKind"},{"name":"","type":"uint256[]","internalType":"uint256[]"},{"name":"amountsInRaw","type":"uint256[]","internalType":"uint256[]"},{"name":"","type":"uint256","internalType":"uint256"},{"name":"","type":"uint256[]","internalType":"uint256[]"},{"name":"","type":"bytes","internalType":"bytes"}],"outputs":[{"name":"","type":"bool","internalType":"bool"},{"name":"","type":"uint256[]","internalType":"uint256[]"}],"stateMutability":"nonpayable"},{"type":"function","name":"onAfterInitialize","inputs":[{"name":"","type":"uint256[]","internalType":"uint256[]"},{"name":"","type":"uint256","internalType":"uint256"},{"name":"","type":"bytes","internalType":"bytes"}],"outputs":[{"name":"","type":"bool","internalType":"bool"}],"stateMutability":"nonpayable"},{"type":"function","name":"onAfterRemoveLiquidity","inputs":[{"name":"","type":"address","internalType":"address"},{"name":"","type":"address","internalType":"address"},{"name":"","type":"uint8","internalType":"enum RemoveLiquidityKind"},{"name":"","type":"uint256","internalType":"uint256"},{"name":"","type":"uint256[]","internalType":"uint256[]"},{"name":"amountsOutRaw","type":"uint256[]","internalType":"uint256[]"},{"name":"","type":"uint256[]","internalType":"uint256[]"},{"name":"","type":"bytes","internalType":"bytes"}],"outputs":[{"name":"","type":"bool","internalType":"bool"},{"name":"","type":"uint256[]","internalType":"uint256[]"}],"stateMutability":"nonpayable"},{"type":"function","name":"onAfterSwap","inputs":[{"name":"","type":"tuple","internalType":"struct AfterSwapParams","components":[{"name":"kind","type":"uint8","internalType":"enum SwapKind"},{"name":"tokenIn","type":"address","internalType":"contract IERC20"},{"name":"tokenOut","type":"address","internalType":"contract IERC20"},{"name":"amountInScaled18","type":"uint256","internalType":"uint256"},{"name":"amountOutScaled18","type":"uint256","internalType":"uint256"},{"name":"tokenInBalanceScaled18","type":"uint256","internalType":"uint256"},{"name":"tokenOutBalanceScaled18","type":"uint256","internalType":"uint256"},{"name":"amountCalculatedScaled18","type":"uint256","internalType":"uint256"},{"name":"amountCalculatedRaw","type":"uint256","internalType":"uint256"},{"name":"router","type":"address","internalType":"address"},{"name":"pool","type":"address","internalType":"address"},{"name":"userData","type":"bytes","internalType":"bytes"}]}],"outputs":[{"name":"","type":"bool","internalType":"bool"},{"name":"","type":"uint256","internalType":"uint256"}],"stateMutability":"nonpayable"},{"type":"function","name":"onBeforeAddLiquidity","inputs":[{"name":"router","type":"address","internalType":"address"},{"name":"","type":"address","internalType":"address"},{"name":"kind","type":"uint8","internalType":"enum AddLiquidityKind"},{"name":"","type":"uint256[]","internalType":"uint256[]"},{"name":"","type":"uint256","internalType":"uint256"},{"name":"","type":"uint256[]","internalType":"uint256[]"},{"name":"","type":"bytes","internalType":"bytes"}],"outputs":[{"name":"success","type":"bool","internalType":"bool"}],"stateMutability":"view"},{"type":"function","name":"onBeforeInitialize","inputs":[{"name":"","type":"uint256[]","internalType":"uint256[]"},{"name":"","type":"bytes","internalType":"bytes"}],"outputs":[{"name":"","type":"bool","internalType":"bool"}],"stateMutability":"nonpayable"},{"type":"function","name":"onBeforeRemoveLiquidity","inputs":[{"name":"","type":"address","internalType":"address"},{"name":"","type":"address","internalType":"address"},{"name":"","type":"uint8","internalType":"enum RemoveLiquidityKind"},{"name":"","type":"uint256","internalType":"uint256"},{"name":"","type":"uint256[]","internalType":"uint256[]"},{"name":"","type":"uint256[]","internalType":"uint256[]"},{"name":"","type":"bytes","internalType":"bytes"}],"outputs":[{"name":"","type":"bool","internalType":"bool"}],"stateMutability":"nonpayable"},{"type":"function","name":"onBeforeSwap","inputs":[{"name":"params","type":"tuple","internalType":"struct PoolSwapParams","components":[{"name":"kind","type":"uint8","internalType":"enum SwapKind"},{"name":"amountGivenScaled18","type":"uint256","internalType":"uint256"},{"name":"balancesScaled18","type":"uint256[]","internalType":"uint256[]"},{"name":"indexIn","type":"uint256","internalType":"uint256"},{"name":"indexOut","type":"uint256","internalType":"uint256"},{"name":"router","type":"address","internalType":"address"},{"name":"userData","type":"bytes","internalType":"bytes"}]},{"name":"","type":"address","internalType":"address"}],"outputs":[{"name":"","type":"bool","internalType":"bool"}],"stateMutability":"view"},{"type":"function","name":"onComputeDynamicSwapFeePercentage","inputs":[{"name":"","type":"tuple","internalType":"struct PoolSwapParams","components":[{"name":"kind","type":"uint8","internalType":"enum SwapKind"},{"name":"amountGivenScaled18","type":"uint256","internalType":"uint256"},{"name":"balancesScaled18","type":"uint256[]","internalType":"uint256[]"},{"name":"indexIn","type":"uint256","internalType":"uint256"},{"name":"indexOut","type":"uint256","internalType":"uint256"},{"name":"router","type":"address","internalType":"address"},{"name":"userData","type":"bytes","internalType":"bytes"}]},{"name":"","type":"address","internalType":"address"},{"name":"staticSwapFeePercentage","type":"uint256","internalType":"uint256"}],"outputs":[{"name":"","type":"bool","internalType":"bool"},{"name":"","type":"uint256","internalType":"uint256"}],"stateMutability":"view"},{"type":"function","name":"onRegister","inputs":[{"name":"factory","type":"address","internalType":"address"},{"name":"pool","type":"address","internalType":"address"},{"name":"","type":"tuple[]","internalType":"struct TokenConfig[]","components":[{"name":"token","type":"address","internalType":"contract IERC20"},{"name":"tokenType","type":"uint8","internalType":"enum TokenType"},{"name":"rateProvider","type":"address","internalType":"contract IRateProvider"},{"name":"paysYieldFees","type":"bool","internalType":"bool"}]},{"name":"liquidityManagement","type":"tuple","internalType":"struct LiquidityManagement","components":[{"name":"disableUnbalancedLiquidity","type":"bool","internalType":"bool"},{"name":"enableAddLiquidityCustom","type":"bool","internalType":"bool"},{"name":"enableRemoveLiquidityCustom","type":"bool","internalType":"bool"},{"name":"enableDonation","type":"bool","internalType":"bool"}]}],"outputs":[{"name":"","type":"bool","internalType":"bool"}],"stateMutability":"view"},{"type":"function","name":"onSwap","inputs":[{"name":"params","type":"tuple","internalType":"struct PoolSwapParams","components":[{"name":"kind","type":"uint8","internalType":"enum SwapKind"},{"name":"amountGivenScaled18","type":"uint256","internalType":"uint256"},{"name":"balancesScaled18","type":"uint256[]","internalType":"uint256[]"},{"name":"indexIn","type":"uint256","internalType":"uint256"},{"name":"indexOut","type":"uint256","internalType":"uint256"},{"name":"router","type":"address","internalType":"address"},{"name":"userData","type":"bytes","internalType":"bytes"}]}],"outputs":[{"name":"amountCalculatedScaled18","type":"uint256","internalType":"uint256"}],"stateMutability":"view"},{"type":"function","name":"refreshTrustedCowRouter","inputs":[],"outputs":[],"stateMutability":"nonpayable"},{"type":"event","name":"CowTrustedRouterChanged","inputs":[{"name":"newTrustedCowRouter","type":"address","indexed":false,"internalType":"address"}],"anonymous":false},{"type":"error","name":"BaseOutOfBounds","inputs":[]},{"type":"error","name":"ExponentOutOfBounds","inputs":[]},{"type":"error","name":"InvalidExponent","inputs":[]},{"type":"error","name":"InvalidTrustedCowRouter","inputs":[]},{"type":"error","name":"MaxInRatio","inputs":[]},{"type":"error","name":"MaxOutRatio","inputs":[]},{"type":"error","name":"ProductOutOfBounds","inputs":[]},{"type":"error","name":"ZeroDivision","inputs":[]},{"type":"error","name":"ZeroInvariant","inputs":[]}],"bytecode":{"object":"0x6080604052348015600e575f5ffd5b506130658061001c5f395ff3fe608060405234801561000f575f5ffd5b506004361061011b575f3560e01c80630b89f1821461011f57806316a0b3e01461014757806318b6eb55146101685780631c149e28146101955780632754888d146101a85780632ea80826146101d457806338be241d146101e957806345421ec7146102005780635211fa7714610213578063548e961514610226578063574a4cff1461023b5780635b6f4d01146102435780635fd482e21461025857806372c981861461026d578063976907cc14610280578063984de9e81461029e578063a0e8f5ac146102b1578063b0959b15146102c9578063ba5f9f40146102d3578063beb5c1e1146102ee578063d77153a714610303578063f10d7a751461035c578063f89f27ed14610373575b5f5ffd5b61013261012d366004612136565b610388565b60405190151581526020015b60405180910390f35b61015a6101553660046122c6565b6103f9565b60405190815260200161013e565b61017e61017636600461230f565b506001905f90565b60408051921515835260208301919091520161013e565b6101326101a33660046123b1565b610442565b6101c66101b6366004612422565b6001839850989650505050505050565b60405161013e92919061254b565b6101dc61044b565b60405161013e91906125a7565b6101326101f73660046125b9565b60019392505050565b61013261020e366004612632565b61055b565b610132610221366004612709565b6105a1565b61022e6105d4565b60405161013e9190612757565b6101dc6105e2565b61024b6109fe565b60405161013e9190612799565b610260610a24565b60405161013e91906127ab565b61015a61027b366004612838565b610b4c565b6101c661028e366004612869565b6001849850989650505050505050565b61015a6102ac366004612915565b610c5e565b61017e6102bf366004612958565b6001939092509050565b6102d1610ca8565b005b6101326102e13660046129ad565b6001979650505050505050565b6102f6610d23565b60405161013e9190612a32565b60408051610140810182525f808252602082018190528183018190526060820181905260a0820181905260e08201819052610100820181905261012082015260016080820181905260c0820152905161013e9190612acd565b610364610fd8565b60405161013e93929190612b8f565b61037b611000565b60405161013e9190612bc7565b5f6001600160a01b038416301480156103b957506103a461100a565b6001600160a01b0316856001600160a01b0316145b80156103d657506103d06080830160608401612bd9565b15156001145b80156103f057506103ea6020830183612bd9565b15156001145b95945050505050565b5f5f610403611026565b90506103f085858151811061041a5761041a612bf4565b602002602001015182868151811061043457610434612bf4565b602002602001015185611051565b60015b92915050565b60408051600480825260a082019092526060916020820160808036833701905050905063057a4e0360e01b815f8151811061048857610488612bf4565b60200260200101906001600160e01b03191690816001600160e01b03191681525050630ba7be4b60e31b816001815181106104c5576104c5612bf4565b60200260200101906001600160e01b03191690816001600160e01b03191681525050637e126dc760e11b8160028151811061050257610502612bf4565b60200260200101906001600160e01b03191690816001600160e01b0319168152505063f89f27ed60e01b8160038151811061053f5761053f612bf4565b6001600160e01b03199092166020928302919091019091015290565b5f600386600481111561057057610570612c08565b14158061059557506105806110a9565b6001600160a01b0316886001600160a01b0316145b98975050505050505050565b5f6105aa6110a9565b6001600160a01b03166105c360c0850160a08601612c1c565b6001600160a01b0316149392505050565b5f6105dd6110a9565b905090565b6040805160138082526102808201909252606091602082016102608036833701905050905063548e961560e01b815f8151811061062157610621612bf4565b6001600160e01b031990921660209283029190910190910152805163b0959b1560e01b908290600190811061065857610658612bf4565b6001600160e01b031990921660209283029190910190910152805163beb5c1e160e01b908290600290811061068f5761068f612bf4565b6001600160e01b0319909216602092830291909101909101528051632fea417160e11b90829060039081106106c6576106c6612bf4565b6001600160e01b03199092166020928302919091019091015280516305c4f8c160e11b90829060049081106106fd576106fd612bf4565b6001600160e01b031990921660209283029190910190910152805163d77153a760e01b908290600590811061073457610734612bf4565b6001600160e01b031990921660209283029190910190910152805163038293c560e31b908290600690811061076b5761076b612bf4565b6001600160e01b03199092166020928302919091019091015280516338be241d60e01b90829060079081106107a2576107a2612bf4565b6001600160e01b03199092166020928302919091019091015280516345421ec760e01b90829060089081106107d9576107d9612bf4565b6001600160e01b03199092166020928302919091019091015280516325da41f360e21b908290600990811061081057610810612bf4565b6001600160e01b03199092166020928302919091019091015280516302e97e7d60e61b908290600a90811061084757610847612bf4565b6001600160e01b0319909216602092830291909101909101528051632754888d60e01b908290600b90811061087e5761087e612bf4565b6001600160e01b0319909216602092830291909101909101528051635211fa7760e01b908290600c9081106108b5576108b5612bf4565b6001600160e01b03199092166020928302919091019091015280516318b6eb5560e01b908290600d9081106108ec576108ec612bf4565b6001600160e01b031990921660209283029190910190910152805163283a3d6b60e21b908290600e90811061092357610923612bf4565b6001600160e01b0319909216602092830291909101909101528051631309bd3d60e31b908290600f90811061095a5761095a612bf4565b6001600160e01b031990921660209283029190910190910152805162b5059f60e51b908290601090811061099057610990612bf4565b6001600160e01b0319909216602092830291909101909101528051633964c0c360e11b90829060119081106109c7576109c7612bf4565b6001600160e01b031990921660209283029190910190910152805163f89f27ed60e01b908290601290811061053f5761053f612bf4565b60408051808201909152600c81526b10dbddd41bdbdb119858d95d60a21b602082015290565b610a4860405180606001604052806060815260200160608152602001606081525090565b5f610a516110c2565b60405163ca4f280360e01b815290915030906001600160a01b0383169063ca4f280390610a82908490600401612757565b5f60405180830381865afa158015610a9c573d5f5f3e3d5ffd5b505050506040513d5f823e601f3d908101601f19168201604052610ac39190810190612c37565b8352604051633f1b0def60e11b81526001600160a01b03831690637e361bde90610af1908490600401612757565b5f60405180830381865afa158015610b0b573d5f5f3e3d5ffd5b505050506040513d5f823e601f3d908101601f19168201604052610b329190810190612d21565b506020840152610b40611000565b60408401525090919050565b5f5f610b56611026565b90505f610b666040850185612d7c565b8560600135818110610b7a57610b7a612bf4565b9050602002013590505f848060400190610b949190612d7c565b8660800135818110610ba857610ba8612bf4565b9050602002013590505f83866060013581518110610bc857610bc8612bf4565b602002602001015190505f84876080013581518110610be957610be9612bf4565b602002602001015190505f6001811115610c0557610c05612c08565b610c126020890189612dc8565b6001811115610c2357610c23612c08565b03610c4057610c39848385848b602001356110ec565b9550610c54565b610c51848385848b6020013561117b565b95505b5050505050919050565b5f5f610c68611026565b90506001836001811115610c7e57610c7e612c08565b03610c9457610c8d81856111fe565b9150610ca1565b610c9e818561128c565b91505b5092915050565b5f610cb161100a565b90505f816001600160a01b031663548e96156040518163ffffffff1660e01b8152600401602060405180830381865afa158015610cf0573d5f5f3e3d5ffd5b505050506040513d601f19601f82011682018060405250810190610d149190612de3565b9050610d1f816112f9565b5050565b60408051610100810182526060808252602082018190525f92820183905281018290526080810182905260a0810182905260c0810182905260e0810182905290610d6b6110c2565b6040516329ae7ec560e11b815290915030906001600160a01b0383169063535cfd8a90610d9c908490600401612757565b5f60405180830381865afa158015610db6573d5f5f3e3d5ffd5b505050506040513d5f823e601f3d908101601f19168201604052610ddd9190810190612dfe565b8352604051633f1b0def60e11b81526001600160a01b03831690637e361bde90610e0b908490600401612757565b5f60405180830381865afa158015610e25573d5f5f3e3d5ffd5b505050506040513d5f823e601f3d908101601f19168201604052610e4c9190810190612d21565b60208501525060405163b45090f960e01b81526001600160a01b0383169063b45090f990610e7e908490600401612757565b602060405180830381865afa158015610e99573d5f5f3e3d5ffd5b505050506040513d601f19601f82011682018060405250810190610ebd9190612e2f565b836040018181525050806001600160a01b03166318160ddd6040518163ffffffff1660e01b8152600401602060405180830381865afa158015610f02573d5f5f3e3d5ffd5b505050506040513d601f19601f82011682018060405250810190610f269190612e2f565b6060840152610f336110a9565b6001600160a01b03908116608085015260405163f29486a160e01b81525f9184169063f29486a190610f69908590600401612757565b6101a060405180830381865afa158015610f85573d5f5f3e3d5ffd5b505050506040513d601f19601f82011682018060405250810190610fa99190612ede565b60e080820151151560a0870152610100820151151560c087015261012090910151151590850152509192915050565b6060806060610fe56109fe565b9250610fef61044b565b9150610ff96105e2565b9050909192565b60606105dd611026565b5f6105dd61101661130d565b600101546001600160a01b031690565b60606105dd7f0b1f699f9a8cb016dcd6d3f4119ffc688f82df3a97972f71dfa812f53cb486a3611331565b5f612028670de0b6b3a7640000831161106c5761138a611070565b6113aa5b90505f61109361108c670de0b6b3a7640000878563ffffffff16565b85906113c5565b905061109f8682611478565b9695505050505050565b5f6105dd6110b561130d565b546001600160a01b031690565b5f6105dd7f392e49ca1983749c4549242b814e6592e6c2354a2bb55242596ce0ad2e7b10016110b5565b5f6110ff86670429d069189e00006114a4565b82111561111f5760405163340a453360e01b815260040160405180910390fd5b5f61112a8388612fab565b90505f61113788836113aa565b90505f611144888761138a565b90505f61115183836113c5565b905061116d670de0b6b3a76400008281039083100289906114a4565b9a9950505050505050505050565b5f61118e84670429d069189e00006114a4565b8211156111ae576040516364590b9f60e01b815260040160405180910390fd5b5f6111c36111bc8487612fbe565b86906113aa565b90505f6111d085886113aa565b90505f6111dd83836113c5565b90505f6111f2670de0b6b3a764000083612fbe565b905061116d8a82611478565b670de0b6b3a76400005f5b835181101561126b5761126161125a85838151811061122a5761122a612bf4565b602002602001015185848151811061124457611244612bf4565b60200260200101516114c490919063ffffffff16565b83906114a4565b9150600101611209565b50805f0361044557604051632654368960e01b815260040160405180910390fd5b670de0b6b3a76400005f5b835181101561126b576112ef6112e88583815181106112b8576112b8612bf4565b60200260200101518584815181106112d2576112d2612bf4565b60200260200101516113c590919063ffffffff16565b8390611478565b9150600101611297565b61130a61130461130d565b82611570565b50565b7ff64e9102482a84c90cc33e99848a0b00fb3fb77d441d4c9b064f0da17ed6c04290565b6060815f0180548060200260200160405190810160405280929190818152602001828054801561137e57602002820191905f5260205f20905b81548152602001906001019080831161136a575b50505050509050919050565b5f8061139e670de0b6b3a764000085612fd1565b9050610c9e8382612ffc565b5f6113be83670de0b6b3a7640000846115ec565b9392505050565b5f670de0b6b3a764000082036113dc575081610445565b6113ef670de0b6b3a76400006002612fd1565b8203611406576113ff8384611478565b9050610445565b611419670de0b6b3a76400006004612fd1565b820361143e575f61142a8485611478565b90506114368182611478565b915050610445565b5f6114498484611631565b90505f61145882612710611478565b611463906001612fab565b905061146f8183612fab565b92505050610445565b5f806114848385612fd1565b90506001670de0b6b3a76400006001830304018115150291505092915050565b5f806114b08385612fd1565b9050610c9e670de0b6b3a764000082612ffc565b5f670de0b6b3a764000082036114db575081610445565b6114ee670de0b6b3a76400006002612fd1565b82036114fe576113ff83846114a4565b611511670de0b6b3a76400006004612fd1565b820361152e575f61152284856114a4565b905061143681826114a4565b5f6115398484611631565b90505f61154882612710611478565b611553906001612fab565b905080821015611567575f92505050610445565b90039050610445565b6001600160a01b0381166115975760405163b4d8fbf360e01b815260040160405180910390fd5b81546001600160a01b0319166001600160a01b0382161782556040517fa2bffbf2e11d4267aadd6e35608a40b95ee2f64f9470dfad8bce6e8c79df24a2906115e0908390612757565b60405180910390a15050565b5f815f0361160d57604051630a0c22c760e01b815260040160405180910390fd5b5f6116188486612fd1565b9050600183600183030401811515029150509392505050565b5f815f036116485750670de0b6b3a7640000610445565b825f0361165657505f610445565b60ff83901c15611678576040516211380f60e51b815260040160405180910390fd5b8261169068056bc75e2d63100000600160fe1b612ffc565b83106116af5760405163d831731160e01b815260040160405180910390fd5b825f670c7d713b49da0000831380156116cf5750670f43fc2c04ee000083125b15611705575f6116de84611767565b9050670de0b6b3a764000080820784020583670de0b6b3a764000083050201915050611713565b8161170f84611884565b0290505b670de0b6b3a76400009005680238fd42c5cf03ffff198112801590611741575068070c1cc73b00c800008113155b61175e5760405163a2f9f7e360e01b815260040160405180910390fd5b61109f81611c2e565b670de0b6b3a7640000025f806a0c097ce7bc90715b34b9f160241b808401906ec097ce7bc90715b34b9f0fffffffff19850102816117a7576117a7612fe8565b0590505f6a0c097ce7bc90715b34b9f160241b82800205905081806a0c097ce7bc90715b34b9f160241b81840205915060038205016a0c097ce7bc90715b34b9f160241b82840205915060058205016a0c097ce7bc90715b34b9f160241b82840205915060078205016a0c097ce7bc90715b34b9f160241b82840205915060098205016a0c097ce7bc90715b34b9f160241b828402059150600b8205016a0c097ce7bc90715b34b9f160241b828402059150600d8205016a0c097ce7bc90715b34b9f160241b828402059150600f82050160020295945050505050565b5f80670de0b6b3a76400008312156118bb57826a0c097ce7bc90715b34b9f160241b816118b3576118b3612fe8565b059250600190505b5f775803bcc5cb9634ba4cfb2213f784019318ed4dcb6017880f60361b84126119055772195e54c5dd42177f53a27172fa9ec63026282760241b840593506806f05b59d3b2000000015b6f8bcc0026baae9e45e470190267a230cf60191b841261193c576b1425982cf597cd205cef7380840593506803782dace9d9000000015b606493840293026e01855144814a7ff805980ff00840008412611984576e01855144814a7ff805980ff008400068056bc75e2d63100000850205935068ad78ebc5ac62000000015b6b02df0ab5a80a22c61ab5a70084126119bf576b02df0ab5a80a22c61ab5a70068056bc75e2d6310000085020593506856bc75e2d631000000015b693f1fce3da636ea5cf85084126119f657693f1fce3da636ea5cf85068056bc75e2d631000008502059350682b5e3af16b18800000015b690127fa27722cc06cc5e28412611a2d57690127fa27722cc06cc5e268056bc75e2d6310000085020593506815af1d78b58c400000015b68280e60114edb805d038412611a625768280e60114edb805d0368056bc75e2d631000008502059350680ad78ebc5ac6200000015b680ebc5fb417461211108412611a8d57680ebc5fb4174612111068056bc75e2d631000009485020593015b6808f00f760a4b2db55d8412611ac2576808f00f760a4b2db55d68056bc75e2d6310000085020593506802b5e3af16b1880000015b6806f5f17757889379378412611af7576806f5f177578893793768056bc75e2d63100000850205935068015af1d78b58c40000015b6806248f33704b2866038412611b2b576806248f33704b28660368056bc75e2d63100000850205935067ad78ebc5ac620000015b6805c548670b9510e7ac8412611b5f576805c548670b9510e7ac68056bc75e2d6310000085020593506756bc75e2d6310000015b5f68056bc75e2d63100000850168056bc75e2d631000008087030281611b8757611b87612fe8565b0590505f68056bc75e2d63100000828002059050818068056bc75e2d63100000818402059150600382050168056bc75e2d63100000828402059150600582050168056bc75e2d63100000828402059150600782050168056bc75e2d63100000828402059150600982050168056bc75e2d63100000828402059150600b8205016002025f606486830105905086611c1d5780611c21565b805f035b9998505050505050505050565b5f680238fd42c5cf03ffff198212158015611c52575068070c1cc73b00c800008213155b611c6f5760405163d4794efd60e01b815260040160405180910390fd5b5f80831215611c8257825f039250600190505b5f6806f05b59d3b20000008412611cbf57506806f05b59d3b1ffffff199092019172195e54c5dd42177f53a27172fa9ec63026282760241b611cf5565b6803782dace9d90000008412611cf157506803782dace9d8ffffff19909201916b1425982cf597cd205cef7380611cf5565b5060015b6064939093029268056bc75e2d6310000068ad78ebc5ac620000008512611d455768ad78ebc5ac61ffffff199094019368056bc75e2d631000006e01855144814a7ff805980ff008400082020590505b6856bc75e2d6310000008512611d81576856bc75e2d630ffffff199094019368056bc75e2d631000006b02df0ab5a80a22c61ab5a70082020590505b682b5e3af16b188000008512611dbb57682b5e3af16b187fffff199094019368056bc75e2d63100000693f1fce3da636ea5cf85082020590505b6815af1d78b58c4000008512611df5576815af1d78b58c3fffff199094019368056bc75e2d63100000690127fa27722cc06cc5e282020590505b680ad78ebc5ac62000008512611e2e57680ad78ebc5ac61fffff199094019368056bc75e2d6310000068280e60114edb805d0382020590505b68056bc75e2d631000008512611e675768056bc75e2d630fffff199094019368056bc75e2d63100000680ebc5fb4174612111082020590505b6802b5e3af16b18800008512611ea0576802b5e3af16b187ffff199094019368056bc75e2d631000006808f00f760a4b2db55d82020590505b68015af1d78b58c400008512611ed95768015af1d78b58c3ffff199094019368056bc75e2d631000006806f5f177578893793782020590505b68056bc75e2d631000008581019086906002908280020505918201919050600368056bc75e2d631000008883020505918201919050600468056bc75e2d631000008883020505918201919050600568056bc75e2d631000008883020505918201919050600668056bc75e2d631000008883020505918201919050600768056bc75e2d631000008883020505918201919050600868056bc75e2d631000008883020505918201919050600968056bc75e2d631000008883020505918201919050600a68056bc75e2d631000008883020505918201919050600b68056bc75e2d631000008883020505918201919050600c68056bc75e2d6310000088830205059182019190505f606468056bc75e2d6310000085850205860205905085611ffe5780610595565b806a0c097ce7bc90715b34b9f160241b8161201b5761201b612fe8565b0598975050505050505050565b61203061301b565b565b6001600160a01b038116811461130a575f5ffd5b803561205181612032565b919050565b634e487b7160e01b5f52604160045260245ffd5b604051608081016001600160401b038111828210171561208c5761208c612056565b60405290565b60405161014081016001600160401b038111828210171561208c5761208c612056565b604051601f8201601f191681016001600160401b03811182821017156120dd576120dd612056565b604052919050565b5f6001600160401b038211156120fd576120fd612056565b5060051b60200190565b6002811061130a575f5ffd5b801515811461130a575f5ffd5b5f60808284031215612130575f5ffd5b50919050565b5f5f5f5f60e08587031215612149575f5ffd5b843561215481612032565b9350602085013561216481612032565b925060408501356001600160401b0381111561217e575f5ffd5b8501601f8101871361218e575f5ffd5b80356121a161219c826120e5565b6120b5565b8082825260208201915060208360071b8501019250898311156121c2575f5ffd5b6020840193505b82841015612242576080848b0312156121e0575f5ffd5b6121e861206a565b84356121f381612032565b8152602085013561220381612107565b6020820152604085013561221681612032565b6040820152606085013561222981612113565b60608201528252608093909301926020909101906121c9565b809550505050506122568660608701612120565b905092959194509250565b5f82601f830112612270575f5ffd5b813561227e61219c826120e5565b8082825260208201915060208360051b86010192508583111561229f575f5ffd5b602085015b838110156122bc5780358352602092830192016122a4565b5095945050505050565b5f5f5f606084860312156122d8575f5ffd5b83356001600160401b038111156122ed575f5ffd5b6122f986828701612261565b9660208601359650604090950135949350505050565b5f6020828403121561231f575f5ffd5b81356001600160401b03811115612334575f5ffd5b820161018081850312156113be575f5ffd5b5f82601f830112612355575f5ffd5b81356001600160401b0381111561236e5761236e612056565b612381601f8201601f19166020016120b5565b818152846020838601011115612395575f5ffd5b816020850160208301375f918101602001919091529392505050565b5f5f604083850312156123c2575f5ffd5b82356001600160401b038111156123d7575f5ffd5b6123e385828601612261565b92505060208301356001600160401b038111156123fe575f5ffd5b61240a85828601612346565b9150509250929050565b803560048110612051575f5ffd5b5f5f5f5f5f5f5f5f610100898b03121561243a575f5ffd5b61244389612046565b975061245160208a01612046565b965061245f60408a01612414565b95506060890135945060808901356001600160401b03811115612480575f5ffd5b61248c8b828c01612261565b94505060a08901356001600160401b038111156124a7575f5ffd5b6124b38b828c01612261565b93505060c08901356001600160401b038111156124ce575f5ffd5b6124da8b828c01612261565b92505060e08901356001600160401b038111156124f5575f5ffd5b6125018b828c01612346565b9150509295985092959890939650565b5f8151808452602084019350602083015f5b82811015612541578151865260209586019590910190600101612523565b5093949350505050565b8215158152604060208201525f6125656040830184612511565b949350505050565b5f8151808452602084019350602083015f5b828110156125415781516001600160e01b03191686526020958601959091019060010161257f565b602081525f6113be602083018461256d565b5f5f5f606084860312156125cb575f5ffd5b83356001600160401b038111156125e0575f5ffd5b6125ec86828701612261565b9350506020840135915060408401356001600160401b0381111561260e575f5ffd5b61261a86828701612346565b9150509250925092565b803560058110612051575f5ffd5b5f5f5f5f5f5f5f60e0888a031215612648575f5ffd5b873561265381612032565b965061266160208901612046565b955061266f60408901612624565b945060608801356001600160401b03811115612689575f5ffd5b6126958a828b01612261565b9450506080880135925060a08801356001600160401b038111156126b7575f5ffd5b6126c38a828b01612261565b92505060c08801356001600160401b038111156126de575f5ffd5b6126ea8a828b01612346565b91505092959891949750929550565b5f60e08284031215612130575f5ffd5b5f5f6040838503121561271a575f5ffd5b82356001600160401b0381111561272f575f5ffd5b61273b858286016126f9565b925050602083013561274c81612032565b809150509250929050565b6001600160a01b0391909116815260200190565b5f81518084528060208401602086015e5f602082860101526020601f19601f83011685010191505092915050565b602081525f6113be602083018461276b565b602080825282516060838301528051608084018190525f929190910190829060a08501905b808310156127fb5783516001600160a01b0316825260209384019360019390930192909101906127d0565b506020860151858203601f1901604087015292506128198184612511565b925050506040840151601f198483030160608501526103f08282612511565b5f60208284031215612848575f5ffd5b81356001600160401b0381111561285d575f5ffd5b610c9e848285016126f9565b5f5f5f5f5f5f5f5f610100898b031215612881575f5ffd5b61288a89612046565b975061289860208a01612046565b96506128a660408a01612624565b955060608901356001600160401b038111156128c0575f5ffd5b6128cc8b828c01612261565b95505060808901356001600160401b038111156128e7575f5ffd5b6128f38b828c01612261565b94505060a0890135925060c08901356001600160401b038111156124ce575f5ffd5b5f5f60408385031215612926575f5ffd5b82356001600160401b0381111561293b575f5ffd5b61294785828601612261565b925050602083013561274c81612107565b5f5f5f6060848603121561296a575f5ffd5b83356001600160401b0381111561297f575f5ffd5b61298b868287016126f9565b935050602084013561299c81612032565b929592945050506040919091013590565b5f5f5f5f5f5f5f60e0888a0312156129c3575f5ffd5b87356129ce81612032565b96506129dc60208901612046565b95506129ea60408901612414565b94506060880135935060808801356001600160401b03811115612a0b575f5ffd5b612a178a828b01612261565b93505060a08801356001600160401b038111156126b7575f5ffd5b602081525f82516101006020840152612a4f610120840182612511565b90506020840151601f19848303016040850152612a6c8282612511565b915050604084015160608401526060840151608084015260018060a01b0360808501511660a084015260a0840151612aa860c085018215159052565b5060c084015180151560e08501525060e0840151801515610100850152509392505050565b81511515815261014081016020830151612aeb602084018215159052565b506040830151612aff604084018215159052565b506060830151612b13606084018215159052565b506080830151612b27608084018215159052565b5060a0830151612b3b60a084018215159052565b5060c0830151612b4f60c084018215159052565b5060e0830151612b6360e084018215159052565b50610100830151612b7961010084018215159052565b50610120830151610ca161012084018215159052565b606081525f612ba1606083018661276b565b8281036020840152612bb3818661256d565b9050828103604084015261109f818561256d565b602081525f6113be6020830184612511565b5f60208284031215612be9575f5ffd5b81356113be81612113565b634e487b7160e01b5f52603260045260245ffd5b634e487b7160e01b5f52602160045260245ffd5b5f60208284031215612c2c575f5ffd5b81356113be81612032565b5f60208284031215612c47575f5ffd5b81516001600160401b03811115612c5c575f5ffd5b8201601f81018413612c6c575f5ffd5b8051612c7a61219c826120e5565b8082825260208201915060208360051b850101925086831115612c9b575f5ffd5b6020840193505b8284101561109f578351612cb581612032565b825260209384019390910190612ca2565b5f82601f830112612cd5575f5ffd5b8151612ce361219c826120e5565b8082825260208201915060208360051b860101925085831115612d04575f5ffd5b602085015b838110156122bc578051835260209283019201612d09565b5f5f60408385031215612d32575f5ffd5b82516001600160401b03811115612d47575f5ffd5b612d5385828601612cc6565b602085015190935090506001600160401b03811115612d70575f5ffd5b61240a85828601612cc6565b5f5f8335601e19843603018112612d91575f5ffd5b8301803591506001600160401b03821115612daa575f5ffd5b6020019150600581901b3603821315612dc1575f5ffd5b9250929050565b5f60208284031215612dd8575f5ffd5b81356113be81612107565b5f60208284031215612df3575f5ffd5b81516113be81612032565b5f60208284031215612e0e575f5ffd5b81516001600160401b03811115612e23575f5ffd5b610c9e84828501612cc6565b5f60208284031215612e3f575f5ffd5b5051919050565b805161205181612113565b5f60808284031215612e61575f5ffd5b612e6961206a565b90508151612e7681612113565b81526020820151612e8681612113565b60208201526040820151612e9981612113565b60408201526060820151612eac81612113565b606082015292915050565b805164ffffffffff81168114612051575f5ffd5b805163ffffffff81168114612051575f5ffd5b5f6101a0828403128015612ef0575f5ffd5b50612ef9612092565b612f038484612e51565b81526080830151602082015260a0830151604082015260c08301516060820152612f2f60e08401612eb7565b6080820152612f416101008401612ecb565b60a0820152612f536101208401612e46565b60c0820152612f656101408401612e46565b60e0820152612f776101608401612e46565b610100820152612f8a6101808401612e46565b6101208201529392505050565b634e487b7160e01b5f52601160045260245ffd5b8082018082111561044557610445612f97565b8181038181111561044557610445612f97565b808202811582820484141761044557610445612f97565b634e487b7160e01b5f52601260045260245ffd5b5f8261301657634e487b7160e01b5f52601260045260245ffd5b500490565b634e487b7160e01b5f52605160045260245ffdfea264697066735822122071fbe8a847085feba444ecbe0ea09c6d441849187a79d2e4005ecf99bc05b9af64736f6c634300081e0033","linkReferences":{}},"methodIdentifiers":{"computeBalance(uint256[],uint256,uint256)":"16a0b3e0","computeInvariant(uint256[],uint8)":"984de9e8","facetFuncs()":"574a4cff","facetInterfaces()":"2ea80826","facetMetadata()":"f10d7a75","facetName()":"5b6f4d01","getCowPoolDynamicData()":"beb5c1e1","getCowPoolImmutableData()":"5fd482e2","getHookFlags()":"d77153a7","getNormalizedWeights()":"f89f27ed","getTrustedCowRouter()":"548e9615","onAfterAddLiquidity(address,address,uint8,uint256[],uint256[],uint256,uint256[],bytes)":"976907cc","onAfterInitialize(uint256[],uint256,bytes)":"38be241d","onAfterRemoveLiquidity(address,address,uint8,uint256,uint256[],uint256[],uint256[],bytes)":"2754888d","onAfterSwap((uint8,address,address,uint256,uint256,uint256,uint256,uint256,uint256,address,address,bytes))":"18b6eb55","onBeforeAddLiquidity(address,address,uint8,uint256[],uint256,uint256[],bytes)":"45421ec7","onBeforeInitialize(uint256[],bytes)":"1c149e28","onBeforeRemoveLiquidity(address,address,uint8,uint256,uint256[],uint256[],bytes)":"ba5f9f40","onBeforeSwap((uint8,uint256,uint256[],uint256,uint256,address,bytes),address)":"5211fa77","onComputeDynamicSwapFeePercentage((uint8,uint256,uint256[],uint256,uint256,address,bytes),address,uint256)":"a0e8f5ac","onRegister(address,address,(address,uint8,address,bool)[],(bool,bool,bool,bool))":"0b89f182","onSwap((uint8,uint256,uint256[],uint256,uint256,address,bytes))":"72c98186","refreshTrustedCowRouter()":"b0959b15"},"id":894}