{"abi":[{"type":"constructor","inputs":[{"name":"vault_","type":"address","internalType":"contract IVault"},{"name":"allowedFactory_","type":"address","internalType":"address"},{"name":"veBAL_","type":"address","internalType":"address"},{"name":"trustedRouter_","type":"address","internalType":"address"}],"stateMutability":"nonpayable"},{"type":"function","name":"getHookFlags","inputs":[],"outputs":[{"name":"hookFlags","type":"tuple","internalType":"struct HookFlags","components":[{"name":"enableHookAdjustedAmounts","type":"bool","internalType":"bool"},{"name":"shouldCallBeforeInitialize","type":"bool","internalType":"bool"},{"name":"shouldCallAfterInitialize","type":"bool","internalType":"bool"},{"name":"shouldCallComputeDynamicSwapFee","type":"bool","internalType":"bool"},{"name":"shouldCallBeforeSwap","type":"bool","internalType":"bool"},{"name":"shouldCallAfterSwap","type":"bool","internalType":"bool"},{"name":"shouldCallBeforeAddLiquidity","type":"bool","internalType":"bool"},{"name":"shouldCallAfterAddLiquidity","type":"bool","internalType":"bool"},{"name":"shouldCallBeforeRemoveLiquidity","type":"bool","internalType":"bool"},{"name":"shouldCallAfterRemoveLiquidity","type":"bool","internalType":"bool"}]}],"stateMutability":"pure"},{"type":"function","name":"onAfterAddLiquidity","inputs":[{"name":"","type":"address","internalType":"address"},{"name":"","type":"address","internalType":"address"},{"name":"","type":"uint8","internalType":"enum AddLiquidityKind"},{"name":"","type":"uint256[]","internalType":"uint256[]"},{"name":"amountsInRaw","type":"uint256[]","internalType":"uint256[]"},{"name":"","type":"uint256","internalType":"uint256"},{"name":"","type":"uint256[]","internalType":"uint256[]"},{"name":"","type":"bytes","internalType":"bytes"}],"outputs":[{"name":"","type":"bool","internalType":"bool"},{"name":"","type":"uint256[]","internalType":"uint256[]"}],"stateMutability":"nonpayable"},{"type":"function","name":"onAfterInitialize","inputs":[{"name":"","type":"uint256[]","internalType":"uint256[]"},{"name":"","type":"uint256","internalType":"uint256"},{"name":"","type":"bytes","internalType":"bytes"}],"outputs":[{"name":"","type":"bool","internalType":"bool"}],"stateMutability":"nonpayable"},{"type":"function","name":"onAfterRemoveLiquidity","inputs":[{"name":"","type":"address","internalType":"address"},{"name":"","type":"address","internalType":"address"},{"name":"","type":"uint8","internalType":"enum RemoveLiquidityKind"},{"name":"","type":"uint256","internalType":"uint256"},{"name":"","type":"uint256[]","internalType":"uint256[]"},{"name":"amountsOutRaw","type":"uint256[]","internalType":"uint256[]"},{"name":"","type":"uint256[]","internalType":"uint256[]"},{"name":"","type":"bytes","internalType":"bytes"}],"outputs":[{"name":"","type":"bool","internalType":"bool"},{"name":"","type":"uint256[]","internalType":"uint256[]"}],"stateMutability":"nonpayable"},{"type":"function","name":"onAfterSwap","inputs":[{"name":"","type":"tuple","internalType":"struct AfterSwapParams","components":[{"name":"kind","type":"uint8","internalType":"enum SwapKind"},{"name":"tokenIn","type":"address","internalType":"contract IERC20"},{"name":"tokenOut","type":"address","internalType":"contract IERC20"},{"name":"amountInScaled18","type":"uint256","internalType":"uint256"},{"name":"amountOutScaled18","type":"uint256","internalType":"uint256"},{"name":"tokenInBalanceScaled18","type":"uint256","internalType":"uint256"},{"name":"tokenOutBalanceScaled18","type":"uint256","internalType":"uint256"},{"name":"amountCalculatedScaled18","type":"uint256","internalType":"uint256"},{"name":"amountCalculatedRaw","type":"uint256","internalType":"uint256"},{"name":"router","type":"address","internalType":"address"},{"name":"pool","type":"address","internalType":"address"},{"name":"userData","type":"bytes","internalType":"bytes"}]}],"outputs":[{"name":"","type":"bool","internalType":"bool"},{"name":"","type":"uint256","internalType":"uint256"}],"stateMutability":"nonpayable"},{"type":"function","name":"onBeforeAddLiquidity","inputs":[{"name":"","type":"address","internalType":"address"},{"name":"","type":"address","internalType":"address"},{"name":"","type":"uint8","internalType":"enum AddLiquidityKind"},{"name":"","type":"uint256[]","internalType":"uint256[]"},{"name":"","type":"uint256","internalType":"uint256"},{"name":"","type":"uint256[]","internalType":"uint256[]"},{"name":"","type":"bytes","internalType":"bytes"}],"outputs":[{"name":"","type":"bool","internalType":"bool"}],"stateMutability":"nonpayable"},{"type":"function","name":"onBeforeInitialize","inputs":[{"name":"","type":"uint256[]","internalType":"uint256[]"},{"name":"","type":"bytes","internalType":"bytes"}],"outputs":[{"name":"","type":"bool","internalType":"bool"}],"stateMutability":"nonpayable"},{"type":"function","name":"onBeforeRemoveLiquidity","inputs":[{"name":"","type":"address","internalType":"address"},{"name":"","type":"address","internalType":"address"},{"name":"","type":"uint8","internalType":"enum RemoveLiquidityKind"},{"name":"","type":"uint256","internalType":"uint256"},{"name":"","type":"uint256[]","internalType":"uint256[]"},{"name":"","type":"uint256[]","internalType":"uint256[]"},{"name":"","type":"bytes","internalType":"bytes"}],"outputs":[{"name":"","type":"bool","internalType":"bool"}],"stateMutability":"nonpayable"},{"type":"function","name":"onBeforeSwap","inputs":[{"name":"","type":"tuple","internalType":"struct PoolSwapParams","components":[{"name":"kind","type":"uint8","internalType":"enum SwapKind"},{"name":"amountGivenScaled18","type":"uint256","internalType":"uint256"},{"name":"balancesScaled18","type":"uint256[]","internalType":"uint256[]"},{"name":"indexIn","type":"uint256","internalType":"uint256"},{"name":"indexOut","type":"uint256","internalType":"uint256"},{"name":"router","type":"address","internalType":"address"},{"name":"userData","type":"bytes","internalType":"bytes"}]},{"name":"","type":"address","internalType":"address"}],"outputs":[{"name":"","type":"bool","internalType":"bool"}],"stateMutability":"nonpayable"},{"type":"function","name":"onComputeDynamicSwapFeePercentage","inputs":[{"name":"params","type":"tuple","internalType":"struct PoolSwapParams","components":[{"name":"kind","type":"uint8","internalType":"enum SwapKind"},{"name":"amountGivenScaled18","type":"uint256","internalType":"uint256"},{"name":"balancesScaled18","type":"uint256[]","internalType":"uint256[]"},{"name":"indexIn","type":"uint256","internalType":"uint256"},{"name":"indexOut","type":"uint256","internalType":"uint256"},{"name":"router","type":"address","internalType":"address"},{"name":"userData","type":"bytes","internalType":"bytes"}]},{"name":"","type":"address","internalType":"address"},{"name":"staticSwapFeePercentage","type":"uint256","internalType":"uint256"}],"outputs":[{"name":"","type":"bool","internalType":"bool"},{"name":"","type":"uint256","internalType":"uint256"}],"stateMutability":"view"},{"type":"function","name":"onRegister","inputs":[{"name":"factory","type":"address","internalType":"address"},{"name":"pool","type":"address","internalType":"address"},{"name":"","type":"tuple[]","internalType":"struct TokenConfig[]","components":[{"name":"token","type":"address","internalType":"contract IERC20"},{"name":"tokenType","type":"uint8","internalType":"enum TokenType"},{"name":"rateProvider","type":"address","internalType":"contract IRateProvider"},{"name":"paysYieldFees","type":"bool","internalType":"bool"}]},{"name":"","type":"tuple","internalType":"struct LiquidityManagement","components":[{"name":"disableUnbalancedLiquidity","type":"bool","internalType":"bool"},{"name":"enableAddLiquidityCustom","type":"bool","internalType":"bool"},{"name":"enableRemoveLiquidityCustom","type":"bool","internalType":"bool"},{"name":"enableDonation","type":"bool","internalType":"bool"}]}],"outputs":[{"name":"","type":"bool","internalType":"bool"}],"stateMutability":"nonpayable"},{"type":"event","name":"VeBALFeeDiscountHookExampleRegistered","inputs":[{"name":"hooksContract","type":"address","indexed":true,"internalType":"address"},{"name":"factory","type":"address","indexed":true,"internalType":"address"},{"name":"pool","type":"address","indexed":true,"internalType":"address"}],"anonymous":false},{"type":"error","name":"SenderIsNotVault","inputs":[{"name":"sender","type":"address","internalType":"address"}]}],"bytecode":{"object":"0x610100604052348015610010575f5ffd5b50604051610f4f380380610f4f83398101604081905261002f91610069565b6001600160a01b0393841660805291831660a05290821660c0521660e0526100c5565b6001600160a01b0381168114610066575f5ffd5b50565b5f5f5f5f6080858703121561007c575f5ffd5b845161008781610052565b602086015190945061009881610052565b60408601519093506100a981610052565b60608601519092506100ba81610052565b939692955090935050565b60805160a05160c05160e051610e576100f85f395f6103c901525f61030b01525f61024901525f61048b0152610e575ff3fe608060405234801561000f575f5ffd5b5060043610610097575f3560e01c80630b89f1821461009b57806318b6eb55146100c35780631c149e28146100ef5780632754888d1461010457806338be241d1461012f57806345421ec7146101455780635211fa771461015f578063976907cc1461016d578063a0e8f5ac1461018a578063ba5f9f401461019d578063d77153a7146101ab575b5f5ffd5b6100ae6100a93660046105ae565b610204565b60405190151581526020015b60405180910390f35b6100d86100d13660046106dc565b505f908190565b6040805192151583526020830191909152016100ba565b6100ae6100fd3660046107ea565b5f92915050565b61012161011236600461085b565b5f839850989650505050505050565b6040516100ba92919061094a565b6100ae61013d366004610999565b5f9392505050565b6100ae610153366004610a12565b5f979650505050505050565b6100ae6100fd366004610ae9565b61012161017b366004610b37565b5f849850989650505050505050565b6100d8610198366004610be3565b6102f7565b6100ae610153366004610c38565b60408051610140810182525f808252602082018190528183018190526080820181905260a0820181905260c0820181905260e0820181905261010082018190526101208201526001606082015290516100ba9190610cbd565b5f61020d610480565b6040516001600160a01b03808616919087169030907fa8ab37b72b2944e381076dcbdf6f9b0d340c59a4f1492552e7361ef53dc873dc905f90a47f00000000000000000000000000000000000000000000000000000000000000006001600160a01b0316856001600160a01b03161480156102ee5750604051636634b75360e01b81526001600160a01b03861690636634b753906102af908790600401610d86565b602060405180830381865afa1580156102ca573d5f5f3e3d5ffd5b505050506040513d601f19601f820116820180604052508101906102ee9190610d9a565b95945050505050565b5f5f610301610480565b6001600160a01b037f00000000000000000000000000000000000000000000000000000000000000001661033b60c0870160a08801610db5565b6001600160a01b03161461035457506001905081610478565b5f61036560c0870160a08801610db5565b6001600160a01b0316635e01eb5a6040518163ffffffff1660e01b8152600401602060405180830381865afa1580156103a0573d5f5f3e3d5ffd5b505050506040513d601f19601f820116820180604052508101906103c49190610dd0565b90505f7f00000000000000000000000000000000000000000000000000000000000000006001600160a01b03166370a08231836040518263ffffffff1660e01b81526004016104139190610d86565b602060405180830381865afa15801561042e573d5f5f3e3d5ffd5b505050506040513d601f19601f820116820180604052508101906104529190610deb565b111561046f576001610465600286610e02565b9250925050610478565b60018492509250505b935093915050565b336001600160a01b037f000000000000000000000000000000000000000000000000000000000000000016146104d4573360405163089676d560e01b81526004016104cb9190610d86565b60405180910390fd5b565b6001600160a01b03811681146104ea575f5ffd5b50565b80356104f8816104d6565b919050565b634e487b7160e01b5f52604160045260245ffd5b604051608081016001600160401b0381118282101715610533576105336104fd565b60405290565b604051601f8201601f191681016001600160401b0381118282101715610561576105616104fd565b604052919050565b5f6001600160401b03821115610581576105816104fd565b5060051b60200190565b80151581146104ea575f5ffd5b5f608082840312156105a8575f5ffd5b50919050565b5f5f5f5f60e085870312156105c1575f5ffd5b84356105cc816104d6565b935060208501356105dc816104d6565b925060408501356001600160401b038111156105f6575f5ffd5b8501601f81018713610606575f5ffd5b803561061961061482610569565b610539565b8082825260208201915060208360071b85010192508983111561063a575f5ffd5b6020840193505b828410156106bd576080848b031215610658575f5ffd5b610660610511565b843561066b816104d6565b815260208501356002811061067e575f5ffd5b60208201526040850135610691816104d6565b604082015260608501356106a48161058b565b6060820152825260809390930192602090910190610641565b809550505050506106d18660608701610598565b905092959194509250565b5f602082840312156106ec575f5ffd5b81356001600160401b03811115610701575f5ffd5b82016101808185031215610713575f5ffd5b9392505050565b5f82601f830112610729575f5ffd5b813561073761061482610569565b8082825260208201915060208360051b860101925085831115610758575f5ffd5b602085015b8381101561077557803583526020928301920161075d565b5095945050505050565b5f82601f83011261078e575f5ffd5b81356001600160401b038111156107a7576107a76104fd565b6107ba601f8201601f1916602001610539565b8181528460208386010111156107ce575f5ffd5b816020850160208301375f918101602001919091529392505050565b5f5f604083850312156107fb575f5ffd5b82356001600160401b03811115610810575f5ffd5b61081c8582860161071a565b92505060208301356001600160401b03811115610837575f5ffd5b6108438582860161077f565b9150509250929050565b8035600481106104f8575f5ffd5b5f5f5f5f5f5f5f5f610100898b031215610873575f5ffd5b61087c896104ed565b975061088a60208a016104ed565b965061089860408a0161084d565b95506060890135945060808901356001600160401b038111156108b9575f5ffd5b6108c58b828c0161071a565b94505060a08901356001600160401b038111156108e0575f5ffd5b6108ec8b828c0161071a565b93505060c08901356001600160401b03811115610907575f5ffd5b6109138b828c0161071a565b92505060e08901356001600160401b0381111561092e575f5ffd5b61093a8b828c0161077f565b9150509295985092959890939650565b5f604082018415158352604060208401528084518083526060850191506020860192505f5b8181101561098d57835183526020938401939092019160010161096f565b50909695505050505050565b5f5f5f606084860312156109ab575f5ffd5b83356001600160401b038111156109c0575f5ffd5b6109cc8682870161071a565b9350506020840135915060408401356001600160401b038111156109ee575f5ffd5b6109fa8682870161077f565b9150509250925092565b8035600581106104f8575f5ffd5b5f5f5f5f5f5f5f60e0888a031215610a28575f5ffd5b8735610a33816104d6565b9650610a41602089016104ed565b9550610a4f60408901610a04565b945060608801356001600160401b03811115610a69575f5ffd5b610a758a828b0161071a565b9450506080880135925060a08801356001600160401b03811115610a97575f5ffd5b610aa38a828b0161071a565b92505060c08801356001600160401b03811115610abe575f5ffd5b610aca8a828b0161077f565b91505092959891949750929550565b5f60e082840312156105a8575f5ffd5b5f5f60408385031215610afa575f5ffd5b82356001600160401b03811115610b0f575f5ffd5b610b1b85828601610ad9565b9250506020830135610b2c816104d6565b809150509250929050565b5f5f5f5f5f5f5f5f610100898b031215610b4f575f5ffd5b610b58896104ed565b9750610b6660208a016104ed565b9650610b7460408a01610a04565b955060608901356001600160401b03811115610b8e575f5ffd5b610b9a8b828c0161071a565b95505060808901356001600160401b03811115610bb5575f5ffd5b610bc18b828c0161071a565b94505060a0890135925060c08901356001600160401b03811115610907575f5ffd5b5f5f5f60608486031215610bf5575f5ffd5b83356001600160401b03811115610c0a575f5ffd5b610c1686828701610ad9565b9350506020840135610c27816104d6565b929592945050506040919091013590565b5f5f5f5f5f5f5f60e0888a031215610c4e575f5ffd5b8735610c59816104d6565b9650610c67602089016104ed565b9550610c756040890161084d565b94506060880135935060808801356001600160401b03811115610c96575f5ffd5b610ca28a828b0161071a565b93505060a08801356001600160401b03811115610a97575f5ffd5b81511515815261014081016020830151610cdb602084018215159052565b506040830151610cef604084018215159052565b506060830151610d03606084018215159052565b506080830151610d17608084018215159052565b5060a0830151610d2b60a084018215159052565b5060c0830151610d3f60c084018215159052565b5060e0830151610d5360e084018215159052565b50610100830151610d6961010084018215159052565b50610120830151610d7f61012084018215159052565b5092915050565b6001600160a01b0391909116815260200190565b5f60208284031215610daa575f5ffd5b81516107138161058b565b5f60208284031215610dc5575f5ffd5b8135610713816104d6565b5f60208284031215610de0575f5ffd5b8151610713816104d6565b5f60208284031215610dfb575f5ffd5b5051919050565b5f82610e1c57634e487b7160e01b5f52601260045260245ffd5b50049056fea264697066735822122043826594ba83b7630c55fcde369ad5e7c1ed1a96bd54f45de6248b998536484f64736f6c634300081e0033","linkReferences":{}},"methodIdentifiers":{"getHookFlags()":"d77153a7","onAfterAddLiquidity(address,address,uint8,uint256[],uint256[],uint256,uint256[],bytes)":"976907cc","onAfterInitialize(uint256[],uint256,bytes)":"38be241d","onAfterRemoveLiquidity(address,address,uint8,uint256,uint256[],uint256[],uint256[],bytes)":"2754888d","onAfterSwap((uint8,address,address,uint256,uint256,uint256,uint256,uint256,uint256,address,address,bytes))":"18b6eb55","onBeforeAddLiquidity(address,address,uint8,uint256[],uint256,uint256[],bytes)":"45421ec7","onBeforeInitialize(uint256[],bytes)":"1c149e28","onBeforeRemoveLiquidity(address,address,uint8,uint256,uint256[],uint256[],bytes)":"ba5f9f40","onBeforeSwap((uint8,uint256,uint256[],uint256,uint256,address,bytes),address)":"5211fa77","onComputeDynamicSwapFeePercentage((uint8,uint256,uint256[],uint256,uint256,address,bytes),address,uint256)":"a0e8f5ac","onRegister(address,address,(address,uint8,address,bool)[],(bool,bool,bool,bool))":"0b89f182"},"id":859}