{"abi":[{"type":"function","name":"calculateValueChangeProgress","inputs":[{"name":"startTime","type":"uint256","internalType":"uint256"},{"name":"endTime","type":"uint256","internalType":"uint256"}],"outputs":[{"name":"","type":"uint256","internalType":"uint256"}],"stateMutability":"view"},{"type":"function","name":"getInterpolatedValue","inputs":[{"name":"startValue","type":"uint256","internalType":"uint256"},{"name":"endValue","type":"uint256","internalType":"uint256"},{"name":"startTime","type":"uint256","internalType":"uint256"},{"name":"endTime","type":"uint256","internalType":"uint256"}],"outputs":[{"name":"","type":"uint256","internalType":"uint256"}],"stateMutability":"view"},{"type":"function","name":"interpolateValue","inputs":[{"name":"startValue","type":"uint256","internalType":"uint256"},{"name":"endValue","type":"uint256","internalType":"uint256"},{"name":"pctProgress","type":"uint256","internalType":"uint256"}],"outputs":[{"name":"","type":"uint256","internalType":"uint256"}],"stateMutability":"pure"},{"type":"function","name":"resolveStartTime","inputs":[{"name":"startTime","type":"uint256","internalType":"uint256"},{"name":"endTime","type":"uint256","internalType":"uint256"}],"outputs":[{"name":"","type":"uint256","internalType":"uint256"}],"stateMutability":"view"},{"type":"error","name":"InvalidStartTime","inputs":[{"name":"resolvedStartTime","type":"uint256","internalType":"uint256"},{"name":"endTime","type":"uint256","internalType":"uint256"}]}],"bytecode":{"object":"0x6080604052348015600e575f5ffd5b5061033c8061001c5f395ff3fe608060405234801561000f575f5ffd5b506004361061004a575f3560e01c8063352f5c771461004e578063b470d7e014610073578063c97c5ec214610086578063cb85071014610099575b5f5ffd5b61006161005c36600461024c565b6100ac565b60405190815260200160405180910390f35b61006161008136600461027b565b6100c2565b61006161009436600461029b565b6100d6565b6100616100a736600461027b565b6100ec565b5f6100b9858585856100f7565b95945050505050565b5f6100cd838361011a565b90505b92915050565b5f6100e2848484610156565b90505b9392505050565b5f6100cd83836101bf565b5f5f61010384846101bf565b9050610110868683610156565b9695505050505050565b5f61012542846101f5565b9050818111156100d0576040516364bb3b8360e11b8152600481018290526024810183905260440160405180910390fd5b5f670de0b6b3a76400008210158061016d57508284145b156101795750816100e5565b815f036101875750826100e5565b828411156101a7575f61019c83858703610204565b850391506100e59050565b5f6101b483868603610204565b850191506100e59050565b5f8142106101d65750670de0b6b3a76400006100d0565b8242116101e457505f6100d0565b828203428490036100b9818361022c565b5f8183108284180283186100cd565b5f8061021083856102c4565b9050610224670de0b6b3a7640000826102e7565b949350505050565b5f80610240670de0b6b3a7640000856102c4565b905061022483826102e7565b5f5f5f5f6080858703121561025f575f5ffd5b5050823594602084013594506040840135936060013592509050565b5f5f6040838503121561028c575f5ffd5b50508035926020909101359150565b5f5f5f606084860312156102ad575f5ffd5b505081359360208301359350604090920135919050565b80820281158282048414176100d057634e487b7160e01b5f52601160045260245ffd5b5f8261030157634e487b7160e01b5f52601260045260245ffd5b50049056fea26469706673582212206ef54dd20e84a437d62773aadaa974be75bb1ab333b775c278f707f05fd94bfc64736f6c634300081e0033","linkReferences":{}},"methodIdentifiers":{"calculateValueChangeProgress(uint256,uint256)":"cb850710","getInterpolatedValue(uint256,uint256,uint256,uint256)":"352f5c77","interpolateValue(uint256,uint256,uint256)":"c97c5ec2","resolveStartTime(uint256,uint256)":"b470d7e0"},"id":207}