{"abi":[{"type":"constructor","inputs":[{"name":"init","type":"tuple","internalType":"struct IDiamondPackageCallBackFactoryInit.InitArgs","components":[{"name":"erc165Facet","type":"address","internalType":"contract IFacet"},{"name":"diamondLoupeFacet","type":"address","internalType":"contract IFacet"},{"name":"erc8109IntrospectionFacet","type":"address","internalType":"contract IFacet"},{"name":"postDeployHookFacet","type":"address","internalType":"contract IFacet"}]}],"stateMutability":"nonpayable"},{"type":"function","name":"DIAMOND_LOUPE_FACET","inputs":[],"outputs":[{"name":"","type":"address","internalType":"contract IFacet"}],"stateMutability":"view"},{"type":"function","name":"ERC165_FACET","inputs":[],"outputs":[{"name":"","type":"address","internalType":"contract IFacet"}],"stateMutability":"view"},{"type":"function","name":"ERC8109_INTROSPECTION_FACET","inputs":[],"outputs":[{"name":"","type":"address","internalType":"contract IFacet"}],"stateMutability":"view"},{"type":"function","name":"POST_DEPLOY_HOOK_FACET","inputs":[],"outputs":[{"name":"","type":"address","internalType":"contract IFacet"}],"stateMutability":"view"},{"type":"function","name":"PROXY_INIT_HASH","inputs":[],"outputs":[{"name":"","type":"bytes32","internalType":"bytes32"}],"stateMutability":"view"},{"type":"function","name":"calcAddress","inputs":[{"name":"pkg","type":"address","internalType":"contract IDiamondFactoryPackage"},{"name":"pkgArgs","type":"bytes","internalType":"bytes"}],"outputs":[{"name":"","type":"address","internalType":"address"}],"stateMutability":"view"},{"type":"function","name":"deploy","inputs":[{"name":"pkg","type":"address","internalType":"contract IDiamondFactoryPackage"},{"name":"pkgArgs","type":"bytes","internalType":"bytes"}],"outputs":[{"name":"proxy","type":"address","internalType":"address"}],"stateMutability":"nonpayable"},{"type":"function","name":"erc8109Funcs","inputs":[],"outputs":[{"name":"funcs","type":"bytes4[]","internalType":"bytes4[]"}],"stateMutability":"pure"},{"type":"function","name":"facetCuts","inputs":[],"outputs":[{"name":"facetCuts_","type":"tuple[]","internalType":"struct IDiamond.FacetCut[]","components":[{"name":"facetAddress","type":"address","internalType":"address"},{"name":"action","type":"uint8","internalType":"enum IDiamond.FacetCutAction"},{"name":"functionSelectors","type":"bytes4[]","internalType":"bytes4[]"}]}],"stateMutability":"view"},{"type":"function","name":"facetInterfaces","inputs":[],"outputs":[{"name":"interfaces","type":"bytes4[]","internalType":"bytes4[]"}],"stateMutability":"pure"},{"type":"function","name":"initAccount","inputs":[],"outputs":[{"name":"","type":"bool","internalType":"bool"}],"stateMutability":"nonpayable"},{"type":"function","name":"pkgArgsOfAccount","inputs":[{"name":"account","type":"address","internalType":"address"}],"outputs":[{"name":"pkgArgs","type":"bytes","internalType":"bytes"}],"stateMutability":"view"},{"type":"function","name":"pkgConfig","inputs":[],"outputs":[{"name":"pkg","type":"address","internalType":"contract IDiamondFactoryPackage"},{"name":"args","type":"bytes","internalType":"bytes"}],"stateMutability":"view"},{"type":"function","name":"pkgOfAccount","inputs":[{"name":"account","type":"address","internalType":"address"}],"outputs":[{"name":"pkg","type":"address","internalType":"contract IDiamondFactoryPackage"}],"stateMutability":"view"},{"type":"function","name":"postDeploy","inputs":[{"name":"","type":"address","internalType":"address"}],"outputs":[{"name":"","type":"bool","internalType":"bool"}],"stateMutability":"nonpayable"},{"type":"function","name":"postDeployFacetCuts","inputs":[],"outputs":[{"name":"facetCuts_","type":"tuple[]","internalType":"struct IDiamond.FacetCut[]","components":[{"name":"facetAddress","type":"address","internalType":"address"},{"name":"action","type":"uint8","internalType":"enum IDiamond.FacetCutAction"},{"name":"functionSelectors","type":"bytes4[]","internalType":"bytes4[]"}]}],"stateMutability":"view"},{"type":"event","name":"DiamondCut","inputs":[{"name":"_diamondCut","type":"tuple[]","indexed":false,"internalType":"struct IDiamond.FacetCut[]","components":[{"name":"facetAddress","type":"address","internalType":"address"},{"name":"action","type":"uint8","internalType":"enum IDiamond.FacetCutAction"},{"name":"functionSelectors","type":"bytes4[]","internalType":"bytes4[]"}]},{"name":"_init","type":"address","indexed":false,"internalType":"address"},{"name":"_calldata","type":"bytes","indexed":false,"internalType":"bytes"}],"anonymous":false},{"type":"event","name":"DiamondFunctionRemoved","inputs":[{"name":"_selector","type":"bytes4","indexed":true,"internalType":"bytes4"},{"name":"_oldFacet","type":"address","indexed":true,"internalType":"address"}],"anonymous":false},{"type":"error","name":"AddressEmptyCode","inputs":[{"name":"target","type":"address","internalType":"address"}]},{"type":"error","name":"DeploymentAddressMismatch","inputs":[{"name":"expected","type":"address","internalType":"address"},{"name":"actual","type":"address","internalType":"address"}]},{"type":"error","name":"FacetAlreadyPresent","inputs":[{"name":"facet","type":"address","internalType":"address"}]},{"type":"error","name":"FailedCall","inputs":[]},{"type":"error","name":"FunctionAlreadyPresent","inputs":[{"name":"functionSelector","type":"bytes4","internalType":"bytes4"}]},{"type":"error","name":"FunctionNotPresent","inputs":[{"name":"functionSelector","type":"bytes4","internalType":"bytes4"}]},{"type":"error","name":"SelectorFacetMismatch","inputs":[{"name":"functionSelector","type":"bytes4","internalType":"bytes4"},{"name":"expectedFacet","type":"address","internalType":"address"},{"name":"actualFacet","type":"address","internalType":"address"}]}],"bytecode":{"object":"0x610120604052348015610010575f5ffd5b5060405161297438038061297483398101604081905261002f91610082565b80516001600160a01b039081166080526020820151811660a0526040820151811660c0526060909101511660e052306101005261010a565b80516001600160a01b038116811461007d575f5ffd5b919050565b5f6080828403128015610093575f5ffd5b50604051608081016001600160401b03811182821017156100c257634e487b7160e01b5f52604160045260245ffd5b6040526100ce83610067565b81526100dc60208401610067565b60208201526100ed60408401610067565b60408201526100fe60608401610067565b60608201529392505050565b60805160a05160c05160e051610100516127e761018d5f395f8181610533015261057e01525f818161024201528181610a8801528181610ace01528181610bb90152610beb01525f81816101990152610a0e01525f81816102060152818161091a015261096001525f81816101470152818161083c015261086d01526127e75ff3fe608060405234801561000f575f5ffd5b50600436106100ce575f3560e01c80631c8b7630146100d25780632ea80826146100ed57806333a41d70146101025780633f58dd6d14610122578063421d0c7b146101425780634ec1ce211461016957806370068fcf1461018157806375edfda3146101945780637cbde55d146101bb5780638072e14e146101c35780638a648684146101d9578063978d23cf14610201578063a4b3ad3514610228578063bce468171461023d578063d5a7944d14610264578063e97fac051461026c575b5f5ffd5b6100da61027f565b6040519081526020015b60405180910390f35b6100f56102ac565b6040516100e49190611c0b565b610115610110366004611d1f565b61037e565b6040516100e49190611dab565b610135610130366004611dbf565b610453565b6040516100e49190611e08565b6101157f000000000000000000000000000000000000000000000000000000000000000081565b6101716104ea565b60405190151581526020016100e4565b61017161018f366004611dbf565b6106ef565b6101157f000000000000000000000000000000000000000000000000000000000000000081565b6100f5610703565b6101cb61073f565b6040516100e4929190611e1a565b6101156101e7366004611dbf565b5f602081905290815260409020546001600160a01b031681565b6101157f000000000000000000000000000000000000000000000000000000000000000081565b6102306107f4565b6040516100e49190611f2f565b6101157f000000000000000000000000000000000000000000000000000000000000000081565b610230610b72565b61011561027a366004611d1f565b610c80565b60405161028e60208201611be0565b6020820181038252601f19601f820116604052508051906020012081565b604080516003808252608082019092526060916020820183803683370190505090506301ffc9a760e01b815f815181106102e8576102e8611f41565b60200260200101906001600160e01b03191690816001600160e01b031916815250506348e2b09360e01b8160018151811061032557610325611f41565b60200260200101906001600160e01b03191690816001600160e01b0319168152505063ad4a123d60e01b8160028151811061036257610362611f41565b6001600160e01b03199092166020928302919091019091015290565b5f61044a6040518060200161039290611be0565b6020820181038252601f19601f820116604052508051906020012084856001600160a01b031663d82be56e866040518263ffffffff1660e01b81526004016103da9190611e08565b602060405180830381865afa1580156103f5573d5f5f3e3d5ffd5b505050506040513d601f19601f820116820180604052508101906104199190611f55565b60405160200161042a929190611f6c565b60408051601f198184030181529190528051602090910120309190610f27565b90505b92915050565b60016020525f90815260409020805461046b90611f85565b80601f016020809104026020016040519081016040528092919081815260200182805461049790611f85565b80156104e25780601f106104b9576101008083540402835291602001916104e2565b820191905f5260205f20905b8154815290600101906020018083116104c557829003601f168201915b505050505081565b5f6104fb6104f66107f4565b610f81565b61050b6105066102ac565b610f95565b5f5160206127925f395f51905f526105216107f4565b604051634ec1ce2160e01b60208201527f00000000000000000000000000000000000000000000000000000000000000009060240160408051601f1981840301815290829052610572939291611fbd565b60405180910390a15f5f7f00000000000000000000000000000000000000000000000000000000000000006001600160a01b0316638072e14e6040518163ffffffff1660e01b81526004015f60405180830381865afa1580156105d7573d5f5f3e3d5ffd5b505050506040513d5f823e601f3d908101601f191682016040526105fe9190810190612047565b915091505f826001600160a01b03166365d375b36040518163ffffffff1660e01b81526004015f60405180830381865afa15801561063e573d5f5f3e3d5ffd5b505050506040513d5f823e601f3d908101601f191682016040526106659190810190612130565b9050610673815f0151610f81565b6106808160200151610f95565b6106936001600160a01b03841683610fa6565b80516040515f5160206127925f395f51905f52919085906106c1906310e1a90760e31b9087906020016122b2565b60408051601f19818403018152908290526106dd939291611fbd565b60405180910390a16001935050505090565b5f6106fb6104f6610b72565b506001919050565b604080516001808252818301909252606091602080830190803683370190505090506360b5befb60e01b815f8151811061036257610362611f41565b335f9081526020818152604080832054600190925290912080546001600160a01b03909216916060919061077290611f85565b80601f016020809104026020016040519081016040528092919081815260200182805461079e90611f85565b80156107e95780601f106107c0576101008083540402835291602001916107e9565b820191905f5260205f20905b8154815290600101906020018083116107cc57829003601f168201915b505050505090509091565b60408051600480825260a08201909252606091816020015b610814611bed565b81526020019060019003908161080c5790505060408051606081019091526001600160a01b037f0000000000000000000000000000000000000000000000000000000000000000168152909150602081015f81526020017f00000000000000000000000000000000000000000000000000000000000000006001600160a01b031663574a4cff6040518163ffffffff1660e01b81526004015f60405180830381865afa1580156108c6573d5f5f3e3d5ffd5b505050506040513d5f823e601f3d908101601f191682016040526108ed91908101906122cd565b815250815f8151811061090257610902611f41565b602002602001018190525060405180606001604052807f00000000000000000000000000000000000000000000000000000000000000006001600160a01b031681526020015f600281111561095957610959611e3d565b81526020017f00000000000000000000000000000000000000000000000000000000000000006001600160a01b031663574a4cff6040518163ffffffff1660e01b81526004015f60405180830381865afa1580156109b9573d5f5f3e3d5ffd5b505050506040513d5f823e601f3d908101601f191682016040526109e091908101906122cd565b815250816001815181106109f6576109f6611f41565b602002602001018190525060405180606001604052807f00000000000000000000000000000000000000000000000000000000000000006001600160a01b031681526020015f6002811115610a4d57610a4d611e3d565b8152602001610a5a610703565b81525081600281518110610a7057610a70611f41565b602002602001018190525060405180606001604052807f00000000000000000000000000000000000000000000000000000000000000006001600160a01b031681526020015f6002811115610ac757610ac7611e3d565b81526020017f00000000000000000000000000000000000000000000000000000000000000006001600160a01b031663574a4cff6040518163ffffffff1660e01b81526004015f60405180830381865afa158015610b27573d5f5f3e3d5ffd5b505050506040513d5f823e601f3d908101601f19168201604052610b4e91908101906122cd565b81525081600381518110610b6457610b64611f41565b602002602001018190525090565b604080516001808252818301909252606091816020015b610b91611bed565b815260200190600190039081610b895790505060408051606081019091526001600160a01b037f000000000000000000000000000000000000000000000000000000000000000016815290915060208101600281526020017f00000000000000000000000000000000000000000000000000000000000000006001600160a01b031663574a4cff6040518163ffffffff1660e01b81526004015f60405180830381865afa158015610c44573d5f5f3e3d5ffd5b505050506040513d5f823e601f3d908101601f19168201604052610c6b91908101906122cd565b815250815f81518110610b6457610b64611f41565b5f80610c956001600160a01b03851684611005565b90508381604051602001610caa929190611f6c565b6040516020818303038152906040528051906020012090505f610cfa60405180602001610cd690611be0565b601f1982820381018352601f90910116604052805160209190910120309084610f27565b90506001600160a01b0381163b15610d1557915061044d9050565b610d286001600160a01b0386168561107f565b6001600160a01b038281165f9081526020818152604080832080546001600160a01b031916948b16949094179093556001905220909450610d698582612349565b5060405163a908923560e01b81526001600160a01b0386169063a908923590610d989084908890600401611e1a565b6020604051808303815f875af1158015610db4573d5f5f3e3d5ffd5b505050506040513d601f19601f82011682018060405250810190610dd89190612403565b5081604051610de690611be0565b8190604051809103905ff5905080158015610e03573d5f5f3e3d5ffd5b509250826001600160a01b0316816001600160a01b031614610e5057604051630df753ed60e21b81526001600160a01b038083166004830152841660248201526044015b60405180910390fd5b6040516370068fcf60e01b81526001600160a01b038616906370068fcf90610e7c908490600401611dab565b6020604051808303815f875af1158015610e98573d5f5f3e3d5ffd5b505050506040513d601f19601f82011682018060405250810190610ebc9190612403565b50806001600160a01b031663ba5b83ec6040518163ffffffff1660e01b81526004016020604051808303815f875af1158015610efa573d5f5f3e3d5ffd5b505050506040513d601f19601f82011682018060405250810190610f1e9190612403565b50505092915050565b6040516001600160f81b031960208201526001600160601b0319606085901b16602182015260358101829052605581018390525f90607501604051602081830303815290604052805190602001205f1c90505b9392505050565b610f92610f8c6110b4565b82611106565b50565b610f92610fa061113c565b8261116f565b61100063870d483860e01b82604051602001610fc29190611e08565b60408051601f1981840301815290829052610fe092916020016122b2565b60408051601f198184030181529190526001600160a01b038416906111c5565b505050565b5f5f61106163d82be56e60e01b846040516020016110239190611e08565b60408051601f198184030181529082905261104192916020016122b2565b60408051601f198184030181529190526001600160a01b038616906111c5565b9050808060200190518101906110779190611f55565b949350505050565b60605f61109e6387c3adb360e01b846040516020016110239190611e08565b9050808060200190518101906110779190612422565b5f6111016040516020016110e8906020808252600c908201526b6569702e6572632e3235333560a01b604082015260600190565b6040516020818303038152906040528051906020012090565b905090565b5f5b8151811015611000576111348383838151811061112757611127611f41565b60200260200101516111d1565b600101611108565b5f6111016040516020016110e8906020808252600b908201526a6569702e6572632e31363560a81b604082015260600190565b5f5b8151811015611000576111bd8383838151811061119057611190611f41565b60200260200101516001600160e01b0319165f90815260209190915260409020805460ff19166001179055565b600101611171565b606061044a838361125c565b80516001600160a01b03166111e4575050565b5f816020015160028111156111fb576111fb611e3d565b0361120a5761120a82826112ce565b60018160200151600281111561122257611222611e3d565b0361123157611231828261140b565b60028160200151600281111561124957611249611e3d565b03611258576112588282611663565b5050565b60605f5f846001600160a01b0316846040516112789190612453565b5f60405180830381855af49150503d805f81146112b0576040519150601f19603f3d011682016040523d82523d5f602084013e6112b5565b606091505b50915091506112c58583836117f0565b95945050505050565b5f5b8160400151518110156113d4575f6001600160a01b0316836002015f8460400151848151811061130257611302611f41565b6020908102919091018101516001600160e01b03191682528101919091526040015f20546001600160a01b03161461136c578160400151818151811061134a5761134a611f41565b602002602001015160405163c33ebb5960e01b8152600401610e47919061245e565b815f0151836002015f8460400151848151811061138b5761138b611f41565b6020908102919091018101516001600160e01b03191682528101919091526040015f2080546001600160a01b0319166001600160a01b03929092169190911790556001016112d0565b5060408082015182516001600160a01b03165f90815260038501602052919091206113fe91611843565b8051611000908390611879565b5f5b8160400151518110156113d4575f6001600160a01b0316836002015f8460400151848151811061143f5761143f611f41565b6020908102919091018101516001600160e01b03191682528101919091526040015f20546001600160a01b0316036114a9578160400151818151811061148757611487611f41565b6020026020010151604051631310a10960e11b8152600401610e47919061245e565b815f01516001600160a01b0316836002015f846040015184815181106114d1576114d1611f41565b6020908102919091018101516001600160e01b03191682528101919091526040015f20546001600160a01b03160361151f5781516040516386bba0cb60e01b8152610e479190600401611dab565b5f836002015f8460400151848151811061153b5761153b611f41565b60200260200101516001600160e01b0319166001600160e01b03191681526020019081526020015f205f9054906101000a90046001600160a01b031690506115cd8360400151838151811061159257611592611f41565b6020026020010151856003015f846001600160a01b03166001600160a01b031681526020019081526020015f206118e290919063ffffffff16565b6001600160a01b0381165f9081526003850160205260409020600101545f036115fa576115fa8482611a1f565b825f0151846002015f8560400151858151811061161957611619611f41565b6020908102919091018101516001600160e01b03191682528101919091526040015f2080546001600160a01b0319166001600160a01b03929092169190911790555060010161140d565b5f5b816040015151811015611000575f8260400151828151811061168957611689611f41565b6020908102919091018101516001600160e01b031981165f908152600287019092526040909120549091506001600160a01b0316806116dd5781604051631310a10960e11b8152600401610e47919061245e565b83516001600160a01b03828116911614611730578351604051632377a52b60e21b81526001600160e01b0319841660048201526001600160a01b0391821660248201529082166044820152606401610e47565b6001600160e01b031982165f908152600286016020908152604080832080546001600160a01b03191690556001600160a01b038416835260038801909152902061177a90836118e2565b6001600160a01b0381165f9081526003860160205260409020600101545f036117a7576117a78582611a1f565b6040516001600160a01b038216906001600160e01b03198416907fa24c9d3a0f634225f6932b85d43ff7a2dcb0b8778ad4caedbc13c840f5e4fd6d905f90a35050600101611665565b6060826118055761180082611b3d565b610f7a565b815115801561181c57506001600160a01b0384163b155b1561183c5783604051639996b31560e01b8152600401610e479190611dab565b5080610f7a565b5f5b8151811015611000576118718383838151811061186457611864611f41565b6020026020010151611b66565b600101611845565b6001600160a01b0381165f908152602083905260408120546118d9576001838101805491820181555f818152602080822090930180546001600160a01b0319166001600160a01b0387169081179091559154918152918590526040909120555b50600192915050565b6001600160e01b031981165f908152602083905260409020548015611000575f61190d600183612487565b600180860180549293505f92909161192491612487565b8154811061193457611934611f41565b905f5260205f2090600891828204019190066004029054906101000a900460e01b90508085600101838154811061196d5761196d611f41565b905f5260205f2090600891828204019190066004026101000a81548163ffffffff021916908360e01c02179055508160016119a8919061249a565b6001600160e01b031982165f90815260208790526040902055600185018054806119d4576119d46124ad565b5f828152602080822060085f1990940193840401805463ffffffff600460078716026101000a0219169055919092556001600160e01b03198616825286905260408120555050505050565b6001600160a01b0381165f908152602083905260409020548015611000575f611a49600183612487565b600180860180549293505f929091611a6091612487565b81548110611a7057611a70611f41565b5f918252602090912001546001860180546001600160a01b039092169250829184908110611aa057611aa0611f41565b5f91825260209091200180546001600160a01b0319166001600160a01b0392909216919091179055611ad382600161249a565b6001600160a01b0382165f9081526020879052604090205560018501805480611afe57611afe6124ad565b5f828152602080822083015f1990810180546001600160a01b03191690559092019092556001600160a01b038616825286905260408120555050505050565b805115611b4d5780518082602001fd5b60405163d6bda27560e01b815260040160405180910390fd5b6001600160e01b031981165f90815260208390526040902054611258576001828101805491820181555f81815260208082206008850401805463ffffffff60079096166004026101000a958602191660e087901c959095029490941790935590546001600160e01b03199093168152929052604090912055565b6102d0806124c283390190565b60408051606080820183525f80835260208301529181019190915290565b602080825282518282018190525f918401906040840190835b81811015611c4c5783516001600160e01b031916835260209384019390920191600101611c24565b509095945050505050565b6001600160a01b0381168114610f92575f5ffd5b634e487b7160e01b5f52604160045260245ffd5b604080519081016001600160401b0381118282101715611ca157611ca1611c6b565b60405290565b604051606081016001600160401b0381118282101715611ca157611ca1611c6b565b604051601f8201601f191681016001600160401b0381118282101715611cf157611cf1611c6b565b604052919050565b5f6001600160401b03821115611d1157611d11611c6b565b50601f01601f191660200190565b5f5f60408385031215611d30575f5ffd5b8235611d3b81611c57565b915060208301356001600160401b03811115611d55575f5ffd5b8301601f81018513611d65575f5ffd5b8035611d78611d7382611cf9565b611cc9565b818152866020838501011115611d8c575f5ffd5b816020840160208301375f602083830101528093505050509250929050565b6001600160a01b0391909116815260200190565b5f60208284031215611dcf575f5ffd5b8135610f7a81611c57565b5f81518084528060208401602086015e5f602082860101526020601f19601f83011685010191505092915050565b602081525f61044a6020830184611dda565b6001600160a01b03831681526040602082018190525f9061107790830184611dda565b634e487b7160e01b5f52602160045260245ffd5b5f82825180855260208501945060208160051b830101602085015f5b83811015611f2357848303601f19018852815180516001600160a01b031684526020810151606085019060038110611eb357634e487b7160e01b5f52602160045260245ffd5b8060208701525060408201519150606060408601528082518083526080870191506020840193505f92505b80831015611f0a5783516001600160e01b03191682526020938401936001939093019290910190611ede565b5060209a8b019a90955093909301925050600101611e6d565b50909695505050505050565b602081525f61044a6020830184611e51565b634e487b7160e01b5f52603260045260245ffd5b5f60208284031215611f65575f5ffd5b5051919050565b6001600160a01b03929092168252602082015260400190565b600181811c90821680611f9957607f821691505b602082108103611fb757634e487b7160e01b5f52602260045260245ffd5b50919050565b606081525f611fcf6060830186611e51565b6001600160a01b03851660208401528281036040840152611ff08185611dda565b9695505050505050565b5f82601f830112612009575f5ffd5b8151612017611d7382611cf9565b81815284602083860101111561202b575f5ffd5b8160208501602083015e5f918101602001919091529392505050565b5f5f60408385031215612058575f5ffd5b825161206381611c57565b60208401519092506001600160401b0381111561207e575f5ffd5b61208a85828601611ffa565b9150509250929050565b5f6001600160401b038211156120ac576120ac611c6b565b5060051b60200190565b5f82601f8301126120c5575f5ffd5b81516120d3611d7382612094565b8082825260208201915060208360051b8601019250858311156120f4575f5ffd5b602085015b838110156121265780516001600160e01b031981168114612118575f5ffd5b8352602092830192016120f9565b5095945050505050565b5f60208284031215612140575f5ffd5b81516001600160401b03811115612155575f5ffd5b820160408185031215612166575f5ffd5b61216e611c7f565b81516001600160401b03811115612183575f5ffd5b8201601f81018613612193575f5ffd5b80516121a1611d7382612094565b8082825260208201915060208360051b8501019250888311156121c2575f5ffd5b602084015b838110156122635780516001600160401b038111156121e4575f5ffd5b85016060818c03601f190112156121f9575f5ffd5b612201611ca7565b602082015161220f81611c57565b8152604082015160038110612222575f5ffd5b602082015260608201516001600160401b0381111561223f575f5ffd5b61224e8d6020838601016120b6565b604083015250845250602092830192016121c7565b50845250505060208201516001600160401b03811115612281575f5ffd5b61228d868285016120b6565b602083015250949350505050565b5f81518060208401855e5f93019283525090919050565b6001600160e01b0319831681525f611077600483018461229b565b5f602082840312156122dd575f5ffd5b81516001600160401b038111156122f2575f5ffd5b611077848285016120b6565b601f82111561100057805f5260205f20601f840160051c810160208510156123235750805b601f840160051c820191505b81811015612342575f815560010161232f565b5050505050565b81516001600160401b0381111561236257612362611c6b565b612376816123708454611f85565b846122fe565b6020601f8211600181146123a8575f83156123915750848201515b5f19600385901b1c1916600184901b178455612342565b5f84815260208120601f198516915b828110156123d757878501518255602094850194600190920191016123b7565b50848210156123f457868401515f19600387901b60f8161c191681555b50505050600190811b01905550565b5f60208284031215612413575f5ffd5b81518015158114610f7a575f5ffd5b5f60208284031215612432575f5ffd5b81516001600160401b03811115612447575f5ffd5b61107784828501611ffa565b5f61044a828461229b565b6001600160e01b031991909116815260200190565b634e487b7160e01b5f52601160045260245ffd5b8181038181111561044d5761044d612473565b8082018082111561044d5761044d612473565b634e487b7160e01b5f52603160045260245ffdfe608060405234801561000f575f5ffd5b506100193361001e565b61017e565b604051634ec1ce2160e01b60208201526100559060240160408051601f198184030181529190526001600160a01b03831690610059565b5050565b6060610065838361006c565b9392505050565b60605f5f846001600160a01b0316846040516100889190610168565b5f60405180830381855af49150503d805f81146100c0576040519150601f19603f3d011682016040523d82523d5f602084013e6100c5565b606091505b5090925090506100d68583836100df565b95945050505050565b6060826100f4576100ef8261013f565b610065565b815115801561010b57506001600160a01b0384163b155b1561013857604051639996b31560e01b81526001600160a01b038516600482015260240160405180910390fd5b5092915050565b80511561014f5780518082602001fd5b60405163d6bda27560e01b815260040160405180910390fd5b5f82518060208501845e5f920191825250919050565b6101458061018b5f395ff3fe60806040523661000b57005b5f61001461006d565b90506001600160a01b0381163b61004f576040516323dbef4b60e01b81526001600160e01b03195f3516600482015260240160405180910390fd5b365f5f375f5f365f845af43d5f5f3e808015610069573d5ff35b3d5ffd5b5f6100825f356001600160e01b031916610087565b905090565b5f6100bc6100936100c2565b836001600160e01b0319165f90815260029190910160205260409020546001600160a01b031690565b92915050565b5f6100826040516020016100f6906020808252600c908201526b6569702e6572632e3235333560a01b604082015260600190565b604051602081830303815290604052805190602001209056fea2646970667358221220c47b56d4dfd7344f0598495a33fa76bcf0276cbd1300f29706c41d2cbb9fce3b64736f6c634300081e00338faa70878671ccd212d20771b795c50af8fd3ff6cf27f4bde57e5d4de0aeb673a2646970667358221220552ba541c65178cb63d3f656a994947f9b6a61ddbf052e9dd0e5686924dc388664736f6c634300081e0033","linkReferences":{}},"methodIdentifiers":{"DIAMOND_LOUPE_FACET()":"978d23cf","ERC165_FACET()":"421d0c7b","ERC8109_INTROSPECTION_FACET()":"75edfda3","POST_DEPLOY_HOOK_FACET()":"bce46817","PROXY_INIT_HASH()":"1c8b7630","calcAddress(address,bytes)":"33a41d70","deploy(address,bytes)":"e97fac05","erc8109Funcs()":"7cbde55d","facetCuts()":"a4b3ad35","facetInterfaces()":"2ea80826","initAccount()":"4ec1ce21","pkgArgsOfAccount(address)":"3f58dd6d","pkgConfig()":"8072e14e","pkgOfAccount(address)":"8a648684","postDeploy(address)":"70068fcf","postDeployFacetCuts()":"d5a7944d"},"id":116}