{"abi":[{"type":"constructor","inputs":[{"name":"vault","type":"address","internalType":"contract IVault"},{"name":"weth","type":"address","internalType":"contract IWETH"},{"name":"permit2","type":"address","internalType":"contract IPermit2"}],"stateMutability":"nonpayable"},{"type":"receive","stateMutability":"payable"},{"type":"function","name":"getPermit2","inputs":[],"outputs":[{"name":"","type":"address","internalType":"contract IPermit2"}],"stateMutability":"view"},{"type":"function","name":"getSender","inputs":[],"outputs":[{"name":"","type":"address","internalType":"address"}],"stateMutability":"view"},{"type":"function","name":"getVault","inputs":[],"outputs":[{"name":"","type":"address","internalType":"contract IVault"}],"stateMutability":"view"},{"type":"function","name":"getWeth","inputs":[],"outputs":[{"name":"","type":"address","internalType":"contract IWETH"}],"stateMutability":"view"},{"type":"function","name":"manualGetCurrentSwapTokenInAmounts","inputs":[],"outputs":[{"name":"","type":"bytes32","internalType":"AddressToUintMappingSlot"}],"stateMutability":"view"},{"type":"function","name":"manualGetCurrentSwapTokenOutAmounts","inputs":[],"outputs":[{"name":"","type":"bytes32","internalType":"AddressToUintMappingSlot"}],"stateMutability":"view"},{"type":"function","name":"manualGetCurrentSwapTokensInSlot","inputs":[],"outputs":[{"name":"","type":"bytes32","internalType":"bytes32"}],"stateMutability":"view"},{"type":"function","name":"manualGetCurrentSwapTokensOutSlot","inputs":[],"outputs":[{"name":"","type":"bytes32","internalType":"bytes32"}],"stateMutability":"view"},{"type":"function","name":"manualGetSettledTokenAmounts","inputs":[],"outputs":[{"name":"","type":"bytes32","internalType":"AddressToUintMappingSlot"}],"stateMutability":"view"},{"type":"function","name":"multicall","inputs":[{"name":"data","type":"bytes[]","internalType":"bytes[]"}],"outputs":[{"name":"results","type":"bytes[]","internalType":"bytes[]"}],"stateMutability":"payable"},{"type":"function","name":"permitBatchAndCall","inputs":[{"name":"permitBatch","type":"tuple[]","internalType":"struct IRouterCommon.PermitApproval[]","components":[{"name":"token","type":"address","internalType":"address"},{"name":"owner","type":"address","internalType":"address"},{"name":"spender","type":"address","internalType":"address"},{"name":"amount","type":"uint256","internalType":"uint256"},{"name":"nonce","type":"uint256","internalType":"uint256"},{"name":"deadline","type":"uint256","internalType":"uint256"}]},{"name":"permitSignatures","type":"bytes[]","internalType":"bytes[]"},{"name":"permit2Batch","type":"tuple","internalType":"struct IAllowanceTransfer.PermitBatch","components":[{"name":"details","type":"tuple[]","internalType":"struct IAllowanceTransfer.PermitDetails[]","components":[{"name":"token","type":"address","internalType":"address"},{"name":"amount","type":"uint160","internalType":"uint160"},{"name":"expiration","type":"uint48","internalType":"uint48"},{"name":"nonce","type":"uint48","internalType":"uint48"}]},{"name":"spender","type":"address","internalType":"address"},{"name":"sigDeadline","type":"uint256","internalType":"uint256"}]},{"name":"permit2Signature","type":"bytes","internalType":"bytes"},{"name":"multicallData","type":"bytes[]","internalType":"bytes[]"}],"outputs":[{"name":"","type":"bytes[]","internalType":"bytes[]"}],"stateMutability":"payable"},{"type":"function","name":"querySwapExactIn","inputs":[{"name":"paths","type":"tuple[]","internalType":"struct SwapPathExactAmountIn[]","components":[{"name":"tokenIn","type":"address","internalType":"contract IERC20"},{"name":"steps","type":"tuple[]","internalType":"struct SwapPathStep[]","components":[{"name":"pool","type":"address","internalType":"address"},{"name":"tokenOut","type":"address","internalType":"contract IERC20"},{"name":"isBuffer","type":"bool","internalType":"bool"}]},{"name":"exactAmountIn","type":"uint256","internalType":"uint256"},{"name":"minAmountOut","type":"uint256","internalType":"uint256"}]},{"name":"sender","type":"address","internalType":"address"},{"name":"userData","type":"bytes","internalType":"bytes"}],"outputs":[{"name":"pathAmountsOut","type":"uint256[]","internalType":"uint256[]"},{"name":"tokensOut","type":"address[]","internalType":"address[]"},{"name":"amountsOut","type":"uint256[]","internalType":"uint256[]"}],"stateMutability":"nonpayable"},{"type":"function","name":"querySwapExactInHook","inputs":[{"name":"params","type":"tuple","internalType":"struct SwapExactInHookParams","components":[{"name":"sender","type":"address","internalType":"address"},{"name":"paths","type":"tuple[]","internalType":"struct SwapPathExactAmountIn[]","components":[{"name":"tokenIn","type":"address","internalType":"contract IERC20"},{"name":"steps","type":"tuple[]","internalType":"struct SwapPathStep[]","components":[{"name":"pool","type":"address","internalType":"address"},{"name":"tokenOut","type":"address","internalType":"contract IERC20"},{"name":"isBuffer","type":"bool","internalType":"bool"}]},{"name":"exactAmountIn","type":"uint256","internalType":"uint256"},{"name":"minAmountOut","type":"uint256","internalType":"uint256"}]},{"name":"deadline","type":"uint256","internalType":"uint256"},{"name":"wethIsEth","type":"bool","internalType":"bool"},{"name":"userData","type":"bytes","internalType":"bytes"}]}],"outputs":[{"name":"pathAmountsOut","type":"uint256[]","internalType":"uint256[]"},{"name":"tokensOut","type":"address[]","internalType":"address[]"},{"name":"amountsOut","type":"uint256[]","internalType":"uint256[]"}],"stateMutability":"nonpayable"},{"type":"function","name":"querySwapExactOut","inputs":[{"name":"paths","type":"tuple[]","internalType":"struct SwapPathExactAmountOut[]","components":[{"name":"tokenIn","type":"address","internalType":"contract IERC20"},{"name":"steps","type":"tuple[]","internalType":"struct SwapPathStep[]","components":[{"name":"pool","type":"address","internalType":"address"},{"name":"tokenOut","type":"address","internalType":"contract IERC20"},{"name":"isBuffer","type":"bool","internalType":"bool"}]},{"name":"maxAmountIn","type":"uint256","internalType":"uint256"},{"name":"exactAmountOut","type":"uint256","internalType":"uint256"}]},{"name":"sender","type":"address","internalType":"address"},{"name":"userData","type":"bytes","internalType":"bytes"}],"outputs":[{"name":"pathAmountsIn","type":"uint256[]","internalType":"uint256[]"},{"name":"tokensIn","type":"address[]","internalType":"address[]"},{"name":"amountsIn","type":"uint256[]","internalType":"uint256[]"}],"stateMutability":"nonpayable"},{"type":"function","name":"querySwapExactOutHook","inputs":[{"name":"params","type":"tuple","internalType":"struct SwapExactOutHookParams","components":[{"name":"sender","type":"address","internalType":"address"},{"name":"paths","type":"tuple[]","internalType":"struct SwapPathExactAmountOut[]","components":[{"name":"tokenIn","type":"address","internalType":"contract IERC20"},{"name":"steps","type":"tuple[]","internalType":"struct SwapPathStep[]","components":[{"name":"pool","type":"address","internalType":"address"},{"name":"tokenOut","type":"address","internalType":"contract IERC20"},{"name":"isBuffer","type":"bool","internalType":"bool"}]},{"name":"maxAmountIn","type":"uint256","internalType":"uint256"},{"name":"exactAmountOut","type":"uint256","internalType":"uint256"}]},{"name":"deadline","type":"uint256","internalType":"uint256"},{"name":"wethIsEth","type":"bool","internalType":"bool"},{"name":"userData","type":"bytes","internalType":"bytes"}]}],"outputs":[{"name":"pathAmountsIn","type":"uint256[]","internalType":"uint256[]"},{"name":"tokensIn","type":"address[]","internalType":"address[]"},{"name":"amountsIn","type":"uint256[]","internalType":"uint256[]"}],"stateMutability":"nonpayable"},{"type":"function","name":"swapExactIn","inputs":[{"name":"paths","type":"tuple[]","internalType":"struct SwapPathExactAmountIn[]","components":[{"name":"tokenIn","type":"address","internalType":"contract IERC20"},{"name":"steps","type":"tuple[]","internalType":"struct SwapPathStep[]","components":[{"name":"pool","type":"address","internalType":"address"},{"name":"tokenOut","type":"address","internalType":"contract IERC20"},{"name":"isBuffer","type":"bool","internalType":"bool"}]},{"name":"exactAmountIn","type":"uint256","internalType":"uint256"},{"name":"minAmountOut","type":"uint256","internalType":"uint256"}]},{"name":"deadline","type":"uint256","internalType":"uint256"},{"name":"wethIsEth","type":"bool","internalType":"bool"},{"name":"userData","type":"bytes","internalType":"bytes"}],"outputs":[{"name":"pathAmountsOut","type":"uint256[]","internalType":"uint256[]"},{"name":"tokensOut","type":"address[]","internalType":"address[]"},{"name":"amountsOut","type":"uint256[]","internalType":"uint256[]"}],"stateMutability":"payable"},{"type":"function","name":"swapExactInHook","inputs":[{"name":"params","type":"tuple","internalType":"struct SwapExactInHookParams","components":[{"name":"sender","type":"address","internalType":"address"},{"name":"paths","type":"tuple[]","internalType":"struct SwapPathExactAmountIn[]","components":[{"name":"tokenIn","type":"address","internalType":"contract IERC20"},{"name":"steps","type":"tuple[]","internalType":"struct SwapPathStep[]","components":[{"name":"pool","type":"address","internalType":"address"},{"name":"tokenOut","type":"address","internalType":"contract IERC20"},{"name":"isBuffer","type":"bool","internalType":"bool"}]},{"name":"exactAmountIn","type":"uint256","internalType":"uint256"},{"name":"minAmountOut","type":"uint256","internalType":"uint256"}]},{"name":"deadline","type":"uint256","internalType":"uint256"},{"name":"wethIsEth","type":"bool","internalType":"bool"},{"name":"userData","type":"bytes","internalType":"bytes"}]}],"outputs":[{"name":"pathAmountsOut","type":"uint256[]","internalType":"uint256[]"},{"name":"tokensOut","type":"address[]","internalType":"address[]"},{"name":"amountsOut","type":"uint256[]","internalType":"uint256[]"}],"stateMutability":"nonpayable"},{"type":"function","name":"swapExactOut","inputs":[{"name":"paths","type":"tuple[]","internalType":"struct SwapPathExactAmountOut[]","components":[{"name":"tokenIn","type":"address","internalType":"contract IERC20"},{"name":"steps","type":"tuple[]","internalType":"struct SwapPathStep[]","components":[{"name":"pool","type":"address","internalType":"address"},{"name":"tokenOut","type":"address","internalType":"contract IERC20"},{"name":"isBuffer","type":"bool","internalType":"bool"}]},{"name":"maxAmountIn","type":"uint256","internalType":"uint256"},{"name":"exactAmountOut","type":"uint256","internalType":"uint256"}]},{"name":"deadline","type":"uint256","internalType":"uint256"},{"name":"wethIsEth","type":"bool","internalType":"bool"},{"name":"userData","type":"bytes","internalType":"bytes"}],"outputs":[{"name":"pathAmountsIn","type":"uint256[]","internalType":"uint256[]"},{"name":"tokensIn","type":"address[]","internalType":"address[]"},{"name":"amountsIn","type":"uint256[]","internalType":"uint256[]"}],"stateMutability":"payable"},{"type":"function","name":"swapExactOutHook","inputs":[{"name":"params","type":"tuple","internalType":"struct SwapExactOutHookParams","components":[{"name":"sender","type":"address","internalType":"address"},{"name":"paths","type":"tuple[]","internalType":"struct SwapPathExactAmountOut[]","components":[{"name":"tokenIn","type":"address","internalType":"contract IERC20"},{"name":"steps","type":"tuple[]","internalType":"struct SwapPathStep[]","components":[{"name":"pool","type":"address","internalType":"address"},{"name":"tokenOut","type":"address","internalType":"contract IERC20"},{"name":"isBuffer","type":"bool","internalType":"bool"}]},{"name":"maxAmountIn","type":"uint256","internalType":"uint256"},{"name":"exactAmountOut","type":"uint256","internalType":"uint256"}]},{"name":"deadline","type":"uint256","internalType":"uint256"},{"name":"wethIsEth","type":"bool","internalType":"bool"},{"name":"userData","type":"bytes","internalType":"bytes"}]}],"outputs":[{"name":"pathAmountsIn","type":"uint256[]","internalType":"uint256[]"},{"name":"tokensIn","type":"address[]","internalType":"address[]"},{"name":"amountsIn","type":"uint256[]","internalType":"uint256[]"}],"stateMutability":"nonpayable"},{"type":"function","name":"version","inputs":[],"outputs":[{"name":"","type":"string","internalType":"string"}],"stateMutability":"view"},{"type":"error","name":"AddressEmptyCode","inputs":[{"name":"target","type":"address","internalType":"address"}]},{"type":"error","name":"ErrorSelectorNotFound","inputs":[]},{"type":"error","name":"EthTransfer","inputs":[]},{"type":"error","name":"FailedCall","inputs":[]},{"type":"error","name":"InputLengthMismatch","inputs":[]},{"type":"error","name":"InsufficientBalance","inputs":[{"name":"balance","type":"uint256","internalType":"uint256"},{"name":"needed","type":"uint256","internalType":"uint256"}]},{"type":"error","name":"InsufficientEth","inputs":[]},{"type":"error","name":"OperationNotSupported","inputs":[]},{"type":"error","name":"ReentrancyGuardReentrantCall","inputs":[]},{"type":"error","name":"SenderIsNotVault","inputs":[{"name":"sender","type":"address","internalType":"address"}]},{"type":"error","name":"SwapDeadline","inputs":[]},{"type":"error","name":"TransientIndexOutOfBounds","inputs":[]}],"bytecode":{"object":"0x600b6101e09081526a14d95b99195c91dd585c9960aa1b6102005261026060405260066102209081526539b2b73232b960d11b610240526100409190610298565b608052604080518082018252600c81526b2937baba32b921b7b6b6b7b760a11b602080830191909152825180840190935260118352701a5cd4995d1d5c9b915d1a131bd8dad959607a1b9083015261009791610298565b60c05260408051808201909152601381527f63757272656e7453776170546f6b656e73496e0000000000000000000000000060208201526100d790610307565b6101405260408051808201909152601481527f63757272656e7453776170546f6b656e734f7574000000000000000000000000602082015261011890610307565b6101605260408051808201909152601981527f63757272656e7453776170546f6b656e496e416d6f756e747300000000000000602082015261015990610307565b6101805260408051808201909152601a81527f63757272656e7453776170546f6b656e4f7574416d6f756e7473000000000000602082015261019a90610307565b6101a05260408051808201909152601381527f736574746c6564546f6b656e416d6f756e74730000000000000000000000000060208201526101db90610307565b6101c0523480156101ea575f5ffd5b5060405161571638038061571683398101604081905261020991610367565b60408051808201909152601381527f4d6f636b204261746368526f757465722076310000000000000000000000000060208201526001600160a01b03841660a0528390839083908383838383838383838383838061026681610341565b50506001600160a01b0391821660e052166101008190521561012052506105879e505050505050505050505050505050565b5f60ff5f1b19600184846040516020016102b39291906103c8565b604051602081830303815290604052805190602001205f1c6102d59190610416565b6040516020016102e791815260200190565b604051602081830303815290604052805190602001201690505b92915050565b5f610301604051806040016040526011815280602001702130ba31b42937baba32b921b7b6b6b7b760791b8152508361029860201b60201c565b5f61034c82826104cd565b5050565b6001600160a01b0381168114610364575f5ffd5b50565b5f5f5f60608486031215610379575f5ffd5b835161038481610350565b602085015190935061039581610350565b60408501519092506103a681610350565b809150509250925092565b5f81518060208401855e5f93019283525090919050565b7f62616c616e6365722d6c6162732e76332e73746f726167652e0000000000000081525f6103f960198301856103b1565b601760f91b815261040d60018201856103b1565b95945050505050565b8181038181111561030157634e487b7160e01b5f52601160045260245ffd5b634e487b7160e01b5f52604160045260245ffd5b600181811c9082168061045d57607f821691505b60208210810361047b57634e487b7160e01b5f52602260045260245ffd5b50919050565b601f8211156104c857805f5260205f20601f840160051c810160208510156104a65750805b601f840160051c820191505b818110156104c5575f81556001016104b2565b50505b505050565b81516001600160401b038111156104e6576104e6610435565b6104fa816104f48454610449565b84610481565b6020601f82116001811461052c575f83156105155750848201515b5f19600385901b1c1916600184901b1784556104c5565b5f84815260208120601f198516915b8281101561055b578785015182556020948501946001909201910161053b565b508482101561057857868401515f19600387901b60f8161c191681555b50505050600190811b01905550565b60805160a05160c05160e05161010051610120516101405161016051610180516101a0516101c051614f956107815f395f61159801525f610fc801525f6112f101525f61149f01525f61147b01525f818161042101528181610a1c0152818161141a015281816116100152818161169b01528181611a8801528181611e2a015281816126bd01528181612fd401528181613123015281816132a50152818161385a01526139a001525f81816102070152818161122c01528181612423015281816127f401526133aa01525f8181610101015281816101ac01528181611ab801528181611c3401528181611c720152818161239701526123d501525f6114c301525f81816103060152818161049b0152818161064a015281816108bd01528181610bbf01528181610cfd01528181611b1901528181611c9301528181611cd0015281816123f601528181612453015281816124dd0152818161257c015281816126f801528181612787015281816128bd0152818161294401528181612a7501528181612ac301528181612bb001528181612c3c0152818161301b0152818161319a01528181613228015281816132e00152818161336f015281816134410152818161359a015281816135d601528181613671015281816136bf015281816137cc0152818161389f0152613b6201525f6114570152614f955ff3fe6080604052600436106100f1575f3560e01c806308a465f6146101455780630f8fb1cc1461017c578063107c279f1461019e57806319c6989f146101d95780631bbf2e23146101f9578063286f580d1461022b5780632950286e1461023e57806348bbd8691461025d57806354fd4d50146102715780635a3c3987146102925780635e01eb5a146102b15780638a12a08c146102c55780638c824cd9146102e45780638d928af8146102f85780638eb1b65e1461032a578063945ed33f1461033d578063961234061461035c578063ac9650d814610370578063cd791ccc14610383578063e3b5dff414610397575f5ffd5b3661014157336001600160a01b037f0000000000000000000000000000000000000000000000000000000000000000161461013f576040516302a06efb60e11b815260040160405180910390fd5b005b5f5ffd5b348015610150575f5ffd5b5061016461015f366004613d08565b6103b6565b60405161017393929190613d88565b60405180910390f35b348015610187575f5ffd5b5061019061040f565b604051908152602001610173565b3480156101a9575f5ffd5b507f00000000000000000000000000000000000000000000000000000000000000005b6040516101739190613df1565b6101ec6101e7366004613ed9565b61041d565b6040516101739190613ffc565b348015610204575f5ffd5b507f00000000000000000000000000000000000000000000000000000000000000006101cc565b6101646102393660046142da565b610487565b348015610249575f5ffd5b5061016461025836600461435c565b6105f7565b348015610268575f5ffd5b506101906107a6565b34801561027c575f5ffd5b506102856107af565b60405161017391906143d3565b34801561029d575f5ffd5b506101646102ac366004613d08565b61083e565b3480156102bc575f5ffd5b506101cc61086b565b3480156102d0575f5ffd5b506101646102df366004613d08565b61087b565b3480156102ef575f5ffd5b50610190610899565b348015610303575f5ffd5b507f00000000000000000000000000000000000000000000000000000000000000006101cc565b6101646103383660046142da565b6108a9565b348015610348575f5ffd5b50610164610357366004613d08565b6109a8565b348015610367575f5ffd5b506101906109c6565b6101ec61037e3660046143e5565b6109d0565b34801561038e575f5ffd5b50610190610b6c565b3480156103a2575f5ffd5b506101646103b136600461435c565b610b75565b60608060606103c3610cab565b6103cb610cf2565b6103d484610d46565b919450925090506104006103eb6020860186614423565b6103fb608087016060880161443e565b610e9c565b610408610faf565b9193909250565b5f610418610fc6565b905090565b60607f00000000000000000000000000000000000000000000000000000000000000001561045e576040516329a270f560e01b815260040160405180910390fd5b61046d8a8a8a8a8a8a8a610fea565b61047783836109d0565b90505b9998505050505050505050565b6060806060335f610497826112a6565b90507f00000000000000000000000000000000000000000000000000000000000000006001600160a01b03166348c894916040518060a00160405280336001600160a01b031681526020018d81526020018c81526020018b151581526020018a8a8080601f0160208091040260200160405190810160405280939291908181526020018383808284375f92019190915250505091525060405161053d91906024016144f5565b60408051601f198184030181529181526020820180516001600160e01b031663045232fb60e11b179052516001600160e01b031960e084901b16815261058691906004016143d3565b5f604051808303815f875af11580156105a1573d5f5f3e3d5ffd5b505050506040513d5f823e601f3d908101601f191682016040526105c8919081019061460e565b8060200190518101906105db91906146a4565b9450945094506105ea816112da565b5050955095509592505050565b6060806060855f610607826112a6565b90505f5b8951811015610647576001600160801b0380168a828151811061063057610630614793565b60209081029190910101516040015260010161060b565b507f00000000000000000000000000000000000000000000000000000000000000006001600160a01b031663edfa35686040518060a00160405280306001600160a01b031681526020018c81526020015f1981526020015f151581526020018a8a8080601f0160208091040260200160405190810160405280939291908181526020018383808284375f9201919091525050509152506040516106ed91906024016147a7565b60408051601f198184030181529181526020820180516001600160e01b0316635a3c398760e01b179052516001600160e01b031960e084901b16815261073691906004016143d3565b5f604051808303815f875af1158015610751573d5f5f3e3d5ffd5b505050506040513d5f823e601f3d908101601f19168201604052610778919081019061460e565b80602001905181019061078b91906146a4565b94509450945061079a816112da565b50509450945094915050565b5f6104186112ef565b60605f80546107bd90614818565b80601f01602080910402602001604051908101604052809291908181526020018280546107e990614818565b80156108345780601f1061080b57610100808354040283529160200191610834565b820191905f5260205f20905b81548152906001019060200180831161081757829003601f168201915b5050505050905090565b606080606061084b610cab565b610853610cf2565b61085c84611313565b91945092509050610408610faf565b5f610418610877611455565b5c90565b6060806060610888610cab565b610890610cf2565b61085c84610d46565b5f5f6108a3611479565b92915050565b6060806060335f6108b9826112a6565b90507f00000000000000000000000000000000000000000000000000000000000000006001600160a01b03166348c894916040518060a00160405280336001600160a01b031681526020018d81526020018c81526020018b151581526020018a8a8080601f0160208091040260200160405190810160405280939291908181526020018383808284375f92019190915250505091525060405161095f91906024016147a7565b60408051601f198184030181529181526020820180516001600160e01b031663945ed33f60e01b179052516001600160e01b031960e084901b16815261058691906004016143d3565b60608060606109b5610cab565b6109bd610cf2565b6103d484611313565b5f5f6108a361149d565b60605f6109dc336112a6565b90506109e96108776114c1565b15610a0757604051633ee5aeb560e01b815260040160405180910390fd5b610a1a6001610a146114c1565b906114e5565b7f000000000000000000000000000000000000000000000000000000000000000015610a59576040516329a270f560e01b815260040160405180910390fd5b826001600160401b03811115610a7157610a7161405f565b604051908082528060200260200182016040528015610aa457816020015b6060815260200190600190039081610a8f5790505b5091505f5b83811015610b3757610b1230868684818110610ac757610ac7614793565b9050602002810190610ad9919061484a565b8080601f0160208091040260200160405190810160405280939291908181526020018383808284375f920191909152506114ec92505050565b838281518110610b2457610b24614793565b6020908102919091010152600101610aa9565b50610b445f610a146114c1565b5f610b50610877611455565b9050610b5b826112da565b610b648161155e565b505092915050565b5f610418611596565b6060806060855f610b85826112a6565b90505f5b8951811015610bbc575f8a8281518110610ba557610ba5614793565b602090810291909101015160600152600101610b89565b507f00000000000000000000000000000000000000000000000000000000000000006001600160a01b031663edfa35686040518060a00160405280306001600160a01b031681526020018c81526020015f1981526020015f151581526020018a8a8080601f0160208091040260200160405190810160405280939291908181526020018383808284375f920191909152505050915250604051610c6291906024016144f5565b60408051601f198184030181529181526020820180516001600160e01b0316632284a82360e21b179052516001600160e01b031960e084901b16815261073691906004016143d3565b5f516020614f405f395f51905f525c15610cd857604051633ee5aeb560e01b815260040160405180910390fd5b610cf060015f516020614f405f395f51905f52610a14565b565b336001600160a01b037f00000000000000000000000000000000000000000000000000000000000000001614610cf0573360405163089676d560e01b8152600401610d3d9190613df1565b60405180910390fd5b60608060608360400135421115610d7057604051630e08b8af60e41b815260040160405180910390fd5b610d79846115ba565b9250610d8b610d8661149d565b61199f565b915081516001600160401b03811115610da657610da661405f565b604051908082528060200260200182016040528015610dcf578160200160208202803683370190505b5090505f5b8251811015610e94575f610e09848381518110610df357610df3614793565b6020026020010151610e03611596565b90611a40565b905080610e31858481518110610e2157610e21614793565b6020026020010151610e03610fc6565b610e3b91906148a0565b838381518110610e4d57610e4d614793565b60209081029190910101528015610e8b57610e8b848381518110610e7357610e73614793565b60200260200101515f610e84611596565b9190611a5b565b50600101610dd4565b509193909250565b5f610ead610ea8611479565b611a71565b90505f610ebb610ea861149d565b90505f610ec96001846148b3565b90505b5f8112610f36575f610ee682610ee0611479565b90611a7b565b90505f610ef582610e036112ef565b9050610f0387878484611a86565b610f10825f610e846112ef565b610f2282610f1c611479565b90611b97565b50505080610f2f906148d2565b9050610ecc565b505f610f436001836148b3565b90505b5f8112610f9f575f610f5a82610ee061149d565b9050610f738682610f6d84610e03610fc6565b88611c24565b610f80815f610e84610fc6565b610f8c81610f1c61149d565b505080610f98906148d2565b9050610f46565b50610fa98461155e565b50505050565b610cf05f5f516020614f405f395f51905f52610a14565b7f000000000000000000000000000000000000000000000000000000000000000090565b610ff2610cab565b610ffc8685611d3c565b5f5b86811015611201575f86868381811061101957611019614793565b905060200281019061102b919061484a565b8080601f0160208091040260200160405190810160405280939291908181526020018383808284375f92018290525093945061106c9250849150611d5c9050565b90505f8a8a8581811061108157611081614793565b905060c0020180360381019061109791906148ed565b8051602080830151606084015160a08501516040808901518951958a0151915163d505accf60e01b81526001600160a01b0395861660048201523060248201526044810194909452606484019290925260ff909116608483015260a482019390935260c481019290925292935091169063d505accf9060e4015f604051808303815f87803b158015611127575f5ffd5b505af1925050508015611138575060015b6111f3573d808015611165576040519150601f19603f3d011682016040523d82523d5f602084013e61116a565b606091505b50606082015182516020840151604051636eb1769f60e11b81526001600160a01b039092169163dd62ed3e916111a491309060040161497e565b602060405180830381865afa1580156111bf573d5f5f3e3d5ffd5b505050506040513d601f19601f820116820180604052508101906111e39190614998565b146111f1576111f181611dab565b505b505050806001019050610ffe565b505f61120d84806149af565b9050111561129557604051632a2d80d160e01b81526001600160a01b037f00000000000000000000000000000000000000000000000000000000000000001690632a2d80d190611267903390879087908790600401614a31565b5f604051808303815f87803b15801561127e575f5ffd5b505af1158015611290573d5f5f3e3d5ffd5b505050505b61129d610faf565b50505050505050565b5f5f6112b3610877611455565b90506001600160a01b0381166112d4576112cf83610a14611455565b600191505b50919050565b80156112ec576112ec5f610a14611455565b50565b7f000000000000000000000000000000000000000000000000000000000000000090565b6060806060836040013542111561133d57604051630e08b8af60e41b815260040160405180910390fd5b61134684611dd4565b9250611353610d86611479565b915081516001600160401b0381111561136e5761136e61405f565b604051908082528060200260200182016040528015611397578160200160208202803683370190505b5090505f5b8251811015610e94575f8382815181106113b8576113b8614793565b602002602001015190505f6113cf82610e03611596565b9050806113de83610e036112ef565b6113e891906148a0565b8484815181106113fa576113fa614793565b6020908102919091010152801561141857611418825f610e84611596565b7f00000000000000000000000000000000000000000000000000000000000000001561144b5761144b825f610e846112ef565b505060010161139c565b7f000000000000000000000000000000000000000000000000000000000000000090565b7f000000000000000000000000000000000000000000000000000000000000000090565b7f000000000000000000000000000000000000000000000000000000000000000090565b7f000000000000000000000000000000000000000000000000000000000000000090565b80825d5050565b60605f5f846001600160a01b0316846040516115089190614b66565b5f60405180830381855af49150503d805f8114611540576040519150601f19603f3d011682016040523d82523d5f602084013e611545565b606091505b50915091506115558583836121a3565b95945050505050565b475f81900361156b575050565b6115766108776114c1565b1561157f575050565b6115926001600160a01b038316826121ef565b5050565b7f000000000000000000000000000000000000000000000000000000000000000090565b60606115c96020830183614b7c565b90506001600160401b038111156115e2576115e261405f565b60405190808252806020026020018201604052801561160b578160200160208202803683370190505b5090507f00000000000000000000000000000000000000000000000000000000000000001561163d5761163d82612289565b5f5b61164c6020840184614b7c565b90508110156112d4575f6116636020850185614b7c565b8381811061167357611673614793565b90506020028101906116859190614bc1565b61168e90614bdf565b60408101518151919250907f000000000000000000000000000000000000000000000000000000000000000015155f036117475782602001515f815181106116d8576116d8614793565b60200260200101516040015180156116ef57503215155b156117205761171b6117046020880188614423565b828461171660808b0160608c0161443e565b61238d565b611747565b6117328161172c611479565b90612516565b5061174781836117406112ef565b9190612554565b5f5b836020015151811015611990575f60018560200151516117699190614bea565b8214905081155f8261177b575f611781565b86606001515b90505f5f8860200151868151811061179b5761179b614793565b602002602001015190508060400151156117cb576117c4815f01518883602001518b878a612579565b915061194b565b805f01516001600160a01b0316876001600160a01b03160361185d576117c46117f760808e018e61484a565b8080601f0160208091040260200160405190810160405280939291908181526020018383808284375f81840152601f19601f820116905080830192505050505050508d5f01602081019061184b9190614423565b835160208501518b908d898b8d612697565b805f01516001600160a01b031681602001516001600160a01b0316036118f2576117c461188d60808e018e61484a565b8080601f0160208091040260200160405190810160405280939291908181526020018383808284375f81840152601f19601f820116905080830192505050505050508d5f0160208101906118e19190614423565b835160208501518b908d898c612a62565b61194861190260808e018e61484a565b8080601f0160208091040260200160405190810160405280939291908181526020018383808284375f9201919091525050845160208601519092508b91508c888b612c39565b91505b841561197557818b8b8151811061196457611964614793565b602002602001018181525050611980565b819750806020015196505b5050505050806001019050611749565b5050505080600101905061163f565b60605f6119ab83612d44565b9050806001600160401b038111156119c5576119c561405f565b6040519080825280602002602001820160405280156119ee578160200160208202803683370190505b5091505f5b81811015611a3957611a0781855b90612d4c565b838281518110611a1957611a19614793565b6001600160a01b03909216602092830291909101909101526001016119f3565b5050919050565b5f611a54610877611a518585612d6a565b90565b9392505050565b611a6c81610a14611a518686612d6a565b505050565b5f6108a382612d44565b5f611a548284611a01565b7f00000000000000000000000000000000000000000000000000000000000000001580611aec5750828015611aec57507f00000000000000000000000000000000000000000000000000000000000000006001600160a01b0316826001600160a01b0316145b15611b0257611afd8483838661238d565b610fa9565b6040516315afd40960e01b81526001600160a01b037f000000000000000000000000000000000000000000000000000000000000000016906315afd40990611b509085908590600401614bfd565b6020604051808303815f875af1158015611b6c573d5f5f3e3d5ffd5b505050506040513d601f19601f82011682018060405250810190611b909190614998565b5050505050565b5f80611ba68360018601610e03565b90508015611c14575f1981015f6001611bbe87612d44565b039050808214611bf0575f611bd38783612d7b565b9050611be0878483612d9f565b611bee818560018a01610e84565b505b611bf986612dc3565b50611c08855f60018901610e84565b600193505050506108a3565b5f9150506108a3565b5092915050565b8115610fa957808015611c6857507f00000000000000000000000000000000000000000000000000000000000000006001600160a01b0316836001600160a01b0316145b15611cb957611afd7f00000000000000000000000000000000000000000000000000000000000000007f00000000000000000000000000000000000000000000000000000000000000008685612e04565b60405163ae63932960e01b81526001600160a01b037f0000000000000000000000000000000000000000000000000000000000000000169063ae63932990611d0990869088908790600401614c16565b5f604051808303815f87803b158015611d20575f5ffd5b505af1158015611d32573d5f5f3e3d5ffd5b5050505050505050565b8082146115925760405163aaad13f760e01b815260040160405180910390fd5b611d8060405180606001604052805f81526020015f81526020015f60ff1681525090565b602082810151604080850151606090950151918452918301939093525f9290921a9181019190915290565b805115611dbb5780518082602001fd5b60405163a728568960e01b815260040160405180910390fd5b6060611de36020830183614b7c565b90506001600160401b03811115611dfc57611dfc61405f565b604051908082528060200260200182016040528015611e25578160200160208202803683370190505b5090507f000000000000000000000000000000000000000000000000000000000000000015611e5757611e5782612eca565b5f5b611e666020840184614b7c565b90508110156112d4575f611e7d6020850185614b7c565b83818110611e8d57611e8d614793565b9050602002810190611e9f9190614bc1565b611ea890614bdf565b6060810151815191925090611ebf9061172c611479565b505f6001836020015151611ed39190614bea565b90505b5f8112612195575f83602001518281518110611ef457611ef4614793565b602002602001015190505f825f1490505f6001866020015151611f179190614bea565b841490508015611f2f57611f2f836020015186612fb7565b5f5f8315611f4557505060408601518651611f7e565b60208801516001600160801b039250611f5f6001886148b3565b81518110611f6f57611f6f614793565b60200260200101516020015190505b5f856040015115611fc757611fc0611f9960208e018e614423565b8d6060016020810190611fac919061443e565b88518c5160408e015187908e908a8d612fd1565b9050612150565b855f01516001600160a01b0316826001600160a01b03160361205957611fc0611ff360808e018e61484a565b8080601f0160208091040260200160405190810160405280939291908181526020018383808284375f81840152601f19601f820116905080830192505050505050508d5f0160208101906120479190614423565b885f0151858c888c602001518c613179565b855f01516001600160a01b031686602001516001600160a01b0316036120ef57611fc061208960808e018e61484a565b8080601f0160208091040260200160405190810160405280939291908181526020018383808284375f81840152601f19601f820116905080830192505050505050508d5f0160208101906120dd9190614423565b885160208a015186908d898b8d61365d565b61214d6120ff60808e018e61484a565b8080601f0160208091040260200160405190810160405280939291908181526020018383808284375f9201919091525050895160208b015160408f0151919350879250908d9089908c61389c565b90505b841561217a57808b8b8151811061216957612169614793565b60200260200101818152505061217e565b8097505b5050505050508061218e906148d2565b9050611ed6565b505050806001019050611e59565b6060826121b8576121b3826139d2565b611a54565b81511580156121cf57506001600160a01b0384163b155b15611c1d5783604051639996b31560e01b8152600401610d3d9190613df1565b804710156122195760405163cf47918160e01b815247600482015260248101829052604401610d3d565b5f826001600160a01b0316826040515f6040518083038185875af1925050503d805f8114612262576040519150601f19603f3d011682016040523d82523d5f602084013e612267565b606091505b5050905080611a6c5760405163d6bda27560e01b815260040160405180910390fd5b5f5b6122986020830183614b7c565b9050811015612309575f6122af6020840184614b7c565b838181106122bf576122bf614793565b90506020028101906122d19190614bc1565b6122da90614bdf565b90506122eb815f015161172c611479565b50612300815f015182604001516117406112ef565b5060010161228b565b505f612316610d86611479565b90505f5b8151811015611a6c575f82828151811061233657612336614793565b602002602001015190505f61234d82610e036112ef565b905061237661235f6020870187614423565b61236f608088016060890161443e565b8484611a86565b612383825f610e846112ef565b505060010161231a565b8080156123cb57507f00000000000000000000000000000000000000000000000000000000000000006001600160a01b0316836001600160a01b0316145b1561241b57611afd7f00000000000000000000000000000000000000000000000000000000000000007f0000000000000000000000000000000000000000000000000000000000000000846139fb565b8115610fa9577f00000000000000000000000000000000000000000000000000000000000000006001600160a01b03166336c78516857f000000000000000000000000000000000000000000000000000000000000000061247b86613af0565b876040518563ffffffff1660e01b815260040161249b9493929190614c3a565b5f604051808303815f87803b1580156124b2575f5ffd5b505af11580156124c4573d5f5f3e3d5ffd5b50506040516315afd40960e01b81526001600160a01b037f00000000000000000000000000000000000000000000000000000000000000001692506315afd4099150611b509086908690600401614bfd565b5f6125218383613afa565b61254d5761252f8383613b11565b6125458261253c85612d44565b60018601610e84565b5060016108a3565b505f6108a3565b611a6c816125628585611a40565b61256c91906148a0565b610a14611a518686612d6a565b5f7f00000000000000000000000000000000000000000000000000000000000000006001600160a01b03166343583be56040518060a001604052805f60018111156125c6576125c6614c65565b8152602001896001600160a01b03168b6001600160a01b0316146125ea575f6125ed565b60015b60018111156125fe576125fe614c65565b81526020018a6001600160a01b03168152602001878152602001868152506040518263ffffffff1660e01b81526004016126389190614c89565b6060604051808303815f875af1158015612654573d5f5f3e3d5ffd5b505050506040513d601f19601f820116820180604052508101906126789190614cdc565b9250508215905061268d5761268d8582612fb7565b9695505050505050565b5f82156128a6575f851180156126b657506001600160a01b0389163014155b1561287a577f0000000000000000000000000000000000000000000000000000000000000000156127f2576040516315afd40960e01b81526001600160a01b037f000000000000000000000000000000000000000000000000000000000000000016906315afd4099061272f908a908990600401614bfd565b6020604051808303815f875af115801561274b573d5f5f3e3d5ffd5b505050506040513d601f19601f8201168201806040525081019061276f9190614998565b5060405163ae63932960e01b81526001600160a01b037f0000000000000000000000000000000000000000000000000000000000000000169063ae639329906127c0908a9030908a90600401614c16565b5f604051808303815f87803b1580156127d7575f5ffd5b505af11580156127e9573d5f5f3e3d5ffd5b5050505061287a565b7f00000000000000000000000000000000000000000000000000000000000000006001600160a01b03166336c785168a3061282c89613af0565b8b6040518563ffffffff1660e01b815260040161284c9493929190614c3a565b5f604051808303815f87803b158015612863575f5ffd5b505af1158015612875573d5f5f3e3d5ffd5b505050505b5f61288788610e036112ef565b11156128a1576128a1878661289a6112ef565b9190613b44565b612924565b60405163ae63932960e01b81526001600160a01b037f0000000000000000000000000000000000000000000000000000000000000000169063ae639329906128f6908b9030908a90600401614c16565b5f604051808303815f87803b15801561290d575f5ffd5b505af115801561291f573d5f5f3e3d5ffd5b505050505b5f8061293e8a8988156129375788613b5c565b6001613b5c565b915091507f00000000000000000000000000000000000000000000000000000000000000006001600160a01b031663214578976040518060c001604052808d6001600160a01b03168152602001306001600160a01b031681526020018a8152602001858152602001600160038111156129b9576129b9614c65565b81526020018f8152506040518263ffffffff1660e01b81526004016129de9190614d07565b5f604051808303815f875af11580156129f9573d5f5f3e3d5ffd5b505050506040513d5f823e601f3d908101601f19168201604052612a209190810190614d89565b50805190935083915082908110612a3957612a39614793565b602002602001015192508315612a5357612a538884612fb7565b50509998505050505050505050565b5f5f612a6f888887613b5c565b5090505f7f00000000000000000000000000000000000000000000000000000000000000006001600160a01b0316634af29ec46040518060c001604052808c6001600160a01b0316815260200187612ae7577f0000000000000000000000000000000000000000000000000000000000000000612ae9565b8d5b6001600160a01b031681526020810186905260408101899052606001600181526020018e8152506040518263ffffffff1660e01b8152600401612b2c9190614ded565b5f604051808303815f875af1158015612b47573d5f5f3e3d5ffd5b505050506040513d5f823e601f3d908101601f19168201604052612b6e9190810190614e4b565b509150508315612b995786612b858161172c61149d565b50612b938183611740611596565b50612c29565b6040516315afd40960e01b81526001600160a01b037f000000000000000000000000000000000000000000000000000000000000000016906315afd40990612be7908c908590600401614bfd565b6020604051808303815f875af1158015612c03573d5f5f3e3d5ffd5b505050506040513d601f19601f82011682018060405250810190612c279190614998565b505b9150505b98975050505050505050565b5f7f00000000000000000000000000000000000000000000000000000000000000006001600160a01b0316632bfb780c6040518060e001604052805f6001811115612c8657612c86614c65565b81526020018a6001600160a01b03168152602001896001600160a01b03168152602001886001600160a01b031681526020018781526020018681526020018b8152506040518263ffffffff1660e01b8152600401612ce49190614ea2565b6060604051808303815f875af1158015612d00573d5f5f3e3d5ffd5b505050506040513d601f19601f82011682018060405250810190612d249190614cdc565b92505082159050612d3957612d398582612fb7565b979650505050505050565b5f815c6108a3565b5f611a54610877611a5184612d66875f9081526020902090565b0190565b5f9081526020919091526040902090565b5f612d868383613c5c565b611a54610877611a5184612d66875f9081526020902090565b612da98383613c5c565b611a6c81610a14611a5185612d66885f9081526020902090565b5f80612dd16001845c614bea565b9050612ddd8184610a14565b5f612df4611a5183612d66875f9081526020902090565b9050805c9250611a39815f6114e5565b60405163ae63932960e01b81526001600160a01b0384169063ae63932990612e3490879030908690600401614c16565b5f604051808303815f87803b158015612e4b575f5ffd5b505af1158015612e5d573d5f5f3e3d5ffd5b5050604051632e1a7d4d60e01b8152600481018490526001600160a01b0387169250632e1a7d4d91506024015f604051808303815f87803b158015612ea0575f5ffd5b505af1158015612eb2573d5f5f3e3d5ffd5b50610fa9925050506001600160a01b038316826121ef565b5f5b612ed96020830183614b7c565b9050811015612f4a575f612ef06020840184614b7c565b83818110612f0057612f00614793565b9050602002810190612f129190614bc1565b612f1b90614bdf565b9050612f2c815f015161172c611479565b50612f41815f015182604001516117406112ef565b50600101612ecc565b505f612f57610d86611479565b90505f5b8151811015611a6c575f828281518110612f7757612f77614793565b602002602001015190505f612f8e82610e036112ef565b9050612fa061235f6020870187614423565b612fad825f610e846112ef565b5050600101612f5b565b612fc38261172c61149d565b506115928282611740610fc6565b5f7f0000000000000000000000000000000000000000000000000000000000000000158015612ffd5750815b801561300857503215155b15613019576130198a87868c61238d565b7f00000000000000000000000000000000000000000000000000000000000000006001600160a01b03166343583be56040518060a0016040528060018081111561306557613065614c65565b8152602001896001600160a01b03168c6001600160a01b031614613089575f61308c565b60015b600181111561309d5761309d614c65565b81526020018b6001600160a01b03168152602001888152602001868152506040518263ffffffff1660e01b81526004016130d79190614c89565b6060604051808303815f875af11580156130f3573d5f5f3e3d5ffd5b505050506040513d601f19601f820116820180604052508101906131179190614cdc565b50915050811561047a577f0000000000000000000000000000000000000000000000000000000000000000156131595761315487826117406112ef565b613166565b6131668782611740611596565b61047a866131748386614bea565b612fb7565b5f811515810361329357604051634b3c384960e11b81526001600160a01b037f000000000000000000000000000000000000000000000000000000000000000016906396787092906131cf908990600401613df1565b602060405180830381865afa1580156131ea573d5f5f3e3d5ffd5b505050506040513d601f19601f8201168201806040525081019061320e9190614998565b60405163ae63932960e01b81529094506001600160a01b037f0000000000000000000000000000000000000000000000000000000000000000169063ae63932990613261908a9030908990600401614c16565b5f604051808303815f87803b158015613278575f5ffd5b505af115801561328a573d5f5f3e3d5ffd5b50505050613430565b6001600160a01b0388163014613430577f0000000000000000000000000000000000000000000000000000000000000000156133a8576040516315afd40960e01b81526001600160a01b037f000000000000000000000000000000000000000000000000000000000000000016906315afd409906133179089908890600401614bfd565b6020604051808303815f875af1158015613333573d5f5f3e3d5ffd5b505050506040513d601f19601f820116820180604052508101906133579190614998565b5060405163ae63932960e01b81526001600160a01b037f0000000000000000000000000000000000000000000000000000000000000000169063ae6393299061326190899030908990600401614c16565b7f00000000000000000000000000000000000000000000000000000000000000006001600160a01b03166336c7851689306133e288613af0565b8a6040518563ffffffff1660e01b81526004016134029493929190614c3a565b5f604051808303815f87803b158015613419575f5ffd5b505af115801561342b573d5f5f3e3d5ffd5b505050505b5f61343c888588613b5c565b5090507f00000000000000000000000000000000000000000000000000000000000000006001600160a01b031663214578976040518060c001604052808b6001600160a01b03168152602001306001600160a01b03168152602001888152602001848152602001600260038111156134b6576134b6614c65565b81526020018d8152506040518263ffffffff1660e01b81526004016134db9190614d07565b5f604051808303815f875af11580156134f6573d5f5f3e3d5ffd5b505050506040513d5f823e601f3d908101601f1916820160405261351d9190810190614d89565b50909250508215613576576135358783611740611596565b848210801561354d57506001600160a01b0389163014155b1561357157613571896135608488614bea565b6001600160a01b038a169190613c7e565b613650565b84821015613650575f6135898387614bea565b90506135bf6001600160a01b0389167f000000000000000000000000000000000000000000000000000000000000000083613c7e565b6040516315afd40960e01b81526001600160a01b037f000000000000000000000000000000000000000000000000000000000000000016906315afd4099061360d908b908590600401614bfd565b6020604051808303815f875af1158015613629573d5f5f3e3d5ffd5b505050506040513d601f19601f8201168201806040525081019061364d9190614998565b50505b5098975050505050505050565b5f5f5f61366b8a8a88613b5c565b915091507f00000000000000000000000000000000000000000000000000000000000000006001600160a01b0316634af29ec46040518060c001604052808d6001600160a01b03168152602001886136e3577f00000000000000000000000000000000000000000000000000000000000000006136e5565b8e5b6001600160a01b0316815260208101869052604081018b9052606001600281526020018f8152506040518263ffffffff1660e01b81526004016137289190614ded565b5f604051808303815f875af1158015613743573d5f5f3e3d5ffd5b505050506040513d5f823e601f3d908101601f1916820160405261376a9190810190614e4b565b9050508092505081818151811061378357613783614793565b602002602001015192505f84613799578361379b565b875b905085156137b5576137b0898261289a610fc6565b613845565b6040516315afd40960e01b81526001600160a01b037f000000000000000000000000000000000000000000000000000000000000000016906315afd40990613803908e908590600401614bfd565b6020604051808303815f875af115801561381f573d5f5f3e3d5ffd5b505050506040513d601f19601f820116820180604052508101906138439190614998565b505b841561388c576138588a856117406112ef565b7f00000000000000000000000000000000000000000000000000000000000000001561388c5761388c8a613174868a614bea565b5050509998505050505050505050565b5f7f00000000000000000000000000000000000000000000000000000000000000006001600160a01b0316632bfb780c6040518060e001604052806001808111156138e9576138e9614c65565b81526020018b6001600160a01b031681526020018a6001600160a01b03168152602001896001600160a01b031681526020018881526020018781526020018c8152506040518263ffffffff1660e01b81526004016139479190614ea2565b6060604051808303815f875af1158015613963573d5f5f3e3d5ffd5b505050506040513d601f19601f820116820180604052508101906139879190614cdc565b509150508115612c2d5761399e87826117406112ef565b7f000000000000000000000000000000000000000000000000000000000000000015612c2d57612c2d876131748386614bea565b8051156139e25780518082602001fd5b60405163d6bda27560e01b815260040160405180910390fd5b80471015613a1c5760405163500d4efb60e11b815260040160405180910390fd5b826001600160a01b031663d0e30db0826040518263ffffffff1660e01b81526004015f604051808303818588803b158015613a55575f5ffd5b505af1158015613a67573d5f5f3e3d5ffd5b50613a82935050506001600160a01b03851690508383613c7e565b6040516315afd40960e01b81526001600160a01b038316906315afd40990613ab09086908590600401614bfd565b6020604051808303815f875af1158015613acc573d5f5f3e3d5ffd5b505050506040513d601f19601f82011682018060405250810190610fa99190614998565b5f6108a382613c89565b5f613b088260018501610e03565b15159392505050565b5f825c9050613b3082610a14611a5184612d66885f9081526020902090565b611a6c613b3e8260016148a0565b84610a14565b611a6c81613b528585611a40565b61256c9190614bea565b60605f5f7f00000000000000000000000000000000000000000000000000000000000000006001600160a01b031663c9c1661b87876040518363ffffffff1660e01b8152600401613bae92919061497e565b6040805180830381865afa158015613bc8573d5f5f3e3d5ffd5b505050506040513d601f19601f82011682018060405250810190613bec9190614f1d565b92509050806001600160401b03811115613c0857613c0861405f565b604051908082528060200260200182016040528015613c31578160200160208202803683370190505b50925083838381518110613c4757613c47614793565b60200260200101818152505050935093915050565b815c808210611a6c576040516303d2b83960e21b815260040160405180910390fd5b611a6c838383613ca1565b5f600160a01b8210613c9d57613c9d613ceb565b5090565b816014528060345263a9059cbb60601b5f5260205f604460105f875af18060015f511416613ce157803d853b151710613ce1576390b8ec185f526004601cfd5b505f603452505050565b6335278d125f526004601cfd5b5f60a082840312156112d4575f5ffd5b5f60208284031215613d18575f5ffd5b81356001600160401b03811115613d2d575f5ffd5b613d3984828501613cf8565b949350505050565b5f8151808452602084019350602083015f5b82811015613d71578151865260209586019590910190600101613d53565b5093949350505050565b6001600160a01b03169052565b606081525f613d9a6060830186613d41565b82810360208401528085518083526020830191506020870192505f5b81811015613ddd5783516001600160a01b0316835260209384019390920191600101613db6565b50508381036040850152612d398186613d41565b6001600160a01b0391909116815260200190565b5f5f83601f840112613e15575f5ffd5b5081356001600160401b03811115613e2b575f5ffd5b60208301915083602060c083028501011115613e45575f5ffd5b9250929050565b5f5f83601f840112613e5c575f5ffd5b5081356001600160401b03811115613e72575f5ffd5b6020830191508360208260051b8501011115613e45575f5ffd5b5f606082840312156112d4575f5ffd5b5f5f83601f840112613eac575f5ffd5b5081356001600160401b03811115613ec2575f5ffd5b602083019150836020828501011115613e45575f5ffd5b5f5f5f5f5f5f5f5f5f60a08a8c031215613ef1575f5ffd5b89356001600160401b03811115613f06575f5ffd5b613f128c828d01613e05565b909a5098505060208a01356001600160401b03811115613f30575f5ffd5b613f3c8c828d01613e4c565b90985096505060408a01356001600160401b03811115613f5a575f5ffd5b613f668c828d01613e8c565b95505060608a01356001600160401b03811115613f81575f5ffd5b613f8d8c828d01613e9c565b90955093505060808a01356001600160401b03811115613fab575f5ffd5b613fb78c828d01613e4c565b915080935050809150509295985092959850929598565b5f81518084528060208401602086015e5f602082860101526020601f19601f83011685010191505092915050565b5f602082016020835280845180835260408501915060408160051b8601019250602086015f5b8281101561405357603f1987860301845261403e858351613fce565b94506020938401939190910190600101614022565b50929695505050505050565b634e487b7160e01b5f52604160045260245ffd5b604051608081016001600160401b03811182821017156140955761409561405f565b60405290565b604051606081016001600160401b03811182821017156140955761409561405f565b604051601f8201601f191681016001600160401b03811182821017156140e5576140e561405f565b604052919050565b5f6001600160401b038211156141055761410561405f565b5060051b60200190565b6001600160a01b03811681146112ec575f5ffd5b803561412e8161410f565b919050565b8035801515811461412e575f5ffd5b5f60808284031215614152575f5ffd5b61415a614073565b905081356141678161410f565b815260208201356001600160401b03811115614181575f5ffd5b8201601f81018413614191575f5ffd5b80356141a461419f826140ed565b6140bd565b808282526020820191506020606084028501019250868311156141c5575f5ffd5b6020840193505b8284101561423057606084880312156141e3575f5ffd5b6141eb61409b565b84356141f68161410f565b815260208501356142068161410f565b602082015261421760408601614133565b60408201528252606093909301926020909101906141cc565b60208501525050506040828101359082015260609182013591810191909152919050565b5f82601f830112614263575f5ffd5b8135602083015f61427661419f846140ed565b83815260059390931b82019290506020810186841115614294575f5ffd5b825b848110156142ce5780356001600160401b038111156142b3575f5ffd5b6142bf89828701614142565b83525060209182019101614296565b50909695505050505050565b5f5f5f5f5f608086880312156142ee575f5ffd5b85356001600160401b03811115614303575f5ffd5b61430f88828901614254565b9550506020860135935061432560408701614133565b925060608601356001600160401b0381111561433f575f5ffd5b61434b88828901613e9c565b969995985093965092949392505050565b5f5f5f5f6060858703121561436f575f5ffd5b84356001600160401b03811115614384575f5ffd5b61439087828801614254565b94505060208501356143a18161410f565b925060408501356001600160401b038111156143bb575f5ffd5b6143c787828801613e9c565b95989497509550505050565b602081525f611a546020830184613fce565b5f5f602083850312156143f6575f5ffd5b82356001600160401b0381111561440b575f5ffd5b61441785828601613e4c565b90969095509350505050565b5f60208284031215614433575f5ffd5b8135611a548161410f565b5f6020828403121561444e575f5ffd5b611a5482614133565b80516001600160a01b03168252602080820151608082850181905281519085018190525f929190910190829060a08601905b808310156144d457835180516001600160a01b039081168452602080830151909116818501526040918201511515918401919091529093019260019290920191606090910190614489565b50604085015160408701526060850151606087015280935050505092915050565b602080825282516001600160a01b0316828201528281015160a06040840152805160c084018190525f9260e0600583901b86018101939091019190850190845b818110156145665760df19878603018352614551858551614457565b94506020938401939290920191600101614535565b50505050604084015160608401526060840151614587608085018215159052565b506080840151838203601f190160a08501526115558282613fce565b5f82601f8301126145b2575f5ffd5b81516001600160401b038111156145cb576145cb61405f565b6145de601f8201601f19166020016140bd565b8181528460208386010111156145f2575f5ffd5b8160208501602083015e5f918101602001919091529392505050565b5f6020828403121561461e575f5ffd5b81516001600160401b03811115614633575f5ffd5b613d39848285016145a3565b5f82601f83011261464e575f5ffd5b815161465c61419f826140ed565b8082825260208201915060208360051b86010192508583111561467d575f5ffd5b602085015b8381101561469a578051835260209283019201614682565b5095945050505050565b5f5f5f606084860312156146b6575f5ffd5b83516001600160401b038111156146cb575f5ffd5b6146d78682870161463f565b602086015190945090506001600160401b038111156146f4575f5ffd5b8401601f81018613614704575f5ffd5b805161471261419f826140ed565b8082825260208201915060208360051b850101925088831115614733575f5ffd5b6020840193505b8284101561475e57835161474d8161410f565b82526020938401939091019061473a565b6040880151909550925050506001600160401b0381111561477d575f5ffd5b6147898682870161463f565b9150509250925092565b634e487b7160e01b5f52603260045260245ffd5b602080825282516001600160a01b0316828201528281015160a06040840152805160c084018190525f9260e0600583901b86018101939091019190850190845b818110156145665760df19878603018352614803858551614457565b945060209384019392909201916001016147e7565b600181811c9082168061482c57607f821691505b6020821081036112d457634e487b7160e01b5f52602260045260245ffd5b5f5f8335601e1984360301811261485f575f5ffd5b8301803591506001600160401b03821115614878575f5ffd5b602001915036819003821315613e45575f5ffd5b634e487b7160e01b5f52601160045260245ffd5b808201808211156108a3576108a361488c565b8181035f831280158383131683831282161715611c1d57611c1d61488c565b5f600160ff1b82016148e6576148e661488c565b505f190190565b5f60c08284031280156148fe575f5ffd5b5060405160c081016001600160401b03811182821017156149215761492161405f565b604052823561492f8161410f565b8152602083013561493f8161410f565b602082015260408301356149528161410f565b6040820152606083810135908201526080808401359082015260a0928301359281019290925250919050565b6001600160a01b0392831681529116602082015260400190565b5f602082840312156149a8575f5ffd5b5051919050565b5f5f8335601e198436030181126149c4575f5ffd5b8301803591506001600160401b038211156149dd575f5ffd5b6020019150600781901b3603821315613e45575f5ffd5b803565ffffffffffff8116811461412e575f5ffd5b81835281816020850137505f828201602090810191909152601f909101601f19169091010190565b6001600160a01b0385168152606060208201525f60c08201853536879003601e19018112614a5d575f5ffd5b86016020810190356001600160401b03811115614a78575f5ffd5b8060071b3603821315614a89575f5ffd5b60608581015291829052905f9060e085015b81831015614b1a578335614aae8161410f565b6001600160a01b031681526020840135614ac78161410f565b6001600160a01b0316602082015265ffffffffffff614ae8604086016149f4565b16604082015265ffffffffffff614b01606086016149f4565b1660608201526080938401936001939093019201614a9b565b614b2660208a01614123565b9350614b356080870185613d7b565b5f9350604089013593508360a08701528581036040870152614b5881888a614a09565b9a9950505050505050505050565b5f82518060208501845e5f920191825250919050565b5f5f8335601e19843603018112614b91575f5ffd5b8301803591506001600160401b03821115614baa575f5ffd5b6020019150600581901b3603821315613e45575f5ffd5b5f8235607e19833603018112614bd5575f5ffd5b9190910192915050565b5f6108a33683614142565b818103818111156108a3576108a361488c565b6001600160a01b03929092168252602082015260400190565b6001600160a01b039384168152919092166020820152604081019190915260600190565b6001600160a01b03948516815292841660208401529083166040830152909116606082015260800190565b634e487b7160e01b5f52602160045260245ffd5b600281106112ec576112ec614c65565b815160a0820190614c9981614c79565b82526020830151614ca981614c79565b60208301526040838101516001600160a01b03169083015260608084015190830152608092830151929091019190915290565b5f5f5f60608486031215614cee575f5ffd5b5050815160208301516040909301519094929350919050565b6020815260018060a01b03825116602082015260018060a01b036020830151166040820152604082015160608201525f606083015160c06080840152614d5060e0840182613d41565b9050608084015160048110614d6757614d67614c65565b8060a08501525060a0840151601f198483030160c08501526115558282613fce565b5f5f5f60608486031215614d9b575f5ffd5b835160208501519093506001600160401b03811115614db8575f5ffd5b614dc48682870161463f565b604086015190935090506001600160401b03811115614de1575f5ffd5b614789868287016145a3565b602080825282516001600160a01b0390811683830152908301511660408083019190915282015160c060608301525f90614e2a60e0840182613d41565b905060608401516080840152608084015160058110614d6757614d67614c65565b5f5f5f60608486031215614e5d575f5ffd5b83516001600160401b03811115614e72575f5ffd5b614e7e8682870161463f565b60208601516040870151919550935090506001600160401b03811115614de1575f5ffd5b602081525f8251614eb281614c79565b8060208401525060018060a01b03602084015116604083015260018060a01b0360408401511660608301526060830151614eef6080840182613d7b565b50608083015160a083015260a083015160c083015260c083015160e080840152613d39610100840182613fce565b5f5f60408385031215614f2e575f5ffd5b50508051602090910151909290915056fe9b779b17422d0df92223018b32b4d1fa46e071723d6817e2486d003becc55f00a26469706673582212202222162f8134edf780a78a597b34a095d34df8a03994100b11528822f8f83ee464736f6c634300081e0033","linkReferences":{}},"methodIdentifiers":{"getPermit2()":"1bbf2e23","getSender()":"5e01eb5a","getVault()":"8d928af8","getWeth()":"107c279f","manualGetCurrentSwapTokenInAmounts()":"48bbd869","manualGetCurrentSwapTokenOutAmounts()":"0f8fb1cc","manualGetCurrentSwapTokensInSlot()":"8c824cd9","manualGetCurrentSwapTokensOutSlot()":"96123406","manualGetSettledTokenAmounts()":"cd791ccc","multicall(bytes[])":"ac9650d8","permitBatchAndCall((address,address,address,uint256,uint256,uint256)[],bytes[],((address,uint160,uint48,uint48)[],address,uint256),bytes,bytes[])":"19c6989f","querySwapExactIn((address,(address,address,bool)[],uint256,uint256)[],address,bytes)":"e3b5dff4","querySwapExactInHook((address,(address,(address,address,bool)[],uint256,uint256)[],uint256,bool,bytes))":"8a12a08c","querySwapExactOut((address,(address,address,bool)[],uint256,uint256)[],address,bytes)":"2950286e","querySwapExactOutHook((address,(address,(address,address,bool)[],uint256,uint256)[],uint256,bool,bytes))":"5a3c3987","swapExactIn((address,(address,address,bool)[],uint256,uint256)[],uint256,bool,bytes)":"286f580d","swapExactInHook((address,(address,(address,address,bool)[],uint256,uint256)[],uint256,bool,bytes))":"08a465f6","swapExactOut((address,(address,address,bool)[],uint256,uint256)[],uint256,bool,bytes)":"8eb1b65e","swapExactOutHook((address,(address,(address,address,bool)[],uint256,uint256)[],uint256,bool,bytes))":"945ed33f","version()":"54fd4d50"},"id":941}