{"abi":[{"type":"receive","stateMutability":"payable"},{"type":"function","name":"lastData","inputs":[],"outputs":[{"name":"","type":"bytes","internalType":"bytes"}],"stateMutability":"view"},{"type":"function","name":"lastExtractedFrom","inputs":[],"outputs":[{"name":"","type":"address","internalType":"address"}],"stateMutability":"view"},{"type":"function","name":"lastMsgSender","inputs":[],"outputs":[{"name":"","type":"address","internalType":"address"}],"stateMutability":"view"},{"type":"function","name":"stubCall","inputs":[{"name":"","type":"uint256","internalType":"uint256"}],"outputs":[{"name":"msgSender","type":"address","internalType":"address"},{"name":"extractedFrom","type":"address","internalType":"address"},{"name":"data","type":"bytes","internalType":"bytes"}],"stateMutability":"nonpayable"},{"type":"function","name":"stubRevert","inputs":[{"name":"message","type":"string","internalType":"string"}],"outputs":[],"stateMutability":"pure"},{"type":"function","name":"stubValue","inputs":[],"outputs":[{"name":"value","type":"uint256","internalType":"uint256"}],"stateMutability":"payable"},{"type":"event","name":"Called","inputs":[{"name":"msgSender","type":"address","indexed":false,"internalType":"address"},{"name":"extractedFrom","type":"address","indexed":false,"internalType":"address"},{"name":"data","type":"bytes","indexed":false,"internalType":"bytes"}],"anonymous":false}],"bytecode":{"object":"0x6080604052348015600e575f5ffd5b506105cb8061001c5f395ff3fe608060405260043610610056575f3560e01c80626e75ec146100615780635de6aef21461008b57806360ecbf2c1461009957806370e2557b146100ba578063bd8f5aac146100e8578063ed606af41461011f575f5ffd5b3661005d57005b5f5ffd5b34801561006c575f5ffd5b5061007561013d565b60405161008291906102f9565b60405180910390f35b604051348152602001610082565b3480156100a4575f5ffd5b506100b86100b3366004610312565b6101c9565b005b3480156100c5575f5ffd5b506100d96100d436600461037e565b6101ee565b60405161008293929190610395565b3480156100f3575f5ffd5b50600154610107906001600160a01b031681565b6040516001600160a01b039091168152602001610082565b34801561012a575f5ffd5b505f54610107906001600160a01b031681565b6002805461014a906103c9565b80601f0160208091040260200160405190810160405280929190818152602001828054610176906103c9565b80156101c15780601f10610198576101008083540402835291602001916101c1565b820191905f5260205f20905b8154815290600101906020018083116101a457829003601f168201915b505050505081565b818160405162461bcd60e51b81526004016101e5929190610401565b60405180910390fd5b335f6060366013190135811c91505f803661020a60148261042f565b9261021793929190610454565b8080601f0160208091040260200160405190810160405280939291908181526020018383808284375f92018290525080546001600160a01b03808a166001600160a01b03199283161790925560018054928916929091169190911790555091925060029150610288905082826104db565b507ff6b5ec9528dcb966bc8de8be7d0e0910938cabe45d0517e7e17cff672d665c328383836040516102bc93929190610395565b60405180910390a19193909250565b5f81518084528060208401602086015e5f602082860101526020601f19601f83011685010191505092915050565b602081525f61030b60208301846102cb565b9392505050565b5f5f60208385031215610323575f5ffd5b82356001600160401b03811115610338575f5ffd5b8301601f81018513610348575f5ffd5b80356001600160401b0381111561035d575f5ffd5b85602082840101111561036e575f5ffd5b6020919091019590945092505050565b5f6020828403121561038e575f5ffd5b5035919050565b6001600160a01b038481168252831660208201526060604082018190525f906103c0908301846102cb565b95945050505050565b600181811c908216806103dd57607f821691505b6020821081036103fb57634e487b7160e01b5f52602260045260245ffd5b50919050565b60208152816020820152818360408301375f818301604090810191909152601f909201601f19160101919050565b8181038181111561044e57634e487b7160e01b5f52601160045260245ffd5b92915050565b5f5f85851115610462575f5ffd5b8386111561046e575f5ffd5b5050820193919092039150565b634e487b7160e01b5f52604160045260245ffd5b601f8211156104d657805f5260205f20601f840160051c810160208510156104b45750805b601f840160051c820191505b818110156104d3575f81556001016104c0565b50505b505050565b81516001600160401b038111156104f4576104f461047b565b6105088161050284546103c9565b8461048f565b6020601f82116001811461053a575f83156105235750848201515b5f19600385901b1c1916600184901b1784556104d3565b5f84815260208120601f198516915b828110156105695787850151825560209485019460019092019101610549565b508482101561058657868401515f19600387901b60f8161c191681555b50505050600190811b0190555056fea264697066735822122017518b7f12e9d8c2dafb795e7b9df48efc8a7f8df8c54a749b8bf0268a58952464736f6c634300081e0033","linkReferences":{}},"methodIdentifiers":{"lastData()":"006e75ec","lastExtractedFrom()":"bd8f5aac","lastMsgSender()":"ed606af4","stubCall(uint256)":"70e2557b","stubRevert(string)":"60ecbf2c","stubValue()":"5de6aef2"},"id":913}