{"abi":[{"type":"function","name":"cast","inputs":[{"name":"tokens","type":"address[]","internalType":"contract IERC20[]"}],"outputs":[{"name":"","type":"address[]","internalType":"contract BetterIERC20[]"}],"stateMutability":"pure"},{"type":"function","name":"forceApprove","inputs":[{"name":"token","type":"address","internalType":"contract IERC20"},{"name":"spender","type":"address","internalType":"address"},{"name":"value","type":"uint256","internalType":"uint256"}],"outputs":[],"stateMutability":"nonpayable"},{"type":"function","name":"safeApprove","inputs":[{"name":"token","type":"address","internalType":"contract IERC20"},{"name":"spender","type":"address","internalType":"address"},{"name":"value","type":"uint256","internalType":"uint256"}],"outputs":[],"stateMutability":"nonpayable"},{"type":"function","name":"safeDecimals","inputs":[{"name":"asset","type":"address","internalType":"contract IERC20Metadata"}],"outputs":[{"name":"","type":"uint8","internalType":"uint8"}],"stateMutability":"view"},{"type":"function","name":"safeDecreaseAllowance","inputs":[{"name":"token","type":"address","internalType":"contract IERC20"},{"name":"spender","type":"address","internalType":"address"},{"name":"value","type":"uint256","internalType":"uint256"}],"outputs":[],"stateMutability":"nonpayable"},{"type":"function","name":"safeIncreaseAllowance","inputs":[{"name":"token","type":"address","internalType":"contract IERC20"},{"name":"spender","type":"address","internalType":"address"},{"name":"value","type":"uint256","internalType":"uint256"}],"outputs":[],"stateMutability":"nonpayable"},{"type":"function","name":"safeName","inputs":[{"name":"asset","type":"address","internalType":"contract IERC20Metadata"}],"outputs":[{"name":"","type":"string","internalType":"string"}],"stateMutability":"view"},{"type":"function","name":"safeSymbol","inputs":[{"name":"asset","type":"address","internalType":"contract IERC20Metadata"}],"outputs":[{"name":"","type":"string","internalType":"string"}],"stateMutability":"view"},{"type":"function","name":"safeTransfer","inputs":[{"name":"token","type":"address","internalType":"contract IERC20"},{"name":"to","type":"address","internalType":"address"},{"name":"value","type":"uint256","internalType":"uint256"}],"outputs":[{"name":"","type":"bool","internalType":"bool"}],"stateMutability":"nonpayable"},{"type":"function","name":"safeTransferFrom","inputs":[{"name":"token","type":"address","internalType":"contract IERC20"},{"name":"from","type":"address","internalType":"address"},{"name":"to","type":"address","internalType":"address"},{"name":"value","type":"uint256","internalType":"uint256"}],"outputs":[{"name":"","type":"bool","internalType":"bool"}],"stateMutability":"nonpayable"},{"type":"function","name":"trySafeTransfer","inputs":[{"name":"token","type":"address","internalType":"contract IERC20"},{"name":"to","type":"address","internalType":"address"},{"name":"value","type":"uint256","internalType":"uint256"}],"outputs":[{"name":"","type":"bool","internalType":"bool"}],"stateMutability":"nonpayable"},{"type":"function","name":"trySafeTransferFrom","inputs":[{"name":"token","type":"address","internalType":"contract IERC20"},{"name":"from","type":"address","internalType":"address"},{"name":"to","type":"address","internalType":"address"},{"name":"value","type":"uint256","internalType":"uint256"}],"outputs":[{"name":"","type":"bool","internalType":"bool"}],"stateMutability":"nonpayable"},{"type":"error","name":"SafeERC20FailedDecreaseAllowance","inputs":[{"name":"spender","type":"address","internalType":"address"},{"name":"currentAllowance","type":"uint256","internalType":"uint256"},{"name":"requestedDecrease","type":"uint256","internalType":"uint256"}]},{"type":"error","name":"SafeERC20FailedOperation","inputs":[{"name":"token","type":"address","internalType":"address"}]}],"bytecode":{"object":"0x6080604052348015600e575f5ffd5b50610e878061001c5f395ff3fe608060405234801561000f575f5ffd5b50600436106100a2575f3560e01c806329280d02146100a6578063490f8bd9146100ce57806361f49ed6146100e1578063675215d2146100f6578063737ce3411461010957806384ae670c14610129578063be3dcf6214610149578063cf825e551461016e578063d1660f9914610181578063d9fc4b6114610194578063eb5625d9146101a7578063f9255c1f146101ba575b5f5ffd5b6100b96100b4366004610af0565b6101cd565b60405190151581526020015b60405180910390f35b6100b96100dc366004610b3e565b6101ec565b6100f46100ef366004610b3e565b61020b565b005b6100f4610104366004610b3e565b610224565b61011c610117366004610b7c565b610238565b6040516100c59190610b97565b61013c610137366004610c10565b610252565b6040516100c59190610cc2565b61015c610157366004610b7c565b61025d565b60405160ff90911681526020016100c5565b61011c61017c366004610b7c565b610270565b6100b961018f366004610b3e565b610284565b6100b96101a2366004610af0565b610299565b6100f46101b5366004610b3e565b6102af565b6100f46101c8366004610b3e565b6102c3565b5f6101e36001600160a01b0386168585856102d7565b95945050505050565b5f6102016001600160a01b03851684846102ed565b90505b9392505050565b61021f6001600160a01b0384168383610302565b505050565b61021f6001600160a01b0384168383610316565b606061024c826001600160a01b031661032a565b92915050565b606061024c82610406565b5f61024c826001600160a01b03166104aa565b606061024c826001600160a01b0316610578565b5f6102016001600160a01b0385168484610652565b5f6101e36001600160a01b038616858585610671565b61021f6001600160a01b0384168383610692565b61021f6001600160a01b03841683836106e8565b5f6101e36001600160a01b0386168585856106fc565b5f6102016001600160a01b0385168484610709565b61021f6001600160a01b0384168383610791565b61021f6001600160a01b038416838361079c565b60408051600481526024810182526020810180516001600160e01b03166395d89b4160e01b17905290516060915f9182916001600160a01b038616916103709190610d0d565b5f60405180830381855afa9150503d805f81146103a8576040519150601f19603f3d011682016040523d82523d5f602084013e6103ad565b606091505b50915091508180156103c157506020815110155b156103e257808060200190518101906103da9190610d23565b949350505050565b5050604080518082019091526005815264045524332360dc1b602082015292915050565b606081516001600160401b0381111561042157610421610bcc565b60405190808252806020026020018201604052801561044a578160200160208202803683370190505b5090505f5b82518110156104a45782818151811061046a5761046a610db5565b602002602001015182828151811061048457610484610db5565b6001600160a01b039092166020928302919091019091015260010161044f565b50919050565b60408051600481526024810182526020810180516001600160e01b031663313ce56760e01b17905290515f91829182916001600160a01b038616916104ef9190610d0d565b5f60405180830381855afa9150503d805f8114610527576040519150601f19603f3d011682016040523d82523d5f602084013e61052c565b606091505b509150915081801561054057506020815110155b1561056e575f8180602001905181019061055a9190610dc9565b905060ff811161056c57949350505050565b505b5060129392505050565b60408051600481526024810182526020810180516001600160e01b03166306fdde0360e01b17905290516060915f9182916001600160a01b038616916105be9190610d0d565b5f60405180830381855afa9150503d805f81146105f6576040519150601f19603f3d011682016040523d82523d5f602084013e6105fb565b606091505b509150915081801561060f57506020815110155b1561062857808060200190518101906103da9190610d23565b505060408051808201909152600b81526a22a9219918102a37b5b2b760a91b602082015292915050565b5f6106676001600160a01b038516848461085f565b5060019392505050565b5f6106876001600160a01b03861685858561086a565b506001949350505050565b61021f8363095ea7b360e01b84846040516024016106b1929190610de0565b60408051601f198184030181529190526020810180516001600160e01b03166001600160e01b031990931692909217909152610876565b61021f6001600160a01b03841683836108e2565b5f6101e385858585610967565b60405163a9059cbb60e01b81525f906001600160a01b0385169063a9059cbb906107399086908690600401610de0565b6020604051808303815f875af1925050508015610773575060408051601f3d908101601f1916820190925261077091810190610df9565b60015b61077e57505f610204565b80806107895750843b155b915050610204565b61021f8383836109b6565b604051636eb1769f60e11b81525f906001600160a01b0385169063dd62ed3e906107cc9030908790600401610e18565b602060405180830381865afa1580156107e7573d5f5f3e3d5ffd5b505050506040513d601f19601f8201168201806040525081019061080b9190610dc9565b90508181101561084c5760405163e570110f60e01b81526001600160a01b038416600482015260248101829052604481018390526064015b60405180910390fd5b6108598484848403610791565b50505050565b61021f838383610a40565b61085984848484610a80565b5f5f60205f8451602086015f885af180610895576040513d5f823e3d81fd5b50505f513d915081156108ac5780600114156108b9565b6001600160a01b0384163b155b1561085957604051635274afe760e01b81526001600160a01b0385166004820152602401610843565b604051636eb1769f60e11b81525f906001600160a01b0385169063dd62ed3e906109129030908790600401610e18565b602060405180830381865afa15801561092d573d5f5f3e3d5ffd5b505050506040513d601f19601f820116820180604052508101906109519190610dc9565b905061085984846109628585610e32565b610791565b5f60405182606052836040528460601b602c526323b872dd60601b600c5260205f6064601c5f8a5af191508160015f5114166109a757813d873b15171091505b5f606052604052949350505050565b816014528060345263095ea7b360601b5f5260205f604460105f875af18060015f511416610a3657803d853b151710610a36575f60345263095ea7b360601b5f525f38604460105f885af1508160345260205f604460105f885af190508060015f511416610a3657803d853b151710610a3657633e3f8f735f526004601cfd5b505f603452505050565b816014528060345263a9059cbb60601b5f5260205f604460105f875af18060015f511416610a3657803d853b151710610a36576390b8ec185f526004601cfd5b60405181606052826040528360601b602c526323b872dd60601b600c5260205f6064601c5f895af18060015f511416610acb57803d873b151710610acb57637939f4245f526004601cfd5b505f60605260405250505050565b6001600160a01b0381168114610aed575f5ffd5b50565b5f5f5f5f60808587031215610b03575f5ffd5b8435610b0e81610ad9565b93506020850135610b1e81610ad9565b92506040850135610b2e81610ad9565b9396929550929360600135925050565b5f5f5f60608486031215610b50575f5ffd5b8335610b5b81610ad9565b92506020840135610b6b81610ad9565b929592945050506040919091013590565b5f60208284031215610b8c575f5ffd5b813561020481610ad9565b602081525f82518060208401528060208501604085015e5f604082850101526040601f19601f83011684010191505092915050565b634e487b7160e01b5f52604160045260245ffd5b604051601f8201601f191681016001600160401b0381118282101715610c0857610c08610bcc565b604052919050565b5f60208284031215610c20575f5ffd5b81356001600160401b03811115610c35575f5ffd5b8201601f81018413610c45575f5ffd5b80356001600160401b03811115610c5e57610c5e610bcc565b8060051b610c6e60208201610be0565b91825260208184018101929081019087841115610c89575f5ffd5b6020850194505b83851015610cb75784359250610ca583610ad9565b82825260209485019490910190610c90565b979650505050505050565b602080825282518282018190525f918401906040840190835b81811015610d025783516001600160a01b0316835260209384019390920191600101610cdb565b509095945050505050565b5f82518060208501845e5f920191825250919050565b5f60208284031215610d33575f5ffd5b81516001600160401b03811115610d48575f5ffd5b8201601f81018413610d58575f5ffd5b80516001600160401b03811115610d7157610d71610bcc565b610d84601f8201601f1916602001610be0565b818152856020838501011115610d98575f5ffd5b8160208401602083015e5f91810160200191909152949350505050565b634e487b7160e01b5f52603260045260245ffd5b5f60208284031215610dd9575f5ffd5b5051919050565b6001600160a01b03929092168252602082015260400190565b5f60208284031215610e09575f5ffd5b81518015158114610204575f5ffd5b6001600160a01b0392831681529116602082015260400190565b8082018082111561024c57634e487b7160e01b5f52601160045260245ffdfea2646970667358221220d34413b285318eae770b9aed1d467006fc03cbb07e9a55922d44d5d86763218364736f6c634300081e0033","linkReferences":{}},"methodIdentifiers":{"cast(address[])":"84ae670c","forceApprove(address,address,uint256)":"61f49ed6","safeApprove(address,address,uint256)":"eb5625d9","safeDecimals(address)":"be3dcf62","safeDecreaseAllowance(address,address,uint256)":"675215d2","safeIncreaseAllowance(address,address,uint256)":"f9255c1f","safeName(address)":"cf825e55","safeSymbol(address)":"737ce341","safeTransfer(address,address,uint256)":"d1660f99","safeTransferFrom(address,address,address,uint256)":"d9fc4b61","trySafeTransfer(address,address,uint256)":"490f8bd9","trySafeTransferFrom(address,address,address,uint256)":"29280d02"},"id":1293}