{"abi":[{"type":"function","name":"computeBalance","inputs":[{"name":"balancesLiveScaled18","type":"uint256[]","internalType":"uint256[]"},{"name":"tokenInIndex","type":"uint256","internalType":"uint256"},{"name":"invariantRatio","type":"uint256","internalType":"uint256"}],"outputs":[{"name":"newBalance","type":"uint256","internalType":"uint256"}],"stateMutability":"view"},{"type":"function","name":"computeInvariant","inputs":[{"name":"balancesLiveScaled18","type":"uint256[]","internalType":"uint256[]"},{"name":"rounding","type":"uint8","internalType":"enum Rounding"}],"outputs":[{"name":"invariant","type":"uint256","internalType":"uint256"}],"stateMutability":"view"},{"type":"function","name":"getNormalizedWeights","inputs":[],"outputs":[{"name":"weights","type":"uint256[]","internalType":"uint256[]"}],"stateMutability":"view"},{"type":"function","name":"initialize","inputs":[{"name":"normalizedWeights_","type":"uint256[]","internalType":"uint256[]"}],"outputs":[],"stateMutability":"nonpayable"},{"type":"function","name":"onSwap","inputs":[{"name":"params","type":"tuple","internalType":"struct PoolSwapParams","components":[{"name":"kind","type":"uint8","internalType":"enum SwapKind"},{"name":"amountGivenScaled18","type":"uint256","internalType":"uint256"},{"name":"balancesScaled18","type":"uint256[]","internalType":"uint256[]"},{"name":"indexIn","type":"uint256","internalType":"uint256"},{"name":"indexOut","type":"uint256","internalType":"uint256"},{"name":"router","type":"address","internalType":"address"},{"name":"userData","type":"bytes","internalType":"bytes"}]}],"outputs":[{"name":"amountCalculatedScaled18","type":"uint256","internalType":"uint256"}],"stateMutability":"view"},{"type":"error","name":"BaseOutOfBounds","inputs":[]},{"type":"error","name":"ExponentOutOfBounds","inputs":[]},{"type":"error","name":"InvalidExponent","inputs":[]},{"type":"error","name":"InvalidWeightsLength","inputs":[]},{"type":"error","name":"MaxInRatio","inputs":[]},{"type":"error","name":"MaxOutRatio","inputs":[]},{"type":"error","name":"ProductOutOfBounds","inputs":[]},{"type":"error","name":"WeightsMustSumToOne","inputs":[]},{"type":"error","name":"ZeroDivision","inputs":[]},{"type":"error","name":"ZeroInvariant","inputs":[]},{"type":"error","name":"ZeroWeight","inputs":[]}],"bytecode":{"object":"0x6080604052348015600e575f5ffd5b5061165e8061001c5f395ff3fe608060405234801561000f575f5ffd5b5060043610610055575f3560e01c806316a0b3e0146100595780636fe0e5591461007f57806372c9818614610094578063984de9e8146100a7578063f89f27ed146100ba575b5f5ffd5b61006c6100673660046113b5565b6100cf565b6040519081526020015b60405180910390f35b61009261008d3660046113fe565b610121565b005b61006c6100a236600461142f565b61012d565b61006c6100b5366004611471565b61023f565b6100c2610289565b60405161007691906114bf565b5f5f6100d9610298565b90506101188585815181106100f0576100f0611501565b602002602001015182868151811061010a5761010a611501565b6020026020010151856102aa565b95945050505050565b61012a81610302565b50565b5f5f610137610298565b90505f6101476040850185611515565b856060013581811061015b5761015b611501565b9050602002013590505f8480604001906101759190611515565b866080013581811061018957610189611501565b9050602002013590505f838660600135815181106101a9576101a9611501565b602002602001015190505f848760800135815181106101ca576101ca611501565b602002602001015190505f60018111156101e6576101e6611561565b6101f36020890189611575565b600181111561020457610204611561565b036102215761021a848385848b60200135610313565b9550610235565b610232848385848b602001356103a2565b95505b5050505050919050565b5f5f610249610298565b9050600183600181111561025f5761025f611561565b036102755761026e8185610425565b9150610282565b61027f81856104b9565b91505b5092915050565b6060610293610298565b905090565b60606102936102a5610526565b61054a565b5f61129e670de0b6b3a764000083116102c5576105a36102c9565b6105c35b90505f6102ec6102e5670de0b6b3a7640000878563ffffffff16565b85906105de565b90506102f88682610691565b9695505050505050565b61012a61030d610526565b826106bd565b5f61032686670429d069189e0000610795565b8211156103465760405163340a453360e01b815260040160405180910390fd5b5f61035183886115a4565b90505f61035e88836105c3565b90505f61036b88876105a3565b90505f61037883836105de565b9050610394670de0b6b3a7640000828103908310028990610795565b9a9950505050505050505050565b5f6103b584670429d069189e0000610795565b8211156103d5576040516364590b9f60e01b815260040160405180910390fd5b5f6103ea6103e384876115b7565b86906105c3565b90505f6103f785886105c3565b90505f61040483836105de565b90505f610419670de0b6b3a7640000836115b7565b90506103948a82610691565b670de0b6b3a76400005f5b83518110156104925761048861048185838151811061045157610451611501565b602002602001015185848151811061046b5761046b611501565b60200260200101516107b590919063ffffffff16565b8390610795565b9150600101610430565b50805f036104b357604051632654368960e01b815260040160405180910390fd5b92915050565b670de0b6b3a76400005f5b83518110156104925761051c6105158583815181106104e5576104e5611501565b60200260200101518584815181106104ff576104ff611501565b60200260200101516105de90919063ffffffff16565b8390610691565b91506001016104c4565b7f0b1f699f9a8cb016dcd6d3f4119ffc688f82df3a97972f71dfa812f53cb486a390565b6060815f0180548060200260200160405190810160405280929190818152602001828054801561059757602002820191905f5260205f20905b815481526020019060010190808311610583575b50505050509050919050565b5f806105b7670de0b6b3a7640000856115ca565b905061027f83826115f5565b5f6105d783670de0b6b3a764000084610861565b9392505050565b5f670de0b6b3a764000082036105f55750816104b3565b610608670de0b6b3a764000060026115ca565b820361061f576106188384610691565b90506104b3565b610632670de0b6b3a764000060046115ca565b8203610657575f6106438485610691565b905061064f8182610691565b9150506104b3565b5f61066284846108a6565b90505f61067182612710610691565b61067c9060016115a4565b905061068881836115a4565b925050506104b3565b5f8061069d83856115ca565b90506001670de0b6b3a76400006001830304018115150291505092915050565b6002815110156106e05760405163f846d15360e01b815260040160405180910390fd5b5f805b8251811015610754578281815181106106fe576106fe611501565b60200260200101515f03610725576040516319a2a9bd60e01b815260040160405180910390fd5b82818151811061073757610737611501565b60200260200101518261074a91906115a4565b91506001016106e3565b50670de0b6b3a7640000811461077d5760405163e6d31c7960e01b815260040160405180910390fd5b815161078f90849060208501906112a8565b50505050565b5f806107a183856115ca565b905061027f670de0b6b3a7640000826115f5565b5f670de0b6b3a764000082036107cc5750816104b3565b6107df670de0b6b3a764000060026115ca565b82036107ef576106188384610795565b610802670de0b6b3a764000060046115ca565b820361081f575f6108138485610795565b905061064f8182610795565b5f61082a84846108a6565b90505f61083982612710610691565b6108449060016115a4565b905080821015610858575f925050506104b3565b900390506104b3565b5f815f0361088257604051630a0c22c760e01b815260040160405180910390fd5b5f61088d84866115ca565b9050600183600183030401811515029150509392505050565b5f815f036108bd5750670de0b6b3a76400006104b3565b825f036108cb57505f6104b3565b60ff83901c156108ed576040516211380f60e51b815260040160405180910390fd5b8261090568056bc75e2d63100000600160fe1b6115f5565b83106109245760405163d831731160e01b815260040160405180910390fd5b825f670c7d713b49da0000831380156109445750670f43fc2c04ee000083125b1561097a575f610953846109dc565b9050670de0b6b3a764000080820784020583670de0b6b3a764000083050201915050610988565b8161098484610af9565b0290505b670de0b6b3a76400009005680238fd42c5cf03ffff1981128015906109b6575068070c1cc73b00c800008113155b6109d35760405163a2f9f7e360e01b815260040160405180910390fd5b6102f881610ea3565b670de0b6b3a7640000025f806a0c097ce7bc90715b34b9f160241b808401906ec097ce7bc90715b34b9f0fffffffff1985010281610a1c57610a1c6115e1565b0590505f6a0c097ce7bc90715b34b9f160241b82800205905081806a0c097ce7bc90715b34b9f160241b81840205915060038205016a0c097ce7bc90715b34b9f160241b82840205915060058205016a0c097ce7bc90715b34b9f160241b82840205915060078205016a0c097ce7bc90715b34b9f160241b82840205915060098205016a0c097ce7bc90715b34b9f160241b828402059150600b8205016a0c097ce7bc90715b34b9f160241b828402059150600d8205016a0c097ce7bc90715b34b9f160241b828402059150600f82050160020295945050505050565b5f80670de0b6b3a7640000831215610b3057826a0c097ce7bc90715b34b9f160241b81610b2857610b286115e1565b059250600190505b5f775803bcc5cb9634ba4cfb2213f784019318ed4dcb6017880f60361b8412610b7a5772195e54c5dd42177f53a27172fa9ec63026282760241b840593506806f05b59d3b2000000015b6f8bcc0026baae9e45e470190267a230cf60191b8412610bb1576b1425982cf597cd205cef7380840593506803782dace9d9000000015b606493840293026e01855144814a7ff805980ff00840008412610bf9576e01855144814a7ff805980ff008400068056bc75e2d63100000850205935068ad78ebc5ac62000000015b6b02df0ab5a80a22c61ab5a7008412610c34576b02df0ab5a80a22c61ab5a70068056bc75e2d6310000085020593506856bc75e2d631000000015b693f1fce3da636ea5cf8508412610c6b57693f1fce3da636ea5cf85068056bc75e2d631000008502059350682b5e3af16b18800000015b690127fa27722cc06cc5e28412610ca257690127fa27722cc06cc5e268056bc75e2d6310000085020593506815af1d78b58c400000015b68280e60114edb805d038412610cd75768280e60114edb805d0368056bc75e2d631000008502059350680ad78ebc5ac6200000015b680ebc5fb417461211108412610d0257680ebc5fb4174612111068056bc75e2d631000009485020593015b6808f00f760a4b2db55d8412610d37576808f00f760a4b2db55d68056bc75e2d6310000085020593506802b5e3af16b1880000015b6806f5f17757889379378412610d6c576806f5f177578893793768056bc75e2d63100000850205935068015af1d78b58c40000015b6806248f33704b2866038412610da0576806248f33704b28660368056bc75e2d63100000850205935067ad78ebc5ac620000015b6805c548670b9510e7ac8412610dd4576805c548670b9510e7ac68056bc75e2d6310000085020593506756bc75e2d6310000015b5f68056bc75e2d63100000850168056bc75e2d631000008087030281610dfc57610dfc6115e1565b0590505f68056bc75e2d63100000828002059050818068056bc75e2d63100000818402059150600382050168056bc75e2d63100000828402059150600582050168056bc75e2d63100000828402059150600782050168056bc75e2d63100000828402059150600982050168056bc75e2d63100000828402059150600b8205016002025f606486830105905086610e925780610e96565b805f035b9998505050505050505050565b5f680238fd42c5cf03ffff198212158015610ec7575068070c1cc73b00c800008213155b610ee45760405163d4794efd60e01b815260040160405180910390fd5b5f80831215610ef757825f039250600190505b5f6806f05b59d3b20000008412610f3457506806f05b59d3b1ffffff199092019172195e54c5dd42177f53a27172fa9ec63026282760241b610f6a565b6803782dace9d90000008412610f6657506803782dace9d8ffffff19909201916b1425982cf597cd205cef7380610f6a565b5060015b6064939093029268056bc75e2d6310000068ad78ebc5ac620000008512610fba5768ad78ebc5ac61ffffff199094019368056bc75e2d631000006e01855144814a7ff805980ff008400082020590505b6856bc75e2d6310000008512610ff6576856bc75e2d630ffffff199094019368056bc75e2d631000006b02df0ab5a80a22c61ab5a70082020590505b682b5e3af16b18800000851261103057682b5e3af16b187fffff199094019368056bc75e2d63100000693f1fce3da636ea5cf85082020590505b6815af1d78b58c400000851261106a576815af1d78b58c3fffff199094019368056bc75e2d63100000690127fa27722cc06cc5e282020590505b680ad78ebc5ac620000085126110a357680ad78ebc5ac61fffff199094019368056bc75e2d6310000068280e60114edb805d0382020590505b68056bc75e2d6310000085126110dc5768056bc75e2d630fffff199094019368056bc75e2d63100000680ebc5fb4174612111082020590505b6802b5e3af16b18800008512611115576802b5e3af16b187ffff199094019368056bc75e2d631000006808f00f760a4b2db55d82020590505b68015af1d78b58c40000851261114e5768015af1d78b58c3ffff199094019368056bc75e2d631000006806f5f177578893793782020590505b68056bc75e2d631000008581019086906002908280020505918201919050600368056bc75e2d631000008883020505918201919050600468056bc75e2d631000008883020505918201919050600568056bc75e2d631000008883020505918201919050600668056bc75e2d631000008883020505918201919050600768056bc75e2d631000008883020505918201919050600868056bc75e2d631000008883020505918201919050600968056bc75e2d631000008883020505918201919050600a68056bc75e2d631000008883020505918201919050600b68056bc75e2d631000008883020505918201919050600c68056bc75e2d6310000088830205059182019190505f606468056bc75e2d63100000858502058602059050856112735780611292565b806a0c097ce7bc90715b34b9f160241b81611290576112906115e1565b055b98975050505050505050565b6112a6611614565b565b828054828255905f5260205f209081019282156112e1579160200282015b828111156112e15782518255916020019190600101906112c6565b506112ed9291506112f1565b5090565b5b808211156112ed575f81556001016112f2565b634e487b7160e01b5f52604160045260245ffd5b5f82601f830112611328575f5ffd5b81356001600160401b0381111561134157611341611305565b604051600582901b90603f8201601f191681016001600160401b038111828210171561136f5761136f611305565b60405291825260208185018101929081018684111561138c575f5ffd5b6020860192505b838310156113ab578235815260209283019201611393565b5095945050505050565b5f5f5f606084860312156113c7575f5ffd5b83356001600160401b038111156113dc575f5ffd5b6113e886828701611319565b9660208601359650604090950135949350505050565b5f6020828403121561140e575f5ffd5b81356001600160401b03811115611423575f5ffd5b61027f84828501611319565b5f6020828403121561143f575f5ffd5b81356001600160401b03811115611454575f5ffd5b820160e081850312156105d7575f5ffd5b6002811061012a575f5ffd5b5f5f60408385031215611482575f5ffd5b82356001600160401b03811115611497575f5ffd5b6114a385828601611319565b92505060208301356114b481611465565b809150509250929050565b602080825282518282018190525f918401906040840190835b818110156114f65783518352602093840193909201916001016114d8565b509095945050505050565b634e487b7160e01b5f52603260045260245ffd5b5f5f8335601e1984360301811261152a575f5ffd5b8301803591506001600160401b03821115611543575f5ffd5b6020019150600581901b360382131561155a575f5ffd5b9250929050565b634e487b7160e01b5f52602160045260245ffd5b5f60208284031215611585575f5ffd5b81356105d781611465565b634e487b7160e01b5f52601160045260245ffd5b808201808211156104b3576104b3611590565b818103818111156104b3576104b3611590565b80820281158282048414176104b3576104b3611590565b634e487b7160e01b5f52601260045260245ffd5b5f8261160f57634e487b7160e01b5f52601260045260245ffd5b500490565b634e487b7160e01b5f52605160045260245ffdfea2646970667358221220e63252c5b43127902ba0d497810c56f38917ed1bb944a04fb7ec9e98849cc44a64736f6c634300081e0033","linkReferences":{}},"methodIdentifiers":{"computeBalance(uint256[],uint256,uint256)":"16a0b3e0","computeInvariant(uint256[],uint8)":"984de9e8","getNormalizedWeights()":"f89f27ed","initialize(uint256[])":"6fe0e559","onSwap((uint8,uint256,uint256[],uint256,uint256,address,bytes))":"72c98186"},"id":885}