{"abi":[{"type":"constructor","inputs":[{"name":"initialOwner","type":"address","internalType":"address"}],"stateMutability":"nonpayable"},{"type":"function","name":"allowance","inputs":[{"name":"owner","type":"address","internalType":"address"},{"name":"spender","type":"address","internalType":"address"},{"name":"id","type":"uint256","internalType":"uint256"}],"outputs":[{"name":"amount","type":"uint256","internalType":"uint256"}],"stateMutability":"view"},{"type":"function","name":"approve","inputs":[{"name":"spender","type":"address","internalType":"address"},{"name":"id","type":"uint256","internalType":"uint256"},{"name":"amount","type":"uint256","internalType":"uint256"}],"outputs":[{"name":"","type":"bool","internalType":"bool"}],"stateMutability":"nonpayable"},{"type":"function","name":"balanceOf","inputs":[{"name":"owner","type":"address","internalType":"address"},{"name":"id","type":"uint256","internalType":"uint256"}],"outputs":[{"name":"balance","type":"uint256","internalType":"uint256"}],"stateMutability":"view"},{"type":"function","name":"burn","inputs":[{"name":"from","type":"address","internalType":"address"},{"name":"id","type":"uint256","internalType":"uint256"},{"name":"amount","type":"uint256","internalType":"uint256"}],"outputs":[],"stateMutability":"nonpayable"},{"type":"function","name":"clear","inputs":[{"name":"currency","type":"address","internalType":"Currency"},{"name":"amount","type":"uint256","internalType":"uint256"}],"outputs":[],"stateMutability":"nonpayable"},{"type":"function","name":"collectProtocolFees","inputs":[{"name":"recipient","type":"address","internalType":"address"},{"name":"currency","type":"address","internalType":"Currency"},{"name":"amount","type":"uint256","internalType":"uint256"}],"outputs":[{"name":"amountCollected","type":"uint256","internalType":"uint256"}],"stateMutability":"nonpayable"},{"type":"function","name":"donate","inputs":[{"name":"key","type":"tuple","internalType":"struct PoolKey","components":[{"name":"currency0","type":"address","internalType":"Currency"},{"name":"currency1","type":"address","internalType":"Currency"},{"name":"fee","type":"uint24","internalType":"uint24"},{"name":"tickSpacing","type":"int24","internalType":"int24"},{"name":"hooks","type":"address","internalType":"contract IHooks"}]},{"name":"amount0","type":"uint256","internalType":"uint256"},{"name":"amount1","type":"uint256","internalType":"uint256"},{"name":"hookData","type":"bytes","internalType":"bytes"}],"outputs":[{"name":"delta","type":"int256","internalType":"BalanceDelta"}],"stateMutability":"nonpayable"},{"type":"function","name":"extsload","inputs":[{"name":"slot","type":"bytes32","internalType":"bytes32"}],"outputs":[{"name":"","type":"bytes32","internalType":"bytes32"}],"stateMutability":"view"},{"type":"function","name":"extsload","inputs":[{"name":"startSlot","type":"bytes32","internalType":"bytes32"},{"name":"nSlots","type":"uint256","internalType":"uint256"}],"outputs":[{"name":"","type":"bytes32[]","internalType":"bytes32[]"}],"stateMutability":"view"},{"type":"function","name":"extsload","inputs":[{"name":"slots","type":"bytes32[]","internalType":"bytes32[]"}],"outputs":[{"name":"","type":"bytes32[]","internalType":"bytes32[]"}],"stateMutability":"view"},{"type":"function","name":"exttload","inputs":[{"name":"slots","type":"bytes32[]","internalType":"bytes32[]"}],"outputs":[{"name":"","type":"bytes32[]","internalType":"bytes32[]"}],"stateMutability":"view"},{"type":"function","name":"exttload","inputs":[{"name":"slot","type":"bytes32","internalType":"bytes32"}],"outputs":[{"name":"","type":"bytes32","internalType":"bytes32"}],"stateMutability":"view"},{"type":"function","name":"initialize","inputs":[{"name":"key","type":"tuple","internalType":"struct PoolKey","components":[{"name":"currency0","type":"address","internalType":"Currency"},{"name":"currency1","type":"address","internalType":"Currency"},{"name":"fee","type":"uint24","internalType":"uint24"},{"name":"tickSpacing","type":"int24","internalType":"int24"},{"name":"hooks","type":"address","internalType":"contract IHooks"}]},{"name":"sqrtPriceX96","type":"uint160","internalType":"uint160"}],"outputs":[{"name":"tick","type":"int24","internalType":"int24"}],"stateMutability":"nonpayable"},{"type":"function","name":"isOperator","inputs":[{"name":"owner","type":"address","internalType":"address"},{"name":"operator","type":"address","internalType":"address"}],"outputs":[{"name":"isOperator","type":"bool","internalType":"bool"}],"stateMutability":"view"},{"type":"function","name":"mint","inputs":[{"name":"to","type":"address","internalType":"address"},{"name":"id","type":"uint256","internalType":"uint256"},{"name":"amount","type":"uint256","internalType":"uint256"}],"outputs":[],"stateMutability":"nonpayable"},{"type":"function","name":"modifyLiquidity","inputs":[{"name":"key","type":"tuple","internalType":"struct PoolKey","components":[{"name":"currency0","type":"address","internalType":"Currency"},{"name":"currency1","type":"address","internalType":"Currency"},{"name":"fee","type":"uint24","internalType":"uint24"},{"name":"tickSpacing","type":"int24","internalType":"int24"},{"name":"hooks","type":"address","internalType":"contract IHooks"}]},{"name":"params","type":"tuple","internalType":"struct ModifyLiquidityParams","components":[{"name":"tickLower","type":"int24","internalType":"int24"},{"name":"tickUpper","type":"int24","internalType":"int24"},{"name":"liquidityDelta","type":"int256","internalType":"int256"},{"name":"salt","type":"bytes32","internalType":"bytes32"}]},{"name":"hookData","type":"bytes","internalType":"bytes"}],"outputs":[{"name":"callerDelta","type":"int256","internalType":"BalanceDelta"},{"name":"feesAccrued","type":"int256","internalType":"BalanceDelta"}],"stateMutability":"nonpayable"},{"type":"function","name":"owner","inputs":[],"outputs":[{"name":"","type":"address","internalType":"address"}],"stateMutability":"view"},{"type":"function","name":"protocolFeeController","inputs":[],"outputs":[{"name":"","type":"address","internalType":"address"}],"stateMutability":"view"},{"type":"function","name":"protocolFeesAccrued","inputs":[{"name":"currency","type":"address","internalType":"Currency"}],"outputs":[{"name":"amount","type":"uint256","internalType":"uint256"}],"stateMutability":"view"},{"type":"function","name":"setOperator","inputs":[{"name":"operator","type":"address","internalType":"address"},{"name":"approved","type":"bool","internalType":"bool"}],"outputs":[{"name":"","type":"bool","internalType":"bool"}],"stateMutability":"nonpayable"},{"type":"function","name":"setProtocolFee","inputs":[{"name":"key","type":"tuple","internalType":"struct PoolKey","components":[{"name":"currency0","type":"address","internalType":"Currency"},{"name":"currency1","type":"address","internalType":"Currency"},{"name":"fee","type":"uint24","internalType":"uint24"},{"name":"tickSpacing","type":"int24","internalType":"int24"},{"name":"hooks","type":"address","internalType":"contract IHooks"}]},{"name":"newProtocolFee","type":"uint24","internalType":"uint24"}],"outputs":[],"stateMutability":"nonpayable"},{"type":"function","name":"setProtocolFeeController","inputs":[{"name":"controller","type":"address","internalType":"address"}],"outputs":[],"stateMutability":"nonpayable"},{"type":"function","name":"settle","inputs":[],"outputs":[{"name":"","type":"uint256","internalType":"uint256"}],"stateMutability":"payable"},{"type":"function","name":"settleFor","inputs":[{"name":"recipient","type":"address","internalType":"address"}],"outputs":[{"name":"","type":"uint256","internalType":"uint256"}],"stateMutability":"payable"},{"type":"function","name":"supportsInterface","inputs":[{"name":"interfaceId","type":"bytes4","internalType":"bytes4"}],"outputs":[{"name":"","type":"bool","internalType":"bool"}],"stateMutability":"view"},{"type":"function","name":"swap","inputs":[{"name":"key","type":"tuple","internalType":"struct PoolKey","components":[{"name":"currency0","type":"address","internalType":"Currency"},{"name":"currency1","type":"address","internalType":"Currency"},{"name":"fee","type":"uint24","internalType":"uint24"},{"name":"tickSpacing","type":"int24","internalType":"int24"},{"name":"hooks","type":"address","internalType":"contract IHooks"}]},{"name":"params","type":"tuple","internalType":"struct SwapParams","components":[{"name":"zeroForOne","type":"bool","internalType":"bool"},{"name":"amountSpecified","type":"int256","internalType":"int256"},{"name":"sqrtPriceLimitX96","type":"uint160","internalType":"uint160"}]},{"name":"hookData","type":"bytes","internalType":"bytes"}],"outputs":[{"name":"swapDelta","type":"int256","internalType":"BalanceDelta"}],"stateMutability":"nonpayable"},{"type":"function","name":"sync","inputs":[{"name":"currency","type":"address","internalType":"Currency"}],"outputs":[],"stateMutability":"nonpayable"},{"type":"function","name":"take","inputs":[{"name":"currency","type":"address","internalType":"Currency"},{"name":"to","type":"address","internalType":"address"},{"name":"amount","type":"uint256","internalType":"uint256"}],"outputs":[],"stateMutability":"nonpayable"},{"type":"function","name":"transfer","inputs":[{"name":"receiver","type":"address","internalType":"address"},{"name":"id","type":"uint256","internalType":"uint256"},{"name":"amount","type":"uint256","internalType":"uint256"}],"outputs":[{"name":"","type":"bool","internalType":"bool"}],"stateMutability":"nonpayable"},{"type":"function","name":"transferFrom","inputs":[{"name":"sender","type":"address","internalType":"address"},{"name":"receiver","type":"address","internalType":"address"},{"name":"id","type":"uint256","internalType":"uint256"},{"name":"amount","type":"uint256","internalType":"uint256"}],"outputs":[{"name":"","type":"bool","internalType":"bool"}],"stateMutability":"nonpayable"},{"type":"function","name":"transferOwnership","inputs":[{"name":"newOwner","type":"address","internalType":"address"}],"outputs":[],"stateMutability":"nonpayable"},{"type":"function","name":"unlock","inputs":[{"name":"data","type":"bytes","internalType":"bytes"}],"outputs":[{"name":"result","type":"bytes","internalType":"bytes"}],"stateMutability":"nonpayable"},{"type":"function","name":"updateDynamicLPFee","inputs":[{"name":"key","type":"tuple","internalType":"struct PoolKey","components":[{"name":"currency0","type":"address","internalType":"Currency"},{"name":"currency1","type":"address","internalType":"Currency"},{"name":"fee","type":"uint24","internalType":"uint24"},{"name":"tickSpacing","type":"int24","internalType":"int24"},{"name":"hooks","type":"address","internalType":"contract IHooks"}]},{"name":"newDynamicLPFee","type":"uint24","internalType":"uint24"}],"outputs":[],"stateMutability":"nonpayable"},{"type":"event","name":"Approval","inputs":[{"name":"owner","type":"address","indexed":true,"internalType":"address"},{"name":"spender","type":"address","indexed":true,"internalType":"address"},{"name":"id","type":"uint256","indexed":true,"internalType":"uint256"},{"name":"amount","type":"uint256","indexed":false,"internalType":"uint256"}],"anonymous":false},{"type":"event","name":"Donate","inputs":[{"name":"id","type":"bytes32","indexed":true,"internalType":"PoolId"},{"name":"sender","type":"address","indexed":true,"internalType":"address"},{"name":"amount0","type":"uint256","indexed":false,"internalType":"uint256"},{"name":"amount1","type":"uint256","indexed":false,"internalType":"uint256"}],"anonymous":false},{"type":"event","name":"Initialize","inputs":[{"name":"id","type":"bytes32","indexed":true,"internalType":"PoolId"},{"name":"currency0","type":"address","indexed":true,"internalType":"Currency"},{"name":"currency1","type":"address","indexed":true,"internalType":"Currency"},{"name":"fee","type":"uint24","indexed":false,"internalType":"uint24"},{"name":"tickSpacing","type":"int24","indexed":false,"internalType":"int24"},{"name":"hooks","type":"address","indexed":false,"internalType":"contract IHooks"},{"name":"sqrtPriceX96","type":"uint160","indexed":false,"internalType":"uint160"},{"name":"tick","type":"int24","indexed":false,"internalType":"int24"}],"anonymous":false},{"type":"event","name":"ModifyLiquidity","inputs":[{"name":"id","type":"bytes32","indexed":true,"internalType":"PoolId"},{"name":"sender","type":"address","indexed":true,"internalType":"address"},{"name":"tickLower","type":"int24","indexed":false,"internalType":"int24"},{"name":"tickUpper","type":"int24","indexed":false,"internalType":"int24"},{"name":"liquidityDelta","type":"int256","indexed":false,"internalType":"int256"},{"name":"salt","type":"bytes32","indexed":false,"internalType":"bytes32"}],"anonymous":false},{"type":"event","name":"OperatorSet","inputs":[{"name":"owner","type":"address","indexed":true,"internalType":"address"},{"name":"operator","type":"address","indexed":true,"internalType":"address"},{"name":"approved","type":"bool","indexed":false,"internalType":"bool"}],"anonymous":false},{"type":"event","name":"OwnershipTransferred","inputs":[{"name":"user","type":"address","indexed":true,"internalType":"address"},{"name":"newOwner","type":"address","indexed":true,"internalType":"address"}],"anonymous":false},{"type":"event","name":"ProtocolFeeControllerUpdated","inputs":[{"name":"protocolFeeController","type":"address","indexed":true,"internalType":"address"}],"anonymous":false},{"type":"event","name":"ProtocolFeeUpdated","inputs":[{"name":"id","type":"bytes32","indexed":true,"internalType":"PoolId"},{"name":"protocolFee","type":"uint24","indexed":false,"internalType":"uint24"}],"anonymous":false},{"type":"event","name":"Swap","inputs":[{"name":"id","type":"bytes32","indexed":true,"internalType":"PoolId"},{"name":"sender","type":"address","indexed":true,"internalType":"address"},{"name":"amount0","type":"int128","indexed":false,"internalType":"int128"},{"name":"amount1","type":"int128","indexed":false,"internalType":"int128"},{"name":"sqrtPriceX96","type":"uint160","indexed":false,"internalType":"uint160"},{"name":"liquidity","type":"uint128","indexed":false,"internalType":"uint128"},{"name":"tick","type":"int24","indexed":false,"internalType":"int24"},{"name":"fee","type":"uint24","indexed":false,"internalType":"uint24"}],"anonymous":false},{"type":"event","name":"Transfer","inputs":[{"name":"caller","type":"address","indexed":false,"internalType":"address"},{"name":"from","type":"address","indexed":true,"internalType":"address"},{"name":"to","type":"address","indexed":true,"internalType":"address"},{"name":"id","type":"uint256","indexed":true,"internalType":"uint256"},{"name":"amount","type":"uint256","indexed":false,"internalType":"uint256"}],"anonymous":false},{"type":"error","name":"AlreadyUnlocked","inputs":[]},{"type":"error","name":"CurrenciesOutOfOrderOrEqual","inputs":[{"name":"currency0","type":"address","internalType":"address"},{"name":"currency1","type":"address","internalType":"address"}]},{"type":"error","name":"CurrencyNotSettled","inputs":[]},{"type":"error","name":"DelegateCallNotAllowed","inputs":[]},{"type":"error","name":"HookAddressNotValid","inputs":[{"name":"hooks","type":"address","internalType":"address"}]},{"type":"error","name":"InvalidCaller","inputs":[]},{"type":"error","name":"InvalidFeeForExactOut","inputs":[]},{"type":"error","name":"InvalidSqrtPrice","inputs":[{"name":"sqrtPriceX96","type":"uint160","internalType":"uint160"}]},{"type":"error","name":"InvalidTick","inputs":[{"name":"tick","type":"int24","internalType":"int24"}]},{"type":"error","name":"ManagerLocked","inputs":[]},{"type":"error","name":"MustClearExactPositiveDelta","inputs":[]},{"type":"error","name":"NoLiquidityToReceiveFees","inputs":[]},{"type":"error","name":"NonzeroNativeValue","inputs":[]},{"type":"error","name":"PoolAlreadyInitialized","inputs":[]},{"type":"error","name":"PoolNotInitialized","inputs":[]},{"type":"error","name":"PoolNotInitialized","inputs":[]},{"type":"error","name":"PriceLimitAlreadyExceeded","inputs":[{"name":"sqrtPriceCurrentX96","type":"uint160","internalType":"uint160"},{"name":"sqrtPriceLimitX96","type":"uint160","internalType":"uint160"}]},{"type":"error","name":"PriceLimitOutOfBounds","inputs":[{"name":"sqrtPriceLimitX96","type":"uint160","internalType":"uint160"}]},{"type":"error","name":"ProtocolFeeCurrencySynced","inputs":[]},{"type":"error","name":"ProtocolFeeTooLarge","inputs":[{"name":"fee","type":"uint24","internalType":"uint24"}]},{"type":"error","name":"SafeCastOverflow","inputs":[]},{"type":"error","name":"SwapAmountCannotBeZero","inputs":[]},{"type":"error","name":"TickLiquidityOverflow","inputs":[{"name":"tick","type":"int24","internalType":"int24"}]},{"type":"error","name":"TickLowerOutOfBounds","inputs":[{"name":"tickLower","type":"int24","internalType":"int24"}]},{"type":"error","name":"TickSpacingTooLarge","inputs":[{"name":"tickSpacing","type":"int24","internalType":"int24"}]},{"type":"error","name":"TickSpacingTooSmall","inputs":[{"name":"tickSpacing","type":"int24","internalType":"int24"}]},{"type":"error","name":"TickUpperOutOfBounds","inputs":[{"name":"tickUpper","type":"int24","internalType":"int24"}]},{"type":"error","name":"TicksMisordered","inputs":[{"name":"tickLower","type":"int24","internalType":"int24"},{"name":"tickUpper","type":"int24","internalType":"int24"}]},{"type":"error","name":"UnauthorizedDynamicLPFeeUpdate","inputs":[]}],"bytecode":{"object":"0x60a0604052348015600e575f5ffd5b506040516150f03803806150f0833981016040819052602b91607f565b5f80546001600160a01b0319166001600160a01b038316908117825560405183928392917f8be0079c531659141344cd1fd0a4f28419497f9722a3daafe3b4186f6b6457e0908290a35050306080525060aa565b5f60208284031215608e575f5ffd5b81516001600160a01b038116811460a3575f5ffd5b9392505050565b60805161502e6100c25f395f61182b015261502e5ff3fe60806040526004361061017c575f3560e01c8062fdd58e1461018057806301ffc9a7146101c9578063095bcdb6146101f85780630b0d9c091461021757806311da60b414610238578063156e29f6146102405780631e2eaeaf1461025f578063234266d71461027e5780632d7713891461029d57806335fd631a146102bc5780633dd45adb146102e8578063426a8493146102fb57806348c894911461031a5780635275965114610346578063558a729714610365578063598af9e7146103845780635a6bcfda146103c05780636276cbbe146103f45780637e87ce7d1461042057806380f0b44c1461043f5780638161b8741461045e5780638da5cb5b1461047d57806397e8cd4e146104a85780639bf6645f146104d3578063a5841194146104f2578063b6363cf214610511578063dbd035ff1461054a578063f02de3b214610569578063f135baaa14610588578063f2fde38b146105a7578063f3cd914c146105c6578063f5298aca146105e5578063fe99049a14610604575b5f5ffd5b34801561018b575f5ffd5b506101b661019a3660046143fe565b600460209081525f928352604080842090915290825290205481565b6040519081526020015b60405180910390f35b3480156101d4575f5ffd5b506101e86101e3366004614428565b610623565b60405190151581526020016101c0565b348015610203575f5ffd5b506101e861021236600461444f565b610659565b348015610222575f5ffd5b50610236610231366004614481565b610708565b005b6101b661075b565b34801561024b575f5ffd5b5061023661025a36600461444f565b61078f565b34801561026a575f5ffd5b506101b66102793660046144bf565b6107e4565b348015610289575f5ffd5b506101b661029836600461463e565b6107ee565b3480156102a8575f5ffd5b506102366102b73660046146a2565b6108cd565b3480156102c7575f5ffd5b506102db6102d63660046146bd565b610948565b6040516101c091906146dd565b6101b66102f63660046146a2565b610985565b348015610306575f5ffd5b506101e861031536600461444f565b6109b9565b348015610325575f5ffd5b5061033961033436600461471f565b610a1d565b6040516101c0919061475d565b348015610351575f5ffd5b50610236610360366004614792565b610aeb565b348015610370575f5ffd5b506101e861037f3660046147d3565b610b66565b34801561038f575f5ffd5b506101b661039e366004614481565b600560209081525f938452604080852082529284528284209052825290205481565b3480156103cb575f5ffd5b506103df6103da3660046147fd565b610bd5565b604080519283526020830191909152016101c0565b3480156103ff575f5ffd5b5061041361040e36600461489f565b610d75565b6040516101c091906148d5565b34801561042b575f5ffd5b5061023661043a366004614792565b610f6e565b34801561044a575f5ffd5b506102366104593660046143fe565b611028565b348015610469575f5ffd5b506101b6610478366004614481565b61109f565b348015610488575f5ffd5b505f5461049b906001600160a01b031681565b6040516101c091906148e3565b3480156104b3575f5ffd5b506101b66104c23660046146a2565b60016020525f908152604090205481565b3480156104de575f5ffd5b506102db6104ed3660046148f7565b61118c565b3480156104fd575f5ffd5b5061023661050c3660046146a2565b6111c5565b34801561051c575f5ffd5b506101e861052b366004614966565b600360209081525f928352604080842090915290825290205460ff1681565b348015610555575f5ffd5b506102db6105643660046148f7565b61120a565b348015610574575f5ffd5b5060025461049b906001600160a01b031681565b348015610593575f5ffd5b506101b66105a23660046144bf565b611241565b3480156105b2575f5ffd5b506102366105c13660046146a2565b61124b565b3480156105d1575f5ffd5b506101b66105e0366004614992565b6112be565b3480156105f0575f5ffd5b506102366105ff36600461444f565b61140e565b34801561060f575f5ffd5b506101e861061e366004614a30565b611463565b5f6301ffc9a760e01b6001600160e01b0319831614806106535750630f632fb360e01b6001600160e01b03198316145b92915050565b335f908152600460209081526040808320858452909152812080548391908390610684908490614a87565b90915550506001600160a01b0384165f908152600460209081526040808320868452909152812080548492906106bb908490614a9a565b9250508190555082846001600160a01b0316336001600160a01b03165f516020614f795f395f51905f5233866040516106f5929190614aad565b60405180910390a45060015b9392505050565b6107106115c7565b61072d576040516354e3ca0d60e01b815260040160405180910390fd5b6107428361073a836115d9565b5f0333611602565b6107566001600160a01b0384168383611655565b505050565b5f6107646115c7565b610781576040516354e3ca0d60e01b815260040160405180910390fd5b61078a336116fd565b905090565b6107976115c7565b6107b4576040516354e3ca0d60e01b815260040160405180910390fd5b816107c28161073a846115d9565b6107de846107d8836001600160a01b031661179b565b846117a7565b50505050565b5f81545f5260205ff35b5f6107f76115c7565b610814576040516354e3ca0d60e01b815260040160405180910390fd5b61081c611820565b60a086205f61082a8261186b565b90506108358161187b565b6080880151610851906001600160a01b031689898989896118ae565b61085c81888861193b565b92506108698884336119d7565b6040805188815260208101889052339184917f29ef05caaff9404b7cb6d1c0e9bbae9eaa7ab2541feba1a9c4248594c08156cb910160405180910390a360808801516108c2906001600160a01b031689898989896119ff565b505095945050505050565b5f546001600160a01b031633146108ff5760405162461bcd60e51b81526004016108f690614ac6565b60405180910390fd5b600280546001600160a01b0319166001600160a01b0383169081179091556040517fb4bd8ef53df690b9943d3318996006dbb82a25f54719d8c8035b516a2a5b8acc905f90a250565b6060604051808360051b6020835284602084015260408301925080830190505b855483526020830192506001860195508083106109685781810382f35b5f61098e6115c7565b6109ab576040516354e3ca0d60e01b815260040160405180910390fd5b610653826116fd565b919050565b335f8181526005602090815260408083206001600160a01b03881680855290835281842087855290925280832085905551919285927fb3fd5071835887567a0671151121894ddccc2842f1d10bedad13e0d17cace9a7906106f59087815260200190565b6060610a276115c7565b15610a45576040516328486b6360e11b815260040160405180910390fd5b610a4d611a81565b6040516348eeb9a360e11b815233906391dd734690610a729086908690600401614b14565b5f604051808303815f875af1158015610a8d573d5f5f3e3d5ffd5b505050506040513d5f823e601f3d908101601f19168201604052610ab49190810190614b27565b90505f516020614fd95f395f51905f525c15610ae357604051635212cba160e01b815260040160405180910390fd5b610653611a94565b610afd826040015162ffffff16611aa6565b1580610b1f575081608001516001600160a01b0316336001600160a01b031614155b15610b3d576040516330d2164160e01b815260040160405180910390fd5b610b4b8162ffffff16611ab3565b60a082205f8181526006602052604090206107569083611ad9565b335f8181526003602090815260408083206001600160a01b038716808552908352818420805460ff191687151590811790915591519182529293917fceb576d9f15e4e200fdb5096d64d5dfd667e16def20c1eefd14256d8e3faa267910160405180910390a350600192915050565b5f5f610bdf6115c7565b610bfc576040516354e3ca0d60e01b815260040160405180910390fd5b610c04611820565b60a086205f610c128261186b565b9050610c1d8161187b565b6080880151610c38906001600160a01b031689898989611af4565b5f610c9f6040518060c00160405280336001600160a01b031681526020018a5f015160020b81526020018a6020015160020b8152602001610c7c8b60400151611c10565b600f0b81526060808d015160020b60208301528b01516040909101528390611c35565b94509050610cad8185611f80565b94505050336001600160a01b0316817ff208f4912782fd25c7f114ca3723a2d5dd6f3bcc3ac8db5af63baa85f711d5ec885f015189602001518a604001518b60600151604051610d1e9493929190600294850b81529290930b60208301526040820152606081019190915260800190565b60405180910390a360808701515f90610d45906001600160a01b0316898987878b8b611fb3565b90945090508015610d5f57610d5f88828a608001516119d7565b610d6a8885336119d7565b505094509492505050565b5f610d7e611820565b6060830151617fff60029190910b1315610db15782606001516040516316e0049f60e31b81526004016108f691906148d5565b600160020b836060015160020b1215610de3578260600151604051631d3d20b160e31b81526004016108f691906148d5565b825160208401516001600160a01b03908116911610610e1e57825160208401516040516306e6c98360e41b81526108f6929190600401614bb9565b610e42836040015184608001516001600160a01b031661210e90919063ffffffff16565b610e65578260800151604051630732d7b560e51b81526004016108f691906148e3565b5f610e78846040015162ffffff16612246565b6080850151909150610e94906001600160a01b0316858561226f565b60a084205f818152600660205260409020610eb09085846122ec565b925084602001516001600160a01b0316855f01516001600160a01b0316827fdd466e674ea557f56295e2d0218a125ea4b4f0f6f3307b95f85e6110838d6438886040015189606001518a608001518a8a604051610f4495949392919062ffffff959095168552600293840b60208601526001600160a01b03928316604086015291166060840152900b608082015260a00190565b60405180910390a46080850151610f66906001600160a01b0316868686612353565b505092915050565b6002546001600160a01b03163314610f99576040516348f5c3ed60e01b815260040160405180910390fd5b6103e9610fff821610623e900062fff00083161016610fd25760405163a7abe2f760e01b815262ffffff821660048201526024016108f6565b60a08220610fe982610fe38361186b565b906123d2565b60405162ffffff8316815281907fe9c42593e71f84403b84352cd168d693e2c9fcd1fdbcc3feb21d92b43e6696f99060200160405180910390a2505050565b6110306115c7565b61104d576040516354e3ca0d60e01b815260040160405180910390fd5b5f6110616001600160a01b038416336123f9565b90505f61106d836115d9565b90508181600f0b146110925760405163bda73abf60e01b815260040160405180910390fd5b6107de84825f0333611602565b6002545f906001600160a01b031633146110cc576040516348f5c3ed60e01b815260040160405180910390fd5b6110de836001600160a01b031661240e565b15801561110357506111036110f161241b565b846001600160a01b0390811691161490565b15611121576040516318f3cb2960e31b815260040160405180910390fd5b811561112d5781611146565b6001600160a01b0383165f908152600160205260409020545b6001600160a01b0384165f90815260016020526040812080549293508392909190611172908490614a87565b9091555061070190506001600160a01b0384168583611655565b606060405180602082528360208301526040820191508360051b8201855b80355c8452602093840193018184106111aa575b5081810382f35b6111d7816001600160a01b031661240e565b156111e7576111e461242d565b50565b5f6111fa826001600160a01b031661243f565b905061120682826124c9565b5050565b606060405180602082528360208301526040820191508360051b8201855b803554845260209384019301818410156111be57611228565b5f815c5f5260205ff35b5f546001600160a01b031633146112745760405162461bcd60e51b81526004016108f690614ac6565b5f80546001600160a01b0319166001600160a01b0383169081178255604051909133917f8be0079c531659141344cd1fd0a4f28419497f9722a3daafe3b4186f6b6457e09190a350565b5f6112c76115c7565b6112e4576040516354e3ca0d60e01b815260040160405180910390fd5b6112ec611820565b83602001515f036113105760405163be8b850760e01b815260040160405180910390fd5b60a085205f61131e8261186b565b90506113298161187b565b60808701515f908190819061134a906001600160a01b03168b8b8b8b6124f6565b8093508195508294505050506113b984866040518060a001604052808681526020018e6060015160020b81526020018d5f0151151581526020018d604001516001600160a01b031681526020018562ffffff168152508c5f01516113b2578d60200151612636565b8d51612636565b60808b01519096505f92506113dd91506001600160a01b03168a8a888b8b88612714565b909550905080156113f7576113f789828b608001516119d7565b6114028986336119d7565b50505050949350505050565b6114166115c7565b611433576040516354e3ca0d60e01b815260040160405180910390fd5b8161144781611441846115d9565b33611602565b6107de8461145d836001600160a01b031661179b565b84612846565b5f336001600160a01b038616148015906114a057506001600160a01b0385165f90815260036020908152604080832033845290915290205460ff16155b15611510576001600160a01b0385165f90815260056020908152604080832033845282528083208684529091529020545f19811461150e576114e28382614a87565b6001600160a01b0387165f90815260056020908152604080832033845282528083208884529091529020555b505b6001600160a01b0385165f90815260046020908152604080832086845290915281208054849290611542908490614a87565b90915550506001600160a01b0384165f90815260046020908152604080832086845290915281208054849290611579908490614a9a565b9250508190555082846001600160a01b0316866001600160a01b03165f516020614f795f395f51905f5233866040516115b3929190614aad565b60405180910390a45060015b949350505050565b5f516020614f995f395f51905f525c90565b5f6001607f1b82106115fe576040516393dafdf160e01b815260040160405180910390fd5b5090565b81600f0b5f0361161157505050565b5f806116276001600160a01b0386168486612904565b91509150805f0361163f5761163a612933565b61164e565b815f0361164e5761164e61295b565b5050505050565b5f611668846001600160a01b031661240e565b15611693575f5f5f5f85875af190508061168e5761168e835f633d2cec6f60e21b612983565b6107de565b60405163a9059cbb60e01b81526001600160a01b038416600482015282602482015260205f6044835f895af13d15601f3d1160015f511416171691505f81525f60208201525f604082015250806107de576107de8463a9059cbb60e01b633c9fd93960e21b612983565b5f5f61170761241b565b905061171b816001600160a01b031661240e565b1561172857349150611782565b341561174757604051635876424f60e11b815260040160405180910390fd5b5f516020614fb95f395f51905f525c5f6117696001600160a01b03841661243f565b90506117758282614a87565b935061177f61242d565b50505b6117958161178f846115d9565b85611602565b50919050565b6001600160a01b031690565b6001600160a01b0383165f908152600460209081526040808320858452909152812080548392906117d9908490614a9a565b9250508190555081836001600160a01b03165f6001600160a01b03165f516020614f795f395f51905f523385604051611813929190614aad565b60405180910390a4505050565b306001600160a01b037f00000000000000000000000000000000000000000000000000000000000000001614611869576040516306c4a1c760e11b815260040160405180910390fd5b565b5f90815260066020526040902090565b80546118869061179b565b6001600160a01b03165f036111e45760405163486aa30760e01b815260040160405180910390fd5b85336001600160a01b03821614611932576118d36001600160a01b03881660206129fb565b15611932576119303387878787876040516024016118f696959493929190614c16565b60408051601f198184030181529190526020810180516001600160e01b0316635b54587d60e11b1790526001600160a01b03891690612a0a565b505b50505050505050565b60038301545f906001600160801b031680820361196b5760405163a74f97ab60e01b815260040160405180910390fd5b611989611977856115d9565b5f03611982856115d9565b5f03612aa4565b915083156119ad576001850180546001600160801b038316600160801b8702040190555b82156119cf576002850180546001600160801b038316600160801b8602040190555b509392505050565b82516119ed906119e78460801d90565b83611602565b61075683602001516119e784600f0b90565b85336001600160a01b0382161461193257611a246001600160a01b03881660106129fb565b1561193257611930338787878787604051602401611a4796959493929190614c16565b60408051601f198184030181529190526020810180516001600160e01b031663e1b4af6960e01b1790526001600160a01b03891690612a0a565b60015f516020614f995f395f51905f525d565b5f5f516020614f995f395f51905f525d565b62ffffff16628000001490565b620f424062ffffff821611156111e4576111e4631400211360e01b62ffffff8316612ab7565b611ae28261187b565b8154611aee9082612acc565b90915550565b84336001600160a01b03821614611c08575f8460400151138015611b285750611b286001600160a01b0387166108006129fb565b15611b8957611b833386868686604051602401611b49959493929190614c8c565b60408051601f198184030181529190526020810180516001600160e01b031663259982e560e01b1790526001600160a01b03881690612a0a565b50611c08565b5f846040015113158015611bad5750611bad6001600160a01b0387166102006129fb565b15611c08576119323386868686604051602401611bce959493929190614c8c565b60408051601f198184030181529190526020810180516001600160e01b031663021d0ee760e41b1790526001600160a01b03881690612a0a565b505050505050565b80600f81900b81146109b4576040516393dafdf160e01b815260040160405180910390fd5b6060810151602082015160408301515f9283929091611c548282612ae7565b604080516080810182525f80825260208201819052918101829052606081019190915283600f0b5f14611dab57611c8d8884865f612b70565b6001600160801b0316602083015215158152611cac8883866001612b70565b6001600160801b03166060830152151560408201525f600f85900b12611d705760808701515f9060020b620d89e71981810783139082900503620d89e891909105036001016001600160801b03049050806001600160801b031682602001516001600160801b03161115611d35578360405163b8e3c38560e01b81526004016108f691906148d5565b806001600160801b031682606001516001600160801b03161115611d6e578260405163b8e3c38560e01b81526004016108f691906148d5565b505b805115611d8c576080870151611d8c9060058a01908590612c31565b806040015115611dab576080870151611dab9060058a01908490612c31565b5f5f611db88a8686612c83565b8a5160a08c015160408051602681019290925260068083018a9052600383018b9052928252603a600c8301205f838301819052602080850182905293819052908152928f01909152812092945090925080611e15838a8787612d37565b91509150611e33611e25836115d9565b611e2e836115d9565b612aa4565b995050505050505f84600f0b1215611e6a57805115611e5657611e568884612df0565b806040015115611e6a57611e6a8883612df0565b5082600f0b5f14611f765786545f80611e868360a01c60020b90565b611e8f8461179b565b915091508460020b8260020b1215611ed457611ecd611ec7611ec2611eb388612e13565b611ebc88612e13565b8a6130d5565b611c10565b5f612aa4565b9750611f72565b8360020b8260020b1215611f4d57611f0b611ef5611ec283611ebc88612e13565b611e2e611ec2611f0489612e13565b858b61310d565b60038b0154909850611f26906001600160801b031687613139565b60038b0180546001600160801b0319166001600160801b0392909216919091179055611f72565b611f6f5f611e2e611ec2611f6089612e13565b611f6989612e13565b8b61310d565b97505b5050505b5050509250929050565b5f608082811d9084901d01600f83810b9085900b01611faa611fa183611c10565b611e2e83611c10565b95945050505050565b5f806001600160a01b0389163303611fcf57508490505f612102565b8591505f8760400151131561207b57611ff36001600160a01b038a166104006129fb565b1561207657612067338989898989896040516024016120189796959493929190614ccb565b60408051601f198184030181529190526020810180516001600160e01b03166327c18fbf60e21b1790526120566001600160a01b038c1660026129fb565b6001600160a01b038c169190613160565b905061207382826131a1565b91505b612102565b6120906001600160a01b038a166101006129fb565b15612102576120f3338989898989896040516024016120b59796959493929190614ccb565b60408051601f198184030181529190526020810180516001600160e01b0316633615df3f60e11b1790526120566001600160a01b038c1660016129fb565b90506120ff82826131a1565b91505b97509795505050505050565b5f6121236001600160a01b03841660806129fb565b15801561213f575061213f6001600160a01b03841660086129fb565b1561214b57505f610653565b61215f6001600160a01b03841660406129fb565b15801561217b575061217b6001600160a01b03841660046129fb565b1561218757505f610653565b61219c6001600160a01b0384166104006129fb565b1580156121b857506121b86001600160a01b03841660026129fb565b156121c457505f610653565b6121d96001600160a01b0384166101006129fb565b1580156121f557506121f56001600160a01b03841660016129fb565b1561220157505f610653565b6001600160a01b0383161561223057613fff831615158061222b575061222b8262ffffff16611aa6565b610701565b61223e8262ffffff16611aa6565b159392505050565b5f6122558262ffffff16611aa6565b1561226157505f919050565b6115fe8262ffffff16611ab3565b82336001600160a01b038216146107de576122956001600160a01b0385166120006129fb565b156107de5761164e3384846040516024016122b293929190614d18565b60408051601f198184030181529190526020810180516001600160e01b0316636e4c1aa760e11b1790526001600160a01b03861690612a0a565b5f6122f9845f015461179b565b6001600160a01b03161561232057604051637983c05160e01b815260040160405180910390fd5b612329836131c2565b9050612349826123438361233d5f88613429565b90613443565b90612acc565b9093555090919050565b83336001600160a01b0382161461164e576123796001600160a01b0386166110006129fb565b1561164e57611c08338585856040516024016123989493929190614d4e565b60408051601f198184030181529190526020810180516001600160e01b0316636fe7e6eb60e01b1790526001600160a01b03871690612a0a565b6123db8261187b565b815462ffffff60b81b191662ffffff60b81b60b883901b1617611aee565b5f5f612405838561345e565b5c949350505050565b6001600160a01b03161590565b5f516020614f595f395f51905f525c90565b5f5f516020614f595f395f51905f525d565b5f612452826001600160a01b031661240e565b1561245e575047919050565b6040516370a0823160e01b81526001600160a01b038316906370a082319061248a9030906004016148e3565b602060405180830381865afa1580156124a5573d5f5f3e3d5ffd5b505050506040513d601f19601f820116820180604052508101906106539190614d8f565b6001600160a01b0382165f516020614f595f395f51905f525d805f516020614fb95f395f51905f525d5050565b60208301515f806001600160a01b0388163303612515575f915061262b565b6125296001600160a01b03891660806129fb565b1561262b575f61257b89338a8a8a8a60405160240161254c959493929190614dca565b60408051601f198184030181529190526020810180516001600160e01b03166315d7892d60e21b179052612a0a565b9050805160601461259657612596631e048e1d60e01b613479565b6125a8886040015162ffffff16611aa6565b156125b557606081015191505b6125c96001600160a01b038a1660086129fb565b1561262957604081015192505f6125e08460801d90565b905080600f0b5f14612627575f85126125fd600f83900b87614e09565b95508061260c575f8612612610565b5f86135b1561262557612625637d05b8eb60e11b613479565b505b505b505b955095509592505050565b5f808080806126458988613481565b93509350935093505f831115612673576001600160a01b0386165f9081526001602052604090208054840190555b33887f40e9cecb9f5f1f1c5b9c97dec2917b7ee92e57ba5563708daca94dd84ad7112f6126a08760801d90565b6126aa88600f0b90565b85516040808801516020808a01518351600f97880b81529590960b908501526001600160a01b03909216908301526001600160801b0316606082015260029190910b608082015262ffffff861660a082015260c00160405180910390a35091979650505050505050565b5f806001600160a01b038916330361273057508490505f612102565b5f61273b8460801d90565b90505f61274885600f0b90565b905061275e6001600160a01b038c1660406129fb565b156127e0576127d3611ec2338c8c8c8c8c60405160240161278496959493929190614e28565b60408051601f198184030181529190526020810180516001600160e01b031663b47b2fb160e01b1790526127c26001600160a01b038f1660046129fb565b6001600160a01b038f169190613160565b6127dd9082614e6e565b90505b5f81600f0b5f1415806127f6575082600f0b5f14155b1561283457895160208b01515f139015151461281b576128168284612aa4565b612825565b6128258383612aa4565b905061283189826131a1565b98505b979b979a509698505050505050505050565b336001600160a01b038416811480159061288557506001600160a01b038085165f9081526003602090815260408083209385168352929052205460ff16155b156128f9576001600160a01b038085165f9081526005602090815260408083209385168352928152828220868352905220545f1981146128f7576128c98382614a87565b6001600160a01b038087165f9081526005602090815260408083209387168352928152828220888352905220555b505b6107de848484613b05565b5f5f5f612911858761345e565b805c93509050612925600f85900b84614e09565b915081815d50935093915050565b5f516020614fd95f395f51905f525c600181039050805f516020614fd95f395f51905f525d50565b5f516020614fd95f395f51905f525c600181019050805f516020614fd95f395f51905f525d50565b6040516390bfb86560e01b8082526001600160a01b03851660048301526001600160e01b031984166024830152608060448301526020601f3d018190040260a0810160648401523d608484015290913d5f60a483013e60048260a4018201526001600160e01b031984168260c4018201528160e40181fd5b166001600160a01b0316151590565b60605f5f5f8451602086015f885af1905080612a3a57612a3a84612a2d85614e9b565b63a9e35b2f60e01b612983565b6040519150601f19603f3d011682016040523d82523d5f602084013e602082511080612a88575060208301516001600160e01b031916612a7b836020015190565b6001600160e01b03191614155b15612a9d57612a9d631e048e1d60e01b613479565b5092915050565b6001600160801b031660809190911b1790565b815f526001600160a01b03811660045260245ffd5b60d01b62ffffff60d01b1662ffffff60d01b19919091161790565b8060020b8260020b12612b1b5760405163c4433ed560e01b8152600283810b600483015282900b60248201526044016108f6565b620d89e719600283900b1215612b46578160405163d5e2f7ab60e01b81526004016108f691906148d5565b620d89e8600282900b1315611206578060405163035aeeff60e31b81526004016108f691906148d5565b600283900b5f908152600485016020526040812080548291906001600160801b03811690600160801b9004600f0b612ba88288613139565b6001600160801b03808216159084168015919091141596509094505f03612bf257885460a01c60020b60020b8860020b13612bf2576001808a0154908401556002808a0154908401555b5f86612c0757612c028883614e6e565b612c11565b612c118883614ed9565b90508060801b6001600160801b0386161784555050505094509492505050565b600291820b910b80820715612c5e5760405163d4d8f3e681528260208201528160408201526044601c8201fd5b80820591508160081d5f528260205260405f20600160ff84161b815418815550505050565b600282810b5f81815260048601602052604080822085850b83529082208754929485949293919260a09290921c900b90811215612cd9578160010154836001015403945081600201548360020154039350612d2c565b8560020b8160020b12612d05578260010154826001015403945082600201548260020154039350612d2c565b81600101548360010154896001015403039450816002015483600201548960020154030393505b505050935093915050565b83545f9081906001600160801b0316600f86900b8203612d7657806001600160801b03165f03612d7157612d71632bbfae4960e21b613479565b612d9c565b612d808187613139565b87546001600160801b0319166001600160801b03919091161787555b612dba87600101548603826001600160801b0316600160801b613b71565b9250612dda87600201548503826001600160801b0316600160801b613b71565b6001880195909555505060029094015591929050565b600290810b5f908152600490920160205260408220828155600181018390550155565b60020b5f60ff82901d80830118620d89e8811115612e4657826040516345c3193d60e11b81526004016108f691906148d5565b7001fffcb933bd6fad37aa2d162d1a5940016001821602600160801b186002821615612e82576ffff97272373d413259a46990580e213a0260801c5b6004821615612ea1576ffff2e50f5f656932ef12357cf3c7fdcc0260801c5b6008821615612ec0576fffe5caca7e10e4e61c3624eaa0941cd00260801c5b6010821615612edf576fffcb9843d60f6159c9db58835c9266440260801c5b6020821615612efe576fff973b41fa98c081472e6896dfb254c00260801c5b6040821615612f1d576fff2ea16466c96a3843ec78b326b528610260801c5b6080821615612f3c576ffe5dee046a99a2a811c461f1969c30530260801c5b610100821615612f5c576ffcbe86c7900a88aedcffc83b479aa3a40260801c5b610200821615612f7c576ff987a7253ac413176f2b074cf7815e540260801c5b610400821615612f9c576ff3392b0822b70005940c7a398e4b70f30260801c5b610800821615612fbc576fe7159475a2c29b7443b29c7fa6e889d90260801c5b611000821615612fdc576fd097f3bdfd2022b8845ad8f792aa58250260801c5b612000821615612ffc576fa9f746462d870fdf8a65dc1f90e061e50260801c5b61400082161561301c576f70d869a156d2a1b890bb3df62baf32f70260801c5b61800082161561303c576f31be135f97d08fd981231505542fcfa60260801c5b6201000082161561305d576f09aa508b5b7a84e1c677de54f3e99bc90260801c5b6202000082161561307d576e5d6af8dedb81196699c329225ee6040260801c5b6204000082161561309c576d2216e584f5fa1ea926041bedfe980260801c5b620800008216156130b9576b048a170391f7dc42444e8fa20260801c5b5f8413156130c5575f19045b63ffffffff0160201c9392505050565b5f5f82600f0b126130fc576130f56130f08585856001613c18565b613cdb565b5f036115bf565b6115bf6130f08585855f035f613c18565b5f5f82600f0b12613128576130f56130f08585856001613cfd565b6115bf6130f08585855f035f613cfd565b6001600160801b038216600f82900b01608081901c15610653576393dafdf15f526004601cfd5b5f5f61316c8585612a0a565b90508261317c575f915050610701565b805160401461319557613195631e048e1d60e01b613479565b60400151949350505050565b5f608082811d9084901d03600f83810b9085900b03611faa611fa183611c10565b5f73fffd8963efd1fc6a506488495d951d51639616826401000276a21983016001600160a01b0316111561320b57816040516318521d4960e21b81526004016108f691906148e3565b600160201b600160c01b03602083901b16805f61322782613d49565b60ff1690506080811061324257607f810383901c915061324c565b80607f0383901b91505b908002607f81811c60ff83811c9190911c800280831c81831c1c800280841c81841c1c800280851c81851c1c800280861c81861c1c800280871c81871c1c800280881c81881c1c800280891c81891c1c8002808a1c818a1c1c8002808b1c818b1c1c8002808c1c818c1c1c8002808d1c818d1c1c8002808e1c9c81901c9c909c1c80029c8d901c9e9d607f198f0160401b60c09190911c6001603f1b161760c19b909b1c6001603e1b169a909a1760c29990991c6001603d1b169890981760c39790971c6001603c1b169690961760c49590951c6001603b1b169490941760c59390931c6001603a1b169290921760c69190911c600160391b161760c79190911c600160381b161760c89190911c600160371b161760c99190911c600160361b161760ca9190911c600160351b161760cb9190911c600160341b161760cc9190911c600160331b161760cd9190911c600160321b1617693627a301d71055774c8581026f028f6481ab7f045a5af012a19d003aa9198101608090811d906fdb2df09e81959a81455e260799a0632f8301901d600281810b9083900b1461341a57886001600160a01b03166133ff82612e13565b6001600160a01b03161115613414578161341c565b8061341c565b815b9998505050505050505050565b6001600160a01b03166001600160a01b0319919091161790565b60a01b62ffffff60a01b1662ffffff60a01b19919091161790565b6001600160a01b039182165f90815291166020526040902090565b805f5260045ffd5b604080516060810182525f8082526020820181905291810182905281908190855460408601515f816134bb57610fff60c484901c166134c5565b610fff60b884901c165b885161ffff9190911691505f6134da8561179b565b6001600160a01b031686526134f28560a01c60020b90565b60020b602087015260038b01546001600160801b0316604087015260808a01515f90624000001661352c5760d086901c62ffffff1661353e565b61353e8b6080015162ffffff16613de1565b9050831561356457620f4240610fff851662ffffff831681810292909204910103613566565b805b975050620f42408762ffffff161061359a5789515f121561359a57604051634b10312360e11b815260040160405180910390fd5b89515f036135b2575f5f985098505050505050613afc565b831561364c576135c18561179b565b6001600160a01b03168a606001516001600160a01b031610613606576135e68561179b565b8a60600151604051637c9c6e8f60e01b81526004016108f6929190614bb9565b6401000276a36001600160a01b03168a606001516001600160a01b031611613647578960600151604051639e4d7cc760e01b81526004016108f691906148e3565b6136ca565b6136558561179b565b6001600160a01b03168a606001516001600160a01b03161161367a576135e68561179b565b73fffd8963efd1fc6a506488495d951d5263988d266001600160a01b03168a606001516001600160a01b0316106136ca578960600151604051639e4d7cc760e01b81526004016108f691906148e3565b60408051610100810182525f80825260208201819052918101829052606081018290526080810182905260a0810182905260c0810182905260e081019190915284613719578b6002015461371f565b8b600101545b60e08201525b82158061374a57508a606001516001600160a01b0316875f01516001600160a01b0316145b613a2a5786516001600160a01b03168152602080880151908c01516137749160058f019188613df0565b1515604083015260020b60208201819052620d89e7191261379a57620d89e71960208201525b620d89e860020b816020015160020b126137b857620d89e860208201525b6137c58160200151612e13565b6001600160a01b0390811660608381018290528951908e0151613802939192911680821891811160018a161891909102188960400151868c613edd565b60c085015260a084015260808301526001600160a01b031687528a515f121561385e576138328160a00151613cdb565b8303925061384d8160c0015182608001516130f09190614a9a565b6138579083614f06565b915061388f565b6138718160c00151826080015101613cdb565b830192506138828160a00151613cdb565b61388c9083614e09565b91505b83156138de575f848962ffffff16146138c657620f4240858360c0015184608001510102816138c0576138c0614f25565b046138cc565b8160c001515b60c08301805182900390529990990198505b60408701516001600160801b03161561391e576139128160c00151600160801b89604001516001600160801b031691020490565b60e08201805190910190525b80606001516001600160a01b0316875f01516001600160a01b031603613a04578060400151156139df575f5f8661395e578d600101548360e00151613969565b8260e001518e600201545b915091505f6139b48f85602001518585600292830b5f90815260049094016020526040909320600181018054909203909155908101805490920390915554600160801b9004600f0b90565b905087156139bf575f035b6139cd8a6040015182613139565b6001600160801b031660408b01525050505b846139ee5780602001516139f7565b60018160200151035b60020b6020880152613725565b805187516001600160a01b03908116911614613a255786516139f7906131c2565b613725565b86516020880151613a479190613a41908990613443565b90613429565b8c55604087015160038d01546001600160801b03908116911614613a8c57604087015160038d0180546001600160801b0319166001600160801b039092169190911790555b84613aa05760e081015160028d0155613aab565b60e081015160018d01555b8a515f1385151514613ad857613ad1613ac383611c10565b611e2e858e5f015103611c10565b9950613af5565b613af2613ae9848d5f015103611c10565b611e2e84611c10565b99505b5050505050505b92959194509250565b6001600160a01b0383165f90815260046020908152604080832085845290915281208054839290613b37908490614a87565b92505081905550815f6001600160a01b0316846001600160a01b03165f516020614f795f395f51905f523385604051611813929190614aad565b5f838302815f1985870982811083820303915050805f03613ba2575f8411613b97575f5ffd5b508290049050610701565b808411613bad575f5ffd5b5f848688095f868103871696879004966002600389028118808a02820302808a02820302808a02820302808a02820302808a02820302808a02909103029181900381900460010186841190950394909402919094039290920491909117919091029150509392505050565b5f836001600160a01b0316856001600160a01b03161115613c37579293925b6001600160a01b038516613c515762bfc9215f526004601cfd5b600160601b600160e01b03606084901b166001600160a01b038686031683613ca457866001600160a01b0316613c918383896001600160a01b0316613b71565b81613c9e57613c9e614f25565b04613cd0565b613cd0613cbb8383896001600160a01b0316614040565b886001600160a01b0316808204910615150190565b979650505050505050565b805f8112156109b4576040516393dafdf160e01b815260040160405180910390fd5b5f6001600160a01b038481169086160360ff81901d90810118600160601b6001600160801b038516613d30818484613b71565b9350845f83858409111684019350505050949350505050565b5f5f8211613d55575f5ffd5b600160801b8210613d6857608091821c91015b600160401b8210613d7b57604091821c91015b600160201b8210613d8e57602091821c91015b620100008210613da057601091821c91015b6101008210613db157600891821c91015b60108210613dc157600491821c91015b60048210613dd157600291821c91015b600282106109b457600101919050565b62bfffff81166109b481611ab3565b5f80600284810b9086900b8181078313919005038315613e6f57600281900b60081d600181900b5f908152602089905260409020545f1960ff808516908190039190911c918216801515955090919085613e5157888360ff16860302613e64565b88613e5b82613d49565b840360ff168603025b965050505050613ed3565b6001908101600281900b60081d80830b5f90815260208a905260409020545f1960ff841694851b011990811680151595509293919285613eb957888360ff0360ff16860102613ecc565b8883613ec48361407c565b0360ff168601025b9650505050505b5094509492505050565b5f80808062ffffff85166001600160a01b03808a16908b1610158288128015613fb3575f613f168a5f0385620f424003620f4240613b71565b905082613f2f57613f2a8d8d8d6001613cfd565b613f3c565b613f3c8c8e8d6001613c18565b9650868110613f70578b9750620f42408414613f6757613f62878586620f424003614040565b613f69565b865b9450613f89565b809650613f7f8d8c8386614162565b9750868a5f030394505b82613f9f57613f9a8d898d5f613c18565b613fab565b613fab888e8d5f613cfd565b955050614031565b81613fc957613fc48c8c8c5f613c18565b613fd5565b613fd58b8d8c5f613cfd565b9450848910613fe6578a9650613ff8565b889450613ff58c8b87856141b0565b96505b8161400f5761400a8c888c6001613cfd565b61401c565b61401c878d8c6001613c18565b955061402e868485620f424003614040565b93505b50505095509550955095915050565b5f61404c848484613b71565b90505f828061405d5761405d614f25565b8486091115610701575f198110614072575f5ffd5b6001019392505050565b5f5f8211614088575f5ffd5b5060ff6001600160801b038216156140a357607f19016140ab565b608082901c91505b6001600160401b038216156140c357603f19016140cb565b604082901c91505b63ffffffff8216156140e057601f19016140e8565b602082901c91505b61ffff8216156140fb57600f1901614103565b601082901c91505b60ff821615614115576007190161411d565b600882901c91505b600f82161561412f5760031901614137565b600482901c91505b60038216156141495760011901614151565b600282901c91505b60018216156109b4575f1901919050565b5f6001600160801b038416156001600160a01b03861615171561418c57634f2461b85f526004601cfd5b816141a35761419e85858560016141f3565b611faa565b611faa85858560016142de565b5f6001600160801b038416156001600160a01b0386161517156141da57634f2461b85f526004601cfd5b816141eb5761419e8585855f6142de565b611faa8585855f5b5f8115614263575f6001600160a01b038411156142275761422284600160601b876001600160801b0316613b71565b61423e565b61423e6001600160801b038616606086901b614f39565b905061425b614256826001600160a01b038916614a9a565b6143c0565b9150506115bf565b5f6001600160a01b038411156142905761428b84600160601b876001600160801b0316614040565b6142ad565b6142ad606085901b6001600160801b038716808204910615150190565b9050806001600160a01b038716116142cc57634323a5555f526004601cfd5b6001600160a01b0386160390506115bf565b5f825f036142ed5750836115bf565b600160601b600160e01b03606085901b16821561437f576001600160a01b0386168481029085828161432157614321614f25565b04036143515781810182811061434f5761434583896001600160a01b031683614040565b93505050506115bf565b505b5061425b818561436a6001600160a01b038a1683614f39565b6143749190614a9a565b808204910615150190565b6001600160a01b0386168481029085820414818311166143a65763f5c787f15f526004601cfd5b808203614345614256846001600160a01b038b1684614040565b806001600160a01b03811681146109b4576040516393dafdf160e01b815260040160405180910390fd5b6001600160a01b03811681146111e4575f5ffd5b5f5f6040838503121561440f575f5ffd5b823561441a816143ea565b946020939093013593505050565b5f60208284031215614438575f5ffd5b81356001600160e01b031981168114610701575f5ffd5b5f5f5f60608486031215614461575f5ffd5b833561446c816143ea565b95602085013595506040909401359392505050565b5f5f5f60608486031215614493575f5ffd5b833561449e816143ea565b925060208401356144ae816143ea565b929592945050506040919091013590565b5f602082840312156144cf575f5ffd5b5035919050565b634e487b7160e01b5f52604160045260245ffd5b604051608081016001600160401b038111828210171561450c5761450c6144d6565b60405290565b604051601f8201601f191681016001600160401b038111828210171561453a5761453a6144d6565b604052919050565b803562ffffff811681146109b4575f5ffd5b8035600281900b81146109b4575f5ffd5b5f60a08284031215614575575f5ffd5b60405160a081016001600160401b0381118282101715614597576145976144d6565b60405290508082356145a8816143ea565b815260208301356145b8816143ea565b60208201526145c960408401614542565b60408201526145da60608401614554565b606082015260808301356145ed816143ea565b6080919091015292915050565b5f5f83601f84011261460a575f5ffd5b5081356001600160401b03811115614620575f5ffd5b602083019150836020828501011115614637575f5ffd5b9250929050565b5f5f5f5f5f6101008688031215614653575f5ffd5b61465d8787614565565b945060a0860135935060c0860135925060e08601356001600160401b03811115614685575f5ffd5b614691888289016145fa565b969995985093965092949392505050565b5f602082840312156146b2575f5ffd5b8135610701816143ea565b5f5f604083850312156146ce575f5ffd5b50508035926020909101359150565b602080825282518282018190525f918401906040840190835b818110156147145783518352602093840193909201916001016146f6565b509095945050505050565b5f5f60208385031215614730575f5ffd5b82356001600160401b03811115614745575f5ffd5b614751858286016145fa565b90969095509350505050565b602081525f82518060208401528060208501604085015e5f604082850101526040601f19601f83011684010191505092915050565b5f5f60c083850312156147a3575f5ffd5b6147ad8484614565565b91506147bb60a08401614542565b90509250929050565b803580151581146109b4575f5ffd5b5f5f604083850312156147e4575f5ffd5b82356147ef816143ea565b91506147bb602084016147c4565b5f5f5f5f848603610140811215614812575f5ffd5b61481c8787614565565b94506080609f198201121561482f575f5ffd5b506148386144ea565b61484460a08701614554565b815261485260c08701614554565b602082015260e08601356040820152610100860135606082015292506101208501356001600160401b03811115614887575f5ffd5b614893878288016145fa565b95989497509550505050565b5f5f60c083850312156148b0575f5ffd5b6148ba8484614565565b915060a08301356148ca816143ea565b809150509250929050565b60029190910b815260200190565b6001600160a01b0391909116815260200190565b5f5f60208385031215614908575f5ffd5b82356001600160401b0381111561491d575f5ffd5b8301601f8101851361492d575f5ffd5b80356001600160401b03811115614942575f5ffd5b8560208260051b8401011115614956575f5ffd5b6020919091019590945092505050565b5f5f60408385031215614977575f5ffd5b8235614982816143ea565b915060208301356148ca816143ea565b5f5f5f5f8486036101208112156149a7575f5ffd5b6149b18787614565565b94506060609f19820112156149c4575f5ffd5b50604051606081016001600160401b03811182821017156149e7576149e76144d6565b6040526149f660a087016147c4565b815260c0860135602082015260e0860135614a10816143ea565b604082015292506101008501356001600160401b03811115614887575f5ffd5b5f5f5f5f60808587031215614a43575f5ffd5b8435614a4e816143ea565b93506020850135614a5e816143ea565b93969395505050506040820135916060013590565b634e487b7160e01b5f52601160045260245ffd5b8181038181111561065357610653614a73565b8082018082111561065357610653614a73565b6001600160a01b03929092168252602082015260400190565b6020808252600c908201526b15539055551213d49256915160a21b604082015260600190565b81835281816020850137505f828201602090810191909152601f909101601f19169091010190565b602081525f6115bf602083018486614aec565b5f60208284031215614b37575f5ffd5b81516001600160401b03811115614b4c575f5ffd5b8201601f81018413614b5c575f5ffd5b80516001600160401b03811115614b7557614b756144d6565b614b88601f8201601f1916602001614512565b818152856020838501011115614b9c575f5ffd5b8160208401602083015e5f91810160200191909152949350505050565b6001600160a01b0392831681529116602082015260400190565b80516001600160a01b03908116835260208083015182169084015260408083015162ffffff169084015260608083015160020b9084015260809182015116910152565b6001600160a01b0387168152614c2f6020820187614bd3565b8460c08201528360e08201526101206101008201525f614c5461012083018486614aec565b98975050505050505050565b805160020b8252602081015160020b602083015260408101516040830152606081015160608301525050565b6001600160a01b0386168152614ca56020820186614bd3565b614cb260c0820185614c60565b6101606101408201525f613cd061016083018486614aec565b6001600160a01b0388168152614ce46020820188614bd3565b614cf160c0820187614c60565b84610140820152836101608201526101a06101808201525f61341c6101a083018486614aec565b6001600160a01b038416815260e08101614d356020830185614bd3565b6001600160a01b039290921660c0919091015292915050565b6001600160a01b03851681526101008101614d6c6020830186614bd3565b6001600160a01b039390931660c082015260029190910b60e09091015292915050565b5f60208284031215614d9f575f5ffd5b5051919050565b805115158252602080820151908301526040908101516001600160a01b0316910152565b6001600160a01b0386168152614de36020820186614bd3565b614df060c0820185614da6565b6101406101208201525f613cd061014083018486614aec565b8082018281125f831280158216821582161715610f6657610f66614a73565b6001600160a01b0387168152614e416020820187614bd3565b614e4e60c0820186614da6565b836101208201526101606101408201525f614c5461016083018486614aec565b600f81810b9083900b0160016001607f1b03811360016001607f1b03198212171561065357610653614a73565b805160208201516001600160e01b0319811691906004821015614ed2576001600160e01b0319600483900360031b81901b82161692505b5050919050565b600f82810b9082900b0360016001607f1b0319811260016001607f1b038213171561065357610653614a73565b8181035f831280158383131683831282161715612a9d57612a9d614a73565b634e487b7160e01b5f52601260045260245ffd5b5f82614f5357634e487b7160e01b5f52601260045260245ffd5b50049056fe27e098c505d44ec3574004bca052aabf76bd35004c182099d8c575fb238593b91b3d7edb2e9c0b0e7c525b20aaaef0f5940d2ed71663c7d39266ecafac728859c090fc4683624cfc3884e9d8de5eca132f2d0ec062aff75d43c0465d5ceeab231e0745a7db1623981f0b2a5d4232364c00787266eb75ad546f190e6cebe9bd957d4b3164c6e45b97e7d87b7125a44c5828d005af88f9d751cfd78729c5d99a0ba2646970667358221220470693f31e793b5b7740cb723d66d8384dd5c588cc307e9f76fe8ad8000675bb64736f6c634300081e0033","linkReferences":{}},"methodIdentifiers":{"allowance(address,address,uint256)":"598af9e7","approve(address,uint256,uint256)":"426a8493","balanceOf(address,uint256)":"00fdd58e","burn(address,uint256,uint256)":"f5298aca","clear(address,uint256)":"80f0b44c","collectProtocolFees(address,address,uint256)":"8161b874","donate((address,address,uint24,int24,address),uint256,uint256,bytes)":"234266d7","extsload(bytes32)":"1e2eaeaf","extsload(bytes32,uint256)":"35fd631a","extsload(bytes32[])":"dbd035ff","exttload(bytes32)":"f135baaa","exttload(bytes32[])":"9bf6645f","initialize((address,address,uint24,int24,address),uint160)":"6276cbbe","isOperator(address,address)":"b6363cf2","mint(address,uint256,uint256)":"156e29f6","modifyLiquidity((address,address,uint24,int24,address),(int24,int24,int256,bytes32),bytes)":"5a6bcfda","owner()":"8da5cb5b","protocolFeeController()":"f02de3b2","protocolFeesAccrued(address)":"97e8cd4e","setOperator(address,bool)":"558a7297","setProtocolFee((address,address,uint24,int24,address),uint24)":"7e87ce7d","setProtocolFeeController(address)":"2d771389","settle()":"11da60b4","settleFor(address)":"3dd45adb","supportsInterface(bytes4)":"01ffc9a7","swap((address,address,uint24,int24,address),(bool,int256,uint160),bytes)":"f3cd914c","sync(address)":"a5841194","take(address,address,uint256)":"0b0d9c09","transfer(address,uint256,uint256)":"095bcdb6","transferFrom(address,address,uint256,uint256)":"fe99049a","transferOwnership(address)":"f2fde38b","unlock(bytes)":"48c89491","updateDynamicLPFee((address,address,uint24,int24,address),uint24)":"52759651"},"id":1123}