{"abi":[{"type":"constructor","inputs":[],"stateMutability":"nonpayable"},{"type":"function","name":"Art","inputs":[{"name":"","type":"bytes32","internalType":"bytes32"}],"outputs":[{"name":"","type":"uint256","internalType":"uint256"}],"stateMutability":"view"},{"type":"function","name":"bag","inputs":[{"name":"","type":"address","internalType":"address"}],"outputs":[{"name":"","type":"uint256","internalType":"uint256"}],"stateMutability":"view"},{"type":"function","name":"cage","inputs":[],"outputs":[],"stateMutability":"nonpayable"},{"type":"function","name":"cage","inputs":[{"name":"ilk","type":"bytes32","internalType":"bytes32"}],"outputs":[],"stateMutability":"nonpayable"},{"type":"function","name":"cash","inputs":[{"name":"ilk","type":"bytes32","internalType":"bytes32"},{"name":"wad","type":"uint256","internalType":"uint256"}],"outputs":[],"stateMutability":"nonpayable"},{"type":"function","name":"cat","inputs":[],"outputs":[{"name":"","type":"address","internalType":"contract CatLike"}],"stateMutability":"view"},{"type":"function","name":"debt","inputs":[],"outputs":[{"name":"","type":"uint256","internalType":"uint256"}],"stateMutability":"view"},{"type":"function","name":"deny","inputs":[{"name":"usr","type":"address","internalType":"address"}],"outputs":[],"stateMutability":"nonpayable"},{"type":"function","name":"dog","inputs":[],"outputs":[{"name":"","type":"address","internalType":"contract DogLike"}],"stateMutability":"view"},{"type":"function","name":"file","inputs":[{"name":"what","type":"bytes32","internalType":"bytes32"},{"name":"data","type":"uint256","internalType":"uint256"}],"outputs":[],"stateMutability":"nonpayable"},{"type":"function","name":"file","inputs":[{"name":"what","type":"bytes32","internalType":"bytes32"},{"name":"data","type":"address","internalType":"address"}],"outputs":[],"stateMutability":"nonpayable"},{"type":"function","name":"fix","inputs":[{"name":"","type":"bytes32","internalType":"bytes32"}],"outputs":[{"name":"","type":"uint256","internalType":"uint256"}],"stateMutability":"view"},{"type":"function","name":"flow","inputs":[{"name":"ilk","type":"bytes32","internalType":"bytes32"}],"outputs":[],"stateMutability":"nonpayable"},{"type":"function","name":"free","inputs":[{"name":"ilk","type":"bytes32","internalType":"bytes32"}],"outputs":[],"stateMutability":"nonpayable"},{"type":"function","name":"gap","inputs":[{"name":"","type":"bytes32","internalType":"bytes32"}],"outputs":[{"name":"","type":"uint256","internalType":"uint256"}],"stateMutability":"view"},{"type":"function","name":"live","inputs":[],"outputs":[{"name":"","type":"uint256","internalType":"uint256"}],"stateMutability":"view"},{"type":"function","name":"out","inputs":[{"name":"","type":"bytes32","internalType":"bytes32"},{"name":"","type":"address","internalType":"address"}],"outputs":[{"name":"","type":"uint256","internalType":"uint256"}],"stateMutability":"view"},{"type":"function","name":"pack","inputs":[{"name":"wad","type":"uint256","internalType":"uint256"}],"outputs":[],"stateMutability":"nonpayable"},{"type":"function","name":"pot","inputs":[],"outputs":[{"name":"","type":"address","internalType":"contract PotLike"}],"stateMutability":"view"},{"type":"function","name":"rely","inputs":[{"name":"usr","type":"address","internalType":"address"}],"outputs":[],"stateMutability":"nonpayable"},{"type":"function","name":"skim","inputs":[{"name":"ilk","type":"bytes32","internalType":"bytes32"},{"name":"urn","type":"address","internalType":"address"}],"outputs":[],"stateMutability":"nonpayable"},{"type":"function","name":"skip","inputs":[{"name":"ilk","type":"bytes32","internalType":"bytes32"},{"name":"id","type":"uint256","internalType":"uint256"}],"outputs":[],"stateMutability":"nonpayable"},{"type":"function","name":"snip","inputs":[{"name":"ilk","type":"bytes32","internalType":"bytes32"},{"name":"id","type":"uint256","internalType":"uint256"}],"outputs":[],"stateMutability":"nonpayable"},{"type":"function","name":"spot","inputs":[],"outputs":[{"name":"","type":"address","internalType":"contract SpotLike"}],"stateMutability":"view"},{"type":"function","name":"tag","inputs":[{"name":"","type":"bytes32","internalType":"bytes32"}],"outputs":[{"name":"","type":"uint256","internalType":"uint256"}],"stateMutability":"view"},{"type":"function","name":"thaw","inputs":[],"outputs":[],"stateMutability":"nonpayable"},{"type":"function","name":"vat","inputs":[],"outputs":[{"name":"","type":"address","internalType":"contract VatLike"}],"stateMutability":"view"},{"type":"function","name":"vow","inputs":[],"outputs":[{"name":"","type":"address","internalType":"contract VowLike"}],"stateMutability":"view"},{"type":"function","name":"wait","inputs":[],"outputs":[{"name":"","type":"uint256","internalType":"uint256"}],"stateMutability":"view"},{"type":"function","name":"wards","inputs":[{"name":"","type":"address","internalType":"address"}],"outputs":[{"name":"","type":"uint256","internalType":"uint256"}],"stateMutability":"view"},{"type":"function","name":"when","inputs":[],"outputs":[{"name":"","type":"uint256","internalType":"uint256"}],"stateMutability":"view"},{"type":"event","name":"Cage","inputs":[],"anonymous":false},{"type":"event","name":"Cage","inputs":[{"name":"ilk","type":"bytes32","indexed":true,"internalType":"bytes32"}],"anonymous":false},{"type":"event","name":"Cash","inputs":[{"name":"ilk","type":"bytes32","indexed":true,"internalType":"bytes32"},{"name":"usr","type":"address","indexed":true,"internalType":"address"},{"name":"wad","type":"uint256","indexed":false,"internalType":"uint256"}],"anonymous":false},{"type":"event","name":"Deny","inputs":[{"name":"usr","type":"address","indexed":true,"internalType":"address"}],"anonymous":false},{"type":"event","name":"File","inputs":[{"name":"what","type":"bytes32","indexed":true,"internalType":"bytes32"},{"name":"data","type":"uint256","indexed":false,"internalType":"uint256"}],"anonymous":false},{"type":"event","name":"File","inputs":[{"name":"what","type":"bytes32","indexed":true,"internalType":"bytes32"},{"name":"data","type":"address","indexed":false,"internalType":"address"}],"anonymous":false},{"type":"event","name":"Flow","inputs":[{"name":"ilk","type":"bytes32","indexed":true,"internalType":"bytes32"}],"anonymous":false},{"type":"event","name":"Free","inputs":[{"name":"ilk","type":"bytes32","indexed":true,"internalType":"bytes32"},{"name":"usr","type":"address","indexed":true,"internalType":"address"},{"name":"ink","type":"uint256","indexed":false,"internalType":"uint256"}],"anonymous":false},{"type":"event","name":"Pack","inputs":[{"name":"usr","type":"address","indexed":true,"internalType":"address"},{"name":"wad","type":"uint256","indexed":false,"internalType":"uint256"}],"anonymous":false},{"type":"event","name":"Rely","inputs":[{"name":"usr","type":"address","indexed":true,"internalType":"address"}],"anonymous":false},{"type":"event","name":"Skim","inputs":[{"name":"ilk","type":"bytes32","indexed":true,"internalType":"bytes32"},{"name":"urn","type":"address","indexed":true,"internalType":"address"},{"name":"wad","type":"uint256","indexed":false,"internalType":"uint256"},{"name":"art","type":"uint256","indexed":false,"internalType":"uint256"}],"anonymous":false},{"type":"event","name":"Skip","inputs":[{"name":"ilk","type":"bytes32","indexed":true,"internalType":"bytes32"},{"name":"id","type":"uint256","indexed":true,"internalType":"uint256"},{"name":"usr","type":"address","indexed":true,"internalType":"address"},{"name":"tab","type":"uint256","indexed":false,"internalType":"uint256"},{"name":"lot","type":"uint256","indexed":false,"internalType":"uint256"},{"name":"art","type":"uint256","indexed":false,"internalType":"uint256"}],"anonymous":false},{"type":"event","name":"Snip","inputs":[{"name":"ilk","type":"bytes32","indexed":true,"internalType":"bytes32"},{"name":"id","type":"uint256","indexed":true,"internalType":"uint256"},{"name":"usr","type":"address","indexed":true,"internalType":"address"},{"name":"tab","type":"uint256","indexed":false,"internalType":"uint256"},{"name":"lot","type":"uint256","indexed":false,"internalType":"uint256"},{"name":"art","type":"uint256","indexed":false,"internalType":"uint256"}],"anonymous":false},{"type":"event","name":"Thaw","inputs":[],"anonymous":false}],"bytecode":{"object":"0x6080604052348015600e575f5ffd5b50335f81815260208190526040808220600190819055600755517fdd0e34038ac38b2a1ce960229778ac48a8719bc900b6c4f8d0475c6e8b385a609190a2612486806100595f395ff3fe608060405234801561000f575f5ffd5b5060043610610173575f3560e01c80630dca59c11461017757806329ae81141461019357806336569e77146101a857806338c6de40146101c85780634a10eaa6146101db5780634ba2363a146101ee578063503ecf06146102015780635920375c14610214578063626cb3c51461021c57806363fad85e1461022f57806364bd70131461024e57806365fae35e14610257578063692450091461026a5780636ea42555146102725780636f265b931461028557806389ea45d3146102985780639255f809146102ab578063957aa58c146102ca5780639c52a7f1146102d3578063bf353dbb146102e6578063c3b3ad7f14610305578063c83062c614610318578063c939ebfc1461032b578063d4e8be8314610355578063e1340a3d14610368578063e2702fdc14610387578063e2b0caef1461039a578063e4881813146103a3578063e6ee62aa146103b6578063ee6447b5146103d5578063fe8507c6146103f4575b5f5ffd5b610180600a5481565b6040519081526020015b60405180910390f35b6101a66101a1366004611fb1565b610407565b005b6001546101bb906001600160a01b031681565b60405161018a9190611fd1565b6101a66101d6366004611fb1565b6104fc565b6101a66101e9366004611fe5565b610866565b6005546101bb906001600160a01b031681565b6101a661020f366004611fb1565b610a14565b6101a6610e66565b6004546101bb906001600160a01b031681565b61018061023d366004611fe5565b600e6020525f908152604090205481565b61018060095481565b6101a6610265366004612013565b611078565b6101a66110ea565b6101a6610280366004611fe5565b6113a2565b6006546101bb906001600160a01b031681565b6101a66102a636600461202e565b6114a8565b6101806102b9366004612013565b600f6020525f908152604090205481565b61018060075481565b6101a66102e1366004612013565b611722565b6101806102f4366004612013565b5f6020819052908152604090205481565b6003546101bb906001600160a01b031681565b6101a6610326366004611fe5565b611793565b61018061033936600461202e565b601060209081525f928352604080842090915290825290205481565b6101a661036336600461202e565b611945565b610180610376366004611fe5565b600d6020525f908152604090205481565b6101a6610395366004611fe5565b611ad0565b61018060085481565b6002546101bb906001600160a01b031681565b6101806103c4366004611fe5565b600c6020525f908152604090205481565b6101806103e3366004611fe5565b600b6020525f908152604090205481565b6101a6610402366004611fb1565b611d50565b335f9081526020819052604090205460011461043e5760405162461bcd60e51b81526004016104359061205c565b60405180910390fd5b6007546001146104605760405162461bcd60e51b815260040161043590612088565b81631dd85a5d60e21b036104785760098190556104be565b60405162461bcd60e51b815260206004820152601b60248201527a456e642f66696c652d756e7265636f676e697a65642d706172616d60281b6044820152606401610435565b817fe986e40cc8c151830d4f61050f4fb2e4add8567caad2d5f5496f9158e91fe4c7826040516104f091815260200190565b60405180910390a25050565b5f828152600b602052604081205490036105285760405162461bcd60e51b8152600401610435906120ae565b600354604051636cb1c69b60e11b8152600481018490525f916001600160a01b03169063d9638d36906024016080604051808303815f875af1158015610570573d5f5f3e3d5ffd5b505050506040513d601f19601f8201168201806040525081019061059491906120df565b5050600154604051636cb1c69b60e11b81526004810187905292935083925f92506001600160a01b039091169063d9638d369060240160a0604051808303815f875af11580156105e6573d5f5f3e3d5ffd5b505050506040513d601f19601f8201168201806040525081019061060a919061211b565b5050509150505f5f5f846001600160a01b031663b5f522f7886040518263ffffffff1660e01b815260040161064191815260200190565b60c060405180830381865afa15801561065c573d5f5f3e3d5ffd5b505050506040513d601f19601f820116820180604052508101906106809190612157565b50506001546004805460405163f24e23eb60e01b81529599509397509195506001600160a01b03908116945063f24e23eb936106c4939091169182918991016121c2565b5f604051808303815f87803b1580156106db575f5ffd5b505af11580156106ed573d5f5f3e3d5ffd5b50506040516326e027f160e01b8152600481018a90526001600160a01b03881692506326e027f191506024015f604051808303815f87803b158015610730575f5ffd5b505af1158015610742573d5f5f3e3d5ffd5b505050505f848461075391906121fa565b5f8a8152600d602052604090205490915061076e9082611f13565b5f8a8152600d6020526040812091909155831280159061078e57505f8112155b6107aa5760405162461bcd60e51b815260040161043590612219565b600154600480546040516301eeacfd60e61b81526001600160a01b0393841693637bab3f40936107e7938f93899330939216918b918a910161223f565b5f604051808303815f87803b1580156107fe575f5ffd5b505af1158015610810573d5f5f3e3d5ffd5b50505050816001600160a01b0316888a7ffc67e20caaffa015d51f696df8ea5c273ba269c69bdc2ec31c1334d01286eaa487878660405161085393929190612274565b60405180910390a4505050505050505050565b600a545f036108875760405162461bcd60e51b81526004016104359061228a565b5f818152600e6020526040902054156108e05760405162461bcd60e51b815260206004820152601b60248201527a115b990bd99a5e0b5a5b1acb585b1c9958591e4b5919599a5b9959602a1b6044820152606401610435565b600154604051636cb1c69b60e11b8152600481018390525f916001600160a01b03169063d9638d369060240160a0604051808303815f875af1158015610928573d5f5f3e3d5ffd5b505050506040513d601f19601f8201168201806040525081019061094c919061211b565b5050505f848152600d60205260408120549193509150610983906109709084611f28565b5f858152600b6020526040902054611f28565b9050676765c793fa10079d601b1b600a5461099e91906121fa565b5f848152600c60205260409020546109cc906109bb908490611f50565b676765c793fa10079d601b1b611f5f565b6109d691906121fa565b5f848152600e602052604080822092909255905184917f8d1d5ae676a6db1f6f14414f8a6c78941bbfb700fe3f3be6d3245f26c2f2d55091a2505050565b5f828152600b60205260408120549003610a405760405162461bcd60e51b8152600401610435906120ae565b600254604051636cb1c69b60e11b8152600481018490525f916001600160a01b03169063d9638d36906024016060604051808303815f875af1158015610a88573d5f5f3e3d5ffd5b505050506040513d601f19601f82011682018060405250810190610aac91906122b1565b5050600154604051636cb1c69b60e11b81526004810186905291925082915f916001600160a01b03169063d9638d369060240160a0604051808303815f875af1158015610afb573d5f5f3e3d5ffd5b505050506040513d601f19601f82011682018060405250810190610b1f919061211b565b5050509150505f5f5f5f856001600160a01b0316634423c5f1896040518263ffffffff1660e01b8152600401610b5791815260200190565b61010060405180830381865afa158015610b73573d5f5f3e3d5ffd5b505050506040513d601f19601f82011682018060405250810190610b9791906122ff565b6001546004805460405163f24e23eb60e01b81529a9e50989c50939a509098506001600160a01b039081169763f24e23eb97610be09750909116945084935088920190506121c2565b5f604051808303815f87803b158015610bf7575f5ffd5b505af1158015610c09573d5f5f3e3d5ffd5b50506001546004805460405163f24e23eb60e01b81526001600160a01b03938416955063f24e23eb9450610c45939091169130918a91016121c2565b5f604051808303815f87803b158015610c5c575f5ffd5b505af1158015610c6e573d5f5f3e3d5ffd5b50506001546040516328ec8bf160e21b81526001600160a01b03909116925063a3b22fc49150610ca2908990600401611fd1565b5f604051808303815f87803b158015610cb9575f5ffd5b505af1158015610ccb573d5f5f3e3d5ffd5b50506040516326e027f160e01b8152600481018b90526001600160a01b03891692506326e027f191506024015f604051808303815f87803b158015610d0e575f5ffd5b505af1158015610d20573d5f5f3e3d5ffd5b505050505f8582610d3191906121fa565b5f8b8152600d6020526040902054909150610d4c9082611f13565b5f8b8152600d60205260408120919091558412801590610d6c57505f8112155b610d885760405162461bcd60e51b815260040161043590612219565b60015f9054906101000a90046001600160a01b03166001600160a01b0316637bab3f408b853060045f9054906101000a90046001600160a01b031689876040518763ffffffff1660e01b8152600401610de69695949392919061223f565b5f604051808303815f87803b158015610dfd575f5ffd5b505af1158015610e0f573d5f5f3e3d5ffd5b50505050826001600160a01b0316898b7fbfa2310a8897203a59922debd0db38279196d8de5050df84608e2bb3e7790f69858886604051610e5293929190612274565b60405180910390a450505050505050505050565b60075415610e865760405162461bcd60e51b815260040161043590612386565b600a5415610eca5760405162461bcd60e51b8152602060048201526011602482015270456e642f646562742d6e6f742d7a65726f60781b6044820152606401610435565b60015460048054604051633612d9a360e11b81526001600160a01b0393841693636c25b34693610efe939091169101611fd1565b602060405180830381865afa158015610f19573d5f5f3e3d5ffd5b505050506040513d601f19601f82011682018060405250810190610f3d91906123ae565b15610f815760405162461bcd60e51b8152602060048201526014602482015273456e642f737572706c75732d6e6f742d7a65726f60601b6044820152606401610435565b610f8f600854600954611f13565b421015610fd65760405162461bcd60e51b8152602060048201526015602482015274115b990bddd85a5d0b5b9bdd0b599a5b9a5cda1959605a1b6044820152606401610435565b60015f9054906101000a90046001600160a01b03166001600160a01b0316630dca59c16040518163ffffffff1660e01b81526004016020604051808303815f875af1158015611027573d5f5f3e3d5ffd5b505050506040513d601f19601f8201168201806040525081019061104b91906123ae565b600a556040517f4df15159e645ba7d02cadde0bc937abef5ad0134623c00de50a31750b85978b9905f90a1565b335f908152602081905260409020546001146110a65760405162461bcd60e51b81526004016104359061205c565b6001600160a01b0381165f8181526020819052604080822060019055517fdd0e34038ac38b2a1ce960229778ac48a8719bc900b6c4f8d0475c6e8b385a609190a250565b335f908152602081905260409020546001146111185760405162461bcd60e51b81526004016104359061205c565b60075460011461113a5760405162461bcd60e51b815260040161043590612088565b5f60078190554260085560015460408051636924500960e01b815290516001600160a01b039092169263692450099260048084019382900301818387803b158015611183575f5ffd5b505af1158015611195573d5f5f3e3d5ffd5b5050505060025f9054906101000a90046001600160a01b03166001600160a01b031663692450096040518163ffffffff1660e01b81526004015f604051808303815f87803b1580156111e5575f5ffd5b505af11580156111f7573d5f5f3e3d5ffd5b5050505060035f9054906101000a90046001600160a01b03166001600160a01b031663692450096040518163ffffffff1660e01b81526004015f604051808303815f87803b158015611247575f5ffd5b505af1158015611259573d5f5f3e3d5ffd5b50506004805460408051636924500960e01b815290516001600160a01b03909216945063692450099350808301925f929182900301818387803b15801561129e575f5ffd5b505af11580156112b0573d5f5f3e3d5ffd5b5050505060065f9054906101000a90046001600160a01b03166001600160a01b031663692450096040518163ffffffff1660e01b81526004015f604051808303815f87803b158015611300575f5ffd5b505af1158015611312573d5f5f3e3d5ffd5b5050505060055f9054906101000a90046001600160a01b03166001600160a01b031663692450096040518163ffffffff1660e01b81526004015f604051808303815f87803b158015611362575f5ffd5b505af1158015611374573d5f5f3e3d5ffd5b50506040517f2308ed18a14e800c39b86eb6ea43270105955ca385b603b64eca89f98ae8fbda92505f9150a1565b600a545f036113c35760405162461bcd60e51b81526004016104359061228a565b6001546004546001600160a01b039182169163bb35783b913391166113f385676765c793fa10079d601b1b611f5f565b6040518463ffffffff1660e01b8152600401611411939291906121c2565b5f604051808303815f87803b158015611428575f5ffd5b505af115801561143a573d5f5f3e3d5ffd5b5050335f908152600f60205260409020546114589250905082611f13565b335f818152600f6020526040908190209290925590517f47a981d8cbc0f6df64c9be4ce0a423071a088bd46c549bbd11a4d566e031fe0c9061149d9084815260200190565b60405180910390a250565b5f828152600b602052604081205490036114d45760405162461bcd60e51b8152600401610435906120ae565b600154604051636cb1c69b60e11b8152600481018490525f916001600160a01b03169063d9638d369060240160a0604051808303815f875af115801561151c573d5f5f3e3d5ffd5b505050506040513d601f19601f82011682018060405250810190611540919061211b565b50506001546040516309092f9760e21b81529294505f935083926001600160a01b039091169150632424be5c9061157d90889088906004016123c5565b60408051808303815f875af1158015611598573d5f5f3e3d5ffd5b505050506040513d601f19601f820116820180604052508101906115bc91906123dc565b915091505f6115e16115ce8386611f28565b5f888152600b6020526040902054611f28565b90505f6115ee8483611f87565b5f888152600c60205260409020549091506116129061160d8484611f50565b611f13565b5f888152600c6020526040902055600160ff1b81118015906116385750600160ff1b8311155b6116545760405162461bcd60e51b815260040161043590612219565b6001546004546001600160a01b0391821691637bab3f40918a918a9130911661167c876123fe565b6116858a6123fe565b6040518763ffffffff1660e01b81526004016116a69695949392919061223f565b5f604051808303815f87803b1580156116bd575f5ffd5b505af11580156116cf573d5f5f3e3d5ffd5b505060408051848152602081018790526001600160a01b038a1693508a92507fa05b7b56166c25efbac063da905f9ea6aa1dc5101f95b43c7a838aace979ab59910160405180910390a350505050505050565b335f908152602081905260409020546001146117505760405162461bcd60e51b81526004016104359061205c565b6001600160a01b0381165f81815260208190526040808220829055517f184450df2e323acec0ed3b5c7531b81f9b4cdef7914dfd4c0a4317416bb5251b9190a250565b600754156117b35760405162461bcd60e51b815260040161043590612386565b6001546040516309092f9760e21b81525f9182916001600160a01b0390911690632424be5c906117e990869033906004016123c5565b60408051808303815f875af1158015611804573d5f5f3e3d5ffd5b505050506040513d601f19601f8201168201806040525081019061182891906123dc565b91509150805f1461186e5760405162461bcd60e51b815260206004820152601060248201526f456e642f6172742d6e6f742d7a65726f60801b6044820152606401610435565b600160ff1b8211156118925760405162461bcd60e51b815260040161043590612219565b6001546004546001600160a01b0391821691637bab3f4091869133918291166118ba886123fe565b5f6040518763ffffffff1660e01b81526004016118dc9695949392919061223f565b5f604051808303815f87803b1580156118f3575f5ffd5b505af1158015611905573d5f5f3e3d5ffd5b50506040518481523392508591507ff26f2b994a5e16f0960958e62541681f9e3e84d4caac2e487d25e0c75243f0d89060200160405180910390a3505050565b335f908152602081905260409020546001146119735760405162461bcd60e51b81526004016104359061205c565b6007546001146119955760405162461bcd60e51b815260040161043590612088565b81621d985d60ea1b036119c257600180546001600160a01b0319166001600160a01b038316179055611aa0565b816218d85d60ea1b036119ef57600280546001600160a01b0319166001600160a01b038316179055611aa0565b8162646f6760e81b03611a1c57600380546001600160a01b0319166001600160a01b038316179055611aa0565b8162766f7760e81b03611a4957600480546001600160a01b0319166001600160a01b038316179055611aa0565b81621c1bdd60ea1b03611a7657600580546001600160a01b0319166001600160a01b038316179055611aa0565b81631cdc1bdd60e21b0361047857600680546001600160a01b0319166001600160a01b0383161790555b817f8fef588b5fc1afbf5b2f06c1a435d513f208da2e6704c3d8f0e0ec91167066ba826040516104f09190611fd1565b60075415611af05760405162461bcd60e51b815260040161043590612386565b5f818152600b602052604090205415611b495760405162461bcd60e51b815260206004820152601b60248201527a115b990bdd1859cb5a5b1acb585b1c9958591e4b5919599a5b9959602a1b6044820152606401610435565b600154604051636cb1c69b60e11b8152600481018390526001600160a01b039091169063d9638d369060240160a0604051808303815f875af1158015611b91573d5f5f3e3d5ffd5b505050506040513d601f19601f82011682018060405250810190611bb5919061211b565b5050505f838152600d6020526040808220939093556006549251636cb1c69b60e11b81526004810185905290926001600160a01b0316915063d9638d36906024016040805180830381865afa158015611c10573d5f5f3e3d5ffd5b505050506040513d601f19601f82011682018060405250810190611c349190612424565b509050611d1360065f9054906101000a90046001600160a01b03166001600160a01b031663495d32cb6040518163ffffffff1660e01b8152600401602060405180830381865afa158015611c8a573d5f5f3e3d5ffd5b505050506040513d601f19601f82011682018060405250810190611cae91906123ae565b826001600160a01b03166357de26a46040518163ffffffff1660e01b8152600401602060405180830381865afa158015611cea573d5f5f3e3d5ffd5b505050506040513d601f19601f82011682018060405250810190611d0e91906123ae565b611f9d565b5f838152600b602052604080822092909255905183917f4a9efa0a0e3f548761a6924fe06ac5cb94ecdbc08b10d855bbcc04e37c4910db91a25050565b5f828152600e60205260408120549003611da65760405162461bcd60e51b8152602060048201526017602482015276115b990bd99a5e0b5a5b1acb5b9bdd0b5919599a5b9959604a1b6044820152606401610435565b6001545f838152600e60205260409020546001600160a01b0390911690636111be2e90849030903390611dda908790611f28565b6040516001600160e01b031960e087901b16815260048101949094526001600160a01b0392831660248501529116604483015260648201526084015f604051808303815f87803b158015611e2c575f5ffd5b505af1158015611e3e573d5f5f3e3d5ffd5b5050505f838152601060209081526040808320338452909152902054611e65915082611f13565b5f838152601060209081526040808320338452808352818420859055600f83529220549190521015611ed85760405162461bcd60e51b815260206004820152601c60248201527b456e642f696e73756666696369656e742d6261672d62616c616e636560201b6044820152606401610435565b604051818152339083907f888c7c01b06fd8004523e2bc9a274be1feaa9f03579ae5f568061dac078793c99060200160405180910390a35050565b81810182811015611f22575f5ffd5b92915050565b5f676765c793fa10079d601b1b611f3f8484611f5f565b611f4991906121fa565b9392505050565b80820382811115611f22575f5ffd5b5f811580611f7f57505080820282828281611f7c57611f7c6121e6565b04145b611f22575f5ffd5b5f81831115611f965781611f49565b5090919050565b5f81611f3f84670de0b6b3a7640000611f5f565b5f5f60408385031215611fc2575f5ffd5b50508035926020909101359150565b6001600160a01b0391909116815260200190565b5f60208284031215611ff5575f5ffd5b5035919050565b6001600160a01b0381168114612010575f5ffd5b50565b5f60208284031215612023575f5ffd5b8135611f4981611ffc565b5f5f6040838503121561203f575f5ffd5b82359150602083013561205181611ffc565b809150509250929050565b602080825260129082015271115b990bdb9bdd0b585d5d1a1bdc9a5e995960721b604082015260600190565b6020808252600c908201526b456e642f6e6f742d6c69766560a01b604082015260600190565b602080825260179082015276115b990bdd1859cb5a5b1acb5b9bdd0b5919599a5b9959604a1b604082015260600190565b5f5f5f5f608085870312156120f2575f5ffd5b84516120fd81611ffc565b60208601516040870151606090970151919890975090945092505050565b5f5f5f5f5f60a0868803121561212f575f5ffd5b5050835160208501516040860151606087015160809097015192989197509594509092509050565b5f5f5f5f5f5f60c0878903121561216c575f5ffd5b86516020880151604089015160608a0151929850909650945061218e81611ffc565b60808801519093506001600160601b03811681146121aa575f5ffd5b60a09790970151959894975092959194919391925050565b6001600160a01b039384168152919092166020820152604081019190915260600190565b634e487b7160e01b5f52601260045260245ffd5b5f8261221457634e487b7160e01b5f52601260045260245ffd5b500490565b6020808252600c908201526b456e642f6f766572666c6f7760a01b604082015260600190565b9586526001600160a01b039485166020870152928416604086015292166060840152608083019190915260a082015260c00190565b9283526020830191909152604082015260600190565b6020808252600d908201526c456e642f646562742d7a65726f60981b604082015260600190565b5f5f5f606084860312156122c3575f5ffd5b83516122ce81611ffc565b602085015160409095015190969495509392505050565b805165ffffffffffff811681146122fa575f5ffd5b919050565b5f5f5f5f5f5f5f5f610100898b031215612317575f5ffd5b885160208a015160408b0151919950975061233181611ffc565b955061233f60608a016122e5565b945061234d60808a016122e5565b935060a089015161235d81611ffc565b60c08a015190935061236e81611ffc565b60e09990990151979a96995094979396929591945050565b6020808252600e908201526d456e642f7374696c6c2d6c69766560901b604082015260600190565b5f602082840312156123be575f5ffd5b5051919050565b9182526001600160a01b0316602082015260400190565b5f5f604083850312156123ed575f5ffd5b505080516020909101519092909150565b5f600160ff1b820161241e57634e487b7160e01b5f52601160045260245ffd5b505f0390565b5f5f60408385031215612435575f5ffd5b825161244081611ffc565b602093909301519294929350505056fea264697066735822122097a9fa22c754ffa57126c0fa11617255f8d10c5de86393ff1a49ee76511f65dd64736f6c634300081e0033","linkReferences":{}},"methodIdentifiers":{"Art(bytes32)":"e1340a3d","bag(address)":"9255f809","cage()":"69245009","cage(bytes32)":"e2702fdc","cash(bytes32,uint256)":"fe8507c6","cat()":"e4881813","debt()":"0dca59c1","deny(address)":"9c52a7f1","dog()":"c3b3ad7f","file(bytes32,address)":"d4e8be83","file(bytes32,uint256)":"29ae8114","fix(bytes32)":"63fad85e","flow(bytes32)":"4a10eaa6","free(bytes32)":"c83062c6","gap(bytes32)":"e6ee62aa","live()":"957aa58c","out(bytes32,address)":"c939ebfc","pack(uint256)":"6ea42555","pot()":"4ba2363a","rely(address)":"65fae35e","skim(bytes32,address)":"89ea45d3","skip(bytes32,uint256)":"503ecf06","snip(bytes32,uint256)":"38c6de40","spot()":"6f265b93","tag(bytes32)":"ee6447b5","thaw()":"5920375c","vat()":"36569e77","vow()":"626cb3c5","wait()":"64bd7013","wards(address)":"bf353dbb","when()":"e2b0caef"},"id":686}