{"abi":[{"type":"function","name":"eip712Domain","inputs":[],"outputs":[{"name":"fields","type":"bytes1","internalType":"bytes1"},{"name":"name","type":"string","internalType":"string"},{"name":"version","type":"string","internalType":"string"},{"name":"chainId","type":"uint256","internalType":"uint256"},{"name":"verifyingContract","type":"address","internalType":"address"},{"name":"salt","type":"bytes32","internalType":"bytes32"},{"name":"extensions","type":"uint256[]","internalType":"uint256[]"}],"stateMutability":"view"},{"type":"event","name":"EIP712DomainChanged","inputs":[],"anonymous":false},{"type":"error","name":"InvalidShortString","inputs":[]}],"bytecode":{"object":"0x6080604052348015600e575f5ffd5b5061035e8061001c5f395ff3fe608060405234801561000f575f5ffd5b5060043610610029575f3560e01c806384b0196e1461002d575b5f5ffd5b610035610051565b604051610048979695949392919061025a565b60405180910390f35b5f6060805f5f5f60605f6100636100a1565b905061006e816100f2565b6100778261010d565b604080515f80825260208201909252600f60f81b9c939b5091995046985030975095509350915050565b5f6100ed6040516020016100d4906020808252600b908201526a32b4b81732b4b8171b989960a91b604082015260600190565b6040516020818303038152906040528051906020012090565b905090565b6005810154606090610107906007840161011e565b92915050565b600681015460609061010790600884015b606060ff831461013857610131836101c8565b9050610107565b818054610144906102f0565b80601f0160208091040260200160405190810160405280929190818152602001828054610170906102f0565b80156101bb5780601f10610192576101008083540402835291602001916101bb565b820191905f5260205f20905b81548152906001019060200180831161019e57829003601f168201915b5050505050905092915050565b60605f6101d483610205565b6040805160208082528183019092529192505f91906020820181803683375050509182525060208101929092525090565b5f60ff8216601f81111561010757604051632cd44ac360e21b815260040160405180910390fd5b5f81518084528060208401602086015e5f602082860101526020601f19601f83011685010191505092915050565b60ff60f81b8816815260e060208201525f61027860e083018961022c565b828103604084015261028a818961022c565b606084018890526001600160a01b038716608085015260a0840186905283810360c0850152845180825260208087019350909101905f5b818110156102df5783518352602093840193909201916001016102c1565b50909b9a5050505050505050505050565b600181811c9082168061030457607f821691505b60208210810361032257634e487b7160e01b5f52602260045260245ffd5b5091905056fea264697066735822122037f91cb84e40527eac36e9b4e24f521d723a8bbd01bfdb57cd899664c3a37fa264736f6c634300081e0033","linkReferences":{}},"methodIdentifiers":{"eip712Domain()":"84b0196e"},"id":1392}