{"abi":[{"type":"function","name":"eip712Domain","inputs":[],"outputs":[{"name":"fields","type":"bytes1","internalType":"bytes1"},{"name":"name","type":"string","internalType":"string"},{"name":"version","type":"string","internalType":"string"},{"name":"chainId","type":"uint256","internalType":"uint256"},{"name":"verifyingContract","type":"address","internalType":"address"},{"name":"salt","type":"bytes32","internalType":"bytes32"},{"name":"extensions","type":"uint256[]","internalType":"uint256[]"}],"stateMutability":"view"},{"type":"event","name":"EIP712DomainChanged","inputs":[],"anonymous":false},{"type":"error","name":"InvalidShortString","inputs":[]}],"bytecode":{"object":"0x6080604052348015600e575f5ffd5b506107a38061001c5f395ff3fe608060405234801561000f575f5ffd5b5060043610610029575f3560e01c806384b0196e1461002d575b5f5ffd5b610035610051565b60405161004897969594939291906105a1565b60405180910390f35b5f6060805f5f5f60606100626100f6565b61006a610125565b46305f5f1b5f67ffffffffffffffff81111561008957610088610623565b5b6040519080825280602002602001820160405280156100b75781602001602082028036833780820191505090505b507f0f00000000000000000000000000000000000000000000000000000000000000959493929190965096509650965096509650965090919293949596565b6060610120610103610154565b60070161010e610154565b6005015461025b90919063ffffffff16565b905090565b606061014f610132610154565b60080161013d610154565b6006015461025b90919063ffffffff16565b905090565b5f6102567f84b0196e000000000000000000000000000000000000000000000000000000007bffffffffffffffffffffffffffffffffffffffffffffffffffffffff1916600160405180604001604052600a8152806020017f4549503731325265706f000000000000000000000000000000000000000000008152506040516020016101e09190610650565b604051602081830303815290604052805190602001206040516020016102069190610670565b604051602081830303815290604052805190602001205f1c61022891906106b6565b5f1b60405160200161023b9291906106e9565b60405160208183030381529060405280519060200120610308565b905090565b606060ff5f1b83146102775761027083610311565b9050610302565b8180546102839061073d565b80601f01602080910402602001604051908101604052809291908181526020018280546102af9061073d565b80156102fa5780601f106102d1576101008083540402835291602001916102fa565b820191905f5260205f20905b8154815290600101906020018083116102dd57829003601f168201915b505050505090505b92915050565b5f819050919050565b60605f61031d83610383565b90505f602067ffffffffffffffff81111561033b5761033a610623565b5b6040519080825280601f01601f19166020018201604052801561036d5781602001600182028036833780820191505090505b5090508181528360208201528092505050919050565b5f5f60ff835f1c169050601f8111156103c8576040517fb3512b0c00000000000000000000000000000000000000000000000000000000815260040160405180910390fd5b80915050919050565b5f7fff0000000000000000000000000000000000000000000000000000000000000082169050919050565b610405816103d1565b82525050565b5f81519050919050565b5f82825260208201905092915050565b8281835e5f83830152505050565b5f601f19601f8301169050919050565b5f61044d8261040b565b6104578185610415565b9350610467818560208601610425565b61047081610433565b840191505092915050565b5f819050919050565b61048d8161047b565b82525050565b5f73ffffffffffffffffffffffffffffffffffffffff82169050919050565b5f6104bc82610493565b9050919050565b6104cc816104b2565b82525050565b5f819050919050565b6104e4816104d2565b82525050565b5f81519050919050565b5f82825260208201905092915050565b5f819050602082019050919050565b61051c8161047b565b82525050565b5f61052d8383610513565b60208301905092915050565b5f602082019050919050565b5f61054f826104ea565b61055981856104f4565b935061056483610504565b805f5b8381101561059457815161057b8882610522565b975061058683610539565b925050600181019050610567565b5085935050505092915050565b5f60e0820190506105b45f83018a6103fc565b81810360208301526105c68189610443565b905081810360408301526105da8188610443565b90506105e96060830187610484565b6105f660808301866104c3565b61060360a08301856104db565b81810360c08301526106158184610545565b905098975050505050505050565b7f4e487b71000000000000000000000000000000000000000000000000000000005f52604160045260245ffd5b5f6020820190508181035f8301526106688184610443565b905092915050565b5f6020820190506106835f8301846104db565b92915050565b7f4e487b71000000000000000000000000000000000000000000000000000000005f52601160045260245ffd5b5f6106c08261047b565b91506106cb8361047b565b92508282039050818111156106e3576106e2610689565b5b92915050565b5f6040820190506106fc5f8301856104db565b61070960208301846104db565b9392505050565b7f4e487b71000000000000000000000000000000000000000000000000000000005f52602260045260245ffd5b5f600282049050600182168061075457607f821691505b60208210810361076757610766610710565b5b5091905056fea2646970667358221220df9667c47b40b63f9743621e30203ce2d43e1e47beef545238a06cc33e7c396064736f6c634300081c0033","linkReferences":{}},"methodIdentifiers":{"eip712Domain()":"84b0196e"},"id":7}