{"abi":[{"type":"constructor","inputs":[{"name":"vault_","type":"address","internalType":"contract IVault"},{"name":"allowedStablePoolFactory_","type":"address","internalType":"address"}],"stateMutability":"nonpayable"},{"type":"function","name":"getHookFlags","inputs":[],"outputs":[{"name":"hookFlags","type":"tuple","internalType":"struct HookFlags","components":[{"name":"enableHookAdjustedAmounts","type":"bool","internalType":"bool"},{"name":"shouldCallBeforeInitialize","type":"bool","internalType":"bool"},{"name":"shouldCallAfterInitialize","type":"bool","internalType":"bool"},{"name":"shouldCallComputeDynamicSwapFee","type":"bool","internalType":"bool"},{"name":"shouldCallBeforeSwap","type":"bool","internalType":"bool"},{"name":"shouldCallAfterSwap","type":"bool","internalType":"bool"},{"name":"shouldCallBeforeAddLiquidity","type":"bool","internalType":"bool"},{"name":"shouldCallAfterAddLiquidity","type":"bool","internalType":"bool"},{"name":"shouldCallBeforeRemoveLiquidity","type":"bool","internalType":"bool"},{"name":"shouldCallAfterRemoveLiquidity","type":"bool","internalType":"bool"}]}],"stateMutability":"pure"},{"type":"function","name":"onAfterAddLiquidity","inputs":[{"name":"","type":"address","internalType":"address"},{"name":"","type":"address","internalType":"address"},{"name":"","type":"uint8","internalType":"enum AddLiquidityKind"},{"name":"","type":"uint256[]","internalType":"uint256[]"},{"name":"amountsInRaw","type":"uint256[]","internalType":"uint256[]"},{"name":"","type":"uint256","internalType":"uint256"},{"name":"","type":"uint256[]","internalType":"uint256[]"},{"name":"","type":"bytes","internalType":"bytes"}],"outputs":[{"name":"","type":"bool","internalType":"bool"},{"name":"","type":"uint256[]","internalType":"uint256[]"}],"stateMutability":"nonpayable"},{"type":"function","name":"onAfterInitialize","inputs":[{"name":"","type":"uint256[]","internalType":"uint256[]"},{"name":"","type":"uint256","internalType":"uint256"},{"name":"","type":"bytes","internalType":"bytes"}],"outputs":[{"name":"","type":"bool","internalType":"bool"}],"stateMutability":"nonpayable"},{"type":"function","name":"onAfterRemoveLiquidity","inputs":[{"name":"","type":"address","internalType":"address"},{"name":"","type":"address","internalType":"address"},{"name":"","type":"uint8","internalType":"enum RemoveLiquidityKind"},{"name":"","type":"uint256","internalType":"uint256"},{"name":"","type":"uint256[]","internalType":"uint256[]"},{"name":"amountsOutRaw","type":"uint256[]","internalType":"uint256[]"},{"name":"","type":"uint256[]","internalType":"uint256[]"},{"name":"","type":"bytes","internalType":"bytes"}],"outputs":[{"name":"","type":"bool","internalType":"bool"},{"name":"","type":"uint256[]","internalType":"uint256[]"}],"stateMutability":"nonpayable"},{"type":"function","name":"onAfterSwap","inputs":[{"name":"","type":"tuple","internalType":"struct AfterSwapParams","components":[{"name":"kind","type":"uint8","internalType":"enum SwapKind"},{"name":"tokenIn","type":"address","internalType":"contract IERC20"},{"name":"tokenOut","type":"address","internalType":"contract IERC20"},{"name":"amountInScaled18","type":"uint256","internalType":"uint256"},{"name":"amountOutScaled18","type":"uint256","internalType":"uint256"},{"name":"tokenInBalanceScaled18","type":"uint256","internalType":"uint256"},{"name":"tokenOutBalanceScaled18","type":"uint256","internalType":"uint256"},{"name":"amountCalculatedScaled18","type":"uint256","internalType":"uint256"},{"name":"amountCalculatedRaw","type":"uint256","internalType":"uint256"},{"name":"router","type":"address","internalType":"address"},{"name":"pool","type":"address","internalType":"address"},{"name":"userData","type":"bytes","internalType":"bytes"}]}],"outputs":[{"name":"","type":"bool","internalType":"bool"},{"name":"","type":"uint256","internalType":"uint256"}],"stateMutability":"nonpayable"},{"type":"function","name":"onBeforeAddLiquidity","inputs":[{"name":"","type":"address","internalType":"address"},{"name":"","type":"address","internalType":"address"},{"name":"","type":"uint8","internalType":"enum AddLiquidityKind"},{"name":"","type":"uint256[]","internalType":"uint256[]"},{"name":"","type":"uint256","internalType":"uint256"},{"name":"","type":"uint256[]","internalType":"uint256[]"},{"name":"","type":"bytes","internalType":"bytes"}],"outputs":[{"name":"","type":"bool","internalType":"bool"}],"stateMutability":"nonpayable"},{"type":"function","name":"onBeforeInitialize","inputs":[{"name":"","type":"uint256[]","internalType":"uint256[]"},{"name":"","type":"bytes","internalType":"bytes"}],"outputs":[{"name":"","type":"bool","internalType":"bool"}],"stateMutability":"nonpayable"},{"type":"function","name":"onBeforeRemoveLiquidity","inputs":[{"name":"","type":"address","internalType":"address"},{"name":"","type":"address","internalType":"address"},{"name":"","type":"uint8","internalType":"enum RemoveLiquidityKind"},{"name":"","type":"uint256","internalType":"uint256"},{"name":"","type":"uint256[]","internalType":"uint256[]"},{"name":"","type":"uint256[]","internalType":"uint256[]"},{"name":"","type":"bytes","internalType":"bytes"}],"outputs":[{"name":"","type":"bool","internalType":"bool"}],"stateMutability":"nonpayable"},{"type":"function","name":"onBeforeSwap","inputs":[{"name":"","type":"tuple","internalType":"struct PoolSwapParams","components":[{"name":"kind","type":"uint8","internalType":"enum SwapKind"},{"name":"amountGivenScaled18","type":"uint256","internalType":"uint256"},{"name":"balancesScaled18","type":"uint256[]","internalType":"uint256[]"},{"name":"indexIn","type":"uint256","internalType":"uint256"},{"name":"indexOut","type":"uint256","internalType":"uint256"},{"name":"router","type":"address","internalType":"address"},{"name":"userData","type":"bytes","internalType":"bytes"}]},{"name":"","type":"address","internalType":"address"}],"outputs":[{"name":"","type":"bool","internalType":"bool"}],"stateMutability":"nonpayable"},{"type":"function","name":"onComputeDynamicSwapFeePercentage","inputs":[{"name":"params","type":"tuple","internalType":"struct PoolSwapParams","components":[{"name":"kind","type":"uint8","internalType":"enum SwapKind"},{"name":"amountGivenScaled18","type":"uint256","internalType":"uint256"},{"name":"balancesScaled18","type":"uint256[]","internalType":"uint256[]"},{"name":"indexIn","type":"uint256","internalType":"uint256"},{"name":"indexOut","type":"uint256","internalType":"uint256"},{"name":"router","type":"address","internalType":"address"},{"name":"userData","type":"bytes","internalType":"bytes"}]},{"name":"pool","type":"address","internalType":"address"},{"name":"staticSwapFeePercentage","type":"uint256","internalType":"uint256"}],"outputs":[{"name":"","type":"bool","internalType":"bool"},{"name":"","type":"uint256","internalType":"uint256"}],"stateMutability":"view"},{"type":"function","name":"onRegister","inputs":[{"name":"factory","type":"address","internalType":"address"},{"name":"pool","type":"address","internalType":"address"},{"name":"","type":"tuple[]","internalType":"struct TokenConfig[]","components":[{"name":"token","type":"address","internalType":"contract IERC20"},{"name":"tokenType","type":"uint8","internalType":"enum TokenType"},{"name":"rateProvider","type":"address","internalType":"contract IRateProvider"},{"name":"paysYieldFees","type":"bool","internalType":"bool"}]},{"name":"","type":"tuple","internalType":"struct LiquidityManagement","components":[{"name":"disableUnbalancedLiquidity","type":"bool","internalType":"bool"},{"name":"enableAddLiquidityCustom","type":"bool","internalType":"bool"},{"name":"enableRemoveLiquidityCustom","type":"bool","internalType":"bool"},{"name":"enableDonation","type":"bool","internalType":"bool"}]}],"outputs":[{"name":"","type":"bool","internalType":"bool"}],"stateMutability":"nonpayable"},{"type":"event","name":"DirectionalFeeHookExampleRegistered","inputs":[{"name":"hooksContract","type":"address","indexed":true,"internalType":"address"},{"name":"factory","type":"address","indexed":true,"internalType":"address"},{"name":"pool","type":"address","indexed":true,"internalType":"address"}],"anonymous":false},{"type":"error","name":"SenderIsNotVault","inputs":[{"name":"sender","type":"address","internalType":"address"}]}],"bytecode":{"object":"0x60c060405234801561000f575f5ffd5b5060405161117a38038061117a83398101604081905261002e9161005c565b6001600160a01b039182166080521660a052610094565b6001600160a01b0381168114610059575f5ffd5b50565b5f5f6040838503121561006d575f5ffd5b825161007881610045565b602084015190925061008981610045565b809150509250929050565b60805160a0516110be6100bc5f395f61024701525f818161032001526103e001526110be5ff3fe608060405234801561000f575f5ffd5b5060043610610097575f3560e01c80630b89f1821461009b57806318b6eb55146100c35780631c149e28146100ef5780632754888d1461010257806338be241d1461012d57806345421ec7146101435780635211fa771461015d578063976907cc1461016b578063a0e8f5ac14610188578063ba5f9f401461019b578063d77153a7146101a9575b5f5ffd5b6100ae6100a93660046105e5565b610202565b60405190151581526020015b60405180910390f35b6100d86100d1366004610710565b505f908190565b6040805192151583526020830191909152016100ba565b6100ae6100fd36600461081e565b6102f5565b61011f61011036600461088f565b5f839850989650505050505050565b6040516100ba92919061097e565b6100ae61013b3660046109cd565b5f9392505050565b6100ae610151366004610a46565b5f979650505050505050565b6100ae6100fd366004610b1d565b61011f610179366004610b6b565b5f849850989650505050505050565b6100d8610196366004610c17565b6102fd565b6100ae610151366004610c6c565b60408051610140810182525f808252602082018190528183018190526080820181905260a0820181905260c0820181905260e0820181905261010082018190526101208201526001606082015290516100ba9190610cf1565b5f61020b6103d5565b6040516001600160a01b03808616919087169030907f4935e6c0dfbca415b660e67d9e5c87dc75554149725fffa2824823b744944be6905f90a47f00000000000000000000000000000000000000000000000000000000000000006001600160a01b0316856001600160a01b03161480156102ec5750604051636634b75360e01b81526001600160a01b03861690636634b753906102ad908790600401610dba565b602060405180830381865afa1580156102c8573d5f5f3e3d5ffd5b505050506040513d601f19601f820116820180604052508101906102ec9190610dce565b95945050505050565b5f5b92915050565b5f5f6103076103d5565b6040516333f0703b60e11b81525f906001600160a01b037f000000000000000000000000000000000000000000000000000000000000000016906367e0e07690610355908890600401610dba565b5f60405180830381865afa15801561036f573d5f5f3e3d5ffd5b505050506040513d5f823e601f3d908101601f191682016040526103969190810190610ee9565b93505050505f6103b482886020013589606001358a6080013561042b565b905060018582116103c557856103c7565b815b935093505050935093915050565b336001600160a01b037f00000000000000000000000000000000000000000000000000000000000000001614610429573360405163089676d560e01b81526004016104209190610dba565b60405180910390fd5b565b5f5f8486858151811061044057610440611004565b6020026020010151610452919061102c565b90505f8587858151811061046857610468611004565b602002602001015161047a919061103f565b9050808211156104ad575f61048f828461103f565b90505f61049c838561102c565b90506104a882826104b7565b945050505b5050949350505050565b5f806104cb670de0b6b3a764000085611052565b90506104d78382611069565b949350505050565b6001600160a01b03811681146104f3575f5ffd5b50565b8035610501816104df565b919050565b634e487b7160e01b5f52604160045260245ffd5b604051608081016001600160401b038111828210171561053c5761053c610506565b60405290565b604051606081016001600160401b038111828210171561053c5761053c610506565b604051601f8201601f191681016001600160401b038111828210171561058c5761058c610506565b604052919050565b5f6001600160401b038211156105ac576105ac610506565b5060051b60200190565b600281106104f3575f5ffd5b80151581146104f3575f5ffd5b5f608082840312156105df575f5ffd5b50919050565b5f5f5f5f60e085870312156105f8575f5ffd5b8435610603816104df565b93506020850135610613816104df565b925060408501356001600160401b0381111561062d575f5ffd5b8501601f8101871361063d575f5ffd5b803561065061064b82610594565b610564565b8082825260208201915060208360071b850101925089831115610671575f5ffd5b6020840193505b828410156106f1576080848b03121561068f575f5ffd5b61069761051a565b84356106a2816104df565b815260208501356106b2816105b6565b602082015260408501356106c5816104df565b604082015260608501356106d8816105c2565b6060820152825260809390930192602090910190610678565b8095505050505061070586606087016105cf565b905092959194509250565b5f60208284031215610720575f5ffd5b81356001600160401b03811115610735575f5ffd5b82016101808185031215610747575f5ffd5b9392505050565b5f82601f83011261075d575f5ffd5b813561076b61064b82610594565b8082825260208201915060208360051b86010192508583111561078c575f5ffd5b602085015b838110156107a9578035835260209283019201610791565b5095945050505050565b5f82601f8301126107c2575f5ffd5b81356001600160401b038111156107db576107db610506565b6107ee601f8201601f1916602001610564565b818152846020838601011115610802575f5ffd5b816020850160208301375f918101602001919091529392505050565b5f5f6040838503121561082f575f5ffd5b82356001600160401b03811115610844575f5ffd5b6108508582860161074e565b92505060208301356001600160401b0381111561086b575f5ffd5b610877858286016107b3565b9150509250929050565b803560048110610501575f5ffd5b5f5f5f5f5f5f5f5f610100898b0312156108a7575f5ffd5b6108b0896104f6565b97506108be60208a016104f6565b96506108cc60408a01610881565b95506060890135945060808901356001600160401b038111156108ed575f5ffd5b6108f98b828c0161074e565b94505060a08901356001600160401b03811115610914575f5ffd5b6109208b828c0161074e565b93505060c08901356001600160401b0381111561093b575f5ffd5b6109478b828c0161074e565b92505060e08901356001600160401b03811115610962575f5ffd5b61096e8b828c016107b3565b9150509295985092959890939650565b5f604082018415158352604060208401528084518083526060850191506020860192505f5b818110156109c15783518352602093840193909201916001016109a3565b50909695505050505050565b5f5f5f606084860312156109df575f5ffd5b83356001600160401b038111156109f4575f5ffd5b610a008682870161074e565b9350506020840135915060408401356001600160401b03811115610a22575f5ffd5b610a2e868287016107b3565b9150509250925092565b803560058110610501575f5ffd5b5f5f5f5f5f5f5f60e0888a031215610a5c575f5ffd5b8735610a67816104df565b9650610a75602089016104f6565b9550610a8360408901610a38565b945060608801356001600160401b03811115610a9d575f5ffd5b610aa98a828b0161074e565b9450506080880135925060a08801356001600160401b03811115610acb575f5ffd5b610ad78a828b0161074e565b92505060c08801356001600160401b03811115610af2575f5ffd5b610afe8a828b016107b3565b91505092959891949750929550565b5f60e082840312156105df575f5ffd5b5f5f60408385031215610b2e575f5ffd5b82356001600160401b03811115610b43575f5ffd5b610b4f85828601610b0d565b9250506020830135610b60816104df565b809150509250929050565b5f5f5f5f5f5f5f5f610100898b031215610b83575f5ffd5b610b8c896104f6565b9750610b9a60208a016104f6565b9650610ba860408a01610a38565b955060608901356001600160401b03811115610bc2575f5ffd5b610bce8b828c0161074e565b95505060808901356001600160401b03811115610be9575f5ffd5b610bf58b828c0161074e565b94505060a0890135925060c08901356001600160401b0381111561093b575f5ffd5b5f5f5f60608486031215610c29575f5ffd5b83356001600160401b03811115610c3e575f5ffd5b610c4a86828701610b0d565b9350506020840135610c5b816104df565b929592945050506040919091013590565b5f5f5f5f5f5f5f60e0888a031215610c82575f5ffd5b8735610c8d816104df565b9650610c9b602089016104f6565b9550610ca960408901610881565b94506060880135935060808801356001600160401b03811115610cca575f5ffd5b610cd68a828b0161074e565b93505060a08801356001600160401b03811115610acb575f5ffd5b81511515815261014081016020830151610d0f602084018215159052565b506040830151610d23604084018215159052565b506060830151610d37606084018215159052565b506080830151610d4b608084018215159052565b5060a0830151610d5f60a084018215159052565b5060c0830151610d7360c084018215159052565b5060e0830151610d8760e084018215159052565b50610100830151610d9d61010084018215159052565b50610120830151610db361012084018215159052565b5092915050565b6001600160a01b0391909116815260200190565b5f60208284031215610dde575f5ffd5b8151610747816105c2565b5f82601f830112610df8575f5ffd5b8151610e0661064b82610594565b80828252602082019150602060608402860101925085831115610e27575f5ffd5b602085015b838110156107a95760608188031215610e43575f5ffd5b610e4b610542565b8151610e56816105b6565b81526020820151610e66816104df565b60208201526040820151610e79816105c2565b60408201528352602090920191606001610e2c565b5f82601f830112610e9d575f5ffd5b8151610eab61064b82610594565b8082825260208201915060208360051b860101925085831115610ecc575f5ffd5b602085015b838110156107a9578051835260209283019201610ed1565b5f5f5f5f60808587031215610efc575f5ffd5b84516001600160401b03811115610f11575f5ffd5b8501601f81018713610f21575f5ffd5b8051610f2f61064b82610594565b8082825260208201915060208360051b850101925089831115610f50575f5ffd5b6020840193505b82841015610f7b578351610f6a816104df565b825260209384019390910190610f57565b6020890151909750925050506001600160401b03811115610f9a575f5ffd5b610fa687828801610de9565b604087015190945090506001600160401b03811115610fc3575f5ffd5b610fcf87828801610e8e565b606087015190935090506001600160401b03811115610fec575f5ffd5b610ff887828801610e8e565b91505092959194509250565b634e487b7160e01b5f52603260045260245ffd5b634e487b7160e01b5f52601160045260245ffd5b808201808211156102f7576102f7611018565b818103818111156102f7576102f7611018565b80820281158282048414176102f7576102f7611018565b5f8261108357634e487b7160e01b5f52601260045260245ffd5b50049056fea2646970667358221220fdf313e24914a1bcdf55e063d93d23cc1df8fdeb4358ef58a1dd728649901a4464736f6c634300081e0033","linkReferences":{}},"methodIdentifiers":{"getHookFlags()":"d77153a7","onAfterAddLiquidity(address,address,uint8,uint256[],uint256[],uint256,uint256[],bytes)":"976907cc","onAfterInitialize(uint256[],uint256,bytes)":"38be241d","onAfterRemoveLiquidity(address,address,uint8,uint256,uint256[],uint256[],uint256[],bytes)":"2754888d","onAfterSwap((uint8,address,address,uint256,uint256,uint256,uint256,uint256,uint256,address,address,bytes))":"18b6eb55","onBeforeAddLiquidity(address,address,uint8,uint256[],uint256,uint256[],bytes)":"45421ec7","onBeforeInitialize(uint256[],bytes)":"1c149e28","onBeforeRemoveLiquidity(address,address,uint8,uint256,uint256[],uint256[],bytes)":"ba5f9f40","onBeforeSwap((uint8,uint256,uint256[],uint256,uint256,address,bytes),address)":"5211fa77","onComputeDynamicSwapFeePercentage((uint8,uint256,uint256[],uint256,uint256,address,bytes),address,uint256)":"a0e8f5ac","onRegister(address,address,(address,uint8,address,bool)[],(bool,bool,bool,bool))":"0b89f182"},"id":852}