{"abi":[{"type":"function","name":"create3Factory","inputs":[],"outputs":[{"name":"create3Factory_","type":"address","internalType":"contract ICreate3Factory"}],"stateMutability":"view"}],"bytecode":{"object":"0x6080604052348015600e575f5ffd5b5060bf80601a5f395ff3fe6080604052348015600e575f5ffd5b50600436106026575f3560e01c80632f02724214602a575b5f5ffd5b6030604c565b6040516001600160a01b03909116815260200160405180910390f35b5f60536058565b905090565b5f60537fadd49e1d852dc429bb599adb092dd042cd4129b616aec01a83264ef01f6d5c1d546001600160a01b03169056fea264697066735822122035a7c8dcfcf27bbebf8e745a759b3564567d6f873f33477ef354f252f313a34164736f6c634300081e0033","linkReferences":{}},"methodIdentifiers":{"create3Factory()":"2f027242"},"id":538}