{"abi":[{"type":"constructor","inputs":[{"name":"name_","type":"string","internalType":"string"},{"name":"symbol_","type":"string","internalType":"string"},{"name":"decimals_","type":"uint8","internalType":"uint8"},{"name":"initialTax_","type":"uint256","internalType":"uint256"},{"name":"initialSupply_","type":"uint256","internalType":"uint256"}],"stateMutability":"nonpayable"},{"type":"function","name":"TAX_DENOMINATOR","inputs":[],"outputs":[{"name":"","type":"uint256","internalType":"uint256"}],"stateMutability":"view"},{"type":"function","name":"allowance","inputs":[{"name":"owner","type":"address","internalType":"address"},{"name":"spender","type":"address","internalType":"address"}],"outputs":[{"name":"","type":"uint256","internalType":"uint256"}],"stateMutability":"view"},{"type":"function","name":"approve","inputs":[{"name":"spender","type":"address","internalType":"address"},{"name":"amount","type":"uint256","internalType":"uint256"}],"outputs":[{"name":"","type":"bool","internalType":"bool"}],"stateMutability":"nonpayable"},{"type":"function","name":"balanceOf","inputs":[{"name":"account","type":"address","internalType":"address"}],"outputs":[{"name":"","type":"uint256","internalType":"uint256"}],"stateMutability":"view"},{"type":"function","name":"calculateReceived","inputs":[{"name":"amount","type":"uint256","internalType":"uint256"}],"outputs":[{"name":"receivedAmount","type":"uint256","internalType":"uint256"}],"stateMutability":"view"},{"type":"function","name":"calculateTax","inputs":[{"name":"amount","type":"uint256","internalType":"uint256"}],"outputs":[{"name":"taxAmount","type":"uint256","internalType":"uint256"}],"stateMutability":"view"},{"type":"function","name":"decimals","inputs":[],"outputs":[{"name":"","type":"uint8","internalType":"uint8"}],"stateMutability":"view"},{"type":"function","name":"mint","inputs":[{"name":"account","type":"address","internalType":"address"},{"name":"amount","type":"uint256","internalType":"uint256"}],"outputs":[],"stateMutability":"nonpayable"},{"type":"function","name":"name","inputs":[],"outputs":[{"name":"","type":"string","internalType":"string"}],"stateMutability":"view"},{"type":"function","name":"setTransferTax","inputs":[{"name":"newTax_","type":"uint256","internalType":"uint256"}],"outputs":[],"stateMutability":"nonpayable"},{"type":"function","name":"symbol","inputs":[],"outputs":[{"name":"","type":"string","internalType":"string"}],"stateMutability":"view"},{"type":"function","name":"totalSupply","inputs":[],"outputs":[{"name":"","type":"uint256","internalType":"uint256"}],"stateMutability":"view"},{"type":"function","name":"totalTaxBurned","inputs":[],"outputs":[{"name":"","type":"uint256","internalType":"uint256"}],"stateMutability":"view"},{"type":"function","name":"transfer","inputs":[{"name":"recipient","type":"address","internalType":"address"},{"name":"amount","type":"uint256","internalType":"uint256"}],"outputs":[{"name":"","type":"bool","internalType":"bool"}],"stateMutability":"nonpayable"},{"type":"function","name":"transferFrom","inputs":[{"name":"owner","type":"address","internalType":"address"},{"name":"recipient","type":"address","internalType":"address"},{"name":"amount","type":"uint256","internalType":"uint256"}],"outputs":[{"name":"","type":"bool","internalType":"bool"}],"stateMutability":"nonpayable"},{"type":"function","name":"transferTax","inputs":[],"outputs":[{"name":"","type":"uint256","internalType":"uint256"}],"stateMutability":"view"},{"type":"event","name":"Approval","inputs":[{"name":"owner","type":"address","indexed":true,"internalType":"address"},{"name":"spender","type":"address","indexed":true,"internalType":"address"},{"name":"amount","type":"uint256","indexed":false,"internalType":"uint256"}],"anonymous":false},{"type":"event","name":"TaxBurned","inputs":[{"name":"from","type":"address","indexed":true,"internalType":"address"},{"name":"amount","type":"uint256","indexed":false,"internalType":"uint256"}],"anonymous":false},{"type":"event","name":"Transfer","inputs":[{"name":"from","type":"address","indexed":true,"internalType":"address"},{"name":"to","type":"address","indexed":true,"internalType":"address"},{"name":"amount","type":"uint256","indexed":false,"internalType":"uint256"}],"anonymous":false},{"type":"event","name":"TransferTaxUpdated","inputs":[{"name":"oldTax","type":"uint256","indexed":false,"internalType":"uint256"},{"name":"newTax","type":"uint256","indexed":false,"internalType":"uint256"}],"anonymous":false},{"type":"error","name":"ERC20InsufficientAllowance","inputs":[{"name":"spender","type":"address","internalType":"address"},{"name":"allowance","type":"uint256","internalType":"uint256"},{"name":"needed","type":"uint256","internalType":"uint256"}]},{"type":"error","name":"ERC20InsufficientBalance","inputs":[{"name":"sender","type":"address","internalType":"address"},{"name":"balance","type":"uint256","internalType":"uint256"},{"name":"needed","type":"uint256","internalType":"uint256"}]},{"type":"error","name":"ERC20InvalidReceiver","inputs":[{"name":"receiver","type":"address","internalType":"address"}]},{"type":"error","name":"ERC20InvalidSender","inputs":[{"name":"sender","type":"address","internalType":"address"}]},{"type":"error","name":"ERC20InvalidSpender","inputs":[{"name":"spender","type":"address","internalType":"address"}]},{"type":"error","name":"TaxTooHigh","inputs":[{"name":"tax","type":"uint256","internalType":"uint256"},{"name":"maxTax","type":"uint256","internalType":"uint256"}]}],"bytecode":{"object":"0x608060405234801561000f575f5ffd5b50604051610d97380380610d9783398101604081905261002e916101ff565b612710821115610061576040516358e4a91360e01b81526004810183905261271060248201526044015b60405180910390fd5b5f61006c8682610310565b5060016100798582610310565b506002805460ff191660ff85161790556006829055801561009e5761009e33826100a8565b50505050506103ef565b6001600160a01b0382166100da5760405163ec442f0560e01b81526001600160a01b0383166004820152602401610058565b6001600160a01b0382165f90815260046020526040812080548392906101019084906103ca565b925050819055508060035f82825461011991906103ca565b90915550506040518181526001600160a01b038316905f907fddf252ad1be2c89b69c2b068fc378daa952ba7f163c4a11628f55a4df523b3ef9060200160405180910390a35050565b634e487b7160e01b5f52604160045260245ffd5b5f82601f830112610185575f5ffd5b81516001600160401b0381111561019e5761019e610162565b604051601f8201601f19908116603f011681016001600160401b03811182821017156101cc576101cc610162565b6040528181528382016020018510156101e3575f5ffd5b8160208501602083015e5f918101602001919091529392505050565b5f5f5f5f5f60a08688031215610213575f5ffd5b85516001600160401b03811115610228575f5ffd5b61023488828901610176565b602088015190965090506001600160401b03811115610251575f5ffd5b61025d88828901610176565b945050604086015160ff81168114610273575f5ffd5b6060870151608090970151959894975095949392505050565b600181811c908216806102a057607f821691505b6020821081036102be57634e487b7160e01b5f52602260045260245ffd5b50919050565b601f82111561030b57805f5260205f20601f840160051c810160208510156102e95750805b601f840160051c820191505b81811015610308575f81556001016102f5565b50505b505050565b81516001600160401b0381111561032957610329610162565b61033d81610337845461028c565b846102c4565b6020601f82116001811461036f575f83156103585750848201515b5f19600385901b1c1916600184901b178455610308565b5f84815260208120601f198516915b8281101561039e578785015182556020948501946001909201910161037e565b50848210156103bb57868401515f19600387901b60f8161c191681555b50505050600190811b01905550565b808201808211156103e957634e487b7160e01b5f52601160045260245ffd5b92915050565b61099b806103fc5f395ff3fe608060405234801561000f575f5ffd5b50600436106100ce575f3560e01c806306fdde03146100d2578063095ea7b3146100f057806318160ddd1461011357806323b872dd14610125578063313ce5671461013857806340c10f191461014d578063483a93101461016257806370a08231146101755780637e90c3b21461019d5780638124f7ac146101b0578063884d6b3d146101b95780638b525903146101c257806395d89b41146101d5578063a51c9ace146101dd578063a9059cbb146101e6578063dd62ed3e146101f9575b5f5ffd5b6100da610231565b6040516100e7919061074e565b60405180910390f35b6101036100fe36600461079e565b6102c0565b60405190151581526020016100e7565b6003545b6040519081526020016100e7565b6101036101333660046107c6565b6102d6565b60025460405160ff90911681526020016100e7565b61016061015b36600461079e565b6102f7565b005b610117610170366004610800565b610305565b610117610183366004610817565b6001600160a01b03165f9081526004602052604090205490565b6101176101ab366004610800565b610321565b61011760065481565b61011760075481565b6101606101d0366004610800565b610335565b6100da6103ad565b61011761271081565b6101036101f436600461079e565b6103bc565b610117610207366004610837565b6001600160a01b039182165f90815260056020908152604080832093909416825291909152205490565b60605f805461023f90610868565b80601f016020809104026020016040519081016040528092919081815260200182805461026b90610868565b80156102b65780601f1061028d576101008083540402835291602001916102b6565b820191905f5260205f20905b81548152906001019060200180831161029957829003601f168201915b5050505050905090565b5f6102cc3384846103c8565b5060015b92915050565b5f6102e2843384610451565b6102ed8484846104e0565b5060019392505050565b61030182826106b0565b5050565b5f6127106006548361031791906108b4565b6102d091906108cb565b5f61032b82610305565b6102d090836108ea565b612710811115610368576040516358e4a91360e01b81526004810182905261271060248201526044015b60405180910390fd5b600680549082905560408051828152602081018490527f6a7b998a4adc393cb692c67fcd563e7971e2ea6f3fe7c9b8fb6dd53cf5b627d0910160405180910390a15050565b60606001805461023f90610868565b5f6102cc3384846104e0565b6001600160a01b0382166103f15781604051634a1406b160e11b815260040161035f91906108fd565b6001600160a01b038381165f8181526005602090815260408083209487168084529482529182902085905590518481527f8c5be1e5ebec7d5bd14f71427d1e84f3dd0314c0f7b2291e5b200ac8c7c3b925910160405180910390a3505050565b6001600160a01b03821661047a5781604051634a1406b160e11b815260040161035f91906108fd565b6001600160a01b038084165f90815260056020908152604080832093861683529290522054818110156104c657828183604051637dc7a0d960e11b815260040161035f93929190610911565b6104da84846104d585856108ea565b6103c8565b50505050565b6001600160a01b0383166105095782604051634b637e8f60e11b815260040161035f91906108fd565b6001600160a01b038216610532578160405163ec442f0560e01b815260040161035f91906108fd565b6001600160a01b0383165f90815260046020526040902054818110156105715783818360405163391434e360e21b815260040161035f93929190610911565b5f61057b83610305565b90505f61058882856108ea565b905061059484846108ea565b6001600160a01b038088165f9081526004602052604080822093909355908716815290812080548392906105c9908490610932565b9091555050811561066e578160035f8282546105e591906108ea565b925050819055508160075f8282546105fd9190610932565b90915550506040518281526001600160a01b038716907f9ad3c710e1cc4e96240264e5d3cd5aeaa93fd8bd6ee4b11bc9be7a5036a805859060200160405180910390a26040518281525f906001600160a01b038816905f5160206109465f395f51905f529060200160405180910390a35b846001600160a01b0316866001600160a01b03165f5160206109465f395f51905f52836040516106a091815260200190565b60405180910390a3505050505050565b6001600160a01b0382166106d9578160405163ec442f0560e01b815260040161035f91906108fd565b6001600160a01b0382165f9081526004602052604081208054839290610700908490610932565b925050819055508060035f8282546107189190610932565b90915550506040518181526001600160a01b038316905f905f5160206109465f395f51905f529060200160405180910390a35050565b602081525f82518060208401528060208501604085015e5f604082850101526040601f19601f83011684010191505092915050565b80356001600160a01b0381168114610799575f5ffd5b919050565b5f5f604083850312156107af575f5ffd5b6107b883610783565b946020939093013593505050565b5f5f5f606084860312156107d8575f5ffd5b6107e184610783565b92506107ef60208501610783565b929592945050506040919091013590565b5f60208284031215610810575f5ffd5b5035919050565b5f60208284031215610827575f5ffd5b61083082610783565b9392505050565b5f5f60408385031215610848575f5ffd5b61085183610783565b915061085f60208401610783565b90509250929050565b600181811c9082168061087c57607f821691505b60208210810361089a57634e487b7160e01b5f52602260045260245ffd5b50919050565b634e487b7160e01b5f52601160045260245ffd5b80820281158282048414176102d0576102d06108a0565b5f826108e557634e487b7160e01b5f52601260045260245ffd5b500490565b818103818111156102d0576102d06108a0565b6001600160a01b0391909116815260200190565b6001600160a01b039390931683526020830191909152604082015260600190565b808201808211156102d0576102d06108a056feddf252ad1be2c89b69c2b068fc378daa952ba7f163c4a11628f55a4df523b3efa26469706673582212204197295e77af579a45823548951d938e1f5916359277953bcd13139ef012ac8f64736f6c634300081e0033","linkReferences":{}},"methodIdentifiers":{"TAX_DENOMINATOR()":"a51c9ace","allowance(address,address)":"dd62ed3e","approve(address,uint256)":"095ea7b3","balanceOf(address)":"70a08231","calculateReceived(uint256)":"7e90c3b2","calculateTax(uint256)":"483a9310","decimals()":"313ce567","mint(address,uint256)":"40c10f19","name()":"06fdde03","setTransferTax(uint256)":"8b525903","symbol()":"95d89b41","totalSupply()":"18160ddd","totalTaxBurned()":"884d6b3d","transfer(address,uint256)":"a9059cbb","transferFrom(address,address,uint256)":"23b872dd","transferTax()":"8124f7ac"},"id":1015}