{"abi":[{"type":"function","name":"mul512x256","inputs":[{"name":"a","type":"tuple","internalType":"struct Uint512","components":[{"name":"hi","type":"uint256","internalType":"uint256"},{"name":"lo","type":"uint256","internalType":"uint256"}]},{"name":"b","type":"uint256","internalType":"uint256"}],"outputs":[{"name":"result","type":"tuple","internalType":"struct Uint512","components":[{"name":"hi","type":"uint256","internalType":"uint256"},{"name":"lo","type":"uint256","internalType":"uint256"}]}],"stateMutability":"pure"},{"type":"error","name":"Overflow","inputs":[]}],"bytecode":{"object":"0x610158610034600b8282823980515f1a607314602857634e487b7160e01b5f525f60045260245ffd5b305f52607381538281f3fe7300000000000000000000000000000000000000003014608060405260043610610034575f3560e01c8063721458c114610038575b5f5ffd5b61004b6100463660046100b6565b61006a565b6040805182518152602092830151928101929092520160405180910390f35b604080518082019091525f8082526020820152825160208401515f805f198685096040805180820190915294870280865280821091030392909502919091016020830152509392505050565b5f5f82840360608112156100c8575f5ffd5b60408112156100d5575f5ffd5b50604080519081016001600160401b038111828210171561010457634e487b7160e01b5f52604160045260245ffd5b6040908152843582526020808601359083015290959301359350505056fea2646970667358221220dbcc086fb0a50f2953a269ca139a97f503944ea84c265219ddb9c2ceaaa5c40064736f6c634300081e0033","linkReferences":{}},"methodIdentifiers":{"mul512x256(Uint512,uint256)":"721458c1"},"id":1021}