{"abi":[{"type":"constructor","inputs":[{"name":"vault","type":"address","internalType":"contract IVault"},{"name":"weth","type":"address","internalType":"contract IWETH"},{"name":"permit2","type":"address","internalType":"contract IPermit2"},{"name":"hookVersion","type":"string","internalType":"string"}],"stateMutability":"nonpayable"},{"type":"receive","stateMutability":"payable"},{"type":"function","name":"DECAY_PERIOD_DAYS","inputs":[],"outputs":[{"name":"","type":"uint256","internalType":"uint256"}],"stateMutability":"view"},{"type":"function","name":"INITIAL_FEE_PERCENTAGE","inputs":[],"outputs":[{"name":"","type":"uint256","internalType":"uint256"}],"stateMutability":"view"},{"type":"function","name":"ONE_PERCENT","inputs":[],"outputs":[{"name":"","type":"uint256","internalType":"uint256"}],"stateMutability":"view"},{"type":"function","name":"addLiquidityHook","inputs":[{"name":"params","type":"tuple","internalType":"struct MinimalRouter.ExtendedAddLiquidityHookParams","components":[{"name":"sender","type":"address","internalType":"address"},{"name":"receiver","type":"address","internalType":"address"},{"name":"pool","type":"address","internalType":"address"},{"name":"maxAmountsIn","type":"uint256[]","internalType":"uint256[]"},{"name":"minBptAmountOut","type":"uint256","internalType":"uint256"},{"name":"kind","type":"uint8","internalType":"enum AddLiquidityKind"},{"name":"wethIsEth","type":"bool","internalType":"bool"},{"name":"userData","type":"bytes","internalType":"bytes"}]}],"outputs":[{"name":"amountsIn","type":"uint256[]","internalType":"uint256[]"},{"name":"bptAmountOut","type":"uint256","internalType":"uint256"},{"name":"returnData","type":"bytes","internalType":"bytes"}],"stateMutability":"nonpayable"},{"type":"function","name":"addLiquidityProportional","inputs":[{"name":"pool","type":"address","internalType":"address"},{"name":"maxAmountsIn","type":"uint256[]","internalType":"uint256[]"},{"name":"exactBptAmountOut","type":"uint256","internalType":"uint256"},{"name":"wethIsEth","type":"bool","internalType":"bool"},{"name":"userData","type":"bytes","internalType":"bytes"}],"outputs":[{"name":"amountsIn","type":"uint256[]","internalType":"uint256[]"}],"stateMutability":"payable"},{"type":"function","name":"approve","inputs":[{"name":"to","type":"address","internalType":"address"},{"name":"tokenId","type":"uint256","internalType":"uint256"}],"outputs":[],"stateMutability":"nonpayable"},{"type":"function","name":"balanceOf","inputs":[{"name":"owner","type":"address","internalType":"address"}],"outputs":[{"name":"","type":"uint256","internalType":"uint256"}],"stateMutability":"view"},{"type":"function","name":"bptAmount","inputs":[{"name":"tokenId","type":"uint256","internalType":"uint256"}],"outputs":[{"name":"bptAmount","type":"uint256","internalType":"uint256"}],"stateMutability":"view"},{"type":"function","name":"getApproved","inputs":[{"name":"tokenId","type":"uint256","internalType":"uint256"}],"outputs":[{"name":"","type":"address","internalType":"address"}],"stateMutability":"view"},{"type":"function","name":"getCurrentFeePercentage","inputs":[{"name":"tokenId","type":"uint256","internalType":"uint256"}],"outputs":[{"name":"feePercentage","type":"uint256","internalType":"uint256"}],"stateMutability":"view"},{"type":"function","name":"getHookFlags","inputs":[],"outputs":[{"name":"","type":"tuple","internalType":"struct HookFlags","components":[{"name":"enableHookAdjustedAmounts","type":"bool","internalType":"bool"},{"name":"shouldCallBeforeInitialize","type":"bool","internalType":"bool"},{"name":"shouldCallAfterInitialize","type":"bool","internalType":"bool"},{"name":"shouldCallComputeDynamicSwapFee","type":"bool","internalType":"bool"},{"name":"shouldCallBeforeSwap","type":"bool","internalType":"bool"},{"name":"shouldCallAfterSwap","type":"bool","internalType":"bool"},{"name":"shouldCallBeforeAddLiquidity","type":"bool","internalType":"bool"},{"name":"shouldCallAfterAddLiquidity","type":"bool","internalType":"bool"},{"name":"shouldCallBeforeRemoveLiquidity","type":"bool","internalType":"bool"},{"name":"shouldCallAfterRemoveLiquidity","type":"bool","internalType":"bool"}]}],"stateMutability":"pure"},{"type":"function","name":"getPermit2","inputs":[],"outputs":[{"name":"","type":"address","internalType":"contract IPermit2"}],"stateMutability":"view"},{"type":"function","name":"getSender","inputs":[],"outputs":[{"name":"","type":"address","internalType":"address"}],"stateMutability":"view"},{"type":"function","name":"getVault","inputs":[],"outputs":[{"name":"","type":"address","internalType":"contract IVault"}],"stateMutability":"view"},{"type":"function","name":"getWeth","inputs":[],"outputs":[{"name":"","type":"address","internalType":"contract IWETH"}],"stateMutability":"view"},{"type":"function","name":"isApprovedForAll","inputs":[{"name":"owner","type":"address","internalType":"address"},{"name":"operator","type":"address","internalType":"address"}],"outputs":[{"name":"","type":"bool","internalType":"bool"}],"stateMutability":"view"},{"type":"function","name":"multicall","inputs":[{"name":"data","type":"bytes[]","internalType":"bytes[]"}],"outputs":[{"name":"results","type":"bytes[]","internalType":"bytes[]"}],"stateMutability":"payable"},{"type":"function","name":"name","inputs":[],"outputs":[{"name":"","type":"string","internalType":"string"}],"stateMutability":"view"},{"type":"function","name":"nftPool","inputs":[{"name":"tokenId","type":"uint256","internalType":"uint256"}],"outputs":[{"name":"pool","type":"address","internalType":"address"}],"stateMutability":"view"},{"type":"function","name":"onAfterAddLiquidity","inputs":[{"name":"","type":"address","internalType":"address"},{"name":"","type":"address","internalType":"address"},{"name":"","type":"uint8","internalType":"enum AddLiquidityKind"},{"name":"","type":"uint256[]","internalType":"uint256[]"},{"name":"amountsInRaw","type":"uint256[]","internalType":"uint256[]"},{"name":"","type":"uint256","internalType":"uint256"},{"name":"","type":"uint256[]","internalType":"uint256[]"},{"name":"","type":"bytes","internalType":"bytes"}],"outputs":[{"name":"","type":"bool","internalType":"bool"},{"name":"","type":"uint256[]","internalType":"uint256[]"}],"stateMutability":"nonpayable"},{"type":"function","name":"onAfterInitialize","inputs":[{"name":"","type":"uint256[]","internalType":"uint256[]"},{"name":"","type":"uint256","internalType":"uint256"},{"name":"","type":"bytes","internalType":"bytes"}],"outputs":[{"name":"","type":"bool","internalType":"bool"}],"stateMutability":"nonpayable"},{"type":"function","name":"onAfterRemoveLiquidity","inputs":[{"name":"router","type":"address","internalType":"address"},{"name":"pool","type":"address","internalType":"address"},{"name":"","type":"uint8","internalType":"enum RemoveLiquidityKind"},{"name":"","type":"uint256","internalType":"uint256"},{"name":"","type":"uint256[]","internalType":"uint256[]"},{"name":"amountsOutRaw","type":"uint256[]","internalType":"uint256[]"},{"name":"","type":"uint256[]","internalType":"uint256[]"},{"name":"userData","type":"bytes","internalType":"bytes"}],"outputs":[{"name":"","type":"bool","internalType":"bool"},{"name":"hookAdjustedAmountsOutRaw","type":"uint256[]","internalType":"uint256[]"}],"stateMutability":"nonpayable"},{"type":"function","name":"onAfterSwap","inputs":[{"name":"","type":"tuple","internalType":"struct AfterSwapParams","components":[{"name":"kind","type":"uint8","internalType":"enum SwapKind"},{"name":"tokenIn","type":"address","internalType":"contract IERC20"},{"name":"tokenOut","type":"address","internalType":"contract IERC20"},{"name":"amountInScaled18","type":"uint256","internalType":"uint256"},{"name":"amountOutScaled18","type":"uint256","internalType":"uint256"},{"name":"tokenInBalanceScaled18","type":"uint256","internalType":"uint256"},{"name":"tokenOutBalanceScaled18","type":"uint256","internalType":"uint256"},{"name":"amountCalculatedScaled18","type":"uint256","internalType":"uint256"},{"name":"amountCalculatedRaw","type":"uint256","internalType":"uint256"},{"name":"router","type":"address","internalType":"address"},{"name":"pool","type":"address","internalType":"address"},{"name":"userData","type":"bytes","internalType":"bytes"}]}],"outputs":[{"name":"","type":"bool","internalType":"bool"},{"name":"","type":"uint256","internalType":"uint256"}],"stateMutability":"nonpayable"},{"type":"function","name":"onBeforeAddLiquidity","inputs":[{"name":"router","type":"address","internalType":"address"},{"name":"","type":"address","internalType":"address"},{"name":"","type":"uint8","internalType":"enum AddLiquidityKind"},{"name":"","type":"uint256[]","internalType":"uint256[]"},{"name":"","type":"uint256","internalType":"uint256"},{"name":"","type":"uint256[]","internalType":"uint256[]"},{"name":"","type":"bytes","internalType":"bytes"}],"outputs":[{"name":"","type":"bool","internalType":"bool"}],"stateMutability":"view"},{"type":"function","name":"onBeforeInitialize","inputs":[{"name":"","type":"uint256[]","internalType":"uint256[]"},{"name":"","type":"bytes","internalType":"bytes"}],"outputs":[{"name":"","type":"bool","internalType":"bool"}],"stateMutability":"nonpayable"},{"type":"function","name":"onBeforeRemoveLiquidity","inputs":[{"name":"","type":"address","internalType":"address"},{"name":"","type":"address","internalType":"address"},{"name":"","type":"uint8","internalType":"enum RemoveLiquidityKind"},{"name":"","type":"uint256","internalType":"uint256"},{"name":"","type":"uint256[]","internalType":"uint256[]"},{"name":"","type":"uint256[]","internalType":"uint256[]"},{"name":"","type":"bytes","internalType":"bytes"}],"outputs":[{"name":"","type":"bool","internalType":"bool"}],"stateMutability":"nonpayable"},{"type":"function","name":"onBeforeSwap","inputs":[{"name":"","type":"tuple","internalType":"struct PoolSwapParams","components":[{"name":"kind","type":"uint8","internalType":"enum SwapKind"},{"name":"amountGivenScaled18","type":"uint256","internalType":"uint256"},{"name":"balancesScaled18","type":"uint256[]","internalType":"uint256[]"},{"name":"indexIn","type":"uint256","internalType":"uint256"},{"name":"indexOut","type":"uint256","internalType":"uint256"},{"name":"router","type":"address","internalType":"address"},{"name":"userData","type":"bytes","internalType":"bytes"}]},{"name":"","type":"address","internalType":"address"}],"outputs":[{"name":"","type":"bool","internalType":"bool"}],"stateMutability":"nonpayable"},{"type":"function","name":"onComputeDynamicSwapFeePercentage","inputs":[{"name":"","type":"tuple","internalType":"struct PoolSwapParams","components":[{"name":"kind","type":"uint8","internalType":"enum SwapKind"},{"name":"amountGivenScaled18","type":"uint256","internalType":"uint256"},{"name":"balancesScaled18","type":"uint256[]","internalType":"uint256[]"},{"name":"indexIn","type":"uint256","internalType":"uint256"},{"name":"indexOut","type":"uint256","internalType":"uint256"},{"name":"router","type":"address","internalType":"address"},{"name":"userData","type":"bytes","internalType":"bytes"}]},{"name":"","type":"address","internalType":"address"},{"name":"","type":"uint256","internalType":"uint256"}],"outputs":[{"name":"","type":"bool","internalType":"bool"},{"name":"","type":"uint256","internalType":"uint256"}],"stateMutability":"view"},{"type":"function","name":"onRegister","inputs":[{"name":"","type":"address","internalType":"address"},{"name":"pool","type":"address","internalType":"address"},{"name":"","type":"tuple[]","internalType":"struct TokenConfig[]","components":[{"name":"token","type":"address","internalType":"contract IERC20"},{"name":"tokenType","type":"uint8","internalType":"enum TokenType"},{"name":"rateProvider","type":"address","internalType":"contract IRateProvider"},{"name":"paysYieldFees","type":"bool","internalType":"bool"}]},{"name":"liquidityManagement","type":"tuple","internalType":"struct LiquidityManagement","components":[{"name":"disableUnbalancedLiquidity","type":"bool","internalType":"bool"},{"name":"enableAddLiquidityCustom","type":"bool","internalType":"bool"},{"name":"enableRemoveLiquidityCustom","type":"bool","internalType":"bool"},{"name":"enableDonation","type":"bool","internalType":"bool"}]}],"outputs":[{"name":"","type":"bool","internalType":"bool"}],"stateMutability":"nonpayable"},{"type":"function","name":"ownerOf","inputs":[{"name":"tokenId","type":"uint256","internalType":"uint256"}],"outputs":[{"name":"","type":"address","internalType":"address"}],"stateMutability":"view"},{"type":"function","name":"permitBatchAndCall","inputs":[{"name":"permitBatch","type":"tuple[]","internalType":"struct IRouterCommon.PermitApproval[]","components":[{"name":"token","type":"address","internalType":"address"},{"name":"owner","type":"address","internalType":"address"},{"name":"spender","type":"address","internalType":"address"},{"name":"amount","type":"uint256","internalType":"uint256"},{"name":"nonce","type":"uint256","internalType":"uint256"},{"name":"deadline","type":"uint256","internalType":"uint256"}]},{"name":"permitSignatures","type":"bytes[]","internalType":"bytes[]"},{"name":"permit2Batch","type":"tuple","internalType":"struct IAllowanceTransfer.PermitBatch","components":[{"name":"details","type":"tuple[]","internalType":"struct IAllowanceTransfer.PermitDetails[]","components":[{"name":"token","type":"address","internalType":"address"},{"name":"amount","type":"uint160","internalType":"uint160"},{"name":"expiration","type":"uint48","internalType":"uint48"},{"name":"nonce","type":"uint48","internalType":"uint48"}]},{"name":"spender","type":"address","internalType":"address"},{"name":"sigDeadline","type":"uint256","internalType":"uint256"}]},{"name":"permit2Signature","type":"bytes","internalType":"bytes"},{"name":"multicallData","type":"bytes[]","internalType":"bytes[]"}],"outputs":[{"name":"","type":"bytes[]","internalType":"bytes[]"}],"stateMutability":"payable"},{"type":"function","name":"removeLiquidityHook","inputs":[{"name":"params","type":"tuple","internalType":"struct MinimalRouter.ExtendedRemoveLiquidityHookParams","components":[{"name":"sender","type":"address","internalType":"address"},{"name":"receiver","type":"address","internalType":"address"},{"name":"pool","type":"address","internalType":"address"},{"name":"minAmountsOut","type":"uint256[]","internalType":"uint256[]"},{"name":"maxBptAmountIn","type":"uint256","internalType":"uint256"},{"name":"kind","type":"uint8","internalType":"enum RemoveLiquidityKind"},{"name":"wethIsEth","type":"bool","internalType":"bool"},{"name":"userData","type":"bytes","internalType":"bytes"}]}],"outputs":[{"name":"bptAmountIn","type":"uint256","internalType":"uint256"},{"name":"amountsOut","type":"uint256[]","internalType":"uint256[]"},{"name":"returnData","type":"bytes","internalType":"bytes"}],"stateMutability":"nonpayable"},{"type":"function","name":"removeLiquidityProportional","inputs":[{"name":"tokenId","type":"uint256","internalType":"uint256"},{"name":"minAmountsOut","type":"uint256[]","internalType":"uint256[]"},{"name":"wethIsEth","type":"bool","internalType":"bool"}],"outputs":[{"name":"amountsOut","type":"uint256[]","internalType":"uint256[]"}],"stateMutability":"payable"},{"type":"function","name":"safeTransferFrom","inputs":[{"name":"from","type":"address","internalType":"address"},{"name":"to","type":"address","internalType":"address"},{"name":"tokenId","type":"uint256","internalType":"uint256"}],"outputs":[],"stateMutability":"nonpayable"},{"type":"function","name":"safeTransferFrom","inputs":[{"name":"from","type":"address","internalType":"address"},{"name":"to","type":"address","internalType":"address"},{"name":"tokenId","type":"uint256","internalType":"uint256"},{"name":"data","type":"bytes","internalType":"bytes"}],"outputs":[],"stateMutability":"nonpayable"},{"type":"function","name":"setApprovalForAll","inputs":[{"name":"operator","type":"address","internalType":"address"},{"name":"approved","type":"bool","internalType":"bool"}],"outputs":[],"stateMutability":"nonpayable"},{"type":"function","name":"startTime","inputs":[{"name":"tokenId","type":"uint256","internalType":"uint256"}],"outputs":[{"name":"timestamp","type":"uint256","internalType":"uint256"}],"stateMutability":"view"},{"type":"function","name":"supportsInterface","inputs":[{"name":"interfaceId","type":"bytes4","internalType":"bytes4"}],"outputs":[{"name":"","type":"bool","internalType":"bool"}],"stateMutability":"view"},{"type":"function","name":"symbol","inputs":[],"outputs":[{"name":"","type":"string","internalType":"string"}],"stateMutability":"view"},{"type":"function","name":"tokenURI","inputs":[{"name":"tokenId","type":"uint256","internalType":"uint256"}],"outputs":[{"name":"","type":"string","internalType":"string"}],"stateMutability":"view"},{"type":"function","name":"transferFrom","inputs":[{"name":"from","type":"address","internalType":"address"},{"name":"to","type":"address","internalType":"address"},{"name":"tokenId","type":"uint256","internalType":"uint256"}],"outputs":[],"stateMutability":"nonpayable"},{"type":"function","name":"version","inputs":[],"outputs":[{"name":"","type":"string","internalType":"string"}],"stateMutability":"view"},{"type":"event","name":"Approval","inputs":[{"name":"owner","type":"address","indexed":true,"internalType":"address"},{"name":"approved","type":"address","indexed":true,"internalType":"address"},{"name":"tokenId","type":"uint256","indexed":true,"internalType":"uint256"}],"anonymous":false},{"type":"event","name":"ApprovalForAll","inputs":[{"name":"owner","type":"address","indexed":true,"internalType":"address"},{"name":"operator","type":"address","indexed":true,"internalType":"address"},{"name":"approved","type":"bool","indexed":false,"internalType":"bool"}],"anonymous":false},{"type":"event","name":"ExitFeeCharged","inputs":[{"name":"nftHolder","type":"address","indexed":true,"internalType":"address"},{"name":"pool","type":"address","indexed":true,"internalType":"address"},{"name":"feeToken","type":"address","indexed":true,"internalType":"contract IERC20"},{"name":"feeAmount","type":"uint256","indexed":false,"internalType":"uint256"}],"anonymous":false},{"type":"event","name":"LiquidityPositionNftBurned","inputs":[{"name":"nftHolder","type":"address","indexed":true,"internalType":"address"},{"name":"pool","type":"address","indexed":true,"internalType":"address"},{"name":"nftId","type":"uint256","indexed":false,"internalType":"uint256"}],"anonymous":false},{"type":"event","name":"LiquidityPositionNftMinted","inputs":[{"name":"nftHolder","type":"address","indexed":true,"internalType":"address"},{"name":"pool","type":"address","indexed":true,"internalType":"address"},{"name":"nftId","type":"uint256","indexed":false,"internalType":"uint256"}],"anonymous":false},{"type":"event","name":"NftLiquidityPositionExampleRegistered","inputs":[{"name":"hooksContract","type":"address","indexed":true,"internalType":"address"},{"name":"pool","type":"address","indexed":true,"internalType":"address"}],"anonymous":false},{"type":"event","name":"Transfer","inputs":[{"name":"from","type":"address","indexed":true,"internalType":"address"},{"name":"to","type":"address","indexed":true,"internalType":"address"},{"name":"tokenId","type":"uint256","indexed":true,"internalType":"uint256"}],"anonymous":false},{"type":"error","name":"AddressEmptyCode","inputs":[{"name":"target","type":"address","internalType":"address"}]},{"type":"error","name":"CannotUseExternalRouter","inputs":[{"name":"router","type":"address","internalType":"address"}]},{"type":"error","name":"ERC721IncorrectOwner","inputs":[{"name":"sender","type":"address","internalType":"address"},{"name":"tokenId","type":"uint256","internalType":"uint256"},{"name":"owner","type":"address","internalType":"address"}]},{"type":"error","name":"ERC721InsufficientApproval","inputs":[{"name":"operator","type":"address","internalType":"address"},{"name":"tokenId","type":"uint256","internalType":"uint256"}]},{"type":"error","name":"ERC721InvalidApprover","inputs":[{"name":"approver","type":"address","internalType":"address"}]},{"type":"error","name":"ERC721InvalidOperator","inputs":[{"name":"operator","type":"address","internalType":"address"}]},{"type":"error","name":"ERC721InvalidOwner","inputs":[{"name":"owner","type":"address","internalType":"address"}]},{"type":"error","name":"ERC721InvalidReceiver","inputs":[{"name":"receiver","type":"address","internalType":"address"}]},{"type":"error","name":"ERC721InvalidSender","inputs":[{"name":"sender","type":"address","internalType":"address"}]},{"type":"error","name":"ERC721NonexistentToken","inputs":[{"name":"tokenId","type":"uint256","internalType":"uint256"}]},{"type":"error","name":"ErrorSelectorNotFound","inputs":[]},{"type":"error","name":"EthTransfer","inputs":[]},{"type":"error","name":"FailedCall","inputs":[]},{"type":"error","name":"InputLengthMismatch","inputs":[]},{"type":"error","name":"InsufficientBalance","inputs":[{"name":"balance","type":"uint256","internalType":"uint256"},{"name":"needed","type":"uint256","internalType":"uint256"}]},{"type":"error","name":"InsufficientEth","inputs":[]},{"type":"error","name":"OperationNotSupported","inputs":[]},{"type":"error","name":"PoolDoesNotSupportDonation","inputs":[]},{"type":"error","name":"PoolSupportsUnbalancedLiquidity","inputs":[]},{"type":"error","name":"ReentrancyGuardReentrantCall","inputs":[]},{"type":"error","name":"SenderIsNotVault","inputs":[{"name":"sender","type":"address","internalType":"address"}]},{"type":"error","name":"SwapDeadline","inputs":[]},{"type":"error","name":"WithdrawalByNonOwner","inputs":[{"name":"withdrawer","type":"address","internalType":"address"},{"name":"owner","type":"address","internalType":"address"},{"name":"nftId","type":"uint256","internalType":"uint256"}]}],"bytecode":{"object":"0x600b6101409081526a14d95b99195c91dd585c9960aa1b610160526101c060405260066101809081526539b2b73232b960d11b6101a052610040919061017f565b608052604080518082018252600c81526b2937baba32b921b7b6b6b7b760a11b602080830191909152825180840190935260118352701a5cd4995d1d5c9b915d1a131bd8dad959607a1b908301526100979161017f565b60c0523480156100a5575f5ffd5b50604051614d04380380614d048339810160408190526100c491610228565b604080518082018252601981527f42616c616e6365724c697175696469747950726f76696465720000000000000060208083019190915282518084019093526006835265042414c5f4c560d41b908301526001600160a01b03861660a05290858585858383838380610135816101ee565b50506001600160a01b0391821660e05216610100819052156101205250600193506101669250859150839050610396565b5060026101738282610396565b505050505050506104d4565b5f60ff5f1b196001848460405160200161019a929190610467565b604051602081830303815290604052805190602001205f1c6101bc91906104b5565b6040516020016101ce91815260200190565b604051602081830303815290604052805190602001201690505b92915050565b5f6101f98282610396565b5050565b6001600160a01b0381168114610211575f5ffd5b50565b634e487b7160e01b5f52604160045260245ffd5b5f5f5f5f6080858703121561023b575f5ffd5b8451610246816101fd565b6020860151909450610257816101fd565b6040860151909350610268816101fd565b60608601519092506001600160401b03811115610283575f5ffd5b8501601f81018713610293575f5ffd5b80516001600160401b038111156102ac576102ac610214565b604051601f8201601f19908116603f011681016001600160401b03811182821017156102da576102da610214565b6040528181528282016020018910156102f1575f5ffd5b8160208401602083015e5f6020838301015280935050505092959194509250565b600181811c9082168061032657607f821691505b60208210810361034457634e487b7160e01b5f52602260045260245ffd5b50919050565b601f82111561039157805f5260205f20601f840160051c8101602085101561036f5750805b601f840160051c820191505b8181101561038e575f815560010161037b565b50505b505050565b81516001600160401b038111156103af576103af610214565b6103c3816103bd8454610312565b8461034a565b6020601f8211600181146103f5575f83156103de5750848201515b5f19600385901b1c1916600184901b17845561038e565b5f84815260208120601f198516915b828110156104245787850151825560209485019460019092019101610404565b508482101561044157868401515f19600387901b60f8161c191681555b50505050600190811b01905550565b5f81518060208401855e5f93019283525090919050565b7f62616c616e6365722d6c6162732e76332e73746f726167652e0000000000000081525f6104986019830185610450565b601760f91b81526104ac6001820185610450565b95945050505050565b818103818111156101e857634e487b7160e01b5f52601160045260245ffd5b60805160a05160c05160e051610100516101205161474f6105b55f395f81816109a4015261114d01525f818161038e015281816117c80152611cc201525f81816101f30152818161030401528181610e8201528181610ec001528181611735015261177301525f6124b801525f818161060401528181610be001528181610d8001528181610ee101528181610f25015281816114910152818161163501528181611794015281816117fc015281816118a401528181611a3c01528181611e7201528181612031015281816122a401526126a101525f61212a015261474f5ff3fe6080604052600436106101e3575f3560e01c806301ffc9a71461023757806306fdde031461026b578063081812fc1461028c578063095ea7b3146102b85780630b89f182146102d7578063107c279f146102f657806318b6eb551461032857806319c6989f146103605780631bbf2e23146103805780631c149e28146103b257806323b872dd146103d35780632754888d146103f257806338be241d1461041f5780633badc1c71461043e5780633ec4c9681461047757806342842e0e146104a257806345421ec7146104c15780635211fa77146104e057806354fd4d50146104fa5780635a6eba631461050e5780635e01eb5a146105425780636274a830146105565780636352211e146105845780636d0ab8b3146105a357806370a08231146105b7578063724dba33146105d65780638d928af8146105f657806395d89b4114610628578063976907cc1461063c578063a0e8f5ac14610665578063a22cb46514610689578063ac9650d8146106a8578063b88d4fde146106bb578063ba5f9f40146106da578063bb2eb4d214610700578063c7fa5bf61461071a578063c87b56dd1461072d578063d64f192d1461074c578063d77153a714610767578063e41535c214610788578063e6f5e586146107b6578063e985e9c5146107d5575f5ffd5b3661023357336001600160a01b037f00000000000000000000000000000000000000000000000000000000000000001614610231576040516302a06efb60e11b815260040160405180910390fd5b005b5f5ffd5b348015610242575f5ffd5b50610256610251366004612f8c565b6107f4565b60405190151581526020015b60405180910390f35b348015610276575f5ffd5b5061027f610845565b6040516102629190612fd5565b348015610297575f5ffd5b506102ab6102a6366004612fe7565b6108d5565b604051610262919061300b565b3480156102c3575f5ffd5b506102316102d2366004613043565b6108e9565b3480156102e2575f5ffd5b506102566102f136600461311a565b6108f8565b348015610301575f5ffd5b507f00000000000000000000000000000000000000000000000000000000000000006102ab565b348015610333575f5ffd5b50610349610342366004613246565b505f908190565b604080519215158352602083019190915201610262565b61037361036e366004613351565b6109a0565b6040516102629190613446565b34801561038b575f5ffd5b507f00000000000000000000000000000000000000000000000000000000000000006102ab565b3480156103bd575f5ffd5b506102566103cc366004613581565b5f92915050565b3480156103de575f5ffd5b506102316103ed3660046135e4565b610a08565b3480156103fd575f5ffd5b5061041161040c366004613630565b610a9a565b604051610262929190613759565b34801561042a575f5ffd5b50610256610439366004613773565b610b5d565b348015610449575f5ffd5b50610469610458366004612fe7565b60076020525f908152604090205481565b604051908152602001610262565b348015610482575f5ffd5b50610469610491366004612fe7565b60086020525f908152604090205481565b3480156104ad575f5ffd5b506102316104bc3660046135e4565b610b66565b3480156104cc575f5ffd5b506102566104db3660046137ec565b610b85565b3480156104eb575f5ffd5b506102566103cc3660046138c3565b348015610505575f5ffd5b5061027f610ba7565b348015610519575f5ffd5b506102ab610528366004612fe7565b60096020525f90815260409020546001600160a01b031681565b34801561054d575f5ffd5b506102ab610bb5565b348015610561575f5ffd5b50610575610570366004613922565b610bca565b60405161026293929190613953565b34801561058f575f5ffd5b506102ab61059e366004612fe7565b610fc4565b3480156105ae575f5ffd5b50610469600a81565b3480156105c2575f5ffd5b506104696105d1366004613987565b610fce565b6105e96105e43660046139a2565b611013565b6040516102629190613a30565b348015610601575f5ffd5b507f00000000000000000000000000000000000000000000000000000000000000006102ab565b348015610633575f5ffd5b5061027f6110e7565b348015610647575f5ffd5b50610411610656366004613a42565b5f849850989650505050505050565b348015610670575f5ffd5b5061034961067f366004613aee565b5f80935093915050565b348015610694575f5ffd5b506102316106a3366004613b32565b6110f6565b6103736106b6366004613b65565b611101565b3480156106c6575f5ffd5b506102316106d5366004613ba3565b61129d565b3480156106e5575f5ffd5b506102566106f4366004613c0a565b5f979650505050505050565b34801561070b575f5ffd5b50610469662386f26fc1000081565b6105e9610728366004613c8f565b6112b5565b348015610738575f5ffd5b5061027f610747366004612fe7565b6113e3565b348015610757575f5ffd5b5061046967016345785d8a000081565b348015610772575f5ffd5b5061077b611453565b6040516102629190613ce1565b348015610793575f5ffd5b506107a76107a2366004613922565b61147a565b60405161026293929190613daa565b3480156107c1575f5ffd5b506104696107d0366004612fe7565b611949565b3480156107e0575f5ffd5b506102566107ef366004613dd4565b6119a6565b5f6001600160e01b031982166380ac58cd60e01b148061082457506001600160e01b03198216635b5e139f60e01b145b8061083f57506301ffc9a760e01b6001600160e01b03198316145b92915050565b60606001805461085490613e00565b80601f016020809104026020016040519081016040528092919081815260200182805461088090613e00565b80156108cb5780601f106108a2576101008083540402835291602001916108cb565b820191905f5260205f20905b8154815290600101906020018083116108ae57829003601f168201915b5050505050905090565b5f6108df826119d3565b5061083f82611a0a565b6108f4828233611a24565b5050565b5f610901611a31565b6109116080830160608401613e32565b15155f0361093257604051636fe7a42d60e11b815260040160405180910390fd5b61093f6020830183613e32565b15155f03610960576040516308a0d0a960e21b815260040160405180910390fd5b6040516001600160a01b0385169030907fa2db08baa4b7d93825e842dd4b77566ed0dc4708ee641c491083ce1a8df7936b905f90a3506001949350505050565b60607f0000000000000000000000000000000000000000000000000000000000000000156109e1576040516329a270f560e01b815260040160405180910390fd5b6109f08a8a8a8a8a8a8a611a7e565b6109fa8383611101565b9a9950505050505050505050565b6001600160a01b038216610a3a575f604051633250574960e11b8152600401610a31919061300b565b60405180910390fd5b5f610a46838333611d3c565b9050836001600160a01b0316816001600160a01b031614610a94576040516364283d7b60e01b81526001600160a01b0380861660048301526024820184905282166044820152606401610a31565b50505050565b5f6060610aa5611a31565b89610aaf81611e29565b5f84806020019051810190610ac49190613e4b565b90508692505f610ad382611949565b90508015610b4957610b468d6001600160a01b0316635e01eb5a6040518163ffffffff1660e01b8152600401602060405180830381865afa158015610b1a573d5f5f3e3d5ffd5b505050506040513d601f19601f82011682018060405250810190610b3e9190613e62565b8d8a84611e57565b93505b600194505050509850989650505050505050565b5f5b9392505050565b610b8083838360405180602001604052805f81525061129d565b505050565b5f610b8e611a31565b87610b9881611e29565b50600198975050505050505050565b60605f805461085490613e00565b5f610bc5610bc1612128565b5c90565b905090565b5f606080610bd661214c565b610bde611a31565b7f00000000000000000000000000000000000000000000000000000000000000006001600160a01b031663214578976040518060c00160405280876040016020810190610c2b9190613987565b6001600160a01b03168152602090810190610c4890890189613987565b6001600160a01b0316815260808801356020820152604001610c6d6060890189613e7d565b808060200260200160405190810160405280939291908181526020018383602002808284375f92019190915250505090825250602001610cb360c0890160a08a01613ec2565b6003811115610cc457610cc4613edb565b8152602001610cd660e0890189613eef565b8080601f0160208091040260200160405190810160405280939291908181526020018383808284375f9201919091525050509152506040516001600160e01b031960e084901b168152610d2c9190600401613f45565b5f604051808303815f875af1158015610d47573d5f5f3e3d5ffd5b505050506040513d5f823e601f3d908101601f19168201604052610d6e9190810190614066565b919450925090505f6001600160a01b037f00000000000000000000000000000000000000000000000000000000000000001663ca4f2803610db56060880160408901613987565b6040518263ffffffff1660e01b8152600401610dd1919061300b565b5f60405180830381865afa158015610deb573d5f5f3e3d5ffd5b505050506040513d5f823e601f3d908101601f19168201604052610e1291908101906140ca565b90505f5b8151811015610fb3575f848281518110610e3257610e32614159565b60200260200101519050805f03610e495750610fab565b5f838381518110610e5c57610e5c614159565b602002602001015190508760c0016020810190610e799190613e32565b8015610eb657507f00000000000000000000000000000000000000000000000000000000000000006001600160a01b0316816001600160a01b0316145b15610f1b57610f167f00000000000000000000000000000000000000000000000000000000000000007f0000000000000000000000000000000000000000000000000000000000000000610f1060408c0160208d01613987565b85612191565b610fa8565b6001600160a01b037f00000000000000000000000000000000000000000000000000000000000000001663ae63932982610f5b60408c0160208d01613987565b856040518463ffffffff1660e01b8152600401610f7a9392919061416d565b5f604051808303815f87803b158015610f91575f5ffd5b505af1158015610fa3573d5f5f3e3d5ffd5b505050505b50505b600101610e16565b5050610fbd612257565b9193909250565b5f61083f826119d3565b5f6001600160a01b038216610ff8575f6040516322718ad960e21b8152600401610a31919061300b565b506001600160a01b03165f9081526004602052604090205490565b6060335f6110208261226e565b90506110318833308a8a8a8a6122a0565b600a80549194505f919082611045836141a5565b909155505f8181526007602090815260408083208b9055600882528083204290556009909152902080546001600160a01b0319166001600160a01b038c16179055905061109233826123f6565b6040518181526001600160a01b038a169033907f7b22bb274b2d0d19b67ac5c857fb51c421577207cbe108332e3687d934ed15799060200160405180910390a3506110dc8161240f565b505095945050505050565b60606002805461085490613e00565b6108f4338383612421565b60605f61110d3361226e565b905061111a610bc16124b6565b1561113857604051633ee5aeb560e01b815260040160405180910390fd5b61114b60016111456124b6565b906124da565b7f00000000000000000000000000000000000000000000000000000000000000001561118a576040516329a270f560e01b815260040160405180910390fd5b826001600160401b038111156111a2576111a261306d565b6040519080825280602002602001820160405280156111d557816020015b60608152602001906001900390816111c05790505b5091505f5b8381101561126857611243308686848181106111f8576111f8614159565b905060200281019061120a9190613eef565b8080601f0160208091040260200160405190810160405280939291908181526020018383808284375f920191909152506124e192505050565b83828151811061125557611255614159565b60209081029190910101526001016111da565b506112755f6111456124b6565b5f611281610bc1612128565b905061128c8261240f565b61129581612553565b505092915050565b6112a8848484610a08565b610a943385858585612587565b6060335f6112c28261226e565b90505f6112ce87610fc4565b90506001600160a01b03811633146112ff573381886040516392cc678160e01b8152600401610a319392919061416d565b5f8781526009602090815260408083205460078352928190205481519283018b90526001600160a01b03909316926113529284923092339290918d918d910160405160208183030381529060405261269d565b5f898152600760209081526040808320839055600882528083208390556009909152902080546001600160a01b0319169055945061138f886127f2565b6040518881526001600160a01b0382169033907f6356e07376e4fcb8b97a25d40a28726bc9389c9b1502bc535493b220cdcc45f29060200160405180910390a350506113da8161240f565b50509392505050565b60606113ee826119d3565b505f61140460408051602081019091525f815290565b90505f8151116114225760405180602001604052805f815250610b5f565b8061142c8461282a565b60405160200161143d9291906141d4565b6040516020818303038152906040529392505050565b61145b612f24565b611463612f24565b600180825260c08201819052610120820152919050565b60605f606061148761214c565b61148f611a31565b7f00000000000000000000000000000000000000000000000000000000000000006001600160a01b0316634af29ec46040518060c001604052808760400160208101906114dc9190613987565b6001600160a01b031681526020018760200160208101906114fd9190613987565b6001600160a01b031681526020016115186060890189613e7d565b808060200260200160405190810160405280939291908181526020018383602002808284375f920191909152505050908252506080880135602082015260400161156860c0890160a08a016141e8565b600481111561157957611579613edb565b815260200161158b60e0890189613eef565b8080601f0160208091040260200160405190810160405280939291908181526020018383808284375f9201919091525050509152506040516001600160e01b031960e084901b1681526115e19190600401614211565b5f604051808303815f875af11580156115fc573d5f5f3e3d5ffd5b505050506040513d5f823e601f3d908101601f19168201604052611623919081019061426c565b919450925090505f6001600160a01b037f00000000000000000000000000000000000000000000000000000000000000001663ca4f280361166a6060880160408901613987565b6040518263ffffffff1660e01b8152600401611686919061300b565b5f60405180830381865afa1580156116a0573d5f5f3e3d5ffd5b505050506040513d5f823e601f3d908101601f191682016040526116c791908101906140ca565b90505f5b815181101561192a575f8282815181106116e7576116e7614159565b602002602001015190505f86838151811061170457611704614159565b60200260200101519050805f0361171c575050611922565b61172c60e0890160c08a01613e32565b801561176957507f00000000000000000000000000000000000000000000000000000000000000006001600160a01b0316826001600160a01b0316145b156117be576117b97f00000000000000000000000000000000000000000000000000000000000000007f0000000000000000000000000000000000000000000000000000000000000000836128b9565b61191f565b6001600160a01b037f0000000000000000000000000000000000000000000000000000000000000000166336c785166117fa60208b018b613987565b7f0000000000000000000000000000000000000000000000000000000000000000611824856129ae565b6040516001600160e01b031960e086901b1681526001600160a01b03938416600482015291831660248301528216604482015290851660648201526084015f604051808303815f87803b158015611879575f5ffd5b505af115801561188b573d5f5f3e3d5ffd5b50506040516315afd40960e01b81526001600160a01b037f00000000000000000000000000000000000000000000000000000000000000001692506315afd40991506118dd90859085906004016142c3565b6020604051808303815f875af11580156118f9573d5f5f3e3d5ffd5b505050506040513d601f19601f8201168201806040525081019061191d9190613e4b565b505b50505b6001016116cb565b5061194061193b6020870187613987565b612553565b50610fbd612257565b5f818152600860205260408120548190620151809061196890426142dc565b61197291906142ef565b9050600a8110156119a05761198e81662386f26fc1000061430e565b610b5f9067016345785d8a00006142dc565b50919050565b6001600160a01b039182165f90815260066020908152604080832093909416825291909152205460ff1690565b5f5f6119de836129b8565b90506001600160a01b03811661083f57604051637e27328960e01b815260048101849052602401610a31565b5f908152600560205260409020546001600160a01b031690565b610b8083838360016129d2565b336001600160a01b037f00000000000000000000000000000000000000000000000000000000000000001614611a7c573360405163089676d560e01b8152600401610a31919061300b565b565b611a8661214c565b611a908685612acd565b5f5b86811015611c97575f868683818110611aad57611aad614159565b9050602002810190611abf9190613eef565b8080601f0160208091040260200160405190810160405280939291908181526020018383808284375f920182905250939450611b009250849150612aed9050565b90505f8a8a85818110611b1557611b15614159565b905060c00201803603810190611b2b9190614325565b8051602080830151606084015160a08501516040808901518951958a0151915163d505accf60e01b81526001600160a01b0395861660048201523060248201526044810194909452606484019290925260ff909116608483015260a482019390935260c481019290925292935091169063d505accf9060e4015f604051808303815f87803b158015611bbb575f5ffd5b505af1925050508015611bcc575060015b611c89573d808015611bf9576040519150601f19603f3d011682016040523d82523d5f602084013e611bfe565b606091505b50606082015182516020840151604051636eb1769f60e11b81526001600160a01b03918216600482015230602482015291169063dd62ed3e90604401602060405180830381865afa158015611c55573d5f5f3e3d5ffd5b505050506040513d601f19601f82011682018060405250810190611c799190613e4b565b14611c8757611c8781612b3c565b505b505050806001019050611a92565b505f611ca384806143b6565b90501115611d2b57604051632a2d80d160e01b81526001600160a01b037f00000000000000000000000000000000000000000000000000000000000000001690632a2d80d190611cfd903390879087908790600401614438565b5f604051808303815f87803b158015611d14575f5ffd5b505af1158015611d26573d5f5f3e3d5ffd5b505050505b611d33612257565b50505050505050565b5f5f611d47846129b8565b90506001600160a01b03831615611d6357611d63818486612b65565b6001600160a01b03811615611d9d57611d7e5f855f5f6129d2565b6001600160a01b0381165f90815260046020526040902080545f190190555b6001600160a01b03851615611dcb576001600160a01b0385165f908152600460205260409020805460010190555b5f8481526003602052604080822080546001600160a01b0319166001600160a01b0389811691821790925591518793918516917fddf252ad1be2c89b69c2b068fc378daa952ba7f163c4a11628f55a4df523b3ef91a4949350505050565b6001600160a01b0381163014611e5457806040516317a8d27960e11b8152600401610a31919061300b565b50565b60405163ca4f280360e01b815282905f906001600160a01b037f0000000000000000000000000000000000000000000000000000000000000000169063ca4f280390611ea790889060040161300b565b5f60405180830381865afa158015611ec1573d5f5f3e3d5ffd5b505050506040513d5f823e601f3d908101601f19168201604052611ee891908101906140ca565b90505f81516001600160401b03811115611f0457611f0461306d565b604051908082528060200260200182016040528015611f2d578160200160208202803683370190505b5090505f5b855181101561202e575f611f6886888481518110611f5257611f52614159565b6020026020010151612bbb90919063ffffffff16565b905080838381518110611f7d57611f7d614159565b60200260200101818152505080858381518110611f9c57611f9c614159565b60200260200101818151611fb091906142dc565b9052508351849083908110611fc757611fc7614159565b60200260200101516001600160a01b0316886001600160a01b03168a6001600160a01b03167ff3829ed8aa99c464a4e639e1c965813c683a71a40bb7585cce404a7d6fcac6058460405161201d91815260200190565b60405180910390a450600101611f32565b507f00000000000000000000000000000000000000000000000000000000000000006001600160a01b0316634af29ec46040518060c00160405280896001600160a01b03168152602001336001600160a01b031681526020018481526020015f8152602001600360048111156120a6576120a6613edb565b815260200160405180602001604052805f8152508152506040518263ffffffff1660e01b81526004016120d99190614211565b5f604051808303815f875af11580156120f4573d5f5f3e3d5ffd5b505050506040513d5f823e601f3d908101601f1916820160405261211b919081019061426c565b5050505050949350505050565b7f000000000000000000000000000000000000000000000000000000000000000090565b5f5160206146fa5f395f51905f525c1561217957604051633ee5aeb560e01b815260040160405180910390fd5b611a7c60015f5160206146fa5f395f51905f52611145565b60405163ae63932960e01b81526001600160a01b0384169063ae639329906121c19087903090869060040161416d565b5f604051808303815f87803b1580156121d8575f5ffd5b505af11580156121ea573d5f5f3e3d5ffd5b5050604051632e1a7d4d60e01b8152600481018490526001600160a01b0387169250632e1a7d4d91506024015f604051808303815f87803b15801561222d575f5ffd5b505af115801561223f573d5f5f3e3d5ffd5b50610a94925050506001600160a01b03831682612be3565b611a7c5f5f5160206146fa5f395f51905f52611145565b5f5f61227b610bc1612128565b90506001600160a01b0381166119a05761229783611145612128565b50600192915050565b60607f00000000000000000000000000000000000000000000000000000000000000006001600160a01b03166348c894916040518061010001604052808a6001600160a01b03168152602001896001600160a01b031681526020018b6001600160a01b031681526020018881526020018781526020015f600481111561232857612328613edb565b8152602001861515815260200185815250604051602401612349919061455f565b60408051601f198184030181529181526020820180516001600160e01b031663720a9ae160e11b179052516001600160e01b031960e084901b1681526123929190600401612fd5565b5f604051808303815f875af11580156123ad573d5f5f3e3d5ffd5b505050506040513d5f823e601f3d908101601f191682016040526123d491908101906145fd565b8060200190518101906123e7919061426c565b50909998505050505050505050565b6108f4828260405180602001604052805f815250612c7d565b8015611e5457611e545f611145612128565b6001600160a01b03821661244a5781604051630b61174360e31b8152600401610a31919061300b565b6001600160a01b038381165f81815260066020908152604080832094871680845294825291829020805460ff191686151590811790915591519182527f17307eab39ab6107e8899845ad3d59bd9653f200f220920489ca2b5937696c31910160405180910390a3505050565b7f000000000000000000000000000000000000000000000000000000000000000090565b80825d5050565b60605f5f846001600160a01b0316846040516124fd919061462e565b5f60405180830381855af49150503d805f8114612535576040519150601f19603f3d011682016040523d82523d5f602084013e61253a565b606091505b509150915061254a858383612c94565b95945050505050565b475f819003612560575050565b61256b610bc16124b6565b15612574575050565b6108f46001600160a01b03831682612be3565b6001600160a01b0383163b1561269657604051630a85bd0160e11b81526001600160a01b0384169063150b7a02906125c9908890889087908790600401614639565b6020604051808303815f875af1925050508015612603575060408051601f3d908101601f191682019092526126009181019061466b565b60015b612661573d808015612630576040519150601f19603f3d011682016040523d82523d5f602084013e612635565b606091505b5080515f036126595783604051633250574960e11b8152600401610a31919061300b565b805160208201fd5b6001600160e01b03198116630a85bd0160e11b146126945783604051633250574960e11b8152600401610a31919061300b565b505b5050505050565b60607f00000000000000000000000000000000000000000000000000000000000000006001600160a01b03166348c894916040518061010001604052808a6001600160a01b03168152602001896001600160a01b031681526020018b6001600160a01b031681526020018781526020018881526020015f600381111561272557612725613edb565b81526020018615158152602001858152506040516024016127469190614686565b60408051601f198184030181529181526020820180516001600160e01b03166306274a8360e41b179052516001600160e01b031960e084901b16815261278f9190600401612fd5565b5f604051808303815f875af11580156127aa573d5f5f3e3d5ffd5b505050506040513d5f823e601f3d908101601f191682016040526127d191908101906145fd565b8060200190518101906127e49190614066565b509998505050505050505050565b5f6127fe5f835f611d3c565b90506001600160a01b0381166108f457604051637e27328960e01b815260048101839052602401610a31565b60605f61283683612ce7565b60010190505f816001600160401b038111156128545761285461306d565b6040519080825280601f01601f19166020018201604052801561287e576020820181803683370190505b5090508181016020015b5f19016f181899199a1a9b1b9c1cb0b131b232b360811b600a86061a8153600a850494508461288857509392505050565b804710156128da5760405163500d4efb60e11b815260040160405180910390fd5b826001600160a01b031663d0e30db0826040518263ffffffff1660e01b81526004015f604051808303818588803b158015612913575f5ffd5b505af1158015612925573d5f5f3e3d5ffd5b50612940935050506001600160a01b03851690508383612dbc565b6040516315afd40960e01b81526001600160a01b038316906315afd4099061296e90869085906004016142c3565b6020604051808303815f875af115801561298a573d5f5f3e3d5ffd5b505050506040513d601f19601f82011682018060405250810190610a949190613e4b565b5f61083f82612dc7565b5f908152600360205260409020546001600160a01b031690565b80806129e657506001600160a01b03821615155b15612a9e575f6129f5846119d3565b90506001600160a01b03831615801590612a215750826001600160a01b0316816001600160a01b031614155b8015612a345750612a3281846119a6565b155b15612a54578260405163a9fbf51f60e01b8152600401610a31919061300b565b8115612a9c5783856001600160a01b0316826001600160a01b03167f8c5be1e5ebec7d5bd14f71427d1e84f3dd0314c0f7b2291e5b200ac8c7c3b92560405160405180910390a45b505b50505f90815260056020526040902080546001600160a01b0319166001600160a01b0392909216919091179055565b8082146108f45760405163aaad13f760e01b815260040160405180910390fd5b612b1160405180606001604052805f81526020015f81526020015f60ff1681525090565b602082810151604080850151606090950151918452918301939093525f9290921a9181019190915290565b805115612b4c5780518082602001fd5b60405163a728568960e01b815260040160405180910390fd5b612b70838383612ddf565b610b80576001600160a01b038316612b9e57604051637e27328960e01b815260048101829052602401610a31565b818160405163177e802f60e01b8152600401610a319291906142c3565b5f80612bc7838561430e565b9050612bdb670de0b6b3a7640000826142ef565b949350505050565b80471015612c0d5760405163cf47918160e01b815247600482015260248101829052604401610a31565b5f826001600160a01b0316826040515f6040518083038185875af1925050503d805f8114612c56576040519150601f19603f3d011682016040523d82523d5f602084013e612c5b565b606091505b5050905080610b805760405163d6bda27560e01b815260040160405180910390fd5b612c878383612e43565b610b80335f858585612587565b606082612ca957612ca482612ea4565b610b5f565b8151158015612cc057506001600160a01b0384163b155b15612ce05783604051639996b31560e01b8152600401610a31919061300b565b5080610b5f565b5f8072184f03e93ff9f4daa797ed6e38ed64bf6a1f0160401b8310612d255772184f03e93ff9f4daa797ed6e38ed64bf6a1f0160401b830492506040015b6904ee2d6d415b85acef8160201b8310612d4f576904ee2d6d415b85acef8160201b830492506020015b662386f26fc100008310612d6d57662386f26fc10000830492506010015b6305f5e1008310612d85576305f5e100830492506008015b6127108310612d9957612710830492506004015b60648310612dab576064830492506002015b600a831061083f5760010192915050565b610b80838383612ecd565b5f600160a01b8210612ddb57612ddb612f17565b5090565b5f6001600160a01b03831615801590612bdb5750826001600160a01b0316846001600160a01b03161480612e185750612e1884846119a6565b80612bdb5750826001600160a01b0316612e3183611a0a565b6001600160a01b031614949350505050565b6001600160a01b038216612e6c575f604051633250574960e11b8152600401610a31919061300b565b5f612e7883835f611d3c565b90506001600160a01b03811615610b80575f6040516339e3563760e11b8152600401610a31919061300b565b805115612eb45780518082602001fd5b60405163d6bda27560e01b815260040160405180910390fd5b816014528060345263a9059cbb60601b5f5260205f604460105f875af18060015f511416612f0d57803d853b151710612f0d576390b8ec185f526004601cfd5b505f603452505050565b6335278d125f526004601cfd5b60408051610140810182525f80825260208201819052918101829052606081018290526080810182905260a0810182905260c0810182905260e08101829052610100810182905261012081019190915290565b6001600160e01b031981168114611e54575f5ffd5b5f60208284031215612f9c575f5ffd5b8135610b5f81612f77565b5f81518084528060208401602086015e5f602082860101526020601f19601f83011685010191505092915050565b602081525f610b5f6020830184612fa7565b5f60208284031215612ff7575f5ffd5b5035919050565b6001600160a01b03169052565b6001600160a01b0391909116815260200190565b6001600160a01b0381168114611e54575f5ffd5b803561303e8161301f565b919050565b5f5f60408385031215613054575f5ffd5b823561305f8161301f565b946020939093013593505050565b634e487b7160e01b5f52604160045260245ffd5b604051608081016001600160401b03811182821017156130a3576130a361306d565b60405290565b604051601f8201601f191681016001600160401b03811182821017156130d1576130d161306d565b604052919050565b5f6001600160401b038211156130f1576130f161306d565b5060051b60200190565b8035801515811461303e575f5ffd5b5f608082840312156119a0575f5ffd5b5f5f5f5f60e0858703121561312d575f5ffd5b84356131388161301f565b935060208501356131488161301f565b925060408501356001600160401b03811115613162575f5ffd5b8501601f81018713613172575f5ffd5b8035613185613180826130d9565b6130a9565b8082825260208201915060208360071b8501019250898311156131a6575f5ffd5b6020840193505b82841015613227576080848b0312156131c4575f5ffd5b6131cc613081565b84356131d78161301f565b81526020850135600281106131ea575f5ffd5b602082015260408501356131fd8161301f565b604082015261320e606086016130fb565b60608201528252608093909301926020909101906131ad565b8095505050505061323b866060870161310a565b905092959194509250565b5f60208284031215613256575f5ffd5b81356001600160401b0381111561326b575f5ffd5b82016101808185031215610b5f575f5ffd5b5f5f83601f84011261328d575f5ffd5b5081356001600160401b038111156132a3575f5ffd5b60208301915083602060c0830285010111156132bd575f5ffd5b9250929050565b5f5f83601f8401126132d4575f5ffd5b5081356001600160401b038111156132ea575f5ffd5b6020830191508360208260051b85010111156132bd575f5ffd5b5f606082840312156119a0575f5ffd5b5f5f83601f840112613324575f5ffd5b5081356001600160401b0381111561333a575f5ffd5b6020830191508360208285010111156132bd575f5ffd5b5f5f5f5f5f5f5f5f5f60a08a8c031215613369575f5ffd5b89356001600160401b0381111561337e575f5ffd5b61338a8c828d0161327d565b909a5098505060208a01356001600160401b038111156133a8575f5ffd5b6133b48c828d016132c4565b90985096505060408a01356001600160401b038111156133d2575f5ffd5b6133de8c828d01613304565b95505060608a01356001600160401b038111156133f9575f5ffd5b6134058c828d01613314565b90955093505060808a01356001600160401b03811115613423575f5ffd5b61342f8c828d016132c4565b915080935050809150509295985092959850929598565b5f602082016020835280845180835260408501915060408160051b8601019250602086015f5b8281101561349d57603f19878603018452613488858351612fa7565b9450602093840193919091019060010161346c565b50929695505050505050565b5f82601f8301126134b8575f5ffd5b81356134c6613180826130d9565b8082825260208201915060208360051b8601019250858311156134e7575f5ffd5b602085015b838110156135045780358352602092830192016134ec565b5095945050505050565b5f6001600160401b038211156135265761352661306d565b50601f01601f191660200190565b5f82601f830112613543575f5ffd5b81356135516131808261350e565b818152846020838601011115613565575f5ffd5b816020850160208301375f918101602001919091529392505050565b5f5f60408385031215613592575f5ffd5b82356001600160401b038111156135a7575f5ffd5b6135b3858286016134a9565b92505060208301356001600160401b038111156135ce575f5ffd5b6135da85828601613534565b9150509250929050565b5f5f5f606084860312156135f6575f5ffd5b83356136018161301f565b925060208401356136118161301f565b929592945050506040919091013590565b80356004811061303e575f5ffd5b5f5f5f5f5f5f5f5f610100898b031215613648575f5ffd5b61365189613033565b975061365f60208a01613033565b965061366d60408a01613622565b95506060890135945060808901356001600160401b0381111561368e575f5ffd5b61369a8b828c016134a9565b94505060a08901356001600160401b038111156136b5575f5ffd5b6136c18b828c016134a9565b93505060c08901356001600160401b038111156136dc575f5ffd5b6136e88b828c016134a9565b92505060e08901356001600160401b03811115613703575f5ffd5b61370f8b828c01613534565b9150509295985092959890939650565b5f8151808452602084019350602083015f5b8281101561374f578151865260209586019590910190600101613731565b5093949350505050565b8215158152604060208201525f612bdb604083018461371f565b5f5f5f60608486031215613785575f5ffd5b83356001600160401b0381111561379a575f5ffd5b6137a6868287016134a9565b9350506020840135915060408401356001600160401b038111156137c8575f5ffd5b6137d486828701613534565b9150509250925092565b80356005811061303e575f5ffd5b5f5f5f5f5f5f5f60e0888a031215613802575f5ffd5b873561380d8161301f565b965061381b60208901613033565b9550613829604089016137de565b945060608801356001600160401b03811115613843575f5ffd5b61384f8a828b016134a9565b9450506080880135925060a08801356001600160401b03811115613871575f5ffd5b61387d8a828b016134a9565b92505060c08801356001600160401b03811115613898575f5ffd5b6138a48a828b01613534565b91505092959891949750929550565b5f60e082840312156119a0575f5ffd5b5f5f604083850312156138d4575f5ffd5b82356001600160401b038111156138e9575f5ffd5b6138f5858286016138b3565b92505060208301356139068161301f565b809150509250929050565b5f61010082840312156119a0575f5ffd5b5f60208284031215613932575f5ffd5b81356001600160401b03811115613947575f5ffd5b612bdb84828501613911565b838152606060208201525f61396b606083018561371f565b828103604084015261397d8185612fa7565b9695505050505050565b5f60208284031215613997575f5ffd5b8135610b5f8161301f565b5f5f5f5f5f60a086880312156139b6575f5ffd5b85356139c18161301f565b945060208601356001600160401b038111156139db575f5ffd5b6139e7888289016134a9565b945050604086013592506139fd606087016130fb565b915060808601356001600160401b03811115613a17575f5ffd5b613a2388828901613534565b9150509295509295909350565b602081525f610b5f602083018461371f565b5f5f5f5f5f5f5f5f610100898b031215613a5a575f5ffd5b613a6389613033565b9750613a7160208a01613033565b9650613a7f60408a016137de565b955060608901356001600160401b03811115613a99575f5ffd5b613aa58b828c016134a9565b95505060808901356001600160401b03811115613ac0575f5ffd5b613acc8b828c016134a9565b94505060a0890135925060c08901356001600160401b038111156136dc575f5ffd5b5f5f5f60608486031215613b00575f5ffd5b83356001600160401b03811115613b15575f5ffd5b613b21868287016138b3565b93505060208401356136118161301f565b5f5f60408385031215613b43575f5ffd5b8235613b4e8161301f565b9150613b5c602084016130fb565b90509250929050565b5f5f60208385031215613b76575f5ffd5b82356001600160401b03811115613b8b575f5ffd5b613b97858286016132c4565b90969095509350505050565b5f5f5f5f60808587031215613bb6575f5ffd5b8435613bc18161301f565b93506020850135613bd18161301f565b92506040850135915060608501356001600160401b03811115613bf2575f5ffd5b613bfe87828801613534565b91505092959194509250565b5f5f5f5f5f5f5f60e0888a031215613c20575f5ffd5b8735613c2b8161301f565b9650613c3960208901613033565b9550613c4760408901613622565b94506060880135935060808801356001600160401b03811115613c68575f5ffd5b613c748a828b016134a9565b93505060a08801356001600160401b03811115613871575f5ffd5b5f5f5f60608486031215613ca1575f5ffd5b8335925060208401356001600160401b03811115613cbd575f5ffd5b613cc9868287016134a9565b925050613cd8604085016130fb565b90509250925092565b81511515815261014081016020830151613cff602084018215159052565b506040830151613d13604084018215159052565b506060830151613d27606084018215159052565b506080830151613d3b608084018215159052565b5060a0830151613d4f60a084018215159052565b5060c0830151613d6360c084018215159052565b5060e0830151613d7760e084018215159052565b50610100830151613d8d61010084018215159052565b50610120830151613da361012084018215159052565b5092915050565b606081525f613dbc606083018661371f565b846020840152828103604084015261397d8185612fa7565b5f5f60408385031215613de5575f5ffd5b8235613df08161301f565b915060208301356139068161301f565b600181811c90821680613e1457607f821691505b6020821081036119a057634e487b7160e01b5f52602260045260245ffd5b5f60208284031215613e42575f5ffd5b610b5f826130fb565b5f60208284031215613e5b575f5ffd5b5051919050565b5f60208284031215613e72575f5ffd5b8151610b5f8161301f565b5f5f8335601e19843603018112613e92575f5ffd5b8301803591506001600160401b03821115613eab575f5ffd5b6020019150600581901b36038213156132bd575f5ffd5b5f60208284031215613ed2575f5ffd5b610b5f82613622565b634e487b7160e01b5f52602160045260245ffd5b5f5f8335601e19843603018112613f04575f5ffd5b8301803591506001600160401b03821115613f1d575f5ffd5b6020019150368190038213156132bd575f5ffd5b60048110613f4157613f41613edb565b9052565b6020815260018060a01b03825116602082015260018060a01b036020830151166040820152604082015160608201525f606083015160c06080840152613f8e60e084018261371f565b90506080840151613fa260a0850182613f31565b5060a0840151838203601f190160c085015261254a8282612fa7565b5f82601f830112613fcd575f5ffd5b8151613fdb613180826130d9565b8082825260208201915060208360051b860101925085831115613ffc575f5ffd5b602085015b83811015613504578051835260209283019201614001565b5f82601f830112614028575f5ffd5b81516140366131808261350e565b81815284602083860101111561404a575f5ffd5b8160208501602083015e5f918101602001919091529392505050565b5f5f5f60608486031215614078575f5ffd5b835160208501519093506001600160401b03811115614095575f5ffd5b6140a186828701613fbe565b604086015190935090506001600160401b038111156140be575f5ffd5b6137d486828701614019565b5f602082840312156140da575f5ffd5b81516001600160401b038111156140ef575f5ffd5b8201601f810184136140ff575f5ffd5b805161410d613180826130d9565b8082825260208201915060208360051b85010192508683111561412e575f5ffd5b6020840193505b8284101561397d5783516141488161301f565b825260209384019390910190614135565b634e487b7160e01b5f52603260045260245ffd5b6001600160a01b039384168152919092166020820152604081019190915260600190565b634e487b7160e01b5f52601160045260245ffd5b5f600182016141b6576141b6614191565b5060010190565b5f81518060208401855e5f93019283525090919050565b5f612bdb6141e283866141bd565b846141bd565b5f602082840312156141f8575f5ffd5b610b5f826137de565b60058110613f4157613f41613edb565b602080825282516001600160a01b0390811683830152908301511660408083019190915282015160c060608301525f9061424e60e084018261371f565b9050606084015160808401526080840151613fa260a0850182614201565b5f5f5f6060848603121561427e575f5ffd5b83516001600160401b03811115614293575f5ffd5b61429f86828701613fbe565b60208601516040870151919550935090506001600160401b038111156140be575f5ffd5b6001600160a01b03929092168252602082015260400190565b8181038181111561083f5761083f614191565b5f8261430957634e487b7160e01b5f52601260045260245ffd5b500490565b808202811582820484141761083f5761083f614191565b5f60c0828403128015614336575f5ffd5b5060405160c081016001600160401b03811182821017156143595761435961306d565b60405282356143678161301f565b815260208301356143778161301f565b6020820152604083013561438a8161301f565b6040820152606083810135908201526080808401359082015260a0928301359281019290925250919050565b5f5f8335601e198436030181126143cb575f5ffd5b8301803591506001600160401b038211156143e4575f5ffd5b6020019150600781901b36038213156132bd575f5ffd5b803565ffffffffffff8116811461303e575f5ffd5b81835281816020850137505f828201602090810191909152601f909101601f19169091010190565b6001600160a01b0385168152606060208201525f60c08201853536879003601e19018112614464575f5ffd5b86016020810190356001600160401b0381111561447f575f5ffd5b8060071b3603821315614490575f5ffd5b60608581015291829052905f9060e085015b818310156145215783356144b58161301f565b6001600160a01b0316815260208401356144ce8161301f565b6001600160a01b0316602082015265ffffffffffff6144ef604086016143fb565b16604082015265ffffffffffff614508606086016143fb565b16606082015260809384019360019390930192016144a2565b61452d60208a01613033565b935061453c6080870185612ffe565b5f9350604089013593508360a087015285810360408701526109fa81888a614410565b602080825282516001600160a01b0316828201528201515f906145856040840182612ffe565b5060408301516145986060840182612ffe565b50606083015161010060808401526145b461012084018261371f565b9050608084015160a084015260a08401516145d260c0850182614201565b5060c084015180151560e08501525060e0840151838203601f190161010085015261254a8282612fa7565b5f6020828403121561460d575f5ffd5b81516001600160401b03811115614622575f5ffd5b612bdb84828501614019565b5f610b5f82846141bd565b6001600160a01b03858116825284166020820152604081018390526080606082018190525f9061397d90830184612fa7565b5f6020828403121561467b575f5ffd5b8151610b5f81612f77565b602080825282516001600160a01b0316828201528201515f906146ac6040840182612ffe565b5060408301516146bf6060840182612ffe565b50606083015161010060808401526146db61012084018261371f565b9050608084015160a084015260a08401516145d260c0850182613f3156fe9b779b17422d0df92223018b32b4d1fa46e071723d6817e2486d003becc55f00a2646970667358221220adb4d7d463cd5fdcb40a77ec600ee310ca1f34b5fecec925125685234ae04dfb64736f6c634300081e0033","linkReferences":{}},"methodIdentifiers":{"DECAY_PERIOD_DAYS()":"6d0ab8b3","INITIAL_FEE_PERCENTAGE()":"d64f192d","ONE_PERCENT()":"bb2eb4d2","addLiquidityHook((address,address,address,uint256[],uint256,uint8,bool,bytes))":"e41535c2","addLiquidityProportional(address,uint256[],uint256,bool,bytes)":"724dba33","approve(address,uint256)":"095ea7b3","balanceOf(address)":"70a08231","bptAmount(uint256)":"3badc1c7","getApproved(uint256)":"081812fc","getCurrentFeePercentage(uint256)":"e6f5e586","getHookFlags()":"d77153a7","getPermit2()":"1bbf2e23","getSender()":"5e01eb5a","getVault()":"8d928af8","getWeth()":"107c279f","isApprovedForAll(address,address)":"e985e9c5","multicall(bytes[])":"ac9650d8","name()":"06fdde03","nftPool(uint256)":"5a6eba63","onAfterAddLiquidity(address,address,uint8,uint256[],uint256[],uint256,uint256[],bytes)":"976907cc","onAfterInitialize(uint256[],uint256,bytes)":"38be241d","onAfterRemoveLiquidity(address,address,uint8,uint256,uint256[],uint256[],uint256[],bytes)":"2754888d","onAfterSwap((uint8,address,address,uint256,uint256,uint256,uint256,uint256,uint256,address,address,bytes))":"18b6eb55","onBeforeAddLiquidity(address,address,uint8,uint256[],uint256,uint256[],bytes)":"45421ec7","onBeforeInitialize(uint256[],bytes)":"1c149e28","onBeforeRemoveLiquidity(address,address,uint8,uint256,uint256[],uint256[],bytes)":"ba5f9f40","onBeforeSwap((uint8,uint256,uint256[],uint256,uint256,address,bytes),address)":"5211fa77","onComputeDynamicSwapFeePercentage((uint8,uint256,uint256[],uint256,uint256,address,bytes),address,uint256)":"a0e8f5ac","onRegister(address,address,(address,uint8,address,bool)[],(bool,bool,bool,bool))":"0b89f182","ownerOf(uint256)":"6352211e","permitBatchAndCall((address,address,address,uint256,uint256,uint256)[],bytes[],((address,uint160,uint48,uint48)[],address,uint256),bytes,bytes[])":"19c6989f","removeLiquidityHook((address,address,address,uint256[],uint256,uint8,bool,bytes))":"6274a830","removeLiquidityProportional(uint256,uint256[],bool)":"c7fa5bf6","safeTransferFrom(address,address,uint256)":"42842e0e","safeTransferFrom(address,address,uint256,bytes)":"b88d4fde","setApprovalForAll(address,bool)":"a22cb465","startTime(uint256)":"3ec4c968","supportsInterface(bytes4)":"01ffc9a7","symbol()":"95d89b41","tokenURI(uint256)":"c87b56dd","transferFrom(address,address,uint256)":"23b872dd","version()":"54fd4d50"},"id":138}