{"abi":[{"type":"function","name":"facetFuncs","inputs":[],"outputs":[{"name":"funcs","type":"bytes4[]","internalType":"bytes4[]"}],"stateMutability":"pure"},{"type":"function","name":"facetInterfaces","inputs":[],"outputs":[{"name":"interfaces","type":"bytes4[]","internalType":"bytes4[]"}],"stateMutability":"pure"},{"type":"function","name":"facetMetadata","inputs":[],"outputs":[{"name":"name_","type":"string","internalType":"string"},{"name":"interfaces","type":"bytes4[]","internalType":"bytes4[]"},{"name":"functions","type":"bytes4[]","internalType":"bytes4[]"}],"stateMutability":"pure"},{"type":"function","name":"facetName","inputs":[],"outputs":[{"name":"name","type":"string","internalType":"string"}],"stateMutability":"pure"},{"type":"function","name":"getAddLiquidityCalledFlag","inputs":[{"name":"pool","type":"address","internalType":"address"}],"outputs":[{"name":"","type":"bool","internalType":"bool"}],"stateMutability":"view"},{"type":"function","name":"getNonzeroDeltaCount","inputs":[],"outputs":[{"name":"","type":"uint256","internalType":"uint256"}],"stateMutability":"view"},{"type":"function","name":"getTokenDelta","inputs":[{"name":"token","type":"address","internalType":"contract IERC20"}],"outputs":[{"name":"","type":"int256","internalType":"int256"}],"stateMutability":"view"},{"type":"function","name":"isUnlocked","inputs":[],"outputs":[{"name":"","type":"bool","internalType":"bool"}],"stateMutability":"view"},{"type":"function","name":"reentrancyGuardEntered","inputs":[],"outputs":[{"name":"","type":"bool","internalType":"bool"}],"stateMutability":"view"},{"type":"function","name":"sendTo","inputs":[{"name":"token","type":"address","internalType":"contract IERC20"},{"name":"to","type":"address","internalType":"address"},{"name":"amount","type":"uint256","internalType":"uint256"}],"outputs":[],"stateMutability":"nonpayable"},{"type":"function","name":"settle","inputs":[{"name":"token","type":"address","internalType":"contract IERC20"},{"name":"amountHint","type":"uint256","internalType":"uint256"}],"outputs":[{"name":"credit","type":"uint256","internalType":"uint256"}],"stateMutability":"nonpayable"},{"type":"function","name":"unlock","inputs":[{"name":"data","type":"bytes","internalType":"bytes"}],"outputs":[{"name":"result","type":"bytes","internalType":"bytes"}],"stateMutability":"nonpayable"},{"type":"event","name":"AggregateSwapFeePercentageChanged","inputs":[{"name":"pool","type":"address","indexed":true,"internalType":"address"},{"name":"aggregateSwapFeePercentage","type":"uint256","indexed":false,"internalType":"uint256"}],"anonymous":false},{"type":"event","name":"AggregateYieldFeePercentageChanged","inputs":[{"name":"pool","type":"address","indexed":true,"internalType":"address"},{"name":"aggregateYieldFeePercentage","type":"uint256","indexed":false,"internalType":"uint256"}],"anonymous":false},{"type":"event","name":"AuthorizerChanged","inputs":[{"name":"newAuthorizer","type":"address","indexed":true,"internalType":"contract IAuthorizer"}],"anonymous":false},{"type":"event","name":"BufferSharesBurned","inputs":[{"name":"wrappedToken","type":"address","indexed":true,"internalType":"contract IERC4626"},{"name":"from","type":"address","indexed":true,"internalType":"address"},{"name":"burnedShares","type":"uint256","indexed":false,"internalType":"uint256"}],"anonymous":false},{"type":"event","name":"BufferSharesMinted","inputs":[{"name":"wrappedToken","type":"address","indexed":true,"internalType":"contract IERC4626"},{"name":"to","type":"address","indexed":true,"internalType":"address"},{"name":"issuedShares","type":"uint256","indexed":false,"internalType":"uint256"}],"anonymous":false},{"type":"event","name":"LiquidityAdded","inputs":[{"name":"pool","type":"address","indexed":true,"internalType":"address"},{"name":"liquidityProvider","type":"address","indexed":true,"internalType":"address"},{"name":"kind","type":"uint8","indexed":true,"internalType":"enum AddLiquidityKind"},{"name":"totalSupply","type":"uint256","indexed":false,"internalType":"uint256"},{"name":"amountsAddedRaw","type":"uint256[]","indexed":false,"internalType":"uint256[]"},{"name":"swapFeeAmountsRaw","type":"uint256[]","indexed":false,"internalType":"uint256[]"}],"anonymous":false},{"type":"event","name":"LiquidityAddedToBuffer","inputs":[{"name":"wrappedToken","type":"address","indexed":true,"internalType":"contract IERC4626"},{"name":"amountUnderlying","type":"uint256","indexed":false,"internalType":"uint256"},{"name":"amountWrapped","type":"uint256","indexed":false,"internalType":"uint256"},{"name":"bufferBalances","type":"bytes32","indexed":false,"internalType":"bytes32"}],"anonymous":false},{"type":"event","name":"LiquidityRemoved","inputs":[{"name":"pool","type":"address","indexed":true,"internalType":"address"},{"name":"liquidityProvider","type":"address","indexed":true,"internalType":"address"},{"name":"kind","type":"uint8","indexed":true,"internalType":"enum RemoveLiquidityKind"},{"name":"totalSupply","type":"uint256","indexed":false,"internalType":"uint256"},{"name":"amountsRemovedRaw","type":"uint256[]","indexed":false,"internalType":"uint256[]"},{"name":"swapFeeAmountsRaw","type":"uint256[]","indexed":false,"internalType":"uint256[]"}],"anonymous":false},{"type":"event","name":"LiquidityRemovedFromBuffer","inputs":[{"name":"wrappedToken","type":"address","indexed":true,"internalType":"contract IERC4626"},{"name":"amountUnderlying","type":"uint256","indexed":false,"internalType":"uint256"},{"name":"amountWrapped","type":"uint256","indexed":false,"internalType":"uint256"},{"name":"bufferBalances","type":"bytes32","indexed":false,"internalType":"bytes32"}],"anonymous":false},{"type":"event","name":"PoolInitialized","inputs":[{"name":"pool","type":"address","indexed":true,"internalType":"address"}],"anonymous":false},{"type":"event","name":"PoolPausedStateChanged","inputs":[{"name":"pool","type":"address","indexed":true,"internalType":"address"},{"name":"paused","type":"bool","indexed":false,"internalType":"bool"}],"anonymous":false},{"type":"event","name":"PoolRecoveryModeStateChanged","inputs":[{"name":"pool","type":"address","indexed":true,"internalType":"address"},{"name":"recoveryMode","type":"bool","indexed":false,"internalType":"bool"}],"anonymous":false},{"type":"event","name":"PoolRegistered","inputs":[{"name":"pool","type":"address","indexed":true,"internalType":"address"},{"name":"factory","type":"address","indexed":true,"internalType":"address"},{"name":"tokenConfig","type":"tuple[]","indexed":false,"internalType":"struct TokenConfig[]","components":[{"name":"token","type":"address","internalType":"contract IERC20"},{"name":"tokenType","type":"uint8","internalType":"enum TokenType"},{"name":"rateProvider","type":"address","internalType":"contract IRateProvider"},{"name":"paysYieldFees","type":"bool","internalType":"bool"}]},{"name":"swapFeePercentage","type":"uint256","indexed":false,"internalType":"uint256"},{"name":"pauseWindowEndTime","type":"uint32","indexed":false,"internalType":"uint32"},{"name":"roleAccounts","type":"tuple","indexed":false,"internalType":"struct PoolRoleAccounts","components":[{"name":"pauseManager","type":"address","internalType":"address"},{"name":"swapFeeManager","type":"address","internalType":"address"},{"name":"poolCreator","type":"address","internalType":"address"}]},{"name":"hooksConfig","type":"tuple","indexed":false,"internalType":"struct HooksConfig","components":[{"name":"enableHookAdjustedAmounts","type":"bool","internalType":"bool"},{"name":"shouldCallBeforeInitialize","type":"bool","internalType":"bool"},{"name":"shouldCallAfterInitialize","type":"bool","internalType":"bool"},{"name":"shouldCallComputeDynamicSwapFee","type":"bool","internalType":"bool"},{"name":"shouldCallBeforeSwap","type":"bool","internalType":"bool"},{"name":"shouldCallAfterSwap","type":"bool","internalType":"bool"},{"name":"shouldCallBeforeAddLiquidity","type":"bool","internalType":"bool"},{"name":"shouldCallAfterAddLiquidity","type":"bool","internalType":"bool"},{"name":"shouldCallBeforeRemoveLiquidity","type":"bool","internalType":"bool"},{"name":"shouldCallAfterRemoveLiquidity","type":"bool","internalType":"bool"},{"name":"hooksContract","type":"address","internalType":"address"}]},{"name":"liquidityManagement","type":"tuple","indexed":false,"internalType":"struct LiquidityManagement","components":[{"name":"disableUnbalancedLiquidity","type":"bool","internalType":"bool"},{"name":"enableAddLiquidityCustom","type":"bool","internalType":"bool"},{"name":"enableRemoveLiquidityCustom","type":"bool","internalType":"bool"},{"name":"enableDonation","type":"bool","internalType":"bool"}]}],"anonymous":false},{"type":"event","name":"ProtocolFeeControllerChanged","inputs":[{"name":"newProtocolFeeController","type":"address","indexed":true,"internalType":"contract IProtocolFeeController"}],"anonymous":false},{"type":"event","name":"Swap","inputs":[{"name":"pool","type":"address","indexed":true,"internalType":"address"},{"name":"tokenIn","type":"address","indexed":true,"internalType":"contract IERC20"},{"name":"tokenOut","type":"address","indexed":true,"internalType":"contract IERC20"},{"name":"amountIn","type":"uint256","indexed":false,"internalType":"uint256"},{"name":"amountOut","type":"uint256","indexed":false,"internalType":"uint256"},{"name":"swapFeePercentage","type":"uint256","indexed":false,"internalType":"uint256"},{"name":"swapFeeAmount","type":"uint256","indexed":false,"internalType":"uint256"}],"anonymous":false},{"type":"event","name":"SwapFeePercentageChanged","inputs":[{"name":"pool","type":"address","indexed":true,"internalType":"address"},{"name":"swapFeePercentage","type":"uint256","indexed":false,"internalType":"uint256"}],"anonymous":false},{"type":"event","name":"Unwrap","inputs":[{"name":"wrappedToken","type":"address","indexed":true,"internalType":"contract IERC4626"},{"name":"burnedShares","type":"uint256","indexed":false,"internalType":"uint256"},{"name":"withdrawnUnderlying","type":"uint256","indexed":false,"internalType":"uint256"},{"name":"bufferBalances","type":"bytes32","indexed":false,"internalType":"bytes32"}],"anonymous":false},{"type":"event","name":"VaultAuxiliary","inputs":[{"name":"pool","type":"address","indexed":true,"internalType":"address"},{"name":"eventKey","type":"bytes32","indexed":true,"internalType":"bytes32"},{"name":"eventData","type":"bytes","indexed":false,"internalType":"bytes"}],"anonymous":false},{"type":"event","name":"VaultBuffersPausedStateChanged","inputs":[{"name":"paused","type":"bool","indexed":false,"internalType":"bool"}],"anonymous":false},{"type":"event","name":"VaultPausedStateChanged","inputs":[{"name":"paused","type":"bool","indexed":false,"internalType":"bool"}],"anonymous":false},{"type":"event","name":"VaultQueriesDisabled","inputs":[],"anonymous":false},{"type":"event","name":"VaultQueriesEnabled","inputs":[],"anonymous":false},{"type":"event","name":"Wrap","inputs":[{"name":"wrappedToken","type":"address","indexed":true,"internalType":"contract IERC4626"},{"name":"depositedUnderlying","type":"uint256","indexed":false,"internalType":"uint256"},{"name":"mintedShares","type":"uint256","indexed":false,"internalType":"uint256"},{"name":"bufferBalances","type":"bytes32","indexed":false,"internalType":"bytes32"}],"anonymous":false},{"type":"error","name":"AddressEmptyCode","inputs":[{"name":"target","type":"address","internalType":"address"}]},{"type":"error","name":"AfterAddLiquidityHookFailed","inputs":[]},{"type":"error","name":"AfterInitializeHookFailed","inputs":[]},{"type":"error","name":"AfterRemoveLiquidityHookFailed","inputs":[]},{"type":"error","name":"AfterSwapHookFailed","inputs":[]},{"type":"error","name":"AmountGivenZero","inputs":[]},{"type":"error","name":"AmountInAboveMax","inputs":[{"name":"tokenIn","type":"address","internalType":"contract IERC20"},{"name":"amountIn","type":"uint256","internalType":"uint256"},{"name":"maxAmountIn","type":"uint256","internalType":"uint256"}]},{"type":"error","name":"AmountOutBelowMin","inputs":[{"name":"tokenOut","type":"address","internalType":"contract IERC20"},{"name":"amountOut","type":"uint256","internalType":"uint256"},{"name":"minAmountOut","type":"uint256","internalType":"uint256"}]},{"type":"error","name":"BalanceNotSettled","inputs":[]},{"type":"error","name":"BeforeAddLiquidityHookFailed","inputs":[]},{"type":"error","name":"BeforeInitializeHookFailed","inputs":[]},{"type":"error","name":"BeforeRemoveLiquidityHookFailed","inputs":[]},{"type":"error","name":"BeforeSwapHookFailed","inputs":[]},{"type":"error","name":"BptAmountInAboveMax","inputs":[{"name":"amountIn","type":"uint256","internalType":"uint256"},{"name":"maxAmountIn","type":"uint256","internalType":"uint256"}]},{"type":"error","name":"BptAmountOutBelowMin","inputs":[{"name":"amountOut","type":"uint256","internalType":"uint256"},{"name":"minAmountOut","type":"uint256","internalType":"uint256"}]},{"type":"error","name":"BufferAlreadyInitialized","inputs":[{"name":"wrappedToken","type":"address","internalType":"contract IERC4626"}]},{"type":"error","name":"BufferNotInitialized","inputs":[{"name":"wrappedToken","type":"address","internalType":"contract IERC4626"}]},{"type":"error","name":"BufferSharesInvalidOwner","inputs":[]},{"type":"error","name":"BufferSharesInvalidReceiver","inputs":[]},{"type":"error","name":"BufferTotalSupplyTooLow","inputs":[{"name":"totalSupply","type":"uint256","internalType":"uint256"}]},{"type":"error","name":"CannotReceiveEth","inputs":[]},{"type":"error","name":"CannotSwapSameToken","inputs":[]},{"type":"error","name":"DoesNotSupportAddLiquidityCustom","inputs":[]},{"type":"error","name":"DoesNotSupportDonation","inputs":[]},{"type":"error","name":"DoesNotSupportRemoveLiquidityCustom","inputs":[]},{"type":"error","name":"DoesNotSupportUnbalancedLiquidity","inputs":[]},{"type":"error","name":"DynamicSwapFeeHookFailed","inputs":[]},{"type":"error","name":"FailedCall","inputs":[]},{"type":"error","name":"FeePrecisionTooHigh","inputs":[]},{"type":"error","name":"HookAdjustedAmountInAboveMax","inputs":[{"name":"tokenIn","type":"address","internalType":"contract IERC20"},{"name":"amountIn","type":"uint256","internalType":"uint256"},{"name":"maxAmountIn","type":"uint256","internalType":"uint256"}]},{"type":"error","name":"HookAdjustedAmountOutBelowMin","inputs":[{"name":"tokenOut","type":"address","internalType":"contract IERC20"},{"name":"amountOut","type":"uint256","internalType":"uint256"},{"name":"minAmountOut","type":"uint256","internalType":"uint256"}]},{"type":"error","name":"HookAdjustedSwapLimit","inputs":[{"name":"amount","type":"uint256","internalType":"uint256"},{"name":"limit","type":"uint256","internalType":"uint256"}]},{"type":"error","name":"HookRegistrationFailed","inputs":[{"name":"poolHooksContract","type":"address","internalType":"address"},{"name":"pool","type":"address","internalType":"address"},{"name":"poolFactory","type":"address","internalType":"address"}]},{"type":"error","name":"InsufficientBalance","inputs":[{"name":"balance","type":"uint256","internalType":"uint256"},{"name":"needed","type":"uint256","internalType":"uint256"}]},{"type":"error","name":"InvalidAddLiquidityKind","inputs":[]},{"type":"error","name":"InvalidRemoveLiquidityKind","inputs":[]},{"type":"error","name":"InvalidToken","inputs":[]},{"type":"error","name":"InvalidTokenConfiguration","inputs":[]},{"type":"error","name":"InvalidTokenDecimals","inputs":[]},{"type":"error","name":"InvalidTokenType","inputs":[]},{"type":"error","name":"InvalidUnderlyingToken","inputs":[{"name":"wrappedToken","type":"address","internalType":"contract IERC4626"}]},{"type":"error","name":"IssuedSharesBelowMin","inputs":[{"name":"issuedShares","type":"uint256","internalType":"uint256"},{"name":"minIssuedShares","type":"uint256","internalType":"uint256"}]},{"type":"error","name":"MaxTokens","inputs":[]},{"type":"error","name":"MinTokens","inputs":[]},{"type":"error","name":"NotEnoughBufferShares","inputs":[]},{"type":"error","name":"NotEnoughUnderlying","inputs":[{"name":"wrappedToken","type":"address","internalType":"contract IERC4626"},{"name":"expectedUnderlyingAmount","type":"uint256","internalType":"uint256"},{"name":"actualUnderlyingAmount","type":"uint256","internalType":"uint256"}]},{"type":"error","name":"NotEnoughWrapped","inputs":[{"name":"wrappedToken","type":"address","internalType":"contract IERC4626"},{"name":"expectedWrappedAmount","type":"uint256","internalType":"uint256"},{"name":"actualWrappedAmount","type":"uint256","internalType":"uint256"}]},{"type":"error","name":"NotVaultDelegateCall","inputs":[]},{"type":"error","name":"PauseBufferPeriodDurationTooLarge","inputs":[]},{"type":"error","name":"PercentageAboveMax","inputs":[]},{"type":"error","name":"PoolAlreadyInitialized","inputs":[{"name":"pool","type":"address","internalType":"address"}]},{"type":"error","name":"PoolAlreadyRegistered","inputs":[{"name":"pool","type":"address","internalType":"address"}]},{"type":"error","name":"PoolInRecoveryMode","inputs":[{"name":"pool","type":"address","internalType":"address"}]},{"type":"error","name":"PoolNotInRecoveryMode","inputs":[{"name":"pool","type":"address","internalType":"address"}]},{"type":"error","name":"PoolNotInitialized","inputs":[{"name":"pool","type":"address","internalType":"address"}]},{"type":"error","name":"PoolNotPaused","inputs":[{"name":"pool","type":"address","internalType":"address"}]},{"type":"error","name":"PoolNotRegistered","inputs":[{"name":"pool","type":"address","internalType":"address"}]},{"type":"error","name":"PoolPauseWindowExpired","inputs":[{"name":"pool","type":"address","internalType":"address"}]},{"type":"error","name":"PoolPaused","inputs":[{"name":"pool","type":"address","internalType":"address"}]},{"type":"error","name":"ProtocolFeesExceedTotalCollected","inputs":[]},{"type":"error","name":"QueriesDisabled","inputs":[]},{"type":"error","name":"QueriesDisabledPermanently","inputs":[]},{"type":"error","name":"QuoteResultSpoofed","inputs":[]},{"type":"error","name":"ReentrancyGuardReentrantCall","inputs":[]},{"type":"error","name":"RouterNotTrusted","inputs":[]},{"type":"error","name":"SenderIsNotVault","inputs":[{"name":"sender","type":"address","internalType":"address"}]},{"type":"error","name":"SwapFeePercentageTooHigh","inputs":[]},{"type":"error","name":"SwapFeePercentageTooLow","inputs":[]},{"type":"error","name":"SwapLimit","inputs":[{"name":"amount","type":"uint256","internalType":"uint256"},{"name":"limit","type":"uint256","internalType":"uint256"}]},{"type":"error","name":"TokenAlreadyRegistered","inputs":[{"name":"token","type":"address","internalType":"contract IERC20"}]},{"type":"error","name":"TokenNotRegistered","inputs":[{"name":"token","type":"address","internalType":"contract IERC20"}]},{"type":"error","name":"TokensMismatch","inputs":[{"name":"pool","type":"address","internalType":"address"},{"name":"expectedToken","type":"address","internalType":"address"},{"name":"actualToken","type":"address","internalType":"address"}]},{"type":"error","name":"TradeAmountTooSmall","inputs":[]},{"type":"error","name":"VaultBuffersArePaused","inputs":[]},{"type":"error","name":"VaultIsNotUnlocked","inputs":[]},{"type":"error","name":"VaultNotPaused","inputs":[]},{"type":"error","name":"VaultPauseWindowDurationTooLarge","inputs":[]},{"type":"error","name":"VaultPauseWindowExpired","inputs":[]},{"type":"error","name":"VaultPaused","inputs":[]},{"type":"error","name":"WrapAmountTooSmall","inputs":[{"name":"wrappedToken","type":"address","internalType":"contract IERC4626"}]},{"type":"error","name":"WrongProtocolFeeControllerDeployment","inputs":[]},{"type":"error","name":"WrongUnderlyingToken","inputs":[{"name":"wrappedToken","type":"address","internalType":"contract IERC4626"},{"name":"underlyingToken","type":"address","internalType":"address"}]},{"type":"error","name":"WrongVaultAdminDeployment","inputs":[]},{"type":"error","name":"WrongVaultExtensionDeployment","inputs":[]}],"bytecode":{"object":"0x6080604052348015600e575f5ffd5b50610daa8061001c5f395ff3fe608060405234801561000f575f5ffd5b50600436106100a2575f3560e01c806315afd409146100a65780632ea80826146100cc57806348c89491146100e1578063574a4cff146101015780635b6f4d01146101095780638380edb7146101115780639e825ff514610129578063ace9b89b1461013c578063ae6393291461014f578063d2c725e014610164578063db81718714610178578063f10d7a7514610180575b5f5ffd5b6100b96100b4366004610ac7565b610197565b6040519081526020015b60405180910390f35b6100d4610283565b6040516100c39190610b35565b6100f46100ef366004610b47565b6102db565b6040516100c39190610be1565b6100d46103a3565b6100f4610563565b610119610590565b60405190151581526020016100c3565b6100b9610137366004610bf3565b6105a1565b61011961014a366004610bf3565b6105b4565b61016261015d366004610c0e565b6105f5565b005b5f516020610d555f395f51905f525c610119565b6100b961066b565b610188610677565b6040516100c393929190610c4c565b5f6101a061069f565b6101a86106e6565b5f6101b1610712565b6001600160a01b0385165f818152600b830160205260408082205490516370a0823160e01b8152939450929091906370a08231906101f3903090600401610c84565b602060405180830381865afa15801561020e573d5f5f3e3d5ffd5b505050506040513d601f19601f820116820180604052508101906102329190610c98565b6001600160a01b0387165f908152600b850160205260409020819055905061025a8282610cc3565b935084841115610268578493505b6102728685610736565b50505061027d610755565b92915050565b60408051600180825281830190925260609160208083019080368337019050509050630561131960e31b815f815181106102bf576102bf610cd6565b6001600160e01b03199092166020928302919091019091015290565b60605f6102ed6102e961076c565b5c90565b90508015155f0361030b5761030b600161030561076c565b90610790565b61034c84848080601f0160208091040260200160405190810160405280939291908181526020018383808284375f9201919091525033939250506107979050565b91508015155f0361039c576103626102e96107a4565b15610380576040516320f1d86d60e01b815260040160405180910390fd5b61038c5f61030561076c565b61039c6103976107c8565b6107ec565b5092915050565b604080516008808252610120820190925260609160208201610100803683370190505090506348c8949160e01b815f815181106103e2576103e2610cd6565b6001600160e01b03199092166020928302919091019091015280516315afd40960e01b908290600190811061041957610419610cd6565b6001600160e01b031990921660209283029190910190910152805163ae63932960e01b908290600290811061045057610450610cd6565b6001600160e01b0319909216602092830291909101909101528051638380edb760e01b908290600390811061048757610487610cd6565b6001600160e01b0319909216602092830291909101909101528051630696392f60e51b90829060049081106104be576104be610cd6565b6001600160e01b031990921660209283029190910190910152805163db81718760e01b90829060059081106104f5576104f5610cd6565b6001600160e01b0319909216602092830291909101909101528051639e825ff560e01b908290600690811061052c5761052c610cd6565b6001600160e01b031990921660209283029190910190910152805163ace9b89b60e01b90829060079081106102bf576102bf610cd6565b60408051808201909152601381527215985d5b1d151c985b9cda595b9d119858d95d606a1b602082015290565b5f61059c6102e961076c565b905090565b5f61027d826105ae610805565b90610829565b5f5f6105c16102e96107c8565b90506105ee7f3db93ac236d7287d4b8c711cce6b3cca52815a3bd1fc0fcef99ab26afea5d200828561083d565b9392505050565b6105fd61069f565b6106056106e6565b5f61060e610712565b905061061a8483610860565b6001600160a01b0384165f908152600b8201602052604081208054849290610643908490610cc3565b9091555061065d90506001600160a01b038516848461086d565b50610666610755565b505050565b5f61059c6102e96107a4565b6060806060610684610563565b925061068e610283565b91506106986103a3565b9050909192565b5f516020610d555f395f51905f525c156106cc57604051633ee5aeb560e01b815260040160405180910390fd5b6106e460015f516020610d555f395f51905f52610305565b565b6106f16102e961076c565b15155f036106e45760405163604dd39b60e11b815260040160405180910390fd5b7f867cc37b1d81c6898e0381d9834d1320e6a009ceb8f1f455820783856710c6b590565b6107518261074383610878565b61074c90610cea565b610882565b5050565b6106e45f5f516020610d555f395f51905f52610305565b7f1369d017453f080f2416efe5ae39c8a4b4655ea0634227aaab0afdb9a9f93f0090565b80825d5050565b60606105ee83835f6108f1565b7fbcbf50c510014a975eac30806436734486f167c41af035c1645353d475d5710090565b7fa33ab5ae38c334f99ce8d4a88c1634397ed0415a9df15c29dfd3914852f2990090565b6108026107fb825c6001610d04565b8290610790565b50565b7ff74f46243717369ff9f20877dfc1ba8491e6be48bfe7acc5b65f5ac68f585c0090565b5f6105ee6102e961083a8585610996565b90565b5f6108586102e961083a846108528888610996565b90610996565b949350505050565b6107518261074c83610878565b6106668383836109a7565b5f61027d826109f1565b805f0361088d575050565b5f61089a836105ae610805565b90505f6108a78383610d17565b9050805f036108c5576108c06108bb6107a4565b610a0a565b6108d7565b815f036108d7576108d76103976107a4565b6108eb84826108e4610805565b9190610a19565b50505050565b6060814710156109225760405163cf47918160e01b8152476004820152602481018390526044015b60405180910390fd5b5f5f856001600160a01b0316848660405161093d9190610d3e565b5f6040518083038185875af1925050503d805f8114610977576040519150601f19603f3d011682016040523d82523d5f602084013e61097c565b606091505b509150915061098c868383610a2a565b9695505050505050565b5f9081526020919091526040902090565b816014528060345263a9059cbb60601b5f5260205f604460105f875af18060015f5114166109e757803d853b1517106109e7576390b8ec185f526004601cfd5b505f603452505050565b5f5f82126109fd575090565b610a05610a7d565b919050565b6108026107fb6001835c610cc3565b6106668161030561083a8686610996565b606082610a3f57610a3a82610a8a565b6105ee565b8151158015610a5657506001600160a01b0384163b155b15610a765783604051639996b31560e01b81526004016109199190610c84565b50806105ee565b6335278d125f526004601cfd5b805115610a9a5780518082602001fd5b60405163d6bda27560e01b815260040160405180910390fd5b6001600160a01b0381168114610802575f5ffd5b5f5f60408385031215610ad8575f5ffd5b8235610ae381610ab3565b946020939093013593505050565b5f8151808452602084019350602083015f5b82811015610b2b5781516001600160e01b031916865260209586019590910190600101610b03565b5093949350505050565b602081525f6105ee6020830184610af1565b5f5f60208385031215610b58575f5ffd5b82356001600160401b03811115610b6d575f5ffd5b8301601f81018513610b7d575f5ffd5b80356001600160401b03811115610b92575f5ffd5b856020828401011115610ba3575f5ffd5b6020919091019590945092505050565b5f81518084528060208401602086015e5f602082860101526020601f19601f83011685010191505092915050565b602081525f6105ee6020830184610bb3565b5f60208284031215610c03575f5ffd5b81356105ee81610ab3565b5f5f5f60608486031215610c20575f5ffd5b8335610c2b81610ab3565b92506020840135610c3b81610ab3565b929592945050506040919091013590565b606081525f610c5e6060830186610bb3565b8281036020840152610c708186610af1565b9050828103604084015261098c8185610af1565b6001600160a01b0391909116815260200190565b5f60208284031215610ca8575f5ffd5b5051919050565b634e487b7160e01b5f52601160045260245ffd5b8181038181111561027d5761027d610caf565b634e487b7160e01b5f52603260045260245ffd5b5f600160ff1b8201610cfe57610cfe610caf565b505f0390565b8082018082111561027d5761027d610caf565b8082018281125f831280158216821582161715610d3657610d36610caf565b505092915050565b5f82518060208501845e5f92019182525091905056fe9b779b17422d0df92223018b32b4d1fa46e071723d6817e2486d003becc55f00a2646970667358221220a6e70fa35c2e9a293bd60b61dda3c6cb5f6a2dbfefd802b8950c0761cd703b0464736f6c634300081e0033","linkReferences":{}},"methodIdentifiers":{"facetFuncs()":"574a4cff","facetInterfaces()":"2ea80826","facetMetadata()":"f10d7a75","facetName()":"5b6f4d01","getAddLiquidityCalledFlag(address)":"ace9b89b","getNonzeroDeltaCount()":"db817187","getTokenDelta(address)":"9e825ff5","isUnlocked()":"8380edb7","reentrancyGuardEntered()":"d2c725e0","sendTo(address,address,uint256)":"ae639329","settle(address,uint256)":"15afd409","unlock(bytes)":"48c89491"},"id":997}