{"abi":[{"type":"constructor","inputs":[{"name":"_poolManager","type":"address","internalType":"contract IPoolManager"},{"name":"_wrappedNative","type":"address","internalType":"address"},{"name":"_nativeCurrencyLabelBytes","type":"bytes32","internalType":"bytes32"}],"stateMutability":"nonpayable"},{"type":"function","name":"currencyRatioPriority","inputs":[{"name":"currency","type":"address","internalType":"address"}],"outputs":[{"name":"","type":"int256","internalType":"int256"}],"stateMutability":"view"},{"type":"function","name":"flipRatio","inputs":[{"name":"currency0","type":"address","internalType":"address"},{"name":"currency1","type":"address","internalType":"address"}],"outputs":[{"name":"","type":"bool","internalType":"bool"}],"stateMutability":"view"},{"type":"function","name":"nativeCurrencyLabel","inputs":[],"outputs":[{"name":"","type":"string","internalType":"string"}],"stateMutability":"view"},{"type":"function","name":"poolManager","inputs":[],"outputs":[{"name":"","type":"address","internalType":"contract IPoolManager"}],"stateMutability":"view"},{"type":"function","name":"tokenURI","inputs":[{"name":"positionManager","type":"address","internalType":"contract IPositionManager"},{"name":"tokenId","type":"uint256","internalType":"uint256"}],"outputs":[{"name":"","type":"string","internalType":"string"}],"stateMutability":"view"},{"type":"function","name":"wrappedNative","inputs":[],"outputs":[{"name":"","type":"address","internalType":"address"}],"stateMutability":"view"},{"type":"error","name":"InvalidAddressLength","inputs":[{"name":"len","type":"uint256","internalType":"uint256"}]},{"type":"error","name":"InvalidTick","inputs":[{"name":"tick","type":"int24","internalType":"int24"}]},{"type":"error","name":"InvalidTokenId","inputs":[{"name":"tokenId","type":"uint256","internalType":"uint256"}]}],"bytecode":{"object":"0x60e060405234801561000f575f5ffd5b5060405161648b38038061648b83398101604081905261002e91610060565b6001600160a01b0392831660c052911660805260a0526100a0565b6001600160a01b038116811461005d575f5ffd5b50565b5f5f5f60608486031215610072575f5ffd5b835161007d81610049565b602085015190935061008e81610049565b80925050604084015190509250925092565b60805160a05160c0516163a66100e55f395f818160a40152818161049801526105d001525f8181610296015261034001525f8181610119015261014f01526163a65ff3fe608060405234801561000f575f5ffd5b5060043610610060575f3560e01c8063166c597814610064578063b7af3cdc1461008a578063dc4c90d31461009f578063dee91a2c146100de578063e9dc637514610101578063eb6d3a1114610114575b5f5ffd5b6100776100723660046136c7565b61013b565b6040519081526020015b60405180910390f35b610092610285565b60405161008191906136e2565b6100c67f000000000000000000000000000000000000000000000000000000000000000081565b6040516001600160a01b039091168152602001610081565b6100f16100ec366004613717565b6103ab565b6040519015158152602001610081565b61009261010f36600461374e565b6103c8565b6100c67f000000000000000000000000000000000000000000000000000000000000000081565b5f6001600160a01b038216158061018357507f00000000000000000000000000000000000000000000000000000000000000006001600160a01b0316826001600160a01b0316145b156101915750606319919050565b4660010361027e5773a0b86991c6218b36c1d19d4a2e9eb0ce3606eb47196001600160a01b038316016101c7575061012c919050565b73dac17f958d2ee523a2206206994597c13d831ec6196001600160a01b038316016101f4575060c8919050565b736b175474e89094c44da98b954eedeac495271d0e196001600160a01b0383160161022157506064919050565b738daebade922df735c38c80c7ebd708af50815fa9196001600160a01b0383160161024f575060c719919050565b732260fac5e5542a773aa44fbcfedf7c193bc2c598196001600160a01b0383160161027e575061012b19919050565b505f919050565b60605f5b6020811080156102d757507f000000000000000000000000000000000000000000000000000000000000000081602081106102c6576102c6613778565b1a60f81b6001600160f81b03191615155b156102ee57806102e6816137a0565b915050610289565b5f816001600160401b03811115610307576103076137b8565b6040519080825280601f01601f191660200182016040528015610331576020820181803683370190505b5090505f5b828110156103a4577f0000000000000000000000000000000000000000000000000000000000000000816020811061037057610370613778565b1a60f81b82828151811061038657610386613778565b60200101906001600160f81b03191690815f1a905350600101610336565b5092915050565b5f6103b58261013b565b6103be8461013b565b1390505b92915050565b60605f5f846001600160a01b0316637ba03aad856040518263ffffffff1660e01b81526004016103fa91815260200190565b60c060405180830381865afa158015610415573d5f5f3e3d5ffd5b505050506040513d601f19601f82011682018060405250810190610439919061382f565b9150915061044e8166ffffffffffffff191690565b66ffffffffffffff19165f0361047f5760405163ed15e6cf60e01b8152600481018590526024015b60405180910390fd5b5f6104be61048e8460a0902090565b6001600160a01b037f00000000000000000000000000000000000000000000000000000000000000001690610622565b50508451602086015191935091505f6104d783836103ab565b90505f81156104e657836104e8565b825b90505f82156104f757836104f9565b845b9050610613604051806101e001604052808c8152602001846001600160a01b03168152602001836001600160a01b0316815260200161053f8561053a610285565b6106d4565b81526020016105508461053a610285565b815260200161055e85610732565b60ff16815260200161056f84610732565b60ff168152602001851515815260200161058c8a60081c60020b90565b60020b81526020016105a18a60201c60020b90565b60020b81526020018860020b81526020018a6060015160020b81526020018a6040015162ffffff1681526020017f00000000000000000000000000000000000000000000000000000000000000006001600160a01b031681526020018a608001516001600160a01b0316815250610816565b9b9a5050505050505050505050565b5f5f5f5f5f610630866109d5565b604051631e2eaeaf60e01b8152600481018290529091505f906001600160a01b03891690631e2eaeaf90602401602060405180830381865afa158015610678573d5f5f3e3d5ffd5b505050506040513d601f19601f8201168201806040525081019061069c91906138cb565b90506001600160a01b03811695508060a01c60020b945062ffffff8160b81c16935062ffffff8160d01c169250505092959194509250565b60606001600160a01b0383166106eb5750806103c2565b5f6106fd846395d89b4160e01b610a11565b905080515f036107185761071084610b2a565b9150506103c2565b8051600c101561072b5761071081610b37565b9392505050565b5f6001600160a01b03821661074957506012919050565b60408051600481526024810182526020810180516001600160e01b031663313ce56760e01b17905290515f9182916001600160a01b0386169161078b916138f9565b5f60405180830381855afa9150503d805f81146107c3576040519150601f19603f3d011682016040523d82523d5f602084013e6107c8565b606091505b5091509150816107db57505f9392505050565b805160200361080d575f818060200190518101906107f991906138cb565b905060ff811161080b57949350505050565b505b505f9392505050565b60605f6108308361082b856101800151610bbc565b610e67565b90505f6108636108438560600151610f21565b6108508660800151610f21565b61085e876101a001516110c4565b6110da565b90505f610967610875865f015161110b565b6108828760800151610f21565b60208801516001600160a01b0316156108a7576108a288602001516110c4565b6108c7565b604051806040016040528060068152602001654e617469766560d01b8152505b60408901516001600160a01b0316156108ec576108e789604001516110c4565b61090c565b604051806040016040528060068152602001654e617469766560d01b8152505b6101c08a01516001600160a01b0316156109335761092e8a6101c001516110c4565b610954565b604051806040016040528060078152602001664e6f20486f6f6b60c81b8152505b6109628b6101800151610bbc565b611116565b90505f61097b6109768761114e565b61137c565b90506109ab848484846040516020016109979493929190613904565b60405160208183030381529060405261137c565b6040516020016109bb91906139aa565b604051602081830303815290604052945050505050919050565b6040515f906109f4908390600690602001918252602082015260400190565b604051602081830303815290604052805190602001209050919050565b60408051600481526024810182526020810180516001600160e01b03166001600160e01b0319851617905290516060915f9182916001600160a01b03871691610a5a91906138f9565b5f60405180830381855afa9150503d805f8114610a92576040519150601f19603f3d011682016040523d82523d5f602084013e610a97565b606091505b509150915081610ab95760405180602001604052805f815250925050506103c2565b8051602003610aec575f81806020019051810190610ad791906138cb565b9050610ae281611389565b93505050506103c2565b604081511115610b135780806020019051810190610b0a91906139db565b925050506103c2565b505060408051602081019091525f81529392505050565b60606103c28260066114c9565b60408051600c80825281830190925260609183915f916020820181803683370190505090505f5b600c811015610bb457828181518110610b7957610b79613778565b602001015160f81c60f81b828281518110610b9657610b96613778565b60200101906001600160f81b03191690815f1a905350600101610b5e565b509392505050565b60606280000062ffffff831603610bf057505060408051808201909152600781526644796e616d696360c81b602082015290565b8162ffffff165f03610c1a575050604080518082019091526002815261302560f01b602082015290565b815f805b62ffffff831615610c875760ff811615610c445780610c3c81613a6d565b915050610c67565b610c4f600a84613a9f565b62ffffff1615610c675780610c6381613a6d565b9150505b81610c71816137a0565b9250610c809050600a84613ac4565b9250610c1e565b610c8f61366d565b5f60058410610d8d575f6004610ca860ff861687613ae9565b1015610cb5576001610cb7565b5f5b60ff169050610cc7600185613afc565b60ff16610cd5600587613ae9565b10610d0257610ce5600185613afc565b60ff16610cf3600587613ae9565b610cfd9190613ae9565b610d04565b5f5b60ff851660808501819052909250600190610d20908490613b15565b610d2a9190613ae9565b60ff1660a084015260808301518190610d4590600190613afc565b60ff16610d529190613b15565b60ff90811660408501528190610d6a90861684613b15565b610d75906001613b15565b610d7f9190613b15565b60ff16602084015250610e02565b610d98846005613ae9565b600260808401819052909150600190610db19083613b15565b610dbb9190613ae9565b60ff90811660a0840152610dd190841682613b15565b610ddc906002613b15565b60ff1660208301819052610df290600290613afc565b60ff166040830152600160c08301525b610e0f60ff841685613ae9565b610e1a90600a613c0b565b610e299062ffffff8916613c16565b8252600160e083015260048411610e40575f610e4b565b610e4b600485613ae9565b60ff166060830152610e5c82611641565b979650505050505050565b606081610e778460600151610f21565b610e848560800151610f21565b610ebd8660e0015115610e9c57866101200151610ea3565b8661010001515b8761016001518860c001518960a001518a60e00151611882565b610ef68760e0015115610ed557876101000151610edc565b8761012001515b8861016001518960c001518a60a001518b60e00151611882565b604051602001610f0a959493929190613c29565b604051602081830303815290604052905092915050565b6060815f805b82518160ff161015610f8457610f5f838260ff1681518110610f4b57610f4b613778565b01602001516001600160f81b0319166119a3565b15610f725781610f6e81613a6d565b9250505b80610f7c81613a6d565b915050610f27565b5060ff8116156110bc575f8160ff168351610f9f9190613b15565b6001600160401b03811115610fb657610fb66137b8565b6040519080825280601f01601f191660200182016040528015610fe0576020820181803683370190505b5090505f805b84518160ff1610156110b15761100a858260ff1681518110610f4b57610f4b613778565b1561104857601760fa1b838361101f816137a0565b94508151811061103157611031613778565b60200101906001600160f81b03191690815f1a9053505b848160ff168151811061105d5761105d613778565b01602001516001600160f81b0319168383611077816137a0565b94508151811061108957611089613778565b60200101906001600160f81b03191690815f1a905350806110a981613a6d565b915050610fe6565b509095945050505050565b509192915050565b60606103c26001600160a01b0383166014611a17565b6060838383866040516020016110f39493929190613cae565b60405160208183030381529060405290509392505050565b60606103c282611a23565b606084868585858b60405160200161113396959493929190613db2565b60405160208183030381529060405290509695505050505050565b60605f604051806102a0016040528061116a85602001516110c4565b815260200161117c85604001516110c4565b8152602001846101c001516001600160a01b0316815260200184606001518152602001846080015181526020016111b7856101800151610bbc565b815260200184610100015160020b815260200184610120015160020b815260200184610160015160020b8152602001611200856101000151866101200151876101400151611a65565b5f0b8152602001845f0151815260200161122885602001516001600160a01b03166088611a99565b815260200161124585604001516001600160a01b03166088611a99565b815260200161126185602001516001600160a01b03165f611a99565b815260200161127d85604001516001600160a01b03165f611a99565b81526020016112ae6112a186602001516001600160a01b03166010885f0151611aa8565b5f60ff6010610112611acb565b81526020016112df6112d286604001516001600160a01b03166010885f0151611aa8565b5f60ff60646101e4611acb565b81526020016113036112a186602001516001600160a01b03166020885f0151611aa8565b81526020016113276112d286604001516001600160a01b03166020885f0151611aa8565b815260200161134b6112a186602001516001600160a01b03166030885f0151611aa8565b815260200161136f6112d286604001516001600160a01b03166030885f0151611aa8565b9052905061072b81611b1c565b60606103c2825f5f611bf8565b6040805160208082528183019092526060915f91906020820181803683370190505090505f805b6020811015611422575f8582602081106113cc576113cc613778565b1a60f81b90506001600160f81b031981161561141957808484815181106113f5576113f5613778565b60200101906001600160f81b03191690815f1a90535082611415816137a0565b9350505b506001016113b0565b505f816001600160401b0381111561143c5761143c6137b8565b6040519080825280601f01601f191660200182016040528015611466576020820181803683370190505b5090505f5b828110156114c05783818151811061148557611485613778565b602001015160f81c60f81b8282815181106114a2576114a2613778565b60200101906001600160f81b03191690815f1a90535060010161146b565b50949350505050565b60606114d6600283613f54565b1580156114e257505f82115b80156114ef575060288211155b61150f57604051630da3d94560e31b815260048101839052602401610476565b5f826001600160401b03811115611528576115286137b8565b6040519080825280601f01601f191660200182016040528015611552576020820181803683370190505b5090506001600160a01b0384165f5b61156c600286613c16565b811015611637575f61157f826013613ae9565b61158a906008613f67565b83901c9050600f600482901c165f6115a560f0841684613afc565b90506115b082611ce9565b866115bc866002613f67565b815181106115cc576115cc613778565b60200101906001600160f81b03191690815f1a9053506115eb81611ce9565b866115f7866002613f67565b611602906001613b15565b8151811061161257611612613778565b60200101906001600160f81b03191690815f1a90535050600190920191506115619050565b5090949350505050565b60605f826020015160ff166001600160401b03811115611663576116636137b8565b6040519080825280601f01601f19166020018201604052801561168d576020820181803683370190505b5090508260e00151156116d557602560f81b81600183516116ae9190613ae9565b815181106116be576116be613778565b60200101906001600160f81b03191690815f1a9053505b8260c001511561173b57600360fc1b815f815181106116f6576116f6613778565b60200101906001600160f81b03191690815f1a905350601760f91b8160018151811061172457611724613778565b60200101906001600160f81b03191690815f1a9053505b608083015160ff165b60a0840151611754906001613f7e565b60ff1681101561179357603060f81b82828151811061177557611775613778565b60200101906001600160f81b03191690815f1a905350600101611744565b505b8251156103c2575f836060015160ff161180156117bf5750826060015160ff16836040015160ff16145b1561180f57601760f91b818460400180518091906117dc90613f97565b60ff1660ff1681525060ff16815181106117f8576117f8613778565b60200101906001600160f81b03191690815f1a9053505b825161181d90600a90613f54565b611828906030613b15565b60f81b81846040015160ff168151811061184457611844613778565b60200101906001600160f81b03191690815f1a9053506040830180515f190160ff1690528251600a90849061187a908390613c16565b905250611795565b60608461189381620d89e719613fb2565b61189d9190613fea565b60020b8660020b036118f45781156118d0576040518060400160405280600381526020016209a82b60eb1b8152506118ed565b6040518060400160405280600381526020016226a4a760e91b8152505b905061199a565b8461190281620d89e8613fb2565b61190c9190613fea565b60020b8660020b0361195f57811561193f576040518060400160405280600381526020016226a4a760e91b8152506118ed565b5060408051808201909152600381526209a82b60eb1b602082015261199a565b5f61196987611d1a565b9050821561198b576119886001600160a01b038216600160c01b613c16565b90505b611996818686611fe0565b9150505b95945050505050565b5f601160f91b6001600160f81b0319831614806119cd5750600360fa1b6001600160f81b03198316145b806119e55750600560f91b6001600160f81b03198316145b806119fd5750600d60f81b6001600160f81b03198316145b806103c25750506001600160f81b031916600960f81b1490565b606061072b83836121b6565b60606080604051019050602081016040525f8152805f19835b928101926030600a8206018453600a900480611a3c575050819003601f19909101908152919050565b5f8360020b8260020b1215611a7c57505f1961072b565b8260020b8260020b1315611a925750600161072b565b505f61072b565b606061072b83831c60036121dc565b5f60ff611ab98386861c8316613f67565b611ac39190613f54565b949350505050565b6060611b1283611adb8787613ae9565b611ae58686613ae9565b611aef898b613ae9565b611af99190613f67565b611b039190613c16565b611b0d9190613b15565b61110b565b9695505050505050565b60605f611b28836122af565b90505f611b46845f01518560200151866060015187608001516123b8565b90505f611b60856060015186608001518760a00151612402565b90505f611b818660c001518760e00151886101000151896101200151612419565b90505f611ba9611b9588610140015161110b565b88604001518960c001518a60e00151612531565b90505f611bbf886101400151896040015161267a565b9050858585858585604051602001611bdc96959493929190614009565b6040516020818303038152906040529650505050505050919050565b606083518015610bb4576003600282010460021b60405192507f4142434445464748494a4b4c4d4e4f505152535455565758595a616263646566601f526106708515027f6768696a6b6c6d6e6f707172737475767778797a303132333435363738392d5f18603f526020830181810183886020010180515f82525b60038a0199508951603f8160121c16515f53603f81600c1c1651600153603f8160061c1651600253603f811651600353505f518452600484019350828410611c73579052602001604052613d3d60f01b60038406600204808303919091525f861515909102918290035290038252509392505050565b5f600a8260ff161015611d0a57611d01826030613f7e565b60f81b92915050565b611d01826037613f7e565b919050565b60020b5f60ff82901d80830118620d89e8811115611d51576040516345c3193d60e11b8152600284900b6004820152602401610476565b7001fffcb933bd6fad37aa2d162d1a5940016001821602600160801b186002821615611d8d576ffff97272373d413259a46990580e213a0260801c5b6004821615611dac576ffff2e50f5f656932ef12357cf3c7fdcc0260801c5b6008821615611dcb576fffe5caca7e10e4e61c3624eaa0941cd00260801c5b6010821615611dea576fffcb9843d60f6159c9db58835c9266440260801c5b6020821615611e09576fff973b41fa98c081472e6896dfb254c00260801c5b6040821615611e28576fff2ea16466c96a3843ec78b326b528610260801c5b6080821615611e47576ffe5dee046a99a2a811c461f1969c30530260801c5b610100821615611e67576ffcbe86c7900a88aedcffc83b479aa3a40260801c5b610200821615611e87576ff987a7253ac413176f2b074cf7815e540260801c5b610400821615611ea7576ff3392b0822b70005940c7a398e4b70f30260801c5b610800821615611ec7576fe7159475a2c29b7443b29c7fa6e889d90260801c5b611000821615611ee7576fd097f3bdfd2022b8845ad8f792aa58250260801c5b612000821615611f07576fa9f746462d870fdf8a65dc1f90e061e50260801c5b614000821615611f27576f70d869a156d2a1b890bb3df62baf32f70260801c5b618000821615611f47576f31be135f97d08fd981231505542fcfa60260801c5b62010000821615611f68576f09aa508b5b7a84e1c677de54f3e99bc90260801c5b62020000821615611f88576e5d6af8dedb81196699c329225ee6040260801c5b62040000821615611fa7576d2216e584f5fa1ea926041bedfe980260801c5b62080000821615611fc4576b048a170391f7dc42444e8fa20260801c5b5f841315611fd0575f19045b63ffffffff0160201c9392505050565b60605f611fee8585856126c5565b90505f6120008283600160401b6127d9565b9050600160601b821080156120355761202e826c47bf19673df52e37f2410011d1602c1b600160801b6127d9565b915061204a565b61204782620186a0600160801b6127d9565b91505b815f5b8115612073578061205d81613a6d565b915061206c9050600a83613c16565b915061204d565b61207e600182613afc565b90505f5f61208c8684612880565b9150915080156120a457826120a081613a6d565b9350505b6120ac61366d565b8515612117576120bd84602b613afc565b6120c8906007613f7e565b60ff9081166020830152600260808301526120e6908516602b613ae9565b6120f1906001613b15565b60ff1660a0820152602081015161210a90600190613afc565b60ff16604082015261218c565b60098460ff161061215e5761212d600485613afc565b60ff16602082018190526005608083015261214a90600190613afc565b60ff1660a08201526004604082015261218c565b600660208201526005604082018190526121789085613afc565b612183906001613f7e565b60ff1660608201525b82815285151560c08201525f60e08201526121a681611641565b9c9b505050505050505050505050565b60606121c2838361290e565b805161307882526002016001199091019081529392505050565b60605f6121ea836002613f67565b6001600160401b03811115612201576122016137b8565b6040519080825280601f01601f19166020018201604052801561222b576020820181803683370190505b5080519091505b8015610bb4576f181899199a1a9b1b9c1cb0b131b232b360811b85600f166010811061226057612260613778565b1a60f81b82612270600184613ae9565b8151811061228057612280613778565b60200101906001600160f81b03191690815f1a90535060049490941c93806122a781614056565b915050612232565b60605f604051806080016040528084610160015181526020018461018001518152602001846101a001518152602001846101c0015181525090505f6040518060c00160405280856101e001518152602001856102000151815260200185610220015181526020018561024001518152602001856102600151815260200185610280015181525090505f612340612994565b90505f61234d8484612acc565b90505f612358612bb0565b90505f612363612bd3565b90505f61236e612be4565b90505f61237d885f0151612bf5565b905085858585858560405160200161239a9695949392919061406b565b60405160208183030381529060405298505050505050505050919050565b60605f6123c58584612c1e565b90505f6123d28786612c70565b905081816040516020016123e7929190614085565b60405160208183030381529060405292505050949350505050565b60608383836040516020016110f3939291906140df565b60605f825f0b60011461247b57825f0b5f19146124535760405180604001604052806005815260200164236e6f6e6560d81b81525061249d565b6040518060400160405280600a81526020016911b330b23296b237bbb760b11b81525061249d565b60405180604001604052806008815260200167023666164652d75760c41b8152505b90505f6124ab878787612caa565b90505f82826040516020016124c1929190614344565b60405160208183030381529060405290505f83836040516020016124e6929190614478565b6040516020818303038152906040529050818161250288612eda565b604051602001612514939291906145a5565b604051602081830303815290604052945050505050949350505050565b60605f6125486001600160a01b0386166014611a17565b90505f61255485612fd3565b90505f61256085612fd3565b90505f6001600160a01b038816156125b05761257e845f6005613053565b61258b856027602a613053565b60405160200161259c9291906145b6565b6040516020818303038152906040526125d1565b604051806040016040528060078152602001664e6f20486f6f6b60c81b8152505b90505f5f6125df8989613113565b915091505f6126188c60405180604001604052806004815260200163024a21d160e51b8152508e5160046126139190613b15565b61342b565b90505f6126248561345a565b90505f612631888861348d565b90505f61263e86866134fb565b90508383838360405160200161265794939291906145d7565b6040516020818303038152906040529a5050505050505050505050949350505050565b60606126868383613510565b156126b05760405160200161269a906145eb565b60405160208183030381529060405290506103c2565b5060408051602081019091525f815292915050565b5f806126df6126da60ff808616908716614906565b613588565b90505f811180156126f1575060128111155b156127c6578260ff168460ff1611156127695761270f600282613c16565b61271a90600a613c0b565b61272d906001600160a01b038716613f67565b915061273a600282613f54565b60010361276457612761827003298b075b4b6a5240945790619b37fd4a600160801b6127d9565b91505b610bb4565b612774600282613c16565b61277f90600a613c0b565b612792906001600160a01b038716613c16565b915061279f600282613f54565b6001036127645761276182600160801b7003298b075b4b6a5240945790619b37fd4a6127d9565b50506001600160a01b0390921692915050565b5f838302815f1985870982811083820303915050805f0361280a575f84116127ff575f5ffd5b50829004905061072b565b808411612815575f5ffd5b5f848688095f868103871696879004966002600389028118808a02820302808a02820302808a02820302808a02820302808a02820302808a02909103029181900381900460010186841190950394909402919094039290920491909117919091029150509392505050565b5f5f5f60058460ff1611156128b25761289a600585613afc565b6128a590600a614925565b6128af9086613c16565b94505b5f60046128c0600a88613f54565b1190506128ce600a87613c16565b955080156128e4576128e1866001613b15565b95505b85620186a003612900576128f9600a87613c16565b9550600191505b5084925090505b9250929050565b6060601f1960428360011b0116604051019050602081016040525f8152806f30313233343536373839616263646566600f528283018203600119855b600f811651948201946001860153600f8160041c1651855360081c84830361294a57801561297f57632194895a5f526004601cfd5b505050819003601f1990910190815292915050565b6060604051602001612ab8907f3c7376672077696474683d2232393022206865696768743d223530302220766981527f6577426f783d2230203020323930203530302220786d6c6e733d22687474703a6020820152751797bbbbbb973b999737b933979918181817b9bb339160511b60408201527f20786d6c6e733a786c696e6b3d27687474703a2f2f7777772e77332e6f72672f60568201526b189c9c9c97bc3634b735939f60a11b6076820152651e3232b3399f60d11b60828201527f3c66696c7465722069643d226631223e3c6665496d61676520726573756c743d60888201527f2270302220786c696e6b3a687265663d22646174613a696d6167652f7376672b60a88201526a1e1b5b0ed8985cd94d8d0b60aa1b60c882015260d30190565b604051602081830303815290604052905090565b60605f612adb845f01516135a3565b90505f612b10845f0151856020015187602001516040518060400160405280600381526020016203132360ec1b8152506135b9565b90505f612b468560400151866060015188604001516040518060400160405280600381526020016203132360ec1b8152506135b9565b90505f612b7c86608001518760a0015189606001516040518060400160405280600381526020016203130360ec1b8152506135b9565b905083838383604051602001612b959493929190614933565b60405160208183030381529060405294505050505092915050565b606060405180610260016040528061023a815260200161601761023a9139905090565b6060604051602001612ab890614a41565b6060604051602001612ab890614cec565b606081604051602001612c089190614f3f565b6040516020818303038152906040529050919050565b60605f8383604051602001612c349291906151f9565b60405160208183030381529060405290508081604051602001612c5892919061521c565b60405160208183030381529060405291505092915050565b60605f8383604051602001612c869291906151f9565b60405160208183030381529060405290508081604051602001612c5892919061543e565b60605f82612cb88686615672565b612cc29190613fb2565b905060048160020b13612d09576040518060400160405280601a8152602001794d3120314334312034312031303520313035203134352031343560301b8152509150610bb4565b60088160020b13612d4d57604051806040016040528060198152602001784d31203143333320343920393720313133203134352031343560381b8152509150610bb4565b60108160020b13612d9157604051806040016040528060198152602001784d31203143333320353720383920313133203134352031343560381b8152509150610bb4565b60208160020b13612dd557604051806040016040528060198152602001784d31203143323520363520383120313231203134352031343560381b8152509150610bb4565b60408160020b13612e1957604051806040016040528060198152602001784d31203143313720373320373320313239203134352031343560381b8152509150610bb4565b60808160020b13612e5c57604051806040016040528060188152602001774d312031433920383120363520313337203134352031343560401b8152509150610bb4565b6101008160020b13612ea2576040518060400160405280601a8152602001794d31203143312038392035372e3520313435203134352031343560301b8152509150610bb4565b50506040805180820190915260188152774d312031433120393720343920313435203134352031343560401b60208201529392505050565b6040805180820182526002815261373360f01b6020808301919091528251808401845260038082526203139360ec1b82840152845180860186528181526232313760e81b818501528551808701909652908552620ccccd60ea1b9285019290925260609390919060015f87900b1480612f555750855f0b5f19145b15612fb3575f865f0b5f1914612f6b5782612f6d565b845b90505f875f0b5f1914612f805782612f82565b845b905081818383604051602001612f9b9493929190615697565b60405160208183030381529060405296505050612fca565b838383836040516020016109bb9493929190615775565b50505050919050565b60605f60405180602001604052805f81525090505f8360020b121561301c57612ffd835f19613fea565b9250604051806040016040528060018152602001602d60f81b81525090505b8061302b8462ffffff1661110b565b60405160200161303c929190615841565b604051602081830303815290604052915050919050565b6060835f6130618585613ae9565b6001600160401b03811115613078576130786137b8565b6040519080825280601f01601f1916602001820160405280156130a2576020820181803683370190505b509050845b84811015613109578281815181106130c1576130c1613778565b01602001516001600160f81b031916826130db8884613ae9565b815181106130eb576130eb613778565b60200101906001600160f81b03191690815f1a9053506001016130a7565b5095945050505050565b6060805f6002613123858761584f565b61312d9190613fb2565b90506201e847198160020b121561317c57604051806040016040528060018152602001600760fb1b815250604051806040016040528060018152602001603760f81b8152509250925050612907565b620124f7198160020b12156131cc57604051806040016040528060018152602001600760fb1b8152506040518060400160405280600481526020016331302e3560e01b8152509250925050612907565b6161a7198160020b121561321c57604051806040016040528060018152602001600760fb1b8152506040518060400160405280600581526020016431342e323560d81b8152509250925050612907565b611387198160020b121561326a5760405180604001604052806002815260200161031360f41b81525060405180604001604052806002815260200161062760f31b8152509250925050612907565b5f8160020b12156132b55760405180604001604052806002815260200161313160f01b81525060405180604001604052806002815260200161323160f01b8152509250925050612907565b6113888160020b12156133025760405180604001604052806002815260200161313360f01b81525060405180604001604052806002815260200161323360f01b8152509250925050612907565b6161a88160020b121561334f5760405180604001604052806002815260200161313560f01b81525060405180604001604052806002815260200161323560f01b8152509250925050612907565b620124f88160020b121561339d5760405180604001604052806002815260200161062760f31b81525060405180604001604052806002815260200161191b60f11b8152509250925050612907565b6201e8488160020b12156133eb5760405180604001604052806002815260200161323160f01b81525060405180604001604052806002815260200161323760f01b8152509250925050612907565b604051806040016040528060028152602001610c8d60f21b81525060405180604001604052806002815260200161323760f01b8152509250925050612907565b606061344661343b836004613b15565b611b0d906007613f67565b83856040516020016110f393929190615874565b60605f8251600561346b9190613b15565b905061347b61343b826004613b15565b8360405160200161303c9291906159ab565b60605f8351600a61349e9190613b15565b90505f8351600a6134af9190613b15565b90506134bf61343b836004613b15565b856134ce61343b846004613b15565b866040516020016134e29493929190615a83565b6040516020818303038152906040529250505092915050565b60608282604051602001610f0a929190615c2b565b5f5f838360405160200161353b92919091825260601b6001600160601b031916602082015260340190565b60405160208183030381529060405280519060200120905061355c846135d5565b613567906002615ded565b613572906001613f7e565b6135809060ff165f19613c16565b119392505050565b5f5f82121561359f5761359a82615e09565b6103c2565b5090565b60606103c2826040516020016109979190615e23565b606061199a858584866040516020016109979493929190615ec3565b5f5f82116135e1575f5ffd5b600160801b82106135f457608091821c91015b600160401b821061360757604091821c91015b600160201b821061361a57602091821c91015b62010000821061362c57601091821c91015b610100821061363d57600891821c91015b6010821061364d57600491821c91015b6004821061365d57600291821c91015b60028210611d1557600101919050565b60408051610100810182525f80825260208201819052918101829052606081018290526080810182905260a0810182905260c0810182905260e081019190915290565b6001600160a01b03811681146136c4575f5ffd5b50565b5f602082840312156136d7575f5ffd5b813561072b816136b0565b602081525f82518060208401528060208501604085015e5f604082850101526040601f19601f83011684010191505092915050565b5f5f60408385031215613728575f5ffd5b8235613733816136b0565b91506020830135613743816136b0565b809150509250929050565b5f5f6040838503121561375f575f5ffd5b823561376a816136b0565b946020939093013593505050565b634e487b7160e01b5f52603260045260245ffd5b634e487b7160e01b5f52601160045260245ffd5b5f600182016137b1576137b161378c565b5060010190565b634e487b7160e01b5f52604160045260245ffd5b60405160a081016001600160401b03811182821017156137ee576137ee6137b8565b60405290565b604051601f8201601f191681016001600160401b038111828210171561381c5761381c6137b8565b604052919050565b8051611d15816136b0565b5f5f82840360c0811215613841575f5ffd5b60a081121561384e575f5ffd5b506138576137cc565b8351613862816136b0565b81526020840151613872816136b0565b6020820152604084015162ffffff8116811461388c575f5ffd5b60408201526060840151600281900b81146138a5575f5ffd5b60608201526138b660808501613824565b608082015260a0939093015192949293505050565b5f602082840312156138db575f5ffd5b5051919050565b5f81518060208401855e5f93019283525090919050565b5f61072b82846138e2565b683d913730b6b2911d1160b91b81525f61392160098301876138e2565b71111610113232b9b1b934b83a34b7b7111d1160711b815261394f61394960128301886138e2565b866138e2565b6c1116101134b6b0b3b2911d101160991b81527919185d184e9a5b5859d94bdcdd99cade1b5b0ed8985cd94d8d0b60321b600d820152905061399460278201856138e2565b61227d60f01b8152600201979650505050505050565b7f646174613a6170706c69636174696f6e2f6a736f6e3b6261736536342c00000081525f61072b601d8301846138e2565b5f602082840312156139eb575f5ffd5b81516001600160401b03811115613a00575f5ffd5b8201601f81018413613a10575f5ffd5b80516001600160401b03811115613a2957613a296137b8565b613a3c601f8201601f19166020016137f4565b818152856020838501011115613a50575f5ffd5b8160208401602083015e5f91810160200191909152949350505050565b5f60ff821660ff8103613a8257613a8261378c565b60010192915050565b634e487b7160e01b5f52601260045260245ffd5b5f62ffffff831680613ab357613ab3613a8b565b8062ffffff84160691505092915050565b5f62ffffff831680613ad857613ad8613a8b565b8062ffffff84160491505092915050565b818103818111156103c2576103c261378c565b60ff82811682821603908111156103c2576103c261378c565b808201808211156103c2576103c261378c565b6001815b6001841115613b6357808504811115613b4757613b4761378c565b6001841615613b5557908102905b60019390931c928002613b2c565b935093915050565b5f82613b79575060016103c2565b81613b8557505f6103c2565b8160018114613b9b5760028114613ba557613bc1565b60019150506103c2565b60ff841115613bb657613bb661378c565b50506001821b6103c2565b5060208310610133831016604e8410600b8410161715613be4575081810a6103c2565b613bf05f198484613b28565b805f1904821115613c0357613c0361378c565b029392505050565b5f61072b8383613b6b565b5f82613c2457613c24613a8b565b500490565b6902ab734b9bbb0b81016960b51b81525f613c47600a8301886138e2565b6201016960ed1b8152613c5d60038201886138e2565b9050602f60f81b8152613c7360018201876138e2565b90506201016960ed1b8152613c8b60038201866138e2565b9050611e1f60f11b8152613ca260028201856138e2565b98975050505050505050565b7f54686973204e465420726570726573656e74732061206c69717569646974792081527803837b9b4ba34b7b71034b71030902ab734b9bbb0b8103b1a1603d1b60208201525f613d0160398301876138e2565b602d60f81b8152613d1560018201876138e2565b9050660103837b7b617160cd1b81527f546865206f776e6572206f662074686973204e46542063616e206d6f646966796007820152791037b9103932b232b2b6903a3432903837b9b4ba34b7b7172e3760311b60278201527702e372837b7b61026b0b730b3b2b91020b2323932b9b99d160451b6041820152613d9b60598201866138e2565b9050612e3760f11b8152610e5c60028201856138e2565b6901020b2323932b9b99d160b51b81525f613dd0600a8301896138e2565b612e3760f11b8152613de560028201896138e2565b90506901020b2323932b9b99d160b51b8152613e04600a8201886138e2565b90506f02e372437b7b59020b2323932b9b99d160851b8152613e2960108201876138e2565b90506b02e372332b2902a34b2b91d160a51b8152613e4a600c8201866138e2565b90506b02e372a37b5b2b71024a21d160a51b8152613e6b600c8201856138e2565b632e372e3760e11b81527fe29aa0efb88f20444953434c41494d45523a204475652064696c6967656e636560048201527f20697320696d7065726174697665207768656e20617373657373696e6720746860248201527f6973204e46542e204d616b6520737572652063757272656e637920616464726560448201527f73736573206d61746368207468652065787065637465642063757272656e636960648201527f65732c2061732063757272656e63792073796d626f6c73206d6179206265206960848201526736b4ba30ba32b21760c11b60a482015260ac019998505050505050505050565b5f82613f6257613f62613a8b565b500690565b80820281158282048414176103c2576103c261378c565b60ff81811683821601908111156103c2576103c261378c565b5f60ff821680613fa957613fa961378c565b5f190192915050565b5f8160020b8360020b80613fc857613fc8613a8b565b627fffff1982145f1982141615613fe157613fe161378c565b90059392505050565b5f8260020b8260020b028060020b91508082146103a4576103a461378c565b5f61403b61403561394961402f614029614023878e6138e2565b8c6138e2565b8a6138e2565b886138e2565b846138e2565b651e17b9bb339f60d11b815260060198975050505050505050565b5f816140645761406461378c565b505f190190565b5f613ca261403561394961402f614029614023878e6138e2565b7f3c7465787420746578742d72656e646572696e673d226f7074696d697a65537081526432b2b2111f60d91b60208201525f6140c761403560258401866138e2565b661e17ba32bc3a1f60c91b8152600701949350505050565b7f3c67206d61736b3d2275726c2823666164652d73796d626f6c29223e3c72656381527f742066696c6c3d226e6f6e652220783d223070782220793d223070782220776960208201527f6474683d22323930707822206865696768743d22323030707822202f3e203c7460408201527f65787420793d22373070782220783d2233327078222066696c6c3d227768697460608201527f652220666f6e742d66616d696c793d2227436f7572696572204e6577272c206d60808201527f6f6e6f73706163652220666f6e742d7765696768743d223230302220666f6e7460a08201526c16b9b4bd329e91199b383c111f60991b60c08201525f6141e460cd8301866138e2565b602f60f81b81526141f860018201866138e2565b7f3c2f746578743e3c7465787420793d2231313570782220783d2233327078222081527f66696c6c3d2277686974652220666f6e742d66616d696c793d2227436f75726960208201527f6572204e6577272c206d6f6e6f73706163652220666f6e742d7765696768743d6040820152761119181811103337b73a16b9b4bd329e91199b383c111f60491b60608201529050611b126142b361429c60778401876138e2565b6a1e17ba32bc3a1f1e17b39f60a91b8152600b0190565b7f3c7265637420783d2231362220793d223136222077696474683d22323538222081527f6865696768743d22343638222072783d223236222072793d223236222066696c60208201527f6c3d227267626128302c302c302c302922207374726f6b653d227267626128326040820152721a9a96191a9a96191a9a96181719149110179f60691b606082015260730190565b6c078ce40dac2e6d67a44eae4d85609b1b81525f614365600d8301856138e2565b61149160f11b81525f5160206163515f395f51905f5260028201527f2c313839707829223e3c7265637420783d222d313670782220793d222d31367060228201527f78222077696474683d22313830707822206865696768743d22313830707822206042820152763334b6361e913737b7329110179f1e3830ba3410321e9160491b60628201526143f960798201856138e2565b7f22207374726f6b653d227267626128302c302c302c302e332922207374726f6b81527f652d77696474683d2233327078222066696c6c3d226e6f6e6522207374726f6b6020820152733296b634b732b1b0b81e913937bab7321110179f60611b6040820152631e17b39f60e11b605482015260580195945050505050565b6c078ce40dac2e6d67a44eae4d85609b1b81525f614499600d8301856138e2565b61149160f11b81525f5160206163515f395f51905f5260028201526816189c1cb83c14911f60b91b60228201527f3c7265637420783d222d313670782220793d222d31367078222077696474683d602b8201527f22313830707822206865696768743d223138307078222066696c6c3d226e6f6e604b82015264329110179f60d91b606b820152681e3830ba3410321e9160b91b607082015261453f60798201856138e2565b7f22207374726f6b653d2272676261283235352c3235352c3235352c312922206681527f696c6c3d226e6f6e6522207374726f6b652d6c696e656361703d22726f756e646020820152671110179f1e17b39f60c11b604082015260480195945050505050565b5f61199a61403561394984886138e2565b5f6145c182856138e2565b6217171760e91b815261199a60038201856138e2565b5f611b1261403561394961402f858a6138e2565b5f5160206162515f395f51905f5281527f3670782c20333932707829223e3c726563742077696474683d2233367078222060208201527f6865696768743d2233367078222072783d22387078222072793d22387078222060408201527f66696c6c3d226e6f6e6522207374726f6b653d2272676261283235352c32353560608201526c16191a9a96181719149110179f60991b60808201527f3c673e3c70617468207374796c653d227472616e73666f726d3a7472616e736c608d8201527f617465283670782c367078292220643d224d313220304c31322e36353232203960ad8201527f2e35363538374c313820312e363037374c31332e373831392031302e3231383160cd82015272026191917199c9919901b26189a171a199a189606d1b60ed8201527f31312e333437384c32342031324c31342e343334312031322e363532324c32326101008201527f2e333932332031384c31332e373831392031332e373831394c31382032322e336101208201527f3932334c31322e363532322031342e343334314c31322032344c31312e33343761014082015270382031342e343334314c362032322e333960781b6101608201527f32334c31302e323138312031332e373831394c312e363037372031384c392e356101718201527f363538372031322e363532324c302031324c392e35363538372031312e3334376101918201527f384c312e3630373720364c31302e323138312031302e323138314c3620312e366101b18201527f3037374c31312e3334373820392e35363538374c313220305a222066696c6c3d6101d182015269113bb434ba329110179f60b11b6101f18201527f3c616e696d6174655472616e73666f726d206174747269627574654e616d653d6101fb8201527f227472616e73666f726d2220747970653d22726f74617465222066726f6d3d2261021b8201527f302031382031382220746f3d2233363020313820313822206475723d2231307361023b8201527f2220726570656174436f756e743d22696e646566696e697465222f3e3c2f673e61025b820152631e17b39f60e11b61027b8201525f61027f82016103c2565b8181035f8312801583831316838312821617156103a4576103a461378c565b5f61072b60ff841683613b6b565b5f61493e82876138e2565b7f222f3e3c6665496d61676520726573756c743d2270312220786c696e6b3a687281525f516020615fb75f395f51905f526020820152614981603e8201876138e2565b90507f222f3e3c6665496d61676520726573756c743d2270322220786c696e6b3a687281525f516020615fb75f395f51905f5260208201526149c6603e8201866138e2565b631110179f60e11b81527f3c6665496d61676520726573756c743d2270332220786c696e6b3a687265663d60048201527a0899185d184e9a5b5859d94bdcdd99cade1b5b0ed8985cd94d8d0b602a1b60248201529050614a29603f8201856138e2565b631110179f60e11b8152600401979650505050505050565b7f3c6c696e6561724772616469656e742069643d22677261642d7570222078313d81527f2231222078323d2230222079313d2231222079323d2230223e3c73746f70206f60208201527f66667365743d22302e30222073746f702d636f6c6f723d2277686974652220736040820152713a37b816b7b830b1b4ba3c9e91189110179f60711b60608201527f3c73746f70206f66667365743d222e39222073746f702d636f6c6f723d22776860728201527f697465222073746f702d6f7061636974793d223022202f3e3c2f6c696e65617260928201526823b930b234b2b73a1f60b91b60b28201527f3c6c696e6561724772616469656e742069643d22677261642d646f776e22207860bb8201527f313d2230222078323d2231222079313d2230222079323d2231223e3c73746f7060db8201527f206f66667365743d22302e30222073746f702d636f6c6f723d2277686974652260fb8201527f2073746f702d6f7061636974793d223122202f3e3c73746f70206f666673657461011b8201527f3d22302e39222073746f702d636f6c6f723d227768697465222073746f702d6f61013b8201527f7061636974793d223022202f3e3c2f6c696e6561724772616469656e743e000061015b8201527f3c6c696e6561724772616469656e742069643d22677261642d73796d626f6c226101798201527f3e3c73746f70206f66667365743d22302e37222073746f702d636f6c6f723d226101998201527f7768697465222073746f702d6f7061636974793d223122202f3e3c73746f70206101b98201527f6f66667365743d222e3935222073746f702d636f6c6f723d22776869746522206101d98201527f73746f702d6f7061636974793d223022202f3e3c2f6c696e65617247726164696101f98201526332b73a1f60e11b6102198201525f61021d82016103c2565b7f3c6d61736b2069643d22666164652d757022206d61736b436f6e74656e74556e81527f6974733d226f626a656374426f756e64696e67426f78223e3c7265637420776960208201527f6474683d223122206865696768743d2231222066696c6c3d2275726c2823677260408201527030b216bab8149110179f1e17b6b0b9b59f60791b60608201527f3c6d61736b2069643d22666164652d646f776e22206d61736b436f6e74656e7460718201527f556e6974733d226f626a656374426f756e64696e67426f78223e3c726563742060918201527f77696474683d223122206865696768743d2231222066696c6c3d2275726c282360b18201527433b930b216b237bbb7149110179f1e17b6b0b9b59f60591b60d18201527f3c6d61736b2069643d226e6f6e6522206d61736b436f6e74656e74556e69747360e68201527f3d226f626a656374426f756e64696e67426f78223e3c726563742077696474686101068201527f3d223122206865696768743d2231222066696c6c3d22776869746522202f3e3c6101268201526517b6b0b9b59f60d11b6101468201527f3c6d61736b2069643d22666164652d73796d626f6c22206d61736b436f6e746561014c8201527f6e74556e6974733d227573657253706163654f6e557365223e3c72656374207761016c8201527f696474683d22323930707822206865696768743d223230307078222066696c6c61018c8201527f3d2275726c2823677261642d73796d626f6c2922202f3e3c2f6d61736b3e3c2f6101ac820152643232b3399f60d91b6101cc8201525f6101d182016103c2565b7f3c6720636c69702d706174683d2275726c2823636f726e65727329223e00000081526b1e3932b1ba103334b6361e9160a11b601d8201525f614f8560298301846138e2565b7f2220783d223070782220793d22307078222077696474683d22323930707822208152703432b4b3b43a1e911a9818383c1110179f60791b60208201527f3c72656374207374796c653d2266696c7465723a2075726c282366312922207860318201527f3d223070782220793d22307078222077696474683d223239307078222068656960518201526d33b43a1e911a9818383c1110179f60911b60718201527f203c67207374796c653d2266696c7465723a75726c2823746f702d726567696f607f8201527f6e2d626c7572293b207472616e73666f726d3a7363616c6528312e35293b2074609f8201527f72616e73666f726d2d6f726967696e3a63656e74657220746f703b223e00000060bf8201527f3c726563742066696c6c3d226e6f6e652220783d223070782220793d2230707860dc82019081527f222077696474683d22323930707822206865696768743d22353030707822202f60fc830152601f60f91b61011c8301529061011d0161199a615166827f3c656c6c697073652063783d22353025222063793d22307078222072783d223181527f38307078222072793d223132307078222066696c6c3d222330303022206f706160208201527131b4ba3c9e9118171c1a9110179f1e17b39f60711b604082015260520190565b7f3c7265637420783d22302220793d2230222077696474683d223239302220686581527f696768743d22353030222072783d223432222072793d223432222066696c6c3d60208201527f227267626128302c302c302c302922207374726f6b653d22726762612832353560408201527416191a9a96191a9a96181719149110179f1e17b39f60591b606082015260750190565b5f61520482856138e2565b64010714051160dd1b815261199a60058201856138e2565b7f3c74657874506174682073746172744f66667365743d222d313030252220666981527f6c6c3d2277686974652220666f6e742d66616d696c793d2227436f757269657260208201527f204e6577272c206d6f6e6f73706163652220666f6e742d73697a653d2231307060408201527f782220786c696e6b3a687265663d2223746578742d706174682d61223e00000060608201525f6152bf607d8301856138e2565b5f516020615f975f395f51905f5281525f5160206162d15f395f51905f5260208201525f5160206162b15f395f51905f526040820152783832b0ba21b7bab73a1e9134b73232b334b734ba329110179f60391b60608201527f3c2f74657874506174683e203c74657874506174682073746172744f6666736560798201527f743d223025222066696c6c3d2277686974652220666f6e742d66616d696c793d60998201527f2227436f7572696572204e6577272c206d6f6e6f73706163652220666f6e742d60b98201527f73697a653d22313070782220786c696e6b3a687265663d2223746578742d706160d9820152653a3416b0911f60d11b60f982015261199a6153ce60ff8301866138e2565b5f516020615f975f395f51905f5281525f5160206162d15f395f51905f5260208201525f5160206162b15f395f51905f5260408201527f70656174436f756e743d22696e646566696e69746522202f3e203c2f746578746060820152642830ba341f60d91b608082015260850190565b7f3c74657874506174682073746172744f66667365743d22353025222066696c6c81527f3d2277686974652220666f6e742d66616d696c793d2227436f7572696572204e60208201527f6577272c206d6f6e6f73706163652220666f6e742d73697a653d22313070782260408201527a103c3634b7359d343932b31e9111ba32bc3a16b830ba3416b0911f60291b60608201525f6154df607b8301856138e2565b5f516020615f975f395f51905f5281525f5160206162d15f395f51905f5260208201527f6f3d22313030252220626567696e3d22307322206475723d223330732200000060408201527f20726570656174436f756e743d22696e646566696e69746522202f3e3c2f7465605d8201527f7874506174683e3c74657874506174682073746172744f66667365743d222d35607d8201527f3025222066696c6c3d2277686974652220666f6e742d66616d696c793d222743609d8201527f6f7572696572204e6577272c206d6f6e6f73706163652220666f6e742d73697a60bd8201527f653d22313070782220786c696e6b3a687265663d2223746578742d706174682d60dd8201526230911f60e91b60fd82015261199a6156036101008301866138e2565b5f516020615f975f395f51905f5281525f5160206162d15f395f51905f5260208201525f5160206162b15f395f51905f5260408201527f70656174436f756e743d22696e646566696e69746522202f3e3c2f746578745060608201526330ba341f60e11b608082015260840190565b600282810b9082900b03627fffff198112627fffff821317156103c2576103c261378c565b6b1e31b4b931b6329031bc1e9160a11b81525f6156b7600c8301876138e2565b67383c111031bc9e9160c11b81526156d260088201876138e2565b7f70782220723d22347078222066696c6c3d22776869746522202f3e3c6369726381526636329031bc1e9160c91b6020820152905061571460278201866138e2565b67383c111031bc9e9160c11b8152905061573160088201856138e2565b7f70782220723d2232347078222066696c6c3d226e6f6e6522207374726f6b653d815269113bb434ba329110179f60b11b6020820152602a01979650505050505050565b6b1e31b4b931b6329031bc1e9160a11b81525f615795600c8301876138e2565b67383c111031bc9e9160c11b81526157b060088201876138e2565b7a383c1110391e911a383c11103334b6361e913bb434ba329110179f60291b81526b1e31b4b931b6329031bc1e9160a11b601b82015290506157f560278201866138e2565b67383c111031bc9e9160c11b8152905061581260088201856138e2565b7a383c1110391e911a383c11103334b6361e913bb434ba329110179f60291b8152601b01979650505050505050565b5f611ac361403583866138e2565b600281810b9083900b01627fffff8113627fffff19821217156103c2576103c261378c565b5f5160206163115f395f51905f5281526c1cb83c1610199a9a383c14911f60991b60208201526c1e3932b1ba103bb4b23a341e9160991b602d8201525f6159106158c1603a8401876138e2565b7f707822206865696768743d2232367078222072783d22387078222072793d223881527f7078222066696c6c3d227267626128302c302c302c302e362922202f3e0000006020820152603d0190565b5f5160206162715f395f51905f5281525f516020615ff75f395f51905f5260208201525f5160206162f15f395f51905f5260408201525f5160206162915f395f51905f526060820152601f60f91b608082015261597060818201866138e2565b9050671e17ba39b830b71f60c11b815261598d60088201856138e2565b6a1e17ba32bc3a1f1e17b39f60a91b8152600b019695505050505050565b5f5160206163115f395f51905f5281526c1cb83c1610199c1a383c14911f60991b60208201526c1e3932b1ba103bb4b23a341e9160991b602d8201525f6159f86158c1603a8401866138e2565b5f5160206162715f395f51905f5281525f516020615ff75f395f51905f5260208201525f5160206162f15f395f51905f5260408201525f5160206162915f395f51905f5260608201526e1f2437b7b59d101e17ba39b830b71f60891b6080820152615a66608f8201856138e2565b6a1e17ba32bc3a1f1e17b39f60a91b8152600b0195945050505050565b5f5160206163115f395f51905f5281526c1cb83c16101a189a383c14911f60991b60208201526c1e3932b1ba103bb4b23a341e9160991b602d8201525f615ad06158c1603a8401886138e2565b5f5160206162715f395f51905f5281525f516020615ff75f395f51905f5260208201525f5160206162f15f395f51905f5260408201525f5160206162915f395f51905f526060820152721f26b4b7102a34b1b59d101e17ba39b830b71f60691b6080820152615b4260938201876138e2565b6a1e17ba32bc3a1f1e17b39f60a91b81529050600b8101613ca261429c615c25615bba6158c1615bb4615b9b875f5160206163115f395f51905f5281526c1cb83c16101a1a1a383c14911f60991b6020820152602d0190565b6c1e3932b1ba103bb4b23a341e9160991b8152600d0190565b8b6138e2565b5f5160206162715f395f51905f5281525f516020615ff75f395f51905f5260208201525f5160206162f15f395f51905f5260408201525f5160206162915f395f51905f526060820152721f26b0bc102a34b1b59d101e17ba39b830b71f60691b608082015260930190565b876138e2565b5f5160206162515f395f51905f5281526c1b383c16101a1999b83c14911f60991b60208201527f3c726563742077696474683d223336707822206865696768743d223336707822602d8201527f2072783d22387078222072793d22387078222066696c6c3d226e6f6e65222073604d8201527f74726f6b653d2272676261283235352c3235352c3235352c302e322922202f3e606d8201527f3c70617468207374726f6b652d6c696e656361703d22726f756e642220643d22608d8201527f4d38203943382e30303030342032322e393439342031362e323039392032382060ad8201527f3237203238222066696c6c3d226e6f6e6522207374726f6b653d22776869746560cd820152631110179f60e11b60ed8201527f3c636972636c65207374796c653d227472616e73666f726d3a7472616e736c6160f1820152640e8ca66c8560db1b6101118201525f611ac3615da5615d9f615d8f6101168601886138e2565b630383c16160e51b815260040190565b856138e2565b7f70782c2030707829222063783d22307078222063793d223070782220723d2234815275383c11103334b6361e913bb434ba3291179f1e17b39f60511b602082015260360190565b60ff81811683821602908116908181146103a4576103a461378c565b5f600160ff1b8201615e1d57615e1d61378c565b505f0390565b5f516020615fd75f395f51905f5281525f5160206163315f395f51905f5260208201527f2f2f7777772e77332e6f72672f323030302f737667273e3c726563742077696460408201527f74683d27323930707827206865696768743d273530307078272066696c6c3d276060820152602360f81b60808201525f615eaa60818301846138e2565b6813979f1e17b9bb339f60b91b81526009019392505050565b5f516020615fd75f395f51905f5281525f5160206163315f395f51905f5260208201527f2f2f7777772e77332e6f72672f323030302f737667273e3c636972636c652063604082015262783d2760e81b60608201525f615f2660638301876138e2565b65272063793d2760d01b8152615f3f60068201876138e2565b9050642720723d2760d81b8152615f5960058201866138e2565b90506a7078272066696c6c3d272360a81b8152615f79600b8201856138e2565b6813979f1e17b9bb339f60b91b815260090197965050505050505056fe203c616e696d6174652061646469746976653d2273756d22206174747269627565663d22646174613a696d6167652f7376672b786d6c3b6261736536342c00003c7376672077696474683d2732393027206865696768743d2735303027207669696c793d2227436f7572696572204e6577272c206d6f6e6f73706163652220663c6665426c656e64206d6f64653d226f7665726c61792220696e3d2270302220696e323d22703122202f3e3c6665426c656e64206d6f64653d226578636c7573696f6e2220696e323d22703222202f3e3c6665426c656e64206d6f64653d226f7665726c61792220696e323d2270332220726573756c743d22626c656e644f757422202f3e3c6665476175737369616e426c757220696e3d22626c656e644f75742220737464446576696174696f6e3d22343222202f3e3c2f66696c7465723e203c636c6970506174682069643d22636f726e657273223e3c726563742077696474683d2232393022206865696768743d22353030222072783d223432222072793d22343222202f3e3c2f636c6970506174683e3c706174682069643d22746578742d706174682d612220643d224d34302031322048323530204132382032382030203020312032373820343020563436302041323820323820302030203120323530203438382048343020413238203238203020302031203132203436302056343020413238203238203020302031203430203132207a22202f3e3c706174682069643d226d696e696d61702220643d224d3233342034343443323334203435372e393439203234322e323120343633203235332034363322202f3e3c66696c7465722069643d22746f702d726567696f6e2d626c7572223e3c6665476175737369616e426c757220696e3d22536f75726365477261706869632220737464446576696174696f6e3d22323422202f3e3c2f66696c7465723e3c67207374796c653d227472616e73666f726d3a7472616e736c6174652832323c7465787420783d22313270782220793d22313770782220666f6e742d66616d70616e2066696c6c3d2272676261283235352c3235352c3235352c302e3629226f3d22313030252220626567696e3d22307322206475723d223330732220726574654e616d653d2273746172744f6666736574222066726f6d3d2230252220746f6e742d73697a653d2231317078222066696c6c3d227768697465223e3c7473203c67207374796c653d227472616e73666f726d3a7472616e736c61746528326577426f783d2730203020323930203530302720786d6c6e733d27687474703a207374796c653d227472616e73666f726d3a7472616e736c6174652837327078a2646970667358221220bb95f7fd7cd67348813749c9dd84f04e6aa2402dfeec125ad3462110b9123dbb64736f6c634300081e0033","linkReferences":{}},"methodIdentifiers":{"currencyRatioPriority(address)":"166c5978","flipRatio(address,address)":"dee91a2c","nativeCurrencyLabel()":"b7af3cdc","poolManager()":"dc4c90d3","tokenURI(address,uint256)":"e9dc6375","wrappedNative()":"eb6d3a11"},"id":1124}