{"abi":[{"type":"function","name":"BUFFER_PAUSED_OFFSET","inputs":[],"outputs":[{"name":"","type":"uint256","internalType":"uint256"}],"stateMutability":"view"},{"type":"function","name":"QUERY_DISABLED_OFFSET","inputs":[],"outputs":[{"name":"","type":"uint256","internalType":"uint256"}],"stateMutability":"view"},{"type":"function","name":"VAULT_PAUSED_OFFSET","inputs":[],"outputs":[{"name":"","type":"uint256","internalType":"uint256"}],"stateMutability":"view"}],"bytecode":{"object":"0x60e3610033600b8282823980515f1a607314602757634e487b7160e01b5f525f60045260245ffd5b305f52607381538281f3fe73000000000000000000000000000000000000000030146080604052600436106046575f3560e01c8063227e492d14604a5780632577aa90146062578063434e60ca146068575b5f5ffd5b6050606e565b60405190815260200160405180910390f35b60506083565b60505f81565b60775f60016089565b60809060016089565b81565b60805f60015b8082018082111560a757634e487b7160e01b5f52601160045260245ffd5b9291505056fea264697066735822122080c53032f3fed375877efd30dab2d8460f602e3b165000713814b23b0d92a80064736f6c634300081e0033","linkReferences":{}},"methodIdentifiers":{"BUFFER_PAUSED_OFFSET()":"227e492d","QUERY_DISABLED_OFFSET()":"434e60ca","VAULT_PAUSED_OFFSET()":"2577aa90"},"id":363}