{"abi":[{"type":"constructor","inputs":[],"stateMutability":"nonpayable"},{"type":"function","name":"count","inputs":[],"outputs":[{"name":"","type":"uint256","internalType":"uint256"}],"stateMutability":"view"},{"type":"function","name":"deny","inputs":[{"name":"usr","type":"address","internalType":"address"}],"outputs":[],"stateMutability":"nonpayable"},{"type":"function","name":"getAddress","inputs":[{"name":"key","type":"bytes32","internalType":"bytes32"}],"outputs":[{"name":"","type":"address","internalType":"address"}],"stateMutability":"view"},{"type":"function","name":"hasAddress","inputs":[{"name":"key","type":"bytes32","internalType":"bytes32"}],"outputs":[{"name":"","type":"bool","internalType":"bool"}],"stateMutability":"view"},{"type":"function","name":"ipfs","inputs":[],"outputs":[{"name":"","type":"string","internalType":"string"}],"stateMutability":"view"},{"type":"function","name":"keyAt","inputs":[{"name":"index","type":"uint256","internalType":"uint256"}],"outputs":[{"name":"","type":"bytes32","internalType":"bytes32"}],"stateMutability":"view"},{"type":"function","name":"keys","inputs":[],"outputs":[{"name":"","type":"bytes32[]","internalType":"bytes32[]"}],"stateMutability":"view"},{"type":"function","name":"rely","inputs":[{"name":"usr","type":"address","internalType":"address"}],"outputs":[],"stateMutability":"nonpayable"},{"type":"function","name":"removeAddress","inputs":[{"name":"key","type":"bytes32","internalType":"bytes32"}],"outputs":[],"stateMutability":"nonpayable"},{"type":"function","name":"setAddress","inputs":[{"name":"key","type":"bytes32","internalType":"bytes32"},{"name":"addr","type":"address","internalType":"address"}],"outputs":[],"stateMutability":"nonpayable"},{"type":"function","name":"setIPFS","inputs":[{"name":"_ipfs","type":"string","internalType":"string"}],"outputs":[],"stateMutability":"nonpayable"},{"type":"function","name":"setSha256sum","inputs":[{"name":"_sha256sum","type":"string","internalType":"string"}],"outputs":[],"stateMutability":"nonpayable"},{"type":"function","name":"setVersion","inputs":[{"name":"_version","type":"string","internalType":"string"}],"outputs":[],"stateMutability":"nonpayable"},{"type":"function","name":"sha256sum","inputs":[],"outputs":[{"name":"","type":"string","internalType":"string"}],"stateMutability":"view"},{"type":"function","name":"version","inputs":[],"outputs":[{"name":"","type":"string","internalType":"string"}],"stateMutability":"view"},{"type":"function","name":"wards","inputs":[{"name":"","type":"address","internalType":"address"}],"outputs":[{"name":"","type":"uint256","internalType":"uint256"}],"stateMutability":"view"},{"type":"event","name":"Deny","inputs":[{"name":"usr","type":"address","indexed":true,"internalType":"address"}],"anonymous":false},{"type":"event","name":"Rely","inputs":[{"name":"usr","type":"address","indexed":true,"internalType":"address"}],"anonymous":false},{"type":"event","name":"RemoveAddress","inputs":[{"name":"key","type":"bytes32","indexed":true,"internalType":"bytes32"}],"anonymous":false},{"type":"event","name":"UpdateAddress","inputs":[{"name":"key","type":"bytes32","indexed":true,"internalType":"bytes32"},{"name":"addr","type":"address","indexed":false,"internalType":"address"}],"anonymous":false},{"type":"event","name":"UpdateIPFS","inputs":[{"name":"ipfs","type":"string","indexed":false,"internalType":"string"}],"anonymous":false},{"type":"event","name":"UpdateSha256sum","inputs":[{"name":"sha256sum","type":"string","indexed":false,"internalType":"string"}],"anonymous":false},{"type":"event","name":"UpdateVersion","inputs":[{"name":"version","type":"string","indexed":false,"internalType":"string"}],"anonymous":false}],"bytecode":{"object":"0x608060405234801561000f575f5ffd5b50335f908152602081815260409182902060019055815180830190925260058252640312e302e360dc1b9082015260049061004a9082610112565b5060405133907fdd0e34038ac38b2a1ce960229778ac48a8719bc900b6c4f8d0475c6e8b385a60905f90a26101cc565b634e487b7160e01b5f52604160045260245ffd5b600181811c908216806100a257607f821691505b6020821081036100c057634e487b7160e01b5f52602260045260245ffd5b50919050565b601f82111561010d57805f5260205f20601f840160051c810160208510156100eb5750805b601f840160051c820191505b8181101561010a575f81556001016100f7565b50505b505050565b81516001600160401b0381111561012b5761012b61007a565b61013f81610139845461008e565b846100c6565b6020601f821160018114610171575f831561015a5750848201515b5f19600385901b1c1916600184901b17845561010a565b5f84815260208120601f198516915b828110156101a05787850151825560209485019460019092019101610180565b50848210156101bd57868401515f19600387901b60f8161c191681555b50505050600190811b01905550565b610c79806101d95f395ff3fe608060405234801561000f575f5ffd5b50600436106100ce575f3560e01c806306661abd146100d257806321f8a721146100e9578063307540f61461011e5780634223b5c214610133578063501bb5321461014657806354fd4d501461018057806365fae35e14610195578063788bc78c146101aa578063884a631f146101bd5780639c52a7f1146101d05780639faf6fb6146101e3578063bf353dbb146101f6578063ca446dd914610215578063d19ac77a14610228578063d7959cf91461023b578063f3295b9314610243575b5f5ffd5b6002545b6040519081526020015b60405180910390f35b6101116100f73660046108cf565b5f908152600160205260409020546001600160a01b031690565b6040516100e091906108e6565b61012661024b565b6040516100e091906108fa565b6100d66101413660046108cf565b6102a1565b6101706101543660046108cf565b5f908152600160205260409020546001600160a01b0316151590565b60405190151581526020016100e0565b61018861031c565b6040516100e0919061093c565b6101a86101a336600461098c565b6103a8565b005b6101a86101b83660046109ac565b61041a565b6101a86101cb3660046109ac565b610493565b6101a86101de36600461098c565b610500565b6101a86101f13660046108cf565b610571565b6100d661020436600461098c565b5f6020819052908152604090205481565b6101a8610223366004610a18565b61064d565b6101a86102363660046109ac565b610792565b6101886107ff565b61018861080c565b6060600280548060200260200160405190810160405280929190818152602001828054801561029757602002820191905f5260205f20905b815481526020019060010190808311610283575b5050505050905090565b6002545f9082106102f95760405162461bcd60e51b815260206004820181905260248201527f4d6f636b436861696e6c6f672f696e6465782d6f75742d6f662d626f756e647360448201526064015b60405180910390fd5b6002828154811061030c5761030c610a42565b905f5260205f2001549050919050565b6004805461032990610a56565b80601f016020809104026020016040519081016040528092919081815260200182805461035590610a56565b80156103a05780601f10610377576101008083540402835291602001916103a0565b820191905f5260205f20905b81548152906001019060200180831161038357829003601f168201915b505050505081565b335f908152602081905260409020546001146103d65760405162461bcd60e51b81526004016102f090610a8e565b6001600160a01b0381165f8181526020819052604080822060019055517fdd0e34038ac38b2a1ce960229778ac48a8719bc900b6c4f8d0475c6e8b385a609190a250565b335f908152602081905260409020546001146104485760405162461bcd60e51b81526004016102f090610a8e565b6004610455828483610b23565b507fc96e830455c6cd482ced2b3637de7e7f3c87ed0f17eff0999ba5e262ea44c67b8282604051610487929190610bdc565b60405180910390a15050565b335f908152602081905260409020546001146104c15760405162461bcd60e51b81526004016102f090610a8e565b60056104ce828483610b23565b507f6ce764b6ccabce70dd110fb75895ead7988d54d58fef7e8ee13a32d04c21f3b98282604051610487929190610bdc565b335f9081526020819052604090205460011461052e5760405162461bcd60e51b81526004016102f090610a8e565b6001600160a01b0381165f81815260208190526040808220829055517f184450df2e323acec0ed3b5c7531b81f9b4cdef7914dfd4c0a4317416bb5251b9190a250565b335f9081526020819052604090205460011461059f5760405162461bcd60e51b81526004016102f090610a8e565b5f818152600160205260409020546001600160a01b03166105ff5760405162461bcd60e51b815260206004820152601a602482015279135bd8dad0da185a5b9b1bd9cbdad95e4b5b9bdd0b599bdd5b9960321b60448201526064016102f0565b61060881610819565b5f8181526001602052604080822080546001600160a01b03191690555182917f236084b20b5721ddf3e40ed45b570186612a08edec64abae6894b60f315c54bc91a250565b335f9081526020819052604090205460011461067b5760405162461bcd60e51b81526004016102f090610a8e565b5f828152600160205260409020546001600160a01b03161580156106a757506001600160a01b03811615155b156106f457600280545f848152600360205260408120829055600182018355919091527f405787fa12a823e0f2b7631cc41b3ba8828b3321ca811111fa75cd3aa3bb5ace0182905561072e565b5f828152600160205260409020546001600160a01b03161580159061072057506001600160a01b038116155b1561072e5761072e82610819565b5f828152600160205260409081902080546001600160a01b0319166001600160a01b0384161790555182907fcf0ecd10d1399d98978051da48095f368d6f1fa3292d5fc09135b92aa2a4d733906107869084906108e6565b60405180910390a25050565b335f908152602081905260409020546001146107c05760405162461bcd60e51b81526004016102f090610a8e565b60066107cd828483610b23565b507fc7d51f843aa4e748744967527c18b55884fbbd978794939a53e6de466659169e8282604051610487929190610bdc565b6006805461032990610a56565b6005805461032990610a56565b5f8181526003602052604081205460025490919061083990600190610c0a565b9050808214610894575f6002828154811061085657610856610a42565b905f5260205f2001549050806002848154811061087557610875610a42565b5f91825260208083209091019290925591825260039052604090208290555b60028054806108a5576108a5610c2f565b5f828152602080822083015f19908101839055909201909255938152600390935250506040812055565b5f602082840312156108df575f5ffd5b5035919050565b6001600160a01b0391909116815260200190565b602080825282518282018190525f918401906040840190835b81811015610931578351835260209384019390920191600101610913565b509095945050505050565b602081525f82518060208401528060208501604085015e5f604082850101526040601f19601f83011684010191505092915050565b80356001600160a01b0381168114610987575f5ffd5b919050565b5f6020828403121561099c575f5ffd5b6109a582610971565b9392505050565b5f5f602083850312156109bd575f5ffd5b82356001600160401b038111156109d2575f5ffd5b8301601f810185136109e2575f5ffd5b80356001600160401b038111156109f7575f5ffd5b856020828401011115610a08575f5ffd5b6020919091019590945092505050565b5f5f60408385031215610a29575f5ffd5b82359150610a3960208401610971565b90509250929050565b634e487b7160e01b5f52603260045260245ffd5b600181811c90821680610a6a57607f821691505b602082108103610a8857634e487b7160e01b5f52602260045260245ffd5b50919050565b6020808252601b908201527a135bd8dad0da185a5b9b1bd9cbdb9bdd0b585d5d1a1bdc9a5e9959602a1b604082015260600190565b634e487b7160e01b5f52604160045260245ffd5b601f821115610b1e57805f5260205f20601f840160051c81016020851015610afc5750805b601f840160051c820191505b81811015610b1b575f8155600101610b08565b50505b505050565b6001600160401b03831115610b3a57610b3a610ac3565b610b4e83610b488354610a56565b83610ad7565b5f601f841160018114610b7f575f8515610b685750838201355b5f19600387901b1c1916600186901b178355610b1b565b5f83815260208120601f198716915b82811015610bae5786850135825560209485019460019092019101610b8e565b5086821015610bca575f1960f88860031b161c19848701351681555b505060018560011b0183555050505050565b60208152816020820152818360408301375f818301604090810191909152601f909201601f19160101919050565b81810381811115610c2957634e487b7160e01b5f52601160045260245ffd5b92915050565b634e487b7160e01b5f52603160045260245ffdfea264697066735822122039bdf2c6dfa28adeccf9359b488e1cbb05ec1bee09ab1bbf347e7254b1ba05a364736f6c634300081e0033","linkReferences":{}},"methodIdentifiers":{"count()":"06661abd","deny(address)":"9c52a7f1","getAddress(bytes32)":"21f8a721","hasAddress(bytes32)":"501bb532","ipfs()":"d7959cf9","keyAt(uint256)":"4223b5c2","keys()":"307540f6","rely(address)":"65fae35e","removeAddress(bytes32)":"9faf6fb6","setAddress(bytes32,address)":"ca446dd9","setIPFS(string)":"d19ac77a","setSha256sum(string)":"884a631f","setVersion(string)":"788bc78c","sha256sum()":"f3295b93","version()":"54fd4d50","wards(address)":"bf353dbb"},"id":764}