{"abi":[{"type":"constructor","inputs":[{"name":"vault","type":"address","internalType":"contract IVault"}],"stateMutability":"nonpayable"},{"type":"function","name":"addOrUpdateBalancerContractAlias","inputs":[{"name":"contractAlias","type":"string","internalType":"string"},{"name":"contractAddress","type":"address","internalType":"address"}],"outputs":[],"stateMutability":"nonpayable"},{"type":"function","name":"deprecateBalancerContract","inputs":[{"name":"contractAddress","type":"address","internalType":"address"}],"outputs":[],"stateMutability":"nonpayable"},{"type":"function","name":"deregisterBalancerContract","inputs":[{"name":"contractName","type":"string","internalType":"string"}],"outputs":[],"stateMutability":"nonpayable"},{"type":"function","name":"getActionId","inputs":[{"name":"selector","type":"bytes4","internalType":"bytes4"}],"outputs":[{"name":"","type":"bytes32","internalType":"bytes32"}],"stateMutability":"view"},{"type":"function","name":"getAuthorizer","inputs":[],"outputs":[{"name":"","type":"address","internalType":"contract IAuthorizer"}],"stateMutability":"view"},{"type":"function","name":"getBalancerContract","inputs":[{"name":"contractType","type":"uint8","internalType":"enum ContractType"},{"name":"contractName","type":"string","internalType":"string"}],"outputs":[{"name":"contractAddress","type":"address","internalType":"address"},{"name":"isActive","type":"bool","internalType":"bool"}],"stateMutability":"view"},{"type":"function","name":"getBalancerContractInfo","inputs":[{"name":"contractAddress","type":"address","internalType":"address"}],"outputs":[{"name":"info","type":"tuple","internalType":"struct IBalancerContractRegistry.ContractInfo","components":[{"name":"contractType","type":"uint8","internalType":"enum ContractType"},{"name":"isRegistered","type":"bool","internalType":"bool"},{"name":"isActive","type":"bool","internalType":"bool"}]}],"stateMutability":"view"},{"type":"function","name":"getVault","inputs":[],"outputs":[{"name":"","type":"address","internalType":"contract IVault"}],"stateMutability":"view"},{"type":"function","name":"isActiveBalancerContract","inputs":[{"name":"contractType","type":"uint8","internalType":"enum ContractType"},{"name":"contractAddress","type":"address","internalType":"address"}],"outputs":[{"name":"","type":"bool","internalType":"bool"}],"stateMutability":"view"},{"type":"function","name":"isTrustedRouter","inputs":[{"name":"router","type":"address","internalType":"address"}],"outputs":[{"name":"","type":"bool","internalType":"bool"}],"stateMutability":"view"},{"type":"function","name":"registerBalancerContract","inputs":[{"name":"contractType","type":"uint8","internalType":"enum ContractType"},{"name":"contractName","type":"string","internalType":"string"},{"name":"contractAddress","type":"address","internalType":"address"}],"outputs":[],"stateMutability":"nonpayable"},{"type":"event","name":"BalancerContractDeprecated","inputs":[{"name":"contractAddress","type":"address","indexed":true,"internalType":"address"}],"anonymous":false},{"type":"event","name":"BalancerContractDeregistered","inputs":[{"name":"contractType","type":"uint8","indexed":true,"internalType":"enum ContractType"},{"name":"contractName","type":"string","indexed":true,"internalType":"string"},{"name":"contractAddress","type":"address","indexed":true,"internalType":"address"}],"anonymous":false},{"type":"event","name":"BalancerContractRegistered","inputs":[{"name":"contractType","type":"uint8","indexed":true,"internalType":"enum ContractType"},{"name":"contractName","type":"string","indexed":true,"internalType":"string"},{"name":"contractAddress","type":"address","indexed":true,"internalType":"address"}],"anonymous":false},{"type":"event","name":"ContractAliasUpdated","inputs":[{"name":"contractAlias","type":"string","indexed":true,"internalType":"string"},{"name":"contractAddress","type":"address","indexed":true,"internalType":"address"}],"anonymous":false},{"type":"error","name":"ContractAddressAlreadyRegistered","inputs":[{"name":"contractType","type":"uint8","internalType":"enum ContractType"},{"name":"contractAddress","type":"address","internalType":"address"}]},{"type":"error","name":"ContractAddressNotRegistered","inputs":[{"name":"contractAddress","type":"address","internalType":"address"}]},{"type":"error","name":"ContractAliasInUseAsName","inputs":[{"name":"contractType","type":"uint8","internalType":"enum ContractType"},{"name":"contractName","type":"string","internalType":"string"}]},{"type":"error","name":"ContractAlreadyDeprecated","inputs":[{"name":"contractAddress","type":"address","internalType":"address"}]},{"type":"error","name":"ContractNameAlreadyRegistered","inputs":[{"name":"contractType","type":"uint8","internalType":"enum ContractType"},{"name":"contractName","type":"string","internalType":"string"}]},{"type":"error","name":"ContractNameInUseAsAlias","inputs":[{"name":"contractName","type":"string","internalType":"string"},{"name":"contractAddress","type":"address","internalType":"address"}]},{"type":"error","name":"ContractNameNotRegistered","inputs":[{"name":"contractName","type":"string","internalType":"string"}]},{"type":"error","name":"InconsistentState","inputs":[{"name":"contractName","type":"string","internalType":"string"},{"name":"contractAddress","type":"address","internalType":"address"}]},{"type":"error","name":"InvalidContractAlias","inputs":[]},{"type":"error","name":"InvalidContractName","inputs":[]},{"type":"error","name":"SenderNotAllowed","inputs":[]},{"type":"error","name":"VaultNotSet","inputs":[]},{"type":"error","name":"ZeroContractAddress","inputs":[]}],"bytecode":{"object":"0x60c060405234801561000f575f5ffd5b5060405161138a38038061138a83398101604081905261002e91610074565b306080819052819081906001600160a01b03821661005f57604051630647140b60e51b815260040160405180910390fd5b506001600160a01b031660a052506100a19050565b5f60208284031215610084575f5ffd5b81516001600160a01b038116811461009a575f5ffd5b9392505050565b60805160a0516112c16100c95f395f818161077d0152610dca01525f61068901526112c15ff3fe608060405234801561000f575f5ffd5b5060043610610097575f3560e01c8063264e97e01461009b5780632967af96146100c357806341d8c0bb146100d857806344969a9c1461010a578063851c1bb31461011d5780638554c3271461013e5780638d928af81461015e578063aaabadc514610173578063ae2733a41461017b578063c7f907931461018e578063e0376ab4146101a1575b5f5ffd5b6100ae6100a9366004610ed3565b6101b4565b60405190151581526020015b60405180910390f35b6100d66100d1366004610f8b565b6101c6565b005b6100eb6100e6366004610fec565b6103e3565b604080516001600160a01b0390931683529015156020830152016100ba565b6100d6610118366004610ed3565b6104ea565b61013061012b366004611036565b610686565b6040519081526020016100ba565b61015161014c366004610ed3565b6106ea565b6040516100ba9190611091565b61016661077b565b6040516100ba91906110c1565b6101666107a4565b6100ae6101893660046110d5565b61080c565b6100d661019c3660046110ff565b61081e565b6100d66101af366004611130565b6109be565b5f6101c0600283610cc6565b92915050565b6101ce610d74565b81515f036101ef5760405163907f9fd960e01b815260040160405180910390fd5b6001600160a01b0381166102165760405163b4d92c5360e01b815260040160405180910390fd5b6001600160a01b0381165f908152600160205260408082208151606081019092528054829060ff16600481111561024f5761024f61105d565b60048111156102605761026061105d565b8152905460ff6101008204811615156020808501919091526201000090920416151560409092019190915281015190915015155f036102bd5781604051633d6d74d960e21b81526004016102b491906110c1565b60405180910390fd5b5f6102c784610db5565b5f818152602081905260409020549091506001600160a01b03168015610375576001600160a01b0381165f90815260016020526040908190208151606081019092528054829060ff1660048111156103215761032161105d565b60048111156103325761033261105d565b8152905460ff61010082048116151560208401526201000090910416151560409182015281519051631119b3c360e21b81529194506102b49187906004016111bb565b5f828152600260205260409081902080546001600160a01b0319166001600160a01b03871690811790915590516103ad9087906111da565b604051908190038120907f06618a6a1a6a413a59097e7c362ee8260afae8f07bd94bc0938e573058465483905f90a35050505050565b5f5f5f6103ef84610db5565b5f818152602081905260409020549091506001600160a01b03168061042757505f818152600260205260409020546001600160a01b03165b6001600160a01b0381165f908152600160205260408082208151606081019092528054829060ff1660048111156104605761046061105d565b60048111156104715761047161105d565b8152905460ff6101008204811615156020808501919091526201000090920416151560409092019190915281015190915080156104d057508660048111156104bb576104bb61105d565b815160048111156104ce576104ce61105d565b145b156104e057819450806040015193505b5050509250929050565b6104f2610d74565b6001600160a01b0381166105195760405163b4d92c5360e01b815260040160405180910390fd5b6001600160a01b0381165f908152600160205260408082208151606081019092528054829060ff1660048111156105525761055261105d565b60048111156105635761056361105d565b8152905460ff6101008204811615156020808501919091526201000090920416151560409092019190915281015190915015155f036105b75781604051633d6d74d960e21b81526004016102b491906110c1565b604081015115155f036105df5781604051631f118c3560e01b81526004016102b491906110c1565b5f60408083018290526001600160a01b0384168252600160208190529120825181548493839160ff19169083600481111561061c5761061c61105d565b0217905550602082015181546040938401511515620100000262ff000019921515610100029290921662ffff001990911617179055516001600160a01b038316907f07b81cace396ea12f83465895486ac006cd17917e41b9759ad5e663404f1497b905f90a25050565b5f7f0000000000000000000000000000000000000000000000000000000000000000826040516020016106cd9291909182526001600160e01b031916602082015260240190565b604051602081830303815290604052805190602001209050919050565b604080516060810182525f80825260208201819052918101919091526001600160a01b0382165f90815260016020526040908190208151606081019092528054829060ff1660048111156107405761074061105d565b60048111156107515761075161105d565b8152905460ff61010082048116151560208401526201000090910416151560409091015292915050565b7f000000000000000000000000000000000000000000000000000000000000000090565b905090565b5f6107ad61077b565b6001600160a01b031663aaabadc56040518163ffffffff1660e01b8152600401602060405180830381865afa1580156107e8573d5f5f3e3d5ffd5b505050506040513d601f19601f8201168201806040525081019061079f91906111f0565b5f6108178383610cc6565b9392505050565b610826610d74565b80515f0361084757604051634186483f60e11b815260040160405180910390fd5b5f61085182610db5565b5f818152602081905260409020549091506001600160a01b03168061088b578260405163cd3599f960e01b81526004016102b4919061120b565b6001600160a01b0381165f908152600160205260408082208151606081019092528054829060ff1660048111156108c4576108c461105d565b60048111156108d5576108d561105d565b8152905460ff6101008204811615156020808501919091526201000090920416151560409092019190915281015190915015155f0361092b578382604051631b53d60560e11b81526004016102b492919061121d565b5f8381526020818152604080832080546001600160a01b03191690556001600160a01b038516808452600190925291829020805462ffffff1916905590516109749086906111da565b604051908190039020825160048111156109905761099061105d565b6040517ffa2e7bfe3791287aa74ffe867372b78e61b60e0516978c4952f83f7416fafb7c905f90a450505050565b6109c6610d74565b6001600160a01b0381166109ed5760405163b4d92c5360e01b815260040160405180910390fd5b81515f03610a0e57604051634186483f60e11b815260040160405180910390fd5b6001600160a01b0381165f908152600160205260408082208151606081019092528054829060ff166004811115610a4757610a4761105d565b6004811115610a5857610a5861105d565b8152905460ff6101008204811615156020808501919091526201000090920416151560409092019190915281015190915015610aac578051604051630968538360e21b81526102b491908490600401611246565b5f610ab684610db5565b5f818152602081905260409020549091506001600160a01b03168015610b64576001600160a01b0381165f90815260016020526040908190208151606081019092528054829060ff166004811115610b1057610b1061105d565b6004811115610b2157610b2161105d565b8152905460ff6101008204811615156020840152620100009091041615156040918201528151905163a1e69ed360e01b81529194506102b49187906004016111bb565b5f828152600260205260409020546001600160a01b03168015610b9e5785816040516306d4f99960e41b81526004016102b492919061121d565b5f838152602081905260409081902080546001600160a01b0319166001600160a01b03881617905580516060810190915280886004811115610be257610be261105d565b81526001602080830182905260409283018290526001600160a01b0389165f90815290829052919091208251815491929091839160ff1990911690836004811115610c2f57610c2f61105d565b0217905550602082015181546040938401511515620100000262ff000019921515610100029290921662ffff001990911617179055516001600160a01b03861690610c7b9088906111da565b6040518091039020886004811115610c9557610c9561105d565b6040517fb12ed936cf481273b3ed037dc706d110c49bd7ba6743e67082cd772a6e9102e2905f90a450505050505050565b6001600160a01b0381165f90815260016020526040808220815160608101909252805483929190829060ff166004811115610d0357610d0361105d565b6004811115610d1457610d1461105d565b8152905460ff6101008204811615156020840152620100009091041615156040918201528101519091508015610d6c5750836004811115610d5757610d5761105d565b81516004811115610d6a57610d6a61105d565b145b949350505050565b5f610d895f356001600160e01b031916610686565b9050610d958133610dc7565b610db2576040516323dada5360e01b815260040160405180910390fd5b50565b5f816040516020016106cd91906111da565b5f7f00000000000000000000000000000000000000000000000000000000000000006001600160a01b031663aaabadc56040518163ffffffff1660e01b8152600401602060405180830381865afa158015610e24573d5f5f3e3d5ffd5b505050506040513d601f19601f82011682018060405250810190610e4891906111f0565b6040516326f8aa2160e21b8152600481018590526001600160a01b0384811660248301523060448301529190911690639be2a88490606401602060405180830381865afa158015610e9b573d5f5f3e3d5ffd5b505050506040513d601f19601f82011682018060405250810190610817919061126c565b6001600160a01b0381168114610db2575f5ffd5b5f60208284031215610ee3575f5ffd5b813561081781610ebf565b634e487b7160e01b5f52604160045260245ffd5b5f82601f830112610f11575f5ffd5b81356001600160401b03811115610f2a57610f2a610eee565b604051601f8201601f19908116603f011681016001600160401b0381118282101715610f5857610f58610eee565b604052818152838201602001851015610f6f575f5ffd5b816020850160208301375f918101602001919091529392505050565b5f5f60408385031215610f9c575f5ffd5b82356001600160401b03811115610fb1575f5ffd5b610fbd85828601610f02565b9250506020830135610fce81610ebf565b809150509250929050565b803560058110610fe7575f5ffd5b919050565b5f5f60408385031215610ffd575f5ffd5b61100683610fd9565b915060208301356001600160401b03811115611020575f5ffd5b61102c85828601610f02565b9150509250929050565b5f60208284031215611046575f5ffd5b81356001600160e01b031981168114610817575f5ffd5b634e487b7160e01b5f52602160045260245ffd5b6005811061108d57634e487b7160e01b5f52602160045260245ffd5b9052565b5f6060820190506110a3828451611071565b60208301511515602083015260408301511515604083015292915050565b6001600160a01b0391909116815260200190565b5f5f604083850312156110e6575f5ffd5b6110ef83610fd9565b91506020830135610fce81610ebf565b5f6020828403121561110f575f5ffd5b81356001600160401b03811115611124575f5ffd5b610d6c84828501610f02565b5f5f5f60608486031215611142575f5ffd5b61114b84610fd9565b925060208401356001600160401b03811115611165575f5ffd5b61117186828701610f02565b925050604084013561118281610ebf565b809150509250925092565b5f81518084528060208401602086015e5f602082860101526020601f19601f83011685010191505092915050565b6111c58184611071565b604060208201525f610d6c604083018461118d565b5f82518060208501845e5f920191825250919050565b5f60208284031215611200575f5ffd5b815161081781610ebf565b602081525f610817602083018461118d565b604081525f61122f604083018561118d565b905060018060a01b03831660208301529392505050565b604081016112548285611071565b6001600160a01b039290921660209190910152919050565b5f6020828403121561127c575f5ffd5b81518015158114610817575f5ffdfea2646970667358221220c496579cbda7c07d2cc28bad9d23891333cc6131242c3b17ab6aadaa00f6170f64736f6c634300081e0033","linkReferences":{}},"methodIdentifiers":{"addOrUpdateBalancerContractAlias(string,address)":"2967af96","deprecateBalancerContract(address)":"44969a9c","deregisterBalancerContract(string)":"c7f90793","getActionId(bytes4)":"851c1bb3","getAuthorizer()":"aaabadc5","getBalancerContract(uint8,string)":"41d8c0bb","getBalancerContractInfo(address)":"8554c327","getVault()":"8d928af8","isActiveBalancerContract(uint8,address)":"ae2733a4","isTrustedRouter(address)":"264e97e0","registerBalancerContract(uint8,string,address)":"e0376ab4"},"id":301}